{
  "abi": [
    {
      "anonymous": false,
      "inputs": [
        {
          "indexed": true,
          "internalType": "address",
          "name": "sender",
          "type": "address"
        },
        {
          "indexed": false,
          "internalType": "uint256",
          "name": "amount",
          "type": "uint256"
        }
      ],
      "name": "Deposited",
      "type": "event"
    },
    {
      "anonymous": false,
      "inputs": [
        {
          "indexed": true,
          "internalType": "address",
          "name": "previousOwner",
          "type": "address"
        },
        {
          "indexed": true,
          "internalType": "address",
          "name": "newOwner",
          "type": "address"
        }
      ],
      "name": "OwnershipTransferred",
      "type": "event"
    },
    {
      "anonymous": false,
      "inputs": [
        {
          "indexed": true,
          "internalType": "address",
          "name": "receiver",
          "type": "address"
        },
        {
          "indexed": false,
          "internalType": "uint256",
          "name": "amount",
          "type": "uint256"
        }
      ],
      "name": "RbtcTransferred",
      "type": "event"
    },
    {
      "anonymous": false,
      "inputs": [
        {
          "indexed": true,
          "internalType": "address",
          "name": "receiver",
          "type": "address"
        },
        {
          "indexed": true,
          "internalType": "address",
          "name": "token",
          "type": "address"
        },
        {
          "indexed": false,
          "internalType": "uint256",
          "name": "amount",
          "type": "uint256"
        }
      ],
      "name": "TokensTransferred",
      "type": "event"
    },
    {
      "payable": true,
      "stateMutability": "payable",
      "type": "fallback"
    },
    {
      "constant": true,
      "inputs": [],
      "name": "isOwner",
      "outputs": [
        {
          "internalType": "bool",
          "name": "",
          "type": "bool"
        }
      ],
      "payable": false,
      "stateMutability": "view",
      "type": "function"
    },
    {
      "constant": true,
      "inputs": [],
      "name": "owner",
      "outputs": [
        {
          "internalType": "address",
          "name": "",
          "type": "address"
        }
      ],
      "payable": false,
      "stateMutability": "view",
      "type": "function"
    },
    {
      "constant": false,
      "inputs": [
        {
          "internalType": "address",
          "name": "newOwner",
          "type": "address"
        }
      ],
      "name": "transferOwnership",
      "outputs": [],
      "payable": false,
      "stateMutability": "nonpayable",
      "type": "function"
    },
    {
      "constant": false,
      "inputs": [
        {
          "internalType": "address payable",
          "name": "_receiver",
          "type": "address"
        },
        {
          "internalType": "uint256",
          "name": "_amount",
          "type": "uint256"
        }
      ],
      "name": "transferRbtc",
      "outputs": [],
      "payable": false,
      "stateMutability": "nonpayable",
      "type": "function"
    },
    {
      "constant": false,
      "inputs": [
        {
          "internalType": "address",
          "name": "_receiver",
          "type": "address"
        },
        {
          "internalType": "address",
          "name": "_token",
          "type": "address"
        },
        {
          "internalType": "uint256",
          "name": "_amount",
          "type": "uint256"
        }
      ],
      "name": "transferTokens",
      "outputs": [],
      "payable": false,
      "stateMutability": "nonpayable",
      "type": "function"
    }
  ],
  "bytecode": {
    "object": "0x608060405260006100176001600160e01b0361006616565b600080546001600160a01b0319166001600160a01b0383169081178255604051929350917f8be0079c531659141344cd1fd0a4f28419497f9722a3daafe3b4186f6b6457e0908290a35061006a565b3390565b610640806100796000396000f3fe60806040526004361061004a5760003560e01c80631adb05a4146100895780638da5cb5b146100c25780638f32d59b146100f3578063a64b6e5f1461011c578063f2fde38b1461015f575b34156100875760408051348152905133917f2da466a7b24304f47e87fa2e1e5a81b9831ce54fec19055ce277ca2f39ba42c4919081900360200190a25b005b34801561009557600080fd5b50610087600480360360408110156100ac57600080fd5b506001600160a01b038135169060200135610192565b3480156100ce57600080fd5b506100d76102aa565b604080516001600160a01b039092168252519081900360200190f35b3480156100ff57600080fd5b506101086102b9565b604080519115158252519081900360200190f35b34801561012857600080fd5b506100876004803603606081101561013f57600080fd5b506001600160a01b038135811691602081013590911690604001356102dd565b34801561016b57600080fd5b506100876004803603602081101561018257600080fd5b50356001600160a01b03166104ed565b61019a6102b9565b6101da576040805162461bcd60e51b815260206004820152600c60248201526b1d5b985d5d1a1bdc9a5e995960a21b604482015290519081900360640190fd5b6001600160a01b038216610230576040805162461bcd60e51b8152602060048201526018602482015277496e76616c6964207265636569766572206164647265737360401b604482015290519081900360640190fd5b6040516001600160a01b0383169082156108fc029083906000818181858888f19350505050158015610266573d6000803e3d6000fd5b506040805182815290516001600160a01b038416917f01bde73ead04b7b81fb4790e7e779f1cc42b67cee2792826931dbfaada58b0f9919081900360200190a25050565b6000546001600160a01b031690565b600080546001600160a01b03166102ce610541565b6001600160a01b031614905090565b6102e56102b9565b610325576040805162461bcd60e51b815260206004820152600c60248201526b1d5b985d5d1a1bdc9a5e995960a21b604482015290519081900360640190fd5b6001600160a01b03831661037b576040805162461bcd60e51b8152602060048201526018602482015277496e76616c6964207265636569766572206164647265737360401b604482015290519081900360640190fd5b6001600160a01b0382166103ce576040805162461bcd60e51b8152602060048201526015602482015274496e76616c696420746f6b656e206164647265737360581b604482015290519081900360640190fd5b816001600160a01b031663a9059cbb84836040518363ffffffff1660e01b815260040180836001600160a01b03166001600160a01b0316815260200182815260200192505050602060405180830381600087803b15801561042e57600080fd5b505af1158015610442573d6000803e3d6000fd5b505050506040513d602081101561045857600080fd5b505161049d576040805162461bcd60e51b815260206004820152600f60248201526e151c985b9cd9995c8819985a5b1959608a1b604482015290519081900360640190fd5b816001600160a01b0316836001600160a01b03167f1b89874203ff7f0bba87c969ada3f32fda22ed38a6706d35199d21280c7811b1836040518082815260200191505060405180910390a3505050565b6104f56102b9565b610535576040805162461bcd60e51b815260206004820152600c60248201526b1d5b985d5d1a1bdc9a5e995960a21b604482015290519081900360640190fd5b61053e81610545565b50565b3390565b6001600160a01b03811661058a5760405162461bcd60e51b81526004018080602001828103825260268152602001806105e66026913960400191505060405180910390fd5b600080546040516001600160a01b03808516939216917f8be0079c531659141344cd1fd0a4f28419497f9722a3daafe3b4186f6b6457e091a3600080546001600160a01b0319166001600160a01b039290921691909117905556fe4f776e61626c653a206e6577206f776e657220697320746865207a65726f2061646472657373a265627a7a7231582005f16264e274a6c0e11ab4ebaba79cf19dbae000a61f17faf445c29fc75a482464736f6c63430005110032",
    "linkReferences": {}
  },
  "methodIdentifiers": {
    "isOwner()": "8f32d59b",
    "owner()": "8da5cb5b",
    "transferOwnership(address)": "f2fde38b",
    "transferRbtc(address,uint256)": "1adb05a4",
    "transferTokens(address,address,uint256)": "a64b6e5f"
  },
  "id": 58
}