{
  "abi": [
    {
      "anonymous": false,
      "inputs": [
        {
          "indexed": true,
          "internalType": "address",
          "name": "_oldImplementation",
          "type": "address"
        },
        {
          "indexed": true,
          "internalType": "address",
          "name": "_newImplementation",
          "type": "address"
        }
      ],
      "name": "ImplementationChanged",
      "type": "event"
    },
    {
      "anonymous": false,
      "inputs": [
        {
          "indexed": true,
          "internalType": "address",
          "name": "_oldOwner",
          "type": "address"
        },
        {
          "indexed": true,
          "internalType": "address",
          "name": "_newOwner",
          "type": "address"
        }
      ],
      "name": "OwnershipTransferred",
      "type": "event"
    },
    {
      "payable": true,
      "stateMutability": "payable",
      "type": "fallback"
    },
    {
      "constant": true,
      "inputs": [],
      "name": "BASE_RATE",
      "outputs": [
        {
          "internalType": "uint256",
          "name": "",
          "type": "uint256"
        }
      ],
      "payable": false,
      "stateMutability": "view",
      "type": "function"
    },
    {
      "constant": true,
      "inputs": [],
      "name": "DIVISOR",
      "outputs": [
        {
          "internalType": "uint256",
          "name": "",
          "type": "uint256"
        }
      ],
      "payable": false,
      "stateMutability": "view",
      "type": "function"
    },
    {
      "constant": true,
      "inputs": [],
      "name": "SOV",
      "outputs": [
        {
          "internalType": "contract IERC20",
          "name": "",
          "type": "address"
        }
      ],
      "payable": false,
      "stateMutability": "view",
      "type": "function"
    },
    {
      "constant": true,
      "inputs": [],
      "name": "TWO_WEEKS",
      "outputs": [
        {
          "internalType": "uint256",
          "name": "",
          "type": "uint256"
        }
      ],
      "payable": false,
      "stateMutability": "view",
      "type": "function"
    },
    {
      "constant": true,
      "inputs": [],
      "name": "averageBlockTime",
      "outputs": [
        {
          "internalType": "uint256",
          "name": "",
          "type": "uint256"
        }
      ],
      "payable": false,
      "stateMutability": "view",
      "type": "function"
    },
    {
      "constant": true,
      "inputs": [
        {
          "internalType": "uint256",
          "name": "",
          "type": "uint256"
        }
      ],
      "name": "checkpointBlockDetails",
      "outputs": [
        {
          "internalType": "uint256",
          "name": "",
          "type": "uint256"
        }
      ],
      "payable": false,
      "stateMutability": "view",
      "type": "function"
    },
    {
      "constant": true,
      "inputs": [
        {
          "internalType": "address",
          "name": "",
          "type": "address"
        }
      ],
      "name": "claimedBalances",
      "outputs": [
        {
          "internalType": "uint256",
          "name": "",
          "type": "uint256"
        }
      ],
      "payable": false,
      "stateMutability": "view",
      "type": "function"
    },
    {
      "constant": true,
      "inputs": [],
      "name": "deploymentBlock",
      "outputs": [
        {
          "internalType": "uint256",
          "name": "",
          "type": "uint256"
        }
      ],
      "payable": false,
      "stateMutability": "view",
      "type": "function"
    },
    {
      "constant": true,
      "inputs": [],
      "name": "getImplementation",
      "outputs": [
        {
          "internalType": "address",
          "name": "_implementation",
          "type": "address"
        }
      ],
      "payable": false,
      "stateMutability": "view",
      "type": "function"
    },
    {
      "constant": true,
      "inputs": [],
      "name": "getProxyOwner",
      "outputs": [
        {
          "internalType": "address",
          "name": "_owner",
          "type": "address"
        }
      ],
      "payable": false,
      "stateMutability": "view",
      "type": "function"
    },
    {
      "constant": true,
      "inputs": [],
      "name": "isOwner",
      "outputs": [
        {
          "internalType": "bool",
          "name": "",
          "type": "bool"
        }
      ],
      "payable": false,
      "stateMutability": "view",
      "type": "function"
    },
    {
      "constant": true,
      "inputs": [],
      "name": "maxDuration",
      "outputs": [
        {
          "internalType": "uint256",
          "name": "",
          "type": "uint256"
        }
      ],
      "payable": false,
      "stateMutability": "view",
      "type": "function"
    },
    {
      "constant": true,
      "inputs": [],
      "name": "owner",
      "outputs": [
        {
          "internalType": "address",
          "name": "",
          "type": "address"
        }
      ],
      "payable": false,
      "stateMutability": "view",
      "type": "function"
    },
    {
      "constant": false,
      "inputs": [
        {
          "internalType": "address",
          "name": "_implementation",
          "type": "address"
        }
      ],
      "name": "setImplementation",
      "outputs": [],
      "payable": false,
      "stateMutability": "nonpayable",
      "type": "function"
    },
    {
      "constant": false,
      "inputs": [
        {
          "internalType": "address",
          "name": "_owner",
          "type": "address"
        }
      ],
      "name": "setProxyOwner",
      "outputs": [],
      "payable": false,
      "stateMutability": "nonpayable",
      "type": "function"
    },
    {
      "constant": true,
      "inputs": [],
      "name": "staking",
      "outputs": [
        {
          "internalType": "contract IStaking",
          "name": "",
          "type": "address"
        }
      ],
      "payable": false,
      "stateMutability": "view",
      "type": "function"
    },
    {
      "constant": true,
      "inputs": [],
      "name": "startTime",
      "outputs": [
        {
          "internalType": "uint256",
          "name": "",
          "type": "uint256"
        }
      ],
      "payable": false,
      "stateMutability": "view",
      "type": "function"
    },
    {
      "constant": true,
      "inputs": [],
      "name": "stopBlock",
      "outputs": [
        {
          "internalType": "uint256",
          "name": "",
          "type": "uint256"
        }
      ],
      "payable": false,
      "stateMutability": "view",
      "type": "function"
    },
    {
      "constant": false,
      "inputs": [
        {
          "internalType": "address",
          "name": "newOwner",
          "type": "address"
        }
      ],
      "name": "transferOwnership",
      "outputs": [],
      "payable": false,
      "stateMutability": "nonpayable",
      "type": "function"
    },
    {
      "constant": true,
      "inputs": [
        {
          "internalType": "address",
          "name": "",
          "type": "address"
        }
      ],
      "name": "withdrawals",
      "outputs": [
        {
          "internalType": "uint256",
          "name": "",
          "type": "uint256"
        }
      ],
      "payable": false,
      "stateMutability": "view",
      "type": "function"
    }
  ],
  "bytecode": {
    "object": "0x608060405260006100176001600160e01b0361006616565b600080546001600160a01b0319166001600160a01b038316908117825560405192935091600080516020610a88833981519152908290a350610061336001600160e01b0361006a16565b61013c565b3390565b6001600160a01b0381166100af5760405162461bcd60e51b8152600401808060200182810382526025815260200180610aa86025913960400191505060405180910390fd5b6001600160a01b0381166100ca6001600160e01b0361011416565b6001600160a01b0316600080516020610a8883398151915260405160405180910390a3604080516e35b2bc97383937bc3c9737bbb732b960891b8152905190819003600f01902055565b604080516e35b2bc97383937bc3c9737bbb732b960891b8152905190819003600f0190205490565b61093d8061014b6000396000f3fe60806040526004361061011f5760003560e01c80637a9262a2116100a0578063aaf10f4211610064578063aaf10f4214610345578063caaee91c1461035a578063d42b779d1461038f578063d784d426146103c2578063f2fde38b146103f55761011f565b80637a9262a2146102aa57806382100e3f146102dd5780638da5cb5b146102f25780638f32d59b14610307578063934d1fa4146103305761011f565b806341910f90116100e757806341910f901461024157806344bb3b2f146102565780634cf088d91461026b5780636db5c8fd1461028057806378e97925146102955761011f565b806308dcb3601461019557806312671c26146101c65780631ab7710d14610202578063233dedf1146102175780633410fe6e1461022c575b6000610129610428565b90506001600160a01b0381166101705760405162461bcd60e51b81526004018080602001828103825260238152602001806108c16023913960400191505060405180910390fd5b60405136600082376000803683855af43d806000843e818015610191578184f35b8184fd5b3480156101a157600080fd5b506101aa610453565b604080516001600160a01b039092168252519081900360200190f35b3480156101d257600080fd5b506101f0600480360360208110156101e957600080fd5b5035610462565b60408051918252519081900360200190f35b34801561020e57600080fd5b506101aa610474565b34801561022357600080fd5b506101f061049c565b34801561023857600080fd5b506101f06104a2565b34801561024d57600080fd5b506101f06104a9565b34801561026257600080fd5b506101f06104af565b34801561027757600080fd5b506101aa6104b5565b34801561028c57600080fd5b506101f06104c4565b3480156102a157600080fd5b506101f06104ca565b3480156102b657600080fd5b506101f0600480360360208110156102cd57600080fd5b50356001600160a01b03166104d0565b3480156102e957600080fd5b506101f06104e2565b3480156102fe57600080fd5b506101aa6104e8565b34801561031357600080fd5b5061031c6104f7565b604080519115158252519081900360200190f35b34801561033c57600080fd5b506101f061051b565b34801561035157600080fd5b506101aa610428565b34801561036657600080fd5b5061038d6004803603602081101561037d57600080fd5b50356001600160a01b0316610522565b005b34801561039b57600080fd5b506101f0600480360360208110156103b257600080fd5b50356001600160a01b0316610593565b3480156103ce57600080fd5b5061038d600480360360208110156103e557600080fd5b50356001600160a01b03166105a5565b34801561040157600080fd5b5061038d6004803603602081101561041857600080fd5b50356001600160a01b0316610613565b604080517135b2bc9734b6b83632b6b2b73a30ba34b7b760711b815290519081900360120190205490565b6001546001600160a01b031681565b600a6020526000908152604090205481565b604080516e35b2bc97383937bc3c9737bbb732b960891b8152905190819003600f0190205490565b600b5481565b6227ac4081565b610b9f81565b60055481565b6002546001600160a01b031681565b60035481565b60045481565b60066020526000908152604090205481565b60085481565b6000546001600160a01b031690565b600080546001600160a01b031661050c610664565b6001600160a01b031614905090565b6212750081565b61052a610474565b6001600160a01b0316336001600160a01b031614610587576040805162461bcd60e51b8152602060048201526015602482015274141c9bde1e4e8e881858d8d95cdcc819195b9a5959605a1b604482015290519081900360640190fd5b61059081610668565b50565b60076020526000908152604090205481565b6105ad610474565b6001600160a01b0316336001600160a01b03161461060a576040805162461bcd60e51b8152602060048201526015602482015274141c9bde1e4e8e881858d8d95cdcc819195b9a5959605a1b604482015290519081900360640190fd5b6105908161071b565b61061b6104f7565b61065b576040805162461bcd60e51b815260206004820152600c60248201526b1d5b985d5d1a1bdc9a5e995960a21b604482015290519081900360640190fd5b610590816107d1565b3390565b6001600160a01b0381166106ad5760405162461bcd60e51b81526004018080602001828103825260258152602001806108e46025913960400191505060405180910390fd5b806001600160a01b03166106bf610474565b6001600160a01b03167f8be0079c531659141344cd1fd0a4f28419497f9722a3daafe3b4186f6b6457e060405160405180910390a3604080516e35b2bc97383937bc3c9737bbb732b960891b8152905190819003600f01902055565b6001600160a01b0381166107605760405162461bcd60e51b81526004018080602001828103825260298152602001806108986029913960400191505060405180910390fd5b806001600160a01b0316610772610428565b6001600160a01b03167fcfbf4028add9318bbf716f08c348595afb063b0e9feed1f86d33681a4b3ed4d360405160405180910390a3604080517135b2bc9734b6b83632b6b2b73a30ba34b7b760711b8152905190819003601201902055565b6001600160a01b0381166108165760405162461bcd60e51b81526004018080602001828103825260268152602001806108726026913960400191505060405180910390fd5b600080546040516001600160a01b03808516939216917f8be0079c531659141344cd1fd0a4f28419497f9722a3daafe3b4186f6b6457e091a3600080546001600160a01b0319166001600160a01b039290921691909117905556fe4f776e61626c653a206e6577206f776e657220697320746865207a65726f206164647265737350726f78793a3a736574496d706c656d656e746174696f6e3a20696e76616c6964206164647265737350726f78793a3a28293a20696d706c656d656e746174696f6e206e6f7420666f756e6450726f78793a3a73657450726f78794f776e65723a20696e76616c69642061646472657373a265627a7a723158207c9c45ecf35d6001ae120d46ae504736c008ec31838d53c382a3d3b4be5bacd264736f6c634300051100328be0079c531659141344cd1fd0a4f28419497f9722a3daafe3b4186f6b6457e050726f78793a3a73657450726f78794f776e65723a20696e76616c69642061646472657373",
    "linkReferences": {}
  },
  "methodIdentifiers": {
    "BASE_RATE()": "41910f90",
    "DIVISOR()": "3410fe6e",
    "SOV()": "08dcb360",
    "TWO_WEEKS()": "934d1fa4",
    "averageBlockTime()": "233dedf1",
    "checkpointBlockDetails(uint256)": "12671c26",
    "claimedBalances(address)": "d42b779d",
    "deploymentBlock()": "82100e3f",
    "getImplementation()": "aaf10f42",
    "getProxyOwner()": "1ab7710d",
    "isOwner()": "8f32d59b",
    "maxDuration()": "6db5c8fd",
    "owner()": "8da5cb5b",
    "setImplementation(address)": "d784d426",
    "setProxyOwner(address)": "caaee91c",
    "staking()": "4cf088d9",
    "startTime()": "78e97925",
    "stopBlock()": "44bb3b2f",
    "transferOwnership(address)": "f2fde38b",
    "withdrawals(address)": "7a9262a2"
  },
  "id": 74
}