{
  "abi": [
    {
      "anonymous": false,
      "inputs": [
        {
          "indexed": true,
          "internalType": "address",
          "name": "previousOwner",
          "type": "address"
        },
        {
          "indexed": true,
          "internalType": "address",
          "name": "newOwner",
          "type": "address"
        }
      ],
      "name": "OwnershipTransferred",
      "type": "event"
    },
    {
      "anonymous": false,
      "inputs": [
        {
          "indexed": true,
          "internalType": "address",
          "name": "prevModuleContractAddress",
          "type": "address"
        },
        {
          "indexed": true,
          "internalType": "address",
          "name": "newModuleContractAddress",
          "type": "address"
        },
        {
          "indexed": true,
          "internalType": "bytes32",
          "name": "module",
          "type": "bytes32"
        }
      ],
      "name": "ProtocolModuleContractReplaced",
      "type": "event"
    },
    {
      "anonymous": false,
      "inputs": [
        {
          "indexed": true,
          "internalType": "address",
          "name": "sender",
          "type": "address"
        },
        {
          "indexed": true,
          "internalType": "address",
          "name": "sourceTokenAddress",
          "type": "address"
        },
        {
          "indexed": true,
          "internalType": "address",
          "name": "destTokenAddress",
          "type": "address"
        },
        {
          "indexed": false,
          "internalType": "contract IERC20[]",
          "name": "defaultPath",
          "type": "address[]"
        }
      ],
      "name": "RemoveDefaultPathConversion",
      "type": "event"
    },
    {
      "anonymous": false,
      "inputs": [
        {
          "indexed": true,
          "internalType": "address",
          "name": "sender",
          "type": "address"
        },
        {
          "indexed": false,
          "internalType": "uint256",
          "name": "oldValue",
          "type": "uint256"
        },
        {
          "indexed": false,
          "internalType": "uint256",
          "name": "newValue",
          "type": "uint256"
        }
      ],
      "name": "SetAffiliateFeePercent",
      "type": "event"
    },
    {
      "anonymous": false,
      "inputs": [
        {
          "indexed": true,
          "internalType": "address",
          "name": "sender",
          "type": "address"
        },
        {
          "indexed": false,
          "internalType": "uint256",
          "name": "oldValue",
          "type": "uint256"
        },
        {
          "indexed": false,
          "internalType": "uint256",
          "name": "newValue",
          "type": "uint256"
        }
      ],
      "name": "SetAffiliateTradingTokenFeePercent",
      "type": "event"
    },
    {
      "anonymous": false,
      "inputs": [
        {
          "indexed": true,
          "internalType": "address",
          "name": "sender",
          "type": "address"
        },
        {
          "indexed": false,
          "internalType": "uint256",
          "name": "oldValue",
          "type": "uint256"
        },
        {
          "indexed": false,
          "internalType": "uint256",
          "name": "newValue",
          "type": "uint256"
        }
      ],
      "name": "SetBorrowingFeePercent",
      "type": "event"
    },
    {
      "anonymous": false,
      "inputs": [
        {
          "indexed": true,
          "internalType": "address",
          "name": "sender",
          "type": "address"
        },
        {
          "indexed": true,
          "internalType": "address",
          "name": "sourceTokenAddress",
          "type": "address"
        },
        {
          "indexed": true,
          "internalType": "address",
          "name": "destTokenAddress",
          "type": "address"
        },
        {
          "indexed": false,
          "internalType": "contract IERC20[]",
          "name": "defaultPath",
          "type": "address[]"
        }
      ],
      "name": "SetDefaultPathConversion",
      "type": "event"
    },
    {
      "anonymous": false,
      "inputs": [
        {
          "indexed": true,
          "internalType": "address",
          "name": "sender",
          "type": "address"
        },
        {
          "indexed": true,
          "internalType": "address",
          "name": "oldController",
          "type": "address"
        },
        {
          "indexed": true,
          "internalType": "address",
          "name": "newController",
          "type": "address"
        }
      ],
      "name": "SetFeesController",
      "type": "event"
    },
    {
      "anonymous": false,
      "inputs": [
        {
          "indexed": true,
          "internalType": "address",
          "name": "sender",
          "type": "address"
        },
        {
          "indexed": false,
          "internalType": "uint256",
          "name": "oldValue",
          "type": "uint256"
        },
        {
          "indexed": false,
          "internalType": "uint256",
          "name": "newValue",
          "type": "uint256"
        }
      ],
      "name": "SetLendingFeePercent",
      "type": "event"
    },
    {
      "anonymous": false,
      "inputs": [
        {
          "indexed": true,
          "internalType": "address",
          "name": "sender",
          "type": "address"
        },
        {
          "indexed": false,
          "internalType": "uint256",
          "name": "oldValue",
          "type": "uint256"
        },
        {
          "indexed": false,
          "internalType": "uint256",
          "name": "newValue",
          "type": "uint256"
        }
      ],
      "name": "SetLiquidationIncentivePercent",
      "type": "event"
    },
    {
      "anonymous": false,
      "inputs": [
        {
          "indexed": true,
          "internalType": "address",
          "name": "sender",
          "type": "address"
        },
        {
          "indexed": true,
          "internalType": "address",
          "name": "loanPool",
          "type": "address"
        },
        {
          "indexed": true,
          "internalType": "address",
          "name": "underlying",
          "type": "address"
        }
      ],
      "name": "SetLoanPool",
      "type": "event"
    },
    {
      "anonymous": false,
      "inputs": [
        {
          "indexed": true,
          "internalType": "address",
          "name": "sender",
          "type": "address"
        },
        {
          "indexed": true,
          "internalType": "address",
          "name": "oldAddress",
          "type": "address"
        },
        {
          "indexed": true,
          "internalType": "address",
          "name": "newAddress",
          "type": "address"
        }
      ],
      "name": "SetLockedSOVAddress",
      "type": "event"
    },
    {
      "anonymous": false,
      "inputs": [
        {
          "indexed": true,
          "internalType": "address",
          "name": "sender",
          "type": "address"
        },
        {
          "indexed": false,
          "internalType": "uint256",
          "name": "oldValue",
          "type": "uint256"
        },
        {
          "indexed": false,
          "internalType": "uint256",
          "name": "newValue",
          "type": "uint256"
        }
      ],
      "name": "SetMaxSwapSize",
      "type": "event"
    },
    {
      "anonymous": false,
      "inputs": [
        {
          "indexed": true,
          "internalType": "address",
          "name": "sender",
          "type": "address"
        },
        {
          "indexed": false,
          "internalType": "uint256",
          "name": "oldMinReferrals",
          "type": "uint256"
        },
        {
          "indexed": false,
          "internalType": "uint256",
          "name": "newMinReferrals",
          "type": "uint256"
        }
      ],
      "name": "SetMinReferralsToPayoutAffiliates",
      "type": "event"
    },
    {
      "anonymous": false,
      "inputs": [
        {
          "indexed": true,
          "internalType": "address",
          "name": "sender",
          "type": "address"
        },
        {
          "indexed": false,
          "internalType": "address",
          "name": "oldValue",
          "type": "address"
        },
        {
          "indexed": false,
          "internalType": "address",
          "name": "newValue",
          "type": "address"
        }
      ],
      "name": "SetPriceFeedContract",
      "type": "event"
    },
    {
      "anonymous": false,
      "inputs": [
        {
          "indexed": true,
          "internalType": "address",
          "name": "sender",
          "type": "address"
        },
        {
          "indexed": true,
          "internalType": "address",
          "name": "oldProtocol",
          "type": "address"
        },
        {
          "indexed": true,
          "internalType": "address",
          "name": "newProtocol",
          "type": "address"
        }
      ],
      "name": "SetProtocolAddress",
      "type": "event"
    },
    {
      "anonymous": false,
      "inputs": [
        {
          "indexed": true,
          "internalType": "address",
          "name": "sender",
          "type": "address"
        },
        {
          "indexed": true,
          "internalType": "address",
          "name": "oldProtocolToken",
          "type": "address"
        },
        {
          "indexed": true,
          "internalType": "address",
          "name": "newProtocolToken",
          "type": "address"
        }
      ],
      "name": "SetProtocolTokenAddress",
      "type": "event"
    },
    {
      "anonymous": false,
      "inputs": [
        {
          "indexed": true,
          "internalType": "address",
          "name": "sender",
          "type": "address"
        },
        {
          "indexed": false,
          "internalType": "uint256",
          "name": "oldRebatePercent",
          "type": "uint256"
        },
        {
          "indexed": false,
          "internalType": "uint256",
          "name": "newRebatePercent",
          "type": "uint256"
        }
      ],
      "name": "SetRebatePercent",
      "type": "event"
    },
    {
      "anonymous": false,
      "inputs": [
        {
          "indexed": true,
          "internalType": "address",
          "name": "sender",
          "type": "address"
        },
        {
          "indexed": false,
          "internalType": "uint256",
          "name": "oldValue",
          "type": "uint256"
        },
        {
          "indexed": false,
          "internalType": "uint256",
          "name": "newValue",
          "type": "uint256"
        }
      ],
      "name": "SetRolloverBaseReward",
      "type": "event"
    },
    {
      "anonymous": false,
      "inputs": [
        {
          "indexed": true,
          "internalType": "address",
          "name": "sender",
          "type": "address"
        },
        {
          "indexed": false,
          "internalType": "uint256",
          "name": "oldRolloverFlexFeePercent",
          "type": "uint256"
        },
        {
          "indexed": false,
          "internalType": "uint256",
          "name": "newRolloverFlexFeePercent",
          "type": "uint256"
        }
      ],
      "name": "SetRolloverFlexFeePercent",
      "type": "event"
    },
    {
      "anonymous": false,
      "inputs": [
        {
          "indexed": true,
          "internalType": "address",
          "name": "sender",
          "type": "address"
        },
        {
          "indexed": true,
          "internalType": "address",
          "name": "oldTokenAddress",
          "type": "address"
        },
        {
          "indexed": true,
          "internalType": "address",
          "name": "newTokenAddress",
          "type": "address"
        }
      ],
      "name": "SetSOVTokenAddress",
      "type": "event"
    },
    {
      "anonymous": false,
      "inputs": [
        {
          "indexed": true,
          "internalType": "address",
          "name": "sender",
          "type": "address"
        },
        {
          "indexed": true,
          "internalType": "address",
          "name": "oldSovrynSwapContractRegistryAddress",
          "type": "address"
        },
        {
          "indexed": true,
          "internalType": "address",
          "name": "newSovrynSwapContractRegistryAddress",
          "type": "address"
        }
      ],
      "name": "SetSovrynSwapContractRegistryAddress",
      "type": "event"
    },
    {
      "anonymous": false,
      "inputs": [
        {
          "indexed": true,
          "internalType": "address",
          "name": "sender",
          "type": "address"
        },
        {
          "indexed": true,
          "internalType": "address",
          "name": "sourceToken",
          "type": "address"
        },
        {
          "indexed": true,
          "internalType": "address",
          "name": "destToken",
          "type": "address"
        },
        {
          "indexed": false,
          "internalType": "uint256",
          "name": "oldSpecialRebatesPercent",
          "type": "uint256"
        },
        {
          "indexed": false,
          "internalType": "uint256",
          "name": "newSpecialRebatesPercent",
          "type": "uint256"
        }
      ],
      "name": "SetSpecialRebates",
      "type": "event"
    },
    {
      "anonymous": false,
      "inputs": [
        {
          "indexed": true,
          "internalType": "address",
          "name": "sender",
          "type": "address"
        },
        {
          "indexed": true,
          "internalType": "address",
          "name": "token",
          "type": "address"
        },
        {
          "indexed": false,
          "internalType": "bool",
          "name": "isActive",
          "type": "bool"
        }
      ],
      "name": "SetSupportedTokens",
      "type": "event"
    },
    {
      "anonymous": false,
      "inputs": [
        {
          "indexed": true,
          "internalType": "address",
          "name": "sender",
          "type": "address"
        },
        {
          "indexed": false,
          "internalType": "uint256",
          "name": "oldValue",
          "type": "uint256"
        },
        {
          "indexed": false,
          "internalType": "uint256",
          "name": "newValue",
          "type": "uint256"
        }
      ],
      "name": "SetSwapExternalFeePercent",
      "type": "event"
    },
    {
      "anonymous": false,
      "inputs": [
        {
          "indexed": true,
          "internalType": "address",
          "name": "sender",
          "type": "address"
        },
        {
          "indexed": false,
          "internalType": "address",
          "name": "oldValue",
          "type": "address"
        },
        {
          "indexed": false,
          "internalType": "address",
          "name": "newValue",
          "type": "address"
        }
      ],
      "name": "SetSwapsImplContract",
      "type": "event"
    },
    {
      "anonymous": false,
      "inputs": [
        {
          "indexed": true,
          "internalType": "address",
          "name": "sender",
          "type": "address"
        },
        {
          "indexed": false,
          "internalType": "uint256",
          "name": "oldValue",
          "type": "uint256"
        },
        {
          "indexed": false,
          "internalType": "uint256",
          "name": "newValue",
          "type": "uint256"
        }
      ],
      "name": "SetTradingFeePercent",
      "type": "event"
    },
    {
      "anonymous": false,
      "inputs": [
        {
          "indexed": true,
          "internalType": "address",
          "name": "sender",
          "type": "address"
        },
        {
          "indexed": false,
          "internalType": "uint256",
          "name": "oldBasisPoint",
          "type": "uint256"
        },
        {
          "indexed": false,
          "internalType": "uint256",
          "name": "newBasisPoint",
          "type": "uint256"
        }
      ],
      "name": "SetTradingRebateRewardsBasisPoint",
      "type": "event"
    },
    {
      "anonymous": false,
      "inputs": [
        {
          "indexed": true,
          "internalType": "address",
          "name": "sender",
          "type": "address"
        },
        {
          "indexed": true,
          "internalType": "address",
          "name": "oldWethToken",
          "type": "address"
        },
        {
          "indexed": true,
          "internalType": "address",
          "name": "newWethToken",
          "type": "address"
        }
      ],
      "name": "SetWrbtcToken",
      "type": "event"
    },
    {
      "anonymous": false,
      "inputs": [
        {
          "indexed": true,
          "internalType": "address",
          "name": "sender",
          "type": "address"
        },
        {
          "indexed": true,
          "internalType": "bool",
          "name": "oldFlag",
          "type": "bool"
        },
        {
          "indexed": true,
          "internalType": "bool",
          "name": "newFlag",
          "type": "bool"
        }
      ],
      "name": "TogglePaused",
      "type": "event"
    },
    {
      "anonymous": false,
      "inputs": [
        {
          "indexed": true,
          "internalType": "address",
          "name": "sender",
          "type": "address"
        },
        {
          "indexed": true,
          "internalType": "address",
          "name": "token",
          "type": "address"
        },
        {
          "indexed": true,
          "internalType": "address",
          "name": "receiver",
          "type": "address"
        },
        {
          "indexed": false,
          "internalType": "uint256",
          "name": "amount",
          "type": "uint256"
        }
      ],
      "name": "WithdrawBorrowingFees",
      "type": "event"
    },
    {
      "anonymous": false,
      "inputs": [
        {
          "indexed": true,
          "internalType": "address",
          "name": "sender",
          "type": "address"
        },
        {
          "indexed": true,
          "internalType": "address",
          "name": "token",
          "type": "address"
        },
        {
          "indexed": true,
          "internalType": "address",
          "name": "receiver",
          "type": "address"
        },
        {
          "indexed": false,
          "internalType": "uint256",
          "name": "lendingAmount",
          "type": "uint256"
        },
        {
          "indexed": false,
          "internalType": "uint256",
          "name": "tradingAmount",
          "type": "uint256"
        },
        {
          "indexed": false,
          "internalType": "uint256",
          "name": "borrowingAmount",
          "type": "uint256"
        },
        {
          "indexed": false,
          "internalType": "uint256",
          "name": "wRBTCConverted",
          "type": "uint256"
        }
      ],
      "name": "WithdrawFees",
      "type": "event"
    },
    {
      "anonymous": false,
      "inputs": [
        {
          "indexed": true,
          "internalType": "address",
          "name": "sender",
          "type": "address"
        },
        {
          "indexed": true,
          "internalType": "address",
          "name": "token",
          "type": "address"
        },
        {
          "indexed": true,
          "internalType": "address",
          "name": "receiver",
          "type": "address"
        },
        {
          "indexed": false,
          "internalType": "uint256",
          "name": "amount",
          "type": "uint256"
        }
      ],
      "name": "WithdrawLendingFees",
      "type": "event"
    },
    {
      "anonymous": false,
      "inputs": [
        {
          "indexed": true,
          "internalType": "address",
          "name": "sender",
          "type": "address"
        },
        {
          "indexed": true,
          "internalType": "address",
          "name": "token",
          "type": "address"
        },
        {
          "indexed": true,
          "internalType": "address",
          "name": "receiver",
          "type": "address"
        },
        {
          "indexed": false,
          "internalType": "uint256",
          "name": "amount",
          "type": "uint256"
        }
      ],
      "name": "WithdrawTradingFees",
      "type": "event"
    },
    {
      "payable": false,
      "stateMutability": "nonpayable",
      "type": "fallback"
    },
    {
      "constant": true,
      "inputs": [],
      "name": "admin",
      "outputs": [
        {
          "internalType": "address",
          "name": "",
          "type": "address"
        }
      ],
      "payable": false,
      "stateMutability": "view",
      "type": "function"
    },
    {
      "constant": true,
      "inputs": [],
      "name": "affiliateFeePercent",
      "outputs": [
        {
          "internalType": "uint256",
          "name": "",
          "type": "uint256"
        }
      ],
      "payable": false,
      "stateMutability": "view",
      "type": "function"
    },
    {
      "constant": true,
      "inputs": [
        {
          "internalType": "address",
          "name": "",
          "type": "address"
        }
      ],
      "name": "affiliateRewardsHeld",
      "outputs": [
        {
          "internalType": "uint256",
          "name": "",
          "type": "uint256"
        }
      ],
      "payable": false,
      "stateMutability": "view",
      "type": "function"
    },
    {
      "constant": true,
      "inputs": [],
      "name": "affiliateTradingTokenFeePercent",
      "outputs": [
        {
          "internalType": "uint256",
          "name": "",
          "type": "uint256"
        }
      ],
      "payable": false,
      "stateMutability": "view",
      "type": "function"
    },
    {
      "constant": true,
      "inputs": [
        {
          "internalType": "address",
          "name": "",
          "type": "address"
        },
        {
          "internalType": "address",
          "name": "",
          "type": "address"
        }
      ],
      "name": "affiliatesReferrerBalances",
      "outputs": [
        {
          "internalType": "uint256",
          "name": "",
          "type": "uint256"
        }
      ],
      "payable": false,
      "stateMutability": "view",
      "type": "function"
    },
    {
      "constant": true,
      "inputs": [
        {
          "internalType": "address",
          "name": "",
          "type": "address"
        }
      ],
      "name": "affiliatesUserReferrer",
      "outputs": [
        {
          "internalType": "address",
          "name": "",
          "type": "address"
        }
      ],
      "payable": false,
      "stateMutability": "view",
      "type": "function"
    },
    {
      "constant": true,
      "inputs": [
        {
          "internalType": "address",
          "name": "",
          "type": "address"
        }
      ],
      "name": "borrowerNonce",
      "outputs": [
        {
          "internalType": "uint256",
          "name": "",
          "type": "uint256"
        }
      ],
      "payable": false,
      "stateMutability": "view",
      "type": "function"
    },
    {
      "constant": true,
      "inputs": [
        {
          "internalType": "address",
          "name": "",
          "type": "address"
        },
        {
          "internalType": "bytes32",
          "name": "",
          "type": "bytes32"
        }
      ],
      "name": "borrowerOrders",
      "outputs": [
        {
          "internalType": "uint256",
          "name": "lockedAmount",
          "type": "uint256"
        },
        {
          "internalType": "uint256",
          "name": "interestRate",
          "type": "uint256"
        },
        {
          "internalType": "uint256",
          "name": "minLoanTerm",
          "type": "uint256"
        },
        {
          "internalType": "uint256",
          "name": "maxLoanTerm",
          "type": "uint256"
        },
        {
          "internalType": "uint256",
          "name": "createdTimestamp",
          "type": "uint256"
        },
        {
          "internalType": "uint256",
          "name": "expirationTimestamp",
          "type": "uint256"
        }
      ],
      "payable": false,
      "stateMutability": "view",
      "type": "function"
    },
    {
      "constant": true,
      "inputs": [],
      "name": "borrowingFeePercent",
      "outputs": [
        {
          "internalType": "uint256",
          "name": "",
          "type": "uint256"
        }
      ],
      "payable": false,
      "stateMutability": "view",
      "type": "function"
    },
    {
      "constant": true,
      "inputs": [
        {
          "internalType": "address",
          "name": "",
          "type": "address"
        }
      ],
      "name": "borrowingFeeTokensHeld",
      "outputs": [
        {
          "internalType": "uint256",
          "name": "",
          "type": "uint256"
        }
      ],
      "payable": false,
      "stateMutability": "view",
      "type": "function"
    },
    {
      "constant": true,
      "inputs": [
        {
          "internalType": "address",
          "name": "",
          "type": "address"
        }
      ],
      "name": "borrowingFeeTokensPaid",
      "outputs": [
        {
          "internalType": "uint256",
          "name": "",
          "type": "uint256"
        }
      ],
      "payable": false,
      "stateMutability": "view",
      "type": "function"
    },
    {
      "constant": true,
      "inputs": [
        {
          "internalType": "bytes32",
          "name": "",
          "type": "bytes32"
        },
        {
          "internalType": "address",
          "name": "",
          "type": "address"
        }
      ],
      "name": "delegatedManagers",
      "outputs": [
        {
          "internalType": "bool",
          "name": "",
          "type": "bool"
        }
      ],
      "payable": false,
      "stateMutability": "view",
      "type": "function"
    },
    {
      "constant": false,
      "inputs": [
        {
          "internalType": "uint256",
          "name": "amount",
          "type": "uint256"
        }
      ],
      "name": "depositProtocolToken",
      "outputs": [],
      "payable": false,
      "stateMutability": "nonpayable",
      "type": "function"
    },
    {
      "constant": true,
      "inputs": [],
      "name": "feeRebatePercent",
      "outputs": [
        {
          "internalType": "uint256",
          "name": "",
          "type": "uint256"
        }
      ],
      "payable": false,
      "stateMutability": "view",
      "type": "function"
    },
    {
      "constant": true,
      "inputs": [],
      "name": "feesController",
      "outputs": [
        {
          "internalType": "address",
          "name": "",
          "type": "address"
        }
      ],
      "payable": false,
      "stateMutability": "view",
      "type": "function"
    },
    {
      "constant": true,
      "inputs": [],
      "name": "getDedicatedSOVRebate",
      "outputs": [
        {
          "internalType": "uint256",
          "name": "",
          "type": "uint256"
        }
      ],
      "payable": false,
      "stateMutability": "view",
      "type": "function"
    },
    {
      "constant": true,
      "inputs": [
        {
          "internalType": "address",
          "name": "sourceTokenAddress",
          "type": "address"
        },
        {
          "internalType": "address",
          "name": "destTokenAddress",
          "type": "address"
        }
      ],
      "name": "getDefaultPathConversion",
      "outputs": [
        {
          "internalType": "contract IERC20[]",
          "name": "",
          "type": "address[]"
        }
      ],
      "payable": false,
      "stateMutability": "view",
      "type": "function"
    },
    {
      "constant": true,
      "inputs": [],
      "name": "getFeeRebatePercent",
      "outputs": [
        {
          "internalType": "uint256",
          "name": "",
          "type": "uint256"
        }
      ],
      "payable": false,
      "stateMutability": "view",
      "type": "function"
    },
    {
      "constant": true,
      "inputs": [
        {
          "internalType": "uint256",
          "name": "start",
          "type": "uint256"
        },
        {
          "internalType": "uint256",
          "name": "count",
          "type": "uint256"
        }
      ],
      "name": "getLoanPoolsList",
      "outputs": [
        {
          "internalType": "bytes32[]",
          "name": "",
          "type": "bytes32[]"
        }
      ],
      "payable": false,
      "stateMutability": "view",
      "type": "function"
    },
    {
      "constant": true,
      "inputs": [],
      "name": "getLockedSOVAddress",
      "outputs": [
        {
          "internalType": "address",
          "name": "",
          "type": "address"
        }
      ],
      "payable": false,
      "stateMutability": "view",
      "type": "function"
    },
    {
      "constant": true,
      "inputs": [],
      "name": "getProtocolAddress",
      "outputs": [
        {
          "internalType": "address",
          "name": "",
          "type": "address"
        }
      ],
      "payable": false,
      "stateMutability": "view",
      "type": "function"
    },
    {
      "constant": true,
      "inputs": [],
      "name": "getSovTokenAddress",
      "outputs": [
        {
          "internalType": "address",
          "name": "",
          "type": "address"
        }
      ],
      "payable": false,
      "stateMutability": "view",
      "type": "function"
    },
    {
      "constant": true,
      "inputs": [
        {
          "internalType": "address",
          "name": "sourceTokenAddress",
          "type": "address"
        },
        {
          "internalType": "address",
          "name": "destTokenAddress",
          "type": "address"
        }
      ],
      "name": "getSpecialRebates",
      "outputs": [
        {
          "internalType": "uint256",
          "name": "specialRebatesPercent",
          "type": "uint256"
        }
      ],
      "payable": false,
      "stateMutability": "view",
      "type": "function"
    },
    {
      "constant": true,
      "inputs": [],
      "name": "getSwapExternalFeePercent",
      "outputs": [
        {
          "internalType": "uint256",
          "name": "",
          "type": "uint256"
        }
      ],
      "payable": false,
      "stateMutability": "view",
      "type": "function"
    },
    {
      "constant": true,
      "inputs": [],
      "name": "getTradingRebateRewardsBasisPoint",
      "outputs": [
        {
          "internalType": "uint256",
          "name": "",
          "type": "uint256"
        }
      ],
      "payable": false,
      "stateMutability": "view",
      "type": "function"
    },
    {
      "constant": false,
      "inputs": [
        {
          "internalType": "address",
          "name": "target",
          "type": "address"
        }
      ],
      "name": "initialize",
      "outputs": [],
      "payable": false,
      "stateMutability": "nonpayable",
      "type": "function"
    },
    {
      "constant": true,
      "inputs": [
        {
          "internalType": "address",
          "name": "loanPool",
          "type": "address"
        }
      ],
      "name": "isLoanPool",
      "outputs": [
        {
          "internalType": "bool",
          "name": "",
          "type": "bool"
        }
      ],
      "payable": false,
      "stateMutability": "view",
      "type": "function"
    },
    {
      "constant": true,
      "inputs": [],
      "name": "isOwner",
      "outputs": [
        {
          "internalType": "bool",
          "name": "",
          "type": "bool"
        }
      ],
      "payable": false,
      "stateMutability": "view",
      "type": "function"
    },
    {
      "constant": true,
      "inputs": [],
      "name": "isProtocolPaused",
      "outputs": [
        {
          "internalType": "bool",
          "name": "",
          "type": "bool"
        }
      ],
      "payable": false,
      "stateMutability": "view",
      "type": "function"
    },
    {
      "constant": true,
      "inputs": [
        {
          "internalType": "address",
          "name": "",
          "type": "address"
        },
        {
          "internalType": "address",
          "name": "",
          "type": "address"
        }
      ],
      "name": "lenderInterest",
      "outputs": [
        {
          "internalType": "uint256",
          "name": "principalTotal",
          "type": "uint256"
        },
        {
          "internalType": "uint256",
          "name": "owedPerDay",
          "type": "uint256"
        },
        {
          "internalType": "uint256",
          "name": "owedTotal",
          "type": "uint256"
        },
        {
          "internalType": "uint256",
          "name": "paidTotal",
          "type": "uint256"
        },
        {
          "internalType": "uint256",
          "name": "updatedTimestamp",
          "type": "uint256"
        }
      ],
      "payable": false,
      "stateMutability": "view",
      "type": "function"
    },
    {
      "constant": true,
      "inputs": [
        {
          "internalType": "address",
          "name": "",
          "type": "address"
        },
        {
          "internalType": "bytes32",
          "name": "",
          "type": "bytes32"
        }
      ],
      "name": "lenderOrders",
      "outputs": [
        {
          "internalType": "uint256",
          "name": "lockedAmount",
          "type": "uint256"
        },
        {
          "internalType": "uint256",
          "name": "interestRate",
          "type": "uint256"
        },
        {
          "internalType": "uint256",
          "name": "minLoanTerm",
          "type": "uint256"
        },
        {
          "internalType": "uint256",
          "name": "maxLoanTerm",
          "type": "uint256"
        },
        {
          "internalType": "uint256",
          "name": "createdTimestamp",
          "type": "uint256"
        },
        {
          "internalType": "uint256",
          "name": "expirationTimestamp",
          "type": "uint256"
        }
      ],
      "payable": false,
      "stateMutability": "view",
      "type": "function"
    },
    {
      "constant": true,
      "inputs": [],
      "name": "lendingFeePercent",
      "outputs": [
        {
          "internalType": "uint256",
          "name": "",
          "type": "uint256"
        }
      ],
      "payable": false,
      "stateMutability": "view",
      "type": "function"
    },
    {
      "constant": true,
      "inputs": [
        {
          "internalType": "address",
          "name": "",
          "type": "address"
        }
      ],
      "name": "lendingFeeTokensHeld",
      "outputs": [
        {
          "internalType": "uint256",
          "name": "",
          "type": "uint256"
        }
      ],
      "payable": false,
      "stateMutability": "view",
      "type": "function"
    },
    {
      "constant": true,
      "inputs": [
        {
          "internalType": "address",
          "name": "",
          "type": "address"
        }
      ],
      "name": "lendingFeeTokensPaid",
      "outputs": [
        {
          "internalType": "uint256",
          "name": "",
          "type": "uint256"
        }
      ],
      "payable": false,
      "stateMutability": "view",
      "type": "function"
    },
    {
      "constant": true,
      "inputs": [],
      "name": "liquidationIncentivePercent",
      "outputs": [
        {
          "internalType": "uint256",
          "name": "",
          "type": "uint256"
        }
      ],
      "payable": false,
      "stateMutability": "view",
      "type": "function"
    },
    {
      "constant": true,
      "inputs": [
        {
          "internalType": "bytes32",
          "name": "",
          "type": "bytes32"
        }
      ],
      "name": "loanInterest",
      "outputs": [
        {
          "internalType": "uint256",
          "name": "owedPerDay",
          "type": "uint256"
        },
        {
          "internalType": "uint256",
          "name": "depositTotal",
          "type": "uint256"
        },
        {
          "internalType": "uint256",
          "name": "updatedTimestamp",
          "type": "uint256"
        }
      ],
      "payable": false,
      "stateMutability": "view",
      "type": "function"
    },
    {
      "constant": true,
      "inputs": [
        {
          "internalType": "bytes32",
          "name": "",
          "type": "bytes32"
        }
      ],
      "name": "loanParams",
      "outputs": [
        {
          "internalType": "bytes32",
          "name": "id",
          "type": "bytes32"
        },
        {
          "internalType": "bool",
          "name": "active",
          "type": "bool"
        },
        {
          "internalType": "address",
          "name": "owner",
          "type": "address"
        },
        {
          "internalType": "address",
          "name": "loanToken",
          "type": "address"
        },
        {
          "internalType": "address",
          "name": "collateralToken",
          "type": "address"
        },
        {
          "internalType": "uint256",
          "name": "minInitialMargin",
          "type": "uint256"
        },
        {
          "internalType": "uint256",
          "name": "maintenanceMargin",
          "type": "uint256"
        },
        {
          "internalType": "uint256",
          "name": "maxLoanTerm",
          "type": "uint256"
        }
      ],
      "payable": false,
      "stateMutability": "view",
      "type": "function"
    },
    {
      "constant": true,
      "inputs": [
        {
          "internalType": "address",
          "name": "",
          "type": "address"
        }
      ],
      "name": "loanPoolToUnderlying",
      "outputs": [
        {
          "internalType": "address",
          "name": "",
          "type": "address"
        }
      ],
      "payable": false,
      "stateMutability": "view",
      "type": "function"
    },
    {
      "constant": true,
      "inputs": [
        {
          "internalType": "bytes32",
          "name": "",
          "type": "bytes32"
        }
      ],
      "name": "loans",
      "outputs": [
        {
          "internalType": "bytes32",
          "name": "id",
          "type": "bytes32"
        },
        {
          "internalType": "bytes32",
          "name": "loanParamsId",
          "type": "bytes32"
        },
        {
          "internalType": "bytes32",
          "name": "pendingTradesId",
          "type": "bytes32"
        },
        {
          "internalType": "bool",
          "name": "active",
          "type": "bool"
        },
        {
          "internalType": "uint256",
          "name": "principal",
          "type": "uint256"
        },
        {
          "internalType": "uint256",
          "name": "collateral",
          "type": "uint256"
        },
        {
          "internalType": "uint256",
          "name": "startTimestamp",
          "type": "uint256"
        },
        {
          "internalType": "uint256",
          "name": "endTimestamp",
          "type": "uint256"
        },
        {
          "internalType": "uint256",
          "name": "startMargin",
          "type": "uint256"
        },
        {
          "internalType": "uint256",
          "name": "startRate",
          "type": "uint256"
        },
        {
          "internalType": "address",
          "name": "borrower",
          "type": "address"
        },
        {
          "internalType": "address",
          "name": "lender",
          "type": "address"
        }
      ],
      "payable": false,
      "stateMutability": "view",
      "type": "function"
    },
    {
      "constant": true,
      "inputs": [],
      "name": "lockedSOVAddress",
      "outputs": [
        {
          "internalType": "address",
          "name": "",
          "type": "address"
        }
      ],
      "payable": false,
      "stateMutability": "view",
      "type": "function"
    },
    {
      "constant": true,
      "inputs": [
        {
          "internalType": "bytes4",
          "name": "",
          "type": "bytes4"
        }
      ],
      "name": "logicTargets",
      "outputs": [
        {
          "internalType": "address",
          "name": "",
          "type": "address"
        }
      ],
      "payable": false,
      "stateMutability": "view",
      "type": "function"
    },
    {
      "constant": true,
      "inputs": [],
      "name": "maxDisagreement",
      "outputs": [
        {
          "internalType": "uint256",
          "name": "",
          "type": "uint256"
        }
      ],
      "payable": false,
      "stateMutability": "view",
      "type": "function"
    },
    {
      "constant": true,
      "inputs": [],
      "name": "maxSwapSize",
      "outputs": [
        {
          "internalType": "uint256",
          "name": "",
          "type": "uint256"
        }
      ],
      "payable": false,
      "stateMutability": "view",
      "type": "function"
    },
    {
      "constant": true,
      "inputs": [],
      "name": "minReferralsToPayout",
      "outputs": [
        {
          "internalType": "uint256",
          "name": "",
          "type": "uint256"
        }
      ],
      "payable": false,
      "stateMutability": "view",
      "type": "function"
    },
    {
      "constant": true,
      "inputs": [],
      "name": "owner",
      "outputs": [
        {
          "internalType": "address",
          "name": "",
          "type": "address"
        }
      ],
      "payable": false,
      "stateMutability": "view",
      "type": "function"
    },
    {
      "constant": true,
      "inputs": [],
      "name": "pause",
      "outputs": [
        {
          "internalType": "bool",
          "name": "",
          "type": "bool"
        }
      ],
      "payable": false,
      "stateMutability": "view",
      "type": "function"
    },
    {
      "constant": true,
      "inputs": [],
      "name": "priceFeeds",
      "outputs": [
        {
          "internalType": "address",
          "name": "",
          "type": "address"
        }
      ],
      "payable": false,
      "stateMutability": "view",
      "type": "function"
    },
    {
      "constant": true,
      "inputs": [],
      "name": "protocolAddress",
      "outputs": [
        {
          "internalType": "address",
          "name": "",
          "type": "address"
        }
      ],
      "payable": false,
      "stateMutability": "view",
      "type": "function"
    },
    {
      "constant": true,
      "inputs": [],
      "name": "protocolTokenAddress",
      "outputs": [
        {
          "internalType": "address",
          "name": "",
          "type": "address"
        }
      ],
      "payable": false,
      "stateMutability": "view",
      "type": "function"
    },
    {
      "constant": true,
      "inputs": [],
      "name": "protocolTokenHeld",
      "outputs": [
        {
          "internalType": "uint256",
          "name": "",
          "type": "uint256"
        }
      ],
      "payable": false,
      "stateMutability": "view",
      "type": "function"
    },
    {
      "constant": true,
      "inputs": [],
      "name": "protocolTokenPaid",
      "outputs": [
        {
          "internalType": "uint256",
          "name": "",
          "type": "uint256"
        }
      ],
      "payable": false,
      "stateMutability": "view",
      "type": "function"
    },
    {
      "constant": false,
      "inputs": [
        {
          "internalType": "address",
          "name": "sourceTokenAddress",
          "type": "address"
        },
        {
          "internalType": "address",
          "name": "destTokenAddress",
          "type": "address"
        }
      ],
      "name": "removeDefaultPathConversion",
      "outputs": [],
      "payable": false,
      "stateMutability": "nonpayable",
      "type": "function"
    },
    {
      "constant": true,
      "inputs": [],
      "name": "rolloverBaseReward",
      "outputs": [
        {
          "internalType": "uint256",
          "name": "",
          "type": "uint256"
        }
      ],
      "payable": false,
      "stateMutability": "view",
      "type": "function"
    },
    {
      "constant": true,
      "inputs": [],
      "name": "rolloverFlexFeePercent",
      "outputs": [
        {
          "internalType": "uint256",
          "name": "",
          "type": "uint256"
        }
      ],
      "payable": false,
      "stateMutability": "view",
      "type": "function"
    },
    {
      "constant": false,
      "inputs": [
        {
          "internalType": "uint256",
          "name": "newValue",
          "type": "uint256"
        }
      ],
      "name": "setAffiliateFeePercent",
      "outputs": [],
      "payable": false,
      "stateMutability": "nonpayable",
      "type": "function"
    },
    {
      "constant": false,
      "inputs": [
        {
          "internalType": "uint256",
          "name": "newValue",
          "type": "uint256"
        }
      ],
      "name": "setAffiliateTradingTokenFeePercent",
      "outputs": [],
      "payable": false,
      "stateMutability": "nonpayable",
      "type": "function"
    },
    {
      "constant": false,
      "inputs": [
        {
          "internalType": "uint256",
          "name": "newValue",
          "type": "uint256"
        }
      ],
      "name": "setBorrowingFeePercent",
      "outputs": [],
      "payable": false,
      "stateMutability": "nonpayable",
      "type": "function"
    },
    {
      "constant": false,
      "inputs": [
        {
          "internalType": "address",
          "name": "token",
          "type": "address"
        },
        {
          "internalType": "uint256",
          "name": "amout",
          "type": "uint256"
        }
      ],
      "name": "setBorrowingFeeTokensHeld",
      "outputs": [],
      "payable": false,
      "stateMutability": "nonpayable",
      "type": "function"
    },
    {
      "constant": false,
      "inputs": [
        {
          "internalType": "contract IERC20[]",
          "name": "defaultPath",
          "type": "address[]"
        }
      ],
      "name": "setDefaultPathConversion",
      "outputs": [],
      "payable": false,
      "stateMutability": "nonpayable",
      "type": "function"
    },
    {
      "constant": false,
      "inputs": [
        {
          "internalType": "address",
          "name": "newController",
          "type": "address"
        }
      ],
      "name": "setFeesController",
      "outputs": [],
      "payable": false,
      "stateMutability": "nonpayable",
      "type": "function"
    },
    {
      "constant": false,
      "inputs": [
        {
          "internalType": "uint256",
          "name": "newValue",
          "type": "uint256"
        }
      ],
      "name": "setLendingFeePercent",
      "outputs": [],
      "payable": false,
      "stateMutability": "nonpayable",
      "type": "function"
    },
    {
      "constant": false,
      "inputs": [
        {
          "internalType": "address",
          "name": "token",
          "type": "address"
        },
        {
          "internalType": "uint256",
          "name": "amout",
          "type": "uint256"
        }
      ],
      "name": "setLendingFeeTokensHeld",
      "outputs": [],
      "payable": false,
      "stateMutability": "nonpayable",
      "type": "function"
    },
    {
      "constant": false,
      "inputs": [
        {
          "internalType": "uint256",
          "name": "newValue",
          "type": "uint256"
        }
      ],
      "name": "setLiquidationIncentivePercent",
      "outputs": [],
      "payable": false,
      "stateMutability": "nonpayable",
      "type": "function"
    },
    {
      "constant": false,
      "inputs": [
        {
          "internalType": "address[]",
          "name": "pools",
          "type": "address[]"
        },
        {
          "internalType": "address[]",
          "name": "assets",
          "type": "address[]"
        }
      ],
      "name": "setLoanPool",
      "outputs": [],
      "payable": false,
      "stateMutability": "nonpayable",
      "type": "function"
    },
    {
      "constant": false,
      "inputs": [
        {
          "internalType": "address",
          "name": "newLockedSOVAddress",
          "type": "address"
        }
      ],
      "name": "setLockedSOVAddress",
      "outputs": [],
      "payable": false,
      "stateMutability": "nonpayable",
      "type": "function"
    },
    {
      "constant": false,
      "inputs": [
        {
          "internalType": "uint256",
          "name": "newValue",
          "type": "uint256"
        }
      ],
      "name": "setMaxDisagreement",
      "outputs": [],
      "payable": false,
      "stateMutability": "nonpayable",
      "type": "function"
    },
    {
      "constant": false,
      "inputs": [
        {
          "internalType": "uint256",
          "name": "newValue",
          "type": "uint256"
        }
      ],
      "name": "setMaxSwapSize",
      "outputs": [],
      "payable": false,
      "stateMutability": "nonpayable",
      "type": "function"
    },
    {
      "constant": false,
      "inputs": [
        {
          "internalType": "uint256",
          "name": "newMinReferrals",
          "type": "uint256"
        }
      ],
      "name": "setMinReferralsToPayoutAffiliates",
      "outputs": [],
      "payable": false,
      "stateMutability": "nonpayable",
      "type": "function"
    },
    {
      "constant": false,
      "inputs": [
        {
          "internalType": "address",
          "name": "newContract",
          "type": "address"
        }
      ],
      "name": "setPriceFeedContract",
      "outputs": [],
      "payable": false,
      "stateMutability": "nonpayable",
      "type": "function"
    },
    {
      "constant": false,
      "inputs": [
        {
          "internalType": "address",
          "name": "_protocolTokenAddress",
          "type": "address"
        }
      ],
      "name": "setProtocolTokenAddress",
      "outputs": [],
      "payable": false,
      "stateMutability": "nonpayable",
      "type": "function"
    },
    {
      "constant": false,
      "inputs": [
        {
          "internalType": "uint256",
          "name": "rebatePercent",
          "type": "uint256"
        }
      ],
      "name": "setRebatePercent",
      "outputs": [],
      "payable": false,
      "stateMutability": "nonpayable",
      "type": "function"
    },
    {
      "constant": false,
      "inputs": [
        {
          "internalType": "uint256",
          "name": "baseRewardValue",
          "type": "uint256"
        }
      ],
      "name": "setRolloverBaseReward",
      "outputs": [],
      "payable": false,
      "stateMutability": "nonpayable",
      "type": "function"
    },
    {
      "constant": false,
      "inputs": [
        {
          "internalType": "uint256",
          "name": "newRolloverFlexFeePercent",
          "type": "uint256"
        }
      ],
      "name": "setRolloverFlexFeePercent",
      "outputs": [],
      "payable": false,
      "stateMutability": "nonpayable",
      "type": "function"
    },
    {
      "constant": false,
      "inputs": [
        {
          "internalType": "address",
          "name": "newSovTokenAddress",
          "type": "address"
        }
      ],
      "name": "setSOVTokenAddress",
      "outputs": [],
      "payable": false,
      "stateMutability": "nonpayable",
      "type": "function"
    },
    {
      "constant": false,
      "inputs": [
        {
          "internalType": "uint256",
          "name": "newValue",
          "type": "uint256"
        }
      ],
      "name": "setSourceBuffer",
      "outputs": [],
      "payable": false,
      "stateMutability": "nonpayable",
      "type": "function"
    },
    {
      "constant": false,
      "inputs": [
        {
          "internalType": "address",
          "name": "newProtocolAddress",
          "type": "address"
        }
      ],
      "name": "setSovrynProtocolAddress",
      "outputs": [],
      "payable": false,
      "stateMutability": "nonpayable",
      "type": "function"
    },
    {
      "constant": false,
      "inputs": [
        {
          "internalType": "address",
          "name": "registryAddress",
          "type": "address"
        }
      ],
      "name": "setSovrynSwapContractRegistryAddress",
      "outputs": [],
      "payable": false,
      "stateMutability": "nonpayable",
      "type": "function"
    },
    {
      "constant": false,
      "inputs": [
        {
          "internalType": "address",
          "name": "sourceToken",
          "type": "address"
        },
        {
          "internalType": "address",
          "name": "destToken",
          "type": "address"
        },
        {
          "internalType": "uint256",
          "name": "specialRebatesPercent",
          "type": "uint256"
        }
      ],
      "name": "setSpecialRebates",
      "outputs": [],
      "payable": false,
      "stateMutability": "nonpayable",
      "type": "function"
    },
    {
      "constant": false,
      "inputs": [
        {
          "internalType": "address[]",
          "name": "addrs",
          "type": "address[]"
        },
        {
          "internalType": "bool[]",
          "name": "toggles",
          "type": "bool[]"
        }
      ],
      "name": "setSupportedTokens",
      "outputs": [],
      "payable": false,
      "stateMutability": "nonpayable",
      "type": "function"
    },
    {
      "constant": false,
      "inputs": [
        {
          "internalType": "uint256",
          "name": "newValue",
          "type": "uint256"
        }
      ],
      "name": "setSwapExternalFeePercent",
      "outputs": [],
      "payable": false,
      "stateMutability": "nonpayable",
      "type": "function"
    },
    {
      "constant": false,
      "inputs": [
        {
          "internalType": "address",
          "name": "newContract",
          "type": "address"
        }
      ],
      "name": "setSwapsImplContract",
      "outputs": [],
      "payable": false,
      "stateMutability": "nonpayable",
      "type": "function"
    },
    {
      "constant": false,
      "inputs": [
        {
          "internalType": "uint256",
          "name": "newValue",
          "type": "uint256"
        }
      ],
      "name": "setTradingFeePercent",
      "outputs": [],
      "payable": false,
      "stateMutability": "nonpayable",
      "type": "function"
    },
    {
      "constant": false,
      "inputs": [
        {
          "internalType": "address",
          "name": "token",
          "type": "address"
        },
        {
          "internalType": "uint256",
          "name": "amout",
          "type": "uint256"
        }
      ],
      "name": "setTradingFeeTokensHeld",
      "outputs": [],
      "payable": false,
      "stateMutability": "nonpayable",
      "type": "function"
    },
    {
      "constant": false,
      "inputs": [
        {
          "internalType": "uint256",
          "name": "newBasisPoint",
          "type": "uint256"
        }
      ],
      "name": "setTradingRebateRewardsBasisPoint",
      "outputs": [],
      "payable": false,
      "stateMutability": "nonpayable",
      "type": "function"
    },
    {
      "constant": false,
      "inputs": [
        {
          "internalType": "address",
          "name": "wrbtcTokenAddress",
          "type": "address"
        }
      ],
      "name": "setWrbtcToken",
      "outputs": [],
      "payable": false,
      "stateMutability": "nonpayable",
      "type": "function"
    },
    {
      "constant": true,
      "inputs": [],
      "name": "sourceBuffer",
      "outputs": [
        {
          "internalType": "uint256",
          "name": "",
          "type": "uint256"
        }
      ],
      "payable": false,
      "stateMutability": "view",
      "type": "function"
    },
    {
      "constant": true,
      "inputs": [],
      "name": "sovTokenAddress",
      "outputs": [
        {
          "internalType": "address",
          "name": "",
          "type": "address"
        }
      ],
      "payable": false,
      "stateMutability": "view",
      "type": "function"
    },
    {
      "constant": true,
      "inputs": [],
      "name": "sovrynSwapContractRegistryAddress",
      "outputs": [
        {
          "internalType": "address",
          "name": "",
          "type": "address"
        }
      ],
      "payable": false,
      "stateMutability": "view",
      "type": "function"
    },
    {
      "constant": true,
      "inputs": [
        {
          "internalType": "address",
          "name": "",
          "type": "address"
        },
        {
          "internalType": "address",
          "name": "",
          "type": "address"
        }
      ],
      "name": "specialRebates",
      "outputs": [
        {
          "internalType": "uint256",
          "name": "",
          "type": "uint256"
        }
      ],
      "payable": false,
      "stateMutability": "view",
      "type": "function"
    },
    {
      "constant": true,
      "inputs": [
        {
          "internalType": "address",
          "name": "",
          "type": "address"
        }
      ],
      "name": "supportedTokens",
      "outputs": [
        {
          "internalType": "bool",
          "name": "",
          "type": "bool"
        }
      ],
      "payable": false,
      "stateMutability": "view",
      "type": "function"
    },
    {
      "constant": true,
      "inputs": [],
      "name": "swapsImpl",
      "outputs": [
        {
          "internalType": "address",
          "name": "",
          "type": "address"
        }
      ],
      "payable": false,
      "stateMutability": "view",
      "type": "function"
    },
    {
      "constant": false,
      "inputs": [
        {
          "internalType": "bool",
          "name": "paused",
          "type": "bool"
        }
      ],
      "name": "togglePaused",
      "outputs": [],
      "payable": false,
      "stateMutability": "nonpayable",
      "type": "function"
    },
    {
      "constant": true,
      "inputs": [],
      "name": "tradingFeePercent",
      "outputs": [
        {
          "internalType": "uint256",
          "name": "",
          "type": "uint256"
        }
      ],
      "payable": false,
      "stateMutability": "view",
      "type": "function"
    },
    {
      "constant": true,
      "inputs": [
        {
          "internalType": "address",
          "name": "",
          "type": "address"
        }
      ],
      "name": "tradingFeeTokensHeld",
      "outputs": [
        {
          "internalType": "uint256",
          "name": "",
          "type": "uint256"
        }
      ],
      "payable": false,
      "stateMutability": "view",
      "type": "function"
    },
    {
      "constant": true,
      "inputs": [
        {
          "internalType": "address",
          "name": "",
          "type": "address"
        }
      ],
      "name": "tradingFeeTokensPaid",
      "outputs": [
        {
          "internalType": "uint256",
          "name": "",
          "type": "uint256"
        }
      ],
      "payable": false,
      "stateMutability": "view",
      "type": "function"
    },
    {
      "constant": false,
      "inputs": [
        {
          "internalType": "address",
          "name": "newOwner",
          "type": "address"
        }
      ],
      "name": "transferOwnership",
      "outputs": [],
      "payable": false,
      "stateMutability": "nonpayable",
      "type": "function"
    },
    {
      "constant": true,
      "inputs": [
        {
          "internalType": "address",
          "name": "",
          "type": "address"
        }
      ],
      "name": "underlyingToLoanPool",
      "outputs": [
        {
          "internalType": "address",
          "name": "",
          "type": "address"
        }
      ],
      "payable": false,
      "stateMutability": "view",
      "type": "function"
    },
    {
      "constant": true,
      "inputs": [
        {
          "internalType": "address",
          "name": "",
          "type": "address"
        }
      ],
      "name": "userNotFirstTradeFlag",
      "outputs": [
        {
          "internalType": "bool",
          "name": "",
          "type": "bool"
        }
      ],
      "payable": false,
      "stateMutability": "view",
      "type": "function"
    },
    {
      "constant": false,
      "inputs": [
        {
          "internalType": "address",
          "name": "token",
          "type": "address"
        },
        {
          "internalType": "address",
          "name": "receiver",
          "type": "address"
        },
        {
          "internalType": "uint256",
          "name": "amount",
          "type": "uint256"
        }
      ],
      "name": "withdrawBorrowingFees",
      "outputs": [
        {
          "internalType": "bool",
          "name": "",
          "type": "bool"
        }
      ],
      "payable": false,
      "stateMutability": "nonpayable",
      "type": "function"
    },
    {
      "constant": false,
      "inputs": [
        {
          "internalType": "address[]",
          "name": "tokens",
          "type": "address[]"
        },
        {
          "internalType": "address",
          "name": "receiver",
          "type": "address"
        }
      ],
      "name": "withdrawFees",
      "outputs": [
        {
          "internalType": "uint256",
          "name": "totalWRBTCWithdrawn",
          "type": "uint256"
        }
      ],
      "payable": false,
      "stateMutability": "nonpayable",
      "type": "function"
    },
    {
      "constant": false,
      "inputs": [
        {
          "internalType": "address",
          "name": "token",
          "type": "address"
        },
        {
          "internalType": "address",
          "name": "receiver",
          "type": "address"
        },
        {
          "internalType": "uint256",
          "name": "amount",
          "type": "uint256"
        }
      ],
      "name": "withdrawLendingFees",
      "outputs": [
        {
          "internalType": "bool",
          "name": "",
          "type": "bool"
        }
      ],
      "payable": false,
      "stateMutability": "nonpayable",
      "type": "function"
    },
    {
      "constant": false,
      "inputs": [
        {
          "internalType": "address",
          "name": "receiver",
          "type": "address"
        },
        {
          "internalType": "uint256",
          "name": "amount",
          "type": "uint256"
        }
      ],
      "name": "withdrawProtocolToken",
      "outputs": [
        {
          "internalType": "address",
          "name": "",
          "type": "address"
        },
        {
          "internalType": "bool",
          "name": "",
          "type": "bool"
        }
      ],
      "payable": false,
      "stateMutability": "nonpayable",
      "type": "function"
    },
    {
      "constant": false,
      "inputs": [
        {
          "internalType": "address",
          "name": "token",
          "type": "address"
        },
        {
          "internalType": "address",
          "name": "receiver",
          "type": "address"
        },
        {
          "internalType": "uint256",
          "name": "amount",
          "type": "uint256"
        }
      ],
      "name": "withdrawTradingFees",
      "outputs": [
        {
          "internalType": "bool",
          "name": "",
          "type": "bool"
        }
      ],
      "payable": false,
      "stateMutability": "nonpayable",
      "type": "function"
    },
    {
      "constant": true,
      "inputs": [],
      "name": "wrbtcToken",
      "outputs": [
        {
          "internalType": "contract IWrbtcERC20",
          "name": "",
          "type": "address"
        }
      ],
      "payable": false,
      "stateMutability": "view",
      "type": "function"
    }
  ],
  "bytecode": {
    "object": "0x60806040526001600055678ac7230489e80000601555670214e8348c4f000060185567013fbe85edc90000601b55674563918244f40000602055674563918244f40000602155674563918244f400006027556127106028556802b5e3af16b1880000602955650f478e084000602b5567016345785d8a0000602c556802b5e3af16b1880000602f5560036035556801158e460913d000006039556000620000ab620000ff60201b60201c565b600180546001600160a01b0319166001600160a01b038316908117909155604051919250906000907f8be0079c531659141344cd1fd0a4f28419497f9722a3daafe3b4186f6b6457e0908290a35062000103565b3390565b615d8180620001136000396000f3fe608060405234801561001057600080fd5b50600436106106085760003560e01c80639254e6bf1161031b578063d21f8e24116101a8578063e8997dbd116100f4578063f44942ec116100ad578063f6ddc8b311610087578063f6ddc8b314611492578063f706b1f21461149a578063f7e7aab0146114a2578063f851a4401461151957610608565b8063f44942ec14611465578063f589a3e71461146d578063f695379a1461147557610608565b8063e8997dbd146113cb578063e8f62764146113f1578063ea0e3930146113f9578063edab119f1461142f578063f0e085f514611437578063f2fde38b1461143f57610608565b8063d9eaaa6411610161578063dfdddc991161013b578063dfdddc9914611343578063e3ff937014611371578063e419648014611397578063e4a47a021461139f57610608565b8063d9eaaa64146112f6578063da541e091461131c578063dac885611461133b57610608565b8063d21f8e2414611218578063d238db2214611235578063d288208c14611252578063d473c2da1461125a578063d485045e14611262578063d7480e211461128857610608565b8063b1ac89ca11610267578063c22552f711610220578063c6ce7e40116101fa578063c6ce7e4014611134578063c7c333f014611160578063cb6eacd11461117d578063cd5d808d146111ea57610608565b8063c22552f71461107e578063c4a9081514611086578063c4d66de81461110e57610608565b8063b1ac89ca14610fc6578063b30643d914610ffc578063b7e1524114611022578063b9cffa3e14611048578063ba4861e914611050578063bdee453c1461105857610608565b8063a2ab1ba1116102d4578063acc04348116102ae578063acc0434814610f91578063ae0a853014610f99578063afe8400914610fa1578063b1558b7214610fa957610608565b8063a2ab1ba114610f3a578063a32bb68314610f57578063a6e7cc2814610f7457610608565b80639254e6bf14610e5d57806392d894f814610e83578063959083d314610ea95780639688185714610eb15780639c53874f14610f00578063a1eb568314610f1d57610608565b8063462096f3116104995780637420ca3e116103e55780637fb202e51161039e57806386540429116103785780638654042914610df95780638da5cb5b14610e275780638dc48ba514610e2f5780638f32d59b14610e5557610608565b80637fb202e514610d165780638456cb5914610d3357806384eaa9e014610d3b57610608565b80637420ca3e14610c9a578063742e679814610ca257806374326e8f14610caa5780637462640414610ce057806378d849ed14610d065780637a8faeb814610d0e57610608565b8063574442cc1161045257806362fff3f61161042c57806362fff3f614610bcf57806368c4ac2614610c285780636e66373014610c4e5780636fbae33b14610c7457610608565b8063574442cc14610adb57806359d0d9ec14610ae357806359e49e0f14610b1157610608565b8063462096f314610a5a5780634699f84614610a625780634bcfe72614610a6a5780634dd053a514610a725780634f28cac214610a98578063569fc1fb14610aa057610608565b80632d77d0d0116105585780633c56ae1b116105115780633fca506e116104eb5780633fca506e1461096f578063402946b9146109955780634115a2b614610a085780634203e39514610a3457610608565b80633c56ae1b1461091e5780633e526e6b1461093b5780633f1ae8b91461096757610608565b80632d77d0d01461084b5780632f4707641461087157806332e4706f146108795780633432423c146108af5780633452d2d4146108db578063355a395f1461090157610608565b806317f8b788116105c5578063218b39c61161059f578063218b39c6146107da57806324cc57491461080057806329f9986d146108265780632a3240271461084357610608565b806317f8b788146107575780631a81c191146107745780631b7bde741461079a57610608565b8063065d810f1461064c5780630676c1b7146106ab57806307024c25146106cf5780630c615ee9146106d7578063115dd4b1146106f657806317548b7914610730575b6040805162461bcd60e51b815260206004820152601460248201527319985b1b189858dac81b9bdd08185b1b1bddd95960621b604482015290519081900360640190fd5b6106786004803603604081101561066257600080fd5b506001600160a01b038135169060200135611521565b604080519687526020870195909552858501939093526060850191909152608084015260a0830152519081900360c00190f35b6106b3611561565b604080516001600160a01b039092168252519081900360200190f35b6106b3611570565b6106f4600480360360208110156106ed57600080fd5b5035611580565b005b61071c6004803603602081101561070c57600080fd5b50356001600160a01b031661169e565b604080519115158252519081900360200190f35b6106b36004803603602081101561074657600080fd5b50356001600160e01b0319166116be565b6106f46004803603602081101561076d57600080fd5b50356116d9565b6106f46004803603602081101561078a57600080fd5b50356001600160a01b03166117f7565b6107c8600480360360408110156107b057600080fd5b506001600160a01b03813581169160200135166118e2565b60408051918252519081900360200190f35b6106b3600480360360208110156107f057600080fd5b50356001600160a01b03166118ff565b61071c6004803603602081101561081657600080fd5b50356001600160a01b031661191a565b6106f46004803603602081101561083c57600080fd5b503561192f565b6107c8611a4d565b6106f46004803603602081101561086157600080fd5b50356001600160a01b0316611a53565b6107c8611b8c565b61071c6004803603606081101561088f57600080fd5b506001600160a01b03813581169160208101359091169060400135611b92565b610678600480360360408110156108c557600080fd5b506001600160a01b038135169060200135611d30565b6107c8600480360360208110156108f157600080fd5b50356001600160a01b0316611d70565b6106f46004803603602081101561091757600080fd5b5035611d82565b6106f46004803603602081101561093457600080fd5b5035611e51565b6106f46004803603604081101561095157600080fd5b506001600160a01b038135169060200135611f11565b6107c8611f2d565b6107c86004803603602081101561098557600080fd5b50356001600160a01b0316611f33565b6109b8600480360360408110156109ab57600080fd5b5080359060200135611f45565b60408051602080825283518183015283519192839290830191858101910280838360005b838110156109f45781810151838201526020016109dc565b505050509050019250505060405180910390f35b61071c60048036036040811015610a1e57600080fd5b50803590602001356001600160a01b0316611f62565b6107c860048036036020811015610a4a57600080fd5b50356001600160a01b0316611f82565b6107c8611f94565b6107c8611f9a565b6106b3611fa0565b6106f460048036036020811015610a8857600080fd5b50356001600160a01b0316611faf565b6107c86120e6565b610abd60048036036020811015610ab657600080fd5b50356120ec565b60408051938452602084019290925282820152519081900360600190f35b6107c861210d565b6107c860048036036040811015610af957600080fd5b506001600160a01b0381358116916020013516612113565b6106f460048036036040811015610b2757600080fd5b810190602081018135600160201b811115610b4157600080fd5b820183602082011115610b5357600080fd5b803590602001918460208302840111600160201b83111715610b7457600080fd5b919390929091602081019035600160201b811115610b9157600080fd5b820183602082011115610ba357600080fd5b803590602001918460208302840111600160201b83111715610bc457600080fd5b50909250905061213e565b610bfd60048036036040811015610be557600080fd5b506001600160a01b0381358116916020013516612699565b6040805195865260208601949094528484019290925260608401526080830152519081900360a00190f35b61071c60048036036020811015610c3e57600080fd5b50356001600160a01b03166126d3565b6106b360048036036020811015610c6457600080fd5b50356001600160a01b03166126e8565b6106f460048036036020811015610c8a57600080fd5b50356001600160a01b0316612703565b6106b3612824565b6107c8612833565b61071c60048036036060811015610cc057600080fd5b506001600160a01b03813581169160208101359091169060400135612839565b6106f460048036036020811015610cf657600080fd5b50356001600160a01b03166129d5565b6106b3612ac0565b6107c8612acf565b6106f460048036036020811015610d2c57600080fd5b5035612ad5565b61071c612b63565b6106f460048036036040811015610d5157600080fd5b810190602081018135600160201b811115610d6b57600080fd5b820183602082011115610d7d57600080fd5b803590602001918460208302840111600160201b83111715610d9e57600080fd5b919390929091602081019035600160201b811115610dbb57600080fd5b820183602082011115610dcd57600080fd5b803590602001918460208302840111600160201b83111715610dee57600080fd5b509092509050612b6c565b6109b860048036036040811015610e0f57600080fd5b506001600160a01b0381358116916020013516612d31565b6106b3612db1565b6106b360048036036020811015610e4557600080fd5b50356001600160a01b0316612dc0565b61071c612ddb565b6106f460048036036020811015610e7357600080fd5b50356001600160a01b0316612e01565b6107c860048036036020811015610e9957600080fd5b50356001600160a01b0316612ede565b6107c8612ef0565b610edd60048036036040811015610ec757600080fd5b506001600160a01b038135169060200135612ef6565b604080516001600160a01b03909316835290151560208301528051918290030190f35b6106f460048036036020811015610f1657600080fd5b5035612f98565b6106f460048036036020811015610f3357600080fd5b50356130be565b6106f460048036036020811015610f5057600080fd5b50356131d5565b6106f460048036036020811015610f6d57600080fd5b50356132f3565b6106f460048036036020811015610f8a57600080fd5b5035613411565b6107c861349f565b6107c86134a5565b6106b36134ab565b6106f460048036036020811015610fbf57600080fd5b50356134ba565b61071c60048036036060811015610fdc57600080fd5b506001600160a01b038135811691602081013590911690604001356135d4565b6107c86004803603602081101561101257600080fd5b50356001600160a01b0316613770565b6107c86004803603602081101561103857600080fd5b50356001600160a01b0316613782565b6106b3613794565b6106b36137a3565b6107c86004803603602081101561106e57600080fd5b50356001600160a01b03166137b2565b6107c86137c4565b6110a36004803603602081101561109c57600080fd5b50356138bd565b604080519c8d5260208d019b909b528b8b019990995296151560608b015260808a019590955260a089019390935260c088019190915260e08701526101008601526101208501526001600160a01b039081166101408501521661016083015251908190036101800190f35b6106f46004803603602081101561112457600080fd5b50356001600160a01b031661392f565b6106f46004803603604081101561114a57600080fd5b506001600160a01b038135169060200135613c52565b6106f46004803603602081101561117657600080fd5b5035613c6e565b61119a6004803603602081101561119357600080fd5b5035613d3d565b6040805198895296151560208901526001600160a01b0395861688880152938516606088015291909316608086015260a085019290925260c084019190915260e083015251908190036101000190f35b6107c86004803603604081101561120057600080fd5b506001600160a01b0381358116916020013516613d8f565b6106f46004803603602081101561122e57600080fd5b5035613dac565b6106f46004803603602081101561124b57600080fd5b5035613ecd565b6106b3613feb565b6107c8613ffa565b6107c86004803603602081101561127857600080fd5b50356001600160a01b0316614000565b6106f46004803603602081101561129e57600080fd5b810190602081018135600160201b8111156112b857600080fd5b8201836020820111156112ca57600080fd5b803590602001918460208302840111600160201b831117156112eb57600080fd5b509092509050614012565b6106f46004803603602081101561130c57600080fd5b50356001600160a01b0316614273565b6106f46004803603602081101561133257600080fd5b503515156143a9565b61071c614481565b6106f46004803603604081101561135957600080fd5b506001600160a01b038135811691602001351661448a565b6106f46004803603602081101561138757600080fd5b50356001600160a01b03166146c1565b6107c86147e2565b6106f4600480360360408110156113b557600080fd5b506001600160a01b0381351690602001356147e8565b6106f4600480360360208110156113e157600080fd5b50356001600160a01b0316614804565b6106b36148e1565b6106f46004803603606081101561140f57600080fd5b506001600160a01b038135811691602081013590911690604001356148f0565b6107c8614a4a565b6107c8614a50565b6106f46004803603602081101561145557600080fd5b50356001600160a01b0316614a56565b6106b3614aa7565b6107c8614ab6565b6106f46004803603602081101561148b57600080fd5b5035614abc565b6107c8614bd9565b6106b3614bdf565b6107c8600480360360408110156114b857600080fd5b810190602081018135600160201b8111156114d257600080fd5b8201836020820111156114e457600080fd5b803590602001918460208302840111600160201b8311171561150557600080fd5b9193509150356001600160a01b0316614bee565b6106b3615438565b6009602090815260009283526040808420909152908252902080546001820154600283015460038401546004850154600590950154939492939192909186565b6031546001600160a01b031681565b6031546001600160a01b03165b90565b611588612ddb565b6115c8576040805162461bcd60e51b815260206004820152600c60248201526b1d5b985d5d1a1bdc9a5e995960a21b604482015290519081900360640190fd5b603d5460ff1615611609576040805162461bcd60e51b815260206004820152600660248201526514185d5cd95960d21b604482015290519081900360640190fd5b68056bc75e2d63100000811115611658576040805162461bcd60e51b815260206004820152600e60248201526d0ecc2d8eaca40e8dede40d0d2ced60931b604482015290519081900360640190fd5b60188054908290556040805182815260208101849052815133927f0628070e9ccbc70e8be34a2fa969f8d314ec049f17bfcb4c2020df4bccd2bf52928290030190a25050565b6001600160a01b0390811660009081526022602052604090205416151590565b6005602052600090815260409020546001600160a01b031681565b6116e1612ddb565b611721576040805162461bcd60e51b815260206004820152600c60248201526b1d5b985d5d1a1bdc9a5e995960a21b604482015290519081900360640190fd5b603d5460ff1615611762576040805162461bcd60e51b815260206004820152600660248201526514185d5cd95960d21b604482015290519081900360640190fd5b68056bc75e2d631000008111156117b1576040805162461bcd60e51b815260206004820152600e60248201526d0ecc2d8eaca40e8dede40d0d2ced60931b604482015290519081900360640190fd5b601b8054908290556040805182815260208101849052815133927f5c61c9c51cb2781bc120817a851f7f27c134d5d191bc5a2b0ea971ba638425e4928290030190a25050565b6117ff612ddb565b61183f576040805162461bcd60e51b815260206004820152600c60248201526b1d5b985d5d1a1bdc9a5e995960a21b604482015290519081900360640190fd5b603d5460ff1615611880576040805162461bcd60e51b815260206004820152600660248201526514185d5cd95960d21b604482015290519081900360640190fd5b600380546001600160a01b038381166001600160a01b03198316811790935560408051919092168082526020820193909352815133927f480cc6e59585343a9e9d6fe591dad0f80ce93bb2399ca672910f380671b46ba8928290030190a25050565b603b60209081526000928352604080842090915290825290205481565b6023602052600090815260409020546001600160a01b031681565b60326020526000908152604090205460ff1681565b611937612ddb565b611977576040805162461bcd60e51b815260206004820152600c60248201526b1d5b985d5d1a1bdc9a5e995960a21b604482015290519081900360640190fd5b603d5460ff16156119b8576040805162461bcd60e51b815260206004820152600660248201526514185d5cd95960d21b604482015290519081900360640190fd5b68056bc75e2d63100000811115611a07576040805162461bcd60e51b815260206004820152600e60248201526d0ecc2d8eaca40e8dede40d0d2ced60931b604482015290519081900360640190fd5b603e8054908290556040805182815260208101849052815133927f02bd69d9975fcf3b39b6ab502d77983a0cfce893e47073f502d094c6a94da33b928290030190a25050565b60185481565b611a5b612ddb565b611a9b576040805162461bcd60e51b815260206004820152600c60248201526b1d5b985d5d1a1bdc9a5e995960a21b604482015290519081900360640190fd5b603d5460ff1615611adc576040805162461bcd60e51b815260206004820152600660248201526514185d5cd95960d21b604482015290519081900360640190fd5b611ae581615447565b611b36576040805162461bcd60e51b815260206004820152601e60248201527f726567697374727941646472657373206e6f74206120636f6e74726163740000604482015290519081900360640190fd5b600480546001600160a01b038381166001600160a01b031983161792839055604051918116921690829033907f54c538f1d732806e1bfc25ec56236dac39e6070dd856c0e7efb2bc274709467d90600090a45050565b601f5481565b603d5460009060ff1615611bd6576040805162461bcd60e51b815260206004820152600660248201526514185d5cd95960d21b604482015290519081900360640190fd5b6014546001600160a01b03163314611c24576040805162461bcd60e51b815260206004820152600c60248201526b1d5b985d5d1a1bdc9a5e995960a21b604482015290519081900360640190fd5b6001600160a01b0384166000908152601c6020526040902054829080821115611c4b578091505b81611c5b57600092505050611d29565b611c6b818363ffffffff61548316565b6001600160a01b0387166000908152601c6020908152604080832093909355601d90522054611ca0908363ffffffff6154c516565b6001600160a01b0387166000818152601d6020526040902091909155611ccd90868463ffffffff61551f16565b846001600160a01b0316866001600160a01b0316336001600160a01b03167f2bfaa669aeee298bc85fe2b7dddc312fc28b78622f086063b9a410d7ba9939cf856040518082815260200191505060405180910390a46001925050505b9392505050565b6008602090815260009283526040808420909152908252902080546001820154600283015460038401546004850154600590950154939492939192909186565b601a6020526000908152604090205481565b611d8a612ddb565b611dca576040805162461bcd60e51b815260206004820152600c60248201526b1d5b985d5d1a1bdc9a5e995960a21b604482015290519081900360640190fd5b603d5460ff1615611e0b576040805162461bcd60e51b815260206004820152600660248201526514185d5cd95960d21b604482015290519081900360640190fd5b60298054908290556040805182815260208101849052815133927fa645d7b227c34f1f218d53bc3b3ccb9a43eaf2231b33925194f1de755aa3acc3928290030190a25050565b611e59612ddb565b611e99576040805162461bcd60e51b815260206004820152600c60248201526b1d5b985d5d1a1bdc9a5e995960a21b604482015290519081900360640190fd5b603d5460ff1615611eda576040805162461bcd60e51b815260206004820152600660248201526514185d5cd95960d21b604482015290519081900360640190fd5b601e54611eed908263ffffffff6154c516565b601e55602e54611f0e906001600160a01b031633308463ffffffff61557616565b50565b6001600160a01b039091166000908152601c6020526040902055565b602f5490565b602a6020526000908152604090205481565b6060611f596024848463ffffffff6155d616565b90505b92915050565b600a60209081526000928352604080842090915290825290205460ff1681565b60166020526000908152604090205481565b603e5490565b60155481565b6037546001600160a01b031690565b611fb7612ddb565b611ff7576040805162461bcd60e51b815260206004820152600c60248201526b1d5b985d5d1a1bdc9a5e995960a21b604482015290519081900360640190fd5b603d5460ff1615612038576040805162461bcd60e51b815260206004820152600660248201526514185d5cd95960d21b604482015290519081900360640190fd5b61204181615447565b612092576040805162461bcd60e51b815260206004820181905260248201527f6e65774c6f636b534f5641646472657373206e6f74206120636f6e7472616374604482015290519081900360640190fd5b603880546001600160a01b038381166001600160a01b03198316811790935560405191169190829033907fea3cad8b6739a7a73616cb585fe48a8e8f61d1fd7f9822ccd7580a805357aa7090600090a45050565b60295481565b600c6020526000908152604090208054600182015460029092015490919083565b602b5481565b6001600160a01b039182166000908152603c6020908152604080832093909416825291909152205490565b612146612ddb565b612186576040805162461bcd60e51b815260206004820152600c60248201526b1d5b985d5d1a1bdc9a5e995960a21b604482015290519081900360640190fd5b603d5460ff16156121c7576040805162461bcd60e51b815260206004820152600660248201526514185d5cd95960d21b604482015290519081900360640190fd5b82811461220c576040805162461bcd60e51b815260206004820152600e60248201526d0c6deeadce840dad2e6dac2e8c6d60931b604482015290519081900360640190fd5b60005b838110156126925782828281811061222357fe5b905060200201356001600160a01b03166001600160a01b031685858381811061224857fe5b905060200201356001600160a01b03166001600160a01b031614156122a4576040805162461bcd60e51b815260206004820152600d60248201526c1c1bdbdb080f4f48185cdcd95d609a1b604482015290519081900360640190fd5b60008585838181106122b257fe5b905060200201356001600160a01b03166001600160a01b0316141561230a576040805162461bcd60e51b81526020600482015260096024820152680706f6f6c203d3d20360bc1b604482015290519081900360640190fd5b600083838381811061231857fe5b905060200201356001600160a01b03166001600160a01b03161415806123785750600060228187878581811061234a57fe5b6001600160a01b03602091820293909301358316845283019390935260409091016000205416919091141590505b6123bb576040805162461bcd60e51b815260206004820152600f60248201526e706f6f6c206e6f742065786973747360881b604482015290519081900360640190fd5b60008383838181106123c957fe5b905060200201356001600160a01b03166001600160a01b031614156124e857600060236000602260008989878181106123fe57fe5b6001600160a01b0360209182029390930135831684528381019490945250604091820160009081205482168552928401949094529190910181208054939092166001600160a01b031990931692909217905560228187878581811061245f57fe5b905060200201356001600160a01b03166001600160a01b03166001600160a01b0316815260200190815260200160002060006101000a8154816001600160a01b0302191690836001600160a01b031602179055506124e28585838181106124c257fe5b905060200201356001600160a01b031660246156d590919063ffffffff16565b50612619565b8282828181106124f457fe5b905060200201356001600160a01b03166022600087878581811061251457fe5b905060200201356001600160a01b03166001600160a01b03166001600160a01b0316815260200190815260200160002060006101000a8154816001600160a01b0302191690836001600160a01b0316021790555084848281811061257457fe5b905060200201356001600160a01b03166023600085858581811061259457fe5b905060200201356001600160a01b03166001600160a01b03166001600160a01b0316815260200190815260200160002060006101000a8154816001600160a01b0302191690836001600160a01b031602179055506126178585838181106125f757fe5b905060200201356001600160a01b031660246156e290919063ffffffff16565b505b82828281811061262557fe5b905060200201356001600160a01b03166001600160a01b031685858381811061264a57fe5b6040516001600160a01b036020909202939093013516913391507f919223d371e0ad76f1f32dcbe0750166810bff9a9e4b2735bfcd01c5686c8d8990600090a460010161220f565b5050505050565b600b602090815260009283526040808420909152908252902080546001820154600283015460038401546004909401549293919290919085565b60266020526000908152604090205460ff1681565b6033602052600090815260409020546001600160a01b031681565b61270b612ddb565b61274b576040805162461bcd60e51b815260206004820152600c60248201526b1d5b985d5d1a1bdc9a5e995960a21b604482015290519081900360640190fd5b603d5460ff161561278c576040805162461bcd60e51b815260206004820152600660248201526514185d5cd95960d21b604482015290519081900360640190fd5b61279581615447565b6127d05760405162461bcd60e51b8152600401808060200182810382526021815260200180615cde6021913960400191505060405180910390fd5b603780546001600160a01b038381166001600160a01b03198316811790935560405191169190829033907f6105cbfb5494a79f89745763767914b7b60b00defac5e94c7eb28cc5e44c479f90600090a45050565b6003546001600160a01b031681565b60355481565b603d5460009060ff161561287d576040805162461bcd60e51b815260206004820152600660248201526514185d5cd95960d21b604482015290519081900360640190fd5b6014546001600160a01b031633146128cb576040805162461bcd60e51b815260206004820152600c60248201526b1d5b985d5d1a1bdc9a5e995960a21b604482015290519081900360640190fd5b6001600160a01b0384166000908152601960205260409020548290808211156128f2578091505b8161290257600092505050611d29565b612912818363ffffffff61548316565b6001600160a01b038716600090815260196020908152604080832093909355601a90522054612947908363ffffffff6154c516565b6001600160a01b0387166000818152601a602052604090209190915561297490868463ffffffff61551f16565b846001600160a01b0316866001600160a01b0316336001600160a01b03167f951f1856a4d1d8c0081f50a1aee9fdc008f729d0f22849618016e353179b8dda856040518082815260200191505060405180910390a450600195945050505050565b6129dd612ddb565b612a1d576040805162461bcd60e51b815260206004820152600c60248201526b1d5b985d5d1a1bdc9a5e995960a21b604482015290519081900360640190fd5b603d5460ff1615612a5e576040805162461bcd60e51b815260206004820152600660248201526514185d5cd95960d21b604482015290519081900360640190fd5b600280546001600160a01b038381166001600160a01b03198316811790935560408051919092168082526020820193909352815133927f05621ab0b721f217895f5337ac1283251172d175ef3dc8c9a0287155f6024ce8928290030190a25050565b6002546001600160a01b031681565b601e5481565b612add612ddb565b612b1d576040805162461bcd60e51b815260206004820152600c60248201526b1d5b985d5d1a1bdc9a5e995960a21b604482015290519081900360640190fd5b603d5460ff1615612b5e576040805162461bcd60e51b815260206004820152600660248201526514185d5cd95960d21b604482015290519081900360640190fd5b602755565b603d5460ff1681565b612b74612ddb565b612bb4576040805162461bcd60e51b815260206004820152600c60248201526b1d5b985d5d1a1bdc9a5e995960a21b604482015290519081900360640190fd5b603d5460ff1615612bf5576040805162461bcd60e51b815260206004820152600660248201526514185d5cd95960d21b604482015290519081900360640190fd5b828114612c3a576040805162461bcd60e51b815260206004820152600e60248201526d0c6deeadce840dad2e6dac2e8c6d60931b604482015290519081900360640190fd5b60005b8381101561269257828282818110612c5157fe5b90506020020135151560266000878785818110612c6a57fe5b905060200201356001600160a01b03166001600160a01b03166001600160a01b0316815260200190815260200160002060006101000a81548160ff021916908315150217905550848482818110612cbd57fe5b905060200201356001600160a01b03166001600160a01b0316336001600160a01b03167f24cecc90c7d4bc8c6765b75eedcc61d4e1cc4e4d49cd0756c6dfb5f6cc259b50858585818110612d0d57fe5b604080516020928302949094013515158452519283900301919050a3600101612c3d565b6001600160a01b038083166000908152604060208181528183209385168352928352908190208054825181850281018501909352808352606093830182828015612da457602002820191906000526020600020905b81546001600160a01b03168152600190910190602001808311612d86575b5050505050905092915050565b6001546001600160a01b031690565b6022602052600090815260409020546001600160a01b031681565b6001546000906001600160a01b0316612df26156ef565b6001600160a01b031614905090565b612e09612ddb565b612e49576040805162461bcd60e51b815260206004820152600c60248201526b1d5b985d5d1a1bdc9a5e995960a21b604482015290519081900360640190fd5b603d5460ff1615612e8a576040805162461bcd60e51b815260206004820152600660248201526514185d5cd95960d21b604482015290519081900360640190fd5b603180546001600160a01b038381166001600160a01b03198316811790935560405191169190829033907fe48b1893efaee62da0749dd98dbf0ea62ee472b37f7205114aca36cc9de1122890600090a45050565b60176020526000908152604090205481565b602c5481565b600080612f01612ddb565b612f41576040805162461bcd60e51b815260206004820152600c60248201526b1d5b985d5d1a1bdc9a5e995960a21b604482015290519081900360640190fd5b603d5460ff1615612f82576040805162461bcd60e51b815260206004820152600660248201526514185d5cd95960d21b604482015290519081900360640190fd5b612f8c84846156f3565b915091505b9250929050565b612fa0612ddb565b612fe0576040805162461bcd60e51b815260206004820152600c60248201526b1d5b985d5d1a1bdc9a5e995960a21b604482015290519081900360640190fd5b603d5460ff1615613021576040805162461bcd60e51b815260206004820152600660248201526514185d5cd95960d21b604482015290519081900360640190fd5b68056bc75e2d63100000811115613078576040805162461bcd60e51b815260206004820152601660248201527508ccaca40e4cac4c2e8ca40d2e640e8dede40d0d2ced60531b604482015290519081900360640190fd5b602f8054908290556040805182815260208101849052815133927fb12d68e20e5279e25ff10edfc0f82deaa858ea2ac9874cf58518f4e5f9422013928290030190a25050565b6130c6612ddb565b613106576040805162461bcd60e51b815260206004820152600c60248201526b1d5b985d5d1a1bdc9a5e995960a21b604482015290519081900360640190fd5b603d5460ff1615613147576040805162461bcd60e51b815260206004820152600660248201526514185d5cd95960d21b604482015290519081900360640190fd5b61270f81111561318f576040805162461bcd60e51b815260206004820152600e60248201526d0ecc2d8eaca40e8dede40d0d2ced60931b604482015290519081900360640190fd5b603f8054908290556040805182815260208101849052815133927fc6d322dc6668f20ff04ac11b217aae8e8704e6388bd1dececeab1059db806bf6928290030190a25050565b6131dd612ddb565b61321d576040805162461bcd60e51b815260206004820152600c60248201526b1d5b985d5d1a1bdc9a5e995960a21b604482015290519081900360640190fd5b603d5460ff161561325e576040805162461bcd60e51b815260206004820152600660248201526514185d5cd95960d21b604482015290519081900360640190fd5b68056bc75e2d631000008111156132ad576040805162461bcd60e51b815260206004820152600e60248201526d0ecc2d8eaca40e8dede40d0d2ced60931b604482015290519081900360640190fd5b60218054908290556040805182815260208101849052815133927fa06d9b7b1c979150dcbf5b050626cc7d06c764a12ebf76ec8d16b8d3d7c9ee53928290030190a25050565b6132fb612ddb565b61333b576040805162461bcd60e51b815260206004820152600c60248201526b1d5b985d5d1a1bdc9a5e995960a21b604482015290519081900360640190fd5b603d5460ff161561337c576040805162461bcd60e51b815260206004820152600660248201526514185d5cd95960d21b604482015290519081900360640190fd5b68056bc75e2d631000008111156133cb576040805162461bcd60e51b815260206004820152600e60248201526d0ecc2d8eaca40e8dede40d0d2ced60931b604482015290519081900360640190fd5b60398054908290556040805182815260208101849052815133927f61d3e840cf1074298f10fa77edb788b4e5e554d7d135c93ac5f38f2ce0f6b52d928290030190a25050565b613419612ddb565b613459576040805162461bcd60e51b815260206004820152600c60248201526b1d5b985d5d1a1bdc9a5e995960a21b604482015290519081900360640190fd5b603d5460ff161561349a576040805162461bcd60e51b815260206004820152600660248201526514185d5cd95960d21b604482015290519081900360640190fd5b602855565b602f5481565b60205481565b602d546001600160a01b031681565b6134c2612ddb565b613502576040805162461bcd60e51b815260206004820152600c60248201526b1d5b985d5d1a1bdc9a5e995960a21b604482015290519081900360640190fd5b603d5460ff1615613543576040805162461bcd60e51b815260206004820152600660248201526514185d5cd95960d21b604482015290519081900360640190fd5b6000811161358e576040805162461bcd60e51b81526020600482015260136024820152724261736520726577617264206973207a65726f60681b604482015290519081900360640190fd5b602b8054908290556040805182815260208101849052815133927f13cb748cec5c5021a23ec7994522a0911f24f10fdabc909281fbe95914b782f0928290030190a25050565b603d5460009060ff1615613618576040805162461bcd60e51b815260206004820152600660248201526514185d5cd95960d21b604482015290519081900360640190fd5b6014546001600160a01b03163314613666576040805162461bcd60e51b815260206004820152600c60248201526b1d5b985d5d1a1bdc9a5e995960a21b604482015290519081900360640190fd5b6001600160a01b03841660009081526016602052604090205482908082111561368d578091505b8161369d57600092505050611d29565b6136ad818363ffffffff61548316565b6001600160a01b0387166000908152601660209081526040808320939093556017905220546136e2908363ffffffff6154c516565b6001600160a01b03871660008181526017602052604090209190915561370f90868463ffffffff61551f16565b846001600160a01b0316866001600160a01b0316336001600160a01b03167fabc20bdd02de91df32a6e4a11684e26e0a34dc5a895a314ae51a919bc9f62c60856040518082815260200191505060405180910390a450600195945050505050565b601d6020526000908152604090205481565b601c6020526000908152604090205481565b6037546001600160a01b031681565b6004546001600160a01b031681565b60366020526000908152604090205481565b603754604080516370a0823160e01b8152306004820152905160009283926001600160a01b03909116916370a0823191602480820192602092909190829003018186803b15801561381457600080fd5b505afa158015613828573d6000803e3d6000fd5b505050506040513d602081101561383e57600080fd5b50516037546001600160a01b03166000908152601c6020908152604080832054601983528184205460169093529083205493945091926138959291613889919063ffffffff6154c516565b9063ffffffff6154c516565b9050808210156138a65760006138b6565b6138b6828263ffffffff61548316565b9250505090565b600660208190526000918252604090912080546001820154600283015460038401546004850154600586015496860154600787015460088801546009890154600a8a0154600b909a0154989a9799969860ff909616979496949593949293919290916001600160a01b0391821691168c565b613937612ddb565b613977576040805162461bcd60e51b815260206004820152600c60248201526b1d5b985d5d1a1bdc9a5e995960a21b604482015290519081900360640190fd5b613988631d18990160e21b82615770565b613999631a81c19160e01b82615770565b6139aa6359e49e0f60e01b82615770565b6139bb630427554f60e51b82615770565b6139cc63691c6d9160e11b82615770565b6139dd630c615ee960e01b82615770565b6139ee6302ff16f160e31b82615770565b6139ff6329f9986d60e01b82615770565b613a10633487e38960e21b82615770565b613a2163a32bb68360e01b82615770565b613a3263a2ab1ba160e01b82615770565b613a43637fb202e560e01b82615770565b613a546314dcf98560e31b82615770565b613a6563355a395f60e01b82615770565b613a7663e8997dbd60e01b82615770565b613a87630f7e7aab60e41b82615770565b613a986358d644e560e11b82615770565b613aa96374326e8f60e01b82615770565b613aba6332e4706f60e01b82615770565b613acb639688185760e01b82615770565b613adc633c56ae1b60e01b82615770565b613aed63402946b960e01b82615770565b613afe63115dd4b160e01b82615770565b613b0f6302d77d0d60e41b82615770565b613b2063367aaa9960e21b82615770565b613b31639254e6bf60e01b82615770565b613b42630e3ff93760e41b82615770565b613b53636fbae33b60e01b82615770565b613b64634dd053a560e01b82615770565b613b75630c7c333f60e41b82615770565b613b866358aac5b960e11b82615770565b613b9763031b39f960e61b82615770565b613ba86372523d0160e11b82615770565b613bb9633e526e6b60e01b82615770565b613bca631674367b60e21b82615770565b613bdb6307024c2560e01b82615770565b613bec6325e7f39360e11b82615770565b613bfd633d1250bb60e21b82615770565b613c0e633f1ae8b960e01b82615770565b613c1f63462096f360e01b82615770565b613c3063a1eb568360e01b82615770565b613c416301c832c960e71b82615770565b611f0e63c22552f760e01b82615770565b6001600160a01b03909116600090815260166020526040902055565b613c76612ddb565b613cb6576040805162461bcd60e51b815260206004820152600c60248201526b1d5b985d5d1a1bdc9a5e995960a21b604482015290519081900360640190fd5b603d5460ff1615613cf7576040805162461bcd60e51b815260206004820152600660248201526514185d5cd95960d21b604482015290519081900360640190fd5b60358054908290556040805182815260208101849052815133927f5b3b73dcee2d869937089aa5282989415bc607389ab2d4164ae83e7a9e1da084928290030190a25050565b6007602052600090815260409020805460018201546002830154600384015460048501546005860154600690960154949560ff8516956101009095046001600160a01b03908116959481169493169288565b603c60209081526000928352604080842090915290825290205481565b613db4612ddb565b613df4576040805162461bcd60e51b815260206004820152600c60248201526b1d5b985d5d1a1bdc9a5e995960a21b604482015290519081900360640190fd5b603d5460ff1615613e35576040805162461bcd60e51b815260206004820152600660248201526514185d5cd95960d21b604482015290519081900360640190fd5b68056bc75e2d63100000811115613e84576040805162461bcd60e51b815260206004820152600e60248201526d0ecc2d8eaca40e8dede40d0d2ced60931b604482015290519081900360640190fd5b60208054828255604080518281529283018490528051919233927f7f47cc725826cba6f43b2c0a013328b47d5f16aa9d27d6f0196a37a35c8e53f5929181900390910190a25050565b613ed5612ddb565b613f15576040805162461bcd60e51b815260206004820152600c60248201526b1d5b985d5d1a1bdc9a5e995960a21b604482015290519081900360640190fd5b603d5460ff1615613f56576040805162461bcd60e51b815260206004820152600660248201526514185d5cd95960d21b604482015290519081900360640190fd5b68056bc75e2d63100000811115613fa5576040805162461bcd60e51b815260206004820152600e60248201526d0ecc2d8eaca40e8dede40d0d2ced60931b604482015290519081900360640190fd5b60158054908290556040805182815260208101849052815133927fa6c5bd6650afa784494efd877ecd8b7505efbbbaed74b7dd29f1472d6cd0c492928290030190a25050565b6038546001600160a01b031681565b60275481565b60196020526000908152604090205481565b61401a612ddb565b61405a576040805162461bcd60e51b815260206004820152600c60248201526b1d5b985d5d1a1bdc9a5e995960a21b604482015290519081900360640190fd5b603d5460ff161561409b576040805162461bcd60e51b815260206004820152600660248201526514185d5cd95960d21b604482015290519081900360640190fd5b6000828260008181106140aa57fe5b905060200201356001600160a01b0316905060008383600186869050038181106140d057fe5b905060200201356001600160a01b0316905060008484905090506003811015614132576040805162461bcd60e51b815260206004820152600f60248201526e08aa4a4bea082a890be988a9c8ea89608b1b604482015290519081900360640190fd5b60005b818110156141ba5761416186868381811061414c57fe5b905060200201356001600160a01b0316615447565b6141b2576040805162461bcd60e51b815260206004820152601a60248201527f4552525f504154485f4e4f4e5f434f4e54524143545f41444452000000000000604482015290519081900360640190fd5b600101614135565b506001600160a01b03808416600090815260406020818152818320938616835292909252206141ea908686615bf8565b50816001600160a01b0316836001600160a01b0316336001600160a01b03167f129b9c235ee9080c61000669529ef5e13890b4d0baa3f9fd78a24755e6977e84888860405180806020018281038252848482818152602001925060200280828437600083820152604051601f909101601f19169092018290039550909350505050a45050505050565b61427b612ddb565b6142bb576040805162461bcd60e51b815260206004820152600c60248201526b1d5b985d5d1a1bdc9a5e995960a21b604482015290519081900360640190fd5b603d5460ff16156142fc576040805162461bcd60e51b815260206004820152600660248201526514185d5cd95960d21b604482015290519081900360640190fd5b61430581615447565b614356576040805162461bcd60e51b815260206004820181905260248201527f7772627463546f6b656e41646472657373206e6f74206120636f6e7472616374604482015290519081900360640190fd5b602d80546001600160a01b038381166001600160a01b03198316811790935560405191169190829033907ec53b30140bc38db3a9070249d614e03304ada9e458b2d2f01d23feed00985a90600090a45050565b6143b1612ddb565b6143f1576040805162461bcd60e51b815260206004820152600c60248201526b1d5b985d5d1a1bdc9a5e995960a21b604482015290519081900360640190fd5b603d5460ff161515811515141561443e576040805162461bcd60e51b815260206004820152600c60248201526b43616e277420746f67676c6560a01b604482015290519081900360640190fd5b603d805460ff19168215801591821790925560405190919033907f575725fa4843b62a71608b620f6d2a15792407ae40e019230a0500109782f66090600090a450565b603d5460ff1690565b614492612ddb565b6144d2576040805162461bcd60e51b815260206004820152600c60248201526b1d5b985d5d1a1bdc9a5e995960a21b604482015290519081900360640190fd5b603d5460ff1615614513576040805162461bcd60e51b815260206004820152600660248201526514185d5cd95960d21b604482015290519081900360640190fd5b6001600160a01b03808316600090815260406020818152818320938516835292909252205461457e576040805162461bcd60e51b815260206004820152601260248201527144454641554c545f504154485f454d50545960701b604482015290519081900360640190fd5b6001600160a01b0380831660009081526040602081815281832093851683529283529081902080548251818502810185019093528083526060938301828280156145f157602002820191906000526020600020905b81546001600160a01b031681526001909101906020018083116145d3575b505050506001600160a01b03858116600090815260406020818152818320938816835292909252908120929350614629929150615c5b565b816001600160a01b0316836001600160a01b0316336001600160a01b03167f1a4d14c8795096885326639e56c528b0fbb308e1b94146c8515c41042681121d846040518080602001828103825283818151815260200191508051906020019060200280838360005b838110156146a9578181015183820152602001614691565b505050509050019250505060405180910390a4505050565b6146c9612ddb565b614709576040805162461bcd60e51b815260206004820152600c60248201526b1d5b985d5d1a1bdc9a5e995960a21b604482015290519081900360640190fd5b603d5460ff161561474a576040805162461bcd60e51b815260206004820152600660248201526514185d5cd95960d21b604482015290519081900360640190fd5b61475381615447565b61478e5760405162461bcd60e51b8152600401808060200182810382526024815260200180615d296024913960400191505060405180910390fd5b602e80546001600160a01b038381166001600160a01b03198316811790935560405191169190829033907fffdeb9a96d6e1f867bcbb8a64815e576b65141995ab197cf02f7bb34fc186b7590600090a45050565b603f5490565b6001600160a01b03909116600090815260196020526040902055565b61480c612ddb565b61484c576040805162461bcd60e51b815260206004820152600c60248201526b1d5b985d5d1a1bdc9a5e995960a21b604482015290519081900360640190fd5b603d5460ff161561488d576040805162461bcd60e51b815260206004820152600660248201526514185d5cd95960d21b604482015290519081900360640190fd5b601480546001600160a01b038381166001600160a01b03198316811790935560405191169190829033907f83e92cb95ec836f94e25e0a7b31c39f750833a8ce24eaa227a7050aafea08a8490600090a45050565b6014546001600160a01b031681565b6148f8612ddb565b614938576040805162461bcd60e51b815260206004820152600c60248201526b1d5b985d5d1a1bdc9a5e995960a21b604482015290519081900360640190fd5b603d5460ff1615614979576040805162461bcd60e51b815260206004820152600660248201526514185d5cd95960d21b604482015290519081900360640190fd5b683635c9adc5dea000008111156149d7576040805162461bcd60e51b815260206004820152601e60248201527f5370656369616c206665652072656261746520697320746f6f20686967680000604482015290519081900360640190fd5b6001600160a01b038381166000818152603c6020908152604080832094871680845294825291829020805490869055825181815291820186905282519094939233927fd2d3c121d3439420f50efd36f0a01ebdac87111ec00360641c32aea3c6fc3213929081900390910190a450505050565b601b5481565b60285481565b614a5e612ddb565b614a9e576040805162461bcd60e51b815260206004820152600c60248201526b1d5b985d5d1a1bdc9a5e995960a21b604482015290519081900360640190fd5b611f0e816157ea565b6038546001600160a01b031690565b60395481565b614ac4612ddb565b614b04576040805162461bcd60e51b815260206004820152600c60248201526b1d5b985d5d1a1bdc9a5e995960a21b604482015290519081900360640190fd5b603d5460ff1615614b45576040805162461bcd60e51b815260206004820152600660248201526514185d5cd95960d21b604482015290519081900360640190fd5b670de0b6b3a7640000811115614b93576040805162461bcd60e51b815260206004820152600e60248201526d0ecc2d8eaca40e8dede40d0d2ced60931b604482015290519081900360640190fd5b602c8054908290556040805182815260208101849052815133927f864303b3e76c8edf19227d9acce896145b83212c6e38243e827b652d226bc9d6928290030190a25050565b60215481565b602e546001600160a01b031681565b603d5460009060ff1615614c32576040805162461bcd60e51b815260206004820152600660248201526514185d5cd95960d21b604482015290519081900360640190fd5b6014546001600160a01b03163314614c80576040805162461bcd60e51b815260206004820152600c60248201526b1d5b985d5d1a1bdc9a5e995960a21b604482015290519081900360640190fd5b60005b8381101561543057600060166000878785818110614c9d57fe5b905060200201356001600160a01b03166001600160a01b03166001600160a01b031681526020019081526020016000205490506000811115614db757600060166000888886818110614ceb57fe5b905060200201356001600160a01b03166001600160a01b03166001600160a01b0316815260200190815260200160002081905550614d728160176000898987818110614d3357fe5b905060200201356001600160a01b03166001600160a01b03166001600160a01b03168152602001908152602001600020546154c590919063ffffffff16565b60176000888886818110614d8257fe5b905060200201356001600160a01b03166001600160a01b03166001600160a01b03168152602001908152602001600020819055505b600060196000888886818110614dc957fe5b905060200201356001600160a01b03166001600160a01b03166001600160a01b031681526020019081526020016000205490506000811115614ea457600060196000898987818110614e1757fe5b905060200201356001600160a01b03166001600160a01b03166001600160a01b0316815260200190815260200160002081905550614e5f81601a60008a8a88818110614d3357fe5b601a6000898987818110614e6f57fe5b905060200201356001600160a01b03166001600160a01b03166001600160a01b03168152602001908152602001600020819055505b6000601c6000898987818110614eb657fe5b905060200201356001600160a01b03166001600160a01b03166001600160a01b031681526020019081526020016000205490506000811115614f91576000601c60008a8a88818110614f0457fe5b905060200201356001600160a01b03166001600160a01b03166001600160a01b0316815260200190815260200160002081905550614f4c81601d60008b8b89818110614d3357fe5b601d60008a8a88818110614f5c57fe5b905060200201356001600160a01b03166001600160a01b03166001600160a01b03168152602001908152602001600020819055505b6000614fa782613889868663ffffffff6154c516565b905080614fb75750505050615428565b6037546000906001600160a01b03168a8a88818110614fd257fe5b905060200201356001600160a01b03166001600160a01b0316141561510b57898987818110614ffd57fe5b6014546040805163095ea7b360e01b81526001600160a01b039283166004820152602481018890529051602093840295909501359091169363095ea7b39350604480830193928290030181600087803b15801561505957600080fd5b505af115801561506d573d6000803e3d6000fd5b505050506040513d602081101561508357600080fd5b50506014546037546040805163abe979e160e01b81526001600160a01b0392831660048201526bffffffffffffffffffffffff861660248201529051919092169163abe979e191604480830192600092919082900301818387803b1580156150ea57600080fd5b505af11580156150fe573d6000803e3d6000fd5b50505050600090506153ad565b602d546001600160a01b03168a8a8881811061512357fe5b905060200201356001600160a01b03166001600160a01b031614156151675750602d548190615162906001600160a01b0316898363ffffffff61551f16565b61539a565b89898781811061517357fe5b6031546040805163095ea7b360e01b81526001600160a01b039283166004820152602481018890529051602093840295909501359091169363095ea7b39350604480830193928290030181600087803b1580156151cf57600080fd5b505af11580156151e3573d6000803e3d6000fd5b505050506040513d60208110156151f957600080fd5b50506031546001600160a01b031663e321b5408b8b8981811061521857fe5b602d546014546031546040805160e089901b6001600160e01b031916815260209590950296909601356001600160a01b0390811660048601529283166024850152908216604484015216606482015260848101879052600060a4820181905260c4820181905261010060e48301526101048201819052835161014480840195945090928390030190829087803b1580156152b157600080fd5b505af11580156152c5573d6000803e3d6000fd5b505050506040513d60408110156152db57600080fd5b50516002549091506001600160a01b0316631e2c62d38b8b898181106152fd57fe5b602d546027546040805160e088901b6001600160e01b0319168152602094850296909601356001600160a01b0390811660048801529092166024860152604485018990526064850188905260848501525160a4808501949293509091829003018186803b15801561536d57600080fd5b505afa158015615381573d6000803e3d6000fd5b505050506040513d602081101561539757600080fd5b50505b6153aa878263ffffffff6154c516565b96505b876001600160a01b03168a8a888181106153c357fe5b604080518a815260208181018b90528183018a90526060820188905291516001600160a01b0392909302949094013516923392507ffc669a9c6050d8c313b540e2a2bd63f5f8965e4d267a0683ba6fb55114e868cc919081900360800190a450505050505b600101614c83565b509392505050565b6030546001600160a01b031681565b6000813f7fc5d2460186f7233c927e7db2dcc703c0e500b653ca82273b7bfad8045d85a47081811480159061547b57508115155b949350505050565b6000611f5983836040518060400160405280601e81526020017f536166654d6174683a207375627472616374696f6e206f766572666c6f77000081525061588b565b600082820183811015611f59576040805162461bcd60e51b815260206004820152601b60248201527f536166654d6174683a206164646974696f6e206f766572666c6f770000000000604482015290519081900360640190fd5b604080516001600160a01b038416602482015260448082018490528251808303909101815260649091019091526020810180516001600160e01b031663a9059cbb60e01b179052615571908490615922565b505050565b604080516001600160a01b0385811660248301528416604482015260648082018490528251808303909101815260849091019091526020810180516001600160e01b03166323b872dd60e01b1790526155d0908590615922565b50505050565b606082820183811015615624576040805162461bcd60e51b81526020600482015260116024820152706164646974696f6e206f766572666c6f7760781b604482015290519081900360640190fd5b60018501548111615635578061563b565b60018501545b905080158061564a5750808410155b156156555750611d29565b838103604051908082528060200260200182016040528015615681578160200160208202803883390190505b50915060005b8482038110156156cc5785600101858201815481106156a257fe5b90600052602060002001548382815181106156b957fe5b6020908102919091010152600101615687565b50509392505050565b60008161547b8482615ada565b60008161547b8482615ba3565b3390565b601e546000908190839080821115615709578091505b81615727575050602e546001600160a01b0316915060009050612f91565b615737818363ffffffff61548316565b601e55602e54615757906001600160a01b0316878463ffffffff61551f16565b5050602e546001600160a01b0316946001945092505050565b6001600160e01b03198216600090815260056020526040902080546001600160a01b0319166001600160a01b038316908117909155156157cb576157c5600d6001600160e01b0319841663ffffffff615ba316565b506157e6565b615571600d6001600160e01b0319841663ffffffff615ada16565b5050565b6001600160a01b03811661582f5760405162461bcd60e51b8152600401808060200182810382526026815260200180615cb86026913960400191505060405180910390fd5b6001546040516001600160a01b038084169216907f8be0079c531659141344cd1fd0a4f28419497f9722a3daafe3b4186f6b6457e090600090a3600180546001600160a01b0319166001600160a01b0392909216919091179055565b6000818484111561591a5760405162461bcd60e51b81526004018080602001828103825283818151815260200191508051906020019080838360005b838110156158df5781810151838201526020016158c7565b50505050905090810190601f16801561590c5780820380516001836020036101000a031916815260200191505b509250505060405180910390fd5b505050900390565b615934826001600160a01b0316615447565b615985576040805162461bcd60e51b815260206004820152601f60248201527f5361666545524332303a2063616c6c20746f206e6f6e2d636f6e747261637400604482015290519081900360640190fd5b60006060836001600160a01b0316836040518082805190602001908083835b602083106159c35780518252601f1990920191602091820191016159a4565b6001836020036101000a0380198251168184511680821785525050505050509050019150506000604051808303816000865af19150503d8060008114615a25576040519150601f19603f3d011682016040523d82523d6000602084013e615a2a565b606091505b509150915081615a81576040805162461bcd60e51b815260206004820181905260248201527f5361666545524332303a206c6f772d6c6576656c2063616c6c206661696c6564604482015290519081900360640190fd5b8051156155d057808060200190516020811015615a9d57600080fd5b50516155d05760405162461bcd60e51b815260040180806020018281038252602a815260200180615cff602a913960400191505060405180910390fd5b6000615ae68383615be3565b15615b9b5760008281526020849052604090205460018401546000199182019101808214615b5e576000856001018281548110615b1f57fe5b9060005260206000200154905080866001018481548110615b3c57fe5b6000918252602080832090910192909255918252869052604090206001830190555b60008481526020869052604081205560018501805480615b7a57fe5b60019003818190600052602060002001600090559055600192505050611f5c565b506000611f5c565b6000615baf8383615be3565b615b9b5750600180830180548083018083556000928352602080842090920185905584835290859052604090912055611f5c565b60009081526020919091526040902054151590565b828054828255906000526020600020908101928215615c4b579160200282015b82811115615c4b5781546001600160a01b0319166001600160a01b03843516178255602090920191600190910190615c18565b50615c57929150615c79565b5090565b5080546000825590600052602060002090810190611f0e9190615c9d565b61157d91905b80821115615c575780546001600160a01b0319168155600101615c7f565b61157d91905b80821115615c575760008155600101615ca356fe4f776e61626c653a206e6577206f776e657220697320746865207a65726f20616464726573736e6577536f76546f6b656e41646472657373206e6f74206120636f6e74726163745361666545524332303a204552433230206f7065726174696f6e20646964206e6f7420737563636565645f70726f746f636f6c546f6b656e41646472657373206e6f74206120636f6e7472616374a265627a7a7231582034fda1ce80a92bdeae009468c6aa8343921df22a61751f816cdbfeb1a2c751ab64736f6c63430005110032",
    "linkReferences": {}
  },
  "methodIdentifiers": {
    "admin()": "f851a440",
    "affiliateFeePercent()": "ae0a8530",
    "affiliateRewardsHeld(address)": "bdee453c",
    "affiliateTradingTokenFeePercent()": "f589a3e7",
    "affiliatesReferrerBalances(address,address)": "1b7bde74",
    "affiliatesUserReferrer(address)": "6e663730",
    "borrowerNonce(address)": "3fca506e",
    "borrowerOrders(address,bytes32)": "065d810f",
    "borrowingFeePercent()": "edab119f",
    "borrowingFeeTokensHeld(address)": "b7e15241",
    "borrowingFeeTokensPaid(address)": "b30643d9",
    "delegatedManagers(bytes32,address)": "4115a2b6",
    "depositProtocolToken(uint256)": "3c56ae1b",
    "feeRebatePercent()": "acc04348",
    "feesController()": "e8f62764",
    "getDedicatedSOVRebate()": "c22552f7",
    "getDefaultPathConversion(address,address)": "86540429",
    "getFeeRebatePercent()": "3f1ae8b9",
    "getLoanPoolsList(uint256,uint256)": "402946b9",
    "getLockedSOVAddress()": "f44942ec",
    "getProtocolAddress()": "07024c25",
    "getSovTokenAddress()": "4bcfe726",
    "getSpecialRebates(address,address)": "59d0d9ec",
    "getSwapExternalFeePercent()": "462096f3",
    "getTradingRebateRewardsBasisPoint()": "e4196480",
    "initialize(address)": "c4d66de8",
    "isLoanPool(address)": "115dd4b1",
    "isOwner()": "8f32d59b",
    "isProtocolPaused()": "dac88561",
    "lenderInterest(address,address)": "62fff3f6",
    "lenderOrders(address,bytes32)": "3432423c",
    "lendingFeePercent()": "4699f846",
    "lendingFeeTokensHeld(address)": "4203e395",
    "lendingFeeTokensPaid(address)": "92d894f8",
    "liquidationIncentivePercent()": "f6ddc8b3",
    "loanInterest(bytes32)": "569fc1fb",
    "loanParams(bytes32)": "cb6eacd1",
    "loanPoolToUnderlying(address)": "8dc48ba5",
    "loans(bytes32)": "c4a90815",
    "lockedSOVAddress()": "d288208c",
    "logicTargets(bytes4)": "17548b79",
    "maxDisagreement()": "d473c2da",
    "maxSwapSize()": "4f28cac2",
    "minReferralsToPayout()": "742e6798",
    "owner()": "8da5cb5b",
    "pause()": "8456cb59",
    "priceFeeds()": "78d849ed",
    "protocolAddress()": "0676c1b7",
    "protocolTokenAddress()": "f706b1f2",
    "protocolTokenHeld()": "7a8faeb8",
    "protocolTokenPaid()": "2f470764",
    "removeDefaultPathConversion(address,address)": "dfdddc99",
    "rolloverBaseReward()": "574442cc",
    "rolloverFlexFeePercent()": "959083d3",
    "setAffiliateFeePercent(uint256)": "d21f8e24",
    "setAffiliateTradingTokenFeePercent(uint256)": "a32bb683",
    "setBorrowingFeePercent(uint256)": "17f8b788",
    "setBorrowingFeeTokensHeld(address,uint256)": "3e526e6b",
    "setDefaultPathConversion(address[])": "d7480e21",
    "setFeesController(address)": "e8997dbd",
    "setLendingFeePercent(uint256)": "d238db22",
    "setLendingFeeTokensHeld(address,uint256)": "c6ce7e40",
    "setLiquidationIncentivePercent(uint256)": "a2ab1ba1",
    "setLoanPool(address[],address[])": "59e49e0f",
    "setLockedSOVAddress(address)": "4dd053a5",
    "setMaxDisagreement(uint256)": "7fb202e5",
    "setMaxSwapSize(uint256)": "355a395f",
    "setMinReferralsToPayoutAffiliates(uint256)": "c7c333f0",
    "setPriceFeedContract(address)": "74626404",
    "setProtocolTokenAddress(address)": "e3ff9370",
    "setRebatePercent(uint256)": "9c53874f",
    "setRolloverBaseReward(uint256)": "b1558b72",
    "setRolloverFlexFeePercent(uint256)": "f695379a",
    "setSOVTokenAddress(address)": "6fbae33b",
    "setSourceBuffer(uint256)": "a6e7cc28",
    "setSovrynProtocolAddress(address)": "9254e6bf",
    "setSovrynSwapContractRegistryAddress(address)": "2d77d0d0",
    "setSpecialRebates(address,address,uint256)": "ea0e3930",
    "setSupportedTokens(address[],bool[])": "84eaa9e0",
    "setSwapExternalFeePercent(uint256)": "29f9986d",
    "setSwapsImplContract(address)": "1a81c191",
    "setTradingFeePercent(uint256)": "0c615ee9",
    "setTradingFeeTokensHeld(address,uint256)": "e4a47a02",
    "setTradingRebateRewardsBasisPoint(uint256)": "a1eb5683",
    "setWrbtcToken(address)": "d9eaaa64",
    "sourceBuffer()": "f0e085f5",
    "sovTokenAddress()": "b9cffa3e",
    "sovrynSwapContractRegistryAddress()": "ba4861e9",
    "specialRebates(address,address)": "cd5d808d",
    "supportedTokens(address)": "68c4ac26",
    "swapsImpl()": "7420ca3e",
    "togglePaused(bool)": "da541e09",
    "tradingFeePercent()": "2a324027",
    "tradingFeeTokensHeld(address)": "d485045e",
    "tradingFeeTokensPaid(address)": "3452d2d4",
    "transferOwnership(address)": "f2fde38b",
    "underlyingToLoanPool(address)": "218b39c6",
    "userNotFirstTradeFlag(address)": "24cc5749",
    "withdrawBorrowingFees(address,address,uint256)": "32e4706f",
    "withdrawFees(address[],address)": "f7e7aab0",
    "withdrawLendingFees(address,address,uint256)": "b1ac89ca",
    "withdrawProtocolToken(address,uint256)": "96881857",
    "withdrawTradingFees(address,address,uint256)": "74326e8f",
    "wrbtcToken()": "afe84009"
  },
  "id": 145
}