{
  "abi": [
    {
      "constant": true,
      "inputs": [],
      "name": "blockNum",
      "outputs": [
        {
          "internalType": "uint256",
          "name": "",
          "type": "uint256"
        }
      ],
      "payable": false,
      "stateMutability": "view",
      "type": "function"
    },
    {
      "constant": true,
      "inputs": [],
      "name": "getBlockNum",
      "outputs": [
        {
          "internalType": "uint256",
          "name": "_blockNum",
          "type": "uint256"
        }
      ],
      "payable": false,
      "stateMutability": "view",
      "type": "function"
    },
    {
      "constant": false,
      "inputs": [
        {
          "internalType": "uint256",
          "name": "_blockNum",
          "type": "uint256"
        }
      ],
      "name": "setBlockNum",
      "outputs": [],
      "payable": false,
      "stateMutability": "nonpayable",
      "type": "function"
    }
  ],
  "bytecode": {
    "object": "0x608060405234801561001057600080fd5b5060c18061001f6000396000f3fe6080604052348015600f57600080fd5b5060043610603c5760003560e01c80632bdd22901460415780637f6c6f1014605d5780638ae63d6d146075575b600080fd5b605b60048036036020811015605557600080fd5b5035607b565b005b60636080565b60408051918252519081900360200190f35b60636086565b600055565b60005490565b6000548156fea265627a7a7231582066facd165affbb0888461885935e5510a5df08b1717bd3a2d48ee04e586dda5e64736f6c63430005110032",
    "linkReferences": {}
  },
  "methodIdentifiers": {
    "blockNum()": "8ae63d6d",
    "getBlockNum()": "7f6c6f10",
    "setBlockNum(uint256)": "2bdd2290"
  },
  "id": 129
}