{
  "abi": [
    {
      "anonymous": false,
      "inputs": [
        {
          "indexed": true,
          "internalType": "address",
          "name": "previousOwner",
          "type": "address"
        },
        {
          "indexed": true,
          "internalType": "address",
          "name": "newOwner",
          "type": "address"
        }
      ],
      "name": "OwnershipTransferred",
      "type": "event"
    },
    {
      "constant": true,
      "inputs": [],
      "name": "DELEGATION_TYPEHASH",
      "outputs": [
        {
          "internalType": "bytes32",
          "name": "",
          "type": "bytes32"
        }
      ],
      "payable": false,
      "stateMutability": "view",
      "type": "function"
    },
    {
      "constant": true,
      "inputs": [],
      "name": "DOMAIN_TYPEHASH",
      "outputs": [
        {
          "internalType": "bytes32",
          "name": "",
          "type": "bytes32"
        }
      ],
      "payable": false,
      "stateMutability": "view",
      "type": "function"
    },
    {
      "constant": true,
      "inputs": [],
      "name": "MAX_DURATION",
      "outputs": [
        {
          "internalType": "uint256",
          "name": "",
          "type": "uint256"
        }
      ],
      "payable": false,
      "stateMutability": "view",
      "type": "function"
    },
    {
      "constant": true,
      "inputs": [],
      "name": "MAX_VOTING_WEIGHT",
      "outputs": [
        {
          "internalType": "uint96",
          "name": "",
          "type": "uint96"
        }
      ],
      "payable": false,
      "stateMutability": "view",
      "type": "function"
    },
    {
      "constant": true,
      "inputs": [],
      "name": "SOVToken",
      "outputs": [
        {
          "internalType": "contract IERC20",
          "name": "",
          "type": "address"
        }
      ],
      "payable": false,
      "stateMutability": "view",
      "type": "function"
    },
    {
      "constant": true,
      "inputs": [],
      "name": "WEIGHT_FACTOR",
      "outputs": [
        {
          "internalType": "uint96",
          "name": "",
          "type": "uint96"
        }
      ],
      "payable": false,
      "stateMutability": "view",
      "type": "function"
    },
    {
      "constant": true,
      "inputs": [
        {
          "internalType": "address",
          "name": "",
          "type": "address"
        }
      ],
      "name": "admins",
      "outputs": [
        {
          "internalType": "bool",
          "name": "",
          "type": "bool"
        }
      ],
      "payable": false,
      "stateMutability": "view",
      "type": "function"
    },
    {
      "constant": true,
      "inputs": [],
      "name": "allUnlocked",
      "outputs": [
        {
          "internalType": "bool",
          "name": "",
          "type": "bool"
        }
      ],
      "payable": false,
      "stateMutability": "view",
      "type": "function"
    },
    {
      "constant": true,
      "inputs": [
        {
          "internalType": "address",
          "name": "",
          "type": "address"
        },
        {
          "internalType": "uint256",
          "name": "",
          "type": "uint256"
        },
        {
          "internalType": "uint32",
          "name": "",
          "type": "uint32"
        }
      ],
      "name": "delegateStakingCheckpoints",
      "outputs": [
        {
          "internalType": "uint32",
          "name": "fromBlock",
          "type": "uint32"
        },
        {
          "internalType": "uint96",
          "name": "stake",
          "type": "uint96"
        }
      ],
      "payable": false,
      "stateMutability": "view",
      "type": "function"
    },
    {
      "constant": true,
      "inputs": [
        {
          "internalType": "address",
          "name": "",
          "type": "address"
        },
        {
          "internalType": "uint256",
          "name": "",
          "type": "uint256"
        }
      ],
      "name": "delegates",
      "outputs": [
        {
          "internalType": "address",
          "name": "",
          "type": "address"
        }
      ],
      "payable": false,
      "stateMutability": "view",
      "type": "function"
    },
    {
      "constant": true,
      "inputs": [],
      "name": "feeSharing",
      "outputs": [
        {
          "internalType": "contract IFeeSharingCollector",
          "name": "",
          "type": "address"
        }
      ],
      "payable": false,
      "stateMutability": "view",
      "type": "function"
    },
    {
      "constant": true,
      "inputs": [],
      "name": "frozen",
      "outputs": [
        {
          "internalType": "bool",
          "name": "",
          "type": "bool"
        }
      ],
      "payable": false,
      "stateMutability": "view",
      "type": "function"
    },
    {
      "constant": true,
      "inputs": [],
      "name": "getFunctionsList",
      "outputs": [
        {
          "internalType": "bytes4[]",
          "name": "",
          "type": "bytes4[]"
        }
      ],
      "payable": false,
      "stateMutability": "pure",
      "type": "function"
    },
    {
      "constant": true,
      "inputs": [],
      "name": "getMaxVestingWithdrawIterations",
      "outputs": [
        {
          "internalType": "uint256",
          "name": "",
          "type": "uint256"
        }
      ],
      "payable": false,
      "stateMutability": "view",
      "type": "function"
    },
    {
      "constant": true,
      "inputs": [],
      "name": "getStorageDefaulWeightScaling",
      "outputs": [
        {
          "internalType": "uint256",
          "name": "",
          "type": "uint256"
        }
      ],
      "payable": false,
      "stateMutability": "pure",
      "type": "function"
    },
    {
      "constant": true,
      "inputs": [],
      "name": "getStorageDefaultWeightScaling",
      "outputs": [
        {
          "internalType": "uint256",
          "name": "",
          "type": "uint256"
        }
      ],
      "payable": false,
      "stateMutability": "pure",
      "type": "function"
    },
    {
      "constant": true,
      "inputs": [],
      "name": "getStorageDelegationTypehash",
      "outputs": [
        {
          "internalType": "uint256",
          "name": "",
          "type": "uint256"
        }
      ],
      "payable": false,
      "stateMutability": "pure",
      "type": "function"
    },
    {
      "constant": true,
      "inputs": [],
      "name": "getStorageDomainTypehash",
      "outputs": [
        {
          "internalType": "uint256",
          "name": "",
          "type": "uint256"
        }
      ],
      "payable": false,
      "stateMutability": "pure",
      "type": "function"
    },
    {
      "constant": true,
      "inputs": [],
      "name": "getStorageMaxDurationToStakeTokens",
      "outputs": [
        {
          "internalType": "uint256",
          "name": "",
          "type": "uint256"
        }
      ],
      "payable": false,
      "stateMutability": "pure",
      "type": "function"
    },
    {
      "constant": true,
      "inputs": [],
      "name": "getStorageMaxVotingWeight",
      "outputs": [
        {
          "internalType": "uint256",
          "name": "",
          "type": "uint256"
        }
      ],
      "payable": false,
      "stateMutability": "pure",
      "type": "function"
    },
    {
      "constant": true,
      "inputs": [],
      "name": "getStorageName",
      "outputs": [
        {
          "internalType": "string",
          "name": "",
          "type": "string"
        }
      ],
      "payable": false,
      "stateMutability": "view",
      "type": "function"
    },
    {
      "constant": true,
      "inputs": [],
      "name": "getStorageRangeForWeightScaling",
      "outputs": [
        {
          "internalType": "uint256",
          "name": "minWeightScaling",
          "type": "uint256"
        },
        {
          "internalType": "uint256",
          "name": "maxWeightScaling",
          "type": "uint256"
        }
      ],
      "payable": false,
      "stateMutability": "pure",
      "type": "function"
    },
    {
      "constant": true,
      "inputs": [],
      "name": "getStorageWeightFactor",
      "outputs": [
        {
          "internalType": "uint256",
          "name": "",
          "type": "uint256"
        }
      ],
      "payable": false,
      "stateMutability": "pure",
      "type": "function"
    },
    {
      "constant": true,
      "inputs": [],
      "name": "isOwner",
      "outputs": [
        {
          "internalType": "bool",
          "name": "",
          "type": "bool"
        }
      ],
      "payable": false,
      "stateMutability": "view",
      "type": "function"
    },
    {
      "constant": true,
      "inputs": [],
      "name": "kickoffTS",
      "outputs": [
        {
          "internalType": "uint256",
          "name": "",
          "type": "uint256"
        }
      ],
      "payable": false,
      "stateMutability": "view",
      "type": "function"
    },
    {
      "constant": true,
      "inputs": [],
      "name": "newStakingContract",
      "outputs": [
        {
          "internalType": "address",
          "name": "",
          "type": "address"
        }
      ],
      "payable": false,
      "stateMutability": "view",
      "type": "function"
    },
    {
      "constant": true,
      "inputs": [
        {
          "internalType": "address",
          "name": "",
          "type": "address"
        }
      ],
      "name": "nonces",
      "outputs": [
        {
          "internalType": "uint256",
          "name": "",
          "type": "uint256"
        }
      ],
      "payable": false,
      "stateMutability": "view",
      "type": "function"
    },
    {
      "constant": true,
      "inputs": [
        {
          "internalType": "address",
          "name": "",
          "type": "address"
        },
        {
          "internalType": "uint256",
          "name": "",
          "type": "uint256"
        }
      ],
      "name": "numDelegateStakingCheckpoints",
      "outputs": [
        {
          "internalType": "uint32",
          "name": "",
          "type": "uint32"
        }
      ],
      "payable": false,
      "stateMutability": "view",
      "type": "function"
    },
    {
      "constant": true,
      "inputs": [
        {
          "internalType": "uint256",
          "name": "",
          "type": "uint256"
        }
      ],
      "name": "numTotalStakingCheckpoints",
      "outputs": [
        {
          "internalType": "uint32",
          "name": "",
          "type": "uint32"
        }
      ],
      "payable": false,
      "stateMutability": "view",
      "type": "function"
    },
    {
      "constant": true,
      "inputs": [
        {
          "internalType": "address",
          "name": "",
          "type": "address"
        },
        {
          "internalType": "uint256",
          "name": "",
          "type": "uint256"
        }
      ],
      "name": "numUserStakingCheckpoints",
      "outputs": [
        {
          "internalType": "uint32",
          "name": "",
          "type": "uint32"
        }
      ],
      "payable": false,
      "stateMutability": "view",
      "type": "function"
    },
    {
      "constant": true,
      "inputs": [
        {
          "internalType": "uint256",
          "name": "",
          "type": "uint256"
        }
      ],
      "name": "numVestingCheckpoints",
      "outputs": [
        {
          "internalType": "uint32",
          "name": "",
          "type": "uint32"
        }
      ],
      "payable": false,
      "stateMutability": "view",
      "type": "function"
    },
    {
      "constant": true,
      "inputs": [],
      "name": "owner",
      "outputs": [
        {
          "internalType": "address",
          "name": "",
          "type": "address"
        }
      ],
      "payable": false,
      "stateMutability": "view",
      "type": "function"
    },
    {
      "constant": true,
      "inputs": [],
      "name": "paused",
      "outputs": [
        {
          "internalType": "bool",
          "name": "",
          "type": "bool"
        }
      ],
      "payable": false,
      "stateMutability": "view",
      "type": "function"
    },
    {
      "constant": true,
      "inputs": [
        {
          "internalType": "address",
          "name": "",
          "type": "address"
        }
      ],
      "name": "pausers",
      "outputs": [
        {
          "internalType": "bool",
          "name": "",
          "type": "bool"
        }
      ],
      "payable": false,
      "stateMutability": "view",
      "type": "function"
    },
    {
      "constant": true,
      "inputs": [
        {
          "internalType": "uint256",
          "name": "",
          "type": "uint256"
        },
        {
          "internalType": "uint32",
          "name": "",
          "type": "uint32"
        }
      ],
      "name": "totalStakingCheckpoints",
      "outputs": [
        {
          "internalType": "uint32",
          "name": "fromBlock",
          "type": "uint32"
        },
        {
          "internalType": "uint96",
          "name": "stake",
          "type": "uint96"
        }
      ],
      "payable": false,
      "stateMutability": "view",
      "type": "function"
    },
    {
      "constant": false,
      "inputs": [
        {
          "internalType": "address",
          "name": "newOwner",
          "type": "address"
        }
      ],
      "name": "transferOwnership",
      "outputs": [],
      "payable": false,
      "stateMutability": "nonpayable",
      "type": "function"
    },
    {
      "constant": true,
      "inputs": [
        {
          "internalType": "address",
          "name": "",
          "type": "address"
        },
        {
          "internalType": "uint256",
          "name": "",
          "type": "uint256"
        },
        {
          "internalType": "uint32",
          "name": "",
          "type": "uint32"
        }
      ],
      "name": "userStakingCheckpoints",
      "outputs": [
        {
          "internalType": "uint32",
          "name": "fromBlock",
          "type": "uint32"
        },
        {
          "internalType": "uint96",
          "name": "stake",
          "type": "uint96"
        }
      ],
      "payable": false,
      "stateMutability": "view",
      "type": "function"
    },
    {
      "constant": true,
      "inputs": [
        {
          "internalType": "uint256",
          "name": "",
          "type": "uint256"
        },
        {
          "internalType": "uint32",
          "name": "",
          "type": "uint32"
        }
      ],
      "name": "vestingCheckpoints",
      "outputs": [
        {
          "internalType": "uint32",
          "name": "fromBlock",
          "type": "uint32"
        },
        {
          "internalType": "uint96",
          "name": "stake",
          "type": "uint96"
        }
      ],
      "payable": false,
      "stateMutability": "view",
      "type": "function"
    },
    {
      "constant": true,
      "inputs": [
        {
          "internalType": "bytes32",
          "name": "",
          "type": "bytes32"
        }
      ],
      "name": "vestingCodeHashes",
      "outputs": [
        {
          "internalType": "bool",
          "name": "",
          "type": "bool"
        }
      ],
      "payable": false,
      "stateMutability": "view",
      "type": "function"
    },
    {
      "constant": true,
      "inputs": [],
      "name": "vestingRegistryLogic",
      "outputs": [
        {
          "internalType": "contract IVestingRegistry",
          "name": "",
          "type": "address"
        }
      ],
      "payable": false,
      "stateMutability": "view",
      "type": "function"
    },
    {
      "constant": true,
      "inputs": [
        {
          "internalType": "address",
          "name": "",
          "type": "address"
        }
      ],
      "name": "vestingWhitelist",
      "outputs": [
        {
          "internalType": "bool",
          "name": "",
          "type": "bool"
        }
      ],
      "payable": false,
      "stateMutability": "view",
      "type": "function"
    },
    {
      "constant": true,
      "inputs": [],
      "name": "weightScaling",
      "outputs": [
        {
          "internalType": "uint96",
          "name": "",
          "type": "uint96"
        }
      ],
      "payable": false,
      "stateMutability": "view",
      "type": "function"
    }
  ],
  "bytecode": {
    "object": "0x60c0604052600a608081905269534f565374616b696e6760b01b60a09081526200002d9160029190620000ae565b506005805460ff19169055600d80546001600160a01b0316600360a01b179055600062000059620000a9565b600080546001600160a01b0319166001600160a01b0383169081178255604051929350917f8be0079c531659141344cd1fd0a4f28419497f9722a3daafe3b4186f6b6457e0908290a35062000150565b335b90565b828054600181600116156101000203166002900490600052602060002090601f016020900481019282601f10620000f157805160ff191683800117855562000121565b8280016001018555821562000121579182015b828111156200012157825182559160200191906001019062000104565b506200012f92915062000133565b5090565b620000ab91905b808211156200012f57600081556001016200013a565b6114d780620001606000396000f3fe608060405234801561001057600080fd5b506004361061025d5760003560e01c80639436e7d411610146578063bf626ec1116100c3578063dfb267c211610087578063dfb267c214610493578063e7a324dc146104a6578063ec8e0b29146104ae578063f2fde38b146104b6578063f3f19731146104cb578063f93fc2af146103895761025d565b8063bf626ec114610453578063d27569e71461045b578063d8ad326d14610463578063d8fc90e814610478578063db27ec18146104805761025d565b8063a9d3ad1c1161010a578063a9d3ad1c14610415578063adae90021461041d578063ae81dfe414610430578063b1724b4614610438578063bb533cf2146104405761025d565b80639436e7d4146103ca57806394c2ce58146103ea5780639929e886146103fd5780639e5ff1eb14610405578063a58848c51461040d5761025d565b8063332647b6116101df5780637ecebe00116101a35780637ecebe0014610376578063805c49f31461038957806380f51c12146103915780638cdf855f146103a45780638da5cb5b146103ba5780638f32d59b146103c25761025d565b8063332647b61461031f578063429b62e5146103275780635c975abb1461033a57806368cefccc146103425780636b6fde0e146103635761025d565b8063104932cf11610226578063104932cf146102c557806317748adc146102cd5780631ca6cbeb146102e257806320606b70146102f757806327dd1b00146102ff5761025d565b8062073f991461026257806303a18fa314610280578063048c958814610295578063054f7d9c1461029d57806307392cc0146102b2575b600080fd5b61026a6104de565b6040516102779190611331565b60405180910390f35b6102886104e4565b604051610277919061133f565b61026a6104f3565b6102a56104f8565b6040516102779190611323565b6102a56102c0366004611061565b610506565b61028861051b565b6102d561052a565b60405161027791906113c2565b6102ea61052f565b604051610277919061134d565b61026a6105c2565b61031261030d366004610fda565b6105d9565b60405161027791906112fd565b61026a6105ff565b6102a5610335366004610fb4565b61061b565b6102a5610630565b610355610350366004611014565b610639565b6040516102779291906113a7565b610355610371366004611014565b610675565b61026a610384366004610fb4565b6106b1565b61026a6106c3565b6102a561039f366004610fb4565b6106c8565b6103ac6106dd565b60405161027792919061137e565b6103126106e5565b6102a56106f4565b6103dd6103d8366004611061565b610718565b6040516102779190611399565b6103dd6103f8366004610fda565b610730565b6102a5610753565b61026a61075c565b610288610764565b61026a610773565b6102a561042b366004610fb4565b610781565b610312610796565b61026a6107aa565b6103dd61044e366004611061565b6107b2565b6102d56107ca565b6102d56107e0565b61046b6107e5565b604051610277919061130b565b61026a610e29565b6103dd61048e366004610fda565b610e2e565b6103556104a136600461107f565b610e51565b61026a610e87565b61026a610e93565b6104c96104c4366004610fb4565b610e99565b005b6103556104d936600461107f565b610ed2565b60015481565b600d546001600160a01b031681565b600a90565b601554610100900460ff1681565b60106020526000908152604090205460ff1681565b6013546001600160a01b031681565b600981565b60028054604080516020601f60001961010060018716150201909416859004938401819004810282018101909252828152606093909290918301828280156105b85780601f1061058d576101008083540402835291602001916105b8565b820191906000526020600020905b81548152906001019060200180831161059b57829003601f168201915b5050505050905090565b6040516105ce906112e7565b604051809103902081565b60046020908152600092835260408084209091529082529020546001600160a01b031681565b600060405161060d906112f2565b604051908190039020905090565b600f6020526000908152604090205460ff1681565b60155460ff1681565b600a60209081526000938452604080852082529284528284209052825290205463ffffffff81169064010000000090046001600160601b031682565b600860209081526000938452604080852082529284528284209052825290205463ffffffff81169064010000000090046001600160601b031682565b600c6020526000908152604090205481565b600390565b60146020526000908152604090205460ff1681565b600160099091565b6000546001600160a01b031690565b600080546001600160a01b0316610709610f08565b6001600160a01b031614905090565b60076020526000908152604090205463ffffffff1681565b600960209081526000928352604080842090915290825290205463ffffffff1681565b60055460ff1681565b63059fa60090565b6003546001600160a01b031681565b600060405161060d906112e7565b600e6020526000908152604090205460ff1681565b60055461010090046001600160a01b031681565b63059fa60081565b60126020526000908152604090205463ffffffff1681565b600d54600160a01b90046001600160601b031681565b600a81565b604080516020808252610420820190925260609182919080820161040080388339019050509050639e5ff1eb60e01b8160008151811061082157fe5b6001600160e01b0319909216602092830291909101909101528051631b1f921d60e31b908290600190811061085257fe5b6001600160e01b0319909216602092830291909101909101528051629192b160e31b908290600290811061088257fe5b6001600160e01b031990921660209283029190910190910152805163f93fc2af60e01b90829060039081106108b357fe5b6001600160e01b0319909216602092830291909101909101528051638cdf855f60e01b90829060049081106108e457fe5b6001600160e01b0319909216602092830291909101909101528051632a74eb4760e21b908290600590811061091557fe5b6001600160e01b031990921660209283029190910190910152805163199323db60e11b908290600690811061094657fe5b6001600160e01b0319909216602092830291909101909101528051631ca6cbeb60e01b908290600790811061097757fe5b6001600160e01b031990921660209283029190910190910152805162073f9960e01b90829060089081106109a757fe5b6001600160e01b031990921660209283029190910190910152805163a58848c560e01b90829060099081106109d857fe5b6001600160e01b03199092166020928302919091019091015280516227dd1b60e81b908290600a908110610a0857fe5b6001600160e01b0319909216602092830291909101909101528051634c94f44360e11b908290600b908110610a3957fe5b6001600160e01b0319909216602092830291909101909101528051632ba077f960e21b908290600c908110610a6a57fe5b6001600160e01b0319909216602092830291909101909101528051636fd933e160e11b908290600d908110610a9b57fe5b6001600160e01b031990921660209283029190910190910152805163250db9f560e21b908290600e908110610acc57fe5b6001600160e01b03199092166020928302919091019091015280516335b7ef0760e11b908290600f908110610afd57fe5b6001600160e01b031990921660209283029190910190910152805163129859cb60e31b9082906010908110610b2e57fe5b6001600160e01b0319909216602092830291909101909101528051631a33bf3360e21b9082906011908110610b5f57fe5b6001600160e01b0319909216602092830291909101909101528051631b64fd8360e31b9082906012908110610b9057fe5b6001600160e01b0319909216602092830291909101909101528051623f675f60e91b9082906013908110610bc057fe5b6001600160e01b03199092166020928302919091019091015280516303a18fa360e01b9082906014908110610bf157fe5b6001600160e01b031990921660209283029190910190910152805163bf626ec160e01b9082906015908110610c2257fe5b6001600160e01b03199092166020928302919091019091015280516356d7480160e11b9082906016908110610c5357fe5b6001600160e01b031990921660209283029190910190910152805163429b62e560e01b9082906017908110610c8457fe5b6001600160e01b0319909216602092830291909101909101528051621ce4b360e61b9082906018908110610cb457fe5b6001600160e01b031990921660209283029190910190910152805163f3f1973160e01b9082906019908110610ce557fe5b6001600160e01b0319909216602092830291909101909101528051635da99e7960e11b908290601a908110610d1657fe5b6001600160e01b031990921660209283029190910190910152805163104932cf60e01b908290601b908110610d4757fe5b6001600160e01b031990921660209283029190910190910152805163407a8e0960e11b908290601c908110610d7857fe5b6001600160e01b0319909216602092830291909101909101528051635c975abb60e01b908290601d908110610da957fe5b6001600160e01b0319909216602092830291909101909101528051630153df6760e21b908290601e908110610dda57fe5b6001600160e01b031990921660209283029190910190910152805163ec8e0b2960e01b908290601f908110610e0b57fe5b6001600160e01b031990921660209283029190910190910152905090565b600990565b600b60209081526000928352604080842090915290825290205463ffffffff1681565b600660209081526000928352604080842090915290825290205463ffffffff81169064010000000090046001600160601b031682565b6040516105ce906112f2565b60165490565b610ea16106f4565b610ec65760405162461bcd60e51b8152600401610ebd9061136e565b60405180910390fd5b610ecf81610f0c565b50565b601160209081526000928352604080842090915290825290205463ffffffff81169064010000000090046001600160601b031682565b3390565b6001600160a01b038116610f325760405162461bcd60e51b8152600401610ebd9061135e565b600080546040516001600160a01b03808516939216917f8be0079c531659141344cd1fd0a4f28419497f9722a3daafe3b4186f6b6457e091a3600080546001600160a01b0319166001600160a01b0392909216919091179055565b8035610f988161146e565b92915050565b8035610f9881611482565b8035610f988161148b565b600060208284031215610fc657600080fd5b6000610fd28484610f8d565b949350505050565b60008060408385031215610fed57600080fd5b6000610ff98585610f8d565b925050602061100a85828601610f9e565b9150509250929050565b60008060006060848603121561102957600080fd5b60006110358686610f8d565b935050602061104686828701610f9e565b925050604061105786828701610fa9565b9150509250925092565b60006020828403121561107357600080fd5b6000610fd28484610f9e565b6000806040838503121561109257600080fd5b600061109e8585610f9e565b925050602061100a85828601610fa9565b60006110bb838361113d565b505060200190565b6110cc816113e8565b82525050565b60006110dd826113d6565b6110e781856113da565b93506110f2836113d0565b8060005b8381101561112057815161110a88826110af565b9750611115836113d0565b9250506001016110f6565b509495945050505050565b6110cc816113f3565b6110cc816113f8565b6110cc816113fb565b6110cc81611429565b600061115a826113d6565b61116481856113da565b9350611174818560208601611434565b61117d81611464565b9093019392505050565b60006111946026836113da565b7f4f776e61626c653a206e6577206f776e657220697320746865207a65726f206181526564647265737360d01b602082015260400192915050565b60006111dc6043836113e3565b7f454950373132446f6d61696e28737472696e67206e616d652c75696e7432353681527f20636861696e49642c6164647265737320766572696679696e67436f6e74726160208201526263742960e81b604082015260430192915050565b6000611247600c836113da565b6b1d5b985d5d1a1bdc9a5e995960a21b815260200192915050565b600061126f604b836113e3565b7f44656c65676174696f6e28616464726573732064656c6567617465652c75696e81527f74323536206c6f636b446174652c75696e74323536206e6f6e63652c75696e7460208201526a323536206578706972792960a81b6040820152604b0192915050565b6110cc81611414565b6110cc8161141d565b6000610f98826111cf565b6000610f9882611262565b60208101610f9882846110c3565b6020808252810161131c81846110d2565b9392505050565b60208101610f98828461112b565b60208101610f988284611134565b60208101610f988284611146565b6020808252810161131c818461114f565b60208082528101610f9881611187565b60208082528101610f988161123a565b6040810161138c8285611134565b61131c6020830184611134565b60208101610f9882846112d5565b604081016113b582856112d5565b61131c60208301846112de565b60208101610f9882846112de565b60200190565b5190565b90815260200190565b919050565b6000610f9882611408565b151590565b90565b6001600160e01b03191690565b6001600160a01b031690565b63ffffffff1690565b6001600160601b031690565b6000610f98826113e8565b60005b8381101561144f578181015183820152602001611437565b8381111561145e576000848401525b50505050565b601f01601f191690565b611477816113e8565b8114610ecf57600080fd5b611477816113f8565b6114778161141456fea365627a7a723158200ccfbc98b826730f8863a1217b99a40dd284350dc9ffd0afe756b04e275ce3456c6578706572696d656e74616cf564736f6c63430005110040",
    "linkReferences": {}
  },
  "methodIdentifiers": {
    "DELEGATION_TYPEHASH()": "e7a324dc",
    "DOMAIN_TYPEHASH()": "20606b70",
    "MAX_DURATION()": "b1724b46",
    "MAX_VOTING_WEIGHT()": "17748adc",
    "SOVToken()": "a58848c5",
    "WEIGHT_FACTOR()": "d27569e7",
    "admins(address)": "429b62e5",
    "allUnlocked()": "9929e886",
    "delegateStakingCheckpoints(address,uint256,uint32)": "6b6fde0e",
    "delegates(address,uint256)": "27dd1b00",
    "feeSharing()": "03a18fa3",
    "frozen()": "054f7d9c",
    "getFunctionsList()": "d8ad326d",
    "getMaxVestingWithdrawIterations()": "ec8e0b29",
    "getStorageDefaulWeightScaling()": "f93fc2af",
    "getStorageDefaultWeightScaling()": "805c49f3",
    "getStorageDelegationTypehash()": "332647b6",
    "getStorageDomainTypehash()": "a9d3ad1c",
    "getStorageMaxDurationToStakeTokens()": "9e5ff1eb",
    "getStorageMaxVotingWeight()": "d8fc90e8",
    "getStorageName()": "1ca6cbeb",
    "getStorageRangeForWeightScaling()": "8cdf855f",
    "getStorageWeightFactor()": "048c9588",
    "isOwner()": "8f32d59b",
    "kickoffTS()": "00073f99",
    "newStakingContract()": "ae81dfe4",
    "nonces(address)": "7ecebe00",
    "numDelegateStakingCheckpoints(address,uint256)": "94c2ce58",
    "numTotalStakingCheckpoints(uint256)": "9436e7d4",
    "numUserStakingCheckpoints(address,uint256)": "db27ec18",
    "numVestingCheckpoints(uint256)": "bb533cf2",
    "owner()": "8da5cb5b",
    "paused()": "5c975abb",
    "pausers(address)": "80f51c12",
    "totalStakingCheckpoints(uint256,uint32)": "dfb267c2",
    "transferOwnership(address)": "f2fde38b",
    "userStakingCheckpoints(address,uint256,uint32)": "68cefccc",
    "vestingCheckpoints(uint256,uint32)": "f3f19731",
    "vestingCodeHashes(bytes32)": "07392cc0",
    "vestingRegistryLogic()": "104932cf",
    "vestingWhitelist(address)": "adae9002",
    "weightScaling()": "bf626ec1"
  },
  "id": 66
}