{
  "abi": [
    {
      "constant": false,
      "inputs": [
        {
          "internalType": "address",
          "name": "other",
          "type": "address"
        },
        {
          "internalType": "uint256",
          "name": "newValue",
          "type": "uint256"
        }
      ],
      "name": "setOtherContractValueNonReentrant",
      "outputs": [],
      "payable": false,
      "stateMutability": "nonpayable",
      "type": "function"
    },
    {
      "constant": false,
      "inputs": [
        {
          "internalType": "address",
          "name": "other",
          "type": "address"
        },
        {
          "internalType": "uint256",
          "name": "newValue",
          "type": "uint256"
        }
      ],
      "name": "setThisAndOtherContractValue",
      "outputs": [],
      "payable": false,
      "stateMutability": "nonpayable",
      "type": "function"
    },
    {
      "constant": false,
      "inputs": [
        {
          "internalType": "uint256",
          "name": "newValue",
          "type": "uint256"
        }
      ],
      "name": "setValue",
      "outputs": [],
      "payable": false,
      "stateMutability": "nonpayable",
      "type": "function"
    },
    {
      "constant": true,
      "inputs": [],
      "name": "value",
      "outputs": [
        {
          "internalType": "uint256",
          "name": "",
          "type": "uint256"
        }
      ],
      "payable": false,
      "stateMutability": "view",
      "type": "function"
    }
  ],
  "bytecode": {
    "object": "0x608060405234801561001057600080fd5b5061047c806100206000396000f3fe608060405234801561001057600080fd5b506004361061004c5760003560e01c806320b1c481146100515780633fa4f2451461007f578063552410771461009957806396d7062a146100b6575b600080fd5b61007d6004803603604081101561006757600080fd5b506001600160a01b0381351690602001356100e2565b005b61008761014d565b60408051918252519081900360200190f35b61007d600480360360208110156100af57600080fd5b5035610153565b61007d600480360360408110156100cc57600080fd5b506001600160a01b03813516906020013561029e565b6100eb81610153565b816001600160a01b03166355241077826040518263ffffffff1660e01b815260040180828152602001915050600060405180830381600087803b15801561013157600080fd5b505af1158015610145573d6000803e3d6000fd5b505050505050565b60005481565b600073ba10edd6abc7696eae685839217bdcc42139612b6001600160a01b031663ed04e1c36040518163ffffffff1660e01b8152600401602060405180830381600087803b1580156101a457600080fd5b505af11580156101b8573d6000803e3d6000fd5b505050506040513d60208110156101ce57600080fd5b5051600083905560408051633fa4f24560e01b8152905191925073ba10edd6abc7696eae685839217bdcc42139612b91633fa4f24591600480820192602092909190829003018186803b15801561022457600080fd5b505afa158015610238573d6000803e3d6000fd5b505050506040513d602081101561024e57600080fd5b5051811461029a576040805162461bcd60e51b81526020600482015260146024820152733932b2b73a3930b731bc903b34b7b630ba34b7b760611b604482015290519081900360640190fd5b5050565b600073ba10edd6abc7696eae685839217bdcc42139612b6001600160a01b031663ed04e1c36040518163ffffffff1660e01b8152600401602060405180830381600087803b1580156102ef57600080fd5b505af1158015610303573d6000803e3d6000fd5b505050506040513d602081101561031957600080fd5b505160408051635524107760e01b81526004810185905290519192506001600160a01b0385169163552410779160248082019260009290919082900301818387803b15801561036757600080fd5b505af115801561037b573d6000803e3d6000fd5b5050505073ba10edd6abc7696eae685839217bdcc42139612b6001600160a01b0316633fa4f2456040518163ffffffff1660e01b815260040160206040518083038186803b1580156103cc57600080fd5b505afa1580156103e0573d6000803e3d6000fd5b505050506040513d60208110156103f657600080fd5b50518114610442576040805162461bcd60e51b81526020600482015260146024820152733932b2b73a3930b731bc903b34b7b630ba34b7b760611b604482015290519081900360640190fd5b50505056fea265627a7a72315820b6b787c69495386dd0222ebf512c3ed9a590d6295abcbdc7e513b94e37eaf00d64736f6c63430005110032",
    "linkReferences": {}
  },
  "methodIdentifiers": {
    "setOtherContractValueNonReentrant(address,uint256)": "96d7062a",
    "setThisAndOtherContractValue(address,uint256)": "20b1c481",
    "setValue(uint256)": "55241077",
    "value()": "3fa4f245"
  },
  "id": 219
}