{
  "address": "0x99f58e20fb82b6cdf82b9f1f840198bf8a139d5b",
  "abi": [
    {
      "inputs": [
        {
          "internalType": "address",
          "name": "_permit2",
          "type": "address"
        }
      ],
      "stateMutability": "nonpayable",
      "type": "constructor"
    },
    {
      "anonymous": false,
      "inputs": [
        {
          "indexed": false,
          "internalType": "address",
          "name": "_activePoolAddress",
          "type": "address"
        }
      ],
      "name": "ActivePoolAddressChanged",
      "type": "event"
    },
    {
      "anonymous": false,
      "inputs": [
        {
          "indexed": false,
          "internalType": "address",
          "name": "_collSurplusPoolAddress",
          "type": "address"
        }
      ],
      "name": "CollSurplusPoolAddressChanged",
      "type": "event"
    },
    {
      "anonymous": false,
      "inputs": [
        {
          "indexed": false,
          "internalType": "address",
          "name": "_defaultPoolAddress",
          "type": "address"
        }
      ],
      "name": "DefaultPoolAddressChanged",
      "type": "event"
    },
    {
      "anonymous": false,
      "inputs": [
        {
          "indexed": false,
          "internalType": "address",
          "name": "_feeDistributorAddress",
          "type": "address"
        }
      ],
      "name": "FeeDistributorAddressChanged",
      "type": "event"
    },
    {
      "anonymous": false,
      "inputs": [
        {
          "indexed": false,
          "internalType": "address",
          "name": "_gasPoolAddress",
          "type": "address"
        }
      ],
      "name": "GasPoolAddressChanged",
      "type": "event"
    },
    {
      "anonymous": false,
      "inputs": [
        {
          "indexed": false,
          "internalType": "address",
          "name": "_massetManagerAddress",
          "type": "address"
        }
      ],
      "name": "MassetManagerAddressChanged",
      "type": "event"
    },
    {
      "anonymous": false,
      "inputs": [
        {
          "indexed": true,
          "internalType": "address",
          "name": "previousOwner",
          "type": "address"
        },
        {
          "indexed": true,
          "internalType": "address",
          "name": "newOwner",
          "type": "address"
        }
      ],
      "name": "OwnershipTransferred",
      "type": "event"
    },
    {
      "anonymous": false,
      "inputs": [
        {
          "indexed": false,
          "internalType": "address",
          "name": "_newPriceFeedAddress",
          "type": "address"
        }
      ],
      "name": "PriceFeedAddressChanged",
      "type": "event"
    },
    {
      "anonymous": false,
      "inputs": [
        {
          "indexed": false,
          "internalType": "address",
          "name": "_sortedTrovesAddress",
          "type": "address"
        }
      ],
      "name": "SortedTrovesAddressChanged",
      "type": "event"
    },
    {
      "anonymous": false,
      "inputs": [
        {
          "indexed": false,
          "internalType": "address",
          "name": "_stabilityPoolAddress",
          "type": "address"
        }
      ],
      "name": "StabilityPoolAddressChanged",
      "type": "event"
    },
    {
      "anonymous": false,
      "inputs": [
        {
          "indexed": true,
          "internalType": "address",
          "name": "_borrower",
          "type": "address"
        },
        {
          "indexed": false,
          "internalType": "uint256",
          "name": "arrayIndex",
          "type": "uint256"
        }
      ],
      "name": "TroveCreated",
      "type": "event"
    },
    {
      "anonymous": false,
      "inputs": [
        {
          "indexed": false,
          "internalType": "address",
          "name": "_newTroveManagerAddress",
          "type": "address"
        }
      ],
      "name": "TroveManagerAddressChanged",
      "type": "event"
    },
    {
      "anonymous": false,
      "inputs": [
        {
          "indexed": true,
          "internalType": "address",
          "name": "_borrower",
          "type": "address"
        },
        {
          "indexed": false,
          "internalType": "uint256",
          "name": "_debt",
          "type": "uint256"
        },
        {
          "indexed": false,
          "internalType": "uint256",
          "name": "_coll",
          "type": "uint256"
        },
        {
          "indexed": false,
          "internalType": "uint256",
          "name": "stake",
          "type": "uint256"
        },
        {
          "indexed": false,
          "internalType": "enum BorrowerOperations.BorrowerOperation",
          "name": "operation",
          "type": "uint8"
        }
      ],
      "name": "TroveUpdated",
      "type": "event"
    },
    {
      "anonymous": false,
      "inputs": [
        {
          "indexed": false,
          "internalType": "address",
          "name": "_zeroStakingAddress",
          "type": "address"
        }
      ],
      "name": "ZEROStakingAddressChanged",
      "type": "event"
    },
    {
      "anonymous": false,
      "inputs": [
        {
          "indexed": true,
          "internalType": "address",
          "name": "_borrower",
          "type": "address"
        },
        {
          "indexed": false,
          "internalType": "uint256",
          "name": "_ZUSDFee",
          "type": "uint256"
        }
      ],
      "name": "ZUSDBorrowingFeePaid",
      "type": "event"
    },
    {
      "anonymous": false,
      "inputs": [
        {
          "indexed": false,
          "internalType": "address",
          "name": "_zusdTokenAddress",
          "type": "address"
        }
      ],
      "name": "ZUSDTokenAddressChanged",
      "type": "event"
    },
    {
      "inputs": [],
      "name": "BORROWING_FEE_FLOOR",
      "outputs": [
        {
          "internalType": "uint256",
          "name": "",
          "type": "uint256"
        }
      ],
      "stateMutability": "view",
      "type": "function"
    },
    {
      "inputs": [],
      "name": "DECIMAL_PRECISION",
      "outputs": [
        {
          "internalType": "uint256",
          "name": "",
          "type": "uint256"
        }
      ],
      "stateMutability": "view",
      "type": "function"
    },
    {
      "inputs": [],
      "name": "MIN_NET_DEBT",
      "outputs": [
        {
          "internalType": "uint256",
          "name": "",
          "type": "uint256"
        }
      ],
      "stateMutability": "view",
      "type": "function"
    },
    {
      "inputs": [],
      "name": "NAME",
      "outputs": [
        {
          "internalType": "string",
          "name": "",
          "type": "string"
        }
      ],
      "stateMutability": "view",
      "type": "function"
    },
    {
      "inputs": [],
      "name": "ZUSD_GAS_COMPENSATION",
      "outputs": [
        {
          "internalType": "uint256",
          "name": "",
          "type": "uint256"
        }
      ],
      "stateMutability": "view",
      "type": "function"
    },
    {
      "inputs": [],
      "name": "_100pct",
      "outputs": [
        {
          "internalType": "uint256",
          "name": "",
          "type": "uint256"
        }
      ],
      "stateMutability": "view",
      "type": "function"
    },
    {
      "inputs": [],
      "name": "activePool",
      "outputs": [
        {
          "internalType": "contract IActivePool",
          "name": "",
          "type": "address"
        }
      ],
      "stateMutability": "view",
      "type": "function"
    },
    {
      "inputs": [
        {
          "internalType": "address",
          "name": "_upperHint",
          "type": "address"
        },
        {
          "internalType": "address",
          "name": "_lowerHint",
          "type": "address"
        }
      ],
      "name": "addColl",
      "outputs": [],
      "stateMutability": "payable",
      "type": "function"
    },
    {
      "inputs": [
        {
          "internalType": "uint256",
          "name": "_maxFeePercentage",
          "type": "uint256"
        },
        {
          "internalType": "uint256",
          "name": "_collWithdrawal",
          "type": "uint256"
        },
        {
          "internalType": "uint256",
          "name": "_ZUSDChange",
          "type": "uint256"
        },
        {
          "internalType": "bool",
          "name": "_isDebtIncrease",
          "type": "bool"
        },
        {
          "internalType": "address",
          "name": "_upperHint",
          "type": "address"
        },
        {
          "internalType": "address",
          "name": "_lowerHint",
          "type": "address"
        },
        {
          "components": [
            {
              "internalType": "uint256",
              "name": "deadline",
              "type": "uint256"
            },
            {
              "internalType": "uint8",
              "name": "v",
              "type": "uint8"
            },
            {
              "internalType": "bytes32",
              "name": "r",
              "type": "bytes32"
            },
            {
              "internalType": "bytes32",
              "name": "s",
              "type": "bytes32"
            }
          ],
          "internalType": "struct IMassetManager.PermitParams",
          "name": "_permitParams",
          "type": "tuple"
        }
      ],
      "name": "adjustNueTrove",
      "outputs": [],
      "stateMutability": "payable",
      "type": "function"
    },
    {
      "inputs": [
        {
          "internalType": "uint256",
          "name": "_maxFeePercentage",
          "type": "uint256"
        },
        {
          "internalType": "uint256",
          "name": "_collWithdrawal",
          "type": "uint256"
        },
        {
          "internalType": "uint256",
          "name": "_ZUSDChange",
          "type": "uint256"
        },
        {
          "internalType": "bool",
          "name": "_isDebtIncrease",
          "type": "bool"
        },
        {
          "internalType": "address",
          "name": "_upperHint",
          "type": "address"
        },
        {
          "internalType": "address",
          "name": "_lowerHint",
          "type": "address"
        },
        {
          "components": [
            {
              "components": [
                {
                  "internalType": "address",
                  "name": "token",
                  "type": "address"
                },
                {
                  "internalType": "uint256",
                  "name": "amount",
                  "type": "uint256"
                }
              ],
              "internalType": "struct ISignatureTransfer.TokenPermissions",
              "name": "permitted",
              "type": "tuple"
            },
            {
              "internalType": "uint256",
              "name": "nonce",
              "type": "uint256"
            },
            {
              "internalType": "uint256",
              "name": "deadline",
              "type": "uint256"
            }
          ],
          "internalType": "struct ISignatureTransfer.PermitTransferFrom",
          "name": "_permit",
          "type": "tuple"
        },
        {
          "internalType": "bytes",
          "name": "_signature",
          "type": "bytes"
        }
      ],
      "name": "adjustNueTroveWithPermit2",
      "outputs": [],
      "stateMutability": "payable",
      "type": "function"
    },
    {
      "inputs": [
        {
          "internalType": "uint256",
          "name": "_maxFeePercentage",
          "type": "uint256"
        },
        {
          "internalType": "uint256",
          "name": "_collWithdrawal",
          "type": "uint256"
        },
        {
          "internalType": "uint256",
          "name": "_ZUSDChange",
          "type": "uint256"
        },
        {
          "internalType": "bool",
          "name": "_isDebtIncrease",
          "type": "bool"
        },
        {
          "internalType": "address",
          "name": "_upperHint",
          "type": "address"
        },
        {
          "internalType": "address",
          "name": "_lowerHint",
          "type": "address"
        }
      ],
      "name": "adjustTrove",
      "outputs": [],
      "stateMutability": "payable",
      "type": "function"
    },
    {
      "inputs": [],
      "name": "claimCollateral",
      "outputs": [],
      "stateMutability": "nonpayable",
      "type": "function"
    },
    {
      "inputs": [
        {
          "components": [
            {
              "internalType": "uint256",
              "name": "deadline",
              "type": "uint256"
            },
            {
              "internalType": "uint8",
              "name": "v",
              "type": "uint8"
            },
            {
              "internalType": "bytes32",
              "name": "r",
              "type": "bytes32"
            },
            {
              "internalType": "bytes32",
              "name": "s",
              "type": "bytes32"
            }
          ],
          "internalType": "struct IMassetManager.PermitParams",
          "name": "_permitParams",
          "type": "tuple"
        }
      ],
      "name": "closeNueTrove",
      "outputs": [],
      "stateMutability": "nonpayable",
      "type": "function"
    },
    {
      "inputs": [
        {
          "components": [
            {
              "components": [
                {
                  "internalType": "address",
                  "name": "token",
                  "type": "address"
                },
                {
                  "internalType": "uint256",
                  "name": "amount",
                  "type": "uint256"
                }
              ],
              "internalType": "struct ISignatureTransfer.TokenPermissions",
              "name": "permitted",
              "type": "tuple"
            },
            {
              "internalType": "uint256",
              "name": "nonce",
              "type": "uint256"
            },
            {
              "internalType": "uint256",
              "name": "deadline",
              "type": "uint256"
            }
          ],
          "internalType": "struct ISignatureTransfer.PermitTransferFrom",
          "name": "_permit",
          "type": "tuple"
        },
        {
          "internalType": "bytes",
          "name": "_signature",
          "type": "bytes"
        }
      ],
      "name": "closeNueTroveWithPermit2",
      "outputs": [],
      "stateMutability": "nonpayable",
      "type": "function"
    },
    {
      "inputs": [],
      "name": "closeTrove",
      "outputs": [],
      "stateMutability": "nonpayable",
      "type": "function"
    },
    {
      "inputs": [],
      "name": "defaultPool",
      "outputs": [
        {
          "internalType": "contract IDefaultPool",
          "name": "",
          "type": "address"
        }
      ],
      "stateMutability": "view",
      "type": "function"
    },
    {
      "inputs": [],
      "name": "feeDistributor",
      "outputs": [
        {
          "internalType": "contract IFeeDistributor",
          "name": "",
          "type": "address"
        }
      ],
      "stateMutability": "view",
      "type": "function"
    },
    {
      "inputs": [
        {
          "internalType": "uint256",
          "name": "_debt",
          "type": "uint256"
        }
      ],
      "name": "getCompositeDebt",
      "outputs": [
        {
          "internalType": "uint256",
          "name": "",
          "type": "uint256"
        }
      ],
      "stateMutability": "view",
      "type": "function"
    },
    {
      "inputs": [],
      "name": "getEntireSystemColl",
      "outputs": [
        {
          "internalType": "uint256",
          "name": "entireSystemColl",
          "type": "uint256"
        }
      ],
      "stateMutability": "view",
      "type": "function"
    },
    {
      "inputs": [],
      "name": "getEntireSystemDebt",
      "outputs": [
        {
          "internalType": "uint256",
          "name": "entireSystemDebt",
          "type": "uint256"
        }
      ],
      "stateMutability": "view",
      "type": "function"
    },
    {
      "inputs": [],
      "name": "getMassetManager",
      "outputs": [
        {
          "internalType": "contract IMassetManager",
          "name": "",
          "type": "address"
        }
      ],
      "stateMutability": "view",
      "type": "function"
    },
    {
      "inputs": [],
      "name": "getOwner",
      "outputs": [
        {
          "internalType": "address",
          "name": "_owner",
          "type": "address"
        }
      ],
      "stateMutability": "view",
      "type": "function"
    },
    {
      "inputs": [],
      "name": "liquityBaseParams",
      "outputs": [
        {
          "internalType": "contract ILiquityBaseParams",
          "name": "",
          "type": "address"
        }
      ],
      "stateMutability": "view",
      "type": "function"
    },
    {
      "inputs": [],
      "name": "massetManager",
      "outputs": [
        {
          "internalType": "contract IMassetManager",
          "name": "",
          "type": "address"
        }
      ],
      "stateMutability": "view",
      "type": "function"
    },
    {
      "inputs": [
        {
          "internalType": "address",
          "name": "_borrower",
          "type": "address"
        },
        {
          "internalType": "address",
          "name": "_upperHint",
          "type": "address"
        },
        {
          "internalType": "address",
          "name": "_lowerHint",
          "type": "address"
        }
      ],
      "name": "moveETHGainToTrove",
      "outputs": [],
      "stateMutability": "payable",
      "type": "function"
    },
    {
      "inputs": [
        {
          "internalType": "uint256",
          "name": "_maxFeePercentage",
          "type": "uint256"
        },
        {
          "internalType": "uint256",
          "name": "_ZUSDAmount",
          "type": "uint256"
        },
        {
          "internalType": "address",
          "name": "_upperHint",
          "type": "address"
        },
        {
          "internalType": "address",
          "name": "_lowerHint",
          "type": "address"
        }
      ],
      "name": "openNueTrove",
      "outputs": [],
      "stateMutability": "payable",
      "type": "function"
    },
    {
      "inputs": [
        {
          "internalType": "uint256",
          "name": "_maxFeePercentage",
          "type": "uint256"
        },
        {
          "internalType": "uint256",
          "name": "_ZUSDAmount",
          "type": "uint256"
        },
        {
          "internalType": "address",
          "name": "_upperHint",
          "type": "address"
        },
        {
          "internalType": "address",
          "name": "_lowerHint",
          "type": "address"
        }
      ],
      "name": "openTrove",
      "outputs": [],
      "stateMutability": "payable",
      "type": "function"
    },
    {
      "inputs": [],
      "name": "permit2",
      "outputs": [
        {
          "internalType": "contract IPermit2",
          "name": "",
          "type": "address"
        }
      ],
      "stateMutability": "view",
      "type": "function"
    },
    {
      "inputs": [],
      "name": "priceFeed",
      "outputs": [
        {
          "internalType": "contract IPriceFeed",
          "name": "",
          "type": "address"
        }
      ],
      "stateMutability": "view",
      "type": "function"
    },
    {
      "inputs": [
        {
          "internalType": "uint256",
          "name": "_ZUSDAmount",
          "type": "uint256"
        },
        {
          "internalType": "address",
          "name": "_upperHint",
          "type": "address"
        },
        {
          "internalType": "address",
          "name": "_lowerHint",
          "type": "address"
        }
      ],
      "name": "repayZUSD",
      "outputs": [],
      "stateMutability": "nonpayable",
      "type": "function"
    },
    {
      "inputs": [
        {
          "internalType": "uint256",
          "name": "_dllrAmount",
          "type": "uint256"
        },
        {
          "internalType": "address",
          "name": "_upperHint",
          "type": "address"
        },
        {
          "internalType": "address",
          "name": "_lowerHint",
          "type": "address"
        },
        {
          "components": [
            {
              "internalType": "uint256",
              "name": "deadline",
              "type": "uint256"
            },
            {
              "internalType": "uint8",
              "name": "v",
              "type": "uint8"
            },
            {
              "internalType": "bytes32",
              "name": "r",
              "type": "bytes32"
            },
            {
              "internalType": "bytes32",
              "name": "s",
              "type": "bytes32"
            }
          ],
          "internalType": "struct IMassetManager.PermitParams",
          "name": "_permitParams",
          "type": "tuple"
        }
      ],
      "name": "repayZusdFromDLLR",
      "outputs": [],
      "stateMutability": "nonpayable",
      "type": "function"
    },
    {
      "inputs": [
        {
          "internalType": "uint256",
          "name": "_dllrAmount",
          "type": "uint256"
        },
        {
          "internalType": "address",
          "name": "_upperHint",
          "type": "address"
        },
        {
          "internalType": "address",
          "name": "_lowerHint",
          "type": "address"
        },
        {
          "components": [
            {
              "components": [
                {
                  "internalType": "address",
                  "name": "token",
                  "type": "address"
                },
                {
                  "internalType": "uint256",
                  "name": "amount",
                  "type": "uint256"
                }
              ],
              "internalType": "struct ISignatureTransfer.TokenPermissions",
              "name": "permitted",
              "type": "tuple"
            },
            {
              "internalType": "uint256",
              "name": "nonce",
              "type": "uint256"
            },
            {
              "internalType": "uint256",
              "name": "deadline",
              "type": "uint256"
            }
          ],
          "internalType": "struct ISignatureTransfer.PermitTransferFrom",
          "name": "_permit",
          "type": "tuple"
        },
        {
          "internalType": "bytes",
          "name": "_signature",
          "type": "bytes"
        }
      ],
      "name": "repayZusdFromDLLRWithPermit2",
      "outputs": [],
      "stateMutability": "nonpayable",
      "type": "function"
    },
    {
      "inputs": [
        {
          "internalType": "address",
          "name": "_feeDistributorAddress",
          "type": "address"
        },
        {
          "internalType": "address",
          "name": "_liquityBaseParamsAddress",
          "type": "address"
        },
        {
          "internalType": "address",
          "name": "_troveManagerAddress",
          "type": "address"
        },
        {
          "internalType": "address",
          "name": "_activePoolAddress",
          "type": "address"
        },
        {
          "internalType": "address",
          "name": "_defaultPoolAddress",
          "type": "address"
        },
        {
          "internalType": "address",
          "name": "_stabilityPoolAddress",
          "type": "address"
        },
        {
          "internalType": "address",
          "name": "_gasPoolAddress",
          "type": "address"
        },
        {
          "internalType": "address",
          "name": "_collSurplusPoolAddress",
          "type": "address"
        },
        {
          "internalType": "address",
          "name": "_priceFeedAddress",
          "type": "address"
        },
        {
          "internalType": "address",
          "name": "_sortedTrovesAddress",
          "type": "address"
        },
        {
          "internalType": "address",
          "name": "_zusdTokenAddress",
          "type": "address"
        },
        {
          "internalType": "address",
          "name": "_zeroStakingAddress",
          "type": "address"
        }
      ],
      "name": "setAddresses",
      "outputs": [],
      "stateMutability": "nonpayable",
      "type": "function"
    },
    {
      "inputs": [
        {
          "internalType": "address",
          "name": "_massetManagerAddress",
          "type": "address"
        }
      ],
      "name": "setMassetManagerAddress",
      "outputs": [],
      "stateMutability": "nonpayable",
      "type": "function"
    },
    {
      "inputs": [
        {
          "internalType": "address",
          "name": "_owner",
          "type": "address"
        }
      ],
      "name": "setOwner",
      "outputs": [],
      "stateMutability": "nonpayable",
      "type": "function"
    },
    {
      "inputs": [],
      "name": "sortedTroves",
      "outputs": [
        {
          "internalType": "contract ISortedTroves",
          "name": "",
          "type": "address"
        }
      ],
      "stateMutability": "view",
      "type": "function"
    },
    {
      "inputs": [],
      "name": "troveManager",
      "outputs": [
        {
          "internalType": "contract ITroveManager",
          "name": "",
          "type": "address"
        }
      ],
      "stateMutability": "view",
      "type": "function"
    },
    {
      "inputs": [
        {
          "internalType": "uint256",
          "name": "_collWithdrawal",
          "type": "uint256"
        },
        {
          "internalType": "address",
          "name": "_upperHint",
          "type": "address"
        },
        {
          "internalType": "address",
          "name": "_lowerHint",
          "type": "address"
        }
      ],
      "name": "withdrawColl",
      "outputs": [],
      "stateMutability": "nonpayable",
      "type": "function"
    },
    {
      "inputs": [
        {
          "internalType": "uint256",
          "name": "_maxFeePercentage",
          "type": "uint256"
        },
        {
          "internalType": "uint256",
          "name": "_ZUSDAmount",
          "type": "uint256"
        },
        {
          "internalType": "address",
          "name": "_upperHint",
          "type": "address"
        },
        {
          "internalType": "address",
          "name": "_lowerHint",
          "type": "address"
        }
      ],
      "name": "withdrawZUSD",
      "outputs": [],
      "stateMutability": "nonpayable",
      "type": "function"
    },
    {
      "inputs": [
        {
          "internalType": "uint256",
          "name": "_maxFeePercentage",
          "type": "uint256"
        },
        {
          "internalType": "uint256",
          "name": "_ZUSDAmount",
          "type": "uint256"
        },
        {
          "internalType": "address",
          "name": "_upperHint",
          "type": "address"
        },
        {
          "internalType": "address",
          "name": "_lowerHint",
          "type": "address"
        }
      ],
      "name": "withdrawZusdAndConvertToDLLR",
      "outputs": [
        {
          "internalType": "uint256",
          "name": "",
          "type": "uint256"
        }
      ],
      "stateMutability": "nonpayable",
      "type": "function"
    },
    {
      "inputs": [],
      "name": "zeroStaking",
      "outputs": [
        {
          "internalType": "contract IZEROStaking",
          "name": "",
          "type": "address"
        }
      ],
      "stateMutability": "view",
      "type": "function"
    },
    {
      "inputs": [],
      "name": "zeroStakingAddress",
      "outputs": [
        {
          "internalType": "address",
          "name": "",
          "type": "address"
        }
      ],
      "stateMutability": "view",
      "type": "function"
    },
    {
      "inputs": [],
      "name": "zusdToken",
      "outputs": [
        {
          "internalType": "contract IZUSDToken",
          "name": "",
          "type": "address"
        }
      ],
      "stateMutability": "view",
      "type": "function"
    }
  ],
  "transactionHash": "0x1b90ac7d6d78e1a74dabce6d43c24e65d9115924499ec7ed309ea54d6806e93e",
  "args": [
    "0x000000000022d473030f116ddee9f6b43ac78ba3"
  ],
  "numDeployments": 3,
  "solcInputHash": "849fadfa265e27de6fba2f2d99bdf763",
  "bytecode": "0x60a06040523480156200001157600080fd5b506040516200556638038062005566833981016040819052620000349162000123565b62000048336001600160e01b036200005e16565b60601b6001600160601b031916608052620001b2565b6001600160a01b038116620000905760405162461bcd60e51b8152600401620000879062000170565b60405180910390fd5b6001600160a01b038116620000ad6001600160e01b036200010216565b6001600160a01b03167f8be0079c531659141344cd1fd0a4f28419497f9722a3daafe3b4186f6b6457e060405160405180910390a36000604051620000f29062000153565b6040519081900390209190915550565b600080604051620001139062000153565b6040519081900390205492915050565b60006020828403121562000135578081fd5b81516001600160a01b03811681146200014c578182fd5b9392505050565b7035b2bc9737bbb730b136329737bbb732b960791b815260110190565b60208082526022908201527f4f776e61626c653a3a7365744f776e65723a20696e76616c6964206164647265604082015261737360f01b606082015260800190565b60805160601c61538c620001da600039806106a552806110db5280612327525061538c6000f3fe60806040526004361061025c5760003560e01c80637778a3db11610144578063a20baee6116100b6578063c6a6cf201161007a578063c6a6cf2014610601578063e9fc346114610614578063ea9638bf14610629578063ec5472fd1461063c578063ec9f7d4614610651578063f92d3433146106665761025c565b8063a20baee614610414578063a3f4df7e14610595578063ae918754146105b7578063afbc74b5146105cc578063b5c89bab146105ec5761025c565b8063860665b311610108578063860665b314610510578063887105d314610523578063893d20e814610538578063899fe15e1461054d5780638d5c3dc11461056d5780639f070670146105805761025c565b80637778a3db14610486578063795d26c3146104a65780637d4f595d146104bb5780637e3eefdc146104db5780637f7dde4a146104fb5761025c565b8063485f190f116101dd5780636f0b0c1c116101a15780636f0b0c1c146103ff57806372fe25aa14610414578063734f622d14610429578063741bef1a14610449578063759b30341461045e578063763a0ef3146104735761025c565b8063485f190f146103795780634ff814431461038c5780635530273c146103ac57806368647db1146103cc5780636ea56960146103df5761025c565b80631a777717116102245780631a777717146102ed5780631bf435551461030d5780632771510a1461032f5780633cc742251461034f5780633d83908a146103645761025c565b80630d43e8ad146102615780630e704d501461028c5780630ff9a512146102a357806312261ee7146102b857806313af4035146102cd575b600080fd5b34801561026d57600080fd5b5061027661067b565b604051610283919061485c565b60405180910390f35b34801561029857600080fd5b506102a161068a565b005b3480156102af57600080fd5b50610276610694565b3480156102c457600080fd5b506102766106a3565b3480156102d957600080fd5b506102a16102e83660046142d7565b6106c7565b3480156102f957600080fd5b506102a161030836600461455d565b610714565b34801561031957600080fd5b5061032261072b565b60405161028391906152d8565b34801561033b57600080fd5b506102a161034a3660046142d7565b610738565b34801561035b57600080fd5b506102766107c6565b34801561037057600080fd5b506102766107d5565b6102a1610387366004614631565b6107e4565b34801561039857600080fd5b506103226103a7366004614507565b61094e565b3480156103b857600080fd5b506102a16103c7366004614537565b610961565b6102a16103da36600461430f565b610977565b3480156103eb57600080fd5b506102a16103fa366004614631565b61098d565b34801561040b57600080fd5b506102a161099e565b34801561042057600080fd5b506103226109fc565b34801561043557600080fd5b506102a1610444366004614391565b610a08565b34801561045557600080fd5b50610276610dcc565b34801561046a57600080fd5b50610322610ddb565b6102a1610481366004614758565b610de8565b34801561049257600080fd5b506102a16104a136600461449a565b610e04565b3480156104b257600080fd5b50610322610ef5565b3480156104c757600080fd5b506102a16104d63660046144b5565b611014565b3480156104e757600080fd5b506103226104f6366004614631565b61110a565b34801561050757600080fd5b50610276611385565b6102a161051e366004614631565b611394565b34801561052f57600080fd5b506103226113a1565b34801561054457600080fd5b50610276611470565b34801561055957600080fd5b506102a16105683660046145ae565b61148f565b6102a161057b3660046146e0565b6114aa565b34801561058c57600080fd5b506102766114c2565b3480156105a157600080fd5b506105aa6114d1565b6040516102839190614944565b3480156105c357600080fd5b506102766114ff565b3480156105d857600080fd5b506102a16105e7366004614537565b61150e565b3480156105f857600080fd5b50610276611520565b6102a161060f36600461467a565b61152f565b34801561062057600080fd5b5061027661153e565b6102a1610637366004614347565b61154d565b34801561064857600080fd5b50610276611567565b34801561065d57600080fd5b50610276611576565b34801561067257600080fd5b50610322611585565b600d546001600160a01b031681565b610692611607565b565b6009546001600160a01b031681565b7f000000000000000000000000000000000000000000000000000000000000000081565b6106cf611470565b6001600160a01b0316336001600160a01b0316146107085760405162461bcd60e51b81526004016106ff90614e2d565b60405180910390fd5b610711816119f6565b50565b610725600080866000878787611a81565b50505050565b6809c2007651b250000081565b610740611470565b6001600160a01b0316336001600160a01b0316146107705760405162461bcd60e51b81526004016106ff90614e2d565b600c80546001600160a01b0319166001600160a01b0383161790556040517f6926b3375b54960080b7d8a184061f39a02e8c3bf64aa9df7e75359fdc00d814906107bb90839061485c565b60405180910390a150565b6001546001600160a01b031681565b6004546001600160a01b031681565b600c546001600160a01b031661080c5760405162461bcd60e51b81526004016106ff90615237565b6108198484848430611c37565b600a54600c5460405163095ea7b360e01b81526001600160a01b039283169263095ea7b39261084f9291169087906004016148b1565b602060405180830381600087803b15801561086957600080fd5b505af115801561087d573d6000803e3d6000fd5b505050506040513d601f19601f820116820180604052508101906108a1919061447e565b6108bd5760405162461bcd60e51b81526004016106ff90614ebb565b600c54600a5460405163438b1b4b60e01b81526001600160a01b039283169263438b1b4b926108f592911690879033906004016148f5565b602060405180830381600087803b15801561090f57600080fd5b505af1158015610923573d6000803e3d6000fd5b505050506040513d601f19601f82011682018060405250810190610947919061451f565b5050505050565b600061095982612262565b90505b919050565b61097233846000808686600061227d565b505050565b6109893360008060008686600061227d565b5050565b61072533600085600186868a61227d565b60075460405163b32beb5b60e01b81526001600160a01b039091169063b32beb5b906109ce90339060040161485c565b600060405180830381600087803b1580156109e857600080fd5b505af1158015610725573d6000803e3d6000fd5b670de0b6b3a764000081565b610a10611470565b6001600160a01b0316336001600160a01b031614610a405760405162461bcd60e51b81526004016106ff90614e2d565b610a498c61228d565b610a528b61228d565b610a5b8a61228d565b610a648961228d565b610a6d8861228d565b610a768761228d565b610a7f8661228d565b610a888561228d565b610a918461228d565b610a9a8361228d565b610aa38261228d565b610aac8161228d565b600d80546001600160a01b03199081166001600160a01b038f8116919091179092556003805482168e84161790556004805482168d84161790556000805482168c84161790556001805482168b84161790556005805482168a8416179055600680548216898416179055600780548216888416179055600280548216878416179055600b80548216868416179055600a8054821685841617905560098054821692841692831790556008805490911690911790556040517f84861842e6a98dd759145eb5e7b48279d0f02ebeabc8a69e5196b2f4c5023db990610b90908e9061485c565b60405180910390a17f143219c9e69b09e07e095fcc889b43d8f46ca892bba65f08dc3a0050869a56788a604051610bc7919061485c565b60405180910390a17f78f058b189175430c48dc02699e3a0031ea4ff781536dc2fab847de4babdd88289604051610bfe919061485c565b60405180910390a17f5ee0cae2f063ed938bb55046f6a932fb6ae792bf43624806bb90abe68a50be9b88604051610c35919061485c565b60405180910390a17f82966d27eea39b038ee0fa30cd16532bb24f6e65d31cb58fb227aa5766cdcc7f87604051610c6c919061485c565b60405180910390a17fcfb07d791fcafc032b35837b50eb84b74df518cf4cc287e8084f47630fa70fa086604051610ca3919061485c565b60405180910390a17fe67f36a6e961157d6eff83b91f3af5a62131ceb6f04954ef74f51c1c05e7f88d85604051610cda919061485c565b60405180910390a17f8c537274438aa850a330284665d81a85dd38267d09e4050d416bfc94142db26484604051610d11919061485c565b60405180910390a17f65f4cf077bc01e4742eb5ad98326f6e95b63548ea24b17f8d5e823111fe7880083604051610d48919061485c565b60405180910390a17fcdf33850c44a1a874b5fefb51dae615ac6afebd581ef90d571f81b06541d8e9d82604051610d7f919061485c565b60405180910390a17f7624075ed781e3aa34b0f492d70d1bb5a6fcde04534165e20f990d2e546be4dd81604051610db6919061485c565b60405180910390a1505050505050505050505050565b6002546001600160a01b031681565b6801158e460913d0000081565b610df98989898989898989896122d2565b505050505050505050565b600c546001600160a01b0316610e2c5760405162461bcd60e51b81526004016106ff90615237565b6004805460405163d66a255360e01b81526000926001600160a01b039092169163d66a255391610e5e9133910161485c565b60206040518083038186803b158015610e7657600080fd5b505afa158015610e8a573d6000803e3d6000fd5b505050506040513d601f19601f82011682018060405250810190610eae919061451f565b600c54909150610eec906001600160a01b0316610eda836801158e460913d0000063ffffffff6124ab16565b600a546001600160a01b0316856124f6565b50610989611607565b60008054604080516272c7d360e71b8152905183926001600160a01b031691633963e980916004808301926020929190829003018186803b158015610f3957600080fd5b505afa158015610f4d573d6000803e3d6000fd5b505050506040513d601f19601f82011682018060405250810190610f71919061451f565b90506000600160009054906101000a90046001600160a01b03166001600160a01b0316633963e9806040518163ffffffff1660e01b815260040160206040518083038186803b158015610fc357600080fd5b505afa158015610fd7573d6000803e3d6000fd5b505050506040513d601f19601f82011682018060405250810190610ffb919061451f565b905061100d828263ffffffff6127a716565b9250505090565b600c546001600160a01b031661103c5760405162461bcd60e51b81526004016106ff90615237565b6004805460405163d66a255360e01b81526000926001600160a01b039092169163d66a25539161106e9133910161485c565b60206040518083038186803b15801561108657600080fd5b505afa15801561109a573d6000803e3d6000fd5b505050506040513d601f19601f820116820180604052508101906110be919061451f565b600c54600a54919250611101916001600160a01b039182169116867f000000000000000000000000000000000000000000000000000000000000000087876127cc565b50610725611607565b600a546040516370a0823160e01b8152600091309183916001600160a01b0316906370a082319061113f90859060040161485c565b60206040518083038186803b15801561115757600080fd5b505afa15801561116b573d6000803e3d6000fd5b505050506040513d601f19601f8201168201806040525081019061118f919061451f565b905061119f33838888888c612a19565b6111af818763ffffffff6127a716565b600a546040516370a0823160e01b81526001600160a01b03909116906370a08231906111df90869060040161485c565b60206040518083038186803b1580156111f757600080fd5b505afa15801561120b573d6000803e3d6000fd5b505050506040513d601f19601f8201168201806040525081019061122f919061451f565b1461124c5760405162461bcd60e51b81526004016106ff90614ac1565b600a54600c5460405163095ea7b360e01b81526001600160a01b039283169263095ea7b392611282929116908a906004016148b1565b602060405180830381600087803b15801561129c57600080fd5b505af11580156112b0573d6000803e3d6000fd5b505050506040513d601f19601f820116820180604052508101906112d4919061447e565b6112f05760405162461bcd60e51b81526004016106ff90614ebb565b600c54600a5460405163438b1b4b60e01b81526001600160a01b039283169263438b1b4b92611328929116908a9033906004016148f5565b602060405180830381600087803b15801561134257600080fd5b505af1158015611356573d6000803e3d6000fd5b505050506040513d601f19601f8201168201806040525081019061137a919061451f565b979650505050505050565b6000546001600160a01b031681565b6107258484848433611c37565b6000805460408051630a7b61df60e11b8152905183926001600160a01b0316916314f6c3be916004808301926020929190829003018186803b1580156113e657600080fd5b505afa1580156113fa573d6000803e3d6000fd5b505050506040513d601f19601f8201168201806040525081019061141e919061451f565b90506000600160009054906101000a90046001600160a01b03166001600160a01b03166314f6c3be6040518163ffffffff1660e01b815260040160206040518083038186803b158015610fc357600080fd5b60008060405161147f9061483f565b6040519081900390205492915050565b6114a260008088600089898989896122d2565b505050505050565b6114b987878787878787611a81565b50505050505050565b6003546001600160a01b031681565b60405180604001604052806012815260200171426f72726f7765724f7065726174696f6e7360701b81525081565b600b546001600160a01b031681565b6109723360008560008686600061227d565b600c546001600160a01b031681565b6114a23386868686868c61227d565b600c546001600160a01b031690565b611555612a2b565b6109728360008060008686600061227d565b6008546001600160a01b031681565b600a546001600160a01b031681565b6003546040805163f92d343360e01b815290516000926001600160a01b03169163f92d3433916004808301926020929190829003018186803b1580156115ca57600080fd5b505afa1580156115de573d6000803e3d6000fd5b505050506040513d601f19601f82011682018060405250810190611602919061451f565b905090565b600454600054600a546001600160a01b0392831692918216911661162b8333612a55565b60025460408051630fdb11cf60e01b815290516000926001600160a01b031691630fdb11cf91600480830192602092919082900301818787803b15801561167157600080fd5b505af1158015611685573d6000803e3d6000fd5b505050506040513d601f19601f820116820180604052508101906116a9919061451f565b90506116b481612af6565b604051630b07655760e01b81526001600160a01b03851690630b076557906116e090339060040161485c565b600060405180830381600087803b1580156116fa57600080fd5b505af115801561170e573d6000803e3d6000fd5b50506040516309019aaf60e31b8152600092506001600160a01b038716915063480cd5789061174190339060040161485c565b60206040518083038186803b15801561175957600080fd5b505afa15801561176d573d6000803e3d6000fd5b505050506040513d601f19601f82011682018060405250810190611791919061451f565b90506000856001600160a01b031663d66a2553336040518263ffffffff1660e01b81526004016117c1919061485c565b60206040518083038186803b1580156117d957600080fd5b505afa1580156117ed573d6000803e3d6000fd5b505050506040513d601f19601f82011682018060405250810190611811919061451f565b90506118368433611831846801158e460913d0000063ffffffff6124ab16565b612b1c565b600061184783600084600088612bb8565b905061185281612c43565b604051631fc5750960e31b81526001600160a01b0388169063fe2ba8489061187e90339060040161485c565b600060405180830381600087803b15801561189857600080fd5b505af11580156118ac573d6000803e3d6000fd5b50506040516365e89c5760e11b81526001600160a01b038a16925063cbd138ae91506118dc90339060040161485c565b600060405180830381600087803b1580156118f657600080fd5b505af115801561190a573d6000803e3d6000fd5b50505050336001600160a01b03166000805160206153378339815191526000806000600160405161193e9493929190614918565b60405180910390a261196a868633611965866801158e460913d0000063ffffffff6124ab16565b612ce8565b60065461198d90879087906001600160a01b03166801158e460913d00000612ce8565b6040516364a197f360e01b81526001600160a01b038716906364a197f3906119bb90339087906004016148b1565b600060405180830381600087803b1580156119d557600080fd5b505af11580156119e9573d6000803e3d6000fd5b5050505050505050505050565b6001600160a01b038116611a1c5760405162461bcd60e51b81526004016106ff90614af8565b806001600160a01b0316611a2e611470565b6001600160a01b03167f8be0079c531659141344cd1fd0a4f28419497f9722a3daafe3b4186f6b6457e060405160405180910390a36000604051611a719061483f565b6040519081900390209190915550565b600c546001600160a01b0316611aa95760405162461bcd60e51b81526004016106ff90615237565b83158015611ab75750600085115b15611add57600c54600a54611adb916001600160a01b0390811691889116846124f6565b505b611aed3387878787878d30612da2565b838015611afa5750600085115b156114b957600a54600c5460405163095ea7b360e01b81526001600160a01b039283169263095ea7b392611b359291169089906004016148b1565b602060405180830381600087803b158015611b4f57600080fd5b505af1158015611b63573d6000803e3d6000fd5b505050506040513d601f19601f82011682018060405250810190611b87919061447e565b611ba35760405162461bcd60e51b81526004016106ff90614ebb565b600c54600a5460405163438b1b4b60e01b81526001600160a01b039283169263438b1b4b92611bdb92911690899033906004016148f5565b602060405180830381600087803b158015611bf557600080fd5b505af1158015611c09573d6000803e3d6000fd5b505050506040513d601f19601f82011682018060405250810190611c2d919061451f565b5050505050505050565b611c3f614111565b50604080516060810182526004546001600160a01b03908116825260005481166020830152600a541691810191909152611c77614131565b600260009054906101000a90046001600160a01b03166001600160a01b0316630fdb11cf6040518163ffffffff1660e01b8152600401602060405180830381600087803b158015611cc757600080fd5b505af1158015611cdb573d6000803e3d6000fd5b505050506040513d601f19601f82011682018060405250810190611cff919061451f565b808252600090611d0e9061337a565b9050611d1a8882613415565b8251611d269033613501565b6040820187905280611d6757611d4683600001518460400151898b6135a3565b602083018190526040830151611d619163ffffffff6127a716565b60408301525b611d74826040015161375c565b611d818260400151612262565b60608301819052611d8e57fe5b611da13483606001518460000151613785565b60808301526060820151611db69034906137c4565b60a08301528015611dd357611dce82608001516137f9565b611e06565b611de0826080015161389e565b6000611df9346001856060015160018760000151612bb8565b9050611e0481612c43565b505b8251604051635d6b480f60e01b81526001600160a01b0390911690635d6b480f90611e389033906001906004016148b1565b600060405180830381600087803b158015611e5257600080fd5b505af1158015611e66573d6000803e3d6000fd5b505084516040516372423c1760e01b81526001600160a01b0390911692506372423c179150611e9b90339034906004016148b1565b602060405180830381600087803b158015611eb557600080fd5b505af1158015611ec9573d6000803e3d6000fd5b505050506040513d601f19601f82011682018060405250810190611eed919061451f565b5082516060830151604051639976cf4560e01b81526001600160a01b0390921691639976cf4591611f23913391906004016148b1565b602060405180830381600087803b158015611f3d57600080fd5b505af1158015611f51573d6000803e3d6000fd5b505050506040513d601f19601f82011682018060405250810190611f75919061451f565b5082516040516382fe3eb960e01b81526001600160a01b03909116906382fe3eb990611fa590339060040161485c565b600060405180830381600087803b158015611fbf57600080fd5b505af1158015611fd3573d6000803e3d6000fd5b50508451604051630c7940bd60e11b81526001600160a01b0390911692506318f2817a915061200690339060040161485c565b602060405180830381600087803b15801561202057600080fd5b505af1158015612034573d6000803e3d6000fd5b505050506040513d601f19601f82011682018060405250810190612058919061451f565b60c0830152600b5460a08301516040516346f7cf8760e01b81526001600160a01b03909216916346f7cf8791612097913391908b908b906004016148ca565b600060405180830381600087803b1580156120b157600080fd5b505af11580156120c5573d6000803e3d6000fd5b505084516040516315d549f160e01b81526001600160a01b0390911692506315d549f191506120f890339060040161485c565b602060405180830381600087803b15801561211257600080fd5b505af1158015612126573d6000803e3d6000fd5b505050506040513d601f19601f8201168201806040525081019061214a919061451f565b60e0830181905260405133917f59cfd0cd754bc5748b6770e94a4ffa5f678d885cb899dcfadc5734edb97c67ab9161218291906152d8565b60405180910390a2612198836020015134613943565b6121b183602001518460400151868a86604001516139bf565b602083015160408401516006546121dd9291906001600160a01b03166801158e460913d00000806139bf565b606082015160c083015160405133926000805160206153378339815191529261220b92349190600090614918565b60405180910390a2336001600160a01b03167f71457d8a5ab7e4561ed49d05338674b73ac3b83b0b315f165f5b12bcc0022741836020015160405161225091906152d8565b60405180910390a25050505050505050565b6000610959826801158e460913d0000063ffffffff6127a716565b6114b98787878787878733612da2565b6001600160a01b0381166122b35760405162461bcd60e51b81526004016106ff90614c3a565b803b806109895760405162461bcd60e51b81526004016106ff90614fde565b600c546001600160a01b03166122fa5760405162461bcd60e51b81526004016106ff90615237565b851580156123085750600087115b1561234f57600c54600a5461234d916001600160a01b039081169116857f000000000000000000000000000000000000000000000000000000000000000086866127cc565b505b61235f3389898989898f30612da2565b85801561236c5750600087115b15610df957600a54600c5460405163095ea7b360e01b81526001600160a01b039283169263095ea7b3926123a7929116908b906004016148b1565b602060405180830381600087803b1580156123c157600080fd5b505af11580156123d5573d6000803e3d6000fd5b505050506040513d601f19601f820116820180604052508101906123f9919061447e565b6124155760405162461bcd60e51b81526004016106ff90614ebb565b600c54600a5460405163438b1b4b60e01b81526001600160a01b039283169263438b1b4b9261244d929116908b9033906004016148f5565b602060405180830381600087803b15801561246757600080fd5b505af115801561247b573d6000803e3d6000fd5b505050506040513d601f19601f8201168201806040525081019061249f919061451f565b50505050505050505050565b60006124ed83836040518060400160405280601e81526020017f536166654d6174683a207375627472616374696f6e206f766572666c6f770000815250613a79565b90505b92915050565b600080856001600160a01b03166321df0da76040518163ffffffff1660e01b815260040160206040518083038186803b15801561253257600080fd5b505afa158015612546573d6000803e3d6000fd5b505050506040513d601f19601f8201168201806040525081019061256a91906142f3565b90506000816001600160a01b03166370a08231306040518263ffffffff1660e01b815260040161259a919061485c565b60206040518083038186803b1580156125b257600080fd5b505afa1580156125c6573d6000803e3d6000fd5b505050506040513d601f19601f820116820180604052508101906125ea919061451f565b9050306001600160a01b03831663605629d633838a893561261160408c0160208d01614803565b8b604001358c606001356040518863ffffffff1660e01b815260040161263d9796959493929190614870565b600060405180830381600087803b15801561265757600080fd5b505af115801561266b573d6000803e3d6000fd5b50505050866126fc83856001600160a01b03166370a08231856040518263ffffffff1660e01b81526004016126a0919061485c565b60206040518083038186803b1580156126b857600080fd5b505afa1580156126cc573d6000803e3d6000fd5b505050506040513d601f19601f820116820180604052508101906126f0919061451f565b9063ffffffff6124ab16565b146127195760405162461bcd60e51b81526004016106ff90614a41565b60405163fb2c922360e01b81526001600160a01b0389169063fb2c9223906127499089908b9033906004016148f5565b602060405180830381600087803b15801561276357600080fd5b505af1158015612777573d6000803e3d6000fd5b505050506040513d601f19601f8201168201806040525081019061279b919061451f565b98975050505050505050565b6000828201838110156124ed5760405162461bcd60e51b81526004016106ff90614a8a565b600080876001600160a01b03166321df0da76040518163ffffffff1660e01b815260040160206040518083038186803b15801561280857600080fd5b505afa15801561281c573d6000803e3d6000fd5b505050506040513d601f19601f8201168201806040525081019061284091906142f3565b90506000816001600160a01b03166370a08231306040518263ffffffff1660e01b8152600401612870919061485c565b60206040518083038186803b15801561288857600080fd5b505afa15801561289c573d6000803e3d6000fd5b505050506040513d601f19601f820116820180604052508101906128c0919061451f565b87516020015190915030906001600160a01b0388166330f28b7a8a6128e58585613aa5565b338b8b6040518663ffffffff1660e01b8152600401612908959493929190615267565b600060405180830381600087803b15801561292257600080fd5b505af1158015612936573d6000803e3d6000fd5b505050508061296b84866001600160a01b03166370a08231866040518263ffffffff1660e01b81526004016126a0919061485c565b146129885760405162461bcd60e51b81526004016106ff90614a41565b60405163fb2c922360e01b81526001600160a01b038c169063fb2c9223906129b8908d90859033906004016148f5565b602060405180830381600087803b1580156129d257600080fd5b505af11580156129e6573d6000803e3d6000fd5b505050506040513d601f19601f82011682018060405250810190612a0a919061451f565b9b9a5050505050505050505050565b6114a28660008660018787878c612da2565b6005546001600160a01b031633146106925760405162461bcd60e51b81526004016106ff9061507c565b6040516321e3780160e01b81526000906001600160a01b038416906321e3780190612a8490859060040161485c565b60206040518083038186803b158015612a9c57600080fd5b505afa158015612ab0573d6000803e3d6000fd5b505050506040513d601f19601f82011682018060405250810190612ad4919061451f565b9050806001146109725760405162461bcd60e51b81526004016106ff90614ddf565b612aff8161337a565b156107115760405162461bcd60e51b81526004016106ff90614b8a565b6040516370a0823160e01b815281906001600160a01b038516906370a0823190612b4a90869060040161485c565b60206040518083038186803b158015612b6257600080fd5b505afa158015612b76573d6000803e3d6000fd5b505050506040513d601f19601f82011682018060405250810190612b9a919061451f565b10156109725760405162461bcd60e51b81526004016106ff90614997565b600080612bc36113a1565b90506000612bcf610ef5565b905086612beb57612be6828963ffffffff6124ab16565b612bfb565b612bfb828963ffffffff6127a716565b915084612c1757612c12818763ffffffff6124ab16565b612c27565b612c27818763ffffffff6127a716565b90506000612c36838387613785565b9998505050505050505050565b600360009054906101000a90046001600160a01b03166001600160a01b0316635733d58f6040518163ffffffff1660e01b815260040160206040518083038186803b158015612c9157600080fd5b505afa158015612ca5573d6000803e3d6000fd5b505050506040513d601f19601f82011682018060405250810190612cc9919061451f565b8110156107115760405162461bcd60e51b81526004016106ff90614d70565b60405163121cbc4d60e11b81526001600160a01b03851690632439789a90612d149084906004016152d8565b600060405180830381600087803b158015612d2e57600080fd5b505af1158015612d42573d6000803e3d6000fd5b5050604051632770a7eb60e21b81526001600160a01b0386169250639dc29fac9150612d7490859085906004016148b1565b600060405180830381600087803b158015612d8e57600080fd5b505af1158015611c2d573d6000803e3d6000fd5b612daa614111565b50604080516060810182526004546001600160a01b03908116825260005481166020830152600a541691810191909152612de2614176565b600260009054906101000a90046001600160a01b03166001600160a01b0316630fdb11cf6040518163ffffffff1660e01b8152600401602060405180830381600087803b158015612e3257600080fd5b505af1158015612e46573d6000803e3d6000fd5b505050506040513d601f19601f82011682018060405250810190612e6a919061451f565b808252612e769061337a565b15156101c08201528615612e9c57612e9384826101c00151613415565b612e9c88613ad7565b612ea589613af7565b612eaf8989613b1e565b8151612ebb908b612a55565b336001600160a01b038b161480612ef157506005546001600160a01b031633148015612ee75750600034115b8015612ef1575087155b612ef757fe5b8151604051630b07655760e01b81526001600160a01b0390911690630b07655790612f26908d9060040161485c565b600060405180830381600087803b158015612f4057600080fd5b505af1158015612f54573d6000803e3d6000fd5b50505050612f62348a613b51565b15156060830152602082015260408101889052868015612f855750806101c00151155b15612fc057612f9e826000015183604001518a876135a3565b61012082018190526040820151612fba9163ffffffff6127a716565b60408201525b815160405163d66a255360e01b81526001600160a01b039091169063d66a255390612fef908d9060040161485c565b60206040518083038186803b15801561300757600080fd5b505afa15801561301b573d6000803e3d6000fd5b505050506040513d601f19601f8201168201806040525081019061303f919061451f565b608082015281516040516309019aaf60e31b81526001600160a01b039091169063480cd57890613073908d9060040161485c565b60206040518083038186803b15801561308b57600080fd5b505afa15801561309f573d6000803e3d6000fd5b505050506040513d601f19601f820116820180604052508101906130c3919061451f565b60a08201819052608082015182516130dc929190613785565b8160c001818152505061310c8160a0015182608001518360200151846060015185604001518c8760000151613b70565b60e082015260a081015189111561311f57fe5b613130816101c001518a8984613b94565b8615801561313e5750600088115b156131855761316061315b82604001516126f08460800151613c08565b61375c565b61317281608001518260400151613c23565b61318582604001518b8360400151612b1c565b6131a382600001518b8360200151846060015185604001518c613c5b565b6101408301526101608201528151604051630c7940bd60e11b81526001600160a01b03909116906318f2817a906131de908d9060040161485c565b602060405180830381600087803b1580156131f857600080fd5b505af115801561320c573d6000803e3d6000fd5b505050506040513d601f19601f82011682018060405250810190613230919061451f565b8161018001818152505061325c8160a0015182608001518360200151846060015185604001518c613e89565b6101a08201819052600b5460405163015f109360e51b81526001600160a01b0390911691632be2126091613298918e918b908b906004016148ca565b600060405180830381600087803b1580156132b257600080fd5b505af11580156132c6573d6000803e3d6000fd5b50505050896001600160a01b031660008051602061533783398151915282610140015183610160015184610180015160026040516133079493929190614918565b60405180910390a2336001600160a01b03167f71457d8a5ab7e4561ed49d05338674b73ac3b83b0b315f165f5b12bcc002274182610120015160405161334d91906152d8565b60405180910390a261249f8260200151836040015133846020015185606001518d8d88604001518b613eba565b60008061338683613f5e565b9050600360009054906101000a90046001600160a01b03166001600160a01b0316635733d58f6040518163ffffffff1660e01b815260040160206040518083038186803b1580156133d657600080fd5b505afa1580156133ea573d6000803e3d6000fd5b505050506040513d601f19601f8201168201806040525081019061340e919061451f565b1192915050565b801561344857670de0b6b3a76400008211156134435760405162461bcd60e51b81526004016106ff90614c71565b610989565b600360009054906101000a90046001600160a01b03166001600160a01b031663f92d34336040518163ffffffff1660e01b815260040160206040518083038186803b15801561349657600080fd5b505afa1580156134aa573d6000803e3d6000fd5b505050506040513d601f19601f820116820180604052508101906134ce919061451f565b82101580156134e55750670de0b6b3a76400008211155b6109895760405162461bcd60e51b81526004016106ff906150c5565b6040516321e3780160e01b81526000906001600160a01b038416906321e378019061353090859060040161485c565b60206040518083038186803b15801561354857600080fd5b505afa15801561355c573d6000803e3d6000fd5b505050506040513d601f19601f82011682018060405250810190613580919061451f565b905080600114156109725760405162461bcd60e51b81526004016106ff90615115565b6000846001600160a01b0316635dba4c4a6040518163ffffffff1660e01b8152600401600060405180830381600087803b1580156135e057600080fd5b505af11580156135f4573d6000803e3d6000fd5b5050604051630631203b60e41b8152600092506001600160a01b038816915063631203b0906136279087906004016152d8565b60206040518083038186803b15801561363f57600080fd5b505afa158015613653573d6000803e3d6000fd5b505050506040513d601f19601f82011682018060405250810190613677919061451f565b9050613684818585613f8a565b600d546040516340c10f1960e01b81526001600160a01b03878116926340c10f19926136b8929091169085906004016148b1565b600060405180830381600087803b1580156136d257600080fd5b505af11580156136e6573d6000803e3d6000fd5b50505050600d60009054906101000a90046001600160a01b03166001600160a01b031663bb57ad206040518163ffffffff1660e01b8152600401600060405180830381600087803b15801561373a57600080fd5b505af115801561374e573d6000803e3d6000fd5b509298975050505050505050565b6809c2007651b25000008110156107115760405162461bcd60e51b81526004016106ff90614f81565b600082156137b85760006137af846137a3878663ffffffff613fca16565b9063ffffffff61400416565b91506137bd9050565b506000195b9392505050565b600081156137f0576137e9826137a38568056bc75e2d6310000063ffffffff613fca16565b90506124f0565b506000196124f0565b600360009054906101000a90046001600160a01b03166001600160a01b0316635733d58f6040518163ffffffff1660e01b815260040160206040518083038186803b15801561384757600080fd5b505afa15801561385b573d6000803e3d6000fd5b505050506040513d601f19601f8201168201806040525081019061387f919061451f565b8110156107115760405162461bcd60e51b81526004016106ff90614be3565b600360009054906101000a90046001600160a01b03166001600160a01b031663794e57246040518163ffffffff1660e01b815260040160206040518083038186803b1580156138ec57600080fd5b505afa158015613900573d6000803e3d6000fd5b505050506040513d601f19601f82011682018060405250810190613924919061451f565b8110156107115760405162461bcd60e51b81526004016106ff90614f12565b6000826001600160a01b03168260405161395c9061483c565b60006040518083038185875af1925050503d8060008114613999576040519150601f19603f3d011682016040523d82523d6000602084013e61399e565b606091505b50509050806109725760405162461bcd60e51b81526004016106ff906149f4565b60405163f2e91d7160e01b81526001600160a01b0386169063f2e91d71906139eb9084906004016152d8565b600060405180830381600087803b158015613a0557600080fd5b505af1158015613a19573d6000803e3d6000fd5b50506040516340c10f1960e01b81526001600160a01b03871692506340c10f199150613a4b90869086906004016148b1565b600060405180830381600087803b158015613a6557600080fd5b505af1158015610df9573d6000803e3d6000fd5b60008184841115613a9d5760405162461bcd60e51b81526004016106ff9190614944565b505050900390565b613aad6141f0565b613ab56141f0565b5050604080518082019091526001600160a01b03929092168252602082015290565b600081116107115760405162461bcd60e51b81526004016106ff9061514c565b341580613b02575080155b6107115760405162461bcd60e51b81526004016106ff90614b3a565b34151580613b2b57508115155b80613b3557508015155b6109895760405162461bcd60e51b81526004016106ff90614cc3565b6000808315613b6557508290506001613b69565b8291505b9250929050565b6000806000613b838a8a8a8a8a8a614046565b915091506000612a0a838387613785565b8315613bcd57613ba38361409c565b8115613bc857613bb68160e001516137f9565b613bc88160e001518260c001516140ba565b610725565b613bda8160e0015161389e565b613bf7816020015182606001518360400151858560000151612bb8565b610100820181905261072590612c43565b6000610959826801158e460913d0000063ffffffff6124ab16565b613c3c826801158e460913d0000063ffffffff6124ab16565b8111156109895760405162461bcd60e51b81526004016106ff90615013565b600080600085613cea5760405163d3d6f84360e01b81526001600160a01b038a169063d3d6f84390613c93908b908b906004016148b1565b602060405180830381600087803b158015613cad57600080fd5b505af1158015613cc1573d6000803e3d6000fd5b505050506040513d601f19601f82011682018060405250810190613ce5919061451f565b613d6a565b6040516372423c1760e01b81526001600160a01b038a16906372423c1790613d18908b908b906004016148b1565b602060405180830381600087803b158015613d3257600080fd5b505af1158015613d46573d6000803e3d6000fd5b505050506040513d601f19601f82011682018060405250810190613d6a919061451f565b9050600084613df857604051630930874960e11b81526001600160a01b038b16906312610e9290613da1908c908a906004016148b1565b602060405180830381600087803b158015613dbb57600080fd5b505af1158015613dcf573d6000803e3d6000fd5b505050506040513d601f19601f82011682018060405250810190613df3919061451f565b613e78565b604051639976cf4560e01b81526001600160a01b038b1690639976cf4590613e26908c908a906004016148b1565b602060405180830381600087803b158015613e4057600080fd5b505af1158015613e54573d6000803e3d6000fd5b505050506040513d601f19601f82011682018060405250810190613e78919061451f565b919a91995090975050505050505050565b6000806000613e9c898989898989614046565b915091506000613eac83836137c4565b9a9950505050505050505050565b8215613ed257613ecd89898387866139bf565b613ede565b613ede89898987612ce8565b8415613ef357613eee8987613943565b610df9565b6040516364a197f360e01b81526001600160a01b038a16906364a197f390613f21908a908a906004016148b1565b600060405180830381600087803b158015613f3b57600080fd5b505af1158015613f4f573d6000803e3d6000fd5b50505050505050505050505050565b600080613f696113a1565b90506000613f75610ef5565b9050613f82828286613785565b949350505050565b6000613fa8836137a386670de0b6b3a764000063ffffffff613fca16565b9050818111156107255760405162461bcd60e51b81526004016106ff90615200565b600082613fd9575060006124f0565b82820282848281613fe657fe5b04146124ed5760405162461bcd60e51b81526004016106ff90614d2f565b60006124ed83836040518060400160405280601a81526020017f536166654d6174683a206469766973696f6e206279207a65726f0000000000008152506140da565b600080878786614065576140608a8963ffffffff6124ab16565b614075565b6140758a8963ffffffff6127a716565b91508461408c57613df3898763ffffffff6124ab16565b613e78898763ffffffff6127a716565b80156107115760405162461bcd60e51b81526004016106ff90614e5e565b808210156109895760405162461bcd60e51b81526004016106ff906151a3565b600081836140fb5760405162461bcd60e51b81526004016106ff9190614944565b50600083858161410757fe5b0495945050505050565b604080516060810182526000808252602082018190529181019190915290565b60405180610100016040528060008152602001600081526020016000815260200160008152602001600081526020016000815260200160008152602001600081525090565b604051806101e00160405280600081526020016000815260200160008152602001600015158152602001600081526020016000815260200160008152602001600081526020016000815260200160008152602001600081526020016000815260200160008152602001600081526020016000151581525090565b604080518082019091526000808252602082015290565b80356124f081615313565b60008083601f840112614223578182fd5b50813567ffffffffffffffff81111561423a578182fd5b602083019150836020828501011115613b6957600080fd5b600060808284031215614263578081fd5b50919050565b6000818303608081121561427b578182fd5b61428560606152e1565b9150604081121561429557600080fd5b506142a060406152e1565b82356142ab81615313565b808252506020830135602082015280825250604082013560208201526060820135604082015292915050565b6000602082840312156142e8578081fd5b81356124ed81615313565b600060208284031215614304578081fd5b81516124ed81615313565b60008060408385031215614321578081fd5b823561432c81615313565b9150602083013561433c81615313565b809150509250929050565b60008060006060848603121561435b578081fd5b833561436681615313565b9250602084013561437681615313565b9150604084013561438681615313565b809150509250925092565b6000806000806000806000806000806000806101808d8f0312156143b3578788fd5b8c356143be81615313565b9b5060208d01356143ce81615313565b9a5060408d01356143de81615313565b995060608d01356143ee81615313565b985060808d01356143fe81615313565b975060a08d013561440e81615313565b965061441d8e60c08f01614207565b955061442c8e60e08f01614207565b945061443c8e6101008f01614207565b935061444c8e6101208f01614207565b925061445c8e6101408f01614207565b915061446c8e6101608f01614207565b90509295989b509295989b509295989b565b60006020828403121561448f578081fd5b81516124ed81615328565b6000608082840312156144ab578081fd5b6124ed8383614252565b600080600060a084860312156144c9578283fd5b6144d38585614269565b9250608084013567ffffffffffffffff8111156144ee578283fd5b6144fa86828701614212565b9497909650939450505050565b600060208284031215614518578081fd5b5035919050565b600060208284031215614530578081fd5b5051919050565b60008060006060848603121561454b578283fd5b83359250602084013561437681615313565b60008060008060e08587031215614572578182fd5b84359350602085013561458481615313565b9250604085013561459481615313565b91506145a38660608701614252565b905092959194509250565b60008060008060008061010087890312156145c7578384fd5b8635955060208701356145d981615313565b945060408701356145e981615313565b93506145f88860608901614269565b925060e087013567ffffffffffffffff811115614613578283fd5b61461f89828a01614212565b979a9699509497509295939492505050565b60008060008060808587031215614646578182fd5b8435935060208501359250604085013561465f81615313565b9150606085013561466f81615313565b939692955090935050565b60008060008060008060c08789031215614692578384fd5b86359550602087013594506040870135935060608701356146b281615328565b925060808701356146c281615313565b915060a08701356146d281615313565b809150509295509295509295565b6000806000806000806000610140888a0312156146fb578081fd5b873596506020880135955060408801359450606088013561471b81615328565b9350608088013561472b81615313565b925060a088013561473b81615313565b915061474a8960c08a01614252565b905092959891949750929550565b60008060008060008060008060006101608a8c031215614776578283fd5b8935985060208a0135975060408a0135965060608a013561479681615328565b955060808a01356147a681615313565b945060a08a01356147b681615313565b93506147c58b60c08c01614269565b92506101408a013567ffffffffffffffff8111156147e1578283fd5b6147ed8c828d01614212565b8194508093505050509295985092959850929598565b600060208284031215614814578081fd5b813560ff811681146124ed578182fd5b80516001600160a01b03168252602090810151910152565b90565b7035b2bc9737bbb730b136329737bbb732b960791b815260110190565b6001600160a01b0391909116815260200190565b6001600160a01b0397881681529590961660208601526040850193909352606084019190915260ff16608083015260a082015260c081019190915260e00190565b6001600160a01b03929092168252602082015260400190565b6001600160a01b03948516815260208101939093529083166040830152909116606082015260800190565b6001600160a01b0393841681526020810192909252909116604082015260600190565b84815260208101849052604081018390526080810161493683615308565b606083015295945050505050565b6000602080835283518082850152825b8181101561497057858101830151858201604001528201614954565b818111156149815783604083870101525b50601f01601f1916929092016040019392505050565b6020808252603d908201527f426f72726f7765724f70733a2043616c6c657220646f65736e7420686176652060408201527f656e6f756768205a55534420746f206d616b652072657061796d656e74000000606082015260800190565b6020808252602d908201527f426f72726f7765724f70733a2053656e64696e672045544820746f204163746960408201526c1d99541bdbdb0819985a5b1959609a1b606082015260800190565b60208082526029908201527f444c4c52207472616e7366657272656420616d6f756e742076616c69646174696040820152681bdb8819985a5b195960ba1b606082015260800190565b6020808252601b908201527f536166654d6174683a206164646974696f6e206f766572666c6f770000000000604082015260600190565b6020808252601e908201527f5a555344206973206e6f7420626f72726f77656420636f72726563746c790000604082015260600190565b60208082526022908201527f4f776e61626c653a3a7365744f776e65723a20696e76616c6964206164647265604082015261737360f01b606082015260800190565b60208082526030908201527f426f72726f7765724f7065726174696f6e733a2043616e6e6f7420776974686460408201526f1c985dc8185b99081859190818dbdb1b60821b606082015260800190565b60208082526039908201527f426f72726f7765724f70733a204f7065726174696f6e206e6f74207065726d696040820152787474656420647572696e67205265636f76657279204d6f646560381b606082015260800190565b60208082526037908201527f426f72726f7765724f70733a204f7065726174696f6e206d757374206c65617660408201527632903a3937bb32903bb4ba341024a1a9101f1e9021a1a960491b606082015260800190565b6020808252601e908201527f4163636f756e742063616e6e6f74206265207a65726f20616464726573730000604082015260600190565b60208082526032908201527f4d6178206665652070657263656e74616765206d757374206c657373207468616040820152716e206f7220657175616c20746f203130302560701b606082015260800190565b60208082526046908201527f426f72726f7765724f70733a205468657265206d75737420626520656974686560408201527f72206120636f6c6c61746572616c206368616e6765206f7220612064656274206060820152656368616e676560d01b608082015260a00190565b60208082526021908201527f536166654d6174683a206d756c7469706c69636174696f6e206f766572666c6f6040820152607760f81b606082015260800190565b60208082526049908201527f426f72726f7765724f70733a20416e206f7065726174696f6e2074686174207760408201527f6f756c6420726573756c7420696e20544352203c20434352206973206e6f74206060820152681c195c9b5a5d1d195960ba1b608082015260a00190565b6020808252602e908201527f426f72726f7765724f70733a2054726f766520646f6573206e6f74206578697360408201526d1d081bdc881a5cc818db1bdcd95960921b606082015260800190565b60208082526017908201527613dddb98589b194e8e881858d8d95cdcc819195b9a5959604a1b604082015260600190565b6020808252603e908201527f426f72726f7765724f70733a20436f6c6c61746572616c20776974686472617760408201527f616c206e6f74207065726d6974746564205265636f76657279204d6f64650000606082015260800190565b60208082526037908201527f4661696c656420746f20617070726f7665205a55534420616d6f756e7420666f60408201527672204d796e74206d417373657420746f2072656465656d60481b606082015260800190565b60208082526049908201527f426f72726f7765724f70733a20416e206f7065726174696f6e2074686174207760408201527f6f756c6420726573756c7420696e20494352203c204d4352206973206e6f74206060820152681c195c9b5a5d1d195960ba1b608082015260a00190565b6020808252603a908201527f426f72726f7765724f70733a2054726f76652773206e65742064656274206d7560408201527f73742062652067726561746572207468616e206d696e696d756d000000000000606082015260800190565b6020808252818101527f4163636f756e7420636f64652073697a652063616e6e6f74206265207a65726f604082015260600190565b60208082526043908201527f426f72726f7765724f70733a20416d6f756e7420726570616964206d7573742060408201527f6e6f74206265206c6172676572207468616e207468652054726f76652773206460608201526219589d60ea1b608082015260a00190565b60208082526029908201527f426f72726f7765724f70733a2043616c6c6572206973206e6f742053746162696040820152681b1a5d1e48141bdbdb60ba1b606082015260800190565b60208082526030908201527f4d6178206665652070657263656e74616765206d75737420626520626574776560408201526f656e20302e352520616e64203130302560801b606082015260800190565b6020808252601c908201527f426f72726f7765724f70733a2054726f76652069732061637469766500000000604082015260600190565b60208082526037908201527f426f72726f7765724f70733a204465627420696e637265617365207265717569604082015276726573206e6f6e2d7a65726f20646562744368616e676560481b606082015260800190565b6020808252603e908201527f426f72726f7765724f70733a2043616e6e6f7420646563726561736520796f7560408201527f722054726f766527732049435220696e205265636f76657279204d6f64650000606082015260800190565b6020808252601d908201527f4665652065786365656465642070726f7669646564206d6178696d756d000000604082015260600190565b60208082526016908201527513585cdcd95d081859191c995cdcc81b9bdd081cd95d60521b604082015260600190565b6000610100615277838951614824565b60208801516040840152604088015160608401526152986080840188614824565b6001600160a01b03861660c084015260e083018190528201839052610120838582850137828401810191909152601f909201601f19160101949350505050565b90815260200190565b60405181810167ffffffffffffffff8111828210171561530057600080fd5b604052919050565b806003811061095c57fe5b6001600160a01b038116811461071157600080fd5b801515811461071157600080fdfec3770d654ed33aeea6bf11ac8ef05d02a6a04ed4686dd2f624d853bbec43cc8ba26469706673582212209d20681b7b6630050fbad5344b16d370ece553865b2bf0ccb789b394933ed00f64736f6c634300060b0033",
  "devdoc": {
    "kind": "dev",
    "methods": {
      "getOwner()": {
        "returns": {
          "_owner": "Address of the owner. "
        }
      },
      "setAddresses(address,address,address,address,address,address,address,address,address,address,address,address)": {
        "details": "initializer function, checks addresses are contracts",
        "params": {
          "_activePoolAddress": "ActivePool contract address",
          "_collSurplusPoolAddress": "CollSurplusPool contract address",
          "_defaultPoolAddress": "DefaultPool contract address",
          "_feeDistributorAddress": "feeDistributor contract address",
          "_gasPoolAddress": "GasPool contract address",
          "_liquityBaseParamsAddress": "LiquidityBaseParams contract address",
          "_priceFeedAddress": "PrideFeed contract address",
          "_sortedTrovesAddress": "SortedTroves contract address",
          "_stabilityPoolAddress": "StabilityPool contract address",
          "_troveManagerAddress": "TroveManager contract address",
          "_zeroStakingAddress": "ZEROStaking contract address",
          "_zusdTokenAddress": "ZUSDToken contract address"
        }
      },
      "setOwner(address)": {
        "params": {
          "_owner": "Address of the owner. "
        }
      },
      "withdrawZusdAndConvertToDLLR(uint256,uint256,address,address)": {
        "returns": {
          "_0": "DLLR amount minted"
        }
      }
    },
    "version": 1
  },
  "userdoc": {
    "kind": "user",
    "methods": {
      "MIN_NET_DEBT()": {
        "notice": "Minimum amount of net ZUSD debt a trove must have"
      },
      "ZUSD_GAS_COMPENSATION()": {
        "notice": "Amount of ZUSD to be locked in gas pool on opening troves"
      },
      "addColl(address,address)": {
        "notice": "Send ETH as collateral to a trove"
      },
      "claimCollateral()": {
        "notice": "Claim remaining collateral from a redemption or from a liquidation with ICR > MCR in Recovery Mode"
      },
      "closeNueTrove((uint256,uint8,bytes32,bytes32))": {
        "notice": "allows a borrower to repay all debt, withdraw all their collateral, and close their Trove. Requires the borrower have a NUE balance sufficient to repay their trove's debt, excluding gas compensation - i.e. `(debt - 50)` NUE. This method is identical to `closeTrove()`, but operates on NUE tokens instead of ZUSD."
      },
      "closeNueTroveWithPermit2(((address,uint256),uint256,uint256),bytes)": {
        "notice": "allows a borrower to repay all debt, withdraw all their collateral, and close their Trove. Requires the borrower have a NUE balance sufficient to repay their trove's debt, excluding gas compensation - i.e. `(debt - 50)` NUE. This method is identical to `closeTrove()`, but operates on NUE tokens instead of ZUSD."
      },
      "closeTrove()": {
        "notice": "allows a borrower to repay all debt, withdraw all their collateral, and close their Trove. Requires the borrower have a ZUSD balance sufficient to repay their trove's debt, excluding gas compensation - i.e. `(debt - 50)` ZUSD."
      },
      "constructor": "Constructor ",
      "getOwner()": {
        "notice": "Return address of the owner."
      },
      "moveETHGainToTrove(address,address,address)": {
        "notice": "Send ETH as collateral to a trove. Called by only the Stability Pool."
      },
      "permit2()": {
        "notice": "CONSTANT / IMMUTABLE VARIABLE ONLY "
      },
      "repayZUSD(uint256,address,address)": {
        "notice": "Repay ZUSD tokens to a Trove: Burn the repaid ZUSD tokens, and reduce the trove's debt accordingly"
      },
      "repayZusdFromDLLR(uint256,address,address,(uint256,uint8,bytes32,bytes32))": {
        "notice": "Repay ZUSD tokens to a Trove by DLLR: convert DLLR to ZUSD tokens, and then reduce the trove's debt accordingly"
      },
      "repayZusdFromDLLRWithPermit2(uint256,address,address,((address,uint256),uint256,uint256),bytes)": {
        "notice": "Repay ZUSD tokens to a Trove by DLLR: convert DLLR to ZUSD tokens, and then reduce the trove's debt accordingly"
      },
      "setAddresses(address,address,address,address,address,address,address,address,address,address,address,address)": {
        "notice": "Called only once on init, to set addresses of other Zero contracts. Callable only by owner"
      },
      "setOwner(address)": {
        "notice": "Set address of the owner (only owner can call this function)"
      },
      "withdrawColl(uint256,address,address)": {
        "notice": "Withdraw ETH collateral from a trove"
      },
      "withdrawZUSD(uint256,uint256,address,address)": {
        "notice": "Withdraw ZUSD tokens from a trove: mint new ZUSD tokens to the owner, and increase the trove's debt accordingly"
      },
      "withdrawZusdAndConvertToDLLR(uint256,uint256,address,address)": {
        "notice": "Borrow (withdraw) ZUSD tokens from a trove: mint new ZUSD tokens to the owner and convert it to DLLR in one transaction Zero Line of Credit owner can borrow a specified amount of ZUSD and convert it to DLLR via Sovryn Mynt"
      }
    },
    "version": 1
  },
  "storageLayout": {
    "storage": [
      {
        "astId": 5495,
        "contract": "contracts/BorrowerOperations.sol:BorrowerOperations",
        "label": "activePool",
        "offset": 0,
        "slot": "0",
        "type": "t_contract(IActivePool)19557"
      },
      {
        "astId": 5497,
        "contract": "contracts/BorrowerOperations.sol:BorrowerOperations",
        "label": "defaultPool",
        "offset": 0,
        "slot": "1",
        "type": "t_contract(IDefaultPool)20229"
      },
      {
        "astId": 5500,
        "contract": "contracts/BorrowerOperations.sol:BorrowerOperations",
        "label": "priceFeed",
        "offset": 0,
        "slot": "2",
        "type": "t_contract(IPriceFeed)20458"
      },
      {
        "astId": 5503,
        "contract": "contracts/BorrowerOperations.sol:BorrowerOperations",
        "label": "liquityBaseParams",
        "offset": 0,
        "slot": "3",
        "type": "t_contract(ILiquityBaseParams)20379"
      },
      {
        "astId": 4622,
        "contract": "contracts/BorrowerOperations.sol:BorrowerOperations",
        "label": "troveManager",
        "offset": 0,
        "slot": "4",
        "type": "t_contract(ITroveManager)21635"
      },
      {
        "astId": 4624,
        "contract": "contracts/BorrowerOperations.sol:BorrowerOperations",
        "label": "stabilityPoolAddress",
        "offset": 0,
        "slot": "5",
        "type": "t_address"
      },
      {
        "astId": 4626,
        "contract": "contracts/BorrowerOperations.sol:BorrowerOperations",
        "label": "gasPoolAddress",
        "offset": 0,
        "slot": "6",
        "type": "t_address"
      },
      {
        "astId": 4628,
        "contract": "contracts/BorrowerOperations.sol:BorrowerOperations",
        "label": "collSurplusPool",
        "offset": 0,
        "slot": "7",
        "type": "t_contract(ICollSurplusPool)20130"
      },
      {
        "astId": 4630,
        "contract": "contracts/BorrowerOperations.sol:BorrowerOperations",
        "label": "zeroStaking",
        "offset": 0,
        "slot": "8",
        "type": "t_contract(IZEROStaking)21760"
      },
      {
        "astId": 4632,
        "contract": "contracts/BorrowerOperations.sol:BorrowerOperations",
        "label": "zeroStakingAddress",
        "offset": 0,
        "slot": "9",
        "type": "t_address"
      },
      {
        "astId": 4634,
        "contract": "contracts/BorrowerOperations.sol:BorrowerOperations",
        "label": "zusdToken",
        "offset": 0,
        "slot": "10",
        "type": "t_contract(IZUSDToken)21842"
      },
      {
        "astId": 4636,
        "contract": "contracts/BorrowerOperations.sol:BorrowerOperations",
        "label": "sortedTroves",
        "offset": 0,
        "slot": "11",
        "type": "t_contract(ISortedTroves)20817"
      },
      {
        "astId": 4638,
        "contract": "contracts/BorrowerOperations.sol:BorrowerOperations",
        "label": "massetManager",
        "offset": 0,
        "slot": "12",
        "type": "t_contract(IMassetManager)6083"
      },
      {
        "astId": 4640,
        "contract": "contracts/BorrowerOperations.sol:BorrowerOperations",
        "label": "feeDistributor",
        "offset": 0,
        "slot": "13",
        "type": "t_contract(IFeeDistributor)20298"
      }
    ],
    "types": {
      "t_address": {
        "encoding": "inplace",
        "label": "address",
        "numberOfBytes": "20"
      },
      "t_contract(IActivePool)19557": {
        "encoding": "inplace",
        "label": "contract IActivePool",
        "numberOfBytes": "20"
      },
      "t_contract(ICollSurplusPool)20130": {
        "encoding": "inplace",
        "label": "contract ICollSurplusPool",
        "numberOfBytes": "20"
      },
      "t_contract(IDefaultPool)20229": {
        "encoding": "inplace",
        "label": "contract IDefaultPool",
        "numberOfBytes": "20"
      },
      "t_contract(IFeeDistributor)20298": {
        "encoding": "inplace",
        "label": "contract IFeeDistributor",
        "numberOfBytes": "20"
      },
      "t_contract(ILiquityBaseParams)20379": {
        "encoding": "inplace",
        "label": "contract ILiquityBaseParams",
        "numberOfBytes": "20"
      },
      "t_contract(IMassetManager)6083": {
        "encoding": "inplace",
        "label": "contract IMassetManager",
        "numberOfBytes": "20"
      },
      "t_contract(IPriceFeed)20458": {
        "encoding": "inplace",
        "label": "contract IPriceFeed",
        "numberOfBytes": "20"
      },
      "t_contract(ISortedTroves)20817": {
        "encoding": "inplace",
        "label": "contract ISortedTroves",
        "numberOfBytes": "20"
      },
      "t_contract(ITroveManager)21635": {
        "encoding": "inplace",
        "label": "contract ITroveManager",
        "numberOfBytes": "20"
      },
      "t_contract(IZEROStaking)21760": {
        "encoding": "inplace",
        "label": "contract IZEROStaking",
        "numberOfBytes": "20"
      },
      "t_contract(IZUSDToken)21842": {
        "encoding": "inplace",
        "label": "contract IZUSDToken",
        "numberOfBytes": "20"
      }
    }
  }
}