{
    "address": "0x34026C9A421644bc15059610CB94C779D046C25f",
    "abi": [
        {
            "inputs": [
                {
                    "internalType": "address",
                    "name": "_permit2",
                    "type": "address"
                }
            ],
            "stateMutability": "nonpayable",
            "type": "constructor"
        },
        {
            "anonymous": false,
            "inputs": [
                {
                    "indexed": false,
                    "internalType": "address",
                    "name": "_activePoolAddress",
                    "type": "address"
                }
            ],
            "name": "ActivePoolAddressChanged",
            "type": "event"
        },
        {
            "anonymous": false,
            "inputs": [
                {
                    "indexed": false,
                    "internalType": "address",
                    "name": "_collSurplusPoolAddress",
                    "type": "address"
                }
            ],
            "name": "CollSurplusPoolAddressChanged",
            "type": "event"
        },
        {
            "anonymous": false,
            "inputs": [
                {
                    "indexed": false,
                    "internalType": "address",
                    "name": "_defaultPoolAddress",
                    "type": "address"
                }
            ],
            "name": "DefaultPoolAddressChanged",
            "type": "event"
        },
        {
            "anonymous": false,
            "inputs": [
                {
                    "indexed": false,
                    "internalType": "address",
                    "name": "_feeDistributorAddress",
                    "type": "address"
                }
            ],
            "name": "FeeDistributorAddressChanged",
            "type": "event"
        },
        {
            "anonymous": false,
            "inputs": [
                {
                    "indexed": false,
                    "internalType": "address",
                    "name": "_gasPoolAddress",
                    "type": "address"
                }
            ],
            "name": "GasPoolAddressChanged",
            "type": "event"
        },
        {
            "anonymous": false,
            "inputs": [
                {
                    "indexed": false,
                    "internalType": "address",
                    "name": "_massetManagerAddress",
                    "type": "address"
                }
            ],
            "name": "MassetManagerAddressChanged",
            "type": "event"
        },
        {
            "anonymous": false,
            "inputs": [
                {
                    "indexed": true,
                    "internalType": "address",
                    "name": "previousOwner",
                    "type": "address"
                },
                {
                    "indexed": true,
                    "internalType": "address",
                    "name": "newOwner",
                    "type": "address"
                }
            ],
            "name": "OwnershipTransferred",
            "type": "event"
        },
        {
            "anonymous": false,
            "inputs": [
                {
                    "indexed": false,
                    "internalType": "address",
                    "name": "_newPriceFeedAddress",
                    "type": "address"
                }
            ],
            "name": "PriceFeedAddressChanged",
            "type": "event"
        },
        {
            "anonymous": false,
            "inputs": [
                {
                    "indexed": false,
                    "internalType": "address",
                    "name": "_sortedTrovesAddress",
                    "type": "address"
                }
            ],
            "name": "SortedTrovesAddressChanged",
            "type": "event"
        },
        {
            "anonymous": false,
            "inputs": [
                {
                    "indexed": false,
                    "internalType": "address",
                    "name": "_stabilityPoolAddress",
                    "type": "address"
                }
            ],
            "name": "StabilityPoolAddressChanged",
            "type": "event"
        },
        {
            "anonymous": false,
            "inputs": [
                {
                    "indexed": true,
                    "internalType": "address",
                    "name": "_borrower",
                    "type": "address"
                },
                {
                    "indexed": false,
                    "internalType": "uint256",
                    "name": "arrayIndex",
                    "type": "uint256"
                }
            ],
            "name": "TroveCreated",
            "type": "event"
        },
        {
            "anonymous": false,
            "inputs": [
                {
                    "indexed": false,
                    "internalType": "address",
                    "name": "_newTroveManagerAddress",
                    "type": "address"
                }
            ],
            "name": "TroveManagerAddressChanged",
            "type": "event"
        },
        {
            "anonymous": false,
            "inputs": [
                {
                    "indexed": true,
                    "internalType": "address",
                    "name": "_borrower",
                    "type": "address"
                },
                {
                    "indexed": false,
                    "internalType": "uint256",
                    "name": "_debt",
                    "type": "uint256"
                },
                {
                    "indexed": false,
                    "internalType": "uint256",
                    "name": "_coll",
                    "type": "uint256"
                },
                {
                    "indexed": false,
                    "internalType": "uint256",
                    "name": "stake",
                    "type": "uint256"
                },
                {
                    "indexed": false,
                    "internalType": "enum BorrowerOperations.BorrowerOperation",
                    "name": "operation",
                    "type": "uint8"
                }
            ],
            "name": "TroveUpdated",
            "type": "event"
        },
        {
            "anonymous": false,
            "inputs": [
                {
                    "indexed": false,
                    "internalType": "address",
                    "name": "_zeroStakingAddress",
                    "type": "address"
                }
            ],
            "name": "ZEROStakingAddressChanged",
            "type": "event"
        },
        {
            "anonymous": false,
            "inputs": [
                {
                    "indexed": true,
                    "internalType": "address",
                    "name": "_borrower",
                    "type": "address"
                },
                {
                    "indexed": false,
                    "internalType": "uint256",
                    "name": "_ZUSDFee",
                    "type": "uint256"
                }
            ],
            "name": "ZUSDBorrowingFeePaid",
            "type": "event"
        },
        {
            "anonymous": false,
            "inputs": [
                {
                    "indexed": false,
                    "internalType": "address",
                    "name": "_zusdTokenAddress",
                    "type": "address"
                }
            ],
            "name": "ZUSDTokenAddressChanged",
            "type": "event"
        },
        {
            "inputs": [],
            "name": "BORROWING_FEE_FLOOR",
            "outputs": [
                {
                    "internalType": "uint256",
                    "name": "",
                    "type": "uint256"
                }
            ],
            "stateMutability": "view",
            "type": "function"
        },
        {
            "inputs": [],
            "name": "DECIMAL_PRECISION",
            "outputs": [
                {
                    "internalType": "uint256",
                    "name": "",
                    "type": "uint256"
                }
            ],
            "stateMutability": "view",
            "type": "function"
        },
        {
            "inputs": [],
            "name": "MIN_NET_DEBT",
            "outputs": [
                {
                    "internalType": "uint256",
                    "name": "",
                    "type": "uint256"
                }
            ],
            "stateMutability": "view",
            "type": "function"
        },
        {
            "inputs": [],
            "name": "NAME",
            "outputs": [
                {
                    "internalType": "string",
                    "name": "",
                    "type": "string"
                }
            ],
            "stateMutability": "view",
            "type": "function"
        },
        {
            "inputs": [],
            "name": "ZUSD_GAS_COMPENSATION",
            "outputs": [
                {
                    "internalType": "uint256",
                    "name": "",
                    "type": "uint256"
                }
            ],
            "stateMutability": "view",
            "type": "function"
        },
        {
            "inputs": [],
            "name": "_100pct",
            "outputs": [
                {
                    "internalType": "uint256",
                    "name": "",
                    "type": "uint256"
                }
            ],
            "stateMutability": "view",
            "type": "function"
        },
        {
            "inputs": [],
            "name": "activePool",
            "outputs": [
                {
                    "internalType": "contract IActivePool",
                    "name": "",
                    "type": "address"
                }
            ],
            "stateMutability": "view",
            "type": "function"
        },
        {
            "inputs": [
                {
                    "internalType": "address",
                    "name": "_upperHint",
                    "type": "address"
                },
                {
                    "internalType": "address",
                    "name": "_lowerHint",
                    "type": "address"
                }
            ],
            "name": "addColl",
            "outputs": [],
            "stateMutability": "payable",
            "type": "function"
        },
        {
            "inputs": [
                {
                    "internalType": "uint256",
                    "name": "_maxFeePercentage",
                    "type": "uint256"
                },
                {
                    "internalType": "uint256",
                    "name": "_collWithdrawal",
                    "type": "uint256"
                },
                {
                    "internalType": "uint256",
                    "name": "_ZUSDChange",
                    "type": "uint256"
                },
                {
                    "internalType": "bool",
                    "name": "_isDebtIncrease",
                    "type": "bool"
                },
                {
                    "internalType": "address",
                    "name": "_upperHint",
                    "type": "address"
                },
                {
                    "internalType": "address",
                    "name": "_lowerHint",
                    "type": "address"
                },
                {
                    "components": [
                        {
                            "internalType": "uint256",
                            "name": "deadline",
                            "type": "uint256"
                        },
                        {
                            "internalType": "uint8",
                            "name": "v",
                            "type": "uint8"
                        },
                        {
                            "internalType": "bytes32",
                            "name": "r",
                            "type": "bytes32"
                        },
                        {
                            "internalType": "bytes32",
                            "name": "s",
                            "type": "bytes32"
                        }
                    ],
                    "internalType": "struct IMassetManager.PermitParams",
                    "name": "_permitParams",
                    "type": "tuple"
                }
            ],
            "name": "adjustNueTrove",
            "outputs": [],
            "stateMutability": "payable",
            "type": "function"
        },
        {
            "inputs": [
                {
                    "internalType": "uint256",
                    "name": "_maxFeePercentage",
                    "type": "uint256"
                },
                {
                    "internalType": "uint256",
                    "name": "_collWithdrawal",
                    "type": "uint256"
                },
                {
                    "internalType": "uint256",
                    "name": "_ZUSDChange",
                    "type": "uint256"
                },
                {
                    "internalType": "bool",
                    "name": "_isDebtIncrease",
                    "type": "bool"
                },
                {
                    "internalType": "address",
                    "name": "_upperHint",
                    "type": "address"
                },
                {
                    "internalType": "address",
                    "name": "_lowerHint",
                    "type": "address"
                },
                {
                    "components": [
                        {
                            "components": [
                                {
                                    "internalType": "address",
                                    "name": "token",
                                    "type": "address"
                                },
                                {
                                    "internalType": "uint256",
                                    "name": "amount",
                                    "type": "uint256"
                                }
                            ],
                            "internalType": "struct ISignatureTransfer.TokenPermissions",
                            "name": "permitted",
                            "type": "tuple"
                        },
                        {
                            "internalType": "uint256",
                            "name": "nonce",
                            "type": "uint256"
                        },
                        {
                            "internalType": "uint256",
                            "name": "deadline",
                            "type": "uint256"
                        }
                    ],
                    "internalType": "struct ISignatureTransfer.PermitTransferFrom",
                    "name": "_permit",
                    "type": "tuple"
                },
                {
                    "internalType": "bytes",
                    "name": "_signature",
                    "type": "bytes"
                }
            ],
            "name": "adjustNueTroveWithPermit2",
            "outputs": [],
            "stateMutability": "payable",
            "type": "function"
        },
        {
            "inputs": [
                {
                    "internalType": "uint256",
                    "name": "_maxFeePercentage",
                    "type": "uint256"
                },
                {
                    "internalType": "uint256",
                    "name": "_collWithdrawal",
                    "type": "uint256"
                },
                {
                    "internalType": "uint256",
                    "name": "_ZUSDChange",
                    "type": "uint256"
                },
                {
                    "internalType": "bool",
                    "name": "_isDebtIncrease",
                    "type": "bool"
                },
                {
                    "internalType": "address",
                    "name": "_upperHint",
                    "type": "address"
                },
                {
                    "internalType": "address",
                    "name": "_lowerHint",
                    "type": "address"
                }
            ],
            "name": "adjustTrove",
            "outputs": [],
            "stateMutability": "payable",
            "type": "function"
        },
        {
            "inputs": [],
            "name": "claimCollateral",
            "outputs": [],
            "stateMutability": "nonpayable",
            "type": "function"
        },
        {
            "inputs": [
                {
                    "components": [
                        {
                            "internalType": "uint256",
                            "name": "deadline",
                            "type": "uint256"
                        },
                        {
                            "internalType": "uint8",
                            "name": "v",
                            "type": "uint8"
                        },
                        {
                            "internalType": "bytes32",
                            "name": "r",
                            "type": "bytes32"
                        },
                        {
                            "internalType": "bytes32",
                            "name": "s",
                            "type": "bytes32"
                        }
                    ],
                    "internalType": "struct IMassetManager.PermitParams",
                    "name": "_permitParams",
                    "type": "tuple"
                }
            ],
            "name": "closeNueTrove",
            "outputs": [],
            "stateMutability": "nonpayable",
            "type": "function"
        },
        {
            "inputs": [
                {
                    "components": [
                        {
                            "components": [
                                {
                                    "internalType": "address",
                                    "name": "token",
                                    "type": "address"
                                },
                                {
                                    "internalType": "uint256",
                                    "name": "amount",
                                    "type": "uint256"
                                }
                            ],
                            "internalType": "struct ISignatureTransfer.TokenPermissions",
                            "name": "permitted",
                            "type": "tuple"
                        },
                        {
                            "internalType": "uint256",
                            "name": "nonce",
                            "type": "uint256"
                        },
                        {
                            "internalType": "uint256",
                            "name": "deadline",
                            "type": "uint256"
                        }
                    ],
                    "internalType": "struct ISignatureTransfer.PermitTransferFrom",
                    "name": "_permit",
                    "type": "tuple"
                },
                {
                    "internalType": "bytes",
                    "name": "_signature",
                    "type": "bytes"
                }
            ],
            "name": "closeNueTroveWithPermit2",
            "outputs": [],
            "stateMutability": "nonpayable",
            "type": "function"
        },
        {
            "inputs": [],
            "name": "closeTrove",
            "outputs": [],
            "stateMutability": "nonpayable",
            "type": "function"
        },
        {
            "inputs": [],
            "name": "defaultPool",
            "outputs": [
                {
                    "internalType": "contract IDefaultPool",
                    "name": "",
                    "type": "address"
                }
            ],
            "stateMutability": "view",
            "type": "function"
        },
        {
            "inputs": [],
            "name": "feeDistributor",
            "outputs": [
                {
                    "internalType": "contract IFeeDistributor",
                    "name": "",
                    "type": "address"
                }
            ],
            "stateMutability": "view",
            "type": "function"
        },
        {
            "inputs": [
                {
                    "internalType": "uint256",
                    "name": "_debt",
                    "type": "uint256"
                }
            ],
            "name": "getCompositeDebt",
            "outputs": [
                {
                    "internalType": "uint256",
                    "name": "",
                    "type": "uint256"
                }
            ],
            "stateMutability": "view",
            "type": "function"
        },
        {
            "inputs": [],
            "name": "getEntireSystemColl",
            "outputs": [
                {
                    "internalType": "uint256",
                    "name": "entireSystemColl",
                    "type": "uint256"
                }
            ],
            "stateMutability": "view",
            "type": "function"
        },
        {
            "inputs": [],
            "name": "getEntireSystemDebt",
            "outputs": [
                {
                    "internalType": "uint256",
                    "name": "entireSystemDebt",
                    "type": "uint256"
                }
            ],
            "stateMutability": "view",
            "type": "function"
        },
        {
            "inputs": [],
            "name": "getMassetManager",
            "outputs": [
                {
                    "internalType": "contract IMassetManager",
                    "name": "",
                    "type": "address"
                }
            ],
            "stateMutability": "view",
            "type": "function"
        },
        {
            "inputs": [],
            "name": "getOwner",
            "outputs": [
                {
                    "internalType": "address",
                    "name": "_owner",
                    "type": "address"
                }
            ],
            "stateMutability": "view",
            "type": "function"
        },
        {
            "inputs": [],
            "name": "liquityBaseParams",
            "outputs": [
                {
                    "internalType": "contract ILiquityBaseParams",
                    "name": "",
                    "type": "address"
                }
            ],
            "stateMutability": "view",
            "type": "function"
        },
        {
            "inputs": [],
            "name": "massetManager",
            "outputs": [
                {
                    "internalType": "contract IMassetManager",
                    "name": "",
                    "type": "address"
                }
            ],
            "stateMutability": "view",
            "type": "function"
        },
        {
            "inputs": [
                {
                    "internalType": "address",
                    "name": "_borrower",
                    "type": "address"
                },
                {
                    "internalType": "address",
                    "name": "_upperHint",
                    "type": "address"
                },
                {
                    "internalType": "address",
                    "name": "_lowerHint",
                    "type": "address"
                }
            ],
            "name": "moveETHGainToTrove",
            "outputs": [],
            "stateMutability": "payable",
            "type": "function"
        },
        {
            "inputs": [
                {
                    "internalType": "address",
                    "name": "owner",
                    "type": "address"
                }
            ],
            "name": "nonces",
            "outputs": [
                {
                    "internalType": "uint256",
                    "name": "",
                    "type": "uint256"
                }
            ],
            "stateMutability": "view",
            "type": "function"
        },
        {
            "inputs": [
                {
                    "internalType": "uint256",
                    "name": "_maxFeePercentage",
                    "type": "uint256"
                },
                {
                    "internalType": "uint256",
                    "name": "_ZUSDAmount",
                    "type": "uint256"
                },
                {
                    "internalType": "address",
                    "name": "_upperHint",
                    "type": "address"
                },
                {
                    "internalType": "address",
                    "name": "_lowerHint",
                    "type": "address"
                }
            ],
            "name": "openNueTrove",
            "outputs": [],
            "stateMutability": "payable",
            "type": "function"
        },
        {
            "inputs": [
                {
                    "internalType": "uint256",
                    "name": "_maxFeePercentage",
                    "type": "uint256"
                },
                {
                    "internalType": "uint256",
                    "name": "_ZUSDAmount",
                    "type": "uint256"
                },
                {
                    "internalType": "address",
                    "name": "_upperHint",
                    "type": "address"
                },
                {
                    "internalType": "address",
                    "name": "_lowerHint",
                    "type": "address"
                }
            ],
            "name": "openTrove",
            "outputs": [],
            "stateMutability": "payable",
            "type": "function"
        },
        {
            "inputs": [],
            "name": "permit2",
            "outputs": [
                {
                    "internalType": "contract IPermit2",
                    "name": "",
                    "type": "address"
                }
            ],
            "stateMutability": "view",
            "type": "function"
        },
        {
            "inputs": [],
            "name": "priceFeed",
            "outputs": [
                {
                    "internalType": "contract IPriceFeed",
                    "name": "",
                    "type": "address"
                }
            ],
            "stateMutability": "view",
            "type": "function"
        },
        {
            "inputs": [
                {
                    "internalType": "uint256",
                    "name": "_ZUSDAmount",
                    "type": "uint256"
                },
                {
                    "internalType": "address",
                    "name": "_upperHint",
                    "type": "address"
                },
                {
                    "internalType": "address",
                    "name": "_lowerHint",
                    "type": "address"
                }
            ],
            "name": "repayZUSD",
            "outputs": [],
            "stateMutability": "nonpayable",
            "type": "function"
        },
        {
            "inputs": [
                {
                    "internalType": "uint256",
                    "name": "_dllrAmount",
                    "type": "uint256"
                },
                {
                    "internalType": "address",
                    "name": "_upperHint",
                    "type": "address"
                },
                {
                    "internalType": "address",
                    "name": "_lowerHint",
                    "type": "address"
                },
                {
                    "components": [
                        {
                            "internalType": "uint256",
                            "name": "deadline",
                            "type": "uint256"
                        },
                        {
                            "internalType": "uint8",
                            "name": "v",
                            "type": "uint8"
                        },
                        {
                            "internalType": "bytes32",
                            "name": "r",
                            "type": "bytes32"
                        },
                        {
                            "internalType": "bytes32",
                            "name": "s",
                            "type": "bytes32"
                        }
                    ],
                    "internalType": "struct IMassetManager.PermitParams",
                    "name": "_permitParams",
                    "type": "tuple"
                }
            ],
            "name": "repayZusdFromDLLR",
            "outputs": [],
            "stateMutability": "nonpayable",
            "type": "function"
        },
        {
            "inputs": [
                {
                    "internalType": "uint256",
                    "name": "_dllrAmount",
                    "type": "uint256"
                },
                {
                    "internalType": "address",
                    "name": "_upperHint",
                    "type": "address"
                },
                {
                    "internalType": "address",
                    "name": "_lowerHint",
                    "type": "address"
                },
                {
                    "components": [
                        {
                            "components": [
                                {
                                    "internalType": "address",
                                    "name": "token",
                                    "type": "address"
                                },
                                {
                                    "internalType": "uint256",
                                    "name": "amount",
                                    "type": "uint256"
                                }
                            ],
                            "internalType": "struct ISignatureTransfer.TokenPermissions",
                            "name": "permitted",
                            "type": "tuple"
                        },
                        {
                            "internalType": "uint256",
                            "name": "nonce",
                            "type": "uint256"
                        },
                        {
                            "internalType": "uint256",
                            "name": "deadline",
                            "type": "uint256"
                        }
                    ],
                    "internalType": "struct ISignatureTransfer.PermitTransferFrom",
                    "name": "_permit",
                    "type": "tuple"
                },
                {
                    "internalType": "bytes",
                    "name": "_signature",
                    "type": "bytes"
                }
            ],
            "name": "repayZusdFromDLLRWithPermit2",
            "outputs": [],
            "stateMutability": "nonpayable",
            "type": "function"
        },
        {
            "inputs": [
                {
                    "internalType": "address",
                    "name": "_feeDistributorAddress",
                    "type": "address"
                },
                {
                    "internalType": "address",
                    "name": "_liquityBaseParamsAddress",
                    "type": "address"
                },
                {
                    "internalType": "address",
                    "name": "_troveManagerAddress",
                    "type": "address"
                },
                {
                    "internalType": "address",
                    "name": "_activePoolAddress",
                    "type": "address"
                },
                {
                    "internalType": "address",
                    "name": "_defaultPoolAddress",
                    "type": "address"
                },
                {
                    "internalType": "address",
                    "name": "_stabilityPoolAddress",
                    "type": "address"
                },
                {
                    "internalType": "address",
                    "name": "_gasPoolAddress",
                    "type": "address"
                },
                {
                    "internalType": "address",
                    "name": "_collSurplusPoolAddress",
                    "type": "address"
                },
                {
                    "internalType": "address",
                    "name": "_priceFeedAddress",
                    "type": "address"
                },
                {
                    "internalType": "address",
                    "name": "_sortedTrovesAddress",
                    "type": "address"
                },
                {
                    "internalType": "address",
                    "name": "_zusdTokenAddress",
                    "type": "address"
                },
                {
                    "internalType": "address",
                    "name": "_zeroStakingAddress",
                    "type": "address"
                }
            ],
            "name": "setAddresses",
            "outputs": [],
            "stateMutability": "nonpayable",
            "type": "function"
        },
        {
            "inputs": [
                {
                    "internalType": "address",
                    "name": "_massetManagerAddress",
                    "type": "address"
                }
            ],
            "name": "setMassetManagerAddress",
            "outputs": [],
            "stateMutability": "nonpayable",
            "type": "function"
        },
        {
            "inputs": [
                {
                    "internalType": "address",
                    "name": "_owner",
                    "type": "address"
                }
            ],
            "name": "setOwner",
            "outputs": [],
            "stateMutability": "nonpayable",
            "type": "function"
        },
        {
            "inputs": [],
            "name": "sortedTroves",
            "outputs": [
                {
                    "internalType": "contract ISortedTroves",
                    "name": "",
                    "type": "address"
                }
            ],
            "stateMutability": "view",
            "type": "function"
        },
        {
            "inputs": [],
            "name": "troveManager",
            "outputs": [
                {
                    "internalType": "contract ITroveManager",
                    "name": "",
                    "type": "address"
                }
            ],
            "stateMutability": "view",
            "type": "function"
        },
        {
            "inputs": [
                {
                    "internalType": "uint256",
                    "name": "_collWithdrawal",
                    "type": "uint256"
                },
                {
                    "internalType": "address",
                    "name": "_upperHint",
                    "type": "address"
                },
                {
                    "internalType": "address",
                    "name": "_lowerHint",
                    "type": "address"
                }
            ],
            "name": "withdrawColl",
            "outputs": [],
            "stateMutability": "nonpayable",
            "type": "function"
        },
        {
            "inputs": [
                {
                    "internalType": "uint256",
                    "name": "_maxFeePercentage",
                    "type": "uint256"
                },
                {
                    "internalType": "uint256",
                    "name": "_ZUSDAmount",
                    "type": "uint256"
                },
                {
                    "internalType": "address",
                    "name": "_upperHint",
                    "type": "address"
                },
                {
                    "internalType": "address",
                    "name": "_lowerHint",
                    "type": "address"
                }
            ],
            "name": "withdrawZUSD",
            "outputs": [],
            "stateMutability": "nonpayable",
            "type": "function"
        },
        {
            "inputs": [
                {
                    "internalType": "uint256",
                    "name": "_maxFeePercentage",
                    "type": "uint256"
                },
                {
                    "internalType": "uint256",
                    "name": "_ZUSDAmount",
                    "type": "uint256"
                },
                {
                    "internalType": "address",
                    "name": "_upperHint",
                    "type": "address"
                },
                {
                    "internalType": "address",
                    "name": "_lowerHint",
                    "type": "address"
                }
            ],
            "name": "withdrawZusdAndConvertToDLLR",
            "outputs": [
                {
                    "internalType": "uint256",
                    "name": "",
                    "type": "uint256"
                }
            ],
            "stateMutability": "nonpayable",
            "type": "function"
        },
        {
            "inputs": [],
            "name": "zeroStaking",
            "outputs": [
                {
                    "internalType": "contract IZEROStaking",
                    "name": "",
                    "type": "address"
                }
            ],
            "stateMutability": "view",
            "type": "function"
        },
        {
            "inputs": [],
            "name": "zeroStakingAddress",
            "outputs": [
                {
                    "internalType": "address",
                    "name": "",
                    "type": "address"
                }
            ],
            "stateMutability": "view",
            "type": "function"
        },
        {
            "inputs": [],
            "name": "zusdToken",
            "outputs": [
                {
                    "internalType": "contract IZUSDToken",
                    "name": "",
                    "type": "address"
                }
            ],
            "stateMutability": "view",
            "type": "function"
        }
    ],
    "transactionHash": "0xfa480622a03373122956ab62ec6b47010a17c4d10fd73ff70458dcab4def7f20",
    "args": [
        "0x000000000022d473030f116ddee9f6b43ac78ba3"
    ],
    "numDeployments": 2,
    "solcInputHash": "e7cdf87ef534d009ab56c70cf33fd3be",
    "bytecode": "0x60a06040523480156200001157600080fd5b50604051620055fc380380620055fc833981016040819052620000349162000125565b8062000049336001600160e01b036200006016565b60601b6001600160601b03191660805250620001b4565b6001600160a01b038116620000925760405162461bcd60e51b8152600401620000899062000172565b60405180910390fd5b6001600160a01b038116620000af6001600160e01b036200010416565b6001600160a01b03167f8be0079c531659141344cd1fd0a4f28419497f9722a3daafe3b4186f6b6457e060405160405180910390a36000604051620000f49062000155565b6040519081900390209190915550565b600080604051620001159062000155565b6040519081900390205492915050565b60006020828403121562000137578081fd5b81516001600160a01b03811681146200014e578182fd5b9392505050565b7035b2bc9737bbb730b136329737bbb732b960791b815260110190565b60208082526022908201527f4f776e61626c653a3a7365744f776e65723a20696e76616c6964206164647265604082015261737360f01b606082015260800190565b60805160601c615420620001dc600039806106d05280611104528061237b52506154206000f3fe6080604052600436106102675760003560e01c8063795d26c311610144578063a20baee6116100b6578063c6a6cf201161007a578063c6a6cf201461062c578063e9fc34611461063f578063ea9638bf14610654578063ec5472fd14610667578063ec9f7d461461067c578063f92d34331461069157610267565b8063a20baee61461041f578063a3f4df7e146105c0578063ae918754146105e2578063afbc74b5146105f7578063b5c89bab1461061757610267565b8063860665b311610108578063860665b31461053b578063887105d31461054e578063893d20e814610563578063899fe15e146105785780638d5c3dc1146105985780639f070670146105ab57610267565b8063795d26c3146104b15780637d4f595d146104c65780637e3eefdc146104e65780637ecebe00146105065780637f7dde4a1461052657610267565b80634ff81443116101dd57806372fe25aa116101a157806372fe25aa1461041f578063734f622d14610434578063741bef1a14610454578063759b303414610469578063763a0ef31461047e5780637778a3db1461049157610267565b80634ff81443146103975780635530273c146103b757806368647db1146103d75780636ea56960146103ea5780636f0b0c1c1461040a57610267565b80631a7777171161022f5780631a777717146102f85780631bf43555146103185780632771510a1461033a5780633cc742251461035a5780633d83908a1461036f578063485f190f1461038457610267565b80630d43e8ad1461026c5780630e704d50146102975780630ff9a512146102ae57806312261ee7146102c357806313af4035146102d8575b600080fd5b34801561027857600080fd5b506102816106a6565b60405161028e91906148f0565b60405180910390f35b3480156102a357600080fd5b506102ac6106b5565b005b3480156102ba57600080fd5b506102816106bf565b3480156102cf57600080fd5b506102816106ce565b3480156102e457600080fd5b506102ac6102f336600461436b565b6106f2565b34801561030457600080fd5b506102ac6103133660046145f1565b61073f565b34801561032457600080fd5b5061032d610756565b60405161028e919061536d565b34801561034657600080fd5b506102ac61035536600461436b565b610763565b34801561036657600080fd5b506102816107f1565b34801561037b57600080fd5b50610281610800565b6102ac6103923660046146c5565b61080f565b3480156103a357600080fd5b5061032d6103b236600461459b565b610979565b3480156103c357600080fd5b506102ac6103d23660046145cb565b61098a565b6102ac6103e53660046143a3565b6109a0565b3480156103f657600080fd5b506102ac6104053660046146c5565b6109b6565b34801561041657600080fd5b506102ac6109c7565b34801561042b57600080fd5b5061032d610a25565b34801561044057600080fd5b506102ac61044f366004614425565b610a31565b34801561046057600080fd5b50610281610df5565b34801561047557600080fd5b5061032d610e04565b6102ac61048c3660046147ec565b610e11565b34801561049d57600080fd5b506102ac6104ac36600461452e565b610e2d565b3480156104bd57600080fd5b5061032d610f1e565b3480156104d257600080fd5b506102ac6104e1366004614549565b61103d565b3480156104f257600080fd5b5061032d6105013660046146c5565b61113d565b34801561051257600080fd5b5061032d61052136600461436b565b6113b8565b34801561053257600080fd5b506102816113d9565b6102ac6105493660046146c5565b6113e8565b34801561055a57600080fd5b5061032d6113f5565b34801561056f57600080fd5b506102816114c4565b34801561058457600080fd5b506102ac610593366004614642565b6114e3565b6102ac6105a6366004614774565b6114fe565b3480156105b757600080fd5b50610281611516565b3480156105cc57600080fd5b506105d5611525565b60405161028e91906149d9565b3480156105ee57600080fd5b50610281611553565b34801561060357600080fd5b506102ac6106123660046145cb565b611562565b34801561062357600080fd5b50610281611574565b6102ac61063a36600461470e565b611583565b34801561064b57600080fd5b50610281611592565b6102ac6106623660046143db565b6115a1565b34801561067357600080fd5b506102816115bb565b34801561068857600080fd5b506102816115ca565b34801561069d57600080fd5b5061032d6115d9565b600d546001600160a01b031681565b6106bd61165b565b565b6009546001600160a01b031681565b7f000000000000000000000000000000000000000000000000000000000000000081565b6106fa6114c4565b6001600160a01b0316336001600160a01b0316146107335760405162461bcd60e51b815260040161072a90614ec2565b60405180910390fd5b61073c81611a4a565b50565b610750600080866000878787611ad5565b50505050565b6809c2007651b250000081565b61076b6114c4565b6001600160a01b0316336001600160a01b03161461079b5760405162461bcd60e51b815260040161072a90614ec2565b600c80546001600160a01b0319166001600160a01b0383161790556040517f6926b3375b54960080b7d8a184061f39a02e8c3bf64aa9df7e75359fdc00d814906107e69083906148f0565b60405180910390a150565b6001546001600160a01b031681565b6004546001600160a01b031681565b600c546001600160a01b03166108375760405162461bcd60e51b815260040161072a906152cc565b6108448484848430611c8b565b600a54600c5460405163095ea7b360e01b81526001600160a01b039283169263095ea7b39261087a929116908790600401614945565b602060405180830381600087803b15801561089457600080fd5b505af11580156108a8573d6000803e3d6000fd5b505050506040513d601f19601f820116820180604052508101906108cc9190614512565b6108e85760405162461bcd60e51b815260040161072a90614f50565b600c54600a5460405163438b1b4b60e01b81526001600160a01b039283169263438b1b4b926109209291169087903390600401614989565b602060405180830381600087803b15801561093a57600080fd5b505af115801561094e573d6000803e3d6000fd5b505050506040513d601f19601f8201168201806040525081019061097291906145b3565b5050505050565b6000610984826122b6565b92915050565b61099b3384600080868660006122d1565b505050565b6109b2336000806000868660006122d1565b5050565b61075033600085600186868a6122d1565b60075460405163b32beb5b60e01b81526001600160a01b039091169063b32beb5b906109f79033906004016148f0565b600060405180830381600087803b158015610a1157600080fd5b505af1158015610750573d6000803e3d6000fd5b670de0b6b3a764000081565b610a396114c4565b6001600160a01b0316336001600160a01b031614610a695760405162461bcd60e51b815260040161072a90614ec2565b610a728c6122e1565b610a7b8b6122e1565b610a848a6122e1565b610a8d896122e1565b610a96886122e1565b610a9f876122e1565b610aa8866122e1565b610ab1856122e1565b610aba846122e1565b610ac3836122e1565b610acc826122e1565b610ad5816122e1565b600d80546001600160a01b03199081166001600160a01b038f8116919091179092556003805482168e84161790556004805482168d84161790556000805482168c84161790556001805482168b84161790556005805482168a8416179055600680548216898416179055600780548216888416179055600280548216878416179055600b80548216868416179055600a8054821685841617905560098054821692841692831790556008805490911690911790556040517f84861842e6a98dd759145eb5e7b48279d0f02ebeabc8a69e5196b2f4c5023db990610bb9908e906148f0565b60405180910390a17f143219c9e69b09e07e095fcc889b43d8f46ca892bba65f08dc3a0050869a56788a604051610bf091906148f0565b60405180910390a17f78f058b189175430c48dc02699e3a0031ea4ff781536dc2fab847de4babdd88289604051610c2791906148f0565b60405180910390a17f5ee0cae2f063ed938bb55046f6a932fb6ae792bf43624806bb90abe68a50be9b88604051610c5e91906148f0565b60405180910390a17f82966d27eea39b038ee0fa30cd16532bb24f6e65d31cb58fb227aa5766cdcc7f87604051610c9591906148f0565b60405180910390a17fcfb07d791fcafc032b35837b50eb84b74df518cf4cc287e8084f47630fa70fa086604051610ccc91906148f0565b60405180910390a17fe67f36a6e961157d6eff83b91f3af5a62131ceb6f04954ef74f51c1c05e7f88d85604051610d0391906148f0565b60405180910390a17f8c537274438aa850a330284665d81a85dd38267d09e4050d416bfc94142db26484604051610d3a91906148f0565b60405180910390a17f65f4cf077bc01e4742eb5ad98326f6e95b63548ea24b17f8d5e823111fe7880083604051610d7191906148f0565b60405180910390a17fcdf33850c44a1a874b5fefb51dae615ac6afebd581ef90d571f81b06541d8e9d82604051610da891906148f0565b60405180910390a17f7624075ed781e3aa34b0f492d70d1bb5a6fcde04534165e20f990d2e546be4dd81604051610ddf91906148f0565b60405180910390a1505050505050505050505050565b6002546001600160a01b031681565b6801158e460913d0000081565b610e22898989898989898989612326565b505050505050505050565b600c546001600160a01b0316610e555760405162461bcd60e51b815260040161072a906152cc565b6004805460405163d66a255360e01b81526000926001600160a01b039092169163d66a255391610e87913391016148f0565b60206040518083038186803b158015610e9f57600080fd5b505afa158015610eb3573d6000803e3d6000fd5b505050506040513d601f19601f82011682018060405250810190610ed791906145b3565b600c54909150610f15906001600160a01b0316610f03836801158e460913d0000063ffffffff61250916565b600a546001600160a01b031685612552565b506109b261165b565b60008054604080516272c7d360e71b8152905183926001600160a01b031691633963e980916004808301926020929190829003018186803b158015610f6257600080fd5b505afa158015610f76573d6000803e3d6000fd5b505050506040513d601f19601f82011682018060405250810190610f9a91906145b3565b90506000600160009054906101000a90046001600160a01b03166001600160a01b0316633963e9806040518163ffffffff1660e01b815260040160206040518083038186803b158015610fec57600080fd5b505afa158015611000573d6000803e3d6000fd5b505050506040513d601f19601f8201168201806040525081019061102491906145b3565b9050611036828263ffffffff61280316565b9250505090565b600c546001600160a01b03166110655760405162461bcd60e51b815260040161072a906152cc565b6004805460405163d66a255360e01b81526000926001600160a01b039092169163d66a255391611097913391016148f0565b60206040518083038186803b1580156110af57600080fd5b505afa1580156110c3573d6000803e3d6000fd5b505050506040513d601f19601f820116820180604052508101906110e791906145b3565b600c54600a5491925061112a916001600160a01b039182169116867f00000000000000000000000000000000000000000000000000000000000000008787612828565b5061113433612a75565b5061075061165b565b600a546040516370a0823160e01b8152600091309183916001600160a01b0316906370a08231906111729085906004016148f0565b60206040518083038186803b15801561118a57600080fd5b505afa15801561119e573d6000803e3d6000fd5b505050506040513d601f19601f820116820180604052508101906111c291906145b3565b90506111d233838888888c612aa7565b6111e2818763ffffffff61280316565b600a546040516370a0823160e01b81526001600160a01b03909116906370a08231906112129086906004016148f0565b60206040518083038186803b15801561122a57600080fd5b505afa15801561123e573d6000803e3d6000fd5b505050506040513d601f19601f8201168201806040525081019061126291906145b3565b1461127f5760405162461bcd60e51b815260040161072a90614b56565b600a54600c5460405163095ea7b360e01b81526001600160a01b039283169263095ea7b3926112b5929116908a90600401614945565b602060405180830381600087803b1580156112cf57600080fd5b505af11580156112e3573d6000803e3d6000fd5b505050506040513d601f19601f820116820180604052508101906113079190614512565b6113235760405162461bcd60e51b815260040161072a90614f50565b600c54600a5460405163438b1b4b60e01b81526001600160a01b039283169263438b1b4b9261135b929116908a903390600401614989565b602060405180830381600087803b15801561137557600080fd5b505af1158015611389573d6000803e3d6000fd5b505050506040513d601f19601f820116820180604052508101906113ad91906145b3565b979650505050505050565b6001600160a01b0381166000908152600e6020526040812061098490612ab9565b6000546001600160a01b031681565b6107508484848433611c8b565b6000805460408051630a7b61df60e11b8152905183926001600160a01b0316916314f6c3be916004808301926020929190829003018186803b15801561143a57600080fd5b505afa15801561144e573d6000803e3d6000fd5b505050506040513d601f19601f8201168201806040525081019061147291906145b3565b90506000600160009054906101000a90046001600160a01b03166001600160a01b03166314f6c3be6040518163ffffffff1660e01b815260040160206040518083038186803b158015610fec57600080fd5b6000806040516114d3906148d3565b6040519081900390205492915050565b6114f66000808860008989898989612326565b505050505050565b61150d87878787878787611ad5565b50505050505050565b6003546001600160a01b031681565b60405180604001604052806012815260200171426f72726f7765724f7065726174696f6e7360701b81525081565b600b546001600160a01b031681565b61099b336000856000868660006122d1565b600c546001600160a01b031681565b6114f63386868686868c6122d1565b600c546001600160a01b031690565b6115a9612abd565b61099b836000806000868660006122d1565b6008546001600160a01b031681565b600a546001600160a01b031681565b6003546040805163f92d343360e01b815290516000926001600160a01b03169163f92d3433916004808301926020929190829003018186803b15801561161e57600080fd5b505afa158015611632573d6000803e3d6000fd5b505050506040513d601f19601f8201168201806040525081019061165691906145b3565b905090565b600454600054600a546001600160a01b0392831692918216911661167f8333612ae7565b60025460408051630fdb11cf60e01b815290516000926001600160a01b031691630fdb11cf91600480830192602092919082900301818787803b1580156116c557600080fd5b505af11580156116d9573d6000803e3d6000fd5b505050506040513d601f19601f820116820180604052508101906116fd91906145b3565b905061170881612b88565b604051630b07655760e01b81526001600160a01b03851690630b076557906117349033906004016148f0565b600060405180830381600087803b15801561174e57600080fd5b505af1158015611762573d6000803e3d6000fd5b50506040516309019aaf60e31b8152600092506001600160a01b038716915063480cd578906117959033906004016148f0565b60206040518083038186803b1580156117ad57600080fd5b505afa1580156117c1573d6000803e3d6000fd5b505050506040513d601f19601f820116820180604052508101906117e591906145b3565b90506000856001600160a01b031663d66a2553336040518263ffffffff1660e01b815260040161181591906148f0565b60206040518083038186803b15801561182d57600080fd5b505afa158015611841573d6000803e3d6000fd5b505050506040513d601f19601f8201168201806040525081019061186591906145b3565b905061188a8433611885846801158e460913d0000063ffffffff61250916565b612bae565b600061189b83600084600088612c4a565b90506118a681612cd5565b604051631fc5750960e31b81526001600160a01b0388169063fe2ba848906118d29033906004016148f0565b600060405180830381600087803b1580156118ec57600080fd5b505af1158015611900573d6000803e3d6000fd5b50506040516365e89c5760e11b81526001600160a01b038a16925063cbd138ae91506119309033906004016148f0565b600060405180830381600087803b15801561194a57600080fd5b505af115801561195e573d6000803e3d6000fd5b50505050336001600160a01b03166000805160206153cb8339815191526000806000600160405161199294939291906149ac565b60405180910390a26119be8686336119b9866801158e460913d0000063ffffffff61250916565b612d7a565b6006546119e190879087906001600160a01b03166801158e460913d00000612d7a565b6040516364a197f360e01b81526001600160a01b038716906364a197f390611a0f9033908790600401614945565b600060405180830381600087803b158015611a2957600080fd5b505af1158015611a3d573d6000803e3d6000fd5b5050505050505050505050565b6001600160a01b038116611a705760405162461bcd60e51b815260040161072a90614b8d565b806001600160a01b0316611a826114c4565b6001600160a01b03167f8be0079c531659141344cd1fd0a4f28419497f9722a3daafe3b4186f6b6457e060405160405180910390a36000604051611ac5906148d3565b6040519081900390209190915550565b600c546001600160a01b0316611afd5760405162461bcd60e51b815260040161072a906152cc565b83158015611b0b5750600085115b15611b3157600c54600a54611b2f916001600160a01b039081169188911684612552565b505b611b413387878787878d30612e34565b838015611b4e5750600085115b1561150d57600a54600c5460405163095ea7b360e01b81526001600160a01b039283169263095ea7b392611b89929116908990600401614945565b602060405180830381600087803b158015611ba357600080fd5b505af1158015611bb7573d6000803e3d6000fd5b505050506040513d601f19601f82011682018060405250810190611bdb9190614512565b611bf75760405162461bcd60e51b815260040161072a90614f50565b600c54600a5460405163438b1b4b60e01b81526001600160a01b039283169263438b1b4b92611c2f9291169089903390600401614989565b602060405180830381600087803b158015611c4957600080fd5b505af1158015611c5d573d6000803e3d6000fd5b505050506040513d601f19601f82011682018060405250810190611c8191906145b3565b5050505050505050565b611c936141ab565b50604080516060810182526004546001600160a01b03908116825260005481166020830152600a541691810191909152611ccb6141cb565b600260009054906101000a90046001600160a01b03166001600160a01b0316630fdb11cf6040518163ffffffff1660e01b8152600401602060405180830381600087803b158015611d1b57600080fd5b505af1158015611d2f573d6000803e3d6000fd5b505050506040513d601f19601f82011682018060405250810190611d5391906145b3565b808252600090611d629061340c565b9050611d6e88826134a7565b8251611d7a9033613593565b6040820187905280611dbb57611d9a83600001518460400151898b613635565b602083018190526040830151611db59163ffffffff61280316565b60408301525b611dc882604001516137ee565b611dd582604001516122b6565b60608301819052611de257fe5b611df53483606001518460000151613817565b60808301526060820151611e0a903490613855565b60a08301528015611e2757611e22826080015161388a565b611e5a565b611e34826080015161392f565b6000611e4d346001856060015160018760000151612c4a565b9050611e5881612cd5565b505b8251604051635d6b480f60e01b81526001600160a01b0390911690635d6b480f90611e8c903390600190600401614945565b600060405180830381600087803b158015611ea657600080fd5b505af1158015611eba573d6000803e3d6000fd5b505084516040516372423c1760e01b81526001600160a01b0390911692506372423c179150611eef9033903490600401614945565b602060405180830381600087803b158015611f0957600080fd5b505af1158015611f1d573d6000803e3d6000fd5b505050506040513d601f19601f82011682018060405250810190611f4191906145b3565b5082516060830151604051639976cf4560e01b81526001600160a01b0390921691639976cf4591611f7791339190600401614945565b602060405180830381600087803b158015611f9157600080fd5b505af1158015611fa5573d6000803e3d6000fd5b505050506040513d601f19601f82011682018060405250810190611fc991906145b3565b5082516040516382fe3eb960e01b81526001600160a01b03909116906382fe3eb990611ff99033906004016148f0565b600060405180830381600087803b15801561201357600080fd5b505af1158015612027573d6000803e3d6000fd5b50508451604051630c7940bd60e11b81526001600160a01b0390911692506318f2817a915061205a9033906004016148f0565b602060405180830381600087803b15801561207457600080fd5b505af1158015612088573d6000803e3d6000fd5b505050506040513d601f19601f820116820180604052508101906120ac91906145b3565b60c0830152600b5460a08301516040516346f7cf8760e01b81526001600160a01b03909216916346f7cf87916120eb913391908b908b9060040161495e565b600060405180830381600087803b15801561210557600080fd5b505af1158015612119573d6000803e3d6000fd5b505084516040516315d549f160e01b81526001600160a01b0390911692506315d549f1915061214c9033906004016148f0565b602060405180830381600087803b15801561216657600080fd5b505af115801561217a573d6000803e3d6000fd5b505050506040513d601f19601f8201168201806040525081019061219e91906145b3565b60e0830181905260405133917f59cfd0cd754bc5748b6770e94a4ffa5f678d885cb899dcfadc5734edb97c67ab916121d6919061536d565b60405180910390a26121ec8360200151346139d4565b61220583602001518460400151868a8660400151613a50565b602083015160408401516006546122319291906001600160a01b03166801158e460913d0000080613a50565b606082015160c083015160405133926000805160206153cb8339815191529261225f923491906000906149ac565b60405180910390a2336001600160a01b03167f71457d8a5ab7e4561ed49d05338674b73ac3b83b0b315f165f5b12bcc002274183602001516040516122a4919061536d565b60405180910390a25050505050505050565b6000610984826801158e460913d0000063ffffffff61280316565b61150d8787878787878733612e34565b6001600160a01b0381166123075760405162461bcd60e51b815260040161072a90614ccf565b803b806109b25760405162461bcd60e51b815260040161072a90615073565b600c546001600160a01b031661234e5760405162461bcd60e51b815260040161072a906152cc565b8515801561235c5750600087115b156123ad57600c54600a546123a1916001600160a01b039081169116857f00000000000000000000000000000000000000000000000000000000000000008686612828565b506123ab33612a75565b505b6123bd3389898989898f30612e34565b8580156123ca5750600087115b15610e2257600a54600c5460405163095ea7b360e01b81526001600160a01b039283169263095ea7b392612405929116908b90600401614945565b602060405180830381600087803b15801561241f57600080fd5b505af1158015612433573d6000803e3d6000fd5b505050506040513d601f19601f820116820180604052508101906124579190614512565b6124735760405162461bcd60e51b815260040161072a90614f50565b600c54600a5460405163438b1b4b60e01b81526001600160a01b039283169263438b1b4b926124ab929116908b903390600401614989565b602060405180830381600087803b1580156124c557600080fd5b505af11580156124d9573d6000803e3d6000fd5b505050506040513d601f19601f820116820180604052508101906124fd91906145b3565b50505050505050505050565b600061254b83836040518060400160405280601e81526020017f536166654d6174683a207375627472616374696f6e206f766572666c6f770000815250613b0a565b9392505050565b600080856001600160a01b03166321df0da76040518163ffffffff1660e01b815260040160206040518083038186803b15801561258e57600080fd5b505afa1580156125a2573d6000803e3d6000fd5b505050506040513d601f19601f820116820180604052508101906125c69190614387565b90506000816001600160a01b03166370a08231306040518263ffffffff1660e01b81526004016125f691906148f0565b60206040518083038186803b15801561260e57600080fd5b505afa158015612622573d6000803e3d6000fd5b505050506040513d601f19601f8201168201806040525081019061264691906145b3565b9050306001600160a01b03831663605629d633838a893561266d60408c0160208d01614897565b8b604001358c606001356040518863ffffffff1660e01b81526004016126999796959493929190614904565b600060405180830381600087803b1580156126b357600080fd5b505af11580156126c7573d6000803e3d6000fd5b505050508661275883856001600160a01b03166370a08231856040518263ffffffff1660e01b81526004016126fc91906148f0565b60206040518083038186803b15801561271457600080fd5b505afa158015612728573d6000803e3d6000fd5b505050506040513d601f19601f8201168201806040525081019061274c91906145b3565b9063ffffffff61250916565b146127755760405162461bcd60e51b815260040161072a90614ad6565b60405163fb2c922360e01b81526001600160a01b0389169063fb2c9223906127a59089908b903390600401614989565b602060405180830381600087803b1580156127bf57600080fd5b505af11580156127d3573d6000803e3d6000fd5b505050506040513d601f19601f820116820180604052508101906127f791906145b3565b98975050505050505050565b60008282018381101561254b5760405162461bcd60e51b815260040161072a90614b1f565b600080876001600160a01b03166321df0da76040518163ffffffff1660e01b815260040160206040518083038186803b15801561286457600080fd5b505afa158015612878573d6000803e3d6000fd5b505050506040513d601f19601f8201168201806040525081019061289c9190614387565b90506000816001600160a01b03166370a08231306040518263ffffffff1660e01b81526004016128cc91906148f0565b60206040518083038186803b1580156128e457600080fd5b505afa1580156128f8573d6000803e3d6000fd5b505050506040513d601f19601f8201168201806040525081019061291c91906145b3565b87516020015190915030906001600160a01b0388166330f28b7a8a6129418585613b36565b338b8b6040518663ffffffff1660e01b81526004016129649594939291906152fc565b600060405180830381600087803b15801561297e57600080fd5b505af1158015612992573d6000803e3d6000fd5b50505050806129c784866001600160a01b03166370a08231866040518263ffffffff1660e01b81526004016126fc91906148f0565b146129e45760405162461bcd60e51b815260040161072a90614ad6565b60405163fb2c922360e01b81526001600160a01b038c169063fb2c922390612a14908d9085903390600401614989565b602060405180830381600087803b158015612a2e57600080fd5b505af1158015612a42573d6000803e3d6000fd5b505050506040513d601f19601f82011682018060405250810190612a6691906145b3565b9b9a5050505050505050505050565b6001600160a01b0381166000908152600e60205260408120612a9681612ab9565b9150612aa181613b68565b50919050565b6114f68660008660018787878c612e34565b5490565b6005546001600160a01b031633146106bd5760405162461bcd60e51b815260040161072a90615111565b6040516321e3780160e01b81526000906001600160a01b038416906321e3780190612b169085906004016148f0565b60206040518083038186803b158015612b2e57600080fd5b505afa158015612b42573d6000803e3d6000fd5b505050506040513d601f19601f82011682018060405250810190612b6691906145b3565b90508060011461099b5760405162461bcd60e51b815260040161072a90614e74565b612b918161340c565b1561073c5760405162461bcd60e51b815260040161072a90614c1f565b6040516370a0823160e01b815281906001600160a01b038516906370a0823190612bdc9086906004016148f0565b60206040518083038186803b158015612bf457600080fd5b505afa158015612c08573d6000803e3d6000fd5b505050506040513d601f19601f82011682018060405250810190612c2c91906145b3565b101561099b5760405162461bcd60e51b815260040161072a90614a2c565b600080612c556113f5565b90506000612c61610f1e565b905086612c7d57612c78828963ffffffff61250916565b612c8d565b612c8d828963ffffffff61280316565b915084612ca957612ca4818763ffffffff61250916565b612cb9565b612cb9818763ffffffff61280316565b90506000612cc8838387613817565b9998505050505050505050565b600360009054906101000a90046001600160a01b03166001600160a01b0316635733d58f6040518163ffffffff1660e01b815260040160206040518083038186803b158015612d2357600080fd5b505afa158015612d37573d6000803e3d6000fd5b505050506040513d601f19601f82011682018060405250810190612d5b91906145b3565b81101561073c5760405162461bcd60e51b815260040161072a90614e05565b60405163121cbc4d60e11b81526001600160a01b03851690632439789a90612da690849060040161536d565b600060405180830381600087803b158015612dc057600080fd5b505af1158015612dd4573d6000803e3d6000fd5b5050604051632770a7eb60e21b81526001600160a01b0386169250639dc29fac9150612e069085908590600401614945565b600060405180830381600087803b158015612e2057600080fd5b505af1158015611c81573d6000803e3d6000fd5b612e3c6141ab565b50604080516060810182526004546001600160a01b03908116825260005481166020830152600a541691810191909152612e74614210565b600260009054906101000a90046001600160a01b03166001600160a01b0316630fdb11cf6040518163ffffffff1660e01b8152600401602060405180830381600087803b158015612ec457600080fd5b505af1158015612ed8573d6000803e3d6000fd5b505050506040513d601f19601f82011682018060405250810190612efc91906145b3565b808252612f089061340c565b15156101c08201528615612f2e57612f2584826101c001516134a7565b612f2e88613b71565b612f3789613b91565b612f418989613bb8565b8151612f4d908b612ae7565b336001600160a01b038b161480612f8357506005546001600160a01b031633148015612f795750600034115b8015612f83575087155b612f8957fe5b8151604051630b07655760e01b81526001600160a01b0390911690630b07655790612fb8908d906004016148f0565b600060405180830381600087803b158015612fd257600080fd5b505af1158015612fe6573d6000803e3d6000fd5b50505050612ff4348a613beb565b151560608301526020820152604081018890528680156130175750806101c00151155b1561305257613030826000015183604001518a87613635565b6101208201819052604082015161304c9163ffffffff61280316565b60408201525b815160405163d66a255360e01b81526001600160a01b039091169063d66a255390613081908d906004016148f0565b60206040518083038186803b15801561309957600080fd5b505afa1580156130ad573d6000803e3d6000fd5b505050506040513d601f19601f820116820180604052508101906130d191906145b3565b608082015281516040516309019aaf60e31b81526001600160a01b039091169063480cd57890613105908d906004016148f0565b60206040518083038186803b15801561311d57600080fd5b505afa158015613131573d6000803e3d6000fd5b505050506040513d601f19601f8201168201806040525081019061315591906145b3565b60a082018190526080820151825161316e929190613817565b8160c001818152505061319e8160a0015182608001518360200151846060015185604001518c8760000151613c0a565b60e082015260a08101518911156131b157fe5b6131c2816101c001518a8984613c2e565b861580156131d05750600088115b15613217576131f26131ed826040015161274c8460800151613ca2565b6137ee565b61320481608001518260400151613cbd565b61321782604001518b8360400151612bae565b61323582600001518b8360200151846060015185604001518c613cf5565b6101408301526101608201528151604051630c7940bd60e11b81526001600160a01b03909116906318f2817a90613270908d906004016148f0565b602060405180830381600087803b15801561328a57600080fd5b505af115801561329e573d6000803e3d6000fd5b505050506040513d601f19601f820116820180604052508101906132c291906145b3565b816101800181815250506132ee8160a0015182608001518360200151846060015185604001518c613f23565b6101a08201819052600b5460405163015f109360e51b81526001600160a01b0390911691632be212609161332a918e918b908b9060040161495e565b600060405180830381600087803b15801561334457600080fd5b505af1158015613358573d6000803e3d6000fd5b50505050896001600160a01b03166000805160206153cb833981519152826101400151836101600151846101800151600260405161339994939291906149ac565b60405180910390a2336001600160a01b03167f71457d8a5ab7e4561ed49d05338674b73ac3b83b0b315f165f5b12bcc00227418261012001516040516133df919061536d565b60405180910390a26124fd8260200151836040015133846020015185606001518d8d88604001518b613f54565b60008061341883613ff8565b9050600360009054906101000a90046001600160a01b03166001600160a01b0316635733d58f6040518163ffffffff1660e01b815260040160206040518083038186803b15801561346857600080fd5b505afa15801561347c573d6000803e3d6000fd5b505050506040513d601f19601f820116820180604052508101906134a091906145b3565b1192915050565b80156134da57670de0b6b3a76400008211156134d55760405162461bcd60e51b815260040161072a90614d06565b6109b2565b600360009054906101000a90046001600160a01b03166001600160a01b031663f92d34336040518163ffffffff1660e01b815260040160206040518083038186803b15801561352857600080fd5b505afa15801561353c573d6000803e3d6000fd5b505050506040513d601f19601f8201168201806040525081019061356091906145b3565b82101580156135775750670de0b6b3a76400008211155b6109b25760405162461bcd60e51b815260040161072a9061515a565b6040516321e3780160e01b81526000906001600160a01b038416906321e37801906135c29085906004016148f0565b60206040518083038186803b1580156135da57600080fd5b505afa1580156135ee573d6000803e3d6000fd5b505050506040513d601f19601f8201168201806040525081019061361291906145b3565b9050806001141561099b5760405162461bcd60e51b815260040161072a906151aa565b6000846001600160a01b0316635dba4c4a6040518163ffffffff1660e01b8152600401600060405180830381600087803b15801561367257600080fd5b505af1158015613686573d6000803e3d6000fd5b5050604051630631203b60e41b8152600092506001600160a01b038816915063631203b0906136b990879060040161536d565b60206040518083038186803b1580156136d157600080fd5b505afa1580156136e5573d6000803e3d6000fd5b505050506040513d601f19601f8201168201806040525081019061370991906145b3565b9050613716818585614024565b600d546040516340c10f1960e01b81526001600160a01b03878116926340c10f199261374a92909116908590600401614945565b600060405180830381600087803b15801561376457600080fd5b505af1158015613778573d6000803e3d6000fd5b50505050600d60009054906101000a90046001600160a01b03166001600160a01b031663bb57ad206040518163ffffffff1660e01b8152600401600060405180830381600087803b1580156137cc57600080fd5b505af11580156137e0573d6000803e3d6000fd5b509298975050505050505050565b6809c2007651b250000081101561073c5760405162461bcd60e51b815260040161072a90615016565b6000821561384a57600061384184613835878663ffffffff61406416565b9063ffffffff61409e16565b915061254b9050565b506000199392505050565b600081156138815761387a826138358568056bc75e2d6310000063ffffffff61406416565b9050610984565b50600019610984565b600360009054906101000a90046001600160a01b03166001600160a01b0316635733d58f6040518163ffffffff1660e01b815260040160206040518083038186803b1580156138d857600080fd5b505afa1580156138ec573d6000803e3d6000fd5b505050506040513d601f19601f8201168201806040525081019061391091906145b3565b81101561073c5760405162461bcd60e51b815260040161072a90614c78565b600360009054906101000a90046001600160a01b03166001600160a01b031663794e57246040518163ffffffff1660e01b815260040160206040518083038186803b15801561397d57600080fd5b505afa158015613991573d6000803e3d6000fd5b505050506040513d601f19601f820116820180604052508101906139b591906145b3565b81101561073c5760405162461bcd60e51b815260040161072a90614fa7565b6000826001600160a01b0316826040516139ed906148d0565b60006040518083038185875af1925050503d8060008114613a2a576040519150601f19603f3d011682016040523d82523d6000602084013e613a2f565b606091505b505090508061099b5760405162461bcd60e51b815260040161072a90614a89565b60405163f2e91d7160e01b81526001600160a01b0386169063f2e91d7190613a7c90849060040161536d565b600060405180830381600087803b158015613a9657600080fd5b505af1158015613aaa573d6000803e3d6000fd5b50506040516340c10f1960e01b81526001600160a01b03871692506340c10f199150613adc9086908690600401614945565b600060405180830381600087803b158015613af657600080fd5b505af1158015610e22573d6000803e3d6000fd5b60008184841115613b2e5760405162461bcd60e51b815260040161072a91906149d9565b505050900390565b613b3e61428a565b613b4661428a565b5050604080518082019091526001600160a01b03929092168252602082015290565b80546001019055565b6000811161073c5760405162461bcd60e51b815260040161072a906151e1565b341580613b9c575080155b61073c5760405162461bcd60e51b815260040161072a90614bcf565b34151580613bc557508115155b80613bcf57508015155b6109b25760405162461bcd60e51b815260040161072a90614d58565b6000808315613bff57508290506001613c03565b8291505b9250929050565b6000806000613c1d8a8a8a8a8a8a6140e0565b915091506000612a66838387613817565b8315613c6757613c3d83614136565b8115613c6257613c508160e0015161388a565b613c628160e001518260c00151614154565b610750565b613c748160e0015161392f565b613c91816020015182606001518360400151858560000151612c4a565b610100820181905261075090612cd5565b6000610984826801158e460913d0000063ffffffff61250916565b613cd6826801158e460913d0000063ffffffff61250916565b8111156109b25760405162461bcd60e51b815260040161072a906150a8565b600080600085613d845760405163d3d6f84360e01b81526001600160a01b038a169063d3d6f84390613d2d908b908b90600401614945565b602060405180830381600087803b158015613d4757600080fd5b505af1158015613d5b573d6000803e3d6000fd5b505050506040513d601f19601f82011682018060405250810190613d7f91906145b3565b613e04565b6040516372423c1760e01b81526001600160a01b038a16906372423c1790613db2908b908b90600401614945565b602060405180830381600087803b158015613dcc57600080fd5b505af1158015613de0573d6000803e3d6000fd5b505050506040513d601f19601f82011682018060405250810190613e0491906145b3565b9050600084613e9257604051630930874960e11b81526001600160a01b038b16906312610e9290613e3b908c908a90600401614945565b602060405180830381600087803b158015613e5557600080fd5b505af1158015613e69573d6000803e3d6000fd5b505050506040513d601f19601f82011682018060405250810190613e8d91906145b3565b613f12565b604051639976cf4560e01b81526001600160a01b038b1690639976cf4590613ec0908c908a90600401614945565b602060405180830381600087803b158015613eda57600080fd5b505af1158015613eee573d6000803e3d6000fd5b505050506040513d601f19601f82011682018060405250810190613f1291906145b3565b919a91995090975050505050505050565b6000806000613f368989898989896140e0565b915091506000613f468383613855565b9a9950505050505050505050565b8215613f6c57613f678989838786613a50565b613f78565b613f7889898987612d7a565b8415613f8d57613f8889876139d4565b610e22565b6040516364a197f360e01b81526001600160a01b038a16906364a197f390613fbb908a908a90600401614945565b600060405180830381600087803b158015613fd557600080fd5b505af1158015613fe9573d6000803e3d6000fd5b50505050505050505050505050565b6000806140036113f5565b9050600061400f610f1e565b905061401c828286613817565b949350505050565b60006140428361383586670de0b6b3a764000063ffffffff61406416565b9050818111156107505760405162461bcd60e51b815260040161072a90615295565b60008261407357506000610984565b8282028284828161408057fe5b041461254b5760405162461bcd60e51b815260040161072a90614dc4565b600061254b83836040518060400160405280601a81526020017f536166654d6174683a206469766973696f6e206279207a65726f000000000000815250614174565b6000808787866140ff576140fa8a8963ffffffff61250916565b61410f565b61410f8a8963ffffffff61280316565b91508461412657613e8d898763ffffffff61250916565b613f12898763ffffffff61280316565b801561073c5760405162461bcd60e51b815260040161072a90614ef3565b808210156109b25760405162461bcd60e51b815260040161072a90615238565b600081836141955760405162461bcd60e51b815260040161072a91906149d9565b5060008385816141a157fe5b0495945050505050565b604080516060810182526000808252602082018190529181019190915290565b60405180610100016040528060008152602001600081526020016000815260200160008152602001600081526020016000815260200160008152602001600081525090565b604051806101e00160405280600081526020016000815260200160008152602001600015158152602001600081526020016000815260200160008152602001600081526020016000815260200160008152602001600081526020016000815260200160008152602001600081526020016000151581525090565b604080518082019091526000808252602082015290565b8035610984816153a7565b60008083601f8401126142bd578182fd5b50813567ffffffffffffffff8111156142d4578182fd5b602083019150836020828501011115613c0357600080fd5b600060808284031215612aa1578081fd5b6000818303608081121561430f578182fd5b6143196060615376565b9150604081121561432957600080fd5b506143346040615376565b823561433f816153a7565b808252506020830135602082015280825250604082013560208201526060820135604082015292915050565b60006020828403121561437c578081fd5b813561254b816153a7565b600060208284031215614398578081fd5b815161254b816153a7565b600080604083850312156143b5578081fd5b82356143c0816153a7565b915060208301356143d0816153a7565b809150509250929050565b6000806000606084860312156143ef578081fd5b83356143fa816153a7565b9250602084013561440a816153a7565b9150604084013561441a816153a7565b809150509250925092565b6000806000806000806000806000806000806101808d8f031215614447578788fd5b8c35614452816153a7565b9b5060208d0135614462816153a7565b9a5060408d0135614472816153a7565b995060608d0135614482816153a7565b985060808d0135614492816153a7565b975060a08d01356144a2816153a7565b96506144b18e60c08f016142a1565b95506144c08e60e08f016142a1565b94506144d08e6101008f016142a1565b93506144e08e6101208f016142a1565b92506144f08e6101408f016142a1565b91506145008e6101608f016142a1565b90509295989b509295989b509295989b565b600060208284031215614523578081fd5b815161254b816153bc565b60006080828403121561453f578081fd5b61254b83836142ec565b600080600060a0848603121561455d578283fd5b61456785856142fd565b9250608084013567ffffffffffffffff811115614582578283fd5b61458e868287016142ac565b9497909650939450505050565b6000602082840312156145ac578081fd5b5035919050565b6000602082840312156145c4578081fd5b5051919050565b6000806000606084860312156145df578283fd5b83359250602084013561440a816153a7565b60008060008060e08587031215614606578182fd5b843593506020850135614618816153a7565b92506040850135614628816153a7565b915061463786606087016142ec565b905092959194509250565b600080600080600080610100878903121561465b578384fd5b86359550602087013561466d816153a7565b9450604087013561467d816153a7565b935061468c88606089016142fd565b925060e087013567ffffffffffffffff8111156146a7578283fd5b6146b389828a016142ac565b979a9699509497509295939492505050565b600080600080608085870312156146da578182fd5b843593506020850135925060408501356146f3816153a7565b91506060850135614703816153a7565b939692955090935050565b60008060008060008060c08789031215614726578384fd5b8635955060208701359450604087013593506060870135614746816153bc565b92506080870135614756816153a7565b915060a0870135614766816153a7565b809150509295509295509295565b6000806000806000806000610140888a03121561478f578081fd5b87359650602088013595506040880135945060608801356147af816153bc565b935060808801356147bf816153a7565b925060a08801356147cf816153a7565b91506147de8960c08a016142ec565b905092959891949750929550565b60008060008060008060008060006101608a8c03121561480a578283fd5b8935985060208a0135975060408a0135965060608a013561482a816153bc565b955060808a013561483a816153a7565b945060a08a013561484a816153a7565b93506148598b60c08c016142fd565b92506101408a013567ffffffffffffffff811115614875578283fd5b6148818c828d016142ac565b8194508093505050509295985092959850929598565b6000602082840312156148a8578081fd5b813560ff8116811461254b578182fd5b80516001600160a01b03168252602090810151910152565b90565b7035b2bc9737bbb730b136329737bbb732b960791b815260110190565b6001600160a01b0391909116815260200190565b6001600160a01b0397881681529590961660208601526040850193909352606084019190915260ff16608083015260a082015260c081019190915260e00190565b6001600160a01b03929092168252602082015260400190565b6001600160a01b03948516815260208101939093529083166040830152909116606082015260800190565b6001600160a01b0393841681526020810192909252909116604082015260600190565b8481526020810184905260408101839052608081016149ca8361539d565b82606083015295945050505050565b6000602080835283518082850152825b81811015614a05578581018301518582016040015282016149e9565b81811115614a165783604083870101525b50601f01601f1916929092016040019392505050565b6020808252603d908201527f426f72726f7765724f70733a2043616c6c657220646f65736e7420686176652060408201527f656e6f756768205a55534420746f206d616b652072657061796d656e74000000606082015260800190565b6020808252602d908201527f426f72726f7765724f70733a2053656e64696e672045544820746f204163746960408201526c1d99541bdbdb0819985a5b1959609a1b606082015260800190565b60208082526029908201527f444c4c52207472616e7366657272656420616d6f756e742076616c69646174696040820152681bdb8819985a5b195960ba1b606082015260800190565b6020808252601b908201527f536166654d6174683a206164646974696f6e206f766572666c6f770000000000604082015260600190565b6020808252601e908201527f5a555344206973206e6f7420626f72726f77656420636f72726563746c790000604082015260600190565b60208082526022908201527f4f776e61626c653a3a7365744f776e65723a20696e76616c6964206164647265604082015261737360f01b606082015260800190565b60208082526030908201527f426f72726f7765724f7065726174696f6e733a2043616e6e6f7420776974686460408201526f1c985dc8185b99081859190818dbdb1b60821b606082015260800190565b60208082526039908201527f426f72726f7765724f70733a204f7065726174696f6e206e6f74207065726d696040820152787474656420647572696e67205265636f76657279204d6f646560381b606082015260800190565b60208082526037908201527f426f72726f7765724f70733a204f7065726174696f6e206d757374206c65617660408201527632903a3937bb32903bb4ba341024a1a9101f1e9021a1a960491b606082015260800190565b6020808252601e908201527f4163636f756e742063616e6e6f74206265207a65726f20616464726573730000604082015260600190565b60208082526032908201527f4d6178206665652070657263656e74616765206d757374206c657373207468616040820152716e206f7220657175616c20746f203130302560701b606082015260800190565b60208082526046908201527f426f72726f7765724f70733a205468657265206d75737420626520656974686560408201527f72206120636f6c6c61746572616c206368616e6765206f7220612064656274206060820152656368616e676560d01b608082015260a00190565b60208082526021908201527f536166654d6174683a206d756c7469706c69636174696f6e206f766572666c6f6040820152607760f81b606082015260800190565b60208082526049908201527f426f72726f7765724f70733a20416e206f7065726174696f6e2074686174207760408201527f6f756c6420726573756c7420696e20544352203c20434352206973206e6f74206060820152681c195c9b5a5d1d195960ba1b608082015260a00190565b6020808252602e908201527f426f72726f7765724f70733a2054726f766520646f6573206e6f74206578697360408201526d1d081bdc881a5cc818db1bdcd95960921b606082015260800190565b60208082526017908201527613dddb98589b194e8e881858d8d95cdcc819195b9a5959604a1b604082015260600190565b6020808252603e908201527f426f72726f7765724f70733a20436f6c6c61746572616c20776974686472617760408201527f616c206e6f74207065726d6974746564205265636f76657279204d6f64650000606082015260800190565b60208082526037908201527f4661696c656420746f20617070726f7665205a55534420616d6f756e7420666f60408201527672204d796e74206d417373657420746f2072656465656d60481b606082015260800190565b60208082526049908201527f426f72726f7765724f70733a20416e206f7065726174696f6e2074686174207760408201527f6f756c6420726573756c7420696e20494352203c204d4352206973206e6f74206060820152681c195c9b5a5d1d195960ba1b608082015260a00190565b6020808252603a908201527f426f72726f7765724f70733a2054726f76652773206e65742064656274206d7560408201527f73742062652067726561746572207468616e206d696e696d756d000000000000606082015260800190565b6020808252818101527f4163636f756e7420636f64652073697a652063616e6e6f74206265207a65726f604082015260600190565b60208082526043908201527f426f72726f7765724f70733a20416d6f756e7420726570616964206d7573742060408201527f6e6f74206265206c6172676572207468616e207468652054726f76652773206460608201526219589d60ea1b608082015260a00190565b60208082526029908201527f426f72726f7765724f70733a2043616c6c6572206973206e6f742053746162696040820152681b1a5d1e48141bdbdb60ba1b606082015260800190565b60208082526030908201527f4d6178206665652070657263656e74616765206d75737420626520626574776560408201526f656e20302e352520616e64203130302560801b606082015260800190565b6020808252601c908201527f426f72726f7765724f70733a2054726f76652069732061637469766500000000604082015260600190565b60208082526037908201527f426f72726f7765724f70733a204465627420696e637265617365207265717569604082015276726573206e6f6e2d7a65726f20646562744368616e676560481b606082015260800190565b6020808252603e908201527f426f72726f7765724f70733a2043616e6e6f7420646563726561736520796f7560408201527f722054726f766527732049435220696e205265636f76657279204d6f64650000606082015260800190565b6020808252601d908201527f4665652065786365656465642070726f7669646564206d6178696d756d000000604082015260600190565b60208082526016908201527513585cdcd95d081859191c995cdcc81b9bdd081cd95d60521b604082015260600190565b600061010061530c8389516148b8565b602088015160408401526040880151606084015261532d60808401886148b8565b6001600160a01b03861660c084015260e083018190528201839052610120838582850137828401810191909152601f909201601f19160101949350505050565b90815260200190565b60405181810167ffffffffffffffff8111828210171561539557600080fd5b604052919050565b6003811061073c57fe5b6001600160a01b038116811461073c57600080fd5b801515811461073c57600080fdfec3770d654ed33aeea6bf11ac8ef05d02a6a04ed4686dd2f624d853bbec43cc8ba26469706673582212201e5f06f5ba28bb0d8ac52f9643ab68237caec4167b9805b2af5a212b33fba37864736f6c634300060b0033",
    "devdoc": {
        "kind": "dev",
        "methods": {
            "getOwner()": {
                "returns": {
                    "_owner": "Address of the owner. "
                }
            },
            "nonces(address)": {
                "details": "getter for currernt nonce",
                "params": {
                    "owner": "address of owner"
                },
                "returns": {
                    "_0": "current nonce of the owner's address"
                }
            },
            "setAddresses(address,address,address,address,address,address,address,address,address,address,address,address)": {
                "details": "initializer function, checks addresses are contracts",
                "params": {
                    "_activePoolAddress": "ActivePool contract address",
                    "_collSurplusPoolAddress": "CollSurplusPool contract address",
                    "_defaultPoolAddress": "DefaultPool contract address",
                    "_feeDistributorAddress": "feeDistributor contract address",
                    "_gasPoolAddress": "GasPool contract address",
                    "_liquityBaseParamsAddress": "LiquidityBaseParams contract address",
                    "_priceFeedAddress": "PrideFeed contract address",
                    "_sortedTrovesAddress": "SortedTroves contract address",
                    "_stabilityPoolAddress": "StabilityPool contract address",
                    "_troveManagerAddress": "TroveManager contract address",
                    "_zeroStakingAddress": "ZEROStaking contract address",
                    "_zusdTokenAddress": "ZUSDToken contract address"
                }
            },
            "setOwner(address)": {
                "params": {
                    "_owner": "Address of the owner. "
                }
            },
            "withdrawZusdAndConvertToDLLR(uint256,uint256,address,address)": {
                "returns": {
                    "_0": "DLLR amount minted"
                }
            }
        },
        "version": 1
    },
    "userdoc": {
        "kind": "user",
        "methods": {
            "MIN_NET_DEBT()": {
                "notice": "Minimum amount of net ZUSD debt a trove must have"
            },
            "ZUSD_GAS_COMPENSATION()": {
                "notice": "Amount of ZUSD to be locked in gas pool on opening troves"
            },
            "addColl(address,address)": {
                "notice": "Send ETH as collateral to a trove"
            },
            "claimCollateral()": {
                "notice": "Claim remaining collateral from a redemption or from a liquidation with ICR > MCR in Recovery Mode"
            },
            "closeNueTrove((uint256,uint8,bytes32,bytes32))": {
                "notice": "allows a borrower to repay all debt, withdraw all their collateral, and close their Trove. Requires the borrower have a NUE balance sufficient to repay their trove's debt, excluding gas compensation - i.e. `(debt - 50)` NUE. This method is identical to `closeTrove()`, but operates on NUE tokens instead of ZUSD."
            },
            "closeNueTroveWithPermit2(((address,uint256),uint256,uint256),bytes)": {
                "notice": "allows a borrower to repay all debt, withdraw all their collateral, and close their Trove. Requires the borrower have a NUE balance sufficient to repay their trove's debt, excluding gas compensation - i.e. `(debt - 50)` NUE. This method is identical to `closeTrove()`, but operates on NUE tokens instead of ZUSD."
            },
            "closeTrove()": {
                "notice": "allows a borrower to repay all debt, withdraw all their collateral, and close their Trove. Requires the borrower have a ZUSD balance sufficient to repay their trove's debt, excluding gas compensation - i.e. `(debt - 50)` ZUSD."
            },
            "constructor": "Constructor ",
            "getOwner()": {
                "notice": "Return address of the owner."
            },
            "moveETHGainToTrove(address,address,address)": {
                "notice": "Send ETH as collateral to a trove. Called by only the Stability Pool."
            },
            "repayZUSD(uint256,address,address)": {
                "notice": "Repay ZUSD tokens to a Trove: Burn the repaid ZUSD tokens, and reduce the trove's debt accordingly"
            },
            "repayZusdFromDLLR(uint256,address,address,(uint256,uint8,bytes32,bytes32))": {
                "notice": "Repay ZUSD tokens to a Trove by DLLR: convert DLLR to ZUSD tokens, and then reduce the trove's debt accordingly"
            },
            "repayZusdFromDLLRWithPermit2(uint256,address,address,((address,uint256),uint256,uint256),bytes)": {
                "notice": "Repay ZUSD tokens to a Trove by DLLR: convert DLLR to ZUSD tokens, and then reduce the trove's debt accordingly"
            },
            "setAddresses(address,address,address,address,address,address,address,address,address,address,address,address)": {
                "notice": "Called only once on init, to set addresses of other Zero contracts. Callable only by owner"
            },
            "setOwner(address)": {
                "notice": "Set address of the owner (only owner can call this function)"
            },
            "withdrawColl(uint256,address,address)": {
                "notice": "Withdraw ETH collateral from a trove"
            },
            "withdrawZUSD(uint256,uint256,address,address)": {
                "notice": "Withdraw ZUSD tokens from a trove: mint new ZUSD tokens to the owner, and increase the trove's debt accordingly"
            },
            "withdrawZusdAndConvertToDLLR(uint256,uint256,address,address)": {
                "notice": "Borrow (withdraw) ZUSD tokens from a trove: mint new ZUSD tokens to the owner and convert it to DLLR in one transaction Zero Line of Credit owner can borrow a specified amount of ZUSD and convert it to DLLR via Sovryn Mynt"
            }
        },
        "version": 1
    },
    "storageLayout": {
        "storage": [
            {
                "astId": 5501,
                "contract": "contracts/BorrowerOperations.sol:BorrowerOperations",
                "label": "activePool",
                "offset": 0,
                "slot": "0",
                "type": "t_contract(IActivePool)19564"
            },
            {
                "astId": 5503,
                "contract": "contracts/BorrowerOperations.sol:BorrowerOperations",
                "label": "defaultPool",
                "offset": 0,
                "slot": "1",
                "type": "t_contract(IDefaultPool)20236"
            },
            {
                "astId": 5506,
                "contract": "contracts/BorrowerOperations.sol:BorrowerOperations",
                "label": "priceFeed",
                "offset": 0,
                "slot": "2",
                "type": "t_contract(IPriceFeed)20465"
            },
            {
                "astId": 5509,
                "contract": "contracts/BorrowerOperations.sol:BorrowerOperations",
                "label": "liquityBaseParams",
                "offset": 0,
                "slot": "3",
                "type": "t_contract(ILiquityBaseParams)20386"
            },
            {
                "astId": 4628,
                "contract": "contracts/BorrowerOperations.sol:BorrowerOperations",
                "label": "troveManager",
                "offset": 0,
                "slot": "4",
                "type": "t_contract(ITroveManager)21642"
            },
            {
                "astId": 4630,
                "contract": "contracts/BorrowerOperations.sol:BorrowerOperations",
                "label": "stabilityPoolAddress",
                "offset": 0,
                "slot": "5",
                "type": "t_address"
            },
            {
                "astId": 4632,
                "contract": "contracts/BorrowerOperations.sol:BorrowerOperations",
                "label": "gasPoolAddress",
                "offset": 0,
                "slot": "6",
                "type": "t_address"
            },
            {
                "astId": 4634,
                "contract": "contracts/BorrowerOperations.sol:BorrowerOperations",
                "label": "collSurplusPool",
                "offset": 0,
                "slot": "7",
                "type": "t_contract(ICollSurplusPool)20137"
            },
            {
                "astId": 4636,
                "contract": "contracts/BorrowerOperations.sol:BorrowerOperations",
                "label": "zeroStaking",
                "offset": 0,
                "slot": "8",
                "type": "t_contract(IZEROStaking)21767"
            },
            {
                "astId": 4638,
                "contract": "contracts/BorrowerOperations.sol:BorrowerOperations",
                "label": "zeroStakingAddress",
                "offset": 0,
                "slot": "9",
                "type": "t_address"
            },
            {
                "astId": 4640,
                "contract": "contracts/BorrowerOperations.sol:BorrowerOperations",
                "label": "zusdToken",
                "offset": 0,
                "slot": "10",
                "type": "t_contract(IZUSDToken)21849"
            },
            {
                "astId": 4642,
                "contract": "contracts/BorrowerOperations.sol:BorrowerOperations",
                "label": "sortedTroves",
                "offset": 0,
                "slot": "11",
                "type": "t_contract(ISortedTroves)20824"
            },
            {
                "astId": 4644,
                "contract": "contracts/BorrowerOperations.sol:BorrowerOperations",
                "label": "massetManager",
                "offset": 0,
                "slot": "12",
                "type": "t_contract(IMassetManager)6089"
            },
            {
                "astId": 4646,
                "contract": "contracts/BorrowerOperations.sol:BorrowerOperations",
                "label": "feeDistributor",
                "offset": 0,
                "slot": "13",
                "type": "t_contract(IFeeDistributor)20305"
            },
            {
                "astId": 22943,
                "contract": "contracts/BorrowerOperations.sol:BorrowerOperations",
                "label": "_permit2Nonces",
                "offset": 0,
                "slot": "14",
                "type": "t_mapping(t_address,t_struct(Counter)5200_storage)"
            }
        ],
        "types": {
            "t_address": {
                "encoding": "inplace",
                "label": "address",
                "numberOfBytes": "20"
            },
            "t_contract(IActivePool)19564": {
                "encoding": "inplace",
                "label": "contract IActivePool",
                "numberOfBytes": "20"
            },
            "t_contract(ICollSurplusPool)20137": {
                "encoding": "inplace",
                "label": "contract ICollSurplusPool",
                "numberOfBytes": "20"
            },
            "t_contract(IDefaultPool)20236": {
                "encoding": "inplace",
                "label": "contract IDefaultPool",
                "numberOfBytes": "20"
            },
            "t_contract(IFeeDistributor)20305": {
                "encoding": "inplace",
                "label": "contract IFeeDistributor",
                "numberOfBytes": "20"
            },
            "t_contract(ILiquityBaseParams)20386": {
                "encoding": "inplace",
                "label": "contract ILiquityBaseParams",
                "numberOfBytes": "20"
            },
            "t_contract(IMassetManager)6089": {
                "encoding": "inplace",
                "label": "contract IMassetManager",
                "numberOfBytes": "20"
            },
            "t_contract(IPriceFeed)20465": {
                "encoding": "inplace",
                "label": "contract IPriceFeed",
                "numberOfBytes": "20"
            },
            "t_contract(ISortedTroves)20824": {
                "encoding": "inplace",
                "label": "contract ISortedTroves",
                "numberOfBytes": "20"
            },
            "t_contract(ITroveManager)21642": {
                "encoding": "inplace",
                "label": "contract ITroveManager",
                "numberOfBytes": "20"
            },
            "t_contract(IZEROStaking)21767": {
                "encoding": "inplace",
                "label": "contract IZEROStaking",
                "numberOfBytes": "20"
            },
            "t_contract(IZUSDToken)21849": {
                "encoding": "inplace",
                "label": "contract IZUSDToken",
                "numberOfBytes": "20"
            },
            "t_mapping(t_address,t_struct(Counter)5200_storage)": {
                "encoding": "mapping",
                "key": "t_address",
                "label": "mapping(address => struct Counters.Counter)",
                "numberOfBytes": "32",
                "value": "t_struct(Counter)5200_storage"
            },
            "t_struct(Counter)5200_storage": {
                "encoding": "inplace",
                "label": "struct Counters.Counter",
                "members": [
                    {
                        "astId": 5199,
                        "contract": "contracts/BorrowerOperations.sol:BorrowerOperations",
                        "label": "_value",
                        "offset": 0,
                        "slot": "0",
                        "type": "t_uint256"
                    }
                ],
                "numberOfBytes": "32"
            },
            "t_uint256": {
                "encoding": "inplace",
                "label": "uint256",
                "numberOfBytes": "32"
            }
        }
    }
}