{
    "address": "0xba8d7B80bcb3A01A5e713c356fD18EeD299B70D0",
    "abi": [
        {
            "anonymous": false,
            "inputs": [
                {
                    "indexed": true,
                    "internalType": "address",
                    "name": "_oldImplementation",
                    "type": "address"
                },
                {
                    "indexed": true,
                    "internalType": "address",
                    "name": "_newImplementation",
                    "type": "address"
                }
            ],
            "name": "ImplementationChanged",
            "type": "event"
        },
        {
            "anonymous": false,
            "inputs": [
                {
                    "indexed": true,
                    "internalType": "address",
                    "name": "previousOwner",
                    "type": "address"
                },
                {
                    "indexed": true,
                    "internalType": "address",
                    "name": "newOwner",
                    "type": "address"
                }
            ],
            "name": "OwnershipTransferred",
            "type": "event"
        },
        {
            "stateMutability": "payable",
            "type": "fallback"
        },
        {
            "inputs": [],
            "name": "getImplementation",
            "outputs": [
                {
                    "internalType": "address",
                    "name": "_implementation",
                    "type": "address"
                }
            ],
            "stateMutability": "view",
            "type": "function"
        },
        {
            "inputs": [],
            "name": "getOwner",
            "outputs": [
                {
                    "internalType": "address",
                    "name": "_owner",
                    "type": "address"
                }
            ],
            "stateMutability": "view",
            "type": "function"
        },
        {
            "inputs": [
                {
                    "internalType": "address",
                    "name": "_implementation",
                    "type": "address"
                }
            ],
            "name": "setImplementation",
            "outputs": [],
            "stateMutability": "nonpayable",
            "type": "function"
        },
        {
            "inputs": [
                {
                    "internalType": "address",
                    "name": "_owner",
                    "type": "address"
                }
            ],
            "name": "setOwner",
            "outputs": [],
            "stateMutability": "nonpayable",
            "type": "function"
        },
        {
            "stateMutability": "payable",
            "type": "receive"
        },
        {
            "inputs": [
                {
                    "internalType": "address",
                    "name": "_permit2",
                    "type": "address"
                }
            ],
            "stateMutability": "nonpayable",
            "type": "constructor"
        },
        {
            "anonymous": false,
            "inputs": [
                {
                    "indexed": false,
                    "internalType": "address",
                    "name": "_activePoolAddress",
                    "type": "address"
                }
            ],
            "name": "ActivePoolAddressChanged",
            "type": "event"
        },
        {
            "anonymous": false,
            "inputs": [
                {
                    "indexed": false,
                    "internalType": "address",
                    "name": "_collSurplusPoolAddress",
                    "type": "address"
                }
            ],
            "name": "CollSurplusPoolAddressChanged",
            "type": "event"
        },
        {
            "anonymous": false,
            "inputs": [
                {
                    "indexed": false,
                    "internalType": "address",
                    "name": "_defaultPoolAddress",
                    "type": "address"
                }
            ],
            "name": "DefaultPoolAddressChanged",
            "type": "event"
        },
        {
            "anonymous": false,
            "inputs": [
                {
                    "indexed": false,
                    "internalType": "address",
                    "name": "_feeDistributorAddress",
                    "type": "address"
                }
            ],
            "name": "FeeDistributorAddressChanged",
            "type": "event"
        },
        {
            "anonymous": false,
            "inputs": [
                {
                    "indexed": false,
                    "internalType": "address",
                    "name": "_gasPoolAddress",
                    "type": "address"
                }
            ],
            "name": "GasPoolAddressChanged",
            "type": "event"
        },
        {
            "anonymous": false,
            "inputs": [
                {
                    "indexed": false,
                    "internalType": "address",
                    "name": "_massetManagerAddress",
                    "type": "address"
                }
            ],
            "name": "MassetManagerAddressChanged",
            "type": "event"
        },
        {
            "anonymous": false,
            "inputs": [
                {
                    "indexed": true,
                    "internalType": "address",
                    "name": "previousOwner",
                    "type": "address"
                },
                {
                    "indexed": true,
                    "internalType": "address",
                    "name": "newOwner",
                    "type": "address"
                }
            ],
            "name": "OwnershipTransferred",
            "type": "event"
        },
        {
            "anonymous": false,
            "inputs": [
                {
                    "indexed": false,
                    "internalType": "address",
                    "name": "_newPriceFeedAddress",
                    "type": "address"
                }
            ],
            "name": "PriceFeedAddressChanged",
            "type": "event"
        },
        {
            "anonymous": false,
            "inputs": [
                {
                    "indexed": false,
                    "internalType": "address",
                    "name": "_sortedTrovesAddress",
                    "type": "address"
                }
            ],
            "name": "SortedTrovesAddressChanged",
            "type": "event"
        },
        {
            "anonymous": false,
            "inputs": [
                {
                    "indexed": false,
                    "internalType": "address",
                    "name": "_stabilityPoolAddress",
                    "type": "address"
                }
            ],
            "name": "StabilityPoolAddressChanged",
            "type": "event"
        },
        {
            "anonymous": false,
            "inputs": [
                {
                    "indexed": true,
                    "internalType": "address",
                    "name": "_borrower",
                    "type": "address"
                },
                {
                    "indexed": false,
                    "internalType": "uint256",
                    "name": "arrayIndex",
                    "type": "uint256"
                }
            ],
            "name": "TroveCreated",
            "type": "event"
        },
        {
            "anonymous": false,
            "inputs": [
                {
                    "indexed": false,
                    "internalType": "address",
                    "name": "_newTroveManagerAddress",
                    "type": "address"
                }
            ],
            "name": "TroveManagerAddressChanged",
            "type": "event"
        },
        {
            "anonymous": false,
            "inputs": [
                {
                    "indexed": true,
                    "internalType": "address",
                    "name": "_borrower",
                    "type": "address"
                },
                {
                    "indexed": false,
                    "internalType": "uint256",
                    "name": "_debt",
                    "type": "uint256"
                },
                {
                    "indexed": false,
                    "internalType": "uint256",
                    "name": "_coll",
                    "type": "uint256"
                },
                {
                    "indexed": false,
                    "internalType": "uint256",
                    "name": "stake",
                    "type": "uint256"
                },
                {
                    "indexed": false,
                    "internalType": "enum BorrowerOperations.BorrowerOperation",
                    "name": "operation",
                    "type": "uint8"
                }
            ],
            "name": "TroveUpdated",
            "type": "event"
        },
        {
            "anonymous": false,
            "inputs": [
                {
                    "indexed": false,
                    "internalType": "address",
                    "name": "_zeroStakingAddress",
                    "type": "address"
                }
            ],
            "name": "ZEROStakingAddressChanged",
            "type": "event"
        },
        {
            "anonymous": false,
            "inputs": [
                {
                    "indexed": true,
                    "internalType": "address",
                    "name": "_borrower",
                    "type": "address"
                },
                {
                    "indexed": false,
                    "internalType": "uint256",
                    "name": "_ZUSDFee",
                    "type": "uint256"
                }
            ],
            "name": "ZUSDBorrowingFeePaid",
            "type": "event"
        },
        {
            "anonymous": false,
            "inputs": [
                {
                    "indexed": false,
                    "internalType": "address",
                    "name": "_zusdTokenAddress",
                    "type": "address"
                }
            ],
            "name": "ZUSDTokenAddressChanged",
            "type": "event"
        },
        {
            "inputs": [],
            "name": "BORROWING_FEE_FLOOR",
            "outputs": [
                {
                    "internalType": "uint256",
                    "name": "",
                    "type": "uint256"
                }
            ],
            "stateMutability": "view",
            "type": "function"
        },
        {
            "inputs": [],
            "name": "DECIMAL_PRECISION",
            "outputs": [
                {
                    "internalType": "uint256",
                    "name": "",
                    "type": "uint256"
                }
            ],
            "stateMutability": "view",
            "type": "function"
        },
        {
            "inputs": [],
            "name": "MIN_NET_DEBT",
            "outputs": [
                {
                    "internalType": "uint256",
                    "name": "",
                    "type": "uint256"
                }
            ],
            "stateMutability": "view",
            "type": "function"
        },
        {
            "inputs": [],
            "name": "NAME",
            "outputs": [
                {
                    "internalType": "string",
                    "name": "",
                    "type": "string"
                }
            ],
            "stateMutability": "view",
            "type": "function"
        },
        {
            "inputs": [],
            "name": "ZUSD_GAS_COMPENSATION",
            "outputs": [
                {
                    "internalType": "uint256",
                    "name": "",
                    "type": "uint256"
                }
            ],
            "stateMutability": "view",
            "type": "function"
        },
        {
            "inputs": [],
            "name": "_100pct",
            "outputs": [
                {
                    "internalType": "uint256",
                    "name": "",
                    "type": "uint256"
                }
            ],
            "stateMutability": "view",
            "type": "function"
        },
        {
            "inputs": [],
            "name": "activePool",
            "outputs": [
                {
                    "internalType": "contract IActivePool",
                    "name": "",
                    "type": "address"
                }
            ],
            "stateMutability": "view",
            "type": "function"
        },
        {
            "inputs": [
                {
                    "internalType": "address",
                    "name": "_upperHint",
                    "type": "address"
                },
                {
                    "internalType": "address",
                    "name": "_lowerHint",
                    "type": "address"
                }
            ],
            "name": "addColl",
            "outputs": [],
            "stateMutability": "payable",
            "type": "function"
        },
        {
            "inputs": [
                {
                    "internalType": "uint256",
                    "name": "_maxFeePercentage",
                    "type": "uint256"
                },
                {
                    "internalType": "uint256",
                    "name": "_collWithdrawal",
                    "type": "uint256"
                },
                {
                    "internalType": "uint256",
                    "name": "_ZUSDChange",
                    "type": "uint256"
                },
                {
                    "internalType": "bool",
                    "name": "_isDebtIncrease",
                    "type": "bool"
                },
                {
                    "internalType": "address",
                    "name": "_upperHint",
                    "type": "address"
                },
                {
                    "internalType": "address",
                    "name": "_lowerHint",
                    "type": "address"
                },
                {
                    "components": [
                        {
                            "internalType": "uint256",
                            "name": "deadline",
                            "type": "uint256"
                        },
                        {
                            "internalType": "uint8",
                            "name": "v",
                            "type": "uint8"
                        },
                        {
                            "internalType": "bytes32",
                            "name": "r",
                            "type": "bytes32"
                        },
                        {
                            "internalType": "bytes32",
                            "name": "s",
                            "type": "bytes32"
                        }
                    ],
                    "internalType": "struct IMassetManager.PermitParams",
                    "name": "_permitParams",
                    "type": "tuple"
                }
            ],
            "name": "adjustNueTrove",
            "outputs": [],
            "stateMutability": "payable",
            "type": "function"
        },
        {
            "inputs": [
                {
                    "internalType": "uint256",
                    "name": "_maxFeePercentage",
                    "type": "uint256"
                },
                {
                    "internalType": "uint256",
                    "name": "_collWithdrawal",
                    "type": "uint256"
                },
                {
                    "internalType": "uint256",
                    "name": "_ZUSDChange",
                    "type": "uint256"
                },
                {
                    "internalType": "bool",
                    "name": "_isDebtIncrease",
                    "type": "bool"
                },
                {
                    "internalType": "address",
                    "name": "_upperHint",
                    "type": "address"
                },
                {
                    "internalType": "address",
                    "name": "_lowerHint",
                    "type": "address"
                },
                {
                    "components": [
                        {
                            "components": [
                                {
                                    "internalType": "address",
                                    "name": "token",
                                    "type": "address"
                                },
                                {
                                    "internalType": "uint256",
                                    "name": "amount",
                                    "type": "uint256"
                                }
                            ],
                            "internalType": "struct ISignatureTransfer.TokenPermissions",
                            "name": "permitted",
                            "type": "tuple"
                        },
                        {
                            "internalType": "uint256",
                            "name": "nonce",
                            "type": "uint256"
                        },
                        {
                            "internalType": "uint256",
                            "name": "deadline",
                            "type": "uint256"
                        }
                    ],
                    "internalType": "struct ISignatureTransfer.PermitTransferFrom",
                    "name": "_permit",
                    "type": "tuple"
                },
                {
                    "internalType": "bytes",
                    "name": "_signature",
                    "type": "bytes"
                }
            ],
            "name": "adjustNueTroveWithPermit2",
            "outputs": [],
            "stateMutability": "payable",
            "type": "function"
        },
        {
            "inputs": [
                {
                    "internalType": "uint256",
                    "name": "_maxFeePercentage",
                    "type": "uint256"
                },
                {
                    "internalType": "uint256",
                    "name": "_collWithdrawal",
                    "type": "uint256"
                },
                {
                    "internalType": "uint256",
                    "name": "_ZUSDChange",
                    "type": "uint256"
                },
                {
                    "internalType": "bool",
                    "name": "_isDebtIncrease",
                    "type": "bool"
                },
                {
                    "internalType": "address",
                    "name": "_upperHint",
                    "type": "address"
                },
                {
                    "internalType": "address",
                    "name": "_lowerHint",
                    "type": "address"
                }
            ],
            "name": "adjustTrove",
            "outputs": [],
            "stateMutability": "payable",
            "type": "function"
        },
        {
            "inputs": [],
            "name": "claimCollateral",
            "outputs": [],
            "stateMutability": "nonpayable",
            "type": "function"
        },
        {
            "inputs": [
                {
                    "components": [
                        {
                            "internalType": "uint256",
                            "name": "deadline",
                            "type": "uint256"
                        },
                        {
                            "internalType": "uint8",
                            "name": "v",
                            "type": "uint8"
                        },
                        {
                            "internalType": "bytes32",
                            "name": "r",
                            "type": "bytes32"
                        },
                        {
                            "internalType": "bytes32",
                            "name": "s",
                            "type": "bytes32"
                        }
                    ],
                    "internalType": "struct IMassetManager.PermitParams",
                    "name": "_permitParams",
                    "type": "tuple"
                }
            ],
            "name": "closeNueTrove",
            "outputs": [],
            "stateMutability": "nonpayable",
            "type": "function"
        },
        {
            "inputs": [
                {
                    "components": [
                        {
                            "components": [
                                {
                                    "internalType": "address",
                                    "name": "token",
                                    "type": "address"
                                },
                                {
                                    "internalType": "uint256",
                                    "name": "amount",
                                    "type": "uint256"
                                }
                            ],
                            "internalType": "struct ISignatureTransfer.TokenPermissions",
                            "name": "permitted",
                            "type": "tuple"
                        },
                        {
                            "internalType": "uint256",
                            "name": "nonce",
                            "type": "uint256"
                        },
                        {
                            "internalType": "uint256",
                            "name": "deadline",
                            "type": "uint256"
                        }
                    ],
                    "internalType": "struct ISignatureTransfer.PermitTransferFrom",
                    "name": "_permit",
                    "type": "tuple"
                },
                {
                    "internalType": "bytes",
                    "name": "_signature",
                    "type": "bytes"
                }
            ],
            "name": "closeNueTroveWithPermit2",
            "outputs": [],
            "stateMutability": "nonpayable",
            "type": "function"
        },
        {
            "inputs": [],
            "name": "closeTrove",
            "outputs": [],
            "stateMutability": "nonpayable",
            "type": "function"
        },
        {
            "inputs": [],
            "name": "defaultPool",
            "outputs": [
                {
                    "internalType": "contract IDefaultPool",
                    "name": "",
                    "type": "address"
                }
            ],
            "stateMutability": "view",
            "type": "function"
        },
        {
            "inputs": [],
            "name": "feeDistributor",
            "outputs": [
                {
                    "internalType": "contract IFeeDistributor",
                    "name": "",
                    "type": "address"
                }
            ],
            "stateMutability": "view",
            "type": "function"
        },
        {
            "inputs": [
                {
                    "internalType": "uint256",
                    "name": "_debt",
                    "type": "uint256"
                }
            ],
            "name": "getCompositeDebt",
            "outputs": [
                {
                    "internalType": "uint256",
                    "name": "",
                    "type": "uint256"
                }
            ],
            "stateMutability": "view",
            "type": "function"
        },
        {
            "inputs": [],
            "name": "getEntireSystemColl",
            "outputs": [
                {
                    "internalType": "uint256",
                    "name": "entireSystemColl",
                    "type": "uint256"
                }
            ],
            "stateMutability": "view",
            "type": "function"
        },
        {
            "inputs": [],
            "name": "getEntireSystemDebt",
            "outputs": [
                {
                    "internalType": "uint256",
                    "name": "entireSystemDebt",
                    "type": "uint256"
                }
            ],
            "stateMutability": "view",
            "type": "function"
        },
        {
            "inputs": [],
            "name": "getMassetManager",
            "outputs": [
                {
                    "internalType": "contract IMassetManager",
                    "name": "",
                    "type": "address"
                }
            ],
            "stateMutability": "view",
            "type": "function"
        },
        {
            "inputs": [],
            "name": "getOwner",
            "outputs": [
                {
                    "internalType": "address",
                    "name": "_owner",
                    "type": "address"
                }
            ],
            "stateMutability": "view",
            "type": "function"
        },
        {
            "inputs": [],
            "name": "liquityBaseParams",
            "outputs": [
                {
                    "internalType": "contract ILiquityBaseParams",
                    "name": "",
                    "type": "address"
                }
            ],
            "stateMutability": "view",
            "type": "function"
        },
        {
            "inputs": [],
            "name": "massetManager",
            "outputs": [
                {
                    "internalType": "contract IMassetManager",
                    "name": "",
                    "type": "address"
                }
            ],
            "stateMutability": "view",
            "type": "function"
        },
        {
            "inputs": [
                {
                    "internalType": "address",
                    "name": "_borrower",
                    "type": "address"
                },
                {
                    "internalType": "address",
                    "name": "_upperHint",
                    "type": "address"
                },
                {
                    "internalType": "address",
                    "name": "_lowerHint",
                    "type": "address"
                }
            ],
            "name": "moveETHGainToTrove",
            "outputs": [],
            "stateMutability": "payable",
            "type": "function"
        },
        {
            "inputs": [
                {
                    "internalType": "address",
                    "name": "owner",
                    "type": "address"
                }
            ],
            "name": "nonces",
            "outputs": [
                {
                    "internalType": "uint256",
                    "name": "",
                    "type": "uint256"
                }
            ],
            "stateMutability": "view",
            "type": "function"
        },
        {
            "inputs": [
                {
                    "internalType": "uint256",
                    "name": "_maxFeePercentage",
                    "type": "uint256"
                },
                {
                    "internalType": "uint256",
                    "name": "_ZUSDAmount",
                    "type": "uint256"
                },
                {
                    "internalType": "address",
                    "name": "_upperHint",
                    "type": "address"
                },
                {
                    "internalType": "address",
                    "name": "_lowerHint",
                    "type": "address"
                }
            ],
            "name": "openNueTrove",
            "outputs": [],
            "stateMutability": "payable",
            "type": "function"
        },
        {
            "inputs": [
                {
                    "internalType": "uint256",
                    "name": "_maxFeePercentage",
                    "type": "uint256"
                },
                {
                    "internalType": "uint256",
                    "name": "_ZUSDAmount",
                    "type": "uint256"
                },
                {
                    "internalType": "address",
                    "name": "_upperHint",
                    "type": "address"
                },
                {
                    "internalType": "address",
                    "name": "_lowerHint",
                    "type": "address"
                }
            ],
            "name": "openTrove",
            "outputs": [],
            "stateMutability": "payable",
            "type": "function"
        },
        {
            "inputs": [],
            "name": "permit2",
            "outputs": [
                {
                    "internalType": "contract IPermit2",
                    "name": "",
                    "type": "address"
                }
            ],
            "stateMutability": "view",
            "type": "function"
        },
        {
            "inputs": [],
            "name": "priceFeed",
            "outputs": [
                {
                    "internalType": "contract IPriceFeed",
                    "name": "",
                    "type": "address"
                }
            ],
            "stateMutability": "view",
            "type": "function"
        },
        {
            "inputs": [
                {
                    "internalType": "uint256",
                    "name": "_ZUSDAmount",
                    "type": "uint256"
                },
                {
                    "internalType": "address",
                    "name": "_upperHint",
                    "type": "address"
                },
                {
                    "internalType": "address",
                    "name": "_lowerHint",
                    "type": "address"
                }
            ],
            "name": "repayZUSD",
            "outputs": [],
            "stateMutability": "nonpayable",
            "type": "function"
        },
        {
            "inputs": [
                {
                    "internalType": "uint256",
                    "name": "_dllrAmount",
                    "type": "uint256"
                },
                {
                    "internalType": "address",
                    "name": "_upperHint",
                    "type": "address"
                },
                {
                    "internalType": "address",
                    "name": "_lowerHint",
                    "type": "address"
                },
                {
                    "components": [
                        {
                            "internalType": "uint256",
                            "name": "deadline",
                            "type": "uint256"
                        },
                        {
                            "internalType": "uint8",
                            "name": "v",
                            "type": "uint8"
                        },
                        {
                            "internalType": "bytes32",
                            "name": "r",
                            "type": "bytes32"
                        },
                        {
                            "internalType": "bytes32",
                            "name": "s",
                            "type": "bytes32"
                        }
                    ],
                    "internalType": "struct IMassetManager.PermitParams",
                    "name": "_permitParams",
                    "type": "tuple"
                }
            ],
            "name": "repayZusdFromDLLR",
            "outputs": [],
            "stateMutability": "nonpayable",
            "type": "function"
        },
        {
            "inputs": [
                {
                    "internalType": "uint256",
                    "name": "_dllrAmount",
                    "type": "uint256"
                },
                {
                    "internalType": "address",
                    "name": "_upperHint",
                    "type": "address"
                },
                {
                    "internalType": "address",
                    "name": "_lowerHint",
                    "type": "address"
                },
                {
                    "components": [
                        {
                            "components": [
                                {
                                    "internalType": "address",
                                    "name": "token",
                                    "type": "address"
                                },
                                {
                                    "internalType": "uint256",
                                    "name": "amount",
                                    "type": "uint256"
                                }
                            ],
                            "internalType": "struct ISignatureTransfer.TokenPermissions",
                            "name": "permitted",
                            "type": "tuple"
                        },
                        {
                            "internalType": "uint256",
                            "name": "nonce",
                            "type": "uint256"
                        },
                        {
                            "internalType": "uint256",
                            "name": "deadline",
                            "type": "uint256"
                        }
                    ],
                    "internalType": "struct ISignatureTransfer.PermitTransferFrom",
                    "name": "_permit",
                    "type": "tuple"
                },
                {
                    "internalType": "bytes",
                    "name": "_signature",
                    "type": "bytes"
                }
            ],
            "name": "repayZusdFromDLLRWithPermit2",
            "outputs": [],
            "stateMutability": "nonpayable",
            "type": "function"
        },
        {
            "inputs": [
                {
                    "internalType": "address",
                    "name": "_feeDistributorAddress",
                    "type": "address"
                },
                {
                    "internalType": "address",
                    "name": "_liquityBaseParamsAddress",
                    "type": "address"
                },
                {
                    "internalType": "address",
                    "name": "_troveManagerAddress",
                    "type": "address"
                },
                {
                    "internalType": "address",
                    "name": "_activePoolAddress",
                    "type": "address"
                },
                {
                    "internalType": "address",
                    "name": "_defaultPoolAddress",
                    "type": "address"
                },
                {
                    "internalType": "address",
                    "name": "_stabilityPoolAddress",
                    "type": "address"
                },
                {
                    "internalType": "address",
                    "name": "_gasPoolAddress",
                    "type": "address"
                },
                {
                    "internalType": "address",
                    "name": "_collSurplusPoolAddress",
                    "type": "address"
                },
                {
                    "internalType": "address",
                    "name": "_priceFeedAddress",
                    "type": "address"
                },
                {
                    "internalType": "address",
                    "name": "_sortedTrovesAddress",
                    "type": "address"
                },
                {
                    "internalType": "address",
                    "name": "_zusdTokenAddress",
                    "type": "address"
                },
                {
                    "internalType": "address",
                    "name": "_zeroStakingAddress",
                    "type": "address"
                }
            ],
            "name": "setAddresses",
            "outputs": [],
            "stateMutability": "nonpayable",
            "type": "function"
        },
        {
            "inputs": [
                {
                    "internalType": "address",
                    "name": "_massetManagerAddress",
                    "type": "address"
                }
            ],
            "name": "setMassetManagerAddress",
            "outputs": [],
            "stateMutability": "nonpayable",
            "type": "function"
        },
        {
            "inputs": [
                {
                    "internalType": "address",
                    "name": "_owner",
                    "type": "address"
                }
            ],
            "name": "setOwner",
            "outputs": [],
            "stateMutability": "nonpayable",
            "type": "function"
        },
        {
            "inputs": [],
            "name": "sortedTroves",
            "outputs": [
                {
                    "internalType": "contract ISortedTroves",
                    "name": "",
                    "type": "address"
                }
            ],
            "stateMutability": "view",
            "type": "function"
        },
        {
            "inputs": [],
            "name": "troveManager",
            "outputs": [
                {
                    "internalType": "contract ITroveManager",
                    "name": "",
                    "type": "address"
                }
            ],
            "stateMutability": "view",
            "type": "function"
        },
        {
            "inputs": [
                {
                    "internalType": "uint256",
                    "name": "_collWithdrawal",
                    "type": "uint256"
                },
                {
                    "internalType": "address",
                    "name": "_upperHint",
                    "type": "address"
                },
                {
                    "internalType": "address",
                    "name": "_lowerHint",
                    "type": "address"
                }
            ],
            "name": "withdrawColl",
            "outputs": [],
            "stateMutability": "nonpayable",
            "type": "function"
        },
        {
            "inputs": [
                {
                    "internalType": "uint256",
                    "name": "_maxFeePercentage",
                    "type": "uint256"
                },
                {
                    "internalType": "uint256",
                    "name": "_ZUSDAmount",
                    "type": "uint256"
                },
                {
                    "internalType": "address",
                    "name": "_upperHint",
                    "type": "address"
                },
                {
                    "internalType": "address",
                    "name": "_lowerHint",
                    "type": "address"
                }
            ],
            "name": "withdrawZUSD",
            "outputs": [],
            "stateMutability": "nonpayable",
            "type": "function"
        },
        {
            "inputs": [
                {
                    "internalType": "uint256",
                    "name": "_maxFeePercentage",
                    "type": "uint256"
                },
                {
                    "internalType": "uint256",
                    "name": "_ZUSDAmount",
                    "type": "uint256"
                },
                {
                    "internalType": "address",
                    "name": "_upperHint",
                    "type": "address"
                },
                {
                    "internalType": "address",
                    "name": "_lowerHint",
                    "type": "address"
                }
            ],
            "name": "withdrawZusdAndConvertToDLLR",
            "outputs": [
                {
                    "internalType": "uint256",
                    "name": "",
                    "type": "uint256"
                }
            ],
            "stateMutability": "nonpayable",
            "type": "function"
        },
        {
            "inputs": [],
            "name": "zeroStaking",
            "outputs": [
                {
                    "internalType": "contract IZEROStaking",
                    "name": "",
                    "type": "address"
                }
            ],
            "stateMutability": "view",
            "type": "function"
        },
        {
            "inputs": [],
            "name": "zeroStakingAddress",
            "outputs": [
                {
                    "internalType": "address",
                    "name": "",
                    "type": "address"
                }
            ],
            "stateMutability": "view",
            "type": "function"
        },
        {
            "inputs": [],
            "name": "zusdToken",
            "outputs": [
                {
                    "internalType": "contract IZUSDToken",
                    "name": "",
                    "type": "address"
                }
            ],
            "stateMutability": "view",
            "type": "function"
        }
    ],
    "transactionHash": "0x5916618e708a36122e369371672f6aabe67905c4971be9b22603e66ddfa861b1",
    "numDeployments": 8,
    "bytecode": "0x60a06040523480156200001157600080fd5b50604051620055b3380380620055b3833981016040819052620000349162000125565b8062000049336001600160e01b036200006016565b60601b6001600160601b03191660805250620001b4565b6001600160a01b038116620000925760405162461bcd60e51b8152600401620000899062000172565b60405180910390fd5b6001600160a01b038116620000af6001600160e01b036200010416565b6001600160a01b03167f8be0079c531659141344cd1fd0a4f28419497f9722a3daafe3b4186f6b6457e060405160405180910390a36000604051620000f49062000155565b6040519081900390209190915550565b600080604051620001159062000155565b6040519081900390205492915050565b60006020828403121562000137578081fd5b81516001600160a01b03811681146200014e578182fd5b9392505050565b7035b2bc9737bbb730b136329737bbb732b960791b815260110190565b60208082526022908201527f4f776e61626c653a3a7365744f776e65723a20696e76616c6964206164647265604082015261737360f01b606082015260800190565b60805160601c6153d7620001dc600039806106d05280611104528061237152506153d76000f3fe6080604052600436106102675760003560e01c8063795d26c311610144578063a20baee6116100b6578063c6a6cf201161007a578063c6a6cf201461062c578063e9fc34611461063f578063ea9638bf14610654578063ec5472fd14610667578063ec9f7d461461067c578063f92d34331461069157610267565b8063a20baee61461041f578063a3f4df7e146105c0578063ae918754146105e2578063afbc74b5146105f7578063b5c89bab1461061757610267565b8063860665b311610108578063860665b31461053b578063887105d31461054e578063893d20e814610563578063899fe15e146105785780638d5c3dc1146105985780639f070670146105ab57610267565b8063795d26c3146104b15780637d4f595d146104c65780637e3eefdc146104e65780637ecebe00146105065780637f7dde4a1461052657610267565b80634ff81443116101dd57806372fe25aa116101a157806372fe25aa1461041f578063734f622d14610434578063741bef1a14610454578063759b303414610469578063763a0ef31461047e5780637778a3db1461049157610267565b80634ff81443146103975780635530273c146103b757806368647db1146103d75780636ea56960146103ea5780636f0b0c1c1461040a57610267565b80631a7777171161022f5780631a777717146102f85780631bf43555146103185780632771510a1461033a5780633cc742251461035a5780633d83908a1461036f578063485f190f1461038457610267565b80630d43e8ad1461026c5780630e704d50146102975780630ff9a512146102ae57806312261ee7146102c357806313af4035146102d8575b600080fd5b34801561027857600080fd5b506102816106a6565b60405161028e91906148a7565b60405180910390f35b3480156102a357600080fd5b506102ac6106b5565b005b3480156102ba57600080fd5b506102816106bf565b3480156102cf57600080fd5b506102816106ce565b3480156102e457600080fd5b506102ac6102f3366004614322565b6106f2565b34801561030457600080fd5b506102ac6103133660046145a8565b61073f565b34801561032457600080fd5b5061032d610756565b60405161028e9190615324565b34801561034657600080fd5b506102ac610355366004614322565b610763565b34801561036657600080fd5b506102816107f1565b34801561037b57600080fd5b50610281610800565b6102ac61039236600461467c565b61080f565b3480156103a357600080fd5b5061032d6103b2366004614552565b610979565b3480156103c357600080fd5b506102ac6103d2366004614582565b61098a565b6102ac6103e536600461435a565b6109a0565b3480156103f657600080fd5b506102ac61040536600461467c565b6109b6565b34801561041657600080fd5b506102ac6109c7565b34801561042b57600080fd5b5061032d610a25565b34801561044057600080fd5b506102ac61044f3660046143dc565b610a31565b34801561046057600080fd5b50610281610df5565b34801561047557600080fd5b5061032d610e04565b6102ac61048c3660046147a3565b610e11565b34801561049d57600080fd5b506102ac6104ac3660046144e5565b610e2d565b3480156104bd57600080fd5b5061032d610f1e565b3480156104d257600080fd5b506102ac6104e1366004614500565b61103d565b3480156104f257600080fd5b5061032d61050136600461467c565b611133565b34801561051257600080fd5b5061032d610521366004614322565b6113ae565b34801561053257600080fd5b506102816113cf565b6102ac61054936600461467c565b6113de565b34801561055a57600080fd5b5061032d6113eb565b34801561056f57600080fd5b506102816114ba565b34801561058457600080fd5b506102ac6105933660046145f9565b6114d9565b6102ac6105a636600461472b565b6114f4565b3480156105b757600080fd5b5061028161150c565b3480156105cc57600080fd5b506105d561151b565b60405161028e9190614990565b3480156105ee57600080fd5b50610281611549565b34801561060357600080fd5b506102ac610612366004614582565b611558565b34801561062357600080fd5b5061028161156a565b6102ac61063a3660046146c5565b611579565b34801561064b57600080fd5b50610281611588565b6102ac610662366004614392565b611597565b34801561067357600080fd5b506102816115b1565b34801561068857600080fd5b506102816115c0565b34801561069d57600080fd5b5061032d6115cf565b600d546001600160a01b031681565b6106bd611651565b565b6009546001600160a01b031681565b7f000000000000000000000000000000000000000000000000000000000000000081565b6106fa6114ba565b6001600160a01b0316336001600160a01b0316146107335760405162461bcd60e51b815260040161072a90614e79565b60405180910390fd5b61073c81611a40565b50565b610750600080866000878787611acb565b50505050565b6809c2007651b250000081565b61076b6114ba565b6001600160a01b0316336001600160a01b03161461079b5760405162461bcd60e51b815260040161072a90614e79565b600c80546001600160a01b0319166001600160a01b0383161790556040517f6926b3375b54960080b7d8a184061f39a02e8c3bf64aa9df7e75359fdc00d814906107e69083906148a7565b60405180910390a150565b6001546001600160a01b031681565b6004546001600160a01b031681565b600c546001600160a01b03166108375760405162461bcd60e51b815260040161072a90615283565b6108448484848430611c81565b600a54600c5460405163095ea7b360e01b81526001600160a01b039283169263095ea7b39261087a9291169087906004016148fc565b602060405180830381600087803b15801561089457600080fd5b505af11580156108a8573d6000803e3d6000fd5b505050506040513d601f19601f820116820180604052508101906108cc91906144c9565b6108e85760405162461bcd60e51b815260040161072a90614f07565b600c54600a5460405163438b1b4b60e01b81526001600160a01b039283169263438b1b4b926109209291169087903390600401614940565b602060405180830381600087803b15801561093a57600080fd5b505af115801561094e573d6000803e3d6000fd5b505050506040513d601f19601f82011682018060405250810190610972919061456a565b5050505050565b6000610984826122ac565b92915050565b61099b3384600080868660006122c7565b505050565b6109b2336000806000868660006122c7565b5050565b61075033600085600186868a6122c7565b60075460405163b32beb5b60e01b81526001600160a01b039091169063b32beb5b906109f79033906004016148a7565b600060405180830381600087803b158015610a1157600080fd5b505af1158015610750573d6000803e3d6000fd5b670de0b6b3a764000081565b610a396114ba565b6001600160a01b0316336001600160a01b031614610a695760405162461bcd60e51b815260040161072a90614e79565b610a728c6122d7565b610a7b8b6122d7565b610a848a6122d7565b610a8d896122d7565b610a96886122d7565b610a9f876122d7565b610aa8866122d7565b610ab1856122d7565b610aba846122d7565b610ac3836122d7565b610acc826122d7565b610ad5816122d7565b600d80546001600160a01b03199081166001600160a01b038f8116919091179092556003805482168e84161790556004805482168d84161790556000805482168c84161790556001805482168b84161790556005805482168a8416179055600680548216898416179055600780548216888416179055600280548216878416179055600b80548216868416179055600a8054821685841617905560098054821692841692831790556008805490911690911790556040517f84861842e6a98dd759145eb5e7b48279d0f02ebeabc8a69e5196b2f4c5023db990610bb9908e906148a7565b60405180910390a17f143219c9e69b09e07e095fcc889b43d8f46ca892bba65f08dc3a0050869a56788a604051610bf091906148a7565b60405180910390a17f78f058b189175430c48dc02699e3a0031ea4ff781536dc2fab847de4babdd88289604051610c2791906148a7565b60405180910390a17f5ee0cae2f063ed938bb55046f6a932fb6ae792bf43624806bb90abe68a50be9b88604051610c5e91906148a7565b60405180910390a17f82966d27eea39b038ee0fa30cd16532bb24f6e65d31cb58fb227aa5766cdcc7f87604051610c9591906148a7565b60405180910390a17fcfb07d791fcafc032b35837b50eb84b74df518cf4cc287e8084f47630fa70fa086604051610ccc91906148a7565b60405180910390a17fe67f36a6e961157d6eff83b91f3af5a62131ceb6f04954ef74f51c1c05e7f88d85604051610d0391906148a7565b60405180910390a17f8c537274438aa850a330284665d81a85dd38267d09e4050d416bfc94142db26484604051610d3a91906148a7565b60405180910390a17f65f4cf077bc01e4742eb5ad98326f6e95b63548ea24b17f8d5e823111fe7880083604051610d7191906148a7565b60405180910390a17fcdf33850c44a1a874b5fefb51dae615ac6afebd581ef90d571f81b06541d8e9d82604051610da891906148a7565b60405180910390a17f7624075ed781e3aa34b0f492d70d1bb5a6fcde04534165e20f990d2e546be4dd81604051610ddf91906148a7565b60405180910390a1505050505050505050505050565b6002546001600160a01b031681565b6801158e460913d0000081565b610e2289898989898989898961231c565b505050505050505050565b600c546001600160a01b0316610e555760405162461bcd60e51b815260040161072a90615283565b6004805460405163d66a255360e01b81526000926001600160a01b039092169163d66a255391610e87913391016148a7565b60206040518083038186803b158015610e9f57600080fd5b505afa158015610eb3573d6000803e3d6000fd5b505050506040513d601f19601f82011682018060405250810190610ed7919061456a565b600c54909150610f15906001600160a01b0316610f03836801158e460913d0000063ffffffff6124f516565b600a546001600160a01b03168561253e565b506109b2611651565b60008054604080516272c7d360e71b8152905183926001600160a01b031691633963e980916004808301926020929190829003018186803b158015610f6257600080fd5b505afa158015610f76573d6000803e3d6000fd5b505050506040513d601f19601f82011682018060405250810190610f9a919061456a565b90506000600160009054906101000a90046001600160a01b03166001600160a01b0316633963e9806040518163ffffffff1660e01b815260040160206040518083038186803b158015610fec57600080fd5b505afa158015611000573d6000803e3d6000fd5b505050506040513d601f19601f82011682018060405250810190611024919061456a565b9050611036828263ffffffff6127ef16565b9250505090565b600c546001600160a01b03166110655760405162461bcd60e51b815260040161072a90615283565b6004805460405163d66a255360e01b81526000926001600160a01b039092169163d66a255391611097913391016148a7565b60206040518083038186803b1580156110af57600080fd5b505afa1580156110c3573d6000803e3d6000fd5b505050506040513d601f19601f820116820180604052508101906110e7919061456a565b600c54600a5491925061112a916001600160a01b039182169116867f00000000000000000000000000000000000000000000000000000000000000008787612814565b50610750611651565b600a546040516370a0823160e01b8152600091309183916001600160a01b0316906370a08231906111689085906004016148a7565b60206040518083038186803b15801561118057600080fd5b505afa158015611194573d6000803e3d6000fd5b505050506040513d601f19601f820116820180604052508101906111b8919061456a565b90506111c833838888888c612a61565b6111d8818763ffffffff6127ef16565b600a546040516370a0823160e01b81526001600160a01b03909116906370a08231906112089086906004016148a7565b60206040518083038186803b15801561122057600080fd5b505afa158015611234573d6000803e3d6000fd5b505050506040513d601f19601f82011682018060405250810190611258919061456a565b146112755760405162461bcd60e51b815260040161072a90614b0d565b600a54600c5460405163095ea7b360e01b81526001600160a01b039283169263095ea7b3926112ab929116908a906004016148fc565b602060405180830381600087803b1580156112c557600080fd5b505af11580156112d9573d6000803e3d6000fd5b505050506040513d601f19601f820116820180604052508101906112fd91906144c9565b6113195760405162461bcd60e51b815260040161072a90614f07565b600c54600a5460405163438b1b4b60e01b81526001600160a01b039283169263438b1b4b92611351929116908a903390600401614940565b602060405180830381600087803b15801561136b57600080fd5b505af115801561137f573d6000803e3d6000fd5b505050506040513d601f19601f820116820180604052508101906113a3919061456a565b979650505050505050565b6001600160a01b0381166000908152600e6020526040812061098490612a73565b6000546001600160a01b031681565b6107508484848433611c81565b6000805460408051630a7b61df60e11b8152905183926001600160a01b0316916314f6c3be916004808301926020929190829003018186803b15801561143057600080fd5b505afa158015611444573d6000803e3d6000fd5b505050506040513d601f19601f82011682018060405250810190611468919061456a565b90506000600160009054906101000a90046001600160a01b03166001600160a01b03166314f6c3be6040518163ffffffff1660e01b815260040160206040518083038186803b158015610fec57600080fd5b6000806040516114c99061488a565b6040519081900390205492915050565b6114ec600080886000898989898961231c565b505050505050565b61150387878787878787611acb565b50505050505050565b6003546001600160a01b031681565b60405180604001604052806012815260200171426f72726f7765724f7065726174696f6e7360701b81525081565b600b546001600160a01b031681565b61099b336000856000868660006122c7565b600c546001600160a01b031681565b6114ec3386868686868c6122c7565b600c546001600160a01b031690565b61159f612a77565b61099b836000806000868660006122c7565b6008546001600160a01b031681565b600a546001600160a01b031681565b6003546040805163f92d343360e01b815290516000926001600160a01b03169163f92d3433916004808301926020929190829003018186803b15801561161457600080fd5b505afa158015611628573d6000803e3d6000fd5b505050506040513d601f19601f8201168201806040525081019061164c919061456a565b905090565b600454600054600a546001600160a01b039283169291821691166116758333612aa1565b60025460408051630fdb11cf60e01b815290516000926001600160a01b031691630fdb11cf91600480830192602092919082900301818787803b1580156116bb57600080fd5b505af11580156116cf573d6000803e3d6000fd5b505050506040513d601f19601f820116820180604052508101906116f3919061456a565b90506116fe81612b42565b604051630b07655760e01b81526001600160a01b03851690630b0765579061172a9033906004016148a7565b600060405180830381600087803b15801561174457600080fd5b505af1158015611758573d6000803e3d6000fd5b50506040516309019aaf60e31b8152600092506001600160a01b038716915063480cd5789061178b9033906004016148a7565b60206040518083038186803b1580156117a357600080fd5b505afa1580156117b7573d6000803e3d6000fd5b505050506040513d601f19601f820116820180604052508101906117db919061456a565b90506000856001600160a01b031663d66a2553336040518263ffffffff1660e01b815260040161180b91906148a7565b60206040518083038186803b15801561182357600080fd5b505afa158015611837573d6000803e3d6000fd5b505050506040513d601f19601f8201168201806040525081019061185b919061456a565b9050611880843361187b846801158e460913d0000063ffffffff6124f516565b612b68565b600061189183600084600088612c04565b905061189c81612c8f565b604051631fc5750960e31b81526001600160a01b0388169063fe2ba848906118c89033906004016148a7565b600060405180830381600087803b1580156118e257600080fd5b505af11580156118f6573d6000803e3d6000fd5b50506040516365e89c5760e11b81526001600160a01b038a16925063cbd138ae91506119269033906004016148a7565b600060405180830381600087803b15801561194057600080fd5b505af1158015611954573d6000803e3d6000fd5b50505050336001600160a01b0316600080516020615382833981519152600080600060016040516119889493929190614963565b60405180910390a26119b48686336119af866801158e460913d0000063ffffffff6124f516565b612d34565b6006546119d790879087906001600160a01b03166801158e460913d00000612d34565b6040516364a197f360e01b81526001600160a01b038716906364a197f390611a0590339087906004016148fc565b600060405180830381600087803b158015611a1f57600080fd5b505af1158015611a33573d6000803e3d6000fd5b5050505050505050505050565b6001600160a01b038116611a665760405162461bcd60e51b815260040161072a90614b44565b806001600160a01b0316611a786114ba565b6001600160a01b03167f8be0079c531659141344cd1fd0a4f28419497f9722a3daafe3b4186f6b6457e060405160405180910390a36000604051611abb9061488a565b6040519081900390209190915550565b600c546001600160a01b0316611af35760405162461bcd60e51b815260040161072a90615283565b83158015611b015750600085115b15611b2757600c54600a54611b25916001600160a01b03908116918891168461253e565b505b611b373387878787878d30612dee565b838015611b445750600085115b1561150357600a54600c5460405163095ea7b360e01b81526001600160a01b039283169263095ea7b392611b7f9291169089906004016148fc565b602060405180830381600087803b158015611b9957600080fd5b505af1158015611bad573d6000803e3d6000fd5b505050506040513d601f19601f82011682018060405250810190611bd191906144c9565b611bed5760405162461bcd60e51b815260040161072a90614f07565b600c54600a5460405163438b1b4b60e01b81526001600160a01b039283169263438b1b4b92611c259291169089903390600401614940565b602060405180830381600087803b158015611c3f57600080fd5b505af1158015611c53573d6000803e3d6000fd5b505050506040513d601f19601f82011682018060405250810190611c77919061456a565b5050505050505050565b611c8961415c565b50604080516060810182526004546001600160a01b03908116825260005481166020830152600a541691810191909152611cc161417c565b600260009054906101000a90046001600160a01b03166001600160a01b0316630fdb11cf6040518163ffffffff1660e01b8152600401602060405180830381600087803b158015611d1157600080fd5b505af1158015611d25573d6000803e3d6000fd5b505050506040513d601f19601f82011682018060405250810190611d49919061456a565b808252600090611d58906133c6565b9050611d648882613461565b8251611d70903361354d565b6040820187905280611db157611d9083600001518460400151898b6135ef565b602083018190526040830151611dab9163ffffffff6127ef16565b60408301525b611dbe82604001516137a8565b611dcb82604001516122ac565b60608301819052611dd857fe5b611deb34836060015184600001516137d1565b60808301526060820151611e0090349061380f565b60a08301528015611e1d57611e188260800151613844565b611e50565b611e2a82608001516138e9565b6000611e43346001856060015160018760000151612c04565b9050611e4e81612c8f565b505b8251604051635d6b480f60e01b81526001600160a01b0390911690635d6b480f90611e829033906001906004016148fc565b600060405180830381600087803b158015611e9c57600080fd5b505af1158015611eb0573d6000803e3d6000fd5b505084516040516372423c1760e01b81526001600160a01b0390911692506372423c179150611ee590339034906004016148fc565b602060405180830381600087803b158015611eff57600080fd5b505af1158015611f13573d6000803e3d6000fd5b505050506040513d601f19601f82011682018060405250810190611f37919061456a565b5082516060830151604051639976cf4560e01b81526001600160a01b0390921691639976cf4591611f6d913391906004016148fc565b602060405180830381600087803b158015611f8757600080fd5b505af1158015611f9b573d6000803e3d6000fd5b505050506040513d601f19601f82011682018060405250810190611fbf919061456a565b5082516040516382fe3eb960e01b81526001600160a01b03909116906382fe3eb990611fef9033906004016148a7565b600060405180830381600087803b15801561200957600080fd5b505af115801561201d573d6000803e3d6000fd5b50508451604051630c7940bd60e11b81526001600160a01b0390911692506318f2817a91506120509033906004016148a7565b602060405180830381600087803b15801561206a57600080fd5b505af115801561207e573d6000803e3d6000fd5b505050506040513d601f19601f820116820180604052508101906120a2919061456a565b60c0830152600b5460a08301516040516346f7cf8760e01b81526001600160a01b03909216916346f7cf87916120e1913391908b908b90600401614915565b600060405180830381600087803b1580156120fb57600080fd5b505af115801561210f573d6000803e3d6000fd5b505084516040516315d549f160e01b81526001600160a01b0390911692506315d549f191506121429033906004016148a7565b602060405180830381600087803b15801561215c57600080fd5b505af1158015612170573d6000803e3d6000fd5b505050506040513d601f19601f82011682018060405250810190612194919061456a565b60e0830181905260405133917f59cfd0cd754bc5748b6770e94a4ffa5f678d885cb899dcfadc5734edb97c67ab916121cc9190615324565b60405180910390a26121e283602001513461398e565b6121fb83602001518460400151868a8660400151613a0a565b602083015160408401516006546122279291906001600160a01b03166801158e460913d0000080613a0a565b606082015160c083015160405133926000805160206153828339815191529261225592349190600090614963565b60405180910390a2336001600160a01b03167f71457d8a5ab7e4561ed49d05338674b73ac3b83b0b315f165f5b12bcc0022741836020015160405161229a9190615324565b60405180910390a25050505050505050565b6000610984826801158e460913d0000063ffffffff6127ef16565b6115038787878787878733612dee565b6001600160a01b0381166122fd5760405162461bcd60e51b815260040161072a90614c86565b803b806109b25760405162461bcd60e51b815260040161072a9061502a565b600c546001600160a01b03166123445760405162461bcd60e51b815260040161072a90615283565b851580156123525750600087115b1561239957600c54600a54612397916001600160a01b039081169116857f00000000000000000000000000000000000000000000000000000000000000008686612814565b505b6123a93389898989898f30612dee565b8580156123b65750600087115b15610e2257600a54600c5460405163095ea7b360e01b81526001600160a01b039283169263095ea7b3926123f1929116908b906004016148fc565b602060405180830381600087803b15801561240b57600080fd5b505af115801561241f573d6000803e3d6000fd5b505050506040513d601f19601f8201168201806040525081019061244391906144c9565b61245f5760405162461bcd60e51b815260040161072a90614f07565b600c54600a5460405163438b1b4b60e01b81526001600160a01b039283169263438b1b4b92612497929116908b903390600401614940565b602060405180830381600087803b1580156124b157600080fd5b505af11580156124c5573d6000803e3d6000fd5b505050506040513d601f19601f820116820180604052508101906124e9919061456a565b50505050505050505050565b600061253783836040518060400160405280601e81526020017f536166654d6174683a207375627472616374696f6e206f766572666c6f770000815250613ac4565b9392505050565b600080856001600160a01b03166321df0da76040518163ffffffff1660e01b815260040160206040518083038186803b15801561257a57600080fd5b505afa15801561258e573d6000803e3d6000fd5b505050506040513d601f19601f820116820180604052508101906125b2919061433e565b90506000816001600160a01b03166370a08231306040518263ffffffff1660e01b81526004016125e291906148a7565b60206040518083038186803b1580156125fa57600080fd5b505afa15801561260e573d6000803e3d6000fd5b505050506040513d601f19601f82011682018060405250810190612632919061456a565b9050306001600160a01b03831663605629d633838a893561265960408c0160208d0161484e565b8b604001358c606001356040518863ffffffff1660e01b815260040161268597969594939291906148bb565b600060405180830381600087803b15801561269f57600080fd5b505af11580156126b3573d6000803e3d6000fd5b505050508661274483856001600160a01b03166370a08231856040518263ffffffff1660e01b81526004016126e891906148a7565b60206040518083038186803b15801561270057600080fd5b505afa158015612714573d6000803e3d6000fd5b505050506040513d601f19601f82011682018060405250810190612738919061456a565b9063ffffffff6124f516565b146127615760405162461bcd60e51b815260040161072a90614a8d565b60405163fb2c922360e01b81526001600160a01b0389169063fb2c9223906127919089908b903390600401614940565b602060405180830381600087803b1580156127ab57600080fd5b505af11580156127bf573d6000803e3d6000fd5b505050506040513d601f19601f820116820180604052508101906127e3919061456a565b98975050505050505050565b6000828201838110156125375760405162461bcd60e51b815260040161072a90614ad6565b600080876001600160a01b03166321df0da76040518163ffffffff1660e01b815260040160206040518083038186803b15801561285057600080fd5b505afa158015612864573d6000803e3d6000fd5b505050506040513d601f19601f82011682018060405250810190612888919061433e565b90506000816001600160a01b03166370a08231306040518263ffffffff1660e01b81526004016128b891906148a7565b60206040518083038186803b1580156128d057600080fd5b505afa1580156128e4573d6000803e3d6000fd5b505050506040513d601f19601f82011682018060405250810190612908919061456a565b87516020015190915030906001600160a01b0388166330f28b7a8a61292d8585613af0565b338b8b6040518663ffffffff1660e01b81526004016129509594939291906152b3565b600060405180830381600087803b15801561296a57600080fd5b505af115801561297e573d6000803e3d6000fd5b50505050806129b384866001600160a01b03166370a08231866040518263ffffffff1660e01b81526004016126e891906148a7565b146129d05760405162461bcd60e51b815260040161072a90614a8d565b60405163fb2c922360e01b81526001600160a01b038c169063fb2c922390612a00908d9085903390600401614940565b602060405180830381600087803b158015612a1a57600080fd5b505af1158015612a2e573d6000803e3d6000fd5b505050506040513d601f19601f82011682018060405250810190612a52919061456a565b9b9a5050505050505050505050565b6114ec8660008660018787878c612dee565b5490565b6005546001600160a01b031633146106bd5760405162461bcd60e51b815260040161072a906150c8565b6040516321e3780160e01b81526000906001600160a01b038416906321e3780190612ad09085906004016148a7565b60206040518083038186803b158015612ae857600080fd5b505afa158015612afc573d6000803e3d6000fd5b505050506040513d601f19601f82011682018060405250810190612b20919061456a565b90508060011461099b5760405162461bcd60e51b815260040161072a90614e2b565b612b4b816133c6565b1561073c5760405162461bcd60e51b815260040161072a90614bd6565b6040516370a0823160e01b815281906001600160a01b038516906370a0823190612b969086906004016148a7565b60206040518083038186803b158015612bae57600080fd5b505afa158015612bc2573d6000803e3d6000fd5b505050506040513d601f19601f82011682018060405250810190612be6919061456a565b101561099b5760405162461bcd60e51b815260040161072a906149e3565b600080612c0f6113eb565b90506000612c1b610f1e565b905086612c3757612c32828963ffffffff6124f516565b612c47565b612c47828963ffffffff6127ef16565b915084612c6357612c5e818763ffffffff6124f516565b612c73565b612c73818763ffffffff6127ef16565b90506000612c828383876137d1565b9998505050505050505050565b600360009054906101000a90046001600160a01b03166001600160a01b0316635733d58f6040518163ffffffff1660e01b815260040160206040518083038186803b158015612cdd57600080fd5b505afa158015612cf1573d6000803e3d6000fd5b505050506040513d601f19601f82011682018060405250810190612d15919061456a565b81101561073c5760405162461bcd60e51b815260040161072a90614dbc565b60405163121cbc4d60e11b81526001600160a01b03851690632439789a90612d60908490600401615324565b600060405180830381600087803b158015612d7a57600080fd5b505af1158015612d8e573d6000803e3d6000fd5b5050604051632770a7eb60e21b81526001600160a01b0386169250639dc29fac9150612dc090859085906004016148fc565b600060405180830381600087803b158015612dda57600080fd5b505af1158015611c77573d6000803e3d6000fd5b612df661415c565b50604080516060810182526004546001600160a01b03908116825260005481166020830152600a541691810191909152612e2e6141c1565b600260009054906101000a90046001600160a01b03166001600160a01b0316630fdb11cf6040518163ffffffff1660e01b8152600401602060405180830381600087803b158015612e7e57600080fd5b505af1158015612e92573d6000803e3d6000fd5b505050506040513d601f19601f82011682018060405250810190612eb6919061456a565b808252612ec2906133c6565b15156101c08201528615612ee857612edf84826101c00151613461565b612ee888613b22565b612ef189613b42565b612efb8989613b69565b8151612f07908b612aa1565b336001600160a01b038b161480612f3d57506005546001600160a01b031633148015612f335750600034115b8015612f3d575087155b612f4357fe5b8151604051630b07655760e01b81526001600160a01b0390911690630b07655790612f72908d906004016148a7565b600060405180830381600087803b158015612f8c57600080fd5b505af1158015612fa0573d6000803e3d6000fd5b50505050612fae348a613b9c565b15156060830152602082015260408101889052868015612fd15750806101c00151155b1561300c57612fea826000015183604001518a876135ef565b610120820181905260408201516130069163ffffffff6127ef16565b60408201525b815160405163d66a255360e01b81526001600160a01b039091169063d66a25539061303b908d906004016148a7565b60206040518083038186803b15801561305357600080fd5b505afa158015613067573d6000803e3d6000fd5b505050506040513d601f19601f8201168201806040525081019061308b919061456a565b608082015281516040516309019aaf60e31b81526001600160a01b039091169063480cd578906130bf908d906004016148a7565b60206040518083038186803b1580156130d757600080fd5b505afa1580156130eb573d6000803e3d6000fd5b505050506040513d601f19601f8201168201806040525081019061310f919061456a565b60a08201819052608082015182516131289291906137d1565b8160c00181815250506131588160a0015182608001518360200151846060015185604001518c8760000151613bbb565b60e082015260a081015189111561316b57fe5b61317c816101c001518a8984613bdf565b8615801561318a5750600088115b156131d1576131ac6131a782604001516127388460800151613c53565b6137a8565b6131be81608001518260400151613c6e565b6131d182604001518b8360400151612b68565b6131ef82600001518b8360200151846060015185604001518c613ca6565b6101408301526101608201528151604051630c7940bd60e11b81526001600160a01b03909116906318f2817a9061322a908d906004016148a7565b602060405180830381600087803b15801561324457600080fd5b505af1158015613258573d6000803e3d6000fd5b505050506040513d601f19601f8201168201806040525081019061327c919061456a565b816101800181815250506132a88160a0015182608001518360200151846060015185604001518c613ed4565b6101a08201819052600b5460405163015f109360e51b81526001600160a01b0390911691632be21260916132e4918e918b908b90600401614915565b600060405180830381600087803b1580156132fe57600080fd5b505af1158015613312573d6000803e3d6000fd5b50505050896001600160a01b031660008051602061538283398151915282610140015183610160015184610180015160026040516133539493929190614963565b60405180910390a2336001600160a01b03167f71457d8a5ab7e4561ed49d05338674b73ac3b83b0b315f165f5b12bcc00227418261012001516040516133999190615324565b60405180910390a26124e98260200151836040015133846020015185606001518d8d88604001518b613f05565b6000806133d283613fa9565b9050600360009054906101000a90046001600160a01b03166001600160a01b0316635733d58f6040518163ffffffff1660e01b815260040160206040518083038186803b15801561342257600080fd5b505afa158015613436573d6000803e3d6000fd5b505050506040513d601f19601f8201168201806040525081019061345a919061456a565b1192915050565b801561349457670de0b6b3a764000082111561348f5760405162461bcd60e51b815260040161072a90614cbd565b6109b2565b600360009054906101000a90046001600160a01b03166001600160a01b031663f92d34336040518163ffffffff1660e01b815260040160206040518083038186803b1580156134e257600080fd5b505afa1580156134f6573d6000803e3d6000fd5b505050506040513d601f19601f8201168201806040525081019061351a919061456a565b82101580156135315750670de0b6b3a76400008211155b6109b25760405162461bcd60e51b815260040161072a90615111565b6040516321e3780160e01b81526000906001600160a01b038416906321e378019061357c9085906004016148a7565b60206040518083038186803b15801561359457600080fd5b505afa1580156135a8573d6000803e3d6000fd5b505050506040513d601f19601f820116820180604052508101906135cc919061456a565b9050806001141561099b5760405162461bcd60e51b815260040161072a90615161565b6000846001600160a01b0316635dba4c4a6040518163ffffffff1660e01b8152600401600060405180830381600087803b15801561362c57600080fd5b505af1158015613640573d6000803e3d6000fd5b5050604051630631203b60e41b8152600092506001600160a01b038816915063631203b090613673908790600401615324565b60206040518083038186803b15801561368b57600080fd5b505afa15801561369f573d6000803e3d6000fd5b505050506040513d601f19601f820116820180604052508101906136c3919061456a565b90506136d0818585613fd5565b600d546040516340c10f1960e01b81526001600160a01b03878116926340c10f1992613704929091169085906004016148fc565b600060405180830381600087803b15801561371e57600080fd5b505af1158015613732573d6000803e3d6000fd5b50505050600d60009054906101000a90046001600160a01b03166001600160a01b031663bb57ad206040518163ffffffff1660e01b8152600401600060405180830381600087803b15801561378657600080fd5b505af115801561379a573d6000803e3d6000fd5b509298975050505050505050565b6809c2007651b250000081101561073c5760405162461bcd60e51b815260040161072a90614fcd565b600082156138045760006137fb846137ef878663ffffffff61401516565b9063ffffffff61404f16565b91506125379050565b506000199392505050565b6000811561383b57613834826137ef8568056bc75e2d6310000063ffffffff61401516565b9050610984565b50600019610984565b600360009054906101000a90046001600160a01b03166001600160a01b0316635733d58f6040518163ffffffff1660e01b815260040160206040518083038186803b15801561389257600080fd5b505afa1580156138a6573d6000803e3d6000fd5b505050506040513d601f19601f820116820180604052508101906138ca919061456a565b81101561073c5760405162461bcd60e51b815260040161072a90614c2f565b600360009054906101000a90046001600160a01b03166001600160a01b031663794e57246040518163ffffffff1660e01b815260040160206040518083038186803b15801561393757600080fd5b505afa15801561394b573d6000803e3d6000fd5b505050506040513d601f19601f8201168201806040525081019061396f919061456a565b81101561073c5760405162461bcd60e51b815260040161072a90614f5e565b6000826001600160a01b0316826040516139a790614887565b60006040518083038185875af1925050503d80600081146139e4576040519150601f19603f3d011682016040523d82523d6000602084013e6139e9565b606091505b505090508061099b5760405162461bcd60e51b815260040161072a90614a40565b60405163f2e91d7160e01b81526001600160a01b0386169063f2e91d7190613a36908490600401615324565b600060405180830381600087803b158015613a5057600080fd5b505af1158015613a64573d6000803e3d6000fd5b50506040516340c10f1960e01b81526001600160a01b03871692506340c10f199150613a9690869086906004016148fc565b600060405180830381600087803b158015613ab057600080fd5b505af1158015610e22573d6000803e3d6000fd5b60008184841115613ae85760405162461bcd60e51b815260040161072a9190614990565b505050900390565b613af861423b565b613b0061423b565b5050604080518082019091526001600160a01b03929092168252602082015290565b6000811161073c5760405162461bcd60e51b815260040161072a90615198565b341580613b4d575080155b61073c5760405162461bcd60e51b815260040161072a90614b86565b34151580613b7657508115155b80613b8057508015155b6109b25760405162461bcd60e51b815260040161072a90614d0f565b6000808315613bb057508290506001613bb4565b8291505b9250929050565b6000806000613bce8a8a8a8a8a8a614091565b915091506000612a528383876137d1565b8315613c1857613bee836140e7565b8115613c1357613c018160e00151613844565b613c138160e001518260c00151614105565b610750565b613c258160e001516138e9565b613c42816020015182606001518360400151858560000151612c04565b610100820181905261075090612c8f565b6000610984826801158e460913d0000063ffffffff6124f516565b613c87826801158e460913d0000063ffffffff6124f516565b8111156109b25760405162461bcd60e51b815260040161072a9061505f565b600080600085613d355760405163d3d6f84360e01b81526001600160a01b038a169063d3d6f84390613cde908b908b906004016148fc565b602060405180830381600087803b158015613cf857600080fd5b505af1158015613d0c573d6000803e3d6000fd5b505050506040513d601f19601f82011682018060405250810190613d30919061456a565b613db5565b6040516372423c1760e01b81526001600160a01b038a16906372423c1790613d63908b908b906004016148fc565b602060405180830381600087803b158015613d7d57600080fd5b505af1158015613d91573d6000803e3d6000fd5b505050506040513d601f19601f82011682018060405250810190613db5919061456a565b9050600084613e4357604051630930874960e11b81526001600160a01b038b16906312610e9290613dec908c908a906004016148fc565b602060405180830381600087803b158015613e0657600080fd5b505af1158015613e1a573d6000803e3d6000fd5b505050506040513d601f19601f82011682018060405250810190613e3e919061456a565b613ec3565b604051639976cf4560e01b81526001600160a01b038b1690639976cf4590613e71908c908a906004016148fc565b602060405180830381600087803b158015613e8b57600080fd5b505af1158015613e9f573d6000803e3d6000fd5b505050506040513d601f19601f82011682018060405250810190613ec3919061456a565b919a91995090975050505050505050565b6000806000613ee7898989898989614091565b915091506000613ef7838361380f565b9a9950505050505050505050565b8215613f1d57613f188989838786613a0a565b613f29565b613f2989898987612d34565b8415613f3e57613f39898761398e565b610e22565b6040516364a197f360e01b81526001600160a01b038a16906364a197f390613f6c908a908a906004016148fc565b600060405180830381600087803b158015613f8657600080fd5b505af1158015613f9a573d6000803e3d6000fd5b50505050505050505050505050565b600080613fb46113eb565b90506000613fc0610f1e565b9050613fcd8282866137d1565b949350505050565b6000613ff3836137ef86670de0b6b3a764000063ffffffff61401516565b9050818111156107505760405162461bcd60e51b815260040161072a9061524c565b60008261402457506000610984565b8282028284828161403157fe5b04146125375760405162461bcd60e51b815260040161072a90614d7b565b600061253783836040518060400160405280601a81526020017f536166654d6174683a206469766973696f6e206279207a65726f000000000000815250614125565b6000808787866140b0576140ab8a8963ffffffff6124f516565b6140c0565b6140c08a8963ffffffff6127ef16565b9150846140d757613e3e898763ffffffff6124f516565b613ec3898763ffffffff6127ef16565b801561073c5760405162461bcd60e51b815260040161072a90614eaa565b808210156109b25760405162461bcd60e51b815260040161072a906151ef565b600081836141465760405162461bcd60e51b815260040161072a9190614990565b50600083858161415257fe5b0495945050505050565b604080516060810182526000808252602082018190529181019190915290565b60405180610100016040528060008152602001600081526020016000815260200160008152602001600081526020016000815260200160008152602001600081525090565b604051806101e00160405280600081526020016000815260200160008152602001600015158152602001600081526020016000815260200160008152602001600081526020016000815260200160008152602001600081526020016000815260200160008152602001600081526020016000151581525090565b604080518082019091526000808252602082015290565b80356109848161535e565b60008083601f84011261426e578182fd5b50813567ffffffffffffffff811115614285578182fd5b602083019150836020828501011115613bb457600080fd5b6000608082840312156142ae578081fd5b50919050565b600081830360808112156142c6578182fd5b6142d0606061532d565b915060408112156142e057600080fd5b506142eb604061532d565b82356142f68161535e565b808252506020830135602082015280825250604082013560208201526060820135604082015292915050565b600060208284031215614333578081fd5b81356125378161535e565b60006020828403121561434f578081fd5b81516125378161535e565b6000806040838503121561436c578081fd5b82356143778161535e565b915060208301356143878161535e565b809150509250929050565b6000806000606084860312156143a6578081fd5b83356143b18161535e565b925060208401356143c18161535e565b915060408401356143d18161535e565b809150509250925092565b6000806000806000806000806000806000806101808d8f0312156143fe578788fd5b8c356144098161535e565b9b5060208d01356144198161535e565b9a5060408d01356144298161535e565b995060608d01356144398161535e565b985060808d01356144498161535e565b975060a08d01356144598161535e565b96506144688e60c08f01614252565b95506144778e60e08f01614252565b94506144878e6101008f01614252565b93506144978e6101208f01614252565b92506144a78e6101408f01614252565b91506144b78e6101608f01614252565b90509295989b509295989b509295989b565b6000602082840312156144da578081fd5b815161253781615373565b6000608082840312156144f6578081fd5b612537838361429d565b600080600060a08486031215614514578283fd5b61451e85856142b4565b9250608084013567ffffffffffffffff811115614539578283fd5b6145458682870161425d565b9497909650939450505050565b600060208284031215614563578081fd5b5035919050565b60006020828403121561457b578081fd5b5051919050565b600080600060608486031215614596578283fd5b8335925060208401356143c18161535e565b60008060008060e085870312156145bd578182fd5b8435935060208501356145cf8161535e565b925060408501356145df8161535e565b91506145ee866060870161429d565b905092959194509250565b6000806000806000806101008789031215614612578384fd5b8635955060208701356146248161535e565b945060408701356146348161535e565b935061464388606089016142b4565b925060e087013567ffffffffffffffff81111561465e578283fd5b61466a89828a0161425d565b979a9699509497509295939492505050565b60008060008060808587031215614691578182fd5b843593506020850135925060408501356146aa8161535e565b915060608501356146ba8161535e565b939692955090935050565b60008060008060008060c087890312156146dd578384fd5b86359550602087013594506040870135935060608701356146fd81615373565b9250608087013561470d8161535e565b915060a087013561471d8161535e565b809150509295509295509295565b6000806000806000806000610140888a031215614746578081fd5b873596506020880135955060408801359450606088013561476681615373565b935060808801356147768161535e565b925060a08801356147868161535e565b91506147958960c08a0161429d565b905092959891949750929550565b60008060008060008060008060006101608a8c0312156147c1578283fd5b8935985060208a0135975060408a0135965060608a01356147e181615373565b955060808a01356147f18161535e565b945060a08a01356148018161535e565b93506148108b60c08c016142b4565b92506101408a013567ffffffffffffffff81111561482c578283fd5b6148388c828d0161425d565b8194508093505050509295985092959850929598565b60006020828403121561485f578081fd5b813560ff81168114612537578182fd5b80516001600160a01b03168252602090810151910152565b90565b7035b2bc9737bbb730b136329737bbb732b960791b815260110190565b6001600160a01b0391909116815260200190565b6001600160a01b0397881681529590961660208601526040850193909352606084019190915260ff16608083015260a082015260c081019190915260e00190565b6001600160a01b03929092168252602082015260400190565b6001600160a01b03948516815260208101939093529083166040830152909116606082015260800190565b6001600160a01b0393841681526020810192909252909116604082015260600190565b84815260208101849052604081018390526080810161498183615354565b82606083015295945050505050565b6000602080835283518082850152825b818110156149bc578581018301518582016040015282016149a0565b818111156149cd5783604083870101525b50601f01601f1916929092016040019392505050565b6020808252603d908201527f426f72726f7765724f70733a2043616c6c657220646f65736e7420686176652060408201527f656e6f756768205a55534420746f206d616b652072657061796d656e74000000606082015260800190565b6020808252602d908201527f426f72726f7765724f70733a2053656e64696e672045544820746f204163746960408201526c1d99541bdbdb0819985a5b1959609a1b606082015260800190565b60208082526029908201527f444c4c52207472616e7366657272656420616d6f756e742076616c69646174696040820152681bdb8819985a5b195960ba1b606082015260800190565b6020808252601b908201527f536166654d6174683a206164646974696f6e206f766572666c6f770000000000604082015260600190565b6020808252601e908201527f5a555344206973206e6f7420626f72726f77656420636f72726563746c790000604082015260600190565b60208082526022908201527f4f776e61626c653a3a7365744f776e65723a20696e76616c6964206164647265604082015261737360f01b606082015260800190565b60208082526030908201527f426f72726f7765724f7065726174696f6e733a2043616e6e6f7420776974686460408201526f1c985dc8185b99081859190818dbdb1b60821b606082015260800190565b60208082526039908201527f426f72726f7765724f70733a204f7065726174696f6e206e6f74207065726d696040820152787474656420647572696e67205265636f76657279204d6f646560381b606082015260800190565b60208082526037908201527f426f72726f7765724f70733a204f7065726174696f6e206d757374206c65617660408201527632903a3937bb32903bb4ba341024a1a9101f1e9021a1a960491b606082015260800190565b6020808252601e908201527f4163636f756e742063616e6e6f74206265207a65726f20616464726573730000604082015260600190565b60208082526032908201527f4d6178206665652070657263656e74616765206d757374206c657373207468616040820152716e206f7220657175616c20746f203130302560701b606082015260800190565b60208082526046908201527f426f72726f7765724f70733a205468657265206d75737420626520656974686560408201527f72206120636f6c6c61746572616c206368616e6765206f7220612064656274206060820152656368616e676560d01b608082015260a00190565b60208082526021908201527f536166654d6174683a206d756c7469706c69636174696f6e206f766572666c6f6040820152607760f81b606082015260800190565b60208082526049908201527f426f72726f7765724f70733a20416e206f7065726174696f6e2074686174207760408201527f6f756c6420726573756c7420696e20544352203c20434352206973206e6f74206060820152681c195c9b5a5d1d195960ba1b608082015260a00190565b6020808252602e908201527f426f72726f7765724f70733a2054726f766520646f6573206e6f74206578697360408201526d1d081bdc881a5cc818db1bdcd95960921b606082015260800190565b60208082526017908201527613dddb98589b194e8e881858d8d95cdcc819195b9a5959604a1b604082015260600190565b6020808252603e908201527f426f72726f7765724f70733a20436f6c6c61746572616c20776974686472617760408201527f616c206e6f74207065726d6974746564205265636f76657279204d6f64650000606082015260800190565b60208082526037908201527f4661696c656420746f20617070726f7665205a55534420616d6f756e7420666f60408201527672204d796e74206d417373657420746f2072656465656d60481b606082015260800190565b60208082526049908201527f426f72726f7765724f70733a20416e206f7065726174696f6e2074686174207760408201527f6f756c6420726573756c7420696e20494352203c204d4352206973206e6f74206060820152681c195c9b5a5d1d195960ba1b608082015260a00190565b6020808252603a908201527f426f72726f7765724f70733a2054726f76652773206e65742064656274206d7560408201527f73742062652067726561746572207468616e206d696e696d756d000000000000606082015260800190565b6020808252818101527f4163636f756e7420636f64652073697a652063616e6e6f74206265207a65726f604082015260600190565b60208082526043908201527f426f72726f7765724f70733a20416d6f756e7420726570616964206d7573742060408201527f6e6f74206265206c6172676572207468616e207468652054726f76652773206460608201526219589d60ea1b608082015260a00190565b60208082526029908201527f426f72726f7765724f70733a2043616c6c6572206973206e6f742053746162696040820152681b1a5d1e48141bdbdb60ba1b606082015260800190565b60208082526030908201527f4d6178206665652070657263656e74616765206d75737420626520626574776560408201526f656e20302e352520616e64203130302560801b606082015260800190565b6020808252601c908201527f426f72726f7765724f70733a2054726f76652069732061637469766500000000604082015260600190565b60208082526037908201527f426f72726f7765724f70733a204465627420696e637265617365207265717569604082015276726573206e6f6e2d7a65726f20646562744368616e676560481b606082015260800190565b6020808252603e908201527f426f72726f7765724f70733a2043616e6e6f7420646563726561736520796f7560408201527f722054726f766527732049435220696e205265636f76657279204d6f64650000606082015260800190565b6020808252601d908201527f4665652065786365656465642070726f7669646564206d6178696d756d000000604082015260600190565b60208082526016908201527513585cdcd95d081859191c995cdcc81b9bdd081cd95d60521b604082015260600190565b60006101006152c383895161486f565b60208801516040840152604088015160608401526152e4608084018861486f565b6001600160a01b03861660c084015260e083018190528201839052610120838582850137828401810191909152601f909201601f19160101949350505050565b90815260200190565b60405181810167ffffffffffffffff8111828210171561534c57600080fd5b604052919050565b6003811061073c57fe5b6001600160a01b038116811461073c57600080fd5b801515811461073c57600080fdfec3770d654ed33aeea6bf11ac8ef05d02a6a04ed4686dd2f624d853bbec43cc8ba2646970667358221220d120acbe65cce8941b8861f7f088c38db70c3c3f5d0f6b683b1f647a5fae8a2564736f6c634300060b0033",
    "implementation": "0x786FA6431A76475E5e2b94f6E2ef367C1c329af9"
}