{
    "address": "0xdC3e5232db60088D67aA7AF10595979D7eB5290f",
    "abi": [
        {
            "inputs": [
                {
                    "internalType": "address",
                    "name": "_moc",
                    "type": "address"
                },
                {
                    "internalType": "address",
                    "name": "_doc",
                    "type": "address"
                },
                {
                    "internalType": "address",
                    "name": "_dllr",
                    "type": "address"
                },
                {
                    "internalType": "address",
                    "name": "_massetManager",
                    "type": "address"
                },
                {
                    "internalType": "address",
                    "name": "_permit2",
                    "type": "address"
                }
            ],
            "stateMutability": "nonpayable",
            "type": "constructor"
        },
        {
            "anonymous": false,
            "inputs": [
                {
                    "indexed": false,
                    "internalType": "address",
                    "name": "previousAdmin",
                    "type": "address"
                },
                {
                    "indexed": false,
                    "internalType": "address",
                    "name": "newAdmin",
                    "type": "address"
                }
            ],
            "name": "AdminChanged",
            "type": "event"
        },
        {
            "anonymous": false,
            "inputs": [
                {
                    "indexed": true,
                    "internalType": "address",
                    "name": "beacon",
                    "type": "address"
                }
            ],
            "name": "BeaconUpgraded",
            "type": "event"
        },
        {
            "anonymous": false,
            "inputs": [
                {
                    "indexed": true,
                    "internalType": "address",
                    "name": "from",
                    "type": "address"
                },
                {
                    "indexed": false,
                    "internalType": "uint256",
                    "name": "fromDLLR",
                    "type": "uint256"
                },
                {
                    "indexed": false,
                    "internalType": "uint256",
                    "name": "toRBTC",
                    "type": "uint256"
                }
            ],
            "name": "GetDocFromDllrAndRedeemRBTC",
            "type": "event"
        },
        {
            "anonymous": false,
            "inputs": [
                {
                    "indexed": false,
                    "internalType": "uint8",
                    "name": "version",
                    "type": "uint8"
                }
            ],
            "name": "Initialized",
            "type": "event"
        },
        {
            "anonymous": false,
            "inputs": [
                {
                    "indexed": false,
                    "internalType": "address",
                    "name": "newMocVendorAccount",
                    "type": "address"
                }
            ],
            "name": "MocVendorAccountSet",
            "type": "event"
        },
        {
            "anonymous": false,
            "inputs": [
                {
                    "indexed": true,
                    "internalType": "address",
                    "name": "previousOwner",
                    "type": "address"
                },
                {
                    "indexed": true,
                    "internalType": "address",
                    "name": "newOwner",
                    "type": "address"
                }
            ],
            "name": "OwnershipTransferred",
            "type": "event"
        },
        {
            "anonymous": false,
            "inputs": [
                {
                    "indexed": true,
                    "internalType": "address",
                    "name": "implementation",
                    "type": "address"
                }
            ],
            "name": "Upgraded",
            "type": "event"
        },
        {
            "inputs": [],
            "name": "dllr",
            "outputs": [
                {
                    "internalType": "contract IDLLR",
                    "name": "",
                    "type": "address"
                }
            ],
            "stateMutability": "view",
            "type": "function"
        },
        {
            "inputs": [],
            "name": "doc",
            "outputs": [
                {
                    "internalType": "contract IERC20",
                    "name": "",
                    "type": "address"
                }
            ],
            "stateMutability": "view",
            "type": "function"
        },
        {
            "inputs": [
                {
                    "internalType": "uint256",
                    "name": "_dllrAmount",
                    "type": "uint256"
                },
                {
                    "components": [
                        {
                            "internalType": "uint256",
                            "name": "deadline",
                            "type": "uint256"
                        },
                        {
                            "internalType": "uint8",
                            "name": "v",
                            "type": "uint8"
                        },
                        {
                            "internalType": "bytes32",
                            "name": "r",
                            "type": "bytes32"
                        },
                        {
                            "internalType": "bytes32",
                            "name": "s",
                            "type": "bytes32"
                        }
                    ],
                    "internalType": "struct PermitParams",
                    "name": "_permitParams",
                    "type": "tuple"
                }
            ],
            "name": "getDocFromDllrAndRedeemRBTC",
            "outputs": [],
            "stateMutability": "nonpayable",
            "type": "function"
        },
        {
            "inputs": [
                {
                    "components": [
                        {
                            "components": [
                                {
                                    "internalType": "address",
                                    "name": "token",
                                    "type": "address"
                                },
                                {
                                    "internalType": "uint256",
                                    "name": "amount",
                                    "type": "uint256"
                                }
                            ],
                            "internalType": "struct ISignatureTransfer.TokenPermissions",
                            "name": "permitted",
                            "type": "tuple"
                        },
                        {
                            "internalType": "uint256",
                            "name": "nonce",
                            "type": "uint256"
                        },
                        {
                            "internalType": "uint256",
                            "name": "deadline",
                            "type": "uint256"
                        }
                    ],
                    "internalType": "struct ISignatureTransfer.PermitTransferFrom",
                    "name": "permit",
                    "type": "tuple"
                },
                {
                    "internalType": "bytes",
                    "name": "signature",
                    "type": "bytes"
                }
            ],
            "name": "getDocFromDllrAndRedeemRbtcWithPermit2",
            "outputs": [],
            "stateMutability": "nonpayable",
            "type": "function"
        },
        {
            "inputs": [
                {
                    "internalType": "address",
                    "name": "_address",
                    "type": "address"
                }
            ],
            "name": "getPermit2Nonce",
            "outputs": [
                {
                    "internalType": "uint256",
                    "name": "",
                    "type": "uint256"
                }
            ],
            "stateMutability": "view",
            "type": "function"
        },
        {
            "inputs": [],
            "name": "getProxyImplementation",
            "outputs": [
                {
                    "internalType": "address",
                    "name": "",
                    "type": "address"
                }
            ],
            "stateMutability": "view",
            "type": "function"
        },
        {
            "inputs": [
                {
                    "internalType": "address payable",
                    "name": "_mocVendorAccount",
                    "type": "address"
                }
            ],
            "name": "initialize",
            "outputs": [],
            "stateMutability": "nonpayable",
            "type": "function"
        },
        {
            "inputs": [],
            "name": "massetManager",
            "outputs": [
                {
                    "internalType": "contract IMassetManager",
                    "name": "",
                    "type": "address"
                }
            ],
            "stateMutability": "view",
            "type": "function"
        },
        {
            "inputs": [],
            "name": "moc",
            "outputs": [
                {
                    "internalType": "contract IMocMintRedeemDoc",
                    "name": "",
                    "type": "address"
                }
            ],
            "stateMutability": "view",
            "type": "function"
        },
        {
            "inputs": [],
            "name": "mocVendorAccount",
            "outputs": [
                {
                    "internalType": "address",
                    "name": "",
                    "type": "address"
                }
            ],
            "stateMutability": "view",
            "type": "function"
        },
        {
            "inputs": [],
            "name": "owner",
            "outputs": [
                {
                    "internalType": "address",
                    "name": "",
                    "type": "address"
                }
            ],
            "stateMutability": "view",
            "type": "function"
        },
        {
            "inputs": [],
            "name": "permit2",
            "outputs": [
                {
                    "internalType": "contract IPermit2",
                    "name": "",
                    "type": "address"
                }
            ],
            "stateMutability": "view",
            "type": "function"
        },
        {
            "inputs": [],
            "name": "renounceOwnership",
            "outputs": [],
            "stateMutability": "nonpayable",
            "type": "function"
        },
        {
            "inputs": [
                {
                    "internalType": "address payable",
                    "name": "newMocVedorAccount",
                    "type": "address"
                }
            ],
            "name": "setMocVendorAccount",
            "outputs": [],
            "stateMutability": "nonpayable",
            "type": "function"
        },
        {
            "inputs": [
                {
                    "internalType": "address",
                    "name": "newOwner",
                    "type": "address"
                }
            ],
            "name": "transferOwnership",
            "outputs": [],
            "stateMutability": "nonpayable",
            "type": "function"
        },
        {
            "stateMutability": "payable",
            "type": "receive"
        }
    ],
    "numDeployments": 5,
    "bytecode": "0x6101206040523480156200001257600080fd5b506040516200132938038062001329833981016040819052620000359162000140565b6001600160a01b038516158015906200005657506001600160a01b03841615155b80156200006b57506001600160a01b03831615155b80156200008057506001600160a01b03821615155b80156200009557506001600160a01b03811615155b620000f95760405162461bcd60e51b815260206004820152602a60248201527f4d6f63496e746567726174696f6e3a3a206e6f206e756c6c2061646472657373604482015269195cc8185b1b1bddd95960b21b606482015260840160405180910390fd5b6001600160a01b0394851660805292841660a05290831660c052821660e0521661010052620001b0565b80516001600160a01b03811681146200013b57600080fd5b919050565b600080600080600060a086880312156200015957600080fd5b620001648662000123565b9450620001746020870162000123565b9350620001846040870162000123565b9250620001946060870162000123565b9150620001a46080870162000123565b90509295509295909350565b60805160a05160c05160e051610100516110fc6200022d6000396000818161010a01526106f80152600081816102af0152818161046f01526107dd01526000818161015b015261035c0152600081816102280152818161043501526107a40152600081816101b101528181610531015261089701526110fc6000f3fe6080604052600436106100ec5760003560e01c80638da5cb5b1161008a578063c4d66de811610059578063c4d66de8146102d1578063e5085517146102f1578063f2fde38b14610311578063fc1768191461033157600080fd5b80638da5cb5b1461024a57806390e4b720146102685780639b2633ae1461027d578063b5c89bab1461029d57600080fd5b806353428253116100c6578063534282531461019f57806366960ead146101d3578063715018a6146102015780637a0a3ac51461021657600080fd5b806312261ee7146100f857806333c507ae14610149578063460f2de11461017d57600080fd5b366100f357005b600080fd5b34801561010457600080fd5b5061012c7f000000000000000000000000000000000000000000000000000000000000000081565b6040516001600160a01b0390911681526020015b60405180910390f35b34801561015557600080fd5b5061012c7f000000000000000000000000000000000000000000000000000000000000000081565b34801561018957600080fd5b5061019d610198366004610cbf565b610351565b005b3480156101ab57600080fd5b5061012c7f000000000000000000000000000000000000000000000000000000000000000081565b3480156101df57600080fd5b506101f36101ee366004610d0c565b610653565b604051908152602001610140565b34801561020d57600080fd5b5061019d610673565b34801561022257600080fd5b5061012c7f000000000000000000000000000000000000000000000000000000000000000081565b34801561025657600080fd5b506033546001600160a01b031661012c565b34801561027457600080fd5b5061012c610687565b34801561028957600080fd5b5061019d610298366004610dfc565b6106bf565b3480156102a957600080fd5b5061012c7f000000000000000000000000000000000000000000000000000000000000000081565b3480156102dd57600080fd5b5061019d6102ec366004610d0c565b6109bb565b3480156102fd57600080fd5b5061019d61030c366004610d0c565b610ad6565b34801561031d57600080fd5b5061019d61032c366004610d0c565b610aea565b34801561033d57600080fd5b5060975461012c906001600160a01b031681565b306001600160a01b037f00000000000000000000000000000000000000000000000000000000000000001663605629d633838686356103966040890160208a01610ebf565b604080516001600160e01b031960e089901b1681526001600160a01b0396871660048201529590941660248601526044850192909252606484015260ff16608483015285013560a4820152606085013560c482015260e401600060405180830381600087803b15801561040857600080fd5b505af115801561041c573d6000803e3d6000fd5b505060405163fb2c922360e01b81526001600160a01b037f0000000000000000000000000000000000000000000000000000000000000000811660048301526024820187905284811660448301528693507f000000000000000000000000000000000000000000000000000000000000000016915063fb2c9223906064016020604051808303816000875af11580156104b9573d6000803e3d6000fd5b505050506040513d601f19601f820116820180604052508101906104dd9190610ee2565b146105035760405162461bcd60e51b81526004016104fa90610efb565b60405180910390fd5b60975460405163b7aa53e760e01b8152600481018590526001600160a01b03918216602482015282821631917f0000000000000000000000000000000000000000000000000000000000000000169063b7aa53e790604401600060405180830381600087803b15801561057557600080fd5b505af1158015610589573d6000803e3d6000fd5b50505050600081836001600160a01b0316316105a59190610f49565b604051909150600090339083908381818185875af1925050503d80600081146105ea576040519150601f19603f3d011682016040523d82523d6000602084013e6105ef565b606091505b50509050806106105760405162461bcd60e51b81526004016104fa90610f6a565b604080518781526020810184905233917f5933f612d4a5aafda234d2ad17b54eba4187e2bb520cf7373e223c5894851ca5910160405180910390a2505050505050565b6001600160a01b0381166000908152609860205260408120545b92915050565b61067b610b60565b6106856000610bba565b565b60006106ba7f360894a13ba1a3210667c828492db98dca3e2076cc3735a920a3ca505d382bbc546001600160a01b031690565b905090565b81516020908101516040805180820182526000808252908401528051808201825230808252938101839052905163187945bd60e11b81527f00000000000000000000000000000000000000000000000000000000000000006001600160a01b0316906330f28b7a9061073b908890859033908a90600401610fbb565b600060405180830381600087803b15801561075557600080fd5b505af1158015610769573d6000803e3d6000fd5b5050336000908152609860205260409020805460018101909155915061078c9050565b5060405163fb2c922360e01b81526001600160a01b037f00000000000000000000000000000000000000000000000000000000000000008116600483015260248201849052848116604483015283917f00000000000000000000000000000000000000000000000000000000000000009091169063fb2c9223906064016020604051808303816000875af1158015610828573d6000803e3d6000fd5b505050506040513d601f19601f8201168201806040525081019061084c9190610ee2565b146108695760405162461bcd60e51b81526004016104fa90610efb565b60975460405163b7aa53e760e01b8152600481018490526001600160a01b03918216602482015284821631917f0000000000000000000000000000000000000000000000000000000000000000169063b7aa53e790604401600060405180830381600087803b1580156108db57600080fd5b505af11580156108ef573d6000803e3d6000fd5b50505050600081856001600160a01b03163161090b9190610f49565b604051909150600090339083908381818185875af1925050503d8060008114610950576040519150601f19603f3d011682016040523d82523d6000602084013e610955565b606091505b50509050806109765760405162461bcd60e51b81526004016104fa90610f6a565b604080518681526020810184905233917f5933f612d4a5aafda234d2ad17b54eba4187e2bb520cf7373e223c5894851ca5910160405180910390a25050505050505050565b600054610100900460ff16158080156109db5750600054600160ff909116105b806109f55750303b1580156109f5575060005460ff166001145b610a585760405162461bcd60e51b815260206004820152602e60248201527f496e697469616c697a61626c653a20636f6e747261637420697320616c72656160448201526d191e481a5b9a5d1a585b1a5e995960921b60648201526084016104fa565b6000805460ff191660011790558015610a7b576000805461ff0019166101001790555b610a83610c0c565b610a8c82610c3b565b8015610ad2576000805461ff0019169055604051600181527f7f26b83ff96e1f2b6a682f133852f6798a09c465da95921460cefb38474024989060200160405180910390a15b5050565b610ade610b60565b610ae781610c3b565b50565b610af2610b60565b6001600160a01b038116610b575760405162461bcd60e51b815260206004820152602660248201527f4f776e61626c653a206e6577206f776e657220697320746865207a65726f206160448201526564647265737360d01b60648201526084016104fa565b610ae781610bba565b6033546001600160a01b031633146106855760405162461bcd60e51b815260206004820181905260248201527f4f776e61626c653a2063616c6c6572206973206e6f7420746865206f776e657260448201526064016104fa565b603380546001600160a01b038381166001600160a01b0319831681179093556040519116919082907f8be0079c531659141344cd1fd0a4f28419497f9722a3daafe3b4186f6b6457e090600090a35050565b600054610100900460ff16610c335760405162461bcd60e51b81526004016104fa9061107b565b610685610c8f565b609780546001600160a01b0319166001600160a01b0383169081179091556040519081527fc2a1feb9d65ecb31b0e93a520a66d19319929a2bf58046d92d762c04e7dd06c99060200160405180910390a150565b600054610100900460ff16610cb65760405162461bcd60e51b81526004016104fa9061107b565b61068533610bba565b60008082840360a0811215610cd357600080fd5b833592506080601f1982011215610ce957600080fd5b506020830190509250929050565b6001600160a01b0381168114610ae757600080fd5b600060208284031215610d1e57600080fd5b8135610d2981610cf7565b9392505050565b634e487b7160e01b600052604160045260246000fd5b6040805190810167ffffffffffffffff81118282101715610d6957610d69610d30565b60405290565b600082601f830112610d8057600080fd5b813567ffffffffffffffff80821115610d9b57610d9b610d30565b604051601f8301601f19908116603f01168101908282118183101715610dc357610dc3610d30565b81604052838152866020858801011115610ddc57600080fd5b836020870160208301376000602085830101528094505050505092915050565b60008082840360a0811215610e1057600080fd5b6080811215610e1e57600080fd5b6040516060810167ffffffffffffffff8282108183111715610e4257610e42610d30565b816040526040841215610e5457600080fd5b610e5c610d46565b935086359150610e6b82610cf7565b8184526020870135602085015283835260408701356020840152606087013560408401528295506080870135935080841115610ea657600080fd5b505050610eb585828601610d6f565b9150509250929050565b600060208284031215610ed157600080fd5b813560ff81168114610d2957600080fd5b600060208284031215610ef457600080fd5b5051919050565b6020808252602e908201527f4d6f63496e746567726174696f6e3a3a2072656465656d656420696e636f727260408201526d1958dd08111bd0c8185b5bdd5b9d60921b606082015260800190565b8181038181111561066d57634e487b7160e01b600052601160045260246000fd5b60208082526031908201527f4d6f63496e746567726174696f6e3a3a206572726f72207472616e7366657272604082015270696e672072656465656d6564205242544360781b606082015260800190565b6000610100610fde83885180516001600160a01b03168252602090810151910152565b602080880151604085015260408801516060850152611013608085018880516001600160a01b03168252602090810151910152565b6001600160a01b03861660c085015260e0840182905284519184018290526000915b8083101561105457858301820151858401610120015291810191611035565b6101209250600083828701015282601f19601f830116860101935050505095945050505050565b6020808252602b908201527f496e697469616c697a61626c653a20636f6e7472616374206973206e6f74206960408201526a6e697469616c697a696e6760a81b60608201526080019056fea2646970667358221220d3520caf24be1597c52a894253bc89ae96dd1ecde727f772f65c3be231572d2864736f6c63430008110033",
    "implementation": "0x70AF585169AAdafd36115d6404Db6597433C8E82",
    "devdoc": {
        "kind": "dev",
        "methods": {
            "constructor": {
                "params": {
                    "_dllr": "DLLR contract address",
                    "_doc": "DoC contract address",
                    "_massetManager": "MassetManager contract address",
                    "_moc": "MoC main contract address"
                }
            },
            "getDocFromDllrAndRedeemRBTC(uint256,(uint256,uint8,bytes32,bytes32))": {
                "params": {
                    "_dllrAmount": "The amount of the DLLR (mAsset) that will be burned in exchange for _toToken",
                    "_permitParams": "EIP-2612 permit params:        _deadline Expiration time of the signature.        _v Last 1 byte of ECDSA signature.        _r First 32 bytes of ECDSA signature.        _s 32 bytes after _r in ECDSA signature."
                }
            },
            "getDocFromDllrAndRedeemRbtcWithPermit2(((address,uint256),uint256,uint256),bytes)": {
                "params": {
                    "permit": "permit data, in form of PermitTransferFrom struct.",
                    "signature": "of the permit data."
                }
            },
            "getPermit2Nonce(address)": {
                "details": "getter for currernt nonce",
                "params": {
                    "_address": "address of owner"
                },
                "returns": {
                    "_0": "current nonce of the owner's address"
                }
            },
            "getProxyImplementation()": {
                "details": "get the implementation logic address referring to ERC1967 standard.",
                "returns": {
                    "_0": "logic implementation address."
                }
            },
            "owner()": {
                "details": "Returns the address of the current owner."
            },
            "renounceOwnership()": {
                "details": "Leaves the contract without owner. It will not be possible to call `onlyOwner` functions anymore. Can only be called by the current owner. NOTE: Renouncing ownership will leave the contract without an owner, thereby removing any functionality that is only available to the owner."
            },
            "transferOwnership(address)": {
                "details": "Transfers ownership of the contract to a new account (`newOwner`). Can only be called by the current owner."
            }
        },
        "version": 1
    },
    "userdoc": {
        "kind": "user",
        "methods": {
            "getDocFromDllrAndRedeemRBTC(uint256,(uint256,uint8,bytes32,bytes32))": {
                "notice": "how getDocFromDllrAndRedeemRBTC function works: ------------------------------------------------------------------------------------------- |               Mynt                         |                Money On Chain              | ------------------------------------------------------------------------------------------- | get DLLR (EIP-2612) -> convert DLLR to DoC | -> get RBTC from DoC -> send RBTC to user  | -------------------------------------------------------------------------------------------"
            },
            "getDocFromDllrAndRedeemRbtcWithPermit2(((address,uint256),uint256,uint256),bytes)": {
                "notice": "how getDocFromDllrAndRedeemRBTC function works: ------------------------------------------------------------------------------------------- |               Mynt                         |                Money On Chain              | ------------------------------------------------------------------------------------------- | get DLLR (EIP-2612) -> convert DLLR to DoC | -> get RBTC from DoC -> send RBTC to user  | -------------------------------------------------------------------------------------------"
            },
            "setMocVendorAccount(address)": {
                "notice": "Set MoC registered Vendor account to receive markup fees https://docs.moneyonchain.com/main-rbtc-contract/integration-with-moc-platform/vendors"
            }
        },
        "notice": "This contract provides compound functions with Money On Chain wrapping them in one transaction for convenience and to save on gas",
        "version": 1
    },
    "storageLayout": {
        "storage": [
            {
                "astId": 534,
                "contract": "contracts/integration/MoC/MocIntegration.sol:MocIntegration",
                "label": "_initialized",
                "offset": 0,
                "slot": "0",
                "type": "t_uint8"
            },
            {
                "astId": 537,
                "contract": "contracts/integration/MoC/MocIntegration.sol:MocIntegration",
                "label": "_initializing",
                "offset": 1,
                "slot": "0",
                "type": "t_bool"
            },
            {
                "astId": 1021,
                "contract": "contracts/integration/MoC/MocIntegration.sol:MocIntegration",
                "label": "__gap",
                "offset": 0,
                "slot": "1",
                "type": "t_array(t_uint256)50_storage"
            },
            {
                "astId": 10,
                "contract": "contracts/integration/MoC/MocIntegration.sol:MocIntegration",
                "label": "_owner",
                "offset": 0,
                "slot": "51",
                "type": "t_address"
            },
            {
                "astId": 130,
                "contract": "contracts/integration/MoC/MocIntegration.sol:MocIntegration",
                "label": "__gap",
                "offset": 0,
                "slot": "52",
                "type": "t_array(t_uint256)49_storage"
            },
            {
                "astId": 516,
                "contract": "contracts/integration/MoC/MocIntegration.sol:MocIntegration",
                "label": "__gap",
                "offset": 0,
                "slot": "101",
                "type": "t_array(t_uint256)50_storage"
            },
            {
                "astId": 3845,
                "contract": "contracts/integration/MoC/MocIntegration.sol:MocIntegration",
                "label": "mocVendorAccount",
                "offset": 0,
                "slot": "151",
                "type": "t_address"
            },
            {
                "astId": 3853,
                "contract": "contracts/integration/MoC/MocIntegration.sol:MocIntegration",
                "label": "_permit2Nonces",
                "offset": 0,
                "slot": "152",
                "type": "t_mapping(t_address,t_struct(Counter)2121_storage)"
            }
        ],
        "types": {
            "t_address": {
                "encoding": "inplace",
                "label": "address",
                "numberOfBytes": "20"
            },
            "t_array(t_uint256)49_storage": {
                "base": "t_uint256",
                "encoding": "inplace",
                "label": "uint256[49]",
                "numberOfBytes": "1568"
            },
            "t_array(t_uint256)50_storage": {
                "base": "t_uint256",
                "encoding": "inplace",
                "label": "uint256[50]",
                "numberOfBytes": "1600"
            },
            "t_bool": {
                "encoding": "inplace",
                "label": "bool",
                "numberOfBytes": "1"
            },
            "t_mapping(t_address,t_struct(Counter)2121_storage)": {
                "encoding": "mapping",
                "key": "t_address",
                "label": "mapping(address => struct Counters.Counter)",
                "numberOfBytes": "32",
                "value": "t_struct(Counter)2121_storage"
            },
            "t_struct(Counter)2121_storage": {
                "encoding": "inplace",
                "label": "struct Counters.Counter",
                "members": [
                    {
                        "astId": 2120,
                        "contract": "contracts/integration/MoC/MocIntegration.sol:MocIntegration",
                        "label": "_value",
                        "offset": 0,
                        "slot": "0",
                        "type": "t_uint256"
                    }
                ],
                "numberOfBytes": "32"
            },
            "t_uint256": {
                "encoding": "inplace",
                "label": "uint256",
                "numberOfBytes": "32"
            },
            "t_uint8": {
                "encoding": "inplace",
                "label": "uint8",
                "numberOfBytes": "1"
            }
        }
    }
}