{
    "address": "0x176D218CaB70002CEF08e15271476187c37ed25f",
    "abi": [
        {
            "anonymous": false,
            "inputs": [
                {
                    "indexed": true,
                    "internalType": "address",
                    "name": "_oldImplementation",
                    "type": "address"
                },
                {
                    "indexed": true,
                    "internalType": "address",
                    "name": "_newImplementation",
                    "type": "address"
                }
            ],
            "name": "ImplementationChanged",
            "type": "event"
        },
        {
            "anonymous": false,
            "inputs": [
                {
                    "indexed": true,
                    "internalType": "address",
                    "name": "previousOwner",
                    "type": "address"
                },
                {
                    "indexed": true,
                    "internalType": "address",
                    "name": "newOwner",
                    "type": "address"
                }
            ],
            "name": "OwnershipTransferred",
            "type": "event"
        },
        {
            "stateMutability": "payable",
            "type": "fallback"
        },
        {
            "inputs": [],
            "name": "getImplementation",
            "outputs": [
                {
                    "internalType": "address",
                    "name": "_implementation",
                    "type": "address"
                }
            ],
            "stateMutability": "view",
            "type": "function"
        },
        {
            "inputs": [],
            "name": "getOwner",
            "outputs": [
                {
                    "internalType": "address",
                    "name": "_owner",
                    "type": "address"
                }
            ],
            "stateMutability": "view",
            "type": "function"
        },
        {
            "inputs": [
                {
                    "internalType": "address",
                    "name": "_implementation",
                    "type": "address"
                }
            ],
            "name": "setImplementation",
            "outputs": [],
            "stateMutability": "nonpayable",
            "type": "function"
        },
        {
            "inputs": [
                {
                    "internalType": "address",
                    "name": "_owner",
                    "type": "address"
                }
            ],
            "name": "setOwner",
            "outputs": [],
            "stateMutability": "nonpayable",
            "type": "function"
        },
        {
            "stateMutability": "payable",
            "type": "receive"
        },
        {
            "inputs": [
                {
                    "internalType": "address",
                    "name": "_permit2",
                    "type": "address"
                }
            ],
            "stateMutability": "nonpayable",
            "type": "constructor"
        },
        {
            "anonymous": false,
            "inputs": [
                {
                    "indexed": false,
                    "internalType": "address",
                    "name": "_newActivePoolAddress",
                    "type": "address"
                }
            ],
            "name": "ActivePoolAddressChanged",
            "type": "event"
        },
        {
            "anonymous": false,
            "inputs": [
                {
                    "indexed": false,
                    "internalType": "address",
                    "name": "_newBorrowerOperationsAddress",
                    "type": "address"
                }
            ],
            "name": "BorrowerOperationsAddressChanged",
            "type": "event"
        },
        {
            "anonymous": false,
            "inputs": [
                {
                    "indexed": false,
                    "internalType": "address",
                    "name": "_newCommunityIssuanceAddress",
                    "type": "address"
                }
            ],
            "name": "CommunityIssuanceAddressChanged",
            "type": "event"
        },
        {
            "anonymous": false,
            "inputs": [
                {
                    "indexed": false,
                    "internalType": "address",
                    "name": "_newDefaultPoolAddress",
                    "type": "address"
                }
            ],
            "name": "DefaultPoolAddressChanged",
            "type": "event"
        },
        {
            "anonymous": false,
            "inputs": [
                {
                    "indexed": true,
                    "internalType": "address",
                    "name": "_depositor",
                    "type": "address"
                },
                {
                    "indexed": false,
                    "internalType": "uint256",
                    "name": "_P",
                    "type": "uint256"
                },
                {
                    "indexed": false,
                    "internalType": "uint256",
                    "name": "_S",
                    "type": "uint256"
                },
                {
                    "indexed": false,
                    "internalType": "uint256",
                    "name": "_G",
                    "type": "uint256"
                }
            ],
            "name": "DepositSnapshotUpdated",
            "type": "event"
        },
        {
            "anonymous": false,
            "inputs": [
                {
                    "indexed": true,
                    "internalType": "address",
                    "name": "_depositor",
                    "type": "address"
                },
                {
                    "indexed": false,
                    "internalType": "uint256",
                    "name": "_ETH",
                    "type": "uint256"
                },
                {
                    "indexed": false,
                    "internalType": "uint256",
                    "name": "_ZUSDLoss",
                    "type": "uint256"
                }
            ],
            "name": "ETHGainWithdrawn",
            "type": "event"
        },
        {
            "anonymous": false,
            "inputs": [
                {
                    "indexed": false,
                    "internalType": "uint128",
                    "name": "_currentEpoch",
                    "type": "uint128"
                }
            ],
            "name": "EpochUpdated",
            "type": "event"
        },
        {
            "anonymous": false,
            "inputs": [
                {
                    "indexed": false,
                    "internalType": "address",
                    "name": "_to",
                    "type": "address"
                },
                {
                    "indexed": false,
                    "internalType": "uint256",
                    "name": "_amount",
                    "type": "uint256"
                }
            ],
            "name": "EtherSent",
            "type": "event"
        },
        {
            "anonymous": false,
            "inputs": [
                {
                    "indexed": true,
                    "internalType": "address",
                    "name": "_frontEnd",
                    "type": "address"
                },
                {
                    "indexed": false,
                    "internalType": "uint256",
                    "name": "_kickbackRate",
                    "type": "uint256"
                }
            ],
            "name": "FrontEndRegistered",
            "type": "event"
        },
        {
            "anonymous": false,
            "inputs": [
                {
                    "indexed": true,
                    "internalType": "address",
                    "name": "_frontEnd",
                    "type": "address"
                },
                {
                    "indexed": false,
                    "internalType": "uint256",
                    "name": "_P",
                    "type": "uint256"
                },
                {
                    "indexed": false,
                    "internalType": "uint256",
                    "name": "_G",
                    "type": "uint256"
                }
            ],
            "name": "FrontEndSnapshotUpdated",
            "type": "event"
        },
        {
            "anonymous": false,
            "inputs": [
                {
                    "indexed": true,
                    "internalType": "address",
                    "name": "_frontEnd",
                    "type": "address"
                },
                {
                    "indexed": false,
                    "internalType": "uint256",
                    "name": "_newFrontEndStake",
                    "type": "uint256"
                },
                {
                    "indexed": false,
                    "internalType": "address",
                    "name": "_depositor",
                    "type": "address"
                }
            ],
            "name": "FrontEndStakeChanged",
            "type": "event"
        },
        {
            "anonymous": false,
            "inputs": [
                {
                    "indexed": true,
                    "internalType": "address",
                    "name": "_depositor",
                    "type": "address"
                },
                {
                    "indexed": true,
                    "internalType": "address",
                    "name": "_frontEnd",
                    "type": "address"
                }
            ],
            "name": "FrontEndTagSet",
            "type": "event"
        },
        {
            "anonymous": false,
            "inputs": [
                {
                    "indexed": false,
                    "internalType": "uint256",
                    "name": "_G",
                    "type": "uint256"
                },
                {
                    "indexed": false,
                    "internalType": "uint128",
                    "name": "_epoch",
                    "type": "uint128"
                },
                {
                    "indexed": false,
                    "internalType": "uint128",
                    "name": "_scale",
                    "type": "uint128"
                }
            ],
            "name": "G_Updated",
            "type": "event"
        },
        {
            "anonymous": false,
            "inputs": [
                {
                    "indexed": true,
                    "internalType": "address",
                    "name": "previousOwner",
                    "type": "address"
                },
                {
                    "indexed": true,
                    "internalType": "address",
                    "name": "newOwner",
                    "type": "address"
                }
            ],
            "name": "OwnershipTransferred",
            "type": "event"
        },
        {
            "anonymous": false,
            "inputs": [
                {
                    "indexed": false,
                    "internalType": "uint256",
                    "name": "_P",
                    "type": "uint256"
                }
            ],
            "name": "P_Updated",
            "type": "event"
        },
        {
            "anonymous": false,
            "inputs": [
                {
                    "indexed": false,
                    "internalType": "address",
                    "name": "_newPriceFeedAddress",
                    "type": "address"
                }
            ],
            "name": "PriceFeedAddressChanged",
            "type": "event"
        },
        {
            "anonymous": false,
            "inputs": [
                {
                    "indexed": true,
                    "internalType": "address",
                    "name": "_depositor",
                    "type": "address"
                },
                {
                    "indexed": false,
                    "internalType": "uint256",
                    "name": "_SOV",
                    "type": "uint256"
                }
            ],
            "name": "SOVPaidToDepositor",
            "type": "event"
        },
        {
            "anonymous": false,
            "inputs": [
                {
                    "indexed": true,
                    "internalType": "address",
                    "name": "_frontEnd",
                    "type": "address"
                },
                {
                    "indexed": false,
                    "internalType": "uint256",
                    "name": "_SOV",
                    "type": "uint256"
                }
            ],
            "name": "SOVPaidToFrontEnd",
            "type": "event"
        },
        {
            "anonymous": false,
            "inputs": [
                {
                    "indexed": false,
                    "internalType": "uint256",
                    "name": "_S",
                    "type": "uint256"
                },
                {
                    "indexed": false,
                    "internalType": "uint128",
                    "name": "_epoch",
                    "type": "uint128"
                },
                {
                    "indexed": false,
                    "internalType": "uint128",
                    "name": "_scale",
                    "type": "uint128"
                }
            ],
            "name": "S_Updated",
            "type": "event"
        },
        {
            "anonymous": false,
            "inputs": [
                {
                    "indexed": false,
                    "internalType": "uint128",
                    "name": "_currentScale",
                    "type": "uint128"
                }
            ],
            "name": "ScaleUpdated",
            "type": "event"
        },
        {
            "anonymous": false,
            "inputs": [
                {
                    "indexed": false,
                    "internalType": "address",
                    "name": "_newSortedTrovesAddress",
                    "type": "address"
                }
            ],
            "name": "SortedTrovesAddressChanged",
            "type": "event"
        },
        {
            "anonymous": false,
            "inputs": [
                {
                    "indexed": false,
                    "internalType": "uint256",
                    "name": "_newBalance",
                    "type": "uint256"
                }
            ],
            "name": "StabilityPoolETHBalanceUpdated",
            "type": "event"
        },
        {
            "anonymous": false,
            "inputs": [
                {
                    "indexed": false,
                    "internalType": "uint256",
                    "name": "_newBalance",
                    "type": "uint256"
                }
            ],
            "name": "StabilityPoolZUSDBalanceUpdated",
            "type": "event"
        },
        {
            "anonymous": false,
            "inputs": [
                {
                    "indexed": false,
                    "internalType": "address",
                    "name": "_newTroveManagerAddress",
                    "type": "address"
                }
            ],
            "name": "TroveManagerAddressChanged",
            "type": "event"
        },
        {
            "anonymous": false,
            "inputs": [
                {
                    "indexed": true,
                    "internalType": "address",
                    "name": "_depositor",
                    "type": "address"
                },
                {
                    "indexed": false,
                    "internalType": "uint256",
                    "name": "_newDeposit",
                    "type": "uint256"
                }
            ],
            "name": "UserDepositChanged",
            "type": "event"
        },
        {
            "anonymous": false,
            "inputs": [
                {
                    "indexed": false,
                    "internalType": "address",
                    "name": "_depositor",
                    "type": "address"
                },
                {
                    "indexed": false,
                    "internalType": "uint256",
                    "name": "_zusdAmountRequested",
                    "type": "uint256"
                },
                {
                    "indexed": false,
                    "internalType": "uint256",
                    "name": "_dllrAmountReceived",
                    "type": "uint256"
                }
            ],
            "name": "WithdrawFromSpAndConvertToDLLR",
            "type": "event"
        },
        {
            "anonymous": false,
            "inputs": [
                {
                    "indexed": false,
                    "internalType": "address",
                    "name": "_newZUSDTokenAddress",
                    "type": "address"
                }
            ],
            "name": "ZUSDTokenAddressChanged",
            "type": "event"
        },
        {
            "inputs": [],
            "name": "DECIMAL_PRECISION",
            "outputs": [
                {
                    "internalType": "uint256",
                    "name": "",
                    "type": "uint256"
                }
            ],
            "stateMutability": "view",
            "type": "function"
        },
        {
            "inputs": [],
            "name": "MIN_NET_DEBT",
            "outputs": [
                {
                    "internalType": "uint256",
                    "name": "",
                    "type": "uint256"
                }
            ],
            "stateMutability": "view",
            "type": "function"
        },
        {
            "inputs": [],
            "name": "NAME",
            "outputs": [
                {
                    "internalType": "string",
                    "name": "",
                    "type": "string"
                }
            ],
            "stateMutability": "view",
            "type": "function"
        },
        {
            "inputs": [],
            "name": "P",
            "outputs": [
                {
                    "internalType": "uint256",
                    "name": "",
                    "type": "uint256"
                }
            ],
            "stateMutability": "view",
            "type": "function"
        },
        {
            "inputs": [],
            "name": "SCALE_FACTOR",
            "outputs": [
                {
                    "internalType": "uint256",
                    "name": "",
                    "type": "uint256"
                }
            ],
            "stateMutability": "view",
            "type": "function"
        },
        {
            "inputs": [],
            "name": "ZUSD_GAS_COMPENSATION",
            "outputs": [
                {
                    "internalType": "uint256",
                    "name": "",
                    "type": "uint256"
                }
            ],
            "stateMutability": "view",
            "type": "function"
        },
        {
            "inputs": [],
            "name": "_100pct",
            "outputs": [
                {
                    "internalType": "uint256",
                    "name": "",
                    "type": "uint256"
                }
            ],
            "stateMutability": "view",
            "type": "function"
        },
        {
            "inputs": [],
            "name": "activePool",
            "outputs": [
                {
                    "internalType": "contract IActivePool",
                    "name": "",
                    "type": "address"
                }
            ],
            "stateMutability": "view",
            "type": "function"
        },
        {
            "inputs": [],
            "name": "borrowerOperations",
            "outputs": [
                {
                    "internalType": "contract IBorrowerOperations",
                    "name": "",
                    "type": "address"
                }
            ],
            "stateMutability": "view",
            "type": "function"
        },
        {
            "inputs": [],
            "name": "communityIssuance",
            "outputs": [
                {
                    "internalType": "contract ICommunityIssuance",
                    "name": "",
                    "type": "address"
                }
            ],
            "stateMutability": "view",
            "type": "function"
        },
        {
            "inputs": [],
            "name": "currentEpoch",
            "outputs": [
                {
                    "internalType": "uint128",
                    "name": "",
                    "type": "uint128"
                }
            ],
            "stateMutability": "view",
            "type": "function"
        },
        {
            "inputs": [],
            "name": "currentScale",
            "outputs": [
                {
                    "internalType": "uint128",
                    "name": "",
                    "type": "uint128"
                }
            ],
            "stateMutability": "view",
            "type": "function"
        },
        {
            "inputs": [],
            "name": "defaultPool",
            "outputs": [
                {
                    "internalType": "contract IDefaultPool",
                    "name": "",
                    "type": "address"
                }
            ],
            "stateMutability": "view",
            "type": "function"
        },
        {
            "inputs": [
                {
                    "internalType": "address",
                    "name": "",
                    "type": "address"
                }
            ],
            "name": "depositSnapshots",
            "outputs": [
                {
                    "internalType": "uint256",
                    "name": "S",
                    "type": "uint256"
                },
                {
                    "internalType": "uint256",
                    "name": "P",
                    "type": "uint256"
                },
                {
                    "internalType": "uint256",
                    "name": "G",
                    "type": "uint256"
                },
                {
                    "internalType": "uint128",
                    "name": "scale",
                    "type": "uint128"
                },
                {
                    "internalType": "uint128",
                    "name": "epoch",
                    "type": "uint128"
                }
            ],
            "stateMutability": "view",
            "type": "function"
        },
        {
            "inputs": [
                {
                    "internalType": "address",
                    "name": "",
                    "type": "address"
                }
            ],
            "name": "deposits",
            "outputs": [
                {
                    "internalType": "uint256",
                    "name": "initialValue",
                    "type": "uint256"
                },
                {
                    "internalType": "address",
                    "name": "frontEndTag",
                    "type": "address"
                }
            ],
            "stateMutability": "view",
            "type": "function"
        },
        {
            "inputs": [
                {
                    "internalType": "uint128",
                    "name": "",
                    "type": "uint128"
                },
                {
                    "internalType": "uint128",
                    "name": "",
                    "type": "uint128"
                }
            ],
            "name": "epochToScaleToG",
            "outputs": [
                {
                    "internalType": "uint256",
                    "name": "",
                    "type": "uint256"
                }
            ],
            "stateMutability": "view",
            "type": "function"
        },
        {
            "inputs": [
                {
                    "internalType": "uint128",
                    "name": "",
                    "type": "uint128"
                },
                {
                    "internalType": "uint128",
                    "name": "",
                    "type": "uint128"
                }
            ],
            "name": "epochToScaleToSum",
            "outputs": [
                {
                    "internalType": "uint256",
                    "name": "",
                    "type": "uint256"
                }
            ],
            "stateMutability": "view",
            "type": "function"
        },
        {
            "inputs": [
                {
                    "internalType": "address",
                    "name": "",
                    "type": "address"
                }
            ],
            "name": "frontEndSnapshots",
            "outputs": [
                {
                    "internalType": "uint256",
                    "name": "S",
                    "type": "uint256"
                },
                {
                    "internalType": "uint256",
                    "name": "P",
                    "type": "uint256"
                },
                {
                    "internalType": "uint256",
                    "name": "G",
                    "type": "uint256"
                },
                {
                    "internalType": "uint128",
                    "name": "scale",
                    "type": "uint128"
                },
                {
                    "internalType": "uint128",
                    "name": "epoch",
                    "type": "uint128"
                }
            ],
            "stateMutability": "view",
            "type": "function"
        },
        {
            "inputs": [
                {
                    "internalType": "address",
                    "name": "",
                    "type": "address"
                }
            ],
            "name": "frontEndStakes",
            "outputs": [
                {
                    "internalType": "uint256",
                    "name": "",
                    "type": "uint256"
                }
            ],
            "stateMutability": "view",
            "type": "function"
        },
        {
            "inputs": [
                {
                    "internalType": "address",
                    "name": "",
                    "type": "address"
                }
            ],
            "name": "frontEnds",
            "outputs": [
                {
                    "internalType": "uint256",
                    "name": "kickbackRate",
                    "type": "uint256"
                },
                {
                    "internalType": "bool",
                    "name": "registered",
                    "type": "bool"
                }
            ],
            "stateMutability": "view",
            "type": "function"
        },
        {
            "inputs": [
                {
                    "internalType": "address",
                    "name": "_frontEnd",
                    "type": "address"
                }
            ],
            "name": "getCompoundedFrontEndStake",
            "outputs": [
                {
                    "internalType": "uint256",
                    "name": "",
                    "type": "uint256"
                }
            ],
            "stateMutability": "view",
            "type": "function"
        },
        {
            "inputs": [
                {
                    "internalType": "address",
                    "name": "_depositor",
                    "type": "address"
                }
            ],
            "name": "getCompoundedZUSDDeposit",
            "outputs": [
                {
                    "internalType": "uint256",
                    "name": "",
                    "type": "uint256"
                }
            ],
            "stateMutability": "view",
            "type": "function"
        },
        {
            "inputs": [
                {
                    "internalType": "address",
                    "name": "_depositor",
                    "type": "address"
                }
            ],
            "name": "getDepositorETHGain",
            "outputs": [
                {
                    "internalType": "uint256",
                    "name": "",
                    "type": "uint256"
                }
            ],
            "stateMutability": "view",
            "type": "function"
        },
        {
            "inputs": [
                {
                    "internalType": "address",
                    "name": "_depositor",
                    "type": "address"
                }
            ],
            "name": "getDepositorSOVGain",
            "outputs": [
                {
                    "internalType": "uint256",
                    "name": "",
                    "type": "uint256"
                }
            ],
            "stateMutability": "view",
            "type": "function"
        },
        {
            "inputs": [],
            "name": "getETH",
            "outputs": [
                {
                    "internalType": "uint256",
                    "name": "",
                    "type": "uint256"
                }
            ],
            "stateMutability": "view",
            "type": "function"
        },
        {
            "inputs": [],
            "name": "getEntireSystemColl",
            "outputs": [
                {
                    "internalType": "uint256",
                    "name": "entireSystemColl",
                    "type": "uint256"
                }
            ],
            "stateMutability": "view",
            "type": "function"
        },
        {
            "inputs": [],
            "name": "getEntireSystemDebt",
            "outputs": [
                {
                    "internalType": "uint256",
                    "name": "entireSystemDebt",
                    "type": "uint256"
                }
            ],
            "stateMutability": "view",
            "type": "function"
        },
        {
            "inputs": [
                {
                    "internalType": "address",
                    "name": "_frontEnd",
                    "type": "address"
                }
            ],
            "name": "getFrontEndSOVGain",
            "outputs": [
                {
                    "internalType": "uint256",
                    "name": "",
                    "type": "uint256"
                }
            ],
            "stateMutability": "view",
            "type": "function"
        },
        {
            "inputs": [],
            "name": "getOwner",
            "outputs": [
                {
                    "internalType": "address",
                    "name": "_owner",
                    "type": "address"
                }
            ],
            "stateMutability": "view",
            "type": "function"
        },
        {
            "inputs": [],
            "name": "getTotalZUSDDeposits",
            "outputs": [
                {
                    "internalType": "uint256",
                    "name": "",
                    "type": "uint256"
                }
            ],
            "stateMutability": "view",
            "type": "function"
        },
        {
            "inputs": [],
            "name": "lastETHError_Offset",
            "outputs": [
                {
                    "internalType": "uint256",
                    "name": "",
                    "type": "uint256"
                }
            ],
            "stateMutability": "view",
            "type": "function"
        },
        {
            "inputs": [],
            "name": "lastSOVError",
            "outputs": [
                {
                    "internalType": "uint256",
                    "name": "",
                    "type": "uint256"
                }
            ],
            "stateMutability": "view",
            "type": "function"
        },
        {
            "inputs": [],
            "name": "lastZUSDLossError_Offset",
            "outputs": [
                {
                    "internalType": "uint256",
                    "name": "",
                    "type": "uint256"
                }
            ],
            "stateMutability": "view",
            "type": "function"
        },
        {
            "inputs": [],
            "name": "liquityBaseParams",
            "outputs": [
                {
                    "internalType": "contract ILiquityBaseParams",
                    "name": "",
                    "type": "address"
                }
            ],
            "stateMutability": "view",
            "type": "function"
        },
        {
            "inputs": [
                {
                    "internalType": "uint256",
                    "name": "_debtToOffset",
                    "type": "uint256"
                },
                {
                    "internalType": "uint256",
                    "name": "_collToAdd",
                    "type": "uint256"
                }
            ],
            "name": "offset",
            "outputs": [],
            "stateMutability": "nonpayable",
            "type": "function"
        },
        {
            "inputs": [],
            "name": "permit2",
            "outputs": [
                {
                    "internalType": "contract IPermit2",
                    "name": "",
                    "type": "address"
                }
            ],
            "stateMutability": "view",
            "type": "function"
        },
        {
            "inputs": [],
            "name": "priceFeed",
            "outputs": [
                {
                    "internalType": "contract IPriceFeed",
                    "name": "",
                    "type": "address"
                }
            ],
            "stateMutability": "view",
            "type": "function"
        },
        {
            "inputs": [
                {
                    "internalType": "uint256",
                    "name": "_amount",
                    "type": "uint256"
                },
                {
                    "internalType": "address",
                    "name": "_frontEndTag",
                    "type": "address"
                }
            ],
            "name": "provideToSP",
            "outputs": [],
            "stateMutability": "nonpayable",
            "type": "function"
        },
        {
            "inputs": [
                {
                    "internalType": "uint256",
                    "name": "_dllrAmount",
                    "type": "uint256"
                },
                {
                    "components": [
                        {
                            "internalType": "uint256",
                            "name": "deadline",
                            "type": "uint256"
                        },
                        {
                            "internalType": "uint8",
                            "name": "v",
                            "type": "uint8"
                        },
                        {
                            "internalType": "bytes32",
                            "name": "r",
                            "type": "bytes32"
                        },
                        {
                            "internalType": "bytes32",
                            "name": "s",
                            "type": "bytes32"
                        }
                    ],
                    "internalType": "struct IMassetManager.PermitParams",
                    "name": "_permitParams",
                    "type": "tuple"
                }
            ],
            "name": "provideToSpFromDLLR",
            "outputs": [],
            "stateMutability": "nonpayable",
            "type": "function"
        },
        {
            "inputs": [
                {
                    "internalType": "uint256",
                    "name": "_dllrAmount",
                    "type": "uint256"
                },
                {
                    "components": [
                        {
                            "components": [
                                {
                                    "internalType": "address",
                                    "name": "token",
                                    "type": "address"
                                },
                                {
                                    "internalType": "uint256",
                                    "name": "amount",
                                    "type": "uint256"
                                }
                            ],
                            "internalType": "struct ISignatureTransfer.TokenPermissions",
                            "name": "permitted",
                            "type": "tuple"
                        },
                        {
                            "internalType": "uint256",
                            "name": "nonce",
                            "type": "uint256"
                        },
                        {
                            "internalType": "uint256",
                            "name": "deadline",
                            "type": "uint256"
                        }
                    ],
                    "internalType": "struct ISignatureTransfer.PermitTransferFrom",
                    "name": "_permit",
                    "type": "tuple"
                },
                {
                    "internalType": "bytes",
                    "name": "_signature",
                    "type": "bytes"
                }
            ],
            "name": "provideToSpFromDllrWithPermit2",
            "outputs": [],
            "stateMutability": "nonpayable",
            "type": "function"
        },
        {
            "inputs": [
                {
                    "internalType": "uint256",
                    "name": "_kickbackRate",
                    "type": "uint256"
                }
            ],
            "name": "registerFrontEnd",
            "outputs": [],
            "stateMutability": "nonpayable",
            "type": "function"
        },
        {
            "inputs": [
                {
                    "internalType": "address",
                    "name": "_liquityBaseParamsAddress",
                    "type": "address"
                },
                {
                    "internalType": "address",
                    "name": "_borrowerOperationsAddress",
                    "type": "address"
                },
                {
                    "internalType": "address",
                    "name": "_troveManagerAddress",
                    "type": "address"
                },
                {
                    "internalType": "address",
                    "name": "_activePoolAddress",
                    "type": "address"
                },
                {
                    "internalType": "address",
                    "name": "_zusdTokenAddress",
                    "type": "address"
                },
                {
                    "internalType": "address",
                    "name": "_sortedTrovesAddress",
                    "type": "address"
                },
                {
                    "internalType": "address",
                    "name": "_priceFeedAddress",
                    "type": "address"
                },
                {
                    "internalType": "address",
                    "name": "_communityIssuanceAddress",
                    "type": "address"
                }
            ],
            "name": "setAddresses",
            "outputs": [],
            "stateMutability": "nonpayable",
            "type": "function"
        },
        {
            "inputs": [
                {
                    "internalType": "address",
                    "name": "_communityIssuanceAddress",
                    "type": "address"
                }
            ],
            "name": "setCommunityIssuanceAddress",
            "outputs": [],
            "stateMutability": "nonpayable",
            "type": "function"
        },
        {
            "inputs": [
                {
                    "internalType": "address",
                    "name": "_owner",
                    "type": "address"
                }
            ],
            "name": "setOwner",
            "outputs": [],
            "stateMutability": "nonpayable",
            "type": "function"
        },
        {
            "inputs": [],
            "name": "sortedTroves",
            "outputs": [
                {
                    "internalType": "contract ISortedTroves",
                    "name": "",
                    "type": "address"
                }
            ],
            "stateMutability": "view",
            "type": "function"
        },
        {
            "inputs": [],
            "name": "troveManager",
            "outputs": [
                {
                    "internalType": "contract ITroveManager",
                    "name": "",
                    "type": "address"
                }
            ],
            "stateMutability": "view",
            "type": "function"
        },
        {
            "inputs": [
                {
                    "internalType": "address",
                    "name": "_upperHint",
                    "type": "address"
                },
                {
                    "internalType": "address",
                    "name": "_lowerHint",
                    "type": "address"
                }
            ],
            "name": "withdrawETHGainToTrove",
            "outputs": [],
            "stateMutability": "nonpayable",
            "type": "function"
        },
        {
            "inputs": [
                {
                    "internalType": "uint256",
                    "name": "_amount",
                    "type": "uint256"
                }
            ],
            "name": "withdrawFromSP",
            "outputs": [],
            "stateMutability": "nonpayable",
            "type": "function"
        },
        {
            "inputs": [
                {
                    "internalType": "uint256",
                    "name": "_zusdAmountRequested",
                    "type": "uint256"
                }
            ],
            "name": "withdrawFromSpAndConvertToDLLR",
            "outputs": [],
            "stateMutability": "nonpayable",
            "type": "function"
        },
        {
            "inputs": [],
            "name": "zusdToken",
            "outputs": [
                {
                    "internalType": "contract IZUSDToken",
                    "name": "",
                    "type": "address"
                }
            ],
            "stateMutability": "view",
            "type": "function"
        },
        {
            "stateMutability": "payable",
            "type": "receive"
        }
    ],
    "transactionHash": "0x1abdbd2388abebfb2b987c678ee06a38046e552728b35dbe0dfb5debbbe6c2a5",
    "numDeployments": 4,
    "bytecode": "0x60a06040523480156200001157600080fd5b5060405162004b8c38038062004b8c833981016040819052620000349162000123565b62000048336001600160e01b036200005e16565b60601b6001600160601b031916608052620001b2565b6001600160a01b038116620000905760405162461bcd60e51b8152600401620000879062000170565b60405180910390fd5b6001600160a01b038116620000ad6001600160e01b036200010216565b6001600160a01b03167f8be0079c531659141344cd1fd0a4f28419497f9722a3daafe3b4186f6b6457e060405160405180910390a36000604051620000f29062000153565b6040519081900390209190915550565b600080604051620001139062000153565b6040519081900390205492915050565b60006020828403121562000135578081fd5b81516001600160a01b03811681146200014c578182fd5b9392505050565b7035b2bc9737bbb730b136329737bbb732b960791b815260110190565b60208082526022908201527f4f776e61626c653a3a7365744f776e65723a20696e76616c6964206164647265604082015261737360f01b606082015260800190565b60805160601c6149b7620001d560003980610ad0528061189a52506149b76000f3fe6080604052600436106102ad5760003560e01c806382e0a57411610165578063b31ee965116100cc578063de13da3c11610085578063de13da3c14610788578063df9cd84f146107a8578063e49d3667146107c8578063ec9f7d46146107e8578063fc7e286d146107fd578063fce6b7341461082b578063fda0101a1461084b576102f8565b8063b31ee965146106f4578063bdaf37ea14610709578063c3a34a0e1461071e578063ce4b5bbe1461073e578063d733cfd014610753578063d7fb044314610773576102f8565b80639f0706701161011e5780639f07067014610665578063a20baee614610531578063a3f4df7e1461067a578063a4e59ac81461069c578063a7bfff97146106b1578063ae918754146106df576102f8565b806382e0a574146105d157806386da0824146105f1578063887105d314610611578063893d20e8146106265780638b8fbd921461063b57806395fb16bb14610650576102f8565b80633d83908a1161021457806372fe25aa116101cd57806372fe25aa14610531578063741bef1a14610546578063759b30341461055b578063766718081461057057806377553ad414610592578063795d26c3146105a75780637f7dde4a146105bc576102f8565b80633d83908a1461048757806340ed1afd1461049c578063556be101146104bc5780635d2de642146104dc5780635f788d65146104fc57806370f1b5721461051c576102f8565b80632199b66f116102665780632199b66f146103d257806328a0a04d146103f25780632e54bf9514610412578063335525ad14610432578063389e92a5146104525780633cc7422514610472576102f8565b80630fbfe38b146102fd57806312261ee71461031f57806313af40351461034a57806314f6c3be1461036a57806316b9d3c51461038c5780631bf43555146103bd576102f8565b366102f8576102ba61086b565b6009546102cd903463ffffffff6108a016565b6009819055604051600080516020614902833981519152916102ee91614847565b60405180910390a1005b600080fd5b34801561030957600080fd5b5061031d610318366004613d86565b6108ce565b005b34801561032b57600080fd5b50610334610ace565b6040516103419190613f43565b60405180910390f35b34801561035657600080fd5b5061031d610365366004613c1a565b610af2565b34801561037657600080fd5b5061037f610b36565b6040516103419190614847565b34801561039857600080fd5b506103ac6103a7366004613c1a565b610b3c565b604051610341959493929190614896565b3480156103c957600080fd5b5061037f610b77565b3480156103de57600080fd5b5061031d6103ed366004613c1a565b610b84565b3480156103fe57600080fd5b5061037f61040d366004613d52565b610c1b565b34801561041e57600080fd5b5061031d61042d366004613d86565b610c38565b34801561043e57600080fd5b5061031d61044d366004613ec9565b610c46565b34801561045e57600080fd5b5061037f61046d366004613c1a565b610ca9565b34801561047e57600080fd5b50610334610d51565b34801561049357600080fd5b50610334610d60565b3480156104a857600080fd5b5061037f6104b7366004613c1a565b610d6f565b3480156104c857600080fd5b5061031d6104d7366004613d86565b610e0c565b3480156104e857600080fd5b5061037f6104f7366004613c1a565b610e84565b34801561050857600080fd5b5061031d610517366004613db6565b610e96565b34801561052857600080fd5b5061037f610ea0565b34801561053d57600080fd5b5061037f610ea6565b34801561055257600080fd5b50610334610eb2565b34801561056757600080fd5b5061037f610ec1565b34801561057c57600080fd5b50610585610ece565b6040516103419190614833565b34801561059e57600080fd5b50610334610ee4565b3480156105b357600080fd5b5061037f610ef3565b3480156105c857600080fd5b50610334611012565b3480156105dd57600080fd5b5061037f6105ec366004613d52565b611021565b3480156105fd57600080fd5b506103ac61060c366004613c1a565b61103e565b34801561061d57600080fd5b5061037f611079565b34801561063257600080fd5b50610334611148565b34801561064757600080fd5b5061037f611167565b34801561065c57600080fd5b5061033461116d565b34801561067157600080fd5b5061033461117c565b34801561068657600080fd5b5061068f61118b565b6040516103419190614060565b3480156106a857600080fd5b506105856111b4565b3480156106bd57600080fd5b506106d16106cc366004613c1a565b6111c3565b604051610341929190614867565b3480156106eb57600080fd5b506103346111df565b34801561070057600080fd5b5061037f6111ee565b34801561071557600080fd5b5061037f6111f4565b34801561072a57600080fd5b5061031d610739366004613dda565b6111fa565b34801561074a57600080fd5b5061037f61129e565b34801561075f57600080fd5b5061031d61076e366004613c8a565b6112a6565b34801561077f57600080fd5b5061037f611538565b34801561079457600080fd5b5061037f6107a3366004613c1a565b61153e565b3480156107b457600080fd5b5061037f6107c3366004613c1a565b611642565b3480156107d457600080fd5b5061037f6107e3366004613c1a565b6116df565b3480156107f457600080fd5b506103346117dc565b34801561080957600080fd5b5061081d610818366004613c1a565b6117eb565b604051610341929190614850565b34801561083757600080fd5b5061031d610846366004613e10565b61180d565b34801561085757600080fd5b5061031d610866366004613c52565b6118cd565b6000546001600160a01b0316331461089e5760405162461bcd60e51b815260040161089590614258565b60405180910390fd5b565b6000828201838110156108c55760405162461bcd60e51b815260040161089590614168565b90505b92915050565b6000600460009054906101000a90046001600160a01b03166001600160a01b031663e9fc34616040518163ffffffff1660e01b815260040160206040518083038186803b15801561091e57600080fd5b505afa158015610932573d6000803e3d6000fd5b505050506040513d601f19601f820116820180604052508101906109569190613c36565b905060006109648330611b13565b60065460405163095ea7b360e01b81529192506001600160a01b03169063095ea7b3906109979085908590600401613fdf565b602060405180830381600087803b1580156109b157600080fd5b505af11580156109c5573d6000803e3d6000fd5b505050506040513d601f19601f820116820180604052508101906109e99190613d32565b610a055760405162461bcd60e51b8152600401610895906145ef565b60065460405163438b1b4b60e01b81526001600160a01b038481169263438b1b4b92610a3b929091169085903390600401614019565b602060405180830381600087803b158015610a5557600080fd5b505af1158015610a69573d6000803e3d6000fd5b505050506040513d601f19601f82011682018060405250810190610a8d9190613d9e565b507f2b0fbec1c4e7e30517f196a714775ffe72770d2348f5d586854bb3c0fdf41df8338483604051610ac193929190613ff8565b60405180910390a1505050565b7f000000000000000000000000000000000000000000000000000000000000000081565b610afa611148565b6001600160a01b0316336001600160a01b031614610b2a5760405162461bcd60e51b81526004016108959061451d565b610b3381611cde565b50565b60095490565b600f602052600090815260409020805460018201546002830154600390930154919290916001600160801b0380821691600160801b90041685565b6809c2007651b250000081565b610b8c611148565b6001600160a01b0316336001600160a01b031614610bbc5760405162461bcd60e51b81526004016108959061451d565b610bc581611d69565b600880546001600160a01b0319166001600160a01b0383161790556040517f3055265812fb8447b9ada4a5d804ec43bd528ec40e89c952bbc7b85dc5ac681190610c10908390613f43565b60405180910390a150565b601260209081526000928352604080842090915290825290205481565b610c428133611b13565b5050565b610c4e611dae565b600a54801580610c5c575082155b15610c675750610c42565b600854610c7c906001600160a01b0316611dd8565b600080610c8a848685611e65565b91509150610c988282611f5e565b610ca2848661225f565b5050505050565b6001600160a01b0381166000908152600b602052604081205480610cd1576000915050610d4c565b610cd9613b64565b506001600160a01b0383166000908152600c60209081526040808320815160a08101835281548152600182015493810193909352600281015491830191909152600301546001600160801b038082166060840152600160801b90910416608082015290610d468383612395565b93505050505b919050565b6001546001600160a01b031681565b6005546001600160a01b031681565b6001600160a01b0381166000908152600b602052604081205480610d97576000915050610d4c565b610d9f613b64565b506001600160a01b0383166000908152600c60209081526040808320815160a08101835281548152600182015493810193909352600281015491830191909152600301546001600160801b038082166060840152600160801b90910416608082015290610d468383612486565b610e1533612582565b610e1e336125be565b610e27816125f5565b336000818152600d6020526040908190208381556001908101805460ff19169091179055517f19bc932fb9e16a8b5a1e41be9f4c2de59d5ddd7567b8b81405f532ca00a9880e90610e79908490614847565b60405180910390a250565b600e6020526000908152604090205481565b610c42828261261d565b60145481565b670de0b6b3a764000081565b6002546001600160a01b031681565b6801158e460913d0000081565b601154600160801b90046001600160801b031681565b6004546001600160a01b031681565b60008054604080516272c7d360e71b8152905183926001600160a01b031691633963e980916004808301926020929190829003018186803b158015610f3757600080fd5b505afa158015610f4b573d6000803e3d6000fd5b505050506040513d601f19601f82011682018060405250810190610f6f9190613d9e565b90506000600160009054906101000a90046001600160a01b03166001600160a01b0316633963e9806040518163ffffffff1660e01b815260040160206040518083038186803b158015610fc157600080fd5b505afa158015610fd5573d6000803e3d6000fd5b505050506040513d601f19601f82011682018060405250810190610ff99190613d9e565b905061100b828263ffffffff6108a016565b9250505090565b6000546001600160a01b031681565b601360209081526000928352604080842090915290825290205481565b600c602052600090815260409020805460018201546002830154600390930154919290916001600160801b0380821691600160801b90041685565b6000805460408051630a7b61df60e11b8152905183926001600160a01b0316916314f6c3be916004808301926020929190829003018186803b1580156110be57600080fd5b505afa1580156110d2573d6000803e3d6000fd5b505050506040513d601f19601f820116820180604052508101906110f69190613d9e565b90506000600160009054906101000a90046001600160a01b03166001600160a01b03166314f6c3be6040518163ffffffff1660e01b815260040160206040518083038186803b158015610fc157600080fd5b60008060405161115790613f26565b6040519081900390205492915050565b60105481565b6008546001600160a01b031681565b6003546001600160a01b031681565b6040518060400160405280600d81526020016c14dd18589a5b1a5d1e541bdbdb609a1b81525081565b6011546001600160801b031681565b600d602052600090815260409020805460019091015460ff1682565b6007546001600160a01b031681565b60165481565b600a5490565b600480546040805163e9fc346160e01b8152905160009361128c936001600160a01b03169263e9fc34619281830192602092829003018186803b15801561124057600080fd5b505afa158015611254573d6000803e3d6000fd5b505050506040513d601f19601f820116820180604052508101906112789190613c36565b60065485906001600160a01b0316856127c0565b905061129981600061261d565b505050565b633b9aca0081565b6112ae611148565b6001600160a01b0316336001600160a01b0316146112de5760405162461bcd60e51b81526004016108959061451d565b6112e788611d69565b6112f087611d69565b6112f986611d69565b61130285611d69565b61130b84611d69565b61131483611d69565b61131d82611d69565b61132681611d69565b670de0b6b3a7640000601055600380546001600160a01b03199081166001600160a01b038b8116919091179092556004805482168a8416179055600580548216898416179055600080548216888416179055600680548216878416179055600780548216868416179055600280548216858416179055600880549091169183169190911790556040517f3ca631ffcd2a9b5d9ae18543fc82f58eb4ca33af9e6ab01b7a8e95331e6ed985906113dc908990613f43565b60405180910390a17f143219c9e69b09e07e095fcc889b43d8f46ca892bba65f08dc3a0050869a5678866040516114139190613f43565b60405180910390a17f78f058b189175430c48dc02699e3a0031ea4ff781536dc2fab847de4babdd8828560405161144a9190613f43565b60405180910390a17fcdf33850c44a1a874b5fefb51dae615ac6afebd581ef90d571f81b06541d8e9d846040516114819190613f43565b60405180910390a17f65f4cf077bc01e4742eb5ad98326f6e95b63548ea24b17f8d5e823111fe78800836040516114b89190613f43565b60405180910390a17f8c537274438aa850a330284665d81a85dd38267d09e4050d416bfc94142db264826040516114ef9190613f43565b60405180910390a17f3055265812fb8447b9ada4a5d804ec43bd528ec40e89c952bbc7b85dc5ac6811816040516115269190613f43565b60405180910390a15050505050505050565b60155481565b6001600160a01b0381166000908152600e602052604081205480611566576000915050610d4c565b6001600160a01b0383166000908152600d602052604081205490611598670de0b6b3a76400008363ffffffff612a6516565b90506115a2613b64565b506001600160a01b0385166000908152600f60209081526040808320815160a08101835281548152600182015493810193909352600281015491830191909152600301546001600160801b038082166060840152600160801b90910416608082015290611637670de0b6b3a764000061162b61161e8886612aa7565b869063ffffffff612b3316565b9063ffffffff612b6d16565b979650505050505050565b6001600160a01b0381166000908152600e60205260408120548061166a576000915050610d4c565b611672613b64565b506001600160a01b0383166000908152600f60209081526040808320815160a08101835281548152600182015493810193909352600281015491830191909152600301546001600160801b038082166060840152600160801b90910416608082015290610d468383612486565b6001600160a01b0381166000908152600b602052604081205480611707576000915050610d4c565b6001600160a01b038084166000908152600b602052604081206001015490911690811561174c576001600160a01b0382166000908152600d6020526040902054611756565b670de0b6b3a76400005b9050611760613b64565b506001600160a01b0385166000908152600c60209081526040808320815160a08101835281548152600182015493810193909352600281015491830191909152600301546001600160801b038082166060840152600160801b90910416608082015290611637670de0b6b3a764000061162b61161e8886612aa7565b6006546001600160a01b031681565b600b60205260009081526040902080546001909101546001600160a01b031682565b600480546040805163e9fc346160e01b815290516000936118c0936001600160a01b03169263e9fc34619281830192602092829003018186803b15801561185357600080fd5b505afa158015611867573d6000803e3d6000fd5b505050506040513d601f19601f8201168201806040525081019061188b9190613c36565b6006546001600160a01b0316867f00000000000000000000000000000000000000000000000000000000000000008787612baf565b9050610ca281600061261d565b336000908152600b60205260409020546118e681612dfc565b6118ef33612e1c565b6118f833612ebb565b6008546001600160a01b031661190d81611dd8565b600061191833610ca9565b9050600061192533610d6f565b90506000611939858363ffffffff612a6516565b336000818152600b60205260409020600101549192506001600160a01b039091169061196790869083612ee8565b600061197282611642565b90508061197f838261305d565b826001600160a01b031660008051602061496283398151915282336040516119a8929190614850565b60405180910390a26119ba33866131a5565b336001600160a01b031660008051602061494283398151915287866040516119e392919061403c565b60405180910390a2336001600160a01b031660008051602061492283398151915286604051611a129190614847565b60405180910390a2600954611a2d908763ffffffff612a6516565b600981905560405160008051602061490283398151915291611a4e91614847565b60405180910390a17f6109e2559dfa766aaec7118351d48a523f0a4157f49c8d68749c8ac41318ad123387604051611a87929190613fdf565b60405180910390a1600460009054906101000a90046001600160a01b03166001600160a01b031663ea9638bf87338d8d6040518563ffffffff1660e01b8152600401611ad593929190613f57565b6000604051808303818588803b158015611aee57600080fd5b505af1158015611b02573d6000803e3d6000fd5b505050505050505050505050505050565b60006001600160a01b038216611b3b5760405162461bcd60e51b815260040161089590614434565b8215611b4957611b4961331a565b336000908152600b6020526040902054611b6281612dfc565b6008546001600160a01b0316611b7781611dd8565b6000611b8233610ca9565b90506000611b8f33610d6f565b90506000611b9d8883613551565b90506000611bb1868463ffffffff612a6516565b336000818152600b60205260409020600101549192506001600160a01b0390911690611bdf90879083612ee8565b6000611bea82611642565b90506000611bfe828663ffffffff612a6516565b9050611c0a838261305d565b826001600160a01b03166000805160206149628339815191528233604051611c33929190614850565b60405180910390a2611c458b86613567565b6000611c57878763ffffffff612a6516565b9050611c6333826131a5565b336001600160a01b031660008051602061492283398151915282604051611c8a9190614847565b60405180910390a2336001600160a01b03166000805160206149428339815191528987604051611cbb92919061403c565b60405180910390a2611ccd88336135e0565b50939b9a5050505050505050505050565b6001600160a01b038116611d045760405162461bcd60e51b81526004016108959061429f565b806001600160a01b0316611d16611148565b6001600160a01b03167f8be0079c531659141344cd1fd0a4f28419497f9722a3daafe3b4186f6b6457e060405160405180910390a36000604051611d5990613f26565b6040519081900390209190915550565b6001600160a01b038116611d8f5760405162461bcd60e51b8152600401610895906142e1565b803b80610c425760405162461bcd60e51b815260040161089590614646565b6005546001600160a01b0316331461089e5760405162461bcd60e51b815260040161089590614369565b600a54604051636cbdcf4760e01b81526000916001600160a01b03841691636cbdcf4791611e0891600401614847565b602060405180830381600087803b158015611e2257600080fd5b505af1158015611e36573d6000803e3d6000fd5b505050506040513d601f19601f82011682018060405250810190611e5a9190613d9e565b9050610c428161370f565b6000806000611e97601554611e8b670de0b6b3a764000089612b3390919063ffffffff16565b9063ffffffff6108a016565b905083851115611ea357fe5b83851415611ec0576000601655670de0b6b3a76400009150611f20565b601654600090611eee90611ee288670de0b6b3a764000063ffffffff612b3316565b9063ffffffff612a6516565b9050611f056001611e8b838863ffffffff612b6d16565b9250611f1b81611ee2858863ffffffff612b3316565b601655505b611f30818563ffffffff612b6d16565b9250611f52611f45848663ffffffff612b3316565b829063ffffffff612a6516565b60155550935093915050565b6010546000670de0b6b3a7640000831115611f7557fe5b6000611f8f670de0b6b3a76400008563ffffffff612a6516565b6011546001600160801b03600160801b820481166000818152601260209081526040808320949095168083529390529283205493945090929091611fd38988612b33565b90506000611fe7838363ffffffff6108a016565b6001600160801b038086166000908152601260209081526040808320938a168352929052819020829055519091507fe12e2cd2c9afa8069203ca07e7eff1edce4a075686d0736a8e7e0d593597b2079061204690839087908990614877565b60405180910390a18561211f5761206d6001600160801b038516600163ffffffff61382016565b601180546001600160801b03908116600160801b938216840217918290556040517fb50f0f59e7cb5b421dc77581c3a9919e3806e076e5fa78a874c3f120cb7d874d936120be930490911690614833565b60405180910390a1601180546001600160801b03191690556040517f1f9dfc70cd666adb18a39d60a797518f7b4febf4b6e24ef37d44f6e1e7219fbe9061210790600090614833565b60405180910390a1670de0b6b3a7640000965061220c565b633b9aca00612140670de0b6b3a764000061162b8b8a63ffffffff612b3316565b10156121ed57612176670de0b6b3a764000061162b633b9aca0061216a8c8b63ffffffff612b3316565b9063ffffffff612b3316565b96506121926001600160801b038616600163ffffffff61382016565b601180546001600160801b0319166001600160801b0392831617908190556040517f1f9dfc70cd666adb18a39d60a797518f7b4febf4b6e24ef37d44f6e1e7219fbe926121e0921690614833565b60405180910390a161220c565b612209670de0b6b3a764000061162b8a8963ffffffff612b3316565b96505b6000871161221657fe5b60108790556040517fc1a9618cb59ebca77cbdbc2949f126823c407ff13edb285fd0262519a9c18e8c9061224b908990614847565b60405180910390a150505050505050505050565b60005460405163121cbc4d60e11b81526001600160a01b03909116908190632439789a90612291908590600401614847565b600060405180830381600087803b1580156122ab57600080fd5b505af11580156122bf573d6000803e3d6000fd5b505050506122cc82613851565b600654604051632770a7eb60e21b81526001600160a01b0390911690639dc29fac906122fe9030908690600401613fdf565b600060405180830381600087803b15801561231857600080fd5b505af115801561232c573d6000803e3d6000fd5b50506040516364a197f360e01b81526001600160a01b03841692506364a197f3915061235e9030908790600401613fdf565b600060405180830381600087803b15801561237857600080fd5b505af115801561238c573d6000803e3d6000fd5b50505050505050565b6080810151606082015182516020808501516001600160801b038086166000908152601284526040808220928716825291909352822054919493929185906123e3908463ffffffff612a6516565b6001600160801b0380871660009081526012602052604081209293509161244691633b9aca0091908490612420908a16600163ffffffff61382016565b6001600160801b031681526020810191909152604001600020549063ffffffff612b6d16565b90506000612478670de0b6b3a764000061162b868161246b888863ffffffff6108a016565b8f9063ffffffff612b3316565b9a9950505050505050505050565b6020810151606082015160808301516011546000939291906001600160801b03600160801b909104811690821610156124c557600093505050506108c8565b60115460009081906124e6906001600160801b03168563ffffffff6138ab16565b90506001600160801b0381166125165761250f8561162b6010548b612b3390919063ffffffff16565b915061254e565b806001600160801b0316600114156125495761250f633b9aca0061162b8761162b6010548d612b3390919063ffffffff16565b600091505b61256288633b9aca0063ffffffff612b6d16565b821015612577576000955050505050506108c8565b509695505050505050565b6001600160a01b0381166000908152600d602052604090206001015460ff1615610b335760405162461bcd60e51b81526004016108959061454e565b6001600160a01b0381166000908152600b60205260409020548015610c425760405162461bcd60e51b8152600401610895906145a7565b670de0b6b3a7640000811115610b335760405162461bcd60e51b815260040161089590614484565b612626816138e5565b61262f33612582565b61263882613932565b336000908152600b60205260409020546008546001600160a01b031661265d81611dd8565b8161266c5761266c3384613952565b600061267733610ca9565b9050600061268433610d6f565b90506000612698858363ffffffff612a6516565b336000818152600b60205260409020600101549192506001600160a01b03909116906126c690869083612ee8565b60006126d182611642565b905060006126e5828b63ffffffff6108a016565b90506126f1838261305d565b826001600160a01b0316600080516020614962833981519152823360405161271a929190614850565b60405180910390a261272c338b6139ac565b600061273e868c63ffffffff6108a016565b905061274a33826131a5565b336001600160a01b0316600080516020614922833981519152826040516127719190614847565b60405180910390a2336001600160a01b031660008051602061494283398151915288876040516127a292919061403c565b60405180910390a26127b387613a60565b5050505050505050505050565b600080856001600160a01b03166321df0da76040518163ffffffff1660e01b815260040160206040518083038186803b1580156127fc57600080fd5b505afa158015612810573d6000803e3d6000fd5b505050506040513d601f19601f820116820180604052508101906128349190613c36565b90506000816001600160a01b03166370a08231306040518263ffffffff1660e01b81526004016128649190613f43565b60206040518083038186803b15801561287c57600080fd5b505afa158015612890573d6000803e3d6000fd5b505050506040513d601f19601f820116820180604052508101906128b49190613d9e565b9050306001600160a01b03831663605629d633838a89356128db60408c0160208d01613eea565b8b604001358c606001356040518863ffffffff1660e01b81526004016129079796959493929190613f9e565b600060405180830381600087803b15801561292157600080fd5b505af1158015612935573d6000803e3d6000fd5b50505050866129ba83856001600160a01b03166370a08231856040518263ffffffff1660e01b815260040161296a9190613f43565b60206040518083038186803b15801561298257600080fd5b505afa158015612996573d6000803e3d6000fd5b505050506040513d601f19601f82011682018060405250810190611ee29190613d9e565b146129d75760405162461bcd60e51b81526004016108959061411f565b60405163fb2c922360e01b81526001600160a01b0389169063fb2c922390612a079089908b903390600401614019565b602060405180830381600087803b158015612a2157600080fd5b505af1158015612a35573d6000803e3d6000fd5b505050506040513d601f19601f82011682018060405250810190612a599190613d9e565b98975050505050505050565b60006108c583836040518060400160405280601e81526020017f536166654d6174683a207375627472616374696f6e206f766572666c6f770000815250613a6a565b608081015160608201516040808401516020808601516001600160801b03808716600090815260138452858120918716815292529281205490949392908590612af6908463ffffffff612a6516565b6001600160801b0380871660009081526013602052604081209293509161244691633b9aca0091908490612420908a16600163ffffffff61382016565b600082612b42575060006108c8565b82820282848281612b4f57fe5b04146108c55760405162461bcd60e51b8152600401610895906143f3565b60006108c583836040518060400160405280601a81526020017f536166654d6174683a206469766973696f6e206279207a65726f000000000000815250613a96565b600080876001600160a01b03166321df0da76040518163ffffffff1660e01b815260040160206040518083038186803b158015612beb57600080fd5b505afa158015612bff573d6000803e3d6000fd5b505050506040513d601f19601f82011682018060405250810190612c239190613c36565b90506000816001600160a01b03166370a08231306040518263ffffffff1660e01b8152600401612c539190613f43565b60206040518083038186803b158015612c6b57600080fd5b505afa158015612c7f573d6000803e3d6000fd5b505050506040513d601f19601f82011682018060405250810190612ca39190613d9e565b87516020015190915030906001600160a01b0388166330f28b7a8a612cc88585613acd565b338b8b6040518663ffffffff1660e01b8152600401612ceb9594939291906147c2565b600060405180830381600087803b158015612d0557600080fd5b505af1158015612d19573d6000803e3d6000fd5b5050505080612d4e84866001600160a01b03166370a08231866040518263ffffffff1660e01b815260040161296a9190613f43565b14612d6b5760405162461bcd60e51b81526004016108959061411f565b60405163fb2c922360e01b81526001600160a01b038c169063fb2c922390612d9b908d9085903390600401614019565b602060405180830381600087803b158015612db557600080fd5b505af1158015612dc9573d6000803e3d6000fd5b505050506040513d601f19601f82011682018060405250810190612ded9190613d9e565b9b9a5050505050505050505050565b60008111610b335760405162461bcd60e51b81526004016108959061467b565b6005546040516321e3780160e01b81526001600160a01b03909116906321e3780190612e4c908490600401613f43565b60206040518083038186803b158015612e6457600080fd5b505afa158015612e78573d6000803e3d6000fd5b505050506040513d601f19601f82011682018060405250810190612e9c9190613d9e565b600114610b335760405162461bcd60e51b8152600401610895906140b3565b6000612ec682610ca9565b905060008111610c425760405162461bcd60e51b815260040161089590614318565b6001600160a01b03811615612fa8576000612f028261153e565b604051633e30771b60e21b81529091506001600160a01b0385169063f8c1dc6c90612f339085908590600401613fdf565b600060405180830381600087803b158015612f4d57600080fd5b505af1158015612f61573d6000803e3d6000fd5b50505050816001600160a01b03167f732e331072fe280a520929e5f2cc76c223389ff57d32a4e278cfded03e6f1caa82604051612f9e9190614847565b60405180910390a2505b6000612fb3836116df565b604051633e30771b60e21b81529091506001600160a01b0385169063f8c1dc6c90612fe49086908590600401613fdf565b600060405180830381600087803b158015612ffe57600080fd5b505af1158015613012573d6000803e3d6000fd5b50505050826001600160a01b03167fe9ac2dcd83e719358f1dc0c5c80491937f67d4ec61ef62c262bbe3b78578f92a8260405161304f9190614847565b60405180910390a250505050565b6001600160a01b0382166000908152600e60205260409020819055806130e8576001600160a01b0382166000818152600f60205260408082208281556001810183905560028101839055600301829055517fbb1322f85cc7cc8bac4e172a5bc5dcc0c1959007f9a030032abf9258205f0e45916130db91819061403c565b60405180910390a2610c42565b6011546010546001600160801b03600160801b80840482166000818152601360209081526040808320978616808452978252808320546001600160a01b038b16808552600f90935292819020600181018890556002810184905560030180546001600160801b0319168917909616948402949094179094559151909392907fbb1322f85cc7cc8bac4e172a5bc5dcc0c1959007f9a030032abf9258205f0e4590613195908590859061403c565b60405180910390a2505050505050565b6001600160a01b0382166000908152600b6020526040902081905580613243576001600160a01b0382166000818152600b60209081526040808320600190810180546001600160a01b0319169055600c909252808320838155918201839055600282018390556003909101829055517f2d6cc0bcdf72c9486f6451bde6b80f44066f4558f77f44dbfedbe7d8b295225a916130db918190819061404a565b6011546010546001600160801b03600160801b8084048216600081815260126020908152604080832097861680845297825280832054848452601383528184208985528352818420546001600160a01b038c16808652600c90945293829020600181018990558181556002810185905560030180546001600160801b0319168a1790971695850295909517909555935191949390917f2d6cc0bcdf72c9486f6451bde6b80f44066f4558f77f44dbfedbe7d8b295225a906133099086908690869061404a565b60405180910390a250505050505050565b60025460408051630fdb11cf60e01b815290516000926001600160a01b031691630fdb11cf91600480830192602092919082900301818787803b15801561336057600080fd5b505af1158015613374573d6000803e3d6000fd5b505050506040513d601f19601f820116820180604052508101906133989190613d9e565b90506000600760009054906101000a90046001600160a01b03166001600160a01b0316634d6228316040518163ffffffff1660e01b815260040160206040518083038186803b1580156133ea57600080fd5b505afa1580156133fe573d6000803e3d6000fd5b505050506040513d601f19601f820116820180604052508101906134229190613c36565b600554604051630d293c7160e41b81529192506000916001600160a01b039091169063d293c7109061345a9085908790600401613fdf565b60206040518083038186803b15801561347257600080fd5b505afa158015613486573d6000803e3d6000fd5b505050506040513d601f19601f820116820180604052508101906134aa9190613d9e565b9050600360009054906101000a90046001600160a01b03166001600160a01b031663794e57246040518163ffffffff1660e01b815260040160206040518083038186803b1580156134fa57600080fd5b505afa15801561350e573d6000803e3d6000fd5b505050506040513d601f19601f820116820180604052508101906135329190613d9e565b8110156112995760405162461bcd60e51b815260040161089590614758565b600081831061356057816108c5565b5090919050565b8061357157610c42565b600654604051631062c15f60e11b81526001600160a01b03909116906320c582be906135a590309086908690600401613f7a565b600060405180830381600087803b1580156135bf57600080fd5b505af11580156135d3573d6000803e3d6000fd5b50505050610c4281613851565b6001600160a01b0381166136065760405162461bcd60e51b81526004016108959061419f565b8161361057610c42565b600954600090613626908463ffffffff612a6516565b9050806009819055506000805160206149028339815191528160405161364c9190614847565b60405180910390a17f6109e2559dfa766aaec7118351d48a523f0a4157f49c8d68749c8ac41318ad123384604051613685929190613fdf565b60405180910390a16000336001600160a01b0316846040516136a690613f23565b60006040518083038185875af1925050503d80600081146136e3576040519150601f19603f3d011682016040523d82523d6000602084013e6136e8565b606091505b50509050806137095760405162461bcd60e51b8152600401610895906143b2565b50505050565b600a5480158061371d575081155b156137285750610b33565b60006137348383613aff565b9050600061374d60105483612b3390919063ffffffff16565b6011546001600160801b03600160801b820481166000908152601360209081526040808320939094168252919091522054909150613791908263ffffffff6108a016565b601180546001600160801b03600160801b80830482166000908152601360208181526040808420968616845295815285832097909755945491820483168082529486528381209190921680835294528190205490517f2d6127771b164a9cc8827d24b5955db2a77e7a81dac389107ebb8bce9fb64968936138129391614877565b60405180910390a150505050565b60008282016001600160801b0380851690821610156108c55760405162461bcd60e51b815260040161089590614713565b600a54600090613867908363ffffffff612a6516565b905080600a819055507ff3c69a10dcea5d744225cbe910fb39d6f8208bb8e21fff523d6756a7966093c78160405161389f9190614847565b60405180910390a15050565b6000826001600160801b0316826001600160801b031611156138df5760405162461bcd60e51b8152600401610895906146cb565b50900390565b6001600160a01b0381166000908152600d602052604090206001015460ff168061391657506001600160a01b038116155b610b335760405162461bcd60e51b8152600401610895906141ec565b60008111610b335760405162461bcd60e51b8152600401610895906144d7565b6001600160a01b038281166000818152600b602052604080822060010180546001600160a01b0319169486169485179055517f094c08e96a8890877a8390b4f967180a7507ad8622244d05fcd0f9f8e086564e9190a35050565b600654604051632ee65eeb60e21b81526001600160a01b039091169063bb997bac906139e090859030908690600401613f7a565b600060405180830381600087803b1580156139fa57600080fd5b505af1158015613a0e573d6000803e3d6000fd5b5050600a5460009250613a2891508363ffffffff6108a016565b905080600a819055507ff3c69a10dcea5d744225cbe910fb39d6f8208bb8e21fff523d6756a7966093c781604051610ac19190614847565b610b3381336135e0565b60008184841115613a8e5760405162461bcd60e51b81526004016108959190614060565b505050900390565b60008183613ab75760405162461bcd60e51b81526004016108959190614060565b506000838581613ac357fe5b0495945050505050565b613ad5613ba5565b613add613ba5565b5050604080518082019091526001600160a01b03929092168252602082015290565b600080613b23601454611e8b670de0b6b3a764000087612b3390919063ffffffff16565b90506000613b37828563ffffffff612b6d16565b9050613b59613b4c828663ffffffff612b3316565b839063ffffffff612a6516565b601455949350505050565b6040518060a0016040528060008152602001600081526020016000815260200160006001600160801b0316815260200160006001600160801b031681525090565b604080518082019091526000808252602082015290565b60008083601f840112613bcd578182fd5b50813567ffffffffffffffff811115613be4578182fd5b602083019150836020828501011115613bfc57600080fd5b9250929050565b80356001600160801b03811681146108c857600080fd5b600060208284031215613c2b578081fd5b81356108c5816148ec565b600060208284031215613c47578081fd5b81516108c5816148ec565b60008060408385031215613c64578081fd5b8235613c6f816148ec565b91506020830135613c7f816148ec565b809150509250929050565b600080600080600080600080610100898b031215613ca6578384fd5b8835613cb1816148ec565b97506020890135613cc1816148ec565b96506040890135613cd1816148ec565b95506060890135613ce1816148ec565b94506080890135613cf1816148ec565b935060a0890135613d01816148ec565b925060c0890135613d11816148ec565b915060e0890135613d21816148ec565b809150509295985092959890939650565b600060208284031215613d43578081fd5b815180151581146108c5578182fd5b60008060408385031215613d64578182fd5b613d6e8484613c03565b9150613d7d8460208501613c03565b90509250929050565b600060208284031215613d97578081fd5b5035919050565b600060208284031215613daf578081fd5b5051919050565b60008060408385031215613dc8578182fd5b823591506020830135613c7f816148ec565b60008082840360a0811215613ded578283fd5b833592506080601f1982011215613e02578182fd5b506020830190509250929050565b60008060008084860360c0811215613e26578485fd5b85359450601f1981016080811215613e3c578485fd5b613e4660606148c5565b91506040811215613e55578485fd5b50613e6060406148c5565b6020870135613e6e816148ec565b80825250604087013560208201528082525060608601356020820152608086013560408201528093505060a085013567ffffffffffffffff811115613eb1578283fd5b613ebd87828801613bbc565b95989497509550505050565b60008060408385031215613edb578182fd5b50508035926020909101359150565b600060208284031215613efb578081fd5b813560ff811681146108c5578182fd5b80516001600160a01b03168252602090810151910152565b90565b7035b2bc9737bbb730b136329737bbb732b960791b815260110190565b6001600160a01b0391909116815260200190565b6001600160a01b0393841681529183166020830152909116604082015260600190565b6001600160a01b039384168152919092166020820152604081019190915260600190565b6001600160a01b0397881681529590961660208601526040850193909352606084019190915260ff16608083015260a082015260c081019190915260e00190565b6001600160a01b03929092168252602082015260400190565b6001600160a01b039390931683526020830191909152604082015260600190565b6001600160a01b0393841681526020810192909252909116604082015260600190565b918252602082015260400190565b9283526020830191909152604082015260600190565b6000602080835283518082850152825b8181101561408c57858101830151858201604001528201614070565b8181111561409d5783604083870101525b50601f01601f1916929092016040019392505050565b60208082526046908201527f53746162696c697479506f6f6c3a2063616c6c6572206d75737420686176652060408201527f616e206163746976652074726f766520746f207769746864726177204554484760608201526561696e20746f60d01b608082015260a00190565b60208082526029908201527f444c4c52207472616e7366657272656420616d6f756e742076616c69646174696040820152681bdb8819985a5b195960ba1b606082015260800190565b6020808252601b908201527f536166654d6174683a206164646974696f6e206f766572666c6f770000000000604082015260600190565b6020808252602d908201527f53503a3a5f73656e644554484761696e546f3a205f726563656976657220697360408201526c207a65726f206164647265737360981b606082015260800190565b60208082526046908201527f53746162696c697479506f6f6c3a20546167206d75737420626520612072656760408201527f697374657265642066726f6e7420656e642c206f7220746865207a65726f206160608201526564647265737360d01b608082015260a00190565b60208082526027908201527f53746162696c697479506f6f6c3a2043616c6c6572206973206e6f74204163746040820152661a5d99541bdbdb60ca1b606082015260800190565b60208082526022908201527f4f776e61626c653a3a7365744f776e65723a20696e76616c6964206164647265604082015261737360f01b606082015260800190565b6020808252601e908201527f4163636f756e742063616e6e6f74206265207a65726f20616464726573730000604082015260600190565b60208082526031908201527f53746162696c697479506f6f6c3a2063616c6c6572206d7573742068617665206040820152703737b716bd32b9379022aa241023b0b4b760791b606082015260800190565b60208082526029908201527f53746162696c697479506f6f6c3a2043616c6c6572206973206e6f742054726f6040820152683b32a6b0b730b3b2b960b91b606082015260800190565b60208082526021908201527f53746162696c697479506f6f6c3a2073656e64696e6720455448206661696c656040820152601960fa1b606082015260800190565b60208082526021908201527f536166654d6174683a206d756c7469706c69636174696f6e206f766572666c6f6040820152607760f81b606082015260800190565b60208082526030908201527f53503a3a5f776974686472617746726f6d5370546f3a205f726563656976657260408201526f206973207a65726f206164647265737360801b606082015260800190565b60208082526033908201527f53746162696c697479506f6f6c3a204b69636b6261636b2072617465206d75736040820152727420626520696e2072616e6765205b302c315d60681b606082015260800190565b60208082526026908201527f53746162696c697479506f6f6c3a20416d6f756e74206d757374206265206e6f6040820152656e2d7a65726f60d01b606082015260800190565b60208082526017908201527613dddb98589b194e8e881858d8d95cdcc819195b9a5959604a1b604082015260600190565b60208082526039908201527f53746162696c697479506f6f6c3a206d757374206e6f7420616c72656164792060408201527818994818481c9959da5cdd195c995908199c9bdb9d08195b99603a1b606082015260800190565b60208082526028908201527f53746162696c697479506f6f6c3a2055736572206d7573742068617665206e6f6040820152670819195c1bdcda5d60c21b606082015260800190565b60208082526037908201527f4661696c656420746f20617070726f7665205a55534420616d6f756e7420666f60408201527672204d796e74206d417373657420746f2072656465656d60481b606082015260800190565b6020808252818101527f4163636f756e7420636f64652073697a652063616e6e6f74206265207a65726f604082015260600190565b60208082526030908201527f53746162696c697479506f6f6c3a2055736572206d757374206861766520612060408201526f1b9bdb8b5e995c9bc819195c1bdcda5d60821b606082015260800190565b60208082526028908201527f4c697175697479536166654d6174683132383a207375627472616374696f6e206040820152676f766572666c6f7760c01b606082015260800190565b60208082526025908201527f4c697175697479536166654d6174683132383a206164646974696f6e206f766560408201526472666c6f7760d81b606082015260800190565b60208082526044908201527f53746162696c697479506f6f6c3a2043616e6e6f74207769746864726177207760408201527f68696c65207468657265206172652074726f766573207769746820494352203c6060820152631026a1a960e11b608082015260a00190565b60006101006147d2838951613f0b565b60208801516040840152604088015160608401526147f36080840188613f0b565b6001600160a01b03861660c084015260e083018190528201839052610120838582850137828401810191909152601f909201601f19160101949350505050565b6001600160801b0391909116815260200190565b90815260200190565b9182526001600160a01b0316602082015260400190565b9182521515602082015260400190565b9283526001600160801b03918216602084015216604082015260600190565b948552602085019390935260408401919091526001600160801b03908116606084015216608082015260a00190565b60405181810167ffffffffffffffff811182821017156148e457600080fd5b604052919050565b6001600160a01b0381168114610b3357600080fdfeceb6d671277d4354fd29977ada70695fbd93a16612abf765d6b0e25c28dc6db3bce78369dccab09eec1986f4d409ab09ffbb47d65423e5148fcf98411c5111c951457222ebca92c335c9c86e2baa1cc0e40ffaa9084a51452980d5ba8dec2f6399920012339b5a3368d3a04b8606ce412c46ed92b7dcd8602d41fc8862cb8f25a2646970667358221220b12079f570461c3902a02d925635ecefb92e70f4556abddd99509e1ecfffdece64736f6c634300060b0033",
    "implementation": "0xC959895CE6224dde0BdF7eb84519814dE23f2ee5"
}