{
    "address": "0x176D218CaB70002CEF08e15271476187c37ed25f",
    "abi": [
        {
            "anonymous": false,
            "inputs": [
                {
                    "indexed": true,
                    "internalType": "address",
                    "name": "_oldImplementation",
                    "type": "address"
                },
                {
                    "indexed": true,
                    "internalType": "address",
                    "name": "_newImplementation",
                    "type": "address"
                }
            ],
            "name": "ImplementationChanged",
            "type": "event"
        },
        {
            "anonymous": false,
            "inputs": [
                {
                    "indexed": true,
                    "internalType": "address",
                    "name": "previousOwner",
                    "type": "address"
                },
                {
                    "indexed": true,
                    "internalType": "address",
                    "name": "newOwner",
                    "type": "address"
                }
            ],
            "name": "OwnershipTransferred",
            "type": "event"
        },
        {
            "stateMutability": "payable",
            "type": "fallback"
        },
        {
            "inputs": [],
            "name": "getImplementation",
            "outputs": [
                {
                    "internalType": "address",
                    "name": "_implementation",
                    "type": "address"
                }
            ],
            "stateMutability": "view",
            "type": "function"
        },
        {
            "inputs": [],
            "name": "getOwner",
            "outputs": [
                {
                    "internalType": "address",
                    "name": "_owner",
                    "type": "address"
                }
            ],
            "stateMutability": "view",
            "type": "function"
        },
        {
            "inputs": [
                {
                    "internalType": "address",
                    "name": "_implementation",
                    "type": "address"
                }
            ],
            "name": "setImplementation",
            "outputs": [],
            "stateMutability": "nonpayable",
            "type": "function"
        },
        {
            "inputs": [
                {
                    "internalType": "address",
                    "name": "_owner",
                    "type": "address"
                }
            ],
            "name": "setOwner",
            "outputs": [],
            "stateMutability": "nonpayable",
            "type": "function"
        },
        {
            "stateMutability": "payable",
            "type": "receive"
        },
        {
            "inputs": [
                {
                    "internalType": "address",
                    "name": "_permit2",
                    "type": "address"
                }
            ],
            "stateMutability": "nonpayable",
            "type": "constructor"
        },
        {
            "anonymous": false,
            "inputs": [
                {
                    "indexed": false,
                    "internalType": "address",
                    "name": "_newActivePoolAddress",
                    "type": "address"
                }
            ],
            "name": "ActivePoolAddressChanged",
            "type": "event"
        },
        {
            "anonymous": false,
            "inputs": [
                {
                    "indexed": false,
                    "internalType": "address",
                    "name": "_newBorrowerOperationsAddress",
                    "type": "address"
                }
            ],
            "name": "BorrowerOperationsAddressChanged",
            "type": "event"
        },
        {
            "anonymous": false,
            "inputs": [
                {
                    "indexed": false,
                    "internalType": "address",
                    "name": "_newCommunityIssuanceAddress",
                    "type": "address"
                }
            ],
            "name": "CommunityIssuanceAddressChanged",
            "type": "event"
        },
        {
            "anonymous": false,
            "inputs": [
                {
                    "indexed": false,
                    "internalType": "address",
                    "name": "_newDefaultPoolAddress",
                    "type": "address"
                }
            ],
            "name": "DefaultPoolAddressChanged",
            "type": "event"
        },
        {
            "anonymous": false,
            "inputs": [
                {
                    "indexed": true,
                    "internalType": "address",
                    "name": "_depositor",
                    "type": "address"
                },
                {
                    "indexed": false,
                    "internalType": "uint256",
                    "name": "_P",
                    "type": "uint256"
                },
                {
                    "indexed": false,
                    "internalType": "uint256",
                    "name": "_S",
                    "type": "uint256"
                },
                {
                    "indexed": false,
                    "internalType": "uint256",
                    "name": "_G",
                    "type": "uint256"
                }
            ],
            "name": "DepositSnapshotUpdated",
            "type": "event"
        },
        {
            "anonymous": false,
            "inputs": [
                {
                    "indexed": true,
                    "internalType": "address",
                    "name": "_depositor",
                    "type": "address"
                },
                {
                    "indexed": false,
                    "internalType": "uint256",
                    "name": "_ETH",
                    "type": "uint256"
                },
                {
                    "indexed": false,
                    "internalType": "uint256",
                    "name": "_ZUSDLoss",
                    "type": "uint256"
                }
            ],
            "name": "ETHGainWithdrawn",
            "type": "event"
        },
        {
            "anonymous": false,
            "inputs": [
                {
                    "indexed": false,
                    "internalType": "uint128",
                    "name": "_currentEpoch",
                    "type": "uint128"
                }
            ],
            "name": "EpochUpdated",
            "type": "event"
        },
        {
            "anonymous": false,
            "inputs": [
                {
                    "indexed": false,
                    "internalType": "address",
                    "name": "_to",
                    "type": "address"
                },
                {
                    "indexed": false,
                    "internalType": "uint256",
                    "name": "_amount",
                    "type": "uint256"
                }
            ],
            "name": "EtherSent",
            "type": "event"
        },
        {
            "anonymous": false,
            "inputs": [
                {
                    "indexed": true,
                    "internalType": "address",
                    "name": "_frontEnd",
                    "type": "address"
                },
                {
                    "indexed": false,
                    "internalType": "uint256",
                    "name": "_kickbackRate",
                    "type": "uint256"
                }
            ],
            "name": "FrontEndRegistered",
            "type": "event"
        },
        {
            "anonymous": false,
            "inputs": [
                {
                    "indexed": true,
                    "internalType": "address",
                    "name": "_frontEnd",
                    "type": "address"
                },
                {
                    "indexed": false,
                    "internalType": "uint256",
                    "name": "_P",
                    "type": "uint256"
                },
                {
                    "indexed": false,
                    "internalType": "uint256",
                    "name": "_G",
                    "type": "uint256"
                }
            ],
            "name": "FrontEndSnapshotUpdated",
            "type": "event"
        },
        {
            "anonymous": false,
            "inputs": [
                {
                    "indexed": true,
                    "internalType": "address",
                    "name": "_frontEnd",
                    "type": "address"
                },
                {
                    "indexed": false,
                    "internalType": "uint256",
                    "name": "_newFrontEndStake",
                    "type": "uint256"
                },
                {
                    "indexed": false,
                    "internalType": "address",
                    "name": "_depositor",
                    "type": "address"
                }
            ],
            "name": "FrontEndStakeChanged",
            "type": "event"
        },
        {
            "anonymous": false,
            "inputs": [
                {
                    "indexed": true,
                    "internalType": "address",
                    "name": "_depositor",
                    "type": "address"
                },
                {
                    "indexed": true,
                    "internalType": "address",
                    "name": "_frontEnd",
                    "type": "address"
                }
            ],
            "name": "FrontEndTagSet",
            "type": "event"
        },
        {
            "anonymous": false,
            "inputs": [
                {
                    "indexed": false,
                    "internalType": "uint256",
                    "name": "_G",
                    "type": "uint256"
                },
                {
                    "indexed": false,
                    "internalType": "uint128",
                    "name": "_epoch",
                    "type": "uint128"
                },
                {
                    "indexed": false,
                    "internalType": "uint128",
                    "name": "_scale",
                    "type": "uint128"
                }
            ],
            "name": "G_Updated",
            "type": "event"
        },
        {
            "anonymous": false,
            "inputs": [
                {
                    "indexed": true,
                    "internalType": "address",
                    "name": "previousOwner",
                    "type": "address"
                },
                {
                    "indexed": true,
                    "internalType": "address",
                    "name": "newOwner",
                    "type": "address"
                }
            ],
            "name": "OwnershipTransferred",
            "type": "event"
        },
        {
            "anonymous": false,
            "inputs": [
                {
                    "indexed": false,
                    "internalType": "uint256",
                    "name": "_P",
                    "type": "uint256"
                }
            ],
            "name": "P_Updated",
            "type": "event"
        },
        {
            "anonymous": false,
            "inputs": [
                {
                    "indexed": false,
                    "internalType": "address",
                    "name": "_newPriceFeedAddress",
                    "type": "address"
                }
            ],
            "name": "PriceFeedAddressChanged",
            "type": "event"
        },
        {
            "anonymous": false,
            "inputs": [
                {
                    "indexed": true,
                    "internalType": "address",
                    "name": "_depositor",
                    "type": "address"
                },
                {
                    "indexed": false,
                    "internalType": "uint256",
                    "name": "_SOV",
                    "type": "uint256"
                }
            ],
            "name": "SOVPaidToDepositor",
            "type": "event"
        },
        {
            "anonymous": false,
            "inputs": [
                {
                    "indexed": true,
                    "internalType": "address",
                    "name": "_frontEnd",
                    "type": "address"
                },
                {
                    "indexed": false,
                    "internalType": "uint256",
                    "name": "_SOV",
                    "type": "uint256"
                }
            ],
            "name": "SOVPaidToFrontEnd",
            "type": "event"
        },
        {
            "anonymous": false,
            "inputs": [
                {
                    "indexed": false,
                    "internalType": "uint256",
                    "name": "_S",
                    "type": "uint256"
                },
                {
                    "indexed": false,
                    "internalType": "uint128",
                    "name": "_epoch",
                    "type": "uint128"
                },
                {
                    "indexed": false,
                    "internalType": "uint128",
                    "name": "_scale",
                    "type": "uint128"
                }
            ],
            "name": "S_Updated",
            "type": "event"
        },
        {
            "anonymous": false,
            "inputs": [
                {
                    "indexed": false,
                    "internalType": "uint128",
                    "name": "_currentScale",
                    "type": "uint128"
                }
            ],
            "name": "ScaleUpdated",
            "type": "event"
        },
        {
            "anonymous": false,
            "inputs": [
                {
                    "indexed": false,
                    "internalType": "address",
                    "name": "_newSortedTrovesAddress",
                    "type": "address"
                }
            ],
            "name": "SortedTrovesAddressChanged",
            "type": "event"
        },
        {
            "anonymous": false,
            "inputs": [
                {
                    "indexed": false,
                    "internalType": "uint256",
                    "name": "_newBalance",
                    "type": "uint256"
                }
            ],
            "name": "StabilityPoolETHBalanceUpdated",
            "type": "event"
        },
        {
            "anonymous": false,
            "inputs": [
                {
                    "indexed": false,
                    "internalType": "uint256",
                    "name": "_newBalance",
                    "type": "uint256"
                }
            ],
            "name": "StabilityPoolZUSDBalanceUpdated",
            "type": "event"
        },
        {
            "anonymous": false,
            "inputs": [
                {
                    "indexed": false,
                    "internalType": "address",
                    "name": "_newTroveManagerAddress",
                    "type": "address"
                }
            ],
            "name": "TroveManagerAddressChanged",
            "type": "event"
        },
        {
            "anonymous": false,
            "inputs": [
                {
                    "indexed": true,
                    "internalType": "address",
                    "name": "_depositor",
                    "type": "address"
                },
                {
                    "indexed": false,
                    "internalType": "uint256",
                    "name": "_newDeposit",
                    "type": "uint256"
                }
            ],
            "name": "UserDepositChanged",
            "type": "event"
        },
        {
            "anonymous": false,
            "inputs": [
                {
                    "indexed": false,
                    "internalType": "address",
                    "name": "_depositor",
                    "type": "address"
                },
                {
                    "indexed": false,
                    "internalType": "uint256",
                    "name": "_zusdAmountRequested",
                    "type": "uint256"
                },
                {
                    "indexed": false,
                    "internalType": "uint256",
                    "name": "_dllrAmountReceived",
                    "type": "uint256"
                }
            ],
            "name": "WithdrawFromSpAndConvertToDLLR",
            "type": "event"
        },
        {
            "anonymous": false,
            "inputs": [
                {
                    "indexed": false,
                    "internalType": "address",
                    "name": "_newZUSDTokenAddress",
                    "type": "address"
                }
            ],
            "name": "ZUSDTokenAddressChanged",
            "type": "event"
        },
        {
            "inputs": [],
            "name": "DECIMAL_PRECISION",
            "outputs": [
                {
                    "internalType": "uint256",
                    "name": "",
                    "type": "uint256"
                }
            ],
            "stateMutability": "view",
            "type": "function"
        },
        {
            "inputs": [],
            "name": "MIN_NET_DEBT",
            "outputs": [
                {
                    "internalType": "uint256",
                    "name": "",
                    "type": "uint256"
                }
            ],
            "stateMutability": "view",
            "type": "function"
        },
        {
            "inputs": [],
            "name": "NAME",
            "outputs": [
                {
                    "internalType": "string",
                    "name": "",
                    "type": "string"
                }
            ],
            "stateMutability": "view",
            "type": "function"
        },
        {
            "inputs": [],
            "name": "P",
            "outputs": [
                {
                    "internalType": "uint256",
                    "name": "",
                    "type": "uint256"
                }
            ],
            "stateMutability": "view",
            "type": "function"
        },
        {
            "inputs": [],
            "name": "SCALE_FACTOR",
            "outputs": [
                {
                    "internalType": "uint256",
                    "name": "",
                    "type": "uint256"
                }
            ],
            "stateMutability": "view",
            "type": "function"
        },
        {
            "inputs": [],
            "name": "ZUSD_GAS_COMPENSATION",
            "outputs": [
                {
                    "internalType": "uint256",
                    "name": "",
                    "type": "uint256"
                }
            ],
            "stateMutability": "view",
            "type": "function"
        },
        {
            "inputs": [],
            "name": "_100pct",
            "outputs": [
                {
                    "internalType": "uint256",
                    "name": "",
                    "type": "uint256"
                }
            ],
            "stateMutability": "view",
            "type": "function"
        },
        {
            "inputs": [],
            "name": "activePool",
            "outputs": [
                {
                    "internalType": "contract IActivePool",
                    "name": "",
                    "type": "address"
                }
            ],
            "stateMutability": "view",
            "type": "function"
        },
        {
            "inputs": [],
            "name": "borrowerOperations",
            "outputs": [
                {
                    "internalType": "contract IBorrowerOperations",
                    "name": "",
                    "type": "address"
                }
            ],
            "stateMutability": "view",
            "type": "function"
        },
        {
            "inputs": [],
            "name": "communityIssuance",
            "outputs": [
                {
                    "internalType": "contract ICommunityIssuance",
                    "name": "",
                    "type": "address"
                }
            ],
            "stateMutability": "view",
            "type": "function"
        },
        {
            "inputs": [],
            "name": "currentEpoch",
            "outputs": [
                {
                    "internalType": "uint128",
                    "name": "",
                    "type": "uint128"
                }
            ],
            "stateMutability": "view",
            "type": "function"
        },
        {
            "inputs": [],
            "name": "currentScale",
            "outputs": [
                {
                    "internalType": "uint128",
                    "name": "",
                    "type": "uint128"
                }
            ],
            "stateMutability": "view",
            "type": "function"
        },
        {
            "inputs": [],
            "name": "defaultPool",
            "outputs": [
                {
                    "internalType": "contract IDefaultPool",
                    "name": "",
                    "type": "address"
                }
            ],
            "stateMutability": "view",
            "type": "function"
        },
        {
            "inputs": [
                {
                    "internalType": "address",
                    "name": "",
                    "type": "address"
                }
            ],
            "name": "depositSnapshots",
            "outputs": [
                {
                    "internalType": "uint256",
                    "name": "S",
                    "type": "uint256"
                },
                {
                    "internalType": "uint256",
                    "name": "P",
                    "type": "uint256"
                },
                {
                    "internalType": "uint256",
                    "name": "G",
                    "type": "uint256"
                },
                {
                    "internalType": "uint128",
                    "name": "scale",
                    "type": "uint128"
                },
                {
                    "internalType": "uint128",
                    "name": "epoch",
                    "type": "uint128"
                }
            ],
            "stateMutability": "view",
            "type": "function"
        },
        {
            "inputs": [
                {
                    "internalType": "address",
                    "name": "",
                    "type": "address"
                }
            ],
            "name": "deposits",
            "outputs": [
                {
                    "internalType": "uint256",
                    "name": "initialValue",
                    "type": "uint256"
                },
                {
                    "internalType": "address",
                    "name": "frontEndTag",
                    "type": "address"
                }
            ],
            "stateMutability": "view",
            "type": "function"
        },
        {
            "inputs": [
                {
                    "internalType": "uint128",
                    "name": "",
                    "type": "uint128"
                },
                {
                    "internalType": "uint128",
                    "name": "",
                    "type": "uint128"
                }
            ],
            "name": "epochToScaleToG",
            "outputs": [
                {
                    "internalType": "uint256",
                    "name": "",
                    "type": "uint256"
                }
            ],
            "stateMutability": "view",
            "type": "function"
        },
        {
            "inputs": [
                {
                    "internalType": "uint128",
                    "name": "",
                    "type": "uint128"
                },
                {
                    "internalType": "uint128",
                    "name": "",
                    "type": "uint128"
                }
            ],
            "name": "epochToScaleToSum",
            "outputs": [
                {
                    "internalType": "uint256",
                    "name": "",
                    "type": "uint256"
                }
            ],
            "stateMutability": "view",
            "type": "function"
        },
        {
            "inputs": [
                {
                    "internalType": "address",
                    "name": "",
                    "type": "address"
                }
            ],
            "name": "frontEndSnapshots",
            "outputs": [
                {
                    "internalType": "uint256",
                    "name": "S",
                    "type": "uint256"
                },
                {
                    "internalType": "uint256",
                    "name": "P",
                    "type": "uint256"
                },
                {
                    "internalType": "uint256",
                    "name": "G",
                    "type": "uint256"
                },
                {
                    "internalType": "uint128",
                    "name": "scale",
                    "type": "uint128"
                },
                {
                    "internalType": "uint128",
                    "name": "epoch",
                    "type": "uint128"
                }
            ],
            "stateMutability": "view",
            "type": "function"
        },
        {
            "inputs": [
                {
                    "internalType": "address",
                    "name": "",
                    "type": "address"
                }
            ],
            "name": "frontEndStakes",
            "outputs": [
                {
                    "internalType": "uint256",
                    "name": "",
                    "type": "uint256"
                }
            ],
            "stateMutability": "view",
            "type": "function"
        },
        {
            "inputs": [
                {
                    "internalType": "address",
                    "name": "",
                    "type": "address"
                }
            ],
            "name": "frontEnds",
            "outputs": [
                {
                    "internalType": "uint256",
                    "name": "kickbackRate",
                    "type": "uint256"
                },
                {
                    "internalType": "bool",
                    "name": "registered",
                    "type": "bool"
                }
            ],
            "stateMutability": "view",
            "type": "function"
        },
        {
            "inputs": [
                {
                    "internalType": "address",
                    "name": "_frontEnd",
                    "type": "address"
                }
            ],
            "name": "getCompoundedFrontEndStake",
            "outputs": [
                {
                    "internalType": "uint256",
                    "name": "",
                    "type": "uint256"
                }
            ],
            "stateMutability": "view",
            "type": "function"
        },
        {
            "inputs": [
                {
                    "internalType": "address",
                    "name": "_depositor",
                    "type": "address"
                }
            ],
            "name": "getCompoundedZUSDDeposit",
            "outputs": [
                {
                    "internalType": "uint256",
                    "name": "",
                    "type": "uint256"
                }
            ],
            "stateMutability": "view",
            "type": "function"
        },
        {
            "inputs": [
                {
                    "internalType": "address",
                    "name": "_depositor",
                    "type": "address"
                }
            ],
            "name": "getDepositorETHGain",
            "outputs": [
                {
                    "internalType": "uint256",
                    "name": "",
                    "type": "uint256"
                }
            ],
            "stateMutability": "view",
            "type": "function"
        },
        {
            "inputs": [
                {
                    "internalType": "address",
                    "name": "_depositor",
                    "type": "address"
                }
            ],
            "name": "getDepositorSOVGain",
            "outputs": [
                {
                    "internalType": "uint256",
                    "name": "",
                    "type": "uint256"
                }
            ],
            "stateMutability": "view",
            "type": "function"
        },
        {
            "inputs": [],
            "name": "getETH",
            "outputs": [
                {
                    "internalType": "uint256",
                    "name": "",
                    "type": "uint256"
                }
            ],
            "stateMutability": "view",
            "type": "function"
        },
        {
            "inputs": [],
            "name": "getEntireSystemColl",
            "outputs": [
                {
                    "internalType": "uint256",
                    "name": "entireSystemColl",
                    "type": "uint256"
                }
            ],
            "stateMutability": "view",
            "type": "function"
        },
        {
            "inputs": [],
            "name": "getEntireSystemDebt",
            "outputs": [
                {
                    "internalType": "uint256",
                    "name": "entireSystemDebt",
                    "type": "uint256"
                }
            ],
            "stateMutability": "view",
            "type": "function"
        },
        {
            "inputs": [
                {
                    "internalType": "address",
                    "name": "_frontEnd",
                    "type": "address"
                }
            ],
            "name": "getFrontEndSOVGain",
            "outputs": [
                {
                    "internalType": "uint256",
                    "name": "",
                    "type": "uint256"
                }
            ],
            "stateMutability": "view",
            "type": "function"
        },
        {
            "inputs": [],
            "name": "getOwner",
            "outputs": [
                {
                    "internalType": "address",
                    "name": "_owner",
                    "type": "address"
                }
            ],
            "stateMutability": "view",
            "type": "function"
        },
        {
            "inputs": [],
            "name": "getTotalZUSDDeposits",
            "outputs": [
                {
                    "internalType": "uint256",
                    "name": "",
                    "type": "uint256"
                }
            ],
            "stateMutability": "view",
            "type": "function"
        },
        {
            "inputs": [],
            "name": "lastETHError_Offset",
            "outputs": [
                {
                    "internalType": "uint256",
                    "name": "",
                    "type": "uint256"
                }
            ],
            "stateMutability": "view",
            "type": "function"
        },
        {
            "inputs": [],
            "name": "lastSOVError",
            "outputs": [
                {
                    "internalType": "uint256",
                    "name": "",
                    "type": "uint256"
                }
            ],
            "stateMutability": "view",
            "type": "function"
        },
        {
            "inputs": [],
            "name": "lastZUSDLossError_Offset",
            "outputs": [
                {
                    "internalType": "uint256",
                    "name": "",
                    "type": "uint256"
                }
            ],
            "stateMutability": "view",
            "type": "function"
        },
        {
            "inputs": [],
            "name": "liquityBaseParams",
            "outputs": [
                {
                    "internalType": "contract ILiquityBaseParams",
                    "name": "",
                    "type": "address"
                }
            ],
            "stateMutability": "view",
            "type": "function"
        },
        {
            "inputs": [
                {
                    "internalType": "address",
                    "name": "owner",
                    "type": "address"
                }
            ],
            "name": "nonces",
            "outputs": [
                {
                    "internalType": "uint256",
                    "name": "",
                    "type": "uint256"
                }
            ],
            "stateMutability": "view",
            "type": "function"
        },
        {
            "inputs": [
                {
                    "internalType": "uint256",
                    "name": "_debtToOffset",
                    "type": "uint256"
                },
                {
                    "internalType": "uint256",
                    "name": "_collToAdd",
                    "type": "uint256"
                }
            ],
            "name": "offset",
            "outputs": [],
            "stateMutability": "nonpayable",
            "type": "function"
        },
        {
            "inputs": [],
            "name": "permit2",
            "outputs": [
                {
                    "internalType": "contract IPermit2",
                    "name": "",
                    "type": "address"
                }
            ],
            "stateMutability": "view",
            "type": "function"
        },
        {
            "inputs": [],
            "name": "priceFeed",
            "outputs": [
                {
                    "internalType": "contract IPriceFeed",
                    "name": "",
                    "type": "address"
                }
            ],
            "stateMutability": "view",
            "type": "function"
        },
        {
            "inputs": [
                {
                    "internalType": "uint256",
                    "name": "_amount",
                    "type": "uint256"
                },
                {
                    "internalType": "address",
                    "name": "_frontEndTag",
                    "type": "address"
                }
            ],
            "name": "provideToSP",
            "outputs": [],
            "stateMutability": "nonpayable",
            "type": "function"
        },
        {
            "inputs": [
                {
                    "internalType": "uint256",
                    "name": "_dllrAmount",
                    "type": "uint256"
                },
                {
                    "components": [
                        {
                            "internalType": "uint256",
                            "name": "deadline",
                            "type": "uint256"
                        },
                        {
                            "internalType": "uint8",
                            "name": "v",
                            "type": "uint8"
                        },
                        {
                            "internalType": "bytes32",
                            "name": "r",
                            "type": "bytes32"
                        },
                        {
                            "internalType": "bytes32",
                            "name": "s",
                            "type": "bytes32"
                        }
                    ],
                    "internalType": "struct IMassetManager.PermitParams",
                    "name": "_permitParams",
                    "type": "tuple"
                }
            ],
            "name": "provideToSpFromDLLR",
            "outputs": [],
            "stateMutability": "nonpayable",
            "type": "function"
        },
        {
            "inputs": [
                {
                    "internalType": "uint256",
                    "name": "_dllrAmount",
                    "type": "uint256"
                },
                {
                    "components": [
                        {
                            "components": [
                                {
                                    "internalType": "address",
                                    "name": "token",
                                    "type": "address"
                                },
                                {
                                    "internalType": "uint256",
                                    "name": "amount",
                                    "type": "uint256"
                                }
                            ],
                            "internalType": "struct ISignatureTransfer.TokenPermissions",
                            "name": "permitted",
                            "type": "tuple"
                        },
                        {
                            "internalType": "uint256",
                            "name": "nonce",
                            "type": "uint256"
                        },
                        {
                            "internalType": "uint256",
                            "name": "deadline",
                            "type": "uint256"
                        }
                    ],
                    "internalType": "struct ISignatureTransfer.PermitTransferFrom",
                    "name": "_permit",
                    "type": "tuple"
                },
                {
                    "internalType": "bytes",
                    "name": "_signature",
                    "type": "bytes"
                }
            ],
            "name": "provideToSpFromDllrWithPermit2",
            "outputs": [],
            "stateMutability": "nonpayable",
            "type": "function"
        },
        {
            "inputs": [
                {
                    "internalType": "uint256",
                    "name": "_kickbackRate",
                    "type": "uint256"
                }
            ],
            "name": "registerFrontEnd",
            "outputs": [],
            "stateMutability": "nonpayable",
            "type": "function"
        },
        {
            "inputs": [
                {
                    "internalType": "address",
                    "name": "_liquityBaseParamsAddress",
                    "type": "address"
                },
                {
                    "internalType": "address",
                    "name": "_borrowerOperationsAddress",
                    "type": "address"
                },
                {
                    "internalType": "address",
                    "name": "_troveManagerAddress",
                    "type": "address"
                },
                {
                    "internalType": "address",
                    "name": "_activePoolAddress",
                    "type": "address"
                },
                {
                    "internalType": "address",
                    "name": "_zusdTokenAddress",
                    "type": "address"
                },
                {
                    "internalType": "address",
                    "name": "_sortedTrovesAddress",
                    "type": "address"
                },
                {
                    "internalType": "address",
                    "name": "_priceFeedAddress",
                    "type": "address"
                },
                {
                    "internalType": "address",
                    "name": "_communityIssuanceAddress",
                    "type": "address"
                }
            ],
            "name": "setAddresses",
            "outputs": [],
            "stateMutability": "nonpayable",
            "type": "function"
        },
        {
            "inputs": [
                {
                    "internalType": "address",
                    "name": "_communityIssuanceAddress",
                    "type": "address"
                }
            ],
            "name": "setCommunityIssuanceAddress",
            "outputs": [],
            "stateMutability": "nonpayable",
            "type": "function"
        },
        {
            "inputs": [
                {
                    "internalType": "address",
                    "name": "_owner",
                    "type": "address"
                }
            ],
            "name": "setOwner",
            "outputs": [],
            "stateMutability": "nonpayable",
            "type": "function"
        },
        {
            "inputs": [],
            "name": "sortedTroves",
            "outputs": [
                {
                    "internalType": "contract ISortedTroves",
                    "name": "",
                    "type": "address"
                }
            ],
            "stateMutability": "view",
            "type": "function"
        },
        {
            "inputs": [],
            "name": "troveManager",
            "outputs": [
                {
                    "internalType": "contract ITroveManager",
                    "name": "",
                    "type": "address"
                }
            ],
            "stateMutability": "view",
            "type": "function"
        },
        {
            "inputs": [
                {
                    "internalType": "address",
                    "name": "_upperHint",
                    "type": "address"
                },
                {
                    "internalType": "address",
                    "name": "_lowerHint",
                    "type": "address"
                }
            ],
            "name": "withdrawETHGainToTrove",
            "outputs": [],
            "stateMutability": "nonpayable",
            "type": "function"
        },
        {
            "inputs": [
                {
                    "internalType": "uint256",
                    "name": "_amount",
                    "type": "uint256"
                }
            ],
            "name": "withdrawFromSP",
            "outputs": [],
            "stateMutability": "nonpayable",
            "type": "function"
        },
        {
            "inputs": [
                {
                    "internalType": "uint256",
                    "name": "_zusdAmountRequested",
                    "type": "uint256"
                }
            ],
            "name": "withdrawFromSpAndConvertToDLLR",
            "outputs": [],
            "stateMutability": "nonpayable",
            "type": "function"
        },
        {
            "inputs": [],
            "name": "zusdToken",
            "outputs": [
                {
                    "internalType": "contract IZUSDToken",
                    "name": "",
                    "type": "address"
                }
            ],
            "stateMutability": "view",
            "type": "function"
        },
        {
            "stateMutability": "payable",
            "type": "receive"
        }
    ],
    "transactionHash": "0xecbc5dcaf1de74a7abe12cd938840e461efdc904c6039048117ffd558cbeb355",
    "numDeployments": 2,
    "bytecode": "0x60a06040523480156200001157600080fd5b5060405162004bd238038062004bd2833981016040819052620000349162000125565b8062000049336001600160e01b036200006016565b60601b6001600160601b03191660805250620001b4565b6001600160a01b038116620000925760405162461bcd60e51b8152600401620000899062000172565b60405180910390fd5b6001600160a01b038116620000af6001600160e01b036200010416565b6001600160a01b03167f8be0079c531659141344cd1fd0a4f28419497f9722a3daafe3b4186f6b6457e060405160405180910390a36000604051620000f49062000155565b6040519081900390209190915550565b600080604051620001159062000155565b6040519081900390205492915050565b60006020828403121562000137578081fd5b81516001600160a01b03811681146200014e578182fd5b9392505050565b7035b2bc9737bbb730b136329737bbb732b960791b815260110190565b60208082526022908201527f4f776e61626c653a3a7365744f776e65723a20696e76616c6964206164647265604082015261737360f01b606082015260800190565b60805160601c6149fb620001d760003980610afb52806118e652506149fb6000f3fe6080604052600436106102b85760003560e01c80637f7dde4a11610170578063b31ee965116100cc578063de13da3c11610085578063de13da3c146107b3578063df9cd84f146107d3578063e49d3667146107f3578063ec9f7d4614610813578063fc7e286d14610828578063fce6b73414610856578063fda0101a1461087657610303565b8063b31ee9651461071f578063bdaf37ea14610734578063c3a34a0e14610749578063ce4b5bbe14610769578063d733cfd01461077e578063d7fb04431461079e57610303565b806395fb16bb1161012957806395fb16bb1461067b5780639f07067014610690578063a20baee61461053c578063a3f4df7e146106a5578063a4e59ac8146106c7578063a7bfff97146106dc578063ae9187541461070a57610303565b80637f7dde4a146105e757806382e0a574146105fc57806386da08241461061c578063887105d31461063c578063893d20e8146106515780638b8fbd921461066657610303565b80633d83908a1161021f57806372fe25aa116101d857806372fe25aa1461053c578063741bef1a14610551578063759b303414610566578063766718081461057b57806377553ad41461059d578063795d26c3146105b25780637ecebe00146105c757610303565b80633d83908a1461049257806340ed1afd146104a7578063556be101146104c75780635d2de642146104e75780635f788d651461050757806370f1b5721461052757610303565b80632199b66f116102715780632199b66f146103dd57806328a0a04d146103fd5780632e54bf951461041d578063335525ad1461043d578063389e92a51461045d5780633cc742251461047d57610303565b80630fbfe38b1461030857806312261ee71461032a57806313af40351461035557806314f6c3be1461037557806316b9d3c5146103975780631bf43555146103c857610303565b36610303576102c5610896565b6009546102d8903463ffffffff6108cb16565b6009819055604051600080516020614946833981519152916102f99161488b565b60405180910390a1005b600080fd5b34801561031457600080fd5b50610328610323366004613dcb565b6108f9565b005b34801561033657600080fd5b5061033f610af9565b60405161034c9190613f87565b60405180910390f35b34801561036157600080fd5b50610328610370366004613c5f565b610b1d565b34801561038157600080fd5b5061038a610b61565b60405161034c919061488b565b3480156103a357600080fd5b506103b76103b2366004613c5f565b610b67565b60405161034c9594939291906148da565b3480156103d457600080fd5b5061038a610ba2565b3480156103e957600080fd5b506103286103f8366004613c5f565b610baf565b34801561040957600080fd5b5061038a610418366004613d97565b610c46565b34801561042957600080fd5b50610328610438366004613dcb565b610c63565b34801561044957600080fd5b50610328610458366004613f0d565b610c71565b34801561046957600080fd5b5061038a610478366004613c5f565b610cd4565b34801561048957600080fd5b5061033f610d7c565b34801561049e57600080fd5b5061033f610d8b565b3480156104b357600080fd5b5061038a6104c2366004613c5f565b610d9a565b3480156104d357600080fd5b506103286104e2366004613dcb565b610e37565b3480156104f357600080fd5b5061038a610502366004613c5f565b610eaf565b34801561051357600080fd5b50610328610522366004613dfb565b610ec1565b34801561053357600080fd5b5061038a610ecb565b34801561054857600080fd5b5061038a610ed1565b34801561055d57600080fd5b5061033f610edd565b34801561057257600080fd5b5061038a610eec565b34801561058757600080fd5b50610590610ef9565b60405161034c9190614877565b3480156105a957600080fd5b5061033f610f0f565b3480156105be57600080fd5b5061038a610f1e565b3480156105d357600080fd5b5061038a6105e2366004613c5f565b61103d565b3480156105f357600080fd5b5061033f61105e565b34801561060857600080fd5b5061038a610617366004613d97565b61106d565b34801561062857600080fd5b506103b7610637366004613c5f565b61108a565b34801561064857600080fd5b5061038a6110c5565b34801561065d57600080fd5b5061033f611194565b34801561067257600080fd5b5061038a6111b3565b34801561068757600080fd5b5061033f6111b9565b34801561069c57600080fd5b5061033f6111c8565b3480156106b157600080fd5b506106ba6111d7565b60405161034c91906140a4565b3480156106d357600080fd5b50610590611200565b3480156106e857600080fd5b506106fc6106f7366004613c5f565b61120f565b60405161034c9291906148ab565b34801561071657600080fd5b5061033f61122b565b34801561072b57600080fd5b5061038a61123a565b34801561074057600080fd5b5061038a611240565b34801561075557600080fd5b50610328610764366004613e1f565b611246565b34801561077557600080fd5b5061038a6112ea565b34801561078a57600080fd5b50610328610799366004613ccf565b6112f2565b3480156107aa57600080fd5b5061038a611584565b3480156107bf57600080fd5b5061038a6107ce366004613c5f565b61158a565b3480156107df57600080fd5b5061038a6107ee366004613c5f565b61168e565b3480156107ff57600080fd5b5061038a61080e366004613c5f565b61172b565b34801561081f57600080fd5b5061033f611828565b34801561083457600080fd5b50610848610843366004613c5f565b611837565b60405161034c929190614894565b34801561086257600080fd5b50610328610871366004613e55565b611859565b34801561088257600080fd5b50610328610891366004613c97565b611919565b6000546001600160a01b031633146108c95760405162461bcd60e51b81526004016108c09061429c565b60405180910390fd5b565b6000828201838110156108f05760405162461bcd60e51b81526004016108c0906141ac565b90505b92915050565b6000600460009054906101000a90046001600160a01b03166001600160a01b031663e9fc34616040518163ffffffff1660e01b815260040160206040518083038186803b15801561094957600080fd5b505afa15801561095d573d6000803e3d6000fd5b505050506040513d601f19601f820116820180604052508101906109819190613c7b565b9050600061098f8330611b5f565b60065460405163095ea7b360e01b81529192506001600160a01b03169063095ea7b3906109c29085908590600401614023565b602060405180830381600087803b1580156109dc57600080fd5b505af11580156109f0573d6000803e3d6000fd5b505050506040513d601f19601f82011682018060405250810190610a149190613d77565b610a305760405162461bcd60e51b81526004016108c090614633565b60065460405163438b1b4b60e01b81526001600160a01b038481169263438b1b4b92610a6692909116908590339060040161405d565b602060405180830381600087803b158015610a8057600080fd5b505af1158015610a94573d6000803e3d6000fd5b505050506040513d601f19601f82011682018060405250810190610ab89190613de3565b507f2b0fbec1c4e7e30517f196a714775ffe72770d2348f5d586854bb3c0fdf41df8338483604051610aec9392919061403c565b60405180910390a1505050565b7f000000000000000000000000000000000000000000000000000000000000000081565b610b25611194565b6001600160a01b0316336001600160a01b031614610b555760405162461bcd60e51b81526004016108c090614561565b610b5e81611d2a565b50565b60095490565b600f602052600090815260409020805460018201546002830154600390930154919290916001600160801b0380821691600160801b90041685565b6809c2007651b250000081565b610bb7611194565b6001600160a01b0316336001600160a01b031614610be75760405162461bcd60e51b81526004016108c090614561565b610bf081611db5565b600880546001600160a01b0319166001600160a01b0383161790556040517f3055265812fb8447b9ada4a5d804ec43bd528ec40e89c952bbc7b85dc5ac681190610c3b908390613f87565b60405180910390a150565b601260209081526000928352604080842090915290825290205481565b610c6d8133611b5f565b5050565b610c79611dfa565b600a54801580610c87575082155b15610c925750610c6d565b600854610ca7906001600160a01b0316611e24565b600080610cb5848685611eb1565b91509150610cc38282611faa565b610ccd84866122ab565b5050505050565b6001600160a01b0381166000908152600b602052604081205480610cfc576000915050610d77565b610d04613bb4565b506001600160a01b0383166000908152600c60209081526040808320815160a08101835281548152600182015493810193909352600281015491830191909152600301546001600160801b038082166060840152600160801b90910416608082015290610d7183836123e1565b93505050505b919050565b6001546001600160a01b031681565b6005546001600160a01b031681565b6001600160a01b0381166000908152600b602052604081205480610dc2576000915050610d77565b610dca613bb4565b506001600160a01b0383166000908152600c60209081526040808320815160a08101835281548152600182015493810193909352600281015491830191909152600301546001600160801b038082166060840152600160801b90910416608082015290610d7183836124d2565b610e40336125ce565b610e493361260a565b610e5281612641565b336000818152600d6020526040908190208381556001908101805460ff19169091179055517f19bc932fb9e16a8b5a1e41be9f4c2de59d5ddd7567b8b81405f532ca00a9880e90610ea490849061488b565b60405180910390a250565b600e6020526000908152604090205481565b610c6d8282612669565b60145481565b670de0b6b3a764000081565b6002546001600160a01b031681565b6801158e460913d0000081565b601154600160801b90046001600160801b031681565b6004546001600160a01b031681565b60008054604080516272c7d360e71b8152905183926001600160a01b031691633963e980916004808301926020929190829003018186803b158015610f6257600080fd5b505afa158015610f76573d6000803e3d6000fd5b505050506040513d601f19601f82011682018060405250810190610f9a9190613de3565b90506000600160009054906101000a90046001600160a01b03166001600160a01b0316633963e9806040518163ffffffff1660e01b815260040160206040518083038186803b158015610fec57600080fd5b505afa158015611000573d6000803e3d6000fd5b505050506040513d601f19601f820116820180604052508101906110249190613de3565b9050611036828263ffffffff6108cb16565b9250505090565b6001600160a01b03811660009081526017602052604081206108f39061280c565b6000546001600160a01b031681565b601360209081526000928352604080842090915290825290205481565b600c602052600090815260409020805460018201546002830154600390930154919290916001600160801b0380821691600160801b90041685565b6000805460408051630a7b61df60e11b8152905183926001600160a01b0316916314f6c3be916004808301926020929190829003018186803b15801561110a57600080fd5b505afa15801561111e573d6000803e3d6000fd5b505050506040513d601f19601f820116820180604052508101906111429190613de3565b90506000600160009054906101000a90046001600160a01b03166001600160a01b03166314f6c3be6040518163ffffffff1660e01b815260040160206040518083038186803b158015610fec57600080fd5b6000806040516111a390613f6a565b6040519081900390205492915050565b60105481565b6008546001600160a01b031681565b6003546001600160a01b031681565b6040518060400160405280600d81526020016c14dd18589a5b1a5d1e541bdbdb609a1b81525081565b6011546001600160801b031681565b600d602052600090815260409020805460019091015460ff1682565b6007546001600160a01b031681565b60165481565b600a5490565b600480546040805163e9fc346160e01b815290516000936112d8936001600160a01b03169263e9fc34619281830192602092829003018186803b15801561128c57600080fd5b505afa1580156112a0573d6000803e3d6000fd5b505050506040513d601f19601f820116820180604052508101906112c49190613c7b565b60065485906001600160a01b031685612810565b90506112e5816000612669565b505050565b633b9aca0081565b6112fa611194565b6001600160a01b0316336001600160a01b03161461132a5760405162461bcd60e51b81526004016108c090614561565b61133388611db5565b61133c87611db5565b61134586611db5565b61134e85611db5565b61135784611db5565b61136083611db5565b61136982611db5565b61137281611db5565b670de0b6b3a7640000601055600380546001600160a01b03199081166001600160a01b038b8116919091179092556004805482168a8416179055600580548216898416179055600080548216888416179055600680548216878416179055600780548216868416179055600280548216858416179055600880549091169183169190911790556040517f3ca631ffcd2a9b5d9ae18543fc82f58eb4ca33af9e6ab01b7a8e95331e6ed98590611428908990613f87565b60405180910390a17f143219c9e69b09e07e095fcc889b43d8f46ca892bba65f08dc3a0050869a56788660405161145f9190613f87565b60405180910390a17f78f058b189175430c48dc02699e3a0031ea4ff781536dc2fab847de4babdd882856040516114969190613f87565b60405180910390a17fcdf33850c44a1a874b5fefb51dae615ac6afebd581ef90d571f81b06541d8e9d846040516114cd9190613f87565b60405180910390a17f65f4cf077bc01e4742eb5ad98326f6e95b63548ea24b17f8d5e823111fe78800836040516115049190613f87565b60405180910390a17f8c537274438aa850a330284665d81a85dd38267d09e4050d416bfc94142db2648260405161153b9190613f87565b60405180910390a17f3055265812fb8447b9ada4a5d804ec43bd528ec40e89c952bbc7b85dc5ac6811816040516115729190613f87565b60405180910390a15050505050505050565b60155481565b6001600160a01b0381166000908152600e6020526040812054806115b2576000915050610d77565b6001600160a01b0383166000908152600d6020526040812054906115e4670de0b6b3a76400008363ffffffff612ab516565b90506115ee613bb4565b506001600160a01b0385166000908152600f60209081526040808320815160a08101835281548152600182015493810193909352600281015491830191909152600301546001600160801b038082166060840152600160801b90910416608082015290611683670de0b6b3a764000061167761166a8886612af7565b869063ffffffff612b8316565b9063ffffffff612bbd16565b979650505050505050565b6001600160a01b0381166000908152600e6020526040812054806116b6576000915050610d77565b6116be613bb4565b506001600160a01b0383166000908152600f60209081526040808320815160a08101835281548152600182015493810193909352600281015491830191909152600301546001600160801b038082166060840152600160801b90910416608082015290610d7183836124d2565b6001600160a01b0381166000908152600b602052604081205480611753576000915050610d77565b6001600160a01b038084166000908152600b6020526040812060010154909116908115611798576001600160a01b0382166000908152600d60205260409020546117a2565b670de0b6b3a76400005b90506117ac613bb4565b506001600160a01b0385166000908152600c60209081526040808320815160a08101835281548152600182015493810193909352600281015491830191909152600301546001600160801b038082166060840152600160801b90910416608082015290611683670de0b6b3a764000061167761166a8886612af7565b6006546001600160a01b031681565b600b60205260009081526040902080546001909101546001600160a01b031682565b600480546040805163e9fc346160e01b8152905160009361190c936001600160a01b03169263e9fc34619281830192602092829003018186803b15801561189f57600080fd5b505afa1580156118b3573d6000803e3d6000fd5b505050506040513d601f19601f820116820180604052508101906118d79190613c7b565b6006546001600160a01b0316867f00000000000000000000000000000000000000000000000000000000000000008787612bff565b9050610ccd816000612669565b336000908152600b602052604090205461193281612e4c565b61193b33612e6c565b61194433612f0b565b6008546001600160a01b031661195981611e24565b600061196433610cd4565b9050600061197133610d9a565b90506000611985858363ffffffff612ab516565b336000818152600b60205260409020600101549192506001600160a01b03909116906119b390869083612f38565b60006119be8261168e565b9050806119cb83826130ad565b826001600160a01b03166000805160206149a683398151915282336040516119f4929190614894565b60405180910390a2611a0633866131f5565b336001600160a01b03166000805160206149868339815191528786604051611a2f929190614080565b60405180910390a2336001600160a01b031660008051602061496683398151915286604051611a5e919061488b565b60405180910390a2600954611a79908763ffffffff612ab516565b600981905560405160008051602061494683398151915291611a9a9161488b565b60405180910390a17f6109e2559dfa766aaec7118351d48a523f0a4157f49c8d68749c8ac41318ad123387604051611ad3929190614023565b60405180910390a1600460009054906101000a90046001600160a01b03166001600160a01b031663ea9638bf87338d8d6040518563ffffffff1660e01b8152600401611b2193929190613f9b565b6000604051808303818588803b158015611b3a57600080fd5b505af1158015611b4e573d6000803e3d6000fd5b505050505050505050505050505050565b60006001600160a01b038216611b875760405162461bcd60e51b81526004016108c090614478565b8215611b9557611b9561336a565b336000908152600b6020526040902054611bae81612e4c565b6008546001600160a01b0316611bc381611e24565b6000611bce33610cd4565b90506000611bdb33610d9a565b90506000611be988836135a1565b90506000611bfd868463ffffffff612ab516565b336000818152600b60205260409020600101549192506001600160a01b0390911690611c2b90879083612f38565b6000611c368261168e565b90506000611c4a828663ffffffff612ab516565b9050611c5683826130ad565b826001600160a01b03166000805160206149a68339815191528233604051611c7f929190614894565b60405180910390a2611c918b866135b7565b6000611ca3878763ffffffff612ab516565b9050611caf33826131f5565b336001600160a01b031660008051602061496683398151915282604051611cd6919061488b565b60405180910390a2336001600160a01b03166000805160206149868339815191528987604051611d07929190614080565b60405180910390a2611d198833613630565b50939b9a5050505050505050505050565b6001600160a01b038116611d505760405162461bcd60e51b81526004016108c0906142e3565b806001600160a01b0316611d62611194565b6001600160a01b03167f8be0079c531659141344cd1fd0a4f28419497f9722a3daafe3b4186f6b6457e060405160405180910390a36000604051611da590613f6a565b6040519081900390209190915550565b6001600160a01b038116611ddb5760405162461bcd60e51b81526004016108c090614325565b803b80610c6d5760405162461bcd60e51b81526004016108c09061468a565b6005546001600160a01b031633146108c95760405162461bcd60e51b81526004016108c0906143ad565b600a54604051636cbdcf4760e01b81526000916001600160a01b03841691636cbdcf4791611e549160040161488b565b602060405180830381600087803b158015611e6e57600080fd5b505af1158015611e82573d6000803e3d6000fd5b505050506040513d601f19601f82011682018060405250810190611ea69190613de3565b9050610c6d8161375f565b6000806000611ee3601554611ed7670de0b6b3a764000089612b8390919063ffffffff16565b9063ffffffff6108cb16565b905083851115611eef57fe5b83851415611f0c576000601655670de0b6b3a76400009150611f6c565b601654600090611f3a90611f2e88670de0b6b3a764000063ffffffff612b8316565b9063ffffffff612ab516565b9050611f516001611ed7838863ffffffff612bbd16565b9250611f6781611f2e858863ffffffff612b8316565b601655505b611f7c818563ffffffff612bbd16565b9250611f9e611f91848663ffffffff612b8316565b829063ffffffff612ab516565b60155550935093915050565b6010546000670de0b6b3a7640000831115611fc157fe5b6000611fdb670de0b6b3a76400008563ffffffff612ab516565b6011546001600160801b03600160801b82048116600081815260126020908152604080832094909516808352939052928320549394509092909161201f8988612b83565b90506000612033838363ffffffff6108cb16565b6001600160801b038086166000908152601260209081526040808320938a168352929052819020829055519091507fe12e2cd2c9afa8069203ca07e7eff1edce4a075686d0736a8e7e0d593597b20790612092908390879089906148bb565b60405180910390a18561216b576120b96001600160801b038516600163ffffffff61387016565b601180546001600160801b03908116600160801b938216840217918290556040517fb50f0f59e7cb5b421dc77581c3a9919e3806e076e5fa78a874c3f120cb7d874d9361210a930490911690614877565b60405180910390a1601180546001600160801b03191690556040517f1f9dfc70cd666adb18a39d60a797518f7b4febf4b6e24ef37d44f6e1e7219fbe9061215390600090614877565b60405180910390a1670de0b6b3a76400009650612258565b633b9aca0061218c670de0b6b3a76400006116778b8a63ffffffff612b8316565b1015612239576121c2670de0b6b3a7640000611677633b9aca006121b68c8b63ffffffff612b8316565b9063ffffffff612b8316565b96506121de6001600160801b038616600163ffffffff61387016565b601180546001600160801b0319166001600160801b0392831617908190556040517f1f9dfc70cd666adb18a39d60a797518f7b4febf4b6e24ef37d44f6e1e7219fbe9261222c921690614877565b60405180910390a1612258565b612255670de0b6b3a76400006116778a8963ffffffff612b8316565b96505b6000871161226257fe5b60108790556040517fc1a9618cb59ebca77cbdbc2949f126823c407ff13edb285fd0262519a9c18e8c9061229790899061488b565b60405180910390a150505050505050505050565b60005460405163121cbc4d60e11b81526001600160a01b03909116908190632439789a906122dd90859060040161488b565b600060405180830381600087803b1580156122f757600080fd5b505af115801561230b573d6000803e3d6000fd5b50505050612318826138a1565b600654604051632770a7eb60e21b81526001600160a01b0390911690639dc29fac9061234a9030908690600401614023565b600060405180830381600087803b15801561236457600080fd5b505af1158015612378573d6000803e3d6000fd5b50506040516364a197f360e01b81526001600160a01b03841692506364a197f391506123aa9030908790600401614023565b600060405180830381600087803b1580156123c457600080fd5b505af11580156123d8573d6000803e3d6000fd5b50505050505050565b6080810151606082015182516020808501516001600160801b0380861660009081526012845260408082209287168252919093528220549194939291859061242f908463ffffffff612ab516565b6001600160801b0380871660009081526012602052604081209293509161249291633b9aca009190849061246c908a16600163ffffffff61387016565b6001600160801b031681526020810191909152604001600020549063ffffffff612bbd16565b905060006124c4670de0b6b3a764000061167786816124b7888863ffffffff6108cb16565b8f9063ffffffff612b8316565b9a9950505050505050505050565b6020810151606082015160808301516011546000939291906001600160801b03600160801b9091048116908216101561251157600093505050506108f3565b6011546000908190612532906001600160801b03168563ffffffff6138fb16565b90506001600160801b0381166125625761255b856116776010548b612b8390919063ffffffff16565b915061259a565b806001600160801b0316600114156125955761255b633b9aca00611677876116776010548d612b8390919063ffffffff16565b600091505b6125ae88633b9aca0063ffffffff612bbd16565b8210156125c3576000955050505050506108f3565b509695505050505050565b6001600160a01b0381166000908152600d602052604090206001015460ff1615610b5e5760405162461bcd60e51b81526004016108c090614592565b6001600160a01b0381166000908152600b60205260409020548015610c6d5760405162461bcd60e51b81526004016108c0906145eb565b670de0b6b3a7640000811115610b5e5760405162461bcd60e51b81526004016108c0906144c8565b61267281613935565b61267b336125ce565b61268482613982565b336000908152600b60205260409020546008546001600160a01b03166126a981611e24565b816126b8576126b833846139a2565b60006126c333610cd4565b905060006126d033610d9a565b905060006126e4858363ffffffff612ab516565b336000818152600b60205260409020600101549192506001600160a01b039091169061271290869083612f38565b600061271d8261168e565b90506000612731828b63ffffffff6108cb16565b905061273d83826130ad565b826001600160a01b03166000805160206149a68339815191528233604051612766929190614894565b60405180910390a2612778338b6139fc565b600061278a868c63ffffffff6108cb16565b905061279633826131f5565b336001600160a01b0316600080516020614966833981519152826040516127bd919061488b565b60405180910390a2336001600160a01b031660008051602061498683398151915288876040516127ee929190614080565b60405180910390a26127ff87613ab0565b5050505050505050505050565b5490565b600080856001600160a01b03166321df0da76040518163ffffffff1660e01b815260040160206040518083038186803b15801561284c57600080fd5b505afa158015612860573d6000803e3d6000fd5b505050506040513d601f19601f820116820180604052508101906128849190613c7b565b90506000816001600160a01b03166370a08231306040518263ffffffff1660e01b81526004016128b49190613f87565b60206040518083038186803b1580156128cc57600080fd5b505afa1580156128e0573d6000803e3d6000fd5b505050506040513d601f19601f820116820180604052508101906129049190613de3565b9050306001600160a01b03831663605629d633838a893561292b60408c0160208d01613f2e565b8b604001358c606001356040518863ffffffff1660e01b81526004016129579796959493929190613fe2565b600060405180830381600087803b15801561297157600080fd5b505af1158015612985573d6000803e3d6000fd5b5050505086612a0a83856001600160a01b03166370a08231856040518263ffffffff1660e01b81526004016129ba9190613f87565b60206040518083038186803b1580156129d257600080fd5b505afa1580156129e6573d6000803e3d6000fd5b505050506040513d601f19601f82011682018060405250810190611f2e9190613de3565b14612a275760405162461bcd60e51b81526004016108c090614163565b60405163fb2c922360e01b81526001600160a01b0389169063fb2c922390612a579089908b90339060040161405d565b602060405180830381600087803b158015612a7157600080fd5b505af1158015612a85573d6000803e3d6000fd5b505050506040513d601f19601f82011682018060405250810190612aa99190613de3565b98975050505050505050565b60006108f083836040518060400160405280601e81526020017f536166654d6174683a207375627472616374696f6e206f766572666c6f770000815250613aba565b608081015160608201516040808401516020808601516001600160801b03808716600090815260138452858120918716815292529281205490949392908590612b46908463ffffffff612ab516565b6001600160801b0380871660009081526013602052604081209293509161249291633b9aca009190849061246c908a16600163ffffffff61387016565b600082612b92575060006108f3565b82820282848281612b9f57fe5b04146108f05760405162461bcd60e51b81526004016108c090614437565b60006108f083836040518060400160405280601a81526020017f536166654d6174683a206469766973696f6e206279207a65726f000000000000815250613ae6565b600080876001600160a01b03166321df0da76040518163ffffffff1660e01b815260040160206040518083038186803b158015612c3b57600080fd5b505afa158015612c4f573d6000803e3d6000fd5b505050506040513d601f19601f82011682018060405250810190612c739190613c7b565b90506000816001600160a01b03166370a08231306040518263ffffffff1660e01b8152600401612ca39190613f87565b60206040518083038186803b158015612cbb57600080fd5b505afa158015612ccf573d6000803e3d6000fd5b505050506040513d601f19601f82011682018060405250810190612cf39190613de3565b87516020015190915030906001600160a01b0388166330f28b7a8a612d188585613b1d565b338b8b6040518663ffffffff1660e01b8152600401612d3b959493929190614806565b600060405180830381600087803b158015612d5557600080fd5b505af1158015612d69573d6000803e3d6000fd5b5050505080612d9e84866001600160a01b03166370a08231866040518263ffffffff1660e01b81526004016129ba9190613f87565b14612dbb5760405162461bcd60e51b81526004016108c090614163565b60405163fb2c922360e01b81526001600160a01b038c169063fb2c922390612deb908d908590339060040161405d565b602060405180830381600087803b158015612e0557600080fd5b505af1158015612e19573d6000803e3d6000fd5b505050506040513d601f19601f82011682018060405250810190612e3d9190613de3565b9b9a5050505050505050505050565b60008111610b5e5760405162461bcd60e51b81526004016108c0906146bf565b6005546040516321e3780160e01b81526001600160a01b03909116906321e3780190612e9c908490600401613f87565b60206040518083038186803b158015612eb457600080fd5b505afa158015612ec8573d6000803e3d6000fd5b505050506040513d601f19601f82011682018060405250810190612eec9190613de3565b600114610b5e5760405162461bcd60e51b81526004016108c0906140f7565b6000612f1682610cd4565b905060008111610c6d5760405162461bcd60e51b81526004016108c09061435c565b6001600160a01b03811615612ff8576000612f528261158a565b604051633e30771b60e21b81529091506001600160a01b0385169063f8c1dc6c90612f839085908590600401614023565b600060405180830381600087803b158015612f9d57600080fd5b505af1158015612fb1573d6000803e3d6000fd5b50505050816001600160a01b03167f732e331072fe280a520929e5f2cc76c223389ff57d32a4e278cfded03e6f1caa82604051612fee919061488b565b60405180910390a2505b60006130038361172b565b604051633e30771b60e21b81529091506001600160a01b0385169063f8c1dc6c906130349086908590600401614023565b600060405180830381600087803b15801561304e57600080fd5b505af1158015613062573d6000803e3d6000fd5b50505050826001600160a01b03167fe9ac2dcd83e719358f1dc0c5c80491937f67d4ec61ef62c262bbe3b78578f92a8260405161309f919061488b565b60405180910390a250505050565b6001600160a01b0382166000908152600e6020526040902081905580613138576001600160a01b0382166000818152600f60205260408082208281556001810183905560028101839055600301829055517fbb1322f85cc7cc8bac4e172a5bc5dcc0c1959007f9a030032abf9258205f0e459161312b918190614080565b60405180910390a2610c6d565b6011546010546001600160801b03600160801b80840482166000818152601360209081526040808320978616808452978252808320546001600160a01b038b16808552600f90935292819020600181018890556002810184905560030180546001600160801b0319168917909616948402949094179094559151909392907fbb1322f85cc7cc8bac4e172a5bc5dcc0c1959007f9a030032abf9258205f0e45906131e59085908590614080565b60405180910390a2505050505050565b6001600160a01b0382166000908152600b6020526040902081905580613293576001600160a01b0382166000818152600b60209081526040808320600190810180546001600160a01b0319169055600c909252808320838155918201839055600282018390556003909101829055517f2d6cc0bcdf72c9486f6451bde6b80f44066f4558f77f44dbfedbe7d8b295225a9161312b918190819061408e565b6011546010546001600160801b03600160801b8084048216600081815260126020908152604080832097861680845297825280832054848452601383528184208985528352818420546001600160a01b038c16808652600c90945293829020600181018990558181556002810185905560030180546001600160801b0319168a1790971695850295909517909555935191949390917f2d6cc0bcdf72c9486f6451bde6b80f44066f4558f77f44dbfedbe7d8b295225a906133599086908690869061408e565b60405180910390a250505050505050565b60025460408051630fdb11cf60e01b815290516000926001600160a01b031691630fdb11cf91600480830192602092919082900301818787803b1580156133b057600080fd5b505af11580156133c4573d6000803e3d6000fd5b505050506040513d601f19601f820116820180604052508101906133e89190613de3565b90506000600760009054906101000a90046001600160a01b03166001600160a01b0316634d6228316040518163ffffffff1660e01b815260040160206040518083038186803b15801561343a57600080fd5b505afa15801561344e573d6000803e3d6000fd5b505050506040513d601f19601f820116820180604052508101906134729190613c7b565b600554604051630d293c7160e41b81529192506000916001600160a01b039091169063d293c710906134aa9085908790600401614023565b60206040518083038186803b1580156134c257600080fd5b505afa1580156134d6573d6000803e3d6000fd5b505050506040513d601f19601f820116820180604052508101906134fa9190613de3565b9050600360009054906101000a90046001600160a01b03166001600160a01b031663794e57246040518163ffffffff1660e01b815260040160206040518083038186803b15801561354a57600080fd5b505afa15801561355e573d6000803e3d6000fd5b505050506040513d601f19601f820116820180604052508101906135829190613de3565b8110156112e55760405162461bcd60e51b81526004016108c09061479c565b60008183106135b057816108f0565b5090919050565b806135c157610c6d565b600654604051631062c15f60e11b81526001600160a01b03909116906320c582be906135f590309086908690600401613fbe565b600060405180830381600087803b15801561360f57600080fd5b505af1158015613623573d6000803e3d6000fd5b50505050610c6d816138a1565b6001600160a01b0381166136565760405162461bcd60e51b81526004016108c0906141e3565b8161366057610c6d565b600954600090613676908463ffffffff612ab516565b9050806009819055506000805160206149468339815191528160405161369c919061488b565b60405180910390a17f6109e2559dfa766aaec7118351d48a523f0a4157f49c8d68749c8ac41318ad1233846040516136d5929190614023565b60405180910390a16000336001600160a01b0316846040516136f690613f67565b60006040518083038185875af1925050503d8060008114613733576040519150601f19603f3d011682016040523d82523d6000602084013e613738565b606091505b50509050806137595760405162461bcd60e51b81526004016108c0906143f6565b50505050565b600a5480158061376d575081155b156137785750610b5e565b60006137848383613b4f565b9050600061379d60105483612b8390919063ffffffff16565b6011546001600160801b03600160801b8204811660009081526013602090815260408083209390941682529190915220549091506137e1908263ffffffff6108cb16565b601180546001600160801b03600160801b80830482166000908152601360208181526040808420968616845295815285832097909755945491820483168082529486528381209190921680835294528190205490517f2d6127771b164a9cc8827d24b5955db2a77e7a81dac389107ebb8bce9fb649689361386293916148bb565b60405180910390a150505050565b60008282016001600160801b0380851690821610156108f05760405162461bcd60e51b81526004016108c090614757565b600a546000906138b7908363ffffffff612ab516565b905080600a819055507ff3c69a10dcea5d744225cbe910fb39d6f8208bb8e21fff523d6756a7966093c7816040516138ef919061488b565b60405180910390a15050565b6000826001600160801b0316826001600160801b0316111561392f5760405162461bcd60e51b81526004016108c09061470f565b50900390565b6001600160a01b0381166000908152600d602052604090206001015460ff168061396657506001600160a01b038116155b610b5e5760405162461bcd60e51b81526004016108c090614230565b60008111610b5e5760405162461bcd60e51b81526004016108c09061451b565b6001600160a01b038281166000818152600b602052604080822060010180546001600160a01b0319169486169485179055517f094c08e96a8890877a8390b4f967180a7507ad8622244d05fcd0f9f8e086564e9190a35050565b600654604051632ee65eeb60e21b81526001600160a01b039091169063bb997bac90613a3090859030908690600401613fbe565b600060405180830381600087803b158015613a4a57600080fd5b505af1158015613a5e573d6000803e3d6000fd5b5050600a5460009250613a7891508363ffffffff6108cb16565b905080600a819055507ff3c69a10dcea5d744225cbe910fb39d6f8208bb8e21fff523d6756a7966093c781604051610aec919061488b565b610b5e8133613630565b60008184841115613ade5760405162461bcd60e51b81526004016108c091906140a4565b505050900390565b60008183613b075760405162461bcd60e51b81526004016108c091906140a4565b506000838581613b1357fe5b0495945050505050565b613b25613bf5565b613b2d613bf5565b5050604080518082019091526001600160a01b03929092168252602082015290565b600080613b73601454611ed7670de0b6b3a764000087612b8390919063ffffffff16565b90506000613b87828563ffffffff612bbd16565b9050613ba9613b9c828663ffffffff612b8316565b839063ffffffff612ab516565b601455949350505050565b6040518060a0016040528060008152602001600081526020016000815260200160006001600160801b0316815260200160006001600160801b031681525090565b604080518082019091526000808252602082015290565b600060408284031215613c1d578081fd5b613c276040614909565b90508135613c3481614930565b808252506020820135602082015292915050565b80356001600160801b03811681146108f357600080fd5b600060208284031215613c70578081fd5b81356108f081614930565b600060208284031215613c8c578081fd5b81516108f081614930565b60008060408385031215613ca9578081fd5b8235613cb481614930565b91506020830135613cc481614930565b809150509250929050565b600080600080600080600080610100898b031215613ceb578384fd5b8835613cf681614930565b97506020890135613d0681614930565b96506040890135613d1681614930565b95506060890135613d2681614930565b94506080890135613d3681614930565b935060a0890135613d4681614930565b925060c0890135613d5681614930565b915060e0890135613d6681614930565b809150509295985092959890939650565b600060208284031215613d88578081fd5b815180151581146108f0578182fd5b60008060408385031215613da9578182fd5b613db38484613c48565b9150613dc28460208501613c48565b90509250929050565b600060208284031215613ddc578081fd5b5035919050565b600060208284031215613df4578081fd5b5051919050565b60008060408385031215613e0d578182fd5b823591506020830135613cc481614930565b60008082840360a0811215613e32578283fd5b833592506080601f1982011215613e47578182fd5b506020830190509250929050565b60008060008084860360c0811215613e6b578485fd5b853594506080601f1982011215613e80578384fd5b50613e8b6060614909565b613e988760208801613c0c565b81526060860135602082015260808601356040820152925060a085013567ffffffffffffffff80821115613eca578384fd5b81870188601f820112613edb578485fd5b8035925081831115613eeb578485fd5b886020848301011115613efc578485fd5b959894975050602090940194505050565b60008060408385031215613f1f578182fd5b50508035926020909101359150565b600060208284031215613f3f578081fd5b813560ff811681146108f0578182fd5b80516001600160a01b03168252602090810151910152565b90565b7035b2bc9737bbb730b136329737bbb732b960791b815260110190565b6001600160a01b0391909116815260200190565b6001600160a01b0393841681529183166020830152909116604082015260600190565b6001600160a01b039384168152919092166020820152604081019190915260600190565b6001600160a01b0397881681529590961660208601526040850193909352606084019190915260ff16608083015260a082015260c081019190915260e00190565b6001600160a01b03929092168252602082015260400190565b6001600160a01b039390931683526020830191909152604082015260600190565b6001600160a01b0393841681526020810192909252909116604082015260600190565b918252602082015260400190565b9283526020830191909152604082015260600190565b6000602080835283518082850152825b818110156140d0578581018301518582016040015282016140b4565b818111156140e15783604083870101525b50601f01601f1916929092016040019392505050565b60208082526046908201527f53746162696c697479506f6f6c3a2063616c6c6572206d75737420686176652060408201527f616e206163746976652074726f766520746f207769746864726177204554484760608201526561696e20746f60d01b608082015260a00190565b60208082526029908201527f444c4c52207472616e7366657272656420616d6f756e742076616c69646174696040820152681bdb8819985a5b195960ba1b606082015260800190565b6020808252601b908201527f536166654d6174683a206164646974696f6e206f766572666c6f770000000000604082015260600190565b6020808252602d908201527f53503a3a5f73656e644554484761696e546f3a205f726563656976657220697360408201526c207a65726f206164647265737360981b606082015260800190565b60208082526046908201527f53746162696c697479506f6f6c3a20546167206d75737420626520612072656760408201527f697374657265642066726f6e7420656e642c206f7220746865207a65726f206160608201526564647265737360d01b608082015260a00190565b60208082526027908201527f53746162696c697479506f6f6c3a2043616c6c6572206973206e6f74204163746040820152661a5d99541bdbdb60ca1b606082015260800190565b60208082526022908201527f4f776e61626c653a3a7365744f776e65723a20696e76616c6964206164647265604082015261737360f01b606082015260800190565b6020808252601e908201527f4163636f756e742063616e6e6f74206265207a65726f20616464726573730000604082015260600190565b60208082526031908201527f53746162696c697479506f6f6c3a2063616c6c6572206d7573742068617665206040820152703737b716bd32b9379022aa241023b0b4b760791b606082015260800190565b60208082526029908201527f53746162696c697479506f6f6c3a2043616c6c6572206973206e6f742054726f6040820152683b32a6b0b730b3b2b960b91b606082015260800190565b60208082526021908201527f53746162696c697479506f6f6c3a2073656e64696e6720455448206661696c656040820152601960fa1b606082015260800190565b60208082526021908201527f536166654d6174683a206d756c7469706c69636174696f6e206f766572666c6f6040820152607760f81b606082015260800190565b60208082526030908201527f53503a3a5f776974686472617746726f6d5370546f3a205f726563656976657260408201526f206973207a65726f206164647265737360801b606082015260800190565b60208082526033908201527f53746162696c697479506f6f6c3a204b69636b6261636b2072617465206d75736040820152727420626520696e2072616e6765205b302c315d60681b606082015260800190565b60208082526026908201527f53746162696c697479506f6f6c3a20416d6f756e74206d757374206265206e6f6040820152656e2d7a65726f60d01b606082015260800190565b60208082526017908201527613dddb98589b194e8e881858d8d95cdcc819195b9a5959604a1b604082015260600190565b60208082526039908201527f53746162696c697479506f6f6c3a206d757374206e6f7420616c72656164792060408201527818994818481c9959da5cdd195c995908199c9bdb9d08195b99603a1b606082015260800190565b60208082526028908201527f53746162696c697479506f6f6c3a2055736572206d7573742068617665206e6f6040820152670819195c1bdcda5d60c21b606082015260800190565b60208082526037908201527f4661696c656420746f20617070726f7665205a55534420616d6f756e7420666f60408201527672204d796e74206d417373657420746f2072656465656d60481b606082015260800190565b6020808252818101527f4163636f756e7420636f64652073697a652063616e6e6f74206265207a65726f604082015260600190565b60208082526030908201527f53746162696c697479506f6f6c3a2055736572206d757374206861766520612060408201526f1b9bdb8b5e995c9bc819195c1bdcda5d60821b606082015260800190565b60208082526028908201527f4c697175697479536166654d6174683132383a207375627472616374696f6e206040820152676f766572666c6f7760c01b606082015260800190565b60208082526025908201527f4c697175697479536166654d6174683132383a206164646974696f6e206f766560408201526472666c6f7760d81b606082015260800190565b60208082526044908201527f53746162696c697479506f6f6c3a2043616e6e6f74207769746864726177207760408201527f68696c65207468657265206172652074726f766573207769746820494352203c6060820152631026a1a960e11b608082015260a00190565b6000610100614816838951613f4f565b60208801516040840152604088015160608401526148376080840188613f4f565b6001600160a01b03861660c084015260e083018190528201839052610120838582850137828401810191909152601f909201601f19160101949350505050565b6001600160801b0391909116815260200190565b90815260200190565b9182526001600160a01b0316602082015260400190565b9182521515602082015260400190565b9283526001600160801b03918216602084015216604082015260600190565b948552602085019390935260408401919091526001600160801b03908116606084015216608082015260a00190565b60405181810167ffffffffffffffff8111828210171561492857600080fd5b604052919050565b6001600160a01b0381168114610b5e57600080fdfeceb6d671277d4354fd29977ada70695fbd93a16612abf765d6b0e25c28dc6db3bce78369dccab09eec1986f4d409ab09ffbb47d65423e5148fcf98411c5111c951457222ebca92c335c9c86e2baa1cc0e40ffaa9084a51452980d5ba8dec2f6399920012339b5a3368d3a04b8606ce412c46ed92b7dcd8602d41fc8862cb8f25a2646970667358221220e2c28d662494a779db61dbbaef5d596ea1ba97fe11bc18ae4ba4c8dbfe97408c64736f6c634300060b0033",
    "implementation": "0x948DfaC8f92A52cCAf872fcBdf44B01d325cF397"
}