{
    "address": "0x51e93f35ab4fcfa610b280fd32696d28c9482aa8",
    "abi": [
        {
            "inputs": [
                {
                    "internalType": "uint256",
                    "name": "_bootstrapPeriod",
                    "type": "uint256"
                },
                {
                    "internalType": "address",
                    "name": "_permit2",
                    "type": "address"
                }
            ],
            "stateMutability": "nonpayable",
            "type": "constructor"
        },
        {
            "anonymous": false,
            "inputs": [
                {
                    "indexed": false,
                    "internalType": "uint256",
                    "name": "_baseRate",
                    "type": "uint256"
                }
            ],
            "name": "BaseRateUpdated",
            "type": "event"
        },
        {
            "anonymous": false,
            "inputs": [
                {
                    "indexed": false,
                    "internalType": "uint256",
                    "name": "_L_ETH",
                    "type": "uint256"
                },
                {
                    "indexed": false,
                    "internalType": "uint256",
                    "name": "_L_ZUSDDebt",
                    "type": "uint256"
                }
            ],
            "name": "LTermsUpdated",
            "type": "event"
        },
        {
            "anonymous": false,
            "inputs": [
                {
                    "indexed": false,
                    "internalType": "uint256",
                    "name": "_lastFeeOpTime",
                    "type": "uint256"
                }
            ],
            "name": "LastFeeOpTimeUpdated",
            "type": "event"
        },
        {
            "anonymous": false,
            "inputs": [
                {
                    "indexed": false,
                    "internalType": "uint256",
                    "name": "_liquidatedDebt",
                    "type": "uint256"
                },
                {
                    "indexed": false,
                    "internalType": "uint256",
                    "name": "_liquidatedColl",
                    "type": "uint256"
                },
                {
                    "indexed": false,
                    "internalType": "uint256",
                    "name": "_collGasCompensation",
                    "type": "uint256"
                },
                {
                    "indexed": false,
                    "internalType": "uint256",
                    "name": "_ZUSDGasCompensation",
                    "type": "uint256"
                }
            ],
            "name": "Liquidation",
            "type": "event"
        },
        {
            "anonymous": false,
            "inputs": [
                {
                    "indexed": true,
                    "internalType": "address",
                    "name": "previousOwner",
                    "type": "address"
                },
                {
                    "indexed": true,
                    "internalType": "address",
                    "name": "newOwner",
                    "type": "address"
                }
            ],
            "name": "OwnershipTransferred",
            "type": "event"
        },
        {
            "anonymous": false,
            "inputs": [
                {
                    "indexed": false,
                    "internalType": "uint256",
                    "name": "_attemptedZUSDAmount",
                    "type": "uint256"
                },
                {
                    "indexed": false,
                    "internalType": "uint256",
                    "name": "_actualZUSDAmount",
                    "type": "uint256"
                },
                {
                    "indexed": false,
                    "internalType": "uint256",
                    "name": "_ETHSent",
                    "type": "uint256"
                },
                {
                    "indexed": false,
                    "internalType": "uint256",
                    "name": "_ETHFee",
                    "type": "uint256"
                }
            ],
            "name": "Redemption",
            "type": "event"
        },
        {
            "anonymous": false,
            "inputs": [
                {
                    "indexed": false,
                    "internalType": "uint256",
                    "name": "_totalStakesSnapshot",
                    "type": "uint256"
                },
                {
                    "indexed": false,
                    "internalType": "uint256",
                    "name": "_totalCollateralSnapshot",
                    "type": "uint256"
                }
            ],
            "name": "SystemSnapshotsUpdated",
            "type": "event"
        },
        {
            "anonymous": false,
            "inputs": [
                {
                    "indexed": false,
                    "internalType": "uint256",
                    "name": "_newTotalStakes",
                    "type": "uint256"
                }
            ],
            "name": "TotalStakesUpdated",
            "type": "event"
        },
        {
            "anonymous": false,
            "inputs": [
                {
                    "indexed": false,
                    "internalType": "address",
                    "name": "_borrower",
                    "type": "address"
                },
                {
                    "indexed": false,
                    "internalType": "uint256",
                    "name": "_newIndex",
                    "type": "uint256"
                }
            ],
            "name": "TroveIndexUpdated",
            "type": "event"
        },
        {
            "anonymous": false,
            "inputs": [
                {
                    "indexed": true,
                    "internalType": "address",
                    "name": "_borrower",
                    "type": "address"
                },
                {
                    "indexed": false,
                    "internalType": "uint256",
                    "name": "_debt",
                    "type": "uint256"
                },
                {
                    "indexed": false,
                    "internalType": "uint256",
                    "name": "_coll",
                    "type": "uint256"
                },
                {
                    "indexed": false,
                    "internalType": "enum TroveManagerBase.TroveManagerOperation",
                    "name": "_operation",
                    "type": "uint8"
                }
            ],
            "name": "TroveLiquidated",
            "type": "event"
        },
        {
            "anonymous": false,
            "inputs": [
                {
                    "indexed": false,
                    "internalType": "uint256",
                    "name": "_L_ETH",
                    "type": "uint256"
                },
                {
                    "indexed": false,
                    "internalType": "uint256",
                    "name": "_L_ZUSDDebt",
                    "type": "uint256"
                }
            ],
            "name": "TroveSnapshotsUpdated",
            "type": "event"
        },
        {
            "anonymous": false,
            "inputs": [
                {
                    "indexed": true,
                    "internalType": "address",
                    "name": "_borrower",
                    "type": "address"
                },
                {
                    "indexed": false,
                    "internalType": "uint256",
                    "name": "_debt",
                    "type": "uint256"
                },
                {
                    "indexed": false,
                    "internalType": "uint256",
                    "name": "_coll",
                    "type": "uint256"
                },
                {
                    "indexed": false,
                    "internalType": "uint256",
                    "name": "_stake",
                    "type": "uint256"
                },
                {
                    "indexed": false,
                    "internalType": "enum TroveManagerBase.TroveManagerOperation",
                    "name": "_operation",
                    "type": "uint8"
                }
            ],
            "name": "TroveUpdated",
            "type": "event"
        },
        {
            "inputs": [],
            "name": "BETA",
            "outputs": [
                {
                    "internalType": "uint256",
                    "name": "",
                    "type": "uint256"
                }
            ],
            "stateMutability": "view",
            "type": "function"
        },
        {
            "inputs": [],
            "name": "BOOTSTRAP_PERIOD",
            "outputs": [
                {
                    "internalType": "uint256",
                    "name": "",
                    "type": "uint256"
                }
            ],
            "stateMutability": "view",
            "type": "function"
        },
        {
            "inputs": [],
            "name": "DECIMAL_PRECISION",
            "outputs": [
                {
                    "internalType": "uint256",
                    "name": "",
                    "type": "uint256"
                }
            ],
            "stateMutability": "view",
            "type": "function"
        },
        {
            "inputs": [],
            "name": "L_ETH",
            "outputs": [
                {
                    "internalType": "uint256",
                    "name": "",
                    "type": "uint256"
                }
            ],
            "stateMutability": "view",
            "type": "function"
        },
        {
            "inputs": [],
            "name": "L_ZUSDDebt",
            "outputs": [
                {
                    "internalType": "uint256",
                    "name": "",
                    "type": "uint256"
                }
            ],
            "stateMutability": "view",
            "type": "function"
        },
        {
            "inputs": [],
            "name": "MINUTE_DECAY_FACTOR",
            "outputs": [
                {
                    "internalType": "uint256",
                    "name": "",
                    "type": "uint256"
                }
            ],
            "stateMutability": "view",
            "type": "function"
        },
        {
            "inputs": [],
            "name": "MIN_NET_DEBT",
            "outputs": [
                {
                    "internalType": "uint256",
                    "name": "",
                    "type": "uint256"
                }
            ],
            "stateMutability": "view",
            "type": "function"
        },
        {
            "inputs": [],
            "name": "NAME",
            "outputs": [
                {
                    "internalType": "string",
                    "name": "",
                    "type": "string"
                }
            ],
            "stateMutability": "view",
            "type": "function"
        },
        {
            "inputs": [],
            "name": "SECONDS_IN_ONE_MINUTE",
            "outputs": [
                {
                    "internalType": "uint256",
                    "name": "",
                    "type": "uint256"
                }
            ],
            "stateMutability": "view",
            "type": "function"
        },
        {
            "inputs": [
                {
                    "internalType": "uint256",
                    "name": "",
                    "type": "uint256"
                }
            ],
            "name": "TroveOwners",
            "outputs": [
                {
                    "internalType": "address",
                    "name": "",
                    "type": "address"
                }
            ],
            "stateMutability": "view",
            "type": "function"
        },
        {
            "inputs": [
                {
                    "internalType": "address",
                    "name": "",
                    "type": "address"
                }
            ],
            "name": "Troves",
            "outputs": [
                {
                    "internalType": "uint256",
                    "name": "debt",
                    "type": "uint256"
                },
                {
                    "internalType": "uint256",
                    "name": "coll",
                    "type": "uint256"
                },
                {
                    "internalType": "uint256",
                    "name": "stake",
                    "type": "uint256"
                },
                {
                    "internalType": "enum TroveManagerStorage.Status",
                    "name": "status",
                    "type": "uint8"
                },
                {
                    "internalType": "uint128",
                    "name": "arrayIndex",
                    "type": "uint128"
                }
            ],
            "stateMutability": "view",
            "type": "function"
        },
        {
            "inputs": [],
            "name": "ZUSD_GAS_COMPENSATION",
            "outputs": [
                {
                    "internalType": "uint256",
                    "name": "",
                    "type": "uint256"
                }
            ],
            "stateMutability": "view",
            "type": "function"
        },
        {
            "inputs": [],
            "name": "_100pct",
            "outputs": [
                {
                    "internalType": "uint256",
                    "name": "",
                    "type": "uint256"
                }
            ],
            "stateMutability": "view",
            "type": "function"
        },
        {
            "inputs": [
                {
                    "internalType": "address",
                    "name": "_borrower",
                    "type": "address"
                },
                {
                    "internalType": "uint256",
                    "name": "_price",
                    "type": "uint256"
                }
            ],
            "name": "_getCurrentICR",
            "outputs": [
                {
                    "internalType": "uint256",
                    "name": "",
                    "type": "uint256"
                }
            ],
            "stateMutability": "view",
            "type": "function"
        },
        {
            "inputs": [
                {
                    "internalType": "address",
                    "name": "_borrower",
                    "type": "address"
                }
            ],
            "name": "_getPendingETHReward",
            "outputs": [
                {
                    "internalType": "uint256",
                    "name": "",
                    "type": "uint256"
                }
            ],
            "stateMutability": "view",
            "type": "function"
        },
        {
            "inputs": [
                {
                    "internalType": "address",
                    "name": "_borrower",
                    "type": "address"
                }
            ],
            "name": "_getPendingZUSDDebtReward",
            "outputs": [
                {
                    "internalType": "uint256",
                    "name": "",
                    "type": "uint256"
                }
            ],
            "stateMutability": "view",
            "type": "function"
        },
        {
            "inputs": [],
            "name": "_getRedemptionRate",
            "outputs": [
                {
                    "internalType": "uint256",
                    "name": "",
                    "type": "uint256"
                }
            ],
            "stateMutability": "view",
            "type": "function"
        },
        {
            "inputs": [
                {
                    "internalType": "address",
                    "name": "_borrower",
                    "type": "address"
                }
            ],
            "name": "_hasPendingRewards",
            "outputs": [
                {
                    "internalType": "bool",
                    "name": "",
                    "type": "bool"
                }
            ],
            "stateMutability": "view",
            "type": "function"
        },
        {
            "inputs": [],
            "name": "_stabilityPool",
            "outputs": [
                {
                    "internalType": "contract IStabilityPool",
                    "name": "",
                    "type": "address"
                }
            ],
            "stateMutability": "view",
            "type": "function"
        },
        {
            "inputs": [],
            "name": "_zeroStaking",
            "outputs": [
                {
                    "internalType": "contract IZEROStaking",
                    "name": "",
                    "type": "address"
                }
            ],
            "stateMutability": "view",
            "type": "function"
        },
        {
            "inputs": [],
            "name": "_zeroToken",
            "outputs": [
                {
                    "internalType": "contract IZEROToken",
                    "name": "",
                    "type": "address"
                }
            ],
            "stateMutability": "view",
            "type": "function"
        },
        {
            "inputs": [],
            "name": "_zusdToken",
            "outputs": [
                {
                    "internalType": "contract IZUSDToken",
                    "name": "",
                    "type": "address"
                }
            ],
            "stateMutability": "view",
            "type": "function"
        },
        {
            "inputs": [],
            "name": "activePool",
            "outputs": [
                {
                    "internalType": "contract IActivePool",
                    "name": "",
                    "type": "address"
                }
            ],
            "stateMutability": "view",
            "type": "function"
        },
        {
            "inputs": [],
            "name": "baseRate",
            "outputs": [
                {
                    "internalType": "uint256",
                    "name": "",
                    "type": "uint256"
                }
            ],
            "stateMutability": "view",
            "type": "function"
        },
        {
            "inputs": [],
            "name": "borrowerOperationsAddress",
            "outputs": [
                {
                    "internalType": "address",
                    "name": "",
                    "type": "address"
                }
            ],
            "stateMutability": "view",
            "type": "function"
        },
        {
            "inputs": [],
            "name": "defaultPool",
            "outputs": [
                {
                    "internalType": "contract IDefaultPool",
                    "name": "",
                    "type": "address"
                }
            ],
            "stateMutability": "view",
            "type": "function"
        },
        {
            "inputs": [],
            "name": "feeDistributor",
            "outputs": [
                {
                    "internalType": "contract IFeeDistributor",
                    "name": "",
                    "type": "address"
                }
            ],
            "stateMutability": "view",
            "type": "function"
        },
        {
            "inputs": [],
            "name": "getEntireSystemColl",
            "outputs": [
                {
                    "internalType": "uint256",
                    "name": "entireSystemColl",
                    "type": "uint256"
                }
            ],
            "stateMutability": "view",
            "type": "function"
        },
        {
            "inputs": [],
            "name": "getEntireSystemDebt",
            "outputs": [
                {
                    "internalType": "uint256",
                    "name": "entireSystemDebt",
                    "type": "uint256"
                }
            ],
            "stateMutability": "view",
            "type": "function"
        },
        {
            "inputs": [],
            "name": "getOwner",
            "outputs": [
                {
                    "internalType": "address",
                    "name": "_owner",
                    "type": "address"
                }
            ],
            "stateMutability": "view",
            "type": "function"
        },
        {
            "inputs": [],
            "name": "lastETHError_Redistribution",
            "outputs": [
                {
                    "internalType": "uint256",
                    "name": "",
                    "type": "uint256"
                }
            ],
            "stateMutability": "view",
            "type": "function"
        },
        {
            "inputs": [],
            "name": "lastFeeOperationTime",
            "outputs": [
                {
                    "internalType": "uint256",
                    "name": "",
                    "type": "uint256"
                }
            ],
            "stateMutability": "view",
            "type": "function"
        },
        {
            "inputs": [],
            "name": "lastZUSDDebtError_Redistribution",
            "outputs": [
                {
                    "internalType": "uint256",
                    "name": "",
                    "type": "uint256"
                }
            ],
            "stateMutability": "view",
            "type": "function"
        },
        {
            "inputs": [],
            "name": "liquityBaseParams",
            "outputs": [
                {
                    "internalType": "contract ILiquityBaseParams",
                    "name": "",
                    "type": "address"
                }
            ],
            "stateMutability": "view",
            "type": "function"
        },
        {
            "inputs": [],
            "name": "permit2",
            "outputs": [
                {
                    "internalType": "contract IPermit2",
                    "name": "",
                    "type": "address"
                }
            ],
            "stateMutability": "view",
            "type": "function"
        },
        {
            "inputs": [],
            "name": "priceFeed",
            "outputs": [
                {
                    "internalType": "contract IPriceFeed",
                    "name": "",
                    "type": "address"
                }
            ],
            "stateMutability": "view",
            "type": "function"
        },
        {
            "inputs": [
                {
                    "internalType": "uint256",
                    "name": "_ZUSDamount",
                    "type": "uint256"
                },
                {
                    "internalType": "address",
                    "name": "_firstRedemptionHint",
                    "type": "address"
                },
                {
                    "internalType": "address",
                    "name": "_upperPartialRedemptionHint",
                    "type": "address"
                },
                {
                    "internalType": "address",
                    "name": "_lowerPartialRedemptionHint",
                    "type": "address"
                },
                {
                    "internalType": "uint256",
                    "name": "_partialRedemptionHintNICR",
                    "type": "uint256"
                },
                {
                    "internalType": "uint256",
                    "name": "_maxIterations",
                    "type": "uint256"
                },
                {
                    "internalType": "uint256",
                    "name": "_maxFeePercentage",
                    "type": "uint256"
                }
            ],
            "name": "redeemCollateral",
            "outputs": [],
            "stateMutability": "nonpayable",
            "type": "function"
        },
        {
            "inputs": [
                {
                    "internalType": "uint256",
                    "name": "_dllrAmount",
                    "type": "uint256"
                },
                {
                    "internalType": "address",
                    "name": "_firstRedemptionHint",
                    "type": "address"
                },
                {
                    "internalType": "address",
                    "name": "_upperPartialRedemptionHint",
                    "type": "address"
                },
                {
                    "internalType": "address",
                    "name": "_lowerPartialRedemptionHint",
                    "type": "address"
                },
                {
                    "internalType": "uint256",
                    "name": "_partialRedemptionHintNICR",
                    "type": "uint256"
                },
                {
                    "internalType": "uint256",
                    "name": "_maxIterations",
                    "type": "uint256"
                },
                {
                    "internalType": "uint256",
                    "name": "_maxFeePercentage",
                    "type": "uint256"
                },
                {
                    "components": [
                        {
                            "internalType": "uint256",
                            "name": "deadline",
                            "type": "uint256"
                        },
                        {
                            "internalType": "uint8",
                            "name": "v",
                            "type": "uint8"
                        },
                        {
                            "internalType": "bytes32",
                            "name": "r",
                            "type": "bytes32"
                        },
                        {
                            "internalType": "bytes32",
                            "name": "s",
                            "type": "bytes32"
                        }
                    ],
                    "internalType": "struct IMassetManager.PermitParams",
                    "name": "_permitParams",
                    "type": "tuple"
                }
            ],
            "name": "redeemCollateralViaDLLR",
            "outputs": [],
            "stateMutability": "nonpayable",
            "type": "function"
        },
        {
            "inputs": [
                {
                    "internalType": "uint256",
                    "name": "_dllrAmount",
                    "type": "uint256"
                },
                {
                    "internalType": "address",
                    "name": "_firstRedemptionHint",
                    "type": "address"
                },
                {
                    "internalType": "address",
                    "name": "_upperPartialRedemptionHint",
                    "type": "address"
                },
                {
                    "internalType": "address",
                    "name": "_lowerPartialRedemptionHint",
                    "type": "address"
                },
                {
                    "internalType": "uint256",
                    "name": "_partialRedemptionHintNICR",
                    "type": "uint256"
                },
                {
                    "internalType": "uint256",
                    "name": "_maxIterations",
                    "type": "uint256"
                },
                {
                    "internalType": "uint256",
                    "name": "_maxFeePercentage",
                    "type": "uint256"
                },
                {
                    "components": [
                        {
                            "components": [
                                {
                                    "internalType": "address",
                                    "name": "token",
                                    "type": "address"
                                },
                                {
                                    "internalType": "uint256",
                                    "name": "amount",
                                    "type": "uint256"
                                }
                            ],
                            "internalType": "struct ISignatureTransfer.TokenPermissions",
                            "name": "permitted",
                            "type": "tuple"
                        },
                        {
                            "internalType": "uint256",
                            "name": "nonce",
                            "type": "uint256"
                        },
                        {
                            "internalType": "uint256",
                            "name": "deadline",
                            "type": "uint256"
                        }
                    ],
                    "internalType": "struct ISignatureTransfer.PermitTransferFrom",
                    "name": "_permit",
                    "type": "tuple"
                },
                {
                    "internalType": "bytes",
                    "name": "_signature",
                    "type": "bytes"
                }
            ],
            "name": "redeemCollateralViaDllrWithPermit2",
            "outputs": [],
            "stateMutability": "nonpayable",
            "type": "function"
        },
        {
            "inputs": [
                {
                    "internalType": "address",
                    "name": "",
                    "type": "address"
                }
            ],
            "name": "rewardSnapshots",
            "outputs": [
                {
                    "internalType": "uint256",
                    "name": "ETH",
                    "type": "uint256"
                },
                {
                    "internalType": "uint256",
                    "name": "ZUSDDebt",
                    "type": "uint256"
                }
            ],
            "stateMutability": "view",
            "type": "function"
        },
        {
            "inputs": [
                {
                    "internalType": "address",
                    "name": "_owner",
                    "type": "address"
                }
            ],
            "name": "setOwner",
            "outputs": [],
            "stateMutability": "nonpayable",
            "type": "function"
        },
        {
            "inputs": [],
            "name": "sortedTroves",
            "outputs": [
                {
                    "internalType": "contract ISortedTroves",
                    "name": "",
                    "type": "address"
                }
            ],
            "stateMutability": "view",
            "type": "function"
        },
        {
            "inputs": [],
            "name": "totalCollateralSnapshot",
            "outputs": [
                {
                    "internalType": "uint256",
                    "name": "",
                    "type": "uint256"
                }
            ],
            "stateMutability": "view",
            "type": "function"
        },
        {
            "inputs": [],
            "name": "totalStakes",
            "outputs": [
                {
                    "internalType": "uint256",
                    "name": "",
                    "type": "uint256"
                }
            ],
            "stateMutability": "view",
            "type": "function"
        },
        {
            "inputs": [],
            "name": "totalStakesSnapshot",
            "outputs": [
                {
                    "internalType": "uint256",
                    "name": "",
                    "type": "uint256"
                }
            ],
            "stateMutability": "view",
            "type": "function"
        },
        {
            "inputs": [],
            "name": "troveManagerRedeemOps",
            "outputs": [
                {
                    "internalType": "address",
                    "name": "",
                    "type": "address"
                }
            ],
            "stateMutability": "view",
            "type": "function"
        }
    ],
    "transactionHash": "0xa204ada1c6efe89dd25c0bcafa2150b377068ec91f2be2124ca46bade37b35fb",
    "args": [
        "1209600",
        "0x000000000022d473030f116ddee9f6b43ac78ba3"
    ],
    "numDeployments": 3,
    "solcInputHash": "849fadfa265e27de6fba2f2d99bdf763",
    "bytecode": "0x60c06040523480156200001157600080fd5b5060405162003dfe38038062003dfe833981016040819052620000349162000128565b8162000049336001600160e01b036200006316565b60805260601b6001600160601b03191660a05250620001c4565b6001600160a01b038116620000955760405162461bcd60e51b81526004016200008c9062000182565b60405180910390fd5b6001600160a01b038116620000b26001600160e01b036200010716565b6001600160a01b03167f8be0079c531659141344cd1fd0a4f28419497f9722a3daafe3b4186f6b6457e060405160405180910390a36000604051620000f79062000165565b6040519081900390209190915550565b600080604051620001189062000165565b6040519081900390205492915050565b600080604083850312156200013b578182fd5b825160208401519092506001600160a01b03811681146200015a578182fd5b809150509250929050565b7035b2bc9737bbb730b136329737bbb732b960791b815260110190565b60208082526022908201527f4f776e61626c653a3a7365744f776e65723a20696e76616c6964206164647265604082015261737360f01b606082015260800190565b60805160a05160601c613c09620001f56000398061059f5280610b08525080610bdc5280611d565250613c096000f3fe608060405234801561001057600080fd5b506004361061028a5760003560e01c8063797250e31161015c578063a3f4df7e116100ce578063bf9befb111610087578063bf9befb114610486578063c35bc5501461048e578063c7b5548114610496578063d380a37c1461049e578063d815e8e9146104a6578063e056e918146104ae5761028a565b8063a3f4df7e1461043e578063ae7bec1914610453578063ae9187541461045b578063b7f8cf9b14610463578063bcd375261461046b578063be4b03341461047e5761028a565b8063893d20e811610120578063893d20e81461040b57806396d711ff146104135780639708daf41461041b5780639dd233d21461042e5780639f07067014610436578063a20baee6146103b05761028a565b8063797250e3146103e35780637cf54e40146103eb5780637f7dde4a146103f3578063807d138d146103fb578063887105d3146104035761028a565b80633cc7422511610200578063716c47e6116101b9578063716c47e6146103a857806372fe25aa146103b0578063741bef1a146103b8578063756b253e146103c0578063759b3034146103d3578063795d26c3146103db5761028a565b80633cc742251461034657806342ccf1e41461034e5780634a767d681461036157806361ec893d146103745780636b4449521461037c5780636ef64338146103845761028a565b80631673c79a116102525780631673c79a146102f25780631a59a50e146103135780631bf43555146103265780631f68f20a1461032e57806331c903b0146103365780633a1285951461033e5761028a565b806305b6f5ca1461028f578063071a7541146102a45780630d43e8ad146102c257806312261ee7146102d757806313af4035146102df575b600080fd5b6102a261029d3660046132d7565b6104ce565b005b6102ac610589565b6040516102b99190613b05565b60405180910390f35b6102ca61058e565b6040516102b991906134cd565b6102ca61059d565b6102a26102ed3660046131b7565b6105c1565b6103056103003660046131b7565b61060e565b6040516102b9929190613b0e565b6102ac6103213660046131b7565b610627565b6102ac6106ef565b6102ac6106fc565b6102ac610702565b6102ca610714565b6102ca610723565b6102ac61035c3660046131b7565b610732565b6102ac61036f3660046131ef565b610763565b6102ac61078e565b6102ac610793565b6103976103923660046131b7565b610799565b6040516102b9959493929190613b1c565b6102ca6107d3565b6102ac6107e2565b6102ca6107ee565b6102ca6103ce36600461323a565b6107fd565b6102ac610824565b6102ac610831565b6102ac610950565b6102ca610956565b6102ca610965565b6102ac610974565b6102ac61097a565b6102ca610a49565b6102ac610a68565b6102a2610429366004613361565b610a6e565b6102ac610b4c565b6102ca610b52565b610446610b61565b6040516102b991906135e4565b6102ca610b89565b6102ca610b98565b6102ca610ba7565b6102a261047936600461326a565b610bb6565b6102ac610bce565b6102ac610bd4565b6102ac610bda565b6102ac610bfe565b6102ac610c0a565b6102ca610c10565b6104c16104bc3660046131b7565b610c1f565b6040516102b991906135ab565b600061056d600560009054906101000a90046001600160a01b03166001600160a01b031663e9fc34616040518163ffffffff1660e01b815260040160206040518083038186803b15801561052157600080fd5b505afa158015610535573d6000803e3d6000fd5b505050506040513d601f19601f8201168201806040525081019061055991906131d3565b6009548b906001600160a01b031685610c7d565b905061057e81898989898989610f2e565b505050505050505050565b600281565b600c546001600160a01b031681565b7f000000000000000000000000000000000000000000000000000000000000000081565b6105c9610a49565b6001600160a01b0316336001600160a01b0316146106025760405162461bcd60e51b81526004016105f99061389f565b60405180910390fd5b61060b816116f5565b50565b6016602052600090815260409020805460019091015482565b6001600160a01b0381166000908152601660205260408120546014548290610655908363ffffffff61178016565b905080158061068e575060016001600160a01b03851660009081526010602052604090206003015460ff16600481111561068b57fe5b14155b1561069e576000925050506106ea565b6001600160a01b038416600090815260106020526040812060020154906106e3670de0b6b3a76400006106d7848663ffffffff6117c916565b9063ffffffff61180316565b9450505050505b919050565b6809c2007651b250000081565b600e5481565b600061070f600e54611845565b905090565b600b546001600160a01b031681565b6001546001600160a01b031681565b6001600160a01b0381166000908152601660205260408120600101546015548290610655908363ffffffff61178016565b6000806000610771856118ee565b915091506000610782838387611974565b93505050505b92915050565b603c81565b60195481565b60106020526000908152604090208054600182015460028301546003909301549192909160ff81169061010090046001600160801b031685565b6004546001600160a01b031681565b670de0b6b3a764000081565b6002546001600160a01b031681565b6017818154811061080a57fe5b6000918252602090912001546001600160a01b0316905081565b6801158e460913d0000081565b60008054604080516272c7d360e71b8152905183926001600160a01b031691633963e980916004808301926020929190829003018186803b15801561087557600080fd5b505afa158015610889573d6000803e3d6000fd5b505050506040513d601f19601f820116820180604052508101906108ad9190613252565b90506000600160009054906101000a90046001600160a01b03166001600160a01b0316633963e9806040518163ffffffff1660e01b815260040160206040518083038186803b1580156108ff57600080fd5b505afa158015610913573d6000803e3d6000fd5b505050506040513d601f19601f820116820180604052508101906109379190613252565b9050610949828263ffffffff6119a616565b9250505090565b60185481565b600a546001600160a01b031681565b6000546001600160a01b031681565b60125481565b6000805460408051630a7b61df60e11b8152905183926001600160a01b0316916314f6c3be916004808301926020929190829003018186803b1580156109bf57600080fd5b505afa1580156109d3573d6000803e3d6000fd5b505050506040513d601f19601f820116820180604052508101906109f79190613252565b90506000600160009054906101000a90046001600160a01b03166001600160a01b03166314f6c3be6040518163ffffffff1660e01b815260040160206040518083038186803b1580156108ff57600080fd5b600080604051610a58906134b0565b6040519081900390205492915050565b60135481565b6000610b2e600560009054906101000a90046001600160a01b03166001600160a01b031663e9fc34616040518163ffffffff1660e01b815260040160206040518083038186803b158015610ac157600080fd5b505afa158015610ad5573d6000803e3d6000fd5b505050506040513d601f19601f82011682018060405250810190610af991906131d3565b6009546001600160a01b0316867f000000000000000000000000000000000000000000000000000000000000000087876119cb565b9050610b3f818b8b8b8b8b8b610f2e565b5050505050505050505050565b60145481565b6003546001600160a01b031681565b6040518060400160405280600c81526020016b2a3937bb32a6b0b730b3b2b960a11b81525081565b6006546001600160a01b031681565b600d546001600160a01b031681565b6005546001600160a01b031681565b610bc587878787878787610f2e565b50505050505050565b60155481565b60115481565b7f000000000000000000000000000000000000000000000000000000000000000081565b670ddd4b8c6c7d70d881565b600f5481565b6009546001600160a01b031681565b600060016001600160a01b03831660009081526010602052604090206003015460ff166004811115610c4d57fe5b14610c5a575060006106ea565b506014546001600160a01b03821660009081526016602052604090205410919050565b600080856001600160a01b03166321df0da76040518163ffffffff1660e01b815260040160206040518083038186803b158015610cb957600080fd5b505afa158015610ccd573d6000803e3d6000fd5b505050506040513d601f19601f82011682018060405250810190610cf191906131d3565b90506000816001600160a01b03166370a08231306040518263ffffffff1660e01b8152600401610d2191906134cd565b60206040518083038186803b158015610d3957600080fd5b505afa158015610d4d573d6000803e3d6000fd5b505050506040513d601f19601f82011682018060405250810190610d719190613252565b9050306001600160a01b03831663605629d633838a8935610d9860408c0160208d01613477565b8b604001358c606001356040518863ffffffff1660e01b8152600401610dc497969594939291906134e1565b600060405180830381600087803b158015610dde57600080fd5b505af1158015610df2573d6000803e3d6000fd5b5050505086610e8383856001600160a01b03166370a08231856040518263ffffffff1660e01b8152600401610e2791906134cd565b60206040518083038186803b158015610e3f57600080fd5b505afa158015610e53573d6000803e3d6000fd5b505050506040513d601f19601f82011682018060405250810190610e779190613252565b9063ffffffff61178016565b14610ea05760405162461bcd60e51b81526004016105f9906136ab565b60405163fb2c922360e01b81526001600160a01b0389169063fb2c922390610ed09089908b90339060040161355d565b602060405180830381600087803b158015610eea57600080fd5b505af1158015610efe573d6000803e3d6000fd5b505050506040513d601f19601f82011682018060405250810190610f229190613252565b98975050505050505050565b610f366130b5565b506040805160e0810182526000546001600160a01b03908116825260015481166020830152600954811692820192909252600b5482166060820152600d5482166080820152600854821660a082015260075490911660c0820152610f986130f1565b610fa183611c18565b610fa9611cd1565b600260009054906101000a90046001600160a01b03166001600160a01b0316630fdb11cf6040518163ffffffff1660e01b8152600401602060405180830381600087803b158015610ff957600080fd5b505af115801561100d573d6000803e3d6000fd5b505050506040513d601f19601f820116820180604052508101906110319190613252565b60c0820181905261104190611d9f565b61104a89611e4c565b6110598260400151338b611e6c565b611061610831565b60e0820181905260408084015190516370a0823160e01b81526001600160a01b03909116906370a082319061109a9033906004016134cd565b60206040518083038186803b1580156110b257600080fd5b505afa1580156110c6573d6000803e3d6000fd5b505050506040513d601f19601f820116820180604052508101906110ea9190613252565b11156110f257fe5b888152608082015160c082015160009161110d918b90611f0d565b156111195750876112c6565b82608001516001600160a01b0316634d6228316040518163ffffffff1660e01b815260040160206040518083038186803b15801561115657600080fd5b505afa15801561116a573d6000803e3d6000fd5b505050506040513d601f19601f8201168201806040525081019061118e91906131d3565b90505b6001600160a01b0381161580159061123a5750600360009054906101000a90046001600160a01b03166001600160a01b031663794e57246040518163ffffffff1660e01b815260040160206040518083038186803b1580156111f257600080fd5b505afa158015611206573d6000803e3d6000fd5b505050506040513d601f19601f8201168201806040525081019061122a9190613252565b611238828460c00151610763565b105b156112c65782608001516001600160a01b031663b72703ac826040518263ffffffff1660e01b815260040161126f91906134cd565b60206040518083038186803b15801561128757600080fd5b505afa15801561129b573d6000803e3d6000fd5b505050506040513d601f19601f820116820180604052508101906112bf91906131d3565b9050611191565b846112d15760001994505b6001600160a01b038116158015906112e95750815115155b80156112f55750600085115b15611423576080830151604051632dc9c0eb60e21b8152600019909601956000916001600160a01b03169063b72703ac906113349085906004016134cd565b60206040518083038186803b15801561134c57600080fd5b505afa158015611360573d6000803e3d6000fd5b505050506040513d601f19601f8201168201806040525081019061138491906131d3565b90506113998460000151856020015184612170565b6113a1613136565b6113b8858486600001518760c001518e8e8e612281565b90508060400151156113cb575050611423565b805160208501516113e19163ffffffff6119a616565b60208086019190915281015160408501516114019163ffffffff6119a616565b6040850152805184516114199163ffffffff61178016565b84525090506112d1565b60008260400151116114475760405162461bcd60e51b81526004016105f9906136f4565b61145e82604001518360c001518460e001516124f5565b5061146c82604001516125ac565b6060830181905260408301516114839190866125bf565b8251600c5460608401516040516364a197f360e01b81526001600160a01b03938416936364a197f3936114bb93911691600401613522565b600060405180830381600087803b1580156114d557600080fd5b505af11580156114e9573d6000803e3d6000fd5b50505050600c60009054906101000a90046001600160a01b03166001600160a01b031663bb57ad206040518163ffffffff1660e01b8152600401600060405180830381600087803b15801561153d57600080fd5b505af1158015611551573d6000803e3d6000fd5b505050506060820151604083015161156891611780565b60808301526020820151604080840151606085015191517f43a3f4082a4dbc33d78e317d2497d3a730bc7fc3574159dcea1056e62e5d9ad8936115ae938f939192613b5c565b60405180910390a182604001516001600160a01b0316639dc29fac3384602001516040518363ffffffff1660e01b81526004016115ec929190613522565b600060405180830381600087803b15801561160657600080fd5b505af115801561161a573d6000803e3d6000fd5b50508451602085015160405163121cbc4d60e11b81526001600160a01b039092169350632439789a925061165091600401613b05565b600060405180830381600087803b15801561166a57600080fd5b505af115801561167e573d6000803e3d6000fd5b5050845160808501516040516364a197f360e01b81526001600160a01b0390921693506364a197f392506116b791339190600401613522565b600060405180830381600087803b1580156116d157600080fd5b505af11580156116e5573d6000803e3d6000fd5b5050505050505050505050505050565b6001600160a01b03811661171b5760405162461bcd60e51b81526004016105f990613774565b806001600160a01b031661172d610a49565b6001600160a01b03167f8be0079c531659141344cd1fd0a4f28419497f9722a3daafe3b4186f6b6457e060405160405180910390a36000604051611770906134b0565b6040519081900390209190915550565b60006117c283836040518060400160405280601e81526020017f536166654d6174683a207375627472616374696f6e206f766572666c6f770000815250612605565b9392505050565b6000826117d857506000610788565b828202828482816117e557fe5b04146117c25760405162461bcd60e51b81526004016105f99061385e565b60006117c283836040518060400160405280601a81526020017f536166654d6174683a206469766973696f6e206279207a65726f000000000000815250612631565b60006107886118e083600360009054906101000a90046001600160a01b03166001600160a01b03166328d28b5b6040518163ffffffff1660e01b815260040160206040518083038186803b15801561189c57600080fd5b505afa1580156118b0573d6000803e3d6000fd5b505050506040513d601f19601f820116820180604052508101906118d49190613252565b9063ffffffff6119a616565b670de0b6b3a7640000612668565b60008060006118fc84610627565b9050600061190985610732565b6001600160a01b03861660009081526010602052604081206001015491925090611939908463ffffffff6119a616565b6001600160a01b03871660009081526010602052604081205491925090611966908463ffffffff6119a616565b919550909350505050915091565b6000821561199b576000611992846106d7878663ffffffff6117c916565b91506117c29050565b506000199392505050565b6000828201838110156117c25760405162461bcd60e51b81526004016105f99061373d565b600080876001600160a01b03166321df0da76040518163ffffffff1660e01b815260040160206040518083038186803b158015611a0757600080fd5b505afa158015611a1b573d6000803e3d6000fd5b505050506040513d601f19601f82011682018060405250810190611a3f91906131d3565b90506000816001600160a01b03166370a08231306040518263ffffffff1660e01b8152600401611a6f91906134cd565b60206040518083038186803b158015611a8757600080fd5b505afa158015611a9b573d6000803e3d6000fd5b505050506040513d601f19601f82011682018060405250810190611abf9190613252565b87516020015190915030906001600160a01b0388166330f28b7a8a611ae4858561267e565b338b8b6040518663ffffffff1660e01b8152600401611b07959493929190613a94565b600060405180830381600087803b158015611b2157600080fd5b505af1158015611b35573d6000803e3d6000fd5b5050505080611b6a84866001600160a01b03166370a08231866040518263ffffffff1660e01b8152600401610e2791906134cd565b14611b875760405162461bcd60e51b81526004016105f9906136ab565b60405163fb2c922360e01b81526001600160a01b038c169063fb2c922390611bb7908d908590339060040161355d565b602060405180830381600087803b158015611bd157600080fd5b505af1158015611be5573d6000803e3d6000fd5b505050506040513d601f19601f82011682018060405250810190611c099190613252565b9b9a5050505050505050505050565b600360009054906101000a90046001600160a01b03166001600160a01b03166328d28b5b6040518163ffffffff1660e01b815260040160206040518083038186803b158015611c6657600080fd5b505afa158015611c7a573d6000803e3d6000fd5b505050506040513d601f19601f82011682018060405250810190611c9e9190613252565b8110158015611cb55750670de0b6b3a76400008111155b61060b5760405162461bcd60e51b81526004016105f990613974565b600a5460408051631e425be160e11b815290516000926001600160a01b031691633c84b7c2916004808301926020929190829003018186803b158015611d1657600080fd5b505afa158015611d2a573d6000803e3d6000fd5b505050506040513d601f19601f82011682018060405250810190611d4e9190613252565b9050611d80817f000000000000000000000000000000000000000000000000000000000000000063ffffffff6119a616565b42101561060b5760405162461bcd60e51b81526004016105f990613800565b600360009054906101000a90046001600160a01b03166001600160a01b031663794e57246040518163ffffffff1660e01b815260040160206040518083038186803b158015611ded57600080fd5b505afa158015611e01573d6000803e3d6000fd5b505050506040513d601f19601f82011682018060405250810190611e259190613252565b611e2e826126b0565b101561060b5760405162461bcd60e51b81526004016105f9906139c4565b6000811161060b5760405162461bcd60e51b81526004016105f9906138d0565b6040516370a0823160e01b815281906001600160a01b038516906370a0823190611e9a9086906004016134cd565b60206040518083038186803b158015611eb257600080fd5b505afa158015611ec6573d6000803e3d6000fd5b505050506040513d601f19601f82011682018060405250810190611eea9190613252565b1015611f085760405162461bcd60e51b81526004016105f990613637565b505050565b60006001600160a01b0383161580611f9e5750604051630bb7c8fd60e31b81526001600160a01b03851690635dbe47e890611f4c9086906004016134cd565b60206040518083038186803b158015611f6457600080fd5b505afa158015611f78573d6000803e3d6000fd5b505050506040513d601f19601f82011682018060405250810190611f9c919061321a565b155b806120365750600360009054906101000a90046001600160a01b03166001600160a01b031663794e57246040518163ffffffff1660e01b815260040160206040518083038186803b158015611ff257600080fd5b505afa158015612006573d6000803e3d6000fd5b505050506040513d601f19601f8201168201806040525081019061202a9190613252565b6120348484610763565b105b15612043575060006117c2565b60405163765e015960e01b81526000906001600160a01b0386169063765e0159906120729087906004016134cd565b60206040518083038186803b15801561208a57600080fd5b505afa15801561209e573d6000803e3d6000fd5b505050506040513d601f19601f820116820180604052508101906120c291906131d3565b90506001600160a01b03811615806121675750600360009054906101000a90046001600160a01b03166001600160a01b031663794e57246040518163ffffffff1660e01b815260040160206040518083038186803b15801561212357600080fd5b505afa158015612137573d6000803e3d6000fd5b505050506040513d601f19601f8201168201806040525081019061215b9190613252565b6121658285610763565b105b95945050505050565b61217981610c1f565b15611f0857612187816126dc565b600061219282610627565b9050600061219f83610732565b6001600160a01b0384166000908152601060205260409020600101549091506121ce908363ffffffff6119a616565b6001600160a01b03841660009081526010602052604090206001810191909155546121ff908263ffffffff6119a616565b6001600160a01b03841660009081526010602052604090205561222183612725565b61222d8585838561278d565b6001600160a01b038316600081815260106020526040808220805460018201546002909201549251600080516020613bb48339815191529461227294929392916135b6565b60405180910390a25050505050565b612289613136565b6001600160a01b0387166000908152601060205260409020546122c69087906122c1906801158e460913d0000063ffffffff61178016565b612668565b8082526122e79086906106d790670de0b6b3a764000063ffffffff6117c916565b60208083019190915281516001600160a01b03891660009081526010909252604082205461231a9163ffffffff61178016565b6020808401516001600160a01b038b1660009081526010909252604082206001015492935090916123509163ffffffff61178016565b90506801158e460913d000008214156123c95761236c896128ad565b6123778960046128fd565b61238c8a8a6801158e460913d0000084612a09565b886001600160a01b0316600080516020613bb4833981519152600080600060036040516123bc94939291906135b6565b60405180910390a26124e7565b60006123d58284612b6c565b905084811415806123f657506809c2007651b25000006123f484612ba1565b105b1561240a57505060016040830152506124ea565b8a608001516001600160a01b0316632be212608b838a8a6040518563ffffffff1660e01b81526004016124409493929190613580565b600060405180830381600087803b15801561245a57600080fd5b505af115801561246e573d6000803e3d6000fd5b5050506001600160a01b038b1660009081526010602052604090208481556001018390555061249c8a612bbc565b506001600160a01b038a1660008181526010602052604090819020600201549051600080516020613bb4833981519152916124dd91879187916003906135b6565b60405180910390a2505b50505b979650505050505050565b600080612500612c63565b90506000612518846106d7888863ffffffff6117c916565b9050600061253d61253083600263ffffffff61180316565b849063ffffffff6119a616565b905061255181670de0b6b3a7640000612668565b90506000811161255d57fe5b600e8190556040517fc454ee9b76c52f782a256af821b857ca6e125d1e3333bcede402fec2bed9600c90612592908390613b05565b60405180910390a16125a2612ca7565b9695505050505050565b60006107886125b9610702565b83612cfc565b60006125dd836106d786670de0b6b3a764000063ffffffff6117c916565b9050818111156125ff5760405162461bcd60e51b81526004016105f990613a0e565b50505050565b600081848411156126295760405162461bcd60e51b81526004016105f991906135e4565b505050900390565b600081836126525760405162461bcd60e51b81526004016105f991906135e4565b50600083858161265e57fe5b0495945050505050565b600081831061267757816117c2565b5090919050565b612686613159565b61268e613159565b5050604080518082019091526001600160a01b03929092168252602082015290565b6000806126bb61097a565b905060006126c7610831565b90506126d4828286611974565b949350505050565b60016001600160a01b03821660009081526010602052604090206003015460ff16600481111561270857fe5b1461060b5760405162461bcd60e51b81526004016105f990613a45565b601480546001600160a01b038316600090815260166020526040908190209182556015546001909201829055915491517fc437f324d85e369394148dd9d62f98f534b382e01ed3dd2eb98138fb6d3ab49a92612782929091613b0e565b60405180910390a150565b60405163121cbc4d60e11b81526001600160a01b03841690632439789a906127b9908590600401613b05565b600060405180830381600087803b1580156127d357600080fd5b505af11580156127e7573d6000803e3d6000fd5b505060405163f2e91d7160e01b81526001600160a01b038716925063f2e91d719150612817908590600401613b05565b600060405180830381600087803b15801561283157600080fd5b505af1158015612845573d6000803e3d6000fd5b505060405163be41205f60e01b81526001600160a01b038616925063be41205f9150612875908490600401613b05565b600060405180830381600087803b15801561288f57600080fd5b505af11580156128a3573d6000803e3d6000fd5b5050505050505050565b6001600160a01b0381166000908152601060205260409020600201546011546128dc908263ffffffff61178016565b601155506001600160a01b0316600090815260106020526040812060020155565b600081600481111561290b57fe5b141580156129255750600181600481111561292257fe5b14155b61292b57fe5b60175461293781612d3c565b6001600160a01b0383166000908152601060205260409020600301805483919060ff1916600183600481111561296957fe5b02179055506001600160a01b03831660009081526010602090815260408083206001808201859055908490556016909252822082815501556129ab8382612de2565b600d54604051631484968760e11b81526001600160a01b03909116906329092d0e906129db9086906004016134cd565b600060405180830381600087803b1580156129f557600080fd5b505af1158015610bc5573d6000803e3d6000fd5b6040808501516007549151632770a7eb60e21b81526001600160a01b0391821692639dc29fac92612a41929116908690600401613522565b600060405180830381600087803b158015612a5b57600080fd5b505af1158015612a6f573d6000803e3d6000fd5b5050855160405163121cbc4d60e11b81526001600160a01b039091169250632439789a9150612aa2908590600401613b05565b600060405180830381600087803b158015612abc57600080fd5b505af1158015612ad0573d6000803e3d6000fd5b505050508360a001516001600160a01b0316633f10abab84836040518363ffffffff1660e01b8152600401612b06929190613522565b600060405180830381600087803b158015612b2057600080fd5b505af1158015612b34573d6000803e3d6000fd5b5050855160a08701516040516364a197f360e01b81526001600160a01b0390921693506364a197f39250612875918590600401613522565b60008115612b9857612b91826106d78568056bc75e2d6310000063ffffffff6117c916565b9050610788565b50600019610788565b6000610788826801158e460913d0000063ffffffff61178016565b6001600160a01b0381166000908152601060205260408120600101548190612be390612f83565b6001600160a01b038416600090815260106020526040902060020180549082905560115491925090612c219083906118d4908463ffffffff61178016565b60118190556040517f6bac5e0eb3c44eb03a60ab11ec3a2c051771616aecadbcfff2630aabae52038291612c5491613b05565b60405180910390a15092915050565b600080612c6e612fbf565b90506000612c84670ddd4b8c6c7d70d883612fdb565b9050610949670de0b6b3a76400006106d783600e546117c990919063ffffffff16565b6000612cbe600f544261178090919063ffffffff16565b9050603c811061060b5742600f8190556040517f860f8d2f0c74dd487e89e2883e3b25b8159ce1e1b3433a291cba7b82c508f3bc9161278291613b05565b600080612d1b670de0b6b3a76400006106d7868663ffffffff6117c916565b90508281106117c25760405162461bcd60e51b81526004016105f99061391e565b600181118015612dc65750600d546040805163de8fa43160e01b815290516001926001600160a01b03169163de8fa431916004808301926020929190829003018186803b158015612d8c57600080fd5b505afa158015612da0573d6000803e3d6000fd5b505050506040513d601f19601f82011682018060405250810190612dc49190613252565b115b61060b5760405162461bcd60e51b81526004016105f9906137b6565b6001600160a01b03821660009081526010602052604081206003015460ff1690816004811115612e0e57fe5b14158015612e2857506001816004811115612e2557fe5b14155b612e2e57fe5b6001600160a01b03831660009081526010602052604081206003015461010090046001600160801b0316908390612e66826001611780565b905080836001600160801b03161115612e7b57fe5b600060178281548110612e8a57fe5b600091825260209091200154601780546001600160a01b03909216925082916001600160801b038716908110612ebc57fe5b600091825260208083209190910180546001600160a01b0319166001600160a01b03948516179055918316815260109091526040908190206003018054610100600160881b0319166101006001600160801b03881602179055517f02b04ae5f7be9ca7c103293a2aa15f3c339d15d6eda53b721fef7b0e609c831a90612f45908390879061353b565b60405180910390a16017805480612f5857fe5b600082815260209020810160001990810180546001600160a01b031916905501905550505050505050565b60008060135460001415612f98575081610788565b600060125411612fa457fe5b6117c26013546106d7601254866117c990919063ffffffff16565b600061070f603c6106d7600f544261178090919063ffffffff16565b6000631f540500821115612ff157631f54050091505b816130055750670de0b6b3a7640000610788565b670de0b6b3a764000083835b600181111561307c57600281066130465761302c8283613082565b915061303f81600263ffffffff61180316565b9050613077565b6130508284613082565b925061305c8283613082565b915061307460026106d783600163ffffffff61178016565b90505b613011565b61078282845b600080613095848463ffffffff6117c916565b90506126d4670de0b6b3a76400006106d7836706f05b59d3b200006119a6565b6040805160e081018252600080825260208201819052918101829052606081018290526080810182905260a0810182905260c081019190915290565b60405180610100016040528060008152602001600081526020016000815260200160008152602001600081526020016000815260200160008152602001600081525090565b604051806060016040528060008152602001600081526020016000151581525090565b604080518082019091526000808252602082015290565b60008083601f840112613181578182fd5b50813567ffffffffffffffff811115613198578182fd5b6020830191508360208285010111156131b057600080fd5b9250929050565b6000602082840312156131c8578081fd5b81356117c281613b9e565b6000602082840312156131e4578081fd5b81516117c281613b9e565b60008060408385031215613201578081fd5b823561320c81613b9e565b946020939093013593505050565b60006020828403121561322b578081fd5b815180151581146117c2578182fd5b60006020828403121561324b578081fd5b5035919050565b600060208284031215613263578081fd5b5051919050565b600080600080600080600060e0888a031215613284578283fd5b87359650602088013561329681613b9e565b955060408801356132a681613b9e565b945060608801356132b681613b9e565b9699959850939660808101359560a0820135955060c0909101359350915050565b600080600080600080600080888a036101608112156132f4578182fd5b8935985060208a013561330681613b9e565b975060408a013561331681613b9e565b965060608a013561332681613b9e565b955060808a810135955060a08b0135945060c08b0135935060df198201121561334d578182fd5b5060e0890190509295985092959890939650565b6000806000806000806000806000808a8c03610180811215613381578283fd5b8b359a5060208c013561339381613b9e565b995060408c01356133a381613b9e565b985060608c01356133b381613b9e565b975060808c810135975060a08d0135965060c08d0135955060df198201908112156133dc578384fd5b6133e66060613b77565b915060408112156133f5578384fd5b506134006040613b77565b60e08d013561340e81613b9e565b81526101008d01356020808301919091529082526101208d0135908201526101408c0135604082015292506101608b013567ffffffffffffffff811115613453578283fd5b61345f8d828e01613170565b8194508093505050509295989b9194979a5092959850565b600060208284031215613488578081fd5b813560ff811681146117c2578182fd5b80516001600160a01b03168252602090810151910152565b7035b2bc9737bbb730b136329737bbb732b960791b815260110190565b6001600160a01b0391909116815260200190565b6001600160a01b0397881681529590961660208601526040850193909352606084019190915260ff16608083015260a082015260c081019190915260e00190565b6001600160a01b03929092168252602082015260400190565b6001600160a01b039290921682526001600160801b0316602082015260400190565b6001600160a01b0393841681526020810192909252909116604082015260600190565b6001600160a01b03948516815260208101939093529083166040830152909116606082015260800190565b901515815260200190565b848152602081018490526040810183905260808101600483106135d557fe5b82606083015295945050505050565b6000602080835283518082850152825b81811015613610578581018301518582016040015282016135f4565b818111156136215783604083870101525b50601f01601f1916929092016040019392505050565b6020808252604e908201527f54726f76654d616e616765723a2052657175657374656420726564656d70746960408201527f6f6e20616d6f756e74206d757374206265203c3d20757365722773205a55534460608201526d20746f6b656e2062616c616e636560901b608082015260a00190565b60208082526029908201527f444c4c52207472616e7366657272656420616d6f756e742076616c69646174696040820152681bdb8819985a5b195960ba1b606082015260800190565b60208082526029908201527f54726f76654d616e616765723a20556e61626c6520746f2072656465656d20616040820152681b9e48185b5bdd5b9d60ba1b606082015260800190565b6020808252601b908201527f536166654d6174683a206164646974696f6e206f766572666c6f770000000000604082015260600190565b60208082526022908201527f4f776e61626c653a3a7365744f776e65723a20696e76616c6964206164647265604082015261737360f01b606082015260800190565b6020808252602a908201527f54726f76654d616e616765723a204f6e6c79206f6e652074726f766520696e206040820152697468652073797374656d60b01b606082015260800190565b602080825260409082018190527f54726f76654d616e616765723a20526564656d7074696f6e7320617265206e6f908201527f7420616c6c6f77656420647572696e6720626f6f747374726170207068617365606082015260800190565b60208082526021908201527f536166654d6174683a206d756c7469706c69636174696f6e206f766572666c6f6040820152607760f81b606082015260800190565b60208082526017908201527613dddb98589b194e8e881858d8d95cdcc819195b9a5959604a1b604082015260600190565b6020808252602e908201527f54726f76654d616e616765723a20416d6f756e74206d7573742062652067726560408201526d61746572207468616e207a65726f60901b606082015260800190565b60208082526036908201527f54726f76654d616e616765723a2046656520776f756c642065617420757020616040820152751b1b081c995d1d5c9b99590818dbdb1b185d195c985b60521b606082015260800190565b60208082526030908201527f4d6178206665652070657263656e74616765206d75737420626520626574776560408201526f656e20302e352520616e64203130302560801b606082015260800190565b6020808252602a908201527f54726f76654d616e616765723a2043616e6e6f742072656465656d207768656e604082015269102a21a9101e1026a1a960b11b606082015260800190565b6020808252601d908201527f4665652065786365656465642070726f7669646564206d6178696d756d000000604082015260600190565b6020808252602f908201527f54726f76654d616e616765723a2054726f766520646f6573206e6f742065786960408201526e1cdd081bdc881a5cc818db1bdcd959608a1b606082015260800190565b6000610100613aa4838951613498565b6020880151604084015260408801516060840152613ac56080840188613498565b6001600160a01b03861660c084015260e083018190528201839052610120838582850137828401810191909152601f909201601f19160101949350505050565b90815260200190565b918252602082015260400190565b858152602081018590526040810184905260a0810160058410613b3b57fe5b60608201939093526001600160801b03919091166080909101529392505050565b93845260208401929092526040830152606082015260800190565b60405181810167ffffffffffffffff81118282101715613b9657600080fd5b604052919050565b6001600160a01b038116811461060b57600080fdfec3770d654ed33aeea6bf11ac8ef05d02a6a04ed4686dd2f624d853bbec43cc8ba26469706673582212207c16913f9245b09fe846c28a2b84344e3caf87f082e47e49ca0ae21a08915c2b64736f6c634300060b0033",
    "devdoc": {
        "kind": "dev",
        "methods": {
            "getOwner()": {
                "returns": {
                    "_owner": "Address of the owner. "
                }
            },
            "setOwner(address)": {
                "params": {
                    "_owner": "Address of the owner. "
                }
            }
        },
        "version": 1
    },
    "userdoc": {
        "kind": "user",
        "methods": {
            "BETA()": {
                "notice": "BETA: 18 digit decimal. Parameter by which to divide the redeemed fraction, in order to calc the new base rate from a redemption. Corresponds to (1 / ALPHA) in the white paper."
            },
            "BOOTSTRAP_PERIOD()": {
                "notice": "During bootsrap period redemptions are not allowed"
            },
            "MIN_NET_DEBT()": {
                "notice": "Minimum amount of net ZUSD debt a trove must have"
            },
            "ZUSD_GAS_COMPENSATION()": {
                "notice": "Amount of ZUSD to be locked in gas pool on opening troves"
            },
            "_getCurrentICR(address,uint256)": {
                "notice": "Return the current collateral ratio (ICR) of a given Trove. Takes a trove's pending coll and debt rewards from redistributions into account."
            },
            "_getPendingETHReward(address)": {
                "notice": "Get the borrower's pending accumulated ETH reward, earned by their stake"
            },
            "_getPendingZUSDDebtReward(address)": {
                "notice": "Get the borrower's pending accumulated ZUSD reward, earned by their stake"
            },
            "constructor": "Constructor ",
            "getOwner()": {
                "notice": "Return address of the owner."
            },
            "permit2()": {
                "notice": "CONSTANT / IMMUTABLE VARIABLE ONLY "
            },
            "redeemCollateralViaDLLR(uint256,address,address,address,uint256,uint256,uint256,(uint256,uint8,bytes32,bytes32))": {
                "notice": "DLLR _owner can use Sovryn Mynt to convert DLLR to ZUSD, then use the Zero redemption mechanism to redeem ZUSD for RBTC, all in a single transaction"
            },
            "redeemCollateralViaDllrWithPermit2(uint256,address,address,address,uint256,uint256,uint256,((address,uint256),uint256,uint256),bytes)": {
                "notice": "DLLR _owner can use Sovryn Mynt to convert DLLR to ZUSD, then use the Zero redemption mechanism to redeem ZUSD for RBTC, all in a single transaction"
            },
            "setOwner(address)": {
                "notice": "Set address of the owner (only owner can call this function)"
            }
        },
        "notice": "This contract is designed to be used via delegatecall from the TroveManager contract TroveManagerBase constructor param is bootsrap period when redemptions are not allowed",
        "version": 1
    },
    "storageLayout": {
        "storage": [
            {
                "astId": 5495,
                "contract": "contracts/Dependencies/TroveManagerRedeemOps.sol:TroveManagerRedeemOps",
                "label": "activePool",
                "offset": 0,
                "slot": "0",
                "type": "t_contract(IActivePool)19557"
            },
            {
                "astId": 5497,
                "contract": "contracts/Dependencies/TroveManagerRedeemOps.sol:TroveManagerRedeemOps",
                "label": "defaultPool",
                "offset": 0,
                "slot": "1",
                "type": "t_contract(IDefaultPool)20229"
            },
            {
                "astId": 5500,
                "contract": "contracts/Dependencies/TroveManagerRedeemOps.sol:TroveManagerRedeemOps",
                "label": "priceFeed",
                "offset": 0,
                "slot": "2",
                "type": "t_contract(IPriceFeed)20458"
            },
            {
                "astId": 5503,
                "contract": "contracts/Dependencies/TroveManagerRedeemOps.sol:TroveManagerRedeemOps",
                "label": "liquityBaseParams",
                "offset": 0,
                "slot": "3",
                "type": "t_contract(ILiquityBaseParams)20379"
            },
            {
                "astId": 35227,
                "contract": "contracts/Dependencies/TroveManagerRedeemOps.sol:TroveManagerRedeemOps",
                "label": "troveManagerRedeemOps",
                "offset": 0,
                "slot": "4",
                "type": "t_address"
            },
            {
                "astId": 35229,
                "contract": "contracts/Dependencies/TroveManagerRedeemOps.sol:TroveManagerRedeemOps",
                "label": "borrowerOperationsAddress",
                "offset": 0,
                "slot": "5",
                "type": "t_address"
            },
            {
                "astId": 35231,
                "contract": "contracts/Dependencies/TroveManagerRedeemOps.sol:TroveManagerRedeemOps",
                "label": "_stabilityPool",
                "offset": 0,
                "slot": "6",
                "type": "t_contract(IStabilityPool)21101"
            },
            {
                "astId": 35233,
                "contract": "contracts/Dependencies/TroveManagerRedeemOps.sol:TroveManagerRedeemOps",
                "label": "gasPoolAddress",
                "offset": 0,
                "slot": "7",
                "type": "t_address"
            },
            {
                "astId": 35235,
                "contract": "contracts/Dependencies/TroveManagerRedeemOps.sol:TroveManagerRedeemOps",
                "label": "collSurplusPool",
                "offset": 0,
                "slot": "8",
                "type": "t_contract(ICollSurplusPool)20130"
            },
            {
                "astId": 35237,
                "contract": "contracts/Dependencies/TroveManagerRedeemOps.sol:TroveManagerRedeemOps",
                "label": "_zusdToken",
                "offset": 0,
                "slot": "9",
                "type": "t_contract(IZUSDToken)21842"
            },
            {
                "astId": 35239,
                "contract": "contracts/Dependencies/TroveManagerRedeemOps.sol:TroveManagerRedeemOps",
                "label": "_zeroToken",
                "offset": 0,
                "slot": "10",
                "type": "t_contract(IZEROToken)21783"
            },
            {
                "astId": 35241,
                "contract": "contracts/Dependencies/TroveManagerRedeemOps.sol:TroveManagerRedeemOps",
                "label": "_zeroStaking",
                "offset": 0,
                "slot": "11",
                "type": "t_contract(IZEROStaking)21760"
            },
            {
                "astId": 35243,
                "contract": "contracts/Dependencies/TroveManagerRedeemOps.sol:TroveManagerRedeemOps",
                "label": "feeDistributor",
                "offset": 0,
                "slot": "12",
                "type": "t_contract(IFeeDistributor)20298"
            },
            {
                "astId": 35245,
                "contract": "contracts/Dependencies/TroveManagerRedeemOps.sol:TroveManagerRedeemOps",
                "label": "sortedTroves",
                "offset": 0,
                "slot": "13",
                "type": "t_contract(ISortedTroves)20817"
            },
            {
                "astId": 35247,
                "contract": "contracts/Dependencies/TroveManagerRedeemOps.sol:TroveManagerRedeemOps",
                "label": "baseRate",
                "offset": 0,
                "slot": "14",
                "type": "t_uint256"
            },
            {
                "astId": 35249,
                "contract": "contracts/Dependencies/TroveManagerRedeemOps.sol:TroveManagerRedeemOps",
                "label": "lastFeeOperationTime",
                "offset": 0,
                "slot": "15",
                "type": "t_uint256"
            },
            {
                "astId": 35270,
                "contract": "contracts/Dependencies/TroveManagerRedeemOps.sol:TroveManagerRedeemOps",
                "label": "Troves",
                "offset": 0,
                "slot": "16",
                "type": "t_mapping(t_address,t_struct(Trove)35266_storage)"
            },
            {
                "astId": 35272,
                "contract": "contracts/Dependencies/TroveManagerRedeemOps.sol:TroveManagerRedeemOps",
                "label": "totalStakes",
                "offset": 0,
                "slot": "17",
                "type": "t_uint256"
            },
            {
                "astId": 35274,
                "contract": "contracts/Dependencies/TroveManagerRedeemOps.sol:TroveManagerRedeemOps",
                "label": "totalStakesSnapshot",
                "offset": 0,
                "slot": "18",
                "type": "t_uint256"
            },
            {
                "astId": 35276,
                "contract": "contracts/Dependencies/TroveManagerRedeemOps.sol:TroveManagerRedeemOps",
                "label": "totalCollateralSnapshot",
                "offset": 0,
                "slot": "19",
                "type": "t_uint256"
            },
            {
                "astId": 35278,
                "contract": "contracts/Dependencies/TroveManagerRedeemOps.sol:TroveManagerRedeemOps",
                "label": "L_ETH",
                "offset": 0,
                "slot": "20",
                "type": "t_uint256"
            },
            {
                "astId": 35280,
                "contract": "contracts/Dependencies/TroveManagerRedeemOps.sol:TroveManagerRedeemOps",
                "label": "L_ZUSDDebt",
                "offset": 0,
                "slot": "21",
                "type": "t_uint256"
            },
            {
                "astId": 35284,
                "contract": "contracts/Dependencies/TroveManagerRedeemOps.sol:TroveManagerRedeemOps",
                "label": "rewardSnapshots",
                "offset": 0,
                "slot": "22",
                "type": "t_mapping(t_address,t_struct(RewardSnapshot)35289_storage)"
            },
            {
                "astId": 35292,
                "contract": "contracts/Dependencies/TroveManagerRedeemOps.sol:TroveManagerRedeemOps",
                "label": "TroveOwners",
                "offset": 0,
                "slot": "23",
                "type": "t_array(t_address)dyn_storage"
            },
            {
                "astId": 35294,
                "contract": "contracts/Dependencies/TroveManagerRedeemOps.sol:TroveManagerRedeemOps",
                "label": "lastETHError_Redistribution",
                "offset": 0,
                "slot": "24",
                "type": "t_uint256"
            },
            {
                "astId": 35296,
                "contract": "contracts/Dependencies/TroveManagerRedeemOps.sol:TroveManagerRedeemOps",
                "label": "lastZUSDDebtError_Redistribution",
                "offset": 0,
                "slot": "25",
                "type": "t_uint256"
            }
        ],
        "types": {
            "t_address": {
                "encoding": "inplace",
                "label": "address",
                "numberOfBytes": "20"
            },
            "t_array(t_address)dyn_storage": {
                "base": "t_address",
                "encoding": "dynamic_array",
                "label": "address[]",
                "numberOfBytes": "32"
            },
            "t_contract(IActivePool)19557": {
                "encoding": "inplace",
                "label": "contract IActivePool",
                "numberOfBytes": "20"
            },
            "t_contract(ICollSurplusPool)20130": {
                "encoding": "inplace",
                "label": "contract ICollSurplusPool",
                "numberOfBytes": "20"
            },
            "t_contract(IDefaultPool)20229": {
                "encoding": "inplace",
                "label": "contract IDefaultPool",
                "numberOfBytes": "20"
            },
            "t_contract(IFeeDistributor)20298": {
                "encoding": "inplace",
                "label": "contract IFeeDistributor",
                "numberOfBytes": "20"
            },
            "t_contract(ILiquityBaseParams)20379": {
                "encoding": "inplace",
                "label": "contract ILiquityBaseParams",
                "numberOfBytes": "20"
            },
            "t_contract(IPriceFeed)20458": {
                "encoding": "inplace",
                "label": "contract IPriceFeed",
                "numberOfBytes": "20"
            },
            "t_contract(ISortedTroves)20817": {
                "encoding": "inplace",
                "label": "contract ISortedTroves",
                "numberOfBytes": "20"
            },
            "t_contract(IStabilityPool)21101": {
                "encoding": "inplace",
                "label": "contract IStabilityPool",
                "numberOfBytes": "20"
            },
            "t_contract(IZEROStaking)21760": {
                "encoding": "inplace",
                "label": "contract IZEROStaking",
                "numberOfBytes": "20"
            },
            "t_contract(IZEROToken)21783": {
                "encoding": "inplace",
                "label": "contract IZEROToken",
                "numberOfBytes": "20"
            },
            "t_contract(IZUSDToken)21842": {
                "encoding": "inplace",
                "label": "contract IZUSDToken",
                "numberOfBytes": "20"
            },
            "t_enum(Status)35255": {
                "encoding": "inplace",
                "label": "enum TroveManagerStorage.Status",
                "numberOfBytes": "1"
            },
            "t_mapping(t_address,t_struct(RewardSnapshot)35289_storage)": {
                "encoding": "mapping",
                "key": "t_address",
                "label": "mapping(address => struct TroveManagerStorage.RewardSnapshot)",
                "numberOfBytes": "32",
                "value": "t_struct(RewardSnapshot)35289_storage"
            },
            "t_mapping(t_address,t_struct(Trove)35266_storage)": {
                "encoding": "mapping",
                "key": "t_address",
                "label": "mapping(address => struct TroveManagerStorage.Trove)",
                "numberOfBytes": "32",
                "value": "t_struct(Trove)35266_storage"
            },
            "t_struct(RewardSnapshot)35289_storage": {
                "encoding": "inplace",
                "label": "struct TroveManagerStorage.RewardSnapshot",
                "members": [
                    {
                        "astId": 35286,
                        "contract": "contracts/Dependencies/TroveManagerRedeemOps.sol:TroveManagerRedeemOps",
                        "label": "ETH",
                        "offset": 0,
                        "slot": "0",
                        "type": "t_uint256"
                    },
                    {
                        "astId": 35288,
                        "contract": "contracts/Dependencies/TroveManagerRedeemOps.sol:TroveManagerRedeemOps",
                        "label": "ZUSDDebt",
                        "offset": 0,
                        "slot": "1",
                        "type": "t_uint256"
                    }
                ],
                "numberOfBytes": "64"
            },
            "t_struct(Trove)35266_storage": {
                "encoding": "inplace",
                "label": "struct TroveManagerStorage.Trove",
                "members": [
                    {
                        "astId": 35257,
                        "contract": "contracts/Dependencies/TroveManagerRedeemOps.sol:TroveManagerRedeemOps",
                        "label": "debt",
                        "offset": 0,
                        "slot": "0",
                        "type": "t_uint256"
                    },
                    {
                        "astId": 35259,
                        "contract": "contracts/Dependencies/TroveManagerRedeemOps.sol:TroveManagerRedeemOps",
                        "label": "coll",
                        "offset": 0,
                        "slot": "1",
                        "type": "t_uint256"
                    },
                    {
                        "astId": 35261,
                        "contract": "contracts/Dependencies/TroveManagerRedeemOps.sol:TroveManagerRedeemOps",
                        "label": "stake",
                        "offset": 0,
                        "slot": "2",
                        "type": "t_uint256"
                    },
                    {
                        "astId": 35263,
                        "contract": "contracts/Dependencies/TroveManagerRedeemOps.sol:TroveManagerRedeemOps",
                        "label": "status",
                        "offset": 0,
                        "slot": "3",
                        "type": "t_enum(Status)35255"
                    },
                    {
                        "astId": 35265,
                        "contract": "contracts/Dependencies/TroveManagerRedeemOps.sol:TroveManagerRedeemOps",
                        "label": "arrayIndex",
                        "offset": 1,
                        "slot": "3",
                        "type": "t_uint128"
                    }
                ],
                "numberOfBytes": "128"
            },
            "t_uint128": {
                "encoding": "inplace",
                "label": "uint128",
                "numberOfBytes": "16"
            },
            "t_uint256": {
                "encoding": "inplace",
                "label": "uint256",
                "numberOfBytes": "32"
            }
        }
    }
}