{
    "address": "0xe8aDa5CA5AbD9dF17Aa5CE86b44A5998cCC5f364",
    "abi": [
        {
            "inputs": [
                {
                    "internalType": "uint256",
                    "name": "_bootstrapPeriod",
                    "type": "uint256"
                },
                {
                    "internalType": "address",
                    "name": "_permit2",
                    "type": "address"
                }
            ],
            "stateMutability": "nonpayable",
            "type": "constructor"
        },
        {
            "anonymous": false,
            "inputs": [
                {
                    "indexed": false,
                    "internalType": "address",
                    "name": "_activePoolAddress",
                    "type": "address"
                }
            ],
            "name": "ActivePoolAddressChanged",
            "type": "event"
        },
        {
            "anonymous": false,
            "inputs": [
                {
                    "indexed": false,
                    "internalType": "uint256",
                    "name": "_baseRate",
                    "type": "uint256"
                }
            ],
            "name": "BaseRateUpdated",
            "type": "event"
        },
        {
            "anonymous": false,
            "inputs": [
                {
                    "indexed": false,
                    "internalType": "address",
                    "name": "_newBorrowerOperationsAddress",
                    "type": "address"
                }
            ],
            "name": "BorrowerOperationsAddressChanged",
            "type": "event"
        },
        {
            "anonymous": false,
            "inputs": [
                {
                    "indexed": false,
                    "internalType": "address",
                    "name": "_collSurplusPoolAddress",
                    "type": "address"
                }
            ],
            "name": "CollSurplusPoolAddressChanged",
            "type": "event"
        },
        {
            "anonymous": false,
            "inputs": [
                {
                    "indexed": false,
                    "internalType": "address",
                    "name": "_defaultPoolAddress",
                    "type": "address"
                }
            ],
            "name": "DefaultPoolAddressChanged",
            "type": "event"
        },
        {
            "anonymous": false,
            "inputs": [
                {
                    "indexed": false,
                    "internalType": "address",
                    "name": "_feeDistributorAddress",
                    "type": "address"
                }
            ],
            "name": "FeeDistributorAddressChanged",
            "type": "event"
        },
        {
            "anonymous": false,
            "inputs": [
                {
                    "indexed": false,
                    "internalType": "address",
                    "name": "_gasPoolAddress",
                    "type": "address"
                }
            ],
            "name": "GasPoolAddressChanged",
            "type": "event"
        },
        {
            "anonymous": false,
            "inputs": [
                {
                    "indexed": false,
                    "internalType": "uint256",
                    "name": "_L_ETH",
                    "type": "uint256"
                },
                {
                    "indexed": false,
                    "internalType": "uint256",
                    "name": "_L_ZUSDDebt",
                    "type": "uint256"
                }
            ],
            "name": "LTermsUpdated",
            "type": "event"
        },
        {
            "anonymous": false,
            "inputs": [
                {
                    "indexed": false,
                    "internalType": "uint256",
                    "name": "_lastFeeOpTime",
                    "type": "uint256"
                }
            ],
            "name": "LastFeeOpTimeUpdated",
            "type": "event"
        },
        {
            "anonymous": false,
            "inputs": [
                {
                    "indexed": false,
                    "internalType": "uint256",
                    "name": "_liquidatedDebt",
                    "type": "uint256"
                },
                {
                    "indexed": false,
                    "internalType": "uint256",
                    "name": "_liquidatedColl",
                    "type": "uint256"
                },
                {
                    "indexed": false,
                    "internalType": "uint256",
                    "name": "_collGasCompensation",
                    "type": "uint256"
                },
                {
                    "indexed": false,
                    "internalType": "uint256",
                    "name": "_ZUSDGasCompensation",
                    "type": "uint256"
                }
            ],
            "name": "Liquidation",
            "type": "event"
        },
        {
            "anonymous": false,
            "inputs": [
                {
                    "indexed": false,
                    "internalType": "address",
                    "name": "_borrowerOperationsAddress",
                    "type": "address"
                }
            ],
            "name": "LiquityBaseParamsAddressChanges",
            "type": "event"
        },
        {
            "anonymous": false,
            "inputs": [
                {
                    "indexed": true,
                    "internalType": "address",
                    "name": "previousOwner",
                    "type": "address"
                },
                {
                    "indexed": true,
                    "internalType": "address",
                    "name": "newOwner",
                    "type": "address"
                }
            ],
            "name": "OwnershipTransferred",
            "type": "event"
        },
        {
            "anonymous": false,
            "inputs": [
                {
                    "indexed": false,
                    "internalType": "address",
                    "name": "_newPriceFeedAddress",
                    "type": "address"
                }
            ],
            "name": "PriceFeedAddressChanged",
            "type": "event"
        },
        {
            "anonymous": false,
            "inputs": [
                {
                    "indexed": false,
                    "internalType": "uint256",
                    "name": "_attemptedZUSDAmount",
                    "type": "uint256"
                },
                {
                    "indexed": false,
                    "internalType": "uint256",
                    "name": "_actualZUSDAmount",
                    "type": "uint256"
                },
                {
                    "indexed": false,
                    "internalType": "uint256",
                    "name": "_ETHSent",
                    "type": "uint256"
                },
                {
                    "indexed": false,
                    "internalType": "uint256",
                    "name": "_ETHFee",
                    "type": "uint256"
                }
            ],
            "name": "Redemption",
            "type": "event"
        },
        {
            "anonymous": false,
            "inputs": [
                {
                    "indexed": false,
                    "internalType": "address",
                    "name": "_sortedTrovesAddress",
                    "type": "address"
                }
            ],
            "name": "SortedTrovesAddressChanged",
            "type": "event"
        },
        {
            "anonymous": false,
            "inputs": [
                {
                    "indexed": false,
                    "internalType": "address",
                    "name": "_stabilityPoolAddress",
                    "type": "address"
                }
            ],
            "name": "StabilityPoolAddressChanged",
            "type": "event"
        },
        {
            "anonymous": false,
            "inputs": [
                {
                    "indexed": false,
                    "internalType": "uint256",
                    "name": "_totalStakesSnapshot",
                    "type": "uint256"
                },
                {
                    "indexed": false,
                    "internalType": "uint256",
                    "name": "_totalCollateralSnapshot",
                    "type": "uint256"
                }
            ],
            "name": "SystemSnapshotsUpdated",
            "type": "event"
        },
        {
            "anonymous": false,
            "inputs": [
                {
                    "indexed": false,
                    "internalType": "uint256",
                    "name": "_newTotalStakes",
                    "type": "uint256"
                }
            ],
            "name": "TotalStakesUpdated",
            "type": "event"
        },
        {
            "anonymous": false,
            "inputs": [
                {
                    "indexed": false,
                    "internalType": "address",
                    "name": "_borrower",
                    "type": "address"
                },
                {
                    "indexed": false,
                    "internalType": "uint256",
                    "name": "_newIndex",
                    "type": "uint256"
                }
            ],
            "name": "TroveIndexUpdated",
            "type": "event"
        },
        {
            "anonymous": false,
            "inputs": [
                {
                    "indexed": true,
                    "internalType": "address",
                    "name": "_borrower",
                    "type": "address"
                },
                {
                    "indexed": false,
                    "internalType": "uint256",
                    "name": "_debt",
                    "type": "uint256"
                },
                {
                    "indexed": false,
                    "internalType": "uint256",
                    "name": "_coll",
                    "type": "uint256"
                },
                {
                    "indexed": false,
                    "internalType": "uint8",
                    "name": "operation",
                    "type": "uint8"
                }
            ],
            "name": "TroveLiquidated",
            "type": "event"
        },
        {
            "anonymous": false,
            "inputs": [
                {
                    "indexed": false,
                    "internalType": "address",
                    "name": "_troveManagerRedeemOps",
                    "type": "address"
                }
            ],
            "name": "TroveManagerRedeemOpsAddressChanged",
            "type": "event"
        },
        {
            "anonymous": false,
            "inputs": [
                {
                    "indexed": false,
                    "internalType": "uint256",
                    "name": "_L_ETH",
                    "type": "uint256"
                },
                {
                    "indexed": false,
                    "internalType": "uint256",
                    "name": "_L_ZUSDDebt",
                    "type": "uint256"
                }
            ],
            "name": "TroveSnapshotsUpdated",
            "type": "event"
        },
        {
            "anonymous": false,
            "inputs": [
                {
                    "indexed": true,
                    "internalType": "address",
                    "name": "_borrower",
                    "type": "address"
                },
                {
                    "indexed": false,
                    "internalType": "uint256",
                    "name": "_debt",
                    "type": "uint256"
                },
                {
                    "indexed": false,
                    "internalType": "uint256",
                    "name": "_coll",
                    "type": "uint256"
                },
                {
                    "indexed": false,
                    "internalType": "uint256",
                    "name": "stake",
                    "type": "uint256"
                },
                {
                    "indexed": false,
                    "internalType": "uint8",
                    "name": "operation",
                    "type": "uint8"
                }
            ],
            "name": "TroveUpdated",
            "type": "event"
        },
        {
            "anonymous": false,
            "inputs": [
                {
                    "indexed": false,
                    "internalType": "address",
                    "name": "_zeroStakingAddress",
                    "type": "address"
                }
            ],
            "name": "ZEROStakingAddressChanged",
            "type": "event"
        },
        {
            "anonymous": false,
            "inputs": [
                {
                    "indexed": false,
                    "internalType": "address",
                    "name": "_zeroTokenAddress",
                    "type": "address"
                }
            ],
            "name": "ZEROTokenAddressChanged",
            "type": "event"
        },
        {
            "anonymous": false,
            "inputs": [
                {
                    "indexed": false,
                    "internalType": "address",
                    "name": "_newZUSDTokenAddress",
                    "type": "address"
                }
            ],
            "name": "ZUSDTokenAddressChanged",
            "type": "event"
        },
        {
            "inputs": [],
            "name": "BETA",
            "outputs": [
                {
                    "internalType": "uint256",
                    "name": "",
                    "type": "uint256"
                }
            ],
            "stateMutability": "view",
            "type": "function"
        },
        {
            "inputs": [],
            "name": "BOOTSTRAP_PERIOD",
            "outputs": [
                {
                    "internalType": "uint256",
                    "name": "",
                    "type": "uint256"
                }
            ],
            "stateMutability": "view",
            "type": "function"
        },
        {
            "inputs": [],
            "name": "CCR",
            "outputs": [
                {
                    "internalType": "uint256",
                    "name": "",
                    "type": "uint256"
                }
            ],
            "stateMutability": "view",
            "type": "function"
        },
        {
            "inputs": [],
            "name": "DECIMAL_PRECISION",
            "outputs": [
                {
                    "internalType": "uint256",
                    "name": "",
                    "type": "uint256"
                }
            ],
            "stateMutability": "view",
            "type": "function"
        },
        {
            "inputs": [],
            "name": "L_ETH",
            "outputs": [
                {
                    "internalType": "uint256",
                    "name": "",
                    "type": "uint256"
                }
            ],
            "stateMutability": "view",
            "type": "function"
        },
        {
            "inputs": [],
            "name": "L_ZUSDDebt",
            "outputs": [
                {
                    "internalType": "uint256",
                    "name": "",
                    "type": "uint256"
                }
            ],
            "stateMutability": "view",
            "type": "function"
        },
        {
            "inputs": [],
            "name": "MCR",
            "outputs": [
                {
                    "internalType": "uint256",
                    "name": "",
                    "type": "uint256"
                }
            ],
            "stateMutability": "view",
            "type": "function"
        },
        {
            "inputs": [],
            "name": "MINUTE_DECAY_FACTOR",
            "outputs": [
                {
                    "internalType": "uint256",
                    "name": "",
                    "type": "uint256"
                }
            ],
            "stateMutability": "view",
            "type": "function"
        },
        {
            "inputs": [],
            "name": "MIN_NET_DEBT",
            "outputs": [
                {
                    "internalType": "uint256",
                    "name": "",
                    "type": "uint256"
                }
            ],
            "stateMutability": "view",
            "type": "function"
        },
        {
            "inputs": [],
            "name": "NAME",
            "outputs": [
                {
                    "internalType": "string",
                    "name": "",
                    "type": "string"
                }
            ],
            "stateMutability": "view",
            "type": "function"
        },
        {
            "inputs": [],
            "name": "SECONDS_IN_ONE_MINUTE",
            "outputs": [
                {
                    "internalType": "uint256",
                    "name": "",
                    "type": "uint256"
                }
            ],
            "stateMutability": "view",
            "type": "function"
        },
        {
            "inputs": [
                {
                    "internalType": "uint256",
                    "name": "",
                    "type": "uint256"
                }
            ],
            "name": "TroveOwners",
            "outputs": [
                {
                    "internalType": "address",
                    "name": "",
                    "type": "address"
                }
            ],
            "stateMutability": "view",
            "type": "function"
        },
        {
            "inputs": [
                {
                    "internalType": "address",
                    "name": "",
                    "type": "address"
                }
            ],
            "name": "Troves",
            "outputs": [
                {
                    "internalType": "uint256",
                    "name": "debt",
                    "type": "uint256"
                },
                {
                    "internalType": "uint256",
                    "name": "coll",
                    "type": "uint256"
                },
                {
                    "internalType": "uint256",
                    "name": "stake",
                    "type": "uint256"
                },
                {
                    "internalType": "enum TroveManagerStorage.Status",
                    "name": "status",
                    "type": "uint8"
                },
                {
                    "internalType": "uint128",
                    "name": "arrayIndex",
                    "type": "uint128"
                }
            ],
            "stateMutability": "view",
            "type": "function"
        },
        {
            "inputs": [],
            "name": "ZUSD_GAS_COMPENSATION",
            "outputs": [
                {
                    "internalType": "uint256",
                    "name": "",
                    "type": "uint256"
                }
            ],
            "stateMutability": "view",
            "type": "function"
        },
        {
            "inputs": [],
            "name": "_100pct",
            "outputs": [
                {
                    "internalType": "uint256",
                    "name": "",
                    "type": "uint256"
                }
            ],
            "stateMutability": "view",
            "type": "function"
        },
        {
            "inputs": [
                {
                    "internalType": "address",
                    "name": "_borrower",
                    "type": "address"
                },
                {
                    "internalType": "uint256",
                    "name": "_price",
                    "type": "uint256"
                }
            ],
            "name": "_getCurrentICR",
            "outputs": [
                {
                    "internalType": "uint256",
                    "name": "",
                    "type": "uint256"
                }
            ],
            "stateMutability": "view",
            "type": "function"
        },
        {
            "inputs": [
                {
                    "internalType": "address",
                    "name": "_borrower",
                    "type": "address"
                }
            ],
            "name": "_getPendingETHReward",
            "outputs": [
                {
                    "internalType": "uint256",
                    "name": "",
                    "type": "uint256"
                }
            ],
            "stateMutability": "view",
            "type": "function"
        },
        {
            "inputs": [
                {
                    "internalType": "address",
                    "name": "_borrower",
                    "type": "address"
                }
            ],
            "name": "_getPendingZUSDDebtReward",
            "outputs": [
                {
                    "internalType": "uint256",
                    "name": "",
                    "type": "uint256"
                }
            ],
            "stateMutability": "view",
            "type": "function"
        },
        {
            "inputs": [],
            "name": "_getRedemptionRate",
            "outputs": [
                {
                    "internalType": "uint256",
                    "name": "",
                    "type": "uint256"
                }
            ],
            "stateMutability": "view",
            "type": "function"
        },
        {
            "inputs": [
                {
                    "internalType": "address",
                    "name": "_borrower",
                    "type": "address"
                }
            ],
            "name": "_hasPendingRewards",
            "outputs": [
                {
                    "internalType": "bool",
                    "name": "",
                    "type": "bool"
                }
            ],
            "stateMutability": "view",
            "type": "function"
        },
        {
            "inputs": [],
            "name": "_stabilityPool",
            "outputs": [
                {
                    "internalType": "contract IStabilityPool",
                    "name": "",
                    "type": "address"
                }
            ],
            "stateMutability": "view",
            "type": "function"
        },
        {
            "inputs": [],
            "name": "_zeroStaking",
            "outputs": [
                {
                    "internalType": "contract IZEROStaking",
                    "name": "",
                    "type": "address"
                }
            ],
            "stateMutability": "view",
            "type": "function"
        },
        {
            "inputs": [],
            "name": "_zeroToken",
            "outputs": [
                {
                    "internalType": "contract IZEROToken",
                    "name": "",
                    "type": "address"
                }
            ],
            "stateMutability": "view",
            "type": "function"
        },
        {
            "inputs": [],
            "name": "_zusdToken",
            "outputs": [
                {
                    "internalType": "contract IZUSDToken",
                    "name": "",
                    "type": "address"
                }
            ],
            "stateMutability": "view",
            "type": "function"
        },
        {
            "inputs": [],
            "name": "activePool",
            "outputs": [
                {
                    "internalType": "contract IActivePool",
                    "name": "",
                    "type": "address"
                }
            ],
            "stateMutability": "view",
            "type": "function"
        },
        {
            "inputs": [
                {
                    "internalType": "address",
                    "name": "_borrower",
                    "type": "address"
                }
            ],
            "name": "addTroveOwnerToArray",
            "outputs": [
                {
                    "internalType": "uint256",
                    "name": "index",
                    "type": "uint256"
                }
            ],
            "stateMutability": "nonpayable",
            "type": "function"
        },
        {
            "inputs": [
                {
                    "internalType": "address",
                    "name": "_borrower",
                    "type": "address"
                }
            ],
            "name": "applyPendingRewards",
            "outputs": [],
            "stateMutability": "nonpayable",
            "type": "function"
        },
        {
            "inputs": [],
            "name": "baseRate",
            "outputs": [
                {
                    "internalType": "uint256",
                    "name": "",
                    "type": "uint256"
                }
            ],
            "stateMutability": "view",
            "type": "function"
        },
        {
            "inputs": [
                {
                    "internalType": "address[]",
                    "name": "_troveArray",
                    "type": "address[]"
                }
            ],
            "name": "batchLiquidateTroves",
            "outputs": [],
            "stateMutability": "nonpayable",
            "type": "function"
        },
        {
            "inputs": [],
            "name": "borrowerOperationsAddress",
            "outputs": [
                {
                    "internalType": "address",
                    "name": "",
                    "type": "address"
                }
            ],
            "stateMutability": "view",
            "type": "function"
        },
        {
            "inputs": [
                {
                    "internalType": "uint256",
                    "name": "_price",
                    "type": "uint256"
                }
            ],
            "name": "checkRecoveryMode",
            "outputs": [
                {
                    "internalType": "bool",
                    "name": "",
                    "type": "bool"
                }
            ],
            "stateMutability": "view",
            "type": "function"
        },
        {
            "inputs": [
                {
                    "internalType": "address",
                    "name": "_borrower",
                    "type": "address"
                }
            ],
            "name": "closeTrove",
            "outputs": [],
            "stateMutability": "nonpayable",
            "type": "function"
        },
        {
            "inputs": [],
            "name": "decayBaseRateFromBorrowing",
            "outputs": [],
            "stateMutability": "nonpayable",
            "type": "function"
        },
        {
            "inputs": [
                {
                    "internalType": "address",
                    "name": "_borrower",
                    "type": "address"
                },
                {
                    "internalType": "uint256",
                    "name": "_collDecrease",
                    "type": "uint256"
                }
            ],
            "name": "decreaseTroveColl",
            "outputs": [
                {
                    "internalType": "uint256",
                    "name": "",
                    "type": "uint256"
                }
            ],
            "stateMutability": "nonpayable",
            "type": "function"
        },
        {
            "inputs": [
                {
                    "internalType": "address",
                    "name": "_borrower",
                    "type": "address"
                },
                {
                    "internalType": "uint256",
                    "name": "_debtDecrease",
                    "type": "uint256"
                }
            ],
            "name": "decreaseTroveDebt",
            "outputs": [
                {
                    "internalType": "uint256",
                    "name": "",
                    "type": "uint256"
                }
            ],
            "stateMutability": "nonpayable",
            "type": "function"
        },
        {
            "inputs": [],
            "name": "defaultPool",
            "outputs": [
                {
                    "internalType": "contract IDefaultPool",
                    "name": "",
                    "type": "address"
                }
            ],
            "stateMutability": "view",
            "type": "function"
        },
        {
            "inputs": [],
            "name": "feeDistributor",
            "outputs": [
                {
                    "internalType": "contract IFeeDistributor",
                    "name": "",
                    "type": "address"
                }
            ],
            "stateMutability": "view",
            "type": "function"
        },
        {
            "inputs": [
                {
                    "internalType": "uint256",
                    "name": "_ZUSDDebt",
                    "type": "uint256"
                }
            ],
            "name": "getBorrowingFee",
            "outputs": [
                {
                    "internalType": "uint256",
                    "name": "",
                    "type": "uint256"
                }
            ],
            "stateMutability": "view",
            "type": "function"
        },
        {
            "inputs": [
                {
                    "internalType": "uint256",
                    "name": "_ZUSDDebt",
                    "type": "uint256"
                }
            ],
            "name": "getBorrowingFeeWithDecay",
            "outputs": [
                {
                    "internalType": "uint256",
                    "name": "",
                    "type": "uint256"
                }
            ],
            "stateMutability": "view",
            "type": "function"
        },
        {
            "inputs": [],
            "name": "getBorrowingRate",
            "outputs": [
                {
                    "internalType": "uint256",
                    "name": "",
                    "type": "uint256"
                }
            ],
            "stateMutability": "view",
            "type": "function"
        },
        {
            "inputs": [],
            "name": "getBorrowingRateWithDecay",
            "outputs": [
                {
                    "internalType": "uint256",
                    "name": "",
                    "type": "uint256"
                }
            ],
            "stateMutability": "view",
            "type": "function"
        },
        {
            "inputs": [
                {
                    "internalType": "address",
                    "name": "_borrower",
                    "type": "address"
                },
                {
                    "internalType": "uint256",
                    "name": "_price",
                    "type": "uint256"
                }
            ],
            "name": "getCurrentICR",
            "outputs": [
                {
                    "internalType": "uint256",
                    "name": "",
                    "type": "uint256"
                }
            ],
            "stateMutability": "view",
            "type": "function"
        },
        {
            "inputs": [
                {
                    "internalType": "address",
                    "name": "_borrower",
                    "type": "address"
                }
            ],
            "name": "getEntireDebtAndColl",
            "outputs": [
                {
                    "internalType": "uint256",
                    "name": "debt",
                    "type": "uint256"
                },
                {
                    "internalType": "uint256",
                    "name": "coll",
                    "type": "uint256"
                },
                {
                    "internalType": "uint256",
                    "name": "pendingZUSDDebtReward",
                    "type": "uint256"
                },
                {
                    "internalType": "uint256",
                    "name": "pendingETHReward",
                    "type": "uint256"
                }
            ],
            "stateMutability": "view",
            "type": "function"
        },
        {
            "inputs": [],
            "name": "getEntireSystemColl",
            "outputs": [
                {
                    "internalType": "uint256",
                    "name": "entireSystemColl",
                    "type": "uint256"
                }
            ],
            "stateMutability": "view",
            "type": "function"
        },
        {
            "inputs": [],
            "name": "getEntireSystemDebt",
            "outputs": [
                {
                    "internalType": "uint256",
                    "name": "entireSystemDebt",
                    "type": "uint256"
                }
            ],
            "stateMutability": "view",
            "type": "function"
        },
        {
            "inputs": [
                {
                    "internalType": "address",
                    "name": "_borrower",
                    "type": "address"
                }
            ],
            "name": "getNominalICR",
            "outputs": [
                {
                    "internalType": "uint256",
                    "name": "",
                    "type": "uint256"
                }
            ],
            "stateMutability": "view",
            "type": "function"
        },
        {
            "inputs": [],
            "name": "getOwner",
            "outputs": [
                {
                    "internalType": "address",
                    "name": "_owner",
                    "type": "address"
                }
            ],
            "stateMutability": "view",
            "type": "function"
        },
        {
            "inputs": [
                {
                    "internalType": "address",
                    "name": "_borrower",
                    "type": "address"
                }
            ],
            "name": "getPendingETHReward",
            "outputs": [
                {
                    "internalType": "uint256",
                    "name": "",
                    "type": "uint256"
                }
            ],
            "stateMutability": "view",
            "type": "function"
        },
        {
            "inputs": [
                {
                    "internalType": "address",
                    "name": "_borrower",
                    "type": "address"
                }
            ],
            "name": "getPendingZUSDDebtReward",
            "outputs": [
                {
                    "internalType": "uint256",
                    "name": "",
                    "type": "uint256"
                }
            ],
            "stateMutability": "view",
            "type": "function"
        },
        {
            "inputs": [
                {
                    "internalType": "uint256",
                    "name": "_ETHDrawn",
                    "type": "uint256"
                }
            ],
            "name": "getRedemptionFeeWithDecay",
            "outputs": [
                {
                    "internalType": "uint256",
                    "name": "",
                    "type": "uint256"
                }
            ],
            "stateMutability": "view",
            "type": "function"
        },
        {
            "inputs": [],
            "name": "getRedemptionRate",
            "outputs": [
                {
                    "internalType": "uint256",
                    "name": "",
                    "type": "uint256"
                }
            ],
            "stateMutability": "view",
            "type": "function"
        },
        {
            "inputs": [],
            "name": "getRedemptionRateWithDecay",
            "outputs": [
                {
                    "internalType": "uint256",
                    "name": "",
                    "type": "uint256"
                }
            ],
            "stateMutability": "view",
            "type": "function"
        },
        {
            "inputs": [
                {
                    "internalType": "uint256",
                    "name": "_price",
                    "type": "uint256"
                }
            ],
            "name": "getTCR",
            "outputs": [
                {
                    "internalType": "uint256",
                    "name": "",
                    "type": "uint256"
                }
            ],
            "stateMutability": "view",
            "type": "function"
        },
        {
            "inputs": [
                {
                    "internalType": "address",
                    "name": "_borrower",
                    "type": "address"
                }
            ],
            "name": "getTroveColl",
            "outputs": [
                {
                    "internalType": "uint256",
                    "name": "",
                    "type": "uint256"
                }
            ],
            "stateMutability": "view",
            "type": "function"
        },
        {
            "inputs": [
                {
                    "internalType": "address",
                    "name": "_borrower",
                    "type": "address"
                }
            ],
            "name": "getTroveDebt",
            "outputs": [
                {
                    "internalType": "uint256",
                    "name": "",
                    "type": "uint256"
                }
            ],
            "stateMutability": "view",
            "type": "function"
        },
        {
            "inputs": [
                {
                    "internalType": "uint256",
                    "name": "_index",
                    "type": "uint256"
                }
            ],
            "name": "getTroveFromTroveOwnersArray",
            "outputs": [
                {
                    "internalType": "address",
                    "name": "",
                    "type": "address"
                }
            ],
            "stateMutability": "view",
            "type": "function"
        },
        {
            "inputs": [],
            "name": "getTroveOwnersCount",
            "outputs": [
                {
                    "internalType": "uint256",
                    "name": "",
                    "type": "uint256"
                }
            ],
            "stateMutability": "view",
            "type": "function"
        },
        {
            "inputs": [
                {
                    "internalType": "address",
                    "name": "_borrower",
                    "type": "address"
                }
            ],
            "name": "getTroveStake",
            "outputs": [
                {
                    "internalType": "uint256",
                    "name": "",
                    "type": "uint256"
                }
            ],
            "stateMutability": "view",
            "type": "function"
        },
        {
            "inputs": [
                {
                    "internalType": "address",
                    "name": "_borrower",
                    "type": "address"
                }
            ],
            "name": "getTroveStatus",
            "outputs": [
                {
                    "internalType": "uint256",
                    "name": "",
                    "type": "uint256"
                }
            ],
            "stateMutability": "view",
            "type": "function"
        },
        {
            "inputs": [
                {
                    "internalType": "address",
                    "name": "_borrower",
                    "type": "address"
                }
            ],
            "name": "hasPendingRewards",
            "outputs": [
                {
                    "internalType": "bool",
                    "name": "",
                    "type": "bool"
                }
            ],
            "stateMutability": "view",
            "type": "function"
        },
        {
            "inputs": [
                {
                    "internalType": "address",
                    "name": "_borrower",
                    "type": "address"
                },
                {
                    "internalType": "uint256",
                    "name": "_collIncrease",
                    "type": "uint256"
                }
            ],
            "name": "increaseTroveColl",
            "outputs": [
                {
                    "internalType": "uint256",
                    "name": "",
                    "type": "uint256"
                }
            ],
            "stateMutability": "nonpayable",
            "type": "function"
        },
        {
            "inputs": [
                {
                    "internalType": "address",
                    "name": "_borrower",
                    "type": "address"
                },
                {
                    "internalType": "uint256",
                    "name": "_debtIncrease",
                    "type": "uint256"
                }
            ],
            "name": "increaseTroveDebt",
            "outputs": [
                {
                    "internalType": "uint256",
                    "name": "",
                    "type": "uint256"
                }
            ],
            "stateMutability": "nonpayable",
            "type": "function"
        },
        {
            "inputs": [],
            "name": "lastETHError_Redistribution",
            "outputs": [
                {
                    "internalType": "uint256",
                    "name": "",
                    "type": "uint256"
                }
            ],
            "stateMutability": "view",
            "type": "function"
        },
        {
            "inputs": [],
            "name": "lastFeeOperationTime",
            "outputs": [
                {
                    "internalType": "uint256",
                    "name": "",
                    "type": "uint256"
                }
            ],
            "stateMutability": "view",
            "type": "function"
        },
        {
            "inputs": [],
            "name": "lastZUSDDebtError_Redistribution",
            "outputs": [
                {
                    "internalType": "uint256",
                    "name": "",
                    "type": "uint256"
                }
            ],
            "stateMutability": "view",
            "type": "function"
        },
        {
            "inputs": [
                {
                    "internalType": "address",
                    "name": "_borrower",
                    "type": "address"
                }
            ],
            "name": "liquidate",
            "outputs": [],
            "stateMutability": "nonpayable",
            "type": "function"
        },
        {
            "inputs": [
                {
                    "internalType": "uint256",
                    "name": "_n",
                    "type": "uint256"
                }
            ],
            "name": "liquidateTroves",
            "outputs": [],
            "stateMutability": "nonpayable",
            "type": "function"
        },
        {
            "inputs": [],
            "name": "liquityBaseParams",
            "outputs": [
                {
                    "internalType": "contract ILiquityBaseParams",
                    "name": "",
                    "type": "address"
                }
            ],
            "stateMutability": "view",
            "type": "function"
        },
        {
            "inputs": [
                {
                    "internalType": "address",
                    "name": "owner",
                    "type": "address"
                }
            ],
            "name": "nonces",
            "outputs": [
                {
                    "internalType": "uint256",
                    "name": "",
                    "type": "uint256"
                }
            ],
            "stateMutability": "view",
            "type": "function"
        },
        {
            "inputs": [],
            "name": "permit2",
            "outputs": [
                {
                    "internalType": "contract IPermit2",
                    "name": "",
                    "type": "address"
                }
            ],
            "stateMutability": "view",
            "type": "function"
        },
        {
            "inputs": [],
            "name": "priceFeed",
            "outputs": [
                {
                    "internalType": "contract IPriceFeed",
                    "name": "",
                    "type": "address"
                }
            ],
            "stateMutability": "view",
            "type": "function"
        },
        {
            "inputs": [
                {
                    "internalType": "uint256",
                    "name": "_ZUSDamount",
                    "type": "uint256"
                },
                {
                    "internalType": "address",
                    "name": "_firstRedemptionHint",
                    "type": "address"
                },
                {
                    "internalType": "address",
                    "name": "_upperPartialRedemptionHint",
                    "type": "address"
                },
                {
                    "internalType": "address",
                    "name": "_lowerPartialRedemptionHint",
                    "type": "address"
                },
                {
                    "internalType": "uint256",
                    "name": "_partialRedemptionHintNICR",
                    "type": "uint256"
                },
                {
                    "internalType": "uint256",
                    "name": "_maxIterations",
                    "type": "uint256"
                },
                {
                    "internalType": "uint256",
                    "name": "_maxFeePercentage",
                    "type": "uint256"
                }
            ],
            "name": "redeemCollateral",
            "outputs": [],
            "stateMutability": "nonpayable",
            "type": "function"
        },
        {
            "inputs": [
                {
                    "internalType": "uint256",
                    "name": "_dllrAmount",
                    "type": "uint256"
                },
                {
                    "internalType": "address",
                    "name": "_firstRedemptionHint",
                    "type": "address"
                },
                {
                    "internalType": "address",
                    "name": "_upperPartialRedemptionHint",
                    "type": "address"
                },
                {
                    "internalType": "address",
                    "name": "_lowerPartialRedemptionHint",
                    "type": "address"
                },
                {
                    "internalType": "uint256",
                    "name": "_partialRedemptionHintNICR",
                    "type": "uint256"
                },
                {
                    "internalType": "uint256",
                    "name": "_maxIterations",
                    "type": "uint256"
                },
                {
                    "internalType": "uint256",
                    "name": "_maxFeePercentage",
                    "type": "uint256"
                },
                {
                    "components": [
                        {
                            "internalType": "uint256",
                            "name": "deadline",
                            "type": "uint256"
                        },
                        {
                            "internalType": "uint8",
                            "name": "v",
                            "type": "uint8"
                        },
                        {
                            "internalType": "bytes32",
                            "name": "r",
                            "type": "bytes32"
                        },
                        {
                            "internalType": "bytes32",
                            "name": "s",
                            "type": "bytes32"
                        }
                    ],
                    "internalType": "struct IMassetManager.PermitParams",
                    "name": "_permitParams",
                    "type": "tuple"
                }
            ],
            "name": "redeemCollateralViaDLLR",
            "outputs": [],
            "stateMutability": "nonpayable",
            "type": "function"
        },
        {
            "inputs": [
                {
                    "internalType": "uint256",
                    "name": "_dllrAmount",
                    "type": "uint256"
                },
                {
                    "internalType": "address",
                    "name": "_firstRedemptionHint",
                    "type": "address"
                },
                {
                    "internalType": "address",
                    "name": "_upperPartialRedemptionHint",
                    "type": "address"
                },
                {
                    "internalType": "address",
                    "name": "_lowerPartialRedemptionHint",
                    "type": "address"
                },
                {
                    "internalType": "uint256",
                    "name": "_partialRedemptionHintNICR",
                    "type": "uint256"
                },
                {
                    "internalType": "uint256",
                    "name": "_maxIterations",
                    "type": "uint256"
                },
                {
                    "internalType": "uint256",
                    "name": "_maxFeePercentage",
                    "type": "uint256"
                },
                {
                    "components": [
                        {
                            "components": [
                                {
                                    "internalType": "address",
                                    "name": "token",
                                    "type": "address"
                                },
                                {
                                    "internalType": "uint256",
                                    "name": "amount",
                                    "type": "uint256"
                                }
                            ],
                            "internalType": "struct ISignatureTransfer.TokenPermissions",
                            "name": "permitted",
                            "type": "tuple"
                        },
                        {
                            "internalType": "uint256",
                            "name": "nonce",
                            "type": "uint256"
                        },
                        {
                            "internalType": "uint256",
                            "name": "deadline",
                            "type": "uint256"
                        }
                    ],
                    "internalType": "struct ISignatureTransfer.PermitTransferFrom",
                    "name": "_permit",
                    "type": "tuple"
                },
                {
                    "internalType": "bytes",
                    "name": "_signature",
                    "type": "bytes"
                }
            ],
            "name": "redeemCollateralViaDllrWithPermit2",
            "outputs": [],
            "stateMutability": "nonpayable",
            "type": "function"
        },
        {
            "inputs": [
                {
                    "internalType": "address",
                    "name": "_borrower",
                    "type": "address"
                }
            ],
            "name": "removeStake",
            "outputs": [],
            "stateMutability": "nonpayable",
            "type": "function"
        },
        {
            "inputs": [
                {
                    "internalType": "address",
                    "name": "",
                    "type": "address"
                }
            ],
            "name": "rewardSnapshots",
            "outputs": [
                {
                    "internalType": "uint256",
                    "name": "ETH",
                    "type": "uint256"
                },
                {
                    "internalType": "uint256",
                    "name": "ZUSDDebt",
                    "type": "uint256"
                }
            ],
            "stateMutability": "view",
            "type": "function"
        },
        {
            "inputs": [
                {
                    "components": [
                        {
                            "internalType": "address",
                            "name": "_feeDistributorAddress",
                            "type": "address"
                        },
                        {
                            "internalType": "address",
                            "name": "_troveManagerRedeemOps",
                            "type": "address"
                        },
                        {
                            "internalType": "address",
                            "name": "_liquityBaseParamsAddress",
                            "type": "address"
                        },
                        {
                            "internalType": "address",
                            "name": "_borrowerOperationsAddress",
                            "type": "address"
                        },
                        {
                            "internalType": "address",
                            "name": "_activePoolAddress",
                            "type": "address"
                        },
                        {
                            "internalType": "address",
                            "name": "_defaultPoolAddress",
                            "type": "address"
                        },
                        {
                            "internalType": "address",
                            "name": "_stabilityPoolAddress",
                            "type": "address"
                        },
                        {
                            "internalType": "address",
                            "name": "_gasPoolAddress",
                            "type": "address"
                        },
                        {
                            "internalType": "address",
                            "name": "_collSurplusPoolAddress",
                            "type": "address"
                        },
                        {
                            "internalType": "address",
                            "name": "_priceFeedAddress",
                            "type": "address"
                        },
                        {
                            "internalType": "address",
                            "name": "_zusdTokenAddress",
                            "type": "address"
                        },
                        {
                            "internalType": "address",
                            "name": "_sortedTrovesAddress",
                            "type": "address"
                        },
                        {
                            "internalType": "address",
                            "name": "_zeroTokenAddress",
                            "type": "address"
                        },
                        {
                            "internalType": "address",
                            "name": "_zeroStakingAddress",
                            "type": "address"
                        }
                    ],
                    "internalType": "struct ITroveManager.TroveManagerInitAddressesParams",
                    "name": "_troveManagerInitAddressesParams",
                    "type": "tuple"
                }
            ],
            "name": "setAddresses",
            "outputs": [],
            "stateMutability": "nonpayable",
            "type": "function"
        },
        {
            "inputs": [
                {
                    "internalType": "address",
                    "name": "_owner",
                    "type": "address"
                }
            ],
            "name": "setOwner",
            "outputs": [],
            "stateMutability": "nonpayable",
            "type": "function"
        },
        {
            "inputs": [
                {
                    "internalType": "address",
                    "name": "_troveManagerRedeemOps",
                    "type": "address"
                }
            ],
            "name": "setTroveManagerRedeemOps",
            "outputs": [],
            "stateMutability": "nonpayable",
            "type": "function"
        },
        {
            "inputs": [
                {
                    "internalType": "address",
                    "name": "_borrower",
                    "type": "address"
                },
                {
                    "internalType": "uint256",
                    "name": "_num",
                    "type": "uint256"
                }
            ],
            "name": "setTroveStatus",
            "outputs": [],
            "stateMutability": "nonpayable",
            "type": "function"
        },
        {
            "inputs": [],
            "name": "sortedTroves",
            "outputs": [
                {
                    "internalType": "contract ISortedTroves",
                    "name": "",
                    "type": "address"
                }
            ],
            "stateMutability": "view",
            "type": "function"
        },
        {
            "inputs": [],
            "name": "totalCollateralSnapshot",
            "outputs": [
                {
                    "internalType": "uint256",
                    "name": "",
                    "type": "uint256"
                }
            ],
            "stateMutability": "view",
            "type": "function"
        },
        {
            "inputs": [],
            "name": "totalStakes",
            "outputs": [
                {
                    "internalType": "uint256",
                    "name": "",
                    "type": "uint256"
                }
            ],
            "stateMutability": "view",
            "type": "function"
        },
        {
            "inputs": [],
            "name": "totalStakesSnapshot",
            "outputs": [
                {
                    "internalType": "uint256",
                    "name": "",
                    "type": "uint256"
                }
            ],
            "stateMutability": "view",
            "type": "function"
        },
        {
            "inputs": [],
            "name": "troveManagerRedeemOps",
            "outputs": [
                {
                    "internalType": "address",
                    "name": "",
                    "type": "address"
                }
            ],
            "stateMutability": "view",
            "type": "function"
        },
        {
            "inputs": [
                {
                    "internalType": "address",
                    "name": "_borrower",
                    "type": "address"
                }
            ],
            "name": "updateStakeAndTotalStakes",
            "outputs": [
                {
                    "internalType": "uint256",
                    "name": "",
                    "type": "uint256"
                }
            ],
            "stateMutability": "nonpayable",
            "type": "function"
        },
        {
            "inputs": [
                {
                    "internalType": "address",
                    "name": "_borrower",
                    "type": "address"
                }
            ],
            "name": "updateTroveRewardSnapshots",
            "outputs": [],
            "stateMutability": "nonpayable",
            "type": "function"
        }
    ],
    "transactionHash": "0xdf43741a310b77907e6c6625836bb04f33f88b12e01d996d633cf016913200b6",
    "args": [
        "1209600",
        "0x000000000022d473030f116ddee9f6b43ac78ba3"
    ],
    "numDeployments": 1,
    "solcInputHash": "65434b29c64a0ebab4091e046aa9eff9",
    "bytecode": "0x60c06040523480156200001157600080fd5b506040516200592a3803806200592a83398101604081905262000034916200012b565b80826200004a336001600160e01b036200006616565b60805260601b6001600160601b03191660a05250620001c79050565b6001600160a01b038116620000985760405162461bcd60e51b81526004016200008f9062000185565b60405180910390fd5b6001600160a01b038116620000b56001600160e01b036200010a16565b6001600160a01b03167f8be0079c531659141344cd1fd0a4f28419497f9722a3daafe3b4186f6b6457e060405160405180910390a36000604051620000fa9062000168565b6040519081900390209190915550565b6000806040516200011b9062000168565b6040519081900390205492915050565b600080604083850312156200013e578182fd5b825160208401519092506001600160a01b03811681146200015d578182fd5b809150509250929050565b7035b2bc9737bbb730b136329737bbb732b960791b815260110190565b60208082526022908201527f4f776e61626c653a3a7365744f776e65723a20696e76616c6964206164647265604082015261737360f01b606082015260800190565b60805160a05160601c61573c620001ee6000398061100f525080612271525061573c6000f3fe608060405234801561001057600080fd5b50600436106104cd5760003560e01c8063756b253e11610283578063b0d8e1811161015c578063d293c710116100ce578063d815e8e911610092578063d815e8e914610978578063d9a7244414610980578063e056e91814610993578063e2ac77b0146109a6578063f36b2425146109b9578063fe2ba848146109c1576104cd565b8063d293c71014610924578063d380a37c14610937578063d3d6f8431461093f578063d5b3563514610952578063d66a255314610965576104cd565b8063be4b033411610120578063be4b0334146108e9578063bf9befb1146108f1578063c35bc550146108f9578063c52861f214610901578063c7b5548114610909578063cbd138ae14610911576104cd565b8063b0d8e18114610885578063b7f8cf9b14610898578063b82f263d146108a0578063b91af97c146108b3578063bcd37526146108d6576104cd565b8063887105d3116101f55780639dd233d2116101b95780639dd233d2146108505780639f07067014610858578063a20baee61461077e578063a3f4df7e14610860578063ae7bec1914610875578063ae9187541461087d576104cd565b8063887105d314610812578063893d20e81461081a57806396d711ff146108225780639708daf41461082a5780639976cf451461083d576104cd565b80637cf54e40116102475780637cf54e40146107c15780637ecebe00146107c95780637f7dde4a146107dc578063807d138d146107e457806382fe3eb9146107ec57806387436936146107ff576104cd565b8063756b253e1461078e578063759b3034146107a1578063794e5724146107a9578063795d26c3146107b1578063797250e3146107b9576104cd565b80633cc74225116103b557806361ec893d116103275780636b444952116102eb5780636b444952146107375780636ef643381461073f578063716c47e61461076357806372423c171461076b57806372fe25aa1461077e578063741bef1a14610786576104cd565b806361ec893d146106ee578063631203b0146106f657806364cee26014610709578063653d46e71461071c57806366ca4a211461072f576104cd565b80634a767d68116103795780634a767d68146106855780634e443d9e146106985780635733d58f146106b85780635d6b480f146106c05780635d8c9609146106d35780635dba4c4a146106e6576104cd565b80633cc742251461063c57806342ccf1e414610644578063477d66cf14610657578063480cd5781461066a57806349eefeee1461067d576104cd565b806317c62b171161044e5780631f68f20a116104125780631f68f20a146105f657806321e37801146105fe5780632b11551a146106115780632f8655681461061957806331c903b01461062c5780633a12859514610634576104cd565b806317c62b17146105a257806318f2817a146105b55780631a59a50e146105c85780631bf43555146105db5780631e8b1c2b146105e3576104cd565b806312261ee71161049557806312261ee71461054057806312610e921461054857806313af40351461055b57806315d549f11461056e5780631673c79a14610581576104cd565b806301f16e18146104d257806305b6f5ca146104e7578063071a7541146104fa5780630b076557146105185780630d43e8ad1461052b575b600080fd5b6104e56104e0366004614dd9565b6109d4565b005b6104e56104f5366004614fa4565b610f3a565b610502610fd1565b60405161050f91906155aa565b60405180910390f35b6104e5610526366004614ce2565b610fd6565b610533610ffe565b60405161050f9190615171565b61053361100d565b610502610556366004614d1a565b611031565b6104e5610569366004614ce2565b611089565b61050261057c366004614ce2565b6110ca565b61059461058f366004614ce2565b6110ee565b60405161050f9291906155b3565b6105026105b0366004614ce2565b611107565b6105026105c3366004614ce2565b611112565b6105026105d6366004614ce2565b611125565b6105026111eb565b6104e56105f1366004614d45565b6111f8565b610502611559565b61050261060c366004614ce2565b61155f565b610502611589565b6104e5610627366004614ce2565b611598565b6105026115fe565b61053361160b565b61053361161a565b610502610652366004614ce2565b611629565b610502610665366004614f07565b61165a565b610502610678366004614ce2565b61166d565b61050261168b565b610502610693366004614d1a565b611691565b6106ab6106a6366004614f07565b6116b0565b60405161050f91906151e4565b6105026116bb565b6104e56106ce366004614d1a565b611738565b6105026106e1366004614ce2565b611784565b6104e561178f565b6105026117fa565b610502610704366004614f07565b6117ff565b610502610717366004614ce2565b61180c565b6104e561072a366004614f07565b61182a565b610502611bb4565b610502611bc6565b61075261074d366004614ce2565b611bcc565b60405161050f9594939291906155e6565b610533611c06565b610502610779366004614d1a565b611c15565b610502611c72565b610533611c7e565b61053361079c366004614f07565b611c8d565b610502611cb4565b610502611cc1565b610502611d06565b610502611e25565b610533611e2b565b6105026107d7366004614ce2565b611e3a565b610533611e5b565b610502611e6a565b6104e56107fa366004614ce2565b611e70565b6104e561080d366004614ce2565b611e81565b610502611f0d565b610533611fdc565b610502611ffb565b6104e561083836600461502e565b612001565b61050261084b366004614d1a565b61209a565b6105026120cd565b6105336120d3565b6108686120e2565b60405161050f919061521c565b61053361210a565b610533612119565b610502610893366004614ce2565b612128565b61053361214f565b6105026108ae366004614f07565b61215e565b6108c66108c1366004614ce2565b612169565b60405161050f9493929190615645565b6104e56108e4366004614f37565b6121cd565b610502612263565b610502612269565b61050261226f565b610502612293565b6105026122a5565b6104e561091f366004614ce2565b6122b1565b610502610932366004614d1a565b6122c4565b6105026122d7565b61050261094d366004614d1a565b6122dd565b610502610960366004614f07565b612313565b610502610973366004614ce2565b612326565b610533612341565b61053361098e366004614f07565b612350565b6106ab6109a1366004614ce2565b61237a565b6106ab6109b4366004614ce2565b6123d8565b6105026123e3565b6104e56109cf366004614ce2565b6123f0565b6109dc611fdc565b6001600160a01b0316336001600160a01b031614610a155760405162461bcd60e51b8152600401610a0c90615407565b60405180910390fd5b8051610a2090612401565b610a2d8160200151612401565b610a3a8160400151612401565b610a478160600151612401565b610a548160800151612401565b610a618160a00151612401565b610a6e8160c00151612401565b610a7b8160e00151612401565b610a89816101000151612401565b610a97816101200151612401565b610aa5816101400151612401565b610ab3816101600151612401565b610ac1816101800151612401565b610acf816101a00151612401565b8051600c80546001600160a01b03199081166001600160a01b038085169190911790925560208401516004805483169184169190911790556040808501516003805484169185169190911790556060850151600580548416918516919091179055608085015160008054841691851691909117905560a085015160018054841691851691909117905560c085015160068054841691851691909117905560e0850151600780548416918516919091179055610100850151600880548416918516919091179055610120850151600280548416918516919091179055610140850151600980548416918516919091179055610160850151600d80548416918516919091179055610180850151600a805484169185169190911790556101a0850151600b80549093169316929092179055517f84861842e6a98dd759145eb5e7b48279d0f02ebeabc8a69e5196b2f4c5023db991610c2a91615171565b60405180910390a17f6493041f605f233753d9b16dd158c9f297b8eaca22b2d0dc402a454f5683a5b18160200151604051610c659190615171565b60405180910390a17fbf65195e6d5213f6fcbce65b1454c925197a45e616dabd2e243542b039b050928160600151604051610ca09190615171565b60405180910390a17f3ca631ffcd2a9b5d9ae18543fc82f58eb4ca33af9e6ab01b7a8e95331e6ed9858160600151604051610cdb9190615171565b60405180910390a17f78f058b189175430c48dc02699e3a0031ea4ff781536dc2fab847de4babdd8828160800151604051610d169190615171565b60405180910390a17f5ee0cae2f063ed938bb55046f6a932fb6ae792bf43624806bb90abe68a50be9b8160a00151604051610d519190615171565b60405180910390a17f82966d27eea39b038ee0fa30cd16532bb24f6e65d31cb58fb227aa5766cdcc7f8160c00151604051610d8c9190615171565b60405180910390a17fcfb07d791fcafc032b35837b50eb84b74df518cf4cc287e8084f47630fa70fa08160e00151604051610dc79190615171565b60405180910390a17fe67f36a6e961157d6eff83b91f3af5a62131ceb6f04954ef74f51c1c05e7f88d816101000151604051610e039190615171565b60405180910390a17f8c537274438aa850a330284665d81a85dd38267d09e4050d416bfc94142db264816101200151604051610e3f9190615171565b60405180910390a17fcdf33850c44a1a874b5fefb51dae615ac6afebd581ef90d571f81b06541d8e9d816101400151604051610e7b9190615171565b60405180910390a17f65f4cf077bc01e4742eb5ad98326f6e95b63548ea24b17f8d5e823111fe78800816101600151604051610eb79190615171565b60405180910390a17f61e0c29d5028a9e4facaa476a46e78912e99f1ba945c9560b86b82ebe36ee52d816101800151604051610ef39190615171565b60405180910390a17f7624075ed781e3aa34b0f492d70d1bb5a6fcde04534165e20f990d2e546be4dd816101a00151604051610f2f9190615171565b60405180910390a150565b6004546040516000916060916001600160a01b0390911690610f5f9084903690615144565b600060405180830381855af49150503d8060008114610f9a576040519150601f19603f3d011682016040523d82523d6000602084013e610f9f565b606091505b5091509150818190610fc45760405162461bcd60e51b8152600401610a0c919061521c565b5050505050505050505050565b600281565b610fde612446565b600054600154610ffb916001600160a01b03908116911683612472565b50565b600c546001600160a01b031681565b7f000000000000000000000000000000000000000000000000000000000000000081565b600061103b612446565b6001600160a01b038316600090815260106020526040812054611064908463ffffffff61258416565b6001600160a01b03851660009081526010602052604090208190559150505b92915050565b611091611fdc565b6001600160a01b0316336001600160a01b0316146110c15760405162461bcd60e51b8152600401610a0c90615407565b610ffb816125c6565b60006110d4612446565b6110dd82612651565b6001600160801b031690505b919050565b6016602052600090815260409020805460019091015482565b600061108382611629565b600061111c612446565b611083826126eb565b6001600160a01b0381166000908152601660205260408120546014548290611153908363ffffffff61258416565b905080158061118c575060016001600160a01b03851660009081526010602052604090206003015460ff16600481111561118957fe5b14155b1561119c576000925050506110e9565b6001600160a01b038416600090815260106020526040812060020154906111e1670de0b6b3a76400006111d5848663ffffffff61279e16565b9063ffffffff6127d816565b9695505050505050565b6809c2007651b250000081565b80516112165760405162461bcd60e51b8152600401610a0c90615438565b6000546001546006546001600160a01b03928316929182169116611238614b6e565b611240614b9f565b600260009054906101000a90046001600160a01b03166001600160a01b0316630fdb11cf6040518163ffffffff1660e01b8152600401602060405180830381600087803b15801561129057600080fd5b505af11580156112a4573d6000803e3d6000fd5b505050506040513d601f19601f820116820180604052508101906112c89190614f1f565b826000018181525050826001600160a01b031663bdaf37ea6040518163ffffffff1660e01b815260040160206040518083038186803b15801561130a57600080fd5b505afa15801561131e573d6000803e3d6000fd5b505050506040513d601f19601f820116820180604052508101906113429190614f1f565b602083015281516113529061281a565b158015604084015261137a576113738585846000015185602001518a6128b5565b9050611392565b61138f8585846000015185602001518a612bca565b90505b60008160200151116113b65760405162461bcd60e51b8152600401610a0c90615519565b608081015160a082015160405163335525ad60e01b81526001600160a01b0386169263335525ad926113ea926004016155b3565b600060405180830381600087803b15801561140457600080fd5b505af1158015611418573d6000803e3d6000fd5b5050505061143085858360c001518460e00151612d0a565b610100810151156114a7576008546101008201516040516364a197f360e01b81526001600160a01b03888116936364a197f3936114749392909116916004016151cb565b600060405180830381600087803b15801561148e57600080fd5b505af11580156114a2573d6000803e3d6000fd5b505050505b6114b5858260400151612f6e565b60208101516060830152610100810151604082015182516114ed92916114e1919063ffffffff61258416565b9063ffffffff61258416565b608083018190526060808401516040808501519285015190517f4152c73dd2614c4f9fc35e8c9cf16013cd588c75b49a4c1673ecffdcbcda9403946115359490929091615645565b60405180910390a16115518533836060015184604001516130cf565b505050505050565b600e5481565b6001600160a01b03811660009081526010602052604081206003015460ff16600481111561108357fe5b60006115936115fe565b905090565b6115a1816131ac565b6040805160018082528183019092526060916020808301908036833701905050905081816000815181106115d157fe5b60200260200101906001600160a01b031690816001600160a01b0316815250506115fa816111f8565b5050565b6000611593600e546131f5565b600b546001600160a01b031681565b6001546001600160a01b031681565b6001600160a01b0381166000908152601660205260408120600101546015548290611153908363ffffffff61258416565b6000611083611667611bb4565b83613292565b6001600160a01b031660009081526010602052604090206001015490565b60175490565b600080600061169f856132b0565b9150915060006111e1838387613336565b60006110838261281a565b60035460408051635733d58f60e01b815290516000926001600160a01b031691635733d58f916004808301926020929190829003018186803b15801561170057600080fd5b505afa158015611714573d6000803e3d6000fd5b505050506040513d601f19601f820116820180604052508101906115939190614f1f565b611740612446565b80600481111561174c57fe5b6001600160a01b0383166000908152601060205260409020600301805460ff1916600183600481111561177b57fe5b02179055505050565b600061108382611125565b611797612446565b60006117a1613368565b9050670de0b6b3a76400008111156117b557fe5b600e8190556040517fc454ee9b76c52f782a256af821b857ca6e125d1e3333bcede402fec2bed9600c906117ea9083906155aa565b60405180910390a1610ffb6133ac565b603c81565b60006110836116676123e3565b6001600160a01b031660009081526010602052604090206002015490565b611832614beb565b506040805160e081018252600080546001600160a01b0390811683526001548116602084015292820181905260608201819052600d548316608083015260a0820181905260c0820152600654909116611889614b6e565b611891614b9f565b600260009054906101000a90046001600160a01b03166001600160a01b0316630fdb11cf6040518163ffffffff1660e01b8152600401602060405180830381600087803b1580156118e157600080fd5b505af11580156118f5573d6000803e3d6000fd5b505050506040513d601f19601f820116820180604052508101906119199190614f1f565b826000018181525050826001600160a01b031663bdaf37ea6040518163ffffffff1660e01b815260040160206040518083038186803b15801561195b57600080fd5b505afa15801561196f573d6000803e3d6000fd5b505050506040513d601f19601f820116820180604052508101906119939190614f1f565b602083015281516119a39061281a565b15801560408401526119ca576119c3848360000151846020015188613401565b90506119ea565b6119e78460000151856020015184600001518560200151896138a8565b90505b6000816020015111611a0e5760405162461bcd60e51b8152600401610a0c90615519565b608081015160a082015160405163335525ad60e01b81526001600160a01b0386169263335525ad92611a42926004016155b3565b600060405180830381600087803b158015611a5c57600080fd5b505af1158015611a70573d6000803e3d6000fd5b50505050611a90846000015185602001518360c001518460e00151612d0a565b61010081015115611b075783516008546101008301516040516364a197f360e01b81526001600160a01b03938416936364a197f393611ad4939116916004016151cb565b600060405180830381600087803b158015611aee57600080fd5b505af1158015611b02573d6000803e3d6000fd5b505050505b611b1984600001518260400151612f6e565b6020810151606083015261010081015160408201518251611b4592916114e1919063ffffffff61258416565b608083018190526060808401516040808501519285015190517f4152c73dd2614c4f9fc35e8c9cf16013cd588c75b49a4c1673ecffdcbcda940394611b8d9490929091615645565b60405180910390a1611bad846000015133836060015184604001516130cf565b5050505050565b6000611593611bc1613368565b613a5e565b60195481565b60106020526000908152604090208054600182015460028301546003909301549192909160ff81169061010090046001600160801b031685565b6004546001600160a01b031681565b6000611c1f612446565b6001600160a01b038316600090815260106020526040812060010154611c4b908463ffffffff613b4016565b6001600160a01b038516600090815260106020526040902060010181905591505092915050565b670de0b6b3a764000081565b6002546001600160a01b031681565b60178181548110611c9a57fe5b6000918252602090912001546001600160a01b0316905081565b6801158e460913d0000081565b60035460408051631e5395c960e21b815290516000926001600160a01b03169163794e5724916004808301926020929190829003018186803b15801561170057600080fd5b60008054604080516272c7d360e71b8152905183926001600160a01b031691633963e980916004808301926020929190829003018186803b158015611d4a57600080fd5b505afa158015611d5e573d6000803e3d6000fd5b505050506040513d601f19601f82011682018060405250810190611d829190614f1f565b90506000600160009054906101000a90046001600160a01b03166001600160a01b0316633963e9806040518163ffffffff1660e01b815260040160206040518083038186803b158015611dd457600080fd5b505afa158015611de8573d6000803e3d6000fd5b505050506040513d601f19601f82011682018060405250810190611e0c9190614f1f565b9050611e1e828263ffffffff613b4016565b9250505090565b60185481565b600a546001600160a01b031681565b6001600160a01b0381166000908152601a6020526040812061108390613b65565b6000546001600160a01b031681565b60125481565b611e78612446565b610ffb81613b69565b611e89611fdc565b6001600160a01b0316336001600160a01b031614611eb95760405162461bcd60e51b8152600401610a0c90615407565b611ec281612401565b600480546001600160a01b0319166001600160a01b0383161790556040517f6493041f605f233753d9b16dd158c9f297b8eaca22b2d0dc402a454f5683a5b190610f2f908390615171565b6000805460408051630a7b61df60e11b8152905183926001600160a01b0316916314f6c3be916004808301926020929190829003018186803b158015611f5257600080fd5b505afa158015611f66573d6000803e3d6000fd5b505050506040513d601f19601f82011682018060405250810190611f8a9190614f1f565b90506000600160009054906101000a90046001600160a01b03166001600160a01b03166314f6c3be6040518163ffffffff1660e01b815260040160206040518083038186803b158015611dd457600080fd5b600080604051611feb90615154565b6040519081900390205492915050565b60135481565b6004546040516000916060916001600160a01b03909116906120269084903690615144565b600060405180830381855af49150503d8060008114612061576040519150601f19603f3d011682016040523d82523d6000602084013e612066565b606091505b509150915081819061208b5760405162461bcd60e51b8152600401610a0c919061521c565b50505050505050505050505050565b60006120a4612446565b6001600160a01b038316600090815260106020526040812054611064908463ffffffff613b4016565b60145481565b6003546001600160a01b031681565b6040518060400160405280600c81526020016b2a3937bb32a6b0b730b3b2b960a11b81525081565b6006546001600160a01b031681565b600d546001600160a01b031681565b6000806000612136846132b0565b9150915060006121468383613bc6565b95945050505050565b6005546001600160a01b031681565b600061108382613bfb565b6001600160a01b0381166000908152601060205260408120805460019091015490918061219585611107565b91506121a085611784565b90506121b2848363ffffffff613b4016565b93506121c4838263ffffffff613b4016565b92509193509193565b6004546040516000916060916001600160a01b03909116906121f29084903690615144565b600060405180830381855af49150503d806000811461222d576040519150601f19603f3d011682016040523d82523d6000602084013e612232565b606091505b50915091508181906122575760405162461bcd60e51b8152600401610a0c919061521c565b50505050505050505050565b60155481565b60115481565b7f000000000000000000000000000000000000000000000000000000000000000081565b60006115936122a0613368565b6131f5565b670ddd4b8c6c7d70d881565b6122b9612446565b610ffb816002613c27565b60006122d08383611691565b9392505050565b600f5481565b60006122e7612446565b6001600160a01b038316600090815260106020526040812060010154611c4b908463ffffffff61258416565b6000611083612320612293565b83613d3c565b6001600160a01b031660009081526010602052604090205490565b6009546001600160a01b031681565b60006017828154811061235f57fe5b6000918252602090912001546001600160a01b031692915050565b600060016001600160a01b03831660009081526010602052604090206003015460ff1660048111156123a857fe5b146123b5575060006110e9565b506014546001600160a01b03821660009081526016602052604090205410919050565b60006110838261237a565b6000611593600e54613a5e565b6123f8612446565b610ffb81613d7c565b6001600160a01b0381166124275760405162461bcd60e51b8152600401610a0c906152e8565b803b806115fa5760405162461bcd60e51b8152600401610a0c9061548e565b6005546001600160a01b031633146124705760405162461bcd60e51b8152600401610a0c906153aa565b565b61247b8161237a565b1561257f57612489816131ac565b600061249482611125565b905060006124a183611629565b6001600160a01b0384166000908152601060205260409020600101549091506124d0908363ffffffff613b4016565b6001600160a01b0384166000908152601060205260409020600181019190915554612501908263ffffffff613b4016565b6001600160a01b03841660009081526010602052604090205561252383613b69565b61252f85858385613dcc565b6001600160a01b0383166000818152601060205260408082208054600182015460029092015492516000805160206156e7833981519152946125749492939291615626565b60405180910390a250505b505050565b60006122d083836040518060400160405280601e81526020017f536166654d6174683a207375627472616374696f6e206f766572666c6f770000815250613eb4565b6001600160a01b0381166125ec5760405162461bcd60e51b8152600401610a0c906152a6565b806001600160a01b03166125fe611fdc565b6001600160a01b03167f8be0079c531659141344cd1fd0a4f28419497f9722a3daafe3b4186f6b6457e060405160405180910390a3600060405161264190615154565b6040519081900390209190915550565b601780546001808201835560008381527fc624b66cc0138b8fabc209247f72d758e1cf3343756d543badbf24212bed8c1590920180546001600160a01b0319166001600160a01b038616179055915490916126ac9190612584565b6001600160a01b039290921660009081526010602052604090206003018054610100600160881b0319166101006001600160801b038516021790555090565b6001600160a01b038116600090815260106020526040812060010154819061271290613ee0565b6001600160a01b03841660009081526010602052604090206002018054908290556011549192509061275c908390612750908463ffffffff61258416565b9063ffffffff613b4016565b60118190556040517f6bac5e0eb3c44eb03a60ab11ec3a2c051771616aecadbcfff2630aabae5203829161278f916155aa565b60405180910390a15092915050565b6000826127ad57506000611083565b828202828482816127ba57fe5b04146122d05760405162461bcd60e51b8152600401610a0c90615369565b60006122d083836040518060400160405280601a81526020017f536166654d6174683a206469766973696f6e206279207a65726f000000000000815250613f1c565b60008061282683613bfb565b9050600360009054906101000a90046001600160a01b03166001600160a01b0316635733d58f6040518163ffffffff1660e01b815260040160206040518083038186803b15801561287657600080fd5b505afa15801561288a573d6000803e3d6000fd5b505050506040513d601f19601f820116820180604052508101906128ae9190614f1f565b1192915050565b6128bd614b9f565b6128c5614c27565b6128cd614b9f565b848252600060808301526128df611d06565b60a08301526128ec611f0d565b60c0830152600060208301525b835182602001511015612bbf578382602001518151811061291657fe5b6020908102919091018101516001600160a01b03166060840181905260009081526010909152604090206003015460019060ff16600481111561295557fe5b1461295f57612baf565b61296d826060015187611691565b60408301526080820151612ad457600360009054906101000a90046001600160a01b03166001600160a01b031663794e57246040518163ffffffff1660e01b815260040160206040518083038186803b1580156129c957600080fd5b505afa1580156129dd573d6000803e3d6000fd5b505050506040513d601f19601f82011682018060405250810190612a019190614f1f565b826040015110158015612a1357508151155b15612a1d57612baf565b6000612a328360c001518460a0015189613336565b9050612a4f8989856060015186604001518760000151868d613f53565b60808101518451919350612a69919063ffffffff61258416565b8352608082015160a0840151612a849163ffffffff61258416565b60a08085019190915282015160c0840151612aa49163ffffffff61258416565b60c0840152612ab38483614329565b9350612ac88360c001518460a0015189614440565b15608084015250612baf565b81608001518015612b6d5750600360009054906101000a90046001600160a01b03166001600160a01b031663794e57246040518163ffffffff1660e01b815260040160206040518083038186803b158015612b2e57600080fd5b505afa158015612b42573d6000803e3d6000fd5b505050506040513d601f19601f82011682018060405250810190612b669190614f1f565b8260400151105b15612baf57612b868888846060015185600001516144df565b60808101518351919250612ba0919063ffffffff61258416565b8252612bac8382614329565b92505b60208201805160010190526128f9565b505095945050505050565b612bd2614b9f565b612bda614c27565b612be2614b9f565b848252600060208301525b835182602001511015612bbf5783826020015181518110612c0a57fe5b60209081029190910101516001600160a01b031660608301819052612c2f9087611691565b6040808401919091526003548151631e5395c960e21b815291516001600160a01b039091169163794e5724916004808301926020929190829003018186803b158015612c7a57600080fd5b505afa158015612c8e573d6000803e3d6000fd5b505050506040513d601f19601f82011682018060405250810190612cb29190614f1f565b82604001511015612cfa57612cd18888846060015185600001516144df565b60808101518351919250612ceb919063ffffffff61258416565b8252612cf78382614329565b92505b6020820180516001019052612bed565b81612d1457612f68565b601854600090612d369061275084670de0b6b3a764000063ffffffff61279e16565b90506000612d5b601954612750670de0b6b3a76400008761279e90919063ffffffff16565b90506000612d74601154846127d890919063ffffffff16565b90506000612d8d601154846127d890919063ffffffff16565b9050612db4612da76011548461279e90919063ffffffff16565b859063ffffffff61258416565b601855601154612ddc90612dcf90839063ffffffff61279e16565b849063ffffffff61258416565b601955601454612df2908363ffffffff613b4016565b601455601554612e08908263ffffffff613b4016565b60158190556014546040517f9f8bc8ab0daf5bceef75ecfd2085d1fcc6548c657ea970d9a23a60610d0737e392612e3f92916155b3565b60405180910390a160405163121cbc4d60e11b81526001600160a01b03891690632439789a90612e739089906004016155aa565b600060405180830381600087803b158015612e8d57600080fd5b505af1158015612ea1573d6000803e3d6000fd5b505060405163f2e91d7160e01b81526001600160a01b038a16925063f2e91d719150612ed19089906004016155aa565b600060405180830381600087803b158015612eeb57600080fd5b505af1158015612eff573d6000803e3d6000fd5b50506040516364a197f360e01b81526001600160a01b038b1692506364a197f39150612f31908a9089906004016151cb565b600060405180830381600087803b158015612f4b57600080fd5b505af1158015612f5f573d6000803e3d6000fd5b50505050505050505b50505050565b6011546012819055506000826001600160a01b03166314f6c3be6040518163ffffffff1660e01b815260040160206040518083038186803b158015612fb257600080fd5b505afa158015612fc6573d6000803e3d6000fd5b505050506040513d601f19601f82011682018060405250810190612fea9190614f1f565b90506000600160009054906101000a90046001600160a01b03166001600160a01b03166314f6c3be6040518163ffffffff1660e01b815260040160206040518083038186803b15801561303c57600080fd5b505afa158015613050573d6000803e3d6000fd5b505050506040513d601f19601f820116820180604052508101906130749190614f1f565b905061308a81612750848663ffffffff61258416565b60138190556012546040517f51bf4c63ec3cba9d03d43238abbdd979dd91bd16d9895c74ceea9118c7baaf60926130c192916155b3565b60405180910390a150505050565b811561314057600954600754604051631062c15f60e11b81526001600160a01b03928316926320c582be9261310d9291169087908790600401615185565b600060405180830381600087803b15801561312757600080fd5b505af115801561313b573d6000803e3d6000fd5b505050505b8015612f68576040516364a197f360e01b81526001600160a01b038516906364a197f39061317490869085906004016151cb565b600060405180830381600087803b15801561318e57600080fd5b505af11580156131a2573d6000803e3d6000fd5b5050505050505050565b60016001600160a01b03821660009081526010602052604090206003015460ff1660048111156131d857fe5b14610ffb5760405162461bcd60e51b8152600401610a0c9061555b565b600061108361328483600360009054906101000a90046001600160a01b03166001600160a01b03166328d28b5b6040518163ffffffff1660e01b815260040160206040518083038186803b15801561324c57600080fd5b505afa158015613260573d6000803e3d6000fd5b505050506040513d601f19601f820116820180604052508101906127509190614f1f565b670de0b6b3a7640000614611565b60006122d0670de0b6b3a76400006111d5858563ffffffff61279e16565b60008060006132be84611125565b905060006132cb85611629565b6001600160a01b038616600090815260106020526040812060010154919250906132fb908463ffffffff613b4016565b6001600160a01b03871660009081526010602052604081205491925090613328908463ffffffff613b4016565b919550909350505050915091565b6000821561335d576000613354846111d5878663ffffffff61279e16565b91506122d09050565b506000199392505050565b600080613373614627565b90506000613389670ddd4b8c6c7d70d883614643565b9050611e1e670de0b6b3a76400006111d583600e5461279e90919063ffffffff16565b60006133c3600f544261258490919063ffffffff16565b9050603c8110610ffb5742600f8190556040517f860f8d2f0c74dd487e89e2883e3b25b8159ce1e1b3433a291cba7b82c508f3bc91610f2f916155aa565b613409614b9f565b613411614c27565b613419614b9f565b8482526000608083015261342b611d06565b60a0830152613438611f0d565b8260c001818152505086608001516001600160a01b0316634d6228316040518163ffffffff1660e01b815260040160206040518083038186803b15801561347e57600080fd5b505afa158015613492573d6000803e3d6000fd5b505050506040513d601f19601f820116820180604052508101906134b69190614cfe565b82606001906001600160a01b031690816001600160a01b031681525050600087608001516001600160a01b0316631e2231436040518163ffffffff1660e01b815260040160206040518083038186803b15801561351257600080fd5b505afa158015613526573d6000803e3d6000fd5b505050506040513d601f19601f8201168201806040525081019061354a9190614cfe565b6000602085015290505b84836020015110801561357d5750806001600160a01b031683606001516001600160a01b031614155b1561389d5760808801516060840151604051632dc9c0eb60e21b81526000926001600160a01b03169163b72703ac916135b99190600401615171565b60206040518083038186803b1580156135d157600080fd5b505afa1580156135e5573d6000803e3d6000fd5b505050506040513d601f19601f820116820180604052508101906136099190614cfe565b9050613619846060015189611691565b6040850152608084015161379257600360009054906101000a90046001600160a01b03166001600160a01b031663794e57246040518163ffffffff1660e01b815260040160206040518083038186803b15801561367557600080fd5b505afa158015613689573d6000803e3d6000fd5b505050506040513d601f19601f820116820180604052508101906136ad9190614f1f565b8460400151101580156136bf57508351155b156136ca575061389d565b60006136df8560c001518660a001518b613336565b8a5160208c015160608801516040890151895194955061370094868f613f53565b6080810151865191955061371a919063ffffffff61258416565b8552608084015160a08601516137359163ffffffff61258416565b8560a00181815250506137628461010001516114e18660a001518860c0015161258490919063ffffffff16565b60c08601526137718685614329565b95506137868560c001518660a001518b614440565b1560808601525061387f565b8360800151801561382b5750600360009054906101000a90046001600160a01b03166001600160a01b031663794e57246040518163ffffffff1660e01b815260040160206040518083038186803b1580156137ec57600080fd5b505afa158015613800573d6000803e3d6000fd5b505050506040513d601f19601f820116820180604052508101906138249190614f1f565b8460400151105b156138795761384c89600001518a60200151866060015187600001516144df565b60808101518551919450613866919063ffffffff61258416565b84526138728584614329565b945061387f565b5061389d565b6001600160a01b031660608401526020830180516001019052613554565b505050949350505050565b6138b0614b9f565b6138b8614c27565b6138c0614b9f565b600d54858352600060208401526001600160a01b03165b8483602001511015613a5257806001600160a01b0316634d6228316040518163ffffffff1660e01b815260040160206040518083038186803b15801561391c57600080fd5b505afa158015613930573d6000803e3d6000fd5b505050506040513d601f19601f820116820180604052508101906139549190614cfe565b6001600160a01b03166060840181905261396e9088611691565b6040808501919091526003548151631e5395c960e21b815291516001600160a01b039091169163794e5724916004808301926020929190829003018186803b1580156139b957600080fd5b505afa1580156139cd573d6000803e3d6000fd5b505050506040513d601f19601f820116820180604052508101906139f19190614f1f565b83604001511015613a3d57613a108989856060015186600001516144df565b60808101518451919350613a2a919063ffffffff61258416565b8352613a368483614329565b9350613a42565b613a52565b60208301805160010190526138d7565b50505095945050505050565b6000611083613ab583600360009054906101000a90046001600160a01b03166001600160a01b031663f92d34336040518163ffffffff1660e01b815260040160206040518083038186803b15801561324c57600080fd5b600360009054906101000a90046001600160a01b03166001600160a01b031663240926696040518163ffffffff1660e01b815260040160206040518083038186803b158015613b0357600080fd5b505afa158015613b17573d6000803e3d6000fd5b505050506040513d601f19601f82011682018060405250810190613b3b9190614f1f565b614611565b6000828201838110156122d05760405162461bcd60e51b8152600401610a0c9061526f565b5490565b601480546001600160a01b038316600090815260166020526040908190209182556015546001909201829055915491517fc437f324d85e369394148dd9d62f98f534b382e01ed3dd2eb98138fb6d3ab49a92610f2f9290916155b3565b60008115613bf257613beb826111d58568056bc75e2d6310000063ffffffff61279e16565b9050611083565b50600019611083565b600080613c06611f0d565b90506000613c12611d06565b9050613c1f828286613336565b949350505050565b6000816004811115613c3557fe5b14158015613c4f57506001816004811115613c4c57fe5b14155b613c5557fe5b601754613c61816146ee565b6001600160a01b0383166000908152601060205260409020600301805483919060ff19166001836004811115613c9357fe5b02179055506001600160a01b0383166000908152601060209081526040808320600180820185905590849055601690925282208281550155613cd58382614794565b600d54604051631484968760e11b81526001600160a01b03909116906329092d0e90613d05908690600401615171565b600060405180830381600087803b158015613d1f57600080fd5b505af1158015613d33573d6000803e3d6000fd5b50505050505050565b600080613d5b670de0b6b3a76400006111d5868663ffffffff61279e16565b90508281106122d05760405162461bcd60e51b8152600401610a0c906154c3565b6001600160a01b038116600090815260106020526040902060020154601154613dab908263ffffffff61258416565b601155506001600160a01b0316600090815260106020526040812060020155565b60405163121cbc4d60e11b81526001600160a01b03841690632439789a90613df89085906004016155aa565b600060405180830381600087803b158015613e1257600080fd5b505af1158015613e26573d6000803e3d6000fd5b505060405163f2e91d7160e01b81526001600160a01b038716925063f2e91d719150613e569085906004016155aa565b600060405180830381600087803b158015613e7057600080fd5b505af1158015613e84573d6000803e3d6000fd5b505060405163be41205f60e01b81526001600160a01b038616925063be41205f91506131749084906004016155aa565b60008184841115613ed85760405162461bcd60e51b8152600401610a0c919061521c565b505050900390565b60008060135460001415613ef5575081611083565b600060125411613f0157fe5b6122d06013546111d56012548661279e90919063ffffffff16565b60008183613f3d5760405162461bcd60e51b8152600401610a0c919061521c565b506000838581613f4957fe5b0495945050505050565b613f5b614b9f565b613f63614c6f565b601754600110613f73575061431e565b613f7c87612169565b60408501526020848101919091528401819052908352613f9b90614935565b604083018190526801158e460913d0000060608401526020830151613fc59163ffffffff61258416565b8152670de0b6b3a7640000861161409057613fea898983602001518460400151613dcc565b613ff387613d7c565b60006080830181905260a0830152815160c0830152805160e083015261401a876003613c27565b815160208301516040516001600160a01b038a16926000805160206156c78339815191529261404b926002906155c1565b60405180910390a2866001600160a01b03166000805160206156e78339815191526000806000600260405161408394939291906151ef565b60405180910390a261431c565b670de0b6b3a76400008611801561412b5750600360009054906101000a90046001600160a01b03166001600160a01b031663794e57246040518163ffffffff1660e01b815260040160206040518083038186803b1580156140f057600080fd5b505afa158015614104573d6000803e3d6000fd5b505050506040513d601f19601f820116820180604052508101906141289190614f1f565b86105b1561417b57614144898983602001518460400151613dcc565b61414d87613d7c565b8151815161415c9190876149c1565b60e086015260c085015260a0840152608083015261401a876003613c27565b600360009054906101000a90046001600160a01b03166001600160a01b031663794e57246040518163ffffffff1660e01b815260040160206040518083038186803b1580156141c957600080fd5b505afa1580156141dd573d6000803e3d6000fd5b505050506040513d601f19601f820116820180604052508101906142019190614f1f565b861015801561420f57508386105b801561421c575081518510155b1561430b57614235898983602001518460400151613dcc565b8461423c57fe5b61424587613d7c565b6142588260000151836020015185614a2d565b9150614265876003613c27565b610100820151156142da57600854610100830151604051633f10abab60e01b81526001600160a01b0390921691633f10abab916142a7918b91906004016151cb565b600060405180830381600087803b1580156142c157600080fd5b505af11580156142d5573d6000803e3d6000fd5b505050505b815160a08301516040516001600160a01b038a16926000805160206156c78339815191529261404b926002906155c1565b614313614b9f565b915061431e9050565b505b979650505050505050565b614331614b9f565b6040808301519084015161434a9163ffffffff613b4016565b6040820152606080830151908401516143689163ffffffff613b4016565b6060820152815160208401516143839163ffffffff613b4016565b60208083019190915282015183516143a09163ffffffff613b4016565b8152608080830151908401516143bb9163ffffffff613b4016565b608082015260a080830151908401516143d99163ffffffff613b4016565b60a082015260c080830151908401516143f79163ffffffff613b4016565b60c082015260e080830151908401516144159163ffffffff613b4016565b60e082015261010080830151908401516144349163ffffffff613b4016565b61010082015292915050565b60008061444e858585613336565b9050600360009054906101000a90046001600160a01b03166001600160a01b0316635733d58f6040518163ffffffff1660e01b815260040160206040518083038186803b15801561449e57600080fd5b505afa1580156144b2573d6000803e3d6000fd5b505050506040513d601f19601f820116820180604052508101906144d69190614f1f565b11949350505050565b6144e7614b9f565b6144ef614c6f565b6144f884612169565b60408501908152602085810192835286019290925291845290519051614522918891889190613dcc565b61452b84613d7c565b6145388260200151614935565b604083018190526801158e460913d0000060608401526020830151600091614566919063ffffffff61258416565b9050614577836000015182866149c1565b60e087015260c086015260a08501526080840152614596856003613c27565b825160208401516040516001600160a01b038816926000805160206156c7833981519152926145c7926001906155c1565b60405180910390a2846001600160a01b03166000805160206156e7833981519152600080600060016040516145ff94939291906151ef565b60405180910390a25050949350505050565b600081831061462057816122d0565b5090919050565b6000611593603c6111d5600f544261258490919063ffffffff16565b6000631f54050082111561465957631f54050091505b8161466d5750670de0b6b3a7640000611083565b670de0b6b3a764000083835b60018111156146e457600281066146ae576146948283614b3b565b91506146a781600263ffffffff6127d816565b90506146df565b6146b88284614b3b565b92506146c48283614b3b565b91506146dc60026111d583600163ffffffff61258416565b90505b614679565b6111e18284614b3b565b6001811180156147785750600d546040805163de8fa43160e01b815290516001926001600160a01b03169163de8fa431916004808301926020929190829003018186803b15801561473e57600080fd5b505afa158015614752573d6000803e3d6000fd5b505050506040513d601f19601f820116820180604052508101906147769190614f1f565b115b610ffb5760405162461bcd60e51b8152600401610a0c9061531f565b6001600160a01b03821660009081526010602052604081206003015460ff16908160048111156147c057fe5b141580156147da575060018160048111156147d757fe5b14155b6147e057fe5b6001600160a01b03831660009081526010602052604081206003015461010090046001600160801b0316908390614818826001612584565b905080836001600160801b0316111561482d57fe5b60006017828154811061483c57fe5b600091825260209091200154601780546001600160a01b03909216925082916001600160801b03871690811061486e57fe5b600091825260208083209190910180546001600160a01b0319166001600160a01b03948516179055918316815260109091526040908190206003018054610100600160881b0319166101006001600160801b03881602179055517f02b04ae5f7be9ca7c103293a2aa15f3c339d15d6eda53b721fef7b0e609c831a906148f790839087906151a9565b60405180910390a1601780548061490a57fe5b600082815260209020810160001990810180546001600160a01b031916905501905550505050505050565b600354604080516324386ecd60e11b815290516000926001600160a01b031691634870dd9a916004808301926020929190829003018186803b15801561497a57600080fd5b505afa15801561498e573d6000803e3d6000fd5b505050506040513d601f19601f820116820180604052508101906149b29190614f1f565b82816149ba57fe5b0492915050565b60008080808415614a17576149d68786614611565b93506149ec876111d5888763ffffffff61279e16565b92506149fe878563ffffffff61258416565b9150614a10868463ffffffff61258416565b9050614a24565b5060009250829150859050845b93509350935093565b614a35614b9f565b838152602080820184905260035460408051631e5395c960e21b81529051600093614ad19387936111d5936001600160a01b039092169263794e572492600480840193829003018186803b158015614a8c57600080fd5b505afa158015614aa0573d6000803e3d6000fd5b505050506040513d601f19601f82011682018060405250810190614ac49190614f1f565b889063ffffffff61279e16565b9050614adc81614935565b604083018190526801158e460913d00000606084015260808301869052614b0a90829063ffffffff61258416565b60a0830152614b1f848263ffffffff61258416565b61010083015250600060c0820181905260e08201529392505050565b600080614b4e848463ffffffff61279e16565b9050613c1f670de0b6b3a76400006111d5836706f05b59d3b20000613b40565b6040518060a00160405280600081526020016000815260200160001515815260200160008152602001600081525090565b6040518061012001604052806000815260200160008152602001600081526020016000815260200160008152602001600081526020016000815260200160008152602001600081525090565b6040805160e081018252600080825260208201819052918101829052606081018290526080810182905260a0810182905260c081019190915290565b6040518060e0016040528060008152602001600081526020016000815260200160006001600160a01b0316815260200160001515815260200160008152602001600081525090565b60405180606001604052806000815260200160008152602001600081525090565b8035611083816156b1565b60008083601f840112614cac578081fd5b50813567ffffffffffffffff811115614cc3578182fd5b602083019150836020828501011115614cdb57600080fd5b9250929050565b600060208284031215614cf3578081fd5b81356122d0816156b1565b600060208284031215614d0f578081fd5b81516122d0816156b1565b60008060408385031215614d2c578081fd5b8235614d37816156b1565b946020939093013593505050565b60006020808385031215614d57578182fd5b823567ffffffffffffffff811115614d6d578283fd5b80840185601f820112614d7e578384fd5b80359150614d93614d8e83615687565b615660565b8281528381019082850185850284018601891015614daf578687fd5b8693505b8484101561431c57614dc58982614c90565b835260019390930192918501918501614db3565b60006101c0808385031215614dec578182fd5b614df581615660565b614dff8585614c90565b8152614e0e8560208601614c90565b6020820152614e208560408601614c90565b6040820152614e328560608601614c90565b6060820152614e448560808601614c90565b6080820152614e568560a08601614c90565b60a0820152614e688560c08601614c90565b60c0820152614e7a8560e08601614c90565b60e08201526101009150614e9085838601614c90565b828201526101209150614ea585838601614c90565b828201526101409150614eba85838601614c90565b828201526101609150614ecf85838601614c90565b828201526101809150614ee485838601614c90565b828201526101a09150614ef985838601614c90565b918101919091529392505050565b600060208284031215614f18578081fd5b5035919050565b600060208284031215614f30578081fd5b5051919050565b600080600080600080600060e0888a031215614f51578283fd5b873596506020880135614f63816156b1565b95506040880135614f73816156b1565b94506060880135614f83816156b1565b9699959850939660808101359560a0820135955060c0909101359350915050565b600080600080600080600080888a03610160811215614fc1578182fd5b8935985060208a0135614fd3816156b1565b975060408a0135614fe3816156b1565b965060608a0135614ff3816156b1565b955060808a810135955060a08b0135945060c08b0135935060df198201121561501a578182fd5b5060e0890190509295985092959890939650565b6000806000806000806000806000808a8c0361018081121561504e578485fd5b8b359a5060208c0135615060816156b1565b995060408c0135615070816156b1565b985060608c0135615080816156b1565b975060808c810135975060a08d0135965060c08d0135955060df198201908112156150a9578384fd5b6150b36060615660565b915060408112156150c2578384fd5b506150cd6040615660565b60e08d01356150db816156b1565b81526101008d01356020808301919091529082526101208d0135908201526101408c0135604082015292506101608b013567ffffffffffffffff811115615120578283fd5b61512c8d828e01614c9b565b8194508093505050509295989b9194979a5092959850565b6000828483379101908152919050565b7035b2bc9737bbb730b136329737bbb732b960791b815260110190565b6001600160a01b0391909116815260200190565b6001600160a01b039384168152919092166020820152604081019190915260600190565b6001600160a01b039290921682526001600160801b0316602082015260400190565b6001600160a01b03929092168252602082015260400190565b901515815260200190565b84815260208101849052604081018390526080810161520d836156a7565b82606083015295945050505050565b6000602080835283518082850152825b818110156152485785810183015185820160400152820161522c565b818111156152595783604083870101525b50601f01601f1916929092016040019392505050565b6020808252601b908201527f536166654d6174683a206164646974696f6e206f766572666c6f770000000000604082015260600190565b60208082526022908201527f4f776e61626c653a3a7365744f776e65723a20696e76616c6964206164647265604082015261737360f01b606082015260800190565b6020808252601e908201527f4163636f756e742063616e6e6f74206265207a65726f20616464726573730000604082015260600190565b6020808252602a908201527f54726f76654d616e616765723a204f6e6c79206f6e652074726f766520696e206040820152697468652073797374656d60b01b606082015260800190565b60208082526021908201527f536166654d6174683a206d756c7469706c69636174696f6e206f766572666c6f6040820152607760f81b606082015260800190565b6020808252603b908201527f54726f76654d616e616765723a2043616c6c6572206973206e6f74207468652060408201527f426f72726f7765724f7065726174696f6e7320636f6e74726163740000000000606082015260800190565b60208082526017908201527613dddb98589b194e8e881858d8d95cdcc819195b9a5959604a1b604082015260600190565b60208082526036908201527f54726f76654d616e616765723a2043616c6c646174612061646472657373206160408201527572726179206d757374206e6f7420626520656d70747960501b606082015260800190565b6020808252818101527f4163636f756e7420636f64652073697a652063616e6e6f74206265207a65726f604082015260600190565b60208082526036908201527f54726f76654d616e616765723a2046656520776f756c642065617420757020616040820152751b1b081c995d1d5c9b99590818dbdb1b185d195c985b60521b606082015260800190565b60208082526022908201527f54726f76654d616e616765723a206e6f7468696e6720746f206c697175696461604082015261746560f01b606082015260800190565b6020808252602f908201527f54726f76654d616e616765723a2054726f766520646f6573206e6f742065786960408201526e1cdd081bdc881a5cc818db1bdcd959608a1b606082015260800190565b90815260200190565b918252602082015260400190565b83815260208101839052606081016155d8836156a7565b826040830152949350505050565b858152602081018590526040810184905260a081016005841061560557fe5b60608201939093526001600160801b03919091166080909101529392505050565b8481526020810184905260408101839052608081016004831061520d57fe5b93845260208401929092526040830152606082015260800190565b60405181810167ffffffffffffffff8111828210171561567f57600080fd5b604052919050565b600067ffffffffffffffff82111561569d578081fd5b5060209081020190565b60048110610ffb57fe5b6001600160a01b0381168114610ffb57600080fdfeea67486ed7ebe3eea8ab3390efd4a3c8aae48be5bea27df104a8af786c408434c3770d654ed33aeea6bf11ac8ef05d02a6a04ed4686dd2f624d853bbec43cc8ba26469706673582212207f9112925ab16da037af3d4733e8e16ac767f48131864757914f63abb71f406c64736f6c634300060b0033",
    "devdoc": {
        "kind": "dev",
        "methods": {
            "applyPendingRewards(address)": {
                "params": {
                    "_borrower": "borrower address"
                }
            },
            "closeTrove(address)": {
                "params": {
                    "_borrower": "borrower address"
                }
            },
            "constructor": {
                "params": {
                    "_bootstrapPeriod": "During bootsrap period redemptions are not allowed"
                }
            },
            "decreaseTroveColl(address,uint256)": {
                "params": {
                    "_borrower": "borrower address",
                    "_collDecrease": "amount of collateral to decrease"
                },
                "returns": {
                    "_0": "new trove collateral"
                }
            },
            "decreaseTroveDebt(address,uint256)": {
                "params": {
                    "_borrower": "borrower address",
                    "_debtDecrease": "amount of debt to decrease"
                },
                "returns": {
                    "_0": "new trove debt"
                }
            },
            "getBorrowingFeeWithDecay(uint256)": {
                "params": {
                    "_ZUSDDebt": "ZUSD debt amount to calculate fee"
                },
                "returns": {
                    "_0": "borrowing fee using borrowing rate with decay"
                }
            },
            "getBorrowingRate()": {
                "returns": {
                    "_0": "borrowing rate"
                }
            },
            "getBorrowingRateWithDecay()": {
                "returns": {
                    "_0": "borrowing rate calculated using decayed as base rate"
                }
            },
            "getCurrentICR(address,uint256)": {
                "params": {
                    "_borrower": "borrower address",
                    "_price": "ETH price"
                },
                "returns": {
                    "_0": "the current collateral ratio (ICR) of a given Trove. Takes a trove's pending coll and debt rewards from redistributions into account."
                }
            },
            "getNominalICR(address)": {
                "returns": {
                    "_0": "the nominal collateral ratio (ICR) of a given Trove, without the price. Takes a trove's pending coll and debt rewards from redistributions into account."
                }
            },
            "getOwner()": {
                "returns": {
                    "_owner": "Address of the owner. "
                }
            },
            "getPendingETHReward(address)": {
                "params": {
                    "_borrower": "borrower address"
                },
                "returns": {
                    "_0": "the borrower's pending accumulated ETH reward, earned by their stake"
                }
            },
            "getPendingZUSDDebtReward(address)": {
                "params": {
                    "_borrower": "borrower address"
                },
                "returns": {
                    "_0": "the borrower's pending accumulated ZUSD reward, earned by their stake"
                }
            },
            "getRedemptionFeeWithDecay(uint256)": {
                "params": {
                    "_ETHDrawn": "ETH drawn"
                }
            },
            "getRedemptionRate()": {
                "returns": {
                    "_0": "calculated redemption rate using baseRate"
                }
            },
            "getRedemptionRateWithDecay()": {
                "returns": {
                    "_0": "calculated redemption rate using calculated decayed as base rate"
                }
            },
            "getTCR(uint256)": {
                "params": {
                    "_price": "ETH price"
                },
                "returns": {
                    "_0": "the total collateralization ratio (TCR) of the system. The TCR is based on the the entire system debt and collateral (including pending rewards)."
                }
            },
            "getTroveColl(address)": {
                "params": {
                    "_borrower": "borrower address"
                },
                "returns": {
                    "_0": "Trove collateral from given trove"
                }
            },
            "getTroveDebt(address)": {
                "params": {
                    "_borrower": "borrower address"
                },
                "returns": {
                    "_0": "Trove debt from given trove"
                }
            },
            "getTroveFromTroveOwnersArray(uint256)": {
                "params": {
                    "_index": "Trove owner index"
                },
                "returns": {
                    "_0": "Trove from TroveOwners array in given index"
                }
            },
            "getTroveOwnersCount()": {
                "returns": {
                    "_0": "Trove owners count"
                }
            },
            "getTroveStake(address)": {
                "params": {
                    "_borrower": "borrower address"
                },
                "returns": {
                    "_0": "Trove stake from given trove"
                }
            },
            "getTroveStatus(address)": {
                "params": {
                    "_borrower": "borrower address"
                },
                "returns": {
                    "_0": "Trove status from given trove"
                }
            },
            "increaseTroveColl(address,uint256)": {
                "params": {
                    "_borrower": "borrower address",
                    "_collIncrease": "amount of collateral to increase"
                },
                "returns": {
                    "_0": "new trove collateral"
                }
            },
            "increaseTroveDebt(address,uint256)": {
                "params": {
                    "_borrower": "borrower address",
                    "_debtIncrease": "amount of debt to increase"
                },
                "returns": {
                    "_0": "new trove debt"
                }
            },
            "nonces(address)": {
                "details": "getter for currernt nonce",
                "params": {
                    "owner": "address of owner"
                },
                "returns": {
                    "_0": "current nonce of the owner's address"
                }
            },
            "redeemCollateral(uint256,address,address,address,uint256,uint256,uint256)": {
                "details": "this function forwards the call to the troveManagerRedeemOps in a delegate call fashion         so the parameters are not needed"
            },
            "redeemCollateralViaDLLR(uint256,address,address,address,uint256,uint256,uint256,(uint256,uint8,bytes32,bytes32))": {
                "details": "this function forwards the call to the troveManagerRedeemOps in a delegate call fashion         so the parameters are not needed DLLR _owner or _spender can use Sovryn Mynt to convert DLLR to ZUSD, then use the Zero redemption mechanism to redeem ZUSD for RBTC, all in a single transaction"
            },
            "redeemCollateralViaDllrWithPermit2(uint256,address,address,address,uint256,uint256,uint256,((address,uint256),uint256,uint256),bytes)": {
                "details": "this function forwards the call to the troveManagerRedeemOps in a delegate call fashion         so the parameters are not needed DLLR _owner or _spender can use Sovryn Mynt to convert DLLR to ZUSD, then use the Zero redemption mechanism to redeem ZUSD for RBTC, all in a single transaction"
            },
            "removeStake(address)": {
                "params": {
                    "_borrower": "borrower address"
                }
            },
            "setOwner(address)": {
                "params": {
                    "_owner": "Address of the owner. "
                }
            },
            "updateStakeAndTotalStakes(address)": {
                "params": {
                    "_borrower": "borrower address"
                }
            }
        },
        "version": 1
    },
    "userdoc": {
        "kind": "user",
        "methods": {
            "BETA()": {
                "notice": "BETA: 18 digit decimal. Parameter by which to divide the redeemed fraction, in order to calc the new base rate from a redemption. Corresponds to (1 / ALPHA) in the white paper."
            },
            "BOOTSTRAP_PERIOD()": {
                "notice": "During bootsrap period redemptions are not allowed"
            },
            "MIN_NET_DEBT()": {
                "notice": "Minimum amount of net ZUSD debt a trove must have"
            },
            "ZUSD_GAS_COMPENSATION()": {
                "notice": "Amount of ZUSD to be locked in gas pool on opening troves"
            },
            "_getCurrentICR(address,uint256)": {
                "notice": "Return the current collateral ratio (ICR) of a given Trove. Takes a trove's pending coll and debt rewards from redistributions into account."
            },
            "_getPendingETHReward(address)": {
                "notice": "Get the borrower's pending accumulated ETH reward, earned by their stake"
            },
            "_getPendingZUSDDebtReward(address)": {
                "notice": "Get the borrower's pending accumulated ZUSD reward, earned by their stake"
            },
            "addTroveOwnerToArray(address)": {
                "notice": "Push the owner's address to the Trove owners list, and record the corresponding array index on the Trove struct"
            },
            "applyPendingRewards(address)": {
                "notice": "Add the borrowers's coll and debt rewards earned from redistributions, to their Trove"
            },
            "batchLiquidateTroves(address[])": {
                "notice": "Attempt to liquidate a custom list of troves provided by the caller."
            },
            "checkRecoveryMode(uint256)": {
                "notice": "reveals whether or not the system is in Recovery Mode (i.e. whether the Total Collateralization Ratio (TCR) is below the Critical Collateralization Ratio (CCR))."
            },
            "closeTrove(address)": {
                "notice": "Close given trove. Called by BorrowerOperations."
            },
            "decayBaseRateFromBorrowing()": {
                "notice": "Updates the baseRate state variable based on time elapsed since the last redemption or ZUSD borrowing operation."
            },
            "getCurrentICR(address,uint256)": {
                "notice": "computes the users individual collateralization ratio (ICR) based on their total collateral and total ZUSD debt. Returns 2^256 -1 if they have 0 debt."
            },
            "getEntireDebtAndColl(address)": {
                "notice": "Return the Troves entire debt and coll, including pending rewards from redistributions."
            },
            "getOwner()": {
                "notice": "Return address of the owner."
            },
            "getRedemptionFeeWithDecay(uint256)": {
                "notice": "The redemption fee is taken as a cut of the total ETH drawn from the system in a redemption. It is based on the current redemption rate."
            },
            "liquidate(address)": {
                "notice": "Single liquidation function. Closes the trove if its ICR is lower than the minimum collateral ratio."
            },
            "liquidateTroves(uint256)": {
                "notice": "Liquidate a sequence of troves. Closes a maximum number of n under-collateralized Troves, starting from the one with the lowest collateral ratio in the system, and moving upwards"
            },
            "removeStake(address)": {
                "notice": "Remove borrower's stake from the totalStakes sum, and set their stake to 0"
            },
            "setOwner(address)": {
                "notice": "Set address of the owner (only owner can call this function)"
            },
            "updateStakeAndTotalStakes(address)": {
                "notice": "Update borrower's stake based on their latest collateral value"
            },
            "updateTroveRewardSnapshots(address)": {
                "notice": "Update borrower's snapshots of L_ETH and L_ZUSDDebt to reflect the current values"
            }
        },
        "version": 1
    },
    "storageLayout": {
        "storage": [
            {
                "astId": 5491,
                "contract": "contracts/TroveManager.sol:TroveManager",
                "label": "activePool",
                "offset": 0,
                "slot": "0",
                "type": "t_contract(IActivePool)19549"
            },
            {
                "astId": 5493,
                "contract": "contracts/TroveManager.sol:TroveManager",
                "label": "defaultPool",
                "offset": 0,
                "slot": "1",
                "type": "t_contract(IDefaultPool)20221"
            },
            {
                "astId": 5496,
                "contract": "contracts/TroveManager.sol:TroveManager",
                "label": "priceFeed",
                "offset": 0,
                "slot": "2",
                "type": "t_contract(IPriceFeed)20450"
            },
            {
                "astId": 5499,
                "contract": "contracts/TroveManager.sol:TroveManager",
                "label": "liquityBaseParams",
                "offset": 0,
                "slot": "3",
                "type": "t_contract(ILiquityBaseParams)20371"
            },
            {
                "astId": 35317,
                "contract": "contracts/TroveManager.sol:TroveManager",
                "label": "troveManagerRedeemOps",
                "offset": 0,
                "slot": "4",
                "type": "t_address"
            },
            {
                "astId": 35319,
                "contract": "contracts/TroveManager.sol:TroveManager",
                "label": "borrowerOperationsAddress",
                "offset": 0,
                "slot": "5",
                "type": "t_address"
            },
            {
                "astId": 35321,
                "contract": "contracts/TroveManager.sol:TroveManager",
                "label": "_stabilityPool",
                "offset": 0,
                "slot": "6",
                "type": "t_contract(IStabilityPool)21093"
            },
            {
                "astId": 35323,
                "contract": "contracts/TroveManager.sol:TroveManager",
                "label": "gasPoolAddress",
                "offset": 0,
                "slot": "7",
                "type": "t_address"
            },
            {
                "astId": 35325,
                "contract": "contracts/TroveManager.sol:TroveManager",
                "label": "collSurplusPool",
                "offset": 0,
                "slot": "8",
                "type": "t_contract(ICollSurplusPool)20122"
            },
            {
                "astId": 35327,
                "contract": "contracts/TroveManager.sol:TroveManager",
                "label": "_zusdToken",
                "offset": 0,
                "slot": "9",
                "type": "t_contract(IZUSDToken)21834"
            },
            {
                "astId": 35329,
                "contract": "contracts/TroveManager.sol:TroveManager",
                "label": "_zeroToken",
                "offset": 0,
                "slot": "10",
                "type": "t_contract(IZEROToken)21775"
            },
            {
                "astId": 35331,
                "contract": "contracts/TroveManager.sol:TroveManager",
                "label": "_zeroStaking",
                "offset": 0,
                "slot": "11",
                "type": "t_contract(IZEROStaking)21752"
            },
            {
                "astId": 35333,
                "contract": "contracts/TroveManager.sol:TroveManager",
                "label": "feeDistributor",
                "offset": 0,
                "slot": "12",
                "type": "t_contract(IFeeDistributor)20290"
            },
            {
                "astId": 35335,
                "contract": "contracts/TroveManager.sol:TroveManager",
                "label": "sortedTroves",
                "offset": 0,
                "slot": "13",
                "type": "t_contract(ISortedTroves)20809"
            },
            {
                "astId": 35337,
                "contract": "contracts/TroveManager.sol:TroveManager",
                "label": "baseRate",
                "offset": 0,
                "slot": "14",
                "type": "t_uint256"
            },
            {
                "astId": 35339,
                "contract": "contracts/TroveManager.sol:TroveManager",
                "label": "lastFeeOperationTime",
                "offset": 0,
                "slot": "15",
                "type": "t_uint256"
            },
            {
                "astId": 35360,
                "contract": "contracts/TroveManager.sol:TroveManager",
                "label": "Troves",
                "offset": 0,
                "slot": "16",
                "type": "t_mapping(t_address,t_struct(Trove)35356_storage)"
            },
            {
                "astId": 35362,
                "contract": "contracts/TroveManager.sol:TroveManager",
                "label": "totalStakes",
                "offset": 0,
                "slot": "17",
                "type": "t_uint256"
            },
            {
                "astId": 35364,
                "contract": "contracts/TroveManager.sol:TroveManager",
                "label": "totalStakesSnapshot",
                "offset": 0,
                "slot": "18",
                "type": "t_uint256"
            },
            {
                "astId": 35366,
                "contract": "contracts/TroveManager.sol:TroveManager",
                "label": "totalCollateralSnapshot",
                "offset": 0,
                "slot": "19",
                "type": "t_uint256"
            },
            {
                "astId": 35368,
                "contract": "contracts/TroveManager.sol:TroveManager",
                "label": "L_ETH",
                "offset": 0,
                "slot": "20",
                "type": "t_uint256"
            },
            {
                "astId": 35370,
                "contract": "contracts/TroveManager.sol:TroveManager",
                "label": "L_ZUSDDebt",
                "offset": 0,
                "slot": "21",
                "type": "t_uint256"
            },
            {
                "astId": 35374,
                "contract": "contracts/TroveManager.sol:TroveManager",
                "label": "rewardSnapshots",
                "offset": 0,
                "slot": "22",
                "type": "t_mapping(t_address,t_struct(RewardSnapshot)35379_storage)"
            },
            {
                "astId": 35382,
                "contract": "contracts/TroveManager.sol:TroveManager",
                "label": "TroveOwners",
                "offset": 0,
                "slot": "23",
                "type": "t_array(t_address)dyn_storage"
            },
            {
                "astId": 35384,
                "contract": "contracts/TroveManager.sol:TroveManager",
                "label": "lastETHError_Redistribution",
                "offset": 0,
                "slot": "24",
                "type": "t_uint256"
            },
            {
                "astId": 35386,
                "contract": "contracts/TroveManager.sol:TroveManager",
                "label": "lastZUSDDebtError_Redistribution",
                "offset": 0,
                "slot": "25",
                "type": "t_uint256"
            },
            {
                "astId": 22928,
                "contract": "contracts/TroveManager.sol:TroveManager",
                "label": "_permit2Nonces",
                "offset": 0,
                "slot": "26",
                "type": "t_mapping(t_address,t_struct(Counter)5190_storage)"
            }
        ],
        "types": {
            "t_address": {
                "encoding": "inplace",
                "label": "address",
                "numberOfBytes": "20"
            },
            "t_array(t_address)dyn_storage": {
                "base": "t_address",
                "encoding": "dynamic_array",
                "label": "address[]",
                "numberOfBytes": "32"
            },
            "t_contract(IActivePool)19549": {
                "encoding": "inplace",
                "label": "contract IActivePool",
                "numberOfBytes": "20"
            },
            "t_contract(ICollSurplusPool)20122": {
                "encoding": "inplace",
                "label": "contract ICollSurplusPool",
                "numberOfBytes": "20"
            },
            "t_contract(IDefaultPool)20221": {
                "encoding": "inplace",
                "label": "contract IDefaultPool",
                "numberOfBytes": "20"
            },
            "t_contract(IFeeDistributor)20290": {
                "encoding": "inplace",
                "label": "contract IFeeDistributor",
                "numberOfBytes": "20"
            },
            "t_contract(ILiquityBaseParams)20371": {
                "encoding": "inplace",
                "label": "contract ILiquityBaseParams",
                "numberOfBytes": "20"
            },
            "t_contract(IPriceFeed)20450": {
                "encoding": "inplace",
                "label": "contract IPriceFeed",
                "numberOfBytes": "20"
            },
            "t_contract(ISortedTroves)20809": {
                "encoding": "inplace",
                "label": "contract ISortedTroves",
                "numberOfBytes": "20"
            },
            "t_contract(IStabilityPool)21093": {
                "encoding": "inplace",
                "label": "contract IStabilityPool",
                "numberOfBytes": "20"
            },
            "t_contract(IZEROStaking)21752": {
                "encoding": "inplace",
                "label": "contract IZEROStaking",
                "numberOfBytes": "20"
            },
            "t_contract(IZEROToken)21775": {
                "encoding": "inplace",
                "label": "contract IZEROToken",
                "numberOfBytes": "20"
            },
            "t_contract(IZUSDToken)21834": {
                "encoding": "inplace",
                "label": "contract IZUSDToken",
                "numberOfBytes": "20"
            },
            "t_enum(Status)35345": {
                "encoding": "inplace",
                "label": "enum TroveManagerStorage.Status",
                "numberOfBytes": "1"
            },
            "t_mapping(t_address,t_struct(Counter)5190_storage)": {
                "encoding": "mapping",
                "key": "t_address",
                "label": "mapping(address => struct Counters.Counter)",
                "numberOfBytes": "32",
                "value": "t_struct(Counter)5190_storage"
            },
            "t_mapping(t_address,t_struct(RewardSnapshot)35379_storage)": {
                "encoding": "mapping",
                "key": "t_address",
                "label": "mapping(address => struct TroveManagerStorage.RewardSnapshot)",
                "numberOfBytes": "32",
                "value": "t_struct(RewardSnapshot)35379_storage"
            },
            "t_mapping(t_address,t_struct(Trove)35356_storage)": {
                "encoding": "mapping",
                "key": "t_address",
                "label": "mapping(address => struct TroveManagerStorage.Trove)",
                "numberOfBytes": "32",
                "value": "t_struct(Trove)35356_storage"
            },
            "t_struct(Counter)5190_storage": {
                "encoding": "inplace",
                "label": "struct Counters.Counter",
                "members": [
                    {
                        "astId": 5189,
                        "contract": "contracts/TroveManager.sol:TroveManager",
                        "label": "_value",
                        "offset": 0,
                        "slot": "0",
                        "type": "t_uint256"
                    }
                ],
                "numberOfBytes": "32"
            },
            "t_struct(RewardSnapshot)35379_storage": {
                "encoding": "inplace",
                "label": "struct TroveManagerStorage.RewardSnapshot",
                "members": [
                    {
                        "astId": 35376,
                        "contract": "contracts/TroveManager.sol:TroveManager",
                        "label": "ETH",
                        "offset": 0,
                        "slot": "0",
                        "type": "t_uint256"
                    },
                    {
                        "astId": 35378,
                        "contract": "contracts/TroveManager.sol:TroveManager",
                        "label": "ZUSDDebt",
                        "offset": 0,
                        "slot": "1",
                        "type": "t_uint256"
                    }
                ],
                "numberOfBytes": "64"
            },
            "t_struct(Trove)35356_storage": {
                "encoding": "inplace",
                "label": "struct TroveManagerStorage.Trove",
                "members": [
                    {
                        "astId": 35347,
                        "contract": "contracts/TroveManager.sol:TroveManager",
                        "label": "debt",
                        "offset": 0,
                        "slot": "0",
                        "type": "t_uint256"
                    },
                    {
                        "astId": 35349,
                        "contract": "contracts/TroveManager.sol:TroveManager",
                        "label": "coll",
                        "offset": 0,
                        "slot": "1",
                        "type": "t_uint256"
                    },
                    {
                        "astId": 35351,
                        "contract": "contracts/TroveManager.sol:TroveManager",
                        "label": "stake",
                        "offset": 0,
                        "slot": "2",
                        "type": "t_uint256"
                    },
                    {
                        "astId": 35353,
                        "contract": "contracts/TroveManager.sol:TroveManager",
                        "label": "status",
                        "offset": 0,
                        "slot": "3",
                        "type": "t_enum(Status)35345"
                    },
                    {
                        "astId": 35355,
                        "contract": "contracts/TroveManager.sol:TroveManager",
                        "label": "arrayIndex",
                        "offset": 1,
                        "slot": "3",
                        "type": "t_uint128"
                    }
                ],
                "numberOfBytes": "128"
            },
            "t_uint128": {
                "encoding": "inplace",
                "label": "uint128",
                "numberOfBytes": "16"
            },
            "t_uint256": {
                "encoding": "inplace",
                "label": "uint256",
                "numberOfBytes": "32"
            }
        }
    }
}