{
  "abi": [
    {
      "inputs": [
        {
          "internalType": "address",
          "name": "_rskOracleAddress",
          "type": "address"
        }
      ],
      "payable": false,
      "stateMutability": "nonpayable",
      "type": "constructor"
    },
    {
      "anonymous": false,
      "inputs": [
        {
          "indexed": true,
          "internalType": "address",
          "name": "previousOwner",
          "type": "address"
        },
        {
          "indexed": true,
          "internalType": "address",
          "name": "newOwner",
          "type": "address"
        }
      ],
      "name": "OwnershipTransferred",
      "type": "event"
    },
    {
      "anonymous": false,
      "inputs": [
        {
          "indexed": true,
          "internalType": "address",
          "name": "rskOracleAddress",
          "type": "address"
        },
        {
          "indexed": false,
          "internalType": "address",
          "name": "changerAddress",
          "type": "address"
        }
      ],
      "name": "SetRSKOracleAddress",
      "type": "event"
    },
    {
      "constant": true,
      "inputs": [],
      "name": "isOwner",
      "outputs": [
        {
          "internalType": "bool",
          "name": "",
          "type": "bool"
        }
      ],
      "payable": false,
      "stateMutability": "view",
      "type": "function"
    },
    {
      "constant": true,
      "inputs": [],
      "name": "latestAnswer",
      "outputs": [
        {
          "internalType": "uint256",
          "name": "_price",
          "type": "uint256"
        }
      ],
      "payable": false,
      "stateMutability": "view",
      "type": "function"
    },
    {
      "constant": true,
      "inputs": [],
      "name": "latestTimestamp",
      "outputs": [
        {
          "internalType": "uint256",
          "name": "_timestamp",
          "type": "uint256"
        }
      ],
      "payable": false,
      "stateMutability": "view",
      "type": "function"
    },
    {
      "constant": true,
      "inputs": [],
      "name": "owner",
      "outputs": [
        {
          "internalType": "address",
          "name": "",
          "type": "address"
        }
      ],
      "payable": false,
      "stateMutability": "view",
      "type": "function"
    },
    {
      "constant": true,
      "inputs": [],
      "name": "rskOracleAddress",
      "outputs": [
        {
          "internalType": "address",
          "name": "",
          "type": "address"
        }
      ],
      "payable": false,
      "stateMutability": "view",
      "type": "function"
    },
    {
      "constant": false,
      "inputs": [
        {
          "internalType": "address",
          "name": "_rskOracleAddress",
          "type": "address"
        }
      ],
      "name": "setRSKOracleAddress",
      "outputs": [],
      "payable": false,
      "stateMutability": "nonpayable",
      "type": "function"
    },
    {
      "constant": false,
      "inputs": [
        {
          "internalType": "address",
          "name": "newOwner",
          "type": "address"
        }
      ],
      "name": "transferOwnership",
      "outputs": [],
      "payable": false,
      "stateMutability": "nonpayable",
      "type": "function"
    }
  ],
  "bytecode": {
    "object": "0x608060405234801561001057600080fd5b5060405161072f38038061072f8339818101604052602081101561003357600080fd5b505160006100486001600160e01b036100aa16565b600080546001600160a01b0319166001600160a01b0383169081178255604051929350917f8be0079c531659141344cd1fd0a4f28419497f9722a3daafe3b4186f6b6457e0908290a3506100a4816001600160e01b036100ae16565b50610229565b3390565b6100bf6001600160e01b036101c016565b6100ff576040805162461bcd60e51b815260206004820152600c60248201526b1d5b985d5d1a1bdc9a5e995960a21b604482015290519081900360640190fd5b610112816101ed60201b6103c01760201c565b610163576040805162461bcd60e51b815260206004820181905260248201527f5f72736b4f7261636c6541646472657373206e6f74206120636f6e7472616374604482015290519081900360640190fd5b600180546001600160a01b0319166001600160a01b03838116919091179182905560408051338152905192909116917f94305f79fd34fa915e2815446cd306362132a59408d9f79f071eca99bde86dff916020908290030190a250565b600080546001600160a01b03166101de6001600160e01b036100aa16565b6001600160a01b031614905090565b6000813f7fc5d2460186f7233c927e7db2dcc703c0e500b653ca82273b7bfad8045d85a47081811480159061022157508115155b949350505050565b6104f7806102386000396000f3fe608060405234801561001057600080fd5b506004361061007d5760003560e01c80638f32d59b1161005b5780638f32d59b146100c8578063a1e60109146100e4578063b4c1e8481461010c578063f2fde38b146101145761007d565b806350d25bcd146100825780638205bf6a1461009c5780638da5cb5b146100a4575b600080fd5b61008a61013a565b60408051918252519081900360200190f35b61008a6101af565b6100ac610227565b604080516001600160a01b039092168252519081900360200190f35b6100d0610236565b604080519115158252519081900360200190f35b61010a600480360360208110156100fa57600080fd5b50356001600160a01b031661025a565b005b6100ac610359565b61010a6004803603602081101561012a57600080fd5b50356001600160a01b0316610368565b600154604080516307169c6760e31b815281516000936001600160a01b03169283926338b4e3389260048083019392829003018186803b15801561017d57600080fd5b505afa158015610191573d6000803e3d6000fd5b505050506040513d60408110156101a757600080fd5b505192915050565b600154604080516307169c6760e31b815281516000936001600160a01b03169283926338b4e3389260048083019392829003018186803b1580156101f257600080fd5b505afa158015610206573d6000803e3d6000fd5b505050506040513d604081101561021c57600080fd5b506020015192915050565b6000546001600160a01b031690565b600080546001600160a01b031661024b6103bc565b6001600160a01b031614905090565b610262610236565b6102a2576040805162461bcd60e51b815260206004820152600c60248201526b1d5b985d5d1a1bdc9a5e995960a21b604482015290519081900360640190fd5b6102ab816103c0565b6102fc576040805162461bcd60e51b815260206004820181905260248201527f5f72736b4f7261636c6541646472657373206e6f74206120636f6e7472616374604482015290519081900360640190fd5b600180546001600160a01b0319166001600160a01b03838116919091179182905560408051338152905192909116917f94305f79fd34fa915e2815446cd306362132a59408d9f79f071eca99bde86dff916020908290030190a250565b6001546001600160a01b031681565b610370610236565b6103b0576040805162461bcd60e51b815260206004820152600c60248201526b1d5b985d5d1a1bdc9a5e995960a21b604482015290519081900360640190fd5b6103b9816103fc565b50565b3390565b6000813f7fc5d2460186f7233c927e7db2dcc703c0e500b653ca82273b7bfad8045d85a4708181148015906103f457508115155b949350505050565b6001600160a01b0381166104415760405162461bcd60e51b815260040180806020018281038252602681526020018061049d6026913960400191505060405180910390fd5b600080546040516001600160a01b03808516939216917f8be0079c531659141344cd1fd0a4f28419497f9722a3daafe3b4186f6b6457e091a3600080546001600160a01b0319166001600160a01b039290921691909117905556fe4f776e61626c653a206e6577206f776e657220697320746865207a65726f2061646472657373a265627a7a7231582056a9d8e8174502c208f2105d0de4a41ad23aedbaa37b0aed42bb88379895297c64736f6c63430005110032",
    "linkReferences": {}
  },
  "methodIdentifiers": {
    "isOwner()": "8f32d59b",
    "latestAnswer()": "50d25bcd",
    "latestTimestamp()": "8205bf6a",
    "owner()": "8da5cb5b",
    "rskOracleAddress()": "b4c1e848",
    "setRSKOracleAddress(address)": "a1e60109",
    "transferOwnership(address)": "f2fde38b"
  },
  "id": 45
}