{
  "abi": [
    {
      "anonymous": false,
      "inputs": [
        {
          "indexed": true,
          "internalType": "address",
          "name": "previousOwner",
          "type": "address"
        },
        {
          "indexed": true,
          "internalType": "address",
          "name": "newOwner",
          "type": "address"
        }
      ],
      "name": "OwnershipTransferred",
      "type": "event"
    },
    {
      "constant": true,
      "inputs": [],
      "name": "admin",
      "outputs": [
        {
          "internalType": "address",
          "name": "",
          "type": "address"
        }
      ],
      "payable": false,
      "stateMutability": "view",
      "type": "function"
    },
    {
      "constant": true,
      "inputs": [],
      "name": "affiliateFeePercent",
      "outputs": [
        {
          "internalType": "uint256",
          "name": "",
          "type": "uint256"
        }
      ],
      "payable": false,
      "stateMutability": "view",
      "type": "function"
    },
    {
      "constant": true,
      "inputs": [
        {
          "internalType": "address",
          "name": "",
          "type": "address"
        }
      ],
      "name": "affiliateRewardsHeld",
      "outputs": [
        {
          "internalType": "uint256",
          "name": "",
          "type": "uint256"
        }
      ],
      "payable": false,
      "stateMutability": "view",
      "type": "function"
    },
    {
      "constant": true,
      "inputs": [],
      "name": "affiliateTradingTokenFeePercent",
      "outputs": [
        {
          "internalType": "uint256",
          "name": "",
          "type": "uint256"
        }
      ],
      "payable": false,
      "stateMutability": "view",
      "type": "function"
    },
    {
      "constant": true,
      "inputs": [
        {
          "internalType": "address",
          "name": "",
          "type": "address"
        },
        {
          "internalType": "address",
          "name": "",
          "type": "address"
        }
      ],
      "name": "affiliatesReferrerBalances",
      "outputs": [
        {
          "internalType": "uint256",
          "name": "",
          "type": "uint256"
        }
      ],
      "payable": false,
      "stateMutability": "view",
      "type": "function"
    },
    {
      "constant": true,
      "inputs": [
        {
          "internalType": "address",
          "name": "",
          "type": "address"
        }
      ],
      "name": "affiliatesUserReferrer",
      "outputs": [
        {
          "internalType": "address",
          "name": "",
          "type": "address"
        }
      ],
      "payable": false,
      "stateMutability": "view",
      "type": "function"
    },
    {
      "constant": true,
      "inputs": [
        {
          "internalType": "address",
          "name": "",
          "type": "address"
        }
      ],
      "name": "borrowerNonce",
      "outputs": [
        {
          "internalType": "uint256",
          "name": "",
          "type": "uint256"
        }
      ],
      "payable": false,
      "stateMutability": "view",
      "type": "function"
    },
    {
      "constant": true,
      "inputs": [
        {
          "internalType": "address",
          "name": "",
          "type": "address"
        },
        {
          "internalType": "bytes32",
          "name": "",
          "type": "bytes32"
        }
      ],
      "name": "borrowerOrders",
      "outputs": [
        {
          "internalType": "uint256",
          "name": "lockedAmount",
          "type": "uint256"
        },
        {
          "internalType": "uint256",
          "name": "interestRate",
          "type": "uint256"
        },
        {
          "internalType": "uint256",
          "name": "minLoanTerm",
          "type": "uint256"
        },
        {
          "internalType": "uint256",
          "name": "maxLoanTerm",
          "type": "uint256"
        },
        {
          "internalType": "uint256",
          "name": "createdTimestamp",
          "type": "uint256"
        },
        {
          "internalType": "uint256",
          "name": "expirationTimestamp",
          "type": "uint256"
        }
      ],
      "payable": false,
      "stateMutability": "view",
      "type": "function"
    },
    {
      "constant": true,
      "inputs": [],
      "name": "borrowingFeePercent",
      "outputs": [
        {
          "internalType": "uint256",
          "name": "",
          "type": "uint256"
        }
      ],
      "payable": false,
      "stateMutability": "view",
      "type": "function"
    },
    {
      "constant": true,
      "inputs": [
        {
          "internalType": "address",
          "name": "",
          "type": "address"
        }
      ],
      "name": "borrowingFeeTokensHeld",
      "outputs": [
        {
          "internalType": "uint256",
          "name": "",
          "type": "uint256"
        }
      ],
      "payable": false,
      "stateMutability": "view",
      "type": "function"
    },
    {
      "constant": true,
      "inputs": [
        {
          "internalType": "address",
          "name": "",
          "type": "address"
        }
      ],
      "name": "borrowingFeeTokensPaid",
      "outputs": [
        {
          "internalType": "uint256",
          "name": "",
          "type": "uint256"
        }
      ],
      "payable": false,
      "stateMutability": "view",
      "type": "function"
    },
    {
      "constant": true,
      "inputs": [
        {
          "internalType": "bytes32",
          "name": "",
          "type": "bytes32"
        },
        {
          "internalType": "address",
          "name": "",
          "type": "address"
        }
      ],
      "name": "delegatedManagers",
      "outputs": [
        {
          "internalType": "bool",
          "name": "",
          "type": "bool"
        }
      ],
      "payable": false,
      "stateMutability": "view",
      "type": "function"
    },
    {
      "constant": true,
      "inputs": [],
      "name": "feeRebatePercent",
      "outputs": [
        {
          "internalType": "uint256",
          "name": "",
          "type": "uint256"
        }
      ],
      "payable": false,
      "stateMutability": "view",
      "type": "function"
    },
    {
      "constant": true,
      "inputs": [],
      "name": "feesController",
      "outputs": [
        {
          "internalType": "address",
          "name": "",
          "type": "address"
        }
      ],
      "payable": false,
      "stateMutability": "view",
      "type": "function"
    },
    {
      "constant": true,
      "inputs": [
        {
          "internalType": "string",
          "name": "source",
          "type": "string"
        }
      ],
      "name": "getContractHexName",
      "outputs": [
        {
          "internalType": "bytes32",
          "name": "result",
          "type": "bytes32"
        }
      ],
      "payable": false,
      "stateMutability": "pure",
      "type": "function"
    },
    {
      "constant": true,
      "inputs": [
        {
          "internalType": "address",
          "name": "sovrynSwapRegistryAddress",
          "type": "address"
        }
      ],
      "name": "getSovrynSwapNetworkContract",
      "outputs": [
        {
          "internalType": "contract ISovrynSwapNetwork",
          "name": "",
          "type": "address"
        }
      ],
      "payable": false,
      "stateMutability": "view",
      "type": "function"
    },
    {
      "constant": true,
      "inputs": [
        {
          "internalType": "address",
          "name": "sourceTokenAddress",
          "type": "address"
        },
        {
          "internalType": "address",
          "name": "destTokenAddress",
          "type": "address"
        },
        {
          "internalType": "uint256",
          "name": "sourceTokenAmount",
          "type": "uint256"
        },
        {
          "internalType": "address",
          "name": "sovrynSwapContractRegistryAddress",
          "type": "address"
        }
      ],
      "name": "internalExpectedRate",
      "outputs": [
        {
          "internalType": "uint256",
          "name": "",
          "type": "uint256"
        }
      ],
      "payable": false,
      "stateMutability": "view",
      "type": "function"
    },
    {
      "constant": true,
      "inputs": [
        {
          "internalType": "address",
          "name": "sourceTokenAddress",
          "type": "address"
        },
        {
          "internalType": "address",
          "name": "destTokenAddress",
          "type": "address"
        },
        {
          "internalType": "uint256",
          "name": "sourceTokenAmount",
          "type": "uint256"
        },
        {
          "internalType": "address",
          "name": "sovrynSwapContractRegistry",
          "type": "address"
        },
        {
          "internalType": "contract IERC20[]",
          "name": "defaultPath",
          "type": "address[]"
        }
      ],
      "name": "internalExpectedReturn",
      "outputs": [
        {
          "internalType": "uint256",
          "name": "expectedReturn",
          "type": "uint256"
        }
      ],
      "payable": false,
      "stateMutability": "view",
      "type": "function"
    },
    {
      "constant": false,
      "inputs": [
        {
          "internalType": "address",
          "name": "sourceTokenAddress",
          "type": "address"
        },
        {
          "internalType": "address",
          "name": "destTokenAddress",
          "type": "address"
        },
        {
          "internalType": "address",
          "name": "receiverAddress",
          "type": "address"
        },
        {
          "internalType": "address",
          "name": "returnToSenderAddress",
          "type": "address"
        },
        {
          "internalType": "uint256",
          "name": "minSourceTokenAmount",
          "type": "uint256"
        },
        {
          "internalType": "uint256",
          "name": "maxSourceTokenAmount",
          "type": "uint256"
        },
        {
          "internalType": "uint256",
          "name": "requiredDestTokenAmount",
          "type": "uint256"
        }
      ],
      "name": "internalSwap",
      "outputs": [
        {
          "internalType": "uint256",
          "name": "destTokenAmountReceived",
          "type": "uint256"
        },
        {
          "internalType": "uint256",
          "name": "sourceTokenAmountUsed",
          "type": "uint256"
        }
      ],
      "payable": true,
      "stateMutability": "payable",
      "type": "function"
    },
    {
      "constant": true,
      "inputs": [],
      "name": "isOwner",
      "outputs": [
        {
          "internalType": "bool",
          "name": "",
          "type": "bool"
        }
      ],
      "payable": false,
      "stateMutability": "view",
      "type": "function"
    },
    {
      "constant": true,
      "inputs": [
        {
          "internalType": "address",
          "name": "",
          "type": "address"
        },
        {
          "internalType": "address",
          "name": "",
          "type": "address"
        }
      ],
      "name": "lenderInterest",
      "outputs": [
        {
          "internalType": "uint256",
          "name": "principalTotal",
          "type": "uint256"
        },
        {
          "internalType": "uint256",
          "name": "owedPerDay",
          "type": "uint256"
        },
        {
          "internalType": "uint256",
          "name": "owedTotal",
          "type": "uint256"
        },
        {
          "internalType": "uint256",
          "name": "paidTotal",
          "type": "uint256"
        },
        {
          "internalType": "uint256",
          "name": "updatedTimestamp",
          "type": "uint256"
        }
      ],
      "payable": false,
      "stateMutability": "view",
      "type": "function"
    },
    {
      "constant": true,
      "inputs": [
        {
          "internalType": "address",
          "name": "",
          "type": "address"
        },
        {
          "internalType": "bytes32",
          "name": "",
          "type": "bytes32"
        }
      ],
      "name": "lenderOrders",
      "outputs": [
        {
          "internalType": "uint256",
          "name": "lockedAmount",
          "type": "uint256"
        },
        {
          "internalType": "uint256",
          "name": "interestRate",
          "type": "uint256"
        },
        {
          "internalType": "uint256",
          "name": "minLoanTerm",
          "type": "uint256"
        },
        {
          "internalType": "uint256",
          "name": "maxLoanTerm",
          "type": "uint256"
        },
        {
          "internalType": "uint256",
          "name": "createdTimestamp",
          "type": "uint256"
        },
        {
          "internalType": "uint256",
          "name": "expirationTimestamp",
          "type": "uint256"
        }
      ],
      "payable": false,
      "stateMutability": "view",
      "type": "function"
    },
    {
      "constant": true,
      "inputs": [],
      "name": "lendingFeePercent",
      "outputs": [
        {
          "internalType": "uint256",
          "name": "",
          "type": "uint256"
        }
      ],
      "payable": false,
      "stateMutability": "view",
      "type": "function"
    },
    {
      "constant": true,
      "inputs": [
        {
          "internalType": "address",
          "name": "",
          "type": "address"
        }
      ],
      "name": "lendingFeeTokensHeld",
      "outputs": [
        {
          "internalType": "uint256",
          "name": "",
          "type": "uint256"
        }
      ],
      "payable": false,
      "stateMutability": "view",
      "type": "function"
    },
    {
      "constant": true,
      "inputs": [
        {
          "internalType": "address",
          "name": "",
          "type": "address"
        }
      ],
      "name": "lendingFeeTokensPaid",
      "outputs": [
        {
          "internalType": "uint256",
          "name": "",
          "type": "uint256"
        }
      ],
      "payable": false,
      "stateMutability": "view",
      "type": "function"
    },
    {
      "constant": true,
      "inputs": [],
      "name": "liquidationIncentivePercent",
      "outputs": [
        {
          "internalType": "uint256",
          "name": "",
          "type": "uint256"
        }
      ],
      "payable": false,
      "stateMutability": "view",
      "type": "function"
    },
    {
      "constant": true,
      "inputs": [
        {
          "internalType": "bytes32",
          "name": "",
          "type": "bytes32"
        }
      ],
      "name": "loanInterest",
      "outputs": [
        {
          "internalType": "uint256",
          "name": "owedPerDay",
          "type": "uint256"
        },
        {
          "internalType": "uint256",
          "name": "depositTotal",
          "type": "uint256"
        },
        {
          "internalType": "uint256",
          "name": "updatedTimestamp",
          "type": "uint256"
        }
      ],
      "payable": false,
      "stateMutability": "view",
      "type": "function"
    },
    {
      "constant": true,
      "inputs": [
        {
          "internalType": "bytes32",
          "name": "",
          "type": "bytes32"
        }
      ],
      "name": "loanParams",
      "outputs": [
        {
          "internalType": "bytes32",
          "name": "id",
          "type": "bytes32"
        },
        {
          "internalType": "bool",
          "name": "active",
          "type": "bool"
        },
        {
          "internalType": "address",
          "name": "owner",
          "type": "address"
        },
        {
          "internalType": "address",
          "name": "loanToken",
          "type": "address"
        },
        {
          "internalType": "address",
          "name": "collateralToken",
          "type": "address"
        },
        {
          "internalType": "uint256",
          "name": "minInitialMargin",
          "type": "uint256"
        },
        {
          "internalType": "uint256",
          "name": "maintenanceMargin",
          "type": "uint256"
        },
        {
          "internalType": "uint256",
          "name": "maxLoanTerm",
          "type": "uint256"
        }
      ],
      "payable": false,
      "stateMutability": "view",
      "type": "function"
    },
    {
      "constant": true,
      "inputs": [
        {
          "internalType": "address",
          "name": "",
          "type": "address"
        }
      ],
      "name": "loanPoolToUnderlying",
      "outputs": [
        {
          "internalType": "address",
          "name": "",
          "type": "address"
        }
      ],
      "payable": false,
      "stateMutability": "view",
      "type": "function"
    },
    {
      "constant": true,
      "inputs": [
        {
          "internalType": "bytes32",
          "name": "",
          "type": "bytes32"
        }
      ],
      "name": "loans",
      "outputs": [
        {
          "internalType": "bytes32",
          "name": "id",
          "type": "bytes32"
        },
        {
          "internalType": "bytes32",
          "name": "loanParamsId",
          "type": "bytes32"
        },
        {
          "internalType": "bytes32",
          "name": "pendingTradesId",
          "type": "bytes32"
        },
        {
          "internalType": "bool",
          "name": "active",
          "type": "bool"
        },
        {
          "internalType": "uint256",
          "name": "principal",
          "type": "uint256"
        },
        {
          "internalType": "uint256",
          "name": "collateral",
          "type": "uint256"
        },
        {
          "internalType": "uint256",
          "name": "startTimestamp",
          "type": "uint256"
        },
        {
          "internalType": "uint256",
          "name": "endTimestamp",
          "type": "uint256"
        },
        {
          "internalType": "uint256",
          "name": "startMargin",
          "type": "uint256"
        },
        {
          "internalType": "uint256",
          "name": "startRate",
          "type": "uint256"
        },
        {
          "internalType": "address",
          "name": "borrower",
          "type": "address"
        },
        {
          "internalType": "address",
          "name": "lender",
          "type": "address"
        }
      ],
      "payable": false,
      "stateMutability": "view",
      "type": "function"
    },
    {
      "constant": true,
      "inputs": [],
      "name": "lockedSOVAddress",
      "outputs": [
        {
          "internalType": "address",
          "name": "",
          "type": "address"
        }
      ],
      "payable": false,
      "stateMutability": "view",
      "type": "function"
    },
    {
      "constant": true,
      "inputs": [
        {
          "internalType": "bytes4",
          "name": "",
          "type": "bytes4"
        }
      ],
      "name": "logicTargets",
      "outputs": [
        {
          "internalType": "address",
          "name": "",
          "type": "address"
        }
      ],
      "payable": false,
      "stateMutability": "view",
      "type": "function"
    },
    {
      "constant": true,
      "inputs": [],
      "name": "maxDisagreement",
      "outputs": [
        {
          "internalType": "uint256",
          "name": "",
          "type": "uint256"
        }
      ],
      "payable": false,
      "stateMutability": "view",
      "type": "function"
    },
    {
      "constant": true,
      "inputs": [],
      "name": "maxSwapSize",
      "outputs": [
        {
          "internalType": "uint256",
          "name": "",
          "type": "uint256"
        }
      ],
      "payable": false,
      "stateMutability": "view",
      "type": "function"
    },
    {
      "constant": true,
      "inputs": [],
      "name": "minReferralsToPayout",
      "outputs": [
        {
          "internalType": "uint256",
          "name": "",
          "type": "uint256"
        }
      ],
      "payable": false,
      "stateMutability": "view",
      "type": "function"
    },
    {
      "constant": true,
      "inputs": [],
      "name": "owner",
      "outputs": [
        {
          "internalType": "address",
          "name": "",
          "type": "address"
        }
      ],
      "payable": false,
      "stateMutability": "view",
      "type": "function"
    },
    {
      "constant": true,
      "inputs": [],
      "name": "pause",
      "outputs": [
        {
          "internalType": "bool",
          "name": "",
          "type": "bool"
        }
      ],
      "payable": false,
      "stateMutability": "view",
      "type": "function"
    },
    {
      "constant": true,
      "inputs": [],
      "name": "priceFeeds",
      "outputs": [
        {
          "internalType": "address",
          "name": "",
          "type": "address"
        }
      ],
      "payable": false,
      "stateMutability": "view",
      "type": "function"
    },
    {
      "constant": true,
      "inputs": [],
      "name": "protocolAddress",
      "outputs": [
        {
          "internalType": "address",
          "name": "",
          "type": "address"
        }
      ],
      "payable": false,
      "stateMutability": "view",
      "type": "function"
    },
    {
      "constant": true,
      "inputs": [],
      "name": "protocolTokenAddress",
      "outputs": [
        {
          "internalType": "address",
          "name": "",
          "type": "address"
        }
      ],
      "payable": false,
      "stateMutability": "view",
      "type": "function"
    },
    {
      "constant": true,
      "inputs": [],
      "name": "protocolTokenHeld",
      "outputs": [
        {
          "internalType": "uint256",
          "name": "",
          "type": "uint256"
        }
      ],
      "payable": false,
      "stateMutability": "view",
      "type": "function"
    },
    {
      "constant": true,
      "inputs": [],
      "name": "protocolTokenPaid",
      "outputs": [
        {
          "internalType": "uint256",
          "name": "",
          "type": "uint256"
        }
      ],
      "payable": false,
      "stateMutability": "view",
      "type": "function"
    },
    {
      "constant": true,
      "inputs": [],
      "name": "rolloverBaseReward",
      "outputs": [
        {
          "internalType": "uint256",
          "name": "",
          "type": "uint256"
        }
      ],
      "payable": false,
      "stateMutability": "view",
      "type": "function"
    },
    {
      "constant": true,
      "inputs": [],
      "name": "rolloverFlexFeePercent",
      "outputs": [
        {
          "internalType": "uint256",
          "name": "",
          "type": "uint256"
        }
      ],
      "payable": false,
      "stateMutability": "view",
      "type": "function"
    },
    {
      "constant": true,
      "inputs": [],
      "name": "sourceBuffer",
      "outputs": [
        {
          "internalType": "uint256",
          "name": "",
          "type": "uint256"
        }
      ],
      "payable": false,
      "stateMutability": "view",
      "type": "function"
    },
    {
      "constant": true,
      "inputs": [],
      "name": "sovTokenAddress",
      "outputs": [
        {
          "internalType": "address",
          "name": "",
          "type": "address"
        }
      ],
      "payable": false,
      "stateMutability": "view",
      "type": "function"
    },
    {
      "constant": true,
      "inputs": [],
      "name": "sovrynSwapContractRegistryAddress",
      "outputs": [
        {
          "internalType": "address",
          "name": "",
          "type": "address"
        }
      ],
      "payable": false,
      "stateMutability": "view",
      "type": "function"
    },
    {
      "constant": true,
      "inputs": [
        {
          "internalType": "address",
          "name": "",
          "type": "address"
        },
        {
          "internalType": "address",
          "name": "",
          "type": "address"
        }
      ],
      "name": "specialRebates",
      "outputs": [
        {
          "internalType": "uint256",
          "name": "",
          "type": "uint256"
        }
      ],
      "payable": false,
      "stateMutability": "view",
      "type": "function"
    },
    {
      "constant": true,
      "inputs": [
        {
          "internalType": "address",
          "name": "",
          "type": "address"
        }
      ],
      "name": "supportedTokens",
      "outputs": [
        {
          "internalType": "bool",
          "name": "",
          "type": "bool"
        }
      ],
      "payable": false,
      "stateMutability": "view",
      "type": "function"
    },
    {
      "constant": true,
      "inputs": [],
      "name": "swapsImpl",
      "outputs": [
        {
          "internalType": "address",
          "name": "",
          "type": "address"
        }
      ],
      "payable": false,
      "stateMutability": "view",
      "type": "function"
    },
    {
      "constant": true,
      "inputs": [],
      "name": "tradingFeePercent",
      "outputs": [
        {
          "internalType": "uint256",
          "name": "",
          "type": "uint256"
        }
      ],
      "payable": false,
      "stateMutability": "view",
      "type": "function"
    },
    {
      "constant": true,
      "inputs": [
        {
          "internalType": "address",
          "name": "",
          "type": "address"
        }
      ],
      "name": "tradingFeeTokensHeld",
      "outputs": [
        {
          "internalType": "uint256",
          "name": "",
          "type": "uint256"
        }
      ],
      "payable": false,
      "stateMutability": "view",
      "type": "function"
    },
    {
      "constant": true,
      "inputs": [
        {
          "internalType": "address",
          "name": "",
          "type": "address"
        }
      ],
      "name": "tradingFeeTokensPaid",
      "outputs": [
        {
          "internalType": "uint256",
          "name": "",
          "type": "uint256"
        }
      ],
      "payable": false,
      "stateMutability": "view",
      "type": "function"
    },
    {
      "constant": false,
      "inputs": [
        {
          "internalType": "address",
          "name": "newOwner",
          "type": "address"
        }
      ],
      "name": "transferOwnership",
      "outputs": [],
      "payable": false,
      "stateMutability": "nonpayable",
      "type": "function"
    },
    {
      "constant": true,
      "inputs": [
        {
          "internalType": "address",
          "name": "",
          "type": "address"
        }
      ],
      "name": "underlyingToLoanPool",
      "outputs": [
        {
          "internalType": "address",
          "name": "",
          "type": "address"
        }
      ],
      "payable": false,
      "stateMutability": "view",
      "type": "function"
    },
    {
      "constant": true,
      "inputs": [
        {
          "internalType": "address",
          "name": "",
          "type": "address"
        }
      ],
      "name": "userNotFirstTradeFlag",
      "outputs": [
        {
          "internalType": "bool",
          "name": "",
          "type": "bool"
        }
      ],
      "payable": false,
      "stateMutability": "view",
      "type": "function"
    },
    {
      "constant": true,
      "inputs": [],
      "name": "wrbtcToken",
      "outputs": [
        {
          "internalType": "contract IWrbtcERC20",
          "name": "",
          "type": "address"
        }
      ],
      "payable": false,
      "stateMutability": "view",
      "type": "function"
    }
  ],
  "bytecode": {
    "object": "0x60806040526001600055678ac7230489e80000601555670214e8348c4f000060185567013fbe85edc90000601b55674563918244f40000602055674563918244f40000602155674563918244f400006027556127106028556802b5e3af16b1880000602955650f478e084000602b5567016345785d8a0000602c556802b5e3af16b1880000602f5560036035556801158e460913d0000060395560006100a96100fc60201b60201c565b600180546001600160a01b0319166001600160a01b038316908117909155604051919250906000907f8be0079c531659141344cd1fd0a4f28419497f9722a3daafe3b4186f6b6457e0908290a350610100565b3390565b6124b48061010f6000396000f3fe6080604052600436106103765760003560e01c80638dc48ba5116101d1578063c8c8f39511610102578063e8f62764116100a0578063f589a3e71161006f578063f589a3e714610e32578063f6ddc8b314610e47578063f706b1f214610e5c578063f851a44014610e7157610376565b8063e8f6276414610dbe578063edab119f14610dd3578063f0e085f514610de8578063f2fde38b14610dfd57610376565b8063cd5d808d116100dc578063cd5d808d14610d26578063d288208c14610d61578063d473c2da14610d76578063d485045e14610d8b57610376565b8063c8c8f39514610c30578063ca83d57514610c79578063cb6eacd114610cac57610376565b8063b1fb7f561161016f578063b9cffa3e11610149578063b9cffa3e14610b3e578063ba4861e914610b53578063bdee453c14610b68578063c4a9081514610b9b57610376565b8063b1fb7f5614610a27578063b30643d914610ad8578063b7e1524114610b0b57610376565b8063959083d3116101ab578063959083d3146109d3578063acc04348146109e8578063ae0a8530146109fd578063afe8400914610a1257610376565b80638dc48ba5146109585780638f32d59b1461098b57806392d894f8146109a057610376565b80634699f846116102ab5780636e6637301161024957806378d849ed1161022357806378d849ed146109045780637a8faeb8146109195780638456cb591461092e5780638da5cb5b1461094357610376565b80636e663730146108a75780637420ca3e146108da578063742e6798146108ef57610376565b8063569fc1fb11610285578063569fc1fb146107b1578063574442cc146107f957806362fff3f61461080e57806368c4ac261461087457610376565b80634699f846146106b35780634cad978c146106c85780634f28cac21461079c57610376565b80632a324027116103185780633452d2d4116102f25780633452d2d4146105e15780633fca506e146106145780634115a2b6146106475780634203e3951461068057610376565b80632a3240271461057e5780632f470764146105935780633432423c146105a857610376565b80631b7bde74116103545780631b7bde741461044c578063218b39c61461049957806324cc5749146104cc578063255ee8441461051357610376565b8063065d810f1461037b5780630676c1b7146103e757806317548b7914610418575b600080fd5b34801561038757600080fd5b506103b46004803603604081101561039e57600080fd5b506001600160a01b038135169060200135610e86565b604080519687526020870195909552858501939093526060850191909152608084015260a0830152519081900360c00190f35b3480156103f357600080fd5b506103fc610ec6565b604080516001600160a01b039092168252519081900360200190f35b34801561042457600080fd5b506103fc6004803603602081101561043b57600080fd5b50356001600160e01b031916610ed5565b34801561045857600080fd5b506104876004803603604081101561046f57600080fd5b506001600160a01b0381358116916020013516610ef0565b60408051918252519081900360200190f35b3480156104a557600080fd5b506103fc600480360360208110156104bc57600080fd5b50356001600160a01b0316610f0d565b3480156104d857600080fd5b506104ff600480360360208110156104ef57600080fd5b50356001600160a01b0316610f28565b604080519115158252519081900360200190f35b610565600480360360e081101561052957600080fd5b506001600160a01b0381358116916020810135821691604082013581169160608101359091169060808101359060a08101359060c00135610f3d565b6040805192835260208301919091528051918290030190f35b34801561058a57600080fd5b506104876112ec565b34801561059f57600080fd5b506104876112f2565b3480156105b457600080fd5b506103b4600480360360408110156105cb57600080fd5b506001600160a01b0381351690602001356112f8565b3480156105ed57600080fd5b506104876004803603602081101561060457600080fd5b50356001600160a01b0316611338565b34801561062057600080fd5b506104876004803603602081101561063757600080fd5b50356001600160a01b031661134a565b34801561065357600080fd5b506104ff6004803603604081101561066a57600080fd5b50803590602001356001600160a01b031661135c565b34801561068c57600080fd5b50610487600480360360208110156106a357600080fd5b50356001600160a01b031661137c565b3480156106bf57600080fd5b5061048761138e565b3480156106d457600080fd5b50610487600480360360a08110156106eb57600080fd5b6001600160a01b0382358116926020810135821692604082013592606083013516919081019060a081016080820135600160201b81111561072b57600080fd5b82018360208201111561073d57600080fd5b803590602001918460208302840111600160201b8311171561075e57600080fd5b919080806020026020016040519081016040528093929190818152602001838360200280828437600092019190915250929550611394945050505050565b3480156107a857600080fd5b50610487611592565b3480156107bd57600080fd5b506107db600480360360208110156107d457600080fd5b5035611598565b60408051938452602084019290925282820152519081900360600190f35b34801561080557600080fd5b506104876115b9565b34801561081a57600080fd5b506108496004803603604081101561083157600080fd5b506001600160a01b03813581169160200135166115bf565b6040805195865260208601949094528484019290925260608401526080830152519081900360a00190f35b34801561088057600080fd5b506104ff6004803603602081101561089757600080fd5b50356001600160a01b03166115f9565b3480156108b357600080fd5b506103fc600480360360208110156108ca57600080fd5b50356001600160a01b031661160e565b3480156108e657600080fd5b506103fc611629565b3480156108fb57600080fd5b50610487611638565b34801561091057600080fd5b506103fc61163e565b34801561092557600080fd5b5061048761164d565b34801561093a57600080fd5b506104ff611653565b34801561094f57600080fd5b506103fc61165c565b34801561096457600080fd5b506103fc6004803603602081101561097b57600080fd5b50356001600160a01b031661166b565b34801561099757600080fd5b506104ff611686565b3480156109ac57600080fd5b50610487600480360360208110156109c357600080fd5b50356001600160a01b03166116ac565b3480156109df57600080fd5b506104876116be565b3480156109f457600080fd5b506104876116c4565b348015610a0957600080fd5b506104876116ca565b348015610a1e57600080fd5b506103fc6116d0565b348015610a3357600080fd5b5061048760048036036020811015610a4a57600080fd5b810190602081018135600160201b811115610a6457600080fd5b820183602082011115610a7657600080fd5b803590602001918460018302840111600160201b83111715610a9757600080fd5b91908080601f0160208091040260200160405190810160405280939291908181526020018383808284376000920191909152509295506116df945050505050565b348015610ae457600080fd5b5061048760048036036020811015610afb57600080fd5b50356001600160a01b03166116e6565b348015610b1757600080fd5b5061048760048036036020811015610b2e57600080fd5b50356001600160a01b03166116f8565b348015610b4a57600080fd5b506103fc61170a565b348015610b5f57600080fd5b506103fc611719565b348015610b7457600080fd5b5061048760048036036020811015610b8b57600080fd5b50356001600160a01b0316611728565b348015610ba757600080fd5b50610bc560048036036020811015610bbe57600080fd5b503561173a565b604080519c8d5260208d019b909b528b8b019990995296151560608b015260808a019590955260a089019390935260c088019190915260e08701526101008601526101208501526001600160a01b039081166101408501521661016083015251908190036101800190f35b348015610c3c57600080fd5b5061048760048036036080811015610c5357600080fd5b506001600160a01b038135811691602081013582169160408201359160600135166117ac565b348015610c8557600080fd5b506103fc60048036036020811015610c9c57600080fd5b50356001600160a01b03166118b9565b348015610cb857600080fd5b50610cd660048036036020811015610ccf57600080fd5b5035611967565b6040805198895296151560208901526001600160a01b0395861688880152938516606088015291909316608086015260a085019290925260c084019190915260e083015251908190036101000190f35b348015610d3257600080fd5b5061048760048036036040811015610d4957600080fd5b506001600160a01b03813581169160200135166119b9565b348015610d6d57600080fd5b506103fc6119d6565b348015610d8257600080fd5b506104876119e5565b348015610d9757600080fd5b5061048760048036036020811015610dae57600080fd5b50356001600160a01b03166119eb565b348015610dca57600080fd5b506103fc6119fd565b348015610ddf57600080fd5b50610487611a0c565b348015610df457600080fd5b50610487611a12565b348015610e0957600080fd5b50610e3060048036036020811015610e2057600080fd5b50356001600160a01b0316611a18565b005b348015610e3e57600080fd5b50610487611a6c565b348015610e5357600080fd5b50610487611a72565b348015610e6857600080fd5b506103fc611a78565b348015610e7d57600080fd5b506103fc611a87565b6009602090815260009283526040808420909152908252902080546001820154600283015460038401546004850154600590950154939492939192909186565b6031546001600160a01b031681565b6005602052600090815260409020546001600160a01b031681565b603b60209081526000928352604080842090915290825290205481565b6023602052600090815260409020546001600160a01b031681565b60326020526000908152604090205460ff1681565b600080876001600160a01b0316896001600160a01b03161415610f98576040805162461bcd60e51b815260206004820152600e60248201526d1cdbdd5c98d9480f4f4819195cdd60921b604482015290519081900360640190fd5b6001600160a01b03891660009081526026602052604090205460ff168015610fd857506001600160a01b03881660009081526026602052604090205460ff165b61101a576040805162461bcd60e51b815260206004820152600e60248201526d696e76616c696420746f6b656e7360901b604482015290519081900360640190fd5b600454600090611032906001600160a01b03166118b9565b905060606110418b8b84611a96565b8793509050600185156111535761105a8c8c888a611c48565b935085836001600160a01b0316637f9c0ecd84876040518363ffffffff1660e01b81526004018080602001838152602001828103825284818151815260200191508051906020019060200280838360005b838110156110c35781810151838201526020016110ab565b50505050905001935050505060206040518083038186803b1580156110e757600080fd5b505afa1580156110fb573d6000803e3d6000fd5b505050506040513d602081101561111157600080fd5b505110156111505760405162461bcd60e51b81526004018080602001828103825260248152602001806123fc6024913960400191505060405180910390fd5b50845b6000841161119f576040805162461bcd60e51b815260206004820152601460248201527363616e6e6f742073776170203020746f6b656e7360601b604482015290519081900360640190fd5b6111aa848d85611d6f565b826001600160a01b031663b77d239b8386848e6000806040518763ffffffff1660e01b81526004018080602001878152602001868152602001856001600160a01b03166001600160a01b03168152602001846001600160a01b03166001600160a01b03168152602001838152602001828103825288818151815260200191508051906020019060200280838360005b83811015611251578181015183820152602001611239565b50505050905001975050505050505050602060405180830381600087803b15801561127b57600080fd5b505af115801561128f573d6000803e3d6000fd5b505050506040513d60208110156112a557600080fd5b505194506001600160a01b03891630146112dd57868410156112dd576112dd6001600160a01b038d168a868a0363ffffffff611e1816565b50505097509795505050505050565b60185481565b601f5481565b6008602090815260009283526040808420909152908252902080546001820154600283015460038401546004850154600590950154939492939192909186565b601a6020526000908152604090205481565b602a6020526000908152604090205481565b600a60209081526000928352604080842090915290825290205460ff1681565b60166020526000908152604090205481565b60155481565b6000806113a0846118b9565b905060606003845110156114cc576040805163d734fa1960e01b81526001600160a01b038a81166004830152898116602483015291519184169163d734fa1991604480820192600092909190829003018186803b15801561140057600080fd5b505afa158015611414573d6000803e3d6000fd5b505050506040513d6000823e601f3d908101601f19168201604052602081101561143d57600080fd5b8101908080516040519392919084600160201b82111561145c57600080fd5b90830190602082018581111561147157600080fd5b82518660208202830111600160201b8211171561148d57600080fd5b82525081516020918201928201910280838360005b838110156114ba5781810151838201526020016114a2565b505050509050016040525050506114ce565b835b60408051637f9c0ecd60e01b815260248101899052600481019182528251604482015282519293506001600160a01b03851692637f9c0ecd9285928b928291606401906020808701910280838360005b8381101561153657818101518382015260200161151e565b50505050905001935050505060206040518083038186803b15801561155a57600080fd5b505afa15801561156e573d6000803e3d6000fd5b505050506040513d602081101561158457600080fd5b505198975050505050505050565b60295481565b600c6020526000908152604090208054600182015460029092015490919083565b602b5481565b600b602090815260009283526040808420909152908252902080546001820154600283015460038401546004909401549293919290919085565b60266020526000908152604090205460ff1681565b6033602052600090815260409020546001600160a01b031681565b6003546001600160a01b031681565b60355481565b6002546001600160a01b031681565b601e5481565b603d5460ff1681565b6001546001600160a01b031690565b6022602052600090815260409020546001600160a01b031681565b6001546000906001600160a01b031661169d611e6f565b6001600160a01b031614905090565b60176020526000908152604090205481565b602c5481565b602f5481565b60205481565b602d546001600160a01b031681565b6020015190565b601d6020526000908152604090205481565b601c6020526000908152604090205481565b6037546001600160a01b031681565b6004546001600160a01b031681565b60366020526000908152604090205481565b600660208190526000918252604090912080546001820154600283015460038401546004850154600586015496860154600787015460088801546009890154600a8a0154600b909a0154989a9799969860ff909616979496949593949293919290916001600160a01b0391821691168c565b6000806117b8836118b9565b905060606117c7878784611a96565b90506000826001600160a01b0316637f9c0ecd83886040518363ffffffff1660e01b81526004018080602001838152602001828103825284818151815260200191508051906020019060200280838360005b83811015611831578181015183820152602001611819565b50505050905001935050505060206040518083038186803b15801561185557600080fd5b505afa158015611869573d6000803e3d6000fd5b505050506040513d602081101561187f57600080fd5b505190506118ab8661189f83670de0b6b3a764000063ffffffff611e7316565b9063ffffffff611ed516565b93505050505b949350505050565b600080829050806001600160a01b031663bb34534c61190060405180604001604052806011815260200170536f7672796e537761704e6574776f726b60781b8152506116df565b6040518263ffffffff1660e01b81526004018082815260200191505060206040518083038186803b15801561193457600080fd5b505afa158015611948573d6000803e3d6000fd5b505050506040513d602081101561195e57600080fd5b50519392505050565b6007602052600090815260409020805460018201546002830154600384015460048501546005860154600690960154949560ff8516956101009095046001600160a01b03908116959481169493169288565b603c60209081526000928352604080842090915290825290205481565b6038546001600160a01b031681565b60275481565b60196020526000908152604090205481565b6014546001600160a01b031681565b601b5481565b60285481565b611a20611686565b611a60576040805162461bcd60e51b815260206004820152600c60248201526b1d5b985d5d1a1bdc9a5e995960a21b604482015290519081900360640190fd5b611a6981611f17565b50565b60395481565b60215481565b602e546001600160a01b031681565b6030546001600160a01b031681565b6001600160a01b0380841660009081526040602081815281832093861683529283529081902080548251818502810185019093528083526060938493929190830182828015611b0e57602002820191906000526020600020905b81546001600160a01b03168152600190910190602001808311611af0575b50505050509050600381511015611c3d576040805163d734fa1960e01b81526001600160a01b038781166004830152868116602483015291519185169163d734fa1991604480820192600092909190829003018186803b158015611b7157600080fd5b505afa158015611b85573d6000803e3d6000fd5b505050506040513d6000823e601f3d908101601f191682016040526020811015611bae57600080fd5b8101908080516040519392919084600160201b821115611bcd57600080fd5b908301906020820185811115611be257600080fd5b82518660208202830111600160201b82111715611bfe57600080fd5b82525081516020918201928201910280838360005b83811015611c2b578181015183820152602001611c13565b50505050905001604052505050611c3f565b805b95945050505050565b6002546040805163524efd4b60e01b81526001600160a01b038781166004830152868116602483015291516000938493169163524efd4b916044808301926020929190829003018186803b158015611c9f57600080fd5b505afa158015611cb3573d6000803e3d6000fd5b505050506040513d6020811015611cc957600080fd5b5051905080611cdb57829150506118b1565b600454600090611cf9908890889087906001600160a01b03166117ac565b9050611d0f8161189f878563ffffffff611e7316565b92506000611d25846103e863ffffffff611ed516565b9050602854811115611d3657506028545b611d46848263ffffffff611fb816565b9350831580611d5457508484115b15611d64578493505050506118b1565b505050949350505050565b60408051636eb1769f60e11b81523060048201526001600160a01b038381166024830152915160009285169163dd62ed3e916044808301926020929190829003018186803b158015611dc057600080fd5b505afa158015611dd4573d6000803e3d6000fd5b505050506040513d6020811015611dea57600080fd5b5051905083811015611e1257611e126001600160a01b0384168360001963ffffffff61201216565b50505050565b604080516001600160a01b038416602482015260448082018490528251808303909101815260649091019091526020810180516001600160e01b031663a9059cbb60e01b179052611e6a908490612121565b505050565b3390565b600082611e8257506000611ecf565b82820282848281611e8f57fe5b0414611ecc5760405162461bcd60e51b81526004018080602001828103825260218152602001806123db6021913960400191505060405180910390fd5b90505b92915050565b6000611ecc83836040518060400160405280601a81526020017f536166654d6174683a206469766973696f6e206279207a65726f0000000000008152506122d9565b6001600160a01b038116611f5c5760405162461bcd60e51b81526004018080602001828103825260268152602001806123b56026913960400191505060405180910390fd5b6001546040516001600160a01b038084169216907f8be0079c531659141344cd1fd0a4f28419497f9722a3daafe3b4186f6b6457e090600090a3600180546001600160a01b0319166001600160a01b0392909216919091179055565b600082820183811015611ecc576040805162461bcd60e51b815260206004820152601b60248201527f536166654d6174683a206164646974696f6e206f766572666c6f770000000000604482015290519081900360640190fd5b801580612098575060408051636eb1769f60e11b81523060048201526001600160a01b03848116602483015291519185169163dd62ed3e91604480820192602092909190829003018186803b15801561206a57600080fd5b505afa15801561207e573d6000803e3d6000fd5b505050506040513d602081101561209457600080fd5b5051155b6120d35760405162461bcd60e51b815260040180806020018281038252603681526020018061244a6036913960400191505060405180910390fd5b604080516001600160a01b038416602482015260448082018490528251808303909101815260649091019091526020810180516001600160e01b031663095ea7b360e01b179052611e6a9084905b612133826001600160a01b031661237b565b612184576040805162461bcd60e51b815260206004820152601f60248201527f5361666545524332303a2063616c6c20746f206e6f6e2d636f6e747261637400604482015290519081900360640190fd5b60006060836001600160a01b0316836040518082805190602001908083835b602083106121c25780518252601f1990920191602091820191016121a3565b6001836020036101000a0380198251168184511680821785525050505050509050019150506000604051808303816000865af19150503d8060008114612224576040519150601f19603f3d011682016040523d82523d6000602084013e612229565b606091505b509150915081612280576040805162461bcd60e51b815260206004820181905260248201527f5361666545524332303a206c6f772d6c6576656c2063616c6c206661696c6564604482015290519081900360640190fd5b805115611e125780806020019051602081101561229c57600080fd5b5051611e125760405162461bcd60e51b815260040180806020018281038252602a815260200180612420602a913960400191505060405180910390fd5b600081836123655760405162461bcd60e51b81526004018080602001828103825283818151815260200191508051906020019080838360005b8381101561232a578181015183820152602001612312565b50505050905090810190601f1680156123575780820380516001836020036101000a031916815260200191505b509250505060405180910390fd5b50600083858161237157fe5b0495945050505050565b6000813f7fc5d2460186f7233c927e7db2dcc703c0e500b653ca82273b7bfad8045d85a4708181148015906118b157505015159291505056fe4f776e61626c653a206e6577206f776e657220697320746865207a65726f2061646472657373536166654d6174683a206d756c7469706c69636174696f6e206f766572666c6f77696e73756666696369656e7420736f7572636520746f6b656e732070726f76696465642e5361666545524332303a204552433230206f7065726174696f6e20646964206e6f7420737563636565645361666545524332303a20617070726f76652066726f6d206e6f6e2d7a65726f20746f206e6f6e2d7a65726f20616c6c6f77616e6365a265627a7a723158209408667992ecb4b524ef2d8873e4c051697fa8249eda5b9d4ebe6c20dedc77c864736f6c63430005110032",
    "linkReferences": {}
  },
  "methodIdentifiers": {
    "admin()": "f851a440",
    "affiliateFeePercent()": "ae0a8530",
    "affiliateRewardsHeld(address)": "bdee453c",
    "affiliateTradingTokenFeePercent()": "f589a3e7",
    "affiliatesReferrerBalances(address,address)": "1b7bde74",
    "affiliatesUserReferrer(address)": "6e663730",
    "borrowerNonce(address)": "3fca506e",
    "borrowerOrders(address,bytes32)": "065d810f",
    "borrowingFeePercent()": "edab119f",
    "borrowingFeeTokensHeld(address)": "b7e15241",
    "borrowingFeeTokensPaid(address)": "b30643d9",
    "delegatedManagers(bytes32,address)": "4115a2b6",
    "feeRebatePercent()": "acc04348",
    "feesController()": "e8f62764",
    "getContractHexName(string)": "b1fb7f56",
    "getSovrynSwapNetworkContract(address)": "ca83d575",
    "internalExpectedRate(address,address,uint256,address)": "c8c8f395",
    "internalExpectedReturn(address,address,uint256,address,address[])": "4cad978c",
    "internalSwap(address,address,address,address,uint256,uint256,uint256)": "255ee844",
    "isOwner()": "8f32d59b",
    "lenderInterest(address,address)": "62fff3f6",
    "lenderOrders(address,bytes32)": "3432423c",
    "lendingFeePercent()": "4699f846",
    "lendingFeeTokensHeld(address)": "4203e395",
    "lendingFeeTokensPaid(address)": "92d894f8",
    "liquidationIncentivePercent()": "f6ddc8b3",
    "loanInterest(bytes32)": "569fc1fb",
    "loanParams(bytes32)": "cb6eacd1",
    "loanPoolToUnderlying(address)": "8dc48ba5",
    "loans(bytes32)": "c4a90815",
    "lockedSOVAddress()": "d288208c",
    "logicTargets(bytes4)": "17548b79",
    "maxDisagreement()": "d473c2da",
    "maxSwapSize()": "4f28cac2",
    "minReferralsToPayout()": "742e6798",
    "owner()": "8da5cb5b",
    "pause()": "8456cb59",
    "priceFeeds()": "78d849ed",
    "protocolAddress()": "0676c1b7",
    "protocolTokenAddress()": "f706b1f2",
    "protocolTokenHeld()": "7a8faeb8",
    "protocolTokenPaid()": "2f470764",
    "rolloverBaseReward()": "574442cc",
    "rolloverFlexFeePercent()": "959083d3",
    "sourceBuffer()": "f0e085f5",
    "sovTokenAddress()": "b9cffa3e",
    "sovrynSwapContractRegistryAddress()": "ba4861e9",
    "specialRebates(address,address)": "cd5d808d",
    "supportedTokens(address)": "68c4ac26",
    "swapsImpl()": "7420ca3e",
    "tradingFeePercent()": "2a324027",
    "tradingFeeTokensHeld(address)": "d485045e",
    "tradingFeeTokensPaid(address)": "3452d2d4",
    "transferOwnership(address)": "f2fde38b",
    "underlyingToLoanPool(address)": "218b39c6",
    "userNotFirstTradeFlag(address)": "24cc5749",
    "wrbtcToken()": "afe84009"
  },
  "id": 201
}