{
  "abi": [
    {
      "anonymous": false,
      "inputs": [
        {
          "indexed": true,
          "internalType": "address",
          "name": "previousOwner",
          "type": "address"
        },
        {
          "indexed": true,
          "internalType": "address",
          "name": "newOwner",
          "type": "address"
        }
      ],
      "name": "OwnershipTransferred",
      "type": "event"
    },
    {
      "constant": true,
      "inputs": [
        {
          "internalType": "bytes4",
          "name": "",
          "type": "bytes4"
        }
      ],
      "name": "isFunctionExecuted",
      "outputs": [
        {
          "internalType": "bool",
          "name": "",
          "type": "bool"
        }
      ],
      "payable": false,
      "stateMutability": "view",
      "type": "function"
    },
    {
      "constant": true,
      "inputs": [],
      "name": "isOwner",
      "outputs": [
        {
          "internalType": "bool",
          "name": "",
          "type": "bool"
        }
      ],
      "payable": false,
      "stateMutability": "view",
      "type": "function"
    },
    {
      "constant": true,
      "inputs": [
        {
          "internalType": "address",
          "name": "",
          "type": "address"
        }
      ],
      "name": "lastFeeWithdrawalTime",
      "outputs": [
        {
          "internalType": "uint256",
          "name": "",
          "type": "uint256"
        }
      ],
      "payable": false,
      "stateMutability": "view",
      "type": "function"
    },
    {
      "constant": true,
      "inputs": [],
      "name": "owner",
      "outputs": [
        {
          "internalType": "address",
          "name": "",
          "type": "address"
        }
      ],
      "payable": false,
      "stateMutability": "view",
      "type": "function"
    },
    {
      "constant": true,
      "inputs": [
        {
          "internalType": "address",
          "name": "",
          "type": "address"
        },
        {
          "internalType": "address",
          "name": "",
          "type": "address"
        }
      ],
      "name": "processedCheckpoints",
      "outputs": [
        {
          "internalType": "uint256",
          "name": "",
          "type": "uint256"
        }
      ],
      "payable": false,
      "stateMutability": "view",
      "type": "function"
    },
    {
      "constant": true,
      "inputs": [],
      "name": "protocol",
      "outputs": [
        {
          "internalType": "contract IProtocol",
          "name": "",
          "type": "address"
        }
      ],
      "payable": false,
      "stateMutability": "view",
      "type": "function"
    },
    {
      "constant": true,
      "inputs": [],
      "name": "staking",
      "outputs": [
        {
          "internalType": "contract IStaking",
          "name": "",
          "type": "address"
        }
      ],
      "payable": false,
      "stateMutability": "view",
      "type": "function"
    },
    {
      "constant": true,
      "inputs": [
        {
          "internalType": "address",
          "name": "",
          "type": "address"
        },
        {
          "internalType": "uint256",
          "name": "",
          "type": "uint256"
        }
      ],
      "name": "tokenCheckpoints",
      "outputs": [
        {
          "internalType": "uint32",
          "name": "blockNumber",
          "type": "uint32"
        },
        {
          "internalType": "uint32",
          "name": "timestamp",
          "type": "uint32"
        },
        {
          "internalType": "uint96",
          "name": "totalWeightedStake",
          "type": "uint96"
        },
        {
          "internalType": "uint96",
          "name": "numTokens",
          "type": "uint96"
        }
      ],
      "payable": false,
      "stateMutability": "view",
      "type": "function"
    },
    {
      "constant": true,
      "inputs": [
        {
          "internalType": "address",
          "name": "",
          "type": "address"
        }
      ],
      "name": "totalTokenCheckpoints",
      "outputs": [
        {
          "internalType": "uint256",
          "name": "",
          "type": "uint256"
        }
      ],
      "payable": false,
      "stateMutability": "view",
      "type": "function"
    },
    {
      "constant": false,
      "inputs": [
        {
          "internalType": "address",
          "name": "newOwner",
          "type": "address"
        }
      ],
      "name": "transferOwnership",
      "outputs": [],
      "payable": false,
      "stateMutability": "nonpayable",
      "type": "function"
    },
    {
      "constant": true,
      "inputs": [
        {
          "internalType": "address",
          "name": "",
          "type": "address"
        }
      ],
      "name": "unprocessedAmount",
      "outputs": [
        {
          "internalType": "uint96",
          "name": "",
          "type": "uint96"
        }
      ],
      "payable": false,
      "stateMutability": "view",
      "type": "function"
    }
  ],
  "bytecode": {
    "object": "0x60806040526001600855600061001c6001600160e01b0361006b16565b600080546001600160a01b0319166001600160a01b0383169081178255604051929350917f8be0079c531659141344cd1fd0a4f28419497f9722a3daafe3b4186f6b6457e0908290a35061006f565b3390565b6106638061007e6000396000f3fe608060405234801561001057600080fd5b50600436106100a95760003560e01c80638da5cb5b116100715780638da5cb5b146101375780638f32d59b1461014c578063d93b69ab14610161578063f2962cda14610174578063f2fde38b14610187578063f3bdba8f1461019c576100a9565b80634cf088d9146100ae57806370530017146100cc5780637913b451146100ef5780638b6fdcba1461010f5780638ce744261461012f575b600080fd5b6100b66101af565b6040516100c3919061051d565b60405180910390f35b6100df6100da366004610407565b6101be565b6040516100c39493929190610559565b6101026100fd3660046103cd565b61020f565b6040516100c3919061054b565b61012261011d3660046103a7565b61022c565b6040516100c39190610597565b6100b6610247565b61013f610256565b6040516100c39190610501565b610154610265565b6040516100c3919061050f565b61015461016f366004610437565b610289565b6101026101823660046103a7565b61029e565b61019a6101953660046103a7565b6102b0565b005b6101026101aa3660046103a7565b6102e9565b6002546001600160a01b031681565b600360209081526000928352604080842090915290825290205463ffffffff808216916401000000008104909116906001600160601b03680100000000000000008204811691600160a01b90041684565b600560209081526000928352604080842090915290825290205481565b6007602052600090815260409020546001600160601b031681565b6001546001600160a01b031681565b6000546001600160a01b031690565b600080546001600160a01b031661027a6102fb565b6001600160a01b031614905090565b600b6020526000908152604090205460ff1681565b60046020526000908152604090205481565b6102b8610265565b6102dd5760405162461bcd60e51b81526004016102d49061053b565b60405180910390fd5b6102e6816102ff565b50565b60066020526000908152604090205481565b3390565b6001600160a01b0381166103255760405162461bcd60e51b81526004016102d49061052b565b600080546040516001600160a01b03808516939216917f8be0079c531659141344cd1fd0a4f28419497f9722a3daafe3b4186f6b6457e091a3600080546001600160a01b0319166001600160a01b0392909216919091179055565b803561038b816105fa565b92915050565b803561038b8161060e565b803561038b81610617565b6000602082840312156103b957600080fd5b60006103c58484610380565b949350505050565b600080604083850312156103e057600080fd5b60006103ec8585610380565b92505060206103fd85828601610380565b9150509250929050565b6000806040838503121561041a57600080fd5b60006104268585610380565b92505060206103fd8582860161039c565b60006020828403121561044957600080fd5b60006103c58484610391565b61045e816105ae565b82525050565b61045e816105b9565b61045e816105ef565b60006104836026836105a5565b7f4f776e61626c653a206e6577206f776e657220697320746865207a65726f206181526564647265737360d01b602082015260400192915050565b60006104cb600c836105a5565b6b1d5b985d5d1a1bdc9a5e995960a21b815260200192915050565b61045e816105d7565b61045e816105da565b61045e816105e3565b6020810161038b8284610455565b6020810161038b8284610464565b6020810161038b828461046d565b6020808252810161038b81610476565b6020808252810161038b816104be565b6020810161038b82846104e6565b6080810161056782876104ef565b61057460208301866104ef565b61058160408301856104f8565b61058e60608301846104f8565b95945050505050565b6020810161038b82846104f8565b90815260200190565b600061038b826105cb565b151590565b6001600160e01b03191690565b6001600160a01b031690565b90565b63ffffffff1690565b6001600160601b031690565b600061038b826105ae565b610603816105ae565b81146102e657600080fd5b610603816105be565b610603816105d756fea365627a7a723158204756776b0ce983962647f7201d76116933f6c78cef3f798fdc98e4ea664dc7346c6578706572696d656e74616cf564736f6c63430005110040",
    "linkReferences": {}
  },
  "methodIdentifiers": {
    "isFunctionExecuted(bytes4)": "d93b69ab",
    "isOwner()": "8f32d59b",
    "lastFeeWithdrawalTime(address)": "f3bdba8f",
    "owner()": "8da5cb5b",
    "processedCheckpoints(address,address)": "7913b451",
    "protocol()": "8ce74426",
    "staking()": "4cf088d9",
    "tokenCheckpoints(address,uint256)": "70530017",
    "totalTokenCheckpoints(address)": "f2962cda",
    "transferOwnership(address)": "f2fde38b",
    "unprocessedAmount(address)": "8b6fdcba"
  },
  "id": 56
}