{
  "abi": [
    {
      "anonymous": false,
      "inputs": [
        {
          "indexed": true,
          "internalType": "address",
          "name": "previousOwner",
          "type": "address"
        },
        {
          "indexed": true,
          "internalType": "address",
          "name": "newOwner",
          "type": "address"
        }
      ],
      "name": "OwnershipTransferred",
      "type": "event"
    },
    {
      "constant": true,
      "inputs": [],
      "name": "isOwner",
      "outputs": [
        {
          "internalType": "bool",
          "name": "",
          "type": "bool"
        }
      ],
      "payable": false,
      "stateMutability": "view",
      "type": "function"
    },
    {
      "constant": true,
      "inputs": [
        {
          "internalType": "address",
          "name": "",
          "type": "address"
        }
      ],
      "name": "lastFeeWithdrawalTime",
      "outputs": [
        {
          "internalType": "uint256",
          "name": "",
          "type": "uint256"
        }
      ],
      "payable": false,
      "stateMutability": "view",
      "type": "function"
    },
    {
      "constant": true,
      "inputs": [],
      "name": "owner",
      "outputs": [
        {
          "internalType": "address",
          "name": "",
          "type": "address"
        }
      ],
      "payable": false,
      "stateMutability": "view",
      "type": "function"
    },
    {
      "constant": true,
      "inputs": [
        {
          "internalType": "address",
          "name": "",
          "type": "address"
        },
        {
          "internalType": "address",
          "name": "",
          "type": "address"
        }
      ],
      "name": "processedCheckpoints",
      "outputs": [
        {
          "internalType": "uint256",
          "name": "",
          "type": "uint256"
        }
      ],
      "payable": false,
      "stateMutability": "view",
      "type": "function"
    },
    {
      "constant": true,
      "inputs": [],
      "name": "protocol",
      "outputs": [
        {
          "internalType": "contract IProtocol",
          "name": "",
          "type": "address"
        }
      ],
      "payable": false,
      "stateMutability": "view",
      "type": "function"
    },
    {
      "constant": true,
      "inputs": [],
      "name": "staking",
      "outputs": [
        {
          "internalType": "contract IStaking",
          "name": "",
          "type": "address"
        }
      ],
      "payable": false,
      "stateMutability": "view",
      "type": "function"
    },
    {
      "constant": true,
      "inputs": [
        {
          "internalType": "address",
          "name": "",
          "type": "address"
        },
        {
          "internalType": "uint256",
          "name": "",
          "type": "uint256"
        }
      ],
      "name": "tokenCheckpoints",
      "outputs": [
        {
          "internalType": "uint32",
          "name": "blockNumber",
          "type": "uint32"
        },
        {
          "internalType": "uint32",
          "name": "timestamp",
          "type": "uint32"
        },
        {
          "internalType": "uint96",
          "name": "totalWeightedStake",
          "type": "uint96"
        },
        {
          "internalType": "uint96",
          "name": "numTokens",
          "type": "uint96"
        }
      ],
      "payable": false,
      "stateMutability": "view",
      "type": "function"
    },
    {
      "constant": true,
      "inputs": [
        {
          "internalType": "address",
          "name": "",
          "type": "address"
        }
      ],
      "name": "totalTokenCheckpoints",
      "outputs": [
        {
          "internalType": "uint256",
          "name": "",
          "type": "uint256"
        }
      ],
      "payable": false,
      "stateMutability": "view",
      "type": "function"
    },
    {
      "constant": false,
      "inputs": [
        {
          "internalType": "address",
          "name": "newOwner",
          "type": "address"
        }
      ],
      "name": "transferOwnership",
      "outputs": [],
      "payable": false,
      "stateMutability": "nonpayable",
      "type": "function"
    },
    {
      "constant": true,
      "inputs": [
        {
          "internalType": "address",
          "name": "",
          "type": "address"
        }
      ],
      "name": "unprocessedAmount",
      "outputs": [
        {
          "internalType": "uint96",
          "name": "",
          "type": "uint96"
        }
      ],
      "payable": false,
      "stateMutability": "view",
      "type": "function"
    }
  ],
  "bytecode": {
    "object": "0x60806040526001600855600061001c6001600160e01b0361006b16565b600080546001600160a01b0319166001600160a01b0383169081178255604051929350917f8be0079c531659141344cd1fd0a4f28419497f9722a3daafe3b4186f6b6457e0908290a35061006f565b3390565b6105f18061007e6000396000f3fe608060405234801561001057600080fd5b506004361061009e5760003560e01c80638da5cb5b116100665780638da5cb5b1461012c5780638f32d59b14610141578063f2962cda14610156578063f2fde38b14610169578063f3bdba8f1461017e5761009e565b80634cf088d9146100a357806370530017146100c15780637913b451146100e45780638b6fdcba146101045780638ce7442614610124575b600080fd5b6100ab610191565b6040516100b891906104c1565b60405180910390f35b6100d46100cf3660046103c9565b6101a0565b6040516100b894939291906104fd565b6100f76100f236600461038f565b6101f1565b6040516100b891906104ef565b610117610112366004610369565b61020e565b6040516100b8919061053b565b6100ab610229565b610134610238565b6040516100b891906104a5565b610149610247565b6040516100b891906104b3565b6100f7610164366004610369565b61026b565b61017c610177366004610369565b61027d565b005b6100f761018c366004610369565b6102b6565b6002546001600160a01b031681565b600360209081526000928352604080842090915290825290205463ffffffff808216916401000000008104909116906001600160601b03680100000000000000008204811691600160a01b90041684565b600560209081526000928352604080842090915290825290205481565b6007602052600090815260409020546001600160601b031681565b6001546001600160a01b031681565b6000546001600160a01b031690565b600080546001600160a01b031661025c6102c8565b6001600160a01b031614905090565b60046020526000908152604090205481565b610285610247565b6102aa5760405162461bcd60e51b81526004016102a1906104df565b60405180910390fd5b6102b3816102cc565b50565b60066020526000908152604090205481565b3390565b6001600160a01b0381166102f25760405162461bcd60e51b81526004016102a1906104cf565b600080546040516001600160a01b03808516939216917f8be0079c531659141344cd1fd0a4f28419497f9722a3daafe3b4186f6b6457e091a3600080546001600160a01b0319166001600160a01b0392909216919091179055565b803561035881610591565b92915050565b8035610358816105a5565b60006020828403121561037b57600080fd5b6000610387848461034d565b949350505050565b600080604083850312156103a257600080fd5b60006103ae858561034d565b92505060206103bf8582860161034d565b9150509250929050565b600080604083850312156103dc57600080fd5b60006103e8858561034d565b92505060206103bf8582860161035e565b61040281610552565b82525050565b6104028161055d565b61040281610586565b6000610427602683610549565b7f4f776e61626c653a206e6577206f776e657220697320746865207a65726f206181526564647265737360d01b602082015260400192915050565b600061046f600c83610549565b6b1d5b985d5d1a1bdc9a5e995960a21b815260200192915050565b6104028161056e565b61040281610571565b6104028161057a565b6020810161035882846103f9565b602081016103588284610408565b602081016103588284610411565b602080825281016103588161041a565b6020808252810161035881610462565b60208101610358828461048a565b6080810161050b8287610493565b6105186020830186610493565b610525604083018561049c565b610532606083018461049c565b95945050505050565b60208101610358828461049c565b90815260200190565b600061035882610562565b151590565b6001600160a01b031690565b90565b63ffffffff1690565b6001600160601b031690565b600061035882610552565b61059a81610552565b81146102b357600080fd5b61059a8161056e56fea365627a7a72315820a1dba4026f36150a1202522b05bf17f7951ede9c5706f4da57774e2b14f8821c6c6578706572696d656e74616cf564736f6c63430005110040",
    "linkReferences": {}
  },
  "methodIdentifiers": {
    "isOwner()": "8f32d59b",
    "lastFeeWithdrawalTime(address)": "f3bdba8f",
    "owner()": "8da5cb5b",
    "processedCheckpoints(address,address)": "7913b451",
    "protocol()": "8ce74426",
    "staking()": "4cf088d9",
    "tokenCheckpoints(address,uint256)": "70530017",
    "totalTokenCheckpoints(address)": "f2962cda",
    "transferOwnership(address)": "f2fde38b",
    "unprocessedAmount(address)": "8b6fdcba"
  },
  "id": 56
}