{
  "abi": [
    {
      "inputs": [],
      "payable": false,
      "stateMutability": "nonpayable",
      "type": "constructor"
    },
    {
      "anonymous": false,
      "inputs": [
        {
          "indexed": true,
          "internalType": "address",
          "name": "user",
          "type": "address"
        },
        {
          "indexed": true,
          "internalType": "address",
          "name": "lender",
          "type": "address"
        },
        {
          "indexed": true,
          "internalType": "bytes32",
          "name": "loanId",
          "type": "bytes32"
        },
        {
          "indexed": false,
          "internalType": "address",
          "name": "closer",
          "type": "address"
        },
        {
          "indexed": false,
          "internalType": "address",
          "name": "loanToken",
          "type": "address"
        },
        {
          "indexed": false,
          "internalType": "address",
          "name": "collateralToken",
          "type": "address"
        },
        {
          "indexed": false,
          "internalType": "uint256",
          "name": "repayAmount",
          "type": "uint256"
        },
        {
          "indexed": false,
          "internalType": "uint256",
          "name": "collateralWithdrawAmount",
          "type": "uint256"
        },
        {
          "indexed": false,
          "internalType": "uint256",
          "name": "collateralToLoanRate",
          "type": "uint256"
        },
        {
          "indexed": false,
          "internalType": "uint256",
          "name": "currentMargin",
          "type": "uint256"
        }
      ],
      "name": "CloseWithDeposit",
      "type": "event"
    },
    {
      "anonymous": false,
      "inputs": [
        {
          "indexed": true,
          "internalType": "address",
          "name": "user",
          "type": "address"
        },
        {
          "indexed": true,
          "internalType": "address",
          "name": "lender",
          "type": "address"
        },
        {
          "indexed": true,
          "internalType": "bytes32",
          "name": "loanId",
          "type": "bytes32"
        },
        {
          "indexed": false,
          "internalType": "address",
          "name": "collateralToken",
          "type": "address"
        },
        {
          "indexed": false,
          "internalType": "address",
          "name": "loanToken",
          "type": "address"
        },
        {
          "indexed": false,
          "internalType": "address",
          "name": "closer",
          "type": "address"
        },
        {
          "indexed": false,
          "internalType": "uint256",
          "name": "positionCloseSize",
          "type": "uint256"
        },
        {
          "indexed": false,
          "internalType": "uint256",
          "name": "loanCloseAmount",
          "type": "uint256"
        },
        {
          "indexed": false,
          "internalType": "uint256",
          "name": "exitPrice",
          "type": "uint256"
        },
        {
          "indexed": false,
          "internalType": "uint256",
          "name": "currentLeverage",
          "type": "uint256"
        }
      ],
      "name": "CloseWithSwap",
      "type": "event"
    },
    {
      "anonymous": false,
      "inputs": [
        {
          "indexed": true,
          "internalType": "address",
          "name": "receiver",
          "type": "address"
        },
        {
          "indexed": true,
          "internalType": "address",
          "name": "token",
          "type": "address"
        },
        {
          "indexed": true,
          "internalType": "bytes32",
          "name": "loanId",
          "type": "bytes32"
        },
        {
          "indexed": false,
          "internalType": "uint256",
          "name": "feeRebatePercent",
          "type": "uint256"
        },
        {
          "indexed": false,
          "internalType": "uint256",
          "name": "amount",
          "type": "uint256"
        },
        {
          "indexed": false,
          "internalType": "uint256",
          "name": "basisPoint",
          "type": "uint256"
        }
      ],
      "name": "EarnReward",
      "type": "event"
    },
    {
      "anonymous": false,
      "inputs": [
        {
          "indexed": true,
          "internalType": "address",
          "name": "receiver",
          "type": "address"
        },
        {
          "indexed": true,
          "internalType": "address",
          "name": "token",
          "type": "address"
        },
        {
          "indexed": true,
          "internalType": "bytes32",
          "name": "loanId",
          "type": "bytes32"
        },
        {
          "indexed": false,
          "internalType": "uint256",
          "name": "feeRebatePercent",
          "type": "uint256"
        },
        {
          "indexed": false,
          "internalType": "uint256",
          "name": "amount",
          "type": "uint256"
        },
        {
          "indexed": false,
          "internalType": "uint256",
          "name": "basisPoint",
          "type": "uint256"
        }
      ],
      "name": "EarnRewardFail",
      "type": "event"
    },
    {
      "anonymous": false,
      "inputs": [
        {
          "indexed": true,
          "internalType": "address",
          "name": "user",
          "type": "address"
        },
        {
          "indexed": true,
          "internalType": "address",
          "name": "sourceToken",
          "type": "address"
        },
        {
          "indexed": true,
          "internalType": "address",
          "name": "destToken",
          "type": "address"
        },
        {
          "indexed": false,
          "internalType": "uint256",
          "name": "sourceAmount",
          "type": "uint256"
        },
        {
          "indexed": false,
          "internalType": "uint256",
          "name": "destAmount",
          "type": "uint256"
        }
      ],
      "name": "ExternalSwap",
      "type": "event"
    },
    {
      "anonymous": false,
      "inputs": [
        {
          "indexed": true,
          "internalType": "address",
          "name": "user",
          "type": "address"
        },
        {
          "indexed": true,
          "internalType": "address",
          "name": "liquidator",
          "type": "address"
        },
        {
          "indexed": true,
          "internalType": "bytes32",
          "name": "loanId",
          "type": "bytes32"
        },
        {
          "indexed": false,
          "internalType": "address",
          "name": "lender",
          "type": "address"
        },
        {
          "indexed": false,
          "internalType": "address",
          "name": "loanToken",
          "type": "address"
        },
        {
          "indexed": false,
          "internalType": "address",
          "name": "collateralToken",
          "type": "address"
        },
        {
          "indexed": false,
          "internalType": "uint256",
          "name": "repayAmount",
          "type": "uint256"
        },
        {
          "indexed": false,
          "internalType": "uint256",
          "name": "collateralWithdrawAmount",
          "type": "uint256"
        },
        {
          "indexed": false,
          "internalType": "uint256",
          "name": "collateralToLoanRate",
          "type": "uint256"
        },
        {
          "indexed": false,
          "internalType": "uint256",
          "name": "currentMargin",
          "type": "uint256"
        }
      ],
      "name": "Liquidate",
      "type": "event"
    },
    {
      "anonymous": false,
      "inputs": [
        {
          "indexed": true,
          "internalType": "bytes32",
          "name": "loanId",
          "type": "bytes32"
        },
        {
          "indexed": true,
          "internalType": "address",
          "name": "sourceToken",
          "type": "address"
        },
        {
          "indexed": true,
          "internalType": "address",
          "name": "destToken",
          "type": "address"
        },
        {
          "indexed": false,
          "internalType": "address",
          "name": "borrower",
          "type": "address"
        },
        {
          "indexed": false,
          "internalType": "uint256",
          "name": "sourceAmount",
          "type": "uint256"
        },
        {
          "indexed": false,
          "internalType": "uint256",
          "name": "destAmount",
          "type": "uint256"
        }
      ],
      "name": "LoanSwap",
      "type": "event"
    },
    {
      "anonymous": false,
      "inputs": [
        {
          "indexed": true,
          "internalType": "address",
          "name": "previousOwner",
          "type": "address"
        },
        {
          "indexed": true,
          "internalType": "address",
          "name": "newOwner",
          "type": "address"
        }
      ],
      "name": "OwnershipTransferred",
      "type": "event"
    },
    {
      "anonymous": false,
      "inputs": [
        {
          "indexed": true,
          "internalType": "address",
          "name": "payer",
          "type": "address"
        },
        {
          "indexed": true,
          "internalType": "address",
          "name": "token",
          "type": "address"
        },
        {
          "indexed": true,
          "internalType": "bytes32",
          "name": "loanId",
          "type": "bytes32"
        },
        {
          "indexed": false,
          "internalType": "uint256",
          "name": "amount",
          "type": "uint256"
        }
      ],
      "name": "PayBorrowingFee",
      "type": "event"
    },
    {
      "anonymous": false,
      "inputs": [
        {
          "indexed": true,
          "internalType": "address",
          "name": "interestToken",
          "type": "address"
        },
        {
          "indexed": true,
          "internalType": "address",
          "name": "lender",
          "type": "address"
        },
        {
          "indexed": false,
          "internalType": "uint256",
          "name": "effectiveInterest",
          "type": "uint256"
        }
      ],
      "name": "PayInterestTransfer",
      "type": "event"
    },
    {
      "anonymous": false,
      "inputs": [
        {
          "indexed": true,
          "internalType": "address",
          "name": "payer",
          "type": "address"
        },
        {
          "indexed": true,
          "internalType": "address",
          "name": "token",
          "type": "address"
        },
        {
          "indexed": false,
          "internalType": "uint256",
          "name": "amount",
          "type": "uint256"
        }
      ],
      "name": "PayLendingFee",
      "type": "event"
    },
    {
      "anonymous": false,
      "inputs": [
        {
          "indexed": true,
          "internalType": "address",
          "name": "payer",
          "type": "address"
        },
        {
          "indexed": true,
          "internalType": "address",
          "name": "token",
          "type": "address"
        },
        {
          "indexed": true,
          "internalType": "bytes32",
          "name": "loanId",
          "type": "bytes32"
        },
        {
          "indexed": false,
          "internalType": "uint256",
          "name": "amount",
          "type": "uint256"
        }
      ],
      "name": "PayTradingFee",
      "type": "event"
    },
    {
      "anonymous": false,
      "inputs": [
        {
          "indexed": true,
          "internalType": "address",
          "name": "prevModuleContractAddress",
          "type": "address"
        },
        {
          "indexed": true,
          "internalType": "address",
          "name": "newModuleContractAddress",
          "type": "address"
        },
        {
          "indexed": true,
          "internalType": "bytes32",
          "name": "module",
          "type": "bytes32"
        }
      ],
      "name": "ProtocolModuleContractReplaced",
      "type": "event"
    },
    {
      "anonymous": false,
      "inputs": [
        {
          "indexed": true,
          "internalType": "address",
          "name": "user",
          "type": "address"
        },
        {
          "indexed": true,
          "internalType": "address",
          "name": "lender",
          "type": "address"
        },
        {
          "indexed": true,
          "internalType": "bytes32",
          "name": "loanId",
          "type": "bytes32"
        },
        {
          "indexed": false,
          "internalType": "uint256",
          "name": "principal",
          "type": "uint256"
        },
        {
          "indexed": false,
          "internalType": "uint256",
          "name": "collateral",
          "type": "uint256"
        },
        {
          "indexed": false,
          "internalType": "uint256",
          "name": "endTimestamp",
          "type": "uint256"
        },
        {
          "indexed": false,
          "internalType": "address",
          "name": "rewardReceiver",
          "type": "address"
        },
        {
          "indexed": false,
          "internalType": "uint256",
          "name": "reward",
          "type": "uint256"
        }
      ],
      "name": "Rollover",
      "type": "event"
    },
    {
      "anonymous": false,
      "inputs": [
        {
          "indexed": true,
          "internalType": "address",
          "name": "asset",
          "type": "address"
        },
        {
          "indexed": true,
          "internalType": "address",
          "name": "from",
          "type": "address"
        },
        {
          "indexed": false,
          "internalType": "uint256",
          "name": "amount",
          "type": "uint256"
        }
      ],
      "name": "VaultDeposit",
      "type": "event"
    },
    {
      "anonymous": false,
      "inputs": [
        {
          "indexed": true,
          "internalType": "address",
          "name": "asset",
          "type": "address"
        },
        {
          "indexed": true,
          "internalType": "address",
          "name": "to",
          "type": "address"
        },
        {
          "indexed": false,
          "internalType": "uint256",
          "name": "amount",
          "type": "uint256"
        }
      ],
      "name": "VaultWithdraw",
      "type": "event"
    },
    {
      "anonymous": false,
      "inputs": [
        {
          "indexed": false,
          "internalType": "bool",
          "name": "shouldRefund",
          "type": "bool"
        },
        {
          "indexed": false,
          "internalType": "uint256",
          "name": "amount",
          "type": "uint256"
        },
        {
          "indexed": false,
          "internalType": "uint256",
          "name": "amountInRbtc",
          "type": "uint256"
        },
        {
          "indexed": false,
          "internalType": "uint256",
          "name": "threshold",
          "type": "uint256"
        }
      ],
      "name": "swapExcess",
      "type": "event"
    },
    {
      "payable": false,
      "stateMutability": "nonpayable",
      "type": "fallback"
    },
    {
      "constant": true,
      "inputs": [],
      "name": "TINY_AMOUNT",
      "outputs": [
        {
          "internalType": "uint256",
          "name": "",
          "type": "uint256"
        }
      ],
      "payable": false,
      "stateMutability": "view",
      "type": "function"
    },
    {
      "constant": true,
      "inputs": [],
      "name": "admin",
      "outputs": [
        {
          "internalType": "address",
          "name": "",
          "type": "address"
        }
      ],
      "payable": false,
      "stateMutability": "view",
      "type": "function"
    },
    {
      "constant": true,
      "inputs": [],
      "name": "affiliateFeePercent",
      "outputs": [
        {
          "internalType": "uint256",
          "name": "",
          "type": "uint256"
        }
      ],
      "payable": false,
      "stateMutability": "view",
      "type": "function"
    },
    {
      "constant": true,
      "inputs": [
        {
          "internalType": "address",
          "name": "",
          "type": "address"
        }
      ],
      "name": "affiliateRewardsHeld",
      "outputs": [
        {
          "internalType": "uint256",
          "name": "",
          "type": "uint256"
        }
      ],
      "payable": false,
      "stateMutability": "view",
      "type": "function"
    },
    {
      "constant": true,
      "inputs": [],
      "name": "affiliateTradingTokenFeePercent",
      "outputs": [
        {
          "internalType": "uint256",
          "name": "",
          "type": "uint256"
        }
      ],
      "payable": false,
      "stateMutability": "view",
      "type": "function"
    },
    {
      "constant": true,
      "inputs": [
        {
          "internalType": "address",
          "name": "",
          "type": "address"
        },
        {
          "internalType": "address",
          "name": "",
          "type": "address"
        }
      ],
      "name": "affiliatesReferrerBalances",
      "outputs": [
        {
          "internalType": "uint256",
          "name": "",
          "type": "uint256"
        }
      ],
      "payable": false,
      "stateMutability": "view",
      "type": "function"
    },
    {
      "constant": true,
      "inputs": [
        {
          "internalType": "address",
          "name": "",
          "type": "address"
        }
      ],
      "name": "affiliatesUserReferrer",
      "outputs": [
        {
          "internalType": "address",
          "name": "",
          "type": "address"
        }
      ],
      "payable": false,
      "stateMutability": "view",
      "type": "function"
    },
    {
      "constant": true,
      "inputs": [
        {
          "internalType": "address",
          "name": "",
          "type": "address"
        }
      ],
      "name": "borrowerNonce",
      "outputs": [
        {
          "internalType": "uint256",
          "name": "",
          "type": "uint256"
        }
      ],
      "payable": false,
      "stateMutability": "view",
      "type": "function"
    },
    {
      "constant": true,
      "inputs": [
        {
          "internalType": "address",
          "name": "",
          "type": "address"
        },
        {
          "internalType": "bytes32",
          "name": "",
          "type": "bytes32"
        }
      ],
      "name": "borrowerOrders",
      "outputs": [
        {
          "internalType": "uint256",
          "name": "lockedAmount",
          "type": "uint256"
        },
        {
          "internalType": "uint256",
          "name": "interestRate",
          "type": "uint256"
        },
        {
          "internalType": "uint256",
          "name": "minLoanTerm",
          "type": "uint256"
        },
        {
          "internalType": "uint256",
          "name": "maxLoanTerm",
          "type": "uint256"
        },
        {
          "internalType": "uint256",
          "name": "createdTimestamp",
          "type": "uint256"
        },
        {
          "internalType": "uint256",
          "name": "expirationTimestamp",
          "type": "uint256"
        }
      ],
      "payable": false,
      "stateMutability": "view",
      "type": "function"
    },
    {
      "constant": true,
      "inputs": [],
      "name": "borrowingFeePercent",
      "outputs": [
        {
          "internalType": "uint256",
          "name": "",
          "type": "uint256"
        }
      ],
      "payable": false,
      "stateMutability": "view",
      "type": "function"
    },
    {
      "constant": true,
      "inputs": [
        {
          "internalType": "address",
          "name": "",
          "type": "address"
        }
      ],
      "name": "borrowingFeeTokensHeld",
      "outputs": [
        {
          "internalType": "uint256",
          "name": "",
          "type": "uint256"
        }
      ],
      "payable": false,
      "stateMutability": "view",
      "type": "function"
    },
    {
      "constant": true,
      "inputs": [
        {
          "internalType": "address",
          "name": "",
          "type": "address"
        }
      ],
      "name": "borrowingFeeTokensPaid",
      "outputs": [
        {
          "internalType": "uint256",
          "name": "",
          "type": "uint256"
        }
      ],
      "payable": false,
      "stateMutability": "view",
      "type": "function"
    },
    {
      "constant": true,
      "inputs": [
        {
          "internalType": "bytes32",
          "name": "",
          "type": "bytes32"
        },
        {
          "internalType": "address",
          "name": "",
          "type": "address"
        }
      ],
      "name": "delegatedManagers",
      "outputs": [
        {
          "internalType": "bool",
          "name": "",
          "type": "bool"
        }
      ],
      "payable": false,
      "stateMutability": "view",
      "type": "function"
    },
    {
      "constant": true,
      "inputs": [],
      "name": "feeRebatePercent",
      "outputs": [
        {
          "internalType": "uint256",
          "name": "",
          "type": "uint256"
        }
      ],
      "payable": false,
      "stateMutability": "view",
      "type": "function"
    },
    {
      "constant": true,
      "inputs": [],
      "name": "feesController",
      "outputs": [
        {
          "internalType": "address",
          "name": "",
          "type": "address"
        }
      ],
      "payable": false,
      "stateMutability": "view",
      "type": "function"
    },
    {
      "constant": false,
      "inputs": [
        {
          "internalType": "address",
          "name": "target",
          "type": "address"
        }
      ],
      "name": "initialize",
      "outputs": [],
      "payable": false,
      "stateMutability": "nonpayable",
      "type": "function"
    },
    {
      "constant": true,
      "inputs": [],
      "name": "isOwner",
      "outputs": [
        {
          "internalType": "bool",
          "name": "",
          "type": "bool"
        }
      ],
      "payable": false,
      "stateMutability": "view",
      "type": "function"
    },
    {
      "constant": true,
      "inputs": [
        {
          "internalType": "address",
          "name": "",
          "type": "address"
        },
        {
          "internalType": "address",
          "name": "",
          "type": "address"
        }
      ],
      "name": "lenderInterest",
      "outputs": [
        {
          "internalType": "uint256",
          "name": "principalTotal",
          "type": "uint256"
        },
        {
          "internalType": "uint256",
          "name": "owedPerDay",
          "type": "uint256"
        },
        {
          "internalType": "uint256",
          "name": "owedTotal",
          "type": "uint256"
        },
        {
          "internalType": "uint256",
          "name": "paidTotal",
          "type": "uint256"
        },
        {
          "internalType": "uint256",
          "name": "updatedTimestamp",
          "type": "uint256"
        }
      ],
      "payable": false,
      "stateMutability": "view",
      "type": "function"
    },
    {
      "constant": true,
      "inputs": [
        {
          "internalType": "address",
          "name": "",
          "type": "address"
        },
        {
          "internalType": "bytes32",
          "name": "",
          "type": "bytes32"
        }
      ],
      "name": "lenderOrders",
      "outputs": [
        {
          "internalType": "uint256",
          "name": "lockedAmount",
          "type": "uint256"
        },
        {
          "internalType": "uint256",
          "name": "interestRate",
          "type": "uint256"
        },
        {
          "internalType": "uint256",
          "name": "minLoanTerm",
          "type": "uint256"
        },
        {
          "internalType": "uint256",
          "name": "maxLoanTerm",
          "type": "uint256"
        },
        {
          "internalType": "uint256",
          "name": "createdTimestamp",
          "type": "uint256"
        },
        {
          "internalType": "uint256",
          "name": "expirationTimestamp",
          "type": "uint256"
        }
      ],
      "payable": false,
      "stateMutability": "view",
      "type": "function"
    },
    {
      "constant": true,
      "inputs": [],
      "name": "lendingFeePercent",
      "outputs": [
        {
          "internalType": "uint256",
          "name": "",
          "type": "uint256"
        }
      ],
      "payable": false,
      "stateMutability": "view",
      "type": "function"
    },
    {
      "constant": true,
      "inputs": [
        {
          "internalType": "address",
          "name": "",
          "type": "address"
        }
      ],
      "name": "lendingFeeTokensHeld",
      "outputs": [
        {
          "internalType": "uint256",
          "name": "",
          "type": "uint256"
        }
      ],
      "payable": false,
      "stateMutability": "view",
      "type": "function"
    },
    {
      "constant": true,
      "inputs": [
        {
          "internalType": "address",
          "name": "",
          "type": "address"
        }
      ],
      "name": "lendingFeeTokensPaid",
      "outputs": [
        {
          "internalType": "uint256",
          "name": "",
          "type": "uint256"
        }
      ],
      "payable": false,
      "stateMutability": "view",
      "type": "function"
    },
    {
      "constant": true,
      "inputs": [],
      "name": "liquidationIncentivePercent",
      "outputs": [
        {
          "internalType": "uint256",
          "name": "",
          "type": "uint256"
        }
      ],
      "payable": false,
      "stateMutability": "view",
      "type": "function"
    },
    {
      "constant": true,
      "inputs": [
        {
          "internalType": "bytes32",
          "name": "",
          "type": "bytes32"
        }
      ],
      "name": "loanInterest",
      "outputs": [
        {
          "internalType": "uint256",
          "name": "owedPerDay",
          "type": "uint256"
        },
        {
          "internalType": "uint256",
          "name": "depositTotal",
          "type": "uint256"
        },
        {
          "internalType": "uint256",
          "name": "updatedTimestamp",
          "type": "uint256"
        }
      ],
      "payable": false,
      "stateMutability": "view",
      "type": "function"
    },
    {
      "constant": true,
      "inputs": [
        {
          "internalType": "bytes32",
          "name": "",
          "type": "bytes32"
        }
      ],
      "name": "loanParams",
      "outputs": [
        {
          "internalType": "bytes32",
          "name": "id",
          "type": "bytes32"
        },
        {
          "internalType": "bool",
          "name": "active",
          "type": "bool"
        },
        {
          "internalType": "address",
          "name": "owner",
          "type": "address"
        },
        {
          "internalType": "address",
          "name": "loanToken",
          "type": "address"
        },
        {
          "internalType": "address",
          "name": "collateralToken",
          "type": "address"
        },
        {
          "internalType": "uint256",
          "name": "minInitialMargin",
          "type": "uint256"
        },
        {
          "internalType": "uint256",
          "name": "maintenanceMargin",
          "type": "uint256"
        },
        {
          "internalType": "uint256",
          "name": "maxLoanTerm",
          "type": "uint256"
        }
      ],
      "payable": false,
      "stateMutability": "view",
      "type": "function"
    },
    {
      "constant": true,
      "inputs": [
        {
          "internalType": "address",
          "name": "",
          "type": "address"
        }
      ],
      "name": "loanPoolToUnderlying",
      "outputs": [
        {
          "internalType": "address",
          "name": "",
          "type": "address"
        }
      ],
      "payable": false,
      "stateMutability": "view",
      "type": "function"
    },
    {
      "constant": true,
      "inputs": [
        {
          "internalType": "bytes32",
          "name": "",
          "type": "bytes32"
        }
      ],
      "name": "loans",
      "outputs": [
        {
          "internalType": "bytes32",
          "name": "id",
          "type": "bytes32"
        },
        {
          "internalType": "bytes32",
          "name": "loanParamsId",
          "type": "bytes32"
        },
        {
          "internalType": "bytes32",
          "name": "pendingTradesId",
          "type": "bytes32"
        },
        {
          "internalType": "bool",
          "name": "active",
          "type": "bool"
        },
        {
          "internalType": "uint256",
          "name": "principal",
          "type": "uint256"
        },
        {
          "internalType": "uint256",
          "name": "collateral",
          "type": "uint256"
        },
        {
          "internalType": "uint256",
          "name": "startTimestamp",
          "type": "uint256"
        },
        {
          "internalType": "uint256",
          "name": "endTimestamp",
          "type": "uint256"
        },
        {
          "internalType": "uint256",
          "name": "startMargin",
          "type": "uint256"
        },
        {
          "internalType": "uint256",
          "name": "startRate",
          "type": "uint256"
        },
        {
          "internalType": "address",
          "name": "borrower",
          "type": "address"
        },
        {
          "internalType": "address",
          "name": "lender",
          "type": "address"
        }
      ],
      "payable": false,
      "stateMutability": "view",
      "type": "function"
    },
    {
      "constant": true,
      "inputs": [],
      "name": "lockedSOVAddress",
      "outputs": [
        {
          "internalType": "address",
          "name": "",
          "type": "address"
        }
      ],
      "payable": false,
      "stateMutability": "view",
      "type": "function"
    },
    {
      "constant": true,
      "inputs": [
        {
          "internalType": "bytes4",
          "name": "",
          "type": "bytes4"
        }
      ],
      "name": "logicTargets",
      "outputs": [
        {
          "internalType": "address",
          "name": "",
          "type": "address"
        }
      ],
      "payable": false,
      "stateMutability": "view",
      "type": "function"
    },
    {
      "constant": true,
      "inputs": [],
      "name": "maxDisagreement",
      "outputs": [
        {
          "internalType": "uint256",
          "name": "",
          "type": "uint256"
        }
      ],
      "payable": false,
      "stateMutability": "view",
      "type": "function"
    },
    {
      "constant": true,
      "inputs": [],
      "name": "maxSwapSize",
      "outputs": [
        {
          "internalType": "uint256",
          "name": "",
          "type": "uint256"
        }
      ],
      "payable": false,
      "stateMutability": "view",
      "type": "function"
    },
    {
      "constant": true,
      "inputs": [],
      "name": "minReferralsToPayout",
      "outputs": [
        {
          "internalType": "uint256",
          "name": "",
          "type": "uint256"
        }
      ],
      "payable": false,
      "stateMutability": "view",
      "type": "function"
    },
    {
      "constant": true,
      "inputs": [],
      "name": "owner",
      "outputs": [
        {
          "internalType": "address",
          "name": "",
          "type": "address"
        }
      ],
      "payable": false,
      "stateMutability": "view",
      "type": "function"
    },
    {
      "constant": true,
      "inputs": [],
      "name": "pause",
      "outputs": [
        {
          "internalType": "bool",
          "name": "",
          "type": "bool"
        }
      ],
      "payable": false,
      "stateMutability": "view",
      "type": "function"
    },
    {
      "constant": true,
      "inputs": [],
      "name": "paySwapExcessToBorrowerThreshold",
      "outputs": [
        {
          "internalType": "uint256",
          "name": "",
          "type": "uint256"
        }
      ],
      "payable": false,
      "stateMutability": "view",
      "type": "function"
    },
    {
      "constant": true,
      "inputs": [],
      "name": "priceFeeds",
      "outputs": [
        {
          "internalType": "address",
          "name": "",
          "type": "address"
        }
      ],
      "payable": false,
      "stateMutability": "view",
      "type": "function"
    },
    {
      "constant": true,
      "inputs": [],
      "name": "protocolAddress",
      "outputs": [
        {
          "internalType": "address",
          "name": "",
          "type": "address"
        }
      ],
      "payable": false,
      "stateMutability": "view",
      "type": "function"
    },
    {
      "constant": true,
      "inputs": [],
      "name": "protocolTokenAddress",
      "outputs": [
        {
          "internalType": "address",
          "name": "",
          "type": "address"
        }
      ],
      "payable": false,
      "stateMutability": "view",
      "type": "function"
    },
    {
      "constant": true,
      "inputs": [],
      "name": "protocolTokenHeld",
      "outputs": [
        {
          "internalType": "uint256",
          "name": "",
          "type": "uint256"
        }
      ],
      "payable": false,
      "stateMutability": "view",
      "type": "function"
    },
    {
      "constant": true,
      "inputs": [],
      "name": "protocolTokenPaid",
      "outputs": [
        {
          "internalType": "uint256",
          "name": "",
          "type": "uint256"
        }
      ],
      "payable": false,
      "stateMutability": "view",
      "type": "function"
    },
    {
      "constant": false,
      "inputs": [
        {
          "internalType": "bytes32",
          "name": "loanId",
          "type": "bytes32"
        },
        {
          "internalType": "bytes",
          "name": "",
          "type": "bytes"
        }
      ],
      "name": "rollover",
      "outputs": [],
      "payable": false,
      "stateMutability": "nonpayable",
      "type": "function"
    },
    {
      "constant": true,
      "inputs": [],
      "name": "rolloverBaseReward",
      "outputs": [
        {
          "internalType": "uint256",
          "name": "",
          "type": "uint256"
        }
      ],
      "payable": false,
      "stateMutability": "view",
      "type": "function"
    },
    {
      "constant": true,
      "inputs": [],
      "name": "rolloverFlexFeePercent",
      "outputs": [
        {
          "internalType": "uint256",
          "name": "",
          "type": "uint256"
        }
      ],
      "payable": false,
      "stateMutability": "view",
      "type": "function"
    },
    {
      "constant": true,
      "inputs": [],
      "name": "sourceBuffer",
      "outputs": [
        {
          "internalType": "uint256",
          "name": "",
          "type": "uint256"
        }
      ],
      "payable": false,
      "stateMutability": "view",
      "type": "function"
    },
    {
      "constant": true,
      "inputs": [],
      "name": "sovTokenAddress",
      "outputs": [
        {
          "internalType": "address",
          "name": "",
          "type": "address"
        }
      ],
      "payable": false,
      "stateMutability": "view",
      "type": "function"
    },
    {
      "constant": true,
      "inputs": [],
      "name": "sovrynSwapContractRegistryAddress",
      "outputs": [
        {
          "internalType": "address",
          "name": "",
          "type": "address"
        }
      ],
      "payable": false,
      "stateMutability": "view",
      "type": "function"
    },
    {
      "constant": true,
      "inputs": [
        {
          "internalType": "address",
          "name": "",
          "type": "address"
        },
        {
          "internalType": "address",
          "name": "",
          "type": "address"
        }
      ],
      "name": "specialRebates",
      "outputs": [
        {
          "internalType": "uint256",
          "name": "",
          "type": "uint256"
        }
      ],
      "payable": false,
      "stateMutability": "view",
      "type": "function"
    },
    {
      "constant": true,
      "inputs": [
        {
          "internalType": "address",
          "name": "",
          "type": "address"
        }
      ],
      "name": "supportedTokens",
      "outputs": [
        {
          "internalType": "bool",
          "name": "",
          "type": "bool"
        }
      ],
      "payable": false,
      "stateMutability": "view",
      "type": "function"
    },
    {
      "constant": true,
      "inputs": [],
      "name": "swapsImpl",
      "outputs": [
        {
          "internalType": "address",
          "name": "",
          "type": "address"
        }
      ],
      "payable": false,
      "stateMutability": "view",
      "type": "function"
    },
    {
      "constant": true,
      "inputs": [],
      "name": "tradingFeePercent",
      "outputs": [
        {
          "internalType": "uint256",
          "name": "",
          "type": "uint256"
        }
      ],
      "payable": false,
      "stateMutability": "view",
      "type": "function"
    },
    {
      "constant": true,
      "inputs": [
        {
          "internalType": "address",
          "name": "",
          "type": "address"
        }
      ],
      "name": "tradingFeeTokensHeld",
      "outputs": [
        {
          "internalType": "uint256",
          "name": "",
          "type": "uint256"
        }
      ],
      "payable": false,
      "stateMutability": "view",
      "type": "function"
    },
    {
      "constant": true,
      "inputs": [
        {
          "internalType": "address",
          "name": "",
          "type": "address"
        }
      ],
      "name": "tradingFeeTokensPaid",
      "outputs": [
        {
          "internalType": "uint256",
          "name": "",
          "type": "uint256"
        }
      ],
      "payable": false,
      "stateMutability": "view",
      "type": "function"
    },
    {
      "constant": false,
      "inputs": [
        {
          "internalType": "address",
          "name": "newOwner",
          "type": "address"
        }
      ],
      "name": "transferOwnership",
      "outputs": [],
      "payable": false,
      "stateMutability": "nonpayable",
      "type": "function"
    },
    {
      "constant": true,
      "inputs": [
        {
          "internalType": "address",
          "name": "",
          "type": "address"
        }
      ],
      "name": "underlyingToLoanPool",
      "outputs": [
        {
          "internalType": "address",
          "name": "",
          "type": "address"
        }
      ],
      "payable": false,
      "stateMutability": "view",
      "type": "function"
    },
    {
      "constant": true,
      "inputs": [
        {
          "internalType": "address",
          "name": "",
          "type": "address"
        }
      ],
      "name": "userNotFirstTradeFlag",
      "outputs": [
        {
          "internalType": "bool",
          "name": "",
          "type": "bool"
        }
      ],
      "payable": false,
      "stateMutability": "view",
      "type": "function"
    },
    {
      "constant": true,
      "inputs": [],
      "name": "wrbtcToken",
      "outputs": [
        {
          "internalType": "contract IWrbtcERC20",
          "name": "",
          "type": "address"
        }
      ],
      "payable": false,
      "stateMutability": "view",
      "type": "function"
    }
  ],
  "bytecode": {
    "object": "0x60806040526001600055678ac7230489e80000601555670214e8348c4f000060185567013fbe85edc90000601b55674563918244f40000602055674563918244f40000602155674563918244f400006027556127106028556802b5e3af16b1880000602955650f478e084000602b5567016345785d8a0000602c556802b5e3af16b1880000602f5560036035556801158e460913d00000603955348015620000a657600080fd5b506000620000bc6001600160e01b036200011016565b600180546001600160a01b0319166001600160a01b038316908117909155604051919250906000907f8be0079c531659141344cd1fd0a4f28419497f9722a3daafe3b4186f6b6457e0908290a35062000114565b3390565b61557f80620001246000396000f3fe608060405234801561001057600080fd5b50600436106103785760003560e01c806392d894f8116101d3578063cf0eda8411610104578063f0e085f5116100a2578063f6ddc8b31161007c578063f6ddc8b3146106f4578063f706b1f2146106fc578063f851a44014610704578063f8dd4f0e1461070c57610378565b8063f0e085f5146106d1578063f2fde38b146106d9578063f589a3e7146106ec57610378565b8063d485045e116100de578063d485045e146106a6578063e8f62764146106b9578063edab119f146106c1578063ee54a4ec146106c957610378565b8063cf0eda8414610683578063d288208c14610696578063d473c2da1461069e57610378565b8063b9cffa3e11610171578063c4a908151161014b578063c4a9081514610609578063c4d66de814610634578063cb6eacd114610649578063cd5d808d1461067057610378565b8063b9cffa3e146105e6578063ba4861e9146105ee578063bdee453c146105f657610378565b8063ae0a8530116101ad578063ae0a8530146105a3578063afe84009146105ab578063b30643d9146105c0578063b7e15241146105d357610378565b806392d894f814610580578063959083d314610593578063acc043481461059b57610378565b80634f28cac2116102ad578063742e67981161024b5780638456cb59116102255780638456cb59146105555780638da5cb5b1461055d5780638dc48ba5146105655780638f32d59b1461057857610378565b8063742e67981461053d57806378d849ed146105455780637a8faeb81461054d57610378565b806362fff3f61161028757806362fff3f6146104eb57806368c4ac261461050f5780636e663730146105225780637420ca3e1461053557610378565b80634f28cac2146104b9578063569fc1fb146104c1578063574442cc146104e357610378565b80632f4707641161031a5780633fca506e116102f45780633fca506e146104785780634115a2b61461048b5780634203e3951461049e5780634699f846146104b157610378565b80632f4707641461044a5780633432423c146104525780633452d2d41461046557610378565b80631b7bde74116103565780631b7bde74146103ef578063218b39c61461040f57806324cc5749146104225780632a3240271461044257610378565b8063065d810f146103995780630676c1b7146103c757806317548b79146103dc575b60405162461bcd60e51b8152600401610390906152f1565b60405180910390fd5b6103ac6103a73660046144a2565b610714565b6040516103be9695949392919061542d565b60405180910390f35b6103cf610754565b6040516103be9190614e16565b6103cf6103ea366004614583565b610763565b6104026103fd366004614468565b61077e565b6040516103be91906153c1565b6103cf61041d36600461444a565b61079b565b61043561043036600461444a565b6107b6565b6040516103be919061500f565b6104026107cb565b6104026107d1565b6103ac6104603660046144a2565b6107d7565b61040261047336600461444a565b610817565b61040261048636600461444a565b610829565b61043561049936600461450e565b61083b565b6104026104ac36600461444a565b61085b565b61040261086d565b610402610873565b6104d46104cf3660046144f0565b610879565b6040516103be939291906153cf565b61040261089a565b6104fe6104f9366004614468565b6108a0565b6040516103be959493929190615412565b61043561051d36600461444a565b6108da565b6103cf61053036600461444a565b6108ef565b6103cf61090a565b610402610919565b6103cf61091f565b61040261092e565b610435610934565b6103cf61093d565b6103cf61057336600461444a565b61094c565b610435610967565b61040261058e36600461444a565b61098d565b61040261099f565b6104026109a5565b6104026109ab565b6105b36109b1565b6040516103be9190615162565b6104026105ce36600461444a565b6109c0565b6104026105e136600461444a565b6109d2565b6103cf6109e4565b6103cf6109f3565b61040261060436600461444a565b610a02565b61061c6106173660046144f0565b610a14565b6040516103be9c9b9a999897969594939291906150af565b61064761064236600461444a565b610a86565b005b61065c6106573660046144f0565b610b4e565b6040516103be989796959493929190615038565b61040261067e366004614468565b610ba0565b61064761069136600461452d565b610bbd565b6103cf610ee1565b610402610ef0565b6104026106b436600461444a565b610ef6565b6103cf610f08565b610402610f17565b610402610f1d565b610402610f27565b6106476106e736600461444a565b610f2d565b610402610f5d565b610402610f63565b6103cf610f69565b6103cf610f78565b610402610f87565b6009602090815260009283526040808420909152908252902080546001820154600283015460038401546004850154600590950154939492939192909186565b6031546001600160a01b031681565b6005602052600090815260409020546001600160a01b031681565b603b60209081526000928352604080842090915290825290205481565b6023602052600090815260409020546001600160a01b031681565b60326020526000908152604090205460ff1681565b60185481565b601f5481565b6008602090815260009283526040808420909152908252902080546001820154600283015460038401546004850154600590950154939492939192909186565b601a6020526000908152604090205481565b602a6020526000908152604090205481565b600a60209081526000928352604080842090915290825290205460ff1681565b60166020526000908152604090205481565b60155481565b60295481565b600c6020526000908152604090208054600182015460029092015490919083565b602b5481565b600b602090815260009283526040808420909152908252902080546001820154600283015460038401546004909401549293919290919085565b60266020526000908152604090205460ff1681565b6033602052600090815260409020546001600160a01b031681565b6003546001600160a01b031681565b60355481565b6002546001600160a01b031681565b601e5481565b603d5460ff1681565b6001546001600160a01b031690565b6022602052600090815260409020546001600160a01b031681565b6001546000906001600160a01b031661097e610f91565b6001600160a01b031614905090565b60176020526000908152604090205481565b602c5481565b602f5481565b60205481565b602d546001600160a01b031681565b601d6020526000908152604090205481565b601c6020526000908152604090205481565b6037546001600160a01b031681565b6004546001600160a01b031681565b60366020526000908152604090205481565b600660208190526000918252604090912080546001820154600283015460038401546004850154600586015496860154600787015460088801546009890154600a8a0154600b909a0154989a9799969860ff909616979496949593949293919290916001600160a01b0391821691168c565b610a8e610967565b610aaa5760405162461bcd60e51b8152600401610390906152b1565b6333c3b6a160e21b600081905260056020527fcbb85c1cce72df70d834da1bd3ea19e59822ddbde1a8ab41e028b8b9571e129a546001600160a01b031690610af29083610f95565b732637b0b721b637b9b4b733b9a937b63637bb32b960611b826001600160a01b0316826001600160a01b03167f1420e3a2094d671bc2eb897941fa3d94ffa37f0cb6d530651946250a2151cb7f60405160405180910390a45050565b6007602052600090815260409020805460018201546002830154600384015460048501546005860154600690960154949560ff8516956101009095046001600160a01b03908116959481169493169288565b603c60209081526000928352604080842090915290825290205481565b600160005414610bdf5760405162461bcd60e51b815260040161039090615351565b6002600081905550600073ba10edd6abc7696eae685839217bdcc42139612b6001600160a01b031663ed04e1c36040518163ffffffff1660e01b8152600401602060405180830381600087803b158015610c3857600080fd5b505af1158015610c4c573d6000803e3d6000fd5b505050506040513d601f19601f82011682018060405250610c7091908101906145a1565b6000858152600660205260409020600b81015491925085916001600160a01b0316610cad5760405162461bcd60e51b8152600401610390906151c1565b600b810154604080516318160ddd60e01b815290516000926001600160a01b0316916318160ddd916004808301926020929190829003018186803b158015610cf457600080fd5b505afa158015610d08573d6000803e3d6000fd5b505050506040513d601f19601f82011682018060405250610d2c91908101906145a1565b603d5490915060ff1615610d525760405162461bcd60e51b8152600401610390906151a1565b333214610d715760405162461bcd60e51b815260040161039090615181565b610d8a8760405180602001604052806000815250611011565b81600b0160009054906101000a90046001600160a01b03166001600160a01b03166318160ddd6040518163ffffffff1660e01b815260040160206040518083038186803b158015610dda57600080fd5b505afa158015610dee573d6000803e3d6000fd5b505050506040513d601f19601f82011682018060405250610e1291908101906145a1565b8114610e305760405162461bcd60e51b815260040161039090615281565b50505073ba10edd6abc7696eae685839217bdcc42139612b6001600160a01b0316633fa4f2456040518163ffffffff1660e01b815260040160206040518083038186803b158015610e8057600080fd5b505afa158015610e94573d6000803e3d6000fd5b505050506040513d601f19601f82011682018060405250610eb891908101906145a1565b8114610ed65760405162461bcd60e51b815260040161039090615191565b505060016000555050565b6038546001600160a01b031681565b60275481565b60196020526000908152604090205481565b6014546001600160a01b031681565b601b5481565b6509184e72a00081565b60285481565b610f35610967565b610f515760405162461bcd60e51b8152600401610390906152b1565b610f5a81611a3b565b50565b60395481565b60215481565b602e546001600160a01b031681565b6030546001600160a01b031681565b65e35fa931a00081565b3390565b6001600160e01b03198216600090815260056020526040902080546001600160a01b0319166001600160a01b03831690811790915515610ff057610fea600d6001600160e01b0319841663ffffffff611abd16565b5061100d565b61100b600d6001600160e01b0319841663ffffffff611b0716565b505b5050565b60008061101d84611bc8565b6007820154919350915061103990610e1063ffffffff611c3716565b42116110575760405162461bcd60e51b815260040161039090615261565b600b8201546001600160a01b03908116600090815260226020526040902054166110935760405162461bcd60e51b815260040161039090615221565b600b82015460028201546110b3916001600160a01b039081169116611c80565b81546000818152600c60209081526040808320600b808801546001600160a01b039081168652908452828520600288015482168087529452919093206003860154600a8801549495919461110f94879490928116911642611d6a565b600080856007015442111561116257600786015461113490429063ffffffff611c3716565b845490925061114a90839063ffffffff611dc516565b905061115f816201518063ffffffff611dff16565b90505b6006850154156112c15760006112246907baab4146b63dd0000061121889600b0160009054906101000a90046001600160a01b03166001600160a01b0316638325a1c06040518163ffffffff1660e01b815260040160206040518083038186803b1580156111cf57600080fd5b505afa1580156111e3573d6000803e3d6000fd5b505050506040513d601f19601f8201168201806040525061120791908101906145a1565b60048b01549063ffffffff611dc516565b9063ffffffff611dff16565b600185015490915061123c908263ffffffff611e4116565b600185018190558554611255919063ffffffff611c3716565b60018501558085556006860154831061129c5761129262015180611286858a60070154611e4190919063ffffffff16565b9063ffffffff611e4116565b60078801556112bb565b600686015460078801546112b59163ffffffff611e4116565b60078801555b50611311565b622819a082106112f3576112e962015180611286848960070154611e4190919063ffffffff16565b6007870155611311565b600786015461130b90622819a063ffffffff611e4116565b60078701555b6007860154600090611329904263ffffffff611c3716565b855490915061133f90829063ffffffff611dc516565b9050611354816201518063ffffffff611dff16565b600186015490915061136c908263ffffffff611e4116565b60018601556002840154611386908263ffffffff611e4116565b600285015561139b818363ffffffff611e4116565b905060008061156b89604051806101800160405290816000820154815260200160018201548152602001600282015481526020016003820160009054906101000a900460ff16151515158152602001600482015481526020016005820154815260200160068201548152602001600782015481526020016008820154815260200160098201548152602001600a820160009054906101000a90046001600160a01b03166001600160a01b03166001600160a01b03168152602001600b820160009054906101000a90046001600160a01b03166001600160a01b03166001600160a01b0316815250508960405180610100016040529081600082015481526020016001820160009054906101000a900460ff161515151581526020016001820160019054906101000a90046001600160a01b03166001600160a01b03166001600160a01b031681526020016002820160009054906101000a90046001600160a01b03166001600160a01b03166001600160a01b031681526020016003820160009054906101000a90046001600160a01b03166001600160a01b03166001600160a01b03168152602001600482015481526020016005820154815260200160068201548152505060008660018f611e66565b5091509150828211156117a0576002880154611592906001600160a01b0316848403611ef6565b1561177d5761176089604051806101800160405290816000820154815260200160018201548152602001600282015481526020016003820160009054906101000a900460ff16151515158152602001600482015481526020016005820154815260200160068201548152602001600782015481526020016008820154815260200160098201548152602001600a820160009054906101000a90046001600160a01b03166001600160a01b03166001600160a01b03168152602001600b820160009054906101000a90046001600160a01b03166001600160a01b03166001600160a01b0316815250508960405180610100016040529081600082015481526020016001820160009054906101000a900460ff161515151581526020016001820160019054906101000a90046001600160a01b03166001600160a01b03166001600160a01b031681526020016002820160009054906101000a90046001600160a01b03166001600160a01b03166001600160a01b031681526020016003820160009054906101000a90046001600160a01b03166001600160a01b03166001600160a01b0316815260200160048201548152602001600582015481526020016006820154815250508585038d611f5f565b509092506117769050818363ffffffff611c3716565b90506117a0565b600a89015460028901546117a0916001600160a01b039081169116858503611fb8565b60058901546117b5908263ffffffff611c3716565b60058a015583156117e157600b89015460028901546117e1916001600160a01b03908116911686612046565b6003880154600289015460048b015460009261180b926001600160a01b03918216929116906120eb565b9050801561187f57896005015481111561184c576118448a60000154338c60050154600060405180602001604052806000815250612246565b50505061187f565b60058a0154611861908263ffffffff611c3716565b60058b0155600389015461187f906001600160a01b031633836129df565b60058a0154156119b657600289015460048b015465e35fa931a000916118b0916001600160a01b0390911690612a15565b116118ee578954600a8b015460058c0154604080516020810190915260008082526118e694936001600160a01b03169291612246565b5050506119b6565b60028054908a015460038b01546004808e015460058f01546040516317f8680960e11b81526000966001600160a01b0390811696632ff0d0129661193b9691831695921693919201614f6f565b604080518083038186803b15801561195257600080fd5b505afa158015611966573d6000803e3d6000fd5b505050506040513d601f19601f8201168201806040525061198a91908101906145bf565b5090506729a2241af62c000081116119b45760405162461bcd60e51b8152600401610390906152c1565b505b60038a015460ff1615611a2d578954600b8b0154600a8c015460048d015460058e015460078f01546040516001600160a01b0395861695909416937f78b8779281d19f907a0a8560da6a9de438b3f2006ced1b2f843352851f1757a293611a24939092909133908a906153dd565b60405180910390a45b505050505050505050505050565b6001600160a01b038116611a615760405162461bcd60e51b8152600401610390906151d1565b6001546040516001600160a01b038084169216907f8be0079c531659141344cd1fd0a4f28419497f9722a3daafe3b4186f6b6457e090600090a3600180546001600160a01b0319166001600160a01b0392909216919091179055565b6000611ac98383612ac4565b611afd5750600180830180548083018083556000928352602080842090920185905584835290859052604090912055611b01565b5060005b92915050565b6000611b138383612ac4565b15611afd5760008281526020849052604090205460018401546000199182019101808214611b8b576000856001018281548110611b4c57fe5b9060005260206000200154905080866001018481548110611b6957fe5b6000918252602080832090910192909255918252869052604090206001830190555b60008481526020869052604081205560018501805480611ba757fe5b60019003818190600052602060002001600090559055600192505050611b01565b6000818152600660209081526040808320600181015484526007909252822060038201548392919060ff16611c0f5760405162461bcd60e51b815260040161039090615341565b8054611c2d5760405162461bcd60e51b8152600401610390906152e1565b9092509050915091565b6000611c7983836040518060400160405280601e81526020017f536166654d6174683a207375627472616374696f6e206f766572666c6f770000815250612ad9565b9392505050565b6001600160a01b038083166000908152600b602090815260408083209385168352929052908120600181015490919015801590611cc05750600482015415155b15611d5d57611cf7620151806112188460010154611ceb866004015442611c3790919063ffffffff16565b9063ffffffff611dc516565b4260048401556002830154909150811115611d13575060028101545b8015611d58576003820154611d2e908263ffffffff611e4116565b60038301556002820154611d48908263ffffffff611c3716565b6002830155611d58848483612046565b611d64565b4260048301555b50505050565b6000611da06a07259756a8d61998000000611218601554611ceb8b60000154611ceb8d6002015489611c3790919063ffffffff16565b6002880183905590508015611dbc57611dbc8387878785612b05565b50505050505050565b600082611dd457506000611b01565b82820282848281611de157fe5b0414611c795760405162461bcd60e51b8152600401610390906152a1565b6000611c7983836040518060400160405280601a81526020017f536166654d6174683a206469766973696f6e206279207a65726f000000000000815250612f6b565b600082820183811015611c795760405162461bcd60e51b8152600401610390906151e1565b6000806000611e9f896000015189608001518a606001518c61014001518b8e60a001518b611e95576000611e97565b8c5b60008c612fa2565b9194509250905085831015611ec65760405162461bcd60e51b815260040161039090615291565b8860a00151821115611eea5760405162461bcd60e51b815260040161039090615211565b96509650969350505050565b600080611f038484612a15565b90507fe46714304b3de2a7b58afcc0bafe0a6deabd30a647332cb479124142fdb14b0b6509184e72a000821184836509184e72a000604051611f48949392919061501d565b60405180910390a16509184e72a000109392505050565b6000806000611f878760000151876060015188608001518a6101400151898a6000808c612fa2565b9194509250905084821115611fae5760405162461bcd60e51b815260040161039090615211565b9450945094915050565b801561100b576001600160a01b038216600090815260166020526040902054611fe7908263ffffffff611e4116565b6001600160a01b0380841660008181526016602052604090819020939093559151908516907f40a75ae5f7a5336e75f7c7977e12c4b46a9ac0f30de01a2d5b6c1a4f4af63587906120399085906153c1565b60405180910390a3505050565b600061206a68056bc75e2d6310000061121860155485611dc590919063ffffffff16565b9050612077848483611fb8565b612091838561208c858563ffffffff611c3716565b613100565b6001600160a01b038085169084167f220e66e3e759e1382aa86cd8af5abca05ebf3ad564f223ae62d977678337272a6120d0858563ffffffff611c3716565b6040516120dd91906153c1565b60405180910390a350505050565b60025460405163d138f9a160e01b815260009182916001600160a01b039091169063d138f9a19061212490879089908890600401614f47565b60206040518083038186803b15801561213c57600080fd5b505afa158015612150573d6000803e3d6000fd5b505050506040513d601f19601f8201168201806040525061217491908101906145a1565b600254602d54602b5460405163d138f9a160e01b81529394506000936001600160a01b039384169363d138f9a1936121b4939116918b9190600401614f47565b60206040518083038186803b1580156121cc57600080fd5b505afa1580156121e0573d6000803e3d6000fd5b505050506040513d601f19601f8201168201806040525061220491908101906145a1565b905061223c61222b68056bc75e2d63100000611218602c5486611dc590919063ffffffff16565b61128683600263ffffffff611dc516565b9695505050505050565b60008080856122675760405162461bcd60e51b815260040161039090615331565b6000806122738a611bc8565b9150915081600501548811612288578761228e565b81600501545b975060008883600501540311156122d6576003810154600583015465e35fa931a000916122c9916001600160a01b03909116908b9003612a15565b116122d657816005015497505b600082600501548914806122e75750875b1561250e578260050154891461231b5761231683600501546112188b8660040154611dc590919063ffffffff16565b612321565b82600401545b9550856123405760405162461bcd60e51b815260040161039090615311565b61250783604051806101800160405290816000820154815260200160018201548152602001600282015481526020016003820160009054906101000a900460ff16151515158152602001600482015481526020016005820154815260200160068201548152602001600782015481526020016008820154815260200160098201548152602001600a820160009054906101000a90046001600160a01b03166001600160a01b03166001600160a01b03168152602001600b820160009054906101000a90046001600160a01b03166001600160a01b03166001600160a01b0316815250508360405180610100016040529081600082015481526020016001820160009054906101000a900460ff161515151581526020016001820160019054906101000a90046001600160a01b03166001600160a01b03166001600160a01b031681526020016002820160009054906101000a90046001600160a01b03166001600160a01b03166001600160a01b031681526020016003820160009054906101000a90046001600160a01b03166001600160a01b03166001600160a01b031681526020016004820154815260200160058201548152602001600682015481525050888d613163565b9050612512565b5060005b6000806126de85604051806101800160405290816000820154815260200160018201548152602001600282015481526020016003820160009054906101000a900460ff16151515158152602001600482015481526020016005820154815260200160068201548152602001600782015481526020016008820154815260200160098201548152602001600a820160009054906101000a90046001600160a01b03166001600160a01b03166001600160a01b03168152602001600b820160009054906101000a90046001600160a01b03166001600160a01b03166001600160a01b0316815250508560405180610100016040529081600082015481526020016001820160009054906101000a900460ff161515151581526020016001820160019054906101000a90046001600160a01b03166001600160a01b03166001600160a01b031681526020016002820160009054906101000a90046001600160a01b03166001600160a01b03166001600160a01b031681526020016003820160009054906101000a90046001600160a01b03166001600160a01b03166001600160a01b0316815260200160048201548152602001600582015481526020016006820154815250508d868e8e6131d1565b9d5098509092509050826129235781975084600401548214612716576005850154612713906112188a8463ffffffff611dc516565b97505b876127335760405162461bcd60e51b815260040161039090615311565b6128fa85604051806101800160405290816000820154815260200160018201548152602001600282015481526020016003820160009054906101000a900460ff16151515158152602001600482015481526020016005820154815260200160068201548152602001600782015481526020016008820154815260200160098201548152602001600a820160009054906101000a90046001600160a01b03166001600160a01b03166001600160a01b03168152602001600b820160009054906101000a90046001600160a01b03166001600160a01b03166001600160a01b0316815250508560405180610100016040529081600082015481526020016001820160009054906101000a900460ff161515151581526020016001820160019054906101000a90046001600160a01b03166001600160a01b03166001600160a01b031681526020016002820160009054906101000a90046001600160a01b03166001600160a01b03166001600160a01b031681526020016003820160009054906101000a90046001600160a01b03166001600160a01b03166001600160a01b0316815260200160048201548152602001600582015481526020016006820154815250508a8f613163565b925061291c83612910898563ffffffff611e4116565b9063ffffffff611c3716565b9650612927565b8192505b826129445760405162461bcd60e51b815260040161039090615361565b801561296557600585015461295f908263ffffffff611c3716565b60058601555b6002840154600b860154612986916001600160a01b03908116911685613100565b8961299e5760028401546001600160a01b03166129ad565b60038401546001600160a01b03165b955086156129c0576129c0868d896129df565b6129cf85858a848f60016132ed565b5050505050955095509592505050565b801561100b57602d546001600160a01b0384811691161415612a0a57612a0582826135f1565b61100b565b61100b838383613100565b600254602d54604051630a7549df60e21b8152600092839283926001600160a01b03928316926329d5277c92612a53928a9290911690600401614e8c565b604080518083038186803b158015612a6a57600080fd5b505afa158015612a7e573d6000803e3d6000fd5b505050506040513d601f19601f82011682018060405250612aa291908101906145bf565b9092509050612abb81611218868563ffffffff611dc516565b95945050505050565b60009081526020919091526040902054151590565b60008184841115612afd5760405162461bcd60e51b81526004016103909190615170565b505050900390565b602f546002546001600160a01b038581166000908152603c602090815260408083208885168452909152812054909392919091169015612b68576001600160a01b038087166000908152603c602090815260408083209389168352929052205491505b6037546000906060906001600160a01b038085169163d138f9a160e01b918b9116612ba668056bc75e2d631000006112188c8b63ffffffff611dc516565b604051602401612bb893929190614f47565b60408051601f198184030181529181526020820180516001600160e01b03166001600160e01b0319909416939093179092529051612bf69190614dff565b600060405180830381855afa9150503d8060008114612c31576040519150601f19603f3d011682016040523d82523d6000602084013e612c36565b606091505b50915091506001821415612c4c57602081015194505b6000306001600160a01b031663c22552f76040518163ffffffff1660e01b815260040160206040518083038186803b158015612c8757600080fd5b505afa158015612c9b573d6000803e3d6000fd5b505050506040513d601f19601f82011682018060405250612cbf91908101906145a1565b90508515801590612cd05750858110155b15612ef85760375460385460405163095ea7b360e01b81526001600160a01b039283169263095ea7b392612d0b929116908a90600401614fd9565b602060405180830381600087803b158015612d2557600080fd5b505af1158015612d39573d6000803e3d6000fd5b505050506040513d601f19601f82011682018060405250612d5d91908101906144d2565b50603854603f546040516000926001600160a01b031691612d84918f918b91602401614ff4565b60408051601f198184030181529181526020820180516001600160e01b0316630efe6a8b60e01b17905251612db99190614dff565b6000604051808303816000865af19150503d8060008114612df6576040519150601f19603f3d011682016040523d82523d6000602084013e612dfb565b606091505b505090508015612e8a57601f54612e18908863ffffffff611e4116565b601f819055508a603760009054906101000a90046001600160a01b03166001600160a01b03168d6001600160a01b03167ff41c644671512f1cda76abfe6038e3d7d526c1377a5a8c692f81703901db2150898b603f54604051612e7d939291906153cf565b60405180910390a4612ef2565b8a603760009054906101000a90046001600160a01b03166001600160a01b03168d6001600160a01b03167f483f67ea49f76ac15e15bbad68b52788ca47d50aef1e4acfe95e5e307e710812898b603f54604051612ee9939291906153cf565b60405180910390a45b50612f5e565b8515801590612f0657508581105b15612f5e57603754603f546040518c926001600160a01b0390811692908f16917f483f67ea49f76ac15e15bbad68b52788ca47d50aef1e4acfe95e5e307e71081291612f55918b918d916153cf565b60405180910390a45b5050505050505050505050565b60008183612f8c5760405162461bcd60e51b81526004016103909190615170565b506000838581612f9857fe5b0495945050505050565b6040805160a0810182526001600160a01b03808b16825289811660208084019190915230838501819052606080850191909152918a1660808401528351918201845288825281018790529182018590526000918291829161300791908e8888866136ba565b90935091506130168b836138df565b600254602754604051631e2c62d360e01b81526001600160a01b0390921691631e2c62d39161304f918f918f9188918a91600401614f97565b60206040518083038186803b15801561306757600080fd5b505afa15801561307b573d6000803e3d6000fd5b505050506040513d601f19601f8201168201806040525061309f91908101906145a1565b9050896001600160a01b03168b6001600160a01b03168d7fb4eb3c9b62efcce7021cba5fd9cd0c44df91c2272806ccc5e57df7c912e8d7168c86886040516130e993929190614ff4565b60405180910390a499509950999650505050505050565b801561100b576131206001600160a01b038416838363ffffffff6139ad16565b816001600160a01b0316836001600160a01b03167fc44aeefa68e8b9c1ad5f7be4b0dd194580f81f5c362862e72196503a320eb7a18360405161203991906153c1565b60008281613172868884613a06565b9050600081831061318b575090819003906000906131a9565b50600091908190039081156131a9576131a9876060015186846129df565b80156131c3576131c3876060015189610160015183613100565b50909150505b949350505050565b6000806000806000806131e88c8c8c8c8c8c611e66565b94509092509050871561324d5788955085821115613234576132108b60600151878403611ef6565b156132305761322b8b606001518d61014001518885036129df565b613234565b8195505b808a11613242576000613246565b808a035b93506132cd565b89811461326c5760405162461bcd60e51b8152600401610390906152d1565b8b60a001518a14156132855788955088820393506132cd565b8b6080015182106132c5578b6080015195508b60800151820393506132ba8b608001518d6101400151838f60a00151036129df565b5060a08b01516132cd565b819550600093505b8981116132da57896132dc565b805b945050509650965096509692505050565b6132f78685613ba4565b60028054908601546003870154600489015460058a01546040516001600160a01b0395861695600095869586956060958a956317f8680960e11b956133459581169416929190602401614f6f565b60408051601f198184030181529181526020820180516001600160e01b03166001600160e01b03199094169390931790925290516133839190614dff565b600060405180830381855afa9150503d80600081146133be576040519150601f19603f3d011682016040523d82523d6000602084013e6133c3565b606091505b509150915060018214156133e05760208101519350604081015192505b60008660028111156133ee57fe5b14806133fc575060048b0154155b8061340a5750896005015484115b6134265760405162461bcd60e51b8152600401610390906152c1565b612f5e8a60405180610100016040529081600082015481526020016001820160009054906101000a900460ff161515151581526020016001820160019054906101000a90046001600160a01b03166001600160a01b03166001600160a01b031681526020016002820160009054906101000a90046001600160a01b03166001600160a01b03166001600160a01b031681526020016003820160009054906101000a90046001600160a01b03166001600160a01b03166001600160a01b0316815260200160048201548152602001600582015481526020016006820154815250508c604051806101800160405290816000820154815260200160018201548152602001600282015481526020016003820160009054906101000a900460ff16151515158152602001600482015481526020016005820154815260200160068201548152602001600782015481526020016008820154815260200160098201548152602001600a820160009054906101000a90046001600160a01b03166001600160a01b03166001600160a01b03168152602001600b820160009054906101000a90046001600160a01b03166001600160a01b03166001600160a01b0316815250508b8b878c8a8d613c7b565b801561100d57602d546001600160a01b0316478083111561366d57604051632e1a7d4d60e01b81526001600160a01b03831690632e1a7d4d9061363a90848703906004016153c1565b600060405180830381600087803b15801561365457600080fd5b505af1158015613668573d6000803e3d6000fd5b505050505b6136778484613e4e565b836001600160a01b0316826001600160a01b03167fc44aeefa68e8b9c1ad5f7be4b0dd194580f81f5c362862e72196503a320eb7a1856040516120dd91906153c1565b845160009081901515806136d15750602087015115155b6136ed5760405162461bcd60e51b815260040161039090615321565b60208701516136fe57865160208801525b6020870151875111156137235760405162461bcd60e51b815260040161039090615251565b6000806000876137e05760408a015161379f5785156137545761374d8a60005b6020020151613eea565b9050613768565b6137658a60005b6020020151613f1a565b90505b801561379a5760808b01518b5161378b91908b908e60015b602002015185613f3e565b89516137979082611c37565b8a525b6137e0565b85156137b7576137b08a6002613743565b90506137c5565b6137c28a600261375b565b90505b80156137e05760408a01516137da9082611e41565b60408b01525b8651156137ff5760405162461bcd60e51b815260040161039090615371565b6138098b8b614082565b60408c0151919450925061385557895182146138375760405162461bcd60e51b8152600401610390906153a1565b80156138505761384d828263ffffffff611e4116565b91505b6138cf565b60208a01518211156138795760405162461bcd60e51b815260040161039090615201565b60408a015183101561389d5760405162461bcd60e51b8152600401610390906151b1565b80156138cf5760808b015160208c01516138bc91908b908e6000613780565b6138cc838263ffffffff611c3716565b92505b5090999098509650505050505050565b602954801561100b57602d546000906001600160a01b038581169116141561390857508161398d565b600254604051635967aa7560e11b81526001600160a01b039091169063b2cf54ea9061393a9087908790600401614fd9565b60206040518083038186803b15801561395257600080fd5b505afa158015613966573d6000803e3d6000fd5b505050506040513d601f19601f8201168201806040525061398a91908101906145a1565b90505b81811115611d645760405162461bcd60e51b815260040161039090615271565b60405161100b90849063a9059cbb60e01b906139cf9086908690602401614fd9565b60408051601f198184030181529190526020810180516001600160e01b03166001600160e01b031990931692909217909152614194565b6000613a1b8361016001518560600151611c80565b82516000908152600c602090815260408083206101608701516001600160a01b039081168552600b845282852060608a0151909116855290925290912060e08501514290811115613a6d575060e08501515b613a8c83876000015189606001518a608001518a610140015186611d6a565b60008660800151861015613abd5760808701518454613ab69190611218908963ffffffff611dc516565b9050613ac1565b5082545b8354613ad3908263ffffffff611c3716565b84556001830154613aea908263ffffffff611c3716565b600184015560e0870151600090613b07908463ffffffff611c3716565b9050613b19818363ffffffff611dc516565b9050613b2e816201518063ffffffff611dff16565b90508760800151871015613b5b576001850154613b51908263ffffffff611c3716565b6001860155613b63565b600060018601555b8354613b75908863ffffffff611c3716565b84556002840154818111613b8a576000613b8e565b8181035b6002909501949094559450505050509392505050565b80613bc15760405162461bcd60e51b815260040161039090615301565b8160040154811415613c5d5760006004830181905560038301805460ff1916905542600784015560028301558154613c0190600f9063ffffffff611b0716565b508154600b8301546001600160a01b03166000908152601160205260409020613c2f9163ffffffff611b0716565b508154600a8301546001600160a01b03166000908152601260205260409020610fea9163ffffffff611b0716565b6004820154613c72908263ffffffff611c3716565b60048301555050565b6000816002811115613c8957fe5b1415613d025786600001518761016001516001600160a01b03168861014001516001600160a01b03167f6349c1a02ec126f7f4fc6e6837e1859006e90e9901635c442d29271e77b96fb6338c606001518d608001518c8c8c8b604051613cf59796959493929190614e24565b60405180910390a4613e44565b6001816002811115613d1057fe5b1415613dc1578215613d3857613d356ec097ce7bc90715b34b9f100000000084611dff565b92505b8115613d5b57613d586f4b3b4ca85a86c47a098a22400000000083611dff565b91505b86600001518761016001516001600160a01b03168861014001516001600160a01b03167f2ed7b29b4ca95cf3bb9a44f703872a66e6aa5e8f07b675fa9a5c124a1e5d73528b608001518c60600151338b8d8b8b604051613cf59796959493929190614ea7565b6002816002811115613dcf57fe5b1415613e44578660000151336001600160a01b03168861014001516001600160a01b03167f46fa03303782eb2f686515f6c0100f9a62dabe587b0d3f5a4fc0c822d6e532d38a61016001518c606001518d608001518c8c8c8b604051613e3b9796959493929190614f39565b60405180910390a45b5050505050505050565b80471015613e6e5760405162461bcd60e51b815260040161039090615241565b6000826001600160a01b031682604051613e8790614e0b565b60006040518083038185875af1925050503d8060008114613ec4576040519150601f19603f3d011682016040523d82523d6000602084013e613ec9565b606091505b505090508061100b5760405162461bcd60e51b815260040161039090615231565b6000611b0168056bc75e2d63100000613f0e603e5485611dc590919063ffffffff16565b9063ffffffff61427916565b6000611b0168056bc75e2d63100000613f0e60185485611dc590919063ffffffff16565b80801561407a576001600160a01b038681166000908152603360205260409020541615613fe8576001600160a01b03808716600090815260336020526040902054613f8c91168786846142bb565b5050613fe5613fb368056bc75e2d6310000061121860395485611dc590919063ffffffff16565b612910613fd868056bc75e2d6310000061121860205487611dc590919063ffffffff16565b849063ffffffff611c3716565b90505b6001600160a01b038416600090815260196020526040902054614011908263ffffffff611e4116565b6001600160a01b03808616600081815260196020526040908190209390935591518792918916907fb23479169712c443e6b00fb0cec3506a5f5926f541df4243d313e11c8c5c71ed906140659086906153c1565b60405180910390a461407a8686868686612b05565b505050505050565b815160208084015160408086015160608781015187519588015188850151945160009889989497630957ba1160e21b976140c9979296919592949293919291602401614ecf565b60408051601f198184030181529181526020820180516001600160e01b03166001600160e01b03199094169390931790925260035491519092506000916001600160a01b03169061411b908490614dff565b600060405180830381855af49150503d8060008114614156576040519150601f19603f3d011682016040523d82523d6000602084013e61415b565b606091505b50925090508061417d5760405162461bcd60e51b815260040161039090615391565b602082015193506040820151925050509250929050565b6141a6826001600160a01b0316614347565b6141c25760405162461bcd60e51b8152600401610390906153b1565b60006060836001600160a01b0316836040516141de9190614dff565b6000604051808303816000865af19150503d806000811461421b576040519150601f19603f3d011682016040523d82523d6000602084013e614220565b606091505b5091509150816142425760405162461bcd60e51b8152600401610390906151f1565b805115611d64578080602001905161425d91908101906144d2565b611d645760405162461bcd60e51b815260040161039090615381565b6000611c7983836040518060400160405280601a81526020017f536166654d6174683a206469766973696f6e206279207a65726f000000000000815250614380565b6040516306a688ff60e11b815260009081903090630d4d11fe906142e9908990899089908990600401614f04565b6040805180830381600087803b15801561430257600080fd5b505af1158015614316573d6000803e3d6000fd5b505050506040513d601f19601f8201168201806040525061433a91908101906145bf565b9097909650945050505050565b6000813f7fc5d2460186f7233c927e7db2dcc703c0e500b653ca82273b7bfad8045d85a4708181148015906131c9575050151592915050565b600081836143a15760405162461bcd60e51b81526004016103909190615170565b50836143af57506000611c79565b60008360018603816143bd57fe5b0460010195945050505050565b8035611b018161550d565b8051611b0181615521565b8035611b018161552a565b8035611b0181615533565b60008083601f84011261440857600080fd5b50813567ffffffffffffffff81111561442057600080fd5b60208301915083600182028301111561443857600080fd5b9250929050565b8051611b018161552a565b60006020828403121561445c57600080fd5b60006131c984846143ca565b6000806040838503121561447b57600080fd5b600061448785856143ca565b9250506020614498858286016143ca565b9150509250929050565b600080604083850312156144b557600080fd5b60006144c185856143ca565b9250506020614498858286016143e0565b6000602082840312156144e457600080fd5b60006131c984846143d5565b60006020828403121561450257600080fd5b60006131c984846143e0565b6000806040838503121561452157600080fd5b600061448785856143e0565b60008060006040848603121561454257600080fd5b600061454e86866143e0565b935050602084013567ffffffffffffffff81111561456b57600080fd5b614577868287016143f6565b92509250509250925092565b60006020828403121561459557600080fd5b60006131c984846143eb565b6000602082840312156145b357600080fd5b60006131c9848461443f565b600080604083850312156145d257600080fd5b60006145de858561443f565b92505060206144988582860161443f565b6145f8816154c5565b82525050565b6145f881615499565b6145f8816154a4565b6145f8816154a9565b600061462482615487565b61462e818561548b565b935061463e8185602086016154d7565b9290920192915050565b6145f8816154cc565b600061465c82615487565b6146668185615490565b93506146768185602086016154d7565b61467f81615503565b9093019392505050565b6000614696600983615490565b681153d05cc818d85b1b60ba1b815260200192915050565b60006146bb601483615490565b733932b2b73a3930b731bc903b34b7b630ba34b7b760611b815260200192915050565b60006146eb600683615490565b6514185d5cd95960d21b815260200192915050565b600061470d601b83615490565b7f696e73756666696369656e742073776170206c69717569646974790000000000815260200192915050565b6000614746601f83615490565b7f496e76616c6964206c6f616e20746f6b656e20706f6f6c206164647265737300815260200192915050565b600061477f602683615490565b7f4f776e61626c653a206e6577206f776e657220697320746865207a65726f206181526564647265737360d01b602082015260400192915050565b60006147c7601b83615490565b7f536166654d6174683a206164646974696f6e206f766572666c6f770000000000815260200192915050565b6000614800602083615490565b7f5361666545524332303a206c6f772d6c6576656c2063616c6c206661696c6564815260200192915050565b6000614839601383615490565b72737761702066696c6c20746f6f206c6172676560681b815260200192915050565b6000614868601783615490565b7f65786365737369766520736f7572636520616d6f756e74000000000000000000815260200192915050565b60006148a1600e83615490565b6d34b73b30b634b2103632b73232b960911b815260200192915050565b60006148cb603a83615490565b7f416464726573733a20756e61626c6520746f2073656e642076616c75652c207281527f6563697069656e74206d61792068617665207265766572746564000000000000602082015260400192915050565b600061492a601d83615490565b7f416464726573733a20696e73756666696369656e742062616c616e6365000000815260200192915050565b6000614963601c83615490565b7f736f75726365416d6f756e74206c6172676572207468616e206d617800000000815260200192915050565b600061499c601083615490565b6f3432b0b63a343c903837b9b4ba34b7b760811b815260200192915050565b60006149c8600e83615490565b6d7377617020746f6f206c6172676560901b815260200192915050565b60006149f2602983615490565b7f6c6f616e20746f6b656e20737570706c7920696e76617269616e7420636865638152686b206661696c75726560b81b602082015260400192915050565b6000614a3d601883615490565b7f696e73756666696369656e74206465737420616d6f756e740000000000000000815260200192915050565b6000614a76602183615490565b7f536166654d6174683a206d756c7469706c69636174696f6e206f766572666c6f8152607760f81b602082015260400192915050565b6000614ab9600c83615490565b6b1d5b985d5d1a1bdc9a5e995960a21b815260200192915050565b6000614ae1601283615490565b713ab73432b0b63a343c903837b9b4ba34b7b760711b815260200192915050565b6000614b0f600a83615490565b6939bbb0b81032b93937b960b11b815260200192915050565b6000614b35601583615490565b746c6f616e506172616d73206e6f742065786973747360581b815260200192915050565b6000614b66601483615490565b7319985b1b189858dac81b9bdd08185b1b1bddd95960621b815260200192915050565b6000614b96601083615490565b6f6e6f7468696e6720746f20636c6f736560801b815260200192915050565b6000614bc2601483615490565b7306c6f616e436c6f7365416d6f756e74203d3d20360641b815260200192915050565b6000614bf2602e83615490565b7f6d696e206f72206d617820736f7572636520746f6b656e20616d6f756e74206e81526d1959591cc81d1bc81899481cd95d60921b602082015260400192915050565b6000611b0160008361548b565b6000614c4f600f83615490565b6e073776170416d6f756e74203d3d203608c1b815260200192915050565b6000614c7a600e83615490565b6d1b1bd85b881a5cc818db1bdcd95960921b815260200192915050565b6000614ca4600c83615490565b6b1b9bdb9499595b9d1c985b9d60a21b815260200192915050565b6000614ccc601b83615490565b7f636c6f7365416d6f756e74206973203020616674657220737761700000000000815260200192915050565b6000614d05600d83615490565b6c696e76616c696420737461746560981b815260200192915050565b6000614d2e602a83615490565b7f5361666545524332303a204552433230206f7065726174696f6e20646964206e8152691bdd081cdd58d8d9595960b21b602082015260400192915050565b6000614d7a600b83615490565b6a1cddd85c0819985a5b195960aa1b815260200192915050565b6000614da1601683615490565b751cddd85c081d1bdbc81b185c99d9481d1bc8199a5b1b60521b815260200192915050565b6000614dd3601f83615490565b7f5361666545524332303a2063616c6c20746f206e6f6e2d636f6e747261637400815260200192915050565b6000611c798284614619565b6000611b0182614c35565b60208101611b0182846145fe565b60e08101614e32828a6145ef565b614e3f60208301896145fe565b614e4c60408301886145fe565b614e596060830187614610565b614e666080830186614610565b614e7360a0830185614610565b614e8060c0830184614610565b98975050505050505050565b60408101614e9a82856145fe565b611c7960208301846145fe565b60e08101614eb5828a6145fe565b614ec260208301896145fe565b614e4c60408301886145ef565b60e08101614edd828a6145fe565b614eea60208301896145fe565b614ef760408301886145fe565b614e5960608301876145fe565b60808101614f1282876145fe565b614f1f60208301866145fe565b614f2c60408301856145fe565b612abb6060830184614610565b60e08101614e32828a6145fe565b60608101614f5582866145fe565b614f6260208301856145fe565b6131c96040830184614610565b60808101614f7d82876145fe565b614f8a60208301866145fe565b614f2c6040830185614610565b60a08101614fa582886145fe565b614fb260208301876145fe565b614fbf6040830186614610565b614fcc6060830185614610565b61223c6080830184614610565b60408101614fe782856145fe565b611c796020830184614610565b6060810161500282866145fe565b614f626020830185614610565b60208101611b018284614607565b6080810161502b8287614607565b614f8a6020830186614610565b6101008101615047828b614610565b615054602083018a614607565b61506160408301896145fe565b61506e60608301886145fe565b61507b60808301876145fe565b61508860a0830186614610565b61509560c0830185614610565b6150a260e0830184614610565b9998505050505050505050565b61018081016150be828f614610565b6150cb602083018e614610565b6150d8604083018d614610565b6150e5606083018c614607565b6150f2608083018b614610565b6150ff60a083018a614610565b61510c60c0830189614610565b61511960e0830188614610565b615127610100830187614610565b615135610120830186614610565b6151436101408301856145fe565b6151516101608301846145fe565b9d9c50505050505050505050505050565b60208101611b018284614648565b60208082528101611c798184614651565b60208082528101611b0181614689565b60208082528101611b01816146ae565b60208082528101611b01816146de565b60208082528101611b0181614700565b60208082528101611b0181614739565b60208082528101611b0181614772565b60208082528101611b01816147ba565b60208082528101611b01816147f3565b60208082528101611b018161482c565b60208082528101611b018161485b565b60208082528101611b0181614894565b60208082528101611b01816148be565b60208082528101611b018161491d565b60208082528101611b0181614956565b60208082528101611b018161498f565b60208082528101611b01816149bb565b60208082528101611b01816149e5565b60208082528101611b0181614a30565b60208082528101611b0181614a69565b60208082528101611b0181614aac565b60208082528101611b0181614ad4565b60208082528101611b0181614b02565b60208082528101611b0181614b28565b60208082528101611b0181614b59565b60208082528101611b0181614b89565b60208082528101611b0181614bb5565b60208082528101611b0181614be5565b60208082528101611b0181614c42565b60208082528101611b0181614c6d565b60208082528101611b0181614c97565b60208082528101611b0181614cbf565b60208082528101611b0181614cf8565b60208082528101611b0181614d21565b60208082528101611b0181614d6d565b60208082528101611b0181614d94565b60208082528101611b0181614dc6565b60208101611b018284614610565b606081016150028286614610565b60a081016153eb8288614610565b6153f86020830187614610565b6154056040830186614610565b614fcc60608301856145ef565b60a081016154208288614610565b614fb26020830187614610565b60c0810161543b8289614610565b6154486020830188614610565b6154556040830187614610565b6154626060830186614610565b61546f6080830185614610565b61547c60a0830184614610565b979650505050505050565b5190565b919050565b90815260200190565b6000611b01826154b9565b151590565b90565b6001600160e01b03191690565b6001600160a01b031690565b6000611b01825b6000611b0182615499565b60005b838110156154f25781810151838201526020016154da565b83811115611d645750506000910152565b601f01601f191690565b61551681615499565b8114610f5a57600080fd5b615516816154a4565b615516816154a9565b615516816154ac56fea365627a7a723158204037100d9f86fcb24216c69a7719c024e073e5a17eff03837289274836390b386c6578706572696d656e74616cf564736f6c63430005110040",
    "linkReferences": {}
  },
  "methodIdentifiers": {
    "TINY_AMOUNT()": "f8dd4f0e",
    "admin()": "f851a440",
    "affiliateFeePercent()": "ae0a8530",
    "affiliateRewardsHeld(address)": "bdee453c",
    "affiliateTradingTokenFeePercent()": "f589a3e7",
    "affiliatesReferrerBalances(address,address)": "1b7bde74",
    "affiliatesUserReferrer(address)": "6e663730",
    "borrowerNonce(address)": "3fca506e",
    "borrowerOrders(address,bytes32)": "065d810f",
    "borrowingFeePercent()": "edab119f",
    "borrowingFeeTokensHeld(address)": "b7e15241",
    "borrowingFeeTokensPaid(address)": "b30643d9",
    "delegatedManagers(bytes32,address)": "4115a2b6",
    "feeRebatePercent()": "acc04348",
    "feesController()": "e8f62764",
    "initialize(address)": "c4d66de8",
    "isOwner()": "8f32d59b",
    "lenderInterest(address,address)": "62fff3f6",
    "lenderOrders(address,bytes32)": "3432423c",
    "lendingFeePercent()": "4699f846",
    "lendingFeeTokensHeld(address)": "4203e395",
    "lendingFeeTokensPaid(address)": "92d894f8",
    "liquidationIncentivePercent()": "f6ddc8b3",
    "loanInterest(bytes32)": "569fc1fb",
    "loanParams(bytes32)": "cb6eacd1",
    "loanPoolToUnderlying(address)": "8dc48ba5",
    "loans(bytes32)": "c4a90815",
    "lockedSOVAddress()": "d288208c",
    "logicTargets(bytes4)": "17548b79",
    "maxDisagreement()": "d473c2da",
    "maxSwapSize()": "4f28cac2",
    "minReferralsToPayout()": "742e6798",
    "owner()": "8da5cb5b",
    "pause()": "8456cb59",
    "paySwapExcessToBorrowerThreshold()": "ee54a4ec",
    "priceFeeds()": "78d849ed",
    "protocolAddress()": "0676c1b7",
    "protocolTokenAddress()": "f706b1f2",
    "protocolTokenHeld()": "7a8faeb8",
    "protocolTokenPaid()": "2f470764",
    "rollover(bytes32,bytes)": "cf0eda84",
    "rolloverBaseReward()": "574442cc",
    "rolloverFlexFeePercent()": "959083d3",
    "sourceBuffer()": "f0e085f5",
    "sovTokenAddress()": "b9cffa3e",
    "sovrynSwapContractRegistryAddress()": "ba4861e9",
    "specialRebates(address,address)": "cd5d808d",
    "supportedTokens(address)": "68c4ac26",
    "swapsImpl()": "7420ca3e",
    "tradingFeePercent()": "2a324027",
    "tradingFeeTokensHeld(address)": "d485045e",
    "tradingFeeTokensPaid(address)": "3452d2d4",
    "transferOwnership(address)": "f2fde38b",
    "underlyingToLoanPool(address)": "218b39c6",
    "userNotFirstTradeFlag(address)": "24cc5749",
    "wrbtcToken()": "afe84009"
  },
  "id": 166
}