{
  "abi": [
    {
      "constant": false,
      "inputs": [
        {
          "internalType": "address",
          "name": "cSOV1",
          "type": "address"
        },
        {
          "internalType": "address",
          "name": "cSOV2",
          "type": "address"
        },
        {
          "internalType": "address",
          "name": "SOV",
          "type": "address"
        }
      ],
      "name": "approveTokens",
      "outputs": [],
      "payable": false,
      "stateMutability": "nonpayable",
      "type": "function"
    }
  ],
  "bytecode": {
    "object": "0x6080604052348015600f57600080fd5b50609e8061001e6000396000f3fe6080604052348015600f57600080fd5b506004361060285760003560e01c806394cf6cb614602d575b600080fd5b606260048036036060811015604157600080fd5b506001600160a01b0381358116916020810135821691604090910135166064565b005b50505056fea265627a7a72315820a6f863b7125de70c6b4c608d606cf6990def91a8f76e9efa3a1a456b99d0abe364736f6c63430005110032",
    "linkReferences": {}
  },
  "methodIdentifiers": {
    "approveTokens(address,address,address)": "94cf6cb6"
  },
  "id": 130
}