{
  "abi": [
    {
      "anonymous": false,
      "inputs": [
        {
          "indexed": false,
          "internalType": "address",
          "name": "admin",
          "type": "address"
        }
      ],
      "name": "AdminAdded",
      "type": "event"
    },
    {
      "anonymous": false,
      "inputs": [
        {
          "indexed": false,
          "internalType": "address",
          "name": "admin",
          "type": "address"
        }
      ],
      "name": "AdminRemoved",
      "type": "event"
    },
    {
      "anonymous": false,
      "inputs": [
        {
          "indexed": true,
          "internalType": "address",
          "name": "previousOwner",
          "type": "address"
        },
        {
          "indexed": true,
          "internalType": "address",
          "name": "newOwner",
          "type": "address"
        }
      ],
      "name": "OwnershipTransferred",
      "type": "event"
    },
    {
      "anonymous": false,
      "inputs": [
        {
          "indexed": true,
          "internalType": "address",
          "name": "receiver",
          "type": "address"
        },
        {
          "indexed": false,
          "internalType": "uint256",
          "name": "amount",
          "type": "uint256"
        }
      ],
      "name": "SOVTransferred",
      "type": "event"
    },
    {
      "anonymous": false,
      "inputs": [
        {
          "indexed": true,
          "internalType": "address",
          "name": "tokenOwner",
          "type": "address"
        },
        {
          "indexed": false,
          "internalType": "address",
          "name": "vesting",
          "type": "address"
        },
        {
          "indexed": false,
          "internalType": "uint256",
          "name": "cliff",
          "type": "uint256"
        },
        {
          "indexed": false,
          "internalType": "uint256",
          "name": "duration",
          "type": "uint256"
        },
        {
          "indexed": false,
          "internalType": "uint256",
          "name": "amount",
          "type": "uint256"
        },
        {
          "indexed": false,
          "internalType": "uint256",
          "name": "vestingCreationType",
          "type": "uint256"
        }
      ],
      "name": "TeamVestingCreated",
      "type": "event"
    },
    {
      "anonymous": false,
      "inputs": [
        {
          "indexed": true,
          "internalType": "address",
          "name": "vesting",
          "type": "address"
        },
        {
          "indexed": false,
          "internalType": "uint256",
          "name": "amount",
          "type": "uint256"
        }
      ],
      "name": "TokensStaked",
      "type": "event"
    },
    {
      "anonymous": false,
      "inputs": [
        {
          "indexed": true,
          "internalType": "address",
          "name": "tokenOwner",
          "type": "address"
        },
        {
          "indexed": false,
          "internalType": "address",
          "name": "vesting",
          "type": "address"
        },
        {
          "indexed": false,
          "internalType": "uint256",
          "name": "cliff",
          "type": "uint256"
        },
        {
          "indexed": false,
          "internalType": "uint256",
          "name": "duration",
          "type": "uint256"
        },
        {
          "indexed": false,
          "internalType": "uint256",
          "name": "amount",
          "type": "uint256"
        },
        {
          "indexed": false,
          "internalType": "uint256",
          "name": "vestingCreationType",
          "type": "uint256"
        }
      ],
      "name": "VestingCreated",
      "type": "event"
    },
    {
      "anonymous": false,
      "inputs": [
        {
          "indexed": true,
          "internalType": "address",
          "name": "vesting",
          "type": "address"
        },
        {
          "components": [
            {
              "internalType": "bool",
              "name": "isSet",
              "type": "bool"
            },
            {
              "internalType": "uint32",
              "name": "vestingType",
              "type": "uint32"
            },
            {
              "internalType": "uint128",
              "name": "vestingCreationType",
              "type": "uint128"
            }
          ],
          "indexed": false,
          "internalType": "struct VestingRegistryStorage.VestingCreationAndTypeDetails",
          "name": "vestingCreationAndType",
          "type": "tuple"
        }
      ],
      "name": "VestingCreationAndTypesSet",
      "type": "event"
    },
    {
      "constant": true,
      "inputs": [],
      "name": "SOV",
      "outputs": [
        {
          "internalType": "address",
          "name": "",
          "type": "address"
        }
      ],
      "payable": false,
      "stateMutability": "view",
      "type": "function"
    },
    {
      "constant": false,
      "inputs": [
        {
          "internalType": "address",
          "name": "_admin",
          "type": "address"
        }
      ],
      "name": "addAdmin",
      "outputs": [],
      "payable": false,
      "stateMutability": "nonpayable",
      "type": "function"
    },
    {
      "constant": false,
      "inputs": [
        {
          "internalType": "address[]",
          "name": "_tokenOwners",
          "type": "address[]"
        },
        {
          "internalType": "uint256[]",
          "name": "_vestingCreationTypes",
          "type": "uint256[]"
        }
      ],
      "name": "addDeployedVestings",
      "outputs": [],
      "payable": false,
      "stateMutability": "nonpayable",
      "type": "function"
    },
    {
      "constant": false,
      "inputs": [
        {
          "internalType": "address[]",
          "name": "_tokenOwners",
          "type": "address[]"
        },
        {
          "internalType": "address[]",
          "name": "_vestingAddresses",
          "type": "address[]"
        }
      ],
      "name": "addFourYearVestings",
      "outputs": [],
      "payable": false,
      "stateMutability": "nonpayable",
      "type": "function"
    },
    {
      "constant": true,
      "inputs": [
        {
          "internalType": "address",
          "name": "",
          "type": "address"
        }
      ],
      "name": "admins",
      "outputs": [
        {
          "internalType": "bool",
          "name": "",
          "type": "bool"
        }
      ],
      "payable": false,
      "stateMutability": "view",
      "type": "function"
    },
    {
      "constant": false,
      "inputs": [
        {
          "internalType": "address",
          "name": "_tokenOwner",
          "type": "address"
        },
        {
          "internalType": "uint256",
          "name": "_amount",
          "type": "uint256"
        },
        {
          "internalType": "uint256",
          "name": "_cliff",
          "type": "uint256"
        },
        {
          "internalType": "uint256",
          "name": "_duration",
          "type": "uint256"
        },
        {
          "internalType": "uint256",
          "name": "_vestingCreationType",
          "type": "uint256"
        }
      ],
      "name": "createTeamVesting",
      "outputs": [],
      "payable": false,
      "stateMutability": "nonpayable",
      "type": "function"
    },
    {
      "constant": false,
      "inputs": [
        {
          "internalType": "address",
          "name": "_tokenOwner",
          "type": "address"
        },
        {
          "internalType": "uint256",
          "name": "_amount",
          "type": "uint256"
        },
        {
          "internalType": "uint256",
          "name": "_cliff",
          "type": "uint256"
        },
        {
          "internalType": "uint256",
          "name": "_duration",
          "type": "uint256"
        }
      ],
      "name": "createVesting",
      "outputs": [],
      "payable": false,
      "stateMutability": "nonpayable",
      "type": "function"
    },
    {
      "constant": false,
      "inputs": [
        {
          "internalType": "address",
          "name": "_tokenOwner",
          "type": "address"
        },
        {
          "internalType": "uint256",
          "name": "_amount",
          "type": "uint256"
        },
        {
          "internalType": "uint256",
          "name": "_cliff",
          "type": "uint256"
        },
        {
          "internalType": "uint256",
          "name": "_duration",
          "type": "uint256"
        },
        {
          "internalType": "uint256",
          "name": "_vestingCreationType",
          "type": "uint256"
        }
      ],
      "name": "createVestingAddr",
      "outputs": [],
      "payable": false,
      "stateMutability": "nonpayable",
      "type": "function"
    },
    {
      "constant": true,
      "inputs": [],
      "name": "feeSharingCollector",
      "outputs": [
        {
          "internalType": "address",
          "name": "",
          "type": "address"
        }
      ],
      "payable": false,
      "stateMutability": "view",
      "type": "function"
    },
    {
      "constant": true,
      "inputs": [
        {
          "internalType": "address",
          "name": "_tokenOwner",
          "type": "address"
        },
        {
          "internalType": "uint256",
          "name": "_cliff",
          "type": "uint256"
        },
        {
          "internalType": "uint256",
          "name": "_duration",
          "type": "uint256"
        },
        {
          "internalType": "uint256",
          "name": "_vestingCreationType",
          "type": "uint256"
        }
      ],
      "name": "getTeamVesting",
      "outputs": [
        {
          "internalType": "address",
          "name": "",
          "type": "address"
        }
      ],
      "payable": false,
      "stateMutability": "view",
      "type": "function"
    },
    {
      "constant": true,
      "inputs": [
        {
          "internalType": "address",
          "name": "_tokenOwner",
          "type": "address"
        }
      ],
      "name": "getVesting",
      "outputs": [
        {
          "internalType": "address",
          "name": "",
          "type": "address"
        }
      ],
      "payable": false,
      "stateMutability": "view",
      "type": "function"
    },
    {
      "constant": true,
      "inputs": [
        {
          "internalType": "address",
          "name": "_tokenOwner",
          "type": "address"
        },
        {
          "internalType": "uint256",
          "name": "_cliff",
          "type": "uint256"
        },
        {
          "internalType": "uint256",
          "name": "_duration",
          "type": "uint256"
        },
        {
          "internalType": "uint256",
          "name": "_vestingCreationType",
          "type": "uint256"
        }
      ],
      "name": "getVestingAddr",
      "outputs": [
        {
          "internalType": "address",
          "name": "",
          "type": "address"
        }
      ],
      "payable": false,
      "stateMutability": "view",
      "type": "function"
    },
    {
      "constant": true,
      "inputs": [
        {
          "internalType": "address",
          "name": "_vestingAddress",
          "type": "address"
        }
      ],
      "name": "getVestingDetails",
      "outputs": [
        {
          "internalType": "uint256",
          "name": "cliff",
          "type": "uint256"
        },
        {
          "internalType": "uint256",
          "name": "duration",
          "type": "uint256"
        }
      ],
      "payable": false,
      "stateMutability": "view",
      "type": "function"
    },
    {
      "constant": true,
      "inputs": [
        {
          "internalType": "address",
          "name": "_tokenOwner",
          "type": "address"
        }
      ],
      "name": "getVestingsOf",
      "outputs": [
        {
          "components": [
            {
              "internalType": "uint256",
              "name": "vestingType",
              "type": "uint256"
            },
            {
              "internalType": "uint256",
              "name": "vestingCreationType",
              "type": "uint256"
            },
            {
              "internalType": "address",
              "name": "vestingAddress",
              "type": "address"
            }
          ],
          "internalType": "struct VestingRegistryStorage.Vesting[]",
          "name": "",
          "type": "tuple[]"
        }
      ],
      "payable": false,
      "stateMutability": "view",
      "type": "function"
    },
    {
      "constant": false,
      "inputs": [
        {
          "internalType": "address",
          "name": "_vestingFactory",
          "type": "address"
        },
        {
          "internalType": "address",
          "name": "_SOV",
          "type": "address"
        },
        {
          "internalType": "address",
          "name": "_staking",
          "type": "address"
        },
        {
          "internalType": "address",
          "name": "_feeSharingCollector",
          "type": "address"
        },
        {
          "internalType": "address",
          "name": "_vestingOwner",
          "type": "address"
        },
        {
          "internalType": "address",
          "name": "_lockedSOV",
          "type": "address"
        },
        {
          "internalType": "address[]",
          "name": "_vestingRegistries",
          "type": "address[]"
        }
      ],
      "name": "initialize",
      "outputs": [],
      "payable": false,
      "stateMutability": "nonpayable",
      "type": "function"
    },
    {
      "constant": true,
      "inputs": [],
      "name": "isOwner",
      "outputs": [
        {
          "internalType": "bool",
          "name": "",
          "type": "bool"
        }
      ],
      "payable": false,
      "stateMutability": "view",
      "type": "function"
    },
    {
      "constant": true,
      "inputs": [
        {
          "internalType": "address",
          "name": "_vestingAddress",
          "type": "address"
        }
      ],
      "name": "isTeamVesting",
      "outputs": [
        {
          "internalType": "bool",
          "name": "",
          "type": "bool"
        }
      ],
      "payable": false,
      "stateMutability": "view",
      "type": "function"
    },
    {
      "constant": true,
      "inputs": [
        {
          "internalType": "address",
          "name": "",
          "type": "address"
        }
      ],
      "name": "isVesting",
      "outputs": [
        {
          "internalType": "bool",
          "name": "",
          "type": "bool"
        }
      ],
      "payable": false,
      "stateMutability": "view",
      "type": "function"
    },
    {
      "constant": true,
      "inputs": [
        {
          "internalType": "address",
          "name": "_vestingAddress",
          "type": "address"
        }
      ],
      "name": "isVestingAddress",
      "outputs": [
        {
          "internalType": "bool",
          "name": "isVestingAddr",
          "type": "bool"
        }
      ],
      "payable": false,
      "stateMutability": "view",
      "type": "function"
    },
    {
      "constant": true,
      "inputs": [],
      "name": "lockedSOV",
      "outputs": [
        {
          "internalType": "contract ILockedSOV",
          "name": "",
          "type": "address"
        }
      ],
      "payable": false,
      "stateMutability": "view",
      "type": "function"
    },
    {
      "constant": true,
      "inputs": [],
      "name": "owner",
      "outputs": [
        {
          "internalType": "address",
          "name": "",
          "type": "address"
        }
      ],
      "payable": false,
      "stateMutability": "view",
      "type": "function"
    },
    {
      "constant": false,
      "inputs": [
        {
          "internalType": "address[]",
          "name": "_vestingAddresses",
          "type": "address[]"
        },
        {
          "components": [
            {
              "internalType": "bool",
              "name": "isSet",
              "type": "bool"
            },
            {
              "internalType": "uint32",
              "name": "vestingType",
              "type": "uint32"
            },
            {
              "internalType": "uint128",
              "name": "vestingCreationType",
              "type": "uint128"
            }
          ],
          "internalType": "struct VestingRegistryStorage.VestingCreationAndTypeDetails[]",
          "name": "_vestingCreationAndTypes",
          "type": "tuple[]"
        }
      ],
      "name": "registerVestingToVestingCreationAndTypes",
      "outputs": [],
      "payable": false,
      "stateMutability": "nonpayable",
      "type": "function"
    },
    {
      "constant": false,
      "inputs": [
        {
          "internalType": "address",
          "name": "_admin",
          "type": "address"
        }
      ],
      "name": "removeAdmin",
      "outputs": [],
      "payable": false,
      "stateMutability": "nonpayable",
      "type": "function"
    },
    {
      "constant": false,
      "inputs": [
        {
          "internalType": "address",
          "name": "_vestingFactory",
          "type": "address"
        }
      ],
      "name": "setVestingFactory",
      "outputs": [],
      "payable": false,
      "stateMutability": "nonpayable",
      "type": "function"
    },
    {
      "constant": false,
      "inputs": [
        {
          "internalType": "address",
          "name": "_vesting",
          "type": "address"
        },
        {
          "internalType": "uint256",
          "name": "_amount",
          "type": "uint256"
        }
      ],
      "name": "stakeTokens",
      "outputs": [],
      "payable": false,
      "stateMutability": "nonpayable",
      "type": "function"
    },
    {
      "constant": true,
      "inputs": [],
      "name": "staking",
      "outputs": [
        {
          "internalType": "address",
          "name": "",
          "type": "address"
        }
      ],
      "payable": false,
      "stateMutability": "view",
      "type": "function"
    },
    {
      "constant": false,
      "inputs": [
        {
          "internalType": "address",
          "name": "newOwner",
          "type": "address"
        }
      ],
      "name": "transferOwnership",
      "outputs": [],
      "payable": false,
      "stateMutability": "nonpayable",
      "type": "function"
    },
    {
      "constant": false,
      "inputs": [
        {
          "internalType": "address",
          "name": "_receiver",
          "type": "address"
        },
        {
          "internalType": "uint256",
          "name": "_amount",
          "type": "uint256"
        }
      ],
      "name": "transferSOV",
      "outputs": [],
      "payable": false,
      "stateMutability": "nonpayable",
      "type": "function"
    },
    {
      "constant": true,
      "inputs": [
        {
          "internalType": "address",
          "name": "",
          "type": "address"
        }
      ],
      "name": "vestingCreationAndTypes",
      "outputs": [
        {
          "internalType": "bool",
          "name": "isSet",
          "type": "bool"
        },
        {
          "internalType": "uint32",
          "name": "vestingType",
          "type": "uint32"
        },
        {
          "internalType": "uint128",
          "name": "vestingCreationType",
          "type": "uint128"
        }
      ],
      "payable": false,
      "stateMutability": "view",
      "type": "function"
    },
    {
      "constant": true,
      "inputs": [],
      "name": "vestingFactory",
      "outputs": [
        {
          "internalType": "contract IVestingFactory",
          "name": "",
          "type": "address"
        }
      ],
      "payable": false,
      "stateMutability": "view",
      "type": "function"
    },
    {
      "constant": true,
      "inputs": [],
      "name": "vestingOwner",
      "outputs": [
        {
          "internalType": "address",
          "name": "",
          "type": "address"
        }
      ],
      "payable": false,
      "stateMutability": "view",
      "type": "function"
    },
    {
      "constant": true,
      "inputs": [
        {
          "internalType": "uint256",
          "name": "",
          "type": "uint256"
        }
      ],
      "name": "vestingRegistries",
      "outputs": [
        {
          "internalType": "contract IVestingRegistry",
          "name": "",
          "type": "address"
        }
      ],
      "payable": false,
      "stateMutability": "view",
      "type": "function"
    },
    {
      "constant": true,
      "inputs": [
        {
          "internalType": "uint256",
          "name": "",
          "type": "uint256"
        }
      ],
      "name": "vestings",
      "outputs": [
        {
          "internalType": "uint256",
          "name": "vestingType",
          "type": "uint256"
        },
        {
          "internalType": "uint256",
          "name": "vestingCreationType",
          "type": "uint256"
        },
        {
          "internalType": "address",
          "name": "vestingAddress",
          "type": "address"
        }
      ],
      "payable": false,
      "stateMutability": "view",
      "type": "function"
    },
    {
      "constant": true,
      "inputs": [
        {
          "internalType": "address",
          "name": "",
          "type": "address"
        },
        {
          "internalType": "uint256",
          "name": "",
          "type": "uint256"
        }
      ],
      "name": "vestingsOf",
      "outputs": [
        {
          "internalType": "uint256",
          "name": "",
          "type": "uint256"
        }
      ],
      "payable": false,
      "stateMutability": "view",
      "type": "function"
    }
  ],
  "bytecode": {
    "object": "0x608060405260006100176001600160e01b0361007016565b6000805462010000600160b01b031916620100006001600160a01b038416908102919091178255604051929350917f8be0079c531659141344cd1fd0a4f28419497f9722a3daafe3b4186f6b6457e0908290a350610074565b3390565b613077806100836000396000f3fe608060405234801561001057600080fd5b50600436106102065760003560e01c80638da5cb5b1161011a578063c680c0b7116100ad578063efb957331161007c578063efb957331461045b578063f2f46b3b1461047b578063f2fde38b14610483578063f421ed7e14610496578063f60826ee146104a957610206565b8063c680c0b714610402578063ca210d8c14610415578063cc49ede714610428578063dfb9366d1461043b57610206565b8063bc84f9ca116100e9578063bc84f9ca146103c1578063bd7b5908146103d4578063c0e09852146103dc578063c36519d1146103ef57610206565b80638da5cb5b1461037d5780638dedf009146103855780638f32d59b146103a6578063b810c648146103ae57610206565b80634cf088d91161019d57806379a83f5a1161016c57806379a83f5a146102f357806380fcb99214610306578063821bee7314610328578063842a49d51461034a578063862e229d1461036a57610206565b80634cf088d9146102bd5780636b7dbb2d146102c557806370480275146102cd578063786931da146102e057610206565b80631f509326116101d95780631f50932614610264578063377220fd14610277578063429b62e51461028a57806342a82b4f146102aa57610206565b806302df04761461020b5780630665a06f1461023457806308dcb360146102495780631785f53c14610251575b600080fd5b61021e61021936600461243f565b6104b1565b60405161022b9190612c3a565b60405180910390f35b61024761024236600461243f565b610512565b005b61021e61056d565b61024761025f366004612311565b61057c565b6102476102723660046124a0565b6105fb565b610247610285366004612311565b61069d565b61029d610298366004612311565b6106cd565b60405161022b9190612d2f565b6102476102b836600461234d565b6106e2565b61021e610951565b61021e610960565b6102476102db366004612311565b61096f565b6102476102ee366004612515565b6109e8565b610247610301366004612405565b610cd7565b610319610314366004612311565b610e83565b60405161022b93929190612d3d565b61033b610336366004612602565b610eb8565b60405161022b93929190612edd565b61035d610358366004612602565b610ee2565b60405161022b9190612d65565b6102476103783660046124a0565b610f09565b61021e610f98565b610398610393366004612311565b610fad565b60405161022b929190612ecf565b61029d6110a1565b6102476103bc366004612515565b6110cb565b6102476103cf366004612585565b6111db565b61021e61133b565b61029d6103ea366004612311565b61134a565b61021e6103fd36600461243f565b61135f565b610247610410366004612405565b611368565b61029d610423366004612311565b6114a8565b61021e610436366004612311565b6114c6565b61044e610449366004612405565b6115e5565b60405161022b9190612ec1565b61046e610469366004612311565b611613565b60405161022b9190612d1e565b61035d61175d565b610247610491366004612311565b61176c565b61029d6104a4366004612311565b611799565b61035d6117e4565b60008060015b9050600086828787876040516020016104d4959493929190612be1565b60408051601f198184030181529181528151602092830120600090815260099092529020600201546001600160a01b0316925050505b949350505050565b61051a6110a1565b8061053457503360009081526001602052604090205460ff165b6105595760405162461bcd60e51b815260040161055090612e23565b60405180910390fd5b6105678484848460036105fb565b50505050565b6005546001600160a01b031681565b6105846110a1565b6105a05760405162461bcd60e51b815260040161055090612e23565b6001600160a01b03811660009081526001602052604090819020805460ff19169055517fa3b62bc36326052d97ea62d63c3d60308ed4c3ea8ac079dd8499f1e9c4f80c0f906105f0908390612c3a565b60405180910390a150565b6106036110a1565b8061061d57503360009081526001602052604090205460ff165b6106395760405162461bcd60e51b815260040161055090612e23565b600061064a86858560015b866117f3565b9050856001600160a01b03167fd6fcfd83804f6b6b63260c7b99eb10060bc1319dbc9177fb6defc7bd614017bf828686898760405161068d959493929190612cd2565b60405180910390a2505050505050565b6106a56110a1565b6106c15760405162461bcd60e51b815260040161055090612e23565b6106ca81611b5b565b50565b60016020526000908152604090205460ff1681565b6106ea6110a1565b6107065760405162461bcd60e51b815260040161055090612e23565b600054610100900460ff168061071f575060005460ff16155b61073b5760405162461bcd60e51b815260040161055090612e13565b600054610100900460ff16158015610766576000805460ff1961ff0019909116610100171660011790555b6001600160a01b03881661078c5760405162461bcd60e51b815260040161055090612ea3565b6001600160a01b0387166107b25760405162461bcd60e51b815260040161055090612e83565b6001600160a01b0386166107d85760405162461bcd60e51b815260040161055090612e33565b6001600160a01b0385166107fe5760405162461bcd60e51b815260040161055090612e03565b6001600160a01b0384166108245760405162461bcd60e51b815260040161055090612e73565b61082d89611b5b565b600580546001600160a01b03199081166001600160a01b038b8116919091179092556006805482168a84161790556007805482168984161790556008805482168884161790556003805490911691861691909117905560005b8281101561093357600084848381811061089c57fe5b90506020020160206108b19190810190612311565b6001600160a01b031614156108d85760405162461bcd60e51b815260040161055090612d73565b60048484838181106108e657fe5b90506020020160206108fb9190810190612311565b815460018082018455600093845260209093200180546001600160a01b0319166001600160a01b039290921691909117905501610886565b508015610946576000805461ff00191690555b505050505050505050565b6006546001600160a01b031681565b6007546001600160a01b031681565b6109776110a1565b6109935760405162461bcd60e51b815260040161055090612e23565b6001600160a01b038116600090815260016020819052604091829020805460ff19169091179055517f44d6d25963f097ad14f29f06854a01f575648a1ef82f30e562ccd3889717e339906105f0908390612c3a565b6109f06110a1565b80610a0a57503360009081526001602052604090205460ff165b610a265760405162461bcd60e51b815260040161055090612e23565b828114610a455760405162461bcd60e51b815260040161055090612d83565b60046224ea0063059fa60060005b86811015610ccd57600b6000878784818110610a6b57fe5b9050602002016020610a809190810190612311565b6001600160a01b0316815260208101919091526040016000205460ff1615610aba5760405162461bcd60e51b815260040161055090612df3565b6000888883818110610ac857fe5b9050602002016020610add9190810190612311565b6001600160a01b03161415610b045760405162461bcd60e51b815260040161055090612d93565b6000868683818110610b1257fe5b9050602002016020610b279190810190612311565b6001600160a01b03161415610b4e5760405162461bcd60e51b815260040161055090612da3565b6000888883818110610b5c57fe5b9050602002016020610b719190810190612311565b6001858588604051602001610b8a959493929190612be1565b60408051808303601f1901815282825280516020918201206060840183526001845290830188905292508101888885818110610bc257fe5b9050602002016020610bd79190810190612311565b6001600160a01b039081169091526000838152600960209081526040808320855181559185015160018301559390930151600290930180546001600160a01b03191693909216929092179055600a908a8a85818110610c3257fe5b9050602002016020610c479190810190612311565b6001600160a01b031681526020808201929092526040016000908120805460018181018355918352928220909201839055600b90898986818110610c8757fe5b9050602002016020610c9c9190810190612311565b6001600160a01b031681526020810191909152604001600020805460ff191691151591909117905550600101610a53565b5050505050505050565b610cdf6110a1565b80610cf957503360009081526001602052604090205460ff165b610d155760405162461bcd60e51b815260040161055090612e23565b6001600160a01b038216610d3b5760405162461bcd60e51b815260040161055090612de3565b60008111610d5b5760405162461bcd60e51b815260040161055090612dd3565b60055460405163095ea7b360e01b81526001600160a01b039091169063095ea7b390610d8d9085908590600401612cb0565b602060405180830381600087803b158015610da757600080fd5b505af1158015610dbb573d6000803e3d6000fd5b505050506040513d601f19601f82011682018060405250610ddf91908101906125e4565b50604051637547c7a360e01b81526001600160a01b03831690637547c7a390610e0c908490600401612ec1565b600060405180830381600087803b158015610e2657600080fd5b505af1158015610e3a573d6000803e3d6000fd5b50505050816001600160a01b03167fb539ca1e5c8d398ddf1c41c30166f33404941683be4683319b57669a93dad4ef82604051610e779190612ec1565b60405180910390a25050565b600c6020526000908152604090205460ff811690610100810463ffffffff16906501000000000090046001600160801b031683565b6009602052600090815260409020805460018201546002909201549091906001600160a01b031683565b60048181548110610eef57fe5b6000918252602090912001546001600160a01b0316905081565b610f116110a1565b80610f2b57503360009081526001602052604090205460ff165b610f475760405162461bcd60e51b815260040161055090612e23565b6000610f5586858584610644565b9050856001600160a01b03167f3791c6c90c276d011b4b885c0bfba0554342acf50a539baca1b06f070af25ff4828686898760405161068d959493929190612cd2565b6000546201000090046001600160a01b031690565b6000806000839050806001600160a01b03166313d033c06040518163ffffffff1660e01b815260040160206040518083038186803b158015610fee57600080fd5b505afa158015611002573d6000803e3d6000fd5b505050506040513d601f19601f820116820180604052506110269190810190612620565b816001600160a01b0316630fb5a6b46040518163ffffffff1660e01b815260040160206040518083038186803b15801561105f57600080fd5b505afa158015611073573d6000803e3d6000fd5b505050506040513d601f19601f820116820180604052506110979190810190612620565b9250925050915091565b600080546201000090046001600160a01b03166110bc611ba3565b6001600160a01b031614905090565b6110d36110a1565b806110ed57503360009081526001602052604090205460ff165b6111095760405162461bcd60e51b815260040161055090612e23565b60005b838110156111d457600085858381811061112257fe5b90506020020160206111379190810190612311565b6001600160a01b0316141561115e5760405162461bcd60e51b815260040161055090612d93565b600083838381811061116c57fe5b90506020020135116111905760405162461bcd60e51b815260040161055090612e43565b6111cc85858381811061119f57fe5b90506020020160206111b49190810190612311565b8484848181106111c057fe5b90506020020135611ba7565b60010161110c565b5050505050565b6111e36110a1565b806111fd57503360009081526001602052604090205460ff165b6112195760405162461bcd60e51b815260040161055090612e23565b805182511461123a5760405162461bcd60e51b815260040161055090612e63565b60005b81518110156113365761124e6120da565b82828151811061125a57fe5b60200260200101519050600084838151811061127257fe5b6020908102919091018101516001600160a01b0381166000818152600c845260409081902086518154958801518884015160ff199097169115159190911764ffffffff00191661010063ffffffff909216919091021765010000000000600160a81b031916650100000000006001600160801b039096169590950294909417845551919350917f4deb6fa84b5232023ce753128000047116f9a6795b40a3b701edf5d8e265ca34916113249190612eb3565b60405180910390a2505060010161123d565b505050565b6008546001600160a01b031681565b600b6020526000908152604090205460ff1681565b600080806104b7565b6113706110a1565b61138c5760405162461bcd60e51b815260040161055090612e23565b6001600160a01b0382166113b25760405162461bcd60e51b815260040161055090612e53565b806113cf5760405162461bcd60e51b815260040161055090612dd3565b60055460405163a9059cbb60e01b81526001600160a01b039091169063a9059cbb906114019085908590600401612cb0565b602060405180830381600087803b15801561141b57600080fd5b505af115801561142f573d6000803e3d6000fd5b505050506040513d601f19601f8201168201806040525061145391908101906125e4565b61146f5760405162461bcd60e51b815260040161055090612e93565b816001600160a01b03167fe1b0ada289bf82fb641c8c1e1c78f820fae44e8f845760725cdeb09167a289ad82604051610e779190612ec1565b6001600160a01b03166000908152600b602052604090205460ff1690565b60006115df82600360009054906101000a90046001600160a01b03166001600160a01b03166313d033c06040518163ffffffff1660e01b815260040160206040518083038186803b15801561151a57600080fd5b505afa15801561152e573d6000803e3d6000fd5b505050506040513d601f19601f820116820180604052506115529190810190612620565b600360009054906101000a90046001600160a01b03166001600160a01b0316630fb5a6b46040518163ffffffff1660e01b815260040160206040518083038186803b1580156115a057600080fd5b505afa1580156115b4573d6000803e3d6000fd5b505050506040513d601f19601f820116820180604052506115d89190810190612620565b60036104b1565b92915050565b600a60205281600052604060002081815481106115fe57fe5b90600052602060002001600091509150505481565b606080600a6000846001600160a01b03166001600160a01b0316815260200190815260200160002080548060200260200160405190810160405280929190818152602001828054801561168557602002820191906000526020600020905b815481526020019060010190808311611671575b50505050509050600081519050606082516040519080825280602002602001820160405280156116cf57816020015b6116bc6120fa565b8152602001906001900390816116b45790505b50905060005b8281101561175457600960008583815181106116ed57fe5b6020908102919091018101518252818101929092526040908101600020815160608101835281548152600182015493810193909352600201546001600160a01b031690820152825183908390811061174157fe5b60209081029190910101526001016116d5565b50949350505050565b6003546001600160a01b031681565b6117746110a1565b6117905760405162461bcd60e51b815260040161055090612e23565b6106ca8161204b565b6001600160a01b0381166000908152600c602052604081205460ff1680156115df5750506001600160a01b03166000908152600c6020526040902054610100900463ffffffff161590565b6002546001600160a01b031681565b60008060008785888887604051602001611811959493929190612be1565b60408051601f198184030181529181528151602092830120600081815260099093529120600201549091506001600160a01b0316611b355784600114156118f557600254600554600654600754604051637d2fbb8f60e11b81526001600160a01b039485169463fa5f771e9461189c9490821693908216928f928f928f929116908490600401612c48565b602060405180830381600087803b1580156118b657600080fd5b505af11580156118ca573d6000803e3d6000fd5b505050506040513d601f19601f820116820180604052506118ee919081019061232f565b91506119eb565b600260009054906101000a90046001600160a01b03166001600160a01b031663546344f0600560009054906101000a90046001600160a01b0316600660009054906101000a90046001600160a01b03168b8b8b600760009054906101000a90046001600160a01b0316600860009054906101000a90046001600160a01b03166040518863ffffffff1660e01b81526004016119969796959493929190612c48565b602060405180830381600087803b1580156119b057600080fd5b505af11580156119c4573d6000803e3d6000fd5b505050506040513d601f19601f820116820180604052506119e8919081019061232f565b91505b604080516060808201835287825260208083018881526001600160a01b038088168587018181526000898152600986528881209751885593516001808901919091559051600290970180549784166001600160a01b031990981697909717909655908e168252600a83528582208054808701825590835283832001879055808252600b8352858220805460ff1990811687179091558651948501875294845263ffffffff808c168585019081526001600160801b03808d16878a01908152848652600c909652938890209551865491519551909416650100000000000265010000000000600160a81b0319959092166101000264ffffffff00199415159190971617929092169490941791909116178155915190917f4deb6fa84b5232023ce753128000047116f9a6795b40a3b701edf5d8e265ca3491611b2c9190612eb3565b60405180910390a25b6000908152600960205260409020600201546001600160a01b0316979650505050505050565b6001600160a01b038116611b815760405162461bcd60e51b815260040161055090612dc3565b600280546001600160a01b0319166001600160a01b0392909216919091179055565b3390565b600080600183039050600060048281548110611bbf57fe5b60009182526020909120015460405163cc49ede760e01b81526001600160a01b039091169063cc49ede790611bf8908890600401612c3a565b60206040518083038186803b158015611c1057600080fd5b505afa158015611c24573d6000803e3d6000fd5b505050506040513d601f19601f82011682018060405250611c48919081019061232f565b90506001600160a01b03811615611df85780856001826001600160a01b03166313d033c06040518163ffffffff1660e01b815260040160206040518083038186803b158015611c9657600080fd5b505afa158015611caa573d6000803e3d6000fd5b505050506040513d601f19601f82011682018060405250611cce9190810190612620565b836001600160a01b0316630fb5a6b46040518163ffffffff1660e01b815260040160206040518083038186803b158015611d0757600080fd5b505afa158015611d1b573d6000803e3d6000fd5b505050506040513d601f19601f82011682018060405250611d3f9190810190612620565b88604051602001611d54959493929190612be1565b60408051601f19818403018152828252805160209182012060608401835260018085528285018a81526001600160a01b0388811687870181815260008681526009885288812099518a5593518986015551600290980180546001600160a01b031916988316989098179097558c168152600a84528481208054808401825590825284822001839055948552600b90925291909220805460ff19169092179091559350505b600060048381548110611e0757fe5b60009182526020909120015460405163c810a3e360e01b81526001600160a01b039091169063c810a3e390611e40908990600401612c3a565b60206040518083038186803b158015611e5857600080fd5b505afa158015611e6c573d6000803e3d6000fd5b505050506040513d601f19601f82011682018060405250611e90919081019061232f565b90506001600160a01b038116156120435780866000826001600160a01b03166313d033c06040518163ffffffff1660e01b815260040160206040518083038186803b158015611ede57600080fd5b505afa158015611ef2573d6000803e3d6000fd5b505050506040513d601f19601f82011682018060405250611f169190810190612620565b836001600160a01b0316630fb5a6b46040518163ffffffff1660e01b815260040160206040518083038186803b158015611f4f57600080fd5b505afa158015611f63573d6000803e3d6000fd5b505050506040513d601f19601f82011682018060405250611f879190810190612620565b89604051602001611f9c959493929190612be1565b60408051601f19818403018152828252805160209182012060608401835260008085528285018b81526001600160a01b03888116878701818152858552600987528785209851895592516001808a01919091559251600290980180546001600160a01b031916988316989098179097558d168252600a84528482208054808301825590835284832001839055948152600b909252919020805460ff19169092179091559450505b505050505050565b6001600160a01b0381166120715760405162461bcd60e51b815260040161055090612db3565b600080546040516001600160a01b03808516936201000090930416917f8be0079c531659141344cd1fd0a4f28419497f9722a3daafe3b4186f6b6457e091a3600080546001600160a01b03909216620100000262010000600160b01b0319909216919091179055565b604080516060810182526000808252602082018190529181019190915290565b6040518060600160405280600081526020016000815260200160006001600160a01b031681525090565b80356115df81612ffc565b80516115df81612ffc565b60008083601f84011261214c57600080fd5b50813567ffffffffffffffff81111561216457600080fd5b60208301915083602082028301111561217c57600080fd5b9250929050565b600082601f83011261219457600080fd5b81356121a76121a282612f2c565b612f05565b915081818352602084019350602081019050838560208402820111156121cc57600080fd5b60005b838110156121f857816121e28882612124565b84525060209283019291909101906001016121cf565b5050505092915050565b600082601f83011261221357600080fd5b81356122216121a282612f2c565b9150818183526020840193506020810190508385606084028201111561224657600080fd5b60005b838110156121f8578161225c888261228a565b84525060209092019160609190910190600101612249565b80356115df81613010565b80516115df81613010565b60006060828403121561229c57600080fd5b6122a66060612f05565b905060006122b48484612274565b82525060206122c584848301612306565b60208301525060406122d9848285016122e5565b60408301525092915050565b80356115df81613019565b80356115df81613022565b80516115df81613022565b80356115df8161302b565b60006020828403121561232357600080fd5b600061050a8484612124565b60006020828403121561234157600080fd5b600061050a848461212f565b60008060008060008060008060e0898b03121561236957600080fd5b60006123758b8b612124565b98505060206123868b828c01612124565b97505060406123978b828c01612124565b96505060606123a88b828c01612124565b95505060806123b98b828c01612124565b94505060a06123ca8b828c01612124565b93505060c089013567ffffffffffffffff8111156123e757600080fd5b6123f38b828c0161213a565b92509250509295985092959890939650565b6000806040838503121561241857600080fd5b60006124248585612124565b9250506020612435858286016122f0565b9150509250929050565b6000806000806080858703121561245557600080fd5b60006124618787612124565b9450506020612472878288016122f0565b9350506040612483878288016122f0565b9250506060612494878288016122f0565b91505092959194509250565b600080600080600060a086880312156124b857600080fd5b60006124c48888612124565b95505060206124d5888289016122f0565b94505060406124e6888289016122f0565b93505060606124f7888289016122f0565b9250506080612508888289016122f0565b9150509295509295909350565b6000806000806040858703121561252b57600080fd5b843567ffffffffffffffff81111561254257600080fd5b61254e8782880161213a565b9450945050602085013567ffffffffffffffff81111561256d57600080fd5b6125798782880161213a565b95989497509550505050565b6000806040838503121561259857600080fd5b823567ffffffffffffffff8111156125af57600080fd5b6125bb85828601612183565b925050602083013567ffffffffffffffff8111156125d857600080fd5b61243585828601612202565b6000602082840312156125f657600080fd5b600061050a848461227f565b60006020828403121561261457600080fd5b600061050a84846122f0565b60006020828403121561263257600080fd5b600061050a84846122fb565b600061264a8383612b7e565b505060600190565b61265b81612f7b565b82525050565b61265b61266d82612f7b565b612fde565b600061267d82612f53565b6126878185612f57565b935061269283612f4d565b8060005b838110156126c05781516126aa888261263e565b97506126b583612f4d565b925050600101612696565b509495945050505050565b61265b81612f86565b61265b81612f9a565b60006126ea602083612f57565b7f56657374696e67207265676973747279206164647265737320696e76616c6964815260200192915050565b6000612723600f83612f57565b6e0c2e4e4c2f2e640dad2e6dac2e8c6d608b1b815260200192915050565b600061274e601f83612f57565b7f746f6b656e206f776e65722063616e6e6f742062652030206164647265737300815260200192915050565b6000612787601b83612f57565b7f76657374696e672063616e6e6f74206265203020616464726573730000000000815260200192915050565b60006127c0602683612f57565b7f4f776e61626c653a206e6577206f776e657220697320746865207a65726f206181526564647265737360d01b602082015260400192915050565b6000612808601e83612f57565b7f76657374696e67466163746f7279206164647265737320696e76616c69640000815260200192915050565b6000612841600e83612f57565b6d185b5bdd5b9d081a5b9d985b1a5960921b815260200192915050565b600061286b601783612f57565b7f76657374696e67206164647265737320696e76616c6964000000000000000000815260200192915050565b60006128a4600e83612f57565b6d76657374696e672065786973747360901b815260200192915050565b60006128ce601c83612f57565b7f76657374696e674f776e6572206164647265737320696e76616c696400000000815260200192915050565b6000612907602e83612f57565b7f496e697469616c697a61626c653a20636f6e747261637420697320616c72656181526d191e481a5b9a5d1a585b1a5e995960921b602082015260400192915050565b6000612957600c83612f57565b6b1d5b985d5d1a1bdc9a5e995960a21b815260200192915050565b600061297f602383612f57565b7f66656553686172696e67436f6c6c6563746f72206164647265737320696e76618152621b1a5960ea1b602082015260400192915050565b60006129c4602c83612f57565b7f76657374696e67206372656174696f6e2074797065206d75737420626520677281526b06561746572207468616e20360a41b602082015260400192915050565b6000612a12601883612f57565b7f7265636569766572206164647265737320696e76616c69640000000000000000815260200192915050565b6000612a4b601083612f57565b6f0aadcdac2e8c6d0cac840d8cadccee8d60831b815260200192915050565b6000612a77601983612f57565b7f4c6f636b6564534f56206164647265737320696e76616c696400000000000000815260200192915050565b6000612ab0601783612f57565b7f7374616b696e67206164647265737320696e76616c6964000000000000000000815260200192915050565b6000612ae9600f83612f57565b6e1d1c985b9cd9995c8819985a5b1959608a1b815260200192915050565b6000612b14601383612f57565b7214d3d5881859191c995cdcc81a5b9d985b1a59606a1b815260200192915050565b80546060830190612b4681612fa5565b612b5085826126cb565b50612b5a81612fb8565b612b676020860182612bd8565b50612b7181612fcb565b6111d46040860182612bb5565b80516060830190612b8f8482612bbe565b506020820151612ba26020850182612bbe565b5060408201516105676040850182612652565b61265b81612f66565b61265b81612f97565b61265b612bd382612f97565b612f97565b61265b81612f72565b6000612bed8288612661565b601482019150612bfd8287612bc7565b602082019150612c0d8286612bc7565b602082019150612c1d8285612bc7565b602082019150612c2d8284612bc7565b5060200195945050505050565b602081016115df8284612652565b60e08101612c56828a612652565b612c636020830189612652565b612c706040830188612652565b612c7d6060830187612bbe565b612c8a6080830186612bbe565b612c9760a0830185612652565b612ca460c0830184612652565b98975050505050505050565b60408101612cbe8285612652565b612ccb6020830184612bbe565b9392505050565b60a08101612ce08288612652565b612ced6020830187612bbe565b612cfa6040830186612bbe565b612d076060830185612bbe565b612d146080830184612bbe565b9695505050505050565b60208082528101612ccb8184612672565b602081016115df82846126cb565b60608101612d4b82866126cb565b612d586020830185612bd8565b61050a6040830184612bb5565b602081016115df82846126d4565b602080825281016115df816126dd565b602080825281016115df81612716565b602080825281016115df81612741565b602080825281016115df8161277a565b602080825281016115df816127b3565b602080825281016115df816127fb565b602080825281016115df81612834565b602080825281016115df8161285e565b602080825281016115df81612897565b602080825281016115df816128c1565b602080825281016115df816128fa565b602080825281016115df8161294a565b602080825281016115df81612972565b602080825281016115df816129b7565b602080825281016115df81612a05565b602080825281016115df81612a3e565b602080825281016115df81612a6a565b602080825281016115df81612aa3565b602080825281016115df81612adc565b602080825281016115df81612b07565b606081016115df8284612b36565b602081016115df8284612bbe565b60408101612cbe8285612bbe565b60608101612eeb8286612bbe565b612ef86020830185612bbe565b61050a6040830184612652565b60405181810167ffffffffffffffff81118282101715612f2457600080fd5b604052919050565b600067ffffffffffffffff821115612f4357600080fd5b5060209081020190565b60200190565b5190565b90815260200190565b60ff1690565b6001600160801b031690565b63ffffffff1690565b60006115df82612f8b565b151590565b6001600160a01b031690565b90565b60006115df82612f7b565b60006115df612fb383612f97565b612f60565b60006115df612fc683612ff6565b612f72565b60006115df612fd983612ff0565b612f66565b60006115df8260006115df8260601b90565b60281c90565b60081c90565b61300581612f7b565b81146106ca57600080fd5b61300581612f86565b61300581612f66565b61300581612f97565b61300581612f7256fea365627a7a72315820635b6d5cae29647b73430a684de8139f7e32c76fe60952ee46e78960667562106c6578706572696d656e74616cf564736f6c63430005110040",
    "linkReferences": {}
  },
  "methodIdentifiers": {
    "SOV()": "08dcb360",
    "addAdmin(address)": "70480275",
    "addDeployedVestings(address[],uint256[])": "b810c648",
    "addFourYearVestings(address[],address[])": "786931da",
    "admins(address)": "429b62e5",
    "createTeamVesting(address,uint256,uint256,uint256,uint256)": "862e229d",
    "createVesting(address,uint256,uint256,uint256)": "0665a06f",
    "createVestingAddr(address,uint256,uint256,uint256,uint256)": "1f509326",
    "feeSharingCollector()": "6b7dbb2d",
    "getTeamVesting(address,uint256,uint256,uint256)": "c36519d1",
    "getVesting(address)": "cc49ede7",
    "getVestingAddr(address,uint256,uint256,uint256)": "02df0476",
    "getVestingDetails(address)": "8dedf009",
    "getVestingsOf(address)": "efb95733",
    "initialize(address,address,address,address,address,address,address[])": "42a82b4f",
    "isOwner()": "8f32d59b",
    "isTeamVesting(address)": "f421ed7e",
    "isVesting(address)": "c0e09852",
    "isVestingAddress(address)": "ca210d8c",
    "lockedSOV()": "f2f46b3b",
    "owner()": "8da5cb5b",
    "registerVestingToVestingCreationAndTypes(address[],(bool,uint32,uint128)[])": "bc84f9ca",
    "removeAdmin(address)": "1785f53c",
    "setVestingFactory(address)": "377220fd",
    "stakeTokens(address,uint256)": "79a83f5a",
    "staking()": "4cf088d9",
    "transferOwnership(address)": "f2fde38b",
    "transferSOV(address,uint256)": "c680c0b7",
    "vestingCreationAndTypes(address)": "80fcb992",
    "vestingFactory()": "f60826ee",
    "vestingOwner()": "bd7b5908",
    "vestingRegistries(uint256)": "842a49d5",
    "vestings(uint256)": "821bee73",
    "vestingsOf(address,uint256)": "dfb9366d"
  },
  "id": 94
}