{
  "abi": [
    {
      "inputs": [
        {
          "internalType": "address",
          "name": "_logic",
          "type": "address"
        },
        {
          "internalType": "address",
          "name": "_SOV",
          "type": "address"
        },
        {
          "internalType": "address",
          "name": "_stakingAddress",
          "type": "address"
        },
        {
          "internalType": "address",
          "name": "_tokenOwner",
          "type": "address"
        },
        {
          "internalType": "uint256",
          "name": "_cliff",
          "type": "uint256"
        },
        {
          "internalType": "uint256",
          "name": "_duration",
          "type": "uint256"
        },
        {
          "internalType": "address",
          "name": "_feeSharingCollector",
          "type": "address"
        }
      ],
      "payable": false,
      "stateMutability": "nonpayable",
      "type": "constructor"
    },
    {
      "anonymous": false,
      "inputs": [
        {
          "indexed": true,
          "internalType": "address",
          "name": "_oldImplementation",
          "type": "address"
        },
        {
          "indexed": true,
          "internalType": "address",
          "name": "_newImplementation",
          "type": "address"
        }
      ],
      "name": "ImplementationChanged",
      "type": "event"
    },
    {
      "anonymous": false,
      "inputs": [
        {
          "indexed": true,
          "internalType": "address",
          "name": "_oldOwner",
          "type": "address"
        },
        {
          "indexed": true,
          "internalType": "address",
          "name": "_newOwner",
          "type": "address"
        }
      ],
      "name": "OwnershipTransferred",
      "type": "event"
    },
    {
      "payable": true,
      "stateMutability": "payable",
      "type": "fallback"
    },
    {
      "constant": true,
      "inputs": [],
      "name": "SOV",
      "outputs": [
        {
          "internalType": "contract IERC20",
          "name": "",
          "type": "address"
        }
      ],
      "payable": false,
      "stateMutability": "view",
      "type": "function"
    },
    {
      "constant": true,
      "inputs": [],
      "name": "cliff",
      "outputs": [
        {
          "internalType": "uint256",
          "name": "",
          "type": "uint256"
        }
      ],
      "payable": false,
      "stateMutability": "view",
      "type": "function"
    },
    {
      "constant": true,
      "inputs": [],
      "name": "duration",
      "outputs": [
        {
          "internalType": "uint256",
          "name": "",
          "type": "uint256"
        }
      ],
      "payable": false,
      "stateMutability": "view",
      "type": "function"
    },
    {
      "constant": true,
      "inputs": [],
      "name": "endDate",
      "outputs": [
        {
          "internalType": "uint256",
          "name": "",
          "type": "uint256"
        }
      ],
      "payable": false,
      "stateMutability": "view",
      "type": "function"
    },
    {
      "constant": true,
      "inputs": [],
      "name": "feeSharingCollector",
      "outputs": [
        {
          "internalType": "contract IFeeSharingCollector",
          "name": "",
          "type": "address"
        }
      ],
      "payable": false,
      "stateMutability": "view",
      "type": "function"
    },
    {
      "constant": true,
      "inputs": [],
      "name": "getImplementation",
      "outputs": [
        {
          "internalType": "address",
          "name": "_implementation",
          "type": "address"
        }
      ],
      "payable": false,
      "stateMutability": "view",
      "type": "function"
    },
    {
      "constant": true,
      "inputs": [],
      "name": "getProxyOwner",
      "outputs": [
        {
          "internalType": "address",
          "name": "_owner",
          "type": "address"
        }
      ],
      "payable": false,
      "stateMutability": "view",
      "type": "function"
    },
    {
      "constant": true,
      "inputs": [],
      "name": "isOwner",
      "outputs": [
        {
          "internalType": "bool",
          "name": "",
          "type": "bool"
        }
      ],
      "payable": false,
      "stateMutability": "view",
      "type": "function"
    },
    {
      "constant": true,
      "inputs": [],
      "name": "owner",
      "outputs": [
        {
          "internalType": "address",
          "name": "",
          "type": "address"
        }
      ],
      "payable": false,
      "stateMutability": "view",
      "type": "function"
    },
    {
      "constant": true,
      "inputs": [],
      "name": "staking",
      "outputs": [
        {
          "internalType": "contract IStaking",
          "name": "",
          "type": "address"
        }
      ],
      "payable": false,
      "stateMutability": "view",
      "type": "function"
    },
    {
      "constant": true,
      "inputs": [],
      "name": "startDate",
      "outputs": [
        {
          "internalType": "uint256",
          "name": "",
          "type": "uint256"
        }
      ],
      "payable": false,
      "stateMutability": "view",
      "type": "function"
    },
    {
      "constant": true,
      "inputs": [],
      "name": "tokenOwner",
      "outputs": [
        {
          "internalType": "address",
          "name": "",
          "type": "address"
        }
      ],
      "payable": false,
      "stateMutability": "view",
      "type": "function"
    },
    {
      "constant": false,
      "inputs": [
        {
          "internalType": "address",
          "name": "newOwner",
          "type": "address"
        }
      ],
      "name": "transferOwnership",
      "outputs": [],
      "payable": false,
      "stateMutability": "nonpayable",
      "type": "function"
    }
  ],
  "bytecode": {
    "object": "0x60806040523480156200001157600080fd5b5060405162000ed538038062000ed58339810160408190526200003491620003ef565b6000620000496001600160e01b036200028416565b600080546001600160a01b0319166001600160a01b03831690811782556040519293509160008051602062000eb5833981519152908290a35062000096336001600160e01b036200028816565b6001600160a01b038616620000c85760405162461bcd60e51b8152600401620000bf90620007e8565b60405180910390fd5b6001600160a01b038516620000f15760405162461bcd60e51b8152600401620000bf90620007d6565b6001600160a01b0384166200011a5760405162461bcd60e51b8152600401620000bf906200078e565b828210156200013d5760405162461bcd60e51b8152600401620000bf906200077c565b6001600160a01b038116620001665760405162461bcd60e51b8152600401620000bf90620007b2565b6200017a876001600160e01b036200031216565b600180546001600160a01b038089166001600160a01b0319928316179092556002805488841692169190911790819055604080516358b925a360e11b81529051919092169163b1724b46916004808301926020929190829003018186803b158015620001e557600080fd5b505afa158015620001fa573d6000803e3d6000fd5b505050506040513d601f19601f820116820180604052506200022091908101906200049a565b821115620002425760405162461bcd60e51b8152600401620000bf906200076a565b600380546001600160a01b039586166001600160a01b031991821617909155600593909355600691909155600480549190931691161790555062000842915050565b3390565b6001600160a01b038116620002b15760405162461bcd60e51b8152600401620000bf90620007c4565b6001600160a01b038116620002ce6001600160e01b036200039d16565b6001600160a01b031660008051602062000eb583398151915260405160405180910390a3600060405162000302906200075d565b6040519081900390209190915550565b6001600160a01b0381166200033b5760405162461bcd60e51b8152600401620000bf90620007a0565b6001600160a01b038116620003586001600160e01b03620003be16565b6001600160a01b03167fcfbf4028add9318bbf716f08c348595afb063b0e9feed1f86d33681a4b3ed4d360405160405180910390a36000604051620003029062000750565b600080604051620003ae906200075d565b6040519081900390205492915050565b600080604051620003ae9062000750565b8051620003dc816200081d565b92915050565b8051620003dc8162000837565b600080600080600080600060e0888a0312156200040b57600080fd5b6000620004198a8a620003cf565b97505060206200042c8a828b01620003cf565b96505060406200043f8a828b01620003cf565b9550506060620004528a828b01620003cf565b9450506080620004658a828b01620003e2565b93505060a0620004788a828b01620003e2565b92505060c06200048b8a828b01620003cf565b91505092959891949750929550565b600060208284031215620004ad57600080fd5b6000620004bb8484620003e2565b949350505050565b6000620004d2602883620007fa565b7f6475726174696f6e206d6179206e6f742065786365656420746865206d617820815267323ab930ba34b7b760c11b602082015260400192915050565b60006200051e603283620007fa565b7f6475726174696f6e206d75737420626520626967676572207468616e206f722081527132b8bab0b6103a37903a34329031b634b33360711b602082015260400192915050565b600062000574601b83620007fa565b7f746f6b656e206f776e6572206164647265737320696e76616c69640000000000815260200192915050565b6000620005af602983620007fa565b7f50726f78793a3a736574496d706c656d656e746174696f6e3a20696e76616c6981526864206164647265737360b81b602082015260400192915050565b6000620005fc60128362000803565b7135b2bc9734b6b83632b6b2b73a30ba34b7b760711b815260120192915050565b60006200062c602383620007fa565b7f66656553686172696e67436f6c6c6563746f72206164647265737320696e76618152621b1a5960ea1b602082015260400192915050565b600062000673600f8362000803565b6e35b2bc97383937bc3c9737bbb732b960891b8152600f0192915050565b6000620006a0602583620007fa565b7f50726f78793a3a73657450726f78794f776e65723a20696e76616c6964206164815264647265737360d81b602082015260400192915050565b6000620006e9601783620007fa565b7f7374616b696e67206164647265737320696e76616c6964000000000000000000815260200192915050565b600062000724601383620007fa565b7f534f56206164647265737320696e76616c696400000000000000000000000000815260200192915050565b6000620003dc82620005ed565b6000620003dc8262000664565b60208082528101620003dc81620004c3565b60208082528101620003dc816200050f565b60208082528101620003dc8162000565565b60208082528101620003dc81620005a0565b60208082528101620003dc816200061d565b60208082528101620003dc8162000691565b60208082528101620003dc81620006da565b60208082528101620003dc8162000715565b90815260200190565b919050565b60006001600160a01b038216620003dc565b90565b620008288162000808565b81146200083457600080fd5b50565b62000828816200081a565b61066380620008526000396000f3fe6080604052600436106100c25760003560e01c80636b7dbb2d1161007f578063a3e6761011610059578063a3e676101461021c578063aaf10f4214610231578063c24a0f8b14610246578063f2fde38b1461025b576100c2565b80636b7dbb2d146101d05780638da5cb5b146101e55780638f32d59b146101fa576100c2565b806308dcb360146101225780630b97bc861461014d5780630fb5a6b41461016f57806313d033c0146101845780631ab7710d146101995780634cf088d9146101bb575b60006100cc61027d565b90506001600160a01b0381166100fd5760405162461bcd60e51b81526004016100f4906105b6565b60405180910390fd5b60405136600082376000803683855af43d806000843e81801561011e578184f35b8184fd5b34801561012e57600080fd5b5061013761029c565b6040516101449190610588565b60405180910390f35b34801561015957600080fd5b506101626102ab565b60405161014491906105c6565b34801561017b57600080fd5b506101626102b1565b34801561019057600080fd5b506101626102b7565b3480156101a557600080fd5b506101ae6102bd565b604051610144919061056c565b3480156101c757600080fd5b506101376102cc565b3480156101dc57600080fd5b506101376102db565b3480156101f157600080fd5b506101ae6102ea565b34801561020657600080fd5b5061020f6102f9565b604051610144919061057a565b34801561022857600080fd5b506101ae61031d565b34801561023d57600080fd5b506101ae61027d565b34801561025257600080fd5b5061016261032c565b34801561026757600080fd5b5061027b6102763660046103f8565b610332565b005b60008060405161028c90610556565b6040519081900390205492915050565b6001546001600160a01b031681565b60075481565b60065481565b60055481565b60008060405161028c90610561565b6002546001600160a01b031681565b6004546001600160a01b031681565b6000546001600160a01b031690565b600080546001600160a01b031661030e610362565b6001600160a01b031614905090565b6003546001600160a01b031681565b60085481565b61033a6102f9565b6103565760405162461bcd60e51b81526004016100f4906105a6565b61035f81610366565b50565b3390565b6001600160a01b03811661038c5760405162461bcd60e51b81526004016100f490610596565b600080546040516001600160a01b03808516939216917f8be0079c531659141344cd1fd0a4f28419497f9722a3daafe3b4186f6b6457e091a3600080546001600160a01b0319166001600160a01b0392909216919091179055565b80356103f28161060c565b92915050565b60006020828403121561040a57600080fd5b600061041684846103e7565b949350505050565b610427816105e2565b82525050565b610427816105ed565b61042781610601565b600061044c6026836105d4565b7f4f776e61626c653a206e6577206f776e657220697320746865207a65726f206181526564647265737360d01b602082015260400192915050565b6000610494600c836105d4565b6b1d5b985d5d1a1bdc9a5e995960a21b815260200192915050565b60006104bc6012836105dd565b7135b2bc9734b6b83632b6b2b73a30ba34b7b760711b815260120192915050565b60006104ea600f836105dd565b6e35b2bc97383937bc3c9737bbb732b960891b8152600f0192915050565b60006105156023836105d4565b7f50726f78793a3a28293a20696d706c656d656e746174696f6e206e6f7420666f8152621d5b9960ea1b602082015260400192915050565b610427816105fe565b60006103f2826104af565b60006103f2826104dd565b602081016103f2828461041e565b602081016103f2828461042d565b602081016103f28284610436565b602080825281016103f28161043f565b602080825281016103f281610487565b602080825281016103f281610508565b602081016103f2828461054d565b90815260200190565b919050565b60006103f2826105f2565b151590565b6001600160a01b031690565b90565b60006103f2826105e2565b610615816105e2565b811461035f57600080fdfea365627a7a72315820cb79e2b11339a737c61a650452ebf9116f2083b2a4ccb63a936d756326d9c9226c6578706572696d656e74616cf564736f6c634300051100408be0079c531659141344cd1fd0a4f28419497f9722a3daafe3b4186f6b6457e0",
    "linkReferences": {}
  },
  "methodIdentifiers": {
    "SOV()": "08dcb360",
    "cliff()": "13d033c0",
    "duration()": "0fb5a6b4",
    "endDate()": "c24a0f8b",
    "feeSharingCollector()": "6b7dbb2d",
    "getImplementation()": "aaf10f42",
    "getProxyOwner()": "1ab7710d",
    "isOwner()": "8f32d59b",
    "owner()": "8da5cb5b",
    "staking()": "4cf088d9",
    "startDate()": "0b97bc86",
    "tokenOwner()": "a3e67610",
    "transferOwnership(address)": "f2fde38b"
  },
  "id": 85
}