{
    "_format": "hh-sol-artifact-1",
    "contractName": "ConverterRegistry",
    "sourceName": "external-artifacts/ConverterRegistry.sol",
    "abi": [
        {
            "constant": false,
            "inputs": [
                {
                    "name": "_onlyOwnerCanUpdateRegistry",
                    "type": "bool"
                }
            ],
            "name": "restrictRegistryUpdate",
            "outputs": [],
            "payable": false,
            "stateMutability": "nonpayable",
            "type": "function"
        },
        {
            "constant": true,
            "inputs": [],
            "name": "getSmartTokens",
            "outputs": [
                {
                    "name": "",
                    "type": "address[]"
                }
            ],
            "payable": false,
            "stateMutability": "view",
            "type": "function"
        },
        {
            "constant": true,
            "inputs": [
                {
                    "name": "_convertibleToken",
                    "type": "address"
                }
            ],
            "name": "getConvertibleTokenAnchors",
            "outputs": [
                {
                    "name": "",
                    "type": "address[]"
                }
            ],
            "payable": false,
            "stateMutability": "view",
            "type": "function"
        },
        {
            "constant": true,
            "inputs": [
                {
                    "name": "_type",
                    "type": "uint16"
                },
                {
                    "name": "_reserveTokens",
                    "type": "address[]"
                },
                {
                    "name": "_reserveWeights",
                    "type": "uint32[]"
                }
            ],
            "name": "getLiquidityPoolByConfig",
            "outputs": [
                {
                    "name": "",
                    "type": "address"
                }
            ],
            "payable": false,
            "stateMutability": "view",
            "type": "function"
        },
        {
            "constant": true,
            "inputs": [
                {
                    "name": "_smartTokens",
                    "type": "address[]"
                }
            ],
            "name": "getConvertersBySmartTokens",
            "outputs": [
                {
                    "name": "",
                    "type": "address[]"
                }
            ],
            "payable": false,
            "stateMutability": "view",
            "type": "function"
        },
        {
            "constant": false,
            "inputs": [
                {
                    "name": "_type",
                    "type": "uint16"
                },
                {
                    "name": "_reserveTokens",
                    "type": "address[]"
                },
                {
                    "name": "_reserveWeights",
                    "type": "uint32[]"
                },
                {
                    "name": "_converter",
                    "type": "address"
                }
            ],
            "name": "setupConverter",
            "outputs": [
                {
                    "name": "",
                    "type": "address"
                }
            ],
            "payable": false,
            "stateMutability": "nonpayable",
            "type": "function"
        },
        {
            "constant": true,
            "inputs": [],
            "name": "onlyOwnerCanUpdateRegistry",
            "outputs": [
                {
                    "name": "",
                    "type": "bool"
                }
            ],
            "payable": false,
            "stateMutability": "view",
            "type": "function"
        },
        {
            "constant": true,
            "inputs": [
                {
                    "name": "_value",
                    "type": "address"
                }
            ],
            "name": "isConvertibleToken",
            "outputs": [
                {
                    "name": "",
                    "type": "bool"
                }
            ],
            "payable": false,
            "stateMutability": "view",
            "type": "function"
        },
        {
            "constant": true,
            "inputs": [
                {
                    "name": "_value",
                    "type": "address"
                }
            ],
            "name": "isSmartToken",
            "outputs": [
                {
                    "name": "",
                    "type": "bool"
                }
            ],
            "payable": false,
            "stateMutability": "view",
            "type": "function"
        },
        {
            "constant": true,
            "inputs": [
                {
                    "name": "_convertibleToken",
                    "type": "address"
                }
            ],
            "name": "getConvertibleTokenAnchorCount",
            "outputs": [
                {
                    "name": "",
                    "type": "uint256"
                }
            ],
            "payable": false,
            "stateMutability": "view",
            "type": "function"
        },
        {
            "constant": false,
            "inputs": [],
            "name": "updateRegistry",
            "outputs": [],
            "payable": false,
            "stateMutability": "nonpayable",
            "type": "function"
        },
        {
            "constant": true,
            "inputs": [
                {
                    "name": "_index",
                    "type": "uint256"
                }
            ],
            "name": "getAnchor",
            "outputs": [
                {
                    "name": "",
                    "type": "address"
                }
            ],
            "payable": false,
            "stateMutability": "view",
            "type": "function"
        },
        {
            "constant": false,
            "inputs": [
                {
                    "name": "_type",
                    "type": "uint16"
                },
                {
                    "name": "_name",
                    "type": "string"
                },
                {
                    "name": "_symbol",
                    "type": "string"
                },
                {
                    "name": "_decimals",
                    "type": "uint8"
                },
                {
                    "name": "_maxConversionFee",
                    "type": "uint32"
                },
                {
                    "name": "_reserveTokens",
                    "type": "address[]"
                },
                {
                    "name": "_reserveWeights",
                    "type": "uint32[]"
                }
            ],
            "name": "newConverter",
            "outputs": [
                {
                    "name": "",
                    "type": "address"
                }
            ],
            "payable": false,
            "stateMutability": "nonpayable",
            "type": "function"
        },
        {
            "constant": true,
            "inputs": [],
            "name": "getConvertibleTokens",
            "outputs": [
                {
                    "name": "",
                    "type": "address[]"
                }
            ],
            "payable": false,
            "stateMutability": "view",
            "type": "function"
        },
        {
            "constant": true,
            "inputs": [
                {
                    "name": "_convertibleToken",
                    "type": "address"
                },
                {
                    "name": "_index",
                    "type": "uint256"
                }
            ],
            "name": "getConvertibleTokenAnchor",
            "outputs": [
                {
                    "name": "",
                    "type": "address"
                }
            ],
            "payable": false,
            "stateMutability": "view",
            "type": "function"
        },
        {
            "constant": true,
            "inputs": [
                {
                    "name": "_anchors",
                    "type": "address[]"
                }
            ],
            "name": "getConvertersByAnchors",
            "outputs": [
                {
                    "name": "",
                    "type": "address[]"
                }
            ],
            "payable": false,
            "stateMutability": "view",
            "type": "function"
        },
        {
            "constant": true,
            "inputs": [],
            "name": "prevRegistry",
            "outputs": [
                {
                    "name": "",
                    "type": "address"
                }
            ],
            "payable": false,
            "stateMutability": "view",
            "type": "function"
        },
        {
            "constant": true,
            "inputs": [],
            "name": "getConvertibleTokenCount",
            "outputs": [
                {
                    "name": "",
                    "type": "uint256"
                }
            ],
            "payable": false,
            "stateMutability": "view",
            "type": "function"
        },
        {
            "constant": false,
            "inputs": [
                {
                    "name": "_converter",
                    "type": "address"
                }
            ],
            "name": "addConverter",
            "outputs": [],
            "payable": false,
            "stateMutability": "nonpayable",
            "type": "function"
        },
        {
            "constant": true,
            "inputs": [
                {
                    "name": "_convertibleToken",
                    "type": "address"
                },
                {
                    "name": "_value",
                    "type": "address"
                }
            ],
            "name": "isConvertibleTokenSmartToken",
            "outputs": [
                {
                    "name": "",
                    "type": "bool"
                }
            ],
            "payable": false,
            "stateMutability": "view",
            "type": "function"
        },
        {
            "constant": false,
            "inputs": [],
            "name": "acceptOwnership",
            "outputs": [],
            "payable": false,
            "stateMutability": "nonpayable",
            "type": "function"
        },
        {
            "constant": true,
            "inputs": [],
            "name": "getLiquidityPoolCount",
            "outputs": [
                {
                    "name": "",
                    "type": "uint256"
                }
            ],
            "payable": false,
            "stateMutability": "view",
            "type": "function"
        },
        {
            "constant": true,
            "inputs": [],
            "name": "registry",
            "outputs": [
                {
                    "name": "",
                    "type": "address"
                }
            ],
            "payable": false,
            "stateMutability": "view",
            "type": "function"
        },
        {
            "constant": true,
            "inputs": [],
            "name": "getLiquidityPools",
            "outputs": [
                {
                    "name": "",
                    "type": "address[]"
                }
            ],
            "payable": false,
            "stateMutability": "view",
            "type": "function"
        },
        {
            "constant": true,
            "inputs": [
                {
                    "name": "_index",
                    "type": "uint256"
                }
            ],
            "name": "getConvertibleToken",
            "outputs": [
                {
                    "name": "",
                    "type": "address"
                }
            ],
            "payable": false,
            "stateMutability": "view",
            "type": "function"
        },
        {
            "constant": true,
            "inputs": [],
            "name": "owner",
            "outputs": [
                {
                    "name": "",
                    "type": "address"
                }
            ],
            "payable": false,
            "stateMutability": "view",
            "type": "function"
        },
        {
            "constant": true,
            "inputs": [
                {
                    "name": "_converter",
                    "type": "address"
                }
            ],
            "name": "isSimilarLiquidityPoolRegistered",
            "outputs": [
                {
                    "name": "",
                    "type": "bool"
                }
            ],
            "payable": false,
            "stateMutability": "view",
            "type": "function"
        },
        {
            "constant": true,
            "inputs": [
                {
                    "name": "_converter",
                    "type": "address"
                }
            ],
            "name": "isConverterValid",
            "outputs": [
                {
                    "name": "",
                    "type": "bool"
                }
            ],
            "payable": false,
            "stateMutability": "view",
            "type": "function"
        },
        {
            "constant": false,
            "inputs": [
                {
                    "name": "_converter",
                    "type": "address"
                }
            ],
            "name": "removeConverter",
            "outputs": [],
            "payable": false,
            "stateMutability": "nonpayable",
            "type": "function"
        },
        {
            "constant": true,
            "inputs": [
                {
                    "name": "_index",
                    "type": "uint256"
                }
            ],
            "name": "getSmartToken",
            "outputs": [
                {
                    "name": "",
                    "type": "address"
                }
            ],
            "payable": false,
            "stateMutability": "view",
            "type": "function"
        },
        {
            "constant": true,
            "inputs": [
                {
                    "name": "_convertibleToken",
                    "type": "address"
                }
            ],
            "name": "getConvertibleTokenSmartTokenCount",
            "outputs": [
                {
                    "name": "",
                    "type": "uint256"
                }
            ],
            "payable": false,
            "stateMutability": "view",
            "type": "function"
        },
        {
            "constant": true,
            "inputs": [
                {
                    "name": "_index",
                    "type": "uint256"
                }
            ],
            "name": "getLiquidityPool",
            "outputs": [
                {
                    "name": "",
                    "type": "address"
                }
            ],
            "payable": false,
            "stateMutability": "view",
            "type": "function"
        },
        {
            "constant": false,
            "inputs": [],
            "name": "restoreRegistry",
            "outputs": [],
            "payable": false,
            "stateMutability": "nonpayable",
            "type": "function"
        },
        {
            "constant": true,
            "inputs": [
                {
                    "name": "_convertibleToken",
                    "type": "address"
                },
                {
                    "name": "_value",
                    "type": "address"
                }
            ],
            "name": "isConvertibleTokenAnchor",
            "outputs": [
                {
                    "name": "",
                    "type": "bool"
                }
            ],
            "payable": false,
            "stateMutability": "view",
            "type": "function"
        },
        {
            "constant": true,
            "inputs": [
                {
                    "name": "_reserveTokens",
                    "type": "address[]"
                },
                {
                    "name": "_reserveWeights",
                    "type": "uint32[]"
                }
            ],
            "name": "getLiquidityPoolByReserveConfig",
            "outputs": [
                {
                    "name": "",
                    "type": "address"
                }
            ],
            "payable": false,
            "stateMutability": "view",
            "type": "function"
        },
        {
            "constant": true,
            "inputs": [],
            "name": "getAnchorCount",
            "outputs": [
                {
                    "name": "",
                    "type": "uint256"
                }
            ],
            "payable": false,
            "stateMutability": "view",
            "type": "function"
        },
        {
            "constant": true,
            "inputs": [],
            "name": "newOwner",
            "outputs": [
                {
                    "name": "",
                    "type": "address"
                }
            ],
            "payable": false,
            "stateMutability": "view",
            "type": "function"
        },
        {
            "constant": true,
            "inputs": [
                {
                    "name": "_convertibleToken",
                    "type": "address"
                },
                {
                    "name": "_index",
                    "type": "uint256"
                }
            ],
            "name": "getConvertibleTokenSmartToken",
            "outputs": [
                {
                    "name": "",
                    "type": "address"
                }
            ],
            "payable": false,
            "stateMutability": "view",
            "type": "function"
        },
        {
            "constant": true,
            "inputs": [
                {
                    "name": "_value",
                    "type": "address"
                }
            ],
            "name": "isAnchor",
            "outputs": [
                {
                    "name": "",
                    "type": "bool"
                }
            ],
            "payable": false,
            "stateMutability": "view",
            "type": "function"
        },
        {
            "constant": true,
            "inputs": [],
            "name": "getSmartTokenCount",
            "outputs": [
                {
                    "name": "",
                    "type": "uint256"
                }
            ],
            "payable": false,
            "stateMutability": "view",
            "type": "function"
        },
        {
            "constant": true,
            "inputs": [
                {
                    "name": "_value",
                    "type": "address"
                }
            ],
            "name": "isLiquidityPool",
            "outputs": [
                {
                    "name": "",
                    "type": "bool"
                }
            ],
            "payable": false,
            "stateMutability": "view",
            "type": "function"
        },
        {
            "constant": true,
            "inputs": [],
            "name": "getAnchors",
            "outputs": [
                {
                    "name": "",
                    "type": "address[]"
                }
            ],
            "payable": false,
            "stateMutability": "view",
            "type": "function"
        },
        {
            "constant": false,
            "inputs": [
                {
                    "name": "_newOwner",
                    "type": "address"
                }
            ],
            "name": "transferOwnership",
            "outputs": [],
            "payable": false,
            "stateMutability": "nonpayable",
            "type": "function"
        },
        {
            "constant": true,
            "inputs": [
                {
                    "name": "_convertibleToken",
                    "type": "address"
                }
            ],
            "name": "getConvertibleTokenSmartTokens",
            "outputs": [
                {
                    "name": "",
                    "type": "address[]"
                }
            ],
            "payable": false,
            "stateMutability": "view",
            "type": "function"
        },
        {
            "inputs": [
                {
                    "name": "_registry",
                    "type": "address"
                }
            ],
            "payable": false,
            "stateMutability": "nonpayable",
            "type": "constructor"
        },
        {
            "anonymous": false,
            "inputs": [
                {
                    "indexed": true,
                    "name": "_anchor",
                    "type": "address"
                }
            ],
            "name": "ConverterAnchorAdded",
            "type": "event"
        },
        {
            "anonymous": false,
            "inputs": [
                {
                    "indexed": true,
                    "name": "_anchor",
                    "type": "address"
                }
            ],
            "name": "ConverterAnchorRemoved",
            "type": "event"
        },
        {
            "anonymous": false,
            "inputs": [
                {
                    "indexed": true,
                    "name": "_liquidityPool",
                    "type": "address"
                }
            ],
            "name": "LiquidityPoolAdded",
            "type": "event"
        },
        {
            "anonymous": false,
            "inputs": [
                {
                    "indexed": true,
                    "name": "_liquidityPool",
                    "type": "address"
                }
            ],
            "name": "LiquidityPoolRemoved",
            "type": "event"
        },
        {
            "anonymous": false,
            "inputs": [
                {
                    "indexed": true,
                    "name": "_convertibleToken",
                    "type": "address"
                },
                {
                    "indexed": true,
                    "name": "_smartToken",
                    "type": "address"
                }
            ],
            "name": "ConvertibleTokenAdded",
            "type": "event"
        },
        {
            "anonymous": false,
            "inputs": [
                {
                    "indexed": true,
                    "name": "_convertibleToken",
                    "type": "address"
                },
                {
                    "indexed": true,
                    "name": "_smartToken",
                    "type": "address"
                }
            ],
            "name": "ConvertibleTokenRemoved",
            "type": "event"
        },
        {
            "anonymous": false,
            "inputs": [
                {
                    "indexed": true,
                    "name": "_smartToken",
                    "type": "address"
                }
            ],
            "name": "SmartTokenAdded",
            "type": "event"
        },
        {
            "anonymous": false,
            "inputs": [
                {
                    "indexed": true,
                    "name": "_smartToken",
                    "type": "address"
                }
            ],
            "name": "SmartTokenRemoved",
            "type": "event"
        },
        {
            "anonymous": false,
            "inputs": [
                {
                    "indexed": true,
                    "name": "_prevOwner",
                    "type": "address"
                },
                {
                    "indexed": true,
                    "name": "_newOwner",
                    "type": "address"
                }
            ],
            "name": "OwnerUpdate",
            "type": "event"
        }
    ],
    "bytecode": "0x60806040523480156200001157600080fd5b5060405160208062003573833981016040525160008054600160a060020a0319163317905580806200004c816401000000006200007e810204565b5060028054600160a060020a03909216600160a060020a031992831681179091556003805490921617905550620000f9565b600160a060020a0381161515620000f657604080517f08c379a000000000000000000000000000000000000000000000000000000000815260206004820152601360248201527f4552525f494e56414c49445f4144445245535300000000000000000000000000604482015290519081900360640190fd5b50565b61346a80620001096000396000f3006080604052600436106102005763ffffffff60e060020a600035041663024c7ec7811461020557806304ceaf411461022157806311839064146102865780631d3fccd5146102a75780631f8e26201461035a578063295d2a21146103af5780632fe8a6ad146104515780633ab8857c1461047a5780634123ef601461049b57806349c5f32b146104bc57806349d10b64146104ef5780634c7df18f146105045780635a0a66181461051c5780635f1b50fe14610646578063603f51e41461065b578063610c0b051461067f57806361cd756e146106d457806369be4784146106e95780636ce1c4dc146106fe578063725b87861461071f57806379ba5097146107465780637a5f0ffd1461075b5780637b103999146107705780637f45c4c314610785578063865cf1941461079a5780638da5cb5b146107b25780638f1d0e1a146107c7578063954254f5146107e85780639e76a00714610809578063a109d2141461082a578063a43d5e9414610842578063a74498aa14610863578063b4a176d31461087b578063b4c4197a14610890578063c22b82f0146108b7578063d3182bed14610945578063d4ee1d901461095a578063d6c4b5b21461096f578063d8cced2a14610993578063e571049b146109b4578063e85455d7146109c9578063effb3c6e146109ea578063f2fde38b146109ff578063f4fb86c014610a20575b600080fd5b34801561021157600080fd5b5061021f6004351515610a41565b005b34801561022d57600080fd5b50610236610a89565b60408051602080825283518183015283519192839290830191858101910280838360005b8381101561027257818101518382015260200161025a565b505050509050019250505060405180910390f35b34801561029257600080fd5b50610236600160a060020a0360043516610a98565b3480156102b357600080fd5b5060408051602060046024803582810135848102808701860190975280865261033e96843561ffff1696369660449591949091019291829185019084908082843750506040805187358901803560208181028481018201909552818452989b9a998901989297509082019550935083925085019084908082843750949750610b9c9650505050505050565b60408051600160a060020a039092168252519081900360200190f35b34801561036657600080fd5b506040805160206004803580820135838102808601850190965280855261023695369593946024949385019291829185019084908082843750949750610c8f9650505050505050565b3480156103bb57600080fd5b5060408051602060046024803582810135848102808701860190975280865261033e96843561ffff1696369660449591949091019291829185019084908082843750506040805187358901803560208181028481018201909552818452989b9a99890198929750908201955093508392508501908490808284375094975050509235600160a060020a03169350610ca092505050565b34801561045d57600080fd5b50610466611161565b604080519115158252519081900360200190f35b34801561048657600080fd5b50610466600160a060020a0360043516611182565b3480156104a757600080fd5b50610466600160a060020a0360043516611227565b3480156104c857600080fd5b506104dd600160a060020a0360043516611232565b60408051918252519081900360200190f35b3480156104fb57600080fd5b5061021f6112a5565b34801561051057600080fd5b5061033e600435611512565b34801561052857600080fd5b5060408051602060046024803582810135601f810185900485028601850190965285855261033e95833561ffff1695369560449491939091019190819084018382808284375050604080516020601f89358b018035918201839004830284018301909452808352979a9998810197919650918201945092508291508401838280828437505060408051818801358901803560208181028481018201909552818452989b60ff8b35169b63ffffffff8b8d0135169b919a90995060609091019750929550908201935091829185019084908082843750506040805187358901803560208181028481018201909552818452989b9a9989019892975090820195509350839250850190849080828437509497506115739650505050505050565b34801561065257600080fd5b506102366118fb565b34801561066757600080fd5b5061033e600160a060020a03600435166024356119e1565b34801561068b57600080fd5b506040805160206004803580820135838102808601850190965280855261023695369593946024949385019291829185019084908082843750949750611a8f9650505050505050565b3480156106e057600080fd5b5061033e611b85565b3480156106f557600080fd5b506104dd611b94565b34801561070a57600080fd5b5061021f600160a060020a0360043516611c1b565b34801561072b57600080fd5b50610466600160a060020a0360043581169060243516611c8e565b34801561075257600080fd5b5061021f611ca1565b34801561076757600080fd5b506104dd611d62565b34801561077c57600080fd5b5061033e611db8565b34801561079157600080fd5b50610236611dc7565b3480156107a657600080fd5b5061033e600435611e1d565b3480156107be57600080fd5b5061033e611e7e565b3480156107d357600080fd5b50610466600160a060020a0360043516611e8d565b3480156107f457600080fd5b50610466600160a060020a03600435166120d9565b34801561081557600080fd5b5061021f600160a060020a03600435166121e8565b34801561083657600080fd5b5061033e600435612254565b34801561084e57600080fd5b506104dd600160a060020a036004351661225f565b34801561086f57600080fd5b5061033e60043561226a565b34801561088757600080fd5b5061021f6122cb565b34801561089c57600080fd5b50610466600160a060020a0360043581169060243516612304565b3480156108c357600080fd5b506040805160206004803580820135838102808601850190965280855261033e95369593946024949385019291829185019084908082843750506040805187358901803560208181028481018201909552818452989b9a99890198929750908201955093508392508501908490808284375094975061238b9650505050505050565b34801561095157600080fd5b506104dd612399565b34801561096657600080fd5b5061033e6123ef565b34801561097b57600080fd5b5061033e600160a060020a03600435166024356123fe565b34801561099f57600080fd5b50610466600160a060020a036004351661240a565b3480156109c057600080fd5b506104dd61247d565b3480156109d557600080fd5b50610466600160a060020a0360043516612487565b3480156109f657600080fd5b506102366124fa565b348015610a0b57600080fd5b5061021f600160a060020a0360043516612550565b348015610a2c57600080fd5b50610236600160a060020a03600435166125ed565b610a496125f8565b60038054911515740100000000000000000000000000000000000000000274ff000000000000000000000000000000000000000019909216919091179055565b6060610a936124fa565b905090565b6060610ab160008051602061341f83398151915261264a565b600160a060020a031663f4fb86c0836040518263ffffffff1660e060020a0281526004018082600160a060020a0316600160a060020a03168152602001915050600060405180830381600087803b158015610b0b57600080fd5b505af1158015610b1f573d6000803e3d6000fd5b505050506040513d6000823e601f3d908101601f191682016040526020811015610b4857600080fd5b810190808051640100000000811115610b6057600080fd5b82016020810184811115610b7357600080fd5b8151856020820283011164010000000082111715610b9057600080fd5b50909695505050505050565b60006060600080600085518751148015610bb7575060018751115b15610c7f57610bc5876126b0565b9350600092505b8351831015610c7f578383815181101515610be357fe5b90602001906020020151915081600160a060020a0316638da5cb5b6040518163ffffffff1660e060020a028152600401602060405180830381600087803b158015610c2d57600080fd5b505af1158015610c41573d6000803e3d6000fd5b505050506040513d6020811015610c5757600080fd5b50519050610c6781898989612948565b15610c7457819450610c84565b600190920191610bcc565b600094505b505050509392505050565b6060610c9a82611a8f565b92915050565b600160a060020a038181166000908152600460205260408120549091829182918291163314610d3f576040805160e560020a62461bcd02815260206004820152603060248201527f6f6e6c7920746865206465706c6f796572206d61792066696e6973682074686560448201527f20636f6e76657274657220736574757000000000000000000000000000000000606482015290519081900360840190fd5b865186519093508314610d9c576040805160e560020a62461bcd02815260206004820152601460248201527f4552525f494e56414c49445f5245534552564553000000000000000000000000604482015290519081900360640190fd5b6000610da9898989610b9c565b600160a060020a031614610e07576040805160e560020a62461bcd02815260206004820152601260248201527f4552525f414c52454144595f4558495354530000000000000000000000000000604482015290519081900360640190fd5b84600160a060020a031663d3fb73b46040518163ffffffff1660e060020a028152600401602060405180830381600087803b158015610e4557600080fd5b505af1158015610e59573d6000803e3d6000fd5b505050506040513d6020811015610e6f57600080fd5b5051604080517f79ba50970000000000000000000000000000000000000000000000000000000081529051919350600160a060020a038416916379ba50979160048082019260009290919082900301818387803b158015610ecf57600080fd5b505af1158015610ee3573d6000803e3d6000fd5b5050505084600160a060020a03166379ba50976040518163ffffffff1660e060020a028152600401600060405180830381600087803b158015610f2557600080fd5b505af1158015610f39573d6000803e3d6000fd5b50505050600090505b8281101561100b5784600160a060020a0316636a49d2c48883815181101515610f6757fe5b906020019060200201518884815181101515610f7f57fe5b906020019060200201516040518363ffffffff1660e060020a0281526004018083600160a060020a0316600160a060020a031681526020018263ffffffff1663ffffffff16815260200192505050600060405180830381600087803b158015610fe757600080fd5b505af1158015610ffb573d6000803e3d6000fd5b505060019092019150610f429050565b81600160a060020a031663f2fde38b866040518263ffffffff1660e060020a0281526004018082600160a060020a0316600160a060020a03168152602001915050600060405180830381600087803b15801561106657600080fd5b505af115801561107a573d6000803e3d6000fd5b5050505084600160a060020a031663cdc91c696040518163ffffffff1660e060020a028152600401600060405180830381600087803b1580156110bc57600080fd5b505af11580156110d0573d6000803e3d6000fd5b5050604080517ff2fde38b0000000000000000000000000000000000000000000000000000000081523360048201529051600160a060020a038916935063f2fde38b9250602480830192600092919082900301818387803b15801561113457600080fd5b505af1158015611148573d6000803e3d6000fd5b5050505061115585612ac1565b50929695505050505050565b60035474010000000000000000000000000000000000000000900460ff1681565b600061119b60008051602061341f83398151915261264a565b600160a060020a0316633ab8857c836040518263ffffffff1660e060020a0281526004018082600160a060020a0316600160a060020a03168152602001915050602060405180830381600087803b1580156111f557600080fd5b505af1158015611209573d6000803e3d6000fd5b505050506040513d602081101561121f57600080fd5b505192915050565b6000610c9a8261240a565b600061124b60008051602061341f83398151915261264a565b600160a060020a031663a43d5e94836040518263ffffffff1660e060020a0281526004018082600160a060020a0316600160a060020a03168152602001915050602060405180830381600087803b1580156111f557600080fd5b60008054600160a060020a03163314806112da575060035474010000000000000000000000000000000000000000900460ff16155b151561131e576040805160e560020a62461bcd02815260206004820152601160248201526000805160206133ff833981519152604482015290519081900360640190fd5b6113477f436f6e747261637452656769737472790000000000000000000000000000000061264a565b600254909150600160a060020a038083169116148015906113705750600160a060020a03811615155b15156113c6576040805160e560020a62461bcd02815260206004820152601460248201527f4552525f494e56414c49445f5245474953545259000000000000000000000000604482015290519081900360640190fd5b604080517fbb34534c0000000000000000000000000000000000000000000000000000000081527f436f6e747261637452656769737472790000000000000000000000000000000060048201529051600091600160a060020a0384169163bb34534c9160248082019260209290919082900301818787803b15801561144a57600080fd5b505af115801561145e573d6000803e3d6000fd5b505050506040513d602081101561147457600080fd5b5051600160a060020a031614156114d5576040805160e560020a62461bcd02815260206004820152601460248201527f4552525f494e56414c49445f5245474953545259000000000000000000000000604482015290519081900360640190fd5b6002805460038054600160a060020a0380841673ffffffffffffffffffffffffffffffffffffffff19928316179092559091169216919091179055565b600061152b60008051602061341f83398151915261264a565b600160a060020a031663a109d214836040518263ffffffff1660e060020a02815260040180828152602001915050602060405180830381600087803b1580156111f557600080fd5b6000806000806000865193508551841415156115d9576040805160e560020a62461bcd02815260206004820152601460248201527f4552525f494e56414c49445f5245534552564553000000000000000000000000604482015290519081900360640190fd5b60006115e68d8989610b9c565b600160a060020a031614611644576040805160e560020a62461bcd02815260206004820152601260248201527f4552525f414c52454144595f4558495354530000000000000000000000000000604482015290519081900360640190fd5b61166d7f436f6e766572746572466163746f72790000000000000000000000000000000061264a565b925082600160a060020a0316632e9ab7b38d8d8d8d6040518563ffffffff1660e060020a028152600401808561ffff1661ffff16815260200180602001806020018460ff1660ff168152602001838103835286818151815260200191508051906020019080838360005b838110156116ef5781810151838201526020016116d7565b50505050905090810190601f16801561171c5780820380516001836020036101000a031916815260200191505b50838103825285518152855160209182019187019080838360005b8381101561174f578181015183820152602001611737565b50505050905090810190601f16801561177c5780820380516001836020036101000a031916815260200191505b509650505050505050602060405180830381600087803b15801561179f57600080fd5b505af11580156117b3573d6000803e3d6000fd5b505050506040513d60208110156117c957600080fd5b8101908080519060200190929190505050915082600160a060020a03166315f64b6a8d84600260009054906101000a9004600160a060020a03168c6040518563ffffffff1660e060020a028152600401808561ffff1661ffff16815260200184600160a060020a0316600160a060020a0316815260200183600160a060020a0316600160a060020a031681526020018263ffffffff1663ffffffff168152602001945050505050602060405180830381600087803b15801561188a57600080fd5b505af115801561189e573d6000803e3d6000fd5b505050506040513d60208110156118b457600080fd5b5051600160a060020a0381166000908152600460205260409020805473ffffffffffffffffffffffffffffffffffffffff1916331790559c9b505050505050505050505050565b606061191460008051602061341f83398151915261264a565b600160a060020a0316635f1b50fe6040518163ffffffff1660e060020a028152600401600060405180830381600087803b15801561195157600080fd5b505af1158015611965573d6000803e3d6000fd5b505050506040513d6000823e601f3d908101601f19168201604052602081101561198e57600080fd5b8101908080516401000000008111156119a657600080fd5b820160208101848111156119b957600080fd5b81518560208202830111640100000000821117156119d657600080fd5b509094505050505090565b60006119fa60008051602061341f83398151915261264a565b600160a060020a031663d6c4b5b284846040518363ffffffff1660e060020a0281526004018083600160a060020a0316600160a060020a0316815260200182815260200192505050602060405180830381600087803b158015611a5c57600080fd5b505af1158015611a70573d6000803e3d6000fd5b505050506040513d6020811015611a8657600080fd5b50519392505050565b60608060008351604051908082528060200260200182016040528015611abf578160200160208202803883390190505b509150600090505b8351811015611b7e578381815181101515611ade57fe5b90602001906020020151600160a060020a0316638da5cb5b6040518163ffffffff1660e060020a028152600401602060405180830381600087803b158015611b2557600080fd5b505af1158015611b39573d6000803e3d6000fd5b505050506040513d6020811015611b4f57600080fd5b50518251839083908110611b5f57fe5b600160a060020a03909216602092830290910190910152600101611ac7565b5092915050565b600354600160a060020a031681565b6000611bad60008051602061341f83398151915261264a565b600160a060020a03166369be47846040518163ffffffff1660e060020a028152600401602060405180830381600087803b158015611bea57600080fd5b505af1158015611bfe573d6000803e3d6000fd5b505050506040513d6020811015611c1457600080fd5b5051905090565b611c236125f8565b611c2c816120d9565b1515611c82576040805160e560020a62461bcd02815260206004820152601560248201527f4552525f494e56414c49445f434f4e5645525445520000000000000000000000604482015290519081900360640190fd5b611c8b81612ac1565b50565b6000611c9a8383612304565b9392505050565b600154600160a060020a03163314611cf1576040805160e560020a62461bcd02815260206004820152601160248201526000805160206133ff833981519152604482015290519081900360640190fd5b60015460008054604051600160a060020a0393841693909116917f343765429aea5a34b3ff6a3785a98a5abb2597aca87bfbb58632c173d585373a91a3600180546000805473ffffffffffffffffffffffffffffffffffffffff19908116600160a060020a03841617909155169055565b6000611d7b60008051602061341f83398151915261264a565b600160a060020a0316637a5f0ffd6040518163ffffffff1660e060020a028152600401602060405180830381600087803b158015611bea57600080fd5b600254600160a060020a031681565b6060611de060008051602061341f83398151915261264a565b600160a060020a0316637f45c4c36040518163ffffffff1660e060020a028152600401600060405180830381600087803b15801561195157600080fd5b6000611e3660008051602061341f83398151915261264a565b600160a060020a031663865cf194836040518263ffffffff1660e060020a02815260040180828152602001915050602060405180830381600087803b1580156111f557600080fd5b600054600160a060020a031681565b60008060608060008086600160a060020a03166371f52bf36040518163ffffffff1660e060020a028152600401602060405180830381600087803b158015611ed457600080fd5b505af1158015611ee8573d6000803e3d6000fd5b505050506040513d6020811015611efe57600080fd5b50516040805161ffff90921680835260208181028401019091529550858015611f31578160200160208202803883390190505b50935084604051908082528060200260200182016040528015611f5e578160200160208202803883390190505b509250600091505b848210156120445786600160a060020a03166319b64015836040518263ffffffff1660e060020a02815260040180828152602001915050602060405180830381600087803b158015611fb757600080fd5b505af1158015611fcb573d6000803e3d6000fd5b505050506040513d6020811015611fe157600080fd5b505184519091508190859084908110611ff657fe5b600160a060020a039092166020928302909101909101526120178782612ca2565b838381518110151561202557fe5b63ffffffff909216602092830290910190910152600190910190611f66565b6000600160a060020a03166120c388600160a060020a0316633e8ff43f6040518163ffffffff1660e060020a028152600401602060405180830381600087803b15801561209057600080fd5b505af11580156120a4573d6000803e3d6000fd5b505050506040513d60208110156120ba57600080fd5b50518686610b9c565b600160a060020a03161415979650505050505050565b600081600160a060020a031682600160a060020a031663fc0c546a6040518163ffffffff1660e060020a028152600401602060405180830381600087803b15801561212357600080fd5b505af1158015612137573d6000803e3d6000fd5b505050506040513d602081101561214d57600080fd5b5051604080517f8da5cb5b0000000000000000000000000000000000000000000000000000000081529051600160a060020a0390921691638da5cb5b916004808201926020929091908290030181600087803b1580156121ac57600080fd5b505af11580156121c0573d6000803e3d6000fd5b505050506040513d60208110156121d657600080fd5b5051600160a060020a03161492915050565b600054600160a060020a03163314806122075750612205816120d9565b155b151561224b576040805160e560020a62461bcd02815260206004820152601160248201526000805160206133ff833981519152604482015290519081900360640190fd5b611c8b81612d73565b6000610c9a82611512565b6000610c9a82611232565b600061228360008051602061341f83398151915261264a565b600160a060020a031663a74498aa836040518263ffffffff1660e060020a02815260040180828152602001915050602060405180830381600087803b1580156111f557600080fd5b6122d36125f8565b6003546002805473ffffffffffffffffffffffffffffffffffffffff1916600160a060020a03909216919091179055565b600061231d60008051602061341f83398151915261264a565b604080517f725b8786000000000000000000000000000000000000000000000000000000008152600160a060020a03868116600483015285811660248301529151929091169163725b8786916044808201926020929091908290030181600087803b158015611a5c57600080fd5b6000611c9a60018484610b9c565b60006123b260008051602061341f83398151915261264a565b600160a060020a031663e571049b6040518163ffffffff1660e060020a028152600401602060405180830381600087803b158015611bea57600080fd5b600154600160a060020a031681565b6000611c9a83836119e1565b600061242360008051602061341f83398151915261264a565b600160a060020a0316634123ef60836040518263ffffffff1660e060020a0281526004018082600160a060020a0316600160a060020a03168152602001915050602060405180830381600087803b1580156111f557600080fd5b6000610a93612399565b60006124a060008051602061341f83398151915261264a565b600160a060020a031663e85455d7836040518263ffffffff1660e060020a0281526004018082600160a060020a0316600160a060020a03168152602001915050602060405180830381600087803b1580156111f557600080fd5b606061251360008051602061341f83398151915261264a565b600160a060020a03166304ceaf416040518163ffffffff1660e060020a028152600401600060405180830381600087803b15801561195157600080fd5b6125586125f8565b600054600160a060020a03828116911614156125be576040805160e560020a62461bcd02815260206004820152600e60248201527f4552525f53414d455f4f574e4552000000000000000000000000000000000000604482015290519081900360640190fd5b6001805473ffffffffffffffffffffffffffffffffffffffff1916600160a060020a0392909216919091179055565b6060610c9a82610a98565b600054600160a060020a03163314612648576040805160e560020a62461bcd02815260206004820152601160248201526000805160206133ff833981519152604482015290519081900360640190fd5b565b600254604080517fbb34534c000000000000000000000000000000000000000000000000000000008152600481018490529051600092600160a060020a03169163bb34534c91602480830192602092919082900301818787803b1580156111f557600080fd5b606060008060008060006126d160008051602061341f83398151915261264a565b945084600160a060020a031663a43d5e948860008151811015156126f157fe5b906020019060200201516040518263ffffffff1660e060020a0281526004018082600160a060020a0316600160a060020a03168152602001915050602060405180830381600087803b15801561274657600080fd5b505af115801561275a573d6000803e3d6000fd5b505050506040513d602081101561277057600080fd5b5051935060009250600191505b86518210156128405784600160a060020a031663a43d5e9488848151811015156127a357fe5b906020019060200201516040518263ffffffff1660e060020a0281526004018082600160a060020a0316600160a060020a03168152602001915050602060405180830381600087803b1580156127f857600080fd5b505af115801561280c573d6000803e3d6000fd5b505050506040513d602081101561282257600080fd5b5051905080841115612835578093508192505b60019091019061277d565b84600160a060020a031663f4fb86c0888581518110151561285d57fe5b906020019060200201516040518263ffffffff1660e060020a0281526004018082600160a060020a0316600160a060020a03168152602001915050600060405180830381600087803b1580156128b257600080fd5b505af11580156128c6573d6000803e3d6000fd5b505050506040513d6000823e601f3d908101601f1916820160405260208110156128ef57600080fd5b81019080805164010000000081111561290757600080fd5b8201602081018481111561291a57600080fd5b815185602082028301116401000000008211171561293757600080fd5b50909b9a5050505050505050505050565b60008085600160a060020a0316633e8ff43f6040518163ffffffff1660e060020a028152600401602060405180830381600087803b15801561298957600080fd5b505af115801561299d573d6000803e3d6000fd5b505050506040513d60208110156129b357600080fd5b505161ffff8681169116146129cb5760009150612ab8565b85600160a060020a03166371f52bf36040518163ffffffff1660e060020a028152600401602060405180830381600087803b158015612a0957600080fd5b505af1158015612a1d573d6000803e3d6000fd5b505050506040513d6020811015612a3357600080fd5b5051845161ffff90911614612a4b5760009150612ab8565b5060005b8351811015612ab357612a79868583815181101515612a6a57fe5b90602001906020020151612ca2565b63ffffffff168382815181101515612a8d57fe5b6020908102909101015163ffffffff1614612aab5760009150612ab8565b600101612a4f565b600191505b50949350505050565b600080600080612ade60008051602061341f83398151915261264a565b935084600160a060020a031663fc0c546a6040518163ffffffff1660e060020a028152600401602060405180830381600087803b158015612b1e57600080fd5b505af1158015612b32573d6000803e3d6000fd5b505050506040513d6020811015612b4857600080fd5b5051604080517f71f52bf30000000000000000000000000000000000000000000000000000000081529051919450600160a060020a038716916371f52bf3916004808201926020929091908290030181600087803b158015612ba957600080fd5b505af1158015612bbd573d6000803e3d6000fd5b505050506040513d6020811015612bd357600080fd5b505161ffff169150612be58484612f4d565b6001821115612bfd57612bf8848461302c565b612c08565b612c088484856130d7565b5060005b81811015612c9b57612c938486600160a060020a03166319b64015846040518263ffffffff1660e060020a02815260040180828152602001915050602060405180830381600087803b158015612c6157600080fd5b505af1158015612c75573d6000803e3d6000fd5b505050506040513d6020811015612c8b57600080fd5b5051856130d7565b600101612c0c565b5050505050565b6000612cac6133e3565b604080517f636f6e6e6563746f72732861646472657373290000000000000000000000000081528151908190036013018120600160a060020a03861660248084019190915283518084039091018152604490920183526020820180517bffffffffffffffffffffffffffffffffffffffffffffffffffffffff167fffffffff0000000000000000000000000000000000000000000000000000000090921691909117815281519192918491885afa801515612d6657600080fd5b5050602001519392505050565b600080600080612d9060008051602061341f83398151915261264a565b935084600160a060020a031663fc0c546a6040518163ffffffff1660e060020a028152600401602060405180830381600087803b158015612dd057600080fd5b505af1158015612de4573d6000803e3d6000fd5b505050506040513d6020811015612dfa57600080fd5b5051604080517f71f52bf30000000000000000000000000000000000000000000000000000000081529051919450600160a060020a038716916371f52bf3916004808201926020929091908290030181600087803b158015612e5b57600080fd5b505af1158015612e6f573d6000803e3d6000fd5b505050506040513d6020811015612e8557600080fd5b505161ffff169150612e978484613198565b6001821115612eaf57612eaa8484613277565b612eba565b612eba848485613322565b5060005b81811015612c9b57612f458486600160a060020a03166319b64015846040518263ffffffff1660e060020a02815260040180828152602001915050602060405180830381600087803b158015612f1357600080fd5b505af1158015612f27573d6000803e3d6000fd5b505050506040513d6020811015612f3d57600080fd5b505185613322565b600101612ebe565b81600160a060020a0316638de6c3eb826040518263ffffffff1660e060020a0281526004018082600160a060020a0316600160a060020a03168152602001915050600060405180830381600087803b158015612fa857600080fd5b505af1158015612fbc573d6000803e3d6000fd5b5050604051600160a060020a03841692507fc0a6d303d67b7ed9fa0abae1c48878df32acc0e7ca4334c7dad2bceeee5956fd9150600090a2604051600160a060020a038216907f88881feecdf61136ac4bdb1f681f2f3746a82910263d21ffea94750d2a78c0ab90600090a25050565b81600160a060020a031663ee6a934c826040518263ffffffff1660e060020a0281526004018082600160a060020a0316600160a060020a03168152602001915050600060405180830381600087803b15801561308757600080fd5b505af115801561309b573d6000803e3d6000fd5b5050604051600160a060020a03841692507fb893f883ef734b712208a877459424ee509832c57e0461fb1ac99ed4d42f2d899150600090a25050565b604080517f36900c11000000000000000000000000000000000000000000000000000000008152600160a060020a03848116600483015283811660248301529151918516916336900c119160448082019260009290919082900301818387803b15801561314357600080fd5b505af1158015613157573d6000803e3d6000fd5b5050604051600160a060020a038085169350851691507ff2e7cf6d6ed3f77039511409a43d4fa5108f09ab71d72b014380364c910233a590600090a3505050565b81600160a060020a031663ceb9838c826040518263ffffffff1660e060020a0281526004018082600160a060020a0316600160a060020a03168152602001915050600060405180830381600087803b1580156131f357600080fd5b505af1158015613207573d6000803e3d6000fd5b5050604051600160a060020a03841692507fbfdf1baaa7e4871111360083540f067050014f651c9e4610a2a4a4bdf8bfab5d9150600090a2604051600160a060020a038216907f2aff63790c7da80d1c50ede92d23bc841c384837735c92c184331f3d7b91e5bf90600090a25050565b81600160a060020a031663ae22107f826040518263ffffffff1660e060020a0281526004018082600160a060020a0316600160a060020a03168152602001915050600060405180830381600087803b1580156132d257600080fd5b505af11580156132e6573d6000803e3d6000fd5b5050604051600160a060020a03841692507f59c3fbcae88f30e9b0e35c132a7f68c53231dffa4722f197c7ecb0ee013eee609150600090a25050565b604080517ffba8f031000000000000000000000000000000000000000000000000000000008152600160a060020a038481166004830152838116602483015291519185169163fba8f0319160448082019260009290919082900301818387803b15801561338e57600080fd5b505af11580156133a2573d6000803e3d6000fd5b5050604051600160a060020a038085169350851691507f9430ad6ff45d6c3e126c7711bf0036bd9bc6b202fa19628abd88e59cf43ced4390600090a3505050565b6040805180820182529060029082908038833950919291505056004552525f4143434553535f44454e494544000000000000000000000000000000536f7672796e53776170436f6e76657274657252656769737472794461746100a165627a7a72305820a3ff8d616a609f2f0d2014995d930b7884b0bb7a8f1a97baf9787a10eed69c8a0029",
    "linkReferences": {},
    "deployedLinkReferences": {}
}