{
  "abi": [
    {
      "inputs": [
        {
          "internalType": "address",
          "name": "_SOV",
          "type": "address"
        },
        {
          "internalType": "address",
          "name": "_lockedTokenOwner",
          "type": "address"
        },
        {
          "internalType": "address",
          "name": "_safeVault",
          "type": "address"
        },
        {
          "internalType": "address",
          "name": "_unlockedTokenOwner",
          "type": "address"
        },
        {
          "internalType": "uint256",
          "name": "_lastReleaseTime",
          "type": "uint256"
        },
        {
          "internalType": "uint256[]",
          "name": "_releaseDuration",
          "type": "uint256[]"
        },
        {
          "internalType": "uint256[]",
          "name": "_releaseTokenAmount",
          "type": "uint256[]"
        }
      ],
      "payable": false,
      "stateMutability": "nonpayable",
      "type": "constructor"
    },
    {
      "anonymous": false,
      "inputs": [],
      "name": "DevelopmentFundActivated",
      "type": "event"
    },
    {
      "anonymous": false,
      "inputs": [],
      "name": "DevelopmentFundExpired",
      "type": "event"
    },
    {
      "anonymous": false,
      "inputs": [
        {
          "indexed": true,
          "internalType": "address",
          "name": "_initiator",
          "type": "address"
        },
        {
          "indexed": true,
          "internalType": "address",
          "name": "_receiver",
          "type": "address"
        },
        {
          "indexed": false,
          "internalType": "uint256",
          "name": "_amount",
          "type": "uint256"
        }
      ],
      "name": "LockedTokenTransferByLockedOwner",
      "type": "event"
    },
    {
      "anonymous": false,
      "inputs": [
        {
          "indexed": true,
          "internalType": "address",
          "name": "_initiator",
          "type": "address"
        },
        {
          "indexed": true,
          "internalType": "address",
          "name": "_receiver",
          "type": "address"
        },
        {
          "indexed": false,
          "internalType": "uint256",
          "name": "_amount",
          "type": "uint256"
        }
      ],
      "name": "LockedTokenTransferByUnlockedOwner",
      "type": "event"
    },
    {
      "anonymous": false,
      "inputs": [
        {
          "indexed": true,
          "internalType": "address",
          "name": "_initiator",
          "type": "address"
        },
        {
          "indexed": true,
          "internalType": "address",
          "name": "_newLockedOwner",
          "type": "address"
        }
      ],
      "name": "NewLockedOwnerAdded",
      "type": "event"
    },
    {
      "anonymous": false,
      "inputs": [
        {
          "indexed": true,
          "internalType": "address",
          "name": "_initiator",
          "type": "address"
        },
        {
          "indexed": true,
          "internalType": "address",
          "name": "_oldLockedOwner",
          "type": "address"
        },
        {
          "indexed": true,
          "internalType": "address",
          "name": "_newLockedOwner",
          "type": "address"
        }
      ],
      "name": "NewLockedOwnerApproved",
      "type": "event"
    },
    {
      "anonymous": false,
      "inputs": [
        {
          "indexed": true,
          "internalType": "address",
          "name": "_initiator",
          "type": "address"
        },
        {
          "indexed": false,
          "internalType": "uint256",
          "name": "_amount",
          "type": "uint256"
        }
      ],
      "name": "TokenDeposit",
      "type": "event"
    },
    {
      "anonymous": false,
      "inputs": [
        {
          "indexed": true,
          "internalType": "address",
          "name": "_initiator",
          "type": "address"
        },
        {
          "indexed": false,
          "internalType": "uint256",
          "name": "_releaseCount",
          "type": "uint256"
        }
      ],
      "name": "TokenReleaseChanged",
      "type": "event"
    },
    {
      "anonymous": false,
      "inputs": [
        {
          "indexed": true,
          "internalType": "address",
          "name": "_initiator",
          "type": "address"
        },
        {
          "indexed": true,
          "internalType": "address",
          "name": "_newUnlockedOwner",
          "type": "address"
        }
      ],
      "name": "UnlockedOwnerUpdated",
      "type": "event"
    },
    {
      "anonymous": false,
      "inputs": [
        {
          "indexed": true,
          "internalType": "address",
          "name": "_initiator",
          "type": "address"
        },
        {
          "indexed": false,
          "internalType": "uint256",
          "name": "_amount",
          "type": "uint256"
        },
        {
          "indexed": false,
          "internalType": "uint256",
          "name": "_releaseCount",
          "type": "uint256"
        }
      ],
      "name": "UnlockedTokenWithdrawalByUnlockedOwner",
      "type": "event"
    },
    {
      "constant": true,
      "inputs": [],
      "name": "SOV",
      "outputs": [
        {
          "internalType": "contract IERC20",
          "name": "",
          "type": "address"
        }
      ],
      "payable": false,
      "stateMutability": "view",
      "type": "function"
    },
    {
      "constant": false,
      "inputs": [],
      "name": "approveLockedTokenOwner",
      "outputs": [],
      "payable": false,
      "stateMutability": "nonpayable",
      "type": "function"
    },
    {
      "constant": false,
      "inputs": [
        {
          "internalType": "uint256",
          "name": "_newLastReleaseTime",
          "type": "uint256"
        },
        {
          "internalType": "uint256[]",
          "name": "_releaseDuration",
          "type": "uint256[]"
        },
        {
          "internalType": "uint256[]",
          "name": "_releaseTokenAmount",
          "type": "uint256[]"
        }
      ],
      "name": "changeTokenReleaseSchedule",
      "outputs": [],
      "payable": false,
      "stateMutability": "nonpayable",
      "type": "function"
    },
    {
      "constant": false,
      "inputs": [
        {
          "internalType": "uint256",
          "name": "_amount",
          "type": "uint256"
        }
      ],
      "name": "depositTokens",
      "outputs": [],
      "payable": false,
      "stateMutability": "nonpayable",
      "type": "function"
    },
    {
      "constant": true,
      "inputs": [],
      "name": "getReleaseDuration",
      "outputs": [
        {
          "internalType": "uint256[]",
          "name": "_releaseTokenDuration",
          "type": "uint256[]"
        }
      ],
      "payable": false,
      "stateMutability": "view",
      "type": "function"
    },
    {
      "constant": true,
      "inputs": [],
      "name": "getReleaseTokenAmount",
      "outputs": [
        {
          "internalType": "uint256[]",
          "name": "_currentReleaseTokenAmount",
          "type": "uint256[]"
        }
      ],
      "payable": false,
      "stateMutability": "view",
      "type": "function"
    },
    {
      "constant": false,
      "inputs": [],
      "name": "init",
      "outputs": [],
      "payable": false,
      "stateMutability": "nonpayable",
      "type": "function"
    },
    {
      "constant": true,
      "inputs": [],
      "name": "lastReleaseTime",
      "outputs": [
        {
          "internalType": "uint256",
          "name": "",
          "type": "uint256"
        }
      ],
      "payable": false,
      "stateMutability": "view",
      "type": "function"
    },
    {
      "constant": true,
      "inputs": [],
      "name": "lockedTokenOwner",
      "outputs": [
        {
          "internalType": "address",
          "name": "",
          "type": "address"
        }
      ],
      "payable": false,
      "stateMutability": "view",
      "type": "function"
    },
    {
      "constant": true,
      "inputs": [],
      "name": "newLockedTokenOwner",
      "outputs": [
        {
          "internalType": "address",
          "name": "",
          "type": "address"
        }
      ],
      "payable": false,
      "stateMutability": "view",
      "type": "function"
    },
    {
      "constant": true,
      "inputs": [
        {
          "internalType": "uint256",
          "name": "",
          "type": "uint256"
        }
      ],
      "name": "releaseDuration",
      "outputs": [
        {
          "internalType": "uint256",
          "name": "",
          "type": "uint256"
        }
      ],
      "payable": false,
      "stateMutability": "view",
      "type": "function"
    },
    {
      "constant": true,
      "inputs": [
        {
          "internalType": "uint256",
          "name": "",
          "type": "uint256"
        }
      ],
      "name": "releaseTokenAmount",
      "outputs": [
        {
          "internalType": "uint256",
          "name": "",
          "type": "uint256"
        }
      ],
      "payable": false,
      "stateMutability": "view",
      "type": "function"
    },
    {
      "constant": true,
      "inputs": [],
      "name": "safeVault",
      "outputs": [
        {
          "internalType": "address",
          "name": "",
          "type": "address"
        }
      ],
      "payable": false,
      "stateMutability": "view",
      "type": "function"
    },
    {
      "constant": true,
      "inputs": [],
      "name": "status",
      "outputs": [
        {
          "internalType": "enum DevelopmentFund.Status",
          "name": "",
          "type": "uint8"
        }
      ],
      "payable": false,
      "stateMutability": "view",
      "type": "function"
    },
    {
      "constant": false,
      "inputs": [
        {
          "internalType": "address",
          "name": "_receiver",
          "type": "address"
        }
      ],
      "name": "transferTokensByLockedTokenOwner",
      "outputs": [],
      "payable": false,
      "stateMutability": "nonpayable",
      "type": "function"
    },
    {
      "constant": false,
      "inputs": [],
      "name": "transferTokensByUnlockedTokenOwner",
      "outputs": [],
      "payable": false,
      "stateMutability": "nonpayable",
      "type": "function"
    },
    {
      "constant": true,
      "inputs": [],
      "name": "unlockedTokenOwner",
      "outputs": [
        {
          "internalType": "address",
          "name": "",
          "type": "address"
        }
      ],
      "payable": false,
      "stateMutability": "view",
      "type": "function"
    },
    {
      "constant": false,
      "inputs": [
        {
          "internalType": "address",
          "name": "_newLockedTokenOwner",
          "type": "address"
        }
      ],
      "name": "updateLockedTokenOwner",
      "outputs": [],
      "payable": false,
      "stateMutability": "nonpayable",
      "type": "function"
    },
    {
      "constant": false,
      "inputs": [
        {
          "internalType": "address",
          "name": "_newUnlockedTokenOwner",
          "type": "address"
        }
      ],
      "name": "updateUnlockedTokenOwner",
      "outputs": [],
      "payable": false,
      "stateMutability": "nonpayable",
      "type": "function"
    },
    {
      "constant": false,
      "inputs": [
        {
          "internalType": "uint256",
          "name": "_amount",
          "type": "uint256"
        }
      ],
      "name": "withdrawTokensByUnlockedTokenOwner",
      "outputs": [],
      "payable": false,
      "stateMutability": "nonpayable",
      "type": "function"
    }
  ],
  "bytecode": {
    "object": "0x60806040523480156200001157600080fd5b50604051620021a5380380620021a5833981810160405260e08110156200003757600080fd5b815160208301516040808501516060860151608087015160a0880180519451969895979396929591949293820192846401000000008211156200007957600080fd5b9083019060208201858111156200008f57600080fd5b8251866020820283011164010000000082111715620000ad57600080fd5b82525081516020918201928201910280838360005b83811015620000dc578181015183820152602001620000c2565b50505050905001604052602001805160405193929190846401000000008211156200010657600080fd5b9083019060208201858111156200011c57600080fd5b82518660208202830111640100000000821117156200013a57600080fd5b82525081516020918201928201910280838360005b83811015620001695781810151838201526020016200014f565b5050505091909101604052505050506001600160a01b038716620001d4576040805162461bcd60e51b815260206004820152601460248201527f496e76616c696420534f5620416464726573732e000000000000000000000000604482015290519081900360640190fd5b6001600160a01b0386166200021b5760405162461bcd60e51b815260040180806020018281038252602e81526020018062002177602e913960400191505060405180910390fd5b6001600160a01b03851662000277576040805162461bcd60e51b815260206004820152601b60248201527f53616665205661756c74206164647265737320696e76616c69642e0000000000604482015290519081900360640190fd5b6001600160a01b038416620002d3576040805162461bcd60e51b815260206004820152601f60248201527f556e6c6f636b656420746f6b656e206164647265737320696e76616c69642e00604482015290519081900360640190fd5b600080546001600160a01b03808a166001600160a01b031992831617909255600180548984169083161790556003805488841690831617905560028054928716929091169190911790556005839055826200032d57426005555b805182511462000384576040805162461bcd60e51b815260206004820181905260248201527f52656c65617365205363686564756c6520646f6573206e6f74206d617463682e604482015290519081900360640190fd5b815162000399906006906020850190620003bd565b508051620003af906007906020840190620003bd565b50505050505050506200042d565b828054828255906000526020600020908101928215620003fb579160200282015b82811115620003fb578251825591602001919060010190620003de565b50620004099291506200040d565b5090565b6200042a91905b8082111562000409576000815560010162000414565b90565b611d3a806200043d6000396000f3fe608060405234801561001057600080fd5b506004361061012c5760003560e01c8063867513a9116100ad578063da45b3ac11610071578063da45b3ac1461040c578063dd49756e14610414578063deef94de14610431578063dfaf734a14610439578063e1c7392a146104415761012c565b8063867513a91461036c5780638d5b16661461039b5780638f833272146103c1578063ad99103d146103de578063cdc0d718146104045761012c565b80634518b52e116100f45780634518b52e14610311578063460ca0eb14610319578063532c677614610336578063716d9bf81461035c578063721ce1e7146103645761012c565b806308dcb36014610131578063200d2ed2146101555780632aa4486f146101815780633256f0fe1461018957806334e2366f146101e1575b600080fd5b610139610449565b604080516001600160a01b039092168252519081900360200190f35b61015d610458565b6040518082600281111561016d57fe5b60ff16815260200191505060405180910390f35b610139610468565b610191610477565b60408051602080825283518183015283519192839290830191858101910280838360005b838110156101cd5781810151838201526020016101b5565b505050509050019250505060405180910390f35b61030f600480360360608110156101f757600080fd5b8135919081019060408101602082013564010000000081111561021957600080fd5b82018360208201111561022b57600080fd5b8035906020019184602083028401116401000000008311171561024d57600080fd5b919080806020026020016040519081016040528093929190818152602001838360200280828437600092019190915250929594936020810193503591505064010000000081111561029d57600080fd5b8201836020820111156102af57600080fd5b803590602001918460208302840111640100000000831117156102d157600080fd5b9190808060200260200160405190810160405280939291908181526020018383602002808284376000920191909152509295506104d0945050505050565b005b61030f6108db565b61030f6004803603602081101561032f57600080fd5b5035610a41565b61030f6004803603602081101561034c57600080fd5b50356001600160a01b0316610e09565b610139610f3b565b610191610f4a565b6103896004803603602081101561038257600080fd5b5035610fa0565b60408051918252519081900360200190f35b61030f600480360360208110156103b157600080fd5b50356001600160a01b0316610fbe565b610389600480360360208110156103d757600080fd5b50356110f0565b61030f600480360360208110156103f457600080fd5b50356001600160a01b03166110fd565b61030f61135a565b6101396115be565b61030f6004803603602081101561042a57600080fd5b50356115cd565b610139611762565b610389611771565b61030f611777565b6000546001600160a01b031681565b600054600160a01b900460ff1681565b6001546001600160a01b031681565b606060078054806020026020016040519081016040528092919081815260200182805480156104c557602002820191906000526020600020905b8154815260200190600101908083116104b1575b505050505090505b90565b6001546001600160a01b031633146105195760405162461bcd60e51b8152600401808060200182810382526026815260200180611bb26026913960400191505060405180910390fd5b600180600054600160a01b900460ff16600281111561053457fe5b146105705760405162461bcd60e51b8152600401808060200182810382526027815260200180611bd86027913960400191505060405180910390fd5b81518351146105c6576040805162461bcd60e51b815260206004820181905260248201527f52656c65617365205363686564756c6520646f6573206e6f74206d617463682e604482015290519081900360640190fd5b83156105d25760058490555b6000805b835181101561060f576106058482815181106105ee57fe5b6020026020010151836119a590919063ffffffff16565b91506001016105d6565b5060008054604080516370a0823160e01b815230600482015290516001600160a01b03909216916370a0823191602480820192602092909190829003018186803b15801561065c57600080fd5b505afa158015610670573d6000803e3d6000fd5b505050506040513d602081101561068657600080fd5b505190508181101561078e57600080546001600160a01b03166323b872dd33306106b6878763ffffffff611a0616565b6040518463ffffffff1660e01b815260040180846001600160a01b03166001600160a01b03168152602001836001600160a01b03166001600160a01b031681526020018281526020019350505050602060405180830381600087803b15801561071e57600080fd5b505af1158015610732573d6000803e3d6000fd5b505050506040513d602081101561074857600080fd5b50519050806107885760405162461bcd60e51b8152600401808060200182810382526031815260200180611c856031913960400191505060405180910390fd5b50610874565b8181111561087457600080546001600160a01b031663a9059cbb336107b9858763ffffffff611a0616565b6040518363ffffffff1660e01b815260040180836001600160a01b03166001600160a01b0316815260200182815260200192505050602060405180830381600087803b15801561080857600080fd5b505af115801561081c573d6000803e3d6000fd5b505050506040513d602081101561083257600080fd5b50519050806108725760405162461bcd60e51b8152600401808060200182810382526027815260200180611b696027913960400191505060405180910390fd5b505b8451610887906006906020880190611ada565b50835161089b906007906020870190611ada565b508451604080519182525133917ff72a4687eff9513c183e45c0c4c26747495ea90534ae5138b15187bd6d744d03919081900360200190a2505050505050565b6002546001600160a01b031633146109245760405162461bcd60e51b8152600401808060200182810382526028815260200180611bff6028913960400191505060405180910390fd5b600180600054600160a01b900460ff16600281111561093f57fe5b1461097b5760405162461bcd60e51b8152600401808060200182810382526027815260200180611bd86027913960400191505060405180910390fd5b6004546001600160a01b03166109d8576040805162461bcd60e51b815260206004820152601a60248201527f4e6f206e6577206c6f636b6564206f776e65722061646465642e000000000000604482015290519081900360640190fd5b6004546001546040516001600160a01b03928316929091169033907f42b448a9c587a54133a65275a9dd086289e1459394570a77830d6e2993ba702190600090a45060048054600180546001600160a01b03199081166001600160a01b03841617909155169055565b6002546001600160a01b03163314610a8a5760405162461bcd60e51b8152600401808060200182810382526028815260200180611bff6028913960400191505060405180910390fd5b600180600054600160a01b900460ff166002811115610aa557fe5b14610ae15760405162461bcd60e51b8152600401808060200182810382526027815260200180611bd86027913960400191505060405180910390fd5b60008211610b36576040805162461bcd60e51b815260206004820152601860248201527f5a65726f2063616e27742062652077697468647261776e2e0000000000000000604482015290519081900360640190fd5b60055460065460009184918390610b5490600163ffffffff611a0616565b90505b600083118015610b8f575042610b8d60068381548110610b7357fe5b9060005260206000200154846119a590919063ffffffff16565b105b15610c685760078181548110610ba157fe5b90600052602060002001548310610c1557610bdc60078281548110610bc257fe5b906000526020600020015484611a0690919063ffffffff16565b9250610c0860068281548110610bee57fe5b9060005260206000200154836119a590919063ffffffff16565b6001909401939150610c5f565b610c3f8360078381548110610c2657fe5b9060005260206000200154611a0690919063ffffffff16565b60078281548110610c4c57fe5b9060005260206000200181905550600092505b60001901610b57565b6000841180610c75575082155b610cc6576040805162461bcd60e51b815260206004820152601c60248201527f4e6f2072656c65617365207363686564756c6520726561636865642e00000000604482015290519081900360640190fd5b6000610cd8878563ffffffff611a0616565b600680549192509086900390610cee9082611b25565b506007805486900390610d019082611b25565b506005839055600080546040805163a9059cbb60e01b81523360048201526024810185905290516001600160a01b039092169163a9059cbb9160448082019260209290919082900301818787803b158015610d5b57600080fd5b505af1158015610d6f573d6000803e3d6000fd5b505050506040513d6020811015610d8557600080fd5b5051905080610dc55760405162461bcd60e51b815260040180806020018281038252603a815260200180611c4b603a913960400191505060405180910390fd5b6040805183815260208101889052815133927ffa68c0fc42b11a51827986519278d0697390d33804dfe95ee2715b586188e9b8928290030190a25050505050505050565b6001546001600160a01b03163314610e525760405162461bcd60e51b8152600401808060200182810382526026815260200180611bb26026913960400191505060405180910390fd5b600180600054600160a01b900460ff166002811115610e6d57fe5b14610ea95760405162461bcd60e51b8152600401808060200182810382526027815260200180611bd86027913960400191505060405180910390fd5b6001600160a01b038216610eee5760405162461bcd60e51b8152600401808060200182810382526029815260200180611cb66029913960400191505060405180910390fd5b600280546001600160a01b0319166001600160a01b03841690811790915560405133907f0208ed0f1388e698a4ea28ded707c28ae94b6f0405d5f6ce3fb8ea5c28a3d71490600090a35050565b6002546001600160a01b031681565b606060068054806020026020016040519081016040528092919081815260200182805480156104c557602002820191906000526020600020908154815260200190600101908083116104b1575050505050905090565b60078181548110610fad57fe5b600091825260209091200154905081565b6001546001600160a01b031633146110075760405162461bcd60e51b8152600401808060200182810382526026815260200180611bb26026913960400191505060405180910390fd5b600180600054600160a01b900460ff16600281111561102257fe5b1461105e5760405162461bcd60e51b8152600401808060200182810382526027815260200180611bd86027913960400191505060405180910390fd5b6001600160a01b0382166110a35760405162461bcd60e51b8152600401808060200182810382526027815260200180611cdf6027913960400191505060405180910390fd5b600480546001600160a01b0319166001600160a01b03841690811790915560405133907f48d91cb8cdff9bca75e8ac21e7acdbde24900df0411d11ecf4b430694cd4f51190600090a35050565b60068181548110610fad57fe5b6001546001600160a01b031633146111465760405162461bcd60e51b8152600401808060200182810382526026815260200180611bb26026913960400191505060405180910390fd5b600180600054600160a01b900460ff16600281111561116157fe5b1461119d5760405162461bcd60e51b8152600401808060200182810382526027815260200180611bd86027913960400191505060405180910390fd5b60008054604080516370a0823160e01b815230600482015290516001600160a01b03909216916370a0823191602480820192602092909190829003018186803b1580156111e957600080fd5b505afa1580156111fd573d6000803e3d6000fd5b505050506040513d602081101561121357600080fd5b5051600080546040805163a9059cbb60e01b81526001600160a01b038881166004830152602482018690529151949550929391169163a9059cbb91604480830192602092919082900301818787803b15801561126e57600080fd5b505af1158015611282573d6000803e3d6000fd5b505050506040513d602081101561129857600080fd5b50519050806112d85760405162461bcd60e51b815260040180806020018281038252603a815260200180611c4b603a913960400191505060405180910390fd5b6000805460ff60a01b1916600160a11b1790556040805183815290516001600160a01b0386169133917fe2263fdea2a7955c23a2bcd5f0ce1624216bc2e6f7527e568e4458b4322f3d259181900360200190a36040517f72c4ddbdbfc8ea67597f365145a79c7ccf27249562ba8d8a646a433cc19ca50c90600090a150505050565b6002546001600160a01b031633146113a35760405162461bcd60e51b8152600401808060200182810382526028815260200180611bff6028913960400191505060405180910390fd5b600180600054600160a01b900460ff1660028111156113be57fe5b146113fa5760405162461bcd60e51b8152600401808060200182810382526027815260200180611bd86027913960400191505060405180910390fd5b60008054604080516370a0823160e01b815230600482015290516001600160a01b03909216916370a0823191602480820192602092909190829003018186803b15801561144657600080fd5b505afa15801561145a573d6000803e3d6000fd5b505050506040513d602081101561147057600080fd5b5051600080546003546040805163a9059cbb60e01b81526001600160a01b039283166004820152602481018690529051949550929391169163a9059cbb91604480830192602092919082900301818787803b1580156114ce57600080fd5b505af11580156114e2573d6000803e3d6000fd5b505050506040513d60208110156114f857600080fd5b50519050806115385760405162461bcd60e51b815260040180806020018281038252603a815260200180611c4b603a913960400191505060405180910390fd5b6000805460ff60a01b1916600160a11b1790556003546040805184815290516001600160a01b039092169133917fb113bbaa99f5f08dce8b0578089a524730dfb0a0b4ca1d82678847b78e7a4acc919081900360200190a36040517f72c4ddbdbfc8ea67597f365145a79c7ccf27249562ba8d8a646a433cc19ca50c90600090a1505050565b6004546001600160a01b031681565b600180600054600160a01b900460ff1660028111156115e857fe5b146116245760405162461bcd60e51b8152600401808060200182810382526027815260200180611bd86027913960400191505060405180910390fd5b600082116116635760405162461bcd60e51b8152600401808060200182810382526024815260200180611c276024913960400191505060405180910390fd5b60008054604080516323b872dd60e01b81523360048201523060248201526044810186905290516001600160a01b03909216916323b872dd9160648082019260209290919082900301818787803b1580156116bd57600080fd5b505af11580156116d1573d6000803e3d6000fd5b505050506040513d60208110156116e757600080fd5b50519050806117275760405162461bcd60e51b8152600401808060200182810382526022815260200180611b906022913960400191505060405180910390fd5b60408051848152905133917f20b3fc91390f6ceba342f697a9490734680fd3556633f40efa146f1dbe79d05f919081900360200190a2505050565b6003546001600160a01b031681565b60055481565b600080600054600160a01b900460ff16600281111561179257fe5b146117ce5760405162461bcd60e51b8152600401808060200182810382526027815260200180611bd86027913960400191505060405180910390fd5b6060600780548060200260200160405190810160405280929190818152602001828054801561181c57602002820191906000526020600020905b815481526020019060010190808311611808575b5050505050905080516000141561187a576040805162461bcd60e51b815260206004820152601960248201527f52656c65617365205363686564756c65206e6f74207365742e00000000000000604482015290519081900360640190fd5b6000805b82518110156118a0576118968382815181106105ee57fe5b915060010161187e565b5060008054604080516323b872dd60e01b81523360048201523060248201526044810185905290516001600160a01b03909216916323b872dd9160648082019260209290919082900301818787803b1580156118fb57600080fd5b505af115801561190f573d6000803e3d6000fd5b505050506040513d602081101561192557600080fd5b50519050806119655760405162461bcd60e51b8152600401808060200182810382526031815260200180611c856031913960400191505060405180910390fd5b6000805460ff60a01b1916600160a01b1781556040517faa68d5c041f78cef350ad64b5eb318db549e529cde80faaef4d9402c522cd7179190a150505050565b6000828201838110156119ff576040805162461bcd60e51b815260206004820152601b60248201527f536166654d6174683a206164646974696f6e206f766572666c6f770000000000604482015290519081900360640190fd5b9392505050565b60006119ff83836040518060400160405280601e81526020017f536166654d6174683a207375627472616374696f6e206f766572666c6f77000081525060008184841115611ad25760405162461bcd60e51b81526004018080602001828103825283818151815260200191508051906020019080838360005b83811015611a97578181015183820152602001611a7f565b50505050905090810190601f168015611ac45780820380516001836020036101000a031916815260200191505b509250505060405180910390fd5b505050900390565b828054828255906000526020600020908101928215611b15579160200282015b82811115611b15578251825591602001919060010190611afa565b50611b21929150611b4e565b5090565b815481835581811115611b4957600083815260209020611b49918101908301611b4e565b505050565b6104cd91905b80821115611b215760008155600101611b5456fe546f6b656e206e6f7420726563656976656420627920746865204c6f636b6564204f776e65722e546f6b656e207472616e7366657220776173206e6f74207375636365737366756c2e4f6e6c79204c6f636b656420546f6b656e204f776e65722063616e2063616c6c20746869732e54686520636f6e7472616374206973206e6f7420696e207468652072696768742073746174652e4f6e6c7920556e6c6f636b656420546f6b656e204f776e65722063616e2063616c6c20746869732e416d6f756e74206e6565647320746f20626520626967676572207468616e207a65726f2e546f6b656e207472616e7366657220776173206e6f74207375636365737366756c2e20436865636b20726563656976657220616464726573732e4e6f7420656e6f75676820746f6b656e2073656e7420746f206368616e67652072656c65617365207363686564756c652e4e657720756e6c6f636b656420746f6b656e206f776e6572206164647265737320696e76616c69642e4e6577206c6f636b656420746f6b656e206f776e6572206164647265737320696e76616c69642ea265627a7a72315820e0208b35e42fd82a32ebcaff4bce109dc1323df62c387fab5de9e76d9211de3064736f6c634300051100324c6f636b656420746f6b656e202620636f6e7472616374206f776e6572206164647265737320696e76616c69642e",
    "linkReferences": {}
  },
  "methodIdentifiers": {
    "SOV()": "08dcb360",
    "approveLockedTokenOwner()": "4518b52e",
    "changeTokenReleaseSchedule(uint256,uint256[],uint256[])": "34e2366f",
    "depositTokens(uint256)": "dd49756e",
    "getReleaseDuration()": "721ce1e7",
    "getReleaseTokenAmount()": "3256f0fe",
    "init()": "e1c7392a",
    "lastReleaseTime()": "dfaf734a",
    "lockedTokenOwner()": "2aa4486f",
    "newLockedTokenOwner()": "da45b3ac",
    "releaseDuration(uint256)": "8f833272",
    "releaseTokenAmount(uint256)": "867513a9",
    "safeVault()": "deef94de",
    "status()": "200d2ed2",
    "transferTokensByLockedTokenOwner(address)": "ad99103d",
    "transferTokensByUnlockedTokenOwner()": "cdc0d718",
    "unlockedTokenOwner()": "716d9bf8",
    "updateLockedTokenOwner(address)": "8d5b1666",
    "updateUnlockedTokenOwner(address)": "532c6776",
    "withdrawTokensByUnlockedTokenOwner(uint256)": "460ca0eb"
  },
  "id": 77
}