{
  "abi": [
    {
      "inputs": [],
      "payable": false,
      "stateMutability": "nonpayable",
      "type": "constructor"
    },
    {
      "anonymous": false,
      "inputs": [
        {
          "indexed": true,
          "internalType": "address",
          "name": "previousOwner",
          "type": "address"
        },
        {
          "indexed": true,
          "internalType": "address",
          "name": "newOwner",
          "type": "address"
        }
      ],
      "name": "OwnershipTransferred",
      "type": "event"
    },
    {
      "anonymous": false,
      "inputs": [
        {
          "indexed": true,
          "internalType": "address",
          "name": "prevModuleContractAddress",
          "type": "address"
        },
        {
          "indexed": true,
          "internalType": "address",
          "name": "newModuleContractAddress",
          "type": "address"
        },
        {
          "indexed": true,
          "internalType": "bytes32",
          "name": "module",
          "type": "bytes32"
        }
      ],
      "name": "ProtocolModuleContractReplaced",
      "type": "event"
    },
    {
      "anonymous": false,
      "inputs": [
        {
          "indexed": true,
          "internalType": "address",
          "name": "sender",
          "type": "address"
        },
        {
          "indexed": true,
          "internalType": "address",
          "name": "sourceTokenAddress",
          "type": "address"
        },
        {
          "indexed": true,
          "internalType": "address",
          "name": "destTokenAddress",
          "type": "address"
        },
        {
          "indexed": false,
          "internalType": "contract IERC20[]",
          "name": "defaultPath",
          "type": "address[]"
        }
      ],
      "name": "RemoveDefaultPathConversion",
      "type": "event"
    },
    {
      "anonymous": false,
      "inputs": [
        {
          "indexed": true,
          "internalType": "address",
          "name": "sender",
          "type": "address"
        },
        {
          "indexed": false,
          "internalType": "uint256",
          "name": "oldValue",
          "type": "uint256"
        },
        {
          "indexed": false,
          "internalType": "uint256",
          "name": "newValue",
          "type": "uint256"
        }
      ],
      "name": "SetAffiliateFeePercent",
      "type": "event"
    },
    {
      "anonymous": false,
      "inputs": [
        {
          "indexed": true,
          "internalType": "address",
          "name": "sender",
          "type": "address"
        },
        {
          "indexed": false,
          "internalType": "uint256",
          "name": "oldValue",
          "type": "uint256"
        },
        {
          "indexed": false,
          "internalType": "uint256",
          "name": "newValue",
          "type": "uint256"
        }
      ],
      "name": "SetAffiliateTradingTokenFeePercent",
      "type": "event"
    },
    {
      "anonymous": false,
      "inputs": [
        {
          "indexed": true,
          "internalType": "address",
          "name": "sender",
          "type": "address"
        },
        {
          "indexed": false,
          "internalType": "uint256",
          "name": "oldValue",
          "type": "uint256"
        },
        {
          "indexed": false,
          "internalType": "uint256",
          "name": "newValue",
          "type": "uint256"
        }
      ],
      "name": "SetBorrowingFeePercent",
      "type": "event"
    },
    {
      "anonymous": false,
      "inputs": [
        {
          "indexed": true,
          "internalType": "address",
          "name": "sender",
          "type": "address"
        },
        {
          "indexed": true,
          "internalType": "address",
          "name": "sourceTokenAddress",
          "type": "address"
        },
        {
          "indexed": true,
          "internalType": "address",
          "name": "destTokenAddress",
          "type": "address"
        },
        {
          "indexed": false,
          "internalType": "contract IERC20[]",
          "name": "defaultPath",
          "type": "address[]"
        }
      ],
      "name": "SetDefaultPathConversion",
      "type": "event"
    },
    {
      "anonymous": false,
      "inputs": [
        {
          "indexed": true,
          "internalType": "address",
          "name": "sender",
          "type": "address"
        },
        {
          "indexed": true,
          "internalType": "address",
          "name": "oldController",
          "type": "address"
        },
        {
          "indexed": true,
          "internalType": "address",
          "name": "newController",
          "type": "address"
        }
      ],
      "name": "SetFeesController",
      "type": "event"
    },
    {
      "anonymous": false,
      "inputs": [
        {
          "indexed": true,
          "internalType": "address",
          "name": "sender",
          "type": "address"
        },
        {
          "indexed": false,
          "internalType": "uint256",
          "name": "oldValue",
          "type": "uint256"
        },
        {
          "indexed": false,
          "internalType": "uint256",
          "name": "newValue",
          "type": "uint256"
        }
      ],
      "name": "SetLendingFeePercent",
      "type": "event"
    },
    {
      "anonymous": false,
      "inputs": [
        {
          "indexed": true,
          "internalType": "address",
          "name": "sender",
          "type": "address"
        },
        {
          "indexed": false,
          "internalType": "uint256",
          "name": "oldValue",
          "type": "uint256"
        },
        {
          "indexed": false,
          "internalType": "uint256",
          "name": "newValue",
          "type": "uint256"
        }
      ],
      "name": "SetLiquidationIncentivePercent",
      "type": "event"
    },
    {
      "anonymous": false,
      "inputs": [
        {
          "indexed": true,
          "internalType": "address",
          "name": "sender",
          "type": "address"
        },
        {
          "indexed": true,
          "internalType": "address",
          "name": "loanPool",
          "type": "address"
        },
        {
          "indexed": true,
          "internalType": "address",
          "name": "underlying",
          "type": "address"
        }
      ],
      "name": "SetLoanPool",
      "type": "event"
    },
    {
      "anonymous": false,
      "inputs": [
        {
          "indexed": true,
          "internalType": "address",
          "name": "sender",
          "type": "address"
        },
        {
          "indexed": true,
          "internalType": "address",
          "name": "oldAddress",
          "type": "address"
        },
        {
          "indexed": true,
          "internalType": "address",
          "name": "newAddress",
          "type": "address"
        }
      ],
      "name": "SetLockedSOVAddress",
      "type": "event"
    },
    {
      "anonymous": false,
      "inputs": [
        {
          "indexed": true,
          "internalType": "address",
          "name": "sender",
          "type": "address"
        },
        {
          "indexed": false,
          "internalType": "uint256",
          "name": "oldValue",
          "type": "uint256"
        },
        {
          "indexed": false,
          "internalType": "uint256",
          "name": "newValue",
          "type": "uint256"
        }
      ],
      "name": "SetMaxSwapSize",
      "type": "event"
    },
    {
      "anonymous": false,
      "inputs": [
        {
          "indexed": true,
          "internalType": "address",
          "name": "sender",
          "type": "address"
        },
        {
          "indexed": false,
          "internalType": "uint256",
          "name": "oldMinReferrals",
          "type": "uint256"
        },
        {
          "indexed": false,
          "internalType": "uint256",
          "name": "newMinReferrals",
          "type": "uint256"
        }
      ],
      "name": "SetMinReferralsToPayoutAffiliates",
      "type": "event"
    },
    {
      "anonymous": false,
      "inputs": [
        {
          "indexed": true,
          "internalType": "address",
          "name": "sender",
          "type": "address"
        },
        {
          "indexed": false,
          "internalType": "address",
          "name": "oldValue",
          "type": "address"
        },
        {
          "indexed": false,
          "internalType": "address",
          "name": "newValue",
          "type": "address"
        }
      ],
      "name": "SetPriceFeedContract",
      "type": "event"
    },
    {
      "anonymous": false,
      "inputs": [
        {
          "indexed": true,
          "internalType": "address",
          "name": "sender",
          "type": "address"
        },
        {
          "indexed": true,
          "internalType": "address",
          "name": "oldProtocol",
          "type": "address"
        },
        {
          "indexed": true,
          "internalType": "address",
          "name": "newProtocol",
          "type": "address"
        }
      ],
      "name": "SetProtocolAddress",
      "type": "event"
    },
    {
      "anonymous": false,
      "inputs": [
        {
          "indexed": true,
          "internalType": "address",
          "name": "sender",
          "type": "address"
        },
        {
          "indexed": true,
          "internalType": "address",
          "name": "oldProtocolToken",
          "type": "address"
        },
        {
          "indexed": true,
          "internalType": "address",
          "name": "newProtocolToken",
          "type": "address"
        }
      ],
      "name": "SetProtocolTokenAddress",
      "type": "event"
    },
    {
      "anonymous": false,
      "inputs": [
        {
          "indexed": true,
          "internalType": "address",
          "name": "sender",
          "type": "address"
        },
        {
          "indexed": false,
          "internalType": "uint256",
          "name": "oldRebatePercent",
          "type": "uint256"
        },
        {
          "indexed": false,
          "internalType": "uint256",
          "name": "newRebatePercent",
          "type": "uint256"
        }
      ],
      "name": "SetRebatePercent",
      "type": "event"
    },
    {
      "anonymous": false,
      "inputs": [
        {
          "indexed": true,
          "internalType": "address",
          "name": "sender",
          "type": "address"
        },
        {
          "indexed": false,
          "internalType": "uint256",
          "name": "oldValue",
          "type": "uint256"
        },
        {
          "indexed": false,
          "internalType": "uint256",
          "name": "newValue",
          "type": "uint256"
        }
      ],
      "name": "SetRolloverBaseReward",
      "type": "event"
    },
    {
      "anonymous": false,
      "inputs": [
        {
          "indexed": true,
          "internalType": "address",
          "name": "sender",
          "type": "address"
        },
        {
          "indexed": false,
          "internalType": "uint256",
          "name": "oldRolloverFlexFeePercent",
          "type": "uint256"
        },
        {
          "indexed": false,
          "internalType": "uint256",
          "name": "newRolloverFlexFeePercent",
          "type": "uint256"
        }
      ],
      "name": "SetRolloverFlexFeePercent",
      "type": "event"
    },
    {
      "anonymous": false,
      "inputs": [
        {
          "indexed": true,
          "internalType": "address",
          "name": "sender",
          "type": "address"
        },
        {
          "indexed": true,
          "internalType": "address",
          "name": "oldTokenAddress",
          "type": "address"
        },
        {
          "indexed": true,
          "internalType": "address",
          "name": "newTokenAddress",
          "type": "address"
        }
      ],
      "name": "SetSOVTokenAddress",
      "type": "event"
    },
    {
      "anonymous": false,
      "inputs": [
        {
          "indexed": true,
          "internalType": "address",
          "name": "sender",
          "type": "address"
        },
        {
          "indexed": true,
          "internalType": "address",
          "name": "oldSovrynSwapContractRegistryAddress",
          "type": "address"
        },
        {
          "indexed": true,
          "internalType": "address",
          "name": "newSovrynSwapContractRegistryAddress",
          "type": "address"
        }
      ],
      "name": "SetSovrynSwapContractRegistryAddress",
      "type": "event"
    },
    {
      "anonymous": false,
      "inputs": [
        {
          "indexed": true,
          "internalType": "address",
          "name": "sender",
          "type": "address"
        },
        {
          "indexed": true,
          "internalType": "address",
          "name": "sourceToken",
          "type": "address"
        },
        {
          "indexed": true,
          "internalType": "address",
          "name": "destToken",
          "type": "address"
        },
        {
          "indexed": false,
          "internalType": "uint256",
          "name": "oldSpecialRebatesPercent",
          "type": "uint256"
        },
        {
          "indexed": false,
          "internalType": "uint256",
          "name": "newSpecialRebatesPercent",
          "type": "uint256"
        }
      ],
      "name": "SetSpecialRebates",
      "type": "event"
    },
    {
      "anonymous": false,
      "inputs": [
        {
          "indexed": true,
          "internalType": "address",
          "name": "sender",
          "type": "address"
        },
        {
          "indexed": true,
          "internalType": "address",
          "name": "token",
          "type": "address"
        },
        {
          "indexed": false,
          "internalType": "bool",
          "name": "isActive",
          "type": "bool"
        }
      ],
      "name": "SetSupportedTokens",
      "type": "event"
    },
    {
      "anonymous": false,
      "inputs": [
        {
          "indexed": true,
          "internalType": "address",
          "name": "sender",
          "type": "address"
        },
        {
          "indexed": false,
          "internalType": "uint256",
          "name": "oldValue",
          "type": "uint256"
        },
        {
          "indexed": false,
          "internalType": "uint256",
          "name": "newValue",
          "type": "uint256"
        }
      ],
      "name": "SetSwapExternalFeePercent",
      "type": "event"
    },
    {
      "anonymous": false,
      "inputs": [
        {
          "indexed": true,
          "internalType": "address",
          "name": "sender",
          "type": "address"
        },
        {
          "indexed": false,
          "internalType": "address",
          "name": "oldValue",
          "type": "address"
        },
        {
          "indexed": false,
          "internalType": "address",
          "name": "newValue",
          "type": "address"
        }
      ],
      "name": "SetSwapsImplContract",
      "type": "event"
    },
    {
      "anonymous": false,
      "inputs": [
        {
          "indexed": true,
          "internalType": "address",
          "name": "sender",
          "type": "address"
        },
        {
          "indexed": false,
          "internalType": "uint256",
          "name": "oldValue",
          "type": "uint256"
        },
        {
          "indexed": false,
          "internalType": "uint256",
          "name": "newValue",
          "type": "uint256"
        }
      ],
      "name": "SetTradingFeePercent",
      "type": "event"
    },
    {
      "anonymous": false,
      "inputs": [
        {
          "indexed": true,
          "internalType": "address",
          "name": "sender",
          "type": "address"
        },
        {
          "indexed": false,
          "internalType": "uint256",
          "name": "oldBasisPoint",
          "type": "uint256"
        },
        {
          "indexed": false,
          "internalType": "uint256",
          "name": "newBasisPoint",
          "type": "uint256"
        }
      ],
      "name": "SetTradingRebateRewardsBasisPoint",
      "type": "event"
    },
    {
      "anonymous": false,
      "inputs": [
        {
          "indexed": true,
          "internalType": "address",
          "name": "sender",
          "type": "address"
        },
        {
          "indexed": true,
          "internalType": "address",
          "name": "oldWethToken",
          "type": "address"
        },
        {
          "indexed": true,
          "internalType": "address",
          "name": "newWethToken",
          "type": "address"
        }
      ],
      "name": "SetWrbtcToken",
      "type": "event"
    },
    {
      "anonymous": false,
      "inputs": [
        {
          "indexed": true,
          "internalType": "address",
          "name": "sender",
          "type": "address"
        },
        {
          "indexed": true,
          "internalType": "bool",
          "name": "oldFlag",
          "type": "bool"
        },
        {
          "indexed": true,
          "internalType": "bool",
          "name": "newFlag",
          "type": "bool"
        }
      ],
      "name": "TogglePaused",
      "type": "event"
    },
    {
      "anonymous": false,
      "inputs": [
        {
          "indexed": true,
          "internalType": "address",
          "name": "sender",
          "type": "address"
        },
        {
          "indexed": true,
          "internalType": "address",
          "name": "token",
          "type": "address"
        },
        {
          "indexed": true,
          "internalType": "address",
          "name": "receiver",
          "type": "address"
        },
        {
          "indexed": false,
          "internalType": "uint256",
          "name": "amount",
          "type": "uint256"
        }
      ],
      "name": "WithdrawBorrowingFees",
      "type": "event"
    },
    {
      "anonymous": false,
      "inputs": [
        {
          "indexed": true,
          "internalType": "address",
          "name": "sender",
          "type": "address"
        },
        {
          "indexed": true,
          "internalType": "address",
          "name": "token",
          "type": "address"
        },
        {
          "indexed": true,
          "internalType": "address",
          "name": "receiver",
          "type": "address"
        },
        {
          "indexed": false,
          "internalType": "uint256",
          "name": "lendingAmount",
          "type": "uint256"
        },
        {
          "indexed": false,
          "internalType": "uint256",
          "name": "tradingAmount",
          "type": "uint256"
        },
        {
          "indexed": false,
          "internalType": "uint256",
          "name": "borrowingAmount",
          "type": "uint256"
        },
        {
          "indexed": false,
          "internalType": "uint256",
          "name": "wRBTCConverted",
          "type": "uint256"
        }
      ],
      "name": "WithdrawFees",
      "type": "event"
    },
    {
      "anonymous": false,
      "inputs": [
        {
          "indexed": true,
          "internalType": "address",
          "name": "sender",
          "type": "address"
        },
        {
          "indexed": true,
          "internalType": "address",
          "name": "token",
          "type": "address"
        },
        {
          "indexed": true,
          "internalType": "address",
          "name": "receiver",
          "type": "address"
        },
        {
          "indexed": false,
          "internalType": "uint256",
          "name": "amount",
          "type": "uint256"
        }
      ],
      "name": "WithdrawLendingFees",
      "type": "event"
    },
    {
      "anonymous": false,
      "inputs": [
        {
          "indexed": true,
          "internalType": "address",
          "name": "sender",
          "type": "address"
        },
        {
          "indexed": true,
          "internalType": "address",
          "name": "token",
          "type": "address"
        },
        {
          "indexed": true,
          "internalType": "address",
          "name": "receiver",
          "type": "address"
        },
        {
          "indexed": false,
          "internalType": "uint256",
          "name": "amount",
          "type": "uint256"
        }
      ],
      "name": "WithdrawTradingFees",
      "type": "event"
    },
    {
      "payable": false,
      "stateMutability": "nonpayable",
      "type": "fallback"
    },
    {
      "constant": true,
      "inputs": [],
      "name": "admin",
      "outputs": [
        {
          "internalType": "address",
          "name": "",
          "type": "address"
        }
      ],
      "payable": false,
      "stateMutability": "view",
      "type": "function"
    },
    {
      "constant": true,
      "inputs": [],
      "name": "affiliateFeePercent",
      "outputs": [
        {
          "internalType": "uint256",
          "name": "",
          "type": "uint256"
        }
      ],
      "payable": false,
      "stateMutability": "view",
      "type": "function"
    },
    {
      "constant": true,
      "inputs": [
        {
          "internalType": "address",
          "name": "",
          "type": "address"
        }
      ],
      "name": "affiliateRewardsHeld",
      "outputs": [
        {
          "internalType": "uint256",
          "name": "",
          "type": "uint256"
        }
      ],
      "payable": false,
      "stateMutability": "view",
      "type": "function"
    },
    {
      "constant": true,
      "inputs": [],
      "name": "affiliateTradingTokenFeePercent",
      "outputs": [
        {
          "internalType": "uint256",
          "name": "",
          "type": "uint256"
        }
      ],
      "payable": false,
      "stateMutability": "view",
      "type": "function"
    },
    {
      "constant": true,
      "inputs": [
        {
          "internalType": "address",
          "name": "",
          "type": "address"
        },
        {
          "internalType": "address",
          "name": "",
          "type": "address"
        }
      ],
      "name": "affiliatesReferrerBalances",
      "outputs": [
        {
          "internalType": "uint256",
          "name": "",
          "type": "uint256"
        }
      ],
      "payable": false,
      "stateMutability": "view",
      "type": "function"
    },
    {
      "constant": true,
      "inputs": [
        {
          "internalType": "address",
          "name": "",
          "type": "address"
        }
      ],
      "name": "affiliatesUserReferrer",
      "outputs": [
        {
          "internalType": "address",
          "name": "",
          "type": "address"
        }
      ],
      "payable": false,
      "stateMutability": "view",
      "type": "function"
    },
    {
      "constant": true,
      "inputs": [
        {
          "internalType": "address",
          "name": "",
          "type": "address"
        }
      ],
      "name": "borrowerNonce",
      "outputs": [
        {
          "internalType": "uint256",
          "name": "",
          "type": "uint256"
        }
      ],
      "payable": false,
      "stateMutability": "view",
      "type": "function"
    },
    {
      "constant": true,
      "inputs": [
        {
          "internalType": "address",
          "name": "",
          "type": "address"
        },
        {
          "internalType": "bytes32",
          "name": "",
          "type": "bytes32"
        }
      ],
      "name": "borrowerOrders",
      "outputs": [
        {
          "internalType": "uint256",
          "name": "lockedAmount",
          "type": "uint256"
        },
        {
          "internalType": "uint256",
          "name": "interestRate",
          "type": "uint256"
        },
        {
          "internalType": "uint256",
          "name": "minLoanTerm",
          "type": "uint256"
        },
        {
          "internalType": "uint256",
          "name": "maxLoanTerm",
          "type": "uint256"
        },
        {
          "internalType": "uint256",
          "name": "createdTimestamp",
          "type": "uint256"
        },
        {
          "internalType": "uint256",
          "name": "expirationTimestamp",
          "type": "uint256"
        }
      ],
      "payable": false,
      "stateMutability": "view",
      "type": "function"
    },
    {
      "constant": true,
      "inputs": [],
      "name": "borrowingFeePercent",
      "outputs": [
        {
          "internalType": "uint256",
          "name": "",
          "type": "uint256"
        }
      ],
      "payable": false,
      "stateMutability": "view",
      "type": "function"
    },
    {
      "constant": true,
      "inputs": [
        {
          "internalType": "address",
          "name": "",
          "type": "address"
        }
      ],
      "name": "borrowingFeeTokensHeld",
      "outputs": [
        {
          "internalType": "uint256",
          "name": "",
          "type": "uint256"
        }
      ],
      "payable": false,
      "stateMutability": "view",
      "type": "function"
    },
    {
      "constant": true,
      "inputs": [
        {
          "internalType": "address",
          "name": "",
          "type": "address"
        }
      ],
      "name": "borrowingFeeTokensPaid",
      "outputs": [
        {
          "internalType": "uint256",
          "name": "",
          "type": "uint256"
        }
      ],
      "payable": false,
      "stateMutability": "view",
      "type": "function"
    },
    {
      "constant": true,
      "inputs": [
        {
          "internalType": "bytes32",
          "name": "",
          "type": "bytes32"
        },
        {
          "internalType": "address",
          "name": "",
          "type": "address"
        }
      ],
      "name": "delegatedManagers",
      "outputs": [
        {
          "internalType": "bool",
          "name": "",
          "type": "bool"
        }
      ],
      "payable": false,
      "stateMutability": "view",
      "type": "function"
    },
    {
      "constant": false,
      "inputs": [
        {
          "internalType": "uint256",
          "name": "amount",
          "type": "uint256"
        }
      ],
      "name": "depositProtocolToken",
      "outputs": [],
      "payable": false,
      "stateMutability": "nonpayable",
      "type": "function"
    },
    {
      "constant": true,
      "inputs": [],
      "name": "feeRebatePercent",
      "outputs": [
        {
          "internalType": "uint256",
          "name": "",
          "type": "uint256"
        }
      ],
      "payable": false,
      "stateMutability": "view",
      "type": "function"
    },
    {
      "constant": true,
      "inputs": [],
      "name": "feesController",
      "outputs": [
        {
          "internalType": "address",
          "name": "",
          "type": "address"
        }
      ],
      "payable": false,
      "stateMutability": "view",
      "type": "function"
    },
    {
      "constant": true,
      "inputs": [],
      "name": "getDedicatedSOVRebate",
      "outputs": [
        {
          "internalType": "uint256",
          "name": "",
          "type": "uint256"
        }
      ],
      "payable": false,
      "stateMutability": "view",
      "type": "function"
    },
    {
      "constant": true,
      "inputs": [
        {
          "internalType": "address",
          "name": "sourceTokenAddress",
          "type": "address"
        },
        {
          "internalType": "address",
          "name": "destTokenAddress",
          "type": "address"
        }
      ],
      "name": "getDefaultPathConversion",
      "outputs": [
        {
          "internalType": "contract IERC20[]",
          "name": "",
          "type": "address[]"
        }
      ],
      "payable": false,
      "stateMutability": "view",
      "type": "function"
    },
    {
      "constant": true,
      "inputs": [],
      "name": "getFeeRebatePercent",
      "outputs": [
        {
          "internalType": "uint256",
          "name": "",
          "type": "uint256"
        }
      ],
      "payable": false,
      "stateMutability": "view",
      "type": "function"
    },
    {
      "constant": true,
      "inputs": [
        {
          "internalType": "uint256",
          "name": "start",
          "type": "uint256"
        },
        {
          "internalType": "uint256",
          "name": "count",
          "type": "uint256"
        }
      ],
      "name": "getLoanPoolsList",
      "outputs": [
        {
          "internalType": "bytes32[]",
          "name": "",
          "type": "bytes32[]"
        }
      ],
      "payable": false,
      "stateMutability": "view",
      "type": "function"
    },
    {
      "constant": true,
      "inputs": [],
      "name": "getLockedSOVAddress",
      "outputs": [
        {
          "internalType": "address",
          "name": "",
          "type": "address"
        }
      ],
      "payable": false,
      "stateMutability": "view",
      "type": "function"
    },
    {
      "constant": true,
      "inputs": [],
      "name": "getProtocolAddress",
      "outputs": [
        {
          "internalType": "address",
          "name": "",
          "type": "address"
        }
      ],
      "payable": false,
      "stateMutability": "view",
      "type": "function"
    },
    {
      "constant": true,
      "inputs": [],
      "name": "getSovTokenAddress",
      "outputs": [
        {
          "internalType": "address",
          "name": "",
          "type": "address"
        }
      ],
      "payable": false,
      "stateMutability": "view",
      "type": "function"
    },
    {
      "constant": true,
      "inputs": [
        {
          "internalType": "address",
          "name": "sourceTokenAddress",
          "type": "address"
        },
        {
          "internalType": "address",
          "name": "destTokenAddress",
          "type": "address"
        }
      ],
      "name": "getSpecialRebates",
      "outputs": [
        {
          "internalType": "uint256",
          "name": "specialRebatesPercent",
          "type": "uint256"
        }
      ],
      "payable": false,
      "stateMutability": "view",
      "type": "function"
    },
    {
      "constant": true,
      "inputs": [],
      "name": "getSwapExternalFeePercent",
      "outputs": [
        {
          "internalType": "uint256",
          "name": "",
          "type": "uint256"
        }
      ],
      "payable": false,
      "stateMutability": "view",
      "type": "function"
    },
    {
      "constant": true,
      "inputs": [],
      "name": "getTradingRebateRewardsBasisPoint",
      "outputs": [
        {
          "internalType": "uint256",
          "name": "",
          "type": "uint256"
        }
      ],
      "payable": false,
      "stateMutability": "view",
      "type": "function"
    },
    {
      "constant": false,
      "inputs": [
        {
          "internalType": "address",
          "name": "target",
          "type": "address"
        }
      ],
      "name": "initialize",
      "outputs": [],
      "payable": false,
      "stateMutability": "nonpayable",
      "type": "function"
    },
    {
      "constant": true,
      "inputs": [
        {
          "internalType": "address",
          "name": "loanPool",
          "type": "address"
        }
      ],
      "name": "isLoanPool",
      "outputs": [
        {
          "internalType": "bool",
          "name": "",
          "type": "bool"
        }
      ],
      "payable": false,
      "stateMutability": "view",
      "type": "function"
    },
    {
      "constant": true,
      "inputs": [],
      "name": "isOwner",
      "outputs": [
        {
          "internalType": "bool",
          "name": "",
          "type": "bool"
        }
      ],
      "payable": false,
      "stateMutability": "view",
      "type": "function"
    },
    {
      "constant": true,
      "inputs": [],
      "name": "isProtocolPaused",
      "outputs": [
        {
          "internalType": "bool",
          "name": "",
          "type": "bool"
        }
      ],
      "payable": false,
      "stateMutability": "view",
      "type": "function"
    },
    {
      "constant": true,
      "inputs": [
        {
          "internalType": "address",
          "name": "",
          "type": "address"
        },
        {
          "internalType": "address",
          "name": "",
          "type": "address"
        }
      ],
      "name": "lenderInterest",
      "outputs": [
        {
          "internalType": "uint256",
          "name": "principalTotal",
          "type": "uint256"
        },
        {
          "internalType": "uint256",
          "name": "owedPerDay",
          "type": "uint256"
        },
        {
          "internalType": "uint256",
          "name": "owedTotal",
          "type": "uint256"
        },
        {
          "internalType": "uint256",
          "name": "paidTotal",
          "type": "uint256"
        },
        {
          "internalType": "uint256",
          "name": "updatedTimestamp",
          "type": "uint256"
        }
      ],
      "payable": false,
      "stateMutability": "view",
      "type": "function"
    },
    {
      "constant": true,
      "inputs": [
        {
          "internalType": "address",
          "name": "",
          "type": "address"
        },
        {
          "internalType": "bytes32",
          "name": "",
          "type": "bytes32"
        }
      ],
      "name": "lenderOrders",
      "outputs": [
        {
          "internalType": "uint256",
          "name": "lockedAmount",
          "type": "uint256"
        },
        {
          "internalType": "uint256",
          "name": "interestRate",
          "type": "uint256"
        },
        {
          "internalType": "uint256",
          "name": "minLoanTerm",
          "type": "uint256"
        },
        {
          "internalType": "uint256",
          "name": "maxLoanTerm",
          "type": "uint256"
        },
        {
          "internalType": "uint256",
          "name": "createdTimestamp",
          "type": "uint256"
        },
        {
          "internalType": "uint256",
          "name": "expirationTimestamp",
          "type": "uint256"
        }
      ],
      "payable": false,
      "stateMutability": "view",
      "type": "function"
    },
    {
      "constant": true,
      "inputs": [],
      "name": "lendingFeePercent",
      "outputs": [
        {
          "internalType": "uint256",
          "name": "",
          "type": "uint256"
        }
      ],
      "payable": false,
      "stateMutability": "view",
      "type": "function"
    },
    {
      "constant": true,
      "inputs": [
        {
          "internalType": "address",
          "name": "",
          "type": "address"
        }
      ],
      "name": "lendingFeeTokensHeld",
      "outputs": [
        {
          "internalType": "uint256",
          "name": "",
          "type": "uint256"
        }
      ],
      "payable": false,
      "stateMutability": "view",
      "type": "function"
    },
    {
      "constant": true,
      "inputs": [
        {
          "internalType": "address",
          "name": "",
          "type": "address"
        }
      ],
      "name": "lendingFeeTokensPaid",
      "outputs": [
        {
          "internalType": "uint256",
          "name": "",
          "type": "uint256"
        }
      ],
      "payable": false,
      "stateMutability": "view",
      "type": "function"
    },
    {
      "constant": true,
      "inputs": [],
      "name": "liquidationIncentivePercent",
      "outputs": [
        {
          "internalType": "uint256",
          "name": "",
          "type": "uint256"
        }
      ],
      "payable": false,
      "stateMutability": "view",
      "type": "function"
    },
    {
      "constant": true,
      "inputs": [
        {
          "internalType": "bytes32",
          "name": "",
          "type": "bytes32"
        }
      ],
      "name": "loanInterest",
      "outputs": [
        {
          "internalType": "uint256",
          "name": "owedPerDay",
          "type": "uint256"
        },
        {
          "internalType": "uint256",
          "name": "depositTotal",
          "type": "uint256"
        },
        {
          "internalType": "uint256",
          "name": "updatedTimestamp",
          "type": "uint256"
        }
      ],
      "payable": false,
      "stateMutability": "view",
      "type": "function"
    },
    {
      "constant": true,
      "inputs": [
        {
          "internalType": "bytes32",
          "name": "",
          "type": "bytes32"
        }
      ],
      "name": "loanParams",
      "outputs": [
        {
          "internalType": "bytes32",
          "name": "id",
          "type": "bytes32"
        },
        {
          "internalType": "bool",
          "name": "active",
          "type": "bool"
        },
        {
          "internalType": "address",
          "name": "owner",
          "type": "address"
        },
        {
          "internalType": "address",
          "name": "loanToken",
          "type": "address"
        },
        {
          "internalType": "address",
          "name": "collateralToken",
          "type": "address"
        },
        {
          "internalType": "uint256",
          "name": "minInitialMargin",
          "type": "uint256"
        },
        {
          "internalType": "uint256",
          "name": "maintenanceMargin",
          "type": "uint256"
        },
        {
          "internalType": "uint256",
          "name": "maxLoanTerm",
          "type": "uint256"
        }
      ],
      "payable": false,
      "stateMutability": "view",
      "type": "function"
    },
    {
      "constant": true,
      "inputs": [
        {
          "internalType": "address",
          "name": "",
          "type": "address"
        }
      ],
      "name": "loanPoolToUnderlying",
      "outputs": [
        {
          "internalType": "address",
          "name": "",
          "type": "address"
        }
      ],
      "payable": false,
      "stateMutability": "view",
      "type": "function"
    },
    {
      "constant": true,
      "inputs": [
        {
          "internalType": "bytes32",
          "name": "",
          "type": "bytes32"
        }
      ],
      "name": "loans",
      "outputs": [
        {
          "internalType": "bytes32",
          "name": "id",
          "type": "bytes32"
        },
        {
          "internalType": "bytes32",
          "name": "loanParamsId",
          "type": "bytes32"
        },
        {
          "internalType": "bytes32",
          "name": "pendingTradesId",
          "type": "bytes32"
        },
        {
          "internalType": "bool",
          "name": "active",
          "type": "bool"
        },
        {
          "internalType": "uint256",
          "name": "principal",
          "type": "uint256"
        },
        {
          "internalType": "uint256",
          "name": "collateral",
          "type": "uint256"
        },
        {
          "internalType": "uint256",
          "name": "startTimestamp",
          "type": "uint256"
        },
        {
          "internalType": "uint256",
          "name": "endTimestamp",
          "type": "uint256"
        },
        {
          "internalType": "uint256",
          "name": "startMargin",
          "type": "uint256"
        },
        {
          "internalType": "uint256",
          "name": "startRate",
          "type": "uint256"
        },
        {
          "internalType": "address",
          "name": "borrower",
          "type": "address"
        },
        {
          "internalType": "address",
          "name": "lender",
          "type": "address"
        }
      ],
      "payable": false,
      "stateMutability": "view",
      "type": "function"
    },
    {
      "constant": true,
      "inputs": [],
      "name": "lockedSOVAddress",
      "outputs": [
        {
          "internalType": "address",
          "name": "",
          "type": "address"
        }
      ],
      "payable": false,
      "stateMutability": "view",
      "type": "function"
    },
    {
      "constant": true,
      "inputs": [
        {
          "internalType": "bytes4",
          "name": "",
          "type": "bytes4"
        }
      ],
      "name": "logicTargets",
      "outputs": [
        {
          "internalType": "address",
          "name": "",
          "type": "address"
        }
      ],
      "payable": false,
      "stateMutability": "view",
      "type": "function"
    },
    {
      "constant": true,
      "inputs": [],
      "name": "maxDisagreement",
      "outputs": [
        {
          "internalType": "uint256",
          "name": "",
          "type": "uint256"
        }
      ],
      "payable": false,
      "stateMutability": "view",
      "type": "function"
    },
    {
      "constant": true,
      "inputs": [],
      "name": "maxSwapSize",
      "outputs": [
        {
          "internalType": "uint256",
          "name": "",
          "type": "uint256"
        }
      ],
      "payable": false,
      "stateMutability": "view",
      "type": "function"
    },
    {
      "constant": true,
      "inputs": [],
      "name": "minReferralsToPayout",
      "outputs": [
        {
          "internalType": "uint256",
          "name": "",
          "type": "uint256"
        }
      ],
      "payable": false,
      "stateMutability": "view",
      "type": "function"
    },
    {
      "constant": true,
      "inputs": [],
      "name": "owner",
      "outputs": [
        {
          "internalType": "address",
          "name": "",
          "type": "address"
        }
      ],
      "payable": false,
      "stateMutability": "view",
      "type": "function"
    },
    {
      "constant": true,
      "inputs": [],
      "name": "pause",
      "outputs": [
        {
          "internalType": "bool",
          "name": "",
          "type": "bool"
        }
      ],
      "payable": false,
      "stateMutability": "view",
      "type": "function"
    },
    {
      "constant": true,
      "inputs": [],
      "name": "priceFeeds",
      "outputs": [
        {
          "internalType": "address",
          "name": "",
          "type": "address"
        }
      ],
      "payable": false,
      "stateMutability": "view",
      "type": "function"
    },
    {
      "constant": true,
      "inputs": [],
      "name": "protocolAddress",
      "outputs": [
        {
          "internalType": "address",
          "name": "",
          "type": "address"
        }
      ],
      "payable": false,
      "stateMutability": "view",
      "type": "function"
    },
    {
      "constant": true,
      "inputs": [],
      "name": "protocolTokenAddress",
      "outputs": [
        {
          "internalType": "address",
          "name": "",
          "type": "address"
        }
      ],
      "payable": false,
      "stateMutability": "view",
      "type": "function"
    },
    {
      "constant": true,
      "inputs": [],
      "name": "protocolTokenHeld",
      "outputs": [
        {
          "internalType": "uint256",
          "name": "",
          "type": "uint256"
        }
      ],
      "payable": false,
      "stateMutability": "view",
      "type": "function"
    },
    {
      "constant": true,
      "inputs": [],
      "name": "protocolTokenPaid",
      "outputs": [
        {
          "internalType": "uint256",
          "name": "",
          "type": "uint256"
        }
      ],
      "payable": false,
      "stateMutability": "view",
      "type": "function"
    },
    {
      "constant": false,
      "inputs": [
        {
          "internalType": "address",
          "name": "sourceTokenAddress",
          "type": "address"
        },
        {
          "internalType": "address",
          "name": "destTokenAddress",
          "type": "address"
        }
      ],
      "name": "removeDefaultPathConversion",
      "outputs": [],
      "payable": false,
      "stateMutability": "nonpayable",
      "type": "function"
    },
    {
      "constant": true,
      "inputs": [],
      "name": "rolloverBaseReward",
      "outputs": [
        {
          "internalType": "uint256",
          "name": "",
          "type": "uint256"
        }
      ],
      "payable": false,
      "stateMutability": "view",
      "type": "function"
    },
    {
      "constant": true,
      "inputs": [],
      "name": "rolloverFlexFeePercent",
      "outputs": [
        {
          "internalType": "uint256",
          "name": "",
          "type": "uint256"
        }
      ],
      "payable": false,
      "stateMutability": "view",
      "type": "function"
    },
    {
      "constant": false,
      "inputs": [
        {
          "internalType": "uint256",
          "name": "newValue",
          "type": "uint256"
        }
      ],
      "name": "setAffiliateFeePercent",
      "outputs": [],
      "payable": false,
      "stateMutability": "nonpayable",
      "type": "function"
    },
    {
      "constant": false,
      "inputs": [
        {
          "internalType": "uint256",
          "name": "newValue",
          "type": "uint256"
        }
      ],
      "name": "setAffiliateTradingTokenFeePercent",
      "outputs": [],
      "payable": false,
      "stateMutability": "nonpayable",
      "type": "function"
    },
    {
      "constant": false,
      "inputs": [
        {
          "internalType": "uint256",
          "name": "newValue",
          "type": "uint256"
        }
      ],
      "name": "setBorrowingFeePercent",
      "outputs": [],
      "payable": false,
      "stateMutability": "nonpayable",
      "type": "function"
    },
    {
      "constant": false,
      "inputs": [
        {
          "internalType": "contract IERC20[]",
          "name": "defaultPath",
          "type": "address[]"
        }
      ],
      "name": "setDefaultPathConversion",
      "outputs": [],
      "payable": false,
      "stateMutability": "nonpayable",
      "type": "function"
    },
    {
      "constant": false,
      "inputs": [
        {
          "internalType": "address",
          "name": "newController",
          "type": "address"
        }
      ],
      "name": "setFeesController",
      "outputs": [],
      "payable": false,
      "stateMutability": "nonpayable",
      "type": "function"
    },
    {
      "constant": false,
      "inputs": [
        {
          "internalType": "uint256",
          "name": "newValue",
          "type": "uint256"
        }
      ],
      "name": "setLendingFeePercent",
      "outputs": [],
      "payable": false,
      "stateMutability": "nonpayable",
      "type": "function"
    },
    {
      "constant": false,
      "inputs": [
        {
          "internalType": "uint256",
          "name": "newValue",
          "type": "uint256"
        }
      ],
      "name": "setLiquidationIncentivePercent",
      "outputs": [],
      "payable": false,
      "stateMutability": "nonpayable",
      "type": "function"
    },
    {
      "constant": false,
      "inputs": [
        {
          "internalType": "address[]",
          "name": "pools",
          "type": "address[]"
        },
        {
          "internalType": "address[]",
          "name": "assets",
          "type": "address[]"
        }
      ],
      "name": "setLoanPool",
      "outputs": [],
      "payable": false,
      "stateMutability": "nonpayable",
      "type": "function"
    },
    {
      "constant": false,
      "inputs": [
        {
          "internalType": "address",
          "name": "newLockedSOVAddress",
          "type": "address"
        }
      ],
      "name": "setLockedSOVAddress",
      "outputs": [],
      "payable": false,
      "stateMutability": "nonpayable",
      "type": "function"
    },
    {
      "constant": false,
      "inputs": [
        {
          "internalType": "uint256",
          "name": "newValue",
          "type": "uint256"
        }
      ],
      "name": "setMaxDisagreement",
      "outputs": [],
      "payable": false,
      "stateMutability": "nonpayable",
      "type": "function"
    },
    {
      "constant": false,
      "inputs": [
        {
          "internalType": "uint256",
          "name": "newValue",
          "type": "uint256"
        }
      ],
      "name": "setMaxSwapSize",
      "outputs": [],
      "payable": false,
      "stateMutability": "nonpayable",
      "type": "function"
    },
    {
      "constant": false,
      "inputs": [
        {
          "internalType": "uint256",
          "name": "newMinReferrals",
          "type": "uint256"
        }
      ],
      "name": "setMinReferralsToPayoutAffiliates",
      "outputs": [],
      "payable": false,
      "stateMutability": "nonpayable",
      "type": "function"
    },
    {
      "constant": false,
      "inputs": [
        {
          "internalType": "address",
          "name": "newContract",
          "type": "address"
        }
      ],
      "name": "setPriceFeedContract",
      "outputs": [],
      "payable": false,
      "stateMutability": "nonpayable",
      "type": "function"
    },
    {
      "constant": false,
      "inputs": [
        {
          "internalType": "address",
          "name": "_protocolTokenAddress",
          "type": "address"
        }
      ],
      "name": "setProtocolTokenAddress",
      "outputs": [],
      "payable": false,
      "stateMutability": "nonpayable",
      "type": "function"
    },
    {
      "constant": false,
      "inputs": [
        {
          "internalType": "uint256",
          "name": "rebatePercent",
          "type": "uint256"
        }
      ],
      "name": "setRebatePercent",
      "outputs": [],
      "payable": false,
      "stateMutability": "nonpayable",
      "type": "function"
    },
    {
      "constant": false,
      "inputs": [
        {
          "internalType": "uint256",
          "name": "baseRewardValue",
          "type": "uint256"
        }
      ],
      "name": "setRolloverBaseReward",
      "outputs": [],
      "payable": false,
      "stateMutability": "nonpayable",
      "type": "function"
    },
    {
      "constant": false,
      "inputs": [
        {
          "internalType": "uint256",
          "name": "newRolloverFlexFeePercent",
          "type": "uint256"
        }
      ],
      "name": "setRolloverFlexFeePercent",
      "outputs": [],
      "payable": false,
      "stateMutability": "nonpayable",
      "type": "function"
    },
    {
      "constant": false,
      "inputs": [
        {
          "internalType": "address",
          "name": "newSovTokenAddress",
          "type": "address"
        }
      ],
      "name": "setSOVTokenAddress",
      "outputs": [],
      "payable": false,
      "stateMutability": "nonpayable",
      "type": "function"
    },
    {
      "constant": false,
      "inputs": [
        {
          "internalType": "uint256",
          "name": "newValue",
          "type": "uint256"
        }
      ],
      "name": "setSourceBuffer",
      "outputs": [],
      "payable": false,
      "stateMutability": "nonpayable",
      "type": "function"
    },
    {
      "constant": false,
      "inputs": [
        {
          "internalType": "address",
          "name": "newProtocolAddress",
          "type": "address"
        }
      ],
      "name": "setSovrynProtocolAddress",
      "outputs": [],
      "payable": false,
      "stateMutability": "nonpayable",
      "type": "function"
    },
    {
      "constant": false,
      "inputs": [
        {
          "internalType": "address",
          "name": "registryAddress",
          "type": "address"
        }
      ],
      "name": "setSovrynSwapContractRegistryAddress",
      "outputs": [],
      "payable": false,
      "stateMutability": "nonpayable",
      "type": "function"
    },
    {
      "constant": false,
      "inputs": [
        {
          "internalType": "address",
          "name": "sourceToken",
          "type": "address"
        },
        {
          "internalType": "address",
          "name": "destToken",
          "type": "address"
        },
        {
          "internalType": "uint256",
          "name": "specialRebatesPercent",
          "type": "uint256"
        }
      ],
      "name": "setSpecialRebates",
      "outputs": [],
      "payable": false,
      "stateMutability": "nonpayable",
      "type": "function"
    },
    {
      "constant": false,
      "inputs": [
        {
          "internalType": "address[]",
          "name": "addrs",
          "type": "address[]"
        },
        {
          "internalType": "bool[]",
          "name": "toggles",
          "type": "bool[]"
        }
      ],
      "name": "setSupportedTokens",
      "outputs": [],
      "payable": false,
      "stateMutability": "nonpayable",
      "type": "function"
    },
    {
      "constant": false,
      "inputs": [
        {
          "internalType": "uint256",
          "name": "newValue",
          "type": "uint256"
        }
      ],
      "name": "setSwapExternalFeePercent",
      "outputs": [],
      "payable": false,
      "stateMutability": "nonpayable",
      "type": "function"
    },
    {
      "constant": false,
      "inputs": [
        {
          "internalType": "address",
          "name": "newContract",
          "type": "address"
        }
      ],
      "name": "setSwapsImplContract",
      "outputs": [],
      "payable": false,
      "stateMutability": "nonpayable",
      "type": "function"
    },
    {
      "constant": false,
      "inputs": [
        {
          "internalType": "uint256",
          "name": "newValue",
          "type": "uint256"
        }
      ],
      "name": "setTradingFeePercent",
      "outputs": [],
      "payable": false,
      "stateMutability": "nonpayable",
      "type": "function"
    },
    {
      "constant": false,
      "inputs": [
        {
          "internalType": "uint256",
          "name": "newBasisPoint",
          "type": "uint256"
        }
      ],
      "name": "setTradingRebateRewardsBasisPoint",
      "outputs": [],
      "payable": false,
      "stateMutability": "nonpayable",
      "type": "function"
    },
    {
      "constant": false,
      "inputs": [
        {
          "internalType": "address",
          "name": "wrbtcTokenAddress",
          "type": "address"
        }
      ],
      "name": "setWrbtcToken",
      "outputs": [],
      "payable": false,
      "stateMutability": "nonpayable",
      "type": "function"
    },
    {
      "constant": true,
      "inputs": [],
      "name": "sourceBuffer",
      "outputs": [
        {
          "internalType": "uint256",
          "name": "",
          "type": "uint256"
        }
      ],
      "payable": false,
      "stateMutability": "view",
      "type": "function"
    },
    {
      "constant": true,
      "inputs": [],
      "name": "sovTokenAddress",
      "outputs": [
        {
          "internalType": "address",
          "name": "",
          "type": "address"
        }
      ],
      "payable": false,
      "stateMutability": "view",
      "type": "function"
    },
    {
      "constant": true,
      "inputs": [],
      "name": "sovrynSwapContractRegistryAddress",
      "outputs": [
        {
          "internalType": "address",
          "name": "",
          "type": "address"
        }
      ],
      "payable": false,
      "stateMutability": "view",
      "type": "function"
    },
    {
      "constant": true,
      "inputs": [
        {
          "internalType": "address",
          "name": "",
          "type": "address"
        },
        {
          "internalType": "address",
          "name": "",
          "type": "address"
        }
      ],
      "name": "specialRebates",
      "outputs": [
        {
          "internalType": "uint256",
          "name": "",
          "type": "uint256"
        }
      ],
      "payable": false,
      "stateMutability": "view",
      "type": "function"
    },
    {
      "constant": true,
      "inputs": [
        {
          "internalType": "address",
          "name": "",
          "type": "address"
        }
      ],
      "name": "supportedTokens",
      "outputs": [
        {
          "internalType": "bool",
          "name": "",
          "type": "bool"
        }
      ],
      "payable": false,
      "stateMutability": "view",
      "type": "function"
    },
    {
      "constant": true,
      "inputs": [],
      "name": "swapsImpl",
      "outputs": [
        {
          "internalType": "address",
          "name": "",
          "type": "address"
        }
      ],
      "payable": false,
      "stateMutability": "view",
      "type": "function"
    },
    {
      "constant": false,
      "inputs": [
        {
          "internalType": "bool",
          "name": "paused",
          "type": "bool"
        }
      ],
      "name": "togglePaused",
      "outputs": [],
      "payable": false,
      "stateMutability": "nonpayable",
      "type": "function"
    },
    {
      "constant": true,
      "inputs": [],
      "name": "tradingFeePercent",
      "outputs": [
        {
          "internalType": "uint256",
          "name": "",
          "type": "uint256"
        }
      ],
      "payable": false,
      "stateMutability": "view",
      "type": "function"
    },
    {
      "constant": true,
      "inputs": [
        {
          "internalType": "address",
          "name": "",
          "type": "address"
        }
      ],
      "name": "tradingFeeTokensHeld",
      "outputs": [
        {
          "internalType": "uint256",
          "name": "",
          "type": "uint256"
        }
      ],
      "payable": false,
      "stateMutability": "view",
      "type": "function"
    },
    {
      "constant": true,
      "inputs": [
        {
          "internalType": "address",
          "name": "",
          "type": "address"
        }
      ],
      "name": "tradingFeeTokensPaid",
      "outputs": [
        {
          "internalType": "uint256",
          "name": "",
          "type": "uint256"
        }
      ],
      "payable": false,
      "stateMutability": "view",
      "type": "function"
    },
    {
      "constant": false,
      "inputs": [
        {
          "internalType": "address",
          "name": "newOwner",
          "type": "address"
        }
      ],
      "name": "transferOwnership",
      "outputs": [],
      "payable": false,
      "stateMutability": "nonpayable",
      "type": "function"
    },
    {
      "constant": true,
      "inputs": [
        {
          "internalType": "address",
          "name": "",
          "type": "address"
        }
      ],
      "name": "underlyingToLoanPool",
      "outputs": [
        {
          "internalType": "address",
          "name": "",
          "type": "address"
        }
      ],
      "payable": false,
      "stateMutability": "view",
      "type": "function"
    },
    {
      "constant": true,
      "inputs": [
        {
          "internalType": "address",
          "name": "",
          "type": "address"
        }
      ],
      "name": "userNotFirstTradeFlag",
      "outputs": [
        {
          "internalType": "bool",
          "name": "",
          "type": "bool"
        }
      ],
      "payable": false,
      "stateMutability": "view",
      "type": "function"
    },
    {
      "constant": false,
      "inputs": [
        {
          "internalType": "address",
          "name": "token",
          "type": "address"
        },
        {
          "internalType": "address",
          "name": "receiver",
          "type": "address"
        },
        {
          "internalType": "uint256",
          "name": "amount",
          "type": "uint256"
        }
      ],
      "name": "withdrawBorrowingFees",
      "outputs": [
        {
          "internalType": "bool",
          "name": "",
          "type": "bool"
        }
      ],
      "payable": false,
      "stateMutability": "nonpayable",
      "type": "function"
    },
    {
      "constant": false,
      "inputs": [
        {
          "internalType": "address[]",
          "name": "tokens",
          "type": "address[]"
        },
        {
          "internalType": "address",
          "name": "receiver",
          "type": "address"
        }
      ],
      "name": "withdrawFees",
      "outputs": [
        {
          "internalType": "uint256",
          "name": "totalWRBTCWithdrawn",
          "type": "uint256"
        }
      ],
      "payable": false,
      "stateMutability": "nonpayable",
      "type": "function"
    },
    {
      "constant": false,
      "inputs": [
        {
          "internalType": "address",
          "name": "token",
          "type": "address"
        },
        {
          "internalType": "address",
          "name": "receiver",
          "type": "address"
        },
        {
          "internalType": "uint256",
          "name": "amount",
          "type": "uint256"
        }
      ],
      "name": "withdrawLendingFees",
      "outputs": [
        {
          "internalType": "bool",
          "name": "",
          "type": "bool"
        }
      ],
      "payable": false,
      "stateMutability": "nonpayable",
      "type": "function"
    },
    {
      "constant": false,
      "inputs": [
        {
          "internalType": "address",
          "name": "receiver",
          "type": "address"
        },
        {
          "internalType": "uint256",
          "name": "amount",
          "type": "uint256"
        }
      ],
      "name": "withdrawProtocolToken",
      "outputs": [
        {
          "internalType": "address",
          "name": "",
          "type": "address"
        },
        {
          "internalType": "bool",
          "name": "",
          "type": "bool"
        }
      ],
      "payable": false,
      "stateMutability": "nonpayable",
      "type": "function"
    },
    {
      "constant": false,
      "inputs": [
        {
          "internalType": "address",
          "name": "token",
          "type": "address"
        },
        {
          "internalType": "address",
          "name": "receiver",
          "type": "address"
        },
        {
          "internalType": "uint256",
          "name": "amount",
          "type": "uint256"
        }
      ],
      "name": "withdrawTradingFees",
      "outputs": [
        {
          "internalType": "bool",
          "name": "",
          "type": "bool"
        }
      ],
      "payable": false,
      "stateMutability": "nonpayable",
      "type": "function"
    },
    {
      "constant": true,
      "inputs": [],
      "name": "wrbtcToken",
      "outputs": [
        {
          "internalType": "contract IWrbtcERC20",
          "name": "",
          "type": "address"
        }
      ],
      "payable": false,
      "stateMutability": "view",
      "type": "function"
    }
  ],
  "bytecode": {
    "object": "0x60806040526001600055678ac7230489e80000601555670214e8348c4f000060185567013fbe85edc90000601b55674563918244f40000602055674563918244f40000602155674563918244f400006027556127106028556802b5e3af16b1880000602955650f478e084000602b5567016345785d8a0000602c556802b5e3af16b1880000602f5560036035556801158e460913d00000603955348015620000a657600080fd5b506000620000bc6001600160e01b036200011016565b600180546001600160a01b0319166001600160a01b038316908117909155604051919250906000907f8be0079c531659141344cd1fd0a4f28419497f9722a3daafe3b4186f6b6457e0908290a35062000114565b3390565b61557380620001246000396000f3fe608060405234801561001057600080fd5b50600436106105b75760003560e01c80638f32d59b11610300578063cd5d808d116101a8578063e8997dbd116100f4578063f44942ec116100ad578063f6ddc8b311610087578063f6ddc8b314610c65578063f706b1f214610c6d578063f7e7aab014610c75578063f851a44014610c88576105b7565b8063f44942ec14610c42578063f589a3e714610c4a578063f695379a14610c52576105b7565b8063e8997dbd14610bf1578063e8f6276414610c04578063ea0e393014610c0c578063edab119f14610c1f578063f0e085f514610c27578063f2fde38b14610c2f576105b7565b8063d7480e2111610161578063dac885611161013b578063dac8856114610bbb578063dfdddc9914610bc3578063e3ff937014610bd6578063e419648014610be9576105b7565b8063d7480e2114610b82578063d9eaaa6414610b95578063da541e0914610ba8576105b7565b8063cd5d808d14610b26578063d21f8e2414610b39578063d238db2214610b4c578063d288208c14610b5f578063d473c2da14610b67578063d485045e14610b6f576105b7565b8063afe8400911610267578063ba4861e911610220578063c4a90815116101fa578063c4a9081514610aae578063c4d66de814610ad9578063c7c333f014610aec578063cb6eacd114610aff576105b7565b8063ba4861e914610a8b578063bdee453c14610a93578063c22552f714610aa6576105b7565b8063afe8400914610a22578063b1558b7214610a37578063b1ac89ca14610a4a578063b30643d914610a5d578063b7e1524114610a70578063b9cffa3e14610a83576105b7565b8063a1eb5683116102b9578063a1eb5683146109c6578063a2ab1ba1146109d9578063a32bb683146109ec578063a6e7cc28146109ff578063acc0434814610a12578063ae0a853014610a1a576105b7565b80638f32d59b1461095c5780639254e6bf1461096457806392d894f814610977578063959083d31461098a57806396881857146109925780639c53874f146109b3576105b7565b8063462096f3116104635780636fbae33b116103ca5780637a8faeb81161038357806384eaa9e01161035d57806384eaa9e01461090e57806386540429146109215780638da5cb5b146109415780638dc48ba514610949576105b7565b80637a8faeb8146108eb5780637fb202e5146108f35780638456cb5914610906576105b7565b80636fbae33b1461089a5780637420ca3e146108ad578063742e6798146108b557806374326e8f146108bd57806374626404146108d057806378d849ed146108e3576105b7565b8063574442cc1161041c578063574442cc1461082257806359d0d9ec1461082a57806359e49e0f1461083d57806362fff3f61461085057806368c4ac26146108745780636e66373014610887576105b7565b8063462096f3146107cd5780634699f846146107d55780634bcfe726146107dd5780634dd053a5146107e55780634f28cac2146107f8578063569fc1fb14610800576105b7565b80632a32402711610522578063355a395f116104db5780633fca506e116104b55780633fca506e14610774578063402946b9146107875780634115a2b6146107a75780634203e395146107ba576105b7565b8063355a395f146107465780633c56ae1b146107595780633f1ae8b91461076c576105b7565b80632a324027146106ea5780632d77d0d0146106f25780632f4707641461070557806332e4706f1461070d5780633432423c146107205780633452d2d414610733576105b7565b806317f8b7881161057457806317f8b7881461066b5780631a81c1911461067e5780631b7bde7414610691578063218b39c6146106b157806324cc5749146106c457806329f9986d146106d7576105b7565b8063065d810f146105d85780630676c1b71461060657806307024c251461061b5780630c615ee914610623578063115dd4b11461063857806317548b7914610658575b60405162461bcd60e51b81526004016105cf906152e1565b60405180910390fd5b6105eb6105e6366004614580565b610c90565b6040516105fd969594939291906153f1565b60405180910390f35b61060e610cd0565b6040516105fd9190614eda565b61060e610cdf565b6106366106313660046146e9565b610cef565b005b61064b6106463660046144db565b610da7565b6040516105fd9190615077565b61060e610666366004614726565b610dc7565b6106366106793660046146e9565b610de2565b61063661068c3660046144db565b610e8e565b6106a461069f3660046144f9565b610f2a565b6040516105fd9190615361565b61060e6106bf3660046144db565b610f47565b61064b6106d23660046144db565b610f62565b6106366106e53660046146e9565b610f77565b6106a4611023565b6106366107003660046144db565b611029565b6106a46110eb565b61064b61071b366004614533565b6110f1565b6105eb61072e366004614580565b61124d565b6106a46107413660046144db565b61128d565b6106366107543660046146e9565b61129f565b6106366107673660046146e9565b611322565b6106a46113a0565b6106a46107823660046144db565b6113a6565b61079a610795366004614780565b6113b8565b6040516105fd9190615043565b61064b6107b5366004614707565b6113d5565b6106a46107c83660046144db565b6113f5565b6106a4611407565b6106a461140d565b61060e611413565b6106366107f33660046144db565b611422565b6106a46114e2565b61081361080e3660046146e9565b6114e8565b6040516105fd9392919061537d565b6106a4611509565b6106a46108383660046144f9565b61150f565b61063661084b3660046145fb565b61153a565b61086361085e3660046144f9565b6119ea565b6040516105fd9594939291906153d6565b61064b6108823660046144db565b611a24565b61060e6108953660046144db565b611a39565b6106366108a83660046144db565b611a54565b61060e611b14565b6106a4611b23565b61064b6108cb366004614533565b611b29565b6106366108de3660046144db565b611c6f565b61060e611d0b565b6106a4611d1a565b6106366109013660046146e9565b611d20565b61064b611d6c565b61063661091c3660046145fb565b611d75565b61093461092f3660046144f9565b611ede565b6040516105fd9190615066565b61060e611f5e565b61060e6109573660046144db565b611f6d565b61064b611f88565b6106366109723660046144db565b611fae565b6106a46109853660046144db565b612049565b6106a461205b565b6109a56109a0366004614580565b612061565b6040516105fd929190614ff2565b6106366109c13660046146e9565b6120c1565b6106366109d43660046146e9565b61216d565b6106366109e73660046146e9565b612212565b6106366109fa3660046146e9565b6122be565b610636610a0d3660046146e9565b61236a565b6106a46123b6565b6106a46123bc565b610a2a6123c2565b6040516105fd91906151a2565b610636610a453660046146e9565b6123d1565b61064b610a58366004614533565b612474565b6106a4610a6b3660046144db565b6125ba565b6106a4610a7e3660046144db565b6125cc565b61060e6125de565b61060e6125ed565b6106a4610aa13660046144db565b6125fc565b6106a461260e565b610ac1610abc3660046146e9565b612710565b6040516105fd9c9b9a999897969594939291906150ef565b610636610ae73660046144db565b612782565b610636610afa3660046146e9565b612b65565b610b12610b0d3660046146e9565b612be8565b6040516105fd989796959493929190615085565b6106a4610b343660046144f9565b612c3a565b610636610b473660046146e9565b612c57565b610636610b5a3660046146e9565b612d03565b61060e612daf565b6106a4612dbe565b6106a4610b7d3660046144db565b612dc4565b610636610b9036600461466b565b612dd6565b610636610ba33660046144db565b612f75565b610636610bb63660046146ad565b613034565b61064b6130c4565b610636610bd13660046144f9565b6130cd565b610636610be43660046144db565b61325a565b6106a461331a565b610636610bff3660046144db565b613320565b61060e6133bb565b610636610c1a366004614533565b6133ca565b6106a46134af565b6106a46134b5565b610636610c3d3660046144db565b6134bb565b61060e6134e8565b6106a46134f7565b610636610c603660046146e9565b6134fd565b6106a46135a8565b61060e6135ae565b6106a4610c833660046145b0565b6135bd565b61060e613db7565b6009602090815260009283526040808420909152908252902080546001820154600283015460038401546004850154600590950154939492939192909186565b6031546001600160a01b031681565b6031546001600160a01b03165b90565b610cf7611f88565b610d135760405162461bcd60e51b81526004016105cf906152d1565b603d5460ff1615610d365760405162461bcd60e51b81526004016105cf906151d1565b68056bc75e2d63100000811115610d5f5760405162461bcd60e51b81526004016105cf90615291565b601880549082905560405133907f0628070e9ccbc70e8be34a2fa969f8d314ec049f17bfcb4c2020df4bccd2bf5290610d9b908490869061536f565b60405180910390a25050565b6001600160a01b0390811660009081526022602052604090205416151590565b6005602052600090815260409020546001600160a01b031681565b610dea611f88565b610e065760405162461bcd60e51b81526004016105cf906152d1565b603d5460ff1615610e295760405162461bcd60e51b81526004016105cf906151d1565b68056bc75e2d63100000811115610e525760405162461bcd60e51b81526004016105cf90615291565b601b80549082905560405133907f5c61c9c51cb2781bc120817a851f7f27c134d5d191bc5a2b0ea971ba638425e490610d9b908490869061536f565b610e96611f88565b610eb25760405162461bcd60e51b81526004016105cf906152d1565b603d5460ff1615610ed55760405162461bcd60e51b81526004016105cf906151d1565b600380546001600160a01b038381166001600160a01b031983161790925560405191169033907f480cc6e59585343a9e9d6fe591dad0f80ce93bb2399ca672910f380671b46ba890610d9b9084908690614ee8565b603b60209081526000928352604080842090915290825290205481565b6023602052600090815260409020546001600160a01b031681565b60326020526000908152604090205460ff1681565b610f7f611f88565b610f9b5760405162461bcd60e51b81526004016105cf906152d1565b603d5460ff1615610fbe5760405162461bcd60e51b81526004016105cf906151d1565b68056bc75e2d63100000811115610fe75760405162461bcd60e51b81526004016105cf90615291565b603e80549082905560405133907f02bd69d9975fcf3b39b6ab502d77983a0cfce893e47073f502d094c6a94da33b90610d9b908490869061536f565b60185481565b611031611f88565b61104d5760405162461bcd60e51b81526004016105cf906152d1565b603d5460ff16156110705760405162461bcd60e51b81526004016105cf906151d1565b61107981613dc6565b6110955760405162461bcd60e51b81526004016105cf906152a1565b600480546001600160a01b038381166001600160a01b031983161792839055604051918116921690829033907f54c538f1d732806e1bfc25ec56236dac39e6070dd856c0e7efb2bc274709467d90600090a45050565b601f5481565b603d5460009060ff16156111175760405162461bcd60e51b81526004016105cf906151d1565b6014546001600160a01b031633146111415760405162461bcd60e51b81526004016105cf906152d1565b6001600160a01b0384166000908152601c6020526040902054829080821115611168578091505b8161117857600092505050611246565b611188818363ffffffff613e0216565b6001600160a01b0387166000908152601c6020908152604080832093909355601d905220546111bd908363ffffffff613e4416565b6001600160a01b0387166000818152601d60205260409020919091556111ea90868463ffffffff613e6916565b846001600160a01b0316866001600160a01b0316336001600160a01b03167f2bfaa669aeee298bc85fe2b7dddc312fc28b78622f086063b9a410d7ba9939cf856040516112379190615361565b60405180910390a46001925050505b9392505050565b6008602090815260009283526040808420909152908252902080546001820154600283015460038401546004850154600590950154939492939192909186565b601a6020526000908152604090205481565b6112a7611f88565b6112c35760405162461bcd60e51b81526004016105cf906152d1565b603d5460ff16156112e65760405162461bcd60e51b81526004016105cf906151d1565b602980549082905560405133907fa645d7b227c34f1f218d53bc3b3ccb9a43eaf2231b33925194f1de755aa3acc390610d9b908490869061536f565b61132a611f88565b6113465760405162461bcd60e51b81526004016105cf906152d1565b603d5460ff16156113695760405162461bcd60e51b81526004016105cf906151d1565b601e5461137c908263ffffffff613e4416565b601e55602e5461139d906001600160a01b031633308463ffffffff613ec716565b50565b602f5490565b602a6020526000908152604090205481565b60606113cc6024848463ffffffff613ef116565b90505b92915050565b600a60209081526000928352604080842090915290825290205460ff1681565b60166020526000908152604090205481565b603e5490565b60155481565b6037546001600160a01b031690565b61142a611f88565b6114465760405162461bcd60e51b81526004016105cf906152d1565b603d5460ff16156114695760405162461bcd60e51b81526004016105cf906151d1565b61147281613dc6565b61148e5760405162461bcd60e51b81526004016105cf906151f1565b603880546001600160a01b038381166001600160a01b03198316811790935560405191169190829033907fea3cad8b6739a7a73616cb585fe48a8e8f61d1fd7f9822ccd7580a805357aa7090600090a45050565b60295481565b600c6020526000908152604090208054600182015460029092015490919083565b602b5481565b6001600160a01b039182166000908152603c6020908152604080832093909416825291909152205490565b611542611f88565b61155e5760405162461bcd60e51b81526004016105cf906152d1565b603d5460ff16156115815760405162461bcd60e51b81526004016105cf906151d1565b8281146115a05760405162461bcd60e51b81526004016105cf90615261565b60005b838110156119e3578282828181106115b757fe5b90506020020160206115cc91908101906144db565b6001600160a01b03168585838181106115e157fe5b90506020020160206115f691908101906144db565b6001600160a01b0316141561161d5760405162461bcd60e51b81526004016105cf90615301565b600085858381811061162b57fe5b905060200201602061164091908101906144db565b6001600160a01b031614156116675760405162461bcd60e51b81526004016105cf90615351565b600083838381811061167557fe5b905060200201602061168a91908101906144db565b6001600160a01b03161415806116e1575060006022818787858181106116ac57fe5b90506020020160206116c191908101906144db565b6001600160a01b0390811682526020820192909252604001600020541614155b6116fd5760405162461bcd60e51b81526004016105cf906152b1565b600083838381811061170b57fe5b905060200201602061172091908101906144db565b6001600160a01b0316141561182f576000602360006022600089898781811061174557fe5b905060200201602061175a91908101906144db565b6001600160a01b0390811682526020808301939093526040918201600090812054821685529284019490945291909101812080546001600160a01b031916939092169290921790556022818787858181106117b157fe5b90506020020160206117c691908101906144db565b6001600160a01b039081168252602082019290925260400160002080546001600160a01b0319169290911691909117905561182985858381811061180657fe5b905060200201602061181b91908101906144db565b60249063ffffffff613fc716565b50611951565b82828281811061183b57fe5b905060200201602061185091908101906144db565b6022600087878581811061186057fe5b905060200201602061187591908101906144db565b6001600160a01b039081168252602082019290925260400160002080546001600160a01b031916929091169190911790558484828181106118b257fe5b90506020020160206118c791908101906144db565b602360008585858181106118d757fe5b90506020020160206118ec91908101906144db565b6001600160a01b039081168252602082019290925260400160002080546001600160a01b0319169290911691909117905561194f85858381811061192c57fe5b905060200201602061194191908101906144db565b60249063ffffffff613fd416565b505b82828281811061195d57fe5b905060200201602061197291908101906144db565b6001600160a01b031685858381811061198757fe5b905060200201602061199c91908101906144db565b6001600160a01b0316336001600160a01b03167f919223d371e0ad76f1f32dcbe0750166810bff9a9e4b2735bfcd01c5686c8d8960405160405180910390a46001016115a3565b5050505050565b600b602090815260009283526040808420909152908252902080546001820154600283015460038401546004909401549293919290919085565b60266020526000908152604090205460ff1681565b6033602052600090815260409020546001600160a01b031681565b611a5c611f88565b611a785760405162461bcd60e51b81526004016105cf906152d1565b603d5460ff1615611a9b5760405162461bcd60e51b81526004016105cf906151d1565b611aa481613dc6565b611ac05760405162461bcd60e51b81526004016105cf90615251565b603780546001600160a01b038381166001600160a01b03198316811790935560405191169190829033907f6105cbfb5494a79f89745763767914b7b60b00defac5e94c7eb28cc5e44c479f90600090a45050565b6003546001600160a01b031681565b60355481565b603d5460009060ff1615611b4f5760405162461bcd60e51b81526004016105cf906151d1565b6014546001600160a01b03163314611b795760405162461bcd60e51b81526004016105cf906152d1565b6001600160a01b038416600090815260196020526040902054829080821115611ba0578091505b81611bb057600092505050611246565b611bc0818363ffffffff613e0216565b6001600160a01b038716600090815260196020908152604080832093909355601a90522054611bf5908363ffffffff613e4416565b6001600160a01b0387166000818152601a6020526040902091909155611c2290868463ffffffff613e6916565b846001600160a01b0316866001600160a01b0316336001600160a01b03167f951f1856a4d1d8c0081f50a1aee9fdc008f729d0f22849618016e353179b8dda856040516112379190615361565b611c77611f88565b611c935760405162461bcd60e51b81526004016105cf906152d1565b603d5460ff1615611cb65760405162461bcd60e51b81526004016105cf906151d1565b600280546001600160a01b038381166001600160a01b031983161790925560405191169033907f05621ab0b721f217895f5337ac1283251172d175ef3dc8c9a0287155f6024ce890610d9b9084908690614ee8565b6002546001600160a01b031681565b601e5481565b611d28611f88565b611d445760405162461bcd60e51b81526004016105cf906152d1565b603d5460ff1615611d675760405162461bcd60e51b81526004016105cf906151d1565b602755565b603d5460ff1681565b611d7d611f88565b611d995760405162461bcd60e51b81526004016105cf906152d1565b603d5460ff1615611dbc5760405162461bcd60e51b81526004016105cf906151d1565b828114611ddb5760405162461bcd60e51b81526004016105cf90615261565b60005b838110156119e357828282818110611df257fe5b9050602002016020611e0791908101906146ad565b60266000878785818110611e1757fe5b9050602002016020611e2c91908101906144db565b6001600160a01b031681526020810191909152604001600020805460ff1916911515919091179055848482818110611e6057fe5b9050602002016020611e7591908101906144db565b6001600160a01b0316337f24cecc90c7d4bc8c6765b75eedcc61d4e1cc4e4d49cd0756c6dfb5f6cc259b50858585818110611eac57fe5b9050602002016020611ec191908101906146ad565b604051611ece9190615077565b60405180910390a3600101611dde565b6001600160a01b038083166000908152604060208181528183209385168352928352908190208054825181850281018501909352808352606093830182828015611f5157602002820191906000526020600020905b81546001600160a01b03168152600190910190602001808311611f33575b5050505050905092915050565b6001546001600160a01b031690565b6022602052600090815260409020546001600160a01b031681565b6001546000906001600160a01b0316611f9f613fe1565b6001600160a01b031614905090565b611fb6611f88565b611fd25760405162461bcd60e51b81526004016105cf906152d1565b603d5460ff1615611ff55760405162461bcd60e51b81526004016105cf906151d1565b603180546001600160a01b038381166001600160a01b03198316811790935560405191169190829033907fe48b1893efaee62da0749dd98dbf0ea62ee472b37f7205114aca36cc9de1122890600090a45050565b60176020526000908152604090205481565b602c5481565b60008061206c611f88565b6120885760405162461bcd60e51b81526004016105cf906152d1565b603d5460ff16156120ab5760405162461bcd60e51b81526004016105cf906151d1565b6120b58484613fe5565b915091505b9250929050565b6120c9611f88565b6120e55760405162461bcd60e51b81526004016105cf906152d1565b603d5460ff16156121085760405162461bcd60e51b81526004016105cf906151d1565b68056bc75e2d631000008111156121315760405162461bcd60e51b81526004016105cf90615221565b602f80549082905560405133907fb12d68e20e5279e25ff10edfc0f82deaa858ea2ac9874cf58518f4e5f942201390610d9b908490869061536f565b612175611f88565b6121915760405162461bcd60e51b81526004016105cf906152d1565b603d5460ff16156121b45760405162461bcd60e51b81526004016105cf906151d1565b61270f8111156121d65760405162461bcd60e51b81526004016105cf90615291565b603f80549082905560405133907fc6d322dc6668f20ff04ac11b217aae8e8704e6388bd1dececeab1059db806bf690610d9b908490869061536f565b61221a611f88565b6122365760405162461bcd60e51b81526004016105cf906152d1565b603d5460ff16156122595760405162461bcd60e51b81526004016105cf906151d1565b68056bc75e2d631000008111156122825760405162461bcd60e51b81526004016105cf90615291565b602180549082905560405133907fa06d9b7b1c979150dcbf5b050626cc7d06c764a12ebf76ec8d16b8d3d7c9ee5390610d9b908490869061536f565b6122c6611f88565b6122e25760405162461bcd60e51b81526004016105cf906152d1565b603d5460ff16156123055760405162461bcd60e51b81526004016105cf906151d1565b68056bc75e2d6310000081111561232e5760405162461bcd60e51b81526004016105cf90615291565b603980549082905560405133907f61d3e840cf1074298f10fa77edb788b4e5e554d7d135c93ac5f38f2ce0f6b52d90610d9b908490869061536f565b612372611f88565b61238e5760405162461bcd60e51b81526004016105cf906152d1565b603d5460ff16156123b15760405162461bcd60e51b81526004016105cf906151d1565b602855565b602f5481565b60205481565b602d546001600160a01b031681565b6123d9611f88565b6123f55760405162461bcd60e51b81526004016105cf906152d1565b603d5460ff16156124185760405162461bcd60e51b81526004016105cf906151d1565b600081116124385760405162461bcd60e51b81526004016105cf906151e1565b602b80549082905560405133907f13cb748cec5c5021a23ec7994522a0911f24f10fdabc909281fbe95914b782f090610d9b908490869061536f565b603d5460009060ff161561249a5760405162461bcd60e51b81526004016105cf906151d1565b6014546001600160a01b031633146124c45760405162461bcd60e51b81526004016105cf906152d1565b6001600160a01b0384166000908152601660205260409020548290808211156124eb578091505b816124fb57600092505050611246565b61250b818363ffffffff613e0216565b6001600160a01b038716600090815260166020908152604080832093909355601790522054612540908363ffffffff613e4416565b6001600160a01b03871660008181526017602052604090209190915561256d90868463ffffffff613e6916565b846001600160a01b0316866001600160a01b0316336001600160a01b03167fabc20bdd02de91df32a6e4a11684e26e0a34dc5a895a314ae51a919bc9f62c60856040516112379190615361565b601d6020526000908152604090205481565b601c6020526000908152604090205481565b6037546001600160a01b031681565b6004546001600160a01b031681565b60366020526000908152604090205481565b6037546040516370a0823160e01b815260009182916001600160a01b03909116906370a0823190612643903090600401614eda565b60206040518083038186803b15801561265b57600080fd5b505afa15801561266f573d6000803e3d6000fd5b505050506040513d601f19601f820116820180604052506126939190810190614762565b6037546001600160a01b03166000908152601c6020908152604080832054601983528184205460169093529083205493945091926126e892916126dc919063ffffffff613e4416565b9063ffffffff613e4416565b9050808210156126f9576000612709565b612709828263ffffffff613e0216565b9250505090565b600660208190526000918252604090912080546001820154600283015460038401546004850154600586015496860154600787015460088801546009890154600a8a0154600b909a0154989a9799969860ff909616979496949593949293919290916001600160a01b0391821691168c565b61278a611f88565b6127a65760405162461bcd60e51b81526004016105cf906152d1565b631d18990160e21b600081905260056020527fe1ae43de9a4a3eb1abb1a58087a8aff0717a77c07be9f83ced74911b33b030e3546001600160a01b0316906127ee9083614062565b6127ff631a81c19160e01b83614062565b6128106359e49e0f60e01b83614062565b612821630427554f60e51b83614062565b61283263691c6d9160e11b83614062565b612843630c615ee960e01b83614062565b6128546302ff16f160e31b83614062565b6128656329f9986d60e01b83614062565b612876633487e38960e21b83614062565b61288763a32bb68360e01b83614062565b61289863a2ab1ba160e01b83614062565b6128a9637fb202e560e01b83614062565b6128ba6314dcf98560e31b83614062565b6128cb63355a395f60e01b83614062565b6128dc63e8997dbd60e01b83614062565b6128ed630f7e7aab60e41b83614062565b6128fe6358d644e560e11b83614062565b61290f6374326e8f60e01b83614062565b6129206332e4706f60e01b83614062565b612931639688185760e01b83614062565b612942633c56ae1b60e01b83614062565b61295363402946b960e01b83614062565b61296463115dd4b160e01b83614062565b6129756302d77d0d60e41b83614062565b61298663367aaa9960e21b83614062565b612997630e3ff93760e41b83614062565b6129a86358aac5b960e11b83614062565b6129b9639c53874f60e01b83614062565b6129ca630ea0e39360e41b83614062565b6129db639254e6bf60e01b83614062565b6129ec636fbae33b60e01b83614062565b6129fd634dd053a560e01b83614062565b612a0e630c7c333f60e41b83614062565b612a1f631674367b60e21b83614062565b612a306307024c2560e01b83614062565b612a416325e7f39360e11b83614062565b612a52633d1250bb60e21b83614062565b612a63633f1ae8b960e01b83614062565b612a7463da541e0960e01b83614062565b612a8563dac8856160e01b83614062565b612a9663462096f360e01b83614062565b612aa763a1eb568360e01b83614062565b612ab86301c832c960e71b83614062565b612ac963c22552f760e01b83614062565b612ada637b4a9bcd60e11b83614062565b612aeb638654042960e01b83614062565b612afc63d7480e2160e01b83614062565b612b0d63dfdddc9960e01b83614062565b6f50726f746f636f6c53657474696e677360801b826001600160a01b0316826001600160a01b03167f1420e3a2094d671bc2eb897941fa3d94ffa37f0cb6d530651946250a2151cb7f60405160405180910390a45050565b612b6d611f88565b612b895760405162461bcd60e51b81526004016105cf906152d1565b603d5460ff1615612bac5760405162461bcd60e51b81526004016105cf906151d1565b603580549082905560405133907f5b3b73dcee2d869937089aa5282989415bc607389ab2d4164ae83e7a9e1da08490610d9b908490869061536f565b6007602052600090815260409020805460018201546002830154600384015460048501546005860154600690960154949560ff8516956101009095046001600160a01b03908116959481169493169288565b603c60209081526000928352604080842090915290825290205481565b612c5f611f88565b612c7b5760405162461bcd60e51b81526004016105cf906152d1565b603d5460ff1615612c9e5760405162461bcd60e51b81526004016105cf906151d1565b68056bc75e2d63100000811115612cc75760405162461bcd60e51b81526004016105cf90615291565b602080549082905560405133907f7f47cc725826cba6f43b2c0a013328b47d5f16aa9d27d6f0196a37a35c8e53f590610d9b908490869061536f565b612d0b611f88565b612d275760405162461bcd60e51b81526004016105cf906152d1565b603d5460ff1615612d4a5760405162461bcd60e51b81526004016105cf906151d1565b68056bc75e2d63100000811115612d735760405162461bcd60e51b81526004016105cf90615291565b601580549082905560405133907fa6c5bd6650afa784494efd877ecd8b7505efbbbaed74b7dd29f1472d6cd0c49290610d9b908490869061536f565b6038546001600160a01b031681565b60275481565b60196020526000908152604090205481565b612dde611f88565b612dfa5760405162461bcd60e51b81526004016105cf906152d1565b603d5460ff1615612e1d5760405162461bcd60e51b81526004016105cf906151d1565b600082826000818110612e2c57fe5b9050602002016020612e419190810190614744565b9050600083836000198101818110612e5557fe5b9050602002016020612e6a9190810190614744565b9050826003811015612e8e5760405162461bcd60e51b81526004016105cf90615271565b60005b81811015612ee657612ec2868683818110612ea857fe5b9050602002016020612ebd9190810190614744565b613dc6565b612ede5760405162461bcd60e51b81526004016105cf906151c1565b600101612e91565b506001600160a01b0380841660009081526040602081815281832093861683529290925220612f1690868661438d565b50816001600160a01b0316836001600160a01b0316336001600160a01b03167f129b9c235ee9080c61000669529ef5e13890b4d0baa3f9fd78a24755e6977e848888604051612f66929190615054565b60405180910390a45050505050565b612f7d611f88565b612f995760405162461bcd60e51b81526004016105cf906152d1565b603d5460ff1615612fbc5760405162461bcd60e51b81526004016105cf906151d1565b612fc581613dc6565b612fe15760405162461bcd60e51b81526004016105cf90615281565b602d80546001600160a01b038381166001600160a01b03198316811790935560405191169190829033907ec53b30140bc38db3a9070249d614e03304ada9e458b2d2f01d23feed00985a90600090a45050565b61303c611f88565b6130585760405162461bcd60e51b81526004016105cf906152d1565b603d5460ff16151581151514156130815760405162461bcd60e51b81526004016105cf90615331565b603d805460ff19168215801591821790925560405190919033907f575725fa4843b62a71608b620f6d2a15792407ae40e019230a0500109782f66090600090a450565b603d5460ff1690565b6130d5611f88565b6130f15760405162461bcd60e51b81526004016105cf906152d1565b603d5460ff16156131145760405162461bcd60e51b81526004016105cf906151d1565b6001600160a01b0380831660009081526040602081815281832093851683529290925220546131555760405162461bcd60e51b81526004016105cf90615241565b6001600160a01b0380831660009081526040602081815281832093851683529283529081902080548251818502810185019093528083526060938301828280156131c857602002820191906000526020600020905b81546001600160a01b031681526001909101906020018083116131aa575b505050506001600160a01b038581166000908152604060208181528183209388168352929092529081209293506132009291506143f0565b816001600160a01b0316836001600160a01b0316336001600160a01b03167f1a4d14c8795096885326639e56c528b0fbb308e1b94146c8515c41042681121d8460405161324d9190615066565b60405180910390a4505050565b613262611f88565b61327e5760405162461bcd60e51b81526004016105cf906152d1565b603d5460ff16156132a15760405162461bcd60e51b81526004016105cf906151d1565b6132aa81613dc6565b6132c65760405162461bcd60e51b81526004016105cf90615321565b602e80546001600160a01b038381166001600160a01b03198316811790935560405191169190829033907fffdeb9a96d6e1f867bcbb8a64815e576b65141995ab197cf02f7bb34fc186b7590600090a45050565b603f5490565b613328611f88565b6133445760405162461bcd60e51b81526004016105cf906152d1565b603d5460ff16156133675760405162461bcd60e51b81526004016105cf906151d1565b601480546001600160a01b038381166001600160a01b03198316811790935560405191169190829033907f83e92cb95ec836f94e25e0a7b31c39f750833a8ce24eaa227a7050aafea08a8490600090a45050565b6014546001600160a01b031681565b6133d2611f88565b6133ee5760405162461bcd60e51b81526004016105cf906152d1565b603d5460ff16156134115760405162461bcd60e51b81526004016105cf906151d1565b683635c9adc5dea0000081111561343a5760405162461bcd60e51b81526004016105cf906152f1565b6001600160a01b038381166000818152603c60209081526040808320948716808452949091529081902080549085905590519092919033907fd2d3c121d3439420f50efd36f0a01ebdac87111ec00360641c32aea3c6fc3213906134a1908690889061536f565b60405180910390a450505050565b601b5481565b60285481565b6134c3611f88565b6134df5760405162461bcd60e51b81526004016105cf906152d1565b61139d816140dc565b6038546001600160a01b031690565b60395481565b613505611f88565b6135215760405162461bcd60e51b81526004016105cf906152d1565b603d5460ff16156135445760405162461bcd60e51b81526004016105cf906151d1565b670de0b6b3a764000081111561356c5760405162461bcd60e51b81526004016105cf90615291565b602c80549082905560405133907f864303b3e76c8edf19227d9acce896145b83212c6e38243e827b652d226bc9d690610d9b908490869061536f565b60215481565b602e546001600160a01b031681565b603d5460009060ff16156135e35760405162461bcd60e51b81526004016105cf906151d1565b6014546001600160a01b0316331461360d5760405162461bcd60e51b81526004016105cf906152d1565b60005b83811015613daf5760006016600087878581811061362a57fe5b905060200201602061363f91908101906144db565b6001600160a01b031681526020810191909152604001600020549050801561373b5760006016600088888681811061367357fe5b905060200201602061368891908101906144db565b6001600160a01b03166001600160a01b03168152602001908152602001600020819055506136fb81601760008989878181106136c057fe5b90506020020160206136d591908101906144db565b6001600160a01b031681526020810191909152604001600020549063ffffffff613e4416565b6017600088888681811061370b57fe5b905060200201602061372091908101906144db565b6001600160a01b031681526020810191909152604001600020555b60006019600088888681811061374d57fe5b905060200201602061376291908101906144db565b6001600160a01b03168152602081019190915260400160002054905080156138235760006019600089898781811061379657fe5b90506020020160206137ab91908101906144db565b6001600160a01b03166001600160a01b03168152602001908152602001600020819055506137e381601a60008a8a888181106136c057fe5b601a60008989878181106137f357fe5b905060200201602061380891908101906144db565b6001600160a01b031681526020810191909152604001600020555b6000601c600089898781811061383557fe5b905060200201602061384a91908101906144db565b6001600160a01b031681526020810191909152604001600020549050801561390b576000601c60008a8a8881811061387e57fe5b905060200201602061389391908101906144db565b6001600160a01b03166001600160a01b03168152602001908152602001600020819055506138cb81601d60008b8b898181106136c057fe5b601d60008a8a888181106138db57fe5b90506020020160206138f091908101906144db565b6001600160a01b031681526020810191909152604001600020555b6000613921826126dc868663ffffffff613e4416565b9050806139315750505050613da7565b6037546000906001600160a01b03168a8a8881811061394c57fe5b905060200201602061396191908101906144db565b6001600160a01b03161415613a885789898781811061397c57fe5b905060200201602061399191908101906144db565b60145460405163095ea7b360e01b81526001600160a01b039283169263095ea7b3926139c492911690869060040161500d565b602060405180830381600087803b1580156139de57600080fd5b505af11580156139f2573d6000803e3d6000fd5b505050506040513d601f19601f82011682018060405250613a1691908101906146cb565b5060145460375460405163abe979e160e01b81526001600160a01b039283169263abe979e192613a4d929116908690600401615028565b600060405180830381600087803b158015613a6757600080fd5b505af1158015613a7b573d6000803e3d6000fd5b5050505060009050613d26565b602d546001600160a01b03168a8a88818110613aa057fe5b9050602002016020613ab591908101906144db565b6001600160a01b03161415613ae95750602d548190613ae4906001600160a01b0316898363ffffffff613e6916565b613d13565b898987818110613af557fe5b9050602002016020613b0a91908101906144db565b60315460405163095ea7b360e01b81526001600160a01b039283169263095ea7b392613b3d92911690869060040161500d565b602060405180830381600087803b158015613b5757600080fd5b505af1158015613b6b573d6000803e3d6000fd5b505050506040513d601f19601f82011682018060405250613b8f91908101906146cb565b506031546001600160a01b031663e321b5408b8b89818110613bad57fe5b9050602002016020613bc291908101906144db565b602d546014546031546040516001600160e01b031960e087901b168152613c0494936001600160a01b0390811693811692169089906000908190600401614f03565b6040805180830381600087803b158015613c1d57600080fd5b505af1158015613c31573d6000803e3d6000fd5b505050506040513d601f19601f82011682018060405250613c55919081019061479f565b506002549091506001600160a01b0316631e2c62d38b8b89818110613c7657fe5b9050602002016020613c8b91908101906144db565b602d546027546040516001600160e01b031960e086901b168152613cc193926001600160a01b0316918891889190600401614fa6565b60206040518083038186803b158015613cd957600080fd5b505afa158015613ced573d6000803e3d6000fd5b505050506040513d601f19601f82011682018060405250613d119190810190614762565b505b613d23878263ffffffff613e4416565b96505b876001600160a01b03168a8a88818110613d3c57fe5b9050602002016020613d5191908101906144db565b6001600160a01b0316336001600160a01b03167ffc669a9c6050d8c313b540e2a2bd63f5f8965e4d267a0683ba6fb55114e868cc88888887604051613d999493929190615398565b60405180910390a450505050505b600101613610565b509392505050565b6030546001600160a01b031681565b6000813f7fc5d2460186f7233c927e7db2dcc703c0e500b653ca82273b7bfad8045d85a470818114801590613dfa57508115155b949350505050565b60006113cc83836040518060400160405280601e81526020017f536166654d6174683a207375627472616374696f6e206f766572666c6f77000081525061415e565b6000828201838110156113cc5760405162461bcd60e51b81526004016105cf90615211565b604051613ec290849063a9059cbb60e01b90613e8b908690869060240161500d565b60408051601f198184030181529190526020810180516001600160e01b03166001600160e01b03199093169290921790915261418a565b505050565b604051613eeb9085906323b872dd60e01b90613e8b90879087908790602401614f7e565b50505050565b606082820183811015613f165760405162461bcd60e51b81526004016105cf906152c1565b60018501548111613f275780613f2d565b60018501545b9050801580613f3c5750808410155b15613f475750611246565b838103604051908082528060200260200182016040528015613f73578160200160208202803883390190505b50915060005b848203811015613fbe578560010185820181548110613f9457fe5b9060005260206000200154838281518110613fab57fe5b6020908102919091010152600101613f79565b50509392505050565b600081613dfa848261426f565b600081613dfa8482614338565b3390565b601e546000908190839080821115613ffb578091505b81614019575050602e546001600160a01b03169150600090506120ba565b614029818363ffffffff613e0216565b601e55602e54614049906001600160a01b0316878463ffffffff613e6916565b5050602e546001600160a01b0316946001945092505050565b6001600160e01b03198216600090815260056020526040902080546001600160a01b0319166001600160a01b038316908117909155156140bd576140b7600d6001600160e01b0319841663ffffffff61433816565b506140d8565b613ec2600d6001600160e01b0319841663ffffffff61426f16565b5050565b6001600160a01b0381166141025760405162461bcd60e51b81526004016105cf90615201565b6001546040516001600160a01b038084169216907f8be0079c531659141344cd1fd0a4f28419497f9722a3daafe3b4186f6b6457e090600090a3600180546001600160a01b0319166001600160a01b0392909216919091179055565b600081848411156141825760405162461bcd60e51b81526004016105cf91906151b0565b505050900390565b61419c826001600160a01b0316613dc6565b6141b85760405162461bcd60e51b81526004016105cf90615341565b60006060836001600160a01b0316836040516141d49190614ece565b6000604051808303816000865af19150503d8060008114614211576040519150601f19603f3d011682016040523d82523d6000602084013e614216565b606091505b5091509150816142385760405162461bcd60e51b81526004016105cf90615231565b805115613eeb578080602001905161425391908101906146cb565b613eeb5760405162461bcd60e51b81526004016105cf90615311565b600061427b8383614378565b1561433057600082815260208490526040902054600184015460001991820191018082146142f35760008560010182815481106142b457fe5b90600052602060002001549050808660010184815481106142d157fe5b6000918252602080832090910192909255918252869052604090206001830190555b6000848152602086905260408120556001850180548061430f57fe5b600190038181906000526020600020016000905590556001925050506113cf565b5060006113cf565b60006143448383614378565b61433057506001808301805480830180835560009283526020808420909201859055848352908590526040909120556113cf565b60009081526020919091526040902054151590565b8280548282559060005260206000209081019282156143e0579160200282015b828111156143e05781546001600160a01b0319166001600160a01b038435161782556020909201916001909101906143ad565b506143ec92915061440e565b5090565b508054600082559060005260206000209081019061139d9190614432565b610cec91905b808211156143ec5780546001600160a01b0319168155600101614414565b610cec91905b808211156143ec5760008155600101614438565b80356113cf816154f8565b60008083601f84011261446957600080fd5b50813567ffffffffffffffff81111561448157600080fd5b6020830191508360208202830111156120ba57600080fd5b80356113cf8161550c565b80516113cf8161550c565b80356113cf81615515565b80356113cf8161551e565b80356113cf81615527565b80516113cf81615515565b6000602082840312156144ed57600080fd5b6000613dfa848461444c565b6000806040838503121561450c57600080fd5b6000614518858561444c565b92505060206145298582860161444c565b9150509250929050565b60008060006060848603121561454857600080fd5b6000614554868661444c565b93505060206145658682870161444c565b9250506040614576868287016144af565b9150509250925092565b6000806040838503121561459357600080fd5b600061459f858561444c565b9250506020614529858286016144af565b6000806000604084860312156145c557600080fd5b833567ffffffffffffffff8111156145dc57600080fd5b6145e886828701614457565b935093505060206145768682870161444c565b6000806000806040858703121561461157600080fd5b843567ffffffffffffffff81111561462857600080fd5b61463487828801614457565b9450945050602085013567ffffffffffffffff81111561465357600080fd5b61465f87828801614457565b95989497509550505050565b6000806020838503121561467e57600080fd5b823567ffffffffffffffff81111561469557600080fd5b6146a185828601614457565b92509250509250929050565b6000602082840312156146bf57600080fd5b6000613dfa8484614499565b6000602082840312156146dd57600080fd5b6000613dfa84846144a4565b6000602082840312156146fb57600080fd5b6000613dfa84846144af565b6000806040838503121561471a57600080fd5b600061451885856144af565b60006020828403121561473857600080fd5b6000613dfa84846144ba565b60006020828403121561475657600080fd5b6000613dfa84846144c5565b60006020828403121561477457600080fd5b6000613dfa84846144d0565b6000806040838503121561479357600080fd5b600061459f85856144af565b600080604083850312156147b257600080fd5b60006147be85856144d0565b9250506020614529858286016144d0565b60006147db83836148fb565b505060200190565b60006147db8383614933565b6147f881615472565b82525050565b600061480982615451565b6148138185615455565b935061481e8361544b565b8060005b8381101561484c57815161483688826147cf565b97506148418361544b565b925050600101614822565b509495945050505050565b60006148638385615455565b935061486e82610cec565b8060005b8581101561484c576148848284615463565b61488e88826147e3565b97506148998361544b565b925050600101614872565b60006148af82615451565b6148b98185615455565b93506148c48361544b565b8060005b8381101561484c5781516148dc88826147e3565b97506148e78361544b565b9250506001016148c8565b6147f88161547d565b6147f881610cec565b600061490f82615451565b614919818561545e565b93506149298185602086016154c2565b9290920192915050565b6147f88161548f565b6147f8816154b7565b600061495082615451565b61495a8185615455565b935061496a8185602086016154c2565b614973816154ee565b9093019392505050565b600061498a601a83615455565b7f4552525f504154485f4e4f4e5f434f4e54524143545f41444452000000000000815260200192915050565b60006149c3600683615455565b6514185d5cd95960d21b815260200192915050565b60006149e5601383615455565b724261736520726577617264206973207a65726f60681b815260200192915050565b6000614a14602083615455565b7f6e65774c6f636b534f5641646472657373206e6f74206120636f6e7472616374815260200192915050565b6000614a4d602683615455565b7f4f776e61626c653a206e6577206f776e657220697320746865207a65726f206181526564647265737360d01b602082015260400192915050565b6000614a95601b83615455565b7f536166654d6174683a206164646974696f6e206f766572666c6f770000000000815260200192915050565b6000614ace601683615455565b7508ccaca40e4cac4c2e8ca40d2e640e8dede40d0d2ced60531b815260200192915050565b6000614b00602083615455565b7f5361666545524332303a206c6f772d6c6576656c2063616c6c206661696c6564815260200192915050565b6000614b39601283615455565b7144454641554c545f504154485f454d50545960701b815260200192915050565b6000614b67602183615455565b7f6e6577536f76546f6b656e41646472657373206e6f74206120636f6e747261638152601d60fa1b602082015260400192915050565b6000614baa600e83615455565b6d0c6deeadce840dad2e6dac2e8c6d60931b815260200192915050565b6000614bd4600f83615455565b6e08aa4a4bea082a890be988a9c8ea89608b1b815260200192915050565b6000614bff602083615455565b7f7772627463546f6b656e41646472657373206e6f74206120636f6e7472616374815260200192915050565b6000614c38600e83615455565b6d0ecc2d8eaca40e8dede40d0d2ced60931b815260200192915050565b6000614c62601e83615455565b7f726567697374727941646472657373206e6f74206120636f6e74726163740000815260200192915050565b6000614c9b600f83615455565b6e706f6f6c206e6f742065786973747360881b815260200192915050565b6000614cc6601183615455565b706164646974696f6e206f766572666c6f7760781b815260200192915050565b6000614cf3600c83615455565b6b1d5b985d5d1a1bdc9a5e995960a21b815260200192915050565b6000614d1b601483615455565b7319985b1b189858dac81b9bdd08185b1b1bddd95960621b815260200192915050565b60006113cf600083615455565b6000614d58601e83615455565b7f5370656369616c206665652072656261746520697320746f6f20686967680000815260200192915050565b6000614d91600d83615455565b6c1c1bdbdb080f4f48185cdcd95d609a1b815260200192915050565b6000614dba602a83615455565b7f5361666545524332303a204552433230206f7065726174696f6e20646964206e8152691bdd081cdd58d8d9595960b21b602082015260400192915050565b6000614e06602483615455565b7f5f70726f746f636f6c546f6b656e41646472657373206e6f74206120636f6e748152631c9858dd60e21b602082015260400192915050565b6000614e4c600c83615455565b6b43616e277420746f67676c6560a01b815260200192915050565b6000614e74601f83615455565b7f5361666545524332303a2063616c6c20746f206e6f6e2d636f6e747261637400815260200192915050565b6000614ead600983615455565b680706f6f6c203d3d20360bc1b815260200192915050565b6147f8816154a6565b60006112468284614904565b602081016113cf82846147ef565b60408101614ef682856147ef565b61124660208301846147ef565b6101008101614f12828a6147ef565b614f1f60208301896147ef565b614f2c60408301886147ef565b614f3960608301876147ef565b614f4660808301866148fb565b614f5360a083018561493c565b614f6060c083018461493c565b81810360e0830152614f7181614d3e565b9998505050505050505050565b60608101614f8c82866147ef565b614f9960208301856147ef565b613dfa60408301846148fb565b60a08101614fb482886147ef565b614fc160208301876147ef565b614fce60408301866148fb565b614fdb60608301856148fb565b614fe860808301846148fb565b9695505050505050565b6040810161500082856147ef565b61124660208301846148f2565b6040810161501b82856147ef565b61124660208301846148fb565b6040810161503682856147ef565b6112466020830184614ec5565b602080825281016113cc81846147fe565b60208082528101613dfa818486614857565b602080825281016113cc81846148a4565b602081016113cf82846148f2565b6101008101615094828b6148fb565b6150a1602083018a6148f2565b6150ae60408301896147ef565b6150bb60608301886147ef565b6150c860808301876147ef565b6150d560a08301866148fb565b6150e260c08301856148fb565b614f7160e08301846148fb565b61018081016150fe828f6148fb565b61510b602083018e6148fb565b615118604083018d6148fb565b615125606083018c6148f2565b615132608083018b6148fb565b61513f60a083018a6148fb565b61514c60c08301896148fb565b61515960e08301886148fb565b6151676101008301876148fb565b6151756101208301866148fb565b6151836101408301856147ef565b6151916101608301846147ef565b9d9c50505050505050505050505050565b602081016113cf8284614933565b602080825281016113cc8184614945565b602080825281016113cf8161497d565b602080825281016113cf816149b6565b602080825281016113cf816149d8565b602080825281016113cf81614a07565b602080825281016113cf81614a40565b602080825281016113cf81614a88565b602080825281016113cf81614ac1565b602080825281016113cf81614af3565b602080825281016113cf81614b2c565b602080825281016113cf81614b5a565b602080825281016113cf81614b9d565b602080825281016113cf81614bc7565b602080825281016113cf81614bf2565b602080825281016113cf81614c2b565b602080825281016113cf81614c55565b602080825281016113cf81614c8e565b602080825281016113cf81614cb9565b602080825281016113cf81614ce6565b602080825281016113cf81614d0e565b602080825281016113cf81614d4b565b602080825281016113cf81614d84565b602080825281016113cf81614dad565b602080825281016113cf81614df9565b602080825281016113cf81614e3f565b602080825281016113cf81614e67565b602080825281016113cf81614ea0565b602081016113cf82846148fb565b6040810161501b82856148fb565b6060810161538b82866148fb565b614f9960208301856148fb565b608081016153a682876148fb565b6153b360208301866148fb565b6153c060408301856148fb565b6153cd60608301846148fb565b95945050505050565b60a081016153e482886148fb565b614fc160208301876148fb565b60c081016153ff82896148fb565b61540c60208301886148fb565b61541960408301876148fb565b61542660608301866148fb565b61543360808301856148fb565b61544060a08301846148fb565b979650505050505050565b60200190565b5190565b90815260200190565b919050565b60006113cc60208401846144c5565b60006113cf8261549a565b151590565b6001600160e01b03191690565b60006113cf82615472565b6001600160a01b031690565b6bffffffffffffffffffffffff1690565b60006113cf82610cec565b60005b838110156154dd5781810151838201526020016154c5565b83811115613eeb5750506000910152565b601f01601f191690565b61550181615472565b811461139d57600080fd5b6155018161547d565b61550181610cec565b61550181615482565b6155018161548f56fea365627a7a723158204875876d8e5080a50196ad1fe22cca3c3b8c5a657f18c328935f0b8fece731956c6578706572696d656e74616cf564736f6c63430005110040",
    "linkReferences": {}
  },
  "methodIdentifiers": {
    "admin()": "f851a440",
    "affiliateFeePercent()": "ae0a8530",
    "affiliateRewardsHeld(address)": "bdee453c",
    "affiliateTradingTokenFeePercent()": "f589a3e7",
    "affiliatesReferrerBalances(address,address)": "1b7bde74",
    "affiliatesUserReferrer(address)": "6e663730",
    "borrowerNonce(address)": "3fca506e",
    "borrowerOrders(address,bytes32)": "065d810f",
    "borrowingFeePercent()": "edab119f",
    "borrowingFeeTokensHeld(address)": "b7e15241",
    "borrowingFeeTokensPaid(address)": "b30643d9",
    "delegatedManagers(bytes32,address)": "4115a2b6",
    "depositProtocolToken(uint256)": "3c56ae1b",
    "feeRebatePercent()": "acc04348",
    "feesController()": "e8f62764",
    "getDedicatedSOVRebate()": "c22552f7",
    "getDefaultPathConversion(address,address)": "86540429",
    "getFeeRebatePercent()": "3f1ae8b9",
    "getLoanPoolsList(uint256,uint256)": "402946b9",
    "getLockedSOVAddress()": "f44942ec",
    "getProtocolAddress()": "07024c25",
    "getSovTokenAddress()": "4bcfe726",
    "getSpecialRebates(address,address)": "59d0d9ec",
    "getSwapExternalFeePercent()": "462096f3",
    "getTradingRebateRewardsBasisPoint()": "e4196480",
    "initialize(address)": "c4d66de8",
    "isLoanPool(address)": "115dd4b1",
    "isOwner()": "8f32d59b",
    "isProtocolPaused()": "dac88561",
    "lenderInterest(address,address)": "62fff3f6",
    "lenderOrders(address,bytes32)": "3432423c",
    "lendingFeePercent()": "4699f846",
    "lendingFeeTokensHeld(address)": "4203e395",
    "lendingFeeTokensPaid(address)": "92d894f8",
    "liquidationIncentivePercent()": "f6ddc8b3",
    "loanInterest(bytes32)": "569fc1fb",
    "loanParams(bytes32)": "cb6eacd1",
    "loanPoolToUnderlying(address)": "8dc48ba5",
    "loans(bytes32)": "c4a90815",
    "lockedSOVAddress()": "d288208c",
    "logicTargets(bytes4)": "17548b79",
    "maxDisagreement()": "d473c2da",
    "maxSwapSize()": "4f28cac2",
    "minReferralsToPayout()": "742e6798",
    "owner()": "8da5cb5b",
    "pause()": "8456cb59",
    "priceFeeds()": "78d849ed",
    "protocolAddress()": "0676c1b7",
    "protocolTokenAddress()": "f706b1f2",
    "protocolTokenHeld()": "7a8faeb8",
    "protocolTokenPaid()": "2f470764",
    "removeDefaultPathConversion(address,address)": "dfdddc99",
    "rolloverBaseReward()": "574442cc",
    "rolloverFlexFeePercent()": "959083d3",
    "setAffiliateFeePercent(uint256)": "d21f8e24",
    "setAffiliateTradingTokenFeePercent(uint256)": "a32bb683",
    "setBorrowingFeePercent(uint256)": "17f8b788",
    "setDefaultPathConversion(address[])": "d7480e21",
    "setFeesController(address)": "e8997dbd",
    "setLendingFeePercent(uint256)": "d238db22",
    "setLiquidationIncentivePercent(uint256)": "a2ab1ba1",
    "setLoanPool(address[],address[])": "59e49e0f",
    "setLockedSOVAddress(address)": "4dd053a5",
    "setMaxDisagreement(uint256)": "7fb202e5",
    "setMaxSwapSize(uint256)": "355a395f",
    "setMinReferralsToPayoutAffiliates(uint256)": "c7c333f0",
    "setPriceFeedContract(address)": "74626404",
    "setProtocolTokenAddress(address)": "e3ff9370",
    "setRebatePercent(uint256)": "9c53874f",
    "setRolloverBaseReward(uint256)": "b1558b72",
    "setRolloverFlexFeePercent(uint256)": "f695379a",
    "setSOVTokenAddress(address)": "6fbae33b",
    "setSourceBuffer(uint256)": "a6e7cc28",
    "setSovrynProtocolAddress(address)": "9254e6bf",
    "setSovrynSwapContractRegistryAddress(address)": "2d77d0d0",
    "setSpecialRebates(address,address,uint256)": "ea0e3930",
    "setSupportedTokens(address[],bool[])": "84eaa9e0",
    "setSwapExternalFeePercent(uint256)": "29f9986d",
    "setSwapsImplContract(address)": "1a81c191",
    "setTradingFeePercent(uint256)": "0c615ee9",
    "setTradingRebateRewardsBasisPoint(uint256)": "a1eb5683",
    "setWrbtcToken(address)": "d9eaaa64",
    "sourceBuffer()": "f0e085f5",
    "sovTokenAddress()": "b9cffa3e",
    "sovrynSwapContractRegistryAddress()": "ba4861e9",
    "specialRebates(address,address)": "cd5d808d",
    "supportedTokens(address)": "68c4ac26",
    "swapsImpl()": "7420ca3e",
    "togglePaused(bool)": "da541e09",
    "tradingFeePercent()": "2a324027",
    "tradingFeeTokensHeld(address)": "d485045e",
    "tradingFeeTokensPaid(address)": "3452d2d4",
    "transferOwnership(address)": "f2fde38b",
    "underlyingToLoanPool(address)": "218b39c6",
    "userNotFirstTradeFlag(address)": "24cc5749",
    "withdrawBorrowingFees(address,address,uint256)": "32e4706f",
    "withdrawFees(address[],address)": "f7e7aab0",
    "withdrawLendingFees(address,address,uint256)": "b1ac89ca",
    "withdrawProtocolToken(address,uint256)": "96881857",
    "withdrawTradingFees(address,address,uint256)": "74326e8f",
    "wrbtcToken()": "afe84009"
  },
  "id": 172
}