{
  "abi": [
    {
      "anonymous": false,
      "inputs": [
        {
          "indexed": true,
          "internalType": "address",
          "name": "sender",
          "type": "address"
        },
        {
          "indexed": true,
          "internalType": "address",
          "name": "token",
          "type": "address"
        },
        {
          "indexed": false,
          "internalType": "uint256",
          "name": "amount",
          "type": "uint256"
        }
      ],
      "name": "CheckpointAdded",
      "type": "event"
    },
    {
      "anonymous": false,
      "inputs": [
        {
          "indexed": true,
          "internalType": "address",
          "name": "sender",
          "type": "address"
        },
        {
          "indexed": true,
          "internalType": "address",
          "name": "converter",
          "type": "address"
        },
        {
          "indexed": false,
          "internalType": "uint256",
          "name": "amount",
          "type": "uint256"
        }
      ],
      "name": "FeeAMMWithdrawn",
      "type": "event"
    },
    {
      "anonymous": false,
      "inputs": [
        {
          "indexed": true,
          "internalType": "address",
          "name": "sender",
          "type": "address"
        },
        {
          "indexed": false,
          "internalType": "uint256",
          "name": "amount",
          "type": "uint256"
        }
      ],
      "name": "FeeWithdrawnInRBTC",
      "type": "event"
    },
    {
      "anonymous": false,
      "inputs": [
        {
          "indexed": true,
          "internalType": "address",
          "name": "previousOwner",
          "type": "address"
        },
        {
          "indexed": true,
          "internalType": "address",
          "name": "newOwner",
          "type": "address"
        }
      ],
      "name": "OwnershipTransferred",
      "type": "event"
    },
    {
      "anonymous": false,
      "inputs": [
        {
          "indexed": true,
          "internalType": "address",
          "name": "sender",
          "type": "address"
        },
        {
          "indexed": true,
          "internalType": "address",
          "name": "receiver",
          "type": "address"
        },
        {
          "indexed": false,
          "internalType": "uint256",
          "name": "amount",
          "type": "uint256"
        }
      ],
      "name": "RBTCWithdrawn",
      "type": "event"
    },
    {
      "anonymous": false,
      "inputs": [
        {
          "indexed": true,
          "internalType": "address",
          "name": "sender",
          "type": "address"
        },
        {
          "indexed": true,
          "internalType": "address",
          "name": "token",
          "type": "address"
        },
        {
          "indexed": false,
          "internalType": "uint256",
          "name": "amount",
          "type": "uint256"
        }
      ],
      "name": "TokensTransferred",
      "type": "event"
    },
    {
      "anonymous": false,
      "inputs": [
        {
          "indexed": true,
          "internalType": "address",
          "name": "sender",
          "type": "address"
        },
        {
          "indexed": false,
          "internalType": "address",
          "name": "converter",
          "type": "address"
        }
      ],
      "name": "UnwhitelistedConverter",
      "type": "event"
    },
    {
      "anonymous": false,
      "inputs": [
        {
          "indexed": true,
          "internalType": "address",
          "name": "sender",
          "type": "address"
        },
        {
          "indexed": true,
          "internalType": "address",
          "name": "token",
          "type": "address"
        },
        {
          "indexed": false,
          "internalType": "uint256",
          "name": "prevProcessedCheckpoints",
          "type": "uint256"
        },
        {
          "indexed": false,
          "internalType": "uint256",
          "name": "newProcessedCheckpoints",
          "type": "uint256"
        }
      ],
      "name": "UserFeeProcessedNoWithdraw",
      "type": "event"
    },
    {
      "anonymous": false,
      "inputs": [
        {
          "indexed": true,
          "internalType": "address",
          "name": "sender",
          "type": "address"
        },
        {
          "indexed": true,
          "internalType": "address",
          "name": "receiver",
          "type": "address"
        },
        {
          "indexed": true,
          "internalType": "address",
          "name": "token",
          "type": "address"
        },
        {
          "indexed": false,
          "internalType": "uint256",
          "name": "amount",
          "type": "uint256"
        }
      ],
      "name": "UserFeeWithdrawn",
      "type": "event"
    },
    {
      "anonymous": false,
      "inputs": [
        {
          "indexed": true,
          "internalType": "address",
          "name": "sender",
          "type": "address"
        },
        {
          "indexed": false,
          "internalType": "address",
          "name": "converter",
          "type": "address"
        }
      ],
      "name": "WhitelistedConverter",
      "type": "event"
    },
    {
      "payable": true,
      "stateMutability": "payable",
      "type": "fallback"
    },
    {
      "constant": true,
      "inputs": [],
      "name": "RBTC_DUMMY_ADDRESS_FOR_CHECKPOINT",
      "outputs": [
        {
          "internalType": "address",
          "name": "",
          "type": "address"
        }
      ],
      "payable": false,
      "stateMutability": "view",
      "type": "function"
    },
    {
      "constant": false,
      "inputs": [
        {
          "internalType": "address",
          "name": "converterAddress",
          "type": "address"
        }
      ],
      "name": "addWhitelistedConverterAddress",
      "outputs": [],
      "payable": false,
      "stateMutability": "nonpayable",
      "type": "function"
    },
    {
      "constant": true,
      "inputs": [
        {
          "internalType": "address",
          "name": "_user",
          "type": "address"
        },
        {
          "internalType": "address",
          "name": "_token",
          "type": "address"
        }
      ],
      "name": "getAccumulatedFees",
      "outputs": [
        {
          "internalType": "uint256",
          "name": "",
          "type": "uint256"
        }
      ],
      "payable": false,
      "stateMutability": "view",
      "type": "function"
    },
    {
      "constant": true,
      "inputs": [
        {
          "internalType": "address",
          "name": "_user",
          "type": "address"
        },
        {
          "internalType": "address",
          "name": "_token",
          "type": "address"
        },
        {
          "internalType": "uint256",
          "name": "_startFrom",
          "type": "uint256"
        },
        {
          "internalType": "uint32",
          "name": "_maxCheckpoints",
          "type": "uint32"
        }
      ],
      "name": "getAccumulatedFeesForCheckpointsRange",
      "outputs": [
        {
          "internalType": "uint256",
          "name": "",
          "type": "uint256"
        }
      ],
      "payable": false,
      "stateMutability": "view",
      "type": "function"
    },
    {
      "constant": true,
      "inputs": [
        {
          "internalType": "address",
          "name": "_user",
          "type": "address"
        }
      ],
      "name": "getAccumulatedRBTCFeeBalances",
      "outputs": [
        {
          "internalType": "uint256",
          "name": "",
          "type": "uint256"
        }
      ],
      "payable": false,
      "stateMutability": "view",
      "type": "function"
    },
    {
      "constant": true,
      "inputs": [
        {
          "internalType": "address",
          "name": "_user",
          "type": "address"
        },
        {
          "internalType": "address",
          "name": "_token",
          "type": "address"
        },
        {
          "internalType": "uint256",
          "name": "_startFrom",
          "type": "uint256"
        },
        {
          "internalType": "uint256",
          "name": "_maxCheckpoints",
          "type": "uint256"
        }
      ],
      "name": "getNextPositiveUserCheckpoint",
      "outputs": [
        {
          "internalType": "uint256",
          "name": "checkpointNum",
          "type": "uint256"
        },
        {
          "internalType": "bool",
          "name": "hasSkippedCheckpoints",
          "type": "bool"
        },
        {
          "internalType": "bool",
          "name": "hasFees",
          "type": "bool"
        }
      ],
      "payable": false,
      "stateMutability": "view",
      "type": "function"
    },
    {
      "constant": true,
      "inputs": [],
      "name": "getWhitelistedConverterList",
      "outputs": [
        {
          "internalType": "address[]",
          "name": "converterList",
          "type": "address[]"
        }
      ],
      "payable": false,
      "stateMutability": "view",
      "type": "function"
    },
    {
      "constant": true,
      "inputs": [
        {
          "internalType": "bytes4",
          "name": "",
          "type": "bytes4"
        }
      ],
      "name": "isFunctionExecuted",
      "outputs": [
        {
          "internalType": "bool",
          "name": "",
          "type": "bool"
        }
      ],
      "payable": false,
      "stateMutability": "view",
      "type": "function"
    },
    {
      "constant": true,
      "inputs": [],
      "name": "isOwner",
      "outputs": [
        {
          "internalType": "bool",
          "name": "",
          "type": "bool"
        }
      ],
      "payable": false,
      "stateMutability": "view",
      "type": "function"
    },
    {
      "constant": true,
      "inputs": [
        {
          "internalType": "address",
          "name": "",
          "type": "address"
        }
      ],
      "name": "lastFeeWithdrawalTime",
      "outputs": [
        {
          "internalType": "uint256",
          "name": "",
          "type": "uint256"
        }
      ],
      "payable": false,
      "stateMutability": "view",
      "type": "function"
    },
    {
      "constant": true,
      "inputs": [
        {
          "internalType": "address",
          "name": "_token",
          "type": "address"
        }
      ],
      "name": "numTokenCheckpoints",
      "outputs": [
        {
          "internalType": "uint256",
          "name": "",
          "type": "uint256"
        }
      ],
      "payable": false,
      "stateMutability": "view",
      "type": "function"
    },
    {
      "constant": true,
      "inputs": [],
      "name": "owner",
      "outputs": [
        {
          "internalType": "address",
          "name": "",
          "type": "address"
        }
      ],
      "payable": false,
      "stateMutability": "view",
      "type": "function"
    },
    {
      "constant": true,
      "inputs": [
        {
          "internalType": "address",
          "name": "",
          "type": "address"
        },
        {
          "internalType": "address",
          "name": "",
          "type": "address"
        }
      ],
      "name": "processedCheckpoints",
      "outputs": [
        {
          "internalType": "uint256",
          "name": "",
          "type": "uint256"
        }
      ],
      "payable": false,
      "stateMutability": "view",
      "type": "function"
    },
    {
      "constant": true,
      "inputs": [],
      "name": "protocol",
      "outputs": [
        {
          "internalType": "contract IProtocol",
          "name": "",
          "type": "address"
        }
      ],
      "payable": false,
      "stateMutability": "view",
      "type": "function"
    },
    {
      "constant": false,
      "inputs": [],
      "name": "recoverIncorrectAllocatedFees",
      "outputs": [],
      "payable": false,
      "stateMutability": "nonpayable",
      "type": "function"
    },
    {
      "constant": false,
      "inputs": [
        {
          "internalType": "address",
          "name": "converterAddress",
          "type": "address"
        }
      ],
      "name": "removeWhitelistedConverterAddress",
      "outputs": [],
      "payable": false,
      "stateMutability": "nonpayable",
      "type": "function"
    },
    {
      "constant": true,
      "inputs": [],
      "name": "staking",
      "outputs": [
        {
          "internalType": "contract IStaking",
          "name": "",
          "type": "address"
        }
      ],
      "payable": false,
      "stateMutability": "view",
      "type": "function"
    },
    {
      "constant": true,
      "inputs": [
        {
          "internalType": "address",
          "name": "",
          "type": "address"
        },
        {
          "internalType": "uint256",
          "name": "",
          "type": "uint256"
        }
      ],
      "name": "tokenCheckpoints",
      "outputs": [
        {
          "internalType": "uint32",
          "name": "blockNumber",
          "type": "uint32"
        },
        {
          "internalType": "uint32",
          "name": "timestamp",
          "type": "uint32"
        },
        {
          "internalType": "uint96",
          "name": "totalWeightedStake",
          "type": "uint96"
        },
        {
          "internalType": "uint96",
          "name": "numTokens",
          "type": "uint96"
        }
      ],
      "payable": false,
      "stateMutability": "view",
      "type": "function"
    },
    {
      "constant": true,
      "inputs": [
        {
          "internalType": "address",
          "name": "",
          "type": "address"
        }
      ],
      "name": "totalTokenCheckpoints",
      "outputs": [
        {
          "internalType": "uint256",
          "name": "",
          "type": "uint256"
        }
      ],
      "payable": false,
      "stateMutability": "view",
      "type": "function"
    },
    {
      "constant": false,
      "inputs": [
        {
          "internalType": "address",
          "name": "newOwner",
          "type": "address"
        }
      ],
      "name": "transferOwnership",
      "outputs": [],
      "payable": false,
      "stateMutability": "nonpayable",
      "type": "function"
    },
    {
      "constant": false,
      "inputs": [],
      "name": "transferRBTC",
      "outputs": [],
      "payable": true,
      "stateMutability": "payable",
      "type": "function"
    },
    {
      "constant": false,
      "inputs": [
        {
          "internalType": "address",
          "name": "_token",
          "type": "address"
        },
        {
          "internalType": "uint96",
          "name": "_amount",
          "type": "uint96"
        }
      ],
      "name": "transferTokens",
      "outputs": [],
      "payable": false,
      "stateMutability": "nonpayable",
      "type": "function"
    },
    {
      "constant": true,
      "inputs": [
        {
          "internalType": "address",
          "name": "",
          "type": "address"
        }
      ],
      "name": "unprocessedAmount",
      "outputs": [
        {
          "internalType": "uint96",
          "name": "",
          "type": "uint96"
        }
      ],
      "payable": false,
      "stateMutability": "view",
      "type": "function"
    },
    {
      "constant": false,
      "inputs": [
        {
          "internalType": "address",
          "name": "_token",
          "type": "address"
        },
        {
          "internalType": "uint32",
          "name": "_maxCheckpoints",
          "type": "uint32"
        },
        {
          "internalType": "address",
          "name": "_receiver",
          "type": "address"
        }
      ],
      "name": "withdraw",
      "outputs": [],
      "payable": false,
      "stateMutability": "nonpayable",
      "type": "function"
    },
    {
      "constant": false,
      "inputs": [
        {
          "internalType": "address[]",
          "name": "_tokens",
          "type": "address[]"
        }
      ],
      "name": "withdrawFees",
      "outputs": [],
      "payable": false,
      "stateMutability": "nonpayable",
      "type": "function"
    },
    {
      "constant": false,
      "inputs": [
        {
          "internalType": "address[]",
          "name": "_converters",
          "type": "address[]"
        }
      ],
      "name": "withdrawFeesAMM",
      "outputs": [],
      "payable": false,
      "stateMutability": "nonpayable",
      "type": "function"
    },
    {
      "constant": false,
      "inputs": [
        {
          "internalType": "uint32",
          "name": "_maxCheckpoints",
          "type": "uint32"
        },
        {
          "internalType": "address",
          "name": "_receiver",
          "type": "address"
        }
      ],
      "name": "withdrawRBTC",
      "outputs": [],
      "payable": false,
      "stateMutability": "nonpayable",
      "type": "function"
    },
    {
      "constant": false,
      "inputs": [
        {
          "internalType": "uint256",
          "name": "_fromCheckpoint",
          "type": "uint256"
        },
        {
          "internalType": "uint32",
          "name": "_maxCheckpoints",
          "type": "uint32"
        },
        {
          "internalType": "address",
          "name": "_receiver",
          "type": "address"
        }
      ],
      "name": "withdrawRBTCStartingFromCheckpoint",
      "outputs": [],
      "payable": false,
      "stateMutability": "nonpayable",
      "type": "function"
    },
    {
      "constant": false,
      "inputs": [
        {
          "internalType": "address",
          "name": "_token",
          "type": "address"
        },
        {
          "internalType": "uint256",
          "name": "_fromCheckpoint",
          "type": "uint256"
        },
        {
          "internalType": "uint32",
          "name": "_maxCheckpoints",
          "type": "uint32"
        },
        {
          "internalType": "address",
          "name": "_receiver",
          "type": "address"
        }
      ],
      "name": "withdrawStartingFromCheckpoint",
      "outputs": [],
      "payable": false,
      "stateMutability": "nonpayable",
      "type": "function"
    },
    {
      "constant": false,
      "inputs": [
        {
          "internalType": "address",
          "name": "receiver",
          "type": "address"
        },
        {
          "internalType": "uint256",
          "name": "wrbtcAmount",
          "type": "uint256"
        }
      ],
      "name": "withdrawWRBTC",
      "outputs": [],
      "payable": false,
      "stateMutability": "nonpayable",
      "type": "function"
    }
  ],
  "bytecode": {
    "object": "0x6080604052600160085560006200001e6001600160e01b036200006e16565b600080546001600160a01b0319166001600160a01b0383169081178255604051929350917f8be0079c531659141344cd1fd0a4f28419497f9722a3daafe3b4186f6b6457e0908290a35062000072565b3390565b614f2180620000826000396000f3fe6080604052600436106101cd5760003560e01c80638f32d59b116100f7578063abe979e111610095578063d93b69ab11610064578063d93b69ab14610520578063f2962cda14610540578063f2fde38b14610560578063f3bdba8f14610580576101cd565b8063abe979e11461049e578063adcf21a7146104be578063c3040447146104e0578063c3f0eaee14610500576101cd565b8063a697b8c7116100d1578063a697b8c714610429578063a933651914610449578063a965b3a914610469578063aa5036e914610489576101cd565b80638f32d59b146103c7578063988ba593146103e9578063a4955f2a14610409576101cd565b80637061acf31161016f5780637d0ce2b21161013e5780637d0ce2b21461034e5780638b6fdcba146103705780638ce744261461039d5780638da5cb5b146103b2576101cd565b80637061acf3146102ce5780637104c4ff146102ee5780637913b4511461030e5780637c8678ec1461032e576101cd565b80633d67df6f116101ab5780633d67df6f1461023c5780634cf088d91461025c5780635c4d9b121461027e578063705300171461029e576101cd565b80631345946c146101cf578063200202081461020757806322a6fd9514610234575b005b3480156101db57600080fd5b506101ef6101ea366004613933565b6105a0565b6040516101fe93929190614a5b565b60405180910390f35b34801561021357600080fd5b506102276102223660046138bd565b610838565b6040516101fe9190614a4d565b6101cd610853565b34801561024857600080fd5b506102276102573660046138f9565b6108d8565b34801561026857600080fd5b506102716108f3565b6040516101fe919061483e565b34801561028a57600080fd5b506101cd6102993660046139e9565b610902565b3480156102aa57600080fd5b506102be6102b93660046139e9565b610a65565b6040516101fe9493929190614aae565b3480156102da57600080fd5b506101cd6102e93660046138bd565b610ab0565b3480156102fa57600080fd5b506101cd610309366004613bda565b610b4f565b34801561031a57600080fd5b506102276103293660046138f9565b610f39565b34801561033a57600080fd5b506101cd610349366004613b2d565b610f56565b34801561035a57600080fd5b506103636111bc565b6040516101fe9190614741565b34801561037c57600080fd5b5061039061038b3660046138bd565b6111d4565b6040516101fe9190614afa565b3480156103a957600080fd5b506102716111ef565b3480156103be57600080fd5b506103636111fe565b3480156103d357600080fd5b506103dc61120d565b6040516101fe9190614830565b3480156103f557600080fd5b506101cd610404366004613bfb565b611231565b34801561041557600080fd5b506101cd6104243660046138bd565b61126b565b34801561043557600080fd5b506101cd610444366004613aeb565b6112da565b34801561045557600080fd5b506101cd610464366004613a19565b611528565b34801561047557600080fd5b506101cd610484366004613a6e565b61190c565b34801561049557600080fd5b506101cd611948565b3480156104aa57600080fd5b506101cd6104b9366004613abb565b611afd565b3480156104ca57600080fd5b506104d3611d5a565b6040516101fe919061481f565b3480156104ec57600080fd5b506102276104fb3660046138bd565b611d6b565b34801561050c57600080fd5b5061022761051b366004613994565b611ee5565b34801561052c57600080fd5b506103dc61053b366004613b80565b611f01565b34801561054c57600080fd5b5061022761055b3660046138bd565b611f16565b34801561056c57600080fd5b506101cd61057b3660046138bd565b611f28565b34801561058c57600080fd5b5061022761059b3660046138bd565b611f58565b60025460405163ca6860df60e01b8152600091829182916001600160a01b03169063ca6860df906105d5908a90600401614741565b60206040518083038186803b1580156105ed57600080fd5b505afa158015610601573d6000803e3d6000fd5b505050506040513d601f19601f820116820180604052506106259190810190613b62565b156106385750600091508190508061082e565b600084116106615760405162461bcd60e51b815260040161065890614a1d565b60405180910390fd5b6001600160a01b03808716600081815260046020908152604080832054948c168352600582528083209383529290522054818110158061069f575081155b156106b3575092506000915081905061082e565b60008188116106c257816106c4565b875b905060006106d8828963ffffffff611f6a16565b90508381106106e45750825b815b81811015610820576000600360008d6001600160a01b03166001600160a01b03168152602001908152602001600020600083815260200190815260200160002090506000600260009054906101000a90046001600160a01b03166001600160a01b03166337e6b1c18f60018560000160009054906101000a900463ffffffff16038560000160049054906101000a900463ffffffff166040518463ffffffff1660e01b815260040161079a939291906147d6565b60206040518083038186803b1580156107b257600080fd5b505afa1580156107c6573d6000803e3d6000fd5b505050506040513d601f19601f820116820180604052506107ea9190810190613c1a565b90506001600160601b03811615610816578260010186841160019950995099505050505050505061082e565b50506001016106e6565b509550508411925060009150505b9450945094915050565b6001600160a01b031660009081526004602052604090205490565b346001600160601b03811661087a5760405162461bcd60e51b81526004016106589061491d565b6108986040516108899061472b565b60405190819003902082611f96565b60405160009033907f1b89874203ff7f0bba87c969ada3f32fda22ed38a6706d35199d21280c7811b1906108cd908590614aec565b60405180910390a350565b6000806108e884846000806120da565b509150505b92915050565b6002546001600160a01b031681565b61090a61120d565b6109265760405162461bcd60e51b81526004016106589061494d565b6001546040805163afe8400960e01b815290516000926001600160a01b03169163afe84009916004808301926020929190829003018186803b15801561096b57600080fd5b505afa15801561097f573d6000803e3d6000fd5b505050506040513d601f19601f820116820180604052506109a39190810190613b9e565b90506000816001600160a01b03166370a08231306040518263ffffffff1660e01b81526004016109d3919061474f565b60206040518083038186803b1580156109eb57600080fd5b505afa1580156109ff573d6000803e3d6000fd5b505050506040513d601f19601f82011682018060405250610a239190810190613bbc565b905080831115610a455760405162461bcd60e51b8152600401610658906148fd565b610a5f6001600160a01b038316858563ffffffff61243116565b50505050565b600360209081526000928352604080842090915290825290205463ffffffff80821691600160201b8104909116906001600160601b03600160401b8204811691600160a01b90041684565b610ab861120d565b610ad45760405162461bcd60e51b81526004016106589061494d565b610add8161248a565b610af95760405162461bcd60e51b81526004016106589061497d565b610b0a60098263ffffffff6124c316565b50336001600160a01b03167fe7902ff5b883e069d72db554511b4f7122428c996decf30682b312a66879668a82604051610b449190614741565b60405180910390a250565b8233604051610b5d9061472b565b60405190819003902060018311610b865760405162461bcd60e51b81526004016106589061496d565b6001600160a01b038083166000908152600560209081526040808320938516835292905220546000198401908411610bd05760405162461bcd60e51b8152600401610658906149cd565b6001600160a01b038216600090815260046020526040902054841115610c085760405162461bcd60e51b81526004016106589061489d565b610c10613760565b506001600160a01b03808316600090815260036020908152604080832060001980870185529083528184208251608081018452905463ffffffff808216808452600160201b83049091169583018690526001600160601b03600160401b8304811684870152600160a01b909204909116606083015260025493516337e6b1c160e01b8152919693909316936337e6b1c193610cb3938b93910191906004016147d6565b60206040518083038186803b158015610ccb57600080fd5b505afa158015610cdf573d6000803e3d6000fd5b505050506040513d601f19601f82011682018060405250610d039190810190613c1a565b90506001600160601b03811615610d2c5760405162461bcd60e51b81526004016106589061492d565b610d34613760565b506001600160a01b0380851660009081526003602090815260408083208784528252918290208251608081018452905463ffffffff808216808452600160201b83049091169383018490526001600160601b03600160401b8304811684870152600160a01b909204909116606083015260025493516337e6b1c160e01b8152919493909316926337e6b1c192610dd4928b926000190191906004016147d6565b60206040518083038186803b158015610dec57600080fd5b505afa158015610e00573d6000803e3d6000fd5b505050506040513d601f19601f82011682018060405250610e249190810190613c1a565b91506000826001600160601b031611610e4f5760405162461bcd60e51b8152600401610658906148ed565b600160085414610e715760405162461bcd60e51b8152600401610658906149ad565b60026008556000610e898b600163ffffffff61252316565b33600090815260056020526040808220905192935091610ea89061472b565b604051809103902060001c6001600160a01b03166001600160a01b0316815260200190815260200160002054811115610f1d57336000908152600560205260408082209051839290610ef99061472b565b60408051918290039091206001600160a01b03168252602082019290925201600020555b610f278a8a612565565b50506001600855505050505050505050565b600560209081526000928352604080842090915290825290205481565b6001546040805163afe8400960e01b815290516000926001600160a01b03169163afe84009916004808301926020929190829003018186803b158015610f9b57600080fd5b505afa158015610faf573d6000803e3d6000fd5b505050506040513d601f19601f82011682018060405250610fd39190810190613b9e565b9050610fde826128c4565b6000805b8351811015611198576000848281518110610ff957fe5b60200260200101516001600160a01b031663164e68de306040518263ffffffff1660e01b815260040161102c919061474f565b602060405180830381600087803b15801561104657600080fd5b505af115801561105a573d6000803e3d6000fd5b505050506040513d601f19601f8201168201806040525061107e9190810190613bbc565b9050801561118f57604051632e1a7d4d60e01b81526001600160a01b03851690632e1a7d4d906110b2908490600401614a4d565b600060405180830381600087803b1580156110cc57600080fd5b505af11580156110e0573d6000803e3d6000fd5b50505050600061110882604051806080016040528060488152602001614cf86048913961291b565b905061112d84826040518060800160405280604e8152602001614caa604e913961294a565b935085838151811061113b57fe5b60200260200101516001600160a01b0316336001600160a01b03167fd915b7f9d8d5ce11af1f5961b830d7d7c01a750927706eb0bcbf80a8827d76cc846040516111859190614a4d565b60405180910390a3505b50600101610fe2565b506001600160601b038116156111b7576111b76040516108899061472b565b505050565b6040516111c89061472b565b60405190819003902081565b6007602052600090815260409020546001600160601b031681565b6001546001600160a01b031681565b6000546001600160a01b031690565b600080546001600160a01b0316611222612986565b6001600160a01b031614905090565b6001600854146112535760405162461bcd60e51b8152600401610658906149ad565b60026008556112628282612565565b50506001600855565b61127361120d565b61128f5760405162461bcd60e51b81526004016106589061494d565b6112a060098263ffffffff61298a16565b50336001600160a01b03167f7b8bddb144d9ebd8a4fa3f47acac7c75b34ade822d5e528a442825fa9100ffdb82604051610b449190614741565b60005b818110156113325761130e8383838181106112f457fe5b905060200201602061130991908101906138bd565b61248a565b61132a5760405162461bcd60e51b8152600401610658906149fd565b6001016112dd565b50600154604051630f7e7aab60e41b81526000916001600160a01b03169063f7e7aab090611368908690869030906004016147fe565b602060405180830381600087803b15801561138257600080fd5b505af1158015611396573d6000803e3d6000fd5b505050506040513d601f19601f820116820180604052506113ba9190810190613bbc565b90506000600160009054906101000a90046001600160a01b03166001600160a01b031663afe840096040518163ffffffff1660e01b815260040160206040518083038186803b15801561140c57600080fd5b505afa158015611420573d6000803e3d6000fd5b505050506040513d601f19601f820116820180604052506114449190810190613b9e565b905081156114e157604051632e1a7d4d60e01b81526001600160a01b03821690632e1a7d4d90611478908590600401614a4d565b600060405180830381600087803b15801561149257600080fd5b505af11580156114a6573d6000803e3d6000fd5b5050505060006114ce83604051806080016040528060458152602001614c656045913961291b565b90506114df6040516108899061472b565b505b336001600160a01b03167fea588ee3c471f3c47a77b5d118007e77b1d74e5b310a8805df274aa067d2e8a68360405161151a9190614a4d565b60405180910390a250505050565b8233856001831161154b5760405162461bcd60e51b81526004016106589061496d565b6001600160a01b0380831660009081526005602090815260408083209385168352929052205460001984019084116115955760405162461bcd60e51b8152600401610658906149cd565b6001600160a01b0382166000908152600460205260409020548411156115cd5760405162461bcd60e51b81526004016106589061489d565b6115d5613760565b506001600160a01b03808316600090815260036020908152604080832060001980870185529083528184208251608081018452905463ffffffff808216808452600160201b83049091169583018690526001600160601b03600160401b8304811684870152600160a01b909204909116606083015260025493516337e6b1c160e01b8152919693909316936337e6b1c193611678938b93910191906004016147d6565b60206040518083038186803b15801561169057600080fd5b505afa1580156116a4573d6000803e3d6000fd5b505050506040513d601f19601f820116820180604052506116c89190810190613c1a565b90506001600160601b038116156116f15760405162461bcd60e51b81526004016106589061492d565b6116f9613760565b506001600160a01b0380851660009081526003602090815260408083208784528252918290208251608081018452905463ffffffff808216808452600160201b83049091169383018490526001600160601b03600160401b8304811684870152600160a01b909204909116606083015260025493516337e6b1c160e01b8152919493909316926337e6b1c192611799928b926000190191906004016147d6565b60206040518083038186803b1580156117b157600080fd5b505afa1580156117c5573d6000803e3d6000fd5b505050506040513d601f19601f820116820180604052506117e99190810190613c1a565b91506000826001600160601b0316116118145760405162461bcd60e51b8152600401610658906148ed565b6001600854146118365760405162461bcd60e51b8152600401610658906149ad565b6002600855600061184e8b600163ffffffff61252316565b905060056000336001600160a01b03166001600160a01b0316815260200190815260200160002060008d6001600160a01b03166001600160a01b03168152602001908152602001600020548111156118ee578060056000336001600160a01b03166001600160a01b0316815260200190815260200160002060008e6001600160a01b03166001600160a01b03168152602001908152602001600020819055505b6118f98c8b8b612a95565b5050600160085550505050505050505050565b60016008541461192e5760405162461bcd60e51b8152600401610658906149ad565b600260085561193e838383612a95565b5050600160085550565b63aa5036e960e01b6000819052600b6020527fa02e544f58192f4f5f2c12a2ad94a37e02b3cc3232372e81b417611b94ccf0e85460ff161561199c5760405162461bcd60e51b8152600401610658906148dd565b6119a461120d565b6119c05760405162461bcd60e51b81526004016106589061494d565b670c320cbdb1f8e260690387108582e4ba67e98069015437959820bab0d48073db107fa69e33f05180a4c2ce9c2e7cb481645c2d73efc78fc7d48b64958315949279ba181c2114abbd6000611a136111fe565b6001600160a01b031686604051611a2990614736565b60006040518083038185875af1925050503d8060008114611a66576040519150601f19603f3d011682016040523d82523d6000602084013e611a6b565b606091505b5050905080611a8c5760405162461bcd60e51b81526004016106589061499d565b611aae611a976111fe565b6001600160a01b038516908763ffffffff61243116565b611ad0611ab96111fe565b6001600160a01b038416908663ffffffff61243116565b5050506001600160e01b03199093166000908152600b60205260409020805460ff19166001179055505050565b6001600160a01b038216611b235760405162461bcd60e51b81526004016106589061486d565b6000816001600160601b031611611b4c5760405162461bcd60e51b81526004016106589061485d565b6040516323b872dd60e01b81526000906001600160a01b038416906323b872dd90611b7f9033903090879060040161475d565b602060405180830381600087803b158015611b9957600080fd5b505af1158015611bad573d6000803e3d6000fd5b505050506040513d601f19601f82011682018060405250611bd19190810190613b62565b905080611bf05760405162461bcd60e51b81526004016106589061498d565b6001546040805163afe8400960e01b815290516000926001600160a01b03169163afe84009916004808301926020929190829003018186803b158015611c3557600080fd5b505afa158015611c49573d6000803e3d6000fd5b505050506040513d601f19601f82011682018060405250611c6d9190810190613b9e565b9050806001600160a01b0316846001600160a01b03161415611cff57604051632e1a7d4d60e01b81526001600160a01b03821690632e1a7d4d90611cb5908690600401614aec565b600060405180830381600087803b158015611ccf57600080fd5b505af1158015611ce3573d6000803e3d6000fd5b50505050604051611cf39061472b565b60405190819003902093505b611d098484611f96565b836001600160a01b0316336001600160a01b03167f1b89874203ff7f0bba87c969ada3f32fda22ed38a6706d35199d21280c7811b185604051611d4c9190614aec565b60405180910390a350505050565b6060611d666009612df8565b905090565b600080600080611d7c856000612e9e565b5050509250925092506000600160009054906101000a90046001600160a01b03166001600160a01b031663afe840096040518163ffffffff1660e01b815260040160206040518083038186803b158015611dd557600080fd5b505afa158015611de9573d6000803e3d6000fd5b505050506040513d601f19601f82011682018060405250611e0d9190810190613b9e565b90506000611e1a82612f97565b90506000611eb7670de0b6b3a7640000611eab846001600160a01b0316637ff9b5966040518163ffffffff1660e01b815260040160206040518083038186803b158015611e6657600080fd5b505afa158015611e7a573d6000803e3d6000fd5b505050506040513d601f19601f82011682018060405250611e9e9190810190613bbc565b879063ffffffff61304416565b9063ffffffff61307e16565b9050611ed981611ecd888863ffffffff611f6a16565b9063ffffffff611f6a16565b98975050505050505050565b600080611ef4868686866120da565b509150505b949350505050565b600b6020526000908152604090205460ff1681565b60046020526000908152604090205481565b611f3061120d565b611f4c5760405162461bcd60e51b81526004016106589061494d565b611f55816130c0565b50565b60066020526000908152604090205481565b600082820183811015611f8f5760405162461bcd60e51b8152600401610658906148bd565b9392505050565b6001600160a01b0382166000908152600660205260409020546202a30042919091031061204f576001600160a01b03821660009081526006602090815260408083204290556007825280832054815160608101909252603b808352612012936001600160601b03909216928692909190614dc29083013961294a565b6001600160a01b038416600090815260076020526040902080546bffffffffffffffffffffffff1916905590506120498382613141565b506120d6565b6001600160a01b03821660009081526007602090815260409182902054825160808101909352604680845261209a936001600160601b039092169285929190614e439083013961294a565b6001600160a01b038316600090815260076020526040902080546bffffffffffffffffffffffff19166001600160601b03929092169190911790555b5050565b60025460405163ca6860df60e01b815260009182916001600160a01b039091169063ca6860df9061210f908990600401614741565b60206040518083038186803b15801561212757600080fd5b505afa15801561213b573d6000803e3d6000fd5b505050506040513d601f19601f8201168201806040525061215f9190810190613b62565b1561216f57506000905080612428565b6001600160a01b038087166000908152600560209081526040808320938916835292905290812054908186116121a557816121a7565b855b905060008563ffffffff16116121d5576001600160a01b0387166000908152600460205260409020546121e0565b6121e08188876133b1565b6001600160a01b038816600090815260046020526040902054909350811061220e5750600092506124289050565b600080825b8581101561242257612223613760565b506001600160a01b03808b16600090815260036020908152604080832085845282528083208151608081018352905463ffffffff8082168352600160201b8204169382018490526001600160601b03600160401b8204811683850152600160a01b90910416606082015260025491516372ec979560e01b8152909491909116916372ec9795916122b69190600401614a84565b60206040518083038186803b1580156122ce57600080fd5b505afa1580156122e2573d6000803e3d6000fd5b505050506040513d601f19601f820116820180604052506123069190810190613bbc565b90506000858214156123195750836123c2565b600260009054906101000a90046001600160a01b03166001600160a01b03166337e6b1c18f600186600001510386602001516040518463ffffffff1660e01b8152600401612369939291906147d6565b60206040518083038186803b15801561238157600080fd5b505afa158015612395573d6000803e3d6000fd5b505050506040513d601f19601f820116820180604052506123b99190810190613c1a565b90508094508195505b60006123fe84604001516001600160601b0316611eab846001600160601b031687606001516001600160601b031661304490919063ffffffff16565b90506124108b8263ffffffff611f6a16565b9a505060019093019250612213915050565b50505050505b94509492505050565b6040516111b790849063a9059cbb60e01b9061245390869086906024016147ad565b60408051601f198184030181529190526020810180516001600160e01b03166001600160e01b031990931692909217909152613472565b6000813f7fc5d2460186f7233c927e7db2dcc703c0e500b653ca82273b7bfad8045d85a470818114801590611ef9575050151592915050565b60006124cf8383613557565b61251b5750600182810180548083018083556000928352602080842090920180546001600160a01b0319166001600160a01b0387169081179091558352908590526040909120556108ed565b5060006108ed565b6000611f8f83836040518060400160405280601e81526020017f536166654d6174683a207375627472616374696f6e206f766572666c6f770000815250613575565b6000806000806000806000803390506000600160009054906101000a90046001600160a01b03166001600160a01b031663afe840096040518163ffffffff1660e01b815260040160206040518083038186803b1580156125c457600080fd5b505afa1580156125d8573d6000803e3d6000fd5b505050506040513d601f19601f820116820180604052506125fc9190810190613b9e565b9050600061260982612f97565b90506001600160a01b038b1661261d57339a505b612627838d612e9e565b939e50939c50909a50985090965094508815612688576001600160a01b03831660009081526005602052604080822090518992906126649061472b565b60408051918290039091206001600160a01b03168252602082019290925201600020555b891561270d576001600160a01b038084166000908152600560209081526040808320938616808452939091529081902088905551632e1a7d4d60e01b8152632e1a7d4d906126da908d90600401614a4d565b600060405180830381600087803b1580156126f457600080fd5b505af1158015612708573d6000803e3d6000fd5b505050505b87156127b5576001600160a01b0380841660009081526005602090815260408083209385168084529390915280822088905551630141abc160e21b8152630506af04916127609130918d91600401614785565b602060405180830381600087803b15801561277a57600080fd5b505af115801561278e573d6000803e3d6000fd5b505050506040513d601f19601f820116820180604052506127b29190810190613bbc565b93505b60006127cb85611ecd8c8e63ffffffff611f6a16565b9050600081116127ed5760405162461bcd60e51b815260040161065890614a2d565b60008c6001600160a01b03168260405161280690614736565b60006040518083038185875af1925050503d8060008114612843576040519150601f19603f3d011682016040523d82523d6000602084013e612848565b606091505b50509050806128695760405162461bcd60e51b8152600401610658906148ad565b8c6001600160a01b0316856001600160a01b03167fba7771603337d6821ea291d76396cf6aa3ea405141b033d8415280139c980c1d846040516128ac9190614a4d565b60405180910390a35050505050505050505050505050565b60005b81518110156120d6576128f78282815181106128df57fe5b6020026020010151600961355790919063ffffffff16565b6129135760405162461bcd60e51b8152600401610658906148cd565b6001016128c7565b600081600160601b84106129425760405162461bcd60e51b8152600401610658919061484c565b509192915050565b6000838301826001600160601b03808716908316101561297d5760405162461bcd60e51b8152600401610658919061484c565b50949350505050565b3390565b60006129968383613557565b1561251b576001600160a01b03821660009081526020849052604090205460018401546000199182019101808214612a415760008560010182815481106129d957fe5b6000918252602090912001546001870180546001600160a01b039092169250829185908110612a0457fe5b600091825260208083209190910180546001600160a01b0319166001600160a01b0394851617905592909116815290869052604090206001830190555b6001600160a01b03841660009081526020869052604081205560018501805480612a6757fe5b600082815260209020810160001990810180546001600160a01b031916905501905550600191506108ed9050565b60008263ffffffff1611612abb5760405162461bcd60e51b81526004016106589061495d565b6001546040805163afe8400960e01b815290516000926001600160a01b03169163afe84009916004808301926020929190829003018186803b158015612b0057600080fd5b505afa158015612b14573d6000803e3d6000fd5b505050506040513d601f19601f82011682018060405250612b389190810190613b9e565b90506000612b4582612f97565b9050336001600160a01b038416612b5a573393505b6001600160a01b038082166000908152600560209081526040808320938a168352929052908120549080612b90848a858b6120da565b915091508160001415612c405782811115612c2857886001600160a01b0316336001600160a01b03167fd3d8b561a0f93295b4ea7e2b930d36bd7f1a38774547bf98fb66540f588217b28584604051612bea929190614a76565b60405180910390a36001600160a01b039384166000908152600560209081526040808320968c1683529590529390932092909255506111b792505050565b60405162461bcd60e51b81526004016106589061487d565b6001600160a01b0380851660009081526005602090815260408083208d851680855292529091208390559086161415612cfc57604051630141abc160e21b81526001600160a01b038a1690630506af0490612ca4908a9086906000906004016147c8565b602060405180830381600087803b158015612cbe57600080fd5b505af1158015612cd2573d6000803e3d6000fd5b505050506040513d601f19601f82011682018060405250612cf69190810190613bbc565b50612d98565b60405163a9059cbb60e01b81526001600160a01b038a169063a9059cbb90612d2a908a9086906004016147ad565b602060405180830381600087803b158015612d4457600080fd5b505af1158015612d58573d6000803e3d6000fd5b505050506040513d601f19601f82011682018060405250612d7c9190810190613b62565b612d985760405162461bcd60e51b8152600401610658906149dd565b886001600160a01b0316876001600160a01b0316336001600160a01b03167fe635adc5d0c2d7b47215ce5ed57a79c3db183a1ef414ccfc43f24f19178a630f85604051612de59190614a4d565b60405180910390a4505050505050505050565b6060808260010180549050604051908082528060200260200182016040528015612e2c578160200160208202803883390190505b50905060005b6001840154811015612e9757836001018181548110612e4d57fe5b9060005260206000200160009054906101000a90046001600160a01b0316828281518110612e7757fe5b6001600160a01b0390921660209283029190910190910152600101612e32565b5092915050565b6000806000806000806000600160009054906101000a90046001600160a01b03166001600160a01b031663afe840096040518163ffffffff1660e01b815260040160206040518083038186803b158015612ef757600080fd5b505afa158015612f0b573d6000803e3d6000fd5b505050506040513d601f19601f82011682018060405250612f2f9190810190613b9e565b90506000612f3c82612f97565b9050612f5f8a604051612f4e9061472b565b60405190819003902060008c6120da565b9098509450612f718a8360008c6120da565b9097509350612f838a8260008c6120da565b809450819750505050509295509295509295565b6001546040516310c59ce360e11b815260009182916001600160a01b039091169063218b39c690612fcc908690600401614741565b60206040518083038186803b158015612fe457600080fd5b505afa158015612ff8573d6000803e3d6000fd5b505050506040513d601f19601f8201168201806040525061301c91908101906138db565b90506001600160a01b0381166108ed5760405162461bcd60e51b8152600401610658906149bd565b600082613053575060006108ed565b8282028284828161306057fe5b0414611f8f5760405162461bcd60e51b81526004016106589061493d565b6000611f8f83836040518060400160405280601a81526020017f536166654d6174683a206469766973696f6e206279207a65726f0000000000008152506135a1565b6001600160a01b0381166130e65760405162461bcd60e51b81526004016106589061488d565b600080546040516001600160a01b03808516939216917f8be0079c531659141344cd1fd0a4f28419497f9722a3daafe3b4186f6b6457e091a3600080546001600160a01b0319166001600160a01b0392909216919091179055565b600061316543604051806080016040528060438152602001614d40604391396135d8565b9050600061318b42604051806080016040528060468152602001614dfd604691396135d8565b6001600160a01b0385166000908152600460205260408120549192506131b56000198501426135ff565b90506000816001600160601b0316116131e05760405162461bcd60e51b815260040161065890614a0d565b60008211801561321f57506001600160a01b03861660009081526003602090815260408083206000198601845290915290205463ffffffff8581169116145b1561328e576001600160a01b03868116600090815260036020908152604080832060001987018452909152902080546001600160601b03888116600160a01b02908516600160401b026bffffffffffffffffffffffff60401b199092169190911790921691909117905561335e565b6040805160808101825263ffffffff868116825285811660208084019182526001600160601b038681168587019081528b8216606087019081526001600160a01b038e81166000818152600387528a81208d825287528a812099518a5498519551945163ffffffff19909916908a161767ffffffff000000001916600160201b9590991694909402979097176bffffffffffffffffffffffff60401b1916600160401b928516929092029190911716600160a01b9490921693909302179093559081526004909152206001830190555b856001600160a01b0316336001600160a01b03167ff61a5f2f4d0b2d871d5bf18717d08a6b0f543afa7e08dad5df1fea150f729632876040516133a19190614aec565b60405180910390a3505050505050565b6001600160a01b038216600090815260046020526040812054806133d9576000915050611f8f565b600063ffffffff84166133ed57508061342a565b6134178463ffffffff1687016040518060600160405280603f8152602001614d83603f91396135d8565b63ffffffff1690508181111561342a5750805b6001600160a01b03851660009081526003602090815260408083206000198501845290915290205463ffffffff164381141561346857600019909101905b5095945050505050565b613484826001600160a01b031661248a565b6134a05760405162461bcd60e51b815260040161065890614a3d565b60006060836001600160a01b0316836040516134bc919061471f565b6000604051808303816000865af19150503d80600081146134f9576040519150601f19603f3d011682016040523d82523d6000602084013e6134fe565b606091505b5091509150816135205760405162461bcd60e51b81526004016106589061490d565b805115610a5f578080602001905161353b9190810190613b62565b610a5f5760405162461bcd60e51b8152600401610658906149ed565b6001600160a01b031660009081526020919091526040902054151590565b600081848411156135995760405162461bcd60e51b8152600401610658919061484c565b505050900390565b600081836135c25760405162461bcd60e51b8152600401610658919061484c565b5060008385816135ce57fe5b0495945050505050565b600081600160201b84106129425760405162461bcd60e51b8152600401610658919061484c565b60025460405163cdbe715560e01b815260009182916001600160a01b039091169063cdbe7155906136369087908790600401614a92565b60206040518083038186803b15801561364e57600080fd5b505afa158015613662573d6000803e3d6000fd5b505050506040513d601f19601f820116820180604052506136869190810190613c1a565b6002546040516312916bdd60e11b81529192506001600160a01b031690632522d7ba906136b99087908790600401614aa0565b60206040518083038186803b1580156136d157600080fd5b505afa1580156136e5573d6000803e3d6000fd5b505050506040513d601f19601f820116820180604052506137099190810190613c1a565b9150611ef98282604051806080016040528060568152602001614e89605691396000836001600160601b0316836001600160601b0316111582906135995760405162461bcd60e51b8152600401610658919061484c565b60408051608081018252600080825260208201819052918101829052606081019190915290565b80356108ed81614c1a565b80516108ed81614c1a565b60008083601f8401126137af57600080fd5b50813567ffffffffffffffff8111156137c757600080fd5b6020830191508360208202830111156137df57600080fd5b9250929050565b600082601f8301126137f757600080fd5b813561380a61380582614b2f565b614b08565b9150818183526020840193506020810190508385602084028201111561382f57600080fd5b60005b8381101561385b57816138458882613787565b8452506020928301929190910190600101613832565b5050505092915050565b80516108ed81614c2e565b80356108ed81614c37565b80516108ed81614c40565b80356108ed81614c49565b80516108ed81614c49565b80356108ed81614c52565b80356108ed81614c5b565b80516108ed81614c5b565b6000602082840312156138cf57600080fd5b6000611ef98484613787565b6000602082840312156138ed57600080fd5b6000611ef98484613792565b6000806040838503121561390c57600080fd5b60006139188585613787565b925050602061392985828601613787565b9150509250929050565b6000806000806080858703121561394957600080fd5b60006139558787613787565b945050602061396687828801613787565b935050604061397787828801613886565b925050606061398887828801613886565b91505092959194509250565b600080600080608085870312156139aa57600080fd5b60006139b68787613787565b94505060206139c787828801613787565b93505060406139d887828801613886565b92505060606139888782880161389c565b600080604083850312156139fc57600080fd5b6000613a088585613787565b925050602061392985828601613886565b60008060008060808587031215613a2f57600080fd5b6000613a3b8787613787565b9450506020613a4c87828801613886565b9350506040613a5d8782880161389c565b925050606061398887828801613787565b600080600060608486031215613a8357600080fd5b6000613a8f8686613787565b9350506020613aa08682870161389c565b9250506040613ab186828701613787565b9150509250925092565b60008060408385031215613ace57600080fd5b6000613ada8585613787565b9250506020613929858286016138a7565b60008060208385031215613afe57600080fd5b823567ffffffffffffffff811115613b1557600080fd5b613b218582860161379d565b92509250509250929050565b600060208284031215613b3f57600080fd5b813567ffffffffffffffff811115613b5657600080fd5b611ef9848285016137e6565b600060208284031215613b7457600080fd5b6000611ef98484613865565b600060208284031215613b9257600080fd5b6000611ef98484613870565b600060208284031215613bb057600080fd5b6000611ef9848461387b565b600060208284031215613bce57600080fd5b6000611ef98484613891565b600080600060608486031215613bef57600080fd5b6000613a8f8686613886565b60008060408385031215613c0e57600080fd5b6000613918858561389c565b600060208284031215613c2c57600080fd5b6000611ef984846138b2565b6000613c448383613c5b565b505060200190565b613c5581614bc3565b82525050565b613c5581614b7a565b6000613c708385614b5d565b9350613c7b82614b50565b8060005b85811015613cb157613c918284614b6b565b613c9b8882613c38565b9750613ca683614b53565b925050600101613c7f565b509495945050505050565b6000613cc782614b59565b613cd18185614b5d565b9350613cdc83614b53565b8060005b83811015613cb1578151613cf48882613c38565b9750613cff83614b53565b925050600101613ce0565b613c5581614b85565b6000613d1e82614b59565b613d288185614b66565b9350613d38818560208601614be4565b9290920192915050565b613c5581614b97565b6000613d5682614b59565b613d608185614b5d565b9350613d70818560208601614be4565b613d7981614c10565b9093019392505050565b6000613d90603383614b5d565b7f46656553686172696e67436f6c6c6563746f723a3a7472616e73666572546f6b815272195b9cce881a5b9d985b1a5908185b5bdd5b9d606a1b602082015260400192915050565b6000613de5603483614b5d565b7f46656553686172696e67436f6c6c6563746f723a3a7472616e73666572546f6b815273656e733a20696e76616c6964206164647265737360601b602082015260400192915050565b6000613e3b603b83614b5d565b7f46656553686172696e67436f6c6c6563746f723a3a776974686472617746656581527f733a206e6f20746f6b656e7320666f72207769746864726177616c0000000000602082015260400192915050565b6000613e9a602683614b5d565b7f4f776e61626c653a206e6577206f776e657220697320746865207a65726f206181526564647265737360d01b602082015260400192915050565b6000613ee2603283614b5d565b7f5f66726f6d436865636b706f696e742073686f756c64206265203c3d20746f74815271616c546f6b656e436865636b706f696e747360701b602082015260400192915050565b6000613f36603483614b5d565b7f46656553686172696e67436f6c6c6563746f723a3a776974686472617752425481527310ce8815da5d1a191c985dd85b0819985a5b195960621b602082015260400192915050565b6000613f8c601b83614b5d565b7f536166654d6174683a206164646974696f6e206f766572666c6f770000000000815260200192915050565b6000613fc5601183614b5d565b7024b73b30b634b21021b7b73b32b93a32b960791b815260200192915050565b6000613ff2603583614b5d565b7f46656553686172696e67436f6c6c6563746f723a2066756e6374696f6e2063618152746e206f6e6c792062652063616c6c6564206f6e636560581b602082015260400192915050565b6000614049603583614b5d565b7f55736572207765696768746564207374616b652073686f756c64206265203e208152740c08185d080817d99c9bdb50da1958dadc1bda5b9d605a1b602082015260400192915050565b60006140a0601483614b5d565b73496e73756666696369656e742062616c616e636560601b815260200192915050565b60006140d0602083614b5d565b7f5361666545524332303a206c6f772d6c6576656c2063616c6c206661696c6564815260200192915050565b6000614109603083614b5d565b7f46656553686172696e67436f6c6c6563746f723a3a7472616e7366657252425481526f433a20696e76616c69642076616c756560801b602082015260400192915050565b600061415b603983614b5d565b7f55736572207765696768746564207374616b652073686f756c64206265207a6581527f726f2061742070726576696f757320636865636b706f696e7400000000000000602082015260400192915050565b60006141ba602183614b5d565b7f536166654d6174683a206d756c7469706c69636174696f6e206f766572666c6f8152607760f81b602082015260400192915050565b60006141fd600c83614b5d565b6b1d5b985d5d1a1bdc9a5e995960a21b815260200192915050565b6000614225604183614b5d565b7f46656553686172696e67436f6c6c6563746f723a3a77697468647261773a205f81527f6d6178436865636b706f696e74732073686f756c6420626520706f73697469766020820152606560f81b604082015260600192915050565b600061428e602183614b5d565b7f5f66726f6d436865636b706f696e7420706172616d206d757374206265203e208152603160f81b602082015260400192915050565b60006142d1601a83614b5d565b7f4e6f6e20636f6e7472616374206164647265737320676976656e000000000000815260200192915050565b600061430a602e83614b5d565b7f5374616b696e673a3a7472616e73666572546f6b656e733a20746f6b656e207481526d1c985b9cd9995c8819985a5b195960921b602082015260400192915050565b600061435a602183614b66565b7f524254435f44554d4d595f414444524553535f464f525f434845434b504f494e8152601560fa1b602082015260210192915050565b60006108ed600083614b66565b60006143aa604a83614b5d565b7f46656553686172696e67436f6c6c6563746f723a3a7265636f766572496e636f81527f7272656374416c6c6f6361746564466565733a205769746864726177616c2072602082015269189d18c819985a5b195960b21b604082015260600192915050565b600061441c600c83614b5d565b6b1b9bdb9499595b9d1c985b9d60a21b815260200192915050565b6000614444603383614b5d565b7f46656553686172696e67436f6c6c6563746f723a3a77697468647261773a206c8152721bd85b881dd4909510c81b9bdd08199bdd5b99606a1b602082015260400192915050565b6000614499603883614b5d565b7f5f66726f6d436865636b706f696e7420706172616d206d757374206265203e2081527f7573657250726f636573736564436865636b706f696e74730000000000000000602082015260400192915050565b60006144f8603083614b5d565b7f46656553686172696e67436f6c6c6563746f723a3a77697468647261773a207781526f1a5d1a191c985dd85b0819985a5b195960821b602082015260400192915050565b600061454a602a83614b5d565b7f5361666545524332303a204552433230206f7065726174696f6e20646964206e8152691bdd081cdd58d8d9595960b21b602082015260400192915050565b6000614596603a83614b5d565b7f46656553686172696e67436f6c6c6563746f723a3a776974686472617746656581527f733a20746f6b656e206973206e6f74206120636f6e7472616374000000000000602082015260400192915050565b60006145f5601a83614b5d565b7f496e76616c696420746f74616c57656967687465645374616b65000000000000815260200192915050565b600061462e601b83614b5d565b7f5f6d6178436865636b706f696e7473206d757374206265203e20300000000000815260200192915050565b6000614667603b83614b5d565b7f46656553686172696e67436f6c6c6563746f723a3a776974686472617746656581527f733a206e6f207262746320666f722061207769746864726177616c0000000000602082015260400192915050565b60006146c6601f83614b5d565b7f5361666545524332303a2063616c6c20746f206e6f6e2d636f6e747261637400815260200192915050565b613c5581614b50565b613c5581614bce565b613c5581614bae565b613c5581614bd9565b613c5581614bb7565b6000611f8f8284613d13565b60006108ed8261434d565b60006108ed82614390565b602081016108ed8284613c5b565b602081016108ed8284613c4c565b6060810161476b8286613c4c565b6147786020830185613c4c565b611ef9604083018461470d565b606081016147938286613c4c565b6147a060208301856146f2565b611ef96040830184613d0a565b604081016147bb8285613c5b565b611f8f60208301846146f2565b606081016147938286613c5b565b606081016147e48286613c5b565b6147f160208301856146fb565b611ef960408301846146fb565b60408082528101614810818587613c64565b9050611ef96020830184613c4c565b60208082528101611f8f8184613cbc565b602081016108ed8284613d0a565b602081016108ed8284613d42565b60208082528101611f8f8184613d4b565b602080825281016108ed81613d83565b602080825281016108ed81613dd8565b602080825281016108ed81613e2e565b602080825281016108ed81613e8d565b602080825281016108ed81613ed5565b602080825281016108ed81613f29565b602080825281016108ed81613f7f565b602080825281016108ed81613fb8565b602080825281016108ed81613fe5565b602080825281016108ed8161403c565b602080825281016108ed81614093565b602080825281016108ed816140c3565b602080825281016108ed816140fc565b602080825281016108ed8161414e565b602080825281016108ed816141ad565b602080825281016108ed816141f0565b602080825281016108ed81614218565b602080825281016108ed81614281565b602080825281016108ed816142c4565b602080825281016108ed816142fd565b602080825281016108ed8161439d565b602080825281016108ed8161440f565b602080825281016108ed81614437565b602080825281016108ed8161448c565b602080825281016108ed816144eb565b602080825281016108ed8161453d565b602080825281016108ed81614589565b602080825281016108ed816145e8565b602080825281016108ed81614621565b602080825281016108ed8161465a565b602080825281016108ed816146b9565b602081016108ed82846146f2565b60608101614a6982866146f2565b6147a06020830185613d0a565b604081016147bb82856146f2565b602081016108ed82846146fb565b604081016147bb82856146fb565b604081016147bb8285614704565b60808101614abc8287614704565b614ac96020830186614704565b614ad66040830185614716565b614ae36060830184614716565b95945050505050565b602081016108ed828461470d565b602081016108ed8284614716565b60405181810167ffffffffffffffff81118282101715614b2757600080fd5b604052919050565b600067ffffffffffffffff821115614b4657600080fd5b5060209081020190565b90565b60200190565b5190565b90815260200190565b919050565b6000611f8f6020840184613787565b60006108ed82614ba2565b151590565b6001600160e01b03191690565b60006108ed82614b7a565b6001600160a01b031690565b63ffffffff1690565b6001600160601b031690565b60006108ed82614b97565b60006108ed82614bae565b60006108ed82614bb7565b60005b83811015614bff578181015183820152602001614be7565b83811115610a5f5750506000910152565b601f01601f191690565b614c2381614b7a565b8114611f5557600080fd5b614c2381614b85565b614c2381614b8a565b614c2381614b97565b614c2381614b50565b614c2381614bae565b614c2381614bb756fe46656553686172696e67436f6c6c6563746f723a3a7769746864726177466565733a20777262746320746f6b656e20616d6f756e742065786365656473203936206269747346656553686172696e67436f6c6c6563746f723a3a776974686472617746656573414d4d3a20746f74616c20777262746320746f6b656e20616d6f756e742065786365656473203936206269747346656553686172696e67436f6c6c6563746f723a3a776974686472617746656573414d4d3a20777262746320746f6b656e20616d6f756e742065786365656473203936206269747346656553686172696e67436f6c6c6563746f723a3a5f7772697465436865636b706f696e743a20626c6f636b206e756d6265722065786365656473203332206269747346656553686172696e67436f6c6c6563746f723a3a77697468647261773a20636865636b706f696e7420696e6465782065786365656473203332206269747346656553686172696e67436f6c6c6563746f723a3a5f616464436865636b706f696e743a20616d6f756e742065786365656473203936206269747346656553686172696e67436f6c6c6563746f723a3a5f7772697465436865636b706f696e743a20626c6f636b2074696d657374616d702065786365656473203332206269747346656553686172696e67436f6c6c6563746f723a3a5f616464436865636b706f696e743a20756e70726f636573736564416d6f756e742065786365656473203936206269747346656553686172696e67436f6c6c6563746f723a3a5f676574546f74616c566f6c756e7461727957656967687465645374616b653a20766573746564207374616b65206578636565647320746f74616c207374616b65a365627a7a72315820e1e1b14fb51db20d04ce36611a829103d90b6c571b3bde9f827b1befb72acaf36c6578706572696d656e74616cf564736f6c63430005110040",
    "linkReferences": {}
  },
  "methodIdentifiers": {
    "RBTC_DUMMY_ADDRESS_FOR_CHECKPOINT()": "7d0ce2b2",
    "addWhitelistedConverterAddress(address)": "7061acf3",
    "getAccumulatedFees(address,address)": "3d67df6f",
    "getAccumulatedFeesForCheckpointsRange(address,address,uint256,uint32)": "c3f0eaee",
    "getAccumulatedRBTCFeeBalances(address)": "c3040447",
    "getNextPositiveUserCheckpoint(address,address,uint256,uint256)": "1345946c",
    "getWhitelistedConverterList()": "adcf21a7",
    "isFunctionExecuted(bytes4)": "d93b69ab",
    "isOwner()": "8f32d59b",
    "lastFeeWithdrawalTime(address)": "f3bdba8f",
    "numTokenCheckpoints(address)": "20020208",
    "owner()": "8da5cb5b",
    "processedCheckpoints(address,address)": "7913b451",
    "protocol()": "8ce74426",
    "recoverIncorrectAllocatedFees()": "aa5036e9",
    "removeWhitelistedConverterAddress(address)": "a4955f2a",
    "staking()": "4cf088d9",
    "tokenCheckpoints(address,uint256)": "70530017",
    "totalTokenCheckpoints(address)": "f2962cda",
    "transferOwnership(address)": "f2fde38b",
    "transferRBTC()": "22a6fd95",
    "transferTokens(address,uint96)": "abe979e1",
    "unprocessedAmount(address)": "8b6fdcba",
    "withdraw(address,uint32,address)": "a965b3a9",
    "withdrawFees(address[])": "a697b8c7",
    "withdrawFeesAMM(address[])": "7c8678ec",
    "withdrawRBTC(uint32,address)": "988ba593",
    "withdrawRBTCStartingFromCheckpoint(uint256,uint32,address)": "7104c4ff",
    "withdrawStartingFromCheckpoint(address,uint256,uint32,address)": "a9336519",
    "withdrawWRBTC(address,uint256)": "5c4d9b12"
  },
  "id": 54
}