{
  "abi": [
    {
      "anonymous": false,
      "inputs": [
        {
          "indexed": true,
          "internalType": "address",
          "name": "previousOwner",
          "type": "address"
        },
        {
          "indexed": true,
          "internalType": "address",
          "name": "newOwner",
          "type": "address"
        }
      ],
      "name": "OwnershipTransferred",
      "type": "event"
    },
    {
      "anonymous": false,
      "inputs": [
        {
          "indexed": true,
          "internalType": "address",
          "name": "receiver",
          "type": "address"
        },
        {
          "indexed": false,
          "internalType": "uint256",
          "name": "amount",
          "type": "uint256"
        }
      ],
      "name": "RewardWithdrawn",
      "type": "event"
    },
    {
      "constant": true,
      "inputs": [],
      "name": "BASE_RATE",
      "outputs": [
        {
          "internalType": "uint256",
          "name": "",
          "type": "uint256"
        }
      ],
      "payable": false,
      "stateMutability": "view",
      "type": "function"
    },
    {
      "constant": true,
      "inputs": [],
      "name": "DIVISOR",
      "outputs": [
        {
          "internalType": "uint256",
          "name": "",
          "type": "uint256"
        }
      ],
      "payable": false,
      "stateMutability": "view",
      "type": "function"
    },
    {
      "constant": true,
      "inputs": [],
      "name": "SOV",
      "outputs": [
        {
          "internalType": "contract IERC20",
          "name": "",
          "type": "address"
        }
      ],
      "payable": false,
      "stateMutability": "view",
      "type": "function"
    },
    {
      "constant": true,
      "inputs": [],
      "name": "TWO_WEEKS",
      "outputs": [
        {
          "internalType": "uint256",
          "name": "",
          "type": "uint256"
        }
      ],
      "payable": false,
      "stateMutability": "view",
      "type": "function"
    },
    {
      "constant": true,
      "inputs": [],
      "name": "averageBlockTime",
      "outputs": [
        {
          "internalType": "uint256",
          "name": "",
          "type": "uint256"
        }
      ],
      "payable": false,
      "stateMutability": "view",
      "type": "function"
    },
    {
      "constant": true,
      "inputs": [],
      "name": "blockMockUp",
      "outputs": [
        {
          "internalType": "contract BlockMockUp",
          "name": "",
          "type": "address"
        }
      ],
      "payable": false,
      "stateMutability": "view",
      "type": "function"
    },
    {
      "constant": true,
      "inputs": [
        {
          "internalType": "uint256",
          "name": "",
          "type": "uint256"
        }
      ],
      "name": "checkpointBlockDetails",
      "outputs": [
        {
          "internalType": "uint256",
          "name": "",
          "type": "uint256"
        }
      ],
      "payable": false,
      "stateMutability": "view",
      "type": "function"
    },
    {
      "constant": true,
      "inputs": [
        {
          "internalType": "address",
          "name": "",
          "type": "address"
        }
      ],
      "name": "claimedBalances",
      "outputs": [
        {
          "internalType": "uint256",
          "name": "",
          "type": "uint256"
        }
      ],
      "payable": false,
      "stateMutability": "view",
      "type": "function"
    },
    {
      "constant": false,
      "inputs": [
        {
          "internalType": "uint256",
          "name": "restartTime",
          "type": "uint256"
        }
      ],
      "name": "collectReward",
      "outputs": [],
      "payable": false,
      "stateMutability": "nonpayable",
      "type": "function"
    },
    {
      "constant": true,
      "inputs": [],
      "name": "deploymentBlock",
      "outputs": [
        {
          "internalType": "uint256",
          "name": "",
          "type": "uint256"
        }
      ],
      "payable": false,
      "stateMutability": "view",
      "type": "function"
    },
    {
      "constant": true,
      "inputs": [
        {
          "internalType": "bool",
          "name": "considerMaxDuration",
          "type": "bool"
        },
        {
          "internalType": "uint256",
          "name": "restartTime",
          "type": "uint256"
        }
      ],
      "name": "getStakerCurrentReward",
      "outputs": [
        {
          "internalType": "uint256",
          "name": "lastWithdrawalInterval",
          "type": "uint256"
        },
        {
          "internalType": "uint256",
          "name": "amount",
          "type": "uint256"
        }
      ],
      "payable": false,
      "stateMutability": "view",
      "type": "function"
    },
    {
      "constant": false,
      "inputs": [
        {
          "internalType": "address",
          "name": "_SOV",
          "type": "address"
        },
        {
          "internalType": "contract IStaking",
          "name": "_staking",
          "type": "address"
        }
      ],
      "name": "initialize",
      "outputs": [],
      "payable": false,
      "stateMutability": "nonpayable",
      "type": "function"
    },
    {
      "constant": true,
      "inputs": [],
      "name": "isOwner",
      "outputs": [
        {
          "internalType": "bool",
          "name": "",
          "type": "bool"
        }
      ],
      "payable": false,
      "stateMutability": "view",
      "type": "function"
    },
    {
      "constant": true,
      "inputs": [],
      "name": "maxDuration",
      "outputs": [
        {
          "internalType": "uint256",
          "name": "",
          "type": "uint256"
        }
      ],
      "payable": false,
      "stateMutability": "view",
      "type": "function"
    },
    {
      "constant": true,
      "inputs": [],
      "name": "owner",
      "outputs": [
        {
          "internalType": "address",
          "name": "",
          "type": "address"
        }
      ],
      "payable": false,
      "stateMutability": "view",
      "type": "function"
    },
    {
      "constant": false,
      "inputs": [
        {
          "internalType": "uint256",
          "name": "_averageBlockTime",
          "type": "uint256"
        }
      ],
      "name": "setAverageBlockTime",
      "outputs": [],
      "payable": false,
      "stateMutability": "nonpayable",
      "type": "function"
    },
    {
      "constant": false,
      "inputs": [],
      "name": "setBlock",
      "outputs": [],
      "payable": false,
      "stateMutability": "nonpayable",
      "type": "function"
    },
    {
      "constant": false,
      "inputs": [
        {
          "internalType": "address",
          "name": "_blockMockUp",
          "type": "address"
        }
      ],
      "name": "setBlockMockUpAddr",
      "outputs": [],
      "payable": false,
      "stateMutability": "nonpayable",
      "type": "function"
    },
    {
      "constant": false,
      "inputs": [
        {
          "internalType": "uint256",
          "name": "_time",
          "type": "uint256"
        }
      ],
      "name": "setHistoricalBlock",
      "outputs": [],
      "payable": false,
      "stateMutability": "nonpayable",
      "type": "function"
    },
    {
      "constant": false,
      "inputs": [
        {
          "internalType": "uint256",
          "name": "_duration",
          "type": "uint256"
        }
      ],
      "name": "setMaxDuration",
      "outputs": [],
      "payable": false,
      "stateMutability": "nonpayable",
      "type": "function"
    },
    {
      "constant": true,
      "inputs": [],
      "name": "staking",
      "outputs": [
        {
          "internalType": "contract IStaking",
          "name": "",
          "type": "address"
        }
      ],
      "payable": false,
      "stateMutability": "view",
      "type": "function"
    },
    {
      "constant": true,
      "inputs": [],
      "name": "startTime",
      "outputs": [
        {
          "internalType": "uint256",
          "name": "",
          "type": "uint256"
        }
      ],
      "payable": false,
      "stateMutability": "view",
      "type": "function"
    },
    {
      "constant": false,
      "inputs": [],
      "name": "stop",
      "outputs": [],
      "payable": false,
      "stateMutability": "nonpayable",
      "type": "function"
    },
    {
      "constant": true,
      "inputs": [],
      "name": "stopBlock",
      "outputs": [
        {
          "internalType": "uint256",
          "name": "",
          "type": "uint256"
        }
      ],
      "payable": false,
      "stateMutability": "view",
      "type": "function"
    },
    {
      "constant": false,
      "inputs": [
        {
          "internalType": "address",
          "name": "newOwner",
          "type": "address"
        }
      ],
      "name": "transferOwnership",
      "outputs": [],
      "payable": false,
      "stateMutability": "nonpayable",
      "type": "function"
    },
    {
      "constant": false,
      "inputs": [
        {
          "internalType": "address",
          "name": "_receiverAddress",
          "type": "address"
        }
      ],
      "name": "withdrawTokensByOwner",
      "outputs": [],
      "payable": false,
      "stateMutability": "nonpayable",
      "type": "function"
    },
    {
      "constant": true,
      "inputs": [
        {
          "internalType": "address",
          "name": "",
          "type": "address"
        }
      ],
      "name": "withdrawals",
      "outputs": [
        {
          "internalType": "uint256",
          "name": "",
          "type": "uint256"
        }
      ],
      "payable": false,
      "stateMutability": "view",
      "type": "function"
    }
  ],
  "bytecode": {
    "object": "0x608060405260006100176001600160e01b0361006616565b600080546001600160a01b0319166001600160a01b0383169081178255604051929350917f8be0079c531659141344cd1fd0a4f28419497f9722a3daafe3b4186f6b6457e0908290a35061006a565b3390565b61160e806100796000396000f3fe608060405234801561001057600080fd5b50600436106101a95760003560e01c80637a9262a2116100f9578063ceee685511610097578063dffd356211610071578063dffd3562146103b4578063e62a9f1e146103d1578063f2fde38b146103f7578063fe5afe511461041d576101a9565b8063ceee685514610333578063cf0f34c414610371578063d42b779d1461038e576101a9565b80638f32d59b116100d35780638f32d59b146102cc578063934d1fa4146102e8578063a377f244146102f0578063bd3507da14610316576101a9565b80637a9262a21461029657806382100e3f146102bc5780638da5cb5b146102c4576101a9565b806341910f90116101665780634cf088d9116101405780634cf088d9146102765780635004b6e41461027e5780636db5c8fd1461028657806378e979251461028e576101a9565b806341910f901461023857806344bb3b2f14610240578063485cc95514610248576101a9565b806307da68f5146101ae57806308dcb360146101b857806312671c26146101dc578063233dedf11461020b5780633410fe6e146102135780633736d8531461021b575b600080fd5b6101b6610425565b005b6101c06104c1565b604080516001600160a01b039092168252519081900360200190f35b6101f9600480360360208110156101f257600080fd5b50356104d0565b60408051918252519081900360200190f35b6101f96104e2565b6101f96104e8565b6101b66004803603602081101561023157600080fd5b50356104ef565b6101f961053c565b6101f9610542565b6101b66004803603604081101561025e57600080fd5b506001600160a01b0381358116916020013516610548565b6101c06106ed565b6101c06106fc565b6101f961070b565b6101f9610711565b6101f9600480360360208110156102ac57600080fd5b50356001600160a01b0316610717565b6101f9610729565b6101c061072f565b6102d461073e565b604080519115158252519081900360200190f35b6101f9610762565b6101b66004803603602081101561030657600080fd5b50356001600160a01b0316610769565b6101b66004803603602081101561032c57600080fd5b503561082e565b6103586004803603604081101561034957600080fd5b508035151590602001356108b4565b6040805192835260208301919091528051918290030190f35b6101b66004803603602081101561038757600080fd5b5035610b75565b6101f9600480360360208110156103a457600080fd5b50356001600160a01b0316610bc2565b6101b6600480360360208110156103ca57600080fd5b5035610bd4565b6101b6600480360360208110156103e757600080fd5b50356001600160a01b0316610be0565b6101b66004803603602081101561040d57600080fd5b50356001600160a01b0316610caf565b6101b6610d00565b61042d61073e565b61046d576040805162461bcd60e51b815260206004820152600c60248201526b1d5b985d5d1a1bdc9a5e995960a21b604482015290519081900360640190fd5b600554156104b4576040805162461bcd60e51b815260206004820152600f60248201526e105b1c9958591e481cdd1bdc1c1959608a1b604482015290519081900360640190fd5b6104bc610d82565b600555565b6001546001600160a01b031681565b600a6020526000908152604090205481565b600b5481565b6227ac4081565b6104f761073e565b610537576040805162461bcd60e51b815260206004820152600c60248201526b1d5b985d5d1a1bdc9a5e995960a21b604482015290519081900360640190fd5b600b55565b610b9f81565b60055481565b61055061073e565b610590576040805162461bcd60e51b815260206004820152600c60248201526b1d5b985d5d1a1bdc9a5e995960a21b604482015290519081900360640190fd5b6001600160a01b0382166105e2576040805162461bcd60e51b815260206004820152601460248201527324b73b30b634b21029a7ab1020b2323932b9b99760611b604482015290519081900360640190fd5b6105eb82610df8565b610632576040805162461bcd60e51b815260206004820152601360248201527217d4d3d5881b9bdd08184818dbdb9d1c9858dd606a1b604482015290519081900360640190fd5b600180546001600160a01b038085166001600160a01b0319928316179092556002805484841692169190911790819055604080516372ec979560e01b8152426004820152905191909216916372ec9795916024808301926020929190829003018186803b1580156106a257600080fd5b505afa1580156106b6573d6000803e3d6000fd5b505050506040513d60208110156106cc57600080fd5b50516004556106de630114db00610b75565b6106e6610d82565b6008555050565b6002546001600160a01b031681565b600c546001600160a01b031681565b60035481565b60045481565b60066020526000908152604090205481565b60085481565b6000546001600160a01b031690565b600080546001600160a01b0316610753610e34565b6001600160a01b031614905090565b6212750081565b61077161073e565b6107b1576040805162461bcd60e51b815260206004820152600c60248201526b1d5b985d5d1a1bdc9a5e995960a21b604482015290519081900360640190fd5b6001600160a01b03811661080c576040805162461bcd60e51b815260206004820152601c60248201527f626c6f636b206d6f636b7570206164647265737320696e76616c696400000000604482015290519081900360640190fd5b600c80546001600160a01b0319166001600160a01b0392909216919091179055565b60008061083c6001846108b4565b915091506000821180156108505750600081115b610893576040805162461bcd60e51b815260206004820152600f60248201526e1b9bc81d985b1a59081c995dd85c99608a1b604482015290519081900360640190fd5b3360008181526006602052604090208390556108af9082610e38565b505050565b60008060008060016108c4610d82565b3360008181526006602090815260408083205460025482516372ec979560e01b81524260048201819052935198909703985091969395909386936001600160a01b03909316926372ec97959260248082019391829003018186803b15801561092b57600080fd5b505afa15801561093f573d6000803e3d6000fd5b505050506040513d602081101561095557600080fd5b505190508161096657600454610968565b815b9850888111610985575060009750879650610b6e95505050505050565b888a10610a0857600254604080516372ec979560e01b8152600481018d905290516000926001600160a01b0316916372ec9795916024808301926020929190829003018186803b1580156109d857600080fd5b505afa1580156109ec573d6000803e3d6000fd5b505050506040513d6020811015610a0257600080fd5b50519950505b8a15610ab5576000610a256003548b610f4d90919063ffffffff16565b9050858110610a345781610aad565b600254604080516372ec979560e01b81526004810184905290516001600160a01b03909216916372ec979591602480820192602092909190829003018186803b158015610a8057600080fd5b505afa158015610a94573d6000803e3d6000fd5b505050506040513d6020811015610aaa57600080fd5b50515b945050610ab9565b8093505b885b84811015610b45576000818152600a602052604090205480610b0e57600b54610b0b90610afe90610af28a8663ffffffff610fb016565b9063ffffffff610ff216565b899063ffffffff610fb016565b90505b600854811015610b1d57506008545b610b38610b2b868385611034565b8a9063ffffffff610f4d16565b9850506212750001610abb565b509297508792610b646227ac40610af289610b9f63ffffffff61119c16565b9750505050505050505b9250929050565b610b7d61073e565b610bbd576040805162461bcd60e51b815260206004820152600c60248201526b1d5b985d5d1a1bdc9a5e995960a21b604482015290519081900360640190fd5b600355565b60076020526000908152604090205481565b610bdd816111f5565b50565b610be861073e565b610c28576040805162461bcd60e51b815260206004820152600c60248201526b1d5b985d5d1a1bdc9a5e995960a21b604482015290519081900360640190fd5b600154604080516370a0823160e01b815230600482015290516000926001600160a01b0316916370a08231916024808301926020929190829003018186803b158015610c7357600080fd5b505afa158015610c87573d6000803e3d6000fd5b505050506040513d6020811015610c9d57600080fd5b50519050610cab82826112ab565b5050565b610cb761073e565b610cf7576040805162461bcd60e51b815260206004820152600c60248201526b1d5b985d5d1a1bdc9a5e995960a21b604482015290519081900360640190fd5b610bdd816113f6565b600254604080516372ec979560e01b815242600482015290516000926001600160a01b0316916372ec9795916024808301926020929190829003018186803b158015610d4b57600080fd5b505afa158015610d5f573d6000803e3d6000fd5b505050506040513d6020811015610d7557600080fd5b50519050610bdd816111f5565b600c54604080516307f6c6f160e41b815290516000926001600160a01b031691637f6c6f10916004808301926020929190829003018186803b158015610dc757600080fd5b505afa158015610ddb573d6000803e3d6000fd5b505050506040513d6020811015610df157600080fd5b5051905090565b6000813f7fc5d2460186f7233c927e7db2dcc703c0e500b653ca82273b7bfad8045d85a470818114801590610e2c57508115155b949350505050565b3390565b600154604080516370a0823160e01b8152306004820152905183926001600160a01b0316916370a08231916024808301926020929190829003018186803b158015610e8257600080fd5b505afa158015610e96573d6000803e3d6000fd5b505050506040513d6020811015610eac57600080fd5b50511015610f01576040805162461bcd60e51b815260206004820152601f60248201527f6e6f7420656e6f7567682066756e647320746f20726577617264207573657200604482015290519081900360640190fd5b6001600160a01b038216600090815260076020526040902054610f2a908263ffffffff610f4d16565b6001600160a01b038316600090815260076020526040902055610cab82826112ab565b600082820183811015610fa7576040805162461bcd60e51b815260206004820152601b60248201527f536166654d6174683a206164646974696f6e206f766572666c6f770000000000604482015290519081900360640190fd5b90505b92915050565b6000610fa783836040518060400160405280601e81526020017f536166654d6174683a207375627472616374696f6e206f766572666c6f770000815250611496565b6000610fa783836040518060400160405280601a81526020017f536166654d6174683a206469766973696f6e206279207a65726f00000000000081525061152d565b600254604080516337e6b1c160e01b81526001600160a01b0386811660048301526024820186905260448201859052915160009392909216916337e6b1c191606480820192602092909190829003018186803b15801561109357600080fd5b505afa1580156110a7573d6000803e3d6000fd5b505050506040513d60208110156110bd57600080fd5b50516005546bffffffffffffffffffffffff9091169150158015906110e3575082600554105b1561119557600254600554604080516337e6b1c160e01b81526001600160a01b038881166004830152602482019390935260448101869052905160009392909216916337e6b1c191606480820192602092909190829003018186803b15801561114b57600080fd5b505afa15801561115f573d6000803e3d6000fd5b505050506040513d602081101561117557600080fd5b50516bffffffffffffffffffffffff16905081811015611193578091505b505b9392505050565b6000826111ab57506000610faa565b828202828482816111b857fe5b0414610fa75760405162461bcd60e51b81526004018080602001828103825260218152602001806115b96021913960400191505060405180910390fd5b4260006001611202610d82565b6000858152600a6020526040902054919003915015611268576040805162461bcd60e51b815260206004820152601860248201527f626c6f636b206e756d62657220616c7265616479207365740000000000000000604482015290519081900360640190fd5b6000611293611286600b54610af28787610fb090919063ffffffff16565b839063ffffffff610fb016565b6000948552600a602052604090942093909355505050565b806112ee576040805162461bcd60e51b815260206004820152600e60248201526d185b5bdd5b9d081a5b9d985b1a5960921b604482015290519081900360640190fd5b6001546040805163a9059cbb60e01b81526001600160a01b038581166004830152602482018590529151919092169163a9059cbb9160448083019260209291908290030181600087803b15801561134457600080fd5b505af1158015611358573d6000803e3d6000fd5b505050506040513d602081101561136e57600080fd5b50516113b3576040805162461bcd60e51b815260206004820152600f60248201526e1d1c985b9cd9995c8819985a5b1959608a1b604482015290519081900360640190fd5b6040805182815290516001600160a01b038416917f1d3eee4ca001cff39eec6ec7615aacf2f2bd61791273830728ba00ccbd6e1337919081900360200190a25050565b6001600160a01b03811661143b5760405162461bcd60e51b81526004018080602001828103825260268152602001806115936026913960400191505060405180910390fd5b600080546040516001600160a01b03808516939216917f8be0079c531659141344cd1fd0a4f28419497f9722a3daafe3b4186f6b6457e091a3600080546001600160a01b0319166001600160a01b0392909216919091179055565b600081848411156115255760405162461bcd60e51b81526004018080602001828103825283818151815260200191508051906020019080838360005b838110156114ea5781810151838201526020016114d2565b50505050905090810190601f1680156115175780820380516001836020036101000a031916815260200191505b509250505060405180910390fd5b505050900390565b6000818361157c5760405162461bcd60e51b81526020600482018181528351602484015283519092839260449091019190850190808383600083156114ea5781810151838201526020016114d2565b50600083858161158857fe5b049594505050505056fe4f776e61626c653a206e6577206f776e657220697320746865207a65726f2061646472657373536166654d6174683a206d756c7469706c69636174696f6e206f766572666c6f77a265627a7a723158207cc410c8130d7dcd81ddd6a168a5acad6e2a1b49ba64b1920f45021a0af0c92264736f6c63430005110032",
    "linkReferences": {}
  },
  "methodIdentifiers": {
    "BASE_RATE()": "41910f90",
    "DIVISOR()": "3410fe6e",
    "SOV()": "08dcb360",
    "TWO_WEEKS()": "934d1fa4",
    "averageBlockTime()": "233dedf1",
    "blockMockUp()": "5004b6e4",
    "checkpointBlockDetails(uint256)": "12671c26",
    "claimedBalances(address)": "d42b779d",
    "collectReward(uint256)": "bd3507da",
    "deploymentBlock()": "82100e3f",
    "getStakerCurrentReward(bool,uint256)": "ceee6855",
    "initialize(address,address)": "485cc955",
    "isOwner()": "8f32d59b",
    "maxDuration()": "6db5c8fd",
    "owner()": "8da5cb5b",
    "setAverageBlockTime(uint256)": "3736d853",
    "setBlock()": "fe5afe51",
    "setBlockMockUpAddr(address)": "a377f244",
    "setHistoricalBlock(uint256)": "dffd3562",
    "setMaxDuration(uint256)": "cf0f34c4",
    "staking()": "4cf088d9",
    "startTime()": "78e97925",
    "stop()": "07da68f5",
    "stopBlock()": "44bb3b2f",
    "transferOwnership(address)": "f2fde38b",
    "withdrawTokensByOwner(address)": "e62a9f1e",
    "withdrawals(address)": "7a9262a2"
  },
  "id": 147
}