{
    "_format": "hh-sol-artifact-1",
    "contractName": "RBTCWrapperProxy",
    "sourceName": "external-artifacts/RBTCWrapperProxy.sol",
    "abi": [
        {
            "inputs": [
                {
                    "internalType": "address",
                    "name": "_wrbtcTokenAddress",
                    "type": "address"
                },
                {
                    "internalType": "address",
                    "name": "_sovrynSwapNetworkAddress",
                    "type": "address"
                },
                {
                    "internalType": "contract IContractRegistry",
                    "name": "_registry",
                    "type": "address"
                },
                {
                    "internalType": "address",
                    "name": "liquidityMiningAddress",
                    "type": "address"
                }
            ],
            "payable": false,
            "stateMutability": "nonpayable",
            "type": "constructor"
        },
        {
            "anonymous": false,
            "inputs": [
                {
                    "indexed": true,
                    "internalType": "address",
                    "name": "_provider",
                    "type": "address"
                },
                {
                    "indexed": false,
                    "internalType": "uint256",
                    "name": "_reserveAmount",
                    "type": "uint256"
                },
                {
                    "indexed": false,
                    "internalType": "uint256",
                    "name": "_poolTokenAmount",
                    "type": "uint256"
                }
            ],
            "name": "LiquidityAdded",
            "type": "event"
        },
        {
            "anonymous": false,
            "inputs": [
                {
                    "indexed": true,
                    "internalType": "address",
                    "name": "_provider",
                    "type": "address"
                },
                {
                    "indexed": false,
                    "internalType": "contract IERC20Token[]",
                    "name": "_reserveTokens",
                    "type": "address[]"
                },
                {
                    "indexed": false,
                    "internalType": "uint256[]",
                    "name": "_reserveAmounts",
                    "type": "uint256[]"
                },
                {
                    "indexed": false,
                    "internalType": "uint256",
                    "name": "_poolTokenAmount",
                    "type": "uint256"
                }
            ],
            "name": "LiquidityAddedToV1",
            "type": "event"
        },
        {
            "anonymous": false,
            "inputs": [
                {
                    "indexed": true,
                    "internalType": "address",
                    "name": "_provider",
                    "type": "address"
                },
                {
                    "indexed": false,
                    "internalType": "uint256",
                    "name": "_reserveAmount",
                    "type": "uint256"
                },
                {
                    "indexed": false,
                    "internalType": "uint256",
                    "name": "_poolTokenAmount",
                    "type": "uint256"
                }
            ],
            "name": "LiquidityRemoved",
            "type": "event"
        },
        {
            "anonymous": false,
            "inputs": [
                {
                    "indexed": true,
                    "internalType": "address",
                    "name": "_provider",
                    "type": "address"
                },
                {
                    "indexed": false,
                    "internalType": "contract IERC20Token[]",
                    "name": "_reserveTokens",
                    "type": "address[]"
                },
                {
                    "indexed": false,
                    "internalType": "uint256[]",
                    "name": "_reserveAmounts",
                    "type": "uint256[]"
                },
                {
                    "indexed": false,
                    "internalType": "uint256",
                    "name": "_poolTokenAmount",
                    "type": "uint256"
                }
            ],
            "name": "LiquidityRemovedFromV1",
            "type": "event"
        },
        {
            "anonymous": false,
            "inputs": [
                {
                    "indexed": true,
                    "internalType": "address",
                    "name": "user",
                    "type": "address"
                },
                {
                    "indexed": false,
                    "internalType": "uint256",
                    "name": "poolTokenAmount",
                    "type": "uint256"
                },
                {
                    "indexed": false,
                    "internalType": "uint256",
                    "name": "assetAmount",
                    "type": "uint256"
                }
            ],
            "name": "LoanTokensBurnt",
            "type": "event"
        },
        {
            "anonymous": false,
            "inputs": [
                {
                    "indexed": true,
                    "internalType": "address",
                    "name": "user",
                    "type": "address"
                },
                {
                    "indexed": false,
                    "internalType": "uint256",
                    "name": "poolTokenAmount",
                    "type": "uint256"
                },
                {
                    "indexed": false,
                    "internalType": "uint256",
                    "name": "assetAmount",
                    "type": "uint256"
                }
            ],
            "name": "LoanTokensMinted",
            "type": "event"
        },
        {
            "anonymous": false,
            "inputs": [
                {
                    "indexed": true,
                    "internalType": "address",
                    "name": "_prevOwner",
                    "type": "address"
                },
                {
                    "indexed": true,
                    "internalType": "address",
                    "name": "_newOwner",
                    "type": "address"
                }
            ],
            "name": "OwnerUpdate",
            "type": "event"
        },
        {
            "anonymous": false,
            "inputs": [
                {
                    "indexed": true,
                    "internalType": "address",
                    "name": "_beneficiary",
                    "type": "address"
                },
                {
                    "indexed": true,
                    "internalType": "uint256",
                    "name": "_sourceTokenAmount",
                    "type": "uint256"
                },
                {
                    "indexed": true,
                    "internalType": "uint256",
                    "name": "_targetTokenAmount",
                    "type": "uint256"
                },
                {
                    "indexed": false,
                    "internalType": "contract IERC20Token[]",
                    "name": "_path",
                    "type": "address[]"
                }
            ],
            "name": "TokenConverted",
            "type": "event"
        },
        {
            "anonymous": false,
            "inputs": [
                {
                    "indexed": true,
                    "internalType": "address",
                    "name": "token",
                    "type": "address"
                },
                {
                    "indexed": true,
                    "internalType": "address",
                    "name": "recipient",
                    "type": "address"
                },
                {
                    "indexed": false,
                    "internalType": "uint256",
                    "name": "totalWithdrawn",
                    "type": "uint256"
                }
            ],
            "name": "Withdraw",
            "type": "event"
        },
        {
            "payable": true,
            "stateMutability": "payable",
            "type": "fallback"
        },
        {
            "constant": false,
            "inputs": [],
            "name": "acceptOwnership",
            "outputs": [],
            "payable": false,
            "stateMutability": "nonpayable",
            "type": "function"
        },
        {
            "constant": false,
            "inputs": [
                {
                    "internalType": "address",
                    "name": "_liquidityPoolConverterAddress",
                    "type": "address"
                },
                {
                    "internalType": "contract IERC20Token[]",
                    "name": "_reserveTokens",
                    "type": "address[]"
                },
                {
                    "internalType": "uint256[]",
                    "name": "_reserveAmounts",
                    "type": "uint256[]"
                },
                {
                    "internalType": "uint256",
                    "name": "_minReturn",
                    "type": "uint256"
                }
            ],
            "name": "addLiquidityToV1",
            "outputs": [
                {
                    "internalType": "uint256",
                    "name": "",
                    "type": "uint256"
                }
            ],
            "payable": true,
            "stateMutability": "payable",
            "type": "function"
        },
        {
            "constant": false,
            "inputs": [
                {
                    "internalType": "address",
                    "name": "_liquidityPoolConverterAddress",
                    "type": "address"
                },
                {
                    "internalType": "address",
                    "name": "_reserveAddress",
                    "type": "address"
                },
                {
                    "internalType": "uint256",
                    "name": "_amount",
                    "type": "uint256"
                },
                {
                    "internalType": "uint256",
                    "name": "_minReturn",
                    "type": "uint256"
                }
            ],
            "name": "addLiquidityToV2",
            "outputs": [
                {
                    "internalType": "uint256",
                    "name": "",
                    "type": "uint256"
                }
            ],
            "payable": true,
            "stateMutability": "payable",
            "type": "function"
        },
        {
            "constant": false,
            "inputs": [
                {
                    "internalType": "contract IERC20Token[]",
                    "name": "_path",
                    "type": "address[]"
                },
                {
                    "internalType": "uint256",
                    "name": "_amount",
                    "type": "uint256"
                },
                {
                    "internalType": "uint256",
                    "name": "_minReturn",
                    "type": "uint256"
                }
            ],
            "name": "convertByPath",
            "outputs": [
                {
                    "internalType": "uint256",
                    "name": "",
                    "type": "uint256"
                }
            ],
            "payable": true,
            "stateMutability": "payable",
            "type": "function"
        },
        {
            "constant": true,
            "inputs": [],
            "name": "liquidityMiningContract",
            "outputs": [
                {
                    "internalType": "contract LiquidityMining",
                    "name": "",
                    "type": "address"
                }
            ],
            "payable": false,
            "stateMutability": "view",
            "type": "function"
        },
        {
            "constant": true,
            "inputs": [],
            "name": "newOwner",
            "outputs": [
                {
                    "internalType": "address",
                    "name": "",
                    "type": "address"
                }
            ],
            "payable": false,
            "stateMutability": "view",
            "type": "function"
        },
        {
            "constant": true,
            "inputs": [],
            "name": "onlyOwnerCanUpdateRegistry",
            "outputs": [
                {
                    "internalType": "bool",
                    "name": "",
                    "type": "bool"
                }
            ],
            "payable": false,
            "stateMutability": "view",
            "type": "function"
        },
        {
            "constant": true,
            "inputs": [],
            "name": "owner",
            "outputs": [
                {
                    "internalType": "address",
                    "name": "",
                    "type": "address"
                }
            ],
            "payable": false,
            "stateMutability": "view",
            "type": "function"
        },
        {
            "constant": true,
            "inputs": [],
            "name": "prevRegistry",
            "outputs": [
                {
                    "internalType": "contract IContractRegistry",
                    "name": "",
                    "type": "address"
                }
            ],
            "payable": false,
            "stateMutability": "view",
            "type": "function"
        },
        {
            "constant": true,
            "inputs": [],
            "name": "registry",
            "outputs": [
                {
                    "internalType": "contract IContractRegistry",
                    "name": "",
                    "type": "address"
                }
            ],
            "payable": false,
            "stateMutability": "view",
            "type": "function"
        },
        {
            "constant": false,
            "inputs": [
                {
                    "internalType": "address",
                    "name": "_liquidityPoolConverterAddress",
                    "type": "address"
                },
                {
                    "internalType": "uint256",
                    "name": "_amount",
                    "type": "uint256"
                },
                {
                    "internalType": "contract IERC20Token[]",
                    "name": "_reserveTokens",
                    "type": "address[]"
                },
                {
                    "internalType": "uint256[]",
                    "name": "_reserveMinReturnAmounts",
                    "type": "uint256[]"
                }
            ],
            "name": "removeLiquidityFromV1",
            "outputs": [],
            "payable": false,
            "stateMutability": "nonpayable",
            "type": "function"
        },
        {
            "constant": false,
            "inputs": [
                {
                    "internalType": "address",
                    "name": "_liquidityPoolConverterAddress",
                    "type": "address"
                },
                {
                    "internalType": "address",
                    "name": "_reserveAddress",
                    "type": "address"
                },
                {
                    "internalType": "uint256",
                    "name": "_amount",
                    "type": "uint256"
                },
                {
                    "internalType": "uint256",
                    "name": "_minReturn",
                    "type": "uint256"
                }
            ],
            "name": "removeLiquidityFromV2",
            "outputs": [
                {
                    "internalType": "uint256",
                    "name": "",
                    "type": "uint256"
                }
            ],
            "payable": false,
            "stateMutability": "nonpayable",
            "type": "function"
        },
        {
            "constant": false,
            "inputs": [],
            "name": "restoreRegistry",
            "outputs": [],
            "payable": false,
            "stateMutability": "nonpayable",
            "type": "function"
        },
        {
            "constant": false,
            "inputs": [
                {
                    "internalType": "bool",
                    "name": "_onlyOwnerCanUpdateRegistry",
                    "type": "bool"
                }
            ],
            "name": "restrictRegistryUpdate",
            "outputs": [],
            "payable": false,
            "stateMutability": "nonpayable",
            "type": "function"
        },
        {
            "constant": true,
            "inputs": [],
            "name": "sovrynSwapNetworkAddress",
            "outputs": [
                {
                    "internalType": "address",
                    "name": "",
                    "type": "address"
                }
            ],
            "payable": false,
            "stateMutability": "view",
            "type": "function"
        },
        {
            "constant": false,
            "inputs": [
                {
                    "internalType": "address",
                    "name": "_newOwner",
                    "type": "address"
                }
            ],
            "name": "transferOwnership",
            "outputs": [],
            "payable": false,
            "stateMutability": "nonpayable",
            "type": "function"
        },
        {
            "constant": false,
            "inputs": [],
            "name": "updateRegistry",
            "outputs": [],
            "payable": false,
            "stateMutability": "nonpayable",
            "type": "function"
        },
        {
            "constant": false,
            "inputs": [
                {
                    "internalType": "address",
                    "name": "token",
                    "type": "address"
                },
                {
                    "internalType": "address",
                    "name": "to",
                    "type": "address"
                },
                {
                    "internalType": "uint256",
                    "name": "amount",
                    "type": "uint256"
                }
            ],
            "name": "withdraw",
            "outputs": [],
            "payable": false,
            "stateMutability": "nonpayable",
            "type": "function"
        },
        {
            "constant": true,
            "inputs": [],
            "name": "wrbtcTokenAddress",
            "outputs": [
                {
                    "internalType": "address",
                    "name": "",
                    "type": "address"
                }
            ],
            "payable": false,
            "stateMutability": "view",
            "type": "function"
        }
    ],
    "bytecode": "0x60806040523480156200001157600080fd5b5060405162003ab638038062003ab6833981810160405260808110156200003757600080fd5b50805160208201516040830151606090930151600080546001600160a01b0319163317905591929091818062000076816001600160e01b03620001ca16565b50600280546001600160a01b03199081166001600160a01b039384169081179092556003805490911690911790558490620000bf90821662000229602090811b62002e5a17901c565b62000111576040805162461bcd60e51b815260206004820152601d60248201527f5468652061646472657373206973206e6f74206120636f6e7472616374000000604482015290519081900360640190fd5b8362000131816001600160a01b03166200022960201b62002e5a1760201c565b62000183576040805162461bcd60e51b815260206004820152601d60248201527f5468652061646472657373206973206e6f74206120636f6e7472616374000000604482015290519081900360640190fd5b5050600480546001600160a01b03199081166001600160a01b0396871617909155600580548216948616949094179093556006805490931693169290921790555062000266565b6001600160a01b03811662000226576040805162461bcd60e51b815260206004820152601360248201527f4552525f494e56414c49445f4144445245535300000000000000000000000000604482015290519081900360640190fd5b50565b6000813f7fc5d2460186f7233c927e7db2dcc703c0e500b653ca82273b7bfad8045d85a4708181148015906200025e57508115155b949350505050565b61384080620002766000396000f3fe6080604052600436106101145760003560e01c806379ba5097116100a0578063d4ee1d9011610064578063d4ee1d90146104c3578063d9caed12146104d8578063e90988e81461051b578063e94190ed14610557578063f2fde38b1461069c57610114565b806379ba5097146103c95780637b103999146103de5780638da5cb5b146103f3578063b37a483114610408578063b4a176d3146104ae57610114565b806343fe0f0d116100e757806343fe0f0d1461024057806349d10b641461025557806360dc20cd1461026a57806361cd756e1461039f5780637422e1af146103b457610114565b8063024c7ec71461015f5780630ec9e4431461018b5780632f6b600d146101e65780632fe8a6ad14610217575b6004546001600160a01b0316331461015d5760405162461bcd60e51b815260040180806020018281038252602981526020018061355c6029913960400191505060405180910390fd5b005b34801561016b57600080fd5b5061015d6004803603602081101561018257600080fd5b503515156106cf565b34801561019757600080fd5b506101d4600480360360808110156101ae57600080fd5b506001600160a01b038135811691602081013590911690604081013590606001356106f5565b60408051918252519081900360200190f35b3480156101f257600080fd5b506101fb610ade565b604080516001600160a01b039092168252519081900360200190f35b34801561022357600080fd5b5061022c610aed565b604080519115158252519081900360200190f35b34801561024c57600080fd5b506101fb610afd565b34801561026157600080fd5b5061015d610b0c565b6101d46004803603608081101561028057600080fd5b6001600160a01b038235169190810190604081016020820135600160201b8111156102aa57600080fd5b8201836020820111156102bc57600080fd5b803590602001918460208302840111600160201b831117156102dd57600080fd5b9190808060200260200160405190810160405280939291908181526020018383602002808284376000920191909152509295949360208101935035915050600160201b81111561032c57600080fd5b82018360208201111561033e57600080fd5b803590602001918460208302840111600160201b8311171561035f57600080fd5b9190808060200260200160405190810160405280939291908181526020018383602002808284376000920191909152509295505091359250610d14915050565b3480156103ab57600080fd5b506101fb611718565b3480156103c057600080fd5b506101fb611727565b3480156103d557600080fd5b5061015d611736565b3480156103ea57600080fd5b506101fb6117ed565b3480156103ff57600080fd5b506101fb6117fc565b6101d46004803603606081101561041e57600080fd5b810190602081018135600160201b81111561043857600080fd5b82018360208201111561044a57600080fd5b803590602001918460208302840111600160201b8311171561046b57600080fd5b919080806020026020016040519081016040528093929190818152602001838360200280828437600092019190915250929550508235935050506020013561180b565b3480156104ba57600080fd5b5061015d611f79565b3480156104cf57600080fd5b506101fb611fa5565b3480156104e457600080fd5b5061015d600480360360608110156104fb57600080fd5b506001600160a01b03813581169160208101359091169060400135611fb4565b6101d46004803603608081101561053157600080fd5b506001600160a01b0381358116916020810135909116906040810135906060013561216c565b34801561056357600080fd5b5061015d6004803603608081101561057a57600080fd5b6001600160a01b0382351691602081013591810190606081016040820135600160201b8111156105a957600080fd5b8201836020820111156105bb57600080fd5b803590602001918460208302840111600160201b831117156105dc57600080fd5b9190808060200260200160405190810160405280939291908181526020018383602002808284376000920191909152509295949360208101935035915050600160201b81111561062b57600080fd5b82018360208201111561063d57600080fd5b803590602001918460208302840111600160201b8311171561065e57600080fd5b919080806020026020016040519081016040528093929190818152602001838360200280828437600092019190915250929550612616945050505050565b3480156106a857600080fd5b5061015d600480360360208110156106bf57600080fd5b50356001600160a01b0316612d87565b6106d7612e05565b60038054911515600160a01b0260ff60a01b19909216919091179055565b60008461070a816001600160a01b0316612e5a565b610749576040805162461bcd60e51b815260206004820152601d60248201526000805160206135af833981519152604482015290519081900360640190fd5b60408051635768adcf60e01b81526001600160a01b03808816600483015291518892889260009291851691635768adcf91602480820192602092909190829003018186803b15801561079a57600080fd5b505afa1580156107ae573d6000803e3d6000fd5b505050506040513d60208110156107c457600080fd5b505160065460408051631a4ca37b60e21b81526001600160a01b038085166004830152602482018c905233604483015291519394509116916369328dec9160648082019260009290919082900301818387803b15801561082357600080fd5b505af1158015610837573d6000803e3d6000fd5b50506040805163e38192e360e01b81526001600160a01b038581166004830152602482018c9052604482018b9052915160009450918716925063e38192e391606480830192602092919082900301818787803b15801561089657600080fd5b505af11580156108aa573d6000803e3d6000fd5b505050506040513d60208110156108c057600080fd5b50516004549091506001600160a01b038a8116911614156109e1576004805460408051632e1a7d4d60e01b8152928301849052516001600160a01b0390911691632e1a7d4d91602480830192600092919082900301818387803b15801561092657600080fd5b505af115801561093a573d6000803e3d6000fd5b50506040516000925033915083908381818185875af1925050503d8060008114610980576040519150601f19603f3d011682016040523d82523d6000602084013e610985565b606091505b50509050806109db576040805162461bcd60e51b815260206004820152601f60248201527f4661696c656420746f2073656e64205242544320746f20746865207573657200604482015290519081900360640190fd5b50610a97565b6040805163a9059cbb60e01b81523360048201526024810183905290516001600160a01b0385169163a9059cbb9160448083019260209291908290030181600087803b158015610a3057600080fd5b505af1158015610a44573d6000803e3d6000fd5b505050506040513d6020811015610a5a57600080fd5b5051610a975760405162461bcd60e51b815260040180806020018281038252602d815260200180613725602d913960400191505060405180910390fd5b60408051828152602081018a9052815133927f96cd817c6329656790ef8fba7675405193677d39619571282f5e21f3a98cd059928290030190a29998505050505050505050565b6004546001600160a01b031681565b600354600160a01b900460ff1681565b6005546001600160a01b031681565b6000546001600160a01b0316331480610b2f5750600354600160a01b900460ff16155b610b74576040805162461bcd60e51b815260206004820152601160248201527011549497d050d0d154d4d7d11153925151607a1b604482015290519081900360640190fd5b6000610b926f436f6e7472616374526567697374727960801b612e96565b6002549091506001600160a01b03808316911614801590610bbb57506001600160a01b03811615155b610c03576040805162461bcd60e51b81526020600482015260146024820152734552525f494e56414c49445f524547495354525960601b604482015290519081900360640190fd5b60006001600160a01b0316816001600160a01b031663bb34534c6f436f6e7472616374526567697374727960801b6040518263ffffffff1660e01b81526004018082815260200191505060206040518083038186803b158015610c6557600080fd5b505afa158015610c79573d6000803e3d6000fd5b505050506040513d6020811015610c8f57600080fd5b50516001600160a01b03161415610ce4576040805162461bcd60e51b81526020600482015260146024820152734552525f494e56414c49445f524547495354525960601b604482015290519081900360640190fd5b60028054600380546001600160a01b038084166001600160a01b0319928316179092559091169216919091179055565b600084610d29816001600160a01b0316612e5a565b610d68576040805162461bcd60e51b815260206004820152601d60248201526000805160206135af833981519152604482015290519081900360640190fd5b3415610e0e5760045485516001600160a01b03909116908690600090610d8a57fe5b60200260200101516001600160a01b03161480610dd3575060045485516001600160a01b039091169086906001908110610dc057fe5b60200260200101516001600160a01b0316145b610e0e5760405162461bcd60e51b81526004018080602001828103825260278152602001806135cf6027913960400191505060405180910390fd5b60008690506000816001600160a01b031663fc0c546a6040518163ffffffff1660e01b815260040160206040518083038186803b158015610e4e57600080fd5b505afa158015610e62573d6000803e3d6000fd5b505050506040513d6020811015610e7857600080fd5b50518751604080518281526020838102820101909152919250606091908015610eab578160200160208202803883390190505b50905060005b885181101561134057888181518110610ec657fe5b60200260200101516001600160a01b03166370a08231306040518263ffffffff1660e01b815260040180826001600160a01b03166001600160a01b0316815260200191505060206040518083038186803b158015610f2357600080fd5b505afa158015610f37573d6000803e3d6000fd5b505050506040513d6020811015610f4d57600080fd5b50518251839083908110610f5d57fe5b602090810291909101015260045489516001600160a01b03909116908a9083908110610f8557fe5b60200260200101516001600160a01b031614156111445734888281518110610fa957fe5b602002602001015114610fed5760405162461bcd60e51b815260040180806020018281038252603c8152602001806137d0603c913960400191505060405180910390fd5b60045488516001600160a01b039091169063d0e30db0908a908490811061101057fe5b60200260200101516040518263ffffffff1660e01b81526004016000604051808303818588803b15801561104357600080fd5b505af1158015611057573d6000803e3d6000fd5b50506004548b516001600160a01b03909116935063095ea7b392508d91508b908590811061108157fe5b60200260200101516040518363ffffffff1660e01b815260040180836001600160a01b03166001600160a01b0316815260200182815260200192505050602060405180830381600087803b1580156110d857600080fd5b505af11580156110ec573d6000803e3d6000fd5b505050506040513d602081101561110257600080fd5b505161113f5760405162461bcd60e51b815260040180806020018281038252602d815260200180613672602d913960400191505060405180910390fd5b611338565b88818151811061115057fe5b60200260200101516001600160a01b03166323b872dd33308b858151811061117457fe5b60200260200101516040518463ffffffff1660e01b815260040180846001600160a01b03166001600160a01b03168152602001836001600160a01b03166001600160a01b031681526020018281526020019350505050602060405180830381600087803b1580156111e457600080fd5b505af11580156111f8573d6000803e3d6000fd5b505050506040513d602081101561120e57600080fd5b505161124b5760405162461bcd60e51b815260040180806020018281038252602a8152602001806137a6602a913960400191505060405180910390fd5b88818151811061125757fe5b60200260200101516001600160a01b031663095ea7b38b8a848151811061127a57fe5b60200260200101516040518363ffffffff1660e01b815260040180836001600160a01b03166001600160a01b0316815260200182815260200192505050602060405180830381600087803b1580156112d157600080fd5b505af11580156112e5573d6000803e3d6000fd5b505050506040513d60208110156112fb57600080fd5b50516113385760405162461bcd60e51b81526004018080602001828103825260358152602001806136176035913960400191505060405180910390fd5b600101610eb1565b50604080516370a0823160e01b815230600482015290516000916001600160a01b038516916370a0823191602480820192602092909190829003018186803b15801561138b57600080fd5b505afa15801561139f573d6000803e3d6000fd5b505050506040513d60208110156113b557600080fd5b5051604051637d8916bd60e01b8152604481018990526060600482019081528b5160648301528b519293506001600160a01b03871692637d8916bd928d928d928d9282916024820191608401906020888101910280838360005b8381101561142757818101518382015260200161140f565b50505050905001838103825285818151815260200191508051906020019060200280838360005b8381101561146657818101518382015260200161144e565b5050505090500195505050505050600060405180830381600087803b15801561148e57600080fd5b505af11580156114a2573d6000803e3d6000fd5b50505050600061153a82856001600160a01b03166370a08231306040518263ffffffff1660e01b815260040180826001600160a01b03166001600160a01b0316815260200191505060206040518083038186803b15801561150257600080fd5b505afa158015611516573d6000803e3d6000fd5b505050506040513d602081101561152c57600080fd5b50519063ffffffff612f1416565b6006546040805163095ea7b360e01b81526001600160a01b0392831660048201526024810184905290519293509086169163095ea7b3916044808201926020929091908290030181600087803b15801561159357600080fd5b505af11580156115a7573d6000803e3d6000fd5b505050506040513d60208110156115bd57600080fd5b505060065460408051633d14d1b760e21b81526001600160a01b038781166004830152602482018590523360448301529151919092169163f45346dc91606480830192600092919082900301818387803b15801561161a57600080fd5b505af115801561162e573d6000803e3d6000fd5b5050505061163d8b8b85612f61565b336001600160a01b03167f4d1b57c3379ad7f299ecc422923aae2eb02b1428c6b85c63e399fa6337cbc5348b8b84604051808060200180602001848152602001838103835286818151815260200191508051906020019060200280838360005b838110156116b557818101518382015260200161169d565b50505050905001838103825285818151815260200191508051906020019060200280838360005b838110156116f45781810151838201526020016116dc565b505050509050019550505050505060405180910390a29a9950505050505050505050565b6003546001600160a01b031681565b6006546001600160a01b031681565b6001546001600160a01b03163314611789576040805162461bcd60e51b815260206004820152601160248201527011549497d050d0d154d4d7d11153925151607a1b604482015290519081900360640190fd5b600154600080546040516001600160a01b0393841693909116917f343765429aea5a34b3ff6a3785a98a5abb2597aca87bfbb58632c173d585373a91a360018054600080546001600160a01b03199081166001600160a01b03841617909155169055565b6002546001600160a01b031681565b6000546001600160a01b031681565b6005546000906001600160a01b03163415611b3d5760045485516001600160a01b0390911690869060009061183c57fe5b60200260200101516001600160a01b0316146118895760405162461bcd60e51b815260040180806020018281038252602a815260200180613585602a913960400191505060405180910390fd5b3484146118c75760405162461bcd60e51b81526004018080602001828103825260348152602001806136c76034913960400191505060405180910390fd5b6004805460408051630d0e30db60e41b815290516001600160a01b039092169263d0e30db0928892808301926000929182900301818588803b15801561190c57600080fd5b505af1158015611920573d6000803e3d6000fd5b5050600480546005546040805163095ea7b360e01b81526001600160a01b0392831694810194909452602484018b905251600096509116935063095ea7b39250604480830192602092919082900301818787803b15801561198057600080fd5b505af1158015611994573d6000803e3d6000fd5b505050506040513d60208110156119aa57600080fd5b50519050806119b857600080fd5b6000826001600160a01b031663b77d239b888888336000806040518763ffffffff1660e01b81526004018080602001878152602001868152602001856001600160a01b03166001600160a01b03168152602001846001600160a01b03166001600160a01b03168152602001838152602001828103825288818151815260200191508051906020019060200280838360005b83811015611a61578181015183820152602001611a49565b50505050905001975050505050505050602060405180830381600087803b158015611a8b57600080fd5b505af1158015611a9f573d6000803e3d6000fd5b505050506040513d6020811015611ab557600080fd5b50516040805160208082528a51828201528a5193945084938a9333937f5daafc2a274db45810c7f56e73b2a0a2b99bb148d2f5b8ba5d5d935099e978ca938e939192839290830191858101910280838360005b83811015611b20578181015183820152602001611b08565b505050509050019250505060405180910390a49250611f72915050565b60045485516001600160a01b039091169086906000198101908110611b5e57fe5b60200260200101516001600160a01b031614611bab5760405162461bcd60e51b81526004018080602001828103825260218152602001806135f66021913960400191505060405180910390fd5b600085600081518110611bba57fe5b602090810291909101810151604080516323b872dd60e01b81523360048201523060248201526044810189905290519193506000926001600160a01b038516926323b872dd92606480820193929182900301818787803b158015611c1d57600080fd5b505af1158015611c31573d6000803e3d6000fd5b505050506040513d6020811015611c4757600080fd5b5051905080611c5557600080fd5b6005546040805163095ea7b360e01b81526001600160a01b03928316600482015260248101899052905160009285169163095ea7b391604480830192602092919082900301818787803b158015611cab57600080fd5b505af1158015611cbf573d6000803e3d6000fd5b505050506040513d6020811015611cd557600080fd5b5051905080611ce357600080fd5b6000846001600160a01b031663b77d239b8a8a8a306000806040518763ffffffff1660e01b81526004018080602001878152602001868152602001856001600160a01b03166001600160a01b03168152602001846001600160a01b03166001600160a01b03168152602001838152602001828103825288818151815260200191508051906020019060200280838360005b83811015611d8c578181015183820152602001611d74565b50505050905001975050505050505050602060405180830381600087803b158015611db657600080fd5b505af1158015611dca573d6000803e3d6000fd5b505050506040513d6020811015611de057600080fd5b50516004805460408051632e1a7d4d60e01b8152928301849052519293506001600160a01b031691632e1a7d4d9160248082019260009290919082900301818387803b158015611e2f57600080fd5b505af1158015611e43573d6000803e3d6000fd5b50506040516000925033915083908381818185875af1925050503d8060008114611e89576040519150601f19603f3d011682016040523d82523d6000602084013e611e8e565b606091505b5050905080611ee4576040805162461bcd60e51b815260206004820152601b60248201527f4661696c656420746f2073656e64205242544320746f20757365720000000000604482015290519081900360640190fd5b8189336001600160a01b03167f5daafc2a274db45810c7f56e73b2a0a2b99bb148d2f5b8ba5d5d935099e978ca8d6040518080602001828103825283818151815260200191508051906020019060200280838360005b83811015611f52578181015183820152602001611f3a565b505050509050019250505060405180910390a4509450611f729350505050565b9392505050565b611f81612e05565b600354600280546001600160a01b0319166001600160a01b03909216919091179055565b6001546001600160a01b031681565b611fbc612e05565b60008111611ffb5760405162461bcd60e51b81526004018080602001828103825260218152602001806137526021913960400191505060405180910390fd5b6001600160a01b038216612056576040805162461bcd60e51b815260206004820152601860248201527f7265636569766572206164647265737320696e76616c69640000000000000000604482015290519081900360640190fd5b6001600160a01b038316612102576040516000906001600160a01b0384169083908381818185875af1925050503d80600081146120af576040519150601f19603f3d011682016040523d82523d6000602084013e6120b4565b606091505b50509050806120fc576040805162461bcd60e51b815260206004820152600f60248201526e1d1c985b9cd9995c8819985a5b1959608a1b604482015290519081900360640190fd5b5061211c565b61211c6001600160a01b038416838363ffffffff61332a16565b816001600160a01b0316836001600160a01b03167f9b1bfa7fa9ee420a16e124f794c35ac9f90472acc99140eb2f6447c714cad8eb836040518082815260200191505060405180910390a3505050565b600084612181816001600160a01b0316612e5a565b6121c0576040805162461bcd60e51b815260206004820152601d60248201526000805160206135af833981519152604482015290519081900360640190fd5b60408051635768adcf60e01b81526001600160a01b03808816600483015291518892889260009291851691635768adcf91602480820192602092909190829003018186803b15801561221157600080fd5b505afa158015612225573d6000803e3d6000fd5b505050506040513d602081101561223b57600080fd5b50516004549091506001600160a01b03898116911614156122f7573487146122945760405162461bcd60e51b81526004018080602001828103825260348152602001806136c76034913960400191505060405180910390fd5b6004805460408051630d0e30db60e41b815290516001600160a01b039092169263d0e30db0928b92808301926000929182900301818588803b1580156122d957600080fd5b505af11580156122ed573d6000803e3d6000fd5b5050505050612379565b604080516323b872dd60e01b81523360048201523060248201526044810189905290516001600160a01b038416916323b872dd9160648083019260209291908290030181600087803b15801561234c57600080fd5b505af1158015612360573d6000803e3d6000fd5b505050506040513d602081101561237657600080fd5b50505b816001600160a01b031663095ea7b38a896040518363ffffffff1660e01b815260040180836001600160a01b03166001600160a01b0316815260200182815260200192505050602060405180830381600087803b1580156123d957600080fd5b505af11580156123ed573d6000803e3d6000fd5b505050506040513d602081101561240357600080fd5b505161244e576040805162461bcd60e51b81526020600482015260156024820152741d1bdad95b88185c1c1c9bdd985b0819985a5b1959605a1b604482015290519081900360640190fd5b604080516355776b7760e01b81526001600160a01b038481166004830152602482018a90526044820189905291516000928616916355776b7791606480830192602092919082900301818787803b1580156124a857600080fd5b505af11580156124bc573d6000803e3d6000fd5b505050506040513d60208110156124d257600080fd5b50516006546040805163095ea7b360e01b81526001600160a01b0392831660048201526024810184905290519293509084169163095ea7b3916044808201926020929091908290030181600087803b15801561252d57600080fd5b505af1158015612541573d6000803e3d6000fd5b505050506040513d602081101561255757600080fd5b505060065460408051633d14d1b760e21b81526001600160a01b038581166004830152602482018590523360448301529151919092169163f45346dc91606480830192600092919082900301818387803b1580156125b457600080fd5b505af11580156125c8573d6000803e3d6000fd5b5050604080518b81526020810185905281513394507fac1d76749e5447b7b16f5ab61447e1bd502f3bb4807af3b28e620d1700a6ee4593509081900390910190a29998505050505050505050565b83612629816001600160a01b0316612e5a565b612668576040805162461bcd60e51b815260206004820152601d60248201526000805160206135af833981519152604482015290519081900360640190fd5b600084116126a75760405162461bcd60e51b815260040180806020018281038252602281526020018061353a6022913960400191505060405180910390fd5b606083516040519080825280602002602001820160405280156126d4578160200160208202803883390190505b5090506000869050600660009054906101000a90046001600160a01b03166001600160a01b03166369328dec826001600160a01b031663fc0c546a6040518163ffffffff1660e01b815260040160206040518083038186803b15801561273957600080fd5b505afa15801561274d573d6000803e3d6000fd5b505050506040513d602081101561276357600080fd5b5051604080516001600160e01b031960e085901b1681526001600160a01b039092166004830152602482018a905233604483015251606480830192600092919082900301818387803b1580156127b857600080fd5b505af11580156127cc573d6000803e3d6000fd5b50505050600085519050606081604051908082528060200260200182016040528015612802578160200160208202803883390190505b50905060005b828110156128c65787818151811061281c57fe5b60200260200101516001600160a01b03166370a08231306040518263ffffffff1660e01b815260040180826001600160a01b03166001600160a01b0316815260200191505060206040518083038186803b15801561287957600080fd5b505afa15801561288d573d6000803e3d6000fd5b505050506040513d60208110156128a357600080fd5b505182518390839081106128b357fe5b6020908102919091010152600101612808565b50826001600160a01b031663b127c0a58989896040518463ffffffff1660e01b8152600401808481526020018060200180602001838103835285818151815260200191508051906020019060200280838360005b8381101561293257818101518382015260200161291a565b50505050905001838103825284818151815260200191508051906020019060200280838360005b83811015612971578181015183820152602001612959565b5050505090500195505050505050600060405180830381600087803b15801561299957600080fd5b505af11580156129ad573d6000803e3d6000fd5b5050505060008060008090505b84811015612cac576004548a516001600160a01b03909116908b90839081106129df57fe5b60200260200101516001600160a01b03161415612b99576000612a78858381518110612a0757fe5b60200260200101518c8481518110612a1b57fe5b60200260200101516001600160a01b03166370a08231306040518263ffffffff1660e01b815260040180826001600160a01b03166001600160a01b0316815260200191505060206040518083038186803b15801561150257600080fd5b905080888381518110612a8757fe5b60209081029190910101526004805460408051632e1a7d4d60e01b8152928301849052516001600160a01b0390911691632e1a7d4d91602480830192600092919082900301818387803b158015612add57600080fd5b505af1158015612af1573d6000803e3d6000fd5b50506040516000925033915083908381818185875af1925050503d8060008114612b37576040519150601f19603f3d011682016040523d82523d6000602084013e612b3c565b606091505b5050905080612b92576040805162461bcd60e51b815260206004820152601b60248201527f4661696c656420746f2073656e64205242544320746f20757365720000000000604482015290519081900360640190fd5b5050612ca4565b612bbc848281518110612ba857fe5b60200260200101518b8381518110612a1b57fe5b925082878281518110612bcb57fe5b602002602001018181525050898181518110612be357fe5b6020908102919091018101516040805163a9059cbb60e01b81523360048201526024810187905290516001600160a01b039092169263a9059cbb926044808401938290030181600087803b158015612c3a57600080fd5b505af1158015612c4e573d6000803e3d6000fd5b505050506040513d6020811015612c6457600080fd5b5051915081612ca45760405162461bcd60e51b815260040180806020018281038252602881526020018061369f6028913960400191505060405180910390fd5b6001016129ba565b50336001600160a01b03167f53af41766d37c326a7e111263a16fe89f60796e4695e14ce4a7c6dfb234383278a888d604051808060200180602001848152602001838103835286818151815260200191508051906020019060200280838360005b83811015612d25578181015183820152602001612d0d565b50505050905001838103825285818151815260200191508051906020019060200280838360005b83811015612d64578181015183820152602001612d4c565b505050509050019550505050505060405180910390a25050505050505050505050565b612d8f612e05565b6000546001600160a01b0382811691161415612de3576040805162461bcd60e51b815260206004820152600e60248201526d22a9292fa9a0a6a2afa7aba722a960911b604482015290519081900360640190fd5b600180546001600160a01b0319166001600160a01b0392909216919091179055565b6000546001600160a01b03163314612e58576040805162461bcd60e51b815260206004820152601160248201527011549497d050d0d154d4d7d11153925151607a1b604482015290519081900360640190fd5b565b6000813f7fc5d2460186f7233c927e7db2dcc703c0e500b653ca82273b7bfad8045d85a470818114801590612e8e57508115155b949350505050565b60025460408051632ecd14d360e21b81526004810184905290516000926001600160a01b03169163bb34534c916024808301926020929190829003018186803b158015612ee257600080fd5b505afa158015612ef6573d6000803e3d6000fd5b505050506040513d6020811015612f0c57600080fd5b505192915050565b600081831015612f5b576040805162461bcd60e51b815260206004820152600d60248201526c4552525f554e444552464c4f5760981b604482015290519081900360640190fd5b50900390565b60005b8251811015613324576000838281518110612f7b57fe5b60200260200101516001600160a01b03166370a08231306040518263ffffffff1660e01b815260040180826001600160a01b03166001600160a01b0316815260200191505060206040518083038186803b158015612fd857600080fd5b505afa158015612fec573d6000803e3d6000fd5b505050506040513d602081101561300257600080fd5b505183519091506000906130339085908590811061301c57fe5b602002602001015183612f1490919063ffffffff16565b9050801561331a5784838151811061304757fe5b60200260200101516001600160a01b031663095ea7b38760006040518363ffffffff1660e01b815260040180836001600160a01b03166001600160a01b0316815260200182815260200192505050602060405180830381600087803b1580156130af57600080fd5b505af11580156130c3573d6000803e3d6000fd5b505050506040513d60208110156130d957600080fd5b505161312c576040805162461bcd60e51b815260206004820152601860248201527f4661696c656420746f20726573657420617070726f76616c0000000000000000604482015290519081900360640190fd5b60045485516001600160a01b039091169086908590811061314957fe5b60200260200101516001600160a01b03161415613250576004805460408051632e1a7d4d60e01b8152928301849052516001600160a01b0390911691632e1a7d4d91602480830192600092919082900301818387803b1580156131ab57600080fd5b505af11580156131bf573d6000803e3d6000fd5b50506040516000925033915083908381818185875af1925050503d8060008114613205576040519150601f19603f3d011682016040523d82523d6000602084013e61320a565b606091505b505090508061324a5760405162461bcd60e51b815260040180806020018281038252602681526020018061364c6026913960400191505060405180910390fd5b5061331a565b84838151811061325c57fe5b6020908102919091018101516040805163a9059cbb60e01b81523360048201526024810185905290516001600160a01b039092169263a9059cbb926044808401938290030181600087803b1580156132b357600080fd5b505af11580156132c7573d6000803e3d6000fd5b505050506040513d60208110156132dd57600080fd5b505161331a5760405162461bcd60e51b81526004018080602001828103825260338152602001806137736033913960400191505060405180910390fd5b5050600101612f64565b50505050565b604080516001600160a01b038416602482015260448082018490528251808303909101815260649091019091526020810180516001600160e01b031663a9059cbb60e01b17905261337c908490613381565b505050565b613393826001600160a01b0316612e5a565b6133e4576040805162461bcd60e51b815260206004820152601f60248201527f5361666545524332303a2063616c6c20746f206e6f6e2d636f6e747261637400604482015290519081900360640190fd5b60006060836001600160a01b0316836040518082805190602001908083835b602083106134225780518252601f199092019160209182019101613403565b6001836020036101000a0380198251168184511680821785525050505050509050019150506000604051808303816000865af19150503d8060008114613484576040519150601f19603f3d011682016040523d82523d6000602084013e613489565b606091505b5091509150816134e0576040805162461bcd60e51b815260206004820181905260248201527f5361666545524332303a206c6f772d6c6576656c2063616c6c206661696c6564604482015290519081900360640190fd5b805115613324578080602001905160208110156134fc57600080fd5b50516133245760405162461bcd60e51b815260040180806020018281038252602a8152602001806136fb602a913960400191505060405180910390fdfe54686520616d6f756e742073686f756c64206c6172676572207468616e207a65726f4f6e6c792063616e207265636569766520724254432066726f6d20575242544320636f6e747261637456616c7565206d6179206f6e6c792062652073656e7420666f72205752425443207472616e73666572735468652061646472657373206973206e6f74206120636f6e747261637400000052425443206973206e6f7420616c6c6f77656420666f72206e6f6e2d77726274632070616972734974206f6e6c7920636f756c64206265207377617070656420746f2057524254434661696c656420746f20617070726f766520636f6e76657274657220746f207472616e73666572207265736572766520746f6b656e4661696c656420746f2073656e642065787472612052425443206261636b20746f20757365724661696c656420746f20617070726f766520636f6e76657274657220746f207472616e736665722057524254434661696c656420746f207472616e73666572207265736572766520746f6b656e20746f20757365725468652070726f766964656420616d6f756e742073686f756c64206265206964656e746963616c20746f206d73672e76616c75655361666545524332303a204552433230206f7065726174696f6e20646964206e6f7420737563636565644661696c656420746f207472616e73666572207265736572766520746f6b656e7320746f2074686520757365726e6f6e2d7a65726f20776974686472617720616d6f756e742065787065637465644661696c656420746f207472616e73666572206578747261207265736572766520746f6b656e206261636b20746f20757365724661696c656420746f207472616e73666572207265736572766520746f6b656e2066726f6d20757365725468652070726f766964656420616d6f756e74206f6620524254432073686f756c64206265206964656e746963616c20746f206d73672e76616c7565a265627a7a7231582015bd159d99c91139fe740fd17f4551a5050e54ecb9bae39844c91a734ecec42f64736f6c63430005100032",
    "linkReferences": {},
    "deployedLinkReferences": {}
}