{
    "contractName": "CSOVToken",
    "abi": [
        {
            "inputs": [
                {
                    "internalType": "uint256",
                    "name": "totalSupply_",
                    "type": "uint256"
                },
                {
                    "internalType": "address payable",
                    "name": "_csovAdmin",
                    "type": "address"
                }
            ],
            "stateMutability": "nonpayable",
            "type": "constructor"
        },
        {
            "anonymous": false,
            "inputs": [
                {
                    "indexed": true,
                    "internalType": "address",
                    "name": "owner",
                    "type": "address"
                },
                {
                    "indexed": true,
                    "internalType": "address",
                    "name": "spender",
                    "type": "address"
                },
                {
                    "indexed": false,
                    "internalType": "uint256",
                    "name": "value",
                    "type": "uint256"
                }
            ],
            "name": "Approval",
            "type": "event"
        },
        {
            "anonymous": false,
            "inputs": [
                {
                    "indexed": true,
                    "internalType": "address",
                    "name": "previousOwner",
                    "type": "address"
                },
                {
                    "indexed": true,
                    "internalType": "address",
                    "name": "newOwner",
                    "type": "address"
                }
            ],
            "name": "OwnershipTransferred",
            "type": "event"
        },
        {
            "anonymous": false,
            "inputs": [
                {
                    "indexed": true,
                    "internalType": "address",
                    "name": "from",
                    "type": "address"
                },
                {
                    "indexed": true,
                    "internalType": "address",
                    "name": "to",
                    "type": "address"
                },
                {
                    "indexed": false,
                    "internalType": "uint256",
                    "name": "value",
                    "type": "uint256"
                }
            ],
            "name": "Transfer",
            "type": "event"
        },
        {
            "inputs": [
                {
                    "internalType": "address",
                    "name": "owner",
                    "type": "address"
                },
                {
                    "internalType": "address",
                    "name": "spender",
                    "type": "address"
                }
            ],
            "name": "allowance",
            "outputs": [
                {
                    "internalType": "uint256",
                    "name": "",
                    "type": "uint256"
                }
            ],
            "stateMutability": "view",
            "type": "function"
        },
        {
            "inputs": [
                {
                    "internalType": "address",
                    "name": "spender",
                    "type": "address"
                },
                {
                    "internalType": "uint256",
                    "name": "amount",
                    "type": "uint256"
                }
            ],
            "name": "approve",
            "outputs": [
                {
                    "internalType": "bool",
                    "name": "",
                    "type": "bool"
                }
            ],
            "stateMutability": "nonpayable",
            "type": "function"
        },
        {
            "inputs": [
                {
                    "internalType": "address",
                    "name": "account",
                    "type": "address"
                }
            ],
            "name": "balanceOf",
            "outputs": [
                {
                    "internalType": "uint256",
                    "name": "",
                    "type": "uint256"
                }
            ],
            "stateMutability": "view",
            "type": "function"
        },
        {
            "inputs": [],
            "name": "decimals",
            "outputs": [
                {
                    "internalType": "uint8",
                    "name": "",
                    "type": "uint8"
                }
            ],
            "stateMutability": "view",
            "type": "function"
        },
        {
            "inputs": [
                {
                    "internalType": "address",
                    "name": "spender",
                    "type": "address"
                },
                {
                    "internalType": "uint256",
                    "name": "subtractedValue",
                    "type": "uint256"
                }
            ],
            "name": "decreaseAllowance",
            "outputs": [
                {
                    "internalType": "bool",
                    "name": "",
                    "type": "bool"
                }
            ],
            "stateMutability": "nonpayable",
            "type": "function"
        },
        {
            "inputs": [
                {
                    "internalType": "address",
                    "name": "spender",
                    "type": "address"
                },
                {
                    "internalType": "uint256",
                    "name": "addedValue",
                    "type": "uint256"
                }
            ],
            "name": "increaseAllowance",
            "outputs": [
                {
                    "internalType": "bool",
                    "name": "",
                    "type": "bool"
                }
            ],
            "stateMutability": "nonpayable",
            "type": "function"
        },
        {
            "inputs": [],
            "name": "isSaleAdminsUpdate",
            "outputs": [
                {
                    "internalType": "bool",
                    "name": "",
                    "type": "bool"
                }
            ],
            "stateMutability": "view",
            "type": "function"
        },
        {
            "inputs": [],
            "name": "isSaleEnded",
            "outputs": [
                {
                    "internalType": "bool",
                    "name": "",
                    "type": "bool"
                }
            ],
            "stateMutability": "view",
            "type": "function"
        },
        {
            "inputs": [],
            "name": "name",
            "outputs": [
                {
                    "internalType": "string",
                    "name": "",
                    "type": "string"
                }
            ],
            "stateMutability": "view",
            "type": "function"
        },
        {
            "inputs": [],
            "name": "owner",
            "outputs": [
                {
                    "internalType": "address",
                    "name": "",
                    "type": "address"
                }
            ],
            "stateMutability": "view",
            "type": "function"
        },
        {
            "inputs": [],
            "name": "renounceOwnership",
            "outputs": [],
            "stateMutability": "nonpayable",
            "type": "function"
        },
        {
            "inputs": [],
            "name": "symbol",
            "outputs": [
                {
                    "internalType": "string",
                    "name": "",
                    "type": "string"
                }
            ],
            "stateMutability": "view",
            "type": "function"
        },
        {
            "inputs": [],
            "name": "totalSupply",
            "outputs": [
                {
                    "internalType": "uint256",
                    "name": "",
                    "type": "uint256"
                }
            ],
            "stateMutability": "view",
            "type": "function"
        },
        {
            "inputs": [
                {
                    "internalType": "address",
                    "name": "newOwner",
                    "type": "address"
                }
            ],
            "name": "transferOwnership",
            "outputs": [],
            "stateMutability": "nonpayable",
            "type": "function"
        },
        {
            "inputs": [
                {
                    "internalType": "bool",
                    "name": "_isSaleEnded",
                    "type": "bool"
                }
            ],
            "name": "saleClosure",
            "outputs": [],
            "stateMutability": "nonpayable",
            "type": "function"
        },
        {
            "inputs": [
                {
                    "internalType": "address payable",
                    "name": "_saleAdmin",
                    "type": "address"
                }
            ],
            "name": "setSaleAdmin",
            "outputs": [],
            "stateMutability": "nonpayable",
            "type": "function"
        },
        {
            "inputs": [
                {
                    "internalType": "address",
                    "name": "to",
                    "type": "address"
                },
                {
                    "internalType": "uint256",
                    "name": "value",
                    "type": "uint256"
                }
            ],
            "name": "transfer",
            "outputs": [
                {
                    "internalType": "bool",
                    "name": "",
                    "type": "bool"
                }
            ],
            "stateMutability": "nonpayable",
            "type": "function"
        },
        {
            "inputs": [
                {
                    "internalType": "address",
                    "name": "sender",
                    "type": "address"
                },
                {
                    "internalType": "address",
                    "name": "recipient",
                    "type": "address"
                },
                {
                    "internalType": "uint256",
                    "name": "amount",
                    "type": "uint256"
                }
            ],
            "name": "transferFrom",
            "outputs": [
                {
                    "internalType": "bool",
                    "name": "",
                    "type": "bool"
                }
            ],
            "stateMutability": "nonpayable",
            "type": "function"
        }
    ],
    "bytecode": "0x60806040523480156200001157600080fd5b50604051620014dc380380620014dc833981810160405260408110156200003757600080fd5b508051602091820151604080518082018252600c81526b21a9a7ab393cb72a37b5b2b760a11b8186019081528251808401909352600483526321a9a7ab60e11b958301959095528051939492939092620000959160039190620003e2565b508051620000ab906004906020840190620003e2565b50506005805460ff19166012179055506000620000d06001600160e01b036200014616565b60058054610100600160a81b0319166101006001600160a01b0384169081029190911790915560405191925090600090600080516020620014bc833981519152908290a35062000129816001600160e01b036200014b16565b6200013e81836001600160e01b036200026316565b505062000484565b335b90565b6200015e6001600160e01b036200014616565b60055461010090046001600160a01b03908116911614620001c6576040805162461bcd60e51b815260206004820181905260248201527f4f776e61626c653a2063616c6c6572206973206e6f7420746865206f776e6572604482015290519081900360640190fd5b6001600160a01b0381166200020d5760405162461bcd60e51b8152600401808060200182810382526026815260200180620014966026913960400191505060405180910390fd5b6005546040516001600160a01b038084169261010090041690600080516020620014bc83398151915290600090a3600580546001600160a01b0390921661010002610100600160a81b0319909216919091179055565b6001600160a01b038216620002bf576040805162461bcd60e51b815260206004820152601f60248201527f45524332303a206d696e7420746f20746865207a65726f206164647265737300604482015290519081900360640190fd5b620002d6600083836001600160e01b036200037b16565b620002f2816002546200038060201b62000bea1790919060201c565b6002556001600160a01b038216600090815260208181526040909120546200032591839062000bea62000380821b17901c565b6001600160a01b0383166000818152602081815260408083209490945583518581529351929391927fddf252ad1be2c89b69c2b068fc378daa952ba7f163c4a11628f55a4df523b3ef9281900390910190a35050565b505050565b600082820183811015620003db576040805162461bcd60e51b815260206004820152601b60248201527f536166654d6174683a206164646974696f6e206f766572666c6f770000000000604482015290519081900360640190fd5b9392505050565b828054600181600116156101000203166002900490600052602060002090601f016020900481019282601f106200042557805160ff191683800117855562000455565b8280016001018555821562000455579182015b828111156200045557825182559160200191906001019062000438565b506200046392915062000467565b5090565b6200014891905b808211156200046357600081556001016200046e565b61100280620004946000396000f3fe608060405234801561001057600080fd5b50600436106101165760003560e01c806384058eaa116100a2578063a9059cbb11610071578063a9059cbb1461033f578063afd991781461036b578063dd62ed3e14610373578063f2fde38b146103a1578063f9059832146103c757610116565b806384058eaa146102c15780638da5cb5b146102e757806395d89b411461030b578063a457c2d71461031357610116565b80633082d4c8116100e95780633082d4c814610228578063313ce56714610249578063395093511461026757806370a0823114610293578063715018a6146102b957610116565b806306fdde031461011b578063095ea7b31461019857806318160ddd146101d857806323b872dd146101f2575b600080fd5b6101236103cf565b6040805160208082528351818301528351919283929083019185019080838360005b8381101561015d578181015183820152602001610145565b50505050905090810190601f16801561018a5780820380516001836020036101000a031916815260200191505b509250505060405180910390f35b6101c4600480360360408110156101ae57600080fd5b506001600160a01b038135169060200135610465565b604080519115158252519081900360200190f35b6101e0610483565b60408051918252519081900360200190f35b6101c46004803603606081101561020857600080fd5b506001600160a01b03813581169160208101359091169060400135610489565b6102476004803603602081101561023e57600080fd5b503515156104b6565b005b61025161052b565b6040805160ff9092168252519081900360200190f35b6101c46004803603604081101561027d57600080fd5b506001600160a01b038135169060200135610534565b6101e0600480360360208110156102a957600080fd5b50356001600160a01b031661058d565b6102476105a8565b610247600480360360208110156102d757600080fd5b50356001600160a01b0316610667565b6102ef610771565b604080516001600160a01b039092168252519081900360200190f35b610123610785565b6101c46004803603604081101561032957600080fd5b506001600160a01b0381351690602001356107e6565b6101c46004803603604081101561035557600080fd5b506001600160a01b038135169060200135610854565b6101c461087e565b6101e06004803603604081101561038957600080fd5b506001600160a01b038135811691602001351661088e565b610247600480360360208110156103b757600080fd5b50356001600160a01b03166108b9565b6101c46109d4565b60038054604080516020601f600260001961010060018816150201909516949094049384018190048102820181019092528281526060939092909183018282801561045b5780601f106104305761010080835404028352916020019161045b565b820191906000526020600020905b81548152906001019060200180831161043e57829003601f168201915b5050505050905090565b60006104796104726109e4565b84846109e8565b5060015b92915050565b60025490565b600061049484610ad4565b156104ab576104a4848484610b62565b90506104af565b5060005b9392505050565b6006546001600160a01b031633146104ff5760405162461bcd60e51b8152600401808060200182810382526021815260200180610ec36021913960400191505060405180910390fd5b600554600160a81b900460ff16610528576005805460ff60a81b1916600160a81b831515021790555b50565b60055460ff1690565b60006104796105416109e4565b8461058885600160006105526109e4565b6001600160a01b03908116825260208083019390935260409182016000908120918c16815292529020549063ffffffff610bea16565b6109e8565b6001600160a01b031660009081526020819052604090205490565b6105b06109e4565b60055461010090046001600160a01b03908116911614610617576040805162461bcd60e51b815260206004820181905260248201527f4f776e61626c653a2063616c6c6572206973206e6f7420746865206f776e6572604482015290519081900360640190fd5b60055460405160009161010090046001600160a01b0316907f8be0079c531659141344cd1fd0a4f28419497f9722a3daafe3b4186f6b6457e0908390a360058054610100600160a81b0319169055565b61066f6109e4565b60055461010090046001600160a01b039081169116146106d6576040805162461bcd60e51b815260206004820181905260248201527f4f776e61626c653a2063616c6c6572206973206e6f7420746865206f776e6572604482015290519081900360640190fd5b6006805460ff60a01b196001600160a01b038085166001600160a01b03199093169290921716600160a01b1791829055610720911661071b610716610771565b61058d565b610854565b610528576040805162461bcd60e51b815260206004820152601e60248201527f73616c6541646d696e20746f6b656e207472616e736572206661696c65640000604482015290519081900360640190fd5b60055461010090046001600160a01b031690565b60048054604080516020601f600260001961010060018816150201909516949094049384018190048102820181019092528281526060939092909183018282801561045b5780601f106104305761010080835404028352916020019161045b565b60006104796107f36109e4565b8461058885604051806060016040528060258152602001610fa8602591396001600061081d6109e4565b6001600160a01b03908116825260208083019390935260409182016000908120918d1681529252902054919063ffffffff610c4416565b600061085f33610ad4565b156108755761086e8383610cdb565b905061047d565b50600092915050565b600654600160a01b900460ff1681565b6001600160a01b03918216600090815260016020908152604080832093909416825291909152205490565b6108c16109e4565b60055461010090046001600160a01b03908116911614610928576040805162461bcd60e51b815260206004820181905260248201527f4f776e61626c653a2063616c6c6572206973206e6f7420746865206f776e6572604482015290519081900360640190fd5b6001600160a01b03811661096d5760405162461bcd60e51b8152600401808060200182810382526026815260200180610e7b6026913960400191505060405180910390fd5b6005546040516001600160a01b0380841692610100900416907f8be0079c531659141344cd1fd0a4f28419497f9722a3daafe3b4186f6b6457e090600090a3600580546001600160a01b0390921661010002610100600160a81b0319909216919091179055565b600554600160a81b900460ff1681565b3390565b6001600160a01b038316610a2d5760405162461bcd60e51b8152600401808060200182810382526024815260200180610f846024913960400191505060405180910390fd5b6001600160a01b038216610a725760405162461bcd60e51b8152600401808060200182810382526022815260200180610ea16022913960400191505060405180910390fd5b6001600160a01b03808416600081815260016020908152604080832094871680845294825291829020859055815185815291517f8c5be1e5ebec7d5bd14f71427d1e84f3dd0314c0f7b2291e5b200ac8c7c3b9259281900390910190a3505050565b600554600090600160a81b900460ff1680610b075750610af2610771565b6001600160a01b0316826001600160a01b0316145b80610b1f57506006546001600160a01b038381169116145b610b5a5760405162461bcd60e51b815260040180806020018281038252602d815260200180610f0a602d913960400191505060405180910390fd5b506001919050565b6000610b6f848484610ceb565b610be084610b7b6109e4565b61058885604051806060016040528060288152602001610f37602891396001600160a01b038a16600090815260016020526040812090610bb96109e4565b6001600160a01b03168152602081019190915260400160002054919063ffffffff610c4416565b5060019392505050565b6000828201838110156104af576040805162461bcd60e51b815260206004820152601b60248201527f536166654d6174683a206164646974696f6e206f766572666c6f770000000000604482015290519081900360640190fd5b60008184841115610cd35760405162461bcd60e51b81526004018080602001828103825283818151815260200191508051906020019080838360005b83811015610c98578181015183820152602001610c80565b50505050905090810190601f168015610cc55780820380516001836020036101000a031916815260200191505b509250505060405180910390fd5b505050900390565b6000610479610ce86109e4565b84845b6001600160a01b038316610d305760405162461bcd60e51b8152600401808060200182810382526025815260200180610f5f6025913960400191505060405180910390fd5b6001600160a01b038216610d755760405162461bcd60e51b8152600401808060200182810382526023815260200180610e586023913960400191505060405180910390fd5b610d80838383610e52565b610dc381604051806060016040528060268152602001610ee4602691396001600160a01b038616600090815260208190526040902054919063ffffffff610c4416565b6001600160a01b038085166000908152602081905260408082209390935590841681522054610df8908263ffffffff610bea16565b6001600160a01b038084166000818152602081815260409182902094909455805185815290519193928716927fddf252ad1be2c89b69c2b068fc378daa952ba7f163c4a11628f55a4df523b3ef92918290030190a3505050565b50505056fe45524332303a207472616e7366657220746f20746865207a65726f20616464726573734f776e61626c653a206e6577206f776e657220697320746865207a65726f206164647265737345524332303a20617070726f766520746f20746865207a65726f20616464726573734f6e6c792073616c6541646d696e2063616e20636c6f7365207468652073616c6545524332303a207472616e7366657220616d6f756e7420657863656564732062616c616e6365546f6b656e205472616e73666572206973206e6f7420616c6c6f77656420647572696e67207468652073616c6545524332303a207472616e7366657220616d6f756e74206578636565647320616c6c6f77616e636545524332303a207472616e736665722066726f6d20746865207a65726f206164647265737345524332303a20617070726f76652066726f6d20746865207a65726f206164647265737345524332303a2064656372656173656420616c6c6f77616e63652062656c6f77207a65726fa2646970667358221220fea611454f70f0c9cee64e769a63b213a6f4770d0838e3f36e32d50e508aed7b64736f6c634300060200334f776e61626c653a206e6577206f776e657220697320746865207a65726f20616464726573738be0079c531659141344cd1fd0a4f28419497f9722a3daafe3b4186f6b6457e0",
    "source": "//SPDX-License-Identifier: MIT\npragma solidity 0.6.2;\n\nimport \"openzeppelin-solidity/contracts/GSN/Context.sol\";\nimport \"openzeppelin-solidity/contracts/access/Ownable.sol\";\nimport \"openzeppelin-solidity/contracts/math/SafeMath.sol\";\nimport \"openzeppelin-solidity/contracts/token/ERC20/IERC20.sol\";\nimport \"openzeppelin-solidity/contracts/token/ERC20/ERC20.sol\";\n\n//import \"https://github.com/OpenZeppelin/openzeppelin-contracts/blob/master/contracts/GSN/Context.sol\";\n//import \"https://github.com/OpenZeppelin/openzeppelin-contracts/blob/master/contracts/token/ERC20/IERC20.sol\";\n//import \"https://github.com/OpenZeppelin/openzeppelin-contracts/blob/master/contracts/math/SafeMath.sol\";\n//import \"https://github.com/OpenZeppelin/openzeppelin-contracts/blob/master/contracts/access/Ownable.sol\";\n//import \"https://github.com/OpenZeppelin/openzeppelin-contracts/blob/master/contracts/token/ERC20/ERC20.sol\";\n\ncontract CSOVToken is ERC20, Ownable {\n    using SafeMath for uint256;\n\n    string private constant NAME = \"CSOVrynToken\"; // Token Name\n    string private constant SYMBOL = \"CSOV\"; // Token Symbol\n\n    bool public isSaleEnded;\n    address payable saleAdmin;\n    bool public isSaleAdminsUpdate;\n\n    /**\n     *\n     * All three of these values are immutable: they can only be set once during\n     * construction.\n     */\n    constructor(uint256 totalSupply_, address payable _csovAdmin)\n        public\n        ERC20(NAME, SYMBOL)\n    {\n        transferOwnership(_csovAdmin);\n        _mint(_csovAdmin, totalSupply_);\n    }\n\n    function saleClosure(bool _isSaleEnded) public {\n        require(msg.sender == saleAdmin, \"Only saleAdmin can close the sale\");\n        if (!isSaleEnded) {\n            isSaleEnded = _isSaleEnded;\n        }\n    }\n\n    function setSaleAdmin(address payable _saleAdmin) external onlyOwner {\n        saleAdmin = _saleAdmin;\n        isSaleAdminsUpdate = true;\n        require(\n            transfer(saleAdmin, balanceOf(owner())),\n            \"saleAdmin token transer failed\"\n        );\n    }\n\n    /**\n     * @dev See {IERC20-transfer}.\n     *\n     * Requirements:\n     *\n     * - `recipient` cannot be the zero address.\n     * - the caller must have a balance of at least `amount`.\n     */\n    function transfer(address to, uint256 value)\n        public\n        override\n        returns (bool)\n    {\n        if(onlyAllowed(msg.sender)){\n            return super.transfer(to, value);\n        }\n        return false;\n    }\n\n    function transferFrom(\n        address sender,\n        address recipient,\n        uint256 amount\n    ) public override returns (bool) {\n        if(onlyAllowed(sender)){\n            return super.transferFrom(sender, recipient, amount);\n        }\n        return false;\n    }\n\n    function onlyAllowed(address adminAllowed) internal returns (bool)  {\n        require(\n            isSaleEnded || adminAllowed == owner() || adminAllowed == saleAdmin,\n            \"Token Transfer is not allowed during the sale\"\n        );\n        return true;\n    }\n}\n",
    "sourcePath": "/Users/den/sovryn/Genesis-Sale/contracts/main/CSOVToken.sol",
    "compiler": {
        "name": "solc",
        "version": "0.6.2+commit.bacdbe57.Emscripten.clang"
    },
    "schemaVersion": "3.4.7",
    "updatedAt": "2022-08-10T21:12:27.533Z",
    "devdoc": {
        "methods": {
            "allowance(address,address)": {
                "details": "See {IERC20-allowance}."
            },
            "approve(address,uint256)": {
                "details": "See {IERC20-approve}.     * Requirements:     * - `spender` cannot be the zero address."
            },
            "balanceOf(address)": {
                "details": "See {IERC20-balanceOf}."
            },
            "decimals()": {
                "details": "Returns the number of decimals used to get its user representation. For example, if `decimals` equals `2`, a balance of `505` tokens should be displayed to a user as `5,05` (`505 / 10 ** 2`).     * Tokens usually opt for a value of 18, imitating the relationship between Ether and Wei. This is the value {ERC20} uses, unless {_setupDecimals} is called.     * NOTE: This information is only used for _display_ purposes: it in no way affects any of the arithmetic of the contract, including {IERC20-balanceOf} and {IERC20-transfer}."
            },
            "decreaseAllowance(address,uint256)": {
                "details": "Atomically decreases the allowance granted to `spender` by the caller.     * This is an alternative to {approve} that can be used as a mitigation for problems described in {IERC20-approve}.     * Emits an {Approval} event indicating the updated allowance.     * Requirements:     * - `spender` cannot be the zero address. - `spender` must have allowance for the caller of at least `subtractedValue`."
            },
            "increaseAllowance(address,uint256)": {
                "details": "Atomically increases the allowance granted to `spender` by the caller.     * This is an alternative to {approve} that can be used as a mitigation for problems described in {IERC20-approve}.     * Emits an {Approval} event indicating the updated allowance.     * Requirements:     * - `spender` cannot be the zero address."
            },
            "name()": {
                "details": "Returns the name of the token."
            },
            "owner()": {
                "details": "Returns the address of the current owner."
            },
            "renounceOwnership()": {
                "details": "Leaves the contract without owner. It will not be possible to call `onlyOwner` functions anymore. Can only be called by the current owner.     * NOTE: Renouncing ownership will leave the contract without an owner, thereby removing any functionality that is only available to the owner."
            },
            "symbol()": {
                "details": "Returns the symbol of the token, usually a shorter version of the name."
            },
            "totalSupply()": {
                "details": "See {IERC20-totalSupply}."
            },
            "transfer(address,uint256)": {
                "details": "See {IERC20-transfer}.     * Requirements:     * - `recipient` cannot be the zero address. - the caller must have a balance of at least `amount`."
            },
            "transferOwnership(address)": {
                "details": "Transfers ownership of the contract to a new account (`newOwner`). Can only be called by the current owner."
            }
        }
    },
    "userdoc": {
        "methods": {
            "constructor": "* All three of these values are immutable: they can only be set once during construction."
        }
    }
}