{
  "abi": [
    {
      "anonymous": false,
      "inputs": [
        {
          "indexed": false,
          "internalType": "address",
          "name": "admin",
          "type": "address"
        }
      ],
      "name": "AdminAdded",
      "type": "event"
    },
    {
      "anonymous": false,
      "inputs": [
        {
          "indexed": false,
          "internalType": "address",
          "name": "admin",
          "type": "address"
        }
      ],
      "name": "AdminRemoved",
      "type": "event"
    },
    {
      "anonymous": false,
      "inputs": [
        {
          "indexed": true,
          "internalType": "address",
          "name": "previousOwner",
          "type": "address"
        },
        {
          "indexed": true,
          "internalType": "address",
          "name": "newOwner",
          "type": "address"
        }
      ],
      "name": "OwnershipTransferred",
      "type": "event"
    },
    {
      "anonymous": false,
      "inputs": [
        {
          "indexed": true,
          "internalType": "address",
          "name": "token",
          "type": "address"
        },
        {
          "indexed": true,
          "internalType": "address",
          "name": "receiver",
          "type": "address"
        },
        {
          "indexed": false,
          "internalType": "uint256",
          "name": "amount",
          "type": "uint256"
        }
      ],
      "name": "TokensTransferred",
      "type": "event"
    },
    {
      "constant": false,
      "inputs": [
        {
          "internalType": "address",
          "name": "_admin",
          "type": "address"
        }
      ],
      "name": "addAdmin",
      "outputs": [],
      "payable": false,
      "stateMutability": "nonpayable",
      "type": "function"
    },
    {
      "constant": true,
      "inputs": [
        {
          "internalType": "address",
          "name": "",
          "type": "address"
        }
      ],
      "name": "admins",
      "outputs": [
        {
          "internalType": "bool",
          "name": "",
          "type": "bool"
        }
      ],
      "payable": false,
      "stateMutability": "view",
      "type": "function"
    },
    {
      "constant": true,
      "inputs": [],
      "name": "isOwner",
      "outputs": [
        {
          "internalType": "bool",
          "name": "",
          "type": "bool"
        }
      ],
      "payable": false,
      "stateMutability": "view",
      "type": "function"
    },
    {
      "constant": true,
      "inputs": [],
      "name": "owner",
      "outputs": [
        {
          "internalType": "address",
          "name": "",
          "type": "address"
        }
      ],
      "payable": false,
      "stateMutability": "view",
      "type": "function"
    },
    {
      "constant": false,
      "inputs": [
        {
          "internalType": "address",
          "name": "_admin",
          "type": "address"
        }
      ],
      "name": "removeAdmin",
      "outputs": [],
      "payable": false,
      "stateMutability": "nonpayable",
      "type": "function"
    },
    {
      "constant": false,
      "inputs": [
        {
          "internalType": "address",
          "name": "newOwner",
          "type": "address"
        }
      ],
      "name": "transferOwnership",
      "outputs": [],
      "payable": false,
      "stateMutability": "nonpayable",
      "type": "function"
    },
    {
      "constant": false,
      "inputs": [
        {
          "internalType": "address",
          "name": "_token",
          "type": "address"
        },
        {
          "internalType": "address",
          "name": "_receiver",
          "type": "address"
        },
        {
          "internalType": "uint256",
          "name": "_amount",
          "type": "uint256"
        }
      ],
      "name": "transferTokens",
      "outputs": [],
      "payable": false,
      "stateMutability": "nonpayable",
      "type": "function"
    },
    {
      "constant": false,
      "inputs": [
        {
          "internalType": "address",
          "name": "_token",
          "type": "address"
        },
        {
          "internalType": "address[]",
          "name": "_receivers",
          "type": "address[]"
        },
        {
          "internalType": "uint256[]",
          "name": "_amounts",
          "type": "uint256[]"
        }
      ],
      "name": "transferTokensUsingList",
      "outputs": [],
      "payable": false,
      "stateMutability": "nonpayable",
      "type": "function"
    }
  ],
  "bytecode": {
    "object": "0x608060405260006100176001600160e01b0361006616565b600080546001600160a01b0319166001600160a01b0383169081178255604051929350917f8be0079c531659141344cd1fd0a4f28419497f9722a3daafe3b4186f6b6457e0908290a35061006a565b3390565b6108cb806100796000396000f3fe608060405234801561001057600080fd5b50600436106100885760003560e01c80638f32d59b1161005b5780638f32d59b14610139578063a64b6e5f14610141578063f2fde38b14610177578063fdc24b691461019d57610088565b80631785f53c1461008d578063429b62e5146100b557806370480275146100ef5780638da5cb5b14610115575b600080fd5b6100b3600480360360208110156100a357600080fd5b50356001600160a01b031661026f565b005b6100db600480360360208110156100cb57600080fd5b50356001600160a01b031661030f565b604080519115158252519081900360200190f35b6100b36004803603602081101561010557600080fd5b50356001600160a01b0316610324565b61011d6103c8565b604080516001600160a01b039092168252519081900360200190f35b6100db6103d7565b6100b36004803603606081101561015757600080fd5b506001600160a01b038135811691602081013590911690604001356103fb565b6100b36004803603602081101561018d57600080fd5b50356001600160a01b031661046d565b6100b3600480360360608110156101b357600080fd5b6001600160a01b0382351691908101906040810160208201356401000000008111156101de57600080fd5b8201836020820111156101f057600080fd5b8035906020019184602083028401116401000000008311171561021257600080fd5b91939092909160208101903564010000000081111561023057600080fd5b82018360208201111561024257600080fd5b8035906020019184602083028401116401000000008311171561026457600080fd5b5090925090506104c1565b6102776103d7565b6102b7576040805162461bcd60e51b815260206004820152600c60248201526b1d5b985d5d1a1bdc9a5e995960a21b604482015290519081900360640190fd5b6001600160a01b038116600081815260016020908152604091829020805460ff19169055815192835290517fa3b62bc36326052d97ea62d63c3d60308ed4c3ea8ac079dd8499f1e9c4f80c0f9281900390910190a150565b60016020526000908152604090205460ff1681565b61032c6103d7565b61036c576040805162461bcd60e51b815260206004820152600c60248201526b1d5b985d5d1a1bdc9a5e995960a21b604482015290519081900360640190fd5b6001600160a01b038116600081815260016020818152604092839020805460ff1916909217909155815192835290517f44d6d25963f097ad14f29f06854a01f575648a1ef82f30e562ccd3889717e3399281900390910190a150565b6000546001600160a01b031690565b600080546001600160a01b03166103ec6105bc565b6001600160a01b031614905090565b6104036103d7565b8061041d57503360009081526001602052604090205460ff165b61045d576040805162461bcd60e51b815260206004820152600c60248201526b1d5b985d5d1a1bdc9a5e995960a21b604482015290519081900360640190fd5b6104688383836105c0565b505050565b6104756103d7565b6104b5576040805162461bcd60e51b815260206004820152600c60248201526b1d5b985d5d1a1bdc9a5e995960a21b604482015290519081900360640190fd5b6104be816107d0565b50565b6104c96103d7565b806104e357503360009081526001602052604090205460ff165b610523576040805162461bcd60e51b815260206004820152600c60248201526b1d5b985d5d1a1bdc9a5e995960a21b604482015290519081900360640190fd5b828114610569576040805162461bcd60e51b815260206004820152600f60248201526e0c2e4e4c2f2e640dad2e6dac2e8c6d608b1b604482015290519081900360640190fd5b60005b838110156105b4576105ac8686868481811061058457fe5b905060200201356001600160a01b03168585858181106105a057fe5b905060200201356105c0565b60010161056c565b505050505050565b3390565b6001600160a01b038316610613576040805162461bcd60e51b81526020600482015260156024820152741d1bdad95b881859191c995cdcc81a5b9d985b1a59605a1b604482015290519081900360640190fd5b6001600160a01b03821661066e576040805162461bcd60e51b815260206004820152601860248201527f7265636569766572206164647265737320696e76616c69640000000000000000604482015290519081900360640190fd5b806106b1576040805162461bcd60e51b815260206004820152600e60248201526d185b5bdd5b9d081a5b9d985b1a5960921b604482015290519081900360640190fd5b826001600160a01b031663a9059cbb83836040518363ffffffff1660e01b815260040180836001600160a01b03166001600160a01b0316815260200182815260200192505050602060405180830381600087803b15801561071157600080fd5b505af1158015610725573d6000803e3d6000fd5b505050506040513d602081101561073b57600080fd5b5051610780576040805162461bcd60e51b815260206004820152600f60248201526e1d1c985b9cd9995c8819985a5b1959608a1b604482015290519081900360640190fd5b816001600160a01b0316836001600160a01b03167f1b89874203ff7f0bba87c969ada3f32fda22ed38a6706d35199d21280c7811b1836040518082815260200191505060405180910390a3505050565b6001600160a01b0381166108155760405162461bcd60e51b81526004018080602001828103825260268152602001806108716026913960400191505060405180910390fd5b600080546040516001600160a01b03808516939216917f8be0079c531659141344cd1fd0a4f28419497f9722a3daafe3b4186f6b6457e091a3600080546001600160a01b0319166001600160a01b039290921691909117905556fe4f776e61626c653a206e6577206f776e657220697320746865207a65726f2061646472657373a265627a7a72315820a412519e29d071331a1eddd6344e8fea16bc4b33f6924198e8d4aa6d6097d27a64736f6c63430005110032",
    "linkReferences": {}
  },
  "methodIdentifiers": {
    "addAdmin(address)": "70480275",
    "admins(address)": "429b62e5",
    "isOwner()": "8f32d59b",
    "owner()": "8da5cb5b",
    "removeAdmin(address)": "1785f53c",
    "transferOwnership(address)": "f2fde38b",
    "transferTokens(address,address,uint256)": "a64b6e5f",
    "transferTokensUsingList(address,address[],uint256[])": "fdc24b69"
  },
  "id": 78
}