{
  "abi": [
    {
      "constant": false,
      "inputs": [],
      "name": "incrementAndGetValue",
      "outputs": [
        {
          "internalType": "uint256",
          "name": "",
          "type": "uint256"
        }
      ],
      "payable": false,
      "stateMutability": "nonpayable",
      "type": "function"
    },
    {
      "constant": true,
      "inputs": [],
      "name": "value",
      "outputs": [
        {
          "internalType": "uint256",
          "name": "",
          "type": "uint256"
        }
      ],
      "payable": false,
      "stateMutability": "view",
      "type": "function"
    }
  ],
  "bytecode": {
    "object": "0x6080604052348015600f57600080fd5b50609e8061001e6000396000f3fe6080604052348015600f57600080fd5b506004361060325760003560e01c80633fa4f245146037578063ed04e1c314604f575b600080fd5b603d6055565b60408051918252519081900360200190f35b603d605b565b60005481565b60008054600101908190559056fea265627a7a723158206599c3ffb32f1d03bd3c286d6ff08c4728ae1d86662e3c1918be4369fea5f24d64736f6c63430005110032",
    "linkReferences": {}
  },
  "methodIdentifiers": {
    "incrementAndGetValue()": "ed04e1c3",
    "value()": "3fa4f245"
  },
  "id": 196
}