{
  "address": "0x6138a1c3c2a419075E50f2C8A8600366D4105f8d",
  "abi": [
    {
      "inputs": [
        {
          "internalType": "address",
          "name": "_safeAddress",
          "type": "address"
        },
        {
          "internalType": "address",
          "name": "_lockDrop",
          "type": "address"
        },
        {
          "internalType": "address",
          "name": "_sovToken",
          "type": "address"
        },
        {
          "internalType": "address",
          "name": "_depositor",
          "type": "address"
        }
      ],
      "stateMutability": "nonpayable",
      "type": "constructor"
    },
    {
      "anonymous": false,
      "inputs": [
        {
          "indexed": true,
          "internalType": "address",
          "name": "lockDrop",
          "type": "address"
        },
        {
          "indexed": false,
          "internalType": "uint256",
          "name": "amount",
          "type": "uint256"
        }
      ],
      "name": "DepositSOVToLockdrop",
      "type": "event"
    },
    {
      "anonymous": false,
      "inputs": [
        {
          "indexed": true,
          "internalType": "address",
          "name": "lockDrop",
          "type": "address"
        },
        {
          "indexed": true,
          "internalType": "address",
          "name": "token",
          "type": "address"
        },
        {
          "indexed": false,
          "internalType": "uint256",
          "name": "amount",
          "type": "uint256"
        }
      ],
      "name": "DepositToLockdrop",
      "type": "event"
    },
    {
      "anonymous": false,
      "inputs": [
        {
          "indexed": true,
          "internalType": "address",
          "name": "depositor",
          "type": "address"
        },
        {
          "indexed": true,
          "internalType": "address",
          "name": "receiver",
          "type": "address"
        }
      ],
      "name": "MapDepositorToReceiver",
      "type": "event"
    },
    {
      "anonymous": false,
      "inputs": [],
      "name": "Pause",
      "type": "event"
    },
    {
      "anonymous": false,
      "inputs": [
        {
          "indexed": true,
          "internalType": "address",
          "name": "oldDepositor",
          "type": "address"
        },
        {
          "indexed": true,
          "internalType": "address",
          "name": "newDepositor",
          "type": "address"
        }
      ],
      "name": "SetDepositorAddress",
      "type": "event"
    },
    {
      "anonymous": false,
      "inputs": [
        {
          "indexed": true,
          "internalType": "address",
          "name": "oldLockDrop",
          "type": "address"
        },
        {
          "indexed": true,
          "internalType": "address",
          "name": "newLockDrop",
          "type": "address"
        }
      ],
      "name": "SetLockDropAddress",
      "type": "event"
    },
    {
      "anonymous": false,
      "inputs": [],
      "name": "Stop",
      "type": "event"
    },
    {
      "anonymous": false,
      "inputs": [],
      "name": "Unpause",
      "type": "event"
    },
    {
      "anonymous": false,
      "inputs": [
        {
          "indexed": true,
          "internalType": "address",
          "name": "from",
          "type": "address"
        },
        {
          "indexed": true,
          "internalType": "address",
          "name": "token",
          "type": "address"
        },
        {
          "indexed": false,
          "internalType": "uint256",
          "name": "amount",
          "type": "uint256"
        }
      ],
      "name": "Withdraw",
      "type": "event"
    },
    {
      "anonymous": false,
      "inputs": [
        {
          "indexed": true,
          "internalType": "address",
          "name": "token",
          "type": "address"
        },
        {
          "indexed": false,
          "internalType": "uint256",
          "name": "balance",
          "type": "uint256"
        }
      ],
      "name": "WithdrawBalanceFromSafe",
      "type": "event"
    },
    {
      "inputs": [],
      "name": "ETH_TOKEN_ADDRESS",
      "outputs": [
        {
          "internalType": "address",
          "name": "",
          "type": "address"
        }
      ],
      "stateMutability": "view",
      "type": "function"
    },
    {
      "inputs": [
        {
          "internalType": "address",
          "name": "to",
          "type": "address"
        },
        {
          "internalType": "uint256",
          "name": "value",
          "type": "uint256"
        },
        {
          "internalType": "bytes",
          "name": "data",
          "type": "bytes"
        },
        {
          "internalType": "enum GnosisSafe.Operation",
          "name": "operation",
          "type": "uint8"
        }
      ],
      "name": "execTransactionFromSafe",
      "outputs": [
        {
          "internalType": "bool",
          "name": "success",
          "type": "bool"
        }
      ],
      "stateMutability": "nonpayable",
      "type": "function"
    },
    {
      "inputs": [],
      "name": "getDepositorAddress",
      "outputs": [
        {
          "internalType": "address",
          "name": "",
          "type": "address"
        }
      ],
      "stateMutability": "view",
      "type": "function"
    },
    {
      "inputs": [],
      "name": "getLockDropAddress",
      "outputs": [
        {
          "internalType": "address",
          "name": "",
          "type": "address"
        }
      ],
      "stateMutability": "view",
      "type": "function"
    },
    {
      "inputs": [],
      "name": "getSafeAddress",
      "outputs": [
        {
          "internalType": "address",
          "name": "",
          "type": "address"
        }
      ],
      "stateMutability": "view",
      "type": "function"
    },
    {
      "inputs": [],
      "name": "getSovTokenAddress",
      "outputs": [
        {
          "internalType": "address",
          "name": "",
          "type": "address"
        }
      ],
      "stateMutability": "view",
      "type": "function"
    },
    {
      "inputs": [],
      "name": "getStopBlock",
      "outputs": [
        {
          "internalType": "uint256",
          "name": "",
          "type": "uint256"
        }
      ],
      "stateMutability": "view",
      "type": "function"
    },
    {
      "inputs": [],
      "name": "isPaused",
      "outputs": [
        {
          "internalType": "bool",
          "name": "",
          "type": "bool"
        }
      ],
      "stateMutability": "view",
      "type": "function"
    },
    {
      "inputs": [],
      "name": "isStopped",
      "outputs": [
        {
          "internalType": "bool",
          "name": "",
          "type": "bool"
        }
      ],
      "stateMutability": "view",
      "type": "function"
    },
    {
      "inputs": [
        {
          "internalType": "address",
          "name": "receiver",
          "type": "address"
        }
      ],
      "name": "mapDepositorToReceiver",
      "outputs": [],
      "stateMutability": "nonpayable",
      "type": "function"
    },
    {
      "inputs": [],
      "name": "pause",
      "outputs": [],
      "stateMutability": "nonpayable",
      "type": "function"
    },
    {
      "inputs": [
        {
          "internalType": "address[]",
          "name": "tokens",
          "type": "address[]"
        },
        {
          "internalType": "uint256[]",
          "name": "amounts",
          "type": "uint256[]"
        },
        {
          "internalType": "uint256",
          "name": "sovAmount",
          "type": "uint256"
        }
      ],
      "name": "sendToLockDropContract",
      "outputs": [],
      "stateMutability": "nonpayable",
      "type": "function"
    },
    {
      "inputs": [
        {
          "internalType": "address",
          "name": "_newDepositor",
          "type": "address"
        }
      ],
      "name": "setDepositorAddress",
      "outputs": [],
      "stateMutability": "nonpayable",
      "type": "function"
    },
    {
      "inputs": [
        {
          "internalType": "address",
          "name": "_newLockdrop",
          "type": "address"
        }
      ],
      "name": "setLockDropAddress",
      "outputs": [],
      "stateMutability": "nonpayable",
      "type": "function"
    },
    {
      "inputs": [],
      "name": "stop",
      "outputs": [],
      "stateMutability": "nonpayable",
      "type": "function"
    },
    {
      "inputs": [],
      "name": "unpause",
      "outputs": [],
      "stateMutability": "nonpayable",
      "type": "function"
    },
    {
      "inputs": [
        {
          "internalType": "address[]",
          "name": "tokens",
          "type": "address[]"
        },
        {
          "internalType": "uint256[]",
          "name": "amounts",
          "type": "uint256[]"
        },
        {
          "internalType": "address",
          "name": "recipient",
          "type": "address"
        }
      ],
      "name": "withdraw",
      "outputs": [],
      "stateMutability": "nonpayable",
      "type": "function"
    },
    {
      "inputs": [
        {
          "internalType": "address[]",
          "name": "tokens",
          "type": "address[]"
        },
        {
          "internalType": "address",
          "name": "recipient",
          "type": "address"
        }
      ],
      "name": "withdrawAll",
      "outputs": [],
      "stateMutability": "nonpayable",
      "type": "function"
    },
    {
      "stateMutability": "payable",
      "type": "receive"
    }
  ],
  "transactionHash": "0x3d05387b947975b0b2fb26dbf2a8543fc5dea9a9d8659f748fc51508a090f4a8",
  "args": [
    "0x064A379c959dB1Ed1318114E2363a6c8d103ADd3",
    "0x007b3aa69a846cb1f76b60b3088230a52d2a83ac",
    "0x3E610F32806e09C2Ba65b8c88A6E4f777c8Cb559",
    "0x86de732721fffcdf163629c64e3925b5bf7f371a"
  ],
  "numDeployments": 4,
  "solcInputHash": "b6ccc7dc4fb34511b9d8d031557b3d58",
  "bytecode": "0x60c06040523480156200001157600080fd5b5060405162002c2238038062002c22833981016040819052620000349162000254565b6001600160a01b038416620000a15760405162461bcd60e51b815260206004820152602860248201527f536166654465706f7369747353656e6465723a20496e76616c69642073616665604482015267206164647265737360c01b60648201526084015b60405180910390fd5b6001600160a01b0383166200010e5760405162461bcd60e51b815260206004820152602c60248201527f536166654465706f7369747353656e6465723a20496e76616c6964206c6f636b60448201526b64726f70206164647265737360a01b606482015260840162000098565b6001600160a01b0382166200017c5760405162461bcd60e51b815260206004820152602d60248201527f536166654465706f7369747353656e6465723a20496e76616c696420736f762060448201526c746f6b656e206164647265737360981b606482015260840162000098565b6001600160a01b038116620001fa5760405162461bcd60e51b815260206004820152603360248201527f536166654465706f7369747353656e6465723a20496e76616c6964206465706f60448201527f7369746f7220746f6b656e206164647265737300000000000000000000000000606482015260840162000098565b6001600160a01b0393841660805290831660a052600080549184166001600160a01b031992831617905560018054929093169116179055620002b1565b80516001600160a01b03811681146200024f57600080fd5b919050565b600080600080608085870312156200026b57600080fd5b620002768562000237565b9350620002866020860162000237565b9250620002966040860162000237565b9150620002a66060860162000237565b905092959194509250565b60805160a0516128aa620003786000396000818161022701528181610f2a01528181611c330152611cce015260008181610305015281816103720152818161042b0152818161086f01528181610b2001528181610bef01528181610c9201528181610d790152818161104a0152818161111801528181611221015281816112aa01528181611448015281816115ba01528181611779015281816118700152818161197501528181611c0601528181611d4301528181611e340152611f0001526128aa6000f3fe60806040526004361061010d5760003560e01c80635d9dac1011610095578063b187bd2611610064578063b187bd26146102be578063b6e7377d146102d6578063d17b8f98146102f6578063d7c3e7b314610329578063f5f52e2e1461034957600080fd5b80635d9dac101461024b578063813ddbf41461026b5780638456cb5914610289578063af0776521461029e57600080fd5b8063397a079b116100dc578063397a079b146101a25780633f4ba83a146101c25780633f683b6a146101d75780634768b497146101fa5780634bcfe7261461021857600080fd5b806307da68f5146101195780631878d1f1146101305780631d1372e41461016257806326f915061461018257600080fd5b3661011457005b600080fd5b34801561012557600080fd5b5061012e610367565b005b34801561013c57600080fd5b50610145600181565b6040516001600160a01b0390911681526020015b60405180910390f35b34801561016e57600080fd5b5061012e61017d366004612272565b6103e7565b34801561018e57600080fd5b5061012e61019d3660046122e0565b610420565b3480156101ae57600080fd5b5061012e6101bd366004612361565b610864565b3480156101ce57600080fd5b5061012e610b15565b3480156101e357600080fd5b5060025415155b6040519015158152602001610159565b34801561020657600080fd5b506000546001600160a01b0316610145565b34801561022457600080fd5b507f0000000000000000000000000000000000000000000000000000000000000000610145565b34801561025757600080fd5b5061012e610266366004612272565b610be4565b34801561027757600080fd5b506001546001600160a01b0316610145565b34801561029557600080fd5b5061012e610c87565b3480156102aa57600080fd5b5061012e6102b93660046123b5565b610d5a565b3480156102ca57600080fd5b5060035460ff166101ea565b3480156102e257600080fd5b5061012e6102f1366004612272565b611e29565b34801561030257600080fd5b507f0000000000000000000000000000000000000000000000000000000000000000610145565b34801561033557600080fd5b506101ea61034436600461244e565b611ef3565b34801561035557600080fd5b50600254604051908152602001610159565b336001600160a01b037f000000000000000000000000000000000000000000000000000000000000000016146103b85760405162461bcd60e51b81526004016103af9061252a565b60405180910390fd5b436002556040517fbedf0f4abfe86d4ffad593d9607fe70e83ea706033d44d24b3b6283cf3fc4f6b90600090a1565b6040516001600160a01b0382169033907f256f07b5eef8212c06c8cbb78abeb76d2b66770a68e81686fd14c3a0454551e190600090a350565b336001600160a01b037f000000000000000000000000000000000000000000000000000000000000000016146104685760405162461bcd60e51b81526004016103af9061252a565b806001600160a01b03811661048f5760405162461bcd60e51b81526004016103af90612561565b8483146104ae5760405162461bcd60e51b81526004016103af906125a4565b60005b8581101561085b5760008787838181106104cd576104cd6125fa565b90506020020160208101906104e29190612272565b6001600160a01b0316036105085760405162461bcd60e51b81526004016103af90612610565b84848281811061051a5761051a6125fa565b905060200201356000036105845760405162461bcd60e51b815260206004820152602b60248201527f536166654465706f7369747353656e6465723a205a65726f20616d6f756e742060448201526a1b9bdd08185b1b1bddd95960aa1b60648201526084016103af565b6001878783818110610598576105986125fa565b90506020020160208101906105ad9190612272565b6001600160a01b0316036106b4578484828181106105cd576105cd6125fa565b905060200201354710156105f35760405162461bcd60e51b81526004016103af9061265c565b6000836001600160a01b0316868684818110610611576106116125fa565b9050602002013560405160006040518083038185875af1925050503d8060008114610658576040519150601f19603f3d011682016040523d82523d6000602084013e61065d565b606091505b50509050806106ae5760405162461bcd60e51b815260206004820152601860248201527f436f756c64206e6f74207769746864726177206574686572000000000000000060448201526064016103af565b50610849565b60008787838181106106c8576106c86125fa565b90506020020160208101906106dd9190612272565b6040516370a0823160e01b81523060048201529091506000906001600160a01b038316906370a0823190602401602060405180830381865afa158015610727573d6000803e3d6000fd5b505050506040513d601f19601f8201168201806040525081019061074b91906126a0565b905086868481811061075f5761075f6125fa565b905060200201358110156107855760405162461bcd60e51b81526004016103af9061265c565b6107bb8588888681811061079b5761079b6125fa565b90506020020135846001600160a01b0316611f559092919063ffffffff16565b8888848181106107cd576107cd6125fa565b90506020020160208101906107e29190612272565b6001600160a01b0316856001600160a01b03167f9b1bfa7fa9ee420a16e124f794c35ac9f90472acc99140eb2f6447c714cad8eb898987818110610828576108286125fa565b9050602002013560405161083e91815260200190565b60405180910390a350505b80610853816126b9565b9150506104b1565b50505050505050565b336001600160a01b037f000000000000000000000000000000000000000000000000000000000000000016146108ac5760405162461bcd60e51b81526004016103af9061252a565b806001600160a01b0381166108d35760405162461bcd60e51b81526004016103af90612561565b60005b83811015610b0e5760018585838181106108f2576108f26125fa565b90506020020160208101906109079190612272565b6001600160a01b0316036109d3576000836001600160a01b03164760405160006040518083038185875af1925050503d8060008114610962576040519150601f19603f3d011682016040523d82523d6000602084013e610967565b606091505b50509050806109cd5760405162461bcd60e51b815260206004820152602c60248201527f536166654465706f7369747353656e6465723a20436f756c64206e6f7420776960448201526b3a34323930bb9032ba3432b960a11b60648201526084016103af565b50610afc565b60008585838181106109e7576109e76125fa565b90506020020160208101906109fc9190612272565b6040516370a0823160e01b81523060048201529091506000906001600160a01b038316906370a0823190602401602060405180830381865afa158015610a46573d6000803e3d6000fd5b505050506040513d601f19601f82011682018060405250810190610a6a91906126a0565b90508015610a8657610a866001600160a01b0383168683611f55565b868684818110610a9857610a986125fa565b9050602002016020810190610aad9190612272565b6001600160a01b0316856001600160a01b03167f9b1bfa7fa9ee420a16e124f794c35ac9f90472acc99140eb2f6447c714cad8eb83604051610af191815260200190565b60405180910390a350505b80610b06816126b9565b9150506108d6565b5050505050565b336001600160a01b037f00000000000000000000000000000000000000000000000000000000000000001614610b5d5760405162461bcd60e51b81526004016103af9061252a565b60035460ff16610baf5760405162461bcd60e51b815260206004820152601e60248201527f536166654465706f7369747353656e6465723a204e6f7420706175736564000060448201526064016103af565b6003805460ff191690556040517f7805862f689e2f13df9f062ff482ad3ad112aca9e0847911ed832e158c525b3390600090a1565b336001600160a01b037f00000000000000000000000000000000000000000000000000000000000000001614610c2c5760405162461bcd60e51b81526004016103af9061252a565b600080546040516001600160a01b03808516939216917fad63b85612b3c457488f5a3a8fe770cdb830f4a4c74ed076937f49c50ca6a82091a3600080546001600160a01b0319166001600160a01b0392909216919091179055565b336001600160a01b037f00000000000000000000000000000000000000000000000000000000000000001614610ccf5760405162461bcd60e51b81526004016103af9061252a565b60035460ff1615610d225760405162461bcd60e51b815260206004820152601a60248201527f536166654465706f7369747353656e6465723a2050617573656400000000000060448201526064016103af565b6003805460ff191660011790556040517f6985a02210a168e66602d3235cb6db0e70f92b3ba4d376a33c0f3d9434bff62590600090a1565b6000546001600160a01b0316331480610d9b5750336001600160a01b037f000000000000000000000000000000000000000000000000000000000000000016145b610dfa5760405162461bcd60e51b815260206004820152602a60248201527f536166654465706f7369747353656e6465723a204f6e6c79204465706f7369746044820152696f72206f72205361666560b01b60648201526084016103af565b60035460ff1615610e4d5760405162461bcd60e51b815260206004820152601a60248201527f536166654465706f7369747353656e6465723a2050617573656400000000000060448201526064016103af565b60025415610e9d5760405162461bcd60e51b815260206004820152601b60248201527f536166654465706f7369747353656e6465723a2053746f70706564000000000060448201526064016103af565b838214610ebc5760405162461bcd60e51b81526004016103af906125a4565b60008111610f1b5760405162461bcd60e51b815260206004820152602660248201527f536166654465706f7369747353656e6465723a20496e76616c696420534f5620604482015265185b5bdd5b9d60d21b60648201526084016103af565b606060005b85811015611ba3577f00000000000000000000000000000000000000000000000000000000000000006001600160a01b0316878783818110610f6457610f646125fa565b9050602002016020810190610f799190612272565b6001600160a01b031603610ff55760405162461bcd60e51b815260206004820152603760248201527f536166654465706f7369747353656e6465723a20534f5620746f6b656e20697360448201527f207472616e736665727265642073657061726174656c7900000000000000000060648201526084016103af565b600080600189898581811061100c5761100c6125fa565b90506020020160208101906110219190612272565b6001600160a01b03160361140857868684818110611041576110416125fa565b905060200201357f00000000000000000000000000000000000000000000000000000000000000006001600160a01b03163110156110df5760405162461bcd60e51b815260206004820152603560248201527f536166654465706f7369747353656e6465723a204e6f7420656e6f75676820656044820152741d1a0818985b185b98d9481d1bc819195c1bdcda5d605a1b60648201526084016103af565b6040805160048152602481019091526020810180516001600160e01b031663439370b160e01b1790526001549094506001600160a01b037f000000000000000000000000000000000000000000000000000000000000000081169163468721a79116898987818110611153576111536125fa565b905060200201358760006040518563ffffffff1660e01b815260040161117c9493929190612768565b6020604051808303816000875af115801561119b573d6000803e3d6000fd5b505050506040513d601f19601f820116820180604052508101906111bf919061279e565b61121f5760405162461bcd60e51b815260206004820152602b60248201527f536166654465706f7369747353656e6465723a20436f756c64206e6f7420646560448201526a3837b9b4ba1032ba3432b960a91b60648201526084016103af565b7f00000000000000000000000000000000000000000000000000000000000000006001600160a01b031631915086868481811061125e5761125e6125fa565b9050602002013582106112895786868481811061127d5761127d6125fa565b9050602002013561128b565b815b905080156114035760405163468721a760e01b81526001600160a01b037f0000000000000000000000000000000000000000000000000000000000000000169063468721a7906112e490309085906000906004016127c0565b6020604051808303816000875af1158015611303573d6000803e3d6000fd5b505050506040513d601f19601f82011682018060405250810190611327919061279e565b6113995760405162461bcd60e51b815260206004820152603a60248201527f536166654465706f7369747353656e6465723a20436f756c64206e6f7420776960448201527f746864726177206574686572206166746572206465706f73697400000000000060648201526084016103af565b8888848181106113ab576113ab6125fa565b90506020020160208101906113c09190612272565b6001600160a01b03167f2217f1638c9922c1b7608f3e57b1f418e86204e8dd975c4ca5bd4fbcb270b692826040516113fa91815260200190565b60405180910390a25b611b06565b600089898581811061141c5761141c6125fa565b90506020020160208101906114319190612272565b6040516370a0823160e01b81526001600160a01b037f000000000000000000000000000000000000000000000000000000000000000081166004830152919250908216906370a0823190602401602060405180830381865afa15801561149b573d6000803e3d6000fd5b505050506040513d601f19601f820116820180604052508101906114bf91906126a0565b92508787858181106114d3576114d36125fa565b905060200201358310156115425760405162461bcd60e51b815260206004820152603060248201527f536166654465706f7369747353656e6465723a204e6f7420656e6f756768207460448201526f1bdad95b9cc81d1bc819195c1bdcda5d60821b60648201526084016103af565b6001546001600160a01b0316888886818110611560576115606125fa565b6040516001600160a01b039094166024850152602002919091013560448301525060640160408051601f198184030181529190526020810180516001600160e01b031663095ea7b360e01b17905294506001600160a01b037f00000000000000000000000000000000000000000000000000000000000000001663468721a78b8b878181106115f1576115f16125fa565b90506020020160208101906116069190612272565b60008860006040518563ffffffff1660e01b815260040161162a9493929190612768565b6020604051808303816000875af1158015611649573d6000803e3d6000fd5b505050506040513d601f19601f8201168201806040525081019061166d919061279e565b6116d65760405162461bcd60e51b815260206004820152603460248201527f536166654465706f7369747353656e6465723a20436f756c64206e6f74206170604482015273383937bb32903a37b5b2b7103a3930b739b332b960611b60648201526084016103af565b8989858181106116e8576116e86125fa565b90506020020160208101906116fd9190612272565b88888681811061170f5761170f6125fa565b6040516001600160a01b039094166024850152602002919091013560448301525060640160408051601f198184030181529181526020820180516001600160e01b0316634bff5c9360e11b179052600154905163468721a760e01b81529196506001600160a01b037f000000000000000000000000000000000000000000000000000000000000000081169263468721a7926117b69216906000908a908290600401612768565b6020604051808303816000875af11580156117d5573d6000803e3d6000fd5b505050506040513d601f19601f820116820180604052508101906117f9919061279e565b6118595760405162461bcd60e51b815260206004820152602b60248201527f536166654465706f7369747353656e6465723a20436f756c64206e6f7420646560448201526a3837b9b4ba103a37b5b2b760a91b60648201526084016103af565b6040516370a0823160e01b81526001600160a01b037f0000000000000000000000000000000000000000000000000000000000000000811660048301528216906370a0823190602401602060405180830381865afa1580156118bf573d6000803e3d6000fd5b505050506040513d601f19601f820116820180604052508101906118e391906126a0565b92508787858181106118f7576118f76125fa565b90506020020135831061192257878785818110611916576119166125fa565b90506020020135611924565b825b91508115611b04576040513060248201526044810183905260640160408051601f198184030181529190526020810180516001600160e01b031663a9059cbb60e01b17905294506001600160a01b037f00000000000000000000000000000000000000000000000000000000000000001663468721a78b8b878181106119ac576119ac6125fa565b90506020020160208101906119c19190612272565b60008860006040518563ffffffff1660e01b81526004016119e59493929190612768565b6020604051808303816000875af1158015611a04573d6000803e3d6000fd5b505050506040513d601f19601f82011682018060405250810190611a28919061279e565b611a9a5760405162461bcd60e51b815260206004820152603a60248201527f536166654465706f7369747353656e6465723a20436f756c64206e6f7420776960448201527f74686472617720746f6b656e206166746572206465706f73697400000000000060648201526084016103af565b898985818110611aac57611aac6125fa565b9050602002016020810190611ac19190612272565b6001600160a01b03167f2217f1638c9922c1b7608f3e57b1f418e86204e8dd975c4ca5bd4fbcb270b69283604051611afb91815260200190565b60405180910390a25b505b888884818110611b1857611b186125fa565b9050602002016020810190611b2d9190612272565b6001546001600160a01b0391821691167f83e351ace74af42916cc159bb2c353842d1fe21125f26f3ab645aeac206b663c898987818110611b7057611b706125fa565b90506020020135604051611b8691815260200190565b60405180910390a350508080611b9b906126b9565b915050610f20565b506001546040516001600160a01b0390911660248201526044810183905260640160408051601f198184030181529181526020820180516001600160e01b031663095ea7b360e01b1790525163468721a760e01b81529091506001600160a01b037f0000000000000000000000000000000000000000000000000000000000000000169063468721a790611c62907f00000000000000000000000000000000000000000000000000000000000000009060009086908290600401612768565b6020604051808303816000875af1158015611c81573d6000803e3d6000fd5b505050506040513d601f19601f82011682018060405250810190611ca5919061279e565b611cc15760405162461bcd60e51b81526004016103af906127f3565b6040516001600160a01b037f00000000000000000000000000000000000000000000000000000000000000001660248201526044810183905260640160408051601f198184030181529181526020820180516001600160e01b0316634bff5c9360e11b179052600154905163468721a760e01b81529192506001600160a01b037f000000000000000000000000000000000000000000000000000000000000000081169263468721a792611d8092169060009086908290600401612768565b6020604051808303816000875af1158015611d9f573d6000803e3d6000fd5b505050506040513d601f19601f82011682018060405250810190611dc3919061279e565b611ddf5760405162461bcd60e51b81526004016103af906127f3565b6001546040518381526001600160a01b03909116907fece2604abb1c0d8f143c1c8961c88ecda8a2c7b650545e98255665063e7321859060200160405180910390a2505050505050565b336001600160a01b037f00000000000000000000000000000000000000000000000000000000000000001614611e715760405162461bcd60e51b81526004016103af9061252a565b6001600160a01b038116611e975760405162461bcd60e51b81526004016103af90612610565b6001546040516001600160a01b038084169216907f571b0cfddc37eea7ea50ec6529f701f4c53e523eb459eb1238fb38a16fee9d4490600090a3600180546001600160a01b0319166001600160a01b0392909216919091179055565b6000336001600160a01b037f00000000000000000000000000000000000000000000000000000000000000001614611f3d5760405162461bcd60e51b81526004016103af9061252a565b611f4c85858585600019611fac565b95945050505050565b604080516001600160a01b038416602482015260448082018490528251808303909101815260649091019091526020810180516001600160e01b031663a9059cbb60e01b179052611fa7908490611ff1565b505050565b60006001836001811115611fc257611fc2612730565b03611fda576000808551602087018986f49050611f4c565b600080855160208701888a87f19695505050505050565b6000612046826040518060400160405280602081526020017f5361666545524332303a206c6f772d6c6576656c2063616c6c206661696c6564815250856001600160a01b03166120c69092919063ffffffff16565b9050805160001480612067575080806020019051810190612067919061279e565b611fa75760405162461bcd60e51b815260206004820152602a60248201527f5361666545524332303a204552433230206f7065726174696f6e20646964206e6044820152691bdd081cdd58d8d9595960b21b60648201526084016103af565b60606120d584846000856120dd565b949350505050565b60608247101561213e5760405162461bcd60e51b815260206004820152602660248201527f416464726573733a20696e73756666696369656e742062616c616e636520666f6044820152651c8818d85b1b60d21b60648201526084016103af565b600080866001600160a01b0316858760405161215a9190612845565b60006040518083038185875af1925050503d8060008114612197576040519150601f19603f3d011682016040523d82523d6000602084013e61219c565b606091505b50915091506121ad878383876121b8565b979650505050505050565b60608315612227578251600003612220576001600160a01b0385163b6122205760405162461bcd60e51b815260206004820152601d60248201527f416464726573733a2063616c6c20746f206e6f6e2d636f6e747261637400000060448201526064016103af565b50816120d5565b6120d5838381511561223c5781518083602001fd5b8060405162461bcd60e51b81526004016103af9190612861565b80356001600160a01b038116811461226d57600080fd5b919050565b60006020828403121561228457600080fd5b61228d82612256565b9392505050565b60008083601f8401126122a657600080fd5b50813567ffffffffffffffff8111156122be57600080fd5b6020830191508360208260051b85010111156122d957600080fd5b9250929050565b6000806000806000606086880312156122f857600080fd5b853567ffffffffffffffff8082111561231057600080fd5b61231c89838a01612294565b9097509550602088013591508082111561233557600080fd5b5061234288828901612294565b9094509250612355905060408701612256565b90509295509295909350565b60008060006040848603121561237657600080fd5b833567ffffffffffffffff81111561238d57600080fd5b61239986828701612294565b90945092506123ac905060208501612256565b90509250925092565b6000806000806000606086880312156123cd57600080fd5b853567ffffffffffffffff808211156123e557600080fd5b6123f189838a01612294565b9097509550602088013591508082111561240a57600080fd5b5061241788828901612294565b96999598509660400135949350505050565b634e487b7160e01b600052604160045260246000fd5b80356002811061226d57600080fd5b6000806000806080858703121561246457600080fd5b61246d85612256565b935060208501359250604085013567ffffffffffffffff8082111561249157600080fd5b818701915087601f8301126124a557600080fd5b8135818111156124b7576124b7612429565b604051601f8201601f19908116603f011681019083821181831017156124df576124df612429565b816040528281528a60208487010111156124f857600080fd5b82602086016020830137600060208483010152809650505050505061251f6060860161243f565b905092959194509250565b6020808252601d908201527f536166654465706f7369747353656e6465723a204f6e6c792053616665000000604082015260600190565b60208082526023908201527f536166654465706f7369747353656e6465723a20496e76616c6964206164647260408201526265737360e81b606082015260800190565b60208082526036908201527f536166654465706f7369747353656e6465723a20546f6b656e7320616e6420616040820152750dadeeadce8e640d8cadccee8d040dad2e6dac2e8c6d60531b606082015260800190565b634e487b7160e01b600052603260045260246000fd5b6020808252602c908201527f536166654465706f7369747353656e6465723a205a65726f206164647265737360408201526b081b9bdd08185b1b1bddd95960a21b606082015260800190565b60208082526024908201527f536166654465706f7369747353656e6465723a204e6f7420656e6f7567682066604082015263756e647360e01b606082015260800190565b6000602082840312156126b257600080fd5b5051919050565b6000600182016126d957634e487b7160e01b600052601160045260246000fd5b5060010190565b60005b838110156126fb5781810151838201526020016126e3565b50506000910152565b6000815180845261271c8160208601602086016126e0565b601f01601f19169290920160200192915050565b634e487b7160e01b600052602160045260246000fd5b6002811061276457634e487b7160e01b600052602160045260246000fd5b9052565b60018060a01b038516815283602082015260806040820152600061278f6080830185612704565b9050611f4c6060830184612746565b6000602082840312156127b057600080fd5b8151801515811461228d57600080fd5b6001600160a01b03841681526020810183905260806040820181905260009082015260a081016120d56060830184612746565b60208082526032908201527f536166654465706f7369747353656e6465723a20436f756c64206e6f7420657860408201527132b1baba329029a7ab103a3930b739b332b960711b606082015260800190565b600082516128578184602087016126e0565b9190910192915050565b60208152600061228d602083018461270456fea264697066735822122079436df57107ad03a8a62cb0ffaabfeebb3ab9643ced815126b2474370014c4c64736f6c63430008110033",
  "devdoc": {
    "kind": "dev",
    "methods": {
      "constructor": {
        "params": {
          "_depositor": "Address of the depositor account",
          "_lockDrop": "Address of the BOB FusionLock contract",
          "_safeAddress": "Address of the Gnosis Safe",
          "_sovToken": "Address of the SOV token contract"
        }
      },
      "execTransactionFromSafe(address,uint256,bytes,uint8)": {
        "params": {
          "data": "Data payload of module transaction.",
          "operation": "Operation type of module transaction.",
          "to": "Destination address of module transaction.",
          "value": "Ether value of module transaction."
        },
        "returns": {
          "success": "Boolean flag indicating if the call succeeded."
        }
      },
      "mapDepositorToReceiver(address)": {
        "params": {
          "receiver": "Receiver address on BOB. The depositor address will be replaced with the receiver address for distribution of LP tokens and rewards on BOB"
        }
      },
      "sendToLockDropContract(address[],uint256[],uint256)": {
        "details": "This function is for sending tokens to the LockDrop contract for users to receive rewards and to be bridged to the BOB mainnet for Sovryn DEXThe function is allowed to be called only by the lockdropDepositorAddressToken amounts and SOV amount to send are calculated offchain",
        "params": {
          "amounts": "List of amounts of tokens to send",
          "sovAmount": "Amount of SOV tokens to send",
          "tokens": "List of tokens to send"
        }
      },
      "setDepositorAddress(address)": {
        "details": "Only Safe can call this functionNew depositor can be zero address",
        "params": {
          "_newDepositor": "New depositor address"
        }
      },
      "setLockDropAddress(address)": {
        "details": "Only Safe can call this functionNew LockDrop can't be zero address",
        "params": {
          "_newLockdrop": "New depositor address"
        }
      },
      "withdraw(address[],uint256[],address)": {
        "details": "Only Safe can call this functionRecipient should not be a zero address",
        "params": {
          "amounts": "List of token amounts to withdraw",
          "recipient": "Recipient address",
          "tokens": "List of token addresses to withdraw"
        }
      },
      "withdrawAll(address[],address)": {
        "details": "Only Safe can call this functionRecipient should not be a zero address",
        "params": {
          "recipient": "Recipient address",
          "tokens": "List of token addresses to withdraw"
        }
      }
    },
    "title": "SafeDepositsSender",
    "version": 1
  },
  "userdoc": {
    "kind": "user",
    "methods": {
      "execTransactionFromSafe(address,uint256,bytes,uint8)": {
        "notice": "Execute `operation` (0: Call, 1: DelegateCall) to `to` with `value` (Native Token) from Safe"
      },
      "mapDepositorToReceiver(address)": {
        "notice": "Maps depositor on ethereum to receiver on BOBReceiver from the last emitted event called by msg.sender will be used"
      },
      "pause()": {
        "notice": "pause the contract - no funds can be sent to the LockDrop contract"
      },
      "sendToLockDropContract(address[],uint256[],uint256)": {
        "notice": "Sends tokens to the LockDrop contract"
      },
      "setDepositorAddress(address)": {
        "notice": "Sets new depositor address"
      },
      "setLockDropAddress(address)": {
        "notice": "Sets new LockDrop address"
      },
      "stop()": {
        "notice": "stops the contract - no funds can be sent to the LockDrop contract, this is irreversible"
      },
      "unpause()": {
        "notice": "unpause the contract"
      },
      "withdraw(address[],uint256[],address)": {
        "notice": "Withdraws tokens from this contract to a recipient addressWithdrawal to the Safe address will affect balances and rewardsAmount > 0 should be checked by the caller before calling this function"
      },
      "withdrawAll(address[],address)": {
        "notice": "Withdraws all tokens from this contract to a recipientAmount > 0 should be checked by the caller before calling this functionWithdrawal to the Safe address will affect balances and rewards"
      }
    },
    "notice": "This contract is a gateway for depositing funds into the Bob locker contracts",
    "version": 1
  },
  "storageLayout": {
    "storage": [
      {
        "astId": 865,
        "contract": "contracts/integrations/bob/SafeDepositsSender.sol:SafeDepositsSender",
        "label": "lockdropDepositorAddress",
        "offset": 0,
        "slot": "0",
        "type": "t_address"
      },
      {
        "astId": 867,
        "contract": "contracts/integrations/bob/SafeDepositsSender.sol:SafeDepositsSender",
        "label": "lockDropAddress",
        "offset": 0,
        "slot": "1",
        "type": "t_address"
      },
      {
        "astId": 869,
        "contract": "contracts/integrations/bob/SafeDepositsSender.sol:SafeDepositsSender",
        "label": "stopBlock",
        "offset": 0,
        "slot": "2",
        "type": "t_uint256"
      },
      {
        "astId": 871,
        "contract": "contracts/integrations/bob/SafeDepositsSender.sol:SafeDepositsSender",
        "label": "paused",
        "offset": 0,
        "slot": "3",
        "type": "t_bool"
      }
    ],
    "types": {
      "t_address": {
        "encoding": "inplace",
        "label": "address",
        "numberOfBytes": "20"
      },
      "t_bool": {
        "encoding": "inplace",
        "label": "bool",
        "numberOfBytes": "1"
      },
      "t_uint256": {
        "encoding": "inplace",
        "label": "uint256",
        "numberOfBytes": "32"
      }
    }
  }
}