{
  "abi": [
    {
      "anonymous": false,
      "inputs": [
        {
          "indexed": true,
          "internalType": "address",
          "name": "moduleAddress",
          "type": "address"
        }
      ],
      "name": "AddModule",
      "type": "event"
    },
    {
      "anonymous": false,
      "inputs": [
        {
          "indexed": true,
          "internalType": "address",
          "name": "previousOwner",
          "type": "address"
        },
        {
          "indexed": true,
          "internalType": "address",
          "name": "newOwner",
          "type": "address"
        }
      ],
      "name": "ProxyOwnershipTransferred",
      "type": "event"
    },
    {
      "anonymous": false,
      "inputs": [
        {
          "indexed": true,
          "internalType": "address",
          "name": "moduleAddress",
          "type": "address"
        }
      ],
      "name": "RemoveModule",
      "type": "event"
    },
    {
      "anonymous": false,
      "inputs": [
        {
          "indexed": true,
          "internalType": "address",
          "name": "oldAddress",
          "type": "address"
        },
        {
          "indexed": true,
          "internalType": "address",
          "name": "newAddress",
          "type": "address"
        }
      ],
      "name": "ReplaceModule",
      "type": "event"
    },
    {
      "anonymous": false,
      "inputs": [
        {
          "indexed": true,
          "internalType": "bytes4",
          "name": "_funcSig",
          "type": "bytes4"
        },
        {
          "indexed": true,
          "internalType": "address",
          "name": "_oldImplementation",
          "type": "address"
        },
        {
          "indexed": true,
          "internalType": "address",
          "name": "_newImplementation",
          "type": "address"
        }
      ],
      "name": "SetModuleFuncImplementation",
      "type": "event"
    },
    {
      "payable": true,
      "stateMutability": "payable",
      "type": "fallback"
    },
    {
      "constant": false,
      "inputs": [
        {
          "internalType": "address",
          "name": "_impl",
          "type": "address"
        }
      ],
      "name": "addModule",
      "outputs": [],
      "payable": false,
      "stateMutability": "nonpayable",
      "type": "function"
    },
    {
      "constant": false,
      "inputs": [
        {
          "internalType": "address[]",
          "name": "_implementations",
          "type": "address[]"
        }
      ],
      "name": "addModules",
      "outputs": [],
      "payable": false,
      "stateMutability": "nonpayable",
      "type": "function"
    },
    {
      "constant": true,
      "inputs": [
        {
          "internalType": "address",
          "name": "_impl",
          "type": "address"
        }
      ],
      "name": "canAddModule",
      "outputs": [
        {
          "internalType": "bool",
          "name": "",
          "type": "bool"
        }
      ],
      "payable": false,
      "stateMutability": "view",
      "type": "function"
    },
    {
      "constant": true,
      "inputs": [
        {
          "internalType": "address[]",
          "name": "_implementations",
          "type": "address[]"
        }
      ],
      "name": "canNotAddModules",
      "outputs": [
        {
          "internalType": "address[]",
          "name": "",
          "type": "address[]"
        }
      ],
      "payable": false,
      "stateMutability": "view",
      "type": "function"
    },
    {
      "constant": true,
      "inputs": [
        {
          "internalType": "address",
          "name": "_newModule",
          "type": "address"
        }
      ],
      "name": "checkClashingFuncSelectors",
      "outputs": [
        {
          "internalType": "address[]",
          "name": "clashingModules",
          "type": "address[]"
        },
        {
          "internalType": "bytes4[]",
          "name": "clashingModulesFuncSelectors",
          "type": "bytes4[]"
        },
        {
          "internalType": "bytes4[]",
          "name": "clashingProxyRegistryFuncSelectors",
          "type": "bytes4[]"
        }
      ],
      "payable": false,
      "stateMutability": "view",
      "type": "function"
    },
    {
      "constant": true,
      "inputs": [
        {
          "internalType": "bytes4",
          "name": "_sig",
          "type": "bytes4"
        }
      ],
      "name": "getFuncImplementation",
      "outputs": [
        {
          "internalType": "address",
          "name": "",
          "type": "address"
        }
      ],
      "payable": false,
      "stateMutability": "view",
      "type": "function"
    },
    {
      "constant": true,
      "inputs": [],
      "name": "getProxyOwner",
      "outputs": [
        {
          "internalType": "address",
          "name": "_owner",
          "type": "address"
        }
      ],
      "payable": false,
      "stateMutability": "view",
      "type": "function"
    },
    {
      "constant": true,
      "inputs": [
        {
          "internalType": "address",
          "name": "_impl",
          "type": "address"
        }
      ],
      "name": "isModuleRegistered",
      "outputs": [
        {
          "internalType": "bool",
          "name": "",
          "type": "bool"
        }
      ],
      "payable": false,
      "stateMutability": "view",
      "type": "function"
    },
    {
      "constant": false,
      "inputs": [
        {
          "internalType": "address",
          "name": "_impl",
          "type": "address"
        }
      ],
      "name": "removeModule",
      "outputs": [],
      "payable": false,
      "stateMutability": "nonpayable",
      "type": "function"
    },
    {
      "constant": false,
      "inputs": [
        {
          "internalType": "address[]",
          "name": "_implementations",
          "type": "address[]"
        }
      ],
      "name": "removeModules",
      "outputs": [],
      "payable": false,
      "stateMutability": "nonpayable",
      "type": "function"
    },
    {
      "constant": false,
      "inputs": [
        {
          "internalType": "address",
          "name": "_oldModuleImpl",
          "type": "address"
        },
        {
          "internalType": "address",
          "name": "_newModuleImpl",
          "type": "address"
        }
      ],
      "name": "replaceModule",
      "outputs": [],
      "payable": false,
      "stateMutability": "nonpayable",
      "type": "function"
    },
    {
      "constant": false,
      "inputs": [
        {
          "internalType": "address[]",
          "name": "_implementationsFrom",
          "type": "address[]"
        },
        {
          "internalType": "address[]",
          "name": "_implementationsTo",
          "type": "address[]"
        }
      ],
      "name": "replaceModules",
      "outputs": [],
      "payable": false,
      "stateMutability": "nonpayable",
      "type": "function"
    },
    {
      "constant": false,
      "inputs": [
        {
          "internalType": "address",
          "name": "_owner",
          "type": "address"
        }
      ],
      "name": "setProxyOwner",
      "outputs": [],
      "payable": false,
      "stateMutability": "nonpayable",
      "type": "function"
    }
  ],
  "bytecode": {
    "object": "0x6080604052610016336001600160e01b0361001b16565b610100565b6001600160a01b0381166100615760405162461bcd60e51b815260040180806020018281038252602c815260200180620022b9602c913960400191505060405180910390fd5b6001600160a01b03811661007c6001600160e01b036100d816565b6001600160a01b03167f5a3e66efaa1e445ebd894728a69d6959842ea1e97bd79b892797106e270efcd960405160405180910390a3604080516e35b2bc97383937bc3c9737bbb732b960891b8152905190819003600f01902055565b604080516e35b2bc97383937bc3c9737bbb732b960891b8152905190819003600f0190205490565b6121a980620001106000396000f3fe6080604052600436106100c15760003560e01c806368d463531161007f578063caaee91c11610059578063caaee91c1461048d578063ddd4f52c146104c0578063e11abe96146105be578063fdbc959e14610689576100c1565b806368d46353146103f35780636fc8b30d14610427578063a06324611461045a576100c1565b80621afd151461017f57806304c81644146102905780631694ef261461030d5780631ab7710d146103485780631c5ebe2f146103795780631ed86f19146103c0575b60006100d86000356001600160e01b031916610704565b90506001600160a01b03811661011f5760405162461bcd60e51b81526004018080602001828103825260298152602001806120266029913960400191505060405180910390fd5b60606000368080601f016020809104026020016040519081016040528093929190818152602001838380828437600092018290525084519495509384935091505060208401855af43d604051816000823e82801561017b578282f35b8282fd5b34801561018b57600080fd5b506101b2600480360360208110156101a257600080fd5b50356001600160a01b0316610763565b60405180806020018060200180602001848103845287818151815260200191508051906020019060200280838360005b838110156101fa5781810151838201526020016101e2565b50505050905001848103835286818151815260200191508051906020019060200280838360005b83811015610239578181015183820152602001610221565b50505050905001848103825285818151815260200191508051906020019060200280838360005b83811015610278578181015183820152602001610260565b50505050905001965050505050505060405180910390f35b34801561029c57600080fd5b5061030b600480360360208110156102b357600080fd5b810190602081018135600160201b8111156102cd57600080fd5b8201836020820111156102df57600080fd5b803590602001918460208302840111600160201b8311171561030057600080fd5b509092509050610b4f565b005b34801561031957600080fd5b5061030b6004803603604081101561033057600080fd5b506001600160a01b0381358116916020013516610bea565b34801561035457600080fd5b5061035d610c4f565b604080516001600160a01b039092168252519081900360200190f35b34801561038557600080fd5b506103ac6004803603602081101561039c57600080fd5b50356001600160a01b0316610c77565b604080519115158252519081900360200190f35b3480156103cc57600080fd5b5061030b600480360360208110156103e357600080fd5b50356001600160a01b0316610c9c565b3480156103ff57600080fd5b5061035d6004803603602081101561041657600080fd5b50356001600160e01b031916610d03565b34801561043357600080fd5b506103ac6004803603602081101561044a57600080fd5b50356001600160a01b0316610d14565b34801561046657600080fd5b5061030b6004803603602081101561047d57600080fd5b50356001600160a01b0316610d1f565b34801561049957600080fd5b5061030b600480360360208110156104b057600080fd5b50356001600160a01b0316610d83565b3480156104cc57600080fd5b5061056e600480360360208110156104e357600080fd5b810190602081018135600160201b8111156104fd57600080fd5b82018360208201111561050f57600080fd5b803590602001918460208302840111600160201b8311171561053057600080fd5b919080806020026020016040519081016040528093929190818152602001838360200280828437600092019190915250929550610de7945050505050565b60408051602080825283518183015283519192839290830191858101910280838360005b838110156105aa578181015183820152602001610592565b505050509050019250505060405180910390f35b3480156105ca57600080fd5b5061030b600480360360408110156105e157600080fd5b810190602081018135600160201b8111156105fb57600080fd5b82018360208201111561060d57600080fd5b803590602001918460208302840111600160201b8311171561062e57600080fd5b919390929091602081019035600160201b81111561064b57600080fd5b82018360208201111561065d57600080fd5b803590602001918460208302840111600160201b8311171561067e57600080fd5b509092509050610e47565b34801561069557600080fd5b5061030b600480360360208110156106ac57600080fd5b810190602081018135600160201b8111156106c657600080fd5b8201836020820111156106d857600080fd5b803590602001918460208302840111600160201b831117156106f957600080fd5b509092509050610f5e565b604080517135b2bc9734b6b83632b6b2b73a30ba34b7b760711b815281519081900360120181206001600160e01b031984166020808401919091528284019190915282518083038401815260609092019092528051910120545b919050565b606080606061077a846001600160a01b0316610ff5565b6107b55760405162461bcd60e51b815260040180806020018281038252604b8152602001806120e3604b913960600191505060405180910390fd5b6060846001600160a01b031663d8ad326d6040518163ffffffff1660e01b815260040160006040518083038186803b1580156107f057600080fd5b505afa158015610804573d6000803e3d6000fd5b505050506040513d6000823e601f3d908101601f19168201604052602081101561082d57600080fd5b8101908080516040519392919084600160201b82111561084c57600080fd5b90830190602082018581111561086157600080fd5b82518660208202830111600160201b8211171561087d57600080fd5b82525081516020918201928201910280838360005b838110156108aa578181015183820152602001610892565b50505050905001604052505050905060606108c3611031565b90506000808080805b86518110156109605760006108f38883815181106108e657fe5b6020026020010151610704565b90506001600160a01b0381161580159061091f57508b6001600160a01b0316816001600160a01b031614155b1561092f57600190940193610957565b61094b88838151811061093e57fe5b60200260200101516112d7565b15610957576001909501945b506001016108cc565b508260405190808252806020026020018201604052801561098b578160200160208202803883390190505b509850826040519080825280602002602001820160405280156109b8578160200160208202803883390190505b509750836040519080825280602002602001820160405280156109e5578160200160208202803883390190505b509650821580156109f4575083155b15610a055750610b48945050505050565b60005b8651811015610b40576000610a228883815181106108e657fe5b90506001600160a01b03811615610aa057808b8581518110610a4057fe5b60200260200101906001600160a01b031690816001600160a01b031681525050878281518110610a6c57fe5b60200260200101518a8581518110610a8057fe5b6001600160e01b0319909216602092830291909101909101526001909301925b60005b8751811015610b3657888381518110610ab857fe5b60200260200101516001600160e01b031916888281518110610ad657fe5b60200260200101516001600160e01b0319161415610b2e57878181518110610afa57fe5b60200260200101518a8581518110610b0e57fe5b6001600160e01b0319909216602092830291909101909101526001909301925b600101610aa3565b5050600101610a08565b505050505050505b9193909250565b610b57610c4f565b6001600160a01b0316336001600160a01b031614610baa576040805162461bcd60e51b81526020600482015260176024820152600080516020611f9c833981519152604482015290519081900360640190fd5b610be682828080602002602001604051908101604052809392919081815260200183836020028082843760009201919091525061133d92505050565b5050565b610bf2610c4f565b6001600160a01b0316336001600160a01b031614610c45576040805162461bcd60e51b81526020600482015260176024820152600080516020611f9c833981519152604482015290519081900360640190fd5b610be6828261136d565b604080516e35b2bc97383937bc3c9737bbb732b960891b8152905190819003600f0190205490565b6000816001600160a01b0316610c8c83611476565b6001600160a01b03161492915050565b610ca4610c4f565b6001600160a01b0316336001600160a01b031614610cf7576040805162461bcd60e51b81526020600482015260176024820152600080516020611f9c833981519152604482015290519081900360640190fd5b610d008161160d565b50565b6000610d0e82610704565b92915050565b6000610d0e826118eb565b610d27610c4f565b6001600160a01b0316336001600160a01b031614610d7a576040805162461bcd60e51b81526020600482015260176024820152600080516020611f9c833981519152604482015290519081900360640190fd5b610d0081611a92565b610d8b610c4f565b6001600160a01b0316336001600160a01b031614610dde576040805162461bcd60e51b81526020600482015260176024820152600080516020611f9c833981519152604482015290519081900360640190fd5b610d0081611cac565b606060005b8251811015610e4057610e11838281518110610e0457fe5b60200260200101516118eb565b15610e3857828181518110610e2257fe5b6020026020010160006001600160a01b03168152505b600101610dec565b5090919050565b610e4f610c4f565b6001600160a01b0316336001600160a01b031614610ea2576040805162461bcd60e51b81526020600482015260176024820152600080516020611f9c833981519152604482015290519081900360640190fd5b828114610ee05760405162461bcd60e51b8152600401808060200182810382526040815260200180611f5c6040913960400191505060405180910390fd5b610f1c848480806020026020016040519081016040528093929190818152602001838360200280828437600092019190915250611d5f92505050565b610f5882828080602002602001604051908101604052809392919081815260200183836020028082843760009201919091525061133d92505050565b50505050565b610f66610c4f565b6001600160a01b0316336001600160a01b031614610fb9576040805162461bcd60e51b81526020600482015260176024820152600080516020611f9c833981519152604482015290519081900360640190fd5b610be6828280806020026020016040519081016040528093929190818152602001838360200280828437600092019190915250611d5f92505050565b6000813f7fc5d2460186f7233c927e7db2dcc703c0e500b653ca82273b7bfad8045d85a47081811480159061102957508115155b949350505050565b60408051600d8082526101c08201909252606091829190602082016101a0803883390190505090506368d4635360e01b8160008151811061106e57fe5b6001600160e01b0319909216602092830291909101909101528051631ed86f1960e01b908290600190811061109f57fe5b6001600160e01b0319909216602092830291909101909101528051630132059160e21b90829060029081106110d057fe5b6001600160e01b031990921660209283029190910190910152805163a063246160e01b908290600390811061110157fe5b6001600160e01b0319909216602092830291909101909101528051637ede4acf60e11b908290600490811061113257fe5b6001600160e01b0319909216602092830291909101909101528051630b4a779360e11b908290600590811061116357fe5b6001600160e01b031990921660209283029190910190910152805163708d5f4b60e11b908290600690811061119457fe5b6001600160e01b0319909216602092830291909101909101528051636fc8b30d60e01b90829060079081106111c557fe5b6001600160e01b03199092166020928302919091019091015280516337753d4b60e21b90829060089081106111f657fe5b6001600160e01b03199092166020928302919091019091015280516332abba4760e21b908290600990811061122757fe5b6001600160e01b0319909216602092830291909101909101528051631ab7710d60e01b908290600a90811061125857fe5b6001600160e01b0319909216602092830291909101909101528051621afd1560e01b908290600b90811061128857fe5b6001600160e01b0319909216602092830291909101909101528051631c5ebe2f60e01b908290600c9081106112b957fe5b6001600160e01b031990921660209283029190910190910152905090565b600060606112e3611031565b905060005b8151811015611333578181815181106112fd57fe5b60200260200101516001600160e01b031916846001600160e01b031916141561132b5760019250505061075e565b6001016112e8565b5060009392505050565b60005b8151811015610be65761136582828151811061135857fe5b602002602001015161160d565b600101611340565b806001600160a01b0316826001600160a01b031614610be657611398816001600160a01b0316610ff5565b6113d35760405162461bcd60e51b8152600401808060200182810382526047815260200180611ebb6047913960600191505060405180910390fd5b6113e5826001600160a01b0316610ff5565b6114205760405162461bcd60e51b815260040180806020018281038252604781526020018061212e6047913960600191505060405180910390fd5b61142982611a92565b6114328161160d565b806001600160a01b0316826001600160a01b03167f604776a8e689ec10f8bd0af8caa234d56abd3ec92fbb13833c4bff96ff7a096a60405160405180910390a35050565b600061148a826001600160a01b0316610ff5565b6114c55760405162461bcd60e51b815260040180806020018281038252604c815260200180612097604c913960600191505060405180910390fd5b6060826001600160a01b031663d8ad326d6040518163ffffffff1660e01b815260040160006040518083038186803b15801561150057600080fd5b505afa158015611514573d6000803e3d6000fd5b505050506040513d6000823e601f3d908101601f19168201604052602081101561153d57600080fd5b8101908080516040519392919084600160201b82111561155c57600080fd5b90830190602082018581111561157157600080fd5b82518660208202830111600160201b8211171561158d57600080fd5b82525081516020918201928201910280838360005b838110156115ba5781810151838201526020016115a2565b50505050905001604052505050905060008090505b81518110156113335760006115e98383815181106108e657fe5b90506001600160a01b0381161561160457925061075e915050565b506001016115cf565b61161f816001600160a01b0316610ff5565b61165a5760405162461bcd60e51b815260040180806020018281038252603b815260200180611e42603b913960400191505060405180910390fd5b6060816001600160a01b031663d8ad326d6040518163ffffffff1660e01b815260040160006040518083038186803b15801561169557600080fd5b505afa1580156116a9573d6000803e3d6000fd5b505050506040513d6000823e601f3d908101601f1916820160405260208110156116d257600080fd5b8101908080516040519392919084600160201b8211156116f157600080fd5b90830190602082018581111561170657600080fd5b82518660208202830111600160201b8211171561172257600080fd5b82525081516020918201928201910280838360005b8381101561174f578181015183820152602001611737565b50505050905001604052505050905060008090505b81518110156118b25760006001600160a01b03166117878383815181106108e657fe5b6001600160a01b0316146117cc5760405162461bcd60e51b815260040180806020018281038252605a815260200180611f02605a913960600191505060405180910390fd5b81516000908390839081106117dd57fe5b60200260200101516001600160e01b0319161415611842576040805162461bcd60e51b815260206004820181905260248201527f646f6573206e6f7420616c6c6f7720656d7074792066756e6374696f6e206964604482015290519081900360640190fd5b61185182828151811061093e57fe5b1561188d5760405162461bcd60e51b815260040180806020018281038252604881526020018061204f6048913960600191505060405180910390fd5b6118aa82828151811061189c57fe5b602002602001015184611d8f565b600101611764565b506040516001600160a01b038316907f0e8ab0265c955b9584b70d255e316c63717f1fb52ba0acfff63bca74ca2e8fad90600090a25050565b60006118ff826001600160a01b0316610ff5565b61193a5760405162461bcd60e51b815260040180806020018281038252603e815260200180611fe8603e913960400191505060405180910390fd5b6060826001600160a01b031663d8ad326d6040518163ffffffff1660e01b815260040160006040518083038186803b15801561197557600080fd5b505afa158015611989573d6000803e3d6000fd5b505050506040513d6000823e601f3d908101601f1916820160405260208110156119b257600080fd5b8101908080516040519392919084600160201b8211156119d157600080fd5b9083019060208201858111156119e657600080fd5b82518660208202830111600160201b82111715611a0257600080fd5b82525081516020918201928201910280838360005b83811015611a2f578181015183820152602001611a17565b50505050905001604052505050905060008090505b8151811015611a885760006001600160a01b0316611a678383815181106108e657fe5b6001600160a01b031614611a805760009250505061075e565b600101611a44565b5060019392505050565b611a9a610c4f565b6001600160a01b0316336001600160a01b031614611aed576040805162461bcd60e51b81526020600482015260176024820152600080516020611f9c833981519152604482015290519081900360640190fd5b611aff816001600160a01b0316610ff5565b611b3a5760405162461bcd60e51b815260040180806020018281038252603e815260200180611e7d603e913960400191505060405180910390fd5b6060816001600160a01b031663d8ad326d6040518163ffffffff1660e01b815260040160006040518083038186803b158015611b7557600080fd5b505afa158015611b89573d6000803e3d6000fd5b505050506040513d6000823e601f3d908101601f191682016040526020811015611bb257600080fd5b8101908080516040519392919084600160201b821115611bd157600080fd5b908301906020820185811115611be657600080fd5b82518660208202830111600160201b82111715611c0257600080fd5b82525081516020918201928201910280838360005b83811015611c2f578181015183820152602001611c17565b50505050905001604052505050905060008090505b8151811015611c7357611c6b828281518110611c5c57fe5b60200260200101516000611d8f565b600101611c44565b506040516001600160a01b038316907f75f4e5771d2cdd015405ae76feb37f5792736e71ff18f8a9dd690772a48111a390600090a25050565b6001600160a01b038116611cf15760405162461bcd60e51b815260040180806020018281038252602c815260200180611fbc602c913960400191505060405180910390fd5b806001600160a01b0316611d03610c4f565b6001600160a01b03167f5a3e66efaa1e445ebd894728a69d6959842ea1e97bd79b892797106e270efcd960405160405180910390a3604080516e35b2bc97383937bc3c9737bbb732b960891b8152905190819003600f01902055565b60005b8151811015610be657611d87828281518110611d7a57fe5b6020026020010151611a92565b600101611d62565b806001600160a01b0316611da283610704565b6001600160a01b0316836001600160e01b0319167ff6614290ded30fe1ee19a73a2b3b13ad1e931b421546145bf7c4e98f35cba55660405160405180910390a4604080517135b2bc9734b6b83632b6b2b73a30ba34b7b760711b815281519081900360120181206001600160e01b031990941660208083019190915281830194909452815180820383018152606090910190915280519201919091205556fe4d6f64756c657350726f787952656769737472793a3a5f6164644d6f64756c653a2061646472657373206973206e6f74206120636f6e74726163744d6f64756c657350726f787952656769737472793a3a5f72656d6f76654d6f64756c653a2061646472657373206973206e6f74206120636f6e74726163744d6f64756c657350726f787952656769737472793a3a5f7265706c6163654d6f64756c65202d205f6e65774d6f64756c65496d706c206973206e6f74206120636f6e74726163744d6f64756c657350726f787952656769737472793a3a5f6164644d6f64756c653a2066756e6374696f6e20616c72656164792072656769737465726564202d20757365207265706c6163654d6f64756c652066756e6374696f6e4d6f64756c657350726f787952656769737472793a3a7265706c6163654d6f64756c65733a206172726179732073697a6573206d75737420626520657175616c4f776e61626c653a3a206163636573732064656e69656400000000000000000050726f78794f776e61626c653a3a73657450726f78794f776e65723a20696e76616c696420616464726573734d6f64756c657350726f787952656769737472793a3a5f63616e4164644d6f64756c653a2061646472657373206973206e6f74206120636f6e74726163744d6f64756c657350726f78793a746172676574206d6f64756c65206e6f7420726567697374657265644d6f64756c657350726f787952656769737472793a3a5f6164644d6f64756c653a2068617320612066756e6374696f6e2077697468207468652073616d65207369676e61747572654d6f64756c657350726f787952656769737472793a3a5f676574526567697374657265644d6f64756c65416464726573733a2061646472657373206973206e6f74206120636f6e74726163744d6f64756c657350726f787952656769737472793a3a636865636b436c617368696e6746756e6353656c6563746f72733a2061646472657373206973206e6f74206120636f6e74726163744d6f64756c657350726f787952656769737472793a3a5f7265706c6163654d6f64756c65202d205f6f6c644d6f64756c65496d706c206973206e6f74206120636f6e7472616374a265627a7a72315820e793ed7d9b3a554794a7a062714f93b3d29dce41cea98450ad23cedc6bed5c6564736f6c6343000511003250726f78794f776e61626c653a3a73657450726f78794f776e65723a20696e76616c69642061646472657373",
    "linkReferences": {}
  },
  "methodIdentifiers": {
    "addModule(address)": "1ed86f19",
    "addModules(address[])": "04c81644",
    "canAddModule(address)": "6fc8b30d",
    "canNotAddModules(address[])": "ddd4f52c",
    "checkClashingFuncSelectors(address)": "001afd15",
    "getFuncImplementation(bytes4)": "68d46353",
    "getProxyOwner()": "1ab7710d",
    "isModuleRegistered(address)": "1c5ebe2f",
    "removeModule(address)": "a0632461",
    "removeModules(address[])": "fdbc959e",
    "replaceModule(address,address)": "1694ef26",
    "replaceModules(address[],address[])": "e11abe96",
    "setProxyOwner(address)": "caaee91c"
  },
  "id": 192
}