{
  "abi": [
    {
      "inputs": [],
      "payable": false,
      "stateMutability": "nonpayable",
      "type": "constructor"
    },
    {
      "anonymous": false,
      "inputs": [
        {
          "indexed": true,
          "internalType": "address",
          "name": "user",
          "type": "address"
        },
        {
          "indexed": true,
          "internalType": "address",
          "name": "lender",
          "type": "address"
        },
        {
          "indexed": true,
          "internalType": "bytes32",
          "name": "loanId",
          "type": "bytes32"
        },
        {
          "indexed": false,
          "internalType": "address",
          "name": "loanToken",
          "type": "address"
        },
        {
          "indexed": false,
          "internalType": "address",
          "name": "collateralToken",
          "type": "address"
        },
        {
          "indexed": false,
          "internalType": "uint256",
          "name": "newPrincipal",
          "type": "uint256"
        },
        {
          "indexed": false,
          "internalType": "uint256",
          "name": "newCollateral",
          "type": "uint256"
        },
        {
          "indexed": false,
          "internalType": "uint256",
          "name": "interestRate",
          "type": "uint256"
        },
        {
          "indexed": false,
          "internalType": "uint256",
          "name": "interestDuration",
          "type": "uint256"
        },
        {
          "indexed": false,
          "internalType": "uint256",
          "name": "collateralToLoanRate",
          "type": "uint256"
        },
        {
          "indexed": false,
          "internalType": "uint256",
          "name": "currentMargin",
          "type": "uint256"
        }
      ],
      "name": "Borrow",
      "type": "event"
    },
    {
      "anonymous": false,
      "inputs": [
        {
          "indexed": true,
          "internalType": "bytes32",
          "name": "loanId",
          "type": "bytes32"
        },
        {
          "indexed": true,
          "internalType": "address",
          "name": "delegator",
          "type": "address"
        },
        {
          "indexed": true,
          "internalType": "address",
          "name": "delegated",
          "type": "address"
        },
        {
          "indexed": false,
          "internalType": "bool",
          "name": "isActive",
          "type": "bool"
        }
      ],
      "name": "DelegatedManagerSet",
      "type": "event"
    },
    {
      "anonymous": false,
      "inputs": [
        {
          "indexed": true,
          "internalType": "address",
          "name": "receiver",
          "type": "address"
        },
        {
          "indexed": true,
          "internalType": "address",
          "name": "token",
          "type": "address"
        },
        {
          "indexed": true,
          "internalType": "bytes32",
          "name": "loanId",
          "type": "bytes32"
        },
        {
          "indexed": false,
          "internalType": "uint256",
          "name": "feeRebatePercent",
          "type": "uint256"
        },
        {
          "indexed": false,
          "internalType": "uint256",
          "name": "amount",
          "type": "uint256"
        },
        {
          "indexed": false,
          "internalType": "uint256",
          "name": "basisPoint",
          "type": "uint256"
        }
      ],
      "name": "EarnReward",
      "type": "event"
    },
    {
      "anonymous": false,
      "inputs": [
        {
          "indexed": true,
          "internalType": "address",
          "name": "receiver",
          "type": "address"
        },
        {
          "indexed": true,
          "internalType": "address",
          "name": "token",
          "type": "address"
        },
        {
          "indexed": true,
          "internalType": "bytes32",
          "name": "loanId",
          "type": "bytes32"
        },
        {
          "indexed": false,
          "internalType": "uint256",
          "name": "feeRebatePercent",
          "type": "uint256"
        },
        {
          "indexed": false,
          "internalType": "uint256",
          "name": "amount",
          "type": "uint256"
        },
        {
          "indexed": false,
          "internalType": "uint256",
          "name": "basisPoint",
          "type": "uint256"
        }
      ],
      "name": "EarnRewardFail",
      "type": "event"
    },
    {
      "anonymous": false,
      "inputs": [
        {
          "indexed": true,
          "internalType": "address",
          "name": "user",
          "type": "address"
        },
        {
          "indexed": true,
          "internalType": "address",
          "name": "sourceToken",
          "type": "address"
        },
        {
          "indexed": true,
          "internalType": "address",
          "name": "destToken",
          "type": "address"
        },
        {
          "indexed": false,
          "internalType": "uint256",
          "name": "sourceAmount",
          "type": "uint256"
        },
        {
          "indexed": false,
          "internalType": "uint256",
          "name": "destAmount",
          "type": "uint256"
        }
      ],
      "name": "ExternalSwap",
      "type": "event"
    },
    {
      "anonymous": false,
      "inputs": [
        {
          "indexed": true,
          "internalType": "bytes32",
          "name": "loanId",
          "type": "bytes32"
        },
        {
          "indexed": true,
          "internalType": "address",
          "name": "sourceToken",
          "type": "address"
        },
        {
          "indexed": true,
          "internalType": "address",
          "name": "destToken",
          "type": "address"
        },
        {
          "indexed": false,
          "internalType": "address",
          "name": "borrower",
          "type": "address"
        },
        {
          "indexed": false,
          "internalType": "uint256",
          "name": "sourceAmount",
          "type": "uint256"
        },
        {
          "indexed": false,
          "internalType": "uint256",
          "name": "destAmount",
          "type": "uint256"
        }
      ],
      "name": "LoanSwap",
      "type": "event"
    },
    {
      "anonymous": false,
      "inputs": [
        {
          "indexed": true,
          "internalType": "address",
          "name": "previousOwner",
          "type": "address"
        },
        {
          "indexed": true,
          "internalType": "address",
          "name": "newOwner",
          "type": "address"
        }
      ],
      "name": "OwnershipTransferred",
      "type": "event"
    },
    {
      "anonymous": false,
      "inputs": [
        {
          "indexed": true,
          "internalType": "address",
          "name": "payer",
          "type": "address"
        },
        {
          "indexed": true,
          "internalType": "address",
          "name": "token",
          "type": "address"
        },
        {
          "indexed": true,
          "internalType": "bytes32",
          "name": "loanId",
          "type": "bytes32"
        },
        {
          "indexed": false,
          "internalType": "uint256",
          "name": "amount",
          "type": "uint256"
        }
      ],
      "name": "PayBorrowingFee",
      "type": "event"
    },
    {
      "anonymous": false,
      "inputs": [
        {
          "indexed": true,
          "internalType": "address",
          "name": "interestToken",
          "type": "address"
        },
        {
          "indexed": true,
          "internalType": "address",
          "name": "lender",
          "type": "address"
        },
        {
          "indexed": false,
          "internalType": "uint256",
          "name": "effectiveInterest",
          "type": "uint256"
        }
      ],
      "name": "PayInterestTransfer",
      "type": "event"
    },
    {
      "anonymous": false,
      "inputs": [
        {
          "indexed": true,
          "internalType": "address",
          "name": "payer",
          "type": "address"
        },
        {
          "indexed": true,
          "internalType": "address",
          "name": "token",
          "type": "address"
        },
        {
          "indexed": false,
          "internalType": "uint256",
          "name": "amount",
          "type": "uint256"
        }
      ],
      "name": "PayLendingFee",
      "type": "event"
    },
    {
      "anonymous": false,
      "inputs": [
        {
          "indexed": true,
          "internalType": "address",
          "name": "payer",
          "type": "address"
        },
        {
          "indexed": true,
          "internalType": "address",
          "name": "token",
          "type": "address"
        },
        {
          "indexed": true,
          "internalType": "bytes32",
          "name": "loanId",
          "type": "bytes32"
        },
        {
          "indexed": false,
          "internalType": "uint256",
          "name": "amount",
          "type": "uint256"
        }
      ],
      "name": "PayTradingFee",
      "type": "event"
    },
    {
      "anonymous": false,
      "inputs": [
        {
          "indexed": true,
          "internalType": "address",
          "name": "prevModuleContractAddress",
          "type": "address"
        },
        {
          "indexed": true,
          "internalType": "address",
          "name": "newModuleContractAddress",
          "type": "address"
        },
        {
          "indexed": true,
          "internalType": "bytes32",
          "name": "module",
          "type": "bytes32"
        }
      ],
      "name": "ProtocolModuleContractReplaced",
      "type": "event"
    },
    {
      "anonymous": false,
      "inputs": [
        {
          "indexed": true,
          "internalType": "address",
          "name": "user",
          "type": "address"
        },
        {
          "indexed": true,
          "internalType": "address",
          "name": "lender",
          "type": "address"
        },
        {
          "indexed": true,
          "internalType": "bytes32",
          "name": "loanId",
          "type": "bytes32"
        },
        {
          "indexed": false,
          "internalType": "address",
          "name": "collateralToken",
          "type": "address"
        },
        {
          "indexed": false,
          "internalType": "address",
          "name": "loanToken",
          "type": "address"
        },
        {
          "indexed": false,
          "internalType": "uint256",
          "name": "positionSize",
          "type": "uint256"
        },
        {
          "indexed": false,
          "internalType": "uint256",
          "name": "borrowedAmount",
          "type": "uint256"
        },
        {
          "indexed": false,
          "internalType": "uint256",
          "name": "interestRate",
          "type": "uint256"
        },
        {
          "indexed": false,
          "internalType": "uint256",
          "name": "settlementDate",
          "type": "uint256"
        },
        {
          "indexed": false,
          "internalType": "uint256",
          "name": "entryPrice",
          "type": "uint256"
        },
        {
          "indexed": false,
          "internalType": "uint256",
          "name": "entryLeverage",
          "type": "uint256"
        },
        {
          "indexed": false,
          "internalType": "uint256",
          "name": "currentLeverage",
          "type": "uint256"
        }
      ],
      "name": "Trade",
      "type": "event"
    },
    {
      "anonymous": false,
      "inputs": [
        {
          "indexed": true,
          "internalType": "address",
          "name": "asset",
          "type": "address"
        },
        {
          "indexed": true,
          "internalType": "address",
          "name": "from",
          "type": "address"
        },
        {
          "indexed": false,
          "internalType": "uint256",
          "name": "amount",
          "type": "uint256"
        }
      ],
      "name": "VaultDeposit",
      "type": "event"
    },
    {
      "anonymous": false,
      "inputs": [
        {
          "indexed": true,
          "internalType": "address",
          "name": "asset",
          "type": "address"
        },
        {
          "indexed": true,
          "internalType": "address",
          "name": "to",
          "type": "address"
        },
        {
          "indexed": false,
          "internalType": "uint256",
          "name": "amount",
          "type": "uint256"
        }
      ],
      "name": "VaultWithdraw",
      "type": "event"
    },
    {
      "payable": false,
      "stateMutability": "nonpayable",
      "type": "fallback"
    },
    {
      "constant": true,
      "inputs": [],
      "name": "admin",
      "outputs": [
        {
          "internalType": "address",
          "name": "",
          "type": "address"
        }
      ],
      "payable": false,
      "stateMutability": "view",
      "type": "function"
    },
    {
      "constant": true,
      "inputs": [],
      "name": "affiliateFeePercent",
      "outputs": [
        {
          "internalType": "uint256",
          "name": "",
          "type": "uint256"
        }
      ],
      "payable": false,
      "stateMutability": "view",
      "type": "function"
    },
    {
      "constant": true,
      "inputs": [
        {
          "internalType": "address",
          "name": "",
          "type": "address"
        }
      ],
      "name": "affiliateRewardsHeld",
      "outputs": [
        {
          "internalType": "uint256",
          "name": "",
          "type": "uint256"
        }
      ],
      "payable": false,
      "stateMutability": "view",
      "type": "function"
    },
    {
      "constant": true,
      "inputs": [],
      "name": "affiliateTradingTokenFeePercent",
      "outputs": [
        {
          "internalType": "uint256",
          "name": "",
          "type": "uint256"
        }
      ],
      "payable": false,
      "stateMutability": "view",
      "type": "function"
    },
    {
      "constant": true,
      "inputs": [
        {
          "internalType": "address",
          "name": "",
          "type": "address"
        },
        {
          "internalType": "address",
          "name": "",
          "type": "address"
        }
      ],
      "name": "affiliatesReferrerBalances",
      "outputs": [
        {
          "internalType": "uint256",
          "name": "",
          "type": "uint256"
        }
      ],
      "payable": false,
      "stateMutability": "view",
      "type": "function"
    },
    {
      "constant": true,
      "inputs": [
        {
          "internalType": "address",
          "name": "",
          "type": "address"
        }
      ],
      "name": "affiliatesUserReferrer",
      "outputs": [
        {
          "internalType": "address",
          "name": "",
          "type": "address"
        }
      ],
      "payable": false,
      "stateMutability": "view",
      "type": "function"
    },
    {
      "constant": false,
      "inputs": [
        {
          "internalType": "bytes32",
          "name": "loanParamsId",
          "type": "bytes32"
        },
        {
          "internalType": "bytes32",
          "name": "loanId",
          "type": "bytes32"
        },
        {
          "internalType": "bool",
          "name": "isTorqueLoan",
          "type": "bool"
        },
        {
          "internalType": "uint256",
          "name": "initialMargin",
          "type": "uint256"
        },
        {
          "components": [
            {
              "internalType": "address",
              "name": "lender",
              "type": "address"
            },
            {
              "internalType": "address",
              "name": "borrower",
              "type": "address"
            },
            {
              "internalType": "address",
              "name": "receiver",
              "type": "address"
            },
            {
              "internalType": "address",
              "name": "manager",
              "type": "address"
            }
          ],
          "internalType": "struct MarginTradeStructHelpers.SentAddresses",
          "name": "sentAddresses",
          "type": "tuple"
        },
        {
          "components": [
            {
              "internalType": "uint256",
              "name": "interestRate",
              "type": "uint256"
            },
            {
              "internalType": "uint256",
              "name": "newPrincipal",
              "type": "uint256"
            },
            {
              "internalType": "uint256",
              "name": "interestInitialAmount",
              "type": "uint256"
            },
            {
              "internalType": "uint256",
              "name": "loanTokenSent",
              "type": "uint256"
            },
            {
              "internalType": "uint256",
              "name": "collateralTokenSent",
              "type": "uint256"
            },
            {
              "internalType": "uint256",
              "name": "minEntryPrice",
              "type": "uint256"
            },
            {
              "internalType": "uint256",
              "name": "loanToCollateralSwapRate",
              "type": "uint256"
            },
            {
              "internalType": "uint256",
              "name": "interestDuration",
              "type": "uint256"
            },
            {
              "internalType": "uint256",
              "name": "entryLeverage",
              "type": "uint256"
            }
          ],
          "internalType": "struct MarginTradeStructHelpers.SentAmounts",
          "name": "sentValues",
          "type": "tuple"
        },
        {
          "internalType": "bytes",
          "name": "loanDataBytes",
          "type": "bytes"
        }
      ],
      "name": "borrowOrTradeFromPool",
      "outputs": [
        {
          "internalType": "uint256",
          "name": "newPrincipal",
          "type": "uint256"
        },
        {
          "internalType": "uint256",
          "name": "newCollateral",
          "type": "uint256"
        }
      ],
      "payable": true,
      "stateMutability": "payable",
      "type": "function"
    },
    {
      "constant": true,
      "inputs": [
        {
          "internalType": "address",
          "name": "",
          "type": "address"
        }
      ],
      "name": "borrowerNonce",
      "outputs": [
        {
          "internalType": "uint256",
          "name": "",
          "type": "uint256"
        }
      ],
      "payable": false,
      "stateMutability": "view",
      "type": "function"
    },
    {
      "constant": true,
      "inputs": [
        {
          "internalType": "address",
          "name": "",
          "type": "address"
        },
        {
          "internalType": "bytes32",
          "name": "",
          "type": "bytes32"
        }
      ],
      "name": "borrowerOrders",
      "outputs": [
        {
          "internalType": "uint256",
          "name": "lockedAmount",
          "type": "uint256"
        },
        {
          "internalType": "uint256",
          "name": "interestRate",
          "type": "uint256"
        },
        {
          "internalType": "uint256",
          "name": "minLoanTerm",
          "type": "uint256"
        },
        {
          "internalType": "uint256",
          "name": "maxLoanTerm",
          "type": "uint256"
        },
        {
          "internalType": "uint256",
          "name": "createdTimestamp",
          "type": "uint256"
        },
        {
          "internalType": "uint256",
          "name": "expirationTimestamp",
          "type": "uint256"
        }
      ],
      "payable": false,
      "stateMutability": "view",
      "type": "function"
    },
    {
      "constant": true,
      "inputs": [],
      "name": "borrowingFeePercent",
      "outputs": [
        {
          "internalType": "uint256",
          "name": "",
          "type": "uint256"
        }
      ],
      "payable": false,
      "stateMutability": "view",
      "type": "function"
    },
    {
      "constant": true,
      "inputs": [
        {
          "internalType": "address",
          "name": "",
          "type": "address"
        }
      ],
      "name": "borrowingFeeTokensHeld",
      "outputs": [
        {
          "internalType": "uint256",
          "name": "",
          "type": "uint256"
        }
      ],
      "payable": false,
      "stateMutability": "view",
      "type": "function"
    },
    {
      "constant": true,
      "inputs": [
        {
          "internalType": "address",
          "name": "",
          "type": "address"
        }
      ],
      "name": "borrowingFeeTokensPaid",
      "outputs": [
        {
          "internalType": "uint256",
          "name": "",
          "type": "uint256"
        }
      ],
      "payable": false,
      "stateMutability": "view",
      "type": "function"
    },
    {
      "constant": true,
      "inputs": [
        {
          "internalType": "bytes32",
          "name": "",
          "type": "bytes32"
        },
        {
          "internalType": "address",
          "name": "",
          "type": "address"
        }
      ],
      "name": "delegatedManagers",
      "outputs": [
        {
          "internalType": "bool",
          "name": "",
          "type": "bool"
        }
      ],
      "payable": false,
      "stateMutability": "view",
      "type": "function"
    },
    {
      "constant": true,
      "inputs": [],
      "name": "feeRebatePercent",
      "outputs": [
        {
          "internalType": "uint256",
          "name": "",
          "type": "uint256"
        }
      ],
      "payable": false,
      "stateMutability": "view",
      "type": "function"
    },
    {
      "constant": true,
      "inputs": [],
      "name": "feesController",
      "outputs": [
        {
          "internalType": "address",
          "name": "",
          "type": "address"
        }
      ],
      "payable": false,
      "stateMutability": "view",
      "type": "function"
    },
    {
      "constant": true,
      "inputs": [
        {
          "internalType": "address",
          "name": "loanToken",
          "type": "address"
        },
        {
          "internalType": "address",
          "name": "collateralToken",
          "type": "address"
        },
        {
          "internalType": "uint256",
          "name": "collateralTokenAmount",
          "type": "uint256"
        },
        {
          "internalType": "uint256",
          "name": "marginAmount",
          "type": "uint256"
        },
        {
          "internalType": "bool",
          "name": "isTorqueLoan",
          "type": "bool"
        }
      ],
      "name": "getBorrowAmount",
      "outputs": [
        {
          "internalType": "uint256",
          "name": "borrowAmount",
          "type": "uint256"
        }
      ],
      "payable": false,
      "stateMutability": "view",
      "type": "function"
    },
    {
      "constant": true,
      "inputs": [
        {
          "internalType": "address",
          "name": "loanToken",
          "type": "address"
        },
        {
          "internalType": "address",
          "name": "collateralToken",
          "type": "address"
        },
        {
          "internalType": "uint256",
          "name": "loanTokenSent",
          "type": "uint256"
        },
        {
          "internalType": "uint256",
          "name": "collateralTokenSent",
          "type": "uint256"
        },
        {
          "internalType": "uint256",
          "name": "interestRate",
          "type": "uint256"
        },
        {
          "internalType": "uint256",
          "name": "newPrincipal",
          "type": "uint256"
        }
      ],
      "name": "getEstimatedMarginExposure",
      "outputs": [
        {
          "internalType": "uint256",
          "name": "",
          "type": "uint256"
        }
      ],
      "payable": false,
      "stateMutability": "view",
      "type": "function"
    },
    {
      "constant": true,
      "inputs": [
        {
          "internalType": "address",
          "name": "loanToken",
          "type": "address"
        },
        {
          "internalType": "address",
          "name": "collateralToken",
          "type": "address"
        },
        {
          "internalType": "uint256",
          "name": "newPrincipal",
          "type": "uint256"
        },
        {
          "internalType": "uint256",
          "name": "marginAmount",
          "type": "uint256"
        },
        {
          "internalType": "bool",
          "name": "isTorqueLoan",
          "type": "bool"
        }
      ],
      "name": "getRequiredCollateral",
      "outputs": [
        {
          "internalType": "uint256",
          "name": "collateralAmountRequired",
          "type": "uint256"
        }
      ],
      "payable": false,
      "stateMutability": "view",
      "type": "function"
    },
    {
      "constant": false,
      "inputs": [
        {
          "internalType": "address",
          "name": "target",
          "type": "address"
        }
      ],
      "name": "initialize",
      "outputs": [],
      "payable": false,
      "stateMutability": "nonpayable",
      "type": "function"
    },
    {
      "constant": true,
      "inputs": [],
      "name": "isOwner",
      "outputs": [
        {
          "internalType": "bool",
          "name": "",
          "type": "bool"
        }
      ],
      "payable": false,
      "stateMutability": "view",
      "type": "function"
    },
    {
      "constant": true,
      "inputs": [
        {
          "internalType": "address",
          "name": "",
          "type": "address"
        },
        {
          "internalType": "address",
          "name": "",
          "type": "address"
        }
      ],
      "name": "lenderInterest",
      "outputs": [
        {
          "internalType": "uint256",
          "name": "principalTotal",
          "type": "uint256"
        },
        {
          "internalType": "uint256",
          "name": "owedPerDay",
          "type": "uint256"
        },
        {
          "internalType": "uint256",
          "name": "owedTotal",
          "type": "uint256"
        },
        {
          "internalType": "uint256",
          "name": "paidTotal",
          "type": "uint256"
        },
        {
          "internalType": "uint256",
          "name": "updatedTimestamp",
          "type": "uint256"
        }
      ],
      "payable": false,
      "stateMutability": "view",
      "type": "function"
    },
    {
      "constant": true,
      "inputs": [
        {
          "internalType": "address",
          "name": "",
          "type": "address"
        },
        {
          "internalType": "bytes32",
          "name": "",
          "type": "bytes32"
        }
      ],
      "name": "lenderOrders",
      "outputs": [
        {
          "internalType": "uint256",
          "name": "lockedAmount",
          "type": "uint256"
        },
        {
          "internalType": "uint256",
          "name": "interestRate",
          "type": "uint256"
        },
        {
          "internalType": "uint256",
          "name": "minLoanTerm",
          "type": "uint256"
        },
        {
          "internalType": "uint256",
          "name": "maxLoanTerm",
          "type": "uint256"
        },
        {
          "internalType": "uint256",
          "name": "createdTimestamp",
          "type": "uint256"
        },
        {
          "internalType": "uint256",
          "name": "expirationTimestamp",
          "type": "uint256"
        }
      ],
      "payable": false,
      "stateMutability": "view",
      "type": "function"
    },
    {
      "constant": true,
      "inputs": [],
      "name": "lendingFeePercent",
      "outputs": [
        {
          "internalType": "uint256",
          "name": "",
          "type": "uint256"
        }
      ],
      "payable": false,
      "stateMutability": "view",
      "type": "function"
    },
    {
      "constant": true,
      "inputs": [
        {
          "internalType": "address",
          "name": "",
          "type": "address"
        }
      ],
      "name": "lendingFeeTokensHeld",
      "outputs": [
        {
          "internalType": "uint256",
          "name": "",
          "type": "uint256"
        }
      ],
      "payable": false,
      "stateMutability": "view",
      "type": "function"
    },
    {
      "constant": true,
      "inputs": [
        {
          "internalType": "address",
          "name": "",
          "type": "address"
        }
      ],
      "name": "lendingFeeTokensPaid",
      "outputs": [
        {
          "internalType": "uint256",
          "name": "",
          "type": "uint256"
        }
      ],
      "payable": false,
      "stateMutability": "view",
      "type": "function"
    },
    {
      "constant": true,
      "inputs": [],
      "name": "liquidationIncentivePercent",
      "outputs": [
        {
          "internalType": "uint256",
          "name": "",
          "type": "uint256"
        }
      ],
      "payable": false,
      "stateMutability": "view",
      "type": "function"
    },
    {
      "constant": true,
      "inputs": [
        {
          "internalType": "bytes32",
          "name": "",
          "type": "bytes32"
        }
      ],
      "name": "loanInterest",
      "outputs": [
        {
          "internalType": "uint256",
          "name": "owedPerDay",
          "type": "uint256"
        },
        {
          "internalType": "uint256",
          "name": "depositTotal",
          "type": "uint256"
        },
        {
          "internalType": "uint256",
          "name": "updatedTimestamp",
          "type": "uint256"
        }
      ],
      "payable": false,
      "stateMutability": "view",
      "type": "function"
    },
    {
      "constant": true,
      "inputs": [
        {
          "internalType": "bytes32",
          "name": "",
          "type": "bytes32"
        }
      ],
      "name": "loanParams",
      "outputs": [
        {
          "internalType": "bytes32",
          "name": "id",
          "type": "bytes32"
        },
        {
          "internalType": "bool",
          "name": "active",
          "type": "bool"
        },
        {
          "internalType": "address",
          "name": "owner",
          "type": "address"
        },
        {
          "internalType": "address",
          "name": "loanToken",
          "type": "address"
        },
        {
          "internalType": "address",
          "name": "collateralToken",
          "type": "address"
        },
        {
          "internalType": "uint256",
          "name": "minInitialMargin",
          "type": "uint256"
        },
        {
          "internalType": "uint256",
          "name": "maintenanceMargin",
          "type": "uint256"
        },
        {
          "internalType": "uint256",
          "name": "maxLoanTerm",
          "type": "uint256"
        }
      ],
      "payable": false,
      "stateMutability": "view",
      "type": "function"
    },
    {
      "constant": true,
      "inputs": [
        {
          "internalType": "address",
          "name": "",
          "type": "address"
        }
      ],
      "name": "loanPoolToUnderlying",
      "outputs": [
        {
          "internalType": "address",
          "name": "",
          "type": "address"
        }
      ],
      "payable": false,
      "stateMutability": "view",
      "type": "function"
    },
    {
      "constant": true,
      "inputs": [
        {
          "internalType": "bytes32",
          "name": "",
          "type": "bytes32"
        }
      ],
      "name": "loans",
      "outputs": [
        {
          "internalType": "bytes32",
          "name": "id",
          "type": "bytes32"
        },
        {
          "internalType": "bytes32",
          "name": "loanParamsId",
          "type": "bytes32"
        },
        {
          "internalType": "bytes32",
          "name": "pendingTradesId",
          "type": "bytes32"
        },
        {
          "internalType": "bool",
          "name": "active",
          "type": "bool"
        },
        {
          "internalType": "uint256",
          "name": "principal",
          "type": "uint256"
        },
        {
          "internalType": "uint256",
          "name": "collateral",
          "type": "uint256"
        },
        {
          "internalType": "uint256",
          "name": "startTimestamp",
          "type": "uint256"
        },
        {
          "internalType": "uint256",
          "name": "endTimestamp",
          "type": "uint256"
        },
        {
          "internalType": "uint256",
          "name": "startMargin",
          "type": "uint256"
        },
        {
          "internalType": "uint256",
          "name": "startRate",
          "type": "uint256"
        },
        {
          "internalType": "address",
          "name": "borrower",
          "type": "address"
        },
        {
          "internalType": "address",
          "name": "lender",
          "type": "address"
        }
      ],
      "payable": false,
      "stateMutability": "view",
      "type": "function"
    },
    {
      "constant": true,
      "inputs": [],
      "name": "lockedSOVAddress",
      "outputs": [
        {
          "internalType": "address",
          "name": "",
          "type": "address"
        }
      ],
      "payable": false,
      "stateMutability": "view",
      "type": "function"
    },
    {
      "constant": true,
      "inputs": [
        {
          "internalType": "bytes4",
          "name": "",
          "type": "bytes4"
        }
      ],
      "name": "logicTargets",
      "outputs": [
        {
          "internalType": "address",
          "name": "",
          "type": "address"
        }
      ],
      "payable": false,
      "stateMutability": "view",
      "type": "function"
    },
    {
      "constant": true,
      "inputs": [],
      "name": "maxDisagreement",
      "outputs": [
        {
          "internalType": "uint256",
          "name": "",
          "type": "uint256"
        }
      ],
      "payable": false,
      "stateMutability": "view",
      "type": "function"
    },
    {
      "constant": true,
      "inputs": [],
      "name": "maxSwapSize",
      "outputs": [
        {
          "internalType": "uint256",
          "name": "",
          "type": "uint256"
        }
      ],
      "payable": false,
      "stateMutability": "view",
      "type": "function"
    },
    {
      "constant": true,
      "inputs": [],
      "name": "minReferralsToPayout",
      "outputs": [
        {
          "internalType": "uint256",
          "name": "",
          "type": "uint256"
        }
      ],
      "payable": false,
      "stateMutability": "view",
      "type": "function"
    },
    {
      "constant": true,
      "inputs": [],
      "name": "owner",
      "outputs": [
        {
          "internalType": "address",
          "name": "",
          "type": "address"
        }
      ],
      "payable": false,
      "stateMutability": "view",
      "type": "function"
    },
    {
      "constant": true,
      "inputs": [],
      "name": "pause",
      "outputs": [
        {
          "internalType": "bool",
          "name": "",
          "type": "bool"
        }
      ],
      "payable": false,
      "stateMutability": "view",
      "type": "function"
    },
    {
      "constant": true,
      "inputs": [],
      "name": "priceFeeds",
      "outputs": [
        {
          "internalType": "address",
          "name": "",
          "type": "address"
        }
      ],
      "payable": false,
      "stateMutability": "view",
      "type": "function"
    },
    {
      "constant": true,
      "inputs": [],
      "name": "protocolAddress",
      "outputs": [
        {
          "internalType": "address",
          "name": "",
          "type": "address"
        }
      ],
      "payable": false,
      "stateMutability": "view",
      "type": "function"
    },
    {
      "constant": true,
      "inputs": [],
      "name": "protocolTokenAddress",
      "outputs": [
        {
          "internalType": "address",
          "name": "",
          "type": "address"
        }
      ],
      "payable": false,
      "stateMutability": "view",
      "type": "function"
    },
    {
      "constant": true,
      "inputs": [],
      "name": "protocolTokenHeld",
      "outputs": [
        {
          "internalType": "uint256",
          "name": "",
          "type": "uint256"
        }
      ],
      "payable": false,
      "stateMutability": "view",
      "type": "function"
    },
    {
      "constant": true,
      "inputs": [],
      "name": "protocolTokenPaid",
      "outputs": [
        {
          "internalType": "uint256",
          "name": "",
          "type": "uint256"
        }
      ],
      "payable": false,
      "stateMutability": "view",
      "type": "function"
    },
    {
      "constant": true,
      "inputs": [],
      "name": "rolloverBaseReward",
      "outputs": [
        {
          "internalType": "uint256",
          "name": "",
          "type": "uint256"
        }
      ],
      "payable": false,
      "stateMutability": "view",
      "type": "function"
    },
    {
      "constant": true,
      "inputs": [],
      "name": "rolloverFlexFeePercent",
      "outputs": [
        {
          "internalType": "uint256",
          "name": "",
          "type": "uint256"
        }
      ],
      "payable": false,
      "stateMutability": "view",
      "type": "function"
    },
    {
      "constant": false,
      "inputs": [
        {
          "internalType": "bytes32",
          "name": "loanId",
          "type": "bytes32"
        },
        {
          "internalType": "address",
          "name": "delegated",
          "type": "address"
        },
        {
          "internalType": "bool",
          "name": "toggle",
          "type": "bool"
        }
      ],
      "name": "setDelegatedManager",
      "outputs": [],
      "payable": false,
      "stateMutability": "nonpayable",
      "type": "function"
    },
    {
      "constant": true,
      "inputs": [],
      "name": "sourceBuffer",
      "outputs": [
        {
          "internalType": "uint256",
          "name": "",
          "type": "uint256"
        }
      ],
      "payable": false,
      "stateMutability": "view",
      "type": "function"
    },
    {
      "constant": true,
      "inputs": [],
      "name": "sovTokenAddress",
      "outputs": [
        {
          "internalType": "address",
          "name": "",
          "type": "address"
        }
      ],
      "payable": false,
      "stateMutability": "view",
      "type": "function"
    },
    {
      "constant": true,
      "inputs": [],
      "name": "sovrynSwapContractRegistryAddress",
      "outputs": [
        {
          "internalType": "address",
          "name": "",
          "type": "address"
        }
      ],
      "payable": false,
      "stateMutability": "view",
      "type": "function"
    },
    {
      "constant": true,
      "inputs": [
        {
          "internalType": "address",
          "name": "",
          "type": "address"
        },
        {
          "internalType": "address",
          "name": "",
          "type": "address"
        }
      ],
      "name": "specialRebates",
      "outputs": [
        {
          "internalType": "uint256",
          "name": "",
          "type": "uint256"
        }
      ],
      "payable": false,
      "stateMutability": "view",
      "type": "function"
    },
    {
      "constant": true,
      "inputs": [
        {
          "internalType": "address",
          "name": "",
          "type": "address"
        }
      ],
      "name": "supportedTokens",
      "outputs": [
        {
          "internalType": "bool",
          "name": "",
          "type": "bool"
        }
      ],
      "payable": false,
      "stateMutability": "view",
      "type": "function"
    },
    {
      "constant": true,
      "inputs": [],
      "name": "swapsImpl",
      "outputs": [
        {
          "internalType": "address",
          "name": "",
          "type": "address"
        }
      ],
      "payable": false,
      "stateMutability": "view",
      "type": "function"
    },
    {
      "constant": true,
      "inputs": [],
      "name": "tradingFeePercent",
      "outputs": [
        {
          "internalType": "uint256",
          "name": "",
          "type": "uint256"
        }
      ],
      "payable": false,
      "stateMutability": "view",
      "type": "function"
    },
    {
      "constant": true,
      "inputs": [
        {
          "internalType": "address",
          "name": "",
          "type": "address"
        }
      ],
      "name": "tradingFeeTokensHeld",
      "outputs": [
        {
          "internalType": "uint256",
          "name": "",
          "type": "uint256"
        }
      ],
      "payable": false,
      "stateMutability": "view",
      "type": "function"
    },
    {
      "constant": true,
      "inputs": [
        {
          "internalType": "address",
          "name": "",
          "type": "address"
        }
      ],
      "name": "tradingFeeTokensPaid",
      "outputs": [
        {
          "internalType": "uint256",
          "name": "",
          "type": "uint256"
        }
      ],
      "payable": false,
      "stateMutability": "view",
      "type": "function"
    },
    {
      "constant": false,
      "inputs": [
        {
          "internalType": "address",
          "name": "newOwner",
          "type": "address"
        }
      ],
      "name": "transferOwnership",
      "outputs": [],
      "payable": false,
      "stateMutability": "nonpayable",
      "type": "function"
    },
    {
      "constant": true,
      "inputs": [
        {
          "internalType": "address",
          "name": "",
          "type": "address"
        }
      ],
      "name": "underlyingToLoanPool",
      "outputs": [
        {
          "internalType": "address",
          "name": "",
          "type": "address"
        }
      ],
      "payable": false,
      "stateMutability": "view",
      "type": "function"
    },
    {
      "constant": true,
      "inputs": [
        {
          "internalType": "address",
          "name": "",
          "type": "address"
        }
      ],
      "name": "userNotFirstTradeFlag",
      "outputs": [
        {
          "internalType": "bool",
          "name": "",
          "type": "bool"
        }
      ],
      "payable": false,
      "stateMutability": "view",
      "type": "function"
    },
    {
      "constant": true,
      "inputs": [],
      "name": "wrbtcToken",
      "outputs": [
        {
          "internalType": "contract IWrbtcERC20",
          "name": "",
          "type": "address"
        }
      ],
      "payable": false,
      "stateMutability": "view",
      "type": "function"
    }
  ],
  "bytecode": {
    "object": "0x60806040526001600055678ac7230489e80000601555670214e8348c4f000060185567013fbe85edc90000601b55674563918244f40000602055674563918244f40000602155674563918244f400006027556127106028556802b5e3af16b1880000602955650f478e084000602b5567016345785d8a0000602c556802b5e3af16b1880000602f5560036035556801158e460913d00000603955348015620000a657600080fd5b506000620000bc6001600160e01b036200011016565b600180546001600160a01b0319166001600160a01b038316908117909155604051919250906000907f8be0079c531659141344cd1fd0a4f28419497f9722a3daafe3b4186f6b6457e0908290a35062000114565b3390565b61518280620001246000396000f3fe6080604052600436106103815760003560e01c80638f32d59b116101d1578063cd5d808d11610102578063e8f62764116100a0578063f589a3e71161006f578063f589a3e714610a05578063f6ddc8b314610a1a578063f706b1f214610a2f578063f851a44014610a4457610381565b8063e8f62764146109a6578063edab119f146109bb578063f0e085f5146109d0578063f2fde38b146109e557610381565b8063d485045e116100dc578063d485045e14610925578063d67f707714610945578063d84ca25414610965578063e762319f1461098657610381565b8063cd5d808d146108db578063d288208c146108fb578063d473c2da1461091057610381565b8063b7e152411161016f578063bdee453c11610149578063bdee453c1461082f578063c4a908151461084f578063c4d66de814610887578063cb6eacd1146108a757610381565b8063b7e15241146107e5578063b9cffa3e14610805578063ba4861e91461081a57610381565b8063acc04348116101ab578063acc0434814610779578063ae0a85301461078e578063afe84009146107a3578063b30643d9146107c557610381565b80638f32d59b1461072f57806392d894f814610744578063959083d31461076457610381565b80634203e395116102b65780636e663730116102545780637a8faeb8116102235780637a8faeb8146106d05780638456cb59146106e55780638da5cb5b146106fa5780638dc48ba51461070f57610381565b80636e663730146106715780637420ca3e14610691578063742e6798146106a657806378d849ed146106bb57610381565b8063569fc1fb11610290578063569fc1fb146105dc578063574442cc1461060b57806362fff3f61461062057806368c4ac261461065157610381565b80634203e395146105925780634699f846146105b25780634f28cac2146105c757610381565b80632a324027116103235780633432423c116102fd5780633432423c146105125780633452d2d4146105325780633fca506e146105525780634115a2b61461057257610381565b80632a324027146104c65780632f470764146104db57806333d8991f146104f057610381565b80631b7bde741161035f5780631b7bde741461042c578063218b39c61461045957806324cc57491461047957806325decac0146104a657610381565b8063065d810f146103af5780630676c1b7146103ea57806317548b791461040c575b34801561038d57600080fd5b5060405162461bcd60e51b81526004016103a690614eda565b60405180910390fd5b3480156103bb57600080fd5b506103cf6103ca366004613e7c565b610a59565b6040516103e196959493929190614fcf565b60405180910390f35b3480156103f657600080fd5b506103ff610a99565b6040516103e1919061494a565b34801561041857600080fd5b506103ff61042736600461400f565b610aa8565b34801561043857600080fd5b5061044c610447366004613d46565b610ac3565b6040516103e19190614f8a565b34801561046557600080fd5b506103ff610474366004613d28565b610ae0565b34801561048557600080fd5b50610499610494366004613d28565b610afb565b6040516103e19190614c27565b3480156104b257600080fd5b5061044c6104c1366004613d80565b610b10565b3480156104d257600080fd5b5061044c610b6b565b3480156104e757600080fd5b5061044c610b71565b3480156104fc57600080fd5b5061051061050b366004613f07565b610b77565b005b34801561051e57600080fd5b506103cf61052d366004613e7c565b610be4565b34801561053e57600080fd5b5061044c61054d366004613d28565b610c24565b34801561055e57600080fd5b5061044c61056d366004613d28565b610c36565b34801561057e57600080fd5b5061049961058d366004613ee8565b610c48565b34801561059e57600080fd5b5061044c6105ad366004613d28565b610c68565b3480156105be57600080fd5b5061044c610c7a565b3480156105d357600080fd5b5061044c610c80565b3480156105e857600080fd5b506105fc6105f7366004613eca565b610c86565b6040516103e193929190614fa6565b34801561061757600080fd5b5061044c610ca7565b34801561062c57600080fd5b5061064061063b366004613d46565b610cad565b6040516103e1959493929190614fb4565b34801561065d57600080fd5b5061049961066c366004613d28565b610ce7565b34801561067d57600080fd5b506103ff61068c366004613d28565b610cfc565b34801561069d57600080fd5b506103ff610d17565b3480156106b257600080fd5b5061044c610d26565b3480156106c757600080fd5b506103ff610d2c565b3480156106dc57600080fd5b5061044c610d3b565b3480156106f157600080fd5b50610499610d41565b34801561070657600080fd5b506103ff610d4a565b34801561071b57600080fd5b506103ff61072a366004613d28565b610d59565b34801561073b57600080fd5b50610499610d74565b34801561075057600080fd5b5061044c61075f366004613d28565b610d9a565b34801561077057600080fd5b5061044c610dac565b34801561078557600080fd5b5061044c610db2565b34801561079a57600080fd5b5061044c610db8565b3480156107af57600080fd5b506107b8610dbe565b6040516103e19190614d2b565b3480156107d157600080fd5b5061044c6107e0366004613d28565b610dcd565b3480156107f157600080fd5b5061044c610800366004613d28565b610ddf565b34801561081157600080fd5b506103ff610df1565b34801561082657600080fd5b506103ff610e00565b34801561083b57600080fd5b5061044c61084a366004613d28565b610e0f565b34801561085b57600080fd5b5061086f61086a366004613eca565b610e21565b6040516103e19c9b9a99989796959493929190614c78565b34801561089357600080fd5b506105106108a2366004613d28565b610e93565b3480156108b357600080fd5b506108c76108c2366004613eca565b610f96565b6040516103e1989796959493929190614c35565b3480156108e757600080fd5b5061044c6108f6366004613d46565b610fe8565b34801561090757600080fd5b506103ff611005565b34801561091c57600080fd5b5061044c611014565b34801561093157600080fd5b5061044c610940366004613d28565b61101a565b34801561095157600080fd5b5061044c610960366004613df5565b61102c565b610978610973366004613f54565b6110fa565b6040516103e1929190614f98565b34801561099257600080fd5b5061044c6109a1366004613d80565b6112fa565b3480156109b257600080fd5b506103ff61146e565b3480156109c757600080fd5b5061044c61147d565b3480156109dc57600080fd5b5061044c611483565b3480156109f157600080fd5b50610510610a00366004613d28565b611489565b348015610a1157600080fd5b5061044c6114b9565b348015610a2657600080fd5b5061044c6114bf565b348015610a3b57600080fd5b506103ff6114c5565b348015610a5057600080fd5b506103ff6114d4565b6009602090815260009283526040808420909152908252902080546001820154600283015460038401546004850154600590950154939492939192909186565b6031546001600160a01b031681565b6005602052600090815260409020546001600160a01b031681565b603b60209081526000928352604080842090915290825290205481565b6023602052600090815260409020546001600160a01b031681565b60326020526000908152604090205460ff1681565b60008215610b6257610b2586868686866114e3565b9050600082610b3c57610b378261161c565b610b45565b610b4582611652565b90508015610b6057610b5d828263ffffffff61167616565b91505b505b95945050505050565b60185481565b601f5481565b603d5460ff1615610b9a5760405162461bcd60e51b81526004016103a690614d5a565b6000838152600660205260409020600a01546001600160a01b03163314610bd35760405162461bcd60e51b81526004016103a690614e9a565b610bdf833384846116a2565b505050565b6008602090815260009283526040808420909152908252902080546001820154600283015460038401546004850154600590950154939492939192909186565b601a6020526000908152604090205481565b602a6020526000908152604090205481565b600a60209081526000928352604080842090915290825290205460ff1681565b60166020526000908152604090205481565b60155481565b60295481565b600c6020526000908152604090208054600182015460029092015490919083565b602b5481565b600b602090815260009283526040808420909152908252902080546001820154600283015460038401546004909401549293919290919085565b60266020526000908152604090205460ff1681565b6033602052600090815260409020546001600160a01b031681565b6003546001600160a01b031681565b60355481565b6002546001600160a01b031681565b601e5481565b603d5460ff1681565b6001546001600160a01b031690565b6022602052600090815260409020546001600160a01b031681565b6001546000906001600160a01b0316610d8b611717565b6001600160a01b031614905090565b60176020526000908152604090205481565b602c5481565b602f5481565b60205481565b602d546001600160a01b031681565b601d6020526000908152604090205481565b601c6020526000908152604090205481565b6037546001600160a01b031681565b6004546001600160a01b031681565b60366020526000908152604090205481565b600660208190526000918252604090912080546001820154600283015460038401546004850154600586015496860154600787015460088801546009890154600a8a0154600b909a0154989a9799969860ff909616979496949593949293919290916001600160a01b0391821691168c565b610e9b610d74565b610eb75760405162461bcd60e51b81526004016103a690614e9a565b633613289560e21b600081905260056020527fd3a886345208a8e3a0f774019653c4e69589e943ba1e46c7fa0ef875651e6e39546001600160a01b031690610eff908361171b565b610f106333d8991f60e01b8361171b565b610f2163d67f707760e01b8361171b565b610f3162977b2b60e61b8361171b565b610f4263e762319f60e01b8361171b565b6b4c6f616e4f70656e696e677360a01b826001600160a01b0316826001600160a01b03167f1420e3a2094d671bc2eb897941fa3d94ffa37f0cb6d530651946250a2151cb7f60405160405180910390a45050565b6007602052600090815260409020805460018201546002830154600384015460048501546005860154600690960154949560ff8516956101009095046001600160a01b03908116959481169493169288565b603c60209081526000928352604080842090915290825290205481565b6038546001600160a01b031681565b60275481565b60196020526000908152604090205481565b60006224ea008161105d6907baab4146b63dd00000611051868863ffffffff61179516565b9063ffffffff6117cf16565b9050600061107862015180611051858563ffffffff61179516565b9050600061108c898363ffffffff61181116565b905060006110998261161c565b905080156110b4576110b1828263ffffffff61181116565b91505b60006110c18d8d85611853565b9050806110d757600096505050505050506110f0565b6110e78a8263ffffffff61167616565b96505050505050505b9695505050505050565b60008060016000541461111f5760405162461bcd60e51b81526004016103a690614f0a565b6002600055603d5460ff16156111475760405162461bcd60e51b81526004016103a690614d5a565b34158061115357508215155b61116f5760405162461bcd60e51b81526004016103a690614f3a565b336000908152602260205260409020546001600160a01b03166111a45760405162461bcd60e51b81526004016103a690614e7a565b6111ac613a84565b5060008a815260076020908152604091829020825161010080820185528254808352600184015460ff811615159584019590955293046001600160a01b039081169482019490945260028201548416606082015260038201549093166080840152600481015460a0840152600581015460c08401526006015460e08301526112465760405162461bcd60e51b81526004016103a690614eca565b60006112618260600151836080015189602001358c8e6114e3565b9050806112805760405162461bcd60e51b81526004016103a690614e6a565b6112e2828c8c848d611297368f90038f018f61402d565b6112a6368f90038f018f61404b565b8d8d8080601f01602080910402602001604051908101604052809392919081815260200183838082843760009201919091525061190292505050565b6001600055909d909c509a5050505050505050505050565b60008215610b62578115611324576113218368056bc75e2d6310000063ffffffff61167616565b92505b8360008361133a576113358261161c565b611343565b61134382611652565b9050801561135e5761135b828263ffffffff61181116565b91505b866001600160a01b0316886001600160a01b0316141561139c57611395856110518468056bc75e2d6310000063ffffffff61179516565b9250611463565b600254604051630a7549df60e21b815260009182916001600160a01b03909116906329d5277c906113d3908c908e90600401614958565b604080518083038186803b1580156113ea57600080fd5b505afa1580156113fe573d6000803e3d6000fd5b505050506040513d601f19601f820116820180604052506114229190810190614088565b91509150806000146114605761145d816110518981866114518a68056bc75e2d6310000063ffffffff61179516565b9063ffffffff61179516565b94505b50505b505095945050505050565b6014546001600160a01b031681565b601b5481565b60285481565b611491610d74565b6114ad5760405162461bcd60e51b81526004016103a690614e9a565b6114b681611c3b565b50565b60395481565b60215481565b602e546001600160a01b031681565b6030546001600160a01b031681565b6000846001600160a01b0316866001600160a01b031614156115235761151c68056bc75e2d63100000611051868663ffffffff61179516565b90506115de565b600254604051630a7549df60e21b815260009182916001600160a01b03909116906329d5277c9061155a908a908c90600401614958565b604080518083038186803b15801561157157600080fd5b505afa158015611585573d6000803e3d6000fd5b505050506040513d601f19601f820116820180604052506115a99190810190614088565b91509150816000146115db576115d868056bc75e2d631000006110518761145186838c8863ffffffff61179516565b92505b50505b8180156115ea57508015155b15610b62576110f081611610856110518368056bc75e2d6310000063ffffffff61179516565b9063ffffffff61167616565b600061164c68056bc75e2d631000006116406018548561179590919063ffffffff16565b9063ffffffff611cbd16565b92915050565b600061164c68056bc75e2d63100000611640601b548561179590919063ffffffff16565b60008282018381101561169b5760405162461bcd60e51b81526004016103a690614dba565b9392505050565b6000848152600a602090815260408083206001600160a01b038681168086529190935292819020805460ff1916851515179055519085169086907f0eef4f90457a741c97d76fcf13fa231fefdcc7649bdb3cb49157c37111c9843390611709908690614c27565b60405180910390a450505050565b3390565b6001600160e01b03198216600090815260056020526040902080546001600160a01b0319166001600160a01b0383169081179091551561177657611770600d6001600160e01b0319841663ffffffff611cff16565b50611791565b610bdf600d6001600160e01b0319841663ffffffff611d4716565b5050565b6000826117a45750600061164c565b828202828482816117b157fe5b041461169b5760405162461bcd60e51b81526004016103a690614e8a565b600061169b83836040518060400160405280601a81526020017f536166654d6174683a206469766973696f6e206279207a65726f000000000000815250611e08565b600061169b83836040518060400160405280601e81526020017f536166654d6174683a207375627472616374696f6e206f766572666c6f770000815250611e3f565b600354600480546001600160a01b0386811660009081526040602081815281832089851684529052808220905163132b65e360e21b81529195831694634cad978c946118aa948b948b948b94939092169201614a38565b60206040518083038186803b1580156118c257600080fd5b505afa1580156118d6573d6000803e3d6000fd5b505050506040513d601f19601f820116820180604052506118fa919081019061406a565b949350505050565b60008089606001516001600160a01b03168a608001516001600160a01b0316141561193f5760405162461bcd60e51b81526004016103a690614dda565b8960a001518610156119635760405162461bcd60e51b81526004016103a690614f6a565b60e08a01511515806119785750604084015115155b6119945760405162461bcd60e51b81526004016103a690614d7a565b6000600660006119ab8d8d8b8b8b60200151611e6b565b8152602001908152602001600020905060006119d68c83886000015189602001518a6040015161225d565b60608701519091506119ee908263ffffffff61181116565b60608701528915611a7657606086015115611a1b5760405162461bcd60e51b81526004016103a690614e3a565b6000611a2a8760800151611652565b60808e015160608f0151919250908215611a6e57611a538a602001518660000154848487612479565b6080890151611a68908463ffffffff61181116565b60808a01525b505050611ae8565b6000611a9b8c8e606001518f608001518b602001518b6060015160008060008e612518565b60c08a0152506080880151909150611ab9908263ffffffff61167616565b608088015260a087015160c08801511015611ae65760405162461bcd60e51b81526004016103a690614d9a565b505b60408051610180810182528354815260018401546020820152600284015491810191909152600383015460ff16151560608201526004830154608080830191909152600584015460a0830152600684015460c0830152600784015460e083015260088401546101008301526009840154610120830152600a8401546001600160a01b03908116610140840152600b85015416610160830152870151611b91918e918b908d612676565b611bad5760405162461bcd60e51b81526004016103a690614eaa565b60808601516005830154611bc69163ffffffff61167616565b60058301558915611bf0576007820154611be6904263ffffffff61181116565b60e0870152611c11565b611c0a6f4b3b4ca85a86c47a098a224000000000896117cf565b6101008701525b611c1e8c8389898e61277c565b856020015186608001519350935050509850989650505050505050565b6001600160a01b038116611c615760405162461bcd60e51b81526004016103a690614d8a565b6001546040516001600160a01b038084169216907f8be0079c531659141344cd1fd0a4f28419497f9722a3daafe3b4186f6b6457e090600090a3600180546001600160a01b0319166001600160a01b0392909216919091179055565b600061169b83836040518060400160405280601a81526020017f536166654d6174683a206469766973696f6e206279207a65726f000000000000815250612a4f565b6000611d0b8383612a99565b611d3f575060018083018054808301808355600092835260208084209092018590558483529085905260409091205561164c565b50600061164c565b6000611d538383612a99565b15611d3f5760008281526020849052604090205460018401546000199182019101808214611dcb576000856001018281548110611d8c57fe5b9060005260206000200154905080866001018481548110611da957fe5b6000918252602080832090910192909255918252869052604090206001830190555b60008481526020869052604081205560018501805480611de757fe5b6001900381819060005260206000200160009055905560019250505061164c565b60008183611e295760405162461bcd60e51b81526004016103a69190614d39565b506000838581611e3557fe5b0495945050505050565b60008184841115611e635760405162461bcd60e51b81526004016103a69190614d39565b505050900390565b60008560200151611e8e5760405162461bcd60e51b81526004016103a690614efa565b825160208401516060850151611ea2613ac8565b88611ff9576001600160a01b0383166000908152602a60209081526040918290208054600101908190558c519251611ee19392889288929091016148f6565b60408051601f1981840301815291815281516020928301206000818152600690935291205490995015611f265760405162461bcd60e51b81526004016103a690614e2a565b5060408051610180810182528981528a5160208201526000918101829052600160608201526080810187905260a081018290524260c082015260e0810182905261010081018990526101208101919091526001600160a01b038084166101408301528416610160820152611fa1600f8a63ffffffff611cff16565b506001600160a01b0384166000908152601160205260409020611fca908a63ffffffff611cff16565b506001600160a01b0383166000908152601260205260409020611ff3908a63ffffffff611cff16565b5061217a565b5060008881526006602081815260409283902083516101808101855281548152600182015492810192909252600281015493820193909352600383015460ff161580156060830181905260048501546080840152600585015460a08401529284015460c0830152600784015460e083015260088401546101008301526009840154610120830152600a8401546001600160a01b03908116610140840152600b90940154909316610160820152916120b357508060e0015142105b6120cf5760405162461bcd60e51b81526004016103a690614e4a565b826001600160a01b03168161014001516001600160a01b0316146121055760405162461bcd60e51b81526004016103a690614daa565b836001600160a01b03168161016001516001600160a01b03161461213b5760405162461bcd60e51b81526004016103a690614e0a565b895160208201511461215f5760405162461bcd60e51b81526004016103a690614d4a565b6080810151612174908763ffffffff61167616565b60808201525b6001600160a01b038216156121965761219689848460016116a2565b60008981526006602081815260409283902084518155908401516001820155918301516002830155606083015160038301805460ff19169115159190911790556080830151600483015560a0830151600583015560c08301519082015560e0820151600782015561010082015160088201556101208201516009820155610140820151600a820180546001600160a01b03199081166001600160a01b039384161790915561016090930151600b909201805490931691161790555095979650505050505050565b600b840154606086015160009161227f916001600160a01b0390911690612aae565b84546000818152600c60209081526040808320600b808b01546001600160a01b03908116865290845282852060608d0180518316875294529190932060e08b0151925160808c0151600a8c0154959692956122e09488949392911642612b8c565b6000811580156122f35750600789015415155b156123215761231e620151806110518660000154611451428e6007015461181190919063ffffffff16565b90505b60006123416907baab4146b63dd000006110518a8c63ffffffff61179516565b8554909150612356908263ffffffff61167616565b8555600184015461236d908263ffffffff61167616565b6001850155826123dc57845461239a90429061161090611051620151806114518d8963ffffffff61167616565b60078b018190556123b1904263ffffffff61181116565b9250610e1083116123d45760405162461bcd60e51b81526004016103a690614dca565b869550612420565b60078a01546123fb576123f5428463ffffffff61167616565b60078b01555b61241d6201518061105183611451428f6007015461181190919063ffffffff16565b95505b6001850154612435908763ffffffff61167616565b6001860155835461244c908963ffffffff61167616565b84556002840154612463908763ffffffff61167616565b8460020181905550505050505095945050505050565b8015612511576001600160a01b0383166000908152601c60205260409020546124a8908263ffffffff61167616565b6001600160a01b038085166000818152601c6020526040908190209390935591518692918816907ffb6c38ae4fdd498b3a5003f02ca4ca5340dfedb36b1b100c679eb60633b2c0a7906124fc908690614f8a565b60405180910390a46125118585858585612bda565b5050505050565b6040805160a0810182526001600160a01b03808b16825289811660208084019190915230838501819052606080850191909152918a1660808401528351918201845288825281018790529182018590526000918291829161257d91908e888886613040565b909350915061258c8b83613265565b600254602754604051631e2c62d360e01b81526001600160a01b0390921691631e2c62d3916125c5918f918f9188918a91600401614ab2565b60206040518083038186803b1580156125dd57600080fd5b505afa1580156125f1573d6000803e3d6000fd5b505050506040513d601f19601f82011682018060405250612615919081019061406a565b9050896001600160a01b03168b6001600160a01b03168d7fb4eb3c9b62efcce7021cba5fd9cd0c44df91c2272806ccc5e57df7c912e8d7168c868860405161265f93929190614c0c565b60405180910390a499509950999650505050505050565b600061269e68056bc75e2d631000006110518468055005f0c61448000063ffffffff61179516565b9150818310156127705760a0850151156127685760025460608701516080808901519088015160a089015160405163f80b25fb60e01b81526000956001600160a01b03169463f80b25fb946126fb94919390928c90600401614ab2565b60206040518083038186803b15801561271357600080fd5b505afa158015612727573d6000803e3d6000fd5b505050506040513d601f19601f8201168201806040525061274b919081019061406a565b90508261275e858363ffffffff61167616565b1015915050610b62565b506000610b62565b50600195945050505050565b6002546060860151608087015160048088015460058901546040516317f8680960e11b815260009687966001600160a01b0390911695632ff0d012956127c6959294919301614a8a565b604080518083038186803b1580156127dd57600080fd5b505afa1580156127f1573d6000803e3d6000fd5b505050506040513d601f19601f820116820180604052506128159190810190614088565b915091508660c00151821161283c5760405162461bcd60e51b81526004016103a690614eba565b42866006015414156129a2576002546060880151608089015160405163524efd4b60e01b81526000936001600160a01b03169263524efd4b9261288192600401614958565b60206040518083038186803b15801561289957600080fd5b505afa1580156128ad573d6000803e3d6000fd5b505050506040513d601f19601f820116820180604052506128d1919081019061406a565b60025460808a015160608b015160405163524efd4b60e01b81529394506000936001600160a01b039093169263524efd4b92612911929091600401614958565b60206040518083038186803b15801561292957600080fd5b505afa15801561293d573d6000803e3d6000fd5b505050506040513d601f19601f82011682018060405250612961919081019061406a565b90506000612975838363ffffffff61179516565b9050856129975760c087015161299290829063ffffffff6117cf16565b612999565b835b60098a01555050505b60408051610180810182528754815260018801546020820152600288015491810191909152600387015460ff161515606082015260048701546080820152600587015460a0820152600687015460c0820152600787015460e082015260088701546101008201526009870154610120820152600a8701546001600160a01b03908116610140830152600b88015416610160820152612a469088908787858789613333565b50505050505050565b60008183612a705760405162461bcd60e51b81526004016103a69190614d39565b5083612a7e5750600061169b565b6000836001860381612a8c57fe5b0460010195945050505050565b60009081526020919091526040902054151590565b6001600160a01b038083166000908152600b602090815260408083209385168352929052908120600181015490919015801590612aee5750600482015415155b15612b7f57612b1962015180611051846001015461145186600401544261181190919063ffffffff16565b4260048401556002830154909150811115612b35575060028101545b8015612b7a576003820154612b50908263ffffffff61167616565b60038301556002820154612b6a908263ffffffff61181116565b6002830155612b7a84848361346a565b612b86565b4260048301555b50505050565b6000612bc26a07259756a8d619980000006110516015546114518b600001546114518d600201548961181190919063ffffffff16565b6002880183905590508015612a4657612a4683878787855b602f546002546001600160a01b038581166000908152603c602090815260408083208885168452909152812054909392919091169015612c3d576001600160a01b038087166000908152603c602090815260408083209389168352929052205491505b6037546000906060906001600160a01b038085169163d138f9a160e01b918b9116612c7b68056bc75e2d631000006110518c8b63ffffffff61179516565b604051602401612c8d93929190614a10565b60408051601f198184030181529181526020820180516001600160e01b03166001600160e01b0319909416939093179092529051612ccb919061493e565b600060405180830381855afa9150503d8060008114612d06576040519150601f19603f3d011682016040523d82523d6000602084013e612d0b565b606091505b50915091506001821415612d2157602081015194505b6000306001600160a01b031663c22552f76040518163ffffffff1660e01b815260040160206040518083038186803b158015612d5c57600080fd5b505afa158015612d70573d6000803e3d6000fd5b505050506040513d601f19601f82011682018060405250612d94919081019061406a565b90508515801590612da55750858110155b15612fcd5760375460385460405163095ea7b360e01b81526001600160a01b039283169263095ea7b392612de0929116908a90600401614bf1565b602060405180830381600087803b158015612dfa57600080fd5b505af1158015612e0e573d6000803e3d6000fd5b505050506040513d601f19601f82011682018060405250612e329190810190613eac565b50603854603f546040516000926001600160a01b031691612e59918f918b91602401614c0c565b60408051601f198184030181529181526020820180516001600160e01b0316630efe6a8b60e01b17905251612e8e919061493e565b6000604051808303816000865af19150503d8060008114612ecb576040519150601f19603f3d011682016040523d82523d6000602084013e612ed0565b606091505b505090508015612f5f57601f54612eed908863ffffffff61167616565b601f819055508a603760009054906101000a90046001600160a01b03166001600160a01b03168d6001600160a01b03167ff41c644671512f1cda76abfe6038e3d7d526c1377a5a8c692f81703901db2150898b603f54604051612f5293929190614fa6565b60405180910390a4612fc7565b8a603760009054906101000a90046001600160a01b03166001600160a01b03168d6001600160a01b03167f483f67ea49f76ac15e15bbad68b52788ca47d50aef1e4acfe95e5e307e710812898b603f54604051612fbe93929190614fa6565b60405180910390a45b50613033565b8515801590612fdb57508581105b1561303357603754603f546040518c926001600160a01b0390811692908f16917f483f67ea49f76ac15e15bbad68b52788ca47d50aef1e4acfe95e5e307e7108129161302a918b918d91614fa6565b60405180910390a45b5050505050505050505050565b845160009081901515806130575750602087015115155b6130735760405162461bcd60e51b81526004016103a690614eea565b602087015161308457865160208801525b6020870151875111156130a95760405162461bcd60e51b81526004016103a690614e1a565b6000806000876131665760408a01516131255785156130da576130d38a60005b602002015161350f565b90506130ee565b6130eb8a60005b602002015161161c565b90505b80156131205760808b01518b5161311191908b908e60015b602002015185613533565b895161311d9082611811565b8a525b613166565b851561313d576131368a60026130c9565b905061314b565b6131488a60026130e1565b90505b80156131665760408a01516131609082611676565b60408b01525b8651156131855760405162461bcd60e51b81526004016103a690614f1a565b61318f8b8b613683565b60408c015191945092506131db57895182146131bd5760405162461bcd60e51b81526004016103a690614f5a565b80156131d6576131d3828263ffffffff61167616565b91505b613255565b60208a01518211156131ff5760405162461bcd60e51b81526004016103a690614dfa565b60408a01518310156132235760405162461bcd60e51b81526004016103a690614d6a565b80156132555760808b015160208c015161324291908b908e6000613106565b613252838263ffffffff61181116565b92505b5090999098509650505050505050565b6029548015610bdf57602d546000906001600160a01b038581169116141561328e575081613313565b600254604051635967aa7560e11b81526001600160a01b039091169063b2cf54ea906132c09087908790600401614bf1565b60206040518083038186803b1580156132d857600080fd5b505afa1580156132ec573d6000803e3d6000fd5b505050506040513d601f19601f82011682018060405250613310919081019061406a565b90505b81811115612b865760405162461bcd60e51b81526004016103a690614e5a565b80156133bc57856000015185600001516001600160a01b031686602001516001600160a01b03167f7bd8cbb7ba34b33004f3deda0fd36c92fc0360acbd97843360037b467a538f908a606001518b6080015189602001518a608001518b600001518c60e001518c8c6040516133af989796959493929190614af4565b60405180910390a4612a46565b6133d66f4b3b4ca85a86c47a098a224000000000836117cf565b9150856000015185600001516001600160a01b031686602001516001600160a01b03167ff640c1cfe1a912a0b0152b5a542e5c2403142eed75b06cde526cee54b1580e5c8a608001518b6060015189608001518a602001518b600001518e60e001518d60c001518e61010001518d60405161345999989796959493929190614b6b565b60405180910390a450505050505050565b600061348e68056bc75e2d631000006110516015548561179590919063ffffffff16565b905061349b848483613795565b6134b583856134b0858563ffffffff61181116565b613823565b6001600160a01b038085169084167f220e66e3e759e1382aa86cd8af5abca05ebf3ad564f223ae62d977678337272a6134f4858563ffffffff61181116565b6040516135019190614f8a565b60405180910390a350505050565b600061164c68056bc75e2d63100000611640603e548561179590919063ffffffff16565b80801561367b576001600160a01b0386811660009081526033602052604090205416156135e9576001600160a01b038087166000908152603360205260409020546135819116878684613886565b50506135e66135a868056bc75e2d631000006110516039548561179590919063ffffffff16565b6135da6135cd68056bc75e2d631000006110516020548761179590919063ffffffff16565b849063ffffffff61181116565b9063ffffffff61181116565b90505b6001600160a01b038416600090815260196020526040902054613612908263ffffffff61167616565b6001600160a01b03808616600081815260196020526040908190209390935591518792918916907fb23479169712c443e6b00fb0cec3506a5f5926f541df4243d313e11c8c5c71ed90613666908690614f8a565b60405180910390a461367b8686868686612bda565b505050505050565b815160208084015160408086015160608781015187519588015188850151945160009889989497630957ba1160e21b976136ca979296919592949293919291602401614973565b60408051601f198184030181529181526020820180516001600160e01b03166001600160e01b03199094169390931790925260035491519092506000916001600160a01b03169061371c90849061493e565b600060405180830381855af49150503d8060008114613757576040519150601f19603f3d011682016040523d82523d6000602084013e61375c565b606091505b50925090508061377e5760405162461bcd60e51b81526004016103a690614f4a565b602082015193506040820151925050509250929050565b8015610bdf576001600160a01b0382166000908152601660205260409020546137c4908263ffffffff61167616565b6001600160a01b0380841660008181526016602052604090819020939093559151908516907f40a75ae5f7a5336e75f7c7977e12c4b46a9ac0f30de01a2d5b6c1a4f4af6358790613816908590614f8a565b60405180910390a3505050565b8015610bdf576138436001600160a01b038416838363ffffffff61391216565b816001600160a01b0316836001600160a01b03167fc44aeefa68e8b9c1ad5f7be4b0dd194580f81f5c362862e72196503a320eb7a1836040516138169190614f8a565b6040516306a688ff60e11b815260009081903090630d4d11fe906138b49089908990899089906004016149db565b6040805180830381600087803b1580156138cd57600080fd5b505af11580156138e1573d6000803e3d6000fd5b505050506040513d601f19601f820116820180604052506139059190810190614088565b9097909650945050505050565b604051610bdf90849063a9059cbb60e01b906139349086908690602401614bf1565b60408051601f198184030181529190526020810180516001600160e01b03166001600160e01b031990931692909217909152613978826001600160a01b0316613a4b565b6139945760405162461bcd60e51b81526004016103a690614f7a565b60006060836001600160a01b0316836040516139b0919061493e565b6000604051808303816000865af19150503d80600081146139ed576040519150601f19603f3d011682016040523d82523d6000602084013e6139f2565b606091505b509150915081613a145760405162461bcd60e51b81526004016103a690614dea565b805115612b865780806020019051613a2f9190810190613eac565b612b865760405162461bcd60e51b81526004016103a690614f2a565b6000813f7fc5d2460186f7233c927e7db2dcc703c0e500b653ca82273b7bfad8045d85a4708181148015906118fa575050151592915050565b6040805161010081018252600080825260208201819052918101829052606081018290526080810182905260a0810182905260c0810182905260e081019190915290565b6040805161018081018252600080825260208201819052918101829052606081018290526080810182905260a0810182905260c0810182905260e0810182905261010081018290526101208101829052610140810182905261016081019190915290565b803561164c81615110565b803561164c81615124565b805161164c81615124565b803561164c8161512d565b803561164c81615136565b60008083601f840112613b7557600080fd5b50813567ffffffffffffffff811115613b8d57600080fd5b602083019150836001820283011115613ba557600080fd5b9250929050565b600060808284031215613bbe57600080fd5b50919050565b600060808284031215613bd657600080fd5b613be0608061501e565b90506000613bee8484613b2c565b8252506020613bff84848301613b2c565b6020830152506040613c1384828501613b2c565b6040830152506060613c2784828501613b2c565b60608301525092915050565b60006101208284031215613bbe57600080fd5b60006101208284031215613c5957600080fd5b613c6461012061501e565b90506000613c728484613b4d565b8252506020613c8384848301613b4d565b6020830152506040613c9784828501613b4d565b6040830152506060613cab84828501613b4d565b6060830152506080613cbf84828501613b4d565b60808301525060a0613cd384828501613b4d565b60a08301525060c0613ce784828501613b4d565b60c08301525060e0613cfb84828501613b4d565b60e083015250610100613d1084828501613b4d565b6101008301525092915050565b805161164c8161512d565b600060208284031215613d3a57600080fd5b60006118fa8484613b2c565b60008060408385031215613d5957600080fd5b6000613d658585613b2c565b9250506020613d7685828601613b2c565b9150509250929050565b600080600080600060a08688031215613d9857600080fd5b6000613da48888613b2c565b9550506020613db588828901613b2c565b9450506040613dc688828901613b4d565b9350506060613dd788828901613b4d565b9250506080613de888828901613b37565b9150509295509295909350565b60008060008060008060c08789031215613e0e57600080fd5b6000613e1a8989613b2c565b9650506020613e2b89828a01613b2c565b9550506040613e3c89828a01613b4d565b9450506060613e4d89828a01613b4d565b9350506080613e5e89828a01613b4d565b92505060a0613e6f89828a01613b4d565b9150509295509295509295565b60008060408385031215613e8f57600080fd5b6000613e9b8585613b2c565b9250506020613d7685828601613b4d565b600060208284031215613ebe57600080fd5b60006118fa8484613b42565b600060208284031215613edc57600080fd5b60006118fa8484613b4d565b60008060408385031215613efb57600080fd5b6000613d658585613b4d565b600080600060608486031215613f1c57600080fd5b6000613f288686613b4d565b9350506020613f3986828701613b2c565b9250506040613f4a86828701613b37565b9150509250925092565b600080600080600080600080610240898b031215613f7157600080fd5b6000613f7d8b8b613b4d565b9850506020613f8e8b828c01613b4d565b9750506040613f9f8b828c01613b37565b9650506060613fb08b828c01613b4d565b9550506080613fc18b828c01613bac565b945050610100613fd38b828c01613c33565b93505061022089013567ffffffffffffffff811115613ff157600080fd5b613ffd8b828c01613b63565b92509250509295985092959890939650565b60006020828403121561402157600080fd5b60006118fa8484613b58565b60006080828403121561403f57600080fd5b60006118fa8484613bc4565b6000610120828403121561405e57600080fd5b60006118fa8484613c46565b60006020828403121561407c57600080fd5b60006118fa8484613d1d565b6000806040838503121561409b57600080fd5b60006140a78585613d1d565b9250506020613d7685828601613d1d565b60006140c4838361419e565b505060200190565b6140d581615079565b82525050565b6140d56140e782615079565b6150e3565b60006140f782615051565b614101818561505f565b935061410c83615045565b8060005b8381101561414157614121826150f4565b61412b88826140b8565b975061413683615059565b925050600101614110565b509495945050505050565b6140d581615084565b6140d581615089565b6140d561416a82615089565b615089565b600061417a82615055565b6141848185615068565b93506141948185602086016150a4565b9290920192915050565b6140d581615099565b60006141b282615055565b6141bc818561505f565b93506141cc8185602086016150a4565b6141d581615100565b9093019392505050565b60006141ec60138361505f565b720d8dec2dca0c2e4c2dae640dad2e6dac2e8c6d606b1b815260200192915050565b600061421b60068361505f565b6514185d5cd95960d21b815260200192915050565b600061423d601b8361505f565b7f696e73756666696369656e742073776170206c69717569646974790000000000815260200192915050565b600061427660108361505f565b6f1a5b9d985b1a59081a5b9d195c995cdd60821b815260200192915050565b60006142a260268361505f565b7f4f776e61626c653a206e6577206f776e657220697320746865207a65726f206181526564647265737360d01b602082015260400192915050565b60006142ea601d8361505f565b7f656e7472792070726963652061626f766520746865206d696e696d756d000000815260200192915050565b600061432360118361505f565b700c4dee4e4deeecae440dad2e6dac2e8c6d607b1b815260200192915050565b6000614350601b8361505f565b7f536166654d6174683a206164646974696f6e206f766572666c6f770000000000815260200192915050565b6000614389600e8361505f565b6d1b1bd85b881d1bdbc81cda1bdc9d60921b815260200192915050565b60006143b360158361505f565b740c6ded8d8c2e8cae4c2d85ed8dec2dc40dac2e8c6d605b1b815260200192915050565b60006143e460208361505f565b7f5361666545524332303a206c6f772d6c6576656c2063616c6c206661696c6564815260200192915050565b600061441d60138361505f565b72737761702066696c6c20746f6f206c6172676560681b815260200192915050565b600061444c600f8361505f565b6e0d8cadcc8cae440dad2e6dac2e8c6d608b1b815260200192915050565b6000614477601c8361505f565b7f736f75726365416d6f756e74206c6172676572207468616e206d617800000000815260200192915050565b60006144b0600b8361505f565b6a6c6f616e2065786973747360a81b815260200192915050565b60006144d760128361505f565b7139bab938363ab9903637b0b7103a37b5b2b760711b815260200192915050565b6000614505600e8361505f565b6d1b1bd85b881a185cc8195b99195960921b815260200192915050565b600061452f600e8361505f565b6d7377617020746f6f206c6172676560901b815260200192915050565b6000614559600f8361505f565b6e0636f6c6c61746572616c206973203608c1b815260200192915050565b6000614584600e8361505f565b6d1b9bdd08185d5d1a1bdc9a5e995960921b815260200192915050565b60006145ae60218361505f565b7f536166654d6174683a206d756c7469706c69636174696f6e206f766572666c6f8152607760f81b602082015260400192915050565b60006145f1600c8361505f565b6b1d5b985d5d1a1bdc9a5e995960a21b815260200192915050565b600061461960178361505f565b7f636f6c6c61746572616c20696e73756666696369656e74000000000000000000815260200192915050565b600061465260128361505f565b713ab73432b0b63a343c903837b9b4ba34b7b760711b815260200192915050565b600061468060158361505f565b746c6f616e506172616d73206e6f742065786973747360581b815260200192915050565b60006146b160148361505f565b7319985b1b189858dac81b9bdd08185b1b1bddd95960621b815260200192915050565b60006146e1602e8361505f565b7f6d696e206f72206d617820736f7572636520746f6b656e20616d6f756e74206e81526d1959591cc81d1bc81899481cd95d60921b602082015260400192915050565b600061473160138361505f565b721b1bd85b94185c985b5cc8191a5cd8589b1959606a1b815260200192915050565b6000614760600c8361505f565b6b1b9bdb9499595b9d1c985b9d60a21b815260200192915050565b6000614788600d8361505f565b6c696e76616c696420737461746560981b815260200192915050565b60006147b1602a8361505f565b7f5361666545524332303a204552433230206f7065726174696f6e20646964206e8152691bdd081cdd58d8d9595960b21b602082015260400192915050565b60006147fd60218361505f565b7f6c6f616e446174614279746573207265717569726564207769746820657468658152603960f91b602082015260400192915050565b6000614840600b8361505f565b6a1cddd85c0819985a5b195960aa1b815260200192915050565b600061486760168361505f565b751cddd85c081d1bdbc81b185c99d9481d1bc8199a5b1b60521b815260200192915050565b600061489960158361505f565b74696e697469616c4d617267696e20746f6f206c6f7760581b815260200192915050565b60006148ca601f8361505f565b7f5361666545524332303a2063616c6c20746f206e6f6e2d636f6e747261637400815260200192915050565b6000614902828761415e565b60208201915061491282866140db565b60148201915061492282856140db565b601482019150614932828461415e565b50602001949350505050565b600061169b828461416f565b6020810161164c82846140cc565b6040810161496682856140cc565b61169b60208301846140cc565b60e08101614981828a6140cc565b61498e60208301896140cc565b61499b60408301886140cc565b6149a860608301876140cc565b6149b56080830186614155565b6149c260a0830185614155565b6149cf60c0830184614155565b98975050505050505050565b608081016149e982876140cc565b6149f660208301866140cc565b614a0360408301856140cc565b610b626060830184614155565b60608101614a1e82866140cc565b614a2b60208301856140cc565b6118fa6040830184614155565b60a08101614a4682886140cc565b614a5360208301876140cc565b614a606040830186614155565b614a6d60608301856140cc565b8181036080830152614a7f81846140ec565b979650505050505050565b60808101614a9882876140cc565b614aa560208301866140cc565b614a036040830185614155565b60a08101614ac082886140cc565b614acd60208301876140cc565b614ada6040830186614155565b614ae76060830185614155565b6110f06080830184614155565b6101008101614b03828b6140cc565b614b10602083018a6140cc565b614b1d6040830189614155565b614b2a6060830188614155565b614b376080830187614155565b614b4460a0830186614155565b614b5160c0830185614155565b614b5e60e0830184614155565b9998505050505050505050565b6101208101614b7a828c6140cc565b614b87602083018b6140cc565b614b94604083018a614155565b614ba16060830189614155565b614bae6080830188614155565b614bbb60a0830187614155565b614bc860c0830186614155565b614bd560e0830185614155565b614be3610100830184614155565b9a9950505050505050505050565b60408101614bff82856140cc565b61169b6020830184614155565b60608101614c1a82866140cc565b614a2b6020830185614155565b6020810161164c828461414c565b6101008101614c44828b614155565b614c51602083018a61414c565b614c5e60408301896140cc565b614c6b60608301886140cc565b614b3760808301876140cc565b6101808101614c87828f614155565b614c94602083018e614155565b614ca1604083018d614155565b614cae606083018c61414c565b614cbb608083018b614155565b614cc860a083018a614155565b614cd560c0830189614155565b614ce260e0830188614155565b614cf0610100830187614155565b614cfe610120830186614155565b614d0c6101408301856140cc565b614d1a6101608301846140cc565b9d9c50505050505050505050505050565b6020810161164c828461419e565b6020808252810161169b81846141a7565b6020808252810161164c816141df565b6020808252810161164c8161420e565b6020808252810161164c81614230565b6020808252810161164c81614269565b6020808252810161164c81614295565b6020808252810161164c816142dd565b6020808252810161164c81614316565b6020808252810161164c81614343565b6020808252810161164c8161437c565b6020808252810161164c816143a6565b6020808252810161164c816143d7565b6020808252810161164c81614410565b6020808252810161164c8161443f565b6020808252810161164c8161446a565b6020808252810161164c816144a3565b6020808252810161164c816144ca565b6020808252810161164c816144f8565b6020808252810161164c81614522565b6020808252810161164c8161454c565b6020808252810161164c81614577565b6020808252810161164c816145a1565b6020808252810161164c816145e4565b6020808252810161164c8161460c565b6020808252810161164c81614645565b6020808252810161164c81614673565b6020808252810161164c816146a4565b6020808252810161164c816146d4565b6020808252810161164c81614724565b6020808252810161164c81614753565b6020808252810161164c8161477b565b6020808252810161164c816147a4565b6020808252810161164c816147f0565b6020808252810161164c81614833565b6020808252810161164c8161485a565b6020808252810161164c8161488c565b6020808252810161164c816148bd565b6020810161164c8284614155565b60408101614bff8285614155565b60608101614c1a8286614155565b60a08101614fc28288614155565b614acd6020830187614155565b60c08101614fdd8289614155565b614fea6020830188614155565b614ff76040830187614155565b6150046060830186614155565b6150116080830185614155565b614a7f60a0830184614155565b60405181810167ffffffffffffffff8111828210171561503d57600080fd5b604052919050565b60009081526020902090565b5490565b5190565b60010190565b90815260200190565b919050565b6001600160a01b031690565b600061164c8261506d565b151590565b90565b6001600160e01b03191690565b600061164c82615079565b60005b838110156150bf5781810151838201526020016150a7565b83811115612b865750506000910152565b600061164c6150de83615089565b61506d565b600061164c82600061164c8261510a565b600061164c82546150d0565b601f01601f191690565b60601b90565b61511981615079565b81146114b657600080fd5b61511981615084565b61511981615089565b6151198161508c56fea365627a7a7231582096d7dd3cc7c8df62aa9bc6b32fda1e1827fd98fc4f3f64642dcef5cb9b82b0d46c6578706572696d656e74616cf564736f6c63430005110040",
    "linkReferences": {}
  },
  "methodIdentifiers": {
    "admin()": "f851a440",
    "affiliateFeePercent()": "ae0a8530",
    "affiliateRewardsHeld(address)": "bdee453c",
    "affiliateTradingTokenFeePercent()": "f589a3e7",
    "affiliatesReferrerBalances(address,address)": "1b7bde74",
    "affiliatesUserReferrer(address)": "6e663730",
    "borrowOrTradeFromPool(bytes32,bytes32,bool,uint256,(address,address,address,address),(uint256,uint256,uint256,uint256,uint256,uint256,uint256,uint256,uint256),bytes)": "d84ca254",
    "borrowerNonce(address)": "3fca506e",
    "borrowerOrders(address,bytes32)": "065d810f",
    "borrowingFeePercent()": "edab119f",
    "borrowingFeeTokensHeld(address)": "b7e15241",
    "borrowingFeeTokensPaid(address)": "b30643d9",
    "delegatedManagers(bytes32,address)": "4115a2b6",
    "feeRebatePercent()": "acc04348",
    "feesController()": "e8f62764",
    "getBorrowAmount(address,address,uint256,uint256,bool)": "e762319f",
    "getEstimatedMarginExposure(address,address,uint256,uint256,uint256,uint256)": "d67f7077",
    "getRequiredCollateral(address,address,uint256,uint256,bool)": "25decac0",
    "initialize(address)": "c4d66de8",
    "isOwner()": "8f32d59b",
    "lenderInterest(address,address)": "62fff3f6",
    "lenderOrders(address,bytes32)": "3432423c",
    "lendingFeePercent()": "4699f846",
    "lendingFeeTokensHeld(address)": "4203e395",
    "lendingFeeTokensPaid(address)": "92d894f8",
    "liquidationIncentivePercent()": "f6ddc8b3",
    "loanInterest(bytes32)": "569fc1fb",
    "loanParams(bytes32)": "cb6eacd1",
    "loanPoolToUnderlying(address)": "8dc48ba5",
    "loans(bytes32)": "c4a90815",
    "lockedSOVAddress()": "d288208c",
    "logicTargets(bytes4)": "17548b79",
    "maxDisagreement()": "d473c2da",
    "maxSwapSize()": "4f28cac2",
    "minReferralsToPayout()": "742e6798",
    "owner()": "8da5cb5b",
    "pause()": "8456cb59",
    "priceFeeds()": "78d849ed",
    "protocolAddress()": "0676c1b7",
    "protocolTokenAddress()": "f706b1f2",
    "protocolTokenHeld()": "7a8faeb8",
    "protocolTokenPaid()": "2f470764",
    "rolloverBaseReward()": "574442cc",
    "rolloverFlexFeePercent()": "959083d3",
    "setDelegatedManager(bytes32,address,bool)": "33d8991f",
    "sourceBuffer()": "f0e085f5",
    "sovTokenAddress()": "b9cffa3e",
    "sovrynSwapContractRegistryAddress()": "ba4861e9",
    "specialRebates(address,address)": "cd5d808d",
    "supportedTokens(address)": "68c4ac26",
    "swapsImpl()": "7420ca3e",
    "tradingFeePercent()": "2a324027",
    "tradingFeeTokensHeld(address)": "d485045e",
    "tradingFeeTokensPaid(address)": "3452d2d4",
    "transferOwnership(address)": "f2fde38b",
    "underlyingToLoanPool(address)": "218b39c6",
    "userNotFirstTradeFlag(address)": "24cc5749",
    "wrbtcToken()": "afe84009"
  },
  "id": 170
}