{
  "address": "0xdf0B7D747CF648D2a6b1DFdcC11ecC9Cec58ad21",
  "abi": [
    {
      "inputs": [
        {
          "internalType": "address",
          "name": "_safeAddress",
          "type": "address"
        },
        {
          "internalType": "address",
          "name": "_lockDrop",
          "type": "address"
        },
        {
          "internalType": "address",
          "name": "_sovToken",
          "type": "address"
        },
        {
          "internalType": "address",
          "name": "_depositor",
          "type": "address"
        }
      ],
      "stateMutability": "nonpayable",
      "type": "constructor"
    },
    {
      "anonymous": false,
      "inputs": [
        {
          "indexed": false,
          "internalType": "uint256",
          "name": "amount",
          "type": "uint256"
        }
      ],
      "name": "DepositSOVToLockdrop",
      "type": "event"
    },
    {
      "anonymous": false,
      "inputs": [
        {
          "indexed": true,
          "internalType": "address",
          "name": "token",
          "type": "address"
        },
        {
          "indexed": false,
          "internalType": "uint256",
          "name": "amount",
          "type": "uint256"
        }
      ],
      "name": "DepositToLockdrop",
      "type": "event"
    },
    {
      "anonymous": false,
      "inputs": [],
      "name": "Pause",
      "type": "event"
    },
    {
      "anonymous": false,
      "inputs": [],
      "name": "Stop",
      "type": "event"
    },
    {
      "anonymous": false,
      "inputs": [],
      "name": "Unpause",
      "type": "event"
    },
    {
      "anonymous": false,
      "inputs": [
        {
          "indexed": true,
          "internalType": "address",
          "name": "from",
          "type": "address"
        },
        {
          "indexed": true,
          "internalType": "address",
          "name": "token",
          "type": "address"
        },
        {
          "indexed": false,
          "internalType": "uint256",
          "name": "amount",
          "type": "uint256"
        }
      ],
      "name": "Withdraw",
      "type": "event"
    },
    {
      "anonymous": false,
      "inputs": [
        {
          "indexed": true,
          "internalType": "address",
          "name": "token",
          "type": "address"
        },
        {
          "indexed": false,
          "internalType": "uint256",
          "name": "balance",
          "type": "uint256"
        }
      ],
      "name": "WithdrawBalanceFromSafe",
      "type": "event"
    },
    {
      "anonymous": false,
      "inputs": [
        {
          "indexed": false,
          "internalType": "address",
          "name": "oldDepositor",
          "type": "address"
        },
        {
          "indexed": false,
          "internalType": "address",
          "name": "newDepositor",
          "type": "address"
        }
      ],
      "name": "setDepositor",
      "type": "event"
    },
    {
      "inputs": [],
      "name": "ETH_TOKEN_ADDRESS",
      "outputs": [
        {
          "internalType": "address",
          "name": "",
          "type": "address"
        }
      ],
      "stateMutability": "view",
      "type": "function"
    },
    {
      "inputs": [],
      "name": "getDepositorAddress",
      "outputs": [
        {
          "internalType": "address",
          "name": "",
          "type": "address"
        }
      ],
      "stateMutability": "view",
      "type": "function"
    },
    {
      "inputs": [],
      "name": "getLockDropAddress",
      "outputs": [
        {
          "internalType": "address",
          "name": "",
          "type": "address"
        }
      ],
      "stateMutability": "view",
      "type": "function"
    },
    {
      "inputs": [],
      "name": "getSafeAddress",
      "outputs": [
        {
          "internalType": "address",
          "name": "",
          "type": "address"
        }
      ],
      "stateMutability": "view",
      "type": "function"
    },
    {
      "inputs": [],
      "name": "getSovTokenAddress",
      "outputs": [
        {
          "internalType": "address",
          "name": "",
          "type": "address"
        }
      ],
      "stateMutability": "view",
      "type": "function"
    },
    {
      "inputs": [],
      "name": "getStopBlock",
      "outputs": [
        {
          "internalType": "uint256",
          "name": "",
          "type": "uint256"
        }
      ],
      "stateMutability": "view",
      "type": "function"
    },
    {
      "inputs": [],
      "name": "isPaused",
      "outputs": [
        {
          "internalType": "bool",
          "name": "",
          "type": "bool"
        }
      ],
      "stateMutability": "view",
      "type": "function"
    },
    {
      "inputs": [],
      "name": "isStopped",
      "outputs": [
        {
          "internalType": "bool",
          "name": "",
          "type": "bool"
        }
      ],
      "stateMutability": "view",
      "type": "function"
    },
    {
      "inputs": [],
      "name": "pause",
      "outputs": [],
      "stateMutability": "nonpayable",
      "type": "function"
    },
    {
      "inputs": [
        {
          "internalType": "address[]",
          "name": "tokens",
          "type": "address[]"
        },
        {
          "internalType": "uint256[]",
          "name": "amounts",
          "type": "uint256[]"
        },
        {
          "internalType": "uint256",
          "name": "sovAmount",
          "type": "uint256"
        }
      ],
      "name": "sendToLockDropContract",
      "outputs": [],
      "stateMutability": "nonpayable",
      "type": "function"
    },
    {
      "inputs": [
        {
          "internalType": "address",
          "name": "_newDepositor",
          "type": "address"
        }
      ],
      "name": "setDepositorAddress",
      "outputs": [],
      "stateMutability": "nonpayable",
      "type": "function"
    },
    {
      "inputs": [],
      "name": "stop",
      "outputs": [],
      "stateMutability": "nonpayable",
      "type": "function"
    },
    {
      "inputs": [],
      "name": "unpause",
      "outputs": [],
      "stateMutability": "nonpayable",
      "type": "function"
    },
    {
      "inputs": [
        {
          "internalType": "address[]",
          "name": "tokens",
          "type": "address[]"
        },
        {
          "internalType": "uint256[]",
          "name": "amounts",
          "type": "uint256[]"
        },
        {
          "internalType": "address",
          "name": "recipient",
          "type": "address"
        }
      ],
      "name": "withdraw",
      "outputs": [],
      "stateMutability": "nonpayable",
      "type": "function"
    },
    {
      "inputs": [
        {
          "internalType": "address[]",
          "name": "tokens",
          "type": "address[]"
        },
        {
          "internalType": "address",
          "name": "recipient",
          "type": "address"
        }
      ],
      "name": "withdrawAll",
      "outputs": [],
      "stateMutability": "nonpayable",
      "type": "function"
    },
    {
      "stateMutability": "payable",
      "type": "receive"
    }
  ],
  "transactionHash": "0x757b72e29ec8f666014cb814f0c22eb76999d0bfe8cc83504588ff22279d7ed5",
  "args": [
    "0x949Cf9295d2950B6bD9B7334846101E9aE44BBB0",
    "0xb5e3dbaf69a46b71fe9c055e6fa36992ae6b2c1a",
    "0xbdab72602e9ad40fc6a6852caf43258113b8f7a5",
    "0x86de732721fffcdf163629c64e3925b5bf7f371a"
  ],
  "numDeployments": 1,
  "solcInputHash": "45a2174eaa25aa9fc4b0e8906c67c8b8",
  "bytecode": "0x60e06040523480156200001157600080fd5b50604051620022593803806200225983398101604081905262000034916200024b565b6001600160a01b038416620000a15760405162461bcd60e51b815260206004820152602860248201527f536166654465706f7369747353656e6465723a20496e76616c69642073616665604482015267206164647265737360c01b60648201526084015b60405180910390fd5b6001600160a01b0383166200010e5760405162461bcd60e51b815260206004820152602c60248201527f536166654465706f7369747353656e6465723a20496e76616c6964206c6f636b60448201526b64726f70206164647265737360a01b606482015260840162000098565b6001600160a01b0382166200017c5760405162461bcd60e51b815260206004820152602d60248201527f536166654465706f7369747353656e6465723a20496e76616c696420736f762060448201526c746f6b656e206164647265737360981b606482015260840162000098565b6001600160a01b038116620001fa5760405162461bcd60e51b815260206004820152603360248201527f536166654465706f7369747353656e6465723a20496e76616c6964206465706f60448201527f7369746f7220746f6b656e206164647265737300000000000000000000000000606482015260840162000098565b6001600160a01b0393841660805291831660a052821660c052600080546001600160a01b03191691909216179055620002a8565b80516001600160a01b03811681146200024657600080fd5b919050565b600080600080608085870312156200026257600080fd5b6200026d856200022e565b93506200027d602086016200022e565b92506200028d604086016200022e565b91506200029d606086016200022e565b905092959194509250565b60805160a05160c051611eee6200036b600039600081816101e501528181610e3301526118ab01526000818161023801528181610ff5015281816112bc0152818161151201526119490152600081816102b801528181610305015281816103850152818161075e01528181610a5601528181610b2501528181610bd601528181610f5201528181610fce015281816111270152818161120901528181611347015281816114e50152818161160e015281816116cf015261191c0152611eee6000f3fe6080604052600436106100ec5760003560e01c80634bcfe7261161008a578063af07765211610059578063af07765214610271578063b187bd2614610291578063d17b8f98146102a9578063f5f52e2e146102dc57600080fd5b80634bcfe726146101d65780635d9dac1014610209578063813ddbf4146102295780638456cb591461025c57600080fd5b8063397a079b116100c6578063397a079b146101615780633f4ba83a146101815780633f683b6a146101965780634768b497146101b857600080fd5b806307da68f5146100f85780631878d1f11461010f57806326f915061461014157600080fd5b366100f357005b600080fd5b34801561010457600080fd5b5061010d6102fa565b005b34801561011b57600080fd5b50610124600181565b6040516001600160a01b0390911681526020015b60405180910390f35b34801561014d57600080fd5b5061010d61015c366004611aaa565b61037a565b34801561016d57600080fd5b5061010d61017c366004611b2b565b610753565b34801561018d57600080fd5b5061010d610a4b565b3480156101a257600080fd5b50600154155b6040519015158152602001610138565b3480156101c457600080fd5b506000546001600160a01b0316610124565b3480156101e257600080fd5b507f0000000000000000000000000000000000000000000000000000000000000000610124565b34801561021557600080fd5b5061010d610224366004611b7f565b610b1a565b34801561023557600080fd5b507f0000000000000000000000000000000000000000000000000000000000000000610124565b34801561026857600080fd5b5061010d610bcb565b34801561027d57600080fd5b5061010d61028c366004611ba1565b610c9e565b34801561029d57600080fd5b5060025460ff166101a8565b3480156102b557600080fd5b507f0000000000000000000000000000000000000000000000000000000000000000610124565b3480156102e857600080fd5b50600154604051908152602001610138565b336001600160a01b037f0000000000000000000000000000000000000000000000000000000000000000161461034b5760405162461bcd60e51b815260040161034290611c15565b60405180910390fd5b436001556040517fbedf0f4abfe86d4ffad593d9607fe70e83ea706033d44d24b3b6283cf3fc4f6b90600090a1565b336001600160a01b037f000000000000000000000000000000000000000000000000000000000000000016146103c25760405162461bcd60e51b815260040161034290611c15565b806001600160a01b0381166103e95760405162461bcd60e51b815260040161034290611c4c565b8483146104085760405162461bcd60e51b815260040161034290611c8f565b60005b8581101561074a57600187878381811061042757610427611ce5565b905060200201602081019061043c9190611b7f565b6001600160a01b03160361053e5784848281811061045c5761045c611ce5565b905060200201354710156104825760405162461bcd60e51b815260040161034290611cfb565b6000836001600160a01b03168686848181106104a0576104a0611ce5565b9050602002013560405160006040518083038185875af1925050503d80600081146104e7576040519150601f19603f3d011682016040523d82523d6000602084013e6104ec565b606091505b50509050806105385760405162461bcd60e51b815260206004820152601860248201527721b7bab632103737ba103bb4ba34323930bb9032ba3432b960411b6044820152606401610342565b50610738565b600087878381811061055257610552611ce5565b90506020020160208101906105679190611b7f565b6040516370a0823160e01b81523060048201529091506000906001600160a01b038316906370a0823190602401602060405180830381865afa1580156105b1573d6000803e3d6000fd5b505050506040513d601f19601f820116820180604052508101906105d59190611d3f565b90508686848181106105e9576105e9611ce5565b9050602002013581101561060f5760405162461bcd60e51b815260040161034290611cfb565b816001600160a01b031663a9059cbb8689898781811061063157610631611ce5565b6040516001600160e01b031960e087901b1681526001600160a01b03909416600485015260200291909101356024830152506044016020604051808303816000875af1158015610685573d6000803e3d6000fd5b505050506040513d601f19601f820116820180604052508101906106a99190611d58565b508888848181106106bc576106bc611ce5565b90506020020160208101906106d19190611b7f565b6001600160a01b0316856001600160a01b03167f9b1bfa7fa9ee420a16e124f794c35ac9f90472acc99140eb2f6447c714cad8eb89898781811061071757610717611ce5565b9050602002013560405161072d91815260200190565b60405180910390a350505b8061074281611d7a565b91505061040b565b50505050505050565b336001600160a01b037f0000000000000000000000000000000000000000000000000000000000000000161461079b5760405162461bcd60e51b815260040161034290611c15565b806001600160a01b0381166107c25760405162461bcd60e51b815260040161034290611c4c565b60005b83811015610a445760018585838181106107e1576107e1611ce5565b90506020020160208101906107f69190611b7f565b6001600160a01b0316036108a8576000836001600160a01b03164760405160006040518083038185875af1925050503d8060008114610851576040519150601f19603f3d011682016040523d82523d6000602084013e610856565b606091505b50509050806108a25760405162461bcd60e51b815260206004820152601860248201527721b7bab632103737ba103bb4ba34323930bb9032ba3432b960411b6044820152606401610342565b50610a32565b60008585838181106108bc576108bc611ce5565b90506020020160208101906108d19190611b7f565b6040516370a0823160e01b81523060048201529091506000906001600160a01b038316906370a0823190602401602060405180830381865afa15801561091b573d6000803e3d6000fd5b505050506040513d601f19601f8201168201806040525081019061093f9190611d3f565b905080156109bc5760405163a9059cbb60e01b81526001600160a01b0386811660048301526024820183905283169063a9059cbb906044016020604051808303816000875af1158015610996573d6000803e3d6000fd5b505050506040513d601f19601f820116820180604052508101906109ba9190611d58565b505b8686848181106109ce576109ce611ce5565b90506020020160208101906109e39190611b7f565b6001600160a01b0316856001600160a01b03167f9b1bfa7fa9ee420a16e124f794c35ac9f90472acc99140eb2f6447c714cad8eb83604051610a2791815260200190565b60405180910390a350505b80610a3c81611d7a565b9150506107c5565b5050505050565b336001600160a01b037f00000000000000000000000000000000000000000000000000000000000000001614610a935760405162461bcd60e51b815260040161034290611c15565b60025460ff16610ae55760405162461bcd60e51b815260206004820152601c60248201527f536166654465706f7369747353656e6465723a20756e706175736564000000006044820152606401610342565b6002805460ff191690556040517f7805862f689e2f13df9f062ff482ad3ad112aca9e0847911ed832e158c525b3390600090a1565b336001600160a01b037f00000000000000000000000000000000000000000000000000000000000000001614610b625760405162461bcd60e51b815260040161034290611c15565b600054604080516001600160a01b03928316815291831660208301527f0fb2ca1030f22ea98986446610cbd30a29956d22115c6436439d646e5816f45f910160405180910390a1600080546001600160a01b0319166001600160a01b0392909216919091179055565b336001600160a01b037f00000000000000000000000000000000000000000000000000000000000000001614610c135760405162461bcd60e51b815260040161034290611c15565b60025460ff1615610c665760405162461bcd60e51b815260206004820152601a60248201527f536166654465706f7369747353656e6465723a205061757365640000000000006044820152606401610342565b6002805460ff191660011790556040517f6985a02210a168e66602d3235cb6db0e70f92b3ba4d376a33c0f3d9434bff62590600090a1565b6000546001600160a01b03163314610d035760405162461bcd60e51b815260206004820152602260248201527f536166654465706f7369747353656e6465723a204f6e6c79204465706f73697460448201526137b960f11b6064820152608401610342565b60025460ff1615610d565760405162461bcd60e51b815260206004820152601a60248201527f536166654465706f7369747353656e6465723a205061757365640000000000006044820152606401610342565b60015415610da65760405162461bcd60e51b815260206004820152601b60248201527f536166654465706f7369747353656e6465723a2073746f7070656400000000006044820152606401610342565b838214610dc55760405162461bcd60e51b815260040161034290611c8f565b60008111610e245760405162461bcd60e51b815260206004820152602660248201527f536166654465706f7369747353656e6465723a20496e76616c696420534f5620604482015265185b5bdd5b9d60d21b6064820152608401610342565b606060005b8581101561189d577f00000000000000000000000000000000000000000000000000000000000000006001600160a01b0316878783818110610e6d57610e6d611ce5565b9050602002016020810190610e829190611b7f565b6001600160a01b031603610efe5760405162461bcd60e51b815260206004820152603760248201527f536166654465706f7369747353656e6465723a20534f5620746f6b656e20697360448201527f207472616e736665727265642073657061726174656c790000000000000000006064820152608401610342565b60006001888884818110610f1457610f14611ce5565b9050602002016020810190610f299190611b7f565b6001600160a01b0316036111c957858583818110610f4957610f49611ce5565b905060200201357f00000000000000000000000000000000000000000000000000000000000000006001600160a01b0316311015610f995760405162461bcd60e51b815260040161034290611cfb565b6040805160048152602481019091526020810180516001600160e01b031663439370b160e01b17905292506001600160a01b037f00000000000000000000000000000000000000000000000000000000000000001663468721a77f000000000000000000000000000000000000000000000000000000000000000088888681811061102657611026611ce5565b905060200201358660006040518563ffffffff1660e01b815260040161104f9493929190611e09565b6020604051808303816000875af115801561106e573d6000803e3d6000fd5b505050506040513d601f19601f820116820180604052508101906110929190611d58565b6110ae5760405162461bcd60e51b815260040161034290611e48565b308686848181106110c1576110c1611ce5565b6040516001600160a01b039094166024850152602002919091013560448301525060640160408051601f198184030181529181526020820180516001600160e01b031663a9059cbb60e01b1790525163468721a760e01b81529093506001600160a01b037f000000000000000000000000000000000000000000000000000000000000000016803192509063468721a7906111659030908590600090600401611e7d565b6020604051808303816000875af1158015611184573d6000803e3d6000fd5b505050506040513d601f19601f820116820180604052508101906111a89190611d58565b6111c45760405162461bcd60e51b815260040161034290611e48565b6117a0565b60008888848181106111dd576111dd611ce5565b90506020020160208101906111f29190611b7f565b6040516370a0823160e01b81526001600160a01b037f000000000000000000000000000000000000000000000000000000000000000081166004830152919250908216906370a0823190602401602060405180830381865afa15801561125c573d6000803e3d6000fd5b505050506040513d601f19601f820116820180604052508101906112809190611d3f565b915086868481811061129457611294611ce5565b905060200201358210156112ba5760405162461bcd60e51b815260040161034290611cfb565b7f00000000000000000000000000000000000000000000000000000000000000008787858181106112ed576112ed611ce5565b6040516001600160a01b039094166024850152602002919091013560448301525060640160408051601f198184030181529190526020810180516001600160e01b031663095ea7b360e01b17905293506001600160a01b037f00000000000000000000000000000000000000000000000000000000000000001663468721a78a8a8681811061137e5761137e611ce5565b90506020020160208101906113939190611b7f565b60008760006040518563ffffffff1660e01b81526004016113b79493929190611e09565b6020604051808303816000875af11580156113d6573d6000803e3d6000fd5b505050506040513d601f19601f820116820180604052508101906113fa9190611d58565b6114465760405162461bcd60e51b815260206004820181905260248201527f436f756c64206e6f74206578656375746520746f6b656e207472616e736665726044820152606401610342565b88888481811061145857611458611ce5565b905060200201602081019061146d9190611b7f565b87878581811061147f5761147f611ce5565b6040516001600160a01b039094166024850152602002919091013560448301525060640160408051601f198184030181529181526020820180516001600160e01b0316634bff5c9360e11b1790525163468721a760e01b81529094506001600160a01b037f0000000000000000000000000000000000000000000000000000000000000000169063468721a790611541907f00000000000000000000000000000000000000000000000000000000000000009060009089908290600401611e09565b6020604051808303816000875af1158015611560573d6000803e3d6000fd5b505050506040513d601f19601f820116820180604052508101906115849190611d58565b6115d05760405162461bcd60e51b815260206004820181905260248201527f436f756c64206e6f74206578656375746520746f6b656e207472616e736665726044820152606401610342565b8888848181106115e2576115e2611ce5565b90506020020160208101906115f79190611b7f565b6040516370a0823160e01b81526001600160a01b037f00000000000000000000000000000000000000000000000000000000000000008116600483015291909116906370a0823190602401602060405180830381865afa15801561165f573d6000803e3d6000fd5b505050506040513d601f19601f820116820180604052508101906116839190611d3f565b6040513060248201526044810182905290925060640160408051601f198184030181529190526020810180516001600160e01b031663a9059cbb60e01b17905293506001600160a01b037f00000000000000000000000000000000000000000000000000000000000000001663468721a78a8a8681811061170657611706611ce5565b905060200201602081019061171b9190611b7f565b60008760006040518563ffffffff1660e01b815260040161173f9493929190611e09565b6020604051808303816000875af115801561175e573d6000803e3d6000fd5b505050506040513d601f19601f820116820180604052508101906117829190611d58565b61179e5760405162461bcd60e51b815260040161034290611e48565b505b8787838181106117b2576117b2611ce5565b90506020020160208101906117c79190611b7f565b6001600160a01b03167f1813341ead8b2cafb1b4257f31110b6fec1f85ad4bbd9a9d19c9432fb2d954d187878581811061180357611803611ce5565b9050602002013560405161181991815260200190565b60405180910390a287878381811061183357611833611ce5565b90506020020160208101906118489190611b7f565b6001600160a01b03167f2217f1638c9922c1b7608f3e57b1f418e86204e8dd975c4ca5bd4fbcb270b6928260405161188291815260200190565b60405180910390a2508061189581611d7a565b915050610e29565b506040516001600160a01b037f00000000000000000000000000000000000000000000000000000000000000001660248201526044810183905260640160408051601f198184030181529181526020820180516001600160e01b0316634bff5c9360e11b1790525163468721a760e01b81529091506001600160a01b037f0000000000000000000000000000000000000000000000000000000000000000169063468721a790611978907f00000000000000000000000000000000000000000000000000000000000000009060009086908290600401611e09565b6020604051808303816000875af1158015611997573d6000803e3d6000fd5b505050506040513d601f19601f820116820180604052508101906119bb9190611d58565b611a075760405162461bcd60e51b815260206004820152601e60248201527f436f756c64206e6f74206578656375746520534f56207472616e7366657200006044820152606401610342565b6040518281527feb4799344a5b170fa3c6d913bd48a18230e908d3218362c596d703b5bcc05caf9060200160405180910390a1505050505050565b60008083601f840112611a5457600080fd5b50813567ffffffffffffffff811115611a6c57600080fd5b6020830191508360208260051b8501011115611a8757600080fd5b9250929050565b80356001600160a01b0381168114611aa557600080fd5b919050565b600080600080600060608688031215611ac257600080fd5b853567ffffffffffffffff80821115611ada57600080fd5b611ae689838a01611a42565b90975095506020880135915080821115611aff57600080fd5b50611b0c88828901611a42565b9094509250611b1f905060408701611a8e565b90509295509295909350565b600080600060408486031215611b4057600080fd5b833567ffffffffffffffff811115611b5757600080fd5b611b6386828701611a42565b9094509250611b76905060208501611a8e565b90509250925092565b600060208284031215611b9157600080fd5b611b9a82611a8e565b9392505050565b600080600080600060608688031215611bb957600080fd5b853567ffffffffffffffff80821115611bd157600080fd5b611bdd89838a01611a42565b90975095506020880135915080821115611bf657600080fd5b50611c0388828901611a42565b96999598509660400135949350505050565b6020808252601d908201527f536166654465706f7369747353656e6465723a204f6e6c792053616665000000604082015260600190565b60208082526023908201527f536166654465706f7369747353656e6465723a20496e76616c6964206164647260408201526265737360e81b606082015260800190565b60208082526036908201527f536166654465706f7369747353656e6465723a20546f6b656e7320616e6420616040820152750dadeeadce8e640d8cadccee8d040dad2e6dac2e8c6d60531b606082015260800190565b634e487b7160e01b600052603260045260246000fd5b60208082526024908201527f536166654465706f7369747353656e6465723a204e6f7420656e6f7567682066604082015263756e647360e01b606082015260800190565b600060208284031215611d5157600080fd5b5051919050565b600060208284031215611d6a57600080fd5b81518015158114611b9a57600080fd5b600060018201611d9a57634e487b7160e01b600052601160045260246000fd5b5060010190565b6000815180845260005b81811015611dc757602081850181015186830182015201611dab565b506000602082860101526020601f19601f83011685010191505092915050565b60028110611e0557634e487b7160e01b600052602160045260246000fd5b9052565b60018060a01b0385168152836020820152608060408201526000611e306080830185611da1565b9050611e3f6060830184611de7565b95945050505050565b6020808252818101527f436f756c64206e6f742065786563757465206574686572207472616e73666572604082015260600190565b6001600160a01b03841681526020810183905260806040820181905260009082015260a08101611eb06060830184611de7565b94935050505056fea26469706673582212201eb5eb3178b84bcf90802cce9965316f6644eba294fb07d5dd20e4dc7ab80b3964736f6c63430008110033",
  "devdoc": {
    "kind": "dev",
    "methods": {
      "constructor": {
        "params": {
          "_depositor": "Address of the depositor account",
          "_lockDrop": "Address of the lock drop contract",
          "_safeAddress": "Address of the Gnosis Safe",
          "_sovToken": "Address of the SOV token contract"
        }
      },
      "sendToLockDropContract(address[],uint256[],uint256)": {
        "details": "This function is for sending tokens to the LockDrop contract for users to receive rewards and to be bridged to the BOB mainnet for Sovryn DEXThe function is allowed to be called only by the DEPOSITOR_ADDRESSToken amounts and SOV amount to send are calculated offchain",
        "params": {
          "amounts": "List of amounts of tokens to send",
          "sovAmount": "Amount of SOV tokens to send",
          "tokens": "List of tokens to send"
        }
      },
      "setDepositorAddress(address)": {
        "details": "Only Safe can call this functionNew depositor can be zero address",
        "params": {
          "_newDepositor": "New depositor address"
        }
      },
      "withdraw(address[],uint256[],address)": {
        "details": "Only Safe can call this functionRecipient should not be a zero address",
        "params": {
          "amounts": "List of token amounts to withdraw",
          "recipient": "Recipient address",
          "tokens": "List of token addresses to withdraw"
        }
      },
      "withdrawAll(address[],address)": {
        "details": "Only Safe can call this functionRecipient should not be a zero address",
        "params": {
          "recipient": "Recipient address",
          "tokens": "List of token addresses to withdraw"
        }
      }
    },
    "title": "SafeDepositsSender",
    "version": 1
  },
  "userdoc": {
    "kind": "user",
    "methods": {
      "pause()": {
        "notice": "pause the contract - no funds can be sent to the LockDrop contract"
      },
      "sendToLockDropContract(address[],uint256[],uint256)": {
        "notice": "Sends tokens to the LockDrop contract"
      },
      "setDepositorAddress(address)": {
        "notice": "Sets new depositor address"
      },
      "stop()": {
        "notice": "stops the contract - no funds can be sent to the LockDrop contract, this is irreversible"
      },
      "unpause()": {
        "notice": "unpause the contract"
      },
      "withdraw(address[],uint256[],address)": {
        "notice": "Withdraws tokens from this contract to a recipient addressWithdrawal to the Safe address will affect balances and rewardsAmount > 0 should be checked by the caller before calling this function"
      },
      "withdrawAll(address[],address)": {
        "notice": "Withdraws all tokens from this contract to a recipientAmount > 0 should be checked by the caller before calling this functionWithdrawal to the Safe address will affect balances and rewards"
      }
    },
    "notice": "This contract is a gateway for depositing funds into the Bob locker contracts",
    "version": 1
  },
  "storageLayout": {
    "storage": [
      {
        "astId": 57,
        "contract": "contracts/integrations/bob/SafeDepositsSender.sol:SafeDepositsSender",
        "label": "DEPOSITOR_ADDRESS",
        "offset": 0,
        "slot": "0",
        "type": "t_address"
      },
      {
        "astId": 59,
        "contract": "contracts/integrations/bob/SafeDepositsSender.sol:SafeDepositsSender",
        "label": "stopBlock",
        "offset": 0,
        "slot": "1",
        "type": "t_uint256"
      },
      {
        "astId": 61,
        "contract": "contracts/integrations/bob/SafeDepositsSender.sol:SafeDepositsSender",
        "label": "paused",
        "offset": 0,
        "slot": "2",
        "type": "t_bool"
      }
    ],
    "types": {
      "t_address": {
        "encoding": "inplace",
        "label": "address",
        "numberOfBytes": "20"
      },
      "t_bool": {
        "encoding": "inplace",
        "label": "bool",
        "numberOfBytes": "1"
      },
      "t_uint256": {
        "encoding": "inplace",
        "label": "uint256",
        "numberOfBytes": "32"
      }
    }
  }
}