{
  "address": "0xB5f8C6B5C35433FF1caDfADc6Dd60b6A9203041c",
  "abi": [
    {
      "inputs": [
        {
          "internalType": "address",
          "name": "_safeAddress",
          "type": "address"
        },
        {
          "internalType": "address",
          "name": "_lockDrop",
          "type": "address"
        },
        {
          "internalType": "address",
          "name": "_sovToken",
          "type": "address"
        },
        {
          "internalType": "address",
          "name": "_depositor",
          "type": "address"
        }
      ],
      "stateMutability": "nonpayable",
      "type": "constructor"
    },
    {
      "anonymous": false,
      "inputs": [
        {
          "indexed": false,
          "internalType": "uint256",
          "name": "amount",
          "type": "uint256"
        }
      ],
      "name": "DepositSOVToLockdrop",
      "type": "event"
    },
    {
      "anonymous": false,
      "inputs": [
        {
          "indexed": true,
          "internalType": "address",
          "name": "token",
          "type": "address"
        },
        {
          "indexed": false,
          "internalType": "uint256",
          "name": "amount",
          "type": "uint256"
        }
      ],
      "name": "DepositToLockdrop",
      "type": "event"
    },
    {
      "anonymous": false,
      "inputs": [],
      "name": "Pause",
      "type": "event"
    },
    {
      "anonymous": false,
      "inputs": [],
      "name": "Stop",
      "type": "event"
    },
    {
      "anonymous": false,
      "inputs": [],
      "name": "Unpause",
      "type": "event"
    },
    {
      "anonymous": false,
      "inputs": [
        {
          "indexed": true,
          "internalType": "address",
          "name": "from",
          "type": "address"
        },
        {
          "indexed": true,
          "internalType": "address",
          "name": "token",
          "type": "address"
        },
        {
          "indexed": false,
          "internalType": "uint256",
          "name": "amount",
          "type": "uint256"
        }
      ],
      "name": "Withdraw",
      "type": "event"
    },
    {
      "anonymous": false,
      "inputs": [
        {
          "indexed": true,
          "internalType": "address",
          "name": "token",
          "type": "address"
        },
        {
          "indexed": false,
          "internalType": "uint256",
          "name": "balance",
          "type": "uint256"
        }
      ],
      "name": "WithdrawBalanceFromSafe",
      "type": "event"
    },
    {
      "anonymous": false,
      "inputs": [
        {
          "indexed": false,
          "internalType": "address",
          "name": "oldDepositor",
          "type": "address"
        },
        {
          "indexed": false,
          "internalType": "address",
          "name": "newDepositor",
          "type": "address"
        }
      ],
      "name": "setDepositor",
      "type": "event"
    },
    {
      "inputs": [],
      "name": "ETH_TOKEN_ADDRESS",
      "outputs": [
        {
          "internalType": "address",
          "name": "",
          "type": "address"
        }
      ],
      "stateMutability": "view",
      "type": "function"
    },
    {
      "inputs": [],
      "name": "getDepositorAddress",
      "outputs": [
        {
          "internalType": "address",
          "name": "",
          "type": "address"
        }
      ],
      "stateMutability": "view",
      "type": "function"
    },
    {
      "inputs": [],
      "name": "getLockDropAddress",
      "outputs": [
        {
          "internalType": "address",
          "name": "",
          "type": "address"
        }
      ],
      "stateMutability": "view",
      "type": "function"
    },
    {
      "inputs": [],
      "name": "getSafeAddress",
      "outputs": [
        {
          "internalType": "address",
          "name": "",
          "type": "address"
        }
      ],
      "stateMutability": "view",
      "type": "function"
    },
    {
      "inputs": [],
      "name": "getSovTokenAddress",
      "outputs": [
        {
          "internalType": "address",
          "name": "",
          "type": "address"
        }
      ],
      "stateMutability": "view",
      "type": "function"
    },
    {
      "inputs": [],
      "name": "getStopBlock",
      "outputs": [
        {
          "internalType": "uint256",
          "name": "",
          "type": "uint256"
        }
      ],
      "stateMutability": "view",
      "type": "function"
    },
    {
      "inputs": [],
      "name": "isPaused",
      "outputs": [
        {
          "internalType": "bool",
          "name": "",
          "type": "bool"
        }
      ],
      "stateMutability": "view",
      "type": "function"
    },
    {
      "inputs": [],
      "name": "isStopped",
      "outputs": [
        {
          "internalType": "bool",
          "name": "",
          "type": "bool"
        }
      ],
      "stateMutability": "view",
      "type": "function"
    },
    {
      "inputs": [],
      "name": "pause",
      "outputs": [],
      "stateMutability": "nonpayable",
      "type": "function"
    },
    {
      "inputs": [
        {
          "internalType": "address[]",
          "name": "tokens",
          "type": "address[]"
        },
        {
          "internalType": "uint256[]",
          "name": "amounts",
          "type": "uint256[]"
        },
        {
          "internalType": "uint256",
          "name": "sovAmount",
          "type": "uint256"
        }
      ],
      "name": "sendToLockDropContract",
      "outputs": [],
      "stateMutability": "nonpayable",
      "type": "function"
    },
    {
      "inputs": [
        {
          "internalType": "address",
          "name": "_newDepositor",
          "type": "address"
        }
      ],
      "name": "setDepositorAddress",
      "outputs": [],
      "stateMutability": "nonpayable",
      "type": "function"
    },
    {
      "inputs": [],
      "name": "stop",
      "outputs": [],
      "stateMutability": "nonpayable",
      "type": "function"
    },
    {
      "inputs": [],
      "name": "unpause",
      "outputs": [],
      "stateMutability": "nonpayable",
      "type": "function"
    },
    {
      "inputs": [
        {
          "internalType": "address[]",
          "name": "tokens",
          "type": "address[]"
        },
        {
          "internalType": "uint256[]",
          "name": "amounts",
          "type": "uint256[]"
        },
        {
          "internalType": "address",
          "name": "recipient",
          "type": "address"
        }
      ],
      "name": "withdraw",
      "outputs": [],
      "stateMutability": "nonpayable",
      "type": "function"
    },
    {
      "inputs": [
        {
          "internalType": "address[]",
          "name": "tokens",
          "type": "address[]"
        },
        {
          "internalType": "address",
          "name": "recipient",
          "type": "address"
        }
      ],
      "name": "withdrawAll",
      "outputs": [],
      "stateMutability": "nonpayable",
      "type": "function"
    },
    {
      "stateMutability": "payable",
      "type": "receive"
    }
  ],
  "transactionHash": "0xec5dfaa9f944f28b0bc3cabcdef188568b8e6086de47ac2e1cda9ed02037223f",
  "args": [
    "0x949Cf9295d2950B6bD9B7334846101E9aE44BBB0",
    "0xb5e3dbaf69a46b71fe9c055e6fa36992ae6b2c1a",
    "0xbdab72602e9ad40fc6a6852caf43258113b8f7a5",
    "0x86de732721fffcdf163629c64e3925b5bf7f371a"
  ],
  "numDeployments": 1,
  "solcInputHash": "d45a8663d52a61bec0dc17898e4e8c2c",
  "bytecode": "0x60e06040523480156200001157600080fd5b506040516200237d3803806200237d83398101604081905262000034916200024b565b6001600160a01b038416620000a15760405162461bcd60e51b815260206004820152602860248201527f536166654465706f7369747353656e6465723a20496e76616c69642073616665604482015267206164647265737360c01b60648201526084015b60405180910390fd5b6001600160a01b0383166200010e5760405162461bcd60e51b815260206004820152602c60248201527f536166654465706f7369747353656e6465723a20496e76616c6964206c6f636b60448201526b64726f70206164647265737360a01b606482015260840162000098565b6001600160a01b0382166200017c5760405162461bcd60e51b815260206004820152602d60248201527f536166654465706f7369747353656e6465723a20496e76616c696420736f762060448201526c746f6b656e206164647265737360981b606482015260840162000098565b6001600160a01b038116620001fa5760405162461bcd60e51b815260206004820152603360248201527f536166654465706f7369747353656e6465723a20496e76616c6964206465706f60448201527f7369746f7220746f6b656e206164647265737300000000000000000000000000606482015260840162000098565b6001600160a01b0393841660805291831660a052821660c052600080546001600160a01b03191691909216179055620002a8565b80516001600160a01b03811681146200024657600080fd5b919050565b600080600080608085870312156200026257600080fd5b6200026d856200022e565b93506200027d602086016200022e565b92506200028d604086016200022e565b91506200029d606086016200022e565b905092959194509250565b60805160a05160c051611ffd62000380600039600081816101e601528181610e34015281816118ea015261198501526000818161023901528181610ff6015281816112bd015281816114e30152818161184c0152611a230152600081816102b901528181610306015281816103860152818161075f01528181610a5701528181610b2601528181610bd701528181610f5301528181610fcf015281816111280152818161120a01528181611348015281816114b6015281816115af01528181611670015281816118bd01526119f60152611ffd6000f3fe6080604052600436106100ec5760003560e01c80634bcfe7261161008a578063af07765211610059578063af07765214610272578063b187bd2614610292578063d17b8f98146102aa578063f5f52e2e146102dd57600080fd5b80634bcfe726146101d75780635d9dac101461020a578063813ddbf41461022a5780638456cb591461025d57600080fd5b8063397a079b116100c6578063397a079b146101615780633f4ba83a146101815780633f683b6a146101965780634768b497146101b957600080fd5b806307da68f5146100f85780631878d1f11461010f57806326f915061461014157600080fd5b366100f357005b600080fd5b34801561010457600080fd5b5061010d6102fb565b005b34801561011b57600080fd5b50610124600181565b6040516001600160a01b0390911681526020015b60405180910390f35b34801561014d57600080fd5b5061010d61015c366004611b84565b61037b565b34801561016d57600080fd5b5061010d61017c366004611c05565b610754565b34801561018d57600080fd5b5061010d610a4c565b3480156101a257600080fd5b5060015415155b6040519015158152602001610138565b3480156101c557600080fd5b506000546001600160a01b0316610124565b3480156101e357600080fd5b507f0000000000000000000000000000000000000000000000000000000000000000610124565b34801561021657600080fd5b5061010d610225366004611c59565b610b1b565b34801561023657600080fd5b507f0000000000000000000000000000000000000000000000000000000000000000610124565b34801561026957600080fd5b5061010d610bcc565b34801561027e57600080fd5b5061010d61028d366004611c7b565b610c9f565b34801561029e57600080fd5b5060025460ff166101a9565b3480156102b657600080fd5b507f0000000000000000000000000000000000000000000000000000000000000000610124565b3480156102e957600080fd5b50600154604051908152602001610138565b336001600160a01b037f0000000000000000000000000000000000000000000000000000000000000000161461034c5760405162461bcd60e51b815260040161034390611cef565b60405180910390fd5b436001556040517fbedf0f4abfe86d4ffad593d9607fe70e83ea706033d44d24b3b6283cf3fc4f6b90600090a1565b336001600160a01b037f000000000000000000000000000000000000000000000000000000000000000016146103c35760405162461bcd60e51b815260040161034390611cef565b806001600160a01b0381166103ea5760405162461bcd60e51b815260040161034390611d26565b8483146104095760405162461bcd60e51b815260040161034390611d69565b60005b8581101561074b57600187878381811061042857610428611dbf565b905060200201602081019061043d9190611c59565b6001600160a01b03160361053f5784848281811061045d5761045d611dbf565b905060200201354710156104835760405162461bcd60e51b815260040161034390611dd5565b6000836001600160a01b03168686848181106104a1576104a1611dbf565b9050602002013560405160006040518083038185875af1925050503d80600081146104e8576040519150601f19603f3d011682016040523d82523d6000602084013e6104ed565b606091505b50509050806105395760405162461bcd60e51b815260206004820152601860248201527721b7bab632103737ba103bb4ba34323930bb9032ba3432b960411b6044820152606401610343565b50610739565b600087878381811061055357610553611dbf565b90506020020160208101906105689190611c59565b6040516370a0823160e01b81523060048201529091506000906001600160a01b038316906370a0823190602401602060405180830381865afa1580156105b2573d6000803e3d6000fd5b505050506040513d601f19601f820116820180604052508101906105d69190611e19565b90508686848181106105ea576105ea611dbf565b905060200201358110156106105760405162461bcd60e51b815260040161034390611dd5565b816001600160a01b031663a9059cbb8689898781811061063257610632611dbf565b6040516001600160e01b031960e087901b1681526001600160a01b03909416600485015260200291909101356024830152506044016020604051808303816000875af1158015610686573d6000803e3d6000fd5b505050506040513d601f19601f820116820180604052508101906106aa9190611e32565b508888848181106106bd576106bd611dbf565b90506020020160208101906106d29190611c59565b6001600160a01b0316856001600160a01b03167f9b1bfa7fa9ee420a16e124f794c35ac9f90472acc99140eb2f6447c714cad8eb89898781811061071857610718611dbf565b9050602002013560405161072e91815260200190565b60405180910390a350505b8061074381611e54565b91505061040c565b50505050505050565b336001600160a01b037f0000000000000000000000000000000000000000000000000000000000000000161461079c5760405162461bcd60e51b815260040161034390611cef565b806001600160a01b0381166107c35760405162461bcd60e51b815260040161034390611d26565b60005b83811015610a455760018585838181106107e2576107e2611dbf565b90506020020160208101906107f79190611c59565b6001600160a01b0316036108a9576000836001600160a01b03164760405160006040518083038185875af1925050503d8060008114610852576040519150601f19603f3d011682016040523d82523d6000602084013e610857565b606091505b50509050806108a35760405162461bcd60e51b815260206004820152601860248201527721b7bab632103737ba103bb4ba34323930bb9032ba3432b960411b6044820152606401610343565b50610a33565b60008585838181106108bd576108bd611dbf565b90506020020160208101906108d29190611c59565b6040516370a0823160e01b81523060048201529091506000906001600160a01b038316906370a0823190602401602060405180830381865afa15801561091c573d6000803e3d6000fd5b505050506040513d601f19601f820116820180604052508101906109409190611e19565b905080156109bd5760405163a9059cbb60e01b81526001600160a01b0386811660048301526024820183905283169063a9059cbb906044016020604051808303816000875af1158015610997573d6000803e3d6000fd5b505050506040513d601f19601f820116820180604052508101906109bb9190611e32565b505b8686848181106109cf576109cf611dbf565b90506020020160208101906109e49190611c59565b6001600160a01b0316856001600160a01b03167f9b1bfa7fa9ee420a16e124f794c35ac9f90472acc99140eb2f6447c714cad8eb83604051610a2891815260200190565b60405180910390a350505b80610a3d81611e54565b9150506107c6565b5050505050565b336001600160a01b037f00000000000000000000000000000000000000000000000000000000000000001614610a945760405162461bcd60e51b815260040161034390611cef565b60025460ff16610ae65760405162461bcd60e51b815260206004820152601c60248201527f536166654465706f7369747353656e6465723a20756e706175736564000000006044820152606401610343565b6002805460ff191690556040517f7805862f689e2f13df9f062ff482ad3ad112aca9e0847911ed832e158c525b3390600090a1565b336001600160a01b037f00000000000000000000000000000000000000000000000000000000000000001614610b635760405162461bcd60e51b815260040161034390611cef565b600054604080516001600160a01b03928316815291831660208301527f0fb2ca1030f22ea98986446610cbd30a29956d22115c6436439d646e5816f45f910160405180910390a1600080546001600160a01b0319166001600160a01b0392909216919091179055565b336001600160a01b037f00000000000000000000000000000000000000000000000000000000000000001614610c145760405162461bcd60e51b815260040161034390611cef565b60025460ff1615610c675760405162461bcd60e51b815260206004820152601a60248201527f536166654465706f7369747353656e6465723a205061757365640000000000006044820152606401610343565b6002805460ff191660011790556040517f6985a02210a168e66602d3235cb6db0e70f92b3ba4d376a33c0f3d9434bff62590600090a1565b6000546001600160a01b03163314610d045760405162461bcd60e51b815260206004820152602260248201527f536166654465706f7369747353656e6465723a204f6e6c79204465706f73697460448201526137b960f11b6064820152608401610343565b60025460ff1615610d575760405162461bcd60e51b815260206004820152601a60248201527f536166654465706f7369747353656e6465723a205061757365640000000000006044820152606401610343565b60015415610da75760405162461bcd60e51b815260206004820152601b60248201527f536166654465706f7369747353656e6465723a2073746f7070656400000000006044820152606401610343565b838214610dc65760405162461bcd60e51b815260040161034390611d69565b60008111610e255760405162461bcd60e51b815260206004820152602660248201527f536166654465706f7369747353656e6465723a20496e76616c696420534f5620604482015265185b5bdd5b9d60d21b6064820152608401610343565b606060005b8581101561183e577f00000000000000000000000000000000000000000000000000000000000000006001600160a01b0316878783818110610e6e57610e6e611dbf565b9050602002016020810190610e839190611c59565b6001600160a01b031603610eff5760405162461bcd60e51b815260206004820152603760248201527f536166654465706f7369747353656e6465723a20534f5620746f6b656e20697360448201527f207472616e736665727265642073657061726174656c790000000000000000006064820152608401610343565b60006001888884818110610f1557610f15611dbf565b9050602002016020810190610f2a9190611c59565b6001600160a01b0316036111ca57858583818110610f4a57610f4a611dbf565b905060200201357f00000000000000000000000000000000000000000000000000000000000000006001600160a01b0316311015610f9a5760405162461bcd60e51b815260040161034390611dd5565b6040805160048152602481019091526020810180516001600160e01b031663439370b160e01b17905292506001600160a01b037f00000000000000000000000000000000000000000000000000000000000000001663468721a77f000000000000000000000000000000000000000000000000000000000000000088888681811061102757611027611dbf565b905060200201358660006040518563ffffffff1660e01b81526004016110509493929190611ee3565b6020604051808303816000875af115801561106f573d6000803e3d6000fd5b505050506040513d601f19601f820116820180604052508101906110939190611e32565b6110af5760405162461bcd60e51b815260040161034390611f22565b308686848181106110c2576110c2611dbf565b6040516001600160a01b039094166024850152602002919091013560448301525060640160408051601f198184030181529181526020820180516001600160e01b031663a9059cbb60e01b1790525163468721a760e01b81529093506001600160a01b037f000000000000000000000000000000000000000000000000000000000000000016803192509063468721a7906111669030908590600090600401611f57565b6020604051808303816000875af1158015611185573d6000803e3d6000fd5b505050506040513d601f19601f820116820180604052508101906111a99190611e32565b6111c55760405162461bcd60e51b815260040161034390611f22565b611741565b60008888848181106111de576111de611dbf565b90506020020160208101906111f39190611c59565b6040516370a0823160e01b81526001600160a01b037f000000000000000000000000000000000000000000000000000000000000000081166004830152919250908216906370a0823190602401602060405180830381865afa15801561125d573d6000803e3d6000fd5b505050506040513d601f19601f820116820180604052508101906112819190611e19565b915086868481811061129557611295611dbf565b905060200201358210156112bb5760405162461bcd60e51b815260040161034390611dd5565b7f00000000000000000000000000000000000000000000000000000000000000008787858181106112ee576112ee611dbf565b6040516001600160a01b039094166024850152602002919091013560448301525060640160408051601f198184030181529190526020810180516001600160e01b031663095ea7b360e01b17905293506001600160a01b037f00000000000000000000000000000000000000000000000000000000000000001663468721a78a8a8681811061137f5761137f611dbf565b90506020020160208101906113949190611c59565b60008760006040518563ffffffff1660e01b81526004016113b89493929190611ee3565b6020604051808303816000875af11580156113d7573d6000803e3d6000fd5b505050506040513d601f19601f820116820180604052508101906113fb9190611e32565b6114175760405162461bcd60e51b815260040161034390611f92565b88888481811061142957611429611dbf565b905060200201602081019061143e9190611c59565b87878581811061145057611450611dbf565b6040516001600160a01b039094166024850152602002919091013560448301525060640160408051601f198184030181529181526020820180516001600160e01b0316634bff5c9360e11b1790525163468721a760e01b81529094506001600160a01b037f0000000000000000000000000000000000000000000000000000000000000000169063468721a790611512907f00000000000000000000000000000000000000000000000000000000000000009060009089908290600401611ee3565b6020604051808303816000875af1158015611531573d6000803e3d6000fd5b505050506040513d601f19601f820116820180604052508101906115559190611e32565b6115715760405162461bcd60e51b815260040161034390611f92565b88888481811061158357611583611dbf565b90506020020160208101906115989190611c59565b6040516370a0823160e01b81526001600160a01b037f00000000000000000000000000000000000000000000000000000000000000008116600483015291909116906370a0823190602401602060405180830381865afa158015611600573d6000803e3d6000fd5b505050506040513d601f19601f820116820180604052508101906116249190611e19565b6040513060248201526044810182905290925060640160408051601f198184030181529190526020810180516001600160e01b031663a9059cbb60e01b17905293506001600160a01b037f00000000000000000000000000000000000000000000000000000000000000001663468721a78a8a868181106116a7576116a7611dbf565b90506020020160208101906116bc9190611c59565b60008760006040518563ffffffff1660e01b81526004016116e09493929190611ee3565b6020604051808303816000875af11580156116ff573d6000803e3d6000fd5b505050506040513d601f19601f820116820180604052508101906117239190611e32565b61173f5760405162461bcd60e51b815260040161034390611f22565b505b87878381811061175357611753611dbf565b90506020020160208101906117689190611c59565b6001600160a01b03167f1813341ead8b2cafb1b4257f31110b6fec1f85ad4bbd9a9d19c9432fb2d954d18787858181106117a4576117a4611dbf565b905060200201356040516117ba91815260200190565b60405180910390a28787838181106117d4576117d4611dbf565b90506020020160208101906117e99190611c59565b6001600160a01b03167f2217f1638c9922c1b7608f3e57b1f418e86204e8dd975c4ca5bd4fbcb270b6928260405161182391815260200190565b60405180910390a2508061183681611e54565b915050610e2a565b506040516001600160a01b037f00000000000000000000000000000000000000000000000000000000000000001660248201526044810183905260640160408051601f198184030181529181526020820180516001600160e01b031663095ea7b360e01b1790525163468721a760e01b81529091506001600160a01b037f0000000000000000000000000000000000000000000000000000000000000000169063468721a790611919907f00000000000000000000000000000000000000000000000000000000000000009060009086908290600401611ee3565b6020604051808303816000875af1158015611938573d6000803e3d6000fd5b505050506040513d601f19601f8201168201806040525081019061195c9190611e32565b6119785760405162461bcd60e51b815260040161034390611f92565b6040516001600160a01b037f00000000000000000000000000000000000000000000000000000000000000001660248201526044810183905260640160408051601f198184030181529181526020820180516001600160e01b0316634bff5c9360e11b1790525163468721a760e01b81529091506001600160a01b037f0000000000000000000000000000000000000000000000000000000000000000169063468721a790611a52907f00000000000000000000000000000000000000000000000000000000000000009060009086908290600401611ee3565b6020604051808303816000875af1158015611a71573d6000803e3d6000fd5b505050506040513d601f19601f82011682018060405250810190611a959190611e32565b611ae15760405162461bcd60e51b815260206004820152601e60248201527f436f756c64206e6f74206578656375746520534f56207472616e7366657200006044820152606401610343565b6040518281527feb4799344a5b170fa3c6d913bd48a18230e908d3218362c596d703b5bcc05caf9060200160405180910390a1505050505050565b60008083601f840112611b2e57600080fd5b50813567ffffffffffffffff811115611b4657600080fd5b6020830191508360208260051b8501011115611b6157600080fd5b9250929050565b80356001600160a01b0381168114611b7f57600080fd5b919050565b600080600080600060608688031215611b9c57600080fd5b853567ffffffffffffffff80821115611bb457600080fd5b611bc089838a01611b1c565b90975095506020880135915080821115611bd957600080fd5b50611be688828901611b1c565b9094509250611bf9905060408701611b68565b90509295509295909350565b600080600060408486031215611c1a57600080fd5b833567ffffffffffffffff811115611c3157600080fd5b611c3d86828701611b1c565b9094509250611c50905060208501611b68565b90509250925092565b600060208284031215611c6b57600080fd5b611c7482611b68565b9392505050565b600080600080600060608688031215611c9357600080fd5b853567ffffffffffffffff80821115611cab57600080fd5b611cb789838a01611b1c565b90975095506020880135915080821115611cd057600080fd5b50611cdd88828901611b1c565b96999598509660400135949350505050565b6020808252601d908201527f536166654465706f7369747353656e6465723a204f6e6c792053616665000000604082015260600190565b60208082526023908201527f536166654465706f7369747353656e6465723a20496e76616c6964206164647260408201526265737360e81b606082015260800190565b60208082526036908201527f536166654465706f7369747353656e6465723a20546f6b656e7320616e6420616040820152750dadeeadce8e640d8cadccee8d040dad2e6dac2e8c6d60531b606082015260800190565b634e487b7160e01b600052603260045260246000fd5b60208082526024908201527f536166654465706f7369747353656e6465723a204e6f7420656e6f7567682066604082015263756e647360e01b606082015260800190565b600060208284031215611e2b57600080fd5b5051919050565b600060208284031215611e4457600080fd5b81518015158114611c7457600080fd5b600060018201611e7457634e487b7160e01b600052601160045260246000fd5b5060010190565b6000815180845260005b81811015611ea157602081850181015186830182015201611e85565b506000602082860101526020601f19601f83011685010191505092915050565b60028110611edf57634e487b7160e01b600052602160045260246000fd5b9052565b60018060a01b0385168152836020820152608060408201526000611f0a6080830185611e7b565b9050611f196060830184611ec1565b95945050505050565b6020808252818101527f436f756c64206e6f742065786563757465206574686572207472616e73666572604082015260600190565b6001600160a01b03841681526020810183905260806040820181905260009082015260a08101611f8a6060830184611ec1565b949350505050565b6020808252818101527f436f756c64206e6f74206578656375746520746f6b656e207472616e7366657260408201526060019056fea264697066735822122029eb25680e24a1e912e5fbfb1ce91200147ee578e830c4ca1567c6274f5ef93764736f6c63430008110033",
  "devdoc": {
    "kind": "dev",
    "methods": {
      "constructor": {
        "params": {
          "_depositor": "Address of the depositor account",
          "_lockDrop": "Address of the lock drop contract",
          "_safeAddress": "Address of the Gnosis Safe",
          "_sovToken": "Address of the SOV token contract"
        }
      },
      "sendToLockDropContract(address[],uint256[],uint256)": {
        "details": "This function is for sending tokens to the LockDrop contract for users to receive rewards and to be bridged to the BOB mainnet for Sovryn DEXThe function is allowed to be called only by the DEPOSITOR_ADDRESSToken amounts and SOV amount to send are calculated offchain",
        "params": {
          "amounts": "List of amounts of tokens to send",
          "sovAmount": "Amount of SOV tokens to send",
          "tokens": "List of tokens to send"
        }
      },
      "setDepositorAddress(address)": {
        "details": "Only Safe can call this functionNew depositor can be zero address",
        "params": {
          "_newDepositor": "New depositor address"
        }
      },
      "withdraw(address[],uint256[],address)": {
        "details": "Only Safe can call this functionRecipient should not be a zero address",
        "params": {
          "amounts": "List of token amounts to withdraw",
          "recipient": "Recipient address",
          "tokens": "List of token addresses to withdraw"
        }
      },
      "withdrawAll(address[],address)": {
        "details": "Only Safe can call this functionRecipient should not be a zero address",
        "params": {
          "recipient": "Recipient address",
          "tokens": "List of token addresses to withdraw"
        }
      }
    },
    "title": "SafeDepositsSender",
    "version": 1
  },
  "userdoc": {
    "kind": "user",
    "methods": {
      "pause()": {
        "notice": "pause the contract - no funds can be sent to the LockDrop contract"
      },
      "sendToLockDropContract(address[],uint256[],uint256)": {
        "notice": "Sends tokens to the LockDrop contract"
      },
      "setDepositorAddress(address)": {
        "notice": "Sets new depositor address"
      },
      "stop()": {
        "notice": "stops the contract - no funds can be sent to the LockDrop contract, this is irreversible"
      },
      "unpause()": {
        "notice": "unpause the contract"
      },
      "withdraw(address[],uint256[],address)": {
        "notice": "Withdraws tokens from this contract to a recipient addressWithdrawal to the Safe address will affect balances and rewardsAmount > 0 should be checked by the caller before calling this function"
      },
      "withdrawAll(address[],address)": {
        "notice": "Withdraws all tokens from this contract to a recipientAmount > 0 should be checked by the caller before calling this functionWithdrawal to the Safe address will affect balances and rewards"
      }
    },
    "notice": "This contract is a gateway for depositing funds into the Bob locker contracts",
    "version": 1
  },
  "storageLayout": {
    "storage": [
      {
        "astId": 57,
        "contract": "contracts/integrations/bob/SafeDepositsSender.sol:SafeDepositsSender",
        "label": "DEPOSITOR_ADDRESS",
        "offset": 0,
        "slot": "0",
        "type": "t_address"
      },
      {
        "astId": 59,
        "contract": "contracts/integrations/bob/SafeDepositsSender.sol:SafeDepositsSender",
        "label": "stopBlock",
        "offset": 0,
        "slot": "1",
        "type": "t_uint256"
      },
      {
        "astId": 61,
        "contract": "contracts/integrations/bob/SafeDepositsSender.sol:SafeDepositsSender",
        "label": "paused",
        "offset": 0,
        "slot": "2",
        "type": "t_bool"
      }
    ],
    "types": {
      "t_address": {
        "encoding": "inplace",
        "label": "address",
        "numberOfBytes": "20"
      },
      "t_bool": {
        "encoding": "inplace",
        "label": "bool",
        "numberOfBytes": "1"
      },
      "t_uint256": {
        "encoding": "inplace",
        "label": "uint256",
        "numberOfBytes": "32"
      }
    }
  }
}