{
  "abi": [
    {
      "anonymous": false,
      "inputs": [
        {
          "indexed": true,
          "internalType": "address",
          "name": "previousOwner",
          "type": "address"
        },
        {
          "indexed": true,
          "internalType": "address",
          "name": "newOwner",
          "type": "address"
        }
      ],
      "name": "OwnershipTransferred",
      "type": "event"
    },
    {
      "constant": true,
      "inputs": [],
      "name": "BASE_RATE",
      "outputs": [
        {
          "internalType": "uint256",
          "name": "",
          "type": "uint256"
        }
      ],
      "payable": false,
      "stateMutability": "view",
      "type": "function"
    },
    {
      "constant": true,
      "inputs": [],
      "name": "DIVISOR",
      "outputs": [
        {
          "internalType": "uint256",
          "name": "",
          "type": "uint256"
        }
      ],
      "payable": false,
      "stateMutability": "view",
      "type": "function"
    },
    {
      "constant": true,
      "inputs": [],
      "name": "SOV",
      "outputs": [
        {
          "internalType": "contract IERC20",
          "name": "",
          "type": "address"
        }
      ],
      "payable": false,
      "stateMutability": "view",
      "type": "function"
    },
    {
      "constant": true,
      "inputs": [],
      "name": "TWO_WEEKS",
      "outputs": [
        {
          "internalType": "uint256",
          "name": "",
          "type": "uint256"
        }
      ],
      "payable": false,
      "stateMutability": "view",
      "type": "function"
    },
    {
      "constant": true,
      "inputs": [],
      "name": "averageBlockTime",
      "outputs": [
        {
          "internalType": "uint256",
          "name": "",
          "type": "uint256"
        }
      ],
      "payable": false,
      "stateMutability": "view",
      "type": "function"
    },
    {
      "constant": true,
      "inputs": [
        {
          "internalType": "uint256",
          "name": "",
          "type": "uint256"
        }
      ],
      "name": "checkpointBlockDetails",
      "outputs": [
        {
          "internalType": "uint256",
          "name": "",
          "type": "uint256"
        }
      ],
      "payable": false,
      "stateMutability": "view",
      "type": "function"
    },
    {
      "constant": true,
      "inputs": [
        {
          "internalType": "address",
          "name": "",
          "type": "address"
        }
      ],
      "name": "claimedBalances",
      "outputs": [
        {
          "internalType": "uint256",
          "name": "",
          "type": "uint256"
        }
      ],
      "payable": false,
      "stateMutability": "view",
      "type": "function"
    },
    {
      "constant": true,
      "inputs": [],
      "name": "deploymentBlock",
      "outputs": [
        {
          "internalType": "uint256",
          "name": "",
          "type": "uint256"
        }
      ],
      "payable": false,
      "stateMutability": "view",
      "type": "function"
    },
    {
      "constant": true,
      "inputs": [],
      "name": "isOwner",
      "outputs": [
        {
          "internalType": "bool",
          "name": "",
          "type": "bool"
        }
      ],
      "payable": false,
      "stateMutability": "view",
      "type": "function"
    },
    {
      "constant": true,
      "inputs": [],
      "name": "maxDuration",
      "outputs": [
        {
          "internalType": "uint256",
          "name": "",
          "type": "uint256"
        }
      ],
      "payable": false,
      "stateMutability": "view",
      "type": "function"
    },
    {
      "constant": true,
      "inputs": [],
      "name": "owner",
      "outputs": [
        {
          "internalType": "address",
          "name": "",
          "type": "address"
        }
      ],
      "payable": false,
      "stateMutability": "view",
      "type": "function"
    },
    {
      "constant": true,
      "inputs": [],
      "name": "staking",
      "outputs": [
        {
          "internalType": "contract IStaking",
          "name": "",
          "type": "address"
        }
      ],
      "payable": false,
      "stateMutability": "view",
      "type": "function"
    },
    {
      "constant": true,
      "inputs": [],
      "name": "startTime",
      "outputs": [
        {
          "internalType": "uint256",
          "name": "",
          "type": "uint256"
        }
      ],
      "payable": false,
      "stateMutability": "view",
      "type": "function"
    },
    {
      "constant": true,
      "inputs": [],
      "name": "stopBlock",
      "outputs": [
        {
          "internalType": "uint256",
          "name": "",
          "type": "uint256"
        }
      ],
      "payable": false,
      "stateMutability": "view",
      "type": "function"
    },
    {
      "constant": false,
      "inputs": [
        {
          "internalType": "address",
          "name": "newOwner",
          "type": "address"
        }
      ],
      "name": "transferOwnership",
      "outputs": [],
      "payable": false,
      "stateMutability": "nonpayable",
      "type": "function"
    },
    {
      "constant": true,
      "inputs": [
        {
          "internalType": "address",
          "name": "",
          "type": "address"
        }
      ],
      "name": "withdrawals",
      "outputs": [
        {
          "internalType": "uint256",
          "name": "",
          "type": "uint256"
        }
      ],
      "payable": false,
      "stateMutability": "view",
      "type": "function"
    }
  ],
  "bytecode": {
    "object": "0x608060405260006100176001600160e01b0361006616565b600080546001600160a01b0319166001600160a01b0383169081178255604051929350917f8be0079c531659141344cd1fd0a4f28419497f9722a3daafe3b4186f6b6457e0908290a35061006a565b3390565b610444806100796000396000f3fe608060405234801561001057600080fd5b50600436106101005760003560e01c806378e97925116100975780638f32d59b116100665780638f32d59b146101c6578063934d1fa4146101e2578063d42b779d146101ea578063f2fde38b1461021057610100565b806378e97925146101885780637a9262a21461019057806382100e3f146101b65780638da5cb5b146101be57610100565b806341910f90116100d357806341910f901461016857806344bb3b2f146101705780634cf088d9146101785780636db5c8fd1461018057610100565b806308dcb3601461010557806312671c2614610129578063233dedf1146101585780633410fe6e14610160575b600080fd5b61010d610238565b604080516001600160a01b039092168252519081900360200190f35b6101466004803603602081101561013f57600080fd5b5035610247565b60408051918252519081900360200190f35b610146610259565b61014661025f565b610146610266565b61014661026c565b61010d610272565b610146610281565b610146610287565b610146600480360360208110156101a657600080fd5b50356001600160a01b031661028d565b61014661029f565b61010d6102a5565b6101ce6102b4565b604080519115158252519081900360200190f35b6101466102d8565b6101466004803603602081101561020057600080fd5b50356001600160a01b03166102df565b6102366004803603602081101561022657600080fd5b50356001600160a01b03166102f1565b005b6001546001600160a01b031681565b600a6020526000908152604090205481565b600b5481565b6227ac4081565b610b9f81565b60055481565b6002546001600160a01b031681565b60035481565b60045481565b60066020526000908152604090205481565b60085481565b6000546001600160a01b031690565b600080546001600160a01b03166102c9610345565b6001600160a01b031614905090565b6212750081565b60076020526000908152604090205481565b6102f96102b4565b610339576040805162461bcd60e51b815260206004820152600c60248201526b1d5b985d5d1a1bdc9a5e995960a21b604482015290519081900360640190fd5b61034281610349565b50565b3390565b6001600160a01b03811661038e5760405162461bcd60e51b81526004018080602001828103825260268152602001806103ea6026913960400191505060405180910390fd5b600080546040516001600160a01b03808516939216917f8be0079c531659141344cd1fd0a4f28419497f9722a3daafe3b4186f6b6457e091a3600080546001600160a01b0319166001600160a01b039290921691909117905556fe4f776e61626c653a206e6577206f776e657220697320746865207a65726f2061646472657373a265627a7a723158204a2ed378518cde15961895029e22335c643cf80b696269cbdd5e4ebbde13911f64736f6c63430005110032",
    "linkReferences": {}
  },
  "methodIdentifiers": {
    "BASE_RATE()": "41910f90",
    "DIVISOR()": "3410fe6e",
    "SOV()": "08dcb360",
    "TWO_WEEKS()": "934d1fa4",
    "averageBlockTime()": "233dedf1",
    "checkpointBlockDetails(uint256)": "12671c26",
    "claimedBalances(address)": "d42b779d",
    "deploymentBlock()": "82100e3f",
    "isOwner()": "8f32d59b",
    "maxDuration()": "6db5c8fd",
    "owner()": "8da5cb5b",
    "staking()": "4cf088d9",
    "startTime()": "78e97925",
    "stopBlock()": "44bb3b2f",
    "transferOwnership(address)": "f2fde38b",
    "withdrawals(address)": "7a9262a2"
  },
  "id": 75
}