{
  "abi": [
    {
      "anonymous": false,
      "inputs": [
        {
          "indexed": false,
          "internalType": "address",
          "name": "admin",
          "type": "address"
        }
      ],
      "name": "AdminAdded",
      "type": "event"
    },
    {
      "anonymous": false,
      "inputs": [
        {
          "indexed": false,
          "internalType": "address",
          "name": "admin",
          "type": "address"
        }
      ],
      "name": "AdminRemoved",
      "type": "event"
    },
    {
      "anonymous": false,
      "inputs": [
        {
          "indexed": false,
          "internalType": "bytes32",
          "name": "hash",
          "type": "bytes32"
        }
      ],
      "name": "ContractCodeHashAdded",
      "type": "event"
    },
    {
      "anonymous": false,
      "inputs": [
        {
          "indexed": false,
          "internalType": "bytes32",
          "name": "hash",
          "type": "bytes32"
        }
      ],
      "name": "ContractCodeHashRemoved",
      "type": "event"
    },
    {
      "anonymous": false,
      "inputs": [
        {
          "indexed": true,
          "internalType": "address",
          "name": "delegator",
          "type": "address"
        },
        {
          "indexed": false,
          "internalType": "uint256",
          "name": "lockedUntil",
          "type": "uint256"
        },
        {
          "indexed": true,
          "internalType": "address",
          "name": "fromDelegate",
          "type": "address"
        },
        {
          "indexed": true,
          "internalType": "address",
          "name": "toDelegate",
          "type": "address"
        }
      ],
      "name": "DelegateChanged",
      "type": "event"
    },
    {
      "anonymous": false,
      "inputs": [
        {
          "indexed": true,
          "internalType": "address",
          "name": "delegate",
          "type": "address"
        },
        {
          "indexed": false,
          "internalType": "uint256",
          "name": "lockedUntil",
          "type": "uint256"
        },
        {
          "indexed": false,
          "internalType": "uint256",
          "name": "previousBalance",
          "type": "uint256"
        },
        {
          "indexed": false,
          "internalType": "uint256",
          "name": "newBalance",
          "type": "uint256"
        }
      ],
      "name": "DelegateStakeChanged",
      "type": "event"
    },
    {
      "anonymous": false,
      "inputs": [
        {
          "indexed": true,
          "internalType": "address",
          "name": "staker",
          "type": "address"
        },
        {
          "indexed": false,
          "internalType": "uint256",
          "name": "previousDate",
          "type": "uint256"
        },
        {
          "indexed": false,
          "internalType": "uint256",
          "name": "newDate",
          "type": "uint256"
        },
        {
          "indexed": false,
          "internalType": "uint256",
          "name": "amountStaked",
          "type": "uint256"
        }
      ],
      "name": "ExtendedStakingDuration",
      "type": "event"
    },
    {
      "anonymous": false,
      "inputs": [
        {
          "indexed": true,
          "internalType": "address",
          "name": "previousOwner",
          "type": "address"
        },
        {
          "indexed": true,
          "internalType": "address",
          "name": "newOwner",
          "type": "address"
        }
      ],
      "name": "OwnershipTransferred",
      "type": "event"
    },
    {
      "anonymous": false,
      "inputs": [
        {
          "indexed": true,
          "internalType": "address",
          "name": "pauser",
          "type": "address"
        },
        {
          "indexed": true,
          "internalType": "bool",
          "name": "added",
          "type": "bool"
        }
      ],
      "name": "PauserAddedOrRemoved",
      "type": "event"
    },
    {
      "anonymous": false,
      "inputs": [
        {
          "indexed": true,
          "internalType": "bool",
          "name": "setFrozen",
          "type": "bool"
        }
      ],
      "name": "StakingFrozen",
      "type": "event"
    },
    {
      "anonymous": false,
      "inputs": [
        {
          "indexed": true,
          "internalType": "bool",
          "name": "setPaused",
          "type": "bool"
        }
      ],
      "name": "StakingPaused",
      "type": "event"
    },
    {
      "anonymous": false,
      "inputs": [
        {
          "indexed": true,
          "internalType": "address",
          "name": "staker",
          "type": "address"
        },
        {
          "indexed": false,
          "internalType": "uint256",
          "name": "amount",
          "type": "uint256"
        },
        {
          "indexed": false,
          "internalType": "uint256",
          "name": "until",
          "type": "uint256"
        },
        {
          "indexed": true,
          "internalType": "address",
          "name": "receiver",
          "type": "address"
        },
        {
          "indexed": false,
          "internalType": "bool",
          "name": "isGovernance",
          "type": "bool"
        }
      ],
      "name": "StakingWithdrawn",
      "type": "event"
    },
    {
      "anonymous": false,
      "inputs": [
        {
          "indexed": true,
          "internalType": "address",
          "name": "caller",
          "type": "address"
        },
        {
          "indexed": false,
          "internalType": "address",
          "name": "receiver",
          "type": "address"
        }
      ],
      "name": "TeamVestingCancelled",
      "type": "event"
    },
    {
      "anonymous": false,
      "inputs": [
        {
          "indexed": true,
          "internalType": "address",
          "name": "caller",
          "type": "address"
        },
        {
          "indexed": false,
          "internalType": "address",
          "name": "receiver",
          "type": "address"
        },
        {
          "indexed": false,
          "internalType": "uint256",
          "name": "lastProcessedDate",
          "type": "uint256"
        }
      ],
      "name": "TeamVestingPartiallyCancelled",
      "type": "event"
    },
    {
      "anonymous": false,
      "inputs": [
        {
          "indexed": true,
          "internalType": "address",
          "name": "staker",
          "type": "address"
        },
        {
          "indexed": false,
          "internalType": "uint256",
          "name": "amount",
          "type": "uint256"
        },
        {
          "indexed": false,
          "internalType": "uint256",
          "name": "lockedUntil",
          "type": "uint256"
        },
        {
          "indexed": false,
          "internalType": "uint256",
          "name": "totalStaked",
          "type": "uint256"
        }
      ],
      "name": "TokensStaked",
      "type": "event"
    },
    {
      "anonymous": false,
      "inputs": [
        {
          "indexed": false,
          "internalType": "uint256",
          "name": "amount",
          "type": "uint256"
        }
      ],
      "name": "TokensUnlocked",
      "type": "event"
    },
    {
      "anonymous": false,
      "inputs": [
        {
          "indexed": false,
          "internalType": "uint256",
          "name": "lockedTS",
          "type": "uint256"
        },
        {
          "indexed": false,
          "internalType": "uint96",
          "name": "value",
          "type": "uint96"
        }
      ],
      "name": "VestingStakeSet",
      "type": "event"
    },
    {
      "anonymous": false,
      "inputs": [
        {
          "indexed": false,
          "internalType": "address",
          "name": "vesting",
          "type": "address"
        },
        {
          "indexed": false,
          "internalType": "address",
          "name": "receiver",
          "type": "address"
        }
      ],
      "name": "VestingTokensWithdrawn",
      "type": "event"
    },
    {
      "constant": true,
      "inputs": [],
      "name": "DELEGATION_TYPEHASH",
      "outputs": [
        {
          "internalType": "bytes32",
          "name": "",
          "type": "bytes32"
        }
      ],
      "payable": false,
      "stateMutability": "view",
      "type": "function"
    },
    {
      "constant": true,
      "inputs": [],
      "name": "DOMAIN_TYPEHASH",
      "outputs": [
        {
          "internalType": "bytes32",
          "name": "",
          "type": "bytes32"
        }
      ],
      "payable": false,
      "stateMutability": "view",
      "type": "function"
    },
    {
      "constant": true,
      "inputs": [],
      "name": "MAX_DURATION",
      "outputs": [
        {
          "internalType": "uint256",
          "name": "",
          "type": "uint256"
        }
      ],
      "payable": false,
      "stateMutability": "view",
      "type": "function"
    },
    {
      "constant": true,
      "inputs": [],
      "name": "MAX_VOTING_WEIGHT",
      "outputs": [
        {
          "internalType": "uint96",
          "name": "",
          "type": "uint96"
        }
      ],
      "payable": false,
      "stateMutability": "view",
      "type": "function"
    },
    {
      "constant": true,
      "inputs": [],
      "name": "SOVToken",
      "outputs": [
        {
          "internalType": "contract IERC20",
          "name": "",
          "type": "address"
        }
      ],
      "payable": false,
      "stateMutability": "view",
      "type": "function"
    },
    {
      "constant": true,
      "inputs": [],
      "name": "WEIGHT_FACTOR",
      "outputs": [
        {
          "internalType": "uint96",
          "name": "",
          "type": "uint96"
        }
      ],
      "payable": false,
      "stateMutability": "view",
      "type": "function"
    },
    {
      "constant": true,
      "inputs": [
        {
          "internalType": "address",
          "name": "",
          "type": "address"
        }
      ],
      "name": "admins",
      "outputs": [
        {
          "internalType": "bool",
          "name": "",
          "type": "bool"
        }
      ],
      "payable": false,
      "stateMutability": "view",
      "type": "function"
    },
    {
      "constant": true,
      "inputs": [],
      "name": "allUnlocked",
      "outputs": [
        {
          "internalType": "bool",
          "name": "",
          "type": "bool"
        }
      ],
      "payable": false,
      "stateMutability": "view",
      "type": "function"
    },
    {
      "constant": true,
      "inputs": [
        {
          "internalType": "address",
          "name": "account",
          "type": "address"
        }
      ],
      "name": "balanceOf",
      "outputs": [
        {
          "internalType": "uint96",
          "name": "balance",
          "type": "uint96"
        }
      ],
      "payable": false,
      "stateMutability": "view",
      "type": "function"
    },
    {
      "constant": true,
      "inputs": [
        {
          "internalType": "address",
          "name": "",
          "type": "address"
        },
        {
          "internalType": "uint256",
          "name": "",
          "type": "uint256"
        },
        {
          "internalType": "uint32",
          "name": "",
          "type": "uint32"
        }
      ],
      "name": "delegateStakingCheckpoints",
      "outputs": [
        {
          "internalType": "uint32",
          "name": "fromBlock",
          "type": "uint32"
        },
        {
          "internalType": "uint96",
          "name": "stake",
          "type": "uint96"
        }
      ],
      "payable": false,
      "stateMutability": "view",
      "type": "function"
    },
    {
      "constant": true,
      "inputs": [
        {
          "internalType": "address",
          "name": "",
          "type": "address"
        },
        {
          "internalType": "uint256",
          "name": "",
          "type": "uint256"
        }
      ],
      "name": "delegates",
      "outputs": [
        {
          "internalType": "address",
          "name": "",
          "type": "address"
        }
      ],
      "payable": false,
      "stateMutability": "view",
      "type": "function"
    },
    {
      "constant": false,
      "inputs": [
        {
          "internalType": "uint256",
          "name": "previousLock",
          "type": "uint256"
        },
        {
          "internalType": "uint256",
          "name": "until",
          "type": "uint256"
        }
      ],
      "name": "extendStakingDuration",
      "outputs": [],
      "payable": false,
      "stateMutability": "nonpayable",
      "type": "function"
    },
    {
      "constant": true,
      "inputs": [],
      "name": "feeSharing",
      "outputs": [
        {
          "internalType": "contract IFeeSharingCollector",
          "name": "",
          "type": "address"
        }
      ],
      "payable": false,
      "stateMutability": "view",
      "type": "function"
    },
    {
      "constant": true,
      "inputs": [],
      "name": "frozen",
      "outputs": [
        {
          "internalType": "bool",
          "name": "",
          "type": "bool"
        }
      ],
      "payable": false,
      "stateMutability": "view",
      "type": "function"
    },
    {
      "constant": true,
      "inputs": [
        {
          "internalType": "uint256",
          "name": "lockedTS",
          "type": "uint256"
        }
      ],
      "name": "getCurrentStakedUntil",
      "outputs": [
        {
          "internalType": "uint96",
          "name": "",
          "type": "uint96"
        }
      ],
      "payable": false,
      "stateMutability": "view",
      "type": "function"
    },
    {
      "constant": true,
      "inputs": [],
      "name": "getFunctionsList",
      "outputs": [
        {
          "internalType": "bytes4[]",
          "name": "",
          "type": "bytes4[]"
        }
      ],
      "payable": false,
      "stateMutability": "pure",
      "type": "function"
    },
    {
      "constant": true,
      "inputs": [
        {
          "internalType": "address",
          "name": "account",
          "type": "address"
        }
      ],
      "name": "getStakes",
      "outputs": [
        {
          "internalType": "uint256[]",
          "name": "dates",
          "type": "uint256[]"
        },
        {
          "internalType": "uint96[]",
          "name": "stakes",
          "type": "uint96[]"
        }
      ],
      "payable": false,
      "stateMutability": "view",
      "type": "function"
    },
    {
      "constant": true,
      "inputs": [],
      "name": "isOwner",
      "outputs": [
        {
          "internalType": "bool",
          "name": "",
          "type": "bool"
        }
      ],
      "payable": false,
      "stateMutability": "view",
      "type": "function"
    },
    {
      "constant": true,
      "inputs": [],
      "name": "kickoffTS",
      "outputs": [
        {
          "internalType": "uint256",
          "name": "",
          "type": "uint256"
        }
      ],
      "payable": false,
      "stateMutability": "view",
      "type": "function"
    },
    {
      "constant": true,
      "inputs": [],
      "name": "newStakingContract",
      "outputs": [
        {
          "internalType": "address",
          "name": "",
          "type": "address"
        }
      ],
      "payable": false,
      "stateMutability": "view",
      "type": "function"
    },
    {
      "constant": true,
      "inputs": [
        {
          "internalType": "address",
          "name": "",
          "type": "address"
        }
      ],
      "name": "nonces",
      "outputs": [
        {
          "internalType": "uint256",
          "name": "",
          "type": "uint256"
        }
      ],
      "payable": false,
      "stateMutability": "view",
      "type": "function"
    },
    {
      "constant": true,
      "inputs": [
        {
          "internalType": "address",
          "name": "",
          "type": "address"
        },
        {
          "internalType": "uint256",
          "name": "",
          "type": "uint256"
        }
      ],
      "name": "numDelegateStakingCheckpoints",
      "outputs": [
        {
          "internalType": "uint32",
          "name": "",
          "type": "uint32"
        }
      ],
      "payable": false,
      "stateMutability": "view",
      "type": "function"
    },
    {
      "constant": true,
      "inputs": [
        {
          "internalType": "uint256",
          "name": "",
          "type": "uint256"
        }
      ],
      "name": "numTotalStakingCheckpoints",
      "outputs": [
        {
          "internalType": "uint32",
          "name": "",
          "type": "uint32"
        }
      ],
      "payable": false,
      "stateMutability": "view",
      "type": "function"
    },
    {
      "constant": true,
      "inputs": [
        {
          "internalType": "address",
          "name": "",
          "type": "address"
        },
        {
          "internalType": "uint256",
          "name": "",
          "type": "uint256"
        }
      ],
      "name": "numUserStakingCheckpoints",
      "outputs": [
        {
          "internalType": "uint32",
          "name": "",
          "type": "uint32"
        }
      ],
      "payable": false,
      "stateMutability": "view",
      "type": "function"
    },
    {
      "constant": true,
      "inputs": [
        {
          "internalType": "uint256",
          "name": "",
          "type": "uint256"
        }
      ],
      "name": "numVestingCheckpoints",
      "outputs": [
        {
          "internalType": "uint32",
          "name": "",
          "type": "uint32"
        }
      ],
      "payable": false,
      "stateMutability": "view",
      "type": "function"
    },
    {
      "constant": true,
      "inputs": [],
      "name": "owner",
      "outputs": [
        {
          "internalType": "address",
          "name": "",
          "type": "address"
        }
      ],
      "payable": false,
      "stateMutability": "view",
      "type": "function"
    },
    {
      "constant": true,
      "inputs": [],
      "name": "paused",
      "outputs": [
        {
          "internalType": "bool",
          "name": "",
          "type": "bool"
        }
      ],
      "payable": false,
      "stateMutability": "view",
      "type": "function"
    },
    {
      "constant": true,
      "inputs": [
        {
          "internalType": "address",
          "name": "",
          "type": "address"
        }
      ],
      "name": "pausers",
      "outputs": [
        {
          "internalType": "bool",
          "name": "",
          "type": "bool"
        }
      ],
      "payable": false,
      "stateMutability": "view",
      "type": "function"
    },
    {
      "constant": false,
      "inputs": [
        {
          "internalType": "address",
          "name": "_sender",
          "type": "address"
        },
        {
          "internalType": "uint256",
          "name": "_amount",
          "type": "uint256"
        },
        {
          "internalType": "address",
          "name": "_token",
          "type": "address"
        },
        {
          "internalType": "bytes",
          "name": "_data",
          "type": "bytes"
        }
      ],
      "name": "receiveApproval",
      "outputs": [],
      "payable": false,
      "stateMutability": "nonpayable",
      "type": "function"
    },
    {
      "constant": false,
      "inputs": [
        {
          "internalType": "uint96",
          "name": "amount",
          "type": "uint96"
        },
        {
          "internalType": "uint256",
          "name": "until",
          "type": "uint256"
        },
        {
          "internalType": "address",
          "name": "stakeFor",
          "type": "address"
        },
        {
          "internalType": "address",
          "name": "delegatee",
          "type": "address"
        }
      ],
      "name": "stake",
      "outputs": [],
      "payable": false,
      "stateMutability": "nonpayable",
      "type": "function"
    },
    {
      "constant": false,
      "inputs": [
        {
          "internalType": "uint256",
          "name": "amount",
          "type": "uint256"
        },
        {
          "internalType": "uint256",
          "name": "cliff",
          "type": "uint256"
        },
        {
          "internalType": "uint256",
          "name": "duration",
          "type": "uint256"
        },
        {
          "internalType": "uint256",
          "name": "intervalLength",
          "type": "uint256"
        },
        {
          "internalType": "address",
          "name": "stakeFor",
          "type": "address"
        },
        {
          "internalType": "address",
          "name": "delegatee",
          "type": "address"
        }
      ],
      "name": "stakeBySchedule",
      "outputs": [],
      "payable": false,
      "stateMutability": "nonpayable",
      "type": "function"
    },
    {
      "constant": false,
      "inputs": [
        {
          "internalType": "address",
          "name": "sender",
          "type": "address"
        },
        {
          "internalType": "uint96",
          "name": "amount",
          "type": "uint96"
        },
        {
          "internalType": "uint256",
          "name": "until",
          "type": "uint256"
        },
        {
          "internalType": "address",
          "name": "stakeFor",
          "type": "address"
        },
        {
          "internalType": "address",
          "name": "delegatee",
          "type": "address"
        }
      ],
      "name": "stakeWithApproval",
      "outputs": [],
      "payable": false,
      "stateMutability": "nonpayable",
      "type": "function"
    },
    {
      "constant": false,
      "inputs": [
        {
          "internalType": "uint256",
          "name": "amount",
          "type": "uint256"
        },
        {
          "internalType": "uint256",
          "name": "cliff",
          "type": "uint256"
        },
        {
          "internalType": "uint256",
          "name": "duration",
          "type": "uint256"
        },
        {
          "internalType": "uint256",
          "name": "intervalLength",
          "type": "uint256"
        },
        {
          "internalType": "address",
          "name": "stakeFor",
          "type": "address"
        },
        {
          "internalType": "address",
          "name": "delegatee",
          "type": "address"
        }
      ],
      "name": "stakesBySchedule",
      "outputs": [],
      "payable": false,
      "stateMutability": "nonpayable",
      "type": "function"
    },
    {
      "constant": true,
      "inputs": [
        {
          "internalType": "uint256",
          "name": "timestamp",
          "type": "uint256"
        }
      ],
      "name": "timestampToLockDate",
      "outputs": [
        {
          "internalType": "uint256",
          "name": "",
          "type": "uint256"
        }
      ],
      "payable": false,
      "stateMutability": "view",
      "type": "function"
    },
    {
      "constant": true,
      "inputs": [
        {
          "internalType": "uint256",
          "name": "",
          "type": "uint256"
        },
        {
          "internalType": "uint32",
          "name": "",
          "type": "uint32"
        }
      ],
      "name": "totalStakingCheckpoints",
      "outputs": [
        {
          "internalType": "uint32",
          "name": "fromBlock",
          "type": "uint32"
        },
        {
          "internalType": "uint96",
          "name": "stake",
          "type": "uint96"
        }
      ],
      "payable": false,
      "stateMutability": "view",
      "type": "function"
    },
    {
      "constant": false,
      "inputs": [
        {
          "internalType": "address",
          "name": "newOwner",
          "type": "address"
        }
      ],
      "name": "transferOwnership",
      "outputs": [],
      "payable": false,
      "stateMutability": "nonpayable",
      "type": "function"
    },
    {
      "constant": true,
      "inputs": [
        {
          "internalType": "address",
          "name": "",
          "type": "address"
        },
        {
          "internalType": "uint256",
          "name": "",
          "type": "uint256"
        },
        {
          "internalType": "uint32",
          "name": "",
          "type": "uint32"
        }
      ],
      "name": "userStakingCheckpoints",
      "outputs": [
        {
          "internalType": "uint32",
          "name": "fromBlock",
          "type": "uint32"
        },
        {
          "internalType": "uint96",
          "name": "stake",
          "type": "uint96"
        }
      ],
      "payable": false,
      "stateMutability": "view",
      "type": "function"
    },
    {
      "constant": true,
      "inputs": [
        {
          "internalType": "uint256",
          "name": "",
          "type": "uint256"
        },
        {
          "internalType": "uint32",
          "name": "",
          "type": "uint32"
        }
      ],
      "name": "vestingCheckpoints",
      "outputs": [
        {
          "internalType": "uint32",
          "name": "fromBlock",
          "type": "uint32"
        },
        {
          "internalType": "uint96",
          "name": "stake",
          "type": "uint96"
        }
      ],
      "payable": false,
      "stateMutability": "view",
      "type": "function"
    },
    {
      "constant": true,
      "inputs": [
        {
          "internalType": "bytes32",
          "name": "",
          "type": "bytes32"
        }
      ],
      "name": "vestingCodeHashes",
      "outputs": [
        {
          "internalType": "bool",
          "name": "",
          "type": "bool"
        }
      ],
      "payable": false,
      "stateMutability": "view",
      "type": "function"
    },
    {
      "constant": true,
      "inputs": [],
      "name": "vestingRegistryLogic",
      "outputs": [
        {
          "internalType": "contract IVestingRegistry",
          "name": "",
          "type": "address"
        }
      ],
      "payable": false,
      "stateMutability": "view",
      "type": "function"
    },
    {
      "constant": true,
      "inputs": [
        {
          "internalType": "address",
          "name": "",
          "type": "address"
        }
      ],
      "name": "vestingWhitelist",
      "outputs": [
        {
          "internalType": "bool",
          "name": "",
          "type": "bool"
        }
      ],
      "payable": false,
      "stateMutability": "view",
      "type": "function"
    },
    {
      "constant": true,
      "inputs": [],
      "name": "weightScaling",
      "outputs": [
        {
          "internalType": "uint96",
          "name": "",
          "type": "uint96"
        }
      ],
      "payable": false,
      "stateMutability": "view",
      "type": "function"
    }
  ],
  "bytecode": {
    "object": "0x60c0604052600a608081905269534f565374616b696e6760b01b60a09081526200002d9160029190620000ae565b506005805460ff19169055600d80546001600160a01b0316600360a01b179055600062000059620000a9565b600080546001600160a01b0319166001600160a01b0383169081178255604051929350917f8be0079c531659141344cd1fd0a4f28419497f9722a3daafe3b4186f6b6457e0908290a35062000150565b335b90565b828054600181600116156101000203166002900490600052602060002090601f016020900481019282601f10620000f157805160ff191683800117855562000121565b8280016001018555821562000121579182015b828111156200012157825182559160200191906001019062000104565b506200012f92915062000133565b5090565b620000ab91905b808211156200012f57600081556001016200013a565b6139aa80620001606000396000f3fe608060405234801561001057600080fd5b506004361061025d5760003560e01c80638f32d59b11610146578063bf626ec1116100c3578063db27ec1811610087578063db27ec18146104cd578063dfb267c2146104e0578063e7a324dc146104f3578063eefb8c47146104fb578063f2fde38b1461050e578063f3f19731146105215761025d565b8063bf626ec114610495578063c1b79b051461033d578063d27569e71461049d578063d5c38464146104a5578063d8ad326d146104b85761025d565b8063a58848c51161010a578063a58848c514610457578063adae90021461045f578063ae81dfe414610472578063b1724b461461047a578063bb533cf2146104825761025d565b80638f32d59b146104015780638f4ffcb1146104095780639436e7d41461041c57806394c2ce581461043c5780639929e8861461044f5761025d565b8063429b62e5116101df57806370a08231116101a357806370a082311461038c57806372ec97951461039f5780637ba6f458146103b25780637ecebe00146103d357806380f51c12146103e65780638da5cb5b146103f95761025d565b8063429b62e51461032a5780634b2fea1e1461033d5780635c975abb1461035057806368cefccc146103585780636b6fde0e146103795761025d565b8063104932cf11610226578063104932cf146102d257806317748adc146102da57806320606b70146102ef57806325629ec0146102f757806327dd1b001461030a5761025d565b8062073f991461026257806303a18fa314610280578063054f7d9c1461029557806307392cc0146102aa5780630c09ddfd146102bd575b600080fd5b61026a610534565b604051610277919061367a565b60405180910390f35b61028861053a565b6040516102779190613688565b61029d610549565b604051610277919061366c565b61029d6102b8366004612c36565b610557565b6102d06102cb366004612ba3565b61056c565b005b6102886105f5565b6102e2610604565b6040516102779190613856565b61026a610609565b6102d0610305366004612d6d565b610620565b61031d610318366004612a9e565b610680565b60405161027791906135d8565b61029d610338366004612a78565b6106a6565b6102d061034b366004612cb6565b6106bb565b61029d61071c565b61036b610366366004612b56565b610725565b60405161027792919061383b565b61036b610387366004612b56565b610760565b6102e261039a366004612a78565b61079b565b61026a6103ad366004612c36565b61080a565b6103c56103c0366004612a78565b61081d565b604051610277929190613647565b61026a6103e1366004612a78565b610958565b61029d6103f4366004612a78565b61096a565b61031d61097f565b61029d61098e565b6102d0610417366004612ad8565b6109b2565b61042f61042a366004612c36565b610ba6565b604051610277919061382d565b61042f61044a366004612a9e565b610bbe565b61029d610be1565b610288610bea565b61029d61046d366004612a78565b610bf9565b61031d610c0e565b61026a610c22565b61042f610490366004612c36565b610c2a565b6102e2610c42565b6102e2610c58565b6102e26104b3366004612c36565b610c5d565b6104c0610cba565b6040516102779190613636565b61042f6104db366004612a9e565b610ece565b61036b6104ee366004612d3d565b610ef1565b61026a610f26565b6102d0610509366004612c97565b610f32565b6102d061051c366004612a78565b61113e565b61036b61052f366004612d3d565b61116e565b60015481565b600d546001600160a01b031681565b601554610100900460ff1681565b60106020526000908152604090205460ff1681565b3330146105945760405162461bcd60e51b815260040161058b90613767565b60405180910390fd5b60155460ff16156105b75760405162461bcd60e51b815260040161058b906137e7565b601554610100900460ff16156105df5760405162461bcd60e51b815260040161058b906137e7565b6105ee858585858560006111a3565b5050505050565b6013546001600160a01b031681565b600981565b604051610615906135c2565b604051809103902081565b60155460ff16156106435760405162461bcd60e51b815260040161058b906137e7565b601554610100900460ff161561066b5760405162461bcd60e51b815260040161058b906137e7565b61067a338585858560006111a3565b50505050565b60046020908152600092835260408084209091529082529020546001600160a01b031681565b600f6020526000908152604090205460ff1681565b60155460ff16156106de5760405162461bcd60e51b815260040161058b906137e7565b601554610100900460ff16156107065760405162461bcd60e51b815260040161058b906137e7565b6107148686868686866111b3565b505050505050565b60155460ff1681565b600a60209081526000938452604080852082529284528284209052825290205463ffffffff811690600160201b90046001600160601b031682565b600860209081526000938452604080852082529284528284209052825290205463ffffffff811690600160201b90046001600160601b031682565b6001546000905b63059fa60042018111610804576107f8826107bd85846113fe565b6040518060400160405280601c81526020017f5374616b696e673a3a62616c616e63654f663a206f766572666c6f7700000000815250611461565b915062127500016107a2565b50919050565b60006108158261149d565b90505b919050565b606080600061083163059fa600420161149d565b60015490915060009062127500015b82811161087357600061085387836113fe565b6001600160601b03161115610869576001909101905b6212750001610840565b508060405190808252806020026020018201604052801561089e578160200160208202803883390190505b509350806040519080825280602002602001820160405280156108cb578160200160208202803883390190505b5060015490935060009062127500015b83811161094f5760006108ee88836113fe565b90506001600160601b03811615610944578187848151811061090c57fe5b6020026020010181815250508086848151811061092557fe5b6001600160601b03909216602092830291909101909101526001909201915b5062127500016108db565b50505050915091565b600c6020526000908152604090205481565b60146020526000908152604090205460ff1681565b6000546001600160a01b031690565b600080546001600160a01b03166109a36114dd565b6001600160a01b031614905090565b6109ba6114e1565b6001600160a01b0316336001600160a01b0316146109ea5760405162461bcd60e51b815260040161058b90613767565b336001600160a01b03841614610a125760405162461bcd60e51b815260040161058b90613767565b60006060610a1e6114f0565b90506000610a6185858080601f01602080910402602001604051908101604052809392919081815260200183838082843760009201919091525061152a92505050565b905060005b8251811015610aaf57828181518110610a7b57fe5b60200260200101516001600160e01b031916826001600160e01b0319161415610aa75760019350610aaf565b600101610a66565b5082610acd5760405162461bcd60e51b815260040161058b90613707565b600080600060201b8787604051602001610ae993929190613590565b604051602081830303815290604052806020019051610b0b9190810190612c54565b9093509150506001600160a01b03808316908b1614610b3c5760405162461bcd60e51b815260040161058b90613737565b888114610b5b5760405162461bcd60e51b815260040161058b906137d7565b610b9a87878080601f01602080910402602001604051908101604052809392919081815260200183838082843760009201919091525061153192505050565b50505050505050505050565b60076020526000908152604090205463ffffffff1681565b600960209081526000928352604080842090915290825290205463ffffffff1681565b60055460ff1681565b6003546001600160a01b031681565b600e6020526000908152604090205460ff1681565b60055461010090046001600160a01b031681565b63059fa60081565b60126020526000908152604090205463ffffffff1681565b600d54600160a01b90046001600160601b031681565b600a81565b60008181526007602052604081205463ffffffff1680610c7e576000610cb3565b6000838152600660209081526040808320600019850163ffffffff168452909152902054600160201b90046001600160601b03165b9392505050565b60408051600a808252610160820190925260609182919060208201610140803883390190505090506325629ec060e01b81600081518110610cf757fe5b6001600160e01b0319909216602092830291909101909101528051630c09ddfd60e01b9082906001908110610d2857fe5b6001600160e01b031990921660209283029190910190910152805163eefb8c4760e01b9082906002908110610d5957fe5b6001600160e01b0319909216602092830291909101909101528051632597f50f60e11b9082906003908110610d8a57fe5b6001600160e01b031990921660209283029190910190910152805163c1b79b0560e01b9082906004908110610dbb57fe5b6001600160e01b03199092166020928302919091019091015280516370a0823160e01b9082906005908110610dec57fe5b6001600160e01b0319909216602092830291909101909101528051633570e11960e21b9082906006908110610e1d57fe5b6001600160e01b0319909216602092830291909101909101528051630f74de8b60e31b9082906007908110610e4e57fe5b6001600160e01b03199092166020928302919091019091015280516372ec979560e01b9082906008908110610e7f57fe5b6001600160e01b0319909216602092830291909101909101528051638f4ffcb160e01b9082906009908110610eb057fe5b6001600160e01b031990921660209283029190910190910152905090565b600b60209081526000928352604080842090915290825290205463ffffffff1681565b600660209081526000928352604080842090915290825290205463ffffffff811690600160201b90046001600160601b031682565b604051610615906135cd565b60155460ff1615610f555760405162461bcd60e51b815260040161058b906137e7565b601554610100900460ff1615610f7d5760405162461bcd60e51b815260040161058b906137e7565b610f868261149d565b9150610f918161149d565b9050610f9d823361160b565b6000610fae63059fa600420161149d565b905080821115610fbc578091505b818310610fdb5760405162461bcd60e51b815260040161058b906137c7565b6000610feb33856001430361167c565b90506000816001600160601b0316116110165760405162461bcd60e51b815260040161058b90613727565b6110213385836118d1565b61102c338483611968565b611035336119f1565b1561104e576110448482611aca565b61104e8382611b44565b6110588482611bb1565b6110628382611c2b565b33600090815260046020908152604080832087845290915280822080546001600160a01b031981169091558583529120546001600160a01b039182169116806110db5750336000908152600460209081526040808320878452909152902080546001600160a01b0319166001600160a01b038316179055805b6110e6828785611c98565b6110f1818685611d39565b336001600160a01b03167f809d79c94c86576d61afef75495b8df415224bf885310fed7ea315039f8c5b4c87878660405161112e939291906137f7565b60405180910390a2505050505050565b61114661098e565b6111625760405162461bcd60e51b815260040161058b90613767565b61116b81611dc2565b50565b601160209081526000928352604080842090915290825290205463ffffffff811690600160201b90046001600160601b031682565b6107148686868686866001611e43565b600086116111d35760405162461bcd60e51b815260040161058b90613717565b63059fa6008411156111f75760405162461bcd60e51b815260040161058b906136e7565b600083116112175760405162461bcd60e51b815260040161058b90613787565b6212750083061561123a5760405162461bcd60e51b815260040161058b90613787565b816001600160a01b0316816001600160a01b03161415801561126457506001600160a01b03811615155b15611291576001600160a01b03821633146112915760405162461bcd60e51b815260040161058b906137b7565b600061129e86420161149d565b905060006112ad86420161149d565b9050808211156112cf5760405162461bcd60e51b815260040161058b90613777565b6000818310156112ef5785838303816112e457fe5b0460010190506112f3565b5060015b6000818a816112fe57fe5b6003546040516323b872dd60e01b81529290910492506001600160a01b0316906323b872dd9061133690339030908f906004016135e6565b602060405180830381600087803b15801561135057600080fd5b505af1158015611364573d6000803e3d6000fd5b505050506040513d601f19601f820116820180604052506113889190810190612c18565b6113a45760405162461bcd60e51b815260040161058b906136f7565b600182106113c4576113c4336001840383028c0386898960016000611e43565b8387015b8381116113f1576113d9818861160b565b6113ea3383838a8a60016000611e43565b87016113c8565b5050505050505050505050565b6001600160a01b0382166000818152600b60209081526040808320858452825280832054938352600a8252808320858452825280832063ffffffff9485166000190190941683529290522054600160201b90046001600160601b03165b92915050565b6000838301826001600160601b0380871690831610156114945760405162461bcd60e51b815260040161058b9190613696565b50949350505050565b600154600090808310156114c35760405162461bcd60e51b815260040161058b906136a7565b600062127500828503046212750002919091019392505050565b3390565b6003546001600160a01b031690565b60408051600180825281830190925260609182919060208083019080388339019050509050630c09ddfd60e01b81600081518110610eb057fe5b6020015190565b60006060306001600160a01b03168360405161154d91906135b6565b6000604051808303816000865af19150503d806000811461158a576040519150601f19603f3d011682016040523d82523d6000602084013e61158f565b606091505b5091509150816116065760448151116115ba5760405162461bcd60e51b815260040161058b906136b7565b6115ed6040518060400160405280601181526020017003932b1b2b4bb32a0b8383937bb30b61d1607d1b815250826120d1565b60405162461bcd60e51b815260040161058b9190613696565b505050565b6001600160a01b0381166000818152600b60209081526040808320868452825280832054938352600a8252808320868452825280832060001963ffffffff958616908101861685529252909120549091164314158061067a5760405162461bcd60e51b815260040161058b906137a7565b60006116866121cb565b82106116a45760405162461bcd60e51b815260040161058b90613797565b6116ad836121cf565b6001600160a01b0385166000908152600b6020908152604080832084845290915290205490935063ffffffff16806116e9576000915050610cb3565b6001600160a01b0385166000908152600a60209081526040808320878452825280832063ffffffff600019860181168552925290912054168310611775576001600160a01b0385166000908152600a6020908152604080832087845282528083206000199490940163ffffffff1683529290522054600160201b90046001600160601b03169050610cb3565b6001600160a01b0385166000908152600a60209081526040808320878452825280832083805290915290205463ffffffff168310156117b8576000915050610cb3565b600060001982015b8163ffffffff168163ffffffff16111561188357600282820363ffffffff160481036117ea6129cb565b506001600160a01b0388166000908152600a602090815260408083208a8452825280832063ffffffff858116855290835292819020815180830190925254928316808252600160201b9093046001600160601b0316918101919091529087141561185e57602001519450610cb39350505050565b805163ffffffff168711156118755781935061187c565b6001820392505b50506117c0565b506001600160a01b0386166000908152600a60209081526040808320888452825280832063ffffffff909416835292905220546001600160601b03600160201b909104169150509392505050565b6001600160a01b0383166000818152600b60209081526040808320868452825280832054938352600a8252808320868452825280832063ffffffff94851660001981019095168452825280832054815180830190925260048252634350303560e01b92820192909252600160201b9091046001600160601b0316919061195a90839086906121f4565b905061071486868584612233565b6001600160a01b0383166000818152600b60209081526040808320868452825280832054938352600a8252808320868452825280832063ffffffff948516600019810190951684528252808320548151808301909252600482526310d40c0d60e21b92820192909252600160201b9091046001600160601b0316919061195a9083908690611461565b6013546000908190833f906001600160a01b031615611a8d57601354604051633288436360e21b81526001600160a01b039091169063ca210d8c90611a3a9087906004016135d8565b60206040518083038186803b158015611a5257600080fd5b505afa158015611a66573d6000803e3d6000fd5b505050506040513d601f19601f82011682018060405250611a8a9190810190612c18565b91505b8115611a9e57600192505050610818565b60008181526010602052604090205460ff1615611ac057600192505050610818565b5060009392505050565b6000828152601260209081526040808320546011835281842063ffffffff918216600019810190921685528352818420548251808401909352600483526321a8181960e11b9383019390935292600160201b9092046001600160601b03169190611b3790839086906121f4565b90506105ee8584836123b5565b6000828152601260209081526040808320546011835281842063ffffffff91821660001981019092168552835281842054825180840190935260048352634350303160e01b9383019390935292600160201b9092046001600160601b03169190611b379083908690611461565b6000828152600760209081526040808320546006835281842063ffffffff91821660001981019092168552835281842054825180840190935260048352634350313160e01b9383019390935292600160201b9092046001600160601b03169190611c1e90839086906121f4565b90506105ee8584836124f5565b6000828152600760209081526040808320546006835281842063ffffffff91821660001981019092168552835281842054825180840190935260048352630435031360e41b9383019390935292600160201b9092046001600160601b03169190611c1e9083908690611461565b6001600160a01b038316600081815260096020908152604080832086845282528083205493835260088252808320868452825280832063ffffffff94851660001981019095168452909152812054600160201b90046001600160601b0390811691908416821115611d2d57611d2a828560405180604001604052806004815260200163086a060760e31b8152506121f4565b90505b61071486868584612635565b6001600160a01b038316600081815260096020908152604080832086845282528083205493835260088252808320868452825280832063ffffffff94851660001981019095168452825280832054815180830190925260048252634350303760e01b92820192909252600160201b9091046001600160601b03169190611d2a9083908690611461565b6001600160a01b038116611de85760405162461bcd60e51b815260040161058b906136d7565b600080546040516001600160a01b03808516939216917f8be0079c531659141344cd1fd0a4f28419497f9722a3daafe3b4186f6b6457e091a3600080546001600160a01b0319166001600160a01b0392909216919091179055565b6000866001600160601b031611611e6c5760405162461bcd60e51b815260040161058b90613747565b81611e7d57611e7a8561149d565b94505b428511611e9c5760405162461bcd60e51b815260040161058b90613757565b6001600160a01b038416611eae578693505b611eb8858561160b565b6001600160a01b038316611eca578392505b81611ef0576000611ee063059fa600420161149d565b905080861115611eee578095505b505b6000611efc85876113fe565b9050611f0b888887898661283a565b6001600160a01b0380861660009081526004602090815260408083208a84529091529020548116908516811461206657856001600160a01b0316856001600160a01b031614611f8a57886001600160a01b0316866001600160a01b031614611f855760405162461bcd60e51b815260040161058b906137b7565b611fea565b856001600160a01b0316896001600160a01b031614158015611fb457506001600160a01b03811615155b15611fea57886001600160a01b0316866001600160a01b031614611fea5760405162461bcd60e51b815260040161058b906136c7565b6001600160a01b0386811660009081526004602090815260408083208b8452909152902080546001600160a01b03191691871691909117905561202e818884611c98565b61206382896040518060400160405280601281526020017118591908185b5bdd5b9d1cc819985a5b195960721b815250611461565b97505b61207185888a611d39565b846001600160a01b0316816001600160a01b0316876001600160a01b03167fb846dc53d3621f480d692e73f4473156d20f23ff6b2c8237b7130b883226cca98a6040516120be919061367a565b60405180910390a4505050505050505050565b6060808390506060839050606060448251845101036040519080825280601f01601f191660200182016040528015612110576020820181803883390190505b509050806000805b85518110156121695785818151811061212d57fe5b602001015160f81c60f81b83838060010194508151811061214a57fe5b60200101906001600160f81b031916908160001a905350600101612118565b5060445b84518110156121be5784818151811061218257fe5b602001015160f81c60f81b83838060010194508151811061219f57fe5b60200101906001600160f81b031916908160001a90535060010161216d565b5090979650505050505050565b4390565b6000806121db8361149d565b90508281146121ed5762127500810192505b5090919050565b6000836001600160601b0316836001600160601b03161115829061222b5760405162461bcd60e51b815260040161058b9190613696565b505050900390565b600061225b436040518060400160405280600481526020016321a8181b60e11b81525061299c565b905060008363ffffffff161180156122ac57506001600160a01b0385166000908152600a60209081526040808320878452825280832063ffffffff6000198801811685529252909120548282169116145b1561230d576001600160a01b0385166000908152600a602090815260408083208784528252808320600019870163ffffffff16845290915290208054600160201b600160801b031916600160201b6001600160601b038516021790556105ee565b60408051808201825263ffffffff92831681526001600160601b0393841660208083019182526001600160a01b03989098166000818152600a8a528481208982528a5284812088871682528a52848120935184549351909716600160201b02600160201b600160801b031997871663ffffffff19948516179790971696909617909255908452600b875281842095845294909552939020805460019092019093169116179055565b60006123dd43604051806040016040528060048152602001634350303360e01b81525061299c565b905060008363ffffffff1611801561241c5750600084815260116020908152604080832063ffffffff6000198801811685529252909120548282169116145b1561246b576000848152601160209081526040808320600019870163ffffffff16845290915290208054600160201b600160801b031916600160201b6001600160601b0385160217905561067a565b60408051808201825263ffffffff92831681526001600160601b0393841660208083019182526000888152601182528481208887168252825284812093518454935163ffffffff1994851691881691909117600160201b600160801b031916600160201b919098160296909617909255958452601290529091208054909316600190920116179055565b600061251d436040518060400160405280600481526020016321a8189960e11b81525061299c565b905060008363ffffffff1611801561255c5750600084815260066020908152604080832063ffffffff6000198801811685529252909120548282169116145b156125ab576000848152600660209081526040808320600019870163ffffffff16845290915290208054600160201b600160801b031916600160201b6001600160601b0385160217905561067a565b60408051808201825263ffffffff92831681526001600160601b0393841660208083019182526000888152600682528481208887168252825284812093518454935163ffffffff1994851691881691909117600160201b600160801b031916600160201b919098160296909617909255958452600790529091208054909316600190920116179055565b600061265d43604051806040016040528060048152602001634350303960e01b81525061299c565b6001600160a01b03861660009081526008602090815260408083208884528252808320600019880163ffffffff9081168552925290912054919250600160201b9091046001600160601b0316908416158015906126f357506001600160a01b0386166000908152600860209081526040808320888452825280832063ffffffff6000198901811685529252909120548382169116145b15612754576001600160a01b03861660009081526008602090815260408083208884528252808320600019880163ffffffff16845290915290208054600160201b600160801b031916600160201b6001600160601b038616021790556127fd565b60408051808201825263ffffffff80851682526001600160601b0380871660208085019182526001600160a01b038c166000818152600883528781208d825283528781208c871682528352878120965187549451909516600160201b02600160201b600160801b031995871663ffffffff19958616179590951694909417909555938252600984528482208a835290935292909220805460018801909316929091169190911790555b856001600160a01b03167fc7b38fb25352e6f351f57e2c922f84db5c97e09a6246bbe1d2eedfcdb01c4c6286838660405161112e93929190613812565b80156128e2576003546040516323b872dd60e01b81526001600160a01b03909116906323b872dd906128749088903090899060040161360e565b602060405180830381600087803b15801561288e57600080fd5b505af11580156128a2573d6000803e3d6000fd5b505050506040513d601f19601f820116820180604052506128c69190810190612c18565b6128e25760405162461bcd60e51b815260040161058b906136f7565b60006128ee84846113fe565b905061293081866040518060400160405280601781526020017f696e6372656173655374616b653a206f766572666c6f77000000000000000000815250611461565b905061293c8386611c2b565b612947848487611968565b612950846119f1565b1561295f5761295f8386611b44565b836001600160a01b03167f0fc5b1bac0416800b42a669229a346b6e5a15db3896339dbdc5fa376e1e4570a86858460405161112e93929190613864565b600081600160201b84106129c35760405162461bcd60e51b815260040161058b9190613696565b509192915050565b604080518082019091526000808252602082015290565b803561145b8161392f565b805161145b8161392f565b805161145b81613943565b803561145b8161394c565b805161145b8161394c565b60008083601f840112612a2b57600080fd5b50813567ffffffffffffffff811115612a4357600080fd5b602083019150836001820283011115612a5b57600080fd5b9250929050565b803561145b81613955565b803561145b8161395e565b600060208284031215612a8a57600080fd5b6000612a9684846129e2565b949350505050565b60008060408385031215612ab157600080fd5b6000612abd85856129e2565b9250506020612ace85828601612a03565b9150509250929050565b600080600080600060808688031215612af057600080fd5b6000612afc88886129e2565b9550506020612b0d88828901612a03565b9450506040612b1e888289016129e2565b935050606086013567ffffffffffffffff811115612b3b57600080fd5b612b4788828901612a19565b92509250509295509295909350565b600080600060608486031215612b6b57600080fd5b6000612b7786866129e2565b9350506020612b8886828701612a03565b9250506040612b9986828701612a62565b9150509250925092565b600080600080600060a08688031215612bbb57600080fd5b6000612bc788886129e2565b9550506020612bd888828901612a6d565b9450506040612be988828901612a03565b9350506060612bfa888289016129e2565b9250506080612c0b888289016129e2565b9150509295509295909350565b600060208284031215612c2a57600080fd5b6000612a9684846129f8565b600060208284031215612c4857600080fd5b6000612a968484612a03565b600080600060608486031215612c6957600080fd5b6000612c758686612a0e565b9350506020612c86868287016129ed565b9250506040612b9986828701612a0e565b60008060408385031215612caa57600080fd5b6000612abd8585612a03565b60008060008060008060c08789031215612ccf57600080fd5b6000612cdb8989612a03565b9650506020612cec89828a01612a03565b9550506040612cfd89828a01612a03565b9450506060612d0e89828a01612a03565b9350506080612d1f89828a016129e2565b92505060a0612d3089828a016129e2565b9150509295509295509295565b60008060408385031215612d5057600080fd5b6000612d5c8585612a03565b9250506020612ace85828601612a62565b60008060008060808587031215612d8357600080fd5b6000612d8f8787612a6d565b9450506020612da087828801612a03565b9350506040612db1878288016129e2565b9250506060612dc2878288016129e2565b91505092959194509250565b6000612dda8383612f2a565b505060200190565b6000612dda8383612f21565b6000612dda8383613587565b612e03816138d0565b82525050565b612e0381613885565b6000612e1d82613878565b612e27818561387c565b9350612e3283613872565b8060005b83811015612e60578151612e4a8882612dce565b9750612e5583613872565b925050600101612e36565b509495945050505050565b6000612e7682613878565b612e80818561387c565b9350612e8b83613872565b8060005b83811015612e60578151612ea38882612de2565b9750612eae83613872565b925050600101612e8f565b6000612ec482613878565b612ece818561387c565b9350612ed983613872565b8060005b83811015612e60578151612ef18882612dee565b9750612efc83613872565b925050600101612edd565b612e0381613890565b612e03612f1c82613895565b61389f565b612e038161389f565b612e03816138a2565b6000612f3f8385610818565b9350612f4c8385846138ed565b50500190565b6000612f5d82613878565b612f678185610818565b9350612f778185602086016138f9565b9290920192915050565b612e03816138d7565b6000612f9582613878565b612f9f818561387c565b9350612faf8185602086016138f9565b612fb881613925565b9093019392505050565b6000612fcf601d8361387c565b7f74696d657374616d70203c20636f6e7472616374206372656174696f6e000000815260200192915050565b600061300860308361387c565b7f72656365697665417070726f76616c3a205472616e73616374696f6e2065786581526f31baba34b7b7103932bb32b93a32b21760811b602082015260400192915050565b600061305a602a8361387c565b7f4f6e6c792073656e64657220697320616c6c6f77656420746f206368616e67658152692064656c65676174656560b01b602082015260400192915050565b60006130a660268361387c565b7f4f776e61626c653a206e6577206f776e657220697320746865207a65726f206181526564647265737360d01b602082015260400192915050565b60006130ee60108361387c565b6f24b73b30b634b210323ab930ba34b7b760811b815260200192915050565b600061311a60238361387c565b7f53686f756c64207472616e7366657220746f6b656e73207375636365737366758152626c6c7960e81b602082015260400192915050565b600061315f60158361387c565b741b595d1a1bd9081a5cc81b9bdd08185b1b1bddd959605a1b815260200192915050565b6000613190600e8361387c565b6d125b9d985b1a5908185b5bdd5b9d60921b815260200192915050565b60006131ba60218361387c565b7f6e6f207374616b65732074696c6c207468652070726576206c6f636b206461748152606560f81b602082015260400192915050565b60006131fd600f8361387c565b6e0e6cadcc8cae440dad2e6dac2e8c6d608b1b815260200192915050565b600061322860208361387c565b7f616d6f756e74206e6565647320746f20626520626967676572207468616e2030815260200192915050565b600061326160378361387c565b7f5374616b696e673a3a5f74696d657374616d70546f4c6f636b446174653a207381527f74616b696e6720706572696f6420746f6f2073686f7274000000000000000000602082015260400192915050565b60006132c0604383610818565b7f454950373132446f6d61696e28737472696e67206e616d652c75696e7432353681527f20636861696e49642c6164647265737320766572696679696e67436f6e74726160208201526263742960e81b604082015260430192915050565b600061332b600c8361387c565b6b1d5b985d5d1a1bdc9a5e995960a21b815260200192915050565b600061335360108361387c565b6f496e76616c6964207363686564756c6560801b815260200192915050565b600061337f60178361387c565b7f496e76616c696420696e74657276616c206c656e677468000000000000000000815260200192915050565b60006133b8600e8361387c565b6d1b9bdd0819195d195c9b5a5b995960921b815260200192915050565b60006133e2602f8361387c565b7f63616e6e6f74206265206d696e656420696e207468652073616d6520626c6f6381526e6b206173206c617374207374616b6560881b602082015260400192915050565b6000613433604b83610818565b7f44656c65676174696f6e28616464726573732064656c6567617465652c75696e81527f74323536206c6f636b446174652c75696e74323536206e6f6e63652c75696e7460208201526a323536206578706972792960a81b6040820152604b0192915050565b60006134a660348361387c565b7f4f6e6c79207374616b65466f72206163636f756e7420697320616c6c6f77656481527320746f206368616e67652064656c65676174656560601b602082015260400192915050565b60006134fc601e8361387c565b7f6d75737420696e637265617365207374616b696e67206475726174696f6e0000815260200192915050565b6000613535600f8361387c565b6e0c2dadeeadce840dad2e6dac2e8c6d608b1b815260200192915050565b600061356060068361387c565b651c185d5cd95960d21b815260200192915050565b612e03816138bb565b612e03816138e2565b612e03816138c4565b600061359c8286612f10565b601c820191506135ad828486612f33565b95945050505050565b6000610cb38284612f52565b600061145b826132b3565b600061145b82613426565b6020810161145b8284612e09565b606081016135f48286612dfa565b6136016020830185612e09565b612a966040830184612f21565b6060810161361c8286612e09565b6136296020830185612e09565b612a96604083018461357e565b60208082528101610cb38184612e12565b604080825281016136588185612e6b565b90508181036020830152612a968184612eb9565b6020810161145b8284612f07565b6020810161145b8284612f21565b6020810161145b8284612f81565b60208082528101610cb38184612f8a565b6020808252810161081581612fc2565b6020808252810161081581612ffb565b602080825281016108158161304d565b6020808252810161081581613099565b60208082528101610815816130e1565b602080825281016108158161310d565b6020808252810161081581613152565b6020808252810161081581613183565b60208082528101610815816131ad565b60208082528101610815816131f0565b602080825281016108158161321b565b6020808252810161081581613254565b602080825281016108158161331e565b6020808252810161081581613346565b6020808252810161081581613372565b60208082528101610815816133ab565b60208082528101610815816133d5565b6020808252810161081581613499565b60208082528101610815816134ef565b6020808252810161081581613528565b6020808252810161081581613553565b606081016138058286612f21565b6136296020830185612f21565b606081016138208286612f21565b613629602083018561357e565b6020810161145b8284613575565b604081016138498285613575565b610cb36020830184613587565b6020810161145b8284613587565b60608101613805828661357e565b60200190565b5190565b90815260200190565b6000610815826138af565b151590565b63ffffffff191690565b90565b6001600160e01b03191690565b6001600160a01b031690565b63ffffffff1690565b6001600160601b031690565b6000610815825b600061081582613885565b6000610815826138c4565b82818337506000910152565b60005b838110156139145781810151838201526020016138fc565b8381111561067a5750506000910152565b601f01601f191690565b61393881613885565b811461116b57600080fd5b61393881613890565b6139388161389f565b613938816138bb565b613938816138c456fea365627a7a72315820c5894be30c354550e676d5767501a8c5f57ba0cb41aa1e8b552bae1e013be67c6c6578706572696d656e74616cf564736f6c63430005110040",
    "linkReferences": {}
  },
  "methodIdentifiers": {
    "DELEGATION_TYPEHASH()": "e7a324dc",
    "DOMAIN_TYPEHASH()": "20606b70",
    "MAX_DURATION()": "b1724b46",
    "MAX_VOTING_WEIGHT()": "17748adc",
    "SOVToken()": "a58848c5",
    "WEIGHT_FACTOR()": "d27569e7",
    "admins(address)": "429b62e5",
    "allUnlocked()": "9929e886",
    "balanceOf(address)": "70a08231",
    "delegateStakingCheckpoints(address,uint256,uint32)": "6b6fde0e",
    "delegates(address,uint256)": "27dd1b00",
    "extendStakingDuration(uint256,uint256)": "eefb8c47",
    "feeSharing()": "03a18fa3",
    "frozen()": "054f7d9c",
    "getCurrentStakedUntil(uint256)": "d5c38464",
    "getFunctionsList()": "d8ad326d",
    "getStakes(address)": "7ba6f458",
    "isOwner()": "8f32d59b",
    "kickoffTS()": "00073f99",
    "newStakingContract()": "ae81dfe4",
    "nonces(address)": "7ecebe00",
    "numDelegateStakingCheckpoints(address,uint256)": "94c2ce58",
    "numTotalStakingCheckpoints(uint256)": "9436e7d4",
    "numUserStakingCheckpoints(address,uint256)": "db27ec18",
    "numVestingCheckpoints(uint256)": "bb533cf2",
    "owner()": "8da5cb5b",
    "paused()": "5c975abb",
    "pausers(address)": "80f51c12",
    "receiveApproval(address,uint256,address,bytes)": "8f4ffcb1",
    "stake(uint96,uint256,address,address)": "25629ec0",
    "stakeBySchedule(uint256,uint256,uint256,uint256,address,address)": "c1b79b05",
    "stakeWithApproval(address,uint96,uint256,address,address)": "0c09ddfd",
    "stakesBySchedule(uint256,uint256,uint256,uint256,address,address)": "4b2fea1e",
    "timestampToLockDate(uint256)": "72ec9795",
    "totalStakingCheckpoints(uint256,uint32)": "dfb267c2",
    "transferOwnership(address)": "f2fde38b",
    "userStakingCheckpoints(address,uint256,uint32)": "68cefccc",
    "vestingCheckpoints(uint256,uint32)": "f3f19731",
    "vestingCodeHashes(bytes32)": "07392cc0",
    "vestingRegistryLogic()": "104932cf",
    "vestingWhitelist(address)": "adae9002",
    "weightScaling()": "bf626ec1"
  },
  "id": 65
}