{
  "address": "0xd8618438E50989966B75955D2A7F3e449216b75b",
  "abi": [
    {
      "anonymous": false,
      "inputs": [
        {
          "indexed": true,
          "internalType": "address",
          "name": "caller",
          "type": "address"
        },
        {
          "indexed": false,
          "internalType": "address",
          "name": "loanPoolToken",
          "type": "address"
        },
        {
          "indexed": false,
          "internalType": "address",
          "name": "receiver",
          "type": "address"
        },
        {
          "indexed": false,
          "internalType": "uint32",
          "name": "maxCheckpoints",
          "type": "uint32"
        }
      ],
      "name": "DividendsCollected",
      "type": "event"
    },
    {
      "anonymous": false,
      "inputs": [
        {
          "indexed": true,
          "internalType": "address",
          "name": "caller",
          "type": "address"
        },
        {
          "indexed": false,
          "internalType": "address",
          "name": "newStakingContract",
          "type": "address"
        }
      ],
      "name": "MigratedToNewStakingContract",
      "type": "event"
    },
    {
      "anonymous": false,
      "inputs": [
        {
          "indexed": true,
          "internalType": "address",
          "name": "previousOwner",
          "type": "address"
        },
        {
          "indexed": true,
          "internalType": "address",
          "name": "newOwner",
          "type": "address"
        }
      ],
      "name": "OwnershipTransferred",
      "type": "event"
    },
    {
      "anonymous": false,
      "inputs": [
        {
          "indexed": true,
          "internalType": "address",
          "name": "newOwner",
          "type": "address"
        },
        {
          "indexed": true,
          "internalType": "address",
          "name": "oldOwner",
          "type": "address"
        }
      ],
      "name": "TokenOwnerChanged",
      "type": "event"
    },
    {
      "anonymous": false,
      "inputs": [
        {
          "indexed": true,
          "internalType": "address",
          "name": "caller",
          "type": "address"
        },
        {
          "indexed": false,
          "internalType": "uint256",
          "name": "amount",
          "type": "uint256"
        }
      ],
      "name": "TokensStaked",
      "type": "event"
    },
    {
      "anonymous": false,
      "inputs": [
        {
          "indexed": true,
          "internalType": "address",
          "name": "caller",
          "type": "address"
        },
        {
          "indexed": false,
          "internalType": "address",
          "name": "receiver",
          "type": "address"
        }
      ],
      "name": "TokensWithdrawn",
      "type": "event"
    },
    {
      "anonymous": false,
      "inputs": [
        {
          "indexed": true,
          "internalType": "address",
          "name": "caller",
          "type": "address"
        },
        {
          "indexed": false,
          "internalType": "address",
          "name": "delegatee",
          "type": "address"
        }
      ],
      "name": "VotesDelegated",
      "type": "event"
    },
    {
      "constant": true,
      "inputs": [],
      "name": "FOUR_WEEKS",
      "outputs": [
        {
          "internalType": "uint256",
          "name": "",
          "type": "uint256"
        }
      ],
      "payable": false,
      "stateMutability": "view",
      "type": "function"
    },
    {
      "constant": true,
      "inputs": [],
      "name": "SOV",
      "outputs": [
        {
          "internalType": "contract IERC20",
          "name": "",
          "type": "address"
        }
      ],
      "payable": false,
      "stateMutability": "view",
      "type": "function"
    },
    {
      "constant": false,
      "inputs": [],
      "name": "approveOwnershipTransfer",
      "outputs": [],
      "payable": false,
      "stateMutability": "nonpayable",
      "type": "function"
    },
    {
      "constant": false,
      "inputs": [
        {
          "internalType": "address",
          "name": "_newTokenOwner",
          "type": "address"
        }
      ],
      "name": "changeTokenOwner",
      "outputs": [],
      "payable": false,
      "stateMutability": "nonpayable",
      "type": "function"
    },
    {
      "constant": true,
      "inputs": [],
      "name": "cliff",
      "outputs": [
        {
          "internalType": "uint256",
          "name": "",
          "type": "uint256"
        }
      ],
      "payable": false,
      "stateMutability": "view",
      "type": "function"
    },
    {
      "constant": true,
      "inputs": [],
      "name": "cliffAdded",
      "outputs": [
        {
          "internalType": "uint256",
          "name": "",
          "type": "uint256"
        }
      ],
      "payable": false,
      "stateMutability": "view",
      "type": "function"
    },
    {
      "constant": false,
      "inputs": [
        {
          "internalType": "address",
          "name": "_loanPoolToken",
          "type": "address"
        },
        {
          "internalType": "uint32",
          "name": "_maxCheckpoints",
          "type": "uint32"
        },
        {
          "internalType": "address",
          "name": "_receiver",
          "type": "address"
        }
      ],
      "name": "collectDividends",
      "outputs": [],
      "payable": false,
      "stateMutability": "nonpayable",
      "type": "function"
    },
    {
      "constant": false,
      "inputs": [
        {
          "internalType": "address",
          "name": "_delegatee",
          "type": "address"
        }
      ],
      "name": "delegate",
      "outputs": [],
      "payable": false,
      "stateMutability": "nonpayable",
      "type": "function"
    },
    {
      "constant": true,
      "inputs": [],
      "name": "duration",
      "outputs": [
        {
          "internalType": "uint256",
          "name": "",
          "type": "uint256"
        }
      ],
      "payable": false,
      "stateMutability": "view",
      "type": "function"
    },
    {
      "constant": true,
      "inputs": [],
      "name": "durationLeft",
      "outputs": [
        {
          "internalType": "uint256",
          "name": "",
          "type": "uint256"
        }
      ],
      "payable": false,
      "stateMutability": "view",
      "type": "function"
    },
    {
      "constant": true,
      "inputs": [],
      "name": "endDate",
      "outputs": [
        {
          "internalType": "uint256",
          "name": "",
          "type": "uint256"
        }
      ],
      "payable": false,
      "stateMutability": "view",
      "type": "function"
    },
    {
      "constant": true,
      "inputs": [],
      "name": "extendDurationFor",
      "outputs": [
        {
          "internalType": "uint256",
          "name": "",
          "type": "uint256"
        }
      ],
      "payable": false,
      "stateMutability": "view",
      "type": "function"
    },
    {
      "constant": false,
      "inputs": [],
      "name": "extendStaking",
      "outputs": [],
      "payable": false,
      "stateMutability": "nonpayable",
      "type": "function"
    },
    {
      "constant": true,
      "inputs": [],
      "name": "feeSharingCollector",
      "outputs": [
        {
          "internalType": "contract IFeeSharingCollector",
          "name": "",
          "type": "address"
        }
      ],
      "payable": false,
      "stateMutability": "view",
      "type": "function"
    },
    {
      "constant": true,
      "inputs": [],
      "name": "isOwner",
      "outputs": [
        {
          "internalType": "bool",
          "name": "",
          "type": "bool"
        }
      ],
      "payable": false,
      "stateMutability": "view",
      "type": "function"
    },
    {
      "constant": true,
      "inputs": [],
      "name": "lastStakingSchedule",
      "outputs": [
        {
          "internalType": "uint256",
          "name": "",
          "type": "uint256"
        }
      ],
      "payable": false,
      "stateMutability": "view",
      "type": "function"
    },
    {
      "constant": true,
      "inputs": [],
      "name": "maxInterval",
      "outputs": [
        {
          "internalType": "uint256",
          "name": "",
          "type": "uint256"
        }
      ],
      "payable": false,
      "stateMutability": "view",
      "type": "function"
    },
    {
      "constant": false,
      "inputs": [],
      "name": "migrateToNewStakingContract",
      "outputs": [],
      "payable": false,
      "stateMutability": "nonpayable",
      "type": "function"
    },
    {
      "constant": true,
      "inputs": [],
      "name": "newImplementation",
      "outputs": [
        {
          "internalType": "address",
          "name": "",
          "type": "address"
        }
      ],
      "payable": false,
      "stateMutability": "view",
      "type": "function"
    },
    {
      "constant": true,
      "inputs": [],
      "name": "newTokenOwner",
      "outputs": [
        {
          "internalType": "address",
          "name": "",
          "type": "address"
        }
      ],
      "payable": false,
      "stateMutability": "view",
      "type": "function"
    },
    {
      "constant": true,
      "inputs": [],
      "name": "owner",
      "outputs": [
        {
          "internalType": "address",
          "name": "",
          "type": "address"
        }
      ],
      "payable": false,
      "stateMutability": "view",
      "type": "function"
    },
    {
      "constant": false,
      "inputs": [
        {
          "internalType": "address",
          "name": "_sender",
          "type": "address"
        },
        {
          "internalType": "uint256",
          "name": "_amount",
          "type": "uint256"
        },
        {
          "internalType": "address",
          "name": "_token",
          "type": "address"
        },
        {
          "internalType": "bytes",
          "name": "_data",
          "type": "bytes"
        }
      ],
      "name": "receiveApproval",
      "outputs": [],
      "payable": false,
      "stateMutability": "nonpayable",
      "type": "function"
    },
    {
      "constant": true,
      "inputs": [],
      "name": "remainingStakeAmount",
      "outputs": [
        {
          "internalType": "uint256",
          "name": "",
          "type": "uint256"
        }
      ],
      "payable": false,
      "stateMutability": "view",
      "type": "function"
    },
    {
      "constant": false,
      "inputs": [
        {
          "internalType": "address",
          "name": "_newImplementation",
          "type": "address"
        }
      ],
      "name": "setImpl",
      "outputs": [],
      "payable": false,
      "stateMutability": "nonpayable",
      "type": "function"
    },
    {
      "constant": false,
      "inputs": [
        {
          "internalType": "uint256",
          "name": "_interval",
          "type": "uint256"
        }
      ],
      "name": "setMaxInterval",
      "outputs": [],
      "payable": false,
      "stateMutability": "nonpayable",
      "type": "function"
    },
    {
      "constant": false,
      "inputs": [
        {
          "internalType": "uint256",
          "name": "_amount",
          "type": "uint256"
        },
        {
          "internalType": "uint256",
          "name": "_restartStakeSchedule",
          "type": "uint256"
        }
      ],
      "name": "stakeTokens",
      "outputs": [
        {
          "internalType": "uint256",
          "name": "lastSchedule",
          "type": "uint256"
        },
        {
          "internalType": "uint256",
          "name": "remainingAmount",
          "type": "uint256"
        }
      ],
      "payable": false,
      "stateMutability": "nonpayable",
      "type": "function"
    },
    {
      "constant": false,
      "inputs": [
        {
          "internalType": "address",
          "name": "_sender",
          "type": "address"
        },
        {
          "internalType": "uint256",
          "name": "_amount",
          "type": "uint256"
        },
        {
          "internalType": "uint256",
          "name": "_restartStakeSchedule",
          "type": "uint256"
        }
      ],
      "name": "stakeTokensWithApproval",
      "outputs": [
        {
          "internalType": "uint256",
          "name": "lastSchedule",
          "type": "uint256"
        },
        {
          "internalType": "uint256",
          "name": "remainingAmount",
          "type": "uint256"
        }
      ],
      "payable": false,
      "stateMutability": "nonpayable",
      "type": "function"
    },
    {
      "constant": true,
      "inputs": [],
      "name": "staking",
      "outputs": [
        {
          "internalType": "contract IStaking",
          "name": "",
          "type": "address"
        }
      ],
      "payable": false,
      "stateMutability": "view",
      "type": "function"
    },
    {
      "constant": true,
      "inputs": [],
      "name": "startDate",
      "outputs": [
        {
          "internalType": "uint256",
          "name": "",
          "type": "uint256"
        }
      ],
      "payable": false,
      "stateMutability": "view",
      "type": "function"
    },
    {
      "constant": true,
      "inputs": [],
      "name": "tokenOwner",
      "outputs": [
        {
          "internalType": "address",
          "name": "",
          "type": "address"
        }
      ],
      "payable": false,
      "stateMutability": "view",
      "type": "function"
    },
    {
      "constant": false,
      "inputs": [
        {
          "internalType": "address",
          "name": "newOwner",
          "type": "address"
        }
      ],
      "name": "transferOwnership",
      "outputs": [],
      "payable": false,
      "stateMutability": "nonpayable",
      "type": "function"
    },
    {
      "constant": false,
      "inputs": [
        {
          "internalType": "address",
          "name": "receiver",
          "type": "address"
        }
      ],
      "name": "withdrawTokens",
      "outputs": [],
      "payable": false,
      "stateMutability": "nonpayable",
      "type": "function"
    }
  ],
  "transactionHash": "0x1ff65a74d48f998b2855eebc3320c19436702b6a23dcfc78fadca04ad48a60d7",
  "args": [],
  "numDeployments": 1,
  "solcInputHash": "fe60cb37933b1a1880b0ca0522962f36",
  "bytecode": "0x608060405260006100176001600160e01b0361006616565b600080546001600160a01b0319166001600160a01b0383169081178255604051929350917f8be0079c531659141344cd1fd0a4f28419497f9722a3daafe3b4186f6b6457e0908290a35061006a565b3390565b612754806100796000396000f3fe608060405234801561001057600080fd5b50600436106101f05760003560e01c80636b7dbb2d1161010f578063b06a470c116100a2578063d0e60a6a11610071578063d0e60a6a14610385578063d38bd9f01461038d578063f2fde38b14610395578063f6d6189e14610258576101f0565b8063b06a470c1461035a578063c15d145014610362578063c24a0f8b14610375578063cae774b31461037d576101f0565b80638da5cb5b116100de5780638da5cb5b146103225780638f32d59b1461032a5780638f4ffcb11461033f578063a3e6761014610352576101f0565b80636b7dbb2d146102f557806373496bce146102fd5780638b677b03146103055780638bc6efc81461031a576101f0565b806341c632a6116101875780635419675f116101565780635419675f146102b45780635c19a95c146102bc57806362dc2f35146102cf578063691bd2ae146102e2576101f0565b806341c632a61461028957806349df728c146102915780634cf088d9146102a4578063533a386c146102ac576101f0565b80630fb5a6b4116101c35780630fb5a6b41461025057806313d033c0146102585780633b7b6188146102605780633c4efe0114610281576101f0565b806303021c87146101f557806308dcb3601461020a5780630b97bc86146102285780630f809adb1461023d575b600080fd5b610208610203366004611e00565b6103a8565b005b61021261040a565b60405161021f9190612424565b60405180910390f35b610230610419565b60405161021f9190612563565b61020861024b366004611be4565b61041f565b6102306104b9565b6102306104c1565b61027361026e366004611e3c565b6104c8565b60405161021f929190612571565b6102306104e1565b6102306104e7565b61020861029f366004611be4565b6104ed565b610212610525565b610230610534565b61020861053a565b6102086102ca366004611be4565b6106bb565b6102086102dd366004611cf3565b6107e8565b6102086102f0366004611be4565b6108e7565b610212610959565b610208610968565b61030d610b51565b60405161021f919061235a565b610208610b60565b61030d610c0c565b610332610c1b565b60405161021f9190612416565b61020861034d366004611c28565b610c3f565b61030d610e33565b610230610e42565b610273610370366004611ca6565b610e48565b610230610e81565b610230610e87565b610230610e8d565b61030d610e93565b6102086103a3366004611be4565b610ea2565b6103b0610c1b565b6103d55760405162461bcd60e51b81526004016103cc906124d3565b60405180910390fd5b6103e8816224ea0063ffffffff610ecf16565b156104055760405162461bcd60e51b81526004016103cc90612443565b600755565b6001546001600160a01b031681565b60055481565b610427610c1b565b6104435760405162461bcd60e51b81526004016103cc906124d3565b6001600160a01b0381166104695760405162461bcd60e51b81526004016103cc906124f3565b6003546001600160a01b03828116911614156104975760405162461bcd60e51b81526004016103cc90612453565b600c80546001600160a01b0319166001600160a01b0392909216919091179055565b63059fa60081565b6224ea0081565b6000806104d6338585610f1a565b909590945092505050565b60095481565b60085481565b6003546001600160a01b031633146105175760405162461bcd60e51b81526004016103cc906124d3565b6105228160006113d5565b50565b6002546001600160a01b031681565b600a5481565b6003546001600160a01b03163314806105565750610556610c1b565b6105725760405162461bcd60e51b81526004016103cc906124d3565b600260009054906101000a90046001600160a01b03166001600160a01b0316635419675f6040518163ffffffff1660e01b8152600401600060405180830381600087803b1580156105c257600080fd5b505af11580156105d6573d6000803e3d6000fd5b50505050600260009054906101000a90046001600160a01b03166001600160a01b031663ae81dfe46040518163ffffffff1660e01b815260040160206040518083038186803b15801561062857600080fd5b505afa15801561063c573d6000803e3d6000fd5b505050506040513d601f19601f820116820180604052506106609190810190611c0a565b600280546001600160a01b0319166001600160a01b03928316179081905560405133927f9613f431247983a83a2b3667aa63a5174194ac89328dfadc69be44409521b3c1926106b19291169061235a565b60405180910390a2565b6003546001600160a01b031633146106e55760405162461bcd60e51b81526004016103cc906124d3565b6001600160a01b03811661070b5760405162461bcd60e51b81526004016103cc906124e3565b600654600554600090610727906224ea0063ffffffff61161c16565b90505b8181116107a25760025460405163026e402b60e01b81526001600160a01b039091169063026e402b9061076390869085906004016123b8565b600060405180830381600087803b15801561077d57600080fd5b505af1158015610791573d6000803e3d6000fd5b505050506224ea008101905061072a565b50336001600160a01b03167f734a802cc194e2139bfcc08e10336f24dfa14fd2c5ab70268d8706c055867066836040516107dc919061235a565b60405180910390a25050565b6003546001600160a01b031633146108125760405162461bcd60e51b81526004016103cc906124d3565b6001600160a01b0381166108385760405162461bcd60e51b81526004016103cc90612523565b6004805460405163a965b3a960e01b81526001600160a01b039091169163a965b3a99161086b91879187918791016123ee565b600060405180830381600087803b15801561088557600080fd5b505af1158015610899573d6000803e3d6000fd5b50505050336001600160a01b03167f5fa0b381cb4bdbc7063d1e5c78b90a634a6d6a12d6cb6fabe450fd4b8d1eab018483856040516108da93929190612390565b60405180910390a2505050565b6003546001600160a01b031633146109115760405162461bcd60e51b81526004016103cc906124d3565b6001600160a01b0381166109375760405162461bcd60e51b81526004016103cc90612503565b600d80546001600160a01b0319166001600160a01b0392909216919091179055565b6004546001600160a01b031681565b6000610981600e5460055461161c90919063ffffffff16565b600254604051630f74de8b60e31b815291925060609182916001600160a01b031690637ba6f458906109b790309060040161235a565b60006040518083038186803b1580156109cf57600080fd5b505afa1580156109e3573d6000803e3d6000fd5b505050506040513d6000823e601f3d908101601f19168201604052610a0b9190810190611d36565b909250905060005b8251811015610b4b5742838281518110610a2957fe5b6020026020010151108015610a51575083838281518110610a4657fe5b602002602001015111155b8015610a7957506000828281518110610a6657fe5b60200260200101516001600160601b0316115b15610b3e5760025483516001600160a01b039091169063eefb8c4790859084908110610aa157fe5b6020026020010151610ad363059fa600878681518110610abd57fe5b602002602001015161161c90919063ffffffff16565b6040518363ffffffff1660e01b8152600401610af0929190612571565b600060405180830381600087803b158015610b0a57600080fd5b505af1158015610b1e573d6000803e3d6000fd5b50505050610b3663059fa600848381518110610abd57fe5b600655610b43565b610b4b565b600101610a13565b50505050565b600d546001600160a01b031681565b6003546001600160a01b03163314610b8a5760405162461bcd60e51b81526004016103cc906124d3565b600c546001600160a01b0316610bb25760405162461bcd60e51b81526004016103cc906124a3565b600c8054600380546001600160a01b038084166001600160a01b0319928316179283905592169092556040513392909116907f9cf24b1ec41d66a62ffba9f3ed8641a7fb6fb987150ff3e0ded7576b6b63576b90600090a3565b6000546001600160a01b031690565b600080546001600160a01b0316610c30611641565b6001600160a01b031614905090565b610c47611645565b6001600160a01b0316336001600160a01b031614610c775760405162461bcd60e51b81526004016103cc906124d3565b336001600160a01b03841614610c9f5760405162461bcd60e51b81526004016103cc906124d3565b60006060610cab611654565b90506000610cee85858080601f0160208091040260200160405190810160405280939291908181526020018383808284376000920191909152506116ac92505050565b905060005b8251811015610d3c57828181518110610d0857fe5b60200260200101516001600160e01b031916826001600160e01b0319161415610d345760019350610d3c565b600101610cf3565b5082610d5a5760405162461bcd60e51b81526004016103cc90612483565b600080600060201b8787604051602001610d7693929190612328565b604051602081830303815290604052806020019051610d989190810190611dbd565b9093509150506001600160a01b03808316908b1614610dc95760405162461bcd60e51b81526004016103cc906124b3565b888114610de85760405162461bcd60e51b81526004016103cc90612543565b610e2787878080601f0160208091040260200160405190810160405280939291908181526020018383808284376000920191909152506116b392505050565b50505050505050505050565b6003546001600160a01b031681565b600b5481565b600080333014610e6a5760405162461bcd60e51b81526004016103cc906124d3565b610e75858585610f1a565b90969095509350505050565b60065481565b60075481565b600e5481565b600c546001600160a01b031681565b610eaa610c1b565b610ec65760405162461bcd60e51b81526004016103cc906124d3565b6105228161178d565b6000610f1183836040518060400160405280601881526020017f536166654d6174683a206d6f64756c6f206279207a65726f000000000000000081525061180e565b90505b92915050565b60008060055460001480610f4957506000600554118015610f3d57506000600954115b8015610f495750600083115b610f655760405162461bcd60e51b81526004016103cc90612553565b6000806005546000148015610f78575084155b15611010576002546040516372ec979560e01b81526001600160a01b03909116906372ec979590610fad904290600401612563565b60206040518083038186803b158015610fc557600080fd5b505afa158015610fd9573d6000803e3d6000fd5b505050506040513d601f19601f82011682018060405250610ffd9190810190611e1e565b60055563059fa600600a556224ea00600b555b841561104c5760085485148015611028575060095486145b6110445760405162461bcd60e51b81526004016103cc90612513565b849150611052565b60055491505b6006546110ee576002546001600160a01b03166372ec979561107e4263059fa60063ffffffff61161c16565b6040518263ffffffff1660e01b815260040161109a9190612563565b60206040518083038186803b1580156110b257600080fd5b505afa1580156110c6573d6000803e3d6000fd5b505050506040513d601f19601f820116820180604052506110ea9190810190611e1e565b6006555b60006111056007548461161c90919063ffffffff16565b9050600654811015611172576008819055600a5460075461113e9190611132908a9063ffffffff61184416565b9063ffffffff61187e16565b9150611157600754600a546118c090919063ffffffff16565b600a5561116a878363ffffffff6118c016565b600955611186565b60065460085560006009819055600a558691505b6001546040516323b872dd60e01b81526000916001600160a01b0316906323b872dd906111bb908c9030908890600401612368565b602060405180830381600087803b1580156111d557600080fd5b505af11580156111e9573d6000803e3d6000fd5b505050506040513d601f19601f8201168201806040525061120d9190810190611d9f565b90508061122c5760405162461bcd60e51b81526004016103cc90612533565b60015460025460405163095ea7b360e01b81526001600160a01b039283169263095ea7b3926112629291169087906004016123b8565b602060405180830381600087803b15801561127c57600080fd5b505af1158015611290573d6000803e3d6000fd5b505050506040513d601f19601f820116820180604052506112b49190810190611d9f565b50600254600b54600a546001600160a01b0390921691634b2fea1e9186916112e79063059fa6009063ffffffff6118c016565b6003546040516001600160e01b031960e087901b16815261131e949392916224ea009130916001600160a01b03169060040161257f565b600060405180830381600087803b15801561133857600080fd5b505af115801561134c573d6000803e3d6000fd5b50505050600a5460001415611365576000600b5561137e565b600754600b5461137a9163ffffffff61161c16565b600b555b886001600160a01b03167fb539ca1e5c8d398ddf1c41c30166f33404941683be4683319b57669a93dad4ef846040516113b79190612563565b60405180910390a26008546009549550955050505050935093915050565b6001600160a01b0382166113fb5760405162461bcd60e51b81526004016103cc90612523565b600080600260009054906101000a90046001600160a01b03166001600160a01b0316639929e8866040518163ffffffff1660e01b815260040160206040518083038186803b15801561144c57600080fd5b505afa158015611460573d6000803e3d6000fd5b505050506040513d601f19601f820116820180604052506114849190810190611d9f565b8061148c5750825b1561149a575060065461149d565b50425b60006114b6600e5460055461161c90919063ffffffff16565b90505b8181116115d4576002546001600160a01b031663cf7b684a30836114e443600163ffffffff6118c016565b6040518463ffffffff1660e01b8152600401611502939291906123d3565b60206040518083038186803b15801561151a57600080fd5b505afa15801561152e573d6000803e3d6000fd5b505050506040513d601f19601f820116820180604052506115529190810190611e6c565b92506001600160601b038316156115ca576002546040516336adb29160e21b81526001600160a01b039091169063dab6ca449061159790869085908a906004016125d9565b600060405180830381600087803b1580156115b157600080fd5b505af11580156115c5573d6000803e3d6000fd5b505050505b6224ea00016114b9565b50336001600160a01b03167f351b2b7a8b3659a02c6c87ac06e00099a1e5979171161a69eab5d057deb838ec8560405161160e919061235a565b60405180910390a250505050565b600082820183811015610f115760405162461bcd60e51b81526004016103cc90612493565b3390565b6001546001600160a01b031690565b6040805160018082528183019092526060918291906020808301908038833901905050905063c15d145060e01b8160008151811061168e57fe5b6001600160e01b031990921660209283029190910190910152905090565b6020015190565b60006060306001600160a01b0316836040516116cf919061234e565b6000604051808303816000865af19150503d806000811461170c576040519150601f19603f3d011682016040523d82523d6000602084013e611711565b606091505b50915091508161178857604481511161173c5760405162461bcd60e51b81526004016103cc90612463565b61176f6040518060400160405280601181526020017003932b1b2b4bb32a0b8383937bb30b61d1607d1b81525082611902565b60405162461bcd60e51b81526004016103cc9190612432565b505050565b6001600160a01b0381166117b35760405162461bcd60e51b81526004016103cc90612473565b600080546040516001600160a01b03808516939216917f8be0079c531659141344cd1fd0a4f28419497f9722a3daafe3b4186f6b6457e091a3600080546001600160a01b0319166001600160a01b0392909216919091179055565b6000818361182f5760405162461bcd60e51b81526004016103cc9190612432565b5082848161183957fe5b0690505b9392505050565b60008261185357506000610f14565b8282028284828161186057fe5b0414610f115760405162461bcd60e51b81526004016103cc906124c3565b6000610f1183836040518060400160405280601a81526020017f536166654d6174683a206469766973696f6e206279207a65726f0000000000008152506119fc565b6000610f1183836040518060400160405280601e81526020017f536166654d6174683a207375627472616374696f6e206f766572666c6f770000815250611a33565b6060808390506060839050606060448251845101036040519080825280601f01601f191660200182016040528015611941576020820181803883390190505b509050806000805b855181101561199a5785818151811061195e57fe5b602001015160f81c60f81b83838060010194508151811061197b57fe5b60200101906001600160f81b031916908160001a905350600101611949565b5060445b84518110156119ef578481815181106119b357fe5b602001015160f81c60f81b8383806001019450815181106119d057fe5b60200101906001600160f81b031916908160001a90535060010161199e565b5090979650505050505050565b60008183611a1d5760405162461bcd60e51b81526004016103cc9190612432565b506000838581611a2957fe5b0495945050505050565b60008184841115611a575760405162461bcd60e51b81526004016103cc9190612432565b505050900390565b8035610f14816126d9565b8051610f14816126d9565b600082601f830112611a8657600080fd5b8151611a99611a948261261b565b6125f4565b91508181835260208401935060208101905083856020840282011115611abe57600080fd5b60005b83811015611aea5781611ad48882611b6f565b8452506020928301929190910190600101611ac1565b5050505092915050565b600082601f830112611b0557600080fd5b8151611b13611a948261261b565b91508181835260208401935060208101905083856020840282011115611b3857600080fd5b60005b83811015611aea5781611b4e8882611bd9565b8452506020928301929190910190600101611b3b565b8051610f14816126ed565b8051610f14816126f6565b60008083601f840112611b8c57600080fd5b50813567ffffffffffffffff811115611ba457600080fd5b602083019150836001820283011115611bbc57600080fd5b9250929050565b8035610f14816126f6565b8035610f14816126ff565b8051610f1481612708565b600060208284031215611bf657600080fd5b6000611c028484611a5f565b949350505050565b600060208284031215611c1c57600080fd5b6000611c028484611a6a565b600080600080600060808688031215611c4057600080fd5b6000611c4c8888611a5f565b9550506020611c5d88828901611bc3565b9450506040611c6e88828901611a5f565b935050606086013567ffffffffffffffff811115611c8b57600080fd5b611c9788828901611b7a565b92509250509295509295909350565b600080600060608486031215611cbb57600080fd5b6000611cc78686611a5f565b9350506020611cd886828701611bc3565b9250506040611ce986828701611bc3565b9150509250925092565b600080600060608486031215611d0857600080fd5b6000611d148686611a5f565b9350506020611d2586828701611bce565b9250506040611ce986828701611a5f565b60008060408385031215611d4957600080fd5b825167ffffffffffffffff811115611d6057600080fd5b611d6c85828601611a75565b925050602083015167ffffffffffffffff811115611d8957600080fd5b611d9585828601611af4565b9150509250929050565b600060208284031215611db157600080fd5b6000611c028484611b64565b600080600060608486031215611dd257600080fd5b6000611dde8686611b6f565b9350506020611def86828701611a6a565b9250506040611ce986828701611b6f565b600060208284031215611e1257600080fd5b6000611c028484611bc3565b600060208284031215611e3057600080fd5b6000611c028484611b6f565b60008060408385031215611e4f57600080fd5b6000611e5b8585611bc3565b9250506020611d9585828601611bc3565b600060208284031215611e7e57600080fd5b6000611c028484611bd9565b611e938161264e565b82525050565b611e9381612659565b611e93611eae8261265e565b612668565b6000611ebf8385612640565b9350611ecc838584612697565b50500190565b6000611edd8261263c565b611ee78185612640565b9350611ef78185602086016126a3565b9290920192915050565b611e938161268c565b6000611f158261263c565b611f1f8185612645565b9350611f2f8185602086016126a3565b611f38816126cf565b9093019392505050565b6000611f4f601083612645565b6f1a5b9d985b1a59081a5b9d195c9d985b60821b815260200192915050565b6000611f7b601683612645565b751cd85b59481bdddb995c881b9bdd08185b1b1bddd95960521b815260200192915050565b6000611fad603083612645565b7f72656365697665417070726f76616c3a205472616e73616374696f6e2065786581526f31baba34b7b7103932bb32b93a32b21760811b602082015260400192915050565b6000611fff602683612645565b7f4f776e61626c653a206e6577206f776e657220697320746865207a65726f206181526564647265737360d01b602082015260400192915050565b6000612047601583612645565b741b595d1a1bd9081a5cc81b9bdd08185b1b1bddd959605a1b815260200192915050565b6000612078601b83612645565b7f536166654d6174683a206164646974696f6e206f766572666c6f770000000000815260200192915050565b60006120b1600f83612645565b6e696e76616c6964206164647265737360881b815260200192915050565b60006120dc600f83612645565b6e0e6cadcc8cae440dad2e6dac2e8c6d608b1b815260200192915050565b6000612107602183612645565b7f536166654d6174683a206d756c7469706c69636174696f6e206f766572666c6f8152607760f81b602082015260400192915050565b600061214a600c83612645565b6b1d5b985d5d1a1bdc9a5e995960a21b815260200192915050565b6000612172601983612645565b7f64656c656761746565206164647265737320696e76616c696400000000000000815260200192915050565b60006121ab601f83612645565b7f696e76616c6964206e657720746f6b656e206f776e6572206164647265737300815260200192915050565b60006121e4602283612645565b7f696e76616c6964206e657720696d706c656d656e746174696f6e206164647265815261737360f01b602082015260400192915050565b6000612228600e83612645565b6d696e76616c696420706172616d7360901b815260200192915050565b6000612252601883612645565b7f7265636569766572206164647265737320696e76616c69640000000000000000815260200192915050565b600061228b600f83612645565b6e1d1c985b9cd9995c8819985a5b1959608a1b815260200192915050565b60006122b6600f83612645565b6e0c2dadeeadce840dad2e6dac2e8c6d608b1b815260200192915050565b60006122e1601a83612645565b7f637265617465206e65772076657374696e672061646472657373000000000000815260200192915050565b611e9381612668565b611e9381612677565b611e9381612680565b60006123348286611ea2565b601c82019150612345828486611eb3565b95945050505050565b600061183d8284611ed2565b60208101610f148284611e8a565b606081016123768286611e8a565b6123836020830185611e8a565b611c02604083018461230d565b6060810161239e8286611e8a565b6123ab6020830185611e8a565b611c026040830184612316565b604081016123c68285611e8a565b61183d602083018461230d565b606081016123e18286611e8a565b612383602083018561230d565b606081016123fc8286611e8a565b6124096020830185612316565b611c026040830184611e8a565b60208101610f148284611e99565b60208101610f148284611f01565b60208082528101610f118184611f0a565b60208082528101610f1481611f42565b60208082528101610f1481611f6e565b60208082528101610f1481611fa0565b60208082528101610f1481611ff2565b60208082528101610f148161203a565b60208082528101610f148161206b565b60208082528101610f14816120a4565b60208082528101610f14816120cf565b60208082528101610f14816120fa565b60208082528101610f148161213d565b60208082528101610f1481612165565b60208082528101610f148161219e565b60208082528101610f14816121d7565b60208082528101610f148161221b565b60208082528101610f1481612245565b60208082528101610f148161227e565b60208082528101610f14816122a9565b60208082528101610f14816122d4565b60208101610f14828461230d565b604081016123c6828561230d565b60c0810161258d828961230d565b61259a602083018861230d565b6125a7604083018761230d565b6125b4606083018661230d565b6125c16080830185611e8a565b6125ce60a0830184611e8a565b979650505050505050565b606081016125e7828661231f565b612409602083018561230d565b60405181810167ffffffffffffffff8111828210171561261357600080fd5b604052919050565b600067ffffffffffffffff82111561263257600080fd5b5060209081020190565b5190565b919050565b90815260200190565b6000610f148261266b565b151590565b63ffffffff191690565b90565b6001600160a01b031690565b63ffffffff1690565b6001600160601b031690565b6000610f148261264e565b82818337506000910152565b60005b838110156126be5781810151838201526020016126a6565b83811115610b4b5750506000910152565b601f01601f191690565b6126e28161264e565b811461052257600080fd5b6126e281612659565b6126e281612668565b6126e281612677565b6126e28161268056fea365627a7a72315820f7febb784824d7594487ecd1a56660102733623e8658062daae1f6b4f172ed176c6578706572696d656e74616cf564736f6c63430005110040",
  "devdoc": {
    "details": "Deployed by FourYearVestingFactory contract.",
    "methods": {
      "approveOwnershipTransfer()": {
        "details": "Token owner can only be modified when both vesting owner and token owner have approved. This function ascertains the approval of token owner."
      },
      "changeTokenOwner(address)": {
        "details": "Modifies token owner. This must be followed by approval from token owner.",
        "params": {
          "_newTokenOwner": "Address of new token owner."
        }
      },
      "collectDividends(address,uint32,address)": {
        "params": {
          "_loanPoolToken": "The loan pool token address.",
          "_maxCheckpoints": "Maximum number of checkpoints to be processed.",
          "_receiver": "The receiver of tokens or msg.sender"
        }
      },
      "delegate(address)": {
        "params": {
          "_delegatee": "The address to delegate votes to."
        }
      },
      "extendStaking()": {
        "details": "Tokens are vested for 4 years. Since the max staking period is 3 years and the tokens are unlocked only after the first year(timeDuration) is passed, hence, we usually extend the duration of staking for all unlocked tokens for the first year by 3 years. In some cases, the timeDuration can differ."
      },
      "isOwner()": {
        "details": "Returns true if the caller is the current owner."
      },
      "owner()": {
        "details": "Returns the address of the current owner."
      },
      "receiveApproval(address,uint256,address,bytes)": {
        "params": {
          "_data": "The data will be used for low level call."
        }
      },
      "setImpl(address)": {
        "details": "This function sets the new implementation address. It must also be approved by the Vesting owner.",
        "params": {
          "_newImplementation": "Address of the new implementation."
        }
      },
      "setMaxInterval(uint256)": {
        "params": {
          "_interval": "Max interval for which tokens scheduled shall be staked."
        }
      },
      "stakeTokens(uint256,uint256)": {
        "params": {
          "_amount": "The amount of tokens to stake.",
          "_restartStakeSchedule": "The time from which staking schedule restarts. The issue is that we can only stake tokens for a max duration. Thus, we need to restart from the lastSchedule."
        },
        "return": "lastSchedule The max duration for which tokens were staked.remainingAmount The amount outstanding - to be staked."
      },
      "stakeTokensWithApproval(address,uint256,uint256)": {
        "details": "This function will be invoked from receiveApproval.SOV.approveAndCall -> this.receiveApproval -> this.stakeTokensWithApproval",
        "params": {
          "_amount": "The amount of tokens to stake.",
          "_restartStakeSchedule": "The time from which staking schedule restarts. The issue is that we can only stake tokens for a max duration. Thus, we need to restart from the lastSchedule.",
          "_sender": "The sender of SOV.approveAndCall"
        },
        "return": "lastSchedule The max duration for which tokens were staked.remainingAmount The amount outstanding - to be staked."
      },
      "transferOwnership(address)": {
        "details": "Transfers ownership of the contract to a new account (`newOwner`). Can only be called by the current owner."
      },
      "withdrawTokens(address)": {
        "params": {
          "receiver": "The receiving address."
        }
      }
    },
    "title": "Four Year Vesting Logic contract."
  },
  "userdoc": {
    "methods": {
      "approveOwnershipTransfer()": {
        "notice": "Approve token owner change - only token Owner."
      },
      "changeTokenOwner(address)": {
        "notice": "Change token owner - only vesting owner is allowed to change."
      },
      "collectDividends(address,uint32,address)": {
        "notice": "Collect dividends from fee sharing proxy."
      },
      "delegate(address)": {
        "notice": "Delegate votes from `msg.sender` which are locked until lockDate to `delegatee`."
      },
      "extendStaking()": {
        "notice": "Extends stakes(unlocked till timeDuration) for four year vesting contracts."
      },
      "migrateToNewStakingContract()": {
        "notice": "Allows the owners to migrate the positions to a new staking contract."
      },
      "receiveApproval(address,uint256,address,bytes)": {
        "notice": "Receives approval from SOV token."
      },
      "setImpl(address)": {
        "notice": "Set address of the implementation - only Token Owner."
      },
      "setMaxInterval(uint256)": {
        "notice": "Sets the max interval."
      },
      "stakeTokens(uint256,uint256)": {
        "notice": "Stakes tokens according to the vesting schedule."
      },
      "stakeTokensWithApproval(address,uint256,uint256)": {
        "notice": "Stakes tokens according to the vesting schedule."
      },
      "withdrawTokens(address)": {
        "notice": "Withdraws unlocked tokens from the staking contract and forwards them to an address specified by the token owner."
      }
    },
    "notice": "Staking, delegating and withdrawal functionality."
  },
  "storageLayout": {
    "storage": [
      {
        "astId": 52463,
        "contract": "contracts/governance/Vesting/fouryear/FourYearVestingLogic.sol:FourYearVestingLogic",
        "label": "_owner",
        "offset": 0,
        "slot": "0",
        "type": "t_address"
      },
      {
        "astId": 31316,
        "contract": "contracts/governance/Vesting/fouryear/FourYearVestingLogic.sol:FourYearVestingLogic",
        "label": "SOV",
        "offset": 0,
        "slot": "1",
        "type": "t_contract(IERC20)31532"
      },
      {
        "astId": 31318,
        "contract": "contracts/governance/Vesting/fouryear/FourYearVestingLogic.sol:FourYearVestingLogic",
        "label": "staking",
        "offset": 0,
        "slot": "2",
        "type": "t_contract(IStaking)16222"
      },
      {
        "astId": 31320,
        "contract": "contracts/governance/Vesting/fouryear/FourYearVestingLogic.sol:FourYearVestingLogic",
        "label": "tokenOwner",
        "offset": 0,
        "slot": "3",
        "type": "t_address"
      },
      {
        "astId": 31322,
        "contract": "contracts/governance/Vesting/fouryear/FourYearVestingLogic.sol:FourYearVestingLogic",
        "label": "feeSharingCollector",
        "offset": 0,
        "slot": "4",
        "type": "t_contract(IFeeSharingCollector)15409"
      },
      {
        "astId": 31330,
        "contract": "contracts/governance/Vesting/fouryear/FourYearVestingLogic.sol:FourYearVestingLogic",
        "label": "startDate",
        "offset": 0,
        "slot": "5",
        "type": "t_uint256"
      },
      {
        "astId": 31332,
        "contract": "contracts/governance/Vesting/fouryear/FourYearVestingLogic.sol:FourYearVestingLogic",
        "label": "endDate",
        "offset": 0,
        "slot": "6",
        "type": "t_uint256"
      },
      {
        "astId": 31337,
        "contract": "contracts/governance/Vesting/fouryear/FourYearVestingLogic.sol:FourYearVestingLogic",
        "label": "maxInterval",
        "offset": 0,
        "slot": "7",
        "type": "t_uint256"
      },
      {
        "astId": 31339,
        "contract": "contracts/governance/Vesting/fouryear/FourYearVestingLogic.sol:FourYearVestingLogic",
        "label": "lastStakingSchedule",
        "offset": 0,
        "slot": "8",
        "type": "t_uint256"
      },
      {
        "astId": 31341,
        "contract": "contracts/governance/Vesting/fouryear/FourYearVestingLogic.sol:FourYearVestingLogic",
        "label": "remainingStakeAmount",
        "offset": 0,
        "slot": "9",
        "type": "t_uint256"
      },
      {
        "astId": 31343,
        "contract": "contracts/governance/Vesting/fouryear/FourYearVestingLogic.sol:FourYearVestingLogic",
        "label": "durationLeft",
        "offset": 0,
        "slot": "10",
        "type": "t_uint256"
      },
      {
        "astId": 31345,
        "contract": "contracts/governance/Vesting/fouryear/FourYearVestingLogic.sol:FourYearVestingLogic",
        "label": "cliffAdded",
        "offset": 0,
        "slot": "11",
        "type": "t_uint256"
      },
      {
        "astId": 31347,
        "contract": "contracts/governance/Vesting/fouryear/FourYearVestingLogic.sol:FourYearVestingLogic",
        "label": "newTokenOwner",
        "offset": 0,
        "slot": "12",
        "type": "t_address"
      },
      {
        "astId": 31349,
        "contract": "contracts/governance/Vesting/fouryear/FourYearVestingLogic.sol:FourYearVestingLogic",
        "label": "newImplementation",
        "offset": 0,
        "slot": "13",
        "type": "t_address"
      },
      {
        "astId": 31351,
        "contract": "contracts/governance/Vesting/fouryear/FourYearVestingLogic.sol:FourYearVestingLogic",
        "label": "extendDurationFor",
        "offset": 0,
        "slot": "14",
        "type": "t_uint256"
      }
    ],
    "types": {
      "t_address": {
        "encoding": "inplace",
        "label": "address",
        "numberOfBytes": "20"
      },
      "t_contract(IERC20)31532": {
        "encoding": "inplace",
        "label": "contract IERC20",
        "numberOfBytes": "20"
      },
      "t_contract(IFeeSharingCollector)15409": {
        "encoding": "inplace",
        "label": "contract IFeeSharingCollector",
        "numberOfBytes": "20"
      },
      "t_contract(IStaking)16222": {
        "encoding": "inplace",
        "label": "contract IStaking",
        "numberOfBytes": "20"
      },
      "t_uint256": {
        "encoding": "inplace",
        "label": "uint256",
        "numberOfBytes": "32"
      }
    }
  }
}