{
    "address": "",
    "abi": [
        {
            "inputs": [
                {
                    "internalType": "address payable",
                    "name": "_myntTokenAddress",
                    "type": "address"
                }
            ],
            "stateMutability": "nonpayable",
            "type": "constructor"
        },
        {
            "anonymous": false,
            "inputs": [
                {
                    "indexed": false,
                    "internalType": "address",
                    "name": "previousAdmin",
                    "type": "address"
                },
                {
                    "indexed": false,
                    "internalType": "address",
                    "name": "newAdmin",
                    "type": "address"
                }
            ],
            "name": "AdminChanged",
            "type": "event"
        },
        {
            "anonymous": false,
            "inputs": [
                {
                    "indexed": true,
                    "internalType": "address",
                    "name": "beacon",
                    "type": "address"
                }
            ],
            "name": "BeaconUpgraded",
            "type": "event"
        },
        {
            "anonymous": false,
            "inputs": [
                {
                    "indexed": false,
                    "internalType": "uint8",
                    "name": "version",
                    "type": "uint8"
                }
            ],
            "name": "Initialized",
            "type": "event"
        },
        {
            "anonymous": false,
            "inputs": [
                {
                    "indexed": true,
                    "internalType": "address",
                    "name": "previousOwner",
                    "type": "address"
                },
                {
                    "indexed": true,
                    "internalType": "address",
                    "name": "newOwner",
                    "type": "address"
                }
            ],
            "name": "OwnershipTransferred",
            "type": "event"
        },
        {
            "anonymous": false,
            "inputs": [
                {
                    "indexed": false,
                    "internalType": "address",
                    "name": "_from",
                    "type": "address"
                },
                {
                    "indexed": false,
                    "internalType": "address",
                    "name": "_to",
                    "type": "address"
                },
                {
                    "indexed": false,
                    "internalType": "uint256",
                    "name": "_amount",
                    "type": "uint256"
                }
            ],
            "name": "TransferWithPermit",
            "type": "event"
        },
        {
            "anonymous": false,
            "inputs": [
                {
                    "indexed": true,
                    "internalType": "address",
                    "name": "implementation",
                    "type": "address"
                }
            ],
            "name": "Upgraded",
            "type": "event"
        },
        {
            "inputs": [
                {
                    "internalType": "address",
                    "name": "account",
                    "type": "address"
                }
            ],
            "name": "balanceOf",
            "outputs": [
                {
                    "internalType": "uint256",
                    "name": "",
                    "type": "uint256"
                }
            ],
            "stateMutability": "view",
            "type": "function"
        },
        {
            "inputs": [],
            "name": "getChainId",
            "outputs": [
                {
                    "internalType": "uint256",
                    "name": "",
                    "type": "uint256"
                }
            ],
            "stateMutability": "view",
            "type": "function"
        },
        {
            "inputs": [],
            "name": "initialize",
            "outputs": [],
            "stateMutability": "nonpayable",
            "type": "function"
        },
        {
            "inputs": [],
            "name": "myntToken",
            "outputs": [
                {
                    "internalType": "contract IERC20PermitWithTransfer",
                    "name": "",
                    "type": "address"
                }
            ],
            "stateMutability": "view",
            "type": "function"
        },
        {
            "inputs": [],
            "name": "owner",
            "outputs": [
                {
                    "internalType": "address",
                    "name": "",
                    "type": "address"
                }
            ],
            "stateMutability": "view",
            "type": "function"
        },
        {
            "inputs": [],
            "name": "renounceOwnership",
            "outputs": [],
            "stateMutability": "nonpayable",
            "type": "function"
        },
        {
            "inputs": [
                {
                    "internalType": "address",
                    "name": "newOwner",
                    "type": "address"
                }
            ],
            "name": "transferOwnership",
            "outputs": [],
            "stateMutability": "nonpayable",
            "type": "function"
        },
        {
            "inputs": [
                {
                    "internalType": "address",
                    "name": "_from",
                    "type": "address"
                },
                {
                    "internalType": "address",
                    "name": "_to",
                    "type": "address"
                },
                {
                    "internalType": "uint256",
                    "name": "_amount",
                    "type": "uint256"
                },
                {
                    "internalType": "uint256",
                    "name": "_deadline",
                    "type": "uint256"
                },
                {
                    "internalType": "uint8",
                    "name": "_v",
                    "type": "uint8"
                },
                {
                    "internalType": "bytes32",
                    "name": "_r",
                    "type": "bytes32"
                },
                {
                    "internalType": "bytes32",
                    "name": "_s",
                    "type": "bytes32"
                }
            ],
            "name": "transferWithPermit",
            "outputs": [],
            "stateMutability": "nonpayable",
            "type": "function"
        }
    ],
    "transactionHash": "0xbfb3b6869fda278cbd88f786bee97e53a982c69e924a9b7b81de1957fa2e1738",
    "args": [
        "0x007b3AA69A846cB1f76b60b3088230A52D2A83AC"
    ],
    "numDeployments": 1,
    "solcInputHash": "a0ab7f0c7d2b38bfc58d40ca67adb49f",
    "bytecode": "0x60a060405234801561001057600080fd5b50604051610a14380380610a1483398101604081905261002f91610040565b6001600160a01b0316608052610070565b60006020828403121561005257600080fd5b81516001600160a01b038116811461006957600080fd5b9392505050565b6080516109666100ae6000396000818161010401528181610164015281816102510152818161030e0152818161039901526104e501526109666000f3fe608060405234801561001057600080fd5b50600436106100885760003560e01c80638129fc1c1161005b5780638129fc1c146100d25780638da5cb5b146100da57806398ebfd81146100ff578063f2fde38b1461012657600080fd5b80633408e4701461008d578063605629d6146100a257806370a08231146100b7578063715018a6146100ca575b600080fd5b465b6040519081526020015b60405180910390f35b6100b56100b0366004610815565b610139565b005b61008f6100c5366004610888565b6104c3565b6100b5610558565b6100b561056c565b6033546001600160a01b03165b6040516001600160a01b039091168152602001610099565b6100e77f000000000000000000000000000000000000000000000000000000000000000081565b6100b5610134366004610888565b61067d565b856001600160a01b0381161580159061015b57506001600160a01b0381163014155b801561019957507f00000000000000000000000000000000000000000000000000000000000000006001600160a01b0316816001600160a01b031614155b61022a5760405162461bcd60e51b815260206004820152605160248201527f496e76616c696420616464726573732e2043616e6e6f74207472616e7366657260448201527f20746f20746865206e756c6c20616464726573732c206d796e74546f6b656e2060648201527037b9103a3434b99031b7b73a3930b1ba1760791b608482015260a4015b60405180910390fd5b604051636eb1769f60e11b81526001600160a01b03898116600483015230602483015287917f00000000000000000000000000000000000000000000000000000000000000009091169063dd62ed3e90604401602060405180830381865afa15801561029a573d6000803e3d6000fd5b505050506040513d601f19601f820116820180604052508101906102be91906108aa565b101561036b5760405163d505accf60e01b81526001600160a01b038981166004830152306024830152604482018890526064820187905260ff8616608483015260a4820185905260c482018490527f0000000000000000000000000000000000000000000000000000000000000000169063d505accf9060e401600060405180830381600087803b15801561035257600080fd5b505af1158015610366573d6000803e3d6000fd5b505050505b6040516323b872dd60e01b81526001600160a01b0389811660048301528881166024830152604482018890527f000000000000000000000000000000000000000000000000000000000000000016906323b872dd906064016020604051808303816000875af11580156103e2573d6000803e3d6000fd5b505050506040513d601f19601f8201168201806040525081019061040691906108c3565b61046e5760405162461bcd60e51b815260206004820152603360248201527f4d6574614173736574546f6b656e3a3a7472616e73666572576974685065726d6044820152721a5d0e881d1c985b9cd9995c8819985a5b1959606a1b6064820152608401610221565b604080516001600160a01b03808b168252891660208201529081018790527f248045bd8dd43ca5645e66af7003ebfb1579f27be326e439f761ba6e5561431b9060600160405180910390a15050505050505050565b6040516370a0823160e01b81526001600160a01b0382811660048301526000917f0000000000000000000000000000000000000000000000000000000000000000909116906370a0823190602401602060405180830381865afa15801561052e573d6000803e3d6000fd5b505050506040513d601f19601f8201168201806040525081019061055291906108aa565b92915050565b6105606106f3565b61056a600061074d565b565b600054610100900460ff161580801561058c5750600054600160ff909116105b806105a65750303b1580156105a6575060005460ff166001145b6106095760405162461bcd60e51b815260206004820152602e60248201527f496e697469616c697a61626c653a20636f6e747261637420697320616c72656160448201526d191e481a5b9a5d1a585b1a5e995960921b6064820152608401610221565b6000805460ff19166001179055801561062c576000805461ff0019166101001790555b61063461079f565b801561067a576000805461ff0019169055604051600181527f7f26b83ff96e1f2b6a682f133852f6798a09c465da95921460cefb38474024989060200160405180910390a15b50565b6106856106f3565b6001600160a01b0381166106ea5760405162461bcd60e51b815260206004820152602660248201527f4f776e61626c653a206e6577206f776e657220697320746865207a65726f206160448201526564647265737360d01b6064820152608401610221565b61067a8161074d565b6033546001600160a01b0316331461056a5760405162461bcd60e51b815260206004820181905260248201527f4f776e61626c653a2063616c6c6572206973206e6f7420746865206f776e65726044820152606401610221565b603380546001600160a01b038381166001600160a01b0319831681179093556040519116919082907f8be0079c531659141344cd1fd0a4f28419497f9722a3daafe3b4186f6b6457e090600090a35050565b600054610100900460ff166107c65760405162461bcd60e51b8152600401610221906108e5565b61056a600054610100900460ff166107f05760405162461bcd60e51b8152600401610221906108e5565b61056a3361074d565b80356001600160a01b038116811461081057600080fd5b919050565b600080600080600080600060e0888a03121561083057600080fd5b610839886107f9565b9650610847602089016107f9565b95506040880135945060608801359350608088013560ff8116811461086b57600080fd5b9699959850939692959460a0840135945060c09093013592915050565b60006020828403121561089a57600080fd5b6108a3826107f9565b9392505050565b6000602082840312156108bc57600080fd5b5051919050565b6000602082840312156108d557600080fd5b815180151581146108a357600080fd5b6020808252602b908201527f496e697469616c697a61626c653a20636f6e7472616374206973206e6f74206960408201526a6e697469616c697a696e6760a81b60608201526080019056fea26469706673582212200f9619394351c929ccdc4a81a5122678208314737229618c04d1ca688cf738a764736f6c63430008110033",
    "devdoc": {
        "details": "This is an intermediary contract to fix the griefing attack vulnerability in the MYNT contract that is not upgradeable, e.g: DLLR, when using transfer withPermit function.",
        "events": {
            "TransferWithPermit(address,address,uint256)": {
                "details": "Emitted when transfer  Manager config is changed."
            }
        },
        "kind": "dev",
        "methods": {
            "balanceOf(address)": {
                "details": "Proxy function to get the actual myntToken balance",
                "params": {
                    "account": "account address"
                },
                "returns": {
                    "_0": "balance amount of the account"
                }
            },
            "constructor": {
                "params": {
                    "_myntTokenAddress": "actual mynt Token contract address."
                }
            },
            "getChainId()": {
                "details": "to support EIP712, will need the token contract to return the chain id.",
                "returns": {
                    "_0": "chain id."
                }
            },
            "initialize()": {
                "details": "contract initializer."
            },
            "owner()": {
                "details": "Returns the address of the current owner."
            },
            "renounceOwnership()": {
                "details": "Leaves the contract without owner. It will not be possible to call `onlyOwner` functions anymore. Can only be called by the current owner. NOTE: Renouncing ownership will leave the contract without an owner, thereby removing any functionality that is only available to the owner."
            },
            "transferOwnership(address)": {
                "details": "Transfers ownership of the contract to a new account (`newOwner`). Can only be called by the current owner."
            },
            "transferWithPermit(address,address,uint256,uint256,uint8,bytes32,bytes32)": {
                "details": "This is the intermediary function of transferWithPermit (permit + transferFro) to the actual mynt token contract address.",
                "params": {
                    "_amount": "The amount of the token that will be transferred.",
                    "_deadline": "Expiration time of the signature.",
                    "_from": "Owner of the token.",
                    "_r": "First 32 bytes of ECDSA signature.",
                    "_s": "32 bytes after _r in ECDSA signature.",
                    "_to": "Recipient of the token.",
                    "_v": "Last 1 byte of ECDSA signature."
                }
            }
        },
        "version": 1
    },
    "userdoc": {
        "kind": "user",
        "methods": {
            "constructor": {
                "notice": "constructor"
            },
            "myntToken()": {
                "notice": "STORAGE "
            },
            "transferWithPermit(address,address,uint256,uint256,uint8,bytes32,bytes32)": {
                "notice": "destination cannot be: - zero (0x0) address. - actual mynt token contract address."
            }
        },
        "version": 1
    },
    "storageLayout": {
        "storage": [
            {
                "astId": 534,
                "contract": "contracts/meta-asset-token/MyntTokenTransferWithPermit.sol:MyntTokenTransferWithPermit",
                "label": "_initialized",
                "offset": 0,
                "slot": "0",
                "type": "t_uint8"
            },
            {
                "astId": 537,
                "contract": "contracts/meta-asset-token/MyntTokenTransferWithPermit.sol:MyntTokenTransferWithPermit",
                "label": "_initializing",
                "offset": 1,
                "slot": "0",
                "type": "t_bool"
            },
            {
                "astId": 2036,
                "contract": "contracts/meta-asset-token/MyntTokenTransferWithPermit.sol:MyntTokenTransferWithPermit",
                "label": "__gap",
                "offset": 0,
                "slot": "1",
                "type": "t_array(t_uint256)50_storage"
            },
            {
                "astId": 10,
                "contract": "contracts/meta-asset-token/MyntTokenTransferWithPermit.sol:MyntTokenTransferWithPermit",
                "label": "_owner",
                "offset": 0,
                "slot": "51",
                "type": "t_address"
            },
            {
                "astId": 130,
                "contract": "contracts/meta-asset-token/MyntTokenTransferWithPermit.sol:MyntTokenTransferWithPermit",
                "label": "__gap",
                "offset": 0,
                "slot": "52",
                "type": "t_array(t_uint256)49_storage"
            },
            {
                "astId": 516,
                "contract": "contracts/meta-asset-token/MyntTokenTransferWithPermit.sol:MyntTokenTransferWithPermit",
                "label": "__gap",
                "offset": 0,
                "slot": "101",
                "type": "t_array(t_uint256)50_storage"
            }
        ],
        "types": {
            "t_address": {
                "encoding": "inplace",
                "label": "address",
                "numberOfBytes": "20"
            },
            "t_array(t_uint256)49_storage": {
                "base": "t_uint256",
                "encoding": "inplace",
                "label": "uint256[49]",
                "numberOfBytes": "1568"
            },
            "t_array(t_uint256)50_storage": {
                "base": "t_uint256",
                "encoding": "inplace",
                "label": "uint256[50]",
                "numberOfBytes": "1600"
            },
            "t_bool": {
                "encoding": "inplace",
                "label": "bool",
                "numberOfBytes": "1"
            },
            "t_uint256": {
                "encoding": "inplace",
                "label": "uint256",
                "numberOfBytes": "32"
            },
            "t_uint8": {
                "encoding": "inplace",
                "label": "uint8",
                "numberOfBytes": "1"
            }
        }
    }
}