{
    "_format": "hh-sol-artifact-1",
    "contractName": "FastBTCBridge",
    "address": "0x1A8E78B41bc5Ab9Ebb6996136622B9b41A601b5C",
    "sourceName": "contracts/FastBTCBridge.sol",
    "abi": [
        {
            "inputs": [
                {
                    "internalType": "address",
                    "name": "accessControl",
                    "type": "address"
                },
                {
                    "internalType": "contract IBTCAddressValidator",
                    "name": "newBtcAddressValidator",
                    "type": "address"
                }
            ],
            "stateMutability": "nonpayable",
            "type": "constructor"
        },
        {
            "anonymous": false,
            "inputs": [
                {
                    "indexed": false,
                    "internalType": "bytes32",
                    "name": "bitcoinTxHash",
                    "type": "bytes32"
                },
                {
                    "indexed": false,
                    "internalType": "uint8",
                    "name": "transferBatchSize",
                    "type": "uint8"
                }
            ],
            "name": "BitcoinTransferBatchSending",
            "type": "event"
        },
        {
            "anonymous": false,
            "inputs": [
                {
                    "indexed": false,
                    "internalType": "uint256",
                    "name": "baseFeeSatoshi",
                    "type": "uint256"
                },
                {
                    "indexed": false,
                    "internalType": "uint256",
                    "name": "dynamicFee",
                    "type": "uint256"
                }
            ],
            "name": "BitcoinTransferFeeChanged",
            "type": "event"
        },
        {
            "anonymous": false,
            "inputs": [
                {
                    "indexed": true,
                    "internalType": "bytes32",
                    "name": "transferId",
                    "type": "bytes32"
                },
                {
                    "indexed": false,
                    "internalType": "enum FastBTCBridge.BitcoinTransferStatus",
                    "name": "newStatus",
                    "type": "uint8"
                }
            ],
            "name": "BitcoinTransferStatusUpdated",
            "type": "event"
        },
        {
            "anonymous": false,
            "inputs": [
                {
                    "indexed": false,
                    "internalType": "address",
                    "name": "account",
                    "type": "address"
                }
            ],
            "name": "Frozen",
            "type": "event"
        },
        {
            "anonymous": false,
            "inputs": [],
            "name": "Initialized",
            "type": "event"
        },
        {
            "anonymous": false,
            "inputs": [
                {
                    "indexed": true,
                    "internalType": "address",
                    "name": "newContract",
                    "type": "address"
                },
                {
                    "indexed": false,
                    "internalType": "string",
                    "name": "reason",
                    "type": "string"
                }
            ],
            "name": "MarkedObsolete",
            "type": "event"
        },
        {
            "anonymous": false,
            "inputs": [
                {
                    "indexed": true,
                    "internalType": "bytes32",
                    "name": "transferId",
                    "type": "bytes32"
                },
                {
                    "indexed": false,
                    "internalType": "string",
                    "name": "btcAddress",
                    "type": "string"
                },
                {
                    "indexed": false,
                    "internalType": "uint256",
                    "name": "nonce",
                    "type": "uint256"
                },
                {
                    "indexed": false,
                    "internalType": "uint256",
                    "name": "amountSatoshi",
                    "type": "uint256"
                },
                {
                    "indexed": false,
                    "internalType": "uint256",
                    "name": "feeSatoshi",
                    "type": "uint256"
                },
                {
                    "indexed": true,
                    "internalType": "address",
                    "name": "rskAddress",
                    "type": "address"
                }
            ],
            "name": "NewBitcoinTransfer",
            "type": "event"
        },
        {
            "anonymous": false,
            "inputs": [
                {
                    "indexed": false,
                    "internalType": "address",
                    "name": "account",
                    "type": "address"
                }
            ],
            "name": "Paused",
            "type": "event"
        },
        {
            "anonymous": false,
            "inputs": [
                {
                    "indexed": false,
                    "internalType": "address",
                    "name": "account",
                    "type": "address"
                }
            ],
            "name": "Unfrozen",
            "type": "event"
        },
        {
            "anonymous": false,
            "inputs": [
                {
                    "indexed": false,
                    "internalType": "address",
                    "name": "account",
                    "type": "address"
                }
            ],
            "name": "Unpaused",
            "type": "event"
        },
        {
            "inputs": [],
            "name": "DYNAMIC_FEE_DIVISOR",
            "outputs": [
                {
                    "internalType": "uint256",
                    "name": "",
                    "type": "uint256"
                }
            ],
            "stateMutability": "view",
            "type": "function"
        },
        {
            "inputs": [],
            "name": "MAXIMUM_VALID_NONCE",
            "outputs": [
                {
                    "internalType": "uint8",
                    "name": "",
                    "type": "uint8"
                }
            ],
            "stateMutability": "view",
            "type": "function"
        },
        {
            "inputs": [],
            "name": "MAX_BASE_FEE_SATOSHI",
            "outputs": [
                {
                    "internalType": "uint256",
                    "name": "",
                    "type": "uint256"
                }
            ],
            "stateMutability": "view",
            "type": "function"
        },
        {
            "inputs": [],
            "name": "MAX_REQUIRED_BLOCKS_BEFORE_RECLAIM",
            "outputs": [
                {
                    "internalType": "uint256",
                    "name": "",
                    "type": "uint256"
                }
            ],
            "stateMutability": "view",
            "type": "function"
        },
        {
            "inputs": [],
            "name": "SATOSHI_DIVISOR",
            "outputs": [
                {
                    "internalType": "uint256",
                    "name": "",
                    "type": "uint256"
                }
            ],
            "stateMutability": "view",
            "type": "function"
        },
        {
            "inputs": [],
            "name": "accessControl",
            "outputs": [
                {
                    "internalType": "contract IFastBTCAccessControl",
                    "name": "",
                    "type": "address"
                }
            ],
            "stateMutability": "view",
            "type": "function"
        },
        {
            "inputs": [
                {
                    "internalType": "uint256",
                    "name": "feeStructureIndex",
                    "type": "uint256"
                },
                {
                    "internalType": "uint256",
                    "name": "newBaseFeeSatoshi",
                    "type": "uint256"
                },
                {
                    "internalType": "uint256",
                    "name": "newDynamicFee",
                    "type": "uint256"
                }
            ],
            "name": "addFeeStructure",
            "outputs": [],
            "stateMutability": "nonpayable",
            "type": "function"
        },
        {
            "inputs": [],
            "name": "baseFeeSatoshi",
            "outputs": [
                {
                    "internalType": "uint32",
                    "name": "",
                    "type": "uint32"
                }
            ],
            "stateMutability": "view",
            "type": "function"
        },
        {
            "inputs": [],
            "name": "btcAddressValidator",
            "outputs": [
                {
                    "internalType": "contract IBTCAddressValidator",
                    "name": "",
                    "type": "address"
                }
            ],
            "stateMutability": "view",
            "type": "function"
        },
        {
            "inputs": [
                {
                    "internalType": "uint256",
                    "name": "amountSatoshi",
                    "type": "uint256"
                }
            ],
            "name": "calculateCurrentFeeSatoshi",
            "outputs": [
                {
                    "internalType": "uint256",
                    "name": "",
                    "type": "uint256"
                }
            ],
            "stateMutability": "view",
            "type": "function"
        },
        {
            "inputs": [
                {
                    "internalType": "uint256",
                    "name": "amountWei",
                    "type": "uint256"
                }
            ],
            "name": "calculateCurrentFeeWei",
            "outputs": [
                {
                    "internalType": "uint256",
                    "name": "",
                    "type": "uint256"
                }
            ],
            "stateMutability": "view",
            "type": "function"
        },
        {
            "inputs": [
                {
                    "internalType": "address",
                    "name": "oldContract",
                    "type": "address"
                },
                {
                    "internalType": "string[]",
                    "name": "btcAddresses",
                    "type": "string[]"
                }
            ],
            "name": "copyNonces",
            "outputs": [],
            "stateMutability": "nonpayable",
            "type": "function"
        },
        {
            "inputs": [],
            "name": "currentFeeStructureIndex",
            "outputs": [
                {
                    "internalType": "uint8",
                    "name": "",
                    "type": "uint8"
                }
            ],
            "stateMutability": "view",
            "type": "function"
        },
        {
            "inputs": [
                {
                    "internalType": "bytes",
                    "name": "userData",
                    "type": "bytes"
                }
            ],
            "name": "decodeBridgeUserData",
            "outputs": [
                {
                    "internalType": "address",
                    "name": "rskAddress",
                    "type": "address"
                },
                {
                    "internalType": "string",
                    "name": "btcAddress",
                    "type": "string"
                }
            ],
            "stateMutability": "pure",
            "type": "function"
        },
        {
            "inputs": [
                {
                    "internalType": "bytes32",
                    "name": "key",
                    "type": "bytes32"
                }
            ],
            "name": "deleteNodeConfigValue",
            "outputs": [],
            "stateMutability": "nonpayable",
            "type": "function"
        },
        {
            "inputs": [],
            "name": "dynamicFee",
            "outputs": [
                {
                    "internalType": "uint16",
                    "name": "",
                    "type": "uint16"
                }
            ],
            "stateMutability": "view",
            "type": "function"
        },
        {
            "inputs": [
                {
                    "internalType": "address",
                    "name": "rskAddress",
                    "type": "address"
                },
                {
                    "internalType": "string",
                    "name": "btcAddress",
                    "type": "string"
                }
            ],
            "name": "encodeBridgeUserData",
            "outputs": [
                {
                    "internalType": "bytes",
                    "name": "userData",
                    "type": "bytes"
                }
            ],
            "stateMutability": "pure",
            "type": "function"
        },
        {
            "inputs": [],
            "name": "federators",
            "outputs": [
                {
                    "internalType": "address[]",
                    "name": "addresses",
                    "type": "address[]"
                }
            ],
            "stateMutability": "view",
            "type": "function"
        },
        {
            "inputs": [
                {
                    "internalType": "uint256",
                    "name": "",
                    "type": "uint256"
                }
            ],
            "name": "feeStructures",
            "outputs": [
                {
                    "internalType": "uint32",
                    "name": "baseFeeSatoshi",
                    "type": "uint32"
                },
                {
                    "internalType": "uint16",
                    "name": "dynamicFee",
                    "type": "uint16"
                }
            ],
            "stateMutability": "view",
            "type": "function"
        },
        {
            "inputs": [],
            "name": "freeze",
            "outputs": [],
            "stateMutability": "nonpayable",
            "type": "function"
        },
        {
            "inputs": [],
            "name": "frozen",
            "outputs": [
                {
                    "internalType": "bool",
                    "name": "",
                    "type": "bool"
                }
            ],
            "stateMutability": "view",
            "type": "function"
        },
        {
            "inputs": [
                {
                    "internalType": "string",
                    "name": "btcAddress",
                    "type": "string"
                }
            ],
            "name": "getNextNonce",
            "outputs": [
                {
                    "internalType": "uint8",
                    "name": "",
                    "type": "uint8"
                }
            ],
            "stateMutability": "view",
            "type": "function"
        },
        {
            "inputs": [
                {
                    "internalType": "string",
                    "name": "btcAddress",
                    "type": "string"
                },
                {
                    "internalType": "uint8",
                    "name": "nonce",
                    "type": "uint8"
                }
            ],
            "name": "getTransfer",
            "outputs": [
                {
                    "components": [
                        {
                            "internalType": "address",
                            "name": "rskAddress",
                            "type": "address"
                        },
                        {
                            "internalType": "enum FastBTCBridge.BitcoinTransferStatus",
                            "name": "status",
                            "type": "uint8"
                        },
                        {
                            "internalType": "uint8",
                            "name": "nonce",
                            "type": "uint8"
                        },
                        {
                            "internalType": "uint8",
                            "name": "feeStructureIndex",
                            "type": "uint8"
                        },
                        {
                            "internalType": "uint32",
                            "name": "blockNumber",
                            "type": "uint32"
                        },
                        {
                            "internalType": "uint40",
                            "name": "totalAmountSatoshi",
                            "type": "uint40"
                        },
                        {
                            "internalType": "string",
                            "name": "btcAddress",
                            "type": "string"
                        }
                    ],
                    "internalType": "struct FastBTCBridge.BitcoinTransfer",
                    "name": "transfer",
                    "type": "tuple"
                }
            ],
            "stateMutability": "view",
            "type": "function"
        },
        {
            "inputs": [
                {
                    "internalType": "bytes32[]",
                    "name": "transferIds",
                    "type": "bytes32[]"
                },
                {
                    "internalType": "enum FastBTCBridge.BitcoinTransferStatus",
                    "name": "newStatus",
                    "type": "uint8"
                }
            ],
            "name": "getTransferBatchUpdateHash",
            "outputs": [
                {
                    "internalType": "bytes32",
                    "name": "",
                    "type": "bytes32"
                }
            ],
            "stateMutability": "view",
            "type": "function"
        },
        {
            "inputs": [
                {
                    "internalType": "bytes32",
                    "name": "bitcoinTxHash",
                    "type": "bytes32"
                },
                {
                    "internalType": "bytes32[]",
                    "name": "transferIds",
                    "type": "bytes32[]"
                },
                {
                    "internalType": "enum FastBTCBridge.BitcoinTransferStatus",
                    "name": "newStatus",
                    "type": "uint8"
                }
            ],
            "name": "getTransferBatchUpdateHashWithTxHash",
            "outputs": [
                {
                    "internalType": "bytes32",
                    "name": "",
                    "type": "bytes32"
                }
            ],
            "stateMutability": "view",
            "type": "function"
        },
        {
            "inputs": [
                {
                    "internalType": "bytes32",
                    "name": "transferId",
                    "type": "bytes32"
                }
            ],
            "name": "getTransferByTransferId",
            "outputs": [
                {
                    "components": [
                        {
                            "internalType": "address",
                            "name": "rskAddress",
                            "type": "address"
                        },
                        {
                            "internalType": "enum FastBTCBridge.BitcoinTransferStatus",
                            "name": "status",
                            "type": "uint8"
                        },
                        {
                            "internalType": "uint8",
                            "name": "nonce",
                            "type": "uint8"
                        },
                        {
                            "internalType": "uint8",
                            "name": "feeStructureIndex",
                            "type": "uint8"
                        },
                        {
                            "internalType": "uint32",
                            "name": "blockNumber",
                            "type": "uint32"
                        },
                        {
                            "internalType": "uint40",
                            "name": "totalAmountSatoshi",
                            "type": "uint40"
                        },
                        {
                            "internalType": "string",
                            "name": "btcAddress",
                            "type": "string"
                        }
                    ],
                    "internalType": "struct FastBTCBridge.BitcoinTransfer",
                    "name": "transfer",
                    "type": "tuple"
                }
            ],
            "stateMutability": "view",
            "type": "function"
        },
        {
            "inputs": [
                {
                    "internalType": "string",
                    "name": "btcAddress",
                    "type": "string"
                },
                {
                    "internalType": "uint256",
                    "name": "nonce",
                    "type": "uint256"
                }
            ],
            "name": "getTransferId",
            "outputs": [
                {
                    "internalType": "bytes32",
                    "name": "",
                    "type": "bytes32"
                }
            ],
            "stateMutability": "pure",
            "type": "function"
        },
        {
            "inputs": [
                {
                    "internalType": "string[]",
                    "name": "btcAddresses",
                    "type": "string[]"
                },
                {
                    "internalType": "uint8[]",
                    "name": "nonces",
                    "type": "uint8[]"
                }
            ],
            "name": "getTransfers",
            "outputs": [
                {
                    "components": [
                        {
                            "internalType": "address",
                            "name": "rskAddress",
                            "type": "address"
                        },
                        {
                            "internalType": "enum FastBTCBridge.BitcoinTransferStatus",
                            "name": "status",
                            "type": "uint8"
                        },
                        {
                            "internalType": "uint8",
                            "name": "nonce",
                            "type": "uint8"
                        },
                        {
                            "internalType": "uint8",
                            "name": "feeStructureIndex",
                            "type": "uint8"
                        },
                        {
                            "internalType": "uint32",
                            "name": "blockNumber",
                            "type": "uint32"
                        },
                        {
                            "internalType": "uint40",
                            "name": "totalAmountSatoshi",
                            "type": "uint40"
                        },
                        {
                            "internalType": "string",
                            "name": "btcAddress",
                            "type": "string"
                        }
                    ],
                    "internalType": "struct FastBTCBridge.BitcoinTransfer[]",
                    "name": "ret",
                    "type": "tuple[]"
                }
            ],
            "stateMutability": "view",
            "type": "function"
        },
        {
            "inputs": [
                {
                    "internalType": "bytes32[]",
                    "name": "transferIds",
                    "type": "bytes32[]"
                }
            ],
            "name": "getTransfersByTransferId",
            "outputs": [
                {
                    "components": [
                        {
                            "internalType": "address",
                            "name": "rskAddress",
                            "type": "address"
                        },
                        {
                            "internalType": "enum FastBTCBridge.BitcoinTransferStatus",
                            "name": "status",
                            "type": "uint8"
                        },
                        {
                            "internalType": "uint8",
                            "name": "nonce",
                            "type": "uint8"
                        },
                        {
                            "internalType": "uint8",
                            "name": "feeStructureIndex",
                            "type": "uint8"
                        },
                        {
                            "internalType": "uint32",
                            "name": "blockNumber",
                            "type": "uint32"
                        },
                        {
                            "internalType": "uint40",
                            "name": "totalAmountSatoshi",
                            "type": "uint40"
                        },
                        {
                            "internalType": "string",
                            "name": "btcAddress",
                            "type": "string"
                        }
                    ],
                    "internalType": "struct FastBTCBridge.BitcoinTransfer[]",
                    "name": "ret",
                    "type": "tuple[]"
                }
            ],
            "stateMutability": "view",
            "type": "function"
        },
        {
            "inputs": [],
            "name": "initialized",
            "outputs": [
                {
                    "internalType": "bool",
                    "name": "",
                    "type": "bool"
                }
            ],
            "stateMutability": "view",
            "type": "function"
        },
        {
            "inputs": [
                {
                    "internalType": "string",
                    "name": "btcAddress",
                    "type": "string"
                }
            ],
            "name": "isValidBtcAddress",
            "outputs": [
                {
                    "internalType": "bool",
                    "name": "",
                    "type": "bool"
                }
            ],
            "stateMutability": "view",
            "type": "function"
        },
        {
            "inputs": [
                {
                    "internalType": "address",
                    "name": "newContract",
                    "type": "address"
                },
                {
                    "internalType": "string",
                    "name": "message",
                    "type": "string"
                }
            ],
            "name": "markObsolete",
            "outputs": [],
            "stateMutability": "nonpayable",
            "type": "function"
        },
        {
            "inputs": [],
            "name": "markReady",
            "outputs": [],
            "stateMutability": "nonpayable",
            "type": "function"
        },
        {
            "inputs": [
                {
                    "internalType": "bytes32[]",
                    "name": "transferIds",
                    "type": "bytes32[]"
                },
                {
                    "internalType": "bytes[]",
                    "name": "signatures",
                    "type": "bytes[]"
                }
            ],
            "name": "markTransfersAsMined",
            "outputs": [],
            "stateMutability": "nonpayable",
            "type": "function"
        },
        {
            "inputs": [
                {
                    "internalType": "bytes32",
                    "name": "bitcoinTxHash",
                    "type": "bytes32"
                },
                {
                    "internalType": "bytes32[]",
                    "name": "transferIds",
                    "type": "bytes32[]"
                },
                {
                    "internalType": "bytes[]",
                    "name": "signatures",
                    "type": "bytes[]"
                }
            ],
            "name": "markTransfersAsSending",
            "outputs": [],
            "stateMutability": "nonpayable",
            "type": "function"
        },
        {
            "inputs": [],
            "name": "maxTransferSatoshi",
            "outputs": [
                {
                    "internalType": "uint40",
                    "name": "",
                    "type": "uint40"
                }
            ],
            "stateMutability": "view",
            "type": "function"
        },
        {
            "inputs": [],
            "name": "minTransferSatoshi",
            "outputs": [
                {
                    "internalType": "uint40",
                    "name": "",
                    "type": "uint40"
                }
            ],
            "stateMutability": "view",
            "type": "function"
        },
        {
            "inputs": [
                {
                    "internalType": "string",
                    "name": "",
                    "type": "string"
                }
            ],
            "name": "nextNonces",
            "outputs": [
                {
                    "internalType": "uint8",
                    "name": "",
                    "type": "uint8"
                }
            ],
            "stateMutability": "view",
            "type": "function"
        },
        {
            "inputs": [
                {
                    "internalType": "bytes32",
                    "name": "",
                    "type": "bytes32"
                }
            ],
            "name": "nodeConfig",
            "outputs": [
                {
                    "internalType": "bytes",
                    "name": "",
                    "type": "bytes"
                }
            ],
            "stateMutability": "view",
            "type": "function"
        },
        {
            "inputs": [],
            "name": "pause",
            "outputs": [],
            "stateMutability": "nonpayable",
            "type": "function"
        },
        {
            "inputs": [],
            "name": "paused",
            "outputs": [
                {
                    "internalType": "bool",
                    "name": "",
                    "type": "bool"
                }
            ],
            "stateMutability": "view",
            "type": "function"
        },
        {
            "inputs": [],
            "name": "previousFastBtcBridgeContract",
            "outputs": [
                {
                    "internalType": "address",
                    "name": "",
                    "type": "address"
                }
            ],
            "stateMutability": "view",
            "type": "function"
        },
        {
            "inputs": [
                {
                    "internalType": "bytes",
                    "name": "userData",
                    "type": "bytes"
                }
            ],
            "name": "receiveEthFromBridge",
            "outputs": [],
            "stateMutability": "payable",
            "type": "function"
        },
        {
            "inputs": [
                {
                    "internalType": "bytes32",
                    "name": "transferId",
                    "type": "bytes32"
                }
            ],
            "name": "reclaimTransfer",
            "outputs": [],
            "stateMutability": "nonpayable",
            "type": "function"
        },
        {
            "inputs": [
                {
                    "internalType": "bytes32[]",
                    "name": "transferIds",
                    "type": "bytes32[]"
                },
                {
                    "internalType": "bytes[]",
                    "name": "signatures",
                    "type": "bytes[]"
                }
            ],
            "name": "refundTransfers",
            "outputs": [],
            "stateMutability": "nonpayable",
            "type": "function"
        },
        {
            "inputs": [],
            "name": "replacementReason",
            "outputs": [
                {
                    "internalType": "string",
                    "name": "",
                    "type": "string"
                }
            ],
            "stateMutability": "view",
            "type": "function"
        },
        {
            "inputs": [],
            "name": "requiredBlocksBeforeReclaim",
            "outputs": [
                {
                    "internalType": "uint32",
                    "name": "",
                    "type": "uint32"
                }
            ],
            "stateMutability": "view",
            "type": "function"
        },
        {
            "inputs": [
                {
                    "internalType": "contract IBTCAddressValidator",
                    "name": "newBtcAddressValidator",
                    "type": "address"
                }
            ],
            "name": "setBtcAddressValidator",
            "outputs": [],
            "stateMutability": "nonpayable",
            "type": "function"
        },
        {
            "inputs": [
                {
                    "internalType": "uint256",
                    "name": "feeStructureIndex",
                    "type": "uint256"
                }
            ],
            "name": "setCurrentFeeStructure",
            "outputs": [],
            "stateMutability": "nonpayable",
            "type": "function"
        },
        {
            "inputs": [
                {
                    "internalType": "uint256",
                    "name": "newMaxTransferSatoshi",
                    "type": "uint256"
                }
            ],
            "name": "setMaxTransferSatoshi",
            "outputs": [],
            "stateMutability": "nonpayable",
            "type": "function"
        },
        {
            "inputs": [
                {
                    "internalType": "uint256",
                    "name": "newMinTransferSatoshi",
                    "type": "uint256"
                }
            ],
            "name": "setMinTransferSatoshi",
            "outputs": [],
            "stateMutability": "nonpayable",
            "type": "function"
        },
        {
            "inputs": [
                {
                    "internalType": "bytes32",
                    "name": "key",
                    "type": "bytes32"
                },
                {
                    "internalType": "bytes",
                    "name": "value",
                    "type": "bytes"
                }
            ],
            "name": "setNodeConfigValue",
            "outputs": [],
            "stateMutability": "nonpayable",
            "type": "function"
        },
        {
            "inputs": [
                {
                    "internalType": "uint256",
                    "name": "newRequiredBlocksBeforeReclaim",
                    "type": "uint256"
                }
            ],
            "name": "setRequiredBlocksBeforeReclaim",
            "outputs": [],
            "stateMutability": "nonpayable",
            "type": "function"
        },
        {
            "inputs": [],
            "name": "supersedingFastBtcBridgeContract",
            "outputs": [
                {
                    "internalType": "address",
                    "name": "",
                    "type": "address"
                }
            ],
            "stateMutability": "view",
            "type": "function"
        },
        {
            "inputs": [],
            "name": "totalAdminWithdrawableRbtc",
            "outputs": [
                {
                    "internalType": "uint256",
                    "name": "",
                    "type": "uint256"
                }
            ],
            "stateMutability": "view",
            "type": "function"
        },
        {
            "inputs": [
                {
                    "internalType": "string",
                    "name": "btcAddress",
                    "type": "string"
                }
            ],
            "name": "transferToBtc",
            "outputs": [],
            "stateMutability": "payable",
            "type": "function"
        },
        {
            "inputs": [
                {
                    "internalType": "bytes32",
                    "name": "",
                    "type": "bytes32"
                }
            ],
            "name": "transfers",
            "outputs": [
                {
                    "internalType": "address",
                    "name": "rskAddress",
                    "type": "address"
                },
                {
                    "internalType": "enum FastBTCBridge.BitcoinTransferStatus",
                    "name": "status",
                    "type": "uint8"
                },
                {
                    "internalType": "uint8",
                    "name": "nonce",
                    "type": "uint8"
                },
                {
                    "internalType": "uint8",
                    "name": "feeStructureIndex",
                    "type": "uint8"
                },
                {
                    "internalType": "uint32",
                    "name": "blockNumber",
                    "type": "uint32"
                },
                {
                    "internalType": "uint40",
                    "name": "totalAmountSatoshi",
                    "type": "uint40"
                },
                {
                    "internalType": "string",
                    "name": "btcAddress",
                    "type": "string"
                }
            ],
            "stateMutability": "view",
            "type": "function"
        },
        {
            "inputs": [],
            "name": "unfreeze",
            "outputs": [],
            "stateMutability": "nonpayable",
            "type": "function"
        },
        {
            "inputs": [],
            "name": "unpause",
            "outputs": [],
            "stateMutability": "nonpayable",
            "type": "function"
        },
        {
            "inputs": [
                {
                    "internalType": "uint256",
                    "name": "amount",
                    "type": "uint256"
                },
                {
                    "internalType": "address payable",
                    "name": "receiver",
                    "type": "address"
                }
            ],
            "name": "withdrawRbtc",
            "outputs": [],
            "stateMutability": "nonpayable",
            "type": "function"
        },
        {
            "inputs": [
                {
                    "internalType": "contract IERC20",
                    "name": "token",
                    "type": "address"
                },
                {
                    "internalType": "uint256",
                    "name": "amount",
                    "type": "uint256"
                },
                {
                    "internalType": "address",
                    "name": "receiver",
                    "type": "address"
                }
            ],
            "name": "withdrawTokens",
            "outputs": [],
            "stateMutability": "nonpayable",
            "type": "function"
        }
    ],
    "bytecode": "0x61010580546001600160501b0363ffffffff60881b0119167221c000000000000000000bebc20000000003e8179055600061010681905561010880546001600160a81b031916905561010980546001600160a01b031916905560a060408190526080829052620000749161010a9190620004f8565b503480156200008257600080fd5b50604051620063be380380620063be833981016040819052620000a591620005b7565b6001600081815581546001600160a01b038581166001600160b01b0319909216919091178355600480546001600160a01b031916918516919091179055620000f1916101f49062000105565b620000fd600062000311565b505062000649565b61010083106200015c5760405162461bcd60e51b815260206004820152601d60248201527f546f6f206c61726765206665652073747275637475726520696e64657800000060448201526064015b60405180910390fd5b6005836101008110620001735762000173620005f6565b015463ffffffff16158015620001ab575060058361010081106200019b576200019b620005f6565b0154640100000000900461ffff16155b620001f95760405162461bcd60e51b815260206004820152601f60248201527f5468697320736c6f742068617320616c7265616479206265656e207573656400604482015260640162000153565b63ffffffff8211156200024f5760405162461bcd60e51b815260206004820152601860248201527f42617365206665652065786365656473206d6178696d756d0000000000000000604482015260640162000153565b6127108110620002a25760405162461bcd60e51b815260206004820152601460248201527f44796e616d69632066656520746f6f2068696768000000000000000000000000604482015260640162000153565b816005846101008110620002ba57620002ba620005f6565b01805463ffffffff191663ffffffff92909216919091179055806005846101008110620002eb57620002eb620005f6565b01805461ffff929092166401000000000261ffff60201b19909216919091179055505050565b6101008110620003645760405162461bcd60e51b815260206004820152601b60248201527f4665652073747275637475726520696e64657820696e76616c69640000000000604482015260640162000153565b600060058261010081106200037d576200037d620005f6565b015463ffffffff161180620003b6575060006005826101008110620003a657620003a6620005f6565b0154640100000000900461ffff16115b620004045760405162461bcd60e51b815260206004820152601960248201527f4665652073747275637475726520656e74727920756e73657400000000000000604482015260640162000153565b610105805460ff60501b19166a010000000000000000000060ff84160217905560058161010081106200043b576200043b620005f6565b0154610105805463ffffffff60681b191663ffffffff909216600160681b029190911790556005816101008110620004775762000477620005f6565b0154610105805461ffff60581b191664010000000090920461ffff9081166b010000000000000000000000908102939093179182905560408051600160681b840463ffffffff168152939092041660208301527f90cef8a8e64b7df734218d640fdf22056207aac8c22ca3352946b8c770a91104910160405180910390a150565b82805462000506906200060c565b90600052602060002090601f0160209004810192826200052a576000855562000575565b82601f106200054557805160ff191683800117855562000575565b8280016001018555821562000575579182015b828111156200057557825182559160200191906001019062000558565b506200058392915062000587565b5090565b5b8082111562000583576000815560010162000588565b6001600160a01b0381168114620005b457600080fd5b50565b60008060408385031215620005cb57600080fd5b8251620005d8816200059e565b6020840151909250620005eb816200059e565b809150509250929050565b634e487b7160e01b600052603260045260246000fd5b600181811c908216806200062157607f821691505b602082108114156200064357634e487b7160e01b600052602260045260246000fd5b50919050565b615d6580620006596000396000f3fe6080604052600436106103a25760003560e01c80636ceb2cf5116101e7578063a2ed32b41161010d578063db6f5685116100a0578063e632459f1161006f578063e632459f14610b87578063f1afc50414610ba7578063f576031914610bd0578063f77f4e8b14610bf057600080fd5b8063db6f568514610af4578063dc5ae88214610b14578063df87ca7014610b34578063e01308bc14610b6f57600080fd5b8063b3f78a22116100dc578063b3f78a2214610a66578063b51aefbe14610a86578063ba577f4614610ab4578063d95a6b9314610ad457600080fd5b8063a2ed32b4146109d5578063a327aaab146109f5578063b092927914610a08578063b20d550b14610a2857600080fd5b80638456cb591161018557806396b97f2b1161015457806396b97f2b1461095f57806397e373041461097557806397fa108e146109955780639bc5c509146109b557600080fd5b80638456cb59146108dc5780638a23212f146108f15780638b4ee6f71461091757806395756dab1461093f57600080fd5b806374db0769116101c157806374db07691461085e57806376677d30146108735780637a0d408f146108895780637c8404e2146108bc57600080fd5b80636ceb2cf5146108055780636dc6386814610825578063740122c51461084557600080fd5b80634455ff1b116102cc5780635f3e9eb11161026a57806363574a891161023957806363574a891461077e5780636716671e146107b05780636a28f000146107d05780636c147d8c146107e557600080fd5b80635f3e9eb1146106e35780636212e2811461072757806362a5af3b14610749578063632163561461075e57600080fd5b806351703fac116102a657806351703fac1461066a57806357e1937a1461068c5780635c975abb146106a35780635e32ccce146106c257600080fd5b80634455ff1b146105fc5780634c5f9bbe1461062a578063507aea861461064a57600080fd5b80632c37c330116103445780633c64f04b116103135780633c64f04b146105815780633f0abbd4146105b45780633f4ba83a146105c75780633fd367de146105dc57600080fd5b80632c37c330146104e75780632d3578eb1461050757806330fde5771461053457806331c404251461056157600080fd5b8063158ef93e11610380578063158ef93e146104435780631ca087e71461045e5780631e2e0a261461047357806324cebc75146104a857600080fd5b8063054f7d9c146103a75780630a7d9e35146103e957806313007d551461040b575b600080fd5b3480156103b357600080fd5b506001547501000000000000000000000000000000000000000000900460ff165b60405190151581526020015b60405180910390f35b3480156103f557600080fd5b50610409610404366004614bf7565b610c10565b005b34801561041757600080fd5b5060015461042b906001600160a01b031681565b6040516001600160a01b0390911681526020016103e0565b34801561044f57600080fd5b50610108546103d49060ff1681565b34801561046a57600080fd5b50610409610d32565b34801561047f57600080fd5b50610105546104929064ffffffffff1681565b60405164ffffffffff90911681526020016103e0565b3480156104b457600080fd5b506104c86104c3366004614c27565b610e53565b6040805163ffffffff909316835261ffff9091166020830152016103e0565b3480156104f357600080fd5b50610409610502366004614c40565b610e7e565b34801561051357600080fd5b50610527610522366004614cc4565b610f02565b6040516103e09190614e71565b34801561054057600080fd5b5061055461054f366004614ec9565b610f96565b6040516103e09190614f35565b34801561056d57600080fd5b5060045461042b906001600160a01b031681565b34801561058d57600080fd5b506105a161059c366004614c27565b611386565b6040516103e09796959493929190614fb5565b6104096105c236600461501c565b6114c5565b3480156105d357600080fd5b50610409611594565b3480156105e857600080fd5b506104096105f7366004614c27565b611685565b34801561060857600080fd5b5061061c610617366004614c27565b611715565b6040519081526020016103e0565b34801561063657600080fd5b50610527610645366004614c27565b611749565b34801561065657600080fd5b5061040961066536600461516a565b611984565b34801561067657600080fd5b5061067f611a1a565b6040516103e091906151b1565b34801561069857600080fd5b5061061c6101065481565b3480156106af57600080fd5b50600154600160a01b900460ff166103d4565b3480156106ce57600080fd5b506101095461042b906001600160a01b031681565b3480156106ef57600080fd5b5061010554610712906d0100000000000000000000000000900463ffffffff1681565b60405163ffffffff90911681526020016103e0565b34801561073357600080fd5b5061073c611ad7565b6040516103e091906151fe565b34801561075557600080fd5b50610409611b66565b34801561076a57600080fd5b50610409610779366004614c27565b611c02565b34801561078a57600080fd5b5061079e61079936600461501c565b611f15565b60405160ff90911681526020016103e0565b3480156107bc57600080fd5b506104096107cb3660046152c5565b611f45565b3480156107dc57600080fd5b5061040961229b565b3480156107f157600080fd5b5061061c610800366004614c27565b612317565b34801561081157600080fd5b50610409610820366004614c27565b61236e565b34801561083157600080fd5b50610409610840366004615338565b61247a565b34801561085157600080fd5b5061061c6402540be40081565b34801561086a57600080fd5b5061079e60fe81565b34801561087f57600080fd5b5061061c614ec081565b34801561089557600080fd5b50610105546107129071010000000000000000000000000000000000900463ffffffff1681565b3480156108c857600080fd5b5061061c6108d7366004615355565b61257e565b3480156108e857600080fd5b506104096125b1565b3480156108fd57600080fd5b506101085461042b9061010090046001600160a01b031681565b34801561092357600080fd5b50610105546104929065010000000000900464ffffffffff1681565b34801561094b57600080fd5b5061040961095a366004614c27565b61262d565b34801561096b57600080fd5b5061061c61271081565b34801561098157600080fd5b5061061c6109903660046153a9565b612766565b3480156109a157600080fd5b5061073c6109b0366004615407565b6127a1565b3480156109c157600080fd5b506104096109d036600461545c565b6127d0565b3480156109e157600080fd5b506105546109f0366004615493565b612859565b610409610a0336600461501c565b612b60565b348015610a1457600080fd5b506103d4610a233660046154c9565b612c50565b348015610a3457600080fd5b5061010554610a53906b010000000000000000000000900461ffff1681565b60405161ffff90911681526020016103e0565b348015610a7257600080fd5b5061073c610a81366004614c27565b612ceb565b348015610a9257600080fd5b50610aa6610aa136600461501c565b612d05565b6040516103e09291906154fe565b348015610ac057600080fd5b50610409610acf366004615520565b612d20565b348015610ae057600080fd5b50610409610aef366004615589565b612fd8565b348015610b0057600080fd5b50610409610b0f366004615520565b613240565b348015610b2057600080fd5b5061061c610b2f3660046155d1565b613516565b348015610b4057600080fd5b5061079e610b4f3660046154c9565b805160208183018101805160038252928201919093012091525460ff1681565b348015610b7b57600080fd5b5061061c63ffffffff81565b348015610b9357600080fd5b50610409610ba2366004614c27565b61354e565b348015610bb357600080fd5b506101055461079e906a0100000000000000000000900460ff1681565b348015610bdc57600080fd5b50610409610beb366004614c27565b613651565b348015610bfc57600080fd5b50610409610c0b366004615407565b6136ce565b6001546040517f9026dee80000000000000000000000000000000000000000000000000000000081523360048201526001600160a01b0390911690639026dee89060240160006040518083038186803b158015610c6c57600080fd5b505afa158015610c80573d6000803e3d6000fd5b5050505061010654821115610d025760405162461bcd60e51b815260206004820152602260248201527f43616e206f6e6c7920776974686472617720756e73656e74207472616e73666560448201527f727300000000000000000000000000000000000000000000000000000000000060648201526084015b60405180910390fd5b816101066000828254610d159190615654565b90915550610d2e90506001600160a01b0382168361383e565b5050565b6001546040517f9026dee80000000000000000000000000000000000000000000000000000000081523360048201526001600160a01b0390911690639026dee89060240160006040518083038186803b158015610d8e57600080fd5b505afa158015610da2573d6000803e3d6000fd5b50506101085460ff16159150610dfc90505760405162461bcd60e51b815260206004820152601c60248201527f436f6e747261637420616c726561647920696e697469616c697a6564000000006044820152606401610cf9565b61010880547fffffffffffffffffffffffffffffffffffffffffffffffffffffffffffffff001660011790556040517f5daa87a0e9463431830481fd4b6e3403442dfb9a12b9c07597e9f61d50b633c890600090a1565b6005816101008110610e6457600080fd5b015463ffffffff81169150640100000000900461ffff1682565b6001546040517f9026dee80000000000000000000000000000000000000000000000000000000081523360048201526001600160a01b0390911690639026dee89060240160006040518083038186803b158015610eda57600080fd5b505afa158015610eee573d6000803e3d6000fd5b50505050610efd838383613957565b505050565b6040805160e08101825260008082526020820181905291810182905260608082018390526080820183905260a082019290925260c08101919091526000610f8285858080601f016020809104026020016040519081016040528093929190818152602001838380828437600092019190915250505060ff8616905061257e565b9050610f8d81611749565b95945050505050565b606083821461100d5760405162461bcd60e51b815260206004820152603460248201527f73616d6520616d6f756e74206f662062746341646472657373657320616e642060448201527f6e6f6e636573206d75737420626520676976656e0000000000000000000000006064820152608401610cf9565b8367ffffffffffffffff8111156110265761102661505e565b6040519080825280602002602001820160405280156110ad57816020015b6040805160e0810182526000808252602080830182905292820181905260608083018290526080830182905260a083019190915260c082015282527fffffffffffffffffffffffffffffffffffffffffffffffffffffffffffffffff9092019101816110445790505b50905060005b8481101561137d576002600061114c8888858181106110d4576110d461566b565b90506020028101906110e6919061569a565b8080601f0160208091040260200160405190810160405280939291908181526020018383808284376000920191909152508a925089915087905081811061112f5761112f61566b565b905060200201602081019061114491906156ff565b60ff1661257e565b81526020808201929092526040908101600020815160e0810190925280546001600160a01b03811683529192909190830190600160a01b900460ff16600581111561119957611199614d1b565b60058111156111aa576111aa614d1b565b8152815460ff7501000000000000000000000000000000000000000000820481166020840152760100000000000000000000000000000000000000000000820416604083015263ffffffff77010000000000000000000000000000000000000000000000820416606083015264ffffffffff7b0100000000000000000000000000000000000000000000000000000090910416608082015260018201805460a0909201916112579061571c565b80601f01602080910402602001604051908101604052809291908181526020018280546112839061571c565b80156112d05780601f106112a5576101008083540402835291602001916112d0565b820191906000526020600020905b8154815290600101906020018083116112b357829003601f168201915b5050505050815250508282815181106112eb576112eb61566b565b6020908102919091010152600082828151811061130a5761130a61566b565b602002602001015160200151600581111561132757611327614d1b565b14156113755760405162461bcd60e51b815260206004820152601660248201527f5472616e7366657220646f65736e2774206578697374000000000000000000006044820152606401610cf9565b6001016110b3565b50949350505050565b600260205260009081526040902080546001820180546001600160a01b03831693600160a01b840460ff908116947501000000000000000000000000000000000000000000810482169476010000000000000000000000000000000000000000000082049092169377010000000000000000000000000000000000000000000000820463ffffffff16937b0100000000000000000000000000000000000000000000000000000090920464ffffffffff1692906114429061571c565b80601f016020809104026020016040519081016040528092919081815260200182805461146e9061571c565b80156114bb5780601f10611490576101008083540402835291602001916114bb565b820191906000526020600020905b81548152906001019060200180831161149e57829003601f168201915b5050505050905087565b600154600160a01b900460ff161561151f5760405162461bcd60e51b815260206004820152601060248201527f5061757361626c653a20706175736564000000000000000000000000000000006044820152606401610cf9565b6101085460ff166115725760405162461bcd60e51b815260206004820152601860248201527f436f6e7472616374206e6f7420696e697469616c697a656400000000000000006044820152606401610cf9565b60008061157f8484612d05565b9150915061158e818334613b7f565b50505050565b6001546040517f1b13bea80000000000000000000000000000000000000000000000000000000081523360048201526001600160a01b0390911690631b13bea89060240160006040518083038186803b1580156115f057600080fd5b505afa158015611604573d6000803e3d6000fd5b5050505061162e60015460ff75010000000000000000000000000000000000000000009091041690565b1561167b5760405162461bcd60e51b815260206004820152601160248201527f467265657a61626c653a2066726f7a656e0000000000000000000000000000006044820152606401610cf9565b61168361417a565b565b6001546040517fe89982f70000000000000000000000000000000000000000000000000000000081523360048201526001600160a01b039091169063e89982f79060240160006040518083038186803b1580156116e157600080fd5b505afa1580156116f5573d6000803e3d6000fd5b505050600082815261010760205260408120611712925090614a7d565b50565b6000806117276402540be4008461579f565b90506402540be40061173882612317565b61174291906157b3565b9392505050565b6040805160e080820183526000808352602080840182905283850182905260608085018390526080850183905260a0850183905260c08501528582526002815290849020845192830190945283546001600160a01b03811683529293919290830190600160a01b900460ff1660058111156117c6576117c6614d1b565b60058111156117d7576117d7614d1b565b8152815460ff7501000000000000000000000000000000000000000000820481166020840152760100000000000000000000000000000000000000000000820416604083015263ffffffff77010000000000000000000000000000000000000000000000820416606083015264ffffffffff7b0100000000000000000000000000000000000000000000000000000090910416608082015260018201805460a0909201916118849061571c565b80601f01602080910402602001604051908101604052809291908181526020018280546118b09061571c565b80156118fd5780601f106118d2576101008083540402835291602001916118fd565b820191906000526020600020905b8154815290600101906020018083116118e057829003601f168201915b50505050508152505090506000600581111561191b5761191b614d1b565b8160200151600581111561193157611931614d1b565b141561197f5760405162461bcd60e51b815260206004820152601660248201527f5472616e7366657220646f65736e2774206578697374000000000000000000006044820152606401610cf9565b919050565b6001546040517fe89982f70000000000000000000000000000000000000000000000000000000081523360048201526001600160a01b039091169063e89982f79060240160006040518083038186803b1580156119e057600080fd5b505afa1580156119f4573d6000803e3d6000fd5b5050506000838152610107602090815260409091208351610efd93509091840190614ab7565b600154604080517f51703fac00000000000000000000000000000000000000000000000000000000815290516060926001600160a01b0316916351703fac916004808301926000929190829003018186803b158015611a7857600080fd5b505afa158015611a8c573d6000803e3d6000fd5b505050506040513d6000823e601f3d9081017fffffffffffffffffffffffffffffffffffffffffffffffffffffffffffffffe0168201604052611ad291908101906157f0565b905090565b61010a8054611ae59061571c565b80601f0160208091040260200160405190810160405280929190818152602001828054611b119061571c565b8015611b5e5780601f10611b3357610100808354040283529160200191611b5e565b820191906000526020600020905b815481529060010190602001808311611b4157829003601f168201915b505050505081565b6001546040517f9cd1ae820000000000000000000000000000000000000000000000000000000081523360048201526001600160a01b0390911690639cd1ae829060240160006040518083038186803b158015611bc257600080fd5b505afa158015611bd6573d6000803e3d6000fd5b50505050611bee60015460ff600160a01b9091041690565b611bfa57611bfa61423c565b6116836142ec565b60026000541415611c555760405162461bcd60e51b815260206004820152601f60248201527f5265656e7472616e637947756172643a207265656e7472616e742063616c6c006044820152606401610cf9565b60026000556001547501000000000000000000000000000000000000000000900460ff1615611cc65760405162461bcd60e51b815260206004820152601160248201527f467265657a61626c653a2066726f7a656e0000000000000000000000000000006044820152606401610cf9565b6101085460ff16611d195760405162461bcd60e51b815260206004820152601860248201527f436f6e7472616374206e6f7420696e697469616c697a656400000000000000006044820152606401610cf9565b600081815260026020526040902060018154600160a01b900460ff166005811115611d4657611d46614d1b565b14611de05760405162461bcd60e51b8152602060048201526044602482018190527f496e76616c6964206578697374696e6720426974636f696e5472616e73666572908201527f20737461747573206f7220426974636f696e5472616e73666572206e6f74206660648201527f6f756e6400000000000000000000000000000000000000000000000000000000608482015260a401610cf9565b80546001600160a01b03163314611e395760405162461bcd60e51b815260206004820152601e60248201527f43616e206f6e6c79207265636c61696d206f776e207472616e736665727300006044820152606401610cf9565b61010554815463ffffffff71010000000000000000000000000000000000909204821691611e83917701000000000000000000000000000000000000000000000090041643615654565b1015611ef75760405162461bcd60e51b815260206004820152602760248201527f4e6f7420656e6f75676820626c6f636b7320706173736564206265666f72652060448201527f7265636c61696d000000000000000000000000000000000000000000000000006064820152608401610cf9565b611f03828260056143c8565b611f0c8161443c565b50506001600055565b600060038383604051611f2992919061587f565b9081526040519081900360200190205460ff1690505b92915050565b6001546040517f223633830000000000000000000000000000000000000000000000000000000081523360048201526001600160a01b039091169063223633839060240160006040518083038186803b158015611fa157600080fd5b505afa158015611fb5573d6000803e3d6000fd5b50505050611fdf60015460ff75010000000000000000000000000000000000000000009091041690565b1561202c5760405162461bcd60e51b815260206004820152601160248201527f467265657a61626c653a2066726f7a656e0000000000000000000000000000006044820152606401610cf9565b6101085460ff1661207f5760405162461bcd60e51b815260206004820152601860248201527f436f6e7472616374206e6f7420696e697469616c697a656400000000000000006044820152606401610cf9565b6040805185815260ff841660208201527f7331a19030f2d79f5e400d014c21b9d18bda20e5cc61ce0365d538a41e8fdb42910160405180910390a16001546001600160a01b031663f88681126120d88686866002612766565b836040518363ffffffff1660e01b81526004016120f692919061588f565b60006040518083038186803b15801561210e57600080fd5b505afa158015612122573d6000803e3d6000fd5b5050505060005b82811015612294576000600260008686858181106121495761214961566b565b90506020020135815260200190815260200160002090506001600581111561217357612173614d1b565b8154600160a01b900460ff16600581111561219057612190614d1b565b1461222a5760405162461bcd60e51b8152602060048201526044602482018190527f496e76616c6964206578697374696e6720426974636f696e5472616e73666572908201527f20737461747573206f7220426974636f696e5472616e73666572206e6f74206660648201527f6f756e6400000000000000000000000000000000000000000000000000000000608482015260a401610cf9565b805461010680546402540be4007b0100000000000000000000000000000000000000000000000000000090930464ffffffffff1692909202909101905561228b85858481811061227c5761227c61566b565b905060200201358260026143c8565b50600101612129565b5050505050565b6001546040517f9cd1ae820000000000000000000000000000000000000000000000000000000081523360048201526001600160a01b0390911690639cd1ae829060240160006040518083038186803b1580156122f757600080fd5b505afa15801561230b573d6000803e3d6000fd5b5050505061168361448f565b610105546000906127109061233f906b010000000000000000000000900461ffff16846157b3565b612349919061579f565b61010554611f3f91906d0100000000000000000000000000900463ffffffff16615917565b6001546040517f9026dee80000000000000000000000000000000000000000000000000000000081523360048201526001600160a01b0390911690639026dee89060240160006040518083038186803b1580156123ca57600080fd5b505afa1580156123de573d6000803e3d6000fd5b50505064ffffffffff82111590506124385760405162461bcd60e51b815260206004820152601260248201527f4d7573742066697420696e2075696e74343000000000000000000000000000006044820152606401610cf9565b610105805464ffffffffff90921665010000000000027fffffffffffffffffffffffffffffffffffffffffffff0000000000ffffffffff909216919091179055565b6001546040517f9026dee80000000000000000000000000000000000000000000000000000000081523360048201526001600160a01b0390911690639026dee89060240160006040518083038186803b1580156124d657600080fd5b505afa1580156124ea573d6000803e3d6000fd5b505050506001600160a01b0381166125445760405162461bcd60e51b815260206004820152601a60248201527f43616e6e6f742073657420746f207a65726f20616464726573730000000000006044820152606401610cf9565b600480547fffffffffffffffffffffffff0000000000000000000000000000000000000000166001600160a01b0392909216919091179055565b6000828260405160200161259392919061592f565b60405160208183030381529060405280519060200120905092915050565b6001546040517f1b13bea80000000000000000000000000000000000000000000000000000000081523360048201526001600160a01b0390911690631b13bea89060240160006040518083038186803b15801561260d57600080fd5b505afa158015612621573d6000803e3d6000fd5b5050505061168361423c565b6001546040517f9026dee80000000000000000000000000000000000000000000000000000000081523360048201526001600160a01b0390911690639026dee89060240160006040518083038186803b15801561268957600080fd5b505afa15801561269d573d6000803e3d6000fd5b50505050614ec08111156127195760405162461bcd60e51b815260206004820152602860248201527f526571756972656420626c6f636b73206265666f7265207265636c61696d207460448201527f6f6f206c617267650000000000000000000000000000000000000000000000006064820152608401610cf9565b610105805463ffffffff90921671010000000000000000000000000000000000027fffffffffffffffffffffff00000000ffffffffffffffffffffffffffffffffff909216919091179055565b60003082868686604051602001612781959493929190615a27565b604051602081830303815290604052805190602001209050949350505050565b60608383836040516020016127b893929190615b15565b60405160208183030381529060405290509392505050565b6001546040517f9026dee80000000000000000000000000000000000000000000000000000000081523360048201526001600160a01b0390911690639026dee89060240160006040518083038186803b15801561282c57600080fd5b505afa158015612840573d6000803e3d6000fd5b50610efd925050506001600160a01b0384168284614552565b60608167ffffffffffffffff8111156128745761287461505e565b6040519080825280602002602001820160405280156128fb57816020015b6040805160e0810182526000808252602080830182905292820181905260608083018290526080830182905260a083019190915260c082015282527fffffffffffffffffffffffffffffffffffffffffffffffffffffffffffffffff9092019101816128925790505b50905060005b82811015612b59576002600085858481811061291f5761291f61566b565b60209081029290920135835250818101929092526040908101600020815160e0810190925280546001600160a01b03811683529192909190830190600160a01b900460ff16600581111561297557612975614d1b565b600581111561298657612986614d1b565b8152815460ff7501000000000000000000000000000000000000000000820481166020840152760100000000000000000000000000000000000000000000820416604083015263ffffffff77010000000000000000000000000000000000000000000000820416606083015264ffffffffff7b0100000000000000000000000000000000000000000000000000000090910416608082015260018201805460a090920191612a339061571c565b80601f0160208091040260200160405190810160405280929190818152602001828054612a5f9061571c565b8015612aac5780601f10612a8157610100808354040283529160200191612aac565b820191906000526020600020905b815481529060010190602001808311612a8f57829003601f168201915b505050505081525050828281518110612ac757612ac761566b565b60209081029190910101526000828281518110612ae657612ae661566b565b6020026020010151602001516005811115612b0357612b03614d1b565b1415612b515760405162461bcd60e51b815260206004820152601660248201527f5472616e7366657220646f65736e2774206578697374000000000000000000006044820152606401610cf9565b600101612901565b5092915050565b600154600160a01b900460ff1615612bba5760405162461bcd60e51b815260206004820152601060248201527f5061757361626c653a20706175736564000000000000000000000000000000006044820152606401610cf9565b6101085460ff16612c0d5760405162461bcd60e51b815260206004820152601860248201527f436f6e7472616374206e6f7420696e697469616c697a656400000000000000006044820152606401610cf9565b610d2e82828080601f016020809104026020016040519081016040528093929190818152602001838380828437600092019190915250339250349150613b7f9050565b600480546040517fb09292790000000000000000000000000000000000000000000000000000000081526000926001600160a01b039092169163b092927991612c9b918691016151fe565b60206040518083038186803b158015612cb357600080fd5b505afa158015612cc7573d6000803e3d6000fd5b505050506040513d601f19601f82011682018060405250810190611f3f9190615b38565b6101076020526000908152604090208054611ae59061571c565b60006060612d1583850185615b5a565b909590945092505050565b6001546040517f223633830000000000000000000000000000000000000000000000000000000081523360048201526001600160a01b039091169063223633839060240160006040518083038186803b158015612d7c57600080fd5b505afa158015612d90573d6000803e3d6000fd5b50505050612dba60015460ff75010000000000000000000000000000000000000000009091041690565b15612e075760405162461bcd60e51b815260206004820152601160248201527f467265657a61626c653a2066726f7a656e0000000000000000000000000000006044820152606401610cf9565b6101085460ff16612e5a5760405162461bcd60e51b815260206004820152601860248201527f436f6e7472616374206e6f7420696e697469616c697a656400000000000000006044820152606401610cf9565b6001546001600160a01b031663f8868112612e7785856004613516565b836040518363ffffffff1660e01b8152600401612e9592919061588f565b60006040518083038186803b158015612ead57600080fd5b505afa158015612ec1573d6000803e3d6000fd5b5050505060005b8281101561158e57600060026000868685818110612ee857612ee861566b565b905060200201358152602001908152602001600020905060016005811115612f1257612f12614d1b565b8154600160a01b900460ff166005811115612f2f57612f2f614d1b565b14612fa25760405162461bcd60e51b815260206004820152603660248201527f496e76616c6964206578697374696e67207472616e736665722073746174757360448201527f206f72207472616e73666572206e6f7420666f756e64000000000000000000006064820152608401610cf9565b612fc6858584818110612fb757612fb761566b565b905060200201358260046143c8565b612fcf8161443c565b50600101612ec8565b6001546040517f9026dee80000000000000000000000000000000000000000000000000000000081523360048201526001600160a01b0390911690639026dee89060240160006040518083038186803b15801561303457600080fd5b505afa158015613048573d6000803e3d6000fd5b50506101085460ff161591506130a290505760405162461bcd60e51b815260206004820152601c60248201527f436f6e747261637420616c726561647920696e697469616c697a6564000000006044820152606401610cf9565b61010880547fffffffffffffffffffffff0000000000000000000000000000000000000000ff166101006001600160a01b0386160217905560005b8181101561158e5760008383838181106130f9576130f961566b565b905060200281019061310b919061569a565b8080601f01602080910402602001604051908101604052809392919081815260200183838082843760009201829052506040517fdf87ca70000000000000000000000000000000000000000000000000000000008152949550936001600160a01b038a16935063df87ca709250613187915085906004016151fe565b60206040518083038186803b15801561319f57600080fd5b505afa1580156131b3573d6000803e3d6000fd5b505050506040513d601f19601f820116820180604052508101906131d79190615b94565b9050806003836040516131ea9190615bb1565b908152604051908190036020019020805460ff929092167fffffffffffffffffffffffffffffffffffffffffffffffffffffffffffffff009092169190911790555081905061323881615bcd565b9150506130dd565b6001546040517f223633830000000000000000000000000000000000000000000000000000000081523360048201526001600160a01b039091169063223633839060240160006040518083038186803b15801561329c57600080fd5b505afa1580156132b0573d6000803e3d6000fd5b505050506132da60015460ff75010000000000000000000000000000000000000000009091041690565b156133275760405162461bcd60e51b815260206004820152601160248201527f467265657a61626c653a2066726f7a656e0000000000000000000000000000006044820152606401610cf9565b6101085460ff1661337a5760405162461bcd60e51b815260206004820152601860248201527f436f6e7472616374206e6f7420696e697469616c697a656400000000000000006044820152606401610cf9565b6001546001600160a01b031663f886811261339785856003613516565b836040518363ffffffff1660e01b81526004016133b592919061588f565b60006040518083038186803b1580156133cd57600080fd5b505afa1580156133e1573d6000803e3d6000fd5b5050505060005b8281101561158e576000600260008686858181106134085761340861566b565b90506020020135815260200190815260200160002090506002600581111561343257613432614d1b565b8154600160a01b900460ff16600581111561344f5761344f614d1b565b146134e95760405162461bcd60e51b8152602060048201526044602482018190527f496e76616c6964206578697374696e6720426974636f696e5472616e73666572908201527f20737461747573206f7220426974636f696e5472616e73666572206e6f74206660648201527f6f756e6400000000000000000000000000000000000000000000000000000000608482015260a401610cf9565b61350d8585848181106134fe576134fe61566b565b905060200201358260036143c8565b506001016133e8565b60003082858560405160200161352f9493929190615c06565b6040516020818303038152906040528051906020012090509392505050565b6001546040517f9026dee80000000000000000000000000000000000000000000000000000000081523360048201526001600160a01b0390911690639026dee89060240160006040518083038186803b1580156135aa57600080fd5b505afa1580156135be573d6000803e3d6000fd5b50505064ffffffffff82111590506136185760405162461bcd60e51b815260206004820152601260248201527f4d7573742066697420696e2075696e74343000000000000000000000000000006044820152606401610cf9565b61010580547fffffffffffffffffffffffffffffffffffffffffffffffffffffff00000000001664ffffffffff92909216919091179055565b6001546040517f9026dee80000000000000000000000000000000000000000000000000000000081523360048201526001600160a01b0390911690639026dee89060240160006040518083038186803b1580156136ad57600080fd5b505afa1580156136c1573d6000803e3d6000fd5b50505050611712816145d2565b6001546040517f9026dee80000000000000000000000000000000000000000000000000000000081523360048201526001600160a01b0390911690639026dee89060240160006040518083038186803b15801561372a57600080fd5b505afa15801561373e573d6000803e3d6000fd5b5050505061376860015460ff75010000000000000000000000000000000000000000009091041690565b6137b45760405162461bcd60e51b815260206004820152601560248201527f467265657a61626c653a206e6f742066726f7a656e00000000000000000000006044820152606401610cf9565b61010980547fffffffffffffffffffffffff0000000000000000000000000000000000000000166001600160a01b0385161790556137f561010a8383614b3b565b50826001600160a01b03167f032fe8b26b668b06953b42dba2091870d51e2754e0d6907dfca2e1d1c1a444c88383604051613831929190615ca7565b60405180910390a2505050565b8047101561388e5760405162461bcd60e51b815260206004820152601d60248201527f416464726573733a20696e73756666696369656e742062616c616e63650000006044820152606401610cf9565b6000826001600160a01b03168260405160006040518083038185875af1925050503d80600081146138db576040519150601f19603f3d011682016040523d82523d6000602084013e6138e0565b606091505b5050905080610efd5760405162461bcd60e51b815260206004820152603a60248201527f416464726573733a20756e61626c6520746f2073656e642076616c75652c207260448201527f6563697069656e74206d617920686176652072657665727465640000000000006064820152608401610cf9565b61010083106139a85760405162461bcd60e51b815260206004820152601d60248201527f546f6f206c61726765206665652073747275637475726520696e6465780000006044820152606401610cf9565b60058361010081106139bc576139bc61566b565b015463ffffffff161580156139f0575060058361010081106139e0576139e061566b565b0154640100000000900461ffff16155b613a3c5760405162461bcd60e51b815260206004820152601f60248201527f5468697320736c6f742068617320616c7265616479206265656e2075736564006044820152606401610cf9565b63ffffffff821115613a905760405162461bcd60e51b815260206004820152601860248201527f42617365206665652065786365656473206d6178696d756d00000000000000006044820152606401610cf9565b6127108110613ae15760405162461bcd60e51b815260206004820152601460248201527f44796e616d69632066656520746f6f20686967680000000000000000000000006044820152606401610cf9565b816005846101008110613af657613af661566b565b0180547fffffffffffffffffffffffffffffffffffffffffffffffffffffffff000000001663ffffffff92909216919091179055806005846101008110613b3f57613b3f61566b565b01805461ffff92909216640100000000027fffffffffffffffffffffffffffffffffffffffffffffffffffff0000ffffffff909216919091179055505050565b613b8883612c50565b613bd45760405162461bcd60e51b815260206004820152601360248201527f496e76616c6964204254432061646472657373000000000000000000000000006044820152606401610cf9565b6000600384604051613be69190615bb1565b9081526040519081900360200190205460ff16905060fe811115613c725760405162461bcd60e51b815260206004820152602e60248201527f4d6178696d756d206e756d626572206f66207472616e736665727320746f206160448201527f64647265737320726561636865640000000000000000000000000000000000006064820152608401610cf9565b613c816402540be40083615cbb565b15613cf45760405162461bcd60e51b815260206004820152603060248201527f5242544320616d6f756e74206d757374206265206576656e6c7920646976697360448201527f69626c6520746f205361746f73686973000000000000000000000000000000006064820152608401610cf9565b6000613d056402540be4008461579f565b6101055490915064ffffffffff16811015613d885760405162461bcd60e51b815260206004820152602960248201527f5242544320426974636f696e5472616e7366657220736d616c6c65722074686160448201527f6e206d696e696d756d00000000000000000000000000000000000000000000006064820152608401610cf9565b6101055465010000000000900464ffffffffff16811115613e115760405162461bcd60e51b815260206004820152602960248201527f5242544320426974636f696e5472616e7366657220677265617465722074686160448201527f6e206d6178696d756d00000000000000000000000000000000000000000000006064820152608401610cf9565b6000613e1c82612317565b90506000613e2d878560ff1661257e565b905060008082815260026020526040902054600160a01b900460ff166005811115613e5a57613e5a614d1b565b14613ea75760405162461bcd60e51b815260206004820152601760248201527f5472616e7366657220616c7265616479206578697374730000000000000000006044820152606401610cf9565b6040805160e0810182526001600160a01b0388811682526001602080840191825260ff89811685870152610105546a0100000000000000000000900416606085015263ffffffff4316608085015264ffffffffff881660a085015260c084018c905260008681526002909152939093208251815492167fffffffffffffffffffffffff00000000000000000000000000000000000000008316811782559351929390929183917fffffffffffffffffffffff00000000000000000000000000000000000000000090911617600160a01b836005811115613f8957613f89614d1b565b0217905550604082015181546060840151608085015160a086015164ffffffffff167b01000000000000000000000000000000000000000000000000000000027affffffffffffffffffffffffffffffffffffffffffffffffffffff63ffffffff90921677010000000000000000000000000000000000000000000000029190911676ffffffffffffffffffffffffffffffffffffffffffffff60ff938416760100000000000000000000000000000000000000000000027fffffffffffffffffff00ffffffffffffffffffffffffffffffffffffffffffff94909616750100000000000000000000000000000000000000000002939093167fffffffffffffffffff0000ffffffffffffffffffffffffffffffffffffffffff9094169390931793909317161717815560c082015180516140ce916001840191602090910190614ab7565b509050506003876040516140e29190615bb1565b908152604051908190036020019020805460ff1690600061410283615ccf565b91906101000a81548160ff021916908360ff1602179055505081836141279190615654565b9250856001600160a01b0316817fac0c761341f07a946b460e21f7f198c8f37ad0a5492c8b4aed422ef62d719b9a898787876040516141699493929190615cef565b60405180910390a350505050505050565b600154600160a01b900460ff166141d35760405162461bcd60e51b815260206004820152601460248201527f5061757361626c653a206e6f74207061757365640000000000000000000000006044820152606401610cf9565b600180547fffffffffffffffffffffff00ffffffffffffffffffffffffffffffffffffffff1690557f5db9ee0a495bf2e6ff9c91a7834c1ba4fdd244a5e8aa4e537bd38aeae4b073aa335b6040516001600160a01b0390911681526020015b60405180910390a1565b600154600160a01b900460ff16156142965760405162461bcd60e51b815260206004820152601060248201527f5061757361626c653a20706175736564000000000000000000000000000000006044820152606401610cf9565b600180547fffffffffffffffffffffff00ffffffffffffffffffffffffffffffffffffffff16600160a01b1790557f62e78cea01bee320cd4e420270b5ea74000d11b0c9f74754ebdbfc544b05a25861421e3390565b6001547501000000000000000000000000000000000000000000900460ff16156143585760405162461bcd60e51b815260206004820152601160248201527f467265657a61626c653a2066726f7a656e0000000000000000000000000000006044820152606401610cf9565b600180547fffffffffffffffffffff00ffffffffffffffffffffffffffffffffffffffffff1675010000000000000000000000000000000000000000001790556040513381527f8a5c4736a33c7b7f29a2c34ea9ff9608afc5718d56f6fd6dcbd2d3711a1a491390602001614232565b8154819083907fffffffffffffffffffffff00ffffffffffffffffffffffffffffffffffffffff16600160a01b83600581111561440757614407614d1b565b0217905550827fced1c918ef904e606283eaf6a2c279a4c822a98af7b0d7d606b5475797945b1a826040516138319190615d21565b8054600090614477906402540be400907b01000000000000000000000000000000000000000000000000000000900464ffffffffff166157b3565b8254909150610d2e906001600160a01b03168261383e565b6001547501000000000000000000000000000000000000000000900460ff166144fa5760405162461bcd60e51b815260206004820152601560248201527f467265657a61626c653a206e6f742066726f7a656e00000000000000000000006044820152606401610cf9565b600180547fffffffffffffffffffff00ffffffffffffffffffffffffffffffffffffffffff1690556040513381527f4feb53e305297ab8fb8f3420c95ea04737addc254a7270d8fc4605d2b9c61dba90602001614232565b604080516001600160a01b038416602482015260448082018490528251808303909101815260649091019091526020810180517bffffffffffffffffffffffffffffffffffffffffffffffffffffffff167fa9059cbb00000000000000000000000000000000000000000000000000000000179052610efd908490614809565b61010081106146235760405162461bcd60e51b815260206004820152601b60248201527f4665652073747275637475726520696e64657820696e76616c696400000000006044820152606401610cf9565b600060058261010081106146395761463961566b565b015463ffffffff16118061466e57506000600582610100811061465e5761465e61566b565b0154640100000000900461ffff16115b6146ba5760405162461bcd60e51b815260206004820152601960248201527f4665652073747275637475726520656e74727920756e736574000000000000006044820152606401610cf9565b61010580547fffffffffffffffffffffffffffffffffffffffffff00ffffffffffffffffffff166a010000000000000000000060ff84160217905560058161010081106147095761470961566b565b015461010580547fffffffffffffffffffffffffffffff00000000ffffffffffffffffffffffffff1663ffffffff9092166d01000000000000000000000000000291909117905560058161010081106147645761476461566b565b015461010580547fffffffffffffffffffffffffffffffffffffff0000ffffffffffffffffffffff1664010000000090920461ffff9081166b0100000000000000000000009081029390931791829055604080516d0100000000000000000000000000840463ffffffff168152939092041660208301527f90cef8a8e64b7df734218d640fdf22056207aac8c22ca3352946b8c770a91104910160405180910390a150565b600061485e826040518060400160405280602081526020017f5361666545524332303a206c6f772d6c6576656c2063616c6c206661696c6564815250856001600160a01b03166148ee9092919063ffffffff16565b805190915015610efd578080602001905181019061487c9190615b38565b610efd5760405162461bcd60e51b815260206004820152602a60248201527f5361666545524332303a204552433230206f7065726174696f6e20646964206e60448201527f6f742073756363656564000000000000000000000000000000000000000000006064820152608401610cf9565b60606148fd8484600085614905565b949350505050565b60608247101561497d5760405162461bcd60e51b815260206004820152602660248201527f416464726573733a20696e73756666696369656e742062616c616e636520666f60448201527f722063616c6c00000000000000000000000000000000000000000000000000006064820152608401610cf9565b843b6149cb5760405162461bcd60e51b815260206004820152601d60248201527f416464726573733a2063616c6c20746f206e6f6e2d636f6e74726163740000006044820152606401610cf9565b600080866001600160a01b031685876040516149e79190615bb1565b60006040518083038185875af1925050503d8060008114614a24576040519150601f19603f3d011682016040523d82523d6000602084013e614a29565b606091505b5091509150614a39828286614a44565b979650505050505050565b60608315614a53575081611742565b825115614a635782518084602001fd5b8160405162461bcd60e51b8152600401610cf991906151fe565b508054614a899061571c565b6000825580601f10614a99575050565b601f0160209004906000526020600020908101906117129190614bcd565b828054614ac39061571c565b90600052602060002090601f016020900481019282614ae55760008555614b2b565b82601f10614afe57805160ff1916838001178555614b2b565b82800160010185558215614b2b579182015b82811115614b2b578251825591602001919060010190614b10565b50614b37929150614bcd565b5090565b828054614b479061571c565b90600052602060002090601f016020900481019282614b695760008555614b2b565b82601f10614ba0578280017fffffffffffffffffffffffffffffffffffffffffffffffffffffffffffffff00823516178555614b2b565b82800160010185558215614b2b579182015b82811115614b2b578235825591602001919060010190614bb2565b5b80821115614b375760008155600101614bce565b6001600160a01b038116811461171257600080fd5b60008060408385031215614c0a57600080fd5b823591506020830135614c1c81614be2565b809150509250929050565b600060208284031215614c3957600080fd5b5035919050565b600080600060608486031215614c5557600080fd5b505081359360208301359350604090920135919050565b60008083601f840112614c7e57600080fd5b50813567ffffffffffffffff811115614c9657600080fd5b602083019150836020828501011115614cae57600080fd5b9250929050565b60ff8116811461171257600080fd5b600080600060408486031215614cd957600080fd5b833567ffffffffffffffff811115614cf057600080fd5b614cfc86828701614c6c565b9094509250506020840135614d1081614cb5565b809150509250925092565b7f4e487b7100000000000000000000000000000000000000000000000000000000600052602160045260246000fd5b60068110614d81577f4e487b7100000000000000000000000000000000000000000000000000000000600052602160045260246000fd5b9052565b60005b83811015614da0578181015183820152602001614d88565b8381111561158e5750506000910152565b60008151808452614dc9816020860160208601614d85565b601f017fffffffffffffffffffffffffffffffffffffffffffffffffffffffffffffffe0169290920160200192915050565b6001600160a01b03815116825260006020820151614e1c6020850182614d4a565b5060ff604083015116604084015260ff606083015116606084015263ffffffff608083015116608084015264ffffffffff60a08301511660a084015260c082015160e060c08501526148fd60e0850182614db1565b6020815260006117426020830184614dfb565b60008083601f840112614e9657600080fd5b50813567ffffffffffffffff811115614eae57600080fd5b6020830191508360208260051b8501011115614cae57600080fd5b60008060008060408587031215614edf57600080fd5b843567ffffffffffffffff80821115614ef757600080fd5b614f0388838901614e84565b90965094506020870135915080821115614f1c57600080fd5b50614f2987828801614e84565b95989497509550505050565b6000602080830181845280855180835260408601915060408160051b870101925083870160005b82811015614fa8577fffffffffffffffffffffffffffffffffffffffffffffffffffffffffffffffc0888603018452614f96858351614dfb565b94509285019290850190600101614f5c565b5092979650505050505050565b6001600160a01b0388168152614fce6020820188614d4a565b60ff8616604082015260ff8516606082015263ffffffff8416608082015264ffffffffff831660a082015260e060c0820152600061500f60e0830184614db1565b9998505050505050505050565b6000806020838503121561502f57600080fd5b823567ffffffffffffffff81111561504657600080fd5b61505285828601614c6c565b90969095509350505050565b7f4e487b7100000000000000000000000000000000000000000000000000000000600052604160045260246000fd5b604051601f82017fffffffffffffffffffffffffffffffffffffffffffffffffffffffffffffffe016810167ffffffffffffffff811182821017156150d4576150d461505e565b604052919050565b600082601f8301126150ed57600080fd5b813567ffffffffffffffff8111156151075761510761505e565b61513860207fffffffffffffffffffffffffffffffffffffffffffffffffffffffffffffffe0601f8401160161508d565b81815284602083860101111561514d57600080fd5b816020850160208301376000918101602001919091529392505050565b6000806040838503121561517d57600080fd5b82359150602083013567ffffffffffffffff81111561519b57600080fd5b6151a7858286016150dc565b9150509250929050565b6020808252825182820181905260009190848201906040850190845b818110156151f25783516001600160a01b0316835292840192918401916001016151cd565b50909695505050505050565b6020815260006117426020830184614db1565b600067ffffffffffffffff82111561522b5761522b61505e565b5060051b60200190565b600082601f83011261524657600080fd5b8135602061525b61525683615211565b61508d565b82815260059290921b8401810191818101908684111561527a57600080fd5b8286015b848110156152ba57803567ffffffffffffffff81111561529e5760008081fd5b6152ac8986838b01016150dc565b84525091830191830161527e565b509695505050505050565b600080600080606085870312156152db57600080fd5b84359350602085013567ffffffffffffffff808211156152fa57600080fd5b61530688838901614e84565b9095509350604087013591508082111561531f57600080fd5b5061532c87828801615235565b91505092959194509250565b60006020828403121561534a57600080fd5b813561174281614be2565b6000806040838503121561536857600080fd5b823567ffffffffffffffff81111561537f57600080fd5b61538b858286016150dc565b95602094909401359450505050565b80356006811061197f57600080fd5b600080600080606085870312156153bf57600080fd5b84359350602085013567ffffffffffffffff8111156153dd57600080fd5b6153e987828801614e84565b90945092506153fc90506040860161539a565b905092959194509250565b60008060006040848603121561541c57600080fd5b833561542781614be2565b9250602084013567ffffffffffffffff81111561544357600080fd5b61544f86828701614c6c565b9497909650939450505050565b60008060006060848603121561547157600080fd5b833561547c81614be2565b9250602084013591506040840135614d1081614be2565b600080602083850312156154a657600080fd5b823567ffffffffffffffff8111156154bd57600080fd5b61505285828601614e84565b6000602082840312156154db57600080fd5b813567ffffffffffffffff8111156154f257600080fd5b6148fd848285016150dc565b6001600160a01b03831681526040602082015260006148fd6040830184614db1565b60008060006040848603121561553557600080fd5b833567ffffffffffffffff8082111561554d57600080fd5b61555987838801614e84565b9095509350602086013591508082111561557257600080fd5b5061557f86828701615235565b9150509250925092565b60008060006040848603121561559e57600080fd5b83356155a981614be2565b9250602084013567ffffffffffffffff8111156155c557600080fd5b61544f86828701614e84565b6000806000604084860312156155e657600080fd5b833567ffffffffffffffff8111156155fd57600080fd5b61560986828701614e84565b909450925061561c90506020850161539a565b90509250925092565b7f4e487b7100000000000000000000000000000000000000000000000000000000600052601160045260246000fd5b60008282101561566657615666615625565b500390565b7f4e487b7100000000000000000000000000000000000000000000000000000000600052603260045260246000fd5b60008083357fffffffffffffffffffffffffffffffffffffffffffffffffffffffffffffffe18436030181126156cf57600080fd5b83018035915067ffffffffffffffff8211156156ea57600080fd5b602001915036819003821315614cae57600080fd5b60006020828403121561571157600080fd5b813561174281614cb5565b600181811c9082168061573057607f821691505b6020821081141561576a577f4e487b7100000000000000000000000000000000000000000000000000000000600052602260045260246000fd5b50919050565b7f4e487b7100000000000000000000000000000000000000000000000000000000600052601260045260246000fd5b6000826157ae576157ae615770565b500490565b6000817fffffffffffffffffffffffffffffffffffffffffffffffffffffffffffffffff04831182151516156157eb576157eb615625565b500290565b6000602080838503121561580357600080fd5b825167ffffffffffffffff81111561581a57600080fd5b8301601f8101851361582b57600080fd5b805161583961525682615211565b81815260059190911b8201830190838101908783111561585857600080fd5b928401925b82841015614a3957835161587081614be2565b8252928401929084019061585d565b8183823760009101908152919050565b600060408201848352602060408185015281855180845260608601915060608160051b870101935082870160005b82811015615909577fffffffffffffffffffffffffffffffffffffffffffffffffffffffffffffffa08887030184526158f7868351614db1565b955092840192908401906001016158bd565b509398975050505050505050565b6000821982111561592a5761592a615625565b500190565b7f7472616e736665723a0000000000000000000000000000000000000000000000815260008351615967816009850160208801614d85565b7f3a000000000000000000000000000000000000000000000000000000000000006009939091019283015250600a810191909152602a01919050565b600681106159da577f4e487b7100000000000000000000000000000000000000000000000000000000600052602160045260246000fd5b60f81b9052565b60007f07ffffffffffffffffffffffffffffffffffffffffffffffffffffffffffffff831115615a1057600080fd5b8260051b8083863760009401938452509192915050565b7f6261746368557064617465576974685478486173683a0000000000000000000081527fffffffffffffffffffffffffffffffffffffffff0000000000000000000000008660601b16601682015260007f3a0000000000000000000000000000000000000000000000000000000000000080602a840152615aab602b8401886159a3565b80602c84015285602d84015280604d84015250614a39604e830184866159e1565b8183528181602085013750600060208284010152600060207fffffffffffffffffffffffffffffffffffffffffffffffffffffffffffffffe0601f840116840101905092915050565b6001600160a01b0384168152604060208201526000610f8d604083018486615acc565b600060208284031215615b4a57600080fd5b8151801515811461174257600080fd5b60008060408385031215615b6d57600080fd5b8235615b7881614be2565b9150602083013567ffffffffffffffff81111561519b57600080fd5b600060208284031215615ba657600080fd5b815161174281614cb5565b60008251615bc3818460208701614d85565b9190910192915050565b60007fffffffffffffffffffffffffffffffffffffffffffffffffffffffffffffffff821415615bff57615bff615625565b5060010190565b7f62617463685570646174653a000000000000000000000000000000000000000081527fffffffffffffffffffffffffffffffffffffffff0000000000000000000000008560601b16600c82015260007f3a00000000000000000000000000000000000000000000000000000000000000806020840152615c8a60218401876159a3565b6022830152615c9d6023830184866159e1565b9695505050505050565b6020815260006148fd602083018486615acc565b600082615cca57615cca615770565b500690565b600060ff821660ff811415615ce657615ce6615625565b60010192915050565b608081526000615d026080830187614db1565b60ff959095166020830152506040810192909252606090910152919050565b60208101611f3f8284614d4a56fea26469706673582212205e62535f1bc08c5e609c8d15907c8e6c03cc9f973a59cadfdc4658cb14b8cc8b64736f6c63430008090033",
    "linkReferences": {},
    "deployedLinkReferences": {}
}