{
    "_format": "hh-sol-artifact-1",
    "contractName": "FastBTCAccessControl",
    "sourceName": "contracts/FastBTCAccessControl.sol",
    "address": "0xed47F7b0f9a71AE667194ac186e4d1932CE7a099",
    "abi": [
        {
            "inputs": [],
            "stateMutability": "nonpayable",
            "type": "constructor"
        },
        {
            "anonymous": false,
            "inputs": [
                {
                    "indexed": true,
                    "internalType": "bytes32",
                    "name": "role",
                    "type": "bytes32"
                },
                {
                    "indexed": true,
                    "internalType": "bytes32",
                    "name": "previousAdminRole",
                    "type": "bytes32"
                },
                {
                    "indexed": true,
                    "internalType": "bytes32",
                    "name": "newAdminRole",
                    "type": "bytes32"
                }
            ],
            "name": "RoleAdminChanged",
            "type": "event"
        },
        {
            "anonymous": false,
            "inputs": [
                {
                    "indexed": true,
                    "internalType": "bytes32",
                    "name": "role",
                    "type": "bytes32"
                },
                {
                    "indexed": true,
                    "internalType": "address",
                    "name": "account",
                    "type": "address"
                },
                {
                    "indexed": true,
                    "internalType": "address",
                    "name": "sender",
                    "type": "address"
                }
            ],
            "name": "RoleGranted",
            "type": "event"
        },
        {
            "anonymous": false,
            "inputs": [
                {
                    "indexed": true,
                    "internalType": "bytes32",
                    "name": "role",
                    "type": "bytes32"
                },
                {
                    "indexed": true,
                    "internalType": "address",
                    "name": "account",
                    "type": "address"
                },
                {
                    "indexed": true,
                    "internalType": "address",
                    "name": "sender",
                    "type": "address"
                }
            ],
            "name": "RoleRevoked",
            "type": "event"
        },
        {
            "inputs": [],
            "name": "DEFAULT_ADMIN_ROLE",
            "outputs": [
                {
                    "internalType": "bytes32",
                    "name": "",
                    "type": "bytes32"
                }
            ],
            "stateMutability": "view",
            "type": "function"
        },
        {
            "inputs": [],
            "name": "ROLE_ADMIN",
            "outputs": [
                {
                    "internalType": "bytes32",
                    "name": "",
                    "type": "bytes32"
                }
            ],
            "stateMutability": "view",
            "type": "function"
        },
        {
            "inputs": [],
            "name": "ROLE_CONFIG_ADMIN",
            "outputs": [
                {
                    "internalType": "bytes32",
                    "name": "",
                    "type": "bytes32"
                }
            ],
            "stateMutability": "view",
            "type": "function"
        },
        {
            "inputs": [],
            "name": "ROLE_FEDERATOR",
            "outputs": [
                {
                    "internalType": "bytes32",
                    "name": "",
                    "type": "bytes32"
                }
            ],
            "stateMutability": "view",
            "type": "function"
        },
        {
            "inputs": [],
            "name": "ROLE_GUARD",
            "outputs": [
                {
                    "internalType": "bytes32",
                    "name": "",
                    "type": "bytes32"
                }
            ],
            "stateMutability": "view",
            "type": "function"
        },
        {
            "inputs": [],
            "name": "ROLE_PAUSER",
            "outputs": [
                {
                    "internalType": "bytes32",
                    "name": "",
                    "type": "bytes32"
                }
            ],
            "stateMutability": "view",
            "type": "function"
        },
        {
            "inputs": [
                {
                    "internalType": "address",
                    "name": "account",
                    "type": "address"
                }
            ],
            "name": "addConfigAdmin",
            "outputs": [],
            "stateMutability": "nonpayable",
            "type": "function"
        },
        {
            "inputs": [
                {
                    "internalType": "address",
                    "name": "account",
                    "type": "address"
                }
            ],
            "name": "addFederator",
            "outputs": [],
            "stateMutability": "nonpayable",
            "type": "function"
        },
        {
            "inputs": [
                {
                    "internalType": "address",
                    "name": "account",
                    "type": "address"
                }
            ],
            "name": "addGuard",
            "outputs": [],
            "stateMutability": "nonpayable",
            "type": "function"
        },
        {
            "inputs": [
                {
                    "internalType": "address",
                    "name": "account",
                    "type": "address"
                }
            ],
            "name": "addPauser",
            "outputs": [],
            "stateMutability": "nonpayable",
            "type": "function"
        },
        {
            "inputs": [
                {
                    "internalType": "address",
                    "name": "addressToCheck",
                    "type": "address"
                }
            ],
            "name": "checkAdmin",
            "outputs": [],
            "stateMutability": "view",
            "type": "function"
        },
        {
            "inputs": [
                {
                    "internalType": "address",
                    "name": "addressToCheck",
                    "type": "address"
                }
            ],
            "name": "checkConfigAdmin",
            "outputs": [],
            "stateMutability": "view",
            "type": "function"
        },
        {
            "inputs": [
                {
                    "internalType": "address",
                    "name": "addressToCheck",
                    "type": "address"
                }
            ],
            "name": "checkFederator",
            "outputs": [],
            "stateMutability": "view",
            "type": "function"
        },
        {
            "inputs": [
                {
                    "internalType": "bytes32",
                    "name": "_messageHash",
                    "type": "bytes32"
                },
                {
                    "internalType": "bytes[]",
                    "name": "_signatures",
                    "type": "bytes[]"
                }
            ],
            "name": "checkFederatorSignatures",
            "outputs": [],
            "stateMutability": "view",
            "type": "function"
        },
        {
            "inputs": [
                {
                    "internalType": "address",
                    "name": "addressToCheck",
                    "type": "address"
                }
            ],
            "name": "checkGuard",
            "outputs": [],
            "stateMutability": "view",
            "type": "function"
        },
        {
            "inputs": [
                {
                    "internalType": "address",
                    "name": "addressToCheck",
                    "type": "address"
                }
            ],
            "name": "checkPauser",
            "outputs": [],
            "stateMutability": "view",
            "type": "function"
        },
        {
            "inputs": [],
            "name": "federators",
            "outputs": [
                {
                    "internalType": "address[]",
                    "name": "addresses",
                    "type": "address[]"
                }
            ],
            "stateMutability": "view",
            "type": "function"
        },
        {
            "inputs": [
                {
                    "internalType": "bytes32",
                    "name": "role",
                    "type": "bytes32"
                }
            ],
            "name": "getRoleAdmin",
            "outputs": [
                {
                    "internalType": "bytes32",
                    "name": "",
                    "type": "bytes32"
                }
            ],
            "stateMutability": "view",
            "type": "function"
        },
        {
            "inputs": [
                {
                    "internalType": "bytes32",
                    "name": "role",
                    "type": "bytes32"
                },
                {
                    "internalType": "uint256",
                    "name": "index",
                    "type": "uint256"
                }
            ],
            "name": "getRoleMember",
            "outputs": [
                {
                    "internalType": "address",
                    "name": "",
                    "type": "address"
                }
            ],
            "stateMutability": "view",
            "type": "function"
        },
        {
            "inputs": [
                {
                    "internalType": "bytes32",
                    "name": "role",
                    "type": "bytes32"
                }
            ],
            "name": "getRoleMemberCount",
            "outputs": [
                {
                    "internalType": "uint256",
                    "name": "",
                    "type": "uint256"
                }
            ],
            "stateMutability": "view",
            "type": "function"
        },
        {
            "inputs": [
                {
                    "internalType": "bytes32",
                    "name": "role",
                    "type": "bytes32"
                },
                {
                    "internalType": "address",
                    "name": "account",
                    "type": "address"
                }
            ],
            "name": "grantRole",
            "outputs": [],
            "stateMutability": "nonpayable",
            "type": "function"
        },
        {
            "inputs": [
                {
                    "internalType": "bytes32",
                    "name": "role",
                    "type": "bytes32"
                },
                {
                    "internalType": "address",
                    "name": "account",
                    "type": "address"
                }
            ],
            "name": "hasRole",
            "outputs": [
                {
                    "internalType": "bool",
                    "name": "",
                    "type": "bool"
                }
            ],
            "stateMutability": "view",
            "type": "function"
        },
        {
            "inputs": [],
            "name": "numFederators",
            "outputs": [
                {
                    "internalType": "uint256",
                    "name": "",
                    "type": "uint256"
                }
            ],
            "stateMutability": "view",
            "type": "function"
        },
        {
            "inputs": [],
            "name": "numRequiredFederators",
            "outputs": [
                {
                    "internalType": "uint256",
                    "name": "",
                    "type": "uint256"
                }
            ],
            "stateMutability": "view",
            "type": "function"
        },
        {
            "inputs": [
                {
                    "internalType": "address",
                    "name": "account",
                    "type": "address"
                }
            ],
            "name": "removeConfigAdmin",
            "outputs": [],
            "stateMutability": "nonpayable",
            "type": "function"
        },
        {
            "inputs": [
                {
                    "internalType": "address",
                    "name": "account",
                    "type": "address"
                }
            ],
            "name": "removeFederator",
            "outputs": [],
            "stateMutability": "nonpayable",
            "type": "function"
        },
        {
            "inputs": [
                {
                    "internalType": "address",
                    "name": "account",
                    "type": "address"
                }
            ],
            "name": "removeGuard",
            "outputs": [],
            "stateMutability": "nonpayable",
            "type": "function"
        },
        {
            "inputs": [
                {
                    "internalType": "address",
                    "name": "account",
                    "type": "address"
                }
            ],
            "name": "removePauser",
            "outputs": [],
            "stateMutability": "nonpayable",
            "type": "function"
        },
        {
            "inputs": [
                {
                    "internalType": "bytes32",
                    "name": "role",
                    "type": "bytes32"
                },
                {
                    "internalType": "address",
                    "name": "account",
                    "type": "address"
                }
            ],
            "name": "renounceRole",
            "outputs": [],
            "stateMutability": "nonpayable",
            "type": "function"
        },
        {
            "inputs": [
                {
                    "internalType": "bytes32",
                    "name": "role",
                    "type": "bytes32"
                },
                {
                    "internalType": "address",
                    "name": "account",
                    "type": "address"
                }
            ],
            "name": "revokeRole",
            "outputs": [],
            "stateMutability": "nonpayable",
            "type": "function"
        },
        {
            "inputs": [
                {
                    "internalType": "bytes4",
                    "name": "interfaceId",
                    "type": "bytes4"
                }
            ],
            "name": "supportsInterface",
            "outputs": [
                {
                    "internalType": "bool",
                    "name": "",
                    "type": "bool"
                }
            ],
            "stateMutability": "view",
            "type": "function"
        }
    ],
    "bytecode": "0x60806040523480156200001157600080fd5b506200001f60003362000025565b6200018a565b6200003c82826200006860201b62000d7b1760201c565b60008281526001602090815260409091206200006391839062000d8562000078821b17901c565b505050565b62000074828262000098565b5050565b60006200008f836001600160a01b03841662000138565b90505b92915050565b6000828152602081815260408083206001600160a01b038516845290915290205460ff1662000074576000828152602081815260408083206001600160a01b03851684529091529020805460ff19166001179055620000f43390565b6001600160a01b0316816001600160a01b0316837f2f8788117e7eff1d82e926ec794901d17c78024a50270940304540a733656f0d60405160405180910390a45050565b6000818152600183016020526040812054620001815750815460018181018455600084815260208082209093018490558454848252828601909352604090209190915562000092565b50600062000092565b612016806200019a6000396000f3fe608060405234801561001057600080fd5b50600436106101e55760003560e01c80637fecd0601161010f578063b6235016116100a2578063d547741f11610071578063d547741f14610480578063e3408da114610493578063e89982f7146104ba578063f8868112146104cd57600080fd5b8063b623501614610447578063c452d0261461045a578063ca15c8731461046d578063d391014b1461041857600080fd5b806391d14854116100de57806391d14854146103c15780639cd1ae8214610405578063a217fddf14610418578063b047eb021461042057600080fd5b80637fecd0601461033c57806382dc1ec4146103635780639010d07c146103765780639026dee8146103ae57600080fd5b80633fc60e0d116101875780636913a63c116101565780636913a63c146102dc57806369259ad5146102ef57806369e0ab59146103025780636b2c0f551461032957600080fd5b80633fc60e0d146102995780634afb7bf8146102ac57806351703fac146102bf57806359d5d569146102d457600080fd5b806322363383116101c3578063223633831461023d578063248a9ca3146102505780632f2ff15d1461027357806336568abe1461028657600080fd5b806301ffc9a7146101ea5780631b13bea81461021257806320af5acc14610227575b600080fd5b6101fd6101f8366004611a06565b6104e0565b60405190151581526020015b60405180910390f35b610225610220366004611a71565b61053c565b005b61022f6105b5565b604051908152602001610209565b61022561024b366004611a71565b6105fc565b61022f61025e366004611a8c565b60009081526020819052604090206001015490565b610225610281366004611aa5565b610626565b610225610294366004611aa5565b6106dc565b6102256102a7366004611a71565b610703565b6102256102ba366004611a71565b61072d565b6102c7610757565b6040516102099190611ad1565b61022f61082d565b6102256102ea366004611a71565b610858565b6102256102fd366004611a71565b610882565b61022f7f25bca7788d8c23352e368ccd4774eb5b5fc3d40422de2c14e98631ab71f3341581565b610225610337366004611a71565b6108ac565b61022f7f8af5290a3bc9fb001a334db3080e05f29cbed54f3cf6e308d2db8704d95c414781565b610225610371366004611a71565b6108d6565b610389610384366004611b2b565b610900565b60405173ffffffffffffffffffffffffffffffffffffffff9091168152602001610209565b6102256103bc366004611a71565b61091f565b6101fd6103cf366004611aa5565b60009182526020828152604080842073ffffffffffffffffffffffffffffffffffffffff93909316845291905290205460ff1690565b610225610413366004611a71565b61092a565b61022f600081565b61022f7f539440820030c4994db4e31b6b800deafd503688728f932addfe7a410515c14c81565b610225610455366004611a71565b6109a0565b610225610468366004611a71565b6109ca565b61022f61047b366004611a8c565b6109f4565b61022561048e366004611aa5565b610a0b565b61022f7fd60d8c24d353e0fb03320bff8dd86901186b3566397d831f2dff247991b53f1881565b6102256104c8366004611a71565b610a15565b6102256104db366004611bcb565b610a8b565b60007fffffffff0000000000000000000000000000000000000000000000000000000082167f5a05180f000000000000000000000000000000000000000000000000000000001480610536575061053682610da7565b92915050565b73ffffffffffffffffffffffffffffffffffffffff811660009081527fad3228b676f7d3cd4284a5443f17f1962b36e491b30a40b2405849e597ba5fb5602052604090205460ff166105b2576105b27f539440820030c4994db4e31b6b800deafd503688728f932addfe7a410515c14c82610e3e565b50565b600060026105e27fd60d8c24d353e0fb03320bff8dd86901186b3566397d831f2dff247991b53f186109f4565b6105ec9190611d3c565b6105f7906001611d77565b905090565b6105b27fd60d8c24d353e0fb03320bff8dd86901186b3566397d831f2dff247991b53f1882610e3e565b73ffffffffffffffffffffffffffffffffffffffff81166106ce576040517f08c379a000000000000000000000000000000000000000000000000000000000815260206004820152602160248201527f43616e6e6f74206772616e7420726f6c6520746f207a65726f2061646472657360448201527f730000000000000000000000000000000000000000000000000000000000000060648201526084015b60405180910390fd5b6106d88282610f0e565b5050565b6106e68282610f30565b60008281526001602052604090206106fe9082610fdf565b505050565b6105b27fd60d8c24d353e0fb03320bff8dd86901186b3566397d831f2dff247991b53f1882610a0b565b6105b27f8af5290a3bc9fb001a334db3080e05f29cbed54f3cf6e308d2db8704d95c414782610a0b565b6060600061076361082d565b90508067ffffffffffffffff81111561077e5761077e611b4d565b6040519080825280602002602001820160405280156107a7578160200160208202803683370190505b50915060005b81811015610828576107df7fd60d8c24d353e0fb03320bff8dd86901186b3566397d831f2dff247991b53f1882610900565b8382815181106107f1576107f1611d8f565b73ffffffffffffffffffffffffffffffffffffffff909216602092830291909101909101528061082081611dbe565b9150506107ad565b505090565b60006105f77fd60d8c24d353e0fb03320bff8dd86901186b3566397d831f2dff247991b53f186109f4565b6105b27f25bca7788d8c23352e368ccd4774eb5b5fc3d40422de2c14e98631ab71f3341582610626565b6105b27f8af5290a3bc9fb001a334db3080e05f29cbed54f3cf6e308d2db8704d95c414782610626565b6105b27f539440820030c4994db4e31b6b800deafd503688728f932addfe7a410515c14c82610a0b565b6105b27f539440820030c4994db4e31b6b800deafd503688728f932addfe7a410515c14c82610626565b60008281526001602052604081206109189083611001565b9392505050565b6105b2600082610e3e565b73ffffffffffffffffffffffffffffffffffffffff811660009081527fad3228b676f7d3cd4284a5443f17f1962b36e491b30a40b2405849e597ba5fb5602052604090205460ff166105b2576105b27f25bca7788d8c23352e368ccd4774eb5b5fc3d40422de2c14e98631ab71f3341582610e3e565b6105b27f25bca7788d8c23352e368ccd4774eb5b5fc3d40422de2c14e98631ab71f3341582610a0b565b6105b27fd60d8c24d353e0fb03320bff8dd86901186b3566397d831f2dff247991b53f1882610626565b60008181526001602052604081206105369061100d565b6106e68282611017565b73ffffffffffffffffffffffffffffffffffffffff811660009081527fad3228b676f7d3cd4284a5443f17f1962b36e491b30a40b2405849e597ba5fb5602052604090205460ff166105b2576105b27f8af5290a3bc9fb001a334db3080e05f29cbed54f3cf6e308d2db8704d95c414782610e3e565b610ae2826040517f19457468657265756d205369676e6564204d6573736167653a0a3332000000006020820152603c8101829052600090605c01604051602081830303815290604052805190602001209050919050565b91506000610aee6105b5565b90508082511015610b5b576040517f08c379a000000000000000000000000000000000000000000000000000000000815260206004820152601560248201527f4e6f7420656e6f756768207369676e617475726573000000000000000000000060448201526064016106c5565b6000825167ffffffffffffffff811115610b7757610b77611b4d565b604051908082528060200260200182016040528015610ba0578160200160208202803683370190505b50905060005b8351811015610d74576000610bd486868481518110610bc757610bc7611d8f565b602002602001015161103d565b905073ffffffffffffffffffffffffffffffffffffffff8116610c53576040517f08c379a000000000000000000000000000000000000000000000000000000000815260206004820152600e60248201527f7265636f766572206661696c656400000000000000000000000000000000000060448201526064016106c5565b610c5c816105fc565b60005b82811015610d28578173ffffffffffffffffffffffffffffffffffffffff16848281518110610c9057610c90611d8f565b602002602001015173ffffffffffffffffffffffffffffffffffffffff161415610d16576040517f08c379a000000000000000000000000000000000000000000000000000000000815260206004820152601b60248201527f616c7265616479207369676e656420627920666564657261746f72000000000060448201526064016106c5565b80610d2081611dbe565b915050610c5f565b5080838381518110610d3c57610d3c611d8f565b73ffffffffffffffffffffffffffffffffffffffff909216602092830291909101909101525080610d6c81611dbe565b915050610ba6565b5050505050565b6106d88282611061565b60006109188373ffffffffffffffffffffffffffffffffffffffff8416611151565b60007fffffffff0000000000000000000000000000000000000000000000000000000082167f7965db0b00000000000000000000000000000000000000000000000000000000148061053657507f01ffc9a7000000000000000000000000000000000000000000000000000000007fffffffff00000000000000000000000000000000000000000000000000000000831614610536565b60008281526020818152604080832073ffffffffffffffffffffffffffffffffffffffff8516845290915290205460ff166106d857610e948173ffffffffffffffffffffffffffffffffffffffff1660146111a0565b610e9f8360206111a0565b604051602001610eb0929190611e27565b604080517fffffffffffffffffffffffffffffffffffffffffffffffffffffffffffffffe0818403018152908290527f08c379a00000000000000000000000000000000000000000000000000000000082526106c591600401611ea8565b610f1882826113e3565b60008281526001602052604090206106fe9082610d85565b73ffffffffffffffffffffffffffffffffffffffff81163314610fd5576040517f08c379a000000000000000000000000000000000000000000000000000000000815260206004820152602f60248201527f416363657373436f6e74726f6c3a2063616e206f6e6c792072656e6f756e636560448201527f20726f6c657320666f722073656c66000000000000000000000000000000000060648201526084016106c5565b6106d88282611409565b60006109188373ffffffffffffffffffffffffffffffffffffffff84166114c0565b600061091883836115b3565b6000610536825490565b6000828152602081905260409020600101546110338133610e3e565b6106fe8383611409565b600080600061104c85856115dd565b915091506110598161164d565b509392505050565b60008281526020818152604080832073ffffffffffffffffffffffffffffffffffffffff8516845290915290205460ff166106d85760008281526020818152604080832073ffffffffffffffffffffffffffffffffffffffff85168452909152902080547fffffffffffffffffffffffffffffffffffffffffffffffffffffffffffffff001660011790556110f33390565b73ffffffffffffffffffffffffffffffffffffffff168173ffffffffffffffffffffffffffffffffffffffff16837f2f8788117e7eff1d82e926ec794901d17c78024a50270940304540a733656f0d60405160405180910390a45050565b600081815260018301602052604081205461119857508154600181810184556000848152602080822090930184905584548482528286019093526040902091909155610536565b506000610536565b606060006111af836002611ef9565b6111ba906002611d77565b67ffffffffffffffff8111156111d2576111d2611b4d565b6040519080825280601f01601f1916602001820160405280156111fc576020820181803683370190505b5090507f30000000000000000000000000000000000000000000000000000000000000008160008151811061123357611233611d8f565b60200101907effffffffffffffffffffffffffffffffffffffffffffffffffffffffffffff1916908160001a9053507f78000000000000000000000000000000000000000000000000000000000000008160018151811061129657611296611d8f565b60200101907effffffffffffffffffffffffffffffffffffffffffffffffffffffffffffff1916908160001a90535060006112d2846002611ef9565b6112dd906001611d77565b90505b600181111561137a577f303132333435363738396162636465660000000000000000000000000000000085600f166010811061131e5761131e611d8f565b1a60f81b82828151811061133457611334611d8f565b60200101907effffffffffffffffffffffffffffffffffffffffffffffffffffffffffffff1916908160001a90535060049490941c9361137381611f36565b90506112e0565b508315610918576040517f08c379a000000000000000000000000000000000000000000000000000000000815260206004820181905260248201527f537472696e67733a20686578206c656e67746820696e73756666696369656e7460448201526064016106c5565b6000828152602081905260409020600101546113ff8133610e3e565b6106fe8383611061565b60008281526020818152604080832073ffffffffffffffffffffffffffffffffffffffff8516845290915290205460ff16156106d85760008281526020818152604080832073ffffffffffffffffffffffffffffffffffffffff8516808552925280832080547fffffffffffffffffffffffffffffffffffffffffffffffffffffffffffffff0016905551339285917ff6391f5c32d9c69d2a47ea670b442974b53935d1edc7fd64eb21e047a839171b9190a45050565b600081815260018301602052604081205480156115a95760006114e4600183611f6b565b85549091506000906114f890600190611f6b565b905081811461155d57600086600001828154811061151857611518611d8f565b906000526020600020015490508087600001848154811061153b5761153b611d8f565b6000918252602080832090910192909255918252600188019052604090208390555b855486908061156e5761156e611f82565b600190038181906000526020600020016000905590558560010160008681526020019081526020016000206000905560019350505050610536565b6000915050610536565b60008260000182815481106115ca576115ca611d8f565b9060005260206000200154905092915050565b6000808251604114156116145760208301516040840151606085015160001a611608878285856118a6565b94509450505050611646565b82516040141561163e57602083015160408401516116338683836119be565b935093505050611646565b506000905060025b9250929050565b600081600481111561166157611661611fb1565b141561166a5750565b600181600481111561167e5761167e611fb1565b14156116e6576040517f08c379a000000000000000000000000000000000000000000000000000000000815260206004820152601860248201527f45434453413a20696e76616c6964207369676e6174757265000000000000000060448201526064016106c5565b60028160048111156116fa576116fa611fb1565b1415611762576040517f08c379a000000000000000000000000000000000000000000000000000000000815260206004820152601f60248201527f45434453413a20696e76616c6964207369676e6174757265206c656e6774680060448201526064016106c5565b600381600481111561177657611776611fb1565b1415611804576040517f08c379a000000000000000000000000000000000000000000000000000000000815260206004820152602260248201527f45434453413a20696e76616c6964207369676e6174757265202773272076616c60448201527f756500000000000000000000000000000000000000000000000000000000000060648201526084016106c5565b600481600481111561181857611818611fb1565b14156105b2576040517f08c379a000000000000000000000000000000000000000000000000000000000815260206004820152602260248201527f45434453413a20696e76616c6964207369676e6174757265202776272076616c60448201527f756500000000000000000000000000000000000000000000000000000000000060648201526084016106c5565b6000807f7fffffffffffffffffffffffffffffff5d576e7357a4501ddfe92f46681b20a08311156118dd57506000905060036119b5565b8460ff16601b141580156118f557508460ff16601c14155b1561190657506000905060046119b5565b6040805160008082526020820180845289905260ff881692820192909252606081018690526080810185905260019060a0016020604051602081039080840390855afa15801561195a573d6000803e3d6000fd5b50506040517fffffffffffffffffffffffffffffffffffffffffffffffffffffffffffffffe0015191505073ffffffffffffffffffffffffffffffffffffffff81166119ae576000600192509250506119b5565b9150600090505b94509492505050565b6000807f7fffffffffffffffffffffffffffffffffffffffffffffffffffffffffffffff831660ff84901c601b016119f8878288856118a6565b935093505050935093915050565b600060208284031215611a1857600080fd5b81357fffffffff000000000000000000000000000000000000000000000000000000008116811461091857600080fd5b803573ffffffffffffffffffffffffffffffffffffffff81168114611a6c57600080fd5b919050565b600060208284031215611a8357600080fd5b61091882611a48565b600060208284031215611a9e57600080fd5b5035919050565b60008060408385031215611ab857600080fd5b82359150611ac860208401611a48565b90509250929050565b6020808252825182820181905260009190848201906040850190845b81811015611b1f57835173ffffffffffffffffffffffffffffffffffffffff1683529284019291840191600101611aed565b50909695505050505050565b60008060408385031215611b3e57600080fd5b50508035926020909101359150565b7f4e487b7100000000000000000000000000000000000000000000000000000000600052604160045260246000fd5b604051601f82017fffffffffffffffffffffffffffffffffffffffffffffffffffffffffffffffe016810167ffffffffffffffff81118282101715611bc357611bc3611b4d565b604052919050565b6000806040808486031215611bdf57600080fd5b8335925060208085013567ffffffffffffffff80821115611bff57600080fd5b8187019150601f8881840112611c1457600080fd5b823582811115611c2657611c26611b4d565b8060051b611c35868201611b7c565b918252848101860191868101908c841115611c4f57600080fd5b87870192505b83831015611cfa57823586811115611c6d5760008081fd5b8701603f81018e13611c7f5760008081fd5b8881013587811115611c9357611c93611b4d565b611cc28a7fffffffffffffffffffffffffffffffffffffffffffffffffffffffffffffffe08984011601611b7c565b8181528f8c838501011115611cd75760008081fd5b818c84018c83013760009181018b01919091528352509187019190870190611c55565b8099505050505050505050509250929050565b7f4e487b7100000000000000000000000000000000000000000000000000000000600052601160045260246000fd5b600082611d72577f4e487b7100000000000000000000000000000000000000000000000000000000600052601260045260246000fd5b500490565b60008219821115611d8a57611d8a611d0d565b500190565b7f4e487b7100000000000000000000000000000000000000000000000000000000600052603260045260246000fd5b60007fffffffffffffffffffffffffffffffffffffffffffffffffffffffffffffffff821415611df057611df0611d0d565b5060010190565b60005b83811015611e12578181015183820152602001611dfa565b83811115611e21576000848401525b50505050565b7f416363657373436f6e74726f6c3a206163636f756e7420000000000000000000815260008351611e5f816017850160208801611df7565b7f206973206d697373696e6720726f6c65200000000000000000000000000000006017918401918201528351611e9c816028840160208801611df7565b01602801949350505050565b6020815260008251806020840152611ec7816040850160208701611df7565b601f017fffffffffffffffffffffffffffffffffffffffffffffffffffffffffffffffe0169190910160400192915050565b6000817fffffffffffffffffffffffffffffffffffffffffffffffffffffffffffffffff0483118215151615611f3157611f31611d0d565b500290565b600081611f4557611f45611d0d565b507fffffffffffffffffffffffffffffffffffffffffffffffffffffffffffffffff0190565b600082821015611f7d57611f7d611d0d565b500390565b7f4e487b7100000000000000000000000000000000000000000000000000000000600052603160045260246000fd5b7f4e487b7100000000000000000000000000000000000000000000000000000000600052602160045260246000fdfea26469706673582212202b3eaa55e65e8bd97ac834c5fcdd85fc0d75d7a1363d6f4b381872774147ed1f64736f6c63430008090033",
    "linkReferences": {},
    "deployedLinkReferences": {}
}