{
    "address": "0xd46C0225D1331B46700d64fF8c906709D15C9202",
    "abi": [
        {
            "anonymous": false,
            "inputs": [
                {
                    "indexed": true,
                    "internalType": "address",
                    "name": "_oldImplementation",
                    "type": "address"
                },
                {
                    "indexed": true,
                    "internalType": "address",
                    "name": "_newImplementation",
                    "type": "address"
                }
            ],
            "name": "ImplementationChanged",
            "type": "event"
        },
        {
            "anonymous": false,
            "inputs": [
                {
                    "indexed": true,
                    "internalType": "address",
                    "name": "previousOwner",
                    "type": "address"
                },
                {
                    "indexed": true,
                    "internalType": "address",
                    "name": "newOwner",
                    "type": "address"
                }
            ],
            "name": "OwnershipTransferred",
            "type": "event"
        },
        {
            "stateMutability": "payable",
            "type": "fallback"
        },
        {
            "inputs": [],
            "name": "getImplementation",
            "outputs": [
                {
                    "internalType": "address",
                    "name": "_implementation",
                    "type": "address"
                }
            ],
            "stateMutability": "view",
            "type": "function"
        },
        {
            "inputs": [],
            "name": "getOwner",
            "outputs": [
                {
                    "internalType": "address",
                    "name": "_owner",
                    "type": "address"
                }
            ],
            "stateMutability": "view",
            "type": "function"
        },
        {
            "inputs": [
                {
                    "internalType": "address",
                    "name": "_implementation",
                    "type": "address"
                }
            ],
            "name": "setImplementation",
            "outputs": [],
            "stateMutability": "nonpayable",
            "type": "function"
        },
        {
            "inputs": [
                {
                    "internalType": "address",
                    "name": "_owner",
                    "type": "address"
                }
            ],
            "name": "setOwner",
            "outputs": [],
            "stateMutability": "nonpayable",
            "type": "function"
        },
        {
            "stateMutability": "payable",
            "type": "receive"
        },
        {
            "inputs": [
                {
                    "internalType": "address",
                    "name": "_permit2",
                    "type": "address"
                }
            ],
            "stateMutability": "nonpayable",
            "type": "constructor"
        },
        {
            "anonymous": false,
            "inputs": [
                {
                    "indexed": false,
                    "internalType": "address",
                    "name": "_newActivePoolAddress",
                    "type": "address"
                }
            ],
            "name": "ActivePoolAddressChanged",
            "type": "event"
        },
        {
            "anonymous": false,
            "inputs": [
                {
                    "indexed": false,
                    "internalType": "address",
                    "name": "_newBorrowerOperationsAddress",
                    "type": "address"
                }
            ],
            "name": "BorrowerOperationsAddressChanged",
            "type": "event"
        },
        {
            "anonymous": false,
            "inputs": [
                {
                    "indexed": false,
                    "internalType": "address",
                    "name": "_newCommunityIssuanceAddress",
                    "type": "address"
                }
            ],
            "name": "CommunityIssuanceAddressChanged",
            "type": "event"
        },
        {
            "anonymous": false,
            "inputs": [
                {
                    "indexed": false,
                    "internalType": "address",
                    "name": "_newDefaultPoolAddress",
                    "type": "address"
                }
            ],
            "name": "DefaultPoolAddressChanged",
            "type": "event"
        },
        {
            "anonymous": false,
            "inputs": [
                {
                    "indexed": true,
                    "internalType": "address",
                    "name": "_depositor",
                    "type": "address"
                },
                {
                    "indexed": false,
                    "internalType": "uint256",
                    "name": "_P",
                    "type": "uint256"
                },
                {
                    "indexed": false,
                    "internalType": "uint256",
                    "name": "_S",
                    "type": "uint256"
                },
                {
                    "indexed": false,
                    "internalType": "uint256",
                    "name": "_G",
                    "type": "uint256"
                }
            ],
            "name": "DepositSnapshotUpdated",
            "type": "event"
        },
        {
            "anonymous": false,
            "inputs": [
                {
                    "indexed": true,
                    "internalType": "address",
                    "name": "_depositor",
                    "type": "address"
                },
                {
                    "indexed": false,
                    "internalType": "uint256",
                    "name": "_ETH",
                    "type": "uint256"
                },
                {
                    "indexed": false,
                    "internalType": "uint256",
                    "name": "_ZUSDLoss",
                    "type": "uint256"
                }
            ],
            "name": "ETHGainWithdrawn",
            "type": "event"
        },
        {
            "anonymous": false,
            "inputs": [
                {
                    "indexed": false,
                    "internalType": "uint128",
                    "name": "_currentEpoch",
                    "type": "uint128"
                }
            ],
            "name": "EpochUpdated",
            "type": "event"
        },
        {
            "anonymous": false,
            "inputs": [
                {
                    "indexed": false,
                    "internalType": "address",
                    "name": "_to",
                    "type": "address"
                },
                {
                    "indexed": false,
                    "internalType": "uint256",
                    "name": "_amount",
                    "type": "uint256"
                }
            ],
            "name": "EtherSent",
            "type": "event"
        },
        {
            "anonymous": false,
            "inputs": [
                {
                    "indexed": true,
                    "internalType": "address",
                    "name": "_frontEnd",
                    "type": "address"
                },
                {
                    "indexed": false,
                    "internalType": "uint256",
                    "name": "_kickbackRate",
                    "type": "uint256"
                }
            ],
            "name": "FrontEndRegistered",
            "type": "event"
        },
        {
            "anonymous": false,
            "inputs": [
                {
                    "indexed": true,
                    "internalType": "address",
                    "name": "_frontEnd",
                    "type": "address"
                },
                {
                    "indexed": false,
                    "internalType": "uint256",
                    "name": "_P",
                    "type": "uint256"
                },
                {
                    "indexed": false,
                    "internalType": "uint256",
                    "name": "_G",
                    "type": "uint256"
                }
            ],
            "name": "FrontEndSnapshotUpdated",
            "type": "event"
        },
        {
            "anonymous": false,
            "inputs": [
                {
                    "indexed": true,
                    "internalType": "address",
                    "name": "_frontEnd",
                    "type": "address"
                },
                {
                    "indexed": false,
                    "internalType": "uint256",
                    "name": "_newFrontEndStake",
                    "type": "uint256"
                },
                {
                    "indexed": false,
                    "internalType": "address",
                    "name": "_depositor",
                    "type": "address"
                }
            ],
            "name": "FrontEndStakeChanged",
            "type": "event"
        },
        {
            "anonymous": false,
            "inputs": [
                {
                    "indexed": true,
                    "internalType": "address",
                    "name": "_depositor",
                    "type": "address"
                },
                {
                    "indexed": true,
                    "internalType": "address",
                    "name": "_frontEnd",
                    "type": "address"
                }
            ],
            "name": "FrontEndTagSet",
            "type": "event"
        },
        {
            "anonymous": false,
            "inputs": [
                {
                    "indexed": false,
                    "internalType": "uint256",
                    "name": "_G",
                    "type": "uint256"
                },
                {
                    "indexed": false,
                    "internalType": "uint128",
                    "name": "_epoch",
                    "type": "uint128"
                },
                {
                    "indexed": false,
                    "internalType": "uint128",
                    "name": "_scale",
                    "type": "uint128"
                }
            ],
            "name": "G_Updated",
            "type": "event"
        },
        {
            "anonymous": false,
            "inputs": [
                {
                    "indexed": true,
                    "internalType": "address",
                    "name": "previousOwner",
                    "type": "address"
                },
                {
                    "indexed": true,
                    "internalType": "address",
                    "name": "newOwner",
                    "type": "address"
                }
            ],
            "name": "OwnershipTransferred",
            "type": "event"
        },
        {
            "anonymous": false,
            "inputs": [
                {
                    "indexed": false,
                    "internalType": "uint256",
                    "name": "_P",
                    "type": "uint256"
                }
            ],
            "name": "P_Updated",
            "type": "event"
        },
        {
            "anonymous": false,
            "inputs": [
                {
                    "indexed": false,
                    "internalType": "address",
                    "name": "_newPriceFeedAddress",
                    "type": "address"
                }
            ],
            "name": "PriceFeedAddressChanged",
            "type": "event"
        },
        {
            "anonymous": false,
            "inputs": [
                {
                    "indexed": true,
                    "internalType": "address",
                    "name": "_depositor",
                    "type": "address"
                },
                {
                    "indexed": false,
                    "internalType": "uint256",
                    "name": "_SOV",
                    "type": "uint256"
                }
            ],
            "name": "SOVPaidToDepositor",
            "type": "event"
        },
        {
            "anonymous": false,
            "inputs": [
                {
                    "indexed": true,
                    "internalType": "address",
                    "name": "_frontEnd",
                    "type": "address"
                },
                {
                    "indexed": false,
                    "internalType": "uint256",
                    "name": "_SOV",
                    "type": "uint256"
                }
            ],
            "name": "SOVPaidToFrontEnd",
            "type": "event"
        },
        {
            "anonymous": false,
            "inputs": [
                {
                    "indexed": false,
                    "internalType": "uint256",
                    "name": "_S",
                    "type": "uint256"
                },
                {
                    "indexed": false,
                    "internalType": "uint128",
                    "name": "_epoch",
                    "type": "uint128"
                },
                {
                    "indexed": false,
                    "internalType": "uint128",
                    "name": "_scale",
                    "type": "uint128"
                }
            ],
            "name": "S_Updated",
            "type": "event"
        },
        {
            "anonymous": false,
            "inputs": [
                {
                    "indexed": false,
                    "internalType": "uint128",
                    "name": "_currentScale",
                    "type": "uint128"
                }
            ],
            "name": "ScaleUpdated",
            "type": "event"
        },
        {
            "anonymous": false,
            "inputs": [
                {
                    "indexed": false,
                    "internalType": "address",
                    "name": "_newSortedTrovesAddress",
                    "type": "address"
                }
            ],
            "name": "SortedTrovesAddressChanged",
            "type": "event"
        },
        {
            "anonymous": false,
            "inputs": [
                {
                    "indexed": false,
                    "internalType": "uint256",
                    "name": "_newBalance",
                    "type": "uint256"
                }
            ],
            "name": "StabilityPoolETHBalanceUpdated",
            "type": "event"
        },
        {
            "anonymous": false,
            "inputs": [
                {
                    "indexed": false,
                    "internalType": "uint256",
                    "name": "_newBalance",
                    "type": "uint256"
                }
            ],
            "name": "StabilityPoolZUSDBalanceUpdated",
            "type": "event"
        },
        {
            "anonymous": false,
            "inputs": [
                {
                    "indexed": false,
                    "internalType": "address",
                    "name": "_newTroveManagerAddress",
                    "type": "address"
                }
            ],
            "name": "TroveManagerAddressChanged",
            "type": "event"
        },
        {
            "anonymous": false,
            "inputs": [
                {
                    "indexed": true,
                    "internalType": "address",
                    "name": "_depositor",
                    "type": "address"
                },
                {
                    "indexed": false,
                    "internalType": "uint256",
                    "name": "_newDeposit",
                    "type": "uint256"
                }
            ],
            "name": "UserDepositChanged",
            "type": "event"
        },
        {
            "anonymous": false,
            "inputs": [
                {
                    "indexed": false,
                    "internalType": "address",
                    "name": "_depositor",
                    "type": "address"
                },
                {
                    "indexed": false,
                    "internalType": "uint256",
                    "name": "_zusdAmountRequested",
                    "type": "uint256"
                },
                {
                    "indexed": false,
                    "internalType": "uint256",
                    "name": "_dllrAmountReceived",
                    "type": "uint256"
                }
            ],
            "name": "WithdrawFromSpAndConvertToDLLR",
            "type": "event"
        },
        {
            "anonymous": false,
            "inputs": [
                {
                    "indexed": false,
                    "internalType": "address",
                    "name": "_newZUSDTokenAddress",
                    "type": "address"
                }
            ],
            "name": "ZUSDTokenAddressChanged",
            "type": "event"
        },
        {
            "inputs": [],
            "name": "DECIMAL_PRECISION",
            "outputs": [
                {
                    "internalType": "uint256",
                    "name": "",
                    "type": "uint256"
                }
            ],
            "stateMutability": "view",
            "type": "function"
        },
        {
            "inputs": [],
            "name": "MIN_NET_DEBT",
            "outputs": [
                {
                    "internalType": "uint256",
                    "name": "",
                    "type": "uint256"
                }
            ],
            "stateMutability": "view",
            "type": "function"
        },
        {
            "inputs": [],
            "name": "NAME",
            "outputs": [
                {
                    "internalType": "string",
                    "name": "",
                    "type": "string"
                }
            ],
            "stateMutability": "view",
            "type": "function"
        },
        {
            "inputs": [],
            "name": "P",
            "outputs": [
                {
                    "internalType": "uint256",
                    "name": "",
                    "type": "uint256"
                }
            ],
            "stateMutability": "view",
            "type": "function"
        },
        {
            "inputs": [],
            "name": "SCALE_FACTOR",
            "outputs": [
                {
                    "internalType": "uint256",
                    "name": "",
                    "type": "uint256"
                }
            ],
            "stateMutability": "view",
            "type": "function"
        },
        {
            "inputs": [],
            "name": "ZUSD_GAS_COMPENSATION",
            "outputs": [
                {
                    "internalType": "uint256",
                    "name": "",
                    "type": "uint256"
                }
            ],
            "stateMutability": "view",
            "type": "function"
        },
        {
            "inputs": [],
            "name": "_100pct",
            "outputs": [
                {
                    "internalType": "uint256",
                    "name": "",
                    "type": "uint256"
                }
            ],
            "stateMutability": "view",
            "type": "function"
        },
        {
            "inputs": [],
            "name": "activePool",
            "outputs": [
                {
                    "internalType": "contract IActivePool",
                    "name": "",
                    "type": "address"
                }
            ],
            "stateMutability": "view",
            "type": "function"
        },
        {
            "inputs": [],
            "name": "borrowerOperations",
            "outputs": [
                {
                    "internalType": "contract IBorrowerOperations",
                    "name": "",
                    "type": "address"
                }
            ],
            "stateMutability": "view",
            "type": "function"
        },
        {
            "inputs": [],
            "name": "communityIssuance",
            "outputs": [
                {
                    "internalType": "contract ICommunityIssuance",
                    "name": "",
                    "type": "address"
                }
            ],
            "stateMutability": "view",
            "type": "function"
        },
        {
            "inputs": [],
            "name": "currentEpoch",
            "outputs": [
                {
                    "internalType": "uint128",
                    "name": "",
                    "type": "uint128"
                }
            ],
            "stateMutability": "view",
            "type": "function"
        },
        {
            "inputs": [],
            "name": "currentScale",
            "outputs": [
                {
                    "internalType": "uint128",
                    "name": "",
                    "type": "uint128"
                }
            ],
            "stateMutability": "view",
            "type": "function"
        },
        {
            "inputs": [],
            "name": "defaultPool",
            "outputs": [
                {
                    "internalType": "contract IDefaultPool",
                    "name": "",
                    "type": "address"
                }
            ],
            "stateMutability": "view",
            "type": "function"
        },
        {
            "inputs": [
                {
                    "internalType": "address",
                    "name": "",
                    "type": "address"
                }
            ],
            "name": "depositSnapshots",
            "outputs": [
                {
                    "internalType": "uint256",
                    "name": "S",
                    "type": "uint256"
                },
                {
                    "internalType": "uint256",
                    "name": "P",
                    "type": "uint256"
                },
                {
                    "internalType": "uint256",
                    "name": "G",
                    "type": "uint256"
                },
                {
                    "internalType": "uint128",
                    "name": "scale",
                    "type": "uint128"
                },
                {
                    "internalType": "uint128",
                    "name": "epoch",
                    "type": "uint128"
                }
            ],
            "stateMutability": "view",
            "type": "function"
        },
        {
            "inputs": [
                {
                    "internalType": "address",
                    "name": "",
                    "type": "address"
                }
            ],
            "name": "deposits",
            "outputs": [
                {
                    "internalType": "uint256",
                    "name": "initialValue",
                    "type": "uint256"
                },
                {
                    "internalType": "address",
                    "name": "frontEndTag",
                    "type": "address"
                }
            ],
            "stateMutability": "view",
            "type": "function"
        },
        {
            "inputs": [
                {
                    "internalType": "uint128",
                    "name": "",
                    "type": "uint128"
                },
                {
                    "internalType": "uint128",
                    "name": "",
                    "type": "uint128"
                }
            ],
            "name": "epochToScaleToG",
            "outputs": [
                {
                    "internalType": "uint256",
                    "name": "",
                    "type": "uint256"
                }
            ],
            "stateMutability": "view",
            "type": "function"
        },
        {
            "inputs": [
                {
                    "internalType": "uint128",
                    "name": "",
                    "type": "uint128"
                },
                {
                    "internalType": "uint128",
                    "name": "",
                    "type": "uint128"
                }
            ],
            "name": "epochToScaleToSum",
            "outputs": [
                {
                    "internalType": "uint256",
                    "name": "",
                    "type": "uint256"
                }
            ],
            "stateMutability": "view",
            "type": "function"
        },
        {
            "inputs": [
                {
                    "internalType": "address",
                    "name": "",
                    "type": "address"
                }
            ],
            "name": "frontEndSnapshots",
            "outputs": [
                {
                    "internalType": "uint256",
                    "name": "S",
                    "type": "uint256"
                },
                {
                    "internalType": "uint256",
                    "name": "P",
                    "type": "uint256"
                },
                {
                    "internalType": "uint256",
                    "name": "G",
                    "type": "uint256"
                },
                {
                    "internalType": "uint128",
                    "name": "scale",
                    "type": "uint128"
                },
                {
                    "internalType": "uint128",
                    "name": "epoch",
                    "type": "uint128"
                }
            ],
            "stateMutability": "view",
            "type": "function"
        },
        {
            "inputs": [
                {
                    "internalType": "address",
                    "name": "",
                    "type": "address"
                }
            ],
            "name": "frontEndStakes",
            "outputs": [
                {
                    "internalType": "uint256",
                    "name": "",
                    "type": "uint256"
                }
            ],
            "stateMutability": "view",
            "type": "function"
        },
        {
            "inputs": [
                {
                    "internalType": "address",
                    "name": "",
                    "type": "address"
                }
            ],
            "name": "frontEnds",
            "outputs": [
                {
                    "internalType": "uint256",
                    "name": "kickbackRate",
                    "type": "uint256"
                },
                {
                    "internalType": "bool",
                    "name": "registered",
                    "type": "bool"
                }
            ],
            "stateMutability": "view",
            "type": "function"
        },
        {
            "inputs": [
                {
                    "internalType": "address",
                    "name": "_frontEnd",
                    "type": "address"
                }
            ],
            "name": "getCompoundedFrontEndStake",
            "outputs": [
                {
                    "internalType": "uint256",
                    "name": "",
                    "type": "uint256"
                }
            ],
            "stateMutability": "view",
            "type": "function"
        },
        {
            "inputs": [
                {
                    "internalType": "address",
                    "name": "_depositor",
                    "type": "address"
                }
            ],
            "name": "getCompoundedZUSDDeposit",
            "outputs": [
                {
                    "internalType": "uint256",
                    "name": "",
                    "type": "uint256"
                }
            ],
            "stateMutability": "view",
            "type": "function"
        },
        {
            "inputs": [
                {
                    "internalType": "address",
                    "name": "_depositor",
                    "type": "address"
                }
            ],
            "name": "getDepositorETHGain",
            "outputs": [
                {
                    "internalType": "uint256",
                    "name": "",
                    "type": "uint256"
                }
            ],
            "stateMutability": "view",
            "type": "function"
        },
        {
            "inputs": [
                {
                    "internalType": "address",
                    "name": "_depositor",
                    "type": "address"
                }
            ],
            "name": "getDepositorSOVGain",
            "outputs": [
                {
                    "internalType": "uint256",
                    "name": "",
                    "type": "uint256"
                }
            ],
            "stateMutability": "view",
            "type": "function"
        },
        {
            "inputs": [],
            "name": "getETH",
            "outputs": [
                {
                    "internalType": "uint256",
                    "name": "",
                    "type": "uint256"
                }
            ],
            "stateMutability": "view",
            "type": "function"
        },
        {
            "inputs": [],
            "name": "getEntireSystemColl",
            "outputs": [
                {
                    "internalType": "uint256",
                    "name": "entireSystemColl",
                    "type": "uint256"
                }
            ],
            "stateMutability": "view",
            "type": "function"
        },
        {
            "inputs": [],
            "name": "getEntireSystemDebt",
            "outputs": [
                {
                    "internalType": "uint256",
                    "name": "entireSystemDebt",
                    "type": "uint256"
                }
            ],
            "stateMutability": "view",
            "type": "function"
        },
        {
            "inputs": [
                {
                    "internalType": "address",
                    "name": "_frontEnd",
                    "type": "address"
                }
            ],
            "name": "getFrontEndSOVGain",
            "outputs": [
                {
                    "internalType": "uint256",
                    "name": "",
                    "type": "uint256"
                }
            ],
            "stateMutability": "view",
            "type": "function"
        },
        {
            "inputs": [],
            "name": "getOwner",
            "outputs": [
                {
                    "internalType": "address",
                    "name": "_owner",
                    "type": "address"
                }
            ],
            "stateMutability": "view",
            "type": "function"
        },
        {
            "inputs": [],
            "name": "getTotalZUSDDeposits",
            "outputs": [
                {
                    "internalType": "uint256",
                    "name": "",
                    "type": "uint256"
                }
            ],
            "stateMutability": "view",
            "type": "function"
        },
        {
            "inputs": [],
            "name": "lastETHError_Offset",
            "outputs": [
                {
                    "internalType": "uint256",
                    "name": "",
                    "type": "uint256"
                }
            ],
            "stateMutability": "view",
            "type": "function"
        },
        {
            "inputs": [],
            "name": "lastSOVError",
            "outputs": [
                {
                    "internalType": "uint256",
                    "name": "",
                    "type": "uint256"
                }
            ],
            "stateMutability": "view",
            "type": "function"
        },
        {
            "inputs": [],
            "name": "lastZUSDLossError_Offset",
            "outputs": [
                {
                    "internalType": "uint256",
                    "name": "",
                    "type": "uint256"
                }
            ],
            "stateMutability": "view",
            "type": "function"
        },
        {
            "inputs": [],
            "name": "liquityBaseParams",
            "outputs": [
                {
                    "internalType": "contract ILiquityBaseParams",
                    "name": "",
                    "type": "address"
                }
            ],
            "stateMutability": "view",
            "type": "function"
        },
        {
            "inputs": [
                {
                    "internalType": "address",
                    "name": "owner",
                    "type": "address"
                }
            ],
            "name": "nonces",
            "outputs": [
                {
                    "internalType": "uint256",
                    "name": "",
                    "type": "uint256"
                }
            ],
            "stateMutability": "view",
            "type": "function"
        },
        {
            "inputs": [
                {
                    "internalType": "uint256",
                    "name": "_debtToOffset",
                    "type": "uint256"
                },
                {
                    "internalType": "uint256",
                    "name": "_collToAdd",
                    "type": "uint256"
                }
            ],
            "name": "offset",
            "outputs": [],
            "stateMutability": "nonpayable",
            "type": "function"
        },
        {
            "inputs": [],
            "name": "permit2",
            "outputs": [
                {
                    "internalType": "contract IPermit2",
                    "name": "",
                    "type": "address"
                }
            ],
            "stateMutability": "view",
            "type": "function"
        },
        {
            "inputs": [],
            "name": "priceFeed",
            "outputs": [
                {
                    "internalType": "contract IPriceFeed",
                    "name": "",
                    "type": "address"
                }
            ],
            "stateMutability": "view",
            "type": "function"
        },
        {
            "inputs": [
                {
                    "internalType": "uint256",
                    "name": "_amount",
                    "type": "uint256"
                },
                {
                    "internalType": "address",
                    "name": "_frontEndTag",
                    "type": "address"
                }
            ],
            "name": "provideToSP",
            "outputs": [],
            "stateMutability": "nonpayable",
            "type": "function"
        },
        {
            "inputs": [
                {
                    "internalType": "uint256",
                    "name": "_dllrAmount",
                    "type": "uint256"
                },
                {
                    "components": [
                        {
                            "internalType": "uint256",
                            "name": "deadline",
                            "type": "uint256"
                        },
                        {
                            "internalType": "uint8",
                            "name": "v",
                            "type": "uint8"
                        },
                        {
                            "internalType": "bytes32",
                            "name": "r",
                            "type": "bytes32"
                        },
                        {
                            "internalType": "bytes32",
                            "name": "s",
                            "type": "bytes32"
                        }
                    ],
                    "internalType": "struct IMassetManager.PermitParams",
                    "name": "_permitParams",
                    "type": "tuple"
                }
            ],
            "name": "provideToSpFromDLLR",
            "outputs": [],
            "stateMutability": "nonpayable",
            "type": "function"
        },
        {
            "inputs": [
                {
                    "internalType": "uint256",
                    "name": "_dllrAmount",
                    "type": "uint256"
                },
                {
                    "components": [
                        {
                            "components": [
                                {
                                    "internalType": "address",
                                    "name": "token",
                                    "type": "address"
                                },
                                {
                                    "internalType": "uint256",
                                    "name": "amount",
                                    "type": "uint256"
                                }
                            ],
                            "internalType": "struct ISignatureTransfer.TokenPermissions",
                            "name": "permitted",
                            "type": "tuple"
                        },
                        {
                            "internalType": "uint256",
                            "name": "nonce",
                            "type": "uint256"
                        },
                        {
                            "internalType": "uint256",
                            "name": "deadline",
                            "type": "uint256"
                        }
                    ],
                    "internalType": "struct ISignatureTransfer.PermitTransferFrom",
                    "name": "_permit",
                    "type": "tuple"
                },
                {
                    "internalType": "bytes",
                    "name": "_signature",
                    "type": "bytes"
                }
            ],
            "name": "provideToSpFromDllrWithPermit2",
            "outputs": [],
            "stateMutability": "nonpayable",
            "type": "function"
        },
        {
            "inputs": [
                {
                    "internalType": "uint256",
                    "name": "_kickbackRate",
                    "type": "uint256"
                }
            ],
            "name": "registerFrontEnd",
            "outputs": [],
            "stateMutability": "nonpayable",
            "type": "function"
        },
        {
            "inputs": [
                {
                    "internalType": "address",
                    "name": "_liquityBaseParamsAddress",
                    "type": "address"
                },
                {
                    "internalType": "address",
                    "name": "_borrowerOperationsAddress",
                    "type": "address"
                },
                {
                    "internalType": "address",
                    "name": "_troveManagerAddress",
                    "type": "address"
                },
                {
                    "internalType": "address",
                    "name": "_activePoolAddress",
                    "type": "address"
                },
                {
                    "internalType": "address",
                    "name": "_zusdTokenAddress",
                    "type": "address"
                },
                {
                    "internalType": "address",
                    "name": "_sortedTrovesAddress",
                    "type": "address"
                },
                {
                    "internalType": "address",
                    "name": "_priceFeedAddress",
                    "type": "address"
                },
                {
                    "internalType": "address",
                    "name": "_communityIssuanceAddress",
                    "type": "address"
                }
            ],
            "name": "setAddresses",
            "outputs": [],
            "stateMutability": "nonpayable",
            "type": "function"
        },
        {
            "inputs": [
                {
                    "internalType": "address",
                    "name": "_communityIssuanceAddress",
                    "type": "address"
                }
            ],
            "name": "setCommunityIssuanceAddress",
            "outputs": [],
            "stateMutability": "nonpayable",
            "type": "function"
        },
        {
            "inputs": [
                {
                    "internalType": "address",
                    "name": "_owner",
                    "type": "address"
                }
            ],
            "name": "setOwner",
            "outputs": [],
            "stateMutability": "nonpayable",
            "type": "function"
        },
        {
            "inputs": [],
            "name": "sortedTroves",
            "outputs": [
                {
                    "internalType": "contract ISortedTroves",
                    "name": "",
                    "type": "address"
                }
            ],
            "stateMutability": "view",
            "type": "function"
        },
        {
            "inputs": [],
            "name": "troveManager",
            "outputs": [
                {
                    "internalType": "contract ITroveManager",
                    "name": "",
                    "type": "address"
                }
            ],
            "stateMutability": "view",
            "type": "function"
        },
        {
            "inputs": [
                {
                    "internalType": "address",
                    "name": "_upperHint",
                    "type": "address"
                },
                {
                    "internalType": "address",
                    "name": "_lowerHint",
                    "type": "address"
                }
            ],
            "name": "withdrawETHGainToTrove",
            "outputs": [],
            "stateMutability": "nonpayable",
            "type": "function"
        },
        {
            "inputs": [
                {
                    "internalType": "uint256",
                    "name": "_amount",
                    "type": "uint256"
                }
            ],
            "name": "withdrawFromSP",
            "outputs": [],
            "stateMutability": "nonpayable",
            "type": "function"
        },
        {
            "inputs": [
                {
                    "internalType": "uint256",
                    "name": "_zusdAmountRequested",
                    "type": "uint256"
                }
            ],
            "name": "withdrawFromSpAndConvertToDLLR",
            "outputs": [],
            "stateMutability": "nonpayable",
            "type": "function"
        },
        {
            "inputs": [],
            "name": "zusdToken",
            "outputs": [
                {
                    "internalType": "contract IZUSDToken",
                    "name": "",
                    "type": "address"
                }
            ],
            "stateMutability": "view",
            "type": "function"
        },
        {
            "stateMutability": "payable",
            "type": "receive"
        }
    ],
    "transactionHash": "0x7e178e0de4f7ca6e9a8fec296e06a9962e87234202194e38066de3e9bb66f72c",
    "numDeployments": 3,
    "bytecode": "0x60a06040523480156200001157600080fd5b5060405162004c2b38038062004c2b833981016040819052620000349162000125565b8062000049336001600160e01b036200006016565b60601b6001600160601b03191660805250620001b4565b6001600160a01b038116620000925760405162461bcd60e51b8152600401620000899062000172565b60405180910390fd5b6001600160a01b038116620000af6001600160e01b036200010416565b6001600160a01b03167f8be0079c531659141344cd1fd0a4f28419497f9722a3daafe3b4186f6b6457e060405160405180910390a36000604051620000f49062000155565b6040519081900390209190915550565b600080604051620001159062000155565b6040519081900390205492915050565b60006020828403121562000137578081fd5b81516001600160a01b03811681146200014e578182fd5b9392505050565b7035b2bc9737bbb730b136329737bbb732b960791b815260110190565b60208082526022908201527f4f776e61626c653a3a7365744f776e65723a20696e76616c6964206164647265604082015261737360f01b606082015260800190565b60805160601c614a54620001d760003980610afb52806118e65250614a546000f3fe6080604052600436106102b85760003560e01c80637f7dde4a11610170578063b31ee965116100cc578063de13da3c11610085578063de13da3c146107b3578063df9cd84f146107d3578063e49d3667146107f3578063ec9f7d4614610813578063fc7e286d14610828578063fce6b73414610856578063fda0101a1461087657610303565b8063b31ee9651461071f578063bdaf37ea14610734578063c3a34a0e14610749578063ce4b5bbe14610769578063d733cfd01461077e578063d7fb04431461079e57610303565b806395fb16bb1161012957806395fb16bb1461067b5780639f07067014610690578063a20baee61461053c578063a3f4df7e146106a5578063a4e59ac8146106c7578063a7bfff97146106dc578063ae9187541461070a57610303565b80637f7dde4a146105e757806382e0a574146105fc57806386da08241461061c578063887105d31461063c578063893d20e8146106515780638b8fbd921461066657610303565b80633d83908a1161021f57806372fe25aa116101d857806372fe25aa1461053c578063741bef1a14610551578063759b303414610566578063766718081461057b57806377553ad41461059d578063795d26c3146105b25780637ecebe00146105c757610303565b80633d83908a1461049257806340ed1afd146104a7578063556be101146104c75780635d2de642146104e75780635f788d651461050757806370f1b5721461052757610303565b80632199b66f116102715780632199b66f146103dd57806328a0a04d146103fd5780632e54bf951461041d578063335525ad1461043d578063389e92a51461045d5780633cc742251461047d57610303565b80630fbfe38b1461030857806312261ee71461032a57806313af40351461035557806314f6c3be1461037557806316b9d3c5146103975780631bf43555146103c857610303565b36610303576102c5610896565b6009546102d8903463ffffffff6108cb16565b600981905560405160008051602061499f833981519152916102f9916148e4565b60405180910390a1005b600080fd5b34801561031457600080fd5b50610328610323366004613e26565b6108f9565b005b34801561033657600080fd5b5061033f610af9565b60405161034c9190613fe0565b60405180910390f35b34801561036157600080fd5b50610328610370366004613cba565b610b1d565b34801561038157600080fd5b5061038a610b61565b60405161034c91906148e4565b3480156103a357600080fd5b506103b76103b2366004613cba565b610b67565b60405161034c959493929190614933565b3480156103d457600080fd5b5061038a610ba2565b3480156103e957600080fd5b506103286103f8366004613cba565b610baf565b34801561040957600080fd5b5061038a610418366004613df2565b610c46565b34801561042957600080fd5b50610328610438366004613e26565b610c63565b34801561044957600080fd5b50610328610458366004613f66565b610c71565b34801561046957600080fd5b5061038a610478366004613cba565b610cd4565b34801561048957600080fd5b5061033f610d7c565b34801561049e57600080fd5b5061033f610d8b565b3480156104b357600080fd5b5061038a6104c2366004613cba565b610d9a565b3480156104d357600080fd5b506103286104e2366004613e26565b610e37565b3480156104f357600080fd5b5061038a610502366004613cba565b610eaf565b34801561051357600080fd5b50610328610522366004613e56565b610ec1565b34801561053357600080fd5b5061038a610ecb565b34801561054857600080fd5b5061038a610ed1565b34801561055d57600080fd5b5061033f610edd565b34801561057257600080fd5b5061038a610eec565b34801561058757600080fd5b50610590610ef9565b60405161034c91906148d0565b3480156105a957600080fd5b5061033f610f0f565b3480156105be57600080fd5b5061038a610f1e565b3480156105d357600080fd5b5061038a6105e2366004613cba565b61103d565b3480156105f357600080fd5b5061033f61105e565b34801561060857600080fd5b5061038a610617366004613df2565b61106d565b34801561062857600080fd5b506103b7610637366004613cba565b61108a565b34801561064857600080fd5b5061038a6110c5565b34801561065d57600080fd5b5061033f611194565b34801561067257600080fd5b5061038a6111b3565b34801561068757600080fd5b5061033f6111b9565b34801561069c57600080fd5b5061033f6111c8565b3480156106b157600080fd5b506106ba6111d7565b60405161034c91906140fd565b3480156106d357600080fd5b50610590611200565b3480156106e857600080fd5b506106fc6106f7366004613cba565b61120f565b60405161034c929190614904565b34801561071657600080fd5b5061033f61122b565b34801561072b57600080fd5b5061038a61123a565b34801561074057600080fd5b5061038a611240565b34801561075557600080fd5b50610328610764366004613e7a565b611246565b34801561077557600080fd5b5061038a6112ea565b34801561078a57600080fd5b50610328610799366004613d2a565b6112f2565b3480156107aa57600080fd5b5061038a611584565b3480156107bf57600080fd5b5061038a6107ce366004613cba565b61158a565b3480156107df57600080fd5b5061038a6107ee366004613cba565b61168e565b3480156107ff57600080fd5b5061038a61080e366004613cba565b61172b565b34801561081f57600080fd5b5061033f611828565b34801561083457600080fd5b50610848610843366004613cba565b611837565b60405161034c9291906148ed565b34801561086257600080fd5b50610328610871366004613eb0565b611859565b34801561088257600080fd5b50610328610891366004613cf2565b611923565b6000546001600160a01b031633146108c95760405162461bcd60e51b81526004016108c0906142f5565b60405180910390fd5b565b6000828201838110156108f05760405162461bcd60e51b81526004016108c090614205565b90505b92915050565b6000600460009054906101000a90046001600160a01b03166001600160a01b031663e9fc34616040518163ffffffff1660e01b815260040160206040518083038186803b15801561094957600080fd5b505afa15801561095d573d6000803e3d6000fd5b505050506040513d601f19601f820116820180604052508101906109819190613cd6565b9050600061098f8330611b69565b60065460405163095ea7b360e01b81529192506001600160a01b03169063095ea7b3906109c2908590859060040161407c565b602060405180830381600087803b1580156109dc57600080fd5b505af11580156109f0573d6000803e3d6000fd5b505050506040513d601f19601f82011682018060405250810190610a149190613dd2565b610a305760405162461bcd60e51b81526004016108c09061468c565b60065460405163438b1b4b60e01b81526001600160a01b038481169263438b1b4b92610a669290911690859033906004016140b6565b602060405180830381600087803b158015610a8057600080fd5b505af1158015610a94573d6000803e3d6000fd5b505050506040513d601f19601f82011682018060405250810190610ab89190613e3e565b507f2b0fbec1c4e7e30517f196a714775ffe72770d2348f5d586854bb3c0fdf41df8338483604051610aec93929190614095565b60405180910390a1505050565b7f000000000000000000000000000000000000000000000000000000000000000081565b610b25611194565b6001600160a01b0316336001600160a01b031614610b555760405162461bcd60e51b81526004016108c0906145ba565b610b5e81611d34565b50565b60095490565b600f602052600090815260409020805460018201546002830154600390930154919290916001600160801b0380821691600160801b90041685565b6809c2007651b250000081565b610bb7611194565b6001600160a01b0316336001600160a01b031614610be75760405162461bcd60e51b81526004016108c0906145ba565b610bf081611dbf565b600880546001600160a01b0319166001600160a01b0383161790556040517f3055265812fb8447b9ada4a5d804ec43bd528ec40e89c952bbc7b85dc5ac681190610c3b908390613fe0565b60405180910390a150565b601260209081526000928352604080842090915290825290205481565b610c6d8133611b69565b5050565b610c79611e04565b600a54801580610c87575082155b15610c925750610c6d565b600854610ca7906001600160a01b0316611e2e565b600080610cb5848685611ebb565b91509150610cc38282611fb4565b610ccd84866122b5565b5050505050565b6001600160a01b0381166000908152600b602052604081205480610cfc576000915050610d77565b610d04613bf9565b506001600160a01b0383166000908152600c60209081526040808320815160a08101835281548152600182015493810193909352600281015491830191909152600301546001600160801b038082166060840152600160801b90910416608082015290610d7183836123eb565b93505050505b919050565b6001546001600160a01b031681565b6005546001600160a01b031681565b6001600160a01b0381166000908152600b602052604081205480610dc2576000915050610d77565b610dca613bf9565b506001600160a01b0383166000908152600c60209081526040808320815160a08101835281548152600182015493810193909352600281015491830191909152600301546001600160801b038082166060840152600160801b90910416608082015290610d7183836124dc565b610e40336125d8565b610e4933612614565b610e528161264b565b336000818152600d6020526040908190208381556001908101805460ff19169091179055517f19bc932fb9e16a8b5a1e41be9f4c2de59d5ddd7567b8b81405f532ca00a9880e90610ea49084906148e4565b60405180910390a250565b600e6020526000908152604090205481565b610c6d8282612673565b60145481565b670de0b6b3a764000081565b6002546001600160a01b031681565b6801158e460913d0000081565b601154600160801b90046001600160801b031681565b6004546001600160a01b031681565b60008054604080516272c7d360e71b8152905183926001600160a01b031691633963e980916004808301926020929190829003018186803b158015610f6257600080fd5b505afa158015610f76573d6000803e3d6000fd5b505050506040513d601f19601f82011682018060405250810190610f9a9190613e3e565b90506000600160009054906101000a90046001600160a01b03166001600160a01b0316633963e9806040518163ffffffff1660e01b815260040160206040518083038186803b158015610fec57600080fd5b505afa158015611000573d6000803e3d6000fd5b505050506040513d601f19601f820116820180604052508101906110249190613e3e565b9050611036828263ffffffff6108cb16565b9250505090565b6001600160a01b03811660009081526017602052604081206108f390612816565b6000546001600160a01b031681565b601360209081526000928352604080842090915290825290205481565b600c602052600090815260409020805460018201546002830154600390930154919290916001600160801b0380821691600160801b90041685565b6000805460408051630a7b61df60e11b8152905183926001600160a01b0316916314f6c3be916004808301926020929190829003018186803b15801561110a57600080fd5b505afa15801561111e573d6000803e3d6000fd5b505050506040513d601f19601f820116820180604052508101906111429190613e3e565b90506000600160009054906101000a90046001600160a01b03166001600160a01b03166314f6c3be6040518163ffffffff1660e01b815260040160206040518083038186803b158015610fec57600080fd5b6000806040516111a390613fc3565b6040519081900390205492915050565b60105481565b6008546001600160a01b031681565b6003546001600160a01b031681565b6040518060400160405280600d81526020016c14dd18589a5b1a5d1e541bdbdb609a1b81525081565b6011546001600160801b031681565b600d602052600090815260409020805460019091015460ff1682565b6007546001600160a01b031681565b60165481565b600a5490565b600480546040805163e9fc346160e01b815290516000936112d8936001600160a01b03169263e9fc34619281830192602092829003018186803b15801561128c57600080fd5b505afa1580156112a0573d6000803e3d6000fd5b505050506040513d601f19601f820116820180604052508101906112c49190613cd6565b60065485906001600160a01b03168561281a565b90506112e5816000612673565b505050565b633b9aca0081565b6112fa611194565b6001600160a01b0316336001600160a01b03161461132a5760405162461bcd60e51b81526004016108c0906145ba565b61133388611dbf565b61133c87611dbf565b61134586611dbf565b61134e85611dbf565b61135784611dbf565b61136083611dbf565b61136982611dbf565b61137281611dbf565b670de0b6b3a7640000601055600380546001600160a01b03199081166001600160a01b038b8116919091179092556004805482168a8416179055600580548216898416179055600080548216888416179055600680548216878416179055600780548216868416179055600280548216858416179055600880549091169183169190911790556040517f3ca631ffcd2a9b5d9ae18543fc82f58eb4ca33af9e6ab01b7a8e95331e6ed98590611428908990613fe0565b60405180910390a17f143219c9e69b09e07e095fcc889b43d8f46ca892bba65f08dc3a0050869a56788660405161145f9190613fe0565b60405180910390a17f78f058b189175430c48dc02699e3a0031ea4ff781536dc2fab847de4babdd882856040516114969190613fe0565b60405180910390a17fcdf33850c44a1a874b5fefb51dae615ac6afebd581ef90d571f81b06541d8e9d846040516114cd9190613fe0565b60405180910390a17f65f4cf077bc01e4742eb5ad98326f6e95b63548ea24b17f8d5e823111fe78800836040516115049190613fe0565b60405180910390a17f8c537274438aa850a330284665d81a85dd38267d09e4050d416bfc94142db2648260405161153b9190613fe0565b60405180910390a17f3055265812fb8447b9ada4a5d804ec43bd528ec40e89c952bbc7b85dc5ac6811816040516115729190613fe0565b60405180910390a15050505050505050565b60155481565b6001600160a01b0381166000908152600e6020526040812054806115b2576000915050610d77565b6001600160a01b0383166000908152600d6020526040812054906115e4670de0b6b3a76400008363ffffffff612abf16565b90506115ee613bf9565b506001600160a01b0385166000908152600f60209081526040808320815160a08101835281548152600182015493810193909352600281015491830191909152600301546001600160801b038082166060840152600160801b90910416608082015290611683670de0b6b3a764000061167761166a8886612b01565b869063ffffffff612b8d16565b9063ffffffff612bc716565b979650505050505050565b6001600160a01b0381166000908152600e6020526040812054806116b6576000915050610d77565b6116be613bf9565b506001600160a01b0383166000908152600f60209081526040808320815160a08101835281548152600182015493810193909352600281015491830191909152600301546001600160801b038082166060840152600160801b90910416608082015290610d7183836124dc565b6001600160a01b0381166000908152600b602052604081205480611753576000915050610d77565b6001600160a01b038084166000908152600b6020526040812060010154909116908115611798576001600160a01b0382166000908152600d60205260409020546117a2565b670de0b6b3a76400005b90506117ac613bf9565b506001600160a01b0385166000908152600c60209081526040808320815160a08101835281548152600182015493810193909352600281015491830191909152600301546001600160801b038082166060840152600160801b90910416608082015290611683670de0b6b3a764000061167761166a8886612b01565b6006546001600160a01b031681565b600b60205260009081526040902080546001909101546001600160a01b031682565b600480546040805163e9fc346160e01b8152905160009361190c936001600160a01b03169263e9fc34619281830192602092829003018186803b15801561189f57600080fd5b505afa1580156118b3573d6000803e3d6000fd5b505050506040513d601f19601f820116820180604052508101906118d79190613cd6565b6006546001600160a01b0316867f00000000000000000000000000000000000000000000000000000000000000008787612c09565b905061191733612e56565b50610ccd816000612673565b336000908152600b602052604090205461193c81612e88565b61194533612ea8565b61194e33612f47565b6008546001600160a01b031661196381611e2e565b600061196e33610cd4565b9050600061197b33610d9a565b9050600061198f858363ffffffff612abf16565b336000818152600b60205260409020600101549192506001600160a01b03909116906119bd90869083612f74565b60006119c88261168e565b9050806119d583826130e9565b826001600160a01b03166000805160206149ff83398151915282336040516119fe9291906148ed565b60405180910390a2611a103386613231565b336001600160a01b03166000805160206149df8339815191528786604051611a399291906140d9565b60405180910390a2336001600160a01b03166000805160206149bf83398151915286604051611a6891906148e4565b60405180910390a2600954611a83908763ffffffff612abf16565b600981905560405160008051602061499f83398151915291611aa4916148e4565b60405180910390a17f6109e2559dfa766aaec7118351d48a523f0a4157f49c8d68749c8ac41318ad123387604051611add92919061407c565b60405180910390a1600460009054906101000a90046001600160a01b03166001600160a01b031663ea9638bf87338d8d6040518563ffffffff1660e01b8152600401611b2b93929190613ff4565b6000604051808303818588803b158015611b4457600080fd5b505af1158015611b58573d6000803e3d6000fd5b505050505050505050505050505050565b60006001600160a01b038216611b915760405162461bcd60e51b81526004016108c0906144d1565b8215611b9f57611b9f6133a6565b336000908152600b6020526040902054611bb881612e88565b6008546001600160a01b0316611bcd81611e2e565b6000611bd833610cd4565b90506000611be533610d9a565b90506000611bf388836135dd565b90506000611c07868463ffffffff612abf16565b336000818152600b60205260409020600101549192506001600160a01b0390911690611c3590879083612f74565b6000611c408261168e565b90506000611c54828663ffffffff612abf16565b9050611c6083826130e9565b826001600160a01b03166000805160206149ff8339815191528233604051611c899291906148ed565b60405180910390a2611c9b8b866135f3565b6000611cad878763ffffffff612abf16565b9050611cb93382613231565b336001600160a01b03166000805160206149bf83398151915282604051611ce091906148e4565b60405180910390a2336001600160a01b03166000805160206149df8339815191528987604051611d119291906140d9565b60405180910390a2611d23883361366c565b50939b9a5050505050505050505050565b6001600160a01b038116611d5a5760405162461bcd60e51b81526004016108c09061433c565b806001600160a01b0316611d6c611194565b6001600160a01b03167f8be0079c531659141344cd1fd0a4f28419497f9722a3daafe3b4186f6b6457e060405160405180910390a36000604051611daf90613fc3565b6040519081900390209190915550565b6001600160a01b038116611de55760405162461bcd60e51b81526004016108c09061437e565b803b80610c6d5760405162461bcd60e51b81526004016108c0906146e3565b6005546001600160a01b031633146108c95760405162461bcd60e51b81526004016108c090614406565b600a54604051636cbdcf4760e01b81526000916001600160a01b03841691636cbdcf4791611e5e916004016148e4565b602060405180830381600087803b158015611e7857600080fd5b505af1158015611e8c573d6000803e3d6000fd5b505050506040513d601f19601f82011682018060405250810190611eb09190613e3e565b9050610c6d8161379b565b6000806000611eed601554611ee1670de0b6b3a764000089612b8d90919063ffffffff16565b9063ffffffff6108cb16565b905083851115611ef957fe5b83851415611f16576000601655670de0b6b3a76400009150611f76565b601654600090611f4490611f3888670de0b6b3a764000063ffffffff612b8d16565b9063ffffffff612abf16565b9050611f5b6001611ee1838863ffffffff612bc716565b9250611f7181611f38858863ffffffff612b8d16565b601655505b611f86818563ffffffff612bc716565b9250611fa8611f9b848663ffffffff612b8d16565b829063ffffffff612abf16565b60155550935093915050565b6010546000670de0b6b3a7640000831115611fcb57fe5b6000611fe5670de0b6b3a76400008563ffffffff612abf16565b6011546001600160801b03600160801b8204811660008181526012602090815260408083209490951680835293905292832054939450909290916120298988612b8d565b9050600061203d838363ffffffff6108cb16565b6001600160801b038086166000908152601260209081526040808320938a168352929052819020829055519091507fe12e2cd2c9afa8069203ca07e7eff1edce4a075686d0736a8e7e0d593597b2079061209c90839087908990614914565b60405180910390a185612175576120c36001600160801b038516600163ffffffff6138ac16565b601180546001600160801b03908116600160801b938216840217918290556040517fb50f0f59e7cb5b421dc77581c3a9919e3806e076e5fa78a874c3f120cb7d874d936121149304909116906148d0565b60405180910390a1601180546001600160801b03191690556040517f1f9dfc70cd666adb18a39d60a797518f7b4febf4b6e24ef37d44f6e1e7219fbe9061215d906000906148d0565b60405180910390a1670de0b6b3a76400009650612262565b633b9aca00612196670de0b6b3a76400006116778b8a63ffffffff612b8d16565b1015612243576121cc670de0b6b3a7640000611677633b9aca006121c08c8b63ffffffff612b8d16565b9063ffffffff612b8d16565b96506121e86001600160801b038616600163ffffffff6138ac16565b601180546001600160801b0319166001600160801b0392831617908190556040517f1f9dfc70cd666adb18a39d60a797518f7b4febf4b6e24ef37d44f6e1e7219fbe926122369216906148d0565b60405180910390a1612262565b61225f670de0b6b3a76400006116778a8963ffffffff612b8d16565b96505b6000871161226c57fe5b60108790556040517fc1a9618cb59ebca77cbdbc2949f126823c407ff13edb285fd0262519a9c18e8c906122a19089906148e4565b60405180910390a150505050505050505050565b60005460405163121cbc4d60e11b81526001600160a01b03909116908190632439789a906122e79085906004016148e4565b600060405180830381600087803b15801561230157600080fd5b505af1158015612315573d6000803e3d6000fd5b50505050612322826138dd565b600654604051632770a7eb60e21b81526001600160a01b0390911690639dc29fac90612354903090869060040161407c565b600060405180830381600087803b15801561236e57600080fd5b505af1158015612382573d6000803e3d6000fd5b50506040516364a197f360e01b81526001600160a01b03841692506364a197f391506123b4903090879060040161407c565b600060405180830381600087803b1580156123ce57600080fd5b505af11580156123e2573d6000803e3d6000fd5b50505050505050565b6080810151606082015182516020808501516001600160801b03808616600090815260128452604080822092871682529190935282205491949392918590612439908463ffffffff612abf16565b6001600160801b0380871660009081526012602052604081209293509161249c91633b9aca0091908490612476908a16600163ffffffff6138ac16565b6001600160801b031681526020810191909152604001600020549063ffffffff612bc716565b905060006124ce670de0b6b3a764000061167786816124c1888863ffffffff6108cb16565b8f9063ffffffff612b8d16565b9a9950505050505050505050565b6020810151606082015160808301516011546000939291906001600160801b03600160801b9091048116908216101561251b57600093505050506108f3565b601154600090819061253c906001600160801b03168563ffffffff61393716565b90506001600160801b03811661256c57612565856116776010548b612b8d90919063ffffffff16565b91506125a4565b806001600160801b03166001141561259f57612565633b9aca00611677876116776010548d612b8d90919063ffffffff16565b600091505b6125b888633b9aca0063ffffffff612bc716565b8210156125cd576000955050505050506108f3565b509695505050505050565b6001600160a01b0381166000908152600d602052604090206001015460ff1615610b5e5760405162461bcd60e51b81526004016108c0906145eb565b6001600160a01b0381166000908152600b60205260409020548015610c6d5760405162461bcd60e51b81526004016108c090614644565b670de0b6b3a7640000811115610b5e5760405162461bcd60e51b81526004016108c090614521565b61267c81613971565b612685336125d8565b61268e826139be565b336000908152600b60205260409020546008546001600160a01b03166126b381611e2e565b816126c2576126c233846139de565b60006126cd33610cd4565b905060006126da33610d9a565b905060006126ee858363ffffffff612abf16565b336000818152600b60205260409020600101549192506001600160a01b039091169061271c90869083612f74565b60006127278261168e565b9050600061273b828b63ffffffff6108cb16565b905061274783826130e9565b826001600160a01b03166000805160206149ff83398151915282336040516127709291906148ed565b60405180910390a2612782338b613a38565b6000612794868c63ffffffff6108cb16565b90506127a03382613231565b336001600160a01b03166000805160206149bf833981519152826040516127c791906148e4565b60405180910390a2336001600160a01b03166000805160206149df83398151915288876040516127f89291906140d9565b60405180910390a261280987613aec565b5050505050505050505050565b5490565b600080856001600160a01b03166321df0da76040518163ffffffff1660e01b815260040160206040518083038186803b15801561285657600080fd5b505afa15801561286a573d6000803e3d6000fd5b505050506040513d601f19601f8201168201806040525081019061288e9190613cd6565b90506000816001600160a01b03166370a08231306040518263ffffffff1660e01b81526004016128be9190613fe0565b60206040518083038186803b1580156128d657600080fd5b505afa1580156128ea573d6000803e3d6000fd5b505050506040513d601f19601f8201168201806040525081019061290e9190613e3e565b9050306001600160a01b03831663605629d633838a893561293560408c0160208d01613f87565b8b604001358c606001356040518863ffffffff1660e01b8152600401612961979695949392919061403b565b600060405180830381600087803b15801561297b57600080fd5b505af115801561298f573d6000803e3d6000fd5b5050505086612a1483856001600160a01b03166370a08231856040518263ffffffff1660e01b81526004016129c49190613fe0565b60206040518083038186803b1580156129dc57600080fd5b505afa1580156129f0573d6000803e3d6000fd5b505050506040513d601f19601f82011682018060405250810190611f389190613e3e565b14612a315760405162461bcd60e51b81526004016108c0906141bc565b60405163fb2c922360e01b81526001600160a01b0389169063fb2c922390612a619089908b9033906004016140b6565b602060405180830381600087803b158015612a7b57600080fd5b505af1158015612a8f573d6000803e3d6000fd5b505050506040513d601f19601f82011682018060405250810190612ab39190613e3e565b98975050505050505050565b60006108f083836040518060400160405280601e81526020017f536166654d6174683a207375627472616374696f6e206f766572666c6f770000815250613af6565b608081015160608201516040808401516020808601516001600160801b03808716600090815260138452858120918716815292529281205490949392908590612b50908463ffffffff612abf16565b6001600160801b0380871660009081526013602052604081209293509161249c91633b9aca0091908490612476908a16600163ffffffff6138ac16565b600082612b9c575060006108f3565b82820282848281612ba957fe5b04146108f05760405162461bcd60e51b81526004016108c090614490565b60006108f083836040518060400160405280601a81526020017f536166654d6174683a206469766973696f6e206279207a65726f000000000000815250613b22565b600080876001600160a01b03166321df0da76040518163ffffffff1660e01b815260040160206040518083038186803b158015612c4557600080fd5b505afa158015612c59573d6000803e3d6000fd5b505050506040513d601f19601f82011682018060405250810190612c7d9190613cd6565b90506000816001600160a01b03166370a08231306040518263ffffffff1660e01b8152600401612cad9190613fe0565b60206040518083038186803b158015612cc557600080fd5b505afa158015612cd9573d6000803e3d6000fd5b505050506040513d601f19601f82011682018060405250810190612cfd9190613e3e565b87516020015190915030906001600160a01b0388166330f28b7a8a612d228585613b59565b338b8b6040518663ffffffff1660e01b8152600401612d4595949392919061485f565b600060405180830381600087803b158015612d5f57600080fd5b505af1158015612d73573d6000803e3d6000fd5b5050505080612da884866001600160a01b03166370a08231866040518263ffffffff1660e01b81526004016129c49190613fe0565b14612dc55760405162461bcd60e51b81526004016108c0906141bc565b60405163fb2c922360e01b81526001600160a01b038c169063fb2c922390612df5908d90859033906004016140b6565b602060405180830381600087803b158015612e0f57600080fd5b505af1158015612e23573d6000803e3d6000fd5b505050506040513d601f19601f82011682018060405250810190612e479190613e3e565b9b9a5050505050505050505050565b6001600160a01b0381166000908152601760205260408120612e7781612816565b9150612e8281613b8b565b50919050565b60008111610b5e5760405162461bcd60e51b81526004016108c090614718565b6005546040516321e3780160e01b81526001600160a01b03909116906321e3780190612ed8908490600401613fe0565b60206040518083038186803b158015612ef057600080fd5b505afa158015612f04573d6000803e3d6000fd5b505050506040513d601f19601f82011682018060405250810190612f289190613e3e565b600114610b5e5760405162461bcd60e51b81526004016108c090614150565b6000612f5282610cd4565b905060008111610c6d5760405162461bcd60e51b81526004016108c0906143b5565b6001600160a01b03811615613034576000612f8e8261158a565b604051633e30771b60e21b81529091506001600160a01b0385169063f8c1dc6c90612fbf908590859060040161407c565b600060405180830381600087803b158015612fd957600080fd5b505af1158015612fed573d6000803e3d6000fd5b50505050816001600160a01b03167f732e331072fe280a520929e5f2cc76c223389ff57d32a4e278cfded03e6f1caa8260405161302a91906148e4565b60405180910390a2505b600061303f8361172b565b604051633e30771b60e21b81529091506001600160a01b0385169063f8c1dc6c90613070908690859060040161407c565b600060405180830381600087803b15801561308a57600080fd5b505af115801561309e573d6000803e3d6000fd5b50505050826001600160a01b03167fe9ac2dcd83e719358f1dc0c5c80491937f67d4ec61ef62c262bbe3b78578f92a826040516130db91906148e4565b60405180910390a250505050565b6001600160a01b0382166000908152600e6020526040902081905580613174576001600160a01b0382166000818152600f60205260408082208281556001810183905560028101839055600301829055517fbb1322f85cc7cc8bac4e172a5bc5dcc0c1959007f9a030032abf9258205f0e45916131679181906140d9565b60405180910390a2610c6d565b6011546010546001600160801b03600160801b80840482166000818152601360209081526040808320978616808452978252808320546001600160a01b038b16808552600f90935292819020600181018890556002810184905560030180546001600160801b0319168917909616948402949094179094559151909392907fbb1322f85cc7cc8bac4e172a5bc5dcc0c1959007f9a030032abf9258205f0e459061322190859085906140d9565b60405180910390a2505050505050565b6001600160a01b0382166000908152600b60205260409020819055806132cf576001600160a01b0382166000818152600b60209081526040808320600190810180546001600160a01b0319169055600c909252808320838155918201839055600282018390556003909101829055517f2d6cc0bcdf72c9486f6451bde6b80f44066f4558f77f44dbfedbe7d8b295225a9161316791819081906140e7565b6011546010546001600160801b03600160801b8084048216600081815260126020908152604080832097861680845297825280832054848452601383528184208985528352818420546001600160a01b038c16808652600c90945293829020600181018990558181556002810185905560030180546001600160801b0319168a1790971695850295909517909555935191949390917f2d6cc0bcdf72c9486f6451bde6b80f44066f4558f77f44dbfedbe7d8b295225a90613395908690869086906140e7565b60405180910390a250505050505050565b60025460408051630fdb11cf60e01b815290516000926001600160a01b031691630fdb11cf91600480830192602092919082900301818787803b1580156133ec57600080fd5b505af1158015613400573d6000803e3d6000fd5b505050506040513d601f19601f820116820180604052508101906134249190613e3e565b90506000600760009054906101000a90046001600160a01b03166001600160a01b0316634d6228316040518163ffffffff1660e01b815260040160206040518083038186803b15801561347657600080fd5b505afa15801561348a573d6000803e3d6000fd5b505050506040513d601f19601f820116820180604052508101906134ae9190613cd6565b600554604051630d293c7160e41b81529192506000916001600160a01b039091169063d293c710906134e6908590879060040161407c565b60206040518083038186803b1580156134fe57600080fd5b505afa158015613512573d6000803e3d6000fd5b505050506040513d601f19601f820116820180604052508101906135369190613e3e565b9050600360009054906101000a90046001600160a01b03166001600160a01b031663794e57246040518163ffffffff1660e01b815260040160206040518083038186803b15801561358657600080fd5b505afa15801561359a573d6000803e3d6000fd5b505050506040513d601f19601f820116820180604052508101906135be9190613e3e565b8110156112e55760405162461bcd60e51b81526004016108c0906147f5565b60008183106135ec57816108f0565b5090919050565b806135fd57610c6d565b600654604051631062c15f60e11b81526001600160a01b03909116906320c582be9061363190309086908690600401614017565b600060405180830381600087803b15801561364b57600080fd5b505af115801561365f573d6000803e3d6000fd5b50505050610c6d816138dd565b6001600160a01b0381166136925760405162461bcd60e51b81526004016108c09061423c565b8161369c57610c6d565b6009546000906136b2908463ffffffff612abf16565b90508060098190555060008051602061499f833981519152816040516136d891906148e4565b60405180910390a17f6109e2559dfa766aaec7118351d48a523f0a4157f49c8d68749c8ac41318ad12338460405161371192919061407c565b60405180910390a16000336001600160a01b03168460405161373290613fc0565b60006040518083038185875af1925050503d806000811461376f576040519150601f19603f3d011682016040523d82523d6000602084013e613774565b606091505b50509050806137955760405162461bcd60e51b81526004016108c09061444f565b50505050565b600a548015806137a9575081155b156137b45750610b5e565b60006137c08383613b94565b905060006137d960105483612b8d90919063ffffffff16565b6011546001600160801b03600160801b82048116600090815260136020908152604080832093909416825291909152205490915061381d908263ffffffff6108cb16565b601180546001600160801b03600160801b80830482166000908152601360208181526040808420968616845295815285832097909755945491820483168082529486528381209190921680835294528190205490517f2d6127771b164a9cc8827d24b5955db2a77e7a81dac389107ebb8bce9fb649689361389e9391614914565b60405180910390a150505050565b60008282016001600160801b0380851690821610156108f05760405162461bcd60e51b81526004016108c0906147b0565b600a546000906138f3908363ffffffff612abf16565b905080600a819055507ff3c69a10dcea5d744225cbe910fb39d6f8208bb8e21fff523d6756a7966093c78160405161392b91906148e4565b60405180910390a15050565b6000826001600160801b0316826001600160801b0316111561396b5760405162461bcd60e51b81526004016108c090614768565b50900390565b6001600160a01b0381166000908152600d602052604090206001015460ff16806139a257506001600160a01b038116155b610b5e5760405162461bcd60e51b81526004016108c090614289565b60008111610b5e5760405162461bcd60e51b81526004016108c090614574565b6001600160a01b038281166000818152600b602052604080822060010180546001600160a01b0319169486169485179055517f094c08e96a8890877a8390b4f967180a7507ad8622244d05fcd0f9f8e086564e9190a35050565b600654604051632ee65eeb60e21b81526001600160a01b039091169063bb997bac90613a6c90859030908690600401614017565b600060405180830381600087803b158015613a8657600080fd5b505af1158015613a9a573d6000803e3d6000fd5b5050600a5460009250613ab491508363ffffffff6108cb16565b905080600a819055507ff3c69a10dcea5d744225cbe910fb39d6f8208bb8e21fff523d6756a7966093c781604051610aec91906148e4565b610b5e813361366c565b60008184841115613b1a5760405162461bcd60e51b81526004016108c091906140fd565b505050900390565b60008183613b435760405162461bcd60e51b81526004016108c091906140fd565b506000838581613b4f57fe5b0495945050505050565b613b61613c3a565b613b69613c3a565b5050604080518082019091526001600160a01b03929092168252602082015290565b80546001019055565b600080613bb8601454611ee1670de0b6b3a764000087612b8d90919063ffffffff16565b90506000613bcc828563ffffffff612bc716565b9050613bee613be1828663ffffffff612b8d16565b839063ffffffff612abf16565b601455949350505050565b6040518060a0016040528060008152602001600081526020016000815260200160006001600160801b0316815260200160006001600160801b031681525090565b604080518082019091526000808252602082015290565b80356108f381614989565b60008083601f840112613c6d578182fd5b50813567ffffffffffffffff811115613c84578182fd5b602083019150836020828501011115613c9c57600080fd5b9250929050565b80356001600160801b03811681146108f357600080fd5b600060208284031215613ccb578081fd5b81356108f081614989565b600060208284031215613ce7578081fd5b81516108f081614989565b60008060408385031215613d04578081fd5b8235613d0f81614989565b91506020830135613d1f81614989565b809150509250929050565b600080600080600080600080610100898b031215613d46578384fd5b8835613d5181614989565b97506020890135613d6181614989565b96506040890135613d7181614989565b95506060890135613d8181614989565b94506080890135613d9181614989565b935060a0890135613da181614989565b925060c0890135613db181614989565b915060e0890135613dc181614989565b809150509295985092959890939650565b600060208284031215613de3578081fd5b815180151581146108f0578182fd5b60008060408385031215613e04578182fd5b613e0e8484613ca3565b9150613e1d8460208501613ca3565b90509250929050565b600060208284031215613e37578081fd5b5035919050565b600060208284031215613e4f578081fd5b5051919050565b60008060408385031215613e68578182fd5b823591506020830135613d1f81614989565b60008082840360a0811215613e8d578283fd5b833592506080601f1982011215613ea2578182fd5b506020830190509250929050565b60008060008084860360c0811215613ec6578485fd5b85359450601f1981016080811215613edc578485fd5b613ee66060614962565b91506040811215613ef5578485fd5b50613f006040614962565b613f0d8860208901613c51565b8152604087013560208201528082525060608601356020820152608086013560408201528093505060a085013567ffffffffffffffff811115613f4e578283fd5b613f5a87828801613c5c565b95989497509550505050565b60008060408385031215613f78578182fd5b50508035926020909101359150565b600060208284031215613f98578081fd5b813560ff811681146108f0578182fd5b80516001600160a01b03168252602090810151910152565b90565b7035b2bc9737bbb730b136329737bbb732b960791b815260110190565b6001600160a01b0391909116815260200190565b6001600160a01b0393841681529183166020830152909116604082015260600190565b6001600160a01b039384168152919092166020820152604081019190915260600190565b6001600160a01b0397881681529590961660208601526040850193909352606084019190915260ff16608083015260a082015260c081019190915260e00190565b6001600160a01b03929092168252602082015260400190565b6001600160a01b039390931683526020830191909152604082015260600190565b6001600160a01b0393841681526020810192909252909116604082015260600190565b918252602082015260400190565b9283526020830191909152604082015260600190565b6000602080835283518082850152825b818110156141295785810183015185820160400152820161410d565b8181111561413a5783604083870101525b50601f01601f1916929092016040019392505050565b60208082526046908201527f53746162696c697479506f6f6c3a2063616c6c6572206d75737420686176652060408201527f616e206163746976652074726f766520746f207769746864726177204554484760608201526561696e20746f60d01b608082015260a00190565b60208082526029908201527f444c4c52207472616e7366657272656420616d6f756e742076616c69646174696040820152681bdb8819985a5b195960ba1b606082015260800190565b6020808252601b908201527f536166654d6174683a206164646974696f6e206f766572666c6f770000000000604082015260600190565b6020808252602d908201527f53503a3a5f73656e644554484761696e546f3a205f726563656976657220697360408201526c207a65726f206164647265737360981b606082015260800190565b60208082526046908201527f53746162696c697479506f6f6c3a20546167206d75737420626520612072656760408201527f697374657265642066726f6e7420656e642c206f7220746865207a65726f206160608201526564647265737360d01b608082015260a00190565b60208082526027908201527f53746162696c697479506f6f6c3a2043616c6c6572206973206e6f74204163746040820152661a5d99541bdbdb60ca1b606082015260800190565b60208082526022908201527f4f776e61626c653a3a7365744f776e65723a20696e76616c6964206164647265604082015261737360f01b606082015260800190565b6020808252601e908201527f4163636f756e742063616e6e6f74206265207a65726f20616464726573730000604082015260600190565b60208082526031908201527f53746162696c697479506f6f6c3a2063616c6c6572206d7573742068617665206040820152703737b716bd32b9379022aa241023b0b4b760791b606082015260800190565b60208082526029908201527f53746162696c697479506f6f6c3a2043616c6c6572206973206e6f742054726f6040820152683b32a6b0b730b3b2b960b91b606082015260800190565b60208082526021908201527f53746162696c697479506f6f6c3a2073656e64696e6720455448206661696c656040820152601960fa1b606082015260800190565b60208082526021908201527f536166654d6174683a206d756c7469706c69636174696f6e206f766572666c6f6040820152607760f81b606082015260800190565b60208082526030908201527f53503a3a5f776974686472617746726f6d5370546f3a205f726563656976657260408201526f206973207a65726f206164647265737360801b606082015260800190565b60208082526033908201527f53746162696c697479506f6f6c3a204b69636b6261636b2072617465206d75736040820152727420626520696e2072616e6765205b302c315d60681b606082015260800190565b60208082526026908201527f53746162696c697479506f6f6c3a20416d6f756e74206d757374206265206e6f6040820152656e2d7a65726f60d01b606082015260800190565b60208082526017908201527613dddb98589b194e8e881858d8d95cdcc819195b9a5959604a1b604082015260600190565b60208082526039908201527f53746162696c697479506f6f6c3a206d757374206e6f7420616c72656164792060408201527818994818481c9959da5cdd195c995908199c9bdb9d08195b99603a1b606082015260800190565b60208082526028908201527f53746162696c697479506f6f6c3a2055736572206d7573742068617665206e6f6040820152670819195c1bdcda5d60c21b606082015260800190565b60208082526037908201527f4661696c656420746f20617070726f7665205a55534420616d6f756e7420666f60408201527672204d796e74206d417373657420746f2072656465656d60481b606082015260800190565b6020808252818101527f4163636f756e7420636f64652073697a652063616e6e6f74206265207a65726f604082015260600190565b60208082526030908201527f53746162696c697479506f6f6c3a2055736572206d757374206861766520612060408201526f1b9bdb8b5e995c9bc819195c1bdcda5d60821b606082015260800190565b60208082526028908201527f4c697175697479536166654d6174683132383a207375627472616374696f6e206040820152676f766572666c6f7760c01b606082015260800190565b60208082526025908201527f4c697175697479536166654d6174683132383a206164646974696f6e206f766560408201526472666c6f7760d81b606082015260800190565b60208082526044908201527f53746162696c697479506f6f6c3a2043616e6e6f74207769746864726177207760408201527f68696c65207468657265206172652074726f766573207769746820494352203c6060820152631026a1a960e11b608082015260a00190565b600061010061486f838951613fa8565b60208801516040840152604088015160608401526148906080840188613fa8565b6001600160a01b03861660c084015260e083018190528201839052610120838582850137828401810191909152601f909201601f19160101949350505050565b6001600160801b0391909116815260200190565b90815260200190565b9182526001600160a01b0316602082015260400190565b9182521515602082015260400190565b9283526001600160801b03918216602084015216604082015260600190565b948552602085019390935260408401919091526001600160801b03908116606084015216608082015260a00190565b60405181810167ffffffffffffffff8111828210171561498157600080fd5b604052919050565b6001600160a01b0381168114610b5e57600080fdfeceb6d671277d4354fd29977ada70695fbd93a16612abf765d6b0e25c28dc6db3bce78369dccab09eec1986f4d409ab09ffbb47d65423e5148fcf98411c5111c951457222ebca92c335c9c86e2baa1cc0e40ffaa9084a51452980d5ba8dec2f6399920012339b5a3368d3a04b8606ce412c46ed92b7dcd8602d41fc8862cb8f25a2646970667358221220e225b90537d1ca2490543eb146efdbffb22699d6c8daea24900862a5acb9efdf64736f6c634300060b0033",
    "implementation": "0x577c33F0841138169D70EA9bE5C9456cAE5814bE"
}