{
    "address": "0xDC28140B3943cFB34cD6cA7E6806b1079A55f562",
    "abi": [
        {
            "inputs": [
                {
                    "internalType": "uint256",
                    "name": "_bootstrapPeriod",
                    "type": "uint256"
                },
                {
                    "internalType": "address",
                    "name": "_permit2",
                    "type": "address"
                }
            ],
            "stateMutability": "nonpayable",
            "type": "constructor"
        },
        {
            "anonymous": false,
            "inputs": [
                {
                    "indexed": false,
                    "internalType": "uint256",
                    "name": "_baseRate",
                    "type": "uint256"
                }
            ],
            "name": "BaseRateUpdated",
            "type": "event"
        },
        {
            "anonymous": false,
            "inputs": [
                {
                    "indexed": false,
                    "internalType": "uint256",
                    "name": "_L_ETH",
                    "type": "uint256"
                },
                {
                    "indexed": false,
                    "internalType": "uint256",
                    "name": "_L_ZUSDDebt",
                    "type": "uint256"
                }
            ],
            "name": "LTermsUpdated",
            "type": "event"
        },
        {
            "anonymous": false,
            "inputs": [
                {
                    "indexed": false,
                    "internalType": "uint256",
                    "name": "_lastFeeOpTime",
                    "type": "uint256"
                }
            ],
            "name": "LastFeeOpTimeUpdated",
            "type": "event"
        },
        {
            "anonymous": false,
            "inputs": [
                {
                    "indexed": false,
                    "internalType": "uint256",
                    "name": "_liquidatedDebt",
                    "type": "uint256"
                },
                {
                    "indexed": false,
                    "internalType": "uint256",
                    "name": "_liquidatedColl",
                    "type": "uint256"
                },
                {
                    "indexed": false,
                    "internalType": "uint256",
                    "name": "_collGasCompensation",
                    "type": "uint256"
                },
                {
                    "indexed": false,
                    "internalType": "uint256",
                    "name": "_ZUSDGasCompensation",
                    "type": "uint256"
                }
            ],
            "name": "Liquidation",
            "type": "event"
        },
        {
            "anonymous": false,
            "inputs": [
                {
                    "indexed": true,
                    "internalType": "address",
                    "name": "previousOwner",
                    "type": "address"
                },
                {
                    "indexed": true,
                    "internalType": "address",
                    "name": "newOwner",
                    "type": "address"
                }
            ],
            "name": "OwnershipTransferred",
            "type": "event"
        },
        {
            "anonymous": false,
            "inputs": [
                {
                    "indexed": false,
                    "internalType": "uint256",
                    "name": "_attemptedZUSDAmount",
                    "type": "uint256"
                },
                {
                    "indexed": false,
                    "internalType": "uint256",
                    "name": "_actualZUSDAmount",
                    "type": "uint256"
                },
                {
                    "indexed": false,
                    "internalType": "uint256",
                    "name": "_ETHSent",
                    "type": "uint256"
                },
                {
                    "indexed": false,
                    "internalType": "uint256",
                    "name": "_ETHFee",
                    "type": "uint256"
                }
            ],
            "name": "Redemption",
            "type": "event"
        },
        {
            "anonymous": false,
            "inputs": [
                {
                    "indexed": false,
                    "internalType": "uint256",
                    "name": "_totalStakesSnapshot",
                    "type": "uint256"
                },
                {
                    "indexed": false,
                    "internalType": "uint256",
                    "name": "_totalCollateralSnapshot",
                    "type": "uint256"
                }
            ],
            "name": "SystemSnapshotsUpdated",
            "type": "event"
        },
        {
            "anonymous": false,
            "inputs": [
                {
                    "indexed": false,
                    "internalType": "uint256",
                    "name": "_newTotalStakes",
                    "type": "uint256"
                }
            ],
            "name": "TotalStakesUpdated",
            "type": "event"
        },
        {
            "anonymous": false,
            "inputs": [
                {
                    "indexed": false,
                    "internalType": "address",
                    "name": "_borrower",
                    "type": "address"
                },
                {
                    "indexed": false,
                    "internalType": "uint256",
                    "name": "_newIndex",
                    "type": "uint256"
                }
            ],
            "name": "TroveIndexUpdated",
            "type": "event"
        },
        {
            "anonymous": false,
            "inputs": [
                {
                    "indexed": true,
                    "internalType": "address",
                    "name": "_borrower",
                    "type": "address"
                },
                {
                    "indexed": false,
                    "internalType": "uint256",
                    "name": "_debt",
                    "type": "uint256"
                },
                {
                    "indexed": false,
                    "internalType": "uint256",
                    "name": "_coll",
                    "type": "uint256"
                },
                {
                    "indexed": false,
                    "internalType": "enum TroveManagerBase.TroveManagerOperation",
                    "name": "_operation",
                    "type": "uint8"
                }
            ],
            "name": "TroveLiquidated",
            "type": "event"
        },
        {
            "anonymous": false,
            "inputs": [
                {
                    "indexed": false,
                    "internalType": "uint256",
                    "name": "_L_ETH",
                    "type": "uint256"
                },
                {
                    "indexed": false,
                    "internalType": "uint256",
                    "name": "_L_ZUSDDebt",
                    "type": "uint256"
                }
            ],
            "name": "TroveSnapshotsUpdated",
            "type": "event"
        },
        {
            "anonymous": false,
            "inputs": [
                {
                    "indexed": true,
                    "internalType": "address",
                    "name": "_borrower",
                    "type": "address"
                },
                {
                    "indexed": false,
                    "internalType": "uint256",
                    "name": "_debt",
                    "type": "uint256"
                },
                {
                    "indexed": false,
                    "internalType": "uint256",
                    "name": "_coll",
                    "type": "uint256"
                },
                {
                    "indexed": false,
                    "internalType": "uint256",
                    "name": "_stake",
                    "type": "uint256"
                },
                {
                    "indexed": false,
                    "internalType": "enum TroveManagerBase.TroveManagerOperation",
                    "name": "_operation",
                    "type": "uint8"
                }
            ],
            "name": "TroveUpdated",
            "type": "event"
        },
        {
            "inputs": [],
            "name": "BETA",
            "outputs": [
                {
                    "internalType": "uint256",
                    "name": "",
                    "type": "uint256"
                }
            ],
            "stateMutability": "view",
            "type": "function"
        },
        {
            "inputs": [],
            "name": "BOOTSTRAP_PERIOD",
            "outputs": [
                {
                    "internalType": "uint256",
                    "name": "",
                    "type": "uint256"
                }
            ],
            "stateMutability": "view",
            "type": "function"
        },
        {
            "inputs": [],
            "name": "DECIMAL_PRECISION",
            "outputs": [
                {
                    "internalType": "uint256",
                    "name": "",
                    "type": "uint256"
                }
            ],
            "stateMutability": "view",
            "type": "function"
        },
        {
            "inputs": [],
            "name": "L_ETH",
            "outputs": [
                {
                    "internalType": "uint256",
                    "name": "",
                    "type": "uint256"
                }
            ],
            "stateMutability": "view",
            "type": "function"
        },
        {
            "inputs": [],
            "name": "L_ZUSDDebt",
            "outputs": [
                {
                    "internalType": "uint256",
                    "name": "",
                    "type": "uint256"
                }
            ],
            "stateMutability": "view",
            "type": "function"
        },
        {
            "inputs": [],
            "name": "MINUTE_DECAY_FACTOR",
            "outputs": [
                {
                    "internalType": "uint256",
                    "name": "",
                    "type": "uint256"
                }
            ],
            "stateMutability": "view",
            "type": "function"
        },
        {
            "inputs": [],
            "name": "MIN_NET_DEBT",
            "outputs": [
                {
                    "internalType": "uint256",
                    "name": "",
                    "type": "uint256"
                }
            ],
            "stateMutability": "view",
            "type": "function"
        },
        {
            "inputs": [],
            "name": "NAME",
            "outputs": [
                {
                    "internalType": "string",
                    "name": "",
                    "type": "string"
                }
            ],
            "stateMutability": "view",
            "type": "function"
        },
        {
            "inputs": [],
            "name": "SECONDS_IN_ONE_MINUTE",
            "outputs": [
                {
                    "internalType": "uint256",
                    "name": "",
                    "type": "uint256"
                }
            ],
            "stateMutability": "view",
            "type": "function"
        },
        {
            "inputs": [
                {
                    "internalType": "uint256",
                    "name": "",
                    "type": "uint256"
                }
            ],
            "name": "TroveOwners",
            "outputs": [
                {
                    "internalType": "address",
                    "name": "",
                    "type": "address"
                }
            ],
            "stateMutability": "view",
            "type": "function"
        },
        {
            "inputs": [
                {
                    "internalType": "address",
                    "name": "",
                    "type": "address"
                }
            ],
            "name": "Troves",
            "outputs": [
                {
                    "internalType": "uint256",
                    "name": "debt",
                    "type": "uint256"
                },
                {
                    "internalType": "uint256",
                    "name": "coll",
                    "type": "uint256"
                },
                {
                    "internalType": "uint256",
                    "name": "stake",
                    "type": "uint256"
                },
                {
                    "internalType": "enum TroveManagerStorage.Status",
                    "name": "status",
                    "type": "uint8"
                },
                {
                    "internalType": "uint128",
                    "name": "arrayIndex",
                    "type": "uint128"
                }
            ],
            "stateMutability": "view",
            "type": "function"
        },
        {
            "inputs": [],
            "name": "ZUSD_GAS_COMPENSATION",
            "outputs": [
                {
                    "internalType": "uint256",
                    "name": "",
                    "type": "uint256"
                }
            ],
            "stateMutability": "view",
            "type": "function"
        },
        {
            "inputs": [],
            "name": "_100pct",
            "outputs": [
                {
                    "internalType": "uint256",
                    "name": "",
                    "type": "uint256"
                }
            ],
            "stateMutability": "view",
            "type": "function"
        },
        {
            "inputs": [
                {
                    "internalType": "address",
                    "name": "_borrower",
                    "type": "address"
                },
                {
                    "internalType": "uint256",
                    "name": "_price",
                    "type": "uint256"
                }
            ],
            "name": "_getCurrentICR",
            "outputs": [
                {
                    "internalType": "uint256",
                    "name": "",
                    "type": "uint256"
                }
            ],
            "stateMutability": "view",
            "type": "function"
        },
        {
            "inputs": [
                {
                    "internalType": "address",
                    "name": "_borrower",
                    "type": "address"
                }
            ],
            "name": "_getPendingETHReward",
            "outputs": [
                {
                    "internalType": "uint256",
                    "name": "",
                    "type": "uint256"
                }
            ],
            "stateMutability": "view",
            "type": "function"
        },
        {
            "inputs": [
                {
                    "internalType": "address",
                    "name": "_borrower",
                    "type": "address"
                }
            ],
            "name": "_getPendingZUSDDebtReward",
            "outputs": [
                {
                    "internalType": "uint256",
                    "name": "",
                    "type": "uint256"
                }
            ],
            "stateMutability": "view",
            "type": "function"
        },
        {
            "inputs": [],
            "name": "_getRedemptionRate",
            "outputs": [
                {
                    "internalType": "uint256",
                    "name": "",
                    "type": "uint256"
                }
            ],
            "stateMutability": "view",
            "type": "function"
        },
        {
            "inputs": [
                {
                    "internalType": "address",
                    "name": "_borrower",
                    "type": "address"
                }
            ],
            "name": "_hasPendingRewards",
            "outputs": [
                {
                    "internalType": "bool",
                    "name": "",
                    "type": "bool"
                }
            ],
            "stateMutability": "view",
            "type": "function"
        },
        {
            "inputs": [],
            "name": "_stabilityPool",
            "outputs": [
                {
                    "internalType": "contract IStabilityPool",
                    "name": "",
                    "type": "address"
                }
            ],
            "stateMutability": "view",
            "type": "function"
        },
        {
            "inputs": [],
            "name": "_zeroStaking",
            "outputs": [
                {
                    "internalType": "contract IZEROStaking",
                    "name": "",
                    "type": "address"
                }
            ],
            "stateMutability": "view",
            "type": "function"
        },
        {
            "inputs": [],
            "name": "_zeroToken",
            "outputs": [
                {
                    "internalType": "contract IZEROToken",
                    "name": "",
                    "type": "address"
                }
            ],
            "stateMutability": "view",
            "type": "function"
        },
        {
            "inputs": [],
            "name": "_zusdToken",
            "outputs": [
                {
                    "internalType": "contract IZUSDToken",
                    "name": "",
                    "type": "address"
                }
            ],
            "stateMutability": "view",
            "type": "function"
        },
        {
            "inputs": [],
            "name": "activePool",
            "outputs": [
                {
                    "internalType": "contract IActivePool",
                    "name": "",
                    "type": "address"
                }
            ],
            "stateMutability": "view",
            "type": "function"
        },
        {
            "inputs": [],
            "name": "baseRate",
            "outputs": [
                {
                    "internalType": "uint256",
                    "name": "",
                    "type": "uint256"
                }
            ],
            "stateMutability": "view",
            "type": "function"
        },
        {
            "inputs": [],
            "name": "borrowerOperationsAddress",
            "outputs": [
                {
                    "internalType": "address",
                    "name": "",
                    "type": "address"
                }
            ],
            "stateMutability": "view",
            "type": "function"
        },
        {
            "inputs": [],
            "name": "defaultPool",
            "outputs": [
                {
                    "internalType": "contract IDefaultPool",
                    "name": "",
                    "type": "address"
                }
            ],
            "stateMutability": "view",
            "type": "function"
        },
        {
            "inputs": [],
            "name": "feeDistributor",
            "outputs": [
                {
                    "internalType": "contract IFeeDistributor",
                    "name": "",
                    "type": "address"
                }
            ],
            "stateMutability": "view",
            "type": "function"
        },
        {
            "inputs": [],
            "name": "getEntireSystemColl",
            "outputs": [
                {
                    "internalType": "uint256",
                    "name": "entireSystemColl",
                    "type": "uint256"
                }
            ],
            "stateMutability": "view",
            "type": "function"
        },
        {
            "inputs": [],
            "name": "getEntireSystemDebt",
            "outputs": [
                {
                    "internalType": "uint256",
                    "name": "entireSystemDebt",
                    "type": "uint256"
                }
            ],
            "stateMutability": "view",
            "type": "function"
        },
        {
            "inputs": [],
            "name": "getOwner",
            "outputs": [
                {
                    "internalType": "address",
                    "name": "_owner",
                    "type": "address"
                }
            ],
            "stateMutability": "view",
            "type": "function"
        },
        {
            "inputs": [],
            "name": "lastETHError_Redistribution",
            "outputs": [
                {
                    "internalType": "uint256",
                    "name": "",
                    "type": "uint256"
                }
            ],
            "stateMutability": "view",
            "type": "function"
        },
        {
            "inputs": [],
            "name": "lastFeeOperationTime",
            "outputs": [
                {
                    "internalType": "uint256",
                    "name": "",
                    "type": "uint256"
                }
            ],
            "stateMutability": "view",
            "type": "function"
        },
        {
            "inputs": [],
            "name": "lastZUSDDebtError_Redistribution",
            "outputs": [
                {
                    "internalType": "uint256",
                    "name": "",
                    "type": "uint256"
                }
            ],
            "stateMutability": "view",
            "type": "function"
        },
        {
            "inputs": [],
            "name": "liquityBaseParams",
            "outputs": [
                {
                    "internalType": "contract ILiquityBaseParams",
                    "name": "",
                    "type": "address"
                }
            ],
            "stateMutability": "view",
            "type": "function"
        },
        {
            "inputs": [
                {
                    "internalType": "address",
                    "name": "owner",
                    "type": "address"
                }
            ],
            "name": "nonces",
            "outputs": [
                {
                    "internalType": "uint256",
                    "name": "",
                    "type": "uint256"
                }
            ],
            "stateMutability": "view",
            "type": "function"
        },
        {
            "inputs": [],
            "name": "permit2",
            "outputs": [
                {
                    "internalType": "contract IPermit2",
                    "name": "",
                    "type": "address"
                }
            ],
            "stateMutability": "view",
            "type": "function"
        },
        {
            "inputs": [],
            "name": "priceFeed",
            "outputs": [
                {
                    "internalType": "contract IPriceFeed",
                    "name": "",
                    "type": "address"
                }
            ],
            "stateMutability": "view",
            "type": "function"
        },
        {
            "inputs": [
                {
                    "internalType": "uint256",
                    "name": "_ZUSDamount",
                    "type": "uint256"
                },
                {
                    "internalType": "address",
                    "name": "_firstRedemptionHint",
                    "type": "address"
                },
                {
                    "internalType": "address",
                    "name": "_upperPartialRedemptionHint",
                    "type": "address"
                },
                {
                    "internalType": "address",
                    "name": "_lowerPartialRedemptionHint",
                    "type": "address"
                },
                {
                    "internalType": "uint256",
                    "name": "_partialRedemptionHintNICR",
                    "type": "uint256"
                },
                {
                    "internalType": "uint256",
                    "name": "_maxIterations",
                    "type": "uint256"
                },
                {
                    "internalType": "uint256",
                    "name": "_maxFeePercentage",
                    "type": "uint256"
                }
            ],
            "name": "redeemCollateral",
            "outputs": [],
            "stateMutability": "nonpayable",
            "type": "function"
        },
        {
            "inputs": [
                {
                    "internalType": "uint256",
                    "name": "_dllrAmount",
                    "type": "uint256"
                },
                {
                    "internalType": "address",
                    "name": "_firstRedemptionHint",
                    "type": "address"
                },
                {
                    "internalType": "address",
                    "name": "_upperPartialRedemptionHint",
                    "type": "address"
                },
                {
                    "internalType": "address",
                    "name": "_lowerPartialRedemptionHint",
                    "type": "address"
                },
                {
                    "internalType": "uint256",
                    "name": "_partialRedemptionHintNICR",
                    "type": "uint256"
                },
                {
                    "internalType": "uint256",
                    "name": "_maxIterations",
                    "type": "uint256"
                },
                {
                    "internalType": "uint256",
                    "name": "_maxFeePercentage",
                    "type": "uint256"
                },
                {
                    "components": [
                        {
                            "internalType": "uint256",
                            "name": "deadline",
                            "type": "uint256"
                        },
                        {
                            "internalType": "uint8",
                            "name": "v",
                            "type": "uint8"
                        },
                        {
                            "internalType": "bytes32",
                            "name": "r",
                            "type": "bytes32"
                        },
                        {
                            "internalType": "bytes32",
                            "name": "s",
                            "type": "bytes32"
                        }
                    ],
                    "internalType": "struct IMassetManager.PermitParams",
                    "name": "_permitParams",
                    "type": "tuple"
                }
            ],
            "name": "redeemCollateralViaDLLR",
            "outputs": [],
            "stateMutability": "nonpayable",
            "type": "function"
        },
        {
            "inputs": [
                {
                    "internalType": "uint256",
                    "name": "_dllrAmount",
                    "type": "uint256"
                },
                {
                    "internalType": "address",
                    "name": "_firstRedemptionHint",
                    "type": "address"
                },
                {
                    "internalType": "address",
                    "name": "_upperPartialRedemptionHint",
                    "type": "address"
                },
                {
                    "internalType": "address",
                    "name": "_lowerPartialRedemptionHint",
                    "type": "address"
                },
                {
                    "internalType": "uint256",
                    "name": "_partialRedemptionHintNICR",
                    "type": "uint256"
                },
                {
                    "internalType": "uint256",
                    "name": "_maxIterations",
                    "type": "uint256"
                },
                {
                    "internalType": "uint256",
                    "name": "_maxFeePercentage",
                    "type": "uint256"
                },
                {
                    "components": [
                        {
                            "components": [
                                {
                                    "internalType": "address",
                                    "name": "token",
                                    "type": "address"
                                },
                                {
                                    "internalType": "uint256",
                                    "name": "amount",
                                    "type": "uint256"
                                }
                            ],
                            "internalType": "struct ISignatureTransfer.TokenPermissions",
                            "name": "permitted",
                            "type": "tuple"
                        },
                        {
                            "internalType": "uint256",
                            "name": "nonce",
                            "type": "uint256"
                        },
                        {
                            "internalType": "uint256",
                            "name": "deadline",
                            "type": "uint256"
                        }
                    ],
                    "internalType": "struct ISignatureTransfer.PermitTransferFrom",
                    "name": "_permit",
                    "type": "tuple"
                },
                {
                    "internalType": "bytes",
                    "name": "_signature",
                    "type": "bytes"
                }
            ],
            "name": "redeemCollateralViaDllrWithPermit2",
            "outputs": [],
            "stateMutability": "nonpayable",
            "type": "function"
        },
        {
            "inputs": [
                {
                    "internalType": "address",
                    "name": "",
                    "type": "address"
                }
            ],
            "name": "rewardSnapshots",
            "outputs": [
                {
                    "internalType": "uint256",
                    "name": "ETH",
                    "type": "uint256"
                },
                {
                    "internalType": "uint256",
                    "name": "ZUSDDebt",
                    "type": "uint256"
                }
            ],
            "stateMutability": "view",
            "type": "function"
        },
        {
            "inputs": [
                {
                    "internalType": "address",
                    "name": "_owner",
                    "type": "address"
                }
            ],
            "name": "setOwner",
            "outputs": [],
            "stateMutability": "nonpayable",
            "type": "function"
        },
        {
            "inputs": [],
            "name": "sortedTroves",
            "outputs": [
                {
                    "internalType": "contract ISortedTroves",
                    "name": "",
                    "type": "address"
                }
            ],
            "stateMutability": "view",
            "type": "function"
        },
        {
            "inputs": [],
            "name": "totalCollateralSnapshot",
            "outputs": [
                {
                    "internalType": "uint256",
                    "name": "",
                    "type": "uint256"
                }
            ],
            "stateMutability": "view",
            "type": "function"
        },
        {
            "inputs": [],
            "name": "totalStakes",
            "outputs": [
                {
                    "internalType": "uint256",
                    "name": "",
                    "type": "uint256"
                }
            ],
            "stateMutability": "view",
            "type": "function"
        },
        {
            "inputs": [],
            "name": "totalStakesSnapshot",
            "outputs": [
                {
                    "internalType": "uint256",
                    "name": "",
                    "type": "uint256"
                }
            ],
            "stateMutability": "view",
            "type": "function"
        },
        {
            "inputs": [],
            "name": "troveManagerRedeemOps",
            "outputs": [
                {
                    "internalType": "address",
                    "name": "",
                    "type": "address"
                }
            ],
            "stateMutability": "view",
            "type": "function"
        }
    ],
    "transactionHash": "0x18ca2f5bf5e50df0bf6b9ef22724c76f4e5e702fdc16c47c9d0e1f9b18807406",
    "args": [
        "1209600",
        "0x000000000022d473030f116ddee9f6b43ac78ba3"
    ],
    "numDeployments": 1,
    "solcInputHash": "65434b29c64a0ebab4091e046aa9eff9",
    "bytecode": "0x60c06040523480156200001157600080fd5b5060405162003e4438038062003e4483398101604081905262000034916200012b565b80826200004a336001600160e01b036200006616565b60805260601b6001600160601b03191660a05250620001c79050565b6001600160a01b038116620000985760405162461bcd60e51b81526004016200008f9062000185565b60405180910390fd5b6001600160a01b038116620000b56001600160e01b036200010a16565b6001600160a01b03167f8be0079c531659141344cd1fd0a4f28419497f9722a3daafe3b4186f6b6457e060405160405180910390a36000604051620000fa9062000168565b6040519081900390209190915550565b6000806040516200011b9062000168565b6040519081900390205492915050565b600080604083850312156200013e578182fd5b825160208401519092506001600160a01b03811681146200015d578182fd5b809150509250929050565b7035b2bc9737bbb730b136329737bbb732b960791b815260110190565b60208082526022908201527f4f776e61626c653a3a7365744f776e65723a20696e76616c6964206164647265604082015261737360f01b606082015260800190565b60805160a05160601c613c4c620001f8600039806105bd5280610b47525080610c1b5280611d995250613c4c6000f3fe608060405234801561001057600080fd5b50600436106102955760003560e01c8063797250e311610167578063a3f4df7e116100ce578063bf9befb111610087578063bf9befb1146104a4578063c35bc550146104ac578063c7b55481146104b4578063d380a37c146104bc578063d815e8e9146104c4578063e056e918146104cc57610295565b8063a3f4df7e1461045c578063ae7bec1914610471578063ae91875414610479578063b7f8cf9b14610481578063bcd3752614610489578063be4b03341461049c57610295565b8063893d20e811610120578063893d20e81461042957806396d711ff146104315780639708daf4146104395780639dd233d21461044c5780639f07067014610454578063a20baee6146103bb57610295565b8063797250e3146103ee5780637cf54e40146103f65780637ecebe00146103fe5780637f7dde4a14610411578063807d138d14610419578063887105d31461042157610295565b80633cc742251161020b578063716c47e6116101c4578063716c47e6146103b357806372fe25aa146103bb578063741bef1a146103c3578063756b253e146103cb578063759b3034146103de578063795d26c3146103e657610295565b80633cc742251461035157806342ccf1e4146103595780634a767d681461036c57806361ec893d1461037f5780636b444952146103875780636ef643381461038f57610295565b80631673c79a1161025d5780631673c79a146102fd5780631a59a50e1461031e5780631bf43555146103315780631f68f20a1461033957806331c903b0146103415780633a1285951461034957610295565b806305b6f5ca1461029a578063071a7541146102af5780630d43e8ad146102cd57806312261ee7146102e257806313af4035146102ea575b600080fd5b6102ad6102a836600461331a565b6104ec565b005b6102b76105a7565b6040516102c49190613b48565b60405180910390f35b6102d56105ac565b6040516102c49190613510565b6102d56105bb565b6102ad6102f83660046131fa565b6105df565b61031061030b3660046131fa565b61062c565b6040516102c4929190613b51565b6102b761032c3660046131fa565b610645565b6102b761070d565b6102b761071a565b6102b7610720565b6102d5610732565b6102d5610741565b6102b76103673660046131fa565b610750565b6102b761037a366004613232565b610781565b6102b76107ac565b6102b76107b1565b6103a261039d3660046131fa565b6107b7565b6040516102c4959493929190613b5f565b6102d56107f1565b6102b7610800565b6102d561080c565b6102d56103d936600461327d565b61081b565b6102b7610842565b6102b761084f565b6102b761096e565b6102d5610974565b6102b761040c3660046131fa565b610983565b6102d56109a4565b6102b76109b3565b6102b76109b9565b6102d5610a88565b6102b7610aa7565b6102ad6104473660046133a4565b610aad565b6102b7610b8b565b6102d5610b91565b610464610ba0565b6040516102c49190613627565b6102d5610bc8565b6102d5610bd7565b6102d5610be6565b6102ad6104973660046132ad565b610bf5565b6102b7610c0d565b6102b7610c13565b6102b7610c19565b6102b7610c3d565b6102b7610c49565b6102d5610c4f565b6104df6104da3660046131fa565b610c5e565b6040516102c491906135ee565b600061058b600560009054906101000a90046001600160a01b03166001600160a01b031663e9fc34616040518163ffffffff1660e01b815260040160206040518083038186803b15801561053f57600080fd5b505afa158015610553573d6000803e3d6000fd5b505050506040513d601f19601f820116820180604052508101906105779190613216565b6009548b906001600160a01b031685610cbc565b905061059c81898989898989610f6d565b505050505050505050565b600281565b600c546001600160a01b031681565b7f000000000000000000000000000000000000000000000000000000000000000081565b6105e7610a88565b6001600160a01b0316336001600160a01b0316146106205760405162461bcd60e51b8152600401610617906138e2565b60405180910390fd5b61062981611734565b50565b6016602052600090815260409020805460019091015482565b6001600160a01b0381166000908152601660205260408120546014548290610673908363ffffffff6117bf16565b90508015806106ac575060016001600160a01b03851660009081526010602052604090206003015460ff1660048111156106a957fe5b14155b156106bc57600092505050610708565b6001600160a01b03841660009081526010602052604081206002015490610701670de0b6b3a76400006106f5848663ffffffff61180816565b9063ffffffff61184216565b9450505050505b919050565b6809c2007651b250000081565b600e5481565b600061072d600e54611884565b905090565b600b546001600160a01b031681565b6001546001600160a01b031681565b6001600160a01b0381166000908152601660205260408120600101546015548290610673908363ffffffff6117bf16565b600080600061078f8561192d565b9150915060006107a08383876119b3565b93505050505b92915050565b603c81565b60195481565b60106020526000908152604090208054600182015460028301546003909301549192909160ff81169061010090046001600160801b031685565b6004546001600160a01b031681565b670de0b6b3a764000081565b6002546001600160a01b031681565b6017818154811061082857fe5b6000918252602090912001546001600160a01b0316905081565b6801158e460913d0000081565b60008054604080516272c7d360e71b8152905183926001600160a01b031691633963e980916004808301926020929190829003018186803b15801561089357600080fd5b505afa1580156108a7573d6000803e3d6000fd5b505050506040513d601f19601f820116820180604052508101906108cb9190613295565b90506000600160009054906101000a90046001600160a01b03166001600160a01b0316633963e9806040518163ffffffff1660e01b815260040160206040518083038186803b15801561091d57600080fd5b505afa158015610931573d6000803e3d6000fd5b505050506040513d601f19601f820116820180604052508101906109559190613295565b9050610967828263ffffffff6119e516565b9250505090565b60185481565b600a546001600160a01b031681565b6001600160a01b0381166000908152601a602052604081206107a690611a0a565b6000546001600160a01b031681565b60125481565b6000805460408051630a7b61df60e11b8152905183926001600160a01b0316916314f6c3be916004808301926020929190829003018186803b1580156109fe57600080fd5b505afa158015610a12573d6000803e3d6000fd5b505050506040513d601f19601f82011682018060405250810190610a369190613295565b90506000600160009054906101000a90046001600160a01b03166001600160a01b03166314f6c3be6040518163ffffffff1660e01b815260040160206040518083038186803b15801561091d57600080fd5b600080604051610a97906134f3565b6040519081900390205492915050565b60135481565b6000610b6d600560009054906101000a90046001600160a01b03166001600160a01b031663e9fc34616040518163ffffffff1660e01b815260040160206040518083038186803b158015610b0057600080fd5b505afa158015610b14573d6000803e3d6000fd5b505050506040513d601f19601f82011682018060405250810190610b389190613216565b6009546001600160a01b0316867f00000000000000000000000000000000000000000000000000000000000000008787611a0e565b9050610b7e818b8b8b8b8b8b610f6d565b5050505050505050505050565b60145481565b6003546001600160a01b031681565b6040518060400160405280600c81526020016b2a3937bb32a6b0b730b3b2b960a11b81525081565b6006546001600160a01b031681565b600d546001600160a01b031681565b6005546001600160a01b031681565b610c0487878787878787610f6d565b50505050505050565b60155481565b60115481565b7f000000000000000000000000000000000000000000000000000000000000000081565b670ddd4b8c6c7d70d881565b600f5481565b6009546001600160a01b031681565b600060016001600160a01b03831660009081526010602052604090206003015460ff166004811115610c8c57fe5b14610c9957506000610708565b506014546001600160a01b03821660009081526016602052604090205410919050565b600080856001600160a01b03166321df0da76040518163ffffffff1660e01b815260040160206040518083038186803b158015610cf857600080fd5b505afa158015610d0c573d6000803e3d6000fd5b505050506040513d601f19601f82011682018060405250810190610d309190613216565b90506000816001600160a01b03166370a08231306040518263ffffffff1660e01b8152600401610d609190613510565b60206040518083038186803b158015610d7857600080fd5b505afa158015610d8c573d6000803e3d6000fd5b505050506040513d601f19601f82011682018060405250810190610db09190613295565b9050306001600160a01b03831663605629d633838a8935610dd760408c0160208d016134ba565b8b604001358c606001356040518863ffffffff1660e01b8152600401610e039796959493929190613524565b600060405180830381600087803b158015610e1d57600080fd5b505af1158015610e31573d6000803e3d6000fd5b5050505086610ec283856001600160a01b03166370a08231856040518263ffffffff1660e01b8152600401610e669190613510565b60206040518083038186803b158015610e7e57600080fd5b505afa158015610e92573d6000803e3d6000fd5b505050506040513d601f19601f82011682018060405250810190610eb69190613295565b9063ffffffff6117bf16565b14610edf5760405162461bcd60e51b8152600401610617906136ee565b60405163fb2c922360e01b81526001600160a01b0389169063fb2c922390610f0f9089908b9033906004016135a0565b602060405180830381600087803b158015610f2957600080fd5b505af1158015610f3d573d6000803e3d6000fd5b505050506040513d601f19601f82011682018060405250810190610f619190613295565b98975050505050505050565b610f756130f8565b506040805160e0810182526000546001600160a01b03908116825260015481166020830152600954811692820192909252600b5482166060820152600d5482166080820152600854821660a082015260075490911660c0820152610fd7613134565b610fe083611c5b565b610fe8611d14565b600260009054906101000a90046001600160a01b03166001600160a01b0316630fdb11cf6040518163ffffffff1660e01b8152600401602060405180830381600087803b15801561103857600080fd5b505af115801561104c573d6000803e3d6000fd5b505050506040513d601f19601f820116820180604052508101906110709190613295565b60c0820181905261108090611de2565b61108989611e8f565b6110988260400151338b611eaf565b6110a061084f565b60e0820181905260408084015190516370a0823160e01b81526001600160a01b03909116906370a08231906110d9903390600401613510565b60206040518083038186803b1580156110f157600080fd5b505afa158015611105573d6000803e3d6000fd5b505050506040513d601f19601f820116820180604052508101906111299190613295565b111561113157fe5b888152608082015160c082015160009161114c918b90611f50565b15611158575087611305565b82608001516001600160a01b0316634d6228316040518163ffffffff1660e01b815260040160206040518083038186803b15801561119557600080fd5b505afa1580156111a9573d6000803e3d6000fd5b505050506040513d601f19601f820116820180604052508101906111cd9190613216565b90505b6001600160a01b038116158015906112795750600360009054906101000a90046001600160a01b03166001600160a01b031663794e57246040518163ffffffff1660e01b815260040160206040518083038186803b15801561123157600080fd5b505afa158015611245573d6000803e3d6000fd5b505050506040513d601f19601f820116820180604052508101906112699190613295565b611277828460c00151610781565b105b156113055782608001516001600160a01b031663b72703ac826040518263ffffffff1660e01b81526004016112ae9190613510565b60206040518083038186803b1580156112c657600080fd5b505afa1580156112da573d6000803e3d6000fd5b505050506040513d601f19601f820116820180604052508101906112fe9190613216565b90506111d0565b846113105760001994505b6001600160a01b038116158015906113285750815115155b80156113345750600085115b15611462576080830151604051632dc9c0eb60e21b8152600019909601956000916001600160a01b03169063b72703ac90611373908590600401613510565b60206040518083038186803b15801561138b57600080fd5b505afa15801561139f573d6000803e3d6000fd5b505050506040513d601f19601f820116820180604052508101906113c39190613216565b90506113d884600001518560200151846121b3565b6113e0613179565b6113f7858486600001518760c001518e8e8e6122c4565b905080604001511561140a575050611462565b805160208501516114209163ffffffff6119e516565b60208086019190915281015160408501516114409163ffffffff6119e516565b6040850152805184516114589163ffffffff6117bf16565b8452509050611310565b60008260400151116114865760405162461bcd60e51b815260040161061790613737565b61149d82604001518360c001518460e00151612538565b506114ab82604001516125ef565b6060830181905260408301516114c2919086612602565b8251600c5460608401516040516364a197f360e01b81526001600160a01b03938416936364a197f3936114fa93911691600401613565565b600060405180830381600087803b15801561151457600080fd5b505af1158015611528573d6000803e3d6000fd5b50505050600c60009054906101000a90046001600160a01b03166001600160a01b031663bb57ad206040518163ffffffff1660e01b8152600401600060405180830381600087803b15801561157c57600080fd5b505af1158015611590573d6000803e3d6000fd5b50505050606082015160408301516115a7916117bf565b60808301526020820151604080840151606085015191517f43a3f4082a4dbc33d78e317d2497d3a730bc7fc3574159dcea1056e62e5d9ad8936115ed938f939192613b9f565b60405180910390a182604001516001600160a01b0316639dc29fac3384602001516040518363ffffffff1660e01b815260040161162b929190613565565b600060405180830381600087803b15801561164557600080fd5b505af1158015611659573d6000803e3d6000fd5b50508451602085015160405163121cbc4d60e11b81526001600160a01b039092169350632439789a925061168f91600401613b48565b600060405180830381600087803b1580156116a957600080fd5b505af11580156116bd573d6000803e3d6000fd5b5050845160808501516040516364a197f360e01b81526001600160a01b0390921693506364a197f392506116f691339190600401613565565b600060405180830381600087803b15801561171057600080fd5b505af1158015611724573d6000803e3d6000fd5b5050505050505050505050505050565b6001600160a01b03811661175a5760405162461bcd60e51b8152600401610617906137b7565b806001600160a01b031661176c610a88565b6001600160a01b03167f8be0079c531659141344cd1fd0a4f28419497f9722a3daafe3b4186f6b6457e060405160405180910390a360006040516117af906134f3565b6040519081900390209190915550565b600061180183836040518060400160405280601e81526020017f536166654d6174683a207375627472616374696f6e206f766572666c6f770000815250612648565b9392505050565b600082611817575060006107a6565b8282028284828161182457fe5b04146118015760405162461bcd60e51b8152600401610617906138a1565b600061180183836040518060400160405280601a81526020017f536166654d6174683a206469766973696f6e206279207a65726f000000000000815250612674565b60006107a661191f83600360009054906101000a90046001600160a01b03166001600160a01b03166328d28b5b6040518163ffffffff1660e01b815260040160206040518083038186803b1580156118db57600080fd5b505afa1580156118ef573d6000803e3d6000fd5b505050506040513d601f19601f820116820180604052508101906119139190613295565b9063ffffffff6119e516565b670de0b6b3a76400006126ab565b600080600061193b84610645565b9050600061194885610750565b6001600160a01b03861660009081526010602052604081206001015491925090611978908463ffffffff6119e516565b6001600160a01b038716600090815260106020526040812054919250906119a5908463ffffffff6119e516565b919550909350505050915091565b600082156119da5760006119d1846106f5878663ffffffff61180816565b91506118019050565b506000199392505050565b6000828201838110156118015760405162461bcd60e51b815260040161061790613780565b5490565b600080876001600160a01b03166321df0da76040518163ffffffff1660e01b815260040160206040518083038186803b158015611a4a57600080fd5b505afa158015611a5e573d6000803e3d6000fd5b505050506040513d601f19601f82011682018060405250810190611a829190613216565b90506000816001600160a01b03166370a08231306040518263ffffffff1660e01b8152600401611ab29190613510565b60206040518083038186803b158015611aca57600080fd5b505afa158015611ade573d6000803e3d6000fd5b505050506040513d601f19601f82011682018060405250810190611b029190613295565b87516020015190915030906001600160a01b0388166330f28b7a8a611b2785856126c1565b338b8b6040518663ffffffff1660e01b8152600401611b4a959493929190613ad7565b600060405180830381600087803b158015611b6457600080fd5b505af1158015611b78573d6000803e3d6000fd5b5050505080611bad84866001600160a01b03166370a08231866040518263ffffffff1660e01b8152600401610e669190613510565b14611bca5760405162461bcd60e51b8152600401610617906136ee565b60405163fb2c922360e01b81526001600160a01b038c169063fb2c922390611bfa908d90859033906004016135a0565b602060405180830381600087803b158015611c1457600080fd5b505af1158015611c28573d6000803e3d6000fd5b505050506040513d601f19601f82011682018060405250810190611c4c9190613295565b9b9a5050505050505050505050565b600360009054906101000a90046001600160a01b03166001600160a01b03166328d28b5b6040518163ffffffff1660e01b815260040160206040518083038186803b158015611ca957600080fd5b505afa158015611cbd573d6000803e3d6000fd5b505050506040513d601f19601f82011682018060405250810190611ce19190613295565b8110158015611cf85750670de0b6b3a76400008111155b6106295760405162461bcd60e51b8152600401610617906139b7565b600a5460408051631e425be160e11b815290516000926001600160a01b031691633c84b7c2916004808301926020929190829003018186803b158015611d5957600080fd5b505afa158015611d6d573d6000803e3d6000fd5b505050506040513d601f19601f82011682018060405250810190611d919190613295565b9050611dc3817f000000000000000000000000000000000000000000000000000000000000000063ffffffff6119e516565b4210156106295760405162461bcd60e51b815260040161061790613843565b600360009054906101000a90046001600160a01b03166001600160a01b031663794e57246040518163ffffffff1660e01b815260040160206040518083038186803b158015611e3057600080fd5b505afa158015611e44573d6000803e3d6000fd5b505050506040513d601f19601f82011682018060405250810190611e689190613295565b611e71826126f3565b10156106295760405162461bcd60e51b815260040161061790613a07565b600081116106295760405162461bcd60e51b815260040161061790613913565b6040516370a0823160e01b815281906001600160a01b038516906370a0823190611edd908690600401613510565b60206040518083038186803b158015611ef557600080fd5b505afa158015611f09573d6000803e3d6000fd5b505050506040513d601f19601f82011682018060405250810190611f2d9190613295565b1015611f4b5760405162461bcd60e51b81526004016106179061367a565b505050565b60006001600160a01b0383161580611fe15750604051630bb7c8fd60e31b81526001600160a01b03851690635dbe47e890611f8f908690600401613510565b60206040518083038186803b158015611fa757600080fd5b505afa158015611fbb573d6000803e3d6000fd5b505050506040513d601f19601f82011682018060405250810190611fdf919061325d565b155b806120795750600360009054906101000a90046001600160a01b03166001600160a01b031663794e57246040518163ffffffff1660e01b815260040160206040518083038186803b15801561203557600080fd5b505afa158015612049573d6000803e3d6000fd5b505050506040513d601f19601f8201168201806040525081019061206d9190613295565b6120778484610781565b105b1561208657506000611801565b60405163765e015960e01b81526000906001600160a01b0386169063765e0159906120b5908790600401613510565b60206040518083038186803b1580156120cd57600080fd5b505afa1580156120e1573d6000803e3d6000fd5b505050506040513d601f19601f820116820180604052508101906121059190613216565b90506001600160a01b03811615806121aa5750600360009054906101000a90046001600160a01b03166001600160a01b031663794e57246040518163ffffffff1660e01b815260040160206040518083038186803b15801561216657600080fd5b505afa15801561217a573d6000803e3d6000fd5b505050506040513d601f19601f8201168201806040525081019061219e9190613295565b6121a88285610781565b105b95945050505050565b6121bc81610c5e565b15611f4b576121ca8161271f565b60006121d582610645565b905060006121e283610750565b6001600160a01b038416600090815260106020526040902060010154909150612211908363ffffffff6119e516565b6001600160a01b0384166000908152601060205260409020600181019190915554612242908263ffffffff6119e516565b6001600160a01b03841660009081526010602052604090205561226483612768565b612270858583856127d0565b6001600160a01b038316600081815260106020526040808220805460018201546002909201549251600080516020613bf7833981519152946122b594929392916135f9565b60405180910390a25050505050565b6122cc613179565b6001600160a01b038716600090815260106020526040902054612309908790612304906801158e460913d0000063ffffffff6117bf16565b6126ab565b80825261232a9086906106f590670de0b6b3a764000063ffffffff61180816565b60208083019190915281516001600160a01b03891660009081526010909252604082205461235d9163ffffffff6117bf16565b6020808401516001600160a01b038b1660009081526010909252604082206001015492935090916123939163ffffffff6117bf16565b90506801158e460913d0000082141561240c576123af896128f0565b6123ba896004612940565b6123cf8a8a6801158e460913d0000084612a4c565b886001600160a01b0316600080516020613bf7833981519152600080600060036040516123ff94939291906135f9565b60405180910390a261252a565b60006124188284612baf565b9050848114158061243957506809c2007651b250000061243784612be4565b105b1561244d575050600160408301525061252d565b8a608001516001600160a01b0316632be212608b838a8a6040518563ffffffff1660e01b815260040161248394939291906135c3565b600060405180830381600087803b15801561249d57600080fd5b505af11580156124b1573d6000803e3d6000fd5b5050506001600160a01b038b166000908152601060205260409020848155600101839055506124df8a612bff565b506001600160a01b038a1660008181526010602052604090819020600201549051600080516020613bf78339815191529161252091879187916003906135f9565b60405180910390a2505b50505b979650505050505050565b600080612543612ca6565b9050600061255b846106f5888863ffffffff61180816565b9050600061258061257383600263ffffffff61184216565b849063ffffffff6119e516565b905061259481670de0b6b3a76400006126ab565b9050600081116125a057fe5b600e8190556040517fc454ee9b76c52f782a256af821b857ca6e125d1e3333bcede402fec2bed9600c906125d5908390613b48565b60405180910390a16125e5612cea565b9695505050505050565b60006107a66125fc610720565b83612d3f565b6000612620836106f586670de0b6b3a764000063ffffffff61180816565b9050818111156126425760405162461bcd60e51b815260040161061790613a51565b50505050565b6000818484111561266c5760405162461bcd60e51b81526004016106179190613627565b505050900390565b600081836126955760405162461bcd60e51b81526004016106179190613627565b5060008385816126a157fe5b0495945050505050565b60008183106126ba5781611801565b5090919050565b6126c961319c565b6126d161319c565b5050604080518082019091526001600160a01b03929092168252602082015290565b6000806126fe6109b9565b9050600061270a61084f565b90506127178282866119b3565b949350505050565b60016001600160a01b03821660009081526010602052604090206003015460ff16600481111561274b57fe5b146106295760405162461bcd60e51b815260040161061790613a88565b601480546001600160a01b038316600090815260166020526040908190209182556015546001909201829055915491517fc437f324d85e369394148dd9d62f98f534b382e01ed3dd2eb98138fb6d3ab49a926127c5929091613b51565b60405180910390a150565b60405163121cbc4d60e11b81526001600160a01b03841690632439789a906127fc908590600401613b48565b600060405180830381600087803b15801561281657600080fd5b505af115801561282a573d6000803e3d6000fd5b505060405163f2e91d7160e01b81526001600160a01b038716925063f2e91d71915061285a908590600401613b48565b600060405180830381600087803b15801561287457600080fd5b505af1158015612888573d6000803e3d6000fd5b505060405163be41205f60e01b81526001600160a01b038616925063be41205f91506128b8908490600401613b48565b600060405180830381600087803b1580156128d257600080fd5b505af11580156128e6573d6000803e3d6000fd5b5050505050505050565b6001600160a01b03811660009081526010602052604090206002015460115461291f908263ffffffff6117bf16565b601155506001600160a01b0316600090815260106020526040812060020155565b600081600481111561294e57fe5b141580156129685750600181600481111561296557fe5b14155b61296e57fe5b60175461297a81612d7f565b6001600160a01b0383166000908152601060205260409020600301805483919060ff191660018360048111156129ac57fe5b02179055506001600160a01b03831660009081526010602090815260408083206001808201859055908490556016909252822082815501556129ee8382612e25565b600d54604051631484968760e11b81526001600160a01b03909116906329092d0e90612a1e908690600401613510565b600060405180830381600087803b158015612a3857600080fd5b505af1158015610c04573d6000803e3d6000fd5b6040808501516007549151632770a7eb60e21b81526001600160a01b0391821692639dc29fac92612a84929116908690600401613565565b600060405180830381600087803b158015612a9e57600080fd5b505af1158015612ab2573d6000803e3d6000fd5b5050855160405163121cbc4d60e11b81526001600160a01b039091169250632439789a9150612ae5908590600401613b48565b600060405180830381600087803b158015612aff57600080fd5b505af1158015612b13573d6000803e3d6000fd5b505050508360a001516001600160a01b0316633f10abab84836040518363ffffffff1660e01b8152600401612b49929190613565565b600060405180830381600087803b158015612b6357600080fd5b505af1158015612b77573d6000803e3d6000fd5b5050855160a08701516040516364a197f360e01b81526001600160a01b0390921693506364a197f392506128b8918590600401613565565b60008115612bdb57612bd4826106f58568056bc75e2d6310000063ffffffff61180816565b90506107a6565b506000196107a6565b60006107a6826801158e460913d0000063ffffffff6117bf16565b6001600160a01b0381166000908152601060205260408120600101548190612c2690612fc6565b6001600160a01b038416600090815260106020526040902060020180549082905560115491925090612c64908390611913908463ffffffff6117bf16565b60118190556040517f6bac5e0eb3c44eb03a60ab11ec3a2c051771616aecadbcfff2630aabae52038291612c9791613b48565b60405180910390a15092915050565b600080612cb1613002565b90506000612cc7670ddd4b8c6c7d70d88361301e565b9050610967670de0b6b3a76400006106f583600e5461180890919063ffffffff16565b6000612d01600f54426117bf90919063ffffffff16565b9050603c81106106295742600f8190556040517f860f8d2f0c74dd487e89e2883e3b25b8159ce1e1b3433a291cba7b82c508f3bc916127c591613b48565b600080612d5e670de0b6b3a76400006106f5868663ffffffff61180816565b90508281106118015760405162461bcd60e51b815260040161061790613961565b600181118015612e095750600d546040805163de8fa43160e01b815290516001926001600160a01b03169163de8fa431916004808301926020929190829003018186803b158015612dcf57600080fd5b505afa158015612de3573d6000803e3d6000fd5b505050506040513d601f19601f82011682018060405250810190612e079190613295565b115b6106295760405162461bcd60e51b8152600401610617906137f9565b6001600160a01b03821660009081526010602052604081206003015460ff1690816004811115612e5157fe5b14158015612e6b57506001816004811115612e6857fe5b14155b612e7157fe5b6001600160a01b03831660009081526010602052604081206003015461010090046001600160801b0316908390612ea98260016117bf565b905080836001600160801b03161115612ebe57fe5b600060178281548110612ecd57fe5b600091825260209091200154601780546001600160a01b03909216925082916001600160801b038716908110612eff57fe5b600091825260208083209190910180546001600160a01b0319166001600160a01b03948516179055918316815260109091526040908190206003018054610100600160881b0319166101006001600160801b03881602179055517f02b04ae5f7be9ca7c103293a2aa15f3c339d15d6eda53b721fef7b0e609c831a90612f88908390879061357e565b60405180910390a16017805480612f9b57fe5b600082815260209020810160001990810180546001600160a01b031916905501905550505050505050565b60008060135460001415612fdb5750816107a6565b600060125411612fe757fe5b6118016013546106f56012548661180890919063ffffffff16565b600061072d603c6106f5600f54426117bf90919063ffffffff16565b6000631f54050082111561303457631f54050091505b816130485750670de0b6b3a76400006107a6565b670de0b6b3a764000083835b60018111156130bf57600281066130895761306f82836130c5565b915061308281600263ffffffff61184216565b90506130ba565b61309382846130c5565b925061309f82836130c5565b91506130b760026106f583600163ffffffff6117bf16565b90505b613054565b6107a082845b6000806130d8848463ffffffff61180816565b9050612717670de0b6b3a76400006106f5836706f05b59d3b200006119e5565b6040805160e081018252600080825260208201819052918101829052606081018290526080810182905260a0810182905260c081019190915290565b60405180610100016040528060008152602001600081526020016000815260200160008152602001600081526020016000815260200160008152602001600081525090565b604051806060016040528060008152602001600081526020016000151581525090565b604080518082019091526000808252602082015290565b60008083601f8401126131c4578182fd5b50813567ffffffffffffffff8111156131db578182fd5b6020830191508360208285010111156131f357600080fd5b9250929050565b60006020828403121561320b578081fd5b813561180181613be1565b600060208284031215613227578081fd5b815161180181613be1565b60008060408385031215613244578081fd5b823561324f81613be1565b946020939093013593505050565b60006020828403121561326e578081fd5b81518015158114611801578182fd5b60006020828403121561328e578081fd5b5035919050565b6000602082840312156132a6578081fd5b5051919050565b600080600080600080600060e0888a0312156132c7578283fd5b8735965060208801356132d981613be1565b955060408801356132e981613be1565b945060608801356132f981613be1565b9699959850939660808101359560a0820135955060c0909101359350915050565b600080600080600080600080888a03610160811215613337578182fd5b8935985060208a013561334981613be1565b975060408a013561335981613be1565b965060608a013561336981613be1565b955060808a810135955060a08b0135945060c08b0135935060df1982011215613390578182fd5b5060e0890190509295985092959890939650565b6000806000806000806000806000808a8c036101808112156133c4578283fd5b8b359a5060208c01356133d681613be1565b995060408c01356133e681613be1565b985060608c01356133f681613be1565b975060808c810135975060a08d0135965060c08d0135955060df1982019081121561341f578384fd5b6134296060613bba565b91506040811215613438578384fd5b506134436040613bba565b60e08d013561345181613be1565b81526101008d01356020808301919091529082526101208d0135908201526101408c0135604082015292506101608b013567ffffffffffffffff811115613496578283fd5b6134a28d828e016131b3565b8194508093505050509295989b9194979a5092959850565b6000602082840312156134cb578081fd5b813560ff81168114611801578182fd5b80516001600160a01b03168252602090810151910152565b7035b2bc9737bbb730b136329737bbb732b960791b815260110190565b6001600160a01b0391909116815260200190565b6001600160a01b0397881681529590961660208601526040850193909352606084019190915260ff16608083015260a082015260c081019190915260e00190565b6001600160a01b03929092168252602082015260400190565b6001600160a01b039290921682526001600160801b0316602082015260400190565b6001600160a01b0393841681526020810192909252909116604082015260600190565b6001600160a01b03948516815260208101939093529083166040830152909116606082015260800190565b901515815260200190565b8481526020810184905260408101839052608081016004831061361857fe5b82606083015295945050505050565b6000602080835283518082850152825b8181101561365357858101830151858201604001528201613637565b818111156136645783604083870101525b50601f01601f1916929092016040019392505050565b6020808252604e908201527f54726f76654d616e616765723a2052657175657374656420726564656d70746960408201527f6f6e20616d6f756e74206d757374206265203c3d20757365722773205a55534460608201526d20746f6b656e2062616c616e636560901b608082015260a00190565b60208082526029908201527f444c4c52207472616e7366657272656420616d6f756e742076616c69646174696040820152681bdb8819985a5b195960ba1b606082015260800190565b60208082526029908201527f54726f76654d616e616765723a20556e61626c6520746f2072656465656d20616040820152681b9e48185b5bdd5b9d60ba1b606082015260800190565b6020808252601b908201527f536166654d6174683a206164646974696f6e206f766572666c6f770000000000604082015260600190565b60208082526022908201527f4f776e61626c653a3a7365744f776e65723a20696e76616c6964206164647265604082015261737360f01b606082015260800190565b6020808252602a908201527f54726f76654d616e616765723a204f6e6c79206f6e652074726f766520696e206040820152697468652073797374656d60b01b606082015260800190565b602080825260409082018190527f54726f76654d616e616765723a20526564656d7074696f6e7320617265206e6f908201527f7420616c6c6f77656420647572696e6720626f6f747374726170207068617365606082015260800190565b60208082526021908201527f536166654d6174683a206d756c7469706c69636174696f6e206f766572666c6f6040820152607760f81b606082015260800190565b60208082526017908201527613dddb98589b194e8e881858d8d95cdcc819195b9a5959604a1b604082015260600190565b6020808252602e908201527f54726f76654d616e616765723a20416d6f756e74206d7573742062652067726560408201526d61746572207468616e207a65726f60901b606082015260800190565b60208082526036908201527f54726f76654d616e616765723a2046656520776f756c642065617420757020616040820152751b1b081c995d1d5c9b99590818dbdb1b185d195c985b60521b606082015260800190565b60208082526030908201527f4d6178206665652070657263656e74616765206d75737420626520626574776560408201526f656e20302e352520616e64203130302560801b606082015260800190565b6020808252602a908201527f54726f76654d616e616765723a2043616e6e6f742072656465656d207768656e604082015269102a21a9101e1026a1a960b11b606082015260800190565b6020808252601d908201527f4665652065786365656465642070726f7669646564206d6178696d756d000000604082015260600190565b6020808252602f908201527f54726f76654d616e616765723a2054726f766520646f6573206e6f742065786960408201526e1cdd081bdc881a5cc818db1bdcd959608a1b606082015260800190565b6000610100613ae78389516134db565b6020880151604084015260408801516060840152613b0860808401886134db565b6001600160a01b03861660c084015260e083018190528201839052610120838582850137828401810191909152601f909201601f19160101949350505050565b90815260200190565b918252602082015260400190565b858152602081018590526040810184905260a0810160058410613b7e57fe5b60608201939093526001600160801b03919091166080909101529392505050565b93845260208401929092526040830152606082015260800190565b60405181810167ffffffffffffffff81118282101715613bd957600080fd5b604052919050565b6001600160a01b038116811461062957600080fdfec3770d654ed33aeea6bf11ac8ef05d02a6a04ed4686dd2f624d853bbec43cc8ba2646970667358221220e6d7f2bb83a833a083691b872a64df03d2cc05589726fc813c4cecbc35f4d10d64736f6c634300060b0033",
    "devdoc": {
        "kind": "dev",
        "methods": {
            "getOwner()": {
                "returns": {
                    "_owner": "Address of the owner. "
                }
            },
            "nonces(address)": {
                "details": "getter for currernt nonce",
                "params": {
                    "owner": "address of owner"
                },
                "returns": {
                    "_0": "current nonce of the owner's address"
                }
            },
            "setOwner(address)": {
                "params": {
                    "_owner": "Address of the owner. "
                }
            }
        },
        "version": 1
    },
    "userdoc": {
        "kind": "user",
        "methods": {
            "BETA()": {
                "notice": "BETA: 18 digit decimal. Parameter by which to divide the redeemed fraction, in order to calc the new base rate from a redemption. Corresponds to (1 / ALPHA) in the white paper."
            },
            "BOOTSTRAP_PERIOD()": {
                "notice": "During bootsrap period redemptions are not allowed"
            },
            "MIN_NET_DEBT()": {
                "notice": "Minimum amount of net ZUSD debt a trove must have"
            },
            "ZUSD_GAS_COMPENSATION()": {
                "notice": "Amount of ZUSD to be locked in gas pool on opening troves"
            },
            "_getCurrentICR(address,uint256)": {
                "notice": "Return the current collateral ratio (ICR) of a given Trove. Takes a trove's pending coll and debt rewards from redistributions into account."
            },
            "_getPendingETHReward(address)": {
                "notice": "Get the borrower's pending accumulated ETH reward, earned by their stake"
            },
            "_getPendingZUSDDebtReward(address)": {
                "notice": "Get the borrower's pending accumulated ZUSD reward, earned by their stake"
            },
            "constructor": "Constructor ",
            "getOwner()": {
                "notice": "Return address of the owner."
            },
            "redeemCollateralViaDLLR(uint256,address,address,address,uint256,uint256,uint256,(uint256,uint8,bytes32,bytes32))": {
                "notice": "DLLR _owner can use Sovryn Mynt to convert DLLR to ZUSD, then use the Zero redemption mechanism to redeem ZUSD for RBTC, all in a single transaction"
            },
            "redeemCollateralViaDllrWithPermit2(uint256,address,address,address,uint256,uint256,uint256,((address,uint256),uint256,uint256),bytes)": {
                "notice": "DLLR _owner can use Sovryn Mynt to convert DLLR to ZUSD, then use the Zero redemption mechanism to redeem ZUSD for RBTC, all in a single transaction"
            },
            "setOwner(address)": {
                "notice": "Set address of the owner (only owner can call this function)"
            }
        },
        "notice": "This contract is designed to be used via delegatecall from the TroveManager contract TroveManagerBase constructor param is bootsrap period when redemptions are not allowed",
        "version": 1
    },
    "storageLayout": {
        "storage": [
            {
                "astId": 5491,
                "contract": "contracts/Dependencies/TroveManagerRedeemOps.sol:TroveManagerRedeemOps",
                "label": "activePool",
                "offset": 0,
                "slot": "0",
                "type": "t_contract(IActivePool)19549"
            },
            {
                "astId": 5493,
                "contract": "contracts/Dependencies/TroveManagerRedeemOps.sol:TroveManagerRedeemOps",
                "label": "defaultPool",
                "offset": 0,
                "slot": "1",
                "type": "t_contract(IDefaultPool)20221"
            },
            {
                "astId": 5496,
                "contract": "contracts/Dependencies/TroveManagerRedeemOps.sol:TroveManagerRedeemOps",
                "label": "priceFeed",
                "offset": 0,
                "slot": "2",
                "type": "t_contract(IPriceFeed)20450"
            },
            {
                "astId": 5499,
                "contract": "contracts/Dependencies/TroveManagerRedeemOps.sol:TroveManagerRedeemOps",
                "label": "liquityBaseParams",
                "offset": 0,
                "slot": "3",
                "type": "t_contract(ILiquityBaseParams)20371"
            },
            {
                "astId": 35317,
                "contract": "contracts/Dependencies/TroveManagerRedeemOps.sol:TroveManagerRedeemOps",
                "label": "troveManagerRedeemOps",
                "offset": 0,
                "slot": "4",
                "type": "t_address"
            },
            {
                "astId": 35319,
                "contract": "contracts/Dependencies/TroveManagerRedeemOps.sol:TroveManagerRedeemOps",
                "label": "borrowerOperationsAddress",
                "offset": 0,
                "slot": "5",
                "type": "t_address"
            },
            {
                "astId": 35321,
                "contract": "contracts/Dependencies/TroveManagerRedeemOps.sol:TroveManagerRedeemOps",
                "label": "_stabilityPool",
                "offset": 0,
                "slot": "6",
                "type": "t_contract(IStabilityPool)21093"
            },
            {
                "astId": 35323,
                "contract": "contracts/Dependencies/TroveManagerRedeemOps.sol:TroveManagerRedeemOps",
                "label": "gasPoolAddress",
                "offset": 0,
                "slot": "7",
                "type": "t_address"
            },
            {
                "astId": 35325,
                "contract": "contracts/Dependencies/TroveManagerRedeemOps.sol:TroveManagerRedeemOps",
                "label": "collSurplusPool",
                "offset": 0,
                "slot": "8",
                "type": "t_contract(ICollSurplusPool)20122"
            },
            {
                "astId": 35327,
                "contract": "contracts/Dependencies/TroveManagerRedeemOps.sol:TroveManagerRedeemOps",
                "label": "_zusdToken",
                "offset": 0,
                "slot": "9",
                "type": "t_contract(IZUSDToken)21834"
            },
            {
                "astId": 35329,
                "contract": "contracts/Dependencies/TroveManagerRedeemOps.sol:TroveManagerRedeemOps",
                "label": "_zeroToken",
                "offset": 0,
                "slot": "10",
                "type": "t_contract(IZEROToken)21775"
            },
            {
                "astId": 35331,
                "contract": "contracts/Dependencies/TroveManagerRedeemOps.sol:TroveManagerRedeemOps",
                "label": "_zeroStaking",
                "offset": 0,
                "slot": "11",
                "type": "t_contract(IZEROStaking)21752"
            },
            {
                "astId": 35333,
                "contract": "contracts/Dependencies/TroveManagerRedeemOps.sol:TroveManagerRedeemOps",
                "label": "feeDistributor",
                "offset": 0,
                "slot": "12",
                "type": "t_contract(IFeeDistributor)20290"
            },
            {
                "astId": 35335,
                "contract": "contracts/Dependencies/TroveManagerRedeemOps.sol:TroveManagerRedeemOps",
                "label": "sortedTroves",
                "offset": 0,
                "slot": "13",
                "type": "t_contract(ISortedTroves)20809"
            },
            {
                "astId": 35337,
                "contract": "contracts/Dependencies/TroveManagerRedeemOps.sol:TroveManagerRedeemOps",
                "label": "baseRate",
                "offset": 0,
                "slot": "14",
                "type": "t_uint256"
            },
            {
                "astId": 35339,
                "contract": "contracts/Dependencies/TroveManagerRedeemOps.sol:TroveManagerRedeemOps",
                "label": "lastFeeOperationTime",
                "offset": 0,
                "slot": "15",
                "type": "t_uint256"
            },
            {
                "astId": 35360,
                "contract": "contracts/Dependencies/TroveManagerRedeemOps.sol:TroveManagerRedeemOps",
                "label": "Troves",
                "offset": 0,
                "slot": "16",
                "type": "t_mapping(t_address,t_struct(Trove)35356_storage)"
            },
            {
                "astId": 35362,
                "contract": "contracts/Dependencies/TroveManagerRedeemOps.sol:TroveManagerRedeemOps",
                "label": "totalStakes",
                "offset": 0,
                "slot": "17",
                "type": "t_uint256"
            },
            {
                "astId": 35364,
                "contract": "contracts/Dependencies/TroveManagerRedeemOps.sol:TroveManagerRedeemOps",
                "label": "totalStakesSnapshot",
                "offset": 0,
                "slot": "18",
                "type": "t_uint256"
            },
            {
                "astId": 35366,
                "contract": "contracts/Dependencies/TroveManagerRedeemOps.sol:TroveManagerRedeemOps",
                "label": "totalCollateralSnapshot",
                "offset": 0,
                "slot": "19",
                "type": "t_uint256"
            },
            {
                "astId": 35368,
                "contract": "contracts/Dependencies/TroveManagerRedeemOps.sol:TroveManagerRedeemOps",
                "label": "L_ETH",
                "offset": 0,
                "slot": "20",
                "type": "t_uint256"
            },
            {
                "astId": 35370,
                "contract": "contracts/Dependencies/TroveManagerRedeemOps.sol:TroveManagerRedeemOps",
                "label": "L_ZUSDDebt",
                "offset": 0,
                "slot": "21",
                "type": "t_uint256"
            },
            {
                "astId": 35374,
                "contract": "contracts/Dependencies/TroveManagerRedeemOps.sol:TroveManagerRedeemOps",
                "label": "rewardSnapshots",
                "offset": 0,
                "slot": "22",
                "type": "t_mapping(t_address,t_struct(RewardSnapshot)35379_storage)"
            },
            {
                "astId": 35382,
                "contract": "contracts/Dependencies/TroveManagerRedeemOps.sol:TroveManagerRedeemOps",
                "label": "TroveOwners",
                "offset": 0,
                "slot": "23",
                "type": "t_array(t_address)dyn_storage"
            },
            {
                "astId": 35384,
                "contract": "contracts/Dependencies/TroveManagerRedeemOps.sol:TroveManagerRedeemOps",
                "label": "lastETHError_Redistribution",
                "offset": 0,
                "slot": "24",
                "type": "t_uint256"
            },
            {
                "astId": 35386,
                "contract": "contracts/Dependencies/TroveManagerRedeemOps.sol:TroveManagerRedeemOps",
                "label": "lastZUSDDebtError_Redistribution",
                "offset": 0,
                "slot": "25",
                "type": "t_uint256"
            },
            {
                "astId": 22928,
                "contract": "contracts/Dependencies/TroveManagerRedeemOps.sol:TroveManagerRedeemOps",
                "label": "_permit2Nonces",
                "offset": 0,
                "slot": "26",
                "type": "t_mapping(t_address,t_struct(Counter)5190_storage)"
            }
        ],
        "types": {
            "t_address": {
                "encoding": "inplace",
                "label": "address",
                "numberOfBytes": "20"
            },
            "t_array(t_address)dyn_storage": {
                "base": "t_address",
                "encoding": "dynamic_array",
                "label": "address[]",
                "numberOfBytes": "32"
            },
            "t_contract(IActivePool)19549": {
                "encoding": "inplace",
                "label": "contract IActivePool",
                "numberOfBytes": "20"
            },
            "t_contract(ICollSurplusPool)20122": {
                "encoding": "inplace",
                "label": "contract ICollSurplusPool",
                "numberOfBytes": "20"
            },
            "t_contract(IDefaultPool)20221": {
                "encoding": "inplace",
                "label": "contract IDefaultPool",
                "numberOfBytes": "20"
            },
            "t_contract(IFeeDistributor)20290": {
                "encoding": "inplace",
                "label": "contract IFeeDistributor",
                "numberOfBytes": "20"
            },
            "t_contract(ILiquityBaseParams)20371": {
                "encoding": "inplace",
                "label": "contract ILiquityBaseParams",
                "numberOfBytes": "20"
            },
            "t_contract(IPriceFeed)20450": {
                "encoding": "inplace",
                "label": "contract IPriceFeed",
                "numberOfBytes": "20"
            },
            "t_contract(ISortedTroves)20809": {
                "encoding": "inplace",
                "label": "contract ISortedTroves",
                "numberOfBytes": "20"
            },
            "t_contract(IStabilityPool)21093": {
                "encoding": "inplace",
                "label": "contract IStabilityPool",
                "numberOfBytes": "20"
            },
            "t_contract(IZEROStaking)21752": {
                "encoding": "inplace",
                "label": "contract IZEROStaking",
                "numberOfBytes": "20"
            },
            "t_contract(IZEROToken)21775": {
                "encoding": "inplace",
                "label": "contract IZEROToken",
                "numberOfBytes": "20"
            },
            "t_contract(IZUSDToken)21834": {
                "encoding": "inplace",
                "label": "contract IZUSDToken",
                "numberOfBytes": "20"
            },
            "t_enum(Status)35345": {
                "encoding": "inplace",
                "label": "enum TroveManagerStorage.Status",
                "numberOfBytes": "1"
            },
            "t_mapping(t_address,t_struct(Counter)5190_storage)": {
                "encoding": "mapping",
                "key": "t_address",
                "label": "mapping(address => struct Counters.Counter)",
                "numberOfBytes": "32",
                "value": "t_struct(Counter)5190_storage"
            },
            "t_mapping(t_address,t_struct(RewardSnapshot)35379_storage)": {
                "encoding": "mapping",
                "key": "t_address",
                "label": "mapping(address => struct TroveManagerStorage.RewardSnapshot)",
                "numberOfBytes": "32",
                "value": "t_struct(RewardSnapshot)35379_storage"
            },
            "t_mapping(t_address,t_struct(Trove)35356_storage)": {
                "encoding": "mapping",
                "key": "t_address",
                "label": "mapping(address => struct TroveManagerStorage.Trove)",
                "numberOfBytes": "32",
                "value": "t_struct(Trove)35356_storage"
            },
            "t_struct(Counter)5190_storage": {
                "encoding": "inplace",
                "label": "struct Counters.Counter",
                "members": [
                    {
                        "astId": 5189,
                        "contract": "contracts/Dependencies/TroveManagerRedeemOps.sol:TroveManagerRedeemOps",
                        "label": "_value",
                        "offset": 0,
                        "slot": "0",
                        "type": "t_uint256"
                    }
                ],
                "numberOfBytes": "32"
            },
            "t_struct(RewardSnapshot)35379_storage": {
                "encoding": "inplace",
                "label": "struct TroveManagerStorage.RewardSnapshot",
                "members": [
                    {
                        "astId": 35376,
                        "contract": "contracts/Dependencies/TroveManagerRedeemOps.sol:TroveManagerRedeemOps",
                        "label": "ETH",
                        "offset": 0,
                        "slot": "0",
                        "type": "t_uint256"
                    },
                    {
                        "astId": 35378,
                        "contract": "contracts/Dependencies/TroveManagerRedeemOps.sol:TroveManagerRedeemOps",
                        "label": "ZUSDDebt",
                        "offset": 0,
                        "slot": "1",
                        "type": "t_uint256"
                    }
                ],
                "numberOfBytes": "64"
            },
            "t_struct(Trove)35356_storage": {
                "encoding": "inplace",
                "label": "struct TroveManagerStorage.Trove",
                "members": [
                    {
                        "astId": 35347,
                        "contract": "contracts/Dependencies/TroveManagerRedeemOps.sol:TroveManagerRedeemOps",
                        "label": "debt",
                        "offset": 0,
                        "slot": "0",
                        "type": "t_uint256"
                    },
                    {
                        "astId": 35349,
                        "contract": "contracts/Dependencies/TroveManagerRedeemOps.sol:TroveManagerRedeemOps",
                        "label": "coll",
                        "offset": 0,
                        "slot": "1",
                        "type": "t_uint256"
                    },
                    {
                        "astId": 35351,
                        "contract": "contracts/Dependencies/TroveManagerRedeemOps.sol:TroveManagerRedeemOps",
                        "label": "stake",
                        "offset": 0,
                        "slot": "2",
                        "type": "t_uint256"
                    },
                    {
                        "astId": 35353,
                        "contract": "contracts/Dependencies/TroveManagerRedeemOps.sol:TroveManagerRedeemOps",
                        "label": "status",
                        "offset": 0,
                        "slot": "3",
                        "type": "t_enum(Status)35345"
                    },
                    {
                        "astId": 35355,
                        "contract": "contracts/Dependencies/TroveManagerRedeemOps.sol:TroveManagerRedeemOps",
                        "label": "arrayIndex",
                        "offset": 1,
                        "slot": "3",
                        "type": "t_uint128"
                    }
                ],
                "numberOfBytes": "128"
            },
            "t_uint128": {
                "encoding": "inplace",
                "label": "uint128",
                "numberOfBytes": "16"
            },
            "t_uint256": {
                "encoding": "inplace",
                "label": "uint256",
                "numberOfBytes": "32"
            }
        }
    }
}