{
    "address": "0x82B09695ee4F214f3A0803683C4AaEc332E4E0a3",
    "abi": [
        {
            "inputs": [
                {
                    "internalType": "uint256",
                    "name": "_bootstrapPeriod",
                    "type": "uint256"
                },
                {
                    "internalType": "address",
                    "name": "_permit2",
                    "type": "address"
                }
            ],
            "stateMutability": "nonpayable",
            "type": "constructor"
        },
        {
            "anonymous": false,
            "inputs": [
                {
                    "indexed": false,
                    "internalType": "address",
                    "name": "_activePoolAddress",
                    "type": "address"
                }
            ],
            "name": "ActivePoolAddressChanged",
            "type": "event"
        },
        {
            "anonymous": false,
            "inputs": [
                {
                    "indexed": false,
                    "internalType": "uint256",
                    "name": "_baseRate",
                    "type": "uint256"
                }
            ],
            "name": "BaseRateUpdated",
            "type": "event"
        },
        {
            "anonymous": false,
            "inputs": [
                {
                    "indexed": false,
                    "internalType": "address",
                    "name": "_newBorrowerOperationsAddress",
                    "type": "address"
                }
            ],
            "name": "BorrowerOperationsAddressChanged",
            "type": "event"
        },
        {
            "anonymous": false,
            "inputs": [
                {
                    "indexed": false,
                    "internalType": "address",
                    "name": "_collSurplusPoolAddress",
                    "type": "address"
                }
            ],
            "name": "CollSurplusPoolAddressChanged",
            "type": "event"
        },
        {
            "anonymous": false,
            "inputs": [
                {
                    "indexed": false,
                    "internalType": "address",
                    "name": "_defaultPoolAddress",
                    "type": "address"
                }
            ],
            "name": "DefaultPoolAddressChanged",
            "type": "event"
        },
        {
            "anonymous": false,
            "inputs": [
                {
                    "indexed": false,
                    "internalType": "address",
                    "name": "_feeDistributorAddress",
                    "type": "address"
                }
            ],
            "name": "FeeDistributorAddressChanged",
            "type": "event"
        },
        {
            "anonymous": false,
            "inputs": [
                {
                    "indexed": false,
                    "internalType": "address",
                    "name": "_gasPoolAddress",
                    "type": "address"
                }
            ],
            "name": "GasPoolAddressChanged",
            "type": "event"
        },
        {
            "anonymous": false,
            "inputs": [
                {
                    "indexed": false,
                    "internalType": "uint256",
                    "name": "_L_ETH",
                    "type": "uint256"
                },
                {
                    "indexed": false,
                    "internalType": "uint256",
                    "name": "_L_ZUSDDebt",
                    "type": "uint256"
                }
            ],
            "name": "LTermsUpdated",
            "type": "event"
        },
        {
            "anonymous": false,
            "inputs": [
                {
                    "indexed": false,
                    "internalType": "uint256",
                    "name": "_lastFeeOpTime",
                    "type": "uint256"
                }
            ],
            "name": "LastFeeOpTimeUpdated",
            "type": "event"
        },
        {
            "anonymous": false,
            "inputs": [
                {
                    "indexed": false,
                    "internalType": "uint256",
                    "name": "_liquidatedDebt",
                    "type": "uint256"
                },
                {
                    "indexed": false,
                    "internalType": "uint256",
                    "name": "_liquidatedColl",
                    "type": "uint256"
                },
                {
                    "indexed": false,
                    "internalType": "uint256",
                    "name": "_collGasCompensation",
                    "type": "uint256"
                },
                {
                    "indexed": false,
                    "internalType": "uint256",
                    "name": "_ZUSDGasCompensation",
                    "type": "uint256"
                }
            ],
            "name": "Liquidation",
            "type": "event"
        },
        {
            "anonymous": false,
            "inputs": [
                {
                    "indexed": false,
                    "internalType": "address",
                    "name": "_borrowerOperationsAddress",
                    "type": "address"
                }
            ],
            "name": "LiquityBaseParamsAddressChanges",
            "type": "event"
        },
        {
            "anonymous": false,
            "inputs": [
                {
                    "indexed": true,
                    "internalType": "address",
                    "name": "previousOwner",
                    "type": "address"
                },
                {
                    "indexed": true,
                    "internalType": "address",
                    "name": "newOwner",
                    "type": "address"
                }
            ],
            "name": "OwnershipTransferred",
            "type": "event"
        },
        {
            "anonymous": false,
            "inputs": [
                {
                    "indexed": false,
                    "internalType": "address",
                    "name": "_newPriceFeedAddress",
                    "type": "address"
                }
            ],
            "name": "PriceFeedAddressChanged",
            "type": "event"
        },
        {
            "anonymous": false,
            "inputs": [
                {
                    "indexed": false,
                    "internalType": "uint256",
                    "name": "_attemptedZUSDAmount",
                    "type": "uint256"
                },
                {
                    "indexed": false,
                    "internalType": "uint256",
                    "name": "_actualZUSDAmount",
                    "type": "uint256"
                },
                {
                    "indexed": false,
                    "internalType": "uint256",
                    "name": "_ETHSent",
                    "type": "uint256"
                },
                {
                    "indexed": false,
                    "internalType": "uint256",
                    "name": "_ETHFee",
                    "type": "uint256"
                }
            ],
            "name": "Redemption",
            "type": "event"
        },
        {
            "anonymous": false,
            "inputs": [
                {
                    "indexed": false,
                    "internalType": "address",
                    "name": "_sortedTrovesAddress",
                    "type": "address"
                }
            ],
            "name": "SortedTrovesAddressChanged",
            "type": "event"
        },
        {
            "anonymous": false,
            "inputs": [
                {
                    "indexed": false,
                    "internalType": "address",
                    "name": "_stabilityPoolAddress",
                    "type": "address"
                }
            ],
            "name": "StabilityPoolAddressChanged",
            "type": "event"
        },
        {
            "anonymous": false,
            "inputs": [
                {
                    "indexed": false,
                    "internalType": "uint256",
                    "name": "_totalStakesSnapshot",
                    "type": "uint256"
                },
                {
                    "indexed": false,
                    "internalType": "uint256",
                    "name": "_totalCollateralSnapshot",
                    "type": "uint256"
                }
            ],
            "name": "SystemSnapshotsUpdated",
            "type": "event"
        },
        {
            "anonymous": false,
            "inputs": [
                {
                    "indexed": false,
                    "internalType": "uint256",
                    "name": "_newTotalStakes",
                    "type": "uint256"
                }
            ],
            "name": "TotalStakesUpdated",
            "type": "event"
        },
        {
            "anonymous": false,
            "inputs": [
                {
                    "indexed": false,
                    "internalType": "address",
                    "name": "_borrower",
                    "type": "address"
                },
                {
                    "indexed": false,
                    "internalType": "uint256",
                    "name": "_newIndex",
                    "type": "uint256"
                }
            ],
            "name": "TroveIndexUpdated",
            "type": "event"
        },
        {
            "anonymous": false,
            "inputs": [
                {
                    "indexed": true,
                    "internalType": "address",
                    "name": "_borrower",
                    "type": "address"
                },
                {
                    "indexed": false,
                    "internalType": "uint256",
                    "name": "_debt",
                    "type": "uint256"
                },
                {
                    "indexed": false,
                    "internalType": "uint256",
                    "name": "_coll",
                    "type": "uint256"
                },
                {
                    "indexed": false,
                    "internalType": "uint8",
                    "name": "operation",
                    "type": "uint8"
                }
            ],
            "name": "TroveLiquidated",
            "type": "event"
        },
        {
            "anonymous": false,
            "inputs": [
                {
                    "indexed": false,
                    "internalType": "address",
                    "name": "_troveManagerRedeemOps",
                    "type": "address"
                }
            ],
            "name": "TroveManagerRedeemOpsAddressChanged",
            "type": "event"
        },
        {
            "anonymous": false,
            "inputs": [
                {
                    "indexed": false,
                    "internalType": "uint256",
                    "name": "_L_ETH",
                    "type": "uint256"
                },
                {
                    "indexed": false,
                    "internalType": "uint256",
                    "name": "_L_ZUSDDebt",
                    "type": "uint256"
                }
            ],
            "name": "TroveSnapshotsUpdated",
            "type": "event"
        },
        {
            "anonymous": false,
            "inputs": [
                {
                    "indexed": true,
                    "internalType": "address",
                    "name": "_borrower",
                    "type": "address"
                },
                {
                    "indexed": false,
                    "internalType": "uint256",
                    "name": "_debt",
                    "type": "uint256"
                },
                {
                    "indexed": false,
                    "internalType": "uint256",
                    "name": "_coll",
                    "type": "uint256"
                },
                {
                    "indexed": false,
                    "internalType": "uint256",
                    "name": "stake",
                    "type": "uint256"
                },
                {
                    "indexed": false,
                    "internalType": "uint8",
                    "name": "operation",
                    "type": "uint8"
                }
            ],
            "name": "TroveUpdated",
            "type": "event"
        },
        {
            "anonymous": false,
            "inputs": [
                {
                    "indexed": false,
                    "internalType": "address",
                    "name": "_zeroStakingAddress",
                    "type": "address"
                }
            ],
            "name": "ZEROStakingAddressChanged",
            "type": "event"
        },
        {
            "anonymous": false,
            "inputs": [
                {
                    "indexed": false,
                    "internalType": "address",
                    "name": "_zeroTokenAddress",
                    "type": "address"
                }
            ],
            "name": "ZEROTokenAddressChanged",
            "type": "event"
        },
        {
            "anonymous": false,
            "inputs": [
                {
                    "indexed": false,
                    "internalType": "address",
                    "name": "_newZUSDTokenAddress",
                    "type": "address"
                }
            ],
            "name": "ZUSDTokenAddressChanged",
            "type": "event"
        },
        {
            "inputs": [],
            "name": "BETA",
            "outputs": [
                {
                    "internalType": "uint256",
                    "name": "",
                    "type": "uint256"
                }
            ],
            "stateMutability": "view",
            "type": "function"
        },
        {
            "inputs": [],
            "name": "BOOTSTRAP_PERIOD",
            "outputs": [
                {
                    "internalType": "uint256",
                    "name": "",
                    "type": "uint256"
                }
            ],
            "stateMutability": "view",
            "type": "function"
        },
        {
            "inputs": [],
            "name": "CCR",
            "outputs": [
                {
                    "internalType": "uint256",
                    "name": "",
                    "type": "uint256"
                }
            ],
            "stateMutability": "view",
            "type": "function"
        },
        {
            "inputs": [],
            "name": "DECIMAL_PRECISION",
            "outputs": [
                {
                    "internalType": "uint256",
                    "name": "",
                    "type": "uint256"
                }
            ],
            "stateMutability": "view",
            "type": "function"
        },
        {
            "inputs": [],
            "name": "L_ETH",
            "outputs": [
                {
                    "internalType": "uint256",
                    "name": "",
                    "type": "uint256"
                }
            ],
            "stateMutability": "view",
            "type": "function"
        },
        {
            "inputs": [],
            "name": "L_ZUSDDebt",
            "outputs": [
                {
                    "internalType": "uint256",
                    "name": "",
                    "type": "uint256"
                }
            ],
            "stateMutability": "view",
            "type": "function"
        },
        {
            "inputs": [],
            "name": "MCR",
            "outputs": [
                {
                    "internalType": "uint256",
                    "name": "",
                    "type": "uint256"
                }
            ],
            "stateMutability": "view",
            "type": "function"
        },
        {
            "inputs": [],
            "name": "MINUTE_DECAY_FACTOR",
            "outputs": [
                {
                    "internalType": "uint256",
                    "name": "",
                    "type": "uint256"
                }
            ],
            "stateMutability": "view",
            "type": "function"
        },
        {
            "inputs": [],
            "name": "MIN_NET_DEBT",
            "outputs": [
                {
                    "internalType": "uint256",
                    "name": "",
                    "type": "uint256"
                }
            ],
            "stateMutability": "view",
            "type": "function"
        },
        {
            "inputs": [],
            "name": "NAME",
            "outputs": [
                {
                    "internalType": "string",
                    "name": "",
                    "type": "string"
                }
            ],
            "stateMutability": "view",
            "type": "function"
        },
        {
            "inputs": [],
            "name": "SECONDS_IN_ONE_MINUTE",
            "outputs": [
                {
                    "internalType": "uint256",
                    "name": "",
                    "type": "uint256"
                }
            ],
            "stateMutability": "view",
            "type": "function"
        },
        {
            "inputs": [
                {
                    "internalType": "uint256",
                    "name": "",
                    "type": "uint256"
                }
            ],
            "name": "TroveOwners",
            "outputs": [
                {
                    "internalType": "address",
                    "name": "",
                    "type": "address"
                }
            ],
            "stateMutability": "view",
            "type": "function"
        },
        {
            "inputs": [
                {
                    "internalType": "address",
                    "name": "",
                    "type": "address"
                }
            ],
            "name": "Troves",
            "outputs": [
                {
                    "internalType": "uint256",
                    "name": "debt",
                    "type": "uint256"
                },
                {
                    "internalType": "uint256",
                    "name": "coll",
                    "type": "uint256"
                },
                {
                    "internalType": "uint256",
                    "name": "stake",
                    "type": "uint256"
                },
                {
                    "internalType": "enum TroveManagerStorage.Status",
                    "name": "status",
                    "type": "uint8"
                },
                {
                    "internalType": "uint128",
                    "name": "arrayIndex",
                    "type": "uint128"
                }
            ],
            "stateMutability": "view",
            "type": "function"
        },
        {
            "inputs": [],
            "name": "ZUSD_GAS_COMPENSATION",
            "outputs": [
                {
                    "internalType": "uint256",
                    "name": "",
                    "type": "uint256"
                }
            ],
            "stateMutability": "view",
            "type": "function"
        },
        {
            "inputs": [],
            "name": "_100pct",
            "outputs": [
                {
                    "internalType": "uint256",
                    "name": "",
                    "type": "uint256"
                }
            ],
            "stateMutability": "view",
            "type": "function"
        },
        {
            "inputs": [
                {
                    "internalType": "address",
                    "name": "_borrower",
                    "type": "address"
                },
                {
                    "internalType": "uint256",
                    "name": "_price",
                    "type": "uint256"
                }
            ],
            "name": "_getCurrentICR",
            "outputs": [
                {
                    "internalType": "uint256",
                    "name": "",
                    "type": "uint256"
                }
            ],
            "stateMutability": "view",
            "type": "function"
        },
        {
            "inputs": [
                {
                    "internalType": "address",
                    "name": "_borrower",
                    "type": "address"
                }
            ],
            "name": "_getPendingETHReward",
            "outputs": [
                {
                    "internalType": "uint256",
                    "name": "",
                    "type": "uint256"
                }
            ],
            "stateMutability": "view",
            "type": "function"
        },
        {
            "inputs": [
                {
                    "internalType": "address",
                    "name": "_borrower",
                    "type": "address"
                }
            ],
            "name": "_getPendingZUSDDebtReward",
            "outputs": [
                {
                    "internalType": "uint256",
                    "name": "",
                    "type": "uint256"
                }
            ],
            "stateMutability": "view",
            "type": "function"
        },
        {
            "inputs": [],
            "name": "_getRedemptionRate",
            "outputs": [
                {
                    "internalType": "uint256",
                    "name": "",
                    "type": "uint256"
                }
            ],
            "stateMutability": "view",
            "type": "function"
        },
        {
            "inputs": [
                {
                    "internalType": "address",
                    "name": "_borrower",
                    "type": "address"
                }
            ],
            "name": "_hasPendingRewards",
            "outputs": [
                {
                    "internalType": "bool",
                    "name": "",
                    "type": "bool"
                }
            ],
            "stateMutability": "view",
            "type": "function"
        },
        {
            "inputs": [],
            "name": "_stabilityPool",
            "outputs": [
                {
                    "internalType": "contract IStabilityPool",
                    "name": "",
                    "type": "address"
                }
            ],
            "stateMutability": "view",
            "type": "function"
        },
        {
            "inputs": [],
            "name": "_zeroStaking",
            "outputs": [
                {
                    "internalType": "contract IZEROStaking",
                    "name": "",
                    "type": "address"
                }
            ],
            "stateMutability": "view",
            "type": "function"
        },
        {
            "inputs": [],
            "name": "_zeroToken",
            "outputs": [
                {
                    "internalType": "contract IZEROToken",
                    "name": "",
                    "type": "address"
                }
            ],
            "stateMutability": "view",
            "type": "function"
        },
        {
            "inputs": [],
            "name": "_zusdToken",
            "outputs": [
                {
                    "internalType": "contract IZUSDToken",
                    "name": "",
                    "type": "address"
                }
            ],
            "stateMutability": "view",
            "type": "function"
        },
        {
            "inputs": [],
            "name": "activePool",
            "outputs": [
                {
                    "internalType": "contract IActivePool",
                    "name": "",
                    "type": "address"
                }
            ],
            "stateMutability": "view",
            "type": "function"
        },
        {
            "inputs": [
                {
                    "internalType": "address",
                    "name": "_borrower",
                    "type": "address"
                }
            ],
            "name": "addTroveOwnerToArray",
            "outputs": [
                {
                    "internalType": "uint256",
                    "name": "index",
                    "type": "uint256"
                }
            ],
            "stateMutability": "nonpayable",
            "type": "function"
        },
        {
            "inputs": [
                {
                    "internalType": "address",
                    "name": "_borrower",
                    "type": "address"
                }
            ],
            "name": "applyPendingRewards",
            "outputs": [],
            "stateMutability": "nonpayable",
            "type": "function"
        },
        {
            "inputs": [],
            "name": "baseRate",
            "outputs": [
                {
                    "internalType": "uint256",
                    "name": "",
                    "type": "uint256"
                }
            ],
            "stateMutability": "view",
            "type": "function"
        },
        {
            "inputs": [
                {
                    "internalType": "address[]",
                    "name": "_troveArray",
                    "type": "address[]"
                }
            ],
            "name": "batchLiquidateTroves",
            "outputs": [],
            "stateMutability": "nonpayable",
            "type": "function"
        },
        {
            "inputs": [],
            "name": "borrowerOperationsAddress",
            "outputs": [
                {
                    "internalType": "address",
                    "name": "",
                    "type": "address"
                }
            ],
            "stateMutability": "view",
            "type": "function"
        },
        {
            "inputs": [
                {
                    "internalType": "uint256",
                    "name": "_price",
                    "type": "uint256"
                }
            ],
            "name": "checkRecoveryMode",
            "outputs": [
                {
                    "internalType": "bool",
                    "name": "",
                    "type": "bool"
                }
            ],
            "stateMutability": "view",
            "type": "function"
        },
        {
            "inputs": [
                {
                    "internalType": "address",
                    "name": "_borrower",
                    "type": "address"
                }
            ],
            "name": "closeTrove",
            "outputs": [],
            "stateMutability": "nonpayable",
            "type": "function"
        },
        {
            "inputs": [],
            "name": "decayBaseRateFromBorrowing",
            "outputs": [],
            "stateMutability": "nonpayable",
            "type": "function"
        },
        {
            "inputs": [
                {
                    "internalType": "address",
                    "name": "_borrower",
                    "type": "address"
                },
                {
                    "internalType": "uint256",
                    "name": "_collDecrease",
                    "type": "uint256"
                }
            ],
            "name": "decreaseTroveColl",
            "outputs": [
                {
                    "internalType": "uint256",
                    "name": "",
                    "type": "uint256"
                }
            ],
            "stateMutability": "nonpayable",
            "type": "function"
        },
        {
            "inputs": [
                {
                    "internalType": "address",
                    "name": "_borrower",
                    "type": "address"
                },
                {
                    "internalType": "uint256",
                    "name": "_debtDecrease",
                    "type": "uint256"
                }
            ],
            "name": "decreaseTroveDebt",
            "outputs": [
                {
                    "internalType": "uint256",
                    "name": "",
                    "type": "uint256"
                }
            ],
            "stateMutability": "nonpayable",
            "type": "function"
        },
        {
            "inputs": [],
            "name": "defaultPool",
            "outputs": [
                {
                    "internalType": "contract IDefaultPool",
                    "name": "",
                    "type": "address"
                }
            ],
            "stateMutability": "view",
            "type": "function"
        },
        {
            "inputs": [],
            "name": "feeDistributor",
            "outputs": [
                {
                    "internalType": "contract IFeeDistributor",
                    "name": "",
                    "type": "address"
                }
            ],
            "stateMutability": "view",
            "type": "function"
        },
        {
            "inputs": [
                {
                    "internalType": "uint256",
                    "name": "_ZUSDDebt",
                    "type": "uint256"
                }
            ],
            "name": "getBorrowingFee",
            "outputs": [
                {
                    "internalType": "uint256",
                    "name": "",
                    "type": "uint256"
                }
            ],
            "stateMutability": "view",
            "type": "function"
        },
        {
            "inputs": [
                {
                    "internalType": "uint256",
                    "name": "_ZUSDDebt",
                    "type": "uint256"
                }
            ],
            "name": "getBorrowingFeeWithDecay",
            "outputs": [
                {
                    "internalType": "uint256",
                    "name": "",
                    "type": "uint256"
                }
            ],
            "stateMutability": "view",
            "type": "function"
        },
        {
            "inputs": [],
            "name": "getBorrowingRate",
            "outputs": [
                {
                    "internalType": "uint256",
                    "name": "",
                    "type": "uint256"
                }
            ],
            "stateMutability": "view",
            "type": "function"
        },
        {
            "inputs": [],
            "name": "getBorrowingRateWithDecay",
            "outputs": [
                {
                    "internalType": "uint256",
                    "name": "",
                    "type": "uint256"
                }
            ],
            "stateMutability": "view",
            "type": "function"
        },
        {
            "inputs": [
                {
                    "internalType": "address",
                    "name": "_borrower",
                    "type": "address"
                },
                {
                    "internalType": "uint256",
                    "name": "_price",
                    "type": "uint256"
                }
            ],
            "name": "getCurrentICR",
            "outputs": [
                {
                    "internalType": "uint256",
                    "name": "",
                    "type": "uint256"
                }
            ],
            "stateMutability": "view",
            "type": "function"
        },
        {
            "inputs": [
                {
                    "internalType": "address",
                    "name": "_borrower",
                    "type": "address"
                }
            ],
            "name": "getEntireDebtAndColl",
            "outputs": [
                {
                    "internalType": "uint256",
                    "name": "debt",
                    "type": "uint256"
                },
                {
                    "internalType": "uint256",
                    "name": "coll",
                    "type": "uint256"
                },
                {
                    "internalType": "uint256",
                    "name": "pendingZUSDDebtReward",
                    "type": "uint256"
                },
                {
                    "internalType": "uint256",
                    "name": "pendingETHReward",
                    "type": "uint256"
                }
            ],
            "stateMutability": "view",
            "type": "function"
        },
        {
            "inputs": [],
            "name": "getEntireSystemColl",
            "outputs": [
                {
                    "internalType": "uint256",
                    "name": "entireSystemColl",
                    "type": "uint256"
                }
            ],
            "stateMutability": "view",
            "type": "function"
        },
        {
            "inputs": [],
            "name": "getEntireSystemDebt",
            "outputs": [
                {
                    "internalType": "uint256",
                    "name": "entireSystemDebt",
                    "type": "uint256"
                }
            ],
            "stateMutability": "view",
            "type": "function"
        },
        {
            "inputs": [
                {
                    "internalType": "address",
                    "name": "_borrower",
                    "type": "address"
                }
            ],
            "name": "getNominalICR",
            "outputs": [
                {
                    "internalType": "uint256",
                    "name": "",
                    "type": "uint256"
                }
            ],
            "stateMutability": "view",
            "type": "function"
        },
        {
            "inputs": [],
            "name": "getOwner",
            "outputs": [
                {
                    "internalType": "address",
                    "name": "_owner",
                    "type": "address"
                }
            ],
            "stateMutability": "view",
            "type": "function"
        },
        {
            "inputs": [
                {
                    "internalType": "address",
                    "name": "_borrower",
                    "type": "address"
                }
            ],
            "name": "getPendingETHReward",
            "outputs": [
                {
                    "internalType": "uint256",
                    "name": "",
                    "type": "uint256"
                }
            ],
            "stateMutability": "view",
            "type": "function"
        },
        {
            "inputs": [
                {
                    "internalType": "address",
                    "name": "_borrower",
                    "type": "address"
                }
            ],
            "name": "getPendingZUSDDebtReward",
            "outputs": [
                {
                    "internalType": "uint256",
                    "name": "",
                    "type": "uint256"
                }
            ],
            "stateMutability": "view",
            "type": "function"
        },
        {
            "inputs": [
                {
                    "internalType": "uint256",
                    "name": "_ETHDrawn",
                    "type": "uint256"
                }
            ],
            "name": "getRedemptionFeeWithDecay",
            "outputs": [
                {
                    "internalType": "uint256",
                    "name": "",
                    "type": "uint256"
                }
            ],
            "stateMutability": "view",
            "type": "function"
        },
        {
            "inputs": [],
            "name": "getRedemptionRate",
            "outputs": [
                {
                    "internalType": "uint256",
                    "name": "",
                    "type": "uint256"
                }
            ],
            "stateMutability": "view",
            "type": "function"
        },
        {
            "inputs": [],
            "name": "getRedemptionRateWithDecay",
            "outputs": [
                {
                    "internalType": "uint256",
                    "name": "",
                    "type": "uint256"
                }
            ],
            "stateMutability": "view",
            "type": "function"
        },
        {
            "inputs": [
                {
                    "internalType": "uint256",
                    "name": "_price",
                    "type": "uint256"
                }
            ],
            "name": "getTCR",
            "outputs": [
                {
                    "internalType": "uint256",
                    "name": "",
                    "type": "uint256"
                }
            ],
            "stateMutability": "view",
            "type": "function"
        },
        {
            "inputs": [
                {
                    "internalType": "address",
                    "name": "_borrower",
                    "type": "address"
                }
            ],
            "name": "getTroveColl",
            "outputs": [
                {
                    "internalType": "uint256",
                    "name": "",
                    "type": "uint256"
                }
            ],
            "stateMutability": "view",
            "type": "function"
        },
        {
            "inputs": [
                {
                    "internalType": "address",
                    "name": "_borrower",
                    "type": "address"
                }
            ],
            "name": "getTroveDebt",
            "outputs": [
                {
                    "internalType": "uint256",
                    "name": "",
                    "type": "uint256"
                }
            ],
            "stateMutability": "view",
            "type": "function"
        },
        {
            "inputs": [
                {
                    "internalType": "uint256",
                    "name": "_index",
                    "type": "uint256"
                }
            ],
            "name": "getTroveFromTroveOwnersArray",
            "outputs": [
                {
                    "internalType": "address",
                    "name": "",
                    "type": "address"
                }
            ],
            "stateMutability": "view",
            "type": "function"
        },
        {
            "inputs": [],
            "name": "getTroveOwnersCount",
            "outputs": [
                {
                    "internalType": "uint256",
                    "name": "",
                    "type": "uint256"
                }
            ],
            "stateMutability": "view",
            "type": "function"
        },
        {
            "inputs": [
                {
                    "internalType": "address",
                    "name": "_borrower",
                    "type": "address"
                }
            ],
            "name": "getTroveStake",
            "outputs": [
                {
                    "internalType": "uint256",
                    "name": "",
                    "type": "uint256"
                }
            ],
            "stateMutability": "view",
            "type": "function"
        },
        {
            "inputs": [
                {
                    "internalType": "address",
                    "name": "_borrower",
                    "type": "address"
                }
            ],
            "name": "getTroveStatus",
            "outputs": [
                {
                    "internalType": "uint256",
                    "name": "",
                    "type": "uint256"
                }
            ],
            "stateMutability": "view",
            "type": "function"
        },
        {
            "inputs": [
                {
                    "internalType": "address",
                    "name": "_borrower",
                    "type": "address"
                }
            ],
            "name": "hasPendingRewards",
            "outputs": [
                {
                    "internalType": "bool",
                    "name": "",
                    "type": "bool"
                }
            ],
            "stateMutability": "view",
            "type": "function"
        },
        {
            "inputs": [
                {
                    "internalType": "address",
                    "name": "_borrower",
                    "type": "address"
                },
                {
                    "internalType": "uint256",
                    "name": "_collIncrease",
                    "type": "uint256"
                }
            ],
            "name": "increaseTroveColl",
            "outputs": [
                {
                    "internalType": "uint256",
                    "name": "",
                    "type": "uint256"
                }
            ],
            "stateMutability": "nonpayable",
            "type": "function"
        },
        {
            "inputs": [
                {
                    "internalType": "address",
                    "name": "_borrower",
                    "type": "address"
                },
                {
                    "internalType": "uint256",
                    "name": "_debtIncrease",
                    "type": "uint256"
                }
            ],
            "name": "increaseTroveDebt",
            "outputs": [
                {
                    "internalType": "uint256",
                    "name": "",
                    "type": "uint256"
                }
            ],
            "stateMutability": "nonpayable",
            "type": "function"
        },
        {
            "inputs": [],
            "name": "lastETHError_Redistribution",
            "outputs": [
                {
                    "internalType": "uint256",
                    "name": "",
                    "type": "uint256"
                }
            ],
            "stateMutability": "view",
            "type": "function"
        },
        {
            "inputs": [],
            "name": "lastFeeOperationTime",
            "outputs": [
                {
                    "internalType": "uint256",
                    "name": "",
                    "type": "uint256"
                }
            ],
            "stateMutability": "view",
            "type": "function"
        },
        {
            "inputs": [],
            "name": "lastZUSDDebtError_Redistribution",
            "outputs": [
                {
                    "internalType": "uint256",
                    "name": "",
                    "type": "uint256"
                }
            ],
            "stateMutability": "view",
            "type": "function"
        },
        {
            "inputs": [
                {
                    "internalType": "address",
                    "name": "_borrower",
                    "type": "address"
                }
            ],
            "name": "liquidate",
            "outputs": [],
            "stateMutability": "nonpayable",
            "type": "function"
        },
        {
            "inputs": [
                {
                    "internalType": "uint256",
                    "name": "_n",
                    "type": "uint256"
                }
            ],
            "name": "liquidateTroves",
            "outputs": [],
            "stateMutability": "nonpayable",
            "type": "function"
        },
        {
            "inputs": [],
            "name": "liquityBaseParams",
            "outputs": [
                {
                    "internalType": "contract ILiquityBaseParams",
                    "name": "",
                    "type": "address"
                }
            ],
            "stateMutability": "view",
            "type": "function"
        },
        {
            "inputs": [],
            "name": "permit2",
            "outputs": [
                {
                    "internalType": "contract IPermit2",
                    "name": "",
                    "type": "address"
                }
            ],
            "stateMutability": "view",
            "type": "function"
        },
        {
            "inputs": [],
            "name": "priceFeed",
            "outputs": [
                {
                    "internalType": "contract IPriceFeed",
                    "name": "",
                    "type": "address"
                }
            ],
            "stateMutability": "view",
            "type": "function"
        },
        {
            "inputs": [
                {
                    "internalType": "uint256",
                    "name": "_ZUSDamount",
                    "type": "uint256"
                },
                {
                    "internalType": "address",
                    "name": "_firstRedemptionHint",
                    "type": "address"
                },
                {
                    "internalType": "address",
                    "name": "_upperPartialRedemptionHint",
                    "type": "address"
                },
                {
                    "internalType": "address",
                    "name": "_lowerPartialRedemptionHint",
                    "type": "address"
                },
                {
                    "internalType": "uint256",
                    "name": "_partialRedemptionHintNICR",
                    "type": "uint256"
                },
                {
                    "internalType": "uint256",
                    "name": "_maxIterations",
                    "type": "uint256"
                },
                {
                    "internalType": "uint256",
                    "name": "_maxFeePercentage",
                    "type": "uint256"
                }
            ],
            "name": "redeemCollateral",
            "outputs": [],
            "stateMutability": "nonpayable",
            "type": "function"
        },
        {
            "inputs": [
                {
                    "internalType": "uint256",
                    "name": "_dllrAmount",
                    "type": "uint256"
                },
                {
                    "internalType": "address",
                    "name": "_firstRedemptionHint",
                    "type": "address"
                },
                {
                    "internalType": "address",
                    "name": "_upperPartialRedemptionHint",
                    "type": "address"
                },
                {
                    "internalType": "address",
                    "name": "_lowerPartialRedemptionHint",
                    "type": "address"
                },
                {
                    "internalType": "uint256",
                    "name": "_partialRedemptionHintNICR",
                    "type": "uint256"
                },
                {
                    "internalType": "uint256",
                    "name": "_maxIterations",
                    "type": "uint256"
                },
                {
                    "internalType": "uint256",
                    "name": "_maxFeePercentage",
                    "type": "uint256"
                },
                {
                    "components": [
                        {
                            "internalType": "uint256",
                            "name": "deadline",
                            "type": "uint256"
                        },
                        {
                            "internalType": "uint8",
                            "name": "v",
                            "type": "uint8"
                        },
                        {
                            "internalType": "bytes32",
                            "name": "r",
                            "type": "bytes32"
                        },
                        {
                            "internalType": "bytes32",
                            "name": "s",
                            "type": "bytes32"
                        }
                    ],
                    "internalType": "struct IMassetManager.PermitParams",
                    "name": "_permitParams",
                    "type": "tuple"
                }
            ],
            "name": "redeemCollateralViaDLLR",
            "outputs": [],
            "stateMutability": "nonpayable",
            "type": "function"
        },
        {
            "inputs": [
                {
                    "internalType": "uint256",
                    "name": "_dllrAmount",
                    "type": "uint256"
                },
                {
                    "internalType": "address",
                    "name": "_firstRedemptionHint",
                    "type": "address"
                },
                {
                    "internalType": "address",
                    "name": "_upperPartialRedemptionHint",
                    "type": "address"
                },
                {
                    "internalType": "address",
                    "name": "_lowerPartialRedemptionHint",
                    "type": "address"
                },
                {
                    "internalType": "uint256",
                    "name": "_partialRedemptionHintNICR",
                    "type": "uint256"
                },
                {
                    "internalType": "uint256",
                    "name": "_maxIterations",
                    "type": "uint256"
                },
                {
                    "internalType": "uint256",
                    "name": "_maxFeePercentage",
                    "type": "uint256"
                },
                {
                    "components": [
                        {
                            "components": [
                                {
                                    "internalType": "address",
                                    "name": "token",
                                    "type": "address"
                                },
                                {
                                    "internalType": "uint256",
                                    "name": "amount",
                                    "type": "uint256"
                                }
                            ],
                            "internalType": "struct ISignatureTransfer.TokenPermissions",
                            "name": "permitted",
                            "type": "tuple"
                        },
                        {
                            "internalType": "uint256",
                            "name": "nonce",
                            "type": "uint256"
                        },
                        {
                            "internalType": "uint256",
                            "name": "deadline",
                            "type": "uint256"
                        }
                    ],
                    "internalType": "struct ISignatureTransfer.PermitTransferFrom",
                    "name": "_permit",
                    "type": "tuple"
                },
                {
                    "internalType": "bytes",
                    "name": "_signature",
                    "type": "bytes"
                }
            ],
            "name": "redeemCollateralViaDllrWithPermit2",
            "outputs": [],
            "stateMutability": "nonpayable",
            "type": "function"
        },
        {
            "inputs": [
                {
                    "internalType": "address",
                    "name": "_borrower",
                    "type": "address"
                }
            ],
            "name": "removeStake",
            "outputs": [],
            "stateMutability": "nonpayable",
            "type": "function"
        },
        {
            "inputs": [
                {
                    "internalType": "address",
                    "name": "",
                    "type": "address"
                }
            ],
            "name": "rewardSnapshots",
            "outputs": [
                {
                    "internalType": "uint256",
                    "name": "ETH",
                    "type": "uint256"
                },
                {
                    "internalType": "uint256",
                    "name": "ZUSDDebt",
                    "type": "uint256"
                }
            ],
            "stateMutability": "view",
            "type": "function"
        },
        {
            "inputs": [
                {
                    "components": [
                        {
                            "internalType": "address",
                            "name": "_feeDistributorAddress",
                            "type": "address"
                        },
                        {
                            "internalType": "address",
                            "name": "_troveManagerRedeemOps",
                            "type": "address"
                        },
                        {
                            "internalType": "address",
                            "name": "_liquityBaseParamsAddress",
                            "type": "address"
                        },
                        {
                            "internalType": "address",
                            "name": "_borrowerOperationsAddress",
                            "type": "address"
                        },
                        {
                            "internalType": "address",
                            "name": "_activePoolAddress",
                            "type": "address"
                        },
                        {
                            "internalType": "address",
                            "name": "_defaultPoolAddress",
                            "type": "address"
                        },
                        {
                            "internalType": "address",
                            "name": "_stabilityPoolAddress",
                            "type": "address"
                        },
                        {
                            "internalType": "address",
                            "name": "_gasPoolAddress",
                            "type": "address"
                        },
                        {
                            "internalType": "address",
                            "name": "_collSurplusPoolAddress",
                            "type": "address"
                        },
                        {
                            "internalType": "address",
                            "name": "_priceFeedAddress",
                            "type": "address"
                        },
                        {
                            "internalType": "address",
                            "name": "_zusdTokenAddress",
                            "type": "address"
                        },
                        {
                            "internalType": "address",
                            "name": "_sortedTrovesAddress",
                            "type": "address"
                        },
                        {
                            "internalType": "address",
                            "name": "_zeroTokenAddress",
                            "type": "address"
                        },
                        {
                            "internalType": "address",
                            "name": "_zeroStakingAddress",
                            "type": "address"
                        }
                    ],
                    "internalType": "struct ITroveManager.TroveManagerInitAddressesParams",
                    "name": "_troveManagerInitAddressesParams",
                    "type": "tuple"
                }
            ],
            "name": "setAddresses",
            "outputs": [],
            "stateMutability": "nonpayable",
            "type": "function"
        },
        {
            "inputs": [
                {
                    "internalType": "address",
                    "name": "_owner",
                    "type": "address"
                }
            ],
            "name": "setOwner",
            "outputs": [],
            "stateMutability": "nonpayable",
            "type": "function"
        },
        {
            "inputs": [
                {
                    "internalType": "address",
                    "name": "_troveManagerRedeemOps",
                    "type": "address"
                }
            ],
            "name": "setTroveManagerRedeemOps",
            "outputs": [],
            "stateMutability": "nonpayable",
            "type": "function"
        },
        {
            "inputs": [
                {
                    "internalType": "address",
                    "name": "_borrower",
                    "type": "address"
                },
                {
                    "internalType": "uint256",
                    "name": "_num",
                    "type": "uint256"
                }
            ],
            "name": "setTroveStatus",
            "outputs": [],
            "stateMutability": "nonpayable",
            "type": "function"
        },
        {
            "inputs": [],
            "name": "sortedTroves",
            "outputs": [
                {
                    "internalType": "contract ISortedTroves",
                    "name": "",
                    "type": "address"
                }
            ],
            "stateMutability": "view",
            "type": "function"
        },
        {
            "inputs": [],
            "name": "totalCollateralSnapshot",
            "outputs": [
                {
                    "internalType": "uint256",
                    "name": "",
                    "type": "uint256"
                }
            ],
            "stateMutability": "view",
            "type": "function"
        },
        {
            "inputs": [],
            "name": "totalStakes",
            "outputs": [
                {
                    "internalType": "uint256",
                    "name": "",
                    "type": "uint256"
                }
            ],
            "stateMutability": "view",
            "type": "function"
        },
        {
            "inputs": [],
            "name": "totalStakesSnapshot",
            "outputs": [
                {
                    "internalType": "uint256",
                    "name": "",
                    "type": "uint256"
                }
            ],
            "stateMutability": "view",
            "type": "function"
        },
        {
            "inputs": [],
            "name": "troveManagerRedeemOps",
            "outputs": [
                {
                    "internalType": "address",
                    "name": "",
                    "type": "address"
                }
            ],
            "stateMutability": "view",
            "type": "function"
        },
        {
            "inputs": [
                {
                    "internalType": "address",
                    "name": "_borrower",
                    "type": "address"
                }
            ],
            "name": "updateStakeAndTotalStakes",
            "outputs": [
                {
                    "internalType": "uint256",
                    "name": "",
                    "type": "uint256"
                }
            ],
            "stateMutability": "nonpayable",
            "type": "function"
        },
        {
            "inputs": [
                {
                    "internalType": "address",
                    "name": "_borrower",
                    "type": "address"
                }
            ],
            "name": "updateTroveRewardSnapshots",
            "outputs": [],
            "stateMutability": "nonpayable",
            "type": "function"
        }
    ],
    "transactionHash": "0x98964a83f4dcaec9042a905d998f3351c02d6dae3c1608d5d9db1d696445f729",
    "numDeployments": 5,
    "bytecode": "0x60c06040523480156200001157600080fd5b50604051620058f2380380620058f2833981016040819052620000349162000128565b8162000049336001600160e01b036200006316565b60805260601b6001600160601b03191660a05250620001c4565b6001600160a01b038116620000955760405162461bcd60e51b81526004016200008c9062000182565b60405180910390fd5b6001600160a01b038116620000b26001600160e01b036200010716565b6001600160a01b03167f8be0079c531659141344cd1fd0a4f28419497f9722a3daafe3b4186f6b6457e060405160405180910390a36000604051620000f79062000165565b6040519081900390209190915550565b600080604051620001189062000165565b6040519081900390205492915050565b600080604083850312156200013b578182fd5b825160208401519092506001600160a01b03811681146200015a578182fd5b809150509250929050565b7035b2bc9737bbb730b136329737bbb732b960791b815260110190565b60208082526022908201527f4f776e61626c653a3a7365744f776e65723a20696e76616c6964206164647265604082015261737360f01b606082015260800190565b60805160a05160601c615707620001eb60003980610ff152508061223252506157076000f3fe608060405234801561001057600080fd5b50600436106104c25760003560e01c8063756b253e11610278578063b0d8e1811161015c578063d293c710116100ce578063d815e8e911610092578063d815e8e91461095a578063d9a7244414610962578063e056e91814610975578063e2ac77b014610988578063f36b24251461099b578063fe2ba848146109a3576104c2565b8063d293c71014610906578063d380a37c14610919578063d3d6f84314610921578063d5b3563514610934578063d66a255314610947576104c2565b8063be4b033411610120578063be4b0334146108cb578063bf9befb1146108d3578063c35bc550146108db578063c52861f2146108e3578063c7b55481146108eb578063cbd138ae146108f3576104c2565b8063b0d8e18114610867578063b7f8cf9b1461087a578063b82f263d14610882578063b91af97c14610895578063bcd37526146108b8576104c2565b8063887105d3116101f55780639dd233d2116101b95780639dd233d2146108325780639f0706701461083a578063a20baee614610773578063a3f4df7e14610842578063ae7bec1914610857578063ae9187541461085f576104c2565b8063887105d3146107f4578063893d20e8146107fc57806396d711ff146108045780639708daf41461080c5780639976cf451461081f576104c2565b80637cf54e401161023c5780637cf54e40146107b65780637f7dde4a146107be578063807d138d146107c657806382fe3eb9146107ce57806387436936146107e1576104c2565b8063756b253e14610783578063759b303414610796578063794e57241461079e578063795d26c3146107a6578063797250e3146107ae576104c2565b80633cc74225116103aa57806361ec893d1161031c5780636b444952116102e05780636b4449521461072c5780636ef6433814610734578063716c47e61461075857806372423c171461076057806372fe25aa14610773578063741bef1a1461077b576104c2565b806361ec893d146106e3578063631203b0146106eb57806364cee260146106fe578063653d46e71461071157806366ca4a2114610724576104c2565b80634a767d681161036e5780634a767d681461067a5780634e443d9e1461068d5780635733d58f146106ad5780635d6b480f146106b55780635d8c9609146106c85780635dba4c4a146106db576104c2565b80633cc742251461063157806342ccf1e414610639578063477d66cf1461064c578063480cd5781461065f57806349eefeee14610672576104c2565b806317c62b17116104435780631f68f20a116104075780631f68f20a146105eb57806321e37801146105f35780632b11551a146106065780632f8655681461060e57806331c903b0146106215780633a12859514610629576104c2565b806317c62b171461059757806318f2817a146105aa5780631a59a50e146105bd5780631bf43555146105d05780631e8b1c2b146105d8576104c2565b806312261ee71161048a57806312261ee71461053557806312610e921461053d57806313af40351461055057806315d549f1146105635780631673c79a14610576576104c2565b806301f16e18146104c757806305b6f5ca146104dc578063071a7541146104ef5780630b0765571461050d5780630d43e8ad14610520575b600080fd5b6104da6104d5366004614d96565b6109b6565b005b6104da6104ea366004614f61565b610f1c565b6104f7610fb3565b6040516105049190615568565b60405180910390f35b6104da61051b366004614c9f565b610fb8565b610528610fe0565b604051610504919061512e565b610528610fef565b6104f761054b366004614cd7565b611013565b6104da61055e366004614c9f565b61106b565b6104f7610571366004614c9f565b6110ac565b610589610584366004614c9f565b6110d0565b604051610504929190615571565b6104f76105a5366004614c9f565b6110e9565b6104f76105b8366004614c9f565b6110f4565b6104f76105cb366004614c9f565b611107565b6104f76111cd565b6104da6105e6366004614d02565b6111da565b6104f761153b565b6104f7610601366004614c9f565b611541565b6104f761156b565b6104da61061c366004614c9f565b61157a565b6104f76115e0565b6105286115ed565b6105286115fc565b6104f7610647366004614c9f565b61160b565b6104f761065a366004614ec4565b61163c565b6104f761066d366004614c9f565b61164f565b6104f761166d565b6104f7610688366004614cd7565b611673565b6106a061069b366004614ec4565b611692565b60405161050491906151a1565b6104f761169d565b6104da6106c3366004614cd7565b61171a565b6104f76106d6366004614c9f565b611766565b6104da611771565b6104f76117dc565b6104f76106f9366004614ec4565b6117e1565b6104f761070c366004614c9f565b6117ee565b6104da61071f366004614ec4565b61180c565b6104f7611b96565b6104f7611ba8565b610747610742366004614c9f565b611bae565b6040516105049594939291906155a3565b610528611be8565b6104f761076e366004614cd7565b611bf7565b6104f7611c54565b610528611c60565b610528610791366004614ec4565b611c6f565b6104f7611c96565b6104f7611ca3565b6104f7611ce8565b6104f7611e07565b610528611e0d565b610528611e1c565b6104f7611e2b565b6104da6107dc366004614c9f565b611e31565b6104da6107ef366004614c9f565b611e42565b6104f7611ece565b610528611f9d565b6104f7611fbc565b6104da61081a366004614feb565b611fc2565b6104f761082d366004614cd7565b61205b565b6104f761208e565b610528612094565b61084a6120a3565b60405161050491906151da565b6105286120cb565b6105286120da565b6104f7610875366004614c9f565b6120e9565b610528612110565b6104f7610890366004614ec4565b61211f565b6108a86108a3366004614c9f565b61212a565b604051610504949392919061560f565b6104da6108c6366004614ef4565b61218e565b6104f7612224565b6104f761222a565b6104f7612230565b6104f7612254565b6104f7612266565b6104da610901366004614c9f565b612272565b6104f7610914366004614cd7565b612285565b6104f7612298565b6104f761092f366004614cd7565b61229e565b6104f7610942366004614ec4565b6122d4565b6104f7610955366004614c9f565b6122e7565b610528612302565b610528610970366004614ec4565b612311565b6106a0610983366004614c9f565b61233b565b6106a0610996366004614c9f565b612399565b6104f76123a4565b6104da6109b1366004614c9f565b6123b1565b6109be611f9d565b6001600160a01b0316336001600160a01b0316146109f75760405162461bcd60e51b81526004016109ee906153c5565b60405180910390fd5b8051610a02906123c2565b610a0f81602001516123c2565b610a1c81604001516123c2565b610a2981606001516123c2565b610a3681608001516123c2565b610a438160a001516123c2565b610a508160c001516123c2565b610a5d8160e001516123c2565b610a6b8161010001516123c2565b610a798161012001516123c2565b610a878161014001516123c2565b610a958161016001516123c2565b610aa38161018001516123c2565b610ab1816101a001516123c2565b8051600c80546001600160a01b03199081166001600160a01b038085169190911790925560208401516004805483169184169190911790556040808501516003805484169185169190911790556060850151600580548416918516919091179055608085015160008054841691851691909117905560a085015160018054841691851691909117905560c085015160068054841691851691909117905560e0850151600780548416918516919091179055610100850151600880548416918516919091179055610120850151600280548416918516919091179055610140850151600980548416918516919091179055610160850151600d80548416918516919091179055610180850151600a805484169185169190911790556101a0850151600b80549093169316929092179055517f84861842e6a98dd759145eb5e7b48279d0f02ebeabc8a69e5196b2f4c5023db991610c0c9161512e565b60405180910390a17f6493041f605f233753d9b16dd158c9f297b8eaca22b2d0dc402a454f5683a5b18160200151604051610c47919061512e565b60405180910390a17fbf65195e6d5213f6fcbce65b1454c925197a45e616dabd2e243542b039b050928160600151604051610c82919061512e565b60405180910390a17f3ca631ffcd2a9b5d9ae18543fc82f58eb4ca33af9e6ab01b7a8e95331e6ed9858160600151604051610cbd919061512e565b60405180910390a17f78f058b189175430c48dc02699e3a0031ea4ff781536dc2fab847de4babdd8828160800151604051610cf8919061512e565b60405180910390a17f5ee0cae2f063ed938bb55046f6a932fb6ae792bf43624806bb90abe68a50be9b8160a00151604051610d33919061512e565b60405180910390a17f82966d27eea39b038ee0fa30cd16532bb24f6e65d31cb58fb227aa5766cdcc7f8160c00151604051610d6e919061512e565b60405180910390a17fcfb07d791fcafc032b35837b50eb84b74df518cf4cc287e8084f47630fa70fa08160e00151604051610da9919061512e565b60405180910390a17fe67f36a6e961157d6eff83b91f3af5a62131ceb6f04954ef74f51c1c05e7f88d816101000151604051610de5919061512e565b60405180910390a17f8c537274438aa850a330284665d81a85dd38267d09e4050d416bfc94142db264816101200151604051610e21919061512e565b60405180910390a17fcdf33850c44a1a874b5fefb51dae615ac6afebd581ef90d571f81b06541d8e9d816101400151604051610e5d919061512e565b60405180910390a17f65f4cf077bc01e4742eb5ad98326f6e95b63548ea24b17f8d5e823111fe78800816101600151604051610e99919061512e565b60405180910390a17f61e0c29d5028a9e4facaa476a46e78912e99f1ba945c9560b86b82ebe36ee52d816101800151604051610ed5919061512e565b60405180910390a17f7624075ed781e3aa34b0f492d70d1bb5a6fcde04534165e20f990d2e546be4dd816101a00151604051610f11919061512e565b60405180910390a150565b6004546040516000916060916001600160a01b0390911690610f419084903690615101565b600060405180830381855af49150503d8060008114610f7c576040519150601f19603f3d011682016040523d82523d6000602084013e610f81565b606091505b5091509150818190610fa65760405162461bcd60e51b81526004016109ee91906151da565b5050505050505050505050565b600281565b610fc0612407565b600054600154610fdd916001600160a01b03908116911683612433565b50565b600c546001600160a01b031681565b7f000000000000000000000000000000000000000000000000000000000000000081565b600061101d612407565b6001600160a01b038316600090815260106020526040812054611046908463ffffffff61254516565b6001600160a01b03851660009081526010602052604090208190559150505b92915050565b611073611f9d565b6001600160a01b0316336001600160a01b0316146110a35760405162461bcd60e51b81526004016109ee906153c5565b610fdd81612587565b60006110b6612407565b6110bf82612612565b6001600160801b031690505b919050565b6016602052600090815260409020805460019091015482565b60006110658261160b565b60006110fe612407565b611065826126ac565b6001600160a01b0381166000908152601660205260408120546014548290611135908363ffffffff61254516565b905080158061116e575060016001600160a01b03851660009081526010602052604090206003015460ff16600481111561116b57fe5b14155b1561117e576000925050506110cb565b6001600160a01b038416600090815260106020526040812060020154906111c3670de0b6b3a76400006111b7848663ffffffff61275f16565b9063ffffffff61279916565b9695505050505050565b6809c2007651b250000081565b80516111f85760405162461bcd60e51b81526004016109ee906153f6565b6000546001546006546001600160a01b0392831692918216911661121a614b2b565b611222614b5c565b600260009054906101000a90046001600160a01b03166001600160a01b0316630fdb11cf6040518163ffffffff1660e01b8152600401602060405180830381600087803b15801561127257600080fd5b505af1158015611286573d6000803e3d6000fd5b505050506040513d601f19601f820116820180604052508101906112aa9190614edc565b826000018181525050826001600160a01b031663bdaf37ea6040518163ffffffff1660e01b815260040160206040518083038186803b1580156112ec57600080fd5b505afa158015611300573d6000803e3d6000fd5b505050506040513d601f19601f820116820180604052508101906113249190614edc565b60208301528151611334906127db565b158015604084015261135c576113558585846000015185602001518a612876565b9050611374565b6113718585846000015185602001518a612b8b565b90505b60008160200151116113985760405162461bcd60e51b81526004016109ee906154d7565b608081015160a082015160405163335525ad60e01b81526001600160a01b0386169263335525ad926113cc92600401615571565b600060405180830381600087803b1580156113e657600080fd5b505af11580156113fa573d6000803e3d6000fd5b5050505061141285858360c001518460e00151612ccb565b61010081015115611489576008546101008201516040516364a197f360e01b81526001600160a01b03888116936364a197f393611456939290911691600401615188565b600060405180830381600087803b15801561147057600080fd5b505af1158015611484573d6000803e3d6000fd5b505050505b611497858260400151612f2f565b60208101516060830152610100810151604082015182516114cf92916114c3919063ffffffff61254516565b9063ffffffff61254516565b608083018190526060808401516040808501519285015190517f4152c73dd2614c4f9fc35e8c9cf16013cd588c75b49a4c1673ecffdcbcda940394611517949092909161560f565b60405180910390a1611533853383606001518460400151613090565b505050505050565b600e5481565b6001600160a01b03811660009081526010602052604081206003015460ff16600481111561106557fe5b60006115756115e0565b905090565b6115838161316d565b6040805160018082528183019092526060916020808301908036833701905050905081816000815181106115b357fe5b60200260200101906001600160a01b031690816001600160a01b0316815250506115dc816111da565b5050565b6000611575600e546131b6565b600b546001600160a01b031681565b6001546001600160a01b031681565b6001600160a01b0381166000908152601660205260408120600101546015548290611135908363ffffffff61254516565b6000611065611649611b96565b83613253565b6001600160a01b031660009081526010602052604090206001015490565b60175490565b600080600061168185613271565b9150915060006111c38383876132f7565b6000611065826127db565b60035460408051635733d58f60e01b815290516000926001600160a01b031691635733d58f916004808301926020929190829003018186803b1580156116e257600080fd5b505afa1580156116f6573d6000803e3d6000fd5b505050506040513d601f19601f820116820180604052508101906115759190614edc565b611722612407565b80600481111561172e57fe5b6001600160a01b0383166000908152601060205260409020600301805460ff1916600183600481111561175d57fe5b02179055505050565b600061106582611107565b611779612407565b6000611783613329565b9050670de0b6b3a764000081111561179757fe5b600e8190556040517fc454ee9b76c52f782a256af821b857ca6e125d1e3333bcede402fec2bed9600c906117cc908390615568565b60405180910390a1610fdd61336d565b603c81565b60006110656116496123a4565b6001600160a01b031660009081526010602052604090206002015490565b611814614ba8565b506040805160e081018252600080546001600160a01b0390811683526001548116602084015292820181905260608201819052600d548316608083015260a0820181905260c082015260065490911661186b614b2b565b611873614b5c565b600260009054906101000a90046001600160a01b03166001600160a01b0316630fdb11cf6040518163ffffffff1660e01b8152600401602060405180830381600087803b1580156118c357600080fd5b505af11580156118d7573d6000803e3d6000fd5b505050506040513d601f19601f820116820180604052508101906118fb9190614edc565b826000018181525050826001600160a01b031663bdaf37ea6040518163ffffffff1660e01b815260040160206040518083038186803b15801561193d57600080fd5b505afa158015611951573d6000803e3d6000fd5b505050506040513d601f19601f820116820180604052508101906119759190614edc565b60208301528151611985906127db565b15801560408401526119ac576119a58483600001518460200151886133c2565b90506119cc565b6119c9846000015185602001518460000151856020015189613869565b90505b60008160200151116119f05760405162461bcd60e51b81526004016109ee906154d7565b608081015160a082015160405163335525ad60e01b81526001600160a01b0386169263335525ad92611a2492600401615571565b600060405180830381600087803b158015611a3e57600080fd5b505af1158015611a52573d6000803e3d6000fd5b50505050611a72846000015185602001518360c001518460e00151612ccb565b61010081015115611ae95783516008546101008301516040516364a197f360e01b81526001600160a01b03938416936364a197f393611ab693911691600401615188565b600060405180830381600087803b158015611ad057600080fd5b505af1158015611ae4573d6000803e3d6000fd5b505050505b611afb84600001518260400151612f2f565b6020810151606083015261010081015160408201518251611b2792916114c3919063ffffffff61254516565b608083018190526060808401516040808501519285015190517f4152c73dd2614c4f9fc35e8c9cf16013cd588c75b49a4c1673ecffdcbcda940394611b6f949092909161560f565b60405180910390a1611b8f84600001513383606001518460400151613090565b5050505050565b6000611575611ba3613329565b613a1f565b60195481565b60106020526000908152604090208054600182015460028301546003909301549192909160ff81169061010090046001600160801b031685565b6004546001600160a01b031681565b6000611c01612407565b6001600160a01b038316600090815260106020526040812060010154611c2d908463ffffffff613b0116565b6001600160a01b038516600090815260106020526040902060010181905591505092915050565b670de0b6b3a764000081565b6002546001600160a01b031681565b60178181548110611c7c57fe5b6000918252602090912001546001600160a01b0316905081565b6801158e460913d0000081565b60035460408051631e5395c960e21b815290516000926001600160a01b03169163794e5724916004808301926020929190829003018186803b1580156116e257600080fd5b60008054604080516272c7d360e71b8152905183926001600160a01b031691633963e980916004808301926020929190829003018186803b158015611d2c57600080fd5b505afa158015611d40573d6000803e3d6000fd5b505050506040513d601f19601f82011682018060405250810190611d649190614edc565b90506000600160009054906101000a90046001600160a01b03166001600160a01b0316633963e9806040518163ffffffff1660e01b815260040160206040518083038186803b158015611db657600080fd5b505afa158015611dca573d6000803e3d6000fd5b505050506040513d601f19601f82011682018060405250810190611dee9190614edc565b9050611e00828263ffffffff613b0116565b9250505090565b60185481565b600a546001600160a01b031681565b6000546001600160a01b031681565b60125481565b611e39612407565b610fdd81613b26565b611e4a611f9d565b6001600160a01b0316336001600160a01b031614611e7a5760405162461bcd60e51b81526004016109ee906153c5565b611e83816123c2565b600480546001600160a01b0319166001600160a01b0383161790556040517f6493041f605f233753d9b16dd158c9f297b8eaca22b2d0dc402a454f5683a5b190610f1190839061512e565b6000805460408051630a7b61df60e11b8152905183926001600160a01b0316916314f6c3be916004808301926020929190829003018186803b158015611f1357600080fd5b505afa158015611f27573d6000803e3d6000fd5b505050506040513d601f19601f82011682018060405250810190611f4b9190614edc565b90506000600160009054906101000a90046001600160a01b03166001600160a01b03166314f6c3be6040518163ffffffff1660e01b815260040160206040518083038186803b158015611db657600080fd5b600080604051611fac90615111565b6040519081900390205492915050565b60135481565b6004546040516000916060916001600160a01b0390911690611fe79084903690615101565b600060405180830381855af49150503d8060008114612022576040519150601f19603f3d011682016040523d82523d6000602084013e612027565b606091505b509150915081819061204c5760405162461bcd60e51b81526004016109ee91906151da565b50505050505050505050505050565b6000612065612407565b6001600160a01b038316600090815260106020526040812054611046908463ffffffff613b0116565b60145481565b6003546001600160a01b031681565b6040518060400160405280600c81526020016b2a3937bb32a6b0b730b3b2b960a11b81525081565b6006546001600160a01b031681565b600d546001600160a01b031681565b60008060006120f784613271565b9150915060006121078383613b83565b95945050505050565b6005546001600160a01b031681565b600061106582613bb8565b6001600160a01b03811660009081526010602052604081208054600190910154909180612156856110e9565b915061216185611766565b9050612173848363ffffffff613b0116565b9350612185838263ffffffff613b0116565b92509193509193565b6004546040516000916060916001600160a01b03909116906121b39084903690615101565b600060405180830381855af49150503d80600081146121ee576040519150601f19603f3d011682016040523d82523d6000602084013e6121f3565b606091505b50915091508181906122185760405162461bcd60e51b81526004016109ee91906151da565b50505050505050505050565b60155481565b60115481565b7f000000000000000000000000000000000000000000000000000000000000000081565b6000611575612261613329565b6131b6565b670ddd4b8c6c7d70d881565b61227a612407565b610fdd816002613be4565b60006122918383611673565b9392505050565b600f5481565b60006122a8612407565b6001600160a01b038316600090815260106020526040812060010154611c2d908463ffffffff61254516565b60006110656122e1612254565b83613cf9565b6001600160a01b031660009081526010602052604090205490565b6009546001600160a01b031681565b60006017828154811061232057fe5b6000918252602090912001546001600160a01b031692915050565b600060016001600160a01b03831660009081526010602052604090206003015460ff16600481111561236957fe5b14612376575060006110cb565b506014546001600160a01b03821660009081526016602052604090205410919050565b60006110658261233b565b6000611575600e54613a1f565b6123b9612407565b610fdd81613d39565b6001600160a01b0381166123e85760405162461bcd60e51b81526004016109ee906152a6565b803b806115dc5760405162461bcd60e51b81526004016109ee9061544c565b6005546001600160a01b031633146124315760405162461bcd60e51b81526004016109ee90615368565b565b61243c8161233b565b156125405761244a8161316d565b600061245582611107565b905060006124628361160b565b6001600160a01b038416600090815260106020526040902060010154909150612491908363ffffffff613b0116565b6001600160a01b03841660009081526010602052604090206001810191909155546124c2908263ffffffff613b0116565b6001600160a01b0384166000908152601060205260409020556124e483613b26565b6124f085858385613d89565b6001600160a01b0383166000818152601060205260408082208054600182015460029092015492516000805160206156b28339815191529461253594929392916155e3565b60405180910390a250505b505050565b600061229183836040518060400160405280601e81526020017f536166654d6174683a207375627472616374696f6e206f766572666c6f770000815250613e71565b6001600160a01b0381166125ad5760405162461bcd60e51b81526004016109ee90615264565b806001600160a01b03166125bf611f9d565b6001600160a01b03167f8be0079c531659141344cd1fd0a4f28419497f9722a3daafe3b4186f6b6457e060405160405180910390a3600060405161260290615111565b6040519081900390209190915550565b601780546001808201835560008381527fc624b66cc0138b8fabc209247f72d758e1cf3343756d543badbf24212bed8c1590920180546001600160a01b0319166001600160a01b0386161790559154909161266d9190612545565b6001600160a01b039290921660009081526010602052604090206003018054610100600160881b0319166101006001600160801b038516021790555090565b6001600160a01b03811660009081526010602052604081206001015481906126d390613e9d565b6001600160a01b03841660009081526010602052604090206002018054908290556011549192509061271d908390612711908463ffffffff61254516565b9063ffffffff613b0116565b60118190556040517f6bac5e0eb3c44eb03a60ab11ec3a2c051771616aecadbcfff2630aabae5203829161275091615568565b60405180910390a15092915050565b60008261276e57506000611065565b8282028284828161277b57fe5b04146122915760405162461bcd60e51b81526004016109ee90615327565b600061229183836040518060400160405280601a81526020017f536166654d6174683a206469766973696f6e206279207a65726f000000000000815250613ed9565b6000806127e783613bb8565b9050600360009054906101000a90046001600160a01b03166001600160a01b0316635733d58f6040518163ffffffff1660e01b815260040160206040518083038186803b15801561283757600080fd5b505afa15801561284b573d6000803e3d6000fd5b505050506040513d601f19601f8201168201806040525081019061286f9190614edc565b1192915050565b61287e614b5c565b612886614be4565b61288e614b5c565b848252600060808301526128a0611ce8565b60a08301526128ad611ece565b60c0830152600060208301525b835182602001511015612b8057838260200151815181106128d757fe5b6020908102919091018101516001600160a01b03166060840181905260009081526010909152604090206003015460019060ff16600481111561291657fe5b1461292057612b70565b61292e826060015187611673565b60408301526080820151612a9557600360009054906101000a90046001600160a01b03166001600160a01b031663794e57246040518163ffffffff1660e01b815260040160206040518083038186803b15801561298a57600080fd5b505afa15801561299e573d6000803e3d6000fd5b505050506040513d601f19601f820116820180604052508101906129c29190614edc565b8260400151101580156129d457508151155b156129de57612b70565b60006129f38360c001518460a00151896132f7565b9050612a108989856060015186604001518760000151868d613f10565b60808101518451919350612a2a919063ffffffff61254516565b8352608082015160a0840151612a459163ffffffff61254516565b60a08085019190915282015160c0840151612a659163ffffffff61254516565b60c0840152612a7484836142e6565b9350612a898360c001518460a00151896143fd565b15608084015250612b70565b81608001518015612b2e5750600360009054906101000a90046001600160a01b03166001600160a01b031663794e57246040518163ffffffff1660e01b815260040160206040518083038186803b158015612aef57600080fd5b505afa158015612b03573d6000803e3d6000fd5b505050506040513d601f19601f82011682018060405250810190612b279190614edc565b8260400151105b15612b7057612b4788888460600151856000015161449c565b60808101518351919250612b61919063ffffffff61254516565b8252612b6d83826142e6565b92505b60208201805160010190526128ba565b505095945050505050565b612b93614b5c565b612b9b614be4565b612ba3614b5c565b848252600060208301525b835182602001511015612b805783826020015181518110612bcb57fe5b60209081029190910101516001600160a01b031660608301819052612bf09087611673565b6040808401919091526003548151631e5395c960e21b815291516001600160a01b039091169163794e5724916004808301926020929190829003018186803b158015612c3b57600080fd5b505afa158015612c4f573d6000803e3d6000fd5b505050506040513d601f19601f82011682018060405250810190612c739190614edc565b82604001511015612cbb57612c9288888460600151856000015161449c565b60808101518351919250612cac919063ffffffff61254516565b8252612cb883826142e6565b92505b6020820180516001019052612bae565b81612cd557612f29565b601854600090612cf79061271184670de0b6b3a764000063ffffffff61275f16565b90506000612d1c601954612711670de0b6b3a76400008761275f90919063ffffffff16565b90506000612d356011548461279990919063ffffffff16565b90506000612d4e6011548461279990919063ffffffff16565b9050612d75612d686011548461275f90919063ffffffff16565b859063ffffffff61254516565b601855601154612d9d90612d9090839063ffffffff61275f16565b849063ffffffff61254516565b601955601454612db3908363ffffffff613b0116565b601455601554612dc9908263ffffffff613b0116565b60158190556014546040517f9f8bc8ab0daf5bceef75ecfd2085d1fcc6548c657ea970d9a23a60610d0737e392612e009291615571565b60405180910390a160405163121cbc4d60e11b81526001600160a01b03891690632439789a90612e34908990600401615568565b600060405180830381600087803b158015612e4e57600080fd5b505af1158015612e62573d6000803e3d6000fd5b505060405163f2e91d7160e01b81526001600160a01b038a16925063f2e91d719150612e92908990600401615568565b600060405180830381600087803b158015612eac57600080fd5b505af1158015612ec0573d6000803e3d6000fd5b50506040516364a197f360e01b81526001600160a01b038b1692506364a197f39150612ef2908a908990600401615188565b600060405180830381600087803b158015612f0c57600080fd5b505af1158015612f20573d6000803e3d6000fd5b50505050505050505b50505050565b6011546012819055506000826001600160a01b03166314f6c3be6040518163ffffffff1660e01b815260040160206040518083038186803b158015612f7357600080fd5b505afa158015612f87573d6000803e3d6000fd5b505050506040513d601f19601f82011682018060405250810190612fab9190614edc565b90506000600160009054906101000a90046001600160a01b03166001600160a01b03166314f6c3be6040518163ffffffff1660e01b815260040160206040518083038186803b158015612ffd57600080fd5b505afa158015613011573d6000803e3d6000fd5b505050506040513d601f19601f820116820180604052508101906130359190614edc565b905061304b81612711848663ffffffff61254516565b60138190556012546040517f51bf4c63ec3cba9d03d43238abbdd979dd91bd16d9895c74ceea9118c7baaf60926130829291615571565b60405180910390a150505050565b811561310157600954600754604051631062c15f60e11b81526001600160a01b03928316926320c582be926130ce9291169087908790600401615142565b600060405180830381600087803b1580156130e857600080fd5b505af11580156130fc573d6000803e3d6000fd5b505050505b8015612f29576040516364a197f360e01b81526001600160a01b038516906364a197f3906131359086908590600401615188565b600060405180830381600087803b15801561314f57600080fd5b505af1158015613163573d6000803e3d6000fd5b5050505050505050565b60016001600160a01b03821660009081526010602052604090206003015460ff16600481111561319957fe5b14610fdd5760405162461bcd60e51b81526004016109ee90615519565b600061106561324583600360009054906101000a90046001600160a01b03166001600160a01b03166328d28b5b6040518163ffffffff1660e01b815260040160206040518083038186803b15801561320d57600080fd5b505afa158015613221573d6000803e3d6000fd5b505050506040513d601f19601f820116820180604052508101906127119190614edc565b670de0b6b3a76400006145ce565b6000612291670de0b6b3a76400006111b7858563ffffffff61275f16565b600080600061327f84611107565b9050600061328c8561160b565b6001600160a01b038616600090815260106020526040812060010154919250906132bc908463ffffffff613b0116565b6001600160a01b038716600090815260106020526040812054919250906132e9908463ffffffff613b0116565b919550909350505050915091565b6000821561331e576000613315846111b7878663ffffffff61275f16565b91506122919050565b506000199392505050565b6000806133346145e4565b9050600061334a670ddd4b8c6c7d70d883614600565b9050611e00670de0b6b3a76400006111b783600e5461275f90919063ffffffff16565b6000613384600f544261254590919063ffffffff16565b9050603c8110610fdd5742600f8190556040517f860f8d2f0c74dd487e89e2883e3b25b8159ce1e1b3433a291cba7b82c508f3bc91610f1191615568565b6133ca614b5c565b6133d2614be4565b6133da614b5c565b848252600060808301526133ec611ce8565b60a08301526133f9611ece565b8260c001818152505086608001516001600160a01b0316634d6228316040518163ffffffff1660e01b815260040160206040518083038186803b15801561343f57600080fd5b505afa158015613453573d6000803e3d6000fd5b505050506040513d601f19601f820116820180604052508101906134779190614cbb565b82606001906001600160a01b031690816001600160a01b031681525050600087608001516001600160a01b0316631e2231436040518163ffffffff1660e01b815260040160206040518083038186803b1580156134d357600080fd5b505afa1580156134e7573d6000803e3d6000fd5b505050506040513d601f19601f8201168201806040525081019061350b9190614cbb565b6000602085015290505b84836020015110801561353e5750806001600160a01b031683606001516001600160a01b031614155b1561385e5760808801516060840151604051632dc9c0eb60e21b81526000926001600160a01b03169163b72703ac9161357a919060040161512e565b60206040518083038186803b15801561359257600080fd5b505afa1580156135a6573d6000803e3d6000fd5b505050506040513d601f19601f820116820180604052508101906135ca9190614cbb565b90506135da846060015189611673565b6040850152608084015161375357600360009054906101000a90046001600160a01b03166001600160a01b031663794e57246040518163ffffffff1660e01b815260040160206040518083038186803b15801561363657600080fd5b505afa15801561364a573d6000803e3d6000fd5b505050506040513d601f19601f8201168201806040525081019061366e9190614edc565b84604001511015801561368057508351155b1561368b575061385e565b60006136a08560c001518660a001518b6132f7565b8a5160208c01516060880151604089015189519495506136c194868f613f10565b608081015186519195506136db919063ffffffff61254516565b8552608084015160a08601516136f69163ffffffff61254516565b8560a00181815250506137238461010001516114c38660a001518860c0015161254590919063ffffffff16565b60c086015261373286856142e6565b95506137478560c001518660a001518b6143fd565b15608086015250613840565b836080015180156137ec5750600360009054906101000a90046001600160a01b03166001600160a01b031663794e57246040518163ffffffff1660e01b815260040160206040518083038186803b1580156137ad57600080fd5b505afa1580156137c1573d6000803e3d6000fd5b505050506040513d601f19601f820116820180604052508101906137e59190614edc565b8460400151105b1561383a5761380d89600001518a602001518660600151876000015161449c565b60808101518551919450613827919063ffffffff61254516565b845261383385846142e6565b9450613840565b5061385e565b6001600160a01b031660608401526020830180516001019052613515565b505050949350505050565b613871614b5c565b613879614be4565b613881614b5c565b600d54858352600060208401526001600160a01b03165b8483602001511015613a1357806001600160a01b0316634d6228316040518163ffffffff1660e01b815260040160206040518083038186803b1580156138dd57600080fd5b505afa1580156138f1573d6000803e3d6000fd5b505050506040513d601f19601f820116820180604052508101906139159190614cbb565b6001600160a01b03166060840181905261392f9088611673565b6040808501919091526003548151631e5395c960e21b815291516001600160a01b039091169163794e5724916004808301926020929190829003018186803b15801561397a57600080fd5b505afa15801561398e573d6000803e3d6000fd5b505050506040513d601f19601f820116820180604052508101906139b29190614edc565b836040015110156139fe576139d189898560600151866000015161449c565b608081015184519193506139eb919063ffffffff61254516565b83526139f784836142e6565b9350613a03565b613a13565b6020830180516001019052613898565b50505095945050505050565b6000611065613a7683600360009054906101000a90046001600160a01b03166001600160a01b031663f92d34336040518163ffffffff1660e01b815260040160206040518083038186803b15801561320d57600080fd5b600360009054906101000a90046001600160a01b03166001600160a01b031663240926696040518163ffffffff1660e01b815260040160206040518083038186803b158015613ac457600080fd5b505afa158015613ad8573d6000803e3d6000fd5b505050506040513d601f19601f82011682018060405250810190613afc9190614edc565b6145ce565b6000828201838110156122915760405162461bcd60e51b81526004016109ee9061522d565b601480546001600160a01b038316600090815260166020526040908190209182556015546001909201829055915491517fc437f324d85e369394148dd9d62f98f534b382e01ed3dd2eb98138fb6d3ab49a92610f11929091615571565b60008115613baf57613ba8826111b78568056bc75e2d6310000063ffffffff61275f16565b9050611065565b50600019611065565b600080613bc3611ece565b90506000613bcf611ce8565b9050613bdc8282866132f7565b949350505050565b6000816004811115613bf257fe5b14158015613c0c57506001816004811115613c0957fe5b14155b613c1257fe5b601754613c1e816146ab565b6001600160a01b0383166000908152601060205260409020600301805483919060ff19166001836004811115613c5057fe5b02179055506001600160a01b0383166000908152601060209081526040808320600180820185905590849055601690925282208281550155613c928382614751565b600d54604051631484968760e11b81526001600160a01b03909116906329092d0e90613cc290869060040161512e565b600060405180830381600087803b158015613cdc57600080fd5b505af1158015613cf0573d6000803e3d6000fd5b50505050505050565b600080613d18670de0b6b3a76400006111b7868663ffffffff61275f16565b90508281106122915760405162461bcd60e51b81526004016109ee90615481565b6001600160a01b038116600090815260106020526040902060020154601154613d68908263ffffffff61254516565b601155506001600160a01b0316600090815260106020526040812060020155565b60405163121cbc4d60e11b81526001600160a01b03841690632439789a90613db5908590600401615568565b600060405180830381600087803b158015613dcf57600080fd5b505af1158015613de3573d6000803e3d6000fd5b505060405163f2e91d7160e01b81526001600160a01b038716925063f2e91d719150613e13908590600401615568565b600060405180830381600087803b158015613e2d57600080fd5b505af1158015613e41573d6000803e3d6000fd5b505060405163be41205f60e01b81526001600160a01b038616925063be41205f9150613135908490600401615568565b60008184841115613e955760405162461bcd60e51b81526004016109ee91906151da565b505050900390565b60008060135460001415613eb2575081611065565b600060125411613ebe57fe5b6122916013546111b76012548661275f90919063ffffffff16565b60008183613efa5760405162461bcd60e51b81526004016109ee91906151da565b506000838581613f0657fe5b0495945050505050565b613f18614b5c565b613f20614c2c565b601754600110613f3057506142db565b613f398761212a565b60408501526020848101919091528401819052908352613f58906148f2565b604083018190526801158e460913d0000060608401526020830151613f829163ffffffff61254516565b8152670de0b6b3a7640000861161404d57613fa7898983602001518460400151613d89565b613fb087613d39565b60006080830181905260a0830152815160c0830152805160e0830152613fd7876003613be4565b815160208301516040516001600160a01b038a1692600080516020615692833981519152926140089260029061557f565b60405180910390a2866001600160a01b03166000805160206156b28339815191526000806000600260405161404094939291906151ac565b60405180910390a26142d9565b670de0b6b3a7640000861180156140e85750600360009054906101000a90046001600160a01b03166001600160a01b031663794e57246040518163ffffffff1660e01b815260040160206040518083038186803b1580156140ad57600080fd5b505afa1580156140c1573d6000803e3d6000fd5b505050506040513d601f19601f820116820180604052508101906140e59190614edc565b86105b1561413857614101898983602001518460400151613d89565b61410a87613d39565b8151815161411991908761497e565b60e086015260c085015260a08401526080830152613fd7876003613be4565b600360009054906101000a90046001600160a01b03166001600160a01b031663794e57246040518163ffffffff1660e01b815260040160206040518083038186803b15801561418657600080fd5b505afa15801561419a573d6000803e3d6000fd5b505050506040513d601f19601f820116820180604052508101906141be9190614edc565b86101580156141cc57508386105b80156141d9575081518510155b156142c8576141f2898983602001518460400151613d89565b846141f957fe5b61420287613d39565b61421582600001518360200151856149ea565b9150614222876003613be4565b6101008201511561429757600854610100830151604051633f10abab60e01b81526001600160a01b0390921691633f10abab91614264918b9190600401615188565b600060405180830381600087803b15801561427e57600080fd5b505af1158015614292573d6000803e3d6000fd5b505050505b815160a08301516040516001600160a01b038a1692600080516020615692833981519152926140089260029061557f565b6142d0614b5c565b91506142db9050565b505b979650505050505050565b6142ee614b5c565b604080830151908401516143079163ffffffff613b0116565b6040820152606080830151908401516143259163ffffffff613b0116565b6060820152815160208401516143409163ffffffff613b0116565b602080830191909152820151835161435d9163ffffffff613b0116565b8152608080830151908401516143789163ffffffff613b0116565b608082015260a080830151908401516143969163ffffffff613b0116565b60a082015260c080830151908401516143b49163ffffffff613b0116565b60c082015260e080830151908401516143d29163ffffffff613b0116565b60e082015261010080830151908401516143f19163ffffffff613b0116565b61010082015292915050565b60008061440b8585856132f7565b9050600360009054906101000a90046001600160a01b03166001600160a01b0316635733d58f6040518163ffffffff1660e01b815260040160206040518083038186803b15801561445b57600080fd5b505afa15801561446f573d6000803e3d6000fd5b505050506040513d601f19601f820116820180604052508101906144939190614edc565b11949350505050565b6144a4614b5c565b6144ac614c2c565b6144b58461212a565b604085019081526020858101928352860192909252918452905190516144df918891889190613d89565b6144e884613d39565b6144f582602001516148f2565b604083018190526801158e460913d0000060608401526020830151600091614523919063ffffffff61254516565b90506145348360000151828661497e565b60e087015260c086015260a08501526080840152614553856003613be4565b825160208401516040516001600160a01b03881692600080516020615692833981519152926145849260019061557f565b60405180910390a2846001600160a01b03166000805160206156b2833981519152600080600060016040516145bc94939291906151ac565b60405180910390a25050949350505050565b60008183106145dd5781612291565b5090919050565b6000611575603c6111b7600f544261254590919063ffffffff16565b6000631f54050082111561461657631f54050091505b8161462a5750670de0b6b3a7640000611065565b670de0b6b3a764000083835b60018111156146a1576002810661466b576146518283614af8565b915061466481600263ffffffff61279916565b905061469c565b6146758284614af8565b92506146818283614af8565b915061469960026111b783600163ffffffff61254516565b90505b614636565b6111c38284614af8565b6001811180156147355750600d546040805163de8fa43160e01b815290516001926001600160a01b03169163de8fa431916004808301926020929190829003018186803b1580156146fb57600080fd5b505afa15801561470f573d6000803e3d6000fd5b505050506040513d601f19601f820116820180604052508101906147339190614edc565b115b610fdd5760405162461bcd60e51b81526004016109ee906152dd565b6001600160a01b03821660009081526010602052604081206003015460ff169081600481111561477d57fe5b141580156147975750600181600481111561479457fe5b14155b61479d57fe5b6001600160a01b03831660009081526010602052604081206003015461010090046001600160801b03169083906147d5826001612545565b905080836001600160801b031611156147ea57fe5b6000601782815481106147f957fe5b600091825260209091200154601780546001600160a01b03909216925082916001600160801b03871690811061482b57fe5b600091825260208083209190910180546001600160a01b0319166001600160a01b03948516179055918316815260109091526040908190206003018054610100600160881b0319166101006001600160801b03881602179055517f02b04ae5f7be9ca7c103293a2aa15f3c339d15d6eda53b721fef7b0e609c831a906148b49083908790615166565b60405180910390a160178054806148c757fe5b600082815260209020810160001990810180546001600160a01b031916905501905550505050505050565b600354604080516324386ecd60e11b815290516000926001600160a01b031691634870dd9a916004808301926020929190829003018186803b15801561493757600080fd5b505afa15801561494b573d6000803e3d6000fd5b505050506040513d601f19601f8201168201806040525081019061496f9190614edc565b828161497757fe5b0492915050565b600080808084156149d45761499387866145ce565b93506149a9876111b7888763ffffffff61275f16565b92506149bb878563ffffffff61254516565b91506149cd868463ffffffff61254516565b90506149e1565b5060009250829150859050845b93509350935093565b6149f2614b5c565b838152602080820184905260035460408051631e5395c960e21b81529051600093614a8e9387936111b7936001600160a01b039092169263794e572492600480840193829003018186803b158015614a4957600080fd5b505afa158015614a5d573d6000803e3d6000fd5b505050506040513d601f19601f82011682018060405250810190614a819190614edc565b889063ffffffff61275f16565b9050614a99816148f2565b604083018190526801158e460913d00000606084015260808301869052614ac790829063ffffffff61254516565b60a0830152614adc848263ffffffff61254516565b61010083015250600060c0820181905260e08201529392505050565b600080614b0b848463ffffffff61275f16565b9050613bdc670de0b6b3a76400006111b7836706f05b59d3b20000613b01565b6040518060a00160405280600081526020016000815260200160001515815260200160008152602001600081525090565b6040518061012001604052806000815260200160008152602001600081526020016000815260200160008152602001600081526020016000815260200160008152602001600081525090565b6040805160e081018252600080825260208201819052918101829052606081018290526080810182905260a0810182905260c081019190915290565b6040518060e0016040528060008152602001600081526020016000815260200160006001600160a01b0316815260200160001515815260200160008152602001600081525090565b60405180606001604052806000815260200160008152602001600081525090565b80356110658161567c565b60008083601f840112614c69578081fd5b50813567ffffffffffffffff811115614c80578182fd5b602083019150836020828501011115614c9857600080fd5b9250929050565b600060208284031215614cb0578081fd5b81356122918161567c565b600060208284031215614ccc578081fd5b81516122918161567c565b60008060408385031215614ce9578081fd5b8235614cf48161567c565b946020939093013593505050565b60006020808385031215614d14578182fd5b823567ffffffffffffffff811115614d2a578283fd5b80840185601f820112614d3b578384fd5b80359150614d50614d4b83615651565b61562a565b8281528381019082850185850284018601891015614d6c578687fd5b8693505b848410156142d957614d828982614c4d565b835260019390930192918501918501614d70565b60006101c0808385031215614da9578182fd5b614db28161562a565b614dbc8585614c4d565b8152614dcb8560208601614c4d565b6020820152614ddd8560408601614c4d565b6040820152614def8560608601614c4d565b6060820152614e018560808601614c4d565b6080820152614e138560a08601614c4d565b60a0820152614e258560c08601614c4d565b60c0820152614e378560e08601614c4d565b60e08201526101009150614e4d85838601614c4d565b828201526101209150614e6285838601614c4d565b828201526101409150614e7785838601614c4d565b828201526101609150614e8c85838601614c4d565b828201526101809150614ea185838601614c4d565b828201526101a09150614eb685838601614c4d565b918101919091529392505050565b600060208284031215614ed5578081fd5b5035919050565b600060208284031215614eed578081fd5b5051919050565b600080600080600080600060e0888a031215614f0e578283fd5b873596506020880135614f208161567c565b95506040880135614f308161567c565b94506060880135614f408161567c565b9699959850939660808101359560a0820135955060c0909101359350915050565b600080600080600080600080888a03610160811215614f7e578182fd5b8935985060208a0135614f908161567c565b975060408a0135614fa08161567c565b965060608a0135614fb08161567c565b955060808a810135955060a08b0135945060c08b0135935060df1982011215614fd7578182fd5b5060e0890190509295985092959890939650565b6000806000806000806000806000808a8c0361018081121561500b578485fd5b8b359a5060208c013561501d8161567c565b995060408c013561502d8161567c565b985060608c013561503d8161567c565b975060808c810135975060a08d0135965060c08d0135955060df19820190811215615066578384fd5b615070606061562a565b9150604081121561507f578384fd5b5061508a604061562a565b60e08d01356150988161567c565b81526101008d01356020808301919091529082526101208d0135908201526101408c0135604082015292506101608b013567ffffffffffffffff8111156150dd578283fd5b6150e98d828e01614c58565b8194508093505050509295989b9194979a5092959850565b6000828483379101908152919050565b7035b2bc9737bbb730b136329737bbb732b960791b815260110190565b6001600160a01b0391909116815260200190565b6001600160a01b039384168152919092166020820152604081019190915260600190565b6001600160a01b039290921682526001600160801b0316602082015260400190565b6001600160a01b03929092168252602082015260400190565b901515815260200190565b848152602081018490526040810183905260808101600483106151cb57fe5b82606083015295945050505050565b6000602080835283518082850152825b81811015615206578581018301518582016040015282016151ea565b818111156152175783604083870101525b50601f01601f1916929092016040019392505050565b6020808252601b908201527f536166654d6174683a206164646974696f6e206f766572666c6f770000000000604082015260600190565b60208082526022908201527f4f776e61626c653a3a7365744f776e65723a20696e76616c6964206164647265604082015261737360f01b606082015260800190565b6020808252601e908201527f4163636f756e742063616e6e6f74206265207a65726f20616464726573730000604082015260600190565b6020808252602a908201527f54726f76654d616e616765723a204f6e6c79206f6e652074726f766520696e206040820152697468652073797374656d60b01b606082015260800190565b60208082526021908201527f536166654d6174683a206d756c7469706c69636174696f6e206f766572666c6f6040820152607760f81b606082015260800190565b6020808252603b908201527f54726f76654d616e616765723a2043616c6c6572206973206e6f74207468652060408201527f426f72726f7765724f7065726174696f6e7320636f6e74726163740000000000606082015260800190565b60208082526017908201527613dddb98589b194e8e881858d8d95cdcc819195b9a5959604a1b604082015260600190565b60208082526036908201527f54726f76654d616e616765723a2043616c6c646174612061646472657373206160408201527572726179206d757374206e6f7420626520656d70747960501b606082015260800190565b6020808252818101527f4163636f756e7420636f64652073697a652063616e6e6f74206265207a65726f604082015260600190565b60208082526036908201527f54726f76654d616e616765723a2046656520776f756c642065617420757020616040820152751b1b081c995d1d5c9b99590818dbdb1b185d195c985b60521b606082015260800190565b60208082526022908201527f54726f76654d616e616765723a206e6f7468696e6720746f206c697175696461604082015261746560f01b606082015260800190565b6020808252602f908201527f54726f76654d616e616765723a2054726f766520646f6573206e6f742065786960408201526e1cdd081bdc881a5cc818db1bdcd959608a1b606082015260800190565b90815260200190565b918252602082015260400190565b838152602081018390526060810161559683615671565b6040830152949350505050565b858152602081018590526040810184905260a08101600584106155c257fe5b60608201939093526001600160801b03919091166080909101529392505050565b84815260208101849052604081018390526080810161560183615671565b606083015295945050505050565b93845260208401929092526040830152606082015260800190565b60405181810167ffffffffffffffff8111828210171561564957600080fd5b604052919050565b600067ffffffffffffffff821115615667578081fd5b5060209081020190565b80600481106110cb57fe5b6001600160a01b0381168114610fdd57600080fdfeea67486ed7ebe3eea8ab3390efd4a3c8aae48be5bea27df104a8af786c408434c3770d654ed33aeea6bf11ac8ef05d02a6a04ed4686dd2f624d853bbec43cc8ba2646970667358221220a4c2a9a9ec603c1ba14143d02dd4e890d8f91d610315ce69bf8078c0892e8c2464736f6c634300060b0033",
    "implementation": "0xdC03c72c1730b149E3178624FD4d9Bf51501A6E0"
}