{
    "_format": "hh-sol-artifact-1",
    "contractName": "Token",
    "sourceName": "contracts/masset/Token.sol",
    "address": "0xb5999795BE0EbB5bAb23144AA5FD6A02D080299F",
    "abi": [
        {
            "anonymous": false,
            "inputs": [
                {
                    "indexed": true,
                    "internalType": "address",
                    "name": "owner",
                    "type": "address"
                },
                {
                    "indexed": true,
                    "internalType": "address",
                    "name": "spender",
                    "type": "address"
                },
                {
                    "indexed": false,
                    "internalType": "uint256",
                    "name": "value",
                    "type": "uint256"
                }
            ],
            "name": "Approval",
            "type": "event"
        },
        {
            "anonymous": false,
            "inputs": [
                {
                    "indexed": true,
                    "internalType": "address",
                    "name": "previousOwner",
                    "type": "address"
                },
                {
                    "indexed": true,
                    "internalType": "address",
                    "name": "newOwner",
                    "type": "address"
                }
            ],
            "name": "OwnershipTransferred",
            "type": "event"
        },
        {
            "anonymous": false,
            "inputs": [
                {
                    "indexed": true,
                    "internalType": "address",
                    "name": "from",
                    "type": "address"
                },
                {
                    "indexed": true,
                    "internalType": "address",
                    "name": "to",
                    "type": "address"
                },
                {
                    "indexed": false,
                    "internalType": "uint256",
                    "name": "value",
                    "type": "uint256"
                }
            ],
            "name": "Transfer",
            "type": "event"
        },
        {
            "constant": true,
            "inputs": [
                {
                    "internalType": "address",
                    "name": "owner",
                    "type": "address"
                },
                {
                    "internalType": "address",
                    "name": "spender",
                    "type": "address"
                }
            ],
            "name": "allowance",
            "outputs": [
                {
                    "internalType": "uint256",
                    "name": "",
                    "type": "uint256"
                }
            ],
            "payable": false,
            "stateMutability": "view",
            "type": "function"
        },
        {
            "constant": false,
            "inputs": [
                {
                    "internalType": "address",
                    "name": "spender",
                    "type": "address"
                },
                {
                    "internalType": "uint256",
                    "name": "amount",
                    "type": "uint256"
                }
            ],
            "name": "approve",
            "outputs": [
                {
                    "internalType": "bool",
                    "name": "",
                    "type": "bool"
                }
            ],
            "payable": false,
            "stateMutability": "nonpayable",
            "type": "function"
        },
        {
            "constant": true,
            "inputs": [
                {
                    "internalType": "address",
                    "name": "account",
                    "type": "address"
                }
            ],
            "name": "balanceOf",
            "outputs": [
                {
                    "internalType": "uint256",
                    "name": "",
                    "type": "uint256"
                }
            ],
            "payable": false,
            "stateMutability": "view",
            "type": "function"
        },
        {
            "constant": false,
            "inputs": [
                {
                    "internalType": "address",
                    "name": "_account",
                    "type": "address"
                },
                {
                    "internalType": "uint256",
                    "name": "_amount",
                    "type": "uint256"
                }
            ],
            "name": "burn",
            "outputs": [],
            "payable": false,
            "stateMutability": "nonpayable",
            "type": "function"
        },
        {
            "constant": true,
            "inputs": [],
            "name": "decimals",
            "outputs": [
                {
                    "internalType": "uint8",
                    "name": "",
                    "type": "uint8"
                }
            ],
            "payable": false,
            "stateMutability": "view",
            "type": "function"
        },
        {
            "constant": false,
            "inputs": [
                {
                    "internalType": "address",
                    "name": "spender",
                    "type": "address"
                },
                {
                    "internalType": "uint256",
                    "name": "subtractedValue",
                    "type": "uint256"
                }
            ],
            "name": "decreaseAllowance",
            "outputs": [
                {
                    "internalType": "bool",
                    "name": "",
                    "type": "bool"
                }
            ],
            "payable": false,
            "stateMutability": "nonpayable",
            "type": "function"
        },
        {
            "constant": false,
            "inputs": [
                {
                    "internalType": "address",
                    "name": "spender",
                    "type": "address"
                },
                {
                    "internalType": "uint256",
                    "name": "addedValue",
                    "type": "uint256"
                }
            ],
            "name": "increaseAllowance",
            "outputs": [
                {
                    "internalType": "bool",
                    "name": "",
                    "type": "bool"
                }
            ],
            "payable": false,
            "stateMutability": "nonpayable",
            "type": "function"
        },
        {
            "constant": false,
            "inputs": [
                {
                    "internalType": "string",
                    "name": "_name",
                    "type": "string"
                },
                {
                    "internalType": "string",
                    "name": "_symbol",
                    "type": "string"
                },
                {
                    "internalType": "uint8",
                    "name": "_decimals",
                    "type": "uint8"
                }
            ],
            "name": "initialize",
            "outputs": [],
            "payable": false,
            "stateMutability": "nonpayable",
            "type": "function"
        },
        {
            "constant": true,
            "inputs": [],
            "name": "isOwner",
            "outputs": [
                {
                    "internalType": "bool",
                    "name": "",
                    "type": "bool"
                }
            ],
            "payable": false,
            "stateMutability": "view",
            "type": "function"
        },
        {
            "constant": false,
            "inputs": [
                {
                    "internalType": "address",
                    "name": "_account",
                    "type": "address"
                },
                {
                    "internalType": "uint256",
                    "name": "_amount",
                    "type": "uint256"
                }
            ],
            "name": "mint",
            "outputs": [],
            "payable": false,
            "stateMutability": "nonpayable",
            "type": "function"
        },
        {
            "constant": true,
            "inputs": [],
            "name": "name",
            "outputs": [
                {
                    "internalType": "string",
                    "name": "",
                    "type": "string"
                }
            ],
            "payable": false,
            "stateMutability": "view",
            "type": "function"
        },
        {
            "constant": true,
            "inputs": [],
            "name": "owner",
            "outputs": [
                {
                    "internalType": "address",
                    "name": "",
                    "type": "address"
                }
            ],
            "payable": false,
            "stateMutability": "view",
            "type": "function"
        },
        {
            "constant": false,
            "inputs": [],
            "name": "renounceOwnership",
            "outputs": [],
            "payable": false,
            "stateMutability": "nonpayable",
            "type": "function"
        },
        {
            "constant": true,
            "inputs": [],
            "name": "symbol",
            "outputs": [
                {
                    "internalType": "string",
                    "name": "",
                    "type": "string"
                }
            ],
            "payable": false,
            "stateMutability": "view",
            "type": "function"
        },
        {
            "constant": true,
            "inputs": [],
            "name": "totalSupply",
            "outputs": [
                {
                    "internalType": "uint256",
                    "name": "",
                    "type": "uint256"
                }
            ],
            "payable": false,
            "stateMutability": "view",
            "type": "function"
        },
        {
            "constant": false,
            "inputs": [
                {
                    "internalType": "address",
                    "name": "recipient",
                    "type": "address"
                },
                {
                    "internalType": "uint256",
                    "name": "amount",
                    "type": "uint256"
                }
            ],
            "name": "transfer",
            "outputs": [
                {
                    "internalType": "bool",
                    "name": "",
                    "type": "bool"
                }
            ],
            "payable": false,
            "stateMutability": "nonpayable",
            "type": "function"
        },
        {
            "constant": false,
            "inputs": [
                {
                    "internalType": "address",
                    "name": "sender",
                    "type": "address"
                },
                {
                    "internalType": "address",
                    "name": "recipient",
                    "type": "address"
                },
                {
                    "internalType": "uint256",
                    "name": "amount",
                    "type": "uint256"
                }
            ],
            "name": "transferFrom",
            "outputs": [
                {
                    "internalType": "bool",
                    "name": "",
                    "type": "bool"
                }
            ],
            "payable": false,
            "stateMutability": "nonpayable",
            "type": "function"
        },
        {
            "constant": false,
            "inputs": [
                {
                    "internalType": "address",
                    "name": "newOwner",
                    "type": "address"
                }
            ],
            "name": "transferOwnership",
            "outputs": [],
            "payable": false,
            "stateMutability": "nonpayable",
            "type": "function"
        }
    ],
    "bytecode": "0x608060405261133a806100136000396000f3fe608060405234801561001057600080fd5b50600436106101165760003560e01c8063715018a6116100a25780639dc29fac116100715780639dc29fac14610434578063a457c2d714610460578063a9059cbb1461048c578063dd62ed3e146104b8578063f2fde38b146104e657610116565b8063715018a6146103f85780638da5cb5b146104005780638f32d59b1461042457806395d89b411461042c57610116565b806323b872dd116100e957806323b872dd14610326578063313ce5671461035c578063395093511461037a57806340c10f19146103a657806370a08231146103d257610116565b806306fdde031461011b578063095ea7b3146101985780631624f6c6146101d857806318160ddd1461030c575b600080fd5b61012361050c565b6040805160208082528351818301528351919283929083019185019080838360005b8381101561015d578181015183820152602001610145565b50505050905090810190601f16801561018a5780820380516001836020036101000a031916815260200191505b509250505060405180910390f35b6101c4600480360360408110156101ae57600080fd5b506001600160a01b0381351690602001356105a3565b604080519115158252519081900360200190f35b61030a600480360360608110156101ee57600080fd5b81019060208101813564010000000081111561020957600080fd5b82018360208201111561021b57600080fd5b8035906020019184600183028401116401000000008311171561023d57600080fd5b91908080601f016020809104026020016040519081016040528093929190818152602001838380828437600092019190915250929594936020810193503591505064010000000081111561029057600080fd5b8201836020820111156102a257600080fd5b803590602001918460018302840111640100000000831117156102c457600080fd5b91908080601f0160208091040260200160405190810160405280939291908181526020018383808284376000920191909152509295505050903560ff1691506105c09050565b005b6103146105d8565b60408051918252519081900360200190f35b6101c46004803603606081101561033c57600080fd5b506001600160a01b038135811691602081013590911690604001356105de565b61036461066b565b6040805160ff9092168252519081900360200190f35b6101c46004803603604081101561039057600080fd5b506001600160a01b038135169060200135610674565b61030a600480360360408110156103bc57600080fd5b506001600160a01b0381351690602001356106c8565b610314600480360360208110156103e857600080fd5b50356001600160a01b0316610719565b61030a610734565b6104086107c7565b604080516001600160a01b039092168252519081900360200190f35b6101c46107db565b610123610806565b61030a6004803603604081101561044a57600080fd5b506001600160a01b038135169060200135610867565b6101c46004803603604081101561047657600080fd5b506001600160a01b0381351690602001356108b4565b6101c4600480360360408110156104a257600080fd5b506001600160a01b038135169060200135610922565b610314600480360360408110156104ce57600080fd5b506001600160a01b0381358116916020013516610936565b61030a600480360360208110156104fc57600080fd5b50356001600160a01b0316610961565b60038054604080516020601f60026000196101006001881615020190951694909404938401819004810282018101909252828152606093909290918301828280156105985780601f1061056d57610100808354040283529160200191610598565b820191906000526020600020905b81548152906001019060200180831161057b57829003601f168201915b505050505090505b90565b60006105b76105b06109b0565b84846109b4565b50600192915050565b6105cb838383610aa0565b6105d3610ae0565b505050565b60025490565b60006105eb848484610b9b565b610661846105f76109b0565b61065c85604051806060016040528060288152602001611222602891396001600160a01b038a166000908152600160205260408120906106356109b0565b6001600160a01b03168152602081019190915260400160002054919063ffffffff610cf716565b6109b4565b5060019392505050565b60055460ff1690565b60006105b76106816109b0565b8461065c85600160006106926109b0565b6001600160a01b03908116825260208083019390935260409182016000908120918c16815292529020549063ffffffff610d8e16565b6106d06107db565b61070b5760405162461bcd60e51b815260040180806020018281038252602d8152602001806112b4602d913960400191505060405180910390fd5b6107158282610def565b5050565b6001600160a01b031660009081526020819052604090205490565b61073c6107db565b6107775760405162461bcd60e51b815260040180806020018281038252602d8152602001806112b4602d913960400191505060405180910390fd5b60055460405160009161010090046001600160a01b0316907f8be0079c531659141344cd1fd0a4f28419497f9722a3daafe3b4186f6b6457e0908390a360058054610100600160a81b0319169055565b60055461010090046001600160a01b031690565b60055460009061010090046001600160a01b03166107f76109b0565b6001600160a01b031614905090565b60048054604080516020601f60026000196101006001881615020190951694909404938401819004810282018101909252828152606093909290918301828280156105985780601f1061056d57610100808354040283529160200191610598565b61086f6107db565b6108aa5760405162461bcd60e51b815260040180806020018281038252602d8152602001806112b4602d913960400191505060405180910390fd5b6107158282610edf565b60006105b76108c16109b0565b8461065c856040518060600160405280602581526020016112e160259139600160006108eb6109b0565b6001600160a01b03908116825260208083019390935260409182016000908120918d1681529252902054919063ffffffff610cf716565b60006105b761092f6109b0565b8484610b9b565b6001600160a01b03918216600090815260016020908152604080832093909416825291909152205490565b6109696107db565b6109a45760405162461bcd60e51b815260040180806020018281038252602d8152602001806112b4602d913960400191505060405180910390fd5b6109ad81610fdb565b50565b3390565b6001600160a01b0383166109f95760405162461bcd60e51b81526004018080602001828103825260248152602001806112906024913960400191505060405180910390fd5b6001600160a01b038216610a3e5760405162461bcd60e51b81526004018080602001828103825260228152602001806111da6022913960400191505060405180910390fd5b6001600160a01b03808416600081815260016020908152604080832094871680845294825291829020859055815185815291517f8c5be1e5ebec7d5bd14f71427d1e84f3dd0314c0f7b2291e5b200ac8c7c3b9259281900390910190a3505050565b8251610ab39060039060208601906110c9565b508151610ac79060049060208501906110c9565b506005805460ff191660ff929092169190911790555050565b60055461010090046001600160a01b031615610b39576040805162461bcd60e51b8152602060048201526013602482015272185b1c9958591e481a5b9a5d1a585b1a5e9959606a1b604482015290519081900360640190fd5b6000610b436109b0565b60058054610100600160a81b0319166101006001600160a01b03841690810291909117909155604051919250906000907f8be0079c531659141344cd1fd0a4f28419497f9722a3daafe3b4186f6b6457e0908290a350565b6001600160a01b038316610be05760405162461bcd60e51b815260040180806020018281038252602581526020018061126b6025913960400191505060405180910390fd5b6001600160a01b038216610c255760405162461bcd60e51b81526004018080602001828103825260238152602001806111626023913960400191505060405180910390fd5b610c68816040518060600160405280602681526020016111fc602691396001600160a01b038616600090815260208190526040902054919063ffffffff610cf716565b6001600160a01b038085166000908152602081905260408082209390935590841681522054610c9d908263ffffffff610d8e16565b6001600160a01b038084166000818152602081815260409182902094909455805185815290519193928716927fddf252ad1be2c89b69c2b068fc378daa952ba7f163c4a11628f55a4df523b3ef92918290030190a3505050565b60008184841115610d865760405162461bcd60e51b81526004018080602001828103825283818151815260200191508051906020019080838360005b83811015610d4b578181015183820152602001610d33565b50505050905090810190601f168015610d785780820380516001836020036101000a031916815260200191505b509250505060405180910390fd5b505050900390565b600082820183811015610de8576040805162461bcd60e51b815260206004820152601b60248201527f536166654d6174683a206164646974696f6e206f766572666c6f770000000000604482015290519081900360640190fd5b9392505050565b6001600160a01b038216610e4a576040805162461bcd60e51b815260206004820152601f60248201527f45524332303a206d696e7420746f20746865207a65726f206164647265737300604482015290519081900360640190fd5b600254610e5d908263ffffffff610d8e16565b6002556001600160a01b038216600090815260208190526040902054610e89908263ffffffff610d8e16565b6001600160a01b0383166000818152602081815260408083209490945583518581529351929391927fddf252ad1be2c89b69c2b068fc378daa952ba7f163c4a11628f55a4df523b3ef9281900390910190a35050565b6001600160a01b038216610f245760405162461bcd60e51b815260040180806020018281038252602181526020018061124a6021913960400191505060405180910390fd5b610f67816040518060600160405280602281526020016111b8602291396001600160a01b038516600090815260208190526040902054919063ffffffff610cf716565b6001600160a01b038316600090815260208190526040902055600254610f93908263ffffffff61108716565b6002556040805182815290516000916001600160a01b038516917fddf252ad1be2c89b69c2b068fc378daa952ba7f163c4a11628f55a4df523b3ef9181900360200190a35050565b6001600160a01b0381166110205760405162461bcd60e51b81526004018080602001828103825260338152602001806111856033913960400191505060405180910390fd5b6005546040516001600160a01b0380841692610100900416907f8be0079c531659141344cd1fd0a4f28419497f9722a3daafe3b4186f6b6457e090600090a3600580546001600160a01b0390921661010002610100600160a81b0319909216919091179055565b6000610de883836040518060400160405280601e81526020017f536166654d6174683a207375627472616374696f6e206f766572666c6f770000815250610cf7565b828054600181600116156101000203166002900490600052602060002090601f016020900481019282601f1061110a57805160ff1916838001178555611137565b82800160010185558215611137579182015b8281111561113757825182559160200191906001019061111c565b50611143929150611147565b5090565b6105a091905b80821115611143576000815560010161114d56fe45524332303a207472616e7366657220746f20746865207a65726f2061646472657373496e697469616c697a61626c654f776e61626c653a206e6577206f776e657220697320746865207a65726f206164647265737345524332303a206275726e20616d6f756e7420657863656564732062616c616e636545524332303a20617070726f766520746f20746865207a65726f206164647265737345524332303a207472616e7366657220616d6f756e7420657863656564732062616c616e636545524332303a207472616e7366657220616d6f756e74206578636565647320616c6c6f77616e636545524332303a206275726e2066726f6d20746865207a65726f206164647265737345524332303a207472616e736665722066726f6d20746865207a65726f206164647265737345524332303a20617070726f76652066726f6d20746865207a65726f2061646472657373496e697469616c697a61626c654f776e61626c653a2063616c6c6572206973206e6f7420746865206f776e657245524332303a2064656372656173656420616c6c6f77616e63652062656c6f77207a65726fa265627a7a72315820eb7c93c2185f914736a567440d6d377be88e8aa752250e617e25e05a4717e61364736f6c63430005110032",
    "linkReferences": {},
    "deployedLinkReferences": {}
}