{
    "_format": "hh-sol-artifact-1",
    "contractName": "Masset",
    "sourceName": "contracts/masset/Masset.sol",
    "address": "0x1440d19436bEeaF8517896bffB957a88EC95a00F",
    "abi": [
        {
            "anonymous": false,
            "inputs": [
                {
                    "indexed": true,
                    "internalType": "address",
                    "name": "minter",
                    "type": "address"
                },
                {
                    "indexed": true,
                    "internalType": "address",
                    "name": "recipient",
                    "type": "address"
                },
                {
                    "indexed": false,
                    "internalType": "uint256",
                    "name": "massetQuantity",
                    "type": "uint256"
                },
                {
                    "indexed": false,
                    "internalType": "address",
                    "name": "bAsset",
                    "type": "address"
                },
                {
                    "indexed": false,
                    "internalType": "uint256",
                    "name": "bassetQuantity",
                    "type": "uint256"
                }
            ],
            "name": "Minted",
            "type": "event"
        },
        {
            "anonymous": false,
            "inputs": [
                {
                    "indexed": true,
                    "internalType": "address",
                    "name": "previousOwner",
                    "type": "address"
                },
                {
                    "indexed": true,
                    "internalType": "address",
                    "name": "newOwner",
                    "type": "address"
                }
            ],
            "name": "OwnershipTransferred",
            "type": "event"
        },
        {
            "anonymous": false,
            "inputs": [
                {
                    "indexed": true,
                    "internalType": "address",
                    "name": "redeemer",
                    "type": "address"
                },
                {
                    "indexed": true,
                    "internalType": "address",
                    "name": "recipient",
                    "type": "address"
                },
                {
                    "indexed": false,
                    "internalType": "uint256",
                    "name": "massetQuantity",
                    "type": "uint256"
                },
                {
                    "indexed": false,
                    "internalType": "address",
                    "name": "bAsset",
                    "type": "address"
                },
                {
                    "indexed": false,
                    "internalType": "uint256",
                    "name": "bassetQuantity",
                    "type": "uint256"
                }
            ],
            "name": "Redeemed",
            "type": "event"
        },
        {
            "anonymous": false,
            "inputs": [
                {
                    "indexed": true,
                    "internalType": "address",
                    "name": "basset",
                    "type": "address"
                },
                {
                    "indexed": false,
                    "internalType": "uint256",
                    "name": "amount",
                    "type": "uint256"
                },
                {
                    "indexed": true,
                    "internalType": "address",
                    "name": "user",
                    "type": "address"
                },
                {
                    "indexed": false,
                    "internalType": "uint256",
                    "name": "penalty",
                    "type": "uint256"
                }
            ],
            "name": "onPenaltyPaid",
            "type": "event"
        },
        {
            "anonymous": false,
            "inputs": [
                {
                    "indexed": true,
                    "internalType": "address",
                    "name": "basset",
                    "type": "address"
                },
                {
                    "indexed": false,
                    "internalType": "uint256",
                    "name": "amount",
                    "type": "uint256"
                },
                {
                    "indexed": true,
                    "internalType": "address",
                    "name": "user",
                    "type": "address"
                },
                {
                    "indexed": false,
                    "internalType": "uint256",
                    "name": "reward",
                    "type": "uint256"
                }
            ],
            "name": "onRewardPaid",
            "type": "event"
        },
        {
            "anonymous": false,
            "inputs": [
                {
                    "indexed": true,
                    "internalType": "address",
                    "name": "sender",
                    "type": "address"
                },
                {
                    "indexed": true,
                    "internalType": "address",
                    "name": "oldBasketManager",
                    "type": "address"
                },
                {
                    "indexed": true,
                    "internalType": "address",
                    "name": "newBaskManager",
                    "type": "address"
                }
            ],
            "name": "onSetBasketManager",
            "type": "event"
        },
        {
            "anonymous": false,
            "inputs": [
                {
                    "indexed": true,
                    "internalType": "address",
                    "name": "sender",
                    "type": "address"
                },
                {
                    "indexed": true,
                    "internalType": "address",
                    "name": "oldBonusManager",
                    "type": "address"
                },
                {
                    "indexed": true,
                    "internalType": "address",
                    "name": "newBonusManager",
                    "type": "address"
                }
            ],
            "name": "onSetBonusManager",
            "type": "event"
        },
        {
            "anonymous": false,
            "inputs": [
                {
                    "indexed": true,
                    "internalType": "address",
                    "name": "sender",
                    "type": "address"
                },
                {
                    "indexed": true,
                    "internalType": "address",
                    "name": "oldPauseManager",
                    "type": "address"
                },
                {
                    "indexed": true,
                    "internalType": "address",
                    "name": "newPauseManager",
                    "type": "address"
                }
            ],
            "name": "onSetPauseManager",
            "type": "event"
        },
        {
            "anonymous": false,
            "inputs": [
                {
                    "indexed": true,
                    "internalType": "address",
                    "name": "sender",
                    "type": "address"
                },
                {
                    "indexed": true,
                    "internalType": "address",
                    "name": "oldRewardManager",
                    "type": "address"
                },
                {
                    "indexed": true,
                    "internalType": "address",
                    "name": "newRewardManager",
                    "type": "address"
                }
            ],
            "name": "onSetRewardManager",
            "type": "event"
        },
        {
            "anonymous": false,
            "inputs": [
                {
                    "indexed": true,
                    "internalType": "address",
                    "name": "sender",
                    "type": "address"
                },
                {
                    "indexed": true,
                    "internalType": "address",
                    "name": "oldToken",
                    "type": "address"
                },
                {
                    "indexed": true,
                    "internalType": "address",
                    "name": "newToken",
                    "type": "address"
                }
            ],
            "name": "onSetToken",
            "type": "event"
        },
        {
            "anonymous": false,
            "inputs": [
                {
                    "indexed": true,
                    "internalType": "address",
                    "name": "sender",
                    "type": "address"
                },
                {
                    "indexed": true,
                    "internalType": "address",
                    "name": "oldTokenOwner",
                    "type": "address"
                },
                {
                    "indexed": true,
                    "internalType": "address",
                    "name": "newTokenOwner",
                    "type": "address"
                }
            ],
            "name": "onSetTokenOwner",
            "type": "event"
        },
        {
            "anonymous": false,
            "inputs": [
                {
                    "indexed": true,
                    "internalType": "address",
                    "name": "sender",
                    "type": "address"
                },
                {
                    "indexed": false,
                    "internalType": "uint256",
                    "name": "orderAmount",
                    "type": "uint256"
                },
                {
                    "indexed": false,
                    "internalType": "address",
                    "name": "tokenAddress",
                    "type": "address"
                },
                {
                    "indexed": false,
                    "internalType": "bytes",
                    "name": "userData",
                    "type": "bytes"
                }
            ],
            "name": "onTokensMintedCalled",
            "type": "event"
        },
        {
            "anonymous": false,
            "inputs": [
                {
                    "indexed": false,
                    "internalType": "address",
                    "name": "operator",
                    "type": "address"
                },
                {
                    "indexed": false,
                    "internalType": "address",
                    "name": "from",
                    "type": "address"
                },
                {
                    "indexed": false,
                    "internalType": "address",
                    "name": "to",
                    "type": "address"
                },
                {
                    "indexed": false,
                    "internalType": "uint256",
                    "name": "amount",
                    "type": "uint256"
                },
                {
                    "indexed": false,
                    "internalType": "bytes",
                    "name": "userData",
                    "type": "bytes"
                },
                {
                    "indexed": false,
                    "internalType": "bytes",
                    "name": "operatorData",
                    "type": "bytes"
                }
            ],
            "name": "onTokensReceivedCalled",
            "type": "event"
        },
        {
            "constant": true,
            "inputs": [],
            "name": "getBasketManager",
            "outputs": [
                {
                    "internalType": "address",
                    "name": "",
                    "type": "address"
                }
            ],
            "payable": false,
            "stateMutability": "view",
            "type": "function"
        },
        {
            "constant": true,
            "inputs": [],
            "name": "getBonusManager",
            "outputs": [
                {
                    "internalType": "address",
                    "name": "",
                    "type": "address"
                }
            ],
            "payable": false,
            "stateMutability": "view",
            "type": "function"
        },
        {
            "constant": true,
            "inputs": [],
            "name": "getPauseManager",
            "outputs": [
                {
                    "internalType": "address",
                    "name": "",
                    "type": "address"
                }
            ],
            "payable": false,
            "stateMutability": "view",
            "type": "function"
        },
        {
            "constant": true,
            "inputs": [],
            "name": "getRewardManager",
            "outputs": [
                {
                    "internalType": "address",
                    "name": "",
                    "type": "address"
                }
            ],
            "payable": false,
            "stateMutability": "view",
            "type": "function"
        },
        {
            "constant": true,
            "inputs": [],
            "name": "getToken",
            "outputs": [
                {
                    "internalType": "address",
                    "name": "",
                    "type": "address"
                }
            ],
            "payable": false,
            "stateMutability": "view",
            "type": "function"
        },
        {
            "constant": true,
            "inputs": [],
            "name": "getVersion",
            "outputs": [
                {
                    "internalType": "string",
                    "name": "",
                    "type": "string"
                }
            ],
            "payable": false,
            "stateMutability": "view",
            "type": "function"
        },
        {
            "constant": false,
            "inputs": [
                {
                    "internalType": "address",
                    "name": "_basketManagerAddress",
                    "type": "address"
                },
                {
                    "internalType": "address",
                    "name": "_tokenAddress",
                    "type": "address"
                },
                {
                    "internalType": "bool",
                    "name": "_registerAsERC777RecipientFlag",
                    "type": "bool"
                }
            ],
            "name": "initialize",
            "outputs": [],
            "payable": false,
            "stateMutability": "nonpayable",
            "type": "function"
        },
        {
            "constant": true,
            "inputs": [],
            "name": "isOwner",
            "outputs": [
                {
                    "internalType": "bool",
                    "name": "",
                    "type": "bool"
                }
            ],
            "payable": false,
            "stateMutability": "view",
            "type": "function"
        },
        {
            "constant": false,
            "inputs": [],
            "name": "migrateToV5",
            "outputs": [],
            "payable": false,
            "stateMutability": "nonpayable",
            "type": "function"
        },
        {
            "constant": false,
            "inputs": [
                {
                    "internalType": "address",
                    "name": "_bAsset",
                    "type": "address"
                },
                {
                    "internalType": "uint256",
                    "name": "_bAssetQuantity",
                    "type": "uint256"
                }
            ],
            "name": "mint",
            "outputs": [
                {
                    "internalType": "uint256",
                    "name": "massetMinted",
                    "type": "uint256"
                }
            ],
            "payable": false,
            "stateMutability": "nonpayable",
            "type": "function"
        },
        {
            "constant": false,
            "inputs": [
                {
                    "internalType": "address",
                    "name": "_bAsset",
                    "type": "address"
                },
                {
                    "internalType": "uint256",
                    "name": "_bAssetQuantity",
                    "type": "uint256"
                },
                {
                    "internalType": "address",
                    "name": "_recipient",
                    "type": "address"
                }
            ],
            "name": "mintTo",
            "outputs": [
                {
                    "internalType": "uint256",
                    "name": "massetMinted",
                    "type": "uint256"
                }
            ],
            "payable": false,
            "stateMutability": "nonpayable",
            "type": "function"
        },
        {
            "constant": false,
            "inputs": [
                {
                    "internalType": "address",
                    "name": "_bAsset",
                    "type": "address"
                },
                {
                    "internalType": "uint256",
                    "name": "_bAssetQuantity",
                    "type": "uint256"
                },
                {
                    "internalType": "address",
                    "name": "_recipient",
                    "type": "address"
                },
                {
                    "internalType": "uint256",
                    "name": "_minimumReward",
                    "type": "uint256"
                }
            ],
            "name": "mintToWithMinimumReward",
            "outputs": [
                {
                    "internalType": "uint256",
                    "name": "massetMinted",
                    "type": "uint256"
                }
            ],
            "payable": false,
            "stateMutability": "nonpayable",
            "type": "function"
        },
        {
            "constant": false,
            "inputs": [
                {
                    "internalType": "address",
                    "name": "_bAsset",
                    "type": "address"
                },
                {
                    "internalType": "uint256",
                    "name": "_bAssetQuantity",
                    "type": "uint256"
                },
                {
                    "internalType": "uint256",
                    "name": "_minimumReward",
                    "type": "uint256"
                }
            ],
            "name": "mintWithMinimumReward",
            "outputs": [
                {
                    "internalType": "uint256",
                    "name": "massetMinted",
                    "type": "uint256"
                }
            ],
            "payable": false,
            "stateMutability": "nonpayable",
            "type": "function"
        },
        {
            "constant": false,
            "inputs": [
                {
                    "internalType": "uint256",
                    "name": "_orderAmount",
                    "type": "uint256"
                },
                {
                    "internalType": "address",
                    "name": "_tokenAddress",
                    "type": "address"
                },
                {
                    "internalType": "bytes",
                    "name": "_userData",
                    "type": "bytes"
                }
            ],
            "name": "onTokensMinted",
            "outputs": [],
            "payable": false,
            "stateMutability": "nonpayable",
            "type": "function"
        },
        {
            "constant": true,
            "inputs": [],
            "name": "owner",
            "outputs": [
                {
                    "internalType": "address",
                    "name": "",
                    "type": "address"
                }
            ],
            "payable": false,
            "stateMutability": "view",
            "type": "function"
        },
        {
            "constant": false,
            "inputs": [
                {
                    "internalType": "address",
                    "name": "_bAsset",
                    "type": "address"
                },
                {
                    "internalType": "uint256",
                    "name": "_massetQuantity",
                    "type": "uint256"
                }
            ],
            "name": "redeem",
            "outputs": [
                {
                    "internalType": "uint256",
                    "name": "massetRedeemed",
                    "type": "uint256"
                }
            ],
            "payable": false,
            "stateMutability": "nonpayable",
            "type": "function"
        },
        {
            "constant": false,
            "inputs": [
                {
                    "internalType": "address",
                    "name": "_bAsset",
                    "type": "address"
                },
                {
                    "internalType": "uint256",
                    "name": "_massetQuantity",
                    "type": "uint256"
                },
                {
                    "internalType": "address",
                    "name": "_recipient",
                    "type": "address"
                }
            ],
            "name": "redeemTo",
            "outputs": [
                {
                    "internalType": "uint256",
                    "name": "massetRedeemed",
                    "type": "uint256"
                }
            ],
            "payable": false,
            "stateMutability": "nonpayable",
            "type": "function"
        },
        {
            "constant": false,
            "inputs": [
                {
                    "internalType": "address",
                    "name": "_basset",
                    "type": "address"
                },
                {
                    "internalType": "uint256",
                    "name": "_massetQuantity",
                    "type": "uint256"
                },
                {
                    "internalType": "address",
                    "name": "_recipient",
                    "type": "address"
                }
            ],
            "name": "redeemToBridge",
            "outputs": [
                {
                    "internalType": "uint256",
                    "name": "massetRedeemed",
                    "type": "uint256"
                }
            ],
            "payable": false,
            "stateMutability": "nonpayable",
            "type": "function"
        },
        {
            "constant": false,
            "inputs": [
                {
                    "internalType": "address",
                    "name": "_basset",
                    "type": "address"
                },
                {
                    "internalType": "uint256",
                    "name": "_massetQuantity",
                    "type": "uint256"
                },
                {
                    "internalType": "address",
                    "name": "_recipient",
                    "type": "address"
                },
                {
                    "internalType": "uint256",
                    "name": "_maximumPenalty",
                    "type": "uint256"
                }
            ],
            "name": "redeemToBridgeWithMaximumPenalty",
            "outputs": [
                {
                    "internalType": "uint256",
                    "name": "massetRedeemed",
                    "type": "uint256"
                }
            ],
            "payable": false,
            "stateMutability": "nonpayable",
            "type": "function"
        },
        {
            "constant": false,
            "inputs": [
                {
                    "internalType": "address",
                    "name": "_bAsset",
                    "type": "address"
                },
                {
                    "internalType": "uint256",
                    "name": "_massetQuantity",
                    "type": "uint256"
                },
                {
                    "internalType": "address",
                    "name": "_recipient",
                    "type": "address"
                },
                {
                    "internalType": "uint256",
                    "name": "_maximumPenalty",
                    "type": "uint256"
                }
            ],
            "name": "redeemToWithMaximumPenalty",
            "outputs": [
                {
                    "internalType": "uint256",
                    "name": "massetRedeemed",
                    "type": "uint256"
                }
            ],
            "payable": false,
            "stateMutability": "nonpayable",
            "type": "function"
        },
        {
            "constant": false,
            "inputs": [
                {
                    "internalType": "address",
                    "name": "_bAsset",
                    "type": "address"
                },
                {
                    "internalType": "uint256",
                    "name": "_massetQuantity",
                    "type": "uint256"
                },
                {
                    "internalType": "uint256",
                    "name": "_maximumPenalty",
                    "type": "uint256"
                }
            ],
            "name": "redeemWithMaximumPenalty",
            "outputs": [
                {
                    "internalType": "uint256",
                    "name": "massetRedeemed",
                    "type": "uint256"
                }
            ],
            "payable": false,
            "stateMutability": "nonpayable",
            "type": "function"
        },
        {
            "constant": false,
            "inputs": [],
            "name": "removeBonusManager",
            "outputs": [],
            "payable": false,
            "stateMutability": "nonpayable",
            "type": "function"
        },
        {
            "constant": false,
            "inputs": [],
            "name": "renounceOwnership",
            "outputs": [],
            "payable": false,
            "stateMutability": "nonpayable",
            "type": "function"
        },
        {
            "constant": false,
            "inputs": [
                {
                    "internalType": "address",
                    "name": "_basketManagerAddress",
                    "type": "address"
                }
            ],
            "name": "setBasketManager",
            "outputs": [],
            "payable": false,
            "stateMutability": "nonpayable",
            "type": "function"
        },
        {
            "constant": false,
            "inputs": [
                {
                    "internalType": "address",
                    "name": "_newBonusManagerAddress",
                    "type": "address"
                }
            ],
            "name": "setBonusManager",
            "outputs": [],
            "payable": false,
            "stateMutability": "nonpayable",
            "type": "function"
        },
        {
            "constant": false,
            "inputs": [
                {
                    "internalType": "address",
                    "name": "_newPauseManager",
                    "type": "address"
                }
            ],
            "name": "setPauseManager",
            "outputs": [],
            "payable": false,
            "stateMutability": "nonpayable",
            "type": "function"
        },
        {
            "constant": false,
            "inputs": [
                {
                    "internalType": "address",
                    "name": "_newRewardManager",
                    "type": "address"
                }
            ],
            "name": "setRewardManager",
            "outputs": [],
            "payable": false,
            "stateMutability": "nonpayable",
            "type": "function"
        },
        {
            "constant": false,
            "inputs": [
                {
                    "internalType": "address",
                    "name": "_tokenAddress",
                    "type": "address"
                }
            ],
            "name": "setToken",
            "outputs": [],
            "payable": false,
            "stateMutability": "nonpayable",
            "type": "function"
        },
        {
            "constant": false,
            "inputs": [
                {
                    "internalType": "address",
                    "name": "_newOwner",
                    "type": "address"
                }
            ],
            "name": "setTokenOwner",
            "outputs": [],
            "payable": false,
            "stateMutability": "nonpayable",
            "type": "function"
        },
        {
            "constant": false,
            "inputs": [
                {
                    "internalType": "address",
                    "name": "_operator",
                    "type": "address"
                },
                {
                    "internalType": "address",
                    "name": "_from",
                    "type": "address"
                },
                {
                    "internalType": "address",
                    "name": "_to",
                    "type": "address"
                },
                {
                    "internalType": "uint256",
                    "name": "_amount",
                    "type": "uint256"
                },
                {
                    "internalType": "bytes",
                    "name": "_userData",
                    "type": "bytes"
                },
                {
                    "internalType": "bytes",
                    "name": "_operatorData",
                    "type": "bytes"
                }
            ],
            "name": "tokensReceived",
            "outputs": [],
            "payable": false,
            "stateMutability": "nonpayable",
            "type": "function"
        },
        {
            "constant": false,
            "inputs": [
                {
                    "internalType": "address",
                    "name": "newOwner",
                    "type": "address"
                }
            ],
            "name": "transferOwnership",
            "outputs": [],
            "payable": false,
            "stateMutability": "nonpayable",
            "type": "function"
        }
    ],
    "bytecode": "0x60806040526136df806100136000396000f3fe608060405234801561001057600080fd5b50600436106101e35760003560e01c8063769b81d61161010f578063960015a2116100a2578063e4bbb5a811610071578063e4bbb5a81461071a578063eeea5d3614610752578063f2fde38b1461075a578063fb2c922314610780576101e3565b8063960015a21461064f5780639e05e54014610685578063c4a586371461068d578063e341ca5e14610712576101e3565b80638da5cb5b116100de5780638da5cb5b146105cb5780638f32d59b146105d3578063944459d8146105ef57806395843a5c14610615576101e3565b8063769b81d6146105455780637c1740d91461054d5780637fa89e1a14610573578063890d4112146105a5576101e3565b806318e02bd9116101875780633f5a1265116101565780633f5a1265146104a157806340c10f19146104db578063438b1b4b14610507578063715018a61461053d576101e3565b806318e02bd9146104155780631e9a69501461043b57806321df0da71461046757806328bdfbbf1461046f576101e3565b806304e76c8f116101c357806304e76c8f146103285780630d8e6e2c1461034c578063144fa6d7146103c9578063153ee554146103ef576101e3565b806223de29146101e8578062d11547146102d457806303924efd14610320575b600080fd5b6102d2600480360360c08110156101fe57600080fd5b6001600160a01b03823581169260208101358216926040820135909216916060820135919081019060a08101608082013564010000000081111561024157600080fd5b82018360208201111561025357600080fd5b8035906020019184600183028401116401000000008311171561027557600080fd5b91939092909160208101903564010000000081111561029357600080fd5b8201836020820111156102a557600080fd5b803590602001918460018302840111640100000000831117156102c757600080fd5b5090925090506107b6565b005b61030e600480360360808110156102ea57600080fd5b506001600160a01b03813581169160208101359160408201351690606001356108a2565b60408051918252519081900360200190f35b6102d2610925565b6103306109b4565b604080516001600160a01b039092168252519081900360200190f35b6103546109c4565b6040805160208082528351818301528351919283929083019185019080838360005b8381101561038e578181015183820152602001610376565b50505050905090810190601f1680156103bb5780820380516001836020036101000a031916815260200191505b509250505060405180910390f35b6102d2600480360360208110156103df57600080fd5b50356001600160a01b0316610a59565b6102d26004803603602081101561040557600080fd5b50356001600160a01b0316610b97565b6102d26004803603602081101561042b57600080fd5b50356001600160a01b0316610c94565b61030e6004803603604081101561045157600080fd5b506001600160a01b038135169060200135610eff565b610330610f84565b61030e6004803603606081101561048557600080fd5b506001600160a01b038135169060208101359060400135610f93565b61030e600480360360808110156104b757600080fd5b506001600160a01b0381358116916020810135916040820135169060600135611019565b61030e600480360360408110156104f157600080fd5b506001600160a01b038135169060200135611081565b61030e6004803603606081101561051d57600080fd5b506001600160a01b038135811691602081013591604090910135166110ea565b6102d2611153565b6103306111e0565b6102d26004803603602081101561056357600080fd5b50356001600160a01b03166111ef565b61030e6004803603606081101561058957600080fd5b506001600160a01b03813516906020810135906040013561132d565b6102d2600480360360208110156105bb57600080fd5b50356001600160a01b0316611393565b6103306114d1565b6105db6114e0565b604080519115158252519081900360200190f35b6102d26004803603602081101561060557600080fd5b50356001600160a01b0316611504565b61030e6004803603608081101561062b57600080fd5b506001600160a01b03813581169160208101359160408201351690606001356115f0565b61030e6004803603606081101561066557600080fd5b506001600160a01b0381358116916020810135916040909101351661165a565b6102d26116c2565b6102d2600480360360608110156106a357600080fd5b8135916001600160a01b03602082013516918101906060810160408201356401000000008111156106d357600080fd5b8201836020820111156106e557600080fd5b8035906020019184600183028401116401000000008311171561070757600080fd5b509092509050611818565b610330611f04565b6102d26004803603606081101561073057600080fd5b506001600160a01b038135811691602081013590911690604001351515611f13565b610330612099565b6102d26004803603602081101561077057600080fd5b50356001600160a01b03166120a8565b61030e6004803603606081101561079657600080fd5b506001600160a01b038135811691602081013591604090910135166120f7565b7fa693010e29186da1ce1e8a9fdf6619831117e41c17cbb8927787b66b35627be6888888888888888860405180896001600160a01b03166001600160a01b03168152602001886001600160a01b03166001600160a01b03168152602001876001600160a01b03166001600160a01b0316815260200186815260200180602001806020018381038352878782818152602001925080828437600083820152601f01601f191690910184810383528581526020019050858580828437600083820152604051601f909101601f19169092018290039c50909a5050505050505050505050a15050505050505050565b60008054600160a01b900460ff166108ef576040805162461bcd60e51b815260206004820152601f6024820152600080516020613615833981519152604482015290519081900360640190fd5b6000805460ff60a01b1916905561090885858585612161565b90506000805460ff60a01b1916600160a01b179055949350505050565b61092d6114e0565b6109685760405162461bcd60e51b815260040180806020018281038252602d81526020018061367e602d913960400191505060405180910390fd5b6006546040516000916001600160a01b03169033907f8fb43f6330efb57c0a98b5a17c7234e9d851e43f8c9ac5ec546139c5406e4d95908490a4600680546001600160a01b0319169055565b6005546001600160a01b03165b90565b60018054604080516020601f60026000196101008789161502019095169490940493840181900481028201810190925282815260609390929091830182828015610a4f5780601f10610a2457610100808354040283529160200191610a4f565b820191906000526020600020905b815481529060010190602001808311610a3257829003601f168201915b5050505050905090565b610a616114e0565b610a9c5760405162461bcd60e51b815260040180806020018281038252602d81526020018061367e602d913960400191505060405180910390fd5b6003546001600160a01b0382811691161415610aee576040805162461bcd60e51b815260206004820152600c60248201526b73616d65206164647265737360a01b604482015290519081900360640190fd5b610af781612769565b610b39576040805162461bcd60e51b815260206004820152600e60248201526d1b9bdd08184818dbdb9d1c9858dd60921b604482015290519081900360640190fd5b6003546040516001600160a01b0380841692169033907ff393bbac293bed72b204684551ddb2a9aa545b74f7b560e68c3c82d6d1cde4d890600090a4600380546001600160a01b0319166001600160a01b0392909216919091179055565b610b9f6114e0565b610bda5760405162461bcd60e51b815260040180806020018281038252602d81526020018061367e602d913960400191505060405180910390fd5b6001600160a01b0381161580610bf45750610bf481612769565b610c36576040805162461bcd60e51b815260206004820152600e60248201526d1b9bdd08184818dbdb9d1c9858dd60921b604482015290519081900360640190fd5b6005546040516001600160a01b0380841692169033907f5c721729544d137bf2541f4d294c8fbba85b71464873d72e0d41d0381074f28290600090a4600580546001600160a01b0319166001600160a01b0392909216919091179055565b610c9c6114e0565b610cd75760405162461bcd60e51b815260040180806020018281038252602d81526020018061367e602d913960400191505060405180910390fd5b6001600160a01b038116610d24576040805162461bcd60e51b815260206004820152600f60248201526e1859191c995cdcc81a5b9d985b1a59608a1b604482015290519081900360640190fd5b600360009054906101000a90046001600160a01b03166001600160a01b0316638da5cb5b6040518163ffffffff1660e01b815260040160206040518083038186803b158015610d7257600080fd5b505afa158015610d86573d6000803e3d6000fd5b505050506040513d6020811015610d9c57600080fd5b50516001600160a01b0382811691161415610ded576040805162461bcd60e51b815260206004820152600c60248201526b73616d65206164647265737360a01b604482015290519081900360640190fd5b60035460408051638da5cb5b60e01b815290516001600160a01b03808516931691638da5cb5b916004808301926020929190829003018186803b158015610e3357600080fd5b505afa158015610e47573d6000803e3d6000fd5b505050506040513d6020811015610e5d57600080fd5b50516040516001600160a01b039091169033907ff474b4e51da68ddd86776b27f0e0cc6a5db16c19eca91e9e21d726393f8ddbb290600090a46003546040805163f2fde38b60e01b81526001600160a01b0384811660048301529151919092169163f2fde38b91602480830192600092919082900301818387803b158015610ee457600080fd5b505af1158015610ef8573d6000803e3d6000fd5b5050505050565b60008054600160a01b900460ff16610f4c576040805162461bcd60e51b815260206004820152601f6024820152600080516020613615833981519152604482015290519081900360640190fd5b6000805460ff60a01b19168155610f6990849084903390826127a5565b90506000805460ff60a01b1916600160a01b17905592915050565b6003546001600160a01b031690565b60008054600160a01b900460ff16610fe0576040805162461bcd60e51b815260206004820152601f6024820152600080516020613615833981519152604482015290519081900360640190fd5b6000805460ff60a01b19168155610ffd90859085903390866127a5565b90506000805460ff60a01b1916600160a01b1790559392505050565b60008054600160a01b900460ff16611066576040805162461bcd60e51b815260206004820152601f6024820152600080516020613615833981519152604482015290519081900360640190fd5b6000805460ff60a01b191690556109088585856001866127a5565b60008054600160a01b900460ff166110ce576040805162461bcd60e51b815260206004820152601f6024820152600080516020613615833981519152604482015290519081900360640190fd5b6000805460ff60a01b19168155610f6990849084903390612161565b60008054600160a01b900460ff16611137576040805162461bcd60e51b815260206004820152601f6024820152600080516020613615833981519152604482015290519081900360640190fd5b6000805460ff60a01b19168155610ffd90859085908590612161565b61115b6114e0565b6111965760405162461bcd60e51b815260040180806020018281038252602d81526020018061367e602d913960400191505060405180910390fd5b600080546040516001600160a01b03909116907f8be0079c531659141344cd1fd0a4f28419497f9722a3daafe3b4186f6b6457e0908390a3600080546001600160a01b0319169055565b6004546001600160a01b031690565b6111f76114e0565b6112325760405162461bcd60e51b815260040180806020018281038252602d81526020018061367e602d913960400191505060405180910390fd5b6002546001600160a01b0382811691161415611284576040805162461bcd60e51b815260206004820152600c60248201526b73616d65206164647265737360a01b604482015290519081900360640190fd5b61128d81612769565b6112cf576040805162461bcd60e51b815260206004820152600e60248201526d1b9bdd08184818dbdb9d1c9858dd60921b604482015290519081900360640190fd5b6002546040516001600160a01b0380841692169033907fd70cd2b8f60c6ebb6636258cca2e533a589361c839aa4a2ef7fb9c124b55b5d390600090a4600280546001600160a01b0319166001600160a01b0392909216919091179055565b60008054600160a01b900460ff1661137a576040805162461bcd60e51b815260206004820152601f6024820152600080516020613615833981519152604482015290519081900360640190fd5b6000805460ff60a01b19169055610ffd84843385612161565b61139b6114e0565b6113d65760405162461bcd60e51b815260040180806020018281038252602d81526020018061367e602d913960400191505060405180910390fd5b6004546001600160a01b0382811691161415611428576040805162461bcd60e51b815260206004820152600c60248201526b73616d65206164647265737360a01b604482015290519081900360640190fd5b61143181612769565b611473576040805162461bcd60e51b815260206004820152600e60248201526d1b9bdd08184818dbdb9d1c9858dd60921b604482015290519081900360640190fd5b6004546040516001600160a01b0380841692169033907f13f09458ba186d2d02fe23abc4c95432dbe3504667afaba08e1583084d0ac0f390600090a4600480546001600160a01b0319166001600160a01b0392909216919091179055565b6000546001600160a01b031690565b600080546001600160a01b03166114f5612faf565b6001600160a01b031614905090565b61150c6114e0565b6115475760405162461bcd60e51b815260040180806020018281038252602d81526020018061367e602d913960400191505060405180910390fd5b61155081612769565b611592576040805162461bcd60e51b815260206004820152600e60248201526d1b9bdd08184818dbdb9d1c9858dd60921b604482015290519081900360640190fd5b6006546040516001600160a01b0380841692169033907f8fb43f6330efb57c0a98b5a17c7234e9d851e43f8c9ac5ec546139c5406e4d9590600090a4600680546001600160a01b0319166001600160a01b0392909216919091179055565b60008054600160a01b900460ff1661163d576040805162461bcd60e51b815260206004820152601f6024820152600080516020613615833981519152604482015290519081900360640190fd5b6000805460ff60a01b1916815561090890869086908690866127a5565b60008054600160a01b900460ff166116a7576040805162461bcd60e51b815260206004820152601f6024820152600080516020613615833981519152604482015290519081900360640190fd5b6000805460ff60a01b19169055610ffd8484846001826127a5565b60408051808201825260038152620342e360ec1b60209091015251600180547f94fa7e5f695e7b373ab57827aad1358b1a6476248e3d66e644ae5033168b2a06929081908390600260001961010083851615020190911604801561175d5780601f1061173b57610100808354040283529182019161175d565b820191906000526020600020905b815481529060010190602001808311611749575b50509150506040518091039020146117ac576040805162461bcd60e51b815260206004820152600d60248201526c3bb937b733903b32b939b4b7b760991b604482015290519081900360640190fd5b604080518082019091526003808252620352e360ec1b60209092019182526117d691600191613549565b50600680546001600160a01b0319169055604051600090819033907f8fb43f6330efb57c0a98b5a17c7234e9d851e43f8c9ac5ec546139c5406e4d95908390a4565b60045483906001600160a01b0316156118ea576004805460408051635b14f18360e01b81526001600160a01b038581169482019490945290519290911691635b14f18391602480820192602092909190829003018186803b15801561187c57600080fd5b505afa158015611890573d6000803e3d6000fd5b505050506040513d60208110156118a657600080fd5b5051156118ea576040805162461bcd60e51b815260206004820152600d60248201526c18985cdcd95d081c185d5cd959609a1b604482015290519081900360640190fd5b600054600160a01b900460ff16611936576040805162461bcd60e51b815260206004820152601f6024820152600080516020613615833981519152604482015290519081900360640190fd5b6000805460ff60a01b19169055604080518681526001600160a01b0386166020820152606091810182815291810184905233917fc00ef8ea79854d25cda161b949dfe54da4ddf385ef9cf6faaab7c6f9e8d9b3ac9188918891889188919060808201848480828437600083820152604051601f909101601f191690920182900397509095505050505050a260008511611a0b576040805162461bcd60e51b81526020600482015260126024820152710616d6f756e74206d757374206265203e20360741b604482015290519081900360640190fd5b6002546040805163f44c7c8f60e01b81526001600160a01b0387811660048301529151600093929092169163f44c7c8f91602480820192602092909190829003018186803b158015611a5c57600080fd5b505afa158015611a70573d6000803e3d6000fd5b505050506040513d6020811015611a8657600080fd5b50519050336001600160a01b03821614611ade576040805162461bcd60e51b81526020600482015260146024820152731bdb9b1e48189c9a5919d9481b585e4818d85b1b60621b604482015290519081900360640190fd5b6002546040805163d80f5a8760e01b81526001600160a01b0388811660048301529151919092169163d80f5a87916024808301926020929190829003018186803b158015611b2b57600080fd5b505afa158015611b3f573d6000803e3d6000fd5b505050506040513d6020811015611b5557600080fd5b5051611b99576040805162461bcd60e51b815260206004820152600e60248201526d1a5b9d985b1a590818985cdcd95d60921b604482015290519081900360640190fd5b600254604080516354f8177f60e11b81526001600160a01b038881166004830152602482018a90529151919092169163a9f02efe916044808301926020929190829003018186803b158015611bed57600080fd5b505afa158015611c01573d6000803e3d6000fd5b505050506040513d6020811015611c1757600080fd5b5051611c62576040805162461bcd60e51b81526020600482015260156024820152746261736b6574206f7574206f662062616c616e636560581b604482015290519081900360640190fd5b6000611ca385858080601f016020809104026020016040519081016040528093929190818152602001838380828437600092019190915250612fb392505050565b9050600080611cb5888a85600161301a565b905081811015611d03576040805162461bcd60e51b815260206004820152601460248201527372657761726420756e646572206d696e696d756d60601b604482015290519081900360640190fd5b60025460408051631af327bd60e01b81526001600160a01b038b81166004830152602482018d905291516000939290921691631af327bd91604480820192602092909190829003018186803b158015611d5b57600080fd5b505afa158015611d6f573d6000803e3d6000fd5b505050506040513d6020811015611d8557600080fd5b5051600354604080516340c10f1960e01b81526001600160a01b0388811660048301526024820185905291519394509116916340c10f199160448082019260009290919082900301818387803b158015611dde57600080fd5b505af1158015611df2573d6000803e3d6000fd5b5050604080518481526001600160a01b038d811660208301528183018f9052915191881693503392507f30873c596f54a2e2e09894670d7e1a48b2433c00204f81fbedf557353c36e7c7919081900360600190a36006546001600160a01b031615611ee55760065460035460408051635774ce4d60e01b81526001600160a01b03928316600482015287831660248201526044810185905290519190921691635774ce4d9160648083019260209291908290030181600087803b158015611eb857600080fd5b505af1158015611ecc573d6000803e3d6000fd5b505050506040513d6020811015611ee257600080fd5b50505b50506000805460ff60a01b1916600160a01b1790555050505050505050565b6006546001600160a01b031690565b6002546001600160a01b0316158015611f3557506003546001600160a01b0316155b611f7c576040805162461bcd60e51b8152602060048201526013602482015272185b1c9958591e481a5b9a5d1a585b1a5e9959606a1b604482015290519081900360640190fd5b6001600160a01b038316611fd0576040805162461bcd60e51b815260206004820152601660248201527534b73b30b634b2103130b9b5b2ba1036b0b730b3b2b960511b604482015290519081900360640190fd5b6001600160a01b03821661201b576040805162461bcd60e51b815260206004820152600d60248201526c34b73b30b634b2103a37b5b2b760991b604482015290519081900360640190fd5b61202361311e565b61202b6131c8565b600280546001600160a01b038086166001600160a01b03199283161790925560038054928516929091169190911790558015612069576120696131dd565b604080518082019091526003808252620312e360ec1b602090920191825261209391600191613549565b50505050565b6002546001600160a01b031690565b6120b06114e0565b6120eb5760405162461bcd60e51b815260040180806020018281038252602d81526020018061367e602d913960400191505060405180910390fd5b6120f481613267565b50565b60008054600160a01b900460ff16612144576040805162461bcd60e51b815260206004820152601f6024820152600080516020613615833981519152604482015290519081900360640190fd5b6000805460ff60a01b19168155610ffd90859085908590826127a5565b60045460009085906001600160a01b031615612236576004805460408051635b14f18360e01b81526001600160a01b038581169482019490945290519290911691635b14f18391602480820192602092909190829003018186803b1580156121c857600080fd5b505afa1580156121dc573d6000803e3d6000fd5b505050506040513d60208110156121f257600080fd5b505115612236576040805162461bcd60e51b815260206004820152600d60248201526c18985cdcd95d081c185d5cd959609a1b604482015290519081900360640190fd5b6001600160a01b03841661228d576040805162461bcd60e51b81526020600482015260196024820152781b5d5cdd0818994818481d985b1a59081c9958da5c1a595b9d603a1b604482015290519081900360640190fd5b600085116122db576040805162461bcd60e51b815260206004820152601660248201527507175616e74697479206d757374206e6f7420626520360541b604482015290519081900360640190fd5b6002546040805163d80f5a8760e01b81526001600160a01b0389811660048301529151919092169163d80f5a87916024808301926020929190829003018186803b15801561232857600080fd5b505afa15801561233c573d6000803e3d6000fd5b505050506040513d602081101561235257600080fd5b5051612396576040805162461bcd60e51b815260206004820152600e60248201526d1a5b9d985b1a590818985cdcd95d60921b604482015290519081900360640190fd5b600254604080516354f8177f60e11b81526001600160a01b038981166004830152602482018990529151919092169163a9f02efe916044808301926020929190829003018186803b1580156123ea57600080fd5b505afa1580156123fe573d6000803e3d6000fd5b505050506040513d602081101561241457600080fd5b5051612459576040805162461bcd60e51b815260206004820152600f60248201526e696e76616c69642062616c616e636560881b604482015290519081900360640190fd5b6000612468878787600061301a565b9050838110156124b6576040805162461bcd60e51b815260206004820152601460248201527372657761726420756e646572206d696e696d756d60601b604482015290519081900360640190fd5b60025460408051631af327bd60e01b81526001600160a01b038a81166004830152602482018a905291516000939290921691631af327bd91604480820192602092909190829003018186803b15801561250e57600080fd5b505afa158015612522573d6000803e3d6000fd5b505050506040513d602081101561253857600080fd5b5051604080516323b872dd60e01b8152336004820152306024820152604481018a905290519192506001600160a01b038a16916323b872dd916064808201926020929091908290030181600087803b15801561259357600080fd5b505af11580156125a7573d6000803e3d6000fd5b505050506040513d60208110156125bd57600080fd5b5051612602576040805162461bcd60e51b815260206004820152600f60248201526e1d1c985b9cd9995c8819985a5b1959608a1b604482015290519081900360640190fd5b600354604080516340c10f1960e01b81526001600160a01b03898116600483015260248201859052915191909216916340c10f1991604480830192600092919082900301818387803b15801561265757600080fd5b505af115801561266b573d6000803e3d6000fd5b5050604080518481526001600160a01b038c811660208301528183018c90529151918a1693503392507f30873c596f54a2e2e09894670d7e1a48b2433c00204f81fbedf557353c36e7c7919081900360600190a36006546001600160a01b03161561275e5760065460035460408051635774ce4d60e01b81526001600160a01b03928316600482015289831660248201526044810185905290519190921691635774ce4d9160648083019260209291908290030181600087803b15801561273157600080fd5b505af1158015612745573d6000803e3d6000fd5b505050506040513d602081101561275b57600080fd5b50505b979650505050505050565b6000813f7fc5d2460186f7233c927e7db2dcc703c0e500b653ca82273b7bfad8045d85a47081811480159061279d57508115155b949350505050565b60006001600160a01b0384166127fe576040805162461bcd60e51b81526020600482015260196024820152781b5d5cdd0818994818481d985b1a59081c9958da5c1a595b9d603a1b604482015290519081900360640190fd5b6000851161283d5760405162461bcd60e51b81526004018080602001828103825260268152602001806136356026913960400191505060405180910390fd5b6002546040805163d80f5a8760e01b81526001600160a01b0389811660048301529151919092169163d80f5a87916024808301926020929190829003018186803b15801561288a57600080fd5b505afa15801561289e573d6000803e3d6000fd5b505050506040513d60208110156128b457600080fd5b50516128f8576040805162461bcd60e51b815260206004820152600e60248201526d1a5b9d985b1a590818985cdcd95d60921b604482015290519081900360640190fd5b60025460408051635ac9946160e01b81526001600160a01b0389811660048301526024820189905291516000939290921691635ac9946191604480820192602092909190829003018186803b15801561295057600080fd5b505afa158015612964573d6000803e3d6000fd5b505050506040513d602081101561297a57600080fd5b50516002546040805163c7bbc86560e01b81526001600160a01b038b8116600483015260248201859052915193945091169163c7bbc86591604480820192602092909190829003018186803b1580156129d257600080fd5b505afa1580156129e6573d6000803e3d6000fd5b505050506040513d60208110156129fc57600080fd5b5051612a41576040805162461bcd60e51b815260206004820152600f60248201526e696e76616c69642062616c616e636560881b604482015290519081900360640190fd5b60035460408051632770a7eb60e21b81523360048201526024810189905290516001600160a01b0390921691639dc29fac9160448082019260009290919082900301818387803b158015612a9457600080fd5b505af1158015612aa8573d6000803e3d6000fd5b505050506000612ab9888388613307565b905083811115612b10576040805162461bcd60e51b815260206004820152601760248201527f70656e616c74792065786365656473206d6178696d756d000000000000000000604482015290519081900360640190fd5b60025460408051635ac9946160e01b81526001600160a01b038b811660048301526024820185905291516000939290921691635ac9946191604480820192602092909190829003018186803b158015612b6857600080fd5b505afa158015612b7c573d6000803e3d6000fd5b505050506040513d6020811015612b9257600080fd5b50519050612ba6838263ffffffff61347516565b92508515612e83576002546040805163f44c7c8f60e01b81526001600160a01b038c811660048301529151600093929092169163f44c7c8f91602480820192602092909190829003018186803b158015612bff57600080fd5b505afa158015612c13573d6000803e3d6000fd5b505050506040513d6020811015612c2957600080fd5b505190506001600160a01b038116612c79576040805162461bcd60e51b815260206004820152600e60248201526d696e76616c69642062726964676560901b604482015290519081900360640190fd5b896001600160a01b031663095ea7b382866040518363ffffffff1660e01b815260040180836001600160a01b03166001600160a01b0316815260200182815260200192505050602060405180830381600087803b158015612cd957600080fd5b505af1158015612ced573d6000803e3d6000fd5b505050506040513d6020811015612d0357600080fd5b810190808051906020019092919050505050806001600160a01b0316637e5d36208b868b604051806020016040528060008152506040518563ffffffff1660e01b815260040180856001600160a01b03166001600160a01b03168152602001848152602001836001600160a01b03166001600160a01b0316815260200180602001828103825283818151815260200191508051906020019080838360005b83811015612db9578181015183820152602001612da1565b50505050905090810190601f168015612de65780820380516001836020036101000a031916815260200191505b5095505050505050602060405180830381600087803b158015612e0857600080fd5b505af1158015612e1c573d6000803e3d6000fd5b505050506040513d6020811015612e3257600080fd5b5051612e7d576040805162461bcd60e51b815260206004820152601560248201527418d85b1b081d1bc8189c9a5919d94819985a5b1959605a1b604482015290519081900360640190fd5b50612f52565b886001600160a01b031663a9059cbb88856040518363ffffffff1660e01b815260040180836001600160a01b03166001600160a01b0316815260200182815260200192505050602060405180830381600087803b158015612ee357600080fd5b505af1158015612ef7573d6000803e3d6000fd5b505050506040513d6020811015612f0d57600080fd5b5051612f52576040805162461bcd60e51b815260206004820152600f60248201526e1d1c985b9cd9995c8819985a5b1959608a1b604482015290519081900360640190fd5b604080518981526001600160a01b038b8116602083015281830186905291519189169133917fa0dde38365e7863fcda1e12536206bc5ab0b7074a66a441e866145cf3d07fc24919081900360600190a35095979650505050505050565b3390565b600080828060200190516020811015612fcb57600080fd5b505190506001600160a01b0381166130145760405162461bcd60e51b815260040180806020018281038252602381526020018061365b6023913960400191505060405180910390fd5b92915050565b6005546000906001600160a01b03166130355750600061279d565b600554604080516394aa28a560e01b81526001600160a01b0388811660048301526024820188905286811660448301528515156064830152915160009392909216916394aa28a59160848082019260209290919082900301818787803b15801561309e57600080fd5b505af11580156130b2573d6000803e3d6000fd5b505050506040513d60208110156130c857600080fd5b5051604080518781526020810183905281519293506001600160a01b0380881693908a16927f909f735833ac6951a9b9793cbbee7fc69fb3ccfca1d3ee2e82eecf10485ae50a928290030190a395945050505050565b6000546001600160a01b031615613172576040805162461bcd60e51b8152602060048201526013602482015272185b1c9958591e481a5b9a5d1a585b1a5e9959606a1b604482015290519081900360640190fd5b600061317c612faf565b600080546001600160a01b0319166001600160a01b0383169081178255604051929350917f8be0079c531659141344cd1fd0a4f28419497f9722a3daafe3b4186f6b6457e0908290a350565b6000805460ff60a01b1916600160a01b179055565b6040805174115490cdcdcdd51bdad95b9cd49958da5c1a595b9d605a1b815281519081900360150181206329965a1d60e01b82523060048301819052602483019190915260448201529051731820a4b7618bde71dce8cdc73aab6c95905fad249182916329965a1d9160648082019260009290919082900301818387803b158015610ee457600080fd5b6001600160a01b0381166132ac5760405162461bcd60e51b81526004018080602001828103825260338152602001806135e26033913960400191505060405180910390fd5b600080546040516001600160a01b03808516939216917f8be0079c531659141344cd1fd0a4f28419497f9722a3daafe3b4186f6b6457e091a3600080546001600160a01b0319166001600160a01b0392909216919091179055565b6005546000906001600160a01b03166133225750600061346e565b600554604080516392a9adab60e01b81526001600160a01b03878116600483015260248201879052915160009392909216916392a9adab91604480820192602092909190829003018186803b15801561337a57600080fd5b505afa15801561338e573d6000803e3d6000fd5b505050506040513d60208110156133a457600080fd5b5051600354600554604080516340c10f1960e01b81526001600160a01b0392831660048201526024810185905290519394509116916340c10f199160448082019260009290919082900301818387803b15801561340057600080fd5b505af1158015613414573d6000803e3d6000fd5b50505050826001600160a01b0316856001600160a01b03167f012ac4343298b6a6e88752e624dbb725ef7c87aa2f0612e4da970a9f08feaa068684604051808381526020018281526020019250505060405180910390a390505b9392505050565b600061346e83836040518060400160405280601e81526020017f536166654d6174683a207375627472616374696f6e206f766572666c6f770000815250600081848411156135415760405162461bcd60e51b81526004018080602001828103825283818151815260200191508051906020019080838360005b838110156135065781810151838201526020016134ee565b50505050905090810190601f1680156135335780820380516001836020036101000a031916815260200191505b509250505060405180910390fd5b505050900390565b828054600181600116156101000203166002900490600052602060002090601f016020900481019282601f1061358a57805160ff19168380011785556135b7565b828001600101855582156135b7579182015b828111156135b757825182559160200191906001019061359c565b506135c39291506135c7565b5090565b6109c191905b808211156135c357600081556001016135cd56fe496e697469616c697a61626c654f776e61626c653a206e6577206f776e657220697320746865207a65726f20616464726573735265656e7472616e637947756172643a207265656e7472616e742063616c6c006d6173736574207175616e74697479206d7573742062652067726561746572207468616e2030436f6e7665727465723a204572726f72206465636f64696e6720657874726144617461496e697469616c697a61626c654f776e61626c653a2063616c6c6572206973206e6f7420746865206f776e6572a265627a7a72315820e11275828237a3e04641d06eb607657bfc6d471ce7a06c4d16e140baf261938264736f6c63430005110032",
    "linkReferences": {},
    "deployedLinkReferences": {}
}