{
  "abi": [
    {
      "anonymous": false,
      "inputs": [
        {
          "indexed": true,
          "internalType": "address",
          "name": "_oldImplementation",
          "type": "address"
        },
        {
          "indexed": true,
          "internalType": "address",
          "name": "_newImplementation",
          "type": "address"
        }
      ],
      "name": "ImplementationChanged",
      "type": "event"
    },
    {
      "anonymous": false,
      "inputs": [
        {
          "indexed": true,
          "internalType": "address",
          "name": "_oldOwner",
          "type": "address"
        },
        {
          "indexed": true,
          "internalType": "address",
          "name": "_newOwner",
          "type": "address"
        }
      ],
      "name": "OwnershipTransferred",
      "type": "event"
    },
    {
      "payable": true,
      "stateMutability": "payable",
      "type": "fallback"
    },
    {
      "constant": true,
      "inputs": [],
      "name": "getImplementation",
      "outputs": [
        {
          "internalType": "address",
          "name": "_implementation",
          "type": "address"
        }
      ],
      "payable": false,
      "stateMutability": "view",
      "type": "function"
    },
    {
      "constant": true,
      "inputs": [],
      "name": "getProxyOwner",
      "outputs": [
        {
          "internalType": "address",
          "name": "_owner",
          "type": "address"
        }
      ],
      "payable": false,
      "stateMutability": "view",
      "type": "function"
    },
    {
      "constant": false,
      "inputs": [
        {
          "internalType": "address",
          "name": "_implementation",
          "type": "address"
        }
      ],
      "name": "setImplementation",
      "outputs": [],
      "payable": false,
      "stateMutability": "nonpayable",
      "type": "function"
    },
    {
      "constant": false,
      "inputs": [
        {
          "internalType": "address",
          "name": "_owner",
          "type": "address"
        }
      ],
      "name": "setProxyOwner",
      "outputs": [],
      "payable": false,
      "stateMutability": "nonpayable",
      "type": "function"
    },
    {
      "constant": true,
      "inputs": [],
      "name": "value",
      "outputs": [
        {
          "internalType": "uint256",
          "name": "",
          "type": "uint256"
        }
      ],
      "payable": false,
      "stateMutability": "view",
      "type": "function"
    }
  ],
  "bytecode": {
    "object": "0x6080604052610016336001600160e01b0361001b16565b6100ff565b6001600160a01b0381166100605760405162461bcd60e51b81526004018080602001828103825260258152602001806105ea6025913960400191505060405180910390fd5b6001600160a01b03811661007b6001600160e01b036100d716565b6001600160a01b03167f8be0079c531659141344cd1fd0a4f28419497f9722a3daafe3b4186f6b6457e060405160405180910390a3604080516e35b2bc97383937bc3c9737bbb732b960891b8152905190819003600f01902055565b604080516e35b2bc97383937bc3c9737bbb732b960891b8152905190819003600f0190205490565b6104dc8061010e6000396000f3fe60806040526004361061004a5760003560e01c80631ab7710d146100c05780633fa4f245146100f1578063aaf10f4214610118578063caaee91c1461012d578063d784d42614610162575b6000610054610195565b90506001600160a01b03811661009b5760405162461bcd60e51b81526004018080602001828103825260238152602001806104606023913960400191505060405180910390fd5b60405136600082376000803683855af43d806000843e8180156100bc578184f35b8184fd5b3480156100cc57600080fd5b506100d56101c0565b604080516001600160a01b039092168252519081900360200190f35b3480156100fd57600080fd5b506101066101e8565b60408051918252519081900360200190f35b34801561012457600080fd5b506100d5610195565b34801561013957600080fd5b506101606004803603602081101561015057600080fd5b50356001600160a01b03166101ee565b005b34801561016e57600080fd5b506101606004803603602081101561018557600080fd5b50356001600160a01b031661025f565b604080517135b2bc9734b6b83632b6b2b73a30ba34b7b760711b815290519081900360120190205490565b604080516e35b2bc97383937bc3c9737bbb732b960891b8152905190819003600f0190205490565b60005481565b6101f66101c0565b6001600160a01b0316336001600160a01b031614610253576040805162461bcd60e51b8152602060048201526015602482015274141c9bde1e4e8e881858d8d95cdcc819195b9a5959605a1b604482015290519081900360640190fd5b61025c816102cd565b50565b6102676101c0565b6001600160a01b0316336001600160a01b0316146102c4576040805162461bcd60e51b8152602060048201526015602482015274141c9bde1e4e8e881858d8d95cdcc819195b9a5959605a1b604482015290519081900360640190fd5b61025c81610380565b6001600160a01b0381166103125760405162461bcd60e51b81526004018080602001828103825260258152602001806104836025913960400191505060405180910390fd5b806001600160a01b03166103246101c0565b6001600160a01b03167f8be0079c531659141344cd1fd0a4f28419497f9722a3daafe3b4186f6b6457e060405160405180910390a3604080516e35b2bc97383937bc3c9737bbb732b960891b8152905190819003600f01902055565b6001600160a01b0381166103c55760405162461bcd60e51b81526004018080602001828103825260298152602001806104376029913960400191505060405180910390fd5b806001600160a01b03166103d7610195565b6001600160a01b03167fcfbf4028add9318bbf716f08c348595afb063b0e9feed1f86d33681a4b3ed4d360405160405180910390a3604080517135b2bc9734b6b83632b6b2b73a30ba34b7b760711b815290519081900360120190205556fe50726f78793a3a736574496d706c656d656e746174696f6e3a20696e76616c6964206164647265737350726f78793a3a28293a20696d706c656d656e746174696f6e206e6f7420666f756e6450726f78793a3a73657450726f78794f776e65723a20696e76616c69642061646472657373a265627a7a723158208bff8b9035c4ed6cacf58291262fd9681982e065dbd5c19e9f92c095bed07b8964736f6c6343000511003250726f78793a3a73657450726f78794f776e65723a20696e76616c69642061646472657373",
    "linkReferences": {}
  },
  "methodIdentifiers": {
    "getImplementation()": "aaf10f42",
    "getProxyOwner()": "1ab7710d",
    "setImplementation(address)": "d784d426",
    "setProxyOwner(address)": "caaee91c",
    "value()": "3fa4f245"
  },
  "id": 221
}