{
  "abi": [
    {
      "inputs": [
        {
          "internalType": "address",
          "name": "_staking",
          "type": "address"
        },
        {
          "internalType": "address",
          "name": "_token",
          "type": "address"
        }
      ],
      "payable": false,
      "stateMutability": "nonpayable",
      "type": "constructor"
    },
    {
      "constant": false,
      "inputs": [
        {
          "internalType": "uint96",
          "name": "_amount",
          "type": "uint96"
        },
        {
          "internalType": "address",
          "name": "_delegatee",
          "type": "address"
        },
        {
          "internalType": "uint256",
          "name": "_lockDate",
          "type": "uint256"
        }
      ],
      "name": "stakeAndDelegate",
      "outputs": [],
      "payable": false,
      "stateMutability": "nonpayable",
      "type": "function"
    },
    {
      "constant": false,
      "inputs": [
        {
          "internalType": "uint96",
          "name": "_amount",
          "type": "uint96"
        },
        {
          "internalType": "uint256",
          "name": "_until",
          "type": "uint256"
        }
      ],
      "name": "stakeAndWithdraw",
      "outputs": [],
      "payable": false,
      "stateMutability": "nonpayable",
      "type": "function"
    },
    {
      "constant": true,
      "inputs": [],
      "name": "staking",
      "outputs": [
        {
          "internalType": "contract IStaking",
          "name": "",
          "type": "address"
        }
      ],
      "payable": false,
      "stateMutability": "view",
      "type": "function"
    },
    {
      "constant": true,
      "inputs": [],
      "name": "token",
      "outputs": [
        {
          "internalType": "contract TestToken",
          "name": "",
          "type": "address"
        }
      ],
      "payable": false,
      "stateMutability": "view",
      "type": "function"
    }
  ],
  "bytecode": {
    "object": "0x608060405234801561001057600080fd5b506040516105973803806105978339818101604052604081101561003357600080fd5b508051602090910151600080546001600160a01b039384166001600160a01b0319918216179091556001805493909216921691909117905561051d8061007a6000396000f3fe608060405234801561001057600080fd5b506004361061004c5760003560e01c80634cf088d914610051578063c2b1647114610075578063d018f9bc146100a3578063fc0c546a146100de575b600080fd5b6100596100e6565b604080516001600160a01b039092168252519081900360200190f35b6100a16004803603604081101561008b57600080fd5b506001600160601b0381351690602001356100f5565b005b6100a1600480360360608110156100b957600080fd5b506001600160601b03813516906001600160a01b0360208201351690604001356102ed565b6100596104d9565b6000546001600160a01b031681565b600154604080516340c10f1960e01b81523060048201526001600160601b038516602482015290516001600160a01b03909216916340c10f199160448082019260009290919082900301818387803b15801561015057600080fd5b505af1158015610164573d6000803e3d6000fd5b5050600154600080546040805163095ea7b360e01b81526001600160a01b0392831660048201526001600160601b0389166024820152905191909316945063095ea7b393506044808401936020939083900390910190829087803b1580156101cb57600080fd5b505af11580156101df573d6000803e3d6000fd5b505050506040513d60208110156101f557600080fd5b5050600080546040805162958a7b60e61b81526001600160601b0386166004820152602481018590523060448201819052606482015290516001600160a01b03909216926325629ec09260848084019382900301818387803b15801561025a57600080fd5b505af115801561026e573d6000803e3d6000fd5b505060008054604080516336adb29160e21b81526001600160601b03881660048201526024810187905230604482015290516001600160a01b03909216945063dab6ca449350606480820193929182900301818387803b1580156102d157600080fd5b505af11580156102e5573d6000803e3d6000fd5b505050505050565b600154604080516340c10f1960e01b81523060048201526001600160601b038616602482015290516001600160a01b03909216916340c10f199160448082019260009290919082900301818387803b15801561034857600080fd5b505af115801561035c573d6000803e3d6000fd5b5050600154600080546040805163095ea7b360e01b81526001600160a01b0392831660048201526001600160601b038a166024820152905191909316945063095ea7b393506044808401936020939083900390910190829087803b1580156103c357600080fd5b505af11580156103d7573d6000803e3d6000fd5b505050506040513d60208110156103ed57600080fd5b5050600080546040805162958a7b60e61b81526001600160601b0387166004820152602481018590523060448201819052606482015290516001600160a01b03909216926325629ec09260848084019382900301818387803b15801561045257600080fd5b505af1158015610466573d6000803e3d6000fd5b5050600080546040805163026e402b60e01b81526001600160a01b03888116600483015260248201889052915191909216945063026e402b93506044808301939282900301818387803b1580156104bc57600080fd5b505af11580156104d0573d6000803e3d6000fd5b50505050505050565b6001546001600160a01b03168156fea265627a7a72315820886a4388d85b4b4ef02c72e2d0b357d41361012c31c27b10db3876b8aee4853564736f6c63430005110032",
    "linkReferences": {}
  },
  "methodIdentifiers": {
    "stakeAndDelegate(uint96,address,uint256)": "d018f9bc",
    "stakeAndWithdraw(uint96,uint256)": "c2b16471",
    "staking()": "4cf088d9",
    "token()": "fc0c546a"
  },
  "id": 222
}