{
  "abi": [
    {
      "anonymous": false,
      "inputs": [
        {
          "indexed": true,
          "internalType": "address",
          "name": "owner",
          "type": "address"
        },
        {
          "indexed": true,
          "internalType": "address",
          "name": "spender",
          "type": "address"
        },
        {
          "indexed": false,
          "internalType": "uint256",
          "name": "valueBefore",
          "type": "uint256"
        },
        {
          "indexed": false,
          "internalType": "uint256",
          "name": "valueAfter",
          "type": "uint256"
        }
      ],
      "name": "AllowanceUpdate",
      "type": "event"
    },
    {
      "anonymous": false,
      "inputs": [
        {
          "indexed": true,
          "internalType": "address",
          "name": "owner",
          "type": "address"
        },
        {
          "indexed": true,
          "internalType": "address",
          "name": "spender",
          "type": "address"
        },
        {
          "indexed": false,
          "internalType": "uint256",
          "name": "value",
          "type": "uint256"
        }
      ],
      "name": "Approval",
      "type": "event"
    },
    {
      "anonymous": false,
      "inputs": [
        {
          "indexed": true,
          "internalType": "address",
          "name": "burner",
          "type": "address"
        },
        {
          "indexed": false,
          "internalType": "uint256",
          "name": "tokenAmount",
          "type": "uint256"
        },
        {
          "indexed": false,
          "internalType": "uint256",
          "name": "assetAmount",
          "type": "uint256"
        },
        {
          "indexed": false,
          "internalType": "uint256",
          "name": "price",
          "type": "uint256"
        }
      ],
      "name": "Burn",
      "type": "event"
    },
    {
      "anonymous": false,
      "inputs": [
        {
          "indexed": false,
          "internalType": "address",
          "name": "borrower",
          "type": "address"
        },
        {
          "indexed": false,
          "internalType": "address",
          "name": "target",
          "type": "address"
        },
        {
          "indexed": false,
          "internalType": "address",
          "name": "loanToken",
          "type": "address"
        },
        {
          "indexed": false,
          "internalType": "uint256",
          "name": "loanAmount",
          "type": "uint256"
        }
      ],
      "name": "FlashBorrow",
      "type": "event"
    },
    {
      "anonymous": false,
      "inputs": [
        {
          "indexed": true,
          "internalType": "address",
          "name": "minter",
          "type": "address"
        },
        {
          "indexed": false,
          "internalType": "uint256",
          "name": "tokenAmount",
          "type": "uint256"
        },
        {
          "indexed": false,
          "internalType": "uint256",
          "name": "assetAmount",
          "type": "uint256"
        },
        {
          "indexed": false,
          "internalType": "uint256",
          "name": "price",
          "type": "uint256"
        }
      ],
      "name": "Mint",
      "type": "event"
    },
    {
      "anonymous": false,
      "inputs": [
        {
          "indexed": true,
          "internalType": "address",
          "name": "previousOwner",
          "type": "address"
        },
        {
          "indexed": true,
          "internalType": "address",
          "name": "newOwner",
          "type": "address"
        }
      ],
      "name": "OwnershipTransferred",
      "type": "event"
    },
    {
      "anonymous": false,
      "inputs": [
        {
          "indexed": true,
          "internalType": "address",
          "name": "from",
          "type": "address"
        },
        {
          "indexed": true,
          "internalType": "address",
          "name": "to",
          "type": "address"
        },
        {
          "indexed": false,
          "internalType": "uint256",
          "name": "value",
          "type": "uint256"
        }
      ],
      "name": "Transfer",
      "type": "event"
    },
    {
      "constant": true,
      "inputs": [],
      "name": "TINY_AMOUNT",
      "outputs": [
        {
          "internalType": "uint256",
          "name": "",
          "type": "uint256"
        }
      ],
      "payable": false,
      "stateMutability": "view",
      "type": "function"
    },
    {
      "constant": true,
      "inputs": [],
      "name": "VERSION",
      "outputs": [
        {
          "internalType": "uint256",
          "name": "",
          "type": "uint256"
        }
      ],
      "payable": false,
      "stateMutability": "view",
      "type": "function"
    },
    {
      "constant": true,
      "inputs": [],
      "name": "admin",
      "outputs": [
        {
          "internalType": "address",
          "name": "",
          "type": "address"
        }
      ],
      "payable": false,
      "stateMutability": "view",
      "type": "function"
    },
    {
      "constant": true,
      "inputs": [
        {
          "internalType": "address",
          "name": "_owner",
          "type": "address"
        },
        {
          "internalType": "address",
          "name": "_spender",
          "type": "address"
        }
      ],
      "name": "allowance",
      "outputs": [
        {
          "internalType": "uint256",
          "name": "",
          "type": "uint256"
        }
      ],
      "payable": false,
      "stateMutability": "view",
      "type": "function"
    },
    {
      "constant": false,
      "inputs": [
        {
          "internalType": "address",
          "name": "_spender",
          "type": "address"
        },
        {
          "internalType": "uint256",
          "name": "_value",
          "type": "uint256"
        }
      ],
      "name": "approve",
      "outputs": [
        {
          "internalType": "bool",
          "name": "",
          "type": "bool"
        }
      ],
      "payable": false,
      "stateMutability": "nonpayable",
      "type": "function"
    },
    {
      "constant": true,
      "inputs": [
        {
          "internalType": "address",
          "name": "_owner",
          "type": "address"
        }
      ],
      "name": "assetBalanceOf",
      "outputs": [
        {
          "internalType": "uint256",
          "name": "",
          "type": "uint256"
        }
      ],
      "payable": false,
      "stateMutability": "view",
      "type": "function"
    },
    {
      "constant": true,
      "inputs": [],
      "name": "avgBorrowInterestRate",
      "outputs": [
        {
          "internalType": "uint256",
          "name": "",
          "type": "uint256"
        }
      ],
      "payable": false,
      "stateMutability": "view",
      "type": "function"
    },
    {
      "constant": true,
      "inputs": [
        {
          "internalType": "address",
          "name": "_owner",
          "type": "address"
        }
      ],
      "name": "balanceOf",
      "outputs": [
        {
          "internalType": "uint256",
          "name": "",
          "type": "uint256"
        }
      ],
      "payable": false,
      "stateMutability": "view",
      "type": "function"
    },
    {
      "constant": true,
      "inputs": [],
      "name": "baseRate",
      "outputs": [
        {
          "internalType": "uint256",
          "name": "",
          "type": "uint256"
        }
      ],
      "payable": false,
      "stateMutability": "view",
      "type": "function"
    },
    {
      "constant": false,
      "inputs": [
        {
          "internalType": "bytes32",
          "name": "loanId",
          "type": "bytes32"
        },
        {
          "internalType": "uint256",
          "name": "withdrawAmount",
          "type": "uint256"
        },
        {
          "internalType": "uint256",
          "name": "initialLoanDuration",
          "type": "uint256"
        },
        {
          "internalType": "uint256",
          "name": "collateralTokenSent",
          "type": "uint256"
        },
        {
          "internalType": "address",
          "name": "collateralTokenAddress",
          "type": "address"
        },
        {
          "internalType": "address",
          "name": "borrower",
          "type": "address"
        },
        {
          "internalType": "address",
          "name": "receiver",
          "type": "address"
        },
        {
          "internalType": "bytes",
          "name": "",
          "type": "bytes"
        }
      ],
      "name": "borrow",
      "outputs": [
        {
          "internalType": "uint256",
          "name": "",
          "type": "uint256"
        },
        {
          "internalType": "uint256",
          "name": "",
          "type": "uint256"
        }
      ],
      "payable": true,
      "stateMutability": "payable",
      "type": "function"
    },
    {
      "constant": true,
      "inputs": [],
      "name": "borrowInterestRate",
      "outputs": [
        {
          "internalType": "uint256",
          "name": "",
          "type": "uint256"
        }
      ],
      "payable": false,
      "stateMutability": "view",
      "type": "function"
    },
    {
      "constant": false,
      "inputs": [
        {
          "internalType": "address",
          "name": "receiver",
          "type": "address"
        },
        {
          "internalType": "uint256",
          "name": "burnAmount",
          "type": "uint256"
        },
        {
          "internalType": "bool",
          "name": "useLM",
          "type": "bool"
        }
      ],
      "name": "burn",
      "outputs": [
        {
          "internalType": "uint256",
          "name": "redeemed",
          "type": "uint256"
        }
      ],
      "payable": false,
      "stateMutability": "nonpayable",
      "type": "function"
    },
    {
      "constant": false,
      "inputs": [
        {
          "internalType": "address",
          "name": "receiver",
          "type": "address"
        },
        {
          "internalType": "uint256",
          "name": "burnAmount",
          "type": "uint256"
        }
      ],
      "name": "burn",
      "outputs": [
        {
          "internalType": "uint256",
          "name": "loanAmountPaid",
          "type": "uint256"
        }
      ],
      "payable": false,
      "stateMutability": "nonpayable",
      "type": "function"
    },
    {
      "constant": true,
      "inputs": [
        {
          "internalType": "uint256",
          "name": "assetBorrow",
          "type": "uint256"
        },
        {
          "internalType": "uint256",
          "name": "assetSupply",
          "type": "uint256"
        }
      ],
      "name": "calculateSupplyInterestRate",
      "outputs": [
        {
          "internalType": "uint256",
          "name": "",
          "type": "uint256"
        }
      ],
      "payable": false,
      "stateMutability": "view",
      "type": "function"
    },
    {
      "constant": true,
      "inputs": [
        {
          "internalType": "uint256",
          "name": "loanTokenSent",
          "type": "uint256"
        },
        {
          "internalType": "address",
          "name": "collateralTokenAddress",
          "type": "address"
        },
        {
          "internalType": "uint256",
          "name": "minEntryPrice",
          "type": "uint256"
        }
      ],
      "name": "checkPriceDivergence",
      "outputs": [],
      "payable": false,
      "stateMutability": "view",
      "type": "function"
    },
    {
      "constant": true,
      "inputs": [
        {
          "internalType": "address",
          "name": "_user",
          "type": "address"
        }
      ],
      "name": "checkpointPrice",
      "outputs": [
        {
          "internalType": "uint256",
          "name": "price",
          "type": "uint256"
        }
      ],
      "payable": false,
      "stateMutability": "view",
      "type": "function"
    },
    {
      "constant": true,
      "inputs": [],
      "name": "checkpointSupply",
      "outputs": [
        {
          "internalType": "uint256",
          "name": "",
          "type": "uint256"
        }
      ],
      "payable": false,
      "stateMutability": "view",
      "type": "function"
    },
    {
      "constant": true,
      "inputs": [],
      "name": "decimals",
      "outputs": [
        {
          "internalType": "uint8",
          "name": "",
          "type": "uint8"
        }
      ],
      "payable": false,
      "stateMutability": "view",
      "type": "function"
    },
    {
      "constant": true,
      "inputs": [],
      "name": "earlyAccessToken",
      "outputs": [
        {
          "internalType": "address",
          "name": "",
          "type": "address"
        }
      ],
      "payable": false,
      "stateMutability": "view",
      "type": "function"
    },
    {
      "constant": true,
      "inputs": [
        {
          "internalType": "uint256",
          "name": "depositAmount",
          "type": "uint256"
        },
        {
          "internalType": "uint256",
          "name": "initialLoanDuration",
          "type": "uint256"
        },
        {
          "internalType": "address",
          "name": "collateralTokenAddress",
          "type": "address"
        }
      ],
      "name": "getBorrowAmountForDeposit",
      "outputs": [
        {
          "internalType": "uint256",
          "name": "borrowAmount",
          "type": "uint256"
        }
      ],
      "payable": false,
      "stateMutability": "view",
      "type": "function"
    },
    {
      "constant": true,
      "inputs": [
        {
          "internalType": "uint256",
          "name": "borrowAmount",
          "type": "uint256"
        },
        {
          "internalType": "uint256",
          "name": "initialLoanDuration",
          "type": "uint256"
        },
        {
          "internalType": "address",
          "name": "collateralTokenAddress",
          "type": "address"
        }
      ],
      "name": "getDepositAmountForBorrow",
      "outputs": [
        {
          "internalType": "uint256",
          "name": "depositAmount",
          "type": "uint256"
        }
      ],
      "payable": false,
      "stateMutability": "view",
      "type": "function"
    },
    {
      "constant": true,
      "inputs": [
        {
          "internalType": "uint256",
          "name": "leverageAmount",
          "type": "uint256"
        },
        {
          "internalType": "uint256",
          "name": "loanTokenSent",
          "type": "uint256"
        },
        {
          "internalType": "uint256",
          "name": "collateralTokenSent",
          "type": "uint256"
        },
        {
          "internalType": "address",
          "name": "collateralTokenAddress",
          "type": "address"
        }
      ],
      "name": "getEstimatedMarginDetails",
      "outputs": [
        {
          "internalType": "uint256",
          "name": "principal",
          "type": "uint256"
        },
        {
          "internalType": "uint256",
          "name": "collateral",
          "type": "uint256"
        },
        {
          "internalType": "uint256",
          "name": "interestRate",
          "type": "uint256"
        }
      ],
      "payable": false,
      "stateMutability": "view",
      "type": "function"
    },
    {
      "constant": true,
      "inputs": [],
      "name": "getListFunctionSignatures",
      "outputs": [
        {
          "internalType": "bytes4[]",
          "name": "functionSignatures",
          "type": "bytes4[]"
        },
        {
          "internalType": "bytes32",
          "name": "moduleName",
          "type": "bytes32"
        }
      ],
      "payable": false,
      "stateMutability": "pure",
      "type": "function"
    },
    {
      "constant": true,
      "inputs": [
        {
          "internalType": "uint256",
          "name": "leverageAmount",
          "type": "uint256"
        }
      ],
      "name": "getMaxEscrowAmount",
      "outputs": [
        {
          "internalType": "uint256",
          "name": "maxEscrowAmount",
          "type": "uint256"
        }
      ],
      "payable": false,
      "stateMutability": "view",
      "type": "function"
    },
    {
      "constant": true,
      "inputs": [],
      "name": "initialPrice",
      "outputs": [
        {
          "internalType": "uint256",
          "name": "",
          "type": "uint256"
        }
      ],
      "payable": false,
      "stateMutability": "view",
      "type": "function"
    },
    {
      "constant": true,
      "inputs": [],
      "name": "isOwner",
      "outputs": [
        {
          "internalType": "bool",
          "name": "",
          "type": "bool"
        }
      ],
      "payable": false,
      "stateMutability": "view",
      "type": "function"
    },
    {
      "constant": true,
      "inputs": [],
      "name": "kinkLevel",
      "outputs": [
        {
          "internalType": "uint256",
          "name": "",
          "type": "uint256"
        }
      ],
      "payable": false,
      "stateMutability": "view",
      "type": "function"
    },
    {
      "constant": true,
      "inputs": [],
      "name": "liquidityMiningAddress",
      "outputs": [
        {
          "internalType": "address",
          "name": "",
          "type": "address"
        }
      ],
      "payable": false,
      "stateMutability": "view",
      "type": "function"
    },
    {
      "constant": true,
      "inputs": [
        {
          "internalType": "uint256",
          "name": "",
          "type": "uint256"
        }
      ],
      "name": "loanParamsIds",
      "outputs": [
        {
          "internalType": "bytes32",
          "name": "",
          "type": "bytes32"
        }
      ],
      "payable": false,
      "stateMutability": "view",
      "type": "function"
    },
    {
      "constant": true,
      "inputs": [],
      "name": "loanTokenAddress",
      "outputs": [
        {
          "internalType": "address",
          "name": "",
          "type": "address"
        }
      ],
      "payable": false,
      "stateMutability": "view",
      "type": "function"
    },
    {
      "constant": true,
      "inputs": [],
      "name": "lowUtilBaseRate",
      "outputs": [
        {
          "internalType": "uint256",
          "name": "",
          "type": "uint256"
        }
      ],
      "payable": false,
      "stateMutability": "view",
      "type": "function"
    },
    {
      "constant": true,
      "inputs": [],
      "name": "lowUtilRateMultiplier",
      "outputs": [
        {
          "internalType": "uint256",
          "name": "",
          "type": "uint256"
        }
      ],
      "payable": false,
      "stateMutability": "view",
      "type": "function"
    },
    {
      "constant": false,
      "inputs": [
        {
          "internalType": "bytes32",
          "name": "loanId",
          "type": "bytes32"
        },
        {
          "internalType": "uint256",
          "name": "leverageAmount",
          "type": "uint256"
        },
        {
          "internalType": "uint256",
          "name": "loanTokenSent",
          "type": "uint256"
        },
        {
          "internalType": "uint256",
          "name": "collateralTokenSent",
          "type": "uint256"
        },
        {
          "internalType": "address",
          "name": "collateralTokenAddress",
          "type": "address"
        },
        {
          "internalType": "address",
          "name": "trader",
          "type": "address"
        },
        {
          "internalType": "uint256",
          "name": "minEntryPrice",
          "type": "uint256"
        },
        {
          "internalType": "bytes",
          "name": "loanDataBytes",
          "type": "bytes"
        }
      ],
      "name": "marginTrade",
      "outputs": [
        {
          "internalType": "uint256",
          "name": "",
          "type": "uint256"
        },
        {
          "internalType": "uint256",
          "name": "",
          "type": "uint256"
        }
      ],
      "payable": true,
      "stateMutability": "payable",
      "type": "function"
    },
    {
      "constant": false,
      "inputs": [
        {
          "internalType": "bytes32",
          "name": "loanId",
          "type": "bytes32"
        },
        {
          "internalType": "uint256",
          "name": "leverageAmount",
          "type": "uint256"
        },
        {
          "internalType": "uint256",
          "name": "loanTokenSent",
          "type": "uint256"
        },
        {
          "internalType": "uint256",
          "name": "collateralTokenSent",
          "type": "uint256"
        },
        {
          "internalType": "address",
          "name": "collateralTokenAddress",
          "type": "address"
        },
        {
          "internalType": "address",
          "name": "trader",
          "type": "address"
        },
        {
          "internalType": "uint256",
          "name": "minEntryPrice",
          "type": "uint256"
        },
        {
          "internalType": "address",
          "name": "affiliateReferrer",
          "type": "address"
        },
        {
          "internalType": "bytes",
          "name": "loanDataBytes",
          "type": "bytes"
        }
      ],
      "name": "marginTradeAffiliate",
      "outputs": [
        {
          "internalType": "uint256",
          "name": "",
          "type": "uint256"
        },
        {
          "internalType": "uint256",
          "name": "",
          "type": "uint256"
        }
      ],
      "payable": true,
      "stateMutability": "payable",
      "type": "function"
    },
    {
      "constant": true,
      "inputs": [],
      "name": "marketLiquidity",
      "outputs": [
        {
          "internalType": "uint256",
          "name": "",
          "type": "uint256"
        }
      ],
      "payable": false,
      "stateMutability": "view",
      "type": "function"
    },
    {
      "constant": true,
      "inputs": [],
      "name": "maxScaleRate",
      "outputs": [
        {
          "internalType": "uint256",
          "name": "",
          "type": "uint256"
        }
      ],
      "payable": false,
      "stateMutability": "view",
      "type": "function"
    },
    {
      "constant": false,
      "inputs": [
        {
          "internalType": "address",
          "name": "receiver",
          "type": "address"
        },
        {
          "internalType": "uint256",
          "name": "depositAmount",
          "type": "uint256"
        }
      ],
      "name": "mint",
      "outputs": [
        {
          "internalType": "uint256",
          "name": "mintAmount",
          "type": "uint256"
        }
      ],
      "payable": false,
      "stateMutability": "nonpayable",
      "type": "function"
    },
    {
      "constant": false,
      "inputs": [
        {
          "internalType": "address",
          "name": "receiver",
          "type": "address"
        },
        {
          "internalType": "uint256",
          "name": "depositAmount",
          "type": "uint256"
        },
        {
          "internalType": "bool",
          "name": "useLM",
          "type": "bool"
        }
      ],
      "name": "mint",
      "outputs": [
        {
          "internalType": "uint256",
          "name": "minted",
          "type": "uint256"
        }
      ],
      "payable": false,
      "stateMutability": "nonpayable",
      "type": "function"
    },
    {
      "constant": true,
      "inputs": [],
      "name": "name",
      "outputs": [
        {
          "internalType": "string",
          "name": "",
          "type": "string"
        }
      ],
      "payable": false,
      "stateMutability": "view",
      "type": "function"
    },
    {
      "constant": true,
      "inputs": [
        {
          "internalType": "uint256",
          "name": "borrowAmount",
          "type": "uint256"
        }
      ],
      "name": "nextBorrowInterestRate",
      "outputs": [
        {
          "internalType": "uint256",
          "name": "",
          "type": "uint256"
        }
      ],
      "payable": false,
      "stateMutability": "view",
      "type": "function"
    },
    {
      "constant": true,
      "inputs": [
        {
          "internalType": "uint256",
          "name": "supplyAmount",
          "type": "uint256"
        }
      ],
      "name": "nextSupplyInterestRate",
      "outputs": [
        {
          "internalType": "uint256",
          "name": "",
          "type": "uint256"
        }
      ],
      "payable": false,
      "stateMutability": "view",
      "type": "function"
    },
    {
      "constant": true,
      "inputs": [],
      "name": "owner",
      "outputs": [
        {
          "internalType": "address",
          "name": "",
          "type": "address"
        }
      ],
      "payable": false,
      "stateMutability": "view",
      "type": "function"
    },
    {
      "constant": true,
      "inputs": [],
      "name": "pauser",
      "outputs": [
        {
          "internalType": "address",
          "name": "",
          "type": "address"
        }
      ],
      "payable": false,
      "stateMutability": "view",
      "type": "function"
    },
    {
      "constant": true,
      "inputs": [
        {
          "internalType": "address",
          "name": "user",
          "type": "address"
        }
      ],
      "name": "profitOf",
      "outputs": [
        {
          "internalType": "int256",
          "name": "",
          "type": "int256"
        }
      ],
      "payable": false,
      "stateMutability": "view",
      "type": "function"
    },
    {
      "constant": true,
      "inputs": [],
      "name": "rateMultiplier",
      "outputs": [
        {
          "internalType": "uint256",
          "name": "",
          "type": "uint256"
        }
      ],
      "payable": false,
      "stateMutability": "view",
      "type": "function"
    },
    {
      "constant": true,
      "inputs": [],
      "name": "sovrynContractAddress",
      "outputs": [
        {
          "internalType": "address",
          "name": "",
          "type": "address"
        }
      ],
      "payable": false,
      "stateMutability": "view",
      "type": "function"
    },
    {
      "constant": true,
      "inputs": [
        {
          "internalType": "string",
          "name": "source",
          "type": "string"
        }
      ],
      "name": "stringToBytes32",
      "outputs": [
        {
          "internalType": "bytes32",
          "name": "result",
          "type": "bytes32"
        }
      ],
      "payable": false,
      "stateMutability": "pure",
      "type": "function"
    },
    {
      "constant": true,
      "inputs": [],
      "name": "supplyInterestRate",
      "outputs": [
        {
          "internalType": "uint256",
          "name": "",
          "type": "uint256"
        }
      ],
      "payable": false,
      "stateMutability": "view",
      "type": "function"
    },
    {
      "constant": true,
      "inputs": [],
      "name": "symbol",
      "outputs": [
        {
          "internalType": "string",
          "name": "",
          "type": "string"
        }
      ],
      "payable": false,
      "stateMutability": "view",
      "type": "function"
    },
    {
      "constant": true,
      "inputs": [],
      "name": "targetLevel",
      "outputs": [
        {
          "internalType": "uint256",
          "name": "",
          "type": "uint256"
        }
      ],
      "payable": false,
      "stateMutability": "view",
      "type": "function"
    },
    {
      "constant": true,
      "inputs": [],
      "name": "target_",
      "outputs": [
        {
          "internalType": "address",
          "name": "",
          "type": "address"
        }
      ],
      "payable": false,
      "stateMutability": "view",
      "type": "function"
    },
    {
      "constant": true,
      "inputs": [],
      "name": "tokenPrice",
      "outputs": [
        {
          "internalType": "uint256",
          "name": "price",
          "type": "uint256"
        }
      ],
      "payable": false,
      "stateMutability": "view",
      "type": "function"
    },
    {
      "constant": true,
      "inputs": [],
      "name": "totalAssetBorrow",
      "outputs": [
        {
          "internalType": "uint256",
          "name": "",
          "type": "uint256"
        }
      ],
      "payable": false,
      "stateMutability": "view",
      "type": "function"
    },
    {
      "constant": true,
      "inputs": [],
      "name": "totalAssetSupply",
      "outputs": [
        {
          "internalType": "uint256",
          "name": "",
          "type": "uint256"
        }
      ],
      "payable": false,
      "stateMutability": "view",
      "type": "function"
    },
    {
      "constant": true,
      "inputs": [],
      "name": "totalSupply",
      "outputs": [
        {
          "internalType": "uint256",
          "name": "",
          "type": "uint256"
        }
      ],
      "payable": false,
      "stateMutability": "view",
      "type": "function"
    },
    {
      "constant": true,
      "inputs": [
        {
          "internalType": "uint256",
          "name": "assetSupply",
          "type": "uint256"
        }
      ],
      "name": "totalSupplyInterestRate",
      "outputs": [
        {
          "internalType": "uint256",
          "name": "",
          "type": "uint256"
        }
      ],
      "payable": false,
      "stateMutability": "view",
      "type": "function"
    },
    {
      "constant": true,
      "inputs": [
        {
          "internalType": "address",
          "name": "",
          "type": "address"
        }
      ],
      "name": "transactionLimit",
      "outputs": [
        {
          "internalType": "uint256",
          "name": "",
          "type": "uint256"
        }
      ],
      "payable": false,
      "stateMutability": "view",
      "type": "function"
    },
    {
      "constant": false,
      "inputs": [
        {
          "internalType": "address",
          "name": "_to",
          "type": "address"
        },
        {
          "internalType": "uint256",
          "name": "_value",
          "type": "uint256"
        }
      ],
      "name": "transfer",
      "outputs": [
        {
          "internalType": "bool",
          "name": "",
          "type": "bool"
        }
      ],
      "payable": false,
      "stateMutability": "nonpayable",
      "type": "function"
    },
    {
      "constant": false,
      "inputs": [
        {
          "internalType": "address",
          "name": "_from",
          "type": "address"
        },
        {
          "internalType": "address",
          "name": "_to",
          "type": "address"
        },
        {
          "internalType": "uint256",
          "name": "_value",
          "type": "uint256"
        }
      ],
      "name": "transferFrom",
      "outputs": [
        {
          "internalType": "bool",
          "name": "",
          "type": "bool"
        }
      ],
      "payable": false,
      "stateMutability": "nonpayable",
      "type": "function"
    },
    {
      "constant": false,
      "inputs": [
        {
          "internalType": "address",
          "name": "newOwner",
          "type": "address"
        }
      ],
      "name": "transferOwnership",
      "outputs": [],
      "payable": false,
      "stateMutability": "nonpayable",
      "type": "function"
    },
    {
      "constant": true,
      "inputs": [],
      "name": "wrbtcTokenAddress",
      "outputs": [
        {
          "internalType": "address",
          "name": "",
          "type": "address"
        }
      ],
      "payable": false,
      "stateMutability": "view",
      "type": "function"
    }
  ],
  "bytecode": {
    "object": "0x6080604052600160009081556200001e6001600160e01b036200007216565b600180546001600160a01b0319166001600160a01b038316908117909155604051919250906000907f8be0079c531659141344cd1fd0a4f28419497f9722a3daafe3b4186f6b6457e0908290a35062000076565b3390565b615ed480620000866000396000f3fe6080604052600436106103a25760003560e01c80637b7933b4116101e7578063b9fe1a8f1161010d578063e41b07e3116100a0578063f6b69f991161006f578063f6b69f99146109da578063f851a440146109ed578063f8dd4f0e14610a02578063ffa1ad7414610a17576103a2565b8063e41b07e314610965578063eebc508114610985578063ef2b0b39146109a5578063f2fde38b146109ba576103a2565b8063d1a1beb4116100dc578063d1a1beb4146108f0578063d65a502114610910578063d759dbeb14610930578063dd62ed3e14610945576103a2565b8063b9fe1a8f14610886578063ba0e43bf146108a6578063ca37e666146108bb578063cfb51928146108d0576103a2565b80638f32d59b116101855780639bda3a98116101545780639bda3a981461081c5780639dc29fac146108315780639fd0506d14610851578063a9059cbb14610866576103a2565b80638f32d59b146107ba5780638fb807c5146107cf57806390967de5146107e457806395d89b4114610807576103a2565b8063829b38f4116101c1578063829b38f41461075b5780638325a1c01461077b5780638da5cb5b146107905780638ee6c4e6146107a5576103a2565b80637b7933b41461071c5780637e37c08c146107315780637ff9b59614610746576103a2565b80632f6b600d116102cc57806356e07d701161026a5780636d23d1ac116102395780636d23d1ac146106a757806370a08231146106c757806376fd4fdf146106e7578063797bf38514610707576103a2565b806356e07d701461062e578063612ef80b14610643578063631a3ef8146106585780636b40cd4014610678576103a2565b8063330691ac116102a6578063330691ac146105c457806340c10f19146105d957806344a4a003146105f957806354198ce91461060e576103a2565b80632f6b600d1461056d578063313ce567146105825780633291c11a146105a4576103a2565b8063124168981161034457806320f6d07c1161031357806320f6d07c1461050457806323b872dd1461051957806328a02f19146105395780632ea295fa1461055a576103a2565b806312416898146104a557806318160ddd146104c55780631d0806ae146104da5780631f68f20a146104ef576103a2565b806306fdde031161038057806306fdde031461041f578063095ea7b31461044157806309ec6b6b1461046e57806310e5764414610483576103a2565b806304797930146103a757806306947a3a146103dd57806306b3efd6146103ff575b600080fd5b3480156103b357600080fd5b506103c76103c2366004614ee6565b610a2c565b6040516103d49190615aa8565b60405180910390f35b3480156103e957600080fd5b506103f2610bd5565b6040516103d49190615921565b34801561040b57600080fd5b506103c761041a366004614a79565b610be4565b34801561042b57600080fd5b50610434610cd0565b6040516103d49190615b27565b34801561044d57600080fd5b5061046161045c366004614b3c565b610d5b565b6040516103d49190615a9a565b34801561047a57600080fd5b506103c7610dc6565b34801561048f57600080fd5b506104a361049e366004614e76565b610ddb565b005b3480156104b157600080fd5b506103c76104c0366004614e3a565b610ebe565b3480156104d157600080fd5b506103c7610ee9565b3480156104e657600080fd5b506103c7610eef565b3480156104fb57600080fd5b506103c7610ef5565b34801561051057600080fd5b506103c7610efb565b34801561052557600080fd5b50610461610534366004614aef565b610f8a565b61054c610547366004614d76565b611053565b6040516103d4929190615d18565b61054c610568366004614bcd565b6113e5565b34801561057957600080fd5b506103f261176c565b34801561058e57600080fd5b5061059761177b565b6040516103d49190615d41565b3480156105b057600080fd5b506103c76105bf366004614e3a565b611784565b3480156105d057600080fd5b506103c7611796565b3480156105e557600080fd5b506103c76105f4366004614b3c565b61179c565b34801561060557600080fd5b506103c761190e565b34801561061a57600080fd5b506103c7610629366004614a79565b611920565b34801561063a57600080fd5b506103c76119c1565b34801561064f57600080fd5b506103c76119c7565b34801561066457600080fd5b506103c7610673366004614ee6565b6119f8565b34801561068457600080fd5b50610698610693366004614f29565b611b98565b6040516103d493929190615d26565b3480156106b357600080fd5b506103c76106c2366004614e97565b611ca9565b3480156106d357600080fd5b506103c76106e2366004614a79565b611d8c565b3480156106f357600080fd5b506103c7610702366004614b6c565b611da7565b34801561071357600080fd5b506103f2611f84565b34801561072857600080fd5b506103c7611f98565b34801561073d57600080fd5b506103c7611f9e565b34801561075257600080fd5b506103c7611fa4565b34801561076757600080fd5b506103c7610776366004614e3a565b611fe2565b34801561078757600080fd5b506103c7612062565b34801561079c57600080fd5b506103f261206e565b3480156107b157600080fd5b506103f261207d565b3480156107c657600080fd5b5061046161208c565b3480156107db57600080fd5b506103c76120b2565b3480156107f057600080fd5b506107f96120e2565b6040516103d4929190615a7a565b34801561081357600080fd5b5061043461278f565b34801561082857600080fd5b506103f26127ea565b34801561083d57600080fd5b506103c761084c366004614b3c565b6127f9565b34801561085d57600080fd5b506103f26128b9565b34801561087257600080fd5b50610461610881366004614b3c565b6128c8565b34801561089257600080fd5b506103c76108a1366004614e3a565b6128d8565b3480156108b257600080fd5b506103c76128e3565b3480156108c757600080fd5b506103f26128e9565b3480156108dc57600080fd5b506103c76108eb366004614e05565b6128f8565b3480156108fc57600080fd5b506103c761090b366004614b6c565b612916565b34801561091c57600080fd5b506103c761092b366004614e3a565b6129ee565b34801561093c57600080fd5b506103c7612a01565b34801561095157600080fd5b506103c7610960366004614ab5565b612a07565b34801561097157600080fd5b506103c7610980366004614a79565b612a32565b34801561099157600080fd5b506103c76109a0366004614a79565b612a44565b3480156109b157600080fd5b506103c7612a5f565b3480156109c657600080fd5b506104a36109d5366004614a79565b612a65565b61054c6109e8366004614c95565b612a95565b3480156109f957600080fd5b506103f2612b65565b348015610a0e57600080fd5b506103c7612b74565b348015610a2357600080fd5b506103c7612b7e565b60008315610bce576001600160a01b038216610a51576017546001600160a01b031691505b600060106000846001604051602001610a6b929190615881565b60408051601f19818403018152918152815160209283012083529082019290925281016000205460165460048054935163ca74a5d960e01b81529294506001600160a01b039182169363e762319f936101009091049092169187918a91869163ca74a5d991610adc918a9101615aa8565b60206040518083038186803b158015610af457600080fd5b505afa158015610b08573d6000803e3d6000fd5b505050506040513d601f19601f82011682018060405250610b2c9190810190614e58565b60016040518663ffffffff1660e01b8152600401610b4e95949392919061599b565b60206040518083038186803b158015610b6657600080fd5b505afa158015610b7a573d6000803e3d6000fd5b505050506040513d601f19601f82011682018060405250610b9e9190810190614e58565b9150610bb282610bac6120b2565b86612b83565b9350610bc09150612bfc9050565b821115610bcc57600091505b505b9392505050565b6016546001600160a01b031681565b601c5460009081906001600160a01b031615610c7f57601c54604051636822955360e11b81526001600160a01b039091169063d0452aa690610c2c903090879060040161593d565b60206040518083038186803b158015610c4457600080fd5b505afa158015610c58573d6000803e3d6000fd5b505050506040513d601f19601f82011682018060405250610c7c9190810190614e58565b90505b610cc7670de0b6b3a7640000610cbb610c96611fa4565b610caf85610ca389611d8c565b9063ffffffff612c3216565b9063ffffffff612c5716565b9063ffffffff612c9116565b9150505b919050565b6002805460408051602060018416156101000260001901909316849004601f81018490048402820184019092528181529291830182828015610d535780601f10610d2857610100808354040283529160200191610d53565b820191906000526020600020905b815481529060010190602001808311610d3657829003601f168201915b505050505081565b3360008181526014602090815260408083206001600160a01b038716808552925280832085905551919290917f8c5be1e5ebec7d5bd14f71427d1e84f3dd0314c0f7b2291e5b200ac8c7c3b92590610db4908690615aa8565b60405180910390a35060015b92915050565b6000610dd56104c06000612cd3565b90505b90565b60165460048054604051631a51577760e21b81526000936001600160a01b03908116936369455ddc93610e1c936101009091049092169188918a9101615973565b60206040518083038186803b158015610e3457600080fd5b505afa158015610e48573d6000803e3d6000fd5b505050506040513d601f19601f82011682018060405250610e6c9190810190614e58565b90506000610e8c85610cbb84670de0b6b3a764000063ffffffff612c5716565b905082811015610eb75760405162461bcd60e51b8152600401610eae90615b88565b60405180910390fd5b5050505050565b600080610ec9610efb565b90508015610ee357610edb8184611ca9565b915050610ccb565b50919050565b60155490565b600e5481565b60055481565b6016546004805460405163250f447f60e11b81526000936001600160a01b0390811693634a1e88fe93610f3a933093610100909204909116910161593d565b60206040518083038186803b158015610f5257600080fd5b505afa158015610f66573d6000803e3d6000fd5b505050506040513d601f19601f82011682018060405250610dd59190810190614e58565b60165460405163115dd4b160e01b815260009161104b918691869186916001600160a01b03169063115dd4b190610fc590339060040161592f565b60206040518083038186803b158015610fdd57600080fd5b505afa158015610ff1573d6000803e3d6000fd5b505050506040513d601f19601f820116820180604052506110159190810190614baf565b611042576001600160a01b0388166000908152601460209081526040808320338452909152902054611046565b6000195b612d0d565b949350505050565b6000806001600054146110785760405162461bcd60e51b8152600401610eae90615cc8565b6002600081905550600073ba10edd6abc7696eae685839217bdcc42139612b6001600160a01b031663ed04e1c36040518163ffffffff1660e01b8152600401602060405180830381600087803b1580156110d157600080fd5b505af11580156110e5573d6000803e3d6000fd5b505050506040513d601f19601f820116820180604052506111099190810190614e58565b9050611113612f1d565b6001600160a01b038716611130576017546001600160a01b031696505b6004546001600160a01b038881166101009092041614156111635760405162461bcd60e51b8152600401610eae90615bf8565b8a15806111785750336001600160a01b038716145b6111945760405162461bcd60e51b8152600401610eae90615ce8565b6001600160a01b038716600090815260126020526040902054156111d7576001600160a01b0387166000908152601260205260409020548811156111d757600080fd5b60045461010090046001600160a01b0316600090815260126020526040902054156112285760045461010090046001600160a01b031660009081526012602052604090205489111561122857600080fd5b6000611235888a8c612f9d565b9050806112545760405162461bcd60e51b8152600401610eae90615c18565b61125c614927565b61126461494e565b3082526001600160a01b038916602080840182905260408401919091528101839052606081018c9052608081018b905261129c6131ca565b6112aa8d8260200151613270565b82526020820181905260045465e35fa931a000916112d69161010090046001600160a01b0316906132bf565b116112f35760405162461bcd60e51b8152600401610eae90615ca8565b61130d6f4b3b4ca85a86c47a098a2240000000008e612c91565b60a082018990529c506113268e60008f8d86868d6133e6565b9550955050505073ba10edd6abc7696eae685839217bdcc42139612b6001600160a01b0316633fa4f2456040518163ffffffff1660e01b815260040160206040518083038186803b15801561137a57600080fd5b505afa15801561138e573d6000803e3d6000fd5b505050506040513d601f19601f820116820180604052506113b29190810190614e58565b81146113d05760405162461bcd60e51b8152600401610eae90615b38565b50600160005590999098509650505050505050565b60008060016000541461140a5760405162461bcd60e51b8152600401610eae90615cc8565b6002600081905550600073ba10edd6abc7696eae685839217bdcc42139612b6001600160a01b031663ed04e1c36040518163ffffffff1660e01b8152600401602060405180830381600087803b15801561146357600080fd5b505af1158015611477573d6000803e3d6000fd5b505050506040513d601f19601f8201168201806040525061149b9190810190614e58565b9050896114ba5760405162461bcd60e51b8152600401610eae90615cf8565b6114c2612f1d565b6001600160a01b03871660009081526012602052604090205415611505576001600160a01b03871660009081526012602052604090205488111561150557600080fd5b34158061151157508734145b801561152557508715158061152557508a15155b801561154c57506001600160a01b03871615158061154257503415155b8061154c57508a15155b801561156857508a15806115685750336001600160a01b038716145b6115845760405162461bcd60e51b8152600401610eae90615bb8565b6004546001600160a01b038881166101009092041614156115b75760405162461bcd60e51b8152600401610eae90615b48565b6115bf6131ca565b6115c7614927565b6115cf61494e565b3082526001600160a01b03888116602080850191909152908816604084015281018c90526116078c6116016000612cd3565b8d612b83565b836000018460400185602001838152508381525083815250505050898160800181815250506117198d8d601660009054906101000a90046001600160a01b03166001600160a01b031663ca74a5d9601060008f600160405160200161166d929190615881565b6040516020818303038152906040528051906020012060001c8152602001908152602001600020546040518263ffffffff1660e01b81526004016116b19190615aa8565b60206040518083038186803b1580156116c957600080fd5b505afa1580156116dd573d6000803e3d6000fd5b505050506040513d601f19601f820116820180604052506117019190810190614e58565b8c8686604051806020016040528060008152506133e6565b94509450505073ba10edd6abc7696eae685839217bdcc42139612b6001600160a01b0316633fa4f2456040518163ffffffff1660e01b815260040160206040518083038186803b15801561137a57600080fd5b6017546001600160a01b031681565b60045460ff1681565b60106020526000908152604090205481565b60065481565b60006001600054146117c05760405162461bcd60e51b8152600401610eae90615cc8565b6002600081905550600073ba10edd6abc7696eae685839217bdcc42139612b6001600160a01b031663ed04e1c36040518163ffffffff1660e01b8152600401602060405180830381600087803b15801561181957600080fd5b505af115801561182d573d6000803e3d6000fd5b505050506040513d601f19601f820116820180604052506118519190810190614e58565b905061185d8484613643565b915073ba10edd6abc7696eae685839217bdcc42139612b6001600160a01b0316633fa4f2456040518163ffffffff1660e01b815260040160206040518083038186803b1580156118ac57600080fd5b505afa1580156118c0573d6000803e3d6000fd5b505050506040513d601f19601f820116820180604052506118e49190810190614e58565b81146119025760405162461bcd60e51b8152600401610eae90615b38565b50600160005592915050565b6000610dd561191b610efb565b61374f565b600080827f37aa2b7d583612f016e4a4de4292cb015139b3d7762663d06a53964912ea2fb660001b6040516020016119599291906158a7565b604051602081830303815290604052805190602001209050610cc78160136000866001600160a01b03166001600160a01b03168152602001908152602001600020546119a3611fa4565b6001600160a01b038716600090815260116020526040902054613787565b600a5481565b6000806119d46000612cd3565b905060006119e0610efb565b9050808211156119f35790039050610dd8565b505090565b60008315610bce576000611a0e85610bac6120b2565b92505050611a1a612bfc565b8111610bcc576001600160a01b038316611a3d576017546001600160a01b031692505b600060106000856001604051602001611a57929190615881565b60408051601f19818403018152918152815160209283012083529082019290925281016000205460165460048054935163ca74a5d960e01b8152929450611b8f93600a936001600160a01b03938416936325decac09361010090930416918a918991869163ca74a5d991611acd918c9101615aa8565b60206040518083038186803b158015611ae557600080fd5b505afa158015611af9573d6000803e3d6000fd5b505050506040513d601f19601f82011682018060405250611b1d9190810190614e58565b60016040518663ffffffff1660e01b8152600401611b3f95949392919061599b565b60206040518083038186803b158015611b5757600080fd5b505afa158015611b6b573d6000803e3d6000fd5b505050506040513d601f19601f82011682018060405250610ca39190810190614e58565b92505050610bce565b600080806001600160a01b038416611bb9576017546001600160a01b031693505b6000611bc6858789612f9d565b9050611bd28882613270565b9094509150611bdf612bfc565b841115611bf6575060009250829150819050611c9f565b611c06878563ffffffff612c3216565b6016546004805460405163d67f707760e01b8152939a506001600160a01b039283169363d67f707793611c4b9361010090930416918a918d918d918a918d91016159dd565b60206040518083038186803b158015611c6357600080fd5b505afa158015611c77573d6000803e3d6000fd5b505050506040513d601f19601f82011682018060405250611c9b9190810190614e58565b9250505b9450945094915050565b60008215801590611cba5750828210155b15610dc057611d85701d6329f1c35ca4bfabb9f5610000000000610cbb611d6f68056bc75e2d63100000601660009054906101000a90046001600160a01b03166001600160a01b0316634699f8466040518163ffffffff1660e01b815260040160206040518083038186803b158015611d3257600080fd5b505afa158015611d46573d6000803e3d6000fd5b505050506040513d601f19601f82011682018060405250611d6a9190810190614e58565b6137e1565b610caf611d7c8888613823565b610caf8961374f565b9050610dc0565b6001600160a01b031660009081526013602052604090205490565b6000600160005414611dcb5760405162461bcd60e51b8152600401610eae90615cc8565b6002600081905550600073ba10edd6abc7696eae685839217bdcc42139612b6001600160a01b031663ed04e1c36040518163ffffffff1660e01b8152600401602060405180830381600087803b158015611e2457600080fd5b505af1158015611e38573d6000803e3d6000fd5b505050506040513d601f19601f82011682018060405250611e5c9190810190614e58565b90508215611e7457611e6d84613855565b9150611e80565b611e7d846139fb565b91505b8115611ed457611ed4600460019054906101000a90046001600160a01b0316868460405180604001604052806015815260200174185cdcd95d081d1c985b9cd9995c8819985a5b1959605a1b815250613bb2565b73ba10edd6abc7696eae685839217bdcc42139612b6001600160a01b0316633fa4f2456040518163ffffffff1660e01b815260040160206040518083038186803b158015611f2157600080fd5b505afa158015611f35573d6000803e3d6000fd5b505050506040513d601f19601f82011682018060405250611f599190810190614e58565b8114611f775760405162461bcd60e51b8152600401610eae90615b38565b5060016000559392505050565b60045461010090046001600160a01b031681565b600d5481565b60085481565b600f546000908190426001600160581b03908116911614611fcb57611fc7613c12565b9150505b611fdc611fd782612cd3565b613cde565b91505090565b60008061200161016d610cbb601c600b54612c5790919063ffffffff16565b9050600061201e68056bc75e2d631000008363ffffffff6137e116565b9050600061203b68056bc75e2d63100000610cbb84610caf6119c7565b905061205985610cbb83670de0b6b3a764000063ffffffff612c5716565b95945050505050565b6000610dd56000613d0d565b6001546001600160a01b031690565b601c546001600160a01b031681565b6001546000906001600160a01b03166120a3613d63565b6001600160a01b031614905090565b600f546000908190426001600160581b039081169116146120d9576120d5613c12565b9150505b611fdc81612cd3565b6040805160208082526104208201909252606091600091839180820161040080388339019050509050632ea295fa60e01b8160008151811061212057fe5b6001600160e01b03199092166020928302919091019091015280516328a02f1960e01b908290600190811061215157fe5b6001600160e01b031990921660209283029190910190910152805163f6b69f9960e01b908290600290811061218257fe5b6001600160e01b031990921660209283029190910190910152805163a9059cbb60e01b90829060039081106121b357fe5b6001600160e01b03199092166020928302919091019091015280516323b872dd60e01b90829060049081106121e457fe5b6001600160e01b03199092166020928302919091019091015280516354198ce960e01b908290600590811061221557fe5b6001600160e01b0319909216602092830291909101909101528051633ffcdacb60e11b908290600690811061224657fe5b6001600160e01b031990921660209283029190910190910152805163eebc508160e01b908290600790811061227757fe5b6001600160e01b031990921660209283029190910190910152805163612ef80b60e01b90829060089081106122a857fe5b6001600160e01b03199092166020928302919091019091015280516344a4a00360e01b90829060099081106122d957fe5b6001600160e01b031990921660209283029190910190910152805163020c968760e61b908290600a90811061230a57fe5b6001600160e01b031990921660209283029190910190910152805163b9fe1a8f60e01b908290600b90811061233b57fe5b6001600160e01b03199092166020928302919091019091015280516309ec6b6b60e01b908290600c90811061236c57fe5b6001600160e01b031990921660209283029190910190910152805163d65a502160e01b908290600d90811061239d57fe5b6001600160e01b03199092166020928302919091019091015280516302482d1360e31b908290600e9081106123ce57fe5b6001600160e01b031990921660209283029190910190910152805163083db41f60e21b908290600f9081106123ff57fe5b6001600160e01b0319909216602092830291909101909101528051638fb807c560e01b908290601090811061243057fe5b6001600160e01b03199092166020928302919091019091015280516320a6ce3d60e21b908290601190811061246157fe5b6001600160e01b0319909216602092830291909101909101528051630359f7eb60e11b908290601290811061249257fe5b6001600160e01b03199092166020928302919091019091015280516301ad033560e61b90829060139081106124c357fe5b6001600160e01b0319909216602092830291909101909101528051630c6347df60e31b90829060149081106124f457fe5b6001600160e01b03199092166020928302919091019091015280516247979360e41b908290601590811061252457fe5b6001600160e01b03199092166020928302919091019091015280516304395d9160e21b908290601690811061255557fe5b6001600160e01b0319909216602092830291909101909101528051631b48f46b60e21b908290601790811061258657fe5b6001600160e01b0319909216602092830291909101909101526040516125ab906158f5565b6040518091039020816018815181106125c057fe5b6001600160e01b0319909216602092830291909101909101526040516125e590615916565b6040518091039020816019815181106125fa57fe5b6001600160e01b03199092166020928302919091019091015260405161261f9061590b565b604051809103902081601a8151811061263457fe5b6001600160e01b03199092166020928302919091019091015260405161265990615900565b604051809103902081601b8151811061266e57fe5b6001600160e01b031990921660209283029190910190910152805163095ea7b360e01b908290601c90811061269f57fe5b6001600160e01b03199092166020928302919091019091015280516318160ddd60e01b908290601d9081106126d057fe5b6001600160e01b03199092166020928302919091019091015280516370a0823160e01b908290601e90811061270157fe5b6001600160e01b0319909216602092830291909101909101528051636eb1769f60e11b908290601f90811061273257fe5b60200260200101906001600160e01b03191690816001600160e01b03191681525050806127866040518060400160405280601081526020016f4c6f616e546f6b656e4c6f6769634c4d60801b8152506128f8565b92509250509091565b6003805460408051602060026001851615610100026000190190941693909304601f81018490048402820184019092528181529291830182828015610d535780601f10610d2857610100808354040283529160200191610d53565b6018546001600160a01b031681565b600060016000541461281d5760405162461bcd60e51b8152600401610eae90615cc8565b60026000556040516128ae90732c34d66a5ca8686330e100372eb3fdfb5aeecd0b9063a9059cbb60e01b906128589087908790602401615a37565b604051602081830303815290604052906001600160e01b0319166020820180516001600160e01b0383818316178352505050506040518060400160405280600581526020016432b93937b960d91b815250613d67565b600160005592915050565b601b546001600160a01b031681565b6000610bce338484600019612d0d565b6000610dc082613d0d565b60095481565b601a546001600160a01b031681565b8051600090829061290d575060009050610ccb565b50506020015190565b600060016000541461293a5760405162461bcd60e51b8152600401610eae90615cc8565b6002600081905550600073ba10edd6abc7696eae685839217bdcc42139612b6001600160a01b031663ed04e1c36040518163ffffffff1660e01b8152600401602060405180830381600087803b15801561299357600080fd5b505af11580156129a7573d6000803e3d6000fd5b505050506040513d601f19601f820116820180604052506129cb9190810190614e58565b905082156129e4576129dd8585613e52565b9150611ed4565b6129dd8585613643565b6000610dc06104c083610ca36000612cd3565b60075481565b6001600160a01b03918216600090815260146020908152604080832093909416825291909152205490565b60126020526000908152604090205481565b6001600160a01b031660009081526011602052604090205490565b600b5481565b612a6d61208c565b612a895760405162461bcd60e51b8152600401610eae90615c68565b612a9281613edb565b50565b6000806001600160a01b03851615612b0c5760165460405163193bbe8960e31b81526001600160a01b039091169063c9ddf44890612ad9908a90899060040161593d565b600060405180830381600087803b158015612af357600080fd5b505af1158015612b07573d6000803e3d6000fd5b505050505b612b528c8c8c8c8c8c8c8b8b8080601f01602080910402602001604051908101604052809392919081815260200183838082843760009201919091525061105392505050565b915091509a509a98505050505050505050565b6019546001600160a01b031681565b65e35fa931a00081565b600681565b6000806000612b928686613f5d565b9250612bdf612bc7670de0b6b3a7640000611d6a6b0a3098c68eb9427db8000000610cbb83610caf8a8c63ffffffff612c5716565b610cbb88670de0b6b3a764000063ffffffff612c5716565b9050612bf1818763ffffffff6137e116565b915093509350939050565b600480546040516370a0823160e01b81526000926101009092046001600160a01b0316916370a0823191610f3a91309101615921565b600082820183811015610bce5760405162461bcd60e51b8152600401610eae90615b98565b600082612c6657506000610dc0565b82820282848281612c7357fe5b0414610bce5760405162461bcd60e51b8152600401610eae90615c58565b6000610bce83836040518060400160405280601a81526020017f536166654d6174683a206469766973696f6e206279207a65726f000000000000815250614073565b6000601554600014610ccb57600c5480612cfd57612cfa612cf2610efb565b610ca3612bfc565b90505b610edb818463ffffffff612c3216565b60006000198214612da6576040805180820190915260028152610c4d60f21b6020820152612d44908390859063ffffffff6140aa16565b6001600160a01b038616600081815260146020908152604080832033808552925291829020849055905190927f628e75c63c1873bcd3885f7aee9f58ee36f60dc789b2a6b3a978c4189bc548ba91612d9d918791615d18565b60405180910390a35b6001600160a01b038416612dcc5760405162461bcd60e51b8152600401610eae90615b58565b6001600160a01b03851660009081526013602090815260408083205481518083019092526002825261189b60f11b92820192909252909190612e17908390879063ffffffff6140aa16565b6001600160a01b03808916600090815260136020526040808220849055918916815290812054919250612e50828863ffffffff612c3216565b6001600160a01b0389166000908152601360205260408120829055909150612e76611fa4565b601c549091506001600160a01b038b8116911614801590612ea55750601c546001600160a01b038a8116911614155b15612ec257612eb68a8686846140d6565b612ec2898484846140d6565b886001600160a01b03168a6001600160a01b03167fddf252ad1be2c89b69c2b068fc378daa952ba7f163c4a11628f55a4df523b3ef8a604051612f059190615aa8565b60405180910390a35060019998505050505050505050565b600080356001600160e01b0319167fd46a704bc285dbd6ff5ad3863506260b1df02812f4f857c8cc852317a6ac64f2604051602001612f5d9291906158cd565b6040516020818303038152906040528051906020012090506000815490508015612f995760405162461bcd60e51b8152600401610eae90615c68565b5050565b808215610bce57600080601660009054906101000a90046001600160a01b03166001600160a01b03166378d849ed6040518163ffffffff1660e01b815260040160206040518083038186803b158015612ff557600080fd5b505afa158015613009573d6000803e3d6000fd5b505050506040513d601f19601f8201168201806040525061302d9190810190614a97565b60048054604051630a7549df60e21b81526001600160a01b03938416936329d5277c93613066938c93610100909104909216910161593d565b604080518083038186803b15801561307d57600080fd5b505afa158015613091573d6000803e3d6000fd5b505050506040513d601f19601f820116820180604052506130b59190810190614eb6565b91509150816000141580156130c957508015155b6130e55760405162461bcd60e51b8152600401610eae90615cb8565b60006130fb82610cbb888663ffffffff612c5716565b60165460048054604051631a51577760e21b81529394506000936001600160a01b03938416936369455ddc9361313e936101009004909116918d91889101615973565b60206040518083038186803b15801561315657600080fd5b505afa15801561316a573d6000803e3d6000fd5b505050506040513d601f19601f8201168201806040525061318e9190810190614e58565b90508681146131ae576131ab87610cbb848463ffffffff612c5716565b91505b6131be828663ffffffff612c3216565b98975050505050505050565b600f5442906001600160581b03808316911614612a925760165460048054604051630740ff7d60e51b81526001600160a01b039384169363e81fefa09361321a9361010090049091169101615921565b600060405180830381600087803b15801561323457600080fd5b505af1158015613248573d6000803e3d6000fd5b5050600f80546001600160581b0385166affffffffffffffffffffff19909116179055505050565b60008080613290670de0b6b3a7640000610cbb868863ffffffff612c5716565b90506132a5816132a06000612cd3565b613f5d565b91506132b5826224ea008361418c565b9250509250929050565b6000806000601660009054906101000a90046001600160a01b03166001600160a01b03166378d849ed6040518163ffffffff1660e01b815260040160206040518083038186803b15801561331257600080fd5b505afa158015613326573d6000803e3d6000fd5b505050506040513d601f19601f8201168201806040525061334a9190810190614a97565b601754604051630a7549df60e21b81526001600160a01b03928316926329d5277c9261337e928a929091169060040161593d565b604080518083038186803b15801561339557600080fd5b505afa1580156133a9573d6000803e3d6000fd5b505050506040513d601f19601f820116820180604052506133cd9190810190614eb6565b909250905061205981610cbb868563ffffffff612c5716565b6000806133f1612f1d565b6133f9612bfc565b846020015111158015613418575060208501516001600160a01b031615155b6134345760405162461bcd60e51b8152600401610eae90615be8565b60408501516001600160a01b031661345a5760208501516001600160a01b031660408601525b60006134688787878c6141ed565b905061348585602001518660600151612c3290919063ffffffff16565b606086015288156134ab5760608501516134a5908a63ffffffff6137e116565b60608601525b600089156134b7575060015b6000601060008a846040516020016134d0929190615881565b6040516020818303038152906040528051906020012060001c8152602001908152602001600020549050601660009054906101000a90046001600160a01b03166001600160a01b031663d84ca25484838f868f8e8e8e6040518963ffffffff1660e01b81526004016135489796959493929190615ab6565b60408051808303818588803b15801561356057600080fd5b505af1158015613574573d6000803e3d6000fd5b50505050506040513d601f19601f820116820180604052506135999190810190614eb6565b6080890152602088018190526135c15760405162461bcd60e51b8152600401610eae90615c28565b601654602089015160405163f06a9c6b60e01b81526001600160a01b039092169163f06a9c6b916135f491600401615921565b600060405180830381600087803b15801561360e57600080fd5b505af1158015613622573d6000803e3d6000fd5b50505050866020015187608001519450945050505097509795505050505050565b60008061364f8361441f565b601c5491935091506000906001600160a01b0316156136ed57601c54604051636822955360e11b81526001600160a01b039091169063d0452aa69061369a903090899060040161593d565b60206040518083038186803b1580156136b257600080fd5b505afa1580156136c6573d6000803e3d6000fd5b505050506040513d601f19601f820116820180604052506136ea9190810190614e58565b90505b6001600160a01b038516600090815260136020526040812054613716908363ffffffff612c3216565b9050600061372a828663ffffffff612c3216565b905061373887868887614529565b50613745878383876140d6565b5050505092915050565b60008115610ccb576000613761613c12565b509050610edb83610cbb61016d610caf8568056bc75e2d6310000063ffffffff612c5716565b6000816137965750600061104b565b508354612059816137d5670de0b6b3a76400006137c9886137bd898963ffffffff61464a16565b9063ffffffff61469016565b9063ffffffff6146fb16565b9063ffffffff61475f16565b6000610bce83836040518060400160405280601e81526020017f536166654d6174683a207375627472616374696f6e206f766572666c6f7700008152506140aa565b6000821580159061383357508115155b15610dc057611d8582610cbb8568056bc75e2d6310000063ffffffff612c5716565b601c54604051636822955360e11b815260009182916001600160a01b039091169063d0452aa69061388c9030903390600401615958565b60206040518083038186803b1580156138a457600080fd5b505afa1580156138b8573d6000803e3d6000fd5b505050506040513d601f19601f820116820180604052506138dc9190810190614e58565b9050826138f86138eb33611d8c565b839063ffffffff612c3216565b10156139165760405162461bcd60e51b8152600401610eae90615bc8565b80156139f6578281101561398f57601c54604051631a4ca37b60e21b81526001600160a01b03909116906369328dec9061395890309085903390600401615a52565b600060405180830381600087803b15801561397257600080fd5b505af1158015613986573d6000803e3d6000fd5b505050506139f6565b601c54604051631a4ca37b60e21b81526001600160a01b03909116906369328dec906139c390309087903390600401615a52565b600060405180830381600087803b1580156139dd57600080fd5b505af11580156139f1573d6000803e3d6000fd5b505050505b610cc7835b600081613a1a5760405162461bcd60e51b8152600401610eae90615c78565b613a2333611d8c565b821115613a57576000198214613a4b5760405162461bcd60e51b8152600401610eae90615c38565b613a5433611d8c565b91505b613a5f6131ca565b6000613a6e611fd76000612cd3565b90506000613a8e670de0b6b3a7640000610cbb868563ffffffff612c5716565b90506000613a9a612bfc565b905081935080841115613abf5760405162461bcd60e51b8152600401610eae90615bd8565b601c546000906001600160a01b031615613b5857601c54604051636822955360e11b81526001600160a01b039091169063d0452aa690613b059030903390600401615958565b60206040518083038186803b158015613b1d57600080fd5b505afa158015613b31573d6000803e3d6000fd5b505050506040513d601f19601f82011682018060405250613b559190810190614e58565b90505b33600090815260136020526040812054613b78908363ffffffff612c3216565b90506000613b8c828963ffffffff6137e116565b9050613b9a338989896147a5565b50613ba7338383896140d6565b505050505050919050565b604051613c0c90859063a9059cbb60e01b90613bd49087908790602401615a37565b60408051601f198184030181529190526020810180516001600160e01b03166001600160e01b03199093169290921790915283613d67565b50505050565b60165460048054604051630d1979fb60e41b8152600093849384936001600160a01b039283169363d1979fb093613c549330936101009004909116910161593d565b60c06040518083038186803b158015613c6c57600080fd5b505afa158015613c80573d6000803e3d6000fd5b505050506040513d601f19601f82011682018060405250613ca49190810190614f8a565b5091965094509250613cd7915068056bc75e2d631000009050610cbb613cca82856137e1565b859063ffffffff612c5716565b9150509091565b60155460009080613cf157600e54610cc7565b610cc781610cbb85670de0b6b3a764000063ffffffff612c5716565b6000808215613d5657600f54426001600160581b03908116911614613d3857613d34613c12565b9150505b6000613d4682610ca3612bfc565b905080841115613d54578093505b505b610cc7836132a083612cd3565b3390565b613d70836148ca565b613d8c5760405162461bcd60e51b8152600401610eae90615b68565b60006060846001600160a01b031684604051613da891906158e9565b6000604051808303816000865af19150503d8060008114613de5576040519150601f19603f3d011682016040523d82523d6000602084013e613dea565b606091505b5091509150818390613e0f5760405162461bcd60e51b8152600401610eae9190615b27565b50805115610eb75780806020019051613e2b9190810190614baf565b8390613e4a5760405162461bcd60e51b8152600401610eae9190615b27565b505050505050565b6000613e5e8383613643565b601c54909150613e7a9084906001600160a01b03168380612d0d565b50601c546040516336305cf160e21b81526001600160a01b039091169063d8c173c490613ead9086908590600401615a37565b600060405180830381600087803b158015613ec757600080fd5b505af1158015613745573d6000803e3d6000fd5b6001600160a01b038116613f015760405162461bcd60e51b8152600401610eae90615b78565b6001546040516001600160a01b038084169216907f8be0079c531659141344cd1fd0a4f28419497f9722a3daafe3b4186f6b6457e090600090a3600180546001600160a01b0319166001600160a01b0392909216919091179055565b600080613f75613f6f85610ca3610efb565b84613823565b600554600654600954600a54600b5494955060009485949392919082881015613f9c578297505b8188111561400f57968190039668056bc75e2d6310000082900380891115613fc2578098505b613fe386610ca368056bc75e2d63100000610cbb878a63ffffffff612c5716565b965061400787610ca383610cbb613ffa878d6137e1565b8e9063ffffffff612c5716565b995050614065565b61403085610ca368056bc75e2d63100000610cbb8c8963ffffffff612c5716565b98509395508593614047848663ffffffff612c3216565b95508689101561405957869850614065565b85891115614065578598505b505050505050505092915050565b600081836140945760405162461bcd60e51b8152600401610eae9190615b27565b5060008385816140a057fe5b0495945050505050565b600081848411156140ce5760405162461bcd60e51b8152600401610eae9190615b27565b505050900390565b60405160009061410c9086907f37aa2b7d583612f016e4a4de4292cb015139b3d7762663d06a53964912ea2fb6906020016158a7565b604051602081830303815290604052805190602001209050600083600014156141385760009250614169565b8415614169576001600160a01b03861660009081526011602052604090205461416690839087908690613787565b90505b90556001600160a01b039093166000908152601160205260409020929092555050565b6000806141a76301e13380610cbb878763ffffffff612c5716565b905060006141c468056bc75e2d631000008363ffffffff6137e116565b90506141e381610cbb8668056bc75e2d6310000063ffffffff612c5716565b9695505050505050565b6017546004546020840151606085015160808601516000946001600160a01b039081169461010090048116939291908a1684141561423d5760405162461bcd60e51b8152600401610eae90615c88565b349550861561429f57614265848a604001518960405180602001604052806000815250613bb2565b8683111561429a5760165460408051602081019091526000815261429a9186916001600160a01b03909116908a870390613bb2565b6142d4565b601654604080518082019091526002815261323760f01b60208201526142d49186916001600160a01b03909116908690613bb2565b80156143d757846001600160a01b03168a6001600160a01b03161480156142fa57508515155b80156143065750808610155b156143a057846001600160a01b031663d0e30db0826040518263ffffffff1660e01b81526004016000604051808303818588803b15801561434657600080fd5b505af115801561435a573d6000803e3d6000fd5b505060165460408051808201909152600481526332382d6160e01b602082015261439694508e93506001600160a01b0390911691508490613bb2565b80860395506143d7565b601654604080518082019091526004815263191c16b160e11b60208201526143d7918c9133916001600160a01b0316908590614903565b811561441257601654604080518082019091526002815261323960f01b602082015261441291869133916001600160a01b0316908690614903565b5050505050949350505050565b6000808261443f5760405162461bcd60e51b8152600401610eae90615c48565b6144476131ca565b614454611fd76000612cd3565b905061447281610cbb85670de0b6b3a764000063ffffffff612c5716565b9150346144ba576144b5600460019054906101000a90046001600160a01b031633308660405180604001604052806002815260200161062760f31b815250614903565b614524565b601760009054906101000a90046001600160a01b03166001600160a01b031663d0e30db0846040518263ffffffff1660e01b81526004016000604051808303818588803b15801561450a57600080fd5b505af115801561451e573d6000803e3d6000fd5b50505050505b915091565b60006001600160a01b0385166145515760405162461bcd60e51b8152600401610eae90615b58565b6001600160a01b03851660009081526013602052604081205461457a908663ffffffff612c3216565b6001600160a01b03871660009081526013602052604090208190556015549091506145ab908663ffffffff612c3216565b6015556040516001600160a01b038716907fb4c03061fb5b7fed76389d5af8f2e0ddb09f8c70d1333abbb62582835e10accb906145ed90889088908890615d26565b60405180910390a2856001600160a01b031660006001600160a01b03167fddf252ad1be2c89b69c2b068fc378daa952ba7f163c4a11628f55a4df523b3ef876040516146399190615aa8565b60405180910390a395945050505050565b600081830381831280159061465f5750838113155b80614674575060008312801561467457508381135b610bce5760405162461bcd60e51b8152600401610eae90615cd8565b60008261469f57506000610dc0565b826000191480156146b35750600160ff1b82145b156146d05760405162461bcd60e51b8152600401610eae90615c98565b828202828482816146dd57fe5b0514610bce5760405162461bcd60e51b8152600401610eae90615c98565b60008161471a5760405162461bcd60e51b8152600401610eae90615d08565b8160001914801561472e5750600160ff1b83145b1561474b5760405162461bcd60e51b8152600401610eae90615c08565b600082848161475657fe5b05949350505050565b60008282018183128015906147745750838112155b80614789575060008312801561478957508381125b610bce5760405162461bcd60e51b8152600401610eae90615ba8565b6040805180820182526002815261189b60f11b6020808301919091526001600160a01b038716600090815260139091529182205482916147ed9190879063ffffffff6140aa16565b9050600a811161480e57614807858263ffffffff612c3216565b9450600090505b6001600160a01b038616600090815260136020526040902081905560155461483c908663ffffffff6137e116565b6015556040516001600160a01b038716907f743033787f4738ff4d6a7225ce2bd0977ee5f86b91a902a58f5e4d0b297b46449061487e90889088908890615d26565b60405180910390a260006001600160a01b0316866001600160a01b03167fddf252ad1be2c89b69c2b068fc378daa952ba7f163c4a11628f55a4df523b3ef876040516146399190615aa8565b6000813f7fc5d2460186f7233c927e7db2dcc703c0e500b653ca82273b7bfad8045d85a47081811480159061104b575050151592915050565b604051610eb79086906323b872dd60e01b90613bd490889088908890602401615973565b60408051608081018252600080825260208201819052918101829052606081019190915290565b6040518061012001604052806000815260200160008152602001600081526020016000815260200160008152602001600081526020016000815260200160008152602001600081525090565b8035610dc081615e6b565b8051610dc081615e6b565b8035610dc081615e7f565b8051610dc081615e7f565b8035610dc081615e88565b60008083601f8401126149e357600080fd5b50813567ffffffffffffffff8111156149fb57600080fd5b602083019150836001820283011115614a1357600080fd5b9250929050565b600082601f830112614a2b57600080fd5b8135614a3e614a3982615d76565b615d4f565b91508082526020830160208301858383011115614a5a57600080fd5b614a65838284615df1565b50505092915050565b8051610dc081615e88565b600060208284031215614a8b57600080fd5b600061104b848461499a565b600060208284031215614aa957600080fd5b600061104b84846149a5565b60008060408385031215614ac857600080fd5b6000614ad4858561499a565b9250506020614ae58582860161499a565b9150509250929050565b600080600060608486031215614b0457600080fd5b6000614b10868661499a565b9350506020614b218682870161499a565b9250506040614b32868287016149c6565b9150509250925092565b60008060408385031215614b4f57600080fd5b6000614b5b858561499a565b9250506020614ae5858286016149c6565b600080600060608486031215614b8157600080fd5b6000614b8d868661499a565b9350506020614b9e868287016149c6565b9250506040614b32868287016149b0565b600060208284031215614bc157600080fd5b600061104b84846149bb565b600080600080600080600080610100898b031215614bea57600080fd5b6000614bf68b8b6149c6565b9850506020614c078b828c016149c6565b9750506040614c188b828c016149c6565b9650506060614c298b828c016149c6565b9550506080614c3a8b828c0161499a565b94505060a0614c4b8b828c0161499a565b93505060c0614c5c8b828c0161499a565b92505060e089013567ffffffffffffffff811115614c7957600080fd5b614c858b828c01614a1a565b9150509295985092959890939650565b6000806000806000806000806000806101208b8d031215614cb557600080fd5b6000614cc18d8d6149c6565b9a50506020614cd28d828e016149c6565b9950506040614ce38d828e016149c6565b9850506060614cf48d828e016149c6565b9750506080614d058d828e0161499a565b96505060a0614d168d828e0161499a565b95505060c0614d278d828e016149c6565b94505060e0614d388d828e0161499a565b9350506101008b013567ffffffffffffffff811115614d5657600080fd5b614d628d828e016149d1565b92509250509295989b9194979a5092959850565b600080600080600080600080610100898b031215614d9357600080fd5b6000614d9f8b8b6149c6565b9850506020614db08b828c016149c6565b9750506040614dc18b828c016149c6565b9650506060614dd28b828c016149c6565b9550506080614de38b828c0161499a565b94505060a0614df48b828c0161499a565b93505060c0614c5c8b828c016149c6565b600060208284031215614e1757600080fd5b813567ffffffffffffffff811115614e2e57600080fd5b61104b84828501614a1a565b600060208284031215614e4c57600080fd5b600061104b84846149c6565b600060208284031215614e6a57600080fd5b600061104b8484614a6e565b600080600060608486031215614e8b57600080fd5b6000614b1086866149c6565b60008060408385031215614eaa57600080fd5b6000614b5b85856149c6565b60008060408385031215614ec957600080fd5b6000614ed58585614a6e565b9250506020614ae585828601614a6e565b600080600060608486031215614efb57600080fd5b6000614f0786866149c6565b9350506020614f18868287016149c6565b9250506040614b328682870161499a565b60008060008060808587031215614f3f57600080fd5b6000614f4b87876149c6565b9450506020614f5c878288016149c6565b9350506040614f6d878288016149c6565b9250506060614f7e8782880161499a565b91505092959194509250565b60008060008060008060c08789031215614fa357600080fd5b6000614faf8989614a6e565b9650506020614fc089828a01614a6e565b9550506040614fd189828a01614a6e565b9450506060614fe289828a01614a6e565b9350506080614ff389828a01614a6e565b92505060a061500489828a01614a6e565b9150509295509295509295565b600061501d83836150db565b505060200190565b61502e81615de0565b82525050565b61502e81615db1565b61502e61504982615db1565b615e29565b600061505982615da4565b6150638185615da8565b935061506e83615d9e565b8060005b8381101561509c5781516150868882615011565b975061509183615d9e565b925050600101615072565b509495945050505050565b61502e81615dbc565b61502e6150bc82615dbc565b615e34565b61502e81610dd8565b61502e6150d682610dd8565b610dd8565b61502e81615dc1565b61502e6150d682615dc1565b60006150fb82615da4565b6151058185615da8565b9350615115818560208601615dfd565b61511e81615e55565b9093019392505050565b600061513382615da4565b61513d8185610ccb565b935061514d818560208601615dfd565b9290920192915050565b6000615164601483615da8565b733932b2b73a3930b731bc903b34b7b630ba34b7b760611b815260200192915050565b6000615194600283615da8565b61031360f41b815260200192915050565b60006151b2600283615da8565b61313560f01b815260200192915050565b60006151d0601e83615da8565b7f63616c6c20746f2061206e6f6e2d636f6e747261637420616464726573730000815260200192915050565b6000615209602683615da8565b7f4f776e61626c653a206e6577206f776e657220697320746865207a65726f206181526564647265737360d01b602082015260400192915050565b6000615251601d83615da8565b7f656e7472792070726963652061626f766520746865206d696e696d756d000000815260200192915050565b600061528a601b83615da8565b7f536166654d6174683a206164646974696f6e206f766572666c6f770000000000815260200192915050565b60006152c3601583610ccb565b746d696e7428616464726573732c75696e743235362960581b815260150192915050565b60006152f4602183615da8565b7f5369676e6564536166654d6174683a206164646974696f6e206f766572666c6f8152607760f81b602082015260400192915050565b6000615337600183615da8565b603760f81b815260200192915050565b6000615354601283615da8565b716e6f7420656e6f7567682062616c616e636560701b815260200192915050565b6000615382600283615da8565b61333760f01b815260200192915050565b60006153a0600283615da8565b610c8d60f21b815260200192915050565b60006153be601a83610ccb565b7f6275726e28616464726573732c75696e743235362c626f6f6c290000000000008152601a0192915050565b60006153f7600283615da8565b61313160f01b815260200192915050565b6000615415602183615da8565b7f5369676e6564536166654d6174683a206469766973696f6e206f766572666c6f8152607760f81b602082015260400192915050565b6000615458600283615da8565b61189960f11b815260200192915050565b6000615476600283615da8565b61323560f01b815260200192915050565b6000615494600283615da8565b61199960f11b815260200192915050565b60006154b2600283615da8565b61313760f01b815260200192915050565b60006154d0602183615da8565b7f536166654d6174683a206d756c7469706c69636174696f6e206f766572666c6f8152607760f81b602082015260400192915050565b6000615513600c83615da8565b6b1d5b985d5d1a1bdc9a5e995960a21b815260200192915050565b600061553b600283615da8565b61313960f01b815260200192915050565b6000615559600283615da8565b61191b60f11b815260200192915050565b6000615577601583610ccb565b746275726e28616464726573732c75696e743235362960581b815260150192915050565b60006155a8602783615da8565b7f5369676e6564536166654d6174683a206d756c7469706c69636174696f6e206f815266766572666c6f7760c81b602082015260400192915050565b60006155f1601383615da8565b721c1c9a5b98da5c185b081d1bdbc81cdb585b1b606a1b815260200192915050565b6000615620601d83615da8565b7f696e76616c6964207261746520636f6c6c61746572616c20746f6b656e000000815260200192915050565b6000615659601a83610ccb565b7f6d696e7428616464726573732c75696e743235362c626f6f6c290000000000008152601a0192915050565b6000615692600c83615da8565b6b1b9bdb9499595b9d1c985b9d60a21b815260200192915050565b60006156ba602483615da8565b7f5369676e6564536166654d6174683a207375627472616374696f6e206f766572815263666c6f7760e01b602082015260400192915050565b6000615700601883615da8565b7f34303120757365206f66206578697374696e67206c6f616e0000000000000000815260200192915050565b6000615739600183615da8565b601b60f91b815260200192915050565b6000615756602083615da8565b7f5369676e6564536166654d6174683a206469766973696f6e206279207a65726f815260200192915050565b805160808301906157938482615034565b5060208201516157a66020850182615034565b5060408201516157b96040850182615034565b506060820151613c0c6060850182615034565b80516101208301906157de84826150c1565b5060208201516157f160208501826150c1565b50604082015161580460408501826150c1565b50606082015161581760608501826150c1565b50608082015161582a60808501826150c1565b5060a082015161583d60a08501826150c1565b5060c082015161585060c08501826150c1565b5060e082015161586360e08501826150c1565b50610100820151613c0c6101008501826150c1565b61502e81615dda565b600061588d828561503d565b60148201915061589d82846150b0565b5060010192915050565b60006158b3828561503d565b6014820191506158c382846150ca565b5060200192915050565b60006158d982856150e4565b6004820191506158c382846150ca565b6000610bce8284615128565b6000610dc0826152b6565b6000610dc0826153b1565b6000610dc08261556a565b6000610dc08261564c565b60208101610dc08284615034565b60208101610dc08284615025565b6040810161594b8285615034565b610bce6020830184615034565b604081016159668285615034565b610bce6020830184615025565b606081016159818286615034565b61598e6020830185615034565b61104b60408301846150c1565b60a081016159a98288615034565b6159b66020830187615034565b6159c360408301866150c1565b6159d060608301856150c1565b6141e360808301846150a7565b60c081016159eb8289615034565b6159f86020830188615034565b615a0560408301876150c1565b615a1260608301866150c1565b615a1f60808301856150c1565b615a2c60a08301846150c1565b979650505050505050565b60408101615a458285615034565b610bce60208301846150c1565b60608101615a608286615034565b615a6d60208301856150c1565b61104b6040830184615025565b60408082528101615a8b818561504e565b9050610bce60208301846150c1565b60208101610dc082846150a7565b60208101610dc082846150c1565b6102408101615ac5828a6150c1565b615ad260208301896150c1565b615adf60408301886150a7565b615aec60608301876150c1565b615af96080830186615782565b615b076101008301856157cc565b818103610220830152615b1a81846150f0565b9998505050505050505050565b60208082528101610bce81846150f0565b60208082528101610dc081615157565b60208082528101610dc081615187565b60208082528101610dc0816151a5565b60208082528101610dc0816151c3565b60208082528101610dc0816151fc565b60208082528101610dc081615244565b60208082528101610dc08161527d565b60208082528101610dc0816152e7565b60208082528101610dc08161532a565b60208082528101610dc081615347565b60208082528101610dc081615375565b60208082528101610dc081615393565b60208082528101610dc0816153ea565b60208082528101610dc081615408565b60208082528101610dc08161544b565b60208082528101610dc081615469565b60208082528101610dc081615487565b60208082528101610dc0816154a5565b60208082528101610dc0816154c3565b60208082528101610dc081615506565b60208082528101610dc08161552e565b60208082528101610dc08161554c565b60208082528101610dc08161559b565b60208082528101610dc0816155e4565b60208082528101610dc081615613565b60208082528101610dc081615685565b60208082528101610dc0816156ad565b60208082528101610dc0816156f3565b60208082528101610dc08161572c565b60208082528101610dc081615749565b60408101615a4582856150c1565b60608101615d3482866150c1565b61598e60208301856150c1565b60208101610dc08284615878565b60405181810167ffffffffffffffff81118282101715615d6e57600080fd5b604052919050565b600067ffffffffffffffff821115615d8d57600080fd5b506020601f91909101601f19160190565b60200190565b5190565b90815260200190565b6000610dc082615dce565b151590565b6001600160e01b03191690565b6001600160a01b031690565b60ff1690565b6000610dc0826000610dc082615db1565b82818337506000910152565b60005b83811015615e18578181015183820152602001615e00565b83811115613c0c5750506000910152565b6000610dc082615e3f565b6000610dc082615e4a565b6000610dc082615e65565b6000610dc082615e5f565b601f01601f191690565b60f81b90565b60601b90565b615e7481615db1565b8114612a9257600080fd5b615e7481615dbc565b615e7481610dd856fea365627a7a7231582058d8e74dcd56b2268dc54d0c51ac274c4b1095a6a5df7f9ba2e0f398557929266c6578706572696d656e74616cf564736f6c63430005110040",
    "linkReferences": {}
  },
  "methodIdentifiers": {
    "TINY_AMOUNT()": "f8dd4f0e",
    "VERSION()": "ffa1ad74",
    "admin()": "f851a440",
    "allowance(address,address)": "dd62ed3e",
    "approve(address,uint256)": "095ea7b3",
    "assetBalanceOf(address)": "06b3efd6",
    "avgBorrowInterestRate()": "44a4a003",
    "balanceOf(address)": "70a08231",
    "baseRate()": "1f68f20a",
    "borrow(bytes32,uint256,uint256,uint256,address,address,address,bytes)": "2ea295fa",
    "borrowInterestRate()": "8325a1c0",
    "burn(address,uint256)": "9dc29fac",
    "burn(address,uint256,bool)": "76fd4fdf",
    "calculateSupplyInterestRate(uint256,uint256)": "6d23d1ac",
    "checkPriceDivergence(uint256,address,uint256)": "10e57644",
    "checkpointPrice(address)": "eebc5081",
    "checkpointSupply()": "7b7933b4",
    "decimals()": "313ce567",
    "earlyAccessToken()": "ca37e666",
    "getBorrowAmountForDeposit(uint256,uint256,address)": "04797930",
    "getDepositAmountForBorrow(uint256,uint256,address)": "631a3ef8",
    "getEstimatedMarginDetails(uint256,uint256,uint256,address)": "6b40cd40",
    "getListFunctionSignatures()": "90967de5",
    "getMaxEscrowAmount(uint256)": "829b38f4",
    "initialPrice()": "1d0806ae",
    "isOwner()": "8f32d59b",
    "kinkLevel()": "56e07d70",
    "liquidityMiningAddress()": "8ee6c4e6",
    "loanParamsIds(uint256)": "3291c11a",
    "loanTokenAddress()": "797bf385",
    "lowUtilBaseRate()": "d759dbeb",
    "lowUtilRateMultiplier()": "7e37c08c",
    "marginTrade(bytes32,uint256,uint256,uint256,address,address,uint256,bytes)": "28a02f19",
    "marginTradeAffiliate(bytes32,uint256,uint256,uint256,address,address,uint256,address,bytes)": "f6b69f99",
    "marketLiquidity()": "612ef80b",
    "maxScaleRate()": "ef2b0b39",
    "mint(address,uint256)": "40c10f19",
    "mint(address,uint256,bool)": "d1a1beb4",
    "name()": "06fdde03",
    "nextBorrowInterestRate(uint256)": "b9fe1a8f",
    "nextSupplyInterestRate(uint256)": "d65a5021",
    "owner()": "8da5cb5b",
    "pauser()": "9fd0506d",
    "profitOf(address)": "54198ce9",
    "rateMultiplier()": "330691ac",
    "sovrynContractAddress()": "06947a3a",
    "stringToBytes32(string)": "cfb51928",
    "supplyInterestRate()": "09ec6b6b",
    "symbol()": "95d89b41",
    "targetLevel()": "ba0e43bf",
    "target_()": "9bda3a98",
    "tokenPrice()": "7ff9b596",
    "totalAssetBorrow()": "20f6d07c",
    "totalAssetSupply()": "8fb807c5",
    "totalSupply()": "18160ddd",
    "totalSupplyInterestRate(uint256)": "12416898",
    "transactionLimit(address)": "e41b07e3",
    "transfer(address,uint256)": "a9059cbb",
    "transferFrom(address,address,uint256)": "23b872dd",
    "transferOwnership(address)": "f2fde38b",
    "wrbtcTokenAddress()": "2f6b600d"
  },
  "id": 137
}