{
  "abi": [
    {
      "anonymous": false,
      "inputs": [
        {
          "indexed": false,
          "internalType": "address",
          "name": "admin",
          "type": "address"
        }
      ],
      "name": "AdminAdded",
      "type": "event"
    },
    {
      "anonymous": false,
      "inputs": [
        {
          "indexed": false,
          "internalType": "address",
          "name": "admin",
          "type": "address"
        }
      ],
      "name": "AdminRemoved",
      "type": "event"
    },
    {
      "anonymous": false,
      "inputs": [
        {
          "indexed": false,
          "internalType": "bytes32",
          "name": "hash",
          "type": "bytes32"
        }
      ],
      "name": "ContractCodeHashAdded",
      "type": "event"
    },
    {
      "anonymous": false,
      "inputs": [
        {
          "indexed": false,
          "internalType": "bytes32",
          "name": "hash",
          "type": "bytes32"
        }
      ],
      "name": "ContractCodeHashRemoved",
      "type": "event"
    },
    {
      "anonymous": false,
      "inputs": [
        {
          "indexed": true,
          "internalType": "address",
          "name": "delegator",
          "type": "address"
        },
        {
          "indexed": false,
          "internalType": "uint256",
          "name": "lockedUntil",
          "type": "uint256"
        },
        {
          "indexed": true,
          "internalType": "address",
          "name": "fromDelegate",
          "type": "address"
        },
        {
          "indexed": true,
          "internalType": "address",
          "name": "toDelegate",
          "type": "address"
        }
      ],
      "name": "DelegateChanged",
      "type": "event"
    },
    {
      "anonymous": false,
      "inputs": [
        {
          "indexed": true,
          "internalType": "address",
          "name": "delegate",
          "type": "address"
        },
        {
          "indexed": false,
          "internalType": "uint256",
          "name": "lockedUntil",
          "type": "uint256"
        },
        {
          "indexed": false,
          "internalType": "uint256",
          "name": "previousBalance",
          "type": "uint256"
        },
        {
          "indexed": false,
          "internalType": "uint256",
          "name": "newBalance",
          "type": "uint256"
        }
      ],
      "name": "DelegateStakeChanged",
      "type": "event"
    },
    {
      "anonymous": false,
      "inputs": [
        {
          "indexed": true,
          "internalType": "address",
          "name": "staker",
          "type": "address"
        },
        {
          "indexed": false,
          "internalType": "uint256",
          "name": "previousDate",
          "type": "uint256"
        },
        {
          "indexed": false,
          "internalType": "uint256",
          "name": "newDate",
          "type": "uint256"
        },
        {
          "indexed": false,
          "internalType": "uint256",
          "name": "amountStaked",
          "type": "uint256"
        }
      ],
      "name": "ExtendedStakingDuration",
      "type": "event"
    },
    {
      "anonymous": false,
      "inputs": [
        {
          "indexed": true,
          "internalType": "address",
          "name": "previousOwner",
          "type": "address"
        },
        {
          "indexed": true,
          "internalType": "address",
          "name": "newOwner",
          "type": "address"
        }
      ],
      "name": "OwnershipTransferred",
      "type": "event"
    },
    {
      "anonymous": false,
      "inputs": [
        {
          "indexed": true,
          "internalType": "address",
          "name": "pauser",
          "type": "address"
        },
        {
          "indexed": true,
          "internalType": "bool",
          "name": "added",
          "type": "bool"
        }
      ],
      "name": "PauserAddedOrRemoved",
      "type": "event"
    },
    {
      "anonymous": false,
      "inputs": [
        {
          "indexed": true,
          "internalType": "bool",
          "name": "setFrozen",
          "type": "bool"
        }
      ],
      "name": "StakingFrozen",
      "type": "event"
    },
    {
      "anonymous": false,
      "inputs": [
        {
          "indexed": true,
          "internalType": "bool",
          "name": "setPaused",
          "type": "bool"
        }
      ],
      "name": "StakingPaused",
      "type": "event"
    },
    {
      "anonymous": false,
      "inputs": [
        {
          "indexed": true,
          "internalType": "address",
          "name": "staker",
          "type": "address"
        },
        {
          "indexed": false,
          "internalType": "uint256",
          "name": "amount",
          "type": "uint256"
        },
        {
          "indexed": false,
          "internalType": "uint256",
          "name": "until",
          "type": "uint256"
        },
        {
          "indexed": true,
          "internalType": "address",
          "name": "receiver",
          "type": "address"
        },
        {
          "indexed": false,
          "internalType": "bool",
          "name": "isGovernance",
          "type": "bool"
        }
      ],
      "name": "StakingWithdrawn",
      "type": "event"
    },
    {
      "anonymous": false,
      "inputs": [
        {
          "indexed": true,
          "internalType": "address",
          "name": "caller",
          "type": "address"
        },
        {
          "indexed": false,
          "internalType": "address",
          "name": "receiver",
          "type": "address"
        }
      ],
      "name": "TeamVestingCancelled",
      "type": "event"
    },
    {
      "anonymous": false,
      "inputs": [
        {
          "indexed": true,
          "internalType": "address",
          "name": "caller",
          "type": "address"
        },
        {
          "indexed": false,
          "internalType": "address",
          "name": "receiver",
          "type": "address"
        },
        {
          "indexed": false,
          "internalType": "uint256",
          "name": "lastProcessedDate",
          "type": "uint256"
        }
      ],
      "name": "TeamVestingPartiallyCancelled",
      "type": "event"
    },
    {
      "anonymous": false,
      "inputs": [
        {
          "indexed": true,
          "internalType": "address",
          "name": "staker",
          "type": "address"
        },
        {
          "indexed": false,
          "internalType": "uint256",
          "name": "amount",
          "type": "uint256"
        },
        {
          "indexed": false,
          "internalType": "uint256",
          "name": "lockedUntil",
          "type": "uint256"
        },
        {
          "indexed": false,
          "internalType": "uint256",
          "name": "totalStaked",
          "type": "uint256"
        }
      ],
      "name": "TokensStaked",
      "type": "event"
    },
    {
      "anonymous": false,
      "inputs": [
        {
          "indexed": false,
          "internalType": "uint256",
          "name": "amount",
          "type": "uint256"
        }
      ],
      "name": "TokensUnlocked",
      "type": "event"
    },
    {
      "anonymous": false,
      "inputs": [
        {
          "indexed": false,
          "internalType": "uint256",
          "name": "lockedTS",
          "type": "uint256"
        },
        {
          "indexed": false,
          "internalType": "uint96",
          "name": "value",
          "type": "uint96"
        }
      ],
      "name": "VestingStakeSet",
      "type": "event"
    },
    {
      "anonymous": false,
      "inputs": [
        {
          "indexed": false,
          "internalType": "address",
          "name": "vesting",
          "type": "address"
        },
        {
          "indexed": false,
          "internalType": "address",
          "name": "receiver",
          "type": "address"
        }
      ],
      "name": "VestingTokensWithdrawn",
      "type": "event"
    },
    {
      "constant": true,
      "inputs": [],
      "name": "DELEGATION_TYPEHASH",
      "outputs": [
        {
          "internalType": "bytes32",
          "name": "",
          "type": "bytes32"
        }
      ],
      "payable": false,
      "stateMutability": "view",
      "type": "function"
    },
    {
      "constant": true,
      "inputs": [],
      "name": "DOMAIN_TYPEHASH",
      "outputs": [
        {
          "internalType": "bytes32",
          "name": "",
          "type": "bytes32"
        }
      ],
      "payable": false,
      "stateMutability": "view",
      "type": "function"
    },
    {
      "constant": true,
      "inputs": [],
      "name": "MAX_DURATION",
      "outputs": [
        {
          "internalType": "uint256",
          "name": "",
          "type": "uint256"
        }
      ],
      "payable": false,
      "stateMutability": "view",
      "type": "function"
    },
    {
      "constant": true,
      "inputs": [],
      "name": "MAX_VOTING_WEIGHT",
      "outputs": [
        {
          "internalType": "uint96",
          "name": "",
          "type": "uint96"
        }
      ],
      "payable": false,
      "stateMutability": "view",
      "type": "function"
    },
    {
      "constant": false,
      "inputs": [
        {
          "internalType": "uint96",
          "name": "_priorTotalVotingPower",
          "type": "uint96"
        }
      ],
      "name": "MOCK_priorTotalVotingPower",
      "outputs": [],
      "payable": false,
      "stateMutability": "nonpayable",
      "type": "function"
    },
    {
      "constant": false,
      "inputs": [
        {
          "internalType": "uint96",
          "name": "_priorWeightedStake",
          "type": "uint96"
        }
      ],
      "name": "MOCK_priorWeightedStake",
      "outputs": [],
      "payable": false,
      "stateMutability": "nonpayable",
      "type": "function"
    },
    {
      "constant": false,
      "inputs": [
        {
          "internalType": "uint96",
          "name": "_priorWeightedStake",
          "type": "uint96"
        },
        {
          "internalType": "uint256",
          "name": "_block",
          "type": "uint256"
        }
      ],
      "name": "MOCK_priorWeightedStakeAtBlock",
      "outputs": [],
      "payable": false,
      "stateMutability": "nonpayable",
      "type": "function"
    },
    {
      "constant": true,
      "inputs": [],
      "name": "SOVToken",
      "outputs": [
        {
          "internalType": "contract IERC20",
          "name": "",
          "type": "address"
        }
      ],
      "payable": false,
      "stateMutability": "view",
      "type": "function"
    },
    {
      "constant": true,
      "inputs": [],
      "name": "WEIGHT_FACTOR",
      "outputs": [
        {
          "internalType": "uint96",
          "name": "",
          "type": "uint96"
        }
      ],
      "payable": false,
      "stateMutability": "view",
      "type": "function"
    },
    {
      "constant": false,
      "inputs": [
        {
          "internalType": "address",
          "name": "vesting",
          "type": "address"
        }
      ],
      "name": "addContractCodeHash",
      "outputs": [],
      "payable": false,
      "stateMutability": "nonpayable",
      "type": "function"
    },
    {
      "constant": true,
      "inputs": [
        {
          "internalType": "address",
          "name": "",
          "type": "address"
        }
      ],
      "name": "admins",
      "outputs": [
        {
          "internalType": "bool",
          "name": "",
          "type": "bool"
        }
      ],
      "payable": false,
      "stateMutability": "view",
      "type": "function"
    },
    {
      "constant": true,
      "inputs": [],
      "name": "allUnlocked",
      "outputs": [
        {
          "internalType": "bool",
          "name": "",
          "type": "bool"
        }
      ],
      "payable": false,
      "stateMutability": "view",
      "type": "function"
    },
    {
      "constant": true,
      "inputs": [
        {
          "internalType": "address",
          "name": "account",
          "type": "address"
        }
      ],
      "name": "balanceOf",
      "outputs": [
        {
          "internalType": "uint96",
          "name": "balance",
          "type": "uint96"
        }
      ],
      "payable": false,
      "stateMutability": "view",
      "type": "function"
    },
    {
      "constant": true,
      "inputs": [
        {
          "internalType": "address",
          "name": "account",
          "type": "address"
        }
      ],
      "name": "balanceOf_MultipliedByTwo",
      "outputs": [
        {
          "internalType": "uint256",
          "name": "",
          "type": "uint256"
        }
      ],
      "payable": false,
      "stateMutability": "view",
      "type": "function"
    },
    {
      "constant": true,
      "inputs": [],
      "name": "blockMockUp",
      "outputs": [
        {
          "internalType": "contract BlockMockUp",
          "name": "",
          "type": "address"
        }
      ],
      "payable": false,
      "stateMutability": "view",
      "type": "function"
    },
    {
      "constant": false,
      "inputs": [
        {
          "internalType": "address",
          "name": "account",
          "type": "address"
        },
        {
          "internalType": "uint256",
          "name": "blockNumber",
          "type": "uint256"
        },
        {
          "internalType": "uint256",
          "name": "date",
          "type": "uint256"
        }
      ],
      "name": "calculatePriorWeightedStake",
      "outputs": [],
      "payable": false,
      "stateMutability": "nonpayable",
      "type": "function"
    },
    {
      "constant": true,
      "inputs": [
        {
          "internalType": "uint256",
          "name": "date",
          "type": "uint256"
        },
        {
          "internalType": "uint256",
          "name": "startDate",
          "type": "uint256"
        }
      ],
      "name": "computeWeightByDate",
      "outputs": [
        {
          "internalType": "uint96",
          "name": "weight",
          "type": "uint96"
        }
      ],
      "payable": false,
      "stateMutability": "pure",
      "type": "function"
    },
    {
      "constant": false,
      "inputs": [
        {
          "internalType": "address",
          "name": "delegatee",
          "type": "address"
        },
        {
          "internalType": "uint256",
          "name": "lockDate",
          "type": "uint256"
        }
      ],
      "name": "delegate",
      "outputs": [],
      "payable": false,
      "stateMutability": "nonpayable",
      "type": "function"
    },
    {
      "constant": true,
      "inputs": [
        {
          "internalType": "address",
          "name": "",
          "type": "address"
        },
        {
          "internalType": "uint256",
          "name": "",
          "type": "uint256"
        },
        {
          "internalType": "uint32",
          "name": "",
          "type": "uint32"
        }
      ],
      "name": "delegateStakingCheckpoints",
      "outputs": [
        {
          "internalType": "uint32",
          "name": "fromBlock",
          "type": "uint32"
        },
        {
          "internalType": "uint96",
          "name": "stake",
          "type": "uint96"
        }
      ],
      "payable": false,
      "stateMutability": "view",
      "type": "function"
    },
    {
      "constant": true,
      "inputs": [
        {
          "internalType": "address",
          "name": "",
          "type": "address"
        },
        {
          "internalType": "uint256",
          "name": "",
          "type": "uint256"
        }
      ],
      "name": "delegates",
      "outputs": [
        {
          "internalType": "address",
          "name": "",
          "type": "address"
        }
      ],
      "payable": false,
      "stateMutability": "view",
      "type": "function"
    },
    {
      "constant": false,
      "inputs": [
        {
          "internalType": "uint256",
          "name": "previousLock",
          "type": "uint256"
        },
        {
          "internalType": "uint256",
          "name": "until",
          "type": "uint256"
        }
      ],
      "name": "extendStakingDuration",
      "outputs": [],
      "payable": false,
      "stateMutability": "nonpayable",
      "type": "function"
    },
    {
      "constant": true,
      "inputs": [],
      "name": "feeSharing",
      "outputs": [
        {
          "internalType": "contract IFeeSharingCollector",
          "name": "",
          "type": "address"
        }
      ],
      "payable": false,
      "stateMutability": "view",
      "type": "function"
    },
    {
      "constant": true,
      "inputs": [],
      "name": "frozen",
      "outputs": [
        {
          "internalType": "bool",
          "name": "",
          "type": "bool"
        }
      ],
      "payable": false,
      "stateMutability": "view",
      "type": "function"
    },
    {
      "constant": true,
      "inputs": [
        {
          "internalType": "uint256",
          "name": "lockedTS",
          "type": "uint256"
        }
      ],
      "name": "getCurrentStakedUntil",
      "outputs": [
        {
          "internalType": "uint96",
          "name": "",
          "type": "uint96"
        }
      ],
      "payable": false,
      "stateMutability": "view",
      "type": "function"
    },
    {
      "constant": true,
      "inputs": [
        {
          "internalType": "address",
          "name": "account",
          "type": "address"
        }
      ],
      "name": "getCurrentVotes",
      "outputs": [
        {
          "internalType": "uint96",
          "name": "",
          "type": "uint96"
        }
      ],
      "payable": false,
      "stateMutability": "view",
      "type": "function"
    },
    {
      "constant": true,
      "inputs": [],
      "name": "getFunctionsList",
      "outputs": [
        {
          "internalType": "bytes4[]",
          "name": "",
          "type": "bytes4[]"
        }
      ],
      "payable": false,
      "stateMutability": "pure",
      "type": "function"
    },
    {
      "constant": true,
      "inputs": [
        {
          "internalType": "address",
          "name": "account",
          "type": "address"
        },
        {
          "internalType": "uint256",
          "name": "date",
          "type": "uint256"
        },
        {
          "internalType": "uint256",
          "name": "blockNumber",
          "type": "uint256"
        }
      ],
      "name": "getPriorStakeByDateForDelegatee",
      "outputs": [
        {
          "internalType": "uint96",
          "name": "",
          "type": "uint96"
        }
      ],
      "payable": false,
      "stateMutability": "view",
      "type": "function"
    },
    {
      "constant": true,
      "inputs": [
        {
          "internalType": "uint256",
          "name": "date",
          "type": "uint256"
        },
        {
          "internalType": "uint256",
          "name": "blockNumber",
          "type": "uint256"
        }
      ],
      "name": "getPriorTotalStakesForDate",
      "outputs": [
        {
          "internalType": "uint96",
          "name": "",
          "type": "uint96"
        }
      ],
      "payable": false,
      "stateMutability": "view",
      "type": "function"
    },
    {
      "constant": true,
      "inputs": [
        {
          "internalType": "uint32",
          "name": "blockNumber",
          "type": "uint32"
        },
        {
          "internalType": "uint256",
          "name": "time",
          "type": "uint256"
        }
      ],
      "name": "getPriorTotalVotingPower",
      "outputs": [
        {
          "internalType": "uint96",
          "name": "totalVotingPower",
          "type": "uint96"
        }
      ],
      "payable": false,
      "stateMutability": "view",
      "type": "function"
    },
    {
      "constant": true,
      "inputs": [
        {
          "internalType": "address",
          "name": "account",
          "type": "address"
        },
        {
          "internalType": "uint256",
          "name": "date",
          "type": "uint256"
        },
        {
          "internalType": "uint256",
          "name": "blockNumber",
          "type": "uint256"
        }
      ],
      "name": "getPriorUserStakeByDate",
      "outputs": [
        {
          "internalType": "uint96",
          "name": "",
          "type": "uint96"
        }
      ],
      "payable": false,
      "stateMutability": "view",
      "type": "function"
    },
    {
      "constant": true,
      "inputs": [
        {
          "internalType": "uint256",
          "name": "date",
          "type": "uint256"
        },
        {
          "internalType": "uint256",
          "name": "blockNumber",
          "type": "uint256"
        }
      ],
      "name": "getPriorVestingStakeByDate",
      "outputs": [
        {
          "internalType": "uint96",
          "name": "",
          "type": "uint96"
        }
      ],
      "payable": false,
      "stateMutability": "view",
      "type": "function"
    },
    {
      "constant": true,
      "inputs": [
        {
          "internalType": "uint256",
          "name": "blockNumber",
          "type": "uint256"
        },
        {
          "internalType": "uint256",
          "name": "date",
          "type": "uint256"
        }
      ],
      "name": "getPriorVestingWeightedStake",
      "outputs": [
        {
          "internalType": "uint96",
          "name": "votes",
          "type": "uint96"
        }
      ],
      "payable": false,
      "stateMutability": "view",
      "type": "function"
    },
    {
      "constant": true,
      "inputs": [
        {
          "internalType": "address",
          "name": "account",
          "type": "address"
        },
        {
          "internalType": "uint256",
          "name": "blockNumber",
          "type": "uint256"
        },
        {
          "internalType": "uint256",
          "name": "date",
          "type": "uint256"
        }
      ],
      "name": "getPriorVotes",
      "outputs": [
        {
          "internalType": "uint96",
          "name": "votes",
          "type": "uint96"
        }
      ],
      "payable": false,
      "stateMutability": "view",
      "type": "function"
    },
    {
      "constant": true,
      "inputs": [
        {
          "internalType": "address",
          "name": "account",
          "type": "address"
        },
        {
          "internalType": "uint256",
          "name": "blockNumber",
          "type": "uint256"
        },
        {
          "internalType": "uint256",
          "name": "date",
          "type": "uint256"
        }
      ],
      "name": "getPriorWeightedStake",
      "outputs": [
        {
          "internalType": "uint96",
          "name": "",
          "type": "uint96"
        }
      ],
      "payable": false,
      "stateMutability": "view",
      "type": "function"
    },
    {
      "constant": true,
      "inputs": [
        {
          "internalType": "uint256",
          "name": "blockNum",
          "type": "uint256"
        }
      ],
      "name": "getPriorWeightedStakeAtBlock",
      "outputs": [
        {
          "internalType": "uint256",
          "name": "",
          "type": "uint256"
        }
      ],
      "payable": false,
      "stateMutability": "view",
      "type": "function"
    },
    {
      "constant": true,
      "inputs": [
        {
          "internalType": "address",
          "name": "account",
          "type": "address"
        }
      ],
      "name": "getStakes",
      "outputs": [
        {
          "internalType": "uint256[]",
          "name": "dates",
          "type": "uint256[]"
        },
        {
          "internalType": "uint96[]",
          "name": "stakes",
          "type": "uint96[]"
        }
      ],
      "payable": false,
      "stateMutability": "view",
      "type": "function"
    },
    {
      "constant": true,
      "inputs": [],
      "name": "isOwner",
      "outputs": [
        {
          "internalType": "bool",
          "name": "",
          "type": "bool"
        }
      ],
      "payable": false,
      "stateMutability": "view",
      "type": "function"
    },
    {
      "constant": true,
      "inputs": [
        {
          "internalType": "address",
          "name": "stakerAddress",
          "type": "address"
        }
      ],
      "name": "isVestingContract",
      "outputs": [
        {
          "internalType": "bool",
          "name": "",
          "type": "bool"
        }
      ],
      "payable": false,
      "stateMutability": "view",
      "type": "function"
    },
    {
      "constant": true,
      "inputs": [],
      "name": "kickoffTS",
      "outputs": [
        {
          "internalType": "uint256",
          "name": "",
          "type": "uint256"
        }
      ],
      "payable": false,
      "stateMutability": "view",
      "type": "function"
    },
    {
      "constant": true,
      "inputs": [],
      "name": "newStakingContract",
      "outputs": [
        {
          "internalType": "address",
          "name": "",
          "type": "address"
        }
      ],
      "payable": false,
      "stateMutability": "view",
      "type": "function"
    },
    {
      "constant": true,
      "inputs": [
        {
          "internalType": "address",
          "name": "",
          "type": "address"
        }
      ],
      "name": "nonces",
      "outputs": [
        {
          "internalType": "uint256",
          "name": "",
          "type": "uint256"
        }
      ],
      "payable": false,
      "stateMutability": "view",
      "type": "function"
    },
    {
      "constant": true,
      "inputs": [
        {
          "internalType": "address",
          "name": "",
          "type": "address"
        },
        {
          "internalType": "uint256",
          "name": "",
          "type": "uint256"
        }
      ],
      "name": "numDelegateStakingCheckpoints",
      "outputs": [
        {
          "internalType": "uint32",
          "name": "",
          "type": "uint32"
        }
      ],
      "payable": false,
      "stateMutability": "view",
      "type": "function"
    },
    {
      "constant": true,
      "inputs": [
        {
          "internalType": "uint256",
          "name": "",
          "type": "uint256"
        }
      ],
      "name": "numTotalStakingCheckpoints",
      "outputs": [
        {
          "internalType": "uint32",
          "name": "",
          "type": "uint32"
        }
      ],
      "payable": false,
      "stateMutability": "view",
      "type": "function"
    },
    {
      "constant": true,
      "inputs": [
        {
          "internalType": "address",
          "name": "",
          "type": "address"
        },
        {
          "internalType": "uint256",
          "name": "",
          "type": "uint256"
        }
      ],
      "name": "numUserStakingCheckpoints",
      "outputs": [
        {
          "internalType": "uint32",
          "name": "",
          "type": "uint32"
        }
      ],
      "payable": false,
      "stateMutability": "view",
      "type": "function"
    },
    {
      "constant": true,
      "inputs": [
        {
          "internalType": "uint256",
          "name": "",
          "type": "uint256"
        }
      ],
      "name": "numVestingCheckpoints",
      "outputs": [
        {
          "internalType": "uint32",
          "name": "",
          "type": "uint32"
        }
      ],
      "payable": false,
      "stateMutability": "view",
      "type": "function"
    },
    {
      "constant": true,
      "inputs": [],
      "name": "owner",
      "outputs": [
        {
          "internalType": "address",
          "name": "",
          "type": "address"
        }
      ],
      "payable": false,
      "stateMutability": "view",
      "type": "function"
    },
    {
      "constant": true,
      "inputs": [],
      "name": "paused",
      "outputs": [
        {
          "internalType": "bool",
          "name": "",
          "type": "bool"
        }
      ],
      "payable": false,
      "stateMutability": "view",
      "type": "function"
    },
    {
      "constant": true,
      "inputs": [
        {
          "internalType": "address",
          "name": "",
          "type": "address"
        }
      ],
      "name": "pausers",
      "outputs": [
        {
          "internalType": "bool",
          "name": "",
          "type": "bool"
        }
      ],
      "payable": false,
      "stateMutability": "view",
      "type": "function"
    },
    {
      "constant": true,
      "inputs": [],
      "name": "priorWeightedStake",
      "outputs": [
        {
          "internalType": "uint96",
          "name": "",
          "type": "uint96"
        }
      ],
      "payable": false,
      "stateMutability": "view",
      "type": "function"
    },
    {
      "constant": true,
      "inputs": [
        {
          "internalType": "uint256",
          "name": "",
          "type": "uint256"
        }
      ],
      "name": "priorWeightedStakeAtBlock",
      "outputs": [
        {
          "internalType": "uint96",
          "name": "",
          "type": "uint96"
        }
      ],
      "payable": false,
      "stateMutability": "view",
      "type": "function"
    },
    {
      "constant": false,
      "inputs": [
        {
          "internalType": "address",
          "name": "_sender",
          "type": "address"
        },
        {
          "internalType": "uint256",
          "name": "_amount",
          "type": "uint256"
        },
        {
          "internalType": "address",
          "name": "_token",
          "type": "address"
        },
        {
          "internalType": "bytes",
          "name": "_data",
          "type": "bytes"
        }
      ],
      "name": "receiveApproval",
      "outputs": [],
      "payable": false,
      "stateMutability": "nonpayable",
      "type": "function"
    },
    {
      "constant": false,
      "inputs": [
        {
          "internalType": "address",
          "name": "vesting",
          "type": "address"
        }
      ],
      "name": "removeContractCodeHash",
      "outputs": [],
      "payable": false,
      "stateMutability": "nonpayable",
      "type": "function"
    },
    {
      "constant": false,
      "inputs": [
        {
          "internalType": "address",
          "name": "_blockMockUp",
          "type": "address"
        }
      ],
      "name": "setBlockMockUpAddr",
      "outputs": [],
      "payable": false,
      "stateMutability": "nonpayable",
      "type": "function"
    },
    {
      "constant": false,
      "inputs": [
        {
          "internalType": "address",
          "name": "delegatee",
          "type": "address"
        },
        {
          "internalType": "uint256",
          "name": "lockedTS",
          "type": "uint256"
        },
        {
          "internalType": "uint96",
          "name": "value",
          "type": "uint96"
        }
      ],
      "name": "setDelegateStake",
      "outputs": [],
      "payable": false,
      "stateMutability": "nonpayable",
      "type": "function"
    },
    {
      "constant": false,
      "inputs": [
        {
          "internalType": "address",
          "name": "_vestingRegistryProxy",
          "type": "address"
        }
      ],
      "name": "setVestingRegistry",
      "outputs": [],
      "payable": false,
      "stateMutability": "nonpayable",
      "type": "function"
    },
    {
      "constant": false,
      "inputs": [
        {
          "internalType": "uint256[]",
          "name": "lockedDates",
          "type": "uint256[]"
        },
        {
          "internalType": "uint96[]",
          "name": "values",
          "type": "uint96[]"
        }
      ],
      "name": "setVestingStakes",
      "outputs": [],
      "payable": false,
      "stateMutability": "nonpayable",
      "type": "function"
    },
    {
      "constant": false,
      "inputs": [
        {
          "internalType": "uint96",
          "name": "amount",
          "type": "uint96"
        },
        {
          "internalType": "uint256",
          "name": "until",
          "type": "uint256"
        },
        {
          "internalType": "address",
          "name": "stakeFor",
          "type": "address"
        },
        {
          "internalType": "address",
          "name": "delegatee",
          "type": "address"
        }
      ],
      "name": "stake",
      "outputs": [],
      "payable": false,
      "stateMutability": "nonpayable",
      "type": "function"
    },
    {
      "constant": false,
      "inputs": [
        {
          "internalType": "uint256",
          "name": "amount",
          "type": "uint256"
        },
        {
          "internalType": "uint256",
          "name": "cliff",
          "type": "uint256"
        },
        {
          "internalType": "uint256",
          "name": "duration",
          "type": "uint256"
        },
        {
          "internalType": "uint256",
          "name": "intervalLength",
          "type": "uint256"
        },
        {
          "internalType": "address",
          "name": "stakeFor",
          "type": "address"
        },
        {
          "internalType": "address",
          "name": "delegatee",
          "type": "address"
        }
      ],
      "name": "stakeBySchedule",
      "outputs": [],
      "payable": false,
      "stateMutability": "nonpayable",
      "type": "function"
    },
    {
      "constant": false,
      "inputs": [
        {
          "internalType": "address",
          "name": "sender",
          "type": "address"
        },
        {
          "internalType": "uint96",
          "name": "amount",
          "type": "uint96"
        },
        {
          "internalType": "uint256",
          "name": "until",
          "type": "uint256"
        },
        {
          "internalType": "address",
          "name": "stakeFor",
          "type": "address"
        },
        {
          "internalType": "address",
          "name": "delegatee",
          "type": "address"
        }
      ],
      "name": "stakeWithApproval",
      "outputs": [],
      "payable": false,
      "stateMutability": "nonpayable",
      "type": "function"
    },
    {
      "constant": false,
      "inputs": [
        {
          "internalType": "uint256",
          "name": "amount",
          "type": "uint256"
        },
        {
          "internalType": "uint256",
          "name": "cliff",
          "type": "uint256"
        },
        {
          "internalType": "uint256",
          "name": "duration",
          "type": "uint256"
        },
        {
          "internalType": "uint256",
          "name": "intervalLength",
          "type": "uint256"
        },
        {
          "internalType": "address",
          "name": "stakeFor",
          "type": "address"
        },
        {
          "internalType": "address",
          "name": "delegatee",
          "type": "address"
        }
      ],
      "name": "stakesBySchedule",
      "outputs": [],
      "payable": false,
      "stateMutability": "nonpayable",
      "type": "function"
    },
    {
      "constant": true,
      "inputs": [
        {
          "internalType": "uint256",
          "name": "timestamp",
          "type": "uint256"
        }
      ],
      "name": "timestampToLockDate",
      "outputs": [
        {
          "internalType": "uint256",
          "name": "",
          "type": "uint256"
        }
      ],
      "payable": false,
      "stateMutability": "view",
      "type": "function"
    },
    {
      "constant": true,
      "inputs": [
        {
          "internalType": "uint256",
          "name": "",
          "type": "uint256"
        },
        {
          "internalType": "uint32",
          "name": "",
          "type": "uint32"
        }
      ],
      "name": "totalStakingCheckpoints",
      "outputs": [
        {
          "internalType": "uint32",
          "name": "fromBlock",
          "type": "uint32"
        },
        {
          "internalType": "uint96",
          "name": "stake",
          "type": "uint96"
        }
      ],
      "payable": false,
      "stateMutability": "view",
      "type": "function"
    },
    {
      "constant": false,
      "inputs": [
        {
          "internalType": "address",
          "name": "newOwner",
          "type": "address"
        }
      ],
      "name": "transferOwnership",
      "outputs": [],
      "payable": false,
      "stateMutability": "nonpayable",
      "type": "function"
    },
    {
      "constant": true,
      "inputs": [
        {
          "internalType": "address",
          "name": "",
          "type": "address"
        },
        {
          "internalType": "uint256",
          "name": "",
          "type": "uint256"
        },
        {
          "internalType": "uint32",
          "name": "",
          "type": "uint32"
        }
      ],
      "name": "userStakingCheckpoints",
      "outputs": [
        {
          "internalType": "uint32",
          "name": "fromBlock",
          "type": "uint32"
        },
        {
          "internalType": "uint96",
          "name": "stake",
          "type": "uint96"
        }
      ],
      "payable": false,
      "stateMutability": "view",
      "type": "function"
    },
    {
      "constant": true,
      "inputs": [
        {
          "internalType": "uint256",
          "name": "",
          "type": "uint256"
        },
        {
          "internalType": "uint32",
          "name": "",
          "type": "uint32"
        }
      ],
      "name": "vestingCheckpoints",
      "outputs": [
        {
          "internalType": "uint32",
          "name": "fromBlock",
          "type": "uint32"
        },
        {
          "internalType": "uint96",
          "name": "stake",
          "type": "uint96"
        }
      ],
      "payable": false,
      "stateMutability": "view",
      "type": "function"
    },
    {
      "constant": true,
      "inputs": [
        {
          "internalType": "bytes32",
          "name": "",
          "type": "bytes32"
        }
      ],
      "name": "vestingCodeHashes",
      "outputs": [
        {
          "internalType": "bool",
          "name": "",
          "type": "bool"
        }
      ],
      "payable": false,
      "stateMutability": "view",
      "type": "function"
    },
    {
      "constant": true,
      "inputs": [],
      "name": "vestingRegistryLogic",
      "outputs": [
        {
          "internalType": "contract IVestingRegistry",
          "name": "",
          "type": "address"
        }
      ],
      "payable": false,
      "stateMutability": "view",
      "type": "function"
    },
    {
      "constant": true,
      "inputs": [
        {
          "internalType": "address",
          "name": "",
          "type": "address"
        }
      ],
      "name": "vestingWhitelist",
      "outputs": [
        {
          "internalType": "bool",
          "name": "",
          "type": "bool"
        }
      ],
      "payable": false,
      "stateMutability": "view",
      "type": "function"
    },
    {
      "constant": true,
      "inputs": [],
      "name": "weightScaling",
      "outputs": [
        {
          "internalType": "uint96",
          "name": "",
          "type": "uint96"
        }
      ],
      "payable": false,
      "stateMutability": "view",
      "type": "function"
    },
    {
      "constant": true,
      "inputs": [
        {
          "internalType": "address",
          "name": "account",
          "type": "address"
        },
        {
          "internalType": "uint256",
          "name": "date",
          "type": "uint256"
        },
        {
          "internalType": "uint256",
          "name": "startDate",
          "type": "uint256"
        },
        {
          "internalType": "uint256",
          "name": "blockNumber",
          "type": "uint256"
        }
      ],
      "name": "weightedStakeByDate",
      "outputs": [
        {
          "internalType": "uint96",
          "name": "power",
          "type": "uint96"
        }
      ],
      "payable": false,
      "stateMutability": "view",
      "type": "function"
    },
    {
      "constant": true,
      "inputs": [
        {
          "internalType": "uint256",
          "name": "date",
          "type": "uint256"
        },
        {
          "internalType": "uint256",
          "name": "startDate",
          "type": "uint256"
        },
        {
          "internalType": "uint256",
          "name": "blockNumber",
          "type": "uint256"
        }
      ],
      "name": "weightedVestingStakeByDate",
      "outputs": [
        {
          "internalType": "uint96",
          "name": "power",
          "type": "uint96"
        }
      ],
      "payable": false,
      "stateMutability": "view",
      "type": "function"
    }
  ],
  "bytecode": {
    "object": "0x60c0604052600a608081905269534f565374616b696e6760b01b60a09081526200002d9160029190620000ae565b506005805460ff19169055600d80546001600160a01b0316600360a01b179055600062000059620000a9565b600080546001600160a01b0319166001600160a01b0383169081178255604051929350917f8be0079c531659141344cd1fd0a4f28419497f9722a3daafe3b4186f6b6457e0908290a35062000150565b335b90565b828054600181600116156101000203166002900490600052602060002090601f016020900481019282601f10620000f157805160ff191683800117855562000121565b8280016001018555821562000121579182015b828111156200012157825182559160200191906001019062000104565b506200012f92915062000133565b5090565b620000ab91905b808211156200012f57600081556001016200013a565b615dae80620001606000396000f3fe608060405234801561001057600080fd5b506004361061041c5760003560e01c80638da5cb5b1161022b578063c1b79b0511610130578063db27ec18116100b8578063eefb8c4711610087578063eefb8c4714610ecb578063f09cfc6414610eee578063f2fde38b14610f11578063f3f1973114610f37578063fbbb8ec614610f605761041c565b8063db27ec1814610e3c578063dfb267c214610e68578063e7a324dc14610e91578063e97ffacb14610e995761041c565b8063cf7b684a116100ff578063cf7b684a14610d67578063d27569e714610d99578063d5c3846414610da1578063d8ad326d14610dbe578063daeaf2f214610e165761041c565b8063c1b79b051461072d578063c70a7e9614610cfb578063ca6860df14610d1e578063cdbe715514610d445761041c565b8063a4813fee116101b3578063b1724b4611610182578063b1724b4614610c7f578063b4b5ea5714610c87578063ba21c6d714610cad578063bb533cf214610cd6578063bf626ec114610cf35761041c565b8063a4813fee14610c2c578063a58848c514610c49578063adae900214610c51578063ae81dfe414610c775761041c565b80639436e7d4116101fa5780639436e7d414610b7657806394c2ce5814610bac5780639929e88614610bd8578063a20d8d0314610be0578063a377f24414610c065761041c565b80638da5cb5b14610aa15780638dae1b1614610aa95780638f32d59b14610ae15780638f4ffcb114610ae95761041c565b8063450b0601116103315780636b6fde0e116102b95780637342012511610288578063734201251461095c5780637ba6f458146109645780637ecebe0014610a2357806380f51c1214610a49578063836eebee14610a6f5761041c565b80636b6fde0e146108235780636e56c1dd1461085b57806370a082311461091957806372ec97951461093f5761041c565b80634de7adea116103005780634de7adea146107735780635004b6e4146107905780635c975abb1461079857806362cf8a08146107a057806368cefccc146107c35761041c565b8063450b0601146106a9578063472f88f7146106cf5780634a15290e146107015780634b2fea1e1461072d5761041c565b806317748adc116103b457806325629ec01161038357806325629ec0146105bc57806327dd1b00146105ff57806332e9f2501461062b57806337e6b1c114610651578063429b62e5146106835761041c565b806317748adc1461054157806320606b70146105655780632522d7ba1461056d57806325464cc5146105965761041c565b8063054f7d9c116103f0578063054f7d9c146104b357806307392cc0146104cf5780630c09ddfd146104ec578063104932cf146105395761041c565b8062073f99146104215780630130f0bf1461043b578063026e402b1461046357806303a18fa31461048f575b600080fd5b610429610f9b565b60408051918252519081900360200190f35b6104616004803603602081101561045157600080fd5b50356001600160601b0316610fa1565b005b6104616004803603604081101561047957600080fd5b506001600160a01b038135169060200135610fc8565b610497611072565b604080516001600160a01b039092168252519081900360200190f35b6104bb611081565b604080519115158252519081900360200190f35b6104bb600480360360208110156104e557600080fd5b503561108f565b610461600480360360a081101561050257600080fd5b506001600160a01b0381358116916001600160601b03602082013516916040820135916060810135821691608090910135166110a4565b610497611184565b610549611193565b604080516001600160601b039092168252519081900360200190f35b610429611198565b6105496004803603604081101561058357600080fd5b5063ffffffff81351690602001356111b3565b610461600480360360208110156105ac57600080fd5b50356001600160a01b03166111f9565b610461600480360360808110156105d257600080fd5b506001600160601b03813516906020810135906001600160a01b03604082013581169160600135166112b7565b6104976004803603604081101561061557600080fd5b506001600160a01b038135169060200135611353565b6104296004803603602081101561064157600080fd5b50356001600160a01b0316611379565b6105496004803603606081101561066757600080fd5b506001600160a01b038135169060208101359060400135611403565b6104bb6004803603602081101561069957600080fd5b50356001600160a01b031661147a565b610461600480360360208110156106bf57600080fd5b50356001600160a01b031661148f565b610461600480360360608110156106e557600080fd5b506001600160a01b03813516906020810135906040013561153f565b6104616004803603604081101561071757600080fd5b506001600160601b03813516906020013561154a565b610461600480360360c081101561074357600080fd5b508035906020810135906040810135906060810135906001600160a01b03608082013581169160a001351661157d565b6105496004803603602081101561078957600080fd5b503561161a565b610497611635565b6104bb611644565b610549600480360360408110156107b657600080fd5b508035906020013561164d565b6107fb600480360360608110156107d957600080fd5b5080356001600160a01b0316906020810135906040013563ffffffff16611659565b6040805163ffffffff90931683526001600160601b0390911660208301528051918290030190f35b6107fb6004803603606081101561083957600080fd5b5080356001600160a01b0316906020810135906040013563ffffffff16611694565b6104616004803603604081101561087157600080fd5b810190602081018135600160201b81111561088b57600080fd5b82018360208201111561089d57600080fd5b803590602001918460208302840111600160201b831117156108be57600080fd5b919390929091602081019035600160201b8111156108db57600080fd5b8201836020820111156108ed57600080fd5b803590602001918460208302840111600160201b8311171561090e57600080fd5b5090925090506116cf565b6105496004803603602081101561092f57600080fd5b50356001600160a01b0316611808565b6104296004803603602081101561095557600080fd5b5035611877565b610549611882565b61098a6004803603602081101561097a57600080fd5b50356001600160a01b0316611891565b604051808060200180602001838103835285818151815260200191508051906020019060200280838360005b838110156109ce5781810151838201526020016109b6565b50505050905001838103825284818151815260200191508051906020019060200280838360005b83811015610a0d5781810151838201526020016109f5565b5050505090500194505050505060405180910390f35b61042960048036036020811015610a3957600080fd5b50356001600160a01b03166119cc565b6104bb60048036036020811015610a5f57600080fd5b50356001600160a01b03166119de565b61054960048036036060811015610a8557600080fd5b506001600160a01b0381351690602081013590604001356119f3565b610497611a68565b61054960048036036080811015610abf57600080fd5b506001600160a01b038135169060208101359060408101359060600135611a77565b6104bb611aa4565b61046160048036036080811015610aff57600080fd5b6001600160a01b038235811692602081013592604082013590921691810190608081016060820135600160201b811115610b3857600080fd5b820183602082011115610b4a57600080fd5b803590602001918460018302840111600160201b83111715610b6b57600080fd5b509092509050611ac8565b610b9360048036036020811015610b8c57600080fd5b5035611d9a565b6040805163ffffffff9092168252519081900360200190f35b610b9360048036036040811015610bc257600080fd5b506001600160a01b038135169060200135611db2565b6104bb611dd5565b61046160048036036020811015610bf657600080fd5b50356001600160a01b0316611dde565b61046160048036036020811015610c1c57600080fd5b50356001600160a01b0316611e9f565b61042960048036036020811015610c4257600080fd5b5035611f64565b610497611f7f565b6104bb60048036036020811015610c6757600080fd5b50356001600160a01b0316611f8e565b610497611fa3565b610429611fb7565b61054960048036036020811015610c9d57600080fd5b50356001600160a01b0316611fbf565b61054960048036036060811015610cc357600080fd5b5080359060208101359060400135611fcf565b610b9360048036036020811015610cec57600080fd5b5035611ffa565b610549612012565b61054960048036036040811015610d1157600080fd5b5080359060200135612028565b6104bb60048036036020811015610d3457600080fd5b50356001600160a01b031661203f565b61054960048036036040811015610d5a57600080fd5b5080359060200135612064565b61054960048036036060811015610d7d57600080fd5b506001600160a01b0381351690602081013590604001356120f7565b610549612132565b61054960048036036020811015610db757600080fd5b5035612137565b610dc6612193565b60408051602080825283518183015283519192839290830191858101910280838360005b83811015610e02578181015183820152602001610dea565b505050509050019250505060405180910390f35b61046160048036036020811015610e2c57600080fd5b50356001600160601b03166127ab565b610b9360048036036040811015610e5257600080fd5b506001600160a01b0381351690602001356127d3565b6107fb60048036036040811015610e7e57600080fd5b508035906020013563ffffffff166127f6565b61042961282b565b61054960048036036060811015610eaf57600080fd5b506001600160a01b038135169060208101359060400135612846565b61046160048036036040811015610ee157600080fd5b508035906020013561285e565b61054960048036036040811015610f0457600080fd5b5080359060200135612b00565b61046160048036036020811015610f2757600080fd5b50356001600160a01b0316612b17565b6107fb60048036036040811015610f4d57600080fd5b508035906020013563ffffffff16612b6b565b61046160048036036060811015610f7657600080fd5b5080356001600160a01b031690602081013590604001356001600160601b0316612ba0565b60015481565b601780546bffffffffffffffffffffffff19166001600160601b0392909216919091179055565b60155460ff1615611009576040805162461bcd60e51b81526020600482015260066024820152651c185d5cd95960d21b604482015290519081900360640190fd5b6001600160a01b03821661104e5760405162461bcd60e51b8152600401808060200182810382526023815260200180615c3e6023913960400191505060405180910390fd5b6110588133612c0e565b611063338383612c9e565b61106e338383612e40565b5050565b600d546001600160a01b031681565b601554610100900460ff1681565b60106020526000908152604090205460ff1681565b3330146110e7576040805162461bcd60e51b815260206004820152600c60248201526b1d5b985d5d1a1bdc9a5e995960a21b604482015290519081900360640190fd5b60155460ff1615611128576040805162461bcd60e51b81526020600482015260066024820152651c185d5cd95960d21b604482015290519081900360640190fd5b601554610100900460ff161561116e576040805162461bcd60e51b81526020600482015260066024820152651c185d5cd95960d21b604482015290519081900360640190fd5b61117d85858585856000612f66565b5050505050565b6013546001600160a01b031681565b600981565b604051806043615bfb82396043019050604051809103902081565b601954600090600160a01b90046001600160601b03166111dc576111d78383612f76565b6111f0565b601954600160a01b90046001600160601b03165b90505b92915050565b611201611aa4565b8061121b5750336000908152600f602052604090205460ff165b61125b576040805162461bcd60e51b815260206004820152600c60248201526b1d5b985d5d1a1bdc9a5e995960a21b604482015290519081900360640190fd5b600061126682612fe2565b600081815260106020908152604091829020805460ff19169055815183815291519293507f8cead6971eb8b99e8ac394749afc2c5e2d248f86d94e57f49fec3338d3df823192918290030190a15050565b60155460ff16156112f8576040805162461bcd60e51b81526020600482015260066024820152651c185d5cd95960d21b604482015290519081900360640190fd5b601554610100900460ff161561133e576040805162461bcd60e51b81526020600482015260066024820152651c185d5cd95960d21b604482015290519081900360640190fd5b61134d33858585856000612f66565b50505050565b60046020908152600092835260408084209091529082529020546001600160a01b031681565b604080516370a0823160e01b81526001600160a01b0383166004820152905160009130916370a0823191602480820192602092909190829003018186803b1580156113c357600080fd5b505afa1580156113d7573d6000803e3d6000fd5b505050506040513d60208110156113ed57600080fd5b50516002026001600160601b031690505b919050565b60008281526018602052604081205481906001600160601b03161561144057506000838152601860205260409020546001600160601b0316611470565b6017546001600160601b03166114605761145b858585612fe6565b61146d565b6017546001600160601b03165b90505b90505b9392505050565b600f6020526000908152604090205460ff1681565b611497611aa4565b6114d7576040805162461bcd60e51b815260206004820152600c60248201526b1d5b985d5d1a1bdc9a5e995960a21b604482015290519081900360640190fd5b601554610100900460ff161561151d576040805162461bcd60e51b81526020600482015260066024820152651c185d5cd95960d21b604482015290519081900360640190fd5b601380546001600160a01b0319166001600160a01b0392909216919091179055565b61134d838383611403565b600090815260186020526040902080546bffffffffffffffffffffffff19166001600160601b0392909216919091179055565b60155460ff16156115be576040805162461bcd60e51b81526020600482015260066024820152651c185d5cd95960d21b604482015290519081900360640190fd5b601554610100900460ff1615611604576040805162461bcd60e51b81526020600482015260066024820152651c185d5cd95960d21b604482015290519081900360640190fd5b611612868686868686613071565b505050505050565b6018602052600090815260409020546001600160601b031681565b6019546001600160a01b031681565b60155460ff1681565b60006111f083836133ce565b600a60209081526000938452604080852082529284528284209052825290205463ffffffff811690600160201b90046001600160601b031682565b600860209081526000938452604080852082529284528284209052825290205463ffffffff811690600160201b90046001600160601b031682565b6116d7611aa4565b806116f15750336000908152600f602052604090205460ff165b611731576040805162461bcd60e51b815260206004820152600c60248201526b1d5b985d5d1a1bdc9a5e995960a21b604482015290519081900360640190fd5b601554610100900460ff1615611777576040805162461bcd60e51b81526020600482015260066024820152651c185d5cd95960d21b604482015290519081900360640190fd5b8281146117bd576040805162461bcd60e51b815260206004820152600f60248201526e0c2e4e4c2f2e640dad2e6dac2e8c6d608b1b604482015290519081900360640190fd5b8260005b81811015611612576118008686838181106117d857fe5b905060200201358585848181106117eb57fe5b905060200201356001600160601b0316613558565b6001016117c1565b6001546000905b63059fa60042018111611871576118658261182a8584613809565b6040518060400160405280601c81526020017f5374616b696e673a3a62616c616e63654f663a206f766572666c6f770000000081525061386c565b9150621275000161180f565b50919050565b60006111f382613913565b6017546001600160601b031681565b60608060006118a563059fa6004201613913565b60015490915060009062127500015b8281116118e75760006118c78783613809565b6001600160601b031611156118dd576001909101905b62127500016118b4565b5080604051908082528060200260200182016040528015611912578160200160208202803883390190505b5093508060405190808252806020026020018201604052801561193f578160200160208202803883390190505b5060015490935060009062127500015b8381116119c35760006119628883613809565b90506001600160601b038116156119b8578187848151811061198057fe5b6020026020010181815250508086848151811061199957fe5b6001600160601b03909216602092830291909101909101526001909201915b50621275000161194f565b50505050915091565b600c6020526000908152604090205481565b60146020526000908152604090205460ff1681565b6000806119ff83613913565b905063059fa6008101815b818111611a5e57611a5284611a218984878b613988565b6040518060400160405280601381526020017206f766572666c6f77202d20746f74616c20565606c1b81525061386c565b93506212750001611a0a565b5050509392505050565b6000546001600160a01b031690565b6000611a8284613913565b9350611a8d83613913565b9250611a9b858585856139fc565b95945050505050565b600080546001600160a01b0316611ab9613a88565b6001600160a01b031614905090565b611ad0613a8c565b6001600160a01b0316336001600160a01b031614611b24576040805162461bcd60e51b815260206004820152600c60248201526b1d5b985d5d1a1bdc9a5e995960a21b604482015290519081900360640190fd5b336001600160a01b03841614611b70576040805162461bcd60e51b815260206004820152600c60248201526b1d5b985d5d1a1bdc9a5e995960a21b604482015290519081900360640190fd5b60006060611b7c613a9b565b90506000611bbf85858080601f016020809104026020016040519081016040528093929190818152602001838380828437600092019190915250613ad592505050565b905060005b8251811015611c0d57828181518110611bd957fe5b60200260200101516001600160e01b031916826001600160e01b0319161415611c055760019350611c0d565b600101611bc4565b5082611c58576040805162461bcd60e51b81526020600482015260156024820152741b595d1a1bd9081a5cc81b9bdd08185b1b1bddd959605a1b604482015290519081900360640190fd5b60405160006020820181815290918291829189918991603c018383808284378083019250505093505050506040516020818303038152906040528060200190516060811015611ca657600080fd5b50602081015160409091015190925090506001600160a01b03808316908b1614611d09576040805162461bcd60e51b815260206004820152600f60248201526e0e6cadcc8cae440dad2e6dac2e8c6d608b1b604482015290519081900360640190fd5b888114611d4f576040805162461bcd60e51b815260206004820152600f60248201526e0c2dadeeadce840dad2e6dac2e8c6d608b1b604482015290519081900360640190fd5b611d8e87878080601f016020809104026020016040519081016040528093929190818152602001838380828437600092019190915250613adc92505050565b50505050505050505050565b60076020526000908152604090205463ffffffff1681565b600960209081526000928352604080842090915290825290205463ffffffff1681565b60055460ff1681565b611de6611aa4565b80611e005750336000908152600f602052604090205460ff165b611e40576040805162461bcd60e51b815260206004820152600c60248201526b1d5b985d5d1a1bdc9a5e995960a21b604482015290519081900360640190fd5b6000611e4b82612fe2565b600081815260106020908152604091829020805460ff19166001179055815183815291519293507fa0d1b39aa503282227481fef744a0ec0b991b2546e6fa611e40f88d2d2770eef92918290030190a15050565b611ea7611aa4565b611ee7576040805162461bcd60e51b815260206004820152600c60248201526b1d5b985d5d1a1bdc9a5e995960a21b604482015290519081900360640190fd5b6001600160a01b038116611f42576040805162461bcd60e51b815260206004820152601c60248201527f626c6f636b206d6f636b7570206164647265737320696e76616c696400000000604482015290519081900360640190fd5b601980546001600160a01b0319166001600160a01b0392909216919091179055565b6000908152601860205260409020546001600160601b031690565b6003546001600160a01b031681565b600e6020526000908152604090205460ff1681565b60055461010090046001600160a01b031681565b63059fa60081565b60006111f38260014303426119f3565b6000611fda84613913565b9350611fe583613913565b9250611ff2848484613c45565b949350505050565b60126020526000908152604090205463ffffffff1681565b600d54600160a01b90046001600160601b031681565b600061203383613cd0565b92506111f08383613cf5565b60008061204b83612fe2565b60009081526010602052604090205460ff169392505050565b60008061207083613913565b905063059fa6008101815b8181116120ee57600061208f828589613c45565b90506001600160601b038116156120e3576120e085826040518060400160405280601881526020017f6f766572666c6f77206f6e20746f74616c20776569676874000000000000000081525061386c565b94505b50621275000161207b565b50505092915050565b600080612105858585613ef4565b90506001600160601b03811615801561212257506121223361416f565b1561147057506001949350505050565b600a81565b60008181526007602052604081205463ffffffff1680612158576000611473565b6000838152600660209081526040808320600019850163ffffffff168452909152902054600160201b90046001600160601b03169392505050565b60408051601f8082526104008201909252606091829190602082016103e080388339019050509050632522d7ba60e01b816000815181106121d057fe5b6001600160e01b031990921660209283029190910190910152805163b4b5ea5760e01b908290600190811061220157fe5b6001600160e01b03199092166020928302919091019091015280516341b775f760e11b908290600290811061223257fe5b6001600160e01b031990921660209283029190910190910152805163e97ffacb60e01b908290600390811061226357fe5b6001600160e01b0319909216602092830291909101909101528051633c273f1960e21b908290600490811061229457fe5b6001600160e01b031990921660209283029190910190910152805163026e402b60e01b90829060059081106122c557fe5b6001600160e01b031990921660209283029190910190910152805162958a7b60e61b90829060069081106122f557fe5b6001600160e01b0319909216602092830291909101909101528051630c09ddfd60e01b908290600790811061232657fe5b6001600160e01b031990921660209283029190910190910152805163eefb8c4760e01b908290600890811061235757fe5b6001600160e01b0319909216602092830291909101909101528051632597f50f60e11b908290600990811061238857fe5b6001600160e01b031990921660209283029190910190910152805163c1b79b0560e01b908290600a9081106123b957fe5b6001600160e01b03199092166020928302919091019091015280516370a0823160e01b908290600b9081106123ea57fe5b6001600160e01b0319909216602092830291909101909101528051633570e11960e21b908290600c90811061241b57fe5b6001600160e01b0319909216602092830291909101909101528051630f74de8b60e31b908290600d90811061244c57fe5b6001600160e01b03199092166020928302919091019091015280516372ec979560e01b908290600e90811061247d57fe5b6001600160e01b031990921660209283029190910190910152805163450b060160e01b908290600f9081106124ae57fe5b6001600160e01b0319909216602092830291909101909101528051636e56c1dd60e01b90829060109081106124df57fe5b6001600160e01b03199092166020928302919091019091015280516367bdb42560e11b908290601190811061251057fe5b6001600160e01b031990921660209283029190910190910152805163cdbe715560e01b908290601290811061254157fe5b6001600160e01b03199092166020928302919091019091015280516363853f4b60e11b908290601390811061257257fe5b6001600160e01b031990921660209283029190910190910152805163a20d8d0360e01b90829060149081106125a357fe5b6001600160e01b03199092166020928302919091019091015280516325464cc560e01b90829060159081106125d457fe5b6001600160e01b031990921660209283029190910190910152805163ca6860df60e01b908290601690811061260557fe5b6001600160e01b03199092166020928302919091019091015280516328ddfc9160e21b908290601790811061263657fe5b6001600160e01b0319909216602092830291909101909101528051630130f0bf60e01b908290601890811061266757fe5b6001600160e01b031990921660209283029190910190910152805163250a948760e11b908290601990811061269857fe5b6001600160e01b03199092166020928302919091019091015280516337e6b1c160e01b908290601a9081106126c957fe5b6001600160e01b03199092166020928302919091019091015280516346d70d8b60e11b908290601b9081106126fa57fe5b6001600160e01b0319909216602092830291909101909101528051630c59f14160e31b908290601c90811061272b57fe5b6001600160e01b03199092166020928302919091019091015280516326f3d6f560e11b908290601d90811061275c57fe5b6001600160e01b03199092166020928302919091019091015280516352409ff760e11b908290601e90811061278d57fe5b6001600160e01b031990921660209283029190910190910152905090565b601980546001600160601b03909216600160a01b026001600160a01b03909216919091179055565b600b60209081526000928352604080842090915290825290205463ffffffff1681565b600660209081526000928352604080842090915290825290205463ffffffff811690600160201b90046001600160601b031682565b60405180604b615c908239604b019050604051809103902081565b600061285183613cd0565b9250611ff2848484614241565b60155460ff161561289f576040805162461bcd60e51b81526020600482015260066024820152651c185d5cd95960d21b604482015290519081900360640190fd5b601554610100900460ff16156128e5576040805162461bcd60e51b81526020600482015260066024820152651c185d5cd95960d21b604482015290519081900360640190fd5b6128ee82613913565b91506128f981613913565b90506129058233612c0e565b600061291663059fa6004201613913565b905080821115612924578091505b818310612978576040805162461bcd60e51b815260206004820152601e60248201527f6d75737420696e637265617365207374616b696e67206475726174696f6e0000604482015290519081900360640190fd5b6000612988338560014303613ef4565b90506000816001600160601b0316116129d25760405162461bcd60e51b8152600401808060200182810382526021815260200180615b506021913960400191505060405180910390fd5b6129dd3385836144b4565b6129e833848361454b565b6129f13361416f565b15612a0a57612a0084826145d4565b612a0a838261464e565b612a1484826146bb565b612a1e8382614735565b33600090815260046020908152604080832087845290915280822080546001600160a01b031981169091558583529120546001600160a01b03918216911680612a975750336000908152600460209081526040808320878452909152902080546001600160a01b0319166001600160a01b038316179055805b612aa28287856147a2565b612aad818685614843565b60408051878152602081018790526001600160601b03851681830152905133917f809d79c94c86576d61afef75495b8df415224bf885310fed7ea315039f8c5b4c919081900360600190a2505050505050565b6000612b0b83613cd0565b92506111f083836148cc565b612b1f611aa4565b612b5f576040805162461bcd60e51b815260206004820152600c60248201526b1d5b985d5d1a1bdc9a5e995960a21b604482015290519081900360640190fd5b612b6881614acb565b50565b601160209081526000928352604080842090915290825290205463ffffffff811690600160201b90046001600160601b031682565b6001600160a01b038316600081815260096020908152604080832086845282528083205493835260088252808320868452825280832063ffffffff94851660001981019095168452909152812054600160201b90046001600160601b03169061117d90869086908590614b6b565b6001600160a01b0381166000818152600b60209081526040808320868452825280832054938352600a8252808320868452825280832060001963ffffffff958616908101861685529252909120549091164314158061134d5760405162461bcd60e51b815260040180806020018281038252602f815260200180615c61602f913960400191505060405180910390fd5b6001600160a01b03808416600090815260046020908152604080832085845290915281205490911690612cd18584613809565b9050612cdc3361416f565b15612d19576001600160601b0381161580612d085750836001600160a01b0316826001600160a01b0316145b15612d14575050612e3b565b612dbf565b6000816001600160601b031611612d6e576040805162461bcd60e51b81526020600482015260146024820152736e6f207374616b6520746f2064656c656761746560601b604482015290519081900360640190fd5b836001600160a01b0316826001600160a01b03161415612dbf5760405162461bcd60e51b8152600401808060200182810382526029815260200180615d1d6029913960400191505060405180910390fd5b6001600160a01b03858116600081815260046020908152604080832088845282529182902080546001600160a01b031916898616908117909155825188815292519094871693927fb846dc53d3621f480d692e73f4473156d20f23ff6b2c8237b7130b883226cca992908290030190a461117d82858386614d90565b505050565b612e493361416f565b15612e3b576000612e63826212750063ffffffff614df416565b6001600160a01b0380861660009081526004602090815260408083208584529091529020549192509081169084168114612ea257612ea2858584612c9e565b6000336001600160a01b031663c24a0f8b6040518163ffffffff1660e01b8152600401602060405180830381600087803b158015612edf57600080fd5b505af1158015612ef3573d6000803e3d6000fd5b505050506040513d6020811015612f0957600080fd5b50519050612f20846224ea0063ffffffff614df416565b925080831415611612576001600160a01b038087166000908152600460209081526040808320878452909152902054811692508516821461161257611612868685612c9e565b6116128686868686866001614e4e565b600080612f8283613913565b905063059fa6008101815b8181116120ee57612fd684612fa983868a63ffffffff1661516e565b6040518060400160405280600f81526020016e0c2e4e4c2f2e640dad2e6dac2e8c6d608b1b81525061386c565b93506212750001612f8d565b3f90565b600080612ff283613913565b905063059fa6008101815b818111611a5e5760006130128883868a6139fc565b90506001600160601b038116156130665761306385826040518060400160405280601d81526020017f6f766572666c6f77206f6e20746f74616c207765696768742063616c6300000081525061386c565b94505b506212750001612ffd565b600086116130b7576040805162461bcd60e51b815260206004820152600e60248201526d125b9d985b1a5908185b5bdd5b9d60921b604482015290519081900360640190fd5b63059fa600841115613103576040805162461bcd60e51b815260206004820152601060248201526f24b73b30b634b210323ab930ba34b7b760811b604482015290519081900360640190fd5b60008311613152576040805162461bcd60e51b8152602060048201526017602482015276092dcecc2d8d2c840d2dce8cae4ecc2d840d8cadccee8d604b1b604482015290519081900360640190fd5b621275008306156131a4576040805162461bcd60e51b8152602060048201526017602482015276092dcecc2d8d2c840d2dce8cae4ecc2d840d8cadccee8d604b1b604482015290519081900360640190fd5b816001600160a01b0316816001600160a01b0316141580156131ce57506001600160a01b03811615155b1561321a576001600160a01b038216331461321a5760405162461bcd60e51b8152600401808060200182810382526034815260200180615d466034913960400191505060405180910390fd5b6000613227864201613913565b90506000613236864201613913565b905080821115613280576040805162461bcd60e51b815260206004820152601060248201526f496e76616c6964207363686564756c6560801b604482015290519081900360640190fd5b6000818310156132a057858383038161329557fe5b0460010190506132a4565b5060015b6000818a816132af57fe5b600354604080516323b872dd60e01b8152336004820152306024820152604481018f905290519390920493506001600160a01b0316916323b872dd916064808201926020929091908290030181600087803b15801561330d57600080fd5b505af1158015613321573d6000803e3d6000fd5b505050506040513d602081101561333757600080fd5b50516133745760405162461bcd60e51b8152600401808060200182810382526023815260200180615b2d6023913960400191505060405180910390fd5b6001821061339457613394336001840383028c0386898960016000614e4e565b8387015b8381116133c1576133a98188612c0e565b6133ba3383838a8a60016000614e4e565b8701613398565b5050505050505050505050565b600081831015613418576040805162461bcd60e51b815260206004820152601060248201526f64617465203c2073746172744461746560801b604482015290519081900360640190fd5b81830363059fa600811115613474576040805162461bcd60e51b815260206004820152601d60248201527f72656d61696e696e672074696d65203e206d6178206475726174696f6e000000604482015290519081900360640190fd5b6000620151808263059fa600036001600160601b03168161349157fe5b049050611a9b600a621232106001600160601b0316613517600a6009026134e6621232108788026040518060400160405280601081526020016f77656967687420756e646572666c6f7760801b8152506151e0565b60405180604001604052806013815260200172776569676874206d756c206f766572666c6f7760681b81525061524d565b6001600160601b03168161352757fe5b04604051806040016040528060128152602001711bdd995c999b1bddc81bdb881dd95a59da1d60721b81525061386c565b60015482116135985760405162461bcd60e51b8152600401808060200182810382526041815260200180615a6c6041913960600191505060405180910390fd5b621275006001548303816135a857fe5b06156135e55760405162461bcd60e51b815260040180806020018281038252602c815260200180615bcf602c913960400191505060405180910390fd5b428211156136325763059fa60042830311156136325760405162461bcd60e51b8152600401808060200182810382526027815260200180615b716027913960400191505060405180910390fd5b6000828152600760209081526040808320546006835281842063ffffffff9182166000198101909216855290925290912054600160201b90046001600160601b039081169083168110156136b75760405162461bcd60e51b8152600401808060200182810382526042815260200180615cdb6042913960600191505060405180910390fd5b60008481526012602052604081205463ffffffff16906136d5615a54565b50600086815260116020908152604080832063ffffffff6000198701811685529083529281902081518083019092525480841682526001600160601b03600160201b90910416918101919091529083166137345760014303915061373c565b805160010191505b60408051808201825263ffffffff80851682526001600160601b03808a16602080850182815260008e8152601183528781208b871682528352878120965187549251909516600160201b02600160201b600160801b031995871663ffffffff199384161795909516949094179095558c83526012815291859020805460018a01909416939094169290921790925582518a81529182015281517ff9ab7366370e872310fc70951197eca2f2b3938b5589040856953f765dfcd11a929181900390910190a150505050505050565b6001600160a01b0382166000818152600b60209081526040808320858452825280832054938352600a8252808320858452825280832060001963ffffffff95861601909416835292905220546001600160601b03600160201b9091041692915050565b6000838301826001600160601b03808716908316101561390a5760405162461bcd60e51b81526004018080602001828103825283818151815260200191508051906020019080838360005b838110156138cf5781810151838201526020016138b7565b50505050905090810190601f1680156138fc5780820380516001836020036101000a031916815260200191505b509250505060405180910390fd5b50949350505050565b6001546000908083101561396e576040805162461bcd60e51b815260206004820152601d60248201527f74696d657374616d70203c20636f6e7472616374206372656174696f6e000000604482015290519081900360640190fd5b600062127500828503046212750002919091019392505050565b60008061399585856133ce565b905060006139a4878786614241565b9050600a6001600160601b03166139e082846040518060400160405280600c81526020016b6d756c206f766572666c6f7760a01b81525061524d565b6001600160601b0316816139f057fe5b04979650505050505050565b600080613a0a868685613ef4565b90506001600160601b03811615613a7c576000613a2786866133ce565b9050600a6001600160601b0316613a6383836040518060400160405280600c81526020016b6d756c206f766572666c6f7760a01b81525061524d565b6001600160601b031681613a7357fe5b0492505061390a565b50600095945050505050565b3390565b6003546001600160a01b031690565b60408051600180825281830190925260609182919060208083019080388339019050509050630c09ddfd60e01b8160008151811061278d57fe5b6020015190565b60006060306001600160a01b0316836040518082805190602001908083835b60208310613b1a5780518252601f199092019160209182019101613afb565b6001836020036101000a0380198251168184511680821785525050505050509050019150506000604051808303816000865af19150503d8060008114613b7c576040519150601f19603f3d011682016040523d82523d6000602084013e613b81565b606091505b509150915081612e3b576044815111613bcb5760405162461bcd60e51b8152600401808060200182810382526030815260200180615aad6030913960400191505060405180910390fd5b613bfe6040518060400160405280601181526020017003932b1b2b4bb32a0b8383937bb30b61d1607d1b815250826152d9565b60405162461bcd60e51b81526020600482018181528351602484015283519092839260449091019190850190808383600083156138cf5781810151838201526020016138b7565b600080613c528584613cf5565b90506001600160601b03811615613cc3576000613c6f86866133ce565b9050600a6001600160601b0316613caa83836040518060400160405280600b81526020016a6d756c206f7665666c6f7760a81b81525061524d565b6001600160601b031681613cba57fe5b04925050613cc8565b600091505b509392505050565b600080613cdc83613913565b9050828114613cee5762127500810192505b5090919050565b6000613cff6153d3565b8210613d43576040805162461bcd60e51b815260206004820152600e60248201526d1b9bdd0819195d195c9b5a5b995960921b604482015290519081900360640190fd5b60008381526012602052604090205463ffffffff1680613d675760009150506111f3565b600084815260116020908152604080832063ffffffff600019860181168552925290912054168310613dcf5760008481526011602090815260408083206000199490940163ffffffff1683529290522054600160201b90046001600160601b031690506111f3565b600084815260116020908152604080832083805290915290205463ffffffff16831015613e005760009150506111f3565b600060001982015b8163ffffffff168163ffffffff161115613eb957600282820363ffffffff16048103613e32615a54565b50600087815260116020908152604080832063ffffffff858116855290835292819020815180830190925254928316808252600160201b9093046001600160601b03169181019190915290871415613e94576020015194506111f39350505050565b805163ffffffff16871115613eab57819350613eb2565b6001820392505b5050613e08565b50600085815260116020908152604080832063ffffffff909416835292905220546001600160601b03600160201b9091041691505092915050565b6000613efe6153d3565b8210613f42576040805162461bcd60e51b815260206004820152600e60248201526d1b9bdd0819195d195c9b5a5b995960921b604482015290519081900360640190fd5b613f4b83613cd0565b6001600160a01b0385166000908152600b6020908152604080832084845290915290205490935063ffffffff1680613f87576000915050611473565b6001600160a01b0385166000908152600a60209081526040808320878452825280832063ffffffff600019860181168552925290912054168310614013576001600160a01b0385166000908152600a6020908152604080832087845282528083206000199490940163ffffffff1683529290522054600160201b90046001600160601b03169050611473565b6001600160a01b0385166000908152600a60209081526040808320878452825280832083805290915290205463ffffffff16831015614056576000915050611473565b600060001982015b8163ffffffff168163ffffffff16111561412157600282820363ffffffff16048103614088615a54565b506001600160a01b0388166000908152600a602090815260408083208a8452825280832063ffffffff858116855290835292819020815180830190925254928316808252600160201b9093046001600160601b031691810191909152908714156140fc576020015194506114739350505050565b805163ffffffff168711156141135781935061411a565b6001820392505b505061405e565b506001600160a01b0386166000908152600a60209081526040808320888452825280832063ffffffff909416835292905220546001600160601b03600160201b909104169150509392505050565b6013546000908190833f906001600160a01b0316156142045760135460408051633288436360e21b81526001600160a01b0387811660048301529151919092169163ca210d8c916024808301926020929190829003018186803b1580156141d557600080fd5b505afa1580156141e9573d6000803e3d6000fd5b505050506040513d60208110156141ff57600080fd5b505191505b8115614215576001925050506113fe565b60008181526010602052604090205460ff1615614237576001925050506113fe565b5060009392505050565b600061424b6153d3565b8210614293576040805162461bcd60e51b81526020600482015260126024820152711b9bdd0819195d195c9b5a5b9959081e595d60721b604482015290519081900360640190fd5b6001600160a01b038416600090815260096020908152604080832086845290915290205463ffffffff16806142cc576000915050611473565b6001600160a01b0385166000908152600860209081526040808320878452825280832063ffffffff600019860181168552925290912054168310614358576001600160a01b038516600090815260086020908152604080832087845282528083206000199490940163ffffffff1683529290522054600160201b90046001600160601b03169050611473565b6001600160a01b0385166000908152600860209081526040808320878452825280832083805290915290205463ffffffff1683101561439b576000915050611473565b600060001982015b8163ffffffff168163ffffffff16111561446657600282820363ffffffff160481036143cd615a54565b506001600160a01b03881660009081526008602090815260408083208a8452825280832063ffffffff858116855290835292819020815180830190925254928316808252600160201b9093046001600160601b03169181019190915290871415614441576020015194506114739350505050565b805163ffffffff168711156144585781935061445f565b6001820392505b50506143a3565b506001600160a01b0386166000908152600860209081526040808320888452825280832063ffffffff909416835292905220546001600160601b03600160201b909104169150509392505050565b6001600160a01b0383166000818152600b60209081526040808320868452825280832054938352600a8252808320868452825280832063ffffffff94851660001981019095168452825280832054815180830190925260048252634350303560e01b92820192909252600160201b9091046001600160601b0316919061453d90839086906151e0565b905061161286868584615449565b6001600160a01b0383166000818152600b60209081526040808320868452825280832054938352600a8252808320868452825280832063ffffffff948516600019810190951684528252808320548151808301909252600482526310d40c0d60e21b92820192909252600160201b9091046001600160601b0316919061453d908390869061386c565b6000828152601260209081526040808320546011835281842063ffffffff918216600019810190921685528352818420548251808401909352600483526321a8181960e11b9383019390935292600160201b9092046001600160601b0316919061464190839086906151e0565b905061117d8584836155cb565b6000828152601260209081526040808320546011835281842063ffffffff91821660001981019092168552835281842054825180840190935260048352634350303160e01b9383019390935292600160201b9092046001600160601b03169190614641908390869061386c565b6000828152600760209081526040808320546006835281842063ffffffff91821660001981019092168552835281842054825180840190935260048352634350313160e01b9383019390935292600160201b9092046001600160601b0316919061472890839086906151e0565b905061117d85848361570b565b6000828152600760209081526040808320546006835281842063ffffffff91821660001981019092168552835281842054825180840190935260048352630435031360e41b9383019390935292600160201b9092046001600160601b03169190614728908390869061386c565b6001600160a01b038316600081815260096020908152604080832086845282528083205493835260088252808320868452825280832063ffffffff94851660001981019095168452909152812054600160201b90046001600160601b039081169190841682111561483757614834828560405180604001604052806004815260200163086a060760e31b8152506151e0565b90505b61161286868584614b6b565b6001600160a01b038316600081815260096020908152604080832086845282528083205493835260088252808320868452825280832063ffffffff94851660001981019095168452825280832054815180830190925260048252634350303760e01b92820192909252600160201b9091046001600160601b03169190614834908390869061386c565b60006148d66153d3565b821061491a576040805162461bcd60e51b815260206004820152600e60248201526d1b9bdd0819195d195c9b5a5b995960921b604482015290519081900360640190fd5b60008381526007602052604090205463ffffffff168061493e5760009150506111f3565b600084815260066020908152604080832063ffffffff6000198601811685529252909120541683106149a65760008481526006602090815260408083206000199490940163ffffffff1683529290522054600160201b90046001600160601b031690506111f3565b600084815260066020908152604080832083805290915290205463ffffffff168310156149d75760009150506111f3565b600060001982015b8163ffffffff168163ffffffff161115614a9057600282820363ffffffff16048103614a09615a54565b50600087815260066020908152604080832063ffffffff858116855290835292819020815180830190925254928316808252600160201b9093046001600160601b03169181019190915290871415614a6b576020015194506111f39350505050565b805163ffffffff16871115614a8257819350614a89565b6001820392505b50506149df565b50600085815260066020908152604080832063ffffffff909416835292905220546001600160601b03600160201b9091041691505092915050565b6001600160a01b038116614b105760405162461bcd60e51b8152600401808060200182810382526026815260200180615b076026913960400191505060405180910390fd5b600080546040516001600160a01b03808516939216917f8be0079c531659141344cd1fd0a4f28419497f9722a3daafe3b4186f6b6457e091a3600080546001600160a01b0319166001600160a01b0392909216919091179055565b6000614b9343604051806040016040528060048152602001634350303960e01b81525061584b565b6001600160a01b03861660009081526008602090815260408083208884528252808320600019880163ffffffff9081168552925290912054919250600160201b9091046001600160601b031690841615801590614c2957506001600160a01b0386166000908152600860209081526040808320888452825280832063ffffffff6000198901811685529252909120548382169116145b15614c8a576001600160a01b03861660009081526008602090815260408083208884528252808320600019880163ffffffff16845290915290208054600160201b600160801b031916600160201b6001600160601b03861602179055614d33565b60408051808201825263ffffffff80851682526001600160601b0380871660208085019182526001600160a01b038c166000818152600883528781208d825283528781208c871682528352878120965187549451909516600160201b02600160201b600160801b031995871663ffffffff19958616179590951694909417909555938252600984528482208a835290935292909220805460018801909316929091169190911790555b604080518681526001600160601b03808416602083015285168183015290516001600160a01b038816917fc7b38fb25352e6f351f57e2c922f84db5c97e09a6246bbe1d2eedfcdb01c4c62919081900360600190a2505050505050565b826001600160a01b0316846001600160a01b031614158015614dbb57506000826001600160601b0316115b1561134d576001600160a01b03841615614dda57614dda8482846147a2565b6001600160a01b0383161561134d5761134d838284614843565b6000828201838110156111f0576040805162461bcd60e51b815260206004820152601b60248201527f536166654d6174683a206164646974696f6e206f766572666c6f770000000000604482015290519081900360640190fd5b6000866001600160601b031611614eac576040805162461bcd60e51b815260206004820181905260248201527f616d6f756e74206e6565647320746f20626520626967676572207468616e2030604482015290519081900360640190fd5b81614ebd57614eba85613913565b94505b428511614efb5760405162461bcd60e51b8152600401808060200182810382526037815260200180615b986037913960400191505060405180910390fd5b6001600160a01b038416614f0d578693505b614f178585612c0e565b6001600160a01b038316614f29578392505b81614f4f576000614f3f63059fa6004201613913565b905080861115614f4d578095505b505b6000614f5b8587613809565b9050614f6a88888789866158a8565b6001600160a01b0380861660009081526004602090815260408083208a84529091529020548116908516811461510357856001600160a01b0316856001600160a01b03161461500857886001600160a01b0316866001600160a01b0316146150035760405162461bcd60e51b8152600401808060200182810382526034815260200180615d466034913960400191505060405180910390fd5b615087565b856001600160a01b0316896001600160a01b03161415801561503257506001600160a01b03811615155b1561508757886001600160a01b0316866001600160a01b0316146150875760405162461bcd60e51b815260040180806020018281038252602a815260200180615add602a913960400191505060405180910390fd5b6001600160a01b0386811660009081526004602090815260408083208b8452909152902080546001600160a01b0319169187169190911790556150cb8188846147a2565b61510082896040518060400160405280601281526020017118591908185b5bdd5b9d1cc819985a5b195960721b81525061386c565b97505b61510e85888a614843565b846001600160a01b0316816001600160a01b0316876001600160a01b03167fb846dc53d3621f480d692e73f4473156d20f23ff6b2c8237b7130b883226cca98a6040518082815260200191505060405180910390a4505050505050505050565b60008061517b85856133ce565b9050600061518986856148cc565b9050600a6001600160601b03166151c582846040518060400160405280600c81526020016b6d756c206f766572666c6f7760a01b81525061524d565b6001600160601b0316816151d557fe5b049695505050505050565b6000836001600160601b0316836001600160601b0316111582906152455760405162461bcd60e51b81526020600482018181528351602484015283519092839260449091019190850190808383600083156138cf5781810151838201526020016138b7565b505050900390565b60006001600160601b03841661526557506000611473565b8383026001600160601b03808516908087169083168161528157fe5b046001600160601b031614839061390a5760405162461bcd60e51b81526020600482018181528351602484015283519092839260449091019190850190808383600083156138cf5781810151838201526020016138b7565b6060808390506060839050606060448251845101036040519080825280601f01601f191660200182016040528015615318576020820181803883390190505b509050806000805b85518110156153715785818151811061533557fe5b602001015160f81c60f81b83838060010194508151811061535257fe5b60200101906001600160f81b031916908160001a905350600101615320565b5060445b84518110156153c65784818151811061538a57fe5b602001015160f81c60f81b8383806001019450815181106153a757fe5b60200101906001600160f81b031916908160001a905350600101615375565b5090979650505050505050565b601954604080516307f6c6f160e41b815290516000926001600160a01b031691637f6c6f10916004808301926020929190829003018186803b15801561541857600080fd5b505afa15801561542c573d6000803e3d6000fd5b505050506040513d602081101561544257600080fd5b5051905090565b6000615471436040518060400160405280600481526020016321a8181b60e11b81525061584b565b905060008363ffffffff161180156154c257506001600160a01b0385166000908152600a60209081526040808320878452825280832063ffffffff6000198801811685529252909120548282169116145b15615523576001600160a01b0385166000908152600a602090815260408083208784528252808320600019870163ffffffff16845290915290208054600160201b600160801b031916600160201b6001600160601b0385160217905561117d565b60408051808201825263ffffffff92831681526001600160601b0393841660208083019182526001600160a01b03989098166000818152600a8a528481208982528a5284812088871682528a52848120935184549351909716600160201b02600160201b600160801b031997871663ffffffff19948516179790971696909617909255908452600b875281842095845294909552939020805460019092019093169116179055565b60006155f343604051806040016040528060048152602001634350303360e01b81525061584b565b905060008363ffffffff161180156156325750600084815260116020908152604080832063ffffffff6000198801811685529252909120548282169116145b15615681576000848152601160209081526040808320600019870163ffffffff16845290915290208054600160201b600160801b031916600160201b6001600160601b0385160217905561134d565b60408051808201825263ffffffff92831681526001600160601b0393841660208083019182526000888152601182528481208887168252825284812093518454935163ffffffff1994851691881691909117600160201b600160801b031916600160201b919098160296909617909255958452601290529091208054909316600190920116179055565b6000615733436040518060400160405280600481526020016321a8189960e11b81525061584b565b905060008363ffffffff161180156157725750600084815260066020908152604080832063ffffffff6000198801811685529252909120548282169116145b156157c1576000848152600660209081526040808320600019870163ffffffff16845290915290208054600160201b600160801b031916600160201b6001600160601b0385160217905561134d565b60408051808201825263ffffffff92831681526001600160601b0393841660208083019182526000888152600682528481208887168252825284812093518454935163ffffffff1994851691881691909117600160201b600160801b031916600160201b919098160296909617909255958452600790529091208054909316600190920116179055565b600081600160201b84106158a05760405162461bcd60e51b81526020600482018181528351602484015283519092839260449091019190850190808383600083156138cf5781810151838201526020016138b7565b509192915050565b801561597957600354604080516323b872dd60e01b81526001600160a01b0388811660048301523060248301526001600160601b0388166044830152915191909216916323b872dd9160648083019260209291908290030181600087803b15801561591257600080fd5b505af1158015615926573d6000803e3d6000fd5b505050506040513d602081101561593c57600080fd5b50516159795760405162461bcd60e51b8152600401808060200182810382526023815260200180615b2d6023913960400191505060405180910390fd5b60006159858484613809565b90506159c781866040518060400160405280601781526020017f696e6372656173655374616b653a206f766572666c6f7700000000000000000081525061386c565b90506159d38386614735565b6159de84848761454b565b6159e78461416f565b156159f6576159f6838661464e565b604080516001600160601b0380881682526020820186905283168183015290516001600160a01b038616917f0fc5b1bac0416800b42a669229a346b6e5a15db3896339dbdc5fa376e1e4570a919081900360600190a2505050505050565b60408051808201909152600080825260208201529056fe496e76616c6964206c6f636b2064617465733a206d7573742067726561746572207468616e20636f6e7472616374206372656174696f6e2074696d657374616d7072656365697665417070726f76616c3a205472616e73616374696f6e20657865637574696f6e2072657665727465642e4f6e6c792073656e64657220697320616c6c6f77656420746f206368616e67652064656c6567617465654f776e61626c653a206e6577206f776e657220697320746865207a65726f206164647265737353686f756c64207472616e7366657220746f6b656e73207375636365737366756c6c796e6f207374616b65732074696c6c207468652070726576206c6f636b2064617465496e76616c6964206c6f636b2064617465733a20657863656564206d6178206475726174696f6e5374616b696e673a3a5f74696d657374616d70546f4c6f636b446174653a207374616b696e6720706572696f6420746f6f2073686f7274496e76616c6964206c6f636b2064617465733a206e6f74206d756c7469706c6573206f662031342064617973454950373132446f6d61696e28737472696e67206e616d652c75696e7432353620636861696e49642c6164647265737320766572696679696e67436f6e74726163742963616e6e6f742064656c656761746520746f20746865207a65726f206164647265737363616e6e6f74206265206d696e656420696e207468652073616d6520626c6f636b206173206c617374207374616b6544656c65676174696f6e28616464726573732064656c6567617465652c75696e74323536206c6f636b446174652c75696e74323536206e6f6e63652c75696e743235362065787069727929496e76616c6964207374616b6520616d6f756e743a2067726561746572207468616e2074686520746f74616c207374616b656420666f7220676976656e206461746563616e6e6f742064656c656761746520746f20746865206578697374696e672064656c6567617465654f6e6c79207374616b65466f72206163636f756e7420697320616c6c6f77656420746f206368616e67652064656c656761746565a265627a7a72315820c7785dd8dbb727652da090cde0cde46dcc3dacda3cf6bc29496e8cea067cf75d64736f6c63430005110032",
    "linkReferences": {}
  },
  "methodIdentifiers": {
    "DELEGATION_TYPEHASH()": "e7a324dc",
    "DOMAIN_TYPEHASH()": "20606b70",
    "MAX_DURATION()": "b1724b46",
    "MAX_VOTING_WEIGHT()": "17748adc",
    "MOCK_priorTotalVotingPower(uint96)": "daeaf2f2",
    "MOCK_priorWeightedStake(uint96)": "0130f0bf",
    "MOCK_priorWeightedStakeAtBlock(uint96,uint256)": "4a15290e",
    "SOVToken()": "a58848c5",
    "WEIGHT_FACTOR()": "d27569e7",
    "addContractCodeHash(address)": "a20d8d03",
    "admins(address)": "429b62e5",
    "allUnlocked()": "9929e886",
    "balanceOf(address)": "70a08231",
    "balanceOf_MultipliedByTwo(address)": "32e9f250",
    "blockMockUp()": "5004b6e4",
    "calculatePriorWeightedStake(address,uint256,uint256)": "472f88f7",
    "computeWeightByDate(uint256,uint256)": "62cf8a08",
    "delegate(address,uint256)": "026e402b",
    "delegateStakingCheckpoints(address,uint256,uint32)": "6b6fde0e",
    "delegates(address,uint256)": "27dd1b00",
    "extendStakingDuration(uint256,uint256)": "eefb8c47",
    "feeSharing()": "03a18fa3",
    "frozen()": "054f7d9c",
    "getCurrentStakedUntil(uint256)": "d5c38464",
    "getCurrentVotes(address)": "b4b5ea57",
    "getFunctionsList()": "d8ad326d",
    "getPriorStakeByDateForDelegatee(address,uint256,uint256)": "e97ffacb",
    "getPriorTotalStakesForDate(uint256,uint256)": "f09cfc64",
    "getPriorTotalVotingPower(uint32,uint256)": "2522d7ba",
    "getPriorUserStakeByDate(address,uint256,uint256)": "cf7b684a",
    "getPriorVestingStakeByDate(uint256,uint256)": "c70a7e96",
    "getPriorVestingWeightedStake(uint256,uint256)": "cdbe7155",
    "getPriorVotes(address,uint256,uint256)": "836eebee",
    "getPriorWeightedStake(address,uint256,uint256)": "37e6b1c1",
    "getPriorWeightedStakeAtBlock(uint256)": "a4813fee",
    "getStakes(address)": "7ba6f458",
    "isOwner()": "8f32d59b",
    "isVestingContract(address)": "ca6860df",
    "kickoffTS()": "00073f99",
    "newStakingContract()": "ae81dfe4",
    "nonces(address)": "7ecebe00",
    "numDelegateStakingCheckpoints(address,uint256)": "94c2ce58",
    "numTotalStakingCheckpoints(uint256)": "9436e7d4",
    "numUserStakingCheckpoints(address,uint256)": "db27ec18",
    "numVestingCheckpoints(uint256)": "bb533cf2",
    "owner()": "8da5cb5b",
    "paused()": "5c975abb",
    "pausers(address)": "80f51c12",
    "priorWeightedStake()": "73420125",
    "priorWeightedStakeAtBlock(uint256)": "4de7adea",
    "receiveApproval(address,uint256,address,bytes)": "8f4ffcb1",
    "removeContractCodeHash(address)": "25464cc5",
    "setBlockMockUpAddr(address)": "a377f244",
    "setDelegateStake(address,uint256,uint96)": "fbbb8ec6",
    "setVestingRegistry(address)": "450b0601",
    "setVestingStakes(uint256[],uint96[])": "6e56c1dd",
    "stake(uint96,uint256,address,address)": "25629ec0",
    "stakeBySchedule(uint256,uint256,uint256,uint256,address,address)": "c1b79b05",
    "stakeWithApproval(address,uint96,uint256,address,address)": "0c09ddfd",
    "stakesBySchedule(uint256,uint256,uint256,uint256,address,address)": "4b2fea1e",
    "timestampToLockDate(uint256)": "72ec9795",
    "totalStakingCheckpoints(uint256,uint32)": "dfb267c2",
    "transferOwnership(address)": "f2fde38b",
    "userStakingCheckpoints(address,uint256,uint32)": "68cefccc",
    "vestingCheckpoints(uint256,uint32)": "f3f19731",
    "vestingCodeHashes(bytes32)": "07392cc0",
    "vestingRegistryLogic()": "104932cf",
    "vestingWhitelist(address)": "adae9002",
    "weightScaling()": "bf626ec1",
    "weightedStakeByDate(address,uint256,uint256,uint256)": "8dae1b16",
    "weightedVestingStakeByDate(uint256,uint256,uint256)": "ba21c6d7"
  },
  "id": 154
}