{
  "abi": [
    {
      "inputs": [
        {
          "internalType": "contract IStaking",
          "name": "_staking",
          "type": "address"
        },
        {
          "internalType": "contract IERC20",
          "name": "_token",
          "type": "address"
        }
      ],
      "payable": false,
      "stateMutability": "nonpayable",
      "type": "constructor"
    },
    {
      "constant": false,
      "inputs": [
        {
          "internalType": "uint96",
          "name": "amount",
          "type": "uint96"
        },
        {
          "internalType": "uint256",
          "name": "until",
          "type": "uint256"
        },
        {
          "internalType": "address",
          "name": "stakeFor",
          "type": "address"
        },
        {
          "internalType": "address",
          "name": "delegatee",
          "type": "address"
        }
      ],
      "name": "stake2times",
      "outputs": [],
      "payable": false,
      "stateMutability": "nonpayable",
      "type": "function"
    },
    {
      "constant": false,
      "inputs": [
        {
          "internalType": "uint96",
          "name": "amount",
          "type": "uint96"
        },
        {
          "internalType": "uint256",
          "name": "until",
          "type": "uint256"
        }
      ],
      "name": "stakeAndExtend",
      "outputs": [],
      "payable": false,
      "stateMutability": "nonpayable",
      "type": "function"
    },
    {
      "constant": false,
      "inputs": [
        {
          "internalType": "uint96",
          "name": "amount",
          "type": "uint96"
        },
        {
          "internalType": "uint256",
          "name": "until",
          "type": "uint256"
        },
        {
          "internalType": "uint256",
          "name": "cliff",
          "type": "uint256"
        },
        {
          "internalType": "uint256",
          "name": "duration",
          "type": "uint256"
        },
        {
          "internalType": "uint256",
          "name": "intervalLength",
          "type": "uint256"
        },
        {
          "internalType": "address",
          "name": "stakeFor",
          "type": "address"
        },
        {
          "internalType": "address",
          "name": "delegatee",
          "type": "address"
        }
      ],
      "name": "stakeAndStakeBySchedule",
      "outputs": [],
      "payable": false,
      "stateMutability": "nonpayable",
      "type": "function"
    }
  ],
  "bytecode": {
    "object": "0x608060405234801561001057600080fd5b50604051610acc380380610acc83398101604081905261002f91610071565b600080546001600160a01b039384166001600160a01b031991821617909155600180549290931691161790556100e4565b805161006b816100cd565b92915050565b6000806040838503121561008457600080fd5b60006100908585610060565b92505060206100a185828601610060565b9150509250929050565b600061006b826100c1565b600061006b826100ab565b6001600160a01b031690565b6100d6816100b6565b81146100e157600080fd5b50565b6109d9806100f36000396000f3fe608060405234801561001057600080fd5b50600436106100415760003560e01c80631c39c326146100465780632daf95191461005b578063f5194d5b1461006e575b600080fd5b61005961005436600461074c565b610081565b005b6100596100693660046106eb565b61027b565b61005961007c3660046106b1565b61046d565b6001546040516323b872dd60e01b81526001600160a01b03909116906323b872dd906100b8903390309060028d029060040161081b565b602060405180830381600087803b1580156100d257600080fd5b505af11580156100e6573d6000803e3d6000fd5b505050506040513d601f19601f8201168201806040525061010a919081019061068b565b61011357600080fd5b60015460005460405163095ea7b360e01b81526001600160a01b039283169263095ea7b39261014c9291169060028c0290600401610843565b602060405180830381600087803b15801561016657600080fd5b505af115801561017a573d6000803e3d6000fd5b505050506040513d601f19601f8201168201806040525061019e919081019061068b565b5060005460405162958a7b60e61b81526001600160a01b03909116906325629ec0906101d4908a908a9087908790600401610880565b600060405180830381600087803b1580156101ee57600080fd5b505af1158015610202573d6000803e3d6000fd5b505060005460405163c1b79b0560e01b81526001600160a01b03909116925063c1b79b059150610240908a90899089908990899089906004016108be565b600060405180830381600087803b15801561025a57600080fd5b505af115801561026e573d6000803e3d6000fd5b5050505050505050505050565b6001546040516323b872dd60e01b81526001600160a01b03909116906323b872dd906102b2903390309060028a029060040161081b565b602060405180830381600087803b1580156102cc57600080fd5b505af11580156102e0573d6000803e3d6000fd5b505050506040513d601f19601f82011682018060405250610304919081019061068b565b61030d57600080fd5b60015460005460405163095ea7b360e01b81526001600160a01b039283169263095ea7b392610346929116906002890290600401610843565b602060405180830381600087803b15801561036057600080fd5b505af1158015610374573d6000803e3d6000fd5b505050506040513d601f19601f82011682018060405250610398919081019061068b565b5060005460405162958a7b60e61b81526001600160a01b03909116906325629ec0906103ce908790879087908790600401610880565b600060405180830381600087803b1580156103e857600080fd5b505af11580156103fc573d6000803e3d6000fd5b505060005460405162958a7b60e61b81526001600160a01b0390911692506325629ec09150610435908790879087908790600401610880565b600060405180830381600087803b15801561044f57600080fd5b505af1158015610463573d6000803e3d6000fd5b5050505050505050565b6001546040516323b872dd60e01b81526001600160a01b03909116906323b872dd906104a19033903090879060040161081b565b602060405180830381600087803b1580156104bb57600080fd5b505af11580156104cf573d6000803e3d6000fd5b505050506040513d601f19601f820116820180604052506104f3919081019061068b565b6104fc57600080fd5b60015460005460405163095ea7b360e01b81526001600160a01b039283169263095ea7b392610532929116908690600401610843565b602060405180830381600087803b15801561054c57600080fd5b505af1158015610560573d6000803e3d6000fd5b505050506040513d601f19601f82011682018060405250610584919081019061068b565b5060005460405162958a7b60e61b81526001600160a01b03909116906325629ec0906105ba908590859030908190600401610880565b600060405180830381600087803b1580156105d457600080fd5b505af11580156105e8573d6000803e3d6000fd5b505060005460405163eefb8c4760e01b81526001600160a01b03909116925063eefb8c47915061062390849062127500820190600401610865565b600060405180830381600087803b15801561063d57600080fd5b505af1158015610651573d6000803e3d6000fd5b505050505050565b803561066481610964565b92915050565b80516106648161097b565b803561066481610984565b80356106648161098d565b60006020828403121561069d57600080fd5b60006106a9848461066a565b949350505050565b600080604083850312156106c457600080fd5b60006106d08585610680565b92505060206106e185828601610675565b9150509250929050565b6000806000806080858703121561070157600080fd5b600061070d8787610680565b945050602061071e87828801610675565b935050604061072f87828801610659565b925050606061074087828801610659565b91505092959194509250565b600080600080600080600060e0888a03121561076757600080fd5b60006107738a8a610680565b97505060206107848a828b01610675565b96505060406107958a828b01610675565b95505060606107a68a828b01610675565b94505060806107b78a828b01610675565b93505060a06107c88a828b01610659565b92505060c06107d98a828b01610659565b91505092959891949750929550565b6107f181610948565b82525050565b6107f181610918565b6107f181610934565b6107f181610959565b6107f181610937565b6060810161082982866107e8565b61083660208301856107f7565b6106a96040830184610809565b6040810161085182856107f7565b61085e6020830184610809565b9392505050565b604081016108738285610800565b61085e6020830184610800565b6080810161088e8287610812565b61089b6020830186610800565b6108a860408301856107f7565b6108b560608301846107f7565b95945050505050565b60c081016108cc8289610809565b6108d96020830188610800565b6108e66040830187610800565b6108f36060830186610800565b61090060808301856107f7565b61090d60a08301846107f7565b979650505050505050565b600061066482610928565b151590565b6001600160a01b031690565b90565b6bffffffffffffffffffffffff1690565b600061066482600061066482610918565b600061066482610937565b61096d81610918565b811461097857600080fd5b50565b61096d81610923565b61096d81610934565b61096d8161093756fea365627a7a723158202663263b12dc3c3b5dc6504ed7f1705b787acbc721ccdc805fc6e1241c81bc806c6578706572696d656e74616cf564736f6c63430005110040",
    "linkReferences": {}
  },
  "methodIdentifiers": {
    "stake2times(uint96,uint256,address,address)": "2daf9519",
    "stakeAndExtend(uint96,uint256)": "f5194d5b",
    "stakeAndStakeBySchedule(uint96,uint256,uint256,uint256,uint256,address,address)": "1c39c326"
  },
  "id": 156
}