{
  "abi": [
    {
      "anonymous": false,
      "inputs": [
        {
          "indexed": false,
          "internalType": "address",
          "name": "admin",
          "type": "address"
        }
      ],
      "name": "AdminAdded",
      "type": "event"
    },
    {
      "anonymous": false,
      "inputs": [
        {
          "indexed": false,
          "internalType": "address",
          "name": "admin",
          "type": "address"
        }
      ],
      "name": "AdminRemoved",
      "type": "event"
    },
    {
      "anonymous": false,
      "inputs": [
        {
          "indexed": false,
          "internalType": "bytes32",
          "name": "hash",
          "type": "bytes32"
        }
      ],
      "name": "ContractCodeHashAdded",
      "type": "event"
    },
    {
      "anonymous": false,
      "inputs": [
        {
          "indexed": false,
          "internalType": "bytes32",
          "name": "hash",
          "type": "bytes32"
        }
      ],
      "name": "ContractCodeHashRemoved",
      "type": "event"
    },
    {
      "anonymous": false,
      "inputs": [
        {
          "indexed": true,
          "internalType": "address",
          "name": "delegator",
          "type": "address"
        },
        {
          "indexed": false,
          "internalType": "uint256",
          "name": "lockedUntil",
          "type": "uint256"
        },
        {
          "indexed": true,
          "internalType": "address",
          "name": "fromDelegate",
          "type": "address"
        },
        {
          "indexed": true,
          "internalType": "address",
          "name": "toDelegate",
          "type": "address"
        }
      ],
      "name": "DelegateChanged",
      "type": "event"
    },
    {
      "anonymous": false,
      "inputs": [
        {
          "indexed": true,
          "internalType": "address",
          "name": "delegate",
          "type": "address"
        },
        {
          "indexed": false,
          "internalType": "uint256",
          "name": "lockedUntil",
          "type": "uint256"
        },
        {
          "indexed": false,
          "internalType": "uint256",
          "name": "previousBalance",
          "type": "uint256"
        },
        {
          "indexed": false,
          "internalType": "uint256",
          "name": "newBalance",
          "type": "uint256"
        }
      ],
      "name": "DelegateStakeChanged",
      "type": "event"
    },
    {
      "anonymous": false,
      "inputs": [
        {
          "indexed": true,
          "internalType": "address",
          "name": "staker",
          "type": "address"
        },
        {
          "indexed": false,
          "internalType": "uint256",
          "name": "previousDate",
          "type": "uint256"
        },
        {
          "indexed": false,
          "internalType": "uint256",
          "name": "newDate",
          "type": "uint256"
        },
        {
          "indexed": false,
          "internalType": "uint256",
          "name": "amountStaked",
          "type": "uint256"
        }
      ],
      "name": "ExtendedStakingDuration",
      "type": "event"
    },
    {
      "anonymous": false,
      "inputs": [
        {
          "indexed": false,
          "internalType": "uint256",
          "name": "oldMaxIterations",
          "type": "uint256"
        },
        {
          "indexed": false,
          "internalType": "uint256",
          "name": "newMaxIterations",
          "type": "uint256"
        }
      ],
      "name": "MaxVestingWithdrawIterationsUpdated",
      "type": "event"
    },
    {
      "anonymous": false,
      "inputs": [
        {
          "indexed": true,
          "internalType": "address",
          "name": "previousOwner",
          "type": "address"
        },
        {
          "indexed": true,
          "internalType": "address",
          "name": "newOwner",
          "type": "address"
        }
      ],
      "name": "OwnershipTransferred",
      "type": "event"
    },
    {
      "anonymous": false,
      "inputs": [
        {
          "indexed": true,
          "internalType": "address",
          "name": "pauser",
          "type": "address"
        },
        {
          "indexed": true,
          "internalType": "bool",
          "name": "added",
          "type": "bool"
        }
      ],
      "name": "PauserAddedOrRemoved",
      "type": "event"
    },
    {
      "anonymous": false,
      "inputs": [
        {
          "indexed": true,
          "internalType": "bool",
          "name": "setFrozen",
          "type": "bool"
        }
      ],
      "name": "StakingFrozen",
      "type": "event"
    },
    {
      "anonymous": false,
      "inputs": [
        {
          "indexed": true,
          "internalType": "bool",
          "name": "setPaused",
          "type": "bool"
        }
      ],
      "name": "StakingPaused",
      "type": "event"
    },
    {
      "anonymous": false,
      "inputs": [
        {
          "indexed": true,
          "internalType": "address",
          "name": "staker",
          "type": "address"
        },
        {
          "indexed": false,
          "internalType": "uint256",
          "name": "amount",
          "type": "uint256"
        },
        {
          "indexed": false,
          "internalType": "uint256",
          "name": "until",
          "type": "uint256"
        },
        {
          "indexed": true,
          "internalType": "address",
          "name": "receiver",
          "type": "address"
        },
        {
          "indexed": false,
          "internalType": "bool",
          "name": "isGovernance",
          "type": "bool"
        }
      ],
      "name": "StakingWithdrawn",
      "type": "event"
    },
    {
      "anonymous": false,
      "inputs": [
        {
          "indexed": true,
          "internalType": "address",
          "name": "caller",
          "type": "address"
        },
        {
          "indexed": false,
          "internalType": "address",
          "name": "receiver",
          "type": "address"
        }
      ],
      "name": "TeamVestingCancelled",
      "type": "event"
    },
    {
      "anonymous": false,
      "inputs": [
        {
          "indexed": true,
          "internalType": "address",
          "name": "caller",
          "type": "address"
        },
        {
          "indexed": false,
          "internalType": "address",
          "name": "receiver",
          "type": "address"
        },
        {
          "indexed": false,
          "internalType": "uint256",
          "name": "lastProcessedDate",
          "type": "uint256"
        }
      ],
      "name": "TeamVestingPartiallyCancelled",
      "type": "event"
    },
    {
      "anonymous": false,
      "inputs": [
        {
          "indexed": true,
          "internalType": "address",
          "name": "staker",
          "type": "address"
        },
        {
          "indexed": false,
          "internalType": "uint256",
          "name": "amount",
          "type": "uint256"
        },
        {
          "indexed": false,
          "internalType": "uint256",
          "name": "lockedUntil",
          "type": "uint256"
        },
        {
          "indexed": false,
          "internalType": "uint256",
          "name": "totalStaked",
          "type": "uint256"
        }
      ],
      "name": "TokensStaked",
      "type": "event"
    },
    {
      "anonymous": false,
      "inputs": [
        {
          "indexed": false,
          "internalType": "uint256",
          "name": "amount",
          "type": "uint256"
        }
      ],
      "name": "TokensUnlocked",
      "type": "event"
    },
    {
      "anonymous": false,
      "inputs": [
        {
          "indexed": false,
          "internalType": "uint256",
          "name": "lockedTS",
          "type": "uint256"
        },
        {
          "indexed": false,
          "internalType": "uint96",
          "name": "value",
          "type": "uint96"
        }
      ],
      "name": "VestingStakeSet",
      "type": "event"
    },
    {
      "anonymous": false,
      "inputs": [
        {
          "indexed": false,
          "internalType": "address",
          "name": "vesting",
          "type": "address"
        },
        {
          "indexed": false,
          "internalType": "address",
          "name": "receiver",
          "type": "address"
        }
      ],
      "name": "VestingTokensWithdrawn",
      "type": "event"
    },
    {
      "constant": true,
      "inputs": [],
      "name": "DELEGATION_TYPEHASH",
      "outputs": [
        {
          "internalType": "bytes32",
          "name": "",
          "type": "bytes32"
        }
      ],
      "payable": false,
      "stateMutability": "view",
      "type": "function"
    },
    {
      "constant": true,
      "inputs": [],
      "name": "DOMAIN_TYPEHASH",
      "outputs": [
        {
          "internalType": "bytes32",
          "name": "",
          "type": "bytes32"
        }
      ],
      "payable": false,
      "stateMutability": "view",
      "type": "function"
    },
    {
      "constant": true,
      "inputs": [],
      "name": "MAX_DURATION",
      "outputs": [
        {
          "internalType": "uint256",
          "name": "",
          "type": "uint256"
        }
      ],
      "payable": false,
      "stateMutability": "view",
      "type": "function"
    },
    {
      "constant": true,
      "inputs": [],
      "name": "MAX_VOTING_WEIGHT",
      "outputs": [
        {
          "internalType": "uint96",
          "name": "",
          "type": "uint96"
        }
      ],
      "payable": false,
      "stateMutability": "view",
      "type": "function"
    },
    {
      "constant": true,
      "inputs": [],
      "name": "SOVToken",
      "outputs": [
        {
          "internalType": "contract IERC20",
          "name": "",
          "type": "address"
        }
      ],
      "payable": false,
      "stateMutability": "view",
      "type": "function"
    },
    {
      "constant": true,
      "inputs": [],
      "name": "WEIGHT_FACTOR",
      "outputs": [
        {
          "internalType": "uint96",
          "name": "",
          "type": "uint96"
        }
      ],
      "payable": false,
      "stateMutability": "view",
      "type": "function"
    },
    {
      "constant": true,
      "inputs": [
        {
          "internalType": "address",
          "name": "",
          "type": "address"
        }
      ],
      "name": "admins",
      "outputs": [
        {
          "internalType": "bool",
          "name": "",
          "type": "bool"
        }
      ],
      "payable": false,
      "stateMutability": "view",
      "type": "function"
    },
    {
      "constant": true,
      "inputs": [],
      "name": "allUnlocked",
      "outputs": [
        {
          "internalType": "bool",
          "name": "",
          "type": "bool"
        }
      ],
      "payable": false,
      "stateMutability": "view",
      "type": "function"
    },
    {
      "constant": false,
      "inputs": [
        {
          "internalType": "address",
          "name": "vesting",
          "type": "address"
        },
        {
          "internalType": "address",
          "name": "receiver",
          "type": "address"
        },
        {
          "internalType": "uint256",
          "name": "startFrom",
          "type": "uint256"
        }
      ],
      "name": "cancelTeamVesting",
      "outputs": [],
      "payable": false,
      "stateMutability": "nonpayable",
      "type": "function"
    },
    {
      "constant": true,
      "inputs": [
        {
          "internalType": "address",
          "name": "",
          "type": "address"
        },
        {
          "internalType": "uint256",
          "name": "",
          "type": "uint256"
        },
        {
          "internalType": "uint32",
          "name": "",
          "type": "uint32"
        }
      ],
      "name": "delegateStakingCheckpoints",
      "outputs": [
        {
          "internalType": "uint32",
          "name": "fromBlock",
          "type": "uint32"
        },
        {
          "internalType": "uint96",
          "name": "stake",
          "type": "uint96"
        }
      ],
      "payable": false,
      "stateMutability": "view",
      "type": "function"
    },
    {
      "constant": true,
      "inputs": [
        {
          "internalType": "address",
          "name": "",
          "type": "address"
        },
        {
          "internalType": "uint256",
          "name": "",
          "type": "uint256"
        }
      ],
      "name": "delegates",
      "outputs": [
        {
          "internalType": "address",
          "name": "",
          "type": "address"
        }
      ],
      "payable": false,
      "stateMutability": "view",
      "type": "function"
    },
    {
      "constant": true,
      "inputs": [],
      "name": "feeSharing",
      "outputs": [
        {
          "internalType": "contract IFeeSharingCollector",
          "name": "",
          "type": "address"
        }
      ],
      "payable": false,
      "stateMutability": "view",
      "type": "function"
    },
    {
      "constant": true,
      "inputs": [],
      "name": "frozen",
      "outputs": [
        {
          "internalType": "bool",
          "name": "",
          "type": "bool"
        }
      ],
      "payable": false,
      "stateMutability": "view",
      "type": "function"
    },
    {
      "constant": true,
      "inputs": [],
      "name": "getFunctionsList",
      "outputs": [
        {
          "internalType": "bytes4[]",
          "name": "",
          "type": "bytes4[]"
        }
      ],
      "payable": false,
      "stateMutability": "pure",
      "type": "function"
    },
    {
      "constant": true,
      "inputs": [
        {
          "internalType": "uint96",
          "name": "amount",
          "type": "uint96"
        },
        {
          "internalType": "uint256",
          "name": "until",
          "type": "uint256"
        }
      ],
      "name": "getWithdrawAmounts",
      "outputs": [
        {
          "internalType": "uint96",
          "name": "",
          "type": "uint96"
        },
        {
          "internalType": "uint96",
          "name": "",
          "type": "uint96"
        }
      ],
      "payable": false,
      "stateMutability": "view",
      "type": "function"
    },
    {
      "constant": false,
      "inputs": [
        {
          "internalType": "uint96",
          "name": "amount",
          "type": "uint96"
        },
        {
          "internalType": "uint256",
          "name": "until",
          "type": "uint256"
        },
        {
          "internalType": "address",
          "name": "receiver",
          "type": "address"
        }
      ],
      "name": "governanceWithdraw",
      "outputs": [],
      "payable": false,
      "stateMutability": "nonpayable",
      "type": "function"
    },
    {
      "constant": false,
      "inputs": [
        {
          "internalType": "address",
          "name": "vesting",
          "type": "address"
        },
        {
          "internalType": "address",
          "name": "receiver",
          "type": "address"
        }
      ],
      "name": "governanceWithdrawVesting",
      "outputs": [],
      "payable": false,
      "stateMutability": "nonpayable",
      "type": "function"
    },
    {
      "constant": true,
      "inputs": [],
      "name": "isOwner",
      "outputs": [
        {
          "internalType": "bool",
          "name": "",
          "type": "bool"
        }
      ],
      "payable": false,
      "stateMutability": "view",
      "type": "function"
    },
    {
      "constant": true,
      "inputs": [],
      "name": "kickoffTS",
      "outputs": [
        {
          "internalType": "uint256",
          "name": "",
          "type": "uint256"
        }
      ],
      "payable": false,
      "stateMutability": "view",
      "type": "function"
    },
    {
      "constant": true,
      "inputs": [],
      "name": "newStakingContract",
      "outputs": [
        {
          "internalType": "address",
          "name": "",
          "type": "address"
        }
      ],
      "payable": false,
      "stateMutability": "view",
      "type": "function"
    },
    {
      "constant": true,
      "inputs": [
        {
          "internalType": "address",
          "name": "",
          "type": "address"
        }
      ],
      "name": "nonces",
      "outputs": [
        {
          "internalType": "uint256",
          "name": "",
          "type": "uint256"
        }
      ],
      "payable": false,
      "stateMutability": "view",
      "type": "function"
    },
    {
      "constant": true,
      "inputs": [
        {
          "internalType": "address",
          "name": "",
          "type": "address"
        },
        {
          "internalType": "uint256",
          "name": "",
          "type": "uint256"
        }
      ],
      "name": "numDelegateStakingCheckpoints",
      "outputs": [
        {
          "internalType": "uint32",
          "name": "",
          "type": "uint32"
        }
      ],
      "payable": false,
      "stateMutability": "view",
      "type": "function"
    },
    {
      "constant": true,
      "inputs": [
        {
          "internalType": "uint256",
          "name": "",
          "type": "uint256"
        }
      ],
      "name": "numTotalStakingCheckpoints",
      "outputs": [
        {
          "internalType": "uint32",
          "name": "",
          "type": "uint32"
        }
      ],
      "payable": false,
      "stateMutability": "view",
      "type": "function"
    },
    {
      "constant": true,
      "inputs": [
        {
          "internalType": "address",
          "name": "",
          "type": "address"
        },
        {
          "internalType": "uint256",
          "name": "",
          "type": "uint256"
        }
      ],
      "name": "numUserStakingCheckpoints",
      "outputs": [
        {
          "internalType": "uint32",
          "name": "",
          "type": "uint32"
        }
      ],
      "payable": false,
      "stateMutability": "view",
      "type": "function"
    },
    {
      "constant": true,
      "inputs": [
        {
          "internalType": "uint256",
          "name": "",
          "type": "uint256"
        }
      ],
      "name": "numVestingCheckpoints",
      "outputs": [
        {
          "internalType": "uint32",
          "name": "",
          "type": "uint32"
        }
      ],
      "payable": false,
      "stateMutability": "view",
      "type": "function"
    },
    {
      "constant": true,
      "inputs": [],
      "name": "owner",
      "outputs": [
        {
          "internalType": "address",
          "name": "",
          "type": "address"
        }
      ],
      "payable": false,
      "stateMutability": "view",
      "type": "function"
    },
    {
      "constant": true,
      "inputs": [],
      "name": "paused",
      "outputs": [
        {
          "internalType": "bool",
          "name": "",
          "type": "bool"
        }
      ],
      "payable": false,
      "stateMutability": "view",
      "type": "function"
    },
    {
      "constant": true,
      "inputs": [
        {
          "internalType": "address",
          "name": "",
          "type": "address"
        }
      ],
      "name": "pausers",
      "outputs": [
        {
          "internalType": "bool",
          "name": "",
          "type": "bool"
        }
      ],
      "payable": false,
      "stateMutability": "view",
      "type": "function"
    },
    {
      "constant": false,
      "inputs": [
        {
          "internalType": "uint256",
          "name": "newMaxIterations",
          "type": "uint256"
        }
      ],
      "name": "setMaxVestingWithdrawIterations",
      "outputs": [],
      "payable": false,
      "stateMutability": "nonpayable",
      "type": "function"
    },
    {
      "constant": true,
      "inputs": [
        {
          "internalType": "uint256",
          "name": "",
          "type": "uint256"
        },
        {
          "internalType": "uint32",
          "name": "",
          "type": "uint32"
        }
      ],
      "name": "totalStakingCheckpoints",
      "outputs": [
        {
          "internalType": "uint32",
          "name": "fromBlock",
          "type": "uint32"
        },
        {
          "internalType": "uint96",
          "name": "stake",
          "type": "uint96"
        }
      ],
      "payable": false,
      "stateMutability": "view",
      "type": "function"
    },
    {
      "constant": false,
      "inputs": [
        {
          "internalType": "address",
          "name": "newOwner",
          "type": "address"
        }
      ],
      "name": "transferOwnership",
      "outputs": [],
      "payable": false,
      "stateMutability": "nonpayable",
      "type": "function"
    },
    {
      "constant": false,
      "inputs": [],
      "name": "unlockAllTokens",
      "outputs": [],
      "payable": false,
      "stateMutability": "nonpayable",
      "type": "function"
    },
    {
      "constant": true,
      "inputs": [
        {
          "internalType": "address",
          "name": "",
          "type": "address"
        },
        {
          "internalType": "uint256",
          "name": "",
          "type": "uint256"
        },
        {
          "internalType": "uint32",
          "name": "",
          "type": "uint32"
        }
      ],
      "name": "userStakingCheckpoints",
      "outputs": [
        {
          "internalType": "uint32",
          "name": "fromBlock",
          "type": "uint32"
        },
        {
          "internalType": "uint96",
          "name": "stake",
          "type": "uint96"
        }
      ],
      "payable": false,
      "stateMutability": "view",
      "type": "function"
    },
    {
      "constant": true,
      "inputs": [
        {
          "internalType": "uint256",
          "name": "",
          "type": "uint256"
        },
        {
          "internalType": "uint32",
          "name": "",
          "type": "uint32"
        }
      ],
      "name": "vestingCheckpoints",
      "outputs": [
        {
          "internalType": "uint32",
          "name": "fromBlock",
          "type": "uint32"
        },
        {
          "internalType": "uint96",
          "name": "stake",
          "type": "uint96"
        }
      ],
      "payable": false,
      "stateMutability": "view",
      "type": "function"
    },
    {
      "constant": true,
      "inputs": [
        {
          "internalType": "bytes32",
          "name": "",
          "type": "bytes32"
        }
      ],
      "name": "vestingCodeHashes",
      "outputs": [
        {
          "internalType": "bool",
          "name": "",
          "type": "bool"
        }
      ],
      "payable": false,
      "stateMutability": "view",
      "type": "function"
    },
    {
      "constant": true,
      "inputs": [],
      "name": "vestingRegistryLogic",
      "outputs": [
        {
          "internalType": "contract IVestingRegistry",
          "name": "",
          "type": "address"
        }
      ],
      "payable": false,
      "stateMutability": "view",
      "type": "function"
    },
    {
      "constant": true,
      "inputs": [
        {
          "internalType": "address",
          "name": "",
          "type": "address"
        }
      ],
      "name": "vestingWhitelist",
      "outputs": [
        {
          "internalType": "bool",
          "name": "",
          "type": "bool"
        }
      ],
      "payable": false,
      "stateMutability": "view",
      "type": "function"
    },
    {
      "constant": true,
      "inputs": [],
      "name": "weightScaling",
      "outputs": [
        {
          "internalType": "uint96",
          "name": "",
          "type": "uint96"
        }
      ],
      "payable": false,
      "stateMutability": "view",
      "type": "function"
    },
    {
      "constant": false,
      "inputs": [
        {
          "internalType": "uint96",
          "name": "amount",
          "type": "uint96"
        },
        {
          "internalType": "uint256",
          "name": "until",
          "type": "uint256"
        },
        {
          "internalType": "address",
          "name": "receiver",
          "type": "address"
        }
      ],
      "name": "withdraw",
      "outputs": [],
      "payable": false,
      "stateMutability": "nonpayable",
      "type": "function"
    }
  ],
  "bytecode": {
    "object": "0x60c0604052600a608081905269534f565374616b696e6760b01b60a09081526200002d9160029190620000ae565b506005805460ff19169055600d80546001600160a01b0316600360a01b179055600062000059620000a9565b600080546001600160a01b0319166001600160a01b0383169081178255604051929350917f8be0079c531659141344cd1fd0a4f28419497f9722a3daafe3b4186f6b6457e0908290a35062000150565b335b90565b828054600181600116156101000203166002900490600052602060002090601f016020900481019282601f10620000f157805160ff191683800117855562000121565b8280016001018555821562000121579182015b828111156200012157825182559160200191906001019062000104565b506200012f92915062000133565b5090565b620000ab91905b808211156200012f57600081556001016200013a565b6132c880620001606000396000f3fe608060405234801561001057600080fd5b506004361061023c5760003560e01c80638da5cb5b1161013b578063bb533cf2116100b8578063db27ec181161007c578063db27ec181461048e578063dfb267c2146104a1578063e7a324dc146104b4578063f2fde38b146104bc578063f3f19731146104cf5761023c565b8063bb533cf214610443578063bf626ec114610456578063d27569e71461045e578063d8ad326d14610466578063dab6ca441461047b5761023c565b80639929e886116100ff5780639929e88614610410578063a58848c514610418578063adae900214610420578063ae81dfe414610433578063b1724b461461043b5761023c565b80638da5cb5b146103ac5780638f32d59b146103b45780639436e7d4146103bc57806394c2ce58146103dc57806396a590c1146103ef5761023c565b8063429b62e5116101c95780636b6fde0e1161018d5780636b6fde0e1461034d578063765dade9146103605780637ecebe0014610373578063800b64ca1461038657806380f51c12146103995761023c565b8063429b62e5146102f65780635b66a324146103095780635c975abb1461031c5780635e0be6071461032457806368cefccc1461032c5761023c565b8063104932cf11610210578063104932cf1461029c57806317748adc146102a457806320606b70146102b957806327dd1b00146102c15780633827fca5146102e15761023c565b8062073f991461024157806303a18fa31461025f578063054f7d9c1461027457806307392cc014610289575b600080fd5b6102496104e2565b6040516102569190612fea565b60405180910390f35b6102676104e8565b6040516102569190612ff8565b61027c6104f7565b6040516102569190612fdc565b61027c610297366004612919565b610505565b61026761051a565b6102ac610529565b6040516102569190613169565b61024961052e565b6102d46102cf366004612888565b610545565b6040516102569190612f51565b6102f46102ef366004612801565b61056b565b005b61027c6103043660046127bd565b6106ae565b6102f4610317366004612919565b6106c3565b61027c610789565b6102f4610792565b61033f61033a3660046128b8565b6108a2565b60405161025692919061315b565b61033f61035b3660046128b8565b6108dd565b6102f461036e36600461283b565b610918565b6102496103813660046127bd565b610a2a565b6102f46103943660046129a4565b610a3c565b61027c6103a73660046127bd565b610ab6565b6102d4610acb565b61027c610ada565b6103cf6103ca366004612919565b610afe565b604051610256919061314d565b6103cf6103ea366004612888565b610b16565b6104026103fd366004612985565b610b39565b60405161025692919061319f565b61027c610b6a565b610267610b73565b61027c61042e3660046127bd565b610b82565b6102d4610b97565b610249610bab565b6103cf610451366004612919565b610bb3565b6102ac610bcb565b6102ac610be1565b61046e610be6565b6040516102569190612fcb565b6102f46104893660046129a4565b610d66565b6103cf61049c366004612888565b610dbc565b61033f6104af366004612955565b610ddf565b610249610e14565b6102f46104ca3660046127bd565b610e20565b61033f6104dd366004612955565b610e50565b60015481565b600d546001600160a01b031681565b601554610100900460ff1681565b60106020526000908152604090205460ff1681565b6013546001600160a01b031681565b600981565b60405161053a90612f3b565b604051809103902081565b60046020908152600092835260408084209091529082529020546001600160a01b031681565b610573610ada565b8061058d5750336000908152600f602052604090205460ff165b6105b25760405162461bcd60e51b81526004016105a990613087565b60405180910390fd5b601554610100900460ff16156105da5760405162461bcd60e51b81526004016105a9906130f7565b6001600160a01b0382166000818152600e602052604090819020805460ff1916600117905551633c7925e360e11b81526378f24bc69061061e908490600401612f51565b600060405180830381600087803b15801561063857600080fd5b505af115801561064c573d6000803e3d6000fd5b5050506001600160a01b0383166000908152600e602052604090819020805460ff19169055517f2366e0b6b1af17c0ceed50685c570d519cae11e7faaf007bbe667e94a5ee3cd591506106a29084908490612f5f565b60405180910390a15050565b600f6020526000908152604090205460ff1681565b6106cb610ada565b806106e55750336000908152600f602052604090205460ff165b6107015760405162461bcd60e51b81526004016105a990613087565b601554610100900460ff16156107295760405162461bcd60e51b81526004016105a9906130f7565b600081116107495760405162461bcd60e51b81526004016105a990613057565b7f22eba8caa37576c2c857166fc151e8b5bb22942eaef5638da0e96d6156333bee6016548260405161077c929190613117565b60405180910390a1601655565b60155460ff1681565b61079a610ada565b6107b65760405162461bcd60e51b81526004016105a990613087565b601554610100900460ff16156107de5760405162461bcd60e51b81526004016105a9906130f7565b6005805460ff191660011790556003546040516370a0823160e01b81527fd8cc4e8d808fe950b07bfffcd83eebf1190cd35ea77fe0c8a7d75a6e9b90e5c1916001600160a01b0316906370a082319061083b903090600401612f51565b60206040518083038186803b15801561085357600080fd5b505afa158015610867573d6000803e3d6000fd5b505050506040513d601f19601f8201168201806040525061088b9190810190612937565b6040516108989190612fea565b60405180910390a1565b600a60209081526000938452604080852082529284528284209052825290205463ffffffff811690600160201b90046001600160601b031682565b600860209081526000938452604080852082529284528284209052825290205463ffffffff811690600160201b90046001600160601b031682565b610920610ada565b8061093a5750336000908152600f602052604090205460ff165b6109565760405162461bcd60e51b81526004016105a990613087565b601554610100900460ff161561097e5760405162461bcd60e51b81526004016105a9906130f7565b601354604051637a10f6bf60e11b81526001600160a01b039091169063f421ed7e906109ae908690600401612f51565b60206040518083038186803b1580156109c657600080fd5b505afa1580156109da573d6000803e3d6000fd5b505050506040513d601f19601f820116820180604052506109fe91908101906128fb565b610a1a5760405162461bcd60e51b81526004016105a9906130e7565b610a25838383610e85565b505050565b600c6020526000908152604090205481565b601554610100900460ff1615610a645760405162461bcd60e51b81526004016105a9906130f7565b336000908152600e602052604090205460ff16610a935760405162461bcd60e51b81526004016105a990613087565b610a9d823361124c565b610aaa83838360016112c3565b610a25828260016115bc565b60146020526000908152604090205460ff1681565b6000546001600160a01b031690565b600080546001600160a01b0316610aef611626565b6001600160a01b031614905090565b60076020526000908152604090205463ffffffff1681565b600960209081526000928352604080842090915290825290205463ffffffff1681565b600080610b458361162a565b9250610b52338585611652565b6000610b5e85856116bf565b94859003959350505050565b60055460ff1681565b6003546001600160a01b031681565b600e6020526000908152604090205460ff1681565b60055461010090046001600160a01b031681565b63059fa60081565b60126020526000908152604090205463ffffffff1681565b600d54600160a01b90046001600160601b031681565b600a81565b60408051600780825261010082019092526060918291906020820160e08038833901905050905063dab6ca4460e01b81600081518110610c2257fe5b6001600160e01b031990921660209283029190910190910152805163765dade960e01b9082906001908110610c5357fe5b6001600160e01b03199092166020928302919091019091015280516396a590c160e01b9082906002908110610c8457fe5b6001600160e01b0319909216602092830291909101909101528051635e0be60760e01b9082906003908110610cb557fe5b6001600160e01b03199092166020928302919091019091015280516316d9a8c960e21b9082906004908110610ce657fe5b6001600160e01b0319909216602092830291909101909101528051634005b26560e11b9082906005908110610d1757fe5b6001600160e01b0319909216602092830291909101909101528051633827fca560e01b9082906006908110610d4857fe5b6001600160e01b031990921660209283029190910190910152905090565b601554610100900460ff1615610d8e5760405162461bcd60e51b81526004016105a9906130f7565b610d978261162a565b9150610da3823361124c565b610db083838360006112c3565b610a25828260006115bc565b600b60209081526000928352604080842090915290825290205463ffffffff1681565b600660209081526000928352604080842090915290825290205463ffffffff811690600160201b90046001600160601b031682565b60405161053a90612f46565b610e28610ada565b610e445760405162461bcd60e51b81526004016105a990613087565b610e4d8161170b565b50565b601160209081526000928352604080842090915290825290205463ffffffff811690600160201b90046001600160601b031682565b6001600160a01b038216610eab5760405162461bcd60e51b81526004016105a9906130d7565b82610eb4612711565b6040518060c00160405280866001600160a01b03168152602001836001600160a01b0316630b97bc866040518163ffffffff1660e01b815260040160206040518083038186803b158015610f0757600080fd5b505afa158015610f1b573d6000803e3d6000fd5b505050506040513d601f19601f82011682018060405250610f3f9190810190612937565b8152602001836001600160a01b031663c24a0f8b6040518163ffffffff1660e01b815260040160206040518083038186803b158015610f7d57600080fd5b505afa158015610f91573d6000803e3d6000fd5b505050506040513d601f19601f82011682018060405250610fb59190810190612937565b8152602001836001600160a01b03166313d033c06040518163ffffffff1660e01b815260040160206040518083038186803b158015610ff357600080fd5b505afa158015611007573d6000803e3d6000fd5b505050506040513d601f19601f8201168201806040525061102b9190810190612937565b8152602001836001600160a01b0316630fb5a6b46040518163ffffffff1660e01b815260040160206040518083038186803b15801561106957600080fd5b505afa15801561107d573d6000803e3d6000fd5b505050506040513d601f19601f820116820180604052506110a19190810190612937565b8152602001836001600160a01b031663a3e676106040518163ffffffff1660e01b815260040160206040518083038186803b1580156110df57600080fd5b505afa1580156110f3573d6000803e3d6000fd5b505050506040513d601f19601f8201168201806040525061111791908101906127e3565b6001600160a01b03169052604081015160608201516020830151929350909101808510156111455780611147565b845b945060006001601654036212750002860190506000818410611169578161116b565b835b9050865b8181116111ae5760006111868b836001430361178c565b90506001600160601b038116156111a3576111a381838c8a6119e2565b50621275000161116f565b50838110156111ff57336001600160a01b03167ff1cfeb0937231950f2400ba429108263d3af23c90f72599bf13148e6332fe06d89836040516111f2929190612f7a565b60405180910390a2611241565b336001600160a01b03167f9436f4ed1fe17491f53c6d68a08b946bc9884039fccd83e8190203e15eff55bf896040516112389190612f51565b60405180910390a25b505050505050505050565b6001600160a01b0381166000818152600b60209081526040808320868452825280832054938352600a8252808320868452825280832060001963ffffffff95861690810186168552925290912054909116431415806112bd5760405162461bcd60e51b81526004016105a9906130c7565b50505050565b836001600160601b031660011480156112e057506112e033611b46565b156112ea576112bd565b6112f5338585611652565b6001600160a01b038216611307573391505b6113118385611c1f565b61131c338486611c99565b61132533611b46565b15611334576113348385611d38565b336000908152600460209081526040808320868452909152902054611363906001600160a01b03168486611db2565b8242108015611375575060055460ff16155b801561137f575080155b156114c257600061139085856116bf565b948590039490506001600160601b038116156114c057600d546001600160a01b03166113ce5760405162461bcd60e51b81526004016105a990613107565b600354600d5460405163095ea7b360e01b81526001600160a01b039283169263095ea7b392611404929116908590600401612f95565b602060405180830381600087803b15801561141e57600080fd5b505af1158015611432573d6000803e3d6000fd5b505050506040513d601f19601f8201168201806040525061145691908101906128fb565b50600d5460035460405163abe979e160e01b81526001600160a01b039283169263abe979e19261148d929116908590600401612fb0565b600060405180830381600087803b1580156114a757600080fd5b505af11580156114bb573d6000803e3d6000fd5b505050505b505b60035460405163a9059cbb60e01b81526000916001600160a01b03169063a9059cbb906114f59086908990600401612f95565b602060405180830381600087803b15801561150f57600080fd5b505af1158015611523573d6000803e3d6000fd5b505050506040513d601f19601f8201168201806040525061154791908101906128fb565b9050806115665760405162461bcd60e51b81526004016105a990613067565b826001600160a01b0316336001600160a01b03167f667b6c8ed8622dae7927a8b0837455098e32037a0181f9a2e21b9b72fead6cc78787866040516115ad93929190613177565b60405180910390a35050505050565b6115c533611b46565b15610a255760006115df846212750063ffffffff611e5316565b905081806115ed5750804210155b156112bd57600061160233836001430361178c565b90506001600160601b0381161561161f5761161f818386866112c3565b5050505050565b3390565b60008061163683611e78565b90508281146116485762127500810192505b829150505b919050565b6000826001600160601b03161161167b5760405162461bcd60e51b81526004016105a990613077565b600061168b84836001430361178c565b9050806001600160601b0316836001600160601b031611156112bd5760405162461bcd60e51b81526004016105a990613037565b6000806116cb42611e78565b905060006116d98483611eb8565b600d546064600a6001600160601b03600160a01b90930483169390930288028216929092041604925050505b92915050565b6001600160a01b0381166117315760405162461bcd60e51b81526004016105a990613027565b600080546040516001600160a01b03808516939216917f8be0079c531659141344cd1fd0a4f28419497f9722a3daafe3b4186f6b6457e091a3600080546001600160a01b0319166001600160a01b0392909216919091179055565b6000611796611fee565b82106117b45760405162461bcd60e51b81526004016105a9906130a7565b6117bd8361162a565b6001600160a01b0385166000908152600b6020908152604080832084845290915290205490935063ffffffff16806117f95760009150506119db565b6001600160a01b0385166000908152600a60209081526040808320878452825280832063ffffffff600019860181168552925290912054168310611885576001600160a01b0385166000908152600a6020908152604080832087845282528083206000199490940163ffffffff1683529290522054600160201b90046001600160601b031690506119db565b6001600160a01b0385166000908152600a60209081526040808320878452825280832083805290915290205463ffffffff168310156118c85760009150506119db565b600060001982015b8163ffffffff168163ffffffff16111561199357600282820363ffffffff160481036118fa612759565b506001600160a01b0388166000908152600a602090815260408083208a8452825280832063ffffffff858116855290835292819020815180830190925254928316808252600160201b9093046001600160601b0316918101919091529087141561196e576020015194506119db9350505050565b805163ffffffff168711156119855781935061198c565b6001820392505b50506118d0565b506001600160a01b0386166000908152600a60209081526040808320888452825280832063ffffffff909416835292905220546001600160601b03600160201b909104169150505b9392505050565b80516119ed84611e78565b93506119fa818686611652565b611a048486611c1f565b611a0f818587611c99565b611a198486611d38565b6001600160a01b038082166000908152600460209081526040808320888452909152902054611a4a91168587611db2565b60035460405163a9059cbb60e01b81526000916001600160a01b03169063a9059cbb90611a7d9087908a90600401612f95565b602060405180830381600087803b158015611a9757600080fd5b505af1158015611aab573d6000803e3d6000fd5b505050506040513d601f19601f82011682018060405250611acf91908101906128fb565b905080611aee5760405162461bcd60e51b81526004016105a990613067565b836001600160a01b0316826001600160a01b03167f667b6c8ed8622dae7927a8b0837455098e32037a0181f9a2e21b9b72fead6cc788886001604051611b3693929190613177565b60405180910390a3505050505050565b6013546000908190833f906001600160a01b031615611be257601354604051633288436360e21b81526001600160a01b039091169063ca210d8c90611b8f908790600401612f51565b60206040518083038186803b158015611ba757600080fd5b505afa158015611bbb573d6000803e3d6000fd5b505050506040513d601f19601f82011682018060405250611bdf91908101906128fb565b91505b8115611bf35760019250505061164d565b60008181526010602052604090205460ff1615611c155760019250505061164d565b5060009392505050565b6000828152600760209081526040808320546006835281842063ffffffff91821660001981019092168552835281842054825180840190935260048352634350313160e01b9383019390935292600160201b9092046001600160601b03169190611c8c9083908690611ff2565b905061161f858483612031565b6001600160a01b0383166000818152600b60209081526040808320868452825280832054938352600a8252808320868452825280832063ffffffff94851660001981019095168452825280832054815180830190925260048252634350303560e01b92820192909252600160201b9091046001600160601b03169190611d229083908690611ff2565b9050611d3086868584612171565b505050505050565b6000828152601260209081526040808320546011835281842063ffffffff918216600019810190921685528352818420548251808401909352600483526321a8181960e11b9383019390935292600160201b9092046001600160601b03169190611da59083908690611ff2565b905061161f8584836122f3565b6001600160a01b038316600081815260096020908152604080832086845282528083205493835260088252808320868452825280832063ffffffff94851660001981019095168452909152812054600160201b90046001600160601b0390811691908416821115611e4757611e44828560405180604001604052806004815260200163086a060760e31b815250611ff2565b90505b611d3086868584612433565b6000828201838110156119db5760405162461bcd60e51b81526004016105a990613047565b60015460009080831015611e9e5760405162461bcd60e51b81526004016105a990613017565b600062127500828503046212750002919091019392505050565b600081831015611eda5760405162461bcd60e51b81526004016105a990613097565b81830363059fa600811115611f015760405162461bcd60e51b81526004016105a9906130b7565b6000620151808263059fa600036001600160601b031681611f1e57fe5b049050611fe5600a621232106001600160601b0316611fa4600a600902611f73621232108788026040518060400160405280601081526020016f77656967687420756e646572666c6f7760801b815250611ff2565b60405180604001604052806013815260200172776569676874206d756c206f766572666c6f7760681b815250612648565b6001600160601b031681611fb457fe5b04604051806040016040528060128152602001711bdd995c999b1bddc81bdb881dd95a59da1d60721b8152506126af565b95945050505050565b4390565b6000836001600160601b0316836001600160601b0316111582906120295760405162461bcd60e51b81526004016105a99190613006565b505050900390565b6000612059436040518060400160405280600481526020016321a8189960e11b8152506126e2565b905060008363ffffffff161180156120985750600084815260066020908152604080832063ffffffff6000198801811685529252909120548282169116145b156120e7576000848152600660209081526040808320600019870163ffffffff16845290915290208054600160201b600160801b031916600160201b6001600160601b038516021790556112bd565b60408051808201825263ffffffff92831681526001600160601b0393841660208083019182526000888152600682528481208887168252825284812093518454935163ffffffff1994851691881691909117600160201b600160801b031916600160201b919098160296909617909255958452600790529091208054909316600190920116179055565b6000612199436040518060400160405280600481526020016321a8181b60e11b8152506126e2565b905060008363ffffffff161180156121ea57506001600160a01b0385166000908152600a60209081526040808320878452825280832063ffffffff6000198801811685529252909120548282169116145b1561224b576001600160a01b0385166000908152600a602090815260408083208784528252808320600019870163ffffffff16845290915290208054600160201b600160801b031916600160201b6001600160601b0385160217905561161f565b60408051808201825263ffffffff92831681526001600160601b0393841660208083019182526001600160a01b03989098166000818152600a8a528481208982528a5284812088871682528a52848120935184549351909716600160201b02600160201b600160801b031997871663ffffffff19948516179790971696909617909255908452600b875281842095845294909552939020805460019092019093169116179055565b600061231b43604051806040016040528060048152602001634350303360e01b8152506126e2565b905060008363ffffffff1611801561235a5750600084815260116020908152604080832063ffffffff6000198801811685529252909120548282169116145b156123a9576000848152601160209081526040808320600019870163ffffffff16845290915290208054600160201b600160801b031916600160201b6001600160601b038516021790556112bd565b60408051808201825263ffffffff92831681526001600160601b0393841660208083019182526000888152601182528481208887168252825284812093518454935163ffffffff1994851691881691909117600160201b600160801b031916600160201b919098160296909617909255958452601290529091208054909316600190920116179055565b600061245b43604051806040016040528060048152602001634350303960e01b8152506126e2565b6001600160a01b03861660009081526008602090815260408083208884528252808320600019880163ffffffff9081168552925290912054919250600160201b9091046001600160601b0316908416158015906124f157506001600160a01b0386166000908152600860209081526040808320888452825280832063ffffffff6000198901811685529252909120548382169116145b15612552576001600160a01b03861660009081526008602090815260408083208884528252808320600019880163ffffffff16845290915290208054600160201b600160801b031916600160201b6001600160601b038616021790556125fb565b60408051808201825263ffffffff80851682526001600160601b0380871660208085019182526001600160a01b038c166000818152600883528781208d825283528781208c871682528352878120965187549451909516600160201b02600160201b600160801b031995871663ffffffff19958616179590951694909417909555938252600984528482208a835290935292909220805460018801909316929091169190911790555b856001600160a01b03167fc7b38fb25352e6f351f57e2c922f84db5c97e09a6246bbe1d2eedfcdb01c4c6286838660405161263893929190613125565b60405180910390a2505050505050565b60006001600160601b038416612660575060006119db565b8383026001600160601b03808516908087169083168161267c57fe5b046001600160601b03161483906126a65760405162461bcd60e51b81526004016105a99190613006565b50949350505050565b6000838301826001600160601b0380871690831610156126a65760405162461bcd60e51b81526004016105a99190613006565b600081600160201b84106127095760405162461bcd60e51b81526004016105a99190613006565b509192915050565b6040518060c0016040528060006001600160a01b031681526020016000815260200160008152602001600081526020016000815260200160006001600160a01b031681525090565b604080518082019091526000808252602082015290565b80356117058161324d565b80516117058161324d565b805161170581613261565b80356117058161326a565b80516117058161326a565b803561170581613273565b80356117058161327c565b6000602082840312156127cf57600080fd5b60006127db8484612770565b949350505050565b6000602082840312156127f557600080fd5b60006127db848461277b565b6000806040838503121561281457600080fd5b60006128208585612770565b925050602061283185828601612770565b9150509250929050565b60008060006060848603121561285057600080fd5b600061285c8686612770565b935050602061286d86828701612770565b925050604061287e86828701612791565b9150509250925092565b6000806040838503121561289b57600080fd5b60006128a78585612770565b925050602061283185828601612791565b6000806000606084860312156128cd57600080fd5b60006128d98686612770565b93505060206128ea86828701612791565b925050604061287e868287016127a7565b60006020828403121561290d57600080fd5b60006127db8484612786565b60006020828403121561292b57600080fd5b60006127db8484612791565b60006020828403121561294957600080fd5b60006127db848461279c565b6000806040838503121561296857600080fd5b60006129748585612791565b9250506020612831858286016127a7565b6000806040838503121561299857600080fd5b60006128a785856127b2565b6000806000606084860312156129b957600080fd5b60006129c586866127b2565b93505060206129d686828701612791565b925050604061287e86828701612770565b60006129f38383612a75565b505060200190565b612a04816131c0565b82525050565b6000612a15826131b3565b612a1f81856131b7565b9350612a2a836131ad565b8060005b83811015612a58578151612a4288826129e7565b9750612a4d836131ad565b925050600101612a2e565b509495945050505050565b612a04816131cb565b612a04816131d0565b612a04816131d3565b612a0481613201565b6000612a92826131b3565b612a9c81856131b7565b9350612aac818560208601613217565b612ab581613243565b9093019392505050565b6000612acc601d836131b7565b7f74696d657374616d70203c20636f6e7472616374206372656174696f6e000000815260200192915050565b6000612b056026836131b7565b7f4f776e61626c653a206e6577206f776e657220697320746865207a65726f206181526564647265737360d01b602082015260400192915050565b6000612b4d6025836131b7565b7f5374616b696e673a3a77697468647261773a206e6f7420656e6f7567682062618152646c616e636560d81b602082015260400192915050565b6000612b94601b836131b7565b7f536166654d6174683a206164646974696f6e206f766572666c6f770000000000815260200192915050565b6000612bcd6016836131b7565b75496e76616c6964206d617820697465726174696f6e7360501b815260200192915050565b6000612bff6015836131b7565b74151bdad95b881d1c985b9cd9995c8819985a5b1959605a1b815260200192915050565b6000612c306028836131b7565b7f416d6f756e74206f6620746f6b656e7320746f207769746864726177206d7573815267074206265203e20360c41b602082015260400192915050565b6000612c7a60438361164d565b7f454950373132446f6d61696e28737472696e67206e616d652c75696e7432353681527f20636861696e49642c6164647265737320766572696679696e67436f6e74726160208201526263742960e81b604082015260430192915050565b6000612ce5600c836131b7565b6b1d5b985d5d1a1bdc9a5e995960a21b815260200192915050565b6000612d0d6010836131b7565b6f64617465203c2073746172744461746560801b815260200192915050565b6000612d39600e836131b7565b6d1b9bdd0819195d195c9b5a5b995960921b815260200192915050565b6000612d63601d836131b7565b7f72656d61696e696e672074696d65203e206d6178206475726174696f6e000000815260200192915050565b6000612d9c602f836131b7565b7f63616e6e6f74206265206d696e656420696e207468652073616d6520626c6f6381526e6b206173206c617374207374616b6560881b602082015260400192915050565b6000612ded6018836131b7565b7f7265636569766572206164647265737320696e76616c69640000000000000000815260200192915050565b6000612e266019836131b7565b7f4f6e6c79207465616d2076657374696e6720616c6c6f77656400000000000000815260200192915050565b6000612e5f604b8361164d565b7f44656c65676174696f6e28616464726573732064656c6567617465652c75696e81527f74323536206c6f636b446174652c75696e74323536206e6f6e63652c75696e7460208201526a323536206578706972792960a81b6040820152604b0192915050565b6000612ed26006836131b7565b651c185d5cd95960d21b815260200192915050565b6000612ef4601d836131b7565b7f46656553686172696e672061646472657373207761736e277420736574000000815260200192915050565b612a04816131ec565b612a048161320c565b612a04816131f5565b600061170582612c6d565b600061170582612e52565b6020810161170582846129fb565b60408101612f6d82856129fb565b6119db60208301846129fb565b60408101612f8882856129fb565b6119db6020830184612a6c565b60408101612fa382856129fb565b6119db6020830184612f29565b60408101612fbe82856129fb565b6119db6020830184612f32565b602080825281016119db8184612a0a565b602081016117058284612a63565b602081016117058284612a6c565b602081016117058284612a7e565b602080825281016119db8184612a87565b6020808252810161170581612abf565b6020808252810161170581612af8565b6020808252810161170581612b40565b6020808252810161170581612b87565b6020808252810161170581612bc0565b6020808252810161170581612bf2565b6020808252810161170581612c23565b6020808252810161170581612cd8565b6020808252810161170581612d00565b6020808252810161170581612d2c565b6020808252810161170581612d56565b6020808252810161170581612d8f565b6020808252810161170581612de0565b6020808252810161170581612e19565b6020808252810161170581612ec5565b6020808252810161170581612ee7565b60408101612f888285612a6c565b606081016131338286612a6c565b6131406020830185612f29565b6127db6040830184612f29565b602081016117058284612f20565b60408101612fbe8285612f20565b602081016117058284612f32565b606081016131858286612f29565b6131926020830185612a6c565b6127db6040830184612a63565b60408101612fbe8285612f32565b60200190565b5190565b90815260200190565b6000611705826131e0565b151590565b90565b6001600160e01b03191690565b6001600160a01b031690565b63ffffffff1690565b6001600160601b031690565b6000611705826131c0565b6000611705826131f5565b60005b8381101561323257818101518382015260200161321a565b838111156112bd5750506000910152565b601f01601f191690565b613256816131c0565b8114610e4d57600080fd5b613256816131cb565b613256816131d0565b613256816131ec565b613256816131f556fea365627a7a7231582037aa7a7e8e2d3bfb1ac2bbbfe5289e7903732c62019d48d1eaf2012b2e7c10b96c6578706572696d656e74616cf564736f6c63430005110040",
    "linkReferences": {}
  },
  "methodIdentifiers": {
    "DELEGATION_TYPEHASH()": "e7a324dc",
    "DOMAIN_TYPEHASH()": "20606b70",
    "MAX_DURATION()": "b1724b46",
    "MAX_VOTING_WEIGHT()": "17748adc",
    "SOVToken()": "a58848c5",
    "WEIGHT_FACTOR()": "d27569e7",
    "admins(address)": "429b62e5",
    "allUnlocked()": "9929e886",
    "cancelTeamVesting(address,address,uint256)": "765dade9",
    "delegateStakingCheckpoints(address,uint256,uint32)": "6b6fde0e",
    "delegates(address,uint256)": "27dd1b00",
    "feeSharing()": "03a18fa3",
    "frozen()": "054f7d9c",
    "getFunctionsList()": "d8ad326d",
    "getWithdrawAmounts(uint96,uint256)": "96a590c1",
    "governanceWithdraw(uint96,uint256,address)": "800b64ca",
    "governanceWithdrawVesting(address,address)": "3827fca5",
    "isOwner()": "8f32d59b",
    "kickoffTS()": "00073f99",
    "newStakingContract()": "ae81dfe4",
    "nonces(address)": "7ecebe00",
    "numDelegateStakingCheckpoints(address,uint256)": "94c2ce58",
    "numTotalStakingCheckpoints(uint256)": "9436e7d4",
    "numUserStakingCheckpoints(address,uint256)": "db27ec18",
    "numVestingCheckpoints(uint256)": "bb533cf2",
    "owner()": "8da5cb5b",
    "paused()": "5c975abb",
    "pausers(address)": "80f51c12",
    "setMaxVestingWithdrawIterations(uint256)": "5b66a324",
    "totalStakingCheckpoints(uint256,uint32)": "dfb267c2",
    "transferOwnership(address)": "f2fde38b",
    "unlockAllTokens()": "5e0be607",
    "userStakingCheckpoints(address,uint256,uint32)": "68cefccc",
    "vestingCheckpoints(uint256,uint32)": "f3f19731",
    "vestingCodeHashes(bytes32)": "07392cc0",
    "vestingRegistryLogic()": "104932cf",
    "vestingWhitelist(address)": "adae9002",
    "weightScaling()": "bf626ec1",
    "withdraw(uint96,uint256,address)": "dab6ca44"
  },
  "id": 68
}