{
  "abi": [
    {
      "inputs": [
        {
          "internalType": "address",
          "name": "_newOwner",
          "type": "address"
        },
        {
          "internalType": "address",
          "name": "_newTarget",
          "type": "address"
        },
        {
          "internalType": "address",
          "name": "_sovrynContractAddress",
          "type": "address"
        },
        {
          "internalType": "address",
          "name": "_wrbtcTokenAddress",
          "type": "address"
        }
      ],
      "payable": false,
      "stateMutability": "nonpayable",
      "type": "constructor"
    },
    {
      "anonymous": false,
      "inputs": [
        {
          "indexed": true,
          "internalType": "address",
          "name": "owner",
          "type": "address"
        },
        {
          "indexed": true,
          "internalType": "address",
          "name": "spender",
          "type": "address"
        },
        {
          "indexed": false,
          "internalType": "uint256",
          "name": "valueBefore",
          "type": "uint256"
        },
        {
          "indexed": false,
          "internalType": "uint256",
          "name": "valueAfter",
          "type": "uint256"
        }
      ],
      "name": "AllowanceUpdate",
      "type": "event"
    },
    {
      "anonymous": false,
      "inputs": [
        {
          "indexed": true,
          "internalType": "address",
          "name": "owner",
          "type": "address"
        },
        {
          "indexed": true,
          "internalType": "address",
          "name": "spender",
          "type": "address"
        },
        {
          "indexed": false,
          "internalType": "uint256",
          "name": "value",
          "type": "uint256"
        }
      ],
      "name": "Approval",
      "type": "event"
    },
    {
      "anonymous": false,
      "inputs": [
        {
          "indexed": true,
          "internalType": "address",
          "name": "burner",
          "type": "address"
        },
        {
          "indexed": false,
          "internalType": "uint256",
          "name": "tokenAmount",
          "type": "uint256"
        },
        {
          "indexed": false,
          "internalType": "uint256",
          "name": "assetAmount",
          "type": "uint256"
        },
        {
          "indexed": false,
          "internalType": "uint256",
          "name": "price",
          "type": "uint256"
        }
      ],
      "name": "Burn",
      "type": "event"
    },
    {
      "anonymous": false,
      "inputs": [
        {
          "indexed": false,
          "internalType": "address",
          "name": "borrower",
          "type": "address"
        },
        {
          "indexed": false,
          "internalType": "address",
          "name": "target",
          "type": "address"
        },
        {
          "indexed": false,
          "internalType": "address",
          "name": "loanToken",
          "type": "address"
        },
        {
          "indexed": false,
          "internalType": "uint256",
          "name": "loanAmount",
          "type": "uint256"
        }
      ],
      "name": "FlashBorrow",
      "type": "event"
    },
    {
      "anonymous": false,
      "inputs": [
        {
          "indexed": true,
          "internalType": "address",
          "name": "minter",
          "type": "address"
        },
        {
          "indexed": false,
          "internalType": "uint256",
          "name": "tokenAmount",
          "type": "uint256"
        },
        {
          "indexed": false,
          "internalType": "uint256",
          "name": "assetAmount",
          "type": "uint256"
        },
        {
          "indexed": false,
          "internalType": "uint256",
          "name": "price",
          "type": "uint256"
        }
      ],
      "name": "Mint",
      "type": "event"
    },
    {
      "anonymous": false,
      "inputs": [
        {
          "indexed": true,
          "internalType": "address",
          "name": "previousOwner",
          "type": "address"
        },
        {
          "indexed": true,
          "internalType": "address",
          "name": "newOwner",
          "type": "address"
        }
      ],
      "name": "OwnershipTransferred",
      "type": "event"
    },
    {
      "anonymous": false,
      "inputs": [
        {
          "indexed": true,
          "internalType": "address",
          "name": "from",
          "type": "address"
        },
        {
          "indexed": true,
          "internalType": "address",
          "name": "to",
          "type": "address"
        },
        {
          "indexed": false,
          "internalType": "uint256",
          "name": "value",
          "type": "uint256"
        }
      ],
      "name": "Transfer",
      "type": "event"
    },
    {
      "payable": true,
      "stateMutability": "payable",
      "type": "fallback"
    },
    {
      "constant": true,
      "inputs": [],
      "name": "admin",
      "outputs": [
        {
          "internalType": "address",
          "name": "",
          "type": "address"
        }
      ],
      "payable": false,
      "stateMutability": "view",
      "type": "function"
    },
    {
      "constant": true,
      "inputs": [
        {
          "internalType": "address",
          "name": "_owner",
          "type": "address"
        },
        {
          "internalType": "address",
          "name": "_spender",
          "type": "address"
        }
      ],
      "name": "allowance",
      "outputs": [
        {
          "internalType": "uint256",
          "name": "",
          "type": "uint256"
        }
      ],
      "payable": false,
      "stateMutability": "view",
      "type": "function"
    },
    {
      "constant": true,
      "inputs": [
        {
          "internalType": "address",
          "name": "_owner",
          "type": "address"
        }
      ],
      "name": "balanceOf",
      "outputs": [
        {
          "internalType": "uint256",
          "name": "",
          "type": "uint256"
        }
      ],
      "payable": false,
      "stateMutability": "view",
      "type": "function"
    },
    {
      "constant": true,
      "inputs": [],
      "name": "baseRate",
      "outputs": [
        {
          "internalType": "uint256",
          "name": "",
          "type": "uint256"
        }
      ],
      "payable": false,
      "stateMutability": "view",
      "type": "function"
    },
    {
      "constant": true,
      "inputs": [],
      "name": "checkpointSupply",
      "outputs": [
        {
          "internalType": "uint256",
          "name": "",
          "type": "uint256"
        }
      ],
      "payable": false,
      "stateMutability": "view",
      "type": "function"
    },
    {
      "constant": true,
      "inputs": [],
      "name": "decimals",
      "outputs": [
        {
          "internalType": "uint8",
          "name": "",
          "type": "uint8"
        }
      ],
      "payable": false,
      "stateMutability": "view",
      "type": "function"
    },
    {
      "constant": true,
      "inputs": [],
      "name": "initialPrice",
      "outputs": [
        {
          "internalType": "uint256",
          "name": "",
          "type": "uint256"
        }
      ],
      "payable": false,
      "stateMutability": "view",
      "type": "function"
    },
    {
      "constant": false,
      "inputs": [
        {
          "internalType": "address",
          "name": "_loanTokenAddress",
          "type": "address"
        },
        {
          "internalType": "string",
          "name": "_name",
          "type": "string"
        },
        {
          "internalType": "string",
          "name": "_symbol",
          "type": "string"
        }
      ],
      "name": "initialize",
      "outputs": [],
      "payable": false,
      "stateMutability": "nonpayable",
      "type": "function"
    },
    {
      "constant": true,
      "inputs": [],
      "name": "isOwner",
      "outputs": [
        {
          "internalType": "bool",
          "name": "",
          "type": "bool"
        }
      ],
      "payable": false,
      "stateMutability": "view",
      "type": "function"
    },
    {
      "constant": true,
      "inputs": [],
      "name": "kinkLevel",
      "outputs": [
        {
          "internalType": "uint256",
          "name": "",
          "type": "uint256"
        }
      ],
      "payable": false,
      "stateMutability": "view",
      "type": "function"
    },
    {
      "constant": true,
      "inputs": [
        {
          "internalType": "uint256",
          "name": "",
          "type": "uint256"
        }
      ],
      "name": "loanParamsIds",
      "outputs": [
        {
          "internalType": "bytes32",
          "name": "",
          "type": "bytes32"
        }
      ],
      "payable": false,
      "stateMutability": "view",
      "type": "function"
    },
    {
      "constant": true,
      "inputs": [],
      "name": "loanTokenAddress",
      "outputs": [
        {
          "internalType": "address",
          "name": "",
          "type": "address"
        }
      ],
      "payable": false,
      "stateMutability": "view",
      "type": "function"
    },
    {
      "constant": true,
      "inputs": [],
      "name": "lowUtilBaseRate",
      "outputs": [
        {
          "internalType": "uint256",
          "name": "",
          "type": "uint256"
        }
      ],
      "payable": false,
      "stateMutability": "view",
      "type": "function"
    },
    {
      "constant": true,
      "inputs": [],
      "name": "lowUtilRateMultiplier",
      "outputs": [
        {
          "internalType": "uint256",
          "name": "",
          "type": "uint256"
        }
      ],
      "payable": false,
      "stateMutability": "view",
      "type": "function"
    },
    {
      "constant": true,
      "inputs": [],
      "name": "maxScaleRate",
      "outputs": [
        {
          "internalType": "uint256",
          "name": "",
          "type": "uint256"
        }
      ],
      "payable": false,
      "stateMutability": "view",
      "type": "function"
    },
    {
      "constant": true,
      "inputs": [],
      "name": "name",
      "outputs": [
        {
          "internalType": "string",
          "name": "",
          "type": "string"
        }
      ],
      "payable": false,
      "stateMutability": "view",
      "type": "function"
    },
    {
      "constant": true,
      "inputs": [],
      "name": "owner",
      "outputs": [
        {
          "internalType": "address",
          "name": "",
          "type": "address"
        }
      ],
      "payable": false,
      "stateMutability": "view",
      "type": "function"
    },
    {
      "constant": true,
      "inputs": [],
      "name": "rateMultiplier",
      "outputs": [
        {
          "internalType": "uint256",
          "name": "",
          "type": "uint256"
        }
      ],
      "payable": false,
      "stateMutability": "view",
      "type": "function"
    },
    {
      "constant": false,
      "inputs": [
        {
          "internalType": "address",
          "name": "_newTarget",
          "type": "address"
        }
      ],
      "name": "setTarget",
      "outputs": [],
      "payable": false,
      "stateMutability": "nonpayable",
      "type": "function"
    },
    {
      "constant": true,
      "inputs": [],
      "name": "sovrynContractAddress",
      "outputs": [
        {
          "internalType": "address",
          "name": "",
          "type": "address"
        }
      ],
      "payable": false,
      "stateMutability": "view",
      "type": "function"
    },
    {
      "constant": true,
      "inputs": [],
      "name": "symbol",
      "outputs": [
        {
          "internalType": "string",
          "name": "",
          "type": "string"
        }
      ],
      "payable": false,
      "stateMutability": "view",
      "type": "function"
    },
    {
      "constant": true,
      "inputs": [],
      "name": "targetLevel",
      "outputs": [
        {
          "internalType": "uint256",
          "name": "",
          "type": "uint256"
        }
      ],
      "payable": false,
      "stateMutability": "view",
      "type": "function"
    },
    {
      "constant": true,
      "inputs": [],
      "name": "totalSupply",
      "outputs": [
        {
          "internalType": "uint256",
          "name": "",
          "type": "uint256"
        }
      ],
      "payable": false,
      "stateMutability": "view",
      "type": "function"
    },
    {
      "constant": true,
      "inputs": [
        {
          "internalType": "address",
          "name": "",
          "type": "address"
        }
      ],
      "name": "transactionLimit",
      "outputs": [
        {
          "internalType": "uint256",
          "name": "",
          "type": "uint256"
        }
      ],
      "payable": false,
      "stateMutability": "view",
      "type": "function"
    },
    {
      "constant": false,
      "inputs": [
        {
          "internalType": "address",
          "name": "newOwner",
          "type": "address"
        }
      ],
      "name": "transferOwnership",
      "outputs": [],
      "payable": false,
      "stateMutability": "nonpayable",
      "type": "function"
    },
    {
      "constant": true,
      "inputs": [],
      "name": "wrbtcTokenAddress",
      "outputs": [
        {
          "internalType": "address",
          "name": "",
          "type": "address"
        }
      ],
      "payable": false,
      "stateMutability": "view",
      "type": "function"
    }
  ],
  "bytecode": {
    "object": "0x608060405260016000553480156200001657600080fd5b506040516200115d3803806200115d833981810160405260808110156200003c57600080fd5b50805160208201516040830151606090930151919290916000620000686001600160e01b03620000ff16565b600180546001600160a01b0319166001600160a01b038316908117909155604051919250906000906000805160206200113d833981519152908290a350620000b9846001600160e01b036200010316565b620000cd836001600160e01b036200016e16565b620000e1826001600160e01b03620001f816565b620000f5816001600160e01b036200028216565b505050506200040c565b3390565b620001166001600160e01b036200030c16565b62000157576040805162461bcd60e51b815260206004820152600c60248201526b1d5b985d5d1a1bdc9a5e995960a21b604482015290519081900360640190fd5b6200016b816001600160e01b036200033d16565b50565b6200018481620003cf60201b62000bcc1760201c565b620001d6576040805162461bcd60e51b815260206004820152601560248201527f746172676574206e6f74206120636f6e74726163740000000000000000000000604482015290519081900360640190fd5b601880546001600160a01b0319166001600160a01b0392909216919091179055565b6200020e81620003cf60201b62000bcc1760201c565b62000260576040805162461bcd60e51b815260206004820152601560248201527f736f7672796e206e6f74206120636f6e74726163740000000000000000000000604482015290519081900360640190fd5b601680546001600160a01b0319166001600160a01b0392909216919091179055565b6200029881620003cf60201b62000bcc1760201c565b620002ea576040805162461bcd60e51b815260206004820152601460248201527f7772627463206e6f74206120636f6e7472616374000000000000000000000000604482015290519081900360640190fd5b601780546001600160a01b0319166001600160a01b0392909216919091179055565b6001546000906001600160a01b03166200032e6001600160e01b03620000ff16565b6001600160a01b031614905090565b6001600160a01b038116620003845760405162461bcd60e51b8152600401808060200182810382526026815260200180620011176026913960400191505060405180910390fd5b6001546040516001600160a01b038084169216906000805160206200113d83398151915290600090a3600180546001600160a01b0319166001600160a01b0392909216919091179055565b6000813f7fc5d2460186f7233c927e7db2dcc703c0e500b653ca82273b7bfad8045d85a4708181148015906200040457508115155b949350505050565b610cfb806200041c6000396000f3fe6080604052600436106101815760003560e01c80637b7933b4116100d1578063ba0e43bf1161008a578063e41b07e311610064578063e41b07e314610644578063ef2b0b3914610677578063f2fde38b1461068c578063f851a440146106bf57610181565b8063ba0e43bf146105df578063d759dbeb146105f4578063dd62ed3e1461060957610181565b80637b7933b4146104185780637e37c08c1461042d5780638da5cb5b146104425780638f32d59b14610457578063906571471461048057806395d89b41146105ca57610181565b8063313ce5671161013e57806356e07d701161011857806356e07d701461038857806370a082311461039d578063776d1a01146103d0578063797bf3851461040357610181565b8063313ce5671461031e5780633291c11a14610349578063330691ac1461037357610181565b806306947a3a146101fd57806306fdde031461022e57806318160ddd146102b85780631d0806ae146102df5780631f68f20a146102f45780632f6b600d14610309575b6108fc5a1161018f576101fb565b60185460408051602036601f81018290048202830182019093528282526001600160a01b039093169260609260009181908401838280828437600092018290525084519495509384935091505060208401855af43d604051816000823e8280156101f7578282f35b8282fd5b005b34801561020957600080fd5b506102126106d4565b604080516001600160a01b039092168252519081900360200190f35b34801561023a57600080fd5b506102436106e3565b6040805160208082528351818301528351919283929083019185019080838360005b8381101561027d578181015183820152602001610265565b50505050905090810190601f1680156102aa5780820380516001836020036101000a031916815260200191505b509250505060405180910390f35b3480156102c457600080fd5b506102cd61076e565b60408051918252519081900360200190f35b3480156102eb57600080fd5b506102cd610775565b34801561030057600080fd5b506102cd61077b565b34801561031557600080fd5b50610212610781565b34801561032a57600080fd5b50610333610790565b6040805160ff9092168252519081900360200190f35b34801561035557600080fd5b506102cd6004803603602081101561036c57600080fd5b5035610799565b34801561037f57600080fd5b506102cd6107ab565b34801561039457600080fd5b506102cd6107b1565b3480156103a957600080fd5b506102cd600480360360208110156103c057600080fd5b50356001600160a01b03166107b7565b3480156103dc57600080fd5b506101fb600480360360208110156103f357600080fd5b50356001600160a01b03166107d2565b34801561040f57600080fd5b50610212610826565b34801561042457600080fd5b506102cd61083a565b34801561043957600080fd5b506102cd610840565b34801561044e57600080fd5b50610212610846565b34801561046357600080fd5b5061046c610855565b604080519115158252519081900360200190f35b34801561048c57600080fd5b506101fb600480360360608110156104a357600080fd5b6001600160a01b0382351691908101906040810160208201356401000000008111156104ce57600080fd5b8201836020820111156104e057600080fd5b8035906020019184600183028401116401000000008311171561050257600080fd5b91908080601f016020809104026020016040519081016040528093929190818152602001838380828437600092019190915250929594936020810193503591505064010000000081111561055557600080fd5b82018360208201111561056757600080fd5b8035906020019184600183028401116401000000008311171561058957600080fd5b91908080601f01602080910402602001604051908101604052809392919081815260200183838082843760009201919091525092955061087b945050505050565b3480156105d657600080fd5b506102436109a9565b3480156105eb57600080fd5b506102cd610a04565b34801561060057600080fd5b506102cd610a0a565b34801561061557600080fd5b506102cd6004803603604081101561062c57600080fd5b506001600160a01b0381358116916020013516610a10565b34801561065057600080fd5b506102cd6004803603602081101561066757600080fd5b50356001600160a01b0316610a3b565b34801561068357600080fd5b506102cd610a4d565b34801561069857600080fd5b506101fb600480360360208110156106af57600080fd5b50356001600160a01b0316610a53565b3480156106cb57600080fd5b50610212610aa4565b6016546001600160a01b031681565b6002805460408051602060018416156101000260001901909316849004601f810184900484028201840190925281815292918301828280156107665780601f1061073b57610100808354040283529160200191610766565b820191906000526020600020905b81548152906001019060200180831161074957829003601f168201915b505050505081565b6015545b90565b600e5481565b60055481565b6017546001600160a01b031681565b60045460ff1681565b60106020526000908152604090205481565b60065481565b600a5481565b6001600160a01b031660009081526013602052604090205490565b6107da610855565b61081a576040805162461bcd60e51b815260206004820152600c60248201526b1d5b985d5d1a1bdc9a5e995960a21b604482015290519081900360640190fd5b61082381610ab3565b50565b60045461010090046001600160a01b031681565b600d5481565b60085481565b6001546001600160a01b031690565b6001546000906001600160a01b031661086c610b27565b6001600160a01b031614905090565b610883610855565b6108c3576040805162461bcd60e51b815260206004820152600c60248201526b1d5b985d5d1a1bdc9a5e995960a21b604482015290519081900360640190fd5b60048054610100600160a81b0319166101006001600160a01b0386160217905581516108f6906002906020850190610c08565b50805161090a906003906020840190610c08565b50600460019054906101000a90046001600160a01b03166001600160a01b031663313ce5676040518163ffffffff1660e01b815260040160206040518083038186803b15801561095957600080fd5b505afa15801561096d573d6000803e3d6000fd5b505050506040513d602081101561098357600080fd5b50516004805460ff191660ff9092169190911790555050670de0b6b3a7640000600e5550565b6003805460408051602060026001851615610100026000190190941693909304601f810184900484028201840190925281815292918301828280156107665780601f1061073b57610100808354040283529160200191610766565b60095481565b60075481565b6001600160a01b03918216600090815260146020908152604080832093909416825291909152205490565b60126020526000908152604090205481565b600b5481565b610a5b610855565b610a9b576040805162461bcd60e51b815260206004820152600c60248201526b1d5b985d5d1a1bdc9a5e995960a21b604482015290519081900360640190fd5b61082381610b2b565b6019546001600160a01b031681565b610abc81610bcc565b610b05576040805162461bcd60e51b81526020600482015260156024820152741d185c99d95d081b9bdd08184818dbdb9d1c9858dd605a1b604482015290519081900360640190fd5b601880546001600160a01b0319166001600160a01b0392909216919091179055565b3390565b6001600160a01b038116610b705760405162461bcd60e51b8152600401808060200182810382526026815260200180610ca16026913960400191505060405180910390fd5b6001546040516001600160a01b038084169216907f8be0079c531659141344cd1fd0a4f28419497f9722a3daafe3b4186f6b6457e090600090a3600180546001600160a01b0319166001600160a01b0392909216919091179055565b6000813f7fc5d2460186f7233c927e7db2dcc703c0e500b653ca82273b7bfad8045d85a470818114801590610c0057508115155b949350505050565b828054600181600116156101000203166002900490600052602060002090601f016020900481019282601f10610c4957805160ff1916838001178555610c76565b82800160010185558215610c76579182015b82811115610c76578251825591602001919060010190610c5b565b50610c82929150610c86565b5090565b61077291905b80821115610c825760008155600101610c8c56fe4f776e61626c653a206e6577206f776e657220697320746865207a65726f2061646472657373a265627a7a72315820e1746621fb54e2a66dc2bb694bb3ded9699c7de9af80359194eba69429ada4af64736f6c634300051100324f776e61626c653a206e6577206f776e657220697320746865207a65726f20616464726573738be0079c531659141344cd1fd0a4f28419497f9722a3daafe3b4186f6b6457e0",
    "linkReferences": {}
  },
  "methodIdentifiers": {
    "admin()": "f851a440",
    "allowance(address,address)": "dd62ed3e",
    "balanceOf(address)": "70a08231",
    "baseRate()": "1f68f20a",
    "checkpointSupply()": "7b7933b4",
    "decimals()": "313ce567",
    "initialPrice()": "1d0806ae",
    "initialize(address,string,string)": "90657147",
    "isOwner()": "8f32d59b",
    "kinkLevel()": "56e07d70",
    "loanParamsIds(uint256)": "3291c11a",
    "loanTokenAddress()": "797bf385",
    "lowUtilBaseRate()": "d759dbeb",
    "lowUtilRateMultiplier()": "7e37c08c",
    "maxScaleRate()": "ef2b0b39",
    "name()": "06fdde03",
    "owner()": "8da5cb5b",
    "rateMultiplier()": "330691ac",
    "setTarget(address)": "776d1a01",
    "sovrynContractAddress()": "06947a3a",
    "symbol()": "95d89b41",
    "targetLevel()": "ba0e43bf",
    "totalSupply()": "18160ddd",
    "transactionLimit(address)": "e41b07e3",
    "transferOwnership(address)": "f2fde38b",
    "wrbtcTokenAddress()": "2f6b600d"
  },
  "id": 2
}