{
  "abi": [
    {
      "inputs": [
        {
          "internalType": "contract IProtocol",
          "name": "_protocol",
          "type": "address"
        },
        {
          "internalType": "contract IStaking",
          "name": "_staking",
          "type": "address"
        }
      ],
      "payable": false,
      "stateMutability": "nonpayable",
      "type": "constructor"
    },
    {
      "anonymous": false,
      "inputs": [
        {
          "indexed": true,
          "internalType": "address",
          "name": "_oldImplementation",
          "type": "address"
        },
        {
          "indexed": true,
          "internalType": "address",
          "name": "_newImplementation",
          "type": "address"
        }
      ],
      "name": "ImplementationChanged",
      "type": "event"
    },
    {
      "anonymous": false,
      "inputs": [
        {
          "indexed": true,
          "internalType": "address",
          "name": "_oldOwner",
          "type": "address"
        },
        {
          "indexed": true,
          "internalType": "address",
          "name": "_newOwner",
          "type": "address"
        }
      ],
      "name": "OwnershipTransferred",
      "type": "event"
    },
    {
      "payable": true,
      "stateMutability": "payable",
      "type": "fallback"
    },
    {
      "constant": true,
      "inputs": [],
      "name": "getImplementation",
      "outputs": [
        {
          "internalType": "address",
          "name": "_implementation",
          "type": "address"
        }
      ],
      "payable": false,
      "stateMutability": "view",
      "type": "function"
    },
    {
      "constant": true,
      "inputs": [],
      "name": "getProxyOwner",
      "outputs": [
        {
          "internalType": "address",
          "name": "_owner",
          "type": "address"
        }
      ],
      "payable": false,
      "stateMutability": "view",
      "type": "function"
    },
    {
      "constant": true,
      "inputs": [
        {
          "internalType": "bytes4",
          "name": "",
          "type": "bytes4"
        }
      ],
      "name": "isFunctionExecuted",
      "outputs": [
        {
          "internalType": "bool",
          "name": "",
          "type": "bool"
        }
      ],
      "payable": false,
      "stateMutability": "view",
      "type": "function"
    },
    {
      "constant": true,
      "inputs": [],
      "name": "isOwner",
      "outputs": [
        {
          "internalType": "bool",
          "name": "",
          "type": "bool"
        }
      ],
      "payable": false,
      "stateMutability": "view",
      "type": "function"
    },
    {
      "constant": true,
      "inputs": [
        {
          "internalType": "address",
          "name": "",
          "type": "address"
        }
      ],
      "name": "lastFeeWithdrawalTime",
      "outputs": [
        {
          "internalType": "uint256",
          "name": "",
          "type": "uint256"
        }
      ],
      "payable": false,
      "stateMutability": "view",
      "type": "function"
    },
    {
      "constant": true,
      "inputs": [],
      "name": "owner",
      "outputs": [
        {
          "internalType": "address",
          "name": "",
          "type": "address"
        }
      ],
      "payable": false,
      "stateMutability": "view",
      "type": "function"
    },
    {
      "constant": true,
      "inputs": [
        {
          "internalType": "address",
          "name": "",
          "type": "address"
        },
        {
          "internalType": "address",
          "name": "",
          "type": "address"
        }
      ],
      "name": "processedCheckpoints",
      "outputs": [
        {
          "internalType": "uint256",
          "name": "",
          "type": "uint256"
        }
      ],
      "payable": false,
      "stateMutability": "view",
      "type": "function"
    },
    {
      "constant": true,
      "inputs": [],
      "name": "protocol",
      "outputs": [
        {
          "internalType": "contract IProtocol",
          "name": "",
          "type": "address"
        }
      ],
      "payable": false,
      "stateMutability": "view",
      "type": "function"
    },
    {
      "constant": false,
      "inputs": [
        {
          "internalType": "address",
          "name": "_implementation",
          "type": "address"
        }
      ],
      "name": "setImplementation",
      "outputs": [],
      "payable": false,
      "stateMutability": "nonpayable",
      "type": "function"
    },
    {
      "constant": false,
      "inputs": [
        {
          "internalType": "address",
          "name": "_owner",
          "type": "address"
        }
      ],
      "name": "setProxyOwner",
      "outputs": [],
      "payable": false,
      "stateMutability": "nonpayable",
      "type": "function"
    },
    {
      "constant": true,
      "inputs": [],
      "name": "staking",
      "outputs": [
        {
          "internalType": "contract IStaking",
          "name": "",
          "type": "address"
        }
      ],
      "payable": false,
      "stateMutability": "view",
      "type": "function"
    },
    {
      "constant": true,
      "inputs": [
        {
          "internalType": "address",
          "name": "",
          "type": "address"
        },
        {
          "internalType": "uint256",
          "name": "",
          "type": "uint256"
        }
      ],
      "name": "tokenCheckpoints",
      "outputs": [
        {
          "internalType": "uint32",
          "name": "blockNumber",
          "type": "uint32"
        },
        {
          "internalType": "uint32",
          "name": "timestamp",
          "type": "uint32"
        },
        {
          "internalType": "uint96",
          "name": "totalWeightedStake",
          "type": "uint96"
        },
        {
          "internalType": "uint96",
          "name": "numTokens",
          "type": "uint96"
        }
      ],
      "payable": false,
      "stateMutability": "view",
      "type": "function"
    },
    {
      "constant": true,
      "inputs": [
        {
          "internalType": "address",
          "name": "",
          "type": "address"
        }
      ],
      "name": "totalTokenCheckpoints",
      "outputs": [
        {
          "internalType": "uint256",
          "name": "",
          "type": "uint256"
        }
      ],
      "payable": false,
      "stateMutability": "view",
      "type": "function"
    },
    {
      "constant": false,
      "inputs": [
        {
          "internalType": "address",
          "name": "newOwner",
          "type": "address"
        }
      ],
      "name": "transferOwnership",
      "outputs": [],
      "payable": false,
      "stateMutability": "nonpayable",
      "type": "function"
    },
    {
      "constant": true,
      "inputs": [
        {
          "internalType": "address",
          "name": "",
          "type": "address"
        }
      ],
      "name": "unprocessedAmount",
      "outputs": [
        {
          "internalType": "uint96",
          "name": "",
          "type": "uint96"
        }
      ],
      "payable": false,
      "stateMutability": "view",
      "type": "function"
    }
  ],
  "bytecode": {
    "object": "0x6080604052600160085534801561001557600080fd5b50604051610bb6380380610bb68339818101604052604081101561003857600080fd5b50805160209091015160006100546001600160e01b036100cf16565b600080546001600160a01b0319166001600160a01b038316908117825560405192935091600080516020610b71833981519152908290a35061009e336001600160e01b036100d316565b600180546001600160a01b039384166001600160a01b031991821617909155600280549290931691161790556101a5565b3390565b6001600160a01b0381166101185760405162461bcd60e51b8152600401808060200182810382526025815260200180610b916025913960400191505060405180910390fd5b6001600160a01b0381166101336001600160e01b0361017d16565b6001600160a01b0316600080516020610b7183398151915260405160405180910390a3604080516e35b2bc97383937bc3c9737bbb732b960891b8152905190819003600f01902055565b604080516e35b2bc97383937bc3c9737bbb732b960891b8152905190819003600f0190205490565b6109bd806101b46000396000f3fe6080604052600436106100e85760003560e01c80638f32d59b1161008a578063d93b69ab11610059578063d93b69ab14610381578063f2962cda146103b5578063f2fde38b146103e8578063f3bdba8f1461041b576100e8565b80638f32d59b146102db578063aaf10f4214610304578063caaee91c14610319578063d784d4261461034e576100e8565b80637913b451116100c65780637913b451146102155780638b6fdcba146102625780638ce74426146102b15780638da5cb5b146102c6576100e8565b80631ab7710d1461015e5780634cf088d91461018f57806370530017146101a4575b60006100f261044e565b90506001600160a01b0381166101395760405162461bcd60e51b81526004018080602001828103825260238152602001806109416023913960400191505060405180910390fd5b60405136600082376000803683855af43d806000843e81801561015a578184f35b8184fd5b34801561016a57600080fd5b50610173610479565b604080516001600160a01b039092168252519081900360200190f35b34801561019b57600080fd5b506101736104a1565b3480156101b057600080fd5b506101dd600480360360408110156101c757600080fd5b506001600160a01b0381351690602001356104b0565b6040805163ffffffff95861681529390941660208401526001600160601b039182168385015216606082015290519081900360800190f35b34801561022157600080fd5b506102506004803603604081101561023857600080fd5b506001600160a01b0381358116916020013516610501565b60408051918252519081900360200190f35b34801561026e57600080fd5b506102956004803603602081101561028557600080fd5b50356001600160a01b031661051e565b604080516001600160601b039092168252519081900360200190f35b3480156102bd57600080fd5b50610173610539565b3480156102d257600080fd5b50610173610548565b3480156102e757600080fd5b506102f0610557565b604080519115158252519081900360200190f35b34801561031057600080fd5b5061017361044e565b34801561032557600080fd5b5061034c6004803603602081101561033c57600080fd5b50356001600160a01b031661057b565b005b34801561035a57600080fd5b5061034c6004803603602081101561037157600080fd5b50356001600160a01b03166105ec565b34801561038d57600080fd5b506102f0600480360360208110156103a457600080fd5b50356001600160e01b03191661065a565b3480156103c157600080fd5b50610250600480360360208110156103d857600080fd5b50356001600160a01b031661066f565b3480156103f457600080fd5b5061034c6004803603602081101561040b57600080fd5b50356001600160a01b0316610681565b34801561042757600080fd5b506102506004803603602081101561043e57600080fd5b50356001600160a01b03166106d2565b604080517135b2bc9734b6b83632b6b2b73a30ba34b7b760711b815290519081900360120190205490565b604080516e35b2bc97383937bc3c9737bbb732b960891b8152905190819003600f0190205490565b6002546001600160a01b031681565b600360209081526000928352604080842090915290825290205463ffffffff808216916401000000008104909116906001600160601b03680100000000000000008204811691600160a01b90041684565b600560209081526000928352604080842090915290825290205481565b6007602052600090815260409020546001600160601b031681565b6001546001600160a01b031681565b6000546001600160a01b031690565b600080546001600160a01b031661056c6106e4565b6001600160a01b031614905090565b610583610479565b6001600160a01b0316336001600160a01b0316146105e0576040805162461bcd60e51b8152602060048201526015602482015274141c9bde1e4e8e881858d8d95cdcc819195b9a5959605a1b604482015290519081900360640190fd5b6105e9816106e8565b50565b6105f4610479565b6001600160a01b0316336001600160a01b031614610651576040805162461bcd60e51b8152602060048201526015602482015274141c9bde1e4e8e881858d8d95cdcc819195b9a5959605a1b604482015290519081900360640190fd5b6105e98161079b565b600b6020526000908152604090205460ff1681565b60046020526000908152604090205481565b610689610557565b6106c9576040805162461bcd60e51b815260206004820152600c60248201526b1d5b985d5d1a1bdc9a5e995960a21b604482015290519081900360640190fd5b6105e981610851565b60066020526000908152604090205481565b3390565b6001600160a01b03811661072d5760405162461bcd60e51b81526004018080602001828103825260258152602001806109646025913960400191505060405180910390fd5b806001600160a01b031661073f610479565b6001600160a01b03167f8be0079c531659141344cd1fd0a4f28419497f9722a3daafe3b4186f6b6457e060405160405180910390a3604080516e35b2bc97383937bc3c9737bbb732b960891b8152905190819003600f01902055565b6001600160a01b0381166107e05760405162461bcd60e51b81526004018080602001828103825260298152602001806109186029913960400191505060405180910390fd5b806001600160a01b03166107f261044e565b6001600160a01b03167fcfbf4028add9318bbf716f08c348595afb063b0e9feed1f86d33681a4b3ed4d360405160405180910390a3604080517135b2bc9734b6b83632b6b2b73a30ba34b7b760711b8152905190819003601201902055565b6001600160a01b0381166108965760405162461bcd60e51b81526004018080602001828103825260268152602001806108f26026913960400191505060405180910390fd5b600080546040516001600160a01b03808516939216917f8be0079c531659141344cd1fd0a4f28419497f9722a3daafe3b4186f6b6457e091a3600080546001600160a01b0319166001600160a01b039290921691909117905556fe4f776e61626c653a206e6577206f776e657220697320746865207a65726f206164647265737350726f78793a3a736574496d706c656d656e746174696f6e3a20696e76616c6964206164647265737350726f78793a3a28293a20696d706c656d656e746174696f6e206e6f7420666f756e6450726f78793a3a73657450726f78794f776e65723a20696e76616c69642061646472657373a265627a7a72315820c0ee9480acde8cdb0cb827e8bc653ddd91d8c6c45c38128bef3155693bacdb7b64736f6c634300051100328be0079c531659141344cd1fd0a4f28419497f9722a3daafe3b4186f6b6457e050726f78793a3a73657450726f78794f776e65723a20696e76616c69642061646472657373",
    "linkReferences": {}
  },
  "methodIdentifiers": {
    "getImplementation()": "aaf10f42",
    "getProxyOwner()": "1ab7710d",
    "isFunctionExecuted(bytes4)": "d93b69ab",
    "isOwner()": "8f32d59b",
    "lastFeeWithdrawalTime(address)": "f3bdba8f",
    "owner()": "8da5cb5b",
    "processedCheckpoints(address,address)": "7913b451",
    "protocol()": "8ce74426",
    "setImplementation(address)": "d784d426",
    "setProxyOwner(address)": "caaee91c",
    "staking()": "4cf088d9",
    "tokenCheckpoints(address,uint256)": "70530017",
    "totalTokenCheckpoints(address)": "f2962cda",
    "transferOwnership(address)": "f2fde38b",
    "unprocessedAmount(address)": "8b6fdcba"
  },
  "id": 55
}