{
  "abi": [
    {
      "anonymous": false,
      "inputs": [
        {
          "indexed": false,
          "internalType": "address",
          "name": "admin",
          "type": "address"
        }
      ],
      "name": "AdminAdded",
      "type": "event"
    },
    {
      "anonymous": false,
      "inputs": [
        {
          "indexed": false,
          "internalType": "address",
          "name": "admin",
          "type": "address"
        }
      ],
      "name": "AdminRemoved",
      "type": "event"
    },
    {
      "anonymous": false,
      "inputs": [
        {
          "indexed": true,
          "internalType": "address",
          "name": "_oldImplementation",
          "type": "address"
        },
        {
          "indexed": true,
          "internalType": "address",
          "name": "_newImplementation",
          "type": "address"
        }
      ],
      "name": "ImplementationChanged",
      "type": "event"
    },
    {
      "anonymous": false,
      "inputs": [
        {
          "indexed": true,
          "internalType": "address",
          "name": "_oldOwner",
          "type": "address"
        },
        {
          "indexed": true,
          "internalType": "address",
          "name": "_newOwner",
          "type": "address"
        }
      ],
      "name": "OwnershipTransferred",
      "type": "event"
    },
    {
      "payable": true,
      "stateMutability": "payable",
      "type": "fallback"
    },
    {
      "constant": true,
      "inputs": [],
      "name": "SOV",
      "outputs": [
        {
          "internalType": "contract IERC20",
          "name": "",
          "type": "address"
        }
      ],
      "payable": false,
      "stateMutability": "view",
      "type": "function"
    },
    {
      "constant": false,
      "inputs": [
        {
          "internalType": "address",
          "name": "_admin",
          "type": "address"
        }
      ],
      "name": "addAdmin",
      "outputs": [],
      "payable": false,
      "stateMutability": "nonpayable",
      "type": "function"
    },
    {
      "constant": true,
      "inputs": [
        {
          "internalType": "address",
          "name": "",
          "type": "address"
        }
      ],
      "name": "admins",
      "outputs": [
        {
          "internalType": "bool",
          "name": "",
          "type": "bool"
        }
      ],
      "payable": false,
      "stateMutability": "view",
      "type": "function"
    },
    {
      "constant": true,
      "inputs": [],
      "name": "bonusEndBlock",
      "outputs": [
        {
          "internalType": "uint256",
          "name": "",
          "type": "uint256"
        }
      ],
      "payable": false,
      "stateMutability": "view",
      "type": "function"
    },
    {
      "constant": true,
      "inputs": [],
      "name": "endBlock",
      "outputs": [
        {
          "internalType": "uint256",
          "name": "",
          "type": "uint256"
        }
      ],
      "payable": false,
      "stateMutability": "view",
      "type": "function"
    },
    {
      "constant": true,
      "inputs": [],
      "name": "getImplementation",
      "outputs": [
        {
          "internalType": "address",
          "name": "_implementation",
          "type": "address"
        }
      ],
      "payable": false,
      "stateMutability": "view",
      "type": "function"
    },
    {
      "constant": true,
      "inputs": [],
      "name": "getProxyOwner",
      "outputs": [
        {
          "internalType": "address",
          "name": "_owner",
          "type": "address"
        }
      ],
      "payable": false,
      "stateMutability": "view",
      "type": "function"
    },
    {
      "constant": true,
      "inputs": [],
      "name": "isOwner",
      "outputs": [
        {
          "internalType": "bool",
          "name": "",
          "type": "bool"
        }
      ],
      "payable": false,
      "stateMutability": "view",
      "type": "function"
    },
    {
      "constant": true,
      "inputs": [],
      "name": "lockedSOV",
      "outputs": [
        {
          "internalType": "contract ILockedSOV",
          "name": "",
          "type": "address"
        }
      ],
      "payable": false,
      "stateMutability": "view",
      "type": "function"
    },
    {
      "constant": true,
      "inputs": [],
      "name": "owner",
      "outputs": [
        {
          "internalType": "address",
          "name": "",
          "type": "address"
        }
      ],
      "payable": false,
      "stateMutability": "view",
      "type": "function"
    },
    {
      "constant": true,
      "inputs": [
        {
          "internalType": "uint256",
          "name": "",
          "type": "uint256"
        }
      ],
      "name": "poolInfoList",
      "outputs": [
        {
          "internalType": "contract IERC20",
          "name": "poolToken",
          "type": "address"
        },
        {
          "internalType": "uint96",
          "name": "allocationPoint",
          "type": "uint96"
        },
        {
          "internalType": "uint256",
          "name": "lastRewardBlock",
          "type": "uint256"
        },
        {
          "internalType": "uint256",
          "name": "accumulatedRewardPerShare",
          "type": "uint256"
        }
      ],
      "payable": false,
      "stateMutability": "view",
      "type": "function"
    },
    {
      "constant": true,
      "inputs": [
        {
          "internalType": "address",
          "name": "",
          "type": "address"
        }
      ],
      "name": "poolTokensUnlockedImmediatelyPercent",
      "outputs": [
        {
          "internalType": "uint256",
          "name": "",
          "type": "uint256"
        }
      ],
      "payable": false,
      "stateMutability": "view",
      "type": "function"
    },
    {
      "constant": false,
      "inputs": [
        {
          "internalType": "address",
          "name": "_admin",
          "type": "address"
        }
      ],
      "name": "removeAdmin",
      "outputs": [],
      "payable": false,
      "stateMutability": "nonpayable",
      "type": "function"
    },
    {
      "constant": true,
      "inputs": [],
      "name": "rewardTokensPerBlock",
      "outputs": [
        {
          "internalType": "uint256",
          "name": "",
          "type": "uint256"
        }
      ],
      "payable": false,
      "stateMutability": "view",
      "type": "function"
    },
    {
      "constant": false,
      "inputs": [
        {
          "internalType": "address",
          "name": "_implementation",
          "type": "address"
        }
      ],
      "name": "setImplementation",
      "outputs": [],
      "payable": false,
      "stateMutability": "nonpayable",
      "type": "function"
    },
    {
      "constant": false,
      "inputs": [
        {
          "internalType": "address",
          "name": "_owner",
          "type": "address"
        }
      ],
      "name": "setProxyOwner",
      "outputs": [],
      "payable": false,
      "stateMutability": "nonpayable",
      "type": "function"
    },
    {
      "constant": true,
      "inputs": [],
      "name": "startBlock",
      "outputs": [
        {
          "internalType": "uint256",
          "name": "",
          "type": "uint256"
        }
      ],
      "payable": false,
      "stateMutability": "view",
      "type": "function"
    },
    {
      "constant": true,
      "inputs": [],
      "name": "totalAllocationPoint",
      "outputs": [
        {
          "internalType": "uint256",
          "name": "",
          "type": "uint256"
        }
      ],
      "payable": false,
      "stateMutability": "view",
      "type": "function"
    },
    {
      "constant": true,
      "inputs": [],
      "name": "totalUsersBalance",
      "outputs": [
        {
          "internalType": "uint256",
          "name": "",
          "type": "uint256"
        }
      ],
      "payable": false,
      "stateMutability": "view",
      "type": "function"
    },
    {
      "constant": false,
      "inputs": [
        {
          "internalType": "address",
          "name": "newOwner",
          "type": "address"
        }
      ],
      "name": "transferOwnership",
      "outputs": [],
      "payable": false,
      "stateMutability": "nonpayable",
      "type": "function"
    },
    {
      "constant": true,
      "inputs": [],
      "name": "unlockedImmediatelyPercent",
      "outputs": [
        {
          "internalType": "uint256",
          "name": "",
          "type": "uint256"
        }
      ],
      "payable": false,
      "stateMutability": "view",
      "type": "function"
    },
    {
      "constant": true,
      "inputs": [
        {
          "internalType": "uint256",
          "name": "",
          "type": "uint256"
        },
        {
          "internalType": "address",
          "name": "",
          "type": "address"
        }
      ],
      "name": "userInfoMap",
      "outputs": [
        {
          "internalType": "uint256",
          "name": "amount",
          "type": "uint256"
        },
        {
          "internalType": "uint256",
          "name": "rewardDebt",
          "type": "uint256"
        },
        {
          "internalType": "uint256",
          "name": "accumulatedReward",
          "type": "uint256"
        }
      ],
      "payable": false,
      "stateMutability": "view",
      "type": "function"
    },
    {
      "constant": true,
      "inputs": [],
      "name": "wrapper",
      "outputs": [
        {
          "internalType": "address",
          "name": "",
          "type": "address"
        }
      ],
      "payable": false,
      "stateMutability": "view",
      "type": "function"
    }
  ],
  "bytecode": {
    "object": "0x608060405260006100176001600160e01b0361006616565b600080546001600160a01b0319166001600160a01b038316908117825560405192935091600080516020610d5c833981519152908290a350610061336001600160e01b0361006a16565b61013c565b3390565b6001600160a01b0381166100af5760405162461bcd60e51b8152600401808060200182810382526025815260200180610d7c6025913960400191505060405180910390fd5b6001600160a01b0381166100ca6001600160e01b0361011416565b6001600160a01b0316600080516020610d5c83398151915260405160405180910390a3604080516e35b2bc97383937bc3c9737bbb732b960891b8152905190819003600f01902055565b604080516e35b2bc97383937bc3c9737bbb732b960891b8152905190819003600f0190205490565b610c118061014b6000396000f3fe6080604052600436106101405760003560e01c8063787b4026116100b6578063ac210cc71161006f578063ac210cc71461046b578063caaee91c14610480578063d784d426146104b3578063f2f46b3b146104e6578063f2fde38b146104fb578063f729a4041461052e57610140565b8063787b40261461039b5780638da5cb5b146104025780638f32d59b146104175780639a13ba291461042c578063a1a6690f14610441578063aaf10f421461045657610140565b80631fc3f004116101085780631fc3f0041461026d57806329d0fa3e146102a0578063429b62e5146102b557806348cd4cb1146102fc5780635f02c14514610311578063704802751461036857610140565b8063083c6323146101b657806308dcb360146101dd5780631785f53c1461020e5780631ab7710d146102435780631aed655314610258575b600061014a610543565b90506001600160a01b0381166101915760405162461bcd60e51b8152600401808060200182810382526023815260200180610b956023913960400191505060405180910390fd5b60405136600082376000803683855af43d806000843e8180156101b2578184f35b8184fd5b3480156101c257600080fd5b506101cb61056e565b60408051918252519081900360200190f35b3480156101e957600080fd5b506101f2610574565b604080516001600160a01b039092168252519081900360200190f35b34801561021a57600080fd5b506102416004803603602081101561023157600080fd5b50356001600160a01b0316610583565b005b34801561024f57600080fd5b506101f2610623565b34801561026457600080fd5b506101cb61064b565b34801561027957600080fd5b506101cb6004803603602081101561029057600080fd5b50356001600160a01b0316610651565b3480156102ac57600080fd5b506101cb610663565b3480156102c157600080fd5b506102e8600480360360208110156102d857600080fd5b50356001600160a01b0316610669565b604080519115158252519081900360200190f35b34801561030857600080fd5b506101cb61067e565b34801561031d57600080fd5b5061034a6004803603604081101561033457600080fd5b50803590602001356001600160a01b0316610684565b60408051938452602084019290925282820152519081900360600190f35b34801561037457600080fd5b506102416004803603602081101561038b57600080fd5b50356001600160a01b03166106b0565b3480156103a757600080fd5b506103c5600480360360208110156103be57600080fd5b5035610754565b604080516001600160a01b0390951685526bffffffffffffffffffffffff9093166020850152838301919091526060830152519081900360800190f35b34801561040e57600080fd5b506101f26107a5565b34801561042357600080fd5b506102e86107b4565b34801561043857600080fd5b506101cb6107d8565b34801561044d57600080fd5b506101cb6107de565b34801561046257600080fd5b506101f2610543565b34801561047757600080fd5b506101f26107e4565b34801561048c57600080fd5b50610241600480360360208110156104a357600080fd5b50356001600160a01b03166107f3565b3480156104bf57600080fd5b50610241600480360360208110156104d657600080fd5b50356001600160a01b0316610864565b3480156104f257600080fd5b506101f26108d2565b34801561050757600080fd5b506102416004803603602081101561051e57600080fd5b50356001600160a01b03166108e1565b34801561053a57600080fd5b506101cb610932565b604080517135b2bc9734b6b83632b6b2b73a30ba34b7b760711b815290519081900360120190205490565b60055481565b600c546001600160a01b031681565b61058b6107b4565b6105cb576040805162461bcd60e51b815260206004820152600c60248201526b1d5b985d5d1a1bdc9a5e995960a21b604482015290519081900360640190fd5b6001600160a01b038116600081815260016020908152604091829020805460ff19169055815192835290517fa3b62bc36326052d97ea62d63c3d60308ed4c3ea8ac079dd8499f1e9c4f80c0f9281900390910190a150565b604080516e35b2bc97383937bc3c9737bbb732b960891b8152905190819003600f0190205490565b60045481565b600f6020526000908152604090205481565b60025481565b60016020526000908152604090205460ff1681565b60035481565b600a60209081526000928352604080842090915290825290208054600182015460029092015490919083565b6106b86107b4565b6106f8576040805162461bcd60e51b815260206004820152600c60248201526b1d5b985d5d1a1bdc9a5e995960a21b604482015290519081900360640190fd5b6001600160a01b038116600081815260016020818152604092839020805460ff1916909217909155815192835290517f44d6d25963f097ad14f29f06854a01f575648a1ef82f30e562ccd3889717e3399281900390910190a150565b6007818154811061076157fe5b60009182526020909120600390910201805460018201546002909201546001600160a01b0382169350600160a01b9091046bffffffffffffffffffffffff16919084565b6000546001600160a01b031690565b600080546001600160a01b03166107c9610938565b6001600160a01b031614905090565b600b5481565b60095481565b6006546001600160a01b031681565b6107fb610623565b6001600160a01b0316336001600160a01b031614610858576040805162461bcd60e51b8152602060048201526015602482015274141c9bde1e4e8e881858d8d95cdcc819195b9a5959605a1b604482015290519081900360640190fd5b6108618161093c565b50565b61086c610623565b6001600160a01b0316336001600160a01b0316146108c9576040805162461bcd60e51b8152602060048201526015602482015274141c9bde1e4e8e881858d8d95cdcc819195b9a5959605a1b604482015290519081900360640190fd5b610861816109ef565b600d546001600160a01b031681565b6108e96107b4565b610929576040805162461bcd60e51b815260206004820152600c60248201526b1d5b985d5d1a1bdc9a5e995960a21b604482015290519081900360640190fd5b61086181610aa5565b600e5481565b3390565b6001600160a01b0381166109815760405162461bcd60e51b8152600401808060200182810382526025815260200180610bb86025913960400191505060405180910390fd5b806001600160a01b0316610993610623565b6001600160a01b03167f8be0079c531659141344cd1fd0a4f28419497f9722a3daafe3b4186f6b6457e060405160405180910390a3604080516e35b2bc97383937bc3c9737bbb732b960891b8152905190819003600f01902055565b6001600160a01b038116610a345760405162461bcd60e51b8152600401808060200182810382526029815260200180610b6c6029913960400191505060405180910390fd5b806001600160a01b0316610a46610543565b6001600160a01b03167fcfbf4028add9318bbf716f08c348595afb063b0e9feed1f86d33681a4b3ed4d360405160405180910390a3604080517135b2bc9734b6b83632b6b2b73a30ba34b7b760711b8152905190819003601201902055565b6001600160a01b038116610aea5760405162461bcd60e51b8152600401808060200182810382526026815260200180610b466026913960400191505060405180910390fd5b600080546040516001600160a01b03808516939216917f8be0079c531659141344cd1fd0a4f28419497f9722a3daafe3b4186f6b6457e091a3600080546001600160a01b0319166001600160a01b039290921691909117905556fe4f776e61626c653a206e6577206f776e657220697320746865207a65726f206164647265737350726f78793a3a736574496d706c656d656e746174696f6e3a20696e76616c6964206164647265737350726f78793a3a28293a20696d706c656d656e746174696f6e206e6f7420666f756e6450726f78793a3a73657450726f78794f776e65723a20696e76616c69642061646472657373a265627a7a72315820abc0f7fa46b5e4b326f6b7451b8be4ed06e65651d4c7cd91058aae112cd1beb264736f6c634300051100328be0079c531659141344cd1fd0a4f28419497f9722a3daafe3b4186f6b6457e050726f78793a3a73657450726f78794f776e65723a20696e76616c69642061646472657373",
    "linkReferences": {}
  },
  "methodIdentifiers": {
    "SOV()": "08dcb360",
    "addAdmin(address)": "70480275",
    "admins(address)": "429b62e5",
    "bonusEndBlock()": "1aed6553",
    "endBlock()": "083c6323",
    "getImplementation()": "aaf10f42",
    "getProxyOwner()": "1ab7710d",
    "isOwner()": "8f32d59b",
    "lockedSOV()": "f2f46b3b",
    "owner()": "8da5cb5b",
    "poolInfoList(uint256)": "787b4026",
    "poolTokensUnlockedImmediatelyPercent(address)": "1fc3f004",
    "removeAdmin(address)": "1785f53c",
    "rewardTokensPerBlock()": "29d0fa3e",
    "setImplementation(address)": "d784d426",
    "setProxyOwner(address)": "caaee91c",
    "startBlock()": "48cd4cb1",
    "totalAllocationPoint()": "a1a6690f",
    "totalUsersBalance()": "9a13ba29",
    "transferOwnership(address)": "f2fde38b",
    "unlockedImmediatelyPercent()": "f729a404",
    "userInfoMap(uint256,address)": "5f02c145",
    "wrapper()": "ac210cc7"
  },
  "id": 38
}