{
  "abi": [
    {
      "inputs": [
        {
          "internalType": "address",
          "name": "_vestingFactory",
          "type": "address"
        },
        {
          "internalType": "address",
          "name": "_SOV",
          "type": "address"
        },
        {
          "internalType": "address[]",
          "name": "_CSOVtokens",
          "type": "address[]"
        },
        {
          "internalType": "uint256",
          "name": "_priceSats",
          "type": "uint256"
        },
        {
          "internalType": "address",
          "name": "_staking",
          "type": "address"
        },
        {
          "internalType": "address",
          "name": "_feeSharingCollector",
          "type": "address"
        },
        {
          "internalType": "address",
          "name": "_vestingOwner",
          "type": "address"
        }
      ],
      "payable": false,
      "stateMutability": "nonpayable",
      "type": "constructor"
    },
    {
      "anonymous": false,
      "inputs": [
        {
          "indexed": false,
          "internalType": "address",
          "name": "admin",
          "type": "address"
        }
      ],
      "name": "AdminAdded",
      "type": "event"
    },
    {
      "anonymous": false,
      "inputs": [
        {
          "indexed": false,
          "internalType": "address",
          "name": "admin",
          "type": "address"
        }
      ],
      "name": "AdminRemoved",
      "type": "event"
    },
    {
      "anonymous": false,
      "inputs": [
        {
          "indexed": false,
          "internalType": "address",
          "name": "from",
          "type": "address"
        },
        {
          "indexed": false,
          "internalType": "uint256",
          "name": "CSOVamount",
          "type": "uint256"
        },
        {
          "indexed": false,
          "internalType": "uint256",
          "name": "reImburseAmount",
          "type": "uint256"
        }
      ],
      "name": "CSOVReImburse",
      "type": "event"
    },
    {
      "anonymous": false,
      "inputs": [
        {
          "indexed": true,
          "internalType": "address",
          "name": "caller",
          "type": "address"
        },
        {
          "indexed": false,
          "internalType": "uint256",
          "name": "amount",
          "type": "uint256"
        }
      ],
      "name": "CSOVTokensExchanged",
      "type": "event"
    },
    {
      "anonymous": false,
      "inputs": [
        {
          "indexed": true,
          "internalType": "address",
          "name": "previousOwner",
          "type": "address"
        },
        {
          "indexed": true,
          "internalType": "address",
          "name": "newOwner",
          "type": "address"
        }
      ],
      "name": "OwnershipTransferred",
      "type": "event"
    },
    {
      "anonymous": false,
      "inputs": [
        {
          "indexed": true,
          "internalType": "address",
          "name": "receiver",
          "type": "address"
        },
        {
          "indexed": false,
          "internalType": "uint256",
          "name": "amount",
          "type": "uint256"
        }
      ],
      "name": "SOVTransferred",
      "type": "event"
    },
    {
      "anonymous": false,
      "inputs": [
        {
          "indexed": true,
          "internalType": "address",
          "name": "tokenOwner",
          "type": "address"
        },
        {
          "indexed": false,
          "internalType": "address",
          "name": "vesting",
          "type": "address"
        },
        {
          "indexed": false,
          "internalType": "uint256",
          "name": "cliff",
          "type": "uint256"
        },
        {
          "indexed": false,
          "internalType": "uint256",
          "name": "duration",
          "type": "uint256"
        },
        {
          "indexed": false,
          "internalType": "uint256",
          "name": "amount",
          "type": "uint256"
        }
      ],
      "name": "TeamVestingCreated",
      "type": "event"
    },
    {
      "anonymous": false,
      "inputs": [
        {
          "indexed": true,
          "internalType": "address",
          "name": "vesting",
          "type": "address"
        },
        {
          "indexed": false,
          "internalType": "uint256",
          "name": "amount",
          "type": "uint256"
        }
      ],
      "name": "TokensStaked",
      "type": "event"
    },
    {
      "anonymous": false,
      "inputs": [
        {
          "indexed": true,
          "internalType": "address",
          "name": "tokenOwner",
          "type": "address"
        },
        {
          "indexed": false,
          "internalType": "address",
          "name": "vesting",
          "type": "address"
        },
        {
          "indexed": false,
          "internalType": "uint256",
          "name": "cliff",
          "type": "uint256"
        },
        {
          "indexed": false,
          "internalType": "uint256",
          "name": "duration",
          "type": "uint256"
        },
        {
          "indexed": false,
          "internalType": "uint256",
          "name": "amount",
          "type": "uint256"
        }
      ],
      "name": "VestingCreated",
      "type": "event"
    },
    {
      "constant": true,
      "inputs": [],
      "name": "CSOV_VESTING_CLIFF",
      "outputs": [
        {
          "internalType": "uint256",
          "name": "",
          "type": "uint256"
        }
      ],
      "payable": false,
      "stateMutability": "view",
      "type": "function"
    },
    {
      "constant": true,
      "inputs": [],
      "name": "CSOV_VESTING_DURATION",
      "outputs": [
        {
          "internalType": "uint256",
          "name": "",
          "type": "uint256"
        }
      ],
      "payable": false,
      "stateMutability": "view",
      "type": "function"
    },
    {
      "constant": true,
      "inputs": [
        {
          "internalType": "uint256",
          "name": "",
          "type": "uint256"
        }
      ],
      "name": "CSOVtokens",
      "outputs": [
        {
          "internalType": "address",
          "name": "",
          "type": "address"
        }
      ],
      "payable": false,
      "stateMutability": "view",
      "type": "function"
    },
    {
      "constant": true,
      "inputs": [],
      "name": "FOUR_WEEKS",
      "outputs": [
        {
          "internalType": "uint256",
          "name": "",
          "type": "uint256"
        }
      ],
      "payable": false,
      "stateMutability": "view",
      "type": "function"
    },
    {
      "constant": true,
      "inputs": [],
      "name": "SOV",
      "outputs": [
        {
          "internalType": "address",
          "name": "",
          "type": "address"
        }
      ],
      "payable": false,
      "stateMutability": "view",
      "type": "function"
    },
    {
      "constant": false,
      "inputs": [
        {
          "internalType": "address",
          "name": "_admin",
          "type": "address"
        }
      ],
      "name": "addAdmin",
      "outputs": [],
      "payable": false,
      "stateMutability": "nonpayable",
      "type": "function"
    },
    {
      "constant": true,
      "inputs": [
        {
          "internalType": "address",
          "name": "",
          "type": "address"
        }
      ],
      "name": "admins",
      "outputs": [
        {
          "internalType": "bool",
          "name": "",
          "type": "bool"
        }
      ],
      "payable": false,
      "stateMutability": "view",
      "type": "function"
    },
    {
      "constant": true,
      "inputs": [
        {
          "internalType": "address",
          "name": "",
          "type": "address"
        }
      ],
      "name": "blacklist",
      "outputs": [
        {
          "internalType": "bool",
          "name": "",
          "type": "bool"
        }
      ],
      "payable": false,
      "stateMutability": "view",
      "type": "function"
    },
    {
      "constant": true,
      "inputs": [],
      "name": "budget",
      "outputs": [
        {
          "internalType": "uint256",
          "name": "",
          "type": "uint256"
        }
      ],
      "payable": false,
      "stateMutability": "view",
      "type": "function"
    },
    {
      "constant": false,
      "inputs": [
        {
          "internalType": "address",
          "name": "_tokenOwner",
          "type": "address"
        },
        {
          "internalType": "uint256",
          "name": "_amount",
          "type": "uint256"
        },
        {
          "internalType": "uint256",
          "name": "_cliff",
          "type": "uint256"
        },
        {
          "internalType": "uint256",
          "name": "_duration",
          "type": "uint256"
        }
      ],
      "name": "createTeamVesting",
      "outputs": [],
      "payable": false,
      "stateMutability": "nonpayable",
      "type": "function"
    },
    {
      "constant": false,
      "inputs": [
        {
          "internalType": "address",
          "name": "_tokenOwner",
          "type": "address"
        },
        {
          "internalType": "uint256",
          "name": "_amount",
          "type": "uint256"
        },
        {
          "internalType": "uint256",
          "name": "_cliff",
          "type": "uint256"
        },
        {
          "internalType": "uint256",
          "name": "_duration",
          "type": "uint256"
        }
      ],
      "name": "createVesting",
      "outputs": [],
      "payable": false,
      "stateMutability": "nonpayable",
      "type": "function"
    },
    {
      "constant": false,
      "inputs": [],
      "name": "deposit",
      "outputs": [],
      "payable": true,
      "stateMutability": "payable",
      "type": "function"
    },
    {
      "constant": false,
      "inputs": [],
      "name": "exchangeAllCSOV",
      "outputs": [],
      "payable": false,
      "stateMutability": "nonpayable",
      "type": "function"
    },
    {
      "constant": true,
      "inputs": [],
      "name": "feeSharingCollector",
      "outputs": [
        {
          "internalType": "address",
          "name": "",
          "type": "address"
        }
      ],
      "payable": false,
      "stateMutability": "view",
      "type": "function"
    },
    {
      "constant": true,
      "inputs": [
        {
          "internalType": "address",
          "name": "_tokenOwner",
          "type": "address"
        }
      ],
      "name": "getTeamVesting",
      "outputs": [
        {
          "internalType": "address",
          "name": "",
          "type": "address"
        }
      ],
      "payable": false,
      "stateMutability": "view",
      "type": "function"
    },
    {
      "constant": true,
      "inputs": [
        {
          "internalType": "address",
          "name": "_tokenOwner",
          "type": "address"
        }
      ],
      "name": "getVesting",
      "outputs": [
        {
          "internalType": "address",
          "name": "",
          "type": "address"
        }
      ],
      "payable": false,
      "stateMutability": "view",
      "type": "function"
    },
    {
      "constant": true,
      "inputs": [],
      "name": "isOwner",
      "outputs": [
        {
          "internalType": "bool",
          "name": "",
          "type": "bool"
        }
      ],
      "payable": false,
      "stateMutability": "view",
      "type": "function"
    },
    {
      "constant": true,
      "inputs": [
        {
          "internalType": "address",
          "name": "",
          "type": "address"
        }
      ],
      "name": "lockedAmount",
      "outputs": [
        {
          "internalType": "uint256",
          "name": "",
          "type": "uint256"
        }
      ],
      "payable": false,
      "stateMutability": "view",
      "type": "function"
    },
    {
      "constant": true,
      "inputs": [],
      "name": "owner",
      "outputs": [
        {
          "internalType": "address",
          "name": "",
          "type": "address"
        }
      ],
      "payable": false,
      "stateMutability": "view",
      "type": "function"
    },
    {
      "constant": true,
      "inputs": [],
      "name": "priceSats",
      "outputs": [
        {
          "internalType": "uint256",
          "name": "",
          "type": "uint256"
        }
      ],
      "payable": false,
      "stateMutability": "view",
      "type": "function"
    },
    {
      "constant": true,
      "inputs": [
        {
          "internalType": "address",
          "name": "",
          "type": "address"
        }
      ],
      "name": "processedList",
      "outputs": [
        {
          "internalType": "bool",
          "name": "",
          "type": "bool"
        }
      ],
      "payable": false,
      "stateMutability": "view",
      "type": "function"
    },
    {
      "constant": false,
      "inputs": [],
      "name": "reImburse",
      "outputs": [],
      "payable": false,
      "stateMutability": "nonpayable",
      "type": "function"
    },
    {
      "constant": false,
      "inputs": [
        {
          "internalType": "address",
          "name": "_admin",
          "type": "address"
        }
      ],
      "name": "removeAdmin",
      "outputs": [],
      "payable": false,
      "stateMutability": "nonpayable",
      "type": "function"
    },
    {
      "constant": false,
      "inputs": [
        {
          "internalType": "address",
          "name": "_account",
          "type": "address"
        },
        {
          "internalType": "bool",
          "name": "_blacklisted",
          "type": "bool"
        }
      ],
      "name": "setBlacklistFlag",
      "outputs": [],
      "payable": false,
      "stateMutability": "nonpayable",
      "type": "function"
    },
    {
      "constant": false,
      "inputs": [
        {
          "internalType": "address[]",
          "name": "_CSOVtokens",
          "type": "address[]"
        }
      ],
      "name": "setCSOVtokens",
      "outputs": [],
      "payable": false,
      "stateMutability": "nonpayable",
      "type": "function"
    },
    {
      "constant": false,
      "inputs": [
        {
          "internalType": "address",
          "name": "_account",
          "type": "address"
        },
        {
          "internalType": "uint256",
          "name": "_amount",
          "type": "uint256"
        }
      ],
      "name": "setLockedAmount",
      "outputs": [],
      "payable": false,
      "stateMutability": "nonpayable",
      "type": "function"
    },
    {
      "constant": false,
      "inputs": [
        {
          "internalType": "address",
          "name": "_vestingFactory",
          "type": "address"
        }
      ],
      "name": "setVestingFactory",
      "outputs": [],
      "payable": false,
      "stateMutability": "nonpayable",
      "type": "function"
    },
    {
      "constant": false,
      "inputs": [
        {
          "internalType": "address",
          "name": "_vesting",
          "type": "address"
        },
        {
          "internalType": "uint256",
          "name": "_amount",
          "type": "uint256"
        }
      ],
      "name": "stakeTokens",
      "outputs": [],
      "payable": false,
      "stateMutability": "nonpayable",
      "type": "function"
    },
    {
      "constant": true,
      "inputs": [],
      "name": "staking",
      "outputs": [
        {
          "internalType": "address",
          "name": "",
          "type": "address"
        }
      ],
      "payable": false,
      "stateMutability": "view",
      "type": "function"
    },
    {
      "constant": false,
      "inputs": [
        {
          "internalType": "address",
          "name": "newOwner",
          "type": "address"
        }
      ],
      "name": "transferOwnership",
      "outputs": [],
      "payable": false,
      "stateMutability": "nonpayable",
      "type": "function"
    },
    {
      "constant": false,
      "inputs": [
        {
          "internalType": "address",
          "name": "_receiver",
          "type": "address"
        },
        {
          "internalType": "uint256",
          "name": "_amount",
          "type": "uint256"
        }
      ],
      "name": "transferSOV",
      "outputs": [],
      "payable": false,
      "stateMutability": "nonpayable",
      "type": "function"
    },
    {
      "constant": true,
      "inputs": [
        {
          "internalType": "address",
          "name": "",
          "type": "address"
        },
        {
          "internalType": "uint256",
          "name": "",
          "type": "uint256"
        }
      ],
      "name": "vestingContracts",
      "outputs": [
        {
          "internalType": "address",
          "name": "",
          "type": "address"
        }
      ],
      "payable": false,
      "stateMutability": "view",
      "type": "function"
    },
    {
      "constant": true,
      "inputs": [],
      "name": "vestingFactory",
      "outputs": [
        {
          "internalType": "contract IVestingFactory",
          "name": "",
          "type": "address"
        }
      ],
      "payable": false,
      "stateMutability": "view",
      "type": "function"
    },
    {
      "constant": true,
      "inputs": [],
      "name": "vestingOwner",
      "outputs": [
        {
          "internalType": "address",
          "name": "",
          "type": "address"
        }
      ],
      "payable": false,
      "stateMutability": "view",
      "type": "function"
    },
    {
      "constant": false,
      "inputs": [
        {
          "internalType": "address payable",
          "name": "to",
          "type": "address"
        }
      ],
      "name": "withdrawAll",
      "outputs": [],
      "payable": false,
      "stateMutability": "nonpayable",
      "type": "function"
    }
  ],
  "bytecode": {
    "object": "0x60806040523480156200001157600080fd5b506040516200252738038062002527833981810160405260e08110156200003757600080fd5b815160208301516040808501805191519395929483019291846401000000008211156200006357600080fd5b9083019060208201858111156200007957600080fd5b82518660208202830111640100000000821117156200009757600080fd5b82525081516020918201928201910280838360005b83811015620000c6578181015183820152602001620000ac565b505050509190910160409081526020830151908301516060840151608090940151919550935090506000620001036001600160e01b036200032d16565b600080546001600160a01b0319166001600160a01b0383169081178255604051929350917f8be0079c531659141344cd1fd0a4f28419497f9722a3daafe3b4186f6b6457e0908290a3506001600160a01b038616620001a9576040805162461bcd60e51b815260206004820152601360248201527f534f56206164647265737320696e76616c696400000000000000000000000000604482015290519081900360640190fd5b6001600160a01b03831662000205576040805162461bcd60e51b815260206004820152601760248201527f7374616b696e67206164647265737320696e76616c6964000000000000000000604482015290519081900360640190fd5b6001600160a01b0382166200024c5760405162461bcd60e51b8152600401808060200182810382526023815260200180620025046023913960400191505060405180910390fd5b6001600160a01b038116620002a8576040805162461bcd60e51b815260206004820152601c60248201527f76657374696e674f776e6572206164647265737320696e76616c696400000000604482015290519081900360640190fd5b620002bc876001600160e01b036200033216565b620002d0856001600160e01b03620003b016565b600280546001600160a01b039788166001600160a01b031991821617909155600494909455600580549387169385169390931790925560068054918616918416919091179055600780549190941691161790915550620004ee9050565b335b90565b6001600160a01b0381166200038e576040805162461bcd60e51b815260206004820152601e60248201527f76657374696e67466163746f7279206164647265737320696e76616c69640000604482015290519081900360640190fd5b600180546001600160a01b0319166001600160a01b0392909216919091179055565b60005b8151811015620004435760006001600160a01b0316828281518110620003d557fe5b60200260200101516001600160a01b031614156200043a576040805162461bcd60e51b815260206004820152601460248201527f43534f56206164647265737320696e76616c6964000000000000000000000000604482015290519081900360640190fd5b600101620003b3565b508051620004599060039060208401906200045d565b5050565b828054828255906000526020600020908101928215620004b5579160200282015b82811115620004b557825182546001600160a01b0319166001600160a01b039091161782556020909201916001909101906200047e565b50620004c3929150620004c7565b5090565b6200032f91905b80821115620004c35780546001600160a01b0319168155600101620004ce565b61200680620004fe6000396000f3fe6080604052600436106102045760003560e01c8063a153e70811610118578063d0e30db0116100a0578063f2fde38b1161006f578063f2fde38b1461076c578063f60826ee1461079f578063f6d6189e146105ba578063f9f92be4146107b4578063fa09e630146107e757610204565b8063d0e30db0146106dd578063df8bd747146106e5578063ed01bf291461071e578063f2becf171461073357610204565b8063bd8f732b116100e7578063bd8f732b146105e4578063c627330914610629578063c680c0b71461063e578063c810a3e314610677578063cc49ede7146106aa57610204565b8063a153e70814610572578063b33f914a146105a5578063b4ebc041146105ba578063bd7b5908146105cf57610204565b8063661f21611161019b57806381d2e4bb1161016a57806381d2e4bb1461043357806382999a391461046e5780638da5cb5b1461051e5780638f32d59b1461053357806399336b361461054857610204565b8063661f21611461038b5780636b7dbb2d146103b257806370480275146103c757806379a83f5a146103fa57610204565b806335f52572116101d757806335f52572146102fb578063377220fd14610310578063429b62e5146103435780634cf088d91461037657610204565b80630665a06f1461020957806308dcb360146102505780631785f53c146102815780632eee57fa146102b4575b600080fd5b34801561021557600080fd5b5061024e6004803603608081101561022c57600080fd5b506001600160a01b03813516906020810135906040810135906060013561081a565b005b34801561025c57600080fd5b506102656108e8565b604080516001600160a01b039092168252519081900360200190f35b34801561028d57600080fd5b5061024e600480360360208110156102a457600080fd5b50356001600160a01b03166108f7565b3480156102c057600080fd5b506102e7600480360360208110156102d757600080fd5b50356001600160a01b0316610997565b604080519115158252519081900360200190f35b34801561030757600080fd5b5061024e6109ac565b34801561031c57600080fd5b5061024e6004803603602081101561033357600080fd5b50356001600160a01b0316610c84565b34801561034f57600080fd5b506102e76004803603602081101561036657600080fd5b50356001600160a01b0316610cd8565b34801561038257600080fd5b50610265610ced565b34801561039757600080fd5b506103a0610cfc565b60408051918252519081900360200190f35b3480156103be57600080fd5b50610265610d02565b3480156103d357600080fd5b5061024e600480360360208110156103ea57600080fd5b50356001600160a01b0316610d11565b34801561040657600080fd5b5061024e6004803603604081101561041d57600080fd5b506001600160a01b038135169060200135610db4565b34801561043f57600080fd5b5061024e6004803603604081101561045657600080fd5b506001600160a01b0381351690602001351515610fdc565b34801561047a57600080fd5b5061024e6004803603602081101561049157600080fd5b8101906020810181356401000000008111156104ac57600080fd5b8201836020820111156104be57600080fd5b803590602001918460208302840111640100000000831117156104e057600080fd5b9190808060200260200160405190810160405280939291908181526020018383602002808284376000920191909152509295506110a4945050505050565b34801561052a57600080fd5b506102656110f5565b34801561053f57600080fd5b506102e7611105565b34801561055457600080fd5b506102656004803603602081101561056b57600080fd5b5035611129565b34801561057e57600080fd5b506103a06004803603602081101561059557600080fd5b50356001600160a01b0316611150565b3480156105b157600080fd5b506103a0611162565b3480156105c657600080fd5b506103a061116a565b3480156105db57600080fd5b50610265611171565b3480156105f057600080fd5b5061024e6004803603608081101561060757600080fd5b506001600160a01b038135169060208101359060408101359060600135611180565b34801561063557600080fd5b5061024e61124e565b34801561064a57600080fd5b5061024e6004803603604081101561066157600080fd5b506001600160a01b03813516906020013561142b565b34801561068357600080fd5b506102656004803603602081101561069a57600080fd5b50356001600160a01b03166115d6565b3480156106b657600080fd5b50610265600480360360208110156106cd57600080fd5b50356001600160a01b0316611611565b61024e611631565b3480156106f157600080fd5b5061024e6004803603604081101561070857600080fd5b506001600160a01b038135169060200135611633565b34801561072a57600080fd5b506103a061172f565b34801561073f57600080fd5b506102656004803603604081101561075657600080fd5b506001600160a01b038135169060200135611733565b34801561077857600080fd5b5061024e6004803603602081101561078f57600080fd5b50356001600160a01b0316611759565b3480156107ab57600080fd5b506102656117aa565b3480156107c057600080fd5b506102e7600480360360208110156107d757600080fd5b50356001600160a01b03166117b9565b3480156107f357600080fd5b5061024e6004803603602081101561080a57600080fd5b50356001600160a01b03166117ce565b610822611105565b8061083c5750336000908152600c602052604090205460ff165b61087c576040805162461bcd60e51b815260206004820152600c60248201526b1d5b985d5d1a1bdc9a5e995960a21b604482015290519081900360640190fd5b600061088985848461184f565b604080516001600160a01b03808416825260208201879052818301869052606082018890529151929350908716917f66a644acab4366c0125120794335c517775a2b44b4315b5d90f0d163dae07fea9181900360800190a25050505050565b6002546001600160a01b031681565b6108ff611105565b61093f576040805162461bcd60e51b815260206004820152600c60248201526b1d5b985d5d1a1bdc9a5e995960a21b604482015290519081900360640190fd5b6001600160a01b0381166000818152600c6020908152604091829020805460ff19169055815192835290517fa3b62bc36326052d97ea62d63c3d60308ed4c3ea8ac079dd8499f1e9c4f80c0f9281900390910190a150565b60096020526000908152604090205460ff1681565b3360009081526009602052604090205460ff16156109fb5760405162461bcd60e51b8152600401808060200182810382526021815260200180611f906021913960400191505060405180910390fd5b336000908152600a602052604090205460ff1615610a56576040805162461bcd60e51b81526020600482015260136024820152721059191c995cdcc8189b1858dadb1a5cdd1959606a1b604482015290519081900360640190fd5b6000805b600354811015610b1057600060038281548110610a7357fe5b6000918252602080832090910154604080516370a0823160e01b815233600482015290516001600160a01b03909216945084926370a0823192602480840193829003018186803b158015610ac657600080fd5b505afa158015610ada573d6000803e3d6000fd5b505050506040513d6020811015610af057600080fd5b50519050610b04848263ffffffff61199b16565b93505050600101610a5a565b50336000908152600b60205260409020548111610b69576040805162461bcd60e51b81526020600482015260126024820152713437b63232b9103430b99037379021a9a7ab60711b604482015290519081900360640190fd5b336000908152600b602090815260408083205460099092528220805460ff19166001179055600454920391610bbb906305f5e10090610baf90859063ffffffff6119fe16565b9063ffffffff611a5716565b905080471015610c12576040805162461bcd60e51b815260206004820152601d60248201527f4e6f7420656e6f7567682066756e647320746f207265696d6275727365000000604482015290519081900360640190fd5b604051339082156108fc029083906000818181858888f19350505050158015610c3f573d6000803e3d6000fd5b50604080513381526020810184905280820183905290517f6446d397a910984b01aa4d9df127ff6d89fc789371b7d2cad921fe28a3bc46359181900360600190a15050565b610c8c611105565b610ccc576040805162461bcd60e51b815260206004820152600c60248201526b1d5b985d5d1a1bdc9a5e995960a21b604482015290519081900360640190fd5b610cd581611a99565b50565b600c6020526000908152604090205460ff1681565b6005546001600160a01b031681565b60045481565b6006546001600160a01b031681565b610d19611105565b610d59576040805162461bcd60e51b815260206004820152600c60248201526b1d5b985d5d1a1bdc9a5e995960a21b604482015290519081900360640190fd5b6001600160a01b0381166000818152600c6020908152604091829020805460ff19166001179055815192835290517f44d6d25963f097ad14f29f06854a01f575648a1ef82f30e562ccd3889717e3399281900390910190a150565b610dbc611105565b80610dd65750336000908152600c602052604090205460ff165b610e16576040805162461bcd60e51b815260206004820152600c60248201526b1d5b985d5d1a1bdc9a5e995960a21b604482015290519081900360640190fd5b6001600160a01b038216610e71576040805162461bcd60e51b815260206004820152601760248201527f76657374696e67206164647265737320696e76616c6964000000000000000000604482015290519081900360640190fd5b60008111610eb7576040805162461bcd60e51b815260206004820152600e60248201526d185b5bdd5b9d081a5b9d985b1a5960921b604482015290519081900360640190fd5b6002546040805163095ea7b360e01b81526001600160a01b038581166004830152602482018590529151919092169163095ea7b39160448083019260209291908290030181600087803b158015610f0d57600080fd5b505af1158015610f21573d6000803e3d6000fd5b505050506040513d6020811015610f3757600080fd5b505060408051637547c7a360e01b81526004810183905290516001600160a01b03841691637547c7a391602480830192600092919082900301818387803b158015610f8157600080fd5b505af1158015610f95573d6000803e3d6000fd5b50506040805184815290516001600160a01b03861693507fb539ca1e5c8d398ddf1c41c30166f33404941683be4683319b57669a93dad4ef92509081900360200190a25050565b610fe4611105565b611024576040805162461bcd60e51b815260206004820152600c60248201526b1d5b985d5d1a1bdc9a5e995960a21b604482015290519081900360640190fd5b6001600160a01b038216611079576040805162461bcd60e51b81526020600482015260176024820152761858d8dbdd5b9d081859191c995cdcc81a5b9d985b1a59604a1b604482015290519081900360640190fd5b6001600160a01b03919091166000908152600a60205260409020805460ff1916911515919091179055565b6110ac611105565b6110ec576040805162461bcd60e51b815260206004820152600c60248201526b1d5b985d5d1a1bdc9a5e995960a21b604482015290519081900360640190fd5b610cd581611b16565b6000546001600160a01b03165b90565b600080546001600160a01b031661111a611bb0565b6001600160a01b031614905090565b6003818154811061113657fe5b6000918252602090912001546001600160a01b0316905081565b600b6020526000908152604090205481565b630171240081565b6224ea0081565b6007546001600160a01b031681565b611188611105565b806111a25750336000908152600c602052604090205460ff165b6111e2576040805162461bcd60e51b815260206004820152600c60248201526b1d5b985d5d1a1bdc9a5e995960a21b604482015290519081900360640190fd5b60006111ef858484611bb4565b604080516001600160a01b03808416825260208201879052818301869052606082018890529151929350908716917f6f0b5adf3d5b3548ea2b06e9be6e7f72e125253fd8c948f6ef4024be653c1c179181900360800190a25050505050565b3360009081526009602052604090205460ff161561129d5760405162461bcd60e51b8152600401808060200182810382526021815260200180611f906021913960400191505060405180910390fd5b336000908152600a602052604090205460ff16156112f8576040805162461bcd60e51b81526020600482015260136024820152721059191c995cdcc8189b1858dadb1a5cdd1959606a1b604482015290519081900360640190fd5b336000908152600960205260408120805460ff19166001179055805b6003548110156113bb5760006003828154811061132d57fe5b6000918252602080832090910154604080516370a0823160e01b815233600482015290516001600160a01b03909216945084926370a0823192602480840193829003018186803b15801561138057600080fd5b505afa158015611394573d6000803e3d6000fd5b505050506040513d60208110156113aa57600080fd5b505193909301925050600101611314565b50336000908152600b60205260409020548111611410576040805162461bcd60e51b815260206004820152600e60248201526d185b5bdd5b9d081a5b9d985b1a5960921b604482015290519081900360640190fd5b336000908152600b60205260409020549003610cd581611c6c565b611433611105565b611473576040805162461bcd60e51b815260206004820152600c60248201526b1d5b985d5d1a1bdc9a5e995960a21b604482015290519081900360640190fd5b6001600160a01b0382166114ce576040805162461bcd60e51b815260206004820152601860248201527f7265636569766572206164647265737320696e76616c69640000000000000000604482015290519081900360640190fd5b80611511576040805162461bcd60e51b815260206004820152600e60248201526d185b5bdd5b9d081a5b9d985b1a5960921b604482015290519081900360640190fd5b6002546040805163a9059cbb60e01b81526001600160a01b038581166004830152602482018590529151919092169163a9059cbb9160448083019260209291908290030181600087803b15801561156757600080fd5b505af115801561157b573d6000803e3d6000fd5b505050506040513d602081101561159157600080fd5b50506040805182815290516001600160a01b038416917fe1b0ada289bf82fb641c8c1e1c78f820fae44e8f845760725cdeb09167a289ad919081900360200190a25050565b6001600160a01b038116600090815260086020526040812081805b81526020810191909152604001600020546001600160a01b031692915050565b6001600160a01b03811660009081526008602052604081208160016115f1565b565b61163b611105565b61167b576040805162461bcd60e51b815260206004820152600c60248201526b1d5b985d5d1a1bdc9a5e995960a21b604482015290519081900360640190fd5b6001600160a01b0382166116d0576040805162461bcd60e51b81526020600482015260176024820152761858d8dbdd5b9d081859191c995cdcc81a5b9d985b1a59604a1b604482015290519081900360640190fd5b80611713576040805162461bcd60e51b815260206004820152600e60248201526d185b5bdd5b9d081a5b9d985b1a5960921b604482015290519081900360640190fd5b6001600160a01b039091166000908152600b6020526040902055565b4790565b60086020908152600092835260408084209091529082529020546001600160a01b031681565b611761611105565b6117a1576040805162461bcd60e51b815260206004820152600c60248201526b1d5b985d5d1a1bdc9a5e995960a21b604482015290519081900360640190fd5b610cd581611d9e565b6001546001600160a01b031681565b600a6020526000908152604090205460ff1681565b6117d6611105565b611816576040805162461bcd60e51b815260206004820152600c60248201526b1d5b985d5d1a1bdc9a5e995960a21b604482015290519081900360640190fd5b6040516001600160a01b038216904780156108fc02916000818181858888f1935050505015801561184b573d6000803e3d6000fd5b5050565b6001600160a01b03838116600090815260086020908152604080832060018085529252822054919290911661196d5760015460025460055460065460408051637d2fbb8f60e11b81526001600160a01b039485166004820152928416602484015289841660448401819052606484018a90526084840189905291841660a484015260c483019190915251600093929092169163fa5f771e9160e48082019260209290919082900301818787803b15801561190857600080fd5b505af115801561191c573d6000803e3d6000fd5b505050506040513d602081101561193257600080fd5b50516001600160a01b038781166000908152600860209081526040808320878452909152902080546001600160a01b03191691909216179055505b6001600160a01b03948516600090815260086020908152604080832093835292905220549093169392505050565b6000828201838110156119f5576040805162461bcd60e51b815260206004820152601b60248201527f536166654d6174683a206164646974696f6e206f766572666c6f770000000000604482015290519081900360640190fd5b90505b92915050565b600082611a0d575060006119f8565b82820282848281611a1a57fe5b04146119f55760405162461bcd60e51b8152600401808060200182810382526021815260200180611fb16021913960400191505060405180910390fd5b60006119f583836040518060400160405280601a81526020017f536166654d6174683a206469766973696f6e206279207a65726f000000000000815250611e3e565b6001600160a01b038116611af4576040805162461bcd60e51b815260206004820152601e60248201527f76657374696e67466163746f7279206164647265737320696e76616c69640000604482015290519081900360640190fd5b600180546001600160a01b0319166001600160a01b0392909216919091179055565b60005b8151811015611b9c5760006001600160a01b0316828281518110611b3957fe5b60200260200101516001600160a01b03161415611b94576040805162461bcd60e51b815260206004820152601460248201527310d4d3d5881859191c995cdcc81a5b9d985b1a5960621b604482015290519081900360640190fd5b600101611b19565b50805161184b906003906020840190611ee0565b3390565b6001600160a01b038381166000908152600860209081526040808320838052909152812054909182911661196d5760015460025460055460065460075460408051630546344f60e41b81526001600160a01b03958616600482015293851660248501528a85166044850152606484018a90526084840189905291841660a4840152831660c483015251600093929092169163546344f09160e48082019260209290919082900301818787803b15801561190857600080fd5b6000611c80336224ea00630171240061184f565b6002546040805163095ea7b360e01b81526001600160a01b03808516600483015260248201879052915193945091169163095ea7b3916044808201926020929091908290030181600087803b158015611cd857600080fd5b505af1158015611cec573d6000803e3d6000fd5b505050506040513d6020811015611d0257600080fd5b505060408051637547c7a360e01b81526004810184905290516001600160a01b03831691637547c7a391602480830192600092919082900301818387803b158015611d4c57600080fd5b505af1158015611d60573d6000803e3d6000fd5b50506040805185815290513393507f7a97172500d57114068a2a8f1f632999070720324825e2c5b57e27219b7bf18f92509081900360200190a25050565b6001600160a01b038116611de35760405162461bcd60e51b8152600401808060200182810382526026815260200180611f6a6026913960400191505060405180910390fd5b600080546040516001600160a01b03808516939216917f8be0079c531659141344cd1fd0a4f28419497f9722a3daafe3b4186f6b6457e091a3600080546001600160a01b0319166001600160a01b0392909216919091179055565b60008183611eca5760405162461bcd60e51b81526004018080602001828103825283818151815260200191508051906020019080838360005b83811015611e8f578181015183820152602001611e77565b50505050905090810190601f168015611ebc5780820380516001836020036101000a031916815260200191505b509250505060405180910390fd5b506000838581611ed657fe5b0495945050505050565b828054828255906000526020600020908101928215611f35579160200282015b82811115611f3557825182546001600160a01b0319166001600160a01b03909116178255602090920191600190910190611f00565b50611f41929150611f45565b5090565b61110291905b80821115611f415780546001600160a01b0319168155600101611f4b56fe4f776e61626c653a206e6577206f776e657220697320746865207a65726f2061646472657373416464726573732063616e6e6f742062652070726f636573736564207477696365536166654d6174683a206d756c7469706c69636174696f6e206f766572666c6f77a265627a7a7231582094f6ceea76a13cff930e176ea5e00d944661a06ec623c6f648bbab65c7c48a5864736f6c6343000511003266656553686172696e67436f6c6c6563746f72206164647265737320696e76616c6964",
    "linkReferences": {}
  },
  "methodIdentifiers": {
    "CSOV_VESTING_CLIFF()": "b4ebc041",
    "CSOV_VESTING_DURATION()": "b33f914a",
    "CSOVtokens(uint256)": "99336b36",
    "FOUR_WEEKS()": "f6d6189e",
    "SOV()": "08dcb360",
    "addAdmin(address)": "70480275",
    "admins(address)": "429b62e5",
    "blacklist(address)": "f9f92be4",
    "budget()": "ed01bf29",
    "createTeamVesting(address,uint256,uint256,uint256)": "bd8f732b",
    "createVesting(address,uint256,uint256,uint256)": "0665a06f",
    "deposit()": "d0e30db0",
    "exchangeAllCSOV()": "c6273309",
    "feeSharingCollector()": "6b7dbb2d",
    "getTeamVesting(address)": "c810a3e3",
    "getVesting(address)": "cc49ede7",
    "isOwner()": "8f32d59b",
    "lockedAmount(address)": "a153e708",
    "owner()": "8da5cb5b",
    "priceSats()": "661f2161",
    "processedList(address)": "2eee57fa",
    "reImburse()": "35f52572",
    "removeAdmin(address)": "1785f53c",
    "setBlacklistFlag(address,bool)": "81d2e4bb",
    "setCSOVtokens(address[])": "82999a39",
    "setLockedAmount(address,uint256)": "df8bd747",
    "setVestingFactory(address)": "377220fd",
    "stakeTokens(address,uint256)": "79a83f5a",
    "staking()": "4cf088d9",
    "transferOwnership(address)": "f2fde38b",
    "transferSOV(address,uint256)": "c680c0b7",
    "vestingContracts(address,uint256)": "f2becf17",
    "vestingFactory()": "f60826ee",
    "vestingOwner()": "bd7b5908",
    "withdrawAll(address)": "fa09e630"
  },
  "id": 91
}