{
  "abi": [
    {
      "inputs": [
        {
          "internalType": "address",
          "name": "_newOwner",
          "type": "address"
        },
        {
          "internalType": "address",
          "name": "_newTarget",
          "type": "address"
        },
        {
          "internalType": "address",
          "name": "_sovrynContractAddress",
          "type": "address"
        },
        {
          "internalType": "address",
          "name": "_wrbtcTokenAddress",
          "type": "address"
        }
      ],
      "payable": false,
      "stateMutability": "nonpayable",
      "type": "constructor"
    },
    {
      "anonymous": false,
      "inputs": [
        {
          "indexed": true,
          "internalType": "address",
          "name": "owner",
          "type": "address"
        },
        {
          "indexed": true,
          "internalType": "address",
          "name": "spender",
          "type": "address"
        },
        {
          "indexed": false,
          "internalType": "uint256",
          "name": "valueBefore",
          "type": "uint256"
        },
        {
          "indexed": false,
          "internalType": "uint256",
          "name": "valueAfter",
          "type": "uint256"
        }
      ],
      "name": "AllowanceUpdate",
      "type": "event"
    },
    {
      "anonymous": false,
      "inputs": [
        {
          "indexed": true,
          "internalType": "address",
          "name": "owner",
          "type": "address"
        },
        {
          "indexed": true,
          "internalType": "address",
          "name": "spender",
          "type": "address"
        },
        {
          "indexed": false,
          "internalType": "uint256",
          "name": "value",
          "type": "uint256"
        }
      ],
      "name": "Approval",
      "type": "event"
    },
    {
      "anonymous": false,
      "inputs": [
        {
          "indexed": true,
          "internalType": "address",
          "name": "burner",
          "type": "address"
        },
        {
          "indexed": false,
          "internalType": "uint256",
          "name": "tokenAmount",
          "type": "uint256"
        },
        {
          "indexed": false,
          "internalType": "uint256",
          "name": "assetAmount",
          "type": "uint256"
        },
        {
          "indexed": false,
          "internalType": "uint256",
          "name": "price",
          "type": "uint256"
        }
      ],
      "name": "Burn",
      "type": "event"
    },
    {
      "anonymous": false,
      "inputs": [
        {
          "indexed": false,
          "internalType": "address",
          "name": "borrower",
          "type": "address"
        },
        {
          "indexed": false,
          "internalType": "address",
          "name": "target",
          "type": "address"
        },
        {
          "indexed": false,
          "internalType": "address",
          "name": "loanToken",
          "type": "address"
        },
        {
          "indexed": false,
          "internalType": "uint256",
          "name": "loanAmount",
          "type": "uint256"
        }
      ],
      "name": "FlashBorrow",
      "type": "event"
    },
    {
      "anonymous": false,
      "inputs": [
        {
          "indexed": true,
          "internalType": "address",
          "name": "minter",
          "type": "address"
        },
        {
          "indexed": false,
          "internalType": "uint256",
          "name": "tokenAmount",
          "type": "uint256"
        },
        {
          "indexed": false,
          "internalType": "uint256",
          "name": "assetAmount",
          "type": "uint256"
        },
        {
          "indexed": false,
          "internalType": "uint256",
          "name": "price",
          "type": "uint256"
        }
      ],
      "name": "Mint",
      "type": "event"
    },
    {
      "anonymous": false,
      "inputs": [
        {
          "indexed": true,
          "internalType": "address",
          "name": "previousOwner",
          "type": "address"
        },
        {
          "indexed": true,
          "internalType": "address",
          "name": "newOwner",
          "type": "address"
        }
      ],
      "name": "OwnershipTransferred",
      "type": "event"
    },
    {
      "anonymous": false,
      "inputs": [
        {
          "indexed": true,
          "internalType": "address",
          "name": "from",
          "type": "address"
        },
        {
          "indexed": true,
          "internalType": "address",
          "name": "to",
          "type": "address"
        },
        {
          "indexed": false,
          "internalType": "uint256",
          "name": "value",
          "type": "uint256"
        }
      ],
      "name": "Transfer",
      "type": "event"
    },
    {
      "payable": true,
      "stateMutability": "payable",
      "type": "fallback"
    },
    {
      "constant": true,
      "inputs": [
        {
          "internalType": "address",
          "name": "_owner",
          "type": "address"
        },
        {
          "internalType": "address",
          "name": "_spender",
          "type": "address"
        }
      ],
      "name": "allowance",
      "outputs": [
        {
          "internalType": "uint256",
          "name": "",
          "type": "uint256"
        }
      ],
      "payable": false,
      "stateMutability": "view",
      "type": "function"
    },
    {
      "constant": true,
      "inputs": [
        {
          "internalType": "address",
          "name": "_owner",
          "type": "address"
        }
      ],
      "name": "balanceOf",
      "outputs": [
        {
          "internalType": "uint256",
          "name": "",
          "type": "uint256"
        }
      ],
      "payable": false,
      "stateMutability": "view",
      "type": "function"
    },
    {
      "constant": true,
      "inputs": [],
      "name": "baseRate",
      "outputs": [
        {
          "internalType": "uint256",
          "name": "",
          "type": "uint256"
        }
      ],
      "payable": false,
      "stateMutability": "view",
      "type": "function"
    },
    {
      "constant": true,
      "inputs": [],
      "name": "checkpointSupply",
      "outputs": [
        {
          "internalType": "uint256",
          "name": "",
          "type": "uint256"
        }
      ],
      "payable": false,
      "stateMutability": "view",
      "type": "function"
    },
    {
      "constant": true,
      "inputs": [],
      "name": "decimals",
      "outputs": [
        {
          "internalType": "uint8",
          "name": "",
          "type": "uint8"
        }
      ],
      "payable": false,
      "stateMutability": "view",
      "type": "function"
    },
    {
      "constant": true,
      "inputs": [],
      "name": "initialPrice",
      "outputs": [
        {
          "internalType": "uint256",
          "name": "",
          "type": "uint256"
        }
      ],
      "payable": false,
      "stateMutability": "view",
      "type": "function"
    },
    {
      "constant": false,
      "inputs": [
        {
          "internalType": "address",
          "name": "_loanTokenAddress",
          "type": "address"
        },
        {
          "internalType": "string",
          "name": "_name",
          "type": "string"
        },
        {
          "internalType": "string",
          "name": "_symbol",
          "type": "string"
        }
      ],
      "name": "initialize",
      "outputs": [],
      "payable": false,
      "stateMutability": "nonpayable",
      "type": "function"
    },
    {
      "constant": true,
      "inputs": [],
      "name": "isOwner",
      "outputs": [
        {
          "internalType": "bool",
          "name": "",
          "type": "bool"
        }
      ],
      "payable": false,
      "stateMutability": "view",
      "type": "function"
    },
    {
      "constant": true,
      "inputs": [],
      "name": "kinkLevel",
      "outputs": [
        {
          "internalType": "uint256",
          "name": "",
          "type": "uint256"
        }
      ],
      "payable": false,
      "stateMutability": "view",
      "type": "function"
    },
    {
      "constant": true,
      "inputs": [
        {
          "internalType": "uint256",
          "name": "",
          "type": "uint256"
        }
      ],
      "name": "loanParamsIds",
      "outputs": [
        {
          "internalType": "bytes32",
          "name": "",
          "type": "bytes32"
        }
      ],
      "payable": false,
      "stateMutability": "view",
      "type": "function"
    },
    {
      "constant": true,
      "inputs": [],
      "name": "loanTokenAddress",
      "outputs": [
        {
          "internalType": "address",
          "name": "",
          "type": "address"
        }
      ],
      "payable": false,
      "stateMutability": "view",
      "type": "function"
    },
    {
      "constant": true,
      "inputs": [],
      "name": "lowUtilBaseRate",
      "outputs": [
        {
          "internalType": "uint256",
          "name": "",
          "type": "uint256"
        }
      ],
      "payable": false,
      "stateMutability": "view",
      "type": "function"
    },
    {
      "constant": true,
      "inputs": [],
      "name": "lowUtilRateMultiplier",
      "outputs": [
        {
          "internalType": "uint256",
          "name": "",
          "type": "uint256"
        }
      ],
      "payable": false,
      "stateMutability": "view",
      "type": "function"
    },
    {
      "constant": true,
      "inputs": [],
      "name": "maxScaleRate",
      "outputs": [
        {
          "internalType": "uint256",
          "name": "",
          "type": "uint256"
        }
      ],
      "payable": false,
      "stateMutability": "view",
      "type": "function"
    },
    {
      "constant": true,
      "inputs": [],
      "name": "name",
      "outputs": [
        {
          "internalType": "string",
          "name": "",
          "type": "string"
        }
      ],
      "payable": false,
      "stateMutability": "view",
      "type": "function"
    },
    {
      "constant": true,
      "inputs": [],
      "name": "owner",
      "outputs": [
        {
          "internalType": "address",
          "name": "",
          "type": "address"
        }
      ],
      "payable": false,
      "stateMutability": "view",
      "type": "function"
    },
    {
      "constant": true,
      "inputs": [],
      "name": "rateMultiplier",
      "outputs": [
        {
          "internalType": "uint256",
          "name": "",
          "type": "uint256"
        }
      ],
      "payable": false,
      "stateMutability": "view",
      "type": "function"
    },
    {
      "constant": false,
      "inputs": [
        {
          "internalType": "address",
          "name": "_newTarget",
          "type": "address"
        }
      ],
      "name": "setTarget",
      "outputs": [],
      "payable": false,
      "stateMutability": "nonpayable",
      "type": "function"
    },
    {
      "constant": true,
      "inputs": [],
      "name": "sovrynContractAddress",
      "outputs": [
        {
          "internalType": "address",
          "name": "",
          "type": "address"
        }
      ],
      "payable": false,
      "stateMutability": "view",
      "type": "function"
    },
    {
      "constant": true,
      "inputs": [],
      "name": "symbol",
      "outputs": [
        {
          "internalType": "string",
          "name": "",
          "type": "string"
        }
      ],
      "payable": false,
      "stateMutability": "view",
      "type": "function"
    },
    {
      "constant": true,
      "inputs": [],
      "name": "targetLevel",
      "outputs": [
        {
          "internalType": "uint256",
          "name": "",
          "type": "uint256"
        }
      ],
      "payable": false,
      "stateMutability": "view",
      "type": "function"
    },
    {
      "constant": true,
      "inputs": [],
      "name": "totalSupply",
      "outputs": [
        {
          "internalType": "uint256",
          "name": "",
          "type": "uint256"
        }
      ],
      "payable": false,
      "stateMutability": "view",
      "type": "function"
    },
    {
      "constant": true,
      "inputs": [
        {
          "internalType": "address",
          "name": "",
          "type": "address"
        }
      ],
      "name": "transactionLimit",
      "outputs": [
        {
          "internalType": "uint256",
          "name": "",
          "type": "uint256"
        }
      ],
      "payable": false,
      "stateMutability": "view",
      "type": "function"
    },
    {
      "constant": false,
      "inputs": [
        {
          "internalType": "address",
          "name": "newOwner",
          "type": "address"
        }
      ],
      "name": "transferOwnership",
      "outputs": [],
      "payable": false,
      "stateMutability": "nonpayable",
      "type": "function"
    },
    {
      "constant": true,
      "inputs": [],
      "name": "wrbtcTokenAddress",
      "outputs": [
        {
          "internalType": "address",
          "name": "",
          "type": "address"
        }
      ],
      "payable": false,
      "stateMutability": "view",
      "type": "function"
    }
  ],
  "bytecode": {
    "object": "0x608060405260016000553480156200001657600080fd5b506040516200111e3803806200111e833981810160405260808110156200003c57600080fd5b50805160208201516040830151606090930151919290916000620000686001600160e01b03620000ff16565b600180546001600160a01b0319166001600160a01b03831690811790915560405191925090600090600080516020620010fe833981519152908290a350620000b9846001600160e01b036200010316565b620000cd836001600160e01b036200016e16565b620000e1826001600160e01b03620001f816565b620000f5816001600160e01b036200028216565b505050506200040c565b3390565b620001166001600160e01b036200030c16565b62000157576040805162461bcd60e51b815260206004820152600c60248201526b1d5b985d5d1a1bdc9a5e995960a21b604482015290519081900360640190fd5b6200016b816001600160e01b036200033d16565b50565b6200018481620003cf60201b62000b8d1760201c565b620001d6576040805162461bcd60e51b815260206004820152601560248201527f746172676574206e6f74206120636f6e74726163740000000000000000000000604482015290519081900360640190fd5b601880546001600160a01b0319166001600160a01b0392909216919091179055565b6200020e81620003cf60201b62000b8d1760201c565b62000260576040805162461bcd60e51b815260206004820152601560248201527f736f7672796e206e6f74206120636f6e74726163740000000000000000000000604482015290519081900360640190fd5b601680546001600160a01b0319166001600160a01b0392909216919091179055565b6200029881620003cf60201b62000b8d1760201c565b620002ea576040805162461bcd60e51b815260206004820152601460248201527f7772627463206e6f74206120636f6e7472616374000000000000000000000000604482015290519081900360640190fd5b601780546001600160a01b0319166001600160a01b0392909216919091179055565b6001546000906001600160a01b03166200032e6001600160e01b03620000ff16565b6001600160a01b031614905090565b6001600160a01b038116620003845760405162461bcd60e51b8152600401808060200182810382526026815260200180620010d86026913960400191505060405180910390fd5b6001546040516001600160a01b03808416921690600080516020620010fe83398151915290600090a3600180546001600160a01b0319166001600160a01b0392909216919091179055565b6000813f7fc5d2460186f7233c927e7db2dcc703c0e500b653ca82273b7bfad8045d85a4708181148015906200040457508115155b949350505050565b610cbc806200041c6000396000f3fe6080604052600436106101665760003560e01c8063797bf385116100d157806395d89b411161008a578063dd62ed3e11610064578063dd62ed3e146105ee578063e41b07e314610629578063ef2b0b391461065c578063f2fde38b1461067157610166565b806395d89b41146105af578063ba0e43bf146105c4578063d759dbeb146105d957610166565b8063797bf385146103e85780637b7933b4146103fd5780637e37c08c146104125780638da5cb5b146104275780638f32d59b1461043c578063906571471461046557610166565b8063313ce56711610123578063313ce567146103035780633291c11a1461032e578063330691ac1461035857806356e07d701461036d57806370a0823114610382578063776d1a01146103b557610166565b806306947a3a146101e257806306fdde031461021357806318160ddd1461029d5780631d0806ae146102c45780631f68f20a146102d95780632f6b600d146102ee575b6108fc5a11610174576101e0565b60185460408051602036601f81018290048202830182019093528282526001600160a01b039093169260609260009181908401838280828437600092018290525084519495509384935091505060208401855af43d604051816000823e8280156101dc578282f35b8282fd5b005b3480156101ee57600080fd5b506101f76106a4565b604080516001600160a01b039092168252519081900360200190f35b34801561021f57600080fd5b506102286106b3565b6040805160208082528351818301528351919283929083019185019080838360005b8381101561026257818101518382015260200161024a565b50505050905090810190601f16801561028f5780820380516001836020036101000a031916815260200191505b509250505060405180910390f35b3480156102a957600080fd5b506102b261073e565b60408051918252519081900360200190f35b3480156102d057600080fd5b506102b2610745565b3480156102e557600080fd5b506102b261074b565b3480156102fa57600080fd5b506101f7610751565b34801561030f57600080fd5b50610318610760565b6040805160ff9092168252519081900360200190f35b34801561033a57600080fd5b506102b26004803603602081101561035157600080fd5b5035610769565b34801561036457600080fd5b506102b261077b565b34801561037957600080fd5b506102b2610781565b34801561038e57600080fd5b506102b2600480360360208110156103a557600080fd5b50356001600160a01b0316610787565b3480156103c157600080fd5b506101e0600480360360208110156103d857600080fd5b50356001600160a01b03166107a2565b3480156103f457600080fd5b506101f76107f6565b34801561040957600080fd5b506102b261080a565b34801561041e57600080fd5b506102b2610810565b34801561043357600080fd5b506101f7610816565b34801561044857600080fd5b50610451610825565b604080519115158252519081900360200190f35b34801561047157600080fd5b506101e06004803603606081101561048857600080fd5b6001600160a01b0382351691908101906040810160208201356401000000008111156104b357600080fd5b8201836020820111156104c557600080fd5b803590602001918460018302840111640100000000831117156104e757600080fd5b91908080601f016020809104026020016040519081016040528093929190818152602001838380828437600092019190915250929594936020810193503591505064010000000081111561053a57600080fd5b82018360208201111561054c57600080fd5b8035906020019184600183028401116401000000008311171561056e57600080fd5b91908080601f01602080910402602001604051908101604052809392919081815260200183838082843760009201919091525092955061084b945050505050565b3480156105bb57600080fd5b50610228610979565b3480156105d057600080fd5b506102b26109d4565b3480156105e557600080fd5b506102b26109da565b3480156105fa57600080fd5b506102b26004803603604081101561061157600080fd5b506001600160a01b03813581169160200135166109e0565b34801561063557600080fd5b506102b26004803603602081101561064c57600080fd5b50356001600160a01b0316610a0b565b34801561066857600080fd5b506102b2610a1d565b34801561067d57600080fd5b506101e06004803603602081101561069457600080fd5b50356001600160a01b0316610a23565b6016546001600160a01b031681565b6002805460408051602060018416156101000260001901909316849004601f810184900484028201840190925281815292918301828280156107365780601f1061070b57610100808354040283529160200191610736565b820191906000526020600020905b81548152906001019060200180831161071957829003601f168201915b505050505081565b6015545b90565b600e5481565b60055481565b6017546001600160a01b031681565b60045460ff1681565b60106020526000908152604090205481565b60065481565b600a5481565b6001600160a01b031660009081526013602052604090205490565b6107aa610825565b6107ea576040805162461bcd60e51b815260206004820152600c60248201526b1d5b985d5d1a1bdc9a5e995960a21b604482015290519081900360640190fd5b6107f381610a74565b50565b60045461010090046001600160a01b031681565b600d5481565b60085481565b6001546001600160a01b031690565b6001546000906001600160a01b031661083c610ae8565b6001600160a01b031614905090565b610853610825565b610893576040805162461bcd60e51b815260206004820152600c60248201526b1d5b985d5d1a1bdc9a5e995960a21b604482015290519081900360640190fd5b60048054610100600160a81b0319166101006001600160a01b0386160217905581516108c6906002906020850190610bc9565b5080516108da906003906020840190610bc9565b50600460019054906101000a90046001600160a01b03166001600160a01b031663313ce5676040518163ffffffff1660e01b815260040160206040518083038186803b15801561092957600080fd5b505afa15801561093d573d6000803e3d6000fd5b505050506040513d602081101561095357600080fd5b50516004805460ff191660ff9092169190911790555050670de0b6b3a7640000600e5550565b6003805460408051602060026001851615610100026000190190941693909304601f810184900484028201840190925281815292918301828280156107365780601f1061070b57610100808354040283529160200191610736565b60095481565b60075481565b6001600160a01b03918216600090815260146020908152604080832093909416825291909152205490565b60126020526000908152604090205481565b600b5481565b610a2b610825565b610a6b576040805162461bcd60e51b815260206004820152600c60248201526b1d5b985d5d1a1bdc9a5e995960a21b604482015290519081900360640190fd5b6107f381610aec565b610a7d81610b8d565b610ac6576040805162461bcd60e51b81526020600482015260156024820152741d185c99d95d081b9bdd08184818dbdb9d1c9858dd605a1b604482015290519081900360640190fd5b601880546001600160a01b0319166001600160a01b0392909216919091179055565b3390565b6001600160a01b038116610b315760405162461bcd60e51b8152600401808060200182810382526026815260200180610c626026913960400191505060405180910390fd5b6001546040516001600160a01b038084169216907f8be0079c531659141344cd1fd0a4f28419497f9722a3daafe3b4186f6b6457e090600090a3600180546001600160a01b0319166001600160a01b0392909216919091179055565b6000813f7fc5d2460186f7233c927e7db2dcc703c0e500b653ca82273b7bfad8045d85a470818114801590610bc157508115155b949350505050565b828054600181600116156101000203166002900490600052602060002090601f016020900481019282601f10610c0a57805160ff1916838001178555610c37565b82800160010185558215610c37579182015b82811115610c37578251825591602001919060010190610c1c565b50610c43929150610c47565b5090565b61074291905b80821115610c435760008155600101610c4d56fe4f776e61626c653a206e6577206f776e657220697320746865207a65726f2061646472657373a265627a7a723158209f2fbd89e9951abed0a6c18013e348bf039bdb5803eec854538d152d63ca011d64736f6c634300051100324f776e61626c653a206e6577206f776e657220697320746865207a65726f20616464726573738be0079c531659141344cd1fd0a4f28419497f9722a3daafe3b4186f6b6457e0",
    "linkReferences": {}
  },
  "methodIdentifiers": {
    "allowance(address,address)": "dd62ed3e",
    "balanceOf(address)": "70a08231",
    "baseRate()": "1f68f20a",
    "checkpointSupply()": "7b7933b4",
    "decimals()": "313ce567",
    "initialPrice()": "1d0806ae",
    "initialize(address,string,string)": "90657147",
    "isOwner()": "8f32d59b",
    "kinkLevel()": "56e07d70",
    "loanParamsIds(uint256)": "3291c11a",
    "loanTokenAddress()": "797bf385",
    "lowUtilBaseRate()": "d759dbeb",
    "lowUtilRateMultiplier()": "7e37c08c",
    "maxScaleRate()": "ef2b0b39",
    "name()": "06fdde03",
    "owner()": "8da5cb5b",
    "rateMultiplier()": "330691ac",
    "setTarget(address)": "776d1a01",
    "sovrynContractAddress()": "06947a3a",
    "symbol()": "95d89b41",
    "targetLevel()": "ba0e43bf",
    "totalSupply()": "18160ddd",
    "transactionLimit(address)": "e41b07e3",
    "transferOwnership(address)": "f2fde38b",
    "wrbtcTokenAddress()": "2f6b600d"
  },
  "id": 158
}