{
  "abi": [
    {
      "inputs": [],
      "payable": false,
      "stateMutability": "nonpayable",
      "type": "constructor"
    },
    {
      "anonymous": false,
      "inputs": [
        {
          "indexed": true,
          "internalType": "address",
          "name": "user",
          "type": "address"
        },
        {
          "indexed": true,
          "internalType": "address",
          "name": "lender",
          "type": "address"
        },
        {
          "indexed": true,
          "internalType": "bytes32",
          "name": "loanId",
          "type": "bytes32"
        },
        {
          "indexed": false,
          "internalType": "address",
          "name": "closer",
          "type": "address"
        },
        {
          "indexed": false,
          "internalType": "address",
          "name": "loanToken",
          "type": "address"
        },
        {
          "indexed": false,
          "internalType": "address",
          "name": "collateralToken",
          "type": "address"
        },
        {
          "indexed": false,
          "internalType": "uint256",
          "name": "repayAmount",
          "type": "uint256"
        },
        {
          "indexed": false,
          "internalType": "uint256",
          "name": "collateralWithdrawAmount",
          "type": "uint256"
        },
        {
          "indexed": false,
          "internalType": "uint256",
          "name": "collateralToLoanRate",
          "type": "uint256"
        },
        {
          "indexed": false,
          "internalType": "uint256",
          "name": "currentMargin",
          "type": "uint256"
        }
      ],
      "name": "CloseWithDeposit",
      "type": "event"
    },
    {
      "anonymous": false,
      "inputs": [
        {
          "indexed": true,
          "internalType": "address",
          "name": "user",
          "type": "address"
        },
        {
          "indexed": true,
          "internalType": "address",
          "name": "lender",
          "type": "address"
        },
        {
          "indexed": true,
          "internalType": "bytes32",
          "name": "loanId",
          "type": "bytes32"
        },
        {
          "indexed": false,
          "internalType": "address",
          "name": "collateralToken",
          "type": "address"
        },
        {
          "indexed": false,
          "internalType": "address",
          "name": "loanToken",
          "type": "address"
        },
        {
          "indexed": false,
          "internalType": "address",
          "name": "closer",
          "type": "address"
        },
        {
          "indexed": false,
          "internalType": "uint256",
          "name": "positionCloseSize",
          "type": "uint256"
        },
        {
          "indexed": false,
          "internalType": "uint256",
          "name": "loanCloseAmount",
          "type": "uint256"
        },
        {
          "indexed": false,
          "internalType": "uint256",
          "name": "exitPrice",
          "type": "uint256"
        },
        {
          "indexed": false,
          "internalType": "uint256",
          "name": "currentLeverage",
          "type": "uint256"
        }
      ],
      "name": "CloseWithSwap",
      "type": "event"
    },
    {
      "anonymous": false,
      "inputs": [
        {
          "indexed": true,
          "internalType": "address",
          "name": "receiver",
          "type": "address"
        },
        {
          "indexed": true,
          "internalType": "address",
          "name": "token",
          "type": "address"
        },
        {
          "indexed": true,
          "internalType": "bytes32",
          "name": "loanId",
          "type": "bytes32"
        },
        {
          "indexed": false,
          "internalType": "uint256",
          "name": "feeRebatePercent",
          "type": "uint256"
        },
        {
          "indexed": false,
          "internalType": "uint256",
          "name": "amount",
          "type": "uint256"
        },
        {
          "indexed": false,
          "internalType": "uint256",
          "name": "basisPoint",
          "type": "uint256"
        }
      ],
      "name": "EarnReward",
      "type": "event"
    },
    {
      "anonymous": false,
      "inputs": [
        {
          "indexed": true,
          "internalType": "address",
          "name": "receiver",
          "type": "address"
        },
        {
          "indexed": true,
          "internalType": "address",
          "name": "token",
          "type": "address"
        },
        {
          "indexed": true,
          "internalType": "bytes32",
          "name": "loanId",
          "type": "bytes32"
        },
        {
          "indexed": false,
          "internalType": "uint256",
          "name": "feeRebatePercent",
          "type": "uint256"
        },
        {
          "indexed": false,
          "internalType": "uint256",
          "name": "amount",
          "type": "uint256"
        },
        {
          "indexed": false,
          "internalType": "uint256",
          "name": "basisPoint",
          "type": "uint256"
        }
      ],
      "name": "EarnRewardFail",
      "type": "event"
    },
    {
      "anonymous": false,
      "inputs": [
        {
          "indexed": true,
          "internalType": "address",
          "name": "user",
          "type": "address"
        },
        {
          "indexed": true,
          "internalType": "address",
          "name": "sourceToken",
          "type": "address"
        },
        {
          "indexed": true,
          "internalType": "address",
          "name": "destToken",
          "type": "address"
        },
        {
          "indexed": false,
          "internalType": "uint256",
          "name": "sourceAmount",
          "type": "uint256"
        },
        {
          "indexed": false,
          "internalType": "uint256",
          "name": "destAmount",
          "type": "uint256"
        }
      ],
      "name": "ExternalSwap",
      "type": "event"
    },
    {
      "anonymous": false,
      "inputs": [
        {
          "indexed": true,
          "internalType": "address",
          "name": "user",
          "type": "address"
        },
        {
          "indexed": true,
          "internalType": "address",
          "name": "liquidator",
          "type": "address"
        },
        {
          "indexed": true,
          "internalType": "bytes32",
          "name": "loanId",
          "type": "bytes32"
        },
        {
          "indexed": false,
          "internalType": "address",
          "name": "lender",
          "type": "address"
        },
        {
          "indexed": false,
          "internalType": "address",
          "name": "loanToken",
          "type": "address"
        },
        {
          "indexed": false,
          "internalType": "address",
          "name": "collateralToken",
          "type": "address"
        },
        {
          "indexed": false,
          "internalType": "uint256",
          "name": "repayAmount",
          "type": "uint256"
        },
        {
          "indexed": false,
          "internalType": "uint256",
          "name": "collateralWithdrawAmount",
          "type": "uint256"
        },
        {
          "indexed": false,
          "internalType": "uint256",
          "name": "collateralToLoanRate",
          "type": "uint256"
        },
        {
          "indexed": false,
          "internalType": "uint256",
          "name": "currentMargin",
          "type": "uint256"
        }
      ],
      "name": "Liquidate",
      "type": "event"
    },
    {
      "anonymous": false,
      "inputs": [
        {
          "indexed": true,
          "internalType": "bytes32",
          "name": "loanId",
          "type": "bytes32"
        },
        {
          "indexed": true,
          "internalType": "address",
          "name": "sourceToken",
          "type": "address"
        },
        {
          "indexed": true,
          "internalType": "address",
          "name": "destToken",
          "type": "address"
        },
        {
          "indexed": false,
          "internalType": "address",
          "name": "borrower",
          "type": "address"
        },
        {
          "indexed": false,
          "internalType": "uint256",
          "name": "sourceAmount",
          "type": "uint256"
        },
        {
          "indexed": false,
          "internalType": "uint256",
          "name": "destAmount",
          "type": "uint256"
        }
      ],
      "name": "LoanSwap",
      "type": "event"
    },
    {
      "anonymous": false,
      "inputs": [
        {
          "indexed": true,
          "internalType": "address",
          "name": "previousOwner",
          "type": "address"
        },
        {
          "indexed": true,
          "internalType": "address",
          "name": "newOwner",
          "type": "address"
        }
      ],
      "name": "OwnershipTransferred",
      "type": "event"
    },
    {
      "anonymous": false,
      "inputs": [
        {
          "indexed": true,
          "internalType": "address",
          "name": "payer",
          "type": "address"
        },
        {
          "indexed": true,
          "internalType": "address",
          "name": "token",
          "type": "address"
        },
        {
          "indexed": true,
          "internalType": "bytes32",
          "name": "loanId",
          "type": "bytes32"
        },
        {
          "indexed": false,
          "internalType": "uint256",
          "name": "amount",
          "type": "uint256"
        }
      ],
      "name": "PayBorrowingFee",
      "type": "event"
    },
    {
      "anonymous": false,
      "inputs": [
        {
          "indexed": true,
          "internalType": "address",
          "name": "interestToken",
          "type": "address"
        },
        {
          "indexed": true,
          "internalType": "address",
          "name": "lender",
          "type": "address"
        },
        {
          "indexed": false,
          "internalType": "uint256",
          "name": "effectiveInterest",
          "type": "uint256"
        }
      ],
      "name": "PayInterestTransfer",
      "type": "event"
    },
    {
      "anonymous": false,
      "inputs": [
        {
          "indexed": true,
          "internalType": "address",
          "name": "payer",
          "type": "address"
        },
        {
          "indexed": true,
          "internalType": "address",
          "name": "token",
          "type": "address"
        },
        {
          "indexed": false,
          "internalType": "uint256",
          "name": "amount",
          "type": "uint256"
        }
      ],
      "name": "PayLendingFee",
      "type": "event"
    },
    {
      "anonymous": false,
      "inputs": [
        {
          "indexed": true,
          "internalType": "address",
          "name": "payer",
          "type": "address"
        },
        {
          "indexed": true,
          "internalType": "address",
          "name": "token",
          "type": "address"
        },
        {
          "indexed": true,
          "internalType": "bytes32",
          "name": "loanId",
          "type": "bytes32"
        },
        {
          "indexed": false,
          "internalType": "uint256",
          "name": "amount",
          "type": "uint256"
        }
      ],
      "name": "PayTradingFee",
      "type": "event"
    },
    {
      "anonymous": false,
      "inputs": [
        {
          "indexed": true,
          "internalType": "address",
          "name": "prevModuleContractAddress",
          "type": "address"
        },
        {
          "indexed": true,
          "internalType": "address",
          "name": "newModuleContractAddress",
          "type": "address"
        },
        {
          "indexed": true,
          "internalType": "bytes32",
          "name": "module",
          "type": "bytes32"
        }
      ],
      "name": "ProtocolModuleContractReplaced",
      "type": "event"
    },
    {
      "anonymous": false,
      "inputs": [
        {
          "indexed": true,
          "internalType": "address",
          "name": "user",
          "type": "address"
        },
        {
          "indexed": true,
          "internalType": "address",
          "name": "lender",
          "type": "address"
        },
        {
          "indexed": true,
          "internalType": "bytes32",
          "name": "loanId",
          "type": "bytes32"
        },
        {
          "indexed": false,
          "internalType": "uint256",
          "name": "principal",
          "type": "uint256"
        },
        {
          "indexed": false,
          "internalType": "uint256",
          "name": "collateral",
          "type": "uint256"
        },
        {
          "indexed": false,
          "internalType": "uint256",
          "name": "endTimestamp",
          "type": "uint256"
        },
        {
          "indexed": false,
          "internalType": "address",
          "name": "rewardReceiver",
          "type": "address"
        },
        {
          "indexed": false,
          "internalType": "uint256",
          "name": "reward",
          "type": "uint256"
        }
      ],
      "name": "Rollover",
      "type": "event"
    },
    {
      "anonymous": false,
      "inputs": [
        {
          "indexed": true,
          "internalType": "address",
          "name": "asset",
          "type": "address"
        },
        {
          "indexed": true,
          "internalType": "address",
          "name": "from",
          "type": "address"
        },
        {
          "indexed": false,
          "internalType": "uint256",
          "name": "amount",
          "type": "uint256"
        }
      ],
      "name": "VaultDeposit",
      "type": "event"
    },
    {
      "anonymous": false,
      "inputs": [
        {
          "indexed": true,
          "internalType": "address",
          "name": "asset",
          "type": "address"
        },
        {
          "indexed": true,
          "internalType": "address",
          "name": "to",
          "type": "address"
        },
        {
          "indexed": false,
          "internalType": "uint256",
          "name": "amount",
          "type": "uint256"
        }
      ],
      "name": "VaultWithdraw",
      "type": "event"
    },
    {
      "anonymous": false,
      "inputs": [
        {
          "indexed": false,
          "internalType": "bool",
          "name": "shouldRefund",
          "type": "bool"
        },
        {
          "indexed": false,
          "internalType": "uint256",
          "name": "amount",
          "type": "uint256"
        },
        {
          "indexed": false,
          "internalType": "uint256",
          "name": "amountInRbtc",
          "type": "uint256"
        },
        {
          "indexed": false,
          "internalType": "uint256",
          "name": "threshold",
          "type": "uint256"
        }
      ],
      "name": "swapExcess",
      "type": "event"
    },
    {
      "payable": false,
      "stateMutability": "nonpayable",
      "type": "fallback"
    },
    {
      "constant": true,
      "inputs": [],
      "name": "TINY_AMOUNT",
      "outputs": [
        {
          "internalType": "uint256",
          "name": "",
          "type": "uint256"
        }
      ],
      "payable": false,
      "stateMutability": "view",
      "type": "function"
    },
    {
      "constant": true,
      "inputs": [],
      "name": "admin",
      "outputs": [
        {
          "internalType": "address",
          "name": "",
          "type": "address"
        }
      ],
      "payable": false,
      "stateMutability": "view",
      "type": "function"
    },
    {
      "constant": true,
      "inputs": [],
      "name": "affiliateFeePercent",
      "outputs": [
        {
          "internalType": "uint256",
          "name": "",
          "type": "uint256"
        }
      ],
      "payable": false,
      "stateMutability": "view",
      "type": "function"
    },
    {
      "constant": true,
      "inputs": [
        {
          "internalType": "address",
          "name": "",
          "type": "address"
        }
      ],
      "name": "affiliateRewardsHeld",
      "outputs": [
        {
          "internalType": "uint256",
          "name": "",
          "type": "uint256"
        }
      ],
      "payable": false,
      "stateMutability": "view",
      "type": "function"
    },
    {
      "constant": true,
      "inputs": [],
      "name": "affiliateTradingTokenFeePercent",
      "outputs": [
        {
          "internalType": "uint256",
          "name": "",
          "type": "uint256"
        }
      ],
      "payable": false,
      "stateMutability": "view",
      "type": "function"
    },
    {
      "constant": true,
      "inputs": [
        {
          "internalType": "address",
          "name": "",
          "type": "address"
        },
        {
          "internalType": "address",
          "name": "",
          "type": "address"
        }
      ],
      "name": "affiliatesReferrerBalances",
      "outputs": [
        {
          "internalType": "uint256",
          "name": "",
          "type": "uint256"
        }
      ],
      "payable": false,
      "stateMutability": "view",
      "type": "function"
    },
    {
      "constant": true,
      "inputs": [
        {
          "internalType": "address",
          "name": "",
          "type": "address"
        }
      ],
      "name": "affiliatesUserReferrer",
      "outputs": [
        {
          "internalType": "address",
          "name": "",
          "type": "address"
        }
      ],
      "payable": false,
      "stateMutability": "view",
      "type": "function"
    },
    {
      "constant": true,
      "inputs": [
        {
          "internalType": "address",
          "name": "",
          "type": "address"
        }
      ],
      "name": "borrowerNonce",
      "outputs": [
        {
          "internalType": "uint256",
          "name": "",
          "type": "uint256"
        }
      ],
      "payable": false,
      "stateMutability": "view",
      "type": "function"
    },
    {
      "constant": true,
      "inputs": [
        {
          "internalType": "address",
          "name": "",
          "type": "address"
        },
        {
          "internalType": "bytes32",
          "name": "",
          "type": "bytes32"
        }
      ],
      "name": "borrowerOrders",
      "outputs": [
        {
          "internalType": "uint256",
          "name": "lockedAmount",
          "type": "uint256"
        },
        {
          "internalType": "uint256",
          "name": "interestRate",
          "type": "uint256"
        },
        {
          "internalType": "uint256",
          "name": "minLoanTerm",
          "type": "uint256"
        },
        {
          "internalType": "uint256",
          "name": "maxLoanTerm",
          "type": "uint256"
        },
        {
          "internalType": "uint256",
          "name": "createdTimestamp",
          "type": "uint256"
        },
        {
          "internalType": "uint256",
          "name": "expirationTimestamp",
          "type": "uint256"
        }
      ],
      "payable": false,
      "stateMutability": "view",
      "type": "function"
    },
    {
      "constant": true,
      "inputs": [],
      "name": "borrowingFeePercent",
      "outputs": [
        {
          "internalType": "uint256",
          "name": "",
          "type": "uint256"
        }
      ],
      "payable": false,
      "stateMutability": "view",
      "type": "function"
    },
    {
      "constant": true,
      "inputs": [
        {
          "internalType": "address",
          "name": "",
          "type": "address"
        }
      ],
      "name": "borrowingFeeTokensHeld",
      "outputs": [
        {
          "internalType": "uint256",
          "name": "",
          "type": "uint256"
        }
      ],
      "payable": false,
      "stateMutability": "view",
      "type": "function"
    },
    {
      "constant": true,
      "inputs": [
        {
          "internalType": "address",
          "name": "",
          "type": "address"
        }
      ],
      "name": "borrowingFeeTokensPaid",
      "outputs": [
        {
          "internalType": "uint256",
          "name": "",
          "type": "uint256"
        }
      ],
      "payable": false,
      "stateMutability": "view",
      "type": "function"
    },
    {
      "constant": true,
      "inputs": [
        {
          "internalType": "bytes32",
          "name": "",
          "type": "bytes32"
        },
        {
          "internalType": "address",
          "name": "",
          "type": "address"
        }
      ],
      "name": "delegatedManagers",
      "outputs": [
        {
          "internalType": "bool",
          "name": "",
          "type": "bool"
        }
      ],
      "payable": false,
      "stateMutability": "view",
      "type": "function"
    },
    {
      "constant": true,
      "inputs": [],
      "name": "feeRebatePercent",
      "outputs": [
        {
          "internalType": "uint256",
          "name": "",
          "type": "uint256"
        }
      ],
      "payable": false,
      "stateMutability": "view",
      "type": "function"
    },
    {
      "constant": true,
      "inputs": [],
      "name": "feesController",
      "outputs": [
        {
          "internalType": "address",
          "name": "",
          "type": "address"
        }
      ],
      "payable": false,
      "stateMutability": "view",
      "type": "function"
    },
    {
      "constant": false,
      "inputs": [
        {
          "internalType": "address",
          "name": "target",
          "type": "address"
        }
      ],
      "name": "initialize",
      "outputs": [],
      "payable": false,
      "stateMutability": "nonpayable",
      "type": "function"
    },
    {
      "constant": true,
      "inputs": [],
      "name": "isOwner",
      "outputs": [
        {
          "internalType": "bool",
          "name": "",
          "type": "bool"
        }
      ],
      "payable": false,
      "stateMutability": "view",
      "type": "function"
    },
    {
      "constant": true,
      "inputs": [
        {
          "internalType": "address",
          "name": "",
          "type": "address"
        },
        {
          "internalType": "address",
          "name": "",
          "type": "address"
        }
      ],
      "name": "lenderInterest",
      "outputs": [
        {
          "internalType": "uint256",
          "name": "principalTotal",
          "type": "uint256"
        },
        {
          "internalType": "uint256",
          "name": "owedPerDay",
          "type": "uint256"
        },
        {
          "internalType": "uint256",
          "name": "owedTotal",
          "type": "uint256"
        },
        {
          "internalType": "uint256",
          "name": "paidTotal",
          "type": "uint256"
        },
        {
          "internalType": "uint256",
          "name": "updatedTimestamp",
          "type": "uint256"
        }
      ],
      "payable": false,
      "stateMutability": "view",
      "type": "function"
    },
    {
      "constant": true,
      "inputs": [
        {
          "internalType": "address",
          "name": "",
          "type": "address"
        },
        {
          "internalType": "bytes32",
          "name": "",
          "type": "bytes32"
        }
      ],
      "name": "lenderOrders",
      "outputs": [
        {
          "internalType": "uint256",
          "name": "lockedAmount",
          "type": "uint256"
        },
        {
          "internalType": "uint256",
          "name": "interestRate",
          "type": "uint256"
        },
        {
          "internalType": "uint256",
          "name": "minLoanTerm",
          "type": "uint256"
        },
        {
          "internalType": "uint256",
          "name": "maxLoanTerm",
          "type": "uint256"
        },
        {
          "internalType": "uint256",
          "name": "createdTimestamp",
          "type": "uint256"
        },
        {
          "internalType": "uint256",
          "name": "expirationTimestamp",
          "type": "uint256"
        }
      ],
      "payable": false,
      "stateMutability": "view",
      "type": "function"
    },
    {
      "constant": true,
      "inputs": [],
      "name": "lendingFeePercent",
      "outputs": [
        {
          "internalType": "uint256",
          "name": "",
          "type": "uint256"
        }
      ],
      "payable": false,
      "stateMutability": "view",
      "type": "function"
    },
    {
      "constant": true,
      "inputs": [
        {
          "internalType": "address",
          "name": "",
          "type": "address"
        }
      ],
      "name": "lendingFeeTokensHeld",
      "outputs": [
        {
          "internalType": "uint256",
          "name": "",
          "type": "uint256"
        }
      ],
      "payable": false,
      "stateMutability": "view",
      "type": "function"
    },
    {
      "constant": true,
      "inputs": [
        {
          "internalType": "address",
          "name": "",
          "type": "address"
        }
      ],
      "name": "lendingFeeTokensPaid",
      "outputs": [
        {
          "internalType": "uint256",
          "name": "",
          "type": "uint256"
        }
      ],
      "payable": false,
      "stateMutability": "view",
      "type": "function"
    },
    {
      "constant": false,
      "inputs": [
        {
          "internalType": "bytes32",
          "name": "loanId",
          "type": "bytes32"
        },
        {
          "internalType": "address",
          "name": "receiver",
          "type": "address"
        },
        {
          "internalType": "uint256",
          "name": "closeAmount",
          "type": "uint256"
        }
      ],
      "name": "liquidate",
      "outputs": [
        {
          "internalType": "uint256",
          "name": "loanCloseAmount",
          "type": "uint256"
        },
        {
          "internalType": "uint256",
          "name": "seizedAmount",
          "type": "uint256"
        },
        {
          "internalType": "address",
          "name": "seizedToken",
          "type": "address"
        }
      ],
      "payable": true,
      "stateMutability": "payable",
      "type": "function"
    },
    {
      "constant": true,
      "inputs": [],
      "name": "liquidationIncentivePercent",
      "outputs": [
        {
          "internalType": "uint256",
          "name": "",
          "type": "uint256"
        }
      ],
      "payable": false,
      "stateMutability": "view",
      "type": "function"
    },
    {
      "constant": true,
      "inputs": [
        {
          "internalType": "bytes32",
          "name": "",
          "type": "bytes32"
        }
      ],
      "name": "loanInterest",
      "outputs": [
        {
          "internalType": "uint256",
          "name": "owedPerDay",
          "type": "uint256"
        },
        {
          "internalType": "uint256",
          "name": "depositTotal",
          "type": "uint256"
        },
        {
          "internalType": "uint256",
          "name": "updatedTimestamp",
          "type": "uint256"
        }
      ],
      "payable": false,
      "stateMutability": "view",
      "type": "function"
    },
    {
      "constant": true,
      "inputs": [
        {
          "internalType": "bytes32",
          "name": "",
          "type": "bytes32"
        }
      ],
      "name": "loanParams",
      "outputs": [
        {
          "internalType": "bytes32",
          "name": "id",
          "type": "bytes32"
        },
        {
          "internalType": "bool",
          "name": "active",
          "type": "bool"
        },
        {
          "internalType": "address",
          "name": "owner",
          "type": "address"
        },
        {
          "internalType": "address",
          "name": "loanToken",
          "type": "address"
        },
        {
          "internalType": "address",
          "name": "collateralToken",
          "type": "address"
        },
        {
          "internalType": "uint256",
          "name": "minInitialMargin",
          "type": "uint256"
        },
        {
          "internalType": "uint256",
          "name": "maintenanceMargin",
          "type": "uint256"
        },
        {
          "internalType": "uint256",
          "name": "maxLoanTerm",
          "type": "uint256"
        }
      ],
      "payable": false,
      "stateMutability": "view",
      "type": "function"
    },
    {
      "constant": true,
      "inputs": [
        {
          "internalType": "address",
          "name": "",
          "type": "address"
        }
      ],
      "name": "loanPoolToUnderlying",
      "outputs": [
        {
          "internalType": "address",
          "name": "",
          "type": "address"
        }
      ],
      "payable": false,
      "stateMutability": "view",
      "type": "function"
    },
    {
      "constant": true,
      "inputs": [
        {
          "internalType": "bytes32",
          "name": "",
          "type": "bytes32"
        }
      ],
      "name": "loans",
      "outputs": [
        {
          "internalType": "bytes32",
          "name": "id",
          "type": "bytes32"
        },
        {
          "internalType": "bytes32",
          "name": "loanParamsId",
          "type": "bytes32"
        },
        {
          "internalType": "bytes32",
          "name": "pendingTradesId",
          "type": "bytes32"
        },
        {
          "internalType": "bool",
          "name": "active",
          "type": "bool"
        },
        {
          "internalType": "uint256",
          "name": "principal",
          "type": "uint256"
        },
        {
          "internalType": "uint256",
          "name": "collateral",
          "type": "uint256"
        },
        {
          "internalType": "uint256",
          "name": "startTimestamp",
          "type": "uint256"
        },
        {
          "internalType": "uint256",
          "name": "endTimestamp",
          "type": "uint256"
        },
        {
          "internalType": "uint256",
          "name": "startMargin",
          "type": "uint256"
        },
        {
          "internalType": "uint256",
          "name": "startRate",
          "type": "uint256"
        },
        {
          "internalType": "address",
          "name": "borrower",
          "type": "address"
        },
        {
          "internalType": "address",
          "name": "lender",
          "type": "address"
        }
      ],
      "payable": false,
      "stateMutability": "view",
      "type": "function"
    },
    {
      "constant": true,
      "inputs": [],
      "name": "lockedSOVAddress",
      "outputs": [
        {
          "internalType": "address",
          "name": "",
          "type": "address"
        }
      ],
      "payable": false,
      "stateMutability": "view",
      "type": "function"
    },
    {
      "constant": true,
      "inputs": [
        {
          "internalType": "bytes4",
          "name": "",
          "type": "bytes4"
        }
      ],
      "name": "logicTargets",
      "outputs": [
        {
          "internalType": "address",
          "name": "",
          "type": "address"
        }
      ],
      "payable": false,
      "stateMutability": "view",
      "type": "function"
    },
    {
      "constant": true,
      "inputs": [],
      "name": "maxDisagreement",
      "outputs": [
        {
          "internalType": "uint256",
          "name": "",
          "type": "uint256"
        }
      ],
      "payable": false,
      "stateMutability": "view",
      "type": "function"
    },
    {
      "constant": true,
      "inputs": [],
      "name": "maxSwapSize",
      "outputs": [
        {
          "internalType": "uint256",
          "name": "",
          "type": "uint256"
        }
      ],
      "payable": false,
      "stateMutability": "view",
      "type": "function"
    },
    {
      "constant": true,
      "inputs": [],
      "name": "minReferralsToPayout",
      "outputs": [
        {
          "internalType": "uint256",
          "name": "",
          "type": "uint256"
        }
      ],
      "payable": false,
      "stateMutability": "view",
      "type": "function"
    },
    {
      "constant": true,
      "inputs": [],
      "name": "owner",
      "outputs": [
        {
          "internalType": "address",
          "name": "",
          "type": "address"
        }
      ],
      "payable": false,
      "stateMutability": "view",
      "type": "function"
    },
    {
      "constant": true,
      "inputs": [],
      "name": "pause",
      "outputs": [
        {
          "internalType": "bool",
          "name": "",
          "type": "bool"
        }
      ],
      "payable": false,
      "stateMutability": "view",
      "type": "function"
    },
    {
      "constant": true,
      "inputs": [],
      "name": "paySwapExcessToBorrowerThreshold",
      "outputs": [
        {
          "internalType": "uint256",
          "name": "",
          "type": "uint256"
        }
      ],
      "payable": false,
      "stateMutability": "view",
      "type": "function"
    },
    {
      "constant": true,
      "inputs": [],
      "name": "priceFeeds",
      "outputs": [
        {
          "internalType": "address",
          "name": "",
          "type": "address"
        }
      ],
      "payable": false,
      "stateMutability": "view",
      "type": "function"
    },
    {
      "constant": true,
      "inputs": [],
      "name": "protocolAddress",
      "outputs": [
        {
          "internalType": "address",
          "name": "",
          "type": "address"
        }
      ],
      "payable": false,
      "stateMutability": "view",
      "type": "function"
    },
    {
      "constant": true,
      "inputs": [],
      "name": "protocolTokenAddress",
      "outputs": [
        {
          "internalType": "address",
          "name": "",
          "type": "address"
        }
      ],
      "payable": false,
      "stateMutability": "view",
      "type": "function"
    },
    {
      "constant": true,
      "inputs": [],
      "name": "protocolTokenHeld",
      "outputs": [
        {
          "internalType": "uint256",
          "name": "",
          "type": "uint256"
        }
      ],
      "payable": false,
      "stateMutability": "view",
      "type": "function"
    },
    {
      "constant": true,
      "inputs": [],
      "name": "protocolTokenPaid",
      "outputs": [
        {
          "internalType": "uint256",
          "name": "",
          "type": "uint256"
        }
      ],
      "payable": false,
      "stateMutability": "view",
      "type": "function"
    },
    {
      "constant": true,
      "inputs": [],
      "name": "rolloverBaseReward",
      "outputs": [
        {
          "internalType": "uint256",
          "name": "",
          "type": "uint256"
        }
      ],
      "payable": false,
      "stateMutability": "view",
      "type": "function"
    },
    {
      "constant": true,
      "inputs": [],
      "name": "rolloverFlexFeePercent",
      "outputs": [
        {
          "internalType": "uint256",
          "name": "",
          "type": "uint256"
        }
      ],
      "payable": false,
      "stateMutability": "view",
      "type": "function"
    },
    {
      "constant": true,
      "inputs": [],
      "name": "sourceBuffer",
      "outputs": [
        {
          "internalType": "uint256",
          "name": "",
          "type": "uint256"
        }
      ],
      "payable": false,
      "stateMutability": "view",
      "type": "function"
    },
    {
      "constant": true,
      "inputs": [],
      "name": "sovTokenAddress",
      "outputs": [
        {
          "internalType": "address",
          "name": "",
          "type": "address"
        }
      ],
      "payable": false,
      "stateMutability": "view",
      "type": "function"
    },
    {
      "constant": true,
      "inputs": [],
      "name": "sovrynSwapContractRegistryAddress",
      "outputs": [
        {
          "internalType": "address",
          "name": "",
          "type": "address"
        }
      ],
      "payable": false,
      "stateMutability": "view",
      "type": "function"
    },
    {
      "constant": true,
      "inputs": [
        {
          "internalType": "address",
          "name": "",
          "type": "address"
        },
        {
          "internalType": "address",
          "name": "",
          "type": "address"
        }
      ],
      "name": "specialRebates",
      "outputs": [
        {
          "internalType": "uint256",
          "name": "",
          "type": "uint256"
        }
      ],
      "payable": false,
      "stateMutability": "view",
      "type": "function"
    },
    {
      "constant": true,
      "inputs": [
        {
          "internalType": "address",
          "name": "",
          "type": "address"
        }
      ],
      "name": "supportedTokens",
      "outputs": [
        {
          "internalType": "bool",
          "name": "",
          "type": "bool"
        }
      ],
      "payable": false,
      "stateMutability": "view",
      "type": "function"
    },
    {
      "constant": true,
      "inputs": [],
      "name": "swapsImpl",
      "outputs": [
        {
          "internalType": "address",
          "name": "",
          "type": "address"
        }
      ],
      "payable": false,
      "stateMutability": "view",
      "type": "function"
    },
    {
      "constant": true,
      "inputs": [],
      "name": "tradingFeePercent",
      "outputs": [
        {
          "internalType": "uint256",
          "name": "",
          "type": "uint256"
        }
      ],
      "payable": false,
      "stateMutability": "view",
      "type": "function"
    },
    {
      "constant": true,
      "inputs": [
        {
          "internalType": "address",
          "name": "",
          "type": "address"
        }
      ],
      "name": "tradingFeeTokensHeld",
      "outputs": [
        {
          "internalType": "uint256",
          "name": "",
          "type": "uint256"
        }
      ],
      "payable": false,
      "stateMutability": "view",
      "type": "function"
    },
    {
      "constant": true,
      "inputs": [
        {
          "internalType": "address",
          "name": "",
          "type": "address"
        }
      ],
      "name": "tradingFeeTokensPaid",
      "outputs": [
        {
          "internalType": "uint256",
          "name": "",
          "type": "uint256"
        }
      ],
      "payable": false,
      "stateMutability": "view",
      "type": "function"
    },
    {
      "constant": false,
      "inputs": [
        {
          "internalType": "address",
          "name": "newOwner",
          "type": "address"
        }
      ],
      "name": "transferOwnership",
      "outputs": [],
      "payable": false,
      "stateMutability": "nonpayable",
      "type": "function"
    },
    {
      "constant": true,
      "inputs": [
        {
          "internalType": "address",
          "name": "",
          "type": "address"
        }
      ],
      "name": "underlyingToLoanPool",
      "outputs": [
        {
          "internalType": "address",
          "name": "",
          "type": "address"
        }
      ],
      "payable": false,
      "stateMutability": "view",
      "type": "function"
    },
    {
      "constant": true,
      "inputs": [
        {
          "internalType": "address",
          "name": "",
          "type": "address"
        }
      ],
      "name": "userNotFirstTradeFlag",
      "outputs": [
        {
          "internalType": "bool",
          "name": "",
          "type": "bool"
        }
      ],
      "payable": false,
      "stateMutability": "view",
      "type": "function"
    },
    {
      "constant": true,
      "inputs": [],
      "name": "wrbtcToken",
      "outputs": [
        {
          "internalType": "contract IWrbtcERC20",
          "name": "",
          "type": "address"
        }
      ],
      "payable": false,
      "stateMutability": "view",
      "type": "function"
    }
  ],
  "bytecode": {
    "object": "0x60806040526001600055678ac7230489e80000601555670214e8348c4f000060185567013fbe85edc90000601b55674563918244f40000602055674563918244f40000602155674563918244f400006027556127106028556802b5e3af16b1880000602955650f478e084000602b5567016345785d8a0000602c556802b5e3af16b1880000602f5560036035556801158e460913d00000603955348015620000a657600080fd5b506000620000bc6001600160e01b036200011016565b600180546001600160a01b0319166001600160a01b038316908117909155604051919250906000907f8be0079c531659141344cd1fd0a4f28419497f9722a3daafe3b4186f6b6457e0908290a35062000114565b3390565b613bee80620001246000396000f3fe60806040526004361061036b5760003560e01c806392d894f8116101c6578063d288208c116100f7578063f0e085f511610095578063f6ddc8b31161006f578063f6ddc8b31461099a578063f706b1f2146109af578063f851a440146109c4578063f8dd4f0e146109d95761036b565b8063f0e085f514610950578063f2fde38b14610965578063f589a3e7146109855761036b565b8063e4f3e739116100d1578063e4f3e739146108ef578063e8f6276414610911578063edab119f14610926578063ee54a4ec1461093b5761036b565b8063d288208c146108a5578063d473c2da146108ba578063d485045e146108cf5761036b565b8063b9cffa3e11610164578063c4a908151161013e578063c4a90815146107f7578063c4d66de81461082f578063cb6eacd114610851578063cd5d808d146108855761036b565b8063b9cffa3e146107ad578063ba4861e9146107c2578063bdee453c146107d75761036b565b8063ae0a8530116101a0578063ae0a853014610736578063afe840091461074b578063b30643d91461076d578063b7e152411461078d5761036b565b806392d894f8146106ec578063959083d31461070c578063acc04348146107215761036b565b80634f28cac2116102a0578063742e67981161023e5780638456cb59116102185780638456cb591461068d5780638da5cb5b146106a25780638dc48ba5146106b75780638f32d59b146106d75761036b565b8063742e67981461064e57806378d849ed146106635780637a8faeb8146106785761036b565b806362fff3f61161027a57806362fff3f6146105c857806368c4ac26146105f95780636e663730146106195780637420ca3e146106395761036b565b80634f28cac21461056f578063569fc1fb14610584578063574442cc146105b35761036b565b80632f4707641161030d5780633fca506e116102e75780633fca506e146104fa5780634115a2b61461051a5780634203e3951461053a5780634699f8461461055a5761036b565b80632f470764146104a55780633432423c146104ba5780633452d2d4146104da5761036b565b80631b7bde74116103495780631b7bde7414610416578063218b39c61461044357806324cc5749146104635780632a324027146104905761036b565b8063065d810f146103995780630676c1b7146103d457806317548b79146103f6575b34801561037757600080fd5b5060405162461bcd60e51b81526004016103909061399c565b60405180910390fd5b3480156103a557600080fd5b506103b96103b4366004612f4e565b6109ee565b6040516103cb96959493929190613a9c565b60405180910390f35b3480156103e057600080fd5b506103e9610a2e565b6040516103cb91906135fb565b34801561040257600080fd5b506103e9610411366004613026565b610a3d565b34801561042257600080fd5b50610436610431366004612f14565b610a58565b6040516103cb9190613a0c565b34801561044f57600080fd5b506103e961045e366004612ef6565b610a75565b34801561046f57600080fd5b5061048361047e366004612ef6565b610a90565b6040516103cb9190613755565b34801561049c57600080fd5b50610436610aa5565b3480156104b157600080fd5b50610436610aab565b3480156104c657600080fd5b506103b96104d5366004612f4e565b610ab1565b3480156104e657600080fd5b506104366104f5366004612ef6565b610af1565b34801561050657600080fd5b50610436610515366004612ef6565b610b03565b34801561052657600080fd5b50610483610535366004612fba565b610b15565b34801561054657600080fd5b50610436610555366004612ef6565b610b35565b34801561056657600080fd5b50610436610b47565b34801561057b57600080fd5b50610436610b4d565b34801561059057600080fd5b506105a461059f366004612f9c565b610b53565b6040516103cb93929190613a42565b3480156105bf57600080fd5b50610436610b74565b3480156105d457600080fd5b506105e86105e3366004612f14565b610b7a565b6040516103cb959493929190613a50565b34801561060557600080fd5b50610483610614366004612ef6565b610bb4565b34801561062557600080fd5b506103e9610634366004612ef6565b610bc9565b34801561064557600080fd5b506103e9610be4565b34801561065a57600080fd5b50610436610bf3565b34801561066f57600080fd5b506103e9610bf9565b34801561068457600080fd5b50610436610c08565b34801561069957600080fd5b50610483610c0e565b3480156106ae57600080fd5b506103e9610c17565b3480156106c357600080fd5b506103e96106d2366004612ef6565b610c26565b3480156106e357600080fd5b50610483610c41565b3480156106f857600080fd5b50610436610707366004612ef6565b610c67565b34801561071857600080fd5b50610436610c79565b34801561072d57600080fd5b50610436610c7f565b34801561074257600080fd5b50610436610c85565b34801561075757600080fd5b50610760610c8b565b6040516103cb919061388d565b34801561077957600080fd5b50610436610788366004612ef6565b610c9a565b34801561079957600080fd5b506104366107a8366004612ef6565b610cac565b3480156107b957600080fd5b506103e9610cbe565b3480156107ce57600080fd5b506103e9610ccd565b3480156107e357600080fd5b506104366107f2366004612ef6565b610cdc565b34801561080357600080fd5b50610817610812366004612f9c565b610cee565b6040516103cb9c9b9a999897969594939291906137da565b34801561083b57600080fd5b5061084f61084a366004612ef6565b610d60565b005b34801561085d57600080fd5b5061087161086c366004612f9c565b610e31565b6040516103cb989796959493929190613763565b34801561089157600080fd5b506104366108a0366004612f14565b610e83565b3480156108b157600080fd5b506103e9610ea0565b3480156108c657600080fd5b50610436610eaf565b3480156108db57600080fd5b506104366108ea366004612ef6565b610eb5565b6109026108fd366004612fd9565b610ec7565b6040516103cb93929190613a1a565b34801561091d57600080fd5b506103e96111d0565b34801561093257600080fd5b506104366111df565b34801561094757600080fd5b506104366111e5565b34801561095c57600080fd5b506104366111ef565b34801561097157600080fd5b5061084f610980366004612ef6565b6111f5565b34801561099157600080fd5b50610436611225565b3480156109a657600080fd5b5061043661122b565b3480156109bb57600080fd5b506103e9611231565b3480156109d057600080fd5b506103e9611240565b3480156109e557600080fd5b5061043661124f565b6009602090815260009283526040808420909152908252902080546001820154600283015460038401546004850154600590950154939492939192909186565b6031546001600160a01b031681565b6005602052600090815260409020546001600160a01b031681565b603b60209081526000928352604080842090915290825290205481565b6023602052600090815260409020546001600160a01b031681565b60326020526000908152604090205460ff1681565b60185481565b601f5481565b6008602090815260009283526040808420909152908252902080546001820154600283015460038401546004850154600590950154939492939192909186565b601a6020526000908152604090205481565b602a6020526000908152604090205481565b600a60209081526000928352604080842090915290825290205460ff1681565b60166020526000908152604090205481565b60155481565b60295481565b600c6020526000908152604090208054600182015460029092015490919083565b602b5481565b600b602090815260009283526040808420909152908252902080546001820154600283015460038401546004909401549293919290919085565b60266020526000908152604090205460ff1681565b6033602052600090815260409020546001600160a01b031681565b6003546001600160a01b031681565b60355481565b6002546001600160a01b031681565b601e5481565b603d5460ff1681565b6001546001600160a01b031690565b6022602052600090815260409020546001600160a01b031681565b6001546000906001600160a01b0316610c58611259565b6001600160a01b031614905090565b60176020526000908152604090205481565b602c5481565b602f5481565b60205481565b602d546001600160a01b031681565b601d6020526000908152604090205481565b601c6020526000908152604090205481565b6037546001600160a01b031681565b6004546001600160a01b031681565b60366020526000908152604090205481565b600660208190526000918252604090912080546001820154600283015460038401546004850154600586015496860154600787015460088801546009890154600a8a0154600b909a0154989a9799969860ff909616979496949593949293919290916001600160a01b0391821691168c565b610d68610c41565b610d845760405162461bcd60e51b81526004016103909061397c565b63e4f3e73960e01b600081905260056020527fe1cb396722e7eabe79fbbfe4b479997758c9eb9965437583a97ce608d5a86600546001600160a01b031690610dcc908361125d565b7f4c6f616e436c6f73696e67734c69717569646174696f6e000000000000000000826001600160a01b0316826001600160a01b03167f1420e3a2094d671bc2eb897941fa3d94ffa37f0cb6d530651946250a2151cb7f60405160405180910390a45050565b6007602052600090815260409020805460018201546002830154600384015460048501546005860154600690960154949560ff8516956101009095046001600160a01b03908116959481169493169288565b603c60209081526000928352604080842090915290825290205481565b6038546001600160a01b031681565b60275481565b60196020526000908152604090205481565b6000806000600160005414610eee5760405162461bcd60e51b8152600401610390906139cc565b6002600081905550600073ba10edd6abc7696eae685839217bdcc42139612b6001600160a01b031663ed04e1c36040518163ffffffff1660e01b8152600401602060405180830381600087803b158015610f4757600080fd5b505af1158015610f5b573d6000803e3d6000fd5b505050506040513d601f19601f82011682018060405250610f7f9190810190613044565b6000888152600660205260409020600b81015491925088916001600160a01b0316610fbc5760405162461bcd60e51b8152600401610390906138cc565b600b810154604080516318160ddd60e01b815290516000926001600160a01b0316916318160ddd916004808301926020929190829003018186803b15801561100357600080fd5b505afa158015611017573d6000803e3d6000fd5b505050506040513d601f19601f8201168201806040525061103b9190810190613044565b603d5490915060ff16156110615760405162461bcd60e51b8152600401610390906138bc565b61106c8a8a8a6112d9565b96509650965081600b0160009054906101000a90046001600160a01b03166001600160a01b03166318160ddd6040518163ffffffff1660e01b815260040160206040518083038186803b1580156110c257600080fd5b505afa1580156110d6573d6000803e3d6000fd5b505050506040513d601f19601f820116820180604052506110fa9190810190613044565b81146111185760405162461bcd60e51b81526004016103909061395c565b50505073ba10edd6abc7696eae685839217bdcc42139612b6001600160a01b0316633fa4f2456040518163ffffffff1660e01b815260040160206040518083038186803b15801561116857600080fd5b505afa15801561117c573d6000803e3d6000fd5b505050506040513d601f19601f820116820180604052506111a09190810190613044565b81146111be5760405162461bcd60e51b8152600401610390906138ac565b50600160008190555093509350939050565b6014546001600160a01b031681565b601b5481565b6509184e72a00081565b60285481565b6111fd610c41565b6112195760405162461bcd60e51b81526004016103909061397c565b611222816118e3565b50565b60395481565b60215481565b602e546001600160a01b031681565b6030546001600160a01b031681565b65e35fa931a00081565b3390565b6001600160e01b03198216600090815260056020526040902080546001600160a01b0319166001600160a01b038316908117909155156112b8576112b2600d6001600160e01b0319841663ffffffff61196516565b506112d5565b6112d3600d6001600160e01b0319841663ffffffff6119af16565b505b5050565b60008060008060006112ea88611a70565b6002805490820154600383015460048086015460058701546040516317f8680960e11b815297995095975060009687966001600160a01b0396871696632ff0d0129661133e969082169591169392016136ea565b604080518083038186803b15801561135557600080fd5b505afa158015611369573d6000803e3d6000fd5b505050506040513d601f19601f8201168201806040525061138d9190810190613062565b9150915082600501548211156113b55760405162461bcd60e51b81526004016103909061393c565b8796506000806113d48660040154876005015486886005015487611adf565b509150915081891015611440576002850154898303906113fd906001600160a01b031682611c1f565b905065e35fa931a00081116114175782995081985061143a565b6114378361142b848d63ffffffff611cce16565b9063ffffffff611d0f16565b98505b50611457565b8189111561145357819850809750611457565b8097505b886114745760405162461bcd60e51b81526004016103909061394c565b600285015461148d906001600160a01b0316308b611d51565b600061166d87604051806101800160405290816000820154815260200160018201548152602001600282015481526020016003820160009054906101000a900460ff16151515158152602001600482015481526020016005820154815260200160068201548152602001600782015481526020016008820154815260200160098201548152602001600a820160009054906101000a90046001600160a01b03166001600160a01b03166001600160a01b03168152602001600b820160009054906101000a90046001600160a01b03166001600160a01b03166001600160a01b0316815250508760405180610100016040529081600082015481526020016001820160009054906101000a900460ff161515151581526020016001820160019054906101000a90046001600160a01b03166001600160a01b03166001600160a01b031681526020016002820160009054906101000a90046001600160a01b03166001600160a01b03166001600160a01b031681526020016003820160009054906101000a90046001600160a01b03166001600160a01b03166001600160a01b0316815260200160048201548152602001600582015481526020016006820154815250508c8a600a0160009054906101000a90046001600160a01b0316611e77565b9050808a111561169a576002860154600a88015461169a916001600160a01b039081169116838d03611ee5565b80156116c1576002860154600b8801546116c1916001600160a01b03908116911683611f12565b60038601546001600160a01b0316975088156116fc5760058701546116ec908a63ffffffff611f8216565b60058801556116fc888d8b611ee5565b611706878b611fc4565b6118d38660405180610100016040529081600082015481526020016001820160009054906101000a900460ff161515151581526020016001820160019054906101000a90046001600160a01b03166001600160a01b03166001600160a01b031681526020016002820160009054906101000a90046001600160a01b03166001600160a01b03166001600160a01b031681526020016003820160009054906101000a90046001600160a01b03166001600160a01b03166001600160a01b03168152602001600482015481526020016005820154815260200160068201548152505088604051806101800160405290816000820154815260200160018201548152602001600282015481526020016003820160009054906101000a900460ff16151515158152602001600482015481526020016005820154815260200160068201548152602001600782015481526020016008820154815260200160098201548152602001600a820160009054906101000a90046001600160a01b03166001600160a01b03166001600160a01b03168152602001600b820160009054906101000a90046001600160a01b03166001600160a01b03166001600160a01b0316815250508c8c8860008b600261209b565b5050505050505093509350939050565b6001600160a01b0381166119095760405162461bcd60e51b8152600401610390906138dc565b6001546040516001600160a01b038084169216907f8be0079c531659141344cd1fd0a4f28419497f9722a3daafe3b4186f6b6457e090600090a3600180546001600160a01b0319166001600160a01b0392909216919091179055565b6000611971838361226e565b6119a557506001808301805480830180835560009283526020808420909201859055848352908590526040909120556119a9565b5060005b92915050565b60006119bb838361226e565b156119a55760008281526020849052604090205460018401546000199182019101808214611a335760008560010182815481106119f457fe5b9060005260206000200154905080866001018481548110611a1157fe5b6000918252602080832090910192909255918252869052604090206001830190555b60008481526020869052604081205560018501805480611a4f57fe5b600190038181906000526020600020016000905590556001925050506119a9565b6000818152600660209081526040808320600181015484526007909252822060038201548392919060ff16611ab75760405162461bcd60e51b8152600401610390906139bc565b8054611ad55760405162461bcd60e51b81526004016103909061398c565b9092509050915091565b602154600090819084861180611af3575083155b15611afd57611c14565b808611611b11575086915085905084611c14565b6000611b2b86674563918244f4000063ffffffff61228316565b9050611b5a68056bc75e2d6310000061142b8b611b4e858463ffffffff61228316565b9063ffffffff611cce16565b9350611b88611b7b670de0b6b3a764000061142b8b8963ffffffff611cce16565b859063ffffffff611f8216565b9350611bb6611b9d828463ffffffff611f8216565b61142b8668056bc75e2d6310000063ffffffff611cce16565b935088841115611bc4578893505b611bed611be08368056bc75e2d6310000063ffffffff61228316565b859063ffffffff611cce16565b9250611c04606461142b858863ffffffff611d0f16565b925087831115611c12578792505b505b955095509592505050565b600254602d54604051630a7549df60e21b8152600092839283926001600160a01b03928316926329d5277c92611c5d928a9290911690600401613671565b604080518083038186803b158015611c7457600080fd5b505afa158015611c88573d6000803e3d6000fd5b505050506040513d601f19601f82011682018060405250611cac9190810190613062565b9092509050611cc58161142b868563ffffffff611cce16565b95945050505050565b600082611cdd575060006119a9565b82820282848281611cea57fe5b0414611d085760405162461bcd60e51b81526004016103909061396c565b9392505050565b6000611d0883836040518060400160405280601a81526020017f536166654d6174683a206469766973696f6e206279207a65726f0000000000008152506122a8565b8015611e595734611d6d57611d68833384846122df565b611e54565b602d546001600160a01b03848116911614611d9a5760405162461bcd60e51b8152600401610390906138fc565b80341015611dba5760405162461bcd60e51b8152600401610390906139fc565b602d60009054906101000a90046001600160a01b03166001600160a01b031663d0e30db0826040518263ffffffff1660e01b81526004016000604051808303818588803b158015611e0a57600080fd5b505af1158015611e1e573d6000803e3d6000fd5b505050506001600160a01b03831630149050611e4057611e40833084846122df565b80341115611e5457611e5433823403612336565b6112d3565b34156112d35760405162461bcd60e51b8152600401610390906138fc565b60008281611e868688846123d2565b90506000818310611e9f57509081900390600090611ebd565b5060009190819003908115611ebd57611ebd87606001518684611ee5565b8015611ed757611ed7876060015189610160015183611f12565b50909150505b949350505050565b80156112d357602d546001600160a01b0384811691161415611f0b57611e548282612570565b6112d38383835b80156112d357611f326001600160a01b038416838363ffffffff61264716565b816001600160a01b0316836001600160a01b03167fc44aeefa68e8b9c1ad5f7be4b0dd194580f81f5c362862e72196503a320eb7a183604051611f759190613a0c565b60405180910390a3505050565b6000611d0883836040518060400160405280601e81526020017f536166654d6174683a207375627472616374696f6e206f766572666c6f7700008152506126a0565b80611fe15760405162461bcd60e51b8152600401610390906139ac565b816004015481141561207d5760006004830181905560038301805460ff191690554260078401556002830155815461202190600f9063ffffffff6119af16565b508154600b8301546001600160a01b0316600090815260116020526040902061204f9163ffffffff6119af16565b508154600a8301546001600160a01b031660009081526012602052604090206112b29163ffffffff6119af16565b6004820154612092908263ffffffff611f8216565b60048301555050565b60008160028111156120a957fe5b14156121225786600001518761016001516001600160a01b03168861014001516001600160a01b03167f6349c1a02ec126f7f4fc6e6837e1859006e90e9901635c442d29271e77b96fb6338c606001518d608001518c8c8c8b6040516121159796959493929190613609565b60405180910390a4612264565b600181600281111561213057fe5b14156121e1578215612158576121556ec097ce7bc90715b34b9f100000000084611d0f565b92505b811561217b576121786f4b3b4ca85a86c47a098a22400000000083611d0f565b91505b86600001518761016001516001600160a01b03168861014001516001600160a01b03167f2ed7b29b4ca95cf3bb9a44f703872a66e6aa5e8f07b675fa9a5c124a1e5d73528b608001518c60600151338b8d8b8b604051612115979695949392919061368c565b60028160028111156121ef57fe5b1415612264578660000151336001600160a01b03168861014001516001600160a01b03167f46fa03303782eb2f686515f6c0100f9a62dabe587b0d3f5a4fc0c822d6e532d38a61016001518c606001518d608001518c8c8c8b60405161225b97969594939291906136b4565b60405180910390a45b5050505050505050565b60009081526020919091526040902054151590565b600082820183811015611d085760405162461bcd60e51b8152600401610390906138ec565b600081836122c95760405162461bcd60e51b8152600401610390919061389b565b5060008385816122d557fe5b0495945050505050565b8015612330576001600160a01b038316301415612315576123106001600160a01b038516838363ffffffff61264716565b612330565b6123306001600160a01b03851684848463ffffffff6126cc16565b50505050565b804710156123565760405162461bcd60e51b81526004016103909061392c565b6000826001600160a01b03168260405161236f906135f0565b60006040518083038185875af1925050503d80600081146123ac576040519150601f19603f3d011682016040523d82523d6000602084013e6123b1565b606091505b50509050806112d35760405162461bcd60e51b81526004016103909061391c565b60006123e783610160015185606001516126f0565b82516000908152600c602090815260408083206101608701516001600160a01b039081168552600b845282852060608a0151909116855290925290912060e08501514290811115612439575060e08501515b61245883876000015189606001518a608001518a6101400151866127c8565b600086608001518610156124895760808701518454612482919061142b908963ffffffff611cce16565b905061248d565b5082545b835461249f908263ffffffff611f8216565b845560018301546124b6908263ffffffff611f8216565b600184015560e08701516000906124d3908463ffffffff611f8216565b90506124e5818363ffffffff611cce16565b90506124fa816201518063ffffffff611d0f16565b9050876080015187101561252757600185015461251d908263ffffffff611f8216565b600186015561252f565b600060018601555b8354612541908863ffffffff611f8216565b8455600284015481811161255657600061255a565b8181035b6002909501949094559450505050509392505050565b80156112d557602d546001600160a01b031647808311156125ec57604051632e1a7d4d60e01b81526001600160a01b03831690632e1a7d4d906125b99084870390600401613a0c565b600060405180830381600087803b1580156125d357600080fd5b505af11580156125e7573d6000803e3d6000fd5b505050505b6125f68484612336565b836001600160a01b0316826001600160a01b03167fc44aeefa68e8b9c1ad5f7be4b0dd194580f81f5c362862e72196503a320eb7a1856040516126399190613a0c565b60405180910390a350505050565b6040516112d390849063a9059cbb60e01b90612669908690869060240161371f565b60408051601f198184030181529190526020810180516001600160e01b03166001600160e01b031990931692909217909152612823565b600081848411156126c45760405162461bcd60e51b8152600401610390919061389b565b505050900390565b6040516123309085906323b872dd60e01b90612669908790879087906024016136c2565b6001600160a01b038083166000908152600b6020908152604080832093851683529290529081206001810154909190158015906127305750600482015415155b156127bc5761275b6201518061142b8460010154611b4e866004015442611f8290919063ffffffff16565b4260048401556002830154909150811115612777575060028101545b8015612310576003820154612792908263ffffffff61228316565b600383015560028201546127ac908263ffffffff611f8216565b6002830155612310848483612908565b42600483015550505050565b60006127fe6a07259756a8d6199800000061142b601554611b4e8b60000154611b4e8d6002015489611f8290919063ffffffff16565b600288018390559050801561281a5761281a838787878561299f565b50505050505050565b612835826001600160a01b0316612e05565b6128515760405162461bcd60e51b8152600401610390906139ec565b60006060836001600160a01b03168360405161286d91906135e4565b6000604051808303816000865af19150503d80600081146128aa576040519150601f19603f3d011682016040523d82523d6000602084013e6128af565b606091505b5091509150816128d15760405162461bcd60e51b81526004016103909061390c565b80511561233057808060200190516128ec9190810190612f7e565b6123305760405162461bcd60e51b8152600401610390906139dc565b600061292c68056bc75e2d6310000061142b60155485611cce90919063ffffffff16565b9050612939848483612e3e565b612953838561294e858563ffffffff611f8216565b611f12565b6001600160a01b038085169084167f220e66e3e759e1382aa86cd8af5abca05ebf3ad564f223ae62d977678337272a612992858563ffffffff611f8216565b6040516126399190613a0c565b602f546002546001600160a01b038581166000908152603c602090815260408083208885168452909152812054909392919091169015612a02576001600160a01b038087166000908152603c602090815260408083209389168352929052205491505b6037546000906060906001600160a01b038085169163d138f9a160e01b918b9116612a4068056bc75e2d6310000061142b8c8b63ffffffff611cce16565b604051602401612a52939291906136c2565b60408051601f198184030181529181526020820180516001600160e01b03166001600160e01b0319909416939093179092529051612a9091906135e4565b600060405180830381855afa9150503d8060008114612acb576040519150601f19603f3d011682016040523d82523d6000602084013e612ad0565b606091505b50915091506001821415612ae657602081015194505b6000306001600160a01b031663c22552f76040518163ffffffff1660e01b815260040160206040518083038186803b158015612b2157600080fd5b505afa158015612b35573d6000803e3d6000fd5b505050506040513d601f19601f82011682018060405250612b599190810190613044565b90508515801590612b6a5750858110155b15612d925760375460385460405163095ea7b360e01b81526001600160a01b039283169263095ea7b392612ba5929116908a9060040161371f565b602060405180830381600087803b158015612bbf57600080fd5b505af1158015612bd3573d6000803e3d6000fd5b505050506040513d601f19601f82011682018060405250612bf79190810190612f7e565b50603854603f546040516000926001600160a01b031691612c1e918f918b9160240161373a565b60408051601f198184030181529181526020820180516001600160e01b0316630efe6a8b60e01b17905251612c5391906135e4565b6000604051808303816000865af19150503d8060008114612c90576040519150601f19603f3d011682016040523d82523d6000602084013e612c95565b606091505b505090508015612d2457601f54612cb2908863ffffffff61228316565b601f819055508a603760009054906101000a90046001600160a01b03166001600160a01b03168d6001600160a01b03167ff41c644671512f1cda76abfe6038e3d7d526c1377a5a8c692f81703901db2150898b603f54604051612d1793929190613a42565b60405180910390a4612d8c565b8a603760009054906101000a90046001600160a01b03166001600160a01b03168d6001600160a01b03167f483f67ea49f76ac15e15bbad68b52788ca47d50aef1e4acfe95e5e307e710812898b603f54604051612d8393929190613a42565b60405180910390a45b50612df8565b8515801590612da057508581105b15612df857603754603f546040518c926001600160a01b0390811692908f16917f483f67ea49f76ac15e15bbad68b52788ca47d50aef1e4acfe95e5e307e71081291612def918b918d91613a42565b60405180910390a45b5050505050505050505050565b6000813f7fc5d2460186f7233c927e7db2dcc703c0e500b653ca82273b7bfad8045d85a470818114801590611edd575050151592915050565b80156112d3576001600160a01b038216600090815260166020526040902054612e6d908263ffffffff61228316565b6001600160a01b0380841660008181526016602052604090819020939093559151908516907f40a75ae5f7a5336e75f7c7977e12c4b46a9ac0f30de01a2d5b6c1a4f4af6358790611f75908590613a0c565b80356119a981613b7c565b80516119a981613b90565b80356119a981613b99565b80356119a981613ba2565b80516119a981613b99565b600060208284031215612f0857600080fd5b6000611edd8484612ebf565b60008060408385031215612f2757600080fd5b6000612f338585612ebf565b9250506020612f4485828601612ebf565b9150509250929050565b60008060408385031215612f6157600080fd5b6000612f6d8585612ebf565b9250506020612f4485828601612ed5565b600060208284031215612f9057600080fd5b6000611edd8484612eca565b600060208284031215612fae57600080fd5b6000611edd8484612ed5565b60008060408385031215612fcd57600080fd5b6000612f338585612ed5565b600080600060608486031215612fee57600080fd5b6000612ffa8686612ed5565b935050602061300b86828701612ebf565b925050604061301c86828701612ed5565b9150509250925092565b60006020828403121561303857600080fd5b6000611edd8484612ee0565b60006020828403121561305657600080fd5b6000611edd8484612eeb565b6000806040838503121561307557600080fd5b60006130818585612eeb565b9250506020612f4485828601612eeb565b61309b81613b34565b82525050565b61309b81613b08565b61309b81613b13565b61309b81613b18565b60006130c782613af6565b6130d18185613afa565b93506130e1818560208601613b46565b9290920192915050565b61309b81613b3b565b60006130ff82613af6565b6131098185613aff565b9350613119818560208601613b46565b61312281613b72565b9093019392505050565b6000613139601483613aff565b733932b2b73a3930b731bc903b34b7b630ba34b7b760611b815260200192915050565b6000613169600683613aff565b6514185d5cd95960d21b815260200192915050565b600061318b601f83613aff565b7f496e76616c6964206c6f616e20746f6b656e20706f6f6c206164647265737300815260200192915050565b60006131c4602683613aff565b7f4f776e61626c653a206e6577206f776e657220697320746865207a65726f206181526564647265737360d01b602082015260400192915050565b600061320c601b83613aff565b7f536166654d6174683a206164646974696f6e206f766572666c6f770000000000815260200192915050565b6000613245601083613aff565b6f1ddc9bdb99c8185cdcd95d081cd95b9d60821b815260200192915050565b6000613271602083613aff565b7f5361666545524332303a206c6f772d6c6576656c2063616c6c206661696c6564815260200192915050565b60006132aa603a83613aff565b7f416464726573733a20756e61626c6520746f2073656e642076616c75652c207281527f6563697069656e74206d61792068617665207265766572746564000000000000602082015260400192915050565b6000613309601d83613aff565b7f416464726573733a20696e73756666696369656e742062616c616e6365000000815260200192915050565b6000613342601083613aff565b6f3432b0b63a343c903837b9b4ba34b7b760811b815260200192915050565b600061336e601483613aff565b736e6f7468696e6720746f206c697175696461746560601b815260200192915050565b600061339e602983613aff565b7f6c6f616e20746f6b656e20737570706c7920696e76617269616e7420636865638152686b206661696c75726560b81b602082015260400192915050565b60006133e9602183613aff565b7f536166654d6174683a206d756c7469706c69636174696f6e206f766572666c6f8152607760f81b602082015260400192915050565b600061342c600c83613aff565b6b1d5b985d5d1a1bdc9a5e995960a21b815260200192915050565b6000613454601583613aff565b746c6f616e506172616d73206e6f742065786973747360581b815260200192915050565b6000613485601483613aff565b7319985b1b189858dac81b9bdd08185b1b1bddd95960621b815260200192915050565b60006134b5601083613aff565b6f6e6f7468696e6720746f20636c6f736560801b815260200192915050565b60006119a9600083613afa565b60006134ee600e83613aff565b6d1b1bd85b881a5cc818db1bdcd95960921b815260200192915050565b6000613518600c83613aff565b6b1b9bdb9499595b9d1c985b9d60a21b815260200192915050565b6000613540602a83613aff565b7f5361666545524332303a204552433230206f7065726174696f6e20646964206e8152691bdd081cdd58d8d9595960b21b602082015260400192915050565b600061358c601f83613aff565b7f5361666545524332303a2063616c6c20746f206e6f6e2d636f6e747261637400815260200192915050565b60006135c5601083613aff565b6f3737ba1032b737bab3b41032ba3432b960811b815260200192915050565b6000611d0882846130bc565b60006119a9826134d4565b602081016119a982846130a1565b60e08101613617828a613092565b61362460208301896130a1565b61363160408301886130a1565b61363e60608301876130b3565b61364b60808301866130b3565b61365860a08301856130b3565b61366560c08301846130b3565b98975050505050505050565b6040810161367f82856130a1565b611d0860208301846130a1565b60e0810161369a828a6130a1565b6136a760208301896130a1565b6136316040830188613092565b60e08101613617828a6130a1565b606081016136d082866130a1565b6136dd60208301856130a1565b611edd60408301846130b3565b608081016136f882876130a1565b61370560208301866130a1565b61371260408301856130b3565b611cc560608301846130b3565b6040810161372d82856130a1565b611d0860208301846130b3565b6060810161374882866130a1565b6136dd60208301856130b3565b602081016119a982846130aa565b6101008101613772828b6130b3565b61377f602083018a6130aa565b61378c60408301896130a1565b61379960608301886130a1565b6137a660808301876130a1565b6137b360a08301866130b3565b6137c060c08301856130b3565b6137cd60e08301846130b3565b9998505050505050505050565b61018081016137e9828f6130b3565b6137f6602083018e6130b3565b613803604083018d6130b3565b613810606083018c6130aa565b61381d608083018b6130b3565b61382a60a083018a6130b3565b61383760c08301896130b3565b61384460e08301886130b3565b6138526101008301876130b3565b6138606101208301866130b3565b61386e6101408301856130a1565b61387c6101608301846130a1565b9d9c50505050505050505050505050565b602081016119a982846130eb565b60208082528101611d0881846130f4565b602080825281016119a98161312c565b602080825281016119a98161315c565b602080825281016119a98161317e565b602080825281016119a9816131b7565b602080825281016119a9816131ff565b602080825281016119a981613238565b602080825281016119a981613264565b602080825281016119a98161329d565b602080825281016119a9816132fc565b602080825281016119a981613335565b602080825281016119a981613361565b602080825281016119a981613391565b602080825281016119a9816133dc565b602080825281016119a98161341f565b602080825281016119a981613447565b602080825281016119a981613478565b602080825281016119a9816134a8565b602080825281016119a9816134e1565b602080825281016119a98161350b565b602080825281016119a981613533565b602080825281016119a98161357f565b602080825281016119a9816135b8565b602081016119a982846130b3565b60608101613a2882866130b3565b613a3560208301856130b3565b611edd60408301846130a1565b6060810161374882866130b3565b60a08101613a5e82886130b3565b613a6b60208301876130b3565b613a7860408301866130b3565b613a8560608301856130b3565b613a9260808301846130b3565b9695505050505050565b60c08101613aaa82896130b3565b613ab760208301886130b3565b613ac460408301876130b3565b613ad160608301866130b3565b613ade60808301856130b3565b613aeb60a08301846130b3565b979650505050505050565b5190565b919050565b90815260200190565b60006119a982613b28565b151590565b90565b6001600160e01b03191690565b6001600160a01b031690565b60006119a9825b60006119a982613b08565b60005b83811015613b61578181015183820152602001613b49565b838111156123305750506000910152565b601f01601f191690565b613b8581613b08565b811461122257600080fd5b613b8581613b13565b613b8581613b18565b613b8581613b1b56fea365627a7a723158203eec1247757c2def1471eddf3f7542b2764881f3c3959288b4dc1436a8861a776c6578706572696d656e74616cf564736f6c63430005110040",
    "linkReferences": {}
  },
  "methodIdentifiers": {
    "TINY_AMOUNT()": "f8dd4f0e",
    "admin()": "f851a440",
    "affiliateFeePercent()": "ae0a8530",
    "affiliateRewardsHeld(address)": "bdee453c",
    "affiliateTradingTokenFeePercent()": "f589a3e7",
    "affiliatesReferrerBalances(address,address)": "1b7bde74",
    "affiliatesUserReferrer(address)": "6e663730",
    "borrowerNonce(address)": "3fca506e",
    "borrowerOrders(address,bytes32)": "065d810f",
    "borrowingFeePercent()": "edab119f",
    "borrowingFeeTokensHeld(address)": "b7e15241",
    "borrowingFeeTokensPaid(address)": "b30643d9",
    "delegatedManagers(bytes32,address)": "4115a2b6",
    "feeRebatePercent()": "acc04348",
    "feesController()": "e8f62764",
    "initialize(address)": "c4d66de8",
    "isOwner()": "8f32d59b",
    "lenderInterest(address,address)": "62fff3f6",
    "lenderOrders(address,bytes32)": "3432423c",
    "lendingFeePercent()": "4699f846",
    "lendingFeeTokensHeld(address)": "4203e395",
    "lendingFeeTokensPaid(address)": "92d894f8",
    "liquidate(bytes32,address,uint256)": "e4f3e739",
    "liquidationIncentivePercent()": "f6ddc8b3",
    "loanInterest(bytes32)": "569fc1fb",
    "loanParams(bytes32)": "cb6eacd1",
    "loanPoolToUnderlying(address)": "8dc48ba5",
    "loans(bytes32)": "c4a90815",
    "lockedSOVAddress()": "d288208c",
    "logicTargets(bytes4)": "17548b79",
    "maxDisagreement()": "d473c2da",
    "maxSwapSize()": "4f28cac2",
    "minReferralsToPayout()": "742e6798",
    "owner()": "8da5cb5b",
    "pause()": "8456cb59",
    "paySwapExcessToBorrowerThreshold()": "ee54a4ec",
    "priceFeeds()": "78d849ed",
    "protocolAddress()": "0676c1b7",
    "protocolTokenAddress()": "f706b1f2",
    "protocolTokenHeld()": "7a8faeb8",
    "protocolTokenPaid()": "2f470764",
    "rolloverBaseReward()": "574442cc",
    "rolloverFlexFeePercent()": "959083d3",
    "sourceBuffer()": "f0e085f5",
    "sovTokenAddress()": "b9cffa3e",
    "sovrynSwapContractRegistryAddress()": "ba4861e9",
    "specialRebates(address,address)": "cd5d808d",
    "supportedTokens(address)": "68c4ac26",
    "swapsImpl()": "7420ca3e",
    "tradingFeePercent()": "2a324027",
    "tradingFeeTokensHeld(address)": "d485045e",
    "tradingFeeTokensPaid(address)": "3452d2d4",
    "transferOwnership(address)": "f2fde38b",
    "underlyingToLoanPool(address)": "218b39c6",
    "userNotFirstTradeFlag(address)": "24cc5749",
    "wrbtcToken()": "afe84009"
  },
  "id": 165
}