{
  "abi": [
    {
      "anonymous": false,
      "inputs": [
        {
          "indexed": true,
          "internalType": "address",
          "name": "previousOwner",
          "type": "address"
        },
        {
          "indexed": true,
          "internalType": "address",
          "name": "newOwner",
          "type": "address"
        }
      ],
      "name": "OwnershipTransferred",
      "type": "event"
    },
    {
      "anonymous": false,
      "inputs": [
        {
          "indexed": true,
          "internalType": "address",
          "name": "receiver",
          "type": "address"
        },
        {
          "indexed": false,
          "internalType": "uint256",
          "name": "amount",
          "type": "uint256"
        }
      ],
      "name": "RewardWithdrawn",
      "type": "event"
    },
    {
      "constant": true,
      "inputs": [],
      "name": "BASE_RATE",
      "outputs": [
        {
          "internalType": "uint256",
          "name": "",
          "type": "uint256"
        }
      ],
      "payable": false,
      "stateMutability": "view",
      "type": "function"
    },
    {
      "constant": true,
      "inputs": [],
      "name": "DIVISOR",
      "outputs": [
        {
          "internalType": "uint256",
          "name": "",
          "type": "uint256"
        }
      ],
      "payable": false,
      "stateMutability": "view",
      "type": "function"
    },
    {
      "constant": true,
      "inputs": [],
      "name": "SOV",
      "outputs": [
        {
          "internalType": "contract IERC20",
          "name": "",
          "type": "address"
        }
      ],
      "payable": false,
      "stateMutability": "view",
      "type": "function"
    },
    {
      "constant": true,
      "inputs": [],
      "name": "TWO_WEEKS",
      "outputs": [
        {
          "internalType": "uint256",
          "name": "",
          "type": "uint256"
        }
      ],
      "payable": false,
      "stateMutability": "view",
      "type": "function"
    },
    {
      "constant": true,
      "inputs": [],
      "name": "averageBlockTime",
      "outputs": [
        {
          "internalType": "uint256",
          "name": "",
          "type": "uint256"
        }
      ],
      "payable": false,
      "stateMutability": "view",
      "type": "function"
    },
    {
      "constant": true,
      "inputs": [
        {
          "internalType": "uint256",
          "name": "",
          "type": "uint256"
        }
      ],
      "name": "checkpointBlockDetails",
      "outputs": [
        {
          "internalType": "uint256",
          "name": "",
          "type": "uint256"
        }
      ],
      "payable": false,
      "stateMutability": "view",
      "type": "function"
    },
    {
      "constant": true,
      "inputs": [
        {
          "internalType": "address",
          "name": "",
          "type": "address"
        }
      ],
      "name": "claimedBalances",
      "outputs": [
        {
          "internalType": "uint256",
          "name": "",
          "type": "uint256"
        }
      ],
      "payable": false,
      "stateMutability": "view",
      "type": "function"
    },
    {
      "constant": false,
      "inputs": [
        {
          "internalType": "uint256",
          "name": "restartTime",
          "type": "uint256"
        }
      ],
      "name": "collectReward",
      "outputs": [],
      "payable": false,
      "stateMutability": "nonpayable",
      "type": "function"
    },
    {
      "constant": true,
      "inputs": [],
      "name": "deploymentBlock",
      "outputs": [
        {
          "internalType": "uint256",
          "name": "",
          "type": "uint256"
        }
      ],
      "payable": false,
      "stateMutability": "view",
      "type": "function"
    },
    {
      "constant": true,
      "inputs": [
        {
          "internalType": "bool",
          "name": "considerMaxDuration",
          "type": "bool"
        },
        {
          "internalType": "uint256",
          "name": "restartTime",
          "type": "uint256"
        }
      ],
      "name": "getStakerCurrentReward",
      "outputs": [
        {
          "internalType": "uint256",
          "name": "lastWithdrawalInterval",
          "type": "uint256"
        },
        {
          "internalType": "uint256",
          "name": "amount",
          "type": "uint256"
        }
      ],
      "payable": false,
      "stateMutability": "view",
      "type": "function"
    },
    {
      "constant": false,
      "inputs": [
        {
          "internalType": "address",
          "name": "_SOV",
          "type": "address"
        },
        {
          "internalType": "contract IStaking",
          "name": "_staking",
          "type": "address"
        }
      ],
      "name": "initialize",
      "outputs": [],
      "payable": false,
      "stateMutability": "nonpayable",
      "type": "function"
    },
    {
      "constant": true,
      "inputs": [],
      "name": "isOwner",
      "outputs": [
        {
          "internalType": "bool",
          "name": "",
          "type": "bool"
        }
      ],
      "payable": false,
      "stateMutability": "view",
      "type": "function"
    },
    {
      "constant": true,
      "inputs": [],
      "name": "maxDuration",
      "outputs": [
        {
          "internalType": "uint256",
          "name": "",
          "type": "uint256"
        }
      ],
      "payable": false,
      "stateMutability": "view",
      "type": "function"
    },
    {
      "constant": true,
      "inputs": [],
      "name": "owner",
      "outputs": [
        {
          "internalType": "address",
          "name": "",
          "type": "address"
        }
      ],
      "payable": false,
      "stateMutability": "view",
      "type": "function"
    },
    {
      "constant": false,
      "inputs": [
        {
          "internalType": "uint256",
          "name": "_averageBlockTime",
          "type": "uint256"
        }
      ],
      "name": "setAverageBlockTime",
      "outputs": [],
      "payable": false,
      "stateMutability": "nonpayable",
      "type": "function"
    },
    {
      "constant": false,
      "inputs": [],
      "name": "setBlock",
      "outputs": [],
      "payable": false,
      "stateMutability": "nonpayable",
      "type": "function"
    },
    {
      "constant": false,
      "inputs": [
        {
          "internalType": "uint256",
          "name": "_time",
          "type": "uint256"
        }
      ],
      "name": "setHistoricalBlock",
      "outputs": [],
      "payable": false,
      "stateMutability": "nonpayable",
      "type": "function"
    },
    {
      "constant": false,
      "inputs": [
        {
          "internalType": "uint256",
          "name": "_duration",
          "type": "uint256"
        }
      ],
      "name": "setMaxDuration",
      "outputs": [],
      "payable": false,
      "stateMutability": "nonpayable",
      "type": "function"
    },
    {
      "constant": true,
      "inputs": [],
      "name": "staking",
      "outputs": [
        {
          "internalType": "contract IStaking",
          "name": "",
          "type": "address"
        }
      ],
      "payable": false,
      "stateMutability": "view",
      "type": "function"
    },
    {
      "constant": true,
      "inputs": [],
      "name": "startTime",
      "outputs": [
        {
          "internalType": "uint256",
          "name": "",
          "type": "uint256"
        }
      ],
      "payable": false,
      "stateMutability": "view",
      "type": "function"
    },
    {
      "constant": false,
      "inputs": [],
      "name": "stop",
      "outputs": [],
      "payable": false,
      "stateMutability": "nonpayable",
      "type": "function"
    },
    {
      "constant": true,
      "inputs": [],
      "name": "stopBlock",
      "outputs": [
        {
          "internalType": "uint256",
          "name": "",
          "type": "uint256"
        }
      ],
      "payable": false,
      "stateMutability": "view",
      "type": "function"
    },
    {
      "constant": false,
      "inputs": [
        {
          "internalType": "address",
          "name": "newOwner",
          "type": "address"
        }
      ],
      "name": "transferOwnership",
      "outputs": [],
      "payable": false,
      "stateMutability": "nonpayable",
      "type": "function"
    },
    {
      "constant": false,
      "inputs": [
        {
          "internalType": "address",
          "name": "_receiverAddress",
          "type": "address"
        }
      ],
      "name": "withdrawTokensByOwner",
      "outputs": [],
      "payable": false,
      "stateMutability": "nonpayable",
      "type": "function"
    },
    {
      "constant": true,
      "inputs": [
        {
          "internalType": "address",
          "name": "",
          "type": "address"
        }
      ],
      "name": "withdrawals",
      "outputs": [
        {
          "internalType": "uint256",
          "name": "",
          "type": "uint256"
        }
      ],
      "payable": false,
      "stateMutability": "view",
      "type": "function"
    }
  ],
  "bytecode": {
    "object": "0x608060405260006100176001600160e01b0361006616565b600080546001600160a01b0319166001600160a01b0383169081178255604051929350917f8be0079c531659141344cd1fd0a4f28419497f9722a3daafe3b4186f6b6457e0908290a35061006a565b3390565b611464806100796000396000f3fe608060405234801561001057600080fd5b50600436106101735760003560e01c80637a9262a2116100de578063ceee685511610097578063dffd356211610071578063dffd356214610350578063e62a9f1e1461036d578063f2fde38b14610393578063fe5afe51146103b957610173565b8063ceee6855146102cf578063cf0f34c41461030d578063d42b779d1461032a57610173565b80637a9262a21461025857806382100e3f1461027e5780638da5cb5b146102865780638f32d59b1461028e578063934d1fa4146102aa578063bd3507da146102b257610173565b806341910f901161013057806341910f901461020257806344bb3b2f1461020a578063485cc955146102125780634cf088d9146102405780636db5c8fd1461024857806378e979251461025057610173565b806307da68f51461017857806308dcb3601461018257806312671c26146101a6578063233dedf1146101d55780633410fe6e146101dd5780633736d853146101e5575b600080fd5b6101806103c1565b005b61018a61045d565b604080516001600160a01b039092168252519081900360200190f35b6101c3600480360360208110156101bc57600080fd5b503561046c565b60408051918252519081900360200190f35b6101c361047e565b6101c3610484565b610180600480360360208110156101fb57600080fd5b503561048b565b6101c36104d8565b6101c36104de565b6101806004803603604081101561022857600080fd5b506001600160a01b03813581169160200135166104e4565b61018a610689565b6101c3610698565b6101c361069e565b6101c36004803603602081101561026e57600080fd5b50356001600160a01b03166106a4565b6101c36106b6565b61018a6106bc565b6102966106cb565b604080519115158252519081900360200190f35b6101c36106ef565b610180600480360360208110156102c857600080fd5b50356106f6565b6102f4600480360360408110156102e557600080fd5b5080351515906020013561077c565b6040805192835260208301919091528051918290030190f35b6101806004803603602081101561032357600080fd5b5035610a3d565b6101c36004803603602081101561034057600080fd5b50356001600160a01b0316610a8a565b6101806004803603602081101561036657600080fd5b5035610a9c565b6101806004803603602081101561038357600080fd5b50356001600160a01b0316610aa8565b610180600480360360208110156103a957600080fd5b50356001600160a01b0316610b77565b610180610bc8565b6103c96106cb565b610409576040805162461bcd60e51b815260206004820152600c60248201526b1d5b985d5d1a1bdc9a5e995960a21b604482015290519081900360640190fd5b60055415610450576040805162461bcd60e51b815260206004820152600f60248201526e105b1c9958591e481cdd1bdc1c1959608a1b604482015290519081900360640190fd5b610458610c4a565b600555565b6001546001600160a01b031681565b600a6020526000908152604090205481565b600b5481565b6227ac4081565b6104936106cb565b6104d3576040805162461bcd60e51b815260206004820152600c60248201526b1d5b985d5d1a1bdc9a5e995960a21b604482015290519081900360640190fd5b600b55565b610b9f81565b60055481565b6104ec6106cb565b61052c576040805162461bcd60e51b815260206004820152600c60248201526b1d5b985d5d1a1bdc9a5e995960a21b604482015290519081900360640190fd5b6001600160a01b03821661057e576040805162461bcd60e51b815260206004820152601460248201527324b73b30b634b21029a7ab1020b2323932b9b99760611b604482015290519081900360640190fd5b61058782610c4e565b6105ce576040805162461bcd60e51b815260206004820152601360248201527217d4d3d5881b9bdd08184818dbdb9d1c9858dd606a1b604482015290519081900360640190fd5b600180546001600160a01b038085166001600160a01b0319928316179092556002805484841692169190911790819055604080516372ec979560e01b8152426004820152905191909216916372ec9795916024808301926020929190829003018186803b15801561063e57600080fd5b505afa158015610652573d6000803e3d6000fd5b505050506040513d602081101561066857600080fd5b505160045561067a630114db00610a3d565b610682610c4a565b6008555050565b6002546001600160a01b031681565b60035481565b60045481565b60066020526000908152604090205481565b60085481565b6000546001600160a01b031690565b600080546001600160a01b03166106e0610c8a565b6001600160a01b031614905090565b6212750081565b60008061070460018461077c565b915091506000821180156107185750600081115b61075b576040805162461bcd60e51b815260206004820152600f60248201526e1b9bc81d985b1a59081c995dd85c99608a1b604482015290519081900360640190fd5b3360008181526006602052604090208390556107779082610c8e565b505050565b600080600080600161078c610c4a565b3360008181526006602090815260408083205460025482516372ec979560e01b81524260048201819052935198909703985091969395909386936001600160a01b03909316926372ec97959260248082019391829003018186803b1580156107f357600080fd5b505afa158015610807573d6000803e3d6000fd5b505050506040513d602081101561081d57600080fd5b505190508161082e57600454610830565b815b985088811161084d575060009750879650610a3695505050505050565b888a106108d057600254604080516372ec979560e01b8152600481018d905290516000926001600160a01b0316916372ec9795916024808301926020929190829003018186803b1580156108a057600080fd5b505afa1580156108b4573d6000803e3d6000fd5b505050506040513d60208110156108ca57600080fd5b50519950505b8a1561097d5760006108ed6003548b610da390919063ffffffff16565b90508581106108fc5781610975565b600254604080516372ec979560e01b81526004810184905290516001600160a01b03909216916372ec979591602480820192602092909190829003018186803b15801561094857600080fd5b505afa15801561095c573d6000803e3d6000fd5b505050506040513d602081101561097257600080fd5b50515b945050610981565b8093505b885b84811015610a0d576000818152600a6020526040902054806109d657600b546109d3906109c6906109ba8a8663ffffffff610e0616565b9063ffffffff610e4816565b899063ffffffff610e0616565b90505b6008548110156109e557506008545b610a006109f3868385610e8a565b8a9063ffffffff610da316565b9850506212750001610983565b509297508792610a2c6227ac406109ba89610b9f63ffffffff610ff216565b9750505050505050505b9250929050565b610a456106cb565b610a85576040805162461bcd60e51b815260206004820152600c60248201526b1d5b985d5d1a1bdc9a5e995960a21b604482015290519081900360640190fd5b600355565b60076020526000908152604090205481565b610aa58161104b565b50565b610ab06106cb565b610af0576040805162461bcd60e51b815260206004820152600c60248201526b1d5b985d5d1a1bdc9a5e995960a21b604482015290519081900360640190fd5b600154604080516370a0823160e01b815230600482015290516000926001600160a01b0316916370a08231916024808301926020929190829003018186803b158015610b3b57600080fd5b505afa158015610b4f573d6000803e3d6000fd5b505050506040513d6020811015610b6557600080fd5b50519050610b738282611101565b5050565b610b7f6106cb565b610bbf576040805162461bcd60e51b815260206004820152600c60248201526b1d5b985d5d1a1bdc9a5e995960a21b604482015290519081900360640190fd5b610aa58161124c565b600254604080516372ec979560e01b815242600482015290516000926001600160a01b0316916372ec9795916024808301926020929190829003018186803b158015610c1357600080fd5b505afa158015610c27573d6000803e3d6000fd5b505050506040513d6020811015610c3d57600080fd5b50519050610aa58161104b565b4390565b6000813f7fc5d2460186f7233c927e7db2dcc703c0e500b653ca82273b7bfad8045d85a470818114801590610c8257508115155b949350505050565b3390565b600154604080516370a0823160e01b8152306004820152905183926001600160a01b0316916370a08231916024808301926020929190829003018186803b158015610cd857600080fd5b505afa158015610cec573d6000803e3d6000fd5b505050506040513d6020811015610d0257600080fd5b50511015610d57576040805162461bcd60e51b815260206004820152601f60248201527f6e6f7420656e6f7567682066756e647320746f20726577617264207573657200604482015290519081900360640190fd5b6001600160a01b038216600090815260076020526040902054610d80908263ffffffff610da316565b6001600160a01b038316600090815260076020526040902055610b738282611101565b600082820183811015610dfd576040805162461bcd60e51b815260206004820152601b60248201527f536166654d6174683a206164646974696f6e206f766572666c6f770000000000604482015290519081900360640190fd5b90505b92915050565b6000610dfd83836040518060400160405280601e81526020017f536166654d6174683a207375627472616374696f6e206f766572666c6f7700008152506112ec565b6000610dfd83836040518060400160405280601a81526020017f536166654d6174683a206469766973696f6e206279207a65726f000000000000815250611383565b600254604080516337e6b1c160e01b81526001600160a01b0386811660048301526024820186905260448201859052915160009392909216916337e6b1c191606480820192602092909190829003018186803b158015610ee957600080fd5b505afa158015610efd573d6000803e3d6000fd5b505050506040513d6020811015610f1357600080fd5b50516005546bffffffffffffffffffffffff909116915015801590610f39575082600554105b15610feb57600254600554604080516337e6b1c160e01b81526001600160a01b038881166004830152602482019390935260448101869052905160009392909216916337e6b1c191606480820192602092909190829003018186803b158015610fa157600080fd5b505afa158015610fb5573d6000803e3d6000fd5b505050506040513d6020811015610fcb57600080fd5b50516bffffffffffffffffffffffff16905081811015610fe9578091505b505b9392505050565b60008261100157506000610e00565b8282028284828161100e57fe5b0414610dfd5760405162461bcd60e51b815260040180806020018281038252602181526020018061140f6021913960400191505060405180910390fd5b4260006001611058610c4a565b6000858152600a60205260409020549190039150156110be576040805162461bcd60e51b815260206004820152601860248201527f626c6f636b206e756d62657220616c7265616479207365740000000000000000604482015290519081900360640190fd5b60006110e96110dc600b546109ba8787610e0690919063ffffffff16565b839063ffffffff610e0616565b6000948552600a602052604090942093909355505050565b80611144576040805162461bcd60e51b815260206004820152600e60248201526d185b5bdd5b9d081a5b9d985b1a5960921b604482015290519081900360640190fd5b6001546040805163a9059cbb60e01b81526001600160a01b038581166004830152602482018590529151919092169163a9059cbb9160448083019260209291908290030181600087803b15801561119a57600080fd5b505af11580156111ae573d6000803e3d6000fd5b505050506040513d60208110156111c457600080fd5b5051611209576040805162461bcd60e51b815260206004820152600f60248201526e1d1c985b9cd9995c8819985a5b1959608a1b604482015290519081900360640190fd5b6040805182815290516001600160a01b038416917f1d3eee4ca001cff39eec6ec7615aacf2f2bd61791273830728ba00ccbd6e1337919081900360200190a25050565b6001600160a01b0381166112915760405162461bcd60e51b81526004018080602001828103825260268152602001806113e96026913960400191505060405180910390fd5b600080546040516001600160a01b03808516939216917f8be0079c531659141344cd1fd0a4f28419497f9722a3daafe3b4186f6b6457e091a3600080546001600160a01b0319166001600160a01b0392909216919091179055565b6000818484111561137b5760405162461bcd60e51b81526004018080602001828103825283818151815260200191508051906020019080838360005b83811015611340578181015183820152602001611328565b50505050905090810190601f16801561136d5780820380516001836020036101000a031916815260200191505b509250505060405180910390fd5b505050900390565b600081836113d25760405162461bcd60e51b8152602060048201818152835160248401528351909283926044909101919085019080838360008315611340578181015183820152602001611328565b5060008385816113de57fe5b049594505050505056fe4f776e61626c653a206e6577206f776e657220697320746865207a65726f2061646472657373536166654d6174683a206d756c7469706c69636174696f6e206f766572666c6f77a265627a7a7231582090cc899e05aca84dfc9485720bcc42bf298e4f8537f2320381e138df98934e7e64736f6c63430005110032",
    "linkReferences": {}
  },
  "methodIdentifiers": {
    "BASE_RATE()": "41910f90",
    "DIVISOR()": "3410fe6e",
    "SOV()": "08dcb360",
    "TWO_WEEKS()": "934d1fa4",
    "averageBlockTime()": "233dedf1",
    "checkpointBlockDetails(uint256)": "12671c26",
    "claimedBalances(address)": "d42b779d",
    "collectReward(uint256)": "bd3507da",
    "deploymentBlock()": "82100e3f",
    "getStakerCurrentReward(bool,uint256)": "ceee6855",
    "initialize(address,address)": "485cc955",
    "isOwner()": "8f32d59b",
    "maxDuration()": "6db5c8fd",
    "owner()": "8da5cb5b",
    "setAverageBlockTime(uint256)": "3736d853",
    "setBlock()": "fe5afe51",
    "setHistoricalBlock(uint256)": "dffd3562",
    "setMaxDuration(uint256)": "cf0f34c4",
    "staking()": "4cf088d9",
    "startTime()": "78e97925",
    "stop()": "07da68f5",
    "stopBlock()": "44bb3b2f",
    "transferOwnership(address)": "f2fde38b",
    "withdrawTokensByOwner(address)": "e62a9f1e",
    "withdrawals(address)": "7a9262a2"
  },
  "id": 73
}