{
  "abi": [
    {
      "anonymous": false,
      "inputs": [
        {
          "indexed": true,
          "internalType": "address",
          "name": "owner",
          "type": "address"
        },
        {
          "indexed": true,
          "internalType": "address",
          "name": "spender",
          "type": "address"
        },
        {
          "indexed": false,
          "internalType": "uint256",
          "name": "valueBefore",
          "type": "uint256"
        },
        {
          "indexed": false,
          "internalType": "uint256",
          "name": "valueAfter",
          "type": "uint256"
        }
      ],
      "name": "AllowanceUpdate",
      "type": "event"
    },
    {
      "anonymous": false,
      "inputs": [
        {
          "indexed": true,
          "internalType": "address",
          "name": "owner",
          "type": "address"
        },
        {
          "indexed": true,
          "internalType": "address",
          "name": "spender",
          "type": "address"
        },
        {
          "indexed": false,
          "internalType": "uint256",
          "name": "value",
          "type": "uint256"
        }
      ],
      "name": "Approval",
      "type": "event"
    },
    {
      "anonymous": false,
      "inputs": [
        {
          "indexed": true,
          "internalType": "address",
          "name": "burner",
          "type": "address"
        },
        {
          "indexed": false,
          "internalType": "uint256",
          "name": "tokenAmount",
          "type": "uint256"
        },
        {
          "indexed": false,
          "internalType": "uint256",
          "name": "assetAmount",
          "type": "uint256"
        },
        {
          "indexed": false,
          "internalType": "uint256",
          "name": "price",
          "type": "uint256"
        }
      ],
      "name": "Burn",
      "type": "event"
    },
    {
      "anonymous": false,
      "inputs": [
        {
          "indexed": false,
          "internalType": "address",
          "name": "borrower",
          "type": "address"
        },
        {
          "indexed": false,
          "internalType": "address",
          "name": "target",
          "type": "address"
        },
        {
          "indexed": false,
          "internalType": "address",
          "name": "loanToken",
          "type": "address"
        },
        {
          "indexed": false,
          "internalType": "uint256",
          "name": "loanAmount",
          "type": "uint256"
        }
      ],
      "name": "FlashBorrow",
      "type": "event"
    },
    {
      "anonymous": false,
      "inputs": [
        {
          "indexed": true,
          "internalType": "address",
          "name": "minter",
          "type": "address"
        },
        {
          "indexed": false,
          "internalType": "uint256",
          "name": "tokenAmount",
          "type": "uint256"
        },
        {
          "indexed": false,
          "internalType": "uint256",
          "name": "assetAmount",
          "type": "uint256"
        },
        {
          "indexed": false,
          "internalType": "uint256",
          "name": "price",
          "type": "uint256"
        }
      ],
      "name": "Mint",
      "type": "event"
    },
    {
      "anonymous": false,
      "inputs": [
        {
          "indexed": true,
          "internalType": "address",
          "name": "previousOwner",
          "type": "address"
        },
        {
          "indexed": true,
          "internalType": "address",
          "name": "newOwner",
          "type": "address"
        }
      ],
      "name": "OwnershipTransferred",
      "type": "event"
    },
    {
      "anonymous": false,
      "inputs": [
        {
          "indexed": true,
          "internalType": "address",
          "name": "from",
          "type": "address"
        },
        {
          "indexed": true,
          "internalType": "address",
          "name": "to",
          "type": "address"
        },
        {
          "indexed": false,
          "internalType": "uint256",
          "name": "value",
          "type": "uint256"
        }
      ],
      "name": "Transfer",
      "type": "event"
    },
    {
      "constant": true,
      "inputs": [],
      "name": "TINY_AMOUNT",
      "outputs": [
        {
          "internalType": "uint256",
          "name": "",
          "type": "uint256"
        }
      ],
      "payable": false,
      "stateMutability": "view",
      "type": "function"
    },
    {
      "constant": true,
      "inputs": [],
      "name": "VERSION",
      "outputs": [
        {
          "internalType": "uint256",
          "name": "",
          "type": "uint256"
        }
      ],
      "payable": false,
      "stateMutability": "view",
      "type": "function"
    },
    {
      "constant": true,
      "inputs": [],
      "name": "admin",
      "outputs": [
        {
          "internalType": "address",
          "name": "",
          "type": "address"
        }
      ],
      "payable": false,
      "stateMutability": "view",
      "type": "function"
    },
    {
      "constant": true,
      "inputs": [
        {
          "internalType": "address",
          "name": "_owner",
          "type": "address"
        },
        {
          "internalType": "address",
          "name": "_spender",
          "type": "address"
        }
      ],
      "name": "allowance",
      "outputs": [
        {
          "internalType": "uint256",
          "name": "",
          "type": "uint256"
        }
      ],
      "payable": false,
      "stateMutability": "view",
      "type": "function"
    },
    {
      "constant": false,
      "inputs": [
        {
          "internalType": "address",
          "name": "_spender",
          "type": "address"
        },
        {
          "internalType": "uint256",
          "name": "_value",
          "type": "uint256"
        }
      ],
      "name": "approve",
      "outputs": [
        {
          "internalType": "bool",
          "name": "",
          "type": "bool"
        }
      ],
      "payable": false,
      "stateMutability": "nonpayable",
      "type": "function"
    },
    {
      "constant": true,
      "inputs": [
        {
          "internalType": "address",
          "name": "_owner",
          "type": "address"
        }
      ],
      "name": "assetBalanceOf",
      "outputs": [
        {
          "internalType": "uint256",
          "name": "",
          "type": "uint256"
        }
      ],
      "payable": false,
      "stateMutability": "view",
      "type": "function"
    },
    {
      "constant": true,
      "inputs": [],
      "name": "avgBorrowInterestRate",
      "outputs": [
        {
          "internalType": "uint256",
          "name": "",
          "type": "uint256"
        }
      ],
      "payable": false,
      "stateMutability": "view",
      "type": "function"
    },
    {
      "constant": true,
      "inputs": [
        {
          "internalType": "address",
          "name": "_owner",
          "type": "address"
        }
      ],
      "name": "balanceOf",
      "outputs": [
        {
          "internalType": "uint256",
          "name": "",
          "type": "uint256"
        }
      ],
      "payable": false,
      "stateMutability": "view",
      "type": "function"
    },
    {
      "constant": true,
      "inputs": [],
      "name": "baseRate",
      "outputs": [
        {
          "internalType": "uint256",
          "name": "",
          "type": "uint256"
        }
      ],
      "payable": false,
      "stateMutability": "view",
      "type": "function"
    },
    {
      "constant": false,
      "inputs": [
        {
          "internalType": "bytes32",
          "name": "loanId",
          "type": "bytes32"
        },
        {
          "internalType": "uint256",
          "name": "withdrawAmount",
          "type": "uint256"
        },
        {
          "internalType": "uint256",
          "name": "initialLoanDuration",
          "type": "uint256"
        },
        {
          "internalType": "uint256",
          "name": "collateralTokenSent",
          "type": "uint256"
        },
        {
          "internalType": "address",
          "name": "collateralTokenAddress",
          "type": "address"
        },
        {
          "internalType": "address",
          "name": "borrower",
          "type": "address"
        },
        {
          "internalType": "address",
          "name": "receiver",
          "type": "address"
        },
        {
          "internalType": "bytes",
          "name": "",
          "type": "bytes"
        }
      ],
      "name": "borrow",
      "outputs": [
        {
          "internalType": "uint256",
          "name": "",
          "type": "uint256"
        },
        {
          "internalType": "uint256",
          "name": "",
          "type": "uint256"
        }
      ],
      "payable": true,
      "stateMutability": "payable",
      "type": "function"
    },
    {
      "constant": true,
      "inputs": [],
      "name": "borrowInterestRate",
      "outputs": [
        {
          "internalType": "uint256",
          "name": "",
          "type": "uint256"
        }
      ],
      "payable": false,
      "stateMutability": "view",
      "type": "function"
    },
    {
      "constant": false,
      "inputs": [
        {
          "internalType": "address",
          "name": "receiver",
          "type": "address"
        },
        {
          "internalType": "uint256",
          "name": "burnAmount",
          "type": "uint256"
        },
        {
          "internalType": "bool",
          "name": "useLM",
          "type": "bool"
        }
      ],
      "name": "burn",
      "outputs": [
        {
          "internalType": "uint256",
          "name": "redeemed",
          "type": "uint256"
        }
      ],
      "payable": false,
      "stateMutability": "nonpayable",
      "type": "function"
    },
    {
      "constant": false,
      "inputs": [
        {
          "internalType": "address",
          "name": "receiver",
          "type": "address"
        },
        {
          "internalType": "uint256",
          "name": "burnAmount",
          "type": "uint256"
        }
      ],
      "name": "burn",
      "outputs": [
        {
          "internalType": "uint256",
          "name": "loanAmountPaid",
          "type": "uint256"
        }
      ],
      "payable": false,
      "stateMutability": "nonpayable",
      "type": "function"
    },
    {
      "constant": true,
      "inputs": [
        {
          "internalType": "uint256",
          "name": "assetBorrow",
          "type": "uint256"
        },
        {
          "internalType": "uint256",
          "name": "assetSupply",
          "type": "uint256"
        }
      ],
      "name": "calculateSupplyInterestRate",
      "outputs": [
        {
          "internalType": "uint256",
          "name": "",
          "type": "uint256"
        }
      ],
      "payable": false,
      "stateMutability": "view",
      "type": "function"
    },
    {
      "constant": true,
      "inputs": [
        {
          "internalType": "uint256",
          "name": "loanTokenSent",
          "type": "uint256"
        },
        {
          "internalType": "address",
          "name": "collateralTokenAddress",
          "type": "address"
        },
        {
          "internalType": "uint256",
          "name": "minEntryPrice",
          "type": "uint256"
        }
      ],
      "name": "checkPriceDivergence",
      "outputs": [],
      "payable": false,
      "stateMutability": "view",
      "type": "function"
    },
    {
      "constant": true,
      "inputs": [
        {
          "internalType": "address",
          "name": "_user",
          "type": "address"
        }
      ],
      "name": "checkpointPrice",
      "outputs": [
        {
          "internalType": "uint256",
          "name": "price",
          "type": "uint256"
        }
      ],
      "payable": false,
      "stateMutability": "view",
      "type": "function"
    },
    {
      "constant": true,
      "inputs": [],
      "name": "checkpointSupply",
      "outputs": [
        {
          "internalType": "uint256",
          "name": "",
          "type": "uint256"
        }
      ],
      "payable": false,
      "stateMutability": "view",
      "type": "function"
    },
    {
      "constant": true,
      "inputs": [],
      "name": "decimals",
      "outputs": [
        {
          "internalType": "uint8",
          "name": "",
          "type": "uint8"
        }
      ],
      "payable": false,
      "stateMutability": "view",
      "type": "function"
    },
    {
      "constant": true,
      "inputs": [],
      "name": "earlyAccessToken",
      "outputs": [
        {
          "internalType": "address",
          "name": "",
          "type": "address"
        }
      ],
      "payable": false,
      "stateMutability": "view",
      "type": "function"
    },
    {
      "constant": true,
      "inputs": [
        {
          "internalType": "uint256",
          "name": "depositAmount",
          "type": "uint256"
        },
        {
          "internalType": "uint256",
          "name": "initialLoanDuration",
          "type": "uint256"
        },
        {
          "internalType": "address",
          "name": "collateralTokenAddress",
          "type": "address"
        }
      ],
      "name": "getBorrowAmountForDeposit",
      "outputs": [
        {
          "internalType": "uint256",
          "name": "borrowAmount",
          "type": "uint256"
        }
      ],
      "payable": false,
      "stateMutability": "view",
      "type": "function"
    },
    {
      "constant": true,
      "inputs": [
        {
          "internalType": "uint256",
          "name": "borrowAmount",
          "type": "uint256"
        },
        {
          "internalType": "uint256",
          "name": "initialLoanDuration",
          "type": "uint256"
        },
        {
          "internalType": "address",
          "name": "collateralTokenAddress",
          "type": "address"
        }
      ],
      "name": "getDepositAmountForBorrow",
      "outputs": [
        {
          "internalType": "uint256",
          "name": "depositAmount",
          "type": "uint256"
        }
      ],
      "payable": false,
      "stateMutability": "view",
      "type": "function"
    },
    {
      "constant": true,
      "inputs": [
        {
          "internalType": "uint256",
          "name": "leverageAmount",
          "type": "uint256"
        },
        {
          "internalType": "uint256",
          "name": "loanTokenSent",
          "type": "uint256"
        },
        {
          "internalType": "uint256",
          "name": "collateralTokenSent",
          "type": "uint256"
        },
        {
          "internalType": "address",
          "name": "collateralTokenAddress",
          "type": "address"
        }
      ],
      "name": "getEstimatedMarginDetails",
      "outputs": [
        {
          "internalType": "uint256",
          "name": "principal",
          "type": "uint256"
        },
        {
          "internalType": "uint256",
          "name": "collateral",
          "type": "uint256"
        },
        {
          "internalType": "uint256",
          "name": "interestRate",
          "type": "uint256"
        }
      ],
      "payable": false,
      "stateMutability": "view",
      "type": "function"
    },
    {
      "constant": true,
      "inputs": [],
      "name": "getListFunctionSignatures",
      "outputs": [
        {
          "internalType": "bytes4[]",
          "name": "functionSignatures",
          "type": "bytes4[]"
        },
        {
          "internalType": "bytes32",
          "name": "moduleName",
          "type": "bytes32"
        }
      ],
      "payable": false,
      "stateMutability": "pure",
      "type": "function"
    },
    {
      "constant": true,
      "inputs": [
        {
          "internalType": "uint256",
          "name": "leverageAmount",
          "type": "uint256"
        },
        {
          "internalType": "uint256",
          "name": "depositAmount",
          "type": "uint256"
        }
      ],
      "name": "getMarginBorrowAmountAndRate",
      "outputs": [
        {
          "internalType": "uint256",
          "name": "",
          "type": "uint256"
        },
        {
          "internalType": "uint256",
          "name": "",
          "type": "uint256"
        }
      ],
      "payable": false,
      "stateMutability": "view",
      "type": "function"
    },
    {
      "constant": true,
      "inputs": [
        {
          "internalType": "uint256",
          "name": "leverageAmount",
          "type": "uint256"
        }
      ],
      "name": "getMaxEscrowAmount",
      "outputs": [
        {
          "internalType": "uint256",
          "name": "maxEscrowAmount",
          "type": "uint256"
        }
      ],
      "payable": false,
      "stateMutability": "view",
      "type": "function"
    },
    {
      "constant": true,
      "inputs": [],
      "name": "initialPrice",
      "outputs": [
        {
          "internalType": "uint256",
          "name": "",
          "type": "uint256"
        }
      ],
      "payable": false,
      "stateMutability": "view",
      "type": "function"
    },
    {
      "constant": true,
      "inputs": [],
      "name": "isOwner",
      "outputs": [
        {
          "internalType": "bool",
          "name": "",
          "type": "bool"
        }
      ],
      "payable": false,
      "stateMutability": "view",
      "type": "function"
    },
    {
      "constant": true,
      "inputs": [],
      "name": "kinkLevel",
      "outputs": [
        {
          "internalType": "uint256",
          "name": "",
          "type": "uint256"
        }
      ],
      "payable": false,
      "stateMutability": "view",
      "type": "function"
    },
    {
      "constant": true,
      "inputs": [],
      "name": "liquidityMiningAddress",
      "outputs": [
        {
          "internalType": "address",
          "name": "",
          "type": "address"
        }
      ],
      "payable": false,
      "stateMutability": "view",
      "type": "function"
    },
    {
      "constant": true,
      "inputs": [
        {
          "internalType": "uint256",
          "name": "",
          "type": "uint256"
        }
      ],
      "name": "loanParamsIds",
      "outputs": [
        {
          "internalType": "bytes32",
          "name": "",
          "type": "bytes32"
        }
      ],
      "payable": false,
      "stateMutability": "view",
      "type": "function"
    },
    {
      "constant": true,
      "inputs": [],
      "name": "loanTokenAddress",
      "outputs": [
        {
          "internalType": "address",
          "name": "",
          "type": "address"
        }
      ],
      "payable": false,
      "stateMutability": "view",
      "type": "function"
    },
    {
      "constant": true,
      "inputs": [],
      "name": "lowUtilBaseRate",
      "outputs": [
        {
          "internalType": "uint256",
          "name": "",
          "type": "uint256"
        }
      ],
      "payable": false,
      "stateMutability": "view",
      "type": "function"
    },
    {
      "constant": true,
      "inputs": [],
      "name": "lowUtilRateMultiplier",
      "outputs": [
        {
          "internalType": "uint256",
          "name": "",
          "type": "uint256"
        }
      ],
      "payable": false,
      "stateMutability": "view",
      "type": "function"
    },
    {
      "constant": false,
      "inputs": [
        {
          "internalType": "bytes32",
          "name": "loanId",
          "type": "bytes32"
        },
        {
          "internalType": "uint256",
          "name": "leverageAmount",
          "type": "uint256"
        },
        {
          "internalType": "uint256",
          "name": "loanTokenSent",
          "type": "uint256"
        },
        {
          "internalType": "uint256",
          "name": "collateralTokenSent",
          "type": "uint256"
        },
        {
          "internalType": "address",
          "name": "collateralTokenAddress",
          "type": "address"
        },
        {
          "internalType": "address",
          "name": "trader",
          "type": "address"
        },
        {
          "internalType": "uint256",
          "name": "minEntryPrice",
          "type": "uint256"
        },
        {
          "internalType": "bytes",
          "name": "loanDataBytes",
          "type": "bytes"
        }
      ],
      "name": "marginTrade",
      "outputs": [
        {
          "internalType": "uint256",
          "name": "",
          "type": "uint256"
        },
        {
          "internalType": "uint256",
          "name": "",
          "type": "uint256"
        }
      ],
      "payable": true,
      "stateMutability": "payable",
      "type": "function"
    },
    {
      "constant": false,
      "inputs": [
        {
          "internalType": "bytes32",
          "name": "loanId",
          "type": "bytes32"
        },
        {
          "internalType": "uint256",
          "name": "leverageAmount",
          "type": "uint256"
        },
        {
          "internalType": "uint256",
          "name": "loanTokenSent",
          "type": "uint256"
        },
        {
          "internalType": "uint256",
          "name": "collateralTokenSent",
          "type": "uint256"
        },
        {
          "internalType": "address",
          "name": "collateralTokenAddress",
          "type": "address"
        },
        {
          "internalType": "address",
          "name": "trader",
          "type": "address"
        },
        {
          "internalType": "uint256",
          "name": "minEntryPrice",
          "type": "uint256"
        },
        {
          "internalType": "address",
          "name": "affiliateReferrer",
          "type": "address"
        },
        {
          "internalType": "bytes",
          "name": "loanDataBytes",
          "type": "bytes"
        }
      ],
      "name": "marginTradeAffiliate",
      "outputs": [
        {
          "internalType": "uint256",
          "name": "",
          "type": "uint256"
        },
        {
          "internalType": "uint256",
          "name": "",
          "type": "uint256"
        }
      ],
      "payable": true,
      "stateMutability": "payable",
      "type": "function"
    },
    {
      "constant": true,
      "inputs": [],
      "name": "marketLiquidity",
      "outputs": [
        {
          "internalType": "uint256",
          "name": "",
          "type": "uint256"
        }
      ],
      "payable": false,
      "stateMutability": "view",
      "type": "function"
    },
    {
      "constant": true,
      "inputs": [],
      "name": "maxScaleRate",
      "outputs": [
        {
          "internalType": "uint256",
          "name": "",
          "type": "uint256"
        }
      ],
      "payable": false,
      "stateMutability": "view",
      "type": "function"
    },
    {
      "constant": false,
      "inputs": [
        {
          "internalType": "address",
          "name": "receiver",
          "type": "address"
        },
        {
          "internalType": "uint256",
          "name": "depositAmount",
          "type": "uint256"
        }
      ],
      "name": "mint",
      "outputs": [
        {
          "internalType": "uint256",
          "name": "mintAmount",
          "type": "uint256"
        }
      ],
      "payable": false,
      "stateMutability": "nonpayable",
      "type": "function"
    },
    {
      "constant": false,
      "inputs": [
        {
          "internalType": "address",
          "name": "receiver",
          "type": "address"
        },
        {
          "internalType": "uint256",
          "name": "depositAmount",
          "type": "uint256"
        },
        {
          "internalType": "bool",
          "name": "useLM",
          "type": "bool"
        }
      ],
      "name": "mint",
      "outputs": [
        {
          "internalType": "uint256",
          "name": "minted",
          "type": "uint256"
        }
      ],
      "payable": false,
      "stateMutability": "nonpayable",
      "type": "function"
    },
    {
      "constant": true,
      "inputs": [],
      "name": "name",
      "outputs": [
        {
          "internalType": "string",
          "name": "",
          "type": "string"
        }
      ],
      "payable": false,
      "stateMutability": "view",
      "type": "function"
    },
    {
      "constant": true,
      "inputs": [
        {
          "internalType": "uint256",
          "name": "borrowAmount",
          "type": "uint256"
        }
      ],
      "name": "nextBorrowInterestRate",
      "outputs": [
        {
          "internalType": "uint256",
          "name": "",
          "type": "uint256"
        }
      ],
      "payable": false,
      "stateMutability": "view",
      "type": "function"
    },
    {
      "constant": true,
      "inputs": [
        {
          "internalType": "uint256",
          "name": "supplyAmount",
          "type": "uint256"
        }
      ],
      "name": "nextSupplyInterestRate",
      "outputs": [
        {
          "internalType": "uint256",
          "name": "",
          "type": "uint256"
        }
      ],
      "payable": false,
      "stateMutability": "view",
      "type": "function"
    },
    {
      "constant": true,
      "inputs": [],
      "name": "owner",
      "outputs": [
        {
          "internalType": "address",
          "name": "",
          "type": "address"
        }
      ],
      "payable": false,
      "stateMutability": "view",
      "type": "function"
    },
    {
      "constant": true,
      "inputs": [],
      "name": "pauser",
      "outputs": [
        {
          "internalType": "address",
          "name": "",
          "type": "address"
        }
      ],
      "payable": false,
      "stateMutability": "view",
      "type": "function"
    },
    {
      "constant": true,
      "inputs": [
        {
          "internalType": "address",
          "name": "user",
          "type": "address"
        }
      ],
      "name": "profitOf",
      "outputs": [
        {
          "internalType": "int256",
          "name": "",
          "type": "int256"
        }
      ],
      "payable": false,
      "stateMutability": "view",
      "type": "function"
    },
    {
      "constant": true,
      "inputs": [],
      "name": "rateMultiplier",
      "outputs": [
        {
          "internalType": "uint256",
          "name": "",
          "type": "uint256"
        }
      ],
      "payable": false,
      "stateMutability": "view",
      "type": "function"
    },
    {
      "constant": false,
      "inputs": [
        {
          "internalType": "address",
          "name": "user",
          "type": "address"
        },
        {
          "internalType": "address",
          "name": "referrer",
          "type": "address"
        }
      ],
      "name": "setAffiliatesReferrer",
      "outputs": [],
      "payable": false,
      "stateMutability": "nonpayable",
      "type": "function"
    },
    {
      "constant": false,
      "inputs": [
        {
          "internalType": "address",
          "name": "user",
          "type": "address"
        }
      ],
      "name": "setUserNotFirstTradeFlag",
      "outputs": [],
      "payable": false,
      "stateMutability": "nonpayable",
      "type": "function"
    },
    {
      "constant": true,
      "inputs": [],
      "name": "sovrynContractAddress",
      "outputs": [
        {
          "internalType": "address",
          "name": "",
          "type": "address"
        }
      ],
      "payable": false,
      "stateMutability": "view",
      "type": "function"
    },
    {
      "constant": true,
      "inputs": [
        {
          "internalType": "string",
          "name": "source",
          "type": "string"
        }
      ],
      "name": "stringToBytes32",
      "outputs": [
        {
          "internalType": "bytes32",
          "name": "result",
          "type": "bytes32"
        }
      ],
      "payable": false,
      "stateMutability": "pure",
      "type": "function"
    },
    {
      "constant": true,
      "inputs": [],
      "name": "supplyInterestRate",
      "outputs": [
        {
          "internalType": "uint256",
          "name": "",
          "type": "uint256"
        }
      ],
      "payable": false,
      "stateMutability": "view",
      "type": "function"
    },
    {
      "constant": true,
      "inputs": [],
      "name": "symbol",
      "outputs": [
        {
          "internalType": "string",
          "name": "",
          "type": "string"
        }
      ],
      "payable": false,
      "stateMutability": "view",
      "type": "function"
    },
    {
      "constant": true,
      "inputs": [],
      "name": "targetLevel",
      "outputs": [
        {
          "internalType": "uint256",
          "name": "",
          "type": "uint256"
        }
      ],
      "payable": false,
      "stateMutability": "view",
      "type": "function"
    },
    {
      "constant": true,
      "inputs": [],
      "name": "target_",
      "outputs": [
        {
          "internalType": "address",
          "name": "",
          "type": "address"
        }
      ],
      "payable": false,
      "stateMutability": "view",
      "type": "function"
    },
    {
      "constant": true,
      "inputs": [],
      "name": "tokenPrice",
      "outputs": [
        {
          "internalType": "uint256",
          "name": "price",
          "type": "uint256"
        }
      ],
      "payable": false,
      "stateMutability": "view",
      "type": "function"
    },
    {
      "constant": true,
      "inputs": [],
      "name": "totalAssetBorrow",
      "outputs": [
        {
          "internalType": "uint256",
          "name": "",
          "type": "uint256"
        }
      ],
      "payable": false,
      "stateMutability": "view",
      "type": "function"
    },
    {
      "constant": true,
      "inputs": [],
      "name": "totalAssetSupply",
      "outputs": [
        {
          "internalType": "uint256",
          "name": "",
          "type": "uint256"
        }
      ],
      "payable": false,
      "stateMutability": "view",
      "type": "function"
    },
    {
      "constant": true,
      "inputs": [],
      "name": "totalSupply",
      "outputs": [
        {
          "internalType": "uint256",
          "name": "",
          "type": "uint256"
        }
      ],
      "payable": false,
      "stateMutability": "view",
      "type": "function"
    },
    {
      "constant": true,
      "inputs": [
        {
          "internalType": "uint256",
          "name": "assetSupply",
          "type": "uint256"
        }
      ],
      "name": "totalSupplyInterestRate",
      "outputs": [
        {
          "internalType": "uint256",
          "name": "",
          "type": "uint256"
        }
      ],
      "payable": false,
      "stateMutability": "view",
      "type": "function"
    },
    {
      "constant": true,
      "inputs": [
        {
          "internalType": "address",
          "name": "",
          "type": "address"
        }
      ],
      "name": "transactionLimit",
      "outputs": [
        {
          "internalType": "uint256",
          "name": "",
          "type": "uint256"
        }
      ],
      "payable": false,
      "stateMutability": "view",
      "type": "function"
    },
    {
      "constant": false,
      "inputs": [
        {
          "internalType": "address",
          "name": "_to",
          "type": "address"
        },
        {
          "internalType": "uint256",
          "name": "_value",
          "type": "uint256"
        }
      ],
      "name": "transfer",
      "outputs": [
        {
          "internalType": "bool",
          "name": "",
          "type": "bool"
        }
      ],
      "payable": false,
      "stateMutability": "nonpayable",
      "type": "function"
    },
    {
      "constant": false,
      "inputs": [
        {
          "internalType": "address",
          "name": "_from",
          "type": "address"
        },
        {
          "internalType": "address",
          "name": "_to",
          "type": "address"
        },
        {
          "internalType": "uint256",
          "name": "_value",
          "type": "uint256"
        }
      ],
      "name": "transferFrom",
      "outputs": [
        {
          "internalType": "bool",
          "name": "",
          "type": "bool"
        }
      ],
      "payable": false,
      "stateMutability": "nonpayable",
      "type": "function"
    },
    {
      "constant": false,
      "inputs": [
        {
          "internalType": "address",
          "name": "newOwner",
          "type": "address"
        }
      ],
      "name": "transferOwnership",
      "outputs": [],
      "payable": false,
      "stateMutability": "nonpayable",
      "type": "function"
    },
    {
      "constant": true,
      "inputs": [],
      "name": "wrbtcTokenAddress",
      "outputs": [
        {
          "internalType": "address",
          "name": "",
          "type": "address"
        }
      ],
      "payable": false,
      "stateMutability": "view",
      "type": "function"
    }
  ],
  "bytecode": {
    "object": "0x6080604052600160009081556200001e6001600160e01b036200007216565b600180546001600160a01b0319166001600160a01b038316908117909155604051919250906000907f8be0079c531659141344cd1fd0a4f28419497f9722a3daafe3b4186f6b6457e0908290a35062000076565b3390565b6160fa80620000866000396000f3fe6080604052600436106103c35760003560e01c80637ff9b596116101f2578063c9ddf4481161010d578063eebc5081116100a0578063f6b69f991161006f578063f6b69f9914610a5b578063f851a44014610a6e578063f8dd4f0e14610a83578063ffa1ad7414610a98576103c3565b8063eebc5081146109e6578063ef2b0b3914610a06578063f06a9c6b14610a1b578063f2fde38b14610a3b576103c3565b8063d65a5021116100dc578063d65a502114610971578063d759dbeb14610991578063dd62ed3e146109a6578063e41b07e3146109c6576103c3565b8063c9ddf448146108fc578063ca37e6661461091c578063cfb5192814610931578063d1a1beb414610951576103c3565b806390967de5116101855780639fd0506d116101545780639fd0506d14610892578063a9059cbb146108a7578063b9fe1a8f146108c7578063ba0e43bf146108e7576103c3565b806390967de51461082557806395d89b41146108485780639bda3a981461085d5780639dc29fac14610872576103c3565b80638da5cb5b116101c15780638da5cb5b146107d15780638ee6c4e6146107e65780638f32d59b146107fb5780638fb807c514610810576103c3565b80637ff9b59614610767578063829b38f41461077c5780638325a1c01461079c5780638d875e3c146107b1576103c3565b8063313ce567116102e2578063631a3ef81161027557806376fd4fdf1161024457806376fd4fdf14610708578063797bf385146107285780637b7933b41461073d5780637e37c08c14610752576103c3565b8063631a3ef8146106795780636b40cd40146106995780636d23d1ac146106c857806370a08231146106e8576103c3565b806344a4a003116102b157806344a4a0031461061a57806354198ce91461062f57806356e07d701461064f578063612ef80b14610664576103c3565b8063313ce567146105a35780633291c11a146105c5578063330691ac146105e557806340c10f19146105fa576103c3565b806318160ddd1161035a57806323b872dd1161032957806323b872dd1461053a57806328a02f191461055a5780632ea295fa1461057b5780632f6b600d1461058e576103c3565b806318160ddd146104e65780631d0806ae146104fb5780631f68f20a1461051057806320f6d07c14610525576103c3565b8063095ea7b311610396578063095ea7b31461046257806309ec6b6b1461048f57806310e57644146104a457806312416898146104c6576103c3565b806304797930146103c857806306947a3a146103fe57806306b3efd61461042057806306fdde0314610440575b600080fd5b3480156103d457600080fd5b506103e86103e336600461510c565b610aad565b6040516103f59190615cce565b60405180910390f35b34801561040a57600080fd5b50610413610c56565b6040516103f59190615b47565b34801561042c57600080fd5b506103e861043b366004614c9f565b610c65565b34801561044c57600080fd5b50610455610d51565b6040516103f59190615d4d565b34801561046e57600080fd5b5061048261047d366004614d62565b610ddc565b6040516103f59190615cc0565b34801561049b57600080fd5b506103e8610e47565b3480156104b057600080fd5b506104c46104bf36600461509c565b610e5c565b005b3480156104d257600080fd5b506103e86104e1366004615060565b610f3f565b3480156104f257600080fd5b506103e8610f6a565b34801561050757600080fd5b506103e8610f70565b34801561051c57600080fd5b506103e8610f76565b34801561053157600080fd5b506103e8610f7c565b34801561054657600080fd5b50610482610555366004614d15565b61100b565b61056d610568366004614f9c565b6110d4565b6040516103f5929190615f3e565b61056d610589366004614df3565b611466565b34801561059a57600080fd5b506104136117ed565b3480156105af57600080fd5b506105b86117fc565b6040516103f59190615f67565b3480156105d157600080fd5b506103e86105e0366004615060565b611805565b3480156105f157600080fd5b506103e8611817565b34801561060657600080fd5b506103e8610615366004614d62565b61181d565b34801561062657600080fd5b506103e8611990565b34801561063b57600080fd5b506103e861064a366004614c9f565b6119a2565b34801561065b57600080fd5b506103e8611a43565b34801561067057600080fd5b506103e8611a49565b34801561068557600080fd5b506103e861069436600461510c565b611a7a565b3480156106a557600080fd5b506106b96106b436600461514f565b611c1a565b6040516103f593929190615f4c565b3480156106d457600080fd5b506103e86106e33660046150bd565b611d2b565b3480156106f457600080fd5b506103e8610703366004614c9f565b611e0e565b34801561071457600080fd5b506103e8610723366004614d92565b611e29565b34801561073457600080fd5b50610413612006565b34801561074957600080fd5b506103e861201a565b34801561075e57600080fd5b506103e8612020565b34801561077357600080fd5b506103e8612026565b34801561078857600080fd5b506103e8610797366004615060565b612064565b3480156107a857600080fd5b506103e86120e4565b3480156107bd57600080fd5b5061056d6107cc3660046150bd565b6120f0565b3480156107dd57600080fd5b50610413612109565b3480156107f257600080fd5b50610413612118565b34801561080757600080fd5b50610482612127565b34801561081c57600080fd5b506103e861214d565b34801561083157600080fd5b5061083a61217d565b6040516103f5929190615ca0565b34801561085457600080fd5b506104556128bc565b34801561086957600080fd5b50610413612917565b34801561087e57600080fd5b506103e861088d366004614d62565b612926565b34801561089e57600080fd5b50610413612a28565b3480156108b357600080fd5b506104826108c2366004614d62565b612a37565b3480156108d357600080fd5b506103e86108e2366004615060565b612a47565b3480156108f357600080fd5b506103e8612a52565b34801561090857600080fd5b506104c4610917366004614cdb565b612a58565b34801561092857600080fd5b50610413612ac0565b34801561093d57600080fd5b506103e861094c36600461502b565b612acf565b34801561095d57600080fd5b506103e861096c366004614d92565b612aed565b34801561097d57600080fd5b506103e861098c366004615060565b612bc5565b34801561099d57600080fd5b506103e8612bd8565b3480156109b257600080fd5b506103e86109c1366004614cdb565b612bde565b3480156109d257600080fd5b506103e86109e1366004614c9f565b612c09565b3480156109f257600080fd5b506103e8610a01366004614c9f565b612c1b565b348015610a1257600080fd5b506103e8612c36565b348015610a2757600080fd5b506104c4610a36366004614c9f565b612c3c565b348015610a4757600080fd5b506104c4610a56366004614c9f565b612c9a565b61056d610a69366004614ebb565b612cca565b348015610a7a57600080fd5b50610413612d9a565b348015610a8f57600080fd5b506103e8612da9565b348015610aa457600080fd5b506103e8612db3565b60008315610c4f576001600160a01b038216610ad2576017546001600160a01b031691505b600060106000846001604051602001610aec929190615aa7565b60408051601f19818403018152918152815160209283012083529082019290925281016000205460165460048054935163ca74a5d960e01b81529294506001600160a01b039182169363e762319f936101009091049092169187918a91869163ca74a5d991610b5d918a9101615cce565b60206040518083038186803b158015610b7557600080fd5b505afa158015610b89573d6000803e3d6000fd5b505050506040513d601f19601f82011682018060405250610bad919081019061507e565b60016040518663ffffffff1660e01b8152600401610bcf959493929190615bc1565b60206040518083038186803b158015610be757600080fd5b505afa158015610bfb573d6000803e3d6000fd5b505050506040513d601f19601f82011682018060405250610c1f919081019061507e565b9150610c3382610c2d61214d565b86612db8565b9350610c419150612e319050565b821115610c4d57600091505b505b9392505050565b6016546001600160a01b031681565b601c5460009081906001600160a01b031615610d0057601c54604051636822955360e11b81526001600160a01b039091169063d0452aa690610cad9030908790600401615b63565b60206040518083038186803b158015610cc557600080fd5b505afa158015610cd9573d6000803e3d6000fd5b505050506040513d601f19601f82011682018060405250610cfd919081019061507e565b90505b610d48670de0b6b3a7640000610d3c610d17612026565b610d3085610d2489611e0e565b9063ffffffff612e6716565b9063ffffffff612e8c16565b9063ffffffff612ec616565b9150505b919050565b6002805460408051602060018416156101000260001901909316849004601f81018490048402820184019092528181529291830182828015610dd45780601f10610da957610100808354040283529160200191610dd4565b820191906000526020600020905b815481529060010190602001808311610db757829003601f168201915b505050505081565b3360008181526014602090815260408083206001600160a01b038716808552925280832085905551919290917f8c5be1e5ebec7d5bd14f71427d1e84f3dd0314c0f7b2291e5b200ac8c7c3b92590610e35908690615cce565b60405180910390a35060015b92915050565b6000610e566104e16000612f08565b90505b90565b60165460048054604051631a51577760e21b81526000936001600160a01b03908116936369455ddc93610e9d936101009091049092169188918a9101615b99565b60206040518083038186803b158015610eb557600080fd5b505afa158015610ec9573d6000803e3d6000fd5b505050506040513d601f19601f82011682018060405250610eed919081019061507e565b90506000610f0d85610d3c84670de0b6b3a764000063ffffffff612e8c16565b905082811015610f385760405162461bcd60e51b8152600401610f2f90615dae565b60405180910390fd5b5050505050565b600080610f4a610f7c565b90508015610f6457610f5c8184611d2b565b915050610d4c565b50919050565b60155490565b600e5481565b60055481565b6016546004805460405163250f447f60e11b81526000936001600160a01b0390811693634a1e88fe93610fbb9330936101009092049091169101615b63565b60206040518083038186803b158015610fd357600080fd5b505afa158015610fe7573d6000803e3d6000fd5b505050506040513d601f19601f82011682018060405250610e56919081019061507e565b60165460405163115dd4b160e01b81526000916110cc918691869186916001600160a01b03169063115dd4b190611046903390600401615b55565b60206040518083038186803b15801561105e57600080fd5b505afa158015611072573d6000803e3d6000fd5b505050506040513d601f19601f820116820180604052506110969190810190614dd5565b6110c3576001600160a01b03881660009081526014602090815260408083203384529091529020546110c7565b6000195b612f42565b949350505050565b6000806001600054146110f95760405162461bcd60e51b8152600401610f2f90615eee565b6002600081905550600073ba10edd6abc7696eae685839217bdcc42139612b6001600160a01b031663ed04e1c36040518163ffffffff1660e01b8152600401602060405180830381600087803b15801561115257600080fd5b505af1158015611166573d6000803e3d6000fd5b505050506040513d601f19601f8201168201806040525061118a919081019061507e565b9050611194613152565b6001600160a01b0387166111b1576017546001600160a01b031696505b6004546001600160a01b038881166101009092041614156111e45760405162461bcd60e51b8152600401610f2f90615e1e565b8a15806111f95750336001600160a01b038716145b6112155760405162461bcd60e51b8152600401610f2f90615f0e565b6001600160a01b03871660009081526012602052604090205415611258576001600160a01b03871660009081526012602052604090205488111561125857600080fd5b60045461010090046001600160a01b0316600090815260126020526040902054156112a95760045461010090046001600160a01b03166000908152601260205260409020548911156112a957600080fd5b60006112b6888a8c6131d2565b9050806112d55760405162461bcd60e51b8152600401610f2f90615e3e565b6112dd614b54565b6112e5614b7b565b3082526001600160a01b038916602080840182905260408401919091528101839052606081018c9052608081018b905261131d6133ff565b61132b8d82602001516134a5565b82526020820181905260045465e35fa931a000916113579161010090046001600160a01b0316906134f4565b116113745760405162461bcd60e51b8152600401610f2f90615ece565b61138e6f4b3b4ca85a86c47a098a2240000000008e612ec6565b60a082018990529c506113a78e60008f8d86868d61361b565b9550955050505073ba10edd6abc7696eae685839217bdcc42139612b6001600160a01b0316633fa4f2456040518163ffffffff1660e01b815260040160206040518083038186803b1580156113fb57600080fd5b505afa15801561140f573d6000803e3d6000fd5b505050506040513d601f19601f82011682018060405250611433919081019061507e565b81146114515760405162461bcd60e51b8152600401610f2f90615d5e565b50600160005590999098509650505050505050565b60008060016000541461148b5760405162461bcd60e51b8152600401610f2f90615eee565b6002600081905550600073ba10edd6abc7696eae685839217bdcc42139612b6001600160a01b031663ed04e1c36040518163ffffffff1660e01b8152600401602060405180830381600087803b1580156114e457600080fd5b505af11580156114f8573d6000803e3d6000fd5b505050506040513d601f19601f8201168201806040525061151c919081019061507e565b90508961153b5760405162461bcd60e51b8152600401610f2f90615f1e565b611543613152565b6001600160a01b03871660009081526012602052604090205415611586576001600160a01b03871660009081526012602052604090205488111561158657600080fd5b34158061159257508734145b80156115a65750871515806115a657508a15155b80156115cd57506001600160a01b0387161515806115c357503415155b806115cd57508a15155b80156115e957508a15806115e95750336001600160a01b038716145b6116055760405162461bcd60e51b8152600401610f2f90615dde565b6004546001600160a01b038881166101009092041614156116385760405162461bcd60e51b8152600401610f2f90615d6e565b6116406133ff565b611648614b54565b611650614b7b565b3082526001600160a01b03888116602080850191909152908816604084015281018c90526116888c6116826000612f08565b8d612db8565b8360000184604001856020018381525083815250838152505050508981608001818152505061179a8d8d601660009054906101000a90046001600160a01b03166001600160a01b031663ca74a5d9601060008f60016040516020016116ee929190615aa7565b6040516020818303038152906040528051906020012060001c8152602001908152602001600020546040518263ffffffff1660e01b81526004016117329190615cce565b60206040518083038186803b15801561174a57600080fd5b505afa15801561175e573d6000803e3d6000fd5b505050506040513d601f19601f82011682018060405250611782919081019061507e565b8c86866040518060200160405280600081525061361b565b94509450505073ba10edd6abc7696eae685839217bdcc42139612b6001600160a01b0316633fa4f2456040518163ffffffff1660e01b815260040160206040518083038186803b1580156113fb57600080fd5b6017546001600160a01b031681565b60045460ff1681565b60106020526000908152604090205481565b60065481565b60006001600054146118415760405162461bcd60e51b8152600401610f2f90615eee565b6002600081905550600073ba10edd6abc7696eae685839217bdcc42139612b6001600160a01b031663ed04e1c36040518163ffffffff1660e01b8152600401602060405180830381600087803b15801561189a57600080fd5b505af11580156118ae573d6000803e3d6000fd5b505050506040513d601f19601f820116820180604052506118d2919081019061507e565b90506118de8484613878565b91505b73ba10edd6abc7696eae685839217bdcc42139612b6001600160a01b0316633fa4f2456040518163ffffffff1660e01b815260040160206040518083038186803b15801561192e57600080fd5b505afa158015611942573d6000803e3d6000fd5b505050506040513d601f19601f82011682018060405250611966919081019061507e565b81146119845760405162461bcd60e51b8152600401610f2f90615d5e565b50600160005592915050565b6000610e5661199d610f7c565b613984565b600080827f37aa2b7d583612f016e4a4de4292cb015139b3d7762663d06a53964912ea2fb660001b6040516020016119db929190615acd565b604051602081830303815290604052805190602001209050610d488160136000866001600160a01b03166001600160a01b0316815260200190815260200160002054611a25612026565b6001600160a01b0387166000908152601160205260409020546139bc565b600a5481565b600080611a566000612f08565b90506000611a62610f7c565b905080821115611a755790039050610e59565b505090565b60008315610c4f576000611a9085610c2d61214d565b92505050611a9c612e31565b8111610c4d576001600160a01b038316611abf576017546001600160a01b031692505b600060106000856001604051602001611ad9929190615aa7565b60408051601f19818403018152918152815160209283012083529082019290925281016000205460165460048054935163ca74a5d960e01b8152929450611c1193600a936001600160a01b03938416936325decac09361010090930416918a918991869163ca74a5d991611b4f918c9101615cce565b60206040518083038186803b158015611b6757600080fd5b505afa158015611b7b573d6000803e3d6000fd5b505050506040513d601f19601f82011682018060405250611b9f919081019061507e565b60016040518663ffffffff1660e01b8152600401611bc1959493929190615bc1565b60206040518083038186803b158015611bd957600080fd5b505afa158015611bed573d6000803e3d6000fd5b505050506040513d601f19601f82011682018060405250610d24919081019061507e565b92505050610c4f565b600080806001600160a01b038416611c3b576017546001600160a01b031693505b6000611c488587896131d2565b9050611c5488826134a5565b9094509150611c61612e31565b841115611c78575060009250829150819050611d21565b611c88878563ffffffff612e6716565b6016546004805460405163d67f707760e01b8152939a506001600160a01b039283169363d67f707793611ccd9361010090930416918a918d918d918a918d9101615c03565b60206040518083038186803b158015611ce557600080fd5b505afa158015611cf9573d6000803e3d6000fd5b505050506040513d601f19601f82011682018060405250611d1d919081019061507e565b9250505b9450945094915050565b60008215801590611d3c5750828210155b15610e4157611e07701d6329f1c35ca4bfabb9f5610000000000610d3c611df168056bc75e2d63100000601660009054906101000a90046001600160a01b03166001600160a01b0316634699f8466040518163ffffffff1660e01b815260040160206040518083038186803b158015611db457600080fd5b505afa158015611dc8573d6000803e3d6000fd5b505050506040513d601f19601f82011682018060405250611dec919081019061507e565b613a16565b610d30611dfe8888613a58565b610d3089613984565b9050610e41565b6001600160a01b031660009081526013602052604090205490565b6000600160005414611e4d5760405162461bcd60e51b8152600401610f2f90615eee565b6002600081905550600073ba10edd6abc7696eae685839217bdcc42139612b6001600160a01b031663ed04e1c36040518163ffffffff1660e01b8152600401602060405180830381600087803b158015611ea657600080fd5b505af1158015611eba573d6000803e3d6000fd5b505050506040513d601f19601f82011682018060405250611ede919081019061507e565b90508215611ef657611eef84613a8a565b9150611f02565b611eff84613c30565b91505b8115611f5657611f56600460019054906101000a90046001600160a01b0316868460405180604001604052806015815260200174185cdcd95d081d1c985b9cd9995c8819985a5b1959605a1b815250613de7565b73ba10edd6abc7696eae685839217bdcc42139612b6001600160a01b0316633fa4f2456040518163ffffffff1660e01b815260040160206040518083038186803b158015611fa357600080fd5b505afa158015611fb7573d6000803e3d6000fd5b505050506040513d601f19601f82011682018060405250611fdb919081019061507e565b8114611ff95760405162461bcd60e51b8152600401610f2f90615d5e565b5060016000559392505050565b60045461010090046001600160a01b031681565b600d5481565b60085481565b600f546000908190426001600160581b0390811691161461204d57612049613e47565b9150505b61205e61205982612f08565b613f13565b91505090565b60008061208361016d610d3c601c600b54612e8c90919063ffffffff16565b905060006120a068056bc75e2d631000008363ffffffff613a1616565b905060006120bd68056bc75e2d63100000610d3c84610d30611a49565b90506120db85610d3c83670de0b6b3a764000063ffffffff612e8c16565b95945050505050565b6000610e566000613f42565b6000806120fd84846134a5565b915091505b9250929050565b6001546001600160a01b031690565b601c546001600160a01b031681565b6001546000906001600160a01b031661213e613f98565b6001600160a01b031614905090565b600f546000908190426001600160581b0390811691161461217457612170613e47565b9150505b61205e81612f08565b604080516023808252610480820190925260609160009183916020820161046080388339019050509050632ea295fa60e01b816000815181106121bc57fe5b6001600160e01b03199092166020928302919091019091015280516328a02f1960e01b90829060019081106121ed57fe5b6001600160e01b031990921660209283029190910190910152805163f6b69f9960e01b908290600290811061221e57fe5b6001600160e01b031990921660209283029190910190910152805163a9059cbb60e01b908290600390811061224f57fe5b6001600160e01b03199092166020928302919091019091015280516323b872dd60e01b908290600490811061228057fe5b6001600160e01b03199092166020928302919091019091015280516354198ce960e01b90829060059081106122b157fe5b6001600160e01b0319909216602092830291909101909101528051633ffcdacb60e11b90829060069081106122e257fe5b6001600160e01b031990921660209283029190910190910152805163eebc508160e01b908290600790811061231357fe5b6001600160e01b031990921660209283029190910190910152805163612ef80b60e01b908290600890811061234457fe5b6001600160e01b03199092166020928302919091019091015280516344a4a00360e01b908290600990811061237557fe5b6001600160e01b031990921660209283029190910190910152805163020c968760e61b908290600a9081106123a657fe5b6001600160e01b031990921660209283029190910190910152805163b9fe1a8f60e01b908290600b9081106123d757fe5b6001600160e01b03199092166020928302919091019091015280516309ec6b6b60e01b908290600c90811061240857fe5b6001600160e01b031990921660209283029190910190910152805163d65a502160e01b908290600d90811061243957fe5b6001600160e01b03199092166020928302919091019091015280516302482d1360e31b908290600e90811061246a57fe5b6001600160e01b031990921660209283029190910190910152805163083db41f60e21b908290600f90811061249b57fe5b6001600160e01b0319909216602092830291909101909101528051638fb807c560e01b90829060109081106124cc57fe5b6001600160e01b03199092166020928302919091019091015280516320a6ce3d60e21b90829060119081106124fd57fe5b6001600160e01b0319909216602092830291909101909101528051630359f7eb60e11b908290601290811061252e57fe5b6001600160e01b03199092166020928302919091019091015280516301ad033560e61b908290601390811061255f57fe5b6001600160e01b0319909216602092830291909101909101528051630c6347df60e31b908290601490811061259057fe5b6001600160e01b03199092166020928302919091019091015280516247979360e41b90829060159081106125c057fe5b6001600160e01b03199092166020928302919091019091015280516304395d9160e21b90829060169081106125f157fe5b6001600160e01b0319909216602092830291909101909101528051631b48f46b60e21b908290601790811061262257fe5b6001600160e01b03199092166020928302919091019091015260405161264790615b1b565b60405180910390208160188151811061265c57fe5b6001600160e01b03199092166020928302919091019091015260405161268190615b3c565b60405180910390208160198151811061269657fe5b6001600160e01b0319909216602092830291909101909101526040516126bb90615b31565b604051809103902081601a815181106126d057fe5b6001600160e01b0319909216602092830291909101909101526040516126f590615b26565b604051809103902081601b8151811061270a57fe5b6001600160e01b031990921660209283029190910190910152805163095ea7b360e01b908290601c90811061273b57fe5b6001600160e01b03199092166020928302919091019091015280516318160ddd60e01b908290601d90811061276c57fe5b6001600160e01b03199092166020928302919091019091015280516370a0823160e01b908290601e90811061279d57fe5b6001600160e01b0319909216602092830291909101909101528051636eb1769f60e11b908290601f9081106127ce57fe5b6001600160e01b0319909216602092830291909101820152815163193bbe8960e31b91839181106127fb57fe5b6001600160e01b031990921660209283029190910190910152805163f06a9c6b60e01b908290602190811061282c57fe5b6001600160e01b0319909216602092830291909101909101528051632361d78f60e21b908290602290811061285d57fe5b60200260200101906001600160e01b03191690816001600160e01b03191681525050806128b3604051806040016040528060128152602001714d6f636b4c6f616e546f6b656e4c6f67696360701b815250612acf565b92509250509091565b6003805460408051602060026001851615610100026000190190941693909304601f81018490048402820184019092528181529291830182828015610dd45780601f10610da957610100808354040283529160200191610dd4565b6018546001600160a01b031681565b600060016000541461294a5760405162461bcd60e51b8152600401610f2f90615eee565b6002600081905550600073ba10edd6abc7696eae685839217bdcc42139612b6001600160a01b031663ed04e1c36040518163ffffffff1660e01b8152600401602060405180830381600087803b1580156129a357600080fd5b505af11580156129b7573d6000803e3d6000fd5b505050506040513d601f19601f820116820180604052506129db919081019061507e565b90506129e683613c30565b915081156118e1576118e1600460019054906101000a90046001600160a01b03168584604051806040016040528060018152602001603560f81b815250613de7565b601b546001600160a01b031681565b6000610c4f338484600019612f42565b6000610e4182613f42565b60095481565b60165460405163193bbe8960e31b81526001600160a01b039091169063c9ddf44890612a8a9085908590600401615b63565b600060405180830381600087803b158015612aa457600080fd5b505af1158015612ab8573d6000803e3d6000fd5b505050505050565b601a546001600160a01b031681565b80516000908290612ae4575060009050610d4c565b50506020015190565b6000600160005414612b115760405162461bcd60e51b8152600401610f2f90615eee565b6002600081905550600073ba10edd6abc7696eae685839217bdcc42139612b6001600160a01b031663ed04e1c36040518163ffffffff1660e01b8152600401602060405180830381600087803b158015612b6a57600080fd5b505af1158015612b7e573d6000803e3d6000fd5b505050506040513d601f19601f82011682018060405250612ba2919081019061507e565b90508215612bbb57612bb48585613f9c565b9150611f56565b612bb48585613878565b6000610e416104e183610d246000612f08565b60075481565b6001600160a01b03918216600090815260146020908152604080832093909416825291909152205490565b60126020526000908152604090205481565b6001600160a01b031660009081526011602052604090205490565b600b5481565b60165460405163f06a9c6b60e01b81526001600160a01b039091169063f06a9c6b90612c6c908490600401615b47565b600060405180830381600087803b158015612c8657600080fd5b505af1158015610f38573d6000803e3d6000fd5b612ca2612127565b612cbe5760405162461bcd60e51b8152600401610f2f90615e8e565b612cc781614025565b50565b6000806001600160a01b03851615612d415760165460405163193bbe8960e31b81526001600160a01b039091169063c9ddf44890612d0e908a908990600401615b63565b600060405180830381600087803b158015612d2857600080fd5b505af1158015612d3c573d6000803e3d6000fd5b505050505b612d878c8c8c8c8c8c8c8b8b8080601f0160208091040260200160405190810160405280939291908181526020018383808284376000920191909152506110d492505050565b915091509a509a98505050505050505050565b6019546001600160a01b031681565b65e35fa931a00081565b600681565b6000806000612dc786866140a7565b9250612e14612dfc670de0b6b3a7640000611dec6b0a3098c68eb9427db8000000610d3c83610d308a8c63ffffffff612e8c16565b610d3c88670de0b6b3a764000063ffffffff612e8c16565b9050612e26818763ffffffff613a1616565b915093509350939050565b600480546040516370a0823160e01b81526000926101009092046001600160a01b0316916370a0823191610fbb91309101615b47565b600082820183811015610c4f5760405162461bcd60e51b8152600401610f2f90615dbe565b600082612e9b57506000610e41565b82820282848281612ea857fe5b0414610c4f5760405162461bcd60e51b8152600401610f2f90615e7e565b6000610c4f83836040518060400160405280601a81526020017f536166654d6174683a206469766973696f6e206279207a65726f0000000000008152506141bd565b6000601554600014610d4c57600c5480612f3257612f2f612f27610f7c565b610d24612e31565b90505b610f5c818463ffffffff612e6716565b60006000198214612fdb576040805180820190915260028152610c4d60f21b6020820152612f79908390859063ffffffff6141f416565b6001600160a01b038616600081815260146020908152604080832033808552925291829020849055905190927f628e75c63c1873bcd3885f7aee9f58ee36f60dc789b2a6b3a978c4189bc548ba91612fd2918791615f3e565b60405180910390a35b6001600160a01b0384166130015760405162461bcd60e51b8152600401610f2f90615d7e565b6001600160a01b03851660009081526013602090815260408083205481518083019092526002825261189b60f11b9282019290925290919061304c908390879063ffffffff6141f416565b6001600160a01b03808916600090815260136020526040808220849055918916815290812054919250613085828863ffffffff612e6716565b6001600160a01b03891660009081526013602052604081208290559091506130ab612026565b601c549091506001600160a01b038b81169116148015906130da5750601c546001600160a01b038a8116911614155b156130f7576130eb8a868684614220565b6130f789848484614220565b886001600160a01b03168a6001600160a01b03167fddf252ad1be2c89b69c2b068fc378daa952ba7f163c4a11628f55a4df523b3ef8a60405161313a9190615cce565b60405180910390a35060019998505050505050505050565b600080356001600160e01b0319167fd46a704bc285dbd6ff5ad3863506260b1df02812f4f857c8cc852317a6ac64f2604051602001613192929190615af3565b60405160208183030381529060405280519060200120905060008154905080156131ce5760405162461bcd60e51b8152600401610f2f90615e8e565b5050565b808215610c4f57600080601660009054906101000a90046001600160a01b03166001600160a01b03166378d849ed6040518163ffffffff1660e01b815260040160206040518083038186803b15801561322a57600080fd5b505afa15801561323e573d6000803e3d6000fd5b505050506040513d601f19601f820116820180604052506132629190810190614cbd565b60048054604051630a7549df60e21b81526001600160a01b03938416936329d5277c9361329b938c936101009091049092169101615b63565b604080518083038186803b1580156132b257600080fd5b505afa1580156132c6573d6000803e3d6000fd5b505050506040513d601f19601f820116820180604052506132ea91908101906150dc565b91509150816000141580156132fe57508015155b61331a5760405162461bcd60e51b8152600401610f2f90615ede565b600061333082610d3c888663ffffffff612e8c16565b60165460048054604051631a51577760e21b81529394506000936001600160a01b03938416936369455ddc93613373936101009004909116918d91889101615b99565b60206040518083038186803b15801561338b57600080fd5b505afa15801561339f573d6000803e3d6000fd5b505050506040513d601f19601f820116820180604052506133c3919081019061507e565b90508681146133e3576133e087610d3c848463ffffffff612e8c16565b91505b6133f3828663ffffffff612e6716565b98975050505050505050565b600f5442906001600160581b03808316911614612cc75760165460048054604051630740ff7d60e51b81526001600160a01b039384169363e81fefa09361344f9361010090049091169101615b47565b600060405180830381600087803b15801561346957600080fd5b505af115801561347d573d6000803e3d6000fd5b5050600f80546001600160581b0385166affffffffffffffffffffff19909116179055505050565b600080806134c5670de0b6b3a7640000610d3c868863ffffffff612e8c16565b90506134da816134d56000612f08565b6140a7565b91506134ea826224ea00836142d6565b9250509250929050565b6000806000601660009054906101000a90046001600160a01b03166001600160a01b03166378d849ed6040518163ffffffff1660e01b815260040160206040518083038186803b15801561354757600080fd5b505afa15801561355b573d6000803e3d6000fd5b505050506040513d601f19601f8201168201806040525061357f9190810190614cbd565b601754604051630a7549df60e21b81526001600160a01b03928316926329d5277c926135b3928a9290911690600401615b63565b604080518083038186803b1580156135ca57600080fd5b505afa1580156135de573d6000803e3d6000fd5b505050506040513d601f19601f8201168201806040525061360291908101906150dc565b90925090506120db81610d3c868563ffffffff612e8c16565b600080613626613152565b61362e612e31565b84602001511115801561364d575060208501516001600160a01b031615155b6136695760405162461bcd60e51b8152600401610f2f90615e0e565b60408501516001600160a01b031661368f5760208501516001600160a01b031660408601525b600061369d8787878c614337565b90506136ba85602001518660600151612e6790919063ffffffff16565b606086015288156136e05760608501516136da908a63ffffffff613a1616565b60608601525b600089156136ec575060015b6000601060008a84604051602001613705929190615aa7565b6040516020818303038152906040528051906020012060001c8152602001908152602001600020549050601660009054906101000a90046001600160a01b03166001600160a01b031663d84ca25484838f868f8e8e8e6040518963ffffffff1660e01b815260040161377d9796959493929190615cdc565b60408051808303818588803b15801561379557600080fd5b505af11580156137a9573d6000803e3d6000fd5b50505050506040513d601f19601f820116820180604052506137ce91908101906150dc565b6080890152602088018190526137f65760405162461bcd60e51b8152600401610f2f90615e4e565b601654602089015160405163f06a9c6b60e01b81526001600160a01b039092169163f06a9c6b9161382991600401615b47565b600060405180830381600087803b15801561384357600080fd5b505af1158015613857573d6000803e3d6000fd5b50505050866020015187608001519450945050505097509795505050505050565b60008061388483614569565b601c5491935091506000906001600160a01b03161561392257601c54604051636822955360e11b81526001600160a01b039091169063d0452aa6906138cf9030908990600401615b63565b60206040518083038186803b1580156138e757600080fd5b505afa1580156138fb573d6000803e3d6000fd5b505050506040513d601f19601f8201168201806040525061391f919081019061507e565b90505b6001600160a01b03851660009081526013602052604081205461394b908363ffffffff612e6716565b9050600061395f828663ffffffff612e6716565b905061396d87868887614673565b5061397a87838387614220565b5050505092915050565b60008115610d4c576000613996613e47565b509050610f5c83610d3c61016d610d308568056bc75e2d6310000063ffffffff612e8c16565b6000816139cb575060006110cc565b5083546120db81613a0a670de0b6b3a76400006139fe886139f2898963ffffffff61479416565b9063ffffffff6147da16565b9063ffffffff61484516565b9063ffffffff6148a916565b6000610c4f83836040518060400160405280601e81526020017f536166654d6174683a207375627472616374696f6e206f766572666c6f7700008152506141f4565b60008215801590613a6857508115155b15610e4157611e0782610d3c8568056bc75e2d6310000063ffffffff612e8c16565b601c54604051636822955360e11b815260009182916001600160a01b039091169063d0452aa690613ac19030903390600401615b7e565b60206040518083038186803b158015613ad957600080fd5b505afa158015613aed573d6000803e3d6000fd5b505050506040513d601f19601f82011682018060405250613b11919081019061507e565b905082613b2d613b2033611e0e565b839063ffffffff612e6716565b1015613b4b5760405162461bcd60e51b8152600401610f2f90615dee565b8015613c2b5782811015613bc457601c54604051631a4ca37b60e21b81526001600160a01b03909116906369328dec90613b8d90309085903390600401615c78565b600060405180830381600087803b158015613ba757600080fd5b505af1158015613bbb573d6000803e3d6000fd5b50505050613c2b565b601c54604051631a4ca37b60e21b81526001600160a01b03909116906369328dec90613bf890309087903390600401615c78565b600060405180830381600087803b158015613c1257600080fd5b505af1158015613c26573d6000803e3d6000fd5b505050505b610d48835b600081613c4f5760405162461bcd60e51b8152600401610f2f90615e9e565b613c5833611e0e565b821115613c8c576000198214613c805760405162461bcd60e51b8152600401610f2f90615e5e565b613c8933611e0e565b91505b613c946133ff565b6000613ca36120596000612f08565b90506000613cc3670de0b6b3a7640000610d3c868563ffffffff612e8c16565b90506000613ccf612e31565b905081935080841115613cf45760405162461bcd60e51b8152600401610f2f90615dfe565b601c546000906001600160a01b031615613d8d57601c54604051636822955360e11b81526001600160a01b039091169063d0452aa690613d3a9030903390600401615b7e565b60206040518083038186803b158015613d5257600080fd5b505afa158015613d66573d6000803e3d6000fd5b505050506040513d601f19601f82011682018060405250613d8a919081019061507e565b90505b33600090815260136020526040812054613dad908363ffffffff612e6716565b90506000613dc1828963ffffffff613a1616565b9050613dcf338989896148ef565b50613ddc33838389614220565b505050505050919050565b604051613e4190859063a9059cbb60e01b90613e099087908790602401615c5d565b60408051601f198184030181529190526020810180516001600160e01b03166001600160e01b03199093169290921790915283614a14565b50505050565b60165460048054604051630d1979fb60e41b8152600093849384936001600160a01b039283169363d1979fb093613e8993309361010090049091169101615b63565b60c06040518083038186803b158015613ea157600080fd5b505afa158015613eb5573d6000803e3d6000fd5b505050506040513d601f19601f82011682018060405250613ed991908101906151b0565b5091965094509250613f0c915068056bc75e2d631000009050610d3c613eff8285613a16565b859063ffffffff612e8c16565b9150509091565b60155460009080613f2657600e54610d48565b610d4881610d3c85670de0b6b3a764000063ffffffff612e8c16565b6000808215613f8b57600f54426001600160581b03908116911614613f6d57613f69613e47565b9150505b6000613f7b82610d24612e31565b905080841115613f89578093505b505b610d48836134d583612f08565b3390565b6000613fa88383613878565b601c54909150613fc49084906001600160a01b03168380612f42565b50601c546040516336305cf160e21b81526001600160a01b039091169063d8c173c490613ff79086908590600401615c5d565b600060405180830381600087803b15801561401157600080fd5b505af115801561397a573d6000803e3d6000fd5b6001600160a01b03811661404b5760405162461bcd60e51b8152600401610f2f90615d9e565b6001546040516001600160a01b038084169216907f8be0079c531659141344cd1fd0a4f28419497f9722a3daafe3b4186f6b6457e090600090a3600180546001600160a01b0319166001600160a01b0392909216919091179055565b6000806140bf6140b985610d24610f7c565b84613a58565b600554600654600954600a54600b54949550600094859493929190828810156140e6578297505b8188111561415957968190039668056bc75e2d631000008290038089111561410c578098505b61412d86610d2468056bc75e2d63100000610d3c878a63ffffffff612e8c16565b965061415187610d2483610d3c614144878d613a16565b8e9063ffffffff612e8c16565b9950506141af565b61417a85610d2468056bc75e2d63100000610d3c8c8963ffffffff612e8c16565b98509395508593614191848663ffffffff612e6716565b9550868910156141a3578698506141af565b858911156141af578598505b505050505050505092915050565b600081836141de5760405162461bcd60e51b8152600401610f2f9190615d4d565b5060008385816141ea57fe5b0495945050505050565b600081848411156142185760405162461bcd60e51b8152600401610f2f9190615d4d565b505050900390565b6040516000906142569086907f37aa2b7d583612f016e4a4de4292cb015139b3d7762663d06a53964912ea2fb690602001615acd565b6040516020818303038152906040528051906020012090506000836000141561428257600092506142b3565b84156142b3576001600160a01b0386166000908152601160205260409020546142b0908390879086906139bc565b90505b90556001600160a01b039093166000908152601160205260409020929092555050565b6000806142f16301e13380610d3c878763ffffffff612e8c16565b9050600061430e68056bc75e2d631000008363ffffffff613a1616565b905061432d81610d3c8668056bc75e2d6310000063ffffffff612e8c16565b9695505050505050565b6017546004546020840151606085015160808601516000946001600160a01b039081169461010090048116939291908a168414156143875760405162461bcd60e51b8152600401610f2f90615eae565b34955086156143e9576143af848a604001518960405180602001604052806000815250613de7565b868311156143e4576016546040805160208101909152600081526143e49186916001600160a01b03909116908a870390613de7565b61441e565b601654604080518082019091526002815261323760f01b602082015261441e9186916001600160a01b03909116908690613de7565b801561452157846001600160a01b03168a6001600160a01b031614801561444457508515155b80156144505750808610155b156144ea57846001600160a01b031663d0e30db0826040518263ffffffff1660e01b81526004016000604051808303818588803b15801561449057600080fd5b505af11580156144a4573d6000803e3d6000fd5b505060165460408051808201909152600481526332382d6160e01b60208201526144e094508e93506001600160a01b0390911691508490613de7565b8086039550614521565b601654604080518082019091526004815263191c16b160e11b6020820152614521918c9133916001600160a01b0316908590614af7565b811561455c57601654604080518082019091526002815261323960f01b602082015261455c91869133916001600160a01b0316908690614af7565b5050505050949350505050565b600080826145895760405162461bcd60e51b8152600401610f2f90615e6e565b6145916133ff565b61459e6120596000612f08565b90506145bc81610d3c85670de0b6b3a764000063ffffffff612e8c16565b915034614604576145ff600460019054906101000a90046001600160a01b031633308660405180604001604052806002815260200161062760f31b815250614af7565b61466e565b601760009054906101000a90046001600160a01b03166001600160a01b031663d0e30db0846040518263ffffffff1660e01b81526004016000604051808303818588803b15801561465457600080fd5b505af1158015614668573d6000803e3d6000fd5b50505050505b915091565b60006001600160a01b03851661469b5760405162461bcd60e51b8152600401610f2f90615d7e565b6001600160a01b0385166000908152601360205260408120546146c4908663ffffffff612e6716565b6001600160a01b03871660009081526013602052604090208190556015549091506146f5908663ffffffff612e6716565b6015556040516001600160a01b038716907fb4c03061fb5b7fed76389d5af8f2e0ddb09f8c70d1333abbb62582835e10accb9061473790889088908890615f4c565b60405180910390a2856001600160a01b031660006001600160a01b03167fddf252ad1be2c89b69c2b068fc378daa952ba7f163c4a11628f55a4df523b3ef876040516147839190615cce565b60405180910390a395945050505050565b60008183038183128015906147a95750838113155b806147be57506000831280156147be57508381135b610c4f5760405162461bcd60e51b8152600401610f2f90615efe565b6000826147e957506000610e41565b826000191480156147fd5750600160ff1b82145b1561481a5760405162461bcd60e51b8152600401610f2f90615ebe565b8282028284828161482757fe5b0514610c4f5760405162461bcd60e51b8152600401610f2f90615ebe565b6000816148645760405162461bcd60e51b8152600401610f2f90615f2e565b816000191480156148785750600160ff1b83145b156148955760405162461bcd60e51b8152600401610f2f90615e2e565b60008284816148a057fe5b05949350505050565b60008282018183128015906148be5750838112155b806148d357506000831280156148d357508381125b610c4f5760405162461bcd60e51b8152600401610f2f90615dce565b6040805180820182526002815261189b60f11b6020808301919091526001600160a01b038716600090815260139091529182205482916149379190879063ffffffff6141f416565b9050600a811161495857614951858263ffffffff612e6716565b9450600090505b6001600160a01b0386166000908152601360205260409020819055601554614986908663ffffffff613a1616565b6015556040516001600160a01b038716907f743033787f4738ff4d6a7225ce2bd0977ee5f86b91a902a58f5e4d0b297b4644906149c890889088908890615f4c565b60405180910390a260006001600160a01b0316866001600160a01b03167fddf252ad1be2c89b69c2b068fc378daa952ba7f163c4a11628f55a4df523b3ef876040516147839190615cce565b614a1d83614b1b565b614a395760405162461bcd60e51b8152600401610f2f90615d8e565b60006060846001600160a01b031684604051614a559190615b0f565b6000604051808303816000865af19150503d8060008114614a92576040519150601f19603f3d011682016040523d82523d6000602084013e614a97565b606091505b5091509150818390614abc5760405162461bcd60e51b8152600401610f2f9190615d4d565b50805115610f385780806020019051614ad89190810190614dd5565b8390612ab85760405162461bcd60e51b8152600401610f2f9190615d4d565b604051610f389086906323b872dd60e01b90613e0990889088908890602401615b99565b6000813f7fc5d2460186f7233c927e7db2dcc703c0e500b653ca82273b7bfad8045d85a4708181148015906110cc575050151592915050565b60408051608081018252600080825260208201819052918101829052606081019190915290565b6040518061012001604052806000815260200160008152602001600081526020016000815260200160008152602001600081526020016000815260200160008152602001600081525090565b8035610e4181616091565b8051610e4181616091565b8035610e41816160a5565b8051610e41816160a5565b8035610e41816160ae565b60008083601f840112614c1057600080fd5b50813567ffffffffffffffff811115614c2857600080fd5b60208301915083600182028301111561210257600080fd5b600082601f830112614c5157600080fd5b8135614c64614c5f82615f9c565b615f75565b91508082526020830160208301858383011115614c8057600080fd5b614c8b838284616017565b50505092915050565b8051610e41816160ae565b600060208284031215614cb157600080fd5b60006110cc8484614bc7565b600060208284031215614ccf57600080fd5b60006110cc8484614bd2565b60008060408385031215614cee57600080fd5b6000614cfa8585614bc7565b9250506020614d0b85828601614bc7565b9150509250929050565b600080600060608486031215614d2a57600080fd5b6000614d368686614bc7565b9350506020614d4786828701614bc7565b9250506040614d5886828701614bf3565b9150509250925092565b60008060408385031215614d7557600080fd5b6000614d818585614bc7565b9250506020614d0b85828601614bf3565b600080600060608486031215614da757600080fd5b6000614db38686614bc7565b9350506020614dc486828701614bf3565b9250506040614d5886828701614bdd565b600060208284031215614de757600080fd5b60006110cc8484614be8565b600080600080600080600080610100898b031215614e1057600080fd5b6000614e1c8b8b614bf3565b9850506020614e2d8b828c01614bf3565b9750506040614e3e8b828c01614bf3565b9650506060614e4f8b828c01614bf3565b9550506080614e608b828c01614bc7565b94505060a0614e718b828c01614bc7565b93505060c0614e828b828c01614bc7565b92505060e089013567ffffffffffffffff811115614e9f57600080fd5b614eab8b828c01614c40565b9150509295985092959890939650565b6000806000806000806000806000806101208b8d031215614edb57600080fd5b6000614ee78d8d614bf3565b9a50506020614ef88d828e01614bf3565b9950506040614f098d828e01614bf3565b9850506060614f1a8d828e01614bf3565b9750506080614f2b8d828e01614bc7565b96505060a0614f3c8d828e01614bc7565b95505060c0614f4d8d828e01614bf3565b94505060e0614f5e8d828e01614bc7565b9350506101008b013567ffffffffffffffff811115614f7c57600080fd5b614f888d828e01614bfe565b92509250509295989b9194979a5092959850565b600080600080600080600080610100898b031215614fb957600080fd5b6000614fc58b8b614bf3565b9850506020614fd68b828c01614bf3565b9750506040614fe78b828c01614bf3565b9650506060614ff88b828c01614bf3565b95505060806150098b828c01614bc7565b94505060a061501a8b828c01614bc7565b93505060c0614e828b828c01614bf3565b60006020828403121561503d57600080fd5b813567ffffffffffffffff81111561505457600080fd5b6110cc84828501614c40565b60006020828403121561507257600080fd5b60006110cc8484614bf3565b60006020828403121561509057600080fd5b60006110cc8484614c94565b6000806000606084860312156150b157600080fd5b6000614d368686614bf3565b600080604083850312156150d057600080fd5b6000614d818585614bf3565b600080604083850312156150ef57600080fd5b60006150fb8585614c94565b9250506020614d0b85828601614c94565b60008060006060848603121561512157600080fd5b600061512d8686614bf3565b935050602061513e86828701614bf3565b9250506040614d5886828701614bc7565b6000806000806080858703121561516557600080fd5b60006151718787614bf3565b945050602061518287828801614bf3565b935050604061519387828801614bf3565b92505060606151a487828801614bc7565b91505092959194509250565b60008060008060008060c087890312156151c957600080fd5b60006151d58989614c94565b96505060206151e689828a01614c94565b95505060406151f789828a01614c94565b945050606061520889828a01614c94565b935050608061521989828a01614c94565b92505060a061522a89828a01614c94565b9150509295509295509295565b60006152438383615301565b505060200190565b61525481616006565b82525050565b61525481615fd7565b61525461526f82615fd7565b61604f565b600061527f82615fca565b6152898185615fce565b935061529483615fc4565b8060005b838110156152c25781516152ac8882615237565b97506152b783615fc4565b925050600101615298565b509495945050505050565b61525481615fe2565b6152546152e282615fe2565b61605a565b61525481610e59565b6152546152fc82610e59565b610e59565b61525481615fe7565b6152546152fc82615fe7565b600061532182615fca565b61532b8185615fce565b935061533b818560208601616023565b6153448161607b565b9093019392505050565b600061535982615fca565b6153638185610d4c565b9350615373818560208601616023565b9290920192915050565b600061538a601483615fce565b733932b2b73a3930b731bc903b34b7b630ba34b7b760611b815260200192915050565b60006153ba600283615fce565b61031360f41b815260200192915050565b60006153d8600283615fce565b61313560f01b815260200192915050565b60006153f6601e83615fce565b7f63616c6c20746f2061206e6f6e2d636f6e747261637420616464726573730000815260200192915050565b600061542f602683615fce565b7f4f776e61626c653a206e6577206f776e657220697320746865207a65726f206181526564647265737360d01b602082015260400192915050565b6000615477601d83615fce565b7f656e7472792070726963652061626f766520746865206d696e696d756d000000815260200192915050565b60006154b0601b83615fce565b7f536166654d6174683a206164646974696f6e206f766572666c6f770000000000815260200192915050565b60006154e9601583610d4c565b746d696e7428616464726573732c75696e743235362960581b815260150192915050565b600061551a602183615fce565b7f5369676e6564536166654d6174683a206164646974696f6e206f766572666c6f8152607760f81b602082015260400192915050565b600061555d600183615fce565b603760f81b815260200192915050565b600061557a601283615fce565b716e6f7420656e6f7567682062616c616e636560701b815260200192915050565b60006155a8600283615fce565b61333760f01b815260200192915050565b60006155c6600283615fce565b610c8d60f21b815260200192915050565b60006155e4601a83610d4c565b7f6275726e28616464726573732c75696e743235362c626f6f6c290000000000008152601a0192915050565b600061561d600283615fce565b61313160f01b815260200192915050565b600061563b602183615fce565b7f5369676e6564536166654d6174683a206469766973696f6e206f766572666c6f8152607760f81b602082015260400192915050565b600061567e600283615fce565b61189960f11b815260200192915050565b600061569c600283615fce565b61323560f01b815260200192915050565b60006156ba600283615fce565b61199960f11b815260200192915050565b60006156d8600283615fce565b61313760f01b815260200192915050565b60006156f6602183615fce565b7f536166654d6174683a206d756c7469706c69636174696f6e206f766572666c6f8152607760f81b602082015260400192915050565b6000615739600c83615fce565b6b1d5b985d5d1a1bdc9a5e995960a21b815260200192915050565b6000615761600283615fce565b61313960f01b815260200192915050565b600061577f600283615fce565b61191b60f11b815260200192915050565b600061579d601583610d4c565b746275726e28616464726573732c75696e743235362960581b815260150192915050565b60006157ce602783615fce565b7f5369676e6564536166654d6174683a206d756c7469706c69636174696f6e206f815266766572666c6f7760c81b602082015260400192915050565b6000615817601383615fce565b721c1c9a5b98da5c185b081d1bdbc81cdb585b1b606a1b815260200192915050565b6000615846601d83615fce565b7f696e76616c6964207261746520636f6c6c61746572616c20746f6b656e000000815260200192915050565b600061587f601a83610d4c565b7f6d696e7428616464726573732c75696e743235362c626f6f6c290000000000008152601a0192915050565b60006158b8600c83615fce565b6b1b9bdb9499595b9d1c985b9d60a21b815260200192915050565b60006158e0602483615fce565b7f5369676e6564536166654d6174683a207375627472616374696f6e206f766572815263666c6f7760e01b602082015260400192915050565b6000615926601883615fce565b7f34303120757365206f66206578697374696e67206c6f616e0000000000000000815260200192915050565b600061595f600183615fce565b601b60f91b815260200192915050565b600061597c602083615fce565b7f5369676e6564536166654d6174683a206469766973696f6e206279207a65726f815260200192915050565b805160808301906159b9848261525a565b5060208201516159cc602085018261525a565b5060408201516159df604085018261525a565b506060820151613e41606085018261525a565b8051610120830190615a0484826152e7565b506020820151615a1760208501826152e7565b506040820151615a2a60408501826152e7565b506060820151615a3d60608501826152e7565b506080820151615a5060808501826152e7565b5060a0820151615a6360a08501826152e7565b5060c0820151615a7660c08501826152e7565b5060e0820151615a8960e08501826152e7565b50610100820151613e416101008501826152e7565b61525481616000565b6000615ab38285615263565b601482019150615ac382846152d6565b5060010192915050565b6000615ad98285615263565b601482019150615ae982846152f0565b5060200192915050565b6000615aff828561530a565b600482019150615ae982846152f0565b6000610c4f828461534e565b6000610e41826154dc565b6000610e41826155d7565b6000610e4182615790565b6000610e4182615872565b60208101610e41828461525a565b60208101610e41828461524b565b60408101615b71828561525a565b610c4f602083018461525a565b60408101615b8c828561525a565b610c4f602083018461524b565b60608101615ba7828661525a565b615bb4602083018561525a565b6110cc60408301846152e7565b60a08101615bcf828861525a565b615bdc602083018761525a565b615be960408301866152e7565b615bf660608301856152e7565b61432d60808301846152cd565b60c08101615c11828961525a565b615c1e602083018861525a565b615c2b60408301876152e7565b615c3860608301866152e7565b615c4560808301856152e7565b615c5260a08301846152e7565b979650505050505050565b60408101615c6b828561525a565b610c4f60208301846152e7565b60608101615c86828661525a565b615c9360208301856152e7565b6110cc604083018461524b565b60408082528101615cb18185615274565b9050610c4f60208301846152e7565b60208101610e4182846152cd565b60208101610e4182846152e7565b6102408101615ceb828a6152e7565b615cf860208301896152e7565b615d0560408301886152cd565b615d1260608301876152e7565b615d1f60808301866159a8565b615d2d6101008301856159f2565b818103610220830152615d408184615316565b9998505050505050505050565b60208082528101610c4f8184615316565b60208082528101610e418161537d565b60208082528101610e41816153ad565b60208082528101610e41816153cb565b60208082528101610e41816153e9565b60208082528101610e4181615422565b60208082528101610e418161546a565b60208082528101610e41816154a3565b60208082528101610e418161550d565b60208082528101610e4181615550565b60208082528101610e418161556d565b60208082528101610e418161559b565b60208082528101610e41816155b9565b60208082528101610e4181615610565b60208082528101610e418161562e565b60208082528101610e4181615671565b60208082528101610e418161568f565b60208082528101610e41816156ad565b60208082528101610e41816156cb565b60208082528101610e41816156e9565b60208082528101610e418161572c565b60208082528101610e4181615754565b60208082528101610e4181615772565b60208082528101610e41816157c1565b60208082528101610e418161580a565b60208082528101610e4181615839565b60208082528101610e41816158ab565b60208082528101610e41816158d3565b60208082528101610e4181615919565b60208082528101610e4181615952565b60208082528101610e418161596f565b60408101615c6b82856152e7565b60608101615f5a82866152e7565b615bb460208301856152e7565b60208101610e418284615a9e565b60405181810167ffffffffffffffff81118282101715615f9457600080fd5b604052919050565b600067ffffffffffffffff821115615fb357600080fd5b506020601f91909101601f19160190565b60200190565b5190565b90815260200190565b6000610e4182615ff4565b151590565b6001600160e01b03191690565b6001600160a01b031690565b60ff1690565b6000610e41826000610e4182615fd7565b82818337506000910152565b60005b8381101561603e578181015183820152602001616026565b83811115613e415750506000910152565b6000610e4182616065565b6000610e4182616070565b6000610e418261608b565b6000610e4182616085565b601f01601f191690565b60f81b90565b60601b90565b61609a81615fd7565b8114612cc757600080fd5b61609a81615fe2565b61609a81610e5956fea365627a7a723158208f3c71ade9f7a692dbaffa24175ae76ef60bbb1e0ab6d3b8a0272de39e54c6c66c6578706572696d656e74616cf564736f6c63430005110040",
    "linkReferences": {}
  },
  "methodIdentifiers": {
    "TINY_AMOUNT()": "f8dd4f0e",
    "VERSION()": "ffa1ad74",
    "admin()": "f851a440",
    "allowance(address,address)": "dd62ed3e",
    "approve(address,uint256)": "095ea7b3",
    "assetBalanceOf(address)": "06b3efd6",
    "avgBorrowInterestRate()": "44a4a003",
    "balanceOf(address)": "70a08231",
    "baseRate()": "1f68f20a",
    "borrow(bytes32,uint256,uint256,uint256,address,address,address,bytes)": "2ea295fa",
    "borrowInterestRate()": "8325a1c0",
    "burn(address,uint256)": "9dc29fac",
    "burn(address,uint256,bool)": "76fd4fdf",
    "calculateSupplyInterestRate(uint256,uint256)": "6d23d1ac",
    "checkPriceDivergence(uint256,address,uint256)": "10e57644",
    "checkpointPrice(address)": "eebc5081",
    "checkpointSupply()": "7b7933b4",
    "decimals()": "313ce567",
    "earlyAccessToken()": "ca37e666",
    "getBorrowAmountForDeposit(uint256,uint256,address)": "04797930",
    "getDepositAmountForBorrow(uint256,uint256,address)": "631a3ef8",
    "getEstimatedMarginDetails(uint256,uint256,uint256,address)": "6b40cd40",
    "getListFunctionSignatures()": "90967de5",
    "getMarginBorrowAmountAndRate(uint256,uint256)": "8d875e3c",
    "getMaxEscrowAmount(uint256)": "829b38f4",
    "initialPrice()": "1d0806ae",
    "isOwner()": "8f32d59b",
    "kinkLevel()": "56e07d70",
    "liquidityMiningAddress()": "8ee6c4e6",
    "loanParamsIds(uint256)": "3291c11a",
    "loanTokenAddress()": "797bf385",
    "lowUtilBaseRate()": "d759dbeb",
    "lowUtilRateMultiplier()": "7e37c08c",
    "marginTrade(bytes32,uint256,uint256,uint256,address,address,uint256,bytes)": "28a02f19",
    "marginTradeAffiliate(bytes32,uint256,uint256,uint256,address,address,uint256,address,bytes)": "f6b69f99",
    "marketLiquidity()": "612ef80b",
    "maxScaleRate()": "ef2b0b39",
    "mint(address,uint256)": "40c10f19",
    "mint(address,uint256,bool)": "d1a1beb4",
    "name()": "06fdde03",
    "nextBorrowInterestRate(uint256)": "b9fe1a8f",
    "nextSupplyInterestRate(uint256)": "d65a5021",
    "owner()": "8da5cb5b",
    "pauser()": "9fd0506d",
    "profitOf(address)": "54198ce9",
    "rateMultiplier()": "330691ac",
    "setAffiliatesReferrer(address,address)": "c9ddf448",
    "setUserNotFirstTradeFlag(address)": "f06a9c6b",
    "sovrynContractAddress()": "06947a3a",
    "stringToBytes32(string)": "cfb51928",
    "supplyInterestRate()": "09ec6b6b",
    "symbol()": "95d89b41",
    "targetLevel()": "ba0e43bf",
    "target_()": "9bda3a98",
    "tokenPrice()": "7ff9b596",
    "totalAssetBorrow()": "20f6d07c",
    "totalAssetSupply()": "8fb807c5",
    "totalSupply()": "18160ddd",
    "totalSupplyInterestRate(uint256)": "12416898",
    "transactionLimit(address)": "e41b07e3",
    "transfer(address,uint256)": "a9059cbb",
    "transferFrom(address,address,uint256)": "23b872dd",
    "transferOwnership(address)": "f2fde38b",
    "wrbtcTokenAddress()": "2f6b600d"
  },
  "id": 142
}