{
  "abi": [
    {
      "anonymous": false,
      "inputs": [
        {
          "indexed": false,
          "internalType": "address",
          "name": "admin",
          "type": "address"
        }
      ],
      "name": "AdminAdded",
      "type": "event"
    },
    {
      "anonymous": false,
      "inputs": [
        {
          "indexed": false,
          "internalType": "address",
          "name": "admin",
          "type": "address"
        }
      ],
      "name": "AdminRemoved",
      "type": "event"
    },
    {
      "anonymous": false,
      "inputs": [
        {
          "indexed": true,
          "internalType": "address",
          "name": "previousOwner",
          "type": "address"
        },
        {
          "indexed": true,
          "internalType": "address",
          "name": "newOwner",
          "type": "address"
        }
      ],
      "name": "OwnershipTransferred",
      "type": "event"
    },
    {
      "constant": true,
      "inputs": [],
      "name": "SOV",
      "outputs": [
        {
          "internalType": "contract IERC20",
          "name": "",
          "type": "address"
        }
      ],
      "payable": false,
      "stateMutability": "view",
      "type": "function"
    },
    {
      "constant": false,
      "inputs": [
        {
          "internalType": "address",
          "name": "_admin",
          "type": "address"
        }
      ],
      "name": "addAdmin",
      "outputs": [],
      "payable": false,
      "stateMutability": "nonpayable",
      "type": "function"
    },
    {
      "constant": true,
      "inputs": [
        {
          "internalType": "address",
          "name": "",
          "type": "address"
        }
      ],
      "name": "admins",
      "outputs": [
        {
          "internalType": "bool",
          "name": "",
          "type": "bool"
        }
      ],
      "payable": false,
      "stateMutability": "view",
      "type": "function"
    },
    {
      "constant": true,
      "inputs": [],
      "name": "bonusEndBlock",
      "outputs": [
        {
          "internalType": "uint256",
          "name": "",
          "type": "uint256"
        }
      ],
      "payable": false,
      "stateMutability": "view",
      "type": "function"
    },
    {
      "constant": true,
      "inputs": [],
      "name": "endBlock",
      "outputs": [
        {
          "internalType": "uint256",
          "name": "",
          "type": "uint256"
        }
      ],
      "payable": false,
      "stateMutability": "view",
      "type": "function"
    },
    {
      "constant": true,
      "inputs": [],
      "name": "isOwner",
      "outputs": [
        {
          "internalType": "bool",
          "name": "",
          "type": "bool"
        }
      ],
      "payable": false,
      "stateMutability": "view",
      "type": "function"
    },
    {
      "constant": true,
      "inputs": [],
      "name": "lockedSOV",
      "outputs": [
        {
          "internalType": "contract ILockedSOV",
          "name": "",
          "type": "address"
        }
      ],
      "payable": false,
      "stateMutability": "view",
      "type": "function"
    },
    {
      "constant": true,
      "inputs": [],
      "name": "owner",
      "outputs": [
        {
          "internalType": "address",
          "name": "",
          "type": "address"
        }
      ],
      "payable": false,
      "stateMutability": "view",
      "type": "function"
    },
    {
      "constant": true,
      "inputs": [
        {
          "internalType": "uint256",
          "name": "",
          "type": "uint256"
        }
      ],
      "name": "poolInfoList",
      "outputs": [
        {
          "internalType": "contract IERC20",
          "name": "poolToken",
          "type": "address"
        },
        {
          "internalType": "uint96",
          "name": "allocationPoint",
          "type": "uint96"
        },
        {
          "internalType": "uint256",
          "name": "lastRewardBlock",
          "type": "uint256"
        },
        {
          "internalType": "uint256",
          "name": "accumulatedRewardPerShare",
          "type": "uint256"
        }
      ],
      "payable": false,
      "stateMutability": "view",
      "type": "function"
    },
    {
      "constant": true,
      "inputs": [
        {
          "internalType": "address",
          "name": "",
          "type": "address"
        }
      ],
      "name": "poolTokensUnlockedImmediatelyPercent",
      "outputs": [
        {
          "internalType": "uint256",
          "name": "",
          "type": "uint256"
        }
      ],
      "payable": false,
      "stateMutability": "view",
      "type": "function"
    },
    {
      "constant": false,
      "inputs": [
        {
          "internalType": "address",
          "name": "_admin",
          "type": "address"
        }
      ],
      "name": "removeAdmin",
      "outputs": [],
      "payable": false,
      "stateMutability": "nonpayable",
      "type": "function"
    },
    {
      "constant": true,
      "inputs": [],
      "name": "rewardTokensPerBlock",
      "outputs": [
        {
          "internalType": "uint256",
          "name": "",
          "type": "uint256"
        }
      ],
      "payable": false,
      "stateMutability": "view",
      "type": "function"
    },
    {
      "constant": true,
      "inputs": [],
      "name": "startBlock",
      "outputs": [
        {
          "internalType": "uint256",
          "name": "",
          "type": "uint256"
        }
      ],
      "payable": false,
      "stateMutability": "view",
      "type": "function"
    },
    {
      "constant": true,
      "inputs": [],
      "name": "totalAllocationPoint",
      "outputs": [
        {
          "internalType": "uint256",
          "name": "",
          "type": "uint256"
        }
      ],
      "payable": false,
      "stateMutability": "view",
      "type": "function"
    },
    {
      "constant": true,
      "inputs": [],
      "name": "totalUsersBalance",
      "outputs": [
        {
          "internalType": "uint256",
          "name": "",
          "type": "uint256"
        }
      ],
      "payable": false,
      "stateMutability": "view",
      "type": "function"
    },
    {
      "constant": false,
      "inputs": [
        {
          "internalType": "address",
          "name": "newOwner",
          "type": "address"
        }
      ],
      "name": "transferOwnership",
      "outputs": [],
      "payable": false,
      "stateMutability": "nonpayable",
      "type": "function"
    },
    {
      "constant": true,
      "inputs": [],
      "name": "unlockedImmediatelyPercent",
      "outputs": [
        {
          "internalType": "uint256",
          "name": "",
          "type": "uint256"
        }
      ],
      "payable": false,
      "stateMutability": "view",
      "type": "function"
    },
    {
      "constant": true,
      "inputs": [
        {
          "internalType": "uint256",
          "name": "",
          "type": "uint256"
        },
        {
          "internalType": "address",
          "name": "",
          "type": "address"
        }
      ],
      "name": "userInfoMap",
      "outputs": [
        {
          "internalType": "uint256",
          "name": "amount",
          "type": "uint256"
        },
        {
          "internalType": "uint256",
          "name": "rewardDebt",
          "type": "uint256"
        },
        {
          "internalType": "uint256",
          "name": "accumulatedReward",
          "type": "uint256"
        }
      ],
      "payable": false,
      "stateMutability": "view",
      "type": "function"
    },
    {
      "constant": true,
      "inputs": [],
      "name": "wrapper",
      "outputs": [
        {
          "internalType": "address",
          "name": "",
          "type": "address"
        }
      ],
      "payable": false,
      "stateMutability": "view",
      "type": "function"
    }
  ],
  "bytecode": {
    "object": "0x608060405260006100176001600160e01b0361006616565b600080546001600160a01b0319166001600160a01b0383169081178255604051929350917f8be0079c531659141344cd1fd0a4f28419497f9722a3daafe3b4186f6b6457e0908290a35061006a565b3390565b6106f1806100796000396000f3fe608060405234801561001057600080fd5b50600436106101215760003560e01c806370480275116100ad578063a1a6690f11610071578063a1a6690f146102e6578063ac210cc7146102ee578063f2f46b3b146102f6578063f2fde38b146102fe578063f729a4041461032457610121565b8063704802751461024e578063787b4026146102745780638da5cb5b146102ce5780638f32d59b146102d65780639a13ba29146102de57610121565b80631fc3f004116100f45780631fc3f0041461019457806329d0fa3e146101ba578063429b62e5146101c257806348cd4cb1146101fc5780635f02c1451461020457610121565b8063083c63231461012657806308dcb360146101405780631785f53c146101645780631aed65531461018c575b600080fd5b61012e61032c565b60408051918252519081900360200190f35b610148610332565b604080516001600160a01b039092168252519081900360200190f35b61018a6004803603602081101561017a57600080fd5b50356001600160a01b0316610341565b005b61012e6103e1565b61012e600480360360208110156101aa57600080fd5b50356001600160a01b03166103e7565b61012e6103f9565b6101e8600480360360208110156101d857600080fd5b50356001600160a01b03166103ff565b604080519115158252519081900360200190f35b61012e610414565b6102306004803603604081101561021a57600080fd5b50803590602001356001600160a01b031661041a565b60408051938452602084019290925282820152519081900360600190f35b61018a6004803603602081101561026457600080fd5b50356001600160a01b0316610446565b6102916004803603602081101561028a57600080fd5b50356104ea565b604080516001600160a01b0390951685526bffffffffffffffffffffffff9093166020850152838301919091526060830152519081900360800190f35b61014861053b565b6101e861054a565b61012e61056e565b61012e610574565b61014861057a565b610148610589565b61018a6004803603602081101561031457600080fd5b50356001600160a01b0316610598565b61012e6105ec565b60055481565b600c546001600160a01b031681565b61034961054a565b610389576040805162461bcd60e51b815260206004820152600c60248201526b1d5b985d5d1a1bdc9a5e995960a21b604482015290519081900360640190fd5b6001600160a01b038116600081815260016020908152604091829020805460ff19169055815192835290517fa3b62bc36326052d97ea62d63c3d60308ed4c3ea8ac079dd8499f1e9c4f80c0f9281900390910190a150565b60045481565b600f6020526000908152604090205481565b60025481565b60016020526000908152604090205460ff1681565b60035481565b600a60209081526000928352604080842090915290825290208054600182015460029092015490919083565b61044e61054a565b61048e576040805162461bcd60e51b815260206004820152600c60248201526b1d5b985d5d1a1bdc9a5e995960a21b604482015290519081900360640190fd5b6001600160a01b038116600081815260016020818152604092839020805460ff1916909217909155815192835290517f44d6d25963f097ad14f29f06854a01f575648a1ef82f30e562ccd3889717e3399281900390910190a150565b600781815481106104f757fe5b60009182526020909120600390910201805460018201546002909201546001600160a01b0382169350600160a01b9091046bffffffffffffffffffffffff16919084565b6000546001600160a01b031690565b600080546001600160a01b031661055f6105f2565b6001600160a01b031614905090565b600b5481565b60095481565b6006546001600160a01b031681565b600d546001600160a01b031681565b6105a061054a565b6105e0576040805162461bcd60e51b815260206004820152600c60248201526b1d5b985d5d1a1bdc9a5e995960a21b604482015290519081900360640190fd5b6105e9816105f6565b50565b600e5481565b3390565b6001600160a01b03811661063b5760405162461bcd60e51b81526004018080602001828103825260268152602001806106976026913960400191505060405180910390fd5b600080546040516001600160a01b03808516939216917f8be0079c531659141344cd1fd0a4f28419497f9722a3daafe3b4186f6b6457e091a3600080546001600160a01b0319166001600160a01b039290921691909117905556fe4f776e61626c653a206e6577206f776e657220697320746865207a65726f2061646472657373a265627a7a723158206e4376fa85adaf63aafa5f54f16661914201926a8f721c6522d6d3a9e25d0c2164736f6c63430005110032",
    "linkReferences": {}
  },
  "methodIdentifiers": {
    "SOV()": "08dcb360",
    "addAdmin(address)": "70480275",
    "admins(address)": "429b62e5",
    "bonusEndBlock()": "1aed6553",
    "endBlock()": "083c6323",
    "isOwner()": "8f32d59b",
    "lockedSOV()": "f2f46b3b",
    "owner()": "8da5cb5b",
    "poolInfoList(uint256)": "787b4026",
    "poolTokensUnlockedImmediatelyPercent(address)": "1fc3f004",
    "removeAdmin(address)": "1785f53c",
    "rewardTokensPerBlock()": "29d0fa3e",
    "startBlock()": "48cd4cb1",
    "totalAllocationPoint()": "a1a6690f",
    "totalUsersBalance()": "9a13ba29",
    "transferOwnership(address)": "f2fde38b",
    "unlockedImmediatelyPercent()": "f729a404",
    "userInfoMap(uint256,address)": "5f02c145",
    "wrapper()": "ac210cc7"
  },
  "id": 39
}