{
  "abi": [
    {
      "inputs": [
        {
          "internalType": "address",
          "name": "_logic",
          "type": "address"
        },
        {
          "internalType": "address",
          "name": "_SOV",
          "type": "address"
        },
        {
          "internalType": "address",
          "name": "_stakingAddress",
          "type": "address"
        },
        {
          "internalType": "address",
          "name": "_tokenOwner",
          "type": "address"
        },
        {
          "internalType": "uint256",
          "name": "_cliff",
          "type": "uint256"
        },
        {
          "internalType": "uint256",
          "name": "_duration",
          "type": "uint256"
        },
        {
          "internalType": "address",
          "name": "_feeSharingCollectorProxy",
          "type": "address"
        }
      ],
      "payable": false,
      "stateMutability": "nonpayable",
      "type": "constructor"
    },
    {
      "anonymous": false,
      "inputs": [
        {
          "indexed": true,
          "internalType": "address",
          "name": "_oldImplementation",
          "type": "address"
        },
        {
          "indexed": true,
          "internalType": "address",
          "name": "_newImplementation",
          "type": "address"
        }
      ],
      "name": "ImplementationChanged",
      "type": "event"
    },
    {
      "anonymous": false,
      "inputs": [
        {
          "indexed": true,
          "internalType": "address",
          "name": "_oldOwner",
          "type": "address"
        },
        {
          "indexed": true,
          "internalType": "address",
          "name": "_newOwner",
          "type": "address"
        }
      ],
      "name": "OwnershipTransferred",
      "type": "event"
    },
    {
      "payable": true,
      "stateMutability": "payable",
      "type": "fallback"
    },
    {
      "constant": true,
      "inputs": [],
      "name": "SOV",
      "outputs": [
        {
          "internalType": "contract IERC20",
          "name": "",
          "type": "address"
        }
      ],
      "payable": false,
      "stateMutability": "view",
      "type": "function"
    },
    {
      "constant": true,
      "inputs": [],
      "name": "cliff",
      "outputs": [
        {
          "internalType": "uint256",
          "name": "",
          "type": "uint256"
        }
      ],
      "payable": false,
      "stateMutability": "view",
      "type": "function"
    },
    {
      "constant": true,
      "inputs": [],
      "name": "duration",
      "outputs": [
        {
          "internalType": "uint256",
          "name": "",
          "type": "uint256"
        }
      ],
      "payable": false,
      "stateMutability": "view",
      "type": "function"
    },
    {
      "constant": true,
      "inputs": [],
      "name": "endDate",
      "outputs": [
        {
          "internalType": "uint256",
          "name": "",
          "type": "uint256"
        }
      ],
      "payable": false,
      "stateMutability": "view",
      "type": "function"
    },
    {
      "constant": true,
      "inputs": [],
      "name": "feeSharingCollector",
      "outputs": [
        {
          "internalType": "contract IFeeSharingCollector",
          "name": "",
          "type": "address"
        }
      ],
      "payable": false,
      "stateMutability": "view",
      "type": "function"
    },
    {
      "constant": true,
      "inputs": [],
      "name": "getImplementation",
      "outputs": [
        {
          "internalType": "address",
          "name": "_implementation",
          "type": "address"
        }
      ],
      "payable": false,
      "stateMutability": "view",
      "type": "function"
    },
    {
      "constant": true,
      "inputs": [],
      "name": "getProxyOwner",
      "outputs": [
        {
          "internalType": "address",
          "name": "_owner",
          "type": "address"
        }
      ],
      "payable": false,
      "stateMutability": "view",
      "type": "function"
    },
    {
      "constant": false,
      "inputs": [
        {
          "internalType": "address",
          "name": "receiver",
          "type": "address"
        }
      ],
      "name": "governanceWithdrawTokens",
      "outputs": [],
      "payable": false,
      "stateMutability": "nonpayable",
      "type": "function"
    },
    {
      "constant": true,
      "inputs": [],
      "name": "isOwner",
      "outputs": [
        {
          "internalType": "bool",
          "name": "",
          "type": "bool"
        }
      ],
      "payable": false,
      "stateMutability": "view",
      "type": "function"
    },
    {
      "constant": true,
      "inputs": [],
      "name": "owner",
      "outputs": [
        {
          "internalType": "address",
          "name": "",
          "type": "address"
        }
      ],
      "payable": false,
      "stateMutability": "view",
      "type": "function"
    },
    {
      "constant": true,
      "inputs": [],
      "name": "staking",
      "outputs": [
        {
          "internalType": "contract IStaking",
          "name": "",
          "type": "address"
        }
      ],
      "payable": false,
      "stateMutability": "view",
      "type": "function"
    },
    {
      "constant": true,
      "inputs": [],
      "name": "startDate",
      "outputs": [
        {
          "internalType": "uint256",
          "name": "",
          "type": "uint256"
        }
      ],
      "payable": false,
      "stateMutability": "view",
      "type": "function"
    },
    {
      "constant": true,
      "inputs": [],
      "name": "tokenOwner",
      "outputs": [
        {
          "internalType": "address",
          "name": "",
          "type": "address"
        }
      ],
      "payable": false,
      "stateMutability": "view",
      "type": "function"
    },
    {
      "constant": false,
      "inputs": [
        {
          "internalType": "address",
          "name": "newOwner",
          "type": "address"
        }
      ],
      "name": "transferOwnership",
      "outputs": [],
      "payable": false,
      "stateMutability": "nonpayable",
      "type": "function"
    }
  ],
  "bytecode": {
    "object": "0x60806040523480156200001157600080fd5b5060405162000f7f38038062000f7f8339810160408190526200003491620003fd565b868686868686866000620000506001600160e01b036200029216565b600080546001600160a01b0319166001600160a01b03831690811782556040519293509160008051602062000f5f833981519152908290a3506200009d336001600160e01b036200029616565b6001600160a01b038616620000cf5760405162461bcd60e51b8152600401620000c690620007f6565b60405180910390fd5b6001600160a01b038516620000f85760405162461bcd60e51b8152600401620000c690620007e4565b6001600160a01b038416620001215760405162461bcd60e51b8152600401620000c6906200079c565b82821015620001445760405162461bcd60e51b8152600401620000c6906200078a565b6001600160a01b0381166200016d5760405162461bcd60e51b8152600401620000c690620007c0565b62000181876001600160e01b036200032016565b600180546001600160a01b038089166001600160a01b0319928316179092556002805488841692169190911790819055604080516358b925a360e11b81529051919092169163b1724b46916004808301926020929190829003018186803b158015620001ec57600080fd5b505afa15801562000201573d6000803e3d6000fd5b505050506040513d601f19601f82011682018060405250620002279190810190620004a8565b821115620002495760405162461bcd60e51b8152600401620000c69062000778565b600380546001600160a01b039586166001600160a01b03199182161790915560059390935560069190915560048054919093169116179055506200085098505050505050505050565b3390565b6001600160a01b038116620002bf5760405162461bcd60e51b8152600401620000c690620007d2565b6001600160a01b038116620002dc6001600160e01b03620003ab16565b6001600160a01b031660008051602062000f5f83398151915260405160405180910390a3600060405162000310906200076b565b6040519081900390209190915550565b6001600160a01b038116620003495760405162461bcd60e51b8152600401620000c690620007ae565b6001600160a01b038116620003666001600160e01b03620003cc16565b6001600160a01b03167fcfbf4028add9318bbf716f08c348595afb063b0e9feed1f86d33681a4b3ed4d360405160405180910390a3600060405162000310906200075e565b600080604051620003bc906200076b565b6040519081900390205492915050565b600080604051620003bc906200075e565b8051620003ea816200082b565b92915050565b8051620003ea8162000845565b600080600080600080600060e0888a0312156200041957600080fd5b6000620004278a8a620003dd565b97505060206200043a8a828b01620003dd565b96505060406200044d8a828b01620003dd565b9550506060620004608a828b01620003dd565b9450506080620004738a828b01620003f0565b93505060a0620004868a828b01620003f0565b92505060c0620004998a828b01620003dd565b91505092959891949750929550565b600060208284031215620004bb57600080fd5b6000620004c98484620003f0565b949350505050565b6000620004e060288362000808565b7f6475726174696f6e206d6179206e6f742065786365656420746865206d617820815267323ab930ba34b7b760c11b602082015260400192915050565b60006200052c60328362000808565b7f6475726174696f6e206d75737420626520626967676572207468616e206f722081527132b8bab0b6103a37903a34329031b634b33360711b602082015260400192915050565b600062000582601b8362000808565b7f746f6b656e206f776e6572206164647265737320696e76616c69640000000000815260200192915050565b6000620005bd60298362000808565b7f50726f78793a3a736574496d706c656d656e746174696f6e3a20696e76616c6981526864206164647265737360b81b602082015260400192915050565b60006200060a60128362000811565b7135b2bc9734b6b83632b6b2b73a30ba34b7b760711b815260120192915050565b60006200063a60238362000808565b7f66656553686172696e67436f6c6c6563746f72206164647265737320696e76618152621b1a5960ea1b602082015260400192915050565b600062000681600f8362000811565b6e35b2bc97383937bc3c9737bbb732b960891b8152600f0192915050565b6000620006ae60258362000808565b7f50726f78793a3a73657450726f78794f776e65723a20696e76616c6964206164815264647265737360d81b602082015260400192915050565b6000620006f760178362000808565b7f7374616b696e67206164647265737320696e76616c6964000000000000000000815260200192915050565b60006200073260138362000808565b7f534f56206164647265737320696e76616c696400000000000000000000000000815260200192915050565b6000620003ea82620005fb565b6000620003ea8262000672565b60208082528101620003ea81620004d1565b60208082528101620003ea816200051d565b60208082528101620003ea8162000573565b60208082528101620003ea81620005ae565b60208082528101620003ea816200062b565b60208082528101620003ea816200069f565b60208082528101620003ea81620006e8565b60208082528101620003ea8162000723565b90815260200190565b919050565b60006001600160a01b038216620003ea565b90565b620008368162000816565b81146200084257600080fd5b50565b620008368162000828565b6106ff80620008606000396000f3fe6080604052600436106100dd5760003560e01c806378f24bc61161007f578063a3e6761011610059578063a3e6761014610259578063aaf10f421461026e578063c24a0f8b14610283578063f2fde38b14610298576100dd565b806378f24bc6146102005780638da5cb5b146102225780638f32d59b14610237576100dd565b806313d033c0116100bb57806313d033c01461019f5780631ab7710d146101b45780634cf088d9146101d65780636b7dbb2d146101eb576100dd565b806308dcb3601461013d5780630b97bc86146101685780630fb5a6b41461018a575b60006100e76102b8565b90506001600160a01b0381166101185760405162461bcd60e51b815260040161010f90610652565b60405180910390fd5b60405136600082376000803683855af43d806000843e818015610139578184f35b8184fd5b34801561014957600080fd5b506101526102d7565b60405161015f9190610614565b60405180910390f35b34801561017457600080fd5b5061017d6102e6565b60405161015f9190610662565b34801561019657600080fd5b5061017d6102ec565b3480156101ab57600080fd5b5061017d6102f2565b3480156101c057600080fd5b506101c96102f8565b60405161015f91906105f8565b3480156101e257600080fd5b50610152610307565b3480156101f757600080fd5b50610152610316565b34801561020c57600080fd5b5061022061021b36600461044b565b610325565b005b34801561022e57600080fd5b506101c961033d565b34801561024357600080fd5b5061024c61034c565b60405161015f9190610606565b34801561026557600080fd5b506101c9610370565b34801561027a57600080fd5b506101c96102b8565b34801561028f57600080fd5b5061017d61037f565b3480156102a457600080fd5b506102206102b336600461044b565b610385565b6000806040516102c7906105e2565b6040519081900390205492915050565b6001546001600160a01b031681565b60075481565b60065481565b60055481565b6000806040516102c7906105ed565b6002546001600160a01b031681565b6004546001600160a01b031681565b60405162461bcd60e51b815260040161010f90610642565b6000546001600160a01b031690565b600080546001600160a01b03166103616103b5565b6001600160a01b031614905090565b6003546001600160a01b031681565b60085481565b61038d61034c565b6103a95760405162461bcd60e51b815260040161010f90610632565b6103b2816103b9565b50565b3390565b6001600160a01b0381166103df5760405162461bcd60e51b815260040161010f90610622565b600080546040516001600160a01b03808516939216917f8be0079c531659141344cd1fd0a4f28419497f9722a3daafe3b4186f6b6457e091a3600080546001600160a01b0319166001600160a01b0392909216919091179055565b8035610445816106a8565b92915050565b60006020828403121561045d57600080fd5b6000610469848461043a565b949350505050565b61047a8161067e565b82525050565b61047a81610689565b61047a8161069d565b600061049f602683610670565b7f4f776e61626c653a206e6577206f776e657220697320746865207a65726f206181526564647265737360d01b602082015260400192915050565b60006104e7600c83610670565b6b1d5b985d5d1a1bdc9a5e995960a21b815260200192915050565b600061050f601283610679565b7135b2bc9734b6b83632b6b2b73a30ba34b7b760711b815260120192915050565b600061053d600f83610679565b6e35b2bc97383937bc3c9737bbb732b960891b8152600f0192915050565b6000610568601783610670565b7f6f7065726174696f6e206e6f7420737570706f72746564000000000000000000815260200192915050565b60006105a1602383610670565b7f50726f78793a3a28293a20696d706c656d656e746174696f6e206e6f7420666f8152621d5b9960ea1b602082015260400192915050565b61047a8161069a565b600061044582610502565b600061044582610530565b602081016104458284610471565b602081016104458284610480565b602081016104458284610489565b6020808252810161044581610492565b60208082528101610445816104da565b602080825281016104458161055b565b6020808252810161044581610594565b6020810161044582846105d9565b90815260200190565b919050565b60006104458261068e565b151590565b6001600160a01b031690565b90565b60006104458261067e565b6106b18161067e565b81146103b257600080fdfea365627a7a723158203b9022cc93e19b3ba4265a6d9e9d46a99dd360b7bbc8f4ce8769979179e8dc476c6578706572696d656e74616cf564736f6c634300051100408be0079c531659141344cd1fd0a4f28419497f9722a3daafe3b4186f6b6457e0",
    "linkReferences": {}
  },
  "methodIdentifiers": {
    "SOV()": "08dcb360",
    "cliff()": "13d033c0",
    "duration()": "0fb5a6b4",
    "endDate()": "c24a0f8b",
    "feeSharingCollector()": "6b7dbb2d",
    "getImplementation()": "aaf10f42",
    "getProxyOwner()": "1ab7710d",
    "governanceWithdrawTokens(address)": "78f24bc6",
    "isOwner()": "8f32d59b",
    "owner()": "8da5cb5b",
    "staking()": "4cf088d9",
    "startDate()": "0b97bc86",
    "tokenOwner()": "a3e67610",
    "transferOwnership(address)": "f2fde38b"
  },
  "id": 87
}