{
  "_format": "hh-sol-artifact-1",
  "contractName": "Oracle",
  "sourceName": "solidity/contracts/utility/Oracle.sol",
  "abi": [
    {
      "constant": false,
      "inputs": [
        {
          "name": "_newLiquidityPool",
          "type": "address"
        }
      ],
      "name": "setLiquidityPool",
      "outputs": [],
      "payable": false,
      "stateMutability": "nonpayable",
      "type": "function"
    },
    {
      "constant": true,
      "inputs": [],
      "name": "lastCumulativePrice0",
      "outputs": [
        {
          "name": "",
          "type": "uint256"
        }
      ],
      "payable": false,
      "stateMutability": "view",
      "type": "function"
    },
    {
      "constant": true,
      "inputs": [],
      "name": "lastCumulativePrice1",
      "outputs": [
        {
          "name": "",
          "type": "uint256"
        }
      ],
      "payable": false,
      "stateMutability": "view",
      "type": "function"
    },
    {
      "constant": true,
      "inputs": [],
      "name": "latestAnswer",
      "outputs": [
        {
          "name": "answer",
          "type": "uint256"
        }
      ],
      "payable": false,
      "stateMutability": "view",
      "type": "function"
    },
    {
      "constant": true,
      "inputs": [
        {
          "name": "_baseToken",
          "type": "address"
        }
      ],
      "name": "latestPrice",
      "outputs": [
        {
          "name": "answer",
          "type": "uint256"
        }
      ],
      "payable": false,
      "stateMutability": "view",
      "type": "function"
    },
    {
      "constant": true,
      "inputs": [],
      "name": "read",
      "outputs": [
        {
          "name": "",
          "type": "uint256"
        },
        {
          "name": "",
          "type": "uint256"
        },
        {
          "name": "",
          "type": "uint256"
        },
        {
          "name": "",
          "type": "uint256"
        },
        {
          "name": "",
          "type": "uint256"
        },
        {
          "name": "",
          "type": "uint256"
        }
      ],
      "payable": false,
      "stateMutability": "view",
      "type": "function"
    },
    {
      "constant": true,
      "inputs": [],
      "name": "blockNumber",
      "outputs": [
        {
          "name": "",
          "type": "uint256"
        }
      ],
      "payable": false,
      "stateMutability": "view",
      "type": "function"
    },
    {
      "constant": true,
      "inputs": [],
      "name": "liquidityPool",
      "outputs": [
        {
          "name": "",
          "type": "address"
        }
      ],
      "payable": false,
      "stateMutability": "view",
      "type": "function"
    },
    {
      "constant": false,
      "inputs": [
        {
          "name": "_k",
          "type": "uint256"
        }
      ],
      "name": "setK",
      "outputs": [],
      "payable": false,
      "stateMutability": "nonpayable",
      "type": "function"
    },
    {
      "constant": false,
      "inputs": [],
      "name": "acceptOwnership",
      "outputs": [],
      "payable": false,
      "stateMutability": "nonpayable",
      "type": "function"
    },
    {
      "constant": true,
      "inputs": [],
      "name": "owner",
      "outputs": [
        {
          "name": "",
          "type": "address"
        }
      ],
      "payable": false,
      "stateMutability": "view",
      "type": "function"
    },
    {
      "constant": true,
      "inputs": [],
      "name": "ema1",
      "outputs": [
        {
          "name": "",
          "type": "uint256"
        }
      ],
      "payable": false,
      "stateMutability": "view",
      "type": "function"
    },
    {
      "constant": false,
      "inputs": [
        {
          "name": "_price0",
          "type": "uint256"
        },
        {
          "name": "_price1",
          "type": "uint256"
        }
      ],
      "name": "write",
      "outputs": [],
      "payable": false,
      "stateMutability": "nonpayable",
      "type": "function"
    },
    {
      "constant": true,
      "inputs": [],
      "name": "ema0",
      "outputs": [
        {
          "name": "",
          "type": "uint256"
        }
      ],
      "payable": false,
      "stateMutability": "view",
      "type": "function"
    },
    {
      "constant": true,
      "inputs": [],
      "name": "k",
      "outputs": [
        {
          "name": "",
          "type": "uint256"
        }
      ],
      "payable": false,
      "stateMutability": "view",
      "type": "function"
    },
    {
      "constant": true,
      "inputs": [],
      "name": "timestamp",
      "outputs": [
        {
          "name": "",
          "type": "uint256"
        }
      ],
      "payable": false,
      "stateMutability": "view",
      "type": "function"
    },
    {
      "constant": true,
      "inputs": [],
      "name": "newOwner",
      "outputs": [
        {
          "name": "",
          "type": "address"
        }
      ],
      "payable": false,
      "stateMutability": "view",
      "type": "function"
    },
    {
      "constant": false,
      "inputs": [
        {
          "name": "_newOwner",
          "type": "address"
        }
      ],
      "name": "transferOwnership",
      "outputs": [],
      "payable": false,
      "stateMutability": "nonpayable",
      "type": "function"
    },
    {
      "constant": true,
      "inputs": [],
      "name": "btcAddress",
      "outputs": [
        {
          "name": "",
          "type": "address"
        }
      ],
      "payable": false,
      "stateMutability": "view",
      "type": "function"
    },
    {
      "inputs": [
        {
          "name": "_liquidityPool",
          "type": "address"
        },
        {
          "name": "_btcAddress",
          "type": "address"
        }
      ],
      "payable": false,
      "stateMutability": "nonpayable",
      "type": "constructor"
    },
    {
      "anonymous": false,
      "inputs": [
        {
          "indexed": false,
          "name": "ema0",
          "type": "uint256"
        },
        {
          "indexed": false,
          "name": "ema1",
          "type": "uint256"
        },
        {
          "indexed": false,
          "name": "blockNumber",
          "type": "uint256"
        },
        {
          "indexed": false,
          "name": "timestamp",
          "type": "uint256"
        },
        {
          "indexed": false,
          "name": "lastCumulativePrice0",
          "type": "uint256"
        },
        {
          "indexed": false,
          "name": "lastCumulativePrice1",
          "type": "uint256"
        }
      ],
      "name": "ObservationsUpdated",
      "type": "event"
    },
    {
      "anonymous": false,
      "inputs": [
        {
          "indexed": false,
          "name": "_k",
          "type": "uint256"
        }
      ],
      "name": "KValueUpdate",
      "type": "event"
    },
    {
      "anonymous": false,
      "inputs": [
        {
          "indexed": true,
          "name": "sender",
          "type": "address"
        },
        {
          "indexed": false,
          "name": "oldLiquidityPool",
          "type": "address"
        },
        {
          "indexed": false,
          "name": "newLiquidityPool",
          "type": "address"
        }
      ],
      "name": "LiquidityPoolUpdate",
      "type": "event"
    },
    {
      "anonymous": false,
      "inputs": [
        {
          "indexed": true,
          "name": "_prevOwner",
          "type": "address"
        },
        {
          "indexed": true,
          "name": "_newOwner",
          "type": "address"
        }
      ],
      "name": "OwnerUpdate",
      "type": "event"
    }
  ],
  "bytecode": "0x608060405234801561001057600080fd5b50604051604080610e2783398101604052805160209091015160008054600160a060020a03191633179055600160a060020a03821615156100b257604080517f08c379a000000000000000000000000000000000000000000000000000000000815260206004820152601560248201527f4552525f5a45524f5f504f4f4c5f414444524553530000000000000000000000604482015290519081900360640190fd5b60098054600160a060020a03938416600160a060020a031991821617909155600a8054929093169116179055610d3a806100ed6000396000f3006080604052600436106101065763ffffffff7c010000000000000000000000000000000000000000000000000000000060003504166301877020811461010b5780632e31b5a31461012e5780634bbc224f1461015557806350d25bcd1461016a57806353084eff1461017f57806357de26a4146101a057806357e871e7146101e8578063665a11ca146101fd57806367de8be91461022e57806379ba5097146102465780638da5cb5b1461025b5780639ad61d99146102705780639c0e3f7a14610285578063a0631a60146102a0578063b4f40c61146102b5578063b80777ea146102ca578063d4ee1d90146102df578063f2fde38b146102f4578063f7d76ae514610315575b600080fd5b34801561011757600080fd5b5061012c600160a060020a036004351661032a565b005b34801561013a57600080fd5b50610143610405565b60408051918252519081900360200190f35b34801561016157600080fd5b5061014361040b565b34801561017657600080fd5b50610143610411565b34801561018b57600080fd5b50610143600160a060020a0360043516610549565b3480156101ac57600080fd5b506101b561067a565b604080519687526020870195909552858501939093526060850191909152608084015260a0830152519081900360c00190f35b3480156101f457600080fd5b50610143610694565b34801561020957600080fd5b5061021261069a565b60408051600160a060020a039092168252519081900360200190f35b34801561023a57600080fd5b5061012c6004356106a9565b34801561025257600080fd5b5061012c610753565b34801561026757600080fd5b50610212610826565b34801561027c57600080fd5b50610143610835565b34801561029157600080fd5b5061012c60043560243561083b565b3480156102ac57600080fd5b50610143610a2e565b3480156102c157600080fd5b50610143610a34565b3480156102d657600080fd5b50610143610a3a565b3480156102eb57600080fd5b50610212610a40565b34801561030057600080fd5b5061012c600160a060020a0360043516610a4f565b34801561032157600080fd5b50610212610aec565b6000610334610afb565b600160a060020a0382161515610394576040805160e560020a62461bcd02815260206004820152601560248201527f4552525f5a45524f5f504f4f4c5f414444524553530000000000000000000000604482015290519081900360640190fd5b5060098054600160a060020a0383811673ffffffffffffffffffffffffffffffffffffffff198316179283905560408051928216808452939091166020830152805133927f48c275961f122494c4fd1cde0f64deb133cd4f50de01a7129509d38e43dc04e392908290030190a25050565b60065481565b60075481565b600a546009546040805160e060020a63d031370b02815260006004820181905291519193600160a060020a0390811693169163d031370b9160248082019260209290919082900301818887803b15801561046a57600080fd5b505af115801561047e573d6000803e3d6000fd5b505050506040513d602081101561049457600080fd5b5051600160a060020a031614156104ae5750600454610546565b600a546009546040805160e060020a63d031370b028152600160048201529051600160a060020a03938416939092169163d031370b916024808201926020929091908290030181600087803b15801561050657600080fd5b505af115801561051a573d6000803e3d6000fd5b505050506040513d602081101561053057600080fd5b5051600160a060020a0316141561054657506005545b90565b6009546040805160e060020a63d031370b02815260006004820181905291519192600160a060020a038086169391169163d031370b91602480830192602092919082900301818887803b15801561059f57600080fd5b505af11580156105b3573d6000803e3d6000fd5b505050506040513d60208110156105c957600080fd5b5051600160a060020a031614156105e35750600454610675565b6009546040805160e060020a63d031370b028152600160048201529051600160a060020a0380861693169163d031370b9160248083019260209291908290030181600087803b15801561063557600080fd5b505af1158015610649573d6000803e3d6000fd5b505050506040513d602081101561065f57600080fd5b5051600160a060020a0316141561067557506005545b919050565b600454600554600254600354600654600754909192939495565b60025481565b600954600160a060020a031681565b6106b1610afb565b80158015906106c257506127108111155b1515610718576040805160e560020a62461bcd02815260206004820152601360248201527f4552525f494e56414c49445f4b5f56414c554500000000000000000000000000604482015290519081900360640190fd5b60088190556040805182815290517fcb3a8e019a23a56c754740dc9d7fa5bc0b2003bb8b6a476622d5e95e33dd5fd99181900360200190a150565b600154600160a060020a031633146107b5576040805160e560020a62461bcd02815260206004820152601160248201527f4552525f4143434553535f44454e494544000000000000000000000000000000604482015290519081900360640190fd5b60015460008054604051600160a060020a0393841693909116917f343765429aea5a34b3ff6a3785a98a5abb2597aca87bfbb58632c173d585373a91a3600180546000805473ffffffffffffffffffffffffffffffffffffffff19908116600160a060020a03841617909155169055565b600054600160a060020a031681565b60055481565b600954600090600160a060020a031633146108a0576040805160e560020a62461bcd02815260206004820152601860248201527f4552525f494e56414c49445f504f4f4c5f414444524553530000000000000000604482015290519081900360640190fd5b4360025414156108af57610a29565b60035415156108ca575060048290556005819055600161096d565b61091961271061090d6108ee60045460085461271003610b5f90919063ffffffff16565b600854610901908863ffffffff610b5f16565b9063ffffffff610be316565b9063ffffffff610c4016565b600455600554600854610953916127109161090d916109409184039063ffffffff610b5f16565b600854610901908763ffffffff610b5f16565b60055560035461096a90429063ffffffff610cae16565b90505b61098f610980848363ffffffff610b5f16565b6006549063ffffffff610be316565b6006556109b46109a5838363ffffffff610b5f16565b6007549063ffffffff610be316565b6007819055436002819055426003819055600454600554600654604080519384526020840192909252828201949094526060820192909252608081019290925260a082019290925290517fc2b6c6efe20ca0bd2084352507ac2365a79ab0ff280b979f4e2bfc037a7596549181900360c00190a15b505050565b60045481565b60085481565b60035481565b600154600160a060020a031681565b610a57610afb565b600054600160a060020a0382811691161415610abd576040805160e560020a62461bcd02815260206004820152600e60248201527f4552525f53414d455f4f574e4552000000000000000000000000000000000000604482015290519081900360640190fd5b6001805473ffffffffffffffffffffffffffffffffffffffff1916600160a060020a0392909216919091179055565b600a54600160a060020a031681565b600054600160a060020a03163314610b5d576040805160e560020a62461bcd02815260206004820152601160248201527f4552525f4143434553535f44454e494544000000000000000000000000000000604482015290519081900360640190fd5b565b600080831515610b725760009150610bdc565b50828202828482811515610b8257fe5b0414610bd8576040805160e560020a62461bcd02815260206004820152600c60248201527f4552525f4f564552464c4f570000000000000000000000000000000000000000604482015290519081900360640190fd5b8091505b5092915050565b600082820183811015610bd8576040805160e560020a62461bcd02815260206004820152600c60248201527f4552525f4f564552464c4f570000000000000000000000000000000000000000604482015290519081900360640190fd5b600080808311610c9a576040805160e560020a62461bcd02815260206004820152601260248201527f4552525f4449564944455f42595f5a45524f0000000000000000000000000000604482015290519081900360640190fd5b8284811515610ca557fe5b04949350505050565b600081831015610d08576040805160e560020a62461bcd02815260206004820152600d60248201527f4552525f554e444552464c4f5700000000000000000000000000000000000000604482015290519081900360640190fd5b509003905600a165627a7a72305820a58035c1cab242d54d283b12f732f3d12e9faf7afa31f1fd3c9e01c36539493a0029",
  "linkReferences": {},
  "deployedLinkReferences": {}
}