{
  "abi": [
    {
      "anonymous": false,
      "inputs": [
        {
          "indexed": false,
          "internalType": "address",
          "name": "admin",
          "type": "address"
        }
      ],
      "name": "AdminAdded",
      "type": "event"
    },
    {
      "anonymous": false,
      "inputs": [
        {
          "indexed": false,
          "internalType": "address",
          "name": "admin",
          "type": "address"
        }
      ],
      "name": "AdminRemoved",
      "type": "event"
    },
    {
      "anonymous": false,
      "inputs": [
        {
          "indexed": true,
          "internalType": "address",
          "name": "_oldImplementation",
          "type": "address"
        },
        {
          "indexed": true,
          "internalType": "address",
          "name": "_newImplementation",
          "type": "address"
        }
      ],
      "name": "ImplementationChanged",
      "type": "event"
    },
    {
      "anonymous": false,
      "inputs": [
        {
          "indexed": true,
          "internalType": "address",
          "name": "_oldOwner",
          "type": "address"
        },
        {
          "indexed": true,
          "internalType": "address",
          "name": "_newOwner",
          "type": "address"
        }
      ],
      "name": "OwnershipTransferred",
      "type": "event"
    },
    {
      "payable": true,
      "stateMutability": "payable",
      "type": "fallback"
    },
    {
      "constant": true,
      "inputs": [],
      "name": "SOV",
      "outputs": [
        {
          "internalType": "address",
          "name": "",
          "type": "address"
        }
      ],
      "payable": false,
      "stateMutability": "view",
      "type": "function"
    },
    {
      "constant": false,
      "inputs": [
        {
          "internalType": "address",
          "name": "_admin",
          "type": "address"
        }
      ],
      "name": "addAdmin",
      "outputs": [],
      "payable": false,
      "stateMutability": "nonpayable",
      "type": "function"
    },
    {
      "constant": true,
      "inputs": [
        {
          "internalType": "address",
          "name": "",
          "type": "address"
        }
      ],
      "name": "admins",
      "outputs": [
        {
          "internalType": "bool",
          "name": "",
          "type": "bool"
        }
      ],
      "payable": false,
      "stateMutability": "view",
      "type": "function"
    },
    {
      "constant": true,
      "inputs": [],
      "name": "feeSharingCollector",
      "outputs": [
        {
          "internalType": "address",
          "name": "",
          "type": "address"
        }
      ],
      "payable": false,
      "stateMutability": "view",
      "type": "function"
    },
    {
      "constant": true,
      "inputs": [],
      "name": "getImplementation",
      "outputs": [
        {
          "internalType": "address",
          "name": "_implementation",
          "type": "address"
        }
      ],
      "payable": false,
      "stateMutability": "view",
      "type": "function"
    },
    {
      "constant": true,
      "inputs": [],
      "name": "getProxyOwner",
      "outputs": [
        {
          "internalType": "address",
          "name": "_owner",
          "type": "address"
        }
      ],
      "payable": false,
      "stateMutability": "view",
      "type": "function"
    },
    {
      "constant": true,
      "inputs": [],
      "name": "isOwner",
      "outputs": [
        {
          "internalType": "bool",
          "name": "",
          "type": "bool"
        }
      ],
      "payable": false,
      "stateMutability": "view",
      "type": "function"
    },
    {
      "constant": true,
      "inputs": [
        {
          "internalType": "address",
          "name": "",
          "type": "address"
        }
      ],
      "name": "isVesting",
      "outputs": [
        {
          "internalType": "bool",
          "name": "",
          "type": "bool"
        }
      ],
      "payable": false,
      "stateMutability": "view",
      "type": "function"
    },
    {
      "constant": true,
      "inputs": [],
      "name": "lockedSOV",
      "outputs": [
        {
          "internalType": "contract ILockedSOV",
          "name": "",
          "type": "address"
        }
      ],
      "payable": false,
      "stateMutability": "view",
      "type": "function"
    },
    {
      "constant": true,
      "inputs": [],
      "name": "owner",
      "outputs": [
        {
          "internalType": "address",
          "name": "",
          "type": "address"
        }
      ],
      "payable": false,
      "stateMutability": "view",
      "type": "function"
    },
    {
      "constant": false,
      "inputs": [
        {
          "internalType": "address",
          "name": "_admin",
          "type": "address"
        }
      ],
      "name": "removeAdmin",
      "outputs": [],
      "payable": false,
      "stateMutability": "nonpayable",
      "type": "function"
    },
    {
      "constant": false,
      "inputs": [
        {
          "internalType": "address",
          "name": "_implementation",
          "type": "address"
        }
      ],
      "name": "setImplementation",
      "outputs": [],
      "payable": false,
      "stateMutability": "nonpayable",
      "type": "function"
    },
    {
      "constant": false,
      "inputs": [
        {
          "internalType": "address",
          "name": "_owner",
          "type": "address"
        }
      ],
      "name": "setProxyOwner",
      "outputs": [],
      "payable": false,
      "stateMutability": "nonpayable",
      "type": "function"
    },
    {
      "constant": true,
      "inputs": [],
      "name": "staking",
      "outputs": [
        {
          "internalType": "address",
          "name": "",
          "type": "address"
        }
      ],
      "payable": false,
      "stateMutability": "view",
      "type": "function"
    },
    {
      "constant": false,
      "inputs": [
        {
          "internalType": "address",
          "name": "newOwner",
          "type": "address"
        }
      ],
      "name": "transferOwnership",
      "outputs": [],
      "payable": false,
      "stateMutability": "nonpayable",
      "type": "function"
    },
    {
      "constant": true,
      "inputs": [
        {
          "internalType": "address",
          "name": "",
          "type": "address"
        }
      ],
      "name": "vestingCreationAndTypes",
      "outputs": [
        {
          "internalType": "bool",
          "name": "isSet",
          "type": "bool"
        },
        {
          "internalType": "uint32",
          "name": "vestingType",
          "type": "uint32"
        },
        {
          "internalType": "uint128",
          "name": "vestingCreationType",
          "type": "uint128"
        }
      ],
      "payable": false,
      "stateMutability": "view",
      "type": "function"
    },
    {
      "constant": true,
      "inputs": [],
      "name": "vestingFactory",
      "outputs": [
        {
          "internalType": "contract IVestingFactory",
          "name": "",
          "type": "address"
        }
      ],
      "payable": false,
      "stateMutability": "view",
      "type": "function"
    },
    {
      "constant": true,
      "inputs": [],
      "name": "vestingOwner",
      "outputs": [
        {
          "internalType": "address",
          "name": "",
          "type": "address"
        }
      ],
      "payable": false,
      "stateMutability": "view",
      "type": "function"
    },
    {
      "constant": true,
      "inputs": [
        {
          "internalType": "uint256",
          "name": "",
          "type": "uint256"
        }
      ],
      "name": "vestingRegistries",
      "outputs": [
        {
          "internalType": "contract IVestingRegistry",
          "name": "",
          "type": "address"
        }
      ],
      "payable": false,
      "stateMutability": "view",
      "type": "function"
    },
    {
      "constant": true,
      "inputs": [
        {
          "internalType": "uint256",
          "name": "",
          "type": "uint256"
        }
      ],
      "name": "vestings",
      "outputs": [
        {
          "internalType": "uint256",
          "name": "vestingType",
          "type": "uint256"
        },
        {
          "internalType": "uint256",
          "name": "vestingCreationType",
          "type": "uint256"
        },
        {
          "internalType": "address",
          "name": "vestingAddress",
          "type": "address"
        }
      ],
      "payable": false,
      "stateMutability": "view",
      "type": "function"
    },
    {
      "constant": true,
      "inputs": [
        {
          "internalType": "address",
          "name": "",
          "type": "address"
        },
        {
          "internalType": "uint256",
          "name": "",
          "type": "uint256"
        }
      ],
      "name": "vestingsOf",
      "outputs": [
        {
          "internalType": "uint256",
          "name": "",
          "type": "uint256"
        }
      ],
      "payable": false,
      "stateMutability": "view",
      "type": "function"
    }
  ],
  "bytecode": {
    "object": "0x608060405260006100176001600160e01b0361007016565b6000805462010000600160b01b031916620100006001600160a01b03841690810291909117825560405192935091600080516020610daa833981519152908290a35061006b336001600160e01b0361007416565b610146565b3390565b6001600160a01b0381166100b95760405162461bcd60e51b8152600401808060200182810382526025815260200180610dca6025913960400191505060405180910390fd5b6001600160a01b0381166100d46001600160e01b0361011e16565b6001600160a01b0316600080516020610daa83398151915260405160405180910390a3604080516e35b2bc97383937bc3c9737bbb732b960891b8152905190819003600f01902055565b604080516e35b2bc97383937bc3c9737bbb732b960891b8152905190819003600f0190205490565b610c55806101556000396000f3fe60806040526004361061012a5760003560e01c80638da5cb5b116100ab578063caaee91c1161006f578063caaee91c14610422578063d784d42614610455578063dfb9366d14610488578063f2f46b3b146104d3578063f2fde38b146104e8578063f60826ee1461051b5761012a565b80638da5cb5b1461039b5780638f32d59b146103b0578063aaf10f42146103c5578063bd7b5908146103da578063c0e09852146103ef5761012a565b80636b7dbb2d116100f25780636b7dbb2d14610277578063704802751461028c57806380fcb992146102bf578063821bee7314610320578063842a49d5146103715761012a565b806308dcb360146101a05780631785f53c146101d15780631ab7710d14610206578063429b62e51461021b5780634cf088d914610262575b6000610134610530565b90506001600160a01b03811661017b5760405162461bcd60e51b8152600401808060200182810382526023815260200180610bd96023913960400191505060405180910390fd5b60405136600082376000803683855af43d806000843e81801561019c578184f35b8184fd5b3480156101ac57600080fd5b506101b561055b565b604080516001600160a01b039092168252519081900360200190f35b3480156101dd57600080fd5b50610204600480360360208110156101f457600080fd5b50356001600160a01b031661056a565b005b34801561021257600080fd5b506101b561060a565b34801561022757600080fd5b5061024e6004803603602081101561023e57600080fd5b50356001600160a01b0316610632565b604080519115158252519081900360200190f35b34801561026e57600080fd5b506101b5610647565b34801561028357600080fd5b506101b5610656565b34801561029857600080fd5b50610204600480360360208110156102af57600080fd5b50356001600160a01b0316610665565b3480156102cb57600080fd5b506102f2600480360360208110156102e257600080fd5b50356001600160a01b0316610709565b60408051931515845263ffffffff90921660208401526001600160801b031682820152519081900360600190f35b34801561032c57600080fd5b5061034a6004803603602081101561034357600080fd5b503561073e565b6040805193845260208401929092526001600160a01b031682820152519081900360600190f35b34801561037d57600080fd5b506101b56004803603602081101561039457600080fd5b5035610768565b3480156103a757600080fd5b506101b561078f565b3480156103bc57600080fd5b5061024e6107a4565b3480156103d157600080fd5b506101b5610530565b3480156103e657600080fd5b506101b56107ce565b3480156103fb57600080fd5b5061024e6004803603602081101561041257600080fd5b50356001600160a01b03166107dd565b34801561042e57600080fd5b506102046004803603602081101561044557600080fd5b50356001600160a01b03166107f2565b34801561046157600080fd5b506102046004803603602081101561047857600080fd5b50356001600160a01b0316610863565b34801561049457600080fd5b506104c1600480360360408110156104ab57600080fd5b506001600160a01b0381351690602001356108d1565b60408051918252519081900360200190f35b3480156104df57600080fd5b506101b56108ff565b3480156104f457600080fd5b506102046004803603602081101561050b57600080fd5b50356001600160a01b031661090e565b34801561052757600080fd5b506101b561095f565b604080517135b2bc9734b6b83632b6b2b73a30ba34b7b760711b815290519081900360120190205490565b6005546001600160a01b031681565b6105726107a4565b6105b2576040805162461bcd60e51b815260206004820152600c60248201526b1d5b985d5d1a1bdc9a5e995960a21b604482015290519081900360640190fd5b6001600160a01b038116600081815260016020908152604091829020805460ff19169055815192835290517fa3b62bc36326052d97ea62d63c3d60308ed4c3ea8ac079dd8499f1e9c4f80c0f9281900390910190a150565b604080516e35b2bc97383937bc3c9737bbb732b960891b8152905190819003600f0190205490565b60016020526000908152604090205460ff1681565b6006546001600160a01b031681565b6007546001600160a01b031681565b61066d6107a4565b6106ad576040805162461bcd60e51b815260206004820152600c60248201526b1d5b985d5d1a1bdc9a5e995960a21b604482015290519081900360640190fd5b6001600160a01b038116600081815260016020818152604092839020805460ff1916909217909155815192835290517f44d6d25963f097ad14f29f06854a01f575648a1ef82f30e562ccd3889717e3399281900390910190a150565b600c6020526000908152604090205460ff811690610100810463ffffffff16906501000000000090046001600160801b031683565b6009602052600090815260409020805460018201546002909201549091906001600160a01b031683565b6004818154811061077557fe5b6000918252602090912001546001600160a01b0316905081565b6000546201000090046001600160a01b031690565b600080546201000090046001600160a01b03166107bf61096e565b6001600160a01b031614905090565b6008546001600160a01b031681565b600b6020526000908152604090205460ff1681565b6107fa61060a565b6001600160a01b0316336001600160a01b031614610857576040805162461bcd60e51b8152602060048201526015602482015274141c9bde1e4e8e881858d8d95cdcc819195b9a5959605a1b604482015290519081900360640190fd5b61086081610972565b50565b61086b61060a565b6001600160a01b0316336001600160a01b0316146108c8576040805162461bcd60e51b8152602060048201526015602482015274141c9bde1e4e8e881858d8d95cdcc819195b9a5959605a1b604482015290519081900360640190fd5b61086081610a25565b600a60205281600052604060002081815481106108ea57fe5b90600052602060002001600091509150505481565b6003546001600160a01b031681565b6109166107a4565b610956576040805162461bcd60e51b815260206004820152600c60248201526b1d5b985d5d1a1bdc9a5e995960a21b604482015290519081900360640190fd5b61086081610adb565b6002546001600160a01b031681565b3390565b6001600160a01b0381166109b75760405162461bcd60e51b8152600401808060200182810382526025815260200180610bfc6025913960400191505060405180910390fd5b806001600160a01b03166109c961060a565b6001600160a01b03167f8be0079c531659141344cd1fd0a4f28419497f9722a3daafe3b4186f6b6457e060405160405180910390a3604080516e35b2bc97383937bc3c9737bbb732b960891b8152905190819003600f01902055565b6001600160a01b038116610a6a5760405162461bcd60e51b8152600401808060200182810382526029815260200180610bb06029913960400191505060405180910390fd5b806001600160a01b0316610a7c610530565b6001600160a01b03167fcfbf4028add9318bbf716f08c348595afb063b0e9feed1f86d33681a4b3ed4d360405160405180910390a3604080517135b2bc9734b6b83632b6b2b73a30ba34b7b760711b8152905190819003601201902055565b6001600160a01b038116610b205760405162461bcd60e51b8152600401808060200182810382526026815260200180610b8a6026913960400191505060405180910390fd5b600080546040516001600160a01b03808516936201000090930416917f8be0079c531659141344cd1fd0a4f28419497f9722a3daafe3b4186f6b6457e091a3600080546001600160a01b03909216620100000262010000600160b01b031990921691909117905556fe4f776e61626c653a206e6577206f776e657220697320746865207a65726f206164647265737350726f78793a3a736574496d706c656d656e746174696f6e3a20696e76616c6964206164647265737350726f78793a3a28293a20696d706c656d656e746174696f6e206e6f7420666f756e6450726f78793a3a73657450726f78794f776e65723a20696e76616c69642061646472657373a265627a7a723158207b5f52873def00e60e7cf33b712a858b824d129d25f476bd391d9091bf80059564736f6c634300051100328be0079c531659141344cd1fd0a4f28419497f9722a3daafe3b4186f6b6457e050726f78793a3a73657450726f78794f776e65723a20696e76616c69642061646472657373",
    "linkReferences": {}
  },
  "methodIdentifiers": {
    "SOV()": "08dcb360",
    "addAdmin(address)": "70480275",
    "admins(address)": "429b62e5",
    "feeSharingCollector()": "6b7dbb2d",
    "getImplementation()": "aaf10f42",
    "getProxyOwner()": "1ab7710d",
    "isOwner()": "8f32d59b",
    "isVesting(address)": "c0e09852",
    "lockedSOV()": "f2f46b3b",
    "owner()": "8da5cb5b",
    "removeAdmin(address)": "1785f53c",
    "setImplementation(address)": "d784d426",
    "setProxyOwner(address)": "caaee91c",
    "staking()": "4cf088d9",
    "transferOwnership(address)": "f2fde38b",
    "vestingCreationAndTypes(address)": "80fcb992",
    "vestingFactory()": "f60826ee",
    "vestingOwner()": "bd7b5908",
    "vestingRegistries(uint256)": "842a49d5",
    "vestings(uint256)": "821bee73",
    "vestingsOf(address,uint256)": "dfb9366d"
  },
  "id": 95
}