{
  "abi": [
    {
      "anonymous": false,
      "inputs": [
        {
          "indexed": true,
          "internalType": "address",
          "name": "tokenOwner",
          "type": "address"
        },
        {
          "indexed": true,
          "internalType": "address",
          "name": "vestingAddress",
          "type": "address"
        }
      ],
      "name": "FourYearVestingCreated",
      "type": "event"
    },
    {
      "anonymous": false,
      "inputs": [
        {
          "indexed": true,
          "internalType": "address",
          "name": "previousOwner",
          "type": "address"
        },
        {
          "indexed": true,
          "internalType": "address",
          "name": "newOwner",
          "type": "address"
        }
      ],
      "name": "OwnershipTransferred",
      "type": "event"
    },
    {
      "constant": false,
      "inputs": [
        {
          "internalType": "address",
          "name": "_SOV",
          "type": "address"
        },
        {
          "internalType": "address",
          "name": "_staking",
          "type": "address"
        },
        {
          "internalType": "address",
          "name": "_tokenOwner",
          "type": "address"
        },
        {
          "internalType": "address",
          "name": "_feeSharing",
          "type": "address"
        },
        {
          "internalType": "address",
          "name": "_vestingOwnerMultisig",
          "type": "address"
        },
        {
          "internalType": "address",
          "name": "_fourYearVestingLogic",
          "type": "address"
        },
        {
          "internalType": "uint256",
          "name": "_extendDurationFor",
          "type": "uint256"
        }
      ],
      "name": "deployFourYearVesting",
      "outputs": [
        {
          "internalType": "address",
          "name": "",
          "type": "address"
        }
      ],
      "payable": false,
      "stateMutability": "nonpayable",
      "type": "function"
    },
    {
      "constant": true,
      "inputs": [],
      "name": "isOwner",
      "outputs": [
        {
          "internalType": "bool",
          "name": "",
          "type": "bool"
        }
      ],
      "payable": false,
      "stateMutability": "view",
      "type": "function"
    },
    {
      "constant": true,
      "inputs": [],
      "name": "owner",
      "outputs": [
        {
          "internalType": "address",
          "name": "",
          "type": "address"
        }
      ],
      "payable": false,
      "stateMutability": "view",
      "type": "function"
    },
    {
      "constant": false,
      "inputs": [
        {
          "internalType": "address",
          "name": "newOwner",
          "type": "address"
        }
      ],
      "name": "transferOwnership",
      "outputs": [],
      "payable": false,
      "stateMutability": "nonpayable",
      "type": "function"
    }
  ],
  "bytecode": {
    "object": "0x608060405260006100176001600160e01b0361006616565b600080546001600160a01b0319166001600160a01b0383169081178255604051929350917f8be0079c531659141344cd1fd0a4f28419497f9722a3daafe3b4186f6b6457e0908290a35061006a565b3390565b611936806100796000396000f3fe60806040523480156200001157600080fd5b5060043610620000525760003560e01c80638da5cb5b14620000575780638f32d59b146200007d578063e2be85c1146200009b578063f2fde38b14620000f4575b600080fd5b620000616200011f565b604080516001600160a01b039092168252519081900360200190f35b620000876200012e565b604080519115158252519081900360200190f35b62000061600480360360e0811015620000b357600080fd5b506001600160a01b038135811691602081013582169160408201358116916060810135821691608082013581169160a08101359091169060c0013562000154565b6200011d600480360360208110156200010c57600080fd5b50356001600160a01b0316620002c6565b005b6000546001600160a01b031690565b600080546001600160a01b0316620001456200031f565b6001600160a01b031614905090565b6000620001606200012e565b620001a1576040805162461bcd60e51b815260206004820152600c60248201526b1d5b985d5d1a1bdc9a5e995960a21b604482015290519081900360640190fd5b6000838989898987604051620001b790620003c5565b6001600160a01b03968716815294861660208601529285166040808601919091529185166060850152909316608083015260a082015290519081900360c001906000f0801580156200020d573d6000803e3d6000fd5b509050806001600160a01b031663f2fde38b866040518263ffffffff1660e01b815260040180826001600160a01b03166001600160a01b03168152602001915050600060405180830381600087803b1580156200026957600080fd5b505af11580156200027e573d6000803e3d6000fd5b50506040516001600160a01b0380851693508a1691507fd6cdfd84820c77f80c0a076c42d9c74470ae518413567351a31034b0a5c653a390600090a398975050505050505050565b620002d06200012e565b62000311576040805162461bcd60e51b815260206004820152600c60248201526b1d5b985d5d1a1bdc9a5e995960a21b604482015290519081900360640190fd5b6200031c8162000323565b50565b3390565b6001600160a01b0381166200036a5760405162461bcd60e51b8152600401808060200182810382526026815260200180620018dc6026913960400191505060405180910390fd5b600080546040516001600160a01b03808516939216917f8be0079c531659141344cd1fd0a4f28419497f9722a3daafe3b4186f6b6457e091a3600080546001600160a01b0319166001600160a01b0392909216919091179055565b61150880620003d48339019056fe60806040523480156200001157600080fd5b506040516200150838038062001508833981016040819052620000349162000459565b6000620000496001600160e01b03620002b116565b600080546001600160a01b0319166001600160a01b038316908117825560405192935091600080516020620014e8833981519152908290a35062000096336001600160e01b03620002b516565b620000ac866200033f60201b6200068e1760201c565b620000d45760405162461bcd60e51b8152600401620000cb9062000818565b60405180910390fd5b6001600160a01b038516620000fd5760405162461bcd60e51b8152600401620000cb90620008cc565b62000113856200033f60201b6200068e1760201c565b620001325760405162461bcd60e51b8152600401620000cb9062000884565b6001600160a01b0384166200015b5760405162461bcd60e51b8152600401620000cb90620008a8565b62000171846200033f60201b6200068e1760201c565b620001905760405162461bcd60e51b8152600401620000cb906200084e565b6001600160a01b038316620001b95760405162461bcd60e51b8152600401620000cb906200082a565b6001600160a01b038216620001e25760405162461bcd60e51b8152600401620000cb9062000872565b620001f8826200033f60201b6200068e1760201c565b620002175760405162461bcd60e51b8152600401620000cb90620008ba565b6224ea008106156200023d5760405162461bcd60e51b8152600401620000cb9062000860565b62000251866001600160e01b036200037c16565b600180546001600160a01b03199081166001600160a01b039788161790915560028054821695871695909517909455600380548516938616939093179092556004805490931693169290921790556302987400600755600e555062000926565b3390565b6001600160a01b038116620002de5760405162461bcd60e51b8152600401620000cb9062000896565b6001600160a01b038116620002fb6001600160e01b036200040716565b6001600160a01b0316600080516020620014e883398151915260405160405180910390a360006040516200032f906200080b565b6040519081900390209190915550565b6000813f7fc5d2460186f7233c927e7db2dcc703c0e500b653ca82273b7bfad8045d85a4708181148015906200037457508115155b949350505050565b6001600160a01b038116620003a55760405162461bcd60e51b8152600401620000cb906200083c565b6001600160a01b038116620003c26001600160e01b036200042816565b6001600160a01b03167fcfbf4028add9318bbf716f08c348595afb063b0e9feed1f86d33681a4b3ed4d360405160405180910390a360006040516200032f90620007fe565b60008060405162000418906200080b565b6040519081900390205492915050565b6000806040516200041890620007fe565b8051620004468162000901565b92915050565b805162000446816200091b565b60008060008060008060c087890312156200047357600080fd5b600062000481898962000439565b96505060206200049489828a0162000439565b9550506040620004a789828a0162000439565b9450506060620004ba89828a0162000439565b9350506080620004cd89828a0162000439565b92505060a0620004e089828a016200044c565b9150509295509295509295565b6000620004fc601583620008de565b7f5f6c6f676963206e6f74206120636f6e74726163740000000000000000000000815260200192915050565b600062000537601b83620008de565b7f746f6b656e206f776e6572206164647265737320696e76616c69640000000000815260200192915050565b600062000572602983620008de565b7f50726f78793a3a736574496d706c656d656e746174696f6e3a20696e76616c6981526864206164647265737360b81b602082015260400192915050565b6000620005bf601e83620008de565b7f5f7374616b696e6741646472657373206e6f74206120636f6e74726163740000815260200192915050565b6000620005fa601283620008e7565b7135b2bc9734b6b83632b6b2b73a30ba34b7b760711b815260120192915050565b60006200062a601083620008de565b6f34b73b30b634b210323ab930ba34b7b760811b815260200192915050565b600062000658602383620008de565b7f66656553686172696e67436f6c6c6563746f72206164647265737320696e76618152621b1a5960ea1b602082015260400192915050565b60006200069f601383620008de565b7f5f534f56206e6f74206120636f6e747261637400000000000000000000000000815260200192915050565b6000620006da600f83620008e7565b6e35b2bc97383937bc3c9737bbb732b960891b8152600f0192915050565b600062000707602583620008de565b7f50726f78793a3a73657450726f78794f776e65723a20696e76616c6964206164815264647265737360d81b602082015260400192915050565b600062000750601783620008de565b7f7374616b696e67206164647265737320696e76616c6964000000000000000000815260200192915050565b60006200078b602383620008de565b7f5f66656553686172696e67436f6c6c6563746f72206e6f74206120636f6e74728152621858dd60ea1b602082015260400192915050565b6000620007d2601383620008de565b7f534f56206164647265737320696e76616c696400000000000000000000000000815260200192915050565b60006200044682620005eb565b60006200044682620006cb565b602080825281016200044681620004ed565b60208082528101620004468162000528565b60208082528101620004468162000563565b602080825281016200044681620005b0565b6020808252810162000446816200061b565b60208082528101620004468162000649565b60208082528101620004468162000690565b602080825281016200044681620006f8565b60208082528101620004468162000741565b6020808252810162000446816200077c565b602080825281016200044681620007c3565b90815260200190565b919050565b60006001600160a01b03821662000446565b90565b6200090c81620008ec565b81146200091857600080fd5b50565b6200090c81620008fe565b610bb280620009366000396000f3fe60806040526004361061014b5760003560e01c80638f32d59b116100b6578063cae774b31161006f578063cae774b31461036f578063d0e60a6a14610384578063d38bd9f014610399578063d784d426146103ae578063f2fde38b146103ce578063f6d6189e1461020d5761014b565b80638f32d59b146102d7578063a3e67610146102f9578063aaf10f421461030e578063b06a470c14610323578063c24a0f8b14610338578063caaee91c1461034d5761014b565b806341c632a61161010857806341c632a6146102595780634cf088d91461026e578063533a386c146102835780636b7dbb2d146102985780638b677b03146102ad5780638da5cb5b146102c25761014b565b806308dcb360146101ab5780630b97bc86146101d65780630fb5a6b4146101f857806313d033c01461020d5780631ab7710d146102225780633c4efe0114610244575b60006101556103ee565b90506001600160a01b0381166101865760405162461bcd60e51b815260040161017d90610ae5565b60405180910390fd5b60405136600082376000803683855af43d806000843e8180156101a7578184f35b8184fd5b3480156101b757600080fd5b506101c061040d565b6040516101cd9190610a87565b60405180910390f35b3480156101e257600080fd5b506101eb61041c565b6040516101cd9190610b15565b34801561020457600080fd5b506101eb610422565b34801561021957600080fd5b506101eb61042a565b34801561022e57600080fd5b50610237610431565b6040516101cd9190610a6b565b34801561025057600080fd5b506101eb610440565b34801561026557600080fd5b506101eb610446565b34801561027a57600080fd5b506101c061044c565b34801561028f57600080fd5b506101eb61045b565b3480156102a457600080fd5b506101c0610461565b3480156102b957600080fd5b50610237610470565b3480156102ce57600080fd5b5061023761047f565b3480156102e357600080fd5b506102ec61048e565b6040516101cd9190610a79565b34801561030557600080fd5b506102376104b2565b34801561031a57600080fd5b506102376103ee565b34801561032f57600080fd5b506101eb6104c1565b34801561034457600080fd5b506101eb6104c7565b34801561035957600080fd5b5061036d6103683660046107d7565b6104cd565b005b34801561037b57600080fd5b506101eb610511565b34801561039057600080fd5b506101eb610517565b3480156103a557600080fd5b5061023761051d565b3480156103ba57600080fd5b5061036d6103c93660046107d7565b61052c565b3480156103da57600080fd5b5061036d6103e93660046107d7565b6105d2565b6000806040516103fd90610a55565b6040519081900390205492915050565b6001546001600160a01b031681565b60055481565b63059fa60081565b6224ea0081565b6000806040516103fd90610a60565b60095481565b60085481565b6002546001600160a01b031681565b600a5481565b6004546001600160a01b031681565b600d546001600160a01b031681565b6000546001600160a01b031690565b600080546001600160a01b03166104a36105ff565b6001600160a01b031614905090565b6003546001600160a01b031681565b600b5481565b60065481565b6104d5610431565b6001600160a01b0316336001600160a01b0316146105055760405162461bcd60e51b815260040161017d90610ad5565b61050e81610603565b50565b60075481565b600e5481565b600c546001600160a01b031681565b610534610431565b6001600160a01b0316336001600160a01b0316146105645760405162461bcd60e51b815260040161017d90610ad5565b61056d8161068e565b6105895760405162461bcd60e51b815260040161017d90610aa5565b600d546001600160a01b038281169116146105b65760405162461bcd60e51b815260040161017d90610b05565b6105bf816106ca565b50600d80546001600160a01b0319169055565b6105da61048e565b6105f65760405162461bcd60e51b815260040161017d90610ac5565b61050e81610745565b3390565b6001600160a01b0381166106295760405162461bcd60e51b815260040161017d90610af5565b806001600160a01b031661063b610431565b6001600160a01b03167f8be0079c531659141344cd1fd0a4f28419497f9722a3daafe3b4186f6b6457e060405160405180910390a3600060405161067e90610a60565b6040519081900390209190915550565b6000813f7fc5d2460186f7233c927e7db2dcc703c0e500b653ca82273b7bfad8045d85a4708181148015906106c257508115155b949350505050565b6001600160a01b0381166106f05760405162461bcd60e51b815260040161017d90610ab5565b806001600160a01b03166107026103ee565b6001600160a01b03167fcfbf4028add9318bbf716f08c348595afb063b0e9feed1f86d33681a4b3ed4d360405160405180910390a3600060405161067e90610a55565b6001600160a01b03811661076b5760405162461bcd60e51b815260040161017d90610a95565b600080546040516001600160a01b03808516939216917f8be0079c531659141344cd1fd0a4f28419497f9722a3daafe3b4186f6b6457e091a3600080546001600160a01b0319166001600160a01b0392909216919091179055565b80356107d181610b5b565b92915050565b6000602082840312156107e957600080fd5b60006106c284846107c6565b6107fe81610b31565b82525050565b6107fe81610b3c565b6107fe81610b50565b6000610823602683610b23565b7f4f776e61626c653a206e6577206f776e657220697320746865207a65726f206181526564647265737360d01b602082015260400192915050565b600061086b601e83610b23565b7f5f696d706c656d656e746174696f6e206e6f74206120636f6e74726163740000815260200192915050565b60006108a4602983610b23565b7f50726f78793a3a736574496d706c656d656e746174696f6e3a20696e76616c6981526864206164647265737360b81b602082015260400192915050565b60006108ef600c83610b23565b6b1d5b985d5d1a1bdc9a5e995960a21b815260200192915050565b6000610917601283610b2c565b7135b2bc9734b6b83632b6b2b73a30ba34b7b760711b815260120192915050565b6000610945601583610b23565b74141c9bde1e4e8e881858d8d95cdcc819195b9a5959605a1b815260200192915050565b6000610976600f83610b2c565b6e35b2bc97383937bc3c9737bbb732b960891b8152600f0192915050565b60006109a1602383610b23565b7f50726f78793a3a28293a20696d706c656d656e746174696f6e206e6f7420666f8152621d5b9960ea1b602082015260400192915050565b60006109e6602583610b23565b7f50726f78793a3a73657450726f78794f776e65723a20696e76616c6964206164815264647265737360d81b602082015260400192915050565b6000610a2d601083610b23565b6f0c2c8c8e4cae6e640dad2e6dac2e8c6d60831b815260200192915050565b6107fe81610b4d565b60006107d18261090a565b60006107d182610969565b602081016107d182846107f5565b602081016107d18284610804565b602081016107d1828461080d565b602080825281016107d181610816565b602080825281016107d18161085e565b602080825281016107d181610897565b602080825281016107d1816108e2565b602080825281016107d181610938565b602080825281016107d181610994565b602080825281016107d1816109d9565b602080825281016107d181610a20565b602081016107d18284610a4c565b90815260200190565b919050565b60006107d182610b41565b151590565b6001600160a01b031690565b90565b60006107d182610b31565b610b6481610b31565b811461050e57600080fdfea365627a7a723158205ff3f3a11415292426335ebcc0f63756ed7698a5c4b1727d696920ad98f458e46c6578706572696d656e74616cf564736f6c634300051100408be0079c531659141344cd1fd0a4f28419497f9722a3daafe3b4186f6b6457e04f776e61626c653a206e6577206f776e657220697320746865207a65726f2061646472657373a265627a7a723158203c75bffe2fad6919502d8c4b7decb6f7834ee810dd50499a6103a4dc980e3ee364736f6c63430005110032",
    "linkReferences": {}
  },
  "methodIdentifiers": {
    "deployFourYearVesting(address,address,address,address,address,address,uint256)": "e2be85c1",
    "isOwner()": "8f32d59b",
    "owner()": "8da5cb5b",
    "transferOwnership(address)": "f2fde38b"
  },
  "id": 99
}