{
  "abi": [
    {
      "inputs": [
        {
          "internalType": "address",
          "name": "_v1PoolOracleAddress",
          "type": "address"
        },
        {
          "internalType": "address",
          "name": "_wRBTCAddress",
          "type": "address"
        },
        {
          "internalType": "address",
          "name": "_docAddress",
          "type": "address"
        },
        {
          "internalType": "address",
          "name": "_baseCurrency",
          "type": "address"
        }
      ],
      "payable": false,
      "stateMutability": "nonpayable",
      "type": "constructor"
    },
    {
      "anonymous": false,
      "inputs": [
        {
          "indexed": true,
          "internalType": "address",
          "name": "previousOwner",
          "type": "address"
        },
        {
          "indexed": true,
          "internalType": "address",
          "name": "newOwner",
          "type": "address"
        }
      ],
      "name": "OwnershipTransferred",
      "type": "event"
    },
    {
      "anonymous": false,
      "inputs": [
        {
          "indexed": true,
          "internalType": "address",
          "name": "baseCurrency",
          "type": "address"
        },
        {
          "indexed": false,
          "internalType": "address",
          "name": "changerAddress",
          "type": "address"
        }
      ],
      "name": "SetBaseCurrency",
      "type": "event"
    },
    {
      "anonymous": false,
      "inputs": [
        {
          "indexed": true,
          "internalType": "address",
          "name": "docAddress",
          "type": "address"
        },
        {
          "indexed": false,
          "internalType": "address",
          "name": "changerAddress",
          "type": "address"
        }
      ],
      "name": "SetDOCAddress",
      "type": "event"
    },
    {
      "anonymous": false,
      "inputs": [
        {
          "indexed": true,
          "internalType": "address",
          "name": "v1PoolOracleAddress",
          "type": "address"
        },
        {
          "indexed": false,
          "internalType": "address",
          "name": "changerAddress",
          "type": "address"
        }
      ],
      "name": "SetV1PoolOracleAddress",
      "type": "event"
    },
    {
      "anonymous": false,
      "inputs": [
        {
          "indexed": true,
          "internalType": "address",
          "name": "wRBTCAddress",
          "type": "address"
        },
        {
          "indexed": false,
          "internalType": "address",
          "name": "changerAddress",
          "type": "address"
        }
      ],
      "name": "SetWRBTCAddress",
      "type": "event"
    },
    {
      "constant": true,
      "inputs": [],
      "name": "baseCurrency",
      "outputs": [
        {
          "internalType": "address",
          "name": "",
          "type": "address"
        }
      ],
      "payable": false,
      "stateMutability": "view",
      "type": "function"
    },
    {
      "constant": true,
      "inputs": [],
      "name": "docAddress",
      "outputs": [
        {
          "internalType": "address",
          "name": "",
          "type": "address"
        }
      ],
      "payable": false,
      "stateMutability": "view",
      "type": "function"
    },
    {
      "constant": true,
      "inputs": [],
      "name": "isOwner",
      "outputs": [
        {
          "internalType": "bool",
          "name": "",
          "type": "bool"
        }
      ],
      "payable": false,
      "stateMutability": "view",
      "type": "function"
    },
    {
      "constant": true,
      "inputs": [],
      "name": "latestAnswer",
      "outputs": [
        {
          "internalType": "uint256",
          "name": "",
          "type": "uint256"
        }
      ],
      "payable": false,
      "stateMutability": "view",
      "type": "function"
    },
    {
      "constant": true,
      "inputs": [],
      "name": "owner",
      "outputs": [
        {
          "internalType": "address",
          "name": "",
          "type": "address"
        }
      ],
      "payable": false,
      "stateMutability": "view",
      "type": "function"
    },
    {
      "constant": false,
      "inputs": [
        {
          "internalType": "address",
          "name": "_baseCurrency",
          "type": "address"
        }
      ],
      "name": "setBaseCurrency",
      "outputs": [],
      "payable": false,
      "stateMutability": "nonpayable",
      "type": "function"
    },
    {
      "constant": false,
      "inputs": [
        {
          "internalType": "address",
          "name": "_docAddress",
          "type": "address"
        }
      ],
      "name": "setDOCAddress",
      "outputs": [],
      "payable": false,
      "stateMutability": "nonpayable",
      "type": "function"
    },
    {
      "constant": false,
      "inputs": [
        {
          "internalType": "address",
          "name": "_wRBTCAddress",
          "type": "address"
        }
      ],
      "name": "setRBTCAddress",
      "outputs": [],
      "payable": false,
      "stateMutability": "nonpayable",
      "type": "function"
    },
    {
      "constant": false,
      "inputs": [
        {
          "internalType": "address",
          "name": "_v1PoolOracleAddress",
          "type": "address"
        }
      ],
      "name": "setV1PoolOracleAddress",
      "outputs": [],
      "payable": false,
      "stateMutability": "nonpayable",
      "type": "function"
    },
    {
      "constant": false,
      "inputs": [
        {
          "internalType": "address",
          "name": "newOwner",
          "type": "address"
        }
      ],
      "name": "transferOwnership",
      "outputs": [],
      "payable": false,
      "stateMutability": "nonpayable",
      "type": "function"
    },
    {
      "constant": true,
      "inputs": [],
      "name": "v1PoolOracleAddress",
      "outputs": [
        {
          "internalType": "address",
          "name": "",
          "type": "address"
        }
      ],
      "payable": false,
      "stateMutability": "view",
      "type": "function"
    },
    {
      "constant": true,
      "inputs": [],
      "name": "wRBTCAddress",
      "outputs": [
        {
          "internalType": "address",
          "name": "",
          "type": "address"
        }
      ],
      "payable": false,
      "stateMutability": "view",
      "type": "function"
    }
  ],
  "bytecode": {
    "object": "0x60806040523480156200001157600080fd5b506040516200157638038062001576833981810160405260808110156200003757600080fd5b50805160208201516040830151606090930151919290916000620000636001600160e01b036200010716565b600080546001600160a01b0319166001600160a01b0383169081178255604051929350917f8be0079c531659141344cd1fd0a4f28419497f9722a3daafe3b4186f6b6457e0908290a350620000c1836001600160e01b036200010b16565b620000d5826001600160e01b036200020316565b620000e9846001600160e01b03620002f316565b620000fd816001600160e01b03620005c016565b505050506200071c565b3390565b6200011e6001600160e01b03620006b016565b6200015f576040805162461bcd60e51b815260206004820152600c60248201526b1d5b985d5d1a1bdc9a5e995960a21b604482015290519081900360640190fd5b6001600160a01b038116620001a65760405162461bcd60e51b8152600401808060200182810382526024815260200180620015306024913960400191505060405180910390fd5b600280546001600160a01b0319166001600160a01b03838116919091179182905560408051338152905192909116917f2f21604f728cee3b038451139b7962e5720960fe821c609ca83e38be2cd0f6be916020908290030190a250565b620002166001600160e01b03620006b016565b62000257576040805162461bcd60e51b815260206004820152600c60248201526b1d5b985d5d1a1bdc9a5e995960a21b604482015290519081900360640190fd5b6001600160a01b0381166200029e5760405162461bcd60e51b8152600401808060200182810382526022815260200180620015546022913960400191505060405180910390fd5b600380546001600160a01b0383166001600160a01b031990911681179091556040805133815290517fa5fa52ac5539bdf7f8bd9d02d0e2d4d7840c7dc0ff1fa8d9bcab2ffb765f37139181900360200190a250565b620003066001600160e01b03620006b016565b62000347576040805162461bcd60e51b815260206004820152600c60248201526b1d5b985d5d1a1bdc9a5e995960a21b604482015290519081900360640190fd5b6200035d81620006df60201b62000a351760201c565b6200039a5760405162461bcd60e51b8152600401808060200182810382526023815260200180620014e16023913960400191505060405180910390fd5b60008190506000816001600160a01b031663665a11ca6040518163ffffffff1660e01b815260040160206040518083038186803b158015620003db57600080fd5b505afa158015620003f0573d6000803e3d6000fd5b505050506040513d60208110156200040757600080fd5b50516002546040805163d031370b60e01b81526000600482015290519293506001600160a01b03918216929184169163d031370b91602480820192602092909190829003018186803b1580156200045d57600080fd5b505afa15801562000472573d6000803e3d6000fd5b505050506040513d60208110156200048957600080fd5b50516001600160a01b031614806200052457506002546040805163d031370b60e01b81526001600482015290516001600160a01b039283169284169163d031370b916024808301926020929190829003018186803b158015620004eb57600080fd5b505afa15801562000500573d6000803e3d6000fd5b505050506040513d60208110156200051757600080fd5b50516001600160a01b0316145b620005615760405162461bcd60e51b8152600401808060200182810382526029815260200180620014b86029913960400191505060405180910390fd5b600180546001600160a01b0319166001600160a01b03858116919091179182905560408051338152905192909116917f1cece9fe0966bcae1bc320922e8e73fe56effacab5cc158e7d97cd77cea66e86916020908290030190a2505050565b620005d36001600160e01b03620006b016565b62000614576040805162461bcd60e51b815260206004820152600c60248201526b1d5b985d5d1a1bdc9a5e995960a21b604482015290519081900360640190fd5b6001600160a01b0381166200065b5760405162461bcd60e51b815260040180806020018281038252602c81526020018062001504602c913960400191505060405180910390fd5b600480546001600160a01b0383166001600160a01b031990911681179091556040805133815290517f6dde2141be69fabcd84e3864d206ba0f3f2d507125fb2703899c87de4c585d5f9181900360200190a250565b600080546001600160a01b0316620006d06001600160e01b036200010716565b6001600160a01b031614905090565b6000813f7fc5d2460186f7233c927e7db2dcc703c0e500b653ca82273b7bfad8045d85a4708181148015906200071457508115155b949350505050565b610d8c806200072c6000396000f3fe608060405234801561001057600080fd5b50600436106100b45760003560e01c80639f63140b116100715780639f63140b1461014b578063b15403da14610171578063b478f41614610179578063c083be5f1461019f578063c63ec525146101a7578063f2fde38b146101cd576100b4565b806350d25bcd146100b95780638a47b34a146100d35780638c0d8c23146100fb5780638da5cb5b1461011f5780638f32d59b1461012757806392a85fde14610143575b600080fd5b6100c16101f3565b60408051918252519081900360200190f35b6100f9600480360360208110156100e957600080fd5b50356001600160a01b03166102ce565b005b6101036103b8565b604080516001600160a01b039092168252519081900360200190f35b6101036103c7565b61012f6103d6565b604080519115158252519081900360200190f35b6101036103fa565b6100f96004803603602081101561016157600080fd5b50356001600160a01b0316610409565b6101036106af565b6100f96004803603602081101561018f57600080fd5b50356001600160a01b03166106be565b6101036107a0565b6100f9600480360360208110156101bd57600080fd5b50356001600160a01b03166107af565b6100f9600480360360208110156101e357600080fd5b50356001600160a01b0316610891565b60015460048054604080516353084eff60e01b81526001600160a01b0392831693810193909352516000939190911691839183916353084eff916024808301926020929190829003018186803b15801561024c57600080fd5b505afa158015610260573d6000803e3d6000fd5b505050506040513d602081101561027657600080fd5b505190506000610285826108e5565b9050806102c7576040805162461bcd60e51b815260206004820152600b60248201526a383934b1b29032b93937b960a91b604482015290519081900360640190fd5b9250505090565b6102d66103d6565b610316576040805162461bcd60e51b815260206004820152600c60248201526b1d5b985d5d1a1bdc9a5e995960a21b604482015290519081900360640190fd5b6001600160a01b03811661035b5760405162461bcd60e51b8152600401808060200182810382526024815260200180610d126024913960400191505060405180910390fd5b600280546001600160a01b0319166001600160a01b03838116919091179182905560408051338152905192909116917f2f21604f728cee3b038451139b7962e5720960fe821c609ca83e38be2cd0f6be916020908290030190a250565b6001546001600160a01b031681565b6000546001600160a01b031690565b600080546001600160a01b03166103eb610a31565b6001600160a01b031614905090565b6004546001600160a01b031681565b6104116103d6565b610451576040805162461bcd60e51b815260206004820152600c60248201526b1d5b985d5d1a1bdc9a5e995960a21b604482015290519081900360640190fd5b61045a81610a35565b6104955760405162461bcd60e51b8152600401808060200182810382526023815260200180610ca26023913960400191505060405180910390fd5b60008190506000816001600160a01b031663665a11ca6040518163ffffffff1660e01b815260040160206040518083038186803b1580156104d557600080fd5b505afa1580156104e9573d6000803e3d6000fd5b505050506040513d60208110156104ff57600080fd5b50516002546040805163d031370b60e01b81526000600482015290519293506001600160a01b03918216929184169163d031370b91602480820192602092909190829003018186803b15801561055457600080fd5b505afa158015610568573d6000803e3d6000fd5b505050506040513d602081101561057e57600080fd5b50516001600160a01b0316148061061557506002546040805163d031370b60e01b81526001600482015290516001600160a01b039283169284169163d031370b916024808301926020929190829003018186803b1580156105de57600080fd5b505afa1580156105f2573d6000803e3d6000fd5b505050506040513d602081101561060857600080fd5b50516001600160a01b0316145b6106505760405162461bcd60e51b8152600401808060200182810382526029815260200180610c536029913960400191505060405180910390fd5b600180546001600160a01b0319166001600160a01b03858116919091179182905560408051338152905192909116917f1cece9fe0966bcae1bc320922e8e73fe56effacab5cc158e7d97cd77cea66e86916020908290030190a2505050565b6002546001600160a01b031681565b6106c66103d6565b610706576040805162461bcd60e51b815260206004820152600c60248201526b1d5b985d5d1a1bdc9a5e995960a21b604482015290519081900360640190fd5b6001600160a01b03811661074b5760405162461bcd60e51b815260040180806020018281038252602c815260200180610ce6602c913960400191505060405180910390fd5b600480546001600160a01b0383166001600160a01b031990911681179091556040805133815290517f6dde2141be69fabcd84e3864d206ba0f3f2d507125fb2703899c87de4c585d5f9181900360200190a250565b6003546001600160a01b031681565b6107b76103d6565b6107f7576040805162461bcd60e51b815260206004820152600c60248201526b1d5b985d5d1a1bdc9a5e995960a21b604482015290519081900360640190fd5b6001600160a01b03811661083c5760405162461bcd60e51b8152600401808060200182810382526022815260200180610d366022913960400191505060405180910390fd5b600380546001600160a01b0383166001600160a01b031990911681179091556040805133815290517fa5fa52ac5539bdf7f8bd9d02d0e2d4d7840c7dc0ff1fa8d9bcab2ffb765f37139181900360200190a250565b6108996103d6565b6108d9576040805162461bcd60e51b815260206004820152600c60248201526b1d5b985d5d1a1bdc9a5e995960a21b604482015290519081900360640190fd5b6108e281610a71565b50565b6002546003546040805163524efd4b60e01b81526001600160a01b0393841660048201529290911660248301525160009133918391839163524efd4b91604480820192602092909190829003018186803b15801561094257600080fd5b505afa158015610956573d6000803e3d6000fd5b505050506040513d602081101561096c57600080fd5b50516002546003546040805163d138f9a160e01b81526001600160a01b039384166004820152918316602483015260448201889052519293506000929185169163d138f9a191606480820192602092909190829003018186803b1580156109d257600080fd5b505afa1580156109e6573d6000803e3d6000fd5b505050506040513d60208110156109fc57600080fd5b50519050610a28670de0b6b3a7640000610a1c838563ffffffff610b1116565b9063ffffffff610b7316565b95945050505050565b3390565b6000813f7fc5d2460186f7233c927e7db2dcc703c0e500b653ca82273b7bfad8045d85a470818114801590610a6957508115155b949350505050565b6001600160a01b038116610ab65760405162461bcd60e51b8152600401808060200182810382526026815260200180610c7c6026913960400191505060405180910390fd5b600080546040516001600160a01b03808516939216917f8be0079c531659141344cd1fd0a4f28419497f9722a3daafe3b4186f6b6457e091a3600080546001600160a01b0319166001600160a01b0392909216919091179055565b600082610b2057506000610b6d565b82820282848281610b2d57fe5b0414610b6a5760405162461bcd60e51b8152600401808060200182810382526021815260200180610cc56021913960400191505060405180910390fd5b90505b92915050565b6000610b6a83836040518060400160405280601a81526020017f536166654d6174683a206469766973696f6e206279207a65726f00000000000081525060008183610c3c5760405162461bcd60e51b81526004018080602001828103825283818151815260200191508051906020019080838360005b83811015610c01578181015183820152602001610be9565b50505050905090810190601f168015610c2e5780820380516001836020036101000a031916815260200191505b509250505060405180910390fd5b506000838581610c4857fe5b049594505050505056fe6f6e65206f66207468652074776f207265736572766573206e6565647320746f2062652077726274634f776e61626c653a206e6577206f776e657220697320746865207a65726f20616464726573735f7631506f6f6c4f7261636c6541646472657373206e6f74206120636f6e7472616374536166654d6174683a206d756c7469706c69636174696f6e206f766572666c6f77426173652063757272656e637920616464726573732063616e6e6f74206265207a65726f2061646472657373775242544320616464726573732063616e6e6f74206265207a65726f2061646472657373444f4320616464726573732063616e6e6f74206265207a65726f2061646472657373a265627a7a723158201aceaec4472bde87f71ddf1f82a96f0e32a7acdaa320bfad3f5360f5e3afb9e964736f6c634300051100326f6e65206f66207468652074776f207265736572766573206e6565647320746f2062652077726274635f7631506f6f6c4f7261636c6541646472657373206e6f74206120636f6e7472616374426173652063757272656e637920616464726573732063616e6e6f74206265207a65726f2061646472657373775242544320616464726573732063616e6e6f74206265207a65726f2061646472657373444f4320616464726573732063616e6e6f74206265207a65726f2061646472657373",
    "linkReferences": {}
  },
  "methodIdentifiers": {
    "baseCurrency()": "92a85fde",
    "docAddress()": "c083be5f",
    "isOwner()": "8f32d59b",
    "latestAnswer()": "50d25bcd",
    "owner()": "8da5cb5b",
    "setBaseCurrency(address)": "b478f416",
    "setDOCAddress(address)": "c63ec525",
    "setRBTCAddress(address)": "8a47b34a",
    "setV1PoolOracleAddress(address)": "9f63140b",
    "transferOwnership(address)": "f2fde38b",
    "v1PoolOracleAddress()": "8c0d8c23",
    "wRBTCAddress()": "b15403da"
  },
  "id": 46
}