{
  "address": "0x6645096dEC23E5168C352BA0cB0E6D4970040dde",
  "abi": [
    {
      "anonymous": false,
      "inputs": [
        {
          "indexed": false,
          "internalType": "address",
          "name": "admin",
          "type": "address"
        }
      ],
      "name": "AdminAdded",
      "type": "event"
    },
    {
      "anonymous": false,
      "inputs": [
        {
          "indexed": false,
          "internalType": "address",
          "name": "admin",
          "type": "address"
        }
      ],
      "name": "AdminRemoved",
      "type": "event"
    },
    {
      "anonymous": false,
      "inputs": [
        {
          "indexed": false,
          "internalType": "bytes32",
          "name": "hash",
          "type": "bytes32"
        }
      ],
      "name": "ContractCodeHashAdded",
      "type": "event"
    },
    {
      "anonymous": false,
      "inputs": [
        {
          "indexed": false,
          "internalType": "bytes32",
          "name": "hash",
          "type": "bytes32"
        }
      ],
      "name": "ContractCodeHashRemoved",
      "type": "event"
    },
    {
      "anonymous": false,
      "inputs": [
        {
          "indexed": true,
          "internalType": "address",
          "name": "delegator",
          "type": "address"
        },
        {
          "indexed": false,
          "internalType": "uint256",
          "name": "lockedUntil",
          "type": "uint256"
        },
        {
          "indexed": true,
          "internalType": "address",
          "name": "fromDelegate",
          "type": "address"
        },
        {
          "indexed": true,
          "internalType": "address",
          "name": "toDelegate",
          "type": "address"
        }
      ],
      "name": "DelegateChanged",
      "type": "event"
    },
    {
      "anonymous": false,
      "inputs": [
        {
          "indexed": true,
          "internalType": "address",
          "name": "delegate",
          "type": "address"
        },
        {
          "indexed": false,
          "internalType": "uint256",
          "name": "lockedUntil",
          "type": "uint256"
        },
        {
          "indexed": false,
          "internalType": "uint256",
          "name": "previousBalance",
          "type": "uint256"
        },
        {
          "indexed": false,
          "internalType": "uint256",
          "name": "newBalance",
          "type": "uint256"
        }
      ],
      "name": "DelegateStakeChanged",
      "type": "event"
    },
    {
      "anonymous": false,
      "inputs": [
        {
          "indexed": true,
          "internalType": "address",
          "name": "staker",
          "type": "address"
        },
        {
          "indexed": false,
          "internalType": "uint256",
          "name": "previousDate",
          "type": "uint256"
        },
        {
          "indexed": false,
          "internalType": "uint256",
          "name": "newDate",
          "type": "uint256"
        },
        {
          "indexed": false,
          "internalType": "uint256",
          "name": "amountStaked",
          "type": "uint256"
        }
      ],
      "name": "ExtendedStakingDuration",
      "type": "event"
    },
    {
      "anonymous": false,
      "inputs": [
        {
          "indexed": false,
          "internalType": "uint256",
          "name": "oldMaxIterations",
          "type": "uint256"
        },
        {
          "indexed": false,
          "internalType": "uint256",
          "name": "newMaxIterations",
          "type": "uint256"
        }
      ],
      "name": "MaxVestingWithdrawIterationsUpdated",
      "type": "event"
    },
    {
      "anonymous": false,
      "inputs": [
        {
          "indexed": true,
          "internalType": "address",
          "name": "previousOwner",
          "type": "address"
        },
        {
          "indexed": true,
          "internalType": "address",
          "name": "newOwner",
          "type": "address"
        }
      ],
      "name": "OwnershipTransferred",
      "type": "event"
    },
    {
      "anonymous": false,
      "inputs": [
        {
          "indexed": true,
          "internalType": "address",
          "name": "pauser",
          "type": "address"
        },
        {
          "indexed": true,
          "internalType": "bool",
          "name": "added",
          "type": "bool"
        }
      ],
      "name": "PauserAddedOrRemoved",
      "type": "event"
    },
    {
      "anonymous": false,
      "inputs": [
        {
          "indexed": true,
          "internalType": "bool",
          "name": "setFrozen",
          "type": "bool"
        }
      ],
      "name": "StakingFrozen",
      "type": "event"
    },
    {
      "anonymous": false,
      "inputs": [
        {
          "indexed": true,
          "internalType": "bool",
          "name": "setPaused",
          "type": "bool"
        }
      ],
      "name": "StakingPaused",
      "type": "event"
    },
    {
      "anonymous": false,
      "inputs": [
        {
          "indexed": true,
          "internalType": "address",
          "name": "staker",
          "type": "address"
        },
        {
          "indexed": false,
          "internalType": "uint256",
          "name": "amount",
          "type": "uint256"
        },
        {
          "indexed": false,
          "internalType": "uint256",
          "name": "until",
          "type": "uint256"
        },
        {
          "indexed": true,
          "internalType": "address",
          "name": "receiver",
          "type": "address"
        },
        {
          "indexed": false,
          "internalType": "bool",
          "name": "isGovernance",
          "type": "bool"
        }
      ],
      "name": "StakingWithdrawn",
      "type": "event"
    },
    {
      "anonymous": false,
      "inputs": [
        {
          "indexed": true,
          "internalType": "address",
          "name": "caller",
          "type": "address"
        },
        {
          "indexed": false,
          "internalType": "address",
          "name": "receiver",
          "type": "address"
        }
      ],
      "name": "TeamVestingCancelled",
      "type": "event"
    },
    {
      "anonymous": false,
      "inputs": [
        {
          "indexed": true,
          "internalType": "address",
          "name": "caller",
          "type": "address"
        },
        {
          "indexed": false,
          "internalType": "address",
          "name": "receiver",
          "type": "address"
        },
        {
          "indexed": false,
          "internalType": "uint256",
          "name": "nextStartFrom",
          "type": "uint256"
        }
      ],
      "name": "TeamVestingPartiallyCancelled",
      "type": "event"
    },
    {
      "anonymous": false,
      "inputs": [
        {
          "indexed": true,
          "internalType": "address",
          "name": "staker",
          "type": "address"
        },
        {
          "indexed": false,
          "internalType": "uint256",
          "name": "amount",
          "type": "uint256"
        },
        {
          "indexed": false,
          "internalType": "uint256",
          "name": "lockedUntil",
          "type": "uint256"
        },
        {
          "indexed": false,
          "internalType": "uint256",
          "name": "totalStaked",
          "type": "uint256"
        }
      ],
      "name": "TokensStaked",
      "type": "event"
    },
    {
      "anonymous": false,
      "inputs": [
        {
          "indexed": false,
          "internalType": "uint256",
          "name": "amount",
          "type": "uint256"
        }
      ],
      "name": "TokensUnlocked",
      "type": "event"
    },
    {
      "anonymous": false,
      "inputs": [
        {
          "indexed": false,
          "internalType": "uint256",
          "name": "lockedTS",
          "type": "uint256"
        },
        {
          "indexed": false,
          "internalType": "uint96",
          "name": "value",
          "type": "uint96"
        }
      ],
      "name": "VestingStakeSet",
      "type": "event"
    },
    {
      "anonymous": false,
      "inputs": [
        {
          "indexed": false,
          "internalType": "address",
          "name": "vesting",
          "type": "address"
        },
        {
          "indexed": false,
          "internalType": "address",
          "name": "receiver",
          "type": "address"
        }
      ],
      "name": "VestingTokensWithdrawn",
      "type": "event"
    },
    {
      "constant": true,
      "inputs": [],
      "name": "DELEGATION_TYPEHASH",
      "outputs": [
        {
          "internalType": "bytes32",
          "name": "",
          "type": "bytes32"
        }
      ],
      "payable": false,
      "stateMutability": "view",
      "type": "function"
    },
    {
      "constant": true,
      "inputs": [],
      "name": "DOMAIN_TYPEHASH",
      "outputs": [
        {
          "internalType": "bytes32",
          "name": "",
          "type": "bytes32"
        }
      ],
      "payable": false,
      "stateMutability": "view",
      "type": "function"
    },
    {
      "constant": true,
      "inputs": [],
      "name": "MAX_DURATION",
      "outputs": [
        {
          "internalType": "uint256",
          "name": "",
          "type": "uint256"
        }
      ],
      "payable": false,
      "stateMutability": "view",
      "type": "function"
    },
    {
      "constant": true,
      "inputs": [],
      "name": "MAX_VOTING_WEIGHT",
      "outputs": [
        {
          "internalType": "uint96",
          "name": "",
          "type": "uint96"
        }
      ],
      "payable": false,
      "stateMutability": "view",
      "type": "function"
    },
    {
      "constant": true,
      "inputs": [],
      "name": "SOVToken",
      "outputs": [
        {
          "internalType": "contract IERC20",
          "name": "",
          "type": "address"
        }
      ],
      "payable": false,
      "stateMutability": "view",
      "type": "function"
    },
    {
      "constant": true,
      "inputs": [],
      "name": "WEIGHT_FACTOR",
      "outputs": [
        {
          "internalType": "uint96",
          "name": "",
          "type": "uint96"
        }
      ],
      "payable": false,
      "stateMutability": "view",
      "type": "function"
    },
    {
      "constant": true,
      "inputs": [
        {
          "internalType": "address",
          "name": "",
          "type": "address"
        }
      ],
      "name": "admins",
      "outputs": [
        {
          "internalType": "bool",
          "name": "",
          "type": "bool"
        }
      ],
      "payable": false,
      "stateMutability": "view",
      "type": "function"
    },
    {
      "constant": true,
      "inputs": [],
      "name": "allUnlocked",
      "outputs": [
        {
          "internalType": "bool",
          "name": "",
          "type": "bool"
        }
      ],
      "payable": false,
      "stateMutability": "view",
      "type": "function"
    },
    {
      "constant": false,
      "inputs": [
        {
          "internalType": "address",
          "name": "vesting",
          "type": "address"
        },
        {
          "internalType": "address",
          "name": "receiver",
          "type": "address"
        },
        {
          "internalType": "uint256",
          "name": "startFrom",
          "type": "uint256"
        }
      ],
      "name": "cancelTeamVesting",
      "outputs": [],
      "payable": false,
      "stateMutability": "nonpayable",
      "type": "function"
    },
    {
      "constant": true,
      "inputs": [
        {
          "internalType": "address",
          "name": "",
          "type": "address"
        },
        {
          "internalType": "uint256",
          "name": "",
          "type": "uint256"
        },
        {
          "internalType": "uint32",
          "name": "",
          "type": "uint32"
        }
      ],
      "name": "delegateStakingCheckpoints",
      "outputs": [
        {
          "internalType": "uint32",
          "name": "fromBlock",
          "type": "uint32"
        },
        {
          "internalType": "uint96",
          "name": "stake",
          "type": "uint96"
        }
      ],
      "payable": false,
      "stateMutability": "view",
      "type": "function"
    },
    {
      "constant": true,
      "inputs": [
        {
          "internalType": "address",
          "name": "",
          "type": "address"
        },
        {
          "internalType": "uint256",
          "name": "",
          "type": "uint256"
        }
      ],
      "name": "delegates",
      "outputs": [
        {
          "internalType": "address",
          "name": "",
          "type": "address"
        }
      ],
      "payable": false,
      "stateMutability": "view",
      "type": "function"
    },
    {
      "constant": true,
      "inputs": [],
      "name": "feeSharing",
      "outputs": [
        {
          "internalType": "contract IFeeSharingCollector",
          "name": "",
          "type": "address"
        }
      ],
      "payable": false,
      "stateMutability": "view",
      "type": "function"
    },
    {
      "constant": true,
      "inputs": [],
      "name": "frozen",
      "outputs": [
        {
          "internalType": "bool",
          "name": "",
          "type": "bool"
        }
      ],
      "payable": false,
      "stateMutability": "view",
      "type": "function"
    },
    {
      "constant": true,
      "inputs": [],
      "name": "getFunctionsList",
      "outputs": [
        {
          "internalType": "bytes4[]",
          "name": "",
          "type": "bytes4[]"
        }
      ],
      "payable": false,
      "stateMutability": "pure",
      "type": "function"
    },
    {
      "constant": true,
      "inputs": [
        {
          "internalType": "uint96",
          "name": "amount",
          "type": "uint96"
        },
        {
          "internalType": "uint256",
          "name": "until",
          "type": "uint256"
        }
      ],
      "name": "getWithdrawAmounts",
      "outputs": [
        {
          "internalType": "uint96",
          "name": "",
          "type": "uint96"
        },
        {
          "internalType": "uint96",
          "name": "",
          "type": "uint96"
        }
      ],
      "payable": false,
      "stateMutability": "view",
      "type": "function"
    },
    {
      "constant": false,
      "inputs": [
        {
          "internalType": "uint96",
          "name": "amount",
          "type": "uint96"
        },
        {
          "internalType": "uint256",
          "name": "until",
          "type": "uint256"
        },
        {
          "internalType": "address",
          "name": "receiver",
          "type": "address"
        }
      ],
      "name": "governanceWithdraw",
      "outputs": [],
      "payable": false,
      "stateMutability": "nonpayable",
      "type": "function"
    },
    {
      "constant": false,
      "inputs": [
        {
          "internalType": "address",
          "name": "vesting",
          "type": "address"
        },
        {
          "internalType": "address",
          "name": "receiver",
          "type": "address"
        }
      ],
      "name": "governanceWithdrawVesting",
      "outputs": [],
      "payable": false,
      "stateMutability": "nonpayable",
      "type": "function"
    },
    {
      "constant": true,
      "inputs": [],
      "name": "isOwner",
      "outputs": [
        {
          "internalType": "bool",
          "name": "",
          "type": "bool"
        }
      ],
      "payable": false,
      "stateMutability": "view",
      "type": "function"
    },
    {
      "constant": true,
      "inputs": [],
      "name": "kickoffTS",
      "outputs": [
        {
          "internalType": "uint256",
          "name": "",
          "type": "uint256"
        }
      ],
      "payable": false,
      "stateMutability": "view",
      "type": "function"
    },
    {
      "constant": true,
      "inputs": [],
      "name": "newStakingContract",
      "outputs": [
        {
          "internalType": "address",
          "name": "",
          "type": "address"
        }
      ],
      "payable": false,
      "stateMutability": "view",
      "type": "function"
    },
    {
      "constant": true,
      "inputs": [
        {
          "internalType": "address",
          "name": "",
          "type": "address"
        }
      ],
      "name": "nonces",
      "outputs": [
        {
          "internalType": "uint256",
          "name": "",
          "type": "uint256"
        }
      ],
      "payable": false,
      "stateMutability": "view",
      "type": "function"
    },
    {
      "constant": true,
      "inputs": [
        {
          "internalType": "address",
          "name": "",
          "type": "address"
        },
        {
          "internalType": "uint256",
          "name": "",
          "type": "uint256"
        }
      ],
      "name": "numDelegateStakingCheckpoints",
      "outputs": [
        {
          "internalType": "uint32",
          "name": "",
          "type": "uint32"
        }
      ],
      "payable": false,
      "stateMutability": "view",
      "type": "function"
    },
    {
      "constant": true,
      "inputs": [
        {
          "internalType": "uint256",
          "name": "",
          "type": "uint256"
        }
      ],
      "name": "numTotalStakingCheckpoints",
      "outputs": [
        {
          "internalType": "uint32",
          "name": "",
          "type": "uint32"
        }
      ],
      "payable": false,
      "stateMutability": "view",
      "type": "function"
    },
    {
      "constant": true,
      "inputs": [
        {
          "internalType": "address",
          "name": "",
          "type": "address"
        },
        {
          "internalType": "uint256",
          "name": "",
          "type": "uint256"
        }
      ],
      "name": "numUserStakingCheckpoints",
      "outputs": [
        {
          "internalType": "uint32",
          "name": "",
          "type": "uint32"
        }
      ],
      "payable": false,
      "stateMutability": "view",
      "type": "function"
    },
    {
      "constant": true,
      "inputs": [
        {
          "internalType": "uint256",
          "name": "",
          "type": "uint256"
        }
      ],
      "name": "numVestingCheckpoints",
      "outputs": [
        {
          "internalType": "uint32",
          "name": "",
          "type": "uint32"
        }
      ],
      "payable": false,
      "stateMutability": "view",
      "type": "function"
    },
    {
      "constant": true,
      "inputs": [],
      "name": "owner",
      "outputs": [
        {
          "internalType": "address",
          "name": "",
          "type": "address"
        }
      ],
      "payable": false,
      "stateMutability": "view",
      "type": "function"
    },
    {
      "constant": true,
      "inputs": [],
      "name": "paused",
      "outputs": [
        {
          "internalType": "bool",
          "name": "",
          "type": "bool"
        }
      ],
      "payable": false,
      "stateMutability": "view",
      "type": "function"
    },
    {
      "constant": true,
      "inputs": [
        {
          "internalType": "address",
          "name": "",
          "type": "address"
        }
      ],
      "name": "pausers",
      "outputs": [
        {
          "internalType": "bool",
          "name": "",
          "type": "bool"
        }
      ],
      "payable": false,
      "stateMutability": "view",
      "type": "function"
    },
    {
      "constant": false,
      "inputs": [
        {
          "internalType": "uint256",
          "name": "newMaxIterations",
          "type": "uint256"
        }
      ],
      "name": "setMaxVestingWithdrawIterations",
      "outputs": [],
      "payable": false,
      "stateMutability": "nonpayable",
      "type": "function"
    },
    {
      "constant": true,
      "inputs": [
        {
          "internalType": "uint256",
          "name": "",
          "type": "uint256"
        },
        {
          "internalType": "uint32",
          "name": "",
          "type": "uint32"
        }
      ],
      "name": "totalStakingCheckpoints",
      "outputs": [
        {
          "internalType": "uint32",
          "name": "fromBlock",
          "type": "uint32"
        },
        {
          "internalType": "uint96",
          "name": "stake",
          "type": "uint96"
        }
      ],
      "payable": false,
      "stateMutability": "view",
      "type": "function"
    },
    {
      "constant": false,
      "inputs": [
        {
          "internalType": "address",
          "name": "newOwner",
          "type": "address"
        }
      ],
      "name": "transferOwnership",
      "outputs": [],
      "payable": false,
      "stateMutability": "nonpayable",
      "type": "function"
    },
    {
      "constant": false,
      "inputs": [],
      "name": "unlockAllTokens",
      "outputs": [],
      "payable": false,
      "stateMutability": "nonpayable",
      "type": "function"
    },
    {
      "constant": true,
      "inputs": [
        {
          "internalType": "address",
          "name": "",
          "type": "address"
        },
        {
          "internalType": "uint256",
          "name": "",
          "type": "uint256"
        },
        {
          "internalType": "uint32",
          "name": "",
          "type": "uint32"
        }
      ],
      "name": "userStakingCheckpoints",
      "outputs": [
        {
          "internalType": "uint32",
          "name": "fromBlock",
          "type": "uint32"
        },
        {
          "internalType": "uint96",
          "name": "stake",
          "type": "uint96"
        }
      ],
      "payable": false,
      "stateMutability": "view",
      "type": "function"
    },
    {
      "constant": true,
      "inputs": [
        {
          "internalType": "uint256",
          "name": "",
          "type": "uint256"
        },
        {
          "internalType": "uint32",
          "name": "",
          "type": "uint32"
        }
      ],
      "name": "vestingCheckpoints",
      "outputs": [
        {
          "internalType": "uint32",
          "name": "fromBlock",
          "type": "uint32"
        },
        {
          "internalType": "uint96",
          "name": "stake",
          "type": "uint96"
        }
      ],
      "payable": false,
      "stateMutability": "view",
      "type": "function"
    },
    {
      "constant": true,
      "inputs": [
        {
          "internalType": "bytes32",
          "name": "",
          "type": "bytes32"
        }
      ],
      "name": "vestingCodeHashes",
      "outputs": [
        {
          "internalType": "bool",
          "name": "",
          "type": "bool"
        }
      ],
      "payable": false,
      "stateMutability": "view",
      "type": "function"
    },
    {
      "constant": true,
      "inputs": [],
      "name": "vestingRegistryLogic",
      "outputs": [
        {
          "internalType": "contract IVestingRegistry",
          "name": "",
          "type": "address"
        }
      ],
      "payable": false,
      "stateMutability": "view",
      "type": "function"
    },
    {
      "constant": true,
      "inputs": [
        {
          "internalType": "address",
          "name": "",
          "type": "address"
        }
      ],
      "name": "vestingWhitelist",
      "outputs": [
        {
          "internalType": "bool",
          "name": "",
          "type": "bool"
        }
      ],
      "payable": false,
      "stateMutability": "view",
      "type": "function"
    },
    {
      "constant": true,
      "inputs": [],
      "name": "weightScaling",
      "outputs": [
        {
          "internalType": "uint96",
          "name": "",
          "type": "uint96"
        }
      ],
      "payable": false,
      "stateMutability": "view",
      "type": "function"
    },
    {
      "constant": false,
      "inputs": [
        {
          "internalType": "uint96",
          "name": "amount",
          "type": "uint96"
        },
        {
          "internalType": "uint256",
          "name": "until",
          "type": "uint256"
        },
        {
          "internalType": "address",
          "name": "receiver",
          "type": "address"
        }
      ],
      "name": "withdraw",
      "outputs": [],
      "payable": false,
      "stateMutability": "nonpayable",
      "type": "function"
    }
  ],
  "transactionHash": "0x989bcc436aea14c5b3f6165a94031f270a8940f2d3e3e1eea3634c93cbb0fdbc",
  "args": [],
  "numDeployments": 1,
  "solcInputHash": "2c93ebf59c8148f10476453f6cdb8bb8",
  "bytecode": "0x60c0604052600a608081905269534f565374616b696e6760b01b60a09081526200002d9160029190620000ae565b506005805460ff19169055600d80546001600160a01b0316600360a01b179055600062000059620000a9565b600080546001600160a01b0319166001600160a01b0383169081178255604051929350917f8be0079c531659141344cd1fd0a4f28419497f9722a3daafe3b4186f6b6457e0908290a35062000150565b335b90565b828054600181600116156101000203166002900490600052602060002090601f016020900481019282601f10620000f157805160ff191683800117855562000121565b8280016001018555821562000121579182015b828111156200012157825182559160200191906001019062000104565b506200012f92915062000133565b5090565b620000ab91905b808211156200012f57600081556001016200013a565b61341580620001606000396000f3fe608060405234801561001057600080fd5b506004361061023c5760003560e01c80638da5cb5b1161013b578063bb533cf2116100b8578063db27ec181161007c578063db27ec181461048e578063dfb267c2146104a1578063e7a324dc146104b4578063f2fde38b146104bc578063f3f19731146104cf5761023c565b8063bb533cf214610443578063bf626ec114610456578063d27569e71461045e578063d8ad326d14610466578063dab6ca441461047b5761023c565b80639929e886116100ff5780639929e88614610410578063a58848c514610418578063adae900214610420578063ae81dfe414610433578063b1724b461461043b5761023c565b80638da5cb5b146103ac5780638f32d59b146103b45780639436e7d4146103bc57806394c2ce58146103dc57806396a590c1146103ef5761023c565b8063429b62e5116101c95780636b6fde0e1161018d5780636b6fde0e1461034d578063765dade9146103605780637ecebe0014610373578063800b64ca1461038657806380f51c12146103995761023c565b8063429b62e5146102f65780635b66a324146103095780635c975abb1461031c5780635e0be6071461032457806368cefccc1461032c5761023c565b8063104932cf11610210578063104932cf1461029c57806317748adc146102a457806320606b70146102b957806327dd1b00146102c15780633827fca5146102e15761023c565b8062073f991461024157806303a18fa31461025f578063054f7d9c1461027457806307392cc014610289575b600080fd5b6102496104e2565b6040516102569190613137565b60405180910390f35b6102676104e8565b6040516102569190613145565b61027c6104f7565b6040516102569190613129565b61027c610297366004612a66565b610505565b61026761051a565b6102ac610529565b60405161025691906132b6565b61024961052e565b6102d46102cf3660046129d5565b610545565b604051610256919061309e565b6102f46102ef36600461294e565b61056b565b005b61027c61030436600461290a565b6107dc565b6102f4610317366004612a66565b6107f1565b61027c6108b7565b6102f46108c0565b61033f61033a366004612a05565b6109d0565b6040516102569291906132a8565b61033f61035b366004612a05565b610a0b565b6102f461036e366004612988565b610a46565b61024961038136600461290a565b610b5a565b6102f4610394366004612af1565b610b6c565b61027c6103a736600461290a565b610beb565b6102d4610c00565b61027c610c0f565b6103cf6103ca366004612a66565b610c33565b604051610256919061329a565b6103cf6103ea3660046129d5565b610c4b565b6104026103fd366004612ad2565b610c6e565b6040516102569291906132ec565b61027c610c9f565b610267610ca8565b61027c61042e36600461290a565b610cb7565b6102d4610ccc565b610249610ce0565b6103cf610451366004612a66565b610ce8565b6102ac610d00565b6102ac610d16565b61046e610d1b565b6040516102569190613118565b6102f4610489366004612af1565b610e9b565b6103cf61049c3660046129d5565b610ef1565b61033f6104af366004612aa2565b610f14565b610249610f49565b6102f46104ca36600461290a565b610f55565b61033f6104dd366004612aa2565b610f85565b60015481565b600d546001600160a01b031681565b601554610100900460ff1681565b60106020526000908152604090205460ff1681565b6013546001600160a01b031681565b600981565b60405161053a90613088565b604051809103902081565b60046020908152600092835260408084209091529082529020546001600160a01b031681565b610573610c0f565b8061058d5750336000908152600f602052604090205460ff165b6105b25760405162461bcd60e51b81526004016105a9906131d4565b60405180910390fd5b601554610100900460ff16156105da5760405162461bcd60e51b81526004016105a990613244565b601354604051637a10f6bf60e11b81526001600160a01b039091169063f421ed7e9061060a90859060040161309e565b60206040518083038186803b15801561062257600080fd5b505afa158015610636573d6000803e3d6000fd5b505050506040513d601f19601f8201168201806040525061065a9190810190612a48565b6106765760405162461bcd60e51b81526004016105a990613234565b60008290506000816001600160a01b0316630b97bc866040518163ffffffff1660e01b815260040160206040518083038186803b1580156106b657600080fd5b505afa1580156106ca573d6000803e3d6000fd5b505050506040513d601f19601f820116820180604052506106ee9190810190612a84565b90506000826001600160a01b03166313d033c06040518163ffffffff1660e01b815260040160206040518083038186803b15801561072b57600080fd5b505afa15801561073f573d6000803e3d6000fd5b505050506040513d601f19601f820116820180604052506107639190810190612a84565b9050818101600160005b81156107995761077e888885610fba565b90935090508061078f576000610792565b60015b915061076d565b7f2366e0b6b1af17c0ceed50685c570d519cae11e7faaf007bbe667e94a5ee3cd588886040516107ca9291906130ac565b60405180910390a15050505050505050565b600f6020526000908152604090205460ff1681565b6107f9610c0f565b806108135750336000908152600f602052604090205460ff165b61082f5760405162461bcd60e51b81526004016105a9906131d4565b601554610100900460ff16156108575760405162461bcd60e51b81526004016105a990613244565b600081116108775760405162461bcd60e51b81526004016105a9906131a4565b7f22eba8caa37576c2c857166fc151e8b5bb22942eaef5638da0e96d6156333bee601654826040516108aa929190613264565b60405180910390a1601655565b60155460ff1681565b6108c8610c0f565b6108e45760405162461bcd60e51b81526004016105a9906131d4565b601554610100900460ff161561090c5760405162461bcd60e51b81526004016105a990613244565b6005805460ff191660011790556003546040516370a0823160e01b81527fd8cc4e8d808fe950b07bfffcd83eebf1190cd35ea77fe0c8a7d75a6e9b90e5c1916001600160a01b0316906370a082319061096990309060040161309e565b60206040518083038186803b15801561098157600080fd5b505afa158015610995573d6000803e3d6000fd5b505050506040513d601f19601f820116820180604052506109b99190810190612a84565b6040516109c69190613137565b60405180910390a1565b600a60209081526000938452604080852082529284528284209052825290205463ffffffff811690600160201b90046001600160601b031682565b600860209081526000938452604080852082529284528284209052825290205463ffffffff811690600160201b90046001600160601b031682565b610a4e610c0f565b80610a685750336000908152600f602052604090205460ff165b610a845760405162461bcd60e51b81526004016105a9906131d4565b601554610100900460ff1615610aac5760405162461bcd60e51b81526004016105a990613244565b601354604051637a10f6bf60e11b81526001600160a01b039091169063f421ed7e90610adc90869060040161309e565b60206040518083038186803b158015610af457600080fd5b505afa158015610b08573d6000803e3d6000fd5b505050506040513d601f19601f82011682018060405250610b2c9190810190612a48565b610b485760405162461bcd60e51b81526004016105a990613234565b610b53838383610fba565b5050505050565b600c6020526000908152604090205481565b601554610100900460ff1615610b945760405162461bcd60e51b81526004016105a990613244565b336000908152600e602052604090205460ff16610bc35760405162461bcd60e51b81526004016105a9906131d4565b610bcd82336113a0565b610bda8383836001611417565b610be682826001611710565b505050565b60146020526000908152604090205460ff1681565b6000546001600160a01b031690565b600080546001600160a01b0316610c24611773565b6001600160a01b031614905090565b60076020526000908152604090205463ffffffff1681565b600960209081526000928352604080842090915290825290205463ffffffff1681565b600080610c7a83611777565b9250610c8733858561179f565b6000610c93858561180c565b94859003959350505050565b60055460ff1681565b6003546001600160a01b031681565b600e6020526000908152604090205460ff1681565b60055461010090046001600160a01b031681565b63059fa60081565b60126020526000908152604090205463ffffffff1681565b600d54600160a01b90046001600160601b031681565b600a81565b60408051600780825261010082019092526060918291906020820160e08038833901905050905063dab6ca4460e01b81600081518110610d5757fe5b6001600160e01b031990921660209283029190910190910152805163765dade960e01b9082906001908110610d8857fe5b6001600160e01b03199092166020928302919091019091015280516396a590c160e01b9082906002908110610db957fe5b6001600160e01b0319909216602092830291909101909101528051635e0be60760e01b9082906003908110610dea57fe5b6001600160e01b03199092166020928302919091019091015280516316d9a8c960e21b9082906004908110610e1b57fe5b6001600160e01b0319909216602092830291909101909101528051634005b26560e11b9082906005908110610e4c57fe5b6001600160e01b0319909216602092830291909101909101528051633827fca560e01b9082906006908110610e7d57fe5b6001600160e01b031990921660209283029190910190910152905090565b601554610100900460ff1615610ec35760405162461bcd60e51b81526004016105a990613244565b610ecc82611777565b9150610ed882336113a0565b610ee58383836000611417565b610be682826000611710565b600b60209081526000928352604080842090915290825290205463ffffffff1681565b600660209081526000928352604080842090915290825290205463ffffffff811690600160201b90046001600160601b031682565b60405161053a90613093565b610f5d610c0f565b610f795760405162461bcd60e51b81526004016105a9906131d4565b610f8281611858565b50565b601160209081526000928352604080842090915290825290205463ffffffff811690600160201b90046001600160601b031682565b6000806001600160a01b038416610fe35760405162461bcd60e51b81526004016105a990613224565b84610fec61285e565b6040518060c00160405280886001600160a01b03168152602001836001600160a01b0316630b97bc866040518163ffffffff1660e01b815260040160206040518083038186803b15801561103f57600080fd5b505afa158015611053573d6000803e3d6000fd5b505050506040513d601f19601f820116820180604052506110779190810190612a84565b8152602001836001600160a01b031663c24a0f8b6040518163ffffffff1660e01b815260040160206040518083038186803b1580156110b557600080fd5b505afa1580156110c9573d6000803e3d6000fd5b505050506040513d601f19601f820116820180604052506110ed9190810190612a84565b8152602001836001600160a01b03166313d033c06040518163ffffffff1660e01b815260040160206040518083038186803b15801561112b57600080fd5b505afa15801561113f573d6000803e3d6000fd5b505050506040513d601f19601f820116820180604052506111639190810190612a84565b8152602001836001600160a01b0316630fb5a6b46040518163ffffffff1660e01b815260040160206040518083038186803b1580156111a157600080fd5b505afa1580156111b5573d6000803e3d6000fd5b505050506040513d601f19601f820116820180604052506111d99190810190612a84565b8152602001836001600160a01b031663a3e676106040518163ffffffff1660e01b815260040160206040518083038186803b15801561121757600080fd5b505afa15801561122b573d6000803e3d6000fd5b505050506040513d601f19601f8201168201806040525061124f9190810190612930565b6001600160a01b031690526040810151606082015160208301519293509091018087101561127d578061127f565b865b9650600060016016540362127500028801905060008184106112a157816112a3565b835b9050885b8181116112e65760006112be8d83600143036118d9565b90506001600160601b038116156112db576112db81838e8a611b2f565b5062127500016112a7565b508381101561134a576212750081019750336001600160a01b03167ff1cfeb0937231950f2400ba429108263d3af23c90f72599bf13148e6332fe06d8b8a6040516113329291906130c7565b60405180910390a25060019550611398945050505050565b336001600160a01b03167f9436f4ed1fe17491f53c6d68a08b946bc9884039fccd83e8190203e15eff55bf8b604051611383919061309e565b60405180910390a25091955060009450505050505b935093915050565b6001600160a01b0381166000818152600b60209081526040808320868452825280832054938352600a8252808320868452825280832060001963ffffffff95861690810186168552925290912054909116431415806114115760405162461bcd60e51b81526004016105a990613214565b50505050565b836001600160601b03166001148015611434575061143433611c93565b1561143e57611411565b61144933858561179f565b6001600160a01b03821661145b573391505b6114658385611d6c565b611470338486611de6565b61147933611c93565b15611488576114888385611e85565b3360009081526004602090815260408083208684529091529020546114b7906001600160a01b03168486611eff565b82421080156114c9575060055460ff16155b80156114d3575080155b156116165760006114e4858561180c565b948590039490506001600160601b0381161561161457600d546001600160a01b03166115225760405162461bcd60e51b81526004016105a990613254565b600354600d5460405163095ea7b360e01b81526001600160a01b039283169263095ea7b3926115589291169085906004016130e2565b602060405180830381600087803b15801561157257600080fd5b505af1158015611586573d6000803e3d6000fd5b505050506040513d601f19601f820116820180604052506115aa9190810190612a48565b50600d5460035460405163abe979e160e01b81526001600160a01b039283169263abe979e1926115e19291169085906004016130fd565b600060405180830381600087803b1580156115fb57600080fd5b505af115801561160f573d6000803e3d6000fd5b505050505b505b60035460405163a9059cbb60e01b81526000916001600160a01b03169063a9059cbb9061164990869089906004016130e2565b602060405180830381600087803b15801561166357600080fd5b505af1158015611677573d6000803e3d6000fd5b505050506040513d601f19601f8201168201806040525061169b9190810190612a48565b9050806116ba5760405162461bcd60e51b81526004016105a9906131b4565b826001600160a01b0316336001600160a01b03167f667b6c8ed8622dae7927a8b0837455098e32037a0181f9a2e21b9b72fead6cc7878786604051611701939291906132c4565b60405180910390a35050505050565b61171933611c93565b15610be6576000611733846212750063ffffffff611fa016565b905081806117415750804210155b156114115760006117563383600143036118d9565b90506001600160601b03811615610b5357610b5381838686611417565b3390565b60008061178383611fc5565b90508281146117955762127500810192505b829150505b919050565b6000826001600160601b0316116117c85760405162461bcd60e51b81526004016105a9906131c4565b60006117d88483600143036118d9565b9050806001600160601b0316836001600160601b031611156114115760405162461bcd60e51b81526004016105a990613184565b60008061181842611fc5565b905060006118268483612005565b600d546064600a6001600160601b03600160a01b90930483169390930288028216929092041604925050505b92915050565b6001600160a01b03811661187e5760405162461bcd60e51b81526004016105a990613174565b600080546040516001600160a01b03808516939216917f8be0079c531659141344cd1fd0a4f28419497f9722a3daafe3b4186f6b6457e091a3600080546001600160a01b0319166001600160a01b0392909216919091179055565b60006118e361213b565b82106119015760405162461bcd60e51b81526004016105a9906131f4565b61190a83611777565b6001600160a01b0385166000908152600b6020908152604080832084845290915290205490935063ffffffff1680611946576000915050611b28565b6001600160a01b0385166000908152600a60209081526040808320878452825280832063ffffffff6000198601811685529252909120541683106119d2576001600160a01b0385166000908152600a6020908152604080832087845282528083206000199490940163ffffffff1683529290522054600160201b90046001600160601b03169050611b28565b6001600160a01b0385166000908152600a60209081526040808320878452825280832083805290915290205463ffffffff16831015611a15576000915050611b28565b600060001982015b8163ffffffff168163ffffffff161115611ae057600282820363ffffffff16048103611a476128a6565b506001600160a01b0388166000908152600a602090815260408083208a8452825280832063ffffffff858116855290835292819020815180830190925254928316808252600160201b9093046001600160601b03169181019190915290871415611abb57602001519450611b289350505050565b805163ffffffff16871115611ad257819350611ad9565b6001820392505b5050611a1d565b506001600160a01b0386166000908152600a60209081526040808320888452825280832063ffffffff909416835292905220546001600160601b03600160201b909104169150505b9392505050565b8051611b3a84611fc5565b9350611b4781868661179f565b611b518486611d6c565b611b5c818587611de6565b611b668486611e85565b6001600160a01b038082166000908152600460209081526040808320888452909152902054611b9791168587611eff565b60035460405163a9059cbb60e01b81526000916001600160a01b03169063a9059cbb90611bca9087908a906004016130e2565b602060405180830381600087803b158015611be457600080fd5b505af1158015611bf8573d6000803e3d6000fd5b505050506040513d601f19601f82011682018060405250611c1c9190810190612a48565b905080611c3b5760405162461bcd60e51b81526004016105a9906131b4565b836001600160a01b0316826001600160a01b03167f667b6c8ed8622dae7927a8b0837455098e32037a0181f9a2e21b9b72fead6cc788886001604051611c83939291906132c4565b60405180910390a3505050505050565b6013546000908190833f906001600160a01b031615611d2f57601354604051633288436360e21b81526001600160a01b039091169063ca210d8c90611cdc90879060040161309e565b60206040518083038186803b158015611cf457600080fd5b505afa158015611d08573d6000803e3d6000fd5b505050506040513d601f19601f82011682018060405250611d2c9190810190612a48565b91505b8115611d405760019250505061179a565b60008181526010602052604090205460ff1615611d625760019250505061179a565b5060009392505050565b6000828152600760209081526040808320546006835281842063ffffffff91821660001981019092168552835281842054825180840190935260048352634350313160e01b9383019390935292600160201b9092046001600160601b03169190611dd9908390869061213f565b9050610b5385848361217e565b6001600160a01b0383166000818152600b60209081526040808320868452825280832054938352600a8252808320868452825280832063ffffffff94851660001981019095168452825280832054815180830190925260048252634350303560e01b92820192909252600160201b9091046001600160601b03169190611e6f908390869061213f565b9050611e7d868685846122be565b505050505050565b6000828152601260209081526040808320546011835281842063ffffffff918216600019810190921685528352818420548251808401909352600483526321a8181960e11b9383019390935292600160201b9092046001600160601b03169190611ef2908390869061213f565b9050610b53858483612440565b6001600160a01b038316600081815260096020908152604080832086845282528083205493835260088252808320868452825280832063ffffffff94851660001981019095168452909152812054600160201b90046001600160601b0390811691908416821115611f9457611f91828560405180604001604052806004815260200163086a060760e31b81525061213f565b90505b611e7d86868584612580565b600082820183811015611b285760405162461bcd60e51b81526004016105a990613194565b60015460009080831015611feb5760405162461bcd60e51b81526004016105a990613164565b600062127500828503046212750002919091019392505050565b6000818310156120275760405162461bcd60e51b81526004016105a9906131e4565b81830363059fa60081111561204e5760405162461bcd60e51b81526004016105a990613204565b6000620151808263059fa600036001600160601b03168161206b57fe5b049050612132600a621232106001600160601b03166120f1600a6009026120c0621232108788026040518060400160405280601081526020016f77656967687420756e646572666c6f7760801b81525061213f565b60405180604001604052806013815260200172776569676874206d756c206f766572666c6f7760681b815250612795565b6001600160601b03168161210157fe5b04604051806040016040528060128152602001711bdd995c999b1bddc81bdb881dd95a59da1d60721b8152506127fc565b95945050505050565b4390565b6000836001600160601b0316836001600160601b0316111582906121765760405162461bcd60e51b81526004016105a99190613153565b505050900390565b60006121a6436040518060400160405280600481526020016321a8189960e11b81525061282f565b905060008363ffffffff161180156121e55750600084815260066020908152604080832063ffffffff6000198801811685529252909120548282169116145b15612234576000848152600660209081526040808320600019870163ffffffff16845290915290208054600160201b600160801b031916600160201b6001600160601b03851602179055611411565b60408051808201825263ffffffff92831681526001600160601b0393841660208083019182526000888152600682528481208887168252825284812093518454935163ffffffff1994851691881691909117600160201b600160801b031916600160201b919098160296909617909255958452600790529091208054909316600190920116179055565b60006122e6436040518060400160405280600481526020016321a8181b60e11b81525061282f565b905060008363ffffffff1611801561233757506001600160a01b0385166000908152600a60209081526040808320878452825280832063ffffffff6000198801811685529252909120548282169116145b15612398576001600160a01b0385166000908152600a602090815260408083208784528252808320600019870163ffffffff16845290915290208054600160201b600160801b031916600160201b6001600160601b03851602179055610b53565b60408051808201825263ffffffff92831681526001600160601b0393841660208083019182526001600160a01b03989098166000818152600a8a528481208982528a5284812088871682528a52848120935184549351909716600160201b02600160201b600160801b031997871663ffffffff19948516179790971696909617909255908452600b875281842095845294909552939020805460019092019093169116179055565b600061246843604051806040016040528060048152602001634350303360e01b81525061282f565b905060008363ffffffff161180156124a75750600084815260116020908152604080832063ffffffff6000198801811685529252909120548282169116145b156124f6576000848152601160209081526040808320600019870163ffffffff16845290915290208054600160201b600160801b031916600160201b6001600160601b03851602179055611411565b60408051808201825263ffffffff92831681526001600160601b0393841660208083019182526000888152601182528481208887168252825284812093518454935163ffffffff1994851691881691909117600160201b600160801b031916600160201b919098160296909617909255958452601290529091208054909316600190920116179055565b60006125a843604051806040016040528060048152602001634350303960e01b81525061282f565b6001600160a01b03861660009081526008602090815260408083208884528252808320600019880163ffffffff9081168552925290912054919250600160201b9091046001600160601b03169084161580159061263e57506001600160a01b0386166000908152600860209081526040808320888452825280832063ffffffff6000198901811685529252909120548382169116145b1561269f576001600160a01b03861660009081526008602090815260408083208884528252808320600019880163ffffffff16845290915290208054600160201b600160801b031916600160201b6001600160601b03861602179055612748565b60408051808201825263ffffffff80851682526001600160601b0380871660208085019182526001600160a01b038c166000818152600883528781208d825283528781208c871682528352878120965187549451909516600160201b02600160201b600160801b031995871663ffffffff19958616179590951694909417909555938252600984528482208a835290935292909220805460018801909316929091169190911790555b856001600160a01b03167fc7b38fb25352e6f351f57e2c922f84db5c97e09a6246bbe1d2eedfcdb01c4c6286838660405161278593929190613272565b60405180910390a2505050505050565b60006001600160601b0384166127ad57506000611b28565b8383026001600160601b0380851690808716908316816127c957fe5b046001600160601b03161483906127f35760405162461bcd60e51b81526004016105a99190613153565b50949350505050565b6000838301826001600160601b0380871690831610156127f35760405162461bcd60e51b81526004016105a99190613153565b600081600160201b84106128565760405162461bcd60e51b81526004016105a99190613153565b509192915050565b6040518060c0016040528060006001600160a01b031681526020016000815260200160008152602001600081526020016000815260200160006001600160a01b031681525090565b604080518082019091526000808252602082015290565b80356118528161339a565b80516118528161339a565b8051611852816133ae565b8035611852816133b7565b8051611852816133b7565b8035611852816133c0565b8035611852816133c9565b60006020828403121561291c57600080fd5b600061292884846128bd565b949350505050565b60006020828403121561294257600080fd5b600061292884846128c8565b6000806040838503121561296157600080fd5b600061296d85856128bd565b925050602061297e858286016128bd565b9150509250929050565b60008060006060848603121561299d57600080fd5b60006129a986866128bd565b93505060206129ba868287016128bd565b92505060406129cb868287016128de565b9150509250925092565b600080604083850312156129e857600080fd5b60006129f485856128bd565b925050602061297e858286016128de565b600080600060608486031215612a1a57600080fd5b6000612a2686866128bd565b9350506020612a37868287016128de565b92505060406129cb868287016128f4565b600060208284031215612a5a57600080fd5b600061292884846128d3565b600060208284031215612a7857600080fd5b600061292884846128de565b600060208284031215612a9657600080fd5b600061292884846128e9565b60008060408385031215612ab557600080fd5b6000612ac185856128de565b925050602061297e858286016128f4565b60008060408385031215612ae557600080fd5b60006129f485856128ff565b600080600060608486031215612b0657600080fd5b6000612b1286866128ff565b9350506020612b23868287016128de565b92505060406129cb868287016128bd565b6000612b408383612bc2565b505060200190565b612b518161330d565b82525050565b6000612b6282613300565b612b6c8185613304565b9350612b77836132fa565b8060005b83811015612ba5578151612b8f8882612b34565b9750612b9a836132fa565b925050600101612b7b565b509495945050505050565b612b5181613318565b612b518161331d565b612b5181613320565b612b518161334e565b6000612bdf82613300565b612be98185613304565b9350612bf9818560208601613364565b612c0281613390565b9093019392505050565b6000612c19601d83613304565b7f74696d657374616d70203c20636f6e7472616374206372656174696f6e000000815260200192915050565b6000612c52602683613304565b7f4f776e61626c653a206e6577206f776e657220697320746865207a65726f206181526564647265737360d01b602082015260400192915050565b6000612c9a602583613304565b7f5374616b696e673a3a77697468647261773a206e6f7420656e6f7567682062618152646c616e636560d81b602082015260400192915050565b6000612ce1601b83613304565b7f536166654d6174683a206164646974696f6e206f766572666c6f770000000000815260200192915050565b6000612d1a601683613304565b75496e76616c6964206d617820697465726174696f6e7360501b815260200192915050565b6000612d4c601583613304565b74151bdad95b881d1c985b9cd9995c8819985a5b1959605a1b815260200192915050565b6000612d7d602883613304565b7f416d6f756e74206f6620746f6b656e7320746f207769746864726177206d7573815267074206265203e20360c41b602082015260400192915050565b6000612dc760438361179a565b7f454950373132446f6d61696e28737472696e67206e616d652c75696e7432353681527f20636861696e49642c6164647265737320766572696679696e67436f6e74726160208201526263742960e81b604082015260430192915050565b6000612e32600c83613304565b6b1d5b985d5d1a1bdc9a5e995960a21b815260200192915050565b6000612e5a601083613304565b6f64617465203c2073746172744461746560801b815260200192915050565b6000612e86600e83613304565b6d1b9bdd0819195d195c9b5a5b995960921b815260200192915050565b6000612eb0601d83613304565b7f72656d61696e696e672074696d65203e206d6178206475726174696f6e000000815260200192915050565b6000612ee9602f83613304565b7f63616e6e6f74206265206d696e656420696e207468652073616d6520626c6f6381526e6b206173206c617374207374616b6560881b602082015260400192915050565b6000612f3a601883613304565b7f7265636569766572206164647265737320696e76616c69640000000000000000815260200192915050565b6000612f73601983613304565b7f4f6e6c79207465616d2076657374696e6720616c6c6f77656400000000000000815260200192915050565b6000612fac604b8361179a565b7f44656c65676174696f6e28616464726573732064656c6567617465652c75696e81527f74323536206c6f636b446174652c75696e74323536206e6f6e63652c75696e7460208201526a323536206578706972792960a81b6040820152604b0192915050565b600061301f600683613304565b651c185d5cd95960d21b815260200192915050565b6000613041601d83613304565b7f46656553686172696e672061646472657373207761736e277420736574000000815260200192915050565b612b5181613339565b612b5181613359565b612b5181613342565b600061185282612dba565b600061185282612f9f565b602081016118528284612b48565b604081016130ba8285612b48565b611b286020830184612b48565b604081016130d58285612b48565b611b286020830184612bb9565b604081016130f08285612b48565b611b286020830184613076565b6040810161310b8285612b48565b611b28602083018461307f565b60208082528101611b288184612b57565b602081016118528284612bb0565b602081016118528284612bb9565b602081016118528284612bcb565b60208082528101611b288184612bd4565b6020808252810161185281612c0c565b6020808252810161185281612c45565b6020808252810161185281612c8d565b6020808252810161185281612cd4565b6020808252810161185281612d0d565b6020808252810161185281612d3f565b6020808252810161185281612d70565b6020808252810161185281612e25565b6020808252810161185281612e4d565b6020808252810161185281612e79565b6020808252810161185281612ea3565b6020808252810161185281612edc565b6020808252810161185281612f2d565b6020808252810161185281612f66565b6020808252810161185281613012565b6020808252810161185281613034565b604081016130d58285612bb9565b606081016132808286612bb9565b61328d6020830185613076565b6129286040830184613076565b60208101611852828461306d565b6040810161310b828561306d565b60208101611852828461307f565b606081016132d28286613076565b6132df6020830185612bb9565b6129286040830184612bb0565b6040810161310b828561307f565b60200190565b5190565b90815260200190565b60006118528261332d565b151590565b90565b6001600160e01b03191690565b6001600160a01b031690565b63ffffffff1690565b6001600160601b031690565b60006118528261330d565b600061185282613342565b60005b8381101561337f578181015183820152602001613367565b838111156114115750506000910152565b601f01601f191690565b6133a38161330d565b8114610f8257600080fd5b6133a381613318565b6133a38161331d565b6133a381613339565b6133a38161334256fea365627a7a723158205106488d9a89be0ce22f64b9f9df8dcc827be17cfa97576ae53cc71f973f75756c6578706572696d656e74616cf564736f6c63430005110040",
  "devdoc": {
    "methods": {
      "cancelTeamVesting(address,address,uint256)": {
        "params": {
          "receiver": "The receiving address.",
          "startFrom": "The start value for the iterations.",
          "vesting": "The vesting address."
        }
      },
      "getWithdrawAmounts(uint96,uint256)": {
        "params": {
          "amount": "The number of tokens to withdraw.",
          "until": "The date until which the tokens were staked. Adjusted to the next valid lock date, if necessary."
        },
        "return": "Amount to withraw and penalty amount"
      },
      "governanceWithdraw(uint96,uint256,address)": {
        "details": "Can be invoked only by whitelisted contract passed to governanceWithdrawVesting",
        "params": {
          "amount": "The number of tokens to withdraw.",
          "receiver": "The receiver of the tokens. If not specified, send to the msg.sender",
          "until": "The date until which the tokens were staked."
        }
      },
      "governanceWithdrawVesting(address,address)": {
        "details": "This function is dedicated only to support backward compatibility for sovryn ecosystem that has been implementing this staking contract.Sovryn protocol will use the cancelTeamVesting function for the withdrawal moving forward. https://github.com/DistributedCollective/Sovryn-smart-contracts/blob/4bbfe5bd0311ca71e4ef0e3af810d3791d8e4061/contracts/governance/Staking/modules/StakingWithdrawModule.sol#L78",
        "params": {
          "receiver": "The receiver of the tokens. If not specified, send to the msg.sender",
          "vesting": "The address of Vesting contract."
        }
      },
      "isOwner()": {
        "details": "Returns true if the caller is the current owner."
      },
      "owner()": {
        "details": "Returns the address of the current owner."
      },
      "setMaxVestingWithdrawIterations(uint256)": {
        "details": "set max withdraw iterations.",
        "params": {
          "newMaxIterations": "new max iterations value."
        }
      },
      "transferOwnership(address)": {
        "details": "Transfers ownership of the contract to a new account (`newOwner`). Can only be called by the current owner."
      },
      "unlockAllTokens()": {
        "details": "Last resort."
      },
      "withdraw(uint96,uint256,address)": {
        "details": "If until is not a valid lock date, the next lock date after until is used.",
        "params": {
          "amount": "The number of tokens to withdraw.",
          "receiver": "The receiver of the tokens. If not specified, send to the msg.sender",
          "until": "The date until which the tokens were staked."
        }
      }
    },
    "title": "Staking withdrawal functionality module*"
  },
  "userdoc": {
    "methods": {
      "cancelTeamVesting(address,address,uint256)": {
        "notice": "Governance withdraw vesting directly through staking contract. This direct withdraw vesting solves the out of gas issue when there are too many iterations when withdrawing. This function only allows cancelling vesting contract of the TeamVesting type."
      },
      "getWithdrawAmounts(uint96,uint256)": {
        "notice": "Get available and punished amount for withdrawing."
      },
      "governanceWithdraw(uint96,uint256,address)": {
        "notice": "Withdraw the given amount of tokens."
      },
      "governanceWithdrawVesting(address,address)": {
        "notice": "Withdraw tokens for vesting contract."
      },
      "unlockAllTokens()": {
        "notice": "Allow the owner to unlock all tokens in case the staking contract is going to be replaced Note: Not reversible on purpose. once unlocked, everything is unlocked. The owner should not be able to just quickly unlock to withdraw his own tokens and lock again."
      },
      "withdraw(uint96,uint256,address)": {
        "notice": "Withdraw the given amount of tokens if they are unlocked."
      }
    }
  },
  "storageLayout": {
    "storage": [
      {
        "astId": 54807,
        "contract": "contracts/governance/Staking/modules/StakingWithdrawModule.sol:StakingWithdrawModule",
        "label": "_owner",
        "offset": 0,
        "slot": "0",
        "type": "t_address"
      },
      {
        "astId": 23799,
        "contract": "contracts/governance/Staking/modules/StakingWithdrawModule.sol:StakingWithdrawModule",
        "label": "kickoffTS",
        "offset": 0,
        "slot": "1",
        "type": "t_uint256"
      },
      {
        "astId": 23802,
        "contract": "contracts/governance/Staking/modules/StakingWithdrawModule.sol:StakingWithdrawModule",
        "label": "name",
        "offset": 0,
        "slot": "2",
        "type": "t_string_storage"
      },
      {
        "astId": 23804,
        "contract": "contracts/governance/Staking/modules/StakingWithdrawModule.sol:StakingWithdrawModule",
        "label": "SOVToken",
        "offset": 0,
        "slot": "3",
        "type": "t_contract(IERC20)33453"
      },
      {
        "astId": 23810,
        "contract": "contracts/governance/Staking/modules/StakingWithdrawModule.sol:StakingWithdrawModule",
        "label": "delegates",
        "offset": 0,
        "slot": "4",
        "type": "t_mapping(t_address,t_mapping(t_uint256,t_address))"
      },
      {
        "astId": 23813,
        "contract": "contracts/governance/Staking/modules/StakingWithdrawModule.sol:StakingWithdrawModule",
        "label": "allUnlocked",
        "offset": 0,
        "slot": "5",
        "type": "t_bool"
      },
      {
        "astId": 23825,
        "contract": "contracts/governance/Staking/modules/StakingWithdrawModule.sol:StakingWithdrawModule",
        "label": "newStakingContract",
        "offset": 1,
        "slot": "5",
        "type": "t_address"
      },
      {
        "astId": 23836,
        "contract": "contracts/governance/Staking/modules/StakingWithdrawModule.sol:StakingWithdrawModule",
        "label": "totalStakingCheckpoints",
        "offset": 0,
        "slot": "6",
        "type": "t_mapping(t_uint256,t_mapping(t_uint32,t_struct(Checkpoint)23830_storage))"
      },
      {
        "astId": 23840,
        "contract": "contracts/governance/Staking/modules/StakingWithdrawModule.sol:StakingWithdrawModule",
        "label": "numTotalStakingCheckpoints",
        "offset": 0,
        "slot": "7",
        "type": "t_mapping(t_uint256,t_uint32)"
      },
      {
        "astId": 23848,
        "contract": "contracts/governance/Staking/modules/StakingWithdrawModule.sol:StakingWithdrawModule",
        "label": "delegateStakingCheckpoints",
        "offset": 0,
        "slot": "8",
        "type": "t_mapping(t_address,t_mapping(t_uint256,t_mapping(t_uint32,t_struct(Checkpoint)23830_storage)))"
      },
      {
        "astId": 23854,
        "contract": "contracts/governance/Staking/modules/StakingWithdrawModule.sol:StakingWithdrawModule",
        "label": "numDelegateStakingCheckpoints",
        "offset": 0,
        "slot": "9",
        "type": "t_mapping(t_address,t_mapping(t_uint256,t_uint32))"
      },
      {
        "astId": 23862,
        "contract": "contracts/governance/Staking/modules/StakingWithdrawModule.sol:StakingWithdrawModule",
        "label": "userStakingCheckpoints",
        "offset": 0,
        "slot": "10",
        "type": "t_mapping(t_address,t_mapping(t_uint256,t_mapping(t_uint32,t_struct(Checkpoint)23830_storage)))"
      },
      {
        "astId": 23868,
        "contract": "contracts/governance/Staking/modules/StakingWithdrawModule.sol:StakingWithdrawModule",
        "label": "numUserStakingCheckpoints",
        "offset": 0,
        "slot": "11",
        "type": "t_mapping(t_address,t_mapping(t_uint256,t_uint32))"
      },
      {
        "astId": 23872,
        "contract": "contracts/governance/Staking/modules/StakingWithdrawModule.sol:StakingWithdrawModule",
        "label": "nonces",
        "offset": 0,
        "slot": "12",
        "type": "t_mapping(t_address,t_uint256)"
      },
      {
        "astId": 23874,
        "contract": "contracts/governance/Staking/modules/StakingWithdrawModule.sol:StakingWithdrawModule",
        "label": "feeSharing",
        "offset": 0,
        "slot": "13",
        "type": "t_contract(IFeeSharingCollector)17012"
      },
      {
        "astId": 23877,
        "contract": "contracts/governance/Staking/modules/StakingWithdrawModule.sol:StakingWithdrawModule",
        "label": "weightScaling",
        "offset": 20,
        "slot": "13",
        "type": "t_uint96"
      },
      {
        "astId": 23881,
        "contract": "contracts/governance/Staking/modules/StakingWithdrawModule.sol:StakingWithdrawModule",
        "label": "vestingWhitelist",
        "offset": 0,
        "slot": "14",
        "type": "t_mapping(t_address,t_bool)"
      },
      {
        "astId": 23885,
        "contract": "contracts/governance/Staking/modules/StakingWithdrawModule.sol:StakingWithdrawModule",
        "label": "admins",
        "offset": 0,
        "slot": "15",
        "type": "t_mapping(t_address,t_bool)"
      },
      {
        "astId": 23889,
        "contract": "contracts/governance/Staking/modules/StakingWithdrawModule.sol:StakingWithdrawModule",
        "label": "vestingCodeHashes",
        "offset": 0,
        "slot": "16",
        "type": "t_mapping(t_bytes32,t_bool)"
      },
      {
        "astId": 23895,
        "contract": "contracts/governance/Staking/modules/StakingWithdrawModule.sol:StakingWithdrawModule",
        "label": "vestingCheckpoints",
        "offset": 0,
        "slot": "17",
        "type": "t_mapping(t_uint256,t_mapping(t_uint32,t_struct(Checkpoint)23830_storage))"
      },
      {
        "astId": 23899,
        "contract": "contracts/governance/Staking/modules/StakingWithdrawModule.sol:StakingWithdrawModule",
        "label": "numVestingCheckpoints",
        "offset": 0,
        "slot": "18",
        "type": "t_mapping(t_uint256,t_uint32)"
      },
      {
        "astId": 23901,
        "contract": "contracts/governance/Staking/modules/StakingWithdrawModule.sol:StakingWithdrawModule",
        "label": "vestingRegistryLogic",
        "offset": 0,
        "slot": "19",
        "type": "t_contract(IVestingRegistry)26194"
      },
      {
        "astId": 23905,
        "contract": "contracts/governance/Staking/modules/StakingWithdrawModule.sol:StakingWithdrawModule",
        "label": "pausers",
        "offset": 0,
        "slot": "20",
        "type": "t_mapping(t_address,t_bool)"
      },
      {
        "astId": 23907,
        "contract": "contracts/governance/Staking/modules/StakingWithdrawModule.sol:StakingWithdrawModule",
        "label": "paused",
        "offset": 0,
        "slot": "21",
        "type": "t_bool"
      },
      {
        "astId": 23909,
        "contract": "contracts/governance/Staking/modules/StakingWithdrawModule.sol:StakingWithdrawModule",
        "label": "frozen",
        "offset": 1,
        "slot": "21",
        "type": "t_bool"
      },
      {
        "astId": 23911,
        "contract": "contracts/governance/Staking/modules/StakingWithdrawModule.sol:StakingWithdrawModule",
        "label": "maxVestingWithdrawIterations",
        "offset": 0,
        "slot": "22",
        "type": "t_uint256"
      }
    ],
    "types": {
      "t_address": {
        "encoding": "inplace",
        "label": "address",
        "numberOfBytes": "20"
      },
      "t_bool": {
        "encoding": "inplace",
        "label": "bool",
        "numberOfBytes": "1"
      },
      "t_bytes32": {
        "encoding": "inplace",
        "label": "bytes32",
        "numberOfBytes": "32"
      },
      "t_contract(IERC20)33453": {
        "encoding": "inplace",
        "label": "contract IERC20",
        "numberOfBytes": "20"
      },
      "t_contract(IFeeSharingCollector)17012": {
        "encoding": "inplace",
        "label": "contract IFeeSharingCollector",
        "numberOfBytes": "20"
      },
      "t_contract(IVestingRegistry)26194": {
        "encoding": "inplace",
        "label": "contract IVestingRegistry",
        "numberOfBytes": "20"
      },
      "t_mapping(t_address,t_bool)": {
        "encoding": "mapping",
        "key": "t_address",
        "label": "mapping(address => bool)",
        "numberOfBytes": "32",
        "value": "t_bool"
      },
      "t_mapping(t_address,t_mapping(t_uint256,t_address))": {
        "encoding": "mapping",
        "key": "t_address",
        "label": "mapping(address => mapping(uint256 => address))",
        "numberOfBytes": "32",
        "value": "t_mapping(t_uint256,t_address)"
      },
      "t_mapping(t_address,t_mapping(t_uint256,t_mapping(t_uint32,t_struct(Checkpoint)23830_storage)))": {
        "encoding": "mapping",
        "key": "t_address",
        "label": "mapping(address => mapping(uint256 => mapping(uint32 => struct StakingStorageShared.Checkpoint)))",
        "numberOfBytes": "32",
        "value": "t_mapping(t_uint256,t_mapping(t_uint32,t_struct(Checkpoint)23830_storage))"
      },
      "t_mapping(t_address,t_mapping(t_uint256,t_uint32))": {
        "encoding": "mapping",
        "key": "t_address",
        "label": "mapping(address => mapping(uint256 => uint32))",
        "numberOfBytes": "32",
        "value": "t_mapping(t_uint256,t_uint32)"
      },
      "t_mapping(t_address,t_uint256)": {
        "encoding": "mapping",
        "key": "t_address",
        "label": "mapping(address => uint256)",
        "numberOfBytes": "32",
        "value": "t_uint256"
      },
      "t_mapping(t_bytes32,t_bool)": {
        "encoding": "mapping",
        "key": "t_bytes32",
        "label": "mapping(bytes32 => bool)",
        "numberOfBytes": "32",
        "value": "t_bool"
      },
      "t_mapping(t_uint256,t_address)": {
        "encoding": "mapping",
        "key": "t_uint256",
        "label": "mapping(uint256 => address)",
        "numberOfBytes": "32",
        "value": "t_address"
      },
      "t_mapping(t_uint256,t_mapping(t_uint32,t_struct(Checkpoint)23830_storage))": {
        "encoding": "mapping",
        "key": "t_uint256",
        "label": "mapping(uint256 => mapping(uint32 => struct StakingStorageShared.Checkpoint))",
        "numberOfBytes": "32",
        "value": "t_mapping(t_uint32,t_struct(Checkpoint)23830_storage)"
      },
      "t_mapping(t_uint256,t_uint32)": {
        "encoding": "mapping",
        "key": "t_uint256",
        "label": "mapping(uint256 => uint32)",
        "numberOfBytes": "32",
        "value": "t_uint32"
      },
      "t_mapping(t_uint32,t_struct(Checkpoint)23830_storage)": {
        "encoding": "mapping",
        "key": "t_uint32",
        "label": "mapping(uint32 => struct StakingStorageShared.Checkpoint)",
        "numberOfBytes": "32",
        "value": "t_struct(Checkpoint)23830_storage"
      },
      "t_string_storage": {
        "encoding": "bytes",
        "label": "string",
        "numberOfBytes": "32"
      },
      "t_struct(Checkpoint)23830_storage": {
        "encoding": "inplace",
        "label": "struct StakingStorageShared.Checkpoint",
        "members": [
          {
            "astId": 23827,
            "contract": "contracts/governance/Staking/modules/StakingWithdrawModule.sol:StakingWithdrawModule",
            "label": "fromBlock",
            "offset": 0,
            "slot": "0",
            "type": "t_uint32"
          },
          {
            "astId": 23829,
            "contract": "contracts/governance/Staking/modules/StakingWithdrawModule.sol:StakingWithdrawModule",
            "label": "stake",
            "offset": 4,
            "slot": "0",
            "type": "t_uint96"
          }
        ],
        "numberOfBytes": "32"
      },
      "t_uint256": {
        "encoding": "inplace",
        "label": "uint256",
        "numberOfBytes": "32"
      },
      "t_uint32": {
        "encoding": "inplace",
        "label": "uint32",
        "numberOfBytes": "4"
      },
      "t_uint96": {
        "encoding": "inplace",
        "label": "uint96",
        "numberOfBytes": "12"
      }
    }
  }
}