{
  "address": "0x2ea84697aAF166CB54d25BE91B3AC88eef80c5Ee",
  "abi": [
    {
      "anonymous": false,
      "inputs": [
        {
          "indexed": true,
          "internalType": "address",
          "name": "sender",
          "type": "address"
        },
        {
          "indexed": true,
          "internalType": "address",
          "name": "token",
          "type": "address"
        },
        {
          "indexed": false,
          "internalType": "uint256",
          "name": "amount",
          "type": "uint256"
        }
      ],
      "name": "CheckpointAdded",
      "type": "event"
    },
    {
      "anonymous": false,
      "inputs": [
        {
          "indexed": true,
          "internalType": "address",
          "name": "sender",
          "type": "address"
        },
        {
          "indexed": true,
          "internalType": "address",
          "name": "converter",
          "type": "address"
        },
        {
          "indexed": false,
          "internalType": "uint256",
          "name": "amount",
          "type": "uint256"
        }
      ],
      "name": "FeeAMMWithdrawn",
      "type": "event"
    },
    {
      "anonymous": false,
      "inputs": [
        {
          "indexed": true,
          "internalType": "address",
          "name": "sender",
          "type": "address"
        },
        {
          "indexed": false,
          "internalType": "uint256",
          "name": "amount",
          "type": "uint256"
        }
      ],
      "name": "FeeWithdrawnInRBTC",
      "type": "event"
    },
    {
      "anonymous": false,
      "inputs": [
        {
          "indexed": true,
          "internalType": "address",
          "name": "previousOwner",
          "type": "address"
        },
        {
          "indexed": true,
          "internalType": "address",
          "name": "newOwner",
          "type": "address"
        }
      ],
      "name": "OwnershipTransferred",
      "type": "event"
    },
    {
      "anonymous": false,
      "inputs": [
        {
          "indexed": true,
          "internalType": "address",
          "name": "sender",
          "type": "address"
        },
        {
          "indexed": true,
          "internalType": "address",
          "name": "receiver",
          "type": "address"
        },
        {
          "indexed": false,
          "internalType": "uint256",
          "name": "amount",
          "type": "uint256"
        }
      ],
      "name": "RBTCWithdrawn",
      "type": "event"
    },
    {
      "anonymous": false,
      "inputs": [
        {
          "indexed": true,
          "internalType": "address",
          "name": "sender",
          "type": "address"
        },
        {
          "indexed": true,
          "internalType": "address",
          "name": "token",
          "type": "address"
        },
        {
          "indexed": false,
          "internalType": "uint256",
          "name": "amount",
          "type": "uint256"
        }
      ],
      "name": "TokensTransferred",
      "type": "event"
    },
    {
      "anonymous": false,
      "inputs": [
        {
          "indexed": true,
          "internalType": "address",
          "name": "sender",
          "type": "address"
        },
        {
          "indexed": false,
          "internalType": "address",
          "name": "converter",
          "type": "address"
        }
      ],
      "name": "UnwhitelistedConverter",
      "type": "event"
    },
    {
      "anonymous": false,
      "inputs": [
        {
          "indexed": true,
          "internalType": "address",
          "name": "sender",
          "type": "address"
        },
        {
          "indexed": true,
          "internalType": "address",
          "name": "token",
          "type": "address"
        },
        {
          "indexed": false,
          "internalType": "uint256",
          "name": "prevProcessedCheckpoints",
          "type": "uint256"
        },
        {
          "indexed": false,
          "internalType": "uint256",
          "name": "newProcessedCheckpoints",
          "type": "uint256"
        }
      ],
      "name": "UserFeeProcessedNoWithdraw",
      "type": "event"
    },
    {
      "anonymous": false,
      "inputs": [
        {
          "indexed": true,
          "internalType": "address",
          "name": "sender",
          "type": "address"
        },
        {
          "indexed": true,
          "internalType": "address",
          "name": "receiver",
          "type": "address"
        },
        {
          "indexed": true,
          "internalType": "address",
          "name": "token",
          "type": "address"
        },
        {
          "indexed": false,
          "internalType": "uint256",
          "name": "amount",
          "type": "uint256"
        }
      ],
      "name": "UserFeeWithdrawn",
      "type": "event"
    },
    {
      "anonymous": false,
      "inputs": [
        {
          "indexed": true,
          "internalType": "address",
          "name": "sender",
          "type": "address"
        },
        {
          "indexed": false,
          "internalType": "address",
          "name": "converter",
          "type": "address"
        }
      ],
      "name": "WhitelistedConverter",
      "type": "event"
    },
    {
      "payable": true,
      "stateMutability": "payable",
      "type": "fallback"
    },
    {
      "constant": true,
      "inputs": [],
      "name": "RBTC_DUMMY_ADDRESS_FOR_CHECKPOINT",
      "outputs": [
        {
          "internalType": "address",
          "name": "",
          "type": "address"
        }
      ],
      "payable": false,
      "stateMutability": "view",
      "type": "function"
    },
    {
      "constant": false,
      "inputs": [
        {
          "internalType": "address",
          "name": "converterAddress",
          "type": "address"
        }
      ],
      "name": "addWhitelistedConverterAddress",
      "outputs": [],
      "payable": false,
      "stateMutability": "nonpayable",
      "type": "function"
    },
    {
      "constant": false,
      "inputs": [
        {
          "internalType": "address[]",
          "name": "_nonRbtcTokensRegularWithdraw",
          "type": "address[]"
        },
        {
          "internalType": "address[]",
          "name": "_rbtcTokensRegularWithdraw",
          "type": "address[]"
        },
        {
          "components": [
            {
              "internalType": "address",
              "name": "tokenAddress",
              "type": "address"
            },
            {
              "internalType": "uint256",
              "name": "fromCheckpoint",
              "type": "uint256"
            }
          ],
          "internalType": "struct FeeSharingCollectorStorage.TokenWithSkippedCheckpointsWithdraw[]",
          "name": "_tokensWithSkippedCheckpoints",
          "type": "tuple[]"
        },
        {
          "internalType": "uint32",
          "name": "_maxCheckpoints",
          "type": "uint32"
        },
        {
          "internalType": "address",
          "name": "_receiver",
          "type": "address"
        }
      ],
      "name": "claimAllCollectedFees",
      "outputs": [],
      "payable": false,
      "stateMutability": "nonpayable",
      "type": "function"
    },
    {
      "constant": true,
      "inputs": [
        {
          "internalType": "address",
          "name": "_user",
          "type": "address"
        },
        {
          "internalType": "address",
          "name": "_token",
          "type": "address"
        }
      ],
      "name": "getAccumulatedFees",
      "outputs": [
        {
          "internalType": "uint256",
          "name": "",
          "type": "uint256"
        }
      ],
      "payable": false,
      "stateMutability": "view",
      "type": "function"
    },
    {
      "constant": true,
      "inputs": [
        {
          "internalType": "address",
          "name": "_user",
          "type": "address"
        },
        {
          "internalType": "address",
          "name": "_token",
          "type": "address"
        },
        {
          "internalType": "uint256",
          "name": "_startFrom",
          "type": "uint256"
        },
        {
          "internalType": "uint32",
          "name": "_maxCheckpoints",
          "type": "uint32"
        }
      ],
      "name": "getAccumulatedFeesForCheckpointsRange",
      "outputs": [
        {
          "internalType": "uint256",
          "name": "",
          "type": "uint256"
        }
      ],
      "payable": false,
      "stateMutability": "view",
      "type": "function"
    },
    {
      "constant": true,
      "inputs": [
        {
          "internalType": "address",
          "name": "_user",
          "type": "address"
        }
      ],
      "name": "getAccumulatedRBTCFeeBalances",
      "outputs": [
        {
          "internalType": "uint256",
          "name": "",
          "type": "uint256"
        }
      ],
      "payable": false,
      "stateMutability": "view",
      "type": "function"
    },
    {
      "constant": true,
      "inputs": [
        {
          "internalType": "address",
          "name": "_user",
          "type": "address"
        },
        {
          "internalType": "address",
          "name": "_token",
          "type": "address"
        },
        {
          "internalType": "uint256",
          "name": "_startFrom",
          "type": "uint256"
        },
        {
          "internalType": "uint256",
          "name": "_maxCheckpoints",
          "type": "uint256"
        }
      ],
      "name": "getNextPositiveUserCheckpoint",
      "outputs": [
        {
          "internalType": "uint256",
          "name": "checkpointNum",
          "type": "uint256"
        },
        {
          "internalType": "bool",
          "name": "hasSkippedCheckpoints",
          "type": "bool"
        },
        {
          "internalType": "bool",
          "name": "hasFees",
          "type": "bool"
        }
      ],
      "payable": false,
      "stateMutability": "view",
      "type": "function"
    },
    {
      "constant": true,
      "inputs": [],
      "name": "getWhitelistedConverterList",
      "outputs": [
        {
          "internalType": "address[]",
          "name": "converterList",
          "type": "address[]"
        }
      ],
      "payable": false,
      "stateMutability": "view",
      "type": "function"
    },
    {
      "constant": true,
      "inputs": [
        {
          "internalType": "bytes4",
          "name": "",
          "type": "bytes4"
        }
      ],
      "name": "isFunctionExecuted",
      "outputs": [
        {
          "internalType": "bool",
          "name": "",
          "type": "bool"
        }
      ],
      "payable": false,
      "stateMutability": "view",
      "type": "function"
    },
    {
      "constant": true,
      "inputs": [],
      "name": "isOwner",
      "outputs": [
        {
          "internalType": "bool",
          "name": "",
          "type": "bool"
        }
      ],
      "payable": false,
      "stateMutability": "view",
      "type": "function"
    },
    {
      "constant": true,
      "inputs": [
        {
          "internalType": "address",
          "name": "",
          "type": "address"
        }
      ],
      "name": "lastFeeWithdrawalTime",
      "outputs": [
        {
          "internalType": "uint256",
          "name": "",
          "type": "uint256"
        }
      ],
      "payable": false,
      "stateMutability": "view",
      "type": "function"
    },
    {
      "constant": true,
      "inputs": [
        {
          "internalType": "address",
          "name": "_token",
          "type": "address"
        }
      ],
      "name": "numTokenCheckpoints",
      "outputs": [
        {
          "internalType": "uint256",
          "name": "",
          "type": "uint256"
        }
      ],
      "payable": false,
      "stateMutability": "view",
      "type": "function"
    },
    {
      "constant": true,
      "inputs": [],
      "name": "owner",
      "outputs": [
        {
          "internalType": "address",
          "name": "",
          "type": "address"
        }
      ],
      "payable": false,
      "stateMutability": "view",
      "type": "function"
    },
    {
      "constant": true,
      "inputs": [
        {
          "internalType": "address",
          "name": "",
          "type": "address"
        },
        {
          "internalType": "address",
          "name": "",
          "type": "address"
        }
      ],
      "name": "processedCheckpoints",
      "outputs": [
        {
          "internalType": "uint256",
          "name": "",
          "type": "uint256"
        }
      ],
      "payable": false,
      "stateMutability": "view",
      "type": "function"
    },
    {
      "constant": true,
      "inputs": [],
      "name": "protocol",
      "outputs": [
        {
          "internalType": "contract IProtocol",
          "name": "",
          "type": "address"
        }
      ],
      "payable": false,
      "stateMutability": "view",
      "type": "function"
    },
    {
      "constant": false,
      "inputs": [],
      "name": "recoverIncorrectAllocatedFees",
      "outputs": [],
      "payable": false,
      "stateMutability": "nonpayable",
      "type": "function"
    },
    {
      "constant": false,
      "inputs": [
        {
          "internalType": "address",
          "name": "converterAddress",
          "type": "address"
        }
      ],
      "name": "removeWhitelistedConverterAddress",
      "outputs": [],
      "payable": false,
      "stateMutability": "nonpayable",
      "type": "function"
    },
    {
      "constant": true,
      "inputs": [],
      "name": "staking",
      "outputs": [
        {
          "internalType": "contract IStaking",
          "name": "",
          "type": "address"
        }
      ],
      "payable": false,
      "stateMutability": "view",
      "type": "function"
    },
    {
      "constant": true,
      "inputs": [
        {
          "internalType": "address",
          "name": "",
          "type": "address"
        },
        {
          "internalType": "uint256",
          "name": "",
          "type": "uint256"
        }
      ],
      "name": "tokenCheckpoints",
      "outputs": [
        {
          "internalType": "uint32",
          "name": "blockNumber",
          "type": "uint32"
        },
        {
          "internalType": "uint32",
          "name": "timestamp",
          "type": "uint32"
        },
        {
          "internalType": "uint96",
          "name": "totalWeightedStake",
          "type": "uint96"
        },
        {
          "internalType": "uint96",
          "name": "numTokens",
          "type": "uint96"
        }
      ],
      "payable": false,
      "stateMutability": "view",
      "type": "function"
    },
    {
      "constant": true,
      "inputs": [
        {
          "internalType": "address",
          "name": "",
          "type": "address"
        }
      ],
      "name": "totalTokenCheckpoints",
      "outputs": [
        {
          "internalType": "uint256",
          "name": "",
          "type": "uint256"
        }
      ],
      "payable": false,
      "stateMutability": "view",
      "type": "function"
    },
    {
      "constant": false,
      "inputs": [
        {
          "internalType": "address",
          "name": "newOwner",
          "type": "address"
        }
      ],
      "name": "transferOwnership",
      "outputs": [],
      "payable": false,
      "stateMutability": "nonpayable",
      "type": "function"
    },
    {
      "constant": false,
      "inputs": [],
      "name": "transferRBTC",
      "outputs": [],
      "payable": true,
      "stateMutability": "payable",
      "type": "function"
    },
    {
      "constant": false,
      "inputs": [
        {
          "internalType": "address",
          "name": "_token",
          "type": "address"
        },
        {
          "internalType": "uint96",
          "name": "_amount",
          "type": "uint96"
        }
      ],
      "name": "transferTokens",
      "outputs": [],
      "payable": false,
      "stateMutability": "nonpayable",
      "type": "function"
    },
    {
      "constant": true,
      "inputs": [
        {
          "internalType": "address",
          "name": "",
          "type": "address"
        }
      ],
      "name": "unprocessedAmount",
      "outputs": [
        {
          "internalType": "uint96",
          "name": "",
          "type": "uint96"
        }
      ],
      "payable": false,
      "stateMutability": "view",
      "type": "function"
    },
    {
      "constant": false,
      "inputs": [
        {
          "internalType": "address",
          "name": "_token",
          "type": "address"
        },
        {
          "internalType": "uint32",
          "name": "_maxCheckpoints",
          "type": "uint32"
        },
        {
          "internalType": "address",
          "name": "_receiver",
          "type": "address"
        }
      ],
      "name": "withdraw",
      "outputs": [],
      "payable": false,
      "stateMutability": "nonpayable",
      "type": "function"
    },
    {
      "constant": false,
      "inputs": [
        {
          "internalType": "address[]",
          "name": "_tokens",
          "type": "address[]"
        }
      ],
      "name": "withdrawFees",
      "outputs": [],
      "payable": false,
      "stateMutability": "nonpayable",
      "type": "function"
    },
    {
      "constant": false,
      "inputs": [
        {
          "internalType": "address[]",
          "name": "_converters",
          "type": "address[]"
        }
      ],
      "name": "withdrawFeesAMM",
      "outputs": [],
      "payable": false,
      "stateMutability": "nonpayable",
      "type": "function"
    },
    {
      "constant": false,
      "inputs": [
        {
          "internalType": "address",
          "name": "receiver",
          "type": "address"
        },
        {
          "internalType": "uint256",
          "name": "wrbtcAmount",
          "type": "uint256"
        }
      ],
      "name": "withdrawWRBTC",
      "outputs": [],
      "payable": false,
      "stateMutability": "nonpayable",
      "type": "function"
    }
  ],
  "transactionHash": "0x95591afb2ce5b04903bb8ce2399c55e4ffb7b0a0ca70584e406bf071cf7f615b",
  "args": [],
  "numDeployments": 10,
  "solcInputHash": "ed90d631557cffa1ecebbd48b094df4d",
  "bytecode": "0x6080604052600160085560006200001e6001600160e01b036200006e16565b600080546001600160a01b0319166001600160a01b0383169081178255604051929350917f8be0079c531659141344cd1fd0a4f28419497f9722a3daafe3b4186f6b6457e0908290a35062000072565b3390565b6154e280620000826000396000f3fe6080604052600436106101b75760003560e01c80638f32d59b116100ec578063adcf21a71161008a578063d93b69ab11610064578063d93b69ab146104ca578063f2962cda146104ea578063f2fde38b1461050a578063f3bdba8f1461052a576101b7565b8063adcf21a714610468578063c30404471461048a578063c3f0eaee146104aa576101b7565b8063a697b8c7116100c6578063a697b8c7146103f3578063a965b3a914610413578063aa5036e914610433578063abe979e114610448576101b7565b80638f32d59b14610391578063a42a77e7146103b3578063a4955f2a146103d3576101b7565b80637061acf3116101595780637d0ce2b2116101335780637d0ce2b2146103185780638b6fdcba1461033a5780638ce74426146103675780638da5cb5b1461037c576101b7565b80637061acf3146102b85780637913b451146102d85780637c8678ec146102f8576101b7565b80633d67df6f116101955780633d67df6f146102265780634cf088d9146102465780635c4d9b12146102685780637053001714610288576101b7565b80631345946c146101b957806320020208146101f157806322a6fd951461021e575b005b3480156101c557600080fd5b506101d96101d4366004613e01565b61054a565b6040516101e893929190614fe0565b60405180910390f35b3480156101fd57600080fd5b5061021161020c366004613d8b565b6107e2565b6040516101e89190614fd2565b6101b76107fd565b34801561023257600080fd5b50610211610241366004613dc7565b610882565b34801561025257600080fd5b5061025b61089d565b6040516101e89190614db3565b34801561027457600080fd5b506101b7610283366004613eb7565b6108ac565b34801561029457600080fd5b506102a86102a3366004613eb7565b610a0f565b6040516101e89493929190615033565b3480156102c457600080fd5b506101b76102d3366004613d8b565b610a5b565b3480156102e457600080fd5b506102116102f3366004613dc7565b610afa565b34801561030457600080fd5b506101b761031336600461406f565b610b17565b34801561032457600080fd5b5061032d610d7d565b6040516101e89190614cb6565b34801561034657600080fd5b5061035a610355366004613d8b565b610d95565b6040516101e8919061507f565b34801561037357600080fd5b5061025b610db0565b34801561038857600080fd5b5061032d610dbf565b34801561039d57600080fd5b506103a6610dce565b6040516101e89190614da5565b3480156103bf57600080fd5b506101b76103ce366004613fa6565b610df2565b3480156103df57600080fd5b506101b76103ee366004613d8b565b611011565b3480156103ff57600080fd5b506101b761040e366004613f64565b611080565b34801561041f57600080fd5b506101b761042e366004613ee7565b6112ce565b34801561043f57600080fd5b506101b761130c565b34801561045457600080fd5b506101b7610463366004613f34565b6114c1565b34801561047457600080fd5b5061047d61171e565b6040516101e89190614d94565b34801561049657600080fd5b506102116104a5366004613d8b565b61172f565b3480156104b657600080fd5b506102116104c5366004613e62565b6118a9565b3480156104d657600080fd5b506103a66104e53660046140c2565b6118c5565b3480156104f657600080fd5b50610211610505366004613d8b565b6118da565b34801561051657600080fd5b506101b7610525366004613d8b565b6118ec565b34801561053657600080fd5b50610211610545366004613d8b565b61191c565b60025460405163ca6860df60e01b8152600091829182916001600160a01b03169063ca6860df9061057f908a90600401614cb6565b60206040518083038186803b15801561059757600080fd5b505afa1580156105ab573d6000803e3d6000fd5b505050506040513d601f19601f820116820180604052506105cf91908101906140a4565b156105e2575060009150819050806107d8565b6000841161060b5760405162461bcd60e51b815260040161060290614fb2565b60405180910390fd5b6001600160a01b03808716600081815260046020908152604080832054948c1683526005825280832093835292905220548181101580610649575081155b1561065d57509250600091508190506107d8565b600081881161066c578161066e565b875b90506000610682828963ffffffff61192e16565b905083811061068e5750825b815b818110156107ca576000600360008d6001600160a01b03166001600160a01b03168152602001908152602001600020600083815260200190815260200160002090506000600260009054906101000a90046001600160a01b03166001600160a01b03166337e6b1c18f60018560000160009054906101000a900463ffffffff16038560000160049054906101000a900463ffffffff166040518463ffffffff1660e01b815260040161074493929190614d4b565b60206040518083038186803b15801561075c57600080fd5b505afa158015610770573d6000803e3d6000fd5b505050506040513d601f19601f82011682018060405250610794919081019061413a565b90506001600160601b038116156107c057826001018684116001995099509950505050505050506107d8565b5050600101610690565b509550508411925060009150505b9450945094915050565b6001600160a01b031660009081526004602052604090205490565b346001600160601b0381166108245760405162461bcd60e51b815260040161060290614eb2565b61084260405161083390614ca0565b6040519081900390208261195a565b60405160009033907f1b89874203ff7f0bba87c969ada3f32fda22ed38a6706d35199d21280c7811b190610877908590615071565b60405180910390a350565b6000806108928484600080611a9e565b509150505b92915050565b6002546001600160a01b031681565b6108b4610dce565b6108d05760405162461bcd60e51b815260040161060290614ee2565b6001546040805163afe8400960e01b815290516000926001600160a01b03169163afe84009916004808301926020929190829003018186803b15801561091557600080fd5b505afa158015610929573d6000803e3d6000fd5b505050506040513d601f19601f8201168201806040525061094d91908101906140e0565b90506000816001600160a01b03166370a08231306040518263ffffffff1660e01b815260040161097d9190614cc4565b60206040518083038186803b15801561099557600080fd5b505afa1580156109a9573d6000803e3d6000fd5b505050506040513d601f19601f820116820180604052506109cd919081019061411c565b9050808311156109ef5760405162461bcd60e51b815260040161060290614e92565b610a096001600160a01b038316858563ffffffff611df616565b50505050565b600360209081526000928352604080842090915290825290205463ffffffff808216916401000000008104909116906001600160601b03600160401b8204811691600160a01b90041684565b610a63610dce565b610a7f5760405162461bcd60e51b815260040161060290614ee2565b610a8881611e4f565b610aa45760405162461bcd60e51b815260040161060290614f12565b610ab560098263ffffffff611e8816565b50336001600160a01b03167fe7902ff5b883e069d72db554511b4f7122428c996decf30682b312a66879668a82604051610aef9190614cb6565b60405180910390a250565b600560209081526000928352604080842090915290825290205481565b6001546040805163afe8400960e01b815290516000926001600160a01b03169163afe84009916004808301926020929190829003018186803b158015610b5c57600080fd5b505afa158015610b70573d6000803e3d6000fd5b505050506040513d601f19601f82011682018060405250610b9491908101906140e0565b9050610b9f82611ee8565b6000805b8351811015610d59576000848281518110610bba57fe5b60200260200101516001600160a01b031663164e68de306040518263ffffffff1660e01b8152600401610bed9190614cc4565b602060405180830381600087803b158015610c0757600080fd5b505af1158015610c1b573d6000803e3d6000fd5b505050506040513d601f19601f82011682018060405250610c3f919081019061411c565b90508015610d5057604051632e1a7d4d60e01b81526001600160a01b03851690632e1a7d4d90610c73908490600401614fd2565b600060405180830381600087803b158015610c8d57600080fd5b505af1158015610ca1573d6000803e3d6000fd5b505050506000610cc9826040518060800160405280604881526020016152b960489139611f3f565b9050610cee84826040518060800160405280604e815260200161526b604e9139611f6e565b9350858381518110610cfc57fe5b60200260200101516001600160a01b0316336001600160a01b03167fd915b7f9d8d5ce11af1f5961b830d7d7c01a750927706eb0bcbf80a8827d76cc84604051610d469190614fd2565b60405180910390a3505b50600101610ba3565b506001600160601b03811615610d7857610d7860405161083390614ca0565b505050565b604051610d8990614ca0565b60405190819003902081565b6007602052600090815260409020546001600160601b031681565b6001546001600160a01b031681565b6000546001600160a01b031690565b600080546001600160a01b0316610de3611faa565b6001600160a01b031614905090565b600160085414610e145760405162461bcd60e51b815260040161060290614f42565b600260085560008515610e9057610e61878780806020026020016040519081016040528093929190818152602001838360200280828437600092019190915250879250869150611fae9050565b9050610e8d818463ffffffff16036040518060600160405280603c81526020016151ea603c91396121a9565b92505b60005b88811015610f6e5763ffffffff8416610eab57610f6e565b6000808b8b84818110610eba57fe5b9050602002016020610ecf9190810190613d8b565b3360009081526005602090815260408083206001600160a01b0385168452909152902054909150610f018288886121d1565b935060009050610f17848363ffffffff61254216565b90508115610f3257610f3081600163ffffffff61192e16565b505b610f5c818963ffffffff16036040518060600160405280603c81526020016151ea603c91396121a9565b97505060019093019250610e93915050565b50831561100157610fd28585808060200260200160405190810160405280939291908181526020016000905b82821015610fc657610fb7604083028601368190038101906140fe565b81526020019060010190610f9a565b50505050508484612584565b9050610ffe818463ffffffff16036040518060600160405280603c81526020016151ea603c91396121a9565b92505b5050600160085550505050505050565b611019610dce565b6110355760405162461bcd60e51b815260040161060290614ee2565b61104660098263ffffffff61289616565b50336001600160a01b03167f7b8bddb144d9ebd8a4fa3f47acac7c75b34ade822d5e528a442825fa9100ffdb82604051610aef9190614cb6565b60005b818110156110d8576110b483838381811061109a57fe5b90506020020160206110af9190810190613d8b565b611e4f565b6110d05760405162461bcd60e51b815260040161060290614f92565b600101611083565b50600154604051630f7e7aab60e41b81526000916001600160a01b03169063f7e7aab09061110e90869086903090600401614d73565b602060405180830381600087803b15801561112857600080fd5b505af115801561113c573d6000803e3d6000fd5b505050506040513d601f19601f82011682018060405250611160919081019061411c565b90506000600160009054906101000a90046001600160a01b03166001600160a01b031663afe840096040518163ffffffff1660e01b815260040160206040518083038186803b1580156111b257600080fd5b505afa1580156111c6573d6000803e3d6000fd5b505050506040513d601f19601f820116820180604052506111ea91908101906140e0565b9050811561128757604051632e1a7d4d60e01b81526001600160a01b03821690632e1a7d4d9061121e908590600401614fd2565b600060405180830381600087803b15801561123857600080fd5b505af115801561124c573d6000803e3d6000fd5b5050505060006112748360405180608001604052806045815260200161522660459139611f3f565b905061128560405161083390614ca0565b505b336001600160a01b03167fea588ee3c471f3c47a77b5d118007e77b1d74e5b310a8805df274aa067d2e8a6836040516112c09190614fd2565b60405180910390a250505050565b6001600854146112f05760405162461bcd60e51b815260040161060290614f42565b60026008556113008383836121d1565b50506001600855505050565b63aa5036e960e01b6000819052600b6020527fa02e544f58192f4f5f2c12a2ad94a37e02b3cc3232372e81b417611b94ccf0e85460ff16156113605760405162461bcd60e51b815260040161060290614e72565b611368610dce565b6113845760405162461bcd60e51b815260040161060290614ee2565b670c320cbdb1f8e260690387108582e4ba67e98069015437959820bab0d48073db107fa69e33f05180a4c2ce9c2e7cb481645c2d73efc78fc7d48b64958315949279ba181c2114abbd60006113d7610dbf565b6001600160a01b0316866040516113ed90614cab565b60006040518083038185875af1925050503d806000811461142a576040519150601f19603f3d011682016040523d82523d6000602084013e61142f565b606091505b50509050806114505760405162461bcd60e51b815260040161060290614f32565b61147261145b610dbf565b6001600160a01b038516908763ffffffff611df616565b61149461147d610dbf565b6001600160a01b038416908663ffffffff611df616565b5050506001600160e01b03199093166000908152600b60205260409020805460ff19166001179055505050565b6001600160a01b0382166114e75760405162461bcd60e51b815260040161060290614de2565b6000816001600160601b0316116115105760405162461bcd60e51b815260040161060290614dd2565b6040516323b872dd60e01b81526000906001600160a01b038416906323b872dd9061154390339030908790600401614cd2565b602060405180830381600087803b15801561155d57600080fd5b505af1158015611571573d6000803e3d6000fd5b505050506040513d601f19601f8201168201806040525061159591908101906140a4565b9050806115b45760405162461bcd60e51b815260040161060290614f22565b6001546040805163afe8400960e01b815290516000926001600160a01b03169163afe84009916004808301926020929190829003018186803b1580156115f957600080fd5b505afa15801561160d573d6000803e3d6000fd5b505050506040513d601f19601f8201168201806040525061163191908101906140e0565b9050806001600160a01b0316846001600160a01b031614156116c357604051632e1a7d4d60e01b81526001600160a01b03821690632e1a7d4d90611679908690600401615071565b600060405180830381600087803b15801561169357600080fd5b505af11580156116a7573d6000803e3d6000fd5b505050506040516116b790614ca0565b60405190819003902093505b6116cd848461195a565b836001600160a01b0316336001600160a01b03167f1b89874203ff7f0bba87c969ada3f32fda22ed38a6706d35199d21280c7811b1856040516117109190615071565b60405180910390a350505050565b606061172a60096129a1565b905090565b600080600080611740856000612a47565b5050509250925092506000600160009054906101000a90046001600160a01b03166001600160a01b031663afe840096040518163ffffffff1660e01b815260040160206040518083038186803b15801561179957600080fd5b505afa1580156117ad573d6000803e3d6000fd5b505050506040513d601f19601f820116820180604052506117d191908101906140e0565b905060006117de82612b40565b9050600061187b670de0b6b3a764000061186f846001600160a01b0316637ff9b5966040518163ffffffff1660e01b815260040160206040518083038186803b15801561182a57600080fd5b505afa15801561183e573d6000803e3d6000fd5b505050506040513d601f19601f82011682018060405250611862919081019061411c565b879063ffffffff612bed16565b9063ffffffff612c2716565b905061189d81611891888863ffffffff61192e16565b9063ffffffff61192e16565b98975050505050505050565b6000806118b886868686611a9e565b509150505b949350505050565b600b6020526000908152604090205460ff1681565b60046020526000908152604090205481565b6118f4610dce565b6119105760405162461bcd60e51b815260040161060290614ee2565b61191981612c69565b50565b60066020526000908152604090205481565b6000828201838110156119535760405162461bcd60e51b815260040161060290614e52565b9392505050565b6001600160a01b0382166000908152600660205260409020546202a300429190910310611a13576001600160a01b03821660009081526006602090815260408083204290556007825280832054815160608101909252603b8083526119d6936001600160601b0390921692869290919061538390830139611f6e565b6001600160a01b038416600090815260076020526040902080546bffffffffffffffffffffffff191690559050611a0d8382612cea565b50611a9a565b6001600160a01b038216600090815260076020908152604091829020548251608081019093526046808452611a5e936001600160601b03909216928592919061540490830139611f6e565b6001600160a01b038316600090815260076020526040902080546bffffffffffffffffffffffff19166001600160601b03929092169190911790555b5050565b60025460405163ca6860df60e01b815260009182916001600160a01b039091169063ca6860df90611ad3908990600401614cb6565b60206040518083038186803b158015611aeb57600080fd5b505afa158015611aff573d6000803e3d6000fd5b505050506040513d601f19601f82011682018060405250611b2391908101906140a4565b15611b3357506000905080611ded565b6001600160a01b03808716600090815260056020908152604080832093891683529290529081205490818611611b695781611b6b565b855b905060008563ffffffff1611611b99576001600160a01b038716600090815260046020526040902054611ba4565b611ba4818887612f5b565b6001600160a01b0388166000908152600460205260409020549093508110611bd2575060009250611ded9050565b600080825b85811015611de757611be7613b8e565b506001600160a01b03808b16600090815260036020908152604080832085845282528083208151608081018352905463ffffffff80821683526401000000008204169382018490526001600160601b03600160401b8204811683850152600160a01b90910416606082015260025491516372ec979560e01b8152909491909116916372ec979591611c7b9190600401615009565b60206040518083038186803b158015611c9357600080fd5b505afa158015611ca7573d6000803e3d6000fd5b505050506040513d601f19601f82011682018060405250611ccb919081019061411c565b9050600085821415611cde575083611d87565b600260009054906101000a90046001600160a01b03166001600160a01b03166337e6b1c18f600186600001510386602001516040518463ffffffff1660e01b8152600401611d2e93929190614d4b565b60206040518083038186803b158015611d4657600080fd5b505afa158015611d5a573d6000803e3d6000fd5b505050506040513d601f19601f82011682018060405250611d7e919081019061413a565b90508094508195505b6000611dc384604001516001600160601b031661186f846001600160601b031687606001516001600160601b0316612bed90919063ffffffff16565b9050611dd58b8263ffffffff61192e16565b9a505060019093019250611bd7915050565b50505050505b94509492505050565b604051610d7890849063a9059cbb60e01b90611e189086908690602401614d22565b60408051601f198184030181529190526020810180516001600160e01b03166001600160e01b03199093169290921790915261301c565b6000813f7fc5d2460186f7233c927e7db2dcc703c0e500b653ca82273b7bfad8045d85a4708181148015906118bd575050151592915050565b6000611e948383613101565b611ee05750600182810180548083018083556000928352602080842090920180546001600160a01b0319166001600160a01b038716908117909155835290859052604090912055610897565b506000610897565b60005b8151811015611a9a57611f1b828281518110611f0357fe5b6020026020010151600961310190919063ffffffff16565b611f375760405162461bcd60e51b815260040161060290614e62565b600101611eeb565b600081600160601b8410611f665760405162461bcd60e51b81526004016106029190614dc1565b509192915050565b6000838301826001600160601b038087169083161015611fa15760405162461bcd60e51b81526004016106029190614dc1565b50949350505050565b3390565b6000611fb98461311f565b6001600160a01b038216611fcb573391505b6000805b85518110156120d15763ffffffff8516611fe8576120d1565b6000868281518110611ff657fe5b6020908102919091018101513360009081526005835260408082206001600160a01b03841683529093529182205489519193509190819061204b908b908790811061203d57fe5b60200260200101518a61325d565b9092509050612060868363ffffffff61192e16565b95506000612074828563ffffffff61254216565b9050831561208f5761208d81600163ffffffff61192e16565b505b80880197506120be818b63ffffffff16036040518060600160405280603c81526020016151ea603c91396121a9565b99505060019094019350611fcf92505050565b5080156121a1576000836001600160a01b0316826040516120f190614cab565b60006040518083038185875af1925050503d806000811461212e576040519150601f19603f3d011682016040523d82523d6000602084013e612133565b606091505b50509050806121545760405162461bcd60e51b815260040161060290614e42565b836001600160a01b0316336001600160a01b03167fba7771603337d6821ea291d76396cf6aa3ea405141b033d8415280139c980c1d846040516121979190614fd2565b60405180910390a3505b509392505050565b6000816401000000008410611f665760405162461bcd60e51b81526004016106029190614dc1565b60008060008463ffffffff16116121fa5760405162461bcd60e51b815260040161060290614ef2565b6001546040805163afe8400960e01b815290516000926001600160a01b03169163afe84009916004808301926020929190829003018186803b15801561223f57600080fd5b505afa158015612253573d6000803e3d6000fd5b505050506040513d601f19601f8201168201806040525061227791908101906140e0565b9050600061228482612b40565b9050336001600160a01b038616612299573395505b6001600160a01b038082166000908152600560209081526040808320938c1683529290529081205490806122cf848c858d611a9e565b915091508160001415612383578281111561236b578a6001600160a01b0316336001600160a01b03167fd3d8b561a0f93295b4ea7e2b930d36bd7f1a38774547bf98fb66540f588217b28584604051612329929190614ffb565b60405180910390a36001600160a01b039384166000908152600560209081526040808320968e16835295905293842081905592965091945061253a9350505050565b60405162461bcd60e51b815260040161060290614e02565b6001600160a01b0380851660009081526005602090815260408083208f85168085529252909120839055908616141561243f57604051630141abc160e21b81526001600160a01b038c1690630506af04906123e7908c908690600090600401614d3d565b602060405180830381600087803b15801561240157600080fd5b505af1158015612415573d6000803e3d6000fd5b505050506040513d601f19601f82011682018060405250612439919081019061411c565b506124db565b60405163a9059cbb60e01b81526001600160a01b038c169063a9059cbb9061246d908c908690600401614d22565b602060405180830381600087803b15801561248757600080fd5b505af115801561249b573d6000803e3d6000fd5b505050506040513d601f19601f820116820180604052506124bf91908101906140a4565b6124db5760405162461bcd60e51b815260040161060290614f72565b8a6001600160a01b0316896001600160a01b0316336001600160a01b03167fe635adc5d0c2d7b47215ce5ed57a79c3db183a1ef414ccfc43f24f19178a630f856040516125289190614fd2565b60405180910390a49096509450505050505b935093915050565b600061195383836040518060400160405280601e81526020017f536166654d6174683a207375627472616374696f6e206f766572666c6f770000815250613445565b60006125908433613471565b6001600160a01b0382166125a2573391505b6001546040805163afe8400960e01b815290516000926001600160a01b03169163afe84009916004808301926020929190829003018186803b1580156125e757600080fd5b505afa1580156125fb573d6000803e3d6000fd5b505050506040513d601f19601f8201168201806040525061261f91908101906140e0565b9050600061262c82612b40565b90506000805b87518110156127bc57612643613bb5565b88828151811061264f57fe5b602002602001015190508763ffffffff166000141561266e57506127bc565b33600090815260056020908152604080832084516001600160a01b03168452825282205490830151829190829082106126a757816126ad565b84602001515b9050886001600160a01b031685600001516001600160a01b031614806126e85750876001600160a01b031685600001516001600160a01b0316145b8061271457506040516126fa90614ca0565b60405190819003902085516001600160a01b039081169116145b156127485761272d856000015186602001518e8e6137b1565b94509250612741878463ffffffff61192e16565b9650612760565b61275c856000015186602001518e8e613833565b9450505b60006127776001611891878563ffffffff61254216565b9050808b019a506127a8818e63ffffffff16036040518060600160405280603c81526020016151ea603c91396121a9565b9c5050600190950194506126329350505050565b50801561288c576000856001600160a01b0316826040516127dc90614cab565b60006040518083038185875af1925050503d8060008114612819576040519150601f19603f3d011682016040523d82523d6000602084013e61281e565b606091505b505090508061283f5760405162461bcd60e51b815260040161060290614e42565b856001600160a01b0316336001600160a01b03167fba7771603337d6821ea291d76396cf6aa3ea405141b033d8415280139c980c1d846040516128829190614fd2565b60405180910390a3505b5050509392505050565b60006128a28383613101565b15611ee0576001600160a01b0382166000908152602084905260409020546001840154600019918201910180821461294d5760008560010182815481106128e557fe5b6000918252602090912001546001870180546001600160a01b03909216925082918590811061291057fe5b600091825260208083209190910180546001600160a01b0319166001600160a01b0394851617905592909116815290869052604090206001830190555b6001600160a01b0384166000908152602086905260408120556001850180548061297357fe5b600082815260209020810160001990810180546001600160a01b031916905501905550600191506108979050565b60608082600101805490506040519080825280602002602001820160405280156129d5578160200160208202803883390190505b50905060005b6001840154811015612a40578360010181815481106129f657fe5b9060005260206000200160009054906101000a90046001600160a01b0316828281518110612a2057fe5b6001600160a01b03909216602092830291909101909101526001016129db565b5092915050565b6000806000806000806000600160009054906101000a90046001600160a01b03166001600160a01b031663afe840096040518163ffffffff1660e01b815260040160206040518083038186803b158015612aa057600080fd5b505afa158015612ab4573d6000803e3d6000fd5b505050506040513d601f19601f82011682018060405250612ad891908101906140e0565b90506000612ae582612b40565b9050612b088a604051612af790614ca0565b60405190819003902060008c611a9e565b9098509450612b1a8a8360008c611a9e565b9097509350612b2c8a8260008c611a9e565b809450819750505050509295509295509295565b6001546040516310c59ce360e11b815260009182916001600160a01b039091169063218b39c690612b75908690600401614cb6565b60206040518083038186803b158015612b8d57600080fd5b505afa158015612ba1573d6000803e3d6000fd5b505050506040513d601f19601f82011682018060405250612bc59190810190613da9565b90506001600160a01b0381166108975760405162461bcd60e51b815260040161060290614f52565b600082612bfc57506000610897565b82820282848281612c0957fe5b04146119535760405162461bcd60e51b815260040161060290614ed2565b600061195383836040518060400160405280601a81526020017f536166654d6174683a206469766973696f6e206279207a65726f0000000000008152506138b6565b6001600160a01b038116612c8f5760405162461bcd60e51b815260040161060290614e22565b600080546040516001600160a01b03808516939216917f8be0079c531659141344cd1fd0a4f28419497f9722a3daafe3b4186f6b6457e091a3600080546001600160a01b0319166001600160a01b0392909216919091179055565b6000612d0e43604051806080016040528060438152602001615301604391396121a9565b90506000612d34426040518060800160405280604681526020016153be604691396121a9565b6001600160a01b038516600090815260046020526040812054919250612d5e6000198501426138ed565b90506000816001600160601b031611612d895760405162461bcd60e51b815260040161060290614fa2565b600082118015612dc857506001600160a01b03861660009081526003602090815260408083206000198601845290915290205463ffffffff8581169116145b15612e37576001600160a01b03868116600090815260036020908152604080832060001987018452909152902080546001600160601b03888116600160a01b02908516600160401b026bffffffffffffffffffffffff60401b1990921691909117909216919091179055612f08565b6040805160808101825263ffffffff868116825285811660208084019182526001600160601b038681168587019081528b8216606087019081526001600160a01b038e81166000818152600387528a81208d825287528a812099518a5498519551945163ffffffff19909916908a161767ffffffff0000000019166401000000009590991694909402979097176bffffffffffffffffffffffff60401b1916600160401b928516929092029190911716600160a01b9490921693909302179093559081526004909152206001830190555b856001600160a01b0316336001600160a01b03167ff61a5f2f4d0b2d871d5bf18717d08a6b0f543afa7e08dad5df1fea150f72963287604051612f4b9190615071565b60405180910390a3505050505050565b6001600160a01b03821660009081526004602052604081205480612f83576000915050611953565b600063ffffffff8416612f97575080612fd4565b612fc18463ffffffff1687016040518060600160405280603f8152602001615344603f91396121a9565b63ffffffff16905081811115612fd45750805b6001600160a01b03851660009081526003602090815260408083206000198501845290915290205463ffffffff164381141561301257600019909101905b5095945050505050565b61302e826001600160a01b0316611e4f565b61304a5760405162461bcd60e51b815260040161060290614fc2565b60006060836001600160a01b0316836040516130669190614c94565b6000604051808303816000865af19150503d80600081146130a3576040519150601f19603f3d011682016040523d82523d6000602084013e6130a8565b606091505b5091509150816130ca5760405162461bcd60e51b815260040161060290614ea2565b805115610a0957808060200190516130e591908101906140a4565b610a095760405162461bcd60e51b815260040161060290614f82565b6001600160a01b031660009081526020919091526040902054151590565b6001546040805163afe8400960e01b815290516000926001600160a01b03169163afe84009916004808301926020929190829003018186803b15801561316457600080fd5b505afa158015613178573d6000803e3d6000fd5b505050506040513d601f19601f8201168201806040525061319c91908101906140e0565b905060006131a982612b40565b905060005b8351811015610a095760008482815181106131c557fe5b602002602001015190506040516131db90614ca0565b604051809103902060001c6001600160a01b0316816001600160a01b0316141580156132195750836001600160a01b0316816001600160a01b031614155b80156132375750826001600160a01b0316816001600160a01b031614155b156132545760405162461bcd60e51b815260040161060290614e12565b506001016131ae565b6001546040805163afe8400960e01b815290516000928392339284926001600160a01b03169163afe84009916004808301926020929190829003018186803b1580156132a857600080fd5b505afa1580156132bc573d6000803e3d6000fd5b505050506040513d601f19601f820116820180604052506132e091908101906140e0565b905060006132ed82612b40565b90506132fa878488613a1c565b9095509350841561343b576001600160a01b0380841660009081526005602090815260408083208b85168085529252909120869055908316141561339b57604051632e1a7d4d60e01b81526001600160a01b03831690632e1a7d4d90613364908890600401614fd2565b600060405180830381600087803b15801561337e57600080fd5b505af1158015613392573d6000803e3d6000fd5b5050505061343b565b806001600160a01b0316876001600160a01b0316141561343b57604051630141abc160e21b81526001600160a01b03821690630506af04906133e69030908990600090600401614cfa565b602060405180830381600087803b15801561340057600080fd5b505af1158015613414573d6000803e3d6000fd5b505050506040513d601f19601f82011682018060405250613438919081019061411c565b94505b5050509250929050565b600081848411156134695760405162461bcd60e51b81526004016106029190614dc1565b505050900390565b60005b8251811015610d7857613485613bb5565b83828151811061349157fe5b6020026020010151905060018160200151116134bf5760405162461bcd60e51b815260040161060290614f02565b602080820180516001600160a01b038087166000908152600585526040808220875190931682529190945290922054905160001990920191116135145760405162461bcd60e51b815260040161060290614f62565b81516001600160a01b03166000908152600460209081526040909120549083015111156135535760405162461bcd60e51b815260040161060290614e32565b61355b613b8e565b5081516001600160a01b03908116600090815260036020908152604080832060001980870185529083528184208251608081018452905463ffffffff80821680845264010000000083049091169583018690526001600160601b03600160401b8304811684870152600160a01b909204909116606083015260025493516337e6b1c160e01b8152919693909316936337e6b1c193613601938c9391019190600401614d4b565b60206040518083038186803b15801561361957600080fd5b505afa15801561362d573d6000803e3d6000fd5b505050506040513d601f19601f82011682018060405250613651919081019061413a565b90506001600160601b0381161561367a5760405162461bcd60e51b815260040161060290614ec2565b613682613b8e565b5083516001600160a01b0390811660009081526003602090815260408083208784528252918290208251608081018452905463ffffffff80821680845264010000000083049091169383018490526001600160601b03600160401b8304811684870152600160a01b909204909116606083015260025493516337e6b1c160e01b8152919493909316926337e6b1c192613725928c92600019019190600401614d4b565b60206040518083038186803b15801561373d57600080fd5b505afa158015613751573d6000803e3d6000fd5b505050506040513d601f19601f82011682018060405250613775919081019061413a565b91506000826001600160601b0316116137a05760405162461bcd60e51b815260040161060290614e82565b505060019093019250613474915050565b600080806137c686600163ffffffff61254216565b3360009081526005602090815260408083206001600160a01b038c16845290915290205490915081111561381b573360009081526005602090815260408083206001600160a01b038b16845290915290208190555b613825878661325d565b925092505094509492505050565b6000808061384886600163ffffffff61254216565b3360009081526005602090815260408083206001600160a01b038c16845290915290205490915081111561389d573360009081526005602090815260408083206001600160a01b038b16845290915290208190555b6138a88786866121d1565b909890975095505050505050565b600081836138d75760405162461bcd60e51b81526004016106029190614dc1565b5060008385816138e357fe5b0495945050505050565b60025460405163cdbe715560e01b815260009182916001600160a01b039091169063cdbe7155906139249087908790600401615017565b60206040518083038186803b15801561393c57600080fd5b505afa158015613950573d6000803e3d6000fd5b505050506040513d601f19601f82011682018060405250613974919081019061413a565b6002546040516312916bdd60e11b81529192506001600160a01b031690632522d7ba906139a79087908790600401615025565b60206040518083038186803b1580156139bf57600080fd5b505afa1580156139d3573d6000803e3d6000fd5b505050506040513d601f19601f820116820180604052506139f7919081019061413a565b91506118bd828260405180608001604052806056815260200161544a60569139613b57565b6000806000600160009054906101000a90046001600160a01b03166001600160a01b031663afe840096040518163ffffffff1660e01b815260040160206040518083038186803b158015613a6f57600080fd5b505afa158015613a83573d6000803e3d6000fd5b505050506040513d601f19601f82011682018060405250613aa791908101906140e0565b90506000613ab482612b40565b9050604051613ac290614ca0565b604051809103902060001c6001600160a01b0316876001600160a01b03161480613afd5750816001600160a01b0316876001600160a01b0316145b80613b195750806001600160a01b0316876001600160a01b0316145b15613b3557613b2b8688600088611a9e565b9094509250613b4d565b60405162461bcd60e51b815260040161060290614df2565b5050935093915050565b6000836001600160601b0316836001600160601b0316111582906134695760405162461bcd60e51b81526004016106029190614dc1565b60408051608081018252600080825260208201819052918101829052606081019190915290565b604080518082019091526000808252602082015290565b80356108978161519f565b80516108978161519f565b60008083601f840112613bf457600080fd5b50813567ffffffffffffffff811115613c0c57600080fd5b602083019150836020820283011115613c2457600080fd5b9250929050565b600082601f830112613c3c57600080fd5b8135613c4f613c4a826150b4565b61508d565b91508181835260208401935060208101905083856020840282011115613c7457600080fd5b60005b83811015613ca05781613c8a8882613bcc565b8452506020928301929190910190600101613c77565b5050505092915050565b60008083601f840112613cbc57600080fd5b50813567ffffffffffffffff811115613cd457600080fd5b602083019150836040820283011115613c2457600080fd5b8051610897816151b3565b8035610897816151bc565b8051610897816151c5565b600060408284031215613d1f57600080fd5b613d29604061508d565b90506000613d378484613bcc565b8252506020613d4884848301613d54565b60208301525092915050565b8035610897816151ce565b8051610897816151ce565b8035610897816151d7565b8035610897816151e0565b8051610897816151e0565b600060208284031215613d9d57600080fd5b60006118bd8484613bcc565b600060208284031215613dbb57600080fd5b60006118bd8484613bd7565b60008060408385031215613dda57600080fd5b6000613de68585613bcc565b9250506020613df785828601613bcc565b9150509250929050565b60008060008060808587031215613e1757600080fd5b6000613e238787613bcc565b9450506020613e3487828801613bcc565b9350506040613e4587828801613d54565b9250506060613e5687828801613d54565b91505092959194509250565b60008060008060808587031215613e7857600080fd5b6000613e848787613bcc565b9450506020613e9587828801613bcc565b9350506040613ea687828801613d54565b9250506060613e5687828801613d6a565b60008060408385031215613eca57600080fd5b6000613ed68585613bcc565b9250506020613df785828601613d54565b600080600060608486031215613efc57600080fd5b6000613f088686613bcc565b9350506020613f1986828701613d6a565b9250506040613f2a86828701613bcc565b9150509250925092565b60008060408385031215613f4757600080fd5b6000613f538585613bcc565b9250506020613df785828601613d75565b60008060208385031215613f7757600080fd5b823567ffffffffffffffff811115613f8e57600080fd5b613f9a85828601613be2565b92509250509250929050565b60008060008060008060008060a0898b031215613fc257600080fd5b883567ffffffffffffffff811115613fd957600080fd5b613fe58b828c01613be2565b9850985050602089013567ffffffffffffffff81111561400457600080fd5b6140108b828c01613be2565b9650965050604089013567ffffffffffffffff81111561402f57600080fd5b61403b8b828c01613caa565b9450945050606061404e8b828c01613d6a565b925050608061405f8b828c01613bcc565b9150509295985092959890939650565b60006020828403121561408157600080fd5b813567ffffffffffffffff81111561409857600080fd5b6118bd84828501613c2b565b6000602082840312156140b657600080fd5b60006118bd8484613cec565b6000602082840312156140d457600080fd5b60006118bd8484613cf7565b6000602082840312156140f257600080fd5b60006118bd8484613d02565b60006040828403121561411057600080fd5b60006118bd8484613d0d565b60006020828403121561412e57600080fd5b60006118bd8484613d5f565b60006020828403121561414c57600080fd5b60006118bd8484613d80565b6000614164838361417b565b505060200190565b61417581615148565b82525050565b614175816150ff565b600061419083856150e2565b935061419b826150d5565b8060005b858110156141d1576141b182846150f0565b6141bb8882614158565b97506141c6836150d8565b92505060010161419f565b509495945050505050565b60006141e7826150de565b6141f181856150e2565b93506141fc836150d8565b8060005b838110156141d15781516142148882614158565b975061421f836150d8565b925050600101614200565b6141758161510a565b600061423e826150de565b61424881856150eb565b9350614258818560208601615169565b9290920192915050565b6141758161511c565b6000614276826150de565b61428081856150e2565b9350614290818560208601615169565b61429981615195565b9093019392505050565b60006142b06033836150e2565b7f46656553686172696e67436f6c6c6563746f723a3a7472616e73666572546f6b815272195b9cce881a5b9d985b1a5908185b5bdd5b9d606a1b602082015260400192915050565b60006143056034836150e2565b7f46656553686172696e67436f6c6c6563746f723a3a7472616e73666572546f6b815273656e733a20696e76616c6964206164647265737360601b602082015260400192915050565b600061435b6048836150e2565b7f46656553686172696e67436f6c6c6563746f723a3a5f6765745242544342616c81527f616e63653a206f6e6c7920726274632d626173656420746f6b656e732061726560208201526708185b1b1bddd95960c21b604082015260600192915050565b60006143cb603b836150e2565b7f46656553686172696e67436f6c6c6563746f723a3a776974686472617746656581527f733a206e6f20746f6b656e7320666f72207769746864726177616c0000000000602082015260400192915050565b600061442a6022836150e2565b7f6f6e6c7920726274632d626173656420746f6b656e732061726520616c6c6f77815261195960f21b602082015260400192915050565b600061446e6026836150e2565b7f4f776e61626c653a206e6577206f776e657220697320746865207a65726f206181526564647265737360d01b602082015260400192915050565b60006144b66032836150e2565b7f5f66726f6d436865636b706f696e742073686f756c64206265203c3d20746f74815271616c546f6b656e436865636b706f696e747360701b602082015260400192915050565b600061450a6034836150e2565b7f46656553686172696e67436f6c6c6563746f723a3a776974686472617752425481527310ce8815da5d1a191c985dd85b0819985a5b195960621b602082015260400192915050565b6000614560601b836150e2565b7f536166654d6174683a206164646974696f6e206f766572666c6f770000000000815260200192915050565b60006145996011836150e2565b7024b73b30b634b21021b7b73b32b93a32b960791b815260200192915050565b60006145c66035836150e2565b7f46656553686172696e67436f6c6c6563746f723a2066756e6374696f6e2063618152746e206f6e6c792062652063616c6c6564206f6e636560581b602082015260400192915050565b600061461d6035836150e2565b7f55736572207765696768746564207374616b652073686f756c64206265203e208152740c08185d080817d99c9bdb50da1958dadc1bda5b9d605a1b602082015260400192915050565b60006146746014836150e2565b73496e73756666696369656e742062616c616e636560601b815260200192915050565b60006146a46020836150e2565b7f5361666545524332303a206c6f772d6c6576656c2063616c6c206661696c6564815260200192915050565b60006146dd6030836150e2565b7f46656553686172696e67436f6c6c6563746f723a3a7472616e7366657252425481526f433a20696e76616c69642076616c756560801b602082015260400192915050565b600061472f6039836150e2565b7f55736572207765696768746564207374616b652073686f756c64206265207a6581527f726f2061742070726576696f757320636865636b706f696e7400000000000000602082015260400192915050565b600061478e6021836150e2565b7f536166654d6174683a206d756c7469706c69636174696f6e206f766572666c6f8152607760f81b602082015260400192915050565b60006147d1600c836150e2565b6b1d5b985d5d1a1bdc9a5e995960a21b815260200192915050565b60006147f96041836150e2565b7f46656553686172696e67436f6c6c6563746f723a3a77697468647261773a205f81527f6d6178436865636b706f696e74732073686f756c6420626520706f73697469766020820152606560f81b604082015260600192915050565b60006148626021836150e2565b7f5f66726f6d436865636b706f696e7420706172616d206d757374206265203e208152603160f81b602082015260400192915050565b60006148a5601a836150e2565b7f4e6f6e20636f6e7472616374206164647265737320676976656e000000000000815260200192915050565b60006148de602e836150e2565b7f5374616b696e673a3a7472616e73666572546f6b656e733a20746f6b656e207481526d1c985b9cd9995c8819985a5b195960921b602082015260400192915050565b600061492e6021836150eb565b7f524254435f44554d4d595f414444524553535f464f525f434845434b504f494e8152601560fa1b602082015260210192915050565b60006108976000836150eb565b600061497e604a836150e2565b7f46656553686172696e67436f6c6c6563746f723a3a7265636f766572496e636f81527f7272656374416c6c6f6361746564466565733a205769746864726177616c2072602082015269189d18c819985a5b195960b21b604082015260600192915050565b60006149f0600c836150e2565b6b1b9bdb9499595b9d1c985b9d60a21b815260200192915050565b6000614a186033836150e2565b7f46656553686172696e67436f6c6c6563746f723a3a77697468647261773a206c8152721bd85b881dd4909510c81b9bdd08199bdd5b99606a1b602082015260400192915050565b6000614a6d6038836150e2565b7f5f66726f6d436865636b706f696e7420706172616d206d757374206265203e2081527f7573657250726f636573736564436865636b706f696e74730000000000000000602082015260400192915050565b6000614acc6030836150e2565b7f46656553686172696e67436f6c6c6563746f723a3a77697468647261773a207781526f1a5d1a191c985dd85b0819985a5b195960821b602082015260400192915050565b6000614b1e602a836150e2565b7f5361666545524332303a204552433230206f7065726174696f6e20646964206e8152691bdd081cdd58d8d9595960b21b602082015260400192915050565b6000614b6a603a836150e2565b7f46656553686172696e67436f6c6c6563746f723a3a776974686472617746656581527f733a20746f6b656e206973206e6f74206120636f6e7472616374000000000000602082015260400192915050565b6000614bc9601a836150e2565b7f496e76616c696420746f74616c57656967687465645374616b65000000000000815260200192915050565b6000614c02601b836150e2565b7f5f6d6178436865636b706f696e7473206d757374206265203e20300000000000815260200192915050565b6000614c3b601f836150e2565b7f5361666545524332303a2063616c6c20746f206e6f6e2d636f6e747261637400815260200192915050565b614175816150d5565b61417581615153565b61417581615133565b6141758161515e565b6141758161513c565b60006119538284614233565b600061089782614921565b600061089782614964565b60208101610897828461417b565b60208101610897828461416c565b60608101614ce0828661416c565b614ced602083018561416c565b6118bd6040830184614c82565b60608101614d08828661416c565b614d156020830185614c67565b6118bd604083018461422a565b60408101614d30828561417b565b6119536020830184614c67565b60608101614d08828661417b565b60608101614d59828661417b565b614d666020830185614c70565b6118bd6040830184614c70565b60408082528101614d85818587614184565b90506118bd602083018461416c565b6020808252810161195381846141dc565b60208101610897828461422a565b602081016108978284614262565b60208082528101611953818461426b565b60208082528101610897816142a3565b60208082528101610897816142f8565b602080825281016108978161434e565b60208082528101610897816143be565b602080825281016108978161441d565b6020808252810161089781614461565b60208082528101610897816144a9565b60208082528101610897816144fd565b6020808252810161089781614553565b602080825281016108978161458c565b60208082528101610897816145b9565b6020808252810161089781614610565b6020808252810161089781614667565b6020808252810161089781614697565b60208082528101610897816146d0565b6020808252810161089781614722565b6020808252810161089781614781565b60208082528101610897816147c4565b60208082528101610897816147ec565b6020808252810161089781614855565b6020808252810161089781614898565b60208082528101610897816148d1565b6020808252810161089781614971565b60208082528101610897816149e3565b6020808252810161089781614a0b565b6020808252810161089781614a60565b6020808252810161089781614abf565b6020808252810161089781614b11565b6020808252810161089781614b5d565b6020808252810161089781614bbc565b6020808252810161089781614bf5565b6020808252810161089781614c2e565b602081016108978284614c67565b60608101614fee8286614c67565b614d15602083018561422a565b60408101614d308285614c67565b602081016108978284614c70565b60408101614d308285614c70565b60408101614d308285614c79565b608081016150418287614c79565b61504e6020830186614c79565b61505b6040830185614c8b565b6150686060830184614c8b565b95945050505050565b602081016108978284614c82565b602081016108978284614c8b565b60405181810167ffffffffffffffff811182821017156150ac57600080fd5b604052919050565b600067ffffffffffffffff8211156150cb57600080fd5b5060209081020190565b90565b60200190565b5190565b90815260200190565b919050565b60006119536020840184613bcc565b600061089782615127565b151590565b6001600160e01b03191690565b6000610897826150ff565b6001600160a01b031690565b63ffffffff1690565b6001600160601b031690565b60006108978261511c565b600061089782615133565b60006108978261513c565b60005b8381101561518457818101518382015260200161516c565b83811115610a095750506000910152565b601f01601f191690565b6151a8816150ff565b811461191957600080fd5b6151a88161510a565b6151a88161510f565b6151a88161511c565b6151a8816150d5565b6151a881615133565b6151a88161513c56fe46656553686172696e67436f6c6c6563746f723a206d6178436865636b706f696e7420697465726174696f6e2065786365656473203332206269747346656553686172696e67436f6c6c6563746f723a3a7769746864726177466565733a20777262746320746f6b656e20616d6f756e742065786365656473203936206269747346656553686172696e67436f6c6c6563746f723a3a776974686472617746656573414d4d3a20746f74616c20777262746320746f6b656e20616d6f756e742065786365656473203936206269747346656553686172696e67436f6c6c6563746f723a3a776974686472617746656573414d4d3a20777262746320746f6b656e20616d6f756e742065786365656473203936206269747346656553686172696e67436f6c6c6563746f723a3a5f7772697465436865636b706f696e743a20626c6f636b206e756d6265722065786365656473203332206269747346656553686172696e67436f6c6c6563746f723a3a77697468647261773a20636865636b706f696e7420696e6465782065786365656473203332206269747346656553686172696e67436f6c6c6563746f723a3a5f616464436865636b706f696e743a20616d6f756e742065786365656473203936206269747346656553686172696e67436f6c6c6563746f723a3a5f7772697465436865636b706f696e743a20626c6f636b2074696d657374616d702065786365656473203332206269747346656553686172696e67436f6c6c6563746f723a3a5f616464436865636b706f696e743a20756e70726f636573736564416d6f756e742065786365656473203936206269747346656553686172696e67436f6c6c6563746f723a3a5f676574546f74616c566f6c756e7461727957656967687465645374616b653a20766573746564207374616b65206578636565647320746f74616c207374616b65a365627a7a723158209666576cf422bd149de3f234c86cc27368a393bc37b8db8c54b8deb23073f7ae6c6578706572696d656e74616cf564736f6c63430005110040",
  "devdoc": {
    "methods": {
      "addWhitelistedConverterAddress(address)": {
        "details": "Whitelisting converter address.",
        "params": {
          "converterAddress": "converter address to be whitelisted."
        }
      },
      "claimAllCollectedFees(address[],address[],(address,uint256)[],uint32,address)": {
        "details": "Function to wrap: 1. regular withdrawal for both rbtc & non-rbtc token 2. skipped checkpoints withdrawal for both rbtc & non-rbtc token",
        "params": {
          "_nonRbtcTokensRegularWithdraw": "array of non-rbtc token address with no skipped checkpoints that will be withdrawn",
          "_rbtcTokensRegularWithdraw": "array of rbtc token address with no skipped checkpoints that will be withdrawn",
          "_tokensWithSkippedCheckpoints": "array of rbtc & non-rbtc TokenWithSkippedCheckpointsWithdraw struct, which has skipped checkpoints that will be withdrawn     "
        }
      },
      "getAccumulatedFees(address,address)": {
        "params": {
          "_token": "RBTC dummy to fit into existing data structure or SOV. Former address of the pool token.",
          "_user": "The address of the user or contract."
        },
        "return": "The accumulated fee for the message sender."
      },
      "getAccumulatedFeesForCheckpointsRange(address,address,uint256,uint32)": {
        "details": "This function is required to keep consistent with caching of weighted voting power when claiming fees",
        "params": {
          "_maxCheckpoints": "maxCheckpoints to get accumulated fees for the _user",
          "_startFrom": "Checkpoint to start calculating fees from.",
          "_token": "RBTC dummy to fit into existing data structure or SOV. Former address of the pool token.",
          "_user": "The address of a user (staker) or contract."
        },
        "return": "The accumulated fees rewards for the _user in the given checkpoints interval: [_startFrom, _startFrom + maxCheckpoints]."
      },
      "getAccumulatedRBTCFeeBalances(address)": {
        "details": "view function that calculate the total RBTC that includes: - RBTC - WRBTC - iWRBTC * iWRBTC.tokenPrice()",
        "params": {
          "_user": "address of the user."
        },
        "return": "rbtc balance of the given user's address."
      },
      "getNextPositiveUserCheckpoint(address,address,uint256,uint256)": {
        "details": "Returns first user's checkpoint with weighted stake > 0",
        "params": {
          "_maxCheckpoints": "Max checkpoints to process in a row to avoid timeout error",
          "_startFrom": "Checkpoint number to start from. If _startFrom < processedUserCheckpoints then starts from processedUserCheckpoints.",
          "_token": "RBTC dummy to fit into existing data structure or SOV. Former address of the pool token.",
          "_user": "The address of the user or contract."
        },
        "return": "[checkpointNum: checkpoint number where user's weighted stake > 0, hasSkippedCheckpoints, hasFees]"
      },
      "getWhitelistedConverterList()": {
        "return": "All of the whitelisted converter list."
      },
      "isOwner()": {
        "details": "Returns true if the caller is the current owner."
      },
      "numTokenCheckpoints(address)": {
        "details": "This getter function `numTokenCheckpoints` is added for backwards compatibility     broken when renamed `numTokenCheckpoints` storage variable to `totalTokenCheckpoints`.",
        "params": {
          "_token": "token address to get checkpoints for"
        },
        "return": "Total token checkpoints"
      },
      "owner()": {
        "details": "Returns the address of the current owner."
      },
      "recoverIncorrectAllocatedFees()": {
        "details": "This function is dedicated to recover the wrong fee allocation for the 4 year vesting contracts. This function can only be called once The affected tokens to be withdrawn 1. RBTC 2. ZUSD 3. SOV The amount for all of the tokens above is hardcoded The withdrawn tokens will be sent to the owner."
      },
      "removeWhitelistedConverterAddress(address)": {
        "details": "Removing converter address from whitelist.",
        "params": {
          "converterAddress": "converter address to be removed from whitelist."
        }
      },
      "transferOwnership(address)": {
        "details": "Transfers ownership of the contract to a new account (`newOwner`). Can only be called by the current owner."
      },
      "transferRBTC()": {
        "details": "We just write checkpoint here (based on the rbtc value that is sent) in a separate methods in order to prevent adding checkpoints too often."
      },
      "transferTokens(address,uint96)": {
        "details": "We just update amount of tokens here and write checkpoint in a separate methods in order to prevent adding checkpoints too often.",
        "params": {
          "_amount": "Amount to be transferred.",
          "_token": "Address of the token."
        }
      },
      "withdraw(address,uint32,address)": {
        "params": {
          "_maxCheckpoints": "Maximum number of checkpoints to be processed. Must be positive value.",
          "_receiver": "The receiver of tokens or msg.sender",
          "_token": "RBTC dummy to fit into existing data structure or SOV. Former address of the pool token."
        }
      },
      "withdrawFees(address[])": {
        "params": {
          "_tokens": "array address of the token"
        }
      },
      "withdrawFeesAMM(address[])": {
        "params": {
          "_converters": "array addresses of the converters"
        }
      }
    },
    "title": "The FeeSharingCollector contract."
  },
  "userdoc": {
    "methods": {
      "getAccumulatedFees(address,address)": {
        "notice": "Get the accumulated loan pool fee of the message sender."
      },
      "getAccumulatedFeesForCheckpointsRange(address,address,uint256,uint32)": {
        "notice": "Get the accumulated fee rewards for the message sender for a checkpoints range"
      },
      "getWhitelistedConverterList()": {
        "notice": "Getter to query all of the whitelisted converter."
      },
      "transferRBTC()": {
        "notice": "Transfer RBTC / native tokens to this contract."
      },
      "transferTokens(address,uint96)": {
        "notice": "Transfer tokens to this contract."
      },
      "withdraw(address,uint32,address)": {
        "notice": "Withdraw accumulated fee to the message sender.     * The Sovryn protocol collects fees on every trade/swap and loan. These fees will be distributed to SOV stakers based on their voting power as a percentage of total voting power. Therefore, staking more SOV and/or staking for longer will increase your share of the fees generated, meaning you will earn more from staking.     * This function will directly burnToBTC and use the msg.sender (user) as the receiver"
      },
      "withdrawFees(address[])": {
        "notice": "Withdraw fees for the given token: lendingFee + tradingFee + borrowingFee the fees (except SOV) will be converted in wRBTC form, and then will be transferred to wRBTC loan pool. For SOV, it will be directly deposited into the feeSharingCollector from the protocol."
      },
      "withdrawFeesAMM(address[])": {
        "notice": "Withdraw amm fees for the given converter addresses: protocolFee from the conversion the fees will be converted in wRBTC form, and then will be transferred to wRBTC loan pool"
      }
    },
    "notice": "This contract withdraws fees to be paid to SOV Stakers from the protocol. Stakers call withdraw() to get their share of the fees.Staking is not only granting voting rights, but also access to fee sharing according to the own voting power in relation to the total. Whenever somebody decides to collect the fees from the protocol, they get transferred to a proxy contract which invests the funds in the lending pool and keeps the pool tokens. * The fee sharing proxy will be set as feesController of the protocol contract. This allows the fee sharing proxy to withdraw the fees. The fee sharing proxy holds the pool tokens and keeps track of which user owns how many tokens. In order to know how many tokens a user owns, the fee sharing proxy needs to know the users weighted stake in relation to the total weighted stake (aka total voting power). * Because both values are subject to change, they may be different on each fee withdrawal. To be able to calculate a users share of tokens when he wants to withdraw, we need checkpoints. * This contract is intended to be set as the protocol fee collector. Anybody can invoke the withdrawFees function which uses protocol.withdrawFees to obtain available fees from operations on a certain token. These fees are deposited in the corresponding loanPool. Also, the staking contract sends slashed tokens to this contract. When a user calls the withdraw function, the contract transfers the fee sharing rewards in proportion to the users weighted stake since the last withdrawal. * The protocol initially collects fees in all tokens. Then the FeeSharingCollector wihtdraws fees from the protocol. When the fees are withdrawn all the tokens except SOV will be converted to wRBTC and then transferred to wRBTC loan pool. For SOV, it will be directly deposited into the feeSharingCollector from the protocol."
  },
  "storageLayout": {
    "storage": [
      {
        "astId": 54288,
        "contract": "contracts/governance/FeeSharingCollector/FeeSharingCollector.sol:FeeSharingCollector",
        "label": "_owner",
        "offset": 0,
        "slot": "0",
        "type": "t_address"
      },
      {
        "astId": 15203,
        "contract": "contracts/governance/FeeSharingCollector/FeeSharingCollector.sol:FeeSharingCollector",
        "label": "protocol",
        "offset": 0,
        "slot": "1",
        "type": "t_contract(IProtocol)15306"
      },
      {
        "astId": 15205,
        "contract": "contracts/governance/FeeSharingCollector/FeeSharingCollector.sol:FeeSharingCollector",
        "label": "staking",
        "offset": 0,
        "slot": "2",
        "type": "t_contract(IStaking)17644"
      },
      {
        "astId": 15211,
        "contract": "contracts/governance/FeeSharingCollector/FeeSharingCollector.sol:FeeSharingCollector",
        "label": "tokenCheckpoints",
        "offset": 0,
        "slot": "3",
        "type": "t_mapping(t_address,t_mapping(t_uint256,t_struct(Checkpoint)15238_storage))"
      },
      {
        "astId": 15215,
        "contract": "contracts/governance/FeeSharingCollector/FeeSharingCollector.sol:FeeSharingCollector",
        "label": "totalTokenCheckpoints",
        "offset": 0,
        "slot": "4",
        "type": "t_mapping(t_address,t_uint256)"
      },
      {
        "astId": 15221,
        "contract": "contracts/governance/FeeSharingCollector/FeeSharingCollector.sol:FeeSharingCollector",
        "label": "processedCheckpoints",
        "offset": 0,
        "slot": "5",
        "type": "t_mapping(t_address,t_mapping(t_address,t_uint256))"
      },
      {
        "astId": 15225,
        "contract": "contracts/governance/FeeSharingCollector/FeeSharingCollector.sol:FeeSharingCollector",
        "label": "lastFeeWithdrawalTime",
        "offset": 0,
        "slot": "6",
        "type": "t_mapping(t_address,t_uint256)"
      },
      {
        "astId": 15229,
        "contract": "contracts/governance/FeeSharingCollector/FeeSharingCollector.sol:FeeSharingCollector",
        "label": "unprocessedAmount",
        "offset": 0,
        "slot": "7",
        "type": "t_mapping(t_address,t_uint96)"
      },
      {
        "astId": 15252,
        "contract": "contracts/governance/FeeSharingCollector/FeeSharingCollector.sol:FeeSharingCollector",
        "label": "reentrancyLock",
        "offset": 0,
        "slot": "8",
        "type": "t_uint256"
      },
      {
        "astId": 15254,
        "contract": "contracts/governance/FeeSharingCollector/FeeSharingCollector.sol:FeeSharingCollector",
        "label": "whitelistedConverterList",
        "offset": 0,
        "slot": "9",
        "type": "t_struct(AddressSet)35732_storage"
      },
      {
        "astId": 15258,
        "contract": "contracts/governance/FeeSharingCollector/FeeSharingCollector.sol:FeeSharingCollector",
        "label": "isFunctionExecuted",
        "offset": 0,
        "slot": "11",
        "type": "t_mapping(t_bytes4,t_bool)"
      }
    ],
    "types": {
      "t_address": {
        "encoding": "inplace",
        "label": "address",
        "numberOfBytes": "20"
      },
      "t_array(t_address)dyn_storage": {
        "base": "t_address",
        "encoding": "dynamic_array",
        "label": "address[]",
        "numberOfBytes": "32"
      },
      "t_bool": {
        "encoding": "inplace",
        "label": "bool",
        "numberOfBytes": "1"
      },
      "t_bytes4": {
        "encoding": "inplace",
        "label": "bytes4",
        "numberOfBytes": "4"
      },
      "t_contract(IProtocol)15306": {
        "encoding": "inplace",
        "label": "contract IProtocol",
        "numberOfBytes": "20"
      },
      "t_contract(IStaking)17644": {
        "encoding": "inplace",
        "label": "contract IStaking",
        "numberOfBytes": "20"
      },
      "t_mapping(t_address,t_mapping(t_address,t_uint256))": {
        "encoding": "mapping",
        "key": "t_address",
        "label": "mapping(address => mapping(address => uint256))",
        "numberOfBytes": "32",
        "value": "t_mapping(t_address,t_uint256)"
      },
      "t_mapping(t_address,t_mapping(t_uint256,t_struct(Checkpoint)15238_storage))": {
        "encoding": "mapping",
        "key": "t_address",
        "label": "mapping(address => mapping(uint256 => struct FeeSharingCollectorStorage.Checkpoint))",
        "numberOfBytes": "32",
        "value": "t_mapping(t_uint256,t_struct(Checkpoint)15238_storage)"
      },
      "t_mapping(t_address,t_uint256)": {
        "encoding": "mapping",
        "key": "t_address",
        "label": "mapping(address => uint256)",
        "numberOfBytes": "32",
        "value": "t_uint256"
      },
      "t_mapping(t_address,t_uint96)": {
        "encoding": "mapping",
        "key": "t_address",
        "label": "mapping(address => uint96)",
        "numberOfBytes": "32",
        "value": "t_uint96"
      },
      "t_mapping(t_bytes4,t_bool)": {
        "encoding": "mapping",
        "key": "t_bytes4",
        "label": "mapping(bytes4 => bool)",
        "numberOfBytes": "32",
        "value": "t_bool"
      },
      "t_mapping(t_uint256,t_struct(Checkpoint)15238_storage)": {
        "encoding": "mapping",
        "key": "t_uint256",
        "label": "mapping(uint256 => struct FeeSharingCollectorStorage.Checkpoint)",
        "numberOfBytes": "32",
        "value": "t_struct(Checkpoint)15238_storage"
      },
      "t_struct(AddressSet)35732_storage": {
        "encoding": "inplace",
        "label": "struct EnumerableAddressSet.AddressSet",
        "members": [
          {
            "astId": 35728,
            "contract": "contracts/governance/FeeSharingCollector/FeeSharingCollector.sol:FeeSharingCollector",
            "label": "index",
            "offset": 0,
            "slot": "0",
            "type": "t_mapping(t_address,t_uint256)"
          },
          {
            "astId": 35731,
            "contract": "contracts/governance/FeeSharingCollector/FeeSharingCollector.sol:FeeSharingCollector",
            "label": "values",
            "offset": 0,
            "slot": "1",
            "type": "t_array(t_address)dyn_storage"
          }
        ],
        "numberOfBytes": "64"
      },
      "t_struct(Checkpoint)15238_storage": {
        "encoding": "inplace",
        "label": "struct FeeSharingCollectorStorage.Checkpoint",
        "members": [
          {
            "astId": 15231,
            "contract": "contracts/governance/FeeSharingCollector/FeeSharingCollector.sol:FeeSharingCollector",
            "label": "blockNumber",
            "offset": 0,
            "slot": "0",
            "type": "t_uint32"
          },
          {
            "astId": 15233,
            "contract": "contracts/governance/FeeSharingCollector/FeeSharingCollector.sol:FeeSharingCollector",
            "label": "timestamp",
            "offset": 4,
            "slot": "0",
            "type": "t_uint32"
          },
          {
            "astId": 15235,
            "contract": "contracts/governance/FeeSharingCollector/FeeSharingCollector.sol:FeeSharingCollector",
            "label": "totalWeightedStake",
            "offset": 8,
            "slot": "0",
            "type": "t_uint96"
          },
          {
            "astId": 15237,
            "contract": "contracts/governance/FeeSharingCollector/FeeSharingCollector.sol:FeeSharingCollector",
            "label": "numTokens",
            "offset": 20,
            "slot": "0",
            "type": "t_uint96"
          }
        ],
        "numberOfBytes": "32"
      },
      "t_uint256": {
        "encoding": "inplace",
        "label": "uint256",
        "numberOfBytes": "32"
      },
      "t_uint32": {
        "encoding": "inplace",
        "label": "uint32",
        "numberOfBytes": "4"
      },
      "t_uint96": {
        "encoding": "inplace",
        "label": "uint96",
        "numberOfBytes": "12"
      }
    }
  }
}