{
  "address": "0xedD92fb7C556E4A4faf8c4f5A90f471aDCD018f4",
  "abi": [
    {
      "anonymous": false,
      "inputs": [
        {
          "indexed": true,
          "internalType": "address",
          "name": "sender",
          "type": "address"
        },
        {
          "indexed": true,
          "internalType": "address",
          "name": "token",
          "type": "address"
        },
        {
          "indexed": false,
          "internalType": "uint256",
          "name": "amount",
          "type": "uint256"
        }
      ],
      "name": "CheckpointAdded",
      "type": "event"
    },
    {
      "anonymous": false,
      "inputs": [
        {
          "indexed": true,
          "internalType": "address",
          "name": "sender",
          "type": "address"
        },
        {
          "indexed": true,
          "internalType": "address",
          "name": "converter",
          "type": "address"
        },
        {
          "indexed": false,
          "internalType": "uint256",
          "name": "amount",
          "type": "uint256"
        }
      ],
      "name": "FeeAMMWithdrawn",
      "type": "event"
    },
    {
      "anonymous": false,
      "inputs": [
        {
          "indexed": true,
          "internalType": "address",
          "name": "sender",
          "type": "address"
        },
        {
          "indexed": false,
          "internalType": "uint256",
          "name": "amount",
          "type": "uint256"
        }
      ],
      "name": "FeeWithdrawnInRBTC",
      "type": "event"
    },
    {
      "anonymous": false,
      "inputs": [
        {
          "indexed": true,
          "internalType": "address",
          "name": "previousOwner",
          "type": "address"
        },
        {
          "indexed": true,
          "internalType": "address",
          "name": "newOwner",
          "type": "address"
        }
      ],
      "name": "OwnershipTransferred",
      "type": "event"
    },
    {
      "anonymous": false,
      "inputs": [
        {
          "indexed": true,
          "internalType": "address",
          "name": "sender",
          "type": "address"
        },
        {
          "indexed": true,
          "internalType": "address",
          "name": "receiver",
          "type": "address"
        },
        {
          "indexed": false,
          "internalType": "uint256",
          "name": "amount",
          "type": "uint256"
        }
      ],
      "name": "RBTCWithdrawn",
      "type": "event"
    },
    {
      "anonymous": false,
      "inputs": [
        {
          "indexed": true,
          "internalType": "address",
          "name": "sender",
          "type": "address"
        },
        {
          "indexed": true,
          "internalType": "address",
          "name": "token",
          "type": "address"
        },
        {
          "indexed": false,
          "internalType": "uint256",
          "name": "amount",
          "type": "uint256"
        }
      ],
      "name": "TokensTransferred",
      "type": "event"
    },
    {
      "anonymous": false,
      "inputs": [
        {
          "indexed": true,
          "internalType": "address",
          "name": "sender",
          "type": "address"
        },
        {
          "indexed": false,
          "internalType": "address",
          "name": "converter",
          "type": "address"
        }
      ],
      "name": "UnwhitelistedConverter",
      "type": "event"
    },
    {
      "anonymous": false,
      "inputs": [
        {
          "indexed": true,
          "internalType": "address",
          "name": "sender",
          "type": "address"
        },
        {
          "indexed": true,
          "internalType": "address",
          "name": "token",
          "type": "address"
        },
        {
          "indexed": false,
          "internalType": "uint256",
          "name": "prevProcessedCheckpoints",
          "type": "uint256"
        },
        {
          "indexed": false,
          "internalType": "uint256",
          "name": "newProcessedCheckpoints",
          "type": "uint256"
        }
      ],
      "name": "UserFeeProcessedNoWithdraw",
      "type": "event"
    },
    {
      "anonymous": false,
      "inputs": [
        {
          "indexed": true,
          "internalType": "address",
          "name": "sender",
          "type": "address"
        },
        {
          "indexed": true,
          "internalType": "address",
          "name": "receiver",
          "type": "address"
        },
        {
          "indexed": true,
          "internalType": "address",
          "name": "token",
          "type": "address"
        },
        {
          "indexed": false,
          "internalType": "uint256",
          "name": "amount",
          "type": "uint256"
        }
      ],
      "name": "UserFeeWithdrawn",
      "type": "event"
    },
    {
      "anonymous": false,
      "inputs": [
        {
          "indexed": true,
          "internalType": "address",
          "name": "sender",
          "type": "address"
        },
        {
          "indexed": false,
          "internalType": "address",
          "name": "converter",
          "type": "address"
        }
      ],
      "name": "WhitelistedConverter",
      "type": "event"
    },
    {
      "payable": true,
      "stateMutability": "payable",
      "type": "fallback"
    },
    {
      "constant": true,
      "inputs": [],
      "name": "RBTC_DUMMY_ADDRESS_FOR_CHECKPOINT",
      "outputs": [
        {
          "internalType": "address",
          "name": "",
          "type": "address"
        }
      ],
      "payable": false,
      "stateMutability": "view",
      "type": "function"
    },
    {
      "constant": false,
      "inputs": [
        {
          "internalType": "address",
          "name": "converterAddress",
          "type": "address"
        }
      ],
      "name": "addWhitelistedConverterAddress",
      "outputs": [],
      "payable": false,
      "stateMutability": "nonpayable",
      "type": "function"
    },
    {
      "constant": true,
      "inputs": [
        {
          "internalType": "address",
          "name": "_user",
          "type": "address"
        },
        {
          "internalType": "address",
          "name": "_token",
          "type": "address"
        }
      ],
      "name": "getAccumulatedFees",
      "outputs": [
        {
          "internalType": "uint256",
          "name": "",
          "type": "uint256"
        }
      ],
      "payable": false,
      "stateMutability": "view",
      "type": "function"
    },
    {
      "constant": true,
      "inputs": [
        {
          "internalType": "address",
          "name": "_user",
          "type": "address"
        },
        {
          "internalType": "address",
          "name": "_token",
          "type": "address"
        },
        {
          "internalType": "uint256",
          "name": "_startFrom",
          "type": "uint256"
        },
        {
          "internalType": "uint32",
          "name": "_maxCheckpoints",
          "type": "uint32"
        }
      ],
      "name": "getAccumulatedFeesForCheckpointsRange",
      "outputs": [
        {
          "internalType": "uint256",
          "name": "",
          "type": "uint256"
        }
      ],
      "payable": false,
      "stateMutability": "view",
      "type": "function"
    },
    {
      "constant": true,
      "inputs": [
        {
          "internalType": "address",
          "name": "_user",
          "type": "address"
        }
      ],
      "name": "getAccumulatedRBTCFeeBalances",
      "outputs": [
        {
          "internalType": "uint256",
          "name": "",
          "type": "uint256"
        }
      ],
      "payable": false,
      "stateMutability": "view",
      "type": "function"
    },
    {
      "constant": true,
      "inputs": [
        {
          "internalType": "address",
          "name": "_user",
          "type": "address"
        },
        {
          "internalType": "address",
          "name": "_token",
          "type": "address"
        },
        {
          "internalType": "uint256",
          "name": "_startFrom",
          "type": "uint256"
        },
        {
          "internalType": "uint32",
          "name": "_maxCheckpoints",
          "type": "uint32"
        }
      ],
      "name": "getAllUserFeesPerMaxCheckpoints",
      "outputs": [
        {
          "internalType": "uint256[]",
          "name": "fees",
          "type": "uint256[]"
        }
      ],
      "payable": false,
      "stateMutability": "view",
      "type": "function"
    },
    {
      "constant": true,
      "inputs": [
        {
          "internalType": "address",
          "name": "_user",
          "type": "address"
        },
        {
          "internalType": "address",
          "name": "_token",
          "type": "address"
        },
        {
          "internalType": "uint256",
          "name": "_startFrom",
          "type": "uint256"
        },
        {
          "internalType": "uint256",
          "name": "_maxCheckpoints",
          "type": "uint256"
        }
      ],
      "name": "getNextPositiveUserCheckpoint",
      "outputs": [
        {
          "internalType": "uint256",
          "name": "checkpointNum",
          "type": "uint256"
        },
        {
          "internalType": "bool",
          "name": "hasSkippedCheckpoints",
          "type": "bool"
        },
        {
          "internalType": "bool",
          "name": "hasFees",
          "type": "bool"
        }
      ],
      "payable": false,
      "stateMutability": "view",
      "type": "function"
    },
    {
      "constant": true,
      "inputs": [],
      "name": "getWhitelistedConverterList",
      "outputs": [
        {
          "internalType": "address[]",
          "name": "converterList",
          "type": "address[]"
        }
      ],
      "payable": false,
      "stateMutability": "view",
      "type": "function"
    },
    {
      "constant": true,
      "inputs": [
        {
          "internalType": "bytes4",
          "name": "",
          "type": "bytes4"
        }
      ],
      "name": "isFunctionExecuted",
      "outputs": [
        {
          "internalType": "bool",
          "name": "",
          "type": "bool"
        }
      ],
      "payable": false,
      "stateMutability": "view",
      "type": "function"
    },
    {
      "constant": true,
      "inputs": [],
      "name": "isOwner",
      "outputs": [
        {
          "internalType": "bool",
          "name": "",
          "type": "bool"
        }
      ],
      "payable": false,
      "stateMutability": "view",
      "type": "function"
    },
    {
      "constant": true,
      "inputs": [
        {
          "internalType": "address",
          "name": "",
          "type": "address"
        }
      ],
      "name": "lastFeeWithdrawalTime",
      "outputs": [
        {
          "internalType": "uint256",
          "name": "",
          "type": "uint256"
        }
      ],
      "payable": false,
      "stateMutability": "view",
      "type": "function"
    },
    {
      "constant": true,
      "inputs": [
        {
          "internalType": "address",
          "name": "_token",
          "type": "address"
        }
      ],
      "name": "numTokenCheckpoints",
      "outputs": [
        {
          "internalType": "uint256",
          "name": "",
          "type": "uint256"
        }
      ],
      "payable": false,
      "stateMutability": "view",
      "type": "function"
    },
    {
      "constant": true,
      "inputs": [],
      "name": "owner",
      "outputs": [
        {
          "internalType": "address",
          "name": "",
          "type": "address"
        }
      ],
      "payable": false,
      "stateMutability": "view",
      "type": "function"
    },
    {
      "constant": true,
      "inputs": [
        {
          "internalType": "address",
          "name": "",
          "type": "address"
        },
        {
          "internalType": "address",
          "name": "",
          "type": "address"
        }
      ],
      "name": "processedCheckpoints",
      "outputs": [
        {
          "internalType": "uint256",
          "name": "",
          "type": "uint256"
        }
      ],
      "payable": false,
      "stateMutability": "view",
      "type": "function"
    },
    {
      "constant": true,
      "inputs": [],
      "name": "protocol",
      "outputs": [
        {
          "internalType": "contract IProtocol",
          "name": "",
          "type": "address"
        }
      ],
      "payable": false,
      "stateMutability": "view",
      "type": "function"
    },
    {
      "constant": false,
      "inputs": [],
      "name": "recoverIncorrectAllocatedFees",
      "outputs": [],
      "payable": false,
      "stateMutability": "nonpayable",
      "type": "function"
    },
    {
      "constant": false,
      "inputs": [
        {
          "internalType": "address",
          "name": "converterAddress",
          "type": "address"
        }
      ],
      "name": "removeWhitelistedConverterAddress",
      "outputs": [],
      "payable": false,
      "stateMutability": "nonpayable",
      "type": "function"
    },
    {
      "constant": true,
      "inputs": [],
      "name": "staking",
      "outputs": [
        {
          "internalType": "contract IStaking",
          "name": "",
          "type": "address"
        }
      ],
      "payable": false,
      "stateMutability": "view",
      "type": "function"
    },
    {
      "constant": true,
      "inputs": [
        {
          "internalType": "address",
          "name": "",
          "type": "address"
        },
        {
          "internalType": "uint256",
          "name": "",
          "type": "uint256"
        }
      ],
      "name": "tokenCheckpoints",
      "outputs": [
        {
          "internalType": "uint32",
          "name": "blockNumber",
          "type": "uint32"
        },
        {
          "internalType": "uint32",
          "name": "timestamp",
          "type": "uint32"
        },
        {
          "internalType": "uint96",
          "name": "totalWeightedStake",
          "type": "uint96"
        },
        {
          "internalType": "uint96",
          "name": "numTokens",
          "type": "uint96"
        }
      ],
      "payable": false,
      "stateMutability": "view",
      "type": "function"
    },
    {
      "constant": true,
      "inputs": [
        {
          "internalType": "address",
          "name": "",
          "type": "address"
        }
      ],
      "name": "totalTokenCheckpoints",
      "outputs": [
        {
          "internalType": "uint256",
          "name": "",
          "type": "uint256"
        }
      ],
      "payable": false,
      "stateMutability": "view",
      "type": "function"
    },
    {
      "constant": false,
      "inputs": [
        {
          "internalType": "address",
          "name": "newOwner",
          "type": "address"
        }
      ],
      "name": "transferOwnership",
      "outputs": [],
      "payable": false,
      "stateMutability": "nonpayable",
      "type": "function"
    },
    {
      "constant": false,
      "inputs": [],
      "name": "transferRBTC",
      "outputs": [],
      "payable": true,
      "stateMutability": "payable",
      "type": "function"
    },
    {
      "constant": false,
      "inputs": [
        {
          "internalType": "address",
          "name": "_token",
          "type": "address"
        },
        {
          "internalType": "uint96",
          "name": "_amount",
          "type": "uint96"
        }
      ],
      "name": "transferTokens",
      "outputs": [],
      "payable": false,
      "stateMutability": "nonpayable",
      "type": "function"
    },
    {
      "constant": true,
      "inputs": [
        {
          "internalType": "address",
          "name": "",
          "type": "address"
        }
      ],
      "name": "unprocessedAmount",
      "outputs": [
        {
          "internalType": "uint96",
          "name": "",
          "type": "uint96"
        }
      ],
      "payable": false,
      "stateMutability": "view",
      "type": "function"
    },
    {
      "constant": false,
      "inputs": [
        {
          "internalType": "address",
          "name": "_token",
          "type": "address"
        },
        {
          "internalType": "uint32",
          "name": "_maxCheckpoints",
          "type": "uint32"
        },
        {
          "internalType": "address",
          "name": "_receiver",
          "type": "address"
        }
      ],
      "name": "withdraw",
      "outputs": [],
      "payable": false,
      "stateMutability": "nonpayable",
      "type": "function"
    },
    {
      "constant": false,
      "inputs": [
        {
          "internalType": "address[]",
          "name": "_tokens",
          "type": "address[]"
        }
      ],
      "name": "withdrawFees",
      "outputs": [],
      "payable": false,
      "stateMutability": "nonpayable",
      "type": "function"
    },
    {
      "constant": false,
      "inputs": [
        {
          "internalType": "address[]",
          "name": "_converters",
          "type": "address[]"
        }
      ],
      "name": "withdrawFeesAMM",
      "outputs": [],
      "payable": false,
      "stateMutability": "nonpayable",
      "type": "function"
    },
    {
      "constant": false,
      "inputs": [
        {
          "internalType": "address[]",
          "name": "_tokens",
          "type": "address[]"
        },
        {
          "internalType": "uint32",
          "name": "_maxCheckpoints",
          "type": "uint32"
        },
        {
          "internalType": "address",
          "name": "_receiver",
          "type": "address"
        }
      ],
      "name": "withdrawRbtcTokens",
      "outputs": [],
      "payable": false,
      "stateMutability": "nonpayable",
      "type": "function"
    },
    {
      "constant": false,
      "inputs": [
        {
          "internalType": "address[]",
          "name": "_tokens",
          "type": "address[]"
        },
        {
          "internalType": "uint256[]",
          "name": "_fromCheckpoints",
          "type": "uint256[]"
        },
        {
          "internalType": "uint32",
          "name": "_maxCheckpoints",
          "type": "uint32"
        },
        {
          "internalType": "address",
          "name": "_receiver",
          "type": "address"
        }
      ],
      "name": "withdrawRbtcTokensStartingFromCheckpoint",
      "outputs": [],
      "payable": false,
      "stateMutability": "nonpayable",
      "type": "function"
    },
    {
      "constant": false,
      "inputs": [
        {
          "internalType": "address[]",
          "name": "_tokens",
          "type": "address[]"
        },
        {
          "internalType": "uint256[]",
          "name": "_fromCheckpoints",
          "type": "uint256[]"
        },
        {
          "internalType": "uint32",
          "name": "_maxCheckpoints",
          "type": "uint32"
        },
        {
          "internalType": "address",
          "name": "_receiver",
          "type": "address"
        }
      ],
      "name": "withdrawStartingFromCheckpoints",
      "outputs": [],
      "payable": false,
      "stateMutability": "nonpayable",
      "type": "function"
    },
    {
      "constant": false,
      "inputs": [
        {
          "internalType": "address",
          "name": "receiver",
          "type": "address"
        },
        {
          "internalType": "uint256",
          "name": "wrbtcAmount",
          "type": "uint256"
        }
      ],
      "name": "withdrawWRBTC",
      "outputs": [],
      "payable": false,
      "stateMutability": "nonpayable",
      "type": "function"
    }
  ],
  "numDeployments": 11,
  "bytecode": "0x6080604052600160085560006200001e6001600160e01b036200006e16565b600080546001600160a01b0319166001600160a01b0383169081178255604051929350917f8be0079c531659141344cd1fd0a4f28419497f9722a3daafe3b4186f6b6457e0908290a35062000072565b3390565b61591780620000826000396000f3fe6080604052600436106101d85760003560e01c80638ce7442611610102578063abe979e111610095578063d93b69ab11610064578063d93b69ab14610558578063f2962cda14610578578063f2fde38b14610598578063f3bdba8f146105b8576101d8565b8063abe979e1146104d6578063adcf21a7146104f6578063c304044714610518578063c3f0eaee14610538576101d8565b8063a4955f2a116100d1578063a4955f2a14610461578063a697b8c714610481578063a965b3a9146104a1578063aa5036e9146104c1576101d8565b80638ce74426146103e85780638da5cb5b146103fd5780638f32d59b146104125780638fe8565c14610434576101d8565b80637061acf31161017a5780637d0ce2b2116101495780637d0ce2b214610359578063881559f51461037b578063890193501461039b5780638b6fdcba146103bb576101d8565b80637061acf3146102d957806373b0e831146102f95780637913b451146103195780637c8678ec14610339576101d8565b80633d67df6f116101b65780633d67df6f146102475780634cf088d9146102675780635c4d9b121461028957806370530017146102a9576101d8565b80631345946c146101da578063200202081461021257806322a6fd951461023f575b005b3480156101e657600080fd5b506101fa6101f5366004614165565b6105d8565b60405161020993929190615415565b60405180910390f35b34801561021e57600080fd5b5061023261022d3660046140ef565b6105fa565b6040516102099190615407565b6101d8610615565b34801561025357600080fd5b5061023261026236600461412b565b6106a3565b34801561027357600080fd5b5061027c6106be565b60405161020991906151d8565b34801561029557600080fd5b506101d86102a436600461421b565b6106cd565b3480156102b557600080fd5b506102c96102c436600461421b565b610830565b6040516102099493929190615468565b3480156102e557600080fd5b506101d86102f43660046140ef565b61087c565b34801561030557600080fd5b506101d861031436600461430a565b61091b565b34801561032557600080fd5b5061023261033436600461412b565b610bf1565b34801561034557600080fd5b506101d86103543660046143ff565b610c0e565b34801561036557600080fd5b5061036e610e74565b60405161020991906150ca565b34801561038757600080fd5b506101d861039636600461430a565b610e8c565b3480156103a757600080fd5b506101d86103b63660046143a2565b611225565b3480156103c757600080fd5b506103db6103d63660046140ef565b611484565b60405161020991906154b4565b3480156103f457600080fd5b5061027c61149f565b34801561040957600080fd5b5061036e6114ae565b34801561041e57600080fd5b506104276114bd565b60405161020991906151ca565b34801561044057600080fd5b5061045461044f3660046141c6565b6114e1565b60405161020991906151b9565b34801561046d57600080fd5b506101d861047c3660046140ef565b6115f8565b34801561048d57600080fd5b506101d861049c3660046142c8565b611667565b3480156104ad57600080fd5b506101d86104bc36600461424b565b6118b5565b3480156104cd57600080fd5b506101d86118e7565b3480156104e257600080fd5b506101d86104f1366004614298565b611a9c565b34801561050257600080fd5b5061050b611cf9565b60405161020991906151a8565b34801561052457600080fd5b506102326105333660046140ef565b611d0a565b34801561054457600080fd5b506102326105533660046141c6565b611e6c565b34801561056457600080fd5b50610427610573366004614452565b611e86565b34801561058457600080fd5b506102326105933660046140ef565b611e9b565b3480156105a457600080fd5b506101d86105b33660046140ef565b611ead565b3480156105c457600080fd5b506102326105d33660046140ef565b611edd565b60008060006105e987878787611eef565b9250925092505b9450945094915050565b6001600160a01b031660009081526004602052604090205490565b346001600160601b0381166106455760405162461bcd60e51b815260040161063c906152d7565b60405180910390fd5b610663604051610654906150b4565b6040519081900390208261217c565b60405160009033907f1b89874203ff7f0bba87c969ada3f32fda22ed38a6706d35199d21280c7811b1906106989085906154a6565b60405180910390a350565b6000806106b384846000806122c0565b509150505b92915050565b6002546001600160a01b031681565b6106d56114bd565b6106f15760405162461bcd60e51b815260040161063c90615307565b6001546040805163afe8400960e01b815290516000926001600160a01b03169163afe84009916004808301926020929190829003018186803b15801561073657600080fd5b505afa15801561074a573d6000803e3d6000fd5b505050506040513d601f19601f8201168201806040525061076e9190810190614470565b90506000816001600160a01b03166370a08231306040518263ffffffff1660e01b815260040161079e91906150d8565b60206040518083038186803b1580156107b657600080fd5b505afa1580156107ca573d6000803e3d6000fd5b505050506040513d601f19601f820116820180604052506107ee919081019061448e565b9050808311156108105760405162461bcd60e51b815260040161063c906152b7565b61082a6001600160a01b038316858563ffffffff61261816565b50505050565b600360209081526000928352604080842090915290825290205463ffffffff808216916401000000008104909116906001600160601b03600160401b8204811691600160a01b90041684565b6108846114bd565b6108a05760405162461bcd60e51b815260040161063c90615307565b6108a981612671565b6108c55760405162461bcd60e51b815260040161063c90615337565b6108d660098263ffffffff6126aa16565b50336001600160a01b03167fe7902ff5b883e069d72db554511b4f7122428c996decf30682b312a66879668a8260405161091091906150ca565b60405180910390a250565b60016008541461093d5760405162461bcd60e51b815260040161063c90615377565b600260085560408051602080860282810182019093528582526109ae9287918791829185019084908082843760009201919091525050604080516020808c0282810182019093528b82529093508b92508a91829185019084908082843760009201919091525033925061270a915050565b6109ea868680806020026020016040519081016040528093929190818152602001838360200280828437600092019190915250612b1292505050565b6001600160a01b0381166109fb5750335b6000805b86811015610b135763ffffffff8416610a1757610b13565b6000868683818110610a2557fe5b9050602002013590506000898984818110610a3c57fe5b9050602002016020610a5191908101906140ef565b3360009081526005602090815260408083206001600160a01b0385168452909152812054919250818411610a855781610a87565b835b9050600080610a9885878c8c612c50565b9092509050610aad888363ffffffff612cd216565b97506000610ad26001610ac6848763ffffffff612cfe16565b9063ffffffff612cd216565b9050610afe818c63ffffffff16036040518060600160405280603c815260200161561f603c9139612d40565b9a5050600190960195506109ff945050505050565b508015610be3576000826001600160a01b031682604051610b33906150bf565b60006040518083038185875af1925050503d8060008114610b70576040519150601f19603f3d011682016040523d82523d6000602084013e610b75565b606091505b5050905080610b965760405162461bcd60e51b815260040161063c90615267565b826001600160a01b0316336001600160a01b03167fba7771603337d6821ea291d76396cf6aa3ea405141b033d8415280139c980c1d84604051610bd99190615407565b60405180910390a3505b505060016008555050505050565b600560209081526000928352604080842090915290825290205481565b6001546040805163afe8400960e01b815290516000926001600160a01b03169163afe84009916004808301926020929190829003018186803b158015610c5357600080fd5b505afa158015610c67573d6000803e3d6000fd5b505050506040513d601f19601f82011682018060405250610c8b9190810190614470565b9050610c9682612d70565b6000805b8351811015610e50576000848281518110610cb157fe5b60200260200101516001600160a01b031663164e68de306040518263ffffffff1660e01b8152600401610ce491906150d8565b602060405180830381600087803b158015610cfe57600080fd5b505af1158015610d12573d6000803e3d6000fd5b505050506040513d601f19601f82011682018060405250610d36919081019061448e565b90508015610e4757604051632e1a7d4d60e01b81526001600160a01b03851690632e1a7d4d90610d6a908490600401615407565b600060405180830381600087803b158015610d8457600080fd5b505af1158015610d98573d6000803e3d6000fd5b505050506000610dc0826040518060800160405280604881526020016156ee60489139612dc7565b9050610de584826040518060800160405280604e81526020016156a0604e9139612dee565b9350858381518110610df357fe5b60200260200101516001600160a01b0316336001600160a01b03167fd915b7f9d8d5ce11af1f5961b830d7d7c01a750927706eb0bcbf80a8827d76cc84604051610e3d9190615407565b60405180910390a3505b50600101610c9a565b506001600160601b03811615610e6f57610e6f604051610654906150b4565b505050565b604051610e80906150b4565b60405190819003902081565b600160085414610eae5760405162461bcd60e51b815260040161063c90615377565b60026008556040805160208086028281018201909352858252610f1f9287918791829185019084908082843760009201919091525050604080516020808c0282810182019093528b82529093508b92508a91829185019084908082843760009201919091525033925061270a915050565b6001600160a01b038116610f305750335b6001546040805163afe8400960e01b815290516000926001600160a01b03169163afe84009916004808301926020929190829003018186803b158015610f7557600080fd5b505afa158015610f89573d6000803e3d6000fd5b505050506040513d601f19601f82011682018060405250610fad9190810190614470565b90506000610fba82612e2a565b90506000805b888110156111455763ffffffff8616610fd857611145565b6000888883818110610fe657fe5b90506020020135905060008b8b84818110610ffd57fe5b905060200201602061101291908101906140ef565b3360009081526005602090815260408083206001600160a01b03851684529091528120549192509081908181861161104a578161104c565b855b9050896001600160a01b0316856001600160a01b0316148061107f5750886001600160a01b0316856001600160a01b0316145b806110b15750604051611091906150b4565b604051809103902060001c6001600160a01b0316856001600160a01b0316145b156110dd576110c285878e8e612c50565b945092506110d6888463ffffffff612cd216565b97506110ed565b6110e985878e8e612ed7565b9450505b60006111046001610ac6878563ffffffff612cfe16565b9050611130818e63ffffffff16036040518060600160405280603c815260200161561f603c9139612d40565b9c505060019096019550610fc0945050505050565b508015611215576000846001600160a01b031682604051611165906150bf565b60006040518083038185875af1925050503d80600081146111a2576040519150601f19603f3d011682016040523d82523d6000602084013e6111a7565b606091505b50509050806111c85760405162461bcd60e51b815260040161063c90615267565b846001600160a01b0316336001600160a01b03167fba7771603337d6821ea291d76396cf6aa3ea405141b033d8415280139c980c1d8460405161120b9190615407565b60405180910390a3505b5050600160085550505050505050565b6001600854146112475760405162461bcd60e51b815260040161063c90615377565b6002600855604080516020808602828101820190935285825261128592879187918291850190849080828437600092019190915250612b1292505050565b6001600160a01b0381166112965750335b6000805b848110156113a85763ffffffff84166112b2576113a8565b60008686838181106112c057fe5b90506020020160206112d591908101906140ef565b3360009081526005602090815260408083206001600160a01b0385168452909152812054919250806113278a8a8781811061130c57fe5b905060200201602061132191908101906140ef565b89612f5a565b909250905061133c868363ffffffff612cd216565b95506000611350828563ffffffff612cfe16565b9050831561136b5761136981600163ffffffff612cd216565b505b611395818a63ffffffff16036040518060600160405280603c815260200161561f603c9139612d40565b9850506001909401935061129a92505050565b508015611478576000826001600160a01b0316826040516113c8906150bf565b60006040518083038185875af1925050503d8060008114611405576040519150601f19603f3d011682016040523d82523d6000602084013e61140a565b606091505b505090508061142b5760405162461bcd60e51b815260040161063c90615267565b826001600160a01b0316336001600160a01b03167fba7771603337d6821ea291d76396cf6aa3ea405141b033d8415280139c980c1d8460405161146e9190615407565b60405180910390a3505b50506001600855505050565b6007602052600090815260409020546001600160601b031681565b6001546001600160a01b031681565b6000546001600160a01b031690565b600080546001600160a01b03166114d2613142565b6001600160a01b031614905090565b606060008263ffffffff16116115095760405162461bcd60e51b815260040161063c906153e7565b6001600160a01b038416600090815260046020526040812054908161152f576000611534565b600182035b90508481101561154657506115f09050565b60006115718563ffffffff166115658885612cfe90919063ffffffff16565b9063ffffffff61314616565b6001019050806040519080825280602002602001820160405280156115a0578160200160208202803883390190505b50935060005b84518110156115eb5760006115c78a8a8963ffffffff1685028b018a6122c0565b509050808683815181106115d757fe5b6020908102919091010152506001016115a6565b505050505b949350505050565b6116006114bd565b61161c5760405162461bcd60e51b815260040161063c90615307565b61162d60098263ffffffff61318816565b50336001600160a01b03167f7b8bddb144d9ebd8a4fa3f47acac7c75b34ade822d5e528a442825fa9100ffdb8260405161091091906150ca565b60005b818110156116bf5761169b83838381811061168157fe5b905060200201602061169691908101906140ef565b612671565b6116b75760405162461bcd60e51b815260040161063c906153c7565b60010161166a565b50600154604051630f7e7aab60e41b81526000916001600160a01b03169063f7e7aab0906116f590869086903090600401615187565b602060405180830381600087803b15801561170f57600080fd5b505af1158015611723573d6000803e3d6000fd5b505050506040513d601f19601f82011682018060405250611747919081019061448e565b90506000600160009054906101000a90046001600160a01b03166001600160a01b031663afe840096040518163ffffffff1660e01b815260040160206040518083038186803b15801561179957600080fd5b505afa1580156117ad573d6000803e3d6000fd5b505050506040513d601f19601f820116820180604052506117d19190810190614470565b9050811561186e57604051632e1a7d4d60e01b81526001600160a01b03821690632e1a7d4d90611805908590600401615407565b600060405180830381600087803b15801561181f57600080fd5b505af1158015611833573d6000803e3d6000fd5b50505050600061185b8360405180608001604052806045815260200161565b60459139612dc7565b905061186c604051610654906150b4565b505b336001600160a01b03167fea588ee3c471f3c47a77b5d118007e77b1d74e5b310a8805df274aa067d2e8a6836040516118a79190615407565b60405180910390a250505050565b6001600854146118d75760405162461bcd60e51b815260040161063c90615377565b6002600855611478838383613293565b63aa5036e960e01b6000819052600b6020527fa02e544f58192f4f5f2c12a2ad94a37e02b3cc3232372e81b417611b94ccf0e85460ff161561193b5760405162461bcd60e51b815260040161063c90615297565b6119436114bd565b61195f5760405162461bcd60e51b815260040161063c90615307565b670c320cbdb1f8e260690387108582e4ba67e98069015437959820bab0d48073db107fa69e33f05180a4c2ce9c2e7cb481645c2d73efc78fc7d48b64958315949279ba181c2114abbd60006119b26114ae565b6001600160a01b0316866040516119c8906150bf565b60006040518083038185875af1925050503d8060008114611a05576040519150601f19603f3d011682016040523d82523d6000602084013e611a0a565b606091505b5050905080611a2b5760405162461bcd60e51b815260040161063c90615367565b611a4d611a366114ae565b6001600160a01b038516908763ffffffff61261816565b611a6f611a586114ae565b6001600160a01b038416908663ffffffff61261816565b5050506001600160e01b03199093166000908152600b60205260409020805460ff19166001179055505050565b6001600160a01b038216611ac25760405162461bcd60e51b815260040161063c90615207565b6000816001600160601b031611611aeb5760405162461bcd60e51b815260040161063c906151f7565b6040516323b872dd60e01b81526000906001600160a01b038416906323b872dd90611b1e903390309087906004016150e6565b602060405180830381600087803b158015611b3857600080fd5b505af1158015611b4c573d6000803e3d6000fd5b505050506040513d601f19601f82011682018060405250611b709190810190614434565b905080611b8f5760405162461bcd60e51b815260040161063c90615347565b6001546040805163afe8400960e01b815290516000926001600160a01b03169163afe84009916004808301926020929190829003018186803b158015611bd457600080fd5b505afa158015611be8573d6000803e3d6000fd5b505050506040513d601f19601f82011682018060405250611c0c9190810190614470565b9050806001600160a01b0316846001600160a01b03161415611c9e57604051632e1a7d4d60e01b81526001600160a01b03821690632e1a7d4d90611c549086906004016154a6565b600060405180830381600087803b158015611c6e57600080fd5b505af1158015611c82573d6000803e3d6000fd5b50505050604051611c92906150b4565b60405190819003902093505b611ca8848461217c565b836001600160a01b0316336001600160a01b03167f1b89874203ff7f0bba87c969ada3f32fda22ed38a6706d35199d21280c7811b185604051611ceb91906154a6565b60405180910390a350505050565b6060611d056009613604565b905090565b600080600080611d1b8560006136aa565b5050509250925092506000600160009054906101000a90046001600160a01b03166001600160a01b031663afe840096040518163ffffffff1660e01b815260040160206040518083038186803b158015611d7457600080fd5b505afa158015611d88573d6000803e3d6000fd5b505050506040513d601f19601f82011682018060405250611dac9190810190614470565b90506000611db982612e2a565b90506000611e4a670de0b6b3a7640000611565846001600160a01b0316637ff9b5966040518163ffffffff1660e01b815260040160206040518083038186803b158015611e0557600080fd5b505afa158015611e19573d6000803e3d6000fd5b505050506040513d601f19601f82011682018060405250611e3d919081019061448e565b879063ffffffff6137a316565b9050611e6081610ac6888863ffffffff612cd216565b98975050505050505050565b600080611e7b868686866122c0565b509695505050505050565b600b6020526000908152604090205460ff1681565b60046020526000908152604090205481565b611eb56114bd565b611ed15760405162461bcd60e51b815260040161063c90615307565b611eda816137dd565b50565b60066020526000908152604090205481565b60025460405163ca6860df60e01b8152600091829182916001600160a01b03169063ca6860df90611f24908a906004016150ca565b60206040518083038186803b158015611f3c57600080fd5b505afa158015611f50573d6000803e3d6000fd5b505050506040513d601f19601f82011682018060405250611f749190810190614434565b15611f87575060009150819050806105f0565b60008411611fa75760405162461bcd60e51b815260040161063c906153e7565b6001600160a01b03808716600081815260046020908152604080832054948c1683526005825280832093835292905220548181101580611fe5575081155b15611ff957509250600091508190506105f0565b6000818811612008578161200a565b875b9050600061201e828963ffffffff612cd216565b905083811061202a5750825b815b81811015612166576000600360008d6001600160a01b03166001600160a01b03168152602001908152602001600020600083815260200190815260200160002090506000600260009054906101000a90046001600160a01b03166001600160a01b03166337e6b1c18f60018560000160009054906101000a900463ffffffff16038560000160049054906101000a900463ffffffff166040518463ffffffff1660e01b81526004016120e09392919061515f565b60206040518083038186803b1580156120f857600080fd5b505afa15801561210c573d6000803e3d6000fd5b505050506040513d601f19601f8201168201806040525061213091908101906144ac565b90506001600160601b0381161561215c57826001018684116001995099509950505050505050506105f0565b505060010161202c565b509a918b11995060009850909650505050505050565b6001600160a01b0382166000908152600660205260409020546202a300429190910310612235576001600160a01b03821660009081526006602090815260408083204290556007825280832054815160608101909252603b8083526121f8936001600160601b039092169286929091906157b890830139612dee565b6001600160a01b038416600090815260076020526040902080546bffffffffffffffffffffffff19169055905061222f838261385e565b506122bc565b6001600160a01b038216600090815260076020908152604091829020548251608081019093526046808452612280936001600160601b03909216928592919061583990830139612dee565b6001600160a01b038316600090815260076020526040902080546bffffffffffffffffffffffff19166001600160601b03929092169190911790555b5050565b60025460405163ca6860df60e01b815260009182916001600160a01b039091169063ca6860df906122f59089906004016150ca565b60206040518083038186803b15801561230d57600080fd5b505afa158015612321573d6000803e3d6000fd5b505050506040513d601f19601f820116820180604052506123459190810190614434565b156123555750600090508061260f565b6001600160a01b0380871660009081526005602090815260408083209389168352929052908120549081861161238b578161238d565b855b905060008563ffffffff16116123bb576001600160a01b0387166000908152600460205260409020546123c6565b6123c6818887613acf565b6001600160a01b03881660009081526004602052604090205490935081106123f457506000925061260f9050565b600080825b8581101561260957612409613f92565b506001600160a01b03808b16600090815260036020908152604080832085845282528083208151608081018352905463ffffffff80821683526401000000008204169382018490526001600160601b03600160401b8204811683850152600160a01b90910416606082015260025491516372ec979560e01b8152909491909116916372ec97959161249d919060040161543e565b60206040518083038186803b1580156124b557600080fd5b505afa1580156124c9573d6000803e3d6000fd5b505050506040513d601f19601f820116820180604052506124ed919081019061448e565b90506000858214156125005750836125a9565b600260009054906101000a90046001600160a01b03166001600160a01b03166337e6b1c18f600186600001510386602001516040518463ffffffff1660e01b81526004016125509392919061515f565b60206040518083038186803b15801561256857600080fd5b505afa15801561257c573d6000803e3d6000fd5b505050506040513d601f19601f820116820180604052506125a091908101906144ac565b90508094508195505b60006125e584604001516001600160601b0316611565846001600160601b031687606001516001600160601b03166137a390919063ffffffff16565b90506125f78b8263ffffffff612cd216565b9a5050600190930192506123f9915050565b50505050505b94509492505050565b604051610e6f90849063a9059cbb60e01b9061263a9086908690602401615136565b60408051601f198184030181529190526020810180516001600160e01b03166001600160e01b031990931692909217909152613b90565b6000813f7fc5d2460186f7233c927e7db2dcc703c0e500b653ca82273b7bfad8045d85a4708181148015906115f0575050151592915050565b60006126b68383613c75565b6127025750600182810180548083018083556000928352602080842090920180546001600160a01b0319166001600160a01b0387169081179091558352908590526040909120556106b8565b5060006106b8565b825182511461272b5760405162461bcd60e51b815260040161063c90615357565b60005b825181101561082a57600184828151811061274557fe5b60200260200101511161276a5760405162461bcd60e51b815260040161063c90615327565b6000600185838151811061277a57fe5b602002602001015103905060056000846001600160a01b03166001600160a01b0316815260200190815260200160002060008584815181106127b857fe5b60200260200101516001600160a01b03166001600160a01b03168152602001908152602001600020548583815181106127ed57fe5b6020026020010151116128125760405162461bcd60e51b815260040161063c90615397565b6004600085848151811061282257fe5b60200260200101516001600160a01b03166001600160a01b031681526020019081526020016000205485838151811061285757fe5b6020026020010151111561287d5760405162461bcd60e51b815260040161063c90615257565b612885613f92565b6003600086858151811061289557fe5b6020908102919091018101516001600160a01b039081168352828201939093526040918201600090812060001980880183529083528382208451608081018652905463ffffffff80821680845264010000000083049091169583018690526001600160601b03600160401b8304811684890152600160a01b909204909116606083015260025495516337e6b1c160e01b8152919750929594909416936337e6b1c193612947938b93019160040161515f565b60206040518083038186803b15801561295f57600080fd5b505afa158015612973573d6000803e3d6000fd5b505050506040513d601f19601f8201168201806040525061299791908101906144ac565b90506001600160601b038116156129c05760405162461bcd60e51b815260040161063c906152e7565b6129c8613f92565b600360008887815181106129d857fe5b6020908102919091018101516001600160a01b039081168352828201939093526040918201600090812088825282528290208251608081018452905463ffffffff80821680845264010000000083049091169383018490526001600160601b03600160401b8304811684870152600160a01b909204909116606083015260025493516337e6b1c160e01b815291955092909316926337e6b1c192612a87928b926000199092019160040161515f565b60206040518083038186803b158015612a9f57600080fd5b505afa158015612ab3573d6000803e3d6000fd5b505050506040513d601f19601f82011682018060405250612ad791908101906144ac565b91506000826001600160601b031611612b025760405162461bcd60e51b815260040161063c906152a7565b50506001909201915061272e9050565b6001546040805163afe8400960e01b815290516000926001600160a01b03169163afe84009916004808301926020929190829003018186803b158015612b5757600080fd5b505afa158015612b6b573d6000803e3d6000fd5b505050506040513d601f19601f82011682018060405250612b8f9190810190614470565b90506000612b9c82612e2a565b905060005b835181101561082a576000848281518110612bb857fe5b60200260200101519050604051612bce906150b4565b604051809103902060001c6001600160a01b0316816001600160a01b031614158015612c0c5750836001600160a01b0316816001600160a01b031614155b8015612c2a5750826001600160a01b0316816001600160a01b031614155b15612c475760405162461bcd60e51b815260040161063c90615237565b50600101612ba1565b60008080612c6586600163ffffffff612cfe16565b3360009081526005602090815260408083206001600160a01b038c168452909152902054909150811115612cba573360009081526005602090815260408083206001600160a01b038b16845290915290208190555b612cc48786612f5a565b925092505094509492505050565b600082820183811015612cf75760405162461bcd60e51b815260040161063c90615277565b9392505050565b6000612cf783836040518060400160405280601e81526020017f536166654d6174683a207375627472616374696f6e206f766572666c6f770000815250613c93565b6000816401000000008410612d685760405162461bcd60e51b815260040161063c91906151e6565b509192915050565b60005b81518110156122bc57612da3828281518110612d8b57fe5b60200260200101516009613c7590919063ffffffff16565b612dbf5760405162461bcd60e51b815260040161063c90615287565b600101612d73565b600081600160601b8410612d685760405162461bcd60e51b815260040161063c91906151e6565b6000838301826001600160601b038087169083161015612e215760405162461bcd60e51b815260040161063c91906151e6565b50949350505050565b6001546040516310c59ce360e11b815260009182916001600160a01b039091169063218b39c690612e5f9086906004016150ca565b60206040518083038186803b158015612e7757600080fd5b505afa158015612e8b573d6000803e3d6000fd5b505050506040513d601f19601f82011682018060405250612eaf919081019061410d565b90506001600160a01b0381166106b85760405162461bcd60e51b815260040161063c90615387565b60008080612eec86600163ffffffff612cfe16565b3360009081526005602090815260408083206001600160a01b038c168452909152902054909150811115612f41573360009081526005602090815260408083206001600160a01b038b16845290915290208190555b612f4c878686613293565b909890975095505050505050565b6001546040805163afe8400960e01b815290516000928392339284926001600160a01b03169163afe84009916004808301926020929190829003018186803b158015612fa557600080fd5b505afa158015612fb9573d6000803e3d6000fd5b505050506040513d601f19601f82011682018060405250612fdd9190810190614470565b90506000612fea82612e2a565b9050612ff7878488613cbf565b90955093508415613138576001600160a01b0380841660009081526005602090815260408083208b85168085529252909120869055908316141561309857604051632e1a7d4d60e01b81526001600160a01b03831690632e1a7d4d90613061908890600401615407565b600060405180830381600087803b15801561307b57600080fd5b505af115801561308f573d6000803e3d6000fd5b50505050613138565b806001600160a01b0316876001600160a01b0316141561313857604051630141abc160e21b81526001600160a01b03821690630506af04906130e3903090899060009060040161510e565b602060405180830381600087803b1580156130fd57600080fd5b505af1158015613111573d6000803e3d6000fd5b505050506040513d601f19601f82011682018060405250613135919081019061448e565b94505b5050509250929050565b3390565b6000612cf783836040518060400160405280601a81526020017f536166654d6174683a206469766973696f6e206279207a65726f000000000000815250613dfa565b60006131948383613c75565b15612702576001600160a01b0382166000908152602084905260409020546001840154600019918201910180821461323f5760008560010182815481106131d757fe5b6000918252602090912001546001870180546001600160a01b03909216925082918590811061320257fe5b600091825260208083209190910180546001600160a01b0319166001600160a01b0394851617905592909116815290869052604090206001830190555b6001600160a01b0384166000908152602086905260408120556001850180548061326557fe5b600082815260209020810160001990810180546001600160a01b031916905501905550600191506106b89050565b60008060008463ffffffff16116132bc5760405162461bcd60e51b815260040161063c90615317565b6001546040805163afe8400960e01b815290516000926001600160a01b03169163afe84009916004808301926020929190829003018186803b15801561330157600080fd5b505afa158015613315573d6000803e3d6000fd5b505050506040513d601f19601f820116820180604052506133399190810190614470565b9050600061334682612e2a565b9050336001600160a01b03861661335b573395505b6001600160a01b038082166000908152600560209081526040808320938c168352929052908120549080613391848c858d6122c0565b915091508160001415613445578281111561342d578a6001600160a01b0316336001600160a01b03167fd3d8b561a0f93295b4ea7e2b930d36bd7f1a38774547bf98fb66540f588217b285846040516133eb929190615430565b60405180910390a36001600160a01b039384166000908152600560209081526040808320968e1683529590529384208190559296509194506135fc9350505050565b60405162461bcd60e51b815260040161063c90615227565b6001600160a01b0380851660009081526005602090815260408083208f85168085529252909120839055908616141561350157604051630141abc160e21b81526001600160a01b038c1690630506af04906134a9908c908690600090600401615151565b602060405180830381600087803b1580156134c357600080fd5b505af11580156134d7573d6000803e3d6000fd5b505050506040513d601f19601f820116820180604052506134fb919081019061448e565b5061359d565b60405163a9059cbb60e01b81526001600160a01b038c169063a9059cbb9061352f908c908690600401615136565b602060405180830381600087803b15801561354957600080fd5b505af115801561355d573d6000803e3d6000fd5b505050506040513d601f19601f820116820180604052506135819190810190614434565b61359d5760405162461bcd60e51b815260040161063c906153a7565b8a6001600160a01b0316896001600160a01b0316336001600160a01b03167fe635adc5d0c2d7b47215ce5ed57a79c3db183a1ef414ccfc43f24f19178a630f856040516135ea9190615407565b60405180910390a49096509450505050505b935093915050565b6060808260010180549050604051908082528060200260200182016040528015613638578160200160208202803883390190505b50905060005b60018401548110156136a35783600101818154811061365957fe5b9060005260206000200160009054906101000a90046001600160a01b031682828151811061368357fe5b6001600160a01b039092166020928302919091019091015260010161363e565b5092915050565b6000806000806000806000600160009054906101000a90046001600160a01b03166001600160a01b031663afe840096040518163ffffffff1660e01b815260040160206040518083038186803b15801561370357600080fd5b505afa158015613717573d6000803e3d6000fd5b505050506040513d601f19601f8201168201806040525061373b9190810190614470565b9050600061374882612e2a565b905061376b8a60405161375a906150b4565b60405190819003902060008c6122c0565b909850945061377d8a8360008c6122c0565b909750935061378f8a8260008c6122c0565b809450819750505050509295509295509295565b6000826137b2575060006106b8565b828202828482816137bf57fe5b0414612cf75760405162461bcd60e51b815260040161063c906152f7565b6001600160a01b0381166138035760405162461bcd60e51b815260040161063c90615247565b600080546040516001600160a01b03808516939216917f8be0079c531659141344cd1fd0a4f28419497f9722a3daafe3b4186f6b6457e091a3600080546001600160a01b0319166001600160a01b0392909216919091179055565b60006138824360405180608001604052806043815260200161573660439139612d40565b905060006138a8426040518060800160405280604681526020016157f360469139612d40565b6001600160a01b0385166000908152600460205260408120549192506138d2600019850142613e31565b90506000816001600160601b0316116138fd5760405162461bcd60e51b815260040161063c906153d7565b60008211801561393c57506001600160a01b03861660009081526003602090815260408083206000198601845290915290205463ffffffff8581169116145b156139ab576001600160a01b03868116600090815260036020908152604080832060001987018452909152902080546001600160601b03888116600160a01b02908516600160401b026bffffffffffffffffffffffff60401b1990921691909117909216919091179055613a7c565b6040805160808101825263ffffffff868116825285811660208084019182526001600160601b038681168587019081528b8216606087019081526001600160a01b038e81166000818152600387528a81208d825287528a812099518a5498519551945163ffffffff19909916908a161767ffffffff0000000019166401000000009590991694909402979097176bffffffffffffffffffffffff60401b1916600160401b928516929092029190911716600160a01b9490921693909302179093559081526004909152206001830190555b856001600160a01b0316336001600160a01b03167ff61a5f2f4d0b2d871d5bf18717d08a6b0f543afa7e08dad5df1fea150f72963287604051613abf91906154a6565b60405180910390a3505050505050565b6001600160a01b03821660009081526004602052604081205480613af7576000915050612cf7565b600063ffffffff8416613b0b575080613b48565b613b358463ffffffff1687016040518060600160405280603f8152602001615779603f9139612d40565b63ffffffff16905081811115613b485750805b6001600160a01b03851660009081526003602090815260408083206000198501845290915290205463ffffffff1643811415613b8657600019909101905b5095945050505050565b613ba2826001600160a01b0316612671565b613bbe5760405162461bcd60e51b815260040161063c906153f7565b60006060836001600160a01b031683604051613bda91906150a8565b6000604051808303816000865af19150503d8060008114613c17576040519150601f19603f3d011682016040523d82523d6000602084013e613c1c565b606091505b509150915081613c3e5760405162461bcd60e51b815260040161063c906152c7565b80511561082a5780806020019051613c599190810190614434565b61082a5760405162461bcd60e51b815260040161063c906153b7565b6001600160a01b031660009081526020919091526040902054151590565b60008184841115613cb75760405162461bcd60e51b815260040161063c91906151e6565b505050900390565b6000806000600160009054906101000a90046001600160a01b03166001600160a01b031663afe840096040518163ffffffff1660e01b815260040160206040518083038186803b158015613d1257600080fd5b505afa158015613d26573d6000803e3d6000fd5b505050506040513d601f19601f82011682018060405250613d4a9190810190614470565b90506000613d5782612e2a565b9050604051613d65906150b4565b604051809103902060001c6001600160a01b0316876001600160a01b03161480613da05750816001600160a01b0316876001600160a01b0316145b80613dbc5750806001600160a01b0316876001600160a01b0316145b15613dd857613dce86886000886122c0565b9094509250613df0565b60405162461bcd60e51b815260040161063c90615217565b5050935093915050565b60008183613e1b5760405162461bcd60e51b815260040161063c91906151e6565b506000838581613e2757fe5b0495945050505050565b60025460405163cdbe715560e01b815260009182916001600160a01b039091169063cdbe715590613e68908790879060040161544c565b60206040518083038186803b158015613e8057600080fd5b505afa158015613e94573d6000803e3d6000fd5b505050506040513d601f19601f82011682018060405250613eb891908101906144ac565b6002546040516312916bdd60e11b81529192506001600160a01b031690632522d7ba90613eeb908790879060040161545a565b60206040518083038186803b158015613f0357600080fd5b505afa158015613f17573d6000803e3d6000fd5b505050506040513d601f19601f82011682018060405250613f3b91908101906144ac565b91506115f0828260405180608001604052806056815260200161587f605691396000836001600160601b0316836001600160601b031611158290613cb75760405162461bcd60e51b815260040161063c91906151e6565b60408051608081018252600080825260208201819052918101829052606081019190915290565b80356106b8816155d4565b80516106b8816155d4565b60008083601f840112613fe157600080fd5b50813567ffffffffffffffff811115613ff957600080fd5b60208301915083602082028301111561401157600080fd5b9250929050565b600082601f83011261402957600080fd5b813561403c614037826154e9565b6154c2565b9150818183526020840193506020810190508385602084028201111561406157600080fd5b60005b8381101561408d57816140778882613fb9565b8452506020928301929190910190600101614064565b5050505092915050565b80516106b8816155e8565b80356106b8816155f1565b80516106b8816155fa565b80356106b881615603565b80516106b881615603565b80356106b88161560c565b80356106b881615615565b80516106b881615615565b60006020828403121561410157600080fd5b60006115f08484613fb9565b60006020828403121561411f57600080fd5b60006115f08484613fc4565b6000806040838503121561413e57600080fd5b600061414a8585613fb9565b925050602061415b85828601613fb9565b9150509250929050565b6000806000806080858703121561417b57600080fd5b60006141878787613fb9565b945050602061419887828801613fb9565b93505060406141a9878288016140b8565b92505060606141ba878288016140b8565b91505092959194509250565b600080600080608085870312156141dc57600080fd5b60006141e88787613fb9565b94505060206141f987828801613fb9565b935050604061420a878288016140b8565b92505060606141ba878288016140ce565b6000806040838503121561422e57600080fd5b600061423a8585613fb9565b925050602061415b858286016140b8565b60008060006060848603121561426057600080fd5b600061426c8686613fb9565b935050602061427d868287016140ce565b925050604061428e86828701613fb9565b9150509250925092565b600080604083850312156142ab57600080fd5b60006142b78585613fb9565b925050602061415b858286016140d9565b600080602083850312156142db57600080fd5b823567ffffffffffffffff8111156142f257600080fd5b6142fe85828601613fcf565b92509250509250929050565b6000806000806000806080878903121561432357600080fd5b863567ffffffffffffffff81111561433a57600080fd5b61434689828a01613fcf565b9650965050602087013567ffffffffffffffff81111561436557600080fd5b61437189828a01613fcf565b9450945050604061438489828a016140ce565b925050606061439589828a01613fb9565b9150509295509295509295565b600080600080606085870312156143b857600080fd5b843567ffffffffffffffff8111156143cf57600080fd5b6143db87828801613fcf565b945094505060206143ee878288016140ce565b92505060406141ba87828801613fb9565b60006020828403121561441157600080fd5b813567ffffffffffffffff81111561442857600080fd5b6115f084828501614018565b60006020828403121561444657600080fd5b60006115f08484614097565b60006020828403121561446457600080fd5b60006115f084846140a2565b60006020828403121561448257600080fd5b60006115f084846140ad565b6000602082840312156144a057600080fd5b60006115f084846140c3565b6000602082840312156144be57600080fd5b60006115f084846140e4565b60006144d683836144f9565b505060200190565b60006144d6838361507b565b6144f38161557d565b82525050565b6144f381615534565b600061450e8385615517565b93506145198261550a565b8060005b8581101561454f5761452f8284615525565b61453988826144ca565b97506145448361550d565b92505060010161451d565b509495945050505050565b600061456582615513565b61456f8185615517565b935061457a8361550d565b8060005b8381101561454f57815161459288826144ca565b975061459d8361550d565b92505060010161457e565b60006145b382615513565b6145bd8185615517565b93506145c88361550d565b8060005b8381101561454f5781516145e088826144de565b97506145eb8361550d565b9250506001016145cc565b6144f38161553f565b600061460a82615513565b6146148185615520565b935061462481856020860161559e565b9290920192915050565b6144f381615551565b600061464282615513565b61464c8185615517565b935061465c81856020860161559e565b614665816155ca565b9093019392505050565b600061467c603383615517565b7f46656553686172696e67436f6c6c6563746f723a3a7472616e73666572546f6b815272195b9cce881a5b9d985b1a5908185b5bdd5b9d606a1b602082015260400192915050565b60006146d1603483615517565b7f46656553686172696e67436f6c6c6563746f723a3a7472616e73666572546f6b815273656e733a20696e76616c6964206164647265737360601b602082015260400192915050565b6000614727604883615517565b7f46656553686172696e67436f6c6c6563746f723a3a5f6765745242544342616c81527f616e63653a206f6e6c7920726274632d626173656420746f6b656e732061726560208201526708185b1b1bddd95960c21b604082015260600192915050565b6000614797603b83615517565b7f46656553686172696e67436f6c6c6563746f723a3a776974686472617746656581527f733a206e6f20746f6b656e7320666f72207769746864726177616c0000000000602082015260400192915050565b60006147f6602283615517565b7f6f6e6c7920726274632d626173656420746f6b656e732061726520616c6c6f77815261195960f21b602082015260400192915050565b600061483a602683615517565b7f4f776e61626c653a206e6577206f776e657220697320746865207a65726f206181526564647265737360d01b602082015260400192915050565b6000614882603283615517565b7f5f66726f6d436865636b706f696e742073686f756c64206265203c3d20746f74815271616c546f6b656e436865636b706f696e747360701b602082015260400192915050565b60006148d6603483615517565b7f46656553686172696e67436f6c6c6563746f723a3a776974686472617752425481527310ce8815da5d1a191c985dd85b0819985a5b195960621b602082015260400192915050565b600061492c601b83615517565b7f536166654d6174683a206164646974696f6e206f766572666c6f770000000000815260200192915050565b6000614965601183615517565b7024b73b30b634b21021b7b73b32b93a32b960791b815260200192915050565b6000614992603583615517565b7f46656553686172696e67436f6c6c6563746f723a2066756e6374696f6e2063618152746e206f6e6c792062652063616c6c6564206f6e636560581b602082015260400192915050565b60006149e9603583615517565b7f55736572207765696768746564207374616b652073686f756c64206265203e208152740c08185d080817d99c9bdb50da1958dadc1bda5b9d605a1b602082015260400192915050565b6000614a40601483615517565b73496e73756666696369656e742062616c616e636560601b815260200192915050565b6000614a70602083615517565b7f5361666545524332303a206c6f772d6c6576656c2063616c6c206661696c6564815260200192915050565b6000614aa9603083615517565b7f46656553686172696e67436f6c6c6563746f723a3a7472616e7366657252425481526f433a20696e76616c69642076616c756560801b602082015260400192915050565b6000614afb603983615517565b7f55736572207765696768746564207374616b652073686f756c64206265207a6581527f726f2061742070726576696f757320636865636b706f696e7400000000000000602082015260400192915050565b6000614b5a602183615517565b7f536166654d6174683a206d756c7469706c69636174696f6e206f766572666c6f8152607760f81b602082015260400192915050565b6000614b9d600c83615517565b6b1d5b985d5d1a1bdc9a5e995960a21b815260200192915050565b6000614bc5604183615517565b7f46656553686172696e67436f6c6c6563746f723a3a77697468647261773a205f81527f6d6178436865636b706f696e74732073686f756c6420626520706f73697469766020820152606560f81b604082015260600192915050565b6000614c2e602183615517565b7f5f66726f6d436865636b706f696e7420706172616d206d757374206265203e208152603160f81b602082015260400192915050565b6000614c71601a83615517565b7f4e6f6e20636f6e7472616374206164647265737320676976656e000000000000815260200192915050565b6000614caa602e83615517565b7f5374616b696e673a3a7472616e73666572546f6b656e733a20746f6b656e207481526d1c985b9cd9995c8819985a5b195960921b602082015260400192915050565b6000614cfa602183615520565b7f524254435f44554d4d595f414444524553535f464f525f434845434b504f494e8152601560fa1b602082015260210192915050565b60006106b8600083615520565b6000614d4a602683615517565b7f6d69736d6174636820746f6b656e7320616e6420636865636b706f696e7473208152650d8cadccee8d60d31b602082015260400192915050565b6000614d92604a83615517565b7f46656553686172696e67436f6c6c6563746f723a3a7265636f766572496e636f81527f7272656374416c6c6f6361746564466565733a205769746864726177616c2072602082015269189d18c819985a5b195960b21b604082015260600192915050565b6000614e04600c83615517565b6b1b9bdb9499595b9d1c985b9d60a21b815260200192915050565b6000614e2c603383615517565b7f46656553686172696e67436f6c6c6563746f723a3a77697468647261773a206c8152721bd85b881dd4909510c81b9bdd08199bdd5b99606a1b602082015260400192915050565b6000614e81603883615517565b7f5f66726f6d436865636b706f696e7420706172616d206d757374206265203e2081527f7573657250726f636573736564436865636b706f696e74730000000000000000602082015260400192915050565b6000614ee0603083615517565b7f46656553686172696e67436f6c6c6563746f723a3a77697468647261773a207781526f1a5d1a191c985dd85b0819985a5b195960821b602082015260400192915050565b6000614f32602a83615517565b7f5361666545524332303a204552433230206f7065726174696f6e20646964206e8152691bdd081cdd58d8d9595960b21b602082015260400192915050565b6000614f7e603a83615517565b7f46656553686172696e67436f6c6c6563746f723a3a776974686472617746656581527f733a20746f6b656e206973206e6f74206120636f6e7472616374000000000000602082015260400192915050565b6000614fdd601a83615517565b7f496e76616c696420746f74616c57656967687465645374616b65000000000000815260200192915050565b6000615016601b83615517565b7f5f6d6178436865636b706f696e7473206d757374206265203e20300000000000815260200192915050565b600061504f601f83615517565b7f5361666545524332303a2063616c6c20746f206e6f6e2d636f6e747261637400815260200192915050565b6144f38161550a565b6144f381615588565b6144f381615568565b6144f381615593565b6144f381615571565b6000612cf782846145ff565b60006106b882614ced565b60006106b882614d30565b602081016106b882846144f9565b602081016106b882846144ea565b606081016150f482866144ea565b61510160208301856144ea565b6115f06040830184615096565b6060810161511c82866144ea565b615129602083018561507b565b6115f060408301846145f6565b6040810161514482856144f9565b612cf7602083018461507b565b6060810161511c82866144f9565b6060810161516d82866144f9565b61517a6020830185615084565b6115f06040830184615084565b60408082528101615199818587614502565b90506115f060208301846144ea565b60208082528101612cf7818461455a565b60208082528101612cf781846145a8565b602081016106b882846145f6565b602081016106b8828461462e565b60208082528101612cf78184614637565b602080825281016106b88161466f565b602080825281016106b8816146c4565b602080825281016106b88161471a565b602080825281016106b88161478a565b602080825281016106b8816147e9565b602080825281016106b88161482d565b602080825281016106b881614875565b602080825281016106b8816148c9565b602080825281016106b88161491f565b602080825281016106b881614958565b602080825281016106b881614985565b602080825281016106b8816149dc565b602080825281016106b881614a33565b602080825281016106b881614a63565b602080825281016106b881614a9c565b602080825281016106b881614aee565b602080825281016106b881614b4d565b602080825281016106b881614b90565b602080825281016106b881614bb8565b602080825281016106b881614c21565b602080825281016106b881614c64565b602080825281016106b881614c9d565b602080825281016106b881614d3d565b602080825281016106b881614d85565b602080825281016106b881614df7565b602080825281016106b881614e1f565b602080825281016106b881614e74565b602080825281016106b881614ed3565b602080825281016106b881614f25565b602080825281016106b881614f71565b602080825281016106b881614fd0565b602080825281016106b881615009565b602080825281016106b881615042565b602081016106b8828461507b565b60608101615423828661507b565b61512960208301856145f6565b60408101615144828561507b565b602081016106b88284615084565b604081016151448285615084565b60408101615144828561508d565b60808101615476828761508d565b615483602083018661508d565b615490604083018561509f565b61549d606083018461509f565b95945050505050565b602081016106b88284615096565b602081016106b8828461509f565b60405181810167ffffffffffffffff811182821017156154e157600080fd5b604052919050565b600067ffffffffffffffff82111561550057600080fd5b5060209081020190565b90565b60200190565b5190565b90815260200190565b919050565b6000612cf76020840184613fb9565b60006106b88261555c565b151590565b6001600160e01b03191690565b60006106b882615534565b6001600160a01b031690565b63ffffffff1690565b6001600160601b031690565b60006106b882615551565b60006106b882615568565b60006106b882615571565b60005b838110156155b95781810151838201526020016155a1565b8381111561082a5750506000910152565b601f01601f191690565b6155dd81615534565b8114611eda57600080fd5b6155dd8161553f565b6155dd81615544565b6155dd81615551565b6155dd8161550a565b6155dd81615568565b6155dd8161557156fe46656553686172696e67436f6c6c6563746f723a206d6178436865636b706f696e7420697465726174696f6e2065786365656473203332206269747346656553686172696e67436f6c6c6563746f723a3a7769746864726177466565733a20777262746320746f6b656e20616d6f756e742065786365656473203936206269747346656553686172696e67436f6c6c6563746f723a3a776974686472617746656573414d4d3a20746f74616c20777262746320746f6b656e20616d6f756e742065786365656473203936206269747346656553686172696e67436f6c6c6563746f723a3a776974686472617746656573414d4d3a20777262746320746f6b656e20616d6f756e742065786365656473203936206269747346656553686172696e67436f6c6c6563746f723a3a5f7772697465436865636b706f696e743a20626c6f636b206e756d6265722065786365656473203332206269747346656553686172696e67436f6c6c6563746f723a3a77697468647261773a20636865636b706f696e7420696e6465782065786365656473203332206269747346656553686172696e67436f6c6c6563746f723a3a5f616464436865636b706f696e743a20616d6f756e742065786365656473203936206269747346656553686172696e67436f6c6c6563746f723a3a5f7772697465436865636b706f696e743a20626c6f636b2074696d657374616d702065786365656473203332206269747346656553686172696e67436f6c6c6563746f723a3a5f616464436865636b706f696e743a20756e70726f636573736564416d6f756e742065786365656473203936206269747346656553686172696e67436f6c6c6563746f723a3a5f676574546f74616c566f6c756e7461727957656967687465645374616b653a20766573746564207374616b65206578636565647320746f74616c207374616b65a365627a7a723158206c62e01c9af22d728cf2d5d0558e3bc19fd85c956d5c20ea95c502fdc463d3526c6578706572696d656e74616cf564736f6c63430005110040",
  "implementation": "0x1F34EFe775f3383C31B95Ad116B5fEfb4FA3de19",
  "devdoc": {
    "methods": {
      "addWhitelistedConverterAddress(address)": {
        "details": "Whitelisting converter address.",
        "params": {
          "converterAddress": "converter address to be whitelisted."
        }
      },
      "getAccumulatedFees(address,address)": {
        "params": {
          "_token": "RBTC dummy to fit into existing data structure or SOV. Former address of the pool token.",
          "_user": "The address of the user or contract."
        },
        "return": "The accumulated fee for the message sender."
      },
      "getAccumulatedFeesForCheckpointsRange(address,address,uint256,uint32)": {
        "details": "This function is required to keep consistent with caching of weighted voting power when claiming fees",
        "params": {
          "_maxCheckpoints": "maxCheckpoints to get accumulated fees for the _user",
          "_startFrom": "Checkpoint to start calculating fees from.",
          "_token": "RBTC dummy to fit into existing data structure or SOV. Former address of the pool token.",
          "_user": "The address of a user (staker) or contract."
        },
        "return": "The accumulated fees rewards for the _user in the given checkpoints interval: [_startFrom, _startFrom + maxCheckpoints]."
      },
      "getAccumulatedRBTCFeeBalances(address)": {
        "details": "view function that calculate the total RBTC that includes: - RBTC - WRBTC - iWRBTC * iWRBTC.tokenPrice()",
        "params": {
          "_user": "address of the user."
        },
        "return": "rbtc balance of the given user's address."
      },
      "getAllUserFeesPerMaxCheckpoints(address,address,uint256,uint32)": {
        "details": "Get all user fees reward per maxCheckpoint starting from latest processed checkpointe.g: Total user checkpoint for the particualar token = 300, when we call this function with 50 maxCheckpoint, it will return 6 fee values in array form. if there is no more fees, it will return empty array.",
        "params": {
          "_maxCheckpoints": "maxCheckpoints to get accumulated fees for the _user",
          "_startFrom": "Checkpoint to start calculating fees from.",
          "_token": "RBTC dummy to fit into existing data structure or SOV. Former address of the pool token.",
          "_user": "The address of a user (staker) or contract."
        },
        "return": "The next checkpoint num which is the starting point to fetch all of the fees, array of calculated fees."
      },
      "getNextPositiveUserCheckpoint(address,address,uint256,uint256)": {
        "details": "Returns first user's checkpoint with weighted stake > 0",
        "params": {
          "_maxCheckpoints": "Max checkpoints to process in a row to avoid timeout error",
          "_startFrom": "Checkpoint number to start from. If _startFrom < processedUserCheckpoints then starts from processedUserCheckpoints.",
          "_token": "RBTC dummy to fit into existing data structure or SOV. Former address of the pool token.",
          "_user": "The address of the user or contract."
        },
        "return": "[checkpointNum: checkpoint number where user's weighted stake > 0, hasSkippedCheckpoints, hasFees]"
      },
      "getWhitelistedConverterList()": {
        "return": "All of the whitelisted converter list."
      },
      "isOwner()": {
        "details": "Returns true if the caller is the current owner."
      },
      "numTokenCheckpoints(address)": {
        "details": "This getter function `numTokenCheckpoints` is added for backwards compatibility     broken when renamed `numTokenCheckpoints` storage variable to `totalTokenCheckpoints`.",
        "params": {
          "_token": "token address to get checkpoints for"
        },
        "return": "Total token checkpoints"
      },
      "owner()": {
        "details": "Returns the address of the current owner."
      },
      "recoverIncorrectAllocatedFees()": {
        "details": "This function is dedicated to recover the wrong fee allocation for the 4 year vesting contracts. This function can only be called once The affected tokens to be withdrawn 1. RBTC 2. ZUSD 3. SOV The amount for all of the tokens above is hardcoded The withdrawn tokens will be sent to the owner."
      },
      "removeWhitelistedConverterAddress(address)": {
        "details": "Removing converter address from whitelist.",
        "params": {
          "converterAddress": "converter address to be removed from whitelist."
        }
      },
      "transferOwnership(address)": {
        "details": "Transfers ownership of the contract to a new account (`newOwner`). Can only be called by the current owner."
      },
      "transferRBTC()": {
        "details": "We just write checkpoint here (based on the rbtc value that is sent) in a separate methods in order to prevent adding checkpoints too often."
      },
      "transferTokens(address,uint96)": {
        "details": "We just update amount of tokens here and write checkpoint in a separate methods in order to prevent adding checkpoints too often.",
        "params": {
          "_amount": "Amount to be transferred.",
          "_token": "Address of the token."
        }
      },
      "withdraw(address,uint32,address)": {
        "params": {
          "_maxCheckpoints": "Maximum number of checkpoints to be processed. Must be positive value.",
          "_receiver": "The receiver of tokens or msg.sender",
          "_token": "RBTC dummy to fit into existing data structure or SOV. Former address of the pool token."
        }
      },
      "withdrawFees(address[])": {
        "params": {
          "_tokens": "array address of the token"
        }
      },
      "withdrawFeesAMM(address[])": {
        "params": {
          "_converters": "array addresses of the converters"
        }
      },
      "withdrawRbtcTokens(address[],uint32,address)": {
        "details": "withdraw all of the RBTC balance based on particular checkpoints     * This function will withdraw RBTC balance which is passed as _token param, so it could be either of these: - rbtc balance or - wrbtc balance which will be unwrapped to rbtc or - iwrbtc balance which will be unwrapped to rbtc or     *",
        "params": {
          "_maxCheckpoints": "Maximum number of checkpoints to be processed to workaround block gas limit",
          "_receiver": "An optional tokens receiver (msg.sender used if 0)",
          "_tokens": "array of either RBTC_DUMMY_ADDRESS_FOR_CHECKPOINT or wrbtc address or iwrbtc address"
        }
      },
      "withdrawRbtcTokensStartingFromCheckpoint(address[],uint256[],uint32,address)": {
        "details": "Withdraw all of the RBTC balance based starting from a specific checkpoint The function was designed to skip checkpoints with no fees for users     * This function will withdraw RBTC balance consists of: - rbtc balance - wrbtc balance which will be unwrapped to rbtc - iwrbtc balance which will be unwrapped to rbtcWARNING! This function skips all the checkpoints before '_fromCheckpoint' irreversibly, use with care",
        "params": {
          "_fromCheckpoints": "Skips all the checkpoints before array of '_fromCheckpoint'       should be calculated offchain with getNextPositiveUserCheckpoint function",
          "_maxCheckpoints": "Maximum number of checkpoints to be processed to workaround block gas limit",
          "_receiver": "An optional tokens receiver (msg.sender used if 0)",
          "_tokens": "array of rbtc token to be withdrawn"
        }
      },
      "withdrawStartingFromCheckpoints(address[],uint256[],uint32,address)": {
        "details": "WARNING! This function skips all the checkpoints before '_fromCheckpoint' irreversibly, use with care",
        "params": {
          "_fromCheckpoints": "Skips all the checkpoints before '_fromCheckpoint'       should be calculated offchain with getNextPositiveUserCheckpoint function",
          "_maxCheckpoints": "Maximum number of checkpoints to be processed.",
          "_receiver": "The receiver of tokens or msg.sender",
          "_tokens": "RBTC dummy to fit into existing data structure or SOV. Former address of the pool token."
        }
      }
    },
    "title": "The FeeSharingCollector contract."
  },
  "userdoc": {
    "methods": {
      "getAccumulatedFees(address,address)": {
        "notice": "Get the accumulated loan pool fee of the message sender."
      },
      "getAccumulatedFeesForCheckpointsRange(address,address,uint256,uint32)": {
        "notice": "Get the accumulated fee rewards for the message sender for a checkpoints range"
      },
      "getWhitelistedConverterList()": {
        "notice": "Getter to query all of the whitelisted converter."
      },
      "transferRBTC()": {
        "notice": "Transfer RBTC / native tokens to this contract."
      },
      "transferTokens(address,uint96)": {
        "notice": "Transfer tokens to this contract."
      },
      "withdraw(address,uint32,address)": {
        "notice": "Withdraw accumulated fee to the message sender.     * The Sovryn protocol collects fees on every trade/swap and loan. These fees will be distributed to SOV stakers based on their voting power as a percentage of total voting power. Therefore, staking more SOV and/or staking for longer will increase your share of the fees generated, meaning you will earn more from staking.     * This function will directly burnToBTC and use the msg.sender (user) as the receiver"
      },
      "withdrawFees(address[])": {
        "notice": "Withdraw fees for the given token: lendingFee + tradingFee + borrowingFee the fees (except SOV) will be converted in wRBTC form, and then will be transferred to wRBTC loan pool. For SOV, it will be directly deposited into the feeSharingCollector from the protocol."
      },
      "withdrawFeesAMM(address[])": {
        "notice": "Withdraw amm fees for the given converter addresses: protocolFee from the conversion the fees will be converted in wRBTC form, and then will be transferred to wRBTC loan pool"
      },
      "withdrawStartingFromCheckpoints(address[],uint256[],uint32,address)": {
        "notice": "Withdraw accumulated fee to the message sender/receiver.     * The Sovryn protocol collects fees on every trade/swap and loan. These fees will be distributed to SOV stakers based on their voting power as a percentage of total voting power.     * This function will directly burnToBTC and use the msg.sender (user) as the receiver"
      }
    },
    "notice": "This contract withdraws fees to be paid to SOV Stakers from the protocol. Stakers call withdraw() to get their share of the fees.Staking is not only granting voting rights, but also access to fee sharing according to the own voting power in relation to the total. Whenever somebody decides to collect the fees from the protocol, they get transferred to a proxy contract which invests the funds in the lending pool and keeps the pool tokens. * The fee sharing proxy will be set as feesController of the protocol contract. This allows the fee sharing proxy to withdraw the fees. The fee sharing proxy holds the pool tokens and keeps track of which user owns how many tokens. In order to know how many tokens a user owns, the fee sharing proxy needs to know the users weighted stake in relation to the total weighted stake (aka total voting power). * Because both values are subject to change, they may be different on each fee withdrawal. To be able to calculate a users share of tokens when he wants to withdraw, we need checkpoints. * This contract is intended to be set as the protocol fee collector. Anybody can invoke the withdrawFees function which uses protocol.withdrawFees to obtain available fees from operations on a certain token. These fees are deposited in the corresponding loanPool. Also, the staking contract sends slashed tokens to this contract. When a user calls the withdraw function, the contract transfers the fee sharing rewards in proportion to the users weighted stake since the last withdrawal. * The protocol initially collects fees in all tokens. Then the FeeSharingCollector wihtdraws fees from the protocol. When the fees are withdrawn all the tokens except SOV will be converted to wRBTC and then transferred to wRBTC loan pool. For SOV, it will be directly deposited into the feeSharingCollector from the protocol."
  },
  "storageLayout": {
    "storage": [
      {
        "astId": 54404,
        "contract": "contracts/governance/FeeSharingCollector/FeeSharingCollector.sol:FeeSharingCollector",
        "label": "_owner",
        "offset": 0,
        "slot": "0",
        "type": "t_address"
      },
      {
        "astId": 15345,
        "contract": "contracts/governance/FeeSharingCollector/FeeSharingCollector.sol:FeeSharingCollector",
        "label": "protocol",
        "offset": 0,
        "slot": "1",
        "type": "t_contract(IProtocol)15443"
      },
      {
        "astId": 15347,
        "contract": "contracts/governance/FeeSharingCollector/FeeSharingCollector.sol:FeeSharingCollector",
        "label": "staking",
        "offset": 0,
        "slot": "2",
        "type": "t_contract(IStaking)17781"
      },
      {
        "astId": 15353,
        "contract": "contracts/governance/FeeSharingCollector/FeeSharingCollector.sol:FeeSharingCollector",
        "label": "tokenCheckpoints",
        "offset": 0,
        "slot": "3",
        "type": "t_mapping(t_address,t_mapping(t_uint256,t_struct(Checkpoint)15380_storage))"
      },
      {
        "astId": 15357,
        "contract": "contracts/governance/FeeSharingCollector/FeeSharingCollector.sol:FeeSharingCollector",
        "label": "totalTokenCheckpoints",
        "offset": 0,
        "slot": "4",
        "type": "t_mapping(t_address,t_uint256)"
      },
      {
        "astId": 15363,
        "contract": "contracts/governance/FeeSharingCollector/FeeSharingCollector.sol:FeeSharingCollector",
        "label": "processedCheckpoints",
        "offset": 0,
        "slot": "5",
        "type": "t_mapping(t_address,t_mapping(t_address,t_uint256))"
      },
      {
        "astId": 15367,
        "contract": "contracts/governance/FeeSharingCollector/FeeSharingCollector.sol:FeeSharingCollector",
        "label": "lastFeeWithdrawalTime",
        "offset": 0,
        "slot": "6",
        "type": "t_mapping(t_address,t_uint256)"
      },
      {
        "astId": 15371,
        "contract": "contracts/governance/FeeSharingCollector/FeeSharingCollector.sol:FeeSharingCollector",
        "label": "unprocessedAmount",
        "offset": 0,
        "slot": "7",
        "type": "t_mapping(t_address,t_uint96)"
      },
      {
        "astId": 15389,
        "contract": "contracts/governance/FeeSharingCollector/FeeSharingCollector.sol:FeeSharingCollector",
        "label": "reentrancyLock",
        "offset": 0,
        "slot": "8",
        "type": "t_uint256"
      },
      {
        "astId": 15391,
        "contract": "contracts/governance/FeeSharingCollector/FeeSharingCollector.sol:FeeSharingCollector",
        "label": "whitelistedConverterList",
        "offset": 0,
        "slot": "9",
        "type": "t_struct(AddressSet)35849_storage"
      },
      {
        "astId": 15395,
        "contract": "contracts/governance/FeeSharingCollector/FeeSharingCollector.sol:FeeSharingCollector",
        "label": "isFunctionExecuted",
        "offset": 0,
        "slot": "11",
        "type": "t_mapping(t_bytes4,t_bool)"
      }
    ],
    "types": {
      "t_address": {
        "encoding": "inplace",
        "label": "address",
        "numberOfBytes": "20"
      },
      "t_array(t_address)dyn_storage": {
        "base": "t_address",
        "encoding": "dynamic_array",
        "label": "address[]",
        "numberOfBytes": "32"
      },
      "t_bool": {
        "encoding": "inplace",
        "label": "bool",
        "numberOfBytes": "1"
      },
      "t_bytes4": {
        "encoding": "inplace",
        "label": "bytes4",
        "numberOfBytes": "4"
      },
      "t_contract(IProtocol)15443": {
        "encoding": "inplace",
        "label": "contract IProtocol",
        "numberOfBytes": "20"
      },
      "t_contract(IStaking)17781": {
        "encoding": "inplace",
        "label": "contract IStaking",
        "numberOfBytes": "20"
      },
      "t_mapping(t_address,t_mapping(t_address,t_uint256))": {
        "encoding": "mapping",
        "key": "t_address",
        "label": "mapping(address => mapping(address => uint256))",
        "numberOfBytes": "32",
        "value": "t_mapping(t_address,t_uint256)"
      },
      "t_mapping(t_address,t_mapping(t_uint256,t_struct(Checkpoint)15380_storage))": {
        "encoding": "mapping",
        "key": "t_address",
        "label": "mapping(address => mapping(uint256 => struct FeeSharingCollectorStorage.Checkpoint))",
        "numberOfBytes": "32",
        "value": "t_mapping(t_uint256,t_struct(Checkpoint)15380_storage)"
      },
      "t_mapping(t_address,t_uint256)": {
        "encoding": "mapping",
        "key": "t_address",
        "label": "mapping(address => uint256)",
        "numberOfBytes": "32",
        "value": "t_uint256"
      },
      "t_mapping(t_address,t_uint96)": {
        "encoding": "mapping",
        "key": "t_address",
        "label": "mapping(address => uint96)",
        "numberOfBytes": "32",
        "value": "t_uint96"
      },
      "t_mapping(t_bytes4,t_bool)": {
        "encoding": "mapping",
        "key": "t_bytes4",
        "label": "mapping(bytes4 => bool)",
        "numberOfBytes": "32",
        "value": "t_bool"
      },
      "t_mapping(t_uint256,t_struct(Checkpoint)15380_storage)": {
        "encoding": "mapping",
        "key": "t_uint256",
        "label": "mapping(uint256 => struct FeeSharingCollectorStorage.Checkpoint)",
        "numberOfBytes": "32",
        "value": "t_struct(Checkpoint)15380_storage"
      },
      "t_struct(AddressSet)35849_storage": {
        "encoding": "inplace",
        "label": "struct EnumerableAddressSet.AddressSet",
        "members": [
          {
            "astId": 35845,
            "contract": "contracts/governance/FeeSharingCollector/FeeSharingCollector.sol:FeeSharingCollector",
            "label": "index",
            "offset": 0,
            "slot": "0",
            "type": "t_mapping(t_address,t_uint256)"
          },
          {
            "astId": 35848,
            "contract": "contracts/governance/FeeSharingCollector/FeeSharingCollector.sol:FeeSharingCollector",
            "label": "values",
            "offset": 0,
            "slot": "1",
            "type": "t_array(t_address)dyn_storage"
          }
        ],
        "numberOfBytes": "64"
      },
      "t_struct(Checkpoint)15380_storage": {
        "encoding": "inplace",
        "label": "struct FeeSharingCollectorStorage.Checkpoint",
        "members": [
          {
            "astId": 15373,
            "contract": "contracts/governance/FeeSharingCollector/FeeSharingCollector.sol:FeeSharingCollector",
            "label": "blockNumber",
            "offset": 0,
            "slot": "0",
            "type": "t_uint32"
          },
          {
            "astId": 15375,
            "contract": "contracts/governance/FeeSharingCollector/FeeSharingCollector.sol:FeeSharingCollector",
            "label": "timestamp",
            "offset": 4,
            "slot": "0",
            "type": "t_uint32"
          },
          {
            "astId": 15377,
            "contract": "contracts/governance/FeeSharingCollector/FeeSharingCollector.sol:FeeSharingCollector",
            "label": "totalWeightedStake",
            "offset": 8,
            "slot": "0",
            "type": "t_uint96"
          },
          {
            "astId": 15379,
            "contract": "contracts/governance/FeeSharingCollector/FeeSharingCollector.sol:FeeSharingCollector",
            "label": "numTokens",
            "offset": 20,
            "slot": "0",
            "type": "t_uint96"
          }
        ],
        "numberOfBytes": "32"
      },
      "t_uint256": {
        "encoding": "inplace",
        "label": "uint256",
        "numberOfBytes": "32"
      },
      "t_uint32": {
        "encoding": "inplace",
        "label": "uint32",
        "numberOfBytes": "4"
      },
      "t_uint96": {
        "encoding": "inplace",
        "label": "uint96",
        "numberOfBytes": "12"
      }
    }
  }
}