{
  "address": "0xedD92fb7C556E4A4faf8c4f5A90f471aDCD018f4",
  "abi": [
    {
      "anonymous": false,
      "inputs": [
        {
          "indexed": true,
          "internalType": "address",
          "name": "sender",
          "type": "address"
        },
        {
          "indexed": true,
          "internalType": "address",
          "name": "token",
          "type": "address"
        },
        {
          "indexed": false,
          "internalType": "uint256",
          "name": "amount",
          "type": "uint256"
        }
      ],
      "name": "CheckpointAdded",
      "type": "event"
    },
    {
      "anonymous": false,
      "inputs": [
        {
          "indexed": true,
          "internalType": "address",
          "name": "sender",
          "type": "address"
        },
        {
          "indexed": true,
          "internalType": "address",
          "name": "converter",
          "type": "address"
        },
        {
          "indexed": false,
          "internalType": "uint256",
          "name": "amount",
          "type": "uint256"
        }
      ],
      "name": "FeeAMMWithdrawn",
      "type": "event"
    },
    {
      "anonymous": false,
      "inputs": [
        {
          "indexed": true,
          "internalType": "address",
          "name": "sender",
          "type": "address"
        },
        {
          "indexed": false,
          "internalType": "uint256",
          "name": "amount",
          "type": "uint256"
        }
      ],
      "name": "FeeWithdrawnInRBTC",
      "type": "event"
    },
    {
      "anonymous": false,
      "inputs": [
        {
          "indexed": true,
          "internalType": "address",
          "name": "previousOwner",
          "type": "address"
        },
        {
          "indexed": true,
          "internalType": "address",
          "name": "newOwner",
          "type": "address"
        }
      ],
      "name": "OwnershipTransferred",
      "type": "event"
    },
    {
      "anonymous": false,
      "inputs": [
        {
          "indexed": true,
          "internalType": "address",
          "name": "sender",
          "type": "address"
        },
        {
          "indexed": true,
          "internalType": "address",
          "name": "receiver",
          "type": "address"
        },
        {
          "indexed": false,
          "internalType": "uint256",
          "name": "amount",
          "type": "uint256"
        }
      ],
      "name": "RBTCWithdrawn",
      "type": "event"
    },
    {
      "anonymous": false,
      "inputs": [
        {
          "indexed": true,
          "internalType": "address",
          "name": "sender",
          "type": "address"
        },
        {
          "indexed": true,
          "internalType": "address",
          "name": "token",
          "type": "address"
        },
        {
          "indexed": false,
          "internalType": "uint256",
          "name": "amount",
          "type": "uint256"
        }
      ],
      "name": "TokensTransferred",
      "type": "event"
    },
    {
      "anonymous": false,
      "inputs": [
        {
          "indexed": true,
          "internalType": "address",
          "name": "sender",
          "type": "address"
        },
        {
          "indexed": false,
          "internalType": "address",
          "name": "converter",
          "type": "address"
        }
      ],
      "name": "UnwhitelistedConverter",
      "type": "event"
    },
    {
      "anonymous": false,
      "inputs": [
        {
          "indexed": true,
          "internalType": "address",
          "name": "sender",
          "type": "address"
        },
        {
          "indexed": true,
          "internalType": "address",
          "name": "token",
          "type": "address"
        },
        {
          "indexed": false,
          "internalType": "uint256",
          "name": "prevProcessedCheckpoints",
          "type": "uint256"
        },
        {
          "indexed": false,
          "internalType": "uint256",
          "name": "newProcessedCheckpoints",
          "type": "uint256"
        }
      ],
      "name": "UserFeeProcessedNoWithdraw",
      "type": "event"
    },
    {
      "anonymous": false,
      "inputs": [
        {
          "indexed": true,
          "internalType": "address",
          "name": "sender",
          "type": "address"
        },
        {
          "indexed": true,
          "internalType": "address",
          "name": "receiver",
          "type": "address"
        },
        {
          "indexed": true,
          "internalType": "address",
          "name": "token",
          "type": "address"
        },
        {
          "indexed": false,
          "internalType": "uint256",
          "name": "amount",
          "type": "uint256"
        }
      ],
      "name": "UserFeeWithdrawn",
      "type": "event"
    },
    {
      "anonymous": false,
      "inputs": [
        {
          "indexed": true,
          "internalType": "address",
          "name": "sender",
          "type": "address"
        },
        {
          "indexed": false,
          "internalType": "address",
          "name": "converter",
          "type": "address"
        }
      ],
      "name": "WhitelistedConverter",
      "type": "event"
    },
    {
      "payable": true,
      "stateMutability": "payable",
      "type": "fallback"
    },
    {
      "constant": true,
      "inputs": [],
      "name": "RBTC_DUMMY_ADDRESS_FOR_CHECKPOINT",
      "outputs": [
        {
          "internalType": "address",
          "name": "",
          "type": "address"
        }
      ],
      "payable": false,
      "stateMutability": "view",
      "type": "function"
    },
    {
      "constant": false,
      "inputs": [
        {
          "internalType": "address",
          "name": "converterAddress",
          "type": "address"
        }
      ],
      "name": "addWhitelistedConverterAddress",
      "outputs": [],
      "payable": false,
      "stateMutability": "nonpayable",
      "type": "function"
    },
    {
      "constant": false,
      "inputs": [
        {
          "internalType": "address[]",
          "name": "_nonRbtcTokensRegularWithdraw",
          "type": "address[]"
        },
        {
          "internalType": "address[]",
          "name": "_rbtcTokensRegularWithdraw",
          "type": "address[]"
        },
        {
          "components": [
            {
              "internalType": "address",
              "name": "tokenAddress",
              "type": "address"
            },
            {
              "internalType": "uint256",
              "name": "fromCheckpoint",
              "type": "uint256"
            }
          ],
          "internalType": "struct FeeSharingCollectorStorage.TokenWithSkippedCheckpointsWithdraw[]",
          "name": "_tokensWithSkippedCheckpoints",
          "type": "tuple[]"
        },
        {
          "internalType": "uint32",
          "name": "_maxCheckpoints",
          "type": "uint32"
        },
        {
          "internalType": "address",
          "name": "_receiver",
          "type": "address"
        }
      ],
      "name": "claimAllCollectedFees",
      "outputs": [],
      "payable": false,
      "stateMutability": "nonpayable",
      "type": "function"
    },
    {
      "constant": true,
      "inputs": [
        {
          "internalType": "address",
          "name": "_user",
          "type": "address"
        },
        {
          "internalType": "address",
          "name": "_token",
          "type": "address"
        }
      ],
      "name": "getAccumulatedFees",
      "outputs": [
        {
          "internalType": "uint256",
          "name": "",
          "type": "uint256"
        }
      ],
      "payable": false,
      "stateMutability": "view",
      "type": "function"
    },
    {
      "constant": true,
      "inputs": [
        {
          "internalType": "address",
          "name": "_user",
          "type": "address"
        },
        {
          "internalType": "address",
          "name": "_token",
          "type": "address"
        },
        {
          "internalType": "uint256",
          "name": "_startFrom",
          "type": "uint256"
        },
        {
          "internalType": "uint32",
          "name": "_maxCheckpoints",
          "type": "uint32"
        }
      ],
      "name": "getAccumulatedFeesForCheckpointsRange",
      "outputs": [
        {
          "internalType": "uint256",
          "name": "",
          "type": "uint256"
        }
      ],
      "payable": false,
      "stateMutability": "view",
      "type": "function"
    },
    {
      "constant": true,
      "inputs": [
        {
          "internalType": "address",
          "name": "_user",
          "type": "address"
        }
      ],
      "name": "getAccumulatedRBTCFeeBalances",
      "outputs": [
        {
          "internalType": "uint256",
          "name": "",
          "type": "uint256"
        }
      ],
      "payable": false,
      "stateMutability": "view",
      "type": "function"
    },
    {
      "constant": true,
      "inputs": [
        {
          "internalType": "address",
          "name": "_user",
          "type": "address"
        },
        {
          "internalType": "address",
          "name": "_token",
          "type": "address"
        },
        {
          "internalType": "uint256",
          "name": "_startFrom",
          "type": "uint256"
        },
        {
          "internalType": "uint256",
          "name": "_maxCheckpoints",
          "type": "uint256"
        }
      ],
      "name": "getNextPositiveUserCheckpoint",
      "outputs": [
        {
          "internalType": "uint256",
          "name": "checkpointNum",
          "type": "uint256"
        },
        {
          "internalType": "bool",
          "name": "hasSkippedCheckpoints",
          "type": "bool"
        },
        {
          "internalType": "bool",
          "name": "hasFees",
          "type": "bool"
        }
      ],
      "payable": false,
      "stateMutability": "view",
      "type": "function"
    },
    {
      "constant": true,
      "inputs": [],
      "name": "getWhitelistedConverterList",
      "outputs": [
        {
          "internalType": "address[]",
          "name": "converterList",
          "type": "address[]"
        }
      ],
      "payable": false,
      "stateMutability": "view",
      "type": "function"
    },
    {
      "constant": true,
      "inputs": [
        {
          "internalType": "bytes4",
          "name": "",
          "type": "bytes4"
        }
      ],
      "name": "isFunctionExecuted",
      "outputs": [
        {
          "internalType": "bool",
          "name": "",
          "type": "bool"
        }
      ],
      "payable": false,
      "stateMutability": "view",
      "type": "function"
    },
    {
      "constant": true,
      "inputs": [],
      "name": "isOwner",
      "outputs": [
        {
          "internalType": "bool",
          "name": "",
          "type": "bool"
        }
      ],
      "payable": false,
      "stateMutability": "view",
      "type": "function"
    },
    {
      "constant": true,
      "inputs": [
        {
          "internalType": "address",
          "name": "",
          "type": "address"
        }
      ],
      "name": "lastFeeWithdrawalTime",
      "outputs": [
        {
          "internalType": "uint256",
          "name": "",
          "type": "uint256"
        }
      ],
      "payable": false,
      "stateMutability": "view",
      "type": "function"
    },
    {
      "constant": true,
      "inputs": [
        {
          "internalType": "address",
          "name": "_token",
          "type": "address"
        }
      ],
      "name": "numTokenCheckpoints",
      "outputs": [
        {
          "internalType": "uint256",
          "name": "",
          "type": "uint256"
        }
      ],
      "payable": false,
      "stateMutability": "view",
      "type": "function"
    },
    {
      "constant": true,
      "inputs": [],
      "name": "owner",
      "outputs": [
        {
          "internalType": "address",
          "name": "",
          "type": "address"
        }
      ],
      "payable": false,
      "stateMutability": "view",
      "type": "function"
    },
    {
      "constant": true,
      "inputs": [
        {
          "internalType": "address",
          "name": "",
          "type": "address"
        },
        {
          "internalType": "address",
          "name": "",
          "type": "address"
        }
      ],
      "name": "processedCheckpoints",
      "outputs": [
        {
          "internalType": "uint256",
          "name": "",
          "type": "uint256"
        }
      ],
      "payable": false,
      "stateMutability": "view",
      "type": "function"
    },
    {
      "constant": true,
      "inputs": [],
      "name": "protocol",
      "outputs": [
        {
          "internalType": "contract IProtocol",
          "name": "",
          "type": "address"
        }
      ],
      "payable": false,
      "stateMutability": "view",
      "type": "function"
    },
    {
      "constant": false,
      "inputs": [],
      "name": "recoverIncorrectAllocatedFees",
      "outputs": [],
      "payable": false,
      "stateMutability": "nonpayable",
      "type": "function"
    },
    {
      "constant": false,
      "inputs": [
        {
          "internalType": "address",
          "name": "converterAddress",
          "type": "address"
        }
      ],
      "name": "removeWhitelistedConverterAddress",
      "outputs": [],
      "payable": false,
      "stateMutability": "nonpayable",
      "type": "function"
    },
    {
      "constant": true,
      "inputs": [],
      "name": "staking",
      "outputs": [
        {
          "internalType": "contract IStaking",
          "name": "",
          "type": "address"
        }
      ],
      "payable": false,
      "stateMutability": "view",
      "type": "function"
    },
    {
      "constant": true,
      "inputs": [
        {
          "internalType": "address",
          "name": "",
          "type": "address"
        },
        {
          "internalType": "uint256",
          "name": "",
          "type": "uint256"
        }
      ],
      "name": "tokenCheckpoints",
      "outputs": [
        {
          "internalType": "uint32",
          "name": "blockNumber",
          "type": "uint32"
        },
        {
          "internalType": "uint32",
          "name": "timestamp",
          "type": "uint32"
        },
        {
          "internalType": "uint96",
          "name": "totalWeightedStake",
          "type": "uint96"
        },
        {
          "internalType": "uint96",
          "name": "numTokens",
          "type": "uint96"
        }
      ],
      "payable": false,
      "stateMutability": "view",
      "type": "function"
    },
    {
      "constant": true,
      "inputs": [
        {
          "internalType": "address",
          "name": "",
          "type": "address"
        }
      ],
      "name": "totalTokenCheckpoints",
      "outputs": [
        {
          "internalType": "uint256",
          "name": "",
          "type": "uint256"
        }
      ],
      "payable": false,
      "stateMutability": "view",
      "type": "function"
    },
    {
      "constant": false,
      "inputs": [
        {
          "internalType": "address",
          "name": "newOwner",
          "type": "address"
        }
      ],
      "name": "transferOwnership",
      "outputs": [],
      "payable": false,
      "stateMutability": "nonpayable",
      "type": "function"
    },
    {
      "constant": false,
      "inputs": [],
      "name": "transferRBTC",
      "outputs": [],
      "payable": true,
      "stateMutability": "payable",
      "type": "function"
    },
    {
      "constant": false,
      "inputs": [
        {
          "internalType": "address",
          "name": "_token",
          "type": "address"
        },
        {
          "internalType": "uint96",
          "name": "_amount",
          "type": "uint96"
        }
      ],
      "name": "transferTokens",
      "outputs": [],
      "payable": false,
      "stateMutability": "nonpayable",
      "type": "function"
    },
    {
      "constant": true,
      "inputs": [
        {
          "internalType": "address",
          "name": "",
          "type": "address"
        }
      ],
      "name": "unprocessedAmount",
      "outputs": [
        {
          "internalType": "uint96",
          "name": "",
          "type": "uint96"
        }
      ],
      "payable": false,
      "stateMutability": "view",
      "type": "function"
    },
    {
      "constant": false,
      "inputs": [
        {
          "internalType": "address",
          "name": "_token",
          "type": "address"
        },
        {
          "internalType": "uint32",
          "name": "_maxCheckpoints",
          "type": "uint32"
        },
        {
          "internalType": "address",
          "name": "_receiver",
          "type": "address"
        }
      ],
      "name": "withdraw",
      "outputs": [],
      "payable": false,
      "stateMutability": "nonpayable",
      "type": "function"
    },
    {
      "constant": false,
      "inputs": [
        {
          "internalType": "address[]",
          "name": "_tokens",
          "type": "address[]"
        }
      ],
      "name": "withdrawFees",
      "outputs": [],
      "payable": false,
      "stateMutability": "nonpayable",
      "type": "function"
    },
    {
      "constant": false,
      "inputs": [
        {
          "internalType": "address[]",
          "name": "_converters",
          "type": "address[]"
        }
      ],
      "name": "withdrawFeesAMM",
      "outputs": [],
      "payable": false,
      "stateMutability": "nonpayable",
      "type": "function"
    },
    {
      "constant": false,
      "inputs": [
        {
          "internalType": "address",
          "name": "receiver",
          "type": "address"
        },
        {
          "internalType": "uint256",
          "name": "wrbtcAmount",
          "type": "uint256"
        }
      ],
      "name": "withdrawWRBTC",
      "outputs": [],
      "payable": false,
      "stateMutability": "nonpayable",
      "type": "function"
    }
  ],
  "numDeployments": 11,
  "bytecode": "0x6080604052600160085560006200001e6001600160e01b036200006e16565b600080546001600160a01b0319166001600160a01b0383169081178255604051929350917f8be0079c531659141344cd1fd0a4f28419497f9722a3daafe3b4186f6b6457e0908290a35062000072565b3390565b6154d280620000826000396000f3fe6080604052600436106101b75760003560e01c80638f32d59b116100ec578063adcf21a71161008a578063d93b69ab11610064578063d93b69ab146104ca578063f2962cda146104ea578063f2fde38b1461050a578063f3bdba8f1461052a576101b7565b8063adcf21a714610468578063c30404471461048a578063c3f0eaee146104aa576101b7565b8063a697b8c7116100c6578063a697b8c7146103f3578063a965b3a914610413578063aa5036e914610433578063abe979e114610448576101b7565b80638f32d59b14610391578063a42a77e7146103b3578063a4955f2a146103d3576101b7565b80637061acf3116101595780637d0ce2b2116101335780637d0ce2b2146103185780638b6fdcba1461033a5780638ce74426146103675780638da5cb5b1461037c576101b7565b80637061acf3146102b85780637913b451146102d85780637c8678ec146102f8576101b7565b80633d67df6f116101955780633d67df6f146102265780634cf088d9146102465780635c4d9b12146102685780637053001714610288576101b7565b80631345946c146101b957806320020208146101f157806322a6fd951461021e575b005b3480156101c557600080fd5b506101d96101d4366004613df1565b61054a565b6040516101e893929190614fd0565b60405180910390f35b3480156101fd57600080fd5b5061021161020c366004613d7b565b6107e2565b6040516101e89190614fc2565b6101b76107fd565b34801561023257600080fd5b50610211610241366004613db7565b610882565b34801561025257600080fd5b5061025b61089d565b6040516101e89190614da3565b34801561027457600080fd5b506101b7610283366004613ea7565b6108ac565b34801561029457600080fd5b506102a86102a3366004613ea7565b610a0f565b6040516101e89493929190615023565b3480156102c457600080fd5b506101b76102d3366004613d7b565b610a5b565b3480156102e457600080fd5b506102116102f3366004613db7565b610afa565b34801561030457600080fd5b506101b761031336600461405f565b610b17565b34801561032457600080fd5b5061032d610d7d565b6040516101e89190614ca6565b34801561034657600080fd5b5061035a610355366004613d7b565b610d95565b6040516101e8919061506f565b34801561037357600080fd5b5061025b610db0565b34801561038857600080fd5b5061032d610dbf565b34801561039d57600080fd5b506103a6610dce565b6040516101e89190614d95565b3480156103bf57600080fd5b506101b76103ce366004613f96565b610df2565b3480156103df57600080fd5b506101b76103ee366004613d7b565b611001565b3480156103ff57600080fd5b506101b761040e366004613f54565b611070565b34801561041f57600080fd5b506101b761042e366004613ed7565b6112be565b34801561043f57600080fd5b506101b76112fc565b34801561045457600080fd5b506101b7610463366004613f24565b6114b1565b34801561047457600080fd5b5061047d61170e565b6040516101e89190614d84565b34801561049657600080fd5b506102116104a5366004613d7b565b61171f565b3480156104b657600080fd5b506102116104c5366004613e52565b611899565b3480156104d657600080fd5b506103a66104e53660046140b2565b6118b5565b3480156104f657600080fd5b50610211610505366004613d7b565b6118ca565b34801561051657600080fd5b506101b7610525366004613d7b565b6118dc565b34801561053657600080fd5b50610211610545366004613d7b565b61190c565b60025460405163ca6860df60e01b8152600091829182916001600160a01b03169063ca6860df9061057f908a90600401614ca6565b60206040518083038186803b15801561059757600080fd5b505afa1580156105ab573d6000803e3d6000fd5b505050506040513d601f19601f820116820180604052506105cf9190810190614094565b156105e2575060009150819050806107d8565b6000841161060b5760405162461bcd60e51b815260040161060290614fa2565b60405180910390fd5b6001600160a01b03808716600081815260046020908152604080832054948c1683526005825280832093835292905220548181101580610649575081155b1561065d57509250600091508190506107d8565b600081881161066c578161066e565b875b90506000610682828963ffffffff61191e16565b905083811061068e5750825b815b818110156107ca576000600360008d6001600160a01b03166001600160a01b03168152602001908152602001600020600083815260200190815260200160002090506000600260009054906101000a90046001600160a01b03166001600160a01b03166337e6b1c18f60018560000160009054906101000a900463ffffffff16038560000160049054906101000a900463ffffffff166040518463ffffffff1660e01b815260040161074493929190614d3b565b60206040518083038186803b15801561075c57600080fd5b505afa158015610770573d6000803e3d6000fd5b505050506040513d601f19601f82011682018060405250610794919081019061412a565b90506001600160601b038116156107c057826001018684116001995099509950505050505050506107d8565b5050600101610690565b509550508411925060009150505b9450945094915050565b6001600160a01b031660009081526004602052604090205490565b346001600160601b0381166108245760405162461bcd60e51b815260040161060290614ea2565b61084260405161083390614c90565b6040519081900390208261194a565b60405160009033907f1b89874203ff7f0bba87c969ada3f32fda22ed38a6706d35199d21280c7811b190610877908590615061565b60405180910390a350565b6000806108928484600080611a8e565b509150505b92915050565b6002546001600160a01b031681565b6108b4610dce565b6108d05760405162461bcd60e51b815260040161060290614ed2565b6001546040805163afe8400960e01b815290516000926001600160a01b03169163afe84009916004808301926020929190829003018186803b15801561091557600080fd5b505afa158015610929573d6000803e3d6000fd5b505050506040513d601f19601f8201168201806040525061094d91908101906140d0565b90506000816001600160a01b03166370a08231306040518263ffffffff1660e01b815260040161097d9190614cb4565b60206040518083038186803b15801561099557600080fd5b505afa1580156109a9573d6000803e3d6000fd5b505050506040513d601f19601f820116820180604052506109cd919081019061410c565b9050808311156109ef5760405162461bcd60e51b815260040161060290614e82565b610a096001600160a01b038316858563ffffffff611de616565b50505050565b600360209081526000928352604080842090915290825290205463ffffffff808216916401000000008104909116906001600160601b03600160401b8204811691600160a01b90041684565b610a63610dce565b610a7f5760405162461bcd60e51b815260040161060290614ed2565b610a8881611e3f565b610aa45760405162461bcd60e51b815260040161060290614f02565b610ab560098263ffffffff611e7816565b50336001600160a01b03167fe7902ff5b883e069d72db554511b4f7122428c996decf30682b312a66879668a82604051610aef9190614ca6565b60405180910390a250565b600560209081526000928352604080842090915290825290205481565b6001546040805163afe8400960e01b815290516000926001600160a01b03169163afe84009916004808301926020929190829003018186803b158015610b5c57600080fd5b505afa158015610b70573d6000803e3d6000fd5b505050506040513d601f19601f82011682018060405250610b9491908101906140d0565b9050610b9f82611ed8565b6000805b8351811015610d59576000848281518110610bba57fe5b60200260200101516001600160a01b031663164e68de306040518263ffffffff1660e01b8152600401610bed9190614cb4565b602060405180830381600087803b158015610c0757600080fd5b505af1158015610c1b573d6000803e3d6000fd5b505050506040513d601f19601f82011682018060405250610c3f919081019061410c565b90508015610d5057604051632e1a7d4d60e01b81526001600160a01b03851690632e1a7d4d90610c73908490600401614fc2565b600060405180830381600087803b158015610c8d57600080fd5b505af1158015610ca1573d6000803e3d6000fd5b505050506000610cc9826040518060800160405280604881526020016152a960489139611f2f565b9050610cee84826040518060800160405280604e815260200161525b604e9139611f5e565b9350858381518110610cfc57fe5b60200260200101516001600160a01b0316336001600160a01b03167fd915b7f9d8d5ce11af1f5961b830d7d7c01a750927706eb0bcbf80a8827d76cc84604051610d469190614fc2565b60405180910390a3505b50600101610ba3565b506001600160601b03811615610d7857610d7860405161083390614c90565b505050565b604051610d8990614c90565b60405190819003902081565b6007602052600090815260409020546001600160601b031681565b6001546001600160a01b031681565b6000546001600160a01b031690565b600080546001600160a01b0316610de3611f9a565b6001600160a01b031614905090565b600160085414610e145760405162461bcd60e51b815260040161060290614f32565b600260085560008315610ead57610e7e8585808060200260200160405190810160405280939291908181526020016000905b82821015610e7257610e63604083028601368190038101906140ee565b81526020019060010190610e46565b50505050508484611f9e565b9050610eaa818463ffffffff16036040518060600160405280603c81526020016151da603c91396122b0565b92505b8515610f2257610ef38787808060200260200160405190810160405280939291908181526020018383602002808284376000920191909152508792508691506122d89050565b9050610f1f818463ffffffff16036040518060600160405280603c81526020016151da603c91396122b0565b92505b60005b88811015610ff0576000808b8b84818110610f3c57fe5b9050602002016020610f519190810190613d7b565b3360009081526005602090815260408083206001600160a01b0385168452909152902054909150610f838288886124d3565b935060009050610f99848363ffffffff61284416565b90508115610fb457610fb281600163ffffffff61191e16565b505b610fde818963ffffffff16036040518060600160405280603c81526020016151da603c91396122b0565b97505060019093019250610f25915050565b505060016008555050505050505050565b611009610dce565b6110255760405162461bcd60e51b815260040161060290614ed2565b61103660098263ffffffff61288616565b50336001600160a01b03167f7b8bddb144d9ebd8a4fa3f47acac7c75b34ade822d5e528a442825fa9100ffdb82604051610aef9190614ca6565b60005b818110156110c8576110a483838381811061108a57fe5b905060200201602061109f9190810190613d7b565b611e3f565b6110c05760405162461bcd60e51b815260040161060290614f82565b600101611073565b50600154604051630f7e7aab60e41b81526000916001600160a01b03169063f7e7aab0906110fe90869086903090600401614d63565b602060405180830381600087803b15801561111857600080fd5b505af115801561112c573d6000803e3d6000fd5b505050506040513d601f19601f82011682018060405250611150919081019061410c565b90506000600160009054906101000a90046001600160a01b03166001600160a01b031663afe840096040518163ffffffff1660e01b815260040160206040518083038186803b1580156111a257600080fd5b505afa1580156111b6573d6000803e3d6000fd5b505050506040513d601f19601f820116820180604052506111da91908101906140d0565b9050811561127757604051632e1a7d4d60e01b81526001600160a01b03821690632e1a7d4d9061120e908590600401614fc2565b600060405180830381600087803b15801561122857600080fd5b505af115801561123c573d6000803e3d6000fd5b5050505060006112648360405180608001604052806045815260200161521660459139611f2f565b905061127560405161083390614c90565b505b336001600160a01b03167fea588ee3c471f3c47a77b5d118007e77b1d74e5b310a8805df274aa067d2e8a6836040516112b09190614fc2565b60405180910390a250505050565b6001600854146112e05760405162461bcd60e51b815260040161060290614f32565b60026008556112f08383836124d3565b50506001600855505050565b63aa5036e960e01b6000819052600b6020527fa02e544f58192f4f5f2c12a2ad94a37e02b3cc3232372e81b417611b94ccf0e85460ff16156113505760405162461bcd60e51b815260040161060290614e62565b611358610dce565b6113745760405162461bcd60e51b815260040161060290614ed2565b670c320cbdb1f8e260690387108582e4ba67e98069015437959820bab0d48073db107fa69e33f05180a4c2ce9c2e7cb481645c2d73efc78fc7d48b64958315949279ba181c2114abbd60006113c7610dbf565b6001600160a01b0316866040516113dd90614c9b565b60006040518083038185875af1925050503d806000811461141a576040519150601f19603f3d011682016040523d82523d6000602084013e61141f565b606091505b50509050806114405760405162461bcd60e51b815260040161060290614f22565b61146261144b610dbf565b6001600160a01b038516908763ffffffff611de616565b61148461146d610dbf565b6001600160a01b038416908663ffffffff611de616565b5050506001600160e01b03199093166000908152600b60205260409020805460ff19166001179055505050565b6001600160a01b0382166114d75760405162461bcd60e51b815260040161060290614dd2565b6000816001600160601b0316116115005760405162461bcd60e51b815260040161060290614dc2565b6040516323b872dd60e01b81526000906001600160a01b038416906323b872dd9061153390339030908790600401614cc2565b602060405180830381600087803b15801561154d57600080fd5b505af1158015611561573d6000803e3d6000fd5b505050506040513d601f19601f820116820180604052506115859190810190614094565b9050806115a45760405162461bcd60e51b815260040161060290614f12565b6001546040805163afe8400960e01b815290516000926001600160a01b03169163afe84009916004808301926020929190829003018186803b1580156115e957600080fd5b505afa1580156115fd573d6000803e3d6000fd5b505050506040513d601f19601f8201168201806040525061162191908101906140d0565b9050806001600160a01b0316846001600160a01b031614156116b357604051632e1a7d4d60e01b81526001600160a01b03821690632e1a7d4d90611669908690600401615061565b600060405180830381600087803b15801561168357600080fd5b505af1158015611697573d6000803e3d6000fd5b505050506040516116a790614c90565b60405190819003902093505b6116bd848461194a565b836001600160a01b0316336001600160a01b03167f1b89874203ff7f0bba87c969ada3f32fda22ed38a6706d35199d21280c7811b1856040516117009190615061565b60405180910390a350505050565b606061171a6009612991565b905090565b600080600080611730856000612a37565b5050509250925092506000600160009054906101000a90046001600160a01b03166001600160a01b031663afe840096040518163ffffffff1660e01b815260040160206040518083038186803b15801561178957600080fd5b505afa15801561179d573d6000803e3d6000fd5b505050506040513d601f19601f820116820180604052506117c191908101906140d0565b905060006117ce82612b30565b9050600061186b670de0b6b3a764000061185f846001600160a01b0316637ff9b5966040518163ffffffff1660e01b815260040160206040518083038186803b15801561181a57600080fd5b505afa15801561182e573d6000803e3d6000fd5b505050506040513d601f19601f82011682018060405250611852919081019061410c565b879063ffffffff612bdd16565b9063ffffffff612c1716565b905061188d81611881888863ffffffff61191e16565b9063ffffffff61191e16565b98975050505050505050565b6000806118a886868686611a8e565b509150505b949350505050565b600b6020526000908152604090205460ff1681565b60046020526000908152604090205481565b6118e4610dce565b6119005760405162461bcd60e51b815260040161060290614ed2565b61190981612c59565b50565b60066020526000908152604090205481565b6000828201838110156119435760405162461bcd60e51b815260040161060290614e42565b9392505050565b6001600160a01b0382166000908152600660205260409020546202a300429190910310611a03576001600160a01b03821660009081526006602090815260408083204290556007825280832054815160608101909252603b8083526119c6936001600160601b0390921692869290919061537390830139611f5e565b6001600160a01b038416600090815260076020526040902080546bffffffffffffffffffffffff1916905590506119fd8382612cda565b50611a8a565b6001600160a01b038216600090815260076020908152604091829020548251608081019093526046808452611a4e936001600160601b0390921692859291906153f490830139611f5e565b6001600160a01b038316600090815260076020526040902080546bffffffffffffffffffffffff19166001600160601b03929092169190911790555b5050565b60025460405163ca6860df60e01b815260009182916001600160a01b039091169063ca6860df90611ac3908990600401614ca6565b60206040518083038186803b158015611adb57600080fd5b505afa158015611aef573d6000803e3d6000fd5b505050506040513d601f19601f82011682018060405250611b139190810190614094565b15611b2357506000905080611ddd565b6001600160a01b03808716600090815260056020908152604080832093891683529290529081205490818611611b595781611b5b565b855b905060008563ffffffff1611611b89576001600160a01b038716600090815260046020526040902054611b94565b611b94818887612f4b565b6001600160a01b0388166000908152600460205260409020549093508110611bc2575060009250611ddd9050565b600080825b85811015611dd757611bd7613b7e565b506001600160a01b03808b16600090815260036020908152604080832085845282528083208151608081018352905463ffffffff80821683526401000000008204169382018490526001600160601b03600160401b8204811683850152600160a01b90910416606082015260025491516372ec979560e01b8152909491909116916372ec979591611c6b9190600401614ff9565b60206040518083038186803b158015611c8357600080fd5b505afa158015611c97573d6000803e3d6000fd5b505050506040513d601f19601f82011682018060405250611cbb919081019061410c565b9050600085821415611cce575083611d77565b600260009054906101000a90046001600160a01b03166001600160a01b03166337e6b1c18f600186600001510386602001516040518463ffffffff1660e01b8152600401611d1e93929190614d3b565b60206040518083038186803b158015611d3657600080fd5b505afa158015611d4a573d6000803e3d6000fd5b505050506040513d601f19601f82011682018060405250611d6e919081019061412a565b90508094508195505b6000611db384604001516001600160601b031661185f846001600160601b031687606001516001600160601b0316612bdd90919063ffffffff16565b9050611dc58b8263ffffffff61191e16565b9a505060019093019250611bc7915050565b50505050505b94509492505050565b604051610d7890849063a9059cbb60e01b90611e089086908690602401614d12565b60408051601f198184030181529190526020810180516001600160e01b03166001600160e01b03199093169290921790915261300c565b6000813f7fc5d2460186f7233c927e7db2dcc703c0e500b653ca82273b7bfad8045d85a4708181148015906118ad575050151592915050565b6000611e8483836130f1565b611ed05750600182810180548083018083556000928352602080842090920180546001600160a01b0319166001600160a01b038716908117909155835290859052604090912055610897565b506000610897565b60005b8151811015611a8a57611f0b828281518110611ef357fe5b602002602001015160096130f190919063ffffffff16565b611f275760405162461bcd60e51b815260040161060290614e52565b600101611edb565b600081600160601b8410611f565760405162461bcd60e51b81526004016106029190614db1565b509192915050565b6000838301826001600160601b038087169083161015611f915760405162461bcd60e51b81526004016106029190614db1565b50949350505050565b3390565b6000611faa843361310f565b6001600160a01b038216611fbc573391505b6001546040805163afe8400960e01b815290516000926001600160a01b03169163afe84009916004808301926020929190829003018186803b15801561200157600080fd5b505afa158015612015573d6000803e3d6000fd5b505050506040513d601f19601f8201168201806040525061203991908101906140d0565b9050600061204682612b30565b90506000805b87518110156121d65761205d613ba5565b88828151811061206957fe5b602002602001015190508763ffffffff166000141561208857506121d6565b33600090815260056020908152604080832084516001600160a01b03168452825282205490830151829190829082106120c157816120c7565b84602001515b9050886001600160a01b031685600001516001600160a01b031614806121025750876001600160a01b031685600001516001600160a01b0316145b8061212e575060405161211490614c90565b60405190819003902085516001600160a01b039081169116145b1561216257612147856000015186602001518e8e61344f565b9450925061215b878463ffffffff61191e16565b965061217a565b612176856000015186602001518e8e6134d1565b9450505b60006121916001611881878563ffffffff61284416565b9050808b019a506121c2818e63ffffffff16036040518060600160405280603c81526020016151da603c91396122b0565b9c50506001909501945061204c9350505050565b5080156122a6576000856001600160a01b0316826040516121f690614c9b565b60006040518083038185875af1925050503d8060008114612233576040519150601f19603f3d011682016040523d82523d6000602084013e612238565b606091505b50509050806122595760405162461bcd60e51b815260040161060290614e32565b856001600160a01b0316336001600160a01b03167fba7771603337d6821ea291d76396cf6aa3ea405141b033d8415280139c980c1d8460405161229c9190614fc2565b60405180910390a3505b5050509392505050565b6000816401000000008410611f565760405162461bcd60e51b81526004016106029190614db1565b60006122e384613554565b6001600160a01b0382166122f5573391505b6000805b85518110156123fb5763ffffffff8516612312576123fb565b600086828151811061232057fe5b6020908102919091018101513360009081526005835260408082206001600160a01b038416835290935291822054895191935091908190612375908b908790811061236757fe5b60200260200101518a613692565b909250905061238a868363ffffffff61191e16565b9550600061239e828563ffffffff61284416565b905083156123b9576123b781600163ffffffff61191e16565b505b80880197506123e8818b63ffffffff16036040518060600160405280603c81526020016151da603c91396122b0565b995050600190940193506122f992505050565b5080156124cb576000836001600160a01b03168260405161241b90614c9b565b60006040518083038185875af1925050503d8060008114612458576040519150601f19603f3d011682016040523d82523d6000602084013e61245d565b606091505b505090508061247e5760405162461bcd60e51b815260040161060290614e32565b836001600160a01b0316336001600160a01b03167fba7771603337d6821ea291d76396cf6aa3ea405141b033d8415280139c980c1d846040516124c19190614fc2565b60405180910390a3505b509392505050565b60008060008463ffffffff16116124fc5760405162461bcd60e51b815260040161060290614ee2565b6001546040805163afe8400960e01b815290516000926001600160a01b03169163afe84009916004808301926020929190829003018186803b15801561254157600080fd5b505afa158015612555573d6000803e3d6000fd5b505050506040513d601f19601f8201168201806040525061257991908101906140d0565b9050600061258682612b30565b9050336001600160a01b03861661259b573395505b6001600160a01b038082166000908152600560209081526040808320938c1683529290529081205490806125d1848c858d611a8e565b915091508160001415612685578281111561266d578a6001600160a01b0316336001600160a01b03167fd3d8b561a0f93295b4ea7e2b930d36bd7f1a38774547bf98fb66540f588217b2858460405161262b929190614feb565b60405180910390a36001600160a01b039384166000908152600560209081526040808320968e16835295905293842081905592965091945061283c9350505050565b60405162461bcd60e51b815260040161060290614df2565b6001600160a01b0380851660009081526005602090815260408083208f85168085529252909120839055908616141561274157604051630141abc160e21b81526001600160a01b038c1690630506af04906126e9908c908690600090600401614d2d565b602060405180830381600087803b15801561270357600080fd5b505af1158015612717573d6000803e3d6000fd5b505050506040513d601f19601f8201168201806040525061273b919081019061410c565b506127dd565b60405163a9059cbb60e01b81526001600160a01b038c169063a9059cbb9061276f908c908690600401614d12565b602060405180830381600087803b15801561278957600080fd5b505af115801561279d573d6000803e3d6000fd5b505050506040513d601f19601f820116820180604052506127c19190810190614094565b6127dd5760405162461bcd60e51b815260040161060290614f62565b8a6001600160a01b0316896001600160a01b0316336001600160a01b03167fe635adc5d0c2d7b47215ce5ed57a79c3db183a1ef414ccfc43f24f19178a630f8560405161282a9190614fc2565b60405180910390a49096509450505050505b935093915050565b600061194383836040518060400160405280601e81526020017f536166654d6174683a207375627472616374696f6e206f766572666c6f77000081525061387a565b600061289283836130f1565b15611ed0576001600160a01b0382166000908152602084905260409020546001840154600019918201910180821461293d5760008560010182815481106128d557fe5b6000918252602090912001546001870180546001600160a01b03909216925082918590811061290057fe5b600091825260208083209190910180546001600160a01b0319166001600160a01b0394851617905592909116815290869052604090206001830190555b6001600160a01b0384166000908152602086905260408120556001850180548061296357fe5b600082815260209020810160001990810180546001600160a01b031916905501905550600191506108979050565b60608082600101805490506040519080825280602002602001820160405280156129c5578160200160208202803883390190505b50905060005b6001840154811015612a30578360010181815481106129e657fe5b9060005260206000200160009054906101000a90046001600160a01b0316828281518110612a1057fe5b6001600160a01b03909216602092830291909101909101526001016129cb565b5092915050565b6000806000806000806000600160009054906101000a90046001600160a01b03166001600160a01b031663afe840096040518163ffffffff1660e01b815260040160206040518083038186803b158015612a9057600080fd5b505afa158015612aa4573d6000803e3d6000fd5b505050506040513d601f19601f82011682018060405250612ac891908101906140d0565b90506000612ad582612b30565b9050612af88a604051612ae790614c90565b60405190819003902060008c611a8e565b9098509450612b0a8a8360008c611a8e565b9097509350612b1c8a8260008c611a8e565b809450819750505050509295509295509295565b6001546040516310c59ce360e11b815260009182916001600160a01b039091169063218b39c690612b65908690600401614ca6565b60206040518083038186803b158015612b7d57600080fd5b505afa158015612b91573d6000803e3d6000fd5b505050506040513d601f19601f82011682018060405250612bb59190810190613d99565b90506001600160a01b0381166108975760405162461bcd60e51b815260040161060290614f42565b600082612bec57506000610897565b82820282848281612bf957fe5b04146119435760405162461bcd60e51b815260040161060290614ec2565b600061194383836040518060400160405280601a81526020017f536166654d6174683a206469766973696f6e206279207a65726f0000000000008152506138a6565b6001600160a01b038116612c7f5760405162461bcd60e51b815260040161060290614e12565b600080546040516001600160a01b03808516939216917f8be0079c531659141344cd1fd0a4f28419497f9722a3daafe3b4186f6b6457e091a3600080546001600160a01b0319166001600160a01b0392909216919091179055565b6000612cfe436040518060800160405280604381526020016152f1604391396122b0565b90506000612d24426040518060800160405280604681526020016153ae604691396122b0565b6001600160a01b038516600090815260046020526040812054919250612d4e6000198501426138dd565b90506000816001600160601b031611612d795760405162461bcd60e51b815260040161060290614f92565b600082118015612db857506001600160a01b03861660009081526003602090815260408083206000198601845290915290205463ffffffff8581169116145b15612e27576001600160a01b03868116600090815260036020908152604080832060001987018452909152902080546001600160601b03888116600160a01b02908516600160401b026bffffffffffffffffffffffff60401b1990921691909117909216919091179055612ef8565b6040805160808101825263ffffffff868116825285811660208084019182526001600160601b038681168587019081528b8216606087019081526001600160a01b038e81166000818152600387528a81208d825287528a812099518a5498519551945163ffffffff19909916908a161767ffffffff0000000019166401000000009590991694909402979097176bffffffffffffffffffffffff60401b1916600160401b928516929092029190911716600160a01b9490921693909302179093559081526004909152206001830190555b856001600160a01b0316336001600160a01b03167ff61a5f2f4d0b2d871d5bf18717d08a6b0f543afa7e08dad5df1fea150f72963287604051612f3b9190615061565b60405180910390a3505050505050565b6001600160a01b03821660009081526004602052604081205480612f73576000915050611943565b600063ffffffff8416612f87575080612fc4565b612fb18463ffffffff1687016040518060600160405280603f8152602001615334603f91396122b0565b63ffffffff16905081811115612fc45750805b6001600160a01b03851660009081526003602090815260408083206000198501845290915290205463ffffffff164381141561300257600019909101905b5095945050505050565b61301e826001600160a01b0316611e3f565b61303a5760405162461bcd60e51b815260040161060290614fb2565b60006060836001600160a01b0316836040516130569190614c84565b6000604051808303816000865af19150503d8060008114613093576040519150601f19603f3d011682016040523d82523d6000602084013e613098565b606091505b5091509150816130ba5760405162461bcd60e51b815260040161060290614e92565b805115610a0957808060200190516130d59190810190614094565b610a095760405162461bcd60e51b815260040161060290614f72565b6001600160a01b031660009081526020919091526040902054151590565b60005b8251811015610d7857613123613ba5565b83828151811061312f57fe5b60200260200101519050600181602001511161315d5760405162461bcd60e51b815260040161060290614ef2565b602080820180516001600160a01b038087166000908152600585526040808220875190931682529190945290922054905160001990920191116131b25760405162461bcd60e51b815260040161060290614f52565b81516001600160a01b03166000908152600460209081526040909120549083015111156131f15760405162461bcd60e51b815260040161060290614e22565b6131f9613b7e565b5081516001600160a01b03908116600090815260036020908152604080832060001980870185529083528184208251608081018452905463ffffffff80821680845264010000000083049091169583018690526001600160601b03600160401b8304811684870152600160a01b909204909116606083015260025493516337e6b1c160e01b8152919693909316936337e6b1c19361329f938c9391019190600401614d3b565b60206040518083038186803b1580156132b757600080fd5b505afa1580156132cb573d6000803e3d6000fd5b505050506040513d601f19601f820116820180604052506132ef919081019061412a565b90506001600160601b038116156133185760405162461bcd60e51b815260040161060290614eb2565b613320613b7e565b5083516001600160a01b0390811660009081526003602090815260408083208784528252918290208251608081018452905463ffffffff80821680845264010000000083049091169383018490526001600160601b03600160401b8304811684870152600160a01b909204909116606083015260025493516337e6b1c160e01b8152919493909316926337e6b1c1926133c3928c92600019019190600401614d3b565b60206040518083038186803b1580156133db57600080fd5b505afa1580156133ef573d6000803e3d6000fd5b505050506040513d601f19601f82011682018060405250613413919081019061412a565b91506000826001600160601b03161161343e5760405162461bcd60e51b815260040161060290614e72565b505060019093019250613112915050565b6000808061346486600163ffffffff61284416565b3360009081526005602090815260408083206001600160a01b038c1684529091529020549091508111156134b9573360009081526005602090815260408083206001600160a01b038b16845290915290208190555b6134c38786613692565b925092505094509492505050565b600080806134e686600163ffffffff61284416565b3360009081526005602090815260408083206001600160a01b038c16845290915290205490915081111561353b573360009081526005602090815260408083206001600160a01b038b16845290915290208190555b6135468786866124d3565b909890975095505050505050565b6001546040805163afe8400960e01b815290516000926001600160a01b03169163afe84009916004808301926020929190829003018186803b15801561359957600080fd5b505afa1580156135ad573d6000803e3d6000fd5b505050506040513d601f19601f820116820180604052506135d191908101906140d0565b905060006135de82612b30565b905060005b8351811015610a095760008482815181106135fa57fe5b6020026020010151905060405161361090614c90565b604051809103902060001c6001600160a01b0316816001600160a01b03161415801561364e5750836001600160a01b0316816001600160a01b031614155b801561366c5750826001600160a01b0316816001600160a01b031614155b156136895760405162461bcd60e51b815260040161060290614e02565b506001016135e3565b6001546040805163afe8400960e01b815290516000928392339284926001600160a01b03169163afe84009916004808301926020929190829003018186803b1580156136dd57600080fd5b505afa1580156136f1573d6000803e3d6000fd5b505050506040513d601f19601f8201168201806040525061371591908101906140d0565b9050600061372282612b30565b905061372f878488613a0c565b90955093508415613870576001600160a01b0380841660009081526005602090815260408083208b8516808552925290912086905590831614156137d057604051632e1a7d4d60e01b81526001600160a01b03831690632e1a7d4d90613799908890600401614fc2565b600060405180830381600087803b1580156137b357600080fd5b505af11580156137c7573d6000803e3d6000fd5b50505050613870565b806001600160a01b0316876001600160a01b0316141561387057604051630141abc160e21b81526001600160a01b03821690630506af049061381b9030908990600090600401614cea565b602060405180830381600087803b15801561383557600080fd5b505af1158015613849573d6000803e3d6000fd5b505050506040513d601f19601f8201168201806040525061386d919081019061410c565b94505b5050509250929050565b6000818484111561389e5760405162461bcd60e51b81526004016106029190614db1565b505050900390565b600081836138c75760405162461bcd60e51b81526004016106029190614db1565b5060008385816138d357fe5b0495945050505050565b60025460405163cdbe715560e01b815260009182916001600160a01b039091169063cdbe7155906139149087908790600401615007565b60206040518083038186803b15801561392c57600080fd5b505afa158015613940573d6000803e3d6000fd5b505050506040513d601f19601f82011682018060405250613964919081019061412a565b6002546040516312916bdd60e11b81529192506001600160a01b031690632522d7ba906139979087908790600401615015565b60206040518083038186803b1580156139af57600080fd5b505afa1580156139c3573d6000803e3d6000fd5b505050506040513d601f19601f820116820180604052506139e7919081019061412a565b91506118ad828260405180608001604052806056815260200161543a60569139613b47565b6000806000600160009054906101000a90046001600160a01b03166001600160a01b031663afe840096040518163ffffffff1660e01b815260040160206040518083038186803b158015613a5f57600080fd5b505afa158015613a73573d6000803e3d6000fd5b505050506040513d601f19601f82011682018060405250613a9791908101906140d0565b90506000613aa482612b30565b9050604051613ab290614c90565b604051809103902060001c6001600160a01b0316876001600160a01b03161480613aed5750816001600160a01b0316876001600160a01b0316145b80613b095750806001600160a01b0316876001600160a01b0316145b15613b2557613b1b8688600088611a8e565b9094509250613b3d565b60405162461bcd60e51b815260040161060290614de2565b5050935093915050565b6000836001600160601b0316836001600160601b03161115829061389e5760405162461bcd60e51b81526004016106029190614db1565b60408051608081018252600080825260208201819052918101829052606081019190915290565b604080518082019091526000808252602082015290565b80356108978161518f565b80516108978161518f565b60008083601f840112613be457600080fd5b50813567ffffffffffffffff811115613bfc57600080fd5b602083019150836020820283011115613c1457600080fd5b9250929050565b600082601f830112613c2c57600080fd5b8135613c3f613c3a826150a4565b61507d565b91508181835260208401935060208101905083856020840282011115613c6457600080fd5b60005b83811015613c905781613c7a8882613bbc565b8452506020928301929190910190600101613c67565b5050505092915050565b60008083601f840112613cac57600080fd5b50813567ffffffffffffffff811115613cc457600080fd5b602083019150836040820283011115613c1457600080fd5b8051610897816151a3565b8035610897816151ac565b8051610897816151b5565b600060408284031215613d0f57600080fd5b613d19604061507d565b90506000613d278484613bbc565b8252506020613d3884848301613d44565b60208301525092915050565b8035610897816151be565b8051610897816151be565b8035610897816151c7565b8035610897816151d0565b8051610897816151d0565b600060208284031215613d8d57600080fd5b60006118ad8484613bbc565b600060208284031215613dab57600080fd5b60006118ad8484613bc7565b60008060408385031215613dca57600080fd5b6000613dd68585613bbc565b9250506020613de785828601613bbc565b9150509250929050565b60008060008060808587031215613e0757600080fd5b6000613e138787613bbc565b9450506020613e2487828801613bbc565b9350506040613e3587828801613d44565b9250506060613e4687828801613d44565b91505092959194509250565b60008060008060808587031215613e6857600080fd5b6000613e748787613bbc565b9450506020613e8587828801613bbc565b9350506040613e9687828801613d44565b9250506060613e4687828801613d5a565b60008060408385031215613eba57600080fd5b6000613ec68585613bbc565b9250506020613de785828601613d44565b600080600060608486031215613eec57600080fd5b6000613ef88686613bbc565b9350506020613f0986828701613d5a565b9250506040613f1a86828701613bbc565b9150509250925092565b60008060408385031215613f3757600080fd5b6000613f438585613bbc565b9250506020613de785828601613d65565b60008060208385031215613f6757600080fd5b823567ffffffffffffffff811115613f7e57600080fd5b613f8a85828601613bd2565b92509250509250929050565b60008060008060008060008060a0898b031215613fb257600080fd5b883567ffffffffffffffff811115613fc957600080fd5b613fd58b828c01613bd2565b9850985050602089013567ffffffffffffffff811115613ff457600080fd5b6140008b828c01613bd2565b9650965050604089013567ffffffffffffffff81111561401f57600080fd5b61402b8b828c01613c9a565b9450945050606061403e8b828c01613d5a565b925050608061404f8b828c01613bbc565b9150509295985092959890939650565b60006020828403121561407157600080fd5b813567ffffffffffffffff81111561408857600080fd5b6118ad84828501613c1b565b6000602082840312156140a657600080fd5b60006118ad8484613cdc565b6000602082840312156140c457600080fd5b60006118ad8484613ce7565b6000602082840312156140e257600080fd5b60006118ad8484613cf2565b60006040828403121561410057600080fd5b60006118ad8484613cfd565b60006020828403121561411e57600080fd5b60006118ad8484613d4f565b60006020828403121561413c57600080fd5b60006118ad8484613d70565b6000614154838361416b565b505060200190565b61416581615138565b82525050565b614165816150ef565b600061418083856150d2565b935061418b826150c5565b8060005b858110156141c1576141a182846150e0565b6141ab8882614148565b97506141b6836150c8565b92505060010161418f565b509495945050505050565b60006141d7826150ce565b6141e181856150d2565b93506141ec836150c8565b8060005b838110156141c15781516142048882614148565b975061420f836150c8565b9250506001016141f0565b614165816150fa565b600061422e826150ce565b61423881856150db565b9350614248818560208601615159565b9290920192915050565b6141658161510c565b6000614266826150ce565b61427081856150d2565b9350614280818560208601615159565b61428981615185565b9093019392505050565b60006142a06033836150d2565b7f46656553686172696e67436f6c6c6563746f723a3a7472616e73666572546f6b815272195b9cce881a5b9d985b1a5908185b5bdd5b9d606a1b602082015260400192915050565b60006142f56034836150d2565b7f46656553686172696e67436f6c6c6563746f723a3a7472616e73666572546f6b815273656e733a20696e76616c6964206164647265737360601b602082015260400192915050565b600061434b6048836150d2565b7f46656553686172696e67436f6c6c6563746f723a3a5f6765745242544342616c81527f616e63653a206f6e6c7920726274632d626173656420746f6b656e732061726560208201526708185b1b1bddd95960c21b604082015260600192915050565b60006143bb603b836150d2565b7f46656553686172696e67436f6c6c6563746f723a3a776974686472617746656581527f733a206e6f20746f6b656e7320666f72207769746864726177616c0000000000602082015260400192915050565b600061441a6022836150d2565b7f6f6e6c7920726274632d626173656420746f6b656e732061726520616c6c6f77815261195960f21b602082015260400192915050565b600061445e6026836150d2565b7f4f776e61626c653a206e6577206f776e657220697320746865207a65726f206181526564647265737360d01b602082015260400192915050565b60006144a66032836150d2565b7f5f66726f6d436865636b706f696e742073686f756c64206265203c3d20746f74815271616c546f6b656e436865636b706f696e747360701b602082015260400192915050565b60006144fa6034836150d2565b7f46656553686172696e67436f6c6c6563746f723a3a776974686472617752425481527310ce8815da5d1a191c985dd85b0819985a5b195960621b602082015260400192915050565b6000614550601b836150d2565b7f536166654d6174683a206164646974696f6e206f766572666c6f770000000000815260200192915050565b60006145896011836150d2565b7024b73b30b634b21021b7b73b32b93a32b960791b815260200192915050565b60006145b66035836150d2565b7f46656553686172696e67436f6c6c6563746f723a2066756e6374696f6e2063618152746e206f6e6c792062652063616c6c6564206f6e636560581b602082015260400192915050565b600061460d6035836150d2565b7f55736572207765696768746564207374616b652073686f756c64206265203e208152740c08185d080817d99c9bdb50da1958dadc1bda5b9d605a1b602082015260400192915050565b60006146646014836150d2565b73496e73756666696369656e742062616c616e636560601b815260200192915050565b60006146946020836150d2565b7f5361666545524332303a206c6f772d6c6576656c2063616c6c206661696c6564815260200192915050565b60006146cd6030836150d2565b7f46656553686172696e67436f6c6c6563746f723a3a7472616e7366657252425481526f433a20696e76616c69642076616c756560801b602082015260400192915050565b600061471f6039836150d2565b7f55736572207765696768746564207374616b652073686f756c64206265207a6581527f726f2061742070726576696f757320636865636b706f696e7400000000000000602082015260400192915050565b600061477e6021836150d2565b7f536166654d6174683a206d756c7469706c69636174696f6e206f766572666c6f8152607760f81b602082015260400192915050565b60006147c1600c836150d2565b6b1d5b985d5d1a1bdc9a5e995960a21b815260200192915050565b60006147e96041836150d2565b7f46656553686172696e67436f6c6c6563746f723a3a77697468647261773a205f81527f6d6178436865636b706f696e74732073686f756c6420626520706f73697469766020820152606560f81b604082015260600192915050565b60006148526021836150d2565b7f5f66726f6d436865636b706f696e7420706172616d206d757374206265203e208152603160f81b602082015260400192915050565b6000614895601a836150d2565b7f4e6f6e20636f6e7472616374206164647265737320676976656e000000000000815260200192915050565b60006148ce602e836150d2565b7f5374616b696e673a3a7472616e73666572546f6b656e733a20746f6b656e207481526d1c985b9cd9995c8819985a5b195960921b602082015260400192915050565b600061491e6021836150db565b7f524254435f44554d4d595f414444524553535f464f525f434845434b504f494e8152601560fa1b602082015260210192915050565b60006108976000836150db565b600061496e604a836150d2565b7f46656553686172696e67436f6c6c6563746f723a3a7265636f766572496e636f81527f7272656374416c6c6f6361746564466565733a205769746864726177616c2072602082015269189d18c819985a5b195960b21b604082015260600192915050565b60006149e0600c836150d2565b6b1b9bdb9499595b9d1c985b9d60a21b815260200192915050565b6000614a086033836150d2565b7f46656553686172696e67436f6c6c6563746f723a3a77697468647261773a206c8152721bd85b881dd4909510c81b9bdd08199bdd5b99606a1b602082015260400192915050565b6000614a5d6038836150d2565b7f5f66726f6d436865636b706f696e7420706172616d206d757374206265203e2081527f7573657250726f636573736564436865636b706f696e74730000000000000000602082015260400192915050565b6000614abc6030836150d2565b7f46656553686172696e67436f6c6c6563746f723a3a77697468647261773a207781526f1a5d1a191c985dd85b0819985a5b195960821b602082015260400192915050565b6000614b0e602a836150d2565b7f5361666545524332303a204552433230206f7065726174696f6e20646964206e8152691bdd081cdd58d8d9595960b21b602082015260400192915050565b6000614b5a603a836150d2565b7f46656553686172696e67436f6c6c6563746f723a3a776974686472617746656581527f733a20746f6b656e206973206e6f74206120636f6e7472616374000000000000602082015260400192915050565b6000614bb9601a836150d2565b7f496e76616c696420746f74616c57656967687465645374616b65000000000000815260200192915050565b6000614bf2601b836150d2565b7f5f6d6178436865636b706f696e7473206d757374206265203e20300000000000815260200192915050565b6000614c2b601f836150d2565b7f5361666545524332303a2063616c6c20746f206e6f6e2d636f6e747261637400815260200192915050565b614165816150c5565b61416581615143565b61416581615123565b6141658161514e565b6141658161512c565b60006119438284614223565b600061089782614911565b600061089782614954565b60208101610897828461416b565b60208101610897828461415c565b60608101614cd0828661415c565b614cdd602083018561415c565b6118ad6040830184614c72565b60608101614cf8828661415c565b614d056020830185614c57565b6118ad604083018461421a565b60408101614d20828561416b565b6119436020830184614c57565b60608101614cf8828661416b565b60608101614d49828661416b565b614d566020830185614c60565b6118ad6040830184614c60565b60408082528101614d75818587614174565b90506118ad602083018461415c565b6020808252810161194381846141cc565b60208101610897828461421a565b602081016108978284614252565b60208082528101611943818461425b565b6020808252810161089781614293565b60208082528101610897816142e8565b602080825281016108978161433e565b60208082528101610897816143ae565b602080825281016108978161440d565b6020808252810161089781614451565b6020808252810161089781614499565b60208082528101610897816144ed565b6020808252810161089781614543565b602080825281016108978161457c565b60208082528101610897816145a9565b6020808252810161089781614600565b6020808252810161089781614657565b6020808252810161089781614687565b60208082528101610897816146c0565b6020808252810161089781614712565b6020808252810161089781614771565b60208082528101610897816147b4565b60208082528101610897816147dc565b6020808252810161089781614845565b6020808252810161089781614888565b60208082528101610897816148c1565b6020808252810161089781614961565b60208082528101610897816149d3565b60208082528101610897816149fb565b6020808252810161089781614a50565b6020808252810161089781614aaf565b6020808252810161089781614b01565b6020808252810161089781614b4d565b6020808252810161089781614bac565b6020808252810161089781614be5565b6020808252810161089781614c1e565b602081016108978284614c57565b60608101614fde8286614c57565b614d05602083018561421a565b60408101614d208285614c57565b602081016108978284614c60565b60408101614d208285614c60565b60408101614d208285614c69565b608081016150318287614c69565b61503e6020830186614c69565b61504b6040830185614c7b565b6150586060830184614c7b565b95945050505050565b602081016108978284614c72565b602081016108978284614c7b565b60405181810167ffffffffffffffff8111828210171561509c57600080fd5b604052919050565b600067ffffffffffffffff8211156150bb57600080fd5b5060209081020190565b90565b60200190565b5190565b90815260200190565b919050565b60006119436020840184613bbc565b600061089782615117565b151590565b6001600160e01b03191690565b6000610897826150ef565b6001600160a01b031690565b63ffffffff1690565b6001600160601b031690565b60006108978261510c565b600061089782615123565b60006108978261512c565b60005b8381101561517457818101518382015260200161515c565b83811115610a095750506000910152565b601f01601f191690565b615198816150ef565b811461190957600080fd5b615198816150fa565b615198816150ff565b6151988161510c565b615198816150c5565b61519881615123565b6151988161512c56fe46656553686172696e67436f6c6c6563746f723a206d6178436865636b706f696e7420697465726174696f6e2065786365656473203332206269747346656553686172696e67436f6c6c6563746f723a3a7769746864726177466565733a20777262746320746f6b656e20616d6f756e742065786365656473203936206269747346656553686172696e67436f6c6c6563746f723a3a776974686472617746656573414d4d3a20746f74616c20777262746320746f6b656e20616d6f756e742065786365656473203936206269747346656553686172696e67436f6c6c6563746f723a3a776974686472617746656573414d4d3a20777262746320746f6b656e20616d6f756e742065786365656473203936206269747346656553686172696e67436f6c6c6563746f723a3a5f7772697465436865636b706f696e743a20626c6f636b206e756d6265722065786365656473203332206269747346656553686172696e67436f6c6c6563746f723a3a77697468647261773a20636865636b706f696e7420696e6465782065786365656473203332206269747346656553686172696e67436f6c6c6563746f723a3a5f616464436865636b706f696e743a20616d6f756e742065786365656473203936206269747346656553686172696e67436f6c6c6563746f723a3a5f7772697465436865636b706f696e743a20626c6f636b2074696d657374616d702065786365656473203332206269747346656553686172696e67436f6c6c6563746f723a3a5f616464436865636b706f696e743a20756e70726f636573736564416d6f756e742065786365656473203936206269747346656553686172696e67436f6c6c6563746f723a3a5f676574546f74616c566f6c756e7461727957656967687465645374616b653a20766573746564207374616b65206578636565647320746f74616c207374616b65a365627a7a723158204a295f711cd6bb802a3b5154016490a527a857f2e23eecd844e2934f8b1dd8856c6578706572696d656e74616cf564736f6c63430005110040",
  "implementation": "0x808F20eE08C718a7e91B8e5BF27794E48A2A60Aa",
  "devdoc": {
    "methods": {
      "addWhitelistedConverterAddress(address)": {
        "details": "Whitelisting converter address.",
        "params": {
          "converterAddress": "converter address to be whitelisted."
        }
      },
      "claimAllCollectedFees(address[],address[],(address,uint256)[],uint32,address)": {
        "details": "Function to wrap: 1. regular withdrawal for both rbtc & non-rbtc token 2. skipped checkpoints withdrawal for both rbtc & non-rbtc token",
        "params": {
          "_nonRbtcTokensRegularWithdraw": "array of non-rbtc token address with no skipped checkpoints that will be withdrawn",
          "_rbtcTokensRegularWithdraw": "array of rbtc token address with no skipped checkpoints that will be withdrawn",
          "_tokensWithSkippedCheckpoints": "array of rbtc & non-rbtc TokenWithSkippedCheckpointsWithdraw struct, which has skipped checkpoints that will be withdrawn     "
        }
      },
      "getAccumulatedFees(address,address)": {
        "params": {
          "_token": "RBTC dummy to fit into existing data structure or SOV. Former address of the pool token.",
          "_user": "The address of the user or contract."
        },
        "return": "The accumulated fee for the message sender."
      },
      "getAccumulatedFeesForCheckpointsRange(address,address,uint256,uint32)": {
        "details": "This function is required to keep consistent with caching of weighted voting power when claiming fees",
        "params": {
          "_maxCheckpoints": "maxCheckpoints to get accumulated fees for the _user",
          "_startFrom": "Checkpoint to start calculating fees from.",
          "_token": "RBTC dummy to fit into existing data structure or SOV. Former address of the pool token.",
          "_user": "The address of a user (staker) or contract."
        },
        "return": "The accumulated fees rewards for the _user in the given checkpoints interval: [_startFrom, _startFrom + maxCheckpoints]."
      },
      "getAccumulatedRBTCFeeBalances(address)": {
        "details": "view function that calculate the total RBTC that includes: - RBTC - WRBTC - iWRBTC * iWRBTC.tokenPrice()",
        "params": {
          "_user": "address of the user."
        },
        "return": "rbtc balance of the given user's address."
      },
      "getNextPositiveUserCheckpoint(address,address,uint256,uint256)": {
        "details": "Returns first user's checkpoint with weighted stake > 0",
        "params": {
          "_maxCheckpoints": "Max checkpoints to process in a row to avoid timeout error",
          "_startFrom": "Checkpoint number to start from. If _startFrom < processedUserCheckpoints then starts from processedUserCheckpoints.",
          "_token": "RBTC dummy to fit into existing data structure or SOV. Former address of the pool token.",
          "_user": "The address of the user or contract."
        },
        "return": "[checkpointNum: checkpoint number where user's weighted stake > 0, hasSkippedCheckpoints, hasFees]"
      },
      "getWhitelistedConverterList()": {
        "return": "All of the whitelisted converter list."
      },
      "isOwner()": {
        "details": "Returns true if the caller is the current owner."
      },
      "numTokenCheckpoints(address)": {
        "details": "This getter function `numTokenCheckpoints` is added for backwards compatibility     broken when renamed `numTokenCheckpoints` storage variable to `totalTokenCheckpoints`.",
        "params": {
          "_token": "token address to get checkpoints for"
        },
        "return": "Total token checkpoints"
      },
      "owner()": {
        "details": "Returns the address of the current owner."
      },
      "recoverIncorrectAllocatedFees()": {
        "details": "This function is dedicated to recover the wrong fee allocation for the 4 year vesting contracts. This function can only be called once The affected tokens to be withdrawn 1. RBTC 2. ZUSD 3. SOV The amount for all of the tokens above is hardcoded The withdrawn tokens will be sent to the owner."
      },
      "removeWhitelistedConverterAddress(address)": {
        "details": "Removing converter address from whitelist.",
        "params": {
          "converterAddress": "converter address to be removed from whitelist."
        }
      },
      "transferOwnership(address)": {
        "details": "Transfers ownership of the contract to a new account (`newOwner`). Can only be called by the current owner."
      },
      "transferRBTC()": {
        "details": "We just write checkpoint here (based on the rbtc value that is sent) in a separate methods in order to prevent adding checkpoints too often."
      },
      "transferTokens(address,uint96)": {
        "details": "We just update amount of tokens here and write checkpoint in a separate methods in order to prevent adding checkpoints too often.",
        "params": {
          "_amount": "Amount to be transferred.",
          "_token": "Address of the token."
        }
      },
      "withdraw(address,uint32,address)": {
        "params": {
          "_maxCheckpoints": "Maximum number of checkpoints to be processed. Must be positive value.",
          "_receiver": "The receiver of tokens or msg.sender",
          "_token": "RBTC dummy to fit into existing data structure or SOV. Former address of the pool token."
        }
      },
      "withdrawFees(address[])": {
        "params": {
          "_tokens": "array address of the token"
        }
      },
      "withdrawFeesAMM(address[])": {
        "params": {
          "_converters": "array addresses of the converters"
        }
      }
    },
    "title": "The FeeSharingCollector contract."
  },
  "userdoc": {
    "methods": {
      "getAccumulatedFees(address,address)": {
        "notice": "Get the accumulated loan pool fee of the message sender."
      },
      "getAccumulatedFeesForCheckpointsRange(address,address,uint256,uint32)": {
        "notice": "Get the accumulated fee rewards for the message sender for a checkpoints range"
      },
      "getWhitelistedConverterList()": {
        "notice": "Getter to query all of the whitelisted converter."
      },
      "transferRBTC()": {
        "notice": "Transfer RBTC / native tokens to this contract."
      },
      "transferTokens(address,uint96)": {
        "notice": "Transfer tokens to this contract."
      },
      "withdraw(address,uint32,address)": {
        "notice": "Withdraw accumulated fee to the message sender.     * The Sovryn protocol collects fees on every trade/swap and loan. These fees will be distributed to SOV stakers based on their voting power as a percentage of total voting power. Therefore, staking more SOV and/or staking for longer will increase your share of the fees generated, meaning you will earn more from staking.     * This function will directly burnToBTC and use the msg.sender (user) as the receiver"
      },
      "withdrawFees(address[])": {
        "notice": "Withdraw fees for the given token: lendingFee + tradingFee + borrowingFee the fees (except SOV) will be converted in wRBTC form, and then will be transferred to wRBTC loan pool. For SOV, it will be directly deposited into the feeSharingCollector from the protocol."
      },
      "withdrawFeesAMM(address[])": {
        "notice": "Withdraw amm fees for the given converter addresses: protocolFee from the conversion the fees will be converted in wRBTC form, and then will be transferred to wRBTC loan pool"
      }
    },
    "notice": "This contract withdraws fees to be paid to SOV Stakers from the protocol. Stakers call withdraw() to get their share of the fees.Staking is not only granting voting rights, but also access to fee sharing according to the own voting power in relation to the total. Whenever somebody decides to collect the fees from the protocol, they get transferred to a proxy contract which invests the funds in the lending pool and keeps the pool tokens. * The fee sharing proxy will be set as feesController of the protocol contract. This allows the fee sharing proxy to withdraw the fees. The fee sharing proxy holds the pool tokens and keeps track of which user owns how many tokens. In order to know how many tokens a user owns, the fee sharing proxy needs to know the users weighted stake in relation to the total weighted stake (aka total voting power). * Because both values are subject to change, they may be different on each fee withdrawal. To be able to calculate a users share of tokens when he wants to withdraw, we need checkpoints. * This contract is intended to be set as the protocol fee collector. Anybody can invoke the withdrawFees function which uses protocol.withdrawFees to obtain available fees from operations on a certain token. These fees are deposited in the corresponding loanPool. Also, the staking contract sends slashed tokens to this contract. When a user calls the withdraw function, the contract transfers the fee sharing rewards in proportion to the users weighted stake since the last withdrawal. * The protocol initially collects fees in all tokens. Then the FeeSharingCollector wihtdraws fees from the protocol. When the fees are withdrawn all the tokens except SOV will be converted to wRBTC and then transferred to wRBTC loan pool. For SOV, it will be directly deposited into the feeSharingCollector from the protocol."
  },
  "storageLayout": {
    "storage": [
      {
        "astId": 54283,
        "contract": "contracts/governance/FeeSharingCollector/FeeSharingCollector.sol:FeeSharingCollector",
        "label": "_owner",
        "offset": 0,
        "slot": "0",
        "type": "t_address"
      },
      {
        "astId": 15198,
        "contract": "contracts/governance/FeeSharingCollector/FeeSharingCollector.sol:FeeSharingCollector",
        "label": "protocol",
        "offset": 0,
        "slot": "1",
        "type": "t_contract(IProtocol)15301"
      },
      {
        "astId": 15200,
        "contract": "contracts/governance/FeeSharingCollector/FeeSharingCollector.sol:FeeSharingCollector",
        "label": "staking",
        "offset": 0,
        "slot": "2",
        "type": "t_contract(IStaking)17639"
      },
      {
        "astId": 15206,
        "contract": "contracts/governance/FeeSharingCollector/FeeSharingCollector.sol:FeeSharingCollector",
        "label": "tokenCheckpoints",
        "offset": 0,
        "slot": "3",
        "type": "t_mapping(t_address,t_mapping(t_uint256,t_struct(Checkpoint)15233_storage))"
      },
      {
        "astId": 15210,
        "contract": "contracts/governance/FeeSharingCollector/FeeSharingCollector.sol:FeeSharingCollector",
        "label": "totalTokenCheckpoints",
        "offset": 0,
        "slot": "4",
        "type": "t_mapping(t_address,t_uint256)"
      },
      {
        "astId": 15216,
        "contract": "contracts/governance/FeeSharingCollector/FeeSharingCollector.sol:FeeSharingCollector",
        "label": "processedCheckpoints",
        "offset": 0,
        "slot": "5",
        "type": "t_mapping(t_address,t_mapping(t_address,t_uint256))"
      },
      {
        "astId": 15220,
        "contract": "contracts/governance/FeeSharingCollector/FeeSharingCollector.sol:FeeSharingCollector",
        "label": "lastFeeWithdrawalTime",
        "offset": 0,
        "slot": "6",
        "type": "t_mapping(t_address,t_uint256)"
      },
      {
        "astId": 15224,
        "contract": "contracts/governance/FeeSharingCollector/FeeSharingCollector.sol:FeeSharingCollector",
        "label": "unprocessedAmount",
        "offset": 0,
        "slot": "7",
        "type": "t_mapping(t_address,t_uint96)"
      },
      {
        "astId": 15247,
        "contract": "contracts/governance/FeeSharingCollector/FeeSharingCollector.sol:FeeSharingCollector",
        "label": "reentrancyLock",
        "offset": 0,
        "slot": "8",
        "type": "t_uint256"
      },
      {
        "astId": 15249,
        "contract": "contracts/governance/FeeSharingCollector/FeeSharingCollector.sol:FeeSharingCollector",
        "label": "whitelistedConverterList",
        "offset": 0,
        "slot": "9",
        "type": "t_struct(AddressSet)35727_storage"
      },
      {
        "astId": 15253,
        "contract": "contracts/governance/FeeSharingCollector/FeeSharingCollector.sol:FeeSharingCollector",
        "label": "isFunctionExecuted",
        "offset": 0,
        "slot": "11",
        "type": "t_mapping(t_bytes4,t_bool)"
      }
    ],
    "types": {
      "t_address": {
        "encoding": "inplace",
        "label": "address",
        "numberOfBytes": "20"
      },
      "t_array(t_address)dyn_storage": {
        "base": "t_address",
        "encoding": "dynamic_array",
        "label": "address[]",
        "numberOfBytes": "32"
      },
      "t_bool": {
        "encoding": "inplace",
        "label": "bool",
        "numberOfBytes": "1"
      },
      "t_bytes4": {
        "encoding": "inplace",
        "label": "bytes4",
        "numberOfBytes": "4"
      },
      "t_contract(IProtocol)15301": {
        "encoding": "inplace",
        "label": "contract IProtocol",
        "numberOfBytes": "20"
      },
      "t_contract(IStaking)17639": {
        "encoding": "inplace",
        "label": "contract IStaking",
        "numberOfBytes": "20"
      },
      "t_mapping(t_address,t_mapping(t_address,t_uint256))": {
        "encoding": "mapping",
        "key": "t_address",
        "label": "mapping(address => mapping(address => uint256))",
        "numberOfBytes": "32",
        "value": "t_mapping(t_address,t_uint256)"
      },
      "t_mapping(t_address,t_mapping(t_uint256,t_struct(Checkpoint)15233_storage))": {
        "encoding": "mapping",
        "key": "t_address",
        "label": "mapping(address => mapping(uint256 => struct FeeSharingCollectorStorage.Checkpoint))",
        "numberOfBytes": "32",
        "value": "t_mapping(t_uint256,t_struct(Checkpoint)15233_storage)"
      },
      "t_mapping(t_address,t_uint256)": {
        "encoding": "mapping",
        "key": "t_address",
        "label": "mapping(address => uint256)",
        "numberOfBytes": "32",
        "value": "t_uint256"
      },
      "t_mapping(t_address,t_uint96)": {
        "encoding": "mapping",
        "key": "t_address",
        "label": "mapping(address => uint96)",
        "numberOfBytes": "32",
        "value": "t_uint96"
      },
      "t_mapping(t_bytes4,t_bool)": {
        "encoding": "mapping",
        "key": "t_bytes4",
        "label": "mapping(bytes4 => bool)",
        "numberOfBytes": "32",
        "value": "t_bool"
      },
      "t_mapping(t_uint256,t_struct(Checkpoint)15233_storage)": {
        "encoding": "mapping",
        "key": "t_uint256",
        "label": "mapping(uint256 => struct FeeSharingCollectorStorage.Checkpoint)",
        "numberOfBytes": "32",
        "value": "t_struct(Checkpoint)15233_storage"
      },
      "t_struct(AddressSet)35727_storage": {
        "encoding": "inplace",
        "label": "struct EnumerableAddressSet.AddressSet",
        "members": [
          {
            "astId": 35723,
            "contract": "contracts/governance/FeeSharingCollector/FeeSharingCollector.sol:FeeSharingCollector",
            "label": "index",
            "offset": 0,
            "slot": "0",
            "type": "t_mapping(t_address,t_uint256)"
          },
          {
            "astId": 35726,
            "contract": "contracts/governance/FeeSharingCollector/FeeSharingCollector.sol:FeeSharingCollector",
            "label": "values",
            "offset": 0,
            "slot": "1",
            "type": "t_array(t_address)dyn_storage"
          }
        ],
        "numberOfBytes": "64"
      },
      "t_struct(Checkpoint)15233_storage": {
        "encoding": "inplace",
        "label": "struct FeeSharingCollectorStorage.Checkpoint",
        "members": [
          {
            "astId": 15226,
            "contract": "contracts/governance/FeeSharingCollector/FeeSharingCollector.sol:FeeSharingCollector",
            "label": "blockNumber",
            "offset": 0,
            "slot": "0",
            "type": "t_uint32"
          },
          {
            "astId": 15228,
            "contract": "contracts/governance/FeeSharingCollector/FeeSharingCollector.sol:FeeSharingCollector",
            "label": "timestamp",
            "offset": 4,
            "slot": "0",
            "type": "t_uint32"
          },
          {
            "astId": 15230,
            "contract": "contracts/governance/FeeSharingCollector/FeeSharingCollector.sol:FeeSharingCollector",
            "label": "totalWeightedStake",
            "offset": 8,
            "slot": "0",
            "type": "t_uint96"
          },
          {
            "astId": 15232,
            "contract": "contracts/governance/FeeSharingCollector/FeeSharingCollector.sol:FeeSharingCollector",
            "label": "numTokens",
            "offset": 20,
            "slot": "0",
            "type": "t_uint96"
          }
        ],
        "numberOfBytes": "32"
      },
      "t_uint256": {
        "encoding": "inplace",
        "label": "uint256",
        "numberOfBytes": "32"
      },
      "t_uint32": {
        "encoding": "inplace",
        "label": "uint32",
        "numberOfBytes": "4"
      },
      "t_uint96": {
        "encoding": "inplace",
        "label": "uint96",
        "numberOfBytes": "12"
      }
    }
  }
}