{
  "address": "0x112bBAbE29839dF46d13cCa56327dC30aC986268",
  "abi": [
    {
      "anonymous": false,
      "inputs": [
        {
          "indexed": true,
          "internalType": "address",
          "name": "sender",
          "type": "address"
        },
        {
          "indexed": true,
          "internalType": "address",
          "name": "token",
          "type": "address"
        },
        {
          "indexed": false,
          "internalType": "uint256",
          "name": "amount",
          "type": "uint256"
        }
      ],
      "name": "CheckpointAdded",
      "type": "event"
    },
    {
      "anonymous": false,
      "inputs": [
        {
          "indexed": true,
          "internalType": "address",
          "name": "sender",
          "type": "address"
        },
        {
          "indexed": true,
          "internalType": "address",
          "name": "converter",
          "type": "address"
        },
        {
          "indexed": false,
          "internalType": "uint256",
          "name": "amount",
          "type": "uint256"
        }
      ],
      "name": "FeeAMMWithdrawn",
      "type": "event"
    },
    {
      "anonymous": false,
      "inputs": [
        {
          "indexed": true,
          "internalType": "address",
          "name": "sender",
          "type": "address"
        },
        {
          "indexed": false,
          "internalType": "uint256",
          "name": "amount",
          "type": "uint256"
        }
      ],
      "name": "FeeWithdrawnInRBTC",
      "type": "event"
    },
    {
      "anonymous": false,
      "inputs": [
        {
          "indexed": true,
          "internalType": "address",
          "name": "previousOwner",
          "type": "address"
        },
        {
          "indexed": true,
          "internalType": "address",
          "name": "newOwner",
          "type": "address"
        }
      ],
      "name": "OwnershipTransferred",
      "type": "event"
    },
    {
      "anonymous": false,
      "inputs": [
        {
          "indexed": true,
          "internalType": "address",
          "name": "sender",
          "type": "address"
        },
        {
          "indexed": true,
          "internalType": "address",
          "name": "receiver",
          "type": "address"
        },
        {
          "indexed": false,
          "internalType": "uint256",
          "name": "amount",
          "type": "uint256"
        }
      ],
      "name": "RBTCWithdrawn",
      "type": "event"
    },
    {
      "anonymous": false,
      "inputs": [
        {
          "indexed": true,
          "internalType": "address",
          "name": "sender",
          "type": "address"
        },
        {
          "indexed": true,
          "internalType": "address",
          "name": "token",
          "type": "address"
        },
        {
          "indexed": false,
          "internalType": "uint256",
          "name": "amount",
          "type": "uint256"
        }
      ],
      "name": "TokensTransferred",
      "type": "event"
    },
    {
      "anonymous": false,
      "inputs": [
        {
          "indexed": true,
          "internalType": "address",
          "name": "sender",
          "type": "address"
        },
        {
          "indexed": false,
          "internalType": "address",
          "name": "converter",
          "type": "address"
        }
      ],
      "name": "UnwhitelistedConverter",
      "type": "event"
    },
    {
      "anonymous": false,
      "inputs": [
        {
          "indexed": true,
          "internalType": "address",
          "name": "sender",
          "type": "address"
        },
        {
          "indexed": true,
          "internalType": "address",
          "name": "token",
          "type": "address"
        },
        {
          "indexed": false,
          "internalType": "uint256",
          "name": "prevProcessedCheckpoints",
          "type": "uint256"
        },
        {
          "indexed": false,
          "internalType": "uint256",
          "name": "newProcessedCheckpoints",
          "type": "uint256"
        }
      ],
      "name": "UserFeeProcessedNoWithdraw",
      "type": "event"
    },
    {
      "anonymous": false,
      "inputs": [
        {
          "indexed": true,
          "internalType": "address",
          "name": "sender",
          "type": "address"
        },
        {
          "indexed": true,
          "internalType": "address",
          "name": "receiver",
          "type": "address"
        },
        {
          "indexed": true,
          "internalType": "address",
          "name": "token",
          "type": "address"
        },
        {
          "indexed": false,
          "internalType": "uint256",
          "name": "amount",
          "type": "uint256"
        }
      ],
      "name": "UserFeeWithdrawn",
      "type": "event"
    },
    {
      "anonymous": false,
      "inputs": [
        {
          "indexed": true,
          "internalType": "address",
          "name": "sender",
          "type": "address"
        },
        {
          "indexed": false,
          "internalType": "address",
          "name": "converter",
          "type": "address"
        }
      ],
      "name": "WhitelistedConverter",
      "type": "event"
    },
    {
      "payable": true,
      "stateMutability": "payable",
      "type": "fallback"
    },
    {
      "constant": true,
      "inputs": [],
      "name": "RBTC_DUMMY_ADDRESS_FOR_CHECKPOINT",
      "outputs": [
        {
          "internalType": "address",
          "name": "",
          "type": "address"
        }
      ],
      "payable": false,
      "stateMutability": "view",
      "type": "function"
    },
    {
      "constant": false,
      "inputs": [
        {
          "internalType": "address",
          "name": "converterAddress",
          "type": "address"
        }
      ],
      "name": "addWhitelistedConverterAddress",
      "outputs": [],
      "payable": false,
      "stateMutability": "nonpayable",
      "type": "function"
    },
    {
      "constant": true,
      "inputs": [
        {
          "internalType": "address",
          "name": "_user",
          "type": "address"
        },
        {
          "internalType": "address",
          "name": "_token",
          "type": "address"
        }
      ],
      "name": "getAccumulatedFees",
      "outputs": [
        {
          "internalType": "uint256",
          "name": "",
          "type": "uint256"
        }
      ],
      "payable": false,
      "stateMutability": "view",
      "type": "function"
    },
    {
      "constant": true,
      "inputs": [
        {
          "internalType": "address",
          "name": "_user",
          "type": "address"
        }
      ],
      "name": "getAccumulatedRBTCFeeBalances",
      "outputs": [
        {
          "internalType": "uint256",
          "name": "",
          "type": "uint256"
        }
      ],
      "payable": false,
      "stateMutability": "view",
      "type": "function"
    },
    {
      "constant": true,
      "inputs": [
        {
          "internalType": "address",
          "name": "_user",
          "type": "address"
        },
        {
          "internalType": "address",
          "name": "_token",
          "type": "address"
        },
        {
          "internalType": "uint256",
          "name": "_startFrom",
          "type": "uint256"
        },
        {
          "internalType": "uint256",
          "name": "_maxCheckpoints",
          "type": "uint256"
        }
      ],
      "name": "getNextPositiveUserCheckpoint",
      "outputs": [
        {
          "internalType": "uint256",
          "name": "checkpointNum",
          "type": "uint256"
        },
        {
          "internalType": "bool",
          "name": "hasSkippedCheckpoints",
          "type": "bool"
        },
        {
          "internalType": "bool",
          "name": "hasFees",
          "type": "bool"
        }
      ],
      "payable": false,
      "stateMutability": "view",
      "type": "function"
    },
    {
      "constant": true,
      "inputs": [],
      "name": "getWhitelistedConverterList",
      "outputs": [
        {
          "internalType": "address[]",
          "name": "converterList",
          "type": "address[]"
        }
      ],
      "payable": false,
      "stateMutability": "view",
      "type": "function"
    },
    {
      "constant": true,
      "inputs": [],
      "name": "isOwner",
      "outputs": [
        {
          "internalType": "bool",
          "name": "",
          "type": "bool"
        }
      ],
      "payable": false,
      "stateMutability": "view",
      "type": "function"
    },
    {
      "constant": true,
      "inputs": [
        {
          "internalType": "address",
          "name": "",
          "type": "address"
        }
      ],
      "name": "lastFeeWithdrawalTime",
      "outputs": [
        {
          "internalType": "uint256",
          "name": "",
          "type": "uint256"
        }
      ],
      "payable": false,
      "stateMutability": "view",
      "type": "function"
    },
    {
      "constant": true,
      "inputs": [
        {
          "internalType": "address",
          "name": "_token",
          "type": "address"
        }
      ],
      "name": "numTokenCheckpoints",
      "outputs": [
        {
          "internalType": "uint256",
          "name": "",
          "type": "uint256"
        }
      ],
      "payable": false,
      "stateMutability": "view",
      "type": "function"
    },
    {
      "constant": true,
      "inputs": [],
      "name": "owner",
      "outputs": [
        {
          "internalType": "address",
          "name": "",
          "type": "address"
        }
      ],
      "payable": false,
      "stateMutability": "view",
      "type": "function"
    },
    {
      "constant": true,
      "inputs": [
        {
          "internalType": "address",
          "name": "",
          "type": "address"
        },
        {
          "internalType": "address",
          "name": "",
          "type": "address"
        }
      ],
      "name": "processedCheckpoints",
      "outputs": [
        {
          "internalType": "uint256",
          "name": "",
          "type": "uint256"
        }
      ],
      "payable": false,
      "stateMutability": "view",
      "type": "function"
    },
    {
      "constant": true,
      "inputs": [],
      "name": "protocol",
      "outputs": [
        {
          "internalType": "contract IProtocol",
          "name": "",
          "type": "address"
        }
      ],
      "payable": false,
      "stateMutability": "view",
      "type": "function"
    },
    {
      "constant": false,
      "inputs": [
        {
          "internalType": "address",
          "name": "converterAddress",
          "type": "address"
        }
      ],
      "name": "removeWhitelistedConverterAddress",
      "outputs": [],
      "payable": false,
      "stateMutability": "nonpayable",
      "type": "function"
    },
    {
      "constant": true,
      "inputs": [],
      "name": "staking",
      "outputs": [
        {
          "internalType": "contract IStaking",
          "name": "",
          "type": "address"
        }
      ],
      "payable": false,
      "stateMutability": "view",
      "type": "function"
    },
    {
      "constant": true,
      "inputs": [
        {
          "internalType": "address",
          "name": "",
          "type": "address"
        },
        {
          "internalType": "uint256",
          "name": "",
          "type": "uint256"
        }
      ],
      "name": "tokenCheckpoints",
      "outputs": [
        {
          "internalType": "uint32",
          "name": "blockNumber",
          "type": "uint32"
        },
        {
          "internalType": "uint32",
          "name": "timestamp",
          "type": "uint32"
        },
        {
          "internalType": "uint96",
          "name": "totalWeightedStake",
          "type": "uint96"
        },
        {
          "internalType": "uint96",
          "name": "numTokens",
          "type": "uint96"
        }
      ],
      "payable": false,
      "stateMutability": "view",
      "type": "function"
    },
    {
      "constant": true,
      "inputs": [
        {
          "internalType": "address",
          "name": "",
          "type": "address"
        }
      ],
      "name": "totalTokenCheckpoints",
      "outputs": [
        {
          "internalType": "uint256",
          "name": "",
          "type": "uint256"
        }
      ],
      "payable": false,
      "stateMutability": "view",
      "type": "function"
    },
    {
      "constant": false,
      "inputs": [
        {
          "internalType": "address",
          "name": "newOwner",
          "type": "address"
        }
      ],
      "name": "transferOwnership",
      "outputs": [],
      "payable": false,
      "stateMutability": "nonpayable",
      "type": "function"
    },
    {
      "constant": false,
      "inputs": [],
      "name": "transferRBTC",
      "outputs": [],
      "payable": true,
      "stateMutability": "payable",
      "type": "function"
    },
    {
      "constant": false,
      "inputs": [
        {
          "internalType": "address",
          "name": "_token",
          "type": "address"
        },
        {
          "internalType": "uint96",
          "name": "_amount",
          "type": "uint96"
        }
      ],
      "name": "transferTokens",
      "outputs": [],
      "payable": false,
      "stateMutability": "nonpayable",
      "type": "function"
    },
    {
      "constant": true,
      "inputs": [
        {
          "internalType": "address",
          "name": "",
          "type": "address"
        }
      ],
      "name": "unprocessedAmount",
      "outputs": [
        {
          "internalType": "uint96",
          "name": "",
          "type": "uint96"
        }
      ],
      "payable": false,
      "stateMutability": "view",
      "type": "function"
    },
    {
      "constant": false,
      "inputs": [
        {
          "internalType": "address",
          "name": "_token",
          "type": "address"
        },
        {
          "internalType": "uint32",
          "name": "_maxCheckpoints",
          "type": "uint32"
        },
        {
          "internalType": "address",
          "name": "_receiver",
          "type": "address"
        }
      ],
      "name": "withdraw",
      "outputs": [],
      "payable": false,
      "stateMutability": "nonpayable",
      "type": "function"
    },
    {
      "constant": false,
      "inputs": [
        {
          "internalType": "address[]",
          "name": "_tokens",
          "type": "address[]"
        }
      ],
      "name": "withdrawFees",
      "outputs": [],
      "payable": false,
      "stateMutability": "nonpayable",
      "type": "function"
    },
    {
      "constant": false,
      "inputs": [
        {
          "internalType": "address[]",
          "name": "_converters",
          "type": "address[]"
        }
      ],
      "name": "withdrawFeesAMM",
      "outputs": [],
      "payable": false,
      "stateMutability": "nonpayable",
      "type": "function"
    },
    {
      "constant": false,
      "inputs": [
        {
          "internalType": "uint32",
          "name": "_maxCheckpoints",
          "type": "uint32"
        },
        {
          "internalType": "address",
          "name": "_receiver",
          "type": "address"
        }
      ],
      "name": "withdrawRBTC",
      "outputs": [],
      "payable": false,
      "stateMutability": "nonpayable",
      "type": "function"
    },
    {
      "constant": false,
      "inputs": [
        {
          "internalType": "uint256",
          "name": "_fromCheckpoint",
          "type": "uint256"
        },
        {
          "internalType": "uint32",
          "name": "_maxCheckpoints",
          "type": "uint32"
        },
        {
          "internalType": "address",
          "name": "_receiver",
          "type": "address"
        }
      ],
      "name": "withdrawRBTCStartingFromCheckpoint",
      "outputs": [],
      "payable": false,
      "stateMutability": "nonpayable",
      "type": "function"
    },
    {
      "constant": false,
      "inputs": [
        {
          "internalType": "address",
          "name": "_token",
          "type": "address"
        },
        {
          "internalType": "uint256",
          "name": "_fromCheckpoint",
          "type": "uint256"
        },
        {
          "internalType": "uint32",
          "name": "_maxCheckpoints",
          "type": "uint32"
        },
        {
          "internalType": "address",
          "name": "_receiver",
          "type": "address"
        }
      ],
      "name": "withdrawStartingFromCheckpoint",
      "outputs": [],
      "payable": false,
      "stateMutability": "nonpayable",
      "type": "function"
    },
    {
      "constant": false,
      "inputs": [
        {
          "internalType": "address",
          "name": "receiver",
          "type": "address"
        },
        {
          "internalType": "uint256",
          "name": "wrbtcAmount",
          "type": "uint256"
        }
      ],
      "name": "withdrawWRBTC",
      "outputs": [],
      "payable": false,
      "stateMutability": "nonpayable",
      "type": "function"
    }
  ],
  "transactionHash": "0x5a7a0689cf13124f7a6c8692fa9529752cbd456d0526b2012fdecd2e29dea5e8",
  "args": [],
  "numDeployments": 4,
  "solcInputHash": "baff5f448f6ea68dfc61129059b83716",
  "bytecode": "0x60806040526001600855600061001c6001600160e01b0361006b16565b600080546001600160a01b0319166001600160a01b0383169081178255604051929350917f8be0079c531659141344cd1fd0a4f28419497f9722a3daafe3b4186f6b6457e0908290a35061006f565b3390565b6145b9806200007f6000396000f3fe60806040526004361061019c5760003560e01c80638ce74426116100ec578063a965b3a91161008a578063c304044711610064578063c3040447146107ac578063f2962cda146107df578063f2fde38b14610812578063f3bdba8f146108455761019c565b8063a965b3a9146106bc578063abe979e114610705578063adcf21a7146107475761019c565b8063988ba593116100c6578063988ba59314610582578063a4955f2a146105c1578063a697b8c7146105f4578063a93365191461066f5761019c565b80638ce744261461052f5780638da5cb5b146105445780638f32d59b146105595761019c565b806370530017116101595780637913b451116101335780637913b451146103e25780637c8678ec1461041d5780637d0ce2b2146104cb5780638b6fdcba146104e05761019c565b806370530017146102f95780637061acf31461036a5780637104c4ff1461039d5761019c565b80631345946c1461019e578063200202081461020757806322a6fd951461024c5780633d67df6f146102545780634cf088d91461028f5780635c4d9b12146102c0575b005b3480156101aa57600080fd5b506101e7600480360360808110156101c157600080fd5b506001600160a01b03813581169160208101359091169060408101359060600135610878565b604080519384529115156020840152151582820152519081900360600190f35b34801561021357600080fd5b5061023a6004803603602081101561022a57600080fd5b50356001600160a01b0316610b54565b60408051918252519081900360200190f35b61019c610b6f565b34801561026057600080fd5b5061023a6004803603604081101561027757600080fd5b506001600160a01b0381358116916020013516610c1c565b34801561029b57600080fd5b506102a4610c36565b604080516001600160a01b039092168252519081900360200190f35b3480156102cc57600080fd5b5061019c600480360360408110156102e357600080fd5b506001600160a01b038135169060200135610c45565b34801561030557600080fd5b506103326004803603604081101561031c57600080fd5b506001600160a01b038135169060200135610de4565b6040805163ffffffff95861681529390941660208401526001600160601b039182168385015216606082015290519081900360800190f35b34801561037657600080fd5b5061019c6004803603602081101561038d57600080fd5b50356001600160a01b0316610e2f565b3480156103a957600080fd5b5061019c600480360360608110156103c057600080fd5b50803590602081013563ffffffff1690604001356001600160a01b0316610f25565b3480156103ee57600080fd5b5061023a6004803603604081101561040557600080fd5b506001600160a01b03813581169160200135166113d2565b34801561042957600080fd5b5061019c6004803603602081101561044057600080fd5b810190602081018135600160201b81111561045a57600080fd5b82018360208201111561046c57600080fd5b803590602001918460208302840111600160201b8311171561048d57600080fd5b9190808060200260200160405190810160405280939291908181526020018383602002808284376000920191909152509295506113ef945050505050565b3480156104d757600080fd5b506102a4611663565b3480156104ec57600080fd5b506105136004803603602081101561050357600080fd5b50356001600160a01b031661167f565b604080516001600160601b039092168252519081900360200190f35b34801561053b57600080fd5b506102a461169a565b34801561055057600080fd5b506102a46116a9565b34801561056557600080fd5b5061056e6116b8565b604080519115158252519081900360200190f35b34801561058e57600080fd5b5061019c600480360360408110156105a557600080fd5b50803563ffffffff1690602001356001600160a01b03166116dc565b3480156105cd57600080fd5b5061019c600480360360208110156105e457600080fd5b50356001600160a01b031661173a565b34801561060057600080fd5b5061019c6004803603602081101561061757600080fd5b810190602081018135600160201b81111561063157600080fd5b82018360208201111561064357600080fd5b803590602001918460208302840111600160201b8311171561066457600080fd5b5090925090506117d6565b34801561067b57600080fd5b5061019c6004803603608081101561069257600080fd5b506001600160a01b03813581169160208101359163ffffffff604083013516916060013516611a5e565b3480156106c857600080fd5b5061019c600480360360608110156106df57600080fd5b506001600160a01b03813581169163ffffffff6020820135169160409091013516611f03565b34801561071157600080fd5b5061019c6004803603604081101561072857600080fd5b5080356001600160a01b031690602001356001600160601b0316611f63565b34801561075357600080fd5b5061075c61221d565b60408051602080825283518183015283519192839290830191858101910280838360005b83811015610798578181015183820152602001610780565b505050509050019250505060405180910390f35b3480156107b857600080fd5b5061023a600480360360208110156107cf57600080fd5b50356001600160a01b031661222e565b3480156107eb57600080fd5b5061023a6004803603602081101561080257600080fd5b50356001600160a01b0316612275565b34801561081e57600080fd5b5061019c6004803603602081101561083557600080fd5b50356001600160a01b0316612287565b34801561085157600080fd5b5061023a6004803603602081101561086857600080fd5b50356001600160a01b03166122db565b6002546040805163ca6860df60e01b81526001600160a01b03878116600483015291516000938493849391169163ca6860df91602480820192602092909190829003018186803b1580156108cb57600080fd5b505afa1580156108df573d6000803e3d6000fd5b505050506040513d60208110156108f557600080fd5b50511561090a57506000915081905080610b4a565b6000841161095f576040805162461bcd60e51b815260206004820152601b60248201527f5f6d6178436865636b706f696e7473206d757374206265203e20300000000000604482015290519081900360640190fd5b6001600160a01b03808716600081815260046020908152604080832054948c168352600582528083209383529290522054818110158061099d575081155b156109b15750925060009150819050610b4a565b60008188116109c057816109c2565b875b905060006109d6828963ffffffff6122ed16565b90508381106109e25750825b815b81811015610b3c576000600360008d6001600160a01b03166001600160a01b03168152602001908152602001600020600083815260200190815260200160002090506000600260009054906101000a90046001600160a01b03166001600160a01b03166337e6b1c18f60018560000160009054906101000a900463ffffffff16038560000160049054906101000a900463ffffffff166040518463ffffffff1660e01b815260040180846001600160a01b03166001600160a01b031681526020018363ffffffff1681526020018263ffffffff168152602001935050505060206040518083038186803b158015610ada57600080fd5b505afa158015610aee573d6000803e3d6000fd5b505050506040513d6020811015610b0457600080fd5b505190506001600160601b03811615610b325782600101868411600199509950995050505050505050610b4a565b50506001016109e4565b509550508411925060009150505b9450945094915050565b6001600160a01b031660009081526004602052604090205490565b346001600160601b038116610bb55760405162461bcd60e51b81526004018080602001828103825260308152602001806141716030913960400191505060405180910390fd5b610bd8604051808061438e6021913960405190819003602101902090508261234e565b604080516001600160601b0383168152905160009133917f1b89874203ff7f0bba87c969ada3f32fda22ed38a6706d35199d21280c7811b19181900360200190a350565b600080610c2b84846000612492565b509150505b92915050565b6002546001600160a01b031681565b610c4d6116b8565b610c8d576040805162461bcd60e51b815260206004820152600c60248201526b1d5b985d5d1a1bdc9a5e995960a21b604482015290519081900360640190fd5b6001546040805163afe8400960e01b815290516000926001600160a01b03169163afe84009916004808301926020929190829003018186803b158015610cd257600080fd5b505afa158015610ce6573d6000803e3d6000fd5b505050506040513d6020811015610cfc57600080fd5b5051604080516370a0823160e01b815230600482015290519192506000916001600160a01b038416916370a08231916024808301926020929190829003018186803b158015610d4a57600080fd5b505afa158015610d5e573d6000803e3d6000fd5b505050506040513d6020811015610d7457600080fd5b5051905080831115610dc4576040805162461bcd60e51b8152602060048201526014602482015273496e73756666696369656e742062616c616e636560601b604482015290519081900360640190fd5b610dde6001600160a01b038316858563ffffffff6127f316565b50505050565b600360209081526000928352604080842090915290825290205463ffffffff80821691600160201b8104909116906001600160601b03600160401b8204811691600160a01b90041684565b610e376116b8565b610e77576040805162461bcd60e51b815260206004820152600c60248201526b1d5b985d5d1a1bdc9a5e995960a21b604482015290519081900360640190fd5b610e8081612845565b610ed1576040805162461bcd60e51b815260206004820152601a60248201527f4e6f6e20636f6e7472616374206164647265737320676976656e000000000000604482015290519081900360640190fd5b610ee260098263ffffffff61288116565b50604080516001600160a01b0383168152905133917fe7902ff5b883e069d72db554511b4f7122428c996decf30682b312a66879668a919081900360200190a250565b8233604051808061438e60219139604051908190036021019020905060018311610f805760405162461bcd60e51b81526004018080602001828103825260218152602001806142f96021913960400191505060405180910390fd5b6001600160a01b038083166000908152600560209081526040808320938516835292905220546000198401908411610fe95760405162461bcd60e51b815260040180806020018281038252603881526020018061447e6038913960400191505060405180910390fd5b6001600160a01b0382166000908152600460205260409020548411156110405760405162461bcd60e51b8152600401808060200182810382526032815260200180613ffb6032913960400191505060405180910390fd5b611048613f0b565b506001600160a01b03808316600090815260036020908152604080832060001980870185529083528184208251608081018452905463ffffffff808216808452600160201b830482168488018190526001600160601b03600160401b8504811686890152600160a01b909404909316606085015260025486516337e6b1c160e01b81528d8b16600482015291909501909116602482015260448101919091529251909591909116926337e6b1c19260648082019391829003018186803b15801561111157600080fd5b505afa158015611125573d6000803e3d6000fd5b505050506040513d602081101561113b57600080fd5b505190506001600160601b038116156111855760405162461bcd60e51b81526004018080602001828103825260398152602001806141a16039913960400191505060405180910390fd5b61118d613f0b565b506001600160a01b0380851660009081526003602090815260408083208784528252918290208251608081018452905463ffffffff808216808452600160201b830482168486018190526001600160601b03600160401b8504811686890152600160a01b909404909316606085015260025486516337e6b1c160e01b81528d89166004820152600019909201909216602482015260448101929092529351919493909316926337e6b1c1926064808301939192829003018186803b15801561125457600080fd5b505afa158015611268573d6000803e3d6000fd5b505050506040513d602081101561127e57600080fd5b505191506001600160601b0382166112c75760405162461bcd60e51b815260040180806020018281038252603581526020018061413c6035913960400191505060405180910390fd5b60016008541461130d576040805162461bcd60e51b815260206004820152600c60248201526b1b9bdb9499595b9d1c985b9d60a21b604482015290519081900360640190fd5b600260085560006113258b600163ffffffff6128e116565b3360009081526005602052604080822090519293509180602161438e823960408051918290036021019091206001600160a01b0316835260208301939093525001600020548111156113b65733600090815260056020526040808220905183929080602161438e823960408051918290036021019091206001600160a01b0316835260208301939093525001600020555b6113c08a8a612923565b50506001600855505050505050505050565b600560209081526000928352604080842090915290825290205481565b6001546040805163afe8400960e01b815290516000926001600160a01b03169163afe84009916004808301926020929190829003018186803b15801561143457600080fd5b505afa158015611448573d6000803e3d6000fd5b505050506040513d602081101561145e57600080fd5b5051905061146b82612ca8565b6000805b835181101561162b57600084828151811061148657fe5b60200260200101516001600160a01b031663164e68de306040518263ffffffff1660e01b815260040180826001600160a01b03166001600160a01b03168152602001915050602060405180830381600087803b1580156114e557600080fd5b505af11580156114f9573d6000803e3d6000fd5b505050506040513d602081101561150f57600080fd5b50519050801561162257836001600160a01b0316632e1a7d4d826040518263ffffffff1660e01b815260040180828152602001915050600060405180830381600087803b15801561155f57600080fd5b505af1158015611573573d6000803e3d6000fd5b50505050600061159b826040518060800160405280604881526020016140f460489139612d28565b90506115c084826040518060800160405280604e81526020016140a6604e9139612dc2565b93508583815181106115ce57fe5b60200260200101516001600160a01b0316336001600160a01b03167fd915b7f9d8d5ce11af1f5961b830d7d7c01a750927706eb0bcbf80a8827d76cc846040518082815260200191505060405180910390a3505b5060010161146f565b506001600160601b0381161561165e5761165e604051808061438e6021913960405190819003602101902090508261234e565b505050565b60405180602161438e8239604051908190036021019020905081565b6007602052600090815260409020546001600160601b031681565b6001546001600160a01b031681565b6000546001600160a01b031690565b600080546001600160a01b03166116cd612e2c565b6001600160a01b031614905090565b600160085414611722576040805162461bcd60e51b815260206004820152600c60248201526b1b9bdb9499595b9d1c985b9d60a21b604482015290519081900360640190fd5b60026008556117318282612923565b50506001600855565b6117426116b8565b611782576040805162461bcd60e51b815260206004820152600c60248201526b1d5b985d5d1a1bdc9a5e995960a21b604482015290519081900360640190fd5b61179360098263ffffffff612e3016565b50604080516001600160a01b0383168152905133917f7b8bddb144d9ebd8a4fa3f47acac7c75b34ade822d5e528a442825fa9100ffdb919081900360200190a250565b60005b81811015611848576118058383838181106117f057fe5b905060200201356001600160a01b0316612845565b6118405760405162461bcd60e51b815260040180806020018281038252603a815260200180614510603a913960400191505060405180910390fd5b6001016117d9565b5060015460408051630f7e7aab60e41b8152306024820181905260048201928352604482018590526000936001600160a01b03169263f7e7aab0928792879290918190606401856020860280828437600081840152601f19601f820116905080830192505050945050505050602060405180830381600087803b1580156118ce57600080fd5b505af11580156118e2573d6000803e3d6000fd5b505050506040513d60208110156118f857600080fd5b50516001546040805163afe8400960e01b815290519293506000926001600160a01b039092169163afe8400991600480820192602092909190829003018186803b15801561194557600080fd5b505afa158015611959573d6000803e3d6000fd5b505050506040513d602081101561196f57600080fd5b505190508115611a2257806001600160a01b0316632e1a7d4d836040518263ffffffff1660e01b815260040180828152602001915050600060405180830381600087803b1580156119bf57600080fd5b505af11580156119d3573d6000803e3d6000fd5b5050505060006119fb8360405180608001604052806045815260200161406160459139612d28565b9050611a20604051808061438e6021913960405190819003602101902090508261234e565b505b60408051838152905133917fea588ee3c471f3c47a77b5d118007e77b1d74e5b310a8805df274aa067d2e8a6919081900360200190a250505050565b82338560018311611aa05760405162461bcd60e51b81526004018080602001828103825260218152602001806142f96021913960400191505060405180910390fd5b6001600160a01b038083166000908152600560209081526040808320938516835292905220546000198401908411611b095760405162461bcd60e51b815260040180806020018281038252603881526020018061447e6038913960400191505060405180910390fd5b6001600160a01b038216600090815260046020526040902054841115611b605760405162461bcd60e51b8152600401808060200182810382526032815260200180613ffb6032913960400191505060405180910390fd5b611b68613f0b565b506001600160a01b03808316600090815260036020908152604080832060001980870185529083528184208251608081018452905463ffffffff808216808452600160201b830482168488018190526001600160601b03600160401b8504811686890152600160a01b909404909316606085015260025486516337e6b1c160e01b81528d8b16600482015291909501909116602482015260448101919091529251909591909116926337e6b1c19260648082019391829003018186803b158015611c3157600080fd5b505afa158015611c45573d6000803e3d6000fd5b505050506040513d6020811015611c5b57600080fd5b505190506001600160601b03811615611ca55760405162461bcd60e51b81526004018080602001828103825260398152602001806141a16039913960400191505060405180910390fd5b611cad613f0b565b506001600160a01b0380851660009081526003602090815260408083208784528252918290208251608081018452905463ffffffff808216808452600160201b830482168486018190526001600160601b03600160401b8504811686890152600160a01b909404909316606085015260025486516337e6b1c160e01b81528d89166004820152600019909201909216602482015260448101929092529351919493909316926337e6b1c1926064808301939192829003018186803b158015611d7457600080fd5b505afa158015611d88573d6000803e3d6000fd5b505050506040513d6020811015611d9e57600080fd5b505191506001600160601b038216611de75760405162461bcd60e51b815260040180806020018281038252603581526020018061413c6035913960400191505060405180910390fd5b600160085414611e2d576040805162461bcd60e51b815260206004820152600c60248201526b1b9bdb9499595b9d1c985b9d60a21b604482015290519081900360640190fd5b60026008556000611e458b600163ffffffff6128e116565b905060056000336001600160a01b03166001600160a01b0316815260200190815260200160002060008d6001600160a01b03166001600160a01b0316815260200190815260200160002054811115611ee5578060056000336001600160a01b03166001600160a01b0316815260200190815260200160002060008e6001600160a01b03166001600160a01b03168152602001908152602001600020819055505b611ef08c8b8b612f3b565b5050600160085550505050505050505050565b600160085414611f49576040805162461bcd60e51b815260206004820152600c60248201526b1b9bdb9499595b9d1c985b9d60a21b604482015290519081900360640190fd5b6002600855611f59838383612f3b565b5050600160085550565b6001600160a01b038216611fa85760405162461bcd60e51b8152600401808060200182810382526034815260200180613f666034913960400191505060405180910390fd5b6000816001600160601b031611611ff05760405162461bcd60e51b8152600401808060200182810382526033815260200180613f336033913960400191505060405180910390fd5b604080516323b872dd60e01b81523360048201523060248201526001600160601b038316604482015290516000916001600160a01b038516916323b872dd9160648082019260209290919082900301818787803b15801561205057600080fd5b505af1158015612064573d6000803e3d6000fd5b505050506040513d602081101561207a57600080fd5b50519050806120ba5760405162461bcd60e51b815260040180806020018281038252602e815260200180614360602e913960400191505060405180910390fd5b6001546040805163afe8400960e01b815290516000926001600160a01b03169163afe84009916004808301926020929190829003018186803b1580156120ff57600080fd5b505afa158015612113573d6000803e3d6000fd5b505050506040513d602081101561212957600080fd5b505190506001600160a01b0384811690821614156121c457806001600160a01b0316632e1a7d4d846040518263ffffffff1660e01b815260040180826001600160601b03168152602001915050600060405180830381600087803b15801561219057600080fd5b505af11580156121a4573d6000803e3d6000fd5b50505050604051808061438e602191396040519081900360210190209450505b6121ce848461234e565b604080516001600160601b038516815290516001600160a01b0386169133917f1b89874203ff7f0bba87c969ada3f32fda22ed38a6706d35199d21280c7811b19181900360200190a350505050565b60606122296009613310565b905090565b60008060008061223f8560006133b6565b50939650919450925061226c9150829050612260858563ffffffff6122ed16565b9063ffffffff6122ed16565b95945050505050565b60046020526000908152604090205481565b61228f6116b8565b6122cf576040805162461bcd60e51b815260206004820152600c60248201526b1d5b985d5d1a1bdc9a5e995960a21b604482015290519081900360640190fd5b6122d881613525565b50565b60066020526000908152604090205481565b600082820183811015612347576040805162461bcd60e51b815260206004820152601b60248201527f536166654d6174683a206164646974696f6e206f766572666c6f770000000000604482015290519081900360640190fd5b9392505050565b6001600160a01b03821660009081526006602052604090205462015180429190910310612407576001600160a01b03821660009081526006602090815260408083204290556007825280832054815160608101909252603b8083526123ca936001600160601b0390921692869290919061425c90830139612dc2565b6001600160a01b038416600090815260076020526040902080546bffffffffffffffffffffffff19169055905061240183826135c5565b5061248e565b6001600160a01b038216600090815260076020908152604091829020548251608081019093526046808452612452936001600160601b0390921692859291906143af90830139612dc2565b6001600160a01b038316600090815260076020526040902080546bffffffffffffffffffffffff19166001600160601b03929092169190911790555b5050565b6002546040805163ca6860df60e01b81526001600160a01b03868116600483015291516000938493169163ca6860df916024808301926020929190829003018186803b1580156124e157600080fd5b505afa1580156124f5573d6000803e3d6000fd5b505050506040513d602081101561250b57600080fd5b50511561251d575060009050806127eb565b6001600160a01b0380861660009081526005602090815260408083209388168352929052908120549063ffffffff851661256f576001600160a01b03861660009081526004602052604090205461257a565b61257a828787613868565b6001600160a01b03871660009081526004602052604090205490915082106125a9576000935091506127eb9050565b60008080845b848110156127e0576125bf613f0b565b506001600160a01b03808b16600090815260036020908152604080832085845282528083208151608081018352905463ffffffff8082168352600160201b8204168285018190526001600160601b03600160401b8304811684860152600160a01b909204909116606083015260025483516372ec979560e01b815260048101929092529251919592909216926372ec97959260248082019391829003018186803b15801561266c57600080fd5b505afa158015612680573d6000803e3d6000fd5b505050506040513d602081101561269657600080fd5b505190506000858214156126ab575083612774565b600260009054906101000a90046001600160a01b03166001600160a01b03166337e6b1c18f600186600001510386602001516040518463ffffffff1660e01b815260040180846001600160a01b03166001600160a01b031681526020018363ffffffff1681526020018263ffffffff168152602001935050505060206040518083038186803b15801561273d57600080fd5b505afa158015612751573d6000803e3d6000fd5b505050506040513d602081101561276757600080fd5b5051919550909350849050835b60006127bc84604001516001600160601b03166127b0846001600160601b031687606001516001600160601b031661392790919063ffffffff16565b9063ffffffff61398016565b90506127ce888263ffffffff6122ed16565b975050600190930192506125af915050565b509195509193505050505b935093915050565b604080516001600160a01b038416602482015260448082018490528251808303909101815260649091019091526020810180516001600160e01b031663a9059cbb60e01b17905261165e9084906139c2565b6000813f7fc5d2460186f7233c927e7db2dcc703c0e500b653ca82273b7bfad8045d85a47081811480159061287957508115155b949350505050565b600061288d8383613b7a565b6128d95750600182810180548083018083556000928352602080842090920180546001600160a01b0319166001600160a01b038716908117909155835290859052604090912055610c30565b506000610c30565b600061234783836040518060400160405280601e81526020017f536166654d6174683a207375627472616374696f6e206f766572666c6f770000815250613b98565b6000806000806000806000803390506000600160009054906101000a90046001600160a01b03166001600160a01b031663afe840096040518163ffffffff1660e01b815260040160206040518083038186803b15801561298257600080fd5b505afa158015612996573d6000803e3d6000fd5b505050506040513d60208110156129ac57600080fd5b5051905060006129bb82613bf2565b90506001600160a01b038b166129cf57339a505b6129d9838d6133b6565b939e50939c50909a50985090965094508815612a3d576001600160a01b038316600090815260056020526040808220905189929080602161438e823960408051918290036021019091206001600160a01b0316835260208301939093525001600020555b8915612ac1576001600160a01b038084166000908152600560209081526040808320938616808452939091528082208990558051632e1a7d4d60e01b8152600481018e90529051632e1a7d4d9260248084019391929182900301818387803b158015612aa857600080fd5b505af1158015612abc573d6000803e3d6000fd5b505050505b8715612b66576001600160a01b0380841660009081526005602090815260408083209385168084529382528083208990558051630141abc160e21b8152306004820152602481018d9052604481018490529051630506af0493606480840194938390030190829087803b158015612b3757600080fd5b505af1158015612b4b573d6000803e3d6000fd5b505050506040513d6020811015612b6157600080fd5b505193505b6000612b7c856122608c8e63ffffffff6122ed16565b905060008111612bbd5760405162461bcd60e51b815260040180806020018281038252603b81526020018061454a603b913960400191505060405180910390fd5b6040516000906001600160a01b038e169083908381818185875af1925050503d8060008114612c08576040519150601f19603f3d011682016040523d82523d6000602084013e612c0d565b606091505b5050905080612c4d5760405162461bcd60e51b815260040180806020018281038252603481526020018061402d6034913960400191505060405180910390fd5b8c6001600160a01b0316856001600160a01b03167fba7771603337d6821ea291d76396cf6aa3ea405141b033d8415280139c980c1d846040518082815260200191505060405180910390a35050505050505050505050505050565b60005b815181101561248e57612cdb828281518110612cc357fe5b60200260200101516009613b7a90919063ffffffff16565b612d20576040805162461bcd60e51b815260206004820152601160248201527024b73b30b634b21021b7b73b32b93a32b960791b604482015290519081900360640190fd5b600101612cab565b600081600160601b8410612dba5760405162461bcd60e51b81526004018080602001828103825283818151815260200191508051906020019080838360005b83811015612d7f578181015183820152602001612d67565b50505050905090810190601f168015612dac5780820380516001836020036101000a031916815260200191505b509250505060405180910390fd5b509192915050565b6000838301826001600160601b038087169083161015612e235760405162461bcd60e51b8152602060048201818152835160248401528351909283926044909101919085019080838360008315612d7f578181015183820152602001612d67565b50949350505050565b3390565b6000612e3c8383613b7a565b156128d9576001600160a01b03821660009081526020849052604090205460018401546000199182019101808214612ee7576000856001018281548110612e7f57fe5b6000918252602090912001546001870180546001600160a01b039092169250829185908110612eaa57fe5b600091825260208083209190910180546001600160a01b0319166001600160a01b0394851617905592909116815290869052604090206001830190555b6001600160a01b03841660009081526020869052604081205560018501805480612f0d57fe5b600082815260209020810160001990810180546001600160a01b03191690550190555060019150610c309050565b60008263ffffffff1611612f805760405162461bcd60e51b81526004018080602001828103825260418152602001806142b86041913960600191505060405180910390fd5b6001546040805163afe8400960e01b815290516000926001600160a01b03169163afe84009916004808301926020929190829003018186803b158015612fc557600080fd5b505afa158015612fd9573d6000803e3d6000fd5b505050506040513d6020811015612fef57600080fd5b505190506000612ffe82613bf2565b9050336001600160a01b038416613013573393505b600080613021838989612492565b915091508160001415613128576001600160a01b038084166000908152600560209081526040808320938c16835292905220548111156130f1576001600160a01b038381166000908152600560209081526040808320938c1680845293825291829020548251908152908101849052815133927fd3d8b561a0f93295b4ea7e2b930d36bd7f1a38774547bf98fb66540f588217b2928290030190a36001600160a01b039283166000908152600560209081526040808320958b16835294905292909220919091555061165e915050565b60405162461bcd60e51b815260040180806020018281038252603b815260200180613f9a603b913960400191505060405180910390fd5b6001600160a01b0380841660009081526005602090815260408083208c8516808552925290912083905590851614156131ea5760408051630141abc160e21b81526001600160a01b038881166004830152602482018590526000604483018190529251908b1692630506af0492606480820193602093909283900390910190829087803b1580156131b857600080fd5b505af11580156131cc573d6000803e3d6000fd5b505050506040513d60208110156131e257600080fd5b506132b19050565b876001600160a01b031663a9059cbb87846040518363ffffffff1660e01b815260040180836001600160a01b03166001600160a01b0316815260200182815260200192505050602060405180830381600087803b15801561324a57600080fd5b505af115801561325e573d6000803e3d6000fd5b505050506040513d602081101561327457600080fd5b50516132b15760405162461bcd60e51b81526004018080602001828103825260308152602001806144b66030913960400191505060405180910390fd5b876001600160a01b0316866001600160a01b0316336001600160a01b03167fe635adc5d0c2d7b47215ce5ed57a79c3db183a1ef414ccfc43f24f19178a630f856040518082815260200191505060405180910390a45050505050505050565b6060808260010180549050604051908082528060200260200182016040528015613344578160200160208202803883390190505b50905060005b60018401548110156133af5783600101818154811061336557fe5b9060005260206000200160009054906101000a90046001600160a01b031682828151811061338f57fe5b6001600160a01b039092166020928302919091019091015260010161334a565b5092915050565b6000806000806000806000600160009054906101000a90046001600160a01b03166001600160a01b031663afe840096040518163ffffffff1660e01b815260040160206040518083038186803b15801561340f57600080fd5b505afa158015613423573d6000803e3d6000fd5b505050506040513d602081101561343957600080fd5b50519050600061344882613bf2565b905061346e8a604051808061438e6021913960405190819003602101902090508b612492565b909850945061347e8a838b612492565b909750935061348e8a828b612492565b8094508197505050613517670de0b6b3a76400006127b0836001600160a01b0316637ff9b5966040518163ffffffff1660e01b815260040160206040518083038186803b1580156134de57600080fd5b505afa1580156134f2573d6000803e3d6000fd5b505050506040513d602081101561350857600080fd5b5051899063ffffffff61392716565b955050509295509295509295565b6001600160a01b03811661356a5760405162461bcd60e51b8152600401808060200182810382526026815260200180613fd56026913960400191505060405180910390fd5b600080546040516001600160a01b03808516939216917f8be0079c531659141344cd1fd0a4f28419497f9722a3daafe3b4186f6b6457e091a3600080546001600160a01b0319166001600160a01b0392909216919091179055565b60006135e9436040518060800160405280604381526020016141da60439139613cb4565b9050600061360f4260405180608001604052806046815260200161431a60469139613cb4565b6001600160a01b038516600090815260046020526040812054919250613639600019850142613d09565b90506000816001600160601b031611613699576040805162461bcd60e51b815260206004820152601a60248201527f496e76616c696420746f74616c57656967687465645374616b65000000000000604482015290519081900360640190fd5b6000821180156136d857506001600160a01b03861660009081526003602090815260408083206000198601845290915290205463ffffffff8581169116145b15613747576001600160a01b03868116600090815260036020908152604080832060001987018452909152902080546001600160601b03888116600160a01b02908516600160401b026bffffffffffffffffffffffff60401b1990921691909117909216919091179055613817565b6040805160808101825263ffffffff868116825285811660208084019182526001600160601b038681168587019081528b8216606087019081526001600160a01b038e81166000818152600387528a81208d825287528a812099518a5498519551945163ffffffff19909916908a161767ffffffff000000001916600160201b9590991694909402979097176bffffffffffffffffffffffff60401b1916600160401b928516929092029190911716600160a01b9490921693909302179093559081526004909152206001830190555b604080516001600160601b038716815290516001600160a01b0388169133917ff61a5f2f4d0b2d871d5bf18717d08a6b0f543afa7e08dad5df1fea150f7296329181900360200190a3505050505050565b6001600160a01b03821660009081526004602052604081205480613890576000915050612347565b6000198101600063ffffffff85166138a95750816138e6565b6138d38563ffffffff1688016040518060600160405280603f815260200161421d603f9139613cb4565b63ffffffff169050828111156138e65750815b6001600160a01b038616600090815260036020908152604080832085845290915290205463ffffffff164381141561391c578291505b509695505050505050565b60008261393657506000610c30565b8282028284828161394357fe5b04146123475760405162461bcd60e51b81526004018080602001828103825260218152602001806142976021913960400191505060405180910390fd5b600061234783836040518060400160405280601a81526020017f536166654d6174683a206469766973696f6e206279207a65726f000000000000815250613e41565b6139d4826001600160a01b0316612845565b613a25576040805162461bcd60e51b815260206004820152601f60248201527f5361666545524332303a2063616c6c20746f206e6f6e2d636f6e747261637400604482015290519081900360640190fd5b60006060836001600160a01b0316836040518082805190602001908083835b60208310613a635780518252601f199092019160209182019101613a44565b6001836020036101000a0380198251168184511680821785525050505050509050019150506000604051808303816000865af19150503d8060008114613ac5576040519150601f19603f3d011682016040523d82523d6000602084013e613aca565b606091505b509150915081613b21576040805162461bcd60e51b815260206004820181905260248201527f5361666545524332303a206c6f772d6c6576656c2063616c6c206661696c6564604482015290519081900360640190fd5b805115610dde57808060200190516020811015613b3d57600080fd5b5051610dde5760405162461bcd60e51b815260040180806020018281038252602a8152602001806144e6602a913960400191505060405180910390fd5b6001600160a01b031660009081526020919091526040902054151590565b60008184841115613bea5760405162461bcd60e51b8152602060048201818152835160248401528351909283926044909101919085019080838360008315612d7f578181015183820152602001612d67565b505050900390565b600154604080516310c59ce360e11b81526001600160a01b03848116600483015291516000938493169163218b39c6916024808301926020929190829003018186803b158015613c4157600080fd5b505afa158015613c55573d6000803e3d6000fd5b505050506040513d6020811015613c6b57600080fd5b505190506001600160a01b038116610c305760405162461bcd60e51b815260040180806020018281038252603381526020018061444b6033913960400191505060405180910390fd5b600081600160201b8410612dba5760405162461bcd60e51b8152602060048201818152835160248401528351909283926044909101919085019080838360008315612d7f578181015183820152602001612d67565b6002546040805163cdbe715560e01b815263ffffffff8516600482015260248101849052905160009283926001600160a01b039091169163cdbe715591604480820192602092909190829003018186803b158015613d6657600080fd5b505afa158015613d7a573d6000803e3d6000fd5b505050506040513d6020811015613d9057600080fd5b5051600254604080516312916bdd60e11b815263ffffffff881660048201526024810187905290519293506001600160a01b0390911691632522d7ba91604480820192602092909190829003018186803b158015613ded57600080fd5b505afa158015613e01573d6000803e3d6000fd5b505050506040513d6020811015613e1757600080fd5b50516040805160808101909152605680825291935061287991849184916143f56020830139613ea6565b60008183613e905760405162461bcd60e51b8152602060048201818152835160248401528351909283926044909101919085019080838360008315612d7f578181015183820152602001612d67565b506000838581613e9c57fe5b0495945050505050565b6000836001600160601b0316836001600160601b031611158290613bea5760405162461bcd60e51b8152602060048201818152835160248401528351909283926044909101919085019080838360008315612d7f578181015183820152602001612d67565b6040805160808101825260008082526020820181905291810182905260608101919091529056fe46656553686172696e67436f6c6c6563746f723a3a7472616e73666572546f6b656e733a20696e76616c696420616d6f756e7446656553686172696e67436f6c6c6563746f723a3a7472616e73666572546f6b656e733a20696e76616c6964206164647265737346656553686172696e67436f6c6c6563746f723a3a7769746864726177466565733a206e6f20746f6b656e7320666f72207769746864726177616c4f776e61626c653a206e6577206f776e657220697320746865207a65726f20616464726573735f66726f6d436865636b706f696e742073686f756c64206265203c3d20746f74616c546f6b656e436865636b706f696e747346656553686172696e67436f6c6c6563746f723a3a7769746864726177524254433a205769746864726177616c206661696c656446656553686172696e67436f6c6c6563746f723a3a7769746864726177466565733a20777262746320746f6b656e20616d6f756e742065786365656473203936206269747346656553686172696e67436f6c6c6563746f723a3a776974686472617746656573414d4d3a20746f74616c20777262746320746f6b656e20616d6f756e742065786365656473203936206269747346656553686172696e67436f6c6c6563746f723a3a776974686472617746656573414d4d3a20777262746320746f6b656e20616d6f756e742065786365656473203936206269747355736572207765696768746564207374616b652073686f756c64206265203e203020617420205f66726f6d436865636b706f696e7446656553686172696e67436f6c6c6563746f723a3a7472616e73666572524254433a20696e76616c69642076616c756555736572207765696768746564207374616b652073686f756c64206265207a65726f2061742070726576696f757320636865636b706f696e7446656553686172696e67436f6c6c6563746f723a3a5f7772697465436865636b706f696e743a20626c6f636b206e756d6265722065786365656473203332206269747346656553686172696e67436f6c6c6563746f723a3a77697468647261773a20636865636b706f696e7420696e6465782065786365656473203332206269747346656553686172696e67436f6c6c6563746f723a3a5f616464436865636b706f696e743a20616d6f756e7420657863656564732039362062697473536166654d6174683a206d756c7469706c69636174696f6e206f766572666c6f7746656553686172696e67436f6c6c6563746f723a3a77697468647261773a205f6d6178436865636b706f696e74732073686f756c6420626520706f7369746976655f66726f6d436865636b706f696e7420706172616d206d757374206265203e203146656553686172696e67436f6c6c6563746f723a3a5f7772697465436865636b706f696e743a20626c6f636b2074696d657374616d70206578636565647320333220626974735374616b696e673a3a7472616e73666572546f6b656e733a20746f6b656e207472616e73666572206661696c6564524254435f44554d4d595f414444524553535f464f525f434845434b504f494e5446656553686172696e67436f6c6c6563746f723a3a5f616464436865636b706f696e743a20756e70726f636573736564416d6f756e742065786365656473203936206269747346656553686172696e67436f6c6c6563746f723a3a5f676574546f74616c566f6c756e7461727957656967687465645374616b653a20766573746564207374616b65206578636565647320746f74616c207374616b6546656553686172696e67436f6c6c6563746f723a3a77697468647261773a206c6f616e207752425443206e6f7420666f756e645f66726f6d436865636b706f696e7420706172616d206d757374206265203e207573657250726f636573736564436865636b706f696e747346656553686172696e67436f6c6c6563746f723a3a77697468647261773a207769746864726177616c206661696c65645361666545524332303a204552433230206f7065726174696f6e20646964206e6f74207375636365656446656553686172696e67436f6c6c6563746f723a3a7769746864726177466565733a20746f6b656e206973206e6f74206120636f6e747261637446656553686172696e67436f6c6c6563746f723a3a7769746864726177466565733a206e6f207262746320666f722061207769746864726177616ca265627a7a7231582046ab37e7c389e71e0ba0017f9985190229c311818e853c9d90cdfd11ac41854c64736f6c63430005110032",
  "devdoc": {
    "methods": {
      "addWhitelistedConverterAddress(address)": {
        "details": "Whitelisting converter address.",
        "params": {
          "converterAddress": "converter address to be whitelisted."
        }
      },
      "getAccumulatedFees(address,address)": {
        "params": {
          "_token": "RBTC dummy to fit into existing data structure or SOV. Former address of the pool token.",
          "_user": "The address of the user or contract."
        },
        "return": "The accumulated fee for the message sender."
      },
      "getAccumulatedRBTCFeeBalances(address)": {
        "details": "view function that calculate the total RBTC that includes: - RBTC - WRBTC - iWRBTC * iWRBTC.tokenPrice()",
        "params": {
          "_user": "address of the user."
        },
        "return": "rbtc balance of the given user's address."
      },
      "getNextPositiveUserCheckpoint(address,address,uint256,uint256)": {
        "details": "Returns first user's checkpoint with weighted stake > 0",
        "params": {
          "_maxCheckpoints": "Max checkpoints to process in a row to avoid timeout error",
          "_startFrom": "Checkpoint number to start from. If _startFrom < processedUserCheckpoints then starts from processedUserCheckpoints.",
          "_token": "RBTC dummy to fit into existing data structure or SOV. Former address of the pool token.",
          "_user": "The address of the user or contract."
        },
        "return": "[checkpointNum: checkpoint number where user's weighted stake > 0, hasSkippedCheckpoints, hasFees]"
      },
      "getWhitelistedConverterList()": {
        "return": "All of the whitelisted converter list."
      },
      "isOwner()": {
        "details": "Returns true if the caller is the current owner."
      },
      "numTokenCheckpoints(address)": {
        "details": "This getter function `numTokenCheckpoints` is added for backwards compatibility     broken when renamed `numTokenCheckpoints` storage variable to `totalTokenCheckpoints`.",
        "params": {
          "_token": "token address to get checkpoints for"
        },
        "return": "Total token checkpoints"
      },
      "owner()": {
        "details": "Returns the address of the current owner."
      },
      "removeWhitelistedConverterAddress(address)": {
        "details": "Removing converter address from whitelist.",
        "params": {
          "converterAddress": "converter address to be removed from whitelist."
        }
      },
      "transferOwnership(address)": {
        "details": "Transfers ownership of the contract to a new account (`newOwner`). Can only be called by the current owner."
      },
      "transferRBTC()": {
        "details": "We just write checkpoint here (based on the rbtc value that is sent) in a separate methods in order to prevent adding checkpoints too often."
      },
      "transferTokens(address,uint96)": {
        "details": "We just update amount of tokens here and write checkpoint in a separate methods in order to prevent adding checkpoints too often.",
        "params": {
          "_amount": "Amount to be transferred.",
          "_token": "Address of the token."
        }
      },
      "withdraw(address,uint32,address)": {
        "params": {
          "_maxCheckpoints": "Maximum number of checkpoints to be processed. Must be positive value.",
          "_receiver": "The receiver of tokens or msg.sender",
          "_token": "RBTC dummy to fit into existing data structure or SOV. Former address of the pool token."
        }
      },
      "withdrawFees(address[])": {
        "params": {
          "_tokens": "array address of the token"
        }
      },
      "withdrawFeesAMM(address[])": {
        "params": {
          "_converters": "array addresses of the converters"
        }
      },
      "withdrawRBTC(uint32,address)": {
        "details": "withdraw all of the RBTC balance based on particular checkpoints     * RBTC balance consists of: - rbtc balance - wrbtc balance which will be unwrapped to rbtc - iwrbtc balance which will be unwrapped to rbtc",
        "params": {
          "_maxCheckpoints": "Maximum number of checkpoints to be processed to workaround block gas limit",
          "_receiver": "An optional tokens receiver (msg.sender used if 0)"
        }
      },
      "withdrawRBTCStartingFromCheckpoint(uint256,uint32,address)": {
        "details": "Withdraw all of the RBTC balance based starting from a specific checkpoint The function was designed to skip checkpoints with no fees for users     * RBTC balance consists of: - rbtc balance - wrbtc balance which will be unwrapped to rbtc - iwrbtc balance which will be unwrapped to rbtcWARNING! This function skips all the checkpoints before '_fromCheckpoint' irreversibly, use with care",
        "params": {
          "_fromCheckpoint": "Skips all the checkpoints before '_fromCheckpoint'       should be calculated offchain with getNextPositiveUserCheckpoint function",
          "_maxCheckpoints": "Maximum number of checkpoints to be processed to workaround block gas limit",
          "_receiver": "An optional tokens receiver (msg.sender used if 0)"
        }
      },
      "withdrawStartingFromCheckpoint(address,uint256,uint32,address)": {
        "details": "WARNING! This function skips all the checkpoints before '_fromCheckpoint' irreversibly, use with care",
        "params": {
          "_fromCheckpoint": "Skips all the checkpoints before '_fromCheckpoint'       should be calculated offchain with getNextPositiveUserCheckpoint function",
          "_maxCheckpoints": "Maximum number of checkpoints to be processed.",
          "_receiver": "The receiver of tokens or msg.sender",
          "_token": "RBTC dummy to fit into existing data structure or SOV. Former address of the pool token."
        }
      }
    },
    "title": "The FeeSharingCollector contract."
  },
  "userdoc": {
    "methods": {
      "getAccumulatedFees(address,address)": {
        "notice": "Get the accumulated loan pool fee of the message sender."
      },
      "getWhitelistedConverterList()": {
        "notice": "Getter to query all of the whitelisted converter."
      },
      "transferRBTC()": {
        "notice": "Transfer RBTC / native tokens to this contract."
      },
      "transferTokens(address,uint96)": {
        "notice": "Transfer tokens to this contract."
      },
      "withdraw(address,uint32,address)": {
        "notice": "Withdraw accumulated fee to the message sender.     * The Sovryn protocol collects fees on every trade/swap and loan. These fees will be distributed to SOV stakers based on their voting power as a percentage of total voting power. Therefore, staking more SOV and/or staking for longer will increase your share of the fees generated, meaning you will earn more from staking.     * This function will directly burnToBTC and use the msg.sender (user) as the receiver"
      },
      "withdrawFees(address[])": {
        "notice": "Withdraw fees for the given token: lendingFee + tradingFee + borrowingFee the fees (except SOV) will be converted in wRBTC form, and then will be transferred to wRBTC loan pool. For SOV, it will be directly deposited into the feeSharingCollector from the protocol."
      },
      "withdrawFeesAMM(address[])": {
        "notice": "Withdraw amm fees for the given converter addresses: protocolFee from the conversion the fees will be converted in wRBTC form, and then will be transferred to wRBTC loan pool"
      },
      "withdrawStartingFromCheckpoint(address,uint256,uint32,address)": {
        "notice": "Withdraw accumulated fee to the message sender/receiver.     * The Sovryn protocol collects fees on every trade/swap and loan. These fees will be distributed to SOV stakers based on their voting power as a percentage of total voting power.     * This function will directly burnToBTC and use the msg.sender (user) as the receiver"
      }
    },
    "notice": "This contract withdraws fees to be paid to SOV Stakers from the protocol. Stakers call withdraw() to get their share of the fees.Staking is not only granting voting rights, but also access to fee sharing according to the own voting power in relation to the total. Whenever somebody decides to collect the fees from the protocol, they get transferred to a proxy contract which invests the funds in the lending pool and keeps the pool tokens. * The fee sharing proxy will be set as feesController of the protocol contract. This allows the fee sharing proxy to withdraw the fees. The fee sharing proxy holds the pool tokens and keeps track of which user owns how many tokens. In order to know how many tokens a user owns, the fee sharing proxy needs to know the users weighted stake in relation to the total weighted stake (aka total voting power). * Because both values are subject to change, they may be different on each fee withdrawal. To be able to calculate a users share of tokens when he wants to withdraw, we need checkpoints. * This contract is intended to be set as the protocol fee collector. Anybody can invoke the withdrawFees function which uses protocol.withdrawFees to obtain available fees from operations on a certain token. These fees are deposited in the corresponding loanPool. Also, the staking contract sends slashed tokens to this contract. When a user calls the withdraw function, the contract transfers the fee sharing rewards in proportion to the users weighted stake since the last withdrawal. * The protocol initially collects fees in all tokens. Then the FeeSharingCollector wihtdraws fees from the protocol. When the fees are withdrawn all the tokens except SOV will be converted to wRBTC and then transferred to wRBTC loan pool. For SOV, it will be directly deposited into the feeSharingCollector from the protocol."
  },
  "storageLayout": {
    "storage": [
      {
        "astId": 53267,
        "contract": "contracts/governance/FeeSharingCollector/FeeSharingCollector.sol:FeeSharingCollector",
        "label": "_owner",
        "offset": 0,
        "slot": "0",
        "type": "t_address"
      },
      {
        "astId": 14400,
        "contract": "contracts/governance/FeeSharingCollector/FeeSharingCollector.sol:FeeSharingCollector",
        "label": "protocol",
        "offset": 0,
        "slot": "1",
        "type": "t_contract(IProtocol)14494"
      },
      {
        "astId": 14402,
        "contract": "contracts/governance/FeeSharingCollector/FeeSharingCollector.sol:FeeSharingCollector",
        "label": "staking",
        "offset": 0,
        "slot": "2",
        "type": "t_contract(IStaking)16833"
      },
      {
        "astId": 14408,
        "contract": "contracts/governance/FeeSharingCollector/FeeSharingCollector.sol:FeeSharingCollector",
        "label": "tokenCheckpoints",
        "offset": 0,
        "slot": "3",
        "type": "t_mapping(t_address,t_mapping(t_uint256,t_struct(Checkpoint)14435_storage))"
      },
      {
        "astId": 14412,
        "contract": "contracts/governance/FeeSharingCollector/FeeSharingCollector.sol:FeeSharingCollector",
        "label": "totalTokenCheckpoints",
        "offset": 0,
        "slot": "4",
        "type": "t_mapping(t_address,t_uint256)"
      },
      {
        "astId": 14418,
        "contract": "contracts/governance/FeeSharingCollector/FeeSharingCollector.sol:FeeSharingCollector",
        "label": "processedCheckpoints",
        "offset": 0,
        "slot": "5",
        "type": "t_mapping(t_address,t_mapping(t_address,t_uint256))"
      },
      {
        "astId": 14422,
        "contract": "contracts/governance/FeeSharingCollector/FeeSharingCollector.sol:FeeSharingCollector",
        "label": "lastFeeWithdrawalTime",
        "offset": 0,
        "slot": "6",
        "type": "t_mapping(t_address,t_uint256)"
      },
      {
        "astId": 14426,
        "contract": "contracts/governance/FeeSharingCollector/FeeSharingCollector.sol:FeeSharingCollector",
        "label": "unprocessedAmount",
        "offset": 0,
        "slot": "7",
        "type": "t_mapping(t_address,t_uint96)"
      },
      {
        "astId": 14444,
        "contract": "contracts/governance/FeeSharingCollector/FeeSharingCollector.sol:FeeSharingCollector",
        "label": "reentrancyLock",
        "offset": 0,
        "slot": "8",
        "type": "t_uint256"
      },
      {
        "astId": 14446,
        "contract": "contracts/governance/FeeSharingCollector/FeeSharingCollector.sol:FeeSharingCollector",
        "label": "whitelistedConverterList",
        "offset": 0,
        "slot": "9",
        "type": "t_struct(AddressSet)34867_storage"
      }
    ],
    "types": {
      "t_address": {
        "encoding": "inplace",
        "label": "address",
        "numberOfBytes": "20"
      },
      "t_array(t_address)dyn_storage": {
        "base": "t_address",
        "encoding": "dynamic_array",
        "label": "address[]",
        "numberOfBytes": "32"
      },
      "t_contract(IProtocol)14494": {
        "encoding": "inplace",
        "label": "contract IProtocol",
        "numberOfBytes": "20"
      },
      "t_contract(IStaking)16833": {
        "encoding": "inplace",
        "label": "contract IStaking",
        "numberOfBytes": "20"
      },
      "t_mapping(t_address,t_mapping(t_address,t_uint256))": {
        "encoding": "mapping",
        "key": "t_address",
        "label": "mapping(address => mapping(address => uint256))",
        "numberOfBytes": "32",
        "value": "t_mapping(t_address,t_uint256)"
      },
      "t_mapping(t_address,t_mapping(t_uint256,t_struct(Checkpoint)14435_storage))": {
        "encoding": "mapping",
        "key": "t_address",
        "label": "mapping(address => mapping(uint256 => struct FeeSharingCollectorStorage.Checkpoint))",
        "numberOfBytes": "32",
        "value": "t_mapping(t_uint256,t_struct(Checkpoint)14435_storage)"
      },
      "t_mapping(t_address,t_uint256)": {
        "encoding": "mapping",
        "key": "t_address",
        "label": "mapping(address => uint256)",
        "numberOfBytes": "32",
        "value": "t_uint256"
      },
      "t_mapping(t_address,t_uint96)": {
        "encoding": "mapping",
        "key": "t_address",
        "label": "mapping(address => uint96)",
        "numberOfBytes": "32",
        "value": "t_uint96"
      },
      "t_mapping(t_uint256,t_struct(Checkpoint)14435_storage)": {
        "encoding": "mapping",
        "key": "t_uint256",
        "label": "mapping(uint256 => struct FeeSharingCollectorStorage.Checkpoint)",
        "numberOfBytes": "32",
        "value": "t_struct(Checkpoint)14435_storage"
      },
      "t_struct(AddressSet)34867_storage": {
        "encoding": "inplace",
        "label": "struct EnumerableAddressSet.AddressSet",
        "members": [
          {
            "astId": 34863,
            "contract": "contracts/governance/FeeSharingCollector/FeeSharingCollector.sol:FeeSharingCollector",
            "label": "index",
            "offset": 0,
            "slot": "0",
            "type": "t_mapping(t_address,t_uint256)"
          },
          {
            "astId": 34866,
            "contract": "contracts/governance/FeeSharingCollector/FeeSharingCollector.sol:FeeSharingCollector",
            "label": "values",
            "offset": 0,
            "slot": "1",
            "type": "t_array(t_address)dyn_storage"
          }
        ],
        "numberOfBytes": "64"
      },
      "t_struct(Checkpoint)14435_storage": {
        "encoding": "inplace",
        "label": "struct FeeSharingCollectorStorage.Checkpoint",
        "members": [
          {
            "astId": 14428,
            "contract": "contracts/governance/FeeSharingCollector/FeeSharingCollector.sol:FeeSharingCollector",
            "label": "blockNumber",
            "offset": 0,
            "slot": "0",
            "type": "t_uint32"
          },
          {
            "astId": 14430,
            "contract": "contracts/governance/FeeSharingCollector/FeeSharingCollector.sol:FeeSharingCollector",
            "label": "timestamp",
            "offset": 4,
            "slot": "0",
            "type": "t_uint32"
          },
          {
            "astId": 14432,
            "contract": "contracts/governance/FeeSharingCollector/FeeSharingCollector.sol:FeeSharingCollector",
            "label": "totalWeightedStake",
            "offset": 8,
            "slot": "0",
            "type": "t_uint96"
          },
          {
            "astId": 14434,
            "contract": "contracts/governance/FeeSharingCollector/FeeSharingCollector.sol:FeeSharingCollector",
            "label": "numTokens",
            "offset": 20,
            "slot": "0",
            "type": "t_uint96"
          }
        ],
        "numberOfBytes": "32"
      },
      "t_uint256": {
        "encoding": "inplace",
        "label": "uint256",
        "numberOfBytes": "32"
      },
      "t_uint32": {
        "encoding": "inplace",
        "label": "uint32",
        "numberOfBytes": "4"
      },
      "t_uint96": {
        "encoding": "inplace",
        "label": "uint96",
        "numberOfBytes": "12"
      }
    }
  }
}