{
  "address": "0xedD92fb7C556E4A4faf8c4f5A90f471aDCD018f4",
  "abi": [
    {
      "anonymous": false,
      "inputs": [
        {
          "indexed": true,
          "internalType": "address",
          "name": "sender",
          "type": "address"
        },
        {
          "indexed": true,
          "internalType": "address",
          "name": "token",
          "type": "address"
        },
        {
          "indexed": false,
          "internalType": "uint256",
          "name": "amount",
          "type": "uint256"
        }
      ],
      "name": "CheckpointAdded",
      "type": "event"
    },
    {
      "anonymous": false,
      "inputs": [
        {
          "indexed": true,
          "internalType": "address",
          "name": "sender",
          "type": "address"
        },
        {
          "indexed": true,
          "internalType": "address",
          "name": "converter",
          "type": "address"
        },
        {
          "indexed": false,
          "internalType": "uint256",
          "name": "amount",
          "type": "uint256"
        }
      ],
      "name": "FeeAMMWithdrawn",
      "type": "event"
    },
    {
      "anonymous": false,
      "inputs": [
        {
          "indexed": true,
          "internalType": "address",
          "name": "sender",
          "type": "address"
        },
        {
          "indexed": false,
          "internalType": "uint256",
          "name": "amount",
          "type": "uint256"
        }
      ],
      "name": "FeeWithdrawnInRBTC",
      "type": "event"
    },
    {
      "anonymous": false,
      "inputs": [
        {
          "indexed": true,
          "internalType": "address",
          "name": "previousOwner",
          "type": "address"
        },
        {
          "indexed": true,
          "internalType": "address",
          "name": "newOwner",
          "type": "address"
        }
      ],
      "name": "OwnershipTransferred",
      "type": "event"
    },
    {
      "anonymous": false,
      "inputs": [
        {
          "indexed": true,
          "internalType": "address",
          "name": "sender",
          "type": "address"
        },
        {
          "indexed": true,
          "internalType": "address",
          "name": "receiver",
          "type": "address"
        },
        {
          "indexed": false,
          "internalType": "uint256",
          "name": "amount",
          "type": "uint256"
        }
      ],
      "name": "RBTCWithdrawn",
      "type": "event"
    },
    {
      "anonymous": false,
      "inputs": [
        {
          "indexed": true,
          "internalType": "address",
          "name": "sender",
          "type": "address"
        },
        {
          "indexed": true,
          "internalType": "address",
          "name": "token",
          "type": "address"
        },
        {
          "indexed": false,
          "internalType": "uint256",
          "name": "amount",
          "type": "uint256"
        }
      ],
      "name": "TokensTransferred",
      "type": "event"
    },
    {
      "anonymous": false,
      "inputs": [
        {
          "indexed": true,
          "internalType": "address",
          "name": "sender",
          "type": "address"
        },
        {
          "indexed": false,
          "internalType": "address",
          "name": "converter",
          "type": "address"
        }
      ],
      "name": "UnwhitelistedConverter",
      "type": "event"
    },
    {
      "anonymous": false,
      "inputs": [
        {
          "indexed": true,
          "internalType": "address",
          "name": "sender",
          "type": "address"
        },
        {
          "indexed": true,
          "internalType": "address",
          "name": "token",
          "type": "address"
        },
        {
          "indexed": false,
          "internalType": "uint256",
          "name": "prevProcessedCheckpoints",
          "type": "uint256"
        },
        {
          "indexed": false,
          "internalType": "uint256",
          "name": "newProcessedCheckpoints",
          "type": "uint256"
        }
      ],
      "name": "UserFeeProcessedNoWithdraw",
      "type": "event"
    },
    {
      "anonymous": false,
      "inputs": [
        {
          "indexed": true,
          "internalType": "address",
          "name": "sender",
          "type": "address"
        },
        {
          "indexed": true,
          "internalType": "address",
          "name": "receiver",
          "type": "address"
        },
        {
          "indexed": true,
          "internalType": "address",
          "name": "token",
          "type": "address"
        },
        {
          "indexed": false,
          "internalType": "uint256",
          "name": "amount",
          "type": "uint256"
        }
      ],
      "name": "UserFeeWithdrawn",
      "type": "event"
    },
    {
      "anonymous": false,
      "inputs": [
        {
          "indexed": true,
          "internalType": "address",
          "name": "sender",
          "type": "address"
        },
        {
          "indexed": false,
          "internalType": "address",
          "name": "converter",
          "type": "address"
        }
      ],
      "name": "WhitelistedConverter",
      "type": "event"
    },
    {
      "payable": true,
      "stateMutability": "payable",
      "type": "fallback"
    },
    {
      "constant": true,
      "inputs": [],
      "name": "RBTC_DUMMY_ADDRESS_FOR_CHECKPOINT",
      "outputs": [
        {
          "internalType": "address",
          "name": "",
          "type": "address"
        }
      ],
      "payable": false,
      "stateMutability": "view",
      "type": "function"
    },
    {
      "constant": false,
      "inputs": [
        {
          "internalType": "address",
          "name": "converterAddress",
          "type": "address"
        }
      ],
      "name": "addWhitelistedConverterAddress",
      "outputs": [],
      "payable": false,
      "stateMutability": "nonpayable",
      "type": "function"
    },
    {
      "constant": true,
      "inputs": [
        {
          "internalType": "address",
          "name": "_user",
          "type": "address"
        },
        {
          "internalType": "address",
          "name": "_token",
          "type": "address"
        }
      ],
      "name": "getAccumulatedFees",
      "outputs": [
        {
          "internalType": "uint256",
          "name": "",
          "type": "uint256"
        }
      ],
      "payable": false,
      "stateMutability": "view",
      "type": "function"
    },
    {
      "constant": true,
      "inputs": [
        {
          "internalType": "address",
          "name": "_user",
          "type": "address"
        },
        {
          "internalType": "address",
          "name": "_token",
          "type": "address"
        },
        {
          "internalType": "uint256",
          "name": "_startFrom",
          "type": "uint256"
        },
        {
          "internalType": "uint32",
          "name": "_maxCheckpoints",
          "type": "uint32"
        }
      ],
      "name": "getAccumulatedFeesForCheckpointsRange",
      "outputs": [
        {
          "internalType": "uint256",
          "name": "",
          "type": "uint256"
        }
      ],
      "payable": false,
      "stateMutability": "view",
      "type": "function"
    },
    {
      "constant": true,
      "inputs": [
        {
          "internalType": "address",
          "name": "_user",
          "type": "address"
        }
      ],
      "name": "getAccumulatedRBTCFeeBalances",
      "outputs": [
        {
          "internalType": "uint256",
          "name": "",
          "type": "uint256"
        }
      ],
      "payable": false,
      "stateMutability": "view",
      "type": "function"
    },
    {
      "constant": true,
      "inputs": [
        {
          "internalType": "address",
          "name": "_user",
          "type": "address"
        },
        {
          "internalType": "address",
          "name": "_token",
          "type": "address"
        },
        {
          "internalType": "uint256",
          "name": "_startFrom",
          "type": "uint256"
        },
        {
          "internalType": "uint256",
          "name": "_maxCheckpoints",
          "type": "uint256"
        }
      ],
      "name": "getNextPositiveUserCheckpoint",
      "outputs": [
        {
          "internalType": "uint256",
          "name": "checkpointNum",
          "type": "uint256"
        },
        {
          "internalType": "bool",
          "name": "hasSkippedCheckpoints",
          "type": "bool"
        },
        {
          "internalType": "bool",
          "name": "hasFees",
          "type": "bool"
        }
      ],
      "payable": false,
      "stateMutability": "view",
      "type": "function"
    },
    {
      "constant": true,
      "inputs": [],
      "name": "getWhitelistedConverterList",
      "outputs": [
        {
          "internalType": "address[]",
          "name": "converterList",
          "type": "address[]"
        }
      ],
      "payable": false,
      "stateMutability": "view",
      "type": "function"
    },
    {
      "constant": true,
      "inputs": [],
      "name": "isOwner",
      "outputs": [
        {
          "internalType": "bool",
          "name": "",
          "type": "bool"
        }
      ],
      "payable": false,
      "stateMutability": "view",
      "type": "function"
    },
    {
      "constant": true,
      "inputs": [
        {
          "internalType": "address",
          "name": "",
          "type": "address"
        }
      ],
      "name": "lastFeeWithdrawalTime",
      "outputs": [
        {
          "internalType": "uint256",
          "name": "",
          "type": "uint256"
        }
      ],
      "payable": false,
      "stateMutability": "view",
      "type": "function"
    },
    {
      "constant": true,
      "inputs": [
        {
          "internalType": "address",
          "name": "_token",
          "type": "address"
        }
      ],
      "name": "numTokenCheckpoints",
      "outputs": [
        {
          "internalType": "uint256",
          "name": "",
          "type": "uint256"
        }
      ],
      "payable": false,
      "stateMutability": "view",
      "type": "function"
    },
    {
      "constant": true,
      "inputs": [],
      "name": "owner",
      "outputs": [
        {
          "internalType": "address",
          "name": "",
          "type": "address"
        }
      ],
      "payable": false,
      "stateMutability": "view",
      "type": "function"
    },
    {
      "constant": true,
      "inputs": [
        {
          "internalType": "address",
          "name": "",
          "type": "address"
        },
        {
          "internalType": "address",
          "name": "",
          "type": "address"
        }
      ],
      "name": "processedCheckpoints",
      "outputs": [
        {
          "internalType": "uint256",
          "name": "",
          "type": "uint256"
        }
      ],
      "payable": false,
      "stateMutability": "view",
      "type": "function"
    },
    {
      "constant": true,
      "inputs": [],
      "name": "protocol",
      "outputs": [
        {
          "internalType": "contract IProtocol",
          "name": "",
          "type": "address"
        }
      ],
      "payable": false,
      "stateMutability": "view",
      "type": "function"
    },
    {
      "constant": false,
      "inputs": [
        {
          "internalType": "address",
          "name": "converterAddress",
          "type": "address"
        }
      ],
      "name": "removeWhitelistedConverterAddress",
      "outputs": [],
      "payable": false,
      "stateMutability": "nonpayable",
      "type": "function"
    },
    {
      "constant": true,
      "inputs": [],
      "name": "staking",
      "outputs": [
        {
          "internalType": "contract IStaking",
          "name": "",
          "type": "address"
        }
      ],
      "payable": false,
      "stateMutability": "view",
      "type": "function"
    },
    {
      "constant": true,
      "inputs": [
        {
          "internalType": "address",
          "name": "",
          "type": "address"
        },
        {
          "internalType": "uint256",
          "name": "",
          "type": "uint256"
        }
      ],
      "name": "tokenCheckpoints",
      "outputs": [
        {
          "internalType": "uint32",
          "name": "blockNumber",
          "type": "uint32"
        },
        {
          "internalType": "uint32",
          "name": "timestamp",
          "type": "uint32"
        },
        {
          "internalType": "uint96",
          "name": "totalWeightedStake",
          "type": "uint96"
        },
        {
          "internalType": "uint96",
          "name": "numTokens",
          "type": "uint96"
        }
      ],
      "payable": false,
      "stateMutability": "view",
      "type": "function"
    },
    {
      "constant": true,
      "inputs": [
        {
          "internalType": "address",
          "name": "",
          "type": "address"
        }
      ],
      "name": "totalTokenCheckpoints",
      "outputs": [
        {
          "internalType": "uint256",
          "name": "",
          "type": "uint256"
        }
      ],
      "payable": false,
      "stateMutability": "view",
      "type": "function"
    },
    {
      "constant": false,
      "inputs": [
        {
          "internalType": "address",
          "name": "newOwner",
          "type": "address"
        }
      ],
      "name": "transferOwnership",
      "outputs": [],
      "payable": false,
      "stateMutability": "nonpayable",
      "type": "function"
    },
    {
      "constant": false,
      "inputs": [],
      "name": "transferRBTC",
      "outputs": [],
      "payable": true,
      "stateMutability": "payable",
      "type": "function"
    },
    {
      "constant": false,
      "inputs": [
        {
          "internalType": "address",
          "name": "_token",
          "type": "address"
        },
        {
          "internalType": "uint96",
          "name": "_amount",
          "type": "uint96"
        }
      ],
      "name": "transferTokens",
      "outputs": [],
      "payable": false,
      "stateMutability": "nonpayable",
      "type": "function"
    },
    {
      "constant": true,
      "inputs": [
        {
          "internalType": "address",
          "name": "",
          "type": "address"
        }
      ],
      "name": "unprocessedAmount",
      "outputs": [
        {
          "internalType": "uint96",
          "name": "",
          "type": "uint96"
        }
      ],
      "payable": false,
      "stateMutability": "view",
      "type": "function"
    },
    {
      "constant": false,
      "inputs": [
        {
          "internalType": "address",
          "name": "_token",
          "type": "address"
        },
        {
          "internalType": "uint32",
          "name": "_maxCheckpoints",
          "type": "uint32"
        },
        {
          "internalType": "address",
          "name": "_receiver",
          "type": "address"
        }
      ],
      "name": "withdraw",
      "outputs": [],
      "payable": false,
      "stateMutability": "nonpayable",
      "type": "function"
    },
    {
      "constant": false,
      "inputs": [
        {
          "internalType": "address[]",
          "name": "_tokens",
          "type": "address[]"
        }
      ],
      "name": "withdrawFees",
      "outputs": [],
      "payable": false,
      "stateMutability": "nonpayable",
      "type": "function"
    },
    {
      "constant": false,
      "inputs": [
        {
          "internalType": "address[]",
          "name": "_converters",
          "type": "address[]"
        }
      ],
      "name": "withdrawFeesAMM",
      "outputs": [],
      "payable": false,
      "stateMutability": "nonpayable",
      "type": "function"
    },
    {
      "constant": false,
      "inputs": [
        {
          "internalType": "uint32",
          "name": "_maxCheckpoints",
          "type": "uint32"
        },
        {
          "internalType": "address",
          "name": "_receiver",
          "type": "address"
        }
      ],
      "name": "withdrawRBTC",
      "outputs": [],
      "payable": false,
      "stateMutability": "nonpayable",
      "type": "function"
    },
    {
      "constant": false,
      "inputs": [
        {
          "internalType": "uint256",
          "name": "_fromCheckpoint",
          "type": "uint256"
        },
        {
          "internalType": "uint32",
          "name": "_maxCheckpoints",
          "type": "uint32"
        },
        {
          "internalType": "address",
          "name": "_receiver",
          "type": "address"
        }
      ],
      "name": "withdrawRBTCStartingFromCheckpoint",
      "outputs": [],
      "payable": false,
      "stateMutability": "nonpayable",
      "type": "function"
    },
    {
      "constant": false,
      "inputs": [
        {
          "internalType": "address",
          "name": "_token",
          "type": "address"
        },
        {
          "internalType": "uint256",
          "name": "_fromCheckpoint",
          "type": "uint256"
        },
        {
          "internalType": "uint32",
          "name": "_maxCheckpoints",
          "type": "uint32"
        },
        {
          "internalType": "address",
          "name": "_receiver",
          "type": "address"
        }
      ],
      "name": "withdrawStartingFromCheckpoint",
      "outputs": [],
      "payable": false,
      "stateMutability": "nonpayable",
      "type": "function"
    },
    {
      "constant": false,
      "inputs": [
        {
          "internalType": "address",
          "name": "receiver",
          "type": "address"
        },
        {
          "internalType": "uint256",
          "name": "wrbtcAmount",
          "type": "uint256"
        }
      ],
      "name": "withdrawWRBTC",
      "outputs": [],
      "payable": false,
      "stateMutability": "nonpayable",
      "type": "function"
    }
  ],
  "numDeployments": 7,
  "bytecode": "0x6080604052600160085560006200001e6001600160e01b036200006e16565b600080546001600160a01b0319166001600160a01b0383169081178255604051929350917f8be0079c531659141344cd1fd0a4f28419497f9722a3daafe3b4186f6b6457e0908290a35062000072565b3390565b6146ec80620000826000396000f3fe6080604052600436106101b75760003560e01c80638da5cb5b116100ec578063abe979e11161008a578063c3f0eaee11610064578063c3f0eaee146107fa578063f2962cda1461084a578063f2fde38b1461087d578063f3bdba8f146108b0576101b7565b8063abe979e114610720578063adcf21a714610762578063c3040447146107c7576101b7565b8063a4955f2a116100c6578063a4955f2a146105dc578063a697b8c71461060f578063a93365191461068a578063a965b3a9146106d7576101b7565b80638da5cb5b1461055f5780638f32d59b14610574578063988ba5931461059d576101b7565b80637061acf3116101595780637c8678ec116101335780637c8678ec146104385780637d0ce2b2146104e65780638b6fdcba146104fb5780638ce744261461054a576101b7565b80637061acf3146103855780637104c4ff146103b85780637913b451146103fd576101b7565b80633d67df6f116101955780633d67df6f1461026f5780634cf088d9146102aa5780635c4d9b12146102db5780637053001714610314576101b7565b80631345946c146101b9578063200202081461022257806322a6fd9514610267575b005b3480156101c557600080fd5b50610202600480360360808110156101dc57600080fd5b506001600160a01b038135811691602081013590911690604081013590606001356108e3565b604080519384529115156020840152151582820152519081900360600190f35b34801561022e57600080fd5b506102556004803603602081101561024557600080fd5b50356001600160a01b0316610bbf565b60408051918252519081900360200190f35b6101b7610bda565b34801561027b57600080fd5b506102556004803603604081101561029257600080fd5b506001600160a01b0381358116916020013516610c87565b3480156102b657600080fd5b506102bf610ca1565b604080516001600160a01b039092168252519081900360200190f35b3480156102e757600080fd5b506101b7600480360360408110156102fe57600080fd5b506001600160a01b038135169060200135610cb0565b34801561032057600080fd5b5061034d6004803603604081101561033757600080fd5b506001600160a01b038135169060200135610e4f565b6040805163ffffffff95861681529390941660208401526001600160601b039182168385015216606082015290519081900360800190f35b34801561039157600080fd5b506101b7600480360360208110156103a857600080fd5b50356001600160a01b0316610e9a565b3480156103c457600080fd5b506101b7600480360360608110156103db57600080fd5b50803590602081013563ffffffff1690604001356001600160a01b0316610f90565b34801561040957600080fd5b506102556004803603604081101561042057600080fd5b506001600160a01b038135811691602001351661143d565b34801561044457600080fd5b506101b76004803603602081101561045b57600080fd5b810190602081018135600160201b81111561047557600080fd5b82018360208201111561048757600080fd5b803590602001918460208302840111600160201b831117156104a857600080fd5b91908080602002602001604051908101604052809392919081815260200183836020028082843760009201919091525092955061145a945050505050565b3480156104f257600080fd5b506102bf6116ce565b34801561050757600080fd5b5061052e6004803603602081101561051e57600080fd5b50356001600160a01b03166116ea565b604080516001600160601b039092168252519081900360200190f35b34801561055657600080fd5b506102bf611705565b34801561056b57600080fd5b506102bf611714565b34801561058057600080fd5b50610589611723565b604080519115158252519081900360200190f35b3480156105a957600080fd5b506101b7600480360360408110156105c057600080fd5b50803563ffffffff1690602001356001600160a01b0316611747565b3480156105e857600080fd5b506101b7600480360360208110156105ff57600080fd5b50356001600160a01b03166117a5565b34801561061b57600080fd5b506101b76004803603602081101561063257600080fd5b810190602081018135600160201b81111561064c57600080fd5b82018360208201111561065e57600080fd5b803590602001918460208302840111600160201b8311171561067f57600080fd5b509092509050611841565b34801561069657600080fd5b506101b7600480360360808110156106ad57600080fd5b506001600160a01b03813581169160208101359163ffffffff604083013516916060013516611ac9565b3480156106e357600080fd5b506101b7600480360360608110156106fa57600080fd5b506001600160a01b03813581169163ffffffff6020820135169160409091013516611f6e565b34801561072c57600080fd5b506101b76004803603604081101561074357600080fd5b5080356001600160a01b031690602001356001600160601b0316611fce565b34801561076e57600080fd5b50610777612288565b60408051602080825283518183015283519192839290830191858101910280838360005b838110156107b357818101518382015260200161079b565b505050509050019250505060405180910390f35b3480156107d357600080fd5b50610255600480360360208110156107ea57600080fd5b50356001600160a01b0316612299565b34801561080657600080fd5b506102556004803603608081101561081d57600080fd5b5080356001600160a01b03908116916020810135909116906040810135906060013563ffffffff166123fb565b34801561085657600080fd5b506102556004803603602081101561086d57600080fd5b50356001600160a01b0316612415565b34801561088957600080fd5b506101b7600480360360208110156108a057600080fd5b50356001600160a01b0316612427565b3480156108bc57600080fd5b50610255600480360360208110156108d357600080fd5b50356001600160a01b031661247b565b6002546040805163ca6860df60e01b81526001600160a01b03878116600483015291516000938493849391169163ca6860df91602480820192602092909190829003018186803b15801561093657600080fd5b505afa15801561094a573d6000803e3d6000fd5b505050506040513d602081101561096057600080fd5b50511561097557506000915081905080610bb5565b600084116109ca576040805162461bcd60e51b815260206004820152601b60248201527f5f6d6178436865636b706f696e7473206d757374206265203e20300000000000604482015290519081900360640190fd5b6001600160a01b03808716600081815260046020908152604080832054948c1683526005825280832093835292905220548181101580610a08575081155b15610a1c5750925060009150819050610bb5565b6000818811610a2b5781610a2d565b875b90506000610a41828963ffffffff61248d16565b9050838110610a4d5750825b815b81811015610ba7576000600360008d6001600160a01b03166001600160a01b03168152602001908152602001600020600083815260200190815260200160002090506000600260009054906101000a90046001600160a01b03166001600160a01b03166337e6b1c18f60018560000160009054906101000a900463ffffffff16038560000160049054906101000a900463ffffffff166040518463ffffffff1660e01b815260040180846001600160a01b03166001600160a01b031681526020018363ffffffff1681526020018263ffffffff168152602001935050505060206040518083038186803b158015610b4557600080fd5b505afa158015610b59573d6000803e3d6000fd5b505050506040513d6020811015610b6f57600080fd5b505190506001600160601b03811615610b9d5782600101868411600199509950995050505050505050610bb5565b5050600101610a4f565b509550508411925060009150505b9450945094915050565b6001600160a01b031660009081526004602052604090205490565b346001600160601b038116610c205760405162461bcd60e51b81526004018080602001828103825260308152602001806142a46030913960400191505060405180910390fd5b610c4360405180806144c1602191396040519081900360210190209050826124ee565b604080516001600160601b0383168152905160009133917f1b89874203ff7f0bba87c969ada3f32fda22ed38a6706d35199d21280c7811b19181900360200190a350565b600080610c9684846000612632565b509150505b92915050565b6002546001600160a01b031681565b610cb8611723565b610cf8576040805162461bcd60e51b815260206004820152600c60248201526b1d5b985d5d1a1bdc9a5e995960a21b604482015290519081900360640190fd5b6001546040805163afe8400960e01b815290516000926001600160a01b03169163afe84009916004808301926020929190829003018186803b158015610d3d57600080fd5b505afa158015610d51573d6000803e3d6000fd5b505050506040513d6020811015610d6757600080fd5b5051604080516370a0823160e01b815230600482015290519192506000916001600160a01b038416916370a08231916024808301926020929190829003018186803b158015610db557600080fd5b505afa158015610dc9573d6000803e3d6000fd5b505050506040513d6020811015610ddf57600080fd5b5051905080831115610e2f576040805162461bcd60e51b8152602060048201526014602482015273496e73756666696369656e742062616c616e636560601b604482015290519081900360640190fd5b610e496001600160a01b038316858563ffffffff61264e16565b50505050565b600360209081526000928352604080842090915290825290205463ffffffff80821691600160201b8104909116906001600160601b03600160401b8204811691600160a01b90041684565b610ea2611723565b610ee2576040805162461bcd60e51b815260206004820152600c60248201526b1d5b985d5d1a1bdc9a5e995960a21b604482015290519081900360640190fd5b610eeb816126a0565b610f3c576040805162461bcd60e51b815260206004820152601a60248201527f4e6f6e20636f6e7472616374206164647265737320676976656e000000000000604482015290519081900360640190fd5b610f4d60098263ffffffff6126dc16565b50604080516001600160a01b0383168152905133917fe7902ff5b883e069d72db554511b4f7122428c996decf30682b312a66879668a919081900360200190a250565b823360405180806144c160219139604051908190036021019020905060018311610feb5760405162461bcd60e51b815260040180806020018281038252602181526020018061442c6021913960400191505060405180910390fd5b6001600160a01b0380831660009081526005602090815260408083209385168352929052205460001984019084116110545760405162461bcd60e51b81526004018080602001828103825260388152602001806145b16038913960400191505060405180910390fd5b6001600160a01b0382166000908152600460205260409020548411156110ab5760405162461bcd60e51b815260040180806020018281038252603281526020018061412e6032913960400191505060405180910390fd5b6110b361403e565b506001600160a01b03808316600090815260036020908152604080832060001980870185529083528184208251608081018452905463ffffffff808216808452600160201b830482168488018190526001600160601b03600160401b8504811686890152600160a01b909404909316606085015260025486516337e6b1c160e01b81528d8b16600482015291909501909116602482015260448101919091529251909591909116926337e6b1c19260648082019391829003018186803b15801561117c57600080fd5b505afa158015611190573d6000803e3d6000fd5b505050506040513d60208110156111a657600080fd5b505190506001600160601b038116156111f05760405162461bcd60e51b81526004018080602001828103825260398152602001806142d46039913960400191505060405180910390fd5b6111f861403e565b506001600160a01b0380851660009081526003602090815260408083208784528252918290208251608081018452905463ffffffff808216808452600160201b830482168486018190526001600160601b03600160401b8504811686890152600160a01b909404909316606085015260025486516337e6b1c160e01b81528d89166004820152600019909201909216602482015260448101929092529351919493909316926337e6b1c1926064808301939192829003018186803b1580156112bf57600080fd5b505afa1580156112d3573d6000803e3d6000fd5b505050506040513d60208110156112e957600080fd5b505191506001600160601b0382166113325760405162461bcd60e51b815260040180806020018281038252603581526020018061426f6035913960400191505060405180910390fd5b600160085414611378576040805162461bcd60e51b815260206004820152600c60248201526b1b9bdb9499595b9d1c985b9d60a21b604482015290519081900360640190fd5b600260085560006113908b600163ffffffff61273c16565b336000908152600560205260408082209051929350918060216144c1823960408051918290036021019091206001600160a01b031683526020830193909352500160002054811115611421573360009081526005602052604080822090518392908060216144c1823960408051918290036021019091206001600160a01b0316835260208301939093525001600020555b61142b8a8a61277e565b50506001600855505050505050505050565b600560209081526000928352604080842090915290825290205481565b6001546040805163afe8400960e01b815290516000926001600160a01b03169163afe84009916004808301926020929190829003018186803b15801561149f57600080fd5b505afa1580156114b3573d6000803e3d6000fd5b505050506040513d60208110156114c957600080fd5b505190506114d682612b03565b6000805b83518110156116965760008482815181106114f157fe5b60200260200101516001600160a01b031663164e68de306040518263ffffffff1660e01b815260040180826001600160a01b03166001600160a01b03168152602001915050602060405180830381600087803b15801561155057600080fd5b505af1158015611564573d6000803e3d6000fd5b505050506040513d602081101561157a57600080fd5b50519050801561168d57836001600160a01b0316632e1a7d4d826040518263ffffffff1660e01b815260040180828152602001915050600060405180830381600087803b1580156115ca57600080fd5b505af11580156115de573d6000803e3d6000fd5b5050505060006116068260405180608001604052806048815260200161422760489139612b83565b905061162b84826040518060800160405280604e81526020016141d9604e9139612c1d565b935085838151811061163957fe5b60200260200101516001600160a01b0316336001600160a01b03167fd915b7f9d8d5ce11af1f5961b830d7d7c01a750927706eb0bcbf80a8827d76cc846040518082815260200191505060405180910390a3505b506001016114da565b506001600160601b038116156116c9576116c960405180806144c1602191396040519081900360210190209050826124ee565b505050565b6040518060216144c18239604051908190036021019020905081565b6007602052600090815260409020546001600160601b031681565b6001546001600160a01b031681565b6000546001600160a01b031690565b600080546001600160a01b0316611738612c87565b6001600160a01b031614905090565b60016008541461178d576040805162461bcd60e51b815260206004820152600c60248201526b1b9bdb9499595b9d1c985b9d60a21b604482015290519081900360640190fd5b600260085561179c828261277e565b50506001600855565b6117ad611723565b6117ed576040805162461bcd60e51b815260206004820152600c60248201526b1d5b985d5d1a1bdc9a5e995960a21b604482015290519081900360640190fd5b6117fe60098263ffffffff612c8b16565b50604080516001600160a01b0383168152905133917f7b8bddb144d9ebd8a4fa3f47acac7c75b34ade822d5e528a442825fa9100ffdb919081900360200190a250565b60005b818110156118b35761187083838381811061185b57fe5b905060200201356001600160a01b03166126a0565b6118ab5760405162461bcd60e51b815260040180806020018281038252603a815260200180614643603a913960400191505060405180910390fd5b600101611844565b5060015460408051630f7e7aab60e41b8152306024820181905260048201928352604482018590526000936001600160a01b03169263f7e7aab0928792879290918190606401856020860280828437600081840152601f19601f820116905080830192505050945050505050602060405180830381600087803b15801561193957600080fd5b505af115801561194d573d6000803e3d6000fd5b505050506040513d602081101561196357600080fd5b50516001546040805163afe8400960e01b815290519293506000926001600160a01b039092169163afe8400991600480820192602092909190829003018186803b1580156119b057600080fd5b505afa1580156119c4573d6000803e3d6000fd5b505050506040513d60208110156119da57600080fd5b505190508115611a8d57806001600160a01b0316632e1a7d4d836040518263ffffffff1660e01b815260040180828152602001915050600060405180830381600087803b158015611a2a57600080fd5b505af1158015611a3e573d6000803e3d6000fd5b505050506000611a668360405180608001604052806045815260200161419460459139612b83565b9050611a8b60405180806144c1602191396040519081900360210190209050826124ee565b505b60408051838152905133917fea588ee3c471f3c47a77b5d118007e77b1d74e5b310a8805df274aa067d2e8a6919081900360200190a250505050565b82338560018311611b0b5760405162461bcd60e51b815260040180806020018281038252602181526020018061442c6021913960400191505060405180910390fd5b6001600160a01b038083166000908152600560209081526040808320938516835292905220546000198401908411611b745760405162461bcd60e51b81526004018080602001828103825260388152602001806145b16038913960400191505060405180910390fd5b6001600160a01b038216600090815260046020526040902054841115611bcb5760405162461bcd60e51b815260040180806020018281038252603281526020018061412e6032913960400191505060405180910390fd5b611bd361403e565b506001600160a01b03808316600090815260036020908152604080832060001980870185529083528184208251608081018452905463ffffffff808216808452600160201b830482168488018190526001600160601b03600160401b8504811686890152600160a01b909404909316606085015260025486516337e6b1c160e01b81528d8b16600482015291909501909116602482015260448101919091529251909591909116926337e6b1c19260648082019391829003018186803b158015611c9c57600080fd5b505afa158015611cb0573d6000803e3d6000fd5b505050506040513d6020811015611cc657600080fd5b505190506001600160601b03811615611d105760405162461bcd60e51b81526004018080602001828103825260398152602001806142d46039913960400191505060405180910390fd5b611d1861403e565b506001600160a01b0380851660009081526003602090815260408083208784528252918290208251608081018452905463ffffffff808216808452600160201b830482168486018190526001600160601b03600160401b8504811686890152600160a01b909404909316606085015260025486516337e6b1c160e01b81528d89166004820152600019909201909216602482015260448101929092529351919493909316926337e6b1c1926064808301939192829003018186803b158015611ddf57600080fd5b505afa158015611df3573d6000803e3d6000fd5b505050506040513d6020811015611e0957600080fd5b505191506001600160601b038216611e525760405162461bcd60e51b815260040180806020018281038252603581526020018061426f6035913960400191505060405180910390fd5b600160085414611e98576040805162461bcd60e51b815260206004820152600c60248201526b1b9bdb9499595b9d1c985b9d60a21b604482015290519081900360640190fd5b60026008556000611eb08b600163ffffffff61273c16565b905060056000336001600160a01b03166001600160a01b0316815260200190815260200160002060008d6001600160a01b03166001600160a01b0316815260200190815260200160002054811115611f50578060056000336001600160a01b03166001600160a01b0316815260200190815260200160002060008e6001600160a01b03166001600160a01b03168152602001908152602001600020819055505b611f5b8c8b8b612d96565b5050600160085550505050505050505050565b600160085414611fb4576040805162461bcd60e51b815260206004820152600c60248201526b1b9bdb9499595b9d1c985b9d60a21b604482015290519081900360640190fd5b6002600855611fc4838383612d96565b5050600160085550565b6001600160a01b0382166120135760405162461bcd60e51b81526004018080602001828103825260348152602001806140996034913960400191505060405180910390fd5b6000816001600160601b03161161205b5760405162461bcd60e51b81526004018080602001828103825260338152602001806140666033913960400191505060405180910390fd5b604080516323b872dd60e01b81523360048201523060248201526001600160601b038316604482015290516000916001600160a01b038516916323b872dd9160648082019260209290919082900301818787803b1580156120bb57600080fd5b505af11580156120cf573d6000803e3d6000fd5b505050506040513d60208110156120e557600080fd5b50519050806121255760405162461bcd60e51b815260040180806020018281038252602e815260200180614493602e913960400191505060405180910390fd5b6001546040805163afe8400960e01b815290516000926001600160a01b03169163afe84009916004808301926020929190829003018186803b15801561216a57600080fd5b505afa15801561217e573d6000803e3d6000fd5b505050506040513d602081101561219457600080fd5b505190506001600160a01b03848116908216141561222f57806001600160a01b0316632e1a7d4d846040518263ffffffff1660e01b815260040180826001600160601b03168152602001915050600060405180830381600087803b1580156121fb57600080fd5b505af115801561220f573d6000803e3d6000fd5b5050505060405180806144c1602191396040519081900360210190209450505b61223984846124ee565b604080516001600160601b038516815290516001600160a01b0386169133917f1b89874203ff7f0bba87c969ada3f32fda22ed38a6706d35199d21280c7811b19181900360200190a350505050565b6060612294600961316b565b905090565b6000806000806122aa856000613211565b5050509250925092506000600160009054906101000a90046001600160a01b03166001600160a01b031663afe840096040518163ffffffff1660e01b815260040160206040518083038186803b15801561230357600080fd5b505afa158015612317573d6000803e3d6000fd5b505050506040513d602081101561232d57600080fd5b50519050600061233c826132fd565b905060006123cd670de0b6b3a76400006123c1846001600160a01b0316637ff9b5966040518163ffffffff1660e01b815260040160206040518083038186803b15801561238857600080fd5b505afa15801561239c573d6000803e3d6000fd5b505050506040513d60208110156123b257600080fd5b5051879063ffffffff6133bf16565b9063ffffffff61341816565b90506123ef816123e3888863ffffffff61248d16565b9063ffffffff61248d16565b98975050505050505050565b60008061240a8686868661345a565b509695505050505050565b60046020526000908152604090205481565b61242f611723565b61246f576040805162461bcd60e51b815260206004820152600c60248201526b1d5b985d5d1a1bdc9a5e995960a21b604482015290519081900360640190fd5b612478816137bd565b50565b60066020526000908152604090205481565b6000828201838110156124e7576040805162461bcd60e51b815260206004820152601b60248201527f536166654d6174683a206164646974696f6e206f766572666c6f770000000000604482015290519081900360640190fd5b9392505050565b6001600160a01b038216600090815260066020526040902054620151804291909103106125a7576001600160a01b03821660009081526006602090815260408083204290556007825280832054815160608101909252603b80835261256a936001600160601b0390921692869290919061438f90830139612c1d565b6001600160a01b038416600090815260076020526040902080546bffffffffffffffffffffffff1916905590506125a1838261385d565b5061262e565b6001600160a01b0382166000908152600760209081526040918290205482516080810190935260468084526125f2936001600160601b0390921692859291906144e290830139612c1d565b6001600160a01b038316600090815260076020526040902080546bffffffffffffffffffffffff19166001600160601b03929092169190911790555b5050565b600080612642858560008661345a565b91509150935093915050565b604080516001600160a01b038416602482015260448082018490528251808303909101815260649091019091526020810180516001600160e01b031663a9059cbb60e01b1790526116c9908490613b00565b6000813f7fc5d2460186f7233c927e7db2dcc703c0e500b653ca82273b7bfad8045d85a4708181148015906126d457508115155b949350505050565b60006126e88383613cb8565b6127345750600182810180548083018083556000928352602080842090920180546001600160a01b0319166001600160a01b038716908117909155835290859052604090912055610c9b565b506000610c9b565b60006124e783836040518060400160405280601e81526020017f536166654d6174683a207375627472616374696f6e206f766572666c6f770000815250613cd6565b6000806000806000806000803390506000600160009054906101000a90046001600160a01b03166001600160a01b031663afe840096040518163ffffffff1660e01b815260040160206040518083038186803b1580156127dd57600080fd5b505afa1580156127f1573d6000803e3d6000fd5b505050506040513d602081101561280757600080fd5b505190506000612816826132fd565b90506001600160a01b038b1661282a57339a505b612834838d613211565b939e50939c50909a50985090965094508815612898576001600160a01b03831660009081526005602052604080822090518992908060216144c1823960408051918290036021019091206001600160a01b0316835260208301939093525001600020555b891561291c576001600160a01b038084166000908152600560209081526040808320938616808452939091528082208990558051632e1a7d4d60e01b8152600481018e90529051632e1a7d4d9260248084019391929182900301818387803b15801561290357600080fd5b505af1158015612917573d6000803e3d6000fd5b505050505b87156129c1576001600160a01b0380841660009081526005602090815260408083209385168084529382528083208990558051630141abc160e21b8152306004820152602481018d9052604481018490529051630506af0493606480840194938390030190829087803b15801561299257600080fd5b505af11580156129a6573d6000803e3d6000fd5b505050506040513d60208110156129bc57600080fd5b505193505b60006129d7856123e38c8e63ffffffff61248d16565b905060008111612a185760405162461bcd60e51b815260040180806020018281038252603b81526020018061467d603b913960400191505060405180910390fd5b6040516000906001600160a01b038e169083908381818185875af1925050503d8060008114612a63576040519150601f19603f3d011682016040523d82523d6000602084013e612a68565b606091505b5050905080612aa85760405162461bcd60e51b81526004018080602001828103825260348152602001806141606034913960400191505060405180910390fd5b8c6001600160a01b0316856001600160a01b03167fba7771603337d6821ea291d76396cf6aa3ea405141b033d8415280139c980c1d846040518082815260200191505060405180910390a35050505050505050505050505050565b60005b815181101561262e57612b36828281518110612b1e57fe5b60200260200101516009613cb890919063ffffffff16565b612b7b576040805162461bcd60e51b815260206004820152601160248201527024b73b30b634b21021b7b73b32b93a32b960791b604482015290519081900360640190fd5b600101612b06565b600081600160601b8410612c155760405162461bcd60e51b81526004018080602001828103825283818151815260200191508051906020019080838360005b83811015612bda578181015183820152602001612bc2565b50505050905090810190601f168015612c075780820380516001836020036101000a031916815260200191505b509250505060405180910390fd5b509192915050565b6000838301826001600160601b038087169083161015612c7e5760405162461bcd60e51b8152602060048201818152835160248401528351909283926044909101919085019080838360008315612bda578181015183820152602001612bc2565b50949350505050565b3390565b6000612c978383613cb8565b15612734576001600160a01b03821660009081526020849052604090205460018401546000199182019101808214612d42576000856001018281548110612cda57fe5b6000918252602090912001546001870180546001600160a01b039092169250829185908110612d0557fe5b600091825260208083209190910180546001600160a01b0319166001600160a01b0394851617905592909116815290869052604090206001830190555b6001600160a01b03841660009081526020869052604081205560018501805480612d6857fe5b600082815260209020810160001990810180546001600160a01b03191690550190555060019150610c9b9050565b60008263ffffffff1611612ddb5760405162461bcd60e51b81526004018080602001828103825260418152602001806143eb6041913960600191505060405180910390fd5b6001546040805163afe8400960e01b815290516000926001600160a01b03169163afe84009916004808301926020929190829003018186803b158015612e2057600080fd5b505afa158015612e34573d6000803e3d6000fd5b505050506040513d6020811015612e4a57600080fd5b505190506000612e59826132fd565b9050336001600160a01b038416612e6e573393505b600080612e7c838989612632565b915091508160001415612f83576001600160a01b038084166000908152600560209081526040808320938c1683529290522054811115612f4c576001600160a01b038381166000908152600560209081526040808320938c1680845293825291829020548251908152908101849052815133927fd3d8b561a0f93295b4ea7e2b930d36bd7f1a38774547bf98fb66540f588217b2928290030190a36001600160a01b039283166000908152600560209081526040808320958b1683529490529290922091909155506116c9915050565b60405162461bcd60e51b815260040180806020018281038252603b8152602001806140cd603b913960400191505060405180910390fd5b6001600160a01b0380841660009081526005602090815260408083208c8516808552925290912083905590851614156130455760408051630141abc160e21b81526001600160a01b038881166004830152602482018590526000604483018190529251908b1692630506af0492606480820193602093909283900390910190829087803b15801561301357600080fd5b505af1158015613027573d6000803e3d6000fd5b505050506040513d602081101561303d57600080fd5b5061310c9050565b876001600160a01b031663a9059cbb87846040518363ffffffff1660e01b815260040180836001600160a01b03166001600160a01b0316815260200182815260200192505050602060405180830381600087803b1580156130a557600080fd5b505af11580156130b9573d6000803e3d6000fd5b505050506040513d60208110156130cf57600080fd5b505161310c5760405162461bcd60e51b81526004018080602001828103825260308152602001806145e96030913960400191505060405180910390fd5b876001600160a01b0316866001600160a01b0316336001600160a01b03167fe635adc5d0c2d7b47215ce5ed57a79c3db183a1ef414ccfc43f24f19178a630f856040518082815260200191505060405180910390a45050505050505050565b606080826001018054905060405190808252806020026020018201604052801561319f578160200160208202803883390190505b50905060005b600184015481101561320a578360010181815481106131c057fe5b9060005260206000200160009054906101000a90046001600160a01b03168282815181106131ea57fe5b6001600160a01b03909216602092830291909101909101526001016131a5565b5092915050565b6000806000806000806000600160009054906101000a90046001600160a01b03166001600160a01b031663afe840096040518163ffffffff1660e01b815260040160206040518083038186803b15801561326a57600080fd5b505afa15801561327e573d6000803e3d6000fd5b505050506040513d602081101561329457600080fd5b5051905060006132a3826132fd565b90506132c98a60405180806144c16021913960405190819003602101902090508b612632565b90985094506132d98a838b612632565b90975093506132e98a828b612632565b809450819750505050509295509295509295565b600154604080516310c59ce360e11b81526001600160a01b03848116600483015291516000938493169163218b39c6916024808301926020929190829003018186803b15801561334c57600080fd5b505afa158015613360573d6000803e3d6000fd5b505050506040513d602081101561337657600080fd5b505190506001600160a01b038116610c9b5760405162461bcd60e51b815260040180806020018281038252603381526020018061457e6033913960400191505060405180910390fd5b6000826133ce57506000610c9b565b828202828482816133db57fe5b04146124e75760405162461bcd60e51b81526004018080602001828103825260218152602001806143ca6021913960400191505060405180910390fd5b60006124e783836040518060400160405280601a81526020017f536166654d6174683a206469766973696f6e206279207a65726f000000000000815250613d30565b6002546040805163ca6860df60e01b81526001600160a01b03878116600483015291516000938493169163ca6860df916024808301926020929190829003018186803b1580156134a957600080fd5b505afa1580156134bd573d6000803e3d6000fd5b505050506040513d60208110156134d357600080fd5b5051156134e5575060009050806137b4565b6001600160a01b0380871660009081526005602090815260408083209389168352929052908120549081861161351b578161351d565b855b905060008563ffffffff161161354b576001600160a01b038716600090815260046020526040902054613556565b613556818887613d95565b6001600160a01b03881660009081526004602052604090205490935081106135845750600092506137b49050565b600080825b858110156137ae5761359961403e565b506001600160a01b03808b16600090815260036020908152604080832085845282528083208151608081018352905463ffffffff8082168352600160201b8204168285018190526001600160601b03600160401b8304811684860152600160a01b909204909116606083015260025483516372ec979560e01b815260048101929092529251919592909216926372ec97959260248082019391829003018186803b15801561364657600080fd5b505afa15801561365a573d6000803e3d6000fd5b505050506040513d602081101561367057600080fd5b5051905060008582141561368557508361374e565b600260009054906101000a90046001600160a01b03166001600160a01b03166337e6b1c18f600186600001510386602001516040518463ffffffff1660e01b815260040180846001600160a01b03166001600160a01b031681526020018363ffffffff1681526020018263ffffffff168152602001935050505060206040518083038186803b15801561371757600080fd5b505afa15801561372b573d6000803e3d6000fd5b505050506040513d602081101561374157600080fd5b5051919550909350849050835b600061378a84604001516001600160601b03166123c1846001600160601b031687606001516001600160601b03166133bf90919063ffffffff16565b905061379c8b8263ffffffff61248d16565b9a505060019093019250613589915050565b50505050505b94509492505050565b6001600160a01b0381166138025760405162461bcd60e51b81526004018080602001828103825260268152602001806141086026913960400191505060405180910390fd5b600080546040516001600160a01b03808516939216917f8be0079c531659141344cd1fd0a4f28419497f9722a3daafe3b4186f6b6457e091a3600080546001600160a01b0319166001600160a01b0392909216919091179055565b60006138814360405180608001604052806043815260200161430d60439139613e51565b905060006138a74260405180608001604052806046815260200161444d60469139613e51565b6001600160a01b0385166000908152600460205260408120549192506138d1600019850142613ea6565b90506000816001600160601b031611613931576040805162461bcd60e51b815260206004820152601a60248201527f496e76616c696420746f74616c57656967687465645374616b65000000000000604482015290519081900360640190fd5b60008211801561397057506001600160a01b03861660009081526003602090815260408083206000198601845290915290205463ffffffff8581169116145b156139df576001600160a01b03868116600090815260036020908152604080832060001987018452909152902080546001600160601b03888116600160a01b02908516600160401b026bffffffffffffffffffffffff60401b1990921691909117909216919091179055613aaf565b6040805160808101825263ffffffff868116825285811660208084019182526001600160601b038681168587019081528b8216606087019081526001600160a01b038e81166000818152600387528a81208d825287528a812099518a5498519551945163ffffffff19909916908a161767ffffffff000000001916600160201b9590991694909402979097176bffffffffffffffffffffffff60401b1916600160401b928516929092029190911716600160a01b9490921693909302179093559081526004909152206001830190555b604080516001600160601b038716815290516001600160a01b0388169133917ff61a5f2f4d0b2d871d5bf18717d08a6b0f543afa7e08dad5df1fea150f7296329181900360200190a3505050505050565b613b12826001600160a01b03166126a0565b613b63576040805162461bcd60e51b815260206004820152601f60248201527f5361666545524332303a2063616c6c20746f206e6f6e2d636f6e747261637400604482015290519081900360640190fd5b60006060836001600160a01b0316836040518082805190602001908083835b60208310613ba15780518252601f199092019160209182019101613b82565b6001836020036101000a0380198251168184511680821785525050505050509050019150506000604051808303816000865af19150503d8060008114613c03576040519150601f19603f3d011682016040523d82523d6000602084013e613c08565b606091505b509150915081613c5f576040805162461bcd60e51b815260206004820181905260248201527f5361666545524332303a206c6f772d6c6576656c2063616c6c206661696c6564604482015290519081900360640190fd5b805115610e4957808060200190516020811015613c7b57600080fd5b5051610e495760405162461bcd60e51b815260040180806020018281038252602a815260200180614619602a913960400191505060405180910390fd5b6001600160a01b031660009081526020919091526040902054151590565b60008184841115613d285760405162461bcd60e51b8152602060048201818152835160248401528351909283926044909101919085019080838360008315612bda578181015183820152602001612bc2565b505050900390565b60008183613d7f5760405162461bcd60e51b8152602060048201818152835160248401528351909283926044909101919085019080838360008315612bda578181015183820152602001612bc2565b506000838581613d8b57fe5b0495945050505050565b6001600160a01b03821660009081526004602052604081205480613dbd5760009150506124e7565b6000198101600063ffffffff8516613dd6575081613e13565b613e008563ffffffff1688016040518060600160405280603f8152602001614350603f9139613e51565b63ffffffff16905082811115613e135750815b6001600160a01b038616600090815260036020908152604080832085845290915290205463ffffffff164381141561240a5750909695505050505050565b600081600160201b8410612c155760405162461bcd60e51b8152602060048201818152835160248401528351909283926044909101919085019080838360008315612bda578181015183820152602001612bc2565b6002546040805163cdbe715560e01b815263ffffffff8516600482015260248101849052905160009283926001600160a01b039091169163cdbe715591604480820192602092909190829003018186803b158015613f0357600080fd5b505afa158015613f17573d6000803e3d6000fd5b505050506040513d6020811015613f2d57600080fd5b5051600254604080516312916bdd60e11b815263ffffffff881660048201526024810187905290519293506001600160a01b0390911691632522d7ba91604480820192602092909190829003018186803b158015613f8a57600080fd5b505afa158015613f9e573d6000803e3d6000fd5b505050506040513d6020811015613fb457600080fd5b5051604080516080810190915260568082529193506126d4918491849161452860208301396000836001600160601b0316836001600160601b031611158290613d285760405162461bcd60e51b8152602060048201818152835160248401528351909283926044909101919085019080838360008315612bda578181015183820152602001612bc2565b6040805160808101825260008082526020820181905291810182905260608101919091529056fe46656553686172696e67436f6c6c6563746f723a3a7472616e73666572546f6b656e733a20696e76616c696420616d6f756e7446656553686172696e67436f6c6c6563746f723a3a7472616e73666572546f6b656e733a20696e76616c6964206164647265737346656553686172696e67436f6c6c6563746f723a3a7769746864726177466565733a206e6f20746f6b656e7320666f72207769746864726177616c4f776e61626c653a206e6577206f776e657220697320746865207a65726f20616464726573735f66726f6d436865636b706f696e742073686f756c64206265203c3d20746f74616c546f6b656e436865636b706f696e747346656553686172696e67436f6c6c6563746f723a3a7769746864726177524254433a205769746864726177616c206661696c656446656553686172696e67436f6c6c6563746f723a3a7769746864726177466565733a20777262746320746f6b656e20616d6f756e742065786365656473203936206269747346656553686172696e67436f6c6c6563746f723a3a776974686472617746656573414d4d3a20746f74616c20777262746320746f6b656e20616d6f756e742065786365656473203936206269747346656553686172696e67436f6c6c6563746f723a3a776974686472617746656573414d4d3a20777262746320746f6b656e20616d6f756e742065786365656473203936206269747355736572207765696768746564207374616b652073686f756c64206265203e203020617420205f66726f6d436865636b706f696e7446656553686172696e67436f6c6c6563746f723a3a7472616e73666572524254433a20696e76616c69642076616c756555736572207765696768746564207374616b652073686f756c64206265207a65726f2061742070726576696f757320636865636b706f696e7446656553686172696e67436f6c6c6563746f723a3a5f7772697465436865636b706f696e743a20626c6f636b206e756d6265722065786365656473203332206269747346656553686172696e67436f6c6c6563746f723a3a77697468647261773a20636865636b706f696e7420696e6465782065786365656473203332206269747346656553686172696e67436f6c6c6563746f723a3a5f616464436865636b706f696e743a20616d6f756e7420657863656564732039362062697473536166654d6174683a206d756c7469706c69636174696f6e206f766572666c6f7746656553686172696e67436f6c6c6563746f723a3a77697468647261773a205f6d6178436865636b706f696e74732073686f756c6420626520706f7369746976655f66726f6d436865636b706f696e7420706172616d206d757374206265203e203146656553686172696e67436f6c6c6563746f723a3a5f7772697465436865636b706f696e743a20626c6f636b2074696d657374616d70206578636565647320333220626974735374616b696e673a3a7472616e73666572546f6b656e733a20746f6b656e207472616e73666572206661696c6564524254435f44554d4d595f414444524553535f464f525f434845434b504f494e5446656553686172696e67436f6c6c6563746f723a3a5f616464436865636b706f696e743a20756e70726f636573736564416d6f756e742065786365656473203936206269747346656553686172696e67436f6c6c6563746f723a3a5f676574546f74616c566f6c756e7461727957656967687465645374616b653a20766573746564207374616b65206578636565647320746f74616c207374616b6546656553686172696e67436f6c6c6563746f723a3a77697468647261773a206c6f616e207752425443206e6f7420666f756e645f66726f6d436865636b706f696e7420706172616d206d757374206265203e207573657250726f636573736564436865636b706f696e747346656553686172696e67436f6c6c6563746f723a3a77697468647261773a207769746864726177616c206661696c65645361666545524332303a204552433230206f7065726174696f6e20646964206e6f74207375636365656446656553686172696e67436f6c6c6563746f723a3a7769746864726177466565733a20746f6b656e206973206e6f74206120636f6e747261637446656553686172696e67436f6c6c6563746f723a3a7769746864726177466565733a206e6f207262746320666f722061207769746864726177616ca265627a7a72315820d135e6f84dc67c232fc4548bec83d05ea26c7dca5507246b27501ec4fafd19dc64736f6c63430005110032",
  "implementation": "0xEEE1EE95e908a05FAD69F7c28626B3276E6eaC6F",
  "devdoc": {
    "methods": {
      "addWhitelistedConverterAddress(address)": {
        "details": "Whitelisting converter address.",
        "params": {
          "converterAddress": "converter address to be whitelisted."
        }
      },
      "getAccumulatedFees(address,address)": {
        "params": {
          "_token": "RBTC dummy to fit into existing data structure or SOV. Former address of the pool token.",
          "_user": "The address of the user or contract."
        },
        "return": "The accumulated fee for the message sender."
      },
      "getAccumulatedFeesForCheckpointsRange(address,address,uint256,uint32)": {
        "details": "This function is required to keep consistent with caching of weighted voting power when claiming fees",
        "params": {
          "_maxCheckpoints": "maxCheckpoints to get accumulated fees for the _user",
          "_startFrom": "Checkpoint to start calculating fees from.",
          "_token": "RBTC dummy to fit into existing data structure or SOV. Former address of the pool token.",
          "_user": "The address of a user (staker) or contract."
        },
        "return": "The accumulated fees rewards for the _user in the given checkpoints interval: [_startFrom, _startFrom + maxCheckpoints]."
      },
      "getAccumulatedRBTCFeeBalances(address)": {
        "details": "view function that calculate the total RBTC that includes: - RBTC - WRBTC - iWRBTC * iWRBTC.tokenPrice()",
        "params": {
          "_user": "address of the user."
        },
        "return": "rbtc balance of the given user's address."
      },
      "getNextPositiveUserCheckpoint(address,address,uint256,uint256)": {
        "details": "Returns first user's checkpoint with weighted stake > 0",
        "params": {
          "_maxCheckpoints": "Max checkpoints to process in a row to avoid timeout error",
          "_startFrom": "Checkpoint number to start from. If _startFrom < processedUserCheckpoints then starts from processedUserCheckpoints.",
          "_token": "RBTC dummy to fit into existing data structure or SOV. Former address of the pool token.",
          "_user": "The address of the user or contract."
        },
        "return": "[checkpointNum: checkpoint number where user's weighted stake > 0, hasSkippedCheckpoints, hasFees]"
      },
      "getWhitelistedConverterList()": {
        "return": "All of the whitelisted converter list."
      },
      "isOwner()": {
        "details": "Returns true if the caller is the current owner."
      },
      "numTokenCheckpoints(address)": {
        "details": "This getter function `numTokenCheckpoints` is added for backwards compatibility     broken when renamed `numTokenCheckpoints` storage variable to `totalTokenCheckpoints`.",
        "params": {
          "_token": "token address to get checkpoints for"
        },
        "return": "Total token checkpoints"
      },
      "owner()": {
        "details": "Returns the address of the current owner."
      },
      "removeWhitelistedConverterAddress(address)": {
        "details": "Removing converter address from whitelist.",
        "params": {
          "converterAddress": "converter address to be removed from whitelist."
        }
      },
      "transferOwnership(address)": {
        "details": "Transfers ownership of the contract to a new account (`newOwner`). Can only be called by the current owner."
      },
      "transferRBTC()": {
        "details": "We just write checkpoint here (based on the rbtc value that is sent) in a separate methods in order to prevent adding checkpoints too often."
      },
      "transferTokens(address,uint96)": {
        "details": "We just update amount of tokens here and write checkpoint in a separate methods in order to prevent adding checkpoints too often.",
        "params": {
          "_amount": "Amount to be transferred.",
          "_token": "Address of the token."
        }
      },
      "withdraw(address,uint32,address)": {
        "params": {
          "_maxCheckpoints": "Maximum number of checkpoints to be processed. Must be positive value.",
          "_receiver": "The receiver of tokens or msg.sender",
          "_token": "RBTC dummy to fit into existing data structure or SOV. Former address of the pool token."
        }
      },
      "withdrawFees(address[])": {
        "params": {
          "_tokens": "array address of the token"
        }
      },
      "withdrawFeesAMM(address[])": {
        "params": {
          "_converters": "array addresses of the converters"
        }
      },
      "withdrawRBTC(uint32,address)": {
        "details": "withdraw all of the RBTC balance based on particular checkpoints     * RBTC balance consists of: - rbtc balance - wrbtc balance which will be unwrapped to rbtc - iwrbtc balance which will be unwrapped to rbtc",
        "params": {
          "_maxCheckpoints": "Maximum number of checkpoints to be processed to workaround block gas limit",
          "_receiver": "An optional tokens receiver (msg.sender used if 0)"
        }
      },
      "withdrawRBTCStartingFromCheckpoint(uint256,uint32,address)": {
        "details": "Withdraw all of the RBTC balance based starting from a specific checkpoint The function was designed to skip checkpoints with no fees for users     * RBTC balance consists of: - rbtc balance - wrbtc balance which will be unwrapped to rbtc - iwrbtc balance which will be unwrapped to rbtcWARNING! This function skips all the checkpoints before '_fromCheckpoint' irreversibly, use with care",
        "params": {
          "_fromCheckpoint": "Skips all the checkpoints before '_fromCheckpoint'       should be calculated offchain with getNextPositiveUserCheckpoint function",
          "_maxCheckpoints": "Maximum number of checkpoints to be processed to workaround block gas limit",
          "_receiver": "An optional tokens receiver (msg.sender used if 0)"
        }
      },
      "withdrawStartingFromCheckpoint(address,uint256,uint32,address)": {
        "details": "WARNING! This function skips all the checkpoints before '_fromCheckpoint' irreversibly, use with care",
        "params": {
          "_fromCheckpoint": "Skips all the checkpoints before '_fromCheckpoint'       should be calculated offchain with getNextPositiveUserCheckpoint function",
          "_maxCheckpoints": "Maximum number of checkpoints to be processed.",
          "_receiver": "The receiver of tokens or msg.sender",
          "_token": "RBTC dummy to fit into existing data structure or SOV. Former address of the pool token."
        }
      }
    },
    "title": "The FeeSharingCollector contract."
  },
  "userdoc": {
    "methods": {
      "getAccumulatedFees(address,address)": {
        "notice": "Get the accumulated loan pool fee of the message sender."
      },
      "getAccumulatedFeesForCheckpointsRange(address,address,uint256,uint32)": {
        "notice": "Get the accumulated fee rewards for the message sender for a checkpoints range"
      },
      "getWhitelistedConverterList()": {
        "notice": "Getter to query all of the whitelisted converter."
      },
      "transferRBTC()": {
        "notice": "Transfer RBTC / native tokens to this contract."
      },
      "transferTokens(address,uint96)": {
        "notice": "Transfer tokens to this contract."
      },
      "withdraw(address,uint32,address)": {
        "notice": "Withdraw accumulated fee to the message sender.     * The Sovryn protocol collects fees on every trade/swap and loan. These fees will be distributed to SOV stakers based on their voting power as a percentage of total voting power. Therefore, staking more SOV and/or staking for longer will increase your share of the fees generated, meaning you will earn more from staking.     * This function will directly burnToBTC and use the msg.sender (user) as the receiver"
      },
      "withdrawFees(address[])": {
        "notice": "Withdraw fees for the given token: lendingFee + tradingFee + borrowingFee the fees (except SOV) will be converted in wRBTC form, and then will be transferred to wRBTC loan pool. For SOV, it will be directly deposited into the feeSharingCollector from the protocol."
      },
      "withdrawFeesAMM(address[])": {
        "notice": "Withdraw amm fees for the given converter addresses: protocolFee from the conversion the fees will be converted in wRBTC form, and then will be transferred to wRBTC loan pool"
      },
      "withdrawStartingFromCheckpoint(address,uint256,uint32,address)": {
        "notice": "Withdraw accumulated fee to the message sender/receiver.     * The Sovryn protocol collects fees on every trade/swap and loan. These fees will be distributed to SOV stakers based on their voting power as a percentage of total voting power.     * This function will directly burnToBTC and use the msg.sender (user) as the receiver"
      }
    },
    "notice": "This contract withdraws fees to be paid to SOV Stakers from the protocol. Stakers call withdraw() to get their share of the fees.Staking is not only granting voting rights, but also access to fee sharing according to the own voting power in relation to the total. Whenever somebody decides to collect the fees from the protocol, they get transferred to a proxy contract which invests the funds in the lending pool and keeps the pool tokens. * The fee sharing proxy will be set as feesController of the protocol contract. This allows the fee sharing proxy to withdraw the fees. The fee sharing proxy holds the pool tokens and keeps track of which user owns how many tokens. In order to know how many tokens a user owns, the fee sharing proxy needs to know the users weighted stake in relation to the total weighted stake (aka total voting power). * Because both values are subject to change, they may be different on each fee withdrawal. To be able to calculate a users share of tokens when he wants to withdraw, we need checkpoints. * This contract is intended to be set as the protocol fee collector. Anybody can invoke the withdrawFees function which uses protocol.withdrawFees to obtain available fees from operations on a certain token. These fees are deposited in the corresponding loanPool. Also, the staking contract sends slashed tokens to this contract. When a user calls the withdraw function, the contract transfers the fee sharing rewards in proportion to the users weighted stake since the last withdrawal. * The protocol initially collects fees in all tokens. Then the FeeSharingCollector wihtdraws fees from the protocol. When the fees are withdrawn all the tokens except SOV will be converted to wRBTC and then transferred to wRBTC loan pool. For SOV, it will be directly deposited into the feeSharingCollector from the protocol."
  },
  "storageLayout": {
    "storage": [
      {
        "astId": 53330,
        "contract": "contracts/governance/FeeSharingCollector/FeeSharingCollector.sol:FeeSharingCollector",
        "label": "_owner",
        "offset": 0,
        "slot": "0",
        "type": "t_address"
      },
      {
        "astId": 14463,
        "contract": "contracts/governance/FeeSharingCollector/FeeSharingCollector.sol:FeeSharingCollector",
        "label": "protocol",
        "offset": 0,
        "slot": "1",
        "type": "t_contract(IProtocol)14557"
      },
      {
        "astId": 14465,
        "contract": "contracts/governance/FeeSharingCollector/FeeSharingCollector.sol:FeeSharingCollector",
        "label": "staking",
        "offset": 0,
        "slot": "2",
        "type": "t_contract(IStaking)16896"
      },
      {
        "astId": 14471,
        "contract": "contracts/governance/FeeSharingCollector/FeeSharingCollector.sol:FeeSharingCollector",
        "label": "tokenCheckpoints",
        "offset": 0,
        "slot": "3",
        "type": "t_mapping(t_address,t_mapping(t_uint256,t_struct(Checkpoint)14498_storage))"
      },
      {
        "astId": 14475,
        "contract": "contracts/governance/FeeSharingCollector/FeeSharingCollector.sol:FeeSharingCollector",
        "label": "totalTokenCheckpoints",
        "offset": 0,
        "slot": "4",
        "type": "t_mapping(t_address,t_uint256)"
      },
      {
        "astId": 14481,
        "contract": "contracts/governance/FeeSharingCollector/FeeSharingCollector.sol:FeeSharingCollector",
        "label": "processedCheckpoints",
        "offset": 0,
        "slot": "5",
        "type": "t_mapping(t_address,t_mapping(t_address,t_uint256))"
      },
      {
        "astId": 14485,
        "contract": "contracts/governance/FeeSharingCollector/FeeSharingCollector.sol:FeeSharingCollector",
        "label": "lastFeeWithdrawalTime",
        "offset": 0,
        "slot": "6",
        "type": "t_mapping(t_address,t_uint256)"
      },
      {
        "astId": 14489,
        "contract": "contracts/governance/FeeSharingCollector/FeeSharingCollector.sol:FeeSharingCollector",
        "label": "unprocessedAmount",
        "offset": 0,
        "slot": "7",
        "type": "t_mapping(t_address,t_uint96)"
      },
      {
        "astId": 14507,
        "contract": "contracts/governance/FeeSharingCollector/FeeSharingCollector.sol:FeeSharingCollector",
        "label": "reentrancyLock",
        "offset": 0,
        "slot": "8",
        "type": "t_uint256"
      },
      {
        "astId": 14509,
        "contract": "contracts/governance/FeeSharingCollector/FeeSharingCollector.sol:FeeSharingCollector",
        "label": "whitelistedConverterList",
        "offset": 0,
        "slot": "9",
        "type": "t_struct(AddressSet)34930_storage"
      }
    ],
    "types": {
      "t_address": {
        "encoding": "inplace",
        "label": "address",
        "numberOfBytes": "20"
      },
      "t_array(t_address)dyn_storage": {
        "base": "t_address",
        "encoding": "dynamic_array",
        "label": "address[]",
        "numberOfBytes": "32"
      },
      "t_contract(IProtocol)14557": {
        "encoding": "inplace",
        "label": "contract IProtocol",
        "numberOfBytes": "20"
      },
      "t_contract(IStaking)16896": {
        "encoding": "inplace",
        "label": "contract IStaking",
        "numberOfBytes": "20"
      },
      "t_mapping(t_address,t_mapping(t_address,t_uint256))": {
        "encoding": "mapping",
        "key": "t_address",
        "label": "mapping(address => mapping(address => uint256))",
        "numberOfBytes": "32",
        "value": "t_mapping(t_address,t_uint256)"
      },
      "t_mapping(t_address,t_mapping(t_uint256,t_struct(Checkpoint)14498_storage))": {
        "encoding": "mapping",
        "key": "t_address",
        "label": "mapping(address => mapping(uint256 => struct FeeSharingCollectorStorage.Checkpoint))",
        "numberOfBytes": "32",
        "value": "t_mapping(t_uint256,t_struct(Checkpoint)14498_storage)"
      },
      "t_mapping(t_address,t_uint256)": {
        "encoding": "mapping",
        "key": "t_address",
        "label": "mapping(address => uint256)",
        "numberOfBytes": "32",
        "value": "t_uint256"
      },
      "t_mapping(t_address,t_uint96)": {
        "encoding": "mapping",
        "key": "t_address",
        "label": "mapping(address => uint96)",
        "numberOfBytes": "32",
        "value": "t_uint96"
      },
      "t_mapping(t_uint256,t_struct(Checkpoint)14498_storage)": {
        "encoding": "mapping",
        "key": "t_uint256",
        "label": "mapping(uint256 => struct FeeSharingCollectorStorage.Checkpoint)",
        "numberOfBytes": "32",
        "value": "t_struct(Checkpoint)14498_storage"
      },
      "t_struct(AddressSet)34930_storage": {
        "encoding": "inplace",
        "label": "struct EnumerableAddressSet.AddressSet",
        "members": [
          {
            "astId": 34926,
            "contract": "contracts/governance/FeeSharingCollector/FeeSharingCollector.sol:FeeSharingCollector",
            "label": "index",
            "offset": 0,
            "slot": "0",
            "type": "t_mapping(t_address,t_uint256)"
          },
          {
            "astId": 34929,
            "contract": "contracts/governance/FeeSharingCollector/FeeSharingCollector.sol:FeeSharingCollector",
            "label": "values",
            "offset": 0,
            "slot": "1",
            "type": "t_array(t_address)dyn_storage"
          }
        ],
        "numberOfBytes": "64"
      },
      "t_struct(Checkpoint)14498_storage": {
        "encoding": "inplace",
        "label": "struct FeeSharingCollectorStorage.Checkpoint",
        "members": [
          {
            "astId": 14491,
            "contract": "contracts/governance/FeeSharingCollector/FeeSharingCollector.sol:FeeSharingCollector",
            "label": "blockNumber",
            "offset": 0,
            "slot": "0",
            "type": "t_uint32"
          },
          {
            "astId": 14493,
            "contract": "contracts/governance/FeeSharingCollector/FeeSharingCollector.sol:FeeSharingCollector",
            "label": "timestamp",
            "offset": 4,
            "slot": "0",
            "type": "t_uint32"
          },
          {
            "astId": 14495,
            "contract": "contracts/governance/FeeSharingCollector/FeeSharingCollector.sol:FeeSharingCollector",
            "label": "totalWeightedStake",
            "offset": 8,
            "slot": "0",
            "type": "t_uint96"
          },
          {
            "astId": 14497,
            "contract": "contracts/governance/FeeSharingCollector/FeeSharingCollector.sol:FeeSharingCollector",
            "label": "numTokens",
            "offset": 20,
            "slot": "0",
            "type": "t_uint96"
          }
        ],
        "numberOfBytes": "32"
      },
      "t_uint256": {
        "encoding": "inplace",
        "label": "uint256",
        "numberOfBytes": "32"
      },
      "t_uint32": {
        "encoding": "inplace",
        "label": "uint32",
        "numberOfBytes": "4"
      },
      "t_uint96": {
        "encoding": "inplace",
        "label": "uint96",
        "numberOfBytes": "12"
      }
    }
  }
}