{
  "address": "0xb2Bb29E16e5e91eA0A8FDb31498634e6Cb53d19C",
  "abi": [
    {
      "anonymous": false,
      "inputs": [
        {
          "indexed": true,
          "internalType": "address",
          "name": "sender",
          "type": "address"
        },
        {
          "indexed": true,
          "internalType": "address",
          "name": "token",
          "type": "address"
        },
        {
          "indexed": false,
          "internalType": "uint256",
          "name": "amount",
          "type": "uint256"
        }
      ],
      "name": "CheckpointAdded",
      "type": "event"
    },
    {
      "anonymous": false,
      "inputs": [
        {
          "indexed": true,
          "internalType": "address",
          "name": "sender",
          "type": "address"
        },
        {
          "indexed": true,
          "internalType": "address",
          "name": "converter",
          "type": "address"
        },
        {
          "indexed": false,
          "internalType": "uint256",
          "name": "amount",
          "type": "uint256"
        }
      ],
      "name": "FeeAMMWithdrawn",
      "type": "event"
    },
    {
      "anonymous": false,
      "inputs": [
        {
          "indexed": true,
          "internalType": "address",
          "name": "sender",
          "type": "address"
        },
        {
          "indexed": false,
          "internalType": "uint256",
          "name": "amount",
          "type": "uint256"
        }
      ],
      "name": "FeeWithdrawnInRBTC",
      "type": "event"
    },
    {
      "anonymous": false,
      "inputs": [
        {
          "indexed": true,
          "internalType": "address",
          "name": "previousOwner",
          "type": "address"
        },
        {
          "indexed": true,
          "internalType": "address",
          "name": "newOwner",
          "type": "address"
        }
      ],
      "name": "OwnershipTransferred",
      "type": "event"
    },
    {
      "anonymous": false,
      "inputs": [
        {
          "indexed": true,
          "internalType": "address",
          "name": "sender",
          "type": "address"
        },
        {
          "indexed": true,
          "internalType": "address",
          "name": "receiver",
          "type": "address"
        },
        {
          "indexed": false,
          "internalType": "uint256",
          "name": "amount",
          "type": "uint256"
        }
      ],
      "name": "RBTCWithdrawn",
      "type": "event"
    },
    {
      "anonymous": false,
      "inputs": [
        {
          "indexed": true,
          "internalType": "address",
          "name": "sender",
          "type": "address"
        },
        {
          "indexed": true,
          "internalType": "address",
          "name": "oldLoanTokenWrbtc",
          "type": "address"
        },
        {
          "indexed": true,
          "internalType": "address",
          "name": "newLoanTokenWrbtc",
          "type": "address"
        }
      ],
      "name": "SetLoanTokenWrbtc",
      "type": "event"
    },
    {
      "anonymous": false,
      "inputs": [
        {
          "indexed": true,
          "internalType": "address",
          "name": "sender",
          "type": "address"
        },
        {
          "indexed": true,
          "internalType": "address",
          "name": "oldWrbtcToken",
          "type": "address"
        },
        {
          "indexed": true,
          "internalType": "address",
          "name": "newWrbtcToken",
          "type": "address"
        }
      ],
      "name": "SetWrbtcToken",
      "type": "event"
    },
    {
      "anonymous": false,
      "inputs": [
        {
          "indexed": true,
          "internalType": "address",
          "name": "sender",
          "type": "address"
        },
        {
          "indexed": true,
          "internalType": "address",
          "name": "token",
          "type": "address"
        },
        {
          "indexed": false,
          "internalType": "uint256",
          "name": "amount",
          "type": "uint256"
        }
      ],
      "name": "TokensTransferred",
      "type": "event"
    },
    {
      "anonymous": false,
      "inputs": [
        {
          "indexed": true,
          "internalType": "address",
          "name": "sender",
          "type": "address"
        },
        {
          "indexed": false,
          "internalType": "address",
          "name": "converter",
          "type": "address"
        }
      ],
      "name": "UnwhitelistedConverter",
      "type": "event"
    },
    {
      "anonymous": false,
      "inputs": [
        {
          "indexed": true,
          "internalType": "address",
          "name": "sender",
          "type": "address"
        },
        {
          "indexed": true,
          "internalType": "address",
          "name": "token",
          "type": "address"
        },
        {
          "indexed": false,
          "internalType": "uint256",
          "name": "prevProcessedCheckpoints",
          "type": "uint256"
        },
        {
          "indexed": false,
          "internalType": "uint256",
          "name": "newProcessedCheckpoints",
          "type": "uint256"
        }
      ],
      "name": "UserFeeProcessedNoWithdraw",
      "type": "event"
    },
    {
      "anonymous": false,
      "inputs": [
        {
          "indexed": true,
          "internalType": "address",
          "name": "sender",
          "type": "address"
        },
        {
          "indexed": true,
          "internalType": "address",
          "name": "receiver",
          "type": "address"
        },
        {
          "indexed": true,
          "internalType": "address",
          "name": "token",
          "type": "address"
        },
        {
          "indexed": false,
          "internalType": "uint256",
          "name": "amount",
          "type": "uint256"
        }
      ],
      "name": "UserFeeWithdrawn",
      "type": "event"
    },
    {
      "anonymous": false,
      "inputs": [
        {
          "indexed": true,
          "internalType": "address",
          "name": "sender",
          "type": "address"
        },
        {
          "indexed": false,
          "internalType": "address",
          "name": "converter",
          "type": "address"
        }
      ],
      "name": "WhitelistedConverter",
      "type": "event"
    },
    {
      "payable": true,
      "stateMutability": "payable",
      "type": "fallback"
    },
    {
      "constant": true,
      "inputs": [],
      "name": "RBTC_DUMMY_ADDRESS_FOR_CHECKPOINT",
      "outputs": [
        {
          "internalType": "address",
          "name": "",
          "type": "address"
        }
      ],
      "payable": false,
      "stateMutability": "view",
      "type": "function"
    },
    {
      "constant": false,
      "inputs": [
        {
          "internalType": "address",
          "name": "converterAddress",
          "type": "address"
        }
      ],
      "name": "addWhitelistedConverterAddress",
      "outputs": [],
      "payable": false,
      "stateMutability": "nonpayable",
      "type": "function"
    },
    {
      "constant": false,
      "inputs": [
        {
          "internalType": "address[]",
          "name": "_nonRbtcTokensRegularWithdraw",
          "type": "address[]"
        },
        {
          "internalType": "address[]",
          "name": "_rbtcTokensRegularWithdraw",
          "type": "address[]"
        },
        {
          "components": [
            {
              "internalType": "address",
              "name": "tokenAddress",
              "type": "address"
            },
            {
              "internalType": "uint256",
              "name": "fromCheckpoint",
              "type": "uint256"
            }
          ],
          "internalType": "struct FeeSharingCollectorStorage.TokenWithSkippedCheckpointsWithdraw[]",
          "name": "_tokensWithSkippedCheckpoints",
          "type": "tuple[]"
        },
        {
          "internalType": "uint32",
          "name": "_maxCheckpoints",
          "type": "uint32"
        },
        {
          "internalType": "address",
          "name": "_receiver",
          "type": "address"
        }
      ],
      "name": "claimAllCollectedFees",
      "outputs": [],
      "payable": false,
      "stateMutability": "nonpayable",
      "type": "function"
    },
    {
      "constant": true,
      "inputs": [
        {
          "internalType": "address",
          "name": "_user",
          "type": "address"
        },
        {
          "internalType": "address",
          "name": "_token",
          "type": "address"
        }
      ],
      "name": "getAccumulatedFees",
      "outputs": [
        {
          "internalType": "uint256",
          "name": "",
          "type": "uint256"
        }
      ],
      "payable": false,
      "stateMutability": "view",
      "type": "function"
    },
    {
      "constant": true,
      "inputs": [
        {
          "internalType": "address",
          "name": "_user",
          "type": "address"
        },
        {
          "internalType": "address",
          "name": "_token",
          "type": "address"
        },
        {
          "internalType": "uint256",
          "name": "_startFrom",
          "type": "uint256"
        },
        {
          "internalType": "uint32",
          "name": "_maxCheckpoints",
          "type": "uint32"
        }
      ],
      "name": "getAccumulatedFeesForCheckpointsRange",
      "outputs": [
        {
          "internalType": "uint256",
          "name": "",
          "type": "uint256"
        }
      ],
      "payable": false,
      "stateMutability": "view",
      "type": "function"
    },
    {
      "constant": true,
      "inputs": [
        {
          "internalType": "address",
          "name": "_user",
          "type": "address"
        }
      ],
      "name": "getAccumulatedRBTCFeeBalances",
      "outputs": [
        {
          "internalType": "uint256",
          "name": "",
          "type": "uint256"
        }
      ],
      "payable": false,
      "stateMutability": "view",
      "type": "function"
    },
    {
      "constant": true,
      "inputs": [
        {
          "internalType": "address",
          "name": "_user",
          "type": "address"
        },
        {
          "internalType": "address",
          "name": "_token",
          "type": "address"
        },
        {
          "internalType": "uint256",
          "name": "_startFrom",
          "type": "uint256"
        },
        {
          "internalType": "uint32",
          "name": "_maxCheckpoints",
          "type": "uint32"
        }
      ],
      "name": "getAllUserFeesPerMaxCheckpoints",
      "outputs": [
        {
          "internalType": "uint256[]",
          "name": "fees",
          "type": "uint256[]"
        }
      ],
      "payable": false,
      "stateMutability": "view",
      "type": "function"
    },
    {
      "constant": true,
      "inputs": [
        {
          "internalType": "address",
          "name": "_user",
          "type": "address"
        },
        {
          "internalType": "address",
          "name": "_token",
          "type": "address"
        },
        {
          "internalType": "uint256",
          "name": "_startFrom",
          "type": "uint256"
        },
        {
          "internalType": "uint256",
          "name": "_maxCheckpoints",
          "type": "uint256"
        }
      ],
      "name": "getNextPositiveUserCheckpoint",
      "outputs": [
        {
          "internalType": "uint256",
          "name": "checkpointNum",
          "type": "uint256"
        },
        {
          "internalType": "bool",
          "name": "hasSkippedCheckpoints",
          "type": "bool"
        },
        {
          "internalType": "bool",
          "name": "hasFees",
          "type": "bool"
        }
      ],
      "payable": false,
      "stateMutability": "view",
      "type": "function"
    },
    {
      "constant": true,
      "inputs": [],
      "name": "getWhitelistedConverterList",
      "outputs": [
        {
          "internalType": "address[]",
          "name": "converterList",
          "type": "address[]"
        }
      ],
      "payable": false,
      "stateMutability": "view",
      "type": "function"
    },
    {
      "constant": false,
      "inputs": [
        {
          "internalType": "address",
          "name": "wrbtcToken",
          "type": "address"
        },
        {
          "internalType": "address",
          "name": "loanWrbtcToken",
          "type": "address"
        }
      ],
      "name": "initialize",
      "outputs": [],
      "payable": false,
      "stateMutability": "nonpayable",
      "type": "function"
    },
    {
      "constant": true,
      "inputs": [
        {
          "internalType": "bytes4",
          "name": "",
          "type": "bytes4"
        }
      ],
      "name": "isFunctionExecuted",
      "outputs": [
        {
          "internalType": "bool",
          "name": "",
          "type": "bool"
        }
      ],
      "payable": false,
      "stateMutability": "view",
      "type": "function"
    },
    {
      "constant": true,
      "inputs": [],
      "name": "isOwner",
      "outputs": [
        {
          "internalType": "bool",
          "name": "",
          "type": "bool"
        }
      ],
      "payable": false,
      "stateMutability": "view",
      "type": "function"
    },
    {
      "constant": true,
      "inputs": [
        {
          "internalType": "address",
          "name": "",
          "type": "address"
        }
      ],
      "name": "lastFeeWithdrawalTime",
      "outputs": [
        {
          "internalType": "uint256",
          "name": "",
          "type": "uint256"
        }
      ],
      "payable": false,
      "stateMutability": "view",
      "type": "function"
    },
    {
      "constant": true,
      "inputs": [],
      "name": "loanTokenWrbtcAddress",
      "outputs": [
        {
          "internalType": "address",
          "name": "",
          "type": "address"
        }
      ],
      "payable": false,
      "stateMutability": "view",
      "type": "function"
    },
    {
      "constant": true,
      "inputs": [
        {
          "internalType": "address",
          "name": "_token",
          "type": "address"
        }
      ],
      "name": "numTokenCheckpoints",
      "outputs": [
        {
          "internalType": "uint256",
          "name": "",
          "type": "uint256"
        }
      ],
      "payable": false,
      "stateMutability": "view",
      "type": "function"
    },
    {
      "constant": true,
      "inputs": [],
      "name": "owner",
      "outputs": [
        {
          "internalType": "address",
          "name": "",
          "type": "address"
        }
      ],
      "payable": false,
      "stateMutability": "view",
      "type": "function"
    },
    {
      "constant": true,
      "inputs": [
        {
          "internalType": "address",
          "name": "",
          "type": "address"
        },
        {
          "internalType": "address",
          "name": "",
          "type": "address"
        }
      ],
      "name": "processedCheckpoints",
      "outputs": [
        {
          "internalType": "uint256",
          "name": "",
          "type": "uint256"
        }
      ],
      "payable": false,
      "stateMutability": "view",
      "type": "function"
    },
    {
      "constant": true,
      "inputs": [],
      "name": "protocol",
      "outputs": [
        {
          "internalType": "contract IProtocol",
          "name": "",
          "type": "address"
        }
      ],
      "payable": false,
      "stateMutability": "view",
      "type": "function"
    },
    {
      "constant": false,
      "inputs": [],
      "name": "recoverIncorrectAllocatedFees",
      "outputs": [],
      "payable": false,
      "stateMutability": "nonpayable",
      "type": "function"
    },
    {
      "constant": false,
      "inputs": [
        {
          "internalType": "address",
          "name": "converterAddress",
          "type": "address"
        }
      ],
      "name": "removeWhitelistedConverterAddress",
      "outputs": [],
      "payable": false,
      "stateMutability": "nonpayable",
      "type": "function"
    },
    {
      "constant": false,
      "inputs": [
        {
          "internalType": "address",
          "name": "newLoanTokenWrbtcAddress",
          "type": "address"
        }
      ],
      "name": "setLoanTokenWrbtc",
      "outputs": [],
      "payable": false,
      "stateMutability": "nonpayable",
      "type": "function"
    },
    {
      "constant": false,
      "inputs": [
        {
          "internalType": "address",
          "name": "newWrbtcTokenAddress",
          "type": "address"
        }
      ],
      "name": "setWrbtcToken",
      "outputs": [],
      "payable": false,
      "stateMutability": "nonpayable",
      "type": "function"
    },
    {
      "constant": true,
      "inputs": [],
      "name": "staking",
      "outputs": [
        {
          "internalType": "contract IStaking",
          "name": "",
          "type": "address"
        }
      ],
      "payable": false,
      "stateMutability": "view",
      "type": "function"
    },
    {
      "constant": true,
      "inputs": [
        {
          "internalType": "address",
          "name": "",
          "type": "address"
        },
        {
          "internalType": "uint256",
          "name": "",
          "type": "uint256"
        }
      ],
      "name": "tokenCheckpoints",
      "outputs": [
        {
          "internalType": "uint32",
          "name": "blockNumber",
          "type": "uint32"
        },
        {
          "internalType": "uint32",
          "name": "timestamp",
          "type": "uint32"
        },
        {
          "internalType": "uint96",
          "name": "totalWeightedStake",
          "type": "uint96"
        },
        {
          "internalType": "uint96",
          "name": "numTokens",
          "type": "uint96"
        }
      ],
      "payable": false,
      "stateMutability": "view",
      "type": "function"
    },
    {
      "constant": true,
      "inputs": [
        {
          "internalType": "address",
          "name": "",
          "type": "address"
        }
      ],
      "name": "totalTokenCheckpoints",
      "outputs": [
        {
          "internalType": "uint256",
          "name": "",
          "type": "uint256"
        }
      ],
      "payable": false,
      "stateMutability": "view",
      "type": "function"
    },
    {
      "constant": false,
      "inputs": [
        {
          "internalType": "address",
          "name": "newOwner",
          "type": "address"
        }
      ],
      "name": "transferOwnership",
      "outputs": [],
      "payable": false,
      "stateMutability": "nonpayable",
      "type": "function"
    },
    {
      "constant": false,
      "inputs": [],
      "name": "transferRBTC",
      "outputs": [],
      "payable": true,
      "stateMutability": "payable",
      "type": "function"
    },
    {
      "constant": false,
      "inputs": [
        {
          "internalType": "address",
          "name": "_token",
          "type": "address"
        },
        {
          "internalType": "uint96",
          "name": "_amount",
          "type": "uint96"
        }
      ],
      "name": "transferTokens",
      "outputs": [],
      "payable": false,
      "stateMutability": "nonpayable",
      "type": "function"
    },
    {
      "constant": true,
      "inputs": [
        {
          "internalType": "address",
          "name": "",
          "type": "address"
        }
      ],
      "name": "unprocessedAmount",
      "outputs": [
        {
          "internalType": "uint96",
          "name": "",
          "type": "uint96"
        }
      ],
      "payable": false,
      "stateMutability": "view",
      "type": "function"
    },
    {
      "constant": false,
      "inputs": [
        {
          "internalType": "address",
          "name": "_token",
          "type": "address"
        },
        {
          "internalType": "uint32",
          "name": "_maxCheckpoints",
          "type": "uint32"
        },
        {
          "internalType": "address",
          "name": "_receiver",
          "type": "address"
        }
      ],
      "name": "withdraw",
      "outputs": [],
      "payable": false,
      "stateMutability": "nonpayable",
      "type": "function"
    },
    {
      "constant": false,
      "inputs": [
        {
          "internalType": "address[]",
          "name": "_tokens",
          "type": "address[]"
        }
      ],
      "name": "withdrawFees",
      "outputs": [],
      "payable": false,
      "stateMutability": "nonpayable",
      "type": "function"
    },
    {
      "constant": false,
      "inputs": [
        {
          "internalType": "address[]",
          "name": "_converters",
          "type": "address[]"
        }
      ],
      "name": "withdrawFeesAMM",
      "outputs": [],
      "payable": false,
      "stateMutability": "nonpayable",
      "type": "function"
    },
    {
      "constant": false,
      "inputs": [
        {
          "internalType": "address",
          "name": "receiver",
          "type": "address"
        },
        {
          "internalType": "uint256",
          "name": "wrbtcAmount",
          "type": "uint256"
        }
      ],
      "name": "withdrawWRBTC",
      "outputs": [],
      "payable": false,
      "stateMutability": "nonpayable",
      "type": "function"
    },
    {
      "constant": true,
      "inputs": [],
      "name": "wrbtcTokenAddress",
      "outputs": [
        {
          "internalType": "address",
          "name": "",
          "type": "address"
        }
      ],
      "payable": false,
      "stateMutability": "view",
      "type": "function"
    }
  ],
  "transactionHash": "0x813693c9c5099f934c2a52d0d51e54746a9cad7cf013a34d67b054497d07b2ba",
  "args": [],
  "numDeployments": 12,
  "solcInputHash": "10c9e057fac4b07cfdc64fe840350cae",
  "bytecode": "0x6080604052600160085560006200001e6001600160e01b036200006e16565b600080546001600160a01b0319166001600160a01b0383169081178255604051929350917f8be0079c531659141344cd1fd0a4f28419497f9722a3daafe3b4186f6b6457e0908290a35062000072565b3390565b6152bd80620000826000396000f3fe6080604052600436106101f95760003560e01c80638fe8565c1161010d578063adcf21a7116100a0578063d9eaaa641161006f578063d9eaaa64146105a3578063ed448a10146105c3578063f2962cda146105e3578063f2fde38b14610603578063f3bdba8f14610623576101f9565b8063adcf21a714610521578063c304044714610543578063c3f0eaee14610563578063d93b69ab14610583576101f9565b8063a697b8c7116100dc578063a697b8c7146104ac578063a965b3a9146104cc578063aa5036e9146104ec578063abe979e114610501576101f9565b80638fe8565c1461042a5780639a88a57314610457578063a42a77e71461046c578063a4955f2a1461048c576101f9565b806370530017116101905780637d0ce2b21161015f5780637d0ce2b21461039c5780638b6fdcba146103b15780638ce74426146103de5780638da5cb5b146103f35780638f32d59b14610408576101f9565b8063705300171461030c5780637061acf31461033c5780637913b4511461035c5780637c8678ec1461037c576101f9565b80633d67df6f116101cc5780633d67df6f1461028a578063485cc955146102aa5780634cf088d9146102ca5780635c4d9b12146102ec576101f9565b80631345946c146101fb578063200202081461023357806322a6fd95146102605780632f6b600d14610268575b005b34801561020757600080fd5b5061021b610216366004613af0565b610643565b60405161022a93929190614dc8565b60405180910390f35b34801561023f57600080fd5b5061025361024e366004613a98565b610665565b60405161022a9190614dba565b6101f9610680565b34801561027457600080fd5b5061027d61070e565b60405161022a9190614a6d565b34801561029657600080fd5b506102536102a5366004613ab6565b61071d565b3480156102b657600080fd5b506101f96102c5366004613ab6565b610738565b3480156102d657600080fd5b506102df610827565b60405161022a9190614b7b565b3480156102f857600080fd5b506101f9610307366004613ba6565b610836565b34801561031857600080fd5b5061032c610327366004613ba6565b610921565b60405161022a9493929190614e1b565b34801561034857600080fd5b506101f9610357366004613a98565b61096d565b34801561036857600080fd5b50610253610377366004613ab6565b610a0c565b34801561038857600080fd5b506101f9610397366004613d5e565b610a29565b3480156103a857600080fd5b5061027d610c1c565b3480156103bd57600080fd5b506103d16103cc366004613a98565b610c34565b60405161022a9190614e67565b3480156103ea57600080fd5b506102df610c4f565b3480156103ff57600080fd5b5061027d610c5e565b34801561041457600080fd5b5061041d610c6d565b60405161022a9190614b6d565b34801561043657600080fd5b5061044a610445366004613b51565b610c91565b60405161022a9190614b5c565b34801561046357600080fd5b5061027d610da8565b34801561047857600080fd5b506101f9610487366004613c95565b610db7565b34801561049857600080fd5b506101f96104a7366004613a98565b610fd6565b3480156104b857600080fd5b506101f96104c7366004613c53565b611045565b3480156104d857600080fd5b506101f96104e7366004613bd6565b611216565b3480156104f857600080fd5b506101f9611254565b34801561050d57600080fd5b506101f961051c366004613c23565b611409565b34801561052d57600080fd5b506105366115e5565b60405161022a9190614b4b565b34801561054f57600080fd5b5061025361055e366004613a98565b6115f6565b34801561056f57600080fd5b5061025361057e366004613b51565b6116e0565b34801561058f57600080fd5b5061041d61059e366004613db1565b6116fa565b3480156105af57600080fd5b506101f96105be366004613a98565b61170f565b3480156105cf57600080fd5b506101f96105de366004613a98565b6117b5565b3480156105ef57600080fd5b506102536105fe366004613a98565b61185c565b34801561060f57600080fd5b506101f961061e366004613a98565b61186e565b34801561062f57600080fd5b5061025361063e366004613a98565b61189e565b6000806000610654878787876118b0565b9250925092505b9450945094915050565b6001600160a01b031660009081526004602052604090205490565b346001600160601b0381166106b05760405162461bcd60e51b81526004016106a790614c7a565b60405180910390fd5b6106ce6040516106bf90614a57565b60405190819003902082611b3d565b60405160009033907f1b89874203ff7f0bba87c969ada3f32fda22ed38a6706d35199d21280c7811b190610703908590614e59565b60405180910390a350565b600c546001600160a01b031681565b60008061072d8484600080611c81565b509150505b92915050565b610740610c6d565b61075c5760405162461bcd60e51b81526004016106a790614cba565b63485cc95560e01b6000819052600b6020527fb02e8939b0f404ff8031ba78359a0432081996dfc73e129d331885260692a7955460ff16156107b05760405162461bcd60e51b81526004016106a790614c3a565b600c546001600160a01b03161580156107d25750600d546001600160a01b0316155b6107ee5760405162461bcd60e51b81526004016106a790614c9a565b6107f78361170f565b610800826117b5565b6001600160e01b0319166000908152600b60205260409020805460ff191660011790555050565b6002546001600160a01b031681565b61083e610c6d565b61085a5760405162461bcd60e51b81526004016106a790614cba565b600c546040516370a0823160e01b81526001600160a01b039091169060009082906370a082319061088f903090600401614a7b565b60206040518083038186803b1580156108a757600080fd5b505afa1580156108bb573d6000803e3d6000fd5b505050506040513d601f19601f820116820180604052506108df9190810190613ded565b9050808311156109015760405162461bcd60e51b81526004016106a790614c5a565b61091b6001600160a01b038316858563ffffffff611fd916565b50505050565b600360209081526000928352604080842090915290825290205463ffffffff808216916401000000008104909116906001600160601b03600160401b8204811691600160a01b90041684565b610975610c6d565b6109915760405162461bcd60e51b81526004016106a790614cba565b61099a81612032565b6109b65760405162461bcd60e51b81526004016106a790614cea565b6109c760098263ffffffff61206b16565b50336001600160a01b03167fe7902ff5b883e069d72db554511b4f7122428c996decf30682b312a66879668a82604051610a019190614a6d565b60405180910390a250565b600560209081526000928352604080842090915290825290205481565b600c546001600160a01b0316610a3e826120cb565b6000805b8351811015610bf8576000848281518110610a5957fe5b60200260200101516001600160a01b031663164e68de306040518263ffffffff1660e01b8152600401610a8c9190614a7b565b602060405180830381600087803b158015610aa657600080fd5b505af1158015610aba573d6000803e3d6000fd5b505050506040513d601f19601f82011682018060405250610ade9190810190613ded565b90508015610bef57604051632e1a7d4d60e01b81526001600160a01b03851690632e1a7d4d90610b12908490600401614dba565b600060405180830381600087803b158015610b2c57600080fd5b505af1158015610b40573d6000803e3d6000fd5b505050506000610b688260405180608001604052806048815260200161509460489139612122565b9050610b8d84826040518060800160405280604e8152602001615046604e9139612151565b9350858381518110610b9b57fe5b60200260200101516001600160a01b0316336001600160a01b03167fd915b7f9d8d5ce11af1f5961b830d7d7c01a750927706eb0bcbf80a8827d76cc84604051610be59190614dba565b60405180910390a3505b50600101610a42565b506001600160601b03811615610c1757610c176040516106bf90614a57565b505050565b604051610c2890614a57565b60405190819003902081565b6007602052600090815260409020546001600160601b031681565b6001546001600160a01b031681565b6000546001600160a01b031690565b600080546001600160a01b0316610c8261218f565b6001600160a01b031614905090565b606060008263ffffffff1611610cb95760405162461bcd60e51b81526004016106a790614d9a565b6001600160a01b0384166000908152600460205260408120549081610cdf576000610ce4565b600182035b905084811015610cf65750610da09050565b6000610d218563ffffffff16610d15888561219390919063ffffffff16565b9063ffffffff6121d516565b600101905080604051908082528060200260200182016040528015610d50578160200160208202803883390190505b50935060005b8451811015610d9b576000610d778a8a8963ffffffff1685028b018a611c81565b50905080868381518110610d8757fe5b602090810291909101015250600101610d56565b505050505b949350505050565b600d546001600160a01b031681565b600160085414610dd95760405162461bcd60e51b81526004016106a790614d2a565b600260085560008515610e5557610e268787808060200260200160405190810160405280939291908181526020018383602002808284376000920191909152508792508691506122179050565b9050610e52818463ffffffff16036040518060600160405280603c8152602001614fc5603c9139612412565b92505b60005b88811015610f335763ffffffff8416610e7057610f33565b6000808b8b84818110610e7f57fe5b9050602002016020610e949190810190613a98565b3360009081526005602090815260408083206001600160a01b0385168452909152902054909150610ec682888861243a565b935060009050610edc848363ffffffff61219316565b90508115610ef757610ef581600163ffffffff61271e16565b505b610f21818963ffffffff16036040518060600160405280603c8152602001614fc5603c9139612412565b97505060019093019250610e58915050565b508315610fc657610f978585808060200260200160405190810160405280939291908181526020016000905b82821015610f8b57610f7c60408302860136819003810190613dcf565b81526020019060010190610f5f565b50505050508484612743565b9050610fc3818463ffffffff16036040518060600160405280603c8152602001614fc5603c9139612412565b92505b5050600160085550505050505050565b610fde610c6d565b610ffa5760405162461bcd60e51b81526004016106a790614cba565b61100b60098263ffffffff6128e416565b50336001600160a01b03167f7b8bddb144d9ebd8a4fa3f47acac7c75b34ade822d5e528a442825fa9100ffdb82604051610a019190614a6d565b60005b8181101561109d5761107983838381811061105f57fe5b90506020020160206110749190810190613a98565b612032565b6110955760405162461bcd60e51b81526004016106a790614d7a565b600101611048565b50600154604051630f7e7aab60e41b81526000916001600160a01b03169063f7e7aab0906110d390869086903090600401614b2a565b602060405180830381600087803b1580156110ed57600080fd5b505af1158015611101573d6000803e3d6000fd5b505050506040513d601f19601f820116820180604052506111259190810190613ded565b600c549091506001600160a01b031681156111cf57604051632e1a7d4d60e01b81526001600160a01b03821690632e1a7d4d90611166908590600401614dba565b600060405180830381600087803b15801561118057600080fd5b505af1158015611194573d6000803e3d6000fd5b5050505060006111bc8360405180608001604052806045815260200161500160459139612122565b90506111cd6040516106bf90614a57565b505b336001600160a01b03167fea588ee3c471f3c47a77b5d118007e77b1d74e5b310a8805df274aa067d2e8a6836040516112089190614dba565b60405180910390a250505050565b6001600854146112385760405162461bcd60e51b81526004016106a790614d2a565b600260085561124883838361243a565b50506001600855505050565b63aa5036e960e01b6000819052600b6020527fa02e544f58192f4f5f2c12a2ad94a37e02b3cc3232372e81b417611b94ccf0e85460ff16156112a85760405162461bcd60e51b81526004016106a790614c3a565b6112b0610c6d565b6112cc5760405162461bcd60e51b81526004016106a790614cba565b670c320cbdb1f8e260690387108582e4ba67e98069015437959820bab0d48073db107fa69e33f05180a4c2ce9c2e7cb481645c2d73efc78fc7d48b64958315949279ba181c2114abbd600061131f610c5e565b6001600160a01b03168660405161133590614a62565b60006040518083038185875af1925050503d8060008114611372576040519150601f19603f3d011682016040523d82523d6000602084013e611377565b606091505b50509050806113985760405162461bcd60e51b81526004016106a790614d1a565b6113ba6113a3610c5e565b6001600160a01b038516908763ffffffff611fd916565b6113dc6113c5610c5e565b6001600160a01b038416908663ffffffff611fd916565b5050506001600160e01b03199093166000908152600b60205260409020805460ff19166001179055505050565b6001600160a01b03821661142f5760405162461bcd60e51b81526004016106a790614baa565b6000816001600160601b0316116114585760405162461bcd60e51b81526004016106a790614b9a565b6040516323b872dd60e01b81526000906001600160a01b038416906323b872dd9061148b90339030908790600401614a89565b602060405180830381600087803b1580156114a557600080fd5b505af11580156114b9573d6000803e3d6000fd5b505050506040513d601f19601f820116820180604052506114dd9190810190613d93565b9050806114fc5760405162461bcd60e51b81526004016106a790614cfa565b600c546001600160a01b0390811690841681141561158a57604051632e1a7d4d60e01b81526001600160a01b03821690632e1a7d4d90611540908690600401614e59565b600060405180830381600087803b15801561155a57600080fd5b505af115801561156e573d6000803e3d6000fd5b5050505060405161157e90614a57565b60405190819003902093505b6115948484611b3d565b836001600160a01b0316336001600160a01b03167f1b89874203ff7f0bba87c969ada3f32fda22ed38a6706d35199d21280c7811b1856040516115d79190614e59565b60405180910390a350505050565b60606115f160096129ef565b905090565b600080600080611607856000612a95565b50505092509250925060006116b4670de0b6b3a7640000610d15600d60009054906101000a90046001600160a01b03166001600160a01b0316637ff9b5966040518163ffffffff1660e01b815260040160206040518083038186803b15801561166f57600080fd5b505afa158015611683573d6000803e3d6000fd5b505050506040513d601f19601f820116820180604052506116a79190810190613ded565b859063ffffffff612b0f16565b90506116d6816116ca868663ffffffff61271e16565b9063ffffffff61271e16565b9695505050505050565b6000806116ef86868686611c81565b509695505050505050565b600b6020526000908152604090205460ff1681565b611717610c6d565b6117335760405162461bcd60e51b81526004016106a790614cba565b61173c81612032565b6117585760405162461bcd60e51b81526004016106a790614d0a565b600c546040516001600160a01b0380841692169033907ec53b30140bc38db3a9070249d614e03304ada9e458b2d2f01d23feed00985a90600090a4600c80546001600160a01b0319166001600160a01b0392909216919091179055565b6117bd610c6d565b6117d95760405162461bcd60e51b81526004016106a790614cba565b6117e281612032565b6117fe5760405162461bcd60e51b81526004016106a790614d6a565b600d546040516001600160a01b0380841692169033907f3c7cb112c78d4f107a2edca00a338683b1af8596146efc6b1be8674f6f0ae3d090600090a4600d80546001600160a01b0319166001600160a01b0392909216919091179055565b60046020526000908152604090205481565b611876610c6d565b6118925760405162461bcd60e51b81526004016106a790614cba565b61189b81612b49565b50565b60066020526000908152604090205481565b60025460405163ca6860df60e01b8152600091829182916001600160a01b03169063ca6860df906118e5908a90600401614a6d565b60206040518083038186803b1580156118fd57600080fd5b505afa158015611911573d6000803e3d6000fd5b505050506040513d601f19601f820116820180604052506119359190810190613d93565b156119485750600091508190508061065b565b600084116119685760405162461bcd60e51b81526004016106a790614d9a565b6001600160a01b03808716600081815260046020908152604080832054948c16835260058252808320938352929052205481811015806119a6575081155b156119ba575092506000915081905061065b565b60008188116119c957816119cb565b875b905060006119df828963ffffffff61271e16565b90508381106119eb5750825b815b81811015611b27576000600360008d6001600160a01b03166001600160a01b03168152602001908152602001600020600083815260200190815260200160002090506000600260009054906101000a90046001600160a01b03166001600160a01b03166337e6b1c18f60018560000160009054906101000a900463ffffffff16038560000160049054906101000a900463ffffffff166040518463ffffffff1660e01b8152600401611aa193929190614b02565b60206040518083038186803b158015611ab957600080fd5b505afa158015611acd573d6000803e3d6000fd5b505050506040513d601f19601f82011682018060405250611af19190810190613e0b565b90506001600160601b03811615611b1d578260010186841160019950995099505050505050505061065b565b50506001016119ed565b509a918b11995060009850909650505050505050565b6001600160a01b0382166000908152600660205260409020546202a300429190910310611bf6576001600160a01b03821660009081526006602090815260408083204290556007825280832054815160608101909252603b808352611bb9936001600160601b0390921692869290919061515e90830139612151565b6001600160a01b038416600090815260076020526040902080546bffffffffffffffffffffffff191690559050611bf08382612bca565b50611c7d565b6001600160a01b038216600090815260076020908152604091829020548251608081019093526046808452611c41936001600160601b0390921692859291906151df90830139612151565b6001600160a01b038316600090815260076020526040902080546bffffffffffffffffffffffff19166001600160601b03929092169190911790555b5050565b60025460405163ca6860df60e01b815260009182916001600160a01b039091169063ca6860df90611cb6908990600401614a6d565b60206040518083038186803b158015611cce57600080fd5b505afa158015611ce2573d6000803e3d6000fd5b505050506040513d601f19601f82011682018060405250611d069190810190613d93565b15611d1657506000905080611fd0565b6001600160a01b03808716600090815260056020908152604080832093891683529290529081205490818611611d4c5781611d4e565b855b905060008563ffffffff1611611d7c576001600160a01b038716600090815260046020526040902054611d87565b611d87818887612e3b565b6001600160a01b0388166000908152600460205260409020549093508110611db5575060009250611fd09050565b600080825b85811015611fca57611dca6138b1565b506001600160a01b03808b16600090815260036020908152604080832085845282528083208151608081018352905463ffffffff80821683526401000000008204169382018490526001600160601b03600160401b8204811683850152600160a01b90910416606082015260025491516372ec979560e01b8152909491909116916372ec979591611e5e9190600401614df1565b60206040518083038186803b158015611e7657600080fd5b505afa158015611e8a573d6000803e3d6000fd5b505050506040513d601f19601f82011682018060405250611eae9190810190613ded565b9050600085821415611ec1575083611f6a565b600260009054906101000a90046001600160a01b03166001600160a01b03166337e6b1c18f600186600001510386602001516040518463ffffffff1660e01b8152600401611f1193929190614b02565b60206040518083038186803b158015611f2957600080fd5b505afa158015611f3d573d6000803e3d6000fd5b505050506040513d601f19601f82011682018060405250611f619190810190613e0b565b90508094508195505b6000611fa684604001516001600160601b0316610d15846001600160601b031687606001516001600160601b0316612b0f90919063ffffffff16565b9050611fb88b8263ffffffff61271e16565b9a505060019093019250611dba915050565b50505050505b94509492505050565b604051610c1790849063a9059cbb60e01b90611ffb9086908690602401614ad9565b60408051601f198184030181529190526020810180516001600160e01b03166001600160e01b031990931692909217909152612efc565b6000813f7fc5d2460186f7233c927e7db2dcc703c0e500b653ca82273b7bfad8045d85a470818114801590610da0575050151592915050565b60006120778383612fe1565b6120c35750600182810180548083018083556000928352602080842090920180546001600160a01b0319166001600160a01b038716908117909155835290859052604090912055610732565b506000610732565b60005b8151811015611c7d576120fe8282815181106120e657fe5b60200260200101516009612fe190919063ffffffff16565b61211a5760405162461bcd60e51b81526004016106a790614c2a565b6001016120ce565b600081600160601b84106121495760405162461bcd60e51b81526004016106a79190614b89565b509192915050565b6000838301826001600160601b0380871690831610156121845760405162461bcd60e51b81526004016106a79190614b89565b5090505b9392505050565b3390565b600061218883836040518060400160405280601e81526020017f536166654d6174683a207375627472616374696f6e206f766572666c6f770000815250612fff565b600061218883836040518060400160405280601a81526020017f536166654d6174683a206469766973696f6e206279207a65726f00000000000081525061302b565b600061222284613062565b6001600160a01b038216612234573391505b6000805b855181101561233a5763ffffffff85166122515761233a565b600086828151811061225f57fe5b6020908102919091018101513360009081526005835260408082206001600160a01b0384168352909352918220548951919350919081906122b4908b90879081106122a657fe5b60200260200101518a61310c565b90925090506122c9868363ffffffff61271e16565b955060006122dd828563ffffffff61219316565b905083156122f8576122f681600163ffffffff61271e16565b505b8088019750612327818b63ffffffff16036040518060600160405280603c8152602001614fc5603c9139612412565b9950506001909401935061223892505050565b50801561240a576000836001600160a01b03168260405161235a90614a62565b60006040518083038185875af1925050503d8060008114612397576040519150601f19603f3d011682016040523d82523d6000602084013e61239c565b606091505b50509050806123bd5760405162461bcd60e51b81526004016106a790614c0a565b836001600160a01b0316336001600160a01b03167fba7771603337d6821ea291d76396cf6aa3ea405141b033d8415280139c980c1d846040516124009190614dba565b60405180910390a3505b509392505050565b60008164010000000084106121495760405162461bcd60e51b81526004016106a79190614b89565b60008060008463ffffffff16116124635760405162461bcd60e51b81526004016106a790614cca565b336001600160a01b038416612476573393505b6001600160a01b038082166000908152600560209081526040808320938a1683529290529081205490806124ac848a858b611c81565b91509150816000141561255e578281111561254657886001600160a01b0316336001600160a01b03167fd3d8b561a0f93295b4ea7e2b930d36bd7f1a38774547bf98fb66540f588217b28584604051612506929190614de3565b60405180910390a36001600160a01b039384166000908152600560209081526040808320968c168352959052938420819055929450919250612716915050565b60405162461bcd60e51b81526004016106a790614bca565b6001600160a01b0380851660009081526005602090815260408083208d85168085529252909120839055600d54909116141561261d57604051630141abc160e21b81526001600160a01b038a1690630506af04906125c5908a908690600090600401614af4565b602060405180830381600087803b1580156125df57600080fd5b505af11580156125f3573d6000803e3d6000fd5b505050506040513d601f19601f820116820180604052506126179190810190613ded565b506126b9565b60405163a9059cbb60e01b81526001600160a01b038a169063a9059cbb9061264b908a908690600401614ad9565b602060405180830381600087803b15801561266557600080fd5b505af1158015612679573d6000803e3d6000fd5b505050506040513d601f19601f8201168201806040525061269d9190810190613d93565b6126b95760405162461bcd60e51b81526004016106a790614d4a565b886001600160a01b0316876001600160a01b0316336001600160a01b03167fe635adc5d0c2d7b47215ce5ed57a79c3db183a1ef414ccfc43f24f19178a630f856040516127069190614dba565b60405180910390a4909450925050505b935093915050565b6000828201838110156121885760405162461bcd60e51b81526004016106a790614c1a565b600061274f8433613274565b6001600160a01b038216612761573391505b6000805b855181101561233a576127766138d8565b86828151811061278257fe5b602002602001015190508563ffffffff16600014156127a1575061233a565b33600090815260056020908152604080832084516001600160a01b03168452825282205490830151829190829082106127da57816127e0565b84602001515b600c5486519192506001600160a01b03918216911614806128105750600d5485516001600160a01b039081169116145b8061283c575060405161282290614a57565b60405190819003902085516001600160a01b039081169116145b1561287057612855856000015186602001518c8c6135b4565b94509250612869878463ffffffff61271e16565b9650612888565b612884856000015186602001518c8c613636565b9450505b600061289f60016116ca878563ffffffff61219316565b905080890198506128d0818c63ffffffff16036040518060600160405280603c8152602001614fc5603c9139612412565b9a5050600190950194506127659350505050565b60006128f08383612fe1565b156120c3576001600160a01b0382166000908152602084905260409020546001840154600019918201910180821461299b57600085600101828154811061293357fe5b6000918252602090912001546001870180546001600160a01b03909216925082918590811061295e57fe5b600091825260208083209190910180546001600160a01b0319166001600160a01b0394851617905592909116815290869052604090206001830190555b6001600160a01b038416600090815260208690526040812055600185018054806129c157fe5b600082815260209020810160001990810180546001600160a01b031916905501905550600191506107329050565b6060808260010180549050604051908082528060200260200182016040528015612a23578160200160208202803883390190505b50905060005b6001840154811015612a8e57836001018181548110612a4457fe5b9060005260206000200160009054906101000a90046001600160a01b0316828281518110612a6e57fe5b6001600160a01b0390921660209283029190910190910152600101612a29565b5092915050565b600080600080600080612abf88604051612aae90614a57565b60405190819003902060008a611c81565b600c549197509350612ade9089906001600160a01b031660008a611c81565b600d549196509250612afd9089906001600160a01b031660008a611c81565b80925081955050509295509295509295565b600082612b1e57506000610732565b82820282848281612b2b57fe5b04146121885760405162461bcd60e51b81526004016106a790614caa565b6001600160a01b038116612b6f5760405162461bcd60e51b81526004016106a790614bea565b600080546040516001600160a01b03808516939216917f8be0079c531659141344cd1fd0a4f28419497f9722a3daafe3b4186f6b6457e091a3600080546001600160a01b0319166001600160a01b0392909216919091179055565b6000612bee436040518060800160405280604381526020016150dc60439139612412565b90506000612c144260405180608001604052806046815260200161519960469139612412565b6001600160a01b038516600090815260046020526040812054919250612c3e6000198501426136b9565b90506000816001600160601b031611612c695760405162461bcd60e51b81526004016106a790614d8a565b600082118015612ca857506001600160a01b03861660009081526003602090815260408083206000198601845290915290205463ffffffff8581169116145b15612d17576001600160a01b03868116600090815260036020908152604080832060001987018452909152902080546001600160601b03888116600160a01b02908516600160401b026bffffffffffffffffffffffff60401b1990921691909117909216919091179055612de8565b6040805160808101825263ffffffff868116825285811660208084019182526001600160601b038681168587019081528b8216606087019081526001600160a01b038e81166000818152600387528a81208d825287528a812099518a5498519551945163ffffffff19909916908a161767ffffffff0000000019166401000000009590991694909402979097176bffffffffffffffffffffffff60401b1916600160401b928516929092029190911716600160a01b9490921693909302179093559081526004909152206001830190555b856001600160a01b0316336001600160a01b03167ff61a5f2f4d0b2d871d5bf18717d08a6b0f543afa7e08dad5df1fea150f72963287604051612e2b9190614e59565b60405180910390a3505050505050565b6001600160a01b03821660009081526004602052604081205480612e63576000915050612188565b600063ffffffff8416612e77575080612eb4565b612ea18463ffffffff1687016040518060600160405280603f815260200161511f603f9139612412565b63ffffffff16905081811115612eb45750805b6001600160a01b03851660009081526003602090815260408083206000198501845290915290205463ffffffff1643811415612ef257600019909101905b5095945050505050565b612f0e826001600160a01b0316612032565b612f2a5760405162461bcd60e51b81526004016106a790614daa565b60006060836001600160a01b031683604051612f469190614a4b565b6000604051808303816000865af19150503d8060008114612f83576040519150601f19603f3d011682016040523d82523d6000602084013e612f88565b606091505b509150915081612faa5760405162461bcd60e51b81526004016106a790614c6a565b80511561091b5780806020019051612fc59190810190613d93565b61091b5760405162461bcd60e51b81526004016106a790614d5a565b6001600160a01b031660009081526020919091526040902054151590565b600081848411156130235760405162461bcd60e51b81526004016106a79190614b89565b505050900390565b6000818361304c5760405162461bcd60e51b81526004016106a79190614b89565b50600083858161305857fe5b0495945050505050565b60005b8151811015611c7d57600082828151811061307c57fe5b6020026020010151905060405161309290614a57565b604051809103902060001c6001600160a01b0316816001600160a01b0316141580156130cc5750600c546001600160a01b03828116911614155b80156130e65750600d546001600160a01b03828116911614155b156131035760405162461bcd60e51b81526004016106a790614bda565b50600101613065565b600c54600090819033906001600160a01b031661312a8683876137e8565b9094509250831561326b576001600160a01b0380831660009081526005602090815260408083208a8516808552925290912085905590821614156131cb57604051632e1a7d4d60e01b81526001600160a01b03821690632e1a7d4d90613194908790600401614dba565b600060405180830381600087803b1580156131ae57600080fd5b505af11580156131c2573d6000803e3d6000fd5b5050505061326b565b600d546001600160a01b038781169116141561326b57600d54604051630141abc160e21b81526001600160a01b0390911690630506af04906132169030908890600090600401614ab1565b602060405180830381600087803b15801561323057600080fd5b505af1158015613244573d6000803e3d6000fd5b505050506040513d601f19601f820116820180604052506132689190810190613ded565b93505b50509250929050565b60005b8251811015610c17576132886138d8565b83828151811061329457fe5b6020026020010151905060018160200151116132c25760405162461bcd60e51b81526004016106a790614cda565b602080820180516001600160a01b038087166000908152600585526040808220875190931682529190945290922054905160001990920191116133175760405162461bcd60e51b81526004016106a790614d3a565b81516001600160a01b03166000908152600460209081526040909120549083015111156133565760405162461bcd60e51b81526004016106a790614bfa565b61335e6138b1565b5081516001600160a01b03908116600090815260036020908152604080832060001980870185529083528184208251608081018452905463ffffffff80821680845264010000000083049091169583018690526001600160601b03600160401b8304811684870152600160a01b909204909116606083015260025493516337e6b1c160e01b8152919693909316936337e6b1c193613404938c9391019190600401614b02565b60206040518083038186803b15801561341c57600080fd5b505afa158015613430573d6000803e3d6000fd5b505050506040513d601f19601f820116820180604052506134549190810190613e0b565b90506001600160601b0381161561347d5760405162461bcd60e51b81526004016106a790614c8a565b6134856138b1565b5083516001600160a01b0390811660009081526003602090815260408083208784528252918290208251608081018452905463ffffffff80821680845264010000000083049091169383018490526001600160601b03600160401b8304811684870152600160a01b909204909116606083015260025493516337e6b1c160e01b8152919493909316926337e6b1c192613528928c92600019019190600401614b02565b60206040518083038186803b15801561354057600080fd5b505afa158015613554573d6000803e3d6000fd5b505050506040513d601f19601f820116820180604052506135789190810190613e0b565b91506000826001600160601b0316116135a35760405162461bcd60e51b81526004016106a790614c4a565b505060019093019250613277915050565b600080806135c986600163ffffffff61219316565b3360009081526005602090815260408083206001600160a01b038c16845290915290205490915081111561361e573360009081526005602090815260408083206001600160a01b038b16845290915290208190555b613628878661310c565b925092505094509492505050565b6000808061364b86600163ffffffff61219316565b3360009081526005602090815260408083206001600160a01b038c1684529091529020549091508111156136a0573360009081526005602090815260408083206001600160a01b038b16845290915290208190555b6136ab87868661243a565b909890975095505050505050565b60025460405163cdbe715560e01b815260009182916001600160a01b039091169063cdbe7155906136f09087908790600401614dff565b60206040518083038186803b15801561370857600080fd5b505afa15801561371c573d6000803e3d6000fd5b505050506040513d601f19601f820116820180604052506137409190810190613e0b565b6002546040516312916bdd60e11b81529192506001600160a01b031690632522d7ba906137739087908790600401614e0d565b60206040518083038186803b15801561378b57600080fd5b505afa15801561379f573d6000803e3d6000fd5b505050506040513d601f19601f820116820180604052506137c39190810190613e0b565b9150610da082826040518060800160405280605681526020016152256056913961387a565b6000806040516137f790614a57565b604051809103902060001c6001600160a01b0316856001600160a01b0316148061382e5750600c546001600160a01b038681169116145b806138465750600d546001600160a01b038681169116145b15613862576138588486600086611c81565b9092509050612716565b60405162461bcd60e51b81526004016106a790614bba565b6000836001600160601b0316836001600160601b0316111582906130235760405162461bcd60e51b81526004016106a79190614b89565b60408051608081018252600080825260208201819052918101829052606081019190915290565b604080518082019091526000808252602082015290565b803561073281614f83565b60008083601f84011261390c57600080fd5b50813567ffffffffffffffff81111561392457600080fd5b60208301915083602082028301111561393c57600080fd5b9250929050565b600082601f83011261395457600080fd5b813561396761396282614e9c565b614e75565b9150818183526020840193506020810190508385602084028201111561398c57600080fd5b60005b838110156139b857816139a288826138ef565b845250602092830192919091019060010161398f565b5050505092915050565b60008083601f8401126139d457600080fd5b50813567ffffffffffffffff8111156139ec57600080fd5b60208301915083604082028301111561393c57600080fd5b805161073281614f97565b803561073281614fa0565b600060408284031215613a2c57600080fd5b613a366040614e75565b90506000613a4484846138ef565b8252506020613a5584848301613a61565b60208301525092915050565b803561073281614fa9565b805161073281614fa9565b803561073281614fb2565b803561073281614fbb565b805161073281614fbb565b600060208284031215613aaa57600080fd5b6000610da084846138ef565b60008060408385031215613ac957600080fd5b6000613ad585856138ef565b9250506020613ae6858286016138ef565b9150509250929050565b60008060008060808587031215613b0657600080fd5b6000613b1287876138ef565b9450506020613b23878288016138ef565b9350506040613b3487828801613a61565b9250506060613b4587828801613a61565b91505092959194509250565b60008060008060808587031215613b6757600080fd5b6000613b7387876138ef565b9450506020613b84878288016138ef565b9350506040613b9587828801613a61565b9250506060613b4587828801613a77565b60008060408385031215613bb957600080fd5b6000613bc585856138ef565b9250506020613ae685828601613a61565b600080600060608486031215613beb57600080fd5b6000613bf786866138ef565b9350506020613c0886828701613a77565b9250506040613c19868287016138ef565b9150509250925092565b60008060408385031215613c3657600080fd5b6000613c4285856138ef565b9250506020613ae685828601613a82565b60008060208385031215613c6657600080fd5b823567ffffffffffffffff811115613c7d57600080fd5b613c89858286016138fa565b92509250509250929050565b60008060008060008060008060a0898b031215613cb157600080fd5b883567ffffffffffffffff811115613cc857600080fd5b613cd48b828c016138fa565b9850985050602089013567ffffffffffffffff811115613cf357600080fd5b613cff8b828c016138fa565b9650965050604089013567ffffffffffffffff811115613d1e57600080fd5b613d2a8b828c016139c2565b94509450506060613d3d8b828c01613a77565b9250506080613d4e8b828c016138ef565b9150509295985092959890939650565b600060208284031215613d7057600080fd5b813567ffffffffffffffff811115613d8757600080fd5b610da084828501613943565b600060208284031215613da557600080fd5b6000610da08484613a04565b600060208284031215613dc357600080fd5b6000610da08484613a0f565b600060408284031215613de157600080fd5b6000610da08484613a1a565b600060208284031215613dff57600080fd5b6000610da08484613a6c565b600060208284031215613e1d57600080fd5b6000610da08484613a8d565b6000613e358383613e58565b505060200190565b6000613e358383614a1e565b613e5281614f25565b82525050565b613e5281614ee7565b6000613e6d8385614eca565b9350613e7882614ebd565b8060005b85811015613eae57613e8e8284614ed8565b613e988882613e29565b9750613ea383614ec0565b925050600101613e7c565b509495945050505050565b6000613ec482614ec6565b613ece8185614eca565b9350613ed983614ec0565b8060005b83811015613eae578151613ef18882613e29565b9750613efc83614ec0565b925050600101613edd565b6000613f1282614ec6565b613f1c8185614eca565b9350613f2783614ec0565b8060005b83811015613eae578151613f3f8882613e3d565b9750613f4a83614ec0565b925050600101613f2b565b613e5281614ef2565b6000613f6982614ec6565b613f738185614ed3565b9350613f83818560208601614f4d565b9290920192915050565b613e5281614f2c565b6000613fa182614ec6565b613fab8185614eca565b9350613fbb818560208601614f4d565b613fc481614f79565b9093019392505050565b6000613fdb603383614eca565b7f46656553686172696e67436f6c6c6563746f723a3a7472616e73666572546f6b815272195b9cce881a5b9d985b1a5908185b5bdd5b9d606a1b602082015260400192915050565b6000614030603483614eca565b7f46656553686172696e67436f6c6c6563746f723a3a7472616e73666572546f6b815273656e733a20696e76616c6964206164647265737360601b602082015260400192915050565b6000614086604883614eca565b7f46656553686172696e67436f6c6c6563746f723a3a5f6765745242544342616c81527f616e63653a206f6e6c7920726274632d626173656420746f6b656e732061726560208201526708185b1b1bddd95960c21b604082015260600192915050565b60006140f6603b83614eca565b7f46656553686172696e67436f6c6c6563746f723a3a776974686472617746656581527f733a206e6f20746f6b656e7320666f72207769746864726177616c0000000000602082015260400192915050565b6000614155602283614eca565b7f6f6e6c7920726274632d626173656420746f6b656e732061726520616c6c6f77815261195960f21b602082015260400192915050565b6000614199602683614eca565b7f4f776e61626c653a206e6577206f776e657220697320746865207a65726f206181526564647265737360d01b602082015260400192915050565b60006141e1603283614eca565b7f5f66726f6d436865636b706f696e742073686f756c64206265203c3d20746f74815271616c546f6b656e436865636b706f696e747360701b602082015260400192915050565b6000614235603483614eca565b7f46656553686172696e67436f6c6c6563746f723a3a776974686472617752425481527310ce8815da5d1a191c985dd85b0819985a5b195960621b602082015260400192915050565b600061428b601b83614eca565b7f536166654d6174683a206164646974696f6e206f766572666c6f770000000000815260200192915050565b60006142c4601183614eca565b7024b73b30b634b21021b7b73b32b93a32b960791b815260200192915050565b60006142f1603583614eca565b7f46656553686172696e67436f6c6c6563746f723a2066756e6374696f6e2063618152746e206f6e6c792062652063616c6c6564206f6e636560581b602082015260400192915050565b6000614348603583614eca565b7f55736572207765696768746564207374616b652073686f756c64206265203e208152740c08185d080817d99c9bdb50da1958dadc1bda5b9d605a1b602082015260400192915050565b600061439f601483614eca565b73496e73756666696369656e742062616c616e636560601b815260200192915050565b60006143cf602083614eca565b7f5361666545524332303a206c6f772d6c6576656c2063616c6c206661696c6564815260200192915050565b6000614408603083614eca565b7f46656553686172696e67436f6c6c6563746f723a3a7472616e7366657252425481526f433a20696e76616c69642076616c756560801b602082015260400192915050565b600061445a603983614eca565b7f55736572207765696768746564207374616b652073686f756c64206265207a6581527f726f2061742070726576696f757320636865636b706f696e7400000000000000602082015260400192915050565b60006144b9603183614eca565b7f7772627463546f6b656e206f72206c6f616e5772627463546f6b656e20686173815270081899595b881a5b9a5d1a585b1a5e9959607a1b602082015260400192915050565b600061450c602183614eca565b7f536166654d6174683a206d756c7469706c69636174696f6e206f766572666c6f8152607760f81b602082015260400192915050565b600061454f600c83614eca565b6b1d5b985d5d1a1bdc9a5e995960a21b815260200192915050565b6000614577604183614eca565b7f46656553686172696e67436f6c6c6563746f723a3a77697468647261773a205f81527f6d6178436865636b706f696e74732073686f756c6420626520706f73697469766020820152606560f81b604082015260600192915050565b60006145e0602183614eca565b7f5f66726f6d436865636b706f696e7420706172616d206d757374206265203e208152603160f81b602082015260400192915050565b6000614623601a83614eca565b7f4e6f6e20636f6e7472616374206164647265737320676976656e000000000000815260200192915050565b600061465c602e83614eca565b7f5374616b696e673a3a7472616e73666572546f6b656e733a20746f6b656e207481526d1c985b9cd9995c8819985a5b195960921b602082015260400192915050565b60006146ac602183614ed3565b7f524254435f44554d4d595f414444524553535f464f525f434845434b504f494e8152601560fa1b602082015260210192915050565b60006146ef602383614eca565b7f6e65775772627463546f6b656e41646472657373206e6f74206120636f6e74728152621858dd60ea1b602082015260400192915050565b6000610732600083614ed3565b6000614741604a83614eca565b7f46656553686172696e67436f6c6c6563746f723a3a7265636f766572496e636f81527f7272656374416c6c6f6361746564466565733a205769746864726177616c2072602082015269189d18c819985a5b195960b21b604082015260600192915050565b60006147b3600c83614eca565b6b1b9bdb9499595b9d1c985b9d60a21b815260200192915050565b60006147db603883614eca565b7f5f66726f6d436865636b706f696e7420706172616d206d757374206265203e2081527f7573657250726f636573736564436865636b706f696e74730000000000000000602082015260400192915050565b600061483a603083614eca565b7f46656553686172696e67436f6c6c6563746f723a3a77697468647261773a207781526f1a5d1a191c985dd85b0819985a5b195960821b602082015260400192915050565b600061488c602a83614eca565b7f5361666545524332303a204552433230206f7065726174696f6e20646964206e8152691bdd081cdd58d8d9595960b21b602082015260400192915050565b60006148d8602783614eca565b7f6e65774c6f616e546f6b656e577262746341646472657373206e6f74206120638152661bdb9d1c9858dd60ca1b602082015260400192915050565b6000614921603a83614eca565b7f46656553686172696e67436f6c6c6563746f723a3a776974686472617746656581527f733a20746f6b656e206973206e6f74206120636f6e7472616374000000000000602082015260400192915050565b6000614980601a83614eca565b7f496e76616c696420746f74616c57656967687465645374616b65000000000000815260200192915050565b60006149b9601b83614eca565b7f5f6d6178436865636b706f696e7473206d757374206265203e20300000000000815260200192915050565b60006149f2601f83614eca565b7f5361666545524332303a2063616c6c20746f206e6f6e2d636f6e747261637400815260200192915050565b613e5281614ebd565b613e5281614f37565b613e5281614f10565b613e5281614f42565b613e5281614f19565b60006121888284613f5e565b60006107328261469f565b600061073282614727565b602081016107328284613e58565b602081016107328284613e49565b60608101614a978286613e49565b614aa46020830185613e49565b610da06040830184614a39565b60608101614abf8286613e49565b614acc6020830185614a1e565b610da06040830184613f55565b60408101614ae78285613e58565b6121886020830184614a1e565b60608101614abf8286613e58565b60608101614b108286613e58565b614b1d6020830185614a27565b610da06040830184614a27565b60408082528101614b3c818587613e61565b9050610da06020830184613e49565b602080825281016121888184613eb9565b602080825281016121888184613f07565b602081016107328284613f55565b602081016107328284613f8d565b602080825281016121888184613f96565b6020808252810161073281613fce565b6020808252810161073281614023565b6020808252810161073281614079565b60208082528101610732816140e9565b6020808252810161073281614148565b602080825281016107328161418c565b60208082528101610732816141d4565b6020808252810161073281614228565b602080825281016107328161427e565b60208082528101610732816142b7565b60208082528101610732816142e4565b602080825281016107328161433b565b6020808252810161073281614392565b60208082528101610732816143c2565b60208082528101610732816143fb565b602080825281016107328161444d565b60208082528101610732816144ac565b60208082528101610732816144ff565b6020808252810161073281614542565b602080825281016107328161456a565b60208082528101610732816145d3565b6020808252810161073281614616565b602080825281016107328161464f565b60208082528101610732816146e2565b6020808252810161073281614734565b60208082528101610732816147a6565b60208082528101610732816147ce565b602080825281016107328161482d565b602080825281016107328161487f565b60208082528101610732816148cb565b6020808252810161073281614914565b6020808252810161073281614973565b60208082528101610732816149ac565b60208082528101610732816149e5565b602081016107328284614a1e565b60608101614dd68286614a1e565b614acc6020830185613f55565b60408101614ae78285614a1e565b602081016107328284614a27565b60408101614ae78285614a27565b60408101614ae78285614a30565b60808101614e298287614a30565b614e366020830186614a30565b614e436040830185614a42565b614e506060830184614a42565b95945050505050565b602081016107328284614a39565b602081016107328284614a42565b60405181810167ffffffffffffffff81118282101715614e9457600080fd5b604052919050565b600067ffffffffffffffff821115614eb357600080fd5b5060209081020190565b90565b60200190565b5190565b90815260200190565b919050565b600061218860208401846138ef565b600061073282614f04565b151590565b6001600160e01b03191690565b6001600160a01b031690565b63ffffffff1690565b6001600160601b031690565b6000610732825b600061073282614ee7565b600061073282614f10565b600061073282614f19565b60005b83811015614f68578181015183820152602001614f50565b8381111561091b5750506000910152565b601f01601f191690565b614f8c81614ee7565b811461189b57600080fd5b614f8c81614ef2565b614f8c81614ef7565b614f8c81614ebd565b614f8c81614f10565b614f8c81614f1956fe46656553686172696e67436f6c6c6563746f723a206d6178436865636b706f696e7420697465726174696f6e2065786365656473203332206269747346656553686172696e67436f6c6c6563746f723a3a7769746864726177466565733a20777262746320746f6b656e20616d6f756e742065786365656473203936206269747346656553686172696e67436f6c6c6563746f723a3a776974686472617746656573414d4d3a20746f74616c20777262746320746f6b656e20616d6f756e742065786365656473203936206269747346656553686172696e67436f6c6c6563746f723a3a776974686472617746656573414d4d3a20777262746320746f6b656e20616d6f756e742065786365656473203936206269747346656553686172696e67436f6c6c6563746f723a3a5f7772697465436865636b706f696e743a20626c6f636b206e756d6265722065786365656473203332206269747346656553686172696e67436f6c6c6563746f723a3a77697468647261773a20636865636b706f696e7420696e6465782065786365656473203332206269747346656553686172696e67436f6c6c6563746f723a3a5f616464436865636b706f696e743a20616d6f756e742065786365656473203936206269747346656553686172696e67436f6c6c6563746f723a3a5f7772697465436865636b706f696e743a20626c6f636b2074696d657374616d702065786365656473203332206269747346656553686172696e67436f6c6c6563746f723a3a5f616464436865636b706f696e743a20756e70726f636573736564416d6f756e742065786365656473203936206269747346656553686172696e67436f6c6c6563746f723a3a5f676574546f74616c566f6c756e7461727957656967687465645374616b653a20766573746564207374616b65206578636565647320746f74616c207374616b65a365627a7a723158208d7fe9eb5f6f26ecf763937ca8c1d55539ab53166ca1197e91d730a8c39e159b6c6578706572696d656e74616cf564736f6c63430005110040",
  "devdoc": {
    "methods": {
      "addWhitelistedConverterAddress(address)": {
        "details": "Whitelisting converter address.",
        "params": {
          "converterAddress": "converter address to be whitelisted."
        }
      },
      "claimAllCollectedFees(address[],address[],(address,uint256)[],uint32,address)": {
        "details": "Function to wrap: 1. regular withdrawal for both rbtc & non-rbtc token 2. skipped checkpoints withdrawal for both rbtc & non-rbtc token",
        "params": {
          "_nonRbtcTokensRegularWithdraw": "array of non-rbtc token address with no skipped checkpoints that will be withdrawn",
          "_rbtcTokensRegularWithdraw": "array of rbtc token address with no skipped checkpoints that will be withdrawn",
          "_tokensWithSkippedCheckpoints": "array of rbtc & non-rbtc TokenWithSkippedCheckpointsWithdraw struct, which has skipped checkpoints that will be withdrawn     "
        }
      },
      "getAccumulatedFees(address,address)": {
        "params": {
          "_token": "RBTC dummy to fit into existing data structure or SOV. Former address of the pool token.",
          "_user": "The address of the user or contract."
        },
        "return": "The accumulated fee for the message sender."
      },
      "getAccumulatedFeesForCheckpointsRange(address,address,uint256,uint32)": {
        "details": "This function is required to keep consistent with caching of weighted voting power when claiming fees",
        "params": {
          "_maxCheckpoints": "maxCheckpoints to get accumulated fees for the _user",
          "_startFrom": "Checkpoint to start calculating fees from.",
          "_token": "RBTC dummy to fit into existing data structure or SOV. Former address of the pool token.",
          "_user": "The address of a user (staker) or contract."
        },
        "return": "The accumulated fees rewards for the _user in the given checkpoints interval: [_startFrom, _startFrom + maxCheckpoints]."
      },
      "getAccumulatedRBTCFeeBalances(address)": {
        "details": "view function that calculate the total RBTC that includes: - RBTC - WRBTC - iWRBTC * iWRBTC.tokenPrice()",
        "params": {
          "_user": "address of the user."
        },
        "return": "rbtc balance of the given user's address."
      },
      "getAllUserFeesPerMaxCheckpoints(address,address,uint256,uint32)": {
        "details": "Get all user fees reward per maxCheckpoint starting from latest processed checkpointe.g: Total user checkpoint for the particualar token = 300, when we call this function with 50 maxCheckpoint, it will return 6 fee values in array form. if there is no more fees, it will return empty array.",
        "params": {
          "_maxCheckpoints": "maxCheckpoints to get accumulated fees for the _user",
          "_startFrom": "Checkpoint to start calculating fees from.",
          "_token": "RBTC dummy to fit into existing data structure or SOV. Former address of the pool token.",
          "_user": "The address of a user (staker) or contract."
        },
        "return": "The next checkpoint num which is the starting point to fetch all of the fees, array of calculated fees."
      },
      "getNextPositiveUserCheckpoint(address,address,uint256,uint256)": {
        "details": "Returns first user's checkpoint with weighted stake > 0",
        "params": {
          "_maxCheckpoints": "Max checkpoints to process in a row to avoid timeout error",
          "_startFrom": "Checkpoint number to start from. If _startFrom < processedUserCheckpoints then starts from processedUserCheckpoints.",
          "_token": "RBTC dummy to fit into existing data structure or SOV. Former address of the pool token.",
          "_user": "The address of the user or contract."
        },
        "return": "[checkpointNum: checkpoint number where user's weighted stake > 0, hasSkippedCheckpoints, hasFees]"
      },
      "getWhitelistedConverterList()": {
        "return": "All of the whitelisted converter list."
      },
      "initialize(address,address)": {
        "details": "initialize function for fee sharing collector proxy",
        "params": {
          "loanWrbtcToken": "address of loan token wrbtc (IWrbtc)",
          "wrbtcToken": "wrbtc token address"
        }
      },
      "isOwner()": {
        "details": "Returns true if the caller is the current owner."
      },
      "numTokenCheckpoints(address)": {
        "details": "This getter function `numTokenCheckpoints` is added for backwards compatibility     broken when renamed `numTokenCheckpoints` storage variable to `totalTokenCheckpoints`.",
        "params": {
          "_token": "token address to get checkpoints for"
        },
        "return": "Total token checkpoints"
      },
      "owner()": {
        "details": "Returns the address of the current owner."
      },
      "recoverIncorrectAllocatedFees()": {
        "details": "This function is dedicated to recover the wrong fee allocation for the 4 year vesting contracts. This function can only be called once The affected tokens to be withdrawn 1. RBTC 2. ZUSD 3. SOV The amount for all of the tokens above is hardcoded The withdrawn tokens will be sent to the owner."
      },
      "removeWhitelistedConverterAddress(address)": {
        "details": "Removing converter address from whitelist.",
        "params": {
          "converterAddress": "converter address to be removed from whitelist."
        }
      },
      "setLoanTokenWrbtc(address)": {
        "params": {
          "newLoanTokenWrbtcAddress": "The new address of the loan wrbtc token."
        }
      },
      "setWrbtcToken(address)": {
        "params": {
          "newWrbtcTokenAddress": "The new address of the wrbtc token."
        }
      },
      "transferOwnership(address)": {
        "details": "Transfers ownership of the contract to a new account (`newOwner`). Can only be called by the current owner."
      },
      "transferRBTC()": {
        "details": "We just write checkpoint here (based on the rbtc value that is sent) in a separate methods in order to prevent adding checkpoints too often."
      },
      "transferTokens(address,uint96)": {
        "details": "We just update amount of tokens here and write checkpoint in a separate methods in order to prevent adding checkpoints too often.",
        "params": {
          "_amount": "Amount to be transferred.",
          "_token": "Address of the token."
        }
      },
      "withdraw(address,uint32,address)": {
        "params": {
          "_maxCheckpoints": "Maximum number of checkpoints to be processed. Must be positive value.",
          "_receiver": "The receiver of tokens or msg.sender",
          "_token": "RBTC dummy to fit into existing data structure or SOV. Former address of the pool token."
        }
      },
      "withdrawFees(address[])": {
        "params": {
          "_tokens": "array address of the token"
        }
      },
      "withdrawFeesAMM(address[])": {
        "params": {
          "_converters": "array addresses of the converters"
        }
      }
    },
    "title": "The FeeSharingCollector contract."
  },
  "userdoc": {
    "methods": {
      "getAccumulatedFees(address,address)": {
        "notice": "Get the accumulated loan pool fee of the message sender."
      },
      "getAccumulatedFeesForCheckpointsRange(address,address,uint256,uint32)": {
        "notice": "Get the accumulated fee rewards for the message sender for a checkpoints range"
      },
      "getWhitelistedConverterList()": {
        "notice": "Getter to query all of the whitelisted converter."
      },
      "setLoanTokenWrbtc(address)": {
        "notice": "Set the loan wrbtc token address of fee sharing collector.     * only owner can perform this action."
      },
      "setWrbtcToken(address)": {
        "notice": "Set the wrbtc token address of fee sharing collector.     * only owner can perform this action."
      },
      "transferRBTC()": {
        "notice": "Transfer RBTC / native tokens to this contract."
      },
      "transferTokens(address,uint96)": {
        "notice": "Transfer tokens to this contract."
      },
      "withdraw(address,uint32,address)": {
        "notice": "Withdraw accumulated fee to the message sender.     * The Sovryn protocol collects fees on every trade/swap and loan. These fees will be distributed to SOV stakers based on their voting power as a percentage of total voting power. Therefore, staking more SOV and/or staking for longer will increase your share of the fees generated, meaning you will earn more from staking.     * This function will directly burnToBTC and use the msg.sender (user) as the receiver"
      },
      "withdrawFees(address[])": {
        "notice": "Withdraw fees for the given token: lendingFee + tradingFee + borrowingFee the fees (except SOV) will be converted in wRBTC form, and then will be transferred to wRBTC loan pool. For SOV, it will be directly deposited into the feeSharingCollector from the protocol."
      },
      "withdrawFeesAMM(address[])": {
        "notice": "Withdraw amm fees for the given converter addresses: protocolFee from the conversion the fees will be converted in wRBTC form, and then will be transferred to wRBTC loan pool"
      }
    },
    "notice": "This contract withdraws fees to be paid to SOV Stakers from the protocol. Stakers call withdraw() to get their share of the fees.Staking is not only granting voting rights, but also access to fee sharing according to the own voting power in relation to the total. Whenever somebody decides to collect the fees from the protocol, they get transferred to a proxy contract which invests the funds in the lending pool and keeps the pool tokens. * The fee sharing proxy will be set as feesController of the protocol contract. This allows the fee sharing proxy to withdraw the fees. The fee sharing proxy holds the pool tokens and keeps track of which user owns how many tokens. In order to know how many tokens a user owns, the fee sharing proxy needs to know the users weighted stake in relation to the total weighted stake (aka total voting power). * Because both values are subject to change, they may be different on each fee withdrawal. To be able to calculate a users share of tokens when he wants to withdraw, we need checkpoints. * This contract is intended to be set as the protocol fee collector. Anybody can invoke the withdrawFees function which uses protocol.withdrawFees to obtain available fees from operations on a certain token. These fees are deposited in the corresponding loanPool. Also, the staking contract sends slashed tokens to this contract. When a user calls the withdraw function, the contract transfers the fee sharing rewards in proportion to the users weighted stake since the last withdrawal. * The protocol initially collects fees in all tokens. Then the FeeSharingCollector wihtdraws fees from the protocol. When the fees are withdrawn all the tokens except SOV will be converted to wRBTC and then transferred to wRBTC loan pool. For SOV, it will be directly deposited into the feeSharingCollector from the protocol."
  },
  "storageLayout": {
    "storage": [
      {
        "astId": 54383,
        "contract": "contracts/governance/FeeSharingCollector/FeeSharingCollector.sol:FeeSharingCollector",
        "label": "_owner",
        "offset": 0,
        "slot": "0",
        "type": "t_address"
      },
      {
        "astId": 15306,
        "contract": "contracts/governance/FeeSharingCollector/FeeSharingCollector.sol:FeeSharingCollector",
        "label": "protocol",
        "offset": 0,
        "slot": "1",
        "type": "t_contract(IProtocol)15413"
      },
      {
        "astId": 15308,
        "contract": "contracts/governance/FeeSharingCollector/FeeSharingCollector.sol:FeeSharingCollector",
        "label": "staking",
        "offset": 0,
        "slot": "2",
        "type": "t_contract(IStaking)17751"
      },
      {
        "astId": 15314,
        "contract": "contracts/governance/FeeSharingCollector/FeeSharingCollector.sol:FeeSharingCollector",
        "label": "tokenCheckpoints",
        "offset": 0,
        "slot": "3",
        "type": "t_mapping(t_address,t_mapping(t_uint256,t_struct(Checkpoint)15341_storage))"
      },
      {
        "astId": 15318,
        "contract": "contracts/governance/FeeSharingCollector/FeeSharingCollector.sol:FeeSharingCollector",
        "label": "totalTokenCheckpoints",
        "offset": 0,
        "slot": "4",
        "type": "t_mapping(t_address,t_uint256)"
      },
      {
        "astId": 15324,
        "contract": "contracts/governance/FeeSharingCollector/FeeSharingCollector.sol:FeeSharingCollector",
        "label": "processedCheckpoints",
        "offset": 0,
        "slot": "5",
        "type": "t_mapping(t_address,t_mapping(t_address,t_uint256))"
      },
      {
        "astId": 15328,
        "contract": "contracts/governance/FeeSharingCollector/FeeSharingCollector.sol:FeeSharingCollector",
        "label": "lastFeeWithdrawalTime",
        "offset": 0,
        "slot": "6",
        "type": "t_mapping(t_address,t_uint256)"
      },
      {
        "astId": 15332,
        "contract": "contracts/governance/FeeSharingCollector/FeeSharingCollector.sol:FeeSharingCollector",
        "label": "unprocessedAmount",
        "offset": 0,
        "slot": "7",
        "type": "t_mapping(t_address,t_uint96)"
      },
      {
        "astId": 15355,
        "contract": "contracts/governance/FeeSharingCollector/FeeSharingCollector.sol:FeeSharingCollector",
        "label": "reentrancyLock",
        "offset": 0,
        "slot": "8",
        "type": "t_uint256"
      },
      {
        "astId": 15357,
        "contract": "contracts/governance/FeeSharingCollector/FeeSharingCollector.sol:FeeSharingCollector",
        "label": "whitelistedConverterList",
        "offset": 0,
        "slot": "9",
        "type": "t_struct(AddressSet)35839_storage"
      },
      {
        "astId": 15361,
        "contract": "contracts/governance/FeeSharingCollector/FeeSharingCollector.sol:FeeSharingCollector",
        "label": "isFunctionExecuted",
        "offset": 0,
        "slot": "11",
        "type": "t_mapping(t_bytes4,t_bool)"
      },
      {
        "astId": 15363,
        "contract": "contracts/governance/FeeSharingCollector/FeeSharingCollector.sol:FeeSharingCollector",
        "label": "wrbtcTokenAddress",
        "offset": 0,
        "slot": "12",
        "type": "t_address"
      },
      {
        "astId": 15365,
        "contract": "contracts/governance/FeeSharingCollector/FeeSharingCollector.sol:FeeSharingCollector",
        "label": "loanTokenWrbtcAddress",
        "offset": 0,
        "slot": "13",
        "type": "t_address"
      }
    ],
    "types": {
      "t_address": {
        "encoding": "inplace",
        "label": "address",
        "numberOfBytes": "20"
      },
      "t_array(t_address)dyn_storage": {
        "base": "t_address",
        "encoding": "dynamic_array",
        "label": "address[]",
        "numberOfBytes": "32"
      },
      "t_bool": {
        "encoding": "inplace",
        "label": "bool",
        "numberOfBytes": "1"
      },
      "t_bytes4": {
        "encoding": "inplace",
        "label": "bytes4",
        "numberOfBytes": "4"
      },
      "t_contract(IProtocol)15413": {
        "encoding": "inplace",
        "label": "contract IProtocol",
        "numberOfBytes": "20"
      },
      "t_contract(IStaking)17751": {
        "encoding": "inplace",
        "label": "contract IStaking",
        "numberOfBytes": "20"
      },
      "t_mapping(t_address,t_mapping(t_address,t_uint256))": {
        "encoding": "mapping",
        "key": "t_address",
        "label": "mapping(address => mapping(address => uint256))",
        "numberOfBytes": "32",
        "value": "t_mapping(t_address,t_uint256)"
      },
      "t_mapping(t_address,t_mapping(t_uint256,t_struct(Checkpoint)15341_storage))": {
        "encoding": "mapping",
        "key": "t_address",
        "label": "mapping(address => mapping(uint256 => struct FeeSharingCollectorStorage.Checkpoint))",
        "numberOfBytes": "32",
        "value": "t_mapping(t_uint256,t_struct(Checkpoint)15341_storage)"
      },
      "t_mapping(t_address,t_uint256)": {
        "encoding": "mapping",
        "key": "t_address",
        "label": "mapping(address => uint256)",
        "numberOfBytes": "32",
        "value": "t_uint256"
      },
      "t_mapping(t_address,t_uint96)": {
        "encoding": "mapping",
        "key": "t_address",
        "label": "mapping(address => uint96)",
        "numberOfBytes": "32",
        "value": "t_uint96"
      },
      "t_mapping(t_bytes4,t_bool)": {
        "encoding": "mapping",
        "key": "t_bytes4",
        "label": "mapping(bytes4 => bool)",
        "numberOfBytes": "32",
        "value": "t_bool"
      },
      "t_mapping(t_uint256,t_struct(Checkpoint)15341_storage)": {
        "encoding": "mapping",
        "key": "t_uint256",
        "label": "mapping(uint256 => struct FeeSharingCollectorStorage.Checkpoint)",
        "numberOfBytes": "32",
        "value": "t_struct(Checkpoint)15341_storage"
      },
      "t_struct(AddressSet)35839_storage": {
        "encoding": "inplace",
        "label": "struct EnumerableAddressSet.AddressSet",
        "members": [
          {
            "astId": 35835,
            "contract": "contracts/governance/FeeSharingCollector/FeeSharingCollector.sol:FeeSharingCollector",
            "label": "index",
            "offset": 0,
            "slot": "0",
            "type": "t_mapping(t_address,t_uint256)"
          },
          {
            "astId": 35838,
            "contract": "contracts/governance/FeeSharingCollector/FeeSharingCollector.sol:FeeSharingCollector",
            "label": "values",
            "offset": 0,
            "slot": "1",
            "type": "t_array(t_address)dyn_storage"
          }
        ],
        "numberOfBytes": "64"
      },
      "t_struct(Checkpoint)15341_storage": {
        "encoding": "inplace",
        "label": "struct FeeSharingCollectorStorage.Checkpoint",
        "members": [
          {
            "astId": 15334,
            "contract": "contracts/governance/FeeSharingCollector/FeeSharingCollector.sol:FeeSharingCollector",
            "label": "blockNumber",
            "offset": 0,
            "slot": "0",
            "type": "t_uint32"
          },
          {
            "astId": 15336,
            "contract": "contracts/governance/FeeSharingCollector/FeeSharingCollector.sol:FeeSharingCollector",
            "label": "timestamp",
            "offset": 4,
            "slot": "0",
            "type": "t_uint32"
          },
          {
            "astId": 15338,
            "contract": "contracts/governance/FeeSharingCollector/FeeSharingCollector.sol:FeeSharingCollector",
            "label": "totalWeightedStake",
            "offset": 8,
            "slot": "0",
            "type": "t_uint96"
          },
          {
            "astId": 15340,
            "contract": "contracts/governance/FeeSharingCollector/FeeSharingCollector.sol:FeeSharingCollector",
            "label": "numTokens",
            "offset": 20,
            "slot": "0",
            "type": "t_uint96"
          }
        ],
        "numberOfBytes": "32"
      },
      "t_uint256": {
        "encoding": "inplace",
        "label": "uint256",
        "numberOfBytes": "32"
      },
      "t_uint32": {
        "encoding": "inplace",
        "label": "uint32",
        "numberOfBytes": "4"
      },
      "t_uint96": {
        "encoding": "inplace",
        "label": "uint96",
        "numberOfBytes": "12"
      }
    }
  }
}