{
  "address": "0x3a51A0d226293c004ab279d571c8fd5759900153",
  "abi": [
    {
      "anonymous": false,
      "inputs": [
        {
          "indexed": true,
          "internalType": "address",
          "name": "sender",
          "type": "address"
        },
        {
          "indexed": true,
          "internalType": "address",
          "name": "token",
          "type": "address"
        },
        {
          "indexed": false,
          "internalType": "uint256",
          "name": "amount",
          "type": "uint256"
        }
      ],
      "name": "CheckpointAdded",
      "type": "event"
    },
    {
      "anonymous": false,
      "inputs": [
        {
          "indexed": true,
          "internalType": "address",
          "name": "sender",
          "type": "address"
        },
        {
          "indexed": true,
          "internalType": "address",
          "name": "converter",
          "type": "address"
        },
        {
          "indexed": false,
          "internalType": "uint256",
          "name": "amount",
          "type": "uint256"
        }
      ],
      "name": "FeeAMMWithdrawn",
      "type": "event"
    },
    {
      "anonymous": false,
      "inputs": [
        {
          "indexed": true,
          "internalType": "address",
          "name": "sender",
          "type": "address"
        },
        {
          "indexed": false,
          "internalType": "uint256",
          "name": "amount",
          "type": "uint256"
        }
      ],
      "name": "FeeWithdrawnInRBTC",
      "type": "event"
    },
    {
      "anonymous": false,
      "inputs": [
        {
          "indexed": true,
          "internalType": "address",
          "name": "previousOwner",
          "type": "address"
        },
        {
          "indexed": true,
          "internalType": "address",
          "name": "newOwner",
          "type": "address"
        }
      ],
      "name": "OwnershipTransferred",
      "type": "event"
    },
    {
      "anonymous": false,
      "inputs": [
        {
          "indexed": true,
          "internalType": "address",
          "name": "sender",
          "type": "address"
        },
        {
          "indexed": true,
          "internalType": "address",
          "name": "receiver",
          "type": "address"
        },
        {
          "indexed": false,
          "internalType": "uint256",
          "name": "amount",
          "type": "uint256"
        }
      ],
      "name": "RBTCWithdrawn",
      "type": "event"
    },
    {
      "anonymous": false,
      "inputs": [
        {
          "indexed": true,
          "internalType": "address",
          "name": "sender",
          "type": "address"
        },
        {
          "indexed": true,
          "internalType": "address",
          "name": "token",
          "type": "address"
        },
        {
          "indexed": false,
          "internalType": "uint256",
          "name": "amount",
          "type": "uint256"
        }
      ],
      "name": "TokensTransferred",
      "type": "event"
    },
    {
      "anonymous": false,
      "inputs": [
        {
          "indexed": true,
          "internalType": "address",
          "name": "sender",
          "type": "address"
        },
        {
          "indexed": false,
          "internalType": "address",
          "name": "converter",
          "type": "address"
        }
      ],
      "name": "UnwhitelistedConverter",
      "type": "event"
    },
    {
      "anonymous": false,
      "inputs": [
        {
          "indexed": true,
          "internalType": "address",
          "name": "sender",
          "type": "address"
        },
        {
          "indexed": true,
          "internalType": "address",
          "name": "token",
          "type": "address"
        },
        {
          "indexed": false,
          "internalType": "uint256",
          "name": "prevProcessedCheckpoints",
          "type": "uint256"
        },
        {
          "indexed": false,
          "internalType": "uint256",
          "name": "newProcessedCheckpoints",
          "type": "uint256"
        }
      ],
      "name": "UserFeeProcessedNoWithdraw",
      "type": "event"
    },
    {
      "anonymous": false,
      "inputs": [
        {
          "indexed": true,
          "internalType": "address",
          "name": "sender",
          "type": "address"
        },
        {
          "indexed": true,
          "internalType": "address",
          "name": "receiver",
          "type": "address"
        },
        {
          "indexed": true,
          "internalType": "address",
          "name": "token",
          "type": "address"
        },
        {
          "indexed": false,
          "internalType": "uint256",
          "name": "amount",
          "type": "uint256"
        }
      ],
      "name": "UserFeeWithdrawn",
      "type": "event"
    },
    {
      "anonymous": false,
      "inputs": [
        {
          "indexed": true,
          "internalType": "address",
          "name": "sender",
          "type": "address"
        },
        {
          "indexed": false,
          "internalType": "address",
          "name": "converter",
          "type": "address"
        }
      ],
      "name": "WhitelistedConverter",
      "type": "event"
    },
    {
      "payable": true,
      "stateMutability": "payable",
      "type": "fallback"
    },
    {
      "constant": true,
      "inputs": [],
      "name": "RBTC_DUMMY_ADDRESS_FOR_CHECKPOINT",
      "outputs": [
        {
          "internalType": "address",
          "name": "",
          "type": "address"
        }
      ],
      "payable": false,
      "stateMutability": "view",
      "type": "function"
    },
    {
      "constant": false,
      "inputs": [
        {
          "internalType": "address",
          "name": "converterAddress",
          "type": "address"
        }
      ],
      "name": "addWhitelistedConverterAddress",
      "outputs": [],
      "payable": false,
      "stateMutability": "nonpayable",
      "type": "function"
    },
    {
      "constant": false,
      "inputs": [
        {
          "internalType": "address[]",
          "name": "_nonRbtcTokensRegularWithdraw",
          "type": "address[]"
        },
        {
          "internalType": "address[]",
          "name": "_rbtcTokensRegularWithdraw",
          "type": "address[]"
        },
        {
          "components": [
            {
              "internalType": "address",
              "name": "tokenAddress",
              "type": "address"
            },
            {
              "internalType": "uint256",
              "name": "fromCheckpoint",
              "type": "uint256"
            }
          ],
          "internalType": "struct FeeSharingCollectorStorage.TokenWithSkippedCheckpointsWithdraw[]",
          "name": "_tokensWithSkippedCheckpoints",
          "type": "tuple[]"
        },
        {
          "internalType": "uint32",
          "name": "_maxCheckpoints",
          "type": "uint32"
        },
        {
          "internalType": "address",
          "name": "_receiver",
          "type": "address"
        }
      ],
      "name": "claimAllCollectedFees",
      "outputs": [],
      "payable": false,
      "stateMutability": "nonpayable",
      "type": "function"
    },
    {
      "constant": true,
      "inputs": [
        {
          "internalType": "address",
          "name": "_user",
          "type": "address"
        },
        {
          "internalType": "address",
          "name": "_token",
          "type": "address"
        }
      ],
      "name": "getAccumulatedFees",
      "outputs": [
        {
          "internalType": "uint256",
          "name": "",
          "type": "uint256"
        }
      ],
      "payable": false,
      "stateMutability": "view",
      "type": "function"
    },
    {
      "constant": true,
      "inputs": [
        {
          "internalType": "address",
          "name": "_user",
          "type": "address"
        },
        {
          "internalType": "address",
          "name": "_token",
          "type": "address"
        },
        {
          "internalType": "uint256",
          "name": "_startFrom",
          "type": "uint256"
        },
        {
          "internalType": "uint32",
          "name": "_maxCheckpoints",
          "type": "uint32"
        }
      ],
      "name": "getAccumulatedFeesForCheckpointsRange",
      "outputs": [
        {
          "internalType": "uint256",
          "name": "",
          "type": "uint256"
        }
      ],
      "payable": false,
      "stateMutability": "view",
      "type": "function"
    },
    {
      "constant": true,
      "inputs": [
        {
          "internalType": "address",
          "name": "_user",
          "type": "address"
        }
      ],
      "name": "getAccumulatedRBTCFeeBalances",
      "outputs": [
        {
          "internalType": "uint256",
          "name": "",
          "type": "uint256"
        }
      ],
      "payable": false,
      "stateMutability": "view",
      "type": "function"
    },
    {
      "constant": true,
      "inputs": [
        {
          "internalType": "address",
          "name": "_user",
          "type": "address"
        },
        {
          "internalType": "address",
          "name": "_token",
          "type": "address"
        },
        {
          "internalType": "uint256",
          "name": "_startFrom",
          "type": "uint256"
        },
        {
          "internalType": "uint32",
          "name": "_maxCheckpoints",
          "type": "uint32"
        }
      ],
      "name": "getAllUserFeesPerMaxCheckpoints",
      "outputs": [
        {
          "internalType": "uint256[]",
          "name": "fees",
          "type": "uint256[]"
        }
      ],
      "payable": false,
      "stateMutability": "view",
      "type": "function"
    },
    {
      "constant": true,
      "inputs": [
        {
          "internalType": "address",
          "name": "_user",
          "type": "address"
        },
        {
          "internalType": "address",
          "name": "_token",
          "type": "address"
        },
        {
          "internalType": "uint256",
          "name": "_startFrom",
          "type": "uint256"
        },
        {
          "internalType": "uint256",
          "name": "_maxCheckpoints",
          "type": "uint256"
        }
      ],
      "name": "getNextPositiveUserCheckpoint",
      "outputs": [
        {
          "internalType": "uint256",
          "name": "checkpointNum",
          "type": "uint256"
        },
        {
          "internalType": "bool",
          "name": "hasSkippedCheckpoints",
          "type": "bool"
        },
        {
          "internalType": "bool",
          "name": "hasFees",
          "type": "bool"
        }
      ],
      "payable": false,
      "stateMutability": "view",
      "type": "function"
    },
    {
      "constant": true,
      "inputs": [],
      "name": "getWhitelistedConverterList",
      "outputs": [
        {
          "internalType": "address[]",
          "name": "converterList",
          "type": "address[]"
        }
      ],
      "payable": false,
      "stateMutability": "view",
      "type": "function"
    },
    {
      "constant": true,
      "inputs": [
        {
          "internalType": "bytes4",
          "name": "",
          "type": "bytes4"
        }
      ],
      "name": "isFunctionExecuted",
      "outputs": [
        {
          "internalType": "bool",
          "name": "",
          "type": "bool"
        }
      ],
      "payable": false,
      "stateMutability": "view",
      "type": "function"
    },
    {
      "constant": true,
      "inputs": [],
      "name": "isOwner",
      "outputs": [
        {
          "internalType": "bool",
          "name": "",
          "type": "bool"
        }
      ],
      "payable": false,
      "stateMutability": "view",
      "type": "function"
    },
    {
      "constant": true,
      "inputs": [
        {
          "internalType": "address",
          "name": "",
          "type": "address"
        }
      ],
      "name": "lastFeeWithdrawalTime",
      "outputs": [
        {
          "internalType": "uint256",
          "name": "",
          "type": "uint256"
        }
      ],
      "payable": false,
      "stateMutability": "view",
      "type": "function"
    },
    {
      "constant": true,
      "inputs": [
        {
          "internalType": "address",
          "name": "_token",
          "type": "address"
        }
      ],
      "name": "numTokenCheckpoints",
      "outputs": [
        {
          "internalType": "uint256",
          "name": "",
          "type": "uint256"
        }
      ],
      "payable": false,
      "stateMutability": "view",
      "type": "function"
    },
    {
      "constant": true,
      "inputs": [],
      "name": "owner",
      "outputs": [
        {
          "internalType": "address",
          "name": "",
          "type": "address"
        }
      ],
      "payable": false,
      "stateMutability": "view",
      "type": "function"
    },
    {
      "constant": true,
      "inputs": [
        {
          "internalType": "address",
          "name": "",
          "type": "address"
        },
        {
          "internalType": "address",
          "name": "",
          "type": "address"
        }
      ],
      "name": "processedCheckpoints",
      "outputs": [
        {
          "internalType": "uint256",
          "name": "",
          "type": "uint256"
        }
      ],
      "payable": false,
      "stateMutability": "view",
      "type": "function"
    },
    {
      "constant": true,
      "inputs": [],
      "name": "protocol",
      "outputs": [
        {
          "internalType": "contract IProtocol",
          "name": "",
          "type": "address"
        }
      ],
      "payable": false,
      "stateMutability": "view",
      "type": "function"
    },
    {
      "constant": false,
      "inputs": [],
      "name": "recoverIncorrectAllocatedFees",
      "outputs": [],
      "payable": false,
      "stateMutability": "nonpayable",
      "type": "function"
    },
    {
      "constant": false,
      "inputs": [
        {
          "internalType": "address",
          "name": "converterAddress",
          "type": "address"
        }
      ],
      "name": "removeWhitelistedConverterAddress",
      "outputs": [],
      "payable": false,
      "stateMutability": "nonpayable",
      "type": "function"
    },
    {
      "constant": true,
      "inputs": [],
      "name": "staking",
      "outputs": [
        {
          "internalType": "contract IStaking",
          "name": "",
          "type": "address"
        }
      ],
      "payable": false,
      "stateMutability": "view",
      "type": "function"
    },
    {
      "constant": true,
      "inputs": [
        {
          "internalType": "address",
          "name": "",
          "type": "address"
        },
        {
          "internalType": "uint256",
          "name": "",
          "type": "uint256"
        }
      ],
      "name": "tokenCheckpoints",
      "outputs": [
        {
          "internalType": "uint32",
          "name": "blockNumber",
          "type": "uint32"
        },
        {
          "internalType": "uint32",
          "name": "timestamp",
          "type": "uint32"
        },
        {
          "internalType": "uint96",
          "name": "totalWeightedStake",
          "type": "uint96"
        },
        {
          "internalType": "uint96",
          "name": "numTokens",
          "type": "uint96"
        }
      ],
      "payable": false,
      "stateMutability": "view",
      "type": "function"
    },
    {
      "constant": true,
      "inputs": [
        {
          "internalType": "address",
          "name": "",
          "type": "address"
        }
      ],
      "name": "totalTokenCheckpoints",
      "outputs": [
        {
          "internalType": "uint256",
          "name": "",
          "type": "uint256"
        }
      ],
      "payable": false,
      "stateMutability": "view",
      "type": "function"
    },
    {
      "constant": false,
      "inputs": [
        {
          "internalType": "address",
          "name": "newOwner",
          "type": "address"
        }
      ],
      "name": "transferOwnership",
      "outputs": [],
      "payable": false,
      "stateMutability": "nonpayable",
      "type": "function"
    },
    {
      "constant": false,
      "inputs": [],
      "name": "transferRBTC",
      "outputs": [],
      "payable": true,
      "stateMutability": "payable",
      "type": "function"
    },
    {
      "constant": false,
      "inputs": [
        {
          "internalType": "address",
          "name": "_token",
          "type": "address"
        },
        {
          "internalType": "uint96",
          "name": "_amount",
          "type": "uint96"
        }
      ],
      "name": "transferTokens",
      "outputs": [],
      "payable": false,
      "stateMutability": "nonpayable",
      "type": "function"
    },
    {
      "constant": true,
      "inputs": [
        {
          "internalType": "address",
          "name": "",
          "type": "address"
        }
      ],
      "name": "unprocessedAmount",
      "outputs": [
        {
          "internalType": "uint96",
          "name": "",
          "type": "uint96"
        }
      ],
      "payable": false,
      "stateMutability": "view",
      "type": "function"
    },
    {
      "constant": false,
      "inputs": [
        {
          "internalType": "address",
          "name": "_token",
          "type": "address"
        },
        {
          "internalType": "uint32",
          "name": "_maxCheckpoints",
          "type": "uint32"
        },
        {
          "internalType": "address",
          "name": "_receiver",
          "type": "address"
        }
      ],
      "name": "withdraw",
      "outputs": [],
      "payable": false,
      "stateMutability": "nonpayable",
      "type": "function"
    },
    {
      "constant": false,
      "inputs": [
        {
          "internalType": "address[]",
          "name": "_tokens",
          "type": "address[]"
        }
      ],
      "name": "withdrawFees",
      "outputs": [],
      "payable": false,
      "stateMutability": "nonpayable",
      "type": "function"
    },
    {
      "constant": false,
      "inputs": [
        {
          "internalType": "address[]",
          "name": "_converters",
          "type": "address[]"
        }
      ],
      "name": "withdrawFeesAMM",
      "outputs": [],
      "payable": false,
      "stateMutability": "nonpayable",
      "type": "function"
    },
    {
      "constant": false,
      "inputs": [
        {
          "internalType": "address",
          "name": "receiver",
          "type": "address"
        },
        {
          "internalType": "uint256",
          "name": "wrbtcAmount",
          "type": "uint256"
        }
      ],
      "name": "withdrawWRBTC",
      "outputs": [],
      "payable": false,
      "stateMutability": "nonpayable",
      "type": "function"
    }
  ],
  "transactionHash": "0xb4af56253d6be9ef74142bb84307876fc7641eb0f83619555935049311e1e813",
  "args": [],
  "numDeployments": 11,
  "solcInputHash": "4bbe940e4c8c982d43540002b163174c",
  "bytecode": "0x6080604052600160085560006200001e6001600160e01b036200006e16565b600080546001600160a01b0319166001600160a01b0383169081178255604051929350917f8be0079c531659141344cd1fd0a4f28419497f9722a3daafe3b4186f6b6457e0908290a35062000072565b3390565b6156a980620000826000396000f3fe6080604052600436106101c25760003560e01c80638f32d59b116100f7578063abe979e111610095578063d93b69ab11610064578063d93b69ab14610502578063f2962cda14610522578063f2fde38b14610542578063f3bdba8f14610562576101c2565b8063abe979e114610480578063adcf21a7146104a0578063c3040447146104c2578063c3f0eaee146104e2576101c2565b8063a4955f2a116100d1578063a4955f2a1461040b578063a697b8c71461042b578063a965b3a91461044b578063aa5036e91461046b576101c2565b80638f32d59b1461039c5780638fe8565c146103be578063a42a77e7146103eb576101c2565b80637061acf3116101645780637d0ce2b21161013e5780637d0ce2b2146103235780638b6fdcba146103455780638ce74426146103725780638da5cb5b14610387576101c2565b80637061acf3146102c35780637913b451146102e35780637c8678ec14610303576101c2565b80633d67df6f116101a05780633d67df6f146102315780634cf088d9146102515780635c4d9b12146102735780637053001714610293576101c2565b80631345946c146101c457806320020208146101fc57806322a6fd9514610229575b005b3480156101d057600080fd5b506101e46101df366004613f5d565b610582565b6040516101f3939291906151a7565b60405180910390f35b34801561020857600080fd5b5061021c610217366004613ee7565b6105a4565b6040516101f39190615199565b6101c26105bf565b34801561023d57600080fd5b5061021c61024c366004613f23565b61064d565b34801561025d57600080fd5b50610266610668565b6040516101f39190614f7a565b34801561027f57600080fd5b506101c261028e366004614013565b610677565b34801561029f57600080fd5b506102b36102ae366004614013565b6107da565b6040516101f394939291906151fa565b3480156102cf57600080fd5b506101c26102de366004613ee7565b610826565b3480156102ef57600080fd5b5061021c6102fe366004613f23565b6108c5565b34801561030f57600080fd5b506101c261031e3660046141cb565b6108e2565b34801561032f57600080fd5b50610338610b48565b6040516101f39190614e6c565b34801561035157600080fd5b50610365610360366004613ee7565b610b60565b6040516101f39190615246565b34801561037e57600080fd5b50610266610b7b565b34801561039357600080fd5b50610338610b8a565b3480156103a857600080fd5b506103b1610b99565b6040516101f39190614f6c565b3480156103ca57600080fd5b506103de6103d9366004613fbe565b610bbd565b6040516101f39190614f5b565b3480156103f757600080fd5b506101c2610406366004614102565b610cd4565b34801561041757600080fd5b506101c2610426366004613ee7565b610ef3565b34801561043757600080fd5b506101c26104463660046140c0565b610f62565b34801561045757600080fd5b506101c2610466366004614043565b6111b0565b34801561047757600080fd5b506101c26111ee565b34801561048c57600080fd5b506101c261049b366004614090565b6113a3565b3480156104ac57600080fd5b506104b5611600565b6040516101f39190614f4a565b3480156104ce57600080fd5b5061021c6104dd366004613ee7565b611611565b3480156104ee57600080fd5b5061021c6104fd366004613fbe565b61177f565b34801561050e57600080fd5b506103b161051d36600461421e565b611799565b34801561052e57600080fd5b5061021c61053d366004613ee7565b6117ae565b34801561054e57600080fd5b506101c261055d366004613ee7565b6117c0565b34801561056e57600080fd5b5061021c61057d366004613ee7565b6117f0565b600080600061059387878787611802565b9250925092505b9450945094915050565b6001600160a01b031660009081526004602052604090205490565b346001600160601b0381166105ef5760405162461bcd60e51b81526004016105e690615079565b60405180910390fd5b61060d6040516105fe90614e56565b60405190819003902082611a8f565b60405160009033907f1b89874203ff7f0bba87c969ada3f32fda22ed38a6706d35199d21280c7811b190610642908590615238565b60405180910390a350565b60008061065d8484600080611bd3565b509150505b92915050565b6002546001600160a01b031681565b61067f610b99565b61069b5760405162461bcd60e51b81526004016105e6906150a9565b6001546040805163afe8400960e01b815290516000926001600160a01b03169163afe84009916004808301926020929190829003018186803b1580156106e057600080fd5b505afa1580156106f4573d6000803e3d6000fd5b505050506040513d601f19601f82011682018060405250610718919081019061423c565b90506000816001600160a01b03166370a08231306040518263ffffffff1660e01b81526004016107489190614e7a565b60206040518083038186803b15801561076057600080fd5b505afa158015610774573d6000803e3d6000fd5b505050506040513d601f19601f820116820180604052506107989190810190614278565b9050808311156107ba5760405162461bcd60e51b81526004016105e690615059565b6107d46001600160a01b038316858563ffffffff611f2b16565b50505050565b600360209081526000928352604080842090915290825290205463ffffffff808216916401000000008104909116906001600160601b03600160401b8204811691600160a01b90041684565b61082e610b99565b61084a5760405162461bcd60e51b81526004016105e6906150a9565b61085381611f84565b61086f5760405162461bcd60e51b81526004016105e6906150d9565b61088060098263ffffffff611fbd16565b50336001600160a01b03167fe7902ff5b883e069d72db554511b4f7122428c996decf30682b312a66879668a826040516108ba9190614e6c565b60405180910390a250565b600560209081526000928352604080842090915290825290205481565b6001546040805163afe8400960e01b815290516000926001600160a01b03169163afe84009916004808301926020929190829003018186803b15801561092757600080fd5b505afa15801561093b573d6000803e3d6000fd5b505050506040513d601f19601f8201168201806040525061095f919081019061423c565b905061096a8261201d565b6000805b8351811015610b2457600084828151811061098557fe5b60200260200101516001600160a01b031663164e68de306040518263ffffffff1660e01b81526004016109b89190614e7a565b602060405180830381600087803b1580156109d257600080fd5b505af11580156109e6573d6000803e3d6000fd5b505050506040513d601f19601f82011682018060405250610a0a9190810190614278565b90508015610b1b57604051632e1a7d4d60e01b81526001600160a01b03851690632e1a7d4d90610a3e908490600401615199565b600060405180830381600087803b158015610a5857600080fd5b505af1158015610a6c573d6000803e3d6000fd5b505050506000610a948260405180608001604052806048815260200161548060489139612074565b9050610ab984826040518060800160405280604e8152602001615432604e91396120a3565b9350858381518110610ac757fe5b60200260200101516001600160a01b0316336001600160a01b03167fd915b7f9d8d5ce11af1f5961b830d7d7c01a750927706eb0bcbf80a8827d76cc84604051610b119190615199565b60405180910390a3505b5060010161096e565b506001600160601b03811615610b4357610b436040516105fe90614e56565b505050565b604051610b5490614e56565b60405190819003902081565b6007602052600090815260409020546001600160601b031681565b6001546001600160a01b031681565b6000546001600160a01b031690565b600080546001600160a01b0316610bae6120e1565b6001600160a01b031614905090565b606060008263ffffffff1611610be55760405162461bcd60e51b81526004016105e690615179565b6001600160a01b0384166000908152600460205260408120549081610c0b576000610c10565b600182035b905084811015610c225750610ccc9050565b6000610c4d8563ffffffff16610c4188856120e590919063ffffffff16565b9063ffffffff61212716565b600101905080604051908082528060200260200182016040528015610c7c578160200160208202803883390190505b50935060005b8451811015610cc7576000610ca38a8a8963ffffffff1685028b018a611bd3565b50905080868381518110610cb357fe5b602090810291909101015250600101610c82565b505050505b949350505050565b600160085414610cf65760405162461bcd60e51b81526004016105e690615109565b600260085560008515610d7257610d438787808060200260200160405190810160405280939291908181526020018383602002808284376000920191909152508792508691506121699050565b9050610d6f818463ffffffff16036040518060600160405280603c81526020016153b1603c9139612364565b92505b60005b88811015610e505763ffffffff8416610d8d57610e50565b6000808b8b84818110610d9c57fe5b9050602002016020610db19190810190613ee7565b3360009081526005602090815260408083206001600160a01b0385168452909152902054909150610de382888861238c565b935060009050610df9848363ffffffff6120e516565b90508115610e1457610e1281600163ffffffff6126fd16565b505b610e3e818963ffffffff16036040518060600160405280603c81526020016153b1603c9139612364565b97505060019093019250610d75915050565b508315610ee357610eb48585808060200260200160405190810160405280939291908181526020016000905b82821015610ea857610e996040830286013681900381019061425a565b81526020019060010190610e7c565b50505050508484612722565b9050610ee0818463ffffffff16036040518060600160405280603c81526020016153b1603c9139612364565b92505b5050600160085550505050505050565b610efb610b99565b610f175760405162461bcd60e51b81526004016105e6906150a9565b610f2860098263ffffffff612a3416565b50336001600160a01b03167f7b8bddb144d9ebd8a4fa3f47acac7c75b34ade822d5e528a442825fa9100ffdb826040516108ba9190614e6c565b60005b81811015610fba57610f96838383818110610f7c57fe5b9050602002016020610f919190810190613ee7565b611f84565b610fb25760405162461bcd60e51b81526004016105e690615159565b600101610f65565b50600154604051630f7e7aab60e41b81526000916001600160a01b03169063f7e7aab090610ff090869086903090600401614f29565b602060405180830381600087803b15801561100a57600080fd5b505af115801561101e573d6000803e3d6000fd5b505050506040513d601f19601f820116820180604052506110429190810190614278565b90506000600160009054906101000a90046001600160a01b03166001600160a01b031663afe840096040518163ffffffff1660e01b815260040160206040518083038186803b15801561109457600080fd5b505afa1580156110a8573d6000803e3d6000fd5b505050506040513d601f19601f820116820180604052506110cc919081019061423c565b9050811561116957604051632e1a7d4d60e01b81526001600160a01b03821690632e1a7d4d90611100908590600401615199565b600060405180830381600087803b15801561111a57600080fd5b505af115801561112e573d6000803e3d6000fd5b505050506000611156836040518060800160405280604581526020016153ed60459139612074565b90506111676040516105fe90614e56565b505b336001600160a01b03167fea588ee3c471f3c47a77b5d118007e77b1d74e5b310a8805df274aa067d2e8a6836040516111a29190615199565b60405180910390a250505050565b6001600854146111d25760405162461bcd60e51b81526004016105e690615109565b60026008556111e283838361238c565b50506001600855505050565b63aa5036e960e01b6000819052600b6020527fa02e544f58192f4f5f2c12a2ad94a37e02b3cc3232372e81b417611b94ccf0e85460ff16156112425760405162461bcd60e51b81526004016105e690615039565b61124a610b99565b6112665760405162461bcd60e51b81526004016105e6906150a9565b670c320cbdb1f8e260690387108582e4ba67e98069015437959820bab0d48073db107fa69e33f05180a4c2ce9c2e7cb481645c2d73efc78fc7d48b64958315949279ba181c2114abbd60006112b9610b8a565b6001600160a01b0316866040516112cf90614e61565b60006040518083038185875af1925050503d806000811461130c576040519150601f19603f3d011682016040523d82523d6000602084013e611311565b606091505b50509050806113325760405162461bcd60e51b81526004016105e6906150f9565b61135461133d610b8a565b6001600160a01b038516908763ffffffff611f2b16565b61137661135f610b8a565b6001600160a01b038416908663ffffffff611f2b16565b5050506001600160e01b03199093166000908152600b60205260409020805460ff19166001179055505050565b6001600160a01b0382166113c95760405162461bcd60e51b81526004016105e690614fa9565b6000816001600160601b0316116113f25760405162461bcd60e51b81526004016105e690614f99565b6040516323b872dd60e01b81526000906001600160a01b038416906323b872dd9061142590339030908790600401614e88565b602060405180830381600087803b15801561143f57600080fd5b505af1158015611453573d6000803e3d6000fd5b505050506040513d601f19601f820116820180604052506114779190810190614200565b9050806114965760405162461bcd60e51b81526004016105e6906150e9565b6001546040805163afe8400960e01b815290516000926001600160a01b03169163afe84009916004808301926020929190829003018186803b1580156114db57600080fd5b505afa1580156114ef573d6000803e3d6000fd5b505050506040513d601f19601f82011682018060405250611513919081019061423c565b9050806001600160a01b0316846001600160a01b031614156115a557604051632e1a7d4d60e01b81526001600160a01b03821690632e1a7d4d9061155b908690600401615238565b600060405180830381600087803b15801561157557600080fd5b505af1158015611589573d6000803e3d6000fd5b5050505060405161159990614e56565b60405190819003902093505b6115af8484611a8f565b836001600160a01b0316336001600160a01b03167f1b89874203ff7f0bba87c969ada3f32fda22ed38a6706d35199d21280c7811b1856040516115f29190615238565b60405180910390a350505050565b606061160c6009612b3f565b905090565b600080600080611622856000612be5565b5050509250925092506000600160009054906101000a90046001600160a01b03166001600160a01b031663afe840096040518163ffffffff1660e01b815260040160206040518083038186803b15801561167b57600080fd5b505afa15801561168f573d6000803e3d6000fd5b505050506040513d601f19601f820116820180604052506116b3919081019061423c565b905060006116c082612cde565b90506000611751670de0b6b3a7640000610c41846001600160a01b0316637ff9b5966040518163ffffffff1660e01b815260040160206040518083038186803b15801561170c57600080fd5b505afa158015611720573d6000803e3d6000fd5b505050506040513d601f19601f820116820180604052506117449190810190614278565b879063ffffffff612d8b16565b905061177381611767888863ffffffff6126fd16565b9063ffffffff6126fd16565b98975050505050505050565b60008061178e86868686611bd3565b509695505050505050565b600b6020526000908152604090205460ff1681565b60046020526000908152604090205481565b6117c8610b99565b6117e45760405162461bcd60e51b81526004016105e6906150a9565b6117ed81612dc5565b50565b60066020526000908152604090205481565b60025460405163ca6860df60e01b8152600091829182916001600160a01b03169063ca6860df90611837908a90600401614e6c565b60206040518083038186803b15801561184f57600080fd5b505afa158015611863573d6000803e3d6000fd5b505050506040513d601f19601f820116820180604052506118879190810190614200565b1561189a5750600091508190508061059a565b600084116118ba5760405162461bcd60e51b81526004016105e690615179565b6001600160a01b03808716600081815260046020908152604080832054948c16835260058252808320938352929052205481811015806118f8575081155b1561190c575092506000915081905061059a565b600081881161191b578161191d565b875b90506000611931828963ffffffff6126fd16565b905083811061193d5750825b815b81811015611a79576000600360008d6001600160a01b03166001600160a01b03168152602001908152602001600020600083815260200190815260200160002090506000600260009054906101000a90046001600160a01b03166001600160a01b03166337e6b1c18f60018560000160009054906101000a900463ffffffff16038560000160049054906101000a900463ffffffff166040518463ffffffff1660e01b81526004016119f393929190614f01565b60206040518083038186803b158015611a0b57600080fd5b505afa158015611a1f573d6000803e3d6000fd5b505050506040513d601f19601f82011682018060405250611a439190810190614296565b90506001600160601b03811615611a6f578260010186841160019950995099505050505050505061059a565b505060010161193f565b509a918b11995060009850909650505050505050565b6001600160a01b0382166000908152600660205260409020546202a300429190910310611b48576001600160a01b03821660009081526006602090815260408083204290556007825280832054815160608101909252603b808352611b0b936001600160601b0390921692869290919061554a908301396120a3565b6001600160a01b038416600090815260076020526040902080546bffffffffffffffffffffffff191690559050611b428382612e46565b50611bcf565b6001600160a01b038216600090815260076020908152604091829020548251608081019093526046808452611b93936001600160601b0390921692859291906155cb908301396120a3565b6001600160a01b038316600090815260076020526040902080546bffffffffffffffffffffffff19166001600160601b03929092169190911790555b5050565b60025460405163ca6860df60e01b815260009182916001600160a01b039091169063ca6860df90611c08908990600401614e6c565b60206040518083038186803b158015611c2057600080fd5b505afa158015611c34573d6000803e3d6000fd5b505050506040513d601f19601f82011682018060405250611c589190810190614200565b15611c6857506000905080611f22565b6001600160a01b03808716600090815260056020908152604080832093891683529290529081205490818611611c9e5781611ca0565b855b905060008563ffffffff1611611cce576001600160a01b038716600090815260046020526040902054611cd9565b611cd98188876130b7565b6001600160a01b0388166000908152600460205260409020549093508110611d07575060009250611f229050565b600080825b85811015611f1c57611d1c613cea565b506001600160a01b03808b16600090815260036020908152604080832085845282528083208151608081018352905463ffffffff80821683526401000000008204169382018490526001600160601b03600160401b8204811683850152600160a01b90910416606082015260025491516372ec979560e01b8152909491909116916372ec979591611db091906004016151d0565b60206040518083038186803b158015611dc857600080fd5b505afa158015611ddc573d6000803e3d6000fd5b505050506040513d601f19601f82011682018060405250611e009190810190614278565b9050600085821415611e13575083611ebc565b600260009054906101000a90046001600160a01b03166001600160a01b03166337e6b1c18f600186600001510386602001516040518463ffffffff1660e01b8152600401611e6393929190614f01565b60206040518083038186803b158015611e7b57600080fd5b505afa158015611e8f573d6000803e3d6000fd5b505050506040513d601f19601f82011682018060405250611eb39190810190614296565b90508094508195505b6000611ef884604001516001600160601b0316610c41846001600160601b031687606001516001600160601b0316612d8b90919063ffffffff16565b9050611f0a8b8263ffffffff6126fd16565b9a505060019093019250611d0c915050565b50505050505b94509492505050565b604051610b4390849063a9059cbb60e01b90611f4d9086908690602401614ed8565b60408051601f198184030181529190526020810180516001600160e01b03166001600160e01b031990931692909217909152613178565b6000813f7fc5d2460186f7233c927e7db2dcc703c0e500b653ca82273b7bfad8045d85a470818114801590610ccc575050151592915050565b6000611fc9838361325d565b6120155750600182810180548083018083556000928352602080842090920180546001600160a01b0319166001600160a01b038716908117909155835290859052604090912055610662565b506000610662565b60005b8151811015611bcf5761205082828151811061203857fe5b6020026020010151600961325d90919063ffffffff16565b61206c5760405162461bcd60e51b81526004016105e690615029565b600101612020565b600081600160601b841061209b5760405162461bcd60e51b81526004016105e69190614f88565b509192915050565b6000838301826001600160601b0380871690831610156120d65760405162461bcd60e51b81526004016105e69190614f88565b5090505b9392505050565b3390565b60006120da83836040518060400160405280601e81526020017f536166654d6174683a207375627472616374696f6e206f766572666c6f77000081525061327b565b60006120da83836040518060400160405280601a81526020017f536166654d6174683a206469766973696f6e206279207a65726f0000000000008152506132a7565b6000612174846132de565b6001600160a01b038216612186573391505b6000805b855181101561228c5763ffffffff85166121a35761228c565b60008682815181106121b157fe5b6020908102919091018101513360009081526005835260408082206001600160a01b038416835290935291822054895191935091908190612206908b90879081106121f857fe5b60200260200101518a61341c565b909250905061221b868363ffffffff6126fd16565b9550600061222f828563ffffffff6120e516565b9050831561224a5761224881600163ffffffff6126fd16565b505b8088019750612279818b63ffffffff16036040518060600160405280603c81526020016153b1603c9139612364565b9950506001909401935061218a92505050565b50801561235c576000836001600160a01b0316826040516122ac90614e61565b60006040518083038185875af1925050503d80600081146122e9576040519150601f19603f3d011682016040523d82523d6000602084013e6122ee565b606091505b505090508061230f5760405162461bcd60e51b81526004016105e690615009565b836001600160a01b0316336001600160a01b03167fba7771603337d6821ea291d76396cf6aa3ea405141b033d8415280139c980c1d846040516123529190615199565b60405180910390a3505b509392505050565b600081640100000000841061209b5760405162461bcd60e51b81526004016105e69190614f88565b60008060008463ffffffff16116123b55760405162461bcd60e51b81526004016105e6906150b9565b6001546040805163afe8400960e01b815290516000926001600160a01b03169163afe84009916004808301926020929190829003018186803b1580156123fa57600080fd5b505afa15801561240e573d6000803e3d6000fd5b505050506040513d601f19601f82011682018060405250612432919081019061423c565b9050600061243f82612cde565b9050336001600160a01b038616612454573395505b6001600160a01b038082166000908152600560209081526040808320938c16835292905290812054908061248a848c858d611bd3565b91509150816000141561253e5782811115612526578a6001600160a01b0316336001600160a01b03167fd3d8b561a0f93295b4ea7e2b930d36bd7f1a38774547bf98fb66540f588217b285846040516124e49291906151c2565b60405180910390a36001600160a01b039384166000908152600560209081526040808320968e1683529590529384208190559296509194506126f59350505050565b60405162461bcd60e51b81526004016105e690614fc9565b6001600160a01b0380851660009081526005602090815260408083208f8516808552925290912083905590861614156125fa57604051630141abc160e21b81526001600160a01b038c1690630506af04906125a2908c908690600090600401614ef3565b602060405180830381600087803b1580156125bc57600080fd5b505af11580156125d0573d6000803e3d6000fd5b505050506040513d601f19601f820116820180604052506125f49190810190614278565b50612696565b60405163a9059cbb60e01b81526001600160a01b038c169063a9059cbb90612628908c908690600401614ed8565b602060405180830381600087803b15801561264257600080fd5b505af1158015612656573d6000803e3d6000fd5b505050506040513d601f19601f8201168201806040525061267a9190810190614200565b6126965760405162461bcd60e51b81526004016105e690615139565b8a6001600160a01b0316896001600160a01b0316336001600160a01b03167fe635adc5d0c2d7b47215ce5ed57a79c3db183a1ef414ccfc43f24f19178a630f856040516126e39190615199565b60405180910390a49096509450505050505b935093915050565b6000828201838110156120da5760405162461bcd60e51b81526004016105e690615019565b600061272e8433613604565b6001600160a01b038216612740573391505b6001546040805163afe8400960e01b815290516000926001600160a01b03169163afe84009916004808301926020929190829003018186803b15801561278557600080fd5b505afa158015612799573d6000803e3d6000fd5b505050506040513d601f19601f820116820180604052506127bd919081019061423c565b905060006127ca82612cde565b90506000805b875181101561295a576127e1613d11565b8882815181106127ed57fe5b602002602001015190508763ffffffff166000141561280c575061295a565b33600090815260056020908152604080832084516001600160a01b0316845282528220549083015182919082908210612845578161284b565b84602001515b9050886001600160a01b031685600001516001600160a01b031614806128865750876001600160a01b031685600001516001600160a01b0316145b806128b2575060405161289890614e56565b60405190819003902085516001600160a01b039081169116145b156128e6576128cb856000015186602001518e8e613944565b945092506128df878463ffffffff6126fd16565b96506128fe565b6128fa856000015186602001518e8e6139c6565b9450505b60006129156001611767878563ffffffff6120e516565b9050808b019a50612946818e63ffffffff16036040518060600160405280603c81526020016153b1603c9139612364565b9c5050600190950194506127d09350505050565b508015612a2a576000856001600160a01b03168260405161297a90614e61565b60006040518083038185875af1925050503d80600081146129b7576040519150601f19603f3d011682016040523d82523d6000602084013e6129bc565b606091505b50509050806129dd5760405162461bcd60e51b81526004016105e690615009565b856001600160a01b0316336001600160a01b03167fba7771603337d6821ea291d76396cf6aa3ea405141b033d8415280139c980c1d84604051612a209190615199565b60405180910390a3505b5050509392505050565b6000612a40838361325d565b15612015576001600160a01b03821660009081526020849052604090205460018401546000199182019101808214612aeb576000856001018281548110612a8357fe5b6000918252602090912001546001870180546001600160a01b039092169250829185908110612aae57fe5b600091825260208083209190910180546001600160a01b0319166001600160a01b0394851617905592909116815290869052604090206001830190555b6001600160a01b03841660009081526020869052604081205560018501805480612b1157fe5b600082815260209020810160001990810180546001600160a01b031916905501905550600191506106629050565b6060808260010180549050604051908082528060200260200182016040528015612b73578160200160208202803883390190505b50905060005b6001840154811015612bde57836001018181548110612b9457fe5b9060005260206000200160009054906101000a90046001600160a01b0316828281518110612bbe57fe5b6001600160a01b0390921660209283029190910190910152600101612b79565b5092915050565b6000806000806000806000600160009054906101000a90046001600160a01b03166001600160a01b031663afe840096040518163ffffffff1660e01b815260040160206040518083038186803b158015612c3e57600080fd5b505afa158015612c52573d6000803e3d6000fd5b505050506040513d601f19601f82011682018060405250612c76919081019061423c565b90506000612c8382612cde565b9050612ca68a604051612c9590614e56565b60405190819003902060008c611bd3565b9098509450612cb88a8360008c611bd3565b9097509350612cca8a8260008c611bd3565b809450819750505050509295509295509295565b6001546040516310c59ce360e11b815260009182916001600160a01b039091169063218b39c690612d13908690600401614e6c565b60206040518083038186803b158015612d2b57600080fd5b505afa158015612d3f573d6000803e3d6000fd5b505050506040513d601f19601f82011682018060405250612d639190810190613f05565b90506001600160a01b0381166106625760405162461bcd60e51b81526004016105e690615119565b600082612d9a57506000610662565b82820282848281612da757fe5b04146120da5760405162461bcd60e51b81526004016105e690615099565b6001600160a01b038116612deb5760405162461bcd60e51b81526004016105e690614fe9565b600080546040516001600160a01b03808516939216917f8be0079c531659141344cd1fd0a4f28419497f9722a3daafe3b4186f6b6457e091a3600080546001600160a01b0319166001600160a01b0392909216919091179055565b6000612e6a436040518060800160405280604381526020016154c860439139612364565b90506000612e904260405180608001604052806046815260200161558560469139612364565b6001600160a01b038516600090815260046020526040812054919250612eba600019850142613a49565b90506000816001600160601b031611612ee55760405162461bcd60e51b81526004016105e690615169565b600082118015612f2457506001600160a01b03861660009081526003602090815260408083206000198601845290915290205463ffffffff8581169116145b15612f93576001600160a01b03868116600090815260036020908152604080832060001987018452909152902080546001600160601b03888116600160a01b02908516600160401b026bffffffffffffffffffffffff60401b1990921691909117909216919091179055613064565b6040805160808101825263ffffffff868116825285811660208084019182526001600160601b038681168587019081528b8216606087019081526001600160a01b038e81166000818152600387528a81208d825287528a812099518a5498519551945163ffffffff19909916908a161767ffffffff0000000019166401000000009590991694909402979097176bffffffffffffffffffffffff60401b1916600160401b928516929092029190911716600160a01b9490921693909302179093559081526004909152206001830190555b856001600160a01b0316336001600160a01b03167ff61a5f2f4d0b2d871d5bf18717d08a6b0f543afa7e08dad5df1fea150f729632876040516130a79190615238565b60405180910390a3505050505050565b6001600160a01b038216600090815260046020526040812054806130df5760009150506120da565b600063ffffffff84166130f3575080613130565b61311d8463ffffffff1687016040518060600160405280603f815260200161550b603f9139612364565b63ffffffff169050818111156131305750805b6001600160a01b03851660009081526003602090815260408083206000198501845290915290205463ffffffff164381141561316e57600019909101905b5095945050505050565b61318a826001600160a01b0316611f84565b6131a65760405162461bcd60e51b81526004016105e690615189565b60006060836001600160a01b0316836040516131c29190614e4a565b6000604051808303816000865af19150503d80600081146131ff576040519150601f19603f3d011682016040523d82523d6000602084013e613204565b606091505b5091509150816132265760405162461bcd60e51b81526004016105e690615069565b8051156107d457808060200190516132419190810190614200565b6107d45760405162461bcd60e51b81526004016105e690615149565b6001600160a01b031660009081526020919091526040902054151590565b6000818484111561329f5760405162461bcd60e51b81526004016105e69190614f88565b505050900390565b600081836132c85760405162461bcd60e51b81526004016105e69190614f88565b5060008385816132d457fe5b0495945050505050565b6001546040805163afe8400960e01b815290516000926001600160a01b03169163afe84009916004808301926020929190829003018186803b15801561332357600080fd5b505afa158015613337573d6000803e3d6000fd5b505050506040513d601f19601f8201168201806040525061335b919081019061423c565b9050600061336882612cde565b905060005b83518110156107d457600084828151811061338457fe5b6020026020010151905060405161339a90614e56565b604051809103902060001c6001600160a01b0316816001600160a01b0316141580156133d85750836001600160a01b0316816001600160a01b031614155b80156133f65750826001600160a01b0316816001600160a01b031614155b156134135760405162461bcd60e51b81526004016105e690614fd9565b5060010161336d565b6001546040805163afe8400960e01b815290516000928392339284926001600160a01b03169163afe84009916004808301926020929190829003018186803b15801561346757600080fd5b505afa15801561347b573d6000803e3d6000fd5b505050506040513d601f19601f8201168201806040525061349f919081019061423c565b905060006134ac82612cde565b90506134b9878488613b78565b909550935084156135fa576001600160a01b0380841660009081526005602090815260408083208b85168085529252909120869055908316141561355a57604051632e1a7d4d60e01b81526001600160a01b03831690632e1a7d4d90613523908890600401615199565b600060405180830381600087803b15801561353d57600080fd5b505af1158015613551573d6000803e3d6000fd5b505050506135fa565b806001600160a01b0316876001600160a01b031614156135fa57604051630141abc160e21b81526001600160a01b03821690630506af04906135a59030908990600090600401614eb0565b602060405180830381600087803b1580156135bf57600080fd5b505af11580156135d3573d6000803e3d6000fd5b505050506040513d601f19601f820116820180604052506135f79190810190614278565b94505b5050509250929050565b60005b8251811015610b4357613618613d11565b83828151811061362457fe5b6020026020010151905060018160200151116136525760405162461bcd60e51b81526004016105e6906150c9565b602080820180516001600160a01b038087166000908152600585526040808220875190931682529190945290922054905160001990920191116136a75760405162461bcd60e51b81526004016105e690615129565b81516001600160a01b03166000908152600460209081526040909120549083015111156136e65760405162461bcd60e51b81526004016105e690614ff9565b6136ee613cea565b5081516001600160a01b03908116600090815260036020908152604080832060001980870185529083528184208251608081018452905463ffffffff80821680845264010000000083049091169583018690526001600160601b03600160401b8304811684870152600160a01b909204909116606083015260025493516337e6b1c160e01b8152919693909316936337e6b1c193613794938c9391019190600401614f01565b60206040518083038186803b1580156137ac57600080fd5b505afa1580156137c0573d6000803e3d6000fd5b505050506040513d601f19601f820116820180604052506137e49190810190614296565b90506001600160601b0381161561380d5760405162461bcd60e51b81526004016105e690615089565b613815613cea565b5083516001600160a01b0390811660009081526003602090815260408083208784528252918290208251608081018452905463ffffffff80821680845264010000000083049091169383018490526001600160601b03600160401b8304811684870152600160a01b909204909116606083015260025493516337e6b1c160e01b8152919493909316926337e6b1c1926138b8928c92600019019190600401614f01565b60206040518083038186803b1580156138d057600080fd5b505afa1580156138e4573d6000803e3d6000fd5b505050506040513d601f19601f820116820180604052506139089190810190614296565b91506000826001600160601b0316116139335760405162461bcd60e51b81526004016105e690615049565b505060019093019250613607915050565b6000808061395986600163ffffffff6120e516565b3360009081526005602090815260408083206001600160a01b038c1684529091529020549091508111156139ae573360009081526005602090815260408083206001600160a01b038b16845290915290208190555b6139b8878661341c565b925092505094509492505050565b600080806139db86600163ffffffff6120e516565b3360009081526005602090815260408083206001600160a01b038c168452909152902054909150811115613a30573360009081526005602090815260408083206001600160a01b038b16845290915290208190555b613a3b87868661238c565b909890975095505050505050565b60025460405163cdbe715560e01b815260009182916001600160a01b039091169063cdbe715590613a8090879087906004016151de565b60206040518083038186803b158015613a9857600080fd5b505afa158015613aac573d6000803e3d6000fd5b505050506040513d601f19601f82011682018060405250613ad09190810190614296565b6002546040516312916bdd60e11b81529192506001600160a01b031690632522d7ba90613b0390879087906004016151ec565b60206040518083038186803b158015613b1b57600080fd5b505afa158015613b2f573d6000803e3d6000fd5b505050506040513d601f19601f82011682018060405250613b539190810190614296565b9150610ccc828260405180608001604052806056815260200161561160569139613cb3565b6000806000600160009054906101000a90046001600160a01b03166001600160a01b031663afe840096040518163ffffffff1660e01b815260040160206040518083038186803b158015613bcb57600080fd5b505afa158015613bdf573d6000803e3d6000fd5b505050506040513d601f19601f82011682018060405250613c03919081019061423c565b90506000613c1082612cde565b9050604051613c1e90614e56565b604051809103902060001c6001600160a01b0316876001600160a01b03161480613c595750816001600160a01b0316876001600160a01b0316145b80613c755750806001600160a01b0316876001600160a01b0316145b15613c9157613c878688600088611bd3565b9094509250613ca9565b60405162461bcd60e51b81526004016105e690614fb9565b5050935093915050565b6000836001600160601b0316836001600160601b03161115829061329f5760405162461bcd60e51b81526004016105e69190614f88565b60408051608081018252600080825260208201819052918101829052606081019190915290565b604080518082019091526000808252602082015290565b803561066281615366565b805161066281615366565b60008083601f840112613d5057600080fd5b50813567ffffffffffffffff811115613d6857600080fd5b602083019150836020820283011115613d8057600080fd5b9250929050565b600082601f830112613d9857600080fd5b8135613dab613da68261527b565b615254565b91508181835260208401935060208101905083856020840282011115613dd057600080fd5b60005b83811015613dfc5781613de68882613d28565b8452506020928301929190910190600101613dd3565b5050505092915050565b60008083601f840112613e1857600080fd5b50813567ffffffffffffffff811115613e3057600080fd5b602083019150836040820283011115613d8057600080fd5b80516106628161537a565b803561066281615383565b80516106628161538c565b600060408284031215613e7b57600080fd5b613e856040615254565b90506000613e938484613d28565b8252506020613ea484848301613eb0565b60208301525092915050565b803561066281615395565b805161066281615395565b80356106628161539e565b8035610662816153a7565b8051610662816153a7565b600060208284031215613ef957600080fd5b6000610ccc8484613d28565b600060208284031215613f1757600080fd5b6000610ccc8484613d33565b60008060408385031215613f3657600080fd5b6000613f428585613d28565b9250506020613f5385828601613d28565b9150509250929050565b60008060008060808587031215613f7357600080fd5b6000613f7f8787613d28565b9450506020613f9087828801613d28565b9350506040613fa187828801613eb0565b9250506060613fb287828801613eb0565b91505092959194509250565b60008060008060808587031215613fd457600080fd5b6000613fe08787613d28565b9450506020613ff187828801613d28565b935050604061400287828801613eb0565b9250506060613fb287828801613ec6565b6000806040838503121561402657600080fd5b60006140328585613d28565b9250506020613f5385828601613eb0565b60008060006060848603121561405857600080fd5b60006140648686613d28565b935050602061407586828701613ec6565b925050604061408686828701613d28565b9150509250925092565b600080604083850312156140a357600080fd5b60006140af8585613d28565b9250506020613f5385828601613ed1565b600080602083850312156140d357600080fd5b823567ffffffffffffffff8111156140ea57600080fd5b6140f685828601613d3e565b92509250509250929050565b60008060008060008060008060a0898b03121561411e57600080fd5b883567ffffffffffffffff81111561413557600080fd5b6141418b828c01613d3e565b9850985050602089013567ffffffffffffffff81111561416057600080fd5b61416c8b828c01613d3e565b9650965050604089013567ffffffffffffffff81111561418b57600080fd5b6141978b828c01613e06565b945094505060606141aa8b828c01613ec6565b92505060806141bb8b828c01613d28565b9150509295985092959890939650565b6000602082840312156141dd57600080fd5b813567ffffffffffffffff8111156141f457600080fd5b610ccc84828501613d87565b60006020828403121561421257600080fd5b6000610ccc8484613e48565b60006020828403121561423057600080fd5b6000610ccc8484613e53565b60006020828403121561424e57600080fd5b6000610ccc8484613e5e565b60006040828403121561426c57600080fd5b6000610ccc8484613e69565b60006020828403121561428a57600080fd5b6000610ccc8484613ebb565b6000602082840312156142a857600080fd5b6000610ccc8484613edc565b60006142c083836142e3565b505060200190565b60006142c08383614e1d565b6142dd8161530f565b82525050565b6142dd816152c6565b60006142f883856152a9565b93506143038261529c565b8060005b858110156143395761431982846152b7565b61432388826142b4565b975061432e8361529f565b925050600101614307565b509495945050505050565b600061434f826152a5565b61435981856152a9565b93506143648361529f565b8060005b8381101561433957815161437c88826142b4565b97506143878361529f565b925050600101614368565b600061439d826152a5565b6143a781856152a9565b93506143b28361529f565b8060005b838110156143395781516143ca88826142c8565b97506143d58361529f565b9250506001016143b6565b6142dd816152d1565b60006143f4826152a5565b6143fe81856152b2565b935061440e818560208601615330565b9290920192915050565b6142dd816152e3565b600061442c826152a5565b61443681856152a9565b9350614446818560208601615330565b61444f8161535c565b9093019392505050565b60006144666033836152a9565b7f46656553686172696e67436f6c6c6563746f723a3a7472616e73666572546f6b815272195b9cce881a5b9d985b1a5908185b5bdd5b9d606a1b602082015260400192915050565b60006144bb6034836152a9565b7f46656553686172696e67436f6c6c6563746f723a3a7472616e73666572546f6b815273656e733a20696e76616c6964206164647265737360601b602082015260400192915050565b60006145116048836152a9565b7f46656553686172696e67436f6c6c6563746f723a3a5f6765745242544342616c81527f616e63653a206f6e6c7920726274632d626173656420746f6b656e732061726560208201526708185b1b1bddd95960c21b604082015260600192915050565b6000614581603b836152a9565b7f46656553686172696e67436f6c6c6563746f723a3a776974686472617746656581527f733a206e6f20746f6b656e7320666f72207769746864726177616c0000000000602082015260400192915050565b60006145e06022836152a9565b7f6f6e6c7920726274632d626173656420746f6b656e732061726520616c6c6f77815261195960f21b602082015260400192915050565b60006146246026836152a9565b7f4f776e61626c653a206e6577206f776e657220697320746865207a65726f206181526564647265737360d01b602082015260400192915050565b600061466c6032836152a9565b7f5f66726f6d436865636b706f696e742073686f756c64206265203c3d20746f74815271616c546f6b656e436865636b706f696e747360701b602082015260400192915050565b60006146c06034836152a9565b7f46656553686172696e67436f6c6c6563746f723a3a776974686472617752425481527310ce8815da5d1a191c985dd85b0819985a5b195960621b602082015260400192915050565b6000614716601b836152a9565b7f536166654d6174683a206164646974696f6e206f766572666c6f770000000000815260200192915050565b600061474f6011836152a9565b7024b73b30b634b21021b7b73b32b93a32b960791b815260200192915050565b600061477c6035836152a9565b7f46656553686172696e67436f6c6c6563746f723a2066756e6374696f6e2063618152746e206f6e6c792062652063616c6c6564206f6e636560581b602082015260400192915050565b60006147d36035836152a9565b7f55736572207765696768746564207374616b652073686f756c64206265203e208152740c08185d080817d99c9bdb50da1958dadc1bda5b9d605a1b602082015260400192915050565b600061482a6014836152a9565b73496e73756666696369656e742062616c616e636560601b815260200192915050565b600061485a6020836152a9565b7f5361666545524332303a206c6f772d6c6576656c2063616c6c206661696c6564815260200192915050565b60006148936030836152a9565b7f46656553686172696e67436f6c6c6563746f723a3a7472616e7366657252425481526f433a20696e76616c69642076616c756560801b602082015260400192915050565b60006148e56039836152a9565b7f55736572207765696768746564207374616b652073686f756c64206265207a6581527f726f2061742070726576696f757320636865636b706f696e7400000000000000602082015260400192915050565b60006149446021836152a9565b7f536166654d6174683a206d756c7469706c69636174696f6e206f766572666c6f8152607760f81b602082015260400192915050565b6000614987600c836152a9565b6b1d5b985d5d1a1bdc9a5e995960a21b815260200192915050565b60006149af6041836152a9565b7f46656553686172696e67436f6c6c6563746f723a3a77697468647261773a205f81527f6d6178436865636b706f696e74732073686f756c6420626520706f73697469766020820152606560f81b604082015260600192915050565b6000614a186021836152a9565b7f5f66726f6d436865636b706f696e7420706172616d206d757374206265203e208152603160f81b602082015260400192915050565b6000614a5b601a836152a9565b7f4e6f6e20636f6e7472616374206164647265737320676976656e000000000000815260200192915050565b6000614a94602e836152a9565b7f5374616b696e673a3a7472616e73666572546f6b656e733a20746f6b656e207481526d1c985b9cd9995c8819985a5b195960921b602082015260400192915050565b6000614ae46021836152b2565b7f524254435f44554d4d595f414444524553535f464f525f434845434b504f494e8152601560fa1b602082015260210192915050565b60006106626000836152b2565b6000614b34604a836152a9565b7f46656553686172696e67436f6c6c6563746f723a3a7265636f766572496e636f81527f7272656374416c6c6f6361746564466565733a205769746864726177616c2072602082015269189d18c819985a5b195960b21b604082015260600192915050565b6000614ba6600c836152a9565b6b1b9bdb9499595b9d1c985b9d60a21b815260200192915050565b6000614bce6033836152a9565b7f46656553686172696e67436f6c6c6563746f723a3a77697468647261773a206c8152721bd85b881dd4909510c81b9bdd08199bdd5b99606a1b602082015260400192915050565b6000614c236038836152a9565b7f5f66726f6d436865636b706f696e7420706172616d206d757374206265203e2081527f7573657250726f636573736564436865636b706f696e74730000000000000000602082015260400192915050565b6000614c826030836152a9565b7f46656553686172696e67436f6c6c6563746f723a3a77697468647261773a207781526f1a5d1a191c985dd85b0819985a5b195960821b602082015260400192915050565b6000614cd4602a836152a9565b7f5361666545524332303a204552433230206f7065726174696f6e20646964206e8152691bdd081cdd58d8d9595960b21b602082015260400192915050565b6000614d20603a836152a9565b7f46656553686172696e67436f6c6c6563746f723a3a776974686472617746656581527f733a20746f6b656e206973206e6f74206120636f6e7472616374000000000000602082015260400192915050565b6000614d7f601a836152a9565b7f496e76616c696420746f74616c57656967687465645374616b65000000000000815260200192915050565b6000614db8601b836152a9565b7f5f6d6178436865636b706f696e7473206d757374206265203e20300000000000815260200192915050565b6000614df1601f836152a9565b7f5361666545524332303a2063616c6c20746f206e6f6e2d636f6e747261637400815260200192915050565b6142dd8161529c565b6142dd8161531a565b6142dd816152fa565b6142dd81615325565b6142dd81615303565b60006120da82846143e9565b600061066282614ad7565b600061066282614b1a565b6020810161066282846142e3565b6020810161066282846142d4565b60608101614e9682866142d4565b614ea360208301856142d4565b610ccc6040830184614e38565b60608101614ebe82866142d4565b614ecb6020830185614e1d565b610ccc60408301846143e0565b60408101614ee682856142e3565b6120da6020830184614e1d565b60608101614ebe82866142e3565b60608101614f0f82866142e3565b614f1c6020830185614e26565b610ccc6040830184614e26565b60408082528101614f3b8185876142ec565b9050610ccc60208301846142d4565b602080825281016120da8184614344565b602080825281016120da8184614392565b6020810161066282846143e0565b602081016106628284614418565b602080825281016120da8184614421565b6020808252810161066281614459565b60208082528101610662816144ae565b6020808252810161066281614504565b6020808252810161066281614574565b60208082528101610662816145d3565b6020808252810161066281614617565b602080825281016106628161465f565b60208082528101610662816146b3565b6020808252810161066281614709565b6020808252810161066281614742565b602080825281016106628161476f565b60208082528101610662816147c6565b602080825281016106628161481d565b602080825281016106628161484d565b6020808252810161066281614886565b60208082528101610662816148d8565b6020808252810161066281614937565b602080825281016106628161497a565b60208082528101610662816149a2565b6020808252810161066281614a0b565b6020808252810161066281614a4e565b6020808252810161066281614a87565b6020808252810161066281614b27565b6020808252810161066281614b99565b6020808252810161066281614bc1565b6020808252810161066281614c16565b6020808252810161066281614c75565b6020808252810161066281614cc7565b6020808252810161066281614d13565b6020808252810161066281614d72565b6020808252810161066281614dab565b6020808252810161066281614de4565b602081016106628284614e1d565b606081016151b58286614e1d565b614ecb60208301856143e0565b60408101614ee68285614e1d565b602081016106628284614e26565b60408101614ee68285614e26565b60408101614ee68285614e2f565b608081016152088287614e2f565b6152156020830186614e2f565b6152226040830185614e41565b61522f6060830184614e41565b95945050505050565b602081016106628284614e38565b602081016106628284614e41565b60405181810167ffffffffffffffff8111828210171561527357600080fd5b604052919050565b600067ffffffffffffffff82111561529257600080fd5b5060209081020190565b90565b60200190565b5190565b90815260200190565b919050565b60006120da6020840184613d28565b6000610662826152ee565b151590565b6001600160e01b03191690565b6000610662826152c6565b6001600160a01b031690565b63ffffffff1690565b6001600160601b031690565b6000610662826152e3565b6000610662826152fa565b600061066282615303565b60005b8381101561534b578181015183820152602001615333565b838111156107d45750506000910152565b601f01601f191690565b61536f816152c6565b81146117ed57600080fd5b61536f816152d1565b61536f816152d6565b61536f816152e3565b61536f8161529c565b61536f816152fa565b61536f8161530356fe46656553686172696e67436f6c6c6563746f723a206d6178436865636b706f696e7420697465726174696f6e2065786365656473203332206269747346656553686172696e67436f6c6c6563746f723a3a7769746864726177466565733a20777262746320746f6b656e20616d6f756e742065786365656473203936206269747346656553686172696e67436f6c6c6563746f723a3a776974686472617746656573414d4d3a20746f74616c20777262746320746f6b656e20616d6f756e742065786365656473203936206269747346656553686172696e67436f6c6c6563746f723a3a776974686472617746656573414d4d3a20777262746320746f6b656e20616d6f756e742065786365656473203936206269747346656553686172696e67436f6c6c6563746f723a3a5f7772697465436865636b706f696e743a20626c6f636b206e756d6265722065786365656473203332206269747346656553686172696e67436f6c6c6563746f723a3a77697468647261773a20636865636b706f696e7420696e6465782065786365656473203332206269747346656553686172696e67436f6c6c6563746f723a3a5f616464436865636b706f696e743a20616d6f756e742065786365656473203936206269747346656553686172696e67436f6c6c6563746f723a3a5f7772697465436865636b706f696e743a20626c6f636b2074696d657374616d702065786365656473203332206269747346656553686172696e67436f6c6c6563746f723a3a5f616464436865636b706f696e743a20756e70726f636573736564416d6f756e742065786365656473203936206269747346656553686172696e67436f6c6c6563746f723a3a5f676574546f74616c566f6c756e7461727957656967687465645374616b653a20766573746564207374616b65206578636565647320746f74616c207374616b65a365627a7a72315820d4d224ae77063569fb711cdd9adc3c42765efa5f3ef111cd863dc253aae79e496c6578706572696d656e74616cf564736f6c63430005110040",
  "devdoc": {
    "methods": {
      "addWhitelistedConverterAddress(address)": {
        "details": "Whitelisting converter address.",
        "params": {
          "converterAddress": "converter address to be whitelisted."
        }
      },
      "claimAllCollectedFees(address[],address[],(address,uint256)[],uint32,address)": {
        "details": "Function to wrap: 1. regular withdrawal for both rbtc & non-rbtc token 2. skipped checkpoints withdrawal for both rbtc & non-rbtc token",
        "params": {
          "_nonRbtcTokensRegularWithdraw": "array of non-rbtc token address with no skipped checkpoints that will be withdrawn",
          "_rbtcTokensRegularWithdraw": "array of rbtc token address with no skipped checkpoints that will be withdrawn",
          "_tokensWithSkippedCheckpoints": "array of rbtc & non-rbtc TokenWithSkippedCheckpointsWithdraw struct, which has skipped checkpoints that will be withdrawn     "
        }
      },
      "getAccumulatedFees(address,address)": {
        "params": {
          "_token": "RBTC dummy to fit into existing data structure or SOV. Former address of the pool token.",
          "_user": "The address of the user or contract."
        },
        "return": "The accumulated fee for the message sender."
      },
      "getAccumulatedFeesForCheckpointsRange(address,address,uint256,uint32)": {
        "details": "This function is required to keep consistent with caching of weighted voting power when claiming fees",
        "params": {
          "_maxCheckpoints": "maxCheckpoints to get accumulated fees for the _user",
          "_startFrom": "Checkpoint to start calculating fees from.",
          "_token": "RBTC dummy to fit into existing data structure or SOV. Former address of the pool token.",
          "_user": "The address of a user (staker) or contract."
        },
        "return": "The accumulated fees rewards for the _user in the given checkpoints interval: [_startFrom, _startFrom + maxCheckpoints]."
      },
      "getAccumulatedRBTCFeeBalances(address)": {
        "details": "view function that calculate the total RBTC that includes: - RBTC - WRBTC - iWRBTC * iWRBTC.tokenPrice()",
        "params": {
          "_user": "address of the user."
        },
        "return": "rbtc balance of the given user's address."
      },
      "getAllUserFeesPerMaxCheckpoints(address,address,uint256,uint32)": {
        "details": "Get all user fees reward per maxCheckpoint starting from latest processed checkpointe.g: Total user checkpoint for the particualar token = 300, when we call this function with 50 maxCheckpoint, it will return 6 fee values in array form. if there is no more fees, it will return empty array.",
        "params": {
          "_maxCheckpoints": "maxCheckpoints to get accumulated fees for the _user",
          "_startFrom": "Checkpoint to start calculating fees from.",
          "_token": "RBTC dummy to fit into existing data structure or SOV. Former address of the pool token.",
          "_user": "The address of a user (staker) or contract."
        },
        "return": "The next checkpoint num which is the starting point to fetch all of the fees, array of calculated fees."
      },
      "getNextPositiveUserCheckpoint(address,address,uint256,uint256)": {
        "details": "Returns first user's checkpoint with weighted stake > 0",
        "params": {
          "_maxCheckpoints": "Max checkpoints to process in a row to avoid timeout error",
          "_startFrom": "Checkpoint number to start from. If _startFrom < processedUserCheckpoints then starts from processedUserCheckpoints.",
          "_token": "RBTC dummy to fit into existing data structure or SOV. Former address of the pool token.",
          "_user": "The address of the user or contract."
        },
        "return": "[checkpointNum: checkpoint number where user's weighted stake > 0, hasSkippedCheckpoints, hasFees]"
      },
      "getWhitelistedConverterList()": {
        "return": "All of the whitelisted converter list."
      },
      "isOwner()": {
        "details": "Returns true if the caller is the current owner."
      },
      "numTokenCheckpoints(address)": {
        "details": "This getter function `numTokenCheckpoints` is added for backwards compatibility     broken when renamed `numTokenCheckpoints` storage variable to `totalTokenCheckpoints`.",
        "params": {
          "_token": "token address to get checkpoints for"
        },
        "return": "Total token checkpoints"
      },
      "owner()": {
        "details": "Returns the address of the current owner."
      },
      "recoverIncorrectAllocatedFees()": {
        "details": "This function is dedicated to recover the wrong fee allocation for the 4 year vesting contracts. This function can only be called once The affected tokens to be withdrawn 1. RBTC 2. ZUSD 3. SOV The amount for all of the tokens above is hardcoded The withdrawn tokens will be sent to the owner."
      },
      "removeWhitelistedConverterAddress(address)": {
        "details": "Removing converter address from whitelist.",
        "params": {
          "converterAddress": "converter address to be removed from whitelist."
        }
      },
      "transferOwnership(address)": {
        "details": "Transfers ownership of the contract to a new account (`newOwner`). Can only be called by the current owner."
      },
      "transferRBTC()": {
        "details": "We just write checkpoint here (based on the rbtc value that is sent) in a separate methods in order to prevent adding checkpoints too often."
      },
      "transferTokens(address,uint96)": {
        "details": "We just update amount of tokens here and write checkpoint in a separate methods in order to prevent adding checkpoints too often.",
        "params": {
          "_amount": "Amount to be transferred.",
          "_token": "Address of the token."
        }
      },
      "withdraw(address,uint32,address)": {
        "params": {
          "_maxCheckpoints": "Maximum number of checkpoints to be processed. Must be positive value.",
          "_receiver": "The receiver of tokens or msg.sender",
          "_token": "RBTC dummy to fit into existing data structure or SOV. Former address of the pool token."
        }
      },
      "withdrawFees(address[])": {
        "params": {
          "_tokens": "array address of the token"
        }
      },
      "withdrawFeesAMM(address[])": {
        "params": {
          "_converters": "array addresses of the converters"
        }
      }
    },
    "title": "The FeeSharingCollector contract."
  },
  "userdoc": {
    "methods": {
      "getAccumulatedFees(address,address)": {
        "notice": "Get the accumulated loan pool fee of the message sender."
      },
      "getAccumulatedFeesForCheckpointsRange(address,address,uint256,uint32)": {
        "notice": "Get the accumulated fee rewards for the message sender for a checkpoints range"
      },
      "getWhitelistedConverterList()": {
        "notice": "Getter to query all of the whitelisted converter."
      },
      "transferRBTC()": {
        "notice": "Transfer RBTC / native tokens to this contract."
      },
      "transferTokens(address,uint96)": {
        "notice": "Transfer tokens to this contract."
      },
      "withdraw(address,uint32,address)": {
        "notice": "Withdraw accumulated fee to the message sender.     * The Sovryn protocol collects fees on every trade/swap and loan. These fees will be distributed to SOV stakers based on their voting power as a percentage of total voting power. Therefore, staking more SOV and/or staking for longer will increase your share of the fees generated, meaning you will earn more from staking.     * This function will directly burnToBTC and use the msg.sender (user) as the receiver"
      },
      "withdrawFees(address[])": {
        "notice": "Withdraw fees for the given token: lendingFee + tradingFee + borrowingFee the fees (except SOV) will be converted in wRBTC form, and then will be transferred to wRBTC loan pool. For SOV, it will be directly deposited into the feeSharingCollector from the protocol."
      },
      "withdrawFeesAMM(address[])": {
        "notice": "Withdraw amm fees for the given converter addresses: protocolFee from the conversion the fees will be converted in wRBTC form, and then will be transferred to wRBTC loan pool"
      }
    },
    "notice": "This contract withdraws fees to be paid to SOV Stakers from the protocol. Stakers call withdraw() to get their share of the fees.Staking is not only granting voting rights, but also access to fee sharing according to the own voting power in relation to the total. Whenever somebody decides to collect the fees from the protocol, they get transferred to a proxy contract which invests the funds in the lending pool and keeps the pool tokens. * The fee sharing proxy will be set as feesController of the protocol contract. This allows the fee sharing proxy to withdraw the fees. The fee sharing proxy holds the pool tokens and keeps track of which user owns how many tokens. In order to know how many tokens a user owns, the fee sharing proxy needs to know the users weighted stake in relation to the total weighted stake (aka total voting power). * Because both values are subject to change, they may be different on each fee withdrawal. To be able to calculate a users share of tokens when he wants to withdraw, we need checkpoints. * This contract is intended to be set as the protocol fee collector. Anybody can invoke the withdrawFees function which uses protocol.withdrawFees to obtain available fees from operations on a certain token. These fees are deposited in the corresponding loanPool. Also, the staking contract sends slashed tokens to this contract. When a user calls the withdraw function, the contract transfers the fee sharing rewards in proportion to the users weighted stake since the last withdrawal. * The protocol initially collects fees in all tokens. Then the FeeSharingCollector wihtdraws fees from the protocol. When the fees are withdrawn all the tokens except SOV will be converted to wRBTC and then transferred to wRBTC loan pool. For SOV, it will be directly deposited into the feeSharingCollector from the protocol."
  },
  "storageLayout": {
    "storage": [
      {
        "astId": 54412,
        "contract": "contracts/governance/FeeSharingCollector/FeeSharingCollector.sol:FeeSharingCollector",
        "label": "_owner",
        "offset": 0,
        "slot": "0",
        "type": "t_address"
      },
      {
        "astId": 15327,
        "contract": "contracts/governance/FeeSharingCollector/FeeSharingCollector.sol:FeeSharingCollector",
        "label": "protocol",
        "offset": 0,
        "slot": "1",
        "type": "t_contract(IProtocol)15430"
      },
      {
        "astId": 15329,
        "contract": "contracts/governance/FeeSharingCollector/FeeSharingCollector.sol:FeeSharingCollector",
        "label": "staking",
        "offset": 0,
        "slot": "2",
        "type": "t_contract(IStaking)17768"
      },
      {
        "astId": 15335,
        "contract": "contracts/governance/FeeSharingCollector/FeeSharingCollector.sol:FeeSharingCollector",
        "label": "tokenCheckpoints",
        "offset": 0,
        "slot": "3",
        "type": "t_mapping(t_address,t_mapping(t_uint256,t_struct(Checkpoint)15362_storage))"
      },
      {
        "astId": 15339,
        "contract": "contracts/governance/FeeSharingCollector/FeeSharingCollector.sol:FeeSharingCollector",
        "label": "totalTokenCheckpoints",
        "offset": 0,
        "slot": "4",
        "type": "t_mapping(t_address,t_uint256)"
      },
      {
        "astId": 15345,
        "contract": "contracts/governance/FeeSharingCollector/FeeSharingCollector.sol:FeeSharingCollector",
        "label": "processedCheckpoints",
        "offset": 0,
        "slot": "5",
        "type": "t_mapping(t_address,t_mapping(t_address,t_uint256))"
      },
      {
        "astId": 15349,
        "contract": "contracts/governance/FeeSharingCollector/FeeSharingCollector.sol:FeeSharingCollector",
        "label": "lastFeeWithdrawalTime",
        "offset": 0,
        "slot": "6",
        "type": "t_mapping(t_address,t_uint256)"
      },
      {
        "astId": 15353,
        "contract": "contracts/governance/FeeSharingCollector/FeeSharingCollector.sol:FeeSharingCollector",
        "label": "unprocessedAmount",
        "offset": 0,
        "slot": "7",
        "type": "t_mapping(t_address,t_uint96)"
      },
      {
        "astId": 15376,
        "contract": "contracts/governance/FeeSharingCollector/FeeSharingCollector.sol:FeeSharingCollector",
        "label": "reentrancyLock",
        "offset": 0,
        "slot": "8",
        "type": "t_uint256"
      },
      {
        "astId": 15378,
        "contract": "contracts/governance/FeeSharingCollector/FeeSharingCollector.sol:FeeSharingCollector",
        "label": "whitelistedConverterList",
        "offset": 0,
        "slot": "9",
        "type": "t_struct(AddressSet)35856_storage"
      },
      {
        "astId": 15382,
        "contract": "contracts/governance/FeeSharingCollector/FeeSharingCollector.sol:FeeSharingCollector",
        "label": "isFunctionExecuted",
        "offset": 0,
        "slot": "11",
        "type": "t_mapping(t_bytes4,t_bool)"
      }
    ],
    "types": {
      "t_address": {
        "encoding": "inplace",
        "label": "address",
        "numberOfBytes": "20"
      },
      "t_array(t_address)dyn_storage": {
        "base": "t_address",
        "encoding": "dynamic_array",
        "label": "address[]",
        "numberOfBytes": "32"
      },
      "t_bool": {
        "encoding": "inplace",
        "label": "bool",
        "numberOfBytes": "1"
      },
      "t_bytes4": {
        "encoding": "inplace",
        "label": "bytes4",
        "numberOfBytes": "4"
      },
      "t_contract(IProtocol)15430": {
        "encoding": "inplace",
        "label": "contract IProtocol",
        "numberOfBytes": "20"
      },
      "t_contract(IStaking)17768": {
        "encoding": "inplace",
        "label": "contract IStaking",
        "numberOfBytes": "20"
      },
      "t_mapping(t_address,t_mapping(t_address,t_uint256))": {
        "encoding": "mapping",
        "key": "t_address",
        "label": "mapping(address => mapping(address => uint256))",
        "numberOfBytes": "32",
        "value": "t_mapping(t_address,t_uint256)"
      },
      "t_mapping(t_address,t_mapping(t_uint256,t_struct(Checkpoint)15362_storage))": {
        "encoding": "mapping",
        "key": "t_address",
        "label": "mapping(address => mapping(uint256 => struct FeeSharingCollectorStorage.Checkpoint))",
        "numberOfBytes": "32",
        "value": "t_mapping(t_uint256,t_struct(Checkpoint)15362_storage)"
      },
      "t_mapping(t_address,t_uint256)": {
        "encoding": "mapping",
        "key": "t_address",
        "label": "mapping(address => uint256)",
        "numberOfBytes": "32",
        "value": "t_uint256"
      },
      "t_mapping(t_address,t_uint96)": {
        "encoding": "mapping",
        "key": "t_address",
        "label": "mapping(address => uint96)",
        "numberOfBytes": "32",
        "value": "t_uint96"
      },
      "t_mapping(t_bytes4,t_bool)": {
        "encoding": "mapping",
        "key": "t_bytes4",
        "label": "mapping(bytes4 => bool)",
        "numberOfBytes": "32",
        "value": "t_bool"
      },
      "t_mapping(t_uint256,t_struct(Checkpoint)15362_storage)": {
        "encoding": "mapping",
        "key": "t_uint256",
        "label": "mapping(uint256 => struct FeeSharingCollectorStorage.Checkpoint)",
        "numberOfBytes": "32",
        "value": "t_struct(Checkpoint)15362_storage"
      },
      "t_struct(AddressSet)35856_storage": {
        "encoding": "inplace",
        "label": "struct EnumerableAddressSet.AddressSet",
        "members": [
          {
            "astId": 35852,
            "contract": "contracts/governance/FeeSharingCollector/FeeSharingCollector.sol:FeeSharingCollector",
            "label": "index",
            "offset": 0,
            "slot": "0",
            "type": "t_mapping(t_address,t_uint256)"
          },
          {
            "astId": 35855,
            "contract": "contracts/governance/FeeSharingCollector/FeeSharingCollector.sol:FeeSharingCollector",
            "label": "values",
            "offset": 0,
            "slot": "1",
            "type": "t_array(t_address)dyn_storage"
          }
        ],
        "numberOfBytes": "64"
      },
      "t_struct(Checkpoint)15362_storage": {
        "encoding": "inplace",
        "label": "struct FeeSharingCollectorStorage.Checkpoint",
        "members": [
          {
            "astId": 15355,
            "contract": "contracts/governance/FeeSharingCollector/FeeSharingCollector.sol:FeeSharingCollector",
            "label": "blockNumber",
            "offset": 0,
            "slot": "0",
            "type": "t_uint32"
          },
          {
            "astId": 15357,
            "contract": "contracts/governance/FeeSharingCollector/FeeSharingCollector.sol:FeeSharingCollector",
            "label": "timestamp",
            "offset": 4,
            "slot": "0",
            "type": "t_uint32"
          },
          {
            "astId": 15359,
            "contract": "contracts/governance/FeeSharingCollector/FeeSharingCollector.sol:FeeSharingCollector",
            "label": "totalWeightedStake",
            "offset": 8,
            "slot": "0",
            "type": "t_uint96"
          },
          {
            "astId": 15361,
            "contract": "contracts/governance/FeeSharingCollector/FeeSharingCollector.sol:FeeSharingCollector",
            "label": "numTokens",
            "offset": 20,
            "slot": "0",
            "type": "t_uint96"
          }
        ],
        "numberOfBytes": "32"
      },
      "t_uint256": {
        "encoding": "inplace",
        "label": "uint256",
        "numberOfBytes": "32"
      },
      "t_uint32": {
        "encoding": "inplace",
        "label": "uint32",
        "numberOfBytes": "4"
      },
      "t_uint96": {
        "encoding": "inplace",
        "label": "uint96",
        "numberOfBytes": "12"
      }
    }
  }
}