{
  "address": "0xe28aEbA913c34EC8F10DF0D9C92D2Aa27545870e",
  "abi": [
    {
      "anonymous": false,
      "inputs": [
        {
          "indexed": false,
          "internalType": "address",
          "name": "admin",
          "type": "address"
        }
      ],
      "name": "AdminAdded",
      "type": "event"
    },
    {
      "anonymous": false,
      "inputs": [
        {
          "indexed": false,
          "internalType": "address",
          "name": "admin",
          "type": "address"
        }
      ],
      "name": "AdminRemoved",
      "type": "event"
    },
    {
      "anonymous": false,
      "inputs": [
        {
          "indexed": true,
          "internalType": "address",
          "name": "user",
          "type": "address"
        },
        {
          "indexed": true,
          "internalType": "address",
          "name": "poolToken",
          "type": "address"
        },
        {
          "indexed": false,
          "internalType": "uint256",
          "name": "amount",
          "type": "uint256"
        }
      ],
      "name": "Deposit",
      "type": "event"
    },
    {
      "anonymous": false,
      "inputs": [
        {
          "indexed": true,
          "internalType": "address",
          "name": "user",
          "type": "address"
        },
        {
          "indexed": true,
          "internalType": "address",
          "name": "poolToken",
          "type": "address"
        },
        {
          "indexed": false,
          "internalType": "uint256",
          "name": "amount",
          "type": "uint256"
        },
        {
          "indexed": false,
          "internalType": "uint256",
          "name": "accumulatedReward",
          "type": "uint256"
        }
      ],
      "name": "EmergencyWithdraw",
      "type": "event"
    },
    {
      "anonymous": false,
      "inputs": [
        {
          "indexed": true,
          "internalType": "address",
          "name": "previousOwner",
          "type": "address"
        },
        {
          "indexed": true,
          "internalType": "address",
          "name": "newOwner",
          "type": "address"
        }
      ],
      "name": "OwnershipTransferred",
      "type": "event"
    },
    {
      "anonymous": false,
      "inputs": [
        {
          "indexed": true,
          "internalType": "address",
          "name": "user",
          "type": "address"
        },
        {
          "indexed": true,
          "internalType": "address",
          "name": "poolToken",
          "type": "address"
        },
        {
          "indexed": false,
          "internalType": "uint256",
          "name": "allocationPoint",
          "type": "uint256"
        }
      ],
      "name": "PoolTokenAdded",
      "type": "event"
    },
    {
      "anonymous": false,
      "inputs": [
        {
          "indexed": true,
          "internalType": "address",
          "name": "user",
          "type": "address"
        },
        {
          "indexed": true,
          "internalType": "address",
          "name": "poolToken",
          "type": "address"
        },
        {
          "indexed": false,
          "internalType": "uint256",
          "name": "newAllocationPoint",
          "type": "uint256"
        },
        {
          "indexed": false,
          "internalType": "uint256",
          "name": "oldAllocationPoint",
          "type": "uint256"
        }
      ],
      "name": "PoolTokenUpdated",
      "type": "event"
    },
    {
      "anonymous": false,
      "inputs": [
        {
          "indexed": true,
          "internalType": "address",
          "name": "user",
          "type": "address"
        },
        {
          "indexed": true,
          "internalType": "address",
          "name": "poolToken",
          "type": "address"
        },
        {
          "indexed": false,
          "internalType": "uint256",
          "name": "amount",
          "type": "uint256"
        }
      ],
      "name": "RewardClaimed",
      "type": "event"
    },
    {
      "anonymous": false,
      "inputs": [
        {
          "indexed": true,
          "internalType": "address",
          "name": "receiver",
          "type": "address"
        },
        {
          "indexed": false,
          "internalType": "uint256",
          "name": "amount",
          "type": "uint256"
        }
      ],
      "name": "SOVTransferred",
      "type": "event"
    },
    {
      "anonymous": false,
      "inputs": [
        {
          "indexed": true,
          "internalType": "address",
          "name": "user",
          "type": "address"
        },
        {
          "indexed": true,
          "internalType": "address",
          "name": "poolToken",
          "type": "address"
        },
        {
          "indexed": false,
          "internalType": "uint256",
          "name": "amount",
          "type": "uint256"
        }
      ],
      "name": "Withdraw",
      "type": "event"
    },
    {
      "constant": true,
      "inputs": [],
      "name": "BONUS_BLOCK_MULTIPLIER",
      "outputs": [
        {
          "internalType": "uint256",
          "name": "",
          "type": "uint256"
        }
      ],
      "payable": false,
      "stateMutability": "view",
      "type": "function"
    },
    {
      "constant": true,
      "inputs": [],
      "name": "PRECISION",
      "outputs": [
        {
          "internalType": "uint256",
          "name": "",
          "type": "uint256"
        }
      ],
      "payable": false,
      "stateMutability": "view",
      "type": "function"
    },
    {
      "constant": true,
      "inputs": [],
      "name": "SECONDS_PER_BLOCK",
      "outputs": [
        {
          "internalType": "uint256",
          "name": "",
          "type": "uint256"
        }
      ],
      "payable": false,
      "stateMutability": "view",
      "type": "function"
    },
    {
      "constant": true,
      "inputs": [],
      "name": "SOV",
      "outputs": [
        {
          "internalType": "contract IERC20",
          "name": "",
          "type": "address"
        }
      ],
      "payable": false,
      "stateMutability": "view",
      "type": "function"
    },
    {
      "constant": false,
      "inputs": [
        {
          "internalType": "address",
          "name": "_poolToken",
          "type": "address"
        },
        {
          "internalType": "uint96",
          "name": "_allocationPoint",
          "type": "uint96"
        },
        {
          "internalType": "bool",
          "name": "_withUpdate",
          "type": "bool"
        }
      ],
      "name": "add",
      "outputs": [],
      "payable": false,
      "stateMutability": "nonpayable",
      "type": "function"
    },
    {
      "constant": false,
      "inputs": [
        {
          "internalType": "address",
          "name": "_admin",
          "type": "address"
        }
      ],
      "name": "addAdmin",
      "outputs": [],
      "payable": false,
      "stateMutability": "nonpayable",
      "type": "function"
    },
    {
      "constant": true,
      "inputs": [
        {
          "internalType": "address",
          "name": "",
          "type": "address"
        }
      ],
      "name": "admins",
      "outputs": [
        {
          "internalType": "bool",
          "name": "",
          "type": "bool"
        }
      ],
      "payable": false,
      "stateMutability": "view",
      "type": "function"
    },
    {
      "constant": true,
      "inputs": [],
      "name": "bonusEndBlock",
      "outputs": [
        {
          "internalType": "uint256",
          "name": "",
          "type": "uint256"
        }
      ],
      "payable": false,
      "stateMutability": "view",
      "type": "function"
    },
    {
      "constant": true,
      "inputs": [
        {
          "internalType": "address",
          "name": "_poolToken",
          "type": "address"
        }
      ],
      "name": "calcUnlockedImmediatelyPercent",
      "outputs": [
        {
          "internalType": "uint256",
          "name": "",
          "type": "uint256"
        }
      ],
      "payable": false,
      "stateMutability": "view",
      "type": "function"
    },
    {
      "constant": false,
      "inputs": [
        {
          "internalType": "address",
          "name": "_poolToken",
          "type": "address"
        },
        {
          "internalType": "address",
          "name": "_user",
          "type": "address"
        }
      ],
      "name": "claimReward",
      "outputs": [],
      "payable": false,
      "stateMutability": "nonpayable",
      "type": "function"
    },
    {
      "constant": false,
      "inputs": [
        {
          "internalType": "address",
          "name": "_user",
          "type": "address"
        }
      ],
      "name": "claimRewardFromAllPools",
      "outputs": [],
      "payable": false,
      "stateMutability": "nonpayable",
      "type": "function"
    },
    {
      "constant": false,
      "inputs": [
        {
          "internalType": "address",
          "name": "_poolToken",
          "type": "address"
        },
        {
          "internalType": "uint256",
          "name": "_amount",
          "type": "uint256"
        },
        {
          "internalType": "address",
          "name": "_user",
          "type": "address"
        }
      ],
      "name": "deposit",
      "outputs": [],
      "payable": false,
      "stateMutability": "nonpayable",
      "type": "function"
    },
    {
      "constant": false,
      "inputs": [
        {
          "internalType": "address",
          "name": "_poolToken",
          "type": "address"
        }
      ],
      "name": "emergencyWithdraw",
      "outputs": [],
      "payable": false,
      "stateMutability": "nonpayable",
      "type": "function"
    },
    {
      "constant": true,
      "inputs": [],
      "name": "endBlock",
      "outputs": [
        {
          "internalType": "uint256",
          "name": "",
          "type": "uint256"
        }
      ],
      "payable": false,
      "stateMutability": "view",
      "type": "function"
    },
    {
      "constant": true,
      "inputs": [
        {
          "internalType": "address",
          "name": "_poolToken",
          "type": "address"
        },
        {
          "internalType": "uint256",
          "name": "_amount",
          "type": "uint256"
        },
        {
          "internalType": "uint256",
          "name": "_duration",
          "type": "uint256"
        }
      ],
      "name": "getEstimatedReward",
      "outputs": [
        {
          "internalType": "uint256",
          "name": "",
          "type": "uint256"
        }
      ],
      "payable": false,
      "stateMutability": "view",
      "type": "function"
    },
    {
      "constant": true,
      "inputs": [],
      "name": "getMissedBalance",
      "outputs": [
        {
          "internalType": "uint256",
          "name": "",
          "type": "uint256"
        }
      ],
      "payable": false,
      "stateMutability": "view",
      "type": "function"
    },
    {
      "constant": true,
      "inputs": [
        {
          "internalType": "address",
          "name": "_poolToken",
          "type": "address"
        }
      ],
      "name": "getPoolId",
      "outputs": [
        {
          "internalType": "uint256",
          "name": "",
          "type": "uint256"
        }
      ],
      "payable": false,
      "stateMutability": "view",
      "type": "function"
    },
    {
      "constant": true,
      "inputs": [
        {
          "internalType": "address",
          "name": "_poolToken",
          "type": "address"
        }
      ],
      "name": "getPoolInfo",
      "outputs": [
        {
          "components": [
            {
              "internalType": "contract IERC20",
              "name": "poolToken",
              "type": "address"
            },
            {
              "internalType": "uint96",
              "name": "allocationPoint",
              "type": "uint96"
            },
            {
              "internalType": "uint256",
              "name": "lastRewardBlock",
              "type": "uint256"
            },
            {
              "internalType": "uint256",
              "name": "accumulatedRewardPerShare",
              "type": "uint256"
            }
          ],
          "internalType": "struct LiquidityMiningStorage.PoolInfo",
          "name": "",
          "type": "tuple"
        }
      ],
      "payable": false,
      "stateMutability": "view",
      "type": "function"
    },
    {
      "constant": true,
      "inputs": [],
      "name": "getPoolInfoList",
      "outputs": [
        {
          "components": [
            {
              "internalType": "contract IERC20",
              "name": "poolToken",
              "type": "address"
            },
            {
              "internalType": "uint96",
              "name": "allocationPoint",
              "type": "uint96"
            },
            {
              "internalType": "uint256",
              "name": "lastRewardBlock",
              "type": "uint256"
            },
            {
              "internalType": "uint256",
              "name": "accumulatedRewardPerShare",
              "type": "uint256"
            }
          ],
          "internalType": "struct LiquidityMiningStorage.PoolInfo[]",
          "name": "",
          "type": "tuple[]"
        }
      ],
      "payable": false,
      "stateMutability": "view",
      "type": "function"
    },
    {
      "constant": true,
      "inputs": [],
      "name": "getPoolLength",
      "outputs": [
        {
          "internalType": "uint256",
          "name": "",
          "type": "uint256"
        }
      ],
      "payable": false,
      "stateMutability": "view",
      "type": "function"
    },
    {
      "constant": true,
      "inputs": [
        {
          "internalType": "address",
          "name": "_poolToken",
          "type": "address"
        },
        {
          "internalType": "address",
          "name": "_user",
          "type": "address"
        }
      ],
      "name": "getUserAccumulatedReward",
      "outputs": [
        {
          "internalType": "uint256",
          "name": "",
          "type": "uint256"
        }
      ],
      "payable": false,
      "stateMutability": "view",
      "type": "function"
    },
    {
      "constant": true,
      "inputs": [
        {
          "internalType": "address",
          "name": "_user",
          "type": "address"
        }
      ],
      "name": "getUserAccumulatedRewardList",
      "outputs": [
        {
          "internalType": "uint256[]",
          "name": "",
          "type": "uint256[]"
        }
      ],
      "payable": false,
      "stateMutability": "view",
      "type": "function"
    },
    {
      "constant": true,
      "inputs": [
        {
          "internalType": "address",
          "name": "_user",
          "type": "address"
        }
      ],
      "name": "getUserAccumulatedRewardToBePaidLiquid",
      "outputs": [
        {
          "internalType": "uint256",
          "name": "",
          "type": "uint256"
        }
      ],
      "payable": false,
      "stateMutability": "view",
      "type": "function"
    },
    {
      "constant": true,
      "inputs": [
        {
          "internalType": "address",
          "name": "_user",
          "type": "address"
        }
      ],
      "name": "getUserAccumulatedRewardToBeVested",
      "outputs": [
        {
          "internalType": "uint256",
          "name": "",
          "type": "uint256"
        }
      ],
      "payable": false,
      "stateMutability": "view",
      "type": "function"
    },
    {
      "constant": true,
      "inputs": [
        {
          "internalType": "address",
          "name": "_user",
          "type": "address"
        }
      ],
      "name": "getUserBalanceList",
      "outputs": [
        {
          "internalType": "uint256[2][]",
          "name": "",
          "type": "uint256[2][]"
        }
      ],
      "payable": false,
      "stateMutability": "view",
      "type": "function"
    },
    {
      "constant": true,
      "inputs": [
        {
          "internalType": "address",
          "name": "_poolToken",
          "type": "address"
        },
        {
          "internalType": "address",
          "name": "_user",
          "type": "address"
        }
      ],
      "name": "getUserInfo",
      "outputs": [
        {
          "components": [
            {
              "internalType": "uint256",
              "name": "amount",
              "type": "uint256"
            },
            {
              "internalType": "uint256",
              "name": "rewardDebt",
              "type": "uint256"
            },
            {
              "internalType": "uint256",
              "name": "accumulatedReward",
              "type": "uint256"
            }
          ],
          "internalType": "struct LiquidityMiningStorage.UserInfo",
          "name": "",
          "type": "tuple"
        }
      ],
      "payable": false,
      "stateMutability": "view",
      "type": "function"
    },
    {
      "constant": true,
      "inputs": [
        {
          "internalType": "address",
          "name": "_user",
          "type": "address"
        }
      ],
      "name": "getUserInfoList",
      "outputs": [
        {
          "components": [
            {
              "internalType": "uint256",
              "name": "amount",
              "type": "uint256"
            },
            {
              "internalType": "uint256",
              "name": "rewardDebt",
              "type": "uint256"
            },
            {
              "internalType": "uint256",
              "name": "accumulatedReward",
              "type": "uint256"
            }
          ],
          "internalType": "struct LiquidityMiningStorage.UserInfo[]",
          "name": "",
          "type": "tuple[]"
        }
      ],
      "payable": false,
      "stateMutability": "view",
      "type": "function"
    },
    {
      "constant": true,
      "inputs": [
        {
          "internalType": "address",
          "name": "_poolToken",
          "type": "address"
        },
        {
          "internalType": "address",
          "name": "_user",
          "type": "address"
        }
      ],
      "name": "getUserPoolTokenBalance",
      "outputs": [
        {
          "internalType": "uint256",
          "name": "",
          "type": "uint256"
        }
      ],
      "payable": false,
      "stateMutability": "view",
      "type": "function"
    },
    {
      "constant": false,
      "inputs": [
        {
          "internalType": "contract IERC20",
          "name": "_SOV",
          "type": "address"
        },
        {
          "internalType": "uint256",
          "name": "_rewardTokensPerBlock",
          "type": "uint256"
        },
        {
          "internalType": "uint256",
          "name": "_startDelayBlocks",
          "type": "uint256"
        },
        {
          "internalType": "uint256",
          "name": "_numberOfBonusBlocks",
          "type": "uint256"
        },
        {
          "internalType": "address",
          "name": "_wrapper",
          "type": "address"
        },
        {
          "internalType": "contract ILockedSOV",
          "name": "_lockedSOV",
          "type": "address"
        },
        {
          "internalType": "uint256",
          "name": "_unlockedImmediatelyPercent",
          "type": "uint256"
        }
      ],
      "name": "initialize",
      "outputs": [],
      "payable": false,
      "stateMutability": "nonpayable",
      "type": "function"
    },
    {
      "constant": true,
      "inputs": [],
      "name": "isOwner",
      "outputs": [
        {
          "internalType": "bool",
          "name": "",
          "type": "bool"
        }
      ],
      "payable": false,
      "stateMutability": "view",
      "type": "function"
    },
    {
      "constant": true,
      "inputs": [],
      "name": "lockedSOV",
      "outputs": [
        {
          "internalType": "contract ILockedSOV",
          "name": "",
          "type": "address"
        }
      ],
      "payable": false,
      "stateMutability": "view",
      "type": "function"
    },
    {
      "constant": false,
      "inputs": [
        {
          "internalType": "address",
          "name": "_user",
          "type": "address"
        },
        {
          "internalType": "uint256",
          "name": "_amount",
          "type": "uint256"
        }
      ],
      "name": "onTokensDeposited",
      "outputs": [],
      "payable": false,
      "stateMutability": "nonpayable",
      "type": "function"
    },
    {
      "constant": true,
      "inputs": [],
      "name": "owner",
      "outputs": [
        {
          "internalType": "address",
          "name": "",
          "type": "address"
        }
      ],
      "payable": false,
      "stateMutability": "view",
      "type": "function"
    },
    {
      "constant": true,
      "inputs": [
        {
          "internalType": "uint256",
          "name": "",
          "type": "uint256"
        }
      ],
      "name": "poolInfoList",
      "outputs": [
        {
          "internalType": "contract IERC20",
          "name": "poolToken",
          "type": "address"
        },
        {
          "internalType": "uint96",
          "name": "allocationPoint",
          "type": "uint96"
        },
        {
          "internalType": "uint256",
          "name": "lastRewardBlock",
          "type": "uint256"
        },
        {
          "internalType": "uint256",
          "name": "accumulatedRewardPerShare",
          "type": "uint256"
        }
      ],
      "payable": false,
      "stateMutability": "view",
      "type": "function"
    },
    {
      "constant": true,
      "inputs": [
        {
          "internalType": "address",
          "name": "",
          "type": "address"
        }
      ],
      "name": "poolTokensUnlockedImmediatelyPercent",
      "outputs": [
        {
          "internalType": "uint256",
          "name": "",
          "type": "uint256"
        }
      ],
      "payable": false,
      "stateMutability": "view",
      "type": "function"
    },
    {
      "constant": false,
      "inputs": [
        {
          "internalType": "address",
          "name": "_admin",
          "type": "address"
        }
      ],
      "name": "removeAdmin",
      "outputs": [],
      "payable": false,
      "stateMutability": "nonpayable",
      "type": "function"
    },
    {
      "constant": true,
      "inputs": [],
      "name": "rewardTokensPerBlock",
      "outputs": [
        {
          "internalType": "uint256",
          "name": "",
          "type": "uint256"
        }
      ],
      "payable": false,
      "stateMutability": "view",
      "type": "function"
    },
    {
      "constant": false,
      "inputs": [
        {
          "internalType": "contract ILockedSOV",
          "name": "_lockedSOV",
          "type": "address"
        }
      ],
      "name": "setLockedSOV",
      "outputs": [],
      "payable": false,
      "stateMutability": "nonpayable",
      "type": "function"
    },
    {
      "constant": false,
      "inputs": [
        {
          "internalType": "address",
          "name": "_poolToken",
          "type": "address"
        },
        {
          "internalType": "uint256",
          "name": "_poolTokenUnlockedImmediatelyPercent",
          "type": "uint256"
        }
      ],
      "name": "setPoolTokenUnlockedImmediatelyPercent",
      "outputs": [],
      "payable": false,
      "stateMutability": "nonpayable",
      "type": "function"
    },
    {
      "constant": false,
      "inputs": [
        {
          "internalType": "uint256",
          "name": "_unlockedImmediatelyPercent",
          "type": "uint256"
        }
      ],
      "name": "setUnlockedImmediatelyPercent",
      "outputs": [],
      "payable": false,
      "stateMutability": "nonpayable",
      "type": "function"
    },
    {
      "constant": false,
      "inputs": [
        {
          "internalType": "address",
          "name": "_wrapper",
          "type": "address"
        }
      ],
      "name": "setWrapper",
      "outputs": [],
      "payable": false,
      "stateMutability": "nonpayable",
      "type": "function"
    },
    {
      "constant": true,
      "inputs": [],
      "name": "startBlock",
      "outputs": [
        {
          "internalType": "uint256",
          "name": "",
          "type": "uint256"
        }
      ],
      "payable": false,
      "stateMutability": "view",
      "type": "function"
    },
    {
      "constant": false,
      "inputs": [],
      "name": "stopMining",
      "outputs": [],
      "payable": false,
      "stateMutability": "nonpayable",
      "type": "function"
    },
    {
      "constant": true,
      "inputs": [],
      "name": "totalAllocationPoint",
      "outputs": [
        {
          "internalType": "uint256",
          "name": "",
          "type": "uint256"
        }
      ],
      "payable": false,
      "stateMutability": "view",
      "type": "function"
    },
    {
      "constant": true,
      "inputs": [],
      "name": "totalUsersBalance",
      "outputs": [
        {
          "internalType": "uint256",
          "name": "",
          "type": "uint256"
        }
      ],
      "payable": false,
      "stateMutability": "view",
      "type": "function"
    },
    {
      "constant": false,
      "inputs": [
        {
          "internalType": "address",
          "name": "newOwner",
          "type": "address"
        }
      ],
      "name": "transferOwnership",
      "outputs": [],
      "payable": false,
      "stateMutability": "nonpayable",
      "type": "function"
    },
    {
      "constant": false,
      "inputs": [
        {
          "internalType": "address",
          "name": "_receiver",
          "type": "address"
        },
        {
          "internalType": "uint256",
          "name": "_amount",
          "type": "uint256"
        }
      ],
      "name": "transferSOV",
      "outputs": [],
      "payable": false,
      "stateMutability": "nonpayable",
      "type": "function"
    },
    {
      "constant": true,
      "inputs": [],
      "name": "unlockedImmediatelyPercent",
      "outputs": [
        {
          "internalType": "uint256",
          "name": "",
          "type": "uint256"
        }
      ],
      "payable": false,
      "stateMutability": "view",
      "type": "function"
    },
    {
      "constant": false,
      "inputs": [
        {
          "internalType": "address",
          "name": "_poolToken",
          "type": "address"
        },
        {
          "internalType": "uint96",
          "name": "_allocationPoint",
          "type": "uint96"
        },
        {
          "internalType": "bool",
          "name": "_updateAllFlag",
          "type": "bool"
        }
      ],
      "name": "update",
      "outputs": [],
      "payable": false,
      "stateMutability": "nonpayable",
      "type": "function"
    },
    {
      "constant": false,
      "inputs": [],
      "name": "updateAllPools",
      "outputs": [],
      "payable": false,
      "stateMutability": "nonpayable",
      "type": "function"
    },
    {
      "constant": false,
      "inputs": [
        {
          "internalType": "address",
          "name": "_poolToken",
          "type": "address"
        }
      ],
      "name": "updatePool",
      "outputs": [],
      "payable": false,
      "stateMutability": "nonpayable",
      "type": "function"
    },
    {
      "constant": false,
      "inputs": [
        {
          "internalType": "address[]",
          "name": "_poolTokens",
          "type": "address[]"
        },
        {
          "internalType": "uint96[]",
          "name": "_allocationPoints",
          "type": "uint96[]"
        },
        {
          "internalType": "bool",
          "name": "_updateAllFlag",
          "type": "bool"
        }
      ],
      "name": "updateTokens",
      "outputs": [],
      "payable": false,
      "stateMutability": "nonpayable",
      "type": "function"
    },
    {
      "constant": true,
      "inputs": [
        {
          "internalType": "uint256",
          "name": "",
          "type": "uint256"
        },
        {
          "internalType": "address",
          "name": "",
          "type": "address"
        }
      ],
      "name": "userInfoMap",
      "outputs": [
        {
          "internalType": "uint256",
          "name": "amount",
          "type": "uint256"
        },
        {
          "internalType": "uint256",
          "name": "rewardDebt",
          "type": "uint256"
        },
        {
          "internalType": "uint256",
          "name": "accumulatedReward",
          "type": "uint256"
        }
      ],
      "payable": false,
      "stateMutability": "view",
      "type": "function"
    },
    {
      "constant": false,
      "inputs": [
        {
          "internalType": "address",
          "name": "_poolToken",
          "type": "address"
        },
        {
          "internalType": "uint256",
          "name": "_amount",
          "type": "uint256"
        },
        {
          "internalType": "address",
          "name": "_user",
          "type": "address"
        }
      ],
      "name": "withdraw",
      "outputs": [],
      "payable": false,
      "stateMutability": "nonpayable",
      "type": "function"
    },
    {
      "constant": true,
      "inputs": [],
      "name": "wrapper",
      "outputs": [
        {
          "internalType": "address",
          "name": "",
          "type": "address"
        }
      ],
      "payable": false,
      "stateMutability": "view",
      "type": "function"
    }
  ],
  "numDeployments": 2,
  "bytecode": "0x608060405260006100176001600160e01b0361006616565b600080546001600160a01b0319166001600160a01b0383169081178255604051929350917f8be0079c531659141344cd1fd0a4f28419497f9722a3daafe3b4186f6b6457e0908290a35061006a565b3390565b613dba806200007a6000396000f3fe608060405234801561001057600080fd5b506004361061035d5760003560e01c80637b46c54f116101d3578063c35a934d11610104578063e3866c9a116100a2578063f2f46b3b1161007c578063f2f46b3b14610711578063f2fde38b14610719578063f45346dc1461072c578063f729a4041461073f5761035d565b8063e3866c9a146106c9578063e788d8d1146106dc578063f2801fe7146106f15761035d565b8063d0452aa6116100de578063d0452aa614610688578063d6a49f0e1461069b578063d8c173c4146106ae578063da408679146106c15761035d565b8063c35a934d1461064f578063c680c0b714610662578063caa9a08d146106755761035d565b8063ab32339f11610171578063b3944d521161014b578063b3944d5214610624578063b9ec7d741461062c578063c1d7425814610634578063c2167d931461063c5761035d565b8063ab32339f146105f6578063ac210cc714610609578063afdd91c6146106115761035d565b80638f32d59b116101ad5780638f32d59b146105d65780639a13ba29146105de578063a1a6690f146105e6578063aaf5eb68146105ee5761035d565b80637b46c54f1461059b57806386bc6758146105ae5780638da5cb5b146105c15761035d565b80633723de42116102ad5780635d50d0601161024b57806369328dec1161022557806369328dec1461053f5780636ff1c9bc146105525780637048027514610565578063787b4026146105785761035d565b80635d50d060146104dd5780635f02c145146104fd57806362748fbb1461051f5761035d565b806348c84d9e1161028757806348c84d9e1461048f57806348cd4cb1146104af5780634953c782146104b757806356085d4c146104ca5761035d565b80633723de4214610454578063414d57fb1461045c578063429b62e51461046f5761035d565b806316614c261161031a5780631d8f889c116102f45780631d8f889c146104135780631fc3f0041461042657806329d0fa3e146104395780632d0857a2146104415761035d565b806316614c26146103e55780631785f53c146103f85780631aed65531461040b5761035d565b806306bfa93814610362578063083c63231461038b57806308dcb360146103a05780630b1a2851146103b55780630c43a7cd146103c857806310a168f9146103dd575b600080fd5b610375610370366004612dd3565b610747565b6040516103829190613c48565b60405180910390f35b6103936107c7565b6040516103829190613c64565b6103a86107cd565b6040516103829190613a5b565b6103936103c3366004612ea8565b6107dc565b6103db6103d6366004612eeb565b610875565b005b610393610abe565b6103db6103f3366004612e2b565b610ac3565b6103db610406366004612dd3565b610b3f565b610393610bbe565b6103db61042136600461306e565b610bc4565b610393610434366004612dd3565b610c4a565b610393610c5c565b6103db61044f36600461308c565b610c62565b610393610cc7565b6103db61046a366004612f2e565b610d79565b61048261047d366004612dd3565b610e74565b6040516103829190613a4d565b6104a261049d366004612dd3565b610e89565b6040516103829190613a3c565b610393610efa565b6103db6104c5366004612df1565b610f00565b6103936104d8366004612df1565b610f2c565b6104f06104eb366004612dd3565b610f4e565b6040516103829190613a09565b61051061050b3660046130c8565b61101f565b60405161038293929190613c80565b61053261052d366004612dd3565b61104b565b6040516103829190613a2b565b6103db61054d366004612e5b565b611102565b6103db610560366004612dd3565b611295565b6103db610573366004612dd3565b61138e565b61058b61058636600461308c565b611407565b6040516103829493929190613a69565b6103db6105a9366004612dd3565b611453565b6103936105bc366004612dd3565b61146d565b6105c96114f4565b604051610382919061399d565b610482611503565b610393611527565b61039361152d565b610393611533565b610393610604366004612dd3565b61153c565b6105c96115b1565b61039361061f366004612dd3565b6115c0565b6103936115e6565b6103db6115ec565b61039361160b565b6103db61064a366004612dd3565b611610565b6103db61065d366004612eeb565b611670565b6103db610670366004612e2b565b6116d9565b610393610683366004612dd3565b6118cf565b610393610696366004612df1565b6118da565b6103db6106a9366004612dd3565b6118f7565b6103db6106bc366004612e2b565b611a98565b6103db611aa5565b6103db6106d7366004612fd2565b611b09565b6106e4611c30565b6040516103829190613a1a565b6107046106ff366004612df1565b611cc6565b6040516103829190613c56565b6103a8611d28565b6103db610727366004612dd3565b611d37565b6103db61073a366004612e5b565b611d67565b610393611d74565b61074f612cc4565b600061075a83611d7a565b90506007818154811061076957fe5b60009182526020918290206040805160808101825260039390930290910180546001600160a01b0381168452600160a01b90046001600160601b03169383019390935260018301549082015260029091015460608201529392505050565b60055481565b600c546001600160a01b031681565b6000806107e885611d7a565b90506000600782815481106107f957fe5b6000918252602082206003909102019150439061082d61082087601e63ffffffff611dba16565b839063ffffffff611dfc16565b9050600061083d84898585611e21565b9150610866905064e8d4a5100061085a8a8463ffffffff611f7916565b9063ffffffff611dba16565b955050505050505b9392505050565b61087d611503565b8061089757503360009081526001602052604090205460ff165b6108bc5760405162461bcd60e51b81526004016108b390613ba8565b60405180910390fd5b6000826001600160601b0316116108e55760405162461bcd60e51b81526004016108b390613ab8565b6001600160a01b03831661090b5760405162461bcd60e51b81526004016108b390613bf8565b6001600160a01b038316600090815260086020526040902054156109415760405162461bcd60e51b81526004016108b390613bc8565b801561094f5761094f6115ec565b6000600354431161096257600354610964565b435b600954909150610983906001600160601b03851663ffffffff611dfc16565b600955604080516080810182526001600160a01b038087168083526001600160601b0380881660208086019182528587018881526000606088018181526007805460018101825581845299516003909a027fa66cc928b5edb82af9bd49922954155ab7b0942694bea4ce44661d9a8736c688810180549751909816600160a01b029a8a166001600160a01b03199097169690961790981698909817909455517fa66cc928b5edb82af9bd49922954155ab7b0942694bea4ce44661d9a8736c68983015594517fa66cc928b5edb82af9bd49922954155ab7b0942694bea4ce44661d9a8736c68a90910155915481835260089093529083902091909155905133907f38132ae9e6e6c4e777015bac3679dadd42206fad607b97846830be4b412908c390610ab0908790613c8e565b60405180910390a350505050565b600a81565b610acb611503565b80610ae557503360009081526001602052604090205460ff165b610b015760405162461bcd60e51b81526004016108b390613ba8565b612710811115610b235760405162461bcd60e51b81526004016108b390613ae8565b6001600160a01b039091166000908152600f6020526040902055565b610b47611503565b610b635760405162461bcd60e51b81526004016108b390613ba8565b6001600160a01b03811660009081526001602052604090819020805460ff19169055517fa3b62bc36326052d97ea62d63c3d60308ed4c3ea8ac079dd8499f1e9c4f80c0f90610bb390839061399d565b60405180910390a150565b60045481565b610bcc611503565b80610be657503360009081526001602052604090205460ff165b610c025760405162461bcd60e51b81526004016108b390613ba8565b6001600160a01b038116610c285760405162461bcd60e51b81526004016108b390613ad8565b600d80546001600160a01b0319166001600160a01b0392909216919091179055565b600f6020526000908152604090205481565b60025481565b610c6a611503565b80610c8457503360009081526001602052604090205460ff165b610ca05760405162461bcd60e51b81526004016108b390613ba8565b612710811115610cc25760405162461bcd60e51b81526004016108b390613ae8565b600e55565b600c546040516370a0823160e01b815260009182916001600160a01b03909116906370a0823190610cfc90309060040161399d565b60206040518083038186803b158015610d1457600080fd5b505afa158015610d28573d6000803e3d6000fd5b505050506040513d601f19601f82011682018060405250610d4c91908101906130aa565b9050600b54811015610d7057600b54610d6b908263ffffffff611fb316565b610d73565b60005b91505090565b610d81611503565b80610d9b57503360009081526001602052604090205460ff165b610db75760405162461bcd60e51b81526004016108b390613ba8565b838214610dd65760405162461bcd60e51b81526004016108b390613bb8565b8015610de457610de46115ec565b8360005b81811015610e6b5782610e1957610e19878783818110610e0457fe5b90506020020160206105a99190810190612dd3565b610e63878783818110610e2857fe5b9050602002016020610e3d9190810190612dd3565b868684818110610e4957fe5b9050602002016020610e5e91908101906130e7565b611ff5565b600101610de8565b50505050505050565b60016020526000908152604090205460ff1681565b600754604080518281526020808402820101909152606091908290828015610ebb578160200160208202803883390190505b50905060005b82811015610ef257610ed381866120da565b828281518110610edf57fe5b6020908102919091010152600101610ec1565b509392505050565b60035481565b6000610f0b8261225d565b90506000610f1884611d7a565b9050610f26818360016122b9565b50505050565b600080610f3884611d7a565b9050610f4481846120da565b9150505b92915050565b600754604080518281526020808402820101909152606091908290828015610f9057816020015b610f7d612cfe565b815260200190600190039081610f755790505b50905060005b82811015610ef2576000818152600a602090815260408083206001600160a01b03891684529091529020548251839083908110610fcf57fe5b6020026020010151600060028110610fe357fe5b6020020152610ff281866120da565b828281518110610ffe57fe5b602002602001015160016002811061101257fe5b6020020152600101610f96565b600a60209081526000928352604080842090915290825290208054600182015460029092015490919083565b60075460408051828152602080840282010190915260609190829082801561108d57816020015b61107a612d1c565b8152602001906001900390816110725790505b50905060005b82811015610ef2576000818152600a602090815260408083206001600160a01b0389168452825291829020825160608101845281548152600182015492810192909252600201549181019190915282518390839081106110ef57fe5b6020908102919091010152600101611093565b6001600160a01b0383166000908152600860205260409020546111375760405162461bcd60e51b81526004016108b390613b08565b60006111428261225d565b9050600061114f85611d7a565b905060006007828154811061116057fe5b60009182526020808320858452600a825260408085206001600160a01b038916865290925292208054600390920290920192508611156111b25760405162461bcd60e51b81526004016108b390613b58565b6111bb83612336565b6111c5828261247a565b6111d38782866000806124d1565b80546111e5908763ffffffff611fb316565b81556006546001600160a01b031633141561121b578154611216906001600160a01b0316338863ffffffff61280c16565b611237565b8154611237906001600160a01b0316858863ffffffff61280c16565b6112418282612865565b866001600160a01b0316846001600160a01b03167f9b1bfa7fa9ee420a16e124f794c35ac9f90472acc99140eb2f6447c714cad8eb886040516112849190613c64565b60405180910390a350505050505050565b60006112a082611d7a565b90506000600782815481106112b157fe5b60009182526020808320858452600a825260408085203386529092529220600390910290910191506112e283612336565b6112ec828261247a565b6002810154600b546113039163ffffffff611fb316565b600b5580546002820180546000808555600185018190559091558354611339906001600160a01b0316338463ffffffff61280c16565b856001600160a01b0316336001600160a01b03167f1401b6ff3b281e84fd77353369caed48ba7e787dd3821db05cc0064373608201848460405161137e929190613c72565b60405180910390a3505050505050565b611396611503565b6113b25760405162461bcd60e51b81526004016108b390613ba8565b6001600160a01b038116600090815260016020819052604091829020805460ff19169091179055517f44d6d25963f097ad14f29f06854a01f575648a1ef82f30e562ccd3889717e33990610bb390839061399d565b6007818154811061141457fe5b60009182526020909120600390910201805460018201546002909201546001600160a01b0382169350600160a01b9091046001600160601b0316919084565b600061145e82611d7a565b905061146981612336565b5050565b60075460009081805b82811015610ef25760006007828154811061148d57fe5b600091825260208220600390910201546001600160a01b031691506114b1826115c0565b90506114e86114db61271061085a6114c9878c6120da565b6127108690039063ffffffff611f7916565b859063ffffffff611dfc16565b93505050600101611476565b6000546001600160a01b031690565b600080546001600160a01b031661151861288f565b6001600160a01b031614905090565b600b5481565b60095481565b64e8d4a5100081565b60075460009081805b82811015610ef25760006007828154811061155c57fe5b600091825260208220600390910201546001600160a01b03169150611580826115c0565b90506115a56114db61271061085a611598878c6120da565b859063ffffffff611f7916565b93505050600101611545565b6006546001600160a01b031681565b6001600160a01b0381166000908152600f602052604081205480610f4857600e5461086e565b60075490565b60075460005b818110156114695761160381612336565b6001016115f2565b601e81565b611618611503565b8061163257503360009081526001602052604090205460ff165b61164e5760405162461bcd60e51b81526004016108b390613ba8565b600680546001600160a01b0319166001600160a01b0392909216919091179055565b611678611503565b8061169257503360009081526001602052604090205460ff165b6116ae5760405162461bcd60e51b81526004016108b390613ba8565b80156116c1576116bc6115ec565b6116ca565b6116ca83611453565b6116d48383611ff5565b505050565b6116e1611503565b806116fb57503360009081526001602052604090205460ff165b6117175760405162461bcd60e51b81526004016108b390613ba8565b6001600160a01b03821661173d5760405162461bcd60e51b81526004016108b390613b88565b8061175a5760405162461bcd60e51b81526004016108b390613bd8565b600c546040516370a0823160e01b81526000916001600160a01b0316906370a082319061178b90309060040161399d565b60206040518083038186803b1580156117a357600080fd5b505afa1580156117b7573d6000803e3d6000fd5b505050506040513d601f19601f820116820180604052506117db91908101906130aa565b9050808211156117e9578091505b600c5460405163a9059cbb60e01b81526001600160a01b039091169063a9059cbb9061181b90869086906004016139d3565b602060405180830381600087803b15801561183557600080fd5b505af1158015611849573d6000803e3d6000fd5b505050506040513d601f19601f8201168201806040525061186d9190810190612fb4565b6118895760405162461bcd60e51b81526004016108b390613b18565b826001600160a01b03167fe1b0ada289bf82fb641c8c1e1c78f820fae44e8f845760725cdeb09167a289ad836040516118c29190613c64565b60405180910390a2505050565b6000610f4882611d7a565b60006118e4612d1c565b6118ee8484611cc6565b51949350505050565b60006119028261225d565b60075490915060005b818110156119295780611920818560006122b9565b5060010161190b565b50600d5460405163c408689360e01b81526000916001600160a01b03169063c40868939061195b90869060040161399d565b60206040518083038186803b15801561197357600080fd5b505afa158015611987573d6000803e3d6000fd5b505050506040513d601f19601f820116820180604052506119ab91908101906130aa565b1180611a355750600d5460405163129de5bf60e01b81526000916001600160a01b03169063129de5bf906119e390869060040161399d565b60206040518083038186803b1580156119fb57600080fd5b505afa158015611a0f573d6000803e3d6000fd5b505050506040513d601f19601f82011682018060405250611a3391908101906130aa565b115b156116d457600d546040516315b6fc1560e11b81526001600160a01b0390911690632b6df82a90611a6a90859060040161399d565b600060405180830381600087803b158015611a8457600080fd5b505af1158015610e6b573d6000803e3d6000fd5b6114693382846001612893565b611aad611503565b80611ac757503360009081526001602052604090205460ff165b611ae35760405162461bcd60e51b81526004016108b390613ba8565b60055415611b035760405162461bcd60e51b81526004016108b390613c28565b43600555565b611b11611503565b80611b2b57503360009081526001602052604090205460ff165b611b475760405162461bcd60e51b81526004016108b390613ba8565b600c546001600160a01b031615611b705760405162461bcd60e51b81526004016108b390613c08565b6001600160a01b038716611b965760405162461bcd60e51b81526004016108b390613bf8565b60008511611bb65760405162461bcd60e51b81526004016108b390613b68565b6127108110611bd75760405162461bcd60e51b81526004016108b390613b48565b600c80546001600160a01b03199081166001600160a01b03998a16179091556002969096554394909401600381905592909201600455600680548516918616919091179055600d80549093169316929092179055600e55565b60606007805480602002602001604051908101604052809291908181526020016000905b82821015611cbd576000848152602090819020604080516080810182526003860290920180546001600160a01b0381168452600160a01b90046001600160601b031683850152600180820154928401929092526002015460608301529083529092019101611c54565b50505050905090565b611cce612d1c565b6000611cd984611d7a565b6000908152600a602090815260408083206001600160a01b0387168452825291829020825160608101845281548152600182015492810192909252600201549181019190915291505092915050565b600d546001600160a01b031681565b611d3f611503565b611d5b5760405162461bcd60e51b81526004016108b390613ba8565b611d64816129de565b50565b6116d48383836000612893565b600e5481565b6001600160a01b03811660009081526008602052604081205480611db05760405162461bcd60e51b81526004016108b390613b08565b6000190192915050565b600061086e83836040518060400160405280601a81526020017f536166654d6174683a206469766973696f6e206279207a65726f000000000000815250612a5f565b60008282018381101561086e5760405162461bcd60e51b81526004016108b390613b28565b6000806000611e308585612a96565b90506000611e7f60095461085a8a60000160149054906101000a90046001600160601b03166001600160601b0316611e7360025487611f7990919063ffffffff16565b9063ffffffff611f7916565b88549091506001600160a01b031673d449c0c468cae235d3e320ff48d05ebddcde64c31415611eb7575060009250829150611f709050565b87546040516370a0823160e01b81526000916001600160a01b0316906370a0823190611ee790309060040161399d565b60206040518083038186803b158015611eff57600080fd5b505afa158015611f13573d6000803e3d6000fd5b505050506040513d601f19601f82011682018060405250611f3791908101906130aa565b9050611f49818963ffffffff611dfc16565b90506000611f668261085a8564e8d4a5100063ffffffff611f7916565b9295509193505050505b94509492505050565b600082611f8857506000610f48565b82820282848281611f9557fe5b041461086e5760405162461bcd60e51b81526004016108b390613b98565b600061086e83836040518060400160405280601e81526020017f536166654d6174683a207375627472616374696f6e206f766572666c6f770000815250612b36565b600061200083611d7a565b905060006007828154811061201157fe5b60009182526020909120600390910201546009546001600160601b03600160a01b9092048216925061205c91851690612050908463ffffffff611fb316565b9063ffffffff611dfc16565b600981905550826007838154811061207057fe5b6000918252602090912060039091020180546001600160601b0392909216600160a01b026001600160a01b039283161790556040519085169033907f7b327867ecd5d7f5165f3d8af5193f1255f215acb14e229b529a4f8a9991abbc90610ab09087908690613c9c565b600080600784815481106120ea57fe5b60009182526020808320878452600a825260408085206001600160a01b03808a168752935290932060039092029092018054909350909173d449c0c468cae235d3e320ff48d05ebddcde64c39116141561214957600092505050610f48565b600282015482546040516370a0823160e01b81526000916001600160a01b0316906370a082319061217e90309060040161399d565b60206040518083038186803b15801561219657600080fd5b505afa1580156121aa573d6000803e3d6000fd5b505050506040513d601f19601f820116820180604052506121ce91908101906130aa565b90508360010154431180156121e257508015155b1561220a5760006121f285612b62565b91506122069050838263ffffffff611dfc16565b9250505b612252612241846001015461223564e8d4a5100061085a878960000154611f7990919063ffffffff16565b9063ffffffff611fb316565b60028501549063ffffffff611dfc16565b979650505050505050565b6000336001600160a01b03831615610f48576006546001600160a01b031633148061229657503360009081526008602052604090205415155b6122b25760405162461bcd60e51b81526004016108b390613be8565b5090919050565b6000600784815481106122c857fe5b60009182526020808320878452600a825260408085206001600160a01b038916865290925292206003909102909101915061230285612336565b61230c828261247a565b8154612325906001600160a01b031682868660016124d1565b61232f8282612865565b5050505050565b60006007828154811061234557fe5b90600052602060002090600302019050806001015443116123665750611d64565b80546001600160a01b031673d449c0c468cae235d3e320ff48d05ebddcde64c314156123985743600190910155611d64565b80546040516370a0823160e01b81526000916001600160a01b0316906370a08231906123c890309060040161399d565b60206040518083038186803b1580156123e057600080fd5b505afa1580156123f4573d6000803e3d6000fd5b505050506040513d601f19601f8201168201806040525061241891908101906130aa565b90508061242c575043600190910155611d64565b60008061243884612b62565b60028601549193509150612452908263ffffffff611dfc16565b6002850155436001850155600b54612470908363ffffffff611dfc16565b600b555050505050565b8054156114695760006124af826001015461223564e8d4a5100061085a87600201548760000154611f7990919063ffffffff16565b60028301549091506124c7908263ffffffff611dfc16565b6002830155505050565b600284015460006124e1876115c0565b600c546040516370a0823160e01b81529192506000916001600160a01b03909116906370a082319061251790309060040161399d565b60206040518083038186803b15801561252f57600080fd5b505afa158015612543573d6000803e3d6000fd5b505050506040513d601f19601f8201168201806040525061256791908101906130aa565b90508281106127e457600b54612583908463ffffffff611fb316565b600b556000600288015561271082141561262157600c5460405163a9059cbb60e01b81526001600160a01b039091169063a9059cbb906125c990899087906004016139d3565b602060405180830381600087803b1580156125e357600080fd5b505af11580156125f7573d6000803e3d6000fd5b505050506040513d601f19601f8201168201806040525061261b9190810190612fb4565b50612794565b600c54600d5460405163095ea7b360e01b81526001600160a01b039283169263095ea7b3926126579291169087906004016139d3565b602060405180830381600087803b15801561267157600080fd5b505af1158015612685573d6000803e3d6000fd5b505050506040513d601f19601f820116820180604052506126a99190810190612fb4565b6126c55760405162461bcd60e51b81526004016108b390613b78565b600d54604051630efe6a8b60e01b81526001600160a01b0390911690630efe6a8b906126f9908990879087906004016139ee565b600060405180830381600087803b15801561271357600080fd5b505af1158015612727573d6000803e3d6000fd5b50505050841561279457600d546040516315b6fc1560e11b81526001600160a01b0390911690632b6df82a9061276190899060040161399d565b600060405180830381600087803b15801561277b57600080fd5b505af115801561278f573d6000803e3d6000fd5b505050505b876001600160a01b0316866001600160a01b03167f0aa4d283470c904c551d18bb894d37e17674920f3261a7f854be501e25f421b7856040516127d79190613c64565b60405180910390a3612802565b83156128025760405162461bcd60e51b81526004016108b390613ac8565b5050505050505050565b6040516116d490849063a9059cbb60e01b9061282e90869086906024016139d3565b60408051601f198184030181529190526020810180516001600160e01b03166001600160e01b031990931692909217909152612b7f565b600282015481546128869164e8d4a510009161085a9163ffffffff611f7916565b60019091015550565b3390565b6001600160a01b0384166000908152600860205260409020546128c85760405162461bcd60e51b81526004016108b390613b08565b60006001600160a01b0383166128de57336128e0565b825b905060006128ed86611d7a565b90506000600782815481106128fe57fe5b60009182526020808320858452600a825260408085206001600160a01b038916865290925292206003909102909101915061293883612336565b612942828261247a565b861561297f578461296a57815461296a906001600160a01b031633308a63ffffffff612c6416565b805461297c908863ffffffff611dfc16565b81555b6129898282612865565b876001600160a01b0316846001600160a01b03167f5548c837ab068cf56a2c2479df0882a4922fd203edb7517321831d95078c5f62896040516129cc9190613c64565b60405180910390a35050505050505050565b6001600160a01b038116612a045760405162461bcd60e51b81526004016108b390613af8565b600080546040516001600160a01b03808516939216917f8be0079c531659141344cd1fd0a4f28419497f9722a3daafe3b4186f6b6457e091a3600080546001600160a01b0319166001600160a01b0392909216919091179055565b60008183612a805760405162461bcd60e51b81526004016108b39190613aa7565b506000838581612a8c57fe5b0495945050505050565b6000600354831015612aa85760035492505b6000600554118015612abb575060055482115b15612ac65760055491505b6004548211612aeb57612ae4600a611e73848663ffffffff611fb316565b9050610f48565b6004548310612b0457612ae4828463ffffffff611fb316565b612ae4612b1c60045484611fb390919063ffffffff16565b612050600a611e7387600454611fb390919063ffffffff16565b60008184841115612b5a5760405162461bcd60e51b81526004016108b39190613aa7565b505050900390565b600080612b76836000856001015443611e21565b91509150915091565b612b91826001600160a01b0316612c88565b612bad5760405162461bcd60e51b81526004016108b390613c38565b60006060836001600160a01b031683604051612bc99190613991565b6000604051808303816000865af19150503d8060008114612c06576040519150601f19603f3d011682016040523d82523d6000602084013e612c0b565b606091505b509150915081612c2d5760405162461bcd60e51b81526004016108b390613b38565b805115610f265780806020019051612c489190810190612fb4565b610f265760405162461bcd60e51b81526004016108b390613c18565b604051610f269085906323b872dd60e01b9061282e908790879087906024016139ab565b6000813f7fc5d2460186f7233c927e7db2dcc703c0e500b653ca82273b7bfad8045d85a470818114801590612cbc57508115155b949350505050565b604051806080016040528060006001600160a01b0316815260200160006001600160601b0316815260200160008152602001600081525090565b60405180604001604052806002906020820280388339509192915050565b60405180606001604052806000815260200160008152602001600081525090565b8035610f4881613d3f565b60008083601f840112612d5a57600080fd5b50813567ffffffffffffffff811115612d7257600080fd5b602083019150836020820283011115612d8a57600080fd5b9250929050565b8035610f4881613d53565b8051610f4881613d53565b8035610f4881613d5c565b8035610f4881613d65565b8051610f4881613d65565b8035610f4881613d6e565b600060208284031215612de557600080fd5b6000610f448484612d3d565b60008060408385031215612e0457600080fd5b6000612e108585612d3d565b9250506020612e2185828601612d3d565b9150509250929050565b60008060408385031215612e3e57600080fd5b6000612e4a8585612d3d565b9250506020612e2185828601612db2565b600080600060608486031215612e7057600080fd5b6000612e7c8686612d3d565b9350506020612e8d86828701612db2565b9250506040612e9e86828701612d3d565b9150509250925092565b600080600060608486031215612ebd57600080fd5b6000612ec98686612d3d565b9350506020612eda86828701612db2565b9250506040612e9e86828701612db2565b600080600060608486031215612f0057600080fd5b6000612f0c8686612d3d565b9350506020612f1d86828701612dc8565b9250506040612e9e86828701612d91565b600080600080600060608688031215612f4657600080fd5b853567ffffffffffffffff811115612f5d57600080fd5b612f6988828901612d48565b9550955050602086013567ffffffffffffffff811115612f8857600080fd5b612f9488828901612d48565b93509350506040612fa788828901612d91565b9150509295509295909350565b600060208284031215612fc657600080fd5b6000610f448484612d9c565b600080600080600080600060e0888a031215612fed57600080fd5b6000612ff98a8a612da7565b975050602061300a8a828b01612db2565b965050604061301b8a828b01612db2565b955050606061302c8a828b01612db2565b945050608061303d8a828b01612d3d565b93505060a061304e8a828b01612da7565b92505060c061305f8a828b01612db2565b91505092959891949750929550565b60006020828403121561308057600080fd5b6000610f448484612da7565b60006020828403121561309e57600080fd5b6000610f448484612db2565b6000602082840312156130bc57600080fd5b6000610f448484612dbd565b600080604083850312156130db57600080fd5b6000612e108585612db2565b6000602082840312156130f957600080fd5b6000610f448484612dc8565b60006131118383613259565b505060400190565b600061312583836138f9565b505060800190565b60006131398383613943565b505060600190565b600061314d8383613976565b505060200190565b61315e81613ccb565b82525050565b600061316f82613cb3565b6131798185613cbd565b935061318483613caa565b8060005b838110156131b257815161319c8882613105565b97506131a783613caa565b925050600101613188565b509495945050505050565b60006131c882613cb3565b6131d28185613cbd565b93506131dd83613caa565b8060005b838110156131b25781516131f58882613119565b975061320083613caa565b9250506001016131e1565b600061321682613cb3565b6132208185613cbd565b935061322b83613caa565b8060005b838110156131b2578151613243888261312d565b975061324e83613caa565b92505060010161322f565b61326281613cb7565b61326c8184613cc6565b925061327782613cb0565b8060005b838110156132a557815161328f8782613141565b965061329a83613caa565b92505060010161327b565b505050505050565b60006132b882613cb3565b6132c28185613cbd565b93506132cd83613caa565b8060005b838110156131b25781516132e58882613141565b97506132f083613caa565b9250506001016132d1565b61315e81613cd6565b600061330f82613cb3565b6133198185613cc6565b9350613329818560208601613d09565b9290920192915050565b61315e81613cdb565b600061334782613cb3565b6133518185613cbd565b9350613361818560208601613d09565b61336a81613d35565b9093019392505050565b6000613381601883613cbd565b7f496e76616c696420616c6c6f636174696f6e20706f696e740000000000000000815260200192915050565b60006133ba601683613cbd565b7510db185a5b5a5b99c81c995dd85c990819985a5b195960521b815260200192915050565b60006133ec601a83613cbd565b7f496e76616c6964206c6f636b6564534f5620416464726573732e000000000000815260200192915050565b6000613425604083613cbd565b7f556e6c6f636b656420696d6d6564696174656c792070657263656e742068617381527f20746f206265206c657373207468616e20657175616c20746f2031303030302e602082015260400192915050565b6000613484602683613cbd565b7f4f776e61626c653a206e6577206f776e657220697320746865207a65726f206181526564647265737360d01b602082015260400192915050565b60006134cc601483613cbd565b73141bdbdb081d1bdad95b881b9bdd08199bdd5b9960621b815260200192915050565b60006134fc600f83613cbd565b6e151c985b9cd9995c8819985a5b1959608a1b815260200192915050565b6000613527601b83613cbd565b7f536166654d6174683a206164646974696f6e206f766572666c6f770000000000815260200192915050565b6000613560602083613cbd565b7f5361666545524332303a206c6f772d6c6576656c2063616c6c206661696c6564815260200192915050565b6000613599603783613cbd565b7f556e6c6f636b656420696d6d6564696174656c792070657263656e742068617381527f20746f206265206c657373207468616e2031303030302e000000000000000000602082015260400192915050565b60006135f8601283613cbd565b714e6f7420656e6f7567682062616c616e636560701b815260200192915050565b6000613626601383613cbd565b72496e76616c696420737461727420626c6f636b60681b815260200192915050565b6000613655600e83613cbd565b6d105c1c1c9bdd994819985a5b195960921b815260200192915050565b600061367f601883613cbd565b7f5265636569766572206164647265737320696e76616c69640000000000000000815260200192915050565b60006136b8602183613cbd565b7f536166654d6174683a206d756c7469706c69636174696f6e206f766572666c6f8152607760f81b602082015260400192915050565b60006136fb600c83613cbd565b6b1d5b985d5d1a1bdc9a5e995960a21b815260200192915050565b6000613723600f83613cbd565b6e082e4e4c2f2e640dad2e6dac2e8c6d608b1b815260200192915050565b600061374e601383613cbd565b72151bdad95b88185b1c9958591e481859191959606a1b815260200192915050565b600061377d600e83613cbd565b6d105b5bdd5b9d081a5b9d985b1a5960921b815260200192915050565b60006137a7602d83613cbd565b7f6f6e6c792077726170706572206f7220706f6f6c73206d61792077697468647281526c30bb903337b91030903ab9b2b960991b602082015260400192915050565b60006137f6601583613cbd565b74496e76616c696420746f6b656e206164647265737360581b815260200192915050565b6000613827601383613cbd565b72105b1c9958591e481a5b9a5d1a585b1a5e9959606a1b815260200192915050565b6000613856602a83613cbd565b7f5361666545524332303a204552433230206f7065726174696f6e20646964206e8152691bdd081cdd58d8d9595960b21b602082015260400192915050565b60006138a2600f83613cbd565b6e105b1c9958591e481cdd1bdc1c1959608a1b815260200192915050565b60006138cd601f83613cbd565b7f5361666545524332303a2063616c6c20746f206e6f6e2d636f6e747261637400815260200192915050565b8051608083019061390a8482613333565b50602082015161391d6020850182613988565b5060408201516139306040850182613976565b506060820151610f266060850182613976565b805160608301906139548482613976565b5060208201516139676020850182613976565b506040820151610f2660408501825b61315e81613cb0565b61315e81613cfe565b61315e81613cf2565b600061086e8284613304565b60208101610f488284613155565b606081016139b98286613155565b6139c66020830185613155565b612cbc6040830184613976565b604081016139e18285613155565b61086e6020830184613976565b606081016139fc8286613155565b6139c66020830185613976565b6020808252810161086e8184613164565b6020808252810161086e81846131bd565b6020808252810161086e818461320b565b6020808252810161086e81846132ad565b60208101610f4882846132fb565b60208101610f488284613333565b60808101613a778287613333565b613a846020830186613988565b613a916040830185613976565b613a9e6060830184613976565b95945050505050565b6020808252810161086e818461333c565b60208082528101610f4881613374565b60208082528101610f48816133ad565b60208082528101610f48816133df565b60208082528101610f4881613418565b60208082528101610f4881613477565b60208082528101610f48816134bf565b60208082528101610f48816134ef565b60208082528101610f488161351a565b60208082528101610f4881613553565b60208082528101610f488161358c565b60208082528101610f48816135eb565b60208082528101610f4881613619565b60208082528101610f4881613648565b60208082528101610f4881613672565b60208082528101610f48816136ab565b60208082528101610f48816136ee565b60208082528101610f4881613716565b60208082528101610f4881613741565b60208082528101610f4881613770565b60208082528101610f488161379a565b60208082528101610f48816137e9565b60208082528101610f488161381a565b60208082528101610f4881613849565b60208082528101610f4881613895565b60208082528101610f48816138c0565b60808101610f4882846138f9565b60608101610f488284613943565b60208101610f488284613976565b604081016139e18285613976565b606081016139fc8286613976565b60208101610f48828461397f565b604081016139e1828561397f565b60200190565b90565b5190565b50600290565b90815260200190565b919050565b6000610f4882613ce6565b151590565b6000610f4882613ccb565b6001600160a01b031690565b6001600160601b031690565b6000610f4882613cf2565b60005b83811015613d24578181015183820152602001613d0c565b83811115610f265750506000910152565b601f01601f191690565b613d4881613ccb565b8114611d6457600080fd5b613d4881613cd6565b613d4881613cdb565b613d4881613cb0565b613d4881613cf256fea365627a7a7231582005c04131921a0cfe1884ac7aa8b7f0e1540b227a51b8dfdbfda81f1540bc02e16c6578706572696d656e74616cf564736f6c63430005110040",
  "implementation": "0x76CBbebC63Dd3235046D3254446659577dD2b295",
  "devdoc": {
    "methods": {
      "add(address,uint96,bool)": {
        "params": {
          "_allocationPoint": "the allocation point (weight) for the given pool",
          "_poolToken": "the address of pool token",
          "_withUpdate": "the flag whether we need to update all pools"
        }
      },
      "addAdmin(address)": {
        "params": {
          "_admin": "The addresses of the account to grant permissions."
        }
      },
      "calcUnlockedImmediatelyPercent(address)": {
        "details": "calculate the unlocked immediate percentage of specific pool token use the poolTokensUnlockedImmediatelyPercent by default, if it is not set, then use the unlockedImmediatelyPercent"
      },
      "claimReward(address,address)": {
        "params": {
          "_poolToken": "the address of pool token",
          "_user": "the address of user to claim reward from (can be passed only by wrapper contract)"
        }
      },
      "claimRewardFromAllPools(address)": {
        "params": {
          "_user": "the address of user to claim reward from (can be passed only by wrapper contract)"
        }
      },
      "deposit(address,uint256,address)": {
        "params": {
          "_amount": "the amount of pool tokens",
          "_poolToken": "the address of pool token",
          "_user": "the address of user, tokens will be deposited to it or to msg.sender"
        }
      },
      "emergencyWithdraw(address)": {
        "details": "EMERGENCY ONLY",
        "params": {
          "_poolToken": "the address of pool token"
        }
      },
      "getEstimatedReward(address,uint256,uint256)": {
        "params": {
          "_amount": "the amount of tokens to be deposited",
          "_duration": "the duration of liquidity providing in seconds",
          "_poolToken": "the address of pool token"
        }
      },
      "getMissedBalance()": {
        "return": "The amount of SOV tokens according to totalUsersBalance  in excess of actual SOV balance of the LM contract."
      },
      "getPoolId(address)": {
        "params": {
          "_poolToken": "the address of pool token"
        }
      },
      "getPoolInfo(address)": {
        "params": {
          "_poolToken": "the address of pool token"
        }
      },
      "getUserAccumulatedReward(address,address)": {
        "params": {
          "_poolToken": "the address of pool token",
          "_user": "the user address"
        }
      },
      "getUserAccumulatedRewardList(address)": {
        "params": {
          "_user": "the address of the user"
        }
      },
      "getUserAccumulatedRewardToBePaidLiquid(address)": {
        "params": {
          "_user": "the address of the user"
        }
      },
      "getUserAccumulatedRewardToBeVested(address)": {
        "params": {
          "_user": "the address of the user"
        }
      },
      "getUserBalanceList(address)": {
        "params": {
          "_user": "the address of the user"
        }
      },
      "getUserInfo(address,address)": {
        "params": {
          "_poolToken": "the address of pool token",
          "_user": "the address of the user"
        }
      },
      "getUserInfoList(address)": {
        "params": {
          "_user": "the address of the user"
        }
      },
      "getUserPoolTokenBalance(address,address)": {
        "params": {
          "_poolToken": "the address of pool token",
          "_user": "the address of the user"
        }
      },
      "initialize(address,uint256,uint256,uint256,address,address,uint256)": {
        "params": {
          "_SOV": "The SOV token.",
          "_lockedSOV": "The contract instance address of the lockedSOV vault.  SOV rewards are not paid directly to liquidity providers. Instead they  are deposited into a lockedSOV vault contract.",
          "_numberOfBonusBlocks": "The number of blocks when each block will  be calculated as N blocks (BONUS_BLOCK_MULTIPLIER).",
          "_rewardTokensPerBlock": "The number of reward tokens per block.",
          "_startDelayBlocks": "The number of blocks should be passed to start  mining.",
          "_unlockedImmediatelyPercent": "The % which determines how much will be unlocked immediately."
        }
      },
      "isOwner()": {
        "details": "Returns true if the caller is the current owner."
      },
      "onTokensDeposited(address,uint256)": {
        "details": "only callable by the pool which issues the tokens",
        "params": {
          "_amount": "the minted amount",
          "_user": "the user address"
        }
      },
      "owner()": {
        "details": "Returns the address of the current owner."
      },
      "removeAdmin(address)": {
        "params": {
          "_admin": "The addresses of the account to revoke permissions."
        }
      },
      "setLockedSOV(address)": {
        "params": {
          "_lockedSOV": "The contract instance address of the lockedSOV vault."
        }
      },
      "setPoolTokenUnlockedImmediatelyPercent(address,uint256)": {
        "details": "10000 is 100%",
        "params": {
          "_poolToken": "the address of pool token",
          "_poolTokenUnlockedImmediatelyPercent": "The % which determines how much will be unlocked immediately."
        }
      },
      "setUnlockedImmediatelyPercent(uint256)": {
        "details": "10000 is 100%",
        "params": {
          "_unlockedImmediatelyPercent": "The % which determines how much will be unlocked immediately."
        }
      },
      "setWrapper(address)": {
        "details": "can be set to zero address to remove wrapper"
      },
      "transferOwnership(address)": {
        "details": "Transfers ownership of the contract to a new account (`newOwner`). Can only be called by the current owner."
      },
      "transferSOV(address,uint256)": {
        "params": {
          "_amount": "The amount to be transferred.",
          "_receiver": "The address of the SOV receiver."
        }
      },
      "update(address,uint96,bool)": {
        "params": {
          "_allocationPoint": "the allocation point (weight) for the given pool",
          "_poolToken": "the address of pool token",
          "_updateAllFlag": "the flag whether we need to update all pools"
        }
      },
      "updateAllPools()": {
        "details": "Be careful of gas spending!"
      },
      "updatePool(address)": {
        "params": {
          "_poolToken": "the address of pool token"
        }
      },
      "updateTokens(address[],uint96[],bool)": {
        "params": {
          "_allocationPoints": "array of allocation points (weight) for the given pools",
          "_poolTokens": "array of addresses of pool tokens",
          "_updateAllFlag": "the flag whether we need to update all pools"
        }
      },
      "withdraw(address,uint256,address)": {
        "params": {
          "_amount": "the amount of pool tokens",
          "_poolToken": "the address of pool token",
          "_user": "the user address will be used to process a withdrawal (can be passed only by wrapper contract)"
        }
      }
    }
  },
  "userdoc": {
    "methods": {
      "add(address,uint96,bool)": {
        "notice": "adds a new lp to the pool. Can only be called by the owner or an admin"
      },
      "addAdmin(address)": {
        "notice": "Add account to ACL."
      },
      "claimReward(address,address)": {
        "notice": "transfers reward tokens"
      },
      "claimRewardFromAllPools(address)": {
        "notice": "transfers reward tokens from all pools"
      },
      "deposit(address,uint256,address)": {
        "notice": "deposits pool tokens"
      },
      "emergencyWithdraw(address)": {
        "notice": "withdraws pool tokens without transferring reward tokens"
      },
      "getEstimatedReward(address,uint256,uint256)": {
        "notice": "returns estimated reward"
      },
      "getMissedBalance()": {
        "notice": "Get the missed SOV balance of LM contract."
      },
      "getPoolId(address)": {
        "notice": "returns pool id"
      },
      "getPoolInfo(address)": {
        "notice": "returns pool info for the given token"
      },
      "getPoolInfoList()": {
        "notice": "returns list of pool token's info"
      },
      "getPoolLength()": {
        "notice": "returns count of pool tokens"
      },
      "getUserAccumulatedReward(address,address)": {
        "notice": "returns accumulated reward"
      },
      "getUserAccumulatedRewardList(address)": {
        "notice": "returns accumulated reward for the given user for each pool token"
      },
      "getUserAccumulatedRewardToBePaidLiquid(address)": {
        "notice": "returns the accumulated liquid reward for the given user for each pool token"
      },
      "getUserAccumulatedRewardToBeVested(address)": {
        "notice": "returns the accumulated vested reward for the given user for each pool token"
      },
      "getUserBalanceList(address)": {
        "notice": "returns list of [amount, accumulatedReward] for the given user for each pool token"
      },
      "getUserInfo(address,address)": {
        "notice": "returns UserInfo for the given pool and user"
      },
      "getUserInfoList(address)": {
        "notice": "returns list of UserInfo for the given user for each pool token"
      },
      "getUserPoolTokenBalance(address,address)": {
        "notice": "returns the pool token balance a user has on the contract"
      },
      "initialize(address,uint256,uint256,uint256,address,address,uint256)": {
        "notice": "Initialize mining."
      },
      "onTokensDeposited(address,uint256)": {
        "notice": "if the lending pools directly mint/transfer tokens to this address, process it like a user deposit"
      },
      "removeAdmin(address)": {
        "notice": "Remove account from ACL."
      },
      "setLockedSOV(address)": {
        "notice": "Sets lockedSOV contract."
      },
      "setPoolTokenUnlockedImmediatelyPercent(address,uint256)": {
        "notice": "Sets unlocked immediately percent overwrite for specific pool token."
      },
      "setUnlockedImmediatelyPercent(uint256)": {
        "notice": "Sets unlocked immediately percent."
      },
      "setWrapper(address)": {
        "notice": "sets wrapper proxy contract"
      },
      "stopMining()": {
        "notice": "stops mining by setting end block"
      },
      "transferSOV(address,uint256)": {
        "notice": "Transfers SOV tokens to given address.  Owner use this function to withdraw SOV from LM contract  into another account."
      },
      "update(address,uint96,bool)": {
        "notice": "updates the given pool's reward tokens allocation point"
      },
      "updateAllPools()": {
        "notice": "Updates reward variables for all pools."
      },
      "updatePool(address)": {
        "notice": "Updates reward variables of the given pool to be up-to-date"
      },
      "updateTokens(address[],uint96[],bool)": {
        "notice": "updates the given pools' reward tokens allocation points"
      },
      "withdraw(address,uint256,address)": {
        "notice": "withdraws pool tokens and transfers reward tokens"
      }
    }
  },
  "storageLayout": {
    "storage": [
      {
        "astId": 54420,
        "contract": "contracts/farm/LiquidityMining.sol:LiquidityMining",
        "label": "_owner",
        "offset": 0,
        "slot": "0",
        "type": "t_address"
      },
      {
        "astId": 61497,
        "contract": "contracts/farm/LiquidityMining.sol:LiquidityMining",
        "label": "admins",
        "offset": 0,
        "slot": "1",
        "type": "t_mapping(t_address,t_bool)"
      },
      {
        "astId": 10276,
        "contract": "contracts/farm/LiquidityMining.sol:LiquidityMining",
        "label": "rewardTokensPerBlock",
        "offset": 0,
        "slot": "2",
        "type": "t_uint256"
      },
      {
        "astId": 10278,
        "contract": "contracts/farm/LiquidityMining.sol:LiquidityMining",
        "label": "startBlock",
        "offset": 0,
        "slot": "3",
        "type": "t_uint256"
      },
      {
        "astId": 10280,
        "contract": "contracts/farm/LiquidityMining.sol:LiquidityMining",
        "label": "bonusEndBlock",
        "offset": 0,
        "slot": "4",
        "type": "t_uint256"
      },
      {
        "astId": 10282,
        "contract": "contracts/farm/LiquidityMining.sol:LiquidityMining",
        "label": "endBlock",
        "offset": 0,
        "slot": "5",
        "type": "t_uint256"
      },
      {
        "astId": 10284,
        "contract": "contracts/farm/LiquidityMining.sol:LiquidityMining",
        "label": "wrapper",
        "offset": 0,
        "slot": "6",
        "type": "t_address"
      },
      {
        "astId": 10287,
        "contract": "contracts/farm/LiquidityMining.sol:LiquidityMining",
        "label": "poolInfoList",
        "offset": 0,
        "slot": "7",
        "type": "t_array(t_struct(PoolInfo)10274_storage)dyn_storage"
      },
      {
        "astId": 10291,
        "contract": "contracts/farm/LiquidityMining.sol:LiquidityMining",
        "label": "poolIdList",
        "offset": 0,
        "slot": "8",
        "type": "t_mapping(t_address,t_uint256)"
      },
      {
        "astId": 10293,
        "contract": "contracts/farm/LiquidityMining.sol:LiquidityMining",
        "label": "totalAllocationPoint",
        "offset": 0,
        "slot": "9",
        "type": "t_uint256"
      },
      {
        "astId": 10299,
        "contract": "contracts/farm/LiquidityMining.sol:LiquidityMining",
        "label": "userInfoMap",
        "offset": 0,
        "slot": "10",
        "type": "t_mapping(t_uint256,t_mapping(t_address,t_struct(UserInfo)10265_storage))"
      },
      {
        "astId": 10301,
        "contract": "contracts/farm/LiquidityMining.sol:LiquidityMining",
        "label": "totalUsersBalance",
        "offset": 0,
        "slot": "11",
        "type": "t_uint256"
      },
      {
        "astId": 10303,
        "contract": "contracts/farm/LiquidityMining.sol:LiquidityMining",
        "label": "SOV",
        "offset": 0,
        "slot": "12",
        "type": "t_contract(IERC20)33222"
      },
      {
        "astId": 10305,
        "contract": "contracts/farm/LiquidityMining.sol:LiquidityMining",
        "label": "lockedSOV",
        "offset": 0,
        "slot": "13",
        "type": "t_contract(ILockedSOV)35031"
      },
      {
        "astId": 10307,
        "contract": "contracts/farm/LiquidityMining.sol:LiquidityMining",
        "label": "unlockedImmediatelyPercent",
        "offset": 0,
        "slot": "14",
        "type": "t_uint256"
      },
      {
        "astId": 10311,
        "contract": "contracts/farm/LiquidityMining.sol:LiquidityMining",
        "label": "poolTokensUnlockedImmediatelyPercent",
        "offset": 0,
        "slot": "15",
        "type": "t_mapping(t_address,t_uint256)"
      }
    ],
    "types": {
      "t_address": {
        "encoding": "inplace",
        "label": "address",
        "numberOfBytes": "20"
      },
      "t_array(t_struct(PoolInfo)10274_storage)dyn_storage": {
        "base": "t_struct(PoolInfo)10274_storage",
        "encoding": "dynamic_array",
        "label": "struct LiquidityMiningStorage.PoolInfo[]",
        "numberOfBytes": "32"
      },
      "t_bool": {
        "encoding": "inplace",
        "label": "bool",
        "numberOfBytes": "1"
      },
      "t_contract(IERC20)33222": {
        "encoding": "inplace",
        "label": "contract IERC20",
        "numberOfBytes": "20"
      },
      "t_contract(ILockedSOV)35031": {
        "encoding": "inplace",
        "label": "contract ILockedSOV",
        "numberOfBytes": "20"
      },
      "t_mapping(t_address,t_bool)": {
        "encoding": "mapping",
        "key": "t_address",
        "label": "mapping(address => bool)",
        "numberOfBytes": "32",
        "value": "t_bool"
      },
      "t_mapping(t_address,t_struct(UserInfo)10265_storage)": {
        "encoding": "mapping",
        "key": "t_address",
        "label": "mapping(address => struct LiquidityMiningStorage.UserInfo)",
        "numberOfBytes": "32",
        "value": "t_struct(UserInfo)10265_storage"
      },
      "t_mapping(t_address,t_uint256)": {
        "encoding": "mapping",
        "key": "t_address",
        "label": "mapping(address => uint256)",
        "numberOfBytes": "32",
        "value": "t_uint256"
      },
      "t_mapping(t_uint256,t_mapping(t_address,t_struct(UserInfo)10265_storage))": {
        "encoding": "mapping",
        "key": "t_uint256",
        "label": "mapping(uint256 => mapping(address => struct LiquidityMiningStorage.UserInfo))",
        "numberOfBytes": "32",
        "value": "t_mapping(t_address,t_struct(UserInfo)10265_storage)"
      },
      "t_struct(PoolInfo)10274_storage": {
        "encoding": "inplace",
        "label": "struct LiquidityMiningStorage.PoolInfo",
        "members": [
          {
            "astId": 10267,
            "contract": "contracts/farm/LiquidityMining.sol:LiquidityMining",
            "label": "poolToken",
            "offset": 0,
            "slot": "0",
            "type": "t_contract(IERC20)33222"
          },
          {
            "astId": 10269,
            "contract": "contracts/farm/LiquidityMining.sol:LiquidityMining",
            "label": "allocationPoint",
            "offset": 20,
            "slot": "0",
            "type": "t_uint96"
          },
          {
            "astId": 10271,
            "contract": "contracts/farm/LiquidityMining.sol:LiquidityMining",
            "label": "lastRewardBlock",
            "offset": 0,
            "slot": "1",
            "type": "t_uint256"
          },
          {
            "astId": 10273,
            "contract": "contracts/farm/LiquidityMining.sol:LiquidityMining",
            "label": "accumulatedRewardPerShare",
            "offset": 0,
            "slot": "2",
            "type": "t_uint256"
          }
        ],
        "numberOfBytes": "96"
      },
      "t_struct(UserInfo)10265_storage": {
        "encoding": "inplace",
        "label": "struct LiquidityMiningStorage.UserInfo",
        "members": [
          {
            "astId": 10260,
            "contract": "contracts/farm/LiquidityMining.sol:LiquidityMining",
            "label": "amount",
            "offset": 0,
            "slot": "0",
            "type": "t_uint256"
          },
          {
            "astId": 10262,
            "contract": "contracts/farm/LiquidityMining.sol:LiquidityMining",
            "label": "rewardDebt",
            "offset": 0,
            "slot": "1",
            "type": "t_uint256"
          },
          {
            "astId": 10264,
            "contract": "contracts/farm/LiquidityMining.sol:LiquidityMining",
            "label": "accumulatedReward",
            "offset": 0,
            "slot": "2",
            "type": "t_uint256"
          }
        ],
        "numberOfBytes": "96"
      },
      "t_uint256": {
        "encoding": "inplace",
        "label": "uint256",
        "numberOfBytes": "32"
      },
      "t_uint96": {
        "encoding": "inplace",
        "label": "uint96",
        "numberOfBytes": "12"
      }
    }
  }
}