{
  "address": "0x6EDEeC91f5C0A57248BF4D7dBce2c689c74F3c06",
  "abi": [
    {
      "anonymous": false,
      "inputs": [
        {
          "indexed": true,
          "internalType": "address",
          "name": "previousOwner",
          "type": "address"
        },
        {
          "indexed": true,
          "internalType": "address",
          "name": "newOwner",
          "type": "address"
        }
      ],
      "name": "OwnershipTransferred",
      "type": "event"
    },
    {
      "anonymous": false,
      "inputs": [
        {
          "indexed": false,
          "internalType": "address",
          "name": "account",
          "type": "address"
        }
      ],
      "name": "Paused",
      "type": "event"
    },
    {
      "anonymous": false,
      "inputs": [
        {
          "indexed": true,
          "internalType": "address",
          "name": "sender",
          "type": "address"
        },
        {
          "indexed": true,
          "internalType": "address",
          "name": "oldPauser",
          "type": "address"
        },
        {
          "indexed": true,
          "internalType": "address",
          "name": "newPauser",
          "type": "address"
        }
      ],
      "name": "SetPauser",
      "type": "event"
    },
    {
      "anonymous": false,
      "inputs": [
        {
          "indexed": false,
          "internalType": "address",
          "name": "account",
          "type": "address"
        }
      ],
      "name": "Unpaused",
      "type": "event"
    },
    {
      "constant": true,
      "inputs": [
        {
          "internalType": "bytes32",
          "name": "",
          "type": "bytes32"
        }
      ],
      "name": "activeModuleIndex",
      "outputs": [
        {
          "internalType": "uint256",
          "name": "",
          "type": "uint256"
        }
      ],
      "payable": false,
      "stateMutability": "view",
      "type": "function"
    },
    {
      "constant": true,
      "inputs": [
        {
          "internalType": "bytes32",
          "name": "moduleName",
          "type": "bytes32"
        }
      ],
      "name": "getActiveFuncSignatureList",
      "outputs": [
        {
          "internalType": "bytes4[]",
          "name": "signatureList",
          "type": "bytes4[]"
        }
      ],
      "payable": false,
      "stateMutability": "view",
      "type": "function"
    },
    {
      "constant": true,
      "inputs": [
        {
          "internalType": "bytes32",
          "name": "moduleName",
          "type": "bytes32"
        }
      ],
      "name": "getModuleUpgradeLogLength",
      "outputs": [
        {
          "internalType": "uint256",
          "name": "",
          "type": "uint256"
        }
      ],
      "payable": false,
      "stateMutability": "view",
      "type": "function"
    },
    {
      "constant": true,
      "inputs": [
        {
          "internalType": "bytes4",
          "name": "sig",
          "type": "bytes4"
        }
      ],
      "name": "getTarget",
      "outputs": [
        {
          "internalType": "address",
          "name": "",
          "type": "address"
        }
      ],
      "payable": false,
      "stateMutability": "view",
      "type": "function"
    },
    {
      "constant": true,
      "inputs": [],
      "name": "isOwner",
      "outputs": [
        {
          "internalType": "bool",
          "name": "",
          "type": "bool"
        }
      ],
      "payable": false,
      "stateMutability": "view",
      "type": "function"
    },
    {
      "constant": true,
      "inputs": [
        {
          "internalType": "bytes32",
          "name": "",
          "type": "bytes32"
        },
        {
          "internalType": "uint256",
          "name": "",
          "type": "uint256"
        }
      ],
      "name": "moduleUpgradeLog",
      "outputs": [
        {
          "internalType": "address",
          "name": "implementation",
          "type": "address"
        },
        {
          "internalType": "uint256",
          "name": "updateTimestamp",
          "type": "uint256"
        }
      ],
      "payable": false,
      "stateMutability": "view",
      "type": "function"
    },
    {
      "constant": true,
      "inputs": [],
      "name": "owner",
      "outputs": [
        {
          "internalType": "address",
          "name": "",
          "type": "address"
        }
      ],
      "payable": false,
      "stateMutability": "view",
      "type": "function"
    },
    {
      "constant": false,
      "inputs": [],
      "name": "pause",
      "outputs": [],
      "payable": false,
      "stateMutability": "nonpayable",
      "type": "function"
    },
    {
      "constant": true,
      "inputs": [],
      "name": "paused",
      "outputs": [
        {
          "internalType": "bool",
          "name": "",
          "type": "bool"
        }
      ],
      "payable": false,
      "stateMutability": "view",
      "type": "function"
    },
    {
      "constant": true,
      "inputs": [],
      "name": "pauser",
      "outputs": [
        {
          "internalType": "address",
          "name": "",
          "type": "address"
        }
      ],
      "payable": false,
      "stateMutability": "view",
      "type": "function"
    },
    {
      "constant": false,
      "inputs": [
        {
          "internalType": "address",
          "name": "loanTokenModuleAddress",
          "type": "address"
        }
      ],
      "name": "registerLoanTokenModule",
      "outputs": [],
      "payable": false,
      "stateMutability": "nonpayable",
      "type": "function"
    },
    {
      "constant": false,
      "inputs": [
        {
          "internalType": "bytes32",
          "name": "moduleName",
          "type": "bytes32"
        },
        {
          "internalType": "uint256",
          "name": "index",
          "type": "uint256"
        }
      ],
      "name": "rollback",
      "outputs": [],
      "payable": false,
      "stateMutability": "nonpayable",
      "type": "function"
    },
    {
      "constant": false,
      "inputs": [
        {
          "internalType": "address",
          "name": "newPauser",
          "type": "address"
        }
      ],
      "name": "setPauser",
      "outputs": [],
      "payable": false,
      "stateMutability": "nonpayable",
      "type": "function"
    },
    {
      "constant": false,
      "inputs": [
        {
          "internalType": "address",
          "name": "newOwner",
          "type": "address"
        }
      ],
      "name": "transferOwnership",
      "outputs": [],
      "payable": false,
      "stateMutability": "nonpayable",
      "type": "function"
    },
    {
      "constant": false,
      "inputs": [],
      "name": "unpause",
      "outputs": [],
      "payable": false,
      "stateMutability": "nonpayable",
      "type": "function"
    }
  ],
  "transactionHash": "0x80298dc166cecb57c26a2412ccf081b56ce09750ac39dc2d45c879957872b808",
  "args": [],
  "numDeployments": 1,
  "solcInputHash": "893704ca31180002ea7e9ca57c4eb6c1",
  "bytecode": "0x608060405260006100176001600160e01b0361006616565b600080546001600160a01b0319166001600160a01b0383169081178255604051929350917f8be0079c531659141344cd1fd0a4f28419497f9722a3daafe3b4186f6b6457e0908290a35061006a565b3390565b61128f806100796000396000f3fe608060405234801561001057600080fd5b50600436106100f55760003560e01c80637405ca3c116100975780638f32d59b116100665780638f32d59b146101ec578063953aa60b146101f45780639fd0506d14610207578063f2fde38b1461020f576100f5565b80637405ca3c1461019b5780638456cb59146101bc57806387d3b26c146101c45780638da5cb5b146101e4576100f5565b80632d88af4a116100d35780632d88af4a1461014b578063374e40471461015e5780633f4ba83a1461017e5780635c975abb14610186576100f5565b80630e317e8b146100fa5780631873c0611461010f5780631f88c4a214610138575b600080fd5b61010d610108366004610e01565b610222565b005b61012261011d366004610de3565b6102a4565b60405161012f9190611180565b60405180910390f35b610122610146366004610de3565b6102b6565b61010d610159366004610d74565b6102c8565b61017161016c366004610e31565b610340565b60405161012f91906110aa565b61010d610391565b61018e610440565b60405161012f91906110f2565b6101ae6101a9366004610e01565b610450565b60405161012f9291906110c6565b61010d610493565b6101d76101d2366004610de3565b610532565b60405161012f91906110e1565b610171610571565b61018e610580565b61010d610202366004610d74565b6105a4565b61017161064a565b61010d61021d366004610d74565b610659565b61022a610580565b61024f5760405162461bcd60e51b815260040161024690611140565b60405180910390fd5b600082815260036020526040812080548390811061026957fe5b60009182526020909120600290910201546001600160a01b0316905061028e81610689565b6000908152600460205260409020919091555050565b60009081526003602052604090205490565b60046020526000908152604090205481565b6102d0610580565b6102ec5760405162461bcd60e51b815260040161024690611140565b600180546001600160a01b038381166001600160a01b03198316811790935560405191169190829033907f5c2719f5971dd7f2a96ca230f606a73203fc01c5db7731bde30a4e5c0387817290600090a45050565b60008054600160a01b900460ff161561036b5760405162461bcd60e51b815260040161024690611100565b506001600160e01b0319166000908152600260205260409020546001600160a01b031690565b610399610580565b806103ae57506001546001600160a01b031633145b6103ca5760405162461bcd60e51b815260040161024690611170565b600054600160a01b900460ff166103f35760405162461bcd60e51b815260040161024690611110565b6000805460ff60a01b191690557f5db9ee0a495bf2e6ff9c91a7834c1ba4fdd244a5e8aa4e537bd38aeae4b073aa610429610927565b60405161043691906110b8565b60405180910390a1565b600054600160a01b900460ff1690565b6003602052816000526040600020818154811061046957fe5b6000918252602090912060029091020180546001909101546001600160a01b039091169250905082565b61049b610580565b806104b057506001546001600160a01b031633145b6104cc5760405162461bcd60e51b815260040161024690611170565b600054600160a01b900460ff16156104f65760405162461bcd60e51b815260040161024690611100565b6000805460ff60a01b1916600160a01b1790557f62e78cea01bee320cd4e420270b5ea74000d11b0c9f74754ebdbfc544b05a258610429610927565b600081815260056020526040812060609161056b916105509061092b565b6000858152600560205260409020919063ffffffff61093216565b92915050565b6000546001600160a01b031690565b600080546001600160a01b0316610595610927565b6001600160a01b031614905090565b6105ac610580565b6105c85760405162461bcd60e51b815260040161024690611140565b60006105d382610689565b6000818152600360209081526040808320815180830183526001600160a01b039788168152428185019081528254600180820185558488528688209351600290920290930180546001600160a01b03191691909a161789555197019690965592825293546004909452206000199290920190915550565b6001546001600160a01b031681565b610661610580565b61067d5760405162461bcd60e51b815260040161024690611140565b61068681610a2f565b50565b600061069482610ab0565b6106b05760405162461bcd60e51b815260040161024690611160565b60606000836001600160a01b03166390967de56040518163ffffffff1660e01b815260040160006040518083038186803b1580156106ed57600080fd5b505afa158015610701573d6000803e3d6000fd5b505050506040513d6000823e601f3d908101601f191682016040526107299190810190610d92565b9150915060005b825181101561085757825160009084908390811061074a57fe5b60200260200101516001600160e01b031916141561077a5760405162461bcd60e51b815260040161024690611150565b846002600085848151811061078b57fe5b60200260200101516001600160e01b0319166001600160e01b031916815260200190815260200160002060006101000a8154816001600160a01b0302191690836001600160a01b031602179055506108118382815181106107e857fe5b602002602001015160056000858152602001908152602001600020610aec90919063ffffffff16565b61084f5761084d83828151811061082457fe5b602002602001015160056000858152602001908152602001600020610b0b90919063ffffffff16565b505b600101610730565b506000818152600560205260408120606091610876916105509061092b565b905060005b815181101561091d57600082828151811061089257fe5b6020908102919091018101516001600160e01b03198116600090815260029092526040909120549091506001600160a01b03888116911614610914576001600160e01b03198116600090815260026020908152604080832080546001600160a01b031916905586835260059091529020610912908263ffffffff610b8416565b505b5060010161087b565b5090949350505050565b3390565b6001015490565b6060828201838110156109575760405162461bcd60e51b815260040161024690611130565b60018501548111610968578061096e565b60018501545b905080158061097d5750808410155b156109885750610a28565b8381036040519080825280602002602001820160405280156109b4578160200160208202803883390190505b50915060005b848203811015610a255785600101858201815481106109d557fe5b90600052602060002090600891828204019190066004029054906101000a900460e01b838281518110610a0457fe5b6001600160e01b0319909216602092830291909101909101526001016109ba565b50505b9392505050565b6001600160a01b038116610a555760405162461bcd60e51b815260040161024690611120565b600080546040516001600160a01b03808516939216917f8be0079c531659141344cd1fd0a4f28419497f9722a3daafe3b4186f6b6457e091a3600080546001600160a01b0319166001600160a01b0392909216919091179055565b6000813f7fc5d2460186f7233c927e7db2dcc703c0e500b653ca82273b7bfad8045d85a470818114801590610ae457508115155b949350505050565b6001600160e01b03191660009081526020919091526040902054151590565b6000610b178383610aec565b610b7c575060018281018054808301808355600092835260208084206008840401805463ffffffff60079095166004026101000a948502191660e088901c94909402939093179092556001600160e01b0319851683529085905260409091205561056b565b50600061056b565b6000610b908383610aec565b15610b7c576001600160e01b0319821660009081526020849052604090205460018401546000199182019101808214610c5d576000856001018281548110610bd457fe5b90600052602060002090600891828204019190066004029054906101000a900460e01b905080866001018481548110610c0957fe5b600091825260208083206008830401805463ffffffff60079094166004026101000a938402191660e09590951c929092029390931790556001600160e01b0319929092168252869052604090206001830190555b6001600160e01b0319841660009081526020869052604081205560018501805480610c8457fe5b600082815260209020600860001990920191820401805463ffffffff600460078516026101000a02191690559055506001915061056b9050565b803561056b81611226565b600082601f830112610cda57600080fd5b8151610ced610ce8826111b5565b61118e565b91508181835260208401935060208101905083856020840282011115610d1257600080fd5b60005b83811015610d3e5781610d288882610d69565b8452506020928301929190910190600101610d15565b5050505092915050565b803561056b8161123a565b805161056b8161123a565b803561056b81611243565b805161056b81611243565b600060208284031215610d8657600080fd5b6000610ae48484610cbe565b60008060408385031215610da557600080fd5b825167ffffffffffffffff811115610dbc57600080fd5b610dc885828601610cc9565b9250506020610dd985828601610d53565b9150509250929050565b600060208284031215610df557600080fd5b6000610ae48484610d48565b60008060408385031215610e1457600080fd5b6000610e208585610d48565b9250506020610dd985828601610d48565b600060208284031215610e4357600080fd5b6000610ae48484610d5e565b6000610e5b8383610edd565b505060200190565b610e6c81611215565b82525050565b610e6c816111e9565b6000610e86826111dc565b610e9081856111e0565b9350610e9b836111d6565b8060005b83811015610ec9578151610eb38882610e4f565b9750610ebe836111d6565b925050600101610e9f565b509495945050505050565b610e6c816111f4565b610e6c816111fc565b6000610ef36020836111e0565b7f4c6f616e546f6b656e4c6f676963426561636f6e3a706175736564206d6f6465815260200192915050565b6000610f2c6014836111e0565b7314185d5cd8589b194e881b9bdd081c185d5cd95960621b815260200192915050565b6000610f5c6026836111e0565b7f4f776e61626c653a206e6577206f776e657220697320746865207a65726f206181526564647265737360d01b602082015260400192915050565b6000610fa46011836111e0565b706164646974696f6e206f766572666c6f7760781b815260200192915050565b6000610fd1600c836111e0565b6b1d5b985d5d1a1bdc9a5e995960a21b815260200192915050565b6000610ff96018836111e0565b7f4552525f454d5054595f46554e435f5349474e41545552450000000000000000815260200192915050565b60006110326028836111e0565b7f4c6f616e546f6b656e4d6f64756c6541646472657373206973206e6f7420612081526718dbdb9d1c9858dd60c21b602082015260400192915050565b600061107c6016836111e0565b7514185d5cd8589b194e881d5b985d5d1a1bdc9a5e995960521b815260200192915050565b610e6c816111f9565b6020810161056b8284610e72565b6020810161056b8284610e63565b604081016110d48285610e72565b610a2860208301846110a1565b60208082528101610a288184610e7b565b6020810161056b8284610ed4565b6020808252810161056b81610ee6565b6020808252810161056b81610f1f565b6020808252810161056b81610f4f565b6020808252810161056b81610f97565b6020808252810161056b81610fc4565b6020808252810161056b81610fec565b6020808252810161056b81611025565b6020808252810161056b8161106f565b6020810161056b82846110a1565b60405181810167ffffffffffffffff811182821017156111ad57600080fd5b604052919050565b600067ffffffffffffffff8211156111cc57600080fd5b5060209081020190565b60200190565b5190565b90815260200190565b600061056b82611209565b151590565b90565b6001600160e01b03191690565b6001600160a01b031690565b600061056b82600061056b826111e9565b61122f816111e9565b811461068657600080fd5b61122f816111f9565b61122f816111fc56fea365627a7a72315820259c6f734f8374ebf4fe635be709b372b6b5f1a1a95976b5f69095e3de50a6e56c6578706572696d656e74616cf564736f6c63430005110040",
  "devdoc": {
    "methods": {
      "getActiveFuncSignatureList(bytes32)": {
        "details": "get all active function signature list based on the module name.",
        "params": {
          "moduleName": "in bytes32."
        },
        "return": "the array of function signature."
      },
      "getModuleUpgradeLogLength(bytes32)": {
        "details": "Get total length of the module upgrade log.",
        "params": {
          "moduleName": "in bytes32."
        },
        "return": "length of module upgrade log."
      },
      "getTarget(bytes4)": {
        "params": {
          "sig": "The signature."
        },
        "return": "The address for a given signature."
      },
      "isOwner()": {
        "details": "Returns true if the caller is the current owner."
      },
      "owner()": {
        "details": "Returns the address of the current owner."
      },
      "pause()": {
        "details": "Called by the owner to pause, triggers stopped state."
      },
      "paused()": {
        "details": "Returns true if the contract is paused, and false otherwise."
      },
      "registerLoanTokenModule(address)": {
        "details": "This function will store the updated protocol module to the storage (For rollback purposes)",
        "params": {
          "loanTokenModuleAddress": "The module target address"
        }
      },
      "rollback(bytes32,uint256)": {
        "params": {
          "index": "index / version of previous deployment",
          "moduleName": "Name of module in bytes32 format"
        }
      },
      "setPauser(address)": {
        "params": {
          "newPauser": "The new address of the pauser."
        }
      },
      "transferOwnership(address)": {
        "details": "Transfers ownership of the contract to a new account (`newOwner`). Can only be called by the current owner."
      },
      "unpause()": {
        "details": "Called by the owner to unpause, returns to normal state."
      }
    },
    "title": "Loan Token Logic Beacon contract."
  },
  "userdoc": {
    "methods": {
      "getTarget(bytes4)": {
        "notice": "External getter for target addresses."
      },
      "registerLoanTokenModule(address)": {
        "notice": "Register the loanTokenModule (LoanTokenSettingsLowerAdmin, LoanTokenLogicLM / LoanTokenLogicWrbtc, etc)"
      },
      "rollback(bytes32,uint256)": {
        "notice": "This function will rollback particular module to the spesific index / version of deployment"
      },
      "setPauser(address)": {
        "notice": "Set the pauser address.     * only pauser can perform this action."
      }
    },
    "notice": "This contract stored the target logic implementation of LoanTokens which has the same logic implementation (LoanTokenLogicLM / LoanTokenLogicWrbtc) Apart from storing the target logic implementation, this contract also has a pause functionality. By implementing pause/unpause functionality in this beacon contract, we can pause the loan token that has the same Logic (LoanTokenLogicLM / LoanTokenLogicWrbtc) at one call. Meanwhile the pause/unpause function in the LoanTokenLogicProxy is used to pause/unpause specific LoanToken"
  },
  "storageLayout": {
    "storage": [
      {
        "astId": 54316,
        "contract": "contracts/connectors/loantoken/LoanTokenLogicBeacon.sol:LoanTokenLogicBeacon",
        "label": "_owner",
        "offset": 0,
        "slot": "0",
        "type": "t_address"
      },
      {
        "astId": 54423,
        "contract": "contracts/connectors/loantoken/LoanTokenLogicBeacon.sol:LoanTokenLogicBeacon",
        "label": "_paused",
        "offset": 20,
        "slot": "0",
        "type": "t_bool"
      },
      {
        "astId": 61460,
        "contract": "contracts/connectors/loantoken/LoanTokenLogicBeacon.sol:LoanTokenLogicBeacon",
        "label": "pauser",
        "offset": 0,
        "slot": "1",
        "type": "t_address"
      },
      {
        "astId": 543,
        "contract": "contracts/connectors/loantoken/LoanTokenLogicBeacon.sol:LoanTokenLogicBeacon",
        "label": "logicTargets",
        "offset": 0,
        "slot": "2",
        "type": "t_mapping(t_bytes4,t_address)"
      },
      {
        "astId": 553,
        "contract": "contracts/connectors/loantoken/LoanTokenLogicBeacon.sol:LoanTokenLogicBeacon",
        "label": "moduleUpgradeLog",
        "offset": 0,
        "slot": "3",
        "type": "t_mapping(t_bytes32,t_array(t_struct(LoanTokenLogicModuleUpdate)548_storage)dyn_storage)"
      },
      {
        "astId": 557,
        "contract": "contracts/connectors/loantoken/LoanTokenLogicBeacon.sol:LoanTokenLogicBeacon",
        "label": "activeModuleIndex",
        "offset": 0,
        "slot": "4",
        "type": "t_mapping(t_bytes32,t_uint256)"
      },
      {
        "astId": 561,
        "contract": "contracts/connectors/loantoken/LoanTokenLogicBeacon.sol:LoanTokenLogicBeacon",
        "label": "activeFuncSignatureList",
        "offset": 0,
        "slot": "5",
        "type": "t_mapping(t_bytes32,t_struct(Bytes4Set)36427_storage)"
      }
    ],
    "types": {
      "t_address": {
        "encoding": "inplace",
        "label": "address",
        "numberOfBytes": "20"
      },
      "t_array(t_bytes4)dyn_storage": {
        "base": "t_bytes4",
        "encoding": "dynamic_array",
        "label": "bytes4[]",
        "numberOfBytes": "32"
      },
      "t_array(t_struct(LoanTokenLogicModuleUpdate)548_storage)dyn_storage": {
        "base": "t_struct(LoanTokenLogicModuleUpdate)548_storage",
        "encoding": "dynamic_array",
        "label": "struct LoanTokenLogicBeacon.LoanTokenLogicModuleUpdate[]",
        "numberOfBytes": "32"
      },
      "t_bool": {
        "encoding": "inplace",
        "label": "bool",
        "numberOfBytes": "1"
      },
      "t_bytes32": {
        "encoding": "inplace",
        "label": "bytes32",
        "numberOfBytes": "32"
      },
      "t_bytes4": {
        "encoding": "inplace",
        "label": "bytes4",
        "numberOfBytes": "4"
      },
      "t_mapping(t_bytes32,t_array(t_struct(LoanTokenLogicModuleUpdate)548_storage)dyn_storage)": {
        "encoding": "mapping",
        "key": "t_bytes32",
        "label": "mapping(bytes32 => struct LoanTokenLogicBeacon.LoanTokenLogicModuleUpdate[])",
        "numberOfBytes": "32",
        "value": "t_array(t_struct(LoanTokenLogicModuleUpdate)548_storage)dyn_storage"
      },
      "t_mapping(t_bytes32,t_struct(Bytes4Set)36427_storage)": {
        "encoding": "mapping",
        "key": "t_bytes32",
        "label": "mapping(bytes32 => struct EnumerableBytes4Set.Bytes4Set)",
        "numberOfBytes": "32",
        "value": "t_struct(Bytes4Set)36427_storage"
      },
      "t_mapping(t_bytes32,t_uint256)": {
        "encoding": "mapping",
        "key": "t_bytes32",
        "label": "mapping(bytes32 => uint256)",
        "numberOfBytes": "32",
        "value": "t_uint256"
      },
      "t_mapping(t_bytes4,t_address)": {
        "encoding": "mapping",
        "key": "t_bytes4",
        "label": "mapping(bytes4 => address)",
        "numberOfBytes": "32",
        "value": "t_address"
      },
      "t_mapping(t_bytes4,t_uint256)": {
        "encoding": "mapping",
        "key": "t_bytes4",
        "label": "mapping(bytes4 => uint256)",
        "numberOfBytes": "32",
        "value": "t_uint256"
      },
      "t_struct(Bytes4Set)36427_storage": {
        "encoding": "inplace",
        "label": "struct EnumerableBytes4Set.Bytes4Set",
        "members": [
          {
            "astId": 36423,
            "contract": "contracts/connectors/loantoken/LoanTokenLogicBeacon.sol:LoanTokenLogicBeacon",
            "label": "index",
            "offset": 0,
            "slot": "0",
            "type": "t_mapping(t_bytes4,t_uint256)"
          },
          {
            "astId": 36426,
            "contract": "contracts/connectors/loantoken/LoanTokenLogicBeacon.sol:LoanTokenLogicBeacon",
            "label": "values",
            "offset": 0,
            "slot": "1",
            "type": "t_array(t_bytes4)dyn_storage"
          }
        ],
        "numberOfBytes": "64"
      },
      "t_struct(LoanTokenLogicModuleUpdate)548_storage": {
        "encoding": "inplace",
        "label": "struct LoanTokenLogicBeacon.LoanTokenLogicModuleUpdate",
        "members": [
          {
            "astId": 545,
            "contract": "contracts/connectors/loantoken/LoanTokenLogicBeacon.sol:LoanTokenLogicBeacon",
            "label": "implementation",
            "offset": 0,
            "slot": "0",
            "type": "t_address"
          },
          {
            "astId": 547,
            "contract": "contracts/connectors/loantoken/LoanTokenLogicBeacon.sol:LoanTokenLogicBeacon",
            "label": "updateTimestamp",
            "offset": 0,
            "slot": "1",
            "type": "t_uint256"
          }
        ],
        "numberOfBytes": "64"
      },
      "t_uint256": {
        "encoding": "inplace",
        "label": "uint256",
        "numberOfBytes": "32"
      }
    }
  }
}