{
  "address": "0x7a5B22EfCA7472E32FcdDCFABaeA00f6484F838a",
  "abi": [
    {
      "anonymous": false,
      "inputs": [
        {
          "indexed": true,
          "internalType": "address",
          "name": "owner",
          "type": "address"
        },
        {
          "indexed": true,
          "internalType": "address",
          "name": "spender",
          "type": "address"
        },
        {
          "indexed": false,
          "internalType": "uint256",
          "name": "valueBefore",
          "type": "uint256"
        },
        {
          "indexed": false,
          "internalType": "uint256",
          "name": "valueAfter",
          "type": "uint256"
        }
      ],
      "name": "AllowanceUpdate",
      "type": "event"
    },
    {
      "anonymous": false,
      "inputs": [
        {
          "indexed": true,
          "internalType": "address",
          "name": "owner",
          "type": "address"
        },
        {
          "indexed": true,
          "internalType": "address",
          "name": "spender",
          "type": "address"
        },
        {
          "indexed": false,
          "internalType": "uint256",
          "name": "value",
          "type": "uint256"
        }
      ],
      "name": "Approval",
      "type": "event"
    },
    {
      "anonymous": false,
      "inputs": [
        {
          "indexed": true,
          "internalType": "address",
          "name": "burner",
          "type": "address"
        },
        {
          "indexed": false,
          "internalType": "uint256",
          "name": "tokenAmount",
          "type": "uint256"
        },
        {
          "indexed": false,
          "internalType": "uint256",
          "name": "assetAmount",
          "type": "uint256"
        },
        {
          "indexed": false,
          "internalType": "uint256",
          "name": "price",
          "type": "uint256"
        }
      ],
      "name": "Burn",
      "type": "event"
    },
    {
      "anonymous": false,
      "inputs": [
        {
          "indexed": false,
          "internalType": "address",
          "name": "borrower",
          "type": "address"
        },
        {
          "indexed": false,
          "internalType": "address",
          "name": "target",
          "type": "address"
        },
        {
          "indexed": false,
          "internalType": "address",
          "name": "loanToken",
          "type": "address"
        },
        {
          "indexed": false,
          "internalType": "uint256",
          "name": "loanAmount",
          "type": "uint256"
        }
      ],
      "name": "FlashBorrow",
      "type": "event"
    },
    {
      "anonymous": false,
      "inputs": [
        {
          "indexed": true,
          "internalType": "address",
          "name": "minter",
          "type": "address"
        },
        {
          "indexed": false,
          "internalType": "uint256",
          "name": "tokenAmount",
          "type": "uint256"
        },
        {
          "indexed": false,
          "internalType": "uint256",
          "name": "assetAmount",
          "type": "uint256"
        },
        {
          "indexed": false,
          "internalType": "uint256",
          "name": "price",
          "type": "uint256"
        }
      ],
      "name": "Mint",
      "type": "event"
    },
    {
      "anonymous": false,
      "inputs": [
        {
          "indexed": true,
          "internalType": "address",
          "name": "previousOwner",
          "type": "address"
        },
        {
          "indexed": true,
          "internalType": "address",
          "name": "newOwner",
          "type": "address"
        }
      ],
      "name": "OwnershipTransferred",
      "type": "event"
    },
    {
      "anonymous": false,
      "inputs": [
        {
          "indexed": true,
          "internalType": "address",
          "name": "from",
          "type": "address"
        },
        {
          "indexed": true,
          "internalType": "address",
          "name": "to",
          "type": "address"
        },
        {
          "indexed": false,
          "internalType": "uint256",
          "name": "value",
          "type": "uint256"
        }
      ],
      "name": "Transfer",
      "type": "event"
    },
    {
      "constant": true,
      "inputs": [],
      "name": "TINY_AMOUNT",
      "outputs": [
        {
          "internalType": "uint256",
          "name": "",
          "type": "uint256"
        }
      ],
      "payable": false,
      "stateMutability": "view",
      "type": "function"
    },
    {
      "constant": true,
      "inputs": [],
      "name": "VERSION",
      "outputs": [
        {
          "internalType": "uint256",
          "name": "",
          "type": "uint256"
        }
      ],
      "payable": false,
      "stateMutability": "view",
      "type": "function"
    },
    {
      "constant": true,
      "inputs": [],
      "name": "admin",
      "outputs": [
        {
          "internalType": "address",
          "name": "",
          "type": "address"
        }
      ],
      "payable": false,
      "stateMutability": "view",
      "type": "function"
    },
    {
      "constant": true,
      "inputs": [
        {
          "internalType": "address",
          "name": "_owner",
          "type": "address"
        },
        {
          "internalType": "address",
          "name": "_spender",
          "type": "address"
        }
      ],
      "name": "allowance",
      "outputs": [
        {
          "internalType": "uint256",
          "name": "",
          "type": "uint256"
        }
      ],
      "payable": false,
      "stateMutability": "view",
      "type": "function"
    },
    {
      "constant": false,
      "inputs": [
        {
          "internalType": "address",
          "name": "_spender",
          "type": "address"
        },
        {
          "internalType": "uint256",
          "name": "_value",
          "type": "uint256"
        }
      ],
      "name": "approve",
      "outputs": [
        {
          "internalType": "bool",
          "name": "",
          "type": "bool"
        }
      ],
      "payable": false,
      "stateMutability": "nonpayable",
      "type": "function"
    },
    {
      "constant": true,
      "inputs": [
        {
          "internalType": "address",
          "name": "_owner",
          "type": "address"
        }
      ],
      "name": "assetBalanceOf",
      "outputs": [
        {
          "internalType": "uint256",
          "name": "",
          "type": "uint256"
        }
      ],
      "payable": false,
      "stateMutability": "view",
      "type": "function"
    },
    {
      "constant": true,
      "inputs": [],
      "name": "avgBorrowInterestRate",
      "outputs": [
        {
          "internalType": "uint256",
          "name": "",
          "type": "uint256"
        }
      ],
      "payable": false,
      "stateMutability": "view",
      "type": "function"
    },
    {
      "constant": true,
      "inputs": [
        {
          "internalType": "address",
          "name": "_owner",
          "type": "address"
        }
      ],
      "name": "balanceOf",
      "outputs": [
        {
          "internalType": "uint256",
          "name": "",
          "type": "uint256"
        }
      ],
      "payable": false,
      "stateMutability": "view",
      "type": "function"
    },
    {
      "constant": true,
      "inputs": [],
      "name": "baseRate",
      "outputs": [
        {
          "internalType": "uint256",
          "name": "",
          "type": "uint256"
        }
      ],
      "payable": false,
      "stateMutability": "view",
      "type": "function"
    },
    {
      "constant": false,
      "inputs": [
        {
          "internalType": "bytes32",
          "name": "loanId",
          "type": "bytes32"
        },
        {
          "internalType": "uint256",
          "name": "withdrawAmount",
          "type": "uint256"
        },
        {
          "internalType": "uint256",
          "name": "initialLoanDuration",
          "type": "uint256"
        },
        {
          "internalType": "uint256",
          "name": "collateralTokenSent",
          "type": "uint256"
        },
        {
          "internalType": "address",
          "name": "collateralTokenAddress",
          "type": "address"
        },
        {
          "internalType": "address",
          "name": "borrower",
          "type": "address"
        },
        {
          "internalType": "address",
          "name": "receiver",
          "type": "address"
        },
        {
          "internalType": "bytes",
          "name": "",
          "type": "bytes"
        }
      ],
      "name": "borrow",
      "outputs": [
        {
          "internalType": "uint256",
          "name": "",
          "type": "uint256"
        },
        {
          "internalType": "uint256",
          "name": "",
          "type": "uint256"
        }
      ],
      "payable": true,
      "stateMutability": "payable",
      "type": "function"
    },
    {
      "constant": true,
      "inputs": [],
      "name": "borrowInterestRate",
      "outputs": [
        {
          "internalType": "uint256",
          "name": "",
          "type": "uint256"
        }
      ],
      "payable": false,
      "stateMutability": "view",
      "type": "function"
    },
    {
      "constant": true,
      "inputs": [
        {
          "internalType": "uint256",
          "name": "assetBorrow",
          "type": "uint256"
        },
        {
          "internalType": "uint256",
          "name": "assetSupply",
          "type": "uint256"
        }
      ],
      "name": "calculateSupplyInterestRate",
      "outputs": [
        {
          "internalType": "uint256",
          "name": "",
          "type": "uint256"
        }
      ],
      "payable": false,
      "stateMutability": "view",
      "type": "function"
    },
    {
      "constant": true,
      "inputs": [
        {
          "internalType": "uint256",
          "name": "loanTokenSent",
          "type": "uint256"
        },
        {
          "internalType": "address",
          "name": "collateralTokenAddress",
          "type": "address"
        },
        {
          "internalType": "uint256",
          "name": "minEntryPrice",
          "type": "uint256"
        }
      ],
      "name": "checkPriceDivergence",
      "outputs": [],
      "payable": false,
      "stateMutability": "view",
      "type": "function"
    },
    {
      "constant": true,
      "inputs": [
        {
          "internalType": "address",
          "name": "_user",
          "type": "address"
        }
      ],
      "name": "checkpointPrice",
      "outputs": [
        {
          "internalType": "uint256",
          "name": "price",
          "type": "uint256"
        }
      ],
      "payable": false,
      "stateMutability": "view",
      "type": "function"
    },
    {
      "constant": true,
      "inputs": [],
      "name": "checkpointSupply",
      "outputs": [
        {
          "internalType": "uint256",
          "name": "",
          "type": "uint256"
        }
      ],
      "payable": false,
      "stateMutability": "view",
      "type": "function"
    },
    {
      "constant": true,
      "inputs": [],
      "name": "decimals",
      "outputs": [
        {
          "internalType": "uint8",
          "name": "",
          "type": "uint8"
        }
      ],
      "payable": false,
      "stateMutability": "view",
      "type": "function"
    },
    {
      "constant": true,
      "inputs": [],
      "name": "earlyAccessToken",
      "outputs": [
        {
          "internalType": "address",
          "name": "",
          "type": "address"
        }
      ],
      "payable": false,
      "stateMutability": "view",
      "type": "function"
    },
    {
      "constant": true,
      "inputs": [
        {
          "internalType": "uint256",
          "name": "depositAmount",
          "type": "uint256"
        },
        {
          "internalType": "uint256",
          "name": "initialLoanDuration",
          "type": "uint256"
        },
        {
          "internalType": "address",
          "name": "collateralTokenAddress",
          "type": "address"
        }
      ],
      "name": "getBorrowAmountForDeposit",
      "outputs": [
        {
          "internalType": "uint256",
          "name": "borrowAmount",
          "type": "uint256"
        }
      ],
      "payable": false,
      "stateMutability": "view",
      "type": "function"
    },
    {
      "constant": true,
      "inputs": [
        {
          "internalType": "uint256",
          "name": "borrowAmount",
          "type": "uint256"
        },
        {
          "internalType": "uint256",
          "name": "initialLoanDuration",
          "type": "uint256"
        },
        {
          "internalType": "address",
          "name": "collateralTokenAddress",
          "type": "address"
        }
      ],
      "name": "getDepositAmountForBorrow",
      "outputs": [
        {
          "internalType": "uint256",
          "name": "depositAmount",
          "type": "uint256"
        }
      ],
      "payable": false,
      "stateMutability": "view",
      "type": "function"
    },
    {
      "constant": true,
      "inputs": [
        {
          "internalType": "uint256",
          "name": "leverageAmount",
          "type": "uint256"
        },
        {
          "internalType": "uint256",
          "name": "loanTokenSent",
          "type": "uint256"
        },
        {
          "internalType": "uint256",
          "name": "collateralTokenSent",
          "type": "uint256"
        },
        {
          "internalType": "address",
          "name": "collateralTokenAddress",
          "type": "address"
        }
      ],
      "name": "getEstimatedMarginDetails",
      "outputs": [
        {
          "internalType": "uint256",
          "name": "principal",
          "type": "uint256"
        },
        {
          "internalType": "uint256",
          "name": "collateral",
          "type": "uint256"
        },
        {
          "internalType": "uint256",
          "name": "interestRate",
          "type": "uint256"
        }
      ],
      "payable": false,
      "stateMutability": "view",
      "type": "function"
    },
    {
      "constant": true,
      "inputs": [],
      "name": "getListFunctionSignatures",
      "outputs": [
        {
          "internalType": "bytes4[]",
          "name": "functionSignatures",
          "type": "bytes4[]"
        },
        {
          "internalType": "bytes32",
          "name": "moduleName",
          "type": "bytes32"
        }
      ],
      "payable": false,
      "stateMutability": "pure",
      "type": "function"
    },
    {
      "constant": true,
      "inputs": [
        {
          "internalType": "uint256",
          "name": "leverageAmount",
          "type": "uint256"
        }
      ],
      "name": "getMaxEscrowAmount",
      "outputs": [
        {
          "internalType": "uint256",
          "name": "maxEscrowAmount",
          "type": "uint256"
        }
      ],
      "payable": false,
      "stateMutability": "view",
      "type": "function"
    },
    {
      "constant": true,
      "inputs": [],
      "name": "initialPrice",
      "outputs": [
        {
          "internalType": "uint256",
          "name": "",
          "type": "uint256"
        }
      ],
      "payable": false,
      "stateMutability": "view",
      "type": "function"
    },
    {
      "constant": true,
      "inputs": [],
      "name": "isOwner",
      "outputs": [
        {
          "internalType": "bool",
          "name": "",
          "type": "bool"
        }
      ],
      "payable": false,
      "stateMutability": "view",
      "type": "function"
    },
    {
      "constant": true,
      "inputs": [],
      "name": "kinkLevel",
      "outputs": [
        {
          "internalType": "uint256",
          "name": "",
          "type": "uint256"
        }
      ],
      "payable": false,
      "stateMutability": "view",
      "type": "function"
    },
    {
      "constant": true,
      "inputs": [],
      "name": "liquidityMiningAddress",
      "outputs": [
        {
          "internalType": "address",
          "name": "",
          "type": "address"
        }
      ],
      "payable": false,
      "stateMutability": "view",
      "type": "function"
    },
    {
      "constant": true,
      "inputs": [
        {
          "internalType": "uint256",
          "name": "",
          "type": "uint256"
        }
      ],
      "name": "loanParamsIds",
      "outputs": [
        {
          "internalType": "bytes32",
          "name": "",
          "type": "bytes32"
        }
      ],
      "payable": false,
      "stateMutability": "view",
      "type": "function"
    },
    {
      "constant": true,
      "inputs": [],
      "name": "loanTokenAddress",
      "outputs": [
        {
          "internalType": "address",
          "name": "",
          "type": "address"
        }
      ],
      "payable": false,
      "stateMutability": "view",
      "type": "function"
    },
    {
      "constant": true,
      "inputs": [],
      "name": "lowUtilBaseRate",
      "outputs": [
        {
          "internalType": "uint256",
          "name": "",
          "type": "uint256"
        }
      ],
      "payable": false,
      "stateMutability": "view",
      "type": "function"
    },
    {
      "constant": true,
      "inputs": [],
      "name": "lowUtilRateMultiplier",
      "outputs": [
        {
          "internalType": "uint256",
          "name": "",
          "type": "uint256"
        }
      ],
      "payable": false,
      "stateMutability": "view",
      "type": "function"
    },
    {
      "constant": false,
      "inputs": [
        {
          "internalType": "bytes32",
          "name": "loanId",
          "type": "bytes32"
        },
        {
          "internalType": "uint256",
          "name": "leverageAmount",
          "type": "uint256"
        },
        {
          "internalType": "uint256",
          "name": "loanTokenSent",
          "type": "uint256"
        },
        {
          "internalType": "uint256",
          "name": "collateralTokenSent",
          "type": "uint256"
        },
        {
          "internalType": "address",
          "name": "collateralTokenAddress",
          "type": "address"
        },
        {
          "internalType": "address",
          "name": "trader",
          "type": "address"
        },
        {
          "internalType": "uint256",
          "name": "minEntryPrice",
          "type": "uint256"
        },
        {
          "internalType": "bytes",
          "name": "loanDataBytes",
          "type": "bytes"
        }
      ],
      "name": "marginTrade",
      "outputs": [
        {
          "internalType": "uint256",
          "name": "",
          "type": "uint256"
        },
        {
          "internalType": "uint256",
          "name": "",
          "type": "uint256"
        }
      ],
      "payable": true,
      "stateMutability": "payable",
      "type": "function"
    },
    {
      "constant": false,
      "inputs": [
        {
          "internalType": "bytes32",
          "name": "loanId",
          "type": "bytes32"
        },
        {
          "internalType": "uint256",
          "name": "leverageAmount",
          "type": "uint256"
        },
        {
          "internalType": "uint256",
          "name": "loanTokenSent",
          "type": "uint256"
        },
        {
          "internalType": "uint256",
          "name": "collateralTokenSent",
          "type": "uint256"
        },
        {
          "internalType": "address",
          "name": "collateralTokenAddress",
          "type": "address"
        },
        {
          "internalType": "address",
          "name": "trader",
          "type": "address"
        },
        {
          "internalType": "uint256",
          "name": "minEntryPrice",
          "type": "uint256"
        },
        {
          "internalType": "address",
          "name": "affiliateReferrer",
          "type": "address"
        },
        {
          "internalType": "bytes",
          "name": "loanDataBytes",
          "type": "bytes"
        }
      ],
      "name": "marginTradeAffiliate",
      "outputs": [
        {
          "internalType": "uint256",
          "name": "",
          "type": "uint256"
        },
        {
          "internalType": "uint256",
          "name": "",
          "type": "uint256"
        }
      ],
      "payable": true,
      "stateMutability": "payable",
      "type": "function"
    },
    {
      "constant": true,
      "inputs": [],
      "name": "marketLiquidity",
      "outputs": [
        {
          "internalType": "uint256",
          "name": "",
          "type": "uint256"
        }
      ],
      "payable": false,
      "stateMutability": "view",
      "type": "function"
    },
    {
      "constant": true,
      "inputs": [],
      "name": "maxScaleRate",
      "outputs": [
        {
          "internalType": "uint256",
          "name": "",
          "type": "uint256"
        }
      ],
      "payable": false,
      "stateMutability": "view",
      "type": "function"
    },
    {
      "constant": true,
      "inputs": [],
      "name": "name",
      "outputs": [
        {
          "internalType": "string",
          "name": "",
          "type": "string"
        }
      ],
      "payable": false,
      "stateMutability": "view",
      "type": "function"
    },
    {
      "constant": true,
      "inputs": [
        {
          "internalType": "uint256",
          "name": "borrowAmount",
          "type": "uint256"
        }
      ],
      "name": "nextBorrowInterestRate",
      "outputs": [
        {
          "internalType": "uint256",
          "name": "",
          "type": "uint256"
        }
      ],
      "payable": false,
      "stateMutability": "view",
      "type": "function"
    },
    {
      "constant": true,
      "inputs": [
        {
          "internalType": "uint256",
          "name": "supplyAmount",
          "type": "uint256"
        }
      ],
      "name": "nextSupplyInterestRate",
      "outputs": [
        {
          "internalType": "uint256",
          "name": "",
          "type": "uint256"
        }
      ],
      "payable": false,
      "stateMutability": "view",
      "type": "function"
    },
    {
      "constant": true,
      "inputs": [],
      "name": "owner",
      "outputs": [
        {
          "internalType": "address",
          "name": "",
          "type": "address"
        }
      ],
      "payable": false,
      "stateMutability": "view",
      "type": "function"
    },
    {
      "constant": true,
      "inputs": [],
      "name": "pauser",
      "outputs": [
        {
          "internalType": "address",
          "name": "",
          "type": "address"
        }
      ],
      "payable": false,
      "stateMutability": "view",
      "type": "function"
    },
    {
      "constant": true,
      "inputs": [
        {
          "internalType": "address",
          "name": "user",
          "type": "address"
        }
      ],
      "name": "profitOf",
      "outputs": [
        {
          "internalType": "int256",
          "name": "",
          "type": "int256"
        }
      ],
      "payable": false,
      "stateMutability": "view",
      "type": "function"
    },
    {
      "constant": true,
      "inputs": [],
      "name": "rateMultiplier",
      "outputs": [
        {
          "internalType": "uint256",
          "name": "",
          "type": "uint256"
        }
      ],
      "payable": false,
      "stateMutability": "view",
      "type": "function"
    },
    {
      "constant": true,
      "inputs": [],
      "name": "sovrynContractAddress",
      "outputs": [
        {
          "internalType": "address",
          "name": "",
          "type": "address"
        }
      ],
      "payable": false,
      "stateMutability": "view",
      "type": "function"
    },
    {
      "constant": true,
      "inputs": [],
      "name": "stakingContractAddress",
      "outputs": [
        {
          "internalType": "address",
          "name": "",
          "type": "address"
        }
      ],
      "payable": false,
      "stateMutability": "view",
      "type": "function"
    },
    {
      "constant": true,
      "inputs": [
        {
          "internalType": "string",
          "name": "source",
          "type": "string"
        }
      ],
      "name": "stringToBytes32",
      "outputs": [
        {
          "internalType": "bytes32",
          "name": "result",
          "type": "bytes32"
        }
      ],
      "payable": false,
      "stateMutability": "pure",
      "type": "function"
    },
    {
      "constant": true,
      "inputs": [],
      "name": "supplyInterestRate",
      "outputs": [
        {
          "internalType": "uint256",
          "name": "",
          "type": "uint256"
        }
      ],
      "payable": false,
      "stateMutability": "view",
      "type": "function"
    },
    {
      "constant": true,
      "inputs": [],
      "name": "symbol",
      "outputs": [
        {
          "internalType": "string",
          "name": "",
          "type": "string"
        }
      ],
      "payable": false,
      "stateMutability": "view",
      "type": "function"
    },
    {
      "constant": true,
      "inputs": [],
      "name": "targetLevel",
      "outputs": [
        {
          "internalType": "uint256",
          "name": "",
          "type": "uint256"
        }
      ],
      "payable": false,
      "stateMutability": "view",
      "type": "function"
    },
    {
      "constant": true,
      "inputs": [],
      "name": "target_",
      "outputs": [
        {
          "internalType": "address",
          "name": "",
          "type": "address"
        }
      ],
      "payable": false,
      "stateMutability": "view",
      "type": "function"
    },
    {
      "constant": true,
      "inputs": [],
      "name": "tokenPrice",
      "outputs": [
        {
          "internalType": "uint256",
          "name": "price",
          "type": "uint256"
        }
      ],
      "payable": false,
      "stateMutability": "view",
      "type": "function"
    },
    {
      "constant": true,
      "inputs": [],
      "name": "totalAssetBorrow",
      "outputs": [
        {
          "internalType": "uint256",
          "name": "",
          "type": "uint256"
        }
      ],
      "payable": false,
      "stateMutability": "view",
      "type": "function"
    },
    {
      "constant": true,
      "inputs": [],
      "name": "totalAssetSupply",
      "outputs": [
        {
          "internalType": "uint256",
          "name": "",
          "type": "uint256"
        }
      ],
      "payable": false,
      "stateMutability": "view",
      "type": "function"
    },
    {
      "constant": true,
      "inputs": [],
      "name": "totalSupply",
      "outputs": [
        {
          "internalType": "uint256",
          "name": "",
          "type": "uint256"
        }
      ],
      "payable": false,
      "stateMutability": "view",
      "type": "function"
    },
    {
      "constant": true,
      "inputs": [
        {
          "internalType": "uint256",
          "name": "assetSupply",
          "type": "uint256"
        }
      ],
      "name": "totalSupplyInterestRate",
      "outputs": [
        {
          "internalType": "uint256",
          "name": "",
          "type": "uint256"
        }
      ],
      "payable": false,
      "stateMutability": "view",
      "type": "function"
    },
    {
      "constant": true,
      "inputs": [
        {
          "internalType": "address",
          "name": "",
          "type": "address"
        }
      ],
      "name": "transactionLimit",
      "outputs": [
        {
          "internalType": "uint256",
          "name": "",
          "type": "uint256"
        }
      ],
      "payable": false,
      "stateMutability": "view",
      "type": "function"
    },
    {
      "constant": false,
      "inputs": [
        {
          "internalType": "address",
          "name": "_to",
          "type": "address"
        },
        {
          "internalType": "uint256",
          "name": "_value",
          "type": "uint256"
        }
      ],
      "name": "transfer",
      "outputs": [
        {
          "internalType": "bool",
          "name": "",
          "type": "bool"
        }
      ],
      "payable": false,
      "stateMutability": "nonpayable",
      "type": "function"
    },
    {
      "constant": false,
      "inputs": [
        {
          "internalType": "address",
          "name": "_from",
          "type": "address"
        },
        {
          "internalType": "address",
          "name": "_to",
          "type": "address"
        },
        {
          "internalType": "uint256",
          "name": "_value",
          "type": "uint256"
        }
      ],
      "name": "transferFrom",
      "outputs": [
        {
          "internalType": "bool",
          "name": "",
          "type": "bool"
        }
      ],
      "payable": false,
      "stateMutability": "nonpayable",
      "type": "function"
    },
    {
      "constant": false,
      "inputs": [
        {
          "internalType": "address",
          "name": "newOwner",
          "type": "address"
        }
      ],
      "name": "transferOwnership",
      "outputs": [],
      "payable": false,
      "stateMutability": "nonpayable",
      "type": "function"
    },
    {
      "constant": true,
      "inputs": [],
      "name": "wrbtcTokenAddress",
      "outputs": [
        {
          "internalType": "address",
          "name": "",
          "type": "address"
        }
      ],
      "payable": false,
      "stateMutability": "view",
      "type": "function"
    }
  ],
  "transactionHash": "0x909f482ffb1b282f15fd77dc0f9f65ade501f35f87a6895db02a4c29556dd45c",
  "args": [],
  "numDeployments": 1,
  "solcInputHash": "893704ca31180002ea7e9ca57c4eb6c1",
  "bytecode": "0x6080604052600160009081556200001e6001600160e01b036200007216565b600180546001600160a01b0319166001600160a01b038316908117909155604051919250906000907f8be0079c531659141344cd1fd0a4f28419497f9722a3daafe3b4186f6b6457e0908290a35062000076565b3390565b6150a080620000866000396000f3fe6080604052600436106103815760003560e01c80637b7933b4116101d1578063b9fe1a8f11610102578063e41b07e3116100a0578063f6b69f991161006f578063f6b69f991461094e578063f851a44014610961578063f8dd4f0e14610976578063ffa1ad741461098b57610381565b8063e41b07e3146108d9578063eebc5081146108f9578063ef2b0b3914610919578063f2fde38b1461092e57610381565b8063cfb51928116100dc578063cfb5192814610864578063d65a502114610884578063d759dbeb146108a4578063dd62ed3e146108b957610381565b8063b9fe1a8f1461081a578063ba0e43bf1461083a578063ca37e6661461084f57610381565b80638f32d59b1161016f57806395d89b411161014957806395d89b41146107bb5780639bda3a98146107d05780639fd0506d146107e5578063a9059cbb146107fa57610381565b80638f32d59b1461076e5780638fb807c51461078357806390967de51461079857610381565b8063829b38f4116101ab578063829b38f41461070f5780638325a1c01461072f5780638da5cb5b146107445780638ee6c4e61461075957610381565b80637b7933b4146106d05780637e37c08c146106e55780637ff9b596146106fa57610381565b80632ea295fa116102b657806354198ce9116102545780636b40cd40116102235780636b40cd401461064c5780636d23d1ac1461067b57806370a082311461069b578063797bf385146106bb57610381565b806354198ce9146105e257806356e07d7014610602578063612ef80b14610617578063631a3ef81461062c57610381565b80633291c11a116102905780633291c11a14610583578063330691ac146105a35780633535f48b146105b857806344a4a003146105cd57610381565b80632ea295fa146105395780632f6b600d1461054c578063313ce5671461056157610381565b806312416898116103235780631f68f20a116102fd5780631f68f20a146104ce57806320f6d07c146104e357806323b872dd146104f857806328a02f191461051857610381565b8063124168981461048457806318160ddd146104a45780631d0806ae146104b957610381565b806306fdde031161035f57806306fdde03146103fe578063095ea7b31461042057806309ec6b6b1461044d57806310e576441461046257610381565b8063047979301461038657806306947a3a146103bc57806306b3efd6146103de575b600080fd5b34801561039257600080fd5b506103a66103a136600461421b565b6109a0565b6040516103b39190614ca4565b60405180910390f35b3480156103c857600080fd5b506103d1610b49565b6040516103b39190614b60565b3480156103ea57600080fd5b506103a66103f9366004613df1565b610b58565b34801561040a57600080fd5b50610413610c44565b6040516103b39190614d23565b34801561042c57600080fd5b5061044061043b366004613eb4565b610ccf565b6040516103b39190614c96565b34801561045957600080fd5b506103a6610d3a565b34801561046e57600080fd5b5061048261047d3660046141ab565b610d4f565b005b34801561049057600080fd5b506103a661049f36600461416f565b610e32565b3480156104b057600080fd5b506103a6610e5d565b3480156104c557600080fd5b506103a6610e63565b3480156104da57600080fd5b506103a6610e69565b3480156104ef57600080fd5b506103a6610e6f565b34801561050457600080fd5b50610440610513366004613e67565b610efe565b61052b6105263660046140ab565b610fc7565b6040516103b3929190614ee4565b61052b610547366004613f02565b611359565b34801561055857600080fd5b506103d16116e0565b34801561056d57600080fd5b506105766116ef565b6040516103b39190614f0d565b34801561058f57600080fd5b506103a661059e36600461416f565b6116f8565b3480156105af57600080fd5b506103a661170a565b3480156105c457600080fd5b506103d1611710565b3480156105d957600080fd5b506103a661171f565b3480156105ee57600080fd5b506103a66105fd366004613df1565b611731565b34801561060e57600080fd5b506103a66117d2565b34801561062357600080fd5b506103a66117d8565b34801561063857600080fd5b506103a661064736600461421b565b611809565b34801561065857600080fd5b5061066c61066736600461425e565b6119a9565b6040516103b393929190614ef2565b34801561068757600080fd5b506103a66106963660046141cc565b611aba565b3480156106a757600080fd5b506103a66106b6366004613df1565b611b9d565b3480156106c757600080fd5b506103d1611bb8565b3480156106dc57600080fd5b506103a6611bcc565b3480156106f157600080fd5b506103a6611bd2565b34801561070657600080fd5b506103a6611bd8565b34801561071b57600080fd5b506103a661072a36600461416f565b611c16565b34801561073b57600080fd5b506103a6611c96565b34801561075057600080fd5b506103d1611ca2565b34801561076557600080fd5b506103d1611cb1565b34801561077a57600080fd5b50610440611cc0565b34801561078f57600080fd5b506103a6611ce6565b3480156107a457600080fd5b506107ad611d16565b6040516103b3929190614c76565b3480156107c757600080fd5b506104136122df565b3480156107dc57600080fd5b506103d161233a565b3480156107f157600080fd5b506103d1612349565b34801561080657600080fd5b50610440610815366004613eb4565b612358565b34801561082657600080fd5b506103a661083536600461416f565b6124ac565b34801561084657600080fd5b506103a66124b7565b34801561085b57600080fd5b506103d16124bd565b34801561087057600080fd5b506103a661087f36600461413a565b6124cc565b34801561089057600080fd5b506103a661089f36600461416f565b6124ea565b3480156108b057600080fd5b506103a66124fd565b3480156108c557600080fd5b506103a66108d4366004613e2d565b612503565b3480156108e557600080fd5b506103a66108f4366004613df1565b61252e565b34801561090557600080fd5b506103a6610914366004613df1565b612540565b34801561092557600080fd5b506103a661255b565b34801561093a57600080fd5b50610482610949366004613df1565b612561565b61052b61095c366004613fca565b612591565b34801561096d57600080fd5b506103d1612661565b34801561098257600080fd5b506103a6612670565b34801561099757600080fd5b506103a661267a565b60008315610b42576001600160a01b0382166109c5576017546001600160a01b031691505b6000601060008460016040516020016109df929190614ae1565b60408051601f19818403018152918152815160209283012083529082019290925281016000205460165460048054935163ca74a5d960e01b81529294506001600160a01b039182169363e762319f936101009091049092169187918a91869163ca74a5d991610a50918a9101614ca4565b60206040518083038186803b158015610a6857600080fd5b505afa158015610a7c573d6000803e3d6000fd5b505050506040513d601f19601f82011682018060405250610aa0919081019061418d565b60016040518663ffffffff1660e01b8152600401610ac2959493929190614bbf565b60206040518083038186803b158015610ada57600080fd5b505afa158015610aee573d6000803e3d6000fd5b505050506040513d601f19601f82011682018060405250610b12919081019061418d565b9150610b2682610b20611ce6565b8661267f565b9350610b3491506126f89050565b821115610b4057600091505b505b9392505050565b6016546001600160a01b031681565b601c5460009081906001600160a01b031615610bf357601c54604051636822955360e11b81526001600160a01b039091169063d0452aa690610ba09030908790600401614b7c565b60206040518083038186803b158015610bb857600080fd5b505afa158015610bcc573d6000803e3d6000fd5b505050506040513d601f19601f82011682018060405250610bf0919081019061418d565b90505b610c3b670de0b6b3a7640000610c2f610c0a611bd8565b610c2385610c1789611b9d565b9063ffffffff61272e16565b9063ffffffff61275316565b9063ffffffff61278d16565b9150505b919050565b6002805460408051602060018416156101000260001901909316849004601f81018490048402820184019092528181529291830182828015610cc75780601f10610c9c57610100808354040283529160200191610cc7565b820191906000526020600020905b815481529060010190602001808311610caa57829003601f168201915b505050505081565b3360008181526014602090815260408083206001600160a01b038716808552925280832085905551919290917f8c5be1e5ebec7d5bd14f71427d1e84f3dd0314c0f7b2291e5b200ac8c7c3b92590610d28908690614ca4565b60405180910390a35060015b92915050565b6000610d4961049f60006127cf565b90505b90565b60165460048054604051631a51577760e21b81526000936001600160a01b03908116936369455ddc93610d90936101009091049092169188918a9101614b97565b60206040518083038186803b158015610da857600080fd5b505afa158015610dbc573d6000803e3d6000fd5b505050506040513d601f19601f82011682018060405250610de0919081019061418d565b90506000610e0085610c2f84670de0b6b3a764000063ffffffff61275316565b905082811015610e2b5760405162461bcd60e51b8152600401610e2290614d84565b60405180910390fd5b5050505050565b600080610e3d610e6f565b90508015610e5757610e4f8184611aba565b915050610c3f565b50919050565b60155490565b600e5481565b60055481565b6016546004805460405163250f447f60e11b81526000936001600160a01b0390811693634a1e88fe93610eae9330936101009092049091169101614b7c565b60206040518083038186803b158015610ec657600080fd5b505afa158015610eda573d6000803e3d6000fd5b505050506040513d601f19601f82011682018060405250610d49919081019061418d565b60165460405163115dd4b160e01b8152600091610fbf918691869186916001600160a01b03169063115dd4b190610f39903390600401614b6e565b60206040518083038186803b158015610f5157600080fd5b505afa158015610f65573d6000803e3d6000fd5b505050506040513d601f19601f82011682018060405250610f899190810190613ee4565b610fb6576001600160a01b0388166000908152601460209081526040808320338452909152902054610fba565b6000195b612809565b949350505050565b600080600160005414610fec5760405162461bcd60e51b8152600401610e2290614e94565b6002600081905550600073ba10edd6abc7696eae685839217bdcc42139612b6001600160a01b031663ed04e1c36040518163ffffffff1660e01b8152600401602060405180830381600087803b15801561104557600080fd5b505af1158015611059573d6000803e3d6000fd5b505050506040513d601f19601f8201168201806040525061107d919081019061418d565b9050611087612a19565b6001600160a01b0387166110a4576017546001600160a01b031696505b6004546001600160a01b038881166101009092041614156110d75760405162461bcd60e51b8152600401610e2290614df4565b8a15806110ec5750336001600160a01b038716145b6111085760405162461bcd60e51b8152600401610e2290614eb4565b6001600160a01b0387166000908152601260205260409020541561114b576001600160a01b03871660009081526012602052604090205488111561114b57600080fd5b60045461010090046001600160a01b03166000908152601260205260409020541561119c5760045461010090046001600160a01b031660009081526012602052604090205489111561119c57600080fd5b60006111a9888a8c612a99565b9050806111c85760405162461bcd60e51b8152600401610e2290614e14565b6111d0613caa565b6111d8613cd1565b3082526001600160a01b038916602080840182905260408401919091528101839052606081018c9052608081018b9052611210612cc6565b61121e8d8260200151612d6c565b82526020820181905260045465e35fa931a0009161124a9161010090046001600160a01b031690612dbb565b116112675760405162461bcd60e51b8152600401610e2290614e74565b6112816f4b3b4ca85a86c47a098a2240000000008e61278d565b60a082018990529c5061129a8e60008f8d86868d612ee2565b9550955050505073ba10edd6abc7696eae685839217bdcc42139612b6001600160a01b0316633fa4f2456040518163ffffffff1660e01b815260040160206040518083038186803b1580156112ee57600080fd5b505afa158015611302573d6000803e3d6000fd5b505050506040513d601f19601f82011682018060405250611326919081019061418d565b81146113445760405162461bcd60e51b8152600401610e2290614d34565b50600160005590999098509650505050505050565b60008060016000541461137e5760405162461bcd60e51b8152600401610e2290614e94565b6002600081905550600073ba10edd6abc7696eae685839217bdcc42139612b6001600160a01b031663ed04e1c36040518163ffffffff1660e01b8152600401602060405180830381600087803b1580156113d757600080fd5b505af11580156113eb573d6000803e3d6000fd5b505050506040513d601f19601f8201168201806040525061140f919081019061418d565b90508961142e5760405162461bcd60e51b8152600401610e2290614ec4565b611436612a19565b6001600160a01b03871660009081526012602052604090205415611479576001600160a01b03871660009081526012602052604090205488111561147957600080fd5b34158061148557508734145b801561149957508715158061149957508a15155b80156114c057506001600160a01b0387161515806114b657503415155b806114c057508a15155b80156114dc57508a15806114dc5750336001600160a01b038716145b6114f85760405162461bcd60e51b8152600401610e2290614dc4565b6004546001600160a01b0388811661010090920416141561152b5760405162461bcd60e51b8152600401610e2290614d44565b611533612cc6565b61153b613caa565b611543613cd1565b3082526001600160a01b03888116602080850191909152908816604084015281018c905261157b8c61157560006127cf565b8d61267f565b8360000184604001856020018381525083815250838152505050508981608001818152505061168d8d8d601660009054906101000a90046001600160a01b03166001600160a01b031663ca74a5d9601060008f60016040516020016115e1929190614ae1565b6040516020818303038152906040528051906020012060001c8152602001908152602001600020546040518263ffffffff1660e01b81526004016116259190614ca4565b60206040518083038186803b15801561163d57600080fd5b505afa158015611651573d6000803e3d6000fd5b505050506040513d601f19601f82011682018060405250611675919081019061418d565b8c868660405180602001604052806000815250612ee2565b94509450505073ba10edd6abc7696eae685839217bdcc42139612b6001600160a01b0316633fa4f2456040518163ffffffff1660e01b815260040160206040518083038186803b1580156112ee57600080fd5b6017546001600160a01b031681565b60045460ff1681565b60106020526000908152604090205481565b60065481565b601d546001600160a01b031681565b6000610d4961172c610e6f565b61313f565b600080827f37aa2b7d583612f016e4a4de4292cb015139b3d7762663d06a53964912ea2fb660001b60405160200161176a929190614b07565b604051602081830303815290604052805190602001209050610c3b8160136000866001600160a01b03166001600160a01b03168152602001908152602001600020546117b4611bd8565b6001600160a01b038716600090815260116020526040902054613177565b600a5481565b6000806117e560006127cf565b905060006117f1610e6f565b9050808211156118045790039050610d4c565b505090565b60008315610b4257600061181f85610b20611ce6565b9250505061182b6126f8565b8111610b40576001600160a01b03831661184e576017546001600160a01b031692505b600060106000856001604051602001611868929190614ae1565b60408051601f19818403018152918152815160209283012083529082019290925281016000205460165460048054935163ca74a5d960e01b81529294506119a093600a936001600160a01b03938416936325decac09361010090930416918a918991869163ca74a5d9916118de918c9101614ca4565b60206040518083038186803b1580156118f657600080fd5b505afa15801561190a573d6000803e3d6000fd5b505050506040513d601f19601f8201168201806040525061192e919081019061418d565b60016040518663ffffffff1660e01b8152600401611950959493929190614bbf565b60206040518083038186803b15801561196857600080fd5b505afa15801561197c573d6000803e3d6000fd5b505050506040513d601f19601f82011682018060405250610c17919081019061418d565b92505050610b42565b600080806001600160a01b0384166119ca576017546001600160a01b031693505b60006119d7858789612a99565b90506119e38882612d6c565b90945091506119f06126f8565b841115611a07575060009250829150819050611ab0565b611a17878563ffffffff61272e16565b6016546004805460405163d67f707760e01b8152939a506001600160a01b039283169363d67f707793611a5c9361010090930416918a918d918d918a918d9101614c01565b60206040518083038186803b158015611a7457600080fd5b505afa158015611a88573d6000803e3d6000fd5b505050506040513d601f19601f82011682018060405250611aac919081019061418d565b9250505b9450945094915050565b60008215801590611acb5750828210155b15610d3457611b96701d6329f1c35ca4bfabb9f5610000000000610c2f611b8068056bc75e2d63100000601660009054906101000a90046001600160a01b03166001600160a01b0316634699f8466040518163ffffffff1660e01b815260040160206040518083038186803b158015611b4357600080fd5b505afa158015611b57573d6000803e3d6000fd5b505050506040513d601f19601f82011682018060405250611b7b919081019061418d565b6131d1565b610c23611b8d8888613213565b610c238961313f565b9050610d34565b6001600160a01b031660009081526013602052604090205490565b60045461010090046001600160a01b031681565b600d5481565b60085481565b600f546000908190426001600160581b03908116911614611bff57611bfb613245565b9150505b611c10611c0b826127cf565b613311565b91505090565b600080611c3561016d610c2f601c600b5461275390919063ffffffff16565b90506000611c5268056bc75e2d631000008363ffffffff6131d116565b90506000611c6f68056bc75e2d63100000610c2f84610c236117d8565b9050611c8d85610c2f83670de0b6b3a764000063ffffffff61275316565b95945050505050565b6000610d496000613340565b6001546001600160a01b031690565b601c546001600160a01b031681565b6001546000906001600160a01b0316611cd7613396565b6001600160a01b031614905090565b600f546000908190426001600160581b03908116911614611d0d57611d09613245565b9150505b611c10816127cf565b60408051601c8082526103a0820190925260609160009183916020820161038080388339019050509050632ea295fa60e01b81600081518110611d5557fe5b6001600160e01b03199092166020928302919091019091015280516328a02f1960e01b9082906001908110611d8657fe5b6001600160e01b031990921660209283029190910190910152805163f6b69f9960e01b9082906002908110611db757fe5b6001600160e01b031990921660209283029190910190910152805163a9059cbb60e01b9082906003908110611de857fe5b6001600160e01b03199092166020928302919091019091015280516323b872dd60e01b9082906004908110611e1957fe5b6001600160e01b03199092166020928302919091019091015280516354198ce960e01b9082906005908110611e4a57fe5b6001600160e01b0319909216602092830291909101909101528051633ffcdacb60e11b9082906006908110611e7b57fe5b6001600160e01b031990921660209283029190910190910152805163eebc508160e01b9082906007908110611eac57fe5b6001600160e01b031990921660209283029190910190910152805163612ef80b60e01b9082906008908110611edd57fe5b6001600160e01b03199092166020928302919091019091015280516344a4a00360e01b9082906009908110611f0e57fe5b6001600160e01b031990921660209283029190910190910152805163020c968760e61b908290600a908110611f3f57fe5b6001600160e01b031990921660209283029190910190910152805163b9fe1a8f60e01b908290600b908110611f7057fe5b6001600160e01b03199092166020928302919091019091015280516309ec6b6b60e01b908290600c908110611fa157fe5b6001600160e01b031990921660209283029190910190910152805163d65a502160e01b908290600d908110611fd257fe5b6001600160e01b03199092166020928302919091019091015280516302482d1360e31b908290600e90811061200357fe5b6001600160e01b031990921660209283029190910190910152805163083db41f60e21b908290600f90811061203457fe5b6001600160e01b0319909216602092830291909101909101528051638fb807c560e01b908290601090811061206557fe5b6001600160e01b03199092166020928302919091019091015280516320a6ce3d60e21b908290601190811061209657fe5b6001600160e01b0319909216602092830291909101909101528051630359f7eb60e11b90829060129081106120c757fe5b6001600160e01b03199092166020928302919091019091015280516301ad033560e61b90829060139081106120f857fe5b6001600160e01b0319909216602092830291909101909101528051630c6347df60e31b908290601490811061212957fe5b6001600160e01b03199092166020928302919091019091015280516247979360e41b908290601590811061215957fe5b6001600160e01b03199092166020928302919091019091015280516304395d9160e21b908290601690811061218a57fe5b6001600160e01b0319909216602092830291909101909101528051631b48f46b60e21b90829060179081106121bb57fe5b6001600160e01b031990921660209283029190910190910152805163095ea7b360e01b90829060189081106121ec57fe5b6001600160e01b03199092166020928302919091019091015280516318160ddd60e01b908290601990811061221d57fe5b6001600160e01b03199092166020928302919091019091015280516370a0823160e01b908290601a90811061224e57fe5b6001600160e01b0319909216602092830291909101909101528051636eb1769f60e11b908290601b90811061227f57fe5b60200260200101906001600160e01b03191690816001600160e01b03191681525050806122d6604051806040016040528060138152602001724c6f616e546f6b656e4c6f676963577262746360681b8152506124cc565b92509250509091565b6003805460408051602060026001851615610100026000190190941693909304601f81018490048402820184019092528181529291830182828015610cc75780601f10610c9c57610100808354040283529160200191610cc7565b6018546001600160a01b031681565b601b546001600160a01b031681565b601d546000906001600160a01b0316158015906123f05750601d5460405163ca6860df60e01b81526001600160a01b039091169063ca6860df906123a0908690600401614b60565b60206040518083038186803b1580156123b857600080fd5b505afa1580156123cc573d6000803e3d6000fd5b505050506040513d601f19601f820116820180604052506123f09190810190613ee4565b1561249e5760408051600481526024810182526020810180516001600160e01b0316630a3e676160e41b17905290516000916060916001600160a01b0387169161243991614b49565b600060405180830381855afa9150503d8060008114612474576040519150601f19603f3d011682016040523d82523d6000602084013e612479565b606091505b5091509150811561249b57808060200190516124989190810190613e0f565b94505b50505b610b42338484600019612809565b6000610d3482613340565b60095481565b601a546001600160a01b031681565b805160009082906124e1575060009050610c3f565b50506020015190565b6000610d3461049f83610c1760006127cf565b60075481565b6001600160a01b03918216600090815260146020908152604080832093909416825291909152205490565b60126020526000908152604090205481565b6001600160a01b031660009081526011602052604090205490565b600b5481565b612569611cc0565b6125855760405162461bcd60e51b8152600401610e2290614e44565b61258e8161339a565b50565b6000806001600160a01b038516156126085760165460405163193bbe8960e31b81526001600160a01b039091169063c9ddf448906125d5908a908990600401614b7c565b600060405180830381600087803b1580156125ef57600080fd5b505af1158015612603573d6000803e3d6000fd5b505050505b61264e8c8c8c8c8c8c8c8b8b8080601f016020809104026020016040519081016040528093929190818152602001838380828437600092019190915250610fc792505050565b915091509a509a98505050505050505050565b6019546001600160a01b031681565b65e35fa931a00081565b600681565b600080600061268e868661341c565b92506126db6126c3670de0b6b3a7640000611b7b6b0a3098c68eb9427db8000000610c2f83610c238a8c63ffffffff61275316565b610c2f88670de0b6b3a764000063ffffffff61275316565b90506126ed818763ffffffff6131d116565b915093509350939050565b600480546040516370a0823160e01b81526000926101009092046001600160a01b0316916370a0823191610eae91309101614b60565b600082820183811015610b425760405162461bcd60e51b8152600401610e2290614d94565b60008261276257506000610d34565b8282028284828161276f57fe5b0414610b425760405162461bcd60e51b8152600401610e2290614e34565b6000610b4283836040518060400160405280601a81526020017f536166654d6174683a206469766973696f6e206279207a65726f000000000000815250613532565b6000601554600014610c3f57600c54806127f9576127f66127ee610e6f565b610c176126f8565b90505b610e4f818463ffffffff61272e16565b600060001982146128a2576040805180820190915260028152610c4d60f21b6020820152612840908390859063ffffffff61356916565b6001600160a01b038616600081815260146020908152604080832033808552925291829020849055905190927f628e75c63c1873bcd3885f7aee9f58ee36f60dc789b2a6b3a978c4189bc548ba91612899918791614ee4565b60405180910390a35b6001600160a01b0384166128c85760405162461bcd60e51b8152600401610e2290614d54565b6001600160a01b03851660009081526013602090815260408083205481518083019092526002825261189b60f11b92820192909252909190612913908390879063ffffffff61356916565b6001600160a01b0380891660009081526013602052604080822084905591891681529081205491925061294c828863ffffffff61272e16565b6001600160a01b0389166000908152601360205260408120829055909150612972611bd8565b601c549091506001600160a01b038b81169116148015906129a15750601c546001600160a01b038a8116911614155b156129be576129b28a868684613595565b6129be89848484613595565b886001600160a01b03168a6001600160a01b03167fddf252ad1be2c89b69c2b068fc378daa952ba7f163c4a11628f55a4df523b3ef8a604051612a019190614ca4565b60405180910390a35060019998505050505050505050565b600080356001600160e01b0319167fd46a704bc285dbd6ff5ad3863506260b1df02812f4f857c8cc852317a6ac64f2604051602001612a59929190614b2d565b6040516020818303038152906040528051906020012090506000815490508015612a955760405162461bcd60e51b8152600401610e2290614e44565b5050565b808215610b4257600080601660009054906101000a90046001600160a01b03166001600160a01b03166378d849ed6040518163ffffffff1660e01b815260040160206040518083038186803b158015612af157600080fd5b505afa158015612b05573d6000803e3d6000fd5b505050506040513d601f19601f82011682018060405250612b299190810190613e0f565b60048054604051630a7549df60e21b81526001600160a01b03938416936329d5277c93612b62938c936101009091049092169101614b7c565b604080518083038186803b158015612b7957600080fd5b505afa158015612b8d573d6000803e3d6000fd5b505050506040513d601f19601f82011682018060405250612bb191908101906141eb565b9150915081600014158015612bc557508015155b612be15760405162461bcd60e51b8152600401610e2290614e84565b6000612bf782610c2f888663ffffffff61275316565b60165460048054604051631a51577760e21b81529394506000936001600160a01b03938416936369455ddc93612c3a936101009004909116918d91889101614b97565b60206040518083038186803b158015612c5257600080fd5b505afa158015612c66573d6000803e3d6000fd5b505050506040513d601f19601f82011682018060405250612c8a919081019061418d565b9050868114612caa57612ca787610c2f848463ffffffff61275316565b91505b612cba828663ffffffff61272e16565b98975050505050505050565b600f5442906001600160581b0380831691161461258e5760165460048054604051630740ff7d60e51b81526001600160a01b039384169363e81fefa093612d169361010090049091169101614b60565b600060405180830381600087803b158015612d3057600080fd5b505af1158015612d44573d6000803e3d6000fd5b5050600f80546001600160581b0385166affffffffffffffffffffff19909116179055505050565b60008080612d8c670de0b6b3a7640000610c2f868863ffffffff61275316565b9050612da181612d9c60006127cf565b61341c565b9150612db1826224ea008361364b565b9250509250929050565b6000806000601660009054906101000a90046001600160a01b03166001600160a01b03166378d849ed6040518163ffffffff1660e01b815260040160206040518083038186803b158015612e0e57600080fd5b505afa158015612e22573d6000803e3d6000fd5b505050506040513d601f19601f82011682018060405250612e469190810190613e0f565b601754604051630a7549df60e21b81526001600160a01b03928316926329d5277c92612e7a928a9290911690600401614b7c565b604080518083038186803b158015612e9157600080fd5b505afa158015612ea5573d6000803e3d6000fd5b505050506040513d601f19601f82011682018060405250612ec991908101906141eb565b9092509050611c8d81610c2f868563ffffffff61275316565b600080612eed612a19565b612ef56126f8565b846020015111158015612f14575060208501516001600160a01b031615155b612f305760405162461bcd60e51b8152600401610e2290614de4565b60408501516001600160a01b0316612f565760208501516001600160a01b031660408601525b6000612f648787878c6136ac565b9050612f818560200151866060015161272e90919063ffffffff16565b60608601528815612fa7576060850151612fa1908a63ffffffff6131d116565b60608601525b60008915612fb3575060015b6000601060008a84604051602001612fcc929190614ae1565b6040516020818303038152906040528051906020012060001c8152602001908152602001600020549050601660009054906101000a90046001600160a01b03166001600160a01b031663d84ca25484838f868f8e8e8e6040518963ffffffff1660e01b81526004016130449796959493929190614cb2565b60408051808303818588803b15801561305c57600080fd5b505af1158015613070573d6000803e3d6000fd5b50505050506040513d601f19601f8201168201806040525061309591908101906141eb565b6080890152602088018190526130bd5760405162461bcd60e51b8152600401610e2290614e24565b601654602089015160405163f06a9c6b60e01b81526001600160a01b039092169163f06a9c6b916130f091600401614b60565b600060405180830381600087803b15801561310a57600080fd5b505af115801561311e573d6000803e3d6000fd5b50505050866020015187608001519450945050505097509795505050505050565b60008115610c3f576000613151613245565b509050610e4f83610c2f61016d610c238568056bc75e2d6310000063ffffffff61275316565b60008161318657506000610fbf565b508354611c8d816131c5670de0b6b3a76400006131b9886131ad898963ffffffff61390616565b9063ffffffff61394c16565b9063ffffffff6139b716565b9063ffffffff613a1b16565b6000610b4283836040518060400160405280601e81526020017f536166654d6174683a207375627472616374696f6e206f766572666c6f770000815250613569565b6000821580159061322357508115155b15610d3457611b9682610c2f8568056bc75e2d6310000063ffffffff61275316565b60165460048054604051630d1979fb60e41b8152600093849384936001600160a01b039283169363d1979fb09361328793309361010090049091169101614b7c565b60c06040518083038186803b15801561329f57600080fd5b505afa1580156132b3573d6000803e3d6000fd5b505050506040513d601f19601f820116820180604052506132d791908101906142bf565b509196509450925061330a915068056bc75e2d631000009050610c2f6132fd82856131d1565b859063ffffffff61275316565b9150509091565b6015546000908061332457600e54610c3b565b610c3b81610c2f85670de0b6b3a764000063ffffffff61275316565b600080821561338957600f54426001600160581b0390811691161461336b57613367613245565b9150505b600061337982610c176126f8565b905080841115613387578093505b505b610c3b83612d9c836127cf565b3390565b6001600160a01b0381166133c05760405162461bcd60e51b8152600401610e2290614d74565b6001546040516001600160a01b038084169216907f8be0079c531659141344cd1fd0a4f28419497f9722a3daafe3b4186f6b6457e090600090a3600180546001600160a01b0319166001600160a01b0392909216919091179055565b60008061343461342e85610c17610e6f565b84613213565b600554600654600954600a54600b549495506000948594939291908288101561345b578297505b818811156134ce57968190039668056bc75e2d6310000082900380891115613481578098505b6134a286610c1768056bc75e2d63100000610c2f878a63ffffffff61275316565b96506134c687610c1783610c2f6134b9878d6131d1565b8e9063ffffffff61275316565b995050613524565b6134ef85610c1768056bc75e2d63100000610c2f8c8963ffffffff61275316565b98509395508593613506848663ffffffff61272e16565b95508689101561351857869850613524565b85891115613524578598505b505050505050505092915050565b600081836135535760405162461bcd60e51b8152600401610e229190614d23565b50600083858161355f57fe5b0495945050505050565b6000818484111561358d5760405162461bcd60e51b8152600401610e229190614d23565b505050900390565b6040516000906135cb9086907f37aa2b7d583612f016e4a4de4292cb015139b3d7762663d06a53964912ea2fb690602001614b07565b604051602081830303815290604052805190602001209050600083600014156135f75760009250613628565b8415613628576001600160a01b03861660009081526011602052604090205461362590839087908690613177565b90505b90556001600160a01b039093166000908152601160205260409020929092555050565b6000806136666301e13380610c2f878763ffffffff61275316565b9050600061368368056bc75e2d631000008363ffffffff6131d116565b90506136a281610c2f8668056bc75e2d6310000063ffffffff61275316565b9695505050505050565b60175460408401516020840151606085015160808601516000946001600160a01b039081169485949093909290918b168514156136fb5760405162461bcd60e51b8152600401610e2290614e54565b34965087156137a657604051632e1a7d4d60e01b81526001600160a01b03871690632e1a7d4d90613730908b90600401614ca4565b600060405180830381600087803b15801561374a57600080fd5b505af115801561375e573d6000803e3d6000fd5b5050505061376c8489613a61565b878311156137a1576016546040805160208101909152600081526137a19187916001600160a01b03909116908b870390613b02565b6137db565b601654604080518082019091526002815261323760f01b60208201526137db9187916001600160a01b03909116908690613b02565b801561381657601654604080518082019091526002815261064760f31b6020820152613816918d9133916001600160a01b0316908590613b62565b81156138f857861580159061382b5750818710155b156138c357856001600160a01b031663d0e30db0836040518263ffffffff1660e01b81526004016000604051808303818588803b15801561386b57600080fd5b505af115801561387f573d6000803e3d6000fd5b5050601654604080518082019091526002815261323960f01b60208201526138b994508993506001600160a01b0390911691508590613b02565b81870396506138f8565b601654604080518082019091526002815261323960f01b60208201526138f891879133916001600160a01b0316908690613b62565b505050505050949350505050565b600081830381831280159061391b5750838113155b80613930575060008312801561393057508381135b610b425760405162461bcd60e51b8152600401610e2290614ea4565b60008261395b57506000610d34565b8260001914801561396f5750600160ff1b82145b1561398c5760405162461bcd60e51b8152600401610e2290614e64565b8282028284828161399957fe5b0514610b425760405162461bcd60e51b8152600401610e2290614e64565b6000816139d65760405162461bcd60e51b8152600401610e2290614ed4565b816000191480156139ea5750600160ff1b83145b15613a075760405162461bcd60e51b8152600401610e2290614e04565b6000828481613a1257fe5b05949350505050565b6000828201818312801590613a305750838112155b80613a455750600083128015613a4557508381125b610b425760405162461bcd60e51b8152600401610e2290614da4565b80471015613a815760405162461bcd60e51b8152600401610e2290614dd4565b6000826001600160a01b031682604051613a9a90614b55565b60006040518083038185875af1925050503d8060008114613ad7576040519150601f19603f3d011682016040523d82523d6000602084013e613adc565b606091505b5050905080613afd5760405162461bcd60e51b8152600401610e2290614db4565b505050565b604051613b5c90859063a9059cbb60e01b90613b249087908790602401614c5b565b60408051601f198184030181529190526020810180516001600160e01b03166001600160e01b03199093169290921790915283613b86565b50505050565b604051610e2b9086906323b872dd60e01b90613b2490889088908890602401614b97565b613b8f83613c71565b613bab5760405162461bcd60e51b8152600401610e2290614d64565b60006060846001600160a01b031684604051613bc79190614b49565b6000604051808303816000865af19150503d8060008114613c04576040519150601f19603f3d011682016040523d82523d6000602084013e613c09565b606091505b5091509150818390613c2e5760405162461bcd60e51b8152600401610e229190614d23565b50805115610e2b5780806020019051613c4a9190810190613ee4565b8390613c695760405162461bcd60e51b8152600401610e229190614d23565b505050505050565b6000813f7fc5d2460186f7233c927e7db2dcc703c0e500b653ca82273b7bfad8045d85a470818114801590610fbf575050151592915050565b60408051608081018252600080825260208201819052918101829052606081019190915290565b6040518061012001604052806000815260200160008152602001600081526020016000815260200160008152602001600081526020016000815260200160008152602001600081525090565b8035610d3481615037565b8051610d3481615037565b8051610d348161504b565b8035610d3481615054565b60008083601f840112613d5b57600080fd5b50813567ffffffffffffffff811115613d7357600080fd5b602083019150836001820283011115613d8b57600080fd5b9250929050565b600082601f830112613da357600080fd5b8135613db6613db182614f42565b614f1b565b91508082526020830160208301858383011115613dd257600080fd5b613ddd838284614fbd565b50505092915050565b8051610d3481615054565b600060208284031215613e0357600080fd5b6000610fbf8484613d1d565b600060208284031215613e2157600080fd5b6000610fbf8484613d28565b60008060408385031215613e4057600080fd5b6000613e4c8585613d1d565b9250506020613e5d85828601613d1d565b9150509250929050565b600080600060608486031215613e7c57600080fd5b6000613e888686613d1d565b9350506020613e9986828701613d1d565b9250506040613eaa86828701613d3e565b9150509250925092565b60008060408385031215613ec757600080fd5b6000613ed38585613d1d565b9250506020613e5d85828601613d3e565b600060208284031215613ef657600080fd5b6000610fbf8484613d33565b600080600080600080600080610100898b031215613f1f57600080fd5b6000613f2b8b8b613d3e565b9850506020613f3c8b828c01613d3e565b9750506040613f4d8b828c01613d3e565b9650506060613f5e8b828c01613d3e565b9550506080613f6f8b828c01613d1d565b94505060a0613f808b828c01613d1d565b93505060c0613f918b828c01613d1d565b92505060e089013567ffffffffffffffff811115613fae57600080fd5b613fba8b828c01613d92565b9150509295985092959890939650565b6000806000806000806000806000806101208b8d031215613fea57600080fd5b6000613ff68d8d613d3e565b9a505060206140078d828e01613d3e565b99505060406140188d828e01613d3e565b98505060606140298d828e01613d3e565b975050608061403a8d828e01613d1d565b96505060a061404b8d828e01613d1d565b95505060c061405c8d828e01613d3e565b94505060e061406d8d828e01613d1d565b9350506101008b013567ffffffffffffffff81111561408b57600080fd5b6140978d828e01613d49565b92509250509295989b9194979a5092959850565b600080600080600080600080610100898b0312156140c857600080fd5b60006140d48b8b613d3e565b98505060206140e58b828c01613d3e565b97505060406140f68b828c01613d3e565b96505060606141078b828c01613d3e565b95505060806141188b828c01613d1d565b94505060a06141298b828c01613d1d565b93505060c0613f918b828c01613d3e565b60006020828403121561414c57600080fd5b813567ffffffffffffffff81111561416357600080fd5b610fbf84828501613d92565b60006020828403121561418157600080fd5b6000610fbf8484613d3e565b60006020828403121561419f57600080fd5b6000610fbf8484613de6565b6000806000606084860312156141c057600080fd5b6000613e888686613d3e565b600080604083850312156141df57600080fd5b6000613ed38585613d3e565b600080604083850312156141fe57600080fd5b600061420a8585613de6565b9250506020613e5d85828601613de6565b60008060006060848603121561423057600080fd5b600061423c8686613d3e565b935050602061424d86828701613d3e565b9250506040613eaa86828701613d1d565b6000806000806080858703121561427457600080fd5b60006142808787613d3e565b945050602061429187828801613d3e565b93505060406142a287828801613d3e565b92505060606142b387828801613d1d565b91505092959194509250565b60008060008060008060c087890312156142d857600080fd5b60006142e48989613de6565b96505060206142f589828a01613de6565b955050604061430689828a01613de6565b945050606061431789828a01613de6565b935050608061432889828a01613de6565b92505060a061433989828a01613de6565b9150509295509295509295565b60006143528383614410565b505060200190565b61436381614fac565b82525050565b61436381614f7d565b61436361437e82614f7d565b614ff5565b600061438e82614f70565b6143988185614f74565b93506143a383614f6a565b8060005b838110156143d15781516143bb8882614346565b97506143c683614f6a565b9250506001016143a7565b509495945050505050565b61436381614f88565b6143636143f182614f88565b615000565b61436381610d4c565b61436361440b82610d4c565b610d4c565b61436381614f8d565b61436361440b82614f8d565b600061443082614f70565b61443a8185614f74565b935061444a818560208601614fc9565b61445381615021565b9093019392505050565b600061446882614f70565b6144728185610c3f565b9350614482818560208601614fc9565b9290920192915050565b6000614499601483614f74565b733932b2b73a3930b731bc903b34b7b630ba34b7b760611b815260200192915050565b60006144c9600283614f74565b61031360f41b815260200192915050565b60006144e7600283614f74565b61313560f01b815260200192915050565b6000614505601e83614f74565b7f63616c6c20746f2061206e6f6e2d636f6e747261637420616464726573730000815260200192915050565b600061453e602683614f74565b7f4f776e61626c653a206e6577206f776e657220697320746865207a65726f206181526564647265737360d01b602082015260400192915050565b6000614586601d83614f74565b7f656e7472792070726963652061626f766520746865206d696e696d756d000000815260200192915050565b60006145bf601b83614f74565b7f536166654d6174683a206164646974696f6e206f766572666c6f770000000000815260200192915050565b60006145f8602183614f74565b7f5369676e6564536166654d6174683a206164646974696f6e206f766572666c6f8152607760f81b602082015260400192915050565b600061463b603a83614f74565b7f416464726573733a20756e61626c6520746f2073656e642076616c75652c207281527f6563697069656e74206d61792068617665207265766572746564000000000000602082015260400192915050565b600061469a600183614f74565b603760f81b815260200192915050565b60006146b7601d83614f74565b7f416464726573733a20696e73756666696369656e742062616c616e6365000000815260200192915050565b60006146f0600283614f74565b610c8d60f21b815260200192915050565b600061470e600283614f74565b61313160f01b815260200192915050565b600061472c602183614f74565b7f5369676e6564536166654d6174683a206469766973696f6e206f766572666c6f8152607760f81b602082015260400192915050565b600061476f600283614f74565b61189960f11b815260200192915050565b600061478d600283614f74565b61323560f01b815260200192915050565b60006147ab602183614f74565b7f536166654d6174683a206d756c7469706c69636174696f6e206f766572666c6f8152607760f81b602082015260400192915050565b60006147ee600c83614f74565b6b1d5b985d5d1a1bdc9a5e995960a21b815260200192915050565b6000614816600283614f74565b61191b60f11b815260200192915050565b6000614834602783614f74565b7f5369676e6564536166654d6174683a206d756c7469706c69636174696f6e206f815266766572666c6f7760c81b602082015260400192915050565b600061487d601383614f74565b721c1c9a5b98da5c185b081d1bdbc81cdb585b1b606a1b815260200192915050565b60006148ac601d83614f74565b7f696e76616c6964207261746520636f6c6c61746572616c20746f6b656e000000815260200192915050565b6000610d34600083610c3f565b60006148f2600c83614f74565b6b1b9bdb9499595b9d1c985b9d60a21b815260200192915050565b600061491a602483614f74565b7f5369676e6564536166654d6174683a207375627472616374696f6e206f766572815263666c6f7760e01b602082015260400192915050565b6000614960601883614f74565b7f34303120757365206f66206578697374696e67206c6f616e0000000000000000815260200192915050565b6000614999600183614f74565b601b60f91b815260200192915050565b60006149b6602083614f74565b7f5369676e6564536166654d6174683a206469766973696f6e206279207a65726f815260200192915050565b805160808301906149f38482614369565b506020820151614a066020850182614369565b506040820151614a196040850182614369565b506060820151613b5c6060850182614369565b8051610120830190614a3e84826143f6565b506020820151614a5160208501826143f6565b506040820151614a6460408501826143f6565b506060820151614a7760608501826143f6565b506080820151614a8a60808501826143f6565b5060a0820151614a9d60a08501826143f6565b5060c0820151614ab060c08501826143f6565b5060e0820151614ac360e08501826143f6565b50610100820151613b5c6101008501826143f6565b61436381614fa6565b6000614aed8285614372565b601482019150614afd82846143e5565b5060010192915050565b6000614b138285614372565b601482019150614b2382846143ff565b5060200192915050565b6000614b398285614419565b600482019150614b2382846143ff565b6000610b42828461445d565b6000610d34826148d8565b60208101610d348284614369565b60208101610d34828461435a565b60408101614b8a8285614369565b610b426020830184614369565b60608101614ba58286614369565b614bb26020830185614369565b610fbf60408301846143f6565b60a08101614bcd8288614369565b614bda6020830187614369565b614be760408301866143f6565b614bf460608301856143f6565b6136a260808301846143dc565b60c08101614c0f8289614369565b614c1c6020830188614369565b614c2960408301876143f6565b614c3660608301866143f6565b614c4360808301856143f6565b614c5060a08301846143f6565b979650505050505050565b60408101614c698285614369565b610b4260208301846143f6565b60408082528101614c878185614383565b9050610b4260208301846143f6565b60208101610d3482846143dc565b60208101610d3482846143f6565b6102408101614cc1828a6143f6565b614cce60208301896143f6565b614cdb60408301886143dc565b614ce860608301876143f6565b614cf560808301866149e2565b614d03610100830185614a2c565b818103610220830152614d168184614425565b9998505050505050505050565b60208082528101610b428184614425565b60208082528101610d348161448c565b60208082528101610d34816144bc565b60208082528101610d34816144da565b60208082528101610d34816144f8565b60208082528101610d3481614531565b60208082528101610d3481614579565b60208082528101610d34816145b2565b60208082528101610d34816145eb565b60208082528101610d348161462e565b60208082528101610d348161468d565b60208082528101610d34816146aa565b60208082528101610d34816146e3565b60208082528101610d3481614701565b60208082528101610d348161471f565b60208082528101610d3481614762565b60208082528101610d3481614780565b60208082528101610d348161479e565b60208082528101610d34816147e1565b60208082528101610d3481614809565b60208082528101610d3481614827565b60208082528101610d3481614870565b60208082528101610d348161489f565b60208082528101610d34816148e5565b60208082528101610d348161490d565b60208082528101610d3481614953565b60208082528101610d348161498c565b60208082528101610d34816149a9565b60408101614c6982856143f6565b60608101614f0082866143f6565b614bb260208301856143f6565b60208101610d348284614ad8565b60405181810167ffffffffffffffff81118282101715614f3a57600080fd5b604052919050565b600067ffffffffffffffff821115614f5957600080fd5b506020601f91909101601f19160190565b60200190565b5190565b90815260200190565b6000610d3482614f9a565b151590565b6001600160e01b03191690565b6001600160a01b031690565b60ff1690565b6000610d34826000610d3482614f7d565b82818337506000910152565b60005b83811015614fe4578181015183820152602001614fcc565b83811115613b5c5750506000910152565b6000610d348261500b565b6000610d3482615016565b6000610d3482615031565b6000610d348261502b565b601f01601f191690565b60f81b90565b60601b90565b61504081614f7d565b811461258e57600080fd5b61504081614f88565b61504081610d4c56fea365627a7a72315820280499a116e7eadb38aa8729728c15a657f6bfd6d3ab49666a76a0cfc6e4b7686c6578706572696d656e74616cf564736f6c63430005110040",
  "devdoc": {
    "methods": {
      "allowance(address,address)": {
        "params": {
          "_owner": "The account owner of the iTokens.",
          "_spender": "The account allowed to send the iTokens."
        },
        "return": "The number of iTokens an account is allowing the spender  to send on its behalf."
      },
      "approve(address,uint256)": {
        "params": {
          "_spender": "The account address that will be able to spend the tokens.",
          "_value": "The amount of tokens allowed to spend."
        }
      },
      "assetBalanceOf(address)": {
        "return": "The user's balance of underlying token."
      },
      "avgBorrowInterestRate()": {
        "return": "The average borrow interest."
      },
      "balanceOf(address)": {
        "params": {
          "_owner": "The account owner of the iTokens."
        },
        "return": "The number of iTokens an account owns."
      },
      "borrow(bytes32,uint256,uint256,uint256,address,address,address,bytes)": {
        "params": {
          "borrower": "The one paying for the collateral.",
          "collateralTokenAddress": "The address of the token to be used as  collateral. Cannot be the loan token address.",
          "collateralTokenSent": "The amount of collateral tokens provided by the user.  (150% of the withdrawn amount worth in collateral tokens).",
          "initialLoanDuration": "The duration of the loan in seconds.  If the loan is not paid back until then, it'll need to be rolled over.",
          "loanId": "The ID of the loan, 0 for a new loan.",
          "receiver": "The one receiving the withdrawn amount.",
          "withdrawAmount": "The amount to be withdrawn (actually borrowed)."
        },
        "return": "New principal and new collateral added to loan."
      },
      "borrowInterestRate()": {
        "return": "The borrow interest rate."
      },
      "calculateSupplyInterestRate(uint256,uint256)": {
        "params": {
          "assetBorrow": "The amount of loan tokens on debt.",
          "assetSupply": "The amount of loan tokens supplied."
        },
        "return": "The next supply interest adjustment."
      },
      "checkPriceDivergence(uint256,address,uint256)": {
        "params": {
          "collateralTokenAddress": "The token address of collateral.",
          "loanTokenSent": "The amount of deposit.",
          "minEntryPrice": "Value of loan token in collateral"
        }
      },
      "checkpointPrice(address)": {
        "params": {
          "_user": "The user account as the mapping index."
        },
        "return": "The price on the checkpoint for this user."
      },
      "getBorrowAmountForDeposit(uint256,uint256,address)": {
        "params": {
          "collateralTokenAddress": "The token address of collateral.",
          "depositAmount": "The amount of deposit.",
          "initialLoanDuration": "The duration of the loan."
        },
        "return": "The amount of borrow allowed."
      },
      "getDepositAmountForBorrow(uint256,uint256,address)": {
        "params": {
          "borrowAmount": "The amount of borrow.",
          "collateralTokenAddress": "The token address of collateral.",
          "initialLoanDuration": "The duration of the loan."
        },
        "return": "The amount of deposit required."
      },
      "getEstimatedMarginDetails(uint256,uint256,uint256,address)": {
        "params": {
          "collateralTokenAddress": "The token address of collateral.",
          "collateralTokenSent": "The amount of collateral tokens provided by the user.",
          "leverageAmount": "The multiple of exposure: 2x ... 5x. The leverage with 18 decimals.",
          "loanTokenSent": "The number of loan tokens provided by the user."
        },
        "return": "The principal, the collateral and the interestRate."
      },
      "getListFunctionSignatures()": {
        "details": "This function will return the list of function signature in this contract that are available for public call Then this function will be called by LoanTokenLogicBeacon, and the function signatures will be registred in LoanTokenLogicBeacon.To save the gas we can just directly return the list of function signature from this pure function. The other workaround (fancy way) is we can create a storage for the list of the function signature, and then we can store each function signature to that storage from the constructor. Then, in this function we just need to return that storage variable.",
        "return": "The list of function signatures (bytes4[])"
      },
      "getMaxEscrowAmount(uint256)": {
        "details": "maxEscrowAmount = liquidity * (100 - interestForDuration) / 100",
        "params": {
          "leverageAmount": "The chosen multiplier with 18 decimals."
        }
      },
      "isOwner()": {
        "details": "Returns true if the caller is the current owner."
      },
      "marginTrade(bytes32,uint256,uint256,uint256,address,address,uint256,bytes)": {
        "params": {
          "collateralTokenAddress": "The token address of collateral.",
          "collateralTokenSent": "The amount of collateral tokens provided by the user.",
          "leverageAmount": "The multiple of exposure: 2x ... 5x. The leverage with 18 decimals.",
          "loanDataBytes": "Additional loan data (not in use for token swaps).",
          "loanId": "The ID of the loan, 0 for a new loan.",
          "loanTokenSent": "The number of loan tokens provided by the user.",
          "minEntryPrice": "Value of loan token in collateral.",
          "trader": "The account that performs this trade."
        },
        "return": "New principal and new collateral added to trade."
      },
      "marginTradeAffiliate(bytes32,uint256,uint256,uint256,address,address,uint256,address,bytes)": {
        "params": {
          "affiliateReferrer": "The address of the referrer from affiliates program.",
          "collateralTokenAddress": "The token address of collateral.",
          "collateralTokenSent": "The amount of collateral tokens provided by the user.",
          "leverageAmount": "The multiple of exposure: 2x ... 5x. The leverage with 18 decimals.",
          "loanDataBytes": "Additional loan data (not in use for token swaps).",
          "loanId": "The ID of the loan, 0 for a new loan.",
          "loanTokenSent": "The number of loan tokens provided by the user.",
          "minEntryPrice": "Value of loan token in collateral.",
          "trader": "The account that performs this trade."
        },
        "return": "New principal and new collateral added to trade."
      },
      "marketLiquidity()": {
        "return": "The market liquidity."
      },
      "nextBorrowInterestRate(uint256)": {
        "params": {
          "borrowAmount": "The amount of tokens to borrow."
        },
        "return": "The next borrow interest rate."
      },
      "nextSupplyInterestRate(uint256)": {
        "params": {
          "supplyAmount": "The amount of tokens supplied."
        },
        "return": "Interest that lenders are currently receiving when supplying a given amount of tokens to the pool."
      },
      "owner()": {
        "details": "Returns the address of the current owner."
      },
      "profitOf(address)": {
        "params": {
          "user": "The user address."
        },
        "return": "The profit of a user."
      },
      "supplyInterestRate()": {
        "return": "Interest that lenders are currently receiving when supplying to the pool."
      },
      "tokenPrice()": {
        "return": "The loan token price."
      },
      "totalAssetBorrow()": {
        "return": "The total amount of loan tokens on debt."
      },
      "totalAssetSupply()": {
        "details": "Wrapper for internal _totalAssetSupply function.",
        "return": "The total amount of loan tokens on supply."
      },
      "totalSupply()": {
        "return": "The total number of iTokens in existence as of now."
      },
      "totalSupplyInterestRate(uint256)": {
        "params": {
          "assetSupply": "The amount of loan tokens supplied."
        },
        "return": "Interest that lenders are currently receiving when supplying a given amount of loan tokens to the pool."
      },
      "transfer(address,uint256)": {
        "params": {
          "_to": "The recipient of the tokens.",
          "_value": "The amount of tokens sent."
        },
        "return": "Success true/false."
      },
      "transferFrom(address,address,uint256)": {
        "return": "A boolean value indicating whether the operation succeeded."
      },
      "transferOwnership(address)": {
        "details": "Transfers ownership of the contract to a new account (`newOwner`). Can only be called by the current owner."
      }
    }
  },
  "userdoc": {
    "methods": {
      "allowance(address,address)": {
        "notice": "Get the amount of iTokens allowed to be spent by a  given account on behalf of the owner."
      },
      "approve(address,uint256)": {
        "notice": "Set an amount as the allowance of `spender` over the caller's tokens.     * Returns a boolean value indicating whether the operation succeeded.     * IMPORTANT: Beware that changing an allowance with this method brings the risk that someone may use both the old and the new allowance by unfortunate transaction ordering. One possible solution to mitigate this race condition is to first reduce the spender's allowance to 0 and set the desired value afterwards: https://github.com/ethereum/EIPs/issues/20#issuecomment-263524729     * Emits an {Approval} event."
      },
      "assetBalanceOf(address)": {
        "notice": "Get loan token balance."
      },
      "avgBorrowInterestRate()": {
        "notice": "Wrapper for average borrow interest."
      },
      "balanceOf(address)": {
        "notice": "Get the amount of iTokens owned by an account."
      },
      "borrow(bytes32,uint256,uint256,uint256,address,address,address,bytes)": {
        "notice": "Borrow funds from the pool. The underlying loan token may not be used as collateral."
      },
      "borrowInterestRate()": {
        "notice": "Get borrow interest rate. The minimum rate the next base protocol borrower will receive for variable-rate loans."
      },
      "calculateSupplyInterestRate(uint256,uint256)": {
        "notice": "Compute the next supply interest adjustment."
      },
      "checkPriceDivergence(uint256,address,uint256)": {
        "notice": "Check if entry price lies above a minimum"
      },
      "checkpointPrice(address)": {
        "notice": "Getter for the price checkpoint mapping."
      },
      "getBorrowAmountForDeposit(uint256,uint256,address)": {
        "notice": "Calculate the borrow allowed for a given deposit.     * The function for doing over-collateralized borrows against loan tokens expects a minimum amount of collateral be sent to satisfy collateral requirements of the loan, for borrow amount, interest rate, and initial loan duration. To determine appropriate values to pass to this function for a given loan, `getDepositAmountForBorrow` and 'getBorrowAmountForDeposit` are required."
      },
      "getDepositAmountForBorrow(uint256,uint256,address)": {
        "notice": "Calculate the deposit required to a given borrow.     * The function for doing over-collateralized borrows against loan tokens expects a minimum amount of collateral be sent to satisfy collateral requirements of the loan, for borrow amount, interest rate, and initial loan duration. To determine appropriate values to pass to this function for a given loan, `getDepositAmountForBorrow` and 'getBorrowAmountForDeposit` are required."
      },
      "getEstimatedMarginDetails(uint256,uint256,uint256,address)": {
        "notice": "Get margin information on a trade."
      },
      "getListFunctionSignatures()": {
        "notice": "This function is MANDATORY, which will be called by LoanTokenLogicBeacon and be registered. Every new public function, the signature needs to be included in this function."
      },
      "getMaxEscrowAmount(uint256)": {
        "notice": "Compute the maximum deposit amount under current market conditions."
      },
      "marginTrade(bytes32,uint256,uint256,uint256,address,address,uint256,bytes)": {
        "notice": "Borrow and immediately get into a position.     * Trading on margin is used to increase an investor's buying power. Margin is the amount of money required to open a position, while leverage is the multiple of exposure to account equity.     * Leverage allows you to trade positions LARGER than the amount of money in your trading account. Leverage is expressed as a ratio.     * When trading on margin, investors first deposit some token that then serves as collateral for the loan, and then pay ongoing interest payments on the money they borrow.     * Margin trading = taking a loan and swapping it: In order to open a margin trade position, 1.- The user calls marginTrade on the loan token contract. 2.- The loan token contract provides the loan and sends it for processing   to the protocol proxy contract. 3.- The protocol proxy contract uses the module LoanOpening to create a   position and swaps the loan tokens to collateral tokens. 4.- The Sovryn Swap network looks up the correct converter and swaps the   tokens. If successful, the position is being held by the protocol proxy contract, which is why positions need to be closed at the protocol proxy contract."
      },
      "marginTradeAffiliate(bytes32,uint256,uint256,uint256,address,address,uint256,address,bytes)": {
        "notice": "Wrapper for marginTrade invoking setAffiliatesReferrer to track  referral trade by affiliates program."
      },
      "marketLiquidity()": {
        "notice": "Get current liquidity. A part of total funds supplied are borrowed. Liquidity = supply - borrow"
      },
      "nextBorrowInterestRate(uint256)": {
        "notice": "Public wrapper for internal call."
      },
      "nextSupplyInterestRate(uint256)": {
        "notice": "Get interest rate w/ added supply."
      },
      "profitOf(address)": {
        "notice": "Wrapper for internal _profitOf low level function."
      },
      "supplyInterestRate()": {
        "notice": "Get interest rate."
      },
      "tokenPrice()": {
        "notice": "Loan token price calculation considering unpaid interests."
      },
      "totalAssetBorrow()": {
        "notice": "Get the total amount of loan tokens on debt. Calls protocol getTotalPrincipal function. In the context of borrowing, principal is the initial size of a loan. It can also be the amount still owed on a loan. If you take out a $50,000 mortgage, for example, the principal is $50,000. If you pay off $30,000, the principal balance now consists of the remaining $20,000."
      },
      "totalAssetSupply()": {
        "notice": "Get the total amount of loan tokens on supply."
      },
      "totalSupply()": {
        "notice": "Get the total supply of iTokens."
      },
      "totalSupplyInterestRate(uint256)": {
        "notice": "Get interest rate w/ added supply assets."
      },
      "transfer(address,uint256)": {
        "notice": "Transfer tokens wrapper. Sets token owner the msg.sender. Sets maximun allowance uint256(-1) to ensure tokens are always transferred.     * If the recipient (_to) is a vesting contract address, transfer the token to the tokenOwner of the vesting contract itself."
      },
      "transferFrom(address,address,uint256)": {
        "notice": "Moves `_value` loan tokens from `_from` to `_to` using the allowance mechanism. Calls internal _internalTransferFrom function."
      }
    }
  },
  "storageLayout": {
    "storage": [
      {
        "astId": 54500,
        "contract": "contracts/connectors/loantoken/modules/beaconLogicWRBTC/LoanTokenLogicWrbtc.sol:LoanTokenLogicWrbtc",
        "label": "reentrancyLock",
        "offset": 0,
        "slot": "0",
        "type": "t_uint256"
      },
      {
        "astId": 54316,
        "contract": "contracts/connectors/loantoken/modules/beaconLogicWRBTC/LoanTokenLogicWrbtc.sol:LoanTokenLogicWrbtc",
        "label": "_owner",
        "offset": 0,
        "slot": "1",
        "type": "t_address"
      },
      {
        "astId": 483,
        "contract": "contracts/connectors/loantoken/modules/beaconLogicWRBTC/LoanTokenLogicWrbtc.sol:LoanTokenLogicWrbtc",
        "label": "name",
        "offset": 0,
        "slot": "2",
        "type": "t_string_storage"
      },
      {
        "astId": 485,
        "contract": "contracts/connectors/loantoken/modules/beaconLogicWRBTC/LoanTokenLogicWrbtc.sol:LoanTokenLogicWrbtc",
        "label": "symbol",
        "offset": 0,
        "slot": "3",
        "type": "t_string_storage"
      },
      {
        "astId": 487,
        "contract": "contracts/connectors/loantoken/modules/beaconLogicWRBTC/LoanTokenLogicWrbtc.sol:LoanTokenLogicWrbtc",
        "label": "decimals",
        "offset": 0,
        "slot": "4",
        "type": "t_uint8"
      },
      {
        "astId": 489,
        "contract": "contracts/connectors/loantoken/modules/beaconLogicWRBTC/LoanTokenLogicWrbtc.sol:LoanTokenLogicWrbtc",
        "label": "loanTokenAddress",
        "offset": 1,
        "slot": "4",
        "type": "t_address"
      },
      {
        "astId": 491,
        "contract": "contracts/connectors/loantoken/modules/beaconLogicWRBTC/LoanTokenLogicWrbtc.sol:LoanTokenLogicWrbtc",
        "label": "baseRate",
        "offset": 0,
        "slot": "5",
        "type": "t_uint256"
      },
      {
        "astId": 493,
        "contract": "contracts/connectors/loantoken/modules/beaconLogicWRBTC/LoanTokenLogicWrbtc.sol:LoanTokenLogicWrbtc",
        "label": "rateMultiplier",
        "offset": 0,
        "slot": "6",
        "type": "t_uint256"
      },
      {
        "astId": 495,
        "contract": "contracts/connectors/loantoken/modules/beaconLogicWRBTC/LoanTokenLogicWrbtc.sol:LoanTokenLogicWrbtc",
        "label": "lowUtilBaseRate",
        "offset": 0,
        "slot": "7",
        "type": "t_uint256"
      },
      {
        "astId": 497,
        "contract": "contracts/connectors/loantoken/modules/beaconLogicWRBTC/LoanTokenLogicWrbtc.sol:LoanTokenLogicWrbtc",
        "label": "lowUtilRateMultiplier",
        "offset": 0,
        "slot": "8",
        "type": "t_uint256"
      },
      {
        "astId": 499,
        "contract": "contracts/connectors/loantoken/modules/beaconLogicWRBTC/LoanTokenLogicWrbtc.sol:LoanTokenLogicWrbtc",
        "label": "targetLevel",
        "offset": 0,
        "slot": "9",
        "type": "t_uint256"
      },
      {
        "astId": 501,
        "contract": "contracts/connectors/loantoken/modules/beaconLogicWRBTC/LoanTokenLogicWrbtc.sol:LoanTokenLogicWrbtc",
        "label": "kinkLevel",
        "offset": 0,
        "slot": "10",
        "type": "t_uint256"
      },
      {
        "astId": 503,
        "contract": "contracts/connectors/loantoken/modules/beaconLogicWRBTC/LoanTokenLogicWrbtc.sol:LoanTokenLogicWrbtc",
        "label": "maxScaleRate",
        "offset": 0,
        "slot": "11",
        "type": "t_uint256"
      },
      {
        "astId": 505,
        "contract": "contracts/connectors/loantoken/modules/beaconLogicWRBTC/LoanTokenLogicWrbtc.sol:LoanTokenLogicWrbtc",
        "label": "_flTotalAssetSupply",
        "offset": 0,
        "slot": "12",
        "type": "t_uint256"
      },
      {
        "astId": 507,
        "contract": "contracts/connectors/loantoken/modules/beaconLogicWRBTC/LoanTokenLogicWrbtc.sol:LoanTokenLogicWrbtc",
        "label": "checkpointSupply",
        "offset": 0,
        "slot": "13",
        "type": "t_uint256"
      },
      {
        "astId": 509,
        "contract": "contracts/connectors/loantoken/modules/beaconLogicWRBTC/LoanTokenLogicWrbtc.sol:LoanTokenLogicWrbtc",
        "label": "initialPrice",
        "offset": 0,
        "slot": "14",
        "type": "t_uint256"
      },
      {
        "astId": 511,
        "contract": "contracts/connectors/loantoken/modules/beaconLogicWRBTC/LoanTokenLogicWrbtc.sol:LoanTokenLogicWrbtc",
        "label": "lastSettleTime_",
        "offset": 0,
        "slot": "15",
        "type": "t_uint88"
      },
      {
        "astId": 515,
        "contract": "contracts/connectors/loantoken/modules/beaconLogicWRBTC/LoanTokenLogicWrbtc.sol:LoanTokenLogicWrbtc",
        "label": "loanParamsIds",
        "offset": 0,
        "slot": "16",
        "type": "t_mapping(t_uint256,t_bytes32)"
      },
      {
        "astId": 519,
        "contract": "contracts/connectors/loantoken/modules/beaconLogicWRBTC/LoanTokenLogicWrbtc.sol:LoanTokenLogicWrbtc",
        "label": "checkpointPrices_",
        "offset": 0,
        "slot": "17",
        "type": "t_mapping(t_address,t_uint256)"
      },
      {
        "astId": 523,
        "contract": "contracts/connectors/loantoken/modules/beaconLogicWRBTC/LoanTokenLogicWrbtc.sol:LoanTokenLogicWrbtc",
        "label": "transactionLimit",
        "offset": 0,
        "slot": "18",
        "type": "t_mapping(t_address,t_uint256)"
      },
      {
        "astId": 236,
        "contract": "contracts/connectors/loantoken/modules/beaconLogicWRBTC/LoanTokenLogicWrbtc.sol:LoanTokenLogicWrbtc",
        "label": "balances",
        "offset": 0,
        "slot": "19",
        "type": "t_mapping(t_address,t_uint256)"
      },
      {
        "astId": 242,
        "contract": "contracts/connectors/loantoken/modules/beaconLogicWRBTC/LoanTokenLogicWrbtc.sol:LoanTokenLogicWrbtc",
        "label": "allowed",
        "offset": 0,
        "slot": "20",
        "type": "t_mapping(t_address,t_mapping(t_address,t_uint256))"
      },
      {
        "astId": 244,
        "contract": "contracts/connectors/loantoken/modules/beaconLogicWRBTC/LoanTokenLogicWrbtc.sol:LoanTokenLogicWrbtc",
        "label": "totalSupply_",
        "offset": 0,
        "slot": "21",
        "type": "t_uint256"
      },
      {
        "astId": 3991,
        "contract": "contracts/connectors/loantoken/modules/beaconLogicWRBTC/LoanTokenLogicWrbtc.sol:LoanTokenLogicWrbtc",
        "label": "sovrynContractAddress",
        "offset": 0,
        "slot": "22",
        "type": "t_address"
      },
      {
        "astId": 3993,
        "contract": "contracts/connectors/loantoken/modules/beaconLogicWRBTC/LoanTokenLogicWrbtc.sol:LoanTokenLogicWrbtc",
        "label": "wrbtcTokenAddress",
        "offset": 0,
        "slot": "23",
        "type": "t_address"
      },
      {
        "astId": 3995,
        "contract": "contracts/connectors/loantoken/modules/beaconLogicWRBTC/LoanTokenLogicWrbtc.sol:LoanTokenLogicWrbtc",
        "label": "target_",
        "offset": 0,
        "slot": "24",
        "type": "t_address"
      },
      {
        "astId": 3997,
        "contract": "contracts/connectors/loantoken/modules/beaconLogicWRBTC/LoanTokenLogicWrbtc.sol:LoanTokenLogicWrbtc",
        "label": "admin",
        "offset": 0,
        "slot": "25",
        "type": "t_address"
      },
      {
        "astId": 3999,
        "contract": "contracts/connectors/loantoken/modules/beaconLogicWRBTC/LoanTokenLogicWrbtc.sol:LoanTokenLogicWrbtc",
        "label": "earlyAccessToken",
        "offset": 0,
        "slot": "26",
        "type": "t_address"
      },
      {
        "astId": 4001,
        "contract": "contracts/connectors/loantoken/modules/beaconLogicWRBTC/LoanTokenLogicWrbtc.sol:LoanTokenLogicWrbtc",
        "label": "pauser",
        "offset": 0,
        "slot": "27",
        "type": "t_address"
      },
      {
        "astId": 4003,
        "contract": "contracts/connectors/loantoken/modules/beaconLogicWRBTC/LoanTokenLogicWrbtc.sol:LoanTokenLogicWrbtc",
        "label": "liquidityMiningAddress",
        "offset": 0,
        "slot": "28",
        "type": "t_address"
      },
      {
        "astId": 4005,
        "contract": "contracts/connectors/loantoken/modules/beaconLogicWRBTC/LoanTokenLogicWrbtc.sol:LoanTokenLogicWrbtc",
        "label": "stakingContractAddress",
        "offset": 0,
        "slot": "29",
        "type": "t_address"
      }
    ],
    "types": {
      "t_address": {
        "encoding": "inplace",
        "label": "address",
        "numberOfBytes": "20"
      },
      "t_bytes32": {
        "encoding": "inplace",
        "label": "bytes32",
        "numberOfBytes": "32"
      },
      "t_mapping(t_address,t_mapping(t_address,t_uint256))": {
        "encoding": "mapping",
        "key": "t_address",
        "label": "mapping(address => mapping(address => uint256))",
        "numberOfBytes": "32",
        "value": "t_mapping(t_address,t_uint256)"
      },
      "t_mapping(t_address,t_uint256)": {
        "encoding": "mapping",
        "key": "t_address",
        "label": "mapping(address => uint256)",
        "numberOfBytes": "32",
        "value": "t_uint256"
      },
      "t_mapping(t_uint256,t_bytes32)": {
        "encoding": "mapping",
        "key": "t_uint256",
        "label": "mapping(uint256 => bytes32)",
        "numberOfBytes": "32",
        "value": "t_bytes32"
      },
      "t_string_storage": {
        "encoding": "bytes",
        "label": "string",
        "numberOfBytes": "32"
      },
      "t_uint256": {
        "encoding": "inplace",
        "label": "uint256",
        "numberOfBytes": "32"
      },
      "t_uint8": {
        "encoding": "inplace",
        "label": "uint8",
        "numberOfBytes": "1"
      },
      "t_uint88": {
        "encoding": "inplace",
        "label": "uint88",
        "numberOfBytes": "11"
      }
    }
  }
}