{
  "address": "0xC8cD4B96E48213106Daa0E889B0cBBC33d9d58e3",
  "abi": [
    {
      "inputs": [],
      "stateMutability": "nonpayable",
      "type": "constructor"
    },
    {
      "inputs": [],
      "name": "NonApprovable",
      "type": "error"
    },
    {
      "inputs": [],
      "name": "NonReceivable",
      "type": "error"
    },
    {
      "inputs": [],
      "name": "NonTransferable",
      "type": "error"
    },
    {
      "inputs": [
        {
          "internalType": "string",
          "name": "param",
          "type": "string"
        }
      ],
      "name": "NotAllowedZeroAddressForParam",
      "type": "error"
    },
    {
      "anonymous": false,
      "inputs": [
        {
          "indexed": true,
          "internalType": "address",
          "name": "owner",
          "type": "address"
        },
        {
          "indexed": true,
          "internalType": "address",
          "name": "spender",
          "type": "address"
        },
        {
          "indexed": false,
          "internalType": "uint256",
          "name": "value",
          "type": "uint256"
        }
      ],
      "name": "Approval",
      "type": "event"
    },
    {
      "anonymous": false,
      "inputs": [
        {
          "indexed": false,
          "internalType": "uint8",
          "name": "version",
          "type": "uint8"
        }
      ],
      "name": "Initialized",
      "type": "event"
    },
    {
      "anonymous": false,
      "inputs": [
        {
          "indexed": true,
          "internalType": "address",
          "name": "previousOwner",
          "type": "address"
        },
        {
          "indexed": true,
          "internalType": "address",
          "name": "newOwner",
          "type": "address"
        }
      ],
      "name": "OwnershipTransferred",
      "type": "event"
    },
    {
      "anonymous": false,
      "inputs": [
        {
          "indexed": true,
          "internalType": "bytes32",
          "name": "role",
          "type": "bytes32"
        },
        {
          "indexed": true,
          "internalType": "bytes32",
          "name": "previousAdminRole",
          "type": "bytes32"
        },
        {
          "indexed": true,
          "internalType": "bytes32",
          "name": "newAdminRole",
          "type": "bytes32"
        }
      ],
      "name": "RoleAdminChanged",
      "type": "event"
    },
    {
      "anonymous": false,
      "inputs": [
        {
          "indexed": true,
          "internalType": "bytes32",
          "name": "role",
          "type": "bytes32"
        },
        {
          "indexed": true,
          "internalType": "address",
          "name": "account",
          "type": "address"
        },
        {
          "indexed": true,
          "internalType": "address",
          "name": "sender",
          "type": "address"
        }
      ],
      "name": "RoleGranted",
      "type": "event"
    },
    {
      "anonymous": false,
      "inputs": [
        {
          "indexed": true,
          "internalType": "bytes32",
          "name": "role",
          "type": "bytes32"
        },
        {
          "indexed": true,
          "internalType": "address",
          "name": "account",
          "type": "address"
        },
        {
          "indexed": true,
          "internalType": "address",
          "name": "sender",
          "type": "address"
        }
      ],
      "name": "RoleRevoked",
      "type": "event"
    },
    {
      "anonymous": false,
      "inputs": [
        {
          "indexed": true,
          "internalType": "address",
          "name": "from",
          "type": "address"
        },
        {
          "indexed": true,
          "internalType": "address",
          "name": "to",
          "type": "address"
        },
        {
          "indexed": false,
          "internalType": "uint256",
          "name": "value",
          "type": "uint256"
        }
      ],
      "name": "Transfer",
      "type": "event"
    },
    {
      "inputs": [],
      "name": "AUTHORISED_MINTER_ROLE",
      "outputs": [
        {
          "internalType": "bytes32",
          "name": "",
          "type": "bytes32"
        }
      ],
      "stateMutability": "view",
      "type": "function"
    },
    {
      "inputs": [],
      "name": "DEFAULT_ADMIN_ROLE",
      "outputs": [
        {
          "internalType": "bytes32",
          "name": "",
          "type": "bytes32"
        }
      ],
      "stateMutability": "view",
      "type": "function"
    },
    {
      "inputs": [
        {
          "internalType": "address",
          "name": "owner",
          "type": "address"
        },
        {
          "internalType": "address",
          "name": "spender",
          "type": "address"
        }
      ],
      "name": "allowance",
      "outputs": [
        {
          "internalType": "uint256",
          "name": "",
          "type": "uint256"
        }
      ],
      "stateMutability": "view",
      "type": "function"
    },
    {
      "inputs": [
        {
          "internalType": "address",
          "name": "",
          "type": "address"
        },
        {
          "internalType": "uint256",
          "name": "",
          "type": "uint256"
        }
      ],
      "name": "approve",
      "outputs": [
        {
          "internalType": "bool",
          "name": "",
          "type": "bool"
        }
      ],
      "stateMutability": "nonpayable",
      "type": "function"
    },
    {
      "inputs": [
        {
          "internalType": "address",
          "name": "account",
          "type": "address"
        }
      ],
      "name": "balanceOf",
      "outputs": [
        {
          "internalType": "uint256",
          "name": "",
          "type": "uint256"
        }
      ],
      "stateMutability": "view",
      "type": "function"
    },
    {
      "inputs": [],
      "name": "cap",
      "outputs": [
        {
          "internalType": "uint256",
          "name": "",
          "type": "uint256"
        }
      ],
      "stateMutability": "view",
      "type": "function"
    },
    {
      "inputs": [],
      "name": "decimals",
      "outputs": [
        {
          "internalType": "uint8",
          "name": "",
          "type": "uint8"
        }
      ],
      "stateMutability": "pure",
      "type": "function"
    },
    {
      "inputs": [
        {
          "internalType": "address",
          "name": "spender",
          "type": "address"
        },
        {
          "internalType": "uint256",
          "name": "subtractedValue",
          "type": "uint256"
        }
      ],
      "name": "decreaseAllowance",
      "outputs": [
        {
          "internalType": "bool",
          "name": "",
          "type": "bool"
        }
      ],
      "stateMutability": "nonpayable",
      "type": "function"
    },
    {
      "inputs": [
        {
          "internalType": "bytes32",
          "name": "role",
          "type": "bytes32"
        }
      ],
      "name": "getRoleAdmin",
      "outputs": [
        {
          "internalType": "bytes32",
          "name": "",
          "type": "bytes32"
        }
      ],
      "stateMutability": "view",
      "type": "function"
    },
    {
      "inputs": [
        {
          "internalType": "bytes32",
          "name": "role",
          "type": "bytes32"
        },
        {
          "internalType": "address",
          "name": "account",
          "type": "address"
        }
      ],
      "name": "grantRole",
      "outputs": [],
      "stateMutability": "nonpayable",
      "type": "function"
    },
    {
      "inputs": [
        {
          "internalType": "bytes32",
          "name": "role",
          "type": "bytes32"
        },
        {
          "internalType": "address",
          "name": "account",
          "type": "address"
        }
      ],
      "name": "hasRole",
      "outputs": [
        {
          "internalType": "bool",
          "name": "",
          "type": "bool"
        }
      ],
      "stateMutability": "view",
      "type": "function"
    },
    {
      "inputs": [
        {
          "internalType": "address",
          "name": "spender",
          "type": "address"
        },
        {
          "internalType": "uint256",
          "name": "addedValue",
          "type": "uint256"
        }
      ],
      "name": "increaseAllowance",
      "outputs": [
        {
          "internalType": "bool",
          "name": "",
          "type": "bool"
        }
      ],
      "stateMutability": "nonpayable",
      "type": "function"
    },
    {
      "inputs": [
        {
          "internalType": "address",
          "name": "_owner",
          "type": "address"
        },
        {
          "internalType": "address",
          "name": "_defaultAdmin",
          "type": "address"
        },
        {
          "internalType": "address",
          "name": "_authorizedMinter",
          "type": "address"
        }
      ],
      "name": "initialize",
      "outputs": [],
      "stateMutability": "nonpayable",
      "type": "function"
    },
    {
      "inputs": [
        {
          "internalType": "address",
          "name": "_to",
          "type": "address"
        },
        {
          "internalType": "uint256",
          "name": "_amount",
          "type": "uint256"
        }
      ],
      "name": "mint",
      "outputs": [],
      "stateMutability": "nonpayable",
      "type": "function"
    },
    {
      "inputs": [],
      "name": "name",
      "outputs": [
        {
          "internalType": "string",
          "name": "",
          "type": "string"
        }
      ],
      "stateMutability": "pure",
      "type": "function"
    },
    {
      "inputs": [],
      "name": "owner",
      "outputs": [
        {
          "internalType": "address",
          "name": "",
          "type": "address"
        }
      ],
      "stateMutability": "view",
      "type": "function"
    },
    {
      "inputs": [],
      "name": "renounceOwnership",
      "outputs": [],
      "stateMutability": "nonpayable",
      "type": "function"
    },
    {
      "inputs": [
        {
          "internalType": "bytes32",
          "name": "role",
          "type": "bytes32"
        },
        {
          "internalType": "address",
          "name": "account",
          "type": "address"
        }
      ],
      "name": "renounceRole",
      "outputs": [],
      "stateMutability": "nonpayable",
      "type": "function"
    },
    {
      "inputs": [
        {
          "internalType": "bytes32",
          "name": "role",
          "type": "bytes32"
        },
        {
          "internalType": "address",
          "name": "account",
          "type": "address"
        }
      ],
      "name": "revokeRole",
      "outputs": [],
      "stateMutability": "nonpayable",
      "type": "function"
    },
    {
      "inputs": [
        {
          "internalType": "address",
          "name": "_authorizedMinter",
          "type": "address"
        }
      ],
      "name": "setAuthorisedMinterRole",
      "outputs": [],
      "stateMutability": "nonpayable",
      "type": "function"
    },
    {
      "inputs": [
        {
          "internalType": "address",
          "name": "_adminRole",
          "type": "address"
        }
      ],
      "name": "setDefaultAdminRole",
      "outputs": [],
      "stateMutability": "nonpayable",
      "type": "function"
    },
    {
      "inputs": [
        {
          "internalType": "bytes4",
          "name": "interfaceId",
          "type": "bytes4"
        }
      ],
      "name": "supportsInterface",
      "outputs": [
        {
          "internalType": "bool",
          "name": "",
          "type": "bool"
        }
      ],
      "stateMutability": "view",
      "type": "function"
    },
    {
      "inputs": [],
      "name": "symbol",
      "outputs": [
        {
          "internalType": "string",
          "name": "",
          "type": "string"
        }
      ],
      "stateMutability": "pure",
      "type": "function"
    },
    {
      "inputs": [],
      "name": "totalSupply",
      "outputs": [
        {
          "internalType": "uint256",
          "name": "",
          "type": "uint256"
        }
      ],
      "stateMutability": "view",
      "type": "function"
    },
    {
      "inputs": [
        {
          "internalType": "address",
          "name": "",
          "type": "address"
        },
        {
          "internalType": "uint256",
          "name": "",
          "type": "uint256"
        }
      ],
      "name": "transfer",
      "outputs": [
        {
          "internalType": "bool",
          "name": "",
          "type": "bool"
        }
      ],
      "stateMutability": "pure",
      "type": "function"
    },
    {
      "inputs": [
        {
          "internalType": "address",
          "name": "from",
          "type": "address"
        },
        {
          "internalType": "address",
          "name": "to",
          "type": "address"
        },
        {
          "internalType": "uint256",
          "name": "amount",
          "type": "uint256"
        }
      ],
      "name": "transferFrom",
      "outputs": [
        {
          "internalType": "bool",
          "name": "",
          "type": "bool"
        }
      ],
      "stateMutability": "nonpayable",
      "type": "function"
    },
    {
      "inputs": [
        {
          "internalType": "address",
          "name": "newOwner",
          "type": "address"
        }
      ],
      "name": "transferOwnership",
      "outputs": [],
      "stateMutability": "nonpayable",
      "type": "function"
    },
    {
      "stateMutability": "payable",
      "type": "receive"
    }
  ],
  "transactionHash": "0x41553b6b5437158256e873bc6d518c69a2e2414ba72da847a348f5face447f35",
  "args": [],
  "numDeployments": 1,
  "solcInputHash": "c9e01fa90d7f492fed9f9f897321bf32",
  "bytecode": "0x60a06040523480156200001157600080fd5b506a52b7d2dcc80cd2e400000060405180606001604052806021815260200162001a146021913960408051808201909152600581526437b9a9a7ab60d91b60208201526003620000628382620002aa565b506004620000718282620002aa565b50505060008111620000ca5760405162461bcd60e51b815260206004820152601560248201527f45524332304361707065643a206361702069732030000000000000000000000060448201526064015b60405180910390fd5b608052620000d833620000e8565b620000e26200013a565b62000376565b600680546001600160a01b038381166001600160a01b0319831681179093556040519116919082907f8be0079c531659141344cd1fd0a4f28419497f9722a3daafe3b4186f6b6457e090600090a35050565b600654600160a81b900460ff1615620001a65760405162461bcd60e51b815260206004820152602760248201527f496e697469616c697a61626c653a20636f6e747261637420697320696e697469604482015266616c697a696e6760c81b6064820152608401620000c1565b600654600160a01b900460ff9081161462000203576006805460ff60a01b191660ff60a01b17905560405160ff81527f7f26b83ff96e1f2b6a682f133852f6798a09c465da95921460cefb38474024989060200160405180910390a15b565b634e487b7160e01b600052604160045260246000fd5b600181811c908216806200023057607f821691505b6020821081036200025157634e487b7160e01b600052602260045260246000fd5b50919050565b601f821115620002a557600081815260208120601f850160051c81016020861015620002805750805b601f850160051c820191505b81811015620002a1578281556001016200028c565b5050505b505050565b81516001600160401b03811115620002c657620002c662000205565b620002de81620002d784546200021b565b8462000257565b602080601f831160018114620003165760008415620002fd5750858301515b600019600386901b1c1916600185901b178555620002a1565b600085815260208120601f198616915b82811015620003475788860151825594840194600190910190840162000326565b5085821015620003665787850151600019600388901b60f8161c191681555b5050505050600190811b01905550565b60805161167b62000399600039600081816103160152610f92015261167b6000f3fe6080604052600436106101a05760003560e01c806370a08231116100ec578063a9059cbb1161008a578063d547741f11610064578063d547741f146104f0578063dd62ed3e14610510578063f2fde38b14610530578063fc1976a11461055057600080fd5b8063a9059cbb14610490578063c0c53b8b146104b0578063c19010a7146104d057600080fd5b806391d14854116100c657806391d148541461040d57806395d89b411461042d578063a217fddf1461045b578063a457c2d71461047057600080fd5b806370a082311461039a578063715018a6146103d05780638da5cb5b146103e557600080fd5b8063248a9ca311610159578063355274ea11610133578063355274ea1461030757806336568abe1461033a578063395093511461035a57806340c10f191461037a57600080fd5b8063248a9ca31461029b5780632f2ff15d146102cb578063313ce567146102eb57600080fd5b806301ffc9a7146101c357806306fdde03146101f857806308222fb31461021a578063095ea7b31461023c57806318160ddd1461025c57806323b872dd1461027b57600080fd5b366101be57604051636aca916d60e11b815260040160405180910390fd5b600080fd5b3480156101cf57600080fd5b506101e36101de36600461133c565b610572565b60405190151581526020015b60405180910390f35b34801561020457600080fd5b5061020d6105a9565b6040516101ef919061138a565b34801561022657600080fd5b5061023a6102353660046113d9565b6105c9565b005b34801561024857600080fd5b506101e36102573660046113f4565b6105ec565b34801561026857600080fd5b506002545b6040519081526020016101ef565b34801561028757600080fd5b506101e361029636600461141e565b610607565b3480156102a757600080fd5b5061026d6102b636600461145a565b60009081526005602052604090206001015490565b3480156102d757600080fd5b5061023a6102e6366004611473565b61062b565b3480156102f757600080fd5b50604051601281526020016101ef565b34801561031357600080fd5b507f000000000000000000000000000000000000000000000000000000000000000061026d565b34801561034657600080fd5b5061023a610355366004611473565b610655565b34801561036657600080fd5b506101e36103753660046113f4565b6106d8565b34801561038657600080fd5b5061023a6103953660046113f4565b610704565b3480156103a657600080fd5b5061026d6103b53660046113d9565b6001600160a01b031660009081526020819052604090205490565b3480156103dc57600080fd5b5061023a61076c565b3480156103f157600080fd5b506006546040516001600160a01b0390911681526020016101ef565b34801561041957600080fd5b506101e3610428366004611473565b610780565b34801561043957600080fd5b5060408051808201909152600581526437b9a9a7ab60d91b602082015261020d565b34801561046757600080fd5b5061026d600081565b34801561047c57600080fd5b506101e361048b3660046113f4565b6107ab565b34801561049c57600080fd5b506101e36104ab3660046113f4565b610826565b3480156104bc57600080fd5b5061023a6104cb36600461149f565b610841565b3480156104dc57600080fd5b5061023a6104eb3660046113d9565b610a2a565b3480156104fc57600080fd5b5061023a61050b366004611473565b610a3d565b34801561051c57600080fd5b5061026d61052b3660046114e2565b610a62565b34801561053c57600080fd5b5061023a61054b3660046113d9565b610a8d565b34801561055c57600080fd5b5061026d60008051602061162683398151915281565b60006001600160e01b03198216637965db0b60e01b14806105a357506301ffc9a760e01b6001600160e01b03198316145b92915050565b606060405180606001604052806021815260200161160560219139905090565b6105d1610b03565b6105e960008051602061162683398151915282610b5d565b50565b600060405163f03d10bb60e01b815260040160405180910390fd5b600033610615858285610be3565b610620858585610c57565b506001949350505050565b60008281526005602052604090206001015461064681610dfb565b6106508383610b5d565b505050565b6001600160a01b03811633146106ca5760405162461bcd60e51b815260206004820152602f60248201527f416363657373436f6e74726f6c3a2063616e206f6e6c792072656e6f756e636560448201526e103937b632b9903337b91039b2b63360891b60648201526084015b60405180910390fd5b6106d48282610e05565b5050565b6000336106fa8185856106eb8383610a62565b6106f59190611522565b610e6c565b5060019392505050565b3361071d60008051602061162683398151915282610780565b6107625760405162461bcd60e51b8152602060048201526016602482015275139bdd08185d5d1a1bdc9a5cd959081d1bc81b5a5b9d60521b60448201526064016106c1565b6106508383610f90565b610774610b03565b61077e600061101d565b565b60009182526005602090815260408084206001600160a01b0393909316845291905290205460ff1690565b600033816107b98286610a62565b9050838110156108195760405162461bcd60e51b815260206004820152602560248201527f45524332303a2064656372656173656420616c6c6f77616e63652062656c6f77604482015264207a65726f60d81b60648201526084016106c1565b6106208286868403610e6c565b6000604051639cbe235760e01b815260040160405180910390fd5b600654600160a81b900460ff161580801561086957506006546001600160a01b90910460ff16105b8061088a5750303b15801561088a5750600654600160a01b900460ff166001145b6108ed5760405162461bcd60e51b815260206004820152602e60248201527f496e697469616c697a61626c653a20636f6e747261637420697320616c72656160448201526d191e481a5b9a5d1a585b1a5e995960921b60648201526084016106c1565b6006805460ff60a01b1916600160a01b179055801561091a576006805460ff60a81b1916600160a81b1790555b6001600160a01b03831661096157604051633cb5fd8f60e01b815260206004820152600d60248201526c2fb232b330bab63a20b236b4b760991b60448201526064016106c1565b61096c600084610b5d565b6001600160a01b038216156109935761099360008051602061162683398151915283610b5d565b6001600160a01b0384166109d357604051633cb5fd8f60e01b81526020600482015260066024820152652fb7bbb732b960d11b60448201526064016106c1565b6109dc8461101d565b8015610a24576006805460ff60a81b19169055604051600181527f7f26b83ff96e1f2b6a682f133852f6798a09c465da95921460cefb38474024989060200160405180910390a15b50505050565b610a32610b03565b6105e9600082610b5d565b600082815260056020526040902060010154610a5881610dfb565b6106508383610e05565b6001600160a01b03918216600090815260016020908152604080832093909416825291909152205490565b610a95610b03565b6001600160a01b038116610afa5760405162461bcd60e51b815260206004820152602660248201527f4f776e61626c653a206e6577206f776e657220697320746865207a65726f206160448201526564647265737360d01b60648201526084016106c1565b6105e98161101d565b6006546001600160a01b0316331461077e5760405162461bcd60e51b815260206004820181905260248201527f4f776e61626c653a2063616c6c6572206973206e6f7420746865206f776e657260448201526064016106c1565b610b678282610780565b6106d45760008281526005602090815260408083206001600160a01b03851684529091529020805460ff19166001179055610b9f3390565b6001600160a01b0316816001600160a01b0316837f2f8788117e7eff1d82e926ec794901d17c78024a50270940304540a733656f0d60405160405180910390a45050565b6000610bef8484610a62565b90506000198114610a245781811015610c4a5760405162461bcd60e51b815260206004820152601d60248201527f45524332303a20696e73756666696369656e7420616c6c6f77616e636500000060448201526064016106c1565b610a248484848403610e6c565b6001600160a01b038316610cbb5760405162461bcd60e51b815260206004820152602560248201527f45524332303a207472616e736665722066726f6d20746865207a65726f206164604482015264647265737360d81b60648201526084016106c1565b6001600160a01b038216610d1d5760405162461bcd60e51b815260206004820152602360248201527f45524332303a207472616e7366657220746f20746865207a65726f206164647260448201526265737360e81b60648201526084016106c1565b6001600160a01b03831660009081526020819052604090205481811015610d955760405162461bcd60e51b815260206004820152602660248201527f45524332303a207472616e7366657220616d6f756e7420657863656564732062604482015265616c616e636560d01b60648201526084016106c1565b6001600160a01b03848116600081815260208181526040808320878703905593871680835291849020805487019055925185815290927fddf252ad1be2c89b69c2b068fc378daa952ba7f163c4a11628f55a4df523b3ef910160405180910390a3610a24565b6105e9813361106f565b610e0f8282610780565b156106d45760008281526005602090815260408083206001600160a01b0385168085529252808320805460ff1916905551339285917ff6391f5c32d9c69d2a47ea670b442974b53935d1edc7fd64eb21e047a839171b9190a45050565b6001600160a01b038316610ece5760405162461bcd60e51b8152602060048201526024808201527f45524332303a20617070726f76652066726f6d20746865207a65726f206164646044820152637265737360e01b60648201526084016106c1565b6001600160a01b038216610f2f5760405162461bcd60e51b815260206004820152602260248201527f45524332303a20617070726f766520746f20746865207a65726f206164647265604482015261737360f01b60648201526084016106c1565b6001600160a01b0383811660008181526001602090815260408083209487168084529482529182902085905590518481527f8c5be1e5ebec7d5bd14f71427d1e84f3dd0314c0f7b2291e5b200ac8c7c3b925910160405180910390a3505050565b7f000000000000000000000000000000000000000000000000000000000000000081610fbb60025490565b610fc59190611522565b11156110135760405162461bcd60e51b815260206004820152601960248201527f45524332304361707065643a206361702065786365656465640000000000000060448201526064016106c1565b6106d482826110c8565b600680546001600160a01b038381166001600160a01b0319831681179093556040519116919082907f8be0079c531659141344cd1fd0a4f28419497f9722a3daafe3b4186f6b6457e090600090a35050565b6110798282610780565b6106d45761108681611187565b611091836020611199565b6040516020016110a2929190611535565b60408051601f198184030181529082905262461bcd60e51b82526106c19160040161138a565b6001600160a01b03821661111e5760405162461bcd60e51b815260206004820152601f60248201527f45524332303a206d696e7420746f20746865207a65726f20616464726573730060448201526064016106c1565b80600260008282546111309190611522565b90915550506001600160a01b038216600081815260208181526040808320805486019055518481527fddf252ad1be2c89b69c2b068fc378daa952ba7f163c4a11628f55a4df523b3ef910160405180910390a35050565b60606105a36001600160a01b03831660145b606060006111a88360026115aa565b6111b3906002611522565b67ffffffffffffffff8111156111cb576111cb6115c1565b6040519080825280601f01601f1916602001820160405280156111f5576020820181803683370190505b509050600360fc1b81600081518110611210576112106115d7565b60200101906001600160f81b031916908160001a905350600f60fb1b8160018151811061123f5761123f6115d7565b60200101906001600160f81b031916908160001a90535060006112638460026115aa565b61126e906001611522565b90505b60018111156112e6576f181899199a1a9b1b9c1cb0b131b232b360811b85600f16601081106112a2576112a26115d7565b1a60f81b8282815181106112b8576112b86115d7565b60200101906001600160f81b031916908160001a90535060049490941c936112df816115ed565b9050611271565b5083156113355760405162461bcd60e51b815260206004820181905260248201527f537472696e67733a20686578206c656e67746820696e73756666696369656e7460448201526064016106c1565b9392505050565b60006020828403121561134e57600080fd5b81356001600160e01b03198116811461133557600080fd5b60005b83811015611381578181015183820152602001611369565b50506000910152565b60208152600082518060208401526113a9816040850160208701611366565b601f01601f19169190910160400192915050565b80356001600160a01b03811681146113d457600080fd5b919050565b6000602082840312156113eb57600080fd5b611335826113bd565b6000806040838503121561140757600080fd5b611410836113bd565b946020939093013593505050565b60008060006060848603121561143357600080fd5b61143c846113bd565b925061144a602085016113bd565b9150604084013590509250925092565b60006020828403121561146c57600080fd5b5035919050565b6000806040838503121561148657600080fd5b82359150611496602084016113bd565b90509250929050565b6000806000606084860312156114b457600080fd5b6114bd846113bd565b92506114cb602085016113bd565b91506114d9604085016113bd565b90509250925092565b600080604083850312156114f557600080fd5b6114fe836113bd565b9150611496602084016113bd565b634e487b7160e01b600052601160045260246000fd5b808201808211156105a3576105a361150c565b7f416363657373436f6e74726f6c3a206163636f756e742000000000000000000081526000835161156d816017850160208801611366565b7001034b99036b4b9b9b4b733903937b6329607d1b601791840191820152835161159e816028840160208801611366565b01602801949350505050565b80820281158282048414176105a3576105a361150c565b634e487b7160e01b600052604160045260246000fd5b634e487b7160e01b600052603260045260246000fd5b6000816115fc576115fc61150c565b50600019019056fe426974636f696e4f5320536f7672796e205472616e736974696f6e20546f6b656e69ced24670abeeca318d0e1482e52e82d7c254b4977cd6bd6b14d1e32d9b4b3ba2646970667358221220d258a0b9c95cc8be5aa81d738f5699d681157e72a1eb8c849935b16ae7dc52c564736f6c63430008110033426974636f696e4f5320536f7672796e205472616e736974696f6e20546f6b656e",
  "devdoc": {
    "details": "This contract represents a token with dynamic supply.   The owner of the token contract can mint/burn tokens to/from any account   based upon previous governance voting and approval.",
    "errors": {
      "NonApprovable()": [
        {
          "details": "The token is non transferable via transferForm - approval is not allowed."
        }
      ],
      "NonReceivable()": [
        {
          "details": "The token is non receivable"
        }
      ],
      "NonTransferable()": [
        {
          "details": "The token is non transferable."
        }
      ],
      "NotAllowedZeroAddressForParam(string)": [
        {
          "details": "address passed cannot be zero"
        }
      ]
    },
    "kind": "dev",
    "methods": {
      "allowance(address,address)": {
        "details": "See {IERC20-allowance}."
      },
      "approve(address,uint256)": {
        "details": "See {IERC20-approve}. NOTE: If `value` is the maximum `uint256`, the allowance is not updated on `transferFrom`. This is semantically equivalent to an infinite approval. - non-transferable via transferFrom"
      },
      "balanceOf(address)": {
        "details": "See {IERC20-balanceOf}."
      },
      "cap()": {
        "details": "Returns the cap on the token's total supply."
      },
      "constructor": {
        "details": "_disableInitializers locks the logic contract, preventing any future reinitialization. This cannot be part of an initializer call. Calling this in the constructor of a contract will prevent that contract from being initialized or reinitialized to any version. It is recommended to use this to lock implementation contracts that are designed to be called through proxies.initializing Owner with address(1) because 0 address is not allowed"
      },
      "decimals()": {
        "returns": {
          "_0": "Returns the number of decimals used to get its user representation. For example, if `decimals` equals `2`, a balance of `505` tokens should be displayed to a user as `5.05` (`505 / 10 ** 2`). Tokens usually opt for a value of 18, imitating the relationship between Ether and Wei. This is the default value returned by this function, unless it's overridden. NOTE: This information is only used for _display_ purposes: it in no way affects any of the arithmetic of the contract, including {IERC20-balanceOf} and {IERC20-transfer}."
        }
      },
      "decreaseAllowance(address,uint256)": {
        "details": "Atomically decreases the allowance granted to `spender` by the caller. This is an alternative to {approve} that can be used as a mitigation for problems described in {IERC20-approve}. Emits an {Approval} event indicating the updated allowance. Requirements: - `spender` cannot be the zero address. - `spender` must have allowance for the caller of at least `subtractedValue`."
      },
      "getRoleAdmin(bytes32)": {
        "details": "Returns the admin role that controls `role`. See {grantRole} and {revokeRole}. To change a role's admin, use {_setRoleAdmin}."
      },
      "grantRole(bytes32,address)": {
        "details": "Grants `role` to `account`. If `account` had not been already granted `role`, emits a {RoleGranted} event. Requirements: - the caller must have ``role``'s admin role. May emit a {RoleGranted} event."
      },
      "hasRole(bytes32,address)": {
        "details": "Returns `true` if `account` has been granted `role`."
      },
      "increaseAllowance(address,uint256)": {
        "details": "Atomically increases the allowance granted to `spender` by the caller. This is an alternative to {approve} that can be used as a mitigation for problems described in {IERC20-approve}. Emits an {Approval} event indicating the updated allowance. Requirements: - `spender` cannot be the zero address."
      },
      "initialize(address,address,address)": {
        "params": {
          "_authorizedMinter": "Address of the minter - Staking Rewards contract",
          "_defaultAdmin": "Address for AcccessControl DEFAULT_ADMIN_ROLE to manage roles: assign and revoke",
          "_owner": "Address for AccessControl OWNER_ROLE to use in onlyOwner() modifier"
        }
      },
      "mint(address,uint256)": {
        "details": "Creates a `value` amount of tokens and assigns them to `account`, by transferring it from address(0). Relies on the `_update` mechanism Emits a {Transfer} event with `from` set to the zero address. NOTE: This function is not override, {_update} should be overridden instead."
      },
      "name()": {
        "details": "Returns the name of the token."
      },
      "owner()": {
        "details": "Returns the address of the current owner."
      },
      "renounceOwnership()": {
        "details": "Leaves the contract without owner. It will not be possible to call `onlyOwner` functions. Can only be called by the current owner. NOTE: Renouncing ownership will leave the contract without an owner, thereby disabling any functionality that is only available to the owner."
      },
      "renounceRole(bytes32,address)": {
        "details": "Revokes `role` from the calling account. Roles are often managed via {grantRole} and {revokeRole}: this function's purpose is to provide a mechanism for accounts to lose their privileges if they are compromised (such as when a trusted device is misplaced). If the calling account had been revoked `role`, emits a {RoleRevoked} event. Requirements: - the caller must be `account`. May emit a {RoleRevoked} event."
      },
      "revokeRole(bytes32,address)": {
        "details": "Revokes `role` from `account`. If `account` had been granted `role`, emits a {RoleRevoked} event. Requirements: - the caller must have ``role``'s admin role. May emit a {RoleRevoked} event."
      },
      "setAuthorisedMinterRole(address)": {
        "params": {
          "_authorizedMinter": "Address of the minter - should be Staking Rewards contract"
        }
      },
      "setDefaultAdminRole(address)": {
        "params": {
          "_adminRole": "Address for AcccessControl DEFAULT_ADMIN_ROLE to manage roles: assign and revoke"
        }
      },
      "supportsInterface(bytes4)": {
        "details": "See {IERC165-supportsInterface}."
      },
      "symbol()": {
        "returns": {
          "_0": "Returns the symbol of the token, usually a shorter version of the name."
        }
      },
      "totalSupply()": {
        "details": "See {IERC20-totalSupply}."
      },
      "transfer(address,uint256)": {
        "details": "See {IERC20-transfer}. Requirements: - non-transferable"
      },
      "transferFrom(address,address,uint256)": {
        "details": "See {IERC20-transferFrom}. Emits an {Approval} event indicating the updated allowance. This is not required by the EIP. See the note at the beginning of {ERC20}. NOTE: Does not update the allowance if the current allowance is the maximum `uint256`. Requirements: - `from` and `to` cannot be the zero address. - `from` must have a balance of at least `amount`. - the caller must have allowance for ``from``'s tokens of at least `amount`."
      },
      "transferOwnership(address)": {
        "details": "Transfers ownership of the contract to a new account (`newOwner`). Can only be called by the current owner."
      }
    },
    "title": "Sovryn Token for BitcoinOS: a 'coupon token' to be transitioned to BitcoinOS.",
    "version": 1
  },
  "userdoc": {
    "kind": "user",
    "methods": {},
    "notice": "This contract accounts for all holders' balances.",
    "version": 1
  },
  "storageLayout": {
    "storage": [
      {
        "astId": 686,
        "contract": "contracts/token/OsSOV.sol:OsSOV",
        "label": "_balances",
        "offset": 0,
        "slot": "0",
        "type": "t_mapping(t_address,t_uint256)"
      },
      {
        "astId": 692,
        "contract": "contracts/token/OsSOV.sol:OsSOV",
        "label": "_allowances",
        "offset": 0,
        "slot": "1",
        "type": "t_mapping(t_address,t_mapping(t_address,t_uint256))"
      },
      {
        "astId": 694,
        "contract": "contracts/token/OsSOV.sol:OsSOV",
        "label": "_totalSupply",
        "offset": 0,
        "slot": "2",
        "type": "t_uint256"
      },
      {
        "astId": 696,
        "contract": "contracts/token/OsSOV.sol:OsSOV",
        "label": "_name",
        "offset": 0,
        "slot": "3",
        "type": "t_string_storage"
      },
      {
        "astId": 698,
        "contract": "contracts/token/OsSOV.sol:OsSOV",
        "label": "_symbol",
        "offset": 0,
        "slot": "4",
        "type": "t_string_storage"
      },
      {
        "astId": 24,
        "contract": "contracts/token/OsSOV.sol:OsSOV",
        "label": "_roles",
        "offset": 0,
        "slot": "5",
        "type": "t_mapping(t_bytes32,t_struct(RoleData)19_storage)"
      },
      {
        "astId": 396,
        "contract": "contracts/token/OsSOV.sol:OsSOV",
        "label": "_owner",
        "offset": 0,
        "slot": "6",
        "type": "t_address"
      },
      {
        "astId": 508,
        "contract": "contracts/token/OsSOV.sol:OsSOV",
        "label": "_initialized",
        "offset": 20,
        "slot": "6",
        "type": "t_uint8"
      },
      {
        "astId": 511,
        "contract": "contracts/token/OsSOV.sol:OsSOV",
        "label": "_initializing",
        "offset": 21,
        "slot": "6",
        "type": "t_bool"
      }
    ],
    "types": {
      "t_address": {
        "encoding": "inplace",
        "label": "address",
        "numberOfBytes": "20"
      },
      "t_bool": {
        "encoding": "inplace",
        "label": "bool",
        "numberOfBytes": "1"
      },
      "t_bytes32": {
        "encoding": "inplace",
        "label": "bytes32",
        "numberOfBytes": "32"
      },
      "t_mapping(t_address,t_bool)": {
        "encoding": "mapping",
        "key": "t_address",
        "label": "mapping(address => bool)",
        "numberOfBytes": "32",
        "value": "t_bool"
      },
      "t_mapping(t_address,t_mapping(t_address,t_uint256))": {
        "encoding": "mapping",
        "key": "t_address",
        "label": "mapping(address => mapping(address => uint256))",
        "numberOfBytes": "32",
        "value": "t_mapping(t_address,t_uint256)"
      },
      "t_mapping(t_address,t_uint256)": {
        "encoding": "mapping",
        "key": "t_address",
        "label": "mapping(address => uint256)",
        "numberOfBytes": "32",
        "value": "t_uint256"
      },
      "t_mapping(t_bytes32,t_struct(RoleData)19_storage)": {
        "encoding": "mapping",
        "key": "t_bytes32",
        "label": "mapping(bytes32 => struct AccessControl.RoleData)",
        "numberOfBytes": "32",
        "value": "t_struct(RoleData)19_storage"
      },
      "t_string_storage": {
        "encoding": "bytes",
        "label": "string",
        "numberOfBytes": "32"
      },
      "t_struct(RoleData)19_storage": {
        "encoding": "inplace",
        "label": "struct AccessControl.RoleData",
        "members": [
          {
            "astId": 16,
            "contract": "contracts/token/OsSOV.sol:OsSOV",
            "label": "members",
            "offset": 0,
            "slot": "0",
            "type": "t_mapping(t_address,t_bool)"
          },
          {
            "astId": 18,
            "contract": "contracts/token/OsSOV.sol:OsSOV",
            "label": "adminRole",
            "offset": 0,
            "slot": "1",
            "type": "t_bytes32"
          }
        ],
        "numberOfBytes": "64"
      },
      "t_uint256": {
        "encoding": "inplace",
        "label": "uint256",
        "numberOfBytes": "32"
      },
      "t_uint8": {
        "encoding": "inplace",
        "label": "uint8",
        "numberOfBytes": "1"
      }
    }
  }
}