{
  "address": "0x720bA758526E086EAe849063f3160F12a624A6f6",
  "abi": [
    {
      "anonymous": false,
      "inputs": [
        {
          "indexed": true,
          "internalType": "address",
          "name": "_oldImplementation",
          "type": "address"
        },
        {
          "indexed": true,
          "internalType": "address",
          "name": "_newImplementation",
          "type": "address"
        }
      ],
      "name": "ImplementationChanged",
      "type": "event"
    },
    {
      "anonymous": false,
      "inputs": [
        {
          "indexed": true,
          "internalType": "address",
          "name": "_oldOwner",
          "type": "address"
        },
        {
          "indexed": true,
          "internalType": "address",
          "name": "_newOwner",
          "type": "address"
        }
      ],
      "name": "OwnershipTransferred",
      "type": "event"
    },
    {
      "payable": true,
      "stateMutability": "payable",
      "type": "fallback"
    },
    {
      "constant": true,
      "inputs": [],
      "name": "BASE_RATE",
      "outputs": [
        {
          "internalType": "uint256",
          "name": "",
          "type": "uint256"
        }
      ],
      "payable": false,
      "stateMutability": "view",
      "type": "function"
    },
    {
      "constant": true,
      "inputs": [],
      "name": "DIVISOR",
      "outputs": [
        {
          "internalType": "uint256",
          "name": "",
          "type": "uint256"
        }
      ],
      "payable": false,
      "stateMutability": "view",
      "type": "function"
    },
    {
      "constant": true,
      "inputs": [],
      "name": "TWO_WEEKS",
      "outputs": [
        {
          "internalType": "uint256",
          "name": "",
          "type": "uint256"
        }
      ],
      "payable": false,
      "stateMutability": "view",
      "type": "function"
    },
    {
      "constant": true,
      "inputs": [],
      "name": "getAverageBlockTime",
      "outputs": [
        {
          "internalType": "uint256",
          "name": "",
          "type": "uint256"
        }
      ],
      "payable": false,
      "stateMutability": "view",
      "type": "function"
    },
    {
      "constant": true,
      "inputs": [
        {
          "internalType": "uint256",
          "name": "_checkpointTimestamp",
          "type": "uint256"
        }
      ],
      "name": "getCheckpointBlockNumber",
      "outputs": [
        {
          "internalType": "uint256",
          "name": "",
          "type": "uint256"
        }
      ],
      "payable": false,
      "stateMutability": "view",
      "type": "function"
    },
    {
      "constant": true,
      "inputs": [],
      "name": "getDeploymentBlock",
      "outputs": [
        {
          "internalType": "uint256",
          "name": "",
          "type": "uint256"
        }
      ],
      "payable": false,
      "stateMutability": "view",
      "type": "function"
    },
    {
      "constant": true,
      "inputs": [],
      "name": "getImplementation",
      "outputs": [
        {
          "internalType": "address",
          "name": "_implementation",
          "type": "address"
        }
      ],
      "payable": false,
      "stateMutability": "view",
      "type": "function"
    },
    {
      "constant": true,
      "inputs": [],
      "name": "getMaxDuration",
      "outputs": [
        {
          "internalType": "uint256",
          "name": "",
          "type": "uint256"
        }
      ],
      "payable": false,
      "stateMutability": "view",
      "type": "function"
    },
    {
      "constant": true,
      "inputs": [],
      "name": "getOsSOV",
      "outputs": [
        {
          "internalType": "contract IERC20Mintable",
          "name": "",
          "type": "address"
        }
      ],
      "payable": false,
      "stateMutability": "view",
      "type": "function"
    },
    {
      "constant": true,
      "inputs": [],
      "name": "getProxyOwner",
      "outputs": [
        {
          "internalType": "address",
          "name": "_owner",
          "type": "address"
        }
      ],
      "payable": false,
      "stateMutability": "view",
      "type": "function"
    },
    {
      "constant": true,
      "inputs": [],
      "name": "getRewardsProgramStartTime",
      "outputs": [
        {
          "internalType": "uint256",
          "name": "",
          "type": "uint256"
        }
      ],
      "payable": false,
      "stateMutability": "view",
      "type": "function"
    },
    {
      "constant": true,
      "inputs": [
        {
          "internalType": "address",
          "name": "_staker",
          "type": "address"
        }
      ],
      "name": "getStakerNextWithdrawTimestamp",
      "outputs": [
        {
          "internalType": "uint256",
          "name": "",
          "type": "uint256"
        }
      ],
      "payable": false,
      "stateMutability": "view",
      "type": "function"
    },
    {
      "constant": true,
      "inputs": [],
      "name": "getStaking",
      "outputs": [
        {
          "internalType": "contract IStaking",
          "name": "",
          "type": "address"
        }
      ],
      "payable": false,
      "stateMutability": "view",
      "type": "function"
    },
    {
      "constant": true,
      "inputs": [],
      "name": "getStopBlock",
      "outputs": [
        {
          "internalType": "uint256",
          "name": "",
          "type": "uint256"
        }
      ],
      "payable": false,
      "stateMutability": "view",
      "type": "function"
    },
    {
      "constant": true,
      "inputs": [],
      "name": "getStopRewardsTimestamp",
      "outputs": [
        {
          "internalType": "uint256",
          "name": "",
          "type": "uint256"
        }
      ],
      "payable": false,
      "stateMutability": "view",
      "type": "function"
    },
    {
      "constant": true,
      "inputs": [],
      "name": "isOwner",
      "outputs": [
        {
          "internalType": "bool",
          "name": "",
          "type": "bool"
        }
      ],
      "payable": false,
      "stateMutability": "view",
      "type": "function"
    },
    {
      "constant": true,
      "inputs": [],
      "name": "owner",
      "outputs": [
        {
          "internalType": "address",
          "name": "",
          "type": "address"
        }
      ],
      "payable": false,
      "stateMutability": "view",
      "type": "function"
    },
    {
      "constant": false,
      "inputs": [
        {
          "internalType": "address",
          "name": "_implementation",
          "type": "address"
        }
      ],
      "name": "setImplementation",
      "outputs": [],
      "payable": false,
      "stateMutability": "nonpayable",
      "type": "function"
    },
    {
      "constant": false,
      "inputs": [
        {
          "internalType": "address",
          "name": "_owner",
          "type": "address"
        }
      ],
      "name": "setProxyOwner",
      "outputs": [],
      "payable": false,
      "stateMutability": "nonpayable",
      "type": "function"
    },
    {
      "constant": false,
      "inputs": [
        {
          "internalType": "address",
          "name": "newOwner",
          "type": "address"
        }
      ],
      "name": "transferOwnership",
      "outputs": [],
      "payable": false,
      "stateMutability": "nonpayable",
      "type": "function"
    }
  ],
  "transactionHash": "0xe83e2ee85cbcd65304d80f711277c0764cdb3dfea32e5229bef905900214dd44",
  "args": [],
  "numDeployments": 1,
  "solcInputHash": "fff63f863151350c652df943b3c6ea48",
  "bytecode": "0x608060405260006100176001600160e01b0361006616565b600080546001600160a01b0319166001600160a01b038316908117825560405192935091600080516020610a67833981519152908290a350610061336001600160e01b0361006a16565b61013c565b3390565b6001600160a01b0381166100af5760405162461bcd60e51b8152600401808060200182810382526025815260200180610a876025913960400191505060405180910390fd5b6001600160a01b0381166100ca6001600160e01b0361011416565b6001600160a01b0316600080516020610a6783398151915260405160405180910390a3604080516e35b2bc97383937bc3c9737bbb732b960891b8152905190819003600f01902055565b604080516e35b2bc97383937bc3c9737bbb732b960891b8152905190819003600f0190205490565b61091c8061014b6000396000f3fe60806040526004361061011f5760003560e01c8063aaf10f42116100a0578063f2fde38b11610064578063f2fde38b14610365578063f5f52e2e14610398578063f92ac1f1146103ad578063f9e28d0d146103e0578063fed73f66146103f55761011f565b8063aaf10f42146102be578063b49a2db9146102d3578063caaee91c146102e8578063ce6da7f21461031d578063d784d426146103325761011f565b806380d1cb35116100e757806380d1cb35146102415780638da5cb5b146102565780638f32d59b1461026b5780638fd35c6514610294578063934d1fa4146102a95761011f565b80631ab7710d146101955780633410fe6e146101c657806341910f90146101ed578063722a23db146102025780637b1391a61461022c575b600061012961040a565b90506001600160a01b0381166101705760405162461bcd60e51b81526004018080602001828103825260238152602001806108a06023913960400191505060405180910390fd5b60405136600082376000803683855af43d806000843e818015610191578184f35b8184fd5b3480156101a157600080fd5b506101aa610435565b604080516001600160a01b039092168252519081900360200190f35b3480156101d257600080fd5b506101db61045d565b60408051918252519081900360200190f35b3480156101f957600080fd5b506101db610464565b34801561020e57600080fd5b506101db6004803603602081101561022557600080fd5b503561046a565b34801561023857600080fd5b506101aa61047c565b34801561024d57600080fd5b506101db61048b565b34801561026257600080fd5b506101aa610491565b34801561027757600080fd5b506102806104a0565b604080519115158252519081900360200190f35b3480156102a057600080fd5b506101aa6104c4565b3480156102b557600080fd5b506101db6104d3565b3480156102ca57600080fd5b506101aa61040a565b3480156102df57600080fd5b506101db6104da565b3480156102f457600080fd5b5061031b6004803603602081101561030b57600080fd5b50356001600160a01b03166104e0565b005b34801561032957600080fd5b506101db610551565b34801561033e57600080fd5b5061031b6004803603602081101561035557600080fd5b50356001600160a01b0316610557565b34801561037157600080fd5b5061031b6004803603602081101561038857600080fd5b50356001600160a01b03166105c5565b3480156103a457600080fd5b506101db610616565b3480156103b957600080fd5b506101db600480360360208110156103d057600080fd5b50356001600160a01b031661061c565b3480156103ec57600080fd5b506101db610637565b34801561040157600080fd5b506101db61063d565b604080517135b2bc9734b6b83632b6b2b73a30ba34b7b760711b815290519081900360120190205490565b604080516e35b2bc97383937bc3c9737bbb732b960891b8152905190819003600f0190205490565b6227ac4081565b61038481565b6000908152600a602052604090205490565b6002546001600160a01b031690565b60095490565b6000546001600160a01b031690565b600080546001600160a01b03166104b5610643565b6001600160a01b031614905090565b6001546001600160a01b031690565b6212750081565b60035490565b6104e8610435565b6001600160a01b0316336001600160a01b031614610545576040805162461bcd60e51b8152602060048201526015602482015274141c9bde1e4e8e881858d8d95cdcc819195b9a5959605a1b604482015290519081900360640190fd5b61054e81610647565b50565b60065490565b61055f610435565b6001600160a01b0316336001600160a01b0316146105bc576040805162461bcd60e51b8152602060048201526015602482015274141c9bde1e4e8e881858d8d95cdcc819195b9a5959605a1b604482015290519081900360640190fd5b61054e816106fa565b6105cd6104a0565b61060d576040805162461bcd60e51b815260206004820152600c60248201526b1d5b985d5d1a1bdc9a5e995960a21b604482015290519081900360640190fd5b61054e816107b0565b60055490565b6001600160a01b031660009081526007602052604090205490565b600b5490565b60045490565b3390565b6001600160a01b03811661068c5760405162461bcd60e51b81526004018080602001828103825260258152602001806108c36025913960400191505060405180910390fd5b806001600160a01b031661069e610435565b6001600160a01b03167f8be0079c531659141344cd1fd0a4f28419497f9722a3daafe3b4186f6b6457e060405160405180910390a3604080516e35b2bc97383937bc3c9737bbb732b960891b8152905190819003600f01902055565b6001600160a01b03811661073f5760405162461bcd60e51b81526004018080602001828103825260298152602001806108776029913960400191505060405180910390fd5b806001600160a01b031661075161040a565b6001600160a01b03167fcfbf4028add9318bbf716f08c348595afb063b0e9feed1f86d33681a4b3ed4d360405160405180910390a3604080517135b2bc9734b6b83632b6b2b73a30ba34b7b760711b8152905190819003601201902055565b6001600160a01b0381166107f55760405162461bcd60e51b81526004018080602001828103825260268152602001806108516026913960400191505060405180910390fd5b600080546040516001600160a01b03808516939216917f8be0079c531659141344cd1fd0a4f28419497f9722a3daafe3b4186f6b6457e091a3600080546001600160a01b0319166001600160a01b039290921691909117905556fe4f776e61626c653a206e6577206f776e657220697320746865207a65726f206164647265737350726f78793a3a736574496d706c656d656e746174696f6e3a20696e76616c6964206164647265737350726f78793a3a28293a20696d706c656d656e746174696f6e206e6f7420666f756e6450726f78793a3a73657450726f78794f776e65723a20696e76616c69642061646472657373a265627a7a72315820dac83a0120c5baeb19bbd17fd9ffbbcf0f4dfd1629b9d8d5b7d4af0d541f655964736f6c634300051100328be0079c531659141344cd1fd0a4f28419497f9722a3daafe3b4186f6b6457e050726f78793a3a73657450726f78794f776e65723a20696e76616c69642061646472657373",
  "devdoc": {
    "details": "StakingRewardsOs contract should be upgradable. Used UpgradableProxy. StakingRewardsOsStorage is deployed with the upgradable functionality by using this contract instead, that inherits from UpgradableProxy with the possibility of being enhanced and re-deployed.",
    "methods": {
      "getCheckpointBlockNumber(uint256)": {
        "params": {
          "_checkpointTimestamp": "Checkpoint timestamp"
        }
      },
      "getImplementation()": {
        "return": "Address of the implementation."
      },
      "getProxyOwner()": {
        "return": "Address of the owner."
      },
      "isOwner()": {
        "details": "Returns true if the caller is the current owner."
      },
      "owner()": {
        "details": "Returns the address of the current owner."
      },
      "setImplementation(address)": {
        "details": "Wrapper for _setImplementation that exposes the function as public for owner to be able to set a new version of the contract as current pointing implementation.",
        "params": {
          "_implementation": "Address of the implementation."
        }
      },
      "setProxyOwner(address)": {
        "params": {
          "_owner": "Address of the owner."
        }
      },
      "transferOwnership(address)": {
        "details": "Transfers ownership of the contract to a new account (`newOwner`). Can only be called by the current owner."
      }
    },
    "title": "StakingRewardsOs Proxy contract."
  },
  "userdoc": {
    "methods": {
      "getImplementation()": {
        "notice": "Return address of the implementation."
      },
      "getProxyOwner()": {
        "notice": "Return address of the owner."
      },
      "setImplementation(address)": {
        "notice": "Set address of the implementation."
      },
      "setProxyOwner(address)": {
        "notice": "Set address of the owner."
      }
    }
  },
  "storageLayout": {
    "storage": [
      {
        "astId": 55491,
        "contract": "contracts/governance/StakingRewards/StakingRewardsOsProxy.sol:StakingRewardsOsProxy",
        "label": "_owner",
        "offset": 0,
        "slot": "0",
        "type": "t_address"
      },
      {
        "astId": 25055,
        "contract": "contracts/governance/StakingRewards/StakingRewardsOsProxy.sol:StakingRewardsOsProxy",
        "label": "osSOV",
        "offset": 0,
        "slot": "1",
        "type": "t_contract(IERC20Mintable)34134"
      },
      {
        "astId": 25057,
        "contract": "contracts/governance/StakingRewards/StakingRewardsOsProxy.sol:StakingRewardsOsProxy",
        "label": "staking",
        "offset": 0,
        "slot": "2",
        "type": "t_contract(IStaking)17840"
      },
      {
        "astId": 25059,
        "contract": "contracts/governance/StakingRewards/StakingRewardsOsProxy.sol:StakingRewardsOsProxy",
        "label": "maxDuration",
        "offset": 0,
        "slot": "3",
        "type": "t_uint256"
      },
      {
        "astId": 25061,
        "contract": "contracts/governance/StakingRewards/StakingRewardsOsProxy.sol:StakingRewardsOsProxy",
        "label": "rewardsProgramStartTime",
        "offset": 0,
        "slot": "4",
        "type": "t_uint256"
      },
      {
        "astId": 25063,
        "contract": "contracts/governance/StakingRewards/StakingRewardsOsProxy.sol:StakingRewardsOsProxy",
        "label": "stopBlock",
        "offset": 0,
        "slot": "5",
        "type": "t_uint256"
      },
      {
        "astId": 25065,
        "contract": "contracts/governance/StakingRewards/StakingRewardsOsProxy.sol:StakingRewardsOsProxy",
        "label": "stopRewardsTimestamp",
        "offset": 0,
        "slot": "6",
        "type": "t_uint256"
      },
      {
        "astId": 25069,
        "contract": "contracts/governance/StakingRewards/StakingRewardsOsProxy.sol:StakingRewardsOsProxy",
        "label": "stakerNextWithdrawTimestamp",
        "offset": 0,
        "slot": "7",
        "type": "t_mapping(t_address,t_uint256)"
      },
      {
        "astId": 25073,
        "contract": "contracts/governance/StakingRewards/StakingRewardsOsProxy.sol:StakingRewardsOsProxy",
        "label": "claimedBalances",
        "offset": 0,
        "slot": "8",
        "type": "t_mapping(t_address,t_uint256)"
      },
      {
        "astId": 25075,
        "contract": "contracts/governance/StakingRewards/StakingRewardsOsProxy.sol:StakingRewardsOsProxy",
        "label": "deploymentBlock",
        "offset": 0,
        "slot": "9",
        "type": "t_uint256"
      },
      {
        "astId": 25079,
        "contract": "contracts/governance/StakingRewards/StakingRewardsOsProxy.sol:StakingRewardsOsProxy",
        "label": "checkpointBlockNumber",
        "offset": 0,
        "slot": "10",
        "type": "t_mapping(t_uint256,t_uint256)"
      },
      {
        "astId": 25081,
        "contract": "contracts/governance/StakingRewards/StakingRewardsOsProxy.sol:StakingRewardsOsProxy",
        "label": "averageBlockTime",
        "offset": 0,
        "slot": "11",
        "type": "t_uint256"
      }
    ],
    "types": {
      "t_address": {
        "encoding": "inplace",
        "label": "address",
        "numberOfBytes": "20"
      },
      "t_contract(IERC20Mintable)34134": {
        "encoding": "inplace",
        "label": "contract IERC20Mintable",
        "numberOfBytes": "20"
      },
      "t_contract(IStaking)17840": {
        "encoding": "inplace",
        "label": "contract IStaking",
        "numberOfBytes": "20"
      },
      "t_mapping(t_address,t_uint256)": {
        "encoding": "mapping",
        "key": "t_address",
        "label": "mapping(address => uint256)",
        "numberOfBytes": "32",
        "value": "t_uint256"
      },
      "t_mapping(t_uint256,t_uint256)": {
        "encoding": "mapping",
        "key": "t_uint256",
        "label": "mapping(uint256 => uint256)",
        "numberOfBytes": "32",
        "value": "t_uint256"
      },
      "t_uint256": {
        "encoding": "inplace",
        "label": "uint256",
        "numberOfBytes": "32"
      }
    }
  }
}