{
  "address": "0xA6F8bE3759bABDB77c39D6E0752f82D46a8fEfE4",
  "abi": [
    {
      "anonymous": false,
      "inputs": [
        {
          "indexed": true,
          "internalType": "address",
          "name": "previousOwner",
          "type": "address"
        },
        {
          "indexed": true,
          "internalType": "address",
          "name": "newOwner",
          "type": "address"
        }
      ],
      "name": "OwnershipTransferred",
      "type": "event"
    },
    {
      "anonymous": false,
      "inputs": [
        {
          "indexed": true,
          "internalType": "address",
          "name": "receiver",
          "type": "address"
        },
        {
          "indexed": false,
          "internalType": "uint256",
          "name": "amount",
          "type": "uint256"
        }
      ],
      "name": "RewardWithdrawn",
      "type": "event"
    },
    {
      "constant": true,
      "inputs": [],
      "name": "BASE_RATE",
      "outputs": [
        {
          "internalType": "uint256",
          "name": "",
          "type": "uint256"
        }
      ],
      "payable": false,
      "stateMutability": "view",
      "type": "function"
    },
    {
      "constant": true,
      "inputs": [],
      "name": "DIVISOR",
      "outputs": [
        {
          "internalType": "uint256",
          "name": "",
          "type": "uint256"
        }
      ],
      "payable": false,
      "stateMutability": "view",
      "type": "function"
    },
    {
      "constant": true,
      "inputs": [],
      "name": "TWO_WEEKS",
      "outputs": [
        {
          "internalType": "uint256",
          "name": "",
          "type": "uint256"
        }
      ],
      "payable": false,
      "stateMutability": "view",
      "type": "function"
    },
    {
      "constant": false,
      "inputs": [
        {
          "internalType": "uint256",
          "name": "_startTime",
          "type": "uint256"
        }
      ],
      "name": "collectReward",
      "outputs": [],
      "payable": false,
      "stateMutability": "nonpayable",
      "type": "function"
    },
    {
      "constant": true,
      "inputs": [
        {
          "internalType": "bool",
          "name": "_considerMaxDuration",
          "type": "bool"
        },
        {
          "internalType": "uint256",
          "name": "_startTime",
          "type": "uint256"
        },
        {
          "internalType": "address",
          "name": "_staker",
          "type": "address"
        }
      ],
      "name": "getArbitraryStakerCurrentReward",
      "outputs": [
        {
          "internalType": "uint256",
          "name": "nextWithdrawTimestamp",
          "type": "uint256"
        },
        {
          "internalType": "uint256",
          "name": "amount",
          "type": "uint256"
        }
      ],
      "payable": false,
      "stateMutability": "view",
      "type": "function"
    },
    {
      "constant": true,
      "inputs": [],
      "name": "getAverageBlockTime",
      "outputs": [
        {
          "internalType": "uint256",
          "name": "",
          "type": "uint256"
        }
      ],
      "payable": false,
      "stateMutability": "view",
      "type": "function"
    },
    {
      "constant": true,
      "inputs": [
        {
          "internalType": "uint256",
          "name": "_checkpointTimestamp",
          "type": "uint256"
        }
      ],
      "name": "getCheckpointBlockNumber",
      "outputs": [
        {
          "internalType": "uint256",
          "name": "",
          "type": "uint256"
        }
      ],
      "payable": false,
      "stateMutability": "view",
      "type": "function"
    },
    {
      "constant": true,
      "inputs": [],
      "name": "getDeploymentBlock",
      "outputs": [
        {
          "internalType": "uint256",
          "name": "",
          "type": "uint256"
        }
      ],
      "payable": false,
      "stateMutability": "view",
      "type": "function"
    },
    {
      "constant": true,
      "inputs": [],
      "name": "getMaxDuration",
      "outputs": [
        {
          "internalType": "uint256",
          "name": "",
          "type": "uint256"
        }
      ],
      "payable": false,
      "stateMutability": "view",
      "type": "function"
    },
    {
      "constant": true,
      "inputs": [],
      "name": "getOsSOV",
      "outputs": [
        {
          "internalType": "contract IERC20Mintable",
          "name": "",
          "type": "address"
        }
      ],
      "payable": false,
      "stateMutability": "view",
      "type": "function"
    },
    {
      "constant": true,
      "inputs": [],
      "name": "getRewardsProgramStartTime",
      "outputs": [
        {
          "internalType": "uint256",
          "name": "",
          "type": "uint256"
        }
      ],
      "payable": false,
      "stateMutability": "view",
      "type": "function"
    },
    {
      "constant": true,
      "inputs": [
        {
          "internalType": "bool",
          "name": "_considerMaxDuration",
          "type": "bool"
        },
        {
          "internalType": "uint256",
          "name": "_startTime",
          "type": "uint256"
        }
      ],
      "name": "getStakerCurrentReward",
      "outputs": [
        {
          "internalType": "uint256",
          "name": "nextWithdrawTimestamp",
          "type": "uint256"
        },
        {
          "internalType": "uint256",
          "name": "amount",
          "type": "uint256"
        }
      ],
      "payable": false,
      "stateMutability": "view",
      "type": "function"
    },
    {
      "constant": true,
      "inputs": [
        {
          "internalType": "address",
          "name": "_staker",
          "type": "address"
        }
      ],
      "name": "getStakerNextWithdrawTimestamp",
      "outputs": [
        {
          "internalType": "uint256",
          "name": "",
          "type": "uint256"
        }
      ],
      "payable": false,
      "stateMutability": "view",
      "type": "function"
    },
    {
      "constant": true,
      "inputs": [],
      "name": "getStaking",
      "outputs": [
        {
          "internalType": "contract IStaking",
          "name": "",
          "type": "address"
        }
      ],
      "payable": false,
      "stateMutability": "view",
      "type": "function"
    },
    {
      "constant": true,
      "inputs": [],
      "name": "getStopBlock",
      "outputs": [
        {
          "internalType": "uint256",
          "name": "",
          "type": "uint256"
        }
      ],
      "payable": false,
      "stateMutability": "view",
      "type": "function"
    },
    {
      "constant": true,
      "inputs": [],
      "name": "getStopRewardsTimestamp",
      "outputs": [
        {
          "internalType": "uint256",
          "name": "",
          "type": "uint256"
        }
      ],
      "payable": false,
      "stateMutability": "view",
      "type": "function"
    },
    {
      "constant": false,
      "inputs": [
        {
          "internalType": "address",
          "name": "_osSOV",
          "type": "address"
        },
        {
          "internalType": "contract IStaking",
          "name": "_staking",
          "type": "address"
        },
        {
          "internalType": "uint256",
          "name": "_averageBlockTime",
          "type": "uint256"
        }
      ],
      "name": "initialize",
      "outputs": [],
      "payable": false,
      "stateMutability": "nonpayable",
      "type": "function"
    },
    {
      "constant": true,
      "inputs": [],
      "name": "isOwner",
      "outputs": [
        {
          "internalType": "bool",
          "name": "",
          "type": "bool"
        }
      ],
      "payable": false,
      "stateMutability": "view",
      "type": "function"
    },
    {
      "constant": true,
      "inputs": [],
      "name": "owner",
      "outputs": [
        {
          "internalType": "address",
          "name": "",
          "type": "address"
        }
      ],
      "payable": false,
      "stateMutability": "view",
      "type": "function"
    },
    {
      "constant": false,
      "inputs": [
        {
          "internalType": "uint256",
          "name": "_averageBlockTime",
          "type": "uint256"
        }
      ],
      "name": "setAverageBlockTime",
      "outputs": [],
      "payable": false,
      "stateMutability": "nonpayable",
      "type": "function"
    },
    {
      "constant": false,
      "inputs": [],
      "name": "setBlock",
      "outputs": [],
      "payable": false,
      "stateMutability": "nonpayable",
      "type": "function"
    },
    {
      "constant": false,
      "inputs": [
        {
          "internalType": "uint256",
          "name": "_time",
          "type": "uint256"
        }
      ],
      "name": "setHistoricalBlock",
      "outputs": [],
      "payable": false,
      "stateMutability": "nonpayable",
      "type": "function"
    },
    {
      "constant": false,
      "inputs": [
        {
          "internalType": "uint256",
          "name": "_duration",
          "type": "uint256"
        }
      ],
      "name": "setMaxDuration",
      "outputs": [],
      "payable": false,
      "stateMutability": "nonpayable",
      "type": "function"
    },
    {
      "constant": false,
      "inputs": [],
      "name": "stop",
      "outputs": [],
      "payable": false,
      "stateMutability": "nonpayable",
      "type": "function"
    },
    {
      "constant": false,
      "inputs": [
        {
          "internalType": "address",
          "name": "newOwner",
          "type": "address"
        }
      ],
      "name": "transferOwnership",
      "outputs": [],
      "payable": false,
      "stateMutability": "nonpayable",
      "type": "function"
    }
  ],
  "transactionHash": "0xa4e38ab743119101d20f9140cd6e90228f3fb967ebc967cc22273ba262585bde",
  "args": [],
  "numDeployments": 1,
  "solcInputHash": "fff63f863151350c652df943b3c6ea48",
  "bytecode": "0x608060405260006100176001600160e01b0361006616565b600080546001600160a01b0319166001600160a01b0383169081178255604051929350917f8be0079c531659141344cd1fd0a4f28419497f9722a3daafe3b4186f6b6457e0908290a35061006a565b3390565b611436806100796000396000f3fe608060405234801561001057600080fd5b50600436106101735760003560e01c8063934d1fa4116100de578063dffd356211610097578063f92ac1f111610071578063f92ac1f11461037b578063f9e28d0d146103a1578063fe5afe51146103a9578063fed73f66146103b157610173565b8063dffd356214610330578063f2fde38b1461034d578063f5f52e2e1461037357610173565b8063934d1fa4146102b9578063b49a2db9146102c1578063bd3507da146102c9578063ce6da7f2146102e6578063ceee6855146102ee578063cf0f34c41461031357610173565b8063722a23db11610130578063722a23db146102445780637b1391a61461026157806380d1cb35146102855780638da5cb5b1461028d5780638f32d59b146102955780638fd35c65146102b157610173565b8063066b3c041461017857806307da68f5146101c55780631794bb3c146101cf5780633410fe6e146102055780633736d8531461021f57806341910f901461023c575b600080fd5b6101ac6004803603606081101561018e57600080fd5b508035151590602081013590604001356001600160a01b03166103b9565b6040805192835260208301919091528051918290030190f35b6101cd6103d4565b005b6101cd600480360360608110156101e557600080fd5b506001600160a01b038135811691602081013590911690604001356104ea565b61020d61072d565b60408051918252519081900360200190f35b6101cd6004803603602081101561023557600080fd5b5035610734565b61020d610781565b61020d6004803603602081101561025a57600080fd5b5035610787565b610269610799565b604080516001600160a01b039092168252519081900360200190f35b61020d6107a8565b6102696107ae565b61029d6107bd565b604080519115158252519081900360200190f35b6102696107e1565b61020d6107f0565b61020d6107f7565b6101cd600480360360208110156102df57600080fd5b50356107fd565b61020d6108f4565b6101ac6004803603604081101561030457600080fd5b508035151590602001356108fa565b6101cd6004803603602081101561032957600080fd5b5035610913565b6101cd6004803603602081101561034657600080fd5b5035610960565b6101cd6004803603602081101561036357600080fd5b50356001600160a01b031661096c565b61020d6109bd565b61020d6004803603602081101561039157600080fd5b50356001600160a01b03166109c3565b61020d6109de565b6101cd6109e4565b61020d610a66565b6000806103c7838686610a6c565b915091505b935093915050565b6103dc6107bd565b61041c576040805162461bcd60e51b815260206004820152600c60248201526b1d5b985d5d1a1bdc9a5e995960a21b604482015290519081900360640190fd5b60055415610463576040805162461bcd60e51b815260206004820152600f60248201526e105b1c9958591e481cdd1bdc1c1959608a1b604482015290519081900360640190fd5b61046b610dcf565b600555600254604080516372ec979560e01b815242600482015290516001600160a01b03909216916372ec979591602480820192602092909190829003018186803b1580156104b957600080fd5b505afa1580156104cd573d6000803e3d6000fd5b505050506040513d60208110156104e357600080fd5b5051600655565b6104f26107bd565b610532576040805162461bcd60e51b815260206004820152600c60248201526b1d5b985d5d1a1bdc9a5e995960a21b604482015290519081900360640190fd5b600c54610100900460ff168061054b5750600c5460ff16155b6105865760405162461bcd60e51b815260040180806020018281038252602e8152602001806113b3602e913960400191505060405180910390fd5b600c54610100900460ff161580156105b157600c805460ff1961ff0019909116610100171660011790555b6001600160a01b038416610604576040805162461bcd60e51b8152602060048201526015602482015274496e76616c6964204f73534f56204164647265737360581b604482015290519081900360640190fd5b61060d84610dd3565b61065e576040805162461bcd60e51b815260206004820152601760248201527f4f73534f56206973206e6f74206120636f6e7472616374000000000000000000604482015290519081900360640190fd5b600180546001600160a01b038087166001600160a01b0319928316179092556002805486841692169190911790819055604080516372ec979560e01b8152426004820152905191909216916372ec9795916024808301926020929190829003018186803b1580156106ce57600080fd5b505afa1580156106e2573d6000803e3d6000fd5b505050506040513d60208110156106f857600080fd5b5051600455630114db0060035561070d610dcf565b600955600b829055801561072757600c805461ff00191690555b50505050565b6227ac4081565b61073c6107bd565b61077c576040805162461bcd60e51b815260206004820152600c60248201526b1d5b985d5d1a1bdc9a5e995960a21b604482015290519081900360640190fd5b600b55565b61038481565b6000908152600a602052604090205490565b6002546001600160a01b031690565b60095490565b6000546001600160a01b031690565b600080546001600160a01b03166107d2610e0f565b6001600160a01b031614905090565b6001546001600160a01b031690565b6212750081565b60035490565b600554158061081c575060065433600090815260076020526040902054105b61086d576040805162461bcd60e51b815260206004820152601a60248201527f456e746972652072657761726420616c72656164792070616964000000000000604482015290519081900360640190fd5b60008061087c33600185610a6c565b915091506000821180156108905750600081115b6108d3576040805162461bcd60e51b815260206004820152600f60248201526e139bc81d985b1a59081c995dd85c99608a1b604482015290519081900360640190fd5b3360008181526007602052604090208390556108ef9082610e13565b505050565b60065490565b600080610908338585610a6c565b915091509250929050565b61091b6107bd565b61095b576040805162461bcd60e51b815260206004820152600c60248201526b1d5b985d5d1a1bdc9a5e995960a21b604482015290519081900360640190fd5b600355565b61096981610f41565b50565b6109746107bd565b6109b4576040805162461bcd60e51b815260206004820152600c60248201526b1d5b985d5d1a1bdc9a5e995960a21b604482015290519081900360640190fd5b61096981610ff5565b60055490565b6001600160a01b031660009081526007602052604090205490565b600b5490565b600254604080516372ec979560e01b815242600482015290516000926001600160a01b0316916372ec9795916024808301926020929190829003018186803b158015610a2f57600080fd5b505afa158015610a43573d6000803e3d6000fd5b505050506040513d6020811015610a5957600080fd5b5051905061096981610f41565b60045490565b600080600080610a7a611372565b6001600160a01b03881660009081526007602052604081205460055415801590610aa5575060065481115b15610aba579550600094506103cc9350505050565b600454881015610add5760008111610ad457600454610ad6565b805b8352610b68565b80881115610b6457600254604080516372ec979560e01b8152600481018b905290516001600160a01b03909216916372ec979591602480820192602092909190829003018186803b158015610b3157600080fd5b505afa158015610b45573d6000803e3d6000fd5b505050506040513d6020811015610b5b57600080fd5b50518352610b68565b8083525b600254604080516372ec979560e01b815242600482015290516001600160a01b03909216916372ec979591602480820192602092909190829003018186803b158015610bb357600080fd5b505afa158015610bc7573d6000803e3d6000fd5b505050506040513d6020811015610bdd57600080fd5b505191508815610c8d5760025460035484516000926001600160a01b0316916372ec979591610c119163ffffffff61109516565b6040518263ffffffff1660e01b81526004018082815260200191505060206040518083038186803b158015610c4557600080fd5b505afa158015610c59573d6000803e3d6000fd5b505050506040513d6020811015610c6f57600080fd5b50519050828111610c805780610c82565b825b602085015250610c95565b602083018290525b6000600654118015610cad5750600654836020015110155b15610cce57600654610cc8906212750063ffffffff61109516565b60208401525b602083015183511115610cec575050519350600092506103cc915050565b6001610cf6610dcf565b845191900394505b8360200151811015610d8c576000818152600a602052604090205480610d5557600b54610d5290610d4590610d39428663ffffffff6110f816565b9063ffffffff61113a16565b879063ffffffff6110f816565b90505b600954811015610d6457506009545b610d7f610d728d838561117c565b889063ffffffff61109516565b9650506212750001610cfe565b506020830151610da5906212750063ffffffff61109516565b9650610dc06227ac40610d398761038463ffffffff61121d16565b95505050505050935093915050565b4390565b6000813f7fc5d2460186f7233c927e7db2dcc703c0e500b653ca82273b7bfad8045d85a470818114801590610e0757508115155b949350505050565b3390565b80610e56576040805162461bcd60e51b815260206004820152600e60248201526d185b5bdd5b9d081a5b9d985b1a5960921b604482015290519081900360640190fd5b6001600160a01b038216600090815260086020526040902054610e7f908263ffffffff61109516565b6001600160a01b038084166000818152600860205260408082209490945560015484516340c10f1960e01b8152600481019390935260248301869052935193909216926340c10f199260448084019391929182900301818387803b158015610ee657600080fd5b505af1158015610efa573d6000803e3d6000fd5b50506040805184815290516001600160a01b03861693507f1d3eee4ca001cff39eec6ec7615aacf2f2bd61791273830728ba00ccbd6e133792509081900360200190a25050565b60006001610f4d610dcf565b6000848152600a6020526040902054919003915015610fb3576040805162461bcd60e51b815260206004820152601860248201527f626c6f636b206e756d62657220616c7265616479207365740000000000000000604482015290519081900360640190fd5b6000610fde610fd1600b54610d3986426110f890919063ffffffff16565b839063ffffffff6110f816565b6000938452600a6020526040909320929092555050565b6001600160a01b03811661103a5760405162461bcd60e51b815260040180806020018281038252602681526020018061138d6026913960400191505060405180910390fd5b600080546040516001600160a01b03808516939216917f8be0079c531659141344cd1fd0a4f28419497f9722a3daafe3b4186f6b6457e091a3600080546001600160a01b0319166001600160a01b0392909216919091179055565b6000828201838110156110ef576040805162461bcd60e51b815260206004820152601b60248201527f536166654d6174683a206164646974696f6e206f766572666c6f770000000000604482015290519081900360640190fd5b90505b92915050565b60006110ef83836040518060400160405280601e81526020017f536166654d6174683a207375627472616374696f6e206f766572666c6f770000815250611276565b60006110ef83836040518060400160405280601a81526020017f536166654d6174683a206469766973696f6e206279207a65726f00000000000081525061130d565b600254604080516337e6b1c160e01b81526001600160a01b0386811660048301526024820186905260448201859052915160009392909216916337e6b1c191606480820192602092909190829003018186803b1580156111db57600080fd5b505afa1580156111ef573d6000803e3d6000fd5b505050506040513d602081101561120557600080fd5b50516bffffffffffffffffffffffff16949350505050565b60008261122c575060006110f2565b8282028284828161123957fe5b04146110ef5760405162461bcd60e51b81526004018080602001828103825260218152602001806113e16021913960400191505060405180910390fd5b600081848411156113055760405162461bcd60e51b81526004018080602001828103825283818151815260200191508051906020019080838360005b838110156112ca5781810151838201526020016112b2565b50505050905090810190601f1680156112f75780820380516001836020036101000a031916815260200191505b509250505060405180910390fd5b505050900390565b6000818361135c5760405162461bcd60e51b81526020600482018181528351602484015283519092839260449091019190850190808383600083156112ca5781810151838201526020016112b2565b50600083858161136857fe5b0495945050505050565b60405180604001604052806000815260200160008152509056fe4f776e61626c653a206e6577206f776e657220697320746865207a65726f2061646472657373496e697469616c697a61626c653a20636f6e747261637420697320616c726561647920696e697469616c697a6564536166654d6174683a206d756c7469706c69636174696f6e206f766572666c6f77a265627a7a72315820a968aa1d1c21f9ba9e804fef932b96a73550d9f45df4cbf05f1c854e9ef705d364736f6c63430005110032",
  "devdoc": {
    "methods": {
      "collectReward(uint256)": {
        "details": "User calls this function to collect osSOV staking rewards accrued by this contract The weighted stake is calculated using getPriorWeightedStake. Block number sent to the functon must be a finalised block, hence we deduct 1 from the current block. User is only allowed to withdraw after intervals of 14 days.",
        "params": {
          "_startTime": "The time from which to start the staking rewards calculation The issue is that we can only run for a max duration and if someone stakes for the first time after the max duration is over, the reward will always return 0. Thus, we need to restart from the duration that elapsed without generating rewards."
        }
      },
      "getArbitraryStakerCurrentReward(bool,uint256,address)": {
        "details": "getArbitraryStakerCurrentReward function internally calls this function to calculate reward amount",
        "params": {
          "_considerMaxDuration": "True: Runs for the maximum duration - used in tx not to run out of gas False - to query total rewards",
          "_staker": "The staker address to calculate rewards for",
          "_startTime": "The time from which the staking rewards calculation shall restart."
        },
        "return": "The timestamp of last withdrawalThe accumulated reward"
      },
      "getCheckpointBlockNumber(uint256)": {
        "params": {
          "_checkpointTimestamp": "Checkpoint timestamp"
        }
      },
      "getStakerCurrentReward(bool,uint256)": {
        "details": "getStakerCurrentReward function internally calls this function to calculate reward amount of msg.sender",
        "params": {
          "_considerMaxDuration": "True: Runs for the maximum duration - used in tx not to run out of gas False - to query total rewards",
          "_startTime": "The time from which the staking rewards calculation shall restart."
        },
        "return": "The timestamp of last withdrawalThe accumulated reward"
      },
      "initialize(address,address,uint256)": {
        "params": {
          "_averageBlockTime": "average block time used for calculating rewards",
          "_osSOV": "osSOV token address",
          "_staking": "StakingProxy address should be passed"
        }
      },
      "isOwner()": {
        "details": "Returns true if the caller is the current owner."
      },
      "owner()": {
        "details": "Returns the address of the current owner."
      },
      "setAverageBlockTime(uint256)": {
        "details": "If average block time significantly changes, we can update it here and use for block number calculation",
        "params": {
          "_averageBlockTime": "- average block time used for calculating checkpoint blocks"
        }
      },
      "setHistoricalBlock(uint256)": {
        "params": {
          "_time": "Exact staking checkpoint time"
        }
      },
      "setMaxDuration(uint256)": {
        "details": "Rewards can be collected for a maximum duration at a time. This is to avoid Block Gas Limit failures. Setting it zero would mean that it will loop through the entire duration since the start of rewards program. It should ideally be set to a value, for which the rewards can be easily processed.",
        "params": {
          "_duration": "Max duration for which rewards can be collected at a go (in seconds)"
        }
      },
      "stop()": {
        "details": "Users will only get rewards up to the stop block"
      },
      "transferOwnership(address)": {
        "details": "Transfers ownership of the contract to a new account (`newOwner`). Can only be called by the current owner."
      }
    },
    "title": "Staking Rewards Contract."
  },
  "userdoc": {
    "methods": {
      "collectReward(uint256)": {
        "notice": "Collect rewards"
      },
      "getArbitraryStakerCurrentReward(bool,uint256,address)": {
        "notice": "Get any staker's current accumulated reward"
      },
      "getStakerCurrentReward(bool,uint256)": {
        "notice": "Get staker's current accumulated reward"
      },
      "initialize(address,address,uint256)": {
        "notice": "Replacement of constructor by initialize function for Upgradable Contracts This function will be called only once by the owner."
      },
      "setAverageBlockTime(uint256)": {
        "notice": "Changes average block time - based on blockchain"
      },
      "setBlock()": {
        "notice": "This function computes the last staking checkpoint and calculates the corresponding block number using the average block time which is then added to the mapping `checkpointBlockNumber`."
      },
      "setHistoricalBlock(uint256)": {
        "notice": "This function computes the block number using the average block time for a given historical checkpoint which is added to the mapping `checkpointBlockNumber`."
      },
      "setMaxDuration(uint256)": {
        "notice": "Sets the max duration"
      },
      "stop()": {
        "notice": "Stops the current rewards program."
      }
    },
    "notice": "This is a trial incentive program. In this, the osSOV minted to voluntary stakers and is locked until transferred to BitcoinOS"
  },
  "storageLayout": {
    "storage": [
      {
        "astId": 55491,
        "contract": "contracts/governance/StakingRewards/StakingRewardsOs.sol:StakingRewardsOs",
        "label": "_owner",
        "offset": 0,
        "slot": "0",
        "type": "t_address"
      },
      {
        "astId": 25055,
        "contract": "contracts/governance/StakingRewards/StakingRewardsOs.sol:StakingRewardsOs",
        "label": "osSOV",
        "offset": 0,
        "slot": "1",
        "type": "t_contract(IERC20Mintable)34134"
      },
      {
        "astId": 25057,
        "contract": "contracts/governance/StakingRewards/StakingRewardsOs.sol:StakingRewardsOs",
        "label": "staking",
        "offset": 0,
        "slot": "2",
        "type": "t_contract(IStaking)17840"
      },
      {
        "astId": 25059,
        "contract": "contracts/governance/StakingRewards/StakingRewardsOs.sol:StakingRewardsOs",
        "label": "maxDuration",
        "offset": 0,
        "slot": "3",
        "type": "t_uint256"
      },
      {
        "astId": 25061,
        "contract": "contracts/governance/StakingRewards/StakingRewardsOs.sol:StakingRewardsOs",
        "label": "rewardsProgramStartTime",
        "offset": 0,
        "slot": "4",
        "type": "t_uint256"
      },
      {
        "astId": 25063,
        "contract": "contracts/governance/StakingRewards/StakingRewardsOs.sol:StakingRewardsOs",
        "label": "stopBlock",
        "offset": 0,
        "slot": "5",
        "type": "t_uint256"
      },
      {
        "astId": 25065,
        "contract": "contracts/governance/StakingRewards/StakingRewardsOs.sol:StakingRewardsOs",
        "label": "stopRewardsTimestamp",
        "offset": 0,
        "slot": "6",
        "type": "t_uint256"
      },
      {
        "astId": 25069,
        "contract": "contracts/governance/StakingRewards/StakingRewardsOs.sol:StakingRewardsOs",
        "label": "stakerNextWithdrawTimestamp",
        "offset": 0,
        "slot": "7",
        "type": "t_mapping(t_address,t_uint256)"
      },
      {
        "astId": 25073,
        "contract": "contracts/governance/StakingRewards/StakingRewardsOs.sol:StakingRewardsOs",
        "label": "claimedBalances",
        "offset": 0,
        "slot": "8",
        "type": "t_mapping(t_address,t_uint256)"
      },
      {
        "astId": 25075,
        "contract": "contracts/governance/StakingRewards/StakingRewardsOs.sol:StakingRewardsOs",
        "label": "deploymentBlock",
        "offset": 0,
        "slot": "9",
        "type": "t_uint256"
      },
      {
        "astId": 25079,
        "contract": "contracts/governance/StakingRewards/StakingRewardsOs.sol:StakingRewardsOs",
        "label": "checkpointBlockNumber",
        "offset": 0,
        "slot": "10",
        "type": "t_mapping(t_uint256,t_uint256)"
      },
      {
        "astId": 25081,
        "contract": "contracts/governance/StakingRewards/StakingRewardsOs.sol:StakingRewardsOs",
        "label": "averageBlockTime",
        "offset": 0,
        "slot": "11",
        "type": "t_uint256"
      },
      {
        "astId": 55446,
        "contract": "contracts/governance/StakingRewards/StakingRewardsOs.sol:StakingRewardsOs",
        "label": "_initialized",
        "offset": 0,
        "slot": "12",
        "type": "t_bool"
      },
      {
        "astId": 55448,
        "contract": "contracts/governance/StakingRewards/StakingRewardsOs.sol:StakingRewardsOs",
        "label": "_initializing",
        "offset": 1,
        "slot": "12",
        "type": "t_bool"
      }
    ],
    "types": {
      "t_address": {
        "encoding": "inplace",
        "label": "address",
        "numberOfBytes": "20"
      },
      "t_bool": {
        "encoding": "inplace",
        "label": "bool",
        "numberOfBytes": "1"
      },
      "t_contract(IERC20Mintable)34134": {
        "encoding": "inplace",
        "label": "contract IERC20Mintable",
        "numberOfBytes": "20"
      },
      "t_contract(IStaking)17840": {
        "encoding": "inplace",
        "label": "contract IStaking",
        "numberOfBytes": "20"
      },
      "t_mapping(t_address,t_uint256)": {
        "encoding": "mapping",
        "key": "t_address",
        "label": "mapping(address => uint256)",
        "numberOfBytes": "32",
        "value": "t_uint256"
      },
      "t_mapping(t_uint256,t_uint256)": {
        "encoding": "mapping",
        "key": "t_uint256",
        "label": "mapping(uint256 => uint256)",
        "numberOfBytes": "32",
        "value": "t_uint256"
      },
      "t_uint256": {
        "encoding": "inplace",
        "label": "uint256",
        "numberOfBytes": "32"
      }
    }
  }
}