{
    "address": "0x48c36F42D5FF6833EdAFc12b18e85D9db6271159",
    "abi": [
        {
            "anonymous": false,
            "inputs": [
                {
                    "indexed": false,
                    "internalType": "bytes32",
                    "name": "hash",
                    "type": "bytes32"
                }
            ],
            "name": "ContractCodeHashAdded",
            "type": "event"
        },
        {
            "anonymous": false,
            "inputs": [
                {
                    "indexed": false,
                    "internalType": "bytes32",
                    "name": "hash",
                    "type": "bytes32"
                }
            ],
            "name": "ContractCodeHashRemoved",
            "type": "event"
        },
        {
            "anonymous": false,
            "inputs": [
                {
                    "indexed": true,
                    "internalType": "address",
                    "name": "previousOwner",
                    "type": "address"
                },
                {
                    "indexed": true,
                    "internalType": "address",
                    "name": "newOwner",
                    "type": "address"
                }
            ],
            "name": "OwnershipTransferred",
            "type": "event"
        },
        {
            "anonymous": false,
            "inputs": [
                {
                    "indexed": false,
                    "internalType": "uint256",
                    "name": "lockedTS",
                    "type": "uint256"
                },
                {
                    "indexed": false,
                    "internalType": "uint96",
                    "name": "value",
                    "type": "uint96"
                }
            ],
            "name": "VestingStakeSet",
            "type": "event"
        },
        {
            "constant": true,
            "inputs": [],
            "name": "DELEGATION_TYPEHASH",
            "outputs": [
                {
                    "internalType": "bytes32",
                    "name": "",
                    "type": "bytes32"
                }
            ],
            "payable": false,
            "stateMutability": "view",
            "type": "function"
        },
        {
            "constant": true,
            "inputs": [],
            "name": "DOMAIN_TYPEHASH",
            "outputs": [
                {
                    "internalType": "bytes32",
                    "name": "",
                    "type": "bytes32"
                }
            ],
            "payable": false,
            "stateMutability": "view",
            "type": "function"
        },
        {
            "constant": true,
            "inputs": [],
            "name": "MAX_DURATION",
            "outputs": [
                {
                    "internalType": "uint256",
                    "name": "",
                    "type": "uint256"
                }
            ],
            "payable": false,
            "stateMutability": "view",
            "type": "function"
        },
        {
            "constant": true,
            "inputs": [],
            "name": "MAX_VOTING_WEIGHT",
            "outputs": [
                {
                    "internalType": "uint96",
                    "name": "",
                    "type": "uint96"
                }
            ],
            "payable": false,
            "stateMutability": "view",
            "type": "function"
        },
        {
            "constant": true,
            "inputs": [],
            "name": "SOVToken",
            "outputs": [
                {
                    "internalType": "contract IERC20",
                    "name": "",
                    "type": "address"
                }
            ],
            "payable": false,
            "stateMutability": "view",
            "type": "function"
        },
        {
            "constant": true,
            "inputs": [],
            "name": "WEIGHT_FACTOR",
            "outputs": [
                {
                    "internalType": "uint96",
                    "name": "",
                    "type": "uint96"
                }
            ],
            "payable": false,
            "stateMutability": "view",
            "type": "function"
        },
        {
            "constant": false,
            "inputs": [
                {
                    "internalType": "address",
                    "name": "vesting",
                    "type": "address"
                }
            ],
            "name": "addContractCodeHash",
            "outputs": [],
            "payable": false,
            "stateMutability": "nonpayable",
            "type": "function"
        },
        {
            "constant": true,
            "inputs": [
                {
                    "internalType": "address",
                    "name": "",
                    "type": "address"
                }
            ],
            "name": "admins",
            "outputs": [
                {
                    "internalType": "bool",
                    "name": "",
                    "type": "bool"
                }
            ],
            "payable": false,
            "stateMutability": "view",
            "type": "function"
        },
        {
            "constant": true,
            "inputs": [],
            "name": "allUnlocked",
            "outputs": [
                {
                    "internalType": "bool",
                    "name": "",
                    "type": "bool"
                }
            ],
            "payable": false,
            "stateMutability": "view",
            "type": "function"
        },
        {
            "constant": true,
            "inputs": [
                {
                    "internalType": "address",
                    "name": "",
                    "type": "address"
                },
                {
                    "internalType": "uint256",
                    "name": "",
                    "type": "uint256"
                },
                {
                    "internalType": "uint32",
                    "name": "",
                    "type": "uint32"
                }
            ],
            "name": "delegateStakingCheckpoints",
            "outputs": [
                {
                    "internalType": "uint32",
                    "name": "fromBlock",
                    "type": "uint32"
                },
                {
                    "internalType": "uint96",
                    "name": "stake",
                    "type": "uint96"
                }
            ],
            "payable": false,
            "stateMutability": "view",
            "type": "function"
        },
        {
            "constant": true,
            "inputs": [
                {
                    "internalType": "address",
                    "name": "",
                    "type": "address"
                },
                {
                    "internalType": "uint256",
                    "name": "",
                    "type": "uint256"
                }
            ],
            "name": "delegates",
            "outputs": [
                {
                    "internalType": "address",
                    "name": "",
                    "type": "address"
                }
            ],
            "payable": false,
            "stateMutability": "view",
            "type": "function"
        },
        {
            "constant": true,
            "inputs": [],
            "name": "feeSharing",
            "outputs": [
                {
                    "internalType": "contract IFeeSharingCollector",
                    "name": "",
                    "type": "address"
                }
            ],
            "payable": false,
            "stateMutability": "view",
            "type": "function"
        },
        {
            "constant": true,
            "inputs": [],
            "name": "frozen",
            "outputs": [
                {
                    "internalType": "bool",
                    "name": "",
                    "type": "bool"
                }
            ],
            "payable": false,
            "stateMutability": "view",
            "type": "function"
        },
        {
            "constant": true,
            "inputs": [],
            "name": "getFunctionsList",
            "outputs": [
                {
                    "internalType": "bytes4[]",
                    "name": "",
                    "type": "bytes4[]"
                }
            ],
            "payable": false,
            "stateMutability": "pure",
            "type": "function"
        },
        {
            "constant": true,
            "inputs": [
                {
                    "internalType": "address",
                    "name": "account",
                    "type": "address"
                },
                {
                    "internalType": "uint256",
                    "name": "date",
                    "type": "uint256"
                },
                {
                    "internalType": "uint256",
                    "name": "blockNumber",
                    "type": "uint256"
                }
            ],
            "name": "getPriorUserStakeByDate",
            "outputs": [
                {
                    "internalType": "uint96",
                    "name": "",
                    "type": "uint96"
                }
            ],
            "payable": false,
            "stateMutability": "view",
            "type": "function"
        },
        {
            "constant": true,
            "inputs": [
                {
                    "internalType": "uint256",
                    "name": "date",
                    "type": "uint256"
                },
                {
                    "internalType": "uint256",
                    "name": "blockNumber",
                    "type": "uint256"
                }
            ],
            "name": "getPriorVestingStakeByDate",
            "outputs": [
                {
                    "internalType": "uint96",
                    "name": "",
                    "type": "uint96"
                }
            ],
            "payable": false,
            "stateMutability": "view",
            "type": "function"
        },
        {
            "constant": true,
            "inputs": [
                {
                    "internalType": "uint256",
                    "name": "blockNumber",
                    "type": "uint256"
                },
                {
                    "internalType": "uint256",
                    "name": "date",
                    "type": "uint256"
                }
            ],
            "name": "getPriorVestingWeightedStake",
            "outputs": [
                {
                    "internalType": "uint96",
                    "name": "votes",
                    "type": "uint96"
                }
            ],
            "payable": false,
            "stateMutability": "view",
            "type": "function"
        },
        {
            "constant": true,
            "inputs": [],
            "name": "isOwner",
            "outputs": [
                {
                    "internalType": "bool",
                    "name": "",
                    "type": "bool"
                }
            ],
            "payable": false,
            "stateMutability": "view",
            "type": "function"
        },
        {
            "constant": true,
            "inputs": [
                {
                    "internalType": "address",
                    "name": "stakerAddress",
                    "type": "address"
                }
            ],
            "name": "isVestingContract",
            "outputs": [
                {
                    "internalType": "bool",
                    "name": "",
                    "type": "bool"
                }
            ],
            "payable": false,
            "stateMutability": "view",
            "type": "function"
        },
        {
            "constant": true,
            "inputs": [],
            "name": "kickoffTS",
            "outputs": [
                {
                    "internalType": "uint256",
                    "name": "",
                    "type": "uint256"
                }
            ],
            "payable": false,
            "stateMutability": "view",
            "type": "function"
        },
        {
            "constant": true,
            "inputs": [],
            "name": "newStakingContract",
            "outputs": [
                {
                    "internalType": "address",
                    "name": "",
                    "type": "address"
                }
            ],
            "payable": false,
            "stateMutability": "view",
            "type": "function"
        },
        {
            "constant": true,
            "inputs": [
                {
                    "internalType": "address",
                    "name": "",
                    "type": "address"
                }
            ],
            "name": "nonces",
            "outputs": [
                {
                    "internalType": "uint256",
                    "name": "",
                    "type": "uint256"
                }
            ],
            "payable": false,
            "stateMutability": "view",
            "type": "function"
        },
        {
            "constant": true,
            "inputs": [
                {
                    "internalType": "address",
                    "name": "",
                    "type": "address"
                },
                {
                    "internalType": "uint256",
                    "name": "",
                    "type": "uint256"
                }
            ],
            "name": "numDelegateStakingCheckpoints",
            "outputs": [
                {
                    "internalType": "uint32",
                    "name": "",
                    "type": "uint32"
                }
            ],
            "payable": false,
            "stateMutability": "view",
            "type": "function"
        },
        {
            "constant": true,
            "inputs": [
                {
                    "internalType": "uint256",
                    "name": "",
                    "type": "uint256"
                }
            ],
            "name": "numTotalStakingCheckpoints",
            "outputs": [
                {
                    "internalType": "uint32",
                    "name": "",
                    "type": "uint32"
                }
            ],
            "payable": false,
            "stateMutability": "view",
            "type": "function"
        },
        {
            "constant": true,
            "inputs": [
                {
                    "internalType": "address",
                    "name": "",
                    "type": "address"
                },
                {
                    "internalType": "uint256",
                    "name": "",
                    "type": "uint256"
                }
            ],
            "name": "numUserStakingCheckpoints",
            "outputs": [
                {
                    "internalType": "uint32",
                    "name": "",
                    "type": "uint32"
                }
            ],
            "payable": false,
            "stateMutability": "view",
            "type": "function"
        },
        {
            "constant": true,
            "inputs": [
                {
                    "internalType": "uint256",
                    "name": "",
                    "type": "uint256"
                }
            ],
            "name": "numVestingCheckpoints",
            "outputs": [
                {
                    "internalType": "uint32",
                    "name": "",
                    "type": "uint32"
                }
            ],
            "payable": false,
            "stateMutability": "view",
            "type": "function"
        },
        {
            "constant": true,
            "inputs": [],
            "name": "owner",
            "outputs": [
                {
                    "internalType": "address",
                    "name": "",
                    "type": "address"
                }
            ],
            "payable": false,
            "stateMutability": "view",
            "type": "function"
        },
        {
            "constant": true,
            "inputs": [],
            "name": "paused",
            "outputs": [
                {
                    "internalType": "bool",
                    "name": "",
                    "type": "bool"
                }
            ],
            "payable": false,
            "stateMutability": "view",
            "type": "function"
        },
        {
            "constant": true,
            "inputs": [
                {
                    "internalType": "address",
                    "name": "",
                    "type": "address"
                }
            ],
            "name": "pausers",
            "outputs": [
                {
                    "internalType": "bool",
                    "name": "",
                    "type": "bool"
                }
            ],
            "payable": false,
            "stateMutability": "view",
            "type": "function"
        },
        {
            "constant": false,
            "inputs": [
                {
                    "internalType": "address",
                    "name": "vesting",
                    "type": "address"
                }
            ],
            "name": "removeContractCodeHash",
            "outputs": [],
            "payable": false,
            "stateMutability": "nonpayable",
            "type": "function"
        },
        {
            "constant": false,
            "inputs": [
                {
                    "internalType": "address",
                    "name": "_vestingRegistryProxy",
                    "type": "address"
                }
            ],
            "name": "setVestingRegistry",
            "outputs": [],
            "payable": false,
            "stateMutability": "nonpayable",
            "type": "function"
        },
        {
            "constant": false,
            "inputs": [
                {
                    "internalType": "uint256[]",
                    "name": "lockedDates",
                    "type": "uint256[]"
                },
                {
                    "internalType": "uint96[]",
                    "name": "values",
                    "type": "uint96[]"
                }
            ],
            "name": "setVestingStakes",
            "outputs": [],
            "payable": false,
            "stateMutability": "nonpayable",
            "type": "function"
        },
        {
            "constant": true,
            "inputs": [
                {
                    "internalType": "uint256",
                    "name": "",
                    "type": "uint256"
                },
                {
                    "internalType": "uint32",
                    "name": "",
                    "type": "uint32"
                }
            ],
            "name": "totalStakingCheckpoints",
            "outputs": [
                {
                    "internalType": "uint32",
                    "name": "fromBlock",
                    "type": "uint32"
                },
                {
                    "internalType": "uint96",
                    "name": "stake",
                    "type": "uint96"
                }
            ],
            "payable": false,
            "stateMutability": "view",
            "type": "function"
        },
        {
            "constant": false,
            "inputs": [
                {
                    "internalType": "address",
                    "name": "newOwner",
                    "type": "address"
                }
            ],
            "name": "transferOwnership",
            "outputs": [],
            "payable": false,
            "stateMutability": "nonpayable",
            "type": "function"
        },
        {
            "constant": true,
            "inputs": [
                {
                    "internalType": "address",
                    "name": "",
                    "type": "address"
                },
                {
                    "internalType": "uint256",
                    "name": "",
                    "type": "uint256"
                },
                {
                    "internalType": "uint32",
                    "name": "",
                    "type": "uint32"
                }
            ],
            "name": "userStakingCheckpoints",
            "outputs": [
                {
                    "internalType": "uint32",
                    "name": "fromBlock",
                    "type": "uint32"
                },
                {
                    "internalType": "uint96",
                    "name": "stake",
                    "type": "uint96"
                }
            ],
            "payable": false,
            "stateMutability": "view",
            "type": "function"
        },
        {
            "constant": true,
            "inputs": [
                {
                    "internalType": "uint256",
                    "name": "",
                    "type": "uint256"
                },
                {
                    "internalType": "uint32",
                    "name": "",
                    "type": "uint32"
                }
            ],
            "name": "vestingCheckpoints",
            "outputs": [
                {
                    "internalType": "uint32",
                    "name": "fromBlock",
                    "type": "uint32"
                },
                {
                    "internalType": "uint96",
                    "name": "stake",
                    "type": "uint96"
                }
            ],
            "payable": false,
            "stateMutability": "view",
            "type": "function"
        },
        {
            "constant": true,
            "inputs": [
                {
                    "internalType": "bytes32",
                    "name": "",
                    "type": "bytes32"
                }
            ],
            "name": "vestingCodeHashes",
            "outputs": [
                {
                    "internalType": "bool",
                    "name": "",
                    "type": "bool"
                }
            ],
            "payable": false,
            "stateMutability": "view",
            "type": "function"
        },
        {
            "constant": true,
            "inputs": [],
            "name": "vestingRegistryLogic",
            "outputs": [
                {
                    "internalType": "contract IVestingRegistry",
                    "name": "",
                    "type": "address"
                }
            ],
            "payable": false,
            "stateMutability": "view",
            "type": "function"
        },
        {
            "constant": true,
            "inputs": [
                {
                    "internalType": "address",
                    "name": "",
                    "type": "address"
                }
            ],
            "name": "vestingWhitelist",
            "outputs": [
                {
                    "internalType": "bool",
                    "name": "",
                    "type": "bool"
                }
            ],
            "payable": false,
            "stateMutability": "view",
            "type": "function"
        },
        {
            "constant": true,
            "inputs": [],
            "name": "weightScaling",
            "outputs": [
                {
                    "internalType": "uint96",
                    "name": "",
                    "type": "uint96"
                }
            ],
            "payable": false,
            "stateMutability": "view",
            "type": "function"
        },
        {
            "constant": true,
            "inputs": [
                {
                    "internalType": "uint256",
                    "name": "date",
                    "type": "uint256"
                },
                {
                    "internalType": "uint256",
                    "name": "startDate",
                    "type": "uint256"
                },
                {
                    "internalType": "uint256",
                    "name": "blockNumber",
                    "type": "uint256"
                }
            ],
            "name": "weightedVestingStakeByDate",
            "outputs": [
                {
                    "internalType": "uint96",
                    "name": "power",
                    "type": "uint96"
                }
            ],
            "payable": false,
            "stateMutability": "view",
            "type": "function"
        }
    ],
    "transactionHash": "0x625f6257b156a675fa4048f93aecee82631564a5fea3329ac49c71d32cede4ca",
    "args": [],
    "numDeployments": 2,
    "solcInputHash": "5aac57e986071e917d667feba06fc19b",
    "bytecode": "0x60c0604052600a608081905269534f565374616b696e6760b01b60a09081526200002d9160029190620000ae565b506005805460ff19169055600d80546001600160a01b0316600360a01b179055600062000059620000a9565b600080546001600160a01b0319166001600160a01b0383169081178255604051929350917f8be0079c531659141344cd1fd0a4f28419497f9722a3daafe3b4186f6b6457e0908290a35062000150565b335b90565b828054600181600116156101000203166002900490600052602060002090601f016020900481019282601f10620000f157805160ff191683800117855562000121565b8280016001018555821562000121579182015b828111156200012157825182559160200191906001019062000104565b506200012f92915062000133565b5090565b620000ab91905b808211156200012f57600081556001016200013a565b61238380620001606000396000f3fe608060405234801561001057600080fd5b50600436106102525760003560e01c806394c2ce5811610146578063c70a7e96116100c3578063d8ad326d11610087578063d8ad326d146104b2578063db27ec18146104c7578063dfb267c2146104da578063e7a324dc146104ed578063f2fde38b146104f5578063f3f197311461050857610252565b8063c70a7e961461045e578063ca6860df14610471578063cdbe715514610484578063cf7b684a14610497578063d27569e7146104aa57610252565b8063ae81dfe41161010a578063ae81dfe414610420578063b1724b4614610428578063ba21c6d714610430578063bb533cf214610443578063bf626ec11461045657610252565b806394c2ce58146103d75780639929e886146103ea578063a20d8d03146103f2578063a58848c514610405578063adae90021461040d57610252565b8063450b0601116101d45780637ecebe00116101985780637ecebe001461038157806380f51c12146103945780638da5cb5b146103a75780638f32d59b146103af5780639436e7d4146103b757610252565b8063450b06011461031f5780635c975abb1461033257806368cefccc1461033a5780636b6fde0e1461035b5780636e56c1dd1461036e57610252565b806317748adc1161021b57806317748adc146102ba57806320606b70146102cf57806325464cc5146102d757806327dd1b00146102ec578063429b62e51461030c57610252565b8062073f991461025757806303a18fa314610275578063054f7d9c1461028a57806307392cc01461029f578063104932cf146102b2575b600080fd5b61025f61051b565b60405161026c919061212d565b60405180910390f35b61027d610521565b60405161026c919061213b565b610292610530565b60405161026c919061211f565b6102926102ad366004611b43565b61053e565b61027d610553565b6102c2610562565b60405161026c9190612261565b61025f610567565b6102ea6102e53660046119cd565b61057e565b005b6102ff6102fa3660046119eb565b61067b565b60405161026c9190612100565b61029261031a3660046119cd565b6106a1565b6102ea61032d3660046119cd565b6106b6565b610292610724565b61034d610348366004611a72565b61072d565b60405161026c929190612253565b61034d610369366004611a72565b610768565b6102ea61037c366004611ab5565b6107a3565b61025f61038f3660046119cd565b610880565b6102926103a23660046119cd565b610892565b6102ff6108a7565b6102926108b6565b6103ca6103c5366004611b43565b6108da565b60405161026c9190612245565b6103ca6103e53660046119eb565b6108f2565b610292610915565b6102ea6104003660046119cd565b61091e565b61027d6109db565b61029261041b3660046119cd565b6109ea565b6102ff6109ff565b61025f610a13565b6102c261043e366004611b80565b610a1b565b6103ca610451366004611b43565b610a46565b6102c2610a5e565b6102c261046c366004611b61565b610a74565b61029261047f3660046119cd565b610a94565b6102c2610492366004611b61565b610b78565b6102c26104a5366004611a25565b610c0b565b6102c2610c49565b6104ba610c4e565b60405161026c919061210e565b6103ca6104d53660046119eb565b610e31565b61034d6104e8366004611ba1565b610e54565b61025f610e89565b6102ea6105033660046119cd565b610e95565b61034d610516366004611ba1565b610ec5565b60015481565b600d546001600160a01b031681565b601554610100900460ff1681565b60106020526000908152604090205460ff1681565b6013546001600160a01b031681565b600981565b604051610573906120ea565b604051809103902081565b6105866108b6565b806105a05750336000908152600f602052604090205460ff165b6105c55760405162461bcd60e51b81526004016105bc906121ba565b60405180910390fd5b601554610100900460ff16156105ed5760405162461bcd60e51b81526004016105bc9061221a565b60006105f882610efa565b60008181526010602052604090205490915060ff166106295760405162461bcd60e51b81526004016105bc9061220a565b60008181526010602052604090819020805460ff19169055517f8cead6971eb8b99e8ac394749afc2c5e2d248f86d94e57f49fec3338d3df82319061066f90839061212d565b60405180910390a15050565b60046020908152600092835260408084209091529082529020546001600160a01b031681565b600f6020526000908152604090205460ff1681565b6106be6108b6565b6106da5760405162461bcd60e51b81526004016105bc906121ba565b601554610100900460ff16156107025760405162461bcd60e51b81526004016105bc9061221a565b601380546001600160a01b0319166001600160a01b0392909216919091179055565b60155460ff1681565b600a60209081526000938452604080852082529284528284209052825290205463ffffffff811690600160201b90046001600160601b031682565b600860209081526000938452604080852082529284528284209052825290205463ffffffff811690600160201b90046001600160601b031682565b6107ab6108b6565b806107c55750336000908152600f602052604090205460ff165b6107e15760405162461bcd60e51b81526004016105bc906121ba565b601554610100900460ff16156108095760405162461bcd60e51b81526004016105bc9061221a565b8281146108285760405162461bcd60e51b81526004016105bc9061217a565b8260005b818110156108785761087086868381811061084357fe5b9050602002013585858481811061085657fe5b905060200201602061086b9190810190611bd1565b610efe565b60010161082c565b505050505050565b600c6020526000908152604090205481565b60146020526000908152604090205460ff1681565b6000546001600160a01b031690565b600080546001600160a01b03166108cb611137565b6001600160a01b031614905090565b60076020526000908152604090205463ffffffff1681565b600960209081526000928352604080842090915290825290205463ffffffff1681565b60055460ff1681565b6109266108b6565b806109405750336000908152600f602052604090205460ff165b61095c5760405162461bcd60e51b81526004016105bc906121ba565b601554610100900460ff16156109845760405162461bcd60e51b81526004016105bc9061221a565b600061098f82610efa565b60008181526010602052604090819020805460ff19166001179055519091507fa0d1b39aa503282227481fef744a0ec0b991b2546e6fa611e40f88d2d2770eef9061066f90839061212d565b6003546001600160a01b031681565b600e6020526000908152604090205460ff1681565b60055461010090046001600160a01b031681565b63059fa60081565b6000610a268461113b565b9350610a318361113b565b9250610a3e84848461117b565b949350505050565b60126020526000908152604090205463ffffffff1681565b600d54600160a01b90046001600160601b031681565b6000610a7f83611206565b9250610a8b838361122b565b90505b92915050565b6000806000610aa284610efa565b6013549091506001600160a01b031615610b3957601354604051633288436360e21b81526001600160a01b039091169063ca210d8c90610ae6908790600401612100565b60206040518083038186803b158015610afe57600080fd5b505afa158015610b12573d6000803e3d6000fd5b505050506040513d601f19601f82011682018060405250610b369190810190611b25565b91505b8115610b4a57600192505050610b73565b60008181526010602052604090205460ff1615610b6c57600192505050610b73565b6000925050505b919050565b600080610b848361113b565b905063059fa6008101815b818111610c02576000610ba382858961117b565b90506001600160601b03811615610bf757610bf485826040518060400160405280601881526020017f6f766572666c6f77206f6e20746f74616c207765696768740000000000000000815250611404565b94505b506212750001610b8f565b50505092915050565b600080610c19858585611440565b90506001600160601b038116158015610c365750610c3633611695565b15610c3f575060015b90505b9392505050565b600a81565b6040805160098082526101408201909252606091829190602082016101208038833901905050905063450b060160e01b81600081518110610c8b57fe5b6001600160e01b0319909216602092830291909101909101528051636e56c1dd60e01b9082906001908110610cbc57fe5b6001600160e01b03199092166020928302919091019091015280516367bdb42560e11b9082906002908110610ced57fe5b6001600160e01b031990921660209283029190910190910152805163cdbe715560e01b9082906003908110610d1e57fe5b6001600160e01b03199092166020928302919091019091015280516363853f4b60e11b9082906004908110610d4f57fe5b6001600160e01b031990921660209283029190910190910152805163a20d8d0360e01b9082906005908110610d8057fe5b6001600160e01b03199092166020928302919091019091015280516325464cc560e01b9082906006908110610db157fe5b6001600160e01b031990921660209283029190910190910152805163ca6860df60e01b9082906007908110610de257fe5b6001600160e01b031990921660209283029190910190910152805163ba21c6d760e01b9082906008908110610e1357fe5b6001600160e01b031990921660209283029190910190910152905090565b600b60209081526000928352604080842090915290825290205463ffffffff1681565b600660209081526000928352604080842090915290825290205463ffffffff811690600160201b90046001600160601b031682565b604051610573906120f5565b610e9d6108b6565b610eb95760405162461bcd60e51b81526004016105bc906121ba565b610ec2816116de565b50565b601160209081526000928352604080842090915290825290205463ffffffff811690600160201b90046001600160601b031682565b3f90565b6001548211610f1f5760405162461bcd60e51b81526004016105bc9061215a565b62127500600154830381610f2f57fe5b0615610f4d5760405162461bcd60e51b81526004016105bc906121aa565b42821115610f7b5763059fa6004283031115610f7b5760405162461bcd60e51b81526004016105bc9061219a565b6000828152600760209081526040808320546006835281842063ffffffff9182166000198101909216855290925290912054600160201b90046001600160601b03908116908316811015610fe15760405162461bcd60e51b81526004016105bc906121fa565b60008481526012602052604081205463ffffffff1690610fff611936565b50600086815260116020908152604080832063ffffffff6000198701811685529083529281902081518083019092525480841682526001600160601b03600160201b909104169181019190915290831661105e57600143039150611066565b805160010191505b60408051808201825263ffffffff80851682526001600160601b03808a16602080850191825260008d8152601182528681208a861682528252868120955186549351909416600160201b026fffffffffffffffffffffffff000000001994861663ffffffff199485161794909416939093179094558b8252601290935283902080546001880190921691909216179055517ff9ab7366370e872310fc70951197eca2f2b3938b5589040856953f765dfcd11a90611126908990899061222a565b60405180910390a150505050505050565b3390565b600154600090808310156111615760405162461bcd60e51b81526004016105bc9061216a565b600062127500828503046212750002919091019392505050565b600080611188858461122b565b90506001600160601b038116156111f95760006111a5868661175f565b9050600a6001600160601b03166111e083836040518060400160405280600b81526020016a6d756c206f7665666c6f7760a81b815250611895565b6001600160601b0316816111f057fe5b049250506111fe565b600091505b509392505050565b6000806112128361113b565b90508281146112245762127500810192505b5090919050565b60006112356118f3565b82106112535760405162461bcd60e51b81526004016105bc906121da565b60008381526012602052604090205463ffffffff1680611277576000915050610a8e565b600084815260116020908152604080832063ffffffff6000198601811685529252909120541683106112df5760008481526011602090815260408083206000199490940163ffffffff1683529290522054600160201b90046001600160601b03169050610a8e565b600084815260116020908152604080832083805290915290205463ffffffff16831015611310576000915050610a8e565b600060001982015b8163ffffffff168163ffffffff1611156113c957600282820363ffffffff16048103611342611936565b50600087815260116020908152604080832063ffffffff858116855290835292819020815180830190925254928316808252600160201b9093046001600160601b031691810191909152908714156113a457602001519450610a8e9350505050565b805163ffffffff168711156113bb578193506113c2565b6001820392505b5050611318565b50600085815260116020908152604080832063ffffffff909416835292905220546001600160601b03600160201b9091041691505092915050565b6000838301826001600160601b0380871690831610156114375760405162461bcd60e51b81526004016105bc9190612149565b50949350505050565b600061144a6118f3565b82106114685760405162461bcd60e51b81526004016105bc906121da565b61147183611206565b6001600160a01b0385166000908152600b6020908152604080832084845290915290205490935063ffffffff16806114ad576000915050610c42565b6001600160a01b0385166000908152600a60209081526040808320878452825280832063ffffffff600019860181168552925290912054168310611539576001600160a01b0385166000908152600a6020908152604080832087845282528083206000199490940163ffffffff1683529290522054600160201b90046001600160601b03169050610c42565b6001600160a01b0385166000908152600a60209081526040808320878452825280832083805290915290205463ffffffff1683101561157c576000915050610c42565b600060001982015b8163ffffffff168163ffffffff16111561164757600282820363ffffffff160481036115ae611936565b506001600160a01b0388166000908152600a602090815260408083208a8452825280832063ffffffff858116855290835292819020815180830190925254928316808252600160201b9093046001600160601b0316918101919091529087141561162257602001519450610c429350505050565b805163ffffffff1687111561163957819350611640565b6001820392505b5050611584565b506001600160a01b0386166000908152600a60209081526040808320888452825280832063ffffffff909416835292905220546001600160601b03600160201b909104169150509392505050565b6013546000908190833f906001600160a01b031615610b3957601354604051633288436360e21b81526001600160a01b039091169063ca210d8c90610ae6908790600401612100565b6001600160a01b0381166117045760405162461bcd60e51b81526004016105bc9061218a565b600080546040516001600160a01b03808516939216917f8be0079c531659141344cd1fd0a4f28419497f9722a3daafe3b4186f6b6457e091a3600080546001600160a01b0319166001600160a01b0392909216919091179055565b6000818310156117815760405162461bcd60e51b81526004016105bc906121ca565b81830363059fa6008111156117a85760405162461bcd60e51b81526004016105bc906121ea565b6000620151808263059fa600036001600160601b0316816117c557fe5b04905061188c600a621232106001600160601b031661184b600a60090261181a621232108788026040518060400160405280601081526020016f77656967687420756e646572666c6f7760801b8152506118f7565b60405180604001604052806013815260200172776569676874206d756c206f766572666c6f7760681b815250611895565b6001600160601b03168161185b57fe5b04604051806040016040528060128152602001711bdd995c999b1bddc81bdb881dd95a59da1d60721b815250611404565b95945050505050565b60006001600160601b0384166118ad57506000610c42565b8383026001600160601b0380851690808716908316816118c957fe5b046001600160601b03161483906114375760405162461bcd60e51b81526004016105bc9190612149565b4390565b6000836001600160601b0316836001600160601b03161115829061192e5760405162461bcd60e51b81526004016105bc9190612149565b505050900390565b604080518082019091526000808252602082015290565b8035610a8e81612308565b60008083601f84011261196a57600080fd5b50813567ffffffffffffffff81111561198257600080fd5b60208301915083602082028301111561199a57600080fd5b9250929050565b8051610a8e8161231c565b8035610a8e81612325565b8035610a8e8161232e565b8035610a8e81612337565b6000602082840312156119df57600080fd5b6000610a3e848461194d565b600080604083850312156119fe57600080fd5b6000611a0a858561194d565b9250506020611a1b858286016119ac565b9150509250929050565b600080600060608486031215611a3a57600080fd5b6000611a46868661194d565b9350506020611a57868287016119ac565b9250506040611a68868287016119ac565b9150509250925092565b600080600060608486031215611a8757600080fd5b6000611a93868661194d565b9350506020611aa4868287016119ac565b9250506040611a68868287016119b7565b60008060008060408587031215611acb57600080fd5b843567ffffffffffffffff811115611ae257600080fd5b611aee87828801611958565b9450945050602085013567ffffffffffffffff811115611b0d57600080fd5b611b1987828801611958565b95989497509550505050565b600060208284031215611b3757600080fd5b6000610a3e84846119a1565b600060208284031215611b5557600080fd5b6000610a3e84846119ac565b60008060408385031215611b7457600080fd5b6000611a0a85856119ac565b600080600060608486031215611b9557600080fd5b6000611a4686866119ac565b60008060408385031215611bb457600080fd5b6000611bc085856119ac565b9250506020611a1b858286016119b7565b600060208284031215611be357600080fd5b6000610a3e84846119c2565b6000611bfb8383611c7d565b505060200190565b611c0c81612282565b82525050565b6000611c1d82612275565b611c278185612279565b9350611c328361226f565b8060005b83811015611c60578151611c4a8882611bef565b9750611c558361226f565b925050600101611c36565b509495945050505050565b611c0c8161228d565b611c0c81612292565b611c0c81612295565b611c0c816122c3565b6000611c9a82612275565b611ca48185612279565b9350611cb48185602086016122ce565b611cbd816122fe565b9093019392505050565b6000611cd4604183612279565b7f496e76616c6964206c6f636b2064617465733a206d757374206772656174657281527f207468616e20636f6e7472616374206372656174696f6e2074696d657374616d6020820152600760fc1b604082015260600192915050565b6000611d3d601d83612279565b7f74696d657374616d70203c20636f6e7472616374206372656174696f6e000000815260200192915050565b6000611d76600f83612279565b6e0c2e4e4c2f2e640dad2e6dac2e8c6d608b1b815260200192915050565b6000611da1602683612279565b7f4f776e61626c653a206e6577206f776e657220697320746865207a65726f206181526564647265737360d01b602082015260400192915050565b6000611de9602783612279565b7f496e76616c6964206c6f636b2064617465733a20657863656564206d617820648152663ab930ba34b7b760c91b602082015260400192915050565b6000611e32602c83612279565b7f496e76616c6964206c6f636b2064617465733a206e6f74206d756c7469706c6581526b73206f66203134206461797360a01b602082015260400192915050565b6000611e80604383610b73565b7f454950373132446f6d61696e28737472696e67206e616d652c75696e7432353681527f20636861696e49642c6164647265737320766572696679696e67436f6e74726160208201526263742960e81b604082015260430192915050565b6000611eeb600c83612279565b6b1d5b985d5d1a1bdc9a5e995960a21b815260200192915050565b6000611f13601083612279565b6f64617465203c2073746172744461746560801b815260200192915050565b6000611f3f600e83612279565b6d1b9bdd0819195d195c9b5a5b995960921b815260200192915050565b6000611f69601d83612279565b7f72656d61696e696e672074696d65203e206d6178206475726174696f6e000000815260200192915050565b6000611fa2604b83610b73565b7f44656c65676174696f6e28616464726573732064656c6567617465652c75696e81527f74323536206c6f636b446174652c75696e74323536206e6f6e63652c75696e7460208201526a323536206578706972792960a81b6040820152604b0192915050565b6000612015604283612279565b7f496e76616c6964207374616b6520616d6f756e743a206772656174657220746881527f616e2074686520746f74616c207374616b656420666f7220676976656e206461602082015261746560f01b604082015260600192915050565b600061207f602283612279565b7f6e6f74206120726567697374657265642076657374696e6720636f64652068618152610e6d60f31b602082015260400192915050565b60006120c3600683612279565b651c185d5cd95960d21b815260200192915050565b611c0c816122ae565b611c0c816122b7565b6000610a8e82611e73565b6000610a8e82611f95565b60208101610a8e8284611c03565b60208082528101610a8b8184611c12565b60208101610a8e8284611c6b565b60208101610a8e8284611c74565b60208101610a8e8284611c86565b60208082528101610a8b8184611c8f565b60208082528101610a8e81611cc7565b60208082528101610a8e81611d30565b60208082528101610a8e81611d69565b60208082528101610a8e81611d94565b60208082528101610a8e81611ddc565b60208082528101610a8e81611e25565b60208082528101610a8e81611ede565b60208082528101610a8e81611f06565b60208082528101610a8e81611f32565b60208082528101610a8e81611f5c565b60208082528101610a8e81612008565b60208082528101610a8e81612072565b60208082528101610a8e816120b6565b604081016122388285611c74565b610c4260208301846120e1565b60208101610a8e82846120d8565b6040810161223882856120d8565b60208101610a8e82846120e1565b60200190565b5190565b90815260200190565b6000610a8e826122a2565b151590565b90565b6001600160e01b03191690565b6001600160a01b031690565b63ffffffff1690565b6001600160601b031690565b6000610a8e82612282565b60005b838110156122e95781810151838201526020016122d1565b838111156122f8576000848401525b50505050565b601f01601f191690565b61231181612282565b8114610ec257600080fd5b6123118161228d565b61231181612292565b612311816122ae565b612311816122b756fea365627a7a72315820d20872fdd6623d677d8a30603d5c486d6c5359de32c2d75159e51aef05e22b606c6578706572696d656e74616cf564736f6c63430005110040",
    "devdoc": {
        "methods": {
            "addContractCodeHash(address)": {
                "details": "We need it to use isVestingContract() function instead of isContract()",
                "params": {
                    "vesting": "The address of Vesting contract."
                }
            },
            "getPriorUserStakeByDate(address,uint256,uint256)": {
                "details": "Block number must be a finalized block or else this function will revert to prevent misinformation.",
                "params": {
                    "account": "The address of the account to check.",
                    "blockNumber": "The block number to get the vote balance at.",
                    "date": "The lock date. Adjusted to the next valid lock date, if necessary."
                },
                "return": "The number of votes the account had as of the given block."
            },
            "getPriorVestingStakeByDate(uint256,uint256)": {
                "details": "Block number must be a finalized block or else this function will revert to prevent misinformation.",
                "params": {
                    "blockNumber": "The block number to get the vote balance at.",
                    "date": "The lock date. Adjusted to the next valid lock date, if necessary."
                },
                "return": "The number of votes the account had as of the given block."
            },
            "getPriorVestingWeightedStake(uint256,uint256)": {
                "details": "Block number must be a finalized block or else this function will revert to prevent misinformation.     Used for fee sharing, not voting. TODO: WeightedStaking::getPriorVestingWeightedStake is using the variable name \"votes\" to add up token stake, and that could be misleading.",
                "params": {
                    "blockNumber": "The block number to get the vote balance at.",
                    "date": "The staking date to compute the power for."
                },
                "return": "The weighted stake the account had as of the given block."
            },
            "isOwner()": {
                "details": "Returns true if the caller is the current owner."
            },
            "isVestingContract(address)": {
                "params": {
                    "stakerAddress": "the address to check"
                }
            },
            "owner()": {
                "details": "Returns the address of the current owner."
            },
            "removeContractCodeHash(address)": {
                "details": "We need it to use isVestingContract() function instead of isContract()",
                "params": {
                    "vesting": "The address of Vesting contract."
                }
            },
            "setVestingRegistry(address)": {
                "details": "_vestingRegistryProxy can be set to 0 as this function can be reused by various other functionalities without the necessity of linking it with Vesting Registry",
                "params": {
                    "_vestingRegistryProxy": "the address of vesting registry proxy contract"
                }
            },
            "setVestingStakes(uint256[],uint96[])": {
                "params": {
                    "lockedDates": "The arrays of lock dates.",
                    "values": "The array of values to add to the staked balance. TODO: remove - it was designed as a disposable function to initialize vesting checkpoints"
                }
            },
            "transferOwnership(address)": {
                "details": "Transfers ownership of the contract to a new account (`newOwner`). Can only be called by the current owner."
            },
            "weightedVestingStakeByDate(uint256,uint256,uint256)": {
                "params": {
                    "blockNumber": "The block number, needed for checkpointing.",
                    "date": "The staking date to compute the power for. Adjusted to the previous valid lock date, if necessary.",
                    "startDate": "The date for which we need to know the power of the stake. Adjusted to the previous valid lock date, if necessary."
                },
                "return": "The stacking power."
            }
        },
        "title": "Staking Vesting Module contract"
    },
    "userdoc": {
        "methods": {
            "addContractCodeHash(address)": {
                "notice": "Add vesting contract's code hash to a map of code hashes."
            },
            "getPriorUserStakeByDate(address,uint256,uint256)": {
                "notice": "Determine the prior number of stake for an account until a certain lock date as of a block number."
            },
            "getPriorVestingStakeByDate(uint256,uint256)": {
                "notice": "Determine the prior number of vested stake for an account until a certain lock date as of a block number."
            },
            "getPriorVestingWeightedStake(uint256,uint256)": {
                "notice": "Determine the prior weighted vested amount for an account as of a block number. Iterate through checkpoints adding up voting power."
            },
            "isVestingContract(address)": {
                "notice": "Return flag whether the given address is a registered vesting contract."
            },
            "removeContractCodeHash(address)": {
                "notice": "Remove vesting contract's code hash to a map of code hashes."
            },
            "setVestingRegistry(address)": {
                "notice": "sets vesting registry"
            },
            "setVestingStakes(uint256[],uint96[])": {
                "notice": "Sets the users' vesting stakes for a giving lock dates and writes checkpoints."
            },
            "weightedVestingStakeByDate(uint256,uint256,uint256)": {
                "notice": "Compute the voting power for a specific date. Power = stake * weight"
            }
        },
        "notice": "Implements interaction with Vesting functionality: vesting registry, vesting staking"
    },
    "storageLayout": {
        "storage": [
            {
                "astId": 52587,
                "contract": "contracts/governance/Staking/modules/StakingVestingModule.sol:StakingVestingModule",
                "label": "_owner",
                "offset": 0,
                "slot": "0",
                "type": "t_address"
            },
            {
                "astId": 22109,
                "contract": "contracts/governance/Staking/modules/StakingVestingModule.sol:StakingVestingModule",
                "label": "kickoffTS",
                "offset": 0,
                "slot": "1",
                "type": "t_uint256"
            },
            {
                "astId": 22112,
                "contract": "contracts/governance/Staking/modules/StakingVestingModule.sol:StakingVestingModule",
                "label": "name",
                "offset": 0,
                "slot": "2",
                "type": "t_string_storage"
            },
            {
                "astId": 22114,
                "contract": "contracts/governance/Staking/modules/StakingVestingModule.sol:StakingVestingModule",
                "label": "SOVToken",
                "offset": 0,
                "slot": "3",
                "type": "t_contract(IERC20)31656"
            },
            {
                "astId": 22120,
                "contract": "contracts/governance/Staking/modules/StakingVestingModule.sol:StakingVestingModule",
                "label": "delegates",
                "offset": 0,
                "slot": "4",
                "type": "t_mapping(t_address,t_mapping(t_uint256,t_address))"
            },
            {
                "astId": 22123,
                "contract": "contracts/governance/Staking/modules/StakingVestingModule.sol:StakingVestingModule",
                "label": "allUnlocked",
                "offset": 0,
                "slot": "5",
                "type": "t_bool"
            },
            {
                "astId": 22135,
                "contract": "contracts/governance/Staking/modules/StakingVestingModule.sol:StakingVestingModule",
                "label": "newStakingContract",
                "offset": 1,
                "slot": "5",
                "type": "t_address"
            },
            {
                "astId": 22146,
                "contract": "contracts/governance/Staking/modules/StakingVestingModule.sol:StakingVestingModule",
                "label": "totalStakingCheckpoints",
                "offset": 0,
                "slot": "6",
                "type": "t_mapping(t_uint256,t_mapping(t_uint32,t_struct(Checkpoint)22140_storage))"
            },
            {
                "astId": 22150,
                "contract": "contracts/governance/Staking/modules/StakingVestingModule.sol:StakingVestingModule",
                "label": "numTotalStakingCheckpoints",
                "offset": 0,
                "slot": "7",
                "type": "t_mapping(t_uint256,t_uint32)"
            },
            {
                "astId": 22158,
                "contract": "contracts/governance/Staking/modules/StakingVestingModule.sol:StakingVestingModule",
                "label": "delegateStakingCheckpoints",
                "offset": 0,
                "slot": "8",
                "type": "t_mapping(t_address,t_mapping(t_uint256,t_mapping(t_uint32,t_struct(Checkpoint)22140_storage)))"
            },
            {
                "astId": 22164,
                "contract": "contracts/governance/Staking/modules/StakingVestingModule.sol:StakingVestingModule",
                "label": "numDelegateStakingCheckpoints",
                "offset": 0,
                "slot": "9",
                "type": "t_mapping(t_address,t_mapping(t_uint256,t_uint32))"
            },
            {
                "astId": 22172,
                "contract": "contracts/governance/Staking/modules/StakingVestingModule.sol:StakingVestingModule",
                "label": "userStakingCheckpoints",
                "offset": 0,
                "slot": "10",
                "type": "t_mapping(t_address,t_mapping(t_uint256,t_mapping(t_uint32,t_struct(Checkpoint)22140_storage)))"
            },
            {
                "astId": 22178,
                "contract": "contracts/governance/Staking/modules/StakingVestingModule.sol:StakingVestingModule",
                "label": "numUserStakingCheckpoints",
                "offset": 0,
                "slot": "11",
                "type": "t_mapping(t_address,t_mapping(t_uint256,t_uint32))"
            },
            {
                "astId": 22182,
                "contract": "contracts/governance/Staking/modules/StakingVestingModule.sol:StakingVestingModule",
                "label": "nonces",
                "offset": 0,
                "slot": "12",
                "type": "t_mapping(t_address,t_uint256)"
            },
            {
                "astId": 22184,
                "contract": "contracts/governance/Staking/modules/StakingVestingModule.sol:StakingVestingModule",
                "label": "feeSharing",
                "offset": 0,
                "slot": "13",
                "type": "t_contract(IFeeSharingCollector)15397"
            },
            {
                "astId": 22187,
                "contract": "contracts/governance/Staking/modules/StakingVestingModule.sol:StakingVestingModule",
                "label": "weightScaling",
                "offset": 20,
                "slot": "13",
                "type": "t_uint96"
            },
            {
                "astId": 22191,
                "contract": "contracts/governance/Staking/modules/StakingVestingModule.sol:StakingVestingModule",
                "label": "vestingWhitelist",
                "offset": 0,
                "slot": "14",
                "type": "t_mapping(t_address,t_bool)"
            },
            {
                "astId": 22195,
                "contract": "contracts/governance/Staking/modules/StakingVestingModule.sol:StakingVestingModule",
                "label": "admins",
                "offset": 0,
                "slot": "15",
                "type": "t_mapping(t_address,t_bool)"
            },
            {
                "astId": 22199,
                "contract": "contracts/governance/Staking/modules/StakingVestingModule.sol:StakingVestingModule",
                "label": "vestingCodeHashes",
                "offset": 0,
                "slot": "16",
                "type": "t_mapping(t_bytes32,t_bool)"
            },
            {
                "astId": 22205,
                "contract": "contracts/governance/Staking/modules/StakingVestingModule.sol:StakingVestingModule",
                "label": "vestingCheckpoints",
                "offset": 0,
                "slot": "17",
                "type": "t_mapping(t_uint256,t_mapping(t_uint32,t_struct(Checkpoint)22140_storage))"
            },
            {
                "astId": 22209,
                "contract": "contracts/governance/Staking/modules/StakingVestingModule.sol:StakingVestingModule",
                "label": "numVestingCheckpoints",
                "offset": 0,
                "slot": "18",
                "type": "t_mapping(t_uint256,t_uint32)"
            },
            {
                "astId": 22211,
                "contract": "contracts/governance/Staking/modules/StakingVestingModule.sol:StakingVestingModule",
                "label": "vestingRegistryLogic",
                "offset": 0,
                "slot": "19",
                "type": "t_contract(IVestingRegistry)24488"
            },
            {
                "astId": 22215,
                "contract": "contracts/governance/Staking/modules/StakingVestingModule.sol:StakingVestingModule",
                "label": "pausers",
                "offset": 0,
                "slot": "20",
                "type": "t_mapping(t_address,t_bool)"
            },
            {
                "astId": 22217,
                "contract": "contracts/governance/Staking/modules/StakingVestingModule.sol:StakingVestingModule",
                "label": "paused",
                "offset": 0,
                "slot": "21",
                "type": "t_bool"
            },
            {
                "astId": 22219,
                "contract": "contracts/governance/Staking/modules/StakingVestingModule.sol:StakingVestingModule",
                "label": "frozen",
                "offset": 1,
                "slot": "21",
                "type": "t_bool"
            },
            {
                "astId": 22221,
                "contract": "contracts/governance/Staking/modules/StakingVestingModule.sol:StakingVestingModule",
                "label": "maxVestingWithdrawIterations",
                "offset": 0,
                "slot": "22",
                "type": "t_uint256"
            }
        ],
        "types": {
            "t_address": {
                "encoding": "inplace",
                "label": "address",
                "numberOfBytes": "20"
            },
            "t_bool": {
                "encoding": "inplace",
                "label": "bool",
                "numberOfBytes": "1"
            },
            "t_bytes32": {
                "encoding": "inplace",
                "label": "bytes32",
                "numberOfBytes": "32"
            },
            "t_contract(IERC20)31656": {
                "encoding": "inplace",
                "label": "contract IERC20",
                "numberOfBytes": "20"
            },
            "t_contract(IFeeSharingCollector)15397": {
                "encoding": "inplace",
                "label": "contract IFeeSharingCollector",
                "numberOfBytes": "20"
            },
            "t_contract(IVestingRegistry)24488": {
                "encoding": "inplace",
                "label": "contract IVestingRegistry",
                "numberOfBytes": "20"
            },
            "t_mapping(t_address,t_bool)": {
                "encoding": "mapping",
                "key": "t_address",
                "label": "mapping(address => bool)",
                "numberOfBytes": "32",
                "value": "t_bool"
            },
            "t_mapping(t_address,t_mapping(t_uint256,t_address))": {
                "encoding": "mapping",
                "key": "t_address",
                "label": "mapping(address => mapping(uint256 => address))",
                "numberOfBytes": "32",
                "value": "t_mapping(t_uint256,t_address)"
            },
            "t_mapping(t_address,t_mapping(t_uint256,t_mapping(t_uint32,t_struct(Checkpoint)22140_storage)))": {
                "encoding": "mapping",
                "key": "t_address",
                "label": "mapping(address => mapping(uint256 => mapping(uint32 => struct StakingStorageShared.Checkpoint)))",
                "numberOfBytes": "32",
                "value": "t_mapping(t_uint256,t_mapping(t_uint32,t_struct(Checkpoint)22140_storage))"
            },
            "t_mapping(t_address,t_mapping(t_uint256,t_uint32))": {
                "encoding": "mapping",
                "key": "t_address",
                "label": "mapping(address => mapping(uint256 => uint32))",
                "numberOfBytes": "32",
                "value": "t_mapping(t_uint256,t_uint32)"
            },
            "t_mapping(t_address,t_uint256)": {
                "encoding": "mapping",
                "key": "t_address",
                "label": "mapping(address => uint256)",
                "numberOfBytes": "32",
                "value": "t_uint256"
            },
            "t_mapping(t_bytes32,t_bool)": {
                "encoding": "mapping",
                "key": "t_bytes32",
                "label": "mapping(bytes32 => bool)",
                "numberOfBytes": "32",
                "value": "t_bool"
            },
            "t_mapping(t_uint256,t_address)": {
                "encoding": "mapping",
                "key": "t_uint256",
                "label": "mapping(uint256 => address)",
                "numberOfBytes": "32",
                "value": "t_address"
            },
            "t_mapping(t_uint256,t_mapping(t_uint32,t_struct(Checkpoint)22140_storage))": {
                "encoding": "mapping",
                "key": "t_uint256",
                "label": "mapping(uint256 => mapping(uint32 => struct StakingStorageShared.Checkpoint))",
                "numberOfBytes": "32",
                "value": "t_mapping(t_uint32,t_struct(Checkpoint)22140_storage)"
            },
            "t_mapping(t_uint256,t_uint32)": {
                "encoding": "mapping",
                "key": "t_uint256",
                "label": "mapping(uint256 => uint32)",
                "numberOfBytes": "32",
                "value": "t_uint32"
            },
            "t_mapping(t_uint32,t_struct(Checkpoint)22140_storage)": {
                "encoding": "mapping",
                "key": "t_uint32",
                "label": "mapping(uint32 => struct StakingStorageShared.Checkpoint)",
                "numberOfBytes": "32",
                "value": "t_struct(Checkpoint)22140_storage"
            },
            "t_string_storage": {
                "encoding": "bytes",
                "label": "string",
                "numberOfBytes": "32"
            },
            "t_struct(Checkpoint)22140_storage": {
                "encoding": "inplace",
                "label": "struct StakingStorageShared.Checkpoint",
                "members": [
                    {
                        "astId": 22137,
                        "contract": "contracts/governance/Staking/modules/StakingVestingModule.sol:StakingVestingModule",
                        "label": "fromBlock",
                        "offset": 0,
                        "slot": "0",
                        "type": "t_uint32"
                    },
                    {
                        "astId": 22139,
                        "contract": "contracts/governance/Staking/modules/StakingVestingModule.sol:StakingVestingModule",
                        "label": "stake",
                        "offset": 4,
                        "slot": "0",
                        "type": "t_uint96"
                    }
                ],
                "numberOfBytes": "32"
            },
            "t_uint256": {
                "encoding": "inplace",
                "label": "uint256",
                "numberOfBytes": "32"
            },
            "t_uint32": {
                "encoding": "inplace",
                "label": "uint32",
                "numberOfBytes": "4"
            },
            "t_uint96": {
                "encoding": "inplace",
                "label": "uint96",
                "numberOfBytes": "12"
            }
        }
    }
}