{
  "address": "0x720bA758526E086EAe849063f3160F12a624A6f6",
  "abi": [
    {
      "anonymous": false,
      "inputs": [
        {
          "indexed": true,
          "internalType": "address",
          "name": "previousOwner",
          "type": "address"
        },
        {
          "indexed": true,
          "internalType": "address",
          "name": "newOwner",
          "type": "address"
        }
      ],
      "name": "OwnershipTransferred",
      "type": "event"
    },
    {
      "anonymous": false,
      "inputs": [
        {
          "indexed": true,
          "internalType": "address",
          "name": "receiver",
          "type": "address"
        },
        {
          "indexed": false,
          "internalType": "uint256",
          "name": "amount",
          "type": "uint256"
        }
      ],
      "name": "RewardWithdrawn",
      "type": "event"
    },
    {
      "constant": true,
      "inputs": [],
      "name": "BASE_RATE",
      "outputs": [
        {
          "internalType": "uint256",
          "name": "",
          "type": "uint256"
        }
      ],
      "payable": false,
      "stateMutability": "view",
      "type": "function"
    },
    {
      "constant": true,
      "inputs": [],
      "name": "DIVISOR",
      "outputs": [
        {
          "internalType": "uint256",
          "name": "",
          "type": "uint256"
        }
      ],
      "payable": false,
      "stateMutability": "view",
      "type": "function"
    },
    {
      "constant": true,
      "inputs": [],
      "name": "TWO_WEEKS",
      "outputs": [
        {
          "internalType": "uint256",
          "name": "",
          "type": "uint256"
        }
      ],
      "payable": false,
      "stateMutability": "view",
      "type": "function"
    },
    {
      "constant": false,
      "inputs": [
        {
          "internalType": "uint256",
          "name": "_startTime",
          "type": "uint256"
        }
      ],
      "name": "collectReward",
      "outputs": [],
      "payable": false,
      "stateMutability": "nonpayable",
      "type": "function"
    },
    {
      "constant": true,
      "inputs": [
        {
          "internalType": "bool",
          "name": "_considerMaxDuration",
          "type": "bool"
        },
        {
          "internalType": "uint256",
          "name": "_startTime",
          "type": "uint256"
        },
        {
          "internalType": "address",
          "name": "_staker",
          "type": "address"
        }
      ],
      "name": "getArbitraryStakerCurrentReward",
      "outputs": [
        {
          "internalType": "uint256",
          "name": "nextWithdrawTimestamp",
          "type": "uint256"
        },
        {
          "internalType": "uint256",
          "name": "amount",
          "type": "uint256"
        }
      ],
      "payable": false,
      "stateMutability": "view",
      "type": "function"
    },
    {
      "constant": true,
      "inputs": [],
      "name": "getAverageBlockTime",
      "outputs": [
        {
          "internalType": "uint256",
          "name": "",
          "type": "uint256"
        }
      ],
      "payable": false,
      "stateMutability": "view",
      "type": "function"
    },
    {
      "constant": true,
      "inputs": [
        {
          "internalType": "uint256",
          "name": "_checkpointTimestamp",
          "type": "uint256"
        }
      ],
      "name": "getCheckpointBlockNumber",
      "outputs": [
        {
          "internalType": "uint256",
          "name": "",
          "type": "uint256"
        }
      ],
      "payable": false,
      "stateMutability": "view",
      "type": "function"
    },
    {
      "constant": true,
      "inputs": [
        {
          "internalType": "address",
          "name": "_staker",
          "type": "address"
        }
      ],
      "name": "getClaimedBalances",
      "outputs": [
        {
          "internalType": "uint256",
          "name": "",
          "type": "uint256"
        }
      ],
      "payable": false,
      "stateMutability": "view",
      "type": "function"
    },
    {
      "constant": true,
      "inputs": [],
      "name": "getDeploymentBlock",
      "outputs": [
        {
          "internalType": "uint256",
          "name": "",
          "type": "uint256"
        }
      ],
      "payable": false,
      "stateMutability": "view",
      "type": "function"
    },
    {
      "constant": true,
      "inputs": [],
      "name": "getMaxDuration",
      "outputs": [
        {
          "internalType": "uint256",
          "name": "",
          "type": "uint256"
        }
      ],
      "payable": false,
      "stateMutability": "view",
      "type": "function"
    },
    {
      "constant": true,
      "inputs": [],
      "name": "getOsSOV",
      "outputs": [
        {
          "internalType": "contract IERC20Mintable",
          "name": "",
          "type": "address"
        }
      ],
      "payable": false,
      "stateMutability": "view",
      "type": "function"
    },
    {
      "constant": true,
      "inputs": [],
      "name": "getRewardsProgramStartTime",
      "outputs": [
        {
          "internalType": "uint256",
          "name": "",
          "type": "uint256"
        }
      ],
      "payable": false,
      "stateMutability": "view",
      "type": "function"
    },
    {
      "constant": true,
      "inputs": [
        {
          "internalType": "bool",
          "name": "_considerMaxDuration",
          "type": "bool"
        },
        {
          "internalType": "uint256",
          "name": "_startTime",
          "type": "uint256"
        }
      ],
      "name": "getStakerCurrentReward",
      "outputs": [
        {
          "internalType": "uint256",
          "name": "nextWithdrawTimestamp",
          "type": "uint256"
        },
        {
          "internalType": "uint256",
          "name": "amount",
          "type": "uint256"
        }
      ],
      "payable": false,
      "stateMutability": "view",
      "type": "function"
    },
    {
      "constant": true,
      "inputs": [
        {
          "internalType": "address",
          "name": "_staker",
          "type": "address"
        }
      ],
      "name": "getStakerNextWithdrawTimestamp",
      "outputs": [
        {
          "internalType": "uint256",
          "name": "",
          "type": "uint256"
        }
      ],
      "payable": false,
      "stateMutability": "view",
      "type": "function"
    },
    {
      "constant": true,
      "inputs": [],
      "name": "getStaking",
      "outputs": [
        {
          "internalType": "contract IStaking",
          "name": "",
          "type": "address"
        }
      ],
      "payable": false,
      "stateMutability": "view",
      "type": "function"
    },
    {
      "constant": true,
      "inputs": [],
      "name": "getStopBlock",
      "outputs": [
        {
          "internalType": "uint256",
          "name": "",
          "type": "uint256"
        }
      ],
      "payable": false,
      "stateMutability": "view",
      "type": "function"
    },
    {
      "constant": true,
      "inputs": [],
      "name": "getStopRewardsTimestamp",
      "outputs": [
        {
          "internalType": "uint256",
          "name": "",
          "type": "uint256"
        }
      ],
      "payable": false,
      "stateMutability": "view",
      "type": "function"
    },
    {
      "constant": false,
      "inputs": [
        {
          "internalType": "address",
          "name": "_osSOV",
          "type": "address"
        },
        {
          "internalType": "contract IStaking",
          "name": "_staking",
          "type": "address"
        },
        {
          "internalType": "uint256",
          "name": "_averageBlockTime",
          "type": "uint256"
        }
      ],
      "name": "initialize",
      "outputs": [],
      "payable": false,
      "stateMutability": "nonpayable",
      "type": "function"
    },
    {
      "constant": true,
      "inputs": [],
      "name": "isOwner",
      "outputs": [
        {
          "internalType": "bool",
          "name": "",
          "type": "bool"
        }
      ],
      "payable": false,
      "stateMutability": "view",
      "type": "function"
    },
    {
      "constant": true,
      "inputs": [],
      "name": "owner",
      "outputs": [
        {
          "internalType": "address",
          "name": "",
          "type": "address"
        }
      ],
      "payable": false,
      "stateMutability": "view",
      "type": "function"
    },
    {
      "constant": false,
      "inputs": [
        {
          "internalType": "uint256",
          "name": "_averageBlockTime",
          "type": "uint256"
        }
      ],
      "name": "setAverageBlockTime",
      "outputs": [],
      "payable": false,
      "stateMutability": "nonpayable",
      "type": "function"
    },
    {
      "constant": false,
      "inputs": [],
      "name": "setBlock",
      "outputs": [],
      "payable": false,
      "stateMutability": "nonpayable",
      "type": "function"
    },
    {
      "constant": false,
      "inputs": [
        {
          "internalType": "uint256",
          "name": "_time",
          "type": "uint256"
        }
      ],
      "name": "setHistoricalBlock",
      "outputs": [],
      "payable": false,
      "stateMutability": "nonpayable",
      "type": "function"
    },
    {
      "constant": false,
      "inputs": [
        {
          "internalType": "uint256",
          "name": "_duration",
          "type": "uint256"
        }
      ],
      "name": "setMaxDuration",
      "outputs": [],
      "payable": false,
      "stateMutability": "nonpayable",
      "type": "function"
    },
    {
      "constant": false,
      "inputs": [],
      "name": "stop",
      "outputs": [],
      "payable": false,
      "stateMutability": "nonpayable",
      "type": "function"
    },
    {
      "constant": false,
      "inputs": [
        {
          "internalType": "address",
          "name": "newOwner",
          "type": "address"
        }
      ],
      "name": "transferOwnership",
      "outputs": [],
      "payable": false,
      "stateMutability": "nonpayable",
      "type": "function"
    }
  ],
  "numDeployments": 4,
  "bytecode": "0x608060405260006100176001600160e01b0361006616565b600080546001600160a01b0319166001600160a01b0383169081178255604051929350917f8be0079c531659141344cd1fd0a4f28419497f9722a3daafe3b4186f6b6457e0908290a35061006a565b3390565b61147e806100796000396000f3fe608060405234801561001057600080fd5b506004361061018e5760003560e01c8063934d1fa4116100de578063dffd356211610097578063f92ac1f111610071578063f92ac1f1146103bc578063f9e28d0d146103e2578063fe5afe51146103ea578063fed73f66146103f25761018e565b8063dffd356214610371578063f2fde38b1461038e578063f5f52e2e146103b45761018e565b8063934d1fa4146102fa578063b49a2db914610302578063bd3507da1461030a578063ce6da7f214610327578063ceee68551461032f578063cf0f34c4146103545761018e565b806341910f901161014b57806380d1cb351161012557806380d1cb35146102c65780638da5cb5b146102ce5780638f32d59b146102d65780638fd35c65146102f25761018e565b806341910f901461027d578063722a23db146102855780637b1391a6146102a25761018e565b8063066b3c041461019357806307da68f5146101e05780630ef9c83c146101ea5780631794bb3c146102225780633410fe6e146102585780633736d85314610260575b600080fd5b6101c7600480360360608110156101a957600080fd5b508035151590602081013590604001356001600160a01b03166103fa565b6040805192835260208301919091528051918290030190f35b6101e8610415565b005b6102106004803603602081101561020057600080fd5b50356001600160a01b031661052b565b60408051918252519081900360200190f35b6101e86004803603606081101561023857600080fd5b506001600160a01b03813581169160208101359091169060400135610546565b610210610789565b6101e86004803603602081101561027657600080fd5b5035610790565b6102106107dd565b6102106004803603602081101561029b57600080fd5b50356107e3565b6102aa6107f5565b604080516001600160a01b039092168252519081900360200190f35b610210610804565b6102aa61080a565b6102de610819565b604080519115158252519081900360200190f35b6102aa61083d565b61021061084c565b610210610853565b6101e86004803603602081101561032057600080fd5b5035610859565b610210610950565b6101c76004803603604081101561034557600080fd5b50803515159060200135610956565b6101e86004803603602081101561036a57600080fd5b503561096f565b6101e86004803603602081101561038757600080fd5b50356109bc565b6101e8600480360360208110156103a457600080fd5b50356001600160a01b03166109c8565b610210610a19565b610210600480360360208110156103d257600080fd5b50356001600160a01b0316610a1f565b610210610a3a565b6101e8610a40565b610210610ac2565b600080610408838686610ac8565b915091505b935093915050565b61041d610819565b61045d576040805162461bcd60e51b815260206004820152600c60248201526b1d5b985d5d1a1bdc9a5e995960a21b604482015290519081900360640190fd5b600554156104a4576040805162461bcd60e51b815260206004820152600f60248201526e105b1c9958591e481cdd1bdc1c1959608a1b604482015290519081900360640190fd5b6104ac610e17565b600555600254604080516372ec979560e01b815242600482015290516001600160a01b03909216916372ec979591602480820192602092909190829003018186803b1580156104fa57600080fd5b505afa15801561050e573d6000803e3d6000fd5b505050506040513d602081101561052457600080fd5b5051600655565b6001600160a01b031660009081526008602052604090205490565b61054e610819565b61058e576040805162461bcd60e51b815260206004820152600c60248201526b1d5b985d5d1a1bdc9a5e995960a21b604482015290519081900360640190fd5b600c54610100900460ff16806105a75750600c5460ff16155b6105e25760405162461bcd60e51b815260040180806020018281038252602e8152602001806113fb602e913960400191505060405180910390fd5b600c54610100900460ff1615801561060d57600c805460ff1961ff0019909116610100171660011790555b6001600160a01b038416610660576040805162461bcd60e51b8152602060048201526015602482015274496e76616c6964204f73534f56204164647265737360581b604482015290519081900360640190fd5b61066984610e1b565b6106ba576040805162461bcd60e51b815260206004820152601760248201527f4f73534f56206973206e6f74206120636f6e7472616374000000000000000000604482015290519081900360640190fd5b600180546001600160a01b038087166001600160a01b0319928316179092556002805486841692169190911790819055604080516372ec979560e01b8152426004820152905191909216916372ec9795916024808301926020929190829003018186803b15801561072a57600080fd5b505afa15801561073e573d6000803e3d6000fd5b505050506040513d602081101561075457600080fd5b5051600455630114db00600355610769610e17565b600955600b829055801561078357600c805461ff00191690555b50505050565b6227ac4081565b610798610819565b6107d8576040805162461bcd60e51b815260206004820152600c60248201526b1d5b985d5d1a1bdc9a5e995960a21b604482015290519081900360640190fd5b600b55565b61038481565b6000908152600a602052604090205490565b6002546001600160a01b031690565b60095490565b6000546001600160a01b031690565b600080546001600160a01b031661082e610e57565b6001600160a01b031614905090565b6001546001600160a01b031690565b6212750081565b60035490565b6005541580610878575060065433600090815260076020526040902054105b6108c9576040805162461bcd60e51b815260206004820152601a60248201527f456e746972652072657761726420616c72656164792070616964000000000000604482015290519081900360640190fd5b6000806108d833600185610ac8565b915091506000821180156108ec5750600081115b61092f576040805162461bcd60e51b815260206004820152600f60248201526e139bc81d985b1a59081c995dd85c99608a1b604482015290519081900360640190fd5b33600081815260076020526040902083905561094b9082610e5b565b505050565b60065490565b600080610964338585610ac8565b915091509250929050565b610977610819565b6109b7576040805162461bcd60e51b815260206004820152600c60248201526b1d5b985d5d1a1bdc9a5e995960a21b604482015290519081900360640190fd5b600355565b6109c581610f89565b50565b6109d0610819565b610a10576040805162461bcd60e51b815260206004820152600c60248201526b1d5b985d5d1a1bdc9a5e995960a21b604482015290519081900360640190fd5b6109c58161103d565b60055490565b6001600160a01b031660009081526007602052604090205490565b600b5490565b600254604080516372ec979560e01b815242600482015290516000926001600160a01b0316916372ec9795916024808301926020929190829003018186803b158015610a8b57600080fd5b505afa158015610a9f573d6000803e3d6000fd5b505050506040513d6020811015610ab557600080fd5b505190506109c581610f89565b60045490565b600080600080610ad66113ba565b6001600160a01b03881660009081526007602052604081205460055415801590610b01575060065481115b15610b165795506000945061040d9350505050565b600454881015610b395760008111610b3057600454610b32565b805b8352610bc4565b80881115610bc057600254604080516372ec979560e01b8152600481018b905290516001600160a01b03909216916372ec979591602480820192602092909190829003018186803b158015610b8d57600080fd5b505afa158015610ba1573d6000803e3d6000fd5b505050506040513d6020811015610bb757600080fd5b50518352610bc4565b8083525b600254604080516372ec979560e01b815242600482015290516001600160a01b03909216916372ec979591602480820192602092909190829003018186803b158015610c0f57600080fd5b505afa158015610c23573d6000803e3d6000fd5b505050506040513d6020811015610c3957600080fd5b505191508815610ce95760025460035484516000926001600160a01b0316916372ec979591610c6d9163ffffffff6110dd16565b6040518263ffffffff1660e01b81526004018082815260200191505060206040518083038186803b158015610ca157600080fd5b505afa158015610cb5573d6000803e3d6000fd5b505050506040513d6020811015610ccb57600080fd5b50519050828111610cdc5780610cde565b825b602085015250610cf1565b602083018290525b6000600654118015610d0857506006548360200151115b15610d2957600654610d23906212750063ffffffff6110dd16565b60208401525b602083015183511115610d475750505193506000925061040d915050565b6001610d51610e17565b845191900394505b8360200151811015610de7576000818152600a602052604090205480610db057600b54610dad90610da090610d94428663ffffffff61114016565b9063ffffffff61118216565b879063ffffffff61114016565b90505b600954811015610dbf57506009545b610dda610dcd8d83856111c4565b889063ffffffff6110dd16565b9650506212750001610d59565b5060208301519650610e086227ac40610d948761038463ffffffff61126516565b95505050505050935093915050565b4390565b6000813f7fc5d2460186f7233c927e7db2dcc703c0e500b653ca82273b7bfad8045d85a470818114801590610e4f57508115155b949350505050565b3390565b80610e9e576040805162461bcd60e51b815260206004820152600e60248201526d185b5bdd5b9d081a5b9d985b1a5960921b604482015290519081900360640190fd5b6001600160a01b038216600090815260086020526040902054610ec7908263ffffffff6110dd16565b6001600160a01b038084166000818152600860205260408082209490945560015484516340c10f1960e01b8152600481019390935260248301869052935193909216926340c10f199260448084019391929182900301818387803b158015610f2e57600080fd5b505af1158015610f42573d6000803e3d6000fd5b50506040805184815290516001600160a01b03861693507f1d3eee4ca001cff39eec6ec7615aacf2f2bd61791273830728ba00ccbd6e133792509081900360200190a25050565b60006001610f95610e17565b6000848152600a6020526040902054919003915015610ffb576040805162461bcd60e51b815260206004820152601860248201527f626c6f636b206e756d62657220616c7265616479207365740000000000000000604482015290519081900360640190fd5b6000611026611019600b54610d94864261114090919063ffffffff16565b839063ffffffff61114016565b6000938452600a6020526040909320929092555050565b6001600160a01b0381166110825760405162461bcd60e51b81526004018080602001828103825260268152602001806113d56026913960400191505060405180910390fd5b600080546040516001600160a01b03808516939216917f8be0079c531659141344cd1fd0a4f28419497f9722a3daafe3b4186f6b6457e091a3600080546001600160a01b0319166001600160a01b0392909216919091179055565b600082820183811015611137576040805162461bcd60e51b815260206004820152601b60248201527f536166654d6174683a206164646974696f6e206f766572666c6f770000000000604482015290519081900360640190fd5b90505b92915050565b600061113783836040518060400160405280601e81526020017f536166654d6174683a207375627472616374696f6e206f766572666c6f7700008152506112be565b600061113783836040518060400160405280601a81526020017f536166654d6174683a206469766973696f6e206279207a65726f000000000000815250611355565b600254604080516337e6b1c160e01b81526001600160a01b0386811660048301526024820186905260448201859052915160009392909216916337e6b1c191606480820192602092909190829003018186803b15801561122357600080fd5b505afa158015611237573d6000803e3d6000fd5b505050506040513d602081101561124d57600080fd5b50516bffffffffffffffffffffffff16949350505050565b6000826112745750600061113a565b8282028284828161128157fe5b04146111375760405162461bcd60e51b81526004018080602001828103825260218152602001806114296021913960400191505060405180910390fd5b6000818484111561134d5760405162461bcd60e51b81526004018080602001828103825283818151815260200191508051906020019080838360005b838110156113125781810151838201526020016112fa565b50505050905090810190601f16801561133f5780820380516001836020036101000a031916815260200191505b509250505060405180910390fd5b505050900390565b600081836113a45760405162461bcd60e51b81526020600482018181528351602484015283519092839260449091019190850190808383600083156113125781810151838201526020016112fa565b5060008385816113b057fe5b0495945050505050565b60405180604001604052806000815260200160008152509056fe4f776e61626c653a206e6577206f776e657220697320746865207a65726f2061646472657373496e697469616c697a61626c653a20636f6e747261637420697320616c726561647920696e697469616c697a6564536166654d6174683a206d756c7469706c69636174696f6e206f766572666c6f77a265627a7a72315820b45c772d8fbc369713378a56172d63cada7d58da94ad282be16dfb3fbdad835364736f6c63430005110032",
  "implementation": "0xFf4b2D3F514344b74A87BD2744cb463DD3307cBB",
  "devdoc": {
    "methods": {
      "collectReward(uint256)": {
        "details": "User calls this function to collect osSOV staking rewards accrued by this contract The weighted stake is calculated using getPriorWeightedStake. Block number sent to the functon must be a finalised block, hence we deduct 1 from the current block. User is only allowed to withdraw after intervals of 14 days.",
        "params": {
          "_startTime": "The time from which to start the staking rewards calculation The issue is that we can only run for a max duration and if someone stakes for the first time after the max duration is over, the reward will always return 0. Thus, we need to restart from the duration that elapsed without generating rewards."
        }
      },
      "getArbitraryStakerCurrentReward(bool,uint256,address)": {
        "details": "getArbitraryStakerCurrentReward function internally calls this function to calculate reward amount",
        "params": {
          "_considerMaxDuration": "True: Runs for the maximum duration - used in tx not to run out of gas False - to query total rewards",
          "_staker": "The staker address to calculate rewards for",
          "_startTime": "The time from which the staking rewards calculation shall restart."
        },
        "return": "The timestamp of last withdrawalThe accumulated reward"
      },
      "getCheckpointBlockNumber(uint256)": {
        "params": {
          "_checkpointTimestamp": "Checkpoint timestamp"
        }
      },
      "getStakerCurrentReward(bool,uint256)": {
        "details": "getStakerCurrentReward function internally calls this function to calculate reward amount of msg.sender",
        "params": {
          "_considerMaxDuration": "True: Runs for the maximum duration - used in tx not to run out of gas False - to query total rewards",
          "_startTime": "The time from which the staking rewards calculation shall restart."
        },
        "return": "The timestamp of last withdrawalThe accumulated reward"
      },
      "initialize(address,address,uint256)": {
        "params": {
          "_averageBlockTime": "average block time used for calculating rewards",
          "_osSOV": "osSOV token address",
          "_staking": "StakingProxy address should be passed"
        }
      },
      "isOwner()": {
        "details": "Returns true if the caller is the current owner."
      },
      "owner()": {
        "details": "Returns the address of the current owner."
      },
      "setAverageBlockTime(uint256)": {
        "details": "If average block time significantly changes, we can update it here and use for block number calculation",
        "params": {
          "_averageBlockTime": "- average block time used for calculating checkpoint blocks"
        }
      },
      "setHistoricalBlock(uint256)": {
        "params": {
          "_time": "Exact staking checkpoint time"
        }
      },
      "setMaxDuration(uint256)": {
        "details": "Rewards can be collected for a maximum duration at a time. This is to avoid Block Gas Limit failures. Setting it zero would mean that it will loop through the entire duration since the start of rewards program. It should ideally be set to a value, for which the rewards can be easily processed.",
        "params": {
          "_duration": "Max duration for which rewards can be collected at a go (in seconds)"
        }
      },
      "stop()": {
        "details": "Users will only get rewards up to the stop block"
      },
      "transferOwnership(address)": {
        "details": "Transfers ownership of the contract to a new account (`newOwner`). Can only be called by the current owner."
      }
    },
    "title": "Staking Rewards Contract."
  },
  "userdoc": {
    "methods": {
      "collectReward(uint256)": {
        "notice": "Collect rewards"
      },
      "getArbitraryStakerCurrentReward(bool,uint256,address)": {
        "notice": "Get any staker's current accumulated reward"
      },
      "getCheckpointBlockNumber(uint256)": {
        "notice": "GETTERS"
      },
      "getStakerCurrentReward(bool,uint256)": {
        "notice": "Get staker's current accumulated reward"
      },
      "initialize(address,address,uint256)": {
        "notice": "Replacement of constructor by initialize function for Upgradable Contracts This function will be called only once by the owner."
      },
      "setAverageBlockTime(uint256)": {
        "notice": "Changes average block time - based on blockchain"
      },
      "setBlock()": {
        "notice": "This function computes the last staking checkpoint and calculates the corresponding block number using the average block time which is then added to the mapping `checkpointBlockNumber`."
      },
      "setHistoricalBlock(uint256)": {
        "notice": "This function computes the block number using the average block time for a given historical checkpoint which is added to the mapping `checkpointBlockNumber`."
      },
      "setMaxDuration(uint256)": {
        "notice": "Sets the max duration"
      },
      "stop()": {
        "notice": "Stops the current rewards program."
      }
    },
    "notice": "This is a trial incentive program. In this, the osSOV minted to voluntary stakers and is locked until transferred to BitcoinOS"
  },
  "storageLayout": {
    "storage": [
      {
        "astId": 55500,
        "contract": "contracts/governance/StakingRewards/StakingRewardsOs.sol:StakingRewardsOs",
        "label": "_owner",
        "offset": 0,
        "slot": "0",
        "type": "t_address"
      },
      {
        "astId": 25052,
        "contract": "contracts/governance/StakingRewards/StakingRewardsOs.sol:StakingRewardsOs",
        "label": "osSOV",
        "offset": 0,
        "slot": "1",
        "type": "t_contract(IERC20Mintable)34143"
      },
      {
        "astId": 25054,
        "contract": "contracts/governance/StakingRewards/StakingRewardsOs.sol:StakingRewardsOs",
        "label": "staking",
        "offset": 0,
        "slot": "2",
        "type": "t_contract(IStaking)17840"
      },
      {
        "astId": 25056,
        "contract": "contracts/governance/StakingRewards/StakingRewardsOs.sol:StakingRewardsOs",
        "label": "maxDuration",
        "offset": 0,
        "slot": "3",
        "type": "t_uint256"
      },
      {
        "astId": 25058,
        "contract": "contracts/governance/StakingRewards/StakingRewardsOs.sol:StakingRewardsOs",
        "label": "rewardsProgramStartTime",
        "offset": 0,
        "slot": "4",
        "type": "t_uint256"
      },
      {
        "astId": 25060,
        "contract": "contracts/governance/StakingRewards/StakingRewardsOs.sol:StakingRewardsOs",
        "label": "stopBlock",
        "offset": 0,
        "slot": "5",
        "type": "t_uint256"
      },
      {
        "astId": 25062,
        "contract": "contracts/governance/StakingRewards/StakingRewardsOs.sol:StakingRewardsOs",
        "label": "stopRewardsTimestamp",
        "offset": 0,
        "slot": "6",
        "type": "t_uint256"
      },
      {
        "astId": 25066,
        "contract": "contracts/governance/StakingRewards/StakingRewardsOs.sol:StakingRewardsOs",
        "label": "stakerNextWithdrawTimestamp",
        "offset": 0,
        "slot": "7",
        "type": "t_mapping(t_address,t_uint256)"
      },
      {
        "astId": 25070,
        "contract": "contracts/governance/StakingRewards/StakingRewardsOs.sol:StakingRewardsOs",
        "label": "claimedBalances",
        "offset": 0,
        "slot": "8",
        "type": "t_mapping(t_address,t_uint256)"
      },
      {
        "astId": 25072,
        "contract": "contracts/governance/StakingRewards/StakingRewardsOs.sol:StakingRewardsOs",
        "label": "deploymentBlock",
        "offset": 0,
        "slot": "9",
        "type": "t_uint256"
      },
      {
        "astId": 25076,
        "contract": "contracts/governance/StakingRewards/StakingRewardsOs.sol:StakingRewardsOs",
        "label": "checkpointBlockNumber",
        "offset": 0,
        "slot": "10",
        "type": "t_mapping(t_uint256,t_uint256)"
      },
      {
        "astId": 25078,
        "contract": "contracts/governance/StakingRewards/StakingRewardsOs.sol:StakingRewardsOs",
        "label": "averageBlockTime",
        "offset": 0,
        "slot": "11",
        "type": "t_uint256"
      },
      {
        "astId": 55455,
        "contract": "contracts/governance/StakingRewards/StakingRewardsOs.sol:StakingRewardsOs",
        "label": "_initialized",
        "offset": 0,
        "slot": "12",
        "type": "t_bool"
      },
      {
        "astId": 55457,
        "contract": "contracts/governance/StakingRewards/StakingRewardsOs.sol:StakingRewardsOs",
        "label": "_initializing",
        "offset": 1,
        "slot": "12",
        "type": "t_bool"
      }
    ],
    "types": {
      "t_address": {
        "encoding": "inplace",
        "label": "address",
        "numberOfBytes": "20"
      },
      "t_bool": {
        "encoding": "inplace",
        "label": "bool",
        "numberOfBytes": "1"
      },
      "t_contract(IERC20Mintable)34143": {
        "encoding": "inplace",
        "label": "contract IERC20Mintable",
        "numberOfBytes": "20"
      },
      "t_contract(IStaking)17840": {
        "encoding": "inplace",
        "label": "contract IStaking",
        "numberOfBytes": "20"
      },
      "t_mapping(t_address,t_uint256)": {
        "encoding": "mapping",
        "key": "t_address",
        "label": "mapping(address => uint256)",
        "numberOfBytes": "32",
        "value": "t_uint256"
      },
      "t_mapping(t_uint256,t_uint256)": {
        "encoding": "mapping",
        "key": "t_uint256",
        "label": "mapping(uint256 => uint256)",
        "numberOfBytes": "32",
        "value": "t_uint256"
      },
      "t_uint256": {
        "encoding": "inplace",
        "label": "uint256",
        "numberOfBytes": "32"
      }
    }
  }
}