{
    "address": "0xaAbdFEFC6Be0a9e876FB16fe5f3f05B3580B9377",
    "abi": [
        {
            "anonymous": false,
            "inputs": [
                {
                    "indexed": false,
                    "internalType": "address",
                    "name": "admin",
                    "type": "address"
                }
            ],
            "name": "AdminAdded",
            "type": "event"
        },
        {
            "anonymous": false,
            "inputs": [
                {
                    "indexed": false,
                    "internalType": "address",
                    "name": "admin",
                    "type": "address"
                }
            ],
            "name": "AdminRemoved",
            "type": "event"
        },
        {
            "anonymous": false,
            "inputs": [
                {
                    "indexed": false,
                    "internalType": "bytes32",
                    "name": "hash",
                    "type": "bytes32"
                }
            ],
            "name": "ContractCodeHashAdded",
            "type": "event"
        },
        {
            "anonymous": false,
            "inputs": [
                {
                    "indexed": false,
                    "internalType": "bytes32",
                    "name": "hash",
                    "type": "bytes32"
                }
            ],
            "name": "ContractCodeHashRemoved",
            "type": "event"
        },
        {
            "anonymous": false,
            "inputs": [
                {
                    "indexed": true,
                    "internalType": "address",
                    "name": "delegator",
                    "type": "address"
                },
                {
                    "indexed": false,
                    "internalType": "uint256",
                    "name": "lockedUntil",
                    "type": "uint256"
                },
                {
                    "indexed": true,
                    "internalType": "address",
                    "name": "fromDelegate",
                    "type": "address"
                },
                {
                    "indexed": true,
                    "internalType": "address",
                    "name": "toDelegate",
                    "type": "address"
                }
            ],
            "name": "DelegateChanged",
            "type": "event"
        },
        {
            "anonymous": false,
            "inputs": [
                {
                    "indexed": true,
                    "internalType": "address",
                    "name": "delegate",
                    "type": "address"
                },
                {
                    "indexed": false,
                    "internalType": "uint256",
                    "name": "lockedUntil",
                    "type": "uint256"
                },
                {
                    "indexed": false,
                    "internalType": "uint256",
                    "name": "previousBalance",
                    "type": "uint256"
                },
                {
                    "indexed": false,
                    "internalType": "uint256",
                    "name": "newBalance",
                    "type": "uint256"
                }
            ],
            "name": "DelegateStakeChanged",
            "type": "event"
        },
        {
            "anonymous": false,
            "inputs": [
                {
                    "indexed": true,
                    "internalType": "address",
                    "name": "staker",
                    "type": "address"
                },
                {
                    "indexed": false,
                    "internalType": "uint256",
                    "name": "previousDate",
                    "type": "uint256"
                },
                {
                    "indexed": false,
                    "internalType": "uint256",
                    "name": "newDate",
                    "type": "uint256"
                },
                {
                    "indexed": false,
                    "internalType": "uint256",
                    "name": "amountStaked",
                    "type": "uint256"
                }
            ],
            "name": "ExtendedStakingDuration",
            "type": "event"
        },
        {
            "anonymous": false,
            "inputs": [
                {
                    "indexed": true,
                    "internalType": "address",
                    "name": "previousOwner",
                    "type": "address"
                },
                {
                    "indexed": true,
                    "internalType": "address",
                    "name": "newOwner",
                    "type": "address"
                }
            ],
            "name": "OwnershipTransferred",
            "type": "event"
        },
        {
            "anonymous": false,
            "inputs": [
                {
                    "indexed": true,
                    "internalType": "address",
                    "name": "pauser",
                    "type": "address"
                },
                {
                    "indexed": true,
                    "internalType": "bool",
                    "name": "added",
                    "type": "bool"
                }
            ],
            "name": "PauserAddedOrRemoved",
            "type": "event"
        },
        {
            "anonymous": false,
            "inputs": [
                {
                    "indexed": true,
                    "internalType": "bool",
                    "name": "setFrozen",
                    "type": "bool"
                }
            ],
            "name": "StakingFrozen",
            "type": "event"
        },
        {
            "anonymous": false,
            "inputs": [
                {
                    "indexed": true,
                    "internalType": "bool",
                    "name": "setPaused",
                    "type": "bool"
                }
            ],
            "name": "StakingPaused",
            "type": "event"
        },
        {
            "anonymous": false,
            "inputs": [
                {
                    "indexed": true,
                    "internalType": "address",
                    "name": "staker",
                    "type": "address"
                },
                {
                    "indexed": false,
                    "internalType": "uint256",
                    "name": "amount",
                    "type": "uint256"
                },
                {
                    "indexed": false,
                    "internalType": "uint256",
                    "name": "until",
                    "type": "uint256"
                },
                {
                    "indexed": true,
                    "internalType": "address",
                    "name": "receiver",
                    "type": "address"
                },
                {
                    "indexed": false,
                    "internalType": "bool",
                    "name": "isGovernance",
                    "type": "bool"
                }
            ],
            "name": "StakingWithdrawn",
            "type": "event"
        },
        {
            "anonymous": false,
            "inputs": [
                {
                    "indexed": true,
                    "internalType": "address",
                    "name": "caller",
                    "type": "address"
                },
                {
                    "indexed": false,
                    "internalType": "address",
                    "name": "receiver",
                    "type": "address"
                }
            ],
            "name": "TeamVestingCancelled",
            "type": "event"
        },
        {
            "anonymous": false,
            "inputs": [
                {
                    "indexed": true,
                    "internalType": "address",
                    "name": "caller",
                    "type": "address"
                },
                {
                    "indexed": false,
                    "internalType": "address",
                    "name": "receiver",
                    "type": "address"
                },
                {
                    "indexed": false,
                    "internalType": "uint256",
                    "name": "lastProcessedDate",
                    "type": "uint256"
                }
            ],
            "name": "TeamVestingPartiallyCancelled",
            "type": "event"
        },
        {
            "anonymous": false,
            "inputs": [
                {
                    "indexed": true,
                    "internalType": "address",
                    "name": "staker",
                    "type": "address"
                },
                {
                    "indexed": false,
                    "internalType": "uint256",
                    "name": "amount",
                    "type": "uint256"
                },
                {
                    "indexed": false,
                    "internalType": "uint256",
                    "name": "lockedUntil",
                    "type": "uint256"
                },
                {
                    "indexed": false,
                    "internalType": "uint256",
                    "name": "totalStaked",
                    "type": "uint256"
                }
            ],
            "name": "TokensStaked",
            "type": "event"
        },
        {
            "anonymous": false,
            "inputs": [
                {
                    "indexed": false,
                    "internalType": "uint256",
                    "name": "amount",
                    "type": "uint256"
                }
            ],
            "name": "TokensUnlocked",
            "type": "event"
        },
        {
            "anonymous": false,
            "inputs": [
                {
                    "indexed": false,
                    "internalType": "uint256",
                    "name": "lockedTS",
                    "type": "uint256"
                },
                {
                    "indexed": false,
                    "internalType": "uint96",
                    "name": "value",
                    "type": "uint96"
                }
            ],
            "name": "VestingStakeSet",
            "type": "event"
        },
        {
            "anonymous": false,
            "inputs": [
                {
                    "indexed": false,
                    "internalType": "address",
                    "name": "vesting",
                    "type": "address"
                },
                {
                    "indexed": false,
                    "internalType": "address",
                    "name": "receiver",
                    "type": "address"
                }
            ],
            "name": "VestingTokensWithdrawn",
            "type": "event"
        },
        {
            "constant": true,
            "inputs": [],
            "name": "DELEGATION_TYPEHASH",
            "outputs": [
                {
                    "internalType": "bytes32",
                    "name": "",
                    "type": "bytes32"
                }
            ],
            "payable": false,
            "stateMutability": "view",
            "type": "function"
        },
        {
            "constant": true,
            "inputs": [],
            "name": "DOMAIN_TYPEHASH",
            "outputs": [
                {
                    "internalType": "bytes32",
                    "name": "",
                    "type": "bytes32"
                }
            ],
            "payable": false,
            "stateMutability": "view",
            "type": "function"
        },
        {
            "constant": true,
            "inputs": [],
            "name": "MAX_DURATION",
            "outputs": [
                {
                    "internalType": "uint256",
                    "name": "",
                    "type": "uint256"
                }
            ],
            "payable": false,
            "stateMutability": "view",
            "type": "function"
        },
        {
            "constant": true,
            "inputs": [],
            "name": "MAX_VOTING_WEIGHT",
            "outputs": [
                {
                    "internalType": "uint96",
                    "name": "",
                    "type": "uint96"
                }
            ],
            "payable": false,
            "stateMutability": "view",
            "type": "function"
        },
        {
            "constant": true,
            "inputs": [],
            "name": "SOVToken",
            "outputs": [
                {
                    "internalType": "contract IERC20",
                    "name": "",
                    "type": "address"
                }
            ],
            "payable": false,
            "stateMutability": "view",
            "type": "function"
        },
        {
            "constant": true,
            "inputs": [],
            "name": "WEIGHT_FACTOR",
            "outputs": [
                {
                    "internalType": "uint96",
                    "name": "",
                    "type": "uint96"
                }
            ],
            "payable": false,
            "stateMutability": "view",
            "type": "function"
        },
        {
            "constant": true,
            "inputs": [
                {
                    "internalType": "address",
                    "name": "",
                    "type": "address"
                }
            ],
            "name": "admins",
            "outputs": [
                {
                    "internalType": "bool",
                    "name": "",
                    "type": "bool"
                }
            ],
            "payable": false,
            "stateMutability": "view",
            "type": "function"
        },
        {
            "constant": true,
            "inputs": [],
            "name": "allUnlocked",
            "outputs": [
                {
                    "internalType": "bool",
                    "name": "",
                    "type": "bool"
                }
            ],
            "payable": false,
            "stateMutability": "view",
            "type": "function"
        },
        {
            "constant": true,
            "inputs": [
                {
                    "internalType": "address",
                    "name": "account",
                    "type": "address"
                }
            ],
            "name": "balanceOf",
            "outputs": [
                {
                    "internalType": "uint96",
                    "name": "balance",
                    "type": "uint96"
                }
            ],
            "payable": false,
            "stateMutability": "view",
            "type": "function"
        },
        {
            "constant": true,
            "inputs": [
                {
                    "internalType": "address",
                    "name": "",
                    "type": "address"
                },
                {
                    "internalType": "uint256",
                    "name": "",
                    "type": "uint256"
                },
                {
                    "internalType": "uint32",
                    "name": "",
                    "type": "uint32"
                }
            ],
            "name": "delegateStakingCheckpoints",
            "outputs": [
                {
                    "internalType": "uint32",
                    "name": "fromBlock",
                    "type": "uint32"
                },
                {
                    "internalType": "uint96",
                    "name": "stake",
                    "type": "uint96"
                }
            ],
            "payable": false,
            "stateMutability": "view",
            "type": "function"
        },
        {
            "constant": true,
            "inputs": [
                {
                    "internalType": "address",
                    "name": "",
                    "type": "address"
                },
                {
                    "internalType": "uint256",
                    "name": "",
                    "type": "uint256"
                }
            ],
            "name": "delegates",
            "outputs": [
                {
                    "internalType": "address",
                    "name": "",
                    "type": "address"
                }
            ],
            "payable": false,
            "stateMutability": "view",
            "type": "function"
        },
        {
            "constant": false,
            "inputs": [
                {
                    "internalType": "uint256",
                    "name": "previousLock",
                    "type": "uint256"
                },
                {
                    "internalType": "uint256",
                    "name": "until",
                    "type": "uint256"
                }
            ],
            "name": "extendStakingDuration",
            "outputs": [],
            "payable": false,
            "stateMutability": "nonpayable",
            "type": "function"
        },
        {
            "constant": true,
            "inputs": [],
            "name": "feeSharing",
            "outputs": [
                {
                    "internalType": "contract IFeeSharingCollector",
                    "name": "",
                    "type": "address"
                }
            ],
            "payable": false,
            "stateMutability": "view",
            "type": "function"
        },
        {
            "constant": true,
            "inputs": [],
            "name": "frozen",
            "outputs": [
                {
                    "internalType": "bool",
                    "name": "",
                    "type": "bool"
                }
            ],
            "payable": false,
            "stateMutability": "view",
            "type": "function"
        },
        {
            "constant": true,
            "inputs": [
                {
                    "internalType": "uint256",
                    "name": "lockedTS",
                    "type": "uint256"
                }
            ],
            "name": "getCurrentStakedUntil",
            "outputs": [
                {
                    "internalType": "uint96",
                    "name": "",
                    "type": "uint96"
                }
            ],
            "payable": false,
            "stateMutability": "view",
            "type": "function"
        },
        {
            "constant": true,
            "inputs": [],
            "name": "getFunctionsList",
            "outputs": [
                {
                    "internalType": "bytes4[]",
                    "name": "",
                    "type": "bytes4[]"
                }
            ],
            "payable": false,
            "stateMutability": "pure",
            "type": "function"
        },
        {
            "constant": true,
            "inputs": [
                {
                    "internalType": "address",
                    "name": "account",
                    "type": "address"
                }
            ],
            "name": "getStakes",
            "outputs": [
                {
                    "internalType": "uint256[]",
                    "name": "dates",
                    "type": "uint256[]"
                },
                {
                    "internalType": "uint96[]",
                    "name": "stakes",
                    "type": "uint96[]"
                }
            ],
            "payable": false,
            "stateMutability": "view",
            "type": "function"
        },
        {
            "constant": true,
            "inputs": [],
            "name": "isOwner",
            "outputs": [
                {
                    "internalType": "bool",
                    "name": "",
                    "type": "bool"
                }
            ],
            "payable": false,
            "stateMutability": "view",
            "type": "function"
        },
        {
            "constant": true,
            "inputs": [],
            "name": "kickoffTS",
            "outputs": [
                {
                    "internalType": "uint256",
                    "name": "",
                    "type": "uint256"
                }
            ],
            "payable": false,
            "stateMutability": "view",
            "type": "function"
        },
        {
            "constant": true,
            "inputs": [],
            "name": "newStakingContract",
            "outputs": [
                {
                    "internalType": "address",
                    "name": "",
                    "type": "address"
                }
            ],
            "payable": false,
            "stateMutability": "view",
            "type": "function"
        },
        {
            "constant": true,
            "inputs": [
                {
                    "internalType": "address",
                    "name": "",
                    "type": "address"
                }
            ],
            "name": "nonces",
            "outputs": [
                {
                    "internalType": "uint256",
                    "name": "",
                    "type": "uint256"
                }
            ],
            "payable": false,
            "stateMutability": "view",
            "type": "function"
        },
        {
            "constant": true,
            "inputs": [
                {
                    "internalType": "address",
                    "name": "",
                    "type": "address"
                },
                {
                    "internalType": "uint256",
                    "name": "",
                    "type": "uint256"
                }
            ],
            "name": "numDelegateStakingCheckpoints",
            "outputs": [
                {
                    "internalType": "uint32",
                    "name": "",
                    "type": "uint32"
                }
            ],
            "payable": false,
            "stateMutability": "view",
            "type": "function"
        },
        {
            "constant": true,
            "inputs": [
                {
                    "internalType": "uint256",
                    "name": "",
                    "type": "uint256"
                }
            ],
            "name": "numTotalStakingCheckpoints",
            "outputs": [
                {
                    "internalType": "uint32",
                    "name": "",
                    "type": "uint32"
                }
            ],
            "payable": false,
            "stateMutability": "view",
            "type": "function"
        },
        {
            "constant": true,
            "inputs": [
                {
                    "internalType": "address",
                    "name": "",
                    "type": "address"
                },
                {
                    "internalType": "uint256",
                    "name": "",
                    "type": "uint256"
                }
            ],
            "name": "numUserStakingCheckpoints",
            "outputs": [
                {
                    "internalType": "uint32",
                    "name": "",
                    "type": "uint32"
                }
            ],
            "payable": false,
            "stateMutability": "view",
            "type": "function"
        },
        {
            "constant": true,
            "inputs": [
                {
                    "internalType": "uint256",
                    "name": "",
                    "type": "uint256"
                }
            ],
            "name": "numVestingCheckpoints",
            "outputs": [
                {
                    "internalType": "uint32",
                    "name": "",
                    "type": "uint32"
                }
            ],
            "payable": false,
            "stateMutability": "view",
            "type": "function"
        },
        {
            "constant": true,
            "inputs": [],
            "name": "owner",
            "outputs": [
                {
                    "internalType": "address",
                    "name": "",
                    "type": "address"
                }
            ],
            "payable": false,
            "stateMutability": "view",
            "type": "function"
        },
        {
            "constant": true,
            "inputs": [],
            "name": "paused",
            "outputs": [
                {
                    "internalType": "bool",
                    "name": "",
                    "type": "bool"
                }
            ],
            "payable": false,
            "stateMutability": "view",
            "type": "function"
        },
        {
            "constant": true,
            "inputs": [
                {
                    "internalType": "address",
                    "name": "",
                    "type": "address"
                }
            ],
            "name": "pausers",
            "outputs": [
                {
                    "internalType": "bool",
                    "name": "",
                    "type": "bool"
                }
            ],
            "payable": false,
            "stateMutability": "view",
            "type": "function"
        },
        {
            "constant": false,
            "inputs": [
                {
                    "internalType": "address",
                    "name": "_sender",
                    "type": "address"
                },
                {
                    "internalType": "uint256",
                    "name": "_amount",
                    "type": "uint256"
                },
                {
                    "internalType": "address",
                    "name": "_token",
                    "type": "address"
                },
                {
                    "internalType": "bytes",
                    "name": "_data",
                    "type": "bytes"
                }
            ],
            "name": "receiveApproval",
            "outputs": [],
            "payable": false,
            "stateMutability": "nonpayable",
            "type": "function"
        },
        {
            "constant": false,
            "inputs": [
                {
                    "internalType": "uint96",
                    "name": "amount",
                    "type": "uint96"
                },
                {
                    "internalType": "uint256",
                    "name": "until",
                    "type": "uint256"
                },
                {
                    "internalType": "address",
                    "name": "stakeFor",
                    "type": "address"
                },
                {
                    "internalType": "address",
                    "name": "delegatee",
                    "type": "address"
                }
            ],
            "name": "stake",
            "outputs": [],
            "payable": false,
            "stateMutability": "nonpayable",
            "type": "function"
        },
        {
            "constant": false,
            "inputs": [
                {
                    "internalType": "uint256",
                    "name": "amount",
                    "type": "uint256"
                },
                {
                    "internalType": "uint256",
                    "name": "cliff",
                    "type": "uint256"
                },
                {
                    "internalType": "uint256",
                    "name": "duration",
                    "type": "uint256"
                },
                {
                    "internalType": "uint256",
                    "name": "intervalLength",
                    "type": "uint256"
                },
                {
                    "internalType": "address",
                    "name": "stakeFor",
                    "type": "address"
                },
                {
                    "internalType": "address",
                    "name": "delegatee",
                    "type": "address"
                }
            ],
            "name": "stakeBySchedule",
            "outputs": [],
            "payable": false,
            "stateMutability": "nonpayable",
            "type": "function"
        },
        {
            "constant": false,
            "inputs": [
                {
                    "internalType": "address",
                    "name": "sender",
                    "type": "address"
                },
                {
                    "internalType": "uint96",
                    "name": "amount",
                    "type": "uint96"
                },
                {
                    "internalType": "uint256",
                    "name": "until",
                    "type": "uint256"
                },
                {
                    "internalType": "address",
                    "name": "stakeFor",
                    "type": "address"
                },
                {
                    "internalType": "address",
                    "name": "delegatee",
                    "type": "address"
                }
            ],
            "name": "stakeWithApproval",
            "outputs": [],
            "payable": false,
            "stateMutability": "nonpayable",
            "type": "function"
        },
        {
            "constant": false,
            "inputs": [
                {
                    "internalType": "uint256",
                    "name": "amount",
                    "type": "uint256"
                },
                {
                    "internalType": "uint256",
                    "name": "cliff",
                    "type": "uint256"
                },
                {
                    "internalType": "uint256",
                    "name": "duration",
                    "type": "uint256"
                },
                {
                    "internalType": "uint256",
                    "name": "intervalLength",
                    "type": "uint256"
                },
                {
                    "internalType": "address",
                    "name": "stakeFor",
                    "type": "address"
                },
                {
                    "internalType": "address",
                    "name": "delegatee",
                    "type": "address"
                }
            ],
            "name": "stakesBySchedule",
            "outputs": [],
            "payable": false,
            "stateMutability": "nonpayable",
            "type": "function"
        },
        {
            "constant": true,
            "inputs": [
                {
                    "internalType": "uint256",
                    "name": "timestamp",
                    "type": "uint256"
                }
            ],
            "name": "timestampToLockDate",
            "outputs": [
                {
                    "internalType": "uint256",
                    "name": "",
                    "type": "uint256"
                }
            ],
            "payable": false,
            "stateMutability": "view",
            "type": "function"
        },
        {
            "constant": true,
            "inputs": [
                {
                    "internalType": "uint256",
                    "name": "",
                    "type": "uint256"
                },
                {
                    "internalType": "uint32",
                    "name": "",
                    "type": "uint32"
                }
            ],
            "name": "totalStakingCheckpoints",
            "outputs": [
                {
                    "internalType": "uint32",
                    "name": "fromBlock",
                    "type": "uint32"
                },
                {
                    "internalType": "uint96",
                    "name": "stake",
                    "type": "uint96"
                }
            ],
            "payable": false,
            "stateMutability": "view",
            "type": "function"
        },
        {
            "constant": false,
            "inputs": [
                {
                    "internalType": "address",
                    "name": "newOwner",
                    "type": "address"
                }
            ],
            "name": "transferOwnership",
            "outputs": [],
            "payable": false,
            "stateMutability": "nonpayable",
            "type": "function"
        },
        {
            "constant": true,
            "inputs": [
                {
                    "internalType": "address",
                    "name": "",
                    "type": "address"
                },
                {
                    "internalType": "uint256",
                    "name": "",
                    "type": "uint256"
                },
                {
                    "internalType": "uint32",
                    "name": "",
                    "type": "uint32"
                }
            ],
            "name": "userStakingCheckpoints",
            "outputs": [
                {
                    "internalType": "uint32",
                    "name": "fromBlock",
                    "type": "uint32"
                },
                {
                    "internalType": "uint96",
                    "name": "stake",
                    "type": "uint96"
                }
            ],
            "payable": false,
            "stateMutability": "view",
            "type": "function"
        },
        {
            "constant": true,
            "inputs": [
                {
                    "internalType": "uint256",
                    "name": "",
                    "type": "uint256"
                },
                {
                    "internalType": "uint32",
                    "name": "",
                    "type": "uint32"
                }
            ],
            "name": "vestingCheckpoints",
            "outputs": [
                {
                    "internalType": "uint32",
                    "name": "fromBlock",
                    "type": "uint32"
                },
                {
                    "internalType": "uint96",
                    "name": "stake",
                    "type": "uint96"
                }
            ],
            "payable": false,
            "stateMutability": "view",
            "type": "function"
        },
        {
            "constant": true,
            "inputs": [
                {
                    "internalType": "bytes32",
                    "name": "",
                    "type": "bytes32"
                }
            ],
            "name": "vestingCodeHashes",
            "outputs": [
                {
                    "internalType": "bool",
                    "name": "",
                    "type": "bool"
                }
            ],
            "payable": false,
            "stateMutability": "view",
            "type": "function"
        },
        {
            "constant": true,
            "inputs": [],
            "name": "vestingRegistryLogic",
            "outputs": [
                {
                    "internalType": "contract IVestingRegistry",
                    "name": "",
                    "type": "address"
                }
            ],
            "payable": false,
            "stateMutability": "view",
            "type": "function"
        },
        {
            "constant": true,
            "inputs": [
                {
                    "internalType": "address",
                    "name": "",
                    "type": "address"
                }
            ],
            "name": "vestingWhitelist",
            "outputs": [
                {
                    "internalType": "bool",
                    "name": "",
                    "type": "bool"
                }
            ],
            "payable": false,
            "stateMutability": "view",
            "type": "function"
        },
        {
            "constant": true,
            "inputs": [],
            "name": "weightScaling",
            "outputs": [
                {
                    "internalType": "uint96",
                    "name": "",
                    "type": "uint96"
                }
            ],
            "payable": false,
            "stateMutability": "view",
            "type": "function"
        }
    ],
    "transactionHash": "0xe8969df05d844c36fdfffd57125425d7c8b469115c0746aea8855df7e642cbe0",
    "args": [],
    "numDeployments": 1,
    "solcInputHash": "015b019a6db9133c2258981a8efcf2d8",
    "bytecode": "0x60c0604052600a608081905269534f565374616b696e6760b01b60a09081526200002d9160029190620000ae565b506005805460ff19169055600d80546001600160a01b0316600360a01b179055600062000059620000a9565b600080546001600160a01b0319166001600160a01b0383169081178255604051929350917f8be0079c531659141344cd1fd0a4f28419497f9722a3daafe3b4186f6b6457e0908290a35062000150565b335b90565b828054600181600116156101000203166002900490600052602060002090601f016020900481019282601f10620000f157805160ff191683800117855562000121565b8280016001018555821562000121579182015b828111156200012157825182559160200191906001019062000104565b506200012f92915062000133565b5090565b620000ab91905b808211156200012f57600081556001016200013a565b61383a80620001606000396000f3fe608060405234801561001057600080fd5b506004361061025d5760003560e01c80638f32d59b11610146578063bf626ec1116100c3578063db27ec1811610087578063db27ec18146104cd578063dfb267c2146104e0578063e7a324dc146104f3578063eefb8c47146104fb578063f2fde38b1461050e578063f3f19731146105215761025d565b8063bf626ec114610495578063c1b79b051461033d578063d27569e71461049d578063d5c38464146104a5578063d8ad326d146104b85761025d565b8063a58848c51161010a578063a58848c514610457578063adae90021461045f578063ae81dfe414610472578063b1724b461461047a578063bb533cf2146104825761025d565b80638f32d59b146104015780638f4ffcb1146104095780639436e7d41461041c57806394c2ce581461043c5780639929e8861461044f5761025d565b8063429b62e5116101df57806370a08231116101a357806370a082311461038c57806372ec97951461039f5780637ba6f458146103b25780637ecebe00146103d357806380f51c12146103e65780638da5cb5b146103f95761025d565b8063429b62e51461032a5780634b2fea1e1461033d5780635c975abb1461035057806368cefccc146103585780636b6fde0e146103795761025d565b8063104932cf11610226578063104932cf146102d257806317748adc146102da57806320606b70146102ef57806325629ec0146102f757806327dd1b001461030a5761025d565b8062073f991461026257806303a18fa314610280578063054f7d9c1461029557806307392cc0146102aa5780630c09ddfd146102bd575b600080fd5b61026a610534565b604051610277919061352a565b60405180910390f35b61028861053a565b6040516102779190613538565b61029d610549565b604051610277919061351c565b61029d6102b8366004612b5e565b610557565b6102d06102cb366004612acb565b61056c565b005b6102886105f5565b6102e2610604565b60405161027791906136e6565b61026a610609565b6102d0610305366004612c95565b610620565b61031d6103183660046129c6565b610680565b6040516102779190613488565b61029d6103383660046129a0565b6106a6565b6102d061034b366004612bde565b6106bb565b61029d61071c565b61036b610366366004612a7e565b610725565b6040516102779291906136cb565b61036b610387366004612a7e565b610760565b6102e261039a3660046129a0565b61079b565b61026a6103ad366004612b5e565b6107f0565b6103c56103c03660046129a0565b610803565b6040516102779291906134f7565b61026a6103e13660046129a0565b61093e565b61029d6103f43660046129a0565b610950565b61031d610965565b61029d610974565b6102d0610417366004612a00565b610998565b61042f61042a366004612b5e565b610b8c565b60405161027791906136bd565b61042f61044a3660046129c6565b610ba4565b61029d610bc7565b610288610bd0565b61029d61046d3660046129a0565b610bdf565b61031d610bf4565b61026a610c08565b61042f610490366004612b5e565b610c10565b6102e2610c28565b6102e2610c3e565b6102e26104b3366004612b5e565b610c43565b6104c0610ca0565b60405161027791906134e6565b61042f6104db3660046129c6565b610eb4565b61036b6104ee366004612c65565b610ed7565b61026a610f0c565b6102d0610509366004612bbf565b610f18565b6102d061051c3660046129a0565b611124565b61036b61052f366004612c65565b611154565b60015481565b600d546001600160a01b031681565b601554610100900460ff1681565b60106020526000908152604090205460ff1681565b3330146105945760405162461bcd60e51b815260040161058b90613607565b60405180910390fd5b60155460ff16156105b75760405162461bcd60e51b815260040161058b90613677565b601554610100900460ff16156105df5760405162461bcd60e51b815260040161058b90613677565b6105ee85858585856000611189565b5050505050565b6013546001600160a01b031681565b600981565b60405161061590613472565b604051809103902081565b60155460ff16156106435760405162461bcd60e51b815260040161058b90613677565b601554610100900460ff161561066b5760405162461bcd60e51b815260040161058b90613677565b61067a33858585856000611189565b50505050565b60046020908152600092835260408084209091529082529020546001600160a01b031681565b600f6020526000908152604090205460ff1681565b60155460ff16156106de5760405162461bcd60e51b815260040161058b90613677565b601554610100900460ff16156107065760405162461bcd60e51b815260040161058b90613677565b610714868686868686611199565b505050505050565b60155460ff1681565b600a60209081526000938452604080852082529284528284209052825290205463ffffffff811690600160201b90046001600160601b031682565b600860209081526000938452604080852082529284528284209052825290205463ffffffff811690600160201b90046001600160601b031682565b6001546000905b63059fa600420181116107ea576107de826107bd85846113b3565b6040518060400160405280600381526020016229989960e91b815250611416565b915062127500016107a2565b50919050565b60006107fb82611452565b90505b919050565b606080600061081763059fa6004201611452565b60015490915060009062127500015b82811161085957600061083987836113b3565b6001600160601b0316111561084f576001909101905b6212750001610826565b5080604051908082528060200260200182016040528015610884578160200160208202803883390190505b509350806040519080825280602002602001820160405280156108b1578160200160208202803883390190505b5060015490935060009062127500015b8381116109355760006108d488836113b3565b90506001600160601b0381161561092a57818784815181106108f257fe5b6020026020010181815250508086848151811061090b57fe5b6001600160601b03909216602092830291909101909101526001909201915b5062127500016108c1565b50505050915091565b600c6020526000908152604090205481565b60146020526000908152604090205460ff1681565b6000546001600160a01b031690565b600080546001600160a01b0316610989611492565b6001600160a01b031614905090565b6109a0611496565b6001600160a01b0316336001600160a01b0316146109d05760405162461bcd60e51b815260040161058b90613607565b336001600160a01b038416146109f85760405162461bcd60e51b815260040161058b90613607565b60006060610a046114a5565b90506000610a4785858080601f0160208091040260200160405190810160405280939291908181526020018383808284376000920191909152506114df92505050565b905060005b8251811015610a9557828181518110610a6157fe5b60200260200101516001600160e01b031916826001600160e01b0319161415610a8d5760019350610a95565b600101610a4c565b5082610ab35760405162461bcd60e51b815260040161058b906135a7565b600080600060201b8787604051602001610acf93929190613440565b604051602081830303815290604052806020019051610af19190810190612b7c565b9093509150506001600160a01b03808316908b1614610b225760405162461bcd60e51b815260040161058b906135d7565b888114610b415760405162461bcd60e51b815260040161058b90613667565b610b8087878080601f0160208091040260200160405190810160405280939291908181526020018383808284376000920191909152506114e692505050565b50505050505050505050565b60076020526000908152604090205463ffffffff1681565b600960209081526000928352604080842090915290825290205463ffffffff1681565b60055460ff1681565b6003546001600160a01b031681565b600e6020526000908152604090205460ff1681565b60055461010090046001600160a01b031681565b63059fa60081565b60126020526000908152604090205463ffffffff1681565b600d54600160a01b90046001600160601b031681565b600a81565b60008181526007602052604081205463ffffffff1680610c64576000610c99565b6000838152600660209081526040808320600019850163ffffffff168452909152902054600160201b90046001600160601b03165b9392505050565b60408051600a808252610160820190925260609182919060208201610140803883390190505090506325629ec060e01b81600081518110610cdd57fe5b6001600160e01b0319909216602092830291909101909101528051630c09ddfd60e01b9082906001908110610d0e57fe5b6001600160e01b031990921660209283029190910190910152805163eefb8c4760e01b9082906002908110610d3f57fe5b6001600160e01b0319909216602092830291909101909101528051632597f50f60e11b9082906003908110610d7057fe5b6001600160e01b031990921660209283029190910190910152805163c1b79b0560e01b9082906004908110610da157fe5b6001600160e01b03199092166020928302919091019091015280516370a0823160e01b9082906005908110610dd257fe5b6001600160e01b0319909216602092830291909101909101528051633570e11960e21b9082906006908110610e0357fe5b6001600160e01b0319909216602092830291909101909101528051630f74de8b60e31b9082906007908110610e3457fe5b6001600160e01b03199092166020928302919091019091015280516372ec979560e01b9082906008908110610e6557fe5b6001600160e01b0319909216602092830291909101909101528051638f4ffcb160e01b9082906009908110610e9657fe5b6001600160e01b031990921660209283029190910190910152905090565b600b60209081526000928352604080842090915290825290205463ffffffff1681565b600660209081526000928352604080842090915290825290205463ffffffff811690600160201b90046001600160601b031682565b6040516106159061347d565b60155460ff1615610f3b5760405162461bcd60e51b815260040161058b90613677565b601554610100900460ff1615610f635760405162461bcd60e51b815260040161058b90613677565b610f6c82611452565b9150610f7781611452565b9050610f8382336115c0565b6000610f9463059fa6004201611452565b905080821115610fa2578091505b818310610fc15760405162461bcd60e51b815260040161058b90613657565b6000610fd1338560014303611631565b90506000816001600160601b031611610ffc5760405162461bcd60e51b815260040161058b906135c7565b611007338583611886565b61101233848361191d565b61101b336119a6565b156110345761102a8482611a7f565b6110348382611af9565b61103e8482611b66565b6110488382611be0565b33600090815260046020908152604080832087845290915280822080546001600160a01b031981169091558583529120546001600160a01b039182169116806110c15750336000908152600460209081526040808320878452909152902080546001600160a01b0319166001600160a01b038316179055805b6110cc828785611c4d565b6110d7818685611cee565b336001600160a01b03167f809d79c94c86576d61afef75495b8df415224bf885310fed7ea315039f8c5b4c87878660405161111493929190613687565b60405180910390a2505050505050565b61112c610974565b6111485760405162461bcd60e51b815260040161058b90613607565b61115181611d77565b50565b601160209081526000928352604080842090915290825290205463ffffffff811690600160201b90046001600160601b031682565b6107148686868686866001611df8565b600086116111b95760405162461bcd60e51b815260040161058b906135b7565b63059fa6008411156111dd5760405162461bcd60e51b815260040161058b90613587565b600083116111fd5760405162461bcd60e51b815260040161058b90613617565b621275008306156112205760405162461bcd60e51b815260040161058b90613617565b816001600160a01b0316816001600160a01b03161415801561124a57506001600160a01b03811615155b15611277576001600160a01b03821633146112775760405162461bcd60e51b815260040161058b90613647565b6000611284864201611452565b90506000611293864201611452565b9050600085838303816112a257fe5b0460010190506000818a816112b357fe5b6003546040516323b872dd60e01b81529290910492506001600160a01b0316906323b872dd906112eb90339030908f90600401613496565b602060405180830381600087803b15801561130557600080fd5b505af1158015611319573d6000803e3d6000fd5b505050506040513d601f19601f8201168201806040525061133d9190810190612b40565b6113595760405162461bcd60e51b815260040161058b90613597565b6001821061137957611379336001840383028c0386898960016000611df8565b8387015b8381116113a65761138e81886115c0565b61139f3383838a8a60016000611df8565b870161137d565b5050505050505050505050565b6001600160a01b0382166000818152600b60209081526040808320858452825280832054938352600a8252808320858452825280832063ffffffff9485166000190190941683529290522054600160201b90046001600160601b03165b92915050565b6000838301826001600160601b0380871690831610156114495760405162461bcd60e51b815260040161058b9190613546565b50949350505050565b600154600090808310156114785760405162461bcd60e51b815260040161058b90613557565b600062127500828503046212750002919091019392505050565b3390565b6003546001600160a01b031690565b60408051600180825281830190925260609182919060208083019080388339019050509050630c09ddfd60e01b81600081518110610e9657fe5b6020015190565b60006060306001600160a01b0316836040516115029190613466565b6000604051808303816000865af19150503d806000811461153f576040519150601f19603f3d011682016040523d82523d6000602084013e611544565b606091505b5091509150816115bb57604481511161156f5760405162461bcd60e51b815260040161058b90613567565b6115a26040518060400160405280601181526020017003932b1b2b4bb32a0b8383937bb30b61d1607d1b81525082612012565b60405162461bcd60e51b815260040161058b9190613546565b505050565b6001600160a01b0381166000818152600b60209081526040808320868452825280832054938352600a8252808320868452825280832060001963ffffffff958616908101861685529252909120549091164314158061067a5760405162461bcd60e51b815260040161058b90613637565b600061163b61210c565b82106116595760405162461bcd60e51b815260040161058b90613627565b61166283612110565b6001600160a01b0385166000908152600b6020908152604080832084845290915290205490935063ffffffff168061169e576000915050610c99565b6001600160a01b0385166000908152600a60209081526040808320878452825280832063ffffffff60001986018116855292529091205416831061172a576001600160a01b0385166000908152600a6020908152604080832087845282528083206000199490940163ffffffff1683529290522054600160201b90046001600160601b03169050610c99565b6001600160a01b0385166000908152600a60209081526040808320878452825280832083805290915290205463ffffffff1683101561176d576000915050610c99565b600060001982015b8163ffffffff168163ffffffff16111561183857600282820363ffffffff1604810361179f6128f3565b506001600160a01b0388166000908152600a602090815260408083208a8452825280832063ffffffff858116855290835292819020815180830190925254928316808252600160201b9093046001600160601b0316918101919091529087141561181357602001519450610c999350505050565b805163ffffffff1687111561182a57819350611831565b6001820392505b5050611775565b506001600160a01b0386166000908152600a60209081526040808320888452825280832063ffffffff909416835292905220546001600160601b03600160201b909104169150509392505050565b6001600160a01b0383166000818152600b60209081526040808320868452825280832054938352600a8252808320868452825280832063ffffffff94851660001981019095168452825280832054815180830190925260048252634350303560e01b92820192909252600160201b9091046001600160601b0316919061190f9083908690612135565b905061071486868584612174565b6001600160a01b0383166000818152600b60209081526040808320868452825280832054938352600a8252808320868452825280832063ffffffff948516600019810190951684528252808320548151808301909252600482526310d40c0d60e21b92820192909252600160201b9091046001600160601b0316919061190f9083908690611416565b6013546000908190833f906001600160a01b031615611a4257601354604051633288436360e21b81526001600160a01b039091169063ca210d8c906119ef908790600401613488565b60206040518083038186803b158015611a0757600080fd5b505afa158015611a1b573d6000803e3d6000fd5b505050506040513d601f19601f82011682018060405250611a3f9190810190612b40565b91505b8115611a53576001925050506107fe565b60008181526010602052604090205460ff1615611a75576001925050506107fe565b5060009392505050565b6000828152601260209081526040808320546011835281842063ffffffff918216600019810190921685528352818420548251808401909352600483526321a8181960e11b9383019390935292600160201b9092046001600160601b03169190611aec9083908690612135565b90506105ee8584836122f6565b6000828152601260209081526040808320546011835281842063ffffffff91821660001981019092168552835281842054825180840190935260048352634350303160e01b9383019390935292600160201b9092046001600160601b03169190611aec9083908690611416565b6000828152600760209081526040808320546006835281842063ffffffff91821660001981019092168552835281842054825180840190935260048352634350313160e01b9383019390935292600160201b9092046001600160601b03169190611bd39083908690612135565b90506105ee858483612436565b6000828152600760209081526040808320546006835281842063ffffffff91821660001981019092168552835281842054825180840190935260048352630435031360e41b9383019390935292600160201b9092046001600160601b03169190611bd39083908690611416565b6001600160a01b038316600081815260096020908152604080832086845282528083205493835260088252808320868452825280832063ffffffff94851660001981019095168452909152812054600160201b90046001600160601b0390811691908416821115611ce257611cdf828560405180604001604052806004815260200163086a060760e31b815250612135565b90505b61071486868584612576565b6001600160a01b038316600081815260096020908152604080832086845282528083205493835260088252808320868452825280832063ffffffff94851660001981019095168452825280832054815180830190925260048252634350303760e01b92820192909252600160201b9091046001600160601b03169190611cdf9083908690611416565b6001600160a01b038116611d9d5760405162461bcd60e51b815260040161058b90613577565b600080546040516001600160a01b03808516939216917f8be0079c531659141344cd1fd0a4f28419497f9722a3daafe3b4186f6b6457e091a3600080546001600160a01b0319166001600160a01b0392909216919091179055565b6000866001600160601b031611611e215760405162461bcd60e51b815260040161058b906135e7565b81611e3257611e2f85611452565b94505b428511611e515760405162461bcd60e51b815260040161058b906135f7565b6001600160a01b038416611e63578693505b611e6d85856115c0565b6001600160a01b038316611e7f578392505b81611ea5576000611e9563059fa6004201611452565b905080861115611ea3578095505b505b6000611eb185876113b3565b9050611ec0888887898661277b565b6001600160a01b0380861660009081526004602090815260408083208a845290915290205481169085168114611fa757856001600160a01b0316856001600160a01b031614611f3a57886001600160a01b0316866001600160a01b031614611f3a5760405162461bcd60e51b815260040161058b90613647565b6001600160a01b0386811660009081526004602090815260408083208b8452909152902080546001600160a01b031916918716919091179055611f7e818884611c4d565b611fa482896040518060400160405280600381526020016253303360e81b815250611416565b97505b611fb285888a611cee565b846001600160a01b0316816001600160a01b0316876001600160a01b03167fb846dc53d3621f480d692e73f4473156d20f23ff6b2c8237b7130b883226cca98a604051611fff919061352a565b60405180910390a4505050505050505050565b6060808390506060839050606060448251845101036040519080825280601f01601f191660200182016040528015612051576020820181803883390190505b509050806000805b85518110156120aa5785818151811061206e57fe5b602001015160f81c60f81b83838060010194508151811061208b57fe5b60200101906001600160f81b031916908160001a905350600101612059565b5060445b84518110156120ff578481815181106120c357fe5b602001015160f81c60f81b8383806001019450815181106120e057fe5b60200101906001600160f81b031916908160001a9053506001016120ae565b5090979650505050505050565b4390565b60008061211c83611452565b905082811461212e5762127500810192505b5090919050565b6000836001600160601b0316836001600160601b03161115829061216c5760405162461bcd60e51b815260040161058b9190613546565b505050900390565b600061219c436040518060400160405280600481526020016321a8181b60e11b8152506128c4565b905060008363ffffffff161180156121ed57506001600160a01b0385166000908152600a60209081526040808320878452825280832063ffffffff6000198801811685529252909120548282169116145b1561224e576001600160a01b0385166000908152600a602090815260408083208784528252808320600019870163ffffffff16845290915290208054600160201b600160801b031916600160201b6001600160601b038516021790556105ee565b60408051808201825263ffffffff92831681526001600160601b0393841660208083019182526001600160a01b03989098166000818152600a8a528481208982528a5284812088871682528a52848120935184549351909716600160201b02600160201b600160801b031997871663ffffffff19948516179790971696909617909255908452600b875281842095845294909552939020805460019092019093169116179055565b600061231e43604051806040016040528060048152602001634350303360e01b8152506128c4565b905060008363ffffffff1611801561235d5750600084815260116020908152604080832063ffffffff6000198801811685529252909120548282169116145b156123ac576000848152601160209081526040808320600019870163ffffffff16845290915290208054600160201b600160801b031916600160201b6001600160601b0385160217905561067a565b60408051808201825263ffffffff92831681526001600160601b0393841660208083019182526000888152601182528481208887168252825284812093518454935163ffffffff1994851691881691909117600160201b600160801b031916600160201b919098160296909617909255958452601290529091208054909316600190920116179055565b600061245e436040518060400160405280600481526020016321a8189960e11b8152506128c4565b905060008363ffffffff1611801561249d5750600084815260066020908152604080832063ffffffff6000198801811685529252909120548282169116145b156124ec576000848152600660209081526040808320600019870163ffffffff16845290915290208054600160201b600160801b031916600160201b6001600160601b0385160217905561067a565b60408051808201825263ffffffff92831681526001600160601b0393841660208083019182526000888152600682528481208887168252825284812093518454935163ffffffff1994851691881691909117600160201b600160801b031916600160201b919098160296909617909255958452600790529091208054909316600190920116179055565b600061259e43604051806040016040528060048152602001634350303960e01b8152506128c4565b6001600160a01b03861660009081526008602090815260408083208884528252808320600019880163ffffffff9081168552925290912054919250600160201b9091046001600160601b03169084161580159061263457506001600160a01b0386166000908152600860209081526040808320888452825280832063ffffffff6000198901811685529252909120548382169116145b15612695576001600160a01b03861660009081526008602090815260408083208884528252808320600019880163ffffffff16845290915290208054600160201b600160801b031916600160201b6001600160601b0386160217905561273e565b60408051808201825263ffffffff80851682526001600160601b0380871660208085019182526001600160a01b038c166000818152600883528781208d825283528781208c871682528352878120965187549451909516600160201b02600160201b600160801b031995871663ffffffff19958616179590951694909417909555938252600984528482208a835290935292909220805460018801909316929091169190911790555b856001600160a01b03167fc7b38fb25352e6f351f57e2c922f84db5c97e09a6246bbe1d2eedfcdb01c4c62868386604051611114939291906136a2565b8015612823576003546040516323b872dd60e01b81526001600160a01b03909116906323b872dd906127b5908890309089906004016134be565b602060405180830381600087803b1580156127cf57600080fd5b505af11580156127e3573d6000803e3d6000fd5b505050506040513d601f19601f820116820180604052506128079190810190612b40565b6128235760405162461bcd60e51b815260040161058b90613597565b600061282f84846113b3565b90506128588186604051806040016040528060048152602001630495332360e41b815250611416565b90506128648386611be0565b61286f84848761191d565b612878846119a6565b15612887576128878386611af9565b836001600160a01b03167f0fc5b1bac0416800b42a669229a346b6e5a15db3896339dbdc5fa376e1e4570a868584604051611114939291906136f4565b600081600160201b84106128eb5760405162461bcd60e51b815260040161058b9190613546565b509192915050565b604080518082019091526000808252602082015290565b8035611410816137bf565b8051611410816137bf565b8051611410816137d3565b8035611410816137dc565b8051611410816137dc565b60008083601f84011261295357600080fd5b50813567ffffffffffffffff81111561296b57600080fd5b60208301915083600182028301111561298357600080fd5b9250929050565b8035611410816137e5565b8035611410816137ee565b6000602082840312156129b257600080fd5b60006129be848461290a565b949350505050565b600080604083850312156129d957600080fd5b60006129e5858561290a565b92505060206129f68582860161292b565b9150509250929050565b600080600080600060808688031215612a1857600080fd5b6000612a24888861290a565b9550506020612a358882890161292b565b9450506040612a468882890161290a565b935050606086013567ffffffffffffffff811115612a6357600080fd5b612a6f88828901612941565b92509250509295509295909350565b600080600060608486031215612a9357600080fd5b6000612a9f868661290a565b9350506020612ab08682870161292b565b9250506040612ac18682870161298a565b9150509250925092565b600080600080600060a08688031215612ae357600080fd5b6000612aef888861290a565b9550506020612b0088828901612995565b9450506040612b118882890161292b565b9350506060612b228882890161290a565b9250506080612b338882890161290a565b9150509295509295909350565b600060208284031215612b5257600080fd5b60006129be8484612920565b600060208284031215612b7057600080fd5b60006129be848461292b565b600080600060608486031215612b9157600080fd5b6000612b9d8686612936565b9350506020612bae86828701612915565b9250506040612ac186828701612936565b60008060408385031215612bd257600080fd5b60006129e5858561292b565b60008060008060008060c08789031215612bf757600080fd5b6000612c03898961292b565b9650506020612c1489828a0161292b565b9550506040612c2589828a0161292b565b9450506060612c3689828a0161292b565b9350506080612c4789828a0161290a565b92505060a0612c5889828a0161290a565b9150509295509295509295565b60008060408385031215612c7857600080fd5b6000612c84858561292b565b92505060206129f68582860161298a565b60008060008060808587031215612cab57600080fd5b6000612cb78787612995565b9450506020612cc88782880161292b565b9350506040612cd98782880161290a565b9250506060612cea8782880161290a565b91505092959194509250565b6000612d028383612e52565b505060200190565b6000612d028383612e49565b6000612d028383613437565b612d2b81613760565b82525050565b612d2b81613715565b6000612d4582613708565b612d4f818561370c565b9350612d5a83613702565b8060005b83811015612d88578151612d728882612cf6565b9750612d7d83613702565b925050600101612d5e565b509495945050505050565b6000612d9e82613708565b612da8818561370c565b9350612db383613702565b8060005b83811015612d88578151612dcb8882612d0a565b9750612dd683613702565b925050600101612db7565b6000612dec82613708565b612df6818561370c565b9350612e0183613702565b8060005b83811015612d88578151612e198882612d16565b9750612e2483613702565b925050600101612e05565b612d2b81613720565b612d2b612e4482613725565b61372f565b612d2b8161372f565b612d2b81613732565b6000612e6783856107fe565b9350612e7483858461377d565b50500190565b6000612e8582613708565b612e8f81856107fe565b9350612e9f818560208601613789565b9290920192915050565b612d2b81613767565b6000612ebd82613708565b612ec7818561370c565b9350612ed7818560208601613789565b612ee0816137b5565b9093019392505050565b6000612ef7601d8361370c565b7f74696d657374616d70203c20636f6e7472616374206372656174696f6e000000815260200192915050565b6000612f3060308361370c565b7f72656365697665417070726f76616c3a205472616e73616374696f6e2065786581526f31baba34b7b7103932bb32b93a32b21760811b602082015260400192915050565b6000612f8260268361370c565b7f4f776e61626c653a206e6577206f776e657220697320746865207a65726f206181526564647265737360d01b602082015260400192915050565b6000612fca60108361370c565b6f24b73b30b634b210323ab930ba34b7b760811b815260200192915050565b6000612ff660238361370c565b7f53686f756c64207472616e7366657220746f6b656e73207375636365737366758152626c6c7960e81b602082015260400192915050565b600061303b60158361370c565b741b595d1a1bd9081a5cc81b9bdd08185b1b1bddd959605a1b815260200192915050565b600061306c600e8361370c565b6d125b9d985b1a5908185b5bdd5b9d60921b815260200192915050565b600061309660218361370c565b7f6e6f207374616b65732074696c6c207468652070726576206c6f636b206461748152606560f81b602082015260400192915050565b60006130d9600f8361370c565b6e0e6cadcc8cae440dad2e6dac2e8c6d608b1b815260200192915050565b600061310460208361370c565b7f616d6f756e74206e6565647320746f20626520626967676572207468616e2030815260200192915050565b600061313d60378361370c565b7f5374616b696e673a3a5f74696d657374616d70546f4c6f636b446174653a207381527f74616b696e6720706572696f6420746f6f2073686f7274000000000000000000602082015260400192915050565b600061319c6043836107fe565b7f454950373132446f6d61696e28737472696e67206e616d652c75696e7432353681527f20636861696e49642c6164647265737320766572696679696e67436f6e74726160208201526263742960e81b604082015260430192915050565b6000613207600c8361370c565b6b1d5b985d5d1a1bdc9a5e995960a21b815260200192915050565b600061322f60178361370c565b7f496e76616c696420696e74657276616c206c656e677468000000000000000000815260200192915050565b6000613268600e8361370c565b6d1b9bdd0819195d195c9b5a5b995960921b815260200192915050565b6000613292602f8361370c565b7f63616e6e6f74206265206d696e656420696e207468652073616d6520626c6f6381526e6b206173206c617374207374616b6560881b602082015260400192915050565b60006132e3604b836107fe565b7f44656c65676174696f6e28616464726573732064656c6567617465652c75696e81527f74323536206c6f636b446174652c75696e74323536206e6f6e63652c75696e7460208201526a323536206578706972792960a81b6040820152604b0192915050565b600061335660348361370c565b7f4f6e6c79207374616b65466f72206163636f756e7420697320616c6c6f77656481527320746f206368616e67652064656c65676174656560601b602082015260400192915050565b60006133ac601e8361370c565b7f6d75737420696e637265617365207374616b696e67206475726174696f6e0000815260200192915050565b60006133e5600f8361370c565b6e0c2dadeeadce840dad2e6dac2e8c6d608b1b815260200192915050565b600061341060068361370c565b651c185d5cd95960d21b815260200192915050565b612d2b8161374b565b612d2b81613772565b612d2b81613754565b600061344c8286612e38565b601c8201915061345d828486612e5b565b95945050505050565b6000610c998284612e7a565b60006114108261318f565b6000611410826132d6565b602081016114108284612d31565b606081016134a48286612d22565b6134b16020830185612d31565b6129be6040830184612e49565b606081016134cc8286612d31565b6134d96020830185612d31565b6129be604083018461342e565b60208082528101610c998184612d3a565b604080825281016135088185612d93565b905081810360208301526129be8184612de1565b602081016114108284612e2f565b602081016114108284612e49565b602081016114108284612ea9565b60208082528101610c998184612eb2565b602080825281016107fb81612eea565b602080825281016107fb81612f23565b602080825281016107fb81612f75565b602080825281016107fb81612fbd565b602080825281016107fb81612fe9565b602080825281016107fb8161302e565b602080825281016107fb8161305f565b602080825281016107fb81613089565b602080825281016107fb816130cc565b602080825281016107fb816130f7565b602080825281016107fb81613130565b602080825281016107fb816131fa565b602080825281016107fb81613222565b602080825281016107fb8161325b565b602080825281016107fb81613285565b602080825281016107fb81613349565b602080825281016107fb8161339f565b602080825281016107fb816133d8565b602080825281016107fb81613403565b606081016136958286612e49565b6134d96020830185612e49565b606081016136b08286612e49565b6134d9602083018561342e565b602081016114108284613425565b604081016136d98285613425565b610c996020830184613437565b602081016114108284613437565b60608101613695828661342e565b60200190565b5190565b90815260200190565b60006107fb8261373f565b151590565b63ffffffff191690565b90565b6001600160e01b03191690565b6001600160a01b031690565b63ffffffff1690565b6001600160601b031690565b60006107fb825b60006107fb82613715565b60006107fb82613754565b82818337506000910152565b60005b838110156137a457818101518382015260200161378c565b8381111561067a5750506000910152565b601f01601f191690565b6137c881613715565b811461115157600080fd5b6137c881613720565b6137c88161372f565b6137c88161374b565b6137c88161375456fea365627a7a7231582004f50d99759a163e42414664d6467d6ab39e7362597542c493d53cfbb0257a5e6c6578706572696d656e74616cf564736f6c63430005110040",
    "devdoc": {
        "methods": {
            "balanceOf(address)": {
                "details": "Iterate checkpoints adding up stakes.",
                "params": {
                    "account": "The address of the account to get the balance of."
                },
                "return": "The number of tokens held."
            },
            "extendStakingDuration(uint256,uint256)": {
                "params": {
                    "previousLock": "The old unlocking timestamp.",
                    "until": "The new unlocking timestamp in seconds."
                }
            },
            "getCurrentStakedUntil(uint256)": {
                "params": {
                    "lockedTS": "The timestamp to get the staked tokens for."
                }
            },
            "getStakes(address)": {
                "params": {
                    "account": "The address to get stakes."
                },
                "return": "The arrays of dates and stakes."
            },
            "isOwner()": {
                "details": "Returns true if the caller is the current owner."
            },
            "owner()": {
                "details": "Returns the address of the current owner."
            },
            "receiveApproval(address,uint256,address,bytes)": {
                "params": {
                    "_data": "The data will be used for low level call."
                }
            },
            "stake(uint96,uint256,address,address)": {
                "params": {
                    "amount": "The number of tokens to stake.",
                    "delegatee": "The address of the delegatee or 0x0 if there is none.",
                    "stakeFor": "The address to stake the tokens for or 0x0 if staking for oneself.",
                    "until": "Timestamp indicating the date until which to stake."
                }
            },
            "stakeBySchedule(uint256,uint256,uint256,uint256,address,address)": {
                "params": {
                    "amount": "The amount of tokens to stake.",
                    "cliff": "The time interval to the first withdraw.",
                    "delegatee": "The address of the delegatee or 0x0 if there is none.",
                    "duration": "The staking duration.",
                    "intervalLength": "The length of each staking interval when cliff passed.",
                    "stakeFor": "The address to stake the tokens for or 0x0 if staking for oneself."
                }
            },
            "stakeWithApproval(address,uint96,uint256,address,address)": {
                "details": "This function will be invoked from receiveApprovalSOV.approveAndCall -> this.receiveApproval -> this.stakeWithApproval",
                "params": {
                    "amount": "The number of tokens to stake.",
                    "delegatee": "The address of the delegatee or 0x0 if there is none.",
                    "sender": "The sender of SOV.approveAndCall",
                    "stakeFor": "The address to stake the tokens for or 0x0 if staking for oneself.",
                    "until": "Timestamp indicating the date until which to stake."
                }
            },
            "stakesBySchedule(uint256,uint256,uint256,uint256,address,address)": {
                "details": "DO NOT USE this misspelled function. Use stakeBySchedule function instead. This function cannot be deprecated while we have non-upgradeable vesting contracts."
            },
            "timestampToLockDate(uint256)": {
                "params": {
                    "timestamp": "The unlocking timestamp."
                },
                "return": "The actual unlocking date (might be up to 2 weeks shorter than intended)."
            },
            "transferOwnership(address)": {
                "details": "Transfers ownership of the contract to a new account (`newOwner`). Can only be called by the current owner."
            }
        },
        "title": "Staking contract staking functionality module"
    },
    "userdoc": {
        "methods": {
            "balanceOf(address)": {
                "notice": "Get the number of staked tokens held by the user account."
            },
            "extendStakingDuration(uint256,uint256)": {
                "notice": "Extend the staking duration until the specified date."
            },
            "getCurrentStakedUntil(uint256)": {
                "notice": "Get the current number of tokens staked for a day."
            },
            "getStakes(address)": {
                "notice": "Get list of stakes for a user account."
            },
            "receiveApproval(address,uint256,address,bytes)": {
                "notice": "Receives approval from SOV token."
            },
            "stake(uint96,uint256,address,address)": {
                "notice": "Stake the given amount for the given duration of time."
            },
            "stakeBySchedule(uint256,uint256,uint256,uint256,address,address)": {
                "notice": "Stake tokens according to the vesting schedule."
            },
            "stakeWithApproval(address,uint96,uint256,address,address)": {
                "notice": "Stake the given amount for the given duration of time."
            },
            "timestampToLockDate(uint256)": {
                "notice": "Unstaking is possible every 2 weeks only. This means, to calculate the key value for the staking checkpoints, we need to map the intended timestamp to the closest available date."
            }
        },
        "notice": "Implements staking functionality*"
    },
    "storageLayout": {
        "storage": [
            {
                "astId": 56900,
                "contract": "contracts/governance/Staking/modules/StakingStakeModule.sol:StakingStakeModule",
                "label": "_owner",
                "offset": 0,
                "slot": "0",
                "type": "t_address"
            },
            {
                "astId": 26435,
                "contract": "contracts/governance/Staking/modules/StakingStakeModule.sol:StakingStakeModule",
                "label": "kickoffTS",
                "offset": 0,
                "slot": "1",
                "type": "t_uint256"
            },
            {
                "astId": 26438,
                "contract": "contracts/governance/Staking/modules/StakingStakeModule.sol:StakingStakeModule",
                "label": "name",
                "offset": 0,
                "slot": "2",
                "type": "t_string_storage"
            },
            {
                "astId": 26440,
                "contract": "contracts/governance/Staking/modules/StakingStakeModule.sol:StakingStakeModule",
                "label": "SOVToken",
                "offset": 0,
                "slot": "3",
                "type": "t_contract(IERC20)35959"
            },
            {
                "astId": 26446,
                "contract": "contracts/governance/Staking/modules/StakingStakeModule.sol:StakingStakeModule",
                "label": "delegates",
                "offset": 0,
                "slot": "4",
                "type": "t_mapping(t_address,t_mapping(t_uint256,t_address))"
            },
            {
                "astId": 26449,
                "contract": "contracts/governance/Staking/modules/StakingStakeModule.sol:StakingStakeModule",
                "label": "allUnlocked",
                "offset": 0,
                "slot": "5",
                "type": "t_bool"
            },
            {
                "astId": 26461,
                "contract": "contracts/governance/Staking/modules/StakingStakeModule.sol:StakingStakeModule",
                "label": "newStakingContract",
                "offset": 1,
                "slot": "5",
                "type": "t_address"
            },
            {
                "astId": 26472,
                "contract": "contracts/governance/Staking/modules/StakingStakeModule.sol:StakingStakeModule",
                "label": "totalStakingCheckpoints",
                "offset": 0,
                "slot": "6",
                "type": "t_mapping(t_uint256,t_mapping(t_uint32,t_struct(Checkpoint)26466_storage))"
            },
            {
                "astId": 26476,
                "contract": "contracts/governance/Staking/modules/StakingStakeModule.sol:StakingStakeModule",
                "label": "numTotalStakingCheckpoints",
                "offset": 0,
                "slot": "7",
                "type": "t_mapping(t_uint256,t_uint32)"
            },
            {
                "astId": 26484,
                "contract": "contracts/governance/Staking/modules/StakingStakeModule.sol:StakingStakeModule",
                "label": "delegateStakingCheckpoints",
                "offset": 0,
                "slot": "8",
                "type": "t_mapping(t_address,t_mapping(t_uint256,t_mapping(t_uint32,t_struct(Checkpoint)26466_storage)))"
            },
            {
                "astId": 26490,
                "contract": "contracts/governance/Staking/modules/StakingStakeModule.sol:StakingStakeModule",
                "label": "numDelegateStakingCheckpoints",
                "offset": 0,
                "slot": "9",
                "type": "t_mapping(t_address,t_mapping(t_uint256,t_uint32))"
            },
            {
                "astId": 26498,
                "contract": "contracts/governance/Staking/modules/StakingStakeModule.sol:StakingStakeModule",
                "label": "userStakingCheckpoints",
                "offset": 0,
                "slot": "10",
                "type": "t_mapping(t_address,t_mapping(t_uint256,t_mapping(t_uint32,t_struct(Checkpoint)26466_storage)))"
            },
            {
                "astId": 26504,
                "contract": "contracts/governance/Staking/modules/StakingStakeModule.sol:StakingStakeModule",
                "label": "numUserStakingCheckpoints",
                "offset": 0,
                "slot": "11",
                "type": "t_mapping(t_address,t_mapping(t_uint256,t_uint32))"
            },
            {
                "astId": 26508,
                "contract": "contracts/governance/Staking/modules/StakingStakeModule.sol:StakingStakeModule",
                "label": "nonces",
                "offset": 0,
                "slot": "12",
                "type": "t_mapping(t_address,t_uint256)"
            },
            {
                "astId": 26510,
                "contract": "contracts/governance/Staking/modules/StakingStakeModule.sol:StakingStakeModule",
                "label": "feeSharing",
                "offset": 0,
                "slot": "13",
                "type": "t_contract(IFeeSharingCollector)15409"
            },
            {
                "astId": 26513,
                "contract": "contracts/governance/Staking/modules/StakingStakeModule.sol:StakingStakeModule",
                "label": "weightScaling",
                "offset": 20,
                "slot": "13",
                "type": "t_uint96"
            },
            {
                "astId": 26517,
                "contract": "contracts/governance/Staking/modules/StakingStakeModule.sol:StakingStakeModule",
                "label": "vestingWhitelist",
                "offset": 0,
                "slot": "14",
                "type": "t_mapping(t_address,t_bool)"
            },
            {
                "astId": 26521,
                "contract": "contracts/governance/Staking/modules/StakingStakeModule.sol:StakingStakeModule",
                "label": "admins",
                "offset": 0,
                "slot": "15",
                "type": "t_mapping(t_address,t_bool)"
            },
            {
                "astId": 26525,
                "contract": "contracts/governance/Staking/modules/StakingStakeModule.sol:StakingStakeModule",
                "label": "vestingCodeHashes",
                "offset": 0,
                "slot": "16",
                "type": "t_mapping(t_bytes32,t_bool)"
            },
            {
                "astId": 26531,
                "contract": "contracts/governance/Staking/modules/StakingStakeModule.sol:StakingStakeModule",
                "label": "vestingCheckpoints",
                "offset": 0,
                "slot": "17",
                "type": "t_mapping(t_uint256,t_mapping(t_uint32,t_struct(Checkpoint)26466_storage))"
            },
            {
                "astId": 26535,
                "contract": "contracts/governance/Staking/modules/StakingStakeModule.sol:StakingStakeModule",
                "label": "numVestingCheckpoints",
                "offset": 0,
                "slot": "18",
                "type": "t_mapping(t_uint256,t_uint32)"
            },
            {
                "astId": 26537,
                "contract": "contracts/governance/Staking/modules/StakingStakeModule.sol:StakingStakeModule",
                "label": "vestingRegistryLogic",
                "offset": 0,
                "slot": "19",
                "type": "t_contract(IVestingRegistry)28814"
            },
            {
                "astId": 26541,
                "contract": "contracts/governance/Staking/modules/StakingStakeModule.sol:StakingStakeModule",
                "label": "pausers",
                "offset": 0,
                "slot": "20",
                "type": "t_mapping(t_address,t_bool)"
            },
            {
                "astId": 26543,
                "contract": "contracts/governance/Staking/modules/StakingStakeModule.sol:StakingStakeModule",
                "label": "paused",
                "offset": 0,
                "slot": "21",
                "type": "t_bool"
            },
            {
                "astId": 26545,
                "contract": "contracts/governance/Staking/modules/StakingStakeModule.sol:StakingStakeModule",
                "label": "frozen",
                "offset": 1,
                "slot": "21",
                "type": "t_bool"
            },
            {
                "astId": 26547,
                "contract": "contracts/governance/Staking/modules/StakingStakeModule.sol:StakingStakeModule",
                "label": "maxVestingWithdrawIterations",
                "offset": 0,
                "slot": "22",
                "type": "t_uint256"
            }
        ],
        "types": {
            "t_address": {
                "encoding": "inplace",
                "label": "address",
                "numberOfBytes": "20"
            },
            "t_bool": {
                "encoding": "inplace",
                "label": "bool",
                "numberOfBytes": "1"
            },
            "t_bytes32": {
                "encoding": "inplace",
                "label": "bytes32",
                "numberOfBytes": "32"
            },
            "t_contract(IERC20)35959": {
                "encoding": "inplace",
                "label": "contract IERC20",
                "numberOfBytes": "20"
            },
            "t_contract(IFeeSharingCollector)15409": {
                "encoding": "inplace",
                "label": "contract IFeeSharingCollector",
                "numberOfBytes": "20"
            },
            "t_contract(IVestingRegistry)28814": {
                "encoding": "inplace",
                "label": "contract IVestingRegistry",
                "numberOfBytes": "20"
            },
            "t_mapping(t_address,t_bool)": {
                "encoding": "mapping",
                "key": "t_address",
                "label": "mapping(address => bool)",
                "numberOfBytes": "32",
                "value": "t_bool"
            },
            "t_mapping(t_address,t_mapping(t_uint256,t_address))": {
                "encoding": "mapping",
                "key": "t_address",
                "label": "mapping(address => mapping(uint256 => address))",
                "numberOfBytes": "32",
                "value": "t_mapping(t_uint256,t_address)"
            },
            "t_mapping(t_address,t_mapping(t_uint256,t_mapping(t_uint32,t_struct(Checkpoint)26466_storage)))": {
                "encoding": "mapping",
                "key": "t_address",
                "label": "mapping(address => mapping(uint256 => mapping(uint32 => struct StakingStorageShared.Checkpoint)))",
                "numberOfBytes": "32",
                "value": "t_mapping(t_uint256,t_mapping(t_uint32,t_struct(Checkpoint)26466_storage))"
            },
            "t_mapping(t_address,t_mapping(t_uint256,t_uint32))": {
                "encoding": "mapping",
                "key": "t_address",
                "label": "mapping(address => mapping(uint256 => uint32))",
                "numberOfBytes": "32",
                "value": "t_mapping(t_uint256,t_uint32)"
            },
            "t_mapping(t_address,t_uint256)": {
                "encoding": "mapping",
                "key": "t_address",
                "label": "mapping(address => uint256)",
                "numberOfBytes": "32",
                "value": "t_uint256"
            },
            "t_mapping(t_bytes32,t_bool)": {
                "encoding": "mapping",
                "key": "t_bytes32",
                "label": "mapping(bytes32 => bool)",
                "numberOfBytes": "32",
                "value": "t_bool"
            },
            "t_mapping(t_uint256,t_address)": {
                "encoding": "mapping",
                "key": "t_uint256",
                "label": "mapping(uint256 => address)",
                "numberOfBytes": "32",
                "value": "t_address"
            },
            "t_mapping(t_uint256,t_mapping(t_uint32,t_struct(Checkpoint)26466_storage))": {
                "encoding": "mapping",
                "key": "t_uint256",
                "label": "mapping(uint256 => mapping(uint32 => struct StakingStorageShared.Checkpoint))",
                "numberOfBytes": "32",
                "value": "t_mapping(t_uint32,t_struct(Checkpoint)26466_storage)"
            },
            "t_mapping(t_uint256,t_uint32)": {
                "encoding": "mapping",
                "key": "t_uint256",
                "label": "mapping(uint256 => uint32)",
                "numberOfBytes": "32",
                "value": "t_uint32"
            },
            "t_mapping(t_uint32,t_struct(Checkpoint)26466_storage)": {
                "encoding": "mapping",
                "key": "t_uint32",
                "label": "mapping(uint32 => struct StakingStorageShared.Checkpoint)",
                "numberOfBytes": "32",
                "value": "t_struct(Checkpoint)26466_storage"
            },
            "t_string_storage": {
                "encoding": "bytes",
                "label": "string",
                "numberOfBytes": "32"
            },
            "t_struct(Checkpoint)26466_storage": {
                "encoding": "inplace",
                "label": "struct StakingStorageShared.Checkpoint",
                "members": [
                    {
                        "astId": 26463,
                        "contract": "contracts/governance/Staking/modules/StakingStakeModule.sol:StakingStakeModule",
                        "label": "fromBlock",
                        "offset": 0,
                        "slot": "0",
                        "type": "t_uint32"
                    },
                    {
                        "astId": 26465,
                        "contract": "contracts/governance/Staking/modules/StakingStakeModule.sol:StakingStakeModule",
                        "label": "stake",
                        "offset": 4,
                        "slot": "0",
                        "type": "t_uint96"
                    }
                ],
                "numberOfBytes": "32"
            },
            "t_uint256": {
                "encoding": "inplace",
                "label": "uint256",
                "numberOfBytes": "32"
            },
            "t_uint32": {
                "encoding": "inplace",
                "label": "uint32",
                "numberOfBytes": "4"
            },
            "t_uint96": {
                "encoding": "inplace",
                "label": "uint96",
                "numberOfBytes": "12"
            }
        }
    }
}