{
  "address": "0x26bE76d9268E3fb6a8eA272F3f43DB071F8e1b39",
  "abi": [
    {
      "anonymous": false,
      "inputs": [
        {
          "indexed": false,
          "internalType": "address",
          "name": "admin",
          "type": "address"
        }
      ],
      "name": "AdminAdded",
      "type": "event"
    },
    {
      "anonymous": false,
      "inputs": [
        {
          "indexed": false,
          "internalType": "address",
          "name": "admin",
          "type": "address"
        }
      ],
      "name": "AdminRemoved",
      "type": "event"
    },
    {
      "anonymous": false,
      "inputs": [
        {
          "indexed": true,
          "internalType": "address",
          "name": "previousOwner",
          "type": "address"
        },
        {
          "indexed": true,
          "internalType": "address",
          "name": "newOwner",
          "type": "address"
        }
      ],
      "name": "OwnershipTransferred",
      "type": "event"
    },
    {
      "anonymous": false,
      "inputs": [
        {
          "indexed": true,
          "internalType": "address",
          "name": "pauser",
          "type": "address"
        },
        {
          "indexed": true,
          "internalType": "bool",
          "name": "added",
          "type": "bool"
        }
      ],
      "name": "PauserAddedOrRemoved",
      "type": "event"
    },
    {
      "anonymous": false,
      "inputs": [
        {
          "indexed": true,
          "internalType": "bool",
          "name": "setFrozen",
          "type": "bool"
        }
      ],
      "name": "StakingFrozen",
      "type": "event"
    },
    {
      "anonymous": false,
      "inputs": [
        {
          "indexed": true,
          "internalType": "bool",
          "name": "setPaused",
          "type": "bool"
        }
      ],
      "name": "StakingPaused",
      "type": "event"
    },
    {
      "constant": true,
      "inputs": [],
      "name": "DELEGATION_TYPEHASH",
      "outputs": [
        {
          "internalType": "bytes32",
          "name": "",
          "type": "bytes32"
        }
      ],
      "payable": false,
      "stateMutability": "view",
      "type": "function"
    },
    {
      "constant": true,
      "inputs": [],
      "name": "DOMAIN_TYPEHASH",
      "outputs": [
        {
          "internalType": "bytes32",
          "name": "",
          "type": "bytes32"
        }
      ],
      "payable": false,
      "stateMutability": "view",
      "type": "function"
    },
    {
      "constant": true,
      "inputs": [],
      "name": "MAX_DURATION",
      "outputs": [
        {
          "internalType": "uint256",
          "name": "",
          "type": "uint256"
        }
      ],
      "payable": false,
      "stateMutability": "view",
      "type": "function"
    },
    {
      "constant": true,
      "inputs": [],
      "name": "MAX_VOTING_WEIGHT",
      "outputs": [
        {
          "internalType": "uint96",
          "name": "",
          "type": "uint96"
        }
      ],
      "payable": false,
      "stateMutability": "view",
      "type": "function"
    },
    {
      "constant": true,
      "inputs": [],
      "name": "SOVToken",
      "outputs": [
        {
          "internalType": "contract IERC20",
          "name": "",
          "type": "address"
        }
      ],
      "payable": false,
      "stateMutability": "view",
      "type": "function"
    },
    {
      "constant": true,
      "inputs": [],
      "name": "WEIGHT_FACTOR",
      "outputs": [
        {
          "internalType": "uint96",
          "name": "",
          "type": "uint96"
        }
      ],
      "payable": false,
      "stateMutability": "view",
      "type": "function"
    },
    {
      "constant": false,
      "inputs": [
        {
          "internalType": "address",
          "name": "_admin",
          "type": "address"
        }
      ],
      "name": "addAdmin",
      "outputs": [],
      "payable": false,
      "stateMutability": "nonpayable",
      "type": "function"
    },
    {
      "constant": false,
      "inputs": [
        {
          "internalType": "address",
          "name": "_pauser",
          "type": "address"
        }
      ],
      "name": "addPauser",
      "outputs": [],
      "payable": false,
      "stateMutability": "nonpayable",
      "type": "function"
    },
    {
      "constant": true,
      "inputs": [
        {
          "internalType": "address",
          "name": "",
          "type": "address"
        }
      ],
      "name": "admins",
      "outputs": [
        {
          "internalType": "bool",
          "name": "",
          "type": "bool"
        }
      ],
      "payable": false,
      "stateMutability": "view",
      "type": "function"
    },
    {
      "constant": true,
      "inputs": [],
      "name": "allUnlocked",
      "outputs": [
        {
          "internalType": "bool",
          "name": "",
          "type": "bool"
        }
      ],
      "payable": false,
      "stateMutability": "view",
      "type": "function"
    },
    {
      "constant": true,
      "inputs": [
        {
          "internalType": "address",
          "name": "",
          "type": "address"
        },
        {
          "internalType": "uint256",
          "name": "",
          "type": "uint256"
        },
        {
          "internalType": "uint32",
          "name": "",
          "type": "uint32"
        }
      ],
      "name": "delegateStakingCheckpoints",
      "outputs": [
        {
          "internalType": "uint32",
          "name": "fromBlock",
          "type": "uint32"
        },
        {
          "internalType": "uint96",
          "name": "stake",
          "type": "uint96"
        }
      ],
      "payable": false,
      "stateMutability": "view",
      "type": "function"
    },
    {
      "constant": true,
      "inputs": [
        {
          "internalType": "address",
          "name": "",
          "type": "address"
        },
        {
          "internalType": "uint256",
          "name": "",
          "type": "uint256"
        }
      ],
      "name": "delegates",
      "outputs": [
        {
          "internalType": "address",
          "name": "",
          "type": "address"
        }
      ],
      "payable": false,
      "stateMutability": "view",
      "type": "function"
    },
    {
      "constant": true,
      "inputs": [],
      "name": "feeSharing",
      "outputs": [
        {
          "internalType": "contract IFeeSharingCollector",
          "name": "",
          "type": "address"
        }
      ],
      "payable": false,
      "stateMutability": "view",
      "type": "function"
    },
    {
      "constant": false,
      "inputs": [
        {
          "internalType": "bool",
          "name": "_freeze",
          "type": "bool"
        }
      ],
      "name": "freezeUnfreeze",
      "outputs": [],
      "payable": false,
      "stateMutability": "nonpayable",
      "type": "function"
    },
    {
      "constant": true,
      "inputs": [],
      "name": "frozen",
      "outputs": [
        {
          "internalType": "bool",
          "name": "",
          "type": "bool"
        }
      ],
      "payable": false,
      "stateMutability": "view",
      "type": "function"
    },
    {
      "constant": true,
      "inputs": [],
      "name": "getFunctionsList",
      "outputs": [
        {
          "internalType": "bytes4[]",
          "name": "",
          "type": "bytes4[]"
        }
      ],
      "payable": false,
      "stateMutability": "pure",
      "type": "function"
    },
    {
      "constant": true,
      "inputs": [],
      "name": "isOwner",
      "outputs": [
        {
          "internalType": "bool",
          "name": "",
          "type": "bool"
        }
      ],
      "payable": false,
      "stateMutability": "view",
      "type": "function"
    },
    {
      "constant": true,
      "inputs": [],
      "name": "kickoffTS",
      "outputs": [
        {
          "internalType": "uint256",
          "name": "",
          "type": "uint256"
        }
      ],
      "payable": false,
      "stateMutability": "view",
      "type": "function"
    },
    {
      "constant": false,
      "inputs": [],
      "name": "migrateToNewStakingContract",
      "outputs": [],
      "payable": false,
      "stateMutability": "nonpayable",
      "type": "function"
    },
    {
      "constant": true,
      "inputs": [],
      "name": "newStakingContract",
      "outputs": [
        {
          "internalType": "address",
          "name": "",
          "type": "address"
        }
      ],
      "payable": false,
      "stateMutability": "view",
      "type": "function"
    },
    {
      "constant": true,
      "inputs": [
        {
          "internalType": "address",
          "name": "",
          "type": "address"
        }
      ],
      "name": "nonces",
      "outputs": [
        {
          "internalType": "uint256",
          "name": "",
          "type": "uint256"
        }
      ],
      "payable": false,
      "stateMutability": "view",
      "type": "function"
    },
    {
      "constant": true,
      "inputs": [
        {
          "internalType": "address",
          "name": "",
          "type": "address"
        },
        {
          "internalType": "uint256",
          "name": "",
          "type": "uint256"
        }
      ],
      "name": "numDelegateStakingCheckpoints",
      "outputs": [
        {
          "internalType": "uint32",
          "name": "",
          "type": "uint32"
        }
      ],
      "payable": false,
      "stateMutability": "view",
      "type": "function"
    },
    {
      "constant": true,
      "inputs": [
        {
          "internalType": "uint256",
          "name": "",
          "type": "uint256"
        }
      ],
      "name": "numTotalStakingCheckpoints",
      "outputs": [
        {
          "internalType": "uint32",
          "name": "",
          "type": "uint32"
        }
      ],
      "payable": false,
      "stateMutability": "view",
      "type": "function"
    },
    {
      "constant": true,
      "inputs": [
        {
          "internalType": "address",
          "name": "",
          "type": "address"
        },
        {
          "internalType": "uint256",
          "name": "",
          "type": "uint256"
        }
      ],
      "name": "numUserStakingCheckpoints",
      "outputs": [
        {
          "internalType": "uint32",
          "name": "",
          "type": "uint32"
        }
      ],
      "payable": false,
      "stateMutability": "view",
      "type": "function"
    },
    {
      "constant": true,
      "inputs": [
        {
          "internalType": "uint256",
          "name": "",
          "type": "uint256"
        }
      ],
      "name": "numVestingCheckpoints",
      "outputs": [
        {
          "internalType": "uint32",
          "name": "",
          "type": "uint32"
        }
      ],
      "payable": false,
      "stateMutability": "view",
      "type": "function"
    },
    {
      "constant": true,
      "inputs": [],
      "name": "owner",
      "outputs": [
        {
          "internalType": "address",
          "name": "",
          "type": "address"
        }
      ],
      "payable": false,
      "stateMutability": "view",
      "type": "function"
    },
    {
      "constant": false,
      "inputs": [
        {
          "internalType": "bool",
          "name": "_pause",
          "type": "bool"
        }
      ],
      "name": "pauseUnpause",
      "outputs": [],
      "payable": false,
      "stateMutability": "nonpayable",
      "type": "function"
    },
    {
      "constant": true,
      "inputs": [],
      "name": "paused",
      "outputs": [
        {
          "internalType": "bool",
          "name": "",
          "type": "bool"
        }
      ],
      "payable": false,
      "stateMutability": "view",
      "type": "function"
    },
    {
      "constant": true,
      "inputs": [
        {
          "internalType": "address",
          "name": "",
          "type": "address"
        }
      ],
      "name": "pausers",
      "outputs": [
        {
          "internalType": "bool",
          "name": "",
          "type": "bool"
        }
      ],
      "payable": false,
      "stateMutability": "view",
      "type": "function"
    },
    {
      "constant": false,
      "inputs": [
        {
          "internalType": "address",
          "name": "_admin",
          "type": "address"
        }
      ],
      "name": "removeAdmin",
      "outputs": [],
      "payable": false,
      "stateMutability": "nonpayable",
      "type": "function"
    },
    {
      "constant": false,
      "inputs": [
        {
          "internalType": "address",
          "name": "_pauser",
          "type": "address"
        }
      ],
      "name": "removePauser",
      "outputs": [],
      "payable": false,
      "stateMutability": "nonpayable",
      "type": "function"
    },
    {
      "constant": false,
      "inputs": [
        {
          "internalType": "address",
          "name": "_feeSharing",
          "type": "address"
        }
      ],
      "name": "setFeeSharing",
      "outputs": [],
      "payable": false,
      "stateMutability": "nonpayable",
      "type": "function"
    },
    {
      "constant": false,
      "inputs": [
        {
          "internalType": "address",
          "name": "_newStakingContract",
          "type": "address"
        }
      ],
      "name": "setNewStakingContract",
      "outputs": [],
      "payable": false,
      "stateMutability": "nonpayable",
      "type": "function"
    },
    {
      "constant": false,
      "inputs": [
        {
          "internalType": "uint96",
          "name": "_weightScaling",
          "type": "uint96"
        }
      ],
      "name": "setWeightScaling",
      "outputs": [],
      "payable": false,
      "stateMutability": "nonpayable",
      "type": "function"
    },
    {
      "constant": true,
      "inputs": [
        {
          "internalType": "uint256",
          "name": "",
          "type": "uint256"
        },
        {
          "internalType": "uint32",
          "name": "",
          "type": "uint32"
        }
      ],
      "name": "totalStakingCheckpoints",
      "outputs": [
        {
          "internalType": "uint32",
          "name": "fromBlock",
          "type": "uint32"
        },
        {
          "internalType": "uint96",
          "name": "stake",
          "type": "uint96"
        }
      ],
      "payable": false,
      "stateMutability": "view",
      "type": "function"
    },
    {
      "constant": false,
      "inputs": [
        {
          "internalType": "address",
          "name": "newOwner",
          "type": "address"
        }
      ],
      "name": "transferOwnership",
      "outputs": [],
      "payable": false,
      "stateMutability": "nonpayable",
      "type": "function"
    },
    {
      "constant": true,
      "inputs": [
        {
          "internalType": "address",
          "name": "",
          "type": "address"
        },
        {
          "internalType": "uint256",
          "name": "",
          "type": "uint256"
        },
        {
          "internalType": "uint32",
          "name": "",
          "type": "uint32"
        }
      ],
      "name": "userStakingCheckpoints",
      "outputs": [
        {
          "internalType": "uint32",
          "name": "fromBlock",
          "type": "uint32"
        },
        {
          "internalType": "uint96",
          "name": "stake",
          "type": "uint96"
        }
      ],
      "payable": false,
      "stateMutability": "view",
      "type": "function"
    },
    {
      "constant": true,
      "inputs": [
        {
          "internalType": "uint256",
          "name": "",
          "type": "uint256"
        },
        {
          "internalType": "uint32",
          "name": "",
          "type": "uint32"
        }
      ],
      "name": "vestingCheckpoints",
      "outputs": [
        {
          "internalType": "uint32",
          "name": "fromBlock",
          "type": "uint32"
        },
        {
          "internalType": "uint96",
          "name": "stake",
          "type": "uint96"
        }
      ],
      "payable": false,
      "stateMutability": "view",
      "type": "function"
    },
    {
      "constant": true,
      "inputs": [
        {
          "internalType": "bytes32",
          "name": "",
          "type": "bytes32"
        }
      ],
      "name": "vestingCodeHashes",
      "outputs": [
        {
          "internalType": "bool",
          "name": "",
          "type": "bool"
        }
      ],
      "payable": false,
      "stateMutability": "view",
      "type": "function"
    },
    {
      "constant": true,
      "inputs": [],
      "name": "vestingRegistryLogic",
      "outputs": [
        {
          "internalType": "contract IVestingRegistry",
          "name": "",
          "type": "address"
        }
      ],
      "payable": false,
      "stateMutability": "view",
      "type": "function"
    },
    {
      "constant": true,
      "inputs": [
        {
          "internalType": "address",
          "name": "",
          "type": "address"
        }
      ],
      "name": "vestingWhitelist",
      "outputs": [
        {
          "internalType": "bool",
          "name": "",
          "type": "bool"
        }
      ],
      "payable": false,
      "stateMutability": "view",
      "type": "function"
    },
    {
      "constant": true,
      "inputs": [],
      "name": "weightScaling",
      "outputs": [
        {
          "internalType": "uint96",
          "name": "",
          "type": "uint96"
        }
      ],
      "payable": false,
      "stateMutability": "view",
      "type": "function"
    }
  ],
  "transactionHash": "0x49f525a8aea181a8c80c3a5019903fd37c0d672f0b9a40cc2f0b811a56528676",
  "args": [],
  "numDeployments": 2,
  "solcInputHash": "5aac57e986071e917d667feba06fc19b",
  "bytecode": "0x60c0604052600a608081905269534f565374616b696e6760b01b60a09081526200002d9160029190620000ae565b506005805460ff19169055600d80546001600160a01b0316600360a01b179055600062000059620000a9565b600080546001600160a01b0319166001600160a01b0383169081178255604051929350917f8be0079c531659141344cd1fd0a4f28419497f9722a3daafe3b4186f6b6457e0908290a35062000150565b335b90565b828054600181600116156101000203166002900490600052602060002090601f016020900481019282601f10620000f157805160ff191683800117855562000121565b8280016001018555821562000121579182015b828111156200012157825182559160200191906001019062000104565b506200012f92915062000133565b5090565b620000ab91905b808211156200012f57600081556001016200013a565b611ac680620001606000396000f3fe608060405234801561001057600080fd5b506004361061025d5760003560e01c80638f32d59b11610146578063b1724b46116100c3578063d8ad326d11610087578063d8ad326d146104c5578063db27ec18146104da578063dfb267c2146104ed578063e7a324dc14610500578063f2fde38b14610508578063f3f197311461051b5761025d565b8063b1724b4614610487578063b8a987321461048f578063bb533cf2146104a2578063bf626ec1146104b5578063d27569e7146104bd5761025d565b80639a377b821161010a5780639a377b821461043e578063a58848c514610451578063adae900214610459578063ae81dfe41461046c578063b0667f7a146104745761025d565b80638f32d59b146103e85780639436e7d4146103f057806394c2ce58146104105780639604c618146104235780639929e886146104365761025d565b80635419675f116101df5780636b6fde0e116101a35780636b6fde0e1461038157806370480275146103945780637ecebe00146103a757806380f51c12146103ba57806382dc1ec4146103cd5780638da5cb5b146103e05761025d565b80635419675f1461032a5780635c975abb14610332578063626ee2d91461033a57806368cefccc1461034d5780636b2c0f551461036e5761025d565b806317748adc1161022657806317748adc146102c55780631785f53c146102da57806320606b70146102ef57806327dd1b00146102f7578063429b62e5146103175761025d565b8062073f991461026257806303a18fa314610280578063054f7d9c1461029557806307392cc0146102aa578063104932cf146102bd575b600080fd5b61026a61052e565b60405161027791906118c4565b60405180910390f35b610288610534565b60405161027791906118d2565b61029d610543565b60405161027791906118b6565b61029d6102b8366004611357565b610551565b610288610566565b6102cd610575565b60405161027791906119d9565b6102ed6102e836600461128c565b61057a565b005b61026a610662565b61030a6103053660046112b2565b610679565b6040516102779190611890565b61029d61032536600461128c565b61069f565b6102ed6106b4565b61029d610721565b6102ed61034836600461128c565b61072a565b61036061035b3660046112ec565b6107be565b6040516102779291906119be565b6102ed61037c36600461128c565b6107fa565b61036061038f3660046112ec565b6108cb565b6102ed6103a236600461128c565b610907565b61026a6103b536600461128c565b6109cc565b61029d6103c836600461128c565b6109de565b6102ed6103db36600461128c565b6109f3565b61030a610ab7565b61029d610ac6565b6104036103fe366004611357565b610aea565b60405161027791906119b0565b61040361041e3660046112b2565b610b02565b6102ed610431366004611339565b610b25565b61029d610beb565b6102ed61044c36600461128c565b610bf4565b610288610c8e565b61029d61046736600461128c565b610c9d565b61030a610cb2565b6102ed610482366004611339565b610cc6565b61026a610d69565b6102ed61049d3660046113a5565b610d71565b6104036104b0366004611357565b610e25565b6102cd610e3d565b6102cd610e53565b6104cd610e58565b604051610277919061189e565b6104036104e83660046112b2565b6110ff565b6103606104fb366004611375565b611122565b61026a611158565b6102ed61051636600461128c565b611164565b610360610529366004611375565b611194565b60015481565b600d546001600160a01b031681565b601554610100900460ff1681565b60106020526000908152604090205460ff1681565b6013546001600160a01b031681565b600981565b610582610ac6565b6105a75760405162461bcd60e51b815260040161059e90611960565b60405180910390fd5b601554610100900460ff16156105cf5760405162461bcd60e51b815260040161059e906119a0565b6001600160a01b0381166000908152600f602052604090205460ff166106075760405162461bcd60e51b815260040161059e90611930565b6001600160a01b0381166000908152600f602052604090819020805460ff19169055517fa3b62bc36326052d97ea62d63c3d60308ed4c3ea8ac079dd8499f1e9c4f80c0f90610657908390611890565b60405180910390a150565b60405161066e9061187a565b604051809103902081565b60046020908152600092835260408084209091529082529020546001600160a01b031681565b600f6020526000908152604090205460ff1681565b601554610100900460ff16156106dc5760405162461bcd60e51b815260040161059e906119a0565b60055461010090046001600160a01b03166107095760405162461bcd60e51b815260040161059e906118f0565b60405162461bcd60e51b815260040161059e90611910565b60155460ff1681565b610732610ac6565b61074e5760405162461bcd60e51b815260040161059e90611960565b601554610100900460ff16156107765760405162461bcd60e51b815260040161059e906119a0565b6001600160a01b03811661079c5760405162461bcd60e51b815260040161059e90611990565b600d80546001600160a01b0319166001600160a01b0392909216919091179055565b600a60209081526000938452604080852082529284528284209052825290205463ffffffff81169064010000000090046001600160601b031682565b610802610ac6565b61081e5760405162461bcd60e51b815260040161059e90611960565b601554610100900460ff16156108465760405162461bcd60e51b815260040161059e906119a0565b6001600160a01b03811660009081526014602052604090205460ff1661087e5760405162461bcd60e51b815260040161059e90611950565b6001600160a01b038116600081815260146020526040808220805460ff19169055519091907f343a65c26fd8d300f71358b36fb05702fab140d5967b6b41e25bec3ea11d6acf908390a350565b600860209081526000938452604080852082529284528284209052825290205463ffffffff81169064010000000090046001600160601b031682565b61090f610ac6565b61092b5760405162461bcd60e51b815260040161059e90611960565b601554610100900460ff16156109535760405162461bcd60e51b815260040161059e906119a0565b6001600160a01b0381166109795760405162461bcd60e51b815260040161059e906118e0565b6001600160a01b0381166000908152600f602052604090819020805460ff19166001179055517f44d6d25963f097ad14f29f06854a01f575648a1ef82f30e562ccd3889717e33990610657908390611890565b600c6020526000908152604090205481565b60146020526000908152604090205460ff1681565b6109fb610ac6565b610a175760405162461bcd60e51b815260040161059e90611960565b601554610100900460ff1615610a3f5760405162461bcd60e51b815260040161059e906119a0565b6001600160a01b038116610a655760405162461bcd60e51b815260040161059e90611940565b6001600160a01b038116600081815260146020526040808220805460ff1916600190811790915590519092917f343a65c26fd8d300f71358b36fb05702fab140d5967b6b41e25bec3ea11d6acf91a350565b6000546001600160a01b031690565b600080546001600160a01b0316610adb6111ca565b6001600160a01b031614905090565b60076020526000908152604090205463ffffffff1681565b600960209081526000928352604080842090915290825290205463ffffffff1681565b610b2d610ac6565b80610b4757503360009081526014602052604090205460ff165b610b635760405162461bcd60e51b815260040161059e90611960565b601560019054906101000a900460ff1615158115151415610b965760405162461bcd60e51b815260040161059e90611920565b8015610ba657610ba66001610cc6565b6015805461ff001916610100831515908102919091179091556040517fa5d42ea73646c260db9c3a891d146050c7adaf2fa515faedf2a52eddbbb7764490600090a250565b60055460ff1681565b610bfc610ac6565b610c185760405162461bcd60e51b815260040161059e90611960565b601554610100900460ff1615610c405760405162461bcd60e51b815260040161059e906119a0565b6001600160a01b038116610c665760405162461bcd60e51b815260040161059e90611980565b600580546001600160a01b0390921661010002610100600160a81b0319909216919091179055565b6003546001600160a01b031681565b600e6020526000908152604090205460ff1681565b60055461010090046001600160a01b031681565b610cce610ac6565b80610ce857503360009081526014602052604090205460ff165b610d045760405162461bcd60e51b815260040161059e90611960565b601554610100900460ff1615610d2c5760405162461bcd60e51b815260040161059e906119a0565b6015805460ff19168215159081179091556040517f3cf4fe733160f8f8c48336fab32acee32ebaaa423a08a2be4e5ceff97dd98c6990600090a250565b63059fa60081565b610d79610ac6565b610d955760405162461bcd60e51b815260040161059e90611960565b601554610100900460ff1615610dbd5760405162461bcd60e51b815260040161059e906119a0565b6001600160601b038116600111801590610de1575060096001600160601b03821611155b610dfd5760405162461bcd60e51b815260040161059e90611970565b600d80546001600160601b03909216600160a01b026001600160a01b03909216919091179055565b60126020526000908152604090205463ffffffff1681565b600d54600160a01b90046001600160601b031681565b600a81565b60408051600d8082526101c08201909252606091829190602082016101a080388339019050509050637048027560e01b81600081518110610e9557fe5b6001600160e01b03199092166020928302919091019091015280516305e17d4f60e21b9082906001908110610ec657fe5b6001600160e01b03199092166020928302919091019091015280516320b707b160e21b9082906002908110610ef757fe5b6001600160e01b0319909216602092830291909101909101528051636b2c0f5560e01b9082906003908110610f2857fe5b6001600160e01b03199092166020928302919091019091015280516358333fbd60e11b9082906004908110610f5957fe5b6001600160e01b03199092166020928302919091019091015280516312c098c360e31b9082906005908110610f8a57fe5b6001600160e01b031990921660209283029190910190910152805163626ee2d960e01b9082906006908110610fbb57fe5b6001600160e01b0319909216602092830291909101909101528051635c54c39960e11b9082906007908110610fec57fe5b6001600160e01b0319909216602092830291909101909101528051634d1bbdc160e11b908290600890811061101d57fe5b6001600160e01b0319909216602092830291909101909101528051638da5cb5b60e01b908290600990811061104e57fe5b6001600160e01b0319909216602092830291909101909101528051638f32d59b60e01b908290600a90811061107f57fe5b6001600160e01b031990921660209283029190910190910152805163f2fde38b60e01b908290600b9081106110b057fe5b6001600160e01b0319909216602092830291909101909101528051635419675f60e01b908290600c9081106110e157fe5b6001600160e01b031990921660209283029190910190910152905090565b600b60209081526000928352604080842090915290825290205463ffffffff1681565b600660209081526000928352604080842090915290825290205463ffffffff81169064010000000090046001600160601b031682565b60405161066e90611885565b61116c610ac6565b6111885760405162461bcd60e51b815260040161059e90611960565b611191816111ce565b50565b601160209081526000928352604080842090915290825290205463ffffffff81169064010000000090046001600160601b031682565b3390565b6001600160a01b0381166111f45760405162461bcd60e51b815260040161059e90611900565b600080546040516001600160a01b03808516939216917f8be0079c531659141344cd1fd0a4f28419497f9722a3daafe3b4186f6b6457e091a3600080546001600160a01b0319166001600160a01b0392909216919091179055565b803561125a81611a4b565b92915050565b803561125a81611a5f565b803561125a81611a68565b803561125a81611a71565b803561125a81611a7a565b60006020828403121561129e57600080fd5b60006112aa848461124f565b949350505050565b600080604083850312156112c557600080fd5b60006112d1858561124f565b92505060206112e28582860161126b565b9150509250929050565b60008060006060848603121561130157600080fd5b600061130d868661124f565b935050602061131e8682870161126b565b925050604061132f86828701611276565b9150509250925092565b60006020828403121561134b57600080fd5b60006112aa8484611260565b60006020828403121561136957600080fd5b60006112aa848461126b565b6000806040838503121561138857600080fd5b6000611394858561126b565b92505060206112e285828601611276565b6000602082840312156113b757600080fd5b60006112aa8484611281565b60006113cf8383611451565b505060200190565b6113e0816119ff565b82525050565b60006113f1826119ed565b6113fb81856119f1565b9350611406836119e7565b8060005b8381101561143457815161141e88826113c3565b9750611429836119e7565b92505060010161140a565b509495945050505050565b6113e081611a0a565b6113e081611a0f565b6113e081611a12565b6113e081611a40565b60006114706027836119f1565b7f63616e6e6f742061646420746865207a65726f20616464726573732061732061815266371030b236b4b760c91b602082015260400192915050565b60006114b96024836119f1565b7f7468657265206973206e6f206e6577207374616b696e6720636f6e7472616374815263081cd95d60e21b602082015260400192915050565b60006114ff6026836119f1565b7f4f776e61626c653a206e6577206f776e657220697320746865207a65726f206181526564647265737360d01b602082015260400192915050565b6000611547600f836119f1565b6e1b9bdd081a5b5c1b195b595b9d1959608a1b815260200192915050565b60006115726028836119f1565b7f43616e6e6f7420667265657a652f756e667265657a6520746f207468652073618152676d6520737461746560c01b602082015260400192915050565b60006115bc6017836119f1565b7f61646472657373206973206e6f7420616e2061646d696e000000000000000000815260200192915050565b60006115f56027836119f1565b7f63616e6e6f742061646420746865207a65726f20616464726573732061732061815266103830bab9b2b960c91b602082015260400192915050565b600061163e6043836119fa565b7f454950373132446f6d61696e28737472696e67206e616d652c75696e7432353681527f20636861696e49642c6164647265737320766572696679696e67436f6e74726160208201526263742960e81b604082015260430192915050565b60006116a96017836119f1565b7f61646472657373206973206e6f74206120706175736572000000000000000000815260200192915050565b60006116e2600c836119f1565b6b1d5b985d5d1a1bdc9a5e995960a21b815260200192915050565b600061170a6026836119f1565b7f7363616c696e6720646f65736e27742062656c6f6e6720746f2072616e6765208152655b312c20395d60d01b602082015260400192915050565b60006117526029836119f1565b7f63616e277420726573657420746865206e6577207374616b696e6720636f6e7481526807261637420746f20360bc1b602082015260400192915050565b600061179d604b836119fa565b7f44656c65676174696f6e28616464726573732064656c6567617465652c75696e81527f74323536206c6f636b446174652c75696e74323536206e6f6e63652c75696e7460208201526a323536206578706972792960a81b6040820152604b0192915050565b60006118106021836119f1565b7f46656553686172696e6720616464726573732073686f756c646e2774206265208152600360fc1b602082015260400192915050565b60006118536006836119f1565b651c185d5cd95960d21b815260200192915050565b6113e081611a2b565b6113e081611a34565b600061125a82611631565b600061125a82611790565b6020810161125a82846113d7565b602080825281016118af81846113e6565b9392505050565b6020810161125a828461143f565b6020810161125a8284611448565b6020810161125a828461145a565b6020808252810161125a81611463565b6020808252810161125a816114ac565b6020808252810161125a816114f2565b6020808252810161125a8161153a565b6020808252810161125a81611565565b6020808252810161125a816115af565b6020808252810161125a816115e8565b6020808252810161125a8161169c565b6020808252810161125a816116d5565b6020808252810161125a816116fd565b6020808252810161125a81611745565b6020808252810161125a81611803565b6020808252810161125a81611846565b6020810161125a8284611868565b604081016119cc8285611868565b6118af6020830184611871565b6020810161125a8284611871565b60200190565b5190565b90815260200190565b919050565b600061125a82611a1f565b151590565b90565b6001600160e01b03191690565b6001600160a01b031690565b63ffffffff1690565b6001600160601b031690565b600061125a826119ff565b611a54816119ff565b811461119157600080fd5b611a5481611a0a565b611a5481611a0f565b611a5481611a2b565b611a5481611a3456fea365627a7a72315820f98d0661f502777c0fb38a3a598e393b1205cfa2a761e1110fb5c93c33c043b66c6578706572696d656e74616cf564736f6c63430005110040",
  "devdoc": {
    "methods": {
      "addAdmin(address)": {
        "params": {
          "_admin": "The addresses of the account to grant permissions."
        }
      },
      "addPauser(address)": {
        "params": {
          "_pauser": "The address to grant pauser permissions."
        }
      },
      "freezeUnfreeze(bool)": {
        "details": "When freezing, pause is always applied too. When unfreezing, the contract is left in paused stated.",
        "params": {
          "_freeze": "true when freezing, false when unfreezing"
        }
      },
      "isOwner()": {
        "details": "Returns true if the caller is the current owner."
      },
      "migrateToNewStakingContract()": {
        "details": "Staking contract needs to be set before by the owner. Currently not implemented, just needed for the interface.     In case it's needed at some point in the future,     the implementation needs to be changed first."
      },
      "owner()": {
        "details": "Returns the address of the current owner."
      },
      "pauseUnpause(bool)": {
        "params": {
          "_pause": "true when pausing, false when unpausing"
        }
      },
      "removeAdmin(address)": {
        "params": {
          "_admin": "The addresses of the account to revoke permissions."
        }
      },
      "removePauser(address)": {
        "params": {
          "_pauser": "The address to grant pauser permissions."
        }
      },
      "setFeeSharing(address)": {
        "params": {
          "_feeSharing": "The address of FeeSharingCollectorProxy contract."
        }
      },
      "setNewStakingContract(address)": {
        "details": "Doesn't have any influence as long as migrateToNewStakingContract is not implemented.",
        "params": {
          "_newStakingContract": "The address of the new staking contract."
        }
      },
      "setWeightScaling(uint96)": {
        "params": {
          "_weightScaling": "The weight scaling."
        }
      },
      "transferOwnership(address)": {
        "details": "Transfers ownership of the contract to a new account (`newOwner`). Can only be called by the current owner."
      }
    },
    "title": "Staking Admin Module."
  },
  "userdoc": {
    "methods": {
      "addAdmin(address)": {
        "notice": "Add account to Admins ACL."
      },
      "addPauser(address)": {
        "notice": "Add account to pausers ACL."
      },
      "freezeUnfreeze(bool)": {
        "notice": "Freeze contract - disable all functions"
      },
      "migrateToNewStakingContract()": {
        "notice": "Allow a staker to migrate his positions to the new staking contract."
      },
      "pauseUnpause(bool)": {
        "notice": "Pause/unpause contract"
      },
      "removeAdmin(address)": {
        "notice": "Remove account from Admins ACL."
      },
      "removePauser(address)": {
        "notice": "Remove account from pausers ACL."
      },
      "setFeeSharing(address)": {
        "notice": "Allow the owner to set a fee sharing proxy contract. We need it for unstaking with slashing."
      },
      "setNewStakingContract(address)": {
        "notice": "Allow the owner to set a new staking contract. As a consequence it allows the stakers to migrate their positions to the new contract."
      },
      "setWeightScaling(uint96)": {
        "notice": "Allow the owner to set weight scaling. We need it for unstaking with slashing."
      }
    },
    "notice": "Implements administrative functionality pause, freeze and setting addresses and parameters related to staking"
  },
  "storageLayout": {
    "storage": [
      {
        "astId": 52587,
        "contract": "contracts/governance/Staking/modules/StakingAdminModule.sol:StakingAdminModule",
        "label": "_owner",
        "offset": 0,
        "slot": "0",
        "type": "t_address"
      },
      {
        "astId": 22109,
        "contract": "contracts/governance/Staking/modules/StakingAdminModule.sol:StakingAdminModule",
        "label": "kickoffTS",
        "offset": 0,
        "slot": "1",
        "type": "t_uint256"
      },
      {
        "astId": 22112,
        "contract": "contracts/governance/Staking/modules/StakingAdminModule.sol:StakingAdminModule",
        "label": "name",
        "offset": 0,
        "slot": "2",
        "type": "t_string_storage"
      },
      {
        "astId": 22114,
        "contract": "contracts/governance/Staking/modules/StakingAdminModule.sol:StakingAdminModule",
        "label": "SOVToken",
        "offset": 0,
        "slot": "3",
        "type": "t_contract(IERC20)31656"
      },
      {
        "astId": 22120,
        "contract": "contracts/governance/Staking/modules/StakingAdminModule.sol:StakingAdminModule",
        "label": "delegates",
        "offset": 0,
        "slot": "4",
        "type": "t_mapping(t_address,t_mapping(t_uint256,t_address))"
      },
      {
        "astId": 22123,
        "contract": "contracts/governance/Staking/modules/StakingAdminModule.sol:StakingAdminModule",
        "label": "allUnlocked",
        "offset": 0,
        "slot": "5",
        "type": "t_bool"
      },
      {
        "astId": 22135,
        "contract": "contracts/governance/Staking/modules/StakingAdminModule.sol:StakingAdminModule",
        "label": "newStakingContract",
        "offset": 1,
        "slot": "5",
        "type": "t_address"
      },
      {
        "astId": 22146,
        "contract": "contracts/governance/Staking/modules/StakingAdminModule.sol:StakingAdminModule",
        "label": "totalStakingCheckpoints",
        "offset": 0,
        "slot": "6",
        "type": "t_mapping(t_uint256,t_mapping(t_uint32,t_struct(Checkpoint)22140_storage))"
      },
      {
        "astId": 22150,
        "contract": "contracts/governance/Staking/modules/StakingAdminModule.sol:StakingAdminModule",
        "label": "numTotalStakingCheckpoints",
        "offset": 0,
        "slot": "7",
        "type": "t_mapping(t_uint256,t_uint32)"
      },
      {
        "astId": 22158,
        "contract": "contracts/governance/Staking/modules/StakingAdminModule.sol:StakingAdminModule",
        "label": "delegateStakingCheckpoints",
        "offset": 0,
        "slot": "8",
        "type": "t_mapping(t_address,t_mapping(t_uint256,t_mapping(t_uint32,t_struct(Checkpoint)22140_storage)))"
      },
      {
        "astId": 22164,
        "contract": "contracts/governance/Staking/modules/StakingAdminModule.sol:StakingAdminModule",
        "label": "numDelegateStakingCheckpoints",
        "offset": 0,
        "slot": "9",
        "type": "t_mapping(t_address,t_mapping(t_uint256,t_uint32))"
      },
      {
        "astId": 22172,
        "contract": "contracts/governance/Staking/modules/StakingAdminModule.sol:StakingAdminModule",
        "label": "userStakingCheckpoints",
        "offset": 0,
        "slot": "10",
        "type": "t_mapping(t_address,t_mapping(t_uint256,t_mapping(t_uint32,t_struct(Checkpoint)22140_storage)))"
      },
      {
        "astId": 22178,
        "contract": "contracts/governance/Staking/modules/StakingAdminModule.sol:StakingAdminModule",
        "label": "numUserStakingCheckpoints",
        "offset": 0,
        "slot": "11",
        "type": "t_mapping(t_address,t_mapping(t_uint256,t_uint32))"
      },
      {
        "astId": 22182,
        "contract": "contracts/governance/Staking/modules/StakingAdminModule.sol:StakingAdminModule",
        "label": "nonces",
        "offset": 0,
        "slot": "12",
        "type": "t_mapping(t_address,t_uint256)"
      },
      {
        "astId": 22184,
        "contract": "contracts/governance/Staking/modules/StakingAdminModule.sol:StakingAdminModule",
        "label": "feeSharing",
        "offset": 0,
        "slot": "13",
        "type": "t_contract(IFeeSharingCollector)15397"
      },
      {
        "astId": 22187,
        "contract": "contracts/governance/Staking/modules/StakingAdminModule.sol:StakingAdminModule",
        "label": "weightScaling",
        "offset": 20,
        "slot": "13",
        "type": "t_uint96"
      },
      {
        "astId": 22191,
        "contract": "contracts/governance/Staking/modules/StakingAdminModule.sol:StakingAdminModule",
        "label": "vestingWhitelist",
        "offset": 0,
        "slot": "14",
        "type": "t_mapping(t_address,t_bool)"
      },
      {
        "astId": 22195,
        "contract": "contracts/governance/Staking/modules/StakingAdminModule.sol:StakingAdminModule",
        "label": "admins",
        "offset": 0,
        "slot": "15",
        "type": "t_mapping(t_address,t_bool)"
      },
      {
        "astId": 22199,
        "contract": "contracts/governance/Staking/modules/StakingAdminModule.sol:StakingAdminModule",
        "label": "vestingCodeHashes",
        "offset": 0,
        "slot": "16",
        "type": "t_mapping(t_bytes32,t_bool)"
      },
      {
        "astId": 22205,
        "contract": "contracts/governance/Staking/modules/StakingAdminModule.sol:StakingAdminModule",
        "label": "vestingCheckpoints",
        "offset": 0,
        "slot": "17",
        "type": "t_mapping(t_uint256,t_mapping(t_uint32,t_struct(Checkpoint)22140_storage))"
      },
      {
        "astId": 22209,
        "contract": "contracts/governance/Staking/modules/StakingAdminModule.sol:StakingAdminModule",
        "label": "numVestingCheckpoints",
        "offset": 0,
        "slot": "18",
        "type": "t_mapping(t_uint256,t_uint32)"
      },
      {
        "astId": 22211,
        "contract": "contracts/governance/Staking/modules/StakingAdminModule.sol:StakingAdminModule",
        "label": "vestingRegistryLogic",
        "offset": 0,
        "slot": "19",
        "type": "t_contract(IVestingRegistry)24488"
      },
      {
        "astId": 22215,
        "contract": "contracts/governance/Staking/modules/StakingAdminModule.sol:StakingAdminModule",
        "label": "pausers",
        "offset": 0,
        "slot": "20",
        "type": "t_mapping(t_address,t_bool)"
      },
      {
        "astId": 22217,
        "contract": "contracts/governance/Staking/modules/StakingAdminModule.sol:StakingAdminModule",
        "label": "paused",
        "offset": 0,
        "slot": "21",
        "type": "t_bool"
      },
      {
        "astId": 22219,
        "contract": "contracts/governance/Staking/modules/StakingAdminModule.sol:StakingAdminModule",
        "label": "frozen",
        "offset": 1,
        "slot": "21",
        "type": "t_bool"
      },
      {
        "astId": 22221,
        "contract": "contracts/governance/Staking/modules/StakingAdminModule.sol:StakingAdminModule",
        "label": "maxVestingWithdrawIterations",
        "offset": 0,
        "slot": "22",
        "type": "t_uint256"
      }
    ],
    "types": {
      "t_address": {
        "encoding": "inplace",
        "label": "address",
        "numberOfBytes": "20"
      },
      "t_bool": {
        "encoding": "inplace",
        "label": "bool",
        "numberOfBytes": "1"
      },
      "t_bytes32": {
        "encoding": "inplace",
        "label": "bytes32",
        "numberOfBytes": "32"
      },
      "t_contract(IERC20)31656": {
        "encoding": "inplace",
        "label": "contract IERC20",
        "numberOfBytes": "20"
      },
      "t_contract(IFeeSharingCollector)15397": {
        "encoding": "inplace",
        "label": "contract IFeeSharingCollector",
        "numberOfBytes": "20"
      },
      "t_contract(IVestingRegistry)24488": {
        "encoding": "inplace",
        "label": "contract IVestingRegistry",
        "numberOfBytes": "20"
      },
      "t_mapping(t_address,t_bool)": {
        "encoding": "mapping",
        "key": "t_address",
        "label": "mapping(address => bool)",
        "numberOfBytes": "32",
        "value": "t_bool"
      },
      "t_mapping(t_address,t_mapping(t_uint256,t_address))": {
        "encoding": "mapping",
        "key": "t_address",
        "label": "mapping(address => mapping(uint256 => address))",
        "numberOfBytes": "32",
        "value": "t_mapping(t_uint256,t_address)"
      },
      "t_mapping(t_address,t_mapping(t_uint256,t_mapping(t_uint32,t_struct(Checkpoint)22140_storage)))": {
        "encoding": "mapping",
        "key": "t_address",
        "label": "mapping(address => mapping(uint256 => mapping(uint32 => struct StakingStorageShared.Checkpoint)))",
        "numberOfBytes": "32",
        "value": "t_mapping(t_uint256,t_mapping(t_uint32,t_struct(Checkpoint)22140_storage))"
      },
      "t_mapping(t_address,t_mapping(t_uint256,t_uint32))": {
        "encoding": "mapping",
        "key": "t_address",
        "label": "mapping(address => mapping(uint256 => uint32))",
        "numberOfBytes": "32",
        "value": "t_mapping(t_uint256,t_uint32)"
      },
      "t_mapping(t_address,t_uint256)": {
        "encoding": "mapping",
        "key": "t_address",
        "label": "mapping(address => uint256)",
        "numberOfBytes": "32",
        "value": "t_uint256"
      },
      "t_mapping(t_bytes32,t_bool)": {
        "encoding": "mapping",
        "key": "t_bytes32",
        "label": "mapping(bytes32 => bool)",
        "numberOfBytes": "32",
        "value": "t_bool"
      },
      "t_mapping(t_uint256,t_address)": {
        "encoding": "mapping",
        "key": "t_uint256",
        "label": "mapping(uint256 => address)",
        "numberOfBytes": "32",
        "value": "t_address"
      },
      "t_mapping(t_uint256,t_mapping(t_uint32,t_struct(Checkpoint)22140_storage))": {
        "encoding": "mapping",
        "key": "t_uint256",
        "label": "mapping(uint256 => mapping(uint32 => struct StakingStorageShared.Checkpoint))",
        "numberOfBytes": "32",
        "value": "t_mapping(t_uint32,t_struct(Checkpoint)22140_storage)"
      },
      "t_mapping(t_uint256,t_uint32)": {
        "encoding": "mapping",
        "key": "t_uint256",
        "label": "mapping(uint256 => uint32)",
        "numberOfBytes": "32",
        "value": "t_uint32"
      },
      "t_mapping(t_uint32,t_struct(Checkpoint)22140_storage)": {
        "encoding": "mapping",
        "key": "t_uint32",
        "label": "mapping(uint32 => struct StakingStorageShared.Checkpoint)",
        "numberOfBytes": "32",
        "value": "t_struct(Checkpoint)22140_storage"
      },
      "t_string_storage": {
        "encoding": "bytes",
        "label": "string",
        "numberOfBytes": "32"
      },
      "t_struct(Checkpoint)22140_storage": {
        "encoding": "inplace",
        "label": "struct StakingStorageShared.Checkpoint",
        "members": [
          {
            "astId": 22137,
            "contract": "contracts/governance/Staking/modules/StakingAdminModule.sol:StakingAdminModule",
            "label": "fromBlock",
            "offset": 0,
            "slot": "0",
            "type": "t_uint32"
          },
          {
            "astId": 22139,
            "contract": "contracts/governance/Staking/modules/StakingAdminModule.sol:StakingAdminModule",
            "label": "stake",
            "offset": 4,
            "slot": "0",
            "type": "t_uint96"
          }
        ],
        "numberOfBytes": "32"
      },
      "t_uint256": {
        "encoding": "inplace",
        "label": "uint256",
        "numberOfBytes": "32"
      },
      "t_uint32": {
        "encoding": "inplace",
        "label": "uint32",
        "numberOfBytes": "4"
      },
      "t_uint96": {
        "encoding": "inplace",
        "label": "uint96",
        "numberOfBytes": "12"
      }
    }
  }
}