{
  "address": "0xa98f000a528AC0bFf10a3FE499378437de449659",
  "abi": [
    {
      "constant": true,
      "inputs": [
        {
          "internalType": "string",
          "name": "source",
          "type": "string"
        }
      ],
      "name": "getContractHexName",
      "outputs": [
        {
          "internalType": "bytes32",
          "name": "result",
          "type": "bytes32"
        }
      ],
      "payable": false,
      "stateMutability": "pure",
      "type": "function"
    },
    {
      "constant": true,
      "inputs": [
        {
          "internalType": "address",
          "name": "sourceTokenAddress",
          "type": "address"
        },
        {
          "internalType": "address",
          "name": "destTokenAddress",
          "type": "address"
        },
        {
          "internalType": "uint256",
          "name": "sourceTokenAmount",
          "type": "uint256"
        }
      ],
      "name": "getExpectedRate",
      "outputs": [
        {
          "internalType": "uint256",
          "name": "",
          "type": "uint256"
        }
      ],
      "payable": false,
      "stateMutability": "view",
      "type": "function"
    },
    {
      "constant": true,
      "inputs": [
        {
          "internalType": "address",
          "name": "sourceTokenAddress",
          "type": "address"
        },
        {
          "internalType": "address",
          "name": "destTokenAddress",
          "type": "address"
        },
        {
          "internalType": "uint256",
          "name": "sourceTokenAmount",
          "type": "uint256"
        }
      ],
      "name": "getExpectedReturn",
      "outputs": [
        {
          "internalType": "uint256",
          "name": "expectedReturn",
          "type": "uint256"
        }
      ],
      "payable": false,
      "stateMutability": "view",
      "type": "function"
    },
    {
      "constant": true,
      "inputs": [
        {
          "internalType": "address",
          "name": "sovrynSwapRegistryAddress",
          "type": "address"
        }
      ],
      "name": "getSovrynSwapNetworkContract",
      "outputs": [
        {
          "internalType": "contract ISovrynSwapNetwork",
          "name": "",
          "type": "ISovrynSwapNetwork"
        }
      ],
      "payable": false,
      "stateMutability": "view",
      "type": "function"
    }
  ],
  "transactionHash": "0x6d4186b5e34ed9d9173e8b842f2d8408b67d21993dcad38e98073302fad15d88",
  "args": [],
  "numDeployments": 2,
  "solcInputHash": "444414c40f489390e118f5b65a5947cc",
  "bytecode": "0x61187c610026600b82828239805160001a60731461001957fe5b30600052607381538281f3fe73000000000000000000000000000000000000000030146080604052600436106100615760003560e01c806335aaa79d146100665780636dcd64e51461009d578063809a9e55146100bd578063b1fb7f56146100d0578063ca83d575146100e3575b600080fd5b81801561007257600080fd5b50610086610081366004611199565b610103565b6040516100949291906116ef565b60405180910390f35b6100b06100ab3660046110c4565b6104dd565b6040516100949190611607565b6100b06100cb3660046110c4565b6105b6565b6100b06100de366004611164565b6106bd565b6100f66100f1366004611088565b6106c4565b6040516100949190611630565b60008082602001516001600160a01b031683600001516001600160a01b031614156101495760405162461bcd60e51b81526004016101409061169f565b60405180910390fd5b8251604051633462561360e11b8152309182916368c4ac269161016e91600401611544565b60206040518083038186803b15801561018657600080fd5b505afa15801561019a573d6000803e3d6000fd5b505050506040513d601f19601f820116820180604052506101be9190810190611146565b801561024557506020840151604051633462561360e11b81526001600160a01b038316916368c4ac26916101f59190600401611544565b60206040518083038186803b15801561020d57600080fd5b505afa158015610221573d6000803e3d6000fd5b505050506040513d601f19601f820116820180604052506102459190810190611146565b6102615760405162461bcd60e51b81526004016101409061167f565b60006102d7826001600160a01b031663ba4861e96040518163ffffffff1660e01b815260040160206040518083038186803b15801561029f57600080fd5b505afa1580156102b3573d6000803e3d6000fd5b505050506040513d601f19601f820116820180604052506100f191908101906110a6565b905060606102ee8660000151876020015184610777565b608087015160c0880151909550909150600190156103cc57610322876000015188602001518960c001518a60a00151610893565b94508660c00151836001600160a01b0316637f9c0ecd84886040518363ffffffff1660e01b8152600401610357929190611588565b60206040518083038186803b15801561036f57600080fd5b505afa158015610383573d6000803e3d6000fd5b505050506040513d601f19601f820116820180604052506103a791908101906111b7565b10156103c55760405162461bcd60e51b8152600401610140906116af565b5060c08601515b600085116103ec5760405162461bcd60e51b81526004016101409061164f565b6103fb85886000015185610afd565b604080880151905163b77d239b60e01b81526001600160a01b0385169163b77d239b916104359186918a91879160009081906004016115a8565b602060405180830381600087803b15801561044f57600080fd5b505af1158015610463573d6000803e3d6000fd5b505050506040513d601f19601f8201168201806040525061048791908101906111b7565b60608801519096506001600160a01b031630146104d4578660a001518510156104d457606087015160a088015188516104d4926001600160a01b039091169188900363ffffffff610baa16565b50505050915091565b60008061051c306001600160a01b031663ba4861e96040518163ffffffff1660e01b815260040160206040518083038186803b15801561029f57600080fd5b9050606061052b868684610777565b604051637f9c0ecd60e01b81529091506001600160a01b03831690637f9c0ecd9061055c9084908890600401611588565b60206040518083038186803b15801561057457600080fd5b505afa158015610588573d6000803e3d6000fd5b505050506040513d601f19601f820116820180604052506105ac91908101906111b7565b9695505050505050565b6000806105f5306001600160a01b031663ba4861e96040518163ffffffff1660e01b815260040160206040518083038186803b15801561029f57600080fd5b90506060610604868684610777565b90506000826001600160a01b0316637f9c0ecd83876040518363ffffffff1660e01b8152600401610636929190611588565b60206040518083038186803b15801561064e57600080fd5b505afa158015610662573d6000803e3d6000fd5b505050506040513d601f19601f8201168201806040525061068691908101906111b7565b90506106b0856106a483670de0b6b3a764000063ffffffff610c0816565b9063ffffffff610c4b16565b93505050505b9392505050565b6020015190565b600080829050806001600160a01b031663bb34534c61070b60405180604001604052806011815260200170536f7672796e537761704e6574776f726b60781b8152506106bd565b6040518263ffffffff1660e01b81526004016107279190611607565b60206040518083038186803b15801561073f57600080fd5b505afa158015610753573d6000803e3d6000fd5b505050506040513d601f19601f820116820180604052506106b691908101906110a6565b604051638654042960e01b8152606090819030906386540429906107a19088908890600401611552565b60006040518083038186803b1580156107b957600080fd5b505afa1580156107cd573d6000803e3d6000fd5b505050506040513d6000823e601f3d908101601f191682016040526107f59190810190611111565b90506003815110156108885760405163d734fa1960e01b81526001600160a01b0384169063d734fa199061082f9088908890600401611615565b60006040518083038186803b15801561084757600080fd5b505afa15801561085b573d6000803e3d6000fd5b505050506040513d6000823e601f3d908101601f191682016040526108839190810190611111565b61088a565b805b95945050505050565b6000803090506000816001600160a01b03166378d849ed6040518163ffffffff1660e01b815260040160206040518083038186803b1580156108d457600080fd5b505afa1580156108e8573d6000803e3d6000fd5b505050506040513d601f19601f8201168201806040525061090c91908101906110a6565b6001600160a01b031663524efd4b88886040518363ffffffff1660e01b8152600401610939929190611552565b60206040518083038186803b15801561095157600080fd5b505afa158015610965573d6000803e3d6000fd5b505050506040513d601f19601f8201168201806040525061098991908101906111b7565b90508061099a578392505050610af5565b60006109a78888876105b6565b90506109bd816106a4888563ffffffff610c0816565b935060006109d3856103e863ffffffff610c4b16565b9050836001600160a01b031663f0e085f56040518163ffffffff1660e01b815260040160206040518083038186803b158015610a0e57600080fd5b505afa158015610a22573d6000803e3d6000fd5b505050506040513d601f19601f82011682018060405250610a4691908101906111b7565b811115610ac157836001600160a01b031663f0e085f56040518163ffffffff1660e01b815260040160206040518083038186803b158015610a8657600080fd5b505afa158015610a9a573d6000803e3d6000fd5b505050506040513d601f19601f82011682018060405250610abe91908101906111b7565b90505b610ad1858263ffffffff610c8d16565b9450841580610adf57508585115b15610af05785945050505050610af5565b505050505b949350505050565b604051636eb1769f60e11b81526000906001600160a01b0384169063dd62ed3e90610b2e9030908690600401611552565b60206040518083038186803b158015610b4657600080fd5b505afa158015610b5a573d6000803e3d6000fd5b505050506040513d601f19601f82011682018060405250610b7e91908101906111b7565b905083811015610ba457610ba46001600160a01b0384168360001963ffffffff610cb216565b50505050565b604051610c0390849063a9059cbb60e01b90610bcc908690869060240161156d565b60408051601f198184030181529190526020810180516001600160e01b03166001600160e01b031990931692909217909152610d78565b505050565b600082610c1757506000610c45565b82820282848281610c2457fe5b0414610c425760405162461bcd60e51b81526004016101409061168f565b90505b92915050565b6000610c4283836040518060400160405280601a81526020017f536166654d6174683a206469766973696f6e206279207a65726f000000000000815250610e5d565b600082820183811015610c425760405162461bcd60e51b81526004016101409061165f565b801580610d3a5750604051636eb1769f60e11b81526001600160a01b0384169063dd62ed3e90610ce89030908690600401611552565b60206040518083038186803b158015610d0057600080fd5b505afa158015610d14573d6000803e3d6000fd5b505050506040513d601f19601f82011682018060405250610d3891908101906111b7565b155b610d565760405162461bcd60e51b8152600401610140906116cf565b604051610c0390849063095ea7b360e01b90610bcc908690869060240161156d565b610d8a826001600160a01b0316610e94565b610da65760405162461bcd60e51b8152600401610140906116df565b60006060836001600160a01b031683604051610dc29190611538565b6000604051808303816000865af19150503d8060008114610dff576040519150601f19603f3d011682016040523d82523d6000602084013e610e04565b606091505b509150915081610e265760405162461bcd60e51b81526004016101409061166f565b805115610ba45780806020019051610e419190810190611146565b610ba45760405162461bcd60e51b8152600401610140906116bf565b60008183610e7e5760405162461bcd60e51b8152600401610140919061163e565b506000838581610e8a57fe5b0495945050505050565b6000813f7fc5d2460186f7233c927e7db2dcc703c0e500b653ca82273b7bfad8045d85a470818114801590610af5575050151592915050565b8035610c4581611807565b8051610c4581611807565b600082601f830112610ef457600080fd5b8151610f07610f0282611724565b6116fd565b91508181835260208401935060208101905083856020840282011115610f2c57600080fd5b60005b83811015610f585781610f428882610f6d565b8452506020928301929190910190600101610f2f565b5050505092915050565b8051610c458161181e565b8051610c4581611827565b600082601f830112610f8957600080fd5b8135610f97610f0282611745565b91508082526020830160208301858383011115610fb357600080fd5b610fbe8382846117c5565b50505092915050565b600060e08284031215610fd957600080fd5b610fe360e06116fd565b90506000610ff18484610ecd565b825250602061100284848301610ecd565b602083015250604061101684828501610ecd565b604083015250606061102a84828501610ecd565b606083015250608061103e84828501611072565b60808301525060a061105284828501611072565b60a08301525060c061106684828501611072565b60c08301525092915050565b8035610c4581611830565b8051610c4581611830565b60006020828403121561109a57600080fd5b6000610af58484610ecd565b6000602082840312156110b857600080fd5b6000610af58484610ed8565b6000806000606084860312156110d957600080fd5b60006110e58686610ecd565b93505060206110f686828701610ecd565b925050604061110786828701611072565b9150509250925092565b60006020828403121561112357600080fd5b815167ffffffffffffffff81111561113a57600080fd5b610af584828501610ee3565b60006020828403121561115857600080fd5b6000610af58484610f62565b60006020828403121561117657600080fd5b813567ffffffffffffffff81111561118d57600080fd5b610af584828501610f78565b600060e082840312156111ab57600080fd5b6000610af58484610fc7565b6000602082840312156111c957600080fd5b6000610af5848461107d565b60006111e18383611292565b505060200190565b6111f2816117af565b82525050565b6111f281611785565b600061120c82611773565b6112168185611777565b93506112218361176d565b8060005b8381101561124f57815161123988826111d5565b97506112448361176d565b925050600101611225565b509495945050505050565b6111f281611795565b600061126e82611773565b6112788185611780565b93506112888185602086016117d1565b9290920192915050565b6111f281611798565b6111f2816117ba565b60006112af82611773565b6112b98185611777565b93506112c98185602086016117d1565b6112d2816117fd565b9093019392505050565b60006112e9601483611777565b7363616e6e6f742073776170203020746f6b656e7360601b815260200192915050565b6000611319601b83611777565b7f536166654d6174683a206164646974696f6e206f766572666c6f770000000000815260200192915050565b6000611352602083611777565b7f5361666545524332303a206c6f772d6c6576656c2063616c6c206661696c6564815260200192915050565b600061138b600e83611777565b6d696e76616c696420746f6b656e7360901b815260200192915050565b60006113b5602183611777565b7f536166654d6174683a206d756c7469706c69636174696f6e206f766572666c6f8152607760f81b602082015260400192915050565b60006113f8600e83611777565b6d1cdbdd5c98d9480f4f4819195cdd60921b815260200192915050565b6000611422602483611777565b7f696e73756666696369656e7420736f7572636520746f6b656e732070726f76698152633232b21760e11b602082015260400192915050565b6000611468602a83611777565b7f5361666545524332303a204552433230206f7065726174696f6e20646964206e8152691bdd081cdd58d8d9595960b21b602082015260400192915050565b60006114b4603683611777565b7f5361666545524332303a20617070726f76652066726f6d206e6f6e2d7a65726f81527520746f206e6f6e2d7a65726f20616c6c6f77616e636560501b602082015260400192915050565b600061150c601f83611777565b7f5361666545524332303a2063616c6c20746f206e6f6e2d636f6e747261637400815260200192915050565b60006106b68284611263565b60208101610c4582846111f8565b6040810161156082856111f8565b6106b660208301846111f8565b6040810161157b82856111f8565b6106b6602083018461125a565b604080825281016115998185611201565b90506106b6602083018461125a565b60c080825281016115b98189611201565b90506115c8602083018861125a565b6115d5604083018761125a565b6115e260608301866111f8565b6115ef60808301856111e9565b6115fc60a083018461129b565b979650505050505050565b60208101610c45828461125a565b604081016116238285611292565b6106b66020830184611292565b60208101610c458284611292565b60208082528101610c4281846112a4565b60208082528101610c45816112dc565b60208082528101610c458161130c565b60208082528101610c4581611345565b60208082528101610c458161137e565b60208082528101610c45816113a8565b60208082528101610c45816113eb565b60208082528101610c4581611415565b60208082528101610c458161145b565b60208082528101610c45816114a7565b60208082528101610c45816114ff565b6040810161157b828561125a565b60405181810167ffffffffffffffff8111828210171561171c57600080fd5b604052919050565b600067ffffffffffffffff82111561173b57600080fd5b5060209081020190565b600067ffffffffffffffff82111561175c57600080fd5b506020601f91909101601f19160190565b60200190565b5190565b90815260200190565b919050565b6000610c45826117a3565b151590565b90565b6000610c4582611785565b6001600160a01b031690565b6000610c4582611798565b6000610c4582611795565b82818337506000910152565b60005b838110156117ec5781810151838201526020016117d4565b83811115610ba45750506000910152565b601f01601f191690565b61181081611785565b811461181b57600080fd5b50565b61181081611790565b61181081611798565b6118108161179556fea365627a7a72315820ebc5e468d7f9c6318e17879153dc3c0c04f9da7556939114f9f7ba14b6786def6c6578706572696d656e74616cf564736f6c63430005110040",
  "devdoc": {
    "methods": {
      "getContractHexName(string)": {
        "params": {
          "source": "The name of the contract."
        }
      },
      "getExpectedRate(address,address,uint256)": {
        "params": {
          "destTokenAddress": "The address of the destination token contract.",
          "sourceTokenAddress": "The address of the source token contract.",
          "sourceTokenAmount": "The amount of source tokens to get the rate for."
        }
      },
      "getExpectedReturn(address,address,uint256)": {
        "params": {
          "destTokenAddress": "The address of the destination token contract.",
          "sourceTokenAddress": "The address of the source token contract.",
          "sourceTokenAmount": "The amount of source tokens to get the return for."
        }
      },
      "getSovrynSwapNetworkContract(address)": {
        "params": {
          "sovrynSwapRegistryAddress": "The address of the registry."
        }
      },
      "swap(SwapsImplSovrynSwapLib.SwapParams)": {
        "params": {
          "params": "SwapParams struct sourceTokenAddress The address of the source tokens. destTokenAddress The address of the destination tokens. receiverAddress The address who will received the swap token results returnToSenderAddress The address to return unspent tokens to (when called by the protocol, it's always the protocol contract). minSourceTokenAmount The minimum amount of source tokens to swapped (only considered if requiredDestTokens == 0). maxSourceTokenAmount The maximum amount of source tokens to swapped. requiredDestTokenAmount The required amount of destination tokens."
        }
      }
    },
    "title": "Swaps Implementation Sovryn contract."
  },
  "userdoc": {
    "methods": {
      "getContractHexName(string)": {
        "notice": "Get the hex name of a contract."
      },
      "getExpectedRate(address,address,uint256)": {
        "notice": "Get the expected rate for 1 source token when exchanging the  given amount of source tokens."
      },
      "getExpectedReturn(address,address,uint256)": {
        "notice": "Get the expected return amount when exchanging the given  amount of source tokens.Right now, this function is being called directly by _swapsExpectedReturn from the protocol So, this function is not using _getConversionPath function since it will try to read the defaultPath storage which is stored in the protocol's slot, and it will cause an issue for direct call. Instead, this function is accepting additional parameters called defaultPath which value can be declared by the caller (protocol in this case)."
      },
      "getSovrynSwapNetworkContract(address)": {
        "notice": "Look up the Sovryn swap network contract registered at the given address."
      },
      "swap(SwapsImplSovrynSwapLib.SwapParams)": {
        "notice": "Swap the source token for the destination token on the oracle based AMM. On loan opening: minSourceTokenAmount = maxSourceTokenAmount and requiredDestTokenAmount = 0     -> swap the minSourceTokenAmount On loan rollover: (swap interest) minSourceTokenAmount = 0, maxSourceTokenAmount = complete collateral and requiredDestTokenAmount > 0     -> amount of required source tokens to swap is estimated (want to fill requiredDestTokenAmount, not more). maxSourceTokenAMount is not exceeded. On loan closure: minSourceTokenAmount <= maxSourceTokenAmount and requiredDestTokenAmount >= 0     -> same as on rollover. minimum amount is not considered at all."
      }
    },
    "notice": "This contract code comes from bZx. bZx is a protocol for tokenized margin trading and lending https://bzx.network similar to the dYdX protocol. * This contract contains the implementation of swap process and rate calculations for Sovryn network."
  },
  "storageLayout": {
    "storage": [],
    "types": null
  }
}