{
  "address": "0x5A2a066e14075Ed20BaA17b1976aE4808b00EC3D",
  "abi": [
    {
      "inputs": [],
      "payable": false,
      "stateMutability": "nonpayable",
      "type": "constructor"
    },
    {
      "anonymous": false,
      "inputs": [
        {
          "indexed": true,
          "internalType": "address",
          "name": "previousOwner",
          "type": "address"
        },
        {
          "indexed": true,
          "internalType": "address",
          "name": "newOwner",
          "type": "address"
        }
      ],
      "name": "OwnershipTransferred",
      "type": "event"
    },
    {
      "anonymous": false,
      "inputs": [
        {
          "indexed": true,
          "internalType": "address",
          "name": "prevModuleContractAddress",
          "type": "address"
        },
        {
          "indexed": true,
          "internalType": "address",
          "name": "newModuleContractAddress",
          "type": "address"
        },
        {
          "indexed": true,
          "internalType": "bytes32",
          "name": "module",
          "type": "bytes32"
        }
      ],
      "name": "ProtocolModuleContractReplaced",
      "type": "event"
    },
    {
      "payable": false,
      "stateMutability": "nonpayable",
      "type": "fallback"
    },
    {
      "constant": true,
      "inputs": [],
      "name": "admin",
      "outputs": [
        {
          "internalType": "address",
          "name": "",
          "type": "address"
        }
      ],
      "payable": false,
      "stateMutability": "view",
      "type": "function"
    },
    {
      "constant": true,
      "inputs": [],
      "name": "affiliateFeePercent",
      "outputs": [
        {
          "internalType": "uint256",
          "name": "",
          "type": "uint256"
        }
      ],
      "payable": false,
      "stateMutability": "view",
      "type": "function"
    },
    {
      "constant": true,
      "inputs": [
        {
          "internalType": "address",
          "name": "",
          "type": "address"
        }
      ],
      "name": "affiliateRewardsHeld",
      "outputs": [
        {
          "internalType": "uint256",
          "name": "",
          "type": "uint256"
        }
      ],
      "payable": false,
      "stateMutability": "view",
      "type": "function"
    },
    {
      "constant": true,
      "inputs": [],
      "name": "affiliateTradingTokenFeePercent",
      "outputs": [
        {
          "internalType": "uint256",
          "name": "",
          "type": "uint256"
        }
      ],
      "payable": false,
      "stateMutability": "view",
      "type": "function"
    },
    {
      "constant": true,
      "inputs": [
        {
          "internalType": "address",
          "name": "",
          "type": "address"
        },
        {
          "internalType": "address",
          "name": "",
          "type": "address"
        }
      ],
      "name": "affiliatesReferrerBalances",
      "outputs": [
        {
          "internalType": "uint256",
          "name": "",
          "type": "uint256"
        }
      ],
      "payable": false,
      "stateMutability": "view",
      "type": "function"
    },
    {
      "constant": true,
      "inputs": [
        {
          "internalType": "address",
          "name": "",
          "type": "address"
        }
      ],
      "name": "affiliatesUserReferrer",
      "outputs": [
        {
          "internalType": "address",
          "name": "",
          "type": "address"
        }
      ],
      "payable": false,
      "stateMutability": "view",
      "type": "function"
    },
    {
      "constant": true,
      "inputs": [
        {
          "internalType": "address",
          "name": "",
          "type": "address"
        }
      ],
      "name": "borrowerNonce",
      "outputs": [
        {
          "internalType": "uint256",
          "name": "",
          "type": "uint256"
        }
      ],
      "payable": false,
      "stateMutability": "view",
      "type": "function"
    },
    {
      "constant": true,
      "inputs": [
        {
          "internalType": "address",
          "name": "",
          "type": "address"
        },
        {
          "internalType": "bytes32",
          "name": "",
          "type": "bytes32"
        }
      ],
      "name": "borrowerOrders",
      "outputs": [
        {
          "internalType": "uint256",
          "name": "lockedAmount",
          "type": "uint256"
        },
        {
          "internalType": "uint256",
          "name": "interestRate",
          "type": "uint256"
        },
        {
          "internalType": "uint256",
          "name": "minLoanTerm",
          "type": "uint256"
        },
        {
          "internalType": "uint256",
          "name": "maxLoanTerm",
          "type": "uint256"
        },
        {
          "internalType": "uint256",
          "name": "createdTimestamp",
          "type": "uint256"
        },
        {
          "internalType": "uint256",
          "name": "expirationTimestamp",
          "type": "uint256"
        }
      ],
      "payable": false,
      "stateMutability": "view",
      "type": "function"
    },
    {
      "constant": true,
      "inputs": [],
      "name": "borrowingFeePercent",
      "outputs": [
        {
          "internalType": "uint256",
          "name": "",
          "type": "uint256"
        }
      ],
      "payable": false,
      "stateMutability": "view",
      "type": "function"
    },
    {
      "constant": true,
      "inputs": [
        {
          "internalType": "address",
          "name": "",
          "type": "address"
        }
      ],
      "name": "borrowingFeeTokensHeld",
      "outputs": [
        {
          "internalType": "uint256",
          "name": "",
          "type": "uint256"
        }
      ],
      "payable": false,
      "stateMutability": "view",
      "type": "function"
    },
    {
      "constant": true,
      "inputs": [
        {
          "internalType": "address",
          "name": "",
          "type": "address"
        }
      ],
      "name": "borrowingFeeTokensPaid",
      "outputs": [
        {
          "internalType": "uint256",
          "name": "",
          "type": "uint256"
        }
      ],
      "payable": false,
      "stateMutability": "view",
      "type": "function"
    },
    {
      "constant": true,
      "inputs": [
        {
          "internalType": "bytes32",
          "name": "",
          "type": "bytes32"
        },
        {
          "internalType": "address",
          "name": "",
          "type": "address"
        }
      ],
      "name": "delegatedManagers",
      "outputs": [
        {
          "internalType": "bool",
          "name": "",
          "type": "bool"
        }
      ],
      "payable": false,
      "stateMutability": "view",
      "type": "function"
    },
    {
      "constant": true,
      "inputs": [],
      "name": "feeRebatePercent",
      "outputs": [
        {
          "internalType": "uint256",
          "name": "",
          "type": "uint256"
        }
      ],
      "payable": false,
      "stateMutability": "view",
      "type": "function"
    },
    {
      "constant": true,
      "inputs": [],
      "name": "feesController",
      "outputs": [
        {
          "internalType": "address",
          "name": "",
          "type": "address"
        }
      ],
      "payable": false,
      "stateMutability": "view",
      "type": "function"
    },
    {
      "constant": true,
      "inputs": [
        {
          "internalType": "string",
          "name": "source",
          "type": "string"
        }
      ],
      "name": "getContractHexName",
      "outputs": [
        {
          "internalType": "bytes32",
          "name": "result",
          "type": "bytes32"
        }
      ],
      "payable": false,
      "stateMutability": "pure",
      "type": "function"
    },
    {
      "constant": true,
      "inputs": [
        {
          "internalType": "address",
          "name": "sovrynSwapRegistryAddress",
          "type": "address"
        }
      ],
      "name": "getSovrynSwapNetworkContract",
      "outputs": [
        {
          "internalType": "contract ISovrynSwapNetwork",
          "name": "",
          "type": "address"
        }
      ],
      "payable": false,
      "stateMutability": "view",
      "type": "function"
    },
    {
      "constant": false,
      "inputs": [
        {
          "internalType": "address",
          "name": "target",
          "type": "address"
        }
      ],
      "name": "initialize",
      "outputs": [],
      "payable": false,
      "stateMutability": "nonpayable",
      "type": "function"
    },
    {
      "constant": true,
      "inputs": [],
      "name": "isOwner",
      "outputs": [
        {
          "internalType": "bool",
          "name": "",
          "type": "bool"
        }
      ],
      "payable": false,
      "stateMutability": "view",
      "type": "function"
    },
    {
      "constant": true,
      "inputs": [
        {
          "internalType": "address",
          "name": "",
          "type": "address"
        },
        {
          "internalType": "address",
          "name": "",
          "type": "address"
        }
      ],
      "name": "lenderInterest",
      "outputs": [
        {
          "internalType": "uint256",
          "name": "principalTotal",
          "type": "uint256"
        },
        {
          "internalType": "uint256",
          "name": "owedPerDay",
          "type": "uint256"
        },
        {
          "internalType": "uint256",
          "name": "owedTotal",
          "type": "uint256"
        },
        {
          "internalType": "uint256",
          "name": "paidTotal",
          "type": "uint256"
        },
        {
          "internalType": "uint256",
          "name": "updatedTimestamp",
          "type": "uint256"
        }
      ],
      "payable": false,
      "stateMutability": "view",
      "type": "function"
    },
    {
      "constant": true,
      "inputs": [
        {
          "internalType": "address",
          "name": "",
          "type": "address"
        },
        {
          "internalType": "bytes32",
          "name": "",
          "type": "bytes32"
        }
      ],
      "name": "lenderOrders",
      "outputs": [
        {
          "internalType": "uint256",
          "name": "lockedAmount",
          "type": "uint256"
        },
        {
          "internalType": "uint256",
          "name": "interestRate",
          "type": "uint256"
        },
        {
          "internalType": "uint256",
          "name": "minLoanTerm",
          "type": "uint256"
        },
        {
          "internalType": "uint256",
          "name": "maxLoanTerm",
          "type": "uint256"
        },
        {
          "internalType": "uint256",
          "name": "createdTimestamp",
          "type": "uint256"
        },
        {
          "internalType": "uint256",
          "name": "expirationTimestamp",
          "type": "uint256"
        }
      ],
      "payable": false,
      "stateMutability": "view",
      "type": "function"
    },
    {
      "constant": true,
      "inputs": [],
      "name": "lendingFeePercent",
      "outputs": [
        {
          "internalType": "uint256",
          "name": "",
          "type": "uint256"
        }
      ],
      "payable": false,
      "stateMutability": "view",
      "type": "function"
    },
    {
      "constant": true,
      "inputs": [
        {
          "internalType": "address",
          "name": "",
          "type": "address"
        }
      ],
      "name": "lendingFeeTokensHeld",
      "outputs": [
        {
          "internalType": "uint256",
          "name": "",
          "type": "uint256"
        }
      ],
      "payable": false,
      "stateMutability": "view",
      "type": "function"
    },
    {
      "constant": true,
      "inputs": [
        {
          "internalType": "address",
          "name": "",
          "type": "address"
        }
      ],
      "name": "lendingFeeTokensPaid",
      "outputs": [
        {
          "internalType": "uint256",
          "name": "",
          "type": "uint256"
        }
      ],
      "payable": false,
      "stateMutability": "view",
      "type": "function"
    },
    {
      "constant": true,
      "inputs": [],
      "name": "liquidationIncentivePercent",
      "outputs": [
        {
          "internalType": "uint256",
          "name": "",
          "type": "uint256"
        }
      ],
      "payable": false,
      "stateMutability": "view",
      "type": "function"
    },
    {
      "constant": true,
      "inputs": [
        {
          "internalType": "bytes32",
          "name": "",
          "type": "bytes32"
        }
      ],
      "name": "loanInterest",
      "outputs": [
        {
          "internalType": "uint256",
          "name": "owedPerDay",
          "type": "uint256"
        },
        {
          "internalType": "uint256",
          "name": "depositTotal",
          "type": "uint256"
        },
        {
          "internalType": "uint256",
          "name": "updatedTimestamp",
          "type": "uint256"
        }
      ],
      "payable": false,
      "stateMutability": "view",
      "type": "function"
    },
    {
      "constant": true,
      "inputs": [
        {
          "internalType": "bytes32",
          "name": "",
          "type": "bytes32"
        }
      ],
      "name": "loanParams",
      "outputs": [
        {
          "internalType": "bytes32",
          "name": "id",
          "type": "bytes32"
        },
        {
          "internalType": "bool",
          "name": "active",
          "type": "bool"
        },
        {
          "internalType": "address",
          "name": "owner",
          "type": "address"
        },
        {
          "internalType": "address",
          "name": "loanToken",
          "type": "address"
        },
        {
          "internalType": "address",
          "name": "collateralToken",
          "type": "address"
        },
        {
          "internalType": "uint256",
          "name": "minInitialMargin",
          "type": "uint256"
        },
        {
          "internalType": "uint256",
          "name": "maintenanceMargin",
          "type": "uint256"
        },
        {
          "internalType": "uint256",
          "name": "maxLoanTerm",
          "type": "uint256"
        }
      ],
      "payable": false,
      "stateMutability": "view",
      "type": "function"
    },
    {
      "constant": true,
      "inputs": [
        {
          "internalType": "address",
          "name": "",
          "type": "address"
        }
      ],
      "name": "loanPoolToUnderlying",
      "outputs": [
        {
          "internalType": "address",
          "name": "",
          "type": "address"
        }
      ],
      "payable": false,
      "stateMutability": "view",
      "type": "function"
    },
    {
      "constant": true,
      "inputs": [
        {
          "internalType": "bytes32",
          "name": "",
          "type": "bytes32"
        }
      ],
      "name": "loans",
      "outputs": [
        {
          "internalType": "bytes32",
          "name": "id",
          "type": "bytes32"
        },
        {
          "internalType": "bytes32",
          "name": "loanParamsId",
          "type": "bytes32"
        },
        {
          "internalType": "bytes32",
          "name": "pendingTradesId",
          "type": "bytes32"
        },
        {
          "internalType": "bool",
          "name": "active",
          "type": "bool"
        },
        {
          "internalType": "uint256",
          "name": "principal",
          "type": "uint256"
        },
        {
          "internalType": "uint256",
          "name": "collateral",
          "type": "uint256"
        },
        {
          "internalType": "uint256",
          "name": "startTimestamp",
          "type": "uint256"
        },
        {
          "internalType": "uint256",
          "name": "endTimestamp",
          "type": "uint256"
        },
        {
          "internalType": "uint256",
          "name": "startMargin",
          "type": "uint256"
        },
        {
          "internalType": "uint256",
          "name": "startRate",
          "type": "uint256"
        },
        {
          "internalType": "address",
          "name": "borrower",
          "type": "address"
        },
        {
          "internalType": "address",
          "name": "lender",
          "type": "address"
        }
      ],
      "payable": false,
      "stateMutability": "view",
      "type": "function"
    },
    {
      "constant": true,
      "inputs": [],
      "name": "lockedSOVAddress",
      "outputs": [
        {
          "internalType": "address",
          "name": "",
          "type": "address"
        }
      ],
      "payable": false,
      "stateMutability": "view",
      "type": "function"
    },
    {
      "constant": true,
      "inputs": [
        {
          "internalType": "bytes4",
          "name": "",
          "type": "bytes4"
        }
      ],
      "name": "logicTargets",
      "outputs": [
        {
          "internalType": "address",
          "name": "",
          "type": "address"
        }
      ],
      "payable": false,
      "stateMutability": "view",
      "type": "function"
    },
    {
      "constant": true,
      "inputs": [],
      "name": "maxDisagreement",
      "outputs": [
        {
          "internalType": "uint256",
          "name": "",
          "type": "uint256"
        }
      ],
      "payable": false,
      "stateMutability": "view",
      "type": "function"
    },
    {
      "constant": true,
      "inputs": [],
      "name": "maxSwapSize",
      "outputs": [
        {
          "internalType": "uint256",
          "name": "",
          "type": "uint256"
        }
      ],
      "payable": false,
      "stateMutability": "view",
      "type": "function"
    },
    {
      "constant": true,
      "inputs": [],
      "name": "minReferralsToPayout",
      "outputs": [
        {
          "internalType": "uint256",
          "name": "",
          "type": "uint256"
        }
      ],
      "payable": false,
      "stateMutability": "view",
      "type": "function"
    },
    {
      "constant": true,
      "inputs": [],
      "name": "owner",
      "outputs": [
        {
          "internalType": "address",
          "name": "",
          "type": "address"
        }
      ],
      "payable": false,
      "stateMutability": "view",
      "type": "function"
    },
    {
      "constant": true,
      "inputs": [],
      "name": "pause",
      "outputs": [
        {
          "internalType": "bool",
          "name": "",
          "type": "bool"
        }
      ],
      "payable": false,
      "stateMutability": "view",
      "type": "function"
    },
    {
      "constant": true,
      "inputs": [],
      "name": "priceFeeds",
      "outputs": [
        {
          "internalType": "address",
          "name": "",
          "type": "address"
        }
      ],
      "payable": false,
      "stateMutability": "view",
      "type": "function"
    },
    {
      "constant": true,
      "inputs": [],
      "name": "protocolAddress",
      "outputs": [
        {
          "internalType": "address",
          "name": "",
          "type": "address"
        }
      ],
      "payable": false,
      "stateMutability": "view",
      "type": "function"
    },
    {
      "constant": true,
      "inputs": [],
      "name": "protocolTokenAddress",
      "outputs": [
        {
          "internalType": "address",
          "name": "",
          "type": "address"
        }
      ],
      "payable": false,
      "stateMutability": "view",
      "type": "function"
    },
    {
      "constant": true,
      "inputs": [],
      "name": "protocolTokenHeld",
      "outputs": [
        {
          "internalType": "uint256",
          "name": "",
          "type": "uint256"
        }
      ],
      "payable": false,
      "stateMutability": "view",
      "type": "function"
    },
    {
      "constant": true,
      "inputs": [],
      "name": "protocolTokenPaid",
      "outputs": [
        {
          "internalType": "uint256",
          "name": "",
          "type": "uint256"
        }
      ],
      "payable": false,
      "stateMutability": "view",
      "type": "function"
    },
    {
      "constant": true,
      "inputs": [],
      "name": "rolloverBaseReward",
      "outputs": [
        {
          "internalType": "uint256",
          "name": "",
          "type": "uint256"
        }
      ],
      "payable": false,
      "stateMutability": "view",
      "type": "function"
    },
    {
      "constant": true,
      "inputs": [],
      "name": "rolloverFlexFeePercent",
      "outputs": [
        {
          "internalType": "uint256",
          "name": "",
          "type": "uint256"
        }
      ],
      "payable": false,
      "stateMutability": "view",
      "type": "function"
    },
    {
      "constant": true,
      "inputs": [],
      "name": "sourceBuffer",
      "outputs": [
        {
          "internalType": "uint256",
          "name": "",
          "type": "uint256"
        }
      ],
      "payable": false,
      "stateMutability": "view",
      "type": "function"
    },
    {
      "constant": true,
      "inputs": [],
      "name": "sovTokenAddress",
      "outputs": [
        {
          "internalType": "address",
          "name": "",
          "type": "address"
        }
      ],
      "payable": false,
      "stateMutability": "view",
      "type": "function"
    },
    {
      "constant": true,
      "inputs": [],
      "name": "sovrynSwapContractRegistryAddress",
      "outputs": [
        {
          "internalType": "address",
          "name": "",
          "type": "address"
        }
      ],
      "payable": false,
      "stateMutability": "view",
      "type": "function"
    },
    {
      "constant": true,
      "inputs": [
        {
          "internalType": "address",
          "name": "",
          "type": "address"
        },
        {
          "internalType": "address",
          "name": "",
          "type": "address"
        }
      ],
      "name": "specialRebates",
      "outputs": [
        {
          "internalType": "uint256",
          "name": "",
          "type": "uint256"
        }
      ],
      "payable": false,
      "stateMutability": "view",
      "type": "function"
    },
    {
      "constant": true,
      "inputs": [
        {
          "internalType": "address",
          "name": "",
          "type": "address"
        }
      ],
      "name": "supportedTokens",
      "outputs": [
        {
          "internalType": "bool",
          "name": "",
          "type": "bool"
        }
      ],
      "payable": false,
      "stateMutability": "view",
      "type": "function"
    },
    {
      "constant": true,
      "inputs": [],
      "name": "swapsImpl",
      "outputs": [
        {
          "internalType": "address",
          "name": "",
          "type": "address"
        }
      ],
      "payable": false,
      "stateMutability": "view",
      "type": "function"
    },
    {
      "constant": true,
      "inputs": [
        {
          "internalType": "address",
          "name": "sourceTokenAddress",
          "type": "address"
        },
        {
          "internalType": "address",
          "name": "destTokenAddress",
          "type": "address"
        },
        {
          "internalType": "uint256",
          "name": "sourceTokenAmount",
          "type": "uint256"
        }
      ],
      "name": "swapsImplExpectedRate",
      "outputs": [
        {
          "internalType": "uint256",
          "name": "",
          "type": "uint256"
        }
      ],
      "payable": false,
      "stateMutability": "view",
      "type": "function"
    },
    {
      "constant": true,
      "inputs": [
        {
          "internalType": "address",
          "name": "sourceTokenAddress",
          "type": "address"
        },
        {
          "internalType": "address",
          "name": "destTokenAddress",
          "type": "address"
        },
        {
          "internalType": "uint256",
          "name": "sourceTokenAmount",
          "type": "uint256"
        }
      ],
      "name": "swapsImplExpectedReturn",
      "outputs": [
        {
          "internalType": "uint256",
          "name": "expectedReturn",
          "type": "uint256"
        }
      ],
      "payable": false,
      "stateMutability": "view",
      "type": "function"
    },
    {
      "constant": true,
      "inputs": [],
      "name": "tradingFeePercent",
      "outputs": [
        {
          "internalType": "uint256",
          "name": "",
          "type": "uint256"
        }
      ],
      "payable": false,
      "stateMutability": "view",
      "type": "function"
    },
    {
      "constant": true,
      "inputs": [
        {
          "internalType": "address",
          "name": "",
          "type": "address"
        }
      ],
      "name": "tradingFeeTokensHeld",
      "outputs": [
        {
          "internalType": "uint256",
          "name": "",
          "type": "uint256"
        }
      ],
      "payable": false,
      "stateMutability": "view",
      "type": "function"
    },
    {
      "constant": true,
      "inputs": [
        {
          "internalType": "address",
          "name": "",
          "type": "address"
        }
      ],
      "name": "tradingFeeTokensPaid",
      "outputs": [
        {
          "internalType": "uint256",
          "name": "",
          "type": "uint256"
        }
      ],
      "payable": false,
      "stateMutability": "view",
      "type": "function"
    },
    {
      "constant": false,
      "inputs": [
        {
          "internalType": "address",
          "name": "newOwner",
          "type": "address"
        }
      ],
      "name": "transferOwnership",
      "outputs": [],
      "payable": false,
      "stateMutability": "nonpayable",
      "type": "function"
    },
    {
      "constant": true,
      "inputs": [
        {
          "internalType": "address",
          "name": "",
          "type": "address"
        }
      ],
      "name": "underlyingToLoanPool",
      "outputs": [
        {
          "internalType": "address",
          "name": "",
          "type": "address"
        }
      ],
      "payable": false,
      "stateMutability": "view",
      "type": "function"
    },
    {
      "constant": true,
      "inputs": [
        {
          "internalType": "address",
          "name": "",
          "type": "address"
        }
      ],
      "name": "userNotFirstTradeFlag",
      "outputs": [
        {
          "internalType": "bool",
          "name": "",
          "type": "bool"
        }
      ],
      "payable": false,
      "stateMutability": "view",
      "type": "function"
    },
    {
      "constant": true,
      "inputs": [],
      "name": "wrbtcToken",
      "outputs": [
        {
          "internalType": "contract IWrbtcERC20",
          "name": "",
          "type": "address"
        }
      ],
      "payable": false,
      "stateMutability": "view",
      "type": "function"
    }
  ],
  "transactionHash": "0x9d135b4facc007715a6a9edc44f120381a469edf29a19ea518342db8bca21c0f",
  "args": [],
  "numDeployments": 1,
  "solcInputHash": "9310031b42d2950fea7a6220c73f2cc4",
  "bytecode": "0x60806040526001600055678ac7230489e80000601555670214e8348c4f000060185567013fbe85edc90000601b55674563918244f40000602055674563918244f40000602155674563918244f400006027556127106028556802b5e3af16b1880000602955650f478e084000602b5567016345785d8a0000602c556802b5e3af16b1880000602f5560036035556801158e460913d000006039553480156100a557600080fd5b5060006100b96001600160e01b0361010c16565b600180546001600160a01b0319166001600160a01b038316908117909155604051919250906000907f8be0079c531659141344cd1fd0a4f28419497f9722a3daafe3b4186f6b6457e0908290a350610110565b3390565b6117e48061011f6000396000f3fe608060405234801561001057600080fd5b50600436106103835760003560e01c80638dc48ba5116101de578063c4d66de81161010f578063e8f62764116100ad578063f589a3e71161007c578063f589a3e714610728578063f6ddc8b314610730578063f706b1f214610738578063f851a4401461074057610383565b8063e8f62764146106fd578063edab119f14610705578063f0e085f51461070d578063f2fde38b1461071557610383565b8063cd5d808d116100e9578063cd5d808d146106c7578063d288208c146106da578063d473c2da146106e2578063d485045e146106ea57610383565b8063c4d66de814610678578063ca83d5751461068d578063cb6eacd1146106a057610383565b8063b1fb7f561161017c578063b9cffa3e11610156578063b9cffa3e1461062a578063ba4861e914610632578063bdee453c1461063a578063c4a908151461064d57610383565b8063b1fb7f56146105f1578063b30643d914610604578063b7e152411461061757610383565b8063959083d3116101b8578063959083d3146105c4578063acc04348146105cc578063ae0a8530146105d4578063afe84009146105dc57610383565b80638dc48ba5146105965780638f32d59b146105a957806392d894f8146105b157610383565b80634699f846116102b85780637420ca3e1161025657806378d849ed1161023057806378d849ed146105765780637a8faeb81461057e5780638456cb59146105865780638da5cb5b1461058e57610383565b80637420ca3e14610553578063742e67981461055b578063784395fc1461056357610383565b8063574442cc11610292578063574442cc1461050157806362fff3f61461050957806368c4ac261461052d5780636e6637301461054057610383565b80634699f846146104cf5780634f28cac2146104d7578063569fc1fb146104df57610383565b80632a324027116103255780633452d2d4116102ff5780633452d2d4146104835780633fca506e146104965780634115a2b6146104a95780634203e395146104bc57610383565b80632a324027146104605780632f470764146104685780633432423c1461047057610383565b806317548b791161036157806317548b79146104075780631b7bde741461041a578063218b39c61461042d57806324cc57491461044057610383565b806305ef04ce146103a4578063065d810f146103cd5780630676c1b7146103f2575b60405162461bcd60e51b815260040161039b906115c8565b60405180910390fd5b6103b76103b23660046111bb565b610748565b6040516103c4919061144a565b60405180910390f35b6103e06103db366004611208565b6107de565b6040516103c49695949392919061163f565b6103fa61081e565b6040516103c49190611406565b6103fa610415366004611293565b61082d565b6103b7610428366004611181565b610848565b6103fa61043b366004611163565b610865565b61045361044e366004611163565b610880565b6040516103c4919061143c565b6103b7610895565b6103b761089b565b6103e061047e366004611208565b6108a1565b6103b7610491366004611163565b6108e1565b6103b76104a4366004611163565b6108f3565b6104536104b7366004611274565b610905565b6103b76104ca366004611163565b610925565b6103b7610937565b6103b761093d565b6104f26104ed366004611238565b610943565b6040516103c4939291906115d8565b6103b7610964565b61051c610517366004611181565b61096a565b6040516103c49594939291906115f3565b61045361053b366004611163565b6109a4565b6103fa61054e366004611163565b6109b9565b6103fa6109d4565b6103b76109e3565b6103b76105713660046111bb565b6109e9565b6103fa610a27565b6103b7610a36565b610453610a3c565b6103fa610a45565b6103fa6105a4366004611163565b610a54565b610453610a6f565b6103b76105bf366004611163565b610a95565b6103b7610aa7565b6103b7610aad565b6103b7610ab3565b6105e4610ab9565b6040516103c49190611582565b6103b76105ff3660046112cf565b610ac8565b6103b7610612366004611163565b610b58565b6103b7610625366004611163565b610b6a565b6103fa610b7c565b6103fa610b8b565b6103b7610648366004611163565b610b9a565b61066061065b366004611238565b610bac565b6040516103c49c9b9a999897969594939291906114cf565b61068b610686366004611163565b610c1e565b005b6105e461069b366004611163565b610d22565b6106b36106ae366004611238565b610dac565b6040516103c4989796959493929190611458565b6103b76106d5366004611181565b610dfe565b6103fa610e1b565b6103b7610e2a565b6103b76106f8366004611163565b610e30565b6103fa610e42565b6103b7610e51565b6103b7610e57565b61068b610723366004611163565b610e5d565b6103b7610e8d565b6103b7610e93565b6103fa610e99565b6103fa610ea8565b60405163809a9e5560e01b81526000907394D7CEE3Fe77432312e4faCf4dc416CA5Cd224a69063809a9e559061078690879087908790600401611414565b60206040518083038186803b15801561079e57600080fd5b505af41580156107b2573d6000803e3d6000fd5b505050506040513d601f19601f820116820180604052506107d69190810190611256565b949350505050565b6009602090815260009283526040808420909152908252902080546001820154600283015460038401546004850154600590950154939492939192909186565b6031546001600160a01b031681565b6005602052600090815260409020546001600160a01b031681565b603b60209081526000928352604080842090915290825290205481565b6023602052600090815260409020546001600160a01b031681565b60326020526000908152604090205460ff1681565b60185481565b601f5481565b6008602090815260009283526040808420909152908252902080546001820154600283015460038401546004850154600590950154939492939192909186565b601a6020526000908152604090205481565b602a6020526000908152604090205481565b600a60209081526000928352604080842090915290825290205460ff1681565b60166020526000908152604090205481565b60155481565b60295481565b600c6020526000908152604090208054600182015460029092015490919083565b602b5481565b600b602090815260009283526040808420909152908252902080546001820154600283015460038401546004909401549293919290919085565b60266020526000908152604090205460ff1681565b6033602052600090815260409020546001600160a01b031681565b6003546001600160a01b031681565b60355481565b604051636dcd64e560e01b81526000907394D7CEE3Fe77432312e4faCf4dc416CA5Cd224a690636dcd64e59061078690879087908790600401611414565b6002546001600160a01b031681565b601e5481565b603d5460ff1681565b6001546001600160a01b031690565b6022602052600090815260409020546001600160a01b031681565b6001546000906001600160a01b0316610a86610eb7565b6001600160a01b031614905090565b60176020526000908152604090205481565b602c5481565b602f5481565b60205481565b602d546001600160a01b031681565b6040516358fdbfab60e11b81526000907394D7CEE3Fe77432312e4faCf4dc416CA5Cd224a69063b1fb7f5690610b02908590600401611590565b60206040518083038186803b158015610b1a57600080fd5b505af4158015610b2e573d6000803e3d6000fd5b505050506040513d601f19601f82011682018060405250610b529190810190611256565b92915050565b601d6020526000908152604090205481565b601c6020526000908152604090205481565b6037546001600160a01b031681565b6004546001600160a01b031681565b60366020526000908152604090205481565b600660208190526000918252604090912080546001820154600283015460038401546004850154600586015496860154600787015460088801546009890154600a8a0154600b909a0154989a9799969860ff909616979496949593949293919290916001600160a01b0391821691168c565b610c26610a6f565b610c425760405162461bcd60e51b815260040161039b906115b8565b63ca83d57560e01b600081905260056020527f34b72ed36762f2d025ab2273fe2f1cb50c5bd0ef82cc2d00735546b9737bb8ff546001600160a01b031690610c8a9083610ebb565b610c9b6358fdbfab60e11b83610ebb565b610cac6302f7826760e11b83610ebb565b610cbd631e10e57f60e21b83610ebb565b7f5377617073496d706c536f7672796e537761704d6f64756c6500000000000000826001600160a01b0316826001600160a01b03167f1420e3a2094d671bc2eb897941fa3d94ffa37f0cb6d530651946250a2151cb7f60405160405180910390a45050565b60405163ca83d57560e01b81526000907394D7CEE3Fe77432312e4faCf4dc416CA5Cd224a69063ca83d57590610d5c908590600401611406565b60206040518083038186803b158015610d7457600080fd5b505af4158015610d88573d6000803e3d6000fd5b505050506040513d601f19601f82011682018060405250610b5291908101906112b1565b6007602052600090815260409020805460018201546002830154600384015460048501546005860154600690960154949560ff8516956101009095046001600160a01b03908116959481169493169288565b603c60209081526000928352604080842090915290825290205481565b6038546001600160a01b031681565b60275481565b60196020526000908152604090205481565b6014546001600160a01b031681565b601b5481565b60285481565b610e65610a6f565b610e815760405162461bcd60e51b815260040161039b906115b8565b610e8a81610f37565b50565b60395481565b60215481565b602e546001600160a01b031681565b6030546001600160a01b031681565b3390565b6001600160e01b03198216600090815260056020526040902080546001600160a01b0319166001600160a01b03831690811790915515610f1657610f10600d6001600160e01b0319841663ffffffff610fb916565b50610f33565b610f31600d6001600160e01b0319841663ffffffff61100216565b505b5050565b6001600160a01b038116610f5d5760405162461bcd60e51b815260040161039b906115a8565b6001546040516001600160a01b038084169216907f8be0079c531659141344cd1fd0a4f28419497f9722a3daafe3b4186f6b6457e090600090a3600180546001600160a01b0319166001600160a01b0392909216919091179055565b6000610fc583836110c3565b610ff95750600180830180548083018083556000928352602080842090920185905584835290859052604090912055610b52565b50600092915050565b600061100e83836110c3565b15610ff9576000828152602084905260409020546001840154600019918201910180821461108657600085600101828154811061104757fe5b906000526020600020015490508086600101848154811061106457fe5b6000918252602080832090910192909255918252869052604090206001830190555b600084815260208690526040812055600185018054806110a257fe5b60019003818190600052602060002001600090559055600192505050610b52565b60009081526020919091526040902054151590565b8035610b5281611772565b8035610b5281611786565b8051610b5281611786565b8035610b528161178f565b8051610b5281611798565b600082601f83011261112057600080fd5b813561113361112e826116c0565b611699565b9150808252602083016020830185838301111561114f57600080fd5b61115a83828461172c565b50505092915050565b60006020828403121561117557600080fd5b60006107d684846110d8565b6000806040838503121561119457600080fd5b60006111a085856110d8565b92505060206111b1858286016110d8565b9150509250929050565b6000806000606084860312156111d057600080fd5b60006111dc86866110d8565b93505060206111ed868287016110d8565b92505060406111fe868287016110e3565b9150509250925092565b6000806040838503121561121b57600080fd5b600061122785856110d8565b92505060206111b1858286016110e3565b60006020828403121561124a57600080fd5b60006107d684846110e3565b60006020828403121561126857600080fd5b60006107d684846110ee565b6000806040838503121561128757600080fd5b60006111a085856110e3565b6000602082840312156112a557600080fd5b60006107d684846110f9565b6000602082840312156112c357600080fd5b60006107d68484611104565b6000602082840312156112e157600080fd5b813567ffffffffffffffff8111156112f857600080fd5b6107d68482850161110f565b61130d816116f5565b82525050565b61130d81611700565b61130d81611705565b61130d81611715565b6000611339826116e8565b61134381856116ec565b9350611353818560208601611738565b61135c81611768565b9093019392505050565b60006113736026836116ec565b7f4f776e61626c653a206e6577206f776e657220697320746865207a65726f206181526564647265737360d01b602082015260400192915050565b60006113bb600c836116ec565b6b1d5b985d5d1a1bdc9a5e995960a21b815260200192915050565b60006113e36014836116ec565b7319985b1b189858dac81b9bdd08185b1b1bddd95960621b815260200192915050565b60208101610b528284611304565b606081016114228286611304565b61142f6020830185611304565b6107d6604083018461131c565b60208101610b528284611313565b60208101610b52828461131c565b6101008101611467828b61131c565b611474602083018a611313565b6114816040830189611304565b61148e6060830188611304565b61149b6080830187611304565b6114a860a083018661131c565b6114b560c083018561131c565b6114c260e083018461131c565b9998505050505050505050565b61018081016114de828f61131c565b6114eb602083018e61131c565b6114f8604083018d61131c565b611505606083018c611313565b611512608083018b61131c565b61151f60a083018a61131c565b61152c60c083018961131c565b61153960e083018861131c565b61154761010083018761131c565b61155561012083018661131c565b611563610140830185611304565b611571610160830184611304565b9d9c50505050505050505050505050565b60208101610b528284611325565b602080825281016115a1818461132e565b9392505050565b60208082528101610b5281611366565b60208082528101610b52816113ae565b60208082528101610b52816113d6565b606081016115e6828661131c565b61142f602083018561131c565b60a08101611601828861131c565b61160e602083018761131c565b61161b604083018661131c565b611628606083018561131c565b611635608083018461131c565b9695505050505050565b60c0810161164d828961131c565b61165a602083018861131c565b611667604083018761131c565b611674606083018661131c565b611681608083018561131c565b61168e60a083018461131c565b979650505050505050565b60405181810167ffffffffffffffff811182821017156116b857600080fd5b604052919050565b600067ffffffffffffffff8211156116d757600080fd5b506020601f91909101601f19160190565b5190565b90815260200190565b6000610b5282611720565b151590565b90565b6001600160e01b03191690565b6000610b52826116f5565b6001600160a01b031690565b82818337506000910152565b60005b8381101561175357818101518382015260200161173b565b83811115611762576000848401525b50505050565b601f01601f191690565b61177b816116f5565b8114610e8a57600080fd5b61177b81611705565b61177b81611708565b61177b8161171556fea365627a7a72315820446561aaed3e44aafe4c9491f1dd4004e1470d5ce2d928b19d7924a3c331ea796c6578706572696d656e74616cf564736f6c63430005110040",
  "deployedBytecode": "0x608060405234801561001057600080fd5b50600436106103835760003560e01c80638dc48ba5116101de578063c4d66de81161010f578063e8f62764116100ad578063f589a3e71161007c578063f589a3e714610728578063f6ddc8b314610730578063f706b1f214610738578063f851a4401461074057610383565b8063e8f62764146106fd578063edab119f14610705578063f0e085f51461070d578063f2fde38b1461071557610383565b8063cd5d808d116100e9578063cd5d808d146106c7578063d288208c146106da578063d473c2da146106e2578063d485045e146106ea57610383565b8063c4d66de814610678578063ca83d5751461068d578063cb6eacd1146106a057610383565b8063b1fb7f561161017c578063b9cffa3e11610156578063b9cffa3e1461062a578063ba4861e914610632578063bdee453c1461063a578063c4a908151461064d57610383565b8063b1fb7f56146105f1578063b30643d914610604578063b7e152411461061757610383565b8063959083d3116101b8578063959083d3146105c4578063acc04348146105cc578063ae0a8530146105d4578063afe84009146105dc57610383565b80638dc48ba5146105965780638f32d59b146105a957806392d894f8146105b157610383565b80634699f846116102b85780637420ca3e1161025657806378d849ed1161023057806378d849ed146105765780637a8faeb81461057e5780638456cb59146105865780638da5cb5b1461058e57610383565b80637420ca3e14610553578063742e67981461055b578063784395fc1461056357610383565b8063574442cc11610292578063574442cc1461050157806362fff3f61461050957806368c4ac261461052d5780636e6637301461054057610383565b80634699f846146104cf5780634f28cac2146104d7578063569fc1fb146104df57610383565b80632a324027116103255780633452d2d4116102ff5780633452d2d4146104835780633fca506e146104965780634115a2b6146104a95780634203e395146104bc57610383565b80632a324027146104605780632f470764146104685780633432423c1461047057610383565b806317548b791161036157806317548b79146104075780631b7bde741461041a578063218b39c61461042d57806324cc57491461044057610383565b806305ef04ce146103a4578063065d810f146103cd5780630676c1b7146103f2575b60405162461bcd60e51b815260040161039b906115c8565b60405180910390fd5b6103b76103b23660046111bb565b610748565b6040516103c4919061144a565b60405180910390f35b6103e06103db366004611208565b6107de565b6040516103c49695949392919061163f565b6103fa61081e565b6040516103c49190611406565b6103fa610415366004611293565b61082d565b6103b7610428366004611181565b610848565b6103fa61043b366004611163565b610865565b61045361044e366004611163565b610880565b6040516103c4919061143c565b6103b7610895565b6103b761089b565b6103e061047e366004611208565b6108a1565b6103b7610491366004611163565b6108e1565b6103b76104a4366004611163565b6108f3565b6104536104b7366004611274565b610905565b6103b76104ca366004611163565b610925565b6103b7610937565b6103b761093d565b6104f26104ed366004611238565b610943565b6040516103c4939291906115d8565b6103b7610964565b61051c610517366004611181565b61096a565b6040516103c49594939291906115f3565b61045361053b366004611163565b6109a4565b6103fa61054e366004611163565b6109b9565b6103fa6109d4565b6103b76109e3565b6103b76105713660046111bb565b6109e9565b6103fa610a27565b6103b7610a36565b610453610a3c565b6103fa610a45565b6103fa6105a4366004611163565b610a54565b610453610a6f565b6103b76105bf366004611163565b610a95565b6103b7610aa7565b6103b7610aad565b6103b7610ab3565b6105e4610ab9565b6040516103c49190611582565b6103b76105ff3660046112cf565b610ac8565b6103b7610612366004611163565b610b58565b6103b7610625366004611163565b610b6a565b6103fa610b7c565b6103fa610b8b565b6103b7610648366004611163565b610b9a565b61066061065b366004611238565b610bac565b6040516103c49c9b9a999897969594939291906114cf565b61068b610686366004611163565b610c1e565b005b6105e461069b366004611163565b610d22565b6106b36106ae366004611238565b610dac565b6040516103c4989796959493929190611458565b6103b76106d5366004611181565b610dfe565b6103fa610e1b565b6103b7610e2a565b6103b76106f8366004611163565b610e30565b6103fa610e42565b6103b7610e51565b6103b7610e57565b61068b610723366004611163565b610e5d565b6103b7610e8d565b6103b7610e93565b6103fa610e99565b6103fa610ea8565b60405163809a9e5560e01b815260009073__$6b3065420287e4be5d93089ad806c078e3$__9063809a9e559061078690879087908790600401611414565b60206040518083038186803b15801561079e57600080fd5b505af41580156107b2573d6000803e3d6000fd5b505050506040513d601f19601f820116820180604052506107d69190810190611256565b949350505050565b6009602090815260009283526040808420909152908252902080546001820154600283015460038401546004850154600590950154939492939192909186565b6031546001600160a01b031681565b6005602052600090815260409020546001600160a01b031681565b603b60209081526000928352604080842090915290825290205481565b6023602052600090815260409020546001600160a01b031681565b60326020526000908152604090205460ff1681565b60185481565b601f5481565b6008602090815260009283526040808420909152908252902080546001820154600283015460038401546004850154600590950154939492939192909186565b601a6020526000908152604090205481565b602a6020526000908152604090205481565b600a60209081526000928352604080842090915290825290205460ff1681565b60166020526000908152604090205481565b60155481565b60295481565b600c6020526000908152604090208054600182015460029092015490919083565b602b5481565b600b602090815260009283526040808420909152908252902080546001820154600283015460038401546004909401549293919290919085565b60266020526000908152604090205460ff1681565b6033602052600090815260409020546001600160a01b031681565b6003546001600160a01b031681565b60355481565b604051636dcd64e560e01b815260009073__$6b3065420287e4be5d93089ad806c078e3$__90636dcd64e59061078690879087908790600401611414565b6002546001600160a01b031681565b601e5481565b603d5460ff1681565b6001546001600160a01b031690565b6022602052600090815260409020546001600160a01b031681565b6001546000906001600160a01b0316610a86610eb7565b6001600160a01b031614905090565b60176020526000908152604090205481565b602c5481565b602f5481565b60205481565b602d546001600160a01b031681565b6040516358fdbfab60e11b815260009073__$6b3065420287e4be5d93089ad806c078e3$__9063b1fb7f5690610b02908590600401611590565b60206040518083038186803b158015610b1a57600080fd5b505af4158015610b2e573d6000803e3d6000fd5b505050506040513d601f19601f82011682018060405250610b529190810190611256565b92915050565b601d6020526000908152604090205481565b601c6020526000908152604090205481565b6037546001600160a01b031681565b6004546001600160a01b031681565b60366020526000908152604090205481565b600660208190526000918252604090912080546001820154600283015460038401546004850154600586015496860154600787015460088801546009890154600a8a0154600b909a0154989a9799969860ff909616979496949593949293919290916001600160a01b0391821691168c565b610c26610a6f565b610c425760405162461bcd60e51b815260040161039b906115b8565b63ca83d57560e01b600081905260056020527f34b72ed36762f2d025ab2273fe2f1cb50c5bd0ef82cc2d00735546b9737bb8ff546001600160a01b031690610c8a9083610ebb565b610c9b6358fdbfab60e11b83610ebb565b610cac6302f7826760e11b83610ebb565b610cbd631e10e57f60e21b83610ebb565b7f5377617073496d706c536f7672796e537761704d6f64756c6500000000000000826001600160a01b0316826001600160a01b03167f1420e3a2094d671bc2eb897941fa3d94ffa37f0cb6d530651946250a2151cb7f60405160405180910390a45050565b60405163ca83d57560e01b815260009073__$6b3065420287e4be5d93089ad806c078e3$__9063ca83d57590610d5c908590600401611406565b60206040518083038186803b158015610d7457600080fd5b505af4158015610d88573d6000803e3d6000fd5b505050506040513d601f19601f82011682018060405250610b5291908101906112b1565b6007602052600090815260409020805460018201546002830154600384015460048501546005860154600690960154949560ff8516956101009095046001600160a01b03908116959481169493169288565b603c60209081526000928352604080842090915290825290205481565b6038546001600160a01b031681565b60275481565b60196020526000908152604090205481565b6014546001600160a01b031681565b601b5481565b60285481565b610e65610a6f565b610e815760405162461bcd60e51b815260040161039b906115b8565b610e8a81610f37565b50565b60395481565b60215481565b602e546001600160a01b031681565b6030546001600160a01b031681565b3390565b6001600160e01b03198216600090815260056020526040902080546001600160a01b0319166001600160a01b03831690811790915515610f1657610f10600d6001600160e01b0319841663ffffffff610fb916565b50610f33565b610f31600d6001600160e01b0319841663ffffffff61100216565b505b5050565b6001600160a01b038116610f5d5760405162461bcd60e51b815260040161039b906115a8565b6001546040516001600160a01b038084169216907f8be0079c531659141344cd1fd0a4f28419497f9722a3daafe3b4186f6b6457e090600090a3600180546001600160a01b0319166001600160a01b0392909216919091179055565b6000610fc583836110c3565b610ff95750600180830180548083018083556000928352602080842090920185905584835290859052604090912055610b52565b50600092915050565b600061100e83836110c3565b15610ff9576000828152602084905260409020546001840154600019918201910180821461108657600085600101828154811061104757fe5b906000526020600020015490508086600101848154811061106457fe5b6000918252602080832090910192909255918252869052604090206001830190555b600084815260208690526040812055600185018054806110a257fe5b60019003818190600052602060002001600090559055600192505050610b52565b60009081526020919091526040902054151590565b8035610b5281611772565b8035610b5281611786565b8051610b5281611786565b8035610b528161178f565b8051610b5281611798565b600082601f83011261112057600080fd5b813561113361112e826116c0565b611699565b9150808252602083016020830185838301111561114f57600080fd5b61115a83828461172c565b50505092915050565b60006020828403121561117557600080fd5b60006107d684846110d8565b6000806040838503121561119457600080fd5b60006111a085856110d8565b92505060206111b1858286016110d8565b9150509250929050565b6000806000606084860312156111d057600080fd5b60006111dc86866110d8565b93505060206111ed868287016110d8565b92505060406111fe868287016110e3565b9150509250925092565b6000806040838503121561121b57600080fd5b600061122785856110d8565b92505060206111b1858286016110e3565b60006020828403121561124a57600080fd5b60006107d684846110e3565b60006020828403121561126857600080fd5b60006107d684846110ee565b6000806040838503121561128757600080fd5b60006111a085856110e3565b6000602082840312156112a557600080fd5b60006107d684846110f9565b6000602082840312156112c357600080fd5b60006107d68484611104565b6000602082840312156112e157600080fd5b813567ffffffffffffffff8111156112f857600080fd5b6107d68482850161110f565b61130d816116f5565b82525050565b61130d81611700565b61130d81611705565b61130d81611715565b6000611339826116e8565b61134381856116ec565b9350611353818560208601611738565b61135c81611768565b9093019392505050565b60006113736026836116ec565b7f4f776e61626c653a206e6577206f776e657220697320746865207a65726f206181526564647265737360d01b602082015260400192915050565b60006113bb600c836116ec565b6b1d5b985d5d1a1bdc9a5e995960a21b815260200192915050565b60006113e36014836116ec565b7319985b1b189858dac81b9bdd08185b1b1bddd95960621b815260200192915050565b60208101610b528284611304565b606081016114228286611304565b61142f6020830185611304565b6107d6604083018461131c565b60208101610b528284611313565b60208101610b52828461131c565b6101008101611467828b61131c565b611474602083018a611313565b6114816040830189611304565b61148e6060830188611304565b61149b6080830187611304565b6114a860a083018661131c565b6114b560c083018561131c565b6114c260e083018461131c565b9998505050505050505050565b61018081016114de828f61131c565b6114eb602083018e61131c565b6114f8604083018d61131c565b611505606083018c611313565b611512608083018b61131c565b61151f60a083018a61131c565b61152c60c083018961131c565b61153960e083018861131c565b61154761010083018761131c565b61155561012083018661131c565b611563610140830185611304565b611571610160830184611304565b9d9c50505050505050505050505050565b60208101610b528284611325565b602080825281016115a1818461132e565b9392505050565b60208082528101610b5281611366565b60208082528101610b52816113ae565b60208082528101610b52816113d6565b606081016115e6828661131c565b61142f602083018561131c565b60a08101611601828861131c565b61160e602083018761131c565b61161b604083018661131c565b611628606083018561131c565b611635608083018461131c565b9695505050505050565b60c0810161164d828961131c565b61165a602083018861131c565b611667604083018761131c565b611674606083018661131c565b611681608083018561131c565b61168e60a083018461131c565b979650505050505050565b60405181810167ffffffffffffffff811182821017156116b857600080fd5b604052919050565b600067ffffffffffffffff8211156116d757600080fd5b506020601f91909101601f19160190565b5190565b90815260200190565b6000610b5282611720565b151590565b90565b6001600160e01b03191690565b6000610b52826116f5565b6001600160a01b031690565b82818337506000910152565b60005b8381101561175357818101518382015260200161173b565b83811115611762576000848401525b50505050565b601f01601f191690565b61177b816116f5565b8114610e8a57600080fd5b61177b81611705565b61177b81611708565b61177b8161171556fea365627a7a72315820446561aaed3e44aafe4c9491f1dd4004e1470d5ce2d928b19d7924a3c331ea796c6578706572696d656e74616cf564736f6c63430005110040",
  "libraries": {
    "SwapsImplSovrynSwapLib": "0x94D7CEE3Fe77432312e4faCf4dc416CA5Cd224a6"
  },
  "devdoc": {
    "methods": {
      "getContractHexName(string)": {
        "params": {
          "source": "The name of the contract."
        }
      },
      "getSovrynSwapNetworkContract(address)": {
        "params": {
          "sovrynSwapRegistryAddress": "The address of the registry."
        }
      },
      "initialize(address)": {
        "params": {
          "target": "The address of the target contract."
        }
      },
      "isOwner()": {
        "details": "Returns true if the caller is the current owner."
      },
      "owner()": {
        "details": "Returns the address of the current owner."
      },
      "swapsImplExpectedRate(address,address,uint256)": {
        "params": {
          "destTokenAddress": "The address of the destination token contract.",
          "sourceTokenAddress": "The address of the source token contract.",
          "sourceTokenAmount": "The amount of source tokens to get the rate for."
        }
      },
      "swapsImplExpectedReturn(address,address,uint256)": {
        "params": {
          "destTokenAddress": "The address of the destination token contract.",
          "sourceTokenAddress": "The address of the source token contract.",
          "sourceTokenAmount": "The amount of source tokens to get the return for."
        }
      },
      "transferOwnership(address)": {
        "details": "Transfers ownership of the contract to a new account (`newOwner`). Can only be called by the current owner."
      }
    }
  },
  "userdoc": {
    "methods": {
      "constructor": "Empty public constructor.",
      "getContractHexName(string)": {
        "notice": "Get the hex name of a contract."
      },
      "getSovrynSwapNetworkContract(address)": {
        "notice": "Look up the Sovryn swap network contract registered at the given address."
      },
      "initialize(address)": {
        "notice": "Set function selectors on target contract."
      },
      "swapsImplExpectedRate(address,address,uint256)": {
        "notice": "Get the expected rate for 1 source token when exchanging the  given amount of source tokens."
      },
      "swapsImplExpectedReturn(address,address,uint256)": {
        "notice": "Get the expected return amount when exchanging the given  amount of source tokens.Right now, this function is being called directly by _swapsExpectedReturn from the protocol So, this function is not using _getConversionPath function since it will try to read the defaultPath storage which is stored in the protocol's slot, and it will cause an issue for direct call. Instead, this function is accepting additional parameters called defaultPath which value can be declared by the caller (protocol in this case)."
      }
    }
  },
  "storageLayout": {
    "storage": [
      {
        "astId": 54790,
        "contract": "contracts/modules/SwapsImplSovrynSwapModule.sol:SwapsImplSovrynSwapModule",
        "label": "reentrancyLock",
        "offset": 0,
        "slot": "0",
        "type": "t_uint256"
      },
      {
        "astId": 54606,
        "contract": "contracts/modules/SwapsImplSovrynSwapModule.sol:SwapsImplSovrynSwapModule",
        "label": "_owner",
        "offset": 0,
        "slot": "1",
        "type": "t_address"
      },
      {
        "astId": 6188,
        "contract": "contracts/modules/SwapsImplSovrynSwapModule.sol:SwapsImplSovrynSwapModule",
        "label": "priceFeeds",
        "offset": 0,
        "slot": "2",
        "type": "t_address"
      },
      {
        "astId": 6190,
        "contract": "contracts/modules/SwapsImplSovrynSwapModule.sol:SwapsImplSovrynSwapModule",
        "label": "swapsImpl",
        "offset": 0,
        "slot": "3",
        "type": "t_address"
      },
      {
        "astId": 6192,
        "contract": "contracts/modules/SwapsImplSovrynSwapModule.sol:SwapsImplSovrynSwapModule",
        "label": "sovrynSwapContractRegistryAddress",
        "offset": 0,
        "slot": "4",
        "type": "t_address"
      },
      {
        "astId": 6196,
        "contract": "contracts/modules/SwapsImplSovrynSwapModule.sol:SwapsImplSovrynSwapModule",
        "label": "logicTargets",
        "offset": 0,
        "slot": "5",
        "type": "t_mapping(t_bytes4,t_address)"
      },
      {
        "astId": 6200,
        "contract": "contracts/modules/SwapsImplSovrynSwapModule.sol:SwapsImplSovrynSwapModule",
        "label": "loans",
        "offset": 0,
        "slot": "6",
        "type": "t_mapping(t_bytes32,t_struct(Loan)6566_storage)"
      },
      {
        "astId": 6204,
        "contract": "contracts/modules/SwapsImplSovrynSwapModule.sol:SwapsImplSovrynSwapModule",
        "label": "loanParams",
        "offset": 0,
        "slot": "7",
        "type": "t_mapping(t_bytes32,t_struct(LoanParams)6538_storage)"
      },
      {
        "astId": 6210,
        "contract": "contracts/modules/SwapsImplSovrynSwapModule.sol:SwapsImplSovrynSwapModule",
        "label": "lenderOrders",
        "offset": 0,
        "slot": "8",
        "type": "t_mapping(t_address,t_mapping(t_bytes32,t_struct(Order)6582_storage))"
      },
      {
        "astId": 6216,
        "contract": "contracts/modules/SwapsImplSovrynSwapModule.sol:SwapsImplSovrynSwapModule",
        "label": "borrowerOrders",
        "offset": 0,
        "slot": "9",
        "type": "t_mapping(t_address,t_mapping(t_bytes32,t_struct(Order)6582_storage))"
      },
      {
        "astId": 6222,
        "contract": "contracts/modules/SwapsImplSovrynSwapModule.sol:SwapsImplSovrynSwapModule",
        "label": "delegatedManagers",
        "offset": 0,
        "slot": "10",
        "type": "t_mapping(t_bytes32,t_mapping(t_address,t_bool))"
      },
      {
        "astId": 6228,
        "contract": "contracts/modules/SwapsImplSovrynSwapModule.sol:SwapsImplSovrynSwapModule",
        "label": "lenderInterest",
        "offset": 0,
        "slot": "11",
        "type": "t_mapping(t_address,t_mapping(t_address,t_struct(LenderInterest)6508_storage))"
      },
      {
        "astId": 6232,
        "contract": "contracts/modules/SwapsImplSovrynSwapModule.sol:SwapsImplSovrynSwapModule",
        "label": "loanInterest",
        "offset": 0,
        "slot": "12",
        "type": "t_mapping(t_bytes32,t_struct(LoanInterest)6518_storage)"
      },
      {
        "astId": 6234,
        "contract": "contracts/modules/SwapsImplSovrynSwapModule.sol:SwapsImplSovrynSwapModule",
        "label": "logicTargetsSet",
        "offset": 0,
        "slot": "13",
        "type": "t_struct(Bytes32Set)36272_storage"
      },
      {
        "astId": 6236,
        "contract": "contracts/modules/SwapsImplSovrynSwapModule.sol:SwapsImplSovrynSwapModule",
        "label": "activeLoansSet",
        "offset": 0,
        "slot": "15",
        "type": "t_struct(Bytes32Set)36272_storage"
      },
      {
        "astId": 6240,
        "contract": "contracts/modules/SwapsImplSovrynSwapModule.sol:SwapsImplSovrynSwapModule",
        "label": "lenderLoanSets",
        "offset": 0,
        "slot": "17",
        "type": "t_mapping(t_address,t_struct(Bytes32Set)36272_storage)"
      },
      {
        "astId": 6244,
        "contract": "contracts/modules/SwapsImplSovrynSwapModule.sol:SwapsImplSovrynSwapModule",
        "label": "borrowerLoanSets",
        "offset": 0,
        "slot": "18",
        "type": "t_mapping(t_address,t_struct(Bytes32Set)36272_storage)"
      },
      {
        "astId": 6248,
        "contract": "contracts/modules/SwapsImplSovrynSwapModule.sol:SwapsImplSovrynSwapModule",
        "label": "userLoanParamSets",
        "offset": 0,
        "slot": "19",
        "type": "t_mapping(t_address,t_struct(Bytes32Set)36272_storage)"
      },
      {
        "astId": 6250,
        "contract": "contracts/modules/SwapsImplSovrynSwapModule.sol:SwapsImplSovrynSwapModule",
        "label": "feesController",
        "offset": 0,
        "slot": "20",
        "type": "t_address"
      },
      {
        "astId": 6255,
        "contract": "contracts/modules/SwapsImplSovrynSwapModule.sol:SwapsImplSovrynSwapModule",
        "label": "lendingFeePercent",
        "offset": 0,
        "slot": "21",
        "type": "t_uint256"
      },
      {
        "astId": 6259,
        "contract": "contracts/modules/SwapsImplSovrynSwapModule.sol:SwapsImplSovrynSwapModule",
        "label": "lendingFeeTokensHeld",
        "offset": 0,
        "slot": "22",
        "type": "t_mapping(t_address,t_uint256)"
      },
      {
        "astId": 6263,
        "contract": "contracts/modules/SwapsImplSovrynSwapModule.sol:SwapsImplSovrynSwapModule",
        "label": "lendingFeeTokensPaid",
        "offset": 0,
        "slot": "23",
        "type": "t_mapping(t_address,t_uint256)"
      },
      {
        "astId": 6270,
        "contract": "contracts/modules/SwapsImplSovrynSwapModule.sol:SwapsImplSovrynSwapModule",
        "label": "tradingFeePercent",
        "offset": 0,
        "slot": "24",
        "type": "t_uint256"
      },
      {
        "astId": 6274,
        "contract": "contracts/modules/SwapsImplSovrynSwapModule.sol:SwapsImplSovrynSwapModule",
        "label": "tradingFeeTokensHeld",
        "offset": 0,
        "slot": "25",
        "type": "t_mapping(t_address,t_uint256)"
      },
      {
        "astId": 6278,
        "contract": "contracts/modules/SwapsImplSovrynSwapModule.sol:SwapsImplSovrynSwapModule",
        "label": "tradingFeeTokensPaid",
        "offset": 0,
        "slot": "26",
        "type": "t_mapping(t_address,t_uint256)"
      },
      {
        "astId": 6285,
        "contract": "contracts/modules/SwapsImplSovrynSwapModule.sol:SwapsImplSovrynSwapModule",
        "label": "borrowingFeePercent",
        "offset": 0,
        "slot": "27",
        "type": "t_uint256"
      },
      {
        "astId": 6289,
        "contract": "contracts/modules/SwapsImplSovrynSwapModule.sol:SwapsImplSovrynSwapModule",
        "label": "borrowingFeeTokensHeld",
        "offset": 0,
        "slot": "28",
        "type": "t_mapping(t_address,t_uint256)"
      },
      {
        "astId": 6293,
        "contract": "contracts/modules/SwapsImplSovrynSwapModule.sol:SwapsImplSovrynSwapModule",
        "label": "borrowingFeeTokensPaid",
        "offset": 0,
        "slot": "29",
        "type": "t_mapping(t_address,t_uint256)"
      },
      {
        "astId": 6295,
        "contract": "contracts/modules/SwapsImplSovrynSwapModule.sol:SwapsImplSovrynSwapModule",
        "label": "protocolTokenHeld",
        "offset": 0,
        "slot": "30",
        "type": "t_uint256"
      },
      {
        "astId": 6297,
        "contract": "contracts/modules/SwapsImplSovrynSwapModule.sol:SwapsImplSovrynSwapModule",
        "label": "protocolTokenPaid",
        "offset": 0,
        "slot": "31",
        "type": "t_uint256"
      },
      {
        "astId": 6304,
        "contract": "contracts/modules/SwapsImplSovrynSwapModule.sol:SwapsImplSovrynSwapModule",
        "label": "affiliateFeePercent",
        "offset": 0,
        "slot": "32",
        "type": "t_uint256"
      },
      {
        "astId": 6311,
        "contract": "contracts/modules/SwapsImplSovrynSwapModule.sol:SwapsImplSovrynSwapModule",
        "label": "liquidationIncentivePercent",
        "offset": 0,
        "slot": "33",
        "type": "t_uint256"
      },
      {
        "astId": 6315,
        "contract": "contracts/modules/SwapsImplSovrynSwapModule.sol:SwapsImplSovrynSwapModule",
        "label": "loanPoolToUnderlying",
        "offset": 0,
        "slot": "34",
        "type": "t_mapping(t_address,t_address)"
      },
      {
        "astId": 6319,
        "contract": "contracts/modules/SwapsImplSovrynSwapModule.sol:SwapsImplSovrynSwapModule",
        "label": "underlyingToLoanPool",
        "offset": 0,
        "slot": "35",
        "type": "t_mapping(t_address,t_address)"
      },
      {
        "astId": 6321,
        "contract": "contracts/modules/SwapsImplSovrynSwapModule.sol:SwapsImplSovrynSwapModule",
        "label": "loanPoolsSet",
        "offset": 0,
        "slot": "36",
        "type": "t_struct(Bytes32Set)36272_storage"
      },
      {
        "astId": 6325,
        "contract": "contracts/modules/SwapsImplSovrynSwapModule.sol:SwapsImplSovrynSwapModule",
        "label": "supportedTokens",
        "offset": 0,
        "slot": "38",
        "type": "t_mapping(t_address,t_bool)"
      },
      {
        "astId": 6332,
        "contract": "contracts/modules/SwapsImplSovrynSwapModule.sol:SwapsImplSovrynSwapModule",
        "label": "maxDisagreement",
        "offset": 0,
        "slot": "39",
        "type": "t_uint256"
      },
      {
        "astId": 6335,
        "contract": "contracts/modules/SwapsImplSovrynSwapModule.sol:SwapsImplSovrynSwapModule",
        "label": "sourceBuffer",
        "offset": 0,
        "slot": "40",
        "type": "t_uint256"
      },
      {
        "astId": 6338,
        "contract": "contracts/modules/SwapsImplSovrynSwapModule.sol:SwapsImplSovrynSwapModule",
        "label": "maxSwapSize",
        "offset": 0,
        "slot": "41",
        "type": "t_uint256"
      },
      {
        "astId": 6342,
        "contract": "contracts/modules/SwapsImplSovrynSwapModule.sol:SwapsImplSovrynSwapModule",
        "label": "borrowerNonce",
        "offset": 0,
        "slot": "42",
        "type": "t_mapping(t_address,t_uint256)"
      },
      {
        "astId": 6345,
        "contract": "contracts/modules/SwapsImplSovrynSwapModule.sol:SwapsImplSovrynSwapModule",
        "label": "rolloverBaseReward",
        "offset": 0,
        "slot": "43",
        "type": "t_uint256"
      },
      {
        "astId": 6348,
        "contract": "contracts/modules/SwapsImplSovrynSwapModule.sol:SwapsImplSovrynSwapModule",
        "label": "rolloverFlexFeePercent",
        "offset": 0,
        "slot": "44",
        "type": "t_uint256"
      },
      {
        "astId": 6350,
        "contract": "contracts/modules/SwapsImplSovrynSwapModule.sol:SwapsImplSovrynSwapModule",
        "label": "wrbtcToken",
        "offset": 0,
        "slot": "45",
        "type": "t_contract(IWrbtcERC20)35073"
      },
      {
        "astId": 6352,
        "contract": "contracts/modules/SwapsImplSovrynSwapModule.sol:SwapsImplSovrynSwapModule",
        "label": "protocolTokenAddress",
        "offset": 0,
        "slot": "46",
        "type": "t_address"
      },
      {
        "astId": 6359,
        "contract": "contracts/modules/SwapsImplSovrynSwapModule.sol:SwapsImplSovrynSwapModule",
        "label": "feeRebatePercent",
        "offset": 0,
        "slot": "47",
        "type": "t_uint256"
      },
      {
        "astId": 6361,
        "contract": "contracts/modules/SwapsImplSovrynSwapModule.sol:SwapsImplSovrynSwapModule",
        "label": "admin",
        "offset": 0,
        "slot": "48",
        "type": "t_address"
      },
      {
        "astId": 6363,
        "contract": "contracts/modules/SwapsImplSovrynSwapModule.sol:SwapsImplSovrynSwapModule",
        "label": "protocolAddress",
        "offset": 0,
        "slot": "49",
        "type": "t_address"
      },
      {
        "astId": 6367,
        "contract": "contracts/modules/SwapsImplSovrynSwapModule.sol:SwapsImplSovrynSwapModule",
        "label": "userNotFirstTradeFlag",
        "offset": 0,
        "slot": "50",
        "type": "t_mapping(t_address,t_bool)"
      },
      {
        "astId": 6371,
        "contract": "contracts/modules/SwapsImplSovrynSwapModule.sol:SwapsImplSovrynSwapModule",
        "label": "affiliatesUserReferrer",
        "offset": 0,
        "slot": "51",
        "type": "t_mapping(t_address,t_address)"
      },
      {
        "astId": 6375,
        "contract": "contracts/modules/SwapsImplSovrynSwapModule.sol:SwapsImplSovrynSwapModule",
        "label": "referralsList",
        "offset": 0,
        "slot": "52",
        "type": "t_mapping(t_address,t_struct(AddressSet)35966_storage)"
      },
      {
        "astId": 6378,
        "contract": "contracts/modules/SwapsImplSovrynSwapModule.sol:SwapsImplSovrynSwapModule",
        "label": "minReferralsToPayout",
        "offset": 0,
        "slot": "53",
        "type": "t_uint256"
      },
      {
        "astId": 6382,
        "contract": "contracts/modules/SwapsImplSovrynSwapModule.sol:SwapsImplSovrynSwapModule",
        "label": "affiliateRewardsHeld",
        "offset": 0,
        "slot": "54",
        "type": "t_mapping(t_address,t_uint256)"
      },
      {
        "astId": 6384,
        "contract": "contracts/modules/SwapsImplSovrynSwapModule.sol:SwapsImplSovrynSwapModule",
        "label": "sovTokenAddress",
        "offset": 0,
        "slot": "55",
        "type": "t_address"
      },
      {
        "astId": 6386,
        "contract": "contracts/modules/SwapsImplSovrynSwapModule.sol:SwapsImplSovrynSwapModule",
        "label": "lockedSOVAddress",
        "offset": 0,
        "slot": "56",
        "type": "t_address"
      },
      {
        "astId": 6393,
        "contract": "contracts/modules/SwapsImplSovrynSwapModule.sol:SwapsImplSovrynSwapModule",
        "label": "affiliateTradingTokenFeePercent",
        "offset": 0,
        "slot": "57",
        "type": "t_uint256"
      },
      {
        "astId": 6397,
        "contract": "contracts/modules/SwapsImplSovrynSwapModule.sol:SwapsImplSovrynSwapModule",
        "label": "affiliatesReferrerTokensList",
        "offset": 0,
        "slot": "58",
        "type": "t_mapping(t_address,t_struct(AddressSet)35966_storage)"
      },
      {
        "astId": 6403,
        "contract": "contracts/modules/SwapsImplSovrynSwapModule.sol:SwapsImplSovrynSwapModule",
        "label": "affiliatesReferrerBalances",
        "offset": 0,
        "slot": "59",
        "type": "t_mapping(t_address,t_mapping(t_address,t_uint256))"
      },
      {
        "astId": 6409,
        "contract": "contracts/modules/SwapsImplSovrynSwapModule.sol:SwapsImplSovrynSwapModule",
        "label": "specialRebates",
        "offset": 0,
        "slot": "60",
        "type": "t_mapping(t_address,t_mapping(t_address,t_uint256))"
      },
      {
        "astId": 6411,
        "contract": "contracts/modules/SwapsImplSovrynSwapModule.sol:SwapsImplSovrynSwapModule",
        "label": "pause",
        "offset": 0,
        "slot": "61",
        "type": "t_bool"
      },
      {
        "astId": 6413,
        "contract": "contracts/modules/SwapsImplSovrynSwapModule.sol:SwapsImplSovrynSwapModule",
        "label": "swapExtrernalFeePercent",
        "offset": 0,
        "slot": "62",
        "type": "t_uint256"
      },
      {
        "astId": 6415,
        "contract": "contracts/modules/SwapsImplSovrynSwapModule.sol:SwapsImplSovrynSwapModule",
        "label": "tradingRebateRewardsBasisPoint",
        "offset": 0,
        "slot": "63",
        "type": "t_uint256"
      },
      {
        "astId": 6422,
        "contract": "contracts/modules/SwapsImplSovrynSwapModule.sol:SwapsImplSovrynSwapModule",
        "label": "defaultPathConversion",
        "offset": 0,
        "slot": "64",
        "type": "t_mapping(t_address,t_mapping(t_address,t_array(t_contract(IERC20)33292)dyn_storage))"
      },
      {
        "astId": 6424,
        "contract": "contracts/modules/SwapsImplSovrynSwapModule.sol:SwapsImplSovrynSwapModule",
        "label": "pauser",
        "offset": 0,
        "slot": "65",
        "type": "t_address"
      }
    ],
    "types": {
      "t_address": {
        "encoding": "inplace",
        "label": "address",
        "numberOfBytes": "20"
      },
      "t_array(t_address)dyn_storage": {
        "base": "t_address",
        "encoding": "dynamic_array",
        "label": "address[]",
        "numberOfBytes": "32"
      },
      "t_array(t_bytes32)dyn_storage": {
        "base": "t_bytes32",
        "encoding": "dynamic_array",
        "label": "bytes32[]",
        "numberOfBytes": "32"
      },
      "t_array(t_contract(IERC20)33292)dyn_storage": {
        "base": "t_contract(IERC20)33292",
        "encoding": "dynamic_array",
        "label": "contract IERC20[]",
        "numberOfBytes": "32"
      },
      "t_bool": {
        "encoding": "inplace",
        "label": "bool",
        "numberOfBytes": "1"
      },
      "t_bytes32": {
        "encoding": "inplace",
        "label": "bytes32",
        "numberOfBytes": "32"
      },
      "t_bytes4": {
        "encoding": "inplace",
        "label": "bytes4",
        "numberOfBytes": "4"
      },
      "t_contract(IERC20)33292": {
        "encoding": "inplace",
        "label": "contract IERC20",
        "numberOfBytes": "20"
      },
      "t_contract(IWrbtcERC20)35073": {
        "encoding": "inplace",
        "label": "contract IWrbtcERC20",
        "numberOfBytes": "20"
      },
      "t_mapping(t_address,t_address)": {
        "encoding": "mapping",
        "key": "t_address",
        "label": "mapping(address => address)",
        "numberOfBytes": "32",
        "value": "t_address"
      },
      "t_mapping(t_address,t_array(t_contract(IERC20)33292)dyn_storage)": {
        "encoding": "mapping",
        "key": "t_address",
        "label": "mapping(address => contract IERC20[])",
        "numberOfBytes": "32",
        "value": "t_array(t_contract(IERC20)33292)dyn_storage"
      },
      "t_mapping(t_address,t_bool)": {
        "encoding": "mapping",
        "key": "t_address",
        "label": "mapping(address => bool)",
        "numberOfBytes": "32",
        "value": "t_bool"
      },
      "t_mapping(t_address,t_mapping(t_address,t_array(t_contract(IERC20)33292)dyn_storage))": {
        "encoding": "mapping",
        "key": "t_address",
        "label": "mapping(address => mapping(address => contract IERC20[]))",
        "numberOfBytes": "32",
        "value": "t_mapping(t_address,t_array(t_contract(IERC20)33292)dyn_storage)"
      },
      "t_mapping(t_address,t_mapping(t_address,t_struct(LenderInterest)6508_storage))": {
        "encoding": "mapping",
        "key": "t_address",
        "label": "mapping(address => mapping(address => struct LenderInterestStruct.LenderInterest))",
        "numberOfBytes": "32",
        "value": "t_mapping(t_address,t_struct(LenderInterest)6508_storage)"
      },
      "t_mapping(t_address,t_mapping(t_address,t_uint256))": {
        "encoding": "mapping",
        "key": "t_address",
        "label": "mapping(address => mapping(address => uint256))",
        "numberOfBytes": "32",
        "value": "t_mapping(t_address,t_uint256)"
      },
      "t_mapping(t_address,t_mapping(t_bytes32,t_struct(Order)6582_storage))": {
        "encoding": "mapping",
        "key": "t_address",
        "label": "mapping(address => mapping(bytes32 => struct OrderStruct.Order))",
        "numberOfBytes": "32",
        "value": "t_mapping(t_bytes32,t_struct(Order)6582_storage)"
      },
      "t_mapping(t_address,t_struct(AddressSet)35966_storage)": {
        "encoding": "mapping",
        "key": "t_address",
        "label": "mapping(address => struct EnumerableAddressSet.AddressSet)",
        "numberOfBytes": "32",
        "value": "t_struct(AddressSet)35966_storage"
      },
      "t_mapping(t_address,t_struct(Bytes32Set)36272_storage)": {
        "encoding": "mapping",
        "key": "t_address",
        "label": "mapping(address => struct EnumerableBytes32Set.Bytes32Set)",
        "numberOfBytes": "32",
        "value": "t_struct(Bytes32Set)36272_storage"
      },
      "t_mapping(t_address,t_struct(LenderInterest)6508_storage)": {
        "encoding": "mapping",
        "key": "t_address",
        "label": "mapping(address => struct LenderInterestStruct.LenderInterest)",
        "numberOfBytes": "32",
        "value": "t_struct(LenderInterest)6508_storage"
      },
      "t_mapping(t_address,t_uint256)": {
        "encoding": "mapping",
        "key": "t_address",
        "label": "mapping(address => uint256)",
        "numberOfBytes": "32",
        "value": "t_uint256"
      },
      "t_mapping(t_bytes32,t_mapping(t_address,t_bool))": {
        "encoding": "mapping",
        "key": "t_bytes32",
        "label": "mapping(bytes32 => mapping(address => bool))",
        "numberOfBytes": "32",
        "value": "t_mapping(t_address,t_bool)"
      },
      "t_mapping(t_bytes32,t_struct(Loan)6566_storage)": {
        "encoding": "mapping",
        "key": "t_bytes32",
        "label": "mapping(bytes32 => struct LoanStruct.Loan)",
        "numberOfBytes": "32",
        "value": "t_struct(Loan)6566_storage"
      },
      "t_mapping(t_bytes32,t_struct(LoanInterest)6518_storage)": {
        "encoding": "mapping",
        "key": "t_bytes32",
        "label": "mapping(bytes32 => struct LoanInterestStruct.LoanInterest)",
        "numberOfBytes": "32",
        "value": "t_struct(LoanInterest)6518_storage"
      },
      "t_mapping(t_bytes32,t_struct(LoanParams)6538_storage)": {
        "encoding": "mapping",
        "key": "t_bytes32",
        "label": "mapping(bytes32 => struct LoanParamsStruct.LoanParams)",
        "numberOfBytes": "32",
        "value": "t_struct(LoanParams)6538_storage"
      },
      "t_mapping(t_bytes32,t_struct(Order)6582_storage)": {
        "encoding": "mapping",
        "key": "t_bytes32",
        "label": "mapping(bytes32 => struct OrderStruct.Order)",
        "numberOfBytes": "32",
        "value": "t_struct(Order)6582_storage"
      },
      "t_mapping(t_bytes32,t_uint256)": {
        "encoding": "mapping",
        "key": "t_bytes32",
        "label": "mapping(bytes32 => uint256)",
        "numberOfBytes": "32",
        "value": "t_uint256"
      },
      "t_mapping(t_bytes4,t_address)": {
        "encoding": "mapping",
        "key": "t_bytes4",
        "label": "mapping(bytes4 => address)",
        "numberOfBytes": "32",
        "value": "t_address"
      },
      "t_struct(AddressSet)35966_storage": {
        "encoding": "inplace",
        "label": "struct EnumerableAddressSet.AddressSet",
        "members": [
          {
            "astId": 35962,
            "contract": "contracts/modules/SwapsImplSovrynSwapModule.sol:SwapsImplSovrynSwapModule",
            "label": "index",
            "offset": 0,
            "slot": "0",
            "type": "t_mapping(t_address,t_uint256)"
          },
          {
            "astId": 35965,
            "contract": "contracts/modules/SwapsImplSovrynSwapModule.sol:SwapsImplSovrynSwapModule",
            "label": "values",
            "offset": 0,
            "slot": "1",
            "type": "t_array(t_address)dyn_storage"
          }
        ],
        "numberOfBytes": "64"
      },
      "t_struct(Bytes32Set)36272_storage": {
        "encoding": "inplace",
        "label": "struct EnumerableBytes32Set.Bytes32Set",
        "members": [
          {
            "astId": 36268,
            "contract": "contracts/modules/SwapsImplSovrynSwapModule.sol:SwapsImplSovrynSwapModule",
            "label": "index",
            "offset": 0,
            "slot": "0",
            "type": "t_mapping(t_bytes32,t_uint256)"
          },
          {
            "astId": 36271,
            "contract": "contracts/modules/SwapsImplSovrynSwapModule.sol:SwapsImplSovrynSwapModule",
            "label": "values",
            "offset": 0,
            "slot": "1",
            "type": "t_array(t_bytes32)dyn_storage"
          }
        ],
        "numberOfBytes": "64"
      },
      "t_struct(LenderInterest)6508_storage": {
        "encoding": "inplace",
        "label": "struct LenderInterestStruct.LenderInterest",
        "members": [
          {
            "astId": 6499,
            "contract": "contracts/modules/SwapsImplSovrynSwapModule.sol:SwapsImplSovrynSwapModule",
            "label": "principalTotal",
            "offset": 0,
            "slot": "0",
            "type": "t_uint256"
          },
          {
            "astId": 6501,
            "contract": "contracts/modules/SwapsImplSovrynSwapModule.sol:SwapsImplSovrynSwapModule",
            "label": "owedPerDay",
            "offset": 0,
            "slot": "1",
            "type": "t_uint256"
          },
          {
            "astId": 6503,
            "contract": "contracts/modules/SwapsImplSovrynSwapModule.sol:SwapsImplSovrynSwapModule",
            "label": "owedTotal",
            "offset": 0,
            "slot": "2",
            "type": "t_uint256"
          },
          {
            "astId": 6505,
            "contract": "contracts/modules/SwapsImplSovrynSwapModule.sol:SwapsImplSovrynSwapModule",
            "label": "paidTotal",
            "offset": 0,
            "slot": "3",
            "type": "t_uint256"
          },
          {
            "astId": 6507,
            "contract": "contracts/modules/SwapsImplSovrynSwapModule.sol:SwapsImplSovrynSwapModule",
            "label": "updatedTimestamp",
            "offset": 0,
            "slot": "4",
            "type": "t_uint256"
          }
        ],
        "numberOfBytes": "160"
      },
      "t_struct(Loan)6566_storage": {
        "encoding": "inplace",
        "label": "struct LoanStruct.Loan",
        "members": [
          {
            "astId": 6543,
            "contract": "contracts/modules/SwapsImplSovrynSwapModule.sol:SwapsImplSovrynSwapModule",
            "label": "id",
            "offset": 0,
            "slot": "0",
            "type": "t_bytes32"
          },
          {
            "astId": 6545,
            "contract": "contracts/modules/SwapsImplSovrynSwapModule.sol:SwapsImplSovrynSwapModule",
            "label": "loanParamsId",
            "offset": 0,
            "slot": "1",
            "type": "t_bytes32"
          },
          {
            "astId": 6547,
            "contract": "contracts/modules/SwapsImplSovrynSwapModule.sol:SwapsImplSovrynSwapModule",
            "label": "pendingTradesId",
            "offset": 0,
            "slot": "2",
            "type": "t_bytes32"
          },
          {
            "astId": 6549,
            "contract": "contracts/modules/SwapsImplSovrynSwapModule.sol:SwapsImplSovrynSwapModule",
            "label": "active",
            "offset": 0,
            "slot": "3",
            "type": "t_bool"
          },
          {
            "astId": 6551,
            "contract": "contracts/modules/SwapsImplSovrynSwapModule.sol:SwapsImplSovrynSwapModule",
            "label": "principal",
            "offset": 0,
            "slot": "4",
            "type": "t_uint256"
          },
          {
            "astId": 6553,
            "contract": "contracts/modules/SwapsImplSovrynSwapModule.sol:SwapsImplSovrynSwapModule",
            "label": "collateral",
            "offset": 0,
            "slot": "5",
            "type": "t_uint256"
          },
          {
            "astId": 6555,
            "contract": "contracts/modules/SwapsImplSovrynSwapModule.sol:SwapsImplSovrynSwapModule",
            "label": "startTimestamp",
            "offset": 0,
            "slot": "6",
            "type": "t_uint256"
          },
          {
            "astId": 6557,
            "contract": "contracts/modules/SwapsImplSovrynSwapModule.sol:SwapsImplSovrynSwapModule",
            "label": "endTimestamp",
            "offset": 0,
            "slot": "7",
            "type": "t_uint256"
          },
          {
            "astId": 6559,
            "contract": "contracts/modules/SwapsImplSovrynSwapModule.sol:SwapsImplSovrynSwapModule",
            "label": "startMargin",
            "offset": 0,
            "slot": "8",
            "type": "t_uint256"
          },
          {
            "astId": 6561,
            "contract": "contracts/modules/SwapsImplSovrynSwapModule.sol:SwapsImplSovrynSwapModule",
            "label": "startRate",
            "offset": 0,
            "slot": "9",
            "type": "t_uint256"
          },
          {
            "astId": 6563,
            "contract": "contracts/modules/SwapsImplSovrynSwapModule.sol:SwapsImplSovrynSwapModule",
            "label": "borrower",
            "offset": 0,
            "slot": "10",
            "type": "t_address"
          },
          {
            "astId": 6565,
            "contract": "contracts/modules/SwapsImplSovrynSwapModule.sol:SwapsImplSovrynSwapModule",
            "label": "lender",
            "offset": 0,
            "slot": "11",
            "type": "t_address"
          }
        ],
        "numberOfBytes": "384"
      },
      "t_struct(LoanInterest)6518_storage": {
        "encoding": "inplace",
        "label": "struct LoanInterestStruct.LoanInterest",
        "members": [
          {
            "astId": 6513,
            "contract": "contracts/modules/SwapsImplSovrynSwapModule.sol:SwapsImplSovrynSwapModule",
            "label": "owedPerDay",
            "offset": 0,
            "slot": "0",
            "type": "t_uint256"
          },
          {
            "astId": 6515,
            "contract": "contracts/modules/SwapsImplSovrynSwapModule.sol:SwapsImplSovrynSwapModule",
            "label": "depositTotal",
            "offset": 0,
            "slot": "1",
            "type": "t_uint256"
          },
          {
            "astId": 6517,
            "contract": "contracts/modules/SwapsImplSovrynSwapModule.sol:SwapsImplSovrynSwapModule",
            "label": "updatedTimestamp",
            "offset": 0,
            "slot": "2",
            "type": "t_uint256"
          }
        ],
        "numberOfBytes": "96"
      },
      "t_struct(LoanParams)6538_storage": {
        "encoding": "inplace",
        "label": "struct LoanParamsStruct.LoanParams",
        "members": [
          {
            "astId": 6523,
            "contract": "contracts/modules/SwapsImplSovrynSwapModule.sol:SwapsImplSovrynSwapModule",
            "label": "id",
            "offset": 0,
            "slot": "0",
            "type": "t_bytes32"
          },
          {
            "astId": 6525,
            "contract": "contracts/modules/SwapsImplSovrynSwapModule.sol:SwapsImplSovrynSwapModule",
            "label": "active",
            "offset": 0,
            "slot": "1",
            "type": "t_bool"
          },
          {
            "astId": 6527,
            "contract": "contracts/modules/SwapsImplSovrynSwapModule.sol:SwapsImplSovrynSwapModule",
            "label": "owner",
            "offset": 1,
            "slot": "1",
            "type": "t_address"
          },
          {
            "astId": 6529,
            "contract": "contracts/modules/SwapsImplSovrynSwapModule.sol:SwapsImplSovrynSwapModule",
            "label": "loanToken",
            "offset": 0,
            "slot": "2",
            "type": "t_address"
          },
          {
            "astId": 6531,
            "contract": "contracts/modules/SwapsImplSovrynSwapModule.sol:SwapsImplSovrynSwapModule",
            "label": "collateralToken",
            "offset": 0,
            "slot": "3",
            "type": "t_address"
          },
          {
            "astId": 6533,
            "contract": "contracts/modules/SwapsImplSovrynSwapModule.sol:SwapsImplSovrynSwapModule",
            "label": "minInitialMargin",
            "offset": 0,
            "slot": "4",
            "type": "t_uint256"
          },
          {
            "astId": 6535,
            "contract": "contracts/modules/SwapsImplSovrynSwapModule.sol:SwapsImplSovrynSwapModule",
            "label": "maintenanceMargin",
            "offset": 0,
            "slot": "5",
            "type": "t_uint256"
          },
          {
            "astId": 6537,
            "contract": "contracts/modules/SwapsImplSovrynSwapModule.sol:SwapsImplSovrynSwapModule",
            "label": "maxLoanTerm",
            "offset": 0,
            "slot": "6",
            "type": "t_uint256"
          }
        ],
        "numberOfBytes": "224"
      },
      "t_struct(Order)6582_storage": {
        "encoding": "inplace",
        "label": "struct OrderStruct.Order",
        "members": [
          {
            "astId": 6571,
            "contract": "contracts/modules/SwapsImplSovrynSwapModule.sol:SwapsImplSovrynSwapModule",
            "label": "lockedAmount",
            "offset": 0,
            "slot": "0",
            "type": "t_uint256"
          },
          {
            "astId": 6573,
            "contract": "contracts/modules/SwapsImplSovrynSwapModule.sol:SwapsImplSovrynSwapModule",
            "label": "interestRate",
            "offset": 0,
            "slot": "1",
            "type": "t_uint256"
          },
          {
            "astId": 6575,
            "contract": "contracts/modules/SwapsImplSovrynSwapModule.sol:SwapsImplSovrynSwapModule",
            "label": "minLoanTerm",
            "offset": 0,
            "slot": "2",
            "type": "t_uint256"
          },
          {
            "astId": 6577,
            "contract": "contracts/modules/SwapsImplSovrynSwapModule.sol:SwapsImplSovrynSwapModule",
            "label": "maxLoanTerm",
            "offset": 0,
            "slot": "3",
            "type": "t_uint256"
          },
          {
            "astId": 6579,
            "contract": "contracts/modules/SwapsImplSovrynSwapModule.sol:SwapsImplSovrynSwapModule",
            "label": "createdTimestamp",
            "offset": 0,
            "slot": "4",
            "type": "t_uint256"
          },
          {
            "astId": 6581,
            "contract": "contracts/modules/SwapsImplSovrynSwapModule.sol:SwapsImplSovrynSwapModule",
            "label": "expirationTimestamp",
            "offset": 0,
            "slot": "5",
            "type": "t_uint256"
          }
        ],
        "numberOfBytes": "192"
      },
      "t_uint256": {
        "encoding": "inplace",
        "label": "uint256",
        "numberOfBytes": "32"
      }
    }
  }
}