{
  "address": "0xE4fD0AAe96eA6C06d74CfDaf57C74Fc796a4accC",
  "abi": [
    {
      "inputs": [],
      "payable": false,
      "stateMutability": "nonpayable",
      "type": "constructor"
    },
    {
      "anonymous": false,
      "inputs": [
        {
          "indexed": true,
          "internalType": "address",
          "name": "receiver",
          "type": "address"
        },
        {
          "indexed": true,
          "internalType": "address",
          "name": "token",
          "type": "address"
        },
        {
          "indexed": true,
          "internalType": "bytes32",
          "name": "loanId",
          "type": "bytes32"
        },
        {
          "indexed": false,
          "internalType": "uint256",
          "name": "feeRebatePercent",
          "type": "uint256"
        },
        {
          "indexed": false,
          "internalType": "uint256",
          "name": "amount",
          "type": "uint256"
        },
        {
          "indexed": false,
          "internalType": "uint256",
          "name": "basisPoint",
          "type": "uint256"
        }
      ],
      "name": "EarnReward",
      "type": "event"
    },
    {
      "anonymous": false,
      "inputs": [
        {
          "indexed": true,
          "internalType": "address",
          "name": "receiver",
          "type": "address"
        },
        {
          "indexed": true,
          "internalType": "address",
          "name": "token",
          "type": "address"
        },
        {
          "indexed": true,
          "internalType": "bytes32",
          "name": "loanId",
          "type": "bytes32"
        },
        {
          "indexed": false,
          "internalType": "uint256",
          "name": "feeRebatePercent",
          "type": "uint256"
        },
        {
          "indexed": false,
          "internalType": "uint256",
          "name": "amount",
          "type": "uint256"
        },
        {
          "indexed": false,
          "internalType": "uint256",
          "name": "basisPoint",
          "type": "uint256"
        }
      ],
      "name": "EarnRewardFail",
      "type": "event"
    },
    {
      "anonymous": false,
      "inputs": [
        {
          "indexed": true,
          "internalType": "address",
          "name": "user",
          "type": "address"
        },
        {
          "indexed": true,
          "internalType": "address",
          "name": "sourceToken",
          "type": "address"
        },
        {
          "indexed": true,
          "internalType": "address",
          "name": "destToken",
          "type": "address"
        },
        {
          "indexed": false,
          "internalType": "uint256",
          "name": "sourceAmount",
          "type": "uint256"
        },
        {
          "indexed": false,
          "internalType": "uint256",
          "name": "destAmount",
          "type": "uint256"
        }
      ],
      "name": "ExternalSwap",
      "type": "event"
    },
    {
      "anonymous": false,
      "inputs": [
        {
          "indexed": true,
          "internalType": "bytes32",
          "name": "loanId",
          "type": "bytes32"
        },
        {
          "indexed": true,
          "internalType": "address",
          "name": "sourceToken",
          "type": "address"
        },
        {
          "indexed": true,
          "internalType": "address",
          "name": "destToken",
          "type": "address"
        },
        {
          "indexed": false,
          "internalType": "address",
          "name": "borrower",
          "type": "address"
        },
        {
          "indexed": false,
          "internalType": "uint256",
          "name": "sourceAmount",
          "type": "uint256"
        },
        {
          "indexed": false,
          "internalType": "uint256",
          "name": "destAmount",
          "type": "uint256"
        }
      ],
      "name": "LoanSwap",
      "type": "event"
    },
    {
      "anonymous": false,
      "inputs": [
        {
          "indexed": true,
          "internalType": "address",
          "name": "previousOwner",
          "type": "address"
        },
        {
          "indexed": true,
          "internalType": "address",
          "name": "newOwner",
          "type": "address"
        }
      ],
      "name": "OwnershipTransferred",
      "type": "event"
    },
    {
      "anonymous": false,
      "inputs": [
        {
          "indexed": true,
          "internalType": "address",
          "name": "payer",
          "type": "address"
        },
        {
          "indexed": true,
          "internalType": "address",
          "name": "token",
          "type": "address"
        },
        {
          "indexed": true,
          "internalType": "bytes32",
          "name": "loanId",
          "type": "bytes32"
        },
        {
          "indexed": false,
          "internalType": "uint256",
          "name": "amount",
          "type": "uint256"
        }
      ],
      "name": "PayBorrowingFee",
      "type": "event"
    },
    {
      "anonymous": false,
      "inputs": [
        {
          "indexed": true,
          "internalType": "address",
          "name": "payer",
          "type": "address"
        },
        {
          "indexed": true,
          "internalType": "address",
          "name": "token",
          "type": "address"
        },
        {
          "indexed": false,
          "internalType": "uint256",
          "name": "amount",
          "type": "uint256"
        }
      ],
      "name": "PayLendingFee",
      "type": "event"
    },
    {
      "anonymous": false,
      "inputs": [
        {
          "indexed": true,
          "internalType": "address",
          "name": "payer",
          "type": "address"
        },
        {
          "indexed": true,
          "internalType": "address",
          "name": "token",
          "type": "address"
        },
        {
          "indexed": true,
          "internalType": "bytes32",
          "name": "loanId",
          "type": "bytes32"
        },
        {
          "indexed": false,
          "internalType": "uint256",
          "name": "amount",
          "type": "uint256"
        }
      ],
      "name": "PayTradingFee",
      "type": "event"
    },
    {
      "anonymous": false,
      "inputs": [
        {
          "indexed": true,
          "internalType": "address",
          "name": "prevModuleContractAddress",
          "type": "address"
        },
        {
          "indexed": true,
          "internalType": "address",
          "name": "newModuleContractAddress",
          "type": "address"
        },
        {
          "indexed": true,
          "internalType": "bytes32",
          "name": "module",
          "type": "bytes32"
        }
      ],
      "name": "ProtocolModuleContractReplaced",
      "type": "event"
    },
    {
      "anonymous": false,
      "inputs": [
        {
          "indexed": true,
          "internalType": "address",
          "name": "asset",
          "type": "address"
        },
        {
          "indexed": true,
          "internalType": "address",
          "name": "from",
          "type": "address"
        },
        {
          "indexed": false,
          "internalType": "uint256",
          "name": "amount",
          "type": "uint256"
        }
      ],
      "name": "VaultDeposit",
      "type": "event"
    },
    {
      "anonymous": false,
      "inputs": [
        {
          "indexed": true,
          "internalType": "address",
          "name": "asset",
          "type": "address"
        },
        {
          "indexed": true,
          "internalType": "address",
          "name": "to",
          "type": "address"
        },
        {
          "indexed": false,
          "internalType": "uint256",
          "name": "amount",
          "type": "uint256"
        }
      ],
      "name": "VaultWithdraw",
      "type": "event"
    },
    {
      "payable": false,
      "stateMutability": "nonpayable",
      "type": "fallback"
    },
    {
      "constant": true,
      "inputs": [],
      "name": "admin",
      "outputs": [
        {
          "internalType": "address",
          "name": "",
          "type": "address"
        }
      ],
      "payable": false,
      "stateMutability": "view",
      "type": "function"
    },
    {
      "constant": true,
      "inputs": [],
      "name": "affiliateFeePercent",
      "outputs": [
        {
          "internalType": "uint256",
          "name": "",
          "type": "uint256"
        }
      ],
      "payable": false,
      "stateMutability": "view",
      "type": "function"
    },
    {
      "constant": true,
      "inputs": [
        {
          "internalType": "address",
          "name": "",
          "type": "address"
        }
      ],
      "name": "affiliateRewardsHeld",
      "outputs": [
        {
          "internalType": "uint256",
          "name": "",
          "type": "uint256"
        }
      ],
      "payable": false,
      "stateMutability": "view",
      "type": "function"
    },
    {
      "constant": true,
      "inputs": [],
      "name": "affiliateTradingTokenFeePercent",
      "outputs": [
        {
          "internalType": "uint256",
          "name": "",
          "type": "uint256"
        }
      ],
      "payable": false,
      "stateMutability": "view",
      "type": "function"
    },
    {
      "constant": true,
      "inputs": [
        {
          "internalType": "address",
          "name": "",
          "type": "address"
        },
        {
          "internalType": "address",
          "name": "",
          "type": "address"
        }
      ],
      "name": "affiliatesReferrerBalances",
      "outputs": [
        {
          "internalType": "uint256",
          "name": "",
          "type": "uint256"
        }
      ],
      "payable": false,
      "stateMutability": "view",
      "type": "function"
    },
    {
      "constant": true,
      "inputs": [
        {
          "internalType": "address",
          "name": "",
          "type": "address"
        }
      ],
      "name": "affiliatesUserReferrer",
      "outputs": [
        {
          "internalType": "address",
          "name": "",
          "type": "address"
        }
      ],
      "payable": false,
      "stateMutability": "view",
      "type": "function"
    },
    {
      "constant": true,
      "inputs": [
        {
          "internalType": "address",
          "name": "",
          "type": "address"
        }
      ],
      "name": "borrowerNonce",
      "outputs": [
        {
          "internalType": "uint256",
          "name": "",
          "type": "uint256"
        }
      ],
      "payable": false,
      "stateMutability": "view",
      "type": "function"
    },
    {
      "constant": true,
      "inputs": [
        {
          "internalType": "address",
          "name": "",
          "type": "address"
        },
        {
          "internalType": "bytes32",
          "name": "",
          "type": "bytes32"
        }
      ],
      "name": "borrowerOrders",
      "outputs": [
        {
          "internalType": "uint256",
          "name": "lockedAmount",
          "type": "uint256"
        },
        {
          "internalType": "uint256",
          "name": "interestRate",
          "type": "uint256"
        },
        {
          "internalType": "uint256",
          "name": "minLoanTerm",
          "type": "uint256"
        },
        {
          "internalType": "uint256",
          "name": "maxLoanTerm",
          "type": "uint256"
        },
        {
          "internalType": "uint256",
          "name": "createdTimestamp",
          "type": "uint256"
        },
        {
          "internalType": "uint256",
          "name": "expirationTimestamp",
          "type": "uint256"
        }
      ],
      "payable": false,
      "stateMutability": "view",
      "type": "function"
    },
    {
      "constant": true,
      "inputs": [],
      "name": "borrowingFeePercent",
      "outputs": [
        {
          "internalType": "uint256",
          "name": "",
          "type": "uint256"
        }
      ],
      "payable": false,
      "stateMutability": "view",
      "type": "function"
    },
    {
      "constant": true,
      "inputs": [
        {
          "internalType": "address",
          "name": "",
          "type": "address"
        }
      ],
      "name": "borrowingFeeTokensHeld",
      "outputs": [
        {
          "internalType": "uint256",
          "name": "",
          "type": "uint256"
        }
      ],
      "payable": false,
      "stateMutability": "view",
      "type": "function"
    },
    {
      "constant": true,
      "inputs": [
        {
          "internalType": "address",
          "name": "",
          "type": "address"
        }
      ],
      "name": "borrowingFeeTokensPaid",
      "outputs": [
        {
          "internalType": "uint256",
          "name": "",
          "type": "uint256"
        }
      ],
      "payable": false,
      "stateMutability": "view",
      "type": "function"
    },
    {
      "constant": true,
      "inputs": [
        {
          "internalType": "address",
          "name": "sourceToken",
          "type": "address"
        },
        {
          "internalType": "address",
          "name": "destToken",
          "type": "address"
        },
        {
          "internalType": "uint256",
          "name": "sourceTokenAmount",
          "type": "uint256"
        },
        {
          "internalType": "uint256",
          "name": "minReturn",
          "type": "uint256"
        }
      ],
      "name": "checkPriceDivergence",
      "outputs": [],
      "payable": false,
      "stateMutability": "view",
      "type": "function"
    },
    {
      "constant": true,
      "inputs": [
        {
          "internalType": "bytes32",
          "name": "",
          "type": "bytes32"
        },
        {
          "internalType": "address",
          "name": "",
          "type": "address"
        }
      ],
      "name": "delegatedManagers",
      "outputs": [
        {
          "internalType": "bool",
          "name": "",
          "type": "bool"
        }
      ],
      "payable": false,
      "stateMutability": "view",
      "type": "function"
    },
    {
      "constant": true,
      "inputs": [],
      "name": "feeRebatePercent",
      "outputs": [
        {
          "internalType": "uint256",
          "name": "",
          "type": "uint256"
        }
      ],
      "payable": false,
      "stateMutability": "view",
      "type": "function"
    },
    {
      "constant": true,
      "inputs": [],
      "name": "feesController",
      "outputs": [
        {
          "internalType": "address",
          "name": "",
          "type": "address"
        }
      ],
      "payable": false,
      "stateMutability": "view",
      "type": "function"
    },
    {
      "constant": true,
      "inputs": [
        {
          "internalType": "address",
          "name": "sourceToken",
          "type": "address"
        },
        {
          "internalType": "address",
          "name": "destToken",
          "type": "address"
        },
        {
          "internalType": "uint256",
          "name": "sourceTokenAmount",
          "type": "uint256"
        }
      ],
      "name": "getSwapExpectedReturn",
      "outputs": [
        {
          "internalType": "uint256",
          "name": "",
          "type": "uint256"
        }
      ],
      "payable": false,
      "stateMutability": "view",
      "type": "function"
    },
    {
      "constant": false,
      "inputs": [
        {
          "internalType": "address",
          "name": "target",
          "type": "address"
        }
      ],
      "name": "initialize",
      "outputs": [],
      "payable": false,
      "stateMutability": "nonpayable",
      "type": "function"
    },
    {
      "constant": true,
      "inputs": [],
      "name": "isOwner",
      "outputs": [
        {
          "internalType": "bool",
          "name": "",
          "type": "bool"
        }
      ],
      "payable": false,
      "stateMutability": "view",
      "type": "function"
    },
    {
      "constant": true,
      "inputs": [
        {
          "internalType": "address",
          "name": "",
          "type": "address"
        },
        {
          "internalType": "address",
          "name": "",
          "type": "address"
        }
      ],
      "name": "lenderInterest",
      "outputs": [
        {
          "internalType": "uint256",
          "name": "principalTotal",
          "type": "uint256"
        },
        {
          "internalType": "uint256",
          "name": "owedPerDay",
          "type": "uint256"
        },
        {
          "internalType": "uint256",
          "name": "owedTotal",
          "type": "uint256"
        },
        {
          "internalType": "uint256",
          "name": "paidTotal",
          "type": "uint256"
        },
        {
          "internalType": "uint256",
          "name": "updatedTimestamp",
          "type": "uint256"
        }
      ],
      "payable": false,
      "stateMutability": "view",
      "type": "function"
    },
    {
      "constant": true,
      "inputs": [
        {
          "internalType": "address",
          "name": "",
          "type": "address"
        },
        {
          "internalType": "bytes32",
          "name": "",
          "type": "bytes32"
        }
      ],
      "name": "lenderOrders",
      "outputs": [
        {
          "internalType": "uint256",
          "name": "lockedAmount",
          "type": "uint256"
        },
        {
          "internalType": "uint256",
          "name": "interestRate",
          "type": "uint256"
        },
        {
          "internalType": "uint256",
          "name": "minLoanTerm",
          "type": "uint256"
        },
        {
          "internalType": "uint256",
          "name": "maxLoanTerm",
          "type": "uint256"
        },
        {
          "internalType": "uint256",
          "name": "createdTimestamp",
          "type": "uint256"
        },
        {
          "internalType": "uint256",
          "name": "expirationTimestamp",
          "type": "uint256"
        }
      ],
      "payable": false,
      "stateMutability": "view",
      "type": "function"
    },
    {
      "constant": true,
      "inputs": [],
      "name": "lendingFeePercent",
      "outputs": [
        {
          "internalType": "uint256",
          "name": "",
          "type": "uint256"
        }
      ],
      "payable": false,
      "stateMutability": "view",
      "type": "function"
    },
    {
      "constant": true,
      "inputs": [
        {
          "internalType": "address",
          "name": "",
          "type": "address"
        }
      ],
      "name": "lendingFeeTokensHeld",
      "outputs": [
        {
          "internalType": "uint256",
          "name": "",
          "type": "uint256"
        }
      ],
      "payable": false,
      "stateMutability": "view",
      "type": "function"
    },
    {
      "constant": true,
      "inputs": [
        {
          "internalType": "address",
          "name": "",
          "type": "address"
        }
      ],
      "name": "lendingFeeTokensPaid",
      "outputs": [
        {
          "internalType": "uint256",
          "name": "",
          "type": "uint256"
        }
      ],
      "payable": false,
      "stateMutability": "view",
      "type": "function"
    },
    {
      "constant": true,
      "inputs": [],
      "name": "liquidationIncentivePercent",
      "outputs": [
        {
          "internalType": "uint256",
          "name": "",
          "type": "uint256"
        }
      ],
      "payable": false,
      "stateMutability": "view",
      "type": "function"
    },
    {
      "constant": true,
      "inputs": [
        {
          "internalType": "bytes32",
          "name": "",
          "type": "bytes32"
        }
      ],
      "name": "loanInterest",
      "outputs": [
        {
          "internalType": "uint256",
          "name": "owedPerDay",
          "type": "uint256"
        },
        {
          "internalType": "uint256",
          "name": "depositTotal",
          "type": "uint256"
        },
        {
          "internalType": "uint256",
          "name": "updatedTimestamp",
          "type": "uint256"
        }
      ],
      "payable": false,
      "stateMutability": "view",
      "type": "function"
    },
    {
      "constant": true,
      "inputs": [
        {
          "internalType": "bytes32",
          "name": "",
          "type": "bytes32"
        }
      ],
      "name": "loanParams",
      "outputs": [
        {
          "internalType": "bytes32",
          "name": "id",
          "type": "bytes32"
        },
        {
          "internalType": "bool",
          "name": "active",
          "type": "bool"
        },
        {
          "internalType": "address",
          "name": "owner",
          "type": "address"
        },
        {
          "internalType": "address",
          "name": "loanToken",
          "type": "address"
        },
        {
          "internalType": "address",
          "name": "collateralToken",
          "type": "address"
        },
        {
          "internalType": "uint256",
          "name": "minInitialMargin",
          "type": "uint256"
        },
        {
          "internalType": "uint256",
          "name": "maintenanceMargin",
          "type": "uint256"
        },
        {
          "internalType": "uint256",
          "name": "maxLoanTerm",
          "type": "uint256"
        }
      ],
      "payable": false,
      "stateMutability": "view",
      "type": "function"
    },
    {
      "constant": true,
      "inputs": [
        {
          "internalType": "address",
          "name": "",
          "type": "address"
        }
      ],
      "name": "loanPoolToUnderlying",
      "outputs": [
        {
          "internalType": "address",
          "name": "",
          "type": "address"
        }
      ],
      "payable": false,
      "stateMutability": "view",
      "type": "function"
    },
    {
      "constant": true,
      "inputs": [
        {
          "internalType": "bytes32",
          "name": "",
          "type": "bytes32"
        }
      ],
      "name": "loans",
      "outputs": [
        {
          "internalType": "bytes32",
          "name": "id",
          "type": "bytes32"
        },
        {
          "internalType": "bytes32",
          "name": "loanParamsId",
          "type": "bytes32"
        },
        {
          "internalType": "bytes32",
          "name": "pendingTradesId",
          "type": "bytes32"
        },
        {
          "internalType": "bool",
          "name": "active",
          "type": "bool"
        },
        {
          "internalType": "uint256",
          "name": "principal",
          "type": "uint256"
        },
        {
          "internalType": "uint256",
          "name": "collateral",
          "type": "uint256"
        },
        {
          "internalType": "uint256",
          "name": "startTimestamp",
          "type": "uint256"
        },
        {
          "internalType": "uint256",
          "name": "endTimestamp",
          "type": "uint256"
        },
        {
          "internalType": "uint256",
          "name": "startMargin",
          "type": "uint256"
        },
        {
          "internalType": "uint256",
          "name": "startRate",
          "type": "uint256"
        },
        {
          "internalType": "address",
          "name": "borrower",
          "type": "address"
        },
        {
          "internalType": "address",
          "name": "lender",
          "type": "address"
        }
      ],
      "payable": false,
      "stateMutability": "view",
      "type": "function"
    },
    {
      "constant": true,
      "inputs": [],
      "name": "lockedSOVAddress",
      "outputs": [
        {
          "internalType": "address",
          "name": "",
          "type": "address"
        }
      ],
      "payable": false,
      "stateMutability": "view",
      "type": "function"
    },
    {
      "constant": true,
      "inputs": [
        {
          "internalType": "bytes4",
          "name": "",
          "type": "bytes4"
        }
      ],
      "name": "logicTargets",
      "outputs": [
        {
          "internalType": "address",
          "name": "",
          "type": "address"
        }
      ],
      "payable": false,
      "stateMutability": "view",
      "type": "function"
    },
    {
      "constant": true,
      "inputs": [],
      "name": "maxDisagreement",
      "outputs": [
        {
          "internalType": "uint256",
          "name": "",
          "type": "uint256"
        }
      ],
      "payable": false,
      "stateMutability": "view",
      "type": "function"
    },
    {
      "constant": true,
      "inputs": [],
      "name": "maxSwapSize",
      "outputs": [
        {
          "internalType": "uint256",
          "name": "",
          "type": "uint256"
        }
      ],
      "payable": false,
      "stateMutability": "view",
      "type": "function"
    },
    {
      "constant": true,
      "inputs": [],
      "name": "minReferralsToPayout",
      "outputs": [
        {
          "internalType": "uint256",
          "name": "",
          "type": "uint256"
        }
      ],
      "payable": false,
      "stateMutability": "view",
      "type": "function"
    },
    {
      "constant": true,
      "inputs": [],
      "name": "owner",
      "outputs": [
        {
          "internalType": "address",
          "name": "",
          "type": "address"
        }
      ],
      "payable": false,
      "stateMutability": "view",
      "type": "function"
    },
    {
      "constant": true,
      "inputs": [],
      "name": "pause",
      "outputs": [
        {
          "internalType": "bool",
          "name": "",
          "type": "bool"
        }
      ],
      "payable": false,
      "stateMutability": "view",
      "type": "function"
    },
    {
      "constant": true,
      "inputs": [],
      "name": "priceFeeds",
      "outputs": [
        {
          "internalType": "address",
          "name": "",
          "type": "address"
        }
      ],
      "payable": false,
      "stateMutability": "view",
      "type": "function"
    },
    {
      "constant": true,
      "inputs": [],
      "name": "protocolAddress",
      "outputs": [
        {
          "internalType": "address",
          "name": "",
          "type": "address"
        }
      ],
      "payable": false,
      "stateMutability": "view",
      "type": "function"
    },
    {
      "constant": true,
      "inputs": [],
      "name": "protocolTokenAddress",
      "outputs": [
        {
          "internalType": "address",
          "name": "",
          "type": "address"
        }
      ],
      "payable": false,
      "stateMutability": "view",
      "type": "function"
    },
    {
      "constant": true,
      "inputs": [],
      "name": "protocolTokenHeld",
      "outputs": [
        {
          "internalType": "uint256",
          "name": "",
          "type": "uint256"
        }
      ],
      "payable": false,
      "stateMutability": "view",
      "type": "function"
    },
    {
      "constant": true,
      "inputs": [],
      "name": "protocolTokenPaid",
      "outputs": [
        {
          "internalType": "uint256",
          "name": "",
          "type": "uint256"
        }
      ],
      "payable": false,
      "stateMutability": "view",
      "type": "function"
    },
    {
      "constant": true,
      "inputs": [],
      "name": "rolloverBaseReward",
      "outputs": [
        {
          "internalType": "uint256",
          "name": "",
          "type": "uint256"
        }
      ],
      "payable": false,
      "stateMutability": "view",
      "type": "function"
    },
    {
      "constant": true,
      "inputs": [],
      "name": "rolloverFlexFeePercent",
      "outputs": [
        {
          "internalType": "uint256",
          "name": "",
          "type": "uint256"
        }
      ],
      "payable": false,
      "stateMutability": "view",
      "type": "function"
    },
    {
      "constant": true,
      "inputs": [],
      "name": "sourceBuffer",
      "outputs": [
        {
          "internalType": "uint256",
          "name": "",
          "type": "uint256"
        }
      ],
      "payable": false,
      "stateMutability": "view",
      "type": "function"
    },
    {
      "constant": true,
      "inputs": [],
      "name": "sovTokenAddress",
      "outputs": [
        {
          "internalType": "address",
          "name": "",
          "type": "address"
        }
      ],
      "payable": false,
      "stateMutability": "view",
      "type": "function"
    },
    {
      "constant": true,
      "inputs": [],
      "name": "sovrynSwapContractRegistryAddress",
      "outputs": [
        {
          "internalType": "address",
          "name": "",
          "type": "address"
        }
      ],
      "payable": false,
      "stateMutability": "view",
      "type": "function"
    },
    {
      "constant": true,
      "inputs": [
        {
          "internalType": "address",
          "name": "",
          "type": "address"
        },
        {
          "internalType": "address",
          "name": "",
          "type": "address"
        }
      ],
      "name": "specialRebates",
      "outputs": [
        {
          "internalType": "uint256",
          "name": "",
          "type": "uint256"
        }
      ],
      "payable": false,
      "stateMutability": "view",
      "type": "function"
    },
    {
      "constant": true,
      "inputs": [
        {
          "internalType": "address",
          "name": "",
          "type": "address"
        }
      ],
      "name": "supportedTokens",
      "outputs": [
        {
          "internalType": "bool",
          "name": "",
          "type": "bool"
        }
      ],
      "payable": false,
      "stateMutability": "view",
      "type": "function"
    },
    {
      "constant": false,
      "inputs": [
        {
          "internalType": "address",
          "name": "sourceToken",
          "type": "address"
        },
        {
          "internalType": "address",
          "name": "destToken",
          "type": "address"
        },
        {
          "internalType": "address",
          "name": "receiver",
          "type": "address"
        },
        {
          "internalType": "address",
          "name": "returnToSender",
          "type": "address"
        },
        {
          "internalType": "uint256",
          "name": "sourceTokenAmount",
          "type": "uint256"
        },
        {
          "internalType": "uint256",
          "name": "requiredDestTokenAmount",
          "type": "uint256"
        },
        {
          "internalType": "uint256",
          "name": "minReturn",
          "type": "uint256"
        },
        {
          "internalType": "bytes",
          "name": "swapData",
          "type": "bytes"
        }
      ],
      "name": "swapExternal",
      "outputs": [
        {
          "internalType": "uint256",
          "name": "destTokenAmountReceived",
          "type": "uint256"
        },
        {
          "internalType": "uint256",
          "name": "sourceTokenAmountUsed",
          "type": "uint256"
        }
      ],
      "payable": true,
      "stateMutability": "payable",
      "type": "function"
    },
    {
      "constant": true,
      "inputs": [],
      "name": "swapsImpl",
      "outputs": [
        {
          "internalType": "address",
          "name": "",
          "type": "address"
        }
      ],
      "payable": false,
      "stateMutability": "view",
      "type": "function"
    },
    {
      "constant": true,
      "inputs": [],
      "name": "tradingFeePercent",
      "outputs": [
        {
          "internalType": "uint256",
          "name": "",
          "type": "uint256"
        }
      ],
      "payable": false,
      "stateMutability": "view",
      "type": "function"
    },
    {
      "constant": true,
      "inputs": [
        {
          "internalType": "address",
          "name": "",
          "type": "address"
        }
      ],
      "name": "tradingFeeTokensHeld",
      "outputs": [
        {
          "internalType": "uint256",
          "name": "",
          "type": "uint256"
        }
      ],
      "payable": false,
      "stateMutability": "view",
      "type": "function"
    },
    {
      "constant": true,
      "inputs": [
        {
          "internalType": "address",
          "name": "",
          "type": "address"
        }
      ],
      "name": "tradingFeeTokensPaid",
      "outputs": [
        {
          "internalType": "uint256",
          "name": "",
          "type": "uint256"
        }
      ],
      "payable": false,
      "stateMutability": "view",
      "type": "function"
    },
    {
      "constant": false,
      "inputs": [
        {
          "internalType": "address",
          "name": "newOwner",
          "type": "address"
        }
      ],
      "name": "transferOwnership",
      "outputs": [],
      "payable": false,
      "stateMutability": "nonpayable",
      "type": "function"
    },
    {
      "constant": true,
      "inputs": [
        {
          "internalType": "address",
          "name": "",
          "type": "address"
        }
      ],
      "name": "underlyingToLoanPool",
      "outputs": [
        {
          "internalType": "address",
          "name": "",
          "type": "address"
        }
      ],
      "payable": false,
      "stateMutability": "view",
      "type": "function"
    },
    {
      "constant": true,
      "inputs": [
        {
          "internalType": "address",
          "name": "",
          "type": "address"
        }
      ],
      "name": "userNotFirstTradeFlag",
      "outputs": [
        {
          "internalType": "bool",
          "name": "",
          "type": "bool"
        }
      ],
      "payable": false,
      "stateMutability": "view",
      "type": "function"
    },
    {
      "constant": true,
      "inputs": [],
      "name": "wrbtcToken",
      "outputs": [
        {
          "internalType": "contract IWrbtcERC20",
          "name": "",
          "type": "address"
        }
      ],
      "payable": false,
      "stateMutability": "view",
      "type": "function"
    }
  ],
  "transactionHash": "0x762ad255a70888c2093f6341fb29b007835e44b1a26c5b7a75513774d1df3f88",
  "args": [],
  "numDeployments": 1,
  "solcInputHash": "9310031b42d2950fea7a6220c73f2cc4",
  "bytecode": "0x60806040526001600055678ac7230489e80000601555670214e8348c4f000060185567013fbe85edc90000601b55674563918244f40000602055674563918244f40000602155674563918244f400006027556127106028556802b5e3af16b1880000602955650f478e084000602b5567016345785d8a0000602c556802b5e3af16b1880000602f5560036035556801158e460913d000006039553480156100a557600080fd5b5060006100b96001600160e01b0361010c16565b600180546001600160a01b0319166001600160a01b038316908117909155604051919250906000907f8be0079c531659141344cd1fd0a4f28419497f9722a3daafe3b4186f6b6457e0908290a350610110565b3390565b61300980620001206000396000f3fe60806040526004361061036b5760003560e01c80638f32d59b116101c6578063cb6eacd1116100f7578063edab119f11610095578063f589a3e71161006f578063f589a3e7146109af578063f6ddc8b3146109c4578063f706b1f2146109d9578063f851a440146109ee5761036b565b8063edab119f14610965578063f0e085f51461097a578063f2fde38b1461098f5761036b565b8063d473c2da116100d1578063d473c2da146108fa578063d485045e1461090f578063e321b5401461092f578063e8f62764146109505761036b565b8063cb6eacd114610891578063cd5d808d146108c5578063d288208c146108e55761036b565b8063b30643d911610164578063ba4861e91161013e578063ba4861e914610804578063bdee453c14610819578063c4a9081514610839578063c4d66de8146108715761036b565b8063b30643d9146107af578063b7e15241146107cf578063b9cffa3e146107ef5761036b565b8063acc04348116101a0578063acc0434814610741578063ae0a853014610756578063afe840091461076b578063b17da56e1461078d5761036b565b80638f32d59b146106f757806392d894f81461070c578063959083d31461072c5761036b565b80634f28cac2116102a05780637420ca3e1161023e5780637a8faeb8116102185780637a8faeb8146106985780638456cb59146106ad5780638da5cb5b146106c25780638dc48ba5146106d75761036b565b80637420ca3e14610659578063742e67981461066e57806378d849ed146106835761036b565b806362fff3f61161027a57806362fff3f6146105c857806368c4ac26146105f957806369455ddc146106195780636e663730146106395761036b565b80634f28cac21461056f578063569fc1fb14610584578063574442cc146105b35761036b565b80632f4707641161030d5780633fca506e116102e75780633fca506e146104fa5780634115a2b61461051a5780634203e3951461053a5780634699f8461461055a5761036b565b80632f470764146104a55780633432423c146104ba5780633452d2d4146104da5761036b565b80631b7bde74116103495780631b7bde7414610416578063218b39c61461044357806324cc5749146104635780632a324027146104905761036b565b8063065d810f146103995780630676c1b7146103d457806317548b79146103f6575b34801561037757600080fd5b5060405162461bcd60e51b815260040161039090612d6f565b60405180910390fd5b3480156103a557600080fd5b506103b96103b4366004612443565b610a03565b6040516103cb96959493929190612e63565b60405180910390f35b3480156103e057600080fd5b506103e9610a43565b6040516103cb9190612a9e565b34801561040257600080fd5b506103e96104113660046124ce565b610a52565b34801561042257600080fd5b50610436610431366004612293565b610a6d565b6040516103cb9190612ded565b34801561044f57600080fd5b506103e961045e366004612275565b610a8a565b34801561046f57600080fd5b5061048361047e366004612275565b610aa5565b6040516103cb9190612b48565b34801561049c57600080fd5b50610436610aba565b3480156104b157600080fd5b50610436610ac0565b3480156104c657600080fd5b506103b96104d5366004612443565b610ac6565b3480156104e657600080fd5b506104366104f5366004612275565b610b06565b34801561050657600080fd5b50610436610515366004612275565b610b18565b34801561052657600080fd5b506104836105353660046124af565b610b2a565b34801561054657600080fd5b50610436610555366004612275565b610b4a565b34801561056657600080fd5b50610436610b5c565b34801561057b57600080fd5b50610436610b62565b34801561059057600080fd5b506105a461059f366004612491565b610b68565b6040516103cb93929190612e09565b3480156105bf57600080fd5b50610436610b89565b3480156105d457600080fd5b506105e86105e3366004612293565b610b8f565b6040516103cb959493929190612e17565b34801561060557600080fd5b50610483610614366004612275565b610bc9565b34801561062557600080fd5b50610436610634366004612395565b610bde565b34801561064557600080fd5b506103e9610654366004612275565b610bf5565b34801561066557600080fd5b506103e9610c10565b34801561067a57600080fd5b50610436610c1f565b34801561068f57600080fd5b506103e9610c25565b3480156106a457600080fd5b50610436610c34565b3480156106b957600080fd5b50610483610c3a565b3480156106ce57600080fd5b506103e9610c43565b3480156106e357600080fd5b506103e96106f2366004612275565b610c52565b34801561070357600080fd5b50610483610c6d565b34801561071857600080fd5b50610436610727366004612275565b610c93565b34801561073857600080fd5b50610436610ca5565b34801561074d57600080fd5b50610436610cab565b34801561076257600080fd5b50610436610cb1565b34801561077757600080fd5b50610780610cb7565b6040516103cb9190612c80565b34801561079957600080fd5b506107ad6107a83660046123e2565b610cc6565b005b3480156107bb57600080fd5b506104366107ca366004612275565b610cfc565b3480156107db57600080fd5b506104366107ea366004612275565b610d0e565b3480156107fb57600080fd5b506103e9610d20565b34801561081057600080fd5b506103e9610d2f565b34801561082557600080fd5b50610436610834366004612275565b610d3e565b34801561084557600080fd5b50610859610854366004612491565b610d50565b6040516103cb9c9b9a99989796959493929190612bcd565b34801561087d57600080fd5b506107ad61088c366004612275565b610dc2565b34801561089d57600080fd5b506108b16108ac366004612491565b610ea5565b6040516103cb989796959493929190612b56565b3480156108d157600080fd5b506104366108e0366004612293565b610ef7565b3480156108f157600080fd5b506103e9610f14565b34801561090657600080fd5b50610436610f23565b34801561091b57600080fd5b5061043661092a366004612275565b610f29565b61094261093d3660046122cd565b610f3b565b6040516103cb929190612dfb565b34801561095c57600080fd5b506103e9611184565b34801561097157600080fd5b50610436611193565b34801561098657600080fd5b50610436611199565b34801561099b57600080fd5b506107ad6109aa366004612275565b61119f565b3480156109bb57600080fd5b506104366111cf565b3480156109d057600080fd5b506104366111d5565b3480156109e557600080fd5b506103e96111db565b3480156109fa57600080fd5b506103e96111ea565b6009602090815260009283526040808420909152908252902080546001820154600283015460038401546004850154600590950154939492939192909186565b6031546001600160a01b031681565b6005602052600090815260409020546001600160a01b031681565b603b60209081526000928352604080842090915290825290205481565b6023602052600090815260409020546001600160a01b031681565b60326020526000908152604090205460ff1681565b60185481565b601f5481565b6008602090815260009283526040808420909152908252902080546001820154600283015460038401546004850154600590950154939492939192909186565b601a6020526000908152604090205481565b602a6020526000908152604090205481565b600a60209081526000928352604080842090915290825290205460ff1681565b60166020526000908152604090205481565b60155481565b60295481565b600c6020526000908152604090208054600182015460029092015490919083565b602b5481565b600b602090815260009283526040808420909152908252902080546001820154600283015460038401546004909401549293919290919085565b60266020526000908152604090205460ff1681565b6000610beb8484846111f9565b90505b9392505050565b6033602052600090815260409020546001600160a01b031681565b6003546001600160a01b031681565b60355481565b6002546001600160a01b031681565b601e5481565b603d5460ff1681565b6001546001600160a01b031690565b6022602052600090815260409020546001600160a01b031681565b6001546000906001600160a01b0316610c84611287565b6001600160a01b031614905090565b60176020526000908152604090205481565b602c5481565b602f5481565b60205481565b602d546001600160a01b031681565b6000610cd38585856111f9565b905081811015610cf55760405162461bcd60e51b815260040161039090612d1f565b5050505050565b601d6020526000908152604090205481565b601c6020526000908152604090205481565b6037546001600160a01b031681565b6004546001600160a01b031681565b60366020526000908152604090205481565b600660208190526000918252604090912080546001820154600283015460038401546004850154600586015496860154600787015460088801546009890154600a8a0154600b909a0154989a9799969860ff909616979496949593949293919290916001600160a01b0391821691168c565b610dca610c6d565b610de65760405162461bcd60e51b815260040161039090612d4f565b63038c86d560e61b600081905260056020527fe705b9be7ab1128120df187531812b4c979d3ce42ed227d7df3b23e95341849e546001600160a01b031690610e2e908361128b565b610e3f631a51577760e21b8361128b565b610e506358bed2b760e11b8361128b565b6c14ddd85c1cd15e1d195c9b985b609a1b826001600160a01b0316826001600160a01b03167f1420e3a2094d671bc2eb897941fa3d94ffa37f0cb6d530651946250a2151cb7f60405160405180910390a45050565b6007602052600090815260409020805460018201546002830154600384015460048501546005860154600690960154949560ff8516956101009095046001600160a01b03908116959481169493169288565b603c60209081526000928352604080842090915290825290205481565b6038546001600160a01b031681565b60275481565b60196020526000908152604090205481565b600080600160005414610f605760405162461bcd60e51b815260040161039090612d8f565b6002600055603d5460ff1615610f885760405162461bcd60e51b815260040161039090612c9f565b85610fa55760405162461bcd60e51b815260040161039090612caf565b610fb18a8a8887610cc6565b341561108e576001600160a01b038a16610fd457602d546001600160a01b031699505b602d546001600160a01b038b81169116146110015760405162461bcd60e51b815260040161039090612d2f565b8534146110205760405162461bcd60e51b815260040161039090612d5f565b602d60009054906101000a90046001600160a01b03166001600160a01b031663d0e30db0876040518263ffffffff1660e01b81526004016000604051808303818588803b15801561107057600080fd5b505af1158015611084573d6000803e3d6000fd5b50505050506110b0565b3033146110b0576110b06001600160a01b038b1633308963ffffffff61130716565b6040805160a0810182526001600160a01b03808d1682528b81166020808401919091528b821683850152908a166060808401919091523360808401528351908101845289815290810189905291820187905261111191600080876001611368565b8092508193505050886001600160a01b03168a6001600160a01b0316336001600160a01b03167f03d3f38d1a433bb469c160c1704d282fe2b74819ba8ec9c223e685dd2a0b05478486604051611168929190612dfb565b60405180910390a4600160005590999098509650505050505050565b6014546001600160a01b031681565b601b5481565b60285481565b6111a7610c6d565b6111c35760405162461bcd60e51b815260040161039090612d4f565b6111cc8161158d565b50565b60395481565b60215481565b602e546001600160a01b031681565b6030546001600160a01b031681565b604051636dcd64e560e01b81526000907394D7CEE3Fe77432312e4faCf4dc416CA5Cd224a690636dcd64e59061123790879087908790600401612aea565b60206040518083038186803b15801561124f57600080fd5b505af4158015611263573d6000803e3d6000fd5b505050506040513d601f19601f82011682018060405250610beb91908101906124ec565b3390565b6001600160e01b03198216600090815260056020526040902080546001600160a01b0319166001600160a01b038316908117909155156112e6576112e0600d6001600160e01b0319841663ffffffff61160f16565b50611303565b611301600d6001600160e01b0319841663ffffffff61165916565b505b5050565b6040516113629085906323b872dd60e01b9061132b90879087908790602401612aea565b60408051601f198184030181529190526020810180516001600160e01b03166001600160e01b03199093169290921790915261171a565b50505050565b8451600090819015158061137f5750602087015115155b61139b5760405162461bcd60e51b815260040161039090612d7f565b60208701516113ac57865160208801525b6020870151875111156113d15760405162461bcd60e51b815260040161039090612d0f565b60008060008761148e5760408a015161144d578515611402576113fb8a60005b60200201516117ff565b9050611416565b6114138a60005b602002015161182f565b90505b80156114485760808b01518b5161143991908b908e60015b602002015185611853565b895161144590826119af565b8a525b61148e565b85156114655761145e8a60026113f1565b9050611473565b6114708a6002611409565b90505b801561148e5760408a015161148890826119f1565b60408b01525b8651156114ad5760405162461bcd60e51b815260040161039090612d9f565b6114b78b8b611a16565b60408c0151919450925061150357895182146114e55760405162461bcd60e51b815260040161039090612dbf565b80156114fe576114fb828263ffffffff6119f116565b91505b61157d565b60208a01518211156115275760405162461bcd60e51b815260040161039090612cff565b60408a015183101561154b5760405162461bcd60e51b815260040161039090612cbf565b801561157d5760808b015160208c015161156a91908b908e600061142e565b61157a838263ffffffff6119af16565b92505b5090999098509650505050505050565b6001600160a01b0381166115b35760405162461bcd60e51b815260040161039090612ccf565b6001546040516001600160a01b038084169216907f8be0079c531659141344cd1fd0a4f28419497f9722a3daafe3b4186f6b6457e090600090a3600180546001600160a01b0319166001600160a01b0392909216919091179055565b600061161b8383611b00565b61164f5750600180830180548083018083556000928352602080842090920185905584835290859052604090912055611653565b5060005b92915050565b60006116658383611b00565b1561164f57600082815260208490526040902054600184015460001991820191018082146116dd57600085600101828154811061169e57fe5b90600052602060002001549050808660010184815481106116bb57fe5b6000918252602080832090910192909255918252869052604090206001830190555b600084815260208690526040812055600185018054806116f957fe5b60019003818190600052602060002001600090559055600192505050611653565b61172c826001600160a01b0316611b15565b6117485760405162461bcd60e51b815260040161039090612dcf565b60006060836001600160a01b0316836040516117649190612a92565b6000604051808303816000865af19150503d80600081146117a1576040519150601f19603f3d011682016040523d82523d6000602084013e6117a6565b606091505b5091509150816117c85760405162461bcd60e51b815260040161039090612cef565b80511561136257808060200190516117e39190810190612473565b6113625760405162461bcd60e51b815260040161039090612daf565b600061165368056bc75e2d63100000611823603e5485611b5190919063ffffffff16565b9063ffffffff611b8b16565b600061165368056bc75e2d6310000061182360185485611b5190919063ffffffff16565b8080156119a7576001600160a01b038681166000908152603360205260409020541615611915576001600160a01b038087166000908152603360205260409020546118a19116878684611bcd565b50506119126118d468056bc75e2d631000006118c860395485611b5190919063ffffffff16565b9063ffffffff611c5916565b6119066118f968056bc75e2d631000006118c860205487611b5190919063ffffffff16565b849063ffffffff6119af16565b9063ffffffff6119af16565b90505b6001600160a01b03841660009081526019602052604090205461193e908263ffffffff6119f116565b6001600160a01b03808616600081815260196020526040908190209390935591518792918916907fb23479169712c443e6b00fb0cec3506a5f5926f541df4243d313e11c8c5c71ed90611992908690612ded565b60405180910390a46119a78686868686611c9b565b505050505050565b6000610bee83836040518060400160405280601e81526020017f536166654d6174683a207375627472616374696f6e206f766572666c6f770000815250612101565b600082820183811015610bee5760405162461bcd60e51b815260040161039090612cdf565b600080611a216121ae565b84516001600160a01b039081168252602080870151821683820152604080880151831681850152606080890151909316928401929092528551608084015285015160a08301528481015160c0830152516335aaa79d60e01b81527394D7CEE3Fe77432312e4faCf4dc416CA5Cd224a6906335aaa79d90611aa5908490600401612ddf565b604080518083038186803b158015611abc57600080fd5b505af4158015611ad0573d6000803e3d6000fd5b505050506040513d601f19601f82011682018060405250611af4919081019061250a565b90969095509350505050565b60009081526020919091526040902054151590565b6000813f7fc5d2460186f7233c927e7db2dcc703c0e500b653ca82273b7bfad8045d85a470818114801590611b4957508115155b949350505050565b600082611b6057506000611653565b82820282848281611b6d57fe5b0414610bee5760405162461bcd60e51b815260040161039090612d3f565b6000610bee83836040518060400160405280601a81526020017f536166654d6174683a206469766973696f6e206279207a65726f00000000000081525061212d565b6040516306a688ff60e11b815260009081903090630d4d11fe90611bfb908990899089908990600401612aac565b6040805180830381600087803b158015611c1457600080fd5b505af1158015611c28573d6000803e3d6000fd5b505050506040513d601f19601f82011682018060405250611c4c919081019061250a565b9097909650945050505050565b6000610bee83836040518060400160405280601a81526020017f536166654d6174683a206469766973696f6e206279207a65726f000000000000815250612177565b602f546002546001600160a01b038581166000908152603c602090815260408083208885168452909152812054909392919091169015611cfe576001600160a01b038087166000908152603c602090815260408083209389168352929052205491505b6037546000906060906001600160a01b038085169163d138f9a160e01b918b9116611d3c68056bc75e2d631000006118c88c8b63ffffffff611b5116565b604051602401611d4e93929190612aea565b60408051601f198184030181529181526020820180516001600160e01b03166001600160e01b0319909416939093179092529051611d8c9190612a92565b600060405180830381855afa9150503d8060008114611dc7576040519150601f19603f3d011682016040523d82523d6000602084013e611dcc565b606091505b50915091506001821415611de257602081015194505b6000306001600160a01b031663c22552f76040518163ffffffff1660e01b815260040160206040518083038186803b158015611e1d57600080fd5b505afa158015611e31573d6000803e3d6000fd5b505050506040513d601f19601f82011682018060405250611e5591908101906124ec565b90508515801590611e665750858110155b1561208e5760375460385460405163095ea7b360e01b81526001600160a01b039283169263095ea7b392611ea1929116908a90600401612b12565b602060405180830381600087803b158015611ebb57600080fd5b505af1158015611ecf573d6000803e3d6000fd5b505050506040513d601f19601f82011682018060405250611ef39190810190612473565b50603854603f546040516000926001600160a01b031691611f1a918f918b91602401612b2d565b60408051601f198184030181529181526020820180516001600160e01b0316630efe6a8b60e01b17905251611f4f9190612a92565b6000604051808303816000865af19150503d8060008114611f8c576040519150601f19603f3d011682016040523d82523d6000602084013e611f91565b606091505b50509050801561202057601f54611fae908863ffffffff6119f116565b601f819055508a603760009054906101000a90046001600160a01b03166001600160a01b03168d6001600160a01b03167ff41c644671512f1cda76abfe6038e3d7d526c1377a5a8c692f81703901db2150898b603f5460405161201393929190612e09565b60405180910390a4612088565b8a603760009054906101000a90046001600160a01b03166001600160a01b03168d6001600160a01b03167f483f67ea49f76ac15e15bbad68b52788ca47d50aef1e4acfe95e5e307e710812898b603f5460405161207f93929190612e09565b60405180910390a45b506120f4565b851580159061209c57508581105b156120f457603754603f546040518c926001600160a01b0390811692908f16917f483f67ea49f76ac15e15bbad68b52788ca47d50aef1e4acfe95e5e307e710812916120eb918b918d91612e09565b60405180910390a45b5050505050505050505050565b600081848411156121255760405162461bcd60e51b81526004016103909190612c8e565b505050900390565b6000818361214e5760405162461bcd60e51b81526004016103909190612c8e565b508361215c57506000610bee565b600083600186038161216a57fe5b0460010195945050505050565b600081836121985760405162461bcd60e51b81526004016103909190612c8e565b5060008385816121a457fe5b0495945050505050565b6040805160e081018252600080825260208201819052918101829052606081018290526080810182905260a0810182905260c081019190915290565b803561165381612f97565b805161165381612fab565b803561165381612fb4565b803561165381612fbd565b600082601f83011261222757600080fd5b813561223a61223582612ee4565b612ebd565b9150808252602083016020830185838301111561225657600080fd5b612261838284612f55565b50505092915050565b805161165381612fb4565b60006020828403121561228757600080fd5b6000611b4984846121ea565b600080604083850312156122a657600080fd5b60006122b285856121ea565b92505060206122c3858286016121ea565b9150509250929050565b600080600080600080600080610100898b0312156122ea57600080fd5b60006122f68b8b6121ea565b98505060206123078b828c016121ea565b97505060406123188b828c016121ea565b96505060606123298b828c016121ea565b955050608061233a8b828c01612200565b94505060a061234b8b828c01612200565b93505060c061235c8b828c01612200565b92505060e089013567ffffffffffffffff81111561237957600080fd5b6123858b828c01612216565b9150509295985092959890939650565b6000806000606084860312156123aa57600080fd5b60006123b686866121ea565b93505060206123c7868287016121ea565b92505060406123d886828701612200565b9150509250925092565b600080600080608085870312156123f857600080fd5b600061240487876121ea565b9450506020612415878288016121ea565b935050604061242687828801612200565b925050606061243787828801612200565b91505092959194509250565b6000806040838503121561245657600080fd5b600061246285856121ea565b92505060206122c385828601612200565b60006020828403121561248557600080fd5b6000611b4984846121f5565b6000602082840312156124a357600080fd5b6000611b498484612200565b600080604083850312156124c257600080fd5b60006122b28585612200565b6000602082840312156124e057600080fd5b6000611b49848461220b565b6000602082840312156124fe57600080fd5b6000611b49848461226a565b6000806040838503121561251d57600080fd5b6000612529858561226a565b92505060206122c38582860161226a565b61254381612f1e565b82525050565b61254381612f29565b61254381612f2e565b600061256682612f0c565b6125708185612f10565b9350612580818560208601612f61565b9290920192915050565b61254381612f4a565b600061259e82612f0c565b6125a88185612f15565b93506125b8818560208601612f61565b6125c181612f8d565b9093019392505050565b60006125d8600683612f15565b6514185d5cd95960d21b815260200192915050565b60006125fa601683612f15565b750736f75726365546f6b656e416d6f756e74203d3d20360541b815260200192915050565b600061262c601b83612f15565b7f696e73756666696369656e742073776170206c69717569646974790000000000815260200192915050565b6000612665602683612f15565b7f4f776e61626c653a206e6577206f776e657220697320746865207a65726f206181526564647265737360d01b602082015260400192915050565b60006126ad601b83612f15565b7f536166654d6174683a206164646974696f6e206f766572666c6f770000000000815260200192915050565b60006126e6602083612f15565b7f5361666545524332303a206c6f772d6c6576656c2063616c6c206661696c6564815260200192915050565b600061271f601383612f15565b72737761702066696c6c20746f6f206c6172676560681b815260200192915050565b600061274e601c83612f15565b7f736f75726365416d6f756e74206c6172676572207468616e206d617800000000815260200192915050565b6000612787601f83612f15565b7f64657374546f6b656e416d6f756e74526563656976656420746f6f206c6f7700815260200192915050565b60006127c0601483612f15565b730e6deeae4c6caa8ded6cadc40dad2e6dac2e8c6d60631b815260200192915050565b60006127f0602183612f15565b7f536166654d6174683a206d756c7469706c69636174696f6e206f766572666c6f8152607760f81b602082015260400192915050565b6000612833600c83612f15565b6b1d5b985d5d1a1bdc9a5e995960a21b815260200192915050565b600061285b601a83612f15565b7f736f75726365546f6b656e416d6f756e74206d69736d61746368000000000000815260200192915050565b6000612894601483612f15565b7319985b1b189858dac81b9bdd08185b1b1bddd95960621b815260200192915050565b60006128c4602e83612f15565b7f6d696e206f72206d617820736f7572636520746f6b656e20616d6f756e74206e81526d1959591cc81d1bc81899481cd95d60921b602082015260400192915050565b6000612914600c83612f15565b6b1b9bdb9499595b9d1c985b9d60a21b815260200192915050565b600061293c600d83612f15565b6c696e76616c696420737461746560981b815260200192915050565b6000612965602a83612f15565b7f5361666545524332303a204552433230206f7065726174696f6e20646964206e8152691bdd081cdd58d8d9595960b21b602082015260400192915050565b60006129b1601683612f15565b751cddd85c081d1bdbc81b185c99d9481d1bc8199a5b1b60521b815260200192915050565b60006129e3601f83612f15565b7f5361666545524332303a2063616c6c20746f206e6f6e2d636f6e747261637400815260200192915050565b805160e0830190612a20848261253a565b506020820151612a33602085018261253a565b506040820151612a46604085018261253a565b506060820151612a59606085018261253a565b506080820151612a6c6080850182612552565b5060a0820151612a7f60a0850182612552565b5060c082015161136260c0850182612552565b6000610bee828461255b565b60208101611653828461253a565b60808101612aba828761253a565b612ac7602083018661253a565b612ad4604083018561253a565b612ae16060830184612552565b95945050505050565b60608101612af8828661253a565b612b05602083018561253a565b611b496040830184612552565b60408101612b20828561253a565b610bee6020830184612552565b60608101612b3b828661253a565b612b056020830185612552565b602081016116538284612549565b6101008101612b65828b612552565b612b72602083018a612549565b612b7f604083018961253a565b612b8c606083018861253a565b612b99608083018761253a565b612ba660a0830186612552565b612bb360c0830185612552565b612bc060e0830184612552565b9998505050505050505050565b6101808101612bdc828f612552565b612be9602083018e612552565b612bf6604083018d612552565b612c03606083018c612549565b612c10608083018b612552565b612c1d60a083018a612552565b612c2a60c0830189612552565b612c3760e0830188612552565b612c45610100830187612552565b612c53610120830186612552565b612c6161014083018561253a565b612c6f61016083018461253a565b9d9c50505050505050505050505050565b60208101611653828461258a565b60208082528101610bee8184612593565b60208082528101611653816125cb565b60208082528101611653816125ed565b602080825281016116538161261f565b6020808252810161165381612658565b60208082528101611653816126a0565b60208082528101611653816126d9565b6020808252810161165381612712565b6020808252810161165381612741565b602080825281016116538161277a565b60208082528101611653816127b3565b60208082528101611653816127e3565b6020808252810161165381612826565b602080825281016116538161284e565b6020808252810161165381612887565b60208082528101611653816128b7565b6020808252810161165381612907565b602080825281016116538161292f565b6020808252810161165381612958565b60208082528101611653816129a4565b60208082528101611653816129d6565b60e081016116538284612a0f565b602081016116538284612552565b60408101612b208285612552565b60608101612b3b8286612552565b60a08101612e258288612552565b612e326020830187612552565b612e3f6040830186612552565b612e4c6060830185612552565b612e596080830184612552565b9695505050505050565b60c08101612e718289612552565b612e7e6020830188612552565b612e8b6040830187612552565b612e986060830186612552565b612ea56080830185612552565b612eb260a0830184612552565b979650505050505050565b60405181810167ffffffffffffffff81118282101715612edc57600080fd5b604052919050565b600067ffffffffffffffff821115612efb57600080fd5b506020601f91909101601f19160190565b5190565b919050565b90815260200190565b600061165382612f3e565b151590565b90565b6001600160e01b03191690565b6001600160a01b031690565b600061165382612f1e565b82818337506000910152565b60005b83811015612f7c578181015183820152602001612f64565b838111156113625750506000910152565b601f01601f191690565b612fa081612f1e565b81146111cc57600080fd5b612fa081612f29565b612fa081612f2e565b612fa081612f3156fea365627a7a7231582027d9926032a476ba1adf5cf1465872fec8b48c50c8ac76e40cef89343dabe38d6c6578706572696d656e74616cf564736f6c63430005110040",
  "deployedBytecode": "0x60806040526004361061036b5760003560e01c80638f32d59b116101c6578063cb6eacd1116100f7578063edab119f11610095578063f589a3e71161006f578063f589a3e7146109af578063f6ddc8b3146109c4578063f706b1f2146109d9578063f851a440146109ee5761036b565b8063edab119f14610965578063f0e085f51461097a578063f2fde38b1461098f5761036b565b8063d473c2da116100d1578063d473c2da146108fa578063d485045e1461090f578063e321b5401461092f578063e8f62764146109505761036b565b8063cb6eacd114610891578063cd5d808d146108c5578063d288208c146108e55761036b565b8063b30643d911610164578063ba4861e91161013e578063ba4861e914610804578063bdee453c14610819578063c4a9081514610839578063c4d66de8146108715761036b565b8063b30643d9146107af578063b7e15241146107cf578063b9cffa3e146107ef5761036b565b8063acc04348116101a0578063acc0434814610741578063ae0a853014610756578063afe840091461076b578063b17da56e1461078d5761036b565b80638f32d59b146106f757806392d894f81461070c578063959083d31461072c5761036b565b80634f28cac2116102a05780637420ca3e1161023e5780637a8faeb8116102185780637a8faeb8146106985780638456cb59146106ad5780638da5cb5b146106c25780638dc48ba5146106d75761036b565b80637420ca3e14610659578063742e67981461066e57806378d849ed146106835761036b565b806362fff3f61161027a57806362fff3f6146105c857806368c4ac26146105f957806369455ddc146106195780636e663730146106395761036b565b80634f28cac21461056f578063569fc1fb14610584578063574442cc146105b35761036b565b80632f4707641161030d5780633fca506e116102e75780633fca506e146104fa5780634115a2b61461051a5780634203e3951461053a5780634699f8461461055a5761036b565b80632f470764146104a55780633432423c146104ba5780633452d2d4146104da5761036b565b80631b7bde74116103495780631b7bde7414610416578063218b39c61461044357806324cc5749146104635780632a324027146104905761036b565b8063065d810f146103995780630676c1b7146103d457806317548b79146103f6575b34801561037757600080fd5b5060405162461bcd60e51b815260040161039090612d6f565b60405180910390fd5b3480156103a557600080fd5b506103b96103b4366004612443565b610a03565b6040516103cb96959493929190612e63565b60405180910390f35b3480156103e057600080fd5b506103e9610a43565b6040516103cb9190612a9e565b34801561040257600080fd5b506103e96104113660046124ce565b610a52565b34801561042257600080fd5b50610436610431366004612293565b610a6d565b6040516103cb9190612ded565b34801561044f57600080fd5b506103e961045e366004612275565b610a8a565b34801561046f57600080fd5b5061048361047e366004612275565b610aa5565b6040516103cb9190612b48565b34801561049c57600080fd5b50610436610aba565b3480156104b157600080fd5b50610436610ac0565b3480156104c657600080fd5b506103b96104d5366004612443565b610ac6565b3480156104e657600080fd5b506104366104f5366004612275565b610b06565b34801561050657600080fd5b50610436610515366004612275565b610b18565b34801561052657600080fd5b506104836105353660046124af565b610b2a565b34801561054657600080fd5b50610436610555366004612275565b610b4a565b34801561056657600080fd5b50610436610b5c565b34801561057b57600080fd5b50610436610b62565b34801561059057600080fd5b506105a461059f366004612491565b610b68565b6040516103cb93929190612e09565b3480156105bf57600080fd5b50610436610b89565b3480156105d457600080fd5b506105e86105e3366004612293565b610b8f565b6040516103cb959493929190612e17565b34801561060557600080fd5b50610483610614366004612275565b610bc9565b34801561062557600080fd5b50610436610634366004612395565b610bde565b34801561064557600080fd5b506103e9610654366004612275565b610bf5565b34801561066557600080fd5b506103e9610c10565b34801561067a57600080fd5b50610436610c1f565b34801561068f57600080fd5b506103e9610c25565b3480156106a457600080fd5b50610436610c34565b3480156106b957600080fd5b50610483610c3a565b3480156106ce57600080fd5b506103e9610c43565b3480156106e357600080fd5b506103e96106f2366004612275565b610c52565b34801561070357600080fd5b50610483610c6d565b34801561071857600080fd5b50610436610727366004612275565b610c93565b34801561073857600080fd5b50610436610ca5565b34801561074d57600080fd5b50610436610cab565b34801561076257600080fd5b50610436610cb1565b34801561077757600080fd5b50610780610cb7565b6040516103cb9190612c80565b34801561079957600080fd5b506107ad6107a83660046123e2565b610cc6565b005b3480156107bb57600080fd5b506104366107ca366004612275565b610cfc565b3480156107db57600080fd5b506104366107ea366004612275565b610d0e565b3480156107fb57600080fd5b506103e9610d20565b34801561081057600080fd5b506103e9610d2f565b34801561082557600080fd5b50610436610834366004612275565b610d3e565b34801561084557600080fd5b50610859610854366004612491565b610d50565b6040516103cb9c9b9a99989796959493929190612bcd565b34801561087d57600080fd5b506107ad61088c366004612275565b610dc2565b34801561089d57600080fd5b506108b16108ac366004612491565b610ea5565b6040516103cb989796959493929190612b56565b3480156108d157600080fd5b506104366108e0366004612293565b610ef7565b3480156108f157600080fd5b506103e9610f14565b34801561090657600080fd5b50610436610f23565b34801561091b57600080fd5b5061043661092a366004612275565b610f29565b61094261093d3660046122cd565b610f3b565b6040516103cb929190612dfb565b34801561095c57600080fd5b506103e9611184565b34801561097157600080fd5b50610436611193565b34801561098657600080fd5b50610436611199565b34801561099b57600080fd5b506107ad6109aa366004612275565b61119f565b3480156109bb57600080fd5b506104366111cf565b3480156109d057600080fd5b506104366111d5565b3480156109e557600080fd5b506103e96111db565b3480156109fa57600080fd5b506103e96111ea565b6009602090815260009283526040808420909152908252902080546001820154600283015460038401546004850154600590950154939492939192909186565b6031546001600160a01b031681565b6005602052600090815260409020546001600160a01b031681565b603b60209081526000928352604080842090915290825290205481565b6023602052600090815260409020546001600160a01b031681565b60326020526000908152604090205460ff1681565b60185481565b601f5481565b6008602090815260009283526040808420909152908252902080546001820154600283015460038401546004850154600590950154939492939192909186565b601a6020526000908152604090205481565b602a6020526000908152604090205481565b600a60209081526000928352604080842090915290825290205460ff1681565b60166020526000908152604090205481565b60155481565b60295481565b600c6020526000908152604090208054600182015460029092015490919083565b602b5481565b600b602090815260009283526040808420909152908252902080546001820154600283015460038401546004909401549293919290919085565b60266020526000908152604090205460ff1681565b6000610beb8484846111f9565b90505b9392505050565b6033602052600090815260409020546001600160a01b031681565b6003546001600160a01b031681565b60355481565b6002546001600160a01b031681565b601e5481565b603d5460ff1681565b6001546001600160a01b031690565b6022602052600090815260409020546001600160a01b031681565b6001546000906001600160a01b0316610c84611287565b6001600160a01b031614905090565b60176020526000908152604090205481565b602c5481565b602f5481565b60205481565b602d546001600160a01b031681565b6000610cd38585856111f9565b905081811015610cf55760405162461bcd60e51b815260040161039090612d1f565b5050505050565b601d6020526000908152604090205481565b601c6020526000908152604090205481565b6037546001600160a01b031681565b6004546001600160a01b031681565b60366020526000908152604090205481565b600660208190526000918252604090912080546001820154600283015460038401546004850154600586015496860154600787015460088801546009890154600a8a0154600b909a0154989a9799969860ff909616979496949593949293919290916001600160a01b0391821691168c565b610dca610c6d565b610de65760405162461bcd60e51b815260040161039090612d4f565b63038c86d560e61b600081905260056020527fe705b9be7ab1128120df187531812b4c979d3ce42ed227d7df3b23e95341849e546001600160a01b031690610e2e908361128b565b610e3f631a51577760e21b8361128b565b610e506358bed2b760e11b8361128b565b6c14ddd85c1cd15e1d195c9b985b609a1b826001600160a01b0316826001600160a01b03167f1420e3a2094d671bc2eb897941fa3d94ffa37f0cb6d530651946250a2151cb7f60405160405180910390a45050565b6007602052600090815260409020805460018201546002830154600384015460048501546005860154600690960154949560ff8516956101009095046001600160a01b03908116959481169493169288565b603c60209081526000928352604080842090915290825290205481565b6038546001600160a01b031681565b60275481565b60196020526000908152604090205481565b600080600160005414610f605760405162461bcd60e51b815260040161039090612d8f565b6002600055603d5460ff1615610f885760405162461bcd60e51b815260040161039090612c9f565b85610fa55760405162461bcd60e51b815260040161039090612caf565b610fb18a8a8887610cc6565b341561108e576001600160a01b038a16610fd457602d546001600160a01b031699505b602d546001600160a01b038b81169116146110015760405162461bcd60e51b815260040161039090612d2f565b8534146110205760405162461bcd60e51b815260040161039090612d5f565b602d60009054906101000a90046001600160a01b03166001600160a01b031663d0e30db0876040518263ffffffff1660e01b81526004016000604051808303818588803b15801561107057600080fd5b505af1158015611084573d6000803e3d6000fd5b50505050506110b0565b3033146110b0576110b06001600160a01b038b1633308963ffffffff61130716565b6040805160a0810182526001600160a01b03808d1682528b81166020808401919091528b821683850152908a166060808401919091523360808401528351908101845289815290810189905291820187905261111191600080876001611368565b8092508193505050886001600160a01b03168a6001600160a01b0316336001600160a01b03167f03d3f38d1a433bb469c160c1704d282fe2b74819ba8ec9c223e685dd2a0b05478486604051611168929190612dfb565b60405180910390a4600160005590999098509650505050505050565b6014546001600160a01b031681565b601b5481565b60285481565b6111a7610c6d565b6111c35760405162461bcd60e51b815260040161039090612d4f565b6111cc8161158d565b50565b60395481565b60215481565b602e546001600160a01b031681565b6030546001600160a01b031681565b604051636dcd64e560e01b815260009073__$6b3065420287e4be5d93089ad806c078e3$__90636dcd64e59061123790879087908790600401612aea565b60206040518083038186803b15801561124f57600080fd5b505af4158015611263573d6000803e3d6000fd5b505050506040513d601f19601f82011682018060405250610beb91908101906124ec565b3390565b6001600160e01b03198216600090815260056020526040902080546001600160a01b0319166001600160a01b038316908117909155156112e6576112e0600d6001600160e01b0319841663ffffffff61160f16565b50611303565b611301600d6001600160e01b0319841663ffffffff61165916565b505b5050565b6040516113629085906323b872dd60e01b9061132b90879087908790602401612aea565b60408051601f198184030181529190526020810180516001600160e01b03166001600160e01b03199093169290921790915261171a565b50505050565b8451600090819015158061137f5750602087015115155b61139b5760405162461bcd60e51b815260040161039090612d7f565b60208701516113ac57865160208801525b6020870151875111156113d15760405162461bcd60e51b815260040161039090612d0f565b60008060008761148e5760408a015161144d578515611402576113fb8a60005b60200201516117ff565b9050611416565b6114138a60005b602002015161182f565b90505b80156114485760808b01518b5161143991908b908e60015b602002015185611853565b895161144590826119af565b8a525b61148e565b85156114655761145e8a60026113f1565b9050611473565b6114708a6002611409565b90505b801561148e5760408a015161148890826119f1565b60408b01525b8651156114ad5760405162461bcd60e51b815260040161039090612d9f565b6114b78b8b611a16565b60408c0151919450925061150357895182146114e55760405162461bcd60e51b815260040161039090612dbf565b80156114fe576114fb828263ffffffff6119f116565b91505b61157d565b60208a01518211156115275760405162461bcd60e51b815260040161039090612cff565b60408a015183101561154b5760405162461bcd60e51b815260040161039090612cbf565b801561157d5760808b015160208c015161156a91908b908e600061142e565b61157a838263ffffffff6119af16565b92505b5090999098509650505050505050565b6001600160a01b0381166115b35760405162461bcd60e51b815260040161039090612ccf565b6001546040516001600160a01b038084169216907f8be0079c531659141344cd1fd0a4f28419497f9722a3daafe3b4186f6b6457e090600090a3600180546001600160a01b0319166001600160a01b0392909216919091179055565b600061161b8383611b00565b61164f5750600180830180548083018083556000928352602080842090920185905584835290859052604090912055611653565b5060005b92915050565b60006116658383611b00565b1561164f57600082815260208490526040902054600184015460001991820191018082146116dd57600085600101828154811061169e57fe5b90600052602060002001549050808660010184815481106116bb57fe5b6000918252602080832090910192909255918252869052604090206001830190555b600084815260208690526040812055600185018054806116f957fe5b60019003818190600052602060002001600090559055600192505050611653565b61172c826001600160a01b0316611b15565b6117485760405162461bcd60e51b815260040161039090612dcf565b60006060836001600160a01b0316836040516117649190612a92565b6000604051808303816000865af19150503d80600081146117a1576040519150601f19603f3d011682016040523d82523d6000602084013e6117a6565b606091505b5091509150816117c85760405162461bcd60e51b815260040161039090612cef565b80511561136257808060200190516117e39190810190612473565b6113625760405162461bcd60e51b815260040161039090612daf565b600061165368056bc75e2d63100000611823603e5485611b5190919063ffffffff16565b9063ffffffff611b8b16565b600061165368056bc75e2d6310000061182360185485611b5190919063ffffffff16565b8080156119a7576001600160a01b038681166000908152603360205260409020541615611915576001600160a01b038087166000908152603360205260409020546118a19116878684611bcd565b50506119126118d468056bc75e2d631000006118c860395485611b5190919063ffffffff16565b9063ffffffff611c5916565b6119066118f968056bc75e2d631000006118c860205487611b5190919063ffffffff16565b849063ffffffff6119af16565b9063ffffffff6119af16565b90505b6001600160a01b03841660009081526019602052604090205461193e908263ffffffff6119f116565b6001600160a01b03808616600081815260196020526040908190209390935591518792918916907fb23479169712c443e6b00fb0cec3506a5f5926f541df4243d313e11c8c5c71ed90611992908690612ded565b60405180910390a46119a78686868686611c9b565b505050505050565b6000610bee83836040518060400160405280601e81526020017f536166654d6174683a207375627472616374696f6e206f766572666c6f770000815250612101565b600082820183811015610bee5760405162461bcd60e51b815260040161039090612cdf565b600080611a216121ae565b84516001600160a01b039081168252602080870151821683820152604080880151831681850152606080890151909316928401929092528551608084015285015160a08301528481015160c0830152516335aaa79d60e01b815273__$6b3065420287e4be5d93089ad806c078e3$__906335aaa79d90611aa5908490600401612ddf565b604080518083038186803b158015611abc57600080fd5b505af4158015611ad0573d6000803e3d6000fd5b505050506040513d601f19601f82011682018060405250611af4919081019061250a565b90969095509350505050565b60009081526020919091526040902054151590565b6000813f7fc5d2460186f7233c927e7db2dcc703c0e500b653ca82273b7bfad8045d85a470818114801590611b4957508115155b949350505050565b600082611b6057506000611653565b82820282848281611b6d57fe5b0414610bee5760405162461bcd60e51b815260040161039090612d3f565b6000610bee83836040518060400160405280601a81526020017f536166654d6174683a206469766973696f6e206279207a65726f00000000000081525061212d565b6040516306a688ff60e11b815260009081903090630d4d11fe90611bfb908990899089908990600401612aac565b6040805180830381600087803b158015611c1457600080fd5b505af1158015611c28573d6000803e3d6000fd5b505050506040513d601f19601f82011682018060405250611c4c919081019061250a565b9097909650945050505050565b6000610bee83836040518060400160405280601a81526020017f536166654d6174683a206469766973696f6e206279207a65726f000000000000815250612177565b602f546002546001600160a01b038581166000908152603c602090815260408083208885168452909152812054909392919091169015611cfe576001600160a01b038087166000908152603c602090815260408083209389168352929052205491505b6037546000906060906001600160a01b038085169163d138f9a160e01b918b9116611d3c68056bc75e2d631000006118c88c8b63ffffffff611b5116565b604051602401611d4e93929190612aea565b60408051601f198184030181529181526020820180516001600160e01b03166001600160e01b0319909416939093179092529051611d8c9190612a92565b600060405180830381855afa9150503d8060008114611dc7576040519150601f19603f3d011682016040523d82523d6000602084013e611dcc565b606091505b50915091506001821415611de257602081015194505b6000306001600160a01b031663c22552f76040518163ffffffff1660e01b815260040160206040518083038186803b158015611e1d57600080fd5b505afa158015611e31573d6000803e3d6000fd5b505050506040513d601f19601f82011682018060405250611e5591908101906124ec565b90508515801590611e665750858110155b1561208e5760375460385460405163095ea7b360e01b81526001600160a01b039283169263095ea7b392611ea1929116908a90600401612b12565b602060405180830381600087803b158015611ebb57600080fd5b505af1158015611ecf573d6000803e3d6000fd5b505050506040513d601f19601f82011682018060405250611ef39190810190612473565b50603854603f546040516000926001600160a01b031691611f1a918f918b91602401612b2d565b60408051601f198184030181529181526020820180516001600160e01b0316630efe6a8b60e01b17905251611f4f9190612a92565b6000604051808303816000865af19150503d8060008114611f8c576040519150601f19603f3d011682016040523d82523d6000602084013e611f91565b606091505b50509050801561202057601f54611fae908863ffffffff6119f116565b601f819055508a603760009054906101000a90046001600160a01b03166001600160a01b03168d6001600160a01b03167ff41c644671512f1cda76abfe6038e3d7d526c1377a5a8c692f81703901db2150898b603f5460405161201393929190612e09565b60405180910390a4612088565b8a603760009054906101000a90046001600160a01b03166001600160a01b03168d6001600160a01b03167f483f67ea49f76ac15e15bbad68b52788ca47d50aef1e4acfe95e5e307e710812898b603f5460405161207f93929190612e09565b60405180910390a45b506120f4565b851580159061209c57508581105b156120f457603754603f546040518c926001600160a01b0390811692908f16917f483f67ea49f76ac15e15bbad68b52788ca47d50aef1e4acfe95e5e307e710812916120eb918b918d91612e09565b60405180910390a45b5050505050505050505050565b600081848411156121255760405162461bcd60e51b81526004016103909190612c8e565b505050900390565b6000818361214e5760405162461bcd60e51b81526004016103909190612c8e565b508361215c57506000610bee565b600083600186038161216a57fe5b0460010195945050505050565b600081836121985760405162461bcd60e51b81526004016103909190612c8e565b5060008385816121a457fe5b0495945050505050565b6040805160e081018252600080825260208201819052918101829052606081018290526080810182905260a0810182905260c081019190915290565b803561165381612f97565b805161165381612fab565b803561165381612fb4565b803561165381612fbd565b600082601f83011261222757600080fd5b813561223a61223582612ee4565b612ebd565b9150808252602083016020830185838301111561225657600080fd5b612261838284612f55565b50505092915050565b805161165381612fb4565b60006020828403121561228757600080fd5b6000611b4984846121ea565b600080604083850312156122a657600080fd5b60006122b285856121ea565b92505060206122c3858286016121ea565b9150509250929050565b600080600080600080600080610100898b0312156122ea57600080fd5b60006122f68b8b6121ea565b98505060206123078b828c016121ea565b97505060406123188b828c016121ea565b96505060606123298b828c016121ea565b955050608061233a8b828c01612200565b94505060a061234b8b828c01612200565b93505060c061235c8b828c01612200565b92505060e089013567ffffffffffffffff81111561237957600080fd5b6123858b828c01612216565b9150509295985092959890939650565b6000806000606084860312156123aa57600080fd5b60006123b686866121ea565b93505060206123c7868287016121ea565b92505060406123d886828701612200565b9150509250925092565b600080600080608085870312156123f857600080fd5b600061240487876121ea565b9450506020612415878288016121ea565b935050604061242687828801612200565b925050606061243787828801612200565b91505092959194509250565b6000806040838503121561245657600080fd5b600061246285856121ea565b92505060206122c385828601612200565b60006020828403121561248557600080fd5b6000611b4984846121f5565b6000602082840312156124a357600080fd5b6000611b498484612200565b600080604083850312156124c257600080fd5b60006122b28585612200565b6000602082840312156124e057600080fd5b6000611b49848461220b565b6000602082840312156124fe57600080fd5b6000611b49848461226a565b6000806040838503121561251d57600080fd5b6000612529858561226a565b92505060206122c38582860161226a565b61254381612f1e565b82525050565b61254381612f29565b61254381612f2e565b600061256682612f0c565b6125708185612f10565b9350612580818560208601612f61565b9290920192915050565b61254381612f4a565b600061259e82612f0c565b6125a88185612f15565b93506125b8818560208601612f61565b6125c181612f8d565b9093019392505050565b60006125d8600683612f15565b6514185d5cd95960d21b815260200192915050565b60006125fa601683612f15565b750736f75726365546f6b656e416d6f756e74203d3d20360541b815260200192915050565b600061262c601b83612f15565b7f696e73756666696369656e742073776170206c69717569646974790000000000815260200192915050565b6000612665602683612f15565b7f4f776e61626c653a206e6577206f776e657220697320746865207a65726f206181526564647265737360d01b602082015260400192915050565b60006126ad601b83612f15565b7f536166654d6174683a206164646974696f6e206f766572666c6f770000000000815260200192915050565b60006126e6602083612f15565b7f5361666545524332303a206c6f772d6c6576656c2063616c6c206661696c6564815260200192915050565b600061271f601383612f15565b72737761702066696c6c20746f6f206c6172676560681b815260200192915050565b600061274e601c83612f15565b7f736f75726365416d6f756e74206c6172676572207468616e206d617800000000815260200192915050565b6000612787601f83612f15565b7f64657374546f6b656e416d6f756e74526563656976656420746f6f206c6f7700815260200192915050565b60006127c0601483612f15565b730e6deeae4c6caa8ded6cadc40dad2e6dac2e8c6d60631b815260200192915050565b60006127f0602183612f15565b7f536166654d6174683a206d756c7469706c69636174696f6e206f766572666c6f8152607760f81b602082015260400192915050565b6000612833600c83612f15565b6b1d5b985d5d1a1bdc9a5e995960a21b815260200192915050565b600061285b601a83612f15565b7f736f75726365546f6b656e416d6f756e74206d69736d61746368000000000000815260200192915050565b6000612894601483612f15565b7319985b1b189858dac81b9bdd08185b1b1bddd95960621b815260200192915050565b60006128c4602e83612f15565b7f6d696e206f72206d617820736f7572636520746f6b656e20616d6f756e74206e81526d1959591cc81d1bc81899481cd95d60921b602082015260400192915050565b6000612914600c83612f15565b6b1b9bdb9499595b9d1c985b9d60a21b815260200192915050565b600061293c600d83612f15565b6c696e76616c696420737461746560981b815260200192915050565b6000612965602a83612f15565b7f5361666545524332303a204552433230206f7065726174696f6e20646964206e8152691bdd081cdd58d8d9595960b21b602082015260400192915050565b60006129b1601683612f15565b751cddd85c081d1bdbc81b185c99d9481d1bc8199a5b1b60521b815260200192915050565b60006129e3601f83612f15565b7f5361666545524332303a2063616c6c20746f206e6f6e2d636f6e747261637400815260200192915050565b805160e0830190612a20848261253a565b506020820151612a33602085018261253a565b506040820151612a46604085018261253a565b506060820151612a59606085018261253a565b506080820151612a6c6080850182612552565b5060a0820151612a7f60a0850182612552565b5060c082015161136260c0850182612552565b6000610bee828461255b565b60208101611653828461253a565b60808101612aba828761253a565b612ac7602083018661253a565b612ad4604083018561253a565b612ae16060830184612552565b95945050505050565b60608101612af8828661253a565b612b05602083018561253a565b611b496040830184612552565b60408101612b20828561253a565b610bee6020830184612552565b60608101612b3b828661253a565b612b056020830185612552565b602081016116538284612549565b6101008101612b65828b612552565b612b72602083018a612549565b612b7f604083018961253a565b612b8c606083018861253a565b612b99608083018761253a565b612ba660a0830186612552565b612bb360c0830185612552565b612bc060e0830184612552565b9998505050505050505050565b6101808101612bdc828f612552565b612be9602083018e612552565b612bf6604083018d612552565b612c03606083018c612549565b612c10608083018b612552565b612c1d60a083018a612552565b612c2a60c0830189612552565b612c3760e0830188612552565b612c45610100830187612552565b612c53610120830186612552565b612c6161014083018561253a565b612c6f61016083018461253a565b9d9c50505050505050505050505050565b60208101611653828461258a565b60208082528101610bee8184612593565b60208082528101611653816125cb565b60208082528101611653816125ed565b602080825281016116538161261f565b6020808252810161165381612658565b60208082528101611653816126a0565b60208082528101611653816126d9565b6020808252810161165381612712565b6020808252810161165381612741565b602080825281016116538161277a565b60208082528101611653816127b3565b60208082528101611653816127e3565b6020808252810161165381612826565b602080825281016116538161284e565b6020808252810161165381612887565b60208082528101611653816128b7565b6020808252810161165381612907565b602080825281016116538161292f565b6020808252810161165381612958565b60208082528101611653816129a4565b60208082528101611653816129d6565b60e081016116538284612a0f565b602081016116538284612552565b60408101612b208285612552565b60608101612b3b8286612552565b60a08101612e258288612552565b612e326020830187612552565b612e3f6040830186612552565b612e4c6060830185612552565b612e596080830184612552565b9695505050505050565b60c08101612e718289612552565b612e7e6020830188612552565b612e8b6040830187612552565b612e986060830186612552565b612ea56080830185612552565b612eb260a0830184612552565b979650505050505050565b60405181810167ffffffffffffffff81118282101715612edc57600080fd5b604052919050565b600067ffffffffffffffff821115612efb57600080fd5b506020601f91909101601f19160190565b5190565b919050565b90815260200190565b600061165382612f3e565b151590565b90565b6001600160e01b03191690565b6001600160a01b031690565b600061165382612f1e565b82818337506000910152565b60005b83811015612f7c578181015183820152602001612f64565b838111156113625750506000910152565b601f01601f191690565b612fa081612f1e565b81146111cc57600080fd5b612fa081612f29565b612fa081612f2e565b612fa081612f3156fea365627a7a7231582027d9926032a476ba1adf5cf1465872fec8b48c50c8ac76e40cef89343dabe38d6c6578706572696d656e74616cf564736f6c63430005110040",
  "libraries": {
    "SwapsImplSovrynSwapLib": "0x94D7CEE3Fe77432312e4faCf4dc416CA5Cd224a6"
  },
  "devdoc": {
    "methods": {
      "checkPriceDivergence(address,address,uint256,uint256)": {
        "params": {
          "destToken": "The address of the destiny token instance.",
          "minReturn": "The amount (max slippage) that will be compared to the swapsExpectedReturn.     ",
          "sourceToken": "The address of the source token instance.",
          "sourceTokenAmount": "The amount of source tokens."
        }
      },
      "getSwapExpectedReturn(address,address,uint256)": {
        "details": "External wrapper that calls SwapsUser::_swapsExpectedReturn",
        "params": {
          "destToken": "The address of the destiny token instance.",
          "sourceToken": "The address of the source token instance.",
          "sourceTokenAmount": "The amount of source tokens."
        },
        "return": "The expected return value."
      },
      "initialize(address)": {
        "params": {
          "target": "The address of the target contract."
        }
      },
      "isOwner()": {
        "details": "Returns true if the caller is the current owner."
      },
      "owner()": {
        "details": "Returns the address of the current owner."
      },
      "swapExternal(address,address,address,address,uint256,uint256,uint256,bytes)": {
        "details": "External wrapper that calls SwapsUser::_swapsCall after turning potential incoming rBTC into wrBTC tokens.",
        "params": {
          "destToken": "The address of the destiny token instance.",
          "minReturn": "Minimum amount (position size) in the collateral tokens.",
          "receiver": "The address of the recipient account.",
          "requiredDestTokenAmount": "The amount of required destiny tokens.",
          "returnToSender": "The address of the sender account.",
          "sourceToken": "The address of the source token instance.",
          "sourceTokenAmount": "The amount of source tokens.",
          "swapData": "Additional swap data (not in use yet)."
        },
        "return": "destTokenAmountReceived The amount of destiny tokens sent.sourceTokenAmountUsed The amount of source tokens spent."
      },
      "transferOwnership(address)": {
        "details": "Transfers ownership of the contract to a new account (`newOwner`). Can only be called by the current owner."
      }
    },
    "title": "Swaps External contract."
  },
  "userdoc": {
    "methods": {
      "checkPriceDivergence(address,address,uint256,uint256)": {
        "notice": "Check the slippage based on the swapExpectedReturn."
      },
      "constructor": "Empty public constructor.",
      "getSwapExpectedReturn(address,address,uint256)": {
        "notice": "Get the swap expected return value."
      },
      "initialize(address)": {
        "notice": "Set function selectors on target contract."
      },
      "swapExternal(address,address,address,address,uint256,uint256,uint256,bytes)": {
        "notice": "Perform a swap w/ tokens or rBTC as source currency."
      }
    },
    "notice": "This contract code comes from bZx. bZx is a protocol for tokenized margin trading and lending https://bzx.network similar to the dYdX protocol. * This contract contains functions to calculate and execute swaps."
  },
  "storageLayout": {
    "storage": [
      {
        "astId": 54790,
        "contract": "contracts/modules/SwapsExternal.sol:SwapsExternal",
        "label": "reentrancyLock",
        "offset": 0,
        "slot": "0",
        "type": "t_uint256"
      },
      {
        "astId": 54606,
        "contract": "contracts/modules/SwapsExternal.sol:SwapsExternal",
        "label": "_owner",
        "offset": 0,
        "slot": "1",
        "type": "t_address"
      },
      {
        "astId": 6188,
        "contract": "contracts/modules/SwapsExternal.sol:SwapsExternal",
        "label": "priceFeeds",
        "offset": 0,
        "slot": "2",
        "type": "t_address"
      },
      {
        "astId": 6190,
        "contract": "contracts/modules/SwapsExternal.sol:SwapsExternal",
        "label": "swapsImpl",
        "offset": 0,
        "slot": "3",
        "type": "t_address"
      },
      {
        "astId": 6192,
        "contract": "contracts/modules/SwapsExternal.sol:SwapsExternal",
        "label": "sovrynSwapContractRegistryAddress",
        "offset": 0,
        "slot": "4",
        "type": "t_address"
      },
      {
        "astId": 6196,
        "contract": "contracts/modules/SwapsExternal.sol:SwapsExternal",
        "label": "logicTargets",
        "offset": 0,
        "slot": "5",
        "type": "t_mapping(t_bytes4,t_address)"
      },
      {
        "astId": 6200,
        "contract": "contracts/modules/SwapsExternal.sol:SwapsExternal",
        "label": "loans",
        "offset": 0,
        "slot": "6",
        "type": "t_mapping(t_bytes32,t_struct(Loan)6566_storage)"
      },
      {
        "astId": 6204,
        "contract": "contracts/modules/SwapsExternal.sol:SwapsExternal",
        "label": "loanParams",
        "offset": 0,
        "slot": "7",
        "type": "t_mapping(t_bytes32,t_struct(LoanParams)6538_storage)"
      },
      {
        "astId": 6210,
        "contract": "contracts/modules/SwapsExternal.sol:SwapsExternal",
        "label": "lenderOrders",
        "offset": 0,
        "slot": "8",
        "type": "t_mapping(t_address,t_mapping(t_bytes32,t_struct(Order)6582_storage))"
      },
      {
        "astId": 6216,
        "contract": "contracts/modules/SwapsExternal.sol:SwapsExternal",
        "label": "borrowerOrders",
        "offset": 0,
        "slot": "9",
        "type": "t_mapping(t_address,t_mapping(t_bytes32,t_struct(Order)6582_storage))"
      },
      {
        "astId": 6222,
        "contract": "contracts/modules/SwapsExternal.sol:SwapsExternal",
        "label": "delegatedManagers",
        "offset": 0,
        "slot": "10",
        "type": "t_mapping(t_bytes32,t_mapping(t_address,t_bool))"
      },
      {
        "astId": 6228,
        "contract": "contracts/modules/SwapsExternal.sol:SwapsExternal",
        "label": "lenderInterest",
        "offset": 0,
        "slot": "11",
        "type": "t_mapping(t_address,t_mapping(t_address,t_struct(LenderInterest)6508_storage))"
      },
      {
        "astId": 6232,
        "contract": "contracts/modules/SwapsExternal.sol:SwapsExternal",
        "label": "loanInterest",
        "offset": 0,
        "slot": "12",
        "type": "t_mapping(t_bytes32,t_struct(LoanInterest)6518_storage)"
      },
      {
        "astId": 6234,
        "contract": "contracts/modules/SwapsExternal.sol:SwapsExternal",
        "label": "logicTargetsSet",
        "offset": 0,
        "slot": "13",
        "type": "t_struct(Bytes32Set)36272_storage"
      },
      {
        "astId": 6236,
        "contract": "contracts/modules/SwapsExternal.sol:SwapsExternal",
        "label": "activeLoansSet",
        "offset": 0,
        "slot": "15",
        "type": "t_struct(Bytes32Set)36272_storage"
      },
      {
        "astId": 6240,
        "contract": "contracts/modules/SwapsExternal.sol:SwapsExternal",
        "label": "lenderLoanSets",
        "offset": 0,
        "slot": "17",
        "type": "t_mapping(t_address,t_struct(Bytes32Set)36272_storage)"
      },
      {
        "astId": 6244,
        "contract": "contracts/modules/SwapsExternal.sol:SwapsExternal",
        "label": "borrowerLoanSets",
        "offset": 0,
        "slot": "18",
        "type": "t_mapping(t_address,t_struct(Bytes32Set)36272_storage)"
      },
      {
        "astId": 6248,
        "contract": "contracts/modules/SwapsExternal.sol:SwapsExternal",
        "label": "userLoanParamSets",
        "offset": 0,
        "slot": "19",
        "type": "t_mapping(t_address,t_struct(Bytes32Set)36272_storage)"
      },
      {
        "astId": 6250,
        "contract": "contracts/modules/SwapsExternal.sol:SwapsExternal",
        "label": "feesController",
        "offset": 0,
        "slot": "20",
        "type": "t_address"
      },
      {
        "astId": 6255,
        "contract": "contracts/modules/SwapsExternal.sol:SwapsExternal",
        "label": "lendingFeePercent",
        "offset": 0,
        "slot": "21",
        "type": "t_uint256"
      },
      {
        "astId": 6259,
        "contract": "contracts/modules/SwapsExternal.sol:SwapsExternal",
        "label": "lendingFeeTokensHeld",
        "offset": 0,
        "slot": "22",
        "type": "t_mapping(t_address,t_uint256)"
      },
      {
        "astId": 6263,
        "contract": "contracts/modules/SwapsExternal.sol:SwapsExternal",
        "label": "lendingFeeTokensPaid",
        "offset": 0,
        "slot": "23",
        "type": "t_mapping(t_address,t_uint256)"
      },
      {
        "astId": 6270,
        "contract": "contracts/modules/SwapsExternal.sol:SwapsExternal",
        "label": "tradingFeePercent",
        "offset": 0,
        "slot": "24",
        "type": "t_uint256"
      },
      {
        "astId": 6274,
        "contract": "contracts/modules/SwapsExternal.sol:SwapsExternal",
        "label": "tradingFeeTokensHeld",
        "offset": 0,
        "slot": "25",
        "type": "t_mapping(t_address,t_uint256)"
      },
      {
        "astId": 6278,
        "contract": "contracts/modules/SwapsExternal.sol:SwapsExternal",
        "label": "tradingFeeTokensPaid",
        "offset": 0,
        "slot": "26",
        "type": "t_mapping(t_address,t_uint256)"
      },
      {
        "astId": 6285,
        "contract": "contracts/modules/SwapsExternal.sol:SwapsExternal",
        "label": "borrowingFeePercent",
        "offset": 0,
        "slot": "27",
        "type": "t_uint256"
      },
      {
        "astId": 6289,
        "contract": "contracts/modules/SwapsExternal.sol:SwapsExternal",
        "label": "borrowingFeeTokensHeld",
        "offset": 0,
        "slot": "28",
        "type": "t_mapping(t_address,t_uint256)"
      },
      {
        "astId": 6293,
        "contract": "contracts/modules/SwapsExternal.sol:SwapsExternal",
        "label": "borrowingFeeTokensPaid",
        "offset": 0,
        "slot": "29",
        "type": "t_mapping(t_address,t_uint256)"
      },
      {
        "astId": 6295,
        "contract": "contracts/modules/SwapsExternal.sol:SwapsExternal",
        "label": "protocolTokenHeld",
        "offset": 0,
        "slot": "30",
        "type": "t_uint256"
      },
      {
        "astId": 6297,
        "contract": "contracts/modules/SwapsExternal.sol:SwapsExternal",
        "label": "protocolTokenPaid",
        "offset": 0,
        "slot": "31",
        "type": "t_uint256"
      },
      {
        "astId": 6304,
        "contract": "contracts/modules/SwapsExternal.sol:SwapsExternal",
        "label": "affiliateFeePercent",
        "offset": 0,
        "slot": "32",
        "type": "t_uint256"
      },
      {
        "astId": 6311,
        "contract": "contracts/modules/SwapsExternal.sol:SwapsExternal",
        "label": "liquidationIncentivePercent",
        "offset": 0,
        "slot": "33",
        "type": "t_uint256"
      },
      {
        "astId": 6315,
        "contract": "contracts/modules/SwapsExternal.sol:SwapsExternal",
        "label": "loanPoolToUnderlying",
        "offset": 0,
        "slot": "34",
        "type": "t_mapping(t_address,t_address)"
      },
      {
        "astId": 6319,
        "contract": "contracts/modules/SwapsExternal.sol:SwapsExternal",
        "label": "underlyingToLoanPool",
        "offset": 0,
        "slot": "35",
        "type": "t_mapping(t_address,t_address)"
      },
      {
        "astId": 6321,
        "contract": "contracts/modules/SwapsExternal.sol:SwapsExternal",
        "label": "loanPoolsSet",
        "offset": 0,
        "slot": "36",
        "type": "t_struct(Bytes32Set)36272_storage"
      },
      {
        "astId": 6325,
        "contract": "contracts/modules/SwapsExternal.sol:SwapsExternal",
        "label": "supportedTokens",
        "offset": 0,
        "slot": "38",
        "type": "t_mapping(t_address,t_bool)"
      },
      {
        "astId": 6332,
        "contract": "contracts/modules/SwapsExternal.sol:SwapsExternal",
        "label": "maxDisagreement",
        "offset": 0,
        "slot": "39",
        "type": "t_uint256"
      },
      {
        "astId": 6335,
        "contract": "contracts/modules/SwapsExternal.sol:SwapsExternal",
        "label": "sourceBuffer",
        "offset": 0,
        "slot": "40",
        "type": "t_uint256"
      },
      {
        "astId": 6338,
        "contract": "contracts/modules/SwapsExternal.sol:SwapsExternal",
        "label": "maxSwapSize",
        "offset": 0,
        "slot": "41",
        "type": "t_uint256"
      },
      {
        "astId": 6342,
        "contract": "contracts/modules/SwapsExternal.sol:SwapsExternal",
        "label": "borrowerNonce",
        "offset": 0,
        "slot": "42",
        "type": "t_mapping(t_address,t_uint256)"
      },
      {
        "astId": 6345,
        "contract": "contracts/modules/SwapsExternal.sol:SwapsExternal",
        "label": "rolloverBaseReward",
        "offset": 0,
        "slot": "43",
        "type": "t_uint256"
      },
      {
        "astId": 6348,
        "contract": "contracts/modules/SwapsExternal.sol:SwapsExternal",
        "label": "rolloverFlexFeePercent",
        "offset": 0,
        "slot": "44",
        "type": "t_uint256"
      },
      {
        "astId": 6350,
        "contract": "contracts/modules/SwapsExternal.sol:SwapsExternal",
        "label": "wrbtcToken",
        "offset": 0,
        "slot": "45",
        "type": "t_contract(IWrbtcERC20)35073"
      },
      {
        "astId": 6352,
        "contract": "contracts/modules/SwapsExternal.sol:SwapsExternal",
        "label": "protocolTokenAddress",
        "offset": 0,
        "slot": "46",
        "type": "t_address"
      },
      {
        "astId": 6359,
        "contract": "contracts/modules/SwapsExternal.sol:SwapsExternal",
        "label": "feeRebatePercent",
        "offset": 0,
        "slot": "47",
        "type": "t_uint256"
      },
      {
        "astId": 6361,
        "contract": "contracts/modules/SwapsExternal.sol:SwapsExternal",
        "label": "admin",
        "offset": 0,
        "slot": "48",
        "type": "t_address"
      },
      {
        "astId": 6363,
        "contract": "contracts/modules/SwapsExternal.sol:SwapsExternal",
        "label": "protocolAddress",
        "offset": 0,
        "slot": "49",
        "type": "t_address"
      },
      {
        "astId": 6367,
        "contract": "contracts/modules/SwapsExternal.sol:SwapsExternal",
        "label": "userNotFirstTradeFlag",
        "offset": 0,
        "slot": "50",
        "type": "t_mapping(t_address,t_bool)"
      },
      {
        "astId": 6371,
        "contract": "contracts/modules/SwapsExternal.sol:SwapsExternal",
        "label": "affiliatesUserReferrer",
        "offset": 0,
        "slot": "51",
        "type": "t_mapping(t_address,t_address)"
      },
      {
        "astId": 6375,
        "contract": "contracts/modules/SwapsExternal.sol:SwapsExternal",
        "label": "referralsList",
        "offset": 0,
        "slot": "52",
        "type": "t_mapping(t_address,t_struct(AddressSet)35966_storage)"
      },
      {
        "astId": 6378,
        "contract": "contracts/modules/SwapsExternal.sol:SwapsExternal",
        "label": "minReferralsToPayout",
        "offset": 0,
        "slot": "53",
        "type": "t_uint256"
      },
      {
        "astId": 6382,
        "contract": "contracts/modules/SwapsExternal.sol:SwapsExternal",
        "label": "affiliateRewardsHeld",
        "offset": 0,
        "slot": "54",
        "type": "t_mapping(t_address,t_uint256)"
      },
      {
        "astId": 6384,
        "contract": "contracts/modules/SwapsExternal.sol:SwapsExternal",
        "label": "sovTokenAddress",
        "offset": 0,
        "slot": "55",
        "type": "t_address"
      },
      {
        "astId": 6386,
        "contract": "contracts/modules/SwapsExternal.sol:SwapsExternal",
        "label": "lockedSOVAddress",
        "offset": 0,
        "slot": "56",
        "type": "t_address"
      },
      {
        "astId": 6393,
        "contract": "contracts/modules/SwapsExternal.sol:SwapsExternal",
        "label": "affiliateTradingTokenFeePercent",
        "offset": 0,
        "slot": "57",
        "type": "t_uint256"
      },
      {
        "astId": 6397,
        "contract": "contracts/modules/SwapsExternal.sol:SwapsExternal",
        "label": "affiliatesReferrerTokensList",
        "offset": 0,
        "slot": "58",
        "type": "t_mapping(t_address,t_struct(AddressSet)35966_storage)"
      },
      {
        "astId": 6403,
        "contract": "contracts/modules/SwapsExternal.sol:SwapsExternal",
        "label": "affiliatesReferrerBalances",
        "offset": 0,
        "slot": "59",
        "type": "t_mapping(t_address,t_mapping(t_address,t_uint256))"
      },
      {
        "astId": 6409,
        "contract": "contracts/modules/SwapsExternal.sol:SwapsExternal",
        "label": "specialRebates",
        "offset": 0,
        "slot": "60",
        "type": "t_mapping(t_address,t_mapping(t_address,t_uint256))"
      },
      {
        "astId": 6411,
        "contract": "contracts/modules/SwapsExternal.sol:SwapsExternal",
        "label": "pause",
        "offset": 0,
        "slot": "61",
        "type": "t_bool"
      },
      {
        "astId": 6413,
        "contract": "contracts/modules/SwapsExternal.sol:SwapsExternal",
        "label": "swapExtrernalFeePercent",
        "offset": 0,
        "slot": "62",
        "type": "t_uint256"
      },
      {
        "astId": 6415,
        "contract": "contracts/modules/SwapsExternal.sol:SwapsExternal",
        "label": "tradingRebateRewardsBasisPoint",
        "offset": 0,
        "slot": "63",
        "type": "t_uint256"
      },
      {
        "astId": 6422,
        "contract": "contracts/modules/SwapsExternal.sol:SwapsExternal",
        "label": "defaultPathConversion",
        "offset": 0,
        "slot": "64",
        "type": "t_mapping(t_address,t_mapping(t_address,t_array(t_contract(IERC20)33292)dyn_storage))"
      },
      {
        "astId": 6424,
        "contract": "contracts/modules/SwapsExternal.sol:SwapsExternal",
        "label": "pauser",
        "offset": 0,
        "slot": "65",
        "type": "t_address"
      }
    ],
    "types": {
      "t_address": {
        "encoding": "inplace",
        "label": "address",
        "numberOfBytes": "20"
      },
      "t_array(t_address)dyn_storage": {
        "base": "t_address",
        "encoding": "dynamic_array",
        "label": "address[]",
        "numberOfBytes": "32"
      },
      "t_array(t_bytes32)dyn_storage": {
        "base": "t_bytes32",
        "encoding": "dynamic_array",
        "label": "bytes32[]",
        "numberOfBytes": "32"
      },
      "t_array(t_contract(IERC20)33292)dyn_storage": {
        "base": "t_contract(IERC20)33292",
        "encoding": "dynamic_array",
        "label": "contract IERC20[]",
        "numberOfBytes": "32"
      },
      "t_bool": {
        "encoding": "inplace",
        "label": "bool",
        "numberOfBytes": "1"
      },
      "t_bytes32": {
        "encoding": "inplace",
        "label": "bytes32",
        "numberOfBytes": "32"
      },
      "t_bytes4": {
        "encoding": "inplace",
        "label": "bytes4",
        "numberOfBytes": "4"
      },
      "t_contract(IERC20)33292": {
        "encoding": "inplace",
        "label": "contract IERC20",
        "numberOfBytes": "20"
      },
      "t_contract(IWrbtcERC20)35073": {
        "encoding": "inplace",
        "label": "contract IWrbtcERC20",
        "numberOfBytes": "20"
      },
      "t_mapping(t_address,t_address)": {
        "encoding": "mapping",
        "key": "t_address",
        "label": "mapping(address => address)",
        "numberOfBytes": "32",
        "value": "t_address"
      },
      "t_mapping(t_address,t_array(t_contract(IERC20)33292)dyn_storage)": {
        "encoding": "mapping",
        "key": "t_address",
        "label": "mapping(address => contract IERC20[])",
        "numberOfBytes": "32",
        "value": "t_array(t_contract(IERC20)33292)dyn_storage"
      },
      "t_mapping(t_address,t_bool)": {
        "encoding": "mapping",
        "key": "t_address",
        "label": "mapping(address => bool)",
        "numberOfBytes": "32",
        "value": "t_bool"
      },
      "t_mapping(t_address,t_mapping(t_address,t_array(t_contract(IERC20)33292)dyn_storage))": {
        "encoding": "mapping",
        "key": "t_address",
        "label": "mapping(address => mapping(address => contract IERC20[]))",
        "numberOfBytes": "32",
        "value": "t_mapping(t_address,t_array(t_contract(IERC20)33292)dyn_storage)"
      },
      "t_mapping(t_address,t_mapping(t_address,t_struct(LenderInterest)6508_storage))": {
        "encoding": "mapping",
        "key": "t_address",
        "label": "mapping(address => mapping(address => struct LenderInterestStruct.LenderInterest))",
        "numberOfBytes": "32",
        "value": "t_mapping(t_address,t_struct(LenderInterest)6508_storage)"
      },
      "t_mapping(t_address,t_mapping(t_address,t_uint256))": {
        "encoding": "mapping",
        "key": "t_address",
        "label": "mapping(address => mapping(address => uint256))",
        "numberOfBytes": "32",
        "value": "t_mapping(t_address,t_uint256)"
      },
      "t_mapping(t_address,t_mapping(t_bytes32,t_struct(Order)6582_storage))": {
        "encoding": "mapping",
        "key": "t_address",
        "label": "mapping(address => mapping(bytes32 => struct OrderStruct.Order))",
        "numberOfBytes": "32",
        "value": "t_mapping(t_bytes32,t_struct(Order)6582_storage)"
      },
      "t_mapping(t_address,t_struct(AddressSet)35966_storage)": {
        "encoding": "mapping",
        "key": "t_address",
        "label": "mapping(address => struct EnumerableAddressSet.AddressSet)",
        "numberOfBytes": "32",
        "value": "t_struct(AddressSet)35966_storage"
      },
      "t_mapping(t_address,t_struct(Bytes32Set)36272_storage)": {
        "encoding": "mapping",
        "key": "t_address",
        "label": "mapping(address => struct EnumerableBytes32Set.Bytes32Set)",
        "numberOfBytes": "32",
        "value": "t_struct(Bytes32Set)36272_storage"
      },
      "t_mapping(t_address,t_struct(LenderInterest)6508_storage)": {
        "encoding": "mapping",
        "key": "t_address",
        "label": "mapping(address => struct LenderInterestStruct.LenderInterest)",
        "numberOfBytes": "32",
        "value": "t_struct(LenderInterest)6508_storage"
      },
      "t_mapping(t_address,t_uint256)": {
        "encoding": "mapping",
        "key": "t_address",
        "label": "mapping(address => uint256)",
        "numberOfBytes": "32",
        "value": "t_uint256"
      },
      "t_mapping(t_bytes32,t_mapping(t_address,t_bool))": {
        "encoding": "mapping",
        "key": "t_bytes32",
        "label": "mapping(bytes32 => mapping(address => bool))",
        "numberOfBytes": "32",
        "value": "t_mapping(t_address,t_bool)"
      },
      "t_mapping(t_bytes32,t_struct(Loan)6566_storage)": {
        "encoding": "mapping",
        "key": "t_bytes32",
        "label": "mapping(bytes32 => struct LoanStruct.Loan)",
        "numberOfBytes": "32",
        "value": "t_struct(Loan)6566_storage"
      },
      "t_mapping(t_bytes32,t_struct(LoanInterest)6518_storage)": {
        "encoding": "mapping",
        "key": "t_bytes32",
        "label": "mapping(bytes32 => struct LoanInterestStruct.LoanInterest)",
        "numberOfBytes": "32",
        "value": "t_struct(LoanInterest)6518_storage"
      },
      "t_mapping(t_bytes32,t_struct(LoanParams)6538_storage)": {
        "encoding": "mapping",
        "key": "t_bytes32",
        "label": "mapping(bytes32 => struct LoanParamsStruct.LoanParams)",
        "numberOfBytes": "32",
        "value": "t_struct(LoanParams)6538_storage"
      },
      "t_mapping(t_bytes32,t_struct(Order)6582_storage)": {
        "encoding": "mapping",
        "key": "t_bytes32",
        "label": "mapping(bytes32 => struct OrderStruct.Order)",
        "numberOfBytes": "32",
        "value": "t_struct(Order)6582_storage"
      },
      "t_mapping(t_bytes32,t_uint256)": {
        "encoding": "mapping",
        "key": "t_bytes32",
        "label": "mapping(bytes32 => uint256)",
        "numberOfBytes": "32",
        "value": "t_uint256"
      },
      "t_mapping(t_bytes4,t_address)": {
        "encoding": "mapping",
        "key": "t_bytes4",
        "label": "mapping(bytes4 => address)",
        "numberOfBytes": "32",
        "value": "t_address"
      },
      "t_struct(AddressSet)35966_storage": {
        "encoding": "inplace",
        "label": "struct EnumerableAddressSet.AddressSet",
        "members": [
          {
            "astId": 35962,
            "contract": "contracts/modules/SwapsExternal.sol:SwapsExternal",
            "label": "index",
            "offset": 0,
            "slot": "0",
            "type": "t_mapping(t_address,t_uint256)"
          },
          {
            "astId": 35965,
            "contract": "contracts/modules/SwapsExternal.sol:SwapsExternal",
            "label": "values",
            "offset": 0,
            "slot": "1",
            "type": "t_array(t_address)dyn_storage"
          }
        ],
        "numberOfBytes": "64"
      },
      "t_struct(Bytes32Set)36272_storage": {
        "encoding": "inplace",
        "label": "struct EnumerableBytes32Set.Bytes32Set",
        "members": [
          {
            "astId": 36268,
            "contract": "contracts/modules/SwapsExternal.sol:SwapsExternal",
            "label": "index",
            "offset": 0,
            "slot": "0",
            "type": "t_mapping(t_bytes32,t_uint256)"
          },
          {
            "astId": 36271,
            "contract": "contracts/modules/SwapsExternal.sol:SwapsExternal",
            "label": "values",
            "offset": 0,
            "slot": "1",
            "type": "t_array(t_bytes32)dyn_storage"
          }
        ],
        "numberOfBytes": "64"
      },
      "t_struct(LenderInterest)6508_storage": {
        "encoding": "inplace",
        "label": "struct LenderInterestStruct.LenderInterest",
        "members": [
          {
            "astId": 6499,
            "contract": "contracts/modules/SwapsExternal.sol:SwapsExternal",
            "label": "principalTotal",
            "offset": 0,
            "slot": "0",
            "type": "t_uint256"
          },
          {
            "astId": 6501,
            "contract": "contracts/modules/SwapsExternal.sol:SwapsExternal",
            "label": "owedPerDay",
            "offset": 0,
            "slot": "1",
            "type": "t_uint256"
          },
          {
            "astId": 6503,
            "contract": "contracts/modules/SwapsExternal.sol:SwapsExternal",
            "label": "owedTotal",
            "offset": 0,
            "slot": "2",
            "type": "t_uint256"
          },
          {
            "astId": 6505,
            "contract": "contracts/modules/SwapsExternal.sol:SwapsExternal",
            "label": "paidTotal",
            "offset": 0,
            "slot": "3",
            "type": "t_uint256"
          },
          {
            "astId": 6507,
            "contract": "contracts/modules/SwapsExternal.sol:SwapsExternal",
            "label": "updatedTimestamp",
            "offset": 0,
            "slot": "4",
            "type": "t_uint256"
          }
        ],
        "numberOfBytes": "160"
      },
      "t_struct(Loan)6566_storage": {
        "encoding": "inplace",
        "label": "struct LoanStruct.Loan",
        "members": [
          {
            "astId": 6543,
            "contract": "contracts/modules/SwapsExternal.sol:SwapsExternal",
            "label": "id",
            "offset": 0,
            "slot": "0",
            "type": "t_bytes32"
          },
          {
            "astId": 6545,
            "contract": "contracts/modules/SwapsExternal.sol:SwapsExternal",
            "label": "loanParamsId",
            "offset": 0,
            "slot": "1",
            "type": "t_bytes32"
          },
          {
            "astId": 6547,
            "contract": "contracts/modules/SwapsExternal.sol:SwapsExternal",
            "label": "pendingTradesId",
            "offset": 0,
            "slot": "2",
            "type": "t_bytes32"
          },
          {
            "astId": 6549,
            "contract": "contracts/modules/SwapsExternal.sol:SwapsExternal",
            "label": "active",
            "offset": 0,
            "slot": "3",
            "type": "t_bool"
          },
          {
            "astId": 6551,
            "contract": "contracts/modules/SwapsExternal.sol:SwapsExternal",
            "label": "principal",
            "offset": 0,
            "slot": "4",
            "type": "t_uint256"
          },
          {
            "astId": 6553,
            "contract": "contracts/modules/SwapsExternal.sol:SwapsExternal",
            "label": "collateral",
            "offset": 0,
            "slot": "5",
            "type": "t_uint256"
          },
          {
            "astId": 6555,
            "contract": "contracts/modules/SwapsExternal.sol:SwapsExternal",
            "label": "startTimestamp",
            "offset": 0,
            "slot": "6",
            "type": "t_uint256"
          },
          {
            "astId": 6557,
            "contract": "contracts/modules/SwapsExternal.sol:SwapsExternal",
            "label": "endTimestamp",
            "offset": 0,
            "slot": "7",
            "type": "t_uint256"
          },
          {
            "astId": 6559,
            "contract": "contracts/modules/SwapsExternal.sol:SwapsExternal",
            "label": "startMargin",
            "offset": 0,
            "slot": "8",
            "type": "t_uint256"
          },
          {
            "astId": 6561,
            "contract": "contracts/modules/SwapsExternal.sol:SwapsExternal",
            "label": "startRate",
            "offset": 0,
            "slot": "9",
            "type": "t_uint256"
          },
          {
            "astId": 6563,
            "contract": "contracts/modules/SwapsExternal.sol:SwapsExternal",
            "label": "borrower",
            "offset": 0,
            "slot": "10",
            "type": "t_address"
          },
          {
            "astId": 6565,
            "contract": "contracts/modules/SwapsExternal.sol:SwapsExternal",
            "label": "lender",
            "offset": 0,
            "slot": "11",
            "type": "t_address"
          }
        ],
        "numberOfBytes": "384"
      },
      "t_struct(LoanInterest)6518_storage": {
        "encoding": "inplace",
        "label": "struct LoanInterestStruct.LoanInterest",
        "members": [
          {
            "astId": 6513,
            "contract": "contracts/modules/SwapsExternal.sol:SwapsExternal",
            "label": "owedPerDay",
            "offset": 0,
            "slot": "0",
            "type": "t_uint256"
          },
          {
            "astId": 6515,
            "contract": "contracts/modules/SwapsExternal.sol:SwapsExternal",
            "label": "depositTotal",
            "offset": 0,
            "slot": "1",
            "type": "t_uint256"
          },
          {
            "astId": 6517,
            "contract": "contracts/modules/SwapsExternal.sol:SwapsExternal",
            "label": "updatedTimestamp",
            "offset": 0,
            "slot": "2",
            "type": "t_uint256"
          }
        ],
        "numberOfBytes": "96"
      },
      "t_struct(LoanParams)6538_storage": {
        "encoding": "inplace",
        "label": "struct LoanParamsStruct.LoanParams",
        "members": [
          {
            "astId": 6523,
            "contract": "contracts/modules/SwapsExternal.sol:SwapsExternal",
            "label": "id",
            "offset": 0,
            "slot": "0",
            "type": "t_bytes32"
          },
          {
            "astId": 6525,
            "contract": "contracts/modules/SwapsExternal.sol:SwapsExternal",
            "label": "active",
            "offset": 0,
            "slot": "1",
            "type": "t_bool"
          },
          {
            "astId": 6527,
            "contract": "contracts/modules/SwapsExternal.sol:SwapsExternal",
            "label": "owner",
            "offset": 1,
            "slot": "1",
            "type": "t_address"
          },
          {
            "astId": 6529,
            "contract": "contracts/modules/SwapsExternal.sol:SwapsExternal",
            "label": "loanToken",
            "offset": 0,
            "slot": "2",
            "type": "t_address"
          },
          {
            "astId": 6531,
            "contract": "contracts/modules/SwapsExternal.sol:SwapsExternal",
            "label": "collateralToken",
            "offset": 0,
            "slot": "3",
            "type": "t_address"
          },
          {
            "astId": 6533,
            "contract": "contracts/modules/SwapsExternal.sol:SwapsExternal",
            "label": "minInitialMargin",
            "offset": 0,
            "slot": "4",
            "type": "t_uint256"
          },
          {
            "astId": 6535,
            "contract": "contracts/modules/SwapsExternal.sol:SwapsExternal",
            "label": "maintenanceMargin",
            "offset": 0,
            "slot": "5",
            "type": "t_uint256"
          },
          {
            "astId": 6537,
            "contract": "contracts/modules/SwapsExternal.sol:SwapsExternal",
            "label": "maxLoanTerm",
            "offset": 0,
            "slot": "6",
            "type": "t_uint256"
          }
        ],
        "numberOfBytes": "224"
      },
      "t_struct(Order)6582_storage": {
        "encoding": "inplace",
        "label": "struct OrderStruct.Order",
        "members": [
          {
            "astId": 6571,
            "contract": "contracts/modules/SwapsExternal.sol:SwapsExternal",
            "label": "lockedAmount",
            "offset": 0,
            "slot": "0",
            "type": "t_uint256"
          },
          {
            "astId": 6573,
            "contract": "contracts/modules/SwapsExternal.sol:SwapsExternal",
            "label": "interestRate",
            "offset": 0,
            "slot": "1",
            "type": "t_uint256"
          },
          {
            "astId": 6575,
            "contract": "contracts/modules/SwapsExternal.sol:SwapsExternal",
            "label": "minLoanTerm",
            "offset": 0,
            "slot": "2",
            "type": "t_uint256"
          },
          {
            "astId": 6577,
            "contract": "contracts/modules/SwapsExternal.sol:SwapsExternal",
            "label": "maxLoanTerm",
            "offset": 0,
            "slot": "3",
            "type": "t_uint256"
          },
          {
            "astId": 6579,
            "contract": "contracts/modules/SwapsExternal.sol:SwapsExternal",
            "label": "createdTimestamp",
            "offset": 0,
            "slot": "4",
            "type": "t_uint256"
          },
          {
            "astId": 6581,
            "contract": "contracts/modules/SwapsExternal.sol:SwapsExternal",
            "label": "expirationTimestamp",
            "offset": 0,
            "slot": "5",
            "type": "t_uint256"
          }
        ],
        "numberOfBytes": "192"
      },
      "t_uint256": {
        "encoding": "inplace",
        "label": "uint256",
        "numberOfBytes": "32"
      }
    }
  }
}