{
  "address": "0x09e8659B6d204C6b1bED2BFF8E3F43F834A5Bbc4",
  "abi": [
    {
      "anonymous": false,
      "inputs": [
        {
          "indexed": false,
          "internalType": "address",
          "name": "admin",
          "type": "address"
        }
      ],
      "name": "AdminAdded",
      "type": "event"
    },
    {
      "anonymous": false,
      "inputs": [
        {
          "indexed": true,
          "internalType": "address",
          "name": "sender",
          "type": "address"
        },
        {
          "indexed": true,
          "internalType": "address",
          "name": "oldAdminManager",
          "type": "address"
        },
        {
          "indexed": true,
          "internalType": "address",
          "name": "newAdminManager",
          "type": "address"
        }
      ],
      "name": "AdminManagerChanged",
      "type": "event"
    },
    {
      "anonymous": false,
      "inputs": [
        {
          "indexed": true,
          "internalType": "address",
          "name": "sender",
          "type": "address"
        },
        {
          "indexed": true,
          "internalType": "address",
          "name": "removedAdminManager",
          "type": "address"
        }
      ],
      "name": "AdminManagerRemoved",
      "type": "event"
    },
    {
      "anonymous": false,
      "inputs": [
        {
          "indexed": false,
          "internalType": "address",
          "name": "admin",
          "type": "address"
        }
      ],
      "name": "AdminRemoved",
      "type": "event"
    },
    {
      "anonymous": false,
      "inputs": [
        {
          "indexed": true,
          "internalType": "address",
          "name": "previousOwner",
          "type": "address"
        },
        {
          "indexed": true,
          "internalType": "address",
          "name": "newOwner",
          "type": "address"
        }
      ],
      "name": "OwnershipTransferred",
      "type": "event"
    },
    {
      "anonymous": false,
      "inputs": [
        {
          "indexed": true,
          "internalType": "address",
          "name": "receiver",
          "type": "address"
        },
        {
          "indexed": false,
          "internalType": "uint256",
          "name": "amount",
          "type": "uint256"
        }
      ],
      "name": "SOVTransferred",
      "type": "event"
    },
    {
      "anonymous": false,
      "inputs": [
        {
          "indexed": true,
          "internalType": "address",
          "name": "tokenOwner",
          "type": "address"
        },
        {
          "indexed": false,
          "internalType": "address",
          "name": "vesting",
          "type": "address"
        },
        {
          "indexed": false,
          "internalType": "uint256",
          "name": "cliff",
          "type": "uint256"
        },
        {
          "indexed": false,
          "internalType": "uint256",
          "name": "duration",
          "type": "uint256"
        },
        {
          "indexed": false,
          "internalType": "uint256",
          "name": "amount",
          "type": "uint256"
        },
        {
          "indexed": false,
          "internalType": "uint256",
          "name": "vestingCreationType",
          "type": "uint256"
        }
      ],
      "name": "TeamVestingCreated",
      "type": "event"
    },
    {
      "anonymous": false,
      "inputs": [
        {
          "indexed": true,
          "internalType": "address",
          "name": "vesting",
          "type": "address"
        },
        {
          "indexed": false,
          "internalType": "uint256",
          "name": "amount",
          "type": "uint256"
        }
      ],
      "name": "TokensStaked",
      "type": "event"
    },
    {
      "anonymous": false,
      "inputs": [
        {
          "indexed": true,
          "internalType": "address",
          "name": "tokenOwner",
          "type": "address"
        },
        {
          "indexed": false,
          "internalType": "address",
          "name": "vesting",
          "type": "address"
        },
        {
          "indexed": false,
          "internalType": "uint256",
          "name": "cliff",
          "type": "uint256"
        },
        {
          "indexed": false,
          "internalType": "uint256",
          "name": "duration",
          "type": "uint256"
        },
        {
          "indexed": false,
          "internalType": "uint256",
          "name": "amount",
          "type": "uint256"
        },
        {
          "indexed": false,
          "internalType": "uint256",
          "name": "vestingCreationType",
          "type": "uint256"
        }
      ],
      "name": "VestingCreated",
      "type": "event"
    },
    {
      "anonymous": false,
      "inputs": [
        {
          "indexed": true,
          "internalType": "address",
          "name": "vesting",
          "type": "address"
        },
        {
          "components": [
            {
              "internalType": "bool",
              "name": "isSet",
              "type": "bool"
            },
            {
              "internalType": "uint32",
              "name": "vestingType",
              "type": "uint32"
            },
            {
              "internalType": "uint128",
              "name": "vestingCreationType",
              "type": "uint128"
            }
          ],
          "indexed": false,
          "internalType": "struct VestingRegistryStorage.VestingCreationAndTypeDetails",
          "name": "vestingCreationAndType",
          "type": "tuple"
        }
      ],
      "name": "VestingCreationAndTypesSet",
      "type": "event"
    },
    {
      "constant": true,
      "inputs": [],
      "name": "SOV",
      "outputs": [
        {
          "internalType": "address",
          "name": "",
          "type": "address"
        }
      ],
      "payable": false,
      "stateMutability": "view",
      "type": "function"
    },
    {
      "constant": false,
      "inputs": [
        {
          "internalType": "address",
          "name": "_admin",
          "type": "address"
        }
      ],
      "name": "addAdmin",
      "outputs": [],
      "payable": false,
      "stateMutability": "nonpayable",
      "type": "function"
    },
    {
      "constant": false,
      "inputs": [
        {
          "internalType": "address",
          "name": "_admin",
          "type": "address"
        }
      ],
      "name": "addAdminByManager",
      "outputs": [],
      "payable": false,
      "stateMutability": "nonpayable",
      "type": "function"
    },
    {
      "constant": false,
      "inputs": [
        {
          "internalType": "address[]",
          "name": "_tokenOwners",
          "type": "address[]"
        },
        {
          "internalType": "uint256[]",
          "name": "_vestingCreationTypes",
          "type": "uint256[]"
        }
      ],
      "name": "addDeployedVestings",
      "outputs": [],
      "payable": false,
      "stateMutability": "nonpayable",
      "type": "function"
    },
    {
      "constant": false,
      "inputs": [
        {
          "internalType": "address[]",
          "name": "_tokenOwners",
          "type": "address[]"
        },
        {
          "internalType": "address[]",
          "name": "_vestingAddresses",
          "type": "address[]"
        }
      ],
      "name": "addFourYearVestings",
      "outputs": [],
      "payable": false,
      "stateMutability": "nonpayable",
      "type": "function"
    },
    {
      "constant": true,
      "inputs": [
        {
          "internalType": "address",
          "name": "",
          "type": "address"
        }
      ],
      "name": "admins",
      "outputs": [
        {
          "internalType": "bool",
          "name": "",
          "type": "bool"
        }
      ],
      "payable": false,
      "stateMutability": "view",
      "type": "function"
    },
    {
      "constant": false,
      "inputs": [
        {
          "internalType": "address",
          "name": "_tokenOwner",
          "type": "address"
        },
        {
          "internalType": "uint256",
          "name": "_amount",
          "type": "uint256"
        },
        {
          "internalType": "uint256",
          "name": "_cliff",
          "type": "uint256"
        },
        {
          "internalType": "uint256",
          "name": "_duration",
          "type": "uint256"
        },
        {
          "internalType": "uint256",
          "name": "_vestingCreationType",
          "type": "uint256"
        }
      ],
      "name": "createTeamVesting",
      "outputs": [],
      "payable": false,
      "stateMutability": "nonpayable",
      "type": "function"
    },
    {
      "constant": false,
      "inputs": [
        {
          "internalType": "address",
          "name": "_tokenOwner",
          "type": "address"
        },
        {
          "internalType": "uint256",
          "name": "_amount",
          "type": "uint256"
        },
        {
          "internalType": "uint256",
          "name": "_cliff",
          "type": "uint256"
        },
        {
          "internalType": "uint256",
          "name": "_duration",
          "type": "uint256"
        }
      ],
      "name": "createVesting",
      "outputs": [],
      "payable": false,
      "stateMutability": "nonpayable",
      "type": "function"
    },
    {
      "constant": false,
      "inputs": [
        {
          "internalType": "address",
          "name": "_tokenOwner",
          "type": "address"
        },
        {
          "internalType": "uint256",
          "name": "_amount",
          "type": "uint256"
        },
        {
          "internalType": "uint256",
          "name": "_cliff",
          "type": "uint256"
        },
        {
          "internalType": "uint256",
          "name": "_duration",
          "type": "uint256"
        },
        {
          "internalType": "uint256",
          "name": "_vestingCreationType",
          "type": "uint256"
        }
      ],
      "name": "createVestingAddr",
      "outputs": [],
      "payable": false,
      "stateMutability": "nonpayable",
      "type": "function"
    },
    {
      "constant": true,
      "inputs": [],
      "name": "feeSharingCollector",
      "outputs": [
        {
          "internalType": "address",
          "name": "",
          "type": "address"
        }
      ],
      "payable": false,
      "stateMutability": "view",
      "type": "function"
    },
    {
      "constant": true,
      "inputs": [],
      "name": "getAdminManager",
      "outputs": [
        {
          "internalType": "address",
          "name": "_adminManager",
          "type": "address"
        }
      ],
      "payable": false,
      "stateMutability": "view",
      "type": "function"
    },
    {
      "constant": true,
      "inputs": [
        {
          "internalType": "address",
          "name": "_tokenOwner",
          "type": "address"
        },
        {
          "internalType": "uint256",
          "name": "_cliff",
          "type": "uint256"
        },
        {
          "internalType": "uint256",
          "name": "_duration",
          "type": "uint256"
        },
        {
          "internalType": "uint256",
          "name": "_vestingCreationType",
          "type": "uint256"
        }
      ],
      "name": "getTeamVesting",
      "outputs": [
        {
          "internalType": "address",
          "name": "",
          "type": "address"
        }
      ],
      "payable": false,
      "stateMutability": "view",
      "type": "function"
    },
    {
      "constant": true,
      "inputs": [
        {
          "internalType": "address",
          "name": "_tokenOwner",
          "type": "address"
        }
      ],
      "name": "getVesting",
      "outputs": [
        {
          "internalType": "address",
          "name": "",
          "type": "address"
        }
      ],
      "payable": false,
      "stateMutability": "view",
      "type": "function"
    },
    {
      "constant": true,
      "inputs": [
        {
          "internalType": "address",
          "name": "_tokenOwner",
          "type": "address"
        },
        {
          "internalType": "uint256",
          "name": "_cliff",
          "type": "uint256"
        },
        {
          "internalType": "uint256",
          "name": "_duration",
          "type": "uint256"
        },
        {
          "internalType": "uint256",
          "name": "_vestingCreationType",
          "type": "uint256"
        }
      ],
      "name": "getVestingAddr",
      "outputs": [
        {
          "internalType": "address",
          "name": "",
          "type": "address"
        }
      ],
      "payable": false,
      "stateMutability": "view",
      "type": "function"
    },
    {
      "constant": true,
      "inputs": [
        {
          "internalType": "address",
          "name": "_vestingAddress",
          "type": "address"
        }
      ],
      "name": "getVestingDetails",
      "outputs": [
        {
          "internalType": "uint256",
          "name": "cliff",
          "type": "uint256"
        },
        {
          "internalType": "uint256",
          "name": "duration",
          "type": "uint256"
        }
      ],
      "payable": false,
      "stateMutability": "view",
      "type": "function"
    },
    {
      "constant": true,
      "inputs": [
        {
          "internalType": "address",
          "name": "_tokenOwner",
          "type": "address"
        }
      ],
      "name": "getVestingsOf",
      "outputs": [
        {
          "components": [
            {
              "internalType": "uint256",
              "name": "vestingType",
              "type": "uint256"
            },
            {
              "internalType": "uint256",
              "name": "vestingCreationType",
              "type": "uint256"
            },
            {
              "internalType": "address",
              "name": "vestingAddress",
              "type": "address"
            }
          ],
          "internalType": "struct VestingRegistryStorage.Vesting[]",
          "name": "",
          "type": "tuple[]"
        }
      ],
      "payable": false,
      "stateMutability": "view",
      "type": "function"
    },
    {
      "constant": false,
      "inputs": [
        {
          "internalType": "address",
          "name": "_vestingFactory",
          "type": "address"
        },
        {
          "internalType": "address",
          "name": "_SOV",
          "type": "address"
        },
        {
          "internalType": "address",
          "name": "_staking",
          "type": "address"
        },
        {
          "internalType": "address",
          "name": "_feeSharingCollector",
          "type": "address"
        },
        {
          "internalType": "address",
          "name": "_vestingOwner",
          "type": "address"
        },
        {
          "internalType": "address",
          "name": "_lockedSOV",
          "type": "address"
        },
        {
          "internalType": "address[]",
          "name": "_vestingRegistries",
          "type": "address[]"
        }
      ],
      "name": "initialize",
      "outputs": [],
      "payable": false,
      "stateMutability": "nonpayable",
      "type": "function"
    },
    {
      "constant": true,
      "inputs": [],
      "name": "isOwner",
      "outputs": [
        {
          "internalType": "bool",
          "name": "",
          "type": "bool"
        }
      ],
      "payable": false,
      "stateMutability": "view",
      "type": "function"
    },
    {
      "constant": true,
      "inputs": [
        {
          "internalType": "address",
          "name": "_vestingAddress",
          "type": "address"
        }
      ],
      "name": "isTeamVesting",
      "outputs": [
        {
          "internalType": "bool",
          "name": "",
          "type": "bool"
        }
      ],
      "payable": false,
      "stateMutability": "view",
      "type": "function"
    },
    {
      "constant": true,
      "inputs": [
        {
          "internalType": "address",
          "name": "",
          "type": "address"
        }
      ],
      "name": "isVesting",
      "outputs": [
        {
          "internalType": "bool",
          "name": "",
          "type": "bool"
        }
      ],
      "payable": false,
      "stateMutability": "view",
      "type": "function"
    },
    {
      "constant": true,
      "inputs": [
        {
          "internalType": "address",
          "name": "_vestingAddress",
          "type": "address"
        }
      ],
      "name": "isVestingAddress",
      "outputs": [
        {
          "internalType": "bool",
          "name": "isVestingAddr",
          "type": "bool"
        }
      ],
      "payable": false,
      "stateMutability": "view",
      "type": "function"
    },
    {
      "constant": true,
      "inputs": [],
      "name": "lockedSOV",
      "outputs": [
        {
          "internalType": "contract ILockedSOV",
          "name": "",
          "type": "address"
        }
      ],
      "payable": false,
      "stateMutability": "view",
      "type": "function"
    },
    {
      "constant": true,
      "inputs": [],
      "name": "owner",
      "outputs": [
        {
          "internalType": "address",
          "name": "",
          "type": "address"
        }
      ],
      "payable": false,
      "stateMutability": "view",
      "type": "function"
    },
    {
      "constant": false,
      "inputs": [
        {
          "internalType": "address[]",
          "name": "_vestingAddresses",
          "type": "address[]"
        },
        {
          "components": [
            {
              "internalType": "bool",
              "name": "isSet",
              "type": "bool"
            },
            {
              "internalType": "uint32",
              "name": "vestingType",
              "type": "uint32"
            },
            {
              "internalType": "uint128",
              "name": "vestingCreationType",
              "type": "uint128"
            }
          ],
          "internalType": "struct VestingRegistryStorage.VestingCreationAndTypeDetails[]",
          "name": "_vestingCreationAndTypes",
          "type": "tuple[]"
        }
      ],
      "name": "registerVestingToVestingCreationAndTypes",
      "outputs": [],
      "payable": false,
      "stateMutability": "nonpayable",
      "type": "function"
    },
    {
      "constant": false,
      "inputs": [
        {
          "internalType": "address",
          "name": "_admin",
          "type": "address"
        }
      ],
      "name": "removeAdmin",
      "outputs": [],
      "payable": false,
      "stateMutability": "nonpayable",
      "type": "function"
    },
    {
      "constant": false,
      "inputs": [
        {
          "internalType": "address",
          "name": "_admin",
          "type": "address"
        }
      ],
      "name": "removeAdminByManager",
      "outputs": [],
      "payable": false,
      "stateMutability": "nonpayable",
      "type": "function"
    },
    {
      "constant": false,
      "inputs": [],
      "name": "removeAdminManager",
      "outputs": [],
      "payable": false,
      "stateMutability": "nonpayable",
      "type": "function"
    },
    {
      "constant": false,
      "inputs": [
        {
          "internalType": "address",
          "name": "_newAdminManager",
          "type": "address"
        }
      ],
      "name": "setAdminManager",
      "outputs": [],
      "payable": false,
      "stateMutability": "nonpayable",
      "type": "function"
    },
    {
      "constant": false,
      "inputs": [
        {
          "internalType": "address",
          "name": "_vestingFactory",
          "type": "address"
        }
      ],
      "name": "setVestingFactory",
      "outputs": [],
      "payable": false,
      "stateMutability": "nonpayable",
      "type": "function"
    },
    {
      "constant": false,
      "inputs": [
        {
          "internalType": "address",
          "name": "_vesting",
          "type": "address"
        },
        {
          "internalType": "uint256",
          "name": "_amount",
          "type": "uint256"
        }
      ],
      "name": "stakeTokens",
      "outputs": [],
      "payable": false,
      "stateMutability": "nonpayable",
      "type": "function"
    },
    {
      "constant": true,
      "inputs": [],
      "name": "staking",
      "outputs": [
        {
          "internalType": "address",
          "name": "",
          "type": "address"
        }
      ],
      "payable": false,
      "stateMutability": "view",
      "type": "function"
    },
    {
      "constant": false,
      "inputs": [
        {
          "internalType": "address",
          "name": "newOwner",
          "type": "address"
        }
      ],
      "name": "transferOwnership",
      "outputs": [],
      "payable": false,
      "stateMutability": "nonpayable",
      "type": "function"
    },
    {
      "constant": false,
      "inputs": [
        {
          "internalType": "address",
          "name": "_receiver",
          "type": "address"
        },
        {
          "internalType": "uint256",
          "name": "_amount",
          "type": "uint256"
        }
      ],
      "name": "transferSOV",
      "outputs": [],
      "payable": false,
      "stateMutability": "nonpayable",
      "type": "function"
    },
    {
      "constant": true,
      "inputs": [
        {
          "internalType": "address",
          "name": "",
          "type": "address"
        }
      ],
      "name": "vestingCreationAndTypes",
      "outputs": [
        {
          "internalType": "bool",
          "name": "isSet",
          "type": "bool"
        },
        {
          "internalType": "uint32",
          "name": "vestingType",
          "type": "uint32"
        },
        {
          "internalType": "uint128",
          "name": "vestingCreationType",
          "type": "uint128"
        }
      ],
      "payable": false,
      "stateMutability": "view",
      "type": "function"
    },
    {
      "constant": true,
      "inputs": [],
      "name": "vestingFactory",
      "outputs": [
        {
          "internalType": "contract IVestingFactory",
          "name": "",
          "type": "address"
        }
      ],
      "payable": false,
      "stateMutability": "view",
      "type": "function"
    },
    {
      "constant": true,
      "inputs": [],
      "name": "vestingOwner",
      "outputs": [
        {
          "internalType": "address",
          "name": "",
          "type": "address"
        }
      ],
      "payable": false,
      "stateMutability": "view",
      "type": "function"
    },
    {
      "constant": true,
      "inputs": [
        {
          "internalType": "uint256",
          "name": "",
          "type": "uint256"
        }
      ],
      "name": "vestingRegistries",
      "outputs": [
        {
          "internalType": "contract IVestingRegistry",
          "name": "",
          "type": "address"
        }
      ],
      "payable": false,
      "stateMutability": "view",
      "type": "function"
    },
    {
      "constant": true,
      "inputs": [
        {
          "internalType": "uint256",
          "name": "",
          "type": "uint256"
        }
      ],
      "name": "vestings",
      "outputs": [
        {
          "internalType": "uint256",
          "name": "vestingType",
          "type": "uint256"
        },
        {
          "internalType": "uint256",
          "name": "vestingCreationType",
          "type": "uint256"
        },
        {
          "internalType": "address",
          "name": "vestingAddress",
          "type": "address"
        }
      ],
      "payable": false,
      "stateMutability": "view",
      "type": "function"
    },
    {
      "constant": true,
      "inputs": [
        {
          "internalType": "address",
          "name": "",
          "type": "address"
        },
        {
          "internalType": "uint256",
          "name": "",
          "type": "uint256"
        }
      ],
      "name": "vestingsOf",
      "outputs": [
        {
          "internalType": "uint256",
          "name": "",
          "type": "uint256"
        }
      ],
      "payable": false,
      "stateMutability": "view",
      "type": "function"
    }
  ],
  "numDeployments": 5,
  "bytecode": "0x608060405260006100176001600160e01b0361007016565b6000805462010000600160b01b031916620100006001600160a01b038416908102919091178255604051929350917f8be0079c531659141344cd1fd0a4f28419497f9722a3daafe3b4186f6b6457e0908290a350610074565b3390565b6133f980620000846000396000f3fe608060405234801561001057600080fd5b506004361061023d5760003560e01c80638da5cb5b1161013b578063c36519d1116100b8578063efb957331161007c578063efb95733146104db578063f2f46b3b146104fb578063f2fde38b14610503578063f421ed7e14610516578063f60826ee146105295761023d565b8063c36519d11461046f578063c680c0b714610482578063ca210d8c14610495578063cc49ede7146104a8578063dfb9366d146104bb5761023d565b8063b810c648116100ff578063b810c6481461041b578063bc1607581461042e578063bc84f9ca14610441578063bd7b590814610454578063c0e098521461045c5761023d565b80638da5cb5b146103da5780638dedf009146103e25780638f32d59b146104035780639af051571461040b578063b29d2514146104135761023d565b80634cf088d9116101c957806380fcb9921161018d57806380fcb99214610350578063821bee7314610372578063842a49d514610394578063862e229d146103b45780638cb242c2146103c75761023d565b80634cf088d9146103075780636b7dbb2d1461030f5780637048027514610317578063786931da1461032a57806379a83f5a1461033d5761023d565b80631f509326116102105780631f5093261461029b578063377220fd146102ae578063396c9164146102c1578063429b62e5146102d457806342a82b4f146102f45761023d565b806302df0476146102425780630665a06f1461026b57806308dcb360146102805780631785f53c14610288575b600080fd5b6102556102503660046126c7565b610531565b6040516102629190612f97565b60405180910390f35b61027e6102793660046126c7565b610592565b005b6102556105ed565b61027e610296366004612599565b6105fc565b61027e6102a9366004612728565b61062c565b61027e6102bc366004612599565b6106ce565b61027e6102cf366004612599565b6106fb565b6102e76102e2366004612599565b61074b565b604051610262919061308c565b61027e6103023660046125d5565b610760565b6102556109cf565b6102556109de565b61027e610325366004612599565b6109ed565b61027e61033836600461279d565b6109f5565b61027e61034b36600461268d565b610ce4565b61036361035e366004612599565b610e90565b6040516102629392919061309a565b61038561038036600461288a565b610ec5565b6040516102629392919061325a565b6103a76103a236600461288a565b610eef565b60405161026291906130c2565b61027e6103c2366004612728565b610f16565b61027e6103d5366004612599565b610fa5565b610255610feb565b6103f56103f0366004612599565b611000565b60405161026292919061324c565b6102e76110f4565b61027e61111e565b6102556111db565b61027e61042936600461279d565b6111fa565b61027e61043c366004612599565b61130a565b61027e61044f36600461280d565b6113b3565b610255611513565b6102e761046a366004612599565b611522565b61025561047d3660046126c7565b611537565b61027e61049036600461268d565b611540565b6102e76104a3366004612599565b611680565b6102556104b6366004612599565b61169e565b6104ce6104c936600461268d565b6117bd565b604051610262919061323e565b6104ee6104e9366004612599565b6117eb565b604051610262919061307b565b6103a7611935565b61027e610511366004612599565b611944565b6102e7610524366004612599565b611971565b6103a76119bc565b60008060015b905060008682878787604051602001610554959493929190612f33565b60408051601f198184030181529181528151602092830120600090815260099092529020600201546001600160a01b0316925050505b949350505050565b61059a6110f4565b806105b457503360009081526001602052604090205460ff165b6105d95760405162461bcd60e51b81526004016105d090613190565b60405180910390fd5b6105e784848484600361062c565b50505050565b6005546001600160a01b031681565b6106046110f4565b6106205760405162461bcd60e51b81526004016105d090613190565b610629816119cb565b50565b6106346110f4565b8061064e57503360009081526001602052604090205460ff165b61066a5760405162461bcd60e51b81526004016105d090613190565b600061067b86858560015b86611a26565b9050856001600160a01b03167fd6fcfd83804f6b6b63260c7b99eb10060bc1319dbc9177fb6defc7bd614017bf82868689876040516106be95949392919061302f565b60405180910390a2505050505050565b6106d66110f4565b6106f25760405162461bcd60e51b81526004016105d090613190565b61062981611d8e565b6107036110f4565b8061072657506107116111db565b6001600160a01b0316336001600160a01b0316145b6107425760405162461bcd60e51b81526004016105d090613190565b61062981611dd6565b60016020526000908152604090205460ff1681565b6107686110f4565b6107845760405162461bcd60e51b81526004016105d090613190565b600054610100900460ff168061079d575060005460ff16155b6107b95760405162461bcd60e51b81526004016105d090613180565b600054610100900460ff161580156107e4576000805460ff1961ff0019909116610100171660011790555b6001600160a01b03881661080a5760405162461bcd60e51b81526004016105d090613220565b6001600160a01b0387166108305760405162461bcd60e51b81526004016105d090613200565b6001600160a01b0386166108565760405162461bcd60e51b81526004016105d0906131a0565b6001600160a01b03851661087c5760405162461bcd60e51b81526004016105d090613160565b6001600160a01b0384166108a25760405162461bcd60e51b81526004016105d0906131f0565b6108ab89611d8e565b600580546001600160a01b03199081166001600160a01b038b8116919091179092556006805482168a84161790556007805482168984161790556008805482168884161790556003805490911691861691909117905560005b828110156109b157600084848381811061091a57fe5b905060200201602061092f9190810190612599565b6001600160a01b031614156109565760405162461bcd60e51b81526004016105d0906130d0565b600484848381811061096457fe5b90506020020160206109799190810190612599565b815460018082018455600093845260209093200180546001600160a01b0319166001600160a01b039290921691909117905501610904565b5080156109c4576000805461ff00191690555b505050505050505050565b6006546001600160a01b031681565b6007546001600160a01b031681565b6107266110f4565b6109fd6110f4565b80610a1757503360009081526001602052604090205460ff165b610a335760405162461bcd60e51b81526004016105d090613190565b828114610a525760405162461bcd60e51b81526004016105d0906130e0565b60046224ea0063059fa60060005b86811015610cda57600b6000878784818110610a7857fe5b9050602002016020610a8d9190810190612599565b6001600160a01b0316815260208101919091526040016000205460ff1615610ac75760405162461bcd60e51b81526004016105d090613150565b6000888883818110610ad557fe5b9050602002016020610aea9190810190612599565b6001600160a01b03161415610b115760405162461bcd60e51b81526004016105d0906130f0565b6000868683818110610b1f57fe5b9050602002016020610b349190810190612599565b6001600160a01b03161415610b5b5760405162461bcd60e51b81526004016105d090613100565b6000888883818110610b6957fe5b9050602002016020610b7e9190810190612599565b6001858588604051602001610b97959493929190612f33565b60408051808303601f1901815282825280516020918201206060840183526001845290830188905292508101888885818110610bcf57fe5b9050602002016020610be49190810190612599565b6001600160a01b039081169091526000838152600960209081526040808320855181559185015160018301559390930151600290930180546001600160a01b03191693909216929092179055600a908a8a85818110610c3f57fe5b9050602002016020610c549190810190612599565b6001600160a01b031681526020808201929092526040016000908120805460018181018355918352928220909201839055600b90898986818110610c9457fe5b9050602002016020610ca99190810190612599565b6001600160a01b031681526020810191909152604001600020805460ff191691151591909117905550600101610a60565b5050505050505050565b610cec6110f4565b80610d0657503360009081526001602052604090205460ff165b610d225760405162461bcd60e51b81526004016105d090613190565b6001600160a01b038216610d485760405162461bcd60e51b81526004016105d090613140565b60008111610d685760405162461bcd60e51b81526004016105d090613130565b60055460405163095ea7b360e01b81526001600160a01b039091169063095ea7b390610d9a908590859060040161300d565b602060405180830381600087803b158015610db457600080fd5b505af1158015610dc8573d6000803e3d6000fd5b505050506040513d601f19601f82011682018060405250610dec919081019061286c565b50604051637547c7a360e01b81526001600160a01b03831690637547c7a390610e1990849060040161323e565b600060405180830381600087803b158015610e3357600080fd5b505af1158015610e47573d6000803e3d6000fd5b50505050816001600160a01b03167fb539ca1e5c8d398ddf1c41c30166f33404941683be4683319b57669a93dad4ef82604051610e84919061323e565b60405180910390a25050565b600c6020526000908152604090205460ff811690610100810463ffffffff16906501000000000090046001600160801b031683565b6009602052600090815260409020805460018201546002909201549091906001600160a01b031683565b60048181548110610efc57fe5b6000918252602090912001546001600160a01b0316905081565b610f1e6110f4565b80610f3857503360009081526001602052604090205460ff165b610f545760405162461bcd60e51b81526004016105d090613190565b6000610f6286858584610675565b9050856001600160a01b03167f3791c6c90c276d011b4b885c0bfba0554342acf50a539baca1b06f070af25ff482868689876040516106be95949392919061302f565b610fad6110f4565b806106045750610fbb6111db565b6001600160a01b0316336001600160a01b0316146106205760405162461bcd60e51b81526004016105d090613190565b6000546201000090046001600160a01b031690565b6000806000839050806001600160a01b03166313d033c06040518163ffffffff1660e01b815260040160206040518083038186803b15801561104157600080fd5b505afa158015611055573d6000803e3d6000fd5b505050506040513d601f19601f8201168201806040525061107991908101906128a8565b816001600160a01b0316630fb5a6b46040518163ffffffff1660e01b815260040160206040518083038186803b1580156110b257600080fd5b505afa1580156110c6573d6000803e3d6000fd5b505050506040513d601f19601f820116820180604052506110ea91908101906128a8565b9250925050915091565b600080546201000090046001600160a01b031661110f611e2b565b6001600160a01b031614905090565b6111266110f4565b6111425760405162461bcd60e51b81526004016105d090613190565b600061114c6111db565b6001600160a01b031614156111735760405162461bcd60e51b81526004016105d0906131d0565b61117b6111db565b6001600160a01b0316336001600160a01b03167f560ce9bc23860aa4ec0898e6c59b295d3461332304d14f1ac216282407da435f60405160405180910390a360405160009081906111cb90612f8c565b6040519081900390209190915550565b6000806040516111ea90612f8c565b6040519081900390205492915050565b6112026110f4565b8061121c57503360009081526001602052604090205460ff165b6112385760405162461bcd60e51b81526004016105d090613190565b60005b8381101561130357600085858381811061125157fe5b90506020020160206112669190810190612599565b6001600160a01b0316141561128d5760405162461bcd60e51b81526004016105d0906130f0565b600083838381811061129b57fe5b90506020020135116112bf5760405162461bcd60e51b81526004016105d0906131b0565b6112fb8585838181106112ce57fe5b90506020020160206112e39190810190612599565b8484848181106112ef57fe5b90506020020135611e2f565b60010161123b565b5050505050565b6113126110f4565b61132e5760405162461bcd60e51b81526004016105d090613190565b6001600160a01b0381166113545760405162461bcd60e51b81526004016105d090613170565b806001600160a01b03166113666111db565b6001600160a01b0316336001600160a01b03167f6bf6a88b1bb767c00d69f519bfabc075817f28425abfc80cfb779ef4e9b0bbe560405160405180910390a460006040516111cb90612f8c565b6113bb6110f4565b806113d557503360009081526001602052604090205460ff165b6113f15760405162461bcd60e51b81526004016105d090613190565b80518251146114125760405162461bcd60e51b81526004016105d0906131e0565b60005b815181101561150e57611426612362565b82828151811061143257fe5b60200260200101519050600084838151811061144a57fe5b6020908102919091018101516001600160a01b0381166000818152600c845260409081902086518154958801518884015160ff199097169115159190911764ffffffff00191661010063ffffffff909216919091021765010000000000600160a81b031916650100000000006001600160801b039096169590950294909417845551919350917f4deb6fa84b5232023ce753128000047116f9a6795b40a3b701edf5d8e265ca34916114fc9190613230565b60405180910390a25050600101611415565b505050565b6008546001600160a01b031681565b600b6020526000908152604090205460ff1681565b60008080610537565b6115486110f4565b6115645760405162461bcd60e51b81526004016105d090613190565b6001600160a01b03821661158a5760405162461bcd60e51b81526004016105d0906131c0565b806115a75760405162461bcd60e51b81526004016105d090613130565b60055460405163a9059cbb60e01b81526001600160a01b039091169063a9059cbb906115d9908590859060040161300d565b602060405180830381600087803b1580156115f357600080fd5b505af1158015611607573d6000803e3d6000fd5b505050506040513d601f19601f8201168201806040525061162b919081019061286c565b6116475760405162461bcd60e51b81526004016105d090613210565b816001600160a01b03167fe1b0ada289bf82fb641c8c1e1c78f820fae44e8f845760725cdeb09167a289ad82604051610e84919061323e565b6001600160a01b03166000908152600b602052604090205460ff1690565b60006117b782600360009054906101000a90046001600160a01b03166001600160a01b03166313d033c06040518163ffffffff1660e01b815260040160206040518083038186803b1580156116f257600080fd5b505afa158015611706573d6000803e3d6000fd5b505050506040513d601f19601f8201168201806040525061172a91908101906128a8565b600360009054906101000a90046001600160a01b03166001600160a01b0316630fb5a6b46040518163ffffffff1660e01b815260040160206040518083038186803b15801561177857600080fd5b505afa15801561178c573d6000803e3d6000fd5b505050506040513d601f19601f820116820180604052506117b091908101906128a8565b6003610531565b92915050565b600a60205281600052604060002081815481106117d657fe5b90600052602060002001600091509150505481565b606080600a6000846001600160a01b03166001600160a01b0316815260200190815260200160002080548060200260200160405190810160405280929190818152602001828054801561185d57602002820191906000526020600020905b815481526020019060010190808311611849575b50505050509050600081519050606082516040519080825280602002602001820160405280156118a757816020015b611894612382565b81526020019060019003908161188c5790505b50905060005b8281101561192c57600960008583815181106118c557fe5b6020908102919091018101518252818101929092526040908101600020815160608101835281548152600182015493810193909352600201546001600160a01b031690820152825183908390811061191957fe5b60209081029190910101526001016118ad565b50949350505050565b6003546001600160a01b031681565b61194c6110f4565b6119685760405162461bcd60e51b81526004016105d090613190565b610629816122d3565b6001600160a01b0381166000908152600c602052604081205460ff1680156117b75750506001600160a01b03166000908152600c6020526040902054610100900463ffffffff161590565b6002546001600160a01b031681565b6001600160a01b03811660009081526001602052604090819020805460ff19169055517fa3b62bc36326052d97ea62d63c3d60308ed4c3ea8ac079dd8499f1e9c4f80c0f90611a1b908390612f97565b60405180910390a150565b60008060008785888887604051602001611a44959493929190612f33565b60408051601f198184030181529181528151602092830120600081815260099093529120600201549091506001600160a01b0316611d68578460011415611b2857600254600554600654600754604051637d2fbb8f60e11b81526001600160a01b039485169463fa5f771e94611acf9490821693908216928f928f928f929116908490600401612fa5565b602060405180830381600087803b158015611ae957600080fd5b505af1158015611afd573d6000803e3d6000fd5b505050506040513d601f19601f82011682018060405250611b2191908101906125b7565b9150611c1e565b600260009054906101000a90046001600160a01b03166001600160a01b031663546344f0600560009054906101000a90046001600160a01b0316600660009054906101000a90046001600160a01b03168b8b8b600760009054906101000a90046001600160a01b0316600860009054906101000a90046001600160a01b03166040518863ffffffff1660e01b8152600401611bc99796959493929190612fa5565b602060405180830381600087803b158015611be357600080fd5b505af1158015611bf7573d6000803e3d6000fd5b505050506040513d601f19601f82011682018060405250611c1b91908101906125b7565b91505b604080516060808201835287825260208083018881526001600160a01b038088168587018181526000898152600986528881209751885593516001808901919091559051600290970180549784166001600160a01b031990981697909717909655908e168252600a83528582208054808701825590835283832001879055808252600b8352858220805460ff1990811687179091558651948501875294845263ffffffff808c168585019081526001600160801b03808d16878a01908152848652600c909652938890209551865491519551909416650100000000000265010000000000600160a81b0319959092166101000264ffffffff00199415159190971617929092169490941791909116178155915190917f4deb6fa84b5232023ce753128000047116f9a6795b40a3b701edf5d8e265ca3491611d5f9190613230565b60405180910390a25b6000908152600960205260409020600201546001600160a01b0316979650505050505050565b6001600160a01b038116611db45760405162461bcd60e51b81526004016105d090613120565b600280546001600160a01b0319166001600160a01b0392909216919091179055565b6001600160a01b038116600090815260016020819052604091829020805460ff19169091179055517f44d6d25963f097ad14f29f06854a01f575648a1ef82f30e562ccd3889717e33990611a1b908390612f97565b3390565b600080600183039050600060048281548110611e4757fe5b60009182526020909120015460405163cc49ede760e01b81526001600160a01b039091169063cc49ede790611e80908890600401612f97565b60206040518083038186803b158015611e9857600080fd5b505afa158015611eac573d6000803e3d6000fd5b505050506040513d601f19601f82011682018060405250611ed091908101906125b7565b90506001600160a01b038116156120805780856001826001600160a01b03166313d033c06040518163ffffffff1660e01b815260040160206040518083038186803b158015611f1e57600080fd5b505afa158015611f32573d6000803e3d6000fd5b505050506040513d601f19601f82011682018060405250611f5691908101906128a8565b836001600160a01b0316630fb5a6b46040518163ffffffff1660e01b815260040160206040518083038186803b158015611f8f57600080fd5b505afa158015611fa3573d6000803e3d6000fd5b505050506040513d601f19601f82011682018060405250611fc791908101906128a8565b88604051602001611fdc959493929190612f33565b60408051601f19818403018152828252805160209182012060608401835260018085528285018a81526001600160a01b0388811687870181815260008681526009885288812099518a5593518986015551600290980180546001600160a01b031916988316989098179097558c168152600a84528481208054808401825590825284822001839055948552600b90925291909220805460ff19169092179091559350505b60006004838154811061208f57fe5b60009182526020909120015460405163c810a3e360e01b81526001600160a01b039091169063c810a3e3906120c8908990600401612f97565b60206040518083038186803b1580156120e057600080fd5b505afa1580156120f4573d6000803e3d6000fd5b505050506040513d601f19601f8201168201806040525061211891908101906125b7565b90506001600160a01b038116156122cb5780866000826001600160a01b03166313d033c06040518163ffffffff1660e01b815260040160206040518083038186803b15801561216657600080fd5b505afa15801561217a573d6000803e3d6000fd5b505050506040513d601f19601f8201168201806040525061219e91908101906128a8565b836001600160a01b0316630fb5a6b46040518163ffffffff1660e01b815260040160206040518083038186803b1580156121d757600080fd5b505afa1580156121eb573d6000803e3d6000fd5b505050506040513d601f19601f8201168201806040525061220f91908101906128a8565b89604051602001612224959493929190612f33565b60408051601f19818403018152828252805160209182012060608401835260008085528285018b81526001600160a01b03888116878701818152858552600987528785209851895592516001808a01919091559251600290980180546001600160a01b031916988316989098179097558d168252600a84528482208054808301825590835284832001839055948152600b909252919020805460ff19169092179091559450505b505050505050565b6001600160a01b0381166122f95760405162461bcd60e51b81526004016105d090613110565b600080546040516001600160a01b03808516936201000090930416917f8be0079c531659141344cd1fd0a4f28419497f9722a3daafe3b4186f6b6457e091a3600080546001600160a01b03909216620100000262010000600160b01b0319909216919091179055565b604080516060810182526000808252602082018190529181019190915290565b6040518060600160405280600081526020016000815260200160006001600160a01b031681525090565b80356117b78161337e565b80516117b78161337e565b60008083601f8401126123d457600080fd5b50813567ffffffffffffffff8111156123ec57600080fd5b60208301915083602082028301111561240457600080fd5b9250929050565b600082601f83011261241c57600080fd5b813561242f61242a826132a9565b613282565b9150818183526020840193506020810190508385602084028201111561245457600080fd5b60005b83811015612480578161246a88826123ac565b8452506020928301929190910190600101612457565b5050505092915050565b600082601f83011261249b57600080fd5b81356124a961242a826132a9565b915081818352602084019350602081019050838560608402820111156124ce57600080fd5b60005b8381101561248057816124e48882612512565b845250602090920191606091909101906001016124d1565b80356117b781613392565b80516117b781613392565b60006060828403121561252457600080fd5b61252e6060613282565b9050600061253c84846124fc565b825250602061254d8484830161258e565b60208301525060406125618482850161256d565b60408301525092915050565b80356117b78161339b565b80356117b7816133a4565b80516117b7816133a4565b80356117b7816133ad565b6000602082840312156125ab57600080fd5b600061058a84846123ac565b6000602082840312156125c957600080fd5b600061058a84846123b7565b60008060008060008060008060e0898b0312156125f157600080fd5b60006125fd8b8b6123ac565b985050602061260e8b828c016123ac565b975050604061261f8b828c016123ac565b96505060606126308b828c016123ac565b95505060806126418b828c016123ac565b94505060a06126528b828c016123ac565b93505060c089013567ffffffffffffffff81111561266f57600080fd5b61267b8b828c016123c2565b92509250509295985092959890939650565b600080604083850312156126a057600080fd5b60006126ac85856123ac565b92505060206126bd85828601612578565b9150509250929050565b600080600080608085870312156126dd57600080fd5b60006126e987876123ac565b94505060206126fa87828801612578565b935050604061270b87828801612578565b925050606061271c87828801612578565b91505092959194509250565b600080600080600060a0868803121561274057600080fd5b600061274c88886123ac565b955050602061275d88828901612578565b945050604061276e88828901612578565b935050606061277f88828901612578565b925050608061279088828901612578565b9150509295509295909350565b600080600080604085870312156127b357600080fd5b843567ffffffffffffffff8111156127ca57600080fd5b6127d6878288016123c2565b9450945050602085013567ffffffffffffffff8111156127f557600080fd5b612801878288016123c2565b95989497509550505050565b6000806040838503121561282057600080fd5b823567ffffffffffffffff81111561283757600080fd5b6128438582860161240b565b925050602083013567ffffffffffffffff81111561286057600080fd5b6126bd8582860161248a565b60006020828403121561287e57600080fd5b600061058a8484612507565b60006020828403121561289c57600080fd5b600061058a8484612578565b6000602082840312156128ba57600080fd5b600061058a8484612583565b60006128d28383612ed0565b505060600190565b6128e3816132fd565b82525050565b6128e36128f5826132fd565b613360565b6000612905826132d0565b61290f81856132d4565b935061291a836132ca565b8060005b8381101561294857815161293288826128c6565b975061293d836132ca565b92505060010161291e565b509495945050505050565b6128e381613308565b6128e38161331c565b60006129726020836132d4565b7f56657374696e67207265676973747279206164647265737320696e76616c6964815260200192915050565b60006129ab600f836132d4565b6e0c2e4e4c2f2e640dad2e6dac2e8c6d608b1b815260200192915050565b60006129d6601f836132d4565b7f746f6b656e206f776e65722063616e6e6f742062652030206164647265737300815260200192915050565b6000612a0f601b836132d4565b7f76657374696e672063616e6e6f74206265203020616464726573730000000000815260200192915050565b6000612a486026836132d4565b7f4f776e61626c653a206e6577206f776e657220697320746865207a65726f206181526564647265737360d01b602082015260400192915050565b6000612a90601e836132d4565b7f76657374696e67466163746f7279206164647265737320696e76616c69640000815260200192915050565b6000612ac9600e836132d4565b6d185b5bdd5b9d081a5b9d985b1a5960921b815260200192915050565b6000612af36017836132d4565b7f76657374696e67206164647265737320696e76616c6964000000000000000000815260200192915050565b6000612b2c600e836132d4565b6d76657374696e672065786973747360901b815260200192915050565b6000612b56601c836132d4565b7f76657374696e674f776e6572206164647265737320696e76616c696400000000815260200192915050565b6000612b8f6038836132d4565b7f5573652072656d6f766541646d696e4d616e616765722066756e6374696f6e2081527f746f207365742061646d696e4d616e6167657220746f20300000000000000000602082015260400192915050565b6000612bee602e836132d4565b7f496e697469616c697a61626c653a20636f6e747261637420697320616c72656181526d191e481a5b9a5d1a585b1a5e995960921b602082015260400192915050565b6000612c3e600c836132d4565b6b1d5b985d5d1a1bdc9a5e995960a21b815260200192915050565b6000612c666023836132d4565b7f66656553686172696e67436f6c6c6563746f72206164647265737320696e76618152621b1a5960ea1b602082015260400192915050565b6000612cab602c836132d4565b7f76657374696e67206372656174696f6e2074797065206d75737420626520677281526b06561746572207468616e20360a41b602082015260400192915050565b6000612cf96018836132d4565b7f7265636569766572206164647265737320696e76616c69640000000000000000815260200192915050565b6000612d326018836132d4565b7f41646d696e206d616e61676572206973206e6f74207365740000000000000000815260200192915050565b6000612d6b6010836132d4565b6f0aadcdac2e8c6d0cac840d8cadccee8d60831b815260200192915050565b6000612d976019836132d4565b7f4c6f636b6564534f56206164647265737320696e76616c696400000000000000815260200192915050565b6000612dd06017836132d4565b7f7374616b696e67206164647265737320696e76616c6964000000000000000000815260200192915050565b6000612e09600f836132d4565b6e1d1c985b9cd9995c8819985a5b1959608a1b815260200192915050565b6000612e346013836132d4565b7214d3d5881859191c995cdcc81a5b9d985b1a59606a1b815260200192915050565b6000612e636016836132dd565b756b65792e61646d696e2e6d616e616765722e726f6c6560501b815260160192915050565b80546060830190612e9881613327565b612ea28582612953565b50612eac8161333a565b612eb96020860182612f2a565b50612ec38161334d565b6113036040860182612f07565b80516060830190612ee18482612f10565b506020820151612ef46020850182612f10565b5060408201516105e760408501826128da565b6128e3816132e8565b6128e381613319565b6128e3612f2582613319565b613319565b6128e3816132f4565b6000612f3f82886128e9565b601482019150612f4f8287612f19565b602082019150612f5f8286612f19565b602082019150612f6f8285612f19565b602082019150612f7f8284612f19565b5060200195945050505050565b60006117b782612e56565b602081016117b782846128da565b60e08101612fb3828a6128da565b612fc060208301896128da565b612fcd60408301886128da565b612fda6060830187612f10565b612fe76080830186612f10565b612ff460a08301856128da565b61300160c08301846128da565b98975050505050505050565b6040810161301b82856128da565b6130286020830184612f10565b9392505050565b60a0810161303d82886128da565b61304a6020830187612f10565b6130576040830186612f10565b6130646060830185612f10565b6130716080830184612f10565b9695505050505050565b6020808252810161302881846128fa565b602081016117b78284612953565b606081016130a88286612953565b6130b56020830185612f2a565b61058a6040830184612f07565b602081016117b7828461295c565b602080825281016117b781612965565b602080825281016117b78161299e565b602080825281016117b7816129c9565b602080825281016117b781612a02565b602080825281016117b781612a3b565b602080825281016117b781612a83565b602080825281016117b781612abc565b602080825281016117b781612ae6565b602080825281016117b781612b1f565b602080825281016117b781612b49565b602080825281016117b781612b82565b602080825281016117b781612be1565b602080825281016117b781612c31565b602080825281016117b781612c59565b602080825281016117b781612c9e565b602080825281016117b781612cec565b602080825281016117b781612d25565b602080825281016117b781612d5e565b602080825281016117b781612d8a565b602080825281016117b781612dc3565b602080825281016117b781612dfc565b602080825281016117b781612e27565b606081016117b78284612e88565b602081016117b78284612f10565b6040810161301b8285612f10565b606081016132688286612f10565b6132756020830185612f10565b61058a60408301846128da565b60405181810167ffffffffffffffff811182821017156132a157600080fd5b604052919050565b600067ffffffffffffffff8211156132c057600080fd5b5060209081020190565b60200190565b5190565b90815260200190565b919050565b60ff1690565b6001600160801b031690565b63ffffffff1690565b60006117b78261330d565b151590565b6001600160a01b031690565b90565b60006117b7826132fd565b60006117b761333583613319565b6132e2565b60006117b761334883613378565b6132f4565b60006117b761335b83613372565b6132e8565b60006117b78260006117b78260601b90565b60281c90565b60081c90565b613387816132fd565b811461062957600080fd5b61338781613308565b613387816132e8565b61338781613319565b613387816132f456fea365627a7a72315820948bc811ffb4e6f6e72b939c866dec2778f9365377192dc483c98373191214ec6c6578706572696d656e74616cf564736f6c63430005110040",
  "implementation": "0x6Bb80C140E4aDfcC311e6B77B00508a193239A9B",
  "devdoc": {
    "methods": {
      "addAdmin(address)": {
        "details": "this function is kept here to support backward compatibility with the existing vestingRegistryProxy deployment in rsk network.",
        "params": {
          "_admin": "The addresses of the account to grant permissions."
        }
      },
      "addAdminByManager(address)": {
        "params": {
          "_admin": "The addresses of the account to grant permissions."
        }
      },
      "addDeployedVestings(address[],uint256[])": {
        "details": "migration of data from previous vesting registy contracts"
      },
      "addFourYearVestings(address[],address[])": {
        "params": {
          "_tokenOwners": "array of token owners",
          "_vestingAddresses": "array of vesting addresses"
        }
      },
      "createTeamVesting(address,uint256,uint256,uint256,uint256)": {
        "params": {
          "_amount": "the amount to be staked",
          "_cliff": "the cliff in seconds",
          "_duration": "the total duration in seconds",
          "_tokenOwner": "the owner of the tokens",
          "_vestingCreationType": "the type of vesting created(e.g. Origin, Bug Bounty etc.)"
        }
      },
      "createVesting(address,uint256,uint256,uint256)": {
        "details": "Calls a public createVestingAddr function with vestingCreationType. This is to accomodate the existing logic for LockedSOVvestingCreationType 0 = LockedSOV",
        "params": {
          "_amount": "the amount to be staked",
          "_cliff": "the cliff in seconds",
          "_duration": "the total duration in seconds",
          "_tokenOwner": "the owner of the tokens"
        }
      },
      "createVestingAddr(address,uint256,uint256,uint256,uint256)": {
        "params": {
          "_amount": "the amount to be staked",
          "_cliff": "the cliff in seconds",
          "_duration": "the total duration in seconds",
          "_tokenOwner": "the owner of the tokens",
          "_vestingCreationType": "the type of vesting created(e.g. Origin, Bug Bounty etc.)"
        }
      },
      "getAdminManager()": {
        "return": "Address of admin manager."
      },
      "getVesting(address)": {
        "details": "Calls a public getVestingAddr function with cliff and duration. This is to accomodate the existing logic for LockedSOVWe need to use LockedSOV.changeRegistryCliffAndDuration function very judiciouslyvestingCreationType 0 - LockedSOV",
        "params": {
          "_tokenOwner": "the owner of the tokens"
        }
      },
      "getVestingAddr(address,uint256,uint256,uint256)": {
        "details": "Important: Please use this instead of getVesting function"
      },
      "isOwner()": {
        "details": "Returns true if the caller is the current owner."
      },
      "isTeamVesting(address)": {
        "details": "check if the specific vesting address is team vesting or notread the vestingType from vestingCreationAndTypes storage",
        "params": {
          "_vestingAddress": "address of vesting contract"
        },
        "return": "true for teamVesting, false for normal vesting"
      },
      "owner()": {
        "details": "Returns the address of the current owner."
      },
      "registerVestingToVestingCreationAndTypes(address[],(bool,uint32,uint128)[])": {
        "details": "setter function to register existing vesting contract to vestingCreationAndTypes storageneed to set the function visilibty to public to support VestingCreationAndTypeDetails struct as parameter",
        "params": {
          "_vestingAddresses": "array of vesting address",
          "_vestingCreationAndTypes": "array for VestingCreationAndTypeDetails struct"
        }
      },
      "removeAdmin(address)": {
        "details": "this function is kept here to support backward compatibility with the existing vestingRegistryProxy deployment in rsk network.",
        "params": {
          "_admin": "The addresses of the account to revoke permissions."
        }
      },
      "removeAdminByManager(address)": {
        "params": {
          "_admin": "The addresses of the account to revoke permissions."
        }
      },
      "setAdminManager(address)": {
        "params": {
          "_newAdminManager": "The addresses of the account to grant permissions."
        }
      },
      "setVestingFactory(address)": {
        "params": {
          "_vestingFactory": "the address of vesting factory contract"
        }
      },
      "stakeTokens(address,uint256)": {
        "params": {
          "_amount": "the amount of tokens to stake",
          "_vesting": "the address of Vesting contract"
        }
      },
      "transferOwnership(address)": {
        "details": "Transfers ownership of the contract to a new account (`newOwner`). Can only be called by the current owner."
      },
      "transferSOV(address,uint256)": {
        "params": {
          "_amount": "the amount to be transferred",
          "_receiver": "the address of the SOV receiver"
        }
      }
    }
  },
  "userdoc": {
    "methods": {
      "addAdmin(address)": {
        "notice": "Add account to ACL (by owner only)."
      },
      "addAdminByManager(address)": {
        "notice": "Add account to ACL (by owner & manager)."
      },
      "addDeployedVestings(address[],uint256[])": {
        "notice": "adds vestings that were deployed in previous vesting registries"
      },
      "addFourYearVestings(address[],address[])": {
        "notice": "adds four year vestings to vesting registry logic"
      },
      "createTeamVesting(address,uint256,uint256,uint256,uint256)": {
        "notice": "creates Team Vesting contract"
      },
      "createVesting(address,uint256,uint256,uint256)": {
        "notice": "creates Vesting contract"
      },
      "createVestingAddr(address,uint256,uint256,uint256,uint256)": {
        "notice": "creates Vesting contract"
      },
      "getAdminManager()": {
        "notice": "Return address of the admin manager."
      },
      "getTeamVesting(address,uint256,uint256,uint256)": {
        "notice": "returns team vesting contract address for the given token owner, cliff, duration"
      },
      "getVesting(address)": {
        "notice": "returns vesting contract address for the given token owner"
      },
      "getVestingAddr(address,uint256,uint256,uint256)": {
        "notice": "public function that returns vesting contract address for the given token owner, cliff, duration"
      },
      "getVestingDetails(address)": {
        "notice": "returns cliff and duration for Vesting & TeamVesting contracts"
      },
      "getVestingsOf(address)": {
        "notice": "returns all vesting details for the given token owner"
      },
      "initialize(address,address,address,address,address,address,address[])": {
        "notice": "Replace constructor with initialize function for Upgradable Contracts This function will be called only once by the owner"
      },
      "isVestingAddress(address)": {
        "notice": "returns if the address is a vesting address"
      },
      "removeAdmin(address)": {
        "notice": "Remove account from ACL (by owner only)."
      },
      "removeAdminByManager(address)": {
        "notice": "Remove account from ACL (by owner & manager)."
      },
      "removeAdminManager()": {
        "notice": "Set admin manager to 0 address."
      },
      "setAdminManager(address)": {
        "notice": "Set new admin manager."
      },
      "setVestingFactory(address)": {
        "notice": "sets vesting factory address"
      },
      "stakeTokens(address,uint256)": {
        "notice": "stakes tokens according to the vesting schedule"
      },
      "transferSOV(address,uint256)": {
        "notice": "transfers SOV tokens to given address"
      }
    }
  },
  "storageLayout": {
    "storage": [
      {
        "astId": 54762,
        "contract": "contracts/governance/Vesting/VestingRegistryLogic.sol:VestingRegistryLogic",
        "label": "_initialized",
        "offset": 0,
        "slot": "0",
        "type": "t_bool"
      },
      {
        "astId": 54764,
        "contract": "contracts/governance/Vesting/VestingRegistryLogic.sol:VestingRegistryLogic",
        "label": "_initializing",
        "offset": 1,
        "slot": "0",
        "type": "t_bool"
      },
      {
        "astId": 54807,
        "contract": "contracts/governance/Vesting/VestingRegistryLogic.sol:VestingRegistryLogic",
        "label": "_owner",
        "offset": 2,
        "slot": "0",
        "type": "t_address"
      },
      {
        "astId": 62526,
        "contract": "contracts/governance/Vesting/VestingRegistryLogic.sol:VestingRegistryLogic",
        "label": "admins",
        "offset": 0,
        "slot": "1",
        "type": "t_mapping(t_address,t_bool)"
      },
      {
        "astId": 32093,
        "contract": "contracts/governance/Vesting/VestingRegistryLogic.sol:VestingRegistryLogic",
        "label": "vestingFactory",
        "offset": 0,
        "slot": "2",
        "type": "t_contract(IVestingFactory)26158"
      },
      {
        "astId": 32095,
        "contract": "contracts/governance/Vesting/VestingRegistryLogic.sol:VestingRegistryLogic",
        "label": "lockedSOV",
        "offset": 0,
        "slot": "3",
        "type": "t_contract(ILockedSOV)35282"
      },
      {
        "astId": 32098,
        "contract": "contracts/governance/Vesting/VestingRegistryLogic.sol:VestingRegistryLogic",
        "label": "vestingRegistries",
        "offset": 0,
        "slot": "4",
        "type": "t_array(t_contract(IVestingRegistry)26194)dyn_storage"
      },
      {
        "astId": 32100,
        "contract": "contracts/governance/Vesting/VestingRegistryLogic.sol:VestingRegistryLogic",
        "label": "SOV",
        "offset": 0,
        "slot": "5",
        "type": "t_address"
      },
      {
        "astId": 32102,
        "contract": "contracts/governance/Vesting/VestingRegistryLogic.sol:VestingRegistryLogic",
        "label": "staking",
        "offset": 0,
        "slot": "6",
        "type": "t_address"
      },
      {
        "astId": 32104,
        "contract": "contracts/governance/Vesting/VestingRegistryLogic.sol:VestingRegistryLogic",
        "label": "feeSharingCollector",
        "offset": 0,
        "slot": "7",
        "type": "t_address"
      },
      {
        "astId": 32106,
        "contract": "contracts/governance/Vesting/VestingRegistryLogic.sol:VestingRegistryLogic",
        "label": "vestingOwner",
        "offset": 0,
        "slot": "8",
        "type": "t_address"
      },
      {
        "astId": 32120,
        "contract": "contracts/governance/Vesting/VestingRegistryLogic.sol:VestingRegistryLogic",
        "label": "vestings",
        "offset": 0,
        "slot": "9",
        "type": "t_mapping(t_uint256,t_struct(Vesting)32116_storage)"
      },
      {
        "astId": 32125,
        "contract": "contracts/governance/Vesting/VestingRegistryLogic.sol:VestingRegistryLogic",
        "label": "vestingsOf",
        "offset": 0,
        "slot": "10",
        "type": "t_mapping(t_address,t_array(t_uint256)dyn_storage)"
      },
      {
        "astId": 32129,
        "contract": "contracts/governance/Vesting/VestingRegistryLogic.sol:VestingRegistryLogic",
        "label": "isVesting",
        "offset": 0,
        "slot": "11",
        "type": "t_mapping(t_address,t_bool)"
      },
      {
        "astId": 32140,
        "contract": "contracts/governance/Vesting/VestingRegistryLogic.sol:VestingRegistryLogic",
        "label": "vestingCreationAndTypes",
        "offset": 0,
        "slot": "12",
        "type": "t_mapping(t_address,t_struct(VestingCreationAndTypeDetails)32136_storage)"
      }
    ],
    "types": {
      "t_address": {
        "encoding": "inplace",
        "label": "address",
        "numberOfBytes": "20"
      },
      "t_array(t_contract(IVestingRegistry)26194)dyn_storage": {
        "base": "t_contract(IVestingRegistry)26194",
        "encoding": "dynamic_array",
        "label": "contract IVestingRegistry[]",
        "numberOfBytes": "32"
      },
      "t_array(t_uint256)dyn_storage": {
        "base": "t_uint256",
        "encoding": "dynamic_array",
        "label": "uint256[]",
        "numberOfBytes": "32"
      },
      "t_bool": {
        "encoding": "inplace",
        "label": "bool",
        "numberOfBytes": "1"
      },
      "t_contract(ILockedSOV)35282": {
        "encoding": "inplace",
        "label": "contract ILockedSOV",
        "numberOfBytes": "20"
      },
      "t_contract(IVestingFactory)26158": {
        "encoding": "inplace",
        "label": "contract IVestingFactory",
        "numberOfBytes": "20"
      },
      "t_contract(IVestingRegistry)26194": {
        "encoding": "inplace",
        "label": "contract IVestingRegistry",
        "numberOfBytes": "20"
      },
      "t_mapping(t_address,t_array(t_uint256)dyn_storage)": {
        "encoding": "mapping",
        "key": "t_address",
        "label": "mapping(address => uint256[])",
        "numberOfBytes": "32",
        "value": "t_array(t_uint256)dyn_storage"
      },
      "t_mapping(t_address,t_bool)": {
        "encoding": "mapping",
        "key": "t_address",
        "label": "mapping(address => bool)",
        "numberOfBytes": "32",
        "value": "t_bool"
      },
      "t_mapping(t_address,t_struct(VestingCreationAndTypeDetails)32136_storage)": {
        "encoding": "mapping",
        "key": "t_address",
        "label": "mapping(address => struct VestingRegistryStorage.VestingCreationAndTypeDetails)",
        "numberOfBytes": "32",
        "value": "t_struct(VestingCreationAndTypeDetails)32136_storage"
      },
      "t_mapping(t_uint256,t_struct(Vesting)32116_storage)": {
        "encoding": "mapping",
        "key": "t_uint256",
        "label": "mapping(uint256 => struct VestingRegistryStorage.Vesting)",
        "numberOfBytes": "32",
        "value": "t_struct(Vesting)32116_storage"
      },
      "t_struct(Vesting)32116_storage": {
        "encoding": "inplace",
        "label": "struct VestingRegistryStorage.Vesting",
        "members": [
          {
            "astId": 32111,
            "contract": "contracts/governance/Vesting/VestingRegistryLogic.sol:VestingRegistryLogic",
            "label": "vestingType",
            "offset": 0,
            "slot": "0",
            "type": "t_uint256"
          },
          {
            "astId": 32113,
            "contract": "contracts/governance/Vesting/VestingRegistryLogic.sol:VestingRegistryLogic",
            "label": "vestingCreationType",
            "offset": 0,
            "slot": "1",
            "type": "t_uint256"
          },
          {
            "astId": 32115,
            "contract": "contracts/governance/Vesting/VestingRegistryLogic.sol:VestingRegistryLogic",
            "label": "vestingAddress",
            "offset": 0,
            "slot": "2",
            "type": "t_address"
          }
        ],
        "numberOfBytes": "96"
      },
      "t_struct(VestingCreationAndTypeDetails)32136_storage": {
        "encoding": "inplace",
        "label": "struct VestingRegistryStorage.VestingCreationAndTypeDetails",
        "members": [
          {
            "astId": 32131,
            "contract": "contracts/governance/Vesting/VestingRegistryLogic.sol:VestingRegistryLogic",
            "label": "isSet",
            "offset": 0,
            "slot": "0",
            "type": "t_bool"
          },
          {
            "astId": 32133,
            "contract": "contracts/governance/Vesting/VestingRegistryLogic.sol:VestingRegistryLogic",
            "label": "vestingType",
            "offset": 1,
            "slot": "0",
            "type": "t_uint32"
          },
          {
            "astId": 32135,
            "contract": "contracts/governance/Vesting/VestingRegistryLogic.sol:VestingRegistryLogic",
            "label": "vestingCreationType",
            "offset": 5,
            "slot": "0",
            "type": "t_uint128"
          }
        ],
        "numberOfBytes": "32"
      },
      "t_uint128": {
        "encoding": "inplace",
        "label": "uint128",
        "numberOfBytes": "16"
      },
      "t_uint256": {
        "encoding": "inplace",
        "label": "uint256",
        "numberOfBytes": "32"
      },
      "t_uint32": {
        "encoding": "inplace",
        "label": "uint32",
        "numberOfBytes": "4"
      }
    }
  }
}