{
  "address": "0x09e8659B6d204C6b1bED2BFF8E3F43F834A5Bbc4",
  "abi": [
    {
      "anonymous": false,
      "inputs": [
        {
          "indexed": false,
          "internalType": "address",
          "name": "admin",
          "type": "address"
        }
      ],
      "name": "AdminAdded",
      "type": "event"
    },
    {
      "anonymous": false,
      "inputs": [
        {
          "indexed": true,
          "internalType": "address",
          "name": "sender",
          "type": "address"
        },
        {
          "indexed": true,
          "internalType": "address",
          "name": "oldAdminManager",
          "type": "address"
        },
        {
          "indexed": true,
          "internalType": "address",
          "name": "newAdminManager",
          "type": "address"
        }
      ],
      "name": "AdminManagerChanged",
      "type": "event"
    },
    {
      "anonymous": false,
      "inputs": [
        {
          "indexed": true,
          "internalType": "address",
          "name": "sender",
          "type": "address"
        },
        {
          "indexed": true,
          "internalType": "address",
          "name": "removedAdminManager",
          "type": "address"
        }
      ],
      "name": "AdminManagerRemoved",
      "type": "event"
    },
    {
      "anonymous": false,
      "inputs": [
        {
          "indexed": false,
          "internalType": "address",
          "name": "admin",
          "type": "address"
        }
      ],
      "name": "AdminRemoved",
      "type": "event"
    },
    {
      "anonymous": false,
      "inputs": [
        {
          "indexed": true,
          "internalType": "address",
          "name": "previousOwner",
          "type": "address"
        },
        {
          "indexed": true,
          "internalType": "address",
          "name": "newOwner",
          "type": "address"
        }
      ],
      "name": "OwnershipTransferred",
      "type": "event"
    },
    {
      "anonymous": false,
      "inputs": [
        {
          "indexed": true,
          "internalType": "address",
          "name": "receiver",
          "type": "address"
        },
        {
          "indexed": false,
          "internalType": "uint256",
          "name": "amount",
          "type": "uint256"
        }
      ],
      "name": "SOVTransferred",
      "type": "event"
    },
    {
      "anonymous": false,
      "inputs": [
        {
          "indexed": true,
          "internalType": "address",
          "name": "tokenOwner",
          "type": "address"
        },
        {
          "indexed": false,
          "internalType": "address",
          "name": "vesting",
          "type": "address"
        },
        {
          "indexed": false,
          "internalType": "uint256",
          "name": "cliff",
          "type": "uint256"
        },
        {
          "indexed": false,
          "internalType": "uint256",
          "name": "duration",
          "type": "uint256"
        },
        {
          "indexed": false,
          "internalType": "uint256",
          "name": "amount",
          "type": "uint256"
        },
        {
          "indexed": false,
          "internalType": "uint256",
          "name": "vestingCreationType",
          "type": "uint256"
        }
      ],
      "name": "TeamVestingCreated",
      "type": "event"
    },
    {
      "anonymous": false,
      "inputs": [
        {
          "indexed": true,
          "internalType": "address",
          "name": "vesting",
          "type": "address"
        },
        {
          "indexed": false,
          "internalType": "uint256",
          "name": "amount",
          "type": "uint256"
        }
      ],
      "name": "TokensStaked",
      "type": "event"
    },
    {
      "anonymous": false,
      "inputs": [
        {
          "indexed": true,
          "internalType": "address",
          "name": "tokenOwner",
          "type": "address"
        },
        {
          "indexed": false,
          "internalType": "address",
          "name": "vesting",
          "type": "address"
        },
        {
          "indexed": false,
          "internalType": "uint256",
          "name": "cliff",
          "type": "uint256"
        },
        {
          "indexed": false,
          "internalType": "uint256",
          "name": "duration",
          "type": "uint256"
        },
        {
          "indexed": false,
          "internalType": "uint256",
          "name": "amount",
          "type": "uint256"
        },
        {
          "indexed": false,
          "internalType": "uint256",
          "name": "vestingCreationType",
          "type": "uint256"
        }
      ],
      "name": "VestingCreated",
      "type": "event"
    },
    {
      "anonymous": false,
      "inputs": [
        {
          "indexed": true,
          "internalType": "address",
          "name": "vesting",
          "type": "address"
        },
        {
          "components": [
            {
              "internalType": "bool",
              "name": "isSet",
              "type": "bool"
            },
            {
              "internalType": "uint32",
              "name": "vestingType",
              "type": "uint32"
            },
            {
              "internalType": "uint128",
              "name": "vestingCreationType",
              "type": "uint128"
            }
          ],
          "indexed": false,
          "internalType": "struct VestingRegistryStorage.VestingCreationAndTypeDetails",
          "name": "vestingCreationAndType",
          "type": "tuple"
        }
      ],
      "name": "VestingCreationAndTypesSet",
      "type": "event"
    },
    {
      "constant": true,
      "inputs": [],
      "name": "SOV",
      "outputs": [
        {
          "internalType": "address",
          "name": "",
          "type": "address"
        }
      ],
      "payable": false,
      "stateMutability": "view",
      "type": "function"
    },
    {
      "constant": false,
      "inputs": [
        {
          "internalType": "address",
          "name": "_admin",
          "type": "address"
        }
      ],
      "name": "addAdmin",
      "outputs": [],
      "payable": false,
      "stateMutability": "nonpayable",
      "type": "function"
    },
    {
      "constant": false,
      "inputs": [
        {
          "internalType": "address[]",
          "name": "_tokenOwners",
          "type": "address[]"
        },
        {
          "internalType": "uint256[]",
          "name": "_vestingCreationTypes",
          "type": "uint256[]"
        }
      ],
      "name": "addDeployedVestings",
      "outputs": [],
      "payable": false,
      "stateMutability": "nonpayable",
      "type": "function"
    },
    {
      "constant": false,
      "inputs": [
        {
          "internalType": "address[]",
          "name": "_tokenOwners",
          "type": "address[]"
        },
        {
          "internalType": "address[]",
          "name": "_vestingAddresses",
          "type": "address[]"
        }
      ],
      "name": "addFourYearVestings",
      "outputs": [],
      "payable": false,
      "stateMutability": "nonpayable",
      "type": "function"
    },
    {
      "constant": true,
      "inputs": [
        {
          "internalType": "address",
          "name": "",
          "type": "address"
        }
      ],
      "name": "admins",
      "outputs": [
        {
          "internalType": "bool",
          "name": "",
          "type": "bool"
        }
      ],
      "payable": false,
      "stateMutability": "view",
      "type": "function"
    },
    {
      "constant": false,
      "inputs": [
        {
          "internalType": "address",
          "name": "_tokenOwner",
          "type": "address"
        },
        {
          "internalType": "uint256",
          "name": "_amount",
          "type": "uint256"
        },
        {
          "internalType": "uint256",
          "name": "_cliff",
          "type": "uint256"
        },
        {
          "internalType": "uint256",
          "name": "_duration",
          "type": "uint256"
        },
        {
          "internalType": "uint256",
          "name": "_vestingCreationType",
          "type": "uint256"
        }
      ],
      "name": "createTeamVesting",
      "outputs": [],
      "payable": false,
      "stateMutability": "nonpayable",
      "type": "function"
    },
    {
      "constant": false,
      "inputs": [
        {
          "internalType": "address",
          "name": "_tokenOwner",
          "type": "address"
        },
        {
          "internalType": "uint256",
          "name": "_amount",
          "type": "uint256"
        },
        {
          "internalType": "uint256",
          "name": "_cliff",
          "type": "uint256"
        },
        {
          "internalType": "uint256",
          "name": "_duration",
          "type": "uint256"
        }
      ],
      "name": "createVesting",
      "outputs": [],
      "payable": false,
      "stateMutability": "nonpayable",
      "type": "function"
    },
    {
      "constant": false,
      "inputs": [
        {
          "internalType": "address",
          "name": "_tokenOwner",
          "type": "address"
        },
        {
          "internalType": "uint256",
          "name": "_amount",
          "type": "uint256"
        },
        {
          "internalType": "uint256",
          "name": "_cliff",
          "type": "uint256"
        },
        {
          "internalType": "uint256",
          "name": "_duration",
          "type": "uint256"
        },
        {
          "internalType": "uint256",
          "name": "_vestingCreationType",
          "type": "uint256"
        }
      ],
      "name": "createVestingAddr",
      "outputs": [],
      "payable": false,
      "stateMutability": "nonpayable",
      "type": "function"
    },
    {
      "constant": true,
      "inputs": [],
      "name": "feeSharingCollector",
      "outputs": [
        {
          "internalType": "address",
          "name": "",
          "type": "address"
        }
      ],
      "payable": false,
      "stateMutability": "view",
      "type": "function"
    },
    {
      "constant": true,
      "inputs": [],
      "name": "getAdminManager",
      "outputs": [
        {
          "internalType": "address",
          "name": "_adminManager",
          "type": "address"
        }
      ],
      "payable": false,
      "stateMutability": "view",
      "type": "function"
    },
    {
      "constant": true,
      "inputs": [
        {
          "internalType": "address",
          "name": "_tokenOwner",
          "type": "address"
        },
        {
          "internalType": "uint256",
          "name": "_cliff",
          "type": "uint256"
        },
        {
          "internalType": "uint256",
          "name": "_duration",
          "type": "uint256"
        },
        {
          "internalType": "uint256",
          "name": "_vestingCreationType",
          "type": "uint256"
        }
      ],
      "name": "getTeamVesting",
      "outputs": [
        {
          "internalType": "address",
          "name": "",
          "type": "address"
        }
      ],
      "payable": false,
      "stateMutability": "view",
      "type": "function"
    },
    {
      "constant": true,
      "inputs": [
        {
          "internalType": "address",
          "name": "_tokenOwner",
          "type": "address"
        }
      ],
      "name": "getVesting",
      "outputs": [
        {
          "internalType": "address",
          "name": "",
          "type": "address"
        }
      ],
      "payable": false,
      "stateMutability": "view",
      "type": "function"
    },
    {
      "constant": true,
      "inputs": [
        {
          "internalType": "address",
          "name": "_tokenOwner",
          "type": "address"
        },
        {
          "internalType": "uint256",
          "name": "_cliff",
          "type": "uint256"
        },
        {
          "internalType": "uint256",
          "name": "_duration",
          "type": "uint256"
        },
        {
          "internalType": "uint256",
          "name": "_vestingCreationType",
          "type": "uint256"
        }
      ],
      "name": "getVestingAddr",
      "outputs": [
        {
          "internalType": "address",
          "name": "",
          "type": "address"
        }
      ],
      "payable": false,
      "stateMutability": "view",
      "type": "function"
    },
    {
      "constant": true,
      "inputs": [
        {
          "internalType": "address",
          "name": "_vestingAddress",
          "type": "address"
        }
      ],
      "name": "getVestingDetails",
      "outputs": [
        {
          "internalType": "uint256",
          "name": "cliff",
          "type": "uint256"
        },
        {
          "internalType": "uint256",
          "name": "duration",
          "type": "uint256"
        }
      ],
      "payable": false,
      "stateMutability": "view",
      "type": "function"
    },
    {
      "constant": true,
      "inputs": [
        {
          "internalType": "address",
          "name": "_tokenOwner",
          "type": "address"
        }
      ],
      "name": "getVestingsOf",
      "outputs": [
        {
          "components": [
            {
              "internalType": "uint256",
              "name": "vestingType",
              "type": "uint256"
            },
            {
              "internalType": "uint256",
              "name": "vestingCreationType",
              "type": "uint256"
            },
            {
              "internalType": "address",
              "name": "vestingAddress",
              "type": "address"
            }
          ],
          "internalType": "struct VestingRegistryStorage.Vesting[]",
          "name": "",
          "type": "tuple[]"
        }
      ],
      "payable": false,
      "stateMutability": "view",
      "type": "function"
    },
    {
      "constant": false,
      "inputs": [
        {
          "internalType": "address",
          "name": "_vestingFactory",
          "type": "address"
        },
        {
          "internalType": "address",
          "name": "_SOV",
          "type": "address"
        },
        {
          "internalType": "address",
          "name": "_staking",
          "type": "address"
        },
        {
          "internalType": "address",
          "name": "_feeSharingCollector",
          "type": "address"
        },
        {
          "internalType": "address",
          "name": "_vestingOwner",
          "type": "address"
        },
        {
          "internalType": "address",
          "name": "_lockedSOV",
          "type": "address"
        },
        {
          "internalType": "address[]",
          "name": "_vestingRegistries",
          "type": "address[]"
        }
      ],
      "name": "initialize",
      "outputs": [],
      "payable": false,
      "stateMutability": "nonpayable",
      "type": "function"
    },
    {
      "constant": true,
      "inputs": [],
      "name": "isOwner",
      "outputs": [
        {
          "internalType": "bool",
          "name": "",
          "type": "bool"
        }
      ],
      "payable": false,
      "stateMutability": "view",
      "type": "function"
    },
    {
      "constant": true,
      "inputs": [
        {
          "internalType": "address",
          "name": "_vestingAddress",
          "type": "address"
        }
      ],
      "name": "isTeamVesting",
      "outputs": [
        {
          "internalType": "bool",
          "name": "",
          "type": "bool"
        }
      ],
      "payable": false,
      "stateMutability": "view",
      "type": "function"
    },
    {
      "constant": true,
      "inputs": [
        {
          "internalType": "address",
          "name": "",
          "type": "address"
        }
      ],
      "name": "isVesting",
      "outputs": [
        {
          "internalType": "bool",
          "name": "",
          "type": "bool"
        }
      ],
      "payable": false,
      "stateMutability": "view",
      "type": "function"
    },
    {
      "constant": true,
      "inputs": [
        {
          "internalType": "address",
          "name": "_vestingAddress",
          "type": "address"
        }
      ],
      "name": "isVestingAddress",
      "outputs": [
        {
          "internalType": "bool",
          "name": "isVestingAddr",
          "type": "bool"
        }
      ],
      "payable": false,
      "stateMutability": "view",
      "type": "function"
    },
    {
      "constant": true,
      "inputs": [],
      "name": "lockedSOV",
      "outputs": [
        {
          "internalType": "contract ILockedSOV",
          "name": "",
          "type": "address"
        }
      ],
      "payable": false,
      "stateMutability": "view",
      "type": "function"
    },
    {
      "constant": true,
      "inputs": [],
      "name": "owner",
      "outputs": [
        {
          "internalType": "address",
          "name": "",
          "type": "address"
        }
      ],
      "payable": false,
      "stateMutability": "view",
      "type": "function"
    },
    {
      "constant": false,
      "inputs": [
        {
          "internalType": "address[]",
          "name": "_vestingAddresses",
          "type": "address[]"
        },
        {
          "components": [
            {
              "internalType": "bool",
              "name": "isSet",
              "type": "bool"
            },
            {
              "internalType": "uint32",
              "name": "vestingType",
              "type": "uint32"
            },
            {
              "internalType": "uint128",
              "name": "vestingCreationType",
              "type": "uint128"
            }
          ],
          "internalType": "struct VestingRegistryStorage.VestingCreationAndTypeDetails[]",
          "name": "_vestingCreationAndTypes",
          "type": "tuple[]"
        }
      ],
      "name": "registerVestingToVestingCreationAndTypes",
      "outputs": [],
      "payable": false,
      "stateMutability": "nonpayable",
      "type": "function"
    },
    {
      "constant": false,
      "inputs": [
        {
          "internalType": "address",
          "name": "_admin",
          "type": "address"
        }
      ],
      "name": "removeAdmin",
      "outputs": [],
      "payable": false,
      "stateMutability": "nonpayable",
      "type": "function"
    },
    {
      "constant": false,
      "inputs": [],
      "name": "removeAdminManager",
      "outputs": [],
      "payable": false,
      "stateMutability": "nonpayable",
      "type": "function"
    },
    {
      "constant": false,
      "inputs": [
        {
          "internalType": "address",
          "name": "_newAdminManager",
          "type": "address"
        }
      ],
      "name": "setAdminManager",
      "outputs": [],
      "payable": false,
      "stateMutability": "nonpayable",
      "type": "function"
    },
    {
      "constant": false,
      "inputs": [
        {
          "internalType": "address",
          "name": "_vestingFactory",
          "type": "address"
        }
      ],
      "name": "setVestingFactory",
      "outputs": [],
      "payable": false,
      "stateMutability": "nonpayable",
      "type": "function"
    },
    {
      "constant": false,
      "inputs": [
        {
          "internalType": "address",
          "name": "_vesting",
          "type": "address"
        },
        {
          "internalType": "uint256",
          "name": "_amount",
          "type": "uint256"
        }
      ],
      "name": "stakeTokens",
      "outputs": [],
      "payable": false,
      "stateMutability": "nonpayable",
      "type": "function"
    },
    {
      "constant": true,
      "inputs": [],
      "name": "staking",
      "outputs": [
        {
          "internalType": "address",
          "name": "",
          "type": "address"
        }
      ],
      "payable": false,
      "stateMutability": "view",
      "type": "function"
    },
    {
      "constant": false,
      "inputs": [
        {
          "internalType": "address",
          "name": "newOwner",
          "type": "address"
        }
      ],
      "name": "transferOwnership",
      "outputs": [],
      "payable": false,
      "stateMutability": "nonpayable",
      "type": "function"
    },
    {
      "constant": false,
      "inputs": [
        {
          "internalType": "address",
          "name": "_receiver",
          "type": "address"
        },
        {
          "internalType": "uint256",
          "name": "_amount",
          "type": "uint256"
        }
      ],
      "name": "transferSOV",
      "outputs": [],
      "payable": false,
      "stateMutability": "nonpayable",
      "type": "function"
    },
    {
      "constant": true,
      "inputs": [
        {
          "internalType": "address",
          "name": "",
          "type": "address"
        }
      ],
      "name": "vestingCreationAndTypes",
      "outputs": [
        {
          "internalType": "bool",
          "name": "isSet",
          "type": "bool"
        },
        {
          "internalType": "uint32",
          "name": "vestingType",
          "type": "uint32"
        },
        {
          "internalType": "uint128",
          "name": "vestingCreationType",
          "type": "uint128"
        }
      ],
      "payable": false,
      "stateMutability": "view",
      "type": "function"
    },
    {
      "constant": true,
      "inputs": [],
      "name": "vestingFactory",
      "outputs": [
        {
          "internalType": "contract IVestingFactory",
          "name": "",
          "type": "address"
        }
      ],
      "payable": false,
      "stateMutability": "view",
      "type": "function"
    },
    {
      "constant": true,
      "inputs": [],
      "name": "vestingOwner",
      "outputs": [
        {
          "internalType": "address",
          "name": "",
          "type": "address"
        }
      ],
      "payable": false,
      "stateMutability": "view",
      "type": "function"
    },
    {
      "constant": true,
      "inputs": [
        {
          "internalType": "uint256",
          "name": "",
          "type": "uint256"
        }
      ],
      "name": "vestingRegistries",
      "outputs": [
        {
          "internalType": "contract IVestingRegistry",
          "name": "",
          "type": "address"
        }
      ],
      "payable": false,
      "stateMutability": "view",
      "type": "function"
    },
    {
      "constant": true,
      "inputs": [
        {
          "internalType": "uint256",
          "name": "",
          "type": "uint256"
        }
      ],
      "name": "vestings",
      "outputs": [
        {
          "internalType": "uint256",
          "name": "vestingType",
          "type": "uint256"
        },
        {
          "internalType": "uint256",
          "name": "vestingCreationType",
          "type": "uint256"
        },
        {
          "internalType": "address",
          "name": "vestingAddress",
          "type": "address"
        }
      ],
      "payable": false,
      "stateMutability": "view",
      "type": "function"
    },
    {
      "constant": true,
      "inputs": [
        {
          "internalType": "address",
          "name": "",
          "type": "address"
        },
        {
          "internalType": "uint256",
          "name": "",
          "type": "uint256"
        }
      ],
      "name": "vestingsOf",
      "outputs": [
        {
          "internalType": "uint256",
          "name": "",
          "type": "uint256"
        }
      ],
      "payable": false,
      "stateMutability": "view",
      "type": "function"
    }
  ],
  "numDeployments": 3,
  "bytecode": "0x608060405260006100176001600160e01b0361007016565b6000805462010000600160b01b031916620100006001600160a01b038416908102919091178255604051929350917f8be0079c531659141344cd1fd0a4f28419497f9722a3daafe3b4186f6b6457e0908290a350610074565b3390565b613352806100836000396000f3fe608060405234801561001057600080fd5b50600436106102275760003560e01c80638dedf00911610130578063c36519d1116100b8578063efb957331161007c578063efb957331461049f578063f2f46b3b146104bf578063f2fde38b146104c7578063f421ed7e146104da578063f60826ee146104ed57610227565b8063c36519d114610433578063c680c0b714610446578063ca210d8c14610459578063cc49ede71461046c578063dfb9366d1461047f57610227565b8063b810c648116100ff578063b810c648146103df578063bc160758146103f2578063bc84f9ca14610405578063bd7b590814610418578063c0e098521461042057610227565b80638dedf009146103a65780638f32d59b146103c75780639af05157146103cf578063b29d2514146103d757610227565b80636b7dbb2d116101b357806380fcb9921161018257806380fcb99214610327578063821bee7314610349578063842a49d51461036b578063862e229d1461038b5780638da5cb5b1461039e57610227565b80636b7dbb2d146102e657806370480275146102ee578063786931da1461030157806379a83f5a1461031457610227565b80631f509326116101fa5780631f50932614610285578063377220fd14610298578063429b62e5146102ab57806342a82b4f146102cb5780634cf088d9146102de57610227565b806302df04761461022c5780630665a06f1461025557806308dcb3601461026a5780631785f53c14610272575b600080fd5b61023f61023a36600461264e565b6104f5565b60405161024c9190612ef0565b60405180910390f35b61026861026336600461264e565b610556565b005b61023f6105b1565b610268610280366004612520565b6105c0565b6102686102933660046126af565b610662565b6102686102a6366004612520565b610704565b6102be6102b9366004612520565b610734565b60405161024c9190612fe5565b6102686102d936600461255c565b610749565b61023f6109b8565b61023f6109c7565b6102686102fc366004612520565b6109d6565b61026861030f366004612724565b610a72565b610268610322366004612614565b610d61565b61033a610335366004612520565b610f0d565b60405161024c93929190612ff3565b61035c610357366004612811565b610f42565b60405161024c939291906131b3565b61037e610379366004612811565b610f6c565b60405161024c919061301b565b6102686103993660046126af565b610f93565b61023f611022565b6103b96103b4366004612520565b611037565b60405161024c9291906131a5565b6102be61112b565b610268611155565b61023f611212565b6102686103ed366004612724565b611231565b610268610400366004612520565b611341565b610268610413366004612794565b6113ea565b61023f61154a565b6102be61042e366004612520565b611559565b61023f61044136600461264e565b61156e565b610268610454366004612614565b611577565b6102be610467366004612520565b6116b7565b61023f61047a366004612520565b6116d5565b61049261048d366004612614565b6117f4565b60405161024c9190613197565b6104b26104ad366004612520565b611822565b60405161024c9190612fd4565b61037e61196c565b6102686104d5366004612520565b61197b565b6102be6104e8366004612520565b6119a8565b61037e6119f3565b60008060015b905060008682878787604051602001610518959493929190612e8c565b60408051601f198184030181529181528151602092830120600090815260099092529020600201546001600160a01b0316925050505b949350505050565b61055e61112b565b8061057857503360009081526001602052604090205460ff165b61059d5760405162461bcd60e51b8152600401610594906130d9565b60405180910390fd5b6105ab848484846003610662565b50505050565b6005546001600160a01b031681565b6105c861112b565b806105eb57506105d6611212565b6001600160a01b0316336001600160a01b0316145b6106075760405162461bcd60e51b8152600401610594906130d9565b6001600160a01b03811660009081526001602052604090819020805460ff19169055517fa3b62bc36326052d97ea62d63c3d60308ed4c3ea8ac079dd8499f1e9c4f80c0f90610657908390612ef0565b60405180910390a150565b61066a61112b565b8061068457503360009081526001602052604090205460ff165b6106a05760405162461bcd60e51b8152600401610594906130d9565b60006106b186858560015b86611a02565b9050856001600160a01b03167fd6fcfd83804f6b6b63260c7b99eb10060bc1319dbc9177fb6defc7bd614017bf82868689876040516106f4959493929190612f88565b60405180910390a2505050505050565b61070c61112b565b6107285760405162461bcd60e51b8152600401610594906130d9565b61073181611d6a565b50565b60016020526000908152604090205460ff1681565b61075161112b565b61076d5760405162461bcd60e51b8152600401610594906130d9565b600054610100900460ff1680610786575060005460ff16155b6107a25760405162461bcd60e51b8152600401610594906130c9565b600054610100900460ff161580156107cd576000805460ff1961ff0019909116610100171660011790555b6001600160a01b0388166107f35760405162461bcd60e51b815260040161059490613179565b6001600160a01b0387166108195760405162461bcd60e51b815260040161059490613159565b6001600160a01b03861661083f5760405162461bcd60e51b8152600401610594906130e9565b6001600160a01b0385166108655760405162461bcd60e51b8152600401610594906130b9565b6001600160a01b03841661088b5760405162461bcd60e51b815260040161059490613149565b61089489611d6a565b600580546001600160a01b03199081166001600160a01b038b8116919091179092556006805482168a84161790556007805482168984161790556008805482168884161790556003805490911691861691909117905560005b8281101561099a57600084848381811061090357fe5b90506020020160206109189190810190612520565b6001600160a01b0316141561093f5760405162461bcd60e51b815260040161059490613029565b600484848381811061094d57fe5b90506020020160206109629190810190612520565b815460018082018455600093845260209093200180546001600160a01b0319166001600160a01b0392909216919091179055016108ed565b5080156109ad576000805461ff00191690555b505050505050505050565b6006546001600160a01b031681565b6007546001600160a01b031681565b6109de61112b565b80610a0157506109ec611212565b6001600160a01b0316336001600160a01b0316145b610a1d5760405162461bcd60e51b8152600401610594906130d9565b6001600160a01b038116600090815260016020819052604091829020805460ff19169091179055517f44d6d25963f097ad14f29f06854a01f575648a1ef82f30e562ccd3889717e33990610657908390612ef0565b610a7a61112b565b80610a9457503360009081526001602052604090205460ff165b610ab05760405162461bcd60e51b8152600401610594906130d9565b828114610acf5760405162461bcd60e51b815260040161059490613039565b60046224ea0063059fa60060005b86811015610d5757600b6000878784818110610af557fe5b9050602002016020610b0a9190810190612520565b6001600160a01b0316815260208101919091526040016000205460ff1615610b445760405162461bcd60e51b8152600401610594906130a9565b6000888883818110610b5257fe5b9050602002016020610b679190810190612520565b6001600160a01b03161415610b8e5760405162461bcd60e51b815260040161059490613049565b6000868683818110610b9c57fe5b9050602002016020610bb19190810190612520565b6001600160a01b03161415610bd85760405162461bcd60e51b815260040161059490613059565b6000888883818110610be657fe5b9050602002016020610bfb9190810190612520565b6001858588604051602001610c14959493929190612e8c565b60408051808303601f1901815282825280516020918201206060840183526001845290830188905292508101888885818110610c4c57fe5b9050602002016020610c619190810190612520565b6001600160a01b039081169091526000838152600960209081526040808320855181559185015160018301559390930151600290930180546001600160a01b03191693909216929092179055600a908a8a85818110610cbc57fe5b9050602002016020610cd19190810190612520565b6001600160a01b031681526020808201929092526040016000908120805460018181018355918352928220909201839055600b90898986818110610d1157fe5b9050602002016020610d269190810190612520565b6001600160a01b031681526020810191909152604001600020805460ff191691151591909117905550600101610add565b5050505050505050565b610d6961112b565b80610d8357503360009081526001602052604090205460ff165b610d9f5760405162461bcd60e51b8152600401610594906130d9565b6001600160a01b038216610dc55760405162461bcd60e51b815260040161059490613099565b60008111610de55760405162461bcd60e51b815260040161059490613089565b60055460405163095ea7b360e01b81526001600160a01b039091169063095ea7b390610e179085908590600401612f66565b602060405180830381600087803b158015610e3157600080fd5b505af1158015610e45573d6000803e3d6000fd5b505050506040513d601f19601f82011682018060405250610e6991908101906127f3565b50604051637547c7a360e01b81526001600160a01b03831690637547c7a390610e96908490600401613197565b600060405180830381600087803b158015610eb057600080fd5b505af1158015610ec4573d6000803e3d6000fd5b50505050816001600160a01b03167fb539ca1e5c8d398ddf1c41c30166f33404941683be4683319b57669a93dad4ef82604051610f019190613197565b60405180910390a25050565b600c6020526000908152604090205460ff811690610100810463ffffffff16906501000000000090046001600160801b031683565b6009602052600090815260409020805460018201546002909201549091906001600160a01b031683565b60048181548110610f7957fe5b6000918252602090912001546001600160a01b0316905081565b610f9b61112b565b80610fb557503360009081526001602052604090205460ff165b610fd15760405162461bcd60e51b8152600401610594906130d9565b6000610fdf868585846106ab565b9050856001600160a01b03167f3791c6c90c276d011b4b885c0bfba0554342acf50a539baca1b06f070af25ff482868689876040516106f4959493929190612f88565b6000546201000090046001600160a01b031690565b6000806000839050806001600160a01b03166313d033c06040518163ffffffff1660e01b815260040160206040518083038186803b15801561107857600080fd5b505afa15801561108c573d6000803e3d6000fd5b505050506040513d601f19601f820116820180604052506110b0919081019061282f565b816001600160a01b0316630fb5a6b46040518163ffffffff1660e01b815260040160206040518083038186803b1580156110e957600080fd5b505afa1580156110fd573d6000803e3d6000fd5b505050506040513d601f19601f82011682018060405250611121919081019061282f565b9250925050915091565b600080546201000090046001600160a01b0316611146611db2565b6001600160a01b031614905090565b61115d61112b565b6111795760405162461bcd60e51b8152600401610594906130d9565b6000611183611212565b6001600160a01b031614156111aa5760405162461bcd60e51b815260040161059490613129565b6111b2611212565b6001600160a01b0316336001600160a01b03167f560ce9bc23860aa4ec0898e6c59b295d3461332304d14f1ac216282407da435f60405160405180910390a3604051600090819061120290612ee5565b6040519081900390209190915550565b60008060405161122190612ee5565b6040519081900390205492915050565b61123961112b565b8061125357503360009081526001602052604090205460ff165b61126f5760405162461bcd60e51b8152600401610594906130d9565b60005b8381101561133a57600085858381811061128857fe5b905060200201602061129d9190810190612520565b6001600160a01b031614156112c45760405162461bcd60e51b815260040161059490613049565b60008383838181106112d257fe5b90506020020135116112f65760405162461bcd60e51b8152600401610594906130f9565b61133285858381811061130557fe5b905060200201602061131a9190810190612520565b84848481811061132657fe5b90506020020135611db6565b600101611272565b5050505050565b61134961112b565b6113655760405162461bcd60e51b8152600401610594906130d9565b6001600160a01b03811661138b5760405162461bcd60e51b815260040161059490613119565b806001600160a01b031661139d611212565b6001600160a01b0316336001600160a01b03167f6bf6a88b1bb767c00d69f519bfabc075817f28425abfc80cfb779ef4e9b0bbe560405160405180910390a4600060405161120290612ee5565b6113f261112b565b8061140c57503360009081526001602052604090205460ff165b6114285760405162461bcd60e51b8152600401610594906130d9565b80518251146114495760405162461bcd60e51b815260040161059490613139565b60005b81518110156115455761145d6122e9565b82828151811061146957fe5b60200260200101519050600084838151811061148157fe5b6020908102919091018101516001600160a01b0381166000818152600c845260409081902086518154958801518884015160ff199097169115159190911764ffffffff00191661010063ffffffff909216919091021765010000000000600160a81b031916650100000000006001600160801b039096169590950294909417845551919350917f4deb6fa84b5232023ce753128000047116f9a6795b40a3b701edf5d8e265ca34916115339190613189565b60405180910390a2505060010161144c565b505050565b6008546001600160a01b031681565b600b6020526000908152604090205460ff1681565b600080806104fb565b61157f61112b565b61159b5760405162461bcd60e51b8152600401610594906130d9565b6001600160a01b0382166115c15760405162461bcd60e51b815260040161059490613109565b806115de5760405162461bcd60e51b815260040161059490613089565b60055460405163a9059cbb60e01b81526001600160a01b039091169063a9059cbb906116109085908590600401612f66565b602060405180830381600087803b15801561162a57600080fd5b505af115801561163e573d6000803e3d6000fd5b505050506040513d601f19601f8201168201806040525061166291908101906127f3565b61167e5760405162461bcd60e51b815260040161059490613169565b816001600160a01b03167fe1b0ada289bf82fb641c8c1e1c78f820fae44e8f845760725cdeb09167a289ad82604051610f019190613197565b6001600160a01b03166000908152600b602052604090205460ff1690565b60006117ee82600360009054906101000a90046001600160a01b03166001600160a01b03166313d033c06040518163ffffffff1660e01b815260040160206040518083038186803b15801561172957600080fd5b505afa15801561173d573d6000803e3d6000fd5b505050506040513d601f19601f82011682018060405250611761919081019061282f565b600360009054906101000a90046001600160a01b03166001600160a01b0316630fb5a6b46040518163ffffffff1660e01b815260040160206040518083038186803b1580156117af57600080fd5b505afa1580156117c3573d6000803e3d6000fd5b505050506040513d601f19601f820116820180604052506117e7919081019061282f565b60036104f5565b92915050565b600a602052816000526040600020818154811061180d57fe5b90600052602060002001600091509150505481565b606080600a6000846001600160a01b03166001600160a01b0316815260200190815260200160002080548060200260200160405190810160405280929190818152602001828054801561189457602002820191906000526020600020905b815481526020019060010190808311611880575b50505050509050600081519050606082516040519080825280602002602001820160405280156118de57816020015b6118cb612309565b8152602001906001900390816118c35790505b50905060005b8281101561196357600960008583815181106118fc57fe5b6020908102919091018101518252818101929092526040908101600020815160608101835281548152600182015493810193909352600201546001600160a01b031690820152825183908390811061195057fe5b60209081029190910101526001016118e4565b50949350505050565b6003546001600160a01b031681565b61198361112b565b61199f5760405162461bcd60e51b8152600401610594906130d9565b6107318161225a565b6001600160a01b0381166000908152600c602052604081205460ff1680156117ee5750506001600160a01b03166000908152600c6020526040902054610100900463ffffffff161590565b6002546001600160a01b031681565b60008060008785888887604051602001611a20959493929190612e8c565b60408051601f198184030181529181528151602092830120600081815260099093529120600201549091506001600160a01b0316611d44578460011415611b0457600254600554600654600754604051637d2fbb8f60e11b81526001600160a01b039485169463fa5f771e94611aab9490821693908216928f928f928f929116908490600401612efe565b602060405180830381600087803b158015611ac557600080fd5b505af1158015611ad9573d6000803e3d6000fd5b505050506040513d601f19601f82011682018060405250611afd919081019061253e565b9150611bfa565b600260009054906101000a90046001600160a01b03166001600160a01b031663546344f0600560009054906101000a90046001600160a01b0316600660009054906101000a90046001600160a01b03168b8b8b600760009054906101000a90046001600160a01b0316600860009054906101000a90046001600160a01b03166040518863ffffffff1660e01b8152600401611ba59796959493929190612efe565b602060405180830381600087803b158015611bbf57600080fd5b505af1158015611bd3573d6000803e3d6000fd5b505050506040513d601f19601f82011682018060405250611bf7919081019061253e565b91505b604080516060808201835287825260208083018881526001600160a01b038088168587018181526000898152600986528881209751885593516001808901919091559051600290970180549784166001600160a01b031990981697909717909655908e168252600a83528582208054808701825590835283832001879055808252600b8352858220805460ff1990811687179091558651948501875294845263ffffffff808c168585019081526001600160801b03808d16878a01908152848652600c909652938890209551865491519551909416650100000000000265010000000000600160a81b0319959092166101000264ffffffff00199415159190971617929092169490941791909116178155915190917f4deb6fa84b5232023ce753128000047116f9a6795b40a3b701edf5d8e265ca3491611d3b9190613189565b60405180910390a25b6000908152600960205260409020600201546001600160a01b0316979650505050505050565b6001600160a01b038116611d905760405162461bcd60e51b815260040161059490613079565b600280546001600160a01b0319166001600160a01b0392909216919091179055565b3390565b600080600183039050600060048281548110611dce57fe5b60009182526020909120015460405163cc49ede760e01b81526001600160a01b039091169063cc49ede790611e07908890600401612ef0565b60206040518083038186803b158015611e1f57600080fd5b505afa158015611e33573d6000803e3d6000fd5b505050506040513d601f19601f82011682018060405250611e57919081019061253e565b90506001600160a01b038116156120075780856001826001600160a01b03166313d033c06040518163ffffffff1660e01b815260040160206040518083038186803b158015611ea557600080fd5b505afa158015611eb9573d6000803e3d6000fd5b505050506040513d601f19601f82011682018060405250611edd919081019061282f565b836001600160a01b0316630fb5a6b46040518163ffffffff1660e01b815260040160206040518083038186803b158015611f1657600080fd5b505afa158015611f2a573d6000803e3d6000fd5b505050506040513d601f19601f82011682018060405250611f4e919081019061282f565b88604051602001611f63959493929190612e8c565b60408051601f19818403018152828252805160209182012060608401835260018085528285018a81526001600160a01b0388811687870181815260008681526009885288812099518a5593518986015551600290980180546001600160a01b031916988316989098179097558c168152600a84528481208054808401825590825284822001839055948552600b90925291909220805460ff19169092179091559350505b60006004838154811061201657fe5b60009182526020909120015460405163c810a3e360e01b81526001600160a01b039091169063c810a3e39061204f908990600401612ef0565b60206040518083038186803b15801561206757600080fd5b505afa15801561207b573d6000803e3d6000fd5b505050506040513d601f19601f8201168201806040525061209f919081019061253e565b90506001600160a01b038116156122525780866000826001600160a01b03166313d033c06040518163ffffffff1660e01b815260040160206040518083038186803b1580156120ed57600080fd5b505afa158015612101573d6000803e3d6000fd5b505050506040513d601f19601f82011682018060405250612125919081019061282f565b836001600160a01b0316630fb5a6b46040518163ffffffff1660e01b815260040160206040518083038186803b15801561215e57600080fd5b505afa158015612172573d6000803e3d6000fd5b505050506040513d601f19601f82011682018060405250612196919081019061282f565b896040516020016121ab959493929190612e8c565b60408051601f19818403018152828252805160209182012060608401835260008085528285018b81526001600160a01b03888116878701818152858552600987528785209851895592516001808a01919091559251600290980180546001600160a01b031916988316989098179097558d168252600a84528482208054808301825590835284832001839055948152600b909252919020805460ff19169092179091559450505b505050505050565b6001600160a01b0381166122805760405162461bcd60e51b815260040161059490613069565b600080546040516001600160a01b03808516936201000090930416917f8be0079c531659141344cd1fd0a4f28419497f9722a3daafe3b4186f6b6457e091a3600080546001600160a01b03909216620100000262010000600160b01b0319909216919091179055565b604080516060810182526000808252602082018190529181019190915290565b6040518060600160405280600081526020016000815260200160006001600160a01b031681525090565b80356117ee816132d7565b80516117ee816132d7565b60008083601f84011261235b57600080fd5b50813567ffffffffffffffff81111561237357600080fd5b60208301915083602082028301111561238b57600080fd5b9250929050565b600082601f8301126123a357600080fd5b81356123b66123b182613202565b6131db565b915081818352602084019350602081019050838560208402820111156123db57600080fd5b60005b8381101561240757816123f18882612333565b84525060209283019291909101906001016123de565b5050505092915050565b600082601f83011261242257600080fd5b81356124306123b182613202565b9150818183526020840193506020810190508385606084028201111561245557600080fd5b60005b83811015612407578161246b8882612499565b84525060209092019160609190910190600101612458565b80356117ee816132eb565b80516117ee816132eb565b6000606082840312156124ab57600080fd5b6124b560606131db565b905060006124c38484612483565b82525060206124d484848301612515565b60208301525060406124e8848285016124f4565b60408301525092915050565b80356117ee816132f4565b80356117ee816132fd565b80516117ee816132fd565b80356117ee81613306565b60006020828403121561253257600080fd5b600061054e8484612333565b60006020828403121561255057600080fd5b600061054e848461233e565b60008060008060008060008060e0898b03121561257857600080fd5b60006125848b8b612333565b98505060206125958b828c01612333565b97505060406125a68b828c01612333565b96505060606125b78b828c01612333565b95505060806125c88b828c01612333565b94505060a06125d98b828c01612333565b93505060c089013567ffffffffffffffff8111156125f657600080fd5b6126028b828c01612349565b92509250509295985092959890939650565b6000806040838503121561262757600080fd5b60006126338585612333565b9250506020612644858286016124ff565b9150509250929050565b6000806000806080858703121561266457600080fd5b60006126708787612333565b9450506020612681878288016124ff565b9350506040612692878288016124ff565b92505060606126a3878288016124ff565b91505092959194509250565b600080600080600060a086880312156126c757600080fd5b60006126d38888612333565b95505060206126e4888289016124ff565b94505060406126f5888289016124ff565b9350506060612706888289016124ff565b9250506080612717888289016124ff565b9150509295509295909350565b6000806000806040858703121561273a57600080fd5b843567ffffffffffffffff81111561275157600080fd5b61275d87828801612349565b9450945050602085013567ffffffffffffffff81111561277c57600080fd5b61278887828801612349565b95989497509550505050565b600080604083850312156127a757600080fd5b823567ffffffffffffffff8111156127be57600080fd5b6127ca85828601612392565b925050602083013567ffffffffffffffff8111156127e757600080fd5b61264485828601612411565b60006020828403121561280557600080fd5b600061054e848461248e565b60006020828403121561282357600080fd5b600061054e84846124ff565b60006020828403121561284157600080fd5b600061054e848461250a565b60006128598383612e29565b505060600190565b61286a81613256565b82525050565b61286a61287c82613256565b6132b9565b600061288c82613229565b612896818561322d565b93506128a183613223565b8060005b838110156128cf5781516128b9888261284d565b97506128c483613223565b9250506001016128a5565b509495945050505050565b61286a81613261565b61286a81613275565b60006128f960208361322d565b7f56657374696e67207265676973747279206164647265737320696e76616c6964815260200192915050565b6000612932600f8361322d565b6e0c2e4e4c2f2e640dad2e6dac2e8c6d608b1b815260200192915050565b600061295d601f8361322d565b7f746f6b656e206f776e65722063616e6e6f742062652030206164647265737300815260200192915050565b6000612996601b8361322d565b7f76657374696e672063616e6e6f74206265203020616464726573730000000000815260200192915050565b60006129cf60268361322d565b7f4f776e61626c653a206e6577206f776e657220697320746865207a65726f206181526564647265737360d01b602082015260400192915050565b6000612a17601e8361322d565b7f76657374696e67466163746f7279206164647265737320696e76616c69640000815260200192915050565b6000612a50600e8361322d565b6d185b5bdd5b9d081a5b9d985b1a5960921b815260200192915050565b6000612a7a60178361322d565b7f76657374696e67206164647265737320696e76616c6964000000000000000000815260200192915050565b6000612ab3600e8361322d565b6d76657374696e672065786973747360901b815260200192915050565b6000612add601c8361322d565b7f76657374696e674f776e6572206164647265737320696e76616c696400000000815260200192915050565b6000612b16602e8361322d565b7f496e697469616c697a61626c653a20636f6e747261637420697320616c72656181526d191e481a5b9a5d1a585b1a5e995960921b602082015260400192915050565b6000612b66600c8361322d565b6b1d5b985d5d1a1bdc9a5e995960a21b815260200192915050565b6000612b8e60238361322d565b7f66656553686172696e67436f6c6c6563746f72206164647265737320696e76618152621b1a5960ea1b602082015260400192915050565b6000612bd3602c8361322d565b7f76657374696e67206372656174696f6e2074797065206d75737420626520677281526b06561746572207468616e20360a41b602082015260400192915050565b6000612c2160188361322d565b7f7265636569766572206164647265737320696e76616c69640000000000000000815260200192915050565b6000612c5a60158361322d565b7434b73b30b634b21030b236b4b71036b0b730b3b2b960591b815260200192915050565b6000612c8b60188361322d565b7f41646d696e206d616e61676572206973206e6f74207365740000000000000000815260200192915050565b6000612cc460108361322d565b6f0aadcdac2e8c6d0cac840d8cadccee8d60831b815260200192915050565b6000612cf060198361322d565b7f4c6f636b6564534f56206164647265737320696e76616c696400000000000000815260200192915050565b6000612d2960178361322d565b7f7374616b696e67206164647265737320696e76616c6964000000000000000000815260200192915050565b6000612d62600f8361322d565b6e1d1c985b9cd9995c8819985a5b1959608a1b815260200192915050565b6000612d8d60138361322d565b7214d3d5881859191c995cdcc81a5b9d985b1a59606a1b815260200192915050565b6000612dbc601683613236565b756b65792e61646d696e2e6d616e616765722e726f6c6560501b815260160192915050565b80546060830190612df181613280565b612dfb85826128da565b50612e0581613293565b612e126020860182612e83565b50612e1c816132a6565b61133a6040860182612e60565b80516060830190612e3a8482612e69565b506020820151612e4d6020850182612e69565b5060408201516105ab6040850182612861565b61286a81613241565b61286a81613272565b61286a612e7e82613272565b613272565b61286a8161324d565b6000612e988288612870565b601482019150612ea88287612e72565b602082019150612eb88286612e72565b602082019150612ec88285612e72565b602082019150612ed88284612e72565b5060200195945050505050565b60006117ee82612daf565b602081016117ee8284612861565b60e08101612f0c828a612861565b612f196020830189612861565b612f266040830188612861565b612f336060830187612e69565b612f406080830186612e69565b612f4d60a0830185612861565b612f5a60c0830184612861565b98975050505050505050565b60408101612f748285612861565b612f816020830184612e69565b9392505050565b60a08101612f968288612861565b612fa36020830187612e69565b612fb06040830186612e69565b612fbd6060830185612e69565b612fca6080830184612e69565b9695505050505050565b60208082528101612f818184612881565b602081016117ee82846128da565b6060810161300182866128da565b61300e6020830185612e83565b61054e6040830184612e60565b602081016117ee82846128e3565b602080825281016117ee816128ec565b602080825281016117ee81612925565b602080825281016117ee81612950565b602080825281016117ee81612989565b602080825281016117ee816129c2565b602080825281016117ee81612a0a565b602080825281016117ee81612a43565b602080825281016117ee81612a6d565b602080825281016117ee81612aa6565b602080825281016117ee81612ad0565b602080825281016117ee81612b09565b602080825281016117ee81612b59565b602080825281016117ee81612b81565b602080825281016117ee81612bc6565b602080825281016117ee81612c14565b602080825281016117ee81612c4d565b602080825281016117ee81612c7e565b602080825281016117ee81612cb7565b602080825281016117ee81612ce3565b602080825281016117ee81612d1c565b602080825281016117ee81612d55565b602080825281016117ee81612d80565b606081016117ee8284612de1565b602081016117ee8284612e69565b60408101612f748285612e69565b606081016131c18286612e69565b6131ce6020830185612e69565b61054e6040830184612861565b60405181810167ffffffffffffffff811182821017156131fa57600080fd5b604052919050565b600067ffffffffffffffff82111561321957600080fd5b5060209081020190565b60200190565b5190565b90815260200190565b919050565b60ff1690565b6001600160801b031690565b63ffffffff1690565b60006117ee82613266565b151590565b6001600160a01b031690565b90565b60006117ee82613256565b60006117ee61328e83613272565b61323b565b60006117ee6132a1836132d1565b61324d565b60006117ee6132b4836132cb565b613241565b60006117ee8260006117ee8260601b90565b60281c90565b60081c90565b6132e081613256565b811461073157600080fd5b6132e081613261565b6132e081613241565b6132e081613272565b6132e08161324d56fea365627a7a72315820dc2ada767f6100aeabb2dd76de36097a63988151b323d89b951fad1348d343756c6578706572696d656e74616cf564736f6c63430005110040",
  "implementation": "0x7acCf9Fcb7C0e89CA1dEe1918F282401f50e3d22",
  "devdoc": {
    "methods": {
      "addAdmin(address)": {
        "params": {
          "_admin": "The addresses of the account to grant permissions."
        }
      },
      "addDeployedVestings(address[],uint256[])": {
        "details": "migration of data from previous vesting registy contracts"
      },
      "addFourYearVestings(address[],address[])": {
        "params": {
          "_tokenOwners": "array of token owners",
          "_vestingAddresses": "array of vesting addresses"
        }
      },
      "createTeamVesting(address,uint256,uint256,uint256,uint256)": {
        "params": {
          "_amount": "the amount to be staked",
          "_cliff": "the cliff in seconds",
          "_duration": "the total duration in seconds",
          "_tokenOwner": "the owner of the tokens",
          "_vestingCreationType": "the type of vesting created(e.g. Origin, Bug Bounty etc.)"
        }
      },
      "createVesting(address,uint256,uint256,uint256)": {
        "details": "Calls a public createVestingAddr function with vestingCreationType. This is to accomodate the existing logic for LockedSOVvestingCreationType 0 = LockedSOV",
        "params": {
          "_amount": "the amount to be staked",
          "_cliff": "the cliff in seconds",
          "_duration": "the total duration in seconds",
          "_tokenOwner": "the owner of the tokens"
        }
      },
      "createVestingAddr(address,uint256,uint256,uint256,uint256)": {
        "params": {
          "_amount": "the amount to be staked",
          "_cliff": "the cliff in seconds",
          "_duration": "the total duration in seconds",
          "_tokenOwner": "the owner of the tokens",
          "_vestingCreationType": "the type of vesting created(e.g. Origin, Bug Bounty etc.)"
        }
      },
      "getAdminManager()": {
        "return": "Address of admin manager."
      },
      "getVesting(address)": {
        "details": "Calls a public getVestingAddr function with cliff and duration. This is to accomodate the existing logic for LockedSOVWe need to use LockedSOV.changeRegistryCliffAndDuration function very judiciouslyvestingCreationType 0 - LockedSOV",
        "params": {
          "_tokenOwner": "the owner of the tokens"
        }
      },
      "getVestingAddr(address,uint256,uint256,uint256)": {
        "details": "Important: Please use this instead of getVesting function"
      },
      "isOwner()": {
        "details": "Returns true if the caller is the current owner."
      },
      "isTeamVesting(address)": {
        "details": "check if the specific vesting address is team vesting or notread the vestingType from vestingCreationAndTypes storage",
        "params": {
          "_vestingAddress": "address of vesting contract"
        },
        "return": "true for teamVesting, false for normal vesting"
      },
      "owner()": {
        "details": "Returns the address of the current owner."
      },
      "registerVestingToVestingCreationAndTypes(address[],(bool,uint32,uint128)[])": {
        "details": "setter function to register existing vesting contract to vestingCreationAndTypes storageneed to set the function visilibty to public to support VestingCreationAndTypeDetails struct as parameter",
        "params": {
          "_vestingAddresses": "array of vesting address",
          "_vestingCreationAndTypes": "array for VestingCreationAndTypeDetails struct"
        }
      },
      "removeAdmin(address)": {
        "params": {
          "_admin": "The addresses of the account to revoke permissions."
        }
      },
      "setAdminManager(address)": {
        "params": {
          "_newAdminManager": "The addresses of the account to grant permissions."
        }
      },
      "setVestingFactory(address)": {
        "params": {
          "_vestingFactory": "the address of vesting factory contract"
        }
      },
      "stakeTokens(address,uint256)": {
        "params": {
          "_amount": "the amount of tokens to stake",
          "_vesting": "the address of Vesting contract"
        }
      },
      "transferOwnership(address)": {
        "details": "Transfers ownership of the contract to a new account (`newOwner`). Can only be called by the current owner."
      },
      "transferSOV(address,uint256)": {
        "params": {
          "_amount": "the amount to be transferred",
          "_receiver": "the address of the SOV receiver"
        }
      }
    }
  },
  "userdoc": {
    "methods": {
      "addAdmin(address)": {
        "notice": "Add account to ACL."
      },
      "addDeployedVestings(address[],uint256[])": {
        "notice": "adds vestings that were deployed in previous vesting registries"
      },
      "addFourYearVestings(address[],address[])": {
        "notice": "adds four year vestings to vesting registry logic"
      },
      "createTeamVesting(address,uint256,uint256,uint256,uint256)": {
        "notice": "creates Team Vesting contract"
      },
      "createVesting(address,uint256,uint256,uint256)": {
        "notice": "creates Vesting contract"
      },
      "createVestingAddr(address,uint256,uint256,uint256,uint256)": {
        "notice": "creates Vesting contract"
      },
      "getAdminManager()": {
        "notice": "Return address of the admin manager."
      },
      "getTeamVesting(address,uint256,uint256,uint256)": {
        "notice": "returns team vesting contract address for the given token owner, cliff, duration"
      },
      "getVesting(address)": {
        "notice": "returns vesting contract address for the given token owner"
      },
      "getVestingAddr(address,uint256,uint256,uint256)": {
        "notice": "public function that returns vesting contract address for the given token owner, cliff, duration"
      },
      "getVestingDetails(address)": {
        "notice": "returns cliff and duration for Vesting & TeamVesting contracts"
      },
      "getVestingsOf(address)": {
        "notice": "returns all vesting details for the given token owner"
      },
      "initialize(address,address,address,address,address,address,address[])": {
        "notice": "Replace constructor with initialize function for Upgradable Contracts This function will be called only once by the owner"
      },
      "isVestingAddress(address)": {
        "notice": "returns if the address is a vesting address"
      },
      "removeAdmin(address)": {
        "notice": "Remove account from ACL."
      },
      "removeAdminManager()": {
        "notice": "Set admin manager to 0 address."
      },
      "setAdminManager(address)": {
        "notice": "Set new admin manager."
      },
      "setVestingFactory(address)": {
        "notice": "sets vesting factory address"
      },
      "stakeTokens(address,uint256)": {
        "notice": "stakes tokens according to the vesting schedule"
      },
      "transferSOV(address,uint256)": {
        "notice": "transfers SOV tokens to given address"
      }
    }
  },
  "storageLayout": {
    "storage": [
      {
        "astId": 54561,
        "contract": "contracts/governance/Vesting/VestingRegistryLogic.sol:VestingRegistryLogic",
        "label": "_initialized",
        "offset": 0,
        "slot": "0",
        "type": "t_bool"
      },
      {
        "astId": 54563,
        "contract": "contracts/governance/Vesting/VestingRegistryLogic.sol:VestingRegistryLogic",
        "label": "_initializing",
        "offset": 1,
        "slot": "0",
        "type": "t_bool"
      },
      {
        "astId": 54606,
        "contract": "contracts/governance/Vesting/VestingRegistryLogic.sol:VestingRegistryLogic",
        "label": "_owner",
        "offset": 2,
        "slot": "0",
        "type": "t_address"
      },
      {
        "astId": 62325,
        "contract": "contracts/governance/Vesting/VestingRegistryLogic.sol:VestingRegistryLogic",
        "label": "admins",
        "offset": 0,
        "slot": "1",
        "type": "t_mapping(t_address,t_bool)"
      },
      {
        "astId": 31932,
        "contract": "contracts/governance/Vesting/VestingRegistryLogic.sol:VestingRegistryLogic",
        "label": "vestingFactory",
        "offset": 0,
        "slot": "2",
        "type": "t_contract(IVestingFactory)26100"
      },
      {
        "astId": 31934,
        "contract": "contracts/governance/Vesting/VestingRegistryLogic.sol:VestingRegistryLogic",
        "label": "lockedSOV",
        "offset": 0,
        "slot": "3",
        "type": "t_contract(ILockedSOV)35121"
      },
      {
        "astId": 31937,
        "contract": "contracts/governance/Vesting/VestingRegistryLogic.sol:VestingRegistryLogic",
        "label": "vestingRegistries",
        "offset": 0,
        "slot": "4",
        "type": "t_array(t_contract(IVestingRegistry)26136)dyn_storage"
      },
      {
        "astId": 31939,
        "contract": "contracts/governance/Vesting/VestingRegistryLogic.sol:VestingRegistryLogic",
        "label": "SOV",
        "offset": 0,
        "slot": "5",
        "type": "t_address"
      },
      {
        "astId": 31941,
        "contract": "contracts/governance/Vesting/VestingRegistryLogic.sol:VestingRegistryLogic",
        "label": "staking",
        "offset": 0,
        "slot": "6",
        "type": "t_address"
      },
      {
        "astId": 31943,
        "contract": "contracts/governance/Vesting/VestingRegistryLogic.sol:VestingRegistryLogic",
        "label": "feeSharingCollector",
        "offset": 0,
        "slot": "7",
        "type": "t_address"
      },
      {
        "astId": 31945,
        "contract": "contracts/governance/Vesting/VestingRegistryLogic.sol:VestingRegistryLogic",
        "label": "vestingOwner",
        "offset": 0,
        "slot": "8",
        "type": "t_address"
      },
      {
        "astId": 31959,
        "contract": "contracts/governance/Vesting/VestingRegistryLogic.sol:VestingRegistryLogic",
        "label": "vestings",
        "offset": 0,
        "slot": "9",
        "type": "t_mapping(t_uint256,t_struct(Vesting)31955_storage)"
      },
      {
        "astId": 31964,
        "contract": "contracts/governance/Vesting/VestingRegistryLogic.sol:VestingRegistryLogic",
        "label": "vestingsOf",
        "offset": 0,
        "slot": "10",
        "type": "t_mapping(t_address,t_array(t_uint256)dyn_storage)"
      },
      {
        "astId": 31968,
        "contract": "contracts/governance/Vesting/VestingRegistryLogic.sol:VestingRegistryLogic",
        "label": "isVesting",
        "offset": 0,
        "slot": "11",
        "type": "t_mapping(t_address,t_bool)"
      },
      {
        "astId": 31979,
        "contract": "contracts/governance/Vesting/VestingRegistryLogic.sol:VestingRegistryLogic",
        "label": "vestingCreationAndTypes",
        "offset": 0,
        "slot": "12",
        "type": "t_mapping(t_address,t_struct(VestingCreationAndTypeDetails)31975_storage)"
      }
    ],
    "types": {
      "t_address": {
        "encoding": "inplace",
        "label": "address",
        "numberOfBytes": "20"
      },
      "t_array(t_contract(IVestingRegistry)26136)dyn_storage": {
        "base": "t_contract(IVestingRegistry)26136",
        "encoding": "dynamic_array",
        "label": "contract IVestingRegistry[]",
        "numberOfBytes": "32"
      },
      "t_array(t_uint256)dyn_storage": {
        "base": "t_uint256",
        "encoding": "dynamic_array",
        "label": "uint256[]",
        "numberOfBytes": "32"
      },
      "t_bool": {
        "encoding": "inplace",
        "label": "bool",
        "numberOfBytes": "1"
      },
      "t_contract(ILockedSOV)35121": {
        "encoding": "inplace",
        "label": "contract ILockedSOV",
        "numberOfBytes": "20"
      },
      "t_contract(IVestingFactory)26100": {
        "encoding": "inplace",
        "label": "contract IVestingFactory",
        "numberOfBytes": "20"
      },
      "t_contract(IVestingRegistry)26136": {
        "encoding": "inplace",
        "label": "contract IVestingRegistry",
        "numberOfBytes": "20"
      },
      "t_mapping(t_address,t_array(t_uint256)dyn_storage)": {
        "encoding": "mapping",
        "key": "t_address",
        "label": "mapping(address => uint256[])",
        "numberOfBytes": "32",
        "value": "t_array(t_uint256)dyn_storage"
      },
      "t_mapping(t_address,t_bool)": {
        "encoding": "mapping",
        "key": "t_address",
        "label": "mapping(address => bool)",
        "numberOfBytes": "32",
        "value": "t_bool"
      },
      "t_mapping(t_address,t_struct(VestingCreationAndTypeDetails)31975_storage)": {
        "encoding": "mapping",
        "key": "t_address",
        "label": "mapping(address => struct VestingRegistryStorage.VestingCreationAndTypeDetails)",
        "numberOfBytes": "32",
        "value": "t_struct(VestingCreationAndTypeDetails)31975_storage"
      },
      "t_mapping(t_uint256,t_struct(Vesting)31955_storage)": {
        "encoding": "mapping",
        "key": "t_uint256",
        "label": "mapping(uint256 => struct VestingRegistryStorage.Vesting)",
        "numberOfBytes": "32",
        "value": "t_struct(Vesting)31955_storage"
      },
      "t_struct(Vesting)31955_storage": {
        "encoding": "inplace",
        "label": "struct VestingRegistryStorage.Vesting",
        "members": [
          {
            "astId": 31950,
            "contract": "contracts/governance/Vesting/VestingRegistryLogic.sol:VestingRegistryLogic",
            "label": "vestingType",
            "offset": 0,
            "slot": "0",
            "type": "t_uint256"
          },
          {
            "astId": 31952,
            "contract": "contracts/governance/Vesting/VestingRegistryLogic.sol:VestingRegistryLogic",
            "label": "vestingCreationType",
            "offset": 0,
            "slot": "1",
            "type": "t_uint256"
          },
          {
            "astId": 31954,
            "contract": "contracts/governance/Vesting/VestingRegistryLogic.sol:VestingRegistryLogic",
            "label": "vestingAddress",
            "offset": 0,
            "slot": "2",
            "type": "t_address"
          }
        ],
        "numberOfBytes": "96"
      },
      "t_struct(VestingCreationAndTypeDetails)31975_storage": {
        "encoding": "inplace",
        "label": "struct VestingRegistryStorage.VestingCreationAndTypeDetails",
        "members": [
          {
            "astId": 31970,
            "contract": "contracts/governance/Vesting/VestingRegistryLogic.sol:VestingRegistryLogic",
            "label": "isSet",
            "offset": 0,
            "slot": "0",
            "type": "t_bool"
          },
          {
            "astId": 31972,
            "contract": "contracts/governance/Vesting/VestingRegistryLogic.sol:VestingRegistryLogic",
            "label": "vestingType",
            "offset": 1,
            "slot": "0",
            "type": "t_uint32"
          },
          {
            "astId": 31974,
            "contract": "contracts/governance/Vesting/VestingRegistryLogic.sol:VestingRegistryLogic",
            "label": "vestingCreationType",
            "offset": 5,
            "slot": "0",
            "type": "t_uint128"
          }
        ],
        "numberOfBytes": "32"
      },
      "t_uint128": {
        "encoding": "inplace",
        "label": "uint128",
        "numberOfBytes": "16"
      },
      "t_uint256": {
        "encoding": "inplace",
        "label": "uint256",
        "numberOfBytes": "32"
      },
      "t_uint32": {
        "encoding": "inplace",
        "label": "uint32",
        "numberOfBytes": "4"
      }
    }
  }
}