{
    "address": "0x28013aB614E3305995366278850B73Ff27d30E98",
    "abi": [
        {
            "anonymous": false,
            "inputs": [
                {
                    "indexed": false,
                    "internalType": "address",
                    "name": "admin",
                    "type": "address"
                }
            ],
            "name": "AdminAdded",
            "type": "event"
        },
        {
            "anonymous": false,
            "inputs": [
                {
                    "indexed": false,
                    "internalType": "address",
                    "name": "admin",
                    "type": "address"
                }
            ],
            "name": "AdminRemoved",
            "type": "event"
        },
        {
            "anonymous": false,
            "inputs": [
                {
                    "indexed": false,
                    "internalType": "bytes32",
                    "name": "hash",
                    "type": "bytes32"
                }
            ],
            "name": "ContractCodeHashAdded",
            "type": "event"
        },
        {
            "anonymous": false,
            "inputs": [
                {
                    "indexed": false,
                    "internalType": "bytes32",
                    "name": "hash",
                    "type": "bytes32"
                }
            ],
            "name": "ContractCodeHashRemoved",
            "type": "event"
        },
        {
            "anonymous": false,
            "inputs": [
                {
                    "indexed": true,
                    "internalType": "address",
                    "name": "delegator",
                    "type": "address"
                },
                {
                    "indexed": false,
                    "internalType": "uint256",
                    "name": "lockedUntil",
                    "type": "uint256"
                },
                {
                    "indexed": true,
                    "internalType": "address",
                    "name": "fromDelegate",
                    "type": "address"
                },
                {
                    "indexed": true,
                    "internalType": "address",
                    "name": "toDelegate",
                    "type": "address"
                }
            ],
            "name": "DelegateChanged",
            "type": "event"
        },
        {
            "anonymous": false,
            "inputs": [
                {
                    "indexed": true,
                    "internalType": "address",
                    "name": "delegate",
                    "type": "address"
                },
                {
                    "indexed": false,
                    "internalType": "uint256",
                    "name": "lockedUntil",
                    "type": "uint256"
                },
                {
                    "indexed": false,
                    "internalType": "uint256",
                    "name": "previousBalance",
                    "type": "uint256"
                },
                {
                    "indexed": false,
                    "internalType": "uint256",
                    "name": "newBalance",
                    "type": "uint256"
                }
            ],
            "name": "DelegateStakeChanged",
            "type": "event"
        },
        {
            "anonymous": false,
            "inputs": [
                {
                    "indexed": true,
                    "internalType": "address",
                    "name": "staker",
                    "type": "address"
                },
                {
                    "indexed": false,
                    "internalType": "uint256",
                    "name": "previousDate",
                    "type": "uint256"
                },
                {
                    "indexed": false,
                    "internalType": "uint256",
                    "name": "newDate",
                    "type": "uint256"
                },
                {
                    "indexed": false,
                    "internalType": "uint256",
                    "name": "amountStaked",
                    "type": "uint256"
                }
            ],
            "name": "ExtendedStakingDuration",
            "type": "event"
        },
        {
            "anonymous": false,
            "inputs": [
                {
                    "indexed": true,
                    "internalType": "address",
                    "name": "previousOwner",
                    "type": "address"
                },
                {
                    "indexed": true,
                    "internalType": "address",
                    "name": "newOwner",
                    "type": "address"
                }
            ],
            "name": "OwnershipTransferred",
            "type": "event"
        },
        {
            "anonymous": false,
            "inputs": [
                {
                    "indexed": true,
                    "internalType": "address",
                    "name": "pauser",
                    "type": "address"
                },
                {
                    "indexed": true,
                    "internalType": "bool",
                    "name": "added",
                    "type": "bool"
                }
            ],
            "name": "PauserAddedOrRemoved",
            "type": "event"
        },
        {
            "anonymous": false,
            "inputs": [
                {
                    "indexed": true,
                    "internalType": "bool",
                    "name": "setFrozen",
                    "type": "bool"
                }
            ],
            "name": "StakingFrozen",
            "type": "event"
        },
        {
            "anonymous": false,
            "inputs": [
                {
                    "indexed": true,
                    "internalType": "bool",
                    "name": "setPaused",
                    "type": "bool"
                }
            ],
            "name": "StakingPaused",
            "type": "event"
        },
        {
            "anonymous": false,
            "inputs": [
                {
                    "indexed": true,
                    "internalType": "address",
                    "name": "staker",
                    "type": "address"
                },
                {
                    "indexed": false,
                    "internalType": "uint256",
                    "name": "amount",
                    "type": "uint256"
                },
                {
                    "indexed": false,
                    "internalType": "uint256",
                    "name": "until",
                    "type": "uint256"
                },
                {
                    "indexed": true,
                    "internalType": "address",
                    "name": "receiver",
                    "type": "address"
                },
                {
                    "indexed": false,
                    "internalType": "bool",
                    "name": "isGovernance",
                    "type": "bool"
                }
            ],
            "name": "StakingWithdrawn",
            "type": "event"
        },
        {
            "anonymous": false,
            "inputs": [
                {
                    "indexed": true,
                    "internalType": "address",
                    "name": "caller",
                    "type": "address"
                },
                {
                    "indexed": false,
                    "internalType": "address",
                    "name": "receiver",
                    "type": "address"
                }
            ],
            "name": "TeamVestingCancelled",
            "type": "event"
        },
        {
            "anonymous": false,
            "inputs": [
                {
                    "indexed": true,
                    "internalType": "address",
                    "name": "caller",
                    "type": "address"
                },
                {
                    "indexed": false,
                    "internalType": "address",
                    "name": "receiver",
                    "type": "address"
                },
                {
                    "indexed": false,
                    "internalType": "uint256",
                    "name": "lastProcessedDate",
                    "type": "uint256"
                }
            ],
            "name": "TeamVestingPartiallyCancelled",
            "type": "event"
        },
        {
            "anonymous": false,
            "inputs": [
                {
                    "indexed": true,
                    "internalType": "address",
                    "name": "staker",
                    "type": "address"
                },
                {
                    "indexed": false,
                    "internalType": "uint256",
                    "name": "amount",
                    "type": "uint256"
                },
                {
                    "indexed": false,
                    "internalType": "uint256",
                    "name": "lockedUntil",
                    "type": "uint256"
                },
                {
                    "indexed": false,
                    "internalType": "uint256",
                    "name": "totalStaked",
                    "type": "uint256"
                }
            ],
            "name": "TokensStaked",
            "type": "event"
        },
        {
            "anonymous": false,
            "inputs": [
                {
                    "indexed": false,
                    "internalType": "uint256",
                    "name": "amount",
                    "type": "uint256"
                }
            ],
            "name": "TokensUnlocked",
            "type": "event"
        },
        {
            "anonymous": false,
            "inputs": [
                {
                    "indexed": false,
                    "internalType": "uint256",
                    "name": "lockedTS",
                    "type": "uint256"
                },
                {
                    "indexed": false,
                    "internalType": "uint96",
                    "name": "value",
                    "type": "uint96"
                }
            ],
            "name": "VestingStakeSet",
            "type": "event"
        },
        {
            "anonymous": false,
            "inputs": [
                {
                    "indexed": false,
                    "internalType": "address",
                    "name": "vesting",
                    "type": "address"
                },
                {
                    "indexed": false,
                    "internalType": "address",
                    "name": "receiver",
                    "type": "address"
                }
            ],
            "name": "VestingTokensWithdrawn",
            "type": "event"
        },
        {
            "constant": true,
            "inputs": [],
            "name": "DELEGATION_TYPEHASH",
            "outputs": [
                {
                    "internalType": "bytes32",
                    "name": "",
                    "type": "bytes32"
                }
            ],
            "payable": false,
            "stateMutability": "view",
            "type": "function"
        },
        {
            "constant": true,
            "inputs": [],
            "name": "DOMAIN_TYPEHASH",
            "outputs": [
                {
                    "internalType": "bytes32",
                    "name": "",
                    "type": "bytes32"
                }
            ],
            "payable": false,
            "stateMutability": "view",
            "type": "function"
        },
        {
            "constant": true,
            "inputs": [],
            "name": "MAX_DURATION",
            "outputs": [
                {
                    "internalType": "uint256",
                    "name": "",
                    "type": "uint256"
                }
            ],
            "payable": false,
            "stateMutability": "view",
            "type": "function"
        },
        {
            "constant": true,
            "inputs": [],
            "name": "MAX_VOTING_WEIGHT",
            "outputs": [
                {
                    "internalType": "uint96",
                    "name": "",
                    "type": "uint96"
                }
            ],
            "payable": false,
            "stateMutability": "view",
            "type": "function"
        },
        {
            "constant": true,
            "inputs": [],
            "name": "SOVToken",
            "outputs": [
                {
                    "internalType": "contract IERC20",
                    "name": "",
                    "type": "address"
                }
            ],
            "payable": false,
            "stateMutability": "view",
            "type": "function"
        },
        {
            "constant": true,
            "inputs": [],
            "name": "WEIGHT_FACTOR",
            "outputs": [
                {
                    "internalType": "uint96",
                    "name": "",
                    "type": "uint96"
                }
            ],
            "payable": false,
            "stateMutability": "view",
            "type": "function"
        },
        {
            "constant": true,
            "inputs": [
                {
                    "internalType": "address",
                    "name": "",
                    "type": "address"
                }
            ],
            "name": "admins",
            "outputs": [
                {
                    "internalType": "bool",
                    "name": "",
                    "type": "bool"
                }
            ],
            "payable": false,
            "stateMutability": "view",
            "type": "function"
        },
        {
            "constant": true,
            "inputs": [],
            "name": "allUnlocked",
            "outputs": [
                {
                    "internalType": "bool",
                    "name": "",
                    "type": "bool"
                }
            ],
            "payable": false,
            "stateMutability": "view",
            "type": "function"
        },
        {
            "constant": true,
            "inputs": [
                {
                    "internalType": "uint256",
                    "name": "date",
                    "type": "uint256"
                },
                {
                    "internalType": "uint256",
                    "name": "startDate",
                    "type": "uint256"
                }
            ],
            "name": "computeWeightByDate",
            "outputs": [
                {
                    "internalType": "uint96",
                    "name": "weight",
                    "type": "uint96"
                }
            ],
            "payable": false,
            "stateMutability": "pure",
            "type": "function"
        },
        {
            "constant": true,
            "inputs": [
                {
                    "internalType": "address",
                    "name": "",
                    "type": "address"
                },
                {
                    "internalType": "uint256",
                    "name": "",
                    "type": "uint256"
                },
                {
                    "internalType": "uint32",
                    "name": "",
                    "type": "uint32"
                }
            ],
            "name": "delegateStakingCheckpoints",
            "outputs": [
                {
                    "internalType": "uint32",
                    "name": "fromBlock",
                    "type": "uint32"
                },
                {
                    "internalType": "uint96",
                    "name": "stake",
                    "type": "uint96"
                }
            ],
            "payable": false,
            "stateMutability": "view",
            "type": "function"
        },
        {
            "constant": true,
            "inputs": [
                {
                    "internalType": "address",
                    "name": "",
                    "type": "address"
                },
                {
                    "internalType": "uint256",
                    "name": "",
                    "type": "uint256"
                }
            ],
            "name": "delegates",
            "outputs": [
                {
                    "internalType": "address",
                    "name": "",
                    "type": "address"
                }
            ],
            "payable": false,
            "stateMutability": "view",
            "type": "function"
        },
        {
            "constant": true,
            "inputs": [],
            "name": "feeSharing",
            "outputs": [
                {
                    "internalType": "contract IFeeSharingCollector",
                    "name": "",
                    "type": "address"
                }
            ],
            "payable": false,
            "stateMutability": "view",
            "type": "function"
        },
        {
            "constant": true,
            "inputs": [],
            "name": "frozen",
            "outputs": [
                {
                    "internalType": "bool",
                    "name": "",
                    "type": "bool"
                }
            ],
            "payable": false,
            "stateMutability": "view",
            "type": "function"
        },
        {
            "constant": true,
            "inputs": [],
            "name": "getFunctionsList",
            "outputs": [
                {
                    "internalType": "bytes4[]",
                    "name": "",
                    "type": "bytes4[]"
                }
            ],
            "payable": false,
            "stateMutability": "pure",
            "type": "function"
        },
        {
            "constant": true,
            "inputs": [
                {
                    "internalType": "address",
                    "name": "account",
                    "type": "address"
                },
                {
                    "internalType": "uint256",
                    "name": "blockNumber",
                    "type": "uint256"
                },
                {
                    "internalType": "uint256",
                    "name": "date",
                    "type": "uint256"
                }
            ],
            "name": "getPriorWeightedStake",
            "outputs": [
                {
                    "internalType": "uint96",
                    "name": "priorWeightedStake",
                    "type": "uint96"
                }
            ],
            "payable": false,
            "stateMutability": "view",
            "type": "function"
        },
        {
            "constant": true,
            "inputs": [],
            "name": "isOwner",
            "outputs": [
                {
                    "internalType": "bool",
                    "name": "",
                    "type": "bool"
                }
            ],
            "payable": false,
            "stateMutability": "view",
            "type": "function"
        },
        {
            "constant": true,
            "inputs": [],
            "name": "kickoffTS",
            "outputs": [
                {
                    "internalType": "uint256",
                    "name": "",
                    "type": "uint256"
                }
            ],
            "payable": false,
            "stateMutability": "view",
            "type": "function"
        },
        {
            "constant": true,
            "inputs": [],
            "name": "newStakingContract",
            "outputs": [
                {
                    "internalType": "address",
                    "name": "",
                    "type": "address"
                }
            ],
            "payable": false,
            "stateMutability": "view",
            "type": "function"
        },
        {
            "constant": true,
            "inputs": [
                {
                    "internalType": "address",
                    "name": "",
                    "type": "address"
                }
            ],
            "name": "nonces",
            "outputs": [
                {
                    "internalType": "uint256",
                    "name": "",
                    "type": "uint256"
                }
            ],
            "payable": false,
            "stateMutability": "view",
            "type": "function"
        },
        {
            "constant": true,
            "inputs": [
                {
                    "internalType": "address",
                    "name": "",
                    "type": "address"
                },
                {
                    "internalType": "uint256",
                    "name": "",
                    "type": "uint256"
                }
            ],
            "name": "numDelegateStakingCheckpoints",
            "outputs": [
                {
                    "internalType": "uint32",
                    "name": "",
                    "type": "uint32"
                }
            ],
            "payable": false,
            "stateMutability": "view",
            "type": "function"
        },
        {
            "constant": true,
            "inputs": [
                {
                    "internalType": "uint256",
                    "name": "",
                    "type": "uint256"
                }
            ],
            "name": "numTotalStakingCheckpoints",
            "outputs": [
                {
                    "internalType": "uint32",
                    "name": "",
                    "type": "uint32"
                }
            ],
            "payable": false,
            "stateMutability": "view",
            "type": "function"
        },
        {
            "constant": true,
            "inputs": [
                {
                    "internalType": "address",
                    "name": "",
                    "type": "address"
                },
                {
                    "internalType": "uint256",
                    "name": "",
                    "type": "uint256"
                }
            ],
            "name": "numUserStakingCheckpoints",
            "outputs": [
                {
                    "internalType": "uint32",
                    "name": "",
                    "type": "uint32"
                }
            ],
            "payable": false,
            "stateMutability": "view",
            "type": "function"
        },
        {
            "constant": true,
            "inputs": [
                {
                    "internalType": "uint256",
                    "name": "",
                    "type": "uint256"
                }
            ],
            "name": "numVestingCheckpoints",
            "outputs": [
                {
                    "internalType": "uint32",
                    "name": "",
                    "type": "uint32"
                }
            ],
            "payable": false,
            "stateMutability": "view",
            "type": "function"
        },
        {
            "constant": true,
            "inputs": [],
            "name": "owner",
            "outputs": [
                {
                    "internalType": "address",
                    "name": "",
                    "type": "address"
                }
            ],
            "payable": false,
            "stateMutability": "view",
            "type": "function"
        },
        {
            "constant": true,
            "inputs": [],
            "name": "paused",
            "outputs": [
                {
                    "internalType": "bool",
                    "name": "",
                    "type": "bool"
                }
            ],
            "payable": false,
            "stateMutability": "view",
            "type": "function"
        },
        {
            "constant": true,
            "inputs": [
                {
                    "internalType": "address",
                    "name": "",
                    "type": "address"
                }
            ],
            "name": "pausers",
            "outputs": [
                {
                    "internalType": "bool",
                    "name": "",
                    "type": "bool"
                }
            ],
            "payable": false,
            "stateMutability": "view",
            "type": "function"
        },
        {
            "constant": true,
            "inputs": [
                {
                    "internalType": "uint256",
                    "name": "",
                    "type": "uint256"
                },
                {
                    "internalType": "uint32",
                    "name": "",
                    "type": "uint32"
                }
            ],
            "name": "totalStakingCheckpoints",
            "outputs": [
                {
                    "internalType": "uint32",
                    "name": "fromBlock",
                    "type": "uint32"
                },
                {
                    "internalType": "uint96",
                    "name": "stake",
                    "type": "uint96"
                }
            ],
            "payable": false,
            "stateMutability": "view",
            "type": "function"
        },
        {
            "constant": false,
            "inputs": [
                {
                    "internalType": "address",
                    "name": "newOwner",
                    "type": "address"
                }
            ],
            "name": "transferOwnership",
            "outputs": [],
            "payable": false,
            "stateMutability": "nonpayable",
            "type": "function"
        },
        {
            "constant": true,
            "inputs": [
                {
                    "internalType": "address",
                    "name": "",
                    "type": "address"
                },
                {
                    "internalType": "uint256",
                    "name": "",
                    "type": "uint256"
                },
                {
                    "internalType": "uint32",
                    "name": "",
                    "type": "uint32"
                }
            ],
            "name": "userStakingCheckpoints",
            "outputs": [
                {
                    "internalType": "uint32",
                    "name": "fromBlock",
                    "type": "uint32"
                },
                {
                    "internalType": "uint96",
                    "name": "stake",
                    "type": "uint96"
                }
            ],
            "payable": false,
            "stateMutability": "view",
            "type": "function"
        },
        {
            "constant": true,
            "inputs": [
                {
                    "internalType": "uint256",
                    "name": "",
                    "type": "uint256"
                },
                {
                    "internalType": "uint32",
                    "name": "",
                    "type": "uint32"
                }
            ],
            "name": "vestingCheckpoints",
            "outputs": [
                {
                    "internalType": "uint32",
                    "name": "fromBlock",
                    "type": "uint32"
                },
                {
                    "internalType": "uint96",
                    "name": "stake",
                    "type": "uint96"
                }
            ],
            "payable": false,
            "stateMutability": "view",
            "type": "function"
        },
        {
            "constant": true,
            "inputs": [
                {
                    "internalType": "bytes32",
                    "name": "",
                    "type": "bytes32"
                }
            ],
            "name": "vestingCodeHashes",
            "outputs": [
                {
                    "internalType": "bool",
                    "name": "",
                    "type": "bool"
                }
            ],
            "payable": false,
            "stateMutability": "view",
            "type": "function"
        },
        {
            "constant": true,
            "inputs": [],
            "name": "vestingRegistryLogic",
            "outputs": [
                {
                    "internalType": "contract IVestingRegistry",
                    "name": "",
                    "type": "address"
                }
            ],
            "payable": false,
            "stateMutability": "view",
            "type": "function"
        },
        {
            "constant": true,
            "inputs": [
                {
                    "internalType": "address",
                    "name": "",
                    "type": "address"
                }
            ],
            "name": "vestingWhitelist",
            "outputs": [
                {
                    "internalType": "bool",
                    "name": "",
                    "type": "bool"
                }
            ],
            "payable": false,
            "stateMutability": "view",
            "type": "function"
        },
        {
            "constant": true,
            "inputs": [],
            "name": "weightScaling",
            "outputs": [
                {
                    "internalType": "uint96",
                    "name": "",
                    "type": "uint96"
                }
            ],
            "payable": false,
            "stateMutability": "view",
            "type": "function"
        },
        {
            "constant": true,
            "inputs": [
                {
                    "internalType": "address",
                    "name": "account",
                    "type": "address"
                },
                {
                    "internalType": "uint256",
                    "name": "date",
                    "type": "uint256"
                },
                {
                    "internalType": "uint256",
                    "name": "startDate",
                    "type": "uint256"
                },
                {
                    "internalType": "uint256",
                    "name": "blockNumber",
                    "type": "uint256"
                }
            ],
            "name": "weightedStakeByDate",
            "outputs": [
                {
                    "internalType": "uint96",
                    "name": "power",
                    "type": "uint96"
                }
            ],
            "payable": false,
            "stateMutability": "view",
            "type": "function"
        }
    ],
    "transactionHash": "0x7455ea6e7a05ccf18760e3b36723c4881855888c725cd554d33388203c0e77bd",
    "args": [],
    "numDeployments": 1,
    "solcInputHash": "015b019a6db9133c2258981a8efcf2d8",
    "bytecode": "0x60c0604052600a608081905269534f565374616b696e6760b01b60a09081526200002d9160029190620000ae565b506005805460ff19169055600d80546001600160a01b0316600360a01b179055600062000059620000a9565b600080546001600160a01b0319166001600160a01b0383169081178255604051929350917f8be0079c531659141344cd1fd0a4f28419497f9722a3daafe3b4186f6b6457e0908290a35062000150565b335b90565b828054600181600116156101000203166002900490600052602060002090601f016020900481019282601f10620000f157805160ff191683800117855562000121565b8280016001018555821562000121579182015b828111156200012157825182559160200191906001019062000104565b506200012f92915062000133565b5090565b620000ab91905b808211156200012f57600081556001016200013a565b61159780620001606000396000f3fe608060405234801561001057600080fd5b50600436106102105760003560e01c80638dae1b1611610125578063bb533cf2116100ad578063db27ec181161007c578063db27ec1814610411578063dfb267c214610424578063e7a324dc14610437578063f2fde38b1461043f578063f3f197311461045457610210565b8063bb533cf2146103d9578063bf626ec1146103ec578063d27569e7146103f4578063d8ad326d146103fc57610210565b80639929e886116100f45780639929e886146103a6578063a58848c5146103ae578063adae9002146103b6578063ae81dfe4146103c9578063b1724b46146103d157610210565b80638dae1b16146103585780638f32d59b1461036b5780639436e7d41461037357806394c2ce581461039357610210565b806337e6b1c1116101a857806368cefccc1161017757806368cefccc146102f65780636b6fde0e146103175780637ecebe001461032a57806380f51c121461033d5780638da5cb5b1461035057610210565b806337e6b1c1146102b5578063429b62e5146102c85780635c975abb146102db57806362cf8a08146102e357610210565b8063104932cf116101e4578063104932cf1461027057806317748adc1461027857806320606b701461028d57806327dd1b001461029557610210565b8062073f991461021557806303a18fa314610233578063054f7d9c1461024857806307392cc01461025d575b600080fd5b61021d610467565b60405161022a91906113cc565b60405180910390f35b61023b61046d565b60405161022a91906113da565b61025061047c565b60405161022a91906113be565b61025061026b36600461101c565b61048a565b61023b61049f565b6102806104ae565b60405161022a9190611482565b61021d6104b3565b6102a86102a3366004610ef1565b6104ca565b60405161022a919061139f565b6102806102c3366004610f2b565b6104f0565b6102506102d6366004610ecb565b610507565b61025061051c565b6102806102f136600461103a565b610525565b610309610304366004610fd9565b61053a565b60405161022a929190611467565b610309610325366004610fd9565b610575565b61021d610338366004610ecb565b6105b0565b61025061034b366004610ecb565b6105c2565b6102a86105d7565b610280610366366004610f78565b6105e6565b610250610613565b61038661038136600461101c565b610637565b60405161022a9190611459565b6103866103a1366004610ef1565b61064f565b610250610672565b61023b61067b565b6102506103c4366004610ecb565b61068a565b6102a861069f565b61021d6106b3565b6103866103e736600461101c565b6106bb565b6102806106d3565b6102806106e9565b6104046106ee565b60405161022a91906113ad565b61038661041f366004610ef1565b6107a8565b610309610432366004611059565b6107cb565b61021d610800565b61045261044d366004610ecb565b61080c565b005b610309610462366004611059565b610845565b60015481565b600d546001600160a01b031681565b601554610100900460ff1681565b60106020526000908152604090205460ff1681565b6013546001600160a01b031681565b600981565b6040516104bf90611389565b604051809103902081565b60046020908152600092835260408084209091529082529020546001600160a01b031681565b60006104fd84848461087a565b90505b9392505050565b600f6020526000908152604090205460ff1681565b60155460ff1681565b600061053183836108f6565b90505b92915050565b600a60209081526000938452604080852082529284528284209052825290205463ffffffff811690600160201b90046001600160601b031682565b600860209081526000938452604080852082529284528284209052825290205463ffffffff811690600160201b90046001600160601b031682565b600c6020526000908152604090205481565b60146020526000908152604090205460ff1681565b6000546001600160a01b031690565b60006105f1846109fa565b93506105fc836109fa565b925061060a85858585610a3a565b95945050505050565b600080546001600160a01b0316610628610ac0565b6001600160a01b031614905090565b60076020526000908152604090205463ffffffff1681565b600960209081526000928352604080842090915290825290205463ffffffff1681565b60055460ff1681565b6003546001600160a01b031681565b600e6020526000908152604090205460ff1681565b60055461010090046001600160a01b031681565b63059fa60081565b60126020526000908152604090205463ffffffff1681565b600d54600160a01b90046001600160601b031681565b600a81565b604080516003808252608082019092526060918291906020820183803883390190505090506337e6b1c160e01b8160008151811061072857fe5b6001600160e01b03199092166020928302919091019091015280516346d70d8b60e11b908290600190811061075957fe5b6001600160e01b0319909216602092830291909101909101528051630c59f14160e31b908290600290811061078a57fe5b6001600160e01b031990921660209283029190910190910152905090565b600b60209081526000928352604080842090915290825290205463ffffffff1681565b600660209081526000928352604080842090915290825290205463ffffffff811690600160201b90046001600160601b031682565b6040516104bf90611394565b610814610613565b6108395760405162461bcd60e51b815260040161083090611419565b60405180910390fd5b61084281610ac4565b50565b601160209081526000928352604080842090915290825290205463ffffffff811690600160201b90046001600160601b031682565b600080610886836109fa565b905063059fa6008101815b8181116108ec5760006108a68883868a610a3a565b90506001600160601b038116156108e1576108de8582604051806040016040528060048152602001632ba9989960e11b815250610b45565b94505b506212750001610891565b5050509392505050565b6000818310156109185760405162461bcd60e51b815260040161083090611429565b81830363059fa60081111561093f5760405162461bcd60e51b815260040161083090611449565b6000620151808263059fa600036001600160601b03168161095c57fe5b04905061060a600a621232106001600160601b03166109c7600a6009026109a562123210878802604051806040016040528060048152602001630575332360e41b815250610b78565b604051806040016040528060048152602001635753323160e01b815250610bb7565b6001600160601b0316816109d757fe5b04604051806040016040528060048152602001632ba9991960e11b815250610b45565b60015460009080831015610a205760405162461bcd60e51b8152600401610830906113f9565b600062127500828503046212750002919091019392505050565b600080610a48868685610c15565b90506001600160601b03811615610ab2576000610a6586866108f6565b9050600a6001600160601b0316610a998383604051806040016040528060048152602001635753313360e01b815250610bb7565b6001600160601b031681610aa957fe5b04925050610ab7565b600091505b50949350505050565b3390565b6001600160a01b038116610aea5760405162461bcd60e51b815260040161083090611409565b600080546040516001600160a01b03808516939216917f8be0079c531659141344cd1fd0a4f28419497f9722a3daafe3b4186f6b6457e091a3600080546001600160a01b0319166001600160a01b0392909216919091179055565b6000838301826001600160601b038087169083161015610ab75760405162461bcd60e51b815260040161083091906113e8565b6000836001600160601b0316836001600160601b031611158290610baf5760405162461bcd60e51b815260040161083091906113e8565b505050900390565b60006001600160601b038416610bcf57506000610500565b8383026001600160601b038085169080871690831681610beb57fe5b046001600160601b0316148390610ab75760405162461bcd60e51b815260040161083091906113e8565b6000610c1f610e6a565b8210610c3d5760405162461bcd60e51b815260040161083090611439565b610c4683610e6e565b6001600160a01b0385166000908152600b6020908152604080832084845290915290205490935063ffffffff1680610c82576000915050610500565b6001600160a01b0385166000908152600a60209081526040808320878452825280832063ffffffff600019860181168552925290912054168310610d0e576001600160a01b0385166000908152600a6020908152604080832087845282528083206000199490940163ffffffff1683529290522054600160201b90046001600160601b03169050610500565b6001600160a01b0385166000908152600a60209081526040808320878452825280832083805290915290205463ffffffff16831015610d51576000915050610500565b600060001982015b8163ffffffff168163ffffffff161115610e1c57600282820363ffffffff16048103610d83610e93565b506001600160a01b0388166000908152600a602090815260408083208a8452825280832063ffffffff858116855290835292819020815180830190925254928316808252600160201b9093046001600160601b03169181019190915290871415610df7576020015194506105009350505050565b805163ffffffff16871115610e0e57819350610e15565b6001820392505b5050610d59565b506001600160a01b0386166000908152600a60209081526040808320888452825280832063ffffffff909416835292905220546001600160601b03600160201b909104169150509392505050565b4390565b600080610e7a836109fa565b9050828114610e8c5762127500810192505b5090919050565b604080518082019091526000808252602082015290565b80356105348161152e565b803561053481611542565b80356105348161154b565b600060208284031215610edd57600080fd5b6000610ee98484610eaa565b949350505050565b60008060408385031215610f0457600080fd5b6000610f108585610eaa565b9250506020610f2185828601610eb5565b9150509250929050565b600080600060608486031215610f4057600080fd5b6000610f4c8686610eaa565b9350506020610f5d86828701610eb5565b9250506040610f6e86828701610eb5565b9150509250925092565b60008060008060808587031215610f8e57600080fd5b6000610f9a8787610eaa565b9450506020610fab87828801610eb5565b9350506040610fbc87828801610eb5565b9250506060610fcd87828801610eb5565b91505092959194509250565b600080600060608486031215610fee57600080fd5b6000610ffa8686610eaa565b935050602061100b86828701610eb5565b9250506040610f6e86828701610ec0565b60006020828403121561102e57600080fd5b6000610ee98484610eb5565b6000806040838503121561104d57600080fd5b6000610f108585610eb5565b6000806040838503121561106c57600080fd5b60006110788585610eb5565b9250506020610f2185828601610ec0565b60006110958383611117565b505060200190565b6110a6816114a8565b82525050565b60006110b782611496565b6110c1818561149a565b93506110cc83611490565b8060005b838110156110fa5781516110e48882611089565b97506110ef83611490565b9250506001016110d0565b509495945050505050565b6110a6816114b3565b6110a6816114b8565b6110a6816114bb565b6110a6816114e9565b600061113482611496565b61113e818561149a565b935061114e8185602086016114f4565b61115781611524565b9093019392505050565b600061116e601d8361149a565b7f74696d657374616d70203c20636f6e7472616374206372656174696f6e000000815260200192915050565b60006111a760268361149a565b7f4f776e61626c653a206e6577206f776e657220697320746865207a65726f206181526564647265737360d01b602082015260400192915050565b60006111ef6043836114a3565b7f454950373132446f6d61696e28737472696e67206e616d652c75696e7432353681527f20636861696e49642c6164647265737320766572696679696e67436f6e74726160208201526263742960e81b604082015260430192915050565b600061125a600c8361149a565b6b1d5b985d5d1a1bdc9a5e995960a21b815260200192915050565b600061128260108361149a565b6f64617465203c2073746172744461746560801b815260200192915050565b60006112ae600e8361149a565b6d1b9bdd0819195d195c9b5a5b995960921b815260200192915050565b60006112d8601d8361149a565b7f72656d61696e696e672074696d65203e206d6178206475726174696f6e000000815260200192915050565b6000611311604b836114a3565b7f44656c65676174696f6e28616464726573732064656c6567617465652c75696e81527f74323536206c6f636b446174652c75696e74323536206e6f6e63652c75696e7460208201526a323536206578706972792960a81b6040820152604b0192915050565b6110a6816114d4565b6110a6816114dd565b6000610534826111e2565b600061053482611304565b60208101610534828461109d565b6020808252810161053181846110ac565b602081016105348284611105565b60208101610534828461110e565b602081016105348284611120565b602080825281016105318184611129565b6020808252810161053481611161565b602080825281016105348161119a565b602080825281016105348161124d565b6020808252810161053481611275565b60208082528101610534816112a1565b60208082528101610534816112cb565b602081016105348284611377565b604081016114758285611377565b6105006020830184611380565b602081016105348284611380565b60200190565b5190565b90815260200190565b919050565b6000610534826114c8565b151590565b90565b6001600160e01b03191690565b6001600160a01b031690565b63ffffffff1690565b6001600160601b031690565b6000610534826114a8565b60005b8381101561150f5781810151838201526020016114f7565b8381111561151e576000848401525b50505050565b601f01601f191690565b611537816114a8565b811461084257600080fd5b611537816114b8565b611537816114d456fea365627a7a7231582042fdf90a158d981c0c36e3696a528d05dd8054c991dd65b5a61190d07294a94d6c6578706572696d656e74616cf564736f6c63430005110040",
    "devdoc": {
        "methods": {
            "computeWeightByDate(uint256,uint256)": {
                "params": {
                    "date": "The unlocking date.",
                    "startDate": "We compute the weight for the tokens staked until 'date' on 'startDate'."
                },
                "return": "The weighted stake the account had as of the given block."
            },
            "getPriorWeightedStake(address,uint256,uint256)": {
                "details": "Block number must be a finalized block or else this function will revert to prevent misinformation.     Used for fee sharing, not voting.",
                "params": {
                    "account": "The address of the account to check.",
                    "blockNumber": "The block number to get the vote balance at.",
                    "date": "The date/timestamp of the unstaking time."
                },
                "return": "The weighted stake the account had as of the given block."
            },
            "isOwner()": {
                "details": "Returns true if the caller is the current owner."
            },
            "owner()": {
                "details": "Returns the address of the current owner."
            },
            "transferOwnership(address)": {
                "details": "Transfers ownership of the contract to a new account (`newOwner`). Can only be called by the current owner."
            },
            "weightedStakeByDate(address,uint256,uint256,uint256)": {
                "params": {
                    "account": "The user address.",
                    "blockNumber": "The block number, needed for checkpointing.",
                    "date": "The staking date to compute the power for. Adjusted to the previous valid lock date, if necessary.",
                    "startDate": "The date for which we need to know the power of the stake. Adjusted to the previous valid lock date, if necessary."
                },
                "return": "The staking power."
            }
        },
        "title": "Weighted Staking module contract."
    },
    "userdoc": {
        "methods": {
            "computeWeightByDate(uint256,uint256)": {
                "notice": "Compute the weight for a specific date."
            },
            "getPriorWeightedStake(address,uint256,uint256)": {
                "notice": "Determine the prior weighted stake for an account as of a block number. Iterate through checkpoints adding up voting power."
            },
            "weightedStakeByDate(address,uint256,uint256,uint256)": {
                "notice": "Compute the voting power for a specific date. Power = stake * weight"
            }
        },
        "notice": "Implements getters for weighted staking functionality"
    },
    "storageLayout": {
        "storage": [
            {
                "astId": 56900,
                "contract": "contracts/governance/Staking/modules/WeightedStakingModule.sol:WeightedStakingModule",
                "label": "_owner",
                "offset": 0,
                "slot": "0",
                "type": "t_address"
            },
            {
                "astId": 26435,
                "contract": "contracts/governance/Staking/modules/WeightedStakingModule.sol:WeightedStakingModule",
                "label": "kickoffTS",
                "offset": 0,
                "slot": "1",
                "type": "t_uint256"
            },
            {
                "astId": 26438,
                "contract": "contracts/governance/Staking/modules/WeightedStakingModule.sol:WeightedStakingModule",
                "label": "name",
                "offset": 0,
                "slot": "2",
                "type": "t_string_storage"
            },
            {
                "astId": 26440,
                "contract": "contracts/governance/Staking/modules/WeightedStakingModule.sol:WeightedStakingModule",
                "label": "SOVToken",
                "offset": 0,
                "slot": "3",
                "type": "t_contract(IERC20)35959"
            },
            {
                "astId": 26446,
                "contract": "contracts/governance/Staking/modules/WeightedStakingModule.sol:WeightedStakingModule",
                "label": "delegates",
                "offset": 0,
                "slot": "4",
                "type": "t_mapping(t_address,t_mapping(t_uint256,t_address))"
            },
            {
                "astId": 26449,
                "contract": "contracts/governance/Staking/modules/WeightedStakingModule.sol:WeightedStakingModule",
                "label": "allUnlocked",
                "offset": 0,
                "slot": "5",
                "type": "t_bool"
            },
            {
                "astId": 26461,
                "contract": "contracts/governance/Staking/modules/WeightedStakingModule.sol:WeightedStakingModule",
                "label": "newStakingContract",
                "offset": 1,
                "slot": "5",
                "type": "t_address"
            },
            {
                "astId": 26472,
                "contract": "contracts/governance/Staking/modules/WeightedStakingModule.sol:WeightedStakingModule",
                "label": "totalStakingCheckpoints",
                "offset": 0,
                "slot": "6",
                "type": "t_mapping(t_uint256,t_mapping(t_uint32,t_struct(Checkpoint)26466_storage))"
            },
            {
                "astId": 26476,
                "contract": "contracts/governance/Staking/modules/WeightedStakingModule.sol:WeightedStakingModule",
                "label": "numTotalStakingCheckpoints",
                "offset": 0,
                "slot": "7",
                "type": "t_mapping(t_uint256,t_uint32)"
            },
            {
                "astId": 26484,
                "contract": "contracts/governance/Staking/modules/WeightedStakingModule.sol:WeightedStakingModule",
                "label": "delegateStakingCheckpoints",
                "offset": 0,
                "slot": "8",
                "type": "t_mapping(t_address,t_mapping(t_uint256,t_mapping(t_uint32,t_struct(Checkpoint)26466_storage)))"
            },
            {
                "astId": 26490,
                "contract": "contracts/governance/Staking/modules/WeightedStakingModule.sol:WeightedStakingModule",
                "label": "numDelegateStakingCheckpoints",
                "offset": 0,
                "slot": "9",
                "type": "t_mapping(t_address,t_mapping(t_uint256,t_uint32))"
            },
            {
                "astId": 26498,
                "contract": "contracts/governance/Staking/modules/WeightedStakingModule.sol:WeightedStakingModule",
                "label": "userStakingCheckpoints",
                "offset": 0,
                "slot": "10",
                "type": "t_mapping(t_address,t_mapping(t_uint256,t_mapping(t_uint32,t_struct(Checkpoint)26466_storage)))"
            },
            {
                "astId": 26504,
                "contract": "contracts/governance/Staking/modules/WeightedStakingModule.sol:WeightedStakingModule",
                "label": "numUserStakingCheckpoints",
                "offset": 0,
                "slot": "11",
                "type": "t_mapping(t_address,t_mapping(t_uint256,t_uint32))"
            },
            {
                "astId": 26508,
                "contract": "contracts/governance/Staking/modules/WeightedStakingModule.sol:WeightedStakingModule",
                "label": "nonces",
                "offset": 0,
                "slot": "12",
                "type": "t_mapping(t_address,t_uint256)"
            },
            {
                "astId": 26510,
                "contract": "contracts/governance/Staking/modules/WeightedStakingModule.sol:WeightedStakingModule",
                "label": "feeSharing",
                "offset": 0,
                "slot": "13",
                "type": "t_contract(IFeeSharingCollector)15409"
            },
            {
                "astId": 26513,
                "contract": "contracts/governance/Staking/modules/WeightedStakingModule.sol:WeightedStakingModule",
                "label": "weightScaling",
                "offset": 20,
                "slot": "13",
                "type": "t_uint96"
            },
            {
                "astId": 26517,
                "contract": "contracts/governance/Staking/modules/WeightedStakingModule.sol:WeightedStakingModule",
                "label": "vestingWhitelist",
                "offset": 0,
                "slot": "14",
                "type": "t_mapping(t_address,t_bool)"
            },
            {
                "astId": 26521,
                "contract": "contracts/governance/Staking/modules/WeightedStakingModule.sol:WeightedStakingModule",
                "label": "admins",
                "offset": 0,
                "slot": "15",
                "type": "t_mapping(t_address,t_bool)"
            },
            {
                "astId": 26525,
                "contract": "contracts/governance/Staking/modules/WeightedStakingModule.sol:WeightedStakingModule",
                "label": "vestingCodeHashes",
                "offset": 0,
                "slot": "16",
                "type": "t_mapping(t_bytes32,t_bool)"
            },
            {
                "astId": 26531,
                "contract": "contracts/governance/Staking/modules/WeightedStakingModule.sol:WeightedStakingModule",
                "label": "vestingCheckpoints",
                "offset": 0,
                "slot": "17",
                "type": "t_mapping(t_uint256,t_mapping(t_uint32,t_struct(Checkpoint)26466_storage))"
            },
            {
                "astId": 26535,
                "contract": "contracts/governance/Staking/modules/WeightedStakingModule.sol:WeightedStakingModule",
                "label": "numVestingCheckpoints",
                "offset": 0,
                "slot": "18",
                "type": "t_mapping(t_uint256,t_uint32)"
            },
            {
                "astId": 26537,
                "contract": "contracts/governance/Staking/modules/WeightedStakingModule.sol:WeightedStakingModule",
                "label": "vestingRegistryLogic",
                "offset": 0,
                "slot": "19",
                "type": "t_contract(IVestingRegistry)28814"
            },
            {
                "astId": 26541,
                "contract": "contracts/governance/Staking/modules/WeightedStakingModule.sol:WeightedStakingModule",
                "label": "pausers",
                "offset": 0,
                "slot": "20",
                "type": "t_mapping(t_address,t_bool)"
            },
            {
                "astId": 26543,
                "contract": "contracts/governance/Staking/modules/WeightedStakingModule.sol:WeightedStakingModule",
                "label": "paused",
                "offset": 0,
                "slot": "21",
                "type": "t_bool"
            },
            {
                "astId": 26545,
                "contract": "contracts/governance/Staking/modules/WeightedStakingModule.sol:WeightedStakingModule",
                "label": "frozen",
                "offset": 1,
                "slot": "21",
                "type": "t_bool"
            },
            {
                "astId": 26547,
                "contract": "contracts/governance/Staking/modules/WeightedStakingModule.sol:WeightedStakingModule",
                "label": "maxVestingWithdrawIterations",
                "offset": 0,
                "slot": "22",
                "type": "t_uint256"
            }
        ],
        "types": {
            "t_address": {
                "encoding": "inplace",
                "label": "address",
                "numberOfBytes": "20"
            },
            "t_bool": {
                "encoding": "inplace",
                "label": "bool",
                "numberOfBytes": "1"
            },
            "t_bytes32": {
                "encoding": "inplace",
                "label": "bytes32",
                "numberOfBytes": "32"
            },
            "t_contract(IERC20)35959": {
                "encoding": "inplace",
                "label": "contract IERC20",
                "numberOfBytes": "20"
            },
            "t_contract(IFeeSharingCollector)15409": {
                "encoding": "inplace",
                "label": "contract IFeeSharingCollector",
                "numberOfBytes": "20"
            },
            "t_contract(IVestingRegistry)28814": {
                "encoding": "inplace",
                "label": "contract IVestingRegistry",
                "numberOfBytes": "20"
            },
            "t_mapping(t_address,t_bool)": {
                "encoding": "mapping",
                "key": "t_address",
                "label": "mapping(address => bool)",
                "numberOfBytes": "32",
                "value": "t_bool"
            },
            "t_mapping(t_address,t_mapping(t_uint256,t_address))": {
                "encoding": "mapping",
                "key": "t_address",
                "label": "mapping(address => mapping(uint256 => address))",
                "numberOfBytes": "32",
                "value": "t_mapping(t_uint256,t_address)"
            },
            "t_mapping(t_address,t_mapping(t_uint256,t_mapping(t_uint32,t_struct(Checkpoint)26466_storage)))": {
                "encoding": "mapping",
                "key": "t_address",
                "label": "mapping(address => mapping(uint256 => mapping(uint32 => struct StakingStorageShared.Checkpoint)))",
                "numberOfBytes": "32",
                "value": "t_mapping(t_uint256,t_mapping(t_uint32,t_struct(Checkpoint)26466_storage))"
            },
            "t_mapping(t_address,t_mapping(t_uint256,t_uint32))": {
                "encoding": "mapping",
                "key": "t_address",
                "label": "mapping(address => mapping(uint256 => uint32))",
                "numberOfBytes": "32",
                "value": "t_mapping(t_uint256,t_uint32)"
            },
            "t_mapping(t_address,t_uint256)": {
                "encoding": "mapping",
                "key": "t_address",
                "label": "mapping(address => uint256)",
                "numberOfBytes": "32",
                "value": "t_uint256"
            },
            "t_mapping(t_bytes32,t_bool)": {
                "encoding": "mapping",
                "key": "t_bytes32",
                "label": "mapping(bytes32 => bool)",
                "numberOfBytes": "32",
                "value": "t_bool"
            },
            "t_mapping(t_uint256,t_address)": {
                "encoding": "mapping",
                "key": "t_uint256",
                "label": "mapping(uint256 => address)",
                "numberOfBytes": "32",
                "value": "t_address"
            },
            "t_mapping(t_uint256,t_mapping(t_uint32,t_struct(Checkpoint)26466_storage))": {
                "encoding": "mapping",
                "key": "t_uint256",
                "label": "mapping(uint256 => mapping(uint32 => struct StakingStorageShared.Checkpoint))",
                "numberOfBytes": "32",
                "value": "t_mapping(t_uint32,t_struct(Checkpoint)26466_storage)"
            },
            "t_mapping(t_uint256,t_uint32)": {
                "encoding": "mapping",
                "key": "t_uint256",
                "label": "mapping(uint256 => uint32)",
                "numberOfBytes": "32",
                "value": "t_uint32"
            },
            "t_mapping(t_uint32,t_struct(Checkpoint)26466_storage)": {
                "encoding": "mapping",
                "key": "t_uint32",
                "label": "mapping(uint32 => struct StakingStorageShared.Checkpoint)",
                "numberOfBytes": "32",
                "value": "t_struct(Checkpoint)26466_storage"
            },
            "t_string_storage": {
                "encoding": "bytes",
                "label": "string",
                "numberOfBytes": "32"
            },
            "t_struct(Checkpoint)26466_storage": {
                "encoding": "inplace",
                "label": "struct StakingStorageShared.Checkpoint",
                "members": [
                    {
                        "astId": 26463,
                        "contract": "contracts/governance/Staking/modules/WeightedStakingModule.sol:WeightedStakingModule",
                        "label": "fromBlock",
                        "offset": 0,
                        "slot": "0",
                        "type": "t_uint32"
                    },
                    {
                        "astId": 26465,
                        "contract": "contracts/governance/Staking/modules/WeightedStakingModule.sol:WeightedStakingModule",
                        "label": "stake",
                        "offset": 4,
                        "slot": "0",
                        "type": "t_uint96"
                    }
                ],
                "numberOfBytes": "32"
            },
            "t_uint256": {
                "encoding": "inplace",
                "label": "uint256",
                "numberOfBytes": "32"
            },
            "t_uint32": {
                "encoding": "inplace",
                "label": "uint32",
                "numberOfBytes": "4"
            },
            "t_uint96": {
                "encoding": "inplace",
                "label": "uint96",
                "numberOfBytes": "12"
            }
        }
    }
}