{
  "abi": [
    {
      "anonymous": false,
      "inputs": [
        {
          "indexed": true,
          "internalType": "address",
          "name": "previousOwner",
          "type": "address"
        },
        {
          "indexed": true,
          "internalType": "address",
          "name": "newOwner",
          "type": "address"
        }
      ],
      "name": "OwnershipTransferred",
      "type": "event"
    },
    {
      "anonymous": false,
      "inputs": [
        {
          "indexed": false,
          "internalType": "address",
          "name": "account",
          "type": "address"
        }
      ],
      "name": "Paused",
      "type": "event"
    },
    {
      "anonymous": false,
      "inputs": [
        {
          "indexed": false,
          "internalType": "address",
          "name": "account",
          "type": "address"
        }
      ],
      "name": "Unpaused",
      "type": "event"
    },
    {
      "constant": true,
      "inputs": [
        {
          "internalType": "bytes32",
          "name": "",
          "type": "bytes32"
        }
      ],
      "name": "activeModuleIndex",
      "outputs": [
        {
          "internalType": "uint256",
          "name": "",
          "type": "uint256"
        }
      ],
      "payable": false,
      "stateMutability": "view",
      "type": "function"
    },
    {
      "constant": true,
      "inputs": [
        {
          "internalType": "bytes32",
          "name": "moduleName",
          "type": "bytes32"
        }
      ],
      "name": "getActiveFuncSignatureList",
      "outputs": [
        {
          "internalType": "bytes4[]",
          "name": "signatureList",
          "type": "bytes4[]"
        }
      ],
      "payable": false,
      "stateMutability": "view",
      "type": "function"
    },
    {
      "constant": true,
      "inputs": [
        {
          "internalType": "bytes32",
          "name": "moduleName",
          "type": "bytes32"
        }
      ],
      "name": "getModuleUpgradeLogLength",
      "outputs": [
        {
          "internalType": "uint256",
          "name": "",
          "type": "uint256"
        }
      ],
      "payable": false,
      "stateMutability": "view",
      "type": "function"
    },
    {
      "constant": true,
      "inputs": [
        {
          "internalType": "bytes4",
          "name": "sig",
          "type": "bytes4"
        }
      ],
      "name": "getTarget",
      "outputs": [
        {
          "internalType": "address",
          "name": "",
          "type": "address"
        }
      ],
      "payable": false,
      "stateMutability": "view",
      "type": "function"
    },
    {
      "constant": true,
      "inputs": [],
      "name": "isOwner",
      "outputs": [
        {
          "internalType": "bool",
          "name": "",
          "type": "bool"
        }
      ],
      "payable": false,
      "stateMutability": "view",
      "type": "function"
    },
    {
      "constant": true,
      "inputs": [
        {
          "internalType": "bytes32",
          "name": "",
          "type": "bytes32"
        },
        {
          "internalType": "uint256",
          "name": "",
          "type": "uint256"
        }
      ],
      "name": "moduleUpgradeLog",
      "outputs": [
        {
          "internalType": "address",
          "name": "implementation",
          "type": "address"
        },
        {
          "internalType": "uint256",
          "name": "updateTimestamp",
          "type": "uint256"
        }
      ],
      "payable": false,
      "stateMutability": "view",
      "type": "function"
    },
    {
      "constant": true,
      "inputs": [],
      "name": "owner",
      "outputs": [
        {
          "internalType": "address",
          "name": "",
          "type": "address"
        }
      ],
      "payable": false,
      "stateMutability": "view",
      "type": "function"
    },
    {
      "constant": false,
      "inputs": [],
      "name": "pause",
      "outputs": [],
      "payable": false,
      "stateMutability": "nonpayable",
      "type": "function"
    },
    {
      "constant": true,
      "inputs": [],
      "name": "paused",
      "outputs": [
        {
          "internalType": "bool",
          "name": "",
          "type": "bool"
        }
      ],
      "payable": false,
      "stateMutability": "view",
      "type": "function"
    },
    {
      "constant": false,
      "inputs": [
        {
          "internalType": "address",
          "name": "loanTokenModuleAddress",
          "type": "address"
        }
      ],
      "name": "registerLoanTokenModule",
      "outputs": [],
      "payable": false,
      "stateMutability": "nonpayable",
      "type": "function"
    },
    {
      "constant": false,
      "inputs": [
        {
          "internalType": "bytes32",
          "name": "moduleName",
          "type": "bytes32"
        },
        {
          "internalType": "uint256",
          "name": "index",
          "type": "uint256"
        }
      ],
      "name": "rollback",
      "outputs": [],
      "payable": false,
      "stateMutability": "nonpayable",
      "type": "function"
    },
    {
      "constant": false,
      "inputs": [
        {
          "internalType": "address",
          "name": "newOwner",
          "type": "address"
        }
      ],
      "name": "transferOwnership",
      "outputs": [],
      "payable": false,
      "stateMutability": "nonpayable",
      "type": "function"
    },
    {
      "constant": false,
      "inputs": [],
      "name": "unpause",
      "outputs": [],
      "payable": false,
      "stateMutability": "nonpayable",
      "type": "function"
    }
  ],
  "bytecode": {
    "object": "0x608060405260006100176001600160e01b0361006616565b600080546001600160a01b0319166001600160a01b0383169081178255604051929350917f8be0079c531659141344cd1fd0a4f28419497f9722a3daafe3b4186f6b6457e0908290a35061006a565b3390565b611161806100796000396000f3fe608060405234801561001057600080fd5b50600436106100cf5760003560e01c80637405ca3c1161008c5780638da5cb5b116100665780638da5cb5b146101ab5780638f32d59b146101b3578063953aa60b146101bb578063f2fde38b146101ce576100cf565b80637405ca3c146101625780638456cb591461018357806387d3b26c1461018b576100cf565b80630e317e8b146100d45780631873c061146100e95780631f88c4a214610112578063374e4047146101255780633f4ba83a146101455780635c975abb1461014d575b600080fd5b6100e76100e2366004610d15565b6101e1565b005b6100fc6100f7366004610cf7565b610263565b6040516101099190611052565b60405180910390f35b6100fc610120366004610cf7565b610275565b610138610133366004610d45565b610287565b6040516101099190610f8c565b6100e76102d8565b610155610372565b6040516101099190610fd4565b610175610170366004610d15565b610382565b604051610109929190610fa8565b6100e76103c5565b61019e610199366004610cf7565b61044f565b6040516101099190610fc3565b61013861048e565b61015561049d565b6100e76101c9366004610c88565b6104c1565b6100e76101dc366004610c88565b61056d565b6101e961049d565b61020e5760405162461bcd60e51b815260040161020590611022565b60405180910390fd5b600082815260026020526040812080548390811061022857fe5b60009182526020909120600290910201546001600160a01b0316905061024d8161059d565b6000908152600360205260409020919091555050565b60009081526002602052604090205490565b60036020526000908152604090205481565b60008054600160a01b900460ff16156102b25760405162461bcd60e51b815260040161020590610fe2565b506001600160e01b0319166000908152600160205260409020546001600160a01b031690565b6102e061049d565b6102fc5760405162461bcd60e51b815260040161020590611022565b600054600160a01b900460ff166103255760405162461bcd60e51b815260040161020590610ff2565b6000805460ff60a01b191690557f5db9ee0a495bf2e6ff9c91a7834c1ba4fdd244a5e8aa4e537bd38aeae4b073aa61035b61083b565b6040516103689190610f9a565b60405180910390a1565b600054600160a01b900460ff1690565b6002602052816000526040600020818154811061039b57fe5b6000918252602090912060029091020180546001909101546001600160a01b039091169250905082565b6103cd61049d565b6103e95760405162461bcd60e51b815260040161020590611022565b600054600160a01b900460ff16156104135760405162461bcd60e51b815260040161020590610fe2565b6000805460ff60a01b1916600160a01b1790557f62e78cea01bee320cd4e420270b5ea74000d11b0c9f74754ebdbfc544b05a25861035b61083b565b60008181526004602052604081206060916104889161046d9061083f565b6000858152600460205260409020919063ffffffff61084616565b92915050565b6000546001600160a01b031690565b600080546001600160a01b03166104b261083b565b6001600160a01b031614905090565b6104c961049d565b6104e55760405162461bcd60e51b815260040161020590611022565b60006104f08261059d565b6000818152600260208181526040808420815180830183526001600160a01b0398891681524281850190815282546001808201855584895286892093519190970290920180546001600160a01b03191692909a16919091178955519790930196909655928252546003909252929092206000199290920190915550565b61057561049d565b6105915760405162461bcd60e51b815260040161020590611022565b61059a81610943565b50565b60006105a8826109c4565b6105c45760405162461bcd60e51b815260040161020590611042565b60606000836001600160a01b03166390967de56040518163ffffffff1660e01b815260040160006040518083038186803b15801561060157600080fd5b505afa158015610615573d6000803e3d6000fd5b505050506040513d6000823e601f3d908101601f1916820160405261063d9190810190610ca6565b9150915060005b825181101561076b57825160009084908390811061065e57fe5b60200260200101516001600160e01b031916141561068e5760405162461bcd60e51b815260040161020590611032565b846001600085848151811061069f57fe5b60200260200101516001600160e01b0319166001600160e01b031916815260200190815260200160002060006101000a8154816001600160a01b0302191690836001600160a01b031602179055506107258382815181106106fc57fe5b602002602001015160046000858152602001908152602001600020610a0090919063ffffffff16565b6107635761076183828151811061073857fe5b602002602001015160046000858152602001908152602001600020610a1f90919063ffffffff16565b505b600101610644565b50600081815260046020526040812060609161078a9161046d9061083f565b905060005b81518110156108315760008282815181106107a657fe5b6020908102919091018101516001600160e01b03198116600090815260019092526040909120549091506001600160a01b03888116911614610828576001600160e01b03198116600090815260016020908152604080832080546001600160a01b031916905586835260049091529020610826908263ffffffff610a9816565b505b5060010161078f565b5090949350505050565b3390565b6001015490565b60608282018381101561086b5760405162461bcd60e51b815260040161020590611012565b6001850154811161087c5780610882565b60018501545b90508015806108915750808410155b1561089c575061093c565b8381036040519080825280602002602001820160405280156108c8578160200160208202803883390190505b50915060005b8482038110156109395785600101858201815481106108e957fe5b90600052602060002090600891828204019190066004029054906101000a900460e01b83828151811061091857fe5b6001600160e01b0319909216602092830291909101909101526001016108ce565b50505b9392505050565b6001600160a01b0381166109695760405162461bcd60e51b815260040161020590611002565b600080546040516001600160a01b03808516939216917f8be0079c531659141344cd1fd0a4f28419497f9722a3daafe3b4186f6b6457e091a3600080546001600160a01b0319166001600160a01b0392909216919091179055565b6000813f7fc5d2460186f7233c927e7db2dcc703c0e500b653ca82273b7bfad8045d85a4708181148015906109f857508115155b949350505050565b6001600160e01b03191660009081526020919091526040902054151590565b6000610a2b8383610a00565b610a90575060018281018054808301808355600092835260208084206008840401805463ffffffff60079095166004026101000a948502191660e088901c94909402939093179092556001600160e01b03198516835290859052604090912055610488565b506000610488565b6000610aa48383610a00565b15610a90576001600160e01b0319821660009081526020849052604090205460018401546000199182019101808214610b71576000856001018281548110610ae857fe5b90600052602060002090600891828204019190066004029054906101000a900460e01b905080866001018481548110610b1d57fe5b600091825260208083206008830401805463ffffffff60079094166004026101000a938402191660e09590951c929092029390931790556001600160e01b0319929092168252869052604090206001830190555b6001600160e01b0319841660009081526020869052604081205560018501805480610b9857fe5b600082815260209020600860001990920191820401805463ffffffff600460078516026101000a0219169055905550600191506104889050565b8035610488816110f8565b600082601f830112610bee57600080fd5b8151610c01610bfc82611087565b611060565b91508181835260208401935060208101905083856020840282011115610c2657600080fd5b60005b83811015610c525781610c3c8882610c7d565b8452506020928301929190910190600101610c29565b5050505092915050565b80356104888161110c565b80516104888161110c565b803561048881611115565b805161048881611115565b600060208284031215610c9a57600080fd5b60006109f88484610bd2565b60008060408385031215610cb957600080fd5b825167ffffffffffffffff811115610cd057600080fd5b610cdc85828601610bdd565b9250506020610ced85828601610c67565b9150509250929050565b600060208284031215610d0957600080fd5b60006109f88484610c5c565b60008060408385031215610d2857600080fd5b6000610d348585610c5c565b9250506020610ced85828601610c5c565b600060208284031215610d5757600080fd5b60006109f88484610c72565b6000610d6f8383610df1565b505060200190565b610d80816110e7565b82525050565b610d80816110bb565b6000610d9a826110ae565b610da481856110b2565b9350610daf836110a8565b8060005b83811015610ddd578151610dc78882610d63565b9750610dd2836110a8565b925050600101610db3565b509495945050505050565b610d80816110c6565b610d80816110ce565b6000610e076020836110b2565b7f4c6f616e546f6b656e4c6f676963426561636f6e3a706175736564206d6f6465815260200192915050565b6000610e406014836110b2565b7314185d5cd8589b194e881b9bdd081c185d5cd95960621b815260200192915050565b6000610e706026836110b2565b7f4f776e61626c653a206e6577206f776e657220697320746865207a65726f206181526564647265737360d01b602082015260400192915050565b6000610eb86011836110b2565b706164646974696f6e206f766572666c6f7760781b815260200192915050565b6000610ee5600c836110b2565b6b1d5b985d5d1a1bdc9a5e995960a21b815260200192915050565b6000610f0d6018836110b2565b7f4552525f454d5054595f46554e435f5349474e41545552450000000000000000815260200192915050565b6000610f466028836110b2565b7f4c6f616e546f6b656e4d6f64756c6541646472657373206973206e6f7420612081526718dbdb9d1c9858dd60c21b602082015260400192915050565b610d80816110cb565b602081016104888284610d86565b602081016104888284610d77565b60408101610fb68285610d86565b61093c6020830184610f83565b6020808252810161093c8184610d8f565b602081016104888284610de8565b6020808252810161048881610dfa565b6020808252810161048881610e33565b6020808252810161048881610e63565b6020808252810161048881610eab565b6020808252810161048881610ed8565b6020808252810161048881610f00565b6020808252810161048881610f39565b602081016104888284610f83565b60405181810167ffffffffffffffff8111828210171561107f57600080fd5b604052919050565b600067ffffffffffffffff82111561109e57600080fd5b5060209081020190565b60200190565b5190565b90815260200190565b6000610488826110db565b151590565b90565b6001600160e01b03191690565b6001600160a01b031690565b6000610488826000610488826110bb565b611101816110bb565b811461059a57600080fd5b611101816110cb565b611101816110ce56fea365627a7a72315820f52defefe866e2b57d9191d2aa544aec5c067692847636f040bfe27e9cbe363d6c6578706572696d656e74616cf564736f6c63430005110040",
    "linkReferences": {}
  },
  "methodIdentifiers": {
    "activeModuleIndex(bytes32)": "1f88c4a2",
    "getActiveFuncSignatureList(bytes32)": "87d3b26c",
    "getModuleUpgradeLogLength(bytes32)": "1873c061",
    "getTarget(bytes4)": "374e4047",
    "isOwner()": "8f32d59b",
    "moduleUpgradeLog(bytes32,uint256)": "7405ca3c",
    "owner()": "8da5cb5b",
    "pause()": "8456cb59",
    "paused()": "5c975abb",
    "registerLoanTokenModule(address)": "953aa60b",
    "rollback(bytes32,uint256)": "0e317e8b",
    "transferOwnership(address)": "f2fde38b",
    "unpause()": "3f4ba83a"
  },
  "id": 4
}