{
  "_format": "hh-sol-artifact-1",
  "contractName": "BorrowerOperations",
  "sourceName": "contracts/BorrowerOperations.sol",
  "abi": [
    {
      "anonymous": false,
      "inputs": [
        {
          "indexed": false,
          "internalType": "address",
          "name": "_activePoolAddress",
          "type": "address"
        }
      ],
      "name": "ActivePoolAddressChanged",
      "type": "event"
    },
    {
      "anonymous": false,
      "inputs": [
        {
          "indexed": false,
          "internalType": "address",
          "name": "_collSurplusPoolAddress",
          "type": "address"
        }
      ],
      "name": "CollSurplusPoolAddressChanged",
      "type": "event"
    },
    {
      "anonymous": false,
      "inputs": [
        {
          "indexed": false,
          "internalType": "address",
          "name": "_defaultPoolAddress",
          "type": "address"
        }
      ],
      "name": "DefaultPoolAddressChanged",
      "type": "event"
    },
    {
      "anonymous": false,
      "inputs": [
        {
          "indexed": false,
          "internalType": "address",
          "name": "_feeDistributorAddress",
          "type": "address"
        }
      ],
      "name": "FeeDistributorAddressChanged",
      "type": "event"
    },
    {
      "anonymous": false,
      "inputs": [
        {
          "indexed": false,
          "internalType": "address",
          "name": "_gasPoolAddress",
          "type": "address"
        }
      ],
      "name": "GasPoolAddressChanged",
      "type": "event"
    },
    {
      "anonymous": false,
      "inputs": [
        {
          "indexed": false,
          "internalType": "address",
          "name": "_massetManagerAddress",
          "type": "address"
        }
      ],
      "name": "MassetManagerAddressChanged",
      "type": "event"
    },
    {
      "anonymous": false,
      "inputs": [
        {
          "indexed": true,
          "internalType": "address",
          "name": "previousOwner",
          "type": "address"
        },
        {
          "indexed": true,
          "internalType": "address",
          "name": "newOwner",
          "type": "address"
        }
      ],
      "name": "OwnershipTransferred",
      "type": "event"
    },
    {
      "anonymous": false,
      "inputs": [
        {
          "indexed": false,
          "internalType": "address",
          "name": "_newPriceFeedAddress",
          "type": "address"
        }
      ],
      "name": "PriceFeedAddressChanged",
      "type": "event"
    },
    {
      "anonymous": false,
      "inputs": [
        {
          "indexed": false,
          "internalType": "address",
          "name": "_sortedTrovesAddress",
          "type": "address"
        }
      ],
      "name": "SortedTrovesAddressChanged",
      "type": "event"
    },
    {
      "anonymous": false,
      "inputs": [
        {
          "indexed": false,
          "internalType": "address",
          "name": "_stabilityPoolAddress",
          "type": "address"
        }
      ],
      "name": "StabilityPoolAddressChanged",
      "type": "event"
    },
    {
      "anonymous": false,
      "inputs": [
        {
          "indexed": true,
          "internalType": "address",
          "name": "_borrower",
          "type": "address"
        },
        {
          "indexed": false,
          "internalType": "uint256",
          "name": "arrayIndex",
          "type": "uint256"
        }
      ],
      "name": "TroveCreated",
      "type": "event"
    },
    {
      "anonymous": false,
      "inputs": [
        {
          "indexed": false,
          "internalType": "address",
          "name": "_newTroveManagerAddress",
          "type": "address"
        }
      ],
      "name": "TroveManagerAddressChanged",
      "type": "event"
    },
    {
      "anonymous": false,
      "inputs": [
        {
          "indexed": true,
          "internalType": "address",
          "name": "_borrower",
          "type": "address"
        },
        {
          "indexed": false,
          "internalType": "uint256",
          "name": "_debt",
          "type": "uint256"
        },
        {
          "indexed": false,
          "internalType": "uint256",
          "name": "_coll",
          "type": "uint256"
        },
        {
          "indexed": false,
          "internalType": "uint256",
          "name": "stake",
          "type": "uint256"
        },
        {
          "indexed": false,
          "internalType": "enum BorrowerOperations.BorrowerOperation",
          "name": "operation",
          "type": "uint8"
        }
      ],
      "name": "TroveUpdated",
      "type": "event"
    },
    {
      "anonymous": false,
      "inputs": [
        {
          "indexed": false,
          "internalType": "address",
          "name": "_zeroStakingAddress",
          "type": "address"
        }
      ],
      "name": "ZEROStakingAddressChanged",
      "type": "event"
    },
    {
      "anonymous": false,
      "inputs": [
        {
          "indexed": true,
          "internalType": "address",
          "name": "_borrower",
          "type": "address"
        },
        {
          "indexed": false,
          "internalType": "uint256",
          "name": "_ZUSDFee",
          "type": "uint256"
        }
      ],
      "name": "ZUSDBorrowingFeePaid",
      "type": "event"
    },
    {
      "anonymous": false,
      "inputs": [
        {
          "indexed": false,
          "internalType": "address",
          "name": "_zusdTokenAddress",
          "type": "address"
        }
      ],
      "name": "ZUSDTokenAddressChanged",
      "type": "event"
    },
    {
      "inputs": [],
      "name": "BORROWING_FEE_FLOOR",
      "outputs": [
        {
          "internalType": "uint256",
          "name": "",
          "type": "uint256"
        }
      ],
      "stateMutability": "view",
      "type": "function"
    },
    {
      "inputs": [],
      "name": "DECIMAL_PRECISION",
      "outputs": [
        {
          "internalType": "uint256",
          "name": "",
          "type": "uint256"
        }
      ],
      "stateMutability": "view",
      "type": "function"
    },
    {
      "inputs": [],
      "name": "MIN_NET_DEBT",
      "outputs": [
        {
          "internalType": "uint256",
          "name": "",
          "type": "uint256"
        }
      ],
      "stateMutability": "view",
      "type": "function"
    },
    {
      "inputs": [],
      "name": "NAME",
      "outputs": [
        {
          "internalType": "string",
          "name": "",
          "type": "string"
        }
      ],
      "stateMutability": "view",
      "type": "function"
    },
    {
      "inputs": [],
      "name": "ZUSD_GAS_COMPENSATION",
      "outputs": [
        {
          "internalType": "uint256",
          "name": "",
          "type": "uint256"
        }
      ],
      "stateMutability": "view",
      "type": "function"
    },
    {
      "inputs": [],
      "name": "_100pct",
      "outputs": [
        {
          "internalType": "uint256",
          "name": "",
          "type": "uint256"
        }
      ],
      "stateMutability": "view",
      "type": "function"
    },
    {
      "inputs": [],
      "name": "activePool",
      "outputs": [
        {
          "internalType": "contract IActivePool",
          "name": "",
          "type": "address"
        }
      ],
      "stateMutability": "view",
      "type": "function"
    },
    {
      "inputs": [
        {
          "internalType": "address",
          "name": "_upperHint",
          "type": "address"
        },
        {
          "internalType": "address",
          "name": "_lowerHint",
          "type": "address"
        }
      ],
      "name": "addColl",
      "outputs": [],
      "stateMutability": "payable",
      "type": "function"
    },
    {
      "inputs": [
        {
          "internalType": "uint256",
          "name": "_maxFeePercentage",
          "type": "uint256"
        },
        {
          "internalType": "uint256",
          "name": "_collWithdrawal",
          "type": "uint256"
        },
        {
          "internalType": "uint256",
          "name": "_ZUSDChange",
          "type": "uint256"
        },
        {
          "internalType": "bool",
          "name": "_isDebtIncrease",
          "type": "bool"
        },
        {
          "internalType": "address",
          "name": "_upperHint",
          "type": "address"
        },
        {
          "internalType": "address",
          "name": "_lowerHint",
          "type": "address"
        },
        {
          "components": [
            {
              "internalType": "uint256",
              "name": "deadline",
              "type": "uint256"
            },
            {
              "internalType": "uint8",
              "name": "v",
              "type": "uint8"
            },
            {
              "internalType": "bytes32",
              "name": "r",
              "type": "bytes32"
            },
            {
              "internalType": "bytes32",
              "name": "s",
              "type": "bytes32"
            }
          ],
          "internalType": "struct IMassetManager.PermitParams",
          "name": "_permitParams",
          "type": "tuple"
        }
      ],
      "name": "adjustNueTrove",
      "outputs": [],
      "stateMutability": "payable",
      "type": "function"
    },
    {
      "inputs": [
        {
          "internalType": "uint256",
          "name": "_maxFeePercentage",
          "type": "uint256"
        },
        {
          "internalType": "uint256",
          "name": "_collWithdrawal",
          "type": "uint256"
        },
        {
          "internalType": "uint256",
          "name": "_ZUSDChange",
          "type": "uint256"
        },
        {
          "internalType": "bool",
          "name": "_isDebtIncrease",
          "type": "bool"
        },
        {
          "internalType": "address",
          "name": "_upperHint",
          "type": "address"
        },
        {
          "internalType": "address",
          "name": "_lowerHint",
          "type": "address"
        }
      ],
      "name": "adjustTrove",
      "outputs": [],
      "stateMutability": "payable",
      "type": "function"
    },
    {
      "inputs": [],
      "name": "claimCollateral",
      "outputs": [],
      "stateMutability": "nonpayable",
      "type": "function"
    },
    {
      "inputs": [
        {
          "components": [
            {
              "internalType": "uint256",
              "name": "deadline",
              "type": "uint256"
            },
            {
              "internalType": "uint8",
              "name": "v",
              "type": "uint8"
            },
            {
              "internalType": "bytes32",
              "name": "r",
              "type": "bytes32"
            },
            {
              "internalType": "bytes32",
              "name": "s",
              "type": "bytes32"
            }
          ],
          "internalType": "struct IMassetManager.PermitParams",
          "name": "_permitParams",
          "type": "tuple"
        }
      ],
      "name": "closeNueTrove",
      "outputs": [],
      "stateMutability": "nonpayable",
      "type": "function"
    },
    {
      "inputs": [],
      "name": "closeTrove",
      "outputs": [],
      "stateMutability": "nonpayable",
      "type": "function"
    },
    {
      "inputs": [],
      "name": "defaultPool",
      "outputs": [
        {
          "internalType": "contract IDefaultPool",
          "name": "",
          "type": "address"
        }
      ],
      "stateMutability": "view",
      "type": "function"
    },
    {
      "inputs": [],
      "name": "feeDistributor",
      "outputs": [
        {
          "internalType": "contract IFeeDistributor",
          "name": "",
          "type": "address"
        }
      ],
      "stateMutability": "view",
      "type": "function"
    },
    {
      "inputs": [
        {
          "internalType": "uint256",
          "name": "_debt",
          "type": "uint256"
        }
      ],
      "name": "getCompositeDebt",
      "outputs": [
        {
          "internalType": "uint256",
          "name": "",
          "type": "uint256"
        }
      ],
      "stateMutability": "view",
      "type": "function"
    },
    {
      "inputs": [],
      "name": "getEntireSystemColl",
      "outputs": [
        {
          "internalType": "uint256",
          "name": "entireSystemColl",
          "type": "uint256"
        }
      ],
      "stateMutability": "view",
      "type": "function"
    },
    {
      "inputs": [],
      "name": "getEntireSystemDebt",
      "outputs": [
        {
          "internalType": "uint256",
          "name": "entireSystemDebt",
          "type": "uint256"
        }
      ],
      "stateMutability": "view",
      "type": "function"
    },
    {
      "inputs": [],
      "name": "getMassetManager",
      "outputs": [
        {
          "internalType": "contract IMassetManager",
          "name": "",
          "type": "address"
        }
      ],
      "stateMutability": "view",
      "type": "function"
    },
    {
      "inputs": [],
      "name": "getOwner",
      "outputs": [
        {
          "internalType": "address",
          "name": "_owner",
          "type": "address"
        }
      ],
      "stateMutability": "view",
      "type": "function"
    },
    {
      "inputs": [],
      "name": "liquityBaseParams",
      "outputs": [
        {
          "internalType": "contract ILiquityBaseParams",
          "name": "",
          "type": "address"
        }
      ],
      "stateMutability": "view",
      "type": "function"
    },
    {
      "inputs": [],
      "name": "massetManager",
      "outputs": [
        {
          "internalType": "contract IMassetManager",
          "name": "",
          "type": "address"
        }
      ],
      "stateMutability": "view",
      "type": "function"
    },
    {
      "inputs": [
        {
          "internalType": "address",
          "name": "_borrower",
          "type": "address"
        },
        {
          "internalType": "address",
          "name": "_upperHint",
          "type": "address"
        },
        {
          "internalType": "address",
          "name": "_lowerHint",
          "type": "address"
        }
      ],
      "name": "moveETHGainToTrove",
      "outputs": [],
      "stateMutability": "payable",
      "type": "function"
    },
    {
      "inputs": [
        {
          "internalType": "uint256",
          "name": "_maxFeePercentage",
          "type": "uint256"
        },
        {
          "internalType": "uint256",
          "name": "_ZUSDAmount",
          "type": "uint256"
        },
        {
          "internalType": "address",
          "name": "_upperHint",
          "type": "address"
        },
        {
          "internalType": "address",
          "name": "_lowerHint",
          "type": "address"
        }
      ],
      "name": "openNueTrove",
      "outputs": [],
      "stateMutability": "payable",
      "type": "function"
    },
    {
      "inputs": [
        {
          "internalType": "uint256",
          "name": "_maxFeePercentage",
          "type": "uint256"
        },
        {
          "internalType": "uint256",
          "name": "_ZUSDAmount",
          "type": "uint256"
        },
        {
          "internalType": "address",
          "name": "_upperHint",
          "type": "address"
        },
        {
          "internalType": "address",
          "name": "_lowerHint",
          "type": "address"
        }
      ],
      "name": "openTrove",
      "outputs": [],
      "stateMutability": "payable",
      "type": "function"
    },
    {
      "inputs": [],
      "name": "priceFeed",
      "outputs": [
        {
          "internalType": "contract IPriceFeed",
          "name": "",
          "type": "address"
        }
      ],
      "stateMutability": "view",
      "type": "function"
    },
    {
      "inputs": [
        {
          "internalType": "uint256",
          "name": "_ZUSDAmount",
          "type": "uint256"
        },
        {
          "internalType": "address",
          "name": "_upperHint",
          "type": "address"
        },
        {
          "internalType": "address",
          "name": "_lowerHint",
          "type": "address"
        }
      ],
      "name": "repayZUSD",
      "outputs": [],
      "stateMutability": "nonpayable",
      "type": "function"
    },
    {
      "inputs": [
        {
          "internalType": "uint256",
          "name": "_dllrAmount",
          "type": "uint256"
        },
        {
          "internalType": "address",
          "name": "_upperHint",
          "type": "address"
        },
        {
          "internalType": "address",
          "name": "_lowerHint",
          "type": "address"
        },
        {
          "components": [
            {
              "internalType": "uint256",
              "name": "deadline",
              "type": "uint256"
            },
            {
              "internalType": "uint8",
              "name": "v",
              "type": "uint8"
            },
            {
              "internalType": "bytes32",
              "name": "r",
              "type": "bytes32"
            },
            {
              "internalType": "bytes32",
              "name": "s",
              "type": "bytes32"
            }
          ],
          "internalType": "struct IMassetManager.PermitParams",
          "name": "_permitParams",
          "type": "tuple"
        }
      ],
      "name": "repayZusdFromDLLR",
      "outputs": [],
      "stateMutability": "nonpayable",
      "type": "function"
    },
    {
      "inputs": [
        {
          "internalType": "address",
          "name": "_feeDistributorAddress",
          "type": "address"
        },
        {
          "internalType": "address",
          "name": "_liquityBaseParamsAddress",
          "type": "address"
        },
        {
          "internalType": "address",
          "name": "_troveManagerAddress",
          "type": "address"
        },
        {
          "internalType": "address",
          "name": "_activePoolAddress",
          "type": "address"
        },
        {
          "internalType": "address",
          "name": "_defaultPoolAddress",
          "type": "address"
        },
        {
          "internalType": "address",
          "name": "_stabilityPoolAddress",
          "type": "address"
        },
        {
          "internalType": "address",
          "name": "_gasPoolAddress",
          "type": "address"
        },
        {
          "internalType": "address",
          "name": "_collSurplusPoolAddress",
          "type": "address"
        },
        {
          "internalType": "address",
          "name": "_priceFeedAddress",
          "type": "address"
        },
        {
          "internalType": "address",
          "name": "_sortedTrovesAddress",
          "type": "address"
        },
        {
          "internalType": "address",
          "name": "_zusdTokenAddress",
          "type": "address"
        },
        {
          "internalType": "address",
          "name": "_zeroStakingAddress",
          "type": "address"
        }
      ],
      "name": "setAddresses",
      "outputs": [],
      "stateMutability": "nonpayable",
      "type": "function"
    },
    {
      "inputs": [
        {
          "internalType": "address",
          "name": "_massetManagerAddress",
          "type": "address"
        }
      ],
      "name": "setMassetManagerAddress",
      "outputs": [],
      "stateMutability": "nonpayable",
      "type": "function"
    },
    {
      "inputs": [
        {
          "internalType": "address",
          "name": "_owner",
          "type": "address"
        }
      ],
      "name": "setOwner",
      "outputs": [],
      "stateMutability": "nonpayable",
      "type": "function"
    },
    {
      "inputs": [],
      "name": "sortedTroves",
      "outputs": [
        {
          "internalType": "contract ISortedTroves",
          "name": "",
          "type": "address"
        }
      ],
      "stateMutability": "view",
      "type": "function"
    },
    {
      "inputs": [],
      "name": "troveManager",
      "outputs": [
        {
          "internalType": "contract ITroveManager",
          "name": "",
          "type": "address"
        }
      ],
      "stateMutability": "view",
      "type": "function"
    },
    {
      "inputs": [
        {
          "internalType": "uint256",
          "name": "_collWithdrawal",
          "type": "uint256"
        },
        {
          "internalType": "address",
          "name": "_upperHint",
          "type": "address"
        },
        {
          "internalType": "address",
          "name": "_lowerHint",
          "type": "address"
        }
      ],
      "name": "withdrawColl",
      "outputs": [],
      "stateMutability": "nonpayable",
      "type": "function"
    },
    {
      "inputs": [
        {
          "internalType": "uint256",
          "name": "_maxFeePercentage",
          "type": "uint256"
        },
        {
          "internalType": "uint256",
          "name": "_ZUSDAmount",
          "type": "uint256"
        },
        {
          "internalType": "address",
          "name": "_upperHint",
          "type": "address"
        },
        {
          "internalType": "address",
          "name": "_lowerHint",
          "type": "address"
        }
      ],
      "name": "withdrawZUSD",
      "outputs": [],
      "stateMutability": "nonpayable",
      "type": "function"
    },
    {
      "inputs": [
        {
          "internalType": "uint256",
          "name": "_maxFeePercentage",
          "type": "uint256"
        },
        {
          "internalType": "uint256",
          "name": "_ZUSDAmount",
          "type": "uint256"
        },
        {
          "internalType": "address",
          "name": "_upperHint",
          "type": "address"
        },
        {
          "internalType": "address",
          "name": "_lowerHint",
          "type": "address"
        }
      ],
      "name": "withdrawZusdAndConvertToDLLR",
      "outputs": [
        {
          "internalType": "uint256",
          "name": "",
          "type": "uint256"
        }
      ],
      "stateMutability": "nonpayable",
      "type": "function"
    },
    {
      "inputs": [],
      "name": "zeroStaking",
      "outputs": [
        {
          "internalType": "contract IZEROStaking",
          "name": "",
          "type": "address"
        }
      ],
      "stateMutability": "view",
      "type": "function"
    },
    {
      "inputs": [],
      "name": "zeroStakingAddress",
      "outputs": [
        {
          "internalType": "address",
          "name": "",
          "type": "address"
        }
      ],
      "stateMutability": "view",
      "type": "function"
    },
    {
      "inputs": [],
      "name": "zusdToken",
      "outputs": [
        {
          "internalType": "contract IZUSDToken",
          "name": "",
          "type": "address"
        }
      ],
      "stateMutability": "view",
      "type": "function"
    }
  ],
  "bytecode": "0x60806040523480156200001157600080fd5b5062000026336001600160e01b036200002c16565b62000150565b6001600160a01b0381166200005e5760405162461bcd60e51b815260040162000055906200010e565b60405180910390fd5b6001600160a01b0381166200007b6001600160e01b03620000d016565b6001600160a01b03167f8be0079c531659141344cd1fd0a4f28419497f9722a3daafe3b4186f6b6457e060405160405180910390a36000604051620000c090620000f1565b6040519081900390209190915550565b600080604051620000e190620000f1565b6040519081900390205492915050565b7035b2bc9737bbb730b136329737bbb732b960791b815260110190565b60208082526022908201527f4f776e61626c653a3a7365744f776e65723a20696e76616c6964206164647265604082015261737360f01b606082015260800190565b614a7880620001606000396000f3fe6080604052600436106102205760003560e01c80637778a3db1161012e578063a3f4df7e116100ab578063e9fc34611161006f578063e9fc346114610570578063ea9638bf14610585578063ec5472fd14610598578063ec9f7d46146105ad578063f92d3433146105c257610220565b8063a3f4df7e146104f1578063ae91875414610513578063afbc74b514610528578063b5c89bab14610548578063c6a6cf201461055d57610220565b8063887105d3116100f2578063887105d31461049f578063893d20e8146104b45780638d5c3dc1146104c95780639f070670146104dc578063a20baee6146103c357610220565b80637778a3db14610422578063795d26c3146104425780637e3eefdc146104575780637f7dde4a14610477578063860665b31461048c57610220565b8063485f190f116101bc5780636f0b0c1c116101805780636f0b0c1c146103ae57806372fe25aa146103c3578063734f622d146103d8578063741bef1a146103f8578063759b30341461040d57610220565b8063485f190f146103285780634ff814431461033b5780635530273c1461035b57806368647db11461037b5780636ea569601461038e57610220565b80630d43e8ad146102255780630e704d50146102505780630ff9a5121461026757806313af40351461027c5780631a7777171461029c5780631bf43555146102bc5780632771510a146102de5780633cc74225146102fe5780633d83908a14610313575b600080fd5b34801561023157600080fd5b5061023a6105d7565b6040516102479190613fe0565b60405180910390f35b34801561025c57600080fd5b506102656105e6565b005b34801561027357600080fd5b5061023a6105f0565b34801561028857600080fd5b50610265610297366004613bf3565b6105ff565b3480156102a857600080fd5b506102656102b7366004613e27565b61064c565b3480156102c857600080fd5b506102d1610663565b60405161024791906149eb565b3480156102ea57600080fd5b506102656102f9366004613bf3565b610670565b34801561030a57600080fd5b5061023a6106fe565b34801561031f57600080fd5b5061023a61070d565b610265610336366004613e78565b61071c565b34801561034757600080fd5b506102d1610356366004613dd1565b610886565b34801561036757600080fd5b50610265610376366004613e01565b610899565b610265610389366004613c2b565b6108af565b34801561039a57600080fd5b506102656103a9366004613e78565b6108c5565b3480156103ba57600080fd5b506102656108d6565b3480156103cf57600080fd5b506102d1610934565b3480156103e457600080fd5b506102656103f3366004613cad565b610940565b34801561040457600080fd5b5061023a610d04565b34801561041957600080fd5b506102d1610d13565b34801561042e57600080fd5b5061026561043d366004613db6565b610d20565b34801561044e57600080fd5b506102d1610e11565b34801561046357600080fd5b506102d1610472366004613e78565b610f30565b34801561048357600080fd5b5061023a6111ab565b61026561049a366004613e78565b6111ba565b3480156104ab57600080fd5b506102d16111c7565b3480156104c057600080fd5b5061023a611296565b6102656104d7366004613f27565b6112b5565b3480156104e857600080fd5b5061023a6112cd565b3480156104fd57600080fd5b506105066112dc565b60405161024791906140c8565b34801561051f57600080fd5b5061023a61130a565b34801561053457600080fd5b50610265610543366004613e01565b611319565b34801561055457600080fd5b5061023a61132b565b61026561056b366004613ec1565b61133a565b34801561057c57600080fd5b5061023a611351565b610265610593366004613c63565b611360565b3480156105a457600080fd5b5061023a61137a565b3480156105b957600080fd5b5061023a611389565b3480156105ce57600080fd5b506102d1611398565b600d546001600160a01b031681565b6105ee61141a565b565b6009546001600160a01b031681565b610607611296565b6001600160a01b0316336001600160a01b0316146106405760405162461bcd60e51b8152600401610637906145b1565b60405180910390fd5b61064981611809565b50565b61065d600080866000878787611894565b50505050565b6809c2007651b250000081565b610678611296565b6001600160a01b0316336001600160a01b0316146106a85760405162461bcd60e51b8152600401610637906145b1565b600c80546001600160a01b0319166001600160a01b0383161790556040517f6926b3375b54960080b7d8a184061f39a02e8c3bf64aa9df7e75359fdc00d814906106f3908390613fe0565b60405180910390a150565b6001546001600160a01b031681565b6004546001600160a01b031681565b600c546001600160a01b03166107445760405162461bcd60e51b8152600401610637906149bb565b6107518484848430611a4a565b600a54600c5460405163095ea7b360e01b81526001600160a01b039283169263095ea7b392610787929116908790600401614035565b602060405180830381600087803b1580156107a157600080fd5b505af11580156107b5573d6000803e3d6000fd5b505050506040513d601f19601f820116820180604052508101906107d99190613d9a565b6107f55760405162461bcd60e51b81526004016106379061463f565b600c54600a5460405163438b1b4b60e01b81526001600160a01b039283169263438b1b4b9261082d9291169087903390600401614079565b602060405180830381600087803b15801561084757600080fd5b505af115801561085b573d6000803e3d6000fd5b505050506040513d601f19601f8201168201806040525081019061087f9190613de9565b5050505050565b600061089182612075565b90505b919050565b6108aa338460008086866000612090565b505050565b6108c133600080600086866000612090565b5050565b61065d33600085600186868a612090565b60075460405163b32beb5b60e01b81526001600160a01b039091169063b32beb5b90610906903390600401613fe0565b600060405180830381600087803b15801561092057600080fd5b505af115801561065d573d6000803e3d6000fd5b670de0b6b3a764000081565b610948611296565b6001600160a01b0316336001600160a01b0316146109785760405162461bcd60e51b8152600401610637906145b1565b6109818c6120a0565b61098a8b6120a0565b6109938a6120a0565b61099c896120a0565b6109a5886120a0565b6109ae876120a0565b6109b7866120a0565b6109c0856120a0565b6109c9846120a0565b6109d2836120a0565b6109db826120a0565b6109e4816120a0565b600d80546001600160a01b03199081166001600160a01b038f8116919091179092556003805482168e84161790556004805482168d84161790556000805482168c84161790556001805482168b84161790556005805482168a8416179055600680548216898416179055600780548216888416179055600280548216878416179055600b80548216868416179055600a8054821685841617905560098054821692841692831790556008805490911690911790556040517f84861842e6a98dd759145eb5e7b48279d0f02ebeabc8a69e5196b2f4c5023db990610ac8908e90613fe0565b60405180910390a17f143219c9e69b09e07e095fcc889b43d8f46ca892bba65f08dc3a0050869a56788a604051610aff9190613fe0565b60405180910390a17f78f058b189175430c48dc02699e3a0031ea4ff781536dc2fab847de4babdd88289604051610b369190613fe0565b60405180910390a17f5ee0cae2f063ed938bb55046f6a932fb6ae792bf43624806bb90abe68a50be9b88604051610b6d9190613fe0565b60405180910390a17f82966d27eea39b038ee0fa30cd16532bb24f6e65d31cb58fb227aa5766cdcc7f87604051610ba49190613fe0565b60405180910390a17fcfb07d791fcafc032b35837b50eb84b74df518cf4cc287e8084f47630fa70fa086604051610bdb9190613fe0565b60405180910390a17fe67f36a6e961157d6eff83b91f3af5a62131ceb6f04954ef74f51c1c05e7f88d85604051610c129190613fe0565b60405180910390a17f8c537274438aa850a330284665d81a85dd38267d09e4050d416bfc94142db26484604051610c499190613fe0565b60405180910390a17f65f4cf077bc01e4742eb5ad98326f6e95b63548ea24b17f8d5e823111fe7880083604051610c809190613fe0565b60405180910390a17fcdf33850c44a1a874b5fefb51dae615ac6afebd581ef90d571f81b06541d8e9d82604051610cb79190613fe0565b60405180910390a17f7624075ed781e3aa34b0f492d70d1bb5a6fcde04534165e20f990d2e546be4dd81604051610cee9190613fe0565b60405180910390a1505050505050505050505050565b6002546001600160a01b031681565b6801158e460913d0000081565b600c546001600160a01b0316610d485760405162461bcd60e51b8152600401610637906149bb565b6004805460405163d66a255360e01b81526000926001600160a01b039092169163d66a255391610d7a91339101613fe0565b60206040518083038186803b158015610d9257600080fd5b505afa158015610da6573d6000803e3d6000fd5b505050506040513d601f19601f82011682018060405250810190610dca9190613de9565b600c54909150610e08906001600160a01b0316610df6836801158e460913d0000063ffffffff6120e516565b600a546001600160a01b031685612130565b506108c161141a565b60008054604080516272c7d360e71b8152905183926001600160a01b031691633963e980916004808301926020929190829003018186803b158015610e5557600080fd5b505afa158015610e69573d6000803e3d6000fd5b505050506040513d601f19601f82011682018060405250810190610e8d9190613de9565b90506000600160009054906101000a90046001600160a01b03166001600160a01b0316633963e9806040518163ffffffff1660e01b815260040160206040518083038186803b158015610edf57600080fd5b505afa158015610ef3573d6000803e3d6000fd5b505050506040513d601f19601f82011682018060405250810190610f179190613de9565b9050610f29828263ffffffff6123e116565b9250505090565b600a546040516370a0823160e01b8152600091309183916001600160a01b0316906370a0823190610f65908590600401613fe0565b60206040518083038186803b158015610f7d57600080fd5b505afa158015610f91573d6000803e3d6000fd5b505050506040513d601f19601f82011682018060405250810190610fb59190613de9565b9050610fc533838888888c612406565b610fd5818763ffffffff6123e116565b600a546040516370a0823160e01b81526001600160a01b03909116906370a0823190611005908690600401613fe0565b60206040518083038186803b15801561101d57600080fd5b505afa158015611031573d6000803e3d6000fd5b505050506040513d601f19601f820116820180604052508101906110559190613de9565b146110725760405162461bcd60e51b815260040161063790614245565b600a54600c5460405163095ea7b360e01b81526001600160a01b039283169263095ea7b3926110a8929116908a90600401614035565b602060405180830381600087803b1580156110c257600080fd5b505af11580156110d6573d6000803e3d6000fd5b505050506040513d601f19601f820116820180604052508101906110fa9190613d9a565b6111165760405162461bcd60e51b81526004016106379061463f565b600c54600a5460405163438b1b4b60e01b81526001600160a01b039283169263438b1b4b9261114e929116908a903390600401614079565b602060405180830381600087803b15801561116857600080fd5b505af115801561117c573d6000803e3d6000fd5b505050506040513d601f19601f820116820180604052508101906111a09190613de9565b979650505050505050565b6000546001600160a01b031681565b61065d8484848433611a4a565b6000805460408051630a7b61df60e11b8152905183926001600160a01b0316916314f6c3be916004808301926020929190829003018186803b15801561120c57600080fd5b505afa158015611220573d6000803e3d6000fd5b505050506040513d601f19601f820116820180604052508101906112449190613de9565b90506000600160009054906101000a90046001600160a01b03166001600160a01b03166314f6c3be6040518163ffffffff1660e01b815260040160206040518083038186803b158015610edf57600080fd5b6000806040516112a590613fc3565b6040519081900390205492915050565b6112c487878787878787611894565b50505050505050565b6003546001600160a01b031681565b60405180604001604052806012815260200171426f72726f7765724f7065726174696f6e7360701b81525081565b600b546001600160a01b031681565b6108aa33600085600086866000612090565b600c546001600160a01b031681565b6113493386868686868c612090565b505050505050565b600c546001600160a01b031690565b611368612418565b6108aa83600080600086866000612090565b6008546001600160a01b031681565b600a546001600160a01b031681565b6003546040805163f92d343360e01b815290516000926001600160a01b03169163f92d3433916004808301926020929190829003018186803b1580156113dd57600080fd5b505afa1580156113f1573d6000803e3d6000fd5b505050506040513d601f19601f820116820180604052508101906114159190613de9565b905090565b600454600054600a546001600160a01b0392831692918216911661143e8333612442565b60025460408051630fdb11cf60e01b815290516000926001600160a01b031691630fdb11cf91600480830192602092919082900301818787803b15801561148457600080fd5b505af1158015611498573d6000803e3d6000fd5b505050506040513d601f19601f820116820180604052508101906114bc9190613de9565b90506114c7816124e3565b604051630b07655760e01b81526001600160a01b03851690630b076557906114f3903390600401613fe0565b600060405180830381600087803b15801561150d57600080fd5b505af1158015611521573d6000803e3d6000fd5b50506040516309019aaf60e31b8152600092506001600160a01b038716915063480cd57890611554903390600401613fe0565b60206040518083038186803b15801561156c57600080fd5b505afa158015611580573d6000803e3d6000fd5b505050506040513d601f19601f820116820180604052508101906115a49190613de9565b90506000856001600160a01b031663d66a2553336040518263ffffffff1660e01b81526004016115d49190613fe0565b60206040518083038186803b1580156115ec57600080fd5b505afa158015611600573d6000803e3d6000fd5b505050506040513d601f19601f820116820180604052508101906116249190613de9565b90506116498433611644846801158e460913d0000063ffffffff6120e516565b612509565b600061165a836000846000886125a5565b905061166581612630565b604051631fc5750960e31b81526001600160a01b0388169063fe2ba84890611691903390600401613fe0565b600060405180830381600087803b1580156116ab57600080fd5b505af11580156116bf573d6000803e3d6000fd5b50506040516365e89c5760e11b81526001600160a01b038a16925063cbd138ae91506116ef903390600401613fe0565b600060405180830381600087803b15801561170957600080fd5b505af115801561171d573d6000803e3d6000fd5b50505050336001600160a01b0316600080516020614a2383398151915260008060006001604051611751949392919061409c565b60405180910390a261177d868633611778866801158e460913d0000063ffffffff6120e516565b6126d5565b6006546117a090879087906001600160a01b03166801158e460913d000006126d5565b6040516364a197f360e01b81526001600160a01b038716906364a197f3906117ce9033908790600401614035565b600060405180830381600087803b1580156117e857600080fd5b505af11580156117fc573d6000803e3d6000fd5b5050505050505050505050565b6001600160a01b03811661182f5760405162461bcd60e51b81526004016106379061427c565b806001600160a01b0316611841611296565b6001600160a01b03167f8be0079c531659141344cd1fd0a4f28419497f9722a3daafe3b4186f6b6457e060405160405180910390a3600060405161188490613fc3565b6040519081900390209190915550565b600c546001600160a01b03166118bc5760405162461bcd60e51b8152600401610637906149bb565b831580156118ca5750600085115b156118f057600c54600a546118ee916001600160a01b039081169188911684612130565b505b6119003387878787878d3061278f565b83801561190d5750600085115b156112c457600a54600c5460405163095ea7b360e01b81526001600160a01b039283169263095ea7b392611948929116908990600401614035565b602060405180830381600087803b15801561196257600080fd5b505af1158015611976573d6000803e3d6000fd5b505050506040513d601f19601f8201168201806040525081019061199a9190613d9a565b6119b65760405162461bcd60e51b81526004016106379061463f565b600c54600a5460405163438b1b4b60e01b81526001600160a01b039283169263438b1b4b926119ee9291169089903390600401614079565b602060405180830381600087803b158015611a0857600080fd5b505af1158015611a1c573d6000803e3d6000fd5b505050506040513d601f19601f82011682018060405250810190611a409190613de9565b5050505050505050565b611a52613af2565b50604080516060810182526004546001600160a01b03908116825260005481166020830152600a541691810191909152611a8a613b12565b600260009054906101000a90046001600160a01b03166001600160a01b0316630fdb11cf6040518163ffffffff1660e01b8152600401602060405180830381600087803b158015611ada57600080fd5b505af1158015611aee573d6000803e3d6000fd5b505050506040513d601f19601f82011682018060405250810190611b129190613de9565b808252600090611b2190612d73565b9050611b2d8882612e0e565b8251611b399033612efa565b6040820187905280611b7a57611b5983600001518460400151898b612f9c565b602083018190526040830151611b749163ffffffff6123e116565b60408301525b611b878260400151613155565b611b948260400151612075565b60608301819052611ba157fe5b611bb4348360600151846000015161317e565b60808301526060820151611bc99034906131bd565b60a08301528015611be657611be182608001516131f2565b611c19565b611bf38260800151613297565b6000611c0c3460018560600151600187600001516125a5565b9050611c1781612630565b505b8251604051635d6b480f60e01b81526001600160a01b0390911690635d6b480f90611c4b903390600190600401614035565b600060405180830381600087803b158015611c6557600080fd5b505af1158015611c79573d6000803e3d6000fd5b505084516040516372423c1760e01b81526001600160a01b0390911692506372423c179150611cae9033903490600401614035565b602060405180830381600087803b158015611cc857600080fd5b505af1158015611cdc573d6000803e3d6000fd5b505050506040513d601f19601f82011682018060405250810190611d009190613de9565b5082516060830151604051639976cf4560e01b81526001600160a01b0390921691639976cf4591611d3691339190600401614035565b602060405180830381600087803b158015611d5057600080fd5b505af1158015611d64573d6000803e3d6000fd5b505050506040513d601f19601f82011682018060405250810190611d889190613de9565b5082516040516382fe3eb960e01b81526001600160a01b03909116906382fe3eb990611db8903390600401613fe0565b600060405180830381600087803b158015611dd257600080fd5b505af1158015611de6573d6000803e3d6000fd5b50508451604051630c7940bd60e11b81526001600160a01b0390911692506318f2817a9150611e19903390600401613fe0565b602060405180830381600087803b158015611e3357600080fd5b505af1158015611e47573d6000803e3d6000fd5b505050506040513d601f19601f82011682018060405250810190611e6b9190613de9565b60c0830152600b5460a08301516040516346f7cf8760e01b81526001600160a01b03909216916346f7cf8791611eaa913391908b908b9060040161404e565b600060405180830381600087803b158015611ec457600080fd5b505af1158015611ed8573d6000803e3d6000fd5b505084516040516315d549f160e01b81526001600160a01b0390911692506315d549f19150611f0b903390600401613fe0565b602060405180830381600087803b158015611f2557600080fd5b505af1158015611f39573d6000803e3d6000fd5b505050506040513d601f19601f82011682018060405250810190611f5d9190613de9565b60e0830181905260405133917f59cfd0cd754bc5748b6770e94a4ffa5f678d885cb899dcfadc5734edb97c67ab91611f9591906149eb565b60405180910390a2611fab83602001513461333c565b611fc483602001518460400151868a86604001516133b8565b60208301516040840151600654611ff09291906001600160a01b03166801158e460913d00000806133b8565b606082015160c08301516040513392600080516020614a238339815191529261201e9234919060009061409c565b60405180910390a2336001600160a01b03167f71457d8a5ab7e4561ed49d05338674b73ac3b83b0b315f165f5b12bcc0022741836020015160405161206391906149eb565b60405180910390a25050505050505050565b6000610891826801158e460913d0000063ffffffff6123e116565b6112c4878787878787873361278f565b6001600160a01b0381166120c65760405162461bcd60e51b8152600401610637906143be565b803b806108c15760405162461bcd60e51b815260040161063790614762565b600061212783836040518060400160405280601e81526020017f536166654d6174683a207375627472616374696f6e206f766572666c6f77000081525061347d565b90505b92915050565b600080856001600160a01b03166321df0da76040518163ffffffff1660e01b815260040160206040518083038186803b15801561216c57600080fd5b505afa158015612180573d6000803e3d6000fd5b505050506040513d601f19601f820116820180604052508101906121a49190613c0f565b90506000816001600160a01b03166370a08231306040518263ffffffff1660e01b81526004016121d49190613fe0565b60206040518083038186803b1580156121ec57600080fd5b505afa158015612200573d6000803e3d6000fd5b505050506040513d601f19601f820116820180604052508101906122249190613de9565b9050306001600160a01b03831663605629d633838a893561224b60408c0160208d01613f9f565b8b604001358c606001356040518863ffffffff1660e01b81526004016122779796959493929190613ff4565b600060405180830381600087803b15801561229157600080fd5b505af11580156122a5573d6000803e3d6000fd5b505050508661233683856001600160a01b03166370a08231856040518263ffffffff1660e01b81526004016122da9190613fe0565b60206040518083038186803b1580156122f257600080fd5b505afa158015612306573d6000803e3d6000fd5b505050506040513d601f19601f8201168201806040525081019061232a9190613de9565b9063ffffffff6120e516565b146123535760405162461bcd60e51b8152600401610637906141c5565b60405163fb2c922360e01b81526001600160a01b0389169063fb2c9223906123839089908b903390600401614079565b602060405180830381600087803b15801561239d57600080fd5b505af11580156123b1573d6000803e3d6000fd5b505050506040513d601f19601f820116820180604052508101906123d59190613de9565b98975050505050505050565b6000828201838110156121275760405162461bcd60e51b81526004016106379061420e565b6113498660008660018787878c61278f565b6005546001600160a01b031633146105ee5760405162461bcd60e51b815260040161063790614800565b6040516321e3780160e01b81526000906001600160a01b038416906321e3780190612471908590600401613fe0565b60206040518083038186803b15801561248957600080fd5b505afa15801561249d573d6000803e3d6000fd5b505050506040513d601f19601f820116820180604052508101906124c19190613de9565b9050806001146108aa5760405162461bcd60e51b815260040161063790614563565b6124ec81612d73565b156106495760405162461bcd60e51b81526004016106379061430e565b6040516370a0823160e01b815281906001600160a01b038516906370a0823190612537908690600401613fe0565b60206040518083038186803b15801561254f57600080fd5b505afa158015612563573d6000803e3d6000fd5b505050506040513d601f19601f820116820180604052508101906125879190613de9565b10156108aa5760405162461bcd60e51b81526004016106379061411b565b6000806125b06111c7565b905060006125bc610e11565b9050866125d8576125d3828963ffffffff6120e516565b6125e8565b6125e8828963ffffffff6123e116565b915084612604576125ff818763ffffffff6120e516565b612614565b612614818763ffffffff6123e116565b9050600061262383838761317e565b9998505050505050505050565b600360009054906101000a90046001600160a01b03166001600160a01b0316635733d58f6040518163ffffffff1660e01b815260040160206040518083038186803b15801561267e57600080fd5b505afa158015612692573d6000803e3d6000fd5b505050506040513d601f19601f820116820180604052508101906126b69190613de9565b8110156106495760405162461bcd60e51b8152600401610637906144f4565b60405163121cbc4d60e11b81526001600160a01b03851690632439789a906127019084906004016149eb565b600060405180830381600087803b15801561271b57600080fd5b505af115801561272f573d6000803e3d6000fd5b5050604051632770a7eb60e21b81526001600160a01b0386169250639dc29fac91506127619085908590600401614035565b600060405180830381600087803b15801561277b57600080fd5b505af1158015611a40573d6000803e3d6000fd5b612797613af2565b50604080516060810182526004546001600160a01b03908116825260005481166020830152600a5416918101919091526127cf613b57565b600260009054906101000a90046001600160a01b03166001600160a01b0316630fdb11cf6040518163ffffffff1660e01b8152600401602060405180830381600087803b15801561281f57600080fd5b505af1158015612833573d6000803e3d6000fd5b505050506040513d601f19601f820116820180604052508101906128579190613de9565b80825261286390612d73565b15156101c082015286156128895761288084826101c00151612e0e565b612889886134a9565b612892896134c9565b61289c89896134f0565b81516128a8908b612442565b336001600160a01b038b1614806128de57506005546001600160a01b0316331480156128d45750600034115b80156128de575087155b6128e457fe5b8151604051630b07655760e01b81526001600160a01b0390911690630b07655790612913908d90600401613fe0565b600060405180830381600087803b15801561292d57600080fd5b505af1158015612941573d6000803e3d6000fd5b5050505061294f348a613523565b151560608301526020820152604081018890528680156129725750806101c00151155b156129ad5761298b826000015183604001518a87612f9c565b610120820181905260408201516129a79163ffffffff6123e116565b60408201525b815160405163d66a255360e01b81526001600160a01b039091169063d66a2553906129dc908d90600401613fe0565b60206040518083038186803b1580156129f457600080fd5b505afa158015612a08573d6000803e3d6000fd5b505050506040513d601f19601f82011682018060405250810190612a2c9190613de9565b608082015281516040516309019aaf60e31b81526001600160a01b039091169063480cd57890612a60908d90600401613fe0565b60206040518083038186803b158015612a7857600080fd5b505afa158015612a8c573d6000803e3d6000fd5b505050506040513d601f19601f82011682018060405250810190612ab09190613de9565b60a0820181905260808201518251612ac992919061317e565b8160c0018181525050612af98160a0015182608001518360200151846060015185604001518c8760000151613542565b60e082015260a0810151891115612b0c57fe5b612b1d816101c001518a8984613575565b86158015612b2b5750600088115b15612b7257612b4d612b48826040015161232a84608001516135e9565b613155565b612b5f81608001518260400151613604565b612b7282604001518b8360400151612509565b612b9082600001518b8360200151846060015185604001518c61363c565b6101408301526101608201528151604051630c7940bd60e11b81526001600160a01b03909116906318f2817a90612bcb908d90600401613fe0565b602060405180830381600087803b158015612be557600080fd5b505af1158015612bf9573d6000803e3d6000fd5b505050506040513d601f19601f82011682018060405250810190612c1d9190613de9565b81610180018181525050612c498160a0015182608001518360200151846060015185604001518c61386a565b6101a08201819052600b5460405163015f109360e51b81526001600160a01b0390911691632be2126091612c85918e918b908b9060040161404e565b600060405180830381600087803b158015612c9f57600080fd5b505af1158015612cb3573d6000803e3d6000fd5b50505050896001600160a01b0316600080516020614a238339815191528261014001518361016001518461018001516002604051612cf4949392919061409c565b60405180910390a2336001600160a01b03167f71457d8a5ab7e4561ed49d05338674b73ac3b83b0b315f165f5b12bcc0022741826101200151604051612d3a91906149eb565b60405180910390a2612d678260200151836040015133846020015185606001518d8d88604001518b61389b565b50505050505050505050565b600080612d7f8361393f565b9050600360009054906101000a90046001600160a01b03166001600160a01b0316635733d58f6040518163ffffffff1660e01b815260040160206040518083038186803b158015612dcf57600080fd5b505afa158015612de3573d6000803e3d6000fd5b505050506040513d601f19601f82011682018060405250810190612e079190613de9565b1192915050565b8015612e4157670de0b6b3a7640000821115612e3c5760405162461bcd60e51b8152600401610637906143f5565b6108c1565b600360009054906101000a90046001600160a01b03166001600160a01b031663f92d34336040518163ffffffff1660e01b815260040160206040518083038186803b158015612e8f57600080fd5b505afa158015612ea3573d6000803e3d6000fd5b505050506040513d601f19601f82011682018060405250810190612ec79190613de9565b8210158015612ede5750670de0b6b3a76400008211155b6108c15760405162461bcd60e51b815260040161063790614849565b6040516321e3780160e01b81526000906001600160a01b038416906321e3780190612f29908590600401613fe0565b60206040518083038186803b158015612f4157600080fd5b505afa158015612f55573d6000803e3d6000fd5b505050506040513d601f19601f82011682018060405250810190612f799190613de9565b905080600114156108aa5760405162461bcd60e51b815260040161063790614899565b6000846001600160a01b0316635dba4c4a6040518163ffffffff1660e01b8152600401600060405180830381600087803b158015612fd957600080fd5b505af1158015612fed573d6000803e3d6000fd5b5050604051630631203b60e41b8152600092506001600160a01b038816915063631203b0906130209087906004016149eb565b60206040518083038186803b15801561303857600080fd5b505afa15801561304c573d6000803e3d6000fd5b505050506040513d601f19601f820116820180604052508101906130709190613de9565b905061307d81858561396b565b600d546040516340c10f1960e01b81526001600160a01b03878116926340c10f19926130b192909116908590600401614035565b600060405180830381600087803b1580156130cb57600080fd5b505af11580156130df573d6000803e3d6000fd5b50505050600d60009054906101000a90046001600160a01b03166001600160a01b031663bb57ad206040518163ffffffff1660e01b8152600401600060405180830381600087803b15801561313357600080fd5b505af1158015613147573d6000803e3d6000fd5b509298975050505050505050565b6809c2007651b25000008110156106495760405162461bcd60e51b815260040161063790614705565b600082156131b15760006131a88461319c878663ffffffff6139ab16565b9063ffffffff6139e516565b91506131b69050565b506000195b9392505050565b600081156131e9576131e28261319c8568056bc75e2d6310000063ffffffff6139ab16565b905061212a565b5060001961212a565b600360009054906101000a90046001600160a01b03166001600160a01b0316635733d58f6040518163ffffffff1660e01b815260040160206040518083038186803b15801561324057600080fd5b505afa158015613254573d6000803e3d6000fd5b505050506040513d601f19601f820116820180604052508101906132789190613de9565b8110156106495760405162461bcd60e51b815260040161063790614367565b600360009054906101000a90046001600160a01b03166001600160a01b031663794e57246040518163ffffffff1660e01b815260040160206040518083038186803b1580156132e557600080fd5b505afa1580156132f9573d6000803e3d6000fd5b505050506040513d601f19601f8201168201806040525081019061331d9190613de9565b8110156106495760405162461bcd60e51b815260040161063790614696565b6000826001600160a01b03168260405161335590613fc0565b60006040518083038185875af1925050503d8060008114613392576040519150601f19603f3d011682016040523d82523d6000602084013e613397565b606091505b50509050806108aa5760405162461bcd60e51b815260040161063790614178565b60405163f2e91d7160e01b81526001600160a01b0386169063f2e91d71906133e49084906004016149eb565b600060405180830381600087803b1580156133fe57600080fd5b505af1158015613412573d6000803e3d6000fd5b50506040516340c10f1960e01b81526001600160a01b03871692506340c10f1991506134449086908690600401614035565b600060405180830381600087803b15801561345e57600080fd5b505af1158015613472573d6000803e3d6000fd5b505050505050505050565b600081848411156134a15760405162461bcd60e51b815260040161063791906140c8565b505050900390565b600081116106495760405162461bcd60e51b8152600401610637906148d0565b3415806134d4575080155b6106495760405162461bcd60e51b8152600401610637906142be565b341515806134fd57508115155b8061350757508015155b6108c15760405162461bcd60e51b815260040161063790614447565b60008083156135375750829050600161353b565b8291505b9250929050565b60008060006135558a8a8a8a8a8a613a27565b91509150600061356683838761317e565b9b9a5050505050505050505050565b83156135ae5761358483613a7d565b81156135a9576135978160e001516131f2565b6135a98160e001518260c00151613a9b565b61065d565b6135bb8160e00151613297565b6135d88160200151826060015183604001518585600001516125a5565b610100820181905261065d90612630565b6000610891826801158e460913d0000063ffffffff6120e516565b61361d826801158e460913d0000063ffffffff6120e516565b8111156108c15760405162461bcd60e51b815260040161063790614797565b6000806000856136cb5760405163d3d6f84360e01b81526001600160a01b038a169063d3d6f84390613674908b908b90600401614035565b602060405180830381600087803b15801561368e57600080fd5b505af11580156136a2573d6000803e3d6000fd5b505050506040513d601f19601f820116820180604052508101906136c69190613de9565b61374b565b6040516372423c1760e01b81526001600160a01b038a16906372423c17906136f9908b908b90600401614035565b602060405180830381600087803b15801561371357600080fd5b505af1158015613727573d6000803e3d6000fd5b505050506040513d601f19601f8201168201806040525081019061374b9190613de9565b90506000846137d957604051630930874960e11b81526001600160a01b038b16906312610e9290613782908c908a90600401614035565b602060405180830381600087803b15801561379c57600080fd5b505af11580156137b0573d6000803e3d6000fd5b505050506040513d601f19601f820116820180604052508101906137d49190613de9565b613859565b604051639976cf4560e01b81526001600160a01b038b1690639976cf4590613807908c908a90600401614035565b602060405180830381600087803b15801561382157600080fd5b505af1158015613835573d6000803e3d6000fd5b505050506040513d601f19601f820116820180604052508101906138599190613de9565b919a91995090975050505050505050565b600080600061387d898989898989613a27565b91509150600061388d83836131bd565b9a9950505050505050505050565b82156138b3576138ae89898387866133b8565b6138bf565b6138bf898989876126d5565b84156138d4576138cf898761333c565b613472565b6040516364a197f360e01b81526001600160a01b038a16906364a197f390613902908a908a90600401614035565b600060405180830381600087803b15801561391c57600080fd5b505af1158015613930573d6000803e3d6000fd5b50505050505050505050505050565b60008061394a6111c7565b90506000613956610e11565b905061396382828661317e565b949350505050565b60006139898361319c86670de0b6b3a764000063ffffffff6139ab16565b90508181111561065d5760405162461bcd60e51b815260040161063790614984565b6000826139ba5750600061212a565b828202828482816139c757fe5b04146121275760405162461bcd60e51b8152600401610637906144b3565b600061212783836040518060400160405280601a81526020017f536166654d6174683a206469766973696f6e206279207a65726f000000000000815250613abb565b600080878786613a4657613a418a8963ffffffff6120e516565b613a56565b613a568a8963ffffffff6123e116565b915084613a6d576137d4898763ffffffff6120e516565b613859898763ffffffff6123e116565b80156106495760405162461bcd60e51b8152600401610637906145e2565b808210156108c15760405162461bcd60e51b815260040161063790614927565b60008183613adc5760405162461bcd60e51b815260040161063791906140c8565b506000838581613ae857fe5b0495945050505050565b604080516060810182526000808252602082018190529181019190915290565b60405180610100016040528060008152602001600081526020016000815260200160008152602001600081526020016000815260200160008152602001600081525090565b604051806101e00160405280600081526020016000815260200160008152602001600015158152602001600081526020016000815260200160008152602001600081526020016000815260200160008152602001600081526020016000815260200160008152602001600081526020016000151581525090565b803561212a816149ff565b600060808284031215613bed578081fd5b50919050565b600060208284031215613c04578081fd5b8135612127816149ff565b600060208284031215613c20578081fd5b8151612127816149ff565b60008060408385031215613c3d578081fd5b8235613c48816149ff565b91506020830135613c58816149ff565b809150509250929050565b600080600060608486031215613c77578081fd5b8335613c82816149ff565b92506020840135613c92816149ff565b91506040840135613ca2816149ff565b809150509250925092565b6000806000806000806000806000806000806101808d8f031215613ccf578788fd5b8c35613cda816149ff565b9b5060208d0135613cea816149ff565b9a5060408d0135613cfa816149ff565b995060608d0135613d0a816149ff565b985060808d0135613d1a816149ff565b975060a08d0135613d2a816149ff565b9650613d398e60c08f01613bd1565b9550613d488e60e08f01613bd1565b9450613d588e6101008f01613bd1565b9350613d688e6101208f01613bd1565b9250613d788e6101408f01613bd1565b9150613d888e6101608f01613bd1565b90509295989b509295989b509295989b565b600060208284031215613dab578081fd5b815161212781614a14565b600060808284031215613dc7578081fd5b6121278383613bdc565b600060208284031215613de2578081fd5b5035919050565b600060208284031215613dfa578081fd5b5051919050565b600080600060608486031215613e15578283fd5b833592506020840135613c92816149ff565b60008060008060e08587031215613e3c578384fd5b843593506020850135613e4e816149ff565b92506040850135613e5e816149ff565b9150613e6d8660608701613bdc565b905092959194509250565b60008060008060808587031215613e8d578384fd5b84359350602085013592506040850135613ea6816149ff565b91506060850135613eb6816149ff565b939692955090935050565b60008060008060008060c08789031215613ed9578384fd5b8635955060208701359450604087013593506060870135613ef981614a14565b92506080870135613f09816149ff565b915060a0870135613f19816149ff565b809150509295509295509295565b6000806000806000806000610140888a031215613f42578081fd5b8735965060208801359550604088013594506060880135613f6281614a14565b93506080880135613f72816149ff565b925060a0880135613f82816149ff565b9150613f918960c08a01613bdc565b905092959891949750929550565b600060208284031215613fb0578081fd5b813560ff81168114612127578182fd5b90565b7035b2bc9737bbb730b136329737bbb732b960791b815260110190565b6001600160a01b0391909116815260200190565b6001600160a01b0397881681529590961660208601526040850193909352606084019190915260ff16608083015260a082015260c081019190915260e00190565b6001600160a01b03929092168252602082015260400190565b6001600160a01b03948516815260208101939093529083166040830152909116606082015260800190565b6001600160a01b0393841681526020810192909252909116604082015260600190565b8481526020810184905260408101839052608081016140ba836149f4565b606083015295945050505050565b6000602080835283518082850152825b818110156140f4578581018301518582016040015282016140d8565b818111156141055783604083870101525b50601f01601f1916929092016040019392505050565b6020808252603d908201527f426f72726f7765724f70733a2043616c6c657220646f65736e7420686176652060408201527f656e6f756768205a55534420746f206d616b652072657061796d656e74000000606082015260800190565b6020808252602d908201527f426f72726f7765724f70733a2053656e64696e672045544820746f204163746960408201526c1d99541bdbdb0819985a5b1959609a1b606082015260800190565b60208082526029908201527f444c4c52207472616e7366657272656420616d6f756e742076616c69646174696040820152681bdb8819985a5b195960ba1b606082015260800190565b6020808252601b908201527f536166654d6174683a206164646974696f6e206f766572666c6f770000000000604082015260600190565b6020808252601e908201527f5a555344206973206e6f7420626f72726f77656420636f72726563746c790000604082015260600190565b60208082526022908201527f4f776e61626c653a3a7365744f776e65723a20696e76616c6964206164647265604082015261737360f01b606082015260800190565b60208082526030908201527f426f72726f7765724f7065726174696f6e733a2043616e6e6f7420776974686460408201526f1c985dc8185b99081859190818dbdb1b60821b606082015260800190565b60208082526039908201527f426f72726f7765724f70733a204f7065726174696f6e206e6f74207065726d696040820152787474656420647572696e67205265636f76657279204d6f646560381b606082015260800190565b60208082526037908201527f426f72726f7765724f70733a204f7065726174696f6e206d757374206c65617660408201527632903a3937bb32903bb4ba341024a1a9101f1e9021a1a960491b606082015260800190565b6020808252601e908201527f4163636f756e742063616e6e6f74206265207a65726f20616464726573730000604082015260600190565b60208082526032908201527f4d6178206665652070657263656e74616765206d757374206c657373207468616040820152716e206f7220657175616c20746f203130302560701b606082015260800190565b60208082526046908201527f426f72726f7765724f70733a205468657265206d75737420626520656974686560408201527f72206120636f6c6c61746572616c206368616e6765206f7220612064656274206060820152656368616e676560d01b608082015260a00190565b60208082526021908201527f536166654d6174683a206d756c7469706c69636174696f6e206f766572666c6f6040820152607760f81b606082015260800190565b60208082526049908201527f426f72726f7765724f70733a20416e206f7065726174696f6e2074686174207760408201527f6f756c6420726573756c7420696e20544352203c20434352206973206e6f74206060820152681c195c9b5a5d1d195960ba1b608082015260a00190565b6020808252602e908201527f426f72726f7765724f70733a2054726f766520646f6573206e6f74206578697360408201526d1d081bdc881a5cc818db1bdcd95960921b606082015260800190565b60208082526017908201527613dddb98589b194e8e881858d8d95cdcc819195b9a5959604a1b604082015260600190565b6020808252603e908201527f426f72726f7765724f70733a20436f6c6c61746572616c20776974686472617760408201527f616c206e6f74207065726d6974746564205265636f76657279204d6f64650000606082015260800190565b60208082526037908201527f4661696c656420746f20617070726f7665205a55534420616d6f756e7420666f60408201527672204d796e74206d417373657420746f2072656465656d60481b606082015260800190565b60208082526049908201527f426f72726f7765724f70733a20416e206f7065726174696f6e2074686174207760408201527f6f756c6420726573756c7420696e20494352203c204d4352206973206e6f74206060820152681c195c9b5a5d1d195960ba1b608082015260a00190565b6020808252603a908201527f426f72726f7765724f70733a2054726f76652773206e65742064656274206d7560408201527f73742062652067726561746572207468616e206d696e696d756d000000000000606082015260800190565b6020808252818101527f4163636f756e7420636f64652073697a652063616e6e6f74206265207a65726f604082015260600190565b60208082526043908201527f426f72726f7765724f70733a20416d6f756e7420726570616964206d7573742060408201527f6e6f74206265206c6172676572207468616e207468652054726f76652773206460608201526219589d60ea1b608082015260a00190565b60208082526029908201527f426f72726f7765724f70733a2043616c6c6572206973206e6f742053746162696040820152681b1a5d1e48141bdbdb60ba1b606082015260800190565b60208082526030908201527f4d6178206665652070657263656e74616765206d75737420626520626574776560408201526f656e20302e352520616e64203130302560801b606082015260800190565b6020808252601c908201527f426f72726f7765724f70733a2054726f76652069732061637469766500000000604082015260600190565b60208082526037908201527f426f72726f7765724f70733a204465627420696e637265617365207265717569604082015276726573206e6f6e2d7a65726f20646562744368616e676560481b606082015260800190565b6020808252603e908201527f426f72726f7765724f70733a2043616e6e6f7420646563726561736520796f7560408201527f722054726f766527732049435220696e205265636f76657279204d6f64650000606082015260800190565b6020808252601d908201527f4665652065786365656465642070726f7669646564206d6178696d756d000000604082015260600190565b60208082526016908201527513585cdcd95d081859191c995cdcc81b9bdd081cd95d60521b604082015260600190565b90815260200190565b806003811061089457fe5b6001600160a01b038116811461064957600080fd5b801515811461064957600080fdfec3770d654ed33aeea6bf11ac8ef05d02a6a04ed4686dd2f624d853bbec43cc8ba26469706673582212203cec7d4c5337979a752ab4f1b8da0cc607bc2508b28986739fefcae556b2e90264736f6c634300060b0033",
  "linkReferences": {},
  "deployedLinkReferences": {}
}