{
  "abi": [
    {
      "anonymous": false,
      "inputs": [
        {
          "indexed": false,
          "internalType": "address",
          "name": "admin",
          "type": "address"
        }
      ],
      "name": "AdminAdded",
      "type": "event"
    },
    {
      "anonymous": false,
      "inputs": [
        {
          "indexed": false,
          "internalType": "address",
          "name": "admin",
          "type": "address"
        }
      ],
      "name": "AdminRemoved",
      "type": "event"
    },
    {
      "anonymous": false,
      "inputs": [
        {
          "indexed": true,
          "internalType": "address",
          "name": "previousOwner",
          "type": "address"
        },
        {
          "indexed": true,
          "internalType": "address",
          "name": "newOwner",
          "type": "address"
        }
      ],
      "name": "OwnershipTransferred",
      "type": "event"
    },
    {
      "constant": false,
      "inputs": [
        {
          "internalType": "address",
          "name": "_admin",
          "type": "address"
        }
      ],
      "name": "addAdmin",
      "outputs": [],
      "payable": false,
      "stateMutability": "nonpayable",
      "type": "function"
    },
    {
      "constant": true,
      "inputs": [
        {
          "internalType": "address",
          "name": "",
          "type": "address"
        }
      ],
      "name": "admins",
      "outputs": [
        {
          "internalType": "bool",
          "name": "",
          "type": "bool"
        }
      ],
      "payable": false,
      "stateMutability": "view",
      "type": "function"
    },
    {
      "constant": true,
      "inputs": [],
      "name": "isOwner",
      "outputs": [
        {
          "internalType": "bool",
          "name": "",
          "type": "bool"
        }
      ],
      "payable": false,
      "stateMutability": "view",
      "type": "function"
    },
    {
      "constant": true,
      "inputs": [],
      "name": "owner",
      "outputs": [
        {
          "internalType": "address",
          "name": "",
          "type": "address"
        }
      ],
      "payable": false,
      "stateMutability": "view",
      "type": "function"
    },
    {
      "constant": false,
      "inputs": [
        {
          "internalType": "address",
          "name": "_admin",
          "type": "address"
        }
      ],
      "name": "removeAdmin",
      "outputs": [],
      "payable": false,
      "stateMutability": "nonpayable",
      "type": "function"
    },
    {
      "constant": false,
      "inputs": [
        {
          "internalType": "address",
          "name": "newOwner",
          "type": "address"
        }
      ],
      "name": "transferOwnership",
      "outputs": [],
      "payable": false,
      "stateMutability": "nonpayable",
      "type": "function"
    }
  ],
  "bytecode": {
    "object": "0x608060405260006100176001600160e01b0361006616565b600080546001600160a01b0319166001600160a01b0383169081178255604051929350917f8be0079c531659141344cd1fd0a4f28419497f9722a3daafe3b4186f6b6457e0908290a35061006a565b3390565b610420806100796000396000f3fe608060405234801561001057600080fd5b50600436106100625760003560e01c80631785f53c14610067578063429b62e51461008f57806370480275146100c95780638da5cb5b146100ef5780638f32d59b14610113578063f2fde38b1461011b575b600080fd5b61008d6004803603602081101561007d57600080fd5b50356001600160a01b0316610141565b005b6100b5600480360360208110156100a557600080fd5b50356001600160a01b03166101e1565b604080519115158252519081900360200190f35b61008d600480360360208110156100df57600080fd5b50356001600160a01b03166101f6565b6100f761029a565b604080516001600160a01b039092168252519081900360200190f35b6100b56102a9565b61008d6004803603602081101561013157600080fd5b50356001600160a01b03166102cd565b6101496102a9565b610189576040805162461bcd60e51b815260206004820152600c60248201526b1d5b985d5d1a1bdc9a5e995960a21b604482015290519081900360640190fd5b6001600160a01b038116600081815260016020908152604091829020805460ff19169055815192835290517fa3b62bc36326052d97ea62d63c3d60308ed4c3ea8ac079dd8499f1e9c4f80c0f9281900390910190a150565b60016020526000908152604090205460ff1681565b6101fe6102a9565b61023e576040805162461bcd60e51b815260206004820152600c60248201526b1d5b985d5d1a1bdc9a5e995960a21b604482015290519081900360640190fd5b6001600160a01b038116600081815260016020818152604092839020805460ff1916909217909155815192835290517f44d6d25963f097ad14f29f06854a01f575648a1ef82f30e562ccd3889717e3399281900390910190a150565b6000546001600160a01b031690565b600080546001600160a01b03166102be610321565b6001600160a01b031614905090565b6102d56102a9565b610315576040805162461bcd60e51b815260206004820152600c60248201526b1d5b985d5d1a1bdc9a5e995960a21b604482015290519081900360640190fd5b61031e81610325565b50565b3390565b6001600160a01b03811661036a5760405162461bcd60e51b81526004018080602001828103825260268152602001806103c66026913960400191505060405180910390fd5b600080546040516001600160a01b03808516939216917f8be0079c531659141344cd1fd0a4f28419497f9722a3daafe3b4186f6b6457e091a3600080546001600160a01b0319166001600160a01b039290921691909117905556fe4f776e61626c653a206e6577206f776e657220697320746865207a65726f2061646472657373a265627a7a7231582095f77015ceae7e37937f03ae29e1ee80042ae60e2abc52a35e4a431e30d2a7f664736f6c63430005110032",
    "linkReferences": {}
  },
  "methodIdentifiers": {
    "addAdmin(address)": "70480275",
    "admins(address)": "429b62e5",
    "isOwner()": "8f32d59b",
    "owner()": "8da5cb5b",
    "removeAdmin(address)": "1785f53c",
    "transferOwnership(address)": "f2fde38b"
  },
  "id": 225
}