{
  "abi": [
    {
      "anonymous": false,
      "inputs": [
        {
          "indexed": true,
          "internalType": "address",
          "name": "caller",
          "type": "address"
        },
        {
          "indexed": false,
          "internalType": "address",
          "name": "loanPoolToken",
          "type": "address"
        },
        {
          "indexed": false,
          "internalType": "address",
          "name": "receiver",
          "type": "address"
        },
        {
          "indexed": false,
          "internalType": "uint32",
          "name": "maxCheckpoints",
          "type": "uint32"
        }
      ],
      "name": "DividendsCollected",
      "type": "event"
    },
    {
      "anonymous": false,
      "inputs": [
        {
          "indexed": true,
          "internalType": "address",
          "name": "caller",
          "type": "address"
        },
        {
          "indexed": false,
          "internalType": "address",
          "name": "newStakingContract",
          "type": "address"
        }
      ],
      "name": "MigratedToNewStakingContract",
      "type": "event"
    },
    {
      "anonymous": false,
      "inputs": [
        {
          "indexed": true,
          "internalType": "address",
          "name": "previousOwner",
          "type": "address"
        },
        {
          "indexed": true,
          "internalType": "address",
          "name": "newOwner",
          "type": "address"
        }
      ],
      "name": "OwnershipTransferred",
      "type": "event"
    },
    {
      "anonymous": false,
      "inputs": [
        {
          "indexed": true,
          "internalType": "address",
          "name": "newOwner",
          "type": "address"
        },
        {
          "indexed": true,
          "internalType": "address",
          "name": "oldOwner",
          "type": "address"
        }
      ],
      "name": "TokenOwnerChanged",
      "type": "event"
    },
    {
      "anonymous": false,
      "inputs": [
        {
          "indexed": true,
          "internalType": "address",
          "name": "caller",
          "type": "address"
        },
        {
          "indexed": false,
          "internalType": "uint256",
          "name": "amount",
          "type": "uint256"
        }
      ],
      "name": "TokensStaked",
      "type": "event"
    },
    {
      "anonymous": false,
      "inputs": [
        {
          "indexed": true,
          "internalType": "address",
          "name": "caller",
          "type": "address"
        },
        {
          "indexed": false,
          "internalType": "address",
          "name": "receiver",
          "type": "address"
        }
      ],
      "name": "TokensWithdrawn",
      "type": "event"
    },
    {
      "anonymous": false,
      "inputs": [
        {
          "indexed": true,
          "internalType": "address",
          "name": "caller",
          "type": "address"
        },
        {
          "indexed": false,
          "internalType": "address",
          "name": "delegatee",
          "type": "address"
        }
      ],
      "name": "VotesDelegated",
      "type": "event"
    },
    {
      "constant": true,
      "inputs": [],
      "name": "FOUR_WEEKS",
      "outputs": [
        {
          "internalType": "uint256",
          "name": "",
          "type": "uint256"
        }
      ],
      "payable": false,
      "stateMutability": "view",
      "type": "function"
    },
    {
      "constant": true,
      "inputs": [],
      "name": "SOV",
      "outputs": [
        {
          "internalType": "contract IERC20",
          "name": "",
          "type": "address"
        }
      ],
      "payable": false,
      "stateMutability": "view",
      "type": "function"
    },
    {
      "constant": false,
      "inputs": [],
      "name": "approveOwnershipTransfer",
      "outputs": [],
      "payable": false,
      "stateMutability": "nonpayable",
      "type": "function"
    },
    {
      "constant": false,
      "inputs": [
        {
          "internalType": "address",
          "name": "_newTokenOwner",
          "type": "address"
        }
      ],
      "name": "changeTokenOwner",
      "outputs": [],
      "payable": false,
      "stateMutability": "nonpayable",
      "type": "function"
    },
    {
      "constant": true,
      "inputs": [],
      "name": "cliff",
      "outputs": [
        {
          "internalType": "uint256",
          "name": "",
          "type": "uint256"
        }
      ],
      "payable": false,
      "stateMutability": "view",
      "type": "function"
    },
    {
      "constant": true,
      "inputs": [],
      "name": "cliffAdded",
      "outputs": [
        {
          "internalType": "uint256",
          "name": "",
          "type": "uint256"
        }
      ],
      "payable": false,
      "stateMutability": "view",
      "type": "function"
    },
    {
      "constant": false,
      "inputs": [
        {
          "internalType": "address",
          "name": "_loanPoolToken",
          "type": "address"
        },
        {
          "internalType": "uint32",
          "name": "_maxCheckpoints",
          "type": "uint32"
        },
        {
          "internalType": "address",
          "name": "_receiver",
          "type": "address"
        }
      ],
      "name": "collectDividends",
      "outputs": [],
      "payable": false,
      "stateMutability": "nonpayable",
      "type": "function"
    },
    {
      "constant": false,
      "inputs": [
        {
          "internalType": "address",
          "name": "_delegatee",
          "type": "address"
        }
      ],
      "name": "delegate",
      "outputs": [],
      "payable": false,
      "stateMutability": "nonpayable",
      "type": "function"
    },
    {
      "constant": true,
      "inputs": [],
      "name": "duration",
      "outputs": [
        {
          "internalType": "uint256",
          "name": "",
          "type": "uint256"
        }
      ],
      "payable": false,
      "stateMutability": "view",
      "type": "function"
    },
    {
      "constant": true,
      "inputs": [],
      "name": "durationLeft",
      "outputs": [
        {
          "internalType": "uint256",
          "name": "",
          "type": "uint256"
        }
      ],
      "payable": false,
      "stateMutability": "view",
      "type": "function"
    },
    {
      "constant": true,
      "inputs": [],
      "name": "endDate",
      "outputs": [
        {
          "internalType": "uint256",
          "name": "",
          "type": "uint256"
        }
      ],
      "payable": false,
      "stateMutability": "view",
      "type": "function"
    },
    {
      "constant": true,
      "inputs": [],
      "name": "extendDurationFor",
      "outputs": [
        {
          "internalType": "uint256",
          "name": "",
          "type": "uint256"
        }
      ],
      "payable": false,
      "stateMutability": "view",
      "type": "function"
    },
    {
      "constant": false,
      "inputs": [],
      "name": "extendStaking",
      "outputs": [],
      "payable": false,
      "stateMutability": "nonpayable",
      "type": "function"
    },
    {
      "constant": true,
      "inputs": [],
      "name": "feeSharingCollector",
      "outputs": [
        {
          "internalType": "contract IFeeSharingCollector",
          "name": "",
          "type": "address"
        }
      ],
      "payable": false,
      "stateMutability": "view",
      "type": "function"
    },
    {
      "constant": true,
      "inputs": [],
      "name": "getDurationLeft",
      "outputs": [
        {
          "internalType": "uint256",
          "name": "",
          "type": "uint256"
        }
      ],
      "payable": false,
      "stateMutability": "view",
      "type": "function"
    },
    {
      "constant": true,
      "inputs": [],
      "name": "isOwner",
      "outputs": [
        {
          "internalType": "bool",
          "name": "",
          "type": "bool"
        }
      ],
      "payable": false,
      "stateMutability": "view",
      "type": "function"
    },
    {
      "constant": true,
      "inputs": [],
      "name": "lastStakingSchedule",
      "outputs": [
        {
          "internalType": "uint256",
          "name": "",
          "type": "uint256"
        }
      ],
      "payable": false,
      "stateMutability": "view",
      "type": "function"
    },
    {
      "constant": true,
      "inputs": [],
      "name": "maxInterval",
      "outputs": [
        {
          "internalType": "uint256",
          "name": "",
          "type": "uint256"
        }
      ],
      "payable": false,
      "stateMutability": "view",
      "type": "function"
    },
    {
      "constant": false,
      "inputs": [],
      "name": "migrateToNewStakingContract",
      "outputs": [],
      "payable": false,
      "stateMutability": "nonpayable",
      "type": "function"
    },
    {
      "constant": true,
      "inputs": [],
      "name": "newImplementation",
      "outputs": [
        {
          "internalType": "address",
          "name": "",
          "type": "address"
        }
      ],
      "payable": false,
      "stateMutability": "view",
      "type": "function"
    },
    {
      "constant": true,
      "inputs": [],
      "name": "newTokenOwner",
      "outputs": [
        {
          "internalType": "address",
          "name": "",
          "type": "address"
        }
      ],
      "payable": false,
      "stateMutability": "view",
      "type": "function"
    },
    {
      "constant": true,
      "inputs": [],
      "name": "owner",
      "outputs": [
        {
          "internalType": "address",
          "name": "",
          "type": "address"
        }
      ],
      "payable": false,
      "stateMutability": "view",
      "type": "function"
    },
    {
      "constant": false,
      "inputs": [
        {
          "internalType": "address",
          "name": "_sender",
          "type": "address"
        },
        {
          "internalType": "uint256",
          "name": "_amount",
          "type": "uint256"
        },
        {
          "internalType": "address",
          "name": "_token",
          "type": "address"
        },
        {
          "internalType": "bytes",
          "name": "_data",
          "type": "bytes"
        }
      ],
      "name": "receiveApproval",
      "outputs": [],
      "payable": false,
      "stateMutability": "nonpayable",
      "type": "function"
    },
    {
      "constant": true,
      "inputs": [],
      "name": "remainingStakeAmount",
      "outputs": [
        {
          "internalType": "uint256",
          "name": "",
          "type": "uint256"
        }
      ],
      "payable": false,
      "stateMutability": "view",
      "type": "function"
    },
    {
      "constant": false,
      "inputs": [
        {
          "internalType": "address",
          "name": "_newImplementation",
          "type": "address"
        }
      ],
      "name": "setImpl",
      "outputs": [],
      "payable": false,
      "stateMutability": "nonpayable",
      "type": "function"
    },
    {
      "constant": false,
      "inputs": [
        {
          "internalType": "uint256",
          "name": "_interval",
          "type": "uint256"
        }
      ],
      "name": "setMaxInterval",
      "outputs": [],
      "payable": false,
      "stateMutability": "nonpayable",
      "type": "function"
    },
    {
      "constant": false,
      "inputs": [
        {
          "internalType": "uint256",
          "name": "_amount",
          "type": "uint256"
        },
        {
          "internalType": "uint256",
          "name": "_restartStakeSchedule",
          "type": "uint256"
        }
      ],
      "name": "stakeTokens",
      "outputs": [
        {
          "internalType": "uint256",
          "name": "lastSchedule",
          "type": "uint256"
        },
        {
          "internalType": "uint256",
          "name": "remainingAmount",
          "type": "uint256"
        }
      ],
      "payable": false,
      "stateMutability": "nonpayable",
      "type": "function"
    },
    {
      "constant": false,
      "inputs": [
        {
          "internalType": "address",
          "name": "_sender",
          "type": "address"
        },
        {
          "internalType": "uint256",
          "name": "_amount",
          "type": "uint256"
        },
        {
          "internalType": "uint256",
          "name": "_restartStakeSchedule",
          "type": "uint256"
        }
      ],
      "name": "stakeTokensWithApproval",
      "outputs": [
        {
          "internalType": "uint256",
          "name": "lastSchedule",
          "type": "uint256"
        },
        {
          "internalType": "uint256",
          "name": "remainingAmount",
          "type": "uint256"
        }
      ],
      "payable": false,
      "stateMutability": "nonpayable",
      "type": "function"
    },
    {
      "constant": true,
      "inputs": [],
      "name": "staking",
      "outputs": [
        {
          "internalType": "contract IStaking",
          "name": "",
          "type": "address"
        }
      ],
      "payable": false,
      "stateMutability": "view",
      "type": "function"
    },
    {
      "constant": true,
      "inputs": [],
      "name": "startDate",
      "outputs": [
        {
          "internalType": "uint256",
          "name": "",
          "type": "uint256"
        }
      ],
      "payable": false,
      "stateMutability": "view",
      "type": "function"
    },
    {
      "constant": true,
      "inputs": [],
      "name": "tokenOwner",
      "outputs": [
        {
          "internalType": "address",
          "name": "",
          "type": "address"
        }
      ],
      "payable": false,
      "stateMutability": "view",
      "type": "function"
    },
    {
      "constant": false,
      "inputs": [
        {
          "internalType": "address",
          "name": "newOwner",
          "type": "address"
        }
      ],
      "name": "transferOwnership",
      "outputs": [],
      "payable": false,
      "stateMutability": "nonpayable",
      "type": "function"
    },
    {
      "constant": false,
      "inputs": [
        {
          "internalType": "address",
          "name": "receiver",
          "type": "address"
        }
      ],
      "name": "withdrawTokens",
      "outputs": [],
      "payable": false,
      "stateMutability": "nonpayable",
      "type": "function"
    }
  ],
  "bytecode": {
    "object": "0x608060405260006100176001600160e01b0361006616565b600080546001600160a01b0319166001600160a01b0383169081178255604051929350917f8be0079c531659141344cd1fd0a4f28419497f9722a3daafe3b4186f6b6457e0908290a35061006a565b3390565b6123e6806100796000396000f3fe608060405234801561001057600080fd5b50600436106101fb5760003560e01c80636b7dbb2d1161011a578063a3e67610116100ad578063cae774b31161007c578063cae774b3146104ca578063d0e60a6a146104d2578063d38bd9f0146104da578063f2fde38b146104e2578063f6d6189e1461028b576101fb565b8063a3e6761014610480578063b06a470c14610488578063c15d145014610490578063c24a0f8b146104c2576101fb565b80638bc6efc8116100e95780638bc6efc8146103c55780638da5cb5b146103cd5780638f32d59b146103d55780638f4ffcb1146103f1576101fb565b80636b7dbb2d146103a55780637087c1fb146103ad57806373496bce146103b55780638b677b03146103bd576101fb565b806341c632a6116101925780635419675f116101615780635419675f146103155780635c19a95c1461031d57806362dc2f3514610343578063691bd2ae1461037f576101fb565b806341c632a6146102d757806349df728c146102df5780634cf088d914610305578063533a386c1461030d576101fb565b80630fb5a6b4116101ce5780630fb5a6b41461028357806313d033c01461028b5780633b7b6188146102935780633c4efe01146102cf576101fb565b806303021c871461020057806308dcb3601461021f5780630b97bc86146102435780630f809adb1461025d575b600080fd5b61021d6004803603602081101561021657600080fd5b5035610508565b005b6102276105ad565b604080516001600160a01b039092168252519081900360200190f35b61024b6105bc565b60408051918252519081900360200190f35b61021d6004803603602081101561027357600080fd5b50356001600160a01b03166105c2565b61024b6106e3565b61024b6106eb565b6102b6600480360360408110156102a957600080fd5b50803590602001356106f2565b6040805192835260208301919091528051918290030190f35b61024b61070b565b61024b610711565b61021d600480360360208110156102f557600080fd5b50356001600160a01b0316610717565b610227610773565b61024b610782565b61021d610788565b61021d6004803603602081101561033357600080fd5b50356001600160a01b0316610921565b61021d6004803603606081101561035957600080fd5b506001600160a01b03813581169163ffffffff6020820135169160409091013516610aae565b61021d6004803603602081101561039557600080fd5b50356001600160a01b0316610c27565b610227610cdc565b61024b610ceb565b61021d610cf1565b610227610ffb565b61021d61100a565b610227611101565b6103dd611110565b604080519115158252519081900360200190f35b61021d6004803603608081101561040757600080fd5b6001600160a01b03823581169260208101359260408201359092169181019060808101606082013564010000000081111561044157600080fd5b82018360208201111561045357600080fd5b8035906020019184600183028401116401000000008311171561047557600080fd5b509092509050611134565b610227611406565b61024b611415565b6102b6600480360360608110156104a657600080fd5b506001600160a01b03813516906020810135906040013561141b565b61024b611478565b61024b61147e565b61024b611484565b61022761148a565b61021d600480360360208110156104f857600080fd5b50356001600160a01b0316611499565b610510611110565b610550576040805162461bcd60e51b815260206004820152600c60248201526b1d5b985d5d1a1bdc9a5e995960a21b604482015290519081900360640190fd5b610563816224ea0063ffffffff6114ea16565b156105a8576040805162461bcd60e51b815260206004820152601060248201526f1a5b9d985b1a59081a5b9d195c9d985b60821b604482015290519081900360640190fd5b600755565b6001546001600160a01b031681565b60055481565b6105ca611110565b61060a576040805162461bcd60e51b815260206004820152600c60248201526b1d5b985d5d1a1bdc9a5e995960a21b604482015290519081900360640190fd5b6001600160a01b038116610665576040805162461bcd60e51b815260206004820152601f60248201527f696e76616c6964206e657720746f6b656e206f776e6572206164647265737300604482015290519081900360640190fd5b6003546001600160a01b03828116911614156106c1576040805162461bcd60e51b81526020600482015260166024820152751cd85b59481bdddb995c881b9bdd08185b1b1bddd95960521b604482015290519081900360640190fd5b600c80546001600160a01b0319166001600160a01b0392909216919091179055565b63059fa60081565b6224ea0081565b600080610700338585611535565b909590945092505050565b60095481565b60085481565b6003546001600160a01b03163314610765576040805162461bcd60e51b815260206004820152600c60248201526b1d5b985d5d1a1bdc9a5e995960a21b604482015290519081900360640190fd5b610770816000611a78565b50565b6002546001600160a01b031681565b600a5481565b6003546001600160a01b03163314806107a457506107a4611110565b6107e4576040805162461bcd60e51b815260206004820152600c60248201526b1d5b985d5d1a1bdc9a5e995960a21b604482015290519081900360640190fd5b600260009054906101000a90046001600160a01b03166001600160a01b0316635419675f6040518163ffffffff1660e01b8152600401600060405180830381600087803b15801561083457600080fd5b505af1158015610848573d6000803e3d6000fd5b50505050600260009054906101000a90046001600160a01b03166001600160a01b031663ae81dfe46040518163ffffffff1660e01b815260040160206040518083038186803b15801561089a57600080fd5b505afa1580156108ae573d6000803e3d6000fd5b505050506040513d60208110156108c457600080fd5b5051600280546001600160a01b039283166001600160a01b0319909116179081905560408051919092168152905133917f9613f431247983a83a2b3667aa63a5174194ac89328dfadc69be44409521b3c1919081900360200190a2565b6003546001600160a01b0316331461096f576040805162461bcd60e51b815260206004820152600c60248201526b1d5b985d5d1a1bdc9a5e995960a21b604482015290519081900360640190fd5b6001600160a01b0381166109ca576040805162461bcd60e51b815260206004820152601960248201527f64656c656761746565206164647265737320696e76616c696400000000000000604482015290519081900360640190fd5b6006546005546000906109e6906224ea0063ffffffff611d0916565b90505b818111610a6a576002546040805163026e402b60e01b81526001600160a01b038681166004830152602482018590529151919092169163026e402b91604480830192600092919082900301818387803b158015610a4557600080fd5b505af1158015610a59573d6000803e3d6000fd5b505050506224ea00810190506109e9565b50604080516001600160a01b0384168152905133917f734a802cc194e2139bfcc08e10336f24dfa14fd2c5ab70268d8706c055867066919081900360200190a25050565b6003546001600160a01b03163314610afc576040805162461bcd60e51b815260206004820152600c60248201526b1d5b985d5d1a1bdc9a5e995960a21b604482015290519081900360640190fd5b6001600160a01b038116610b52576040805162461bcd60e51b81526020600482015260186024820152771c9958d95a5d995c881859191c995cdcc81a5b9d985b1a5960421b604482015290519081900360640190fd5b600480546040805163a965b3a960e01b81526001600160a01b038781169482019490945263ffffffff8616602482015284841660448201529051929091169163a965b3a99160648082019260009290919082900301818387803b158015610bb857600080fd5b505af1158015610bcc573d6000803e3d6000fd5b5050604080516001600160a01b0387811682528516602082015263ffffffff86168183015290513393507f5fa0b381cb4bdbc7063d1e5c78b90a634a6d6a12d6cb6fabe450fd4b8d1eab0192509081900360600190a2505050565b6003546001600160a01b03163314610c75576040805162461bcd60e51b815260206004820152600c60248201526b1d5b985d5d1a1bdc9a5e995960a21b604482015290519081900360640190fd5b6001600160a01b038116610cba5760405162461bcd60e51b81526004018080602001828103825260228152602001806123906022913960400191505060405180910390fd5b600d80546001600160a01b0319166001600160a01b0392909216919091179055565b6004546001600160a01b031681565b600a5490565b6000610d0a600e54600554611d0990919063ffffffff16565b60025460408051630f74de8b60e31b8152306004820152905192935060609283926001600160a01b031691637ba6f458916024808301926000929190829003018186803b158015610d5a57600080fd5b505afa158015610d6e573d6000803e3d6000fd5b505050506040513d6000823e601f3d908101601f191682016040908152811015610d9757600080fd5b8101908080516040519392919084640100000000821115610db757600080fd5b908301906020820185811115610dcc57600080fd5b8251866020820283011164010000000082111715610de957600080fd5b82525081516020918201928201910280838360005b83811015610e16578181015183820152602001610dfe565b5050505090500160405260200180516040519392919084640100000000821115610e3f57600080fd5b908301906020820185811115610e5457600080fd5b8251866020820283011164010000000082111715610e7157600080fd5b82525081516020918201928201910280838360005b83811015610e9e578181015183820152602001610e86565b5050505091909101604052509395509193506000925050505b8251811015610ff55742838281518110610ecd57fe5b6020026020010151108015610ef5575083838281518110610eea57fe5b602002602001015111155b8015610f1d57506000828281518110610f0a57fe5b60200260200101516001600160601b0316115b15610fe85760025483516001600160a01b039091169063eefb8c4790859084908110610f4557fe5b6020026020010151610f7763059fa600878681518110610f6157fe5b6020026020010151611d0990919063ffffffff16565b6040518363ffffffff1660e01b81526004018083815260200182815260200192505050600060405180830381600087803b158015610fb457600080fd5b505af1158015610fc8573d6000803e3d6000fd5b50505050610fe063059fa600848381518110610f6157fe5b600655610fed565b610ff5565b600101610eb7565b50505050565b600d546001600160a01b031681565b6003546001600160a01b03163314611058576040805162461bcd60e51b815260206004820152600c60248201526b1d5b985d5d1a1bdc9a5e995960a21b604482015290519081900360640190fd5b600c546001600160a01b03166110a7576040805162461bcd60e51b815260206004820152600f60248201526e696e76616c6964206164647265737360881b604482015290519081900360640190fd5b600c8054600380546001600160a01b038084166001600160a01b0319928316179283905592169092556040513392909116907f9cf24b1ec41d66a62ffba9f3ed8641a7fb6fb987150ff3e0ded7576b6b63576b90600090a3565b6000546001600160a01b031690565b600080546001600160a01b0316611125611d63565b6001600160a01b031614905090565b61113c611d67565b6001600160a01b0316336001600160a01b031614611190576040805162461bcd60e51b815260206004820152600c60248201526b1d5b985d5d1a1bdc9a5e995960a21b604482015290519081900360640190fd5b336001600160a01b038416146111dc576040805162461bcd60e51b815260206004820152600c60248201526b1d5b985d5d1a1bdc9a5e995960a21b604482015290519081900360640190fd5b600060606111e8611d76565b9050600061122b85858080601f016020809104026020016040519081016040528093929190818152602001838380828437600092019190915250611dce92505050565b905060005b82518110156112795782818151811061124557fe5b60200260200101516001600160e01b031916826001600160e01b03191614156112715760019350611279565b600101611230565b50826112c4576040805162461bcd60e51b81526020600482015260156024820152741b595d1a1bd9081a5cc81b9bdd08185b1b1bddd959605a1b604482015290519081900360640190fd5b60405160006020820181815290918291829189918991603c01838380828437808301925050509350505050604051602081830303815290604052806020019051606081101561131257600080fd5b50602081015160409091015190925090506001600160a01b03808316908b1614611375576040805162461bcd60e51b815260206004820152600f60248201526e0e6cadcc8cae440dad2e6dac2e8c6d608b1b604482015290519081900360640190fd5b8881146113bb576040805162461bcd60e51b815260206004820152600f60248201526e0c2dadeeadce840dad2e6dac2e8c6d608b1b604482015290519081900360640190fd5b6113fa87878080601f016020809104026020016040519081016040528093929190818152602001838380828437600092019190915250611dd592505050565b50505050505050505050565b6003546001600160a01b031681565b600b5481565b600080333014611461576040805162461bcd60e51b815260206004820152600c60248201526b1d5b985d5d1a1bdc9a5e995960a21b604482015290519081900360640190fd5b61146c858585611535565b90969095509350505050565b60065481565b60075481565b600e5481565b600c546001600160a01b031681565b6114a1611110565b6114e1576040805162461bcd60e51b815260206004820152600c60248201526b1d5b985d5d1a1bdc9a5e995960a21b604482015290519081900360640190fd5b61077081611f80565b600061152c83836040518060400160405280601881526020017f536166654d6174683a206d6f64756c6f206279207a65726f0000000000000000815250612020565b90505b92915050565b600080600554600014806115645750600060055411801561155857506000600954115b80156115645750600083115b6115b5576040805162461bcd60e51b815260206004820152601a60248201527f637265617465206e65772076657374696e672061646472657373000000000000604482015290519081900360640190fd5b60008060055460001480156115c8575084155b1561165757600254604080516372ec979560e01b815242600482015290516001600160a01b03909216916372ec979591602480820192602092909190829003018186803b15801561161857600080fd5b505afa15801561162c573d6000803e3d6000fd5b505050506040513d602081101561164257600080fd5b505160055563059fa600600a556224ea00600b555b84156116b9576008548514801561166f575060095486145b6116b1576040805162461bcd60e51b815260206004820152600e60248201526d696e76616c696420706172616d7360901b604482015290519081900360640190fd5b8491506116bf565b60055491505b60065461174f576002546001600160a01b03166372ec97956116eb4263059fa60063ffffffff611d0916565b6040518263ffffffff1660e01b81526004018082815260200191505060206040518083038186803b15801561171f57600080fd5b505afa158015611733573d6000803e3d6000fd5b505050506040513d602081101561174957600080fd5b50516006555b600061176660075484611d0990919063ffffffff16565b90506006548110156117d3576008819055600a5460075461179f9190611793908a9063ffffffff61208216565b9063ffffffff6120db16565b91506117b8600754600a5461211d90919063ffffffff16565b600a556117cb878363ffffffff61211d16565b6009556117e7565b60065460085560006009819055600a558691505b600154604080516323b872dd60e01b81526001600160a01b038b8116600483015230602483015260448201869052915160009392909216916323b872dd9160648082019260209290919082900301818787803b15801561184657600080fd5b505af115801561185a573d6000803e3d6000fd5b505050506040513d602081101561187057600080fd5b50519050806118b8576040805162461bcd60e51b815260206004820152600f60248201526e1d1c985b9cd9995c8819985a5b1959608a1b604482015290519081900360640190fd5b6001546002546040805163095ea7b360e01b81526001600160a01b039283166004820152602481018790529051919092169163095ea7b39160448083019260209291908290030181600087803b15801561191157600080fd5b505af1158015611925573d6000803e3d6000fd5b505050506040513d602081101561193b57600080fd5b5050600254600b54600a546001600160a01b0390921691634b2fea1e91869161196f9063059fa6009063ffffffff61211d16565b600354604080516001600160e01b031960e088901b1681526004810195909552602485019390935260448401919091526224ea0060648401523060848401526001600160a01b031660a48301525160c480830192600092919082900301818387803b1580156119dd57600080fd5b505af11580156119f1573d6000803e3d6000fd5b50505050600a5460001415611a0a576000600b55611a23565b600754600b54611a1f9163ffffffff611d0916565b600b555b6040805184815290516001600160a01b038b16917fb539ca1e5c8d398ddf1c41c30166f33404941683be4683319b57669a93dad4ef919081900360200190a26008546009549550955050505050935093915050565b6001600160a01b038216611ace576040805162461bcd60e51b81526020600482015260186024820152771c9958d95a5d995c881859191c995cdcc81a5b9d985b1a5960421b604482015290519081900360640190fd5b600080600260009054906101000a90046001600160a01b03166001600160a01b0316639929e8866040518163ffffffff1660e01b815260040160206040518083038186803b158015611b1f57600080fd5b505afa158015611b33573d6000803e3d6000fd5b505050506040513d6020811015611b4957600080fd5b505180611b535750825b15611b615750600654611b64565b50425b6000611b7d600e54600554611d0990919063ffffffff16565b90505b818111611cc3576002546001600160a01b031663cf7b684a3083611bab43600163ffffffff61211d16565b6040518463ffffffff1660e01b815260040180846001600160a01b03166001600160a01b03168152602001838152602001828152602001935050505060206040518083038186803b158015611bff57600080fd5b505afa158015611c13573d6000803e3d6000fd5b505050506040513d6020811015611c2957600080fd5b505192506001600160601b03831615611cb957600254604080516336adb29160e21b81526001600160601b0386166004820152602481018490526001600160a01b0388811660448301529151919092169163dab6ca4491606480830192600092919082900301818387803b158015611ca057600080fd5b505af1158015611cb4573d6000803e3d6000fd5b505050505b6224ea0001611b80565b50604080516001600160a01b0386168152905133917f351b2b7a8b3659a02c6c87ac06e00099a1e5979171161a69eab5d057deb838ec919081900360200190a250505050565b60008282018381101561152c576040805162461bcd60e51b815260206004820152601b60248201527f536166654d6174683a206164646974696f6e206f766572666c6f770000000000604482015290519081900360640190fd5b3390565b6001546001600160a01b031690565b6040805160018082528183019092526060918291906020808301908038833901905050905063c15d145060e01b81600081518110611db057fe5b6001600160e01b031990921660209283029190910190910152905090565b6020015190565b60006060306001600160a01b0316836040518082805190602001908083835b60208310611e135780518252601f199092019160209182019101611df4565b6001836020036101000a0380198251168184511680821785525050505050509050019150506000604051808303816000865af19150503d8060008114611e75576040519150601f19603f3d011682016040523d82523d6000602084013e611e7a565b606091505b509150915081611f7b576044815111611ec45760405162461bcd60e51b81526004018080602001828103825260308152602001806123196030913960400191505060405180910390fd5b611ef76040518060400160405280601181526020017003932b1b2b4bb32a0b8383937bb30b61d1607d1b8152508261215f565b60405162461bcd60e51b81526004018080602001828103825283818151815260200191508051906020019080838360005b83811015611f40578181015183820152602001611f28565b50505050905090810190601f168015611f6d5780820380516001836020036101000a031916815260200191505b509250505060405180910390fd5b505050565b6001600160a01b038116611fc55760405162461bcd60e51b81526004018080602001828103825260268152602001806123496026913960400191505060405180910390fd5b600080546040516001600160a01b03808516939216917f8be0079c531659141344cd1fd0a4f28419497f9722a3daafe3b4186f6b6457e091a3600080546001600160a01b0319166001600160a01b0392909216919091179055565b6000818361206f5760405162461bcd60e51b8152602060048201818152835160248401528351909283926044909101919085019080838360008315611f40578181015183820152602001611f28565b5082848161207957fe5b06949350505050565b6000826120915750600061152f565b8282028284828161209e57fe5b041461152c5760405162461bcd60e51b815260040180806020018281038252602181526020018061236f6021913960400191505060405180910390fd5b600061152c83836040518060400160405280601a81526020017f536166654d6174683a206469766973696f6e206279207a65726f000000000000815250612259565b600061152c83836040518060400160405280601e81526020017f536166654d6174683a207375627472616374696f6e206f766572666c6f7700008152506122be565b6060808390506060839050606060448251845101036040519080825280601f01601f19166020018201604052801561219e576020820181803883390190505b509050806000805b85518110156121f7578581815181106121bb57fe5b602001015160f81c60f81b8383806001019450815181106121d857fe5b60200101906001600160f81b031916908160001a9053506001016121a6565b5060445b845181101561224c5784818151811061221057fe5b602001015160f81c60f81b83838060010194508151811061222d57fe5b60200101906001600160f81b031916908160001a9053506001016121fb565b5090979650505050505050565b600081836122a85760405162461bcd60e51b8152602060048201818152835160248401528351909283926044909101919085019080838360008315611f40578181015183820152602001611f28565b5060008385816122b457fe5b0495945050505050565b600081848411156123105760405162461bcd60e51b8152602060048201818152835160248401528351909283926044909101919085019080838360008315611f40578181015183820152602001611f28565b50505090039056fe72656365697665417070726f76616c3a205472616e73616374696f6e20657865637574696f6e2072657665727465642e4f776e61626c653a206e6577206f776e657220697320746865207a65726f2061646472657373536166654d6174683a206d756c7469706c69636174696f6e206f766572666c6f77696e76616c6964206e657720696d706c656d656e746174696f6e2061646472657373a265627a7a72315820375e974a34f8fd93bbbdee2575ac4280f1d4260e6533337df9ba61207c56ad3664736f6c63430005110032",
    "linkReferences": {}
  },
  "methodIdentifiers": {
    "FOUR_WEEKS()": "f6d6189e",
    "SOV()": "08dcb360",
    "approveOwnershipTransfer()": "8bc6efc8",
    "changeTokenOwner(address)": "0f809adb",
    "cliff()": "13d033c0",
    "cliffAdded()": "b06a470c",
    "collectDividends(address,uint32,address)": "62dc2f35",
    "delegate(address)": "5c19a95c",
    "duration()": "0fb5a6b4",
    "durationLeft()": "533a386c",
    "endDate()": "c24a0f8b",
    "extendDurationFor()": "d0e60a6a",
    "extendStaking()": "73496bce",
    "feeSharingCollector()": "6b7dbb2d",
    "getDurationLeft()": "7087c1fb",
    "isOwner()": "8f32d59b",
    "lastStakingSchedule()": "41c632a6",
    "maxInterval()": "cae774b3",
    "migrateToNewStakingContract()": "5419675f",
    "newImplementation()": "8b677b03",
    "newTokenOwner()": "d38bd9f0",
    "owner()": "8da5cb5b",
    "receiveApproval(address,uint256,address,bytes)": "8f4ffcb1",
    "remainingStakeAmount()": "3c4efe01",
    "setImpl(address)": "691bd2ae",
    "setMaxInterval(uint256)": "03021c87",
    "stakeTokens(uint256,uint256)": "3b7b6188",
    "stakeTokensWithApproval(address,uint256,uint256)": "c15d1450",
    "staking()": "4cf088d9",
    "startDate()": "0b97bc86",
    "tokenOwner()": "a3e67610",
    "transferOwnership(address)": "f2fde38b",
    "withdrawTokens(address)": "49df728c"
  },
  "id": 141
}