{
  "abi": [
    {
      "constant": true,
      "inputs": [],
      "name": "baseToken",
      "outputs": [
        {
          "internalType": "contract IWrbtcERC20",
          "name": "",
          "type": "address"
        }
      ],
      "payable": false,
      "stateMutability": "view",
      "type": "function"
    },
    {
      "constant": true,
      "inputs": [],
      "name": "wrbtcToken",
      "outputs": [
        {
          "internalType": "contract IWrbtcERC20",
          "name": "",
          "type": "address"
        }
      ],
      "payable": false,
      "stateMutability": "view",
      "type": "function"
    }
  ],
  "bytecode": {
    "object": "0x6080604052348015600f57600080fd5b5060b28061001e6000396000f3fe6080604052348015600f57600080fd5b506004361060325760003560e01c8063afe84009146037578063c55dae63146059575b600080fd5b603d605f565b604080516001600160a01b039092168252519081900360200190f35b603d606e565b6000546001600160a01b031681565b6001546001600160a01b03168156fea265627a7a72315820fe1f8de74754e341fd033de3896db4c90796d22547e5b54dc9646db98891f4f764736f6c63430005110032",
    "linkReferences": {}
  },
  "methodIdentifiers": {
    "baseToken()": "c55dae63",
    "wrbtcToken()": "afe84009"
  },
  "id": 48
}