{
  "abi": [
    {
      "anonymous": false,
      "inputs": [
        {
          "indexed": false,
          "internalType": "address",
          "name": "admin",
          "type": "address"
        }
      ],
      "name": "AdminAdded",
      "type": "event"
    },
    {
      "anonymous": false,
      "inputs": [
        {
          "indexed": false,
          "internalType": "address",
          "name": "admin",
          "type": "address"
        }
      ],
      "name": "AdminRemoved",
      "type": "event"
    },
    {
      "anonymous": false,
      "inputs": [
        {
          "indexed": true,
          "internalType": "address",
          "name": "previousOwner",
          "type": "address"
        },
        {
          "indexed": true,
          "internalType": "address",
          "name": "newOwner",
          "type": "address"
        }
      ],
      "name": "OwnershipTransferred",
      "type": "event"
    },
    {
      "constant": true,
      "inputs": [],
      "name": "SOV",
      "outputs": [
        {
          "internalType": "address",
          "name": "",
          "type": "address"
        }
      ],
      "payable": false,
      "stateMutability": "view",
      "type": "function"
    },
    {
      "constant": false,
      "inputs": [
        {
          "internalType": "address",
          "name": "_admin",
          "type": "address"
        }
      ],
      "name": "addAdmin",
      "outputs": [],
      "payable": false,
      "stateMutability": "nonpayable",
      "type": "function"
    },
    {
      "constant": true,
      "inputs": [
        {
          "internalType": "address",
          "name": "",
          "type": "address"
        }
      ],
      "name": "admins",
      "outputs": [
        {
          "internalType": "bool",
          "name": "",
          "type": "bool"
        }
      ],
      "payable": false,
      "stateMutability": "view",
      "type": "function"
    },
    {
      "constant": true,
      "inputs": [],
      "name": "feeSharingCollector",
      "outputs": [
        {
          "internalType": "address",
          "name": "",
          "type": "address"
        }
      ],
      "payable": false,
      "stateMutability": "view",
      "type": "function"
    },
    {
      "constant": true,
      "inputs": [],
      "name": "isOwner",
      "outputs": [
        {
          "internalType": "bool",
          "name": "",
          "type": "bool"
        }
      ],
      "payable": false,
      "stateMutability": "view",
      "type": "function"
    },
    {
      "constant": true,
      "inputs": [
        {
          "internalType": "address",
          "name": "",
          "type": "address"
        }
      ],
      "name": "isVesting",
      "outputs": [
        {
          "internalType": "bool",
          "name": "",
          "type": "bool"
        }
      ],
      "payable": false,
      "stateMutability": "view",
      "type": "function"
    },
    {
      "constant": true,
      "inputs": [],
      "name": "lockedSOV",
      "outputs": [
        {
          "internalType": "contract ILockedSOV",
          "name": "",
          "type": "address"
        }
      ],
      "payable": false,
      "stateMutability": "view",
      "type": "function"
    },
    {
      "constant": true,
      "inputs": [],
      "name": "owner",
      "outputs": [
        {
          "internalType": "address",
          "name": "",
          "type": "address"
        }
      ],
      "payable": false,
      "stateMutability": "view",
      "type": "function"
    },
    {
      "constant": false,
      "inputs": [
        {
          "internalType": "address",
          "name": "_admin",
          "type": "address"
        }
      ],
      "name": "removeAdmin",
      "outputs": [],
      "payable": false,
      "stateMutability": "nonpayable",
      "type": "function"
    },
    {
      "constant": true,
      "inputs": [],
      "name": "staking",
      "outputs": [
        {
          "internalType": "address",
          "name": "",
          "type": "address"
        }
      ],
      "payable": false,
      "stateMutability": "view",
      "type": "function"
    },
    {
      "constant": false,
      "inputs": [
        {
          "internalType": "address",
          "name": "newOwner",
          "type": "address"
        }
      ],
      "name": "transferOwnership",
      "outputs": [],
      "payable": false,
      "stateMutability": "nonpayable",
      "type": "function"
    },
    {
      "constant": true,
      "inputs": [
        {
          "internalType": "address",
          "name": "",
          "type": "address"
        }
      ],
      "name": "vestingCreationAndTypes",
      "outputs": [
        {
          "internalType": "bool",
          "name": "isSet",
          "type": "bool"
        },
        {
          "internalType": "uint32",
          "name": "vestingType",
          "type": "uint32"
        },
        {
          "internalType": "uint128",
          "name": "vestingCreationType",
          "type": "uint128"
        }
      ],
      "payable": false,
      "stateMutability": "view",
      "type": "function"
    },
    {
      "constant": true,
      "inputs": [],
      "name": "vestingFactory",
      "outputs": [
        {
          "internalType": "contract IVestingFactory",
          "name": "",
          "type": "address"
        }
      ],
      "payable": false,
      "stateMutability": "view",
      "type": "function"
    },
    {
      "constant": true,
      "inputs": [],
      "name": "vestingOwner",
      "outputs": [
        {
          "internalType": "address",
          "name": "",
          "type": "address"
        }
      ],
      "payable": false,
      "stateMutability": "view",
      "type": "function"
    },
    {
      "constant": true,
      "inputs": [
        {
          "internalType": "uint256",
          "name": "",
          "type": "uint256"
        }
      ],
      "name": "vestingRegistries",
      "outputs": [
        {
          "internalType": "contract IVestingRegistry",
          "name": "",
          "type": "address"
        }
      ],
      "payable": false,
      "stateMutability": "view",
      "type": "function"
    },
    {
      "constant": true,
      "inputs": [
        {
          "internalType": "uint256",
          "name": "",
          "type": "uint256"
        }
      ],
      "name": "vestings",
      "outputs": [
        {
          "internalType": "uint256",
          "name": "vestingType",
          "type": "uint256"
        },
        {
          "internalType": "uint256",
          "name": "vestingCreationType",
          "type": "uint256"
        },
        {
          "internalType": "address",
          "name": "vestingAddress",
          "type": "address"
        }
      ],
      "payable": false,
      "stateMutability": "view",
      "type": "function"
    },
    {
      "constant": true,
      "inputs": [
        {
          "internalType": "address",
          "name": "",
          "type": "address"
        },
        {
          "internalType": "uint256",
          "name": "",
          "type": "uint256"
        }
      ],
      "name": "vestingsOf",
      "outputs": [
        {
          "internalType": "uint256",
          "name": "",
          "type": "uint256"
        }
      ],
      "payable": false,
      "stateMutability": "view",
      "type": "function"
    }
  ],
  "bytecode": {
    "object": "0x608060405260006100176001600160e01b0361007016565b6000805462010000600160b01b031916620100006001600160a01b038416908102919091178255604051929350917f8be0079c531659141344cd1fd0a4f28419497f9722a3daafe3b4186f6b6457e0908290a350610074565b3390565b61074f806100836000396000f3fe608060405234801561001057600080fd5b506004361061010b5760003560e01c8063842a49d5116100a2578063c0e0985211610071578063c0e0985214610299578063dfb9366d146102bf578063f2f46b3b146102fd578063f2fde38b14610305578063f60826ee1461032b5761010b565b8063842a49d5146102645780638da5cb5b146102815780638f32d59b14610289578063bd7b5908146102915761010b565b80636b7dbb2d116100de5780636b7dbb2d1461019e57806370480275146101a657806380fcb992146101cc578063821bee73146102205761010b565b806308dcb360146101105780631785f53c14610134578063429b62e51461015c5780634cf088d914610196575b600080fd5b610118610333565b604080516001600160a01b039092168252519081900360200190f35b61015a6004803603602081101561014a57600080fd5b50356001600160a01b0316610342565b005b6101826004803603602081101561017257600080fd5b50356001600160a01b03166103e2565b604080519115158252519081900360200190f35b6101186103f7565b610118610406565b61015a600480360360208110156101bc57600080fd5b50356001600160a01b0316610415565b6101f2600480360360208110156101e257600080fd5b50356001600160a01b03166104b9565b60408051931515845263ffffffff90921660208401526001600160801b031682820152519081900360600190f35b61023d6004803603602081101561023657600080fd5b50356104ee565b6040805193845260208401929092526001600160a01b031682820152519081900360600190f35b6101186004803603602081101561027a57600080fd5b5035610518565b61011861053f565b610182610554565b61011861057e565b610182600480360360208110156102af57600080fd5b50356001600160a01b031661058d565b6102eb600480360360408110156102d557600080fd5b506001600160a01b0381351690602001356105a2565b60408051918252519081900360200190f35b6101186105d0565b61015a6004803603602081101561031b57600080fd5b50356001600160a01b03166105df565b610118610633565b6005546001600160a01b031681565b61034a610554565b61038a576040805162461bcd60e51b815260206004820152600c60248201526b1d5b985d5d1a1bdc9a5e995960a21b604482015290519081900360640190fd5b6001600160a01b038116600081815260016020908152604091829020805460ff19169055815192835290517fa3b62bc36326052d97ea62d63c3d60308ed4c3ea8ac079dd8499f1e9c4f80c0f9281900390910190a150565b60016020526000908152604090205460ff1681565b6006546001600160a01b031681565b6007546001600160a01b031681565b61041d610554565b61045d576040805162461bcd60e51b815260206004820152600c60248201526b1d5b985d5d1a1bdc9a5e995960a21b604482015290519081900360640190fd5b6001600160a01b038116600081815260016020818152604092839020805460ff1916909217909155815192835290517f44d6d25963f097ad14f29f06854a01f575648a1ef82f30e562ccd3889717e3399281900390910190a150565b600c6020526000908152604090205460ff811690610100810463ffffffff16906501000000000090046001600160801b031683565b6009602052600090815260409020805460018201546002909201549091906001600160a01b031683565b6004818154811061052557fe5b6000918252602090912001546001600160a01b0316905081565b6000546201000090046001600160a01b031690565b600080546201000090046001600160a01b031661056f610642565b6001600160a01b031614905090565b6008546001600160a01b031681565b600b6020526000908152604090205460ff1681565b600a60205281600052604060002081815481106105bb57fe5b90600052602060002001600091509150505481565b6003546001600160a01b031681565b6105e7610554565b610627576040805162461bcd60e51b815260206004820152600c60248201526b1d5b985d5d1a1bdc9a5e995960a21b604482015290519081900360640190fd5b61063081610646565b50565b6002546001600160a01b031681565b3390565b6001600160a01b03811661068b5760405162461bcd60e51b81526004018080602001828103825260268152602001806106f56026913960400191505060405180910390fd5b600080546040516001600160a01b03808516936201000090930416917f8be0079c531659141344cd1fd0a4f28419497f9722a3daafe3b4186f6b6457e091a3600080546001600160a01b03909216620100000262010000600160b01b031990921691909117905556fe4f776e61626c653a206e6577206f776e657220697320746865207a65726f2061646472657373a265627a7a72315820e7d1295161e78a5a7506db90aac45ea97dde989f12360be76658395feb8d506464736f6c63430005110032",
    "linkReferences": {}
  },
  "methodIdentifiers": {
    "SOV()": "08dcb360",
    "addAdmin(address)": "70480275",
    "admins(address)": "429b62e5",
    "feeSharingCollector()": "6b7dbb2d",
    "isOwner()": "8f32d59b",
    "isVesting(address)": "c0e09852",
    "lockedSOV()": "f2f46b3b",
    "owner()": "8da5cb5b",
    "removeAdmin(address)": "1785f53c",
    "staking()": "4cf088d9",
    "transferOwnership(address)": "f2fde38b",
    "vestingCreationAndTypes(address)": "80fcb992",
    "vestingFactory()": "f60826ee",
    "vestingOwner()": "bd7b5908",
    "vestingRegistries(uint256)": "842a49d5",
    "vestings(uint256)": "821bee73",
    "vestingsOf(address,uint256)": "dfb9366d"
  },
  "id": 96
}