{
  "abi": [
    {
      "constant": true,
      "inputs": [],
      "name": "latestAnswer",
      "outputs": [
        {
          "internalType": "uint256",
          "name": "",
          "type": "uint256"
        }
      ],
      "payable": false,
      "stateMutability": "view",
      "type": "function"
    },
    {
      "constant": true,
      "inputs": [],
      "name": "latestTimestamp",
      "outputs": [
        {
          "internalType": "uint256",
          "name": "",
          "type": "uint256"
        }
      ],
      "payable": false,
      "stateMutability": "view",
      "type": "function"
    }
  ],
  "bytecode": {
    "object": "0x6080604052348015600f57600080fd5b50609a8061001e6000396000f3fe6080604052348015600f57600080fd5b506004361060325760003560e01c806350d25bcd1460375780638205bf6a14604f575b600080fd5b603d6055565b60408051918252519081900360200190f35b603d6061565b670de0b6b3a764000090565b429056fea265627a7a7231582061be12041831adc2d22c556537cdb26f36d2c9071f314f0031ffa6c2213be48264736f6c63430005110032",
    "linkReferences": {}
  },
  "methodIdentifiers": {
    "latestAnswer()": "50d25bcd",
    "latestTimestamp()": "8205bf6a"
  },
  "id": 49
}