{
  "abi": [
    {
      "inputs": [
        {
          "internalType": "contract IERC20",
          "name": "_token0",
          "type": "address"
        },
        {
          "internalType": "contract IERC20",
          "name": "_token1",
          "type": "address"
        }
      ],
      "payable": false,
      "stateMutability": "nonpayable",
      "type": "constructor"
    },
    {
      "constant": true,
      "inputs": [
        {
          "internalType": "uint256",
          "name": "",
          "type": "uint256"
        }
      ],
      "name": "reserveTokens",
      "outputs": [
        {
          "internalType": "contract IERC20",
          "name": "",
          "type": "address"
        }
      ],
      "payable": false,
      "stateMutability": "view",
      "type": "function"
    },
    {
      "constant": false,
      "inputs": [
        {
          "internalType": "address",
          "name": "_feesController",
          "type": "address"
        }
      ],
      "name": "setFeesController",
      "outputs": [],
      "payable": false,
      "stateMutability": "nonpayable",
      "type": "function"
    },
    {
      "constant": false,
      "inputs": [
        {
          "internalType": "uint256",
          "name": "_totalFeeMockupValue",
          "type": "uint256"
        }
      ],
      "name": "setTotalFeeMockupValue",
      "outputs": [],
      "payable": false,
      "stateMutability": "nonpayable",
      "type": "function"
    },
    {
      "constant": false,
      "inputs": [
        {
          "internalType": "contract IERC20",
          "name": "_wrbtcToken",
          "type": "address"
        }
      ],
      "name": "setWrbtcToken",
      "outputs": [],
      "payable": false,
      "stateMutability": "nonpayable",
      "type": "function"
    },
    {
      "constant": false,
      "inputs": [
        {
          "internalType": "address",
          "name": "_receiver",
          "type": "address"
        }
      ],
      "name": "withdrawFees",
      "outputs": [
        {
          "internalType": "uint256",
          "name": "",
          "type": "uint256"
        }
      ],
      "payable": false,
      "stateMutability": "nonpayable",
      "type": "function"
    }
  ],
  "bytecode": {
    "object": "0x608060405234801561001057600080fd5b5060405161036e38038061036e8339818101604052604081101561003357600080fd5b50805160209091015160008054600181810183558280527f290decd9548b62a8d60345a988386fc84ba6bc95484008f6362f93160ef3e56391820180546001600160a01b039687166001600160a01b03199182161790915583549182019093550180549390921692169190911790556102bd806100b16000396000f3fe608060405234801561001057600080fd5b50600436106100575760003560e01c80630bdb47551461005c578063164e68de1461007b578063d031370b146100b3578063d9eaaa64146100ec578063e8997dbd14610112575b600080fd5b6100796004803603602081101561007257600080fd5b5035610138565b005b6100a16004803603602081101561009157600080fd5b50356001600160a01b031661013d565b60408051918252519081900360200190f35b6100d0600480360360208110156100c957600080fd5b503561021d565b604080516001600160a01b039092168252519081900360200190f35b6100796004803603602081101561010257600080fd5b50356001600160a01b0316610244565b6100796004803603602081101561012857600080fd5b50356001600160a01b0316610266565b600255565b6003546000906001600160a01b0316331461018e576040805162461bcd60e51b815260206004820152600c60248201526b1d5b985d5d1a1bdc9a5e995960a21b604482015290519081900360640190fd5b6001546002546040805163a9059cbb60e01b81526001600160a01b03868116600483015260248201939093529051919092169163a9059cbb9160448083019260209291908290030181600087803b1580156101e857600080fd5b505af11580156101fc573d6000803e3d6000fd5b505050506040513d602081101561021257600080fd5b505060025492915050565b6000818154811061022a57fe5b6000918252602090912001546001600160a01b0316905081565b600180546001600160a01b0319166001600160a01b0392909216919091179055565b600380546001600160a01b0319166001600160a01b039290921691909117905556fea265627a7a72315820da5beeea66683e4e1a0267bb4c62b6618e83d037211333cefcda7755a4b5421164736f6c63430005110032",
    "linkReferences": {}
  },
  "methodIdentifiers": {
    "reserveTokens(uint256)": "d031370b",
    "setFeesController(address)": "e8997dbd",
    "setTotalFeeMockupValue(uint256)": "0bdb4755",
    "setWrbtcToken(address)": "d9eaaa64",
    "withdrawFees(address)": "164e68de"
  },
  "id": 134
}