{
  "_format": "hh-sol-artifact-1",
  "contractName": "LiquidityPoolV1Converter",
  "sourceName": "solidity/contracts/converter/types/liquidity-pool-v1/LiquidityPoolV1Converter.sol",
  "address": "0xe81373285eb8cdee2e0108e98c5aa022948da9d2",
  "abi": [
    {
      "constant": false,
      "inputs": [
        {
          "name": "_onlyOwnerCanUpdateRegistry",
          "type": "bool"
        }
      ],
      "name": "restrictRegistryUpdate",
      "outputs": [],
      "payable": false,
      "stateMutability": "nonpayable",
      "type": "function"
    },
    {
      "constant": true,
      "inputs": [
        {
          "name": "",
          "type": "address"
        }
      ],
      "name": "protocolFeeTokensHeld",
      "outputs": [
        {
          "name": "",
          "type": "uint256"
        }
      ],
      "payable": false,
      "stateMutability": "view",
      "type": "function"
    },
    {
      "constant": true,
      "inputs": [],
      "name": "reserveRatio",
      "outputs": [
        {
          "name": "",
          "type": "uint32"
        }
      ],
      "payable": false,
      "stateMutability": "view",
      "type": "function"
    },
    {
      "constant": true,
      "inputs": [
        {
          "name": "_address",
          "type": "address"
        }
      ],
      "name": "connectors",
      "outputs": [
        {
          "name": "",
          "type": "uint256"
        },
        {
          "name": "",
          "type": "uint32"
        },
        {
          "name": "",
          "type": "bool"
        },
        {
          "name": "",
          "type": "bool"
        },
        {
          "name": "",
          "type": "bool"
        }
      ],
      "payable": false,
      "stateMutability": "view",
      "type": "function"
    },
    {
      "constant": true,
      "inputs": [],
      "name": "hasETHReserve",
      "outputs": [
        {
          "name": "",
          "type": "bool"
        }
      ],
      "payable": false,
      "stateMutability": "view",
      "type": "function"
    },
    {
      "constant": false,
      "inputs": [
        {
          "name": "receiver",
          "type": "address"
        }
      ],
      "name": "withdrawFees",
      "outputs": [
        {
          "name": "",
          "type": "uint256"
        }
      ],
      "payable": false,
      "stateMutability": "nonpayable",
      "type": "function"
    },
    {
      "constant": true,
      "inputs": [
        {
          "name": "_index",
          "type": "uint256"
        }
      ],
      "name": "connectorTokens",
      "outputs": [
        {
          "name": "",
          "type": "address"
        }
      ],
      "payable": false,
      "stateMutability": "view",
      "type": "function"
    },
    {
      "constant": true,
      "inputs": [
        {
          "name": "_reserveToken",
          "type": "address"
        }
      ],
      "name": "reserveWeight",
      "outputs": [
        {
          "name": "",
          "type": "uint32"
        }
      ],
      "payable": false,
      "stateMutability": "view",
      "type": "function"
    },
    {
      "constant": true,
      "inputs": [
        {
          "name": "_sourceToken",
          "type": "address"
        },
        {
          "name": "_targetToken",
          "type": "address"
        },
        {
          "name": "_amount",
          "type": "uint256"
        }
      ],
      "name": "getReturn",
      "outputs": [
        {
          "name": "",
          "type": "uint256"
        },
        {
          "name": "",
          "type": "uint256"
        }
      ],
      "payable": false,
      "stateMutability": "view",
      "type": "function"
    },
    {
      "constant": false,
      "inputs": [
        {
          "name": "_newOwner",
          "type": "address"
        }
      ],
      "name": "transferTokenOwnership",
      "outputs": [],
      "payable": false,
      "stateMutability": "nonpayable",
      "type": "function"
    },
    {
      "constant": true,
      "inputs": [],
      "name": "isActive",
      "outputs": [
        {
          "name": "",
          "type": "bool"
        }
      ],
      "payable": false,
      "stateMutability": "view",
      "type": "function"
    },
    {
      "constant": true,
      "inputs": [],
      "name": "onlyOwnerCanUpdateRegistry",
      "outputs": [
        {
          "name": "",
          "type": "bool"
        }
      ],
      "payable": false,
      "stateMutability": "view",
      "type": "function"
    },
    {
      "constant": true,
      "inputs": [],
      "name": "token1Decimal",
      "outputs": [
        {
          "name": "",
          "type": "uint256"
        }
      ],
      "payable": false,
      "stateMutability": "view",
      "type": "function"
    },
    {
      "constant": true,
      "inputs": [
        {
          "name": "_token",
          "type": "address"
        }
      ],
      "name": "getProtocolFeeTokensHeld",
      "outputs": [
        {
          "name": "",
          "type": "uint256"
        }
      ],
      "payable": false,
      "stateMutability": "view",
      "type": "function"
    },
    {
      "constant": false,
      "inputs": [],
      "name": "acceptTokenOwnership",
      "outputs": [],
      "payable": false,
      "stateMutability": "nonpayable",
      "type": "function"
    },
    {
      "constant": false,
      "inputs": [
        {
          "name": "_token",
          "type": "address"
        },
        {
          "name": "_to",
          "type": "address"
        },
        {
          "name": "_amount",
          "type": "uint256"
        }
      ],
      "name": "withdrawFromAnchor",
      "outputs": [],
      "payable": false,
      "stateMutability": "nonpayable",
      "type": "function"
    },
    {
      "constant": true,
      "inputs": [],
      "name": "converterType",
      "outputs": [
        {
          "name": "",
          "type": "uint16"
        }
      ],
      "payable": false,
      "stateMutability": "pure",
      "type": "function"
    },
    {
      "constant": false,
      "inputs": [
        {
          "name": "_amount",
          "type": "uint256"
        }
      ],
      "name": "liquidate",
      "outputs": [],
      "payable": false,
      "stateMutability": "nonpayable",
      "type": "function"
    },
    {
      "constant": false,
      "inputs": [],
      "name": "updateRegistry",
      "outputs": [],
      "payable": false,
      "stateMutability": "nonpayable",
      "type": "function"
    },
    {
      "constant": false,
      "inputs": [
        {
          "name": "_whitelist",
          "type": "address"
        }
      ],
      "name": "setConversionWhitelist",
      "outputs": [],
      "payable": false,
      "stateMutability": "nonpayable",
      "type": "function"
    },
    {
      "constant": true,
      "inputs": [],
      "name": "version",
      "outputs": [
        {
          "name": "",
          "type": "uint16"
        }
      ],
      "payable": false,
      "stateMutability": "view",
      "type": "function"
    },
    {
      "constant": true,
      "inputs": [],
      "name": "conversionFee",
      "outputs": [
        {
          "name": "",
          "type": "uint32"
        }
      ],
      "payable": false,
      "stateMutability": "view",
      "type": "function"
    },
    {
      "constant": false,
      "inputs": [
        {
          "name": "_token",
          "type": "address"
        },
        {
          "name": "_to",
          "type": "address"
        },
        {
          "name": "_amount",
          "type": "uint256"
        }
      ],
      "name": "withdrawTokens",
      "outputs": [],
      "payable": false,
      "stateMutability": "nonpayable",
      "type": "function"
    },
    {
      "constant": true,
      "inputs": [],
      "name": "prevRegistry",
      "outputs": [
        {
          "name": "",
          "type": "address"
        }
      ],
      "payable": false,
      "stateMutability": "view",
      "type": "function"
    },
    {
      "constant": false,
      "inputs": [
        {
          "name": "_newOwner",
          "type": "address"
        }
      ],
      "name": "transferAnchorOwnership",
      "outputs": [],
      "payable": false,
      "stateMutability": "nonpayable",
      "type": "function"
    },
    {
      "constant": false,
      "inputs": [
        {
          "name": "_to",
          "type": "address"
        }
      ],
      "name": "withdrawETH",
      "outputs": [],
      "payable": false,
      "stateMutability": "nonpayable",
      "type": "function"
    },
    {
      "constant": false,
      "inputs": [
        {
          "name": "_token",
          "type": "address"
        },
        {
          "name": "_weight",
          "type": "uint32"
        }
      ],
      "name": "addReserve",
      "outputs": [],
      "payable": false,
      "stateMutability": "nonpayable",
      "type": "function"
    },
    {
      "constant": true,
      "inputs": [
        {
          "name": "_x",
          "type": "uint256"
        }
      ],
      "name": "decimalLength",
      "outputs": [
        {
          "name": "",
          "type": "uint256"
        }
      ],
      "payable": false,
      "stateMutability": "pure",
      "type": "function"
    },
    {
      "constant": true,
      "inputs": [],
      "name": "connectorTokenCount",
      "outputs": [
        {
          "name": "",
          "type": "uint16"
        }
      ],
      "payable": false,
      "stateMutability": "view",
      "type": "function"
    },
    {
      "constant": false,
      "inputs": [],
      "name": "acceptOwnership",
      "outputs": [],
      "payable": false,
      "stateMutability": "nonpayable",
      "type": "function"
    },
    {
      "constant": false,
      "inputs": [
        {
          "name": "_oracle",
          "type": "address"
        }
      ],
      "name": "setOracle",
      "outputs": [],
      "payable": false,
      "stateMutability": "nonpayable",
      "type": "function"
    },
    {
      "constant": true,
      "inputs": [],
      "name": "registry",
      "outputs": [
        {
          "name": "",
          "type": "address"
        }
      ],
      "payable": false,
      "stateMutability": "view",
      "type": "function"
    },
    {
      "constant": false,
      "inputs": [
        {
          "name": "_reserveTokens",
          "type": "address[]"
        },
        {
          "name": "_reserveAmounts",
          "type": "uint256[]"
        },
        {
          "name": "_minReturn",
          "type": "uint256"
        }
      ],
      "name": "addLiquidity",
      "outputs": [],
      "payable": true,
      "stateMutability": "payable",
      "type": "function"
    },
    {
      "constant": true,
      "inputs": [],
      "name": "oracle",
      "outputs": [
        {
          "name": "",
          "type": "address"
        }
      ],
      "payable": false,
      "stateMutability": "view",
      "type": "function"
    },
    {
      "constant": true,
      "inputs": [],
      "name": "owner",
      "outputs": [
        {
          "name": "",
          "type": "address"
        }
      ],
      "payable": false,
      "stateMutability": "view",
      "type": "function"
    },
    {
      "constant": true,
      "inputs": [],
      "name": "DENOMINATOR",
      "outputs": [
        {
          "name": "",
          "type": "uint256"
        }
      ],
      "payable": false,
      "stateMutability": "view",
      "type": "function"
    },
    {
      "constant": true,
      "inputs": [],
      "name": "maxConversionFee",
      "outputs": [
        {
          "name": "",
          "type": "uint32"
        }
      ],
      "payable": false,
      "stateMutability": "view",
      "type": "function"
    },
    {
      "constant": true,
      "inputs": [],
      "name": "reserveTokenCount",
      "outputs": [
        {
          "name": "",
          "type": "uint16"
        }
      ],
      "payable": false,
      "stateMutability": "view",
      "type": "function"
    },
    {
      "constant": true,
      "inputs": [],
      "name": "token0Decimal",
      "outputs": [
        {
          "name": "",
          "type": "uint256"
        }
      ],
      "payable": false,
      "stateMutability": "view",
      "type": "function"
    },
    {
      "constant": true,
      "inputs": [
        {
          "name": "_values",
          "type": "uint256[]"
        }
      ],
      "name": "geometricMean",
      "outputs": [
        {
          "name": "",
          "type": "uint256"
        }
      ],
      "payable": false,
      "stateMutability": "pure",
      "type": "function"
    },
    {
      "constant": true,
      "inputs": [
        {
          "name": "_sourceToken",
          "type": "address"
        },
        {
          "name": "_targetToken",
          "type": "address"
        },
        {
          "name": "_amount",
          "type": "uint256"
        }
      ],
      "name": "targetAmountAndFee",
      "outputs": [
        {
          "name": "",
          "type": "uint256"
        },
        {
          "name": "",
          "type": "uint256"
        }
      ],
      "payable": false,
      "stateMutability": "view",
      "type": "function"
    },
    {
      "constant": false,
      "inputs": [
        {
          "name": "_amount",
          "type": "uint256"
        },
        {
          "name": "_reserveTokens",
          "type": "address[]"
        },
        {
          "name": "_reserveMinReturnAmounts",
          "type": "uint256[]"
        }
      ],
      "name": "removeLiquidity",
      "outputs": [],
      "payable": false,
      "stateMutability": "nonpayable",
      "type": "function"
    },
    {
      "constant": false,
      "inputs": [],
      "name": "restoreRegistry",
      "outputs": [],
      "payable": false,
      "stateMutability": "nonpayable",
      "type": "function"
    },
    {
      "constant": true,
      "inputs": [
        {
          "name": "_n",
          "type": "uint256"
        },
        {
          "name": "_d",
          "type": "uint256"
        }
      ],
      "name": "roundDiv",
      "outputs": [
        {
          "name": "",
          "type": "uint256"
        }
      ],
      "payable": false,
      "stateMutability": "pure",
      "type": "function"
    },
    {
      "constant": true,
      "inputs": [],
      "name": "conversionsEnabled",
      "outputs": [
        {
          "name": "",
          "type": "bool"
        }
      ],
      "payable": false,
      "stateMutability": "view",
      "type": "function"
    },
    {
      "constant": true,
      "inputs": [],
      "name": "conversionWhitelist",
      "outputs": [
        {
          "name": "",
          "type": "address"
        }
      ],
      "payable": false,
      "stateMutability": "view",
      "type": "function"
    },
    {
      "constant": false,
      "inputs": [
        {
          "name": "_amount",
          "type": "uint256"
        }
      ],
      "name": "fund",
      "outputs": [],
      "payable": true,
      "stateMutability": "payable",
      "type": "function"
    },
    {
      "constant": false,
      "inputs": [],
      "name": "acceptAnchorOwnership",
      "outputs": [],
      "payable": false,
      "stateMutability": "nonpayable",
      "type": "function"
    },
    {
      "constant": true,
      "inputs": [
        {
          "name": "",
          "type": "uint256"
        }
      ],
      "name": "reserveTokens",
      "outputs": [
        {
          "name": "",
          "type": "address"
        }
      ],
      "payable": false,
      "stateMutability": "view",
      "type": "function"
    },
    {
      "constant": true,
      "inputs": [],
      "name": "isV28OrHigher",
      "outputs": [
        {
          "name": "",
          "type": "bool"
        }
      ],
      "payable": false,
      "stateMutability": "pure",
      "type": "function"
    },
    {
      "constant": true,
      "inputs": [],
      "name": "anchor",
      "outputs": [
        {
          "name": "",
          "type": "address"
        }
      ],
      "payable": false,
      "stateMutability": "view",
      "type": "function"
    },
    {
      "constant": true,
      "inputs": [],
      "name": "newOwner",
      "outputs": [
        {
          "name": "",
          "type": "address"
        }
      ],
      "payable": false,
      "stateMutability": "view",
      "type": "function"
    },
    {
      "constant": false,
      "inputs": [],
      "name": "upgrade",
      "outputs": [],
      "payable": false,
      "stateMutability": "nonpayable",
      "type": "function"
    },
    {
      "constant": true,
      "inputs": [
        {
          "name": "",
          "type": "address"
        }
      ],
      "name": "reserves",
      "outputs": [
        {
          "name": "balance",
          "type": "uint256"
        },
        {
          "name": "weight",
          "type": "uint32"
        },
        {
          "name": "deprecated1",
          "type": "bool"
        },
        {
          "name": "deprecated2",
          "type": "bool"
        },
        {
          "name": "isSet",
          "type": "bool"
        }
      ],
      "payable": false,
      "stateMutability": "view",
      "type": "function"
    },
    {
      "constant": true,
      "inputs": [
        {
          "name": "_connectorToken",
          "type": "address"
        }
      ],
      "name": "getConnectorBalance",
      "outputs": [
        {
          "name": "",
          "type": "uint256"
        }
      ],
      "payable": false,
      "stateMutability": "view",
      "type": "function"
    },
    {
      "constant": true,
      "inputs": [
        {
          "name": "_reserveToken",
          "type": "address"
        }
      ],
      "name": "reserveBalance",
      "outputs": [
        {
          "name": "",
          "type": "uint256"
        }
      ],
      "payable": false,
      "stateMutability": "view",
      "type": "function"
    },
    {
      "constant": false,
      "inputs": [
        {
          "name": "_sourceToken",
          "type": "address"
        },
        {
          "name": "_targetToken",
          "type": "address"
        },
        {
          "name": "_amount",
          "type": "uint256"
        },
        {
          "name": "_trader",
          "type": "address"
        },
        {
          "name": "_beneficiary",
          "type": "address"
        }
      ],
      "name": "convert",
      "outputs": [
        {
          "name": "",
          "type": "uint256"
        }
      ],
      "payable": true,
      "stateMutability": "payable",
      "type": "function"
    },
    {
      "constant": false,
      "inputs": [
        {
          "name": "_conversionFee",
          "type": "uint32"
        }
      ],
      "name": "setConversionFee",
      "outputs": [],
      "payable": false,
      "stateMutability": "nonpayable",
      "type": "function"
    },
    {
      "constant": true,
      "inputs": [
        {
          "name": "lpTokens",
          "type": "uint256"
        }
      ],
      "name": "getExpectedOutAmount",
      "outputs": [
        {
          "name": "amountOut",
          "type": "uint256[2]"
        }
      ],
      "payable": false,
      "stateMutability": "view",
      "type": "function"
    },
    {
      "constant": false,
      "inputs": [
        {
          "name": "_newOwner",
          "type": "address"
        }
      ],
      "name": "transferOwnership",
      "outputs": [],
      "payable": false,
      "stateMutability": "nonpayable",
      "type": "function"
    },
    {
      "constant": true,
      "inputs": [],
      "name": "token",
      "outputs": [
        {
          "name": "",
          "type": "address"
        }
      ],
      "payable": false,
      "stateMutability": "view",
      "type": "function"
    },
    {
      "inputs": [
        {
          "name": "_token",
          "type": "address"
        },
        {
          "name": "_registry",
          "type": "address"
        },
        {
          "name": "_maxConversionFee",
          "type": "uint32"
        }
      ],
      "payable": false,
      "stateMutability": "nonpayable",
      "type": "constructor"
    },
    {
      "payable": true,
      "stateMutability": "payable",
      "type": "fallback"
    },
    {
      "anonymous": false,
      "inputs": [
        {
          "indexed": true,
          "name": "_connectorToken",
          "type": "address"
        },
        {
          "indexed": false,
          "name": "_tokenSupply",
          "type": "uint256"
        },
        {
          "indexed": false,
          "name": "_connectorBalance",
          "type": "uint256"
        },
        {
          "indexed": false,
          "name": "_connectorWeight",
          "type": "uint32"
        }
      ],
      "name": "PriceDataUpdate",
      "type": "event"
    },
    {
      "anonymous": false,
      "inputs": [
        {
          "indexed": true,
          "name": "_provider",
          "type": "address"
        },
        {
          "indexed": true,
          "name": "_reserveToken",
          "type": "address"
        },
        {
          "indexed": false,
          "name": "_amount",
          "type": "uint256"
        },
        {
          "indexed": false,
          "name": "_newBalance",
          "type": "uint256"
        },
        {
          "indexed": false,
          "name": "_newSupply",
          "type": "uint256"
        }
      ],
      "name": "LiquidityAdded",
      "type": "event"
    },
    {
      "anonymous": false,
      "inputs": [
        {
          "indexed": true,
          "name": "_provider",
          "type": "address"
        },
        {
          "indexed": true,
          "name": "_reserveToken",
          "type": "address"
        },
        {
          "indexed": false,
          "name": "_amount",
          "type": "uint256"
        },
        {
          "indexed": false,
          "name": "_newBalance",
          "type": "uint256"
        },
        {
          "indexed": false,
          "name": "_newSupply",
          "type": "uint256"
        }
      ],
      "name": "LiquidityRemoved",
      "type": "event"
    },
    {
      "anonymous": false,
      "inputs": [
        {
          "indexed": true,
          "name": "_type",
          "type": "uint16"
        },
        {
          "indexed": true,
          "name": "_anchor",
          "type": "address"
        },
        {
          "indexed": true,
          "name": "_activated",
          "type": "bool"
        }
      ],
      "name": "Activation",
      "type": "event"
    },
    {
      "anonymous": false,
      "inputs": [
        {
          "indexed": true,
          "name": "_fromToken",
          "type": "address"
        },
        {
          "indexed": true,
          "name": "_toToken",
          "type": "address"
        },
        {
          "indexed": true,
          "name": "_trader",
          "type": "address"
        },
        {
          "indexed": false,
          "name": "_amount",
          "type": "uint256"
        },
        {
          "indexed": false,
          "name": "_return",
          "type": "uint256"
        },
        {
          "indexed": false,
          "name": "_conversionFee",
          "type": "int256"
        },
        {
          "indexed": false,
          "name": "_protocolFee",
          "type": "int256"
        }
      ],
      "name": "Conversion",
      "type": "event"
    },
    {
      "anonymous": false,
      "inputs": [
        {
          "indexed": true,
          "name": "_token1",
          "type": "address"
        },
        {
          "indexed": true,
          "name": "_token2",
          "type": "address"
        },
        {
          "indexed": false,
          "name": "_rateN",
          "type": "uint256"
        },
        {
          "indexed": false,
          "name": "_rateD",
          "type": "uint256"
        }
      ],
      "name": "TokenRateUpdate",
      "type": "event"
    },
    {
      "anonymous": false,
      "inputs": [
        {
          "indexed": false,
          "name": "_prevFee",
          "type": "uint32"
        },
        {
          "indexed": false,
          "name": "_newFee",
          "type": "uint32"
        }
      ],
      "name": "ConversionFeeUpdate",
      "type": "event"
    },
    {
      "anonymous": false,
      "inputs": [
        {
          "indexed": true,
          "name": "sender",
          "type": "address"
        },
        {
          "indexed": true,
          "name": "receiver",
          "type": "address"
        },
        {
          "indexed": false,
          "name": "token",
          "type": "address"
        },
        {
          "indexed": false,
          "name": "protocolFeeAmount",
          "type": "uint256"
        },
        {
          "indexed": false,
          "name": "wRBTCConverted",
          "type": "uint256"
        }
      ],
      "name": "WithdrawFees",
      "type": "event"
    },
    {
      "anonymous": false,
      "inputs": [
        {
          "indexed": true,
          "name": "_prevOwner",
          "type": "address"
        },
        {
          "indexed": true,
          "name": "_newOwner",
          "type": "address"
        }
      ],
      "name": "OwnerUpdate",
      "type": "event"
    }
  ],
  "bytecode": "0x60806040526001600455600980546001606060020a0319169055600b8054600160a060020a03191673c0829421c1d260bd3cb3e0f06cfe2d52db2ce3151790553480156200004c57600080fd5b5060405160608062005dad83398101604090815281516020830151919092015160008054600160a060020a0319163317905582828282828281806200009a8164010000000062000147810204565b5060028054600160a060020a03909216600160a060020a031992831681179091556003805490921617905582620000da8164010000000062000147810204565b81620000ef81640100000000620001c2810204565b505060058054600160a060020a03909416600160a060020a031990941693909317909255506009805463ffffffff9092166401000000000267ffffffff0000000019909216919091179055506200023b945050505050565b600160a060020a0381161515620001bf57604080517f08c379a000000000000000000000000000000000000000000000000000000000815260206004820152601360248201527f4552525f494e56414c49445f4144445245535300000000000000000000000000604482015290519081900360640190fd5b50565b620f424063ffffffff82161115620001bf57604080517f08c379a000000000000000000000000000000000000000000000000000000000815260206004820152601a60248201527f4552525f494e56414c49445f434f4e56455253494f4e5f464545000000000000604482015290519081900360640190fd5b615b62806200024b6000396000f3006080604052600436106102bb5763ffffffff60e060020a600035041663024c7ec78114610347578063064bda02146103615780630c7d5cd8146103945780630e53aae9146103c257806312c2aca414610417578063164e68de1461044057806319b64015146104615780631cfab290146104955780631e1401f8146104b657806321e6b53d146104f957806322f3e2d41461051a5780632fe8a6ad1461052f5780633266f45c146105445780633341e0061461055957806338a5e0161461057a578063395900d41461058f5780633e8ff43f146105b9578063415f1240146105e557806349d10b64146105fd5780634af80f0e1461061257806354fd4d5014610633578063579cd3ca146106485780635e35359e1461065d57806361cd756e1461068757806367b6d57c1461069c578063690d8320146106bd5780636a49d2c4146106de5780636aa5332c1461070857806371f52bf31461072057806379ba5097146107355780637adbf9731461074a5780637b1039991461076b5780637d8916bd146107805780637dc0d1d0146108035780638da5cb5b14610818578063918f86741461082d57806394c275ad146108425780639b99a8e2146108575780639ddc230a1461086c578063a60e772414610881578063af94b8d8146108d6578063b127c0a514610900578063b4a176d314610993578063bbb7e5d8146109a8578063bf754558146109c3578063c45d3d92146109d8578063ca1d209d146109ed578063cdc91c69146109f8578063d031370b14610a0d578063d260529c14610a25578063d3fb73b414610a3a578063d4ee1d9014610a4f578063d55ec69714610a64578063d66bd52414610a79578063d895951214610a9a578063dc8de37914610abb578063e8dc12ff14610adc578063ecbca55d14610b06578063f169a02114610b24578063f2fde38b14610b77578063fc0c546a14610b98575b600080516020615a9783398151915260005260086020527f353c2eb9e53a4a4a6d45d72082ff2e9dc829d1125618772a83eb0e7f86632c43546601000000000000900460ff161515610345576040805160e560020a62461bcd0281526020600482015260136024820152600080516020615a37833981519152604482015290519081900360640190fd5b005b34801561035357600080fd5b506103456004351515610bad565b34801561036d57600080fd5b50610382600160a060020a0360043516610bf5565b60408051918252519081900360200190f35b3480156103a057600080fd5b506103a9610c07565b6040805163ffffffff9092168252519081900360200190f35b3480156103ce57600080fd5b506103e3600160a060020a0360043516610c13565b6040805195865263ffffffff9094166020860152911515848401521515606084015215156080830152519081900360a00190f35b34801561042357600080fd5b5061042c610cae565b604080519115158252519081900360200190f35b34801561044c57600080fd5b50610382600160a060020a0360043516610cf7565b34801561046d57600080fd5b506104796004356112eb565b60408051600160a060020a039092168252519081900360200190f35b3480156104a157600080fd5b506103a9600160a060020a0360043516611317565b3480156104c257600080fd5b506104e0600160a060020a0360043581169060243516604435611349565b6040805192835260208301919091528051918290030190f35b34801561050557600080fd5b50610345600160a060020a0360043516611363565b34801561052657600080fd5b5061042c611377565b34801561053b57600080fd5b5061042c611411565b34801561055057600080fd5b50610382611432565b34801561056557600080fd5b50610382600160a060020a0360043516611438565b34801561058657600080fd5b50610345611453565b34801561059b57600080fd5b50610345600160a060020a0360043581169060243516604435611465565b3480156105c557600080fd5b506105ce611500565b6040805161ffff9092168252519081900360200190f35b3480156105f157600080fd5b50610345600435611505565b34801561060957600080fd5b50610345611749565b34801561061e57600080fd5b50610345600160a060020a0360043516611993565b34801561063f57600080fd5b506105ce6119c8565b34801561065457600080fd5b506103a96119cd565b34801561066957600080fd5b50610345600160a060020a03600435811690602435166044356119e5565b34801561069357600080fd5b50610479611aee565b3480156106a857600080fd5b50610345600160a060020a0360043516611afd565b3480156106c957600080fd5b50610345600160a060020a0360043516611ba0565b3480156106ea57600080fd5b50610345600160a060020a036004351663ffffffff60243516611ca5565b34801561071457600080fd5b50610382600435611db4565b34801561072c57600080fd5b506105ce611dd9565b34801561074157600080fd5b50610345611de8565b34801561075657600080fd5b50610345600160a060020a0360043516611e9c565b34801561077757600080fd5b50610479611ec6565b6040805160206004803580820135838102808601850190965280855261034595369593946024949385019291829185019084908082843750506040805187358901803560208181028481018201909552818452989b9a9989019892975090820195509350839250850190849080828437509497505093359450611ed59350505050565b34801561080f57600080fd5b506104796121d4565b34801561082457600080fd5b506104796121e3565b34801561083957600080fd5b506103826121f2565b34801561084e57600080fd5b506103a96121f8565b34801561086357600080fd5b506105ce61220c565b34801561087857600080fd5b50610382612212565b34801561088d57600080fd5b5060408051602060048035808201358381028086018501909652808552610382953695939460249493850192918291850190849080828437509497506122189650505050505050565b3480156108e257600080fd5b506104e0600160a060020a036004358116906024351660443561226e565b34801561090c57600080fd5b5060408051602060046024803582810135848102808701860190975280865261034596843596369660449591949091019291829185019084908082843750506040805187358901803560208181028481018201909552818452989b9a9989019892975090820195509350839250850190849080828437509497506124219650505050505050565b34801561099f57600080fd5b50610345612555565b3480156109b457600080fd5b50610382600435602435612581565b3480156109cf57600080fd5b5061042c61259b565b3480156109e457600080fd5b506104796125a0565b6103456004356125af565b348015610a0457600080fd5b50610345612ab4565b348015610a1957600080fd5b50610479600435612b0d565b348015610a3157600080fd5b5061042c611500565b348015610a4657600080fd5b50610479612b35565b348015610a5b57600080fd5b50610479612b44565b348015610a7057600080fd5b50610345612b53565b348015610a8557600080fd5b506103e3600160a060020a0360043516612c48565b348015610aa657600080fd5b50610382600160a060020a0360043516612c8e565b348015610ac757600080fd5b50610382600160a060020a0360043516612c9f565b610382600160a060020a036004358116906024358116906044359060643581169060843516612cc8565b348015610b1257600080fd5b5061034563ffffffff60043516612f1b565b348015610b3057600080fd5b50610b3c600435613010565b6040518082600260200280838360005b83811015610b64578181015183820152602001610b4c565b5050505090500191505060405180910390f35b348015610b8357600080fd5b50610345600160a060020a03600435166131d0565b348015610ba457600080fd5b50610479613260565b610bb561326f565b60038054911515740100000000000000000000000000000000000000000274ff000000000000000000000000000000000000000019909216919091179055565b600a6020526000908152604090205481565b60095463ffffffff1681565b6000806000806000610c236159ce565b50505050600160a060020a03929092166000908152600860209081526040808320815160a081018352815480825260019092015463ffffffff811694820185905260ff64010000000082048116151594830194909452650100000000008104841615156060830152660100000000000090049092161515608090920182905295919450919250829190565b600080516020615a9783398151915260005260086020527f353c2eb9e53a4a4a6d45d72082ff2e9dc829d1125618772a83eb0e7f86632c43546601000000000000900460ff1690565b6000806000806000806000806060610d0d6132bf565b600160a060020a03163314610d6c576040805160e560020a62461bcd02815260206004820152600c60248201527f756e617574686f72697a65640000000000000000000000000000000000000000604482015290519081900360640190fd5b610d957f536f7672796e537761704e6574776f726b0000000000000000000000000000006133d6565b9450600093505b6007548410156112cb576007805485908110610db457fe5b6000918252602080832090910154600160a060020a0316808352600a909152604082205490995097508711610de8576112c0565b600160a060020a0388166000908152600a6020526040812055610e09613458565b600160a060020a031688600160a060020a03161415610f505787600160a060020a031663095ea7b3610e396132bf565b896040518363ffffffff1660e060020a0281526004018083600160a060020a0316600160a060020a0316815260200182815260200192505050602060405180830381600087803b158015610e8c57600080fd5b505af1158015610ea0573d6000803e3d6000fd5b505050506040513d6020811015610eb657600080fd5b50610ec190506132bf565b600160a060020a031663abe979e1610ed7613458565b6040805160e060020a63ffffffff8516028152600160a060020a0390921660048301526bffffffffffffffffffffffff8b16602483015251604480830192600092919082900301818387803b158015610f2f57600080fd5b505af1158015610f43573d6000803e3d6000fd5b505050506000925061126e565b610f5861353e565b600160a060020a031688600160a060020a03161415610f795786925061125b565b87600160a060020a031663095ea7b3610fb17f536f7672796e537761704e6574776f726b0000000000000000000000000000006133d6565b896040518363ffffffff1660e060020a0281526004018083600160a060020a0316600160a060020a0316815260200182815260200192505050602060405180830381600087803b15801561100457600080fd5b505af1158015611018573d6000803e3d6000fd5b505050506040513d602081101561102e57600080fd5b50519150811515611089576040805160e560020a62461bcd02815260206004820152601360248201527f4552525f415050524f56414c5f4641494c454400000000000000000000000000604482015290519081900360640190fd5b84600160a060020a031663d734fa19896110a161353e565b6040518363ffffffff1660e060020a0281526004018083600160a060020a0316600160a060020a0316815260200182600160a060020a0316600160a060020a0316815260200192505050600060405180830381600087803b15801561110557600080fd5b505af1158015611119573d6000803e3d6000fd5b505050506040513d6000823e601f3d908101601f19168201604052602081101561114257600080fd5b81019080805164010000000081111561115a57600080fd5b8201602081018481111561116d57600080fd5b815185602082028301116401000000008211171561118a57600080fd5b5050929190505050905084600160a060020a031663f3898a97828960016040518463ffffffff1660e060020a0281526004018080602001848152602001838152602001828103825285818151815260200191508051906020019060200280838360005b838110156112055781810151838201526020016111ed565b50505050905001945050505050602060405180830381600087803b15801561122c57600080fd5b505af1158015611240573d6000803e3d6000fd5b505050506040513d602081101561125657600080fd5b505192505b61126b868463ffffffff61362416565b95505b60408051600160a060020a038a81168252602082018a90528183018690529151918c169133917f3953f559f015828db2bd3868682d85a85c6e24c3f05fb4e927797d7c007b3673919081900360600190a35b600190930192610d9c565b6112dd6112d661353e565b8b88613688565b509398975050505050505050565b60006007828154811015156112fc57fe5b600091825260209091200154600160a060020a031692915050565b6000816113238161373f565b5050600160a060020a031660009081526008602052604090206001015463ffffffff1690565b60008061135785858561226e565b91509150935093915050565b61136b61326f565b61137481611afd565b50565b600030600160a060020a0316600560009054906101000a9004600160a060020a0316600160a060020a0316638da5cb5b6040518163ffffffff1660e060020a028152600401602060405180830381600087803b1580156113d657600080fd5b505af11580156113ea573d6000803e3d6000fd5b505050506040513d602081101561140057600080fd5b5051600160a060020a031614905090565b60035474010000000000000000000000000000000000000000900460ff1681565b600e5481565b600160a060020a03166000908152600a602052604090205490565b61145b61326f565b611463612ab4565b565b61146d61326f565b600554604080517f5e35359e000000000000000000000000000000000000000000000000000000008152600160a060020a03868116600483015285811660248301526044820185905291519190921691635e35359e91606480830192600092919082900301818387803b1580156114e357600080fd5b505af11580156114f7573d6000803e3d6000fd5b50505050505050565b600190565b6000606060006115136137ac565b600260045560008411611570576040805160e560020a62461bcd02815260206004820152600f60248201527f4552525f5a45524f5f414d4f554e540000000000000000000000000000000000604482015290519081900360640190fd5b600560009054906101000a9004600160a060020a0316600160a060020a03166318160ddd6040518163ffffffff1660e060020a028152600401602060405180830381600087803b1580156115c357600080fd5b505af11580156115d7573d6000803e3d6000fd5b505050506040513d60208110156115ed57600080fd5b5051600554604080517fa24835d1000000000000000000000000000000000000000000000000000000008152336004820152602481018890529051929550600160a060020a039091169163a24835d19160448082019260009290919082900301818387803b15801561165e57600080fd5b505af1158015611672573d6000803e3d6000fd5b505050506007805490506040519080825280602002602001820160405280156116a5578160200160208202803883390190505b509150600090505b81518110156116d857600182828151811015156116c657fe5b602090810290910101526001016116ad565b61173e600780548060200260200160405190810160405280929190818152602001828054801561173157602002820191906000526020600020905b8154600160a060020a03168152600190910190602001808311611713575b5050505050838587613806565b505060016004555050565b60008054600160a060020a031633148061177e575060035474010000000000000000000000000000000000000000900460ff16155b15156117c2576040805160e560020a62461bcd0281526020600482015260116024820152600080516020615af7833981519152604482015290519081900360640190fd5b6117eb7f436f6e74726163745265676973747279000000000000000000000000000000006133d6565b600254909150600160a060020a038083169116148015906118145750600160a060020a03811615155b151561186a576040805160e560020a62461bcd02815260206004820152601460248201527f4552525f494e56414c49445f5245474953545259000000000000000000000000604482015290519081900360640190fd5b6040805160e260020a632ecd14d30281527f436f6e747261637452656769737472790000000000000000000000000000000060048201529051600091600160a060020a0384169163bb34534c9160248082019260209290919082900301818787803b1580156118d857600080fd5b505af11580156118ec573d6000803e3d6000fd5b505050506040513d602081101561190257600080fd5b5051600160a060020a03161415611963576040805160e560020a62461bcd02815260206004820152601460248201527f4552525f494e56414c49445f5245474953545259000000000000000000000000604482015290519081900360640190fd5b6002805460038054600160a060020a03808416600160a060020a0319928316179092559091169216919091179055565b61199b61326f565b806119a581613acb565b5060068054600160a060020a031916600160a060020a0392909216919091179055565b602081565b60095468010000000000000000900463ffffffff1681565b60006119ef6137ac565b60026004556119fc61326f565b611a13600080516020615a778339815191526133d6565b600160a060020a0385166000908152600860205260409020600101549091506601000000000000900460ff161580611a505750611a4e611377565b155b80611a685750600054600160a060020a038281169116145b1515611aac576040805160e560020a62461bcd0281526020600482015260116024820152600080516020615af7833981519152604482015290519081900360640190fd5b611ab7848484613b2c565b600160a060020a0384166000908152600860205260409020600101546601000000000000900460ff161561173e5761173e84613b5d565b600354600160a060020a031681565b611b0561326f565b600080516020615a77833981519152611b1d81613c74565b600554604080517ff2fde38b000000000000000000000000000000000000000000000000000000008152600160a060020a0385811660048301529151919092169163f2fde38b91602480830192600092919082900301818387803b158015611b8457600080fd5b505af1158015611b98573d6000803e3d6000fd5b505050505050565b6000611baa6137ac565b6002600455611bb761326f565b600080516020615a97833981519152611bcf8161373f565b611be6600080516020615a778339815191526133d6565b9150611bf0611377565b1580611c095750600054600160a060020a038381169116145b1515611c4d576040805160e560020a62461bcd0281526020600482015260116024820152600080516020615af7833981519152604482015290519081900360640190fd5b604051600160a060020a03841690303180156108fc02916000818181858888f19350505050158015611c83573d6000803e3d6000fd5b50611c9b600080516020615a97833981519152613b5d565b5050600160045550565b600080611cb061220c565b61ffff16915060028210611cfc576040805160e560020a62461bcd0281526020600482015260196024820152600080516020615b17833981519152604482015290519081900360640190fd5b506012600160a060020a038416600080516020615a9783398151915214611d8d5783600160a060020a031663313ce5676040518163ffffffff1660e060020a028152600401602060405180830381600087803b158015611d5b57600080fd5b505af1158015611d6f573d6000803e3d6000fd5b505050506040513d6020811015611d8557600080fd5b505160ff1690505b811515611d9e57600d819055611da4565b600e8190555b611dae8484613cca565b50505050565b600080825b6000811115611dd25760019190910190600a9004611db9565b5092915050565b6000611de361220c565b905090565b600154600160a060020a03163314611e38576040805160e560020a62461bcd0281526020600482015260116024820152600080516020615af7833981519152604482015290519081900360640190fd5b60015460008054604051600160a060020a0393841693909116917f343765429aea5a34b3ff6a3785a98a5abb2597aca87bfbb58632c173d585373a91a36001805460008054600160a060020a0319908116600160a060020a03841617909155169055565b611ea461326f565b600c8054600160a060020a031916600160a060020a0392909216919091179055565b600254600160a060020a031681565b6000806000611ee26137ac565b6002600455611eef613eea565b611efa868686613f48565b600092505b8551831015611fb8578551600080516020615a9783398151915290879085908110611f2657fe5b90602001906020020151600160a060020a03161415611fad57348584815181101515611f4e57fe5b6020908102909101015114611fad576040805160e560020a62461bcd02815260206004820152601760248201527f4552525f4554485f414d4f554e545f4d49534d41544348000000000000000000604482015290519081900360640190fd5b600190920191611eff565b600034111561205d57600080516020615a9783398151915260005260086020527f353c2eb9e53a4a4a6d45d72082ff2e9dc829d1125618772a83eb0e7f86632c43546601000000000000900460ff16151561205d576040805160e560020a62461bcd02815260206004820152601260248201527f4552525f4e4f5f4554485f524553455256450000000000000000000000000000604482015290519081900360640190fd5b600560009054906101000a9004600160a060020a0316600160a060020a03166318160ddd6040518163ffffffff1660e060020a028152600401602060405180830381600087803b1580156120b057600080fd5b505af11580156120c4573d6000803e3d6000fd5b505050506040513d60208110156120da57600080fd5b505191506120e9868684614204565b905083811015612143576040805160e560020a62461bcd02815260206004820152601260248201527f4552525f52455455524e5f544f4f5f4c4f570000000000000000000000000000604482015290519081900360640190fd5b600554604080517f867904b4000000000000000000000000000000000000000000000000000000008152336004820152602481018490529051600160a060020a039092169163867904b49160448082019260009290919082900301818387803b1580156121af57600080fd5b505af11580156121c3573d6000803e3d6000fd5b505060016004555050505050505050565b600c54600160a060020a031681565b600054600160a060020a031681565b6103e881565b600954640100000000900463ffffffff1681565b60075490565b600d5481565b80516000908190815b8181101561225557612249858281518110151561223a57fe5b90602001906020020151611db4565b90920191600101612221565b60016122618484612581565b03600a0a95945050505050565b60008060008061227c613eea565b866122868161373f565b866122908161373f565b600160a060020a0389811690891614156122f4576040805160e560020a62461bcd02815260206004820152601660248201527f4552525f53414d455f534f555243455f54415247455400000000000000000000604482015290519081900360640190fd5b61230b600080516020615ab78339815191526133d6565b600160a060020a03166394491fab6123228b612c9f565b600160a060020a038c1660009081526008602052604090206001015463ffffffff1661234d8c612c9f565b600160a060020a038d16600090815260086020908152604080832060010154815163ffffffff89811660e060020a028252600482019890985295871660248701526044860194909452949092166064840152608483018d9052925160a48084019492939192918390030190829087803b1580156123c957600080fd5b505af11580156123dd573d6000803e3d6000fd5b505050506040513d60208110156123f357600080fd5b5051935061240084614231565b9250612412848463ffffffff61426d16565b99929850919650505050505050565b600061242b6137ac565b6002600455612438613eea565b612443838386613f48565b600560009054906101000a9004600160a060020a0316600160a060020a03166318160ddd6040518163ffffffff1660e060020a028152600401602060405180830381600087803b15801561249657600080fd5b505af11580156124aa573d6000803e3d6000fd5b505050506040513d60208110156124c057600080fd5b5051600554604080517fa24835d1000000000000000000000000000000000000000000000000000000008152336004820152602481018890529051929350600160a060020a039091169163a24835d19160448082019260009290919082900301818387803b15801561253157600080fd5b505af1158015612545573d6000803e3d6000fd5b5050505061173e83838387613806565b61255d61326f565b60035460028054600160a060020a031916600160a060020a03909216919091179055565b60008160028104840181151561259357fe5b049392505050565b600181565b600654600160a060020a031681565b6000806000806000806000806000806125c66137ac565b60026004556125d36142cd565b600080516020615a978339815191526000526008602052600080516020615a578339815191525461260a903463ffffffff61426d16565b600080516020615a97833981519152600090815260086020908152600080516020615a5783398151915292909255600554604080517f18160ddd0000000000000000000000000000000000000000000000000000000081529051600160a060020a03909216936318160ddd9360048084019492938390030190829087803b15801561269457600080fd5b505af11580156126a8573d6000803e3d6000fd5b505050506040513d60208110156126be57600080fd5b505199506126d9600080516020615ab78339815191526133d6565b6007549099509750600096505b87871015612a1e5760078054889081106126fc57fe5b9060005260206000200160009054906101000a9004600160a060020a031695506008600087600160a060020a0316600160a060020a0316815260200190815260200160002060000154945088600160a060020a031663ebbb21588b87600960009054906101000a900463ffffffff168f6040518563ffffffff1660e060020a028152600401808581526020018481526020018363ffffffff1663ffffffff168152602001828152602001945050505050602060405180830381600087803b1580156127c657600080fd5b505af11580156127da573d6000803e3d6000fd5b505050506040513d60208110156127f057600080fd5b50519350600160a060020a038616600080516020615a97833981519152141561294a57833411156128505760405133903486900380156108fc02916000818181858888f1935050505015801561284a573d6000803e3d6000fd5b50612945565b833410156129455734156128ae576040805160e560020a62461bcd02815260206004820152601560248201527f4552525f494e56414c49445f4554485f56414c55450000000000000000000000604482015290519081900360640190fd5b600b546128c690600160a060020a031633308761430f565b600b54604080517f2e1a7d4d000000000000000000000000000000000000000000000000000000008152600481018790529051600160a060020a0390921691632e1a7d4d9160248082019260009290919082900301818387803b15801561292c57600080fd5b505af1158015612940573d6000803e3d6000fd5b505050505b612956565b6129568633308761430f565b612966858563ffffffff61362416565b600160a060020a038716600090815260086020526040902081905592506129938a8c63ffffffff61362416565b60408051868152602081018690528082018390529051919350600160a060020a0388169133917f4a1a2a6176e9646d9e3157f7c2ab3c499f18337c0b0828cfb28e0a61de4a11f7919081900360600190a350600160a060020a03851660009081526008602052604090206001015463ffffffff16612a13828785846143f1565b6001909601956126e6565b600554604080517f867904b4000000000000000000000000000000000000000000000000000000008152336004820152602481018e90529051600160a060020a039092169163867904b49160448082019260009290919082900301818387803b158015612a8a57600080fd5b505af1158015612a9e573d6000803e3d6000fd5b5050600160045550505050505050505050505050565b612abc61326f565b612ac4614460565b600554600190600160a060020a0316612adb611500565b61ffff167f6b08c2e2c9969e55a647a764db9b554d64dc42f1a704da11a6d5b129ad163f2c60405160405180910390a4565b6007805482908110612b1b57fe5b600091825260209091200154600160a060020a0316905081565b600554600160a060020a031681565b600154600160a060020a031681565b6000612b5d61326f565b612b74600080516020615a778339815191526133d6565b600554909150600090600160a060020a0316612b8e611500565b61ffff167f6b08c2e2c9969e55a647a764db9b554d64dc42f1a704da11a6d5b129ad163f2c60405160405180910390a4612bc7816131d0565b604080517f90f58c96000000000000000000000000000000000000000000000000000000008152602060048201529051600160a060020a038316916390f58c9691602480830192600092919082900301818387803b158015612c2857600080fd5b505af1158015612c3c573d6000803e3d6000fd5b50505050611374611de8565b6008602052600090815260409020805460019091015463ffffffff81169060ff640100000000820481169165010000000000810482169166010000000000009091041685565b6000612c9982612c9f565b92915050565b600081612cab8161373f565b5050600160a060020a031660009081526008602052604090205490565b6000612cd26137ac565b60026004557f536f7672796e537761704e6574776f726b000000000000000000000000000000612d0181613c74565b600160a060020a038781169087161415612d65576040805160e560020a62461bcd02815260206004820152601660248201527f4552525f53414d455f534f555243455f54415247455400000000000000000000604482015290519081900360640190fd5b600654600160a060020a03161580612ea85750600654604080517f3af32abf000000000000000000000000000000000000000000000000000000008152600160a060020a03878116600483015291519190921691633af32abf9160248083019260209291908290030181600087803b158015612de057600080fd5b505af1158015612df4573d6000803e3d6000fd5b505050506040513d6020811015612e0a57600080fd5b50518015612ea85750600654604080517f3af32abf000000000000000000000000000000000000000000000000000000008152600160a060020a03868116600483015291519190921691633af32abf9160248083019260209291908290030181600087803b158015612e7b57600080fd5b505af1158015612e8f573d6000803e3d6000fd5b505050506040513d6020811015612ea557600080fd5b50515b1515612efe576040805160e560020a62461bcd02815260206004820152601360248201527f4552525f4e4f545f57484954454c495354454400000000000000000000000000604482015290519081900360640190fd5b612f0b87878787876144b9565b6001600455979650505050505050565b612f2361326f565b60095463ffffffff64010000000090910481169082161115612f8f576040805160e560020a62461bcd02815260206004820152601a60248201527f4552525f494e56414c49445f434f4e56455253494f4e5f464545000000000000604482015290519081900360640190fd5b6009546040805163ffffffff6801000000000000000090930483168152918316602083015280517f81cd2ffb37dd237c0e4e2a3de5265fcf9deb43d3e7801e80db9f1ccfba7ee6009281900390910190a16009805463ffffffff90921668010000000000000000026bffffffff000000000000000019909216919091179055565b6130186159fc565b600080600080600080613038600080516020615ab78339815191526133d6565b9550600560009054906101000a9004600160a060020a0316600160a060020a03166318160ddd6040518163ffffffff1660e060020a028152600401602060405180830381600087803b15801561308d57600080fd5b505af11580156130a1573d6000803e3d6000fd5b505050506040513d60208110156130b757600080fd5b50516007549095509350600092505b838310156131c55760078054849081106130dc57fe5b6000918252602080832090910154600160a060020a039081168084526008835260408085205460095482517f8074590a000000000000000000000000000000000000000000000000000000008152600481018d90526024810183905263ffffffff9091166044820152606481018f905291519297509550918a1693638074590a93608480850194919392918390030190829087803b15801561317d57600080fd5b505af1158015613191573d6000803e3d6000fd5b505050506040513d60208110156131a757600080fd5b50518784600281106131b557fe5b60200201526001909201916130c6565b505050505050919050565b6131d861326f565b600054600160a060020a038281169116141561323e576040805160e560020a62461bcd02815260206004820152600e60248201527f4552525f53414d455f4f574e4552000000000000000000000000000000000000604482015290519081900360640190fd5b60018054600160a060020a031916600160a060020a0392909216919091179055565b600554600160a060020a031690565b600054600160a060020a03163314611463576040805160e560020a62461bcd0281526020600482015260116024820152600080516020615af7833981519152604482015290519081900360640190fd5b6002546040805160e260020a632ecd14d3028152600080516020615ad783398151915260048201529051600092600160a060020a03169163bb34534c91602480830192602092919082900301818787803b15801561331c57600080fd5b505af1158015613330573d6000803e3d6000fd5b505050506040513d602081101561334657600080fd5b5051604080517fe8f627640000000000000000000000000000000000000000000000000000000081529051600160a060020a039092169163e8f62764916004808201926020929091908290030181600087803b1580156133a557600080fd5b505af11580156133b9573d6000803e3d6000fd5b505050506040513d60208110156133cf57600080fd5b5051905090565b6002546040805160e260020a632ecd14d3028152600481018490529051600092600160a060020a03169163bb34534c91602480830192602092919082900301818787803b15801561342657600080fd5b505af115801561343a573d6000803e3d6000fd5b505050506040513d602081101561345057600080fd5b505192915050565b6002546040805160e260020a632ecd14d3028152600080516020615ad783398151915260048201529051600092600160a060020a03169163bb34534c91602480830192602092919082900301818787803b1580156134b557600080fd5b505af11580156134c9573d6000803e3d6000fd5b505050506040513d60208110156134df57600080fd5b5051604080517fb9cffa3e0000000000000000000000000000000000000000000000000000000081529051600160a060020a039092169163b9cffa3e916004808201926020929091908290030181600087803b1580156133a557600080fd5b6002546040805160e260020a632ecd14d3028152600080516020615ad783398151915260048201529051600092600160a060020a03169163bb34534c91602480830192602092919082900301818787803b15801561359b57600080fd5b505af11580156135af573d6000803e3d6000fd5b505050506040513d60208110156135c557600080fd5b5051604080517f99a752b50000000000000000000000000000000000000000000000000000000081529051600160a060020a03909216916399a752b5916004808201926020929091908290030181600087803b1580156133a557600080fd5b600082820183811015613681576040805160e560020a62461bcd02815260206004820152600c60248201527f4552525f4f564552464c4f570000000000000000000000000000000000000000604482015290519081900360640190fd5b9392505050565b604080517f7472616e7366657228616464726573732c75696e74323536290000000000000081528151908190036019018120600160a060020a038516602483015260448083018590528351808403909101815260649092019092526020810180517bffffffffffffffffffffffffffffffffffffffffffffffffffffffff167bffffffffffffffffffffffffffffffffffffffffffffffffffffffff199093169290921790915261373a9084906147f4565b505050565b600160a060020a0381166000908152600860205260409020600101546601000000000000900460ff161515611374576040805160e560020a62461bcd0281526020600482015260136024820152600080516020615a37833981519152604482015290519081900360640190fd5b600454600114611463576040805160e560020a62461bcd02815260206004820152600e60248201527f4552525f5245454e5452414e4359000000000000000000000000000000000000604482015290519081900360640190fd5b60008060008060008060008061381a6142cd565b613831600080516020615ab78339815191526133d6565b97506138438a8a63ffffffff61426d16565b9650600095505b8b51861015613abd578b8681518110151561386157fe5b9060200190602002015194506008600086600160a060020a0316600160a060020a0316815260200190815260200160002060000154935087600160a060020a0316638074590a8b86600960009054906101000a900463ffffffff168d6040518563ffffffff1660e060020a028152600401808581526020018481526020018363ffffffff1663ffffffff168152602001828152602001945050505050602060405180830381600087803b15801561391757600080fd5b505af115801561392b573d6000803e3d6000fd5b505050506040513d602081101561394157600080fd5b50518b519093508b908790811061395457fe5b602090810290910101518310156139b5576040805160e560020a62461bcd02815260206004820152601660248201527f4552525f5a45524f5f5441524745545f414d4f554e5400000000000000000000604482015290519081900360640190fd5b6139c5848463ffffffff61426d16565b600160a060020a0386166000818152600860205260409020829055909250600080516020615a978339815191521415613a2b57604051339084156108fc029085906000818181858888f19350505050158015613a25573d6000803e3d6000fd5b50613a36565b613a36853385613688565b60408051848152602081018490528082018990529051600160a060020a0387169133917fbc7d19d505c7ec4db83f3b51f19fb98c4c8a99922e7839d1ee608dfbee29501b9181900360600190a350600160a060020a03841660009081526008602052604090206001015463ffffffff16613ab2878684846143f1565b60019095019461384a565b505050505050505050505050565b600160a060020a038116301415611374576040805160e560020a62461bcd02815260206004820152601360248201527f4552525f414444524553535f49535f53454c4600000000000000000000000000604482015290519081900360640190fd5b613b3461326f565b82613b3e81614882565b82613b4881614882565b83613b5281613acb565b611b98868686613688565b80613b678161373f565b600160a060020a038216600080516020615a978339815191521415613ba757600160a060020a038216600090815260086020526040902030319055613c70565b600160a060020a0382166000818152600a602090815260408083205481517f70a082310000000000000000000000000000000000000000000000000000000081523060048201529151613c5695919491936370a0823193602480820194929392918390030190829087803b158015613c1e57600080fd5b505af1158015613c32573d6000803e3d6000fd5b505050506040513d6020811015613c4857600080fd5b50519063ffffffff61426d16565b600160a060020a0383166000908152600860205260409020555b5050565b613c7d816133d6565b600160a060020a03163314611374576040805160e560020a62461bcd0281526020600482015260116024820152600080516020615af7833981519152604482015290519081900360640190fd5b6000613cd461326f565b613cdc6148e2565b82613ce681614882565b83613cf081613acb565b83613cfa8161493f565b600554600160a060020a03878116911614801590613d3e5750600160a060020a0386166000908152600860205260409020600101546601000000000000900460ff16155b1515613d82576040805160e560020a62461bcd0281526020600482015260136024820152600080516020615a37833981519152604482015290519081900360640190fd5b60095463ffffffff908116620f42400381169086161115613ded576040805160e560020a62461bcd02815260206004820152601a60248201527f4552525f494e56414c49445f524553455256455f574549474854000000000000604482015290519081900360640190fd5b61ffff613df861220c565b61ffff1610613e3f576040805160e560020a62461bcd0281526020600482015260196024820152600080516020615b17833981519152604482015290519081900360640190fd5b505050600160a060020a0390921660008181526008602052604081208181556001908101805466ff0000000000001963ffffffff80881663ffffffff1993841617919091166601000000000000179092556007805493840181559093527fa66cc928b5edb82af9bd49922954155ab7b0942694bea4ce44661d9a8736c6889091018054600160a060020a03191690931790925560098054808416909401909216921691909117905550565b613ef2611377565b1515611463576040805160e560020a62461bcd02815260206004820152600c60248201527f4552525f494e4143544956450000000000000000000000000000000000000000604482015290519081900360640190fd5b600754835160009182918114613f96576040805160e560020a62461bcd0281526020600482015260136024820152600080516020615a37833981519152604482015290519081900360640190fd5b84518114613fee576040805160e560020a62461bcd02815260206004820152601260248201527f4552525f494e56414c49445f414d4f554e540000000000000000000000000000604482015290519081900360640190fd5b600092505b808310156141ac5760086000878581518110151561400d57fe5b6020908102909101810151600160a060020a031682528101919091526040016000206001015460ff6601000000000000909104161515614085576040805160e560020a62461bcd0281526020600482015260136024820152600080516020615a37833981519152604482015290519081900360640190fd5b600091505b808210156140ed5785828151811015156140a057fe5b90602001906020020151600160a060020a03166007848154811015156140c257fe5b600091825260209091200154600160a060020a031614156140e2576140ed565b60019091019061408a565b808210614132576040805160e560020a62461bcd0281526020600482015260136024820152600080516020615a37833981519152604482015290519081900360640190fd5b6000858481518110151561414257fe5b60209081029091010151116141a1576040805160e560020a62461bcd02815260206004820152601260248201527f4552525f494e56414c49445f414d4f554e540000000000000000000000000000604482015290519081900360640190fd5b600190920191613ff3565b60008411611b98576040805160e560020a62461bcd02815260206004820152600f60248201527f4552525f5a45524f5f414d4f554e540000000000000000000000000000000000604482015290519081900360640190fd5b600081151561421e5761421784846149b4565b9050613681565b614229848484614bbb565b949350505050565b600954600090612c9990620f42409061426190859068010000000000000000900463ffffffff90811690614f7b16565b9063ffffffff614ff416565b6000818310156142c7576040805160e560020a62461bcd02815260206004820152600d60248201527f4552525f554e444552464c4f5700000000000000000000000000000000000000604482015290519081900360640190fd5b50900390565b60075460005b81811015613c70576143076007828154811015156142ed57fe5b600091825260209091200154600160a060020a0316613b5d565b6001016142d3565b604080517f7472616e7366657246726f6d28616464726573732c616464726573732c75696e81527f74323536290000000000000000000000000000000000000000000000000000006020808301919091528251918290036025018220600160a060020a038088166024850152861660448401526064808401869052845180850390910181526084909301909352810180517bffffffffffffffffffffffffffffffffffffffffffffffffffffffff167bffffffffffffffffffffffffffffffffffffffffffffffffffffffff1990931692909217909152611dae9085906147f4565b600554600160a060020a0380851691167f77f29993cf2c084e726f7e802da0719d6a0ade3e204badc7a3ffd57ecb768c2461442f85620f4240614f7b565b6144428863ffffffff80881690614f7b16565b6040805192835260208301919091528051918290030190a350505050565b600161446a61220c565b61ffff16116144b1576040805160e560020a62461bcd0281526020600482015260196024820152600080516020615b17833981519152604482015290519081900360640190fd5b611463615062565b600c546000908190819081908190600160a060020a0316156144dd576144dd61512e565b6144e88a8a8a61226e565b935093506144f589612c9f565b915081841061450057fe5b600160a060020a038a16600080516020615a97833981519152141561457b57348814614576576040805160e560020a62461bcd02815260206004820152601760248201527f4552525f4554485f414d4f554e545f4d49534d41544348000000000000000000604482015290519081900360640190fd5b61466f565b341580156146195750600160a060020a038a166000908152600a602052604090205488906146169061460a6145af8e612c9f565b8e600160a060020a03166370a08231306040518263ffffffff1660e060020a0281526004018082600160a060020a0316600160a060020a03168152602001915050602060405180830381600087803b158015613c1e57600080fd5b9063ffffffff61426d16565b10155b151561466f576040805160e560020a62461bcd02815260206004820152601260248201527f4552525f494e56414c49445f414d4f554e540000000000000000000000000000604482015290519081900360640190fd5b6146788a613b5d565b61468183615456565b600160a060020a038a166000908152600a60205260409020549091506146ad908263ffffffff61362416565b600160a060020a038a166000908152600a60209081526040808320939093556008905220546146e890829061460a908763ffffffff61426d16565b600160a060020a038a16600090815260086020526040902055831515614758576040805160e560020a62461bcd02815260206004820152601660248201527f4552525f5a45524f5f5441524745545f414d4f554e5400000000000000000000604482015290519081900360640190fd5b600160a060020a038916600080516020615a9783398151915214156147b357604051600160a060020a0387169085156108fc029086906000818181858888f193505050501580156147ad573d6000803e3d6000fd5b506147be565b6147be898786613688565b6147dc8a8a898b886147d6898863ffffffff61426d16565b87615490565b6147e68a8a61551d565b509198975050505050505050565b6147fc615a17565b602060405190810160405280600181525090506020818351602085016000875af180151561482957600080fd5b508051151561373a576040805160e560020a62461bcd02815260206004820152601360248201527f4552525f5452414e534645525f4641494c454400000000000000000000000000604482015290519081900360640190fd5b600160a060020a0381161515611374576040805160e560020a62461bcd02815260206004820152601360248201527f4552525f494e56414c49445f4144445245535300000000000000000000000000604482015290519081900360640190fd5b6148ea611377565b15611463576040805160e560020a62461bcd02815260206004820152600a60248201527f4552525f41435449564500000000000000000000000000000000000000000000604482015290519081900360640190fd5b60008163ffffffff1611801561495e5750620f424063ffffffff821611155b1515611374576040805160e560020a62461bcd02815260206004820152601a60248201527f4552525f494e56414c49445f524553455256455f574549474854000000000000604482015290519081900360640190fd5b6000806000806149c385612218565b9250600091505b8551821015614bb1578551600080516020615a97833981519152908790849081106149f157fe5b60209081029091010151600160a060020a031614614a4357614a438683815181101515614a1a57fe5b9060200190602002015133308886815181101515614a3457fe5b9060200190602002015161430f565b8482815181101515614a5157fe5b90602001906020020151600860008885815181101515614a6d57fe5b6020908102909101810151600160a060020a03168252810191909152604001600020558551869083908110614a9e57fe5b90602001906020020151600160a060020a031633600160a060020a03167f4a1a2a6176e9646d9e3157f7c2ab3c499f18337c0b0828cfb28e0a61de4a11f78785815181101515614aea57fe5b906020019060200201518886815181101515614b0257fe5b60209081029091018101516040805193845291830152818101889052519081900360600190a3600860008784815181101515614b3a57fe5b6020908102909101810151600160a060020a0316825281019190915260400160002060010154865163ffffffff9091169150614ba6908490889085908110614b7e57fe5b906020019060200201518785815181101515614b9657fe5b90602001906020020151846143f1565b6001909101906149ca565b5090949350505050565b600080600080600080600080600080614bd26142cd565b600080516020615a978339815191526000526008602052600080516020615a5783398151915254614c09903463ffffffff61426d16565b600080516020615a978339815191526000526008602052600080516020615a5783398151915255614c47600080516020615ab78339815191526133d6565b9850614c55898c8f8f61572b565b9750614c678b8963ffffffff61362416565b9650600095505b8c51861015614f6a578c86815181101515614c8557fe5b9060200190602002015194506008600086600160a060020a0316600160a060020a0316815260200190815260200160002060000154935088600160a060020a031663ebbb21588c86600960009054906101000a900463ffffffff168c6040518563ffffffff1660e060020a028152600401808581526020018481526020018363ffffffff1663ffffffff168152602001828152602001945050505050602060405180830381600087803b158015614d3b57600080fd5b505af1158015614d4f573d6000803e3d6000fd5b505050506040513d6020811015614d6557600080fd5b5051925060008311614dc1576040805160e560020a62461bcd02815260206004820152601660248201527f4552525f5a45524f5f5441524745545f414d4f554e5400000000000000000000604482015290519081900360640190fd5b8b86815181101515614dcf57fe5b60209081029091010151831115614de257fe5b600160a060020a038516600080516020615a9783398151915214614e1157614e0c8533308661430f565b614e84565b828c87815181101515614e2057fe5b906020019060200201511115614e845733600160a060020a03166108fc848e89815181101515614e4c57fe5b90602001906020020151039081150290604051600060405180830381858888f19350505050158015614e82573d6000803e3d6000fd5b505b614e94848463ffffffff61362416565b600160a060020a03861660008181526008602090815260409182902084905581518781529081018490528082018b90529051929450909133917f4a1a2a6176e9646d9e3157f7c2ab3c499f18337c0b0828cfb28e0a61de4a11f7919081900360600190a3600860008e88815181101515614f0a57fe5b6020908102909101810151600160a060020a03168252810191909152604001600020600101548d5163ffffffff9091169150614f5f9088908f9089908110614f4e57fe5b9060200190602002015184846143f1565b600190950194614c6e565b50959b9a5050505050505050505050565b600080831515614f8e5760009150611dd2565b50828202828482811515614f9e57fe5b0414613681576040805160e560020a62461bcd02815260206004820152600c60248201527f4552525f4f564552464c4f570000000000000000000000000000000000000000604482015290519081900360640190fd5b60008080831161504e576040805160e560020a62461bcd02815260206004820152601260248201527f4552525f4449564944455f42595f5a45524f0000000000000000000000000000604482015290519081900360640190fd5b828481151561505957fe5b04949350505050565b61506a61326f565b600061507461220c565b61ffff16116150bb576040805160e560020a62461bcd0281526020600482015260196024820152600080516020615b17833981519152604482015290519081900360640190fd5b600560009054906101000a9004600160a060020a0316600160a060020a03166379ba50976040518163ffffffff1660e060020a028152600401600060405180830381600087803b15801561510e57600080fd5b505af1158015615122573d6000803e3d6000fd5b505050506114636142cd565b60008060008060008060008060008060006007600081548110151561514f57fe5b60009182526020909120015460078054600160a060020a039092169c5090600190811061517857fe5b600091825260209091200154600160a060020a031699506151988b612c9f565b98506151a38a612c9f565b600160a060020a03808d16600090815260086020526040808220600190810154938f1683529120015491995063ffffffff908116985090811696506151ee908a906103e890614ff416565b9450615202886103e863ffffffff614ff416565b935061521b600080516020615ab78339815191526133d6565b604080517f94491fab000000000000000000000000000000000000000000000000000000008152600481018c905263ffffffff808b166024830152604482018c905289166064820152608481018890529051919450600160a060020a038516916394491fab9160a4808201926020929091908290030181600087803b1580156152a357600080fd5b505af11580156152b7573d6000803e3d6000fd5b505050506040513d60208110156152cd57600080fd5b5051604080517f94491fab000000000000000000000000000000000000000000000000000000008152600481018b905263ffffffff808a166024830152604482018d90528a166064820152608481018790529051919350600160a060020a038516916394491fab9160a4808201926020929091908290030181600087803b15801561535757600080fd5b505af115801561536b573d6000803e3d6000fd5b505050506040513d602081101561538157600080fd5b5051600d549091506153a3908690614261908590600a0a63ffffffff614f7b16565b91506153c184614261600e54600a0a84614f7b90919063ffffffff16565b600c54604080517f9c0e3f7a00000000000000000000000000000000000000000000000000000000815260048101869052602481018490529051929350600160a060020a0390911691639c0e3f7a9160448082019260009290919082900301818387803b15801561543157600080fd5b505af1158015615445573d6000803e3d6000fd5b505050505050505050505050505050565b60008060006154636158e8565b6009549092506142299063ffffffff680100000000000000009091048116906142619087908690614f7b16565b7f800000000000000000000000000000000000000000000000000000000000000082106154b957fe5b6040805185815260208101859052808201849052606081018390529051600160a060020a038088169289821692918b16917f82886ccc747026f86399e87d5f3874c5d198ec2498833553651f63a13f5dbd0c9181900360800190a450505050505050565b6000806000806000806000600560009054906101000a9004600160a060020a0316600160a060020a03166318160ddd6040518163ffffffff1660e060020a028152600401602060405180830381600087803b15801561557b57600080fd5b505af115801561558f573d6000803e3d6000fd5b505050506040513d60208110156155a557600080fd5b505196506155b289612c9f565b95506155bd88612c9f565b600160a060020a03808b16600090815260086020526040808220600190810154938d1683529120015491965063ffffffff908116955090811693506156069086908690614f7b16565b915061561b8663ffffffff80861690614f7b16565b60408051848152602081018390528151929350600160a060020a03808c1693908d16927f77f29993cf2c084e726f7e802da0719d6a0ade3e204badc7a3ffd57ecb768c24928290030190a3615672878a88876143f1565b61567e878987866143f1565b604080518881526020810188905263ffffffff8616818301529051600160a060020a038b16917f8a6a7f53b3c8fa1dc4b83e3f1be668c1b251ff8d44cdcb83eb3acec3fec6a788919081900360600190a2604080518881526020810187905263ffffffff8516818301529051600160a060020a038a16917f8a6a7f53b3c8fa1dc4b83e3f1be668c1b251ff8d44cdcb83eb3acec3fec6a788919081900360600190a2505050505050505050565b60008060015b84518110156157ee5761579660086000878481518110151561574f57fe5b6020908102909101810151600160a060020a0316825281019190915260400160002054855186908590811061578057fe5b602090810290910101519063ffffffff614f7b16565b6157dc6008600088868151811015156157ab57fe5b6020908102909101810151600160a060020a0316825281019190915260400160002054865187908590811061578057fe5b10156157e6578091505b600101615731565b86600160a060020a0316632f55bdb58760086000898781518110151561581057fe5b6020908102909101810151600160a060020a0316825281019190915260400160002054600954885163ffffffff9091169089908890811061584d57fe5b906020019060200201516040518563ffffffff1660e060020a028152600401808581526020018481526020018363ffffffff1663ffffffff168152602001828152602001945050505050602060405180830381600087803b1580156158b157600080fd5b505af11580156158c5573d6000803e3d6000fd5b505050506040513d60208110156158db57600080fd5b5051979650505050505050565b6002546040805160e260020a632ecd14d3028152600080516020615ad783398151915260048201529051600092600160a060020a03169163bb34534c91602480830192602092919082900301818787803b15801561594557600080fd5b505af1158015615959573d6000803e3d6000fd5b505050506040513d602081101561596f57600080fd5b5051604080517fb0e21e8a0000000000000000000000000000000000000000000000000000000081529051600160a060020a039092169163b0e21e8a916004808201926020929091908290030181600087803b1580156133a557600080fd5b6040805160a08101825260008082526020820181905291810182905260608101829052608081019190915290565b60408051808201825290600290829080388339509192915050565b602060405190810160405280600190602082028038833950919291505056004552525f494e56414c49445f5245534552564500000000000000000000000000353c2eb9e53a4a4a6d45d72082ff2e9dc829d1125618772a83eb0e7f86632c42536f7672796e53776170436f6e76657274657255706772616465720000000000000000000000000000000000eeeeeeeeeeeeeeeeeeeeeeeeeeeeeeeeeeeeeeee536f7672796e53776170466f726d756c610000000000000000000000000000005377617053657474696e677300000000000000000000000000000000000000004552525f4143434553535f44454e4945440000000000000000000000000000004552525f494e56414c49445f524553455256455f434f554e5400000000000000a165627a7a723058207a1d08781d45710ce8616a780949645e0df0a6d1a5641517933bf69e3cd17a830029",
  "linkReferences": {},
  "deployedLinkReferences": {}
}