{
  "_format": "hh-sol-artifact-1",
  "contractName": "FeeSharingCollector",
  "sourceName": "contracts/governance/FeeSharingCollector/FeeSharingCollector.sol",
  "address": "0x115cAF168c51eD15ec535727F64684D33B7b08D1",
  "implementation": "0xaC51118cf012260d0886C04014207ec7EEc4F9C8",
  "abi": [
    {
      "anonymous": false,
      "inputs": [
        {
          "indexed": true,
          "internalType": "address",
          "name": "sender",
          "type": "address"
        },
        {
          "indexed": true,
          "internalType": "address",
          "name": "token",
          "type": "address"
        },
        {
          "indexed": false,
          "internalType": "uint256",
          "name": "amount",
          "type": "uint256"
        }
      ],
      "name": "CheckpointAdded",
      "type": "event"
    },
    {
      "anonymous": false,
      "inputs": [
        {
          "indexed": true,
          "internalType": "address",
          "name": "sender",
          "type": "address"
        },
        {
          "indexed": true,
          "internalType": "address",
          "name": "converter",
          "type": "address"
        },
        {
          "indexed": false,
          "internalType": "uint256",
          "name": "amount",
          "type": "uint256"
        }
      ],
      "name": "FeeAMMWithdrawn",
      "type": "event"
    },
    {
      "anonymous": false,
      "inputs": [
        {
          "indexed": true,
          "internalType": "address",
          "name": "sender",
          "type": "address"
        },
        {
          "indexed": false,
          "internalType": "uint256",
          "name": "amount",
          "type": "uint256"
        }
      ],
      "name": "FeeWithdrawnInRBTC",
      "type": "event"
    },
    {
      "anonymous": false,
      "inputs": [
        {
          "indexed": true,
          "internalType": "address",
          "name": "previousOwner",
          "type": "address"
        },
        {
          "indexed": true,
          "internalType": "address",
          "name": "newOwner",
          "type": "address"
        }
      ],
      "name": "OwnershipTransferred",
      "type": "event"
    },
    {
      "anonymous": false,
      "inputs": [
        {
          "indexed": true,
          "internalType": "address",
          "name": "sender",
          "type": "address"
        },
        {
          "indexed": true,
          "internalType": "address",
          "name": "receiver",
          "type": "address"
        },
        {
          "indexed": false,
          "internalType": "uint256",
          "name": "amount",
          "type": "uint256"
        }
      ],
      "name": "RBTCWithdrawn",
      "type": "event"
    },
    {
      "anonymous": false,
      "inputs": [
        {
          "indexed": true,
          "internalType": "address",
          "name": "sender",
          "type": "address"
        },
        {
          "indexed": true,
          "internalType": "address",
          "name": "token",
          "type": "address"
        },
        {
          "indexed": false,
          "internalType": "uint256",
          "name": "amount",
          "type": "uint256"
        }
      ],
      "name": "TokensTransferred",
      "type": "event"
    },
    {
      "anonymous": false,
      "inputs": [
        {
          "indexed": true,
          "internalType": "address",
          "name": "sender",
          "type": "address"
        },
        {
          "indexed": false,
          "internalType": "address",
          "name": "converter",
          "type": "address"
        }
      ],
      "name": "UnwhitelistedConverter",
      "type": "event"
    },
    {
      "anonymous": false,
      "inputs": [
        {
          "indexed": true,
          "internalType": "address",
          "name": "sender",
          "type": "address"
        },
        {
          "indexed": true,
          "internalType": "address",
          "name": "receiver",
          "type": "address"
        },
        {
          "indexed": true,
          "internalType": "address",
          "name": "token",
          "type": "address"
        },
        {
          "indexed": false,
          "internalType": "uint256",
          "name": "amount",
          "type": "uint256"
        }
      ],
      "name": "UserFeeWithdrawn",
      "type": "event"
    },
    {
      "anonymous": false,
      "inputs": [
        {
          "indexed": true,
          "internalType": "address",
          "name": "sender",
          "type": "address"
        },
        {
          "indexed": false,
          "internalType": "address",
          "name": "converter",
          "type": "address"
        }
      ],
      "name": "WhitelistedConverter",
      "type": "event"
    },
    {
      "payable": true,
      "stateMutability": "payable",
      "type": "fallback"
    },
    {
      "constant": true,
      "inputs": [],
      "name": "RBTC_DUMMY_ADDRESS_FOR_CHECKPOINT",
      "outputs": [
        {
          "internalType": "address",
          "name": "",
          "type": "address"
        }
      ],
      "payable": false,
      "stateMutability": "view",
      "type": "function"
    },
    {
      "constant": false,
      "inputs": [
        {
          "internalType": "address",
          "name": "converterAddress",
          "type": "address"
        }
      ],
      "name": "addWhitelistedConverterAddress",
      "outputs": [],
      "payable": false,
      "stateMutability": "nonpayable",
      "type": "function"
    },
    {
      "constant": true,
      "inputs": [
        {
          "internalType": "address",
          "name": "_user",
          "type": "address"
        },
        {
          "internalType": "address",
          "name": "_loanPoolToken",
          "type": "address"
        }
      ],
      "name": "getAccumulatedFees",
      "outputs": [
        {
          "internalType": "uint256",
          "name": "",
          "type": "uint256"
        }
      ],
      "payable": false,
      "stateMutability": "view",
      "type": "function"
    },
    {
      "constant": true,
      "inputs": [
        {
          "internalType": "address",
          "name": "_user",
          "type": "address"
        }
      ],
      "name": "getAccumulatedRBTCFeeBalances",
      "outputs": [
        {
          "internalType": "uint256",
          "name": "",
          "type": "uint256"
        }
      ],
      "payable": false,
      "stateMutability": "view",
      "type": "function"
    },
    {
      "constant": true,
      "inputs": [],
      "name": "getWhitelistedConverterList",
      "outputs": [
        {
          "internalType": "address[]",
          "name": "converterList",
          "type": "address[]"
        }
      ],
      "payable": false,
      "stateMutability": "view",
      "type": "function"
    },
    {
      "constant": true,
      "inputs": [],
      "name": "isOwner",
      "outputs": [
        {
          "internalType": "bool",
          "name": "",
          "type": "bool"
        }
      ],
      "payable": false,
      "stateMutability": "view",
      "type": "function"
    },
    {
      "constant": true,
      "inputs": [
        {
          "internalType": "address",
          "name": "",
          "type": "address"
        }
      ],
      "name": "lastFeeWithdrawalTime",
      "outputs": [
        {
          "internalType": "uint256",
          "name": "",
          "type": "uint256"
        }
      ],
      "payable": false,
      "stateMutability": "view",
      "type": "function"
    },
    {
      "constant": true,
      "inputs": [
        {
          "internalType": "address",
          "name": "",
          "type": "address"
        }
      ],
      "name": "numTokenCheckpoints",
      "outputs": [
        {
          "internalType": "uint256",
          "name": "",
          "type": "uint256"
        }
      ],
      "payable": false,
      "stateMutability": "view",
      "type": "function"
    },
    {
      "constant": true,
      "inputs": [],
      "name": "owner",
      "outputs": [
        {
          "internalType": "address",
          "name": "",
          "type": "address"
        }
      ],
      "payable": false,
      "stateMutability": "view",
      "type": "function"
    },
    {
      "constant": true,
      "inputs": [
        {
          "internalType": "address",
          "name": "",
          "type": "address"
        },
        {
          "internalType": "address",
          "name": "",
          "type": "address"
        }
      ],
      "name": "processedCheckpoints",
      "outputs": [
        {
          "internalType": "uint256",
          "name": "",
          "type": "uint256"
        }
      ],
      "payable": false,
      "stateMutability": "view",
      "type": "function"
    },
    {
      "constant": true,
      "inputs": [],
      "name": "protocol",
      "outputs": [
        {
          "internalType": "contract IProtocol",
          "name": "",
          "type": "address"
        }
      ],
      "payable": false,
      "stateMutability": "view",
      "type": "function"
    },
    {
      "constant": false,
      "inputs": [
        {
          "internalType": "address",
          "name": "converterAddress",
          "type": "address"
        }
      ],
      "name": "removeWhitelistedConverterAddress",
      "outputs": [],
      "payable": false,
      "stateMutability": "nonpayable",
      "type": "function"
    },
    {
      "constant": true,
      "inputs": [],
      "name": "staking",
      "outputs": [
        {
          "internalType": "contract IStaking",
          "name": "",
          "type": "address"
        }
      ],
      "payable": false,
      "stateMutability": "view",
      "type": "function"
    },
    {
      "constant": true,
      "inputs": [
        {
          "internalType": "address",
          "name": "",
          "type": "address"
        },
        {
          "internalType": "uint256",
          "name": "",
          "type": "uint256"
        }
      ],
      "name": "tokenCheckpoints",
      "outputs": [
        {
          "internalType": "uint32",
          "name": "blockNumber",
          "type": "uint32"
        },
        {
          "internalType": "uint32",
          "name": "timestamp",
          "type": "uint32"
        },
        {
          "internalType": "uint96",
          "name": "totalWeightedStake",
          "type": "uint96"
        },
        {
          "internalType": "uint96",
          "name": "numTokens",
          "type": "uint96"
        }
      ],
      "payable": false,
      "stateMutability": "view",
      "type": "function"
    },
    {
      "constant": false,
      "inputs": [
        {
          "internalType": "address",
          "name": "newOwner",
          "type": "address"
        }
      ],
      "name": "transferOwnership",
      "outputs": [],
      "payable": false,
      "stateMutability": "nonpayable",
      "type": "function"
    },
    {
      "constant": false,
      "inputs": [],
      "name": "transferRBTC",
      "outputs": [],
      "payable": true,
      "stateMutability": "payable",
      "type": "function"
    },
    {
      "constant": false,
      "inputs": [
        {
          "internalType": "address",
          "name": "_token",
          "type": "address"
        },
        {
          "internalType": "uint96",
          "name": "_amount",
          "type": "uint96"
        }
      ],
      "name": "transferTokens",
      "outputs": [],
      "payable": false,
      "stateMutability": "nonpayable",
      "type": "function"
    },
    {
      "constant": true,
      "inputs": [
        {
          "internalType": "address",
          "name": "",
          "type": "address"
        }
      ],
      "name": "unprocessedAmount",
      "outputs": [
        {
          "internalType": "uint96",
          "name": "",
          "type": "uint96"
        }
      ],
      "payable": false,
      "stateMutability": "view",
      "type": "function"
    },
    {
      "constant": false,
      "inputs": [
        {
          "internalType": "address",
          "name": "_loanPoolToken",
          "type": "address"
        },
        {
          "internalType": "uint32",
          "name": "_maxCheckpoints",
          "type": "uint32"
        },
        {
          "internalType": "address",
          "name": "_receiver",
          "type": "address"
        }
      ],
      "name": "withdraw",
      "outputs": [],
      "payable": false,
      "stateMutability": "nonpayable",
      "type": "function"
    },
    {
      "constant": false,
      "inputs": [
        {
          "internalType": "address[]",
          "name": "_tokens",
          "type": "address[]"
        }
      ],
      "name": "withdrawFees",
      "outputs": [],
      "payable": false,
      "stateMutability": "nonpayable",
      "type": "function"
    },
    {
      "constant": false,
      "inputs": [
        {
          "internalType": "address[]",
          "name": "_converters",
          "type": "address[]"
        }
      ],
      "name": "withdrawFeesAMM",
      "outputs": [],
      "payable": false,
      "stateMutability": "nonpayable",
      "type": "function"
    },
    {
      "constant": false,
      "inputs": [
        {
          "internalType": "uint32",
          "name": "_maxCheckpoints",
          "type": "uint32"
        },
        {
          "internalType": "address",
          "name": "_receiver",
          "type": "address"
        }
      ],
      "name": "withdrawRBTC",
      "outputs": [],
      "payable": false,
      "stateMutability": "nonpayable",
      "type": "function"
    },
    {
      "constant": false,
      "inputs": [
        {
          "internalType": "address",
          "name": "receiver",
          "type": "address"
        },
        {
          "internalType": "uint256",
          "name": "wrbtcAmount",
          "type": "uint256"
        }
      ],
      "name": "withdrawWRBTC",
      "outputs": [],
      "payable": false,
      "stateMutability": "nonpayable",
      "type": "function"
    }
  ],
  "bytecode": "0x60806040526001600855600061001c6001600160e01b0361006b16565b600080546001600160a01b0319166001600160a01b0383169081178255604051929350917f8be0079c531659141344cd1fd0a4f28419497f9722a3daafe3b4186f6b6457e0908290a35061006f565b3390565b6135a38061007e6000396000f3fe6080604052600436106101405760003560e01c80638ce74426116100b6578063a965b3a91161006f578063a965b3a914610598578063abe979e1146105e1578063adcf21a714610623578063c304044714610688578063f2fde38b146106bb578063f3bdba8f146106ee57610140565b80638ce74426146104255780638da5cb5b1461043a5780638f32d59b1461044f578063988ba59314610478578063a4955f2a146104b7578063a697b8c7146104ea57610140565b8063705300171161010857806370530017146102345780637061acf3146102a55780637913b451146102d85780637c8678ec146103135780637d0ce2b2146103c15780638b6fdcba146103d657610140565b8063200202081461014257806322a6fd95146101875780633d67df6f1461018f5780634cf088d9146101ca5780635c4d9b12146101fb575b005b34801561014e57600080fd5b506101756004803603602081101561016557600080fd5b50356001600160a01b0316610721565b60408051918252519081900360200190f35b610140610733565b34801561019b57600080fd5b50610175600480360360408110156101b257600080fd5b506001600160a01b03813581169160200135166107e0565b3480156101d657600080fd5b506101df6107fa565b604080516001600160a01b039092168252519081900360200190f35b34801561020757600080fd5b506101406004803603604081101561021e57600080fd5b506001600160a01b038135169060200135610809565b34801561024057600080fd5b5061026d6004803603604081101561025757600080fd5b506001600160a01b0381351690602001356109a8565b6040805163ffffffff95861681529390941660208401526001600160601b039182168385015216606082015290519081900360800190f35b3480156102b157600080fd5b50610140600480360360208110156102c857600080fd5b50356001600160a01b03166109f3565b3480156102e457600080fd5b50610175600480360360408110156102fb57600080fd5b506001600160a01b0381358116916020013516610ae9565b34801561031f57600080fd5b506101406004803603602081101561033657600080fd5b810190602081018135600160201b81111561035057600080fd5b82018360208201111561036257600080fd5b803590602001918460208302840111600160201b8311171561038357600080fd5b919080806020026020016040519081016040528093929190818152602001838360200280828437600092019190915250929550610b06945050505050565b3480156103cd57600080fd5b506101df610d7a565b3480156103e257600080fd5b50610409600480360360208110156103f957600080fd5b50356001600160a01b0316610d96565b604080516001600160601b039092168252519081900360200190f35b34801561043157600080fd5b506101df610db1565b34801561044657600080fd5b506101df610dc0565b34801561045b57600080fd5b50610464610dcf565b604080519115158252519081900360200190f35b34801561048457600080fd5b506101406004803603604081101561049b57600080fd5b50803563ffffffff1690602001356001600160a01b0316610df3565b3480156104c357600080fd5b50610140600480360360208110156104da57600080fd5b50356001600160a01b03166111d7565b3480156104f657600080fd5b506101406004803603602081101561050d57600080fd5b810190602081018135600160201b81111561052757600080fd5b82018360208201111561053957600080fd5b803590602001918460208302840111600160201b8311171561055a57600080fd5b919080806020026020016040519081016040528093929190818152602001838360200280828437600092019190915250929550611273945050505050565b3480156105a457600080fd5b50610140600480360360608110156105bb57600080fd5b506001600160a01b03813581169163ffffffff60208201351691604090910135166114fd565b3480156105ed57600080fd5b506101406004803603604081101561060457600080fd5b5080356001600160a01b031690602001356001600160601b0316611857565b34801561062f57600080fd5b50610638611b11565b60408051602080825283518183015283519192839290830191858101910280838360005b8381101561067457818101518382015260200161065c565b505050509050019250505060405180910390f35b34801561069457600080fd5b50610175600480360360208110156106ab57600080fd5b50356001600160a01b0316611b22565b3480156106c757600080fd5b50610140600480360360208110156106de57600080fd5b50356001600160a01b0316611b5d565b3480156106fa57600080fd5b506101756004803603602081101561071157600080fd5b50356001600160a01b0316611bb1565b60046020526000908152604090205481565b346001600160601b0381166107795760405162461bcd60e51b81526004018080602001828103825260308152602001806131ed6030913960400191505060405180910390fd5b61079c60405180806133b060219139604051908190036021019020905082611bc3565b604080516001600160601b0383168152905160009133917f1b89874203ff7f0bba87c969ada3f32fda22ed38a6706d35199d21280c7811b19181900360200190a350565b6000806107ef84846000611d07565b509150505b92915050565b6002546001600160a01b031681565b610811610dcf565b610851576040805162461bcd60e51b815260206004820152600c60248201526b1d5b985d5d1a1bdc9a5e995960a21b604482015290519081900360640190fd5b6001546040805163afe8400960e01b815290516000926001600160a01b03169163afe84009916004808301926020929190829003018186803b15801561089657600080fd5b505afa1580156108aa573d6000803e3d6000fd5b505050506040513d60208110156108c057600080fd5b5051604080516370a0823160e01b815230600482015290519192506000916001600160a01b038416916370a08231916024808301926020929190829003018186803b15801561090e57600080fd5b505afa158015610922573d6000803e3d6000fd5b505050506040513d602081101561093857600080fd5b5051905080831115610988576040805162461bcd60e51b8152602060048201526014602482015273496e73756666696369656e742062616c616e636560601b604482015290519081900360640190fd5b6109a26001600160a01b038316858563ffffffff61208216565b50505050565b600360209081526000928352604080842090915290825290205463ffffffff80821691600160201b8104909116906001600160601b03600160401b8204811691600160a01b90041684565b6109fb610dcf565b610a3b576040805162461bcd60e51b815260206004820152600c60248201526b1d5b985d5d1a1bdc9a5e995960a21b604482015290519081900360640190fd5b610a44816120d4565b610a95576040805162461bcd60e51b815260206004820152601a60248201527f4e6f6e20636f6e7472616374206164647265737320676976656e000000000000604482015290519081900360640190fd5b610aa660098263ffffffff61211016565b50604080516001600160a01b0383168152905133917fe7902ff5b883e069d72db554511b4f7122428c996decf30682b312a66879668a919081900360200190a250565b600560209081526000928352604080842090915290825290205481565b6001546040805163afe8400960e01b815290516000926001600160a01b03169163afe84009916004808301926020929190829003018186803b158015610b4b57600080fd5b505afa158015610b5f573d6000803e3d6000fd5b505050506040513d6020811015610b7557600080fd5b50519050610b8282612170565b6000805b8351811015610d42576000848281518110610b9d57fe5b60200260200101516001600160a01b031663164e68de306040518263ffffffff1660e01b815260040180826001600160a01b03166001600160a01b03168152602001915050602060405180830381600087803b158015610bfc57600080fd5b505af1158015610c10573d6000803e3d6000fd5b505050506040513d6020811015610c2657600080fd5b505190508015610d3957836001600160a01b0316632e1a7d4d826040518263ffffffff1660e01b815260040180828152602001915050600060405180830381600087803b158015610c7657600080fd5b505af1158015610c8a573d6000803e3d6000fd5b505050506000610cb2826040518060800160405280604881526020016131a5604891396121f0565b9050610cd784826040518060800160405280604e8152602001613157604e913961228a565b9350858381518110610ce557fe5b60200260200101516001600160a01b0316336001600160a01b03167fd915b7f9d8d5ce11af1f5961b830d7d7c01a750927706eb0bcbf80a8827d76cc846040518082815260200191505060405180910390a3505b50600101610b86565b506001600160601b03811615610d7557610d7560405180806133b060219139604051908190036021019020905082611bc3565b505050565b6040518060216133b08239604051908190036021019020905081565b6007602052600090815260409020546001600160601b031681565b6001546001600160a01b031681565b6000546001600160a01b031690565b600080546001600160a01b0316610de46122f4565b6001600160a01b031614905090565b600160085414610e39576040805162461bcd60e51b815260206004820152600c60248201526b1b9bdb9499595b9d1c985b9d60a21b604482015290519081900360640190fd5b60026008819055506000806000806000806000803390506000600160009054906101000a90046001600160a01b03166001600160a01b031663afe840096040518163ffffffff1660e01b815260040160206040518083038186803b158015610ea057600080fd5b505afa158015610eb4573d6000803e3d6000fd5b505050506040513d6020811015610eca57600080fd5b505190506000610ed9826122f8565b90506001600160a01b038b16610eed57339a505b610ef7838d6123ba565b939e50939c50909a50985090965094508815610f5b576001600160a01b03831660009081526005602052604080822090518992908060216133b0823960408051918290036021019091206001600160a01b0316835260208301939093525001600020555b8915610fdf576001600160a01b038084166000908152600560209081526040808320938616808452939091528082208990558051632e1a7d4d60e01b8152600481018e90529051632e1a7d4d9260248084019391929182900301818387803b158015610fc657600080fd5b505af1158015610fda573d6000803e3d6000fd5b505050505b8715611084576001600160a01b0380841660009081526005602090815260408083209385168084529382528083208990558051630141abc160e21b8152306004820152602481018d9052604481018490529051630506af0493606480840194938390030190829087803b15801561105557600080fd5b505af1158015611069573d6000803e3d6000fd5b505050506040513d602081101561107f57600080fd5b505193505b60006110a68561109a8c8e63ffffffff61252916565b9063ffffffff61252916565b9050600081116110e75760405162461bcd60e51b815260040180806020018281038252603b815260200180613534603b913960400191505060405180910390fd5b6040516000906001600160a01b038e169083908381818185875af1925050503d8060008114611132576040519150601f19603f3d011682016040523d82523d6000602084013e611137565b606091505b50509050806111775760405162461bcd60e51b81526004018080602001828103825260348152602001806130de6034913960400191505060405180910390fd5b8c6001600160a01b0316856001600160a01b03167fba7771603337d6821ea291d76396cf6aa3ea405141b033d8415280139c980c1d846040518082815260200191505060405180910390a350506001600855505050505050505050505050565b6111df610dcf565b61121f576040805162461bcd60e51b815260206004820152600c60248201526b1d5b985d5d1a1bdc9a5e995960a21b604482015290519081900360640190fd5b61123060098263ffffffff61258a16565b50604080516001600160a01b0383168152905133917f7b8bddb144d9ebd8a4fa3f47acac7c75b34ade822d5e528a442825fa9100ffdb919081900360200190a250565b60005b81518110156112de5761129b82828151811061128e57fe5b60200260200101516120d4565b6112d65760405162461bcd60e51b815260040180806020018281038252603a8152602001806134fa603a913960400191505060405180910390fd5b600101611276565b5060015460408051630f7e7aab60e41b81523060248201819052600482019283528451604483015284516000946001600160a01b03169363f7e7aab093879392829160640190602080870191028083838c5b83811015611348578181015183820152602001611330565b505050509050019350505050602060405180830381600087803b15801561136e57600080fd5b505af1158015611382573d6000803e3d6000fd5b505050506040513d602081101561139857600080fd5b50516001546040805163afe8400960e01b815290519293506000926001600160a01b039092169163afe8400991600480820192602092909190829003018186803b1580156113e557600080fd5b505afa1580156113f9573d6000803e3d6000fd5b505050506040513d602081101561140f57600080fd5b5051905081156114c257806001600160a01b0316632e1a7d4d836040518263ffffffff1660e01b815260040180828152602001915050600060405180830381600087803b15801561145f57600080fd5b505af1158015611473573d6000803e3d6000fd5b50505050600061149b83604051806080016040528060458152602001613112604591396121f0565b90506114c060405180806133b060219139604051908190036021019020905082611bc3565b505b60408051838152905133917fea588ee3c471f3c47a77b5d118007e77b1d74e5b310a8805df274aa067d2e8a6919081900360200190a2505050565b600160085414611543576040805162461bcd60e51b815260206004820152600c60248201526b1b9bdb9499595b9d1c985b9d60a21b604482015290519081900360640190fd5b600260085563ffffffff821661158a5760405162461bcd60e51b81526004018080602001828103825260418152602001806132fb6041913960600191505060405180910390fd5b6001546040805163afe8400960e01b815290516000926001600160a01b03169163afe84009916004808301926020929190829003018186803b1580156115cf57600080fd5b505afa1580156115e3573d6000803e3d6000fd5b505050506040513d60208110156115f957600080fd5b505190506000611608826122f8565b9050336001600160a01b03841661161d573393505b60008061162b838989611d07565b90925090508161166c5760405162461bcd60e51b815260040180806020018281038252603d81526020018061307b603d913960400191505060405180910390fd5b6001600160a01b0380841660009081526005602090815260408083208c85168085529252909120839055908516141561172c5760408051630141abc160e21b81526001600160a01b038881166004830152602482018590526000604483018190529251908b1691630506af0491606480830192602092919082900301818787803b1580156116f957600080fd5b505af115801561170d573d6000803e3d6000fd5b505050506040513d602081101561172357600080fd5b506117f3915050565b876001600160a01b031663a9059cbb87846040518363ffffffff1660e01b815260040180836001600160a01b03166001600160a01b0316815260200182815260200192505050602060405180830381600087803b15801561178c57600080fd5b505af11580156117a0573d6000803e3d6000fd5b505050506040513d60208110156117b657600080fd5b50516117f35760405162461bcd60e51b81526004018080602001828103825260308152602001806134a06030913960400191505060405180910390fd5b876001600160a01b0316866001600160a01b0316336001600160a01b03167fe635adc5d0c2d7b47215ce5ed57a79c3db183a1ef414ccfc43f24f19178a630f856040518082815260200191505060405180910390a450506001600855505050505050565b6001600160a01b03821661189c5760405162461bcd60e51b81526004018080602001828103825260348152602001806130476034913960400191505060405180910390fd5b6000816001600160601b0316116118e45760405162461bcd60e51b81526004018080602001828103825260338152602001806130146033913960400191505060405180910390fd5b604080516323b872dd60e01b81523360048201523060248201526001600160601b038316604482015290516000916001600160a01b038516916323b872dd9160648082019260209290919082900301818787803b15801561194457600080fd5b505af1158015611958573d6000803e3d6000fd5b505050506040513d602081101561196e57600080fd5b50519050806119ae5760405162461bcd60e51b815260040180806020018281038252602e815260200180613382602e913960400191505060405180910390fd5b6001546040805163afe8400960e01b815290516000926001600160a01b03169163afe84009916004808301926020929190829003018186803b1580156119f357600080fd5b505afa158015611a07573d6000803e3d6000fd5b505050506040513d6020811015611a1d57600080fd5b505190506001600160a01b038481169082161415611ab857806001600160a01b0316632e1a7d4d846040518263ffffffff1660e01b815260040180826001600160601b03168152602001915050600060405180830381600087803b158015611a8457600080fd5b505af1158015611a98573d6000803e3d6000fd5b5050505060405180806133b0602191396040519081900360210190209450505b611ac28484611bc3565b604080516001600160601b038516815290516001600160a01b0386169133917f1b89874203ff7f0bba87c969ada3f32fda22ed38a6706d35199d21280c7811b19181900360200190a350505050565b6060611b1d6009612695565b905090565b600080600080611b338560006123ba565b509396509194509250611b54915082905061109a858563ffffffff61252916565b95945050505050565b611b65610dcf565b611ba5576040805162461bcd60e51b815260206004820152600c60248201526b1d5b985d5d1a1bdc9a5e995960a21b604482015290519081900360640190fd5b611bae8161273b565b50565b60066020526000908152604090205481565b6001600160a01b03821660009081526006602052604090205462015180429190910310611c7c576001600160a01b03821660009081526006602090815260408083204290556007825280832054815160608101909252603b808352611c3f936001600160601b0390921692869290919061329f9083013961228a565b6001600160a01b038416600090815260076020526040902080546bffffffffffffffffffffffff191690559050611c7683826127db565b50611d03565b6001600160a01b038216600090815260076020908152604091829020548251608081019093526046808452611cc7936001600160601b0390921692859291906133d19083013961228a565b6001600160a01b038316600090815260076020526040902080546bffffffffffffffffffffffff19166001600160601b03929092169190911790555b5050565b6002546040805163ca6860df60e01b81526001600160a01b03868116600483015291516000938493169163ca6860df916024808301926020929190829003018186803b158015611d5657600080fd5b505afa158015611d6a573d6000803e3d6000fd5b505050506040513d6020811015611d8057600080fd5b505115611d925750600090508061207a565b6001600160a01b0380861660009081526005602090815260408083209388168352929052908120549063ffffffff851615611e07576001600160a01b0386166000908152600460205260409020548210611df557506000925082915061207a9050565b611e00828787612a7e565b9050611e63565b6001600160a01b0386166000908152600460205260409020548210611e4857505050506001600160a01b03821660009081526004602052604081205461207a565b506001600160a01b0385166000908152600460205260409020545b60008080845b8481101561206f576001600160a01b038a811660009081526003602090815260408083208584528252808320600254815483516372ec979560e01b8152600160201b90910463ffffffff1660048201529251919516926372ec97959260248082019391829003018186803b158015611ee057600080fd5b505afa158015611ef4573d6000803e3d6000fd5b505050506040513d6020811015611f0a57600080fd5b50519050600085821415611f1f575083612008565b600260009054906101000a90046001600160a01b03166001600160a01b03166337e6b1c18f60018660000160009054906101000a900463ffffffff16038660000160049054906101000a900463ffffffff166040518463ffffffff1660e01b815260040180846001600160a01b03166001600160a01b031681526020018363ffffffff1681526020018263ffffffff168152602001935050505060206040518083038186803b158015611fd157600080fd5b505afa158015611fe5573d6000803e3d6000fd5b505050506040513d6020811015611ffb57600080fd5b5051919550909350849050835b825460009061204b906001600160601b03600160401b820481169161203f91600160a01b909104811690861663ffffffff612b4316565b9063ffffffff612b9c16565b905061205d888263ffffffff61252916565b97505060019093019250611e69915050565b509195509193505050505b935093915050565b604080516001600160a01b038416602482015260448082018490528251808303909101815260649091019091526020810180516001600160e01b031663a9059cbb60e01b179052610d75908490612bde565b6000813f7fc5d2460186f7233c927e7db2dcc703c0e500b653ca82273b7bfad8045d85a47081811480159061210857508115155b949350505050565b600061211c8383612d96565b6121685750600182810180548083018083556000928352602080842090920180546001600160a01b0319166001600160a01b0387169081179091558352908590526040909120556107f4565b5060006107f4565b60005b8151811015611d03576121a382828151811061218b57fe5b60200260200101516009612d9690919063ffffffff16565b6121e8576040805162461bcd60e51b815260206004820152601160248201527024b73b30b634b21021b7b73b32b93a32b960791b604482015290519081900360640190fd5b600101612173565b600081600160601b84106122825760405162461bcd60e51b81526004018080602001828103825283818151815260200191508051906020019080838360005b8381101561224757818101518382015260200161222f565b50505050905090810190601f1680156122745780820380516001836020036101000a031916815260200191505b509250505060405180910390fd5b509192915050565b6000838301826001600160601b0380871690831610156122eb5760405162461bcd60e51b815260206004820181815283516024840152835190928392604490910191908501908083836000831561224757818101518382015260200161222f565b50949350505050565b3390565b600154604080516310c59ce360e11b81526001600160a01b03848116600483015291516000938493169163218b39c6916024808301926020929190829003018186803b15801561234757600080fd5b505afa15801561235b573d6000803e3d6000fd5b505050506040513d602081101561237157600080fd5b505190506001600160a01b0381166107f45760405162461bcd60e51b815260040180806020018281038252603381526020018061346d6033913960400191505060405180910390fd5b6000806000806000806000600160009054906101000a90046001600160a01b03166001600160a01b031663afe840096040518163ffffffff1660e01b815260040160206040518083038186803b15801561241357600080fd5b505afa158015612427573d6000803e3d6000fd5b505050506040513d602081101561243d57600080fd5b50519050600061244c826122f8565b90506124728a60405180806133b06021913960405190819003602101902090508b611d07565b90985094506124828a838b611d07565b90975093506124928a828b611d07565b809450819750505061251b670de0b6b3a764000061203f836001600160a01b0316637ff9b5966040518163ffffffff1660e01b815260040160206040518083038186803b1580156124e257600080fd5b505afa1580156124f6573d6000803e3d6000fd5b505050506040513d602081101561250c57600080fd5b5051899063ffffffff612b4316565b955050509295509295509295565b600082820183811015612583576040805162461bcd60e51b815260206004820152601b60248201527f536166654d6174683a206164646974696f6e206f766572666c6f770000000000604482015290519081900360640190fd5b9392505050565b60006125968383612d96565b15612168576001600160a01b038216600090815260208490526040902054600184015460001991820191018082146126415760008560010182815481106125d957fe5b6000918252602090912001546001870180546001600160a01b03909216925082918590811061260457fe5b600091825260208083209190910180546001600160a01b0319166001600160a01b0394851617905592909116815290869052604090206001830190555b6001600160a01b0384166000908152602086905260408120556001850180548061266757fe5b600082815260209020810160001990810180546001600160a01b031916905501905550600191506107f49050565b60608082600101805490506040519080825280602002602001820160405280156126c9578160200160208202803883390190505b50905060005b6001840154811015612734578360010181815481106126ea57fe5b9060005260206000200160009054906101000a90046001600160a01b031682828151811061271457fe5b6001600160a01b03909216602092830291909101909101526001016126cf565b5092915050565b6001600160a01b0381166127805760405162461bcd60e51b81526004018080602001828103825260268152602001806130b86026913960400191505060405180910390fd5b600080546040516001600160a01b03808516939216917f8be0079c531659141344cd1fd0a4f28419497f9722a3daafe3b4186f6b6457e091a3600080546001600160a01b0319166001600160a01b0392909216919091179055565b60006127ff4360405180608001604052806043815260200161321d60439139612db4565b905060006128254260405180608001604052806046815260200161333c60469139612db4565b6001600160a01b03851660009081526004602052604081205491925061284f600019850142612e09565b90506000816001600160601b0316116128af576040805162461bcd60e51b815260206004820152601a60248201527f496e76616c696420746f74616c57656967687465645374616b65000000000000604482015290519081900360640190fd5b6000821180156128ee57506001600160a01b03861660009081526003602090815260408083206000198601845290915290205463ffffffff8581169116145b1561295d576001600160a01b03868116600090815260036020908152604080832060001987018452909152902080546001600160601b03888116600160a01b02908516600160401b026bffffffffffffffffffffffff60401b1990921691909117909216919091179055612a2d565b6040805160808101825263ffffffff868116825285811660208084019182526001600160601b038681168587019081528b8216606087019081526001600160a01b038e81166000818152600387528a81208d825287528a812099518a5498519551945163ffffffff19909916908a161767ffffffff000000001916600160201b9590991694909402979097176bffffffffffffffffffffffff60401b1916600160401b928516929092029190911716600160a01b9490921693909302179093559081526004909152206001830190555b604080516001600160601b038716815290516001600160a01b0388169133917ff61a5f2f4d0b2d871d5bf18717d08a6b0f543afa7e08dad5df1fea150f7296329181900360200190a3505050505050565b6001600160a01b0382166000908152600460205260408120548163ffffffff8416612aaa575080612afb565b606463ffffffff85161115612abe57606493505b612ae88463ffffffff1687016040518060600160405280603f8152602001613260603f9139612db4565b63ffffffff16905081811115612afb5750805b6001600160a01b03851660009081526003602090815260408083206000198501845290915290205463ffffffff1643811415612b3957600019909101905b5095945050505050565b600082612b52575060006107f4565b82820282848281612b5f57fe5b04146125835760405162461bcd60e51b81526004018080602001828103825260218152602001806132da6021913960400191505060405180910390fd5b600061258383836040518060400160405280601a81526020017f536166654d6174683a206469766973696f6e206279207a65726f000000000000815250612f41565b612bf0826001600160a01b03166120d4565b612c41576040805162461bcd60e51b815260206004820152601f60248201527f5361666545524332303a2063616c6c20746f206e6f6e2d636f6e747261637400604482015290519081900360640190fd5b60006060836001600160a01b0316836040518082805190602001908083835b60208310612c7f5780518252601f199092019160209182019101612c60565b6001836020036101000a0380198251168184511680821785525050505050509050019150506000604051808303816000865af19150503d8060008114612ce1576040519150601f19603f3d011682016040523d82523d6000602084013e612ce6565b606091505b509150915081612d3d576040805162461bcd60e51b815260206004820181905260248201527f5361666545524332303a206c6f772d6c6576656c2063616c6c206661696c6564604482015290519081900360640190fd5b8051156109a257808060200190516020811015612d5957600080fd5b50516109a25760405162461bcd60e51b815260040180806020018281038252602a8152602001806134d0602a913960400191505060405180910390fd5b6001600160a01b031660009081526020919091526040902054151590565b600081600160201b84106122825760405162461bcd60e51b815260206004820181815283516024840152835190928392604490910191908501908083836000831561224757818101518382015260200161222f565b6002546040805163cdbe715560e01b815263ffffffff8516600482015260248101849052905160009283926001600160a01b039091169163cdbe715591604480820192602092909190829003018186803b158015612e6657600080fd5b505afa158015612e7a573d6000803e3d6000fd5b505050506040513d6020811015612e9057600080fd5b5051600254604080516312916bdd60e11b815263ffffffff881660048201526024810187905290519293506001600160a01b0390911691632522d7ba91604480820192602092909190829003018186803b158015612eed57600080fd5b505afa158015612f01573d6000803e3d6000fd5b505050506040513d6020811015612f1757600080fd5b50516040805160808101909152605680825291935061210891849184916134176020830139612fa6565b60008183612f905760405162461bcd60e51b815260206004820181815283516024840152835190928392604490910191908501908083836000831561224757818101518382015260200161222f565b506000838581612f9c57fe5b0495945050505050565b6000836001600160601b0316836001600160601b03161115829061300b5760405162461bcd60e51b815260206004820181815283516024840152835190928392604490910191908501908083836000831561224757818101518382015260200161222f565b50505090039056fe46656553686172696e67436f6c6c6563746f723a3a7472616e73666572546f6b656e733a20696e76616c696420616d6f756e7446656553686172696e67436f6c6c6563746f723a3a7472616e73666572546f6b656e733a20696e76616c6964206164647265737346656553686172696e67436f6c6c6563746f723a3a7769746864726177466565733a206e6f20746f6b656e7320666f722061207769746864726177616c4f776e61626c653a206e6577206f776e657220697320746865207a65726f206164647265737346656553686172696e67436f6c6c6563746f723a3a7769746864726177524254433a205769746864726177616c206661696c656446656553686172696e67436f6c6c6563746f723a3a7769746864726177466565733a20777262746320746f6b656e20616d6f756e742065786365656473203936206269747346656553686172696e67436f6c6c6563746f723a3a776974686472617746656573414d4d3a20746f74616c20777262746320746f6b656e20616d6f756e742065786365656473203936206269747346656553686172696e67436f6c6c6563746f723a3a776974686472617746656573414d4d3a20777262746320746f6b656e20616d6f756e742065786365656473203936206269747346656553686172696e67436f6c6c6563746f723a3a7472616e73666572524254433a20696e76616c69642076616c756546656553686172696e67436f6c6c6563746f723a3a5f7772697465436865636b706f696e743a20626c6f636b206e756d6265722065786365656473203332206269747346656553686172696e67436f6c6c6563746f723a3a77697468647261773a20636865636b706f696e7420696e6465782065786365656473203332206269747346656553686172696e67436f6c6c6563746f723a3a5f616464436865636b706f696e743a20616d6f756e7420657863656564732039362062697473536166654d6174683a206d756c7469706c69636174696f6e206f766572666c6f7746656553686172696e67436f6c6c6563746f723a3a77697468647261773a205f6d6178436865636b706f696e74732073686f756c6420626520706f73697469766546656553686172696e67436f6c6c6563746f723a3a5f7772697465436865636b706f696e743a20626c6f636b2074696d657374616d70206578636565647320333220626974735374616b696e673a3a7472616e73666572546f6b656e733a20746f6b656e207472616e73666572206661696c6564524254435f44554d4d595f414444524553535f464f525f434845434b504f494e5446656553686172696e67436f6c6c6563746f723a3a5f616464436865636b706f696e743a20756e70726f636573736564416d6f756e742065786365656473203936206269747346656553686172696e67436f6c6c6563746f723a3a5f676574546f74616c566f6c756e7461727957656967687465645374616b653a20766573746564207374616b65206578636565647320746f74616c207374616b6546656553686172696e67436f6c6c6563746f723a3a77697468647261773a206c6f616e207752425443206e6f7420666f756e6446656553686172696e67436f6c6c6563746f723a3a77697468647261773a207769746864726177616c206661696c65645361666545524332303a204552433230206f7065726174696f6e20646964206e6f74207375636365656446656553686172696e67436f6c6c6563746f723a3a7769746864726177466565733a20746f6b656e206973206e6f74206120636f6e747261637446656553686172696e67436f6c6c6563746f723a3a7769746864726177466565733a206e6f207262746320666f722061207769746864726177616ca265627a7a723158209f9497eac8ef68d2c81a5e7955599946eb4e70d98ef329016ef9ac711e99935264736f6c63430005110032",
  "linkReferences": {},
  "deployedLinkReferences": {}
}