{
  "address": "0x115cAF168c51eD15ec535727F64684D33B7b08D1",
  "abi": [
    {
      "anonymous": false,
      "inputs": [
        {
          "indexed": true,
          "internalType": "address",
          "name": "sender",
          "type": "address"
        },
        {
          "indexed": true,
          "internalType": "address",
          "name": "token",
          "type": "address"
        },
        {
          "indexed": false,
          "internalType": "uint256",
          "name": "amount",
          "type": "uint256"
        }
      ],
      "name": "CheckpointAdded",
      "type": "event"
    },
    {
      "anonymous": false,
      "inputs": [
        {
          "indexed": true,
          "internalType": "address",
          "name": "sender",
          "type": "address"
        },
        {
          "indexed": true,
          "internalType": "address",
          "name": "converter",
          "type": "address"
        },
        {
          "indexed": false,
          "internalType": "uint256",
          "name": "amount",
          "type": "uint256"
        }
      ],
      "name": "FeeAMMWithdrawn",
      "type": "event"
    },
    {
      "anonymous": false,
      "inputs": [
        {
          "indexed": true,
          "internalType": "address",
          "name": "sender",
          "type": "address"
        },
        {
          "indexed": false,
          "internalType": "uint256",
          "name": "amount",
          "type": "uint256"
        }
      ],
      "name": "FeeWithdrawnInRBTC",
      "type": "event"
    },
    {
      "anonymous": false,
      "inputs": [
        {
          "indexed": true,
          "internalType": "address",
          "name": "previousOwner",
          "type": "address"
        },
        {
          "indexed": true,
          "internalType": "address",
          "name": "newOwner",
          "type": "address"
        }
      ],
      "name": "OwnershipTransferred",
      "type": "event"
    },
    {
      "anonymous": false,
      "inputs": [
        {
          "indexed": true,
          "internalType": "address",
          "name": "sender",
          "type": "address"
        },
        {
          "indexed": true,
          "internalType": "address",
          "name": "receiver",
          "type": "address"
        },
        {
          "indexed": false,
          "internalType": "uint256",
          "name": "amount",
          "type": "uint256"
        }
      ],
      "name": "RBTCWithdrawn",
      "type": "event"
    },
    {
      "anonymous": false,
      "inputs": [
        {
          "indexed": true,
          "internalType": "address",
          "name": "sender",
          "type": "address"
        },
        {
          "indexed": true,
          "internalType": "address",
          "name": "token",
          "type": "address"
        },
        {
          "indexed": false,
          "internalType": "uint256",
          "name": "amount",
          "type": "uint256"
        }
      ],
      "name": "TokensTransferred",
      "type": "event"
    },
    {
      "anonymous": false,
      "inputs": [
        {
          "indexed": true,
          "internalType": "address",
          "name": "sender",
          "type": "address"
        },
        {
          "indexed": false,
          "internalType": "address",
          "name": "converter",
          "type": "address"
        }
      ],
      "name": "UnwhitelistedConverter",
      "type": "event"
    },
    {
      "anonymous": false,
      "inputs": [
        {
          "indexed": true,
          "internalType": "address",
          "name": "sender",
          "type": "address"
        },
        {
          "indexed": true,
          "internalType": "address",
          "name": "token",
          "type": "address"
        },
        {
          "indexed": false,
          "internalType": "uint256",
          "name": "prevProcessedCheckpoints",
          "type": "uint256"
        },
        {
          "indexed": false,
          "internalType": "uint256",
          "name": "newProcessedCheckpoints",
          "type": "uint256"
        }
      ],
      "name": "UserFeeProcessedNoWithdraw",
      "type": "event"
    },
    {
      "anonymous": false,
      "inputs": [
        {
          "indexed": true,
          "internalType": "address",
          "name": "sender",
          "type": "address"
        },
        {
          "indexed": true,
          "internalType": "address",
          "name": "receiver",
          "type": "address"
        },
        {
          "indexed": true,
          "internalType": "address",
          "name": "token",
          "type": "address"
        },
        {
          "indexed": false,
          "internalType": "uint256",
          "name": "amount",
          "type": "uint256"
        }
      ],
      "name": "UserFeeWithdrawn",
      "type": "event"
    },
    {
      "anonymous": false,
      "inputs": [
        {
          "indexed": true,
          "internalType": "address",
          "name": "sender",
          "type": "address"
        },
        {
          "indexed": false,
          "internalType": "address",
          "name": "converter",
          "type": "address"
        }
      ],
      "name": "WhitelistedConverter",
      "type": "event"
    },
    {
      "payable": true,
      "stateMutability": "payable",
      "type": "fallback"
    },
    {
      "constant": true,
      "inputs": [],
      "name": "MAX_NEXT_POSITIVE_CHECKPOINT",
      "outputs": [
        {
          "internalType": "uint256",
          "name": "",
          "type": "uint256"
        }
      ],
      "payable": false,
      "stateMutability": "view",
      "type": "function"
    },
    {
      "constant": true,
      "inputs": [],
      "name": "RBTC_DUMMY_ADDRESS_FOR_CHECKPOINT",
      "outputs": [
        {
          "internalType": "address",
          "name": "",
          "type": "address"
        }
      ],
      "payable": false,
      "stateMutability": "view",
      "type": "function"
    },
    {
      "constant": false,
      "inputs": [
        {
          "internalType": "address",
          "name": "converterAddress",
          "type": "address"
        }
      ],
      "name": "addWhitelistedConverterAddress",
      "outputs": [],
      "payable": false,
      "stateMutability": "nonpayable",
      "type": "function"
    },
    {
      "constant": true,
      "inputs": [
        {
          "internalType": "address",
          "name": "_user",
          "type": "address"
        },
        {
          "internalType": "address",
          "name": "_token",
          "type": "address"
        }
      ],
      "name": "getAccumulatedFees",
      "outputs": [
        {
          "internalType": "uint256",
          "name": "",
          "type": "uint256"
        }
      ],
      "payable": false,
      "stateMutability": "view",
      "type": "function"
    },
    {
      "constant": true,
      "inputs": [
        {
          "internalType": "address",
          "name": "_user",
          "type": "address"
        }
      ],
      "name": "getAccumulatedRBTCFeeBalances",
      "outputs": [
        {
          "internalType": "uint256",
          "name": "",
          "type": "uint256"
        }
      ],
      "payable": false,
      "stateMutability": "view",
      "type": "function"
    },
    {
      "constant": true,
      "inputs": [
        {
          "internalType": "address",
          "name": "_user",
          "type": "address"
        },
        {
          "internalType": "address",
          "name": "_token",
          "type": "address"
        },
        {
          "internalType": "uint256",
          "name": "_startFrom",
          "type": "uint256"
        }
      ],
      "name": "getNextPositiveUserCheckpoint",
      "outputs": [
        {
          "internalType": "uint256",
          "name": "checkpointNum",
          "type": "uint256"
        },
        {
          "internalType": "bool",
          "name": "hasSkippedCheckpoints",
          "type": "bool"
        },
        {
          "internalType": "bool",
          "name": "hasFees",
          "type": "bool"
        }
      ],
      "payable": false,
      "stateMutability": "view",
      "type": "function"
    },
    {
      "constant": true,
      "inputs": [],
      "name": "getWhitelistedConverterList",
      "outputs": [
        {
          "internalType": "address[]",
          "name": "converterList",
          "type": "address[]"
        }
      ],
      "payable": false,
      "stateMutability": "view",
      "type": "function"
    },
    {
      "constant": true,
      "inputs": [],
      "name": "isOwner",
      "outputs": [
        {
          "internalType": "bool",
          "name": "",
          "type": "bool"
        }
      ],
      "payable": false,
      "stateMutability": "view",
      "type": "function"
    },
    {
      "constant": true,
      "inputs": [
        {
          "internalType": "address",
          "name": "",
          "type": "address"
        }
      ],
      "name": "lastFeeWithdrawalTime",
      "outputs": [
        {
          "internalType": "uint256",
          "name": "",
          "type": "uint256"
        }
      ],
      "payable": false,
      "stateMutability": "view",
      "type": "function"
    },
    {
      "constant": true,
      "inputs": [
        {
          "internalType": "address",
          "name": "_token",
          "type": "address"
        }
      ],
      "name": "numTokenCheckpoints",
      "outputs": [
        {
          "internalType": "uint256",
          "name": "",
          "type": "uint256"
        }
      ],
      "payable": false,
      "stateMutability": "view",
      "type": "function"
    },
    {
      "constant": true,
      "inputs": [],
      "name": "owner",
      "outputs": [
        {
          "internalType": "address",
          "name": "",
          "type": "address"
        }
      ],
      "payable": false,
      "stateMutability": "view",
      "type": "function"
    },
    {
      "constant": true,
      "inputs": [
        {
          "internalType": "address",
          "name": "",
          "type": "address"
        },
        {
          "internalType": "address",
          "name": "",
          "type": "address"
        }
      ],
      "name": "processedCheckpoints",
      "outputs": [
        {
          "internalType": "uint256",
          "name": "",
          "type": "uint256"
        }
      ],
      "payable": false,
      "stateMutability": "view",
      "type": "function"
    },
    {
      "constant": true,
      "inputs": [],
      "name": "protocol",
      "outputs": [
        {
          "internalType": "contract IProtocol",
          "name": "",
          "type": "address"
        }
      ],
      "payable": false,
      "stateMutability": "view",
      "type": "function"
    },
    {
      "constant": false,
      "inputs": [
        {
          "internalType": "address",
          "name": "converterAddress",
          "type": "address"
        }
      ],
      "name": "removeWhitelistedConverterAddress",
      "outputs": [],
      "payable": false,
      "stateMutability": "nonpayable",
      "type": "function"
    },
    {
      "constant": true,
      "inputs": [],
      "name": "staking",
      "outputs": [
        {
          "internalType": "contract IStaking",
          "name": "",
          "type": "address"
        }
      ],
      "payable": false,
      "stateMutability": "view",
      "type": "function"
    },
    {
      "constant": true,
      "inputs": [
        {
          "internalType": "address",
          "name": "",
          "type": "address"
        },
        {
          "internalType": "uint256",
          "name": "",
          "type": "uint256"
        }
      ],
      "name": "tokenCheckpoints",
      "outputs": [
        {
          "internalType": "uint32",
          "name": "blockNumber",
          "type": "uint32"
        },
        {
          "internalType": "uint32",
          "name": "timestamp",
          "type": "uint32"
        },
        {
          "internalType": "uint96",
          "name": "totalWeightedStake",
          "type": "uint96"
        },
        {
          "internalType": "uint96",
          "name": "numTokens",
          "type": "uint96"
        }
      ],
      "payable": false,
      "stateMutability": "view",
      "type": "function"
    },
    {
      "constant": true,
      "inputs": [
        {
          "internalType": "address",
          "name": "",
          "type": "address"
        }
      ],
      "name": "totalTokenCheckpoints",
      "outputs": [
        {
          "internalType": "uint256",
          "name": "",
          "type": "uint256"
        }
      ],
      "payable": false,
      "stateMutability": "view",
      "type": "function"
    },
    {
      "constant": false,
      "inputs": [
        {
          "internalType": "address",
          "name": "newOwner",
          "type": "address"
        }
      ],
      "name": "transferOwnership",
      "outputs": [],
      "payable": false,
      "stateMutability": "nonpayable",
      "type": "function"
    },
    {
      "constant": false,
      "inputs": [],
      "name": "transferRBTC",
      "outputs": [],
      "payable": true,
      "stateMutability": "payable",
      "type": "function"
    },
    {
      "constant": false,
      "inputs": [
        {
          "internalType": "address",
          "name": "_token",
          "type": "address"
        },
        {
          "internalType": "uint96",
          "name": "_amount",
          "type": "uint96"
        }
      ],
      "name": "transferTokens",
      "outputs": [],
      "payable": false,
      "stateMutability": "nonpayable",
      "type": "function"
    },
    {
      "constant": true,
      "inputs": [
        {
          "internalType": "address",
          "name": "",
          "type": "address"
        }
      ],
      "name": "unprocessedAmount",
      "outputs": [
        {
          "internalType": "uint96",
          "name": "",
          "type": "uint96"
        }
      ],
      "payable": false,
      "stateMutability": "view",
      "type": "function"
    },
    {
      "constant": false,
      "inputs": [
        {
          "internalType": "address",
          "name": "_token",
          "type": "address"
        },
        {
          "internalType": "uint32",
          "name": "_maxCheckpoints",
          "type": "uint32"
        },
        {
          "internalType": "address",
          "name": "_receiver",
          "type": "address"
        }
      ],
      "name": "withdraw",
      "outputs": [],
      "payable": false,
      "stateMutability": "nonpayable",
      "type": "function"
    },
    {
      "constant": false,
      "inputs": [
        {
          "internalType": "address[]",
          "name": "_tokens",
          "type": "address[]"
        }
      ],
      "name": "withdrawFees",
      "outputs": [],
      "payable": false,
      "stateMutability": "nonpayable",
      "type": "function"
    },
    {
      "constant": false,
      "inputs": [
        {
          "internalType": "address[]",
          "name": "_converters",
          "type": "address[]"
        }
      ],
      "name": "withdrawFeesAMM",
      "outputs": [],
      "payable": false,
      "stateMutability": "nonpayable",
      "type": "function"
    },
    {
      "constant": false,
      "inputs": [
        {
          "internalType": "uint32",
          "name": "_maxCheckpoints",
          "type": "uint32"
        },
        {
          "internalType": "address",
          "name": "_receiver",
          "type": "address"
        }
      ],
      "name": "withdrawRBTC",
      "outputs": [],
      "payable": false,
      "stateMutability": "nonpayable",
      "type": "function"
    },
    {
      "constant": false,
      "inputs": [
        {
          "internalType": "uint256",
          "name": "_fromCheckpoint",
          "type": "uint256"
        },
        {
          "internalType": "uint32",
          "name": "_maxCheckpoints",
          "type": "uint32"
        },
        {
          "internalType": "address",
          "name": "_receiver",
          "type": "address"
        }
      ],
      "name": "withdrawRBTCStartingFromCheckpoint",
      "outputs": [],
      "payable": false,
      "stateMutability": "nonpayable",
      "type": "function"
    },
    {
      "constant": false,
      "inputs": [
        {
          "internalType": "address",
          "name": "_token",
          "type": "address"
        },
        {
          "internalType": "uint256",
          "name": "_fromCheckpoint",
          "type": "uint256"
        },
        {
          "internalType": "uint32",
          "name": "_maxCheckpoints",
          "type": "uint32"
        },
        {
          "internalType": "address",
          "name": "_receiver",
          "type": "address"
        }
      ],
      "name": "withdrawStartingFromCheckpoint",
      "outputs": [],
      "payable": false,
      "stateMutability": "nonpayable",
      "type": "function"
    },
    {
      "constant": false,
      "inputs": [
        {
          "internalType": "address",
          "name": "receiver",
          "type": "address"
        },
        {
          "internalType": "uint256",
          "name": "wrbtcAmount",
          "type": "uint256"
        }
      ],
      "name": "withdrawWRBTC",
      "outputs": [],
      "payable": false,
      "stateMutability": "nonpayable",
      "type": "function"
    }
  ],
  "numDeployments": 3,
  "bytecode": "0x60806040526001600855600061001c6001600160e01b0361006b16565b600080546001600160a01b0319166001600160a01b0383169081178255604051929350917f8be0079c531659141344cd1fd0a4f28419497f9722a3daafe3b4186f6b6457e0908290a35061006f565b3390565b61454f806200007f6000396000f3fe6080604052600436106101b75760003560e01c80638f32d59b116100ec578063a965b3a91161008a578063c304044711610064578063c3040447146107d6578063f2962cda14610809578063f2fde38b1461083c578063f3bdba8f1461086f576101b7565b8063a965b3a9146106e6578063abe979e11461072f578063adcf21a714610771576101b7565b8063990ab37c116100c6578063990ab37c14610588578063a4955f2a146105eb578063a697b8c71461061e578063a933651914610699576101b7565b80638f32d59b1461050b57806393bb738214610534578063988ba59314610549576101b7565b80637104c4ff116101595780637d0ce2b2116101335780637d0ce2b21461047d5780638b6fdcba146104925780638ce74426146104e15780638da5cb5b146104f6576101b7565b80637104c4ff1461034f5780637913b451146103945780637c8678ec146103cf576101b7565b80634cf088d9116101955780634cf088d9146102415780635c4d9b121461027257806370530017146102ab5780637061acf31461031c576101b7565b806320020208146101b957806322a6fd95146101fe5780633d67df6f14610206575b005b3480156101c557600080fd5b506101ec600480360360208110156101dc57600080fd5b50356001600160a01b03166108a2565b60408051918252519081900360200190f35b6101b76108bd565b34801561021257600080fd5b506101ec6004803603604081101561022957600080fd5b506001600160a01b038135811691602001351661096a565b34801561024d57600080fd5b50610256610984565b604080516001600160a01b039092168252519081900360200190f35b34801561027e57600080fd5b506101b76004803603604081101561029557600080fd5b506001600160a01b038135169060200135610993565b3480156102b757600080fd5b506102e4600480360360408110156102ce57600080fd5b506001600160a01b038135169060200135610b32565b6040805163ffffffff95861681529390941660208401526001600160601b039182168385015216606082015290519081900360800190f35b34801561032857600080fd5b506101b76004803603602081101561033f57600080fd5b50356001600160a01b0316610b7d565b34801561035b57600080fd5b506101b76004803603606081101561037257600080fd5b50803590602081013563ffffffff1690604001356001600160a01b0316610c73565b3480156103a057600080fd5b506101ec600480360360408110156103b757600080fd5b506001600160a01b038135811691602001351661110c565b3480156103db57600080fd5b506101b7600480360360208110156103f257600080fd5b810190602081018135600160201b81111561040c57600080fd5b82018360208201111561041e57600080fd5b803590602001918460208302840111600160201b8311171561043f57600080fd5b919080806020026020016040519081016040528093929190818152602001838360200280828437600092019190915250929550611129945050505050565b34801561048957600080fd5b5061025661139d565b34801561049e57600080fd5b506104c5600480360360208110156104b557600080fd5b50356001600160a01b03166113b9565b604080516001600160601b039092168252519081900360200190f35b3480156104ed57600080fd5b506102566113d4565b34801561050257600080fd5b506102566113e3565b34801561051757600080fd5b506105206113f2565b604080519115158252519081900360200190f35b34801561054057600080fd5b506101ec611416565b34801561055557600080fd5b506101b76004803603604081101561056c57600080fd5b50803563ffffffff1690602001356001600160a01b031661141b565b34801561059457600080fd5b506105cb600480360360608110156105ab57600080fd5b506001600160a01b03813581169160208101359091169060400135611479565b604080519384529115156020840152151582820152519081900360600190f35b3480156105f757600080fd5b506101b76004803603602081101561060e57600080fd5b50356001600160a01b031661170d565b34801561062a57600080fd5b506101b76004803603602081101561064157600080fd5b810190602081018135600160201b81111561065b57600080fd5b82018360208201111561066d57600080fd5b803590602001918460208302840111600160201b8311171561068e57600080fd5b5090925090506117a9565b3480156106a557600080fd5b506101b7600480360360808110156106bc57600080fd5b506001600160a01b03813581169160208101359163ffffffff604083013516916060013516611a31565b3480156106f257600080fd5b506101b76004803603606081101561070957600080fd5b506001600160a01b03813581169163ffffffff6020820135169160409091013516611e9b565b34801561073b57600080fd5b506101b76004803603604081101561075257600080fd5b5080356001600160a01b031690602001356001600160601b0316611efb565b34801561077d57600080fd5b506107866121b5565b60408051602080825283518183015283519192839290830191858101910280838360005b838110156107c25781810151838201526020016107aa565b505050509050019250505060405180910390f35b3480156107e257600080fd5b506101ec600480360360208110156107f957600080fd5b50356001600160a01b03166121c6565b34801561081557600080fd5b506101ec6004803603602081101561082c57600080fd5b50356001600160a01b031661220d565b34801561084857600080fd5b506101b76004803603602081101561085f57600080fd5b50356001600160a01b031661221f565b34801561087b57600080fd5b506101ec6004803603602081101561089257600080fd5b50356001600160a01b0316612273565b6001600160a01b031660009081526004602052604090205490565b346001600160601b0381166109035760405162461bcd60e51b81526004018080602001828103825260308152602001806141076030913960400191505060405180910390fd5b610926604051808061432460219139604051908190036021019020905082612285565b604080516001600160601b0383168152905160009133917f1b89874203ff7f0bba87c969ada3f32fda22ed38a6706d35199d21280c7811b19181900360200190a350565b600080610979848460006123c9565b509150505b92915050565b6002546001600160a01b031681565b61099b6113f2565b6109db576040805162461bcd60e51b815260206004820152600c60248201526b1d5b985d5d1a1bdc9a5e995960a21b604482015290519081900360640190fd5b6001546040805163afe8400960e01b815290516000926001600160a01b03169163afe84009916004808301926020929190829003018186803b158015610a2057600080fd5b505afa158015610a34573d6000803e3d6000fd5b505050506040513d6020811015610a4a57600080fd5b5051604080516370a0823160e01b815230600482015290519192506000916001600160a01b038416916370a08231916024808301926020929190829003018186803b158015610a9857600080fd5b505afa158015610aac573d6000803e3d6000fd5b505050506040513d6020811015610ac257600080fd5b5051905080831115610b12576040805162461bcd60e51b8152602060048201526014602482015273496e73756666696369656e742062616c616e636560601b604482015290519081900360640190fd5b610b2c6001600160a01b038316858563ffffffff6123e516565b50505050565b600360209081526000928352604080842090915290825290205463ffffffff80821691600160201b8104909116906001600160601b03600160401b8204811691600160a01b90041684565b610b856113f2565b610bc5576040805162461bcd60e51b815260206004820152600c60248201526b1d5b985d5d1a1bdc9a5e995960a21b604482015290519081900360640190fd5b610bce81612437565b610c1f576040805162461bcd60e51b815260206004820152601a60248201527f4e6f6e20636f6e7472616374206164647265737320676976656e000000000000604482015290519081900360640190fd5b610c3060098263ffffffff61247316565b50604080516001600160a01b0383168152905133917fe7902ff5b883e069d72db554511b4f7122428c996decf30682b312a66879668a919081900360200190a250565b8233604051808061432460219139604051908190036021019020905060018311610cce5760405162461bcd60e51b815260040180806020018281038252602181526020018061428f6021913960400191505060405180910390fd5b6001600160a01b038083166000908152600560209081526040808320938516835292905220546000198401908411610d375760405162461bcd60e51b81526004018080602001828103825260388152602001806144146038913960400191505060405180910390fd5b6001600160a01b038216600090815260046020526040902054841115610d8e5760405162461bcd60e51b8152600401808060200182810382526032815260200180613f916032913960400191505060405180910390fd5b610d96613ea1565b506001600160a01b0380831660009081526003602090815260408083206000198601845282528083208151608081018352905463ffffffff808216808452600160201b83049091168386018190526001600160601b03600160401b8404811685870152600160a01b909304909216606084015260025484516337e6b1c160e01b81528b89166004820152602481019290925260448201929092529251919516926337e6b1c19260648082019391829003018186803b158015610e5757600080fd5b505afa158015610e6b573d6000803e3d6000fd5b505050506040513d6020811015610e8157600080fd5b505190506001600160601b03811615610ecb5760405162461bcd60e51b81526004018080602001828103825260398152602001806141376039913960400191505060405180910390fd5b610ed3613ea1565b506001600160a01b0380851660009081526003602090815260408083208784528252918290208251608081018452905463ffffffff808216808452600160201b83049091168385018190526001600160601b03600160401b8404811685880152600160a01b909304909216606084015260025485516337e6b1c160e01b81528c88166004820152602481019290925260448201929092529351919416926337e6b1c1926064808301939192829003018186803b158015610f9257600080fd5b505afa158015610fa6573d6000803e3d6000fd5b505050506040513d6020811015610fbc57600080fd5b505191506001600160601b0382166110055760405162461bcd60e51b81526004018080602001828103825260358152602001806140d26035913960400191505060405180910390fd5b60016008541461104b576040805162461bcd60e51b815260206004820152600c60248201526b1b9bdb9499595b9d1c985b9d60a21b604482015290519081900360640190fd5b6002600855336000908152600560205260408082209051909190806021614324823960408051918290036021019091206001600160a01b0316835260208301939093525001600020548a11156110f1576110ac8a600163ffffffff6124d316565b336000908152600560205260408082209051909190806021614324823960408051918290036021019091206001600160a01b0316835260208301939093525001600020555b6110fb898961251c565b505060016008555050505050505050565b600560209081526000928352604080842090915290825290205481565b6001546040805163afe8400960e01b815290516000926001600160a01b03169163afe84009916004808301926020929190829003018186803b15801561116e57600080fd5b505afa158015611182573d6000803e3d6000fd5b505050506040513d602081101561119857600080fd5b505190506111a5826128a1565b6000805b83518110156113655760008482815181106111c057fe5b60200260200101516001600160a01b031663164e68de306040518263ffffffff1660e01b815260040180826001600160a01b03166001600160a01b03168152602001915050602060405180830381600087803b15801561121f57600080fd5b505af1158015611233573d6000803e3d6000fd5b505050506040513d602081101561124957600080fd5b50519050801561135c57836001600160a01b0316632e1a7d4d826040518263ffffffff1660e01b815260040180828152602001915050600060405180830381600087803b15801561129957600080fd5b505af11580156112ad573d6000803e3d6000fd5b5050505060006112d58260405180608001604052806048815260200161408a60489139612921565b90506112fa84826040518060800160405280604e815260200161403c604e91396129bb565b935085838151811061130857fe5b60200260200101516001600160a01b0316336001600160a01b03167fd915b7f9d8d5ce11af1f5961b830d7d7c01a750927706eb0bcbf80a8827d76cc846040518082815260200191505060405180910390a3505b506001016111a9565b506001600160601b0381161561139857611398604051808061432460219139604051908190036021019020905082612285565b505050565b6040518060216143248239604051908190036021019020905081565b6007602052600090815260409020546001600160601b031681565b6001546001600160a01b031681565b6000546001600160a01b031690565b600080546001600160a01b0316611407612a25565b6001600160a01b031614905090565b607881565b600160085414611461576040805162461bcd60e51b815260206004820152600c60248201526b1b9bdb9499595b9d1c985b9d60a21b604482015290519081900360640190fd5b6002600855611470828261251c565b50506001600855565b6002546040805163ca6860df60e01b81526001600160a01b03868116600483015291516000938493849391169163ca6860df91602480820192602092909190829003018186803b1580156114cc57600080fd5b505afa1580156114e0573d6000803e3d6000fd5b505050506040513d60208110156114f657600080fd5b50511561150b57506000915081905080611704565b6001600160a01b0380871660009081526005602090815260408083209389168352928152828220546004909152919020548082101580611549575080155b1561155e579350600092508291506117049050565b600082871161156d578261156f565b865b9050600061158482607863ffffffff612a2916565b905060008382106115955783611597565b815b9050825b818110156116f4576000600360008d6001600160a01b03166001600160a01b03168152602001908152602001600020600083815260200190815260200160002090506000600260009054906101000a90046001600160a01b03166001600160a01b03166337e6b1c18f60018560000160009054906101000a900463ffffffff16038560000160049054906101000a900463ffffffff166040518463ffffffff1660e01b815260040180846001600160a01b03166001600160a01b031681526020018363ffffffff1681526020018263ffffffff168152602001935050505060206040518083038186803b15801561169157600080fd5b505afa1580156116a5573d6000803e3d6000fd5b505050506040513d60208110156116bb57600080fd5b505190506001600160601b038116156116ea578260010188841160019a509a509a505050505050505050611704565b505060010161159b565b5096505050908411925060009150505b93509350939050565b6117156113f2565b611755576040805162461bcd60e51b815260206004820152600c60248201526b1d5b985d5d1a1bdc9a5e995960a21b604482015290519081900360640190fd5b61176660098263ffffffff612a8316565b50604080516001600160a01b0383168152905133917f7b8bddb144d9ebd8a4fa3f47acac7c75b34ade822d5e528a442825fa9100ffdb919081900360200190a250565b60005b8181101561181b576117d88383838181106117c357fe5b905060200201356001600160a01b0316612437565b6118135760405162461bcd60e51b815260040180806020018281038252603a8152602001806144a6603a913960400191505060405180910390fd5b6001016117ac565b5060015460408051630f7e7aab60e41b8152306024820181905260048201928352604482018590526000936001600160a01b03169263f7e7aab0928792879290918190606401856020860280828437600081840152601f19601f820116905080830192505050945050505050602060405180830381600087803b1580156118a157600080fd5b505af11580156118b5573d6000803e3d6000fd5b505050506040513d60208110156118cb57600080fd5b50516001546040805163afe8400960e01b815290519293506000926001600160a01b039092169163afe8400991600480820192602092909190829003018186803b15801561191857600080fd5b505afa15801561192c573d6000803e3d6000fd5b505050506040513d602081101561194257600080fd5b5051905081156119f557806001600160a01b0316632e1a7d4d836040518263ffffffff1660e01b815260040180828152602001915050600060405180830381600087803b15801561199257600080fd5b505af11580156119a6573d6000803e3d6000fd5b5050505060006119ce83604051806080016040528060458152602001613ff760459139612921565b90506119f3604051808061432460219139604051908190036021019020905082612285565b505b60408051838152905133917fea588ee3c471f3c47a77b5d118007e77b1d74e5b310a8805df274aa067d2e8a6919081900360200190a250505050565b82338560018311611a735760405162461bcd60e51b815260040180806020018281038252602181526020018061428f6021913960400191505060405180910390fd5b6001600160a01b038083166000908152600560209081526040808320938516835292905220546000198401908411611adc5760405162461bcd60e51b81526004018080602001828103825260388152602001806144146038913960400191505060405180910390fd5b6001600160a01b038216600090815260046020526040902054841115611b335760405162461bcd60e51b8152600401808060200182810382526032815260200180613f916032913960400191505060405180910390fd5b611b3b613ea1565b506001600160a01b0380831660009081526003602090815260408083206000198601845282528083208151608081018352905463ffffffff808216808452600160201b83049091168386018190526001600160601b03600160401b8404811685870152600160a01b909304909216606084015260025484516337e6b1c160e01b81528b89166004820152602481019290925260448201929092529251919516926337e6b1c19260648082019391829003018186803b158015611bfc57600080fd5b505afa158015611c10573d6000803e3d6000fd5b505050506040513d6020811015611c2657600080fd5b505190506001600160601b03811615611c705760405162461bcd60e51b81526004018080602001828103825260398152602001806141376039913960400191505060405180910390fd5b611c78613ea1565b506001600160a01b0380851660009081526003602090815260408083208784528252918290208251608081018452905463ffffffff808216808452600160201b83049091168385018190526001600160601b03600160401b8404811685880152600160a01b909304909216606084015260025485516337e6b1c160e01b81528c88166004820152602481019290925260448201929092529351919416926337e6b1c1926064808301939192829003018186803b158015611d3757600080fd5b505afa158015611d4b573d6000803e3d6000fd5b505050506040513d6020811015611d6157600080fd5b505191506001600160601b038216611daa5760405162461bcd60e51b81526004018080602001828103825260358152602001806140d26035913960400191505060405180910390fd5b600160085414611df0576040805162461bcd60e51b815260206004820152600c60248201526b1b9bdb9499595b9d1c985b9d60a21b604482015290519081900360640190fd5b60026008553360009081526005602090815260408083206001600160a01b038f1684529091529020548a1115611e7e57611e318a600163ffffffff6124d316565b60056000336001600160a01b03166001600160a01b0316815260200190815260200160002060008d6001600160a01b03166001600160a01b03168152602001908152602001600020819055505b611e898b8a8a612b8e565b50506001600855505050505050505050565b600160085414611ee1576040805162461bcd60e51b815260206004820152600c60248201526b1b9bdb9499595b9d1c985b9d60a21b604482015290519081900360640190fd5b6002600855611ef1838383612b8e565b5050600160085550565b6001600160a01b038216611f405760405162461bcd60e51b8152600401808060200182810382526034815260200180613efc6034913960400191505060405180910390fd5b6000816001600160601b031611611f885760405162461bcd60e51b8152600401808060200182810382526033815260200180613ec96033913960400191505060405180910390fd5b604080516323b872dd60e01b81523360048201523060248201526001600160601b038316604482015290516000916001600160a01b038516916323b872dd9160648082019260209290919082900301818787803b158015611fe857600080fd5b505af1158015611ffc573d6000803e3d6000fd5b505050506040513d602081101561201257600080fd5b50519050806120525760405162461bcd60e51b815260040180806020018281038252602e8152602001806142f6602e913960400191505060405180910390fd5b6001546040805163afe8400960e01b815290516000926001600160a01b03169163afe84009916004808301926020929190829003018186803b15801561209757600080fd5b505afa1580156120ab573d6000803e3d6000fd5b505050506040513d60208110156120c157600080fd5b505190506001600160a01b03848116908216141561215c57806001600160a01b0316632e1a7d4d846040518263ffffffff1660e01b815260040180826001600160601b03168152602001915050600060405180830381600087803b15801561212857600080fd5b505af115801561213c573d6000803e3d6000fd5b505050506040518080614324602191396040519081900360210190209450505b6121668484612285565b604080516001600160601b038516815290516001600160a01b0386169133917f1b89874203ff7f0bba87c969ada3f32fda22ed38a6706d35199d21280c7811b19181900360200190a350505050565b60606121c16009612f63565b905090565b6000806000806121d7856000613009565b50939650919450925061220491508290506121f8858563ffffffff612a2916565b9063ffffffff612a2916565b95945050505050565b60046020526000908152604090205481565b6122276113f2565b612267576040805162461bcd60e51b815260206004820152600c60248201526b1d5b985d5d1a1bdc9a5e995960a21b604482015290519081900360640190fd5b61227081613184565b50565b60066020526000908152604090205481565b6001600160a01b0382166000908152600660205260409020546201518042919091031061233e576001600160a01b03821660009081526006602090815260408083204290556007825280832054815160608101909252603b808352612301936001600160601b039092169286929091906141f2908301396129bb565b6001600160a01b038416600090815260076020526040902080546bffffffffffffffffffffffff1916905590506123388382613224565b506123c5565b6001600160a01b038216600090815260076020908152604091829020548251608081019093526046808452612389936001600160601b039092169285929190614345908301396129bb565b6001600160a01b038316600090815260076020526040902080546bffffffffffffffffffffffff19166001600160601b03929092169190911790555b5050565b6000806123d960008686866134c7565b91509150935093915050565b604080516001600160a01b038416602482015260448082018490528251808303909101815260649091019091526020810180516001600160e01b031663a9059cbb60e01b1790526113989084906137fe565b6000813f7fc5d2460186f7233c927e7db2dcc703c0e500b653ca82273b7bfad8045d85a47081811480159061246b57508115155b949350505050565b600061247f83836139b6565b6124cb5750600182810180548083018083556000928352602080842090920180546001600160a01b0319166001600160a01b03871690811790915583529085905260409091205561097e565b50600061097e565b600061251583836040518060400160405280601e81526020017f536166654d6174683a207375627472616374696f6e206f766572666c6f7700008152506139d4565b9392505050565b6000806000806000806000803390506000600160009054906101000a90046001600160a01b03166001600160a01b031663afe840096040518163ffffffff1660e01b815260040160206040518083038186803b15801561257b57600080fd5b505afa15801561258f573d6000803e3d6000fd5b505050506040513d60208110156125a557600080fd5b5051905060006125b482613a2e565b90506001600160a01b038b166125c857339a505b6125d2838d613009565b939e50939c50909a50985090965094508815612636576001600160a01b0383166000908152600560205260408082209051899290806021614324823960408051918290036021019091206001600160a01b0316835260208301939093525001600020555b89156126ba576001600160a01b038084166000908152600560209081526040808320938616808452939091528082208990558051632e1a7d4d60e01b8152600481018e90529051632e1a7d4d9260248084019391929182900301818387803b1580156126a157600080fd5b505af11580156126b5573d6000803e3d6000fd5b505050505b871561275f576001600160a01b0380841660009081526005602090815260408083209385168084529382528083208990558051630141abc160e21b8152306004820152602481018d9052604481018490529051630506af0493606480840194938390030190829087803b15801561273057600080fd5b505af1158015612744573d6000803e3d6000fd5b505050506040513d602081101561275a57600080fd5b505193505b6000612775856121f88c8e63ffffffff612a2916565b9050600081116127b65760405162461bcd60e51b815260040180806020018281038252603b8152602001806144e0603b913960400191505060405180910390fd5b6040516000906001600160a01b038e169083908381818185875af1925050503d8060008114612801576040519150601f19603f3d011682016040523d82523d6000602084013e612806565b606091505b50509050806128465760405162461bcd60e51b8152600401808060200182810382526034815260200180613fc36034913960400191505060405180910390fd5b8c6001600160a01b0316856001600160a01b03167fba7771603337d6821ea291d76396cf6aa3ea405141b033d8415280139c980c1d846040518082815260200191505060405180910390a35050505050505050505050505050565b60005b81518110156123c5576128d48282815181106128bc57fe5b602002602001015160096139b690919063ffffffff16565b612919576040805162461bcd60e51b815260206004820152601160248201527024b73b30b634b21021b7b73b32b93a32b960791b604482015290519081900360640190fd5b6001016128a4565b600081600160601b84106129b35760405162461bcd60e51b81526004018080602001828103825283818151815260200191508051906020019080838360005b83811015612978578181015183820152602001612960565b50505050905090810190601f1680156129a55780820380516001836020036101000a031916815260200191505b509250505060405180910390fd5b509192915050565b6000838301826001600160601b038087169083161015612a1c5760405162461bcd60e51b8152602060048201818152835160248401528351909283926044909101919085019080838360008315612978578181015183820152602001612960565b50949350505050565b3390565b600082820183811015612515576040805162461bcd60e51b815260206004820152601b60248201527f536166654d6174683a206164646974696f6e206f766572666c6f770000000000604482015290519081900360640190fd5b6000612a8f83836139b6565b156124cb576001600160a01b03821660009081526020849052604090205460018401546000199182019101808214612b3a576000856001018281548110612ad257fe5b6000918252602090912001546001870180546001600160a01b039092169250829185908110612afd57fe5b600091825260208083209190910180546001600160a01b0319166001600160a01b0394851617905592909116815290869052604090206001830190555b6001600160a01b03841660009081526020869052604081205560018501805480612b6057fe5b600082815260209020810160001990810180546001600160a01b0319169055019055506001915061097e9050565b60008263ffffffff1611612bd35760405162461bcd60e51b815260040180806020018281038252604181526020018061424e6041913960600191505060405180910390fd5b6001546040805163afe8400960e01b815290516000926001600160a01b03169163afe84009916004808301926020929190829003018186803b158015612c1857600080fd5b505afa158015612c2c573d6000803e3d6000fd5b505050506040513d6020811015612c4257600080fd5b505190506000612c5182613a2e565b9050336001600160a01b038416612c66573393505b600080612c748389896123c9565b915091508160001415612d7b576001600160a01b038084166000908152600560209081526040808320938c1683529290522054811115612d44576001600160a01b038381166000908152600560209081526040808320938c1680845293825291829020548251908152908101849052815133927fd3d8b561a0f93295b4ea7e2b930d36bd7f1a38774547bf98fb66540f588217b2928290030190a36001600160a01b039283166000908152600560209081526040808320958b168352949052929092209190915550611398915050565b60405162461bcd60e51b815260040180806020018281038252603b815260200180613f30603b913960400191505060405180910390fd5b6001600160a01b0380841660009081526005602090815260408083208c851680855292529091208390559085161415612e3d5760408051630141abc160e21b81526001600160a01b038881166004830152602482018590526000604483018190529251908b1692630506af0492606480820193602093909283900390910190829087803b158015612e0b57600080fd5b505af1158015612e1f573d6000803e3d6000fd5b505050506040513d6020811015612e3557600080fd5b50612f049050565b876001600160a01b031663a9059cbb87846040518363ffffffff1660e01b815260040180836001600160a01b03166001600160a01b0316815260200182815260200192505050602060405180830381600087803b158015612e9d57600080fd5b505af1158015612eb1573d6000803e3d6000fd5b505050506040513d6020811015612ec757600080fd5b5051612f045760405162461bcd60e51b815260040180806020018281038252603081526020018061444c6030913960400191505060405180910390fd5b876001600160a01b0316866001600160a01b0316336001600160a01b03167fe635adc5d0c2d7b47215ce5ed57a79c3db183a1ef414ccfc43f24f19178a630f856040518082815260200191505060405180910390a45050505050505050565b6060808260010180549050604051908082528060200260200182016040528015612f97578160200160208202803883390190505b50905060005b600184015481101561300257836001018181548110612fb857fe5b9060005260206000200160009054906101000a90046001600160a01b0316828281518110612fe257fe5b6001600160a01b0390921660209283029190910190910152600101612f9d565b5092915050565b6000806000806000806000600160009054906101000a90046001600160a01b03166001600160a01b031663afe840096040518163ffffffff1660e01b815260040160206040518083038186803b15801561306257600080fd5b505afa158015613076573d6000803e3d6000fd5b505050506040513d602081101561308c57600080fd5b50519050600061309b82613a2e565b90506130c18a60405180806143246021913960405190819003602101902090508b6123c9565b90985094506130d18a838b6123c9565b90975093506130e18a828b6123c9565b8094508197505050613176670de0b6b3a764000061316a836001600160a01b0316637ff9b5966040518163ffffffff1660e01b815260040160206040518083038186803b15801561313157600080fd5b505afa158015613145573d6000803e3d6000fd5b505050506040513d602081101561315b57600080fd5b5051899063ffffffff613af016565b9063ffffffff613b4916565b955050509295509295509295565b6001600160a01b0381166131c95760405162461bcd60e51b8152600401808060200182810382526026815260200180613f6b6026913960400191505060405180910390fd5b600080546040516001600160a01b03808516939216917f8be0079c531659141344cd1fd0a4f28419497f9722a3daafe3b4186f6b6457e091a3600080546001600160a01b0319166001600160a01b0392909216919091179055565b60006132484360405180608001604052806043815260200161417060439139613b8b565b9050600061326e426040518060800160405280604681526020016142b060469139613b8b565b6001600160a01b038516600090815260046020526040812054919250613298600019850142613be0565b90506000816001600160601b0316116132f8576040805162461bcd60e51b815260206004820152601a60248201527f496e76616c696420746f74616c57656967687465645374616b65000000000000604482015290519081900360640190fd5b60008211801561333757506001600160a01b03861660009081526003602090815260408083206000198601845290915290205463ffffffff8581169116145b156133a6576001600160a01b03868116600090815260036020908152604080832060001987018452909152902080546001600160601b03888116600160a01b02908516600160401b026bffffffffffffffffffffffff60401b1990921691909117909216919091179055613476565b6040805160808101825263ffffffff868116825285811660208084019182526001600160601b038681168587019081528b8216606087019081526001600160a01b038e81166000818152600387528a81208d825287528a812099518a5498519551945163ffffffff19909916908a161767ffffffff000000001916600160201b9590991694909402979097176bffffffffffffffffffffffff60401b1916600160401b928516929092029190911716600160a01b9490921693909302179093559081526004909152206001830190555b604080516001600160601b038716815290516001600160a01b0388169133917ff61a5f2f4d0b2d871d5bf18717d08a6b0f543afa7e08dad5df1fea150f7296329181900360200190a3505050505050565b6002546040805163ca6860df60e01b81526001600160a01b03868116600483015291516000938493169163ca6860df916024808301926020929190829003018186803b15801561351657600080fd5b505afa15801561352a573d6000803e3d6000fd5b505050506040513d602081101561354057600080fd5b505115613552575060009050806137f5565b6001600160a01b03808616600090815260056020908152604080832093881683529290522054808711156135835750855b6000808563ffffffff16116135b0576001600160a01b0386166000908152600460205260409020546135bb565b6135bb828787613d18565b6001600160a01b03871660009081526004602052604090205490915082106135ea576000935091506137f59050565b60008080845b848110156137ea576001600160a01b038a811660009081526003602090815260408083208584528252808320600254815483516372ec979560e01b8152600160201b90910463ffffffff1660048201529251919516926372ec97959260248082019391829003018186803b15801561366757600080fd5b505afa15801561367b573d6000803e3d6000fd5b505050506040513d602081101561369157600080fd5b505190506000858214156136a657508361378f565b600260009054906101000a90046001600160a01b03166001600160a01b03166337e6b1c18f60018660000160009054906101000a900463ffffffff16038660000160049054906101000a900463ffffffff166040518463ffffffff1660e01b815260040180846001600160a01b03166001600160a01b031681526020018363ffffffff1681526020018263ffffffff168152602001935050505060206040518083038186803b15801561375857600080fd5b505afa15801561376c573d6000803e3d6000fd5b505050506040513d602081101561378257600080fd5b5051919550909350849050835b82546000906137c6906001600160601b03600160401b820481169161316a91600160a01b909104811690861663ffffffff613af016565b90506137d8888263ffffffff612a2916565b975050600190930192506135f0915050565b509195509193505050505b94509492505050565b613810826001600160a01b0316612437565b613861576040805162461bcd60e51b815260206004820152601f60248201527f5361666545524332303a2063616c6c20746f206e6f6e2d636f6e747261637400604482015290519081900360640190fd5b60006060836001600160a01b0316836040518082805190602001908083835b6020831061389f5780518252601f199092019160209182019101613880565b6001836020036101000a0380198251168184511680821785525050505050509050019150506000604051808303816000865af19150503d8060008114613901576040519150601f19603f3d011682016040523d82523d6000602084013e613906565b606091505b50915091508161395d576040805162461bcd60e51b815260206004820181905260248201527f5361666545524332303a206c6f772d6c6576656c2063616c6c206661696c6564604482015290519081900360640190fd5b805115610b2c5780806020019051602081101561397957600080fd5b5051610b2c5760405162461bcd60e51b815260040180806020018281038252602a81526020018061447c602a913960400191505060405180910390fd5b6001600160a01b031660009081526020919091526040902054151590565b60008184841115613a265760405162461bcd60e51b8152602060048201818152835160248401528351909283926044909101919085019080838360008315612978578181015183820152602001612960565b505050900390565b600154604080516310c59ce360e11b81526001600160a01b03848116600483015291516000938493169163218b39c6916024808301926020929190829003018186803b158015613a7d57600080fd5b505afa158015613a91573d6000803e3d6000fd5b505050506040513d6020811015613aa757600080fd5b505190506001600160a01b03811661097e5760405162461bcd60e51b81526004018080602001828103825260338152602001806143e16033913960400191505060405180910390fd5b600082613aff5750600061097e565b82820282848281613b0c57fe5b04146125155760405162461bcd60e51b815260040180806020018281038252602181526020018061422d6021913960400191505060405180910390fd5b600061251583836040518060400160405280601a81526020017f536166654d6174683a206469766973696f6e206279207a65726f000000000000815250613dd7565b600081600160201b84106129b35760405162461bcd60e51b8152602060048201818152835160248401528351909283926044909101919085019080838360008315612978578181015183820152602001612960565b6002546040805163cdbe715560e01b815263ffffffff8516600482015260248101849052905160009283926001600160a01b039091169163cdbe715591604480820192602092909190829003018186803b158015613c3d57600080fd5b505afa158015613c51573d6000803e3d6000fd5b505050506040513d6020811015613c6757600080fd5b5051600254604080516312916bdd60e11b815263ffffffff881660048201526024810187905290519293506001600160a01b0390911691632522d7ba91604480820192602092909190829003018186803b158015613cc457600080fd5b505afa158015613cd8573d6000803e3d6000fd5b505050506040513d6020811015613cee57600080fd5b50516040805160808101909152605680825291935061246b918491849161438b6020830139613e3c565b6001600160a01b03821660009081526004602052604081205480613d40576000915050612515565b6000198101600063ffffffff8516613d59575081613d96565b613d838563ffffffff1688016040518060600160405280603f81526020016141b3603f9139613b8b565b63ffffffff16905082811115613d965750815b6001600160a01b038616600090815260036020908152604080832085845290915290205463ffffffff1643811415613dcc578291505b509695505050505050565b60008183613e265760405162461bcd60e51b8152602060048201818152835160248401528351909283926044909101919085019080838360008315612978578181015183820152602001612960565b506000838581613e3257fe5b0495945050505050565b6000836001600160601b0316836001600160601b031611158290613a265760405162461bcd60e51b8152602060048201818152835160248401528351909283926044909101919085019080838360008315612978578181015183820152602001612960565b6040805160808101825260008082526020820181905291810182905260608101919091529056fe46656553686172696e67436f6c6c6563746f723a3a7472616e73666572546f6b656e733a20696e76616c696420616d6f756e7446656553686172696e67436f6c6c6563746f723a3a7472616e73666572546f6b656e733a20696e76616c6964206164647265737346656553686172696e67436f6c6c6563746f723a3a7769746864726177466565733a206e6f20746f6b656e7320666f72207769746864726177616c4f776e61626c653a206e6577206f776e657220697320746865207a65726f20616464726573735f66726f6d436865636b706f696e742073686f756c64206265203c3d20746f74616c546f6b656e436865636b706f696e747346656553686172696e67436f6c6c6563746f723a3a7769746864726177524254433a205769746864726177616c206661696c656446656553686172696e67436f6c6c6563746f723a3a7769746864726177466565733a20777262746320746f6b656e20616d6f756e742065786365656473203936206269747346656553686172696e67436f6c6c6563746f723a3a776974686472617746656573414d4d3a20746f74616c20777262746320746f6b656e20616d6f756e742065786365656473203936206269747346656553686172696e67436f6c6c6563746f723a3a776974686472617746656573414d4d3a20777262746320746f6b656e20616d6f756e742065786365656473203936206269747355736572207765696768746564207374616b652073686f756c64206265203e203020617420205f66726f6d436865636b706f696e7446656553686172696e67436f6c6c6563746f723a3a7472616e73666572524254433a20696e76616c69642076616c756555736572207765696768746564207374616b652073686f756c64206265207a65726f2061742070726576696f757320636865636b706f696e7446656553686172696e67436f6c6c6563746f723a3a5f7772697465436865636b706f696e743a20626c6f636b206e756d6265722065786365656473203332206269747346656553686172696e67436f6c6c6563746f723a3a77697468647261773a20636865636b706f696e7420696e6465782065786365656473203332206269747346656553686172696e67436f6c6c6563746f723a3a5f616464436865636b706f696e743a20616d6f756e7420657863656564732039362062697473536166654d6174683a206d756c7469706c69636174696f6e206f766572666c6f7746656553686172696e67436f6c6c6563746f723a3a77697468647261773a205f6d6178436865636b706f696e74732073686f756c6420626520706f7369746976655f66726f6d436865636b706f696e7420706172616d206d757374206265203e203146656553686172696e67436f6c6c6563746f723a3a5f7772697465436865636b706f696e743a20626c6f636b2074696d657374616d70206578636565647320333220626974735374616b696e673a3a7472616e73666572546f6b656e733a20746f6b656e207472616e73666572206661696c6564524254435f44554d4d595f414444524553535f464f525f434845434b504f494e5446656553686172696e67436f6c6c6563746f723a3a5f616464436865636b706f696e743a20756e70726f636573736564416d6f756e742065786365656473203936206269747346656553686172696e67436f6c6c6563746f723a3a5f676574546f74616c566f6c756e7461727957656967687465645374616b653a20766573746564207374616b65206578636565647320746f74616c207374616b6546656553686172696e67436f6c6c6563746f723a3a77697468647261773a206c6f616e207752425443206e6f7420666f756e645f66726f6d436865636b706f696e7420706172616d206d757374206265203e207573657250726f636573736564436865636b706f696e747346656553686172696e67436f6c6c6563746f723a3a77697468647261773a207769746864726177616c206661696c65645361666545524332303a204552433230206f7065726174696f6e20646964206e6f74207375636365656446656553686172696e67436f6c6c6563746f723a3a7769746864726177466565733a20746f6b656e206973206e6f74206120636f6e747261637446656553686172696e67436f6c6c6563746f723a3a7769746864726177466565733a206e6f207262746320666f722061207769746864726177616ca265627a7a7231582035a22447a127e437454188704778b2c096df4b7e7513a65ccb6e8c22e1cf0dea64736f6c63430005110032",
  "implementation": "0x76f61512B2D775c93F7813202964Fe0E9148d86f",
  "devdoc": {
    "methods": {
      "addWhitelistedConverterAddress(address)": {
        "details": "Whitelisting converter address.",
        "params": {
          "converterAddress": "converter address to be whitelisted."
        }
      },
      "getAccumulatedFees(address,address)": {
        "params": {
          "_token": "RBTC dummy to fit into existing data structure or SOV. Former address of the pool token.",
          "_user": "The address of the user or contract."
        },
        "return": "The accumulated fee for the message sender."
      },
      "getAccumulatedRBTCFeeBalances(address)": {
        "details": "view function that calculate the total RBTC that includes: - RBTC - WRBTC - iWRBTC * iWRBTC.tokenPrice()",
        "params": {
          "_user": "address of the user."
        },
        "return": "rbtc balance of the given user's address."
      },
      "getNextPositiveUserCheckpoint(address,address,uint256)": {
        "details": "Returns first user's checkpoint with weighted stake > 0",
        "params": {
          "_startFrom": "Checkpoint number to start from. If _startFrom < processedUserCheckpoints then starts from processedUserCheckpoints.",
          "_token": "RBTC dummy to fit into existing data structure or SOV. Former address of the pool token.",
          "_user": "The address of the user or contract."
        },
        "return": "Checkpoint number where user's weighted stake > 0"
      },
      "getWhitelistedConverterList()": {
        "return": "All of the whitelisted converter list."
      },
      "isOwner()": {
        "details": "Returns true if the caller is the current owner."
      },
      "numTokenCheckpoints(address)": {
        "details": "This getter function `numTokenCheckpoints` is added for backwards compatibility     broken when renamed `numTokenCheckpoints` storage variable to `totalTokenCheckpoints`.",
        "params": {
          "_token": "token address to get checkpoints for"
        },
        "return": "Total token checkpoints"
      },
      "owner()": {
        "details": "Returns the address of the current owner."
      },
      "removeWhitelistedConverterAddress(address)": {
        "details": "Removing converter address from whitelist.",
        "params": {
          "converterAddress": "converter address to be removed from whitelist."
        }
      },
      "transferOwnership(address)": {
        "details": "Transfers ownership of the contract to a new account (`newOwner`). Can only be called by the current owner."
      },
      "transferRBTC()": {
        "details": "We just write checkpoint here (based on the rbtc value that is sent) in a separate methods in order to prevent adding checkpoints too often."
      },
      "transferTokens(address,uint96)": {
        "details": "We just update amount of tokens here and write checkpoint in a separate methods in order to prevent adding checkpoints too often.",
        "params": {
          "_amount": "Amount to be transferred.",
          "_token": "Address of the token."
        }
      },
      "withdraw(address,uint32,address)": {
        "params": {
          "_maxCheckpoints": "Maximum number of checkpoints to be processed. Must be positive value.",
          "_receiver": "The receiver of tokens or msg.sender",
          "_token": "RBTC dummy to fit into existing data structure or SOV. Former address of the pool token."
        }
      },
      "withdrawFees(address[])": {
        "params": {
          "_tokens": "array address of the token"
        }
      },
      "withdrawFeesAMM(address[])": {
        "params": {
          "_converters": "array addresses of the converters"
        }
      },
      "withdrawRBTC(uint32,address)": {
        "details": "withdraw all of the RBTC balance based on particular checkpoints     * RBTC balance consists of: - rbtc balance - wrbtc balance which will be unwrapped to rbtc - iwrbtc balance which will be unwrapped to rbtc",
        "params": {
          "_maxCheckpoints": "Maximum number of checkpoints to be processed to workaround block gas limit",
          "_receiver": "An optional tokens receiver (msg.sender used if 0)"
        }
      },
      "withdrawRBTCStartingFromCheckpoint(uint256,uint32,address)": {
        "details": "Withdraw all of the RBTC balance based starting from a specific checkpoint The function was designed to skip checkpoints with no fees for users     * RBTC balance consists of: - rbtc balance - wrbtc balance which will be unwrapped to rbtc - iwrbtc balance which will be unwrapped to rbtcWARNING! This function skips all the checkpoints before '_fromCheckpoint' irreversibly, use with care",
        "params": {
          "_fromCheckpoint": "Skips all the checkpoints before '_fromCheckpoint'       should be calculated offchain with getNextPositiveUserCheckpoint function",
          "_maxCheckpoints": "Maximum number of checkpoints to be processed to workaround block gas limit",
          "_receiver": "An optional tokens receiver (msg.sender used if 0)"
        }
      },
      "withdrawStartingFromCheckpoint(address,uint256,uint32,address)": {
        "details": "WARNING! This function skips all the checkpoints before '_fromCheckpoint' irreversibly, use with care",
        "params": {
          "_fromCheckpoint": "Skips all the checkpoints before '_fromCheckpoint'       should be calculated offchain with getNextPositiveUserCheckpoint function",
          "_maxCheckpoints": "Maximum number of checkpoints to be processed.",
          "_receiver": "The receiver of tokens or msg.sender",
          "_token": "RBTC dummy to fit into existing data structure or SOV. Former address of the pool token."
        }
      }
    },
    "title": "The FeeSharingCollector contract."
  },
  "userdoc": {
    "methods": {
      "getAccumulatedFees(address,address)": {
        "notice": "Get the accumulated loan pool fee of the message sender."
      },
      "getWhitelistedConverterList()": {
        "notice": "Getter to query all of the whitelisted converter."
      },
      "transferRBTC()": {
        "notice": "Transfer RBTC / native tokens to this contract."
      },
      "transferTokens(address,uint96)": {
        "notice": "Transfer tokens to this contract."
      },
      "withdraw(address,uint32,address)": {
        "notice": "Withdraw accumulated fee to the message sender.     * The Sovryn protocol collects fees on every trade/swap and loan. These fees will be distributed to SOV stakers based on their voting power as a percentage of total voting power. Therefore, staking more SOV and/or staking for longer will increase your share of the fees generated, meaning you will earn more from staking.     * This function will directly burnToBTC and use the msg.sender (user) as the receiver"
      },
      "withdrawFees(address[])": {
        "notice": "Withdraw fees for the given token: lendingFee + tradingFee + borrowingFee the fees (except SOV) will be converted in wRBTC form, and then will be transferred to wRBTC loan pool. For SOV, it will be directly deposited into the feeSharingCollector from the protocol."
      },
      "withdrawFeesAMM(address[])": {
        "notice": "Withdraw amm fees for the given converter addresses: protocolFee from the conversion the fees will be converted in wRBTC form, and then will be transferred to wRBTC loan pool"
      },
      "withdrawStartingFromCheckpoint(address,uint256,uint32,address)": {
        "notice": "Withdraw accumulated fee to the message sender/receiver.     * The Sovryn protocol collects fees on every trade/swap and loan. These fees will be distributed to SOV stakers based on their voting power as a percentage of total voting power.     * This function will directly burnToBTC and use the msg.sender (user) as the receiver"
      }
    },
    "notice": "This contract withdraws fees to be paid to SOV Stakers from the protocol. Stakers call withdraw() to get their share of the fees.Staking is not only granting voting rights, but also access to fee sharing according to the own voting power in relation to the total. Whenever somebody decides to collect the fees from the protocol, they get transferred to a proxy contract which invests the funds in the lending pool and keeps the pool tokens. * The fee sharing proxy will be set as feesController of the protocol contract. This allows the fee sharing proxy to withdraw the fees. The fee sharing proxy holds the pool tokens and keeps track of which user owns how many tokens. In order to know how many tokens a user owns, the fee sharing proxy needs to know the users weighted stake in relation to the total weighted stake (aka total voting power). * Because both values are subject to change, they may be different on each fee withdrawal. To be able to calculate a users share of tokens when he wants to withdraw, we need checkpoints. * This contract is intended to be set as the protocol fee collector. Anybody can invoke the withdrawFees function which uses protocol.withdrawFees to obtain available fees from operations on a certain token. These fees are deposited in the corresponding loanPool. Also, the staking contract sends slashed tokens to this contract. When a user calls the withdraw function, the contract transfers the fee sharing rewards in proportion to the users weighted stake since the last withdrawal. * The protocol initially collects fees in all tokens. Then the FeeSharingCollector wihtdraws fees from the protocol. When the fees are withdrawn all the tokens except SOV will be converted to wRBTC and then transferred to wRBTC loan pool. For SOV, it will be directly deposited into the feeSharingCollector from the protocol."
  },
  "storageLayout": {
    "storage": [
      {
        "astId": 53281,
        "contract": "contracts/governance/FeeSharingCollector/FeeSharingCollector.sol:FeeSharingCollector",
        "label": "_owner",
        "offset": 0,
        "slot": "0",
        "type": "t_address"
      },
      {
        "astId": 14414,
        "contract": "contracts/governance/FeeSharingCollector/FeeSharingCollector.sol:FeeSharingCollector",
        "label": "protocol",
        "offset": 0,
        "slot": "1",
        "type": "t_contract(IProtocol)14508"
      },
      {
        "astId": 14416,
        "contract": "contracts/governance/FeeSharingCollector/FeeSharingCollector.sol:FeeSharingCollector",
        "label": "staking",
        "offset": 0,
        "slot": "2",
        "type": "t_contract(IStaking)16847"
      },
      {
        "astId": 14422,
        "contract": "contracts/governance/FeeSharingCollector/FeeSharingCollector.sol:FeeSharingCollector",
        "label": "tokenCheckpoints",
        "offset": 0,
        "slot": "3",
        "type": "t_mapping(t_address,t_mapping(t_uint256,t_struct(Checkpoint)14449_storage))"
      },
      {
        "astId": 14426,
        "contract": "contracts/governance/FeeSharingCollector/FeeSharingCollector.sol:FeeSharingCollector",
        "label": "totalTokenCheckpoints",
        "offset": 0,
        "slot": "4",
        "type": "t_mapping(t_address,t_uint256)"
      },
      {
        "astId": 14432,
        "contract": "contracts/governance/FeeSharingCollector/FeeSharingCollector.sol:FeeSharingCollector",
        "label": "processedCheckpoints",
        "offset": 0,
        "slot": "5",
        "type": "t_mapping(t_address,t_mapping(t_address,t_uint256))"
      },
      {
        "astId": 14436,
        "contract": "contracts/governance/FeeSharingCollector/FeeSharingCollector.sol:FeeSharingCollector",
        "label": "lastFeeWithdrawalTime",
        "offset": 0,
        "slot": "6",
        "type": "t_mapping(t_address,t_uint256)"
      },
      {
        "astId": 14440,
        "contract": "contracts/governance/FeeSharingCollector/FeeSharingCollector.sol:FeeSharingCollector",
        "label": "unprocessedAmount",
        "offset": 0,
        "slot": "7",
        "type": "t_mapping(t_address,t_uint96)"
      },
      {
        "astId": 14458,
        "contract": "contracts/governance/FeeSharingCollector/FeeSharingCollector.sol:FeeSharingCollector",
        "label": "reentrancyLock",
        "offset": 0,
        "slot": "8",
        "type": "t_uint256"
      },
      {
        "astId": 14460,
        "contract": "contracts/governance/FeeSharingCollector/FeeSharingCollector.sol:FeeSharingCollector",
        "label": "whitelistedConverterList",
        "offset": 0,
        "slot": "9",
        "type": "t_struct(AddressSet)34881_storage"
      }
    ],
    "types": {
      "t_address": {
        "encoding": "inplace",
        "label": "address",
        "numberOfBytes": "20"
      },
      "t_array(t_address)dyn_storage": {
        "base": "t_address",
        "encoding": "dynamic_array",
        "label": "address[]",
        "numberOfBytes": "32"
      },
      "t_contract(IProtocol)14508": {
        "encoding": "inplace",
        "label": "contract IProtocol",
        "numberOfBytes": "20"
      },
      "t_contract(IStaking)16847": {
        "encoding": "inplace",
        "label": "contract IStaking",
        "numberOfBytes": "20"
      },
      "t_mapping(t_address,t_mapping(t_address,t_uint256))": {
        "encoding": "mapping",
        "key": "t_address",
        "label": "mapping(address => mapping(address => uint256))",
        "numberOfBytes": "32",
        "value": "t_mapping(t_address,t_uint256)"
      },
      "t_mapping(t_address,t_mapping(t_uint256,t_struct(Checkpoint)14449_storage))": {
        "encoding": "mapping",
        "key": "t_address",
        "label": "mapping(address => mapping(uint256 => struct FeeSharingCollectorStorage.Checkpoint))",
        "numberOfBytes": "32",
        "value": "t_mapping(t_uint256,t_struct(Checkpoint)14449_storage)"
      },
      "t_mapping(t_address,t_uint256)": {
        "encoding": "mapping",
        "key": "t_address",
        "label": "mapping(address => uint256)",
        "numberOfBytes": "32",
        "value": "t_uint256"
      },
      "t_mapping(t_address,t_uint96)": {
        "encoding": "mapping",
        "key": "t_address",
        "label": "mapping(address => uint96)",
        "numberOfBytes": "32",
        "value": "t_uint96"
      },
      "t_mapping(t_uint256,t_struct(Checkpoint)14449_storage)": {
        "encoding": "mapping",
        "key": "t_uint256",
        "label": "mapping(uint256 => struct FeeSharingCollectorStorage.Checkpoint)",
        "numberOfBytes": "32",
        "value": "t_struct(Checkpoint)14449_storage"
      },
      "t_struct(AddressSet)34881_storage": {
        "encoding": "inplace",
        "label": "struct EnumerableAddressSet.AddressSet",
        "members": [
          {
            "astId": 34877,
            "contract": "contracts/governance/FeeSharingCollector/FeeSharingCollector.sol:FeeSharingCollector",
            "label": "index",
            "offset": 0,
            "slot": "0",
            "type": "t_mapping(t_address,t_uint256)"
          },
          {
            "astId": 34880,
            "contract": "contracts/governance/FeeSharingCollector/FeeSharingCollector.sol:FeeSharingCollector",
            "label": "values",
            "offset": 0,
            "slot": "1",
            "type": "t_array(t_address)dyn_storage"
          }
        ],
        "numberOfBytes": "64"
      },
      "t_struct(Checkpoint)14449_storage": {
        "encoding": "inplace",
        "label": "struct FeeSharingCollectorStorage.Checkpoint",
        "members": [
          {
            "astId": 14442,
            "contract": "contracts/governance/FeeSharingCollector/FeeSharingCollector.sol:FeeSharingCollector",
            "label": "blockNumber",
            "offset": 0,
            "slot": "0",
            "type": "t_uint32"
          },
          {
            "astId": 14444,
            "contract": "contracts/governance/FeeSharingCollector/FeeSharingCollector.sol:FeeSharingCollector",
            "label": "timestamp",
            "offset": 4,
            "slot": "0",
            "type": "t_uint32"
          },
          {
            "astId": 14446,
            "contract": "contracts/governance/FeeSharingCollector/FeeSharingCollector.sol:FeeSharingCollector",
            "label": "totalWeightedStake",
            "offset": 8,
            "slot": "0",
            "type": "t_uint96"
          },
          {
            "astId": 14448,
            "contract": "contracts/governance/FeeSharingCollector/FeeSharingCollector.sol:FeeSharingCollector",
            "label": "numTokens",
            "offset": 20,
            "slot": "0",
            "type": "t_uint96"
          }
        ],
        "numberOfBytes": "32"
      },
      "t_uint256": {
        "encoding": "inplace",
        "label": "uint256",
        "numberOfBytes": "32"
      },
      "t_uint32": {
        "encoding": "inplace",
        "label": "uint32",
        "numberOfBytes": "4"
      },
      "t_uint96": {
        "encoding": "inplace",
        "label": "uint96",
        "numberOfBytes": "12"
      }
    }
  }
}