{
  "address": "0x64656718374e4fF6AC719470d6789A49f30AD573",
  "abi": [
    {
      "anonymous": false,
      "inputs": [
        {
          "indexed": true,
          "internalType": "address",
          "name": "sender",
          "type": "address"
        },
        {
          "indexed": true,
          "internalType": "address",
          "name": "token",
          "type": "address"
        },
        {
          "indexed": false,
          "internalType": "uint256",
          "name": "amount",
          "type": "uint256"
        }
      ],
      "name": "CheckpointAdded",
      "type": "event"
    },
    {
      "anonymous": false,
      "inputs": [
        {
          "indexed": true,
          "internalType": "address",
          "name": "sender",
          "type": "address"
        },
        {
          "indexed": true,
          "internalType": "address",
          "name": "converter",
          "type": "address"
        },
        {
          "indexed": false,
          "internalType": "uint256",
          "name": "amount",
          "type": "uint256"
        }
      ],
      "name": "FeeAMMWithdrawn",
      "type": "event"
    },
    {
      "anonymous": false,
      "inputs": [
        {
          "indexed": true,
          "internalType": "address",
          "name": "sender",
          "type": "address"
        },
        {
          "indexed": false,
          "internalType": "uint256",
          "name": "amount",
          "type": "uint256"
        }
      ],
      "name": "FeeWithdrawnInRBTC",
      "type": "event"
    },
    {
      "anonymous": false,
      "inputs": [
        {
          "indexed": true,
          "internalType": "address",
          "name": "previousOwner",
          "type": "address"
        },
        {
          "indexed": true,
          "internalType": "address",
          "name": "newOwner",
          "type": "address"
        }
      ],
      "name": "OwnershipTransferred",
      "type": "event"
    },
    {
      "anonymous": false,
      "inputs": [
        {
          "indexed": true,
          "internalType": "address",
          "name": "sender",
          "type": "address"
        },
        {
          "indexed": true,
          "internalType": "address",
          "name": "receiver",
          "type": "address"
        },
        {
          "indexed": false,
          "internalType": "uint256",
          "name": "amount",
          "type": "uint256"
        }
      ],
      "name": "RBTCWithdrawn",
      "type": "event"
    },
    {
      "anonymous": false,
      "inputs": [
        {
          "indexed": true,
          "internalType": "address",
          "name": "sender",
          "type": "address"
        },
        {
          "indexed": true,
          "internalType": "address",
          "name": "token",
          "type": "address"
        },
        {
          "indexed": false,
          "internalType": "uint256",
          "name": "amount",
          "type": "uint256"
        }
      ],
      "name": "TokensTransferred",
      "type": "event"
    },
    {
      "anonymous": false,
      "inputs": [
        {
          "indexed": true,
          "internalType": "address",
          "name": "sender",
          "type": "address"
        },
        {
          "indexed": false,
          "internalType": "address",
          "name": "converter",
          "type": "address"
        }
      ],
      "name": "UnwhitelistedConverter",
      "type": "event"
    },
    {
      "anonymous": false,
      "inputs": [
        {
          "indexed": true,
          "internalType": "address",
          "name": "sender",
          "type": "address"
        },
        {
          "indexed": true,
          "internalType": "address",
          "name": "token",
          "type": "address"
        },
        {
          "indexed": false,
          "internalType": "uint256",
          "name": "prevProcessedCheckpoints",
          "type": "uint256"
        },
        {
          "indexed": false,
          "internalType": "uint256",
          "name": "newProcessedCheckpoints",
          "type": "uint256"
        }
      ],
      "name": "UserFeeProcessedNoWithdraw",
      "type": "event"
    },
    {
      "anonymous": false,
      "inputs": [
        {
          "indexed": true,
          "internalType": "address",
          "name": "sender",
          "type": "address"
        },
        {
          "indexed": true,
          "internalType": "address",
          "name": "receiver",
          "type": "address"
        },
        {
          "indexed": true,
          "internalType": "address",
          "name": "token",
          "type": "address"
        },
        {
          "indexed": false,
          "internalType": "uint256",
          "name": "amount",
          "type": "uint256"
        }
      ],
      "name": "UserFeeWithdrawn",
      "type": "event"
    },
    {
      "anonymous": false,
      "inputs": [
        {
          "indexed": true,
          "internalType": "address",
          "name": "sender",
          "type": "address"
        },
        {
          "indexed": false,
          "internalType": "address",
          "name": "converter",
          "type": "address"
        }
      ],
      "name": "WhitelistedConverter",
      "type": "event"
    },
    {
      "payable": true,
      "stateMutability": "payable",
      "type": "fallback"
    },
    {
      "constant": true,
      "inputs": [],
      "name": "RBTC_DUMMY_ADDRESS_FOR_CHECKPOINT",
      "outputs": [
        {
          "internalType": "address",
          "name": "",
          "type": "address"
        }
      ],
      "payable": false,
      "stateMutability": "view",
      "type": "function"
    },
    {
      "constant": false,
      "inputs": [
        {
          "internalType": "address",
          "name": "converterAddress",
          "type": "address"
        }
      ],
      "name": "addWhitelistedConverterAddress",
      "outputs": [],
      "payable": false,
      "stateMutability": "nonpayable",
      "type": "function"
    },
    {
      "constant": true,
      "inputs": [
        {
          "internalType": "address",
          "name": "_user",
          "type": "address"
        },
        {
          "internalType": "address",
          "name": "_token",
          "type": "address"
        }
      ],
      "name": "getAccumulatedFees",
      "outputs": [
        {
          "internalType": "uint256",
          "name": "",
          "type": "uint256"
        }
      ],
      "payable": false,
      "stateMutability": "view",
      "type": "function"
    },
    {
      "constant": true,
      "inputs": [
        {
          "internalType": "address",
          "name": "_user",
          "type": "address"
        }
      ],
      "name": "getAccumulatedRBTCFeeBalances",
      "outputs": [
        {
          "internalType": "uint256",
          "name": "",
          "type": "uint256"
        }
      ],
      "payable": false,
      "stateMutability": "view",
      "type": "function"
    },
    {
      "constant": true,
      "inputs": [
        {
          "internalType": "address",
          "name": "_user",
          "type": "address"
        },
        {
          "internalType": "address",
          "name": "_token",
          "type": "address"
        }
      ],
      "name": "getNextPositiveUserCheckpoint",
      "outputs": [
        {
          "internalType": "uint256",
          "name": "checkpointNum",
          "type": "uint256"
        },
        {
          "internalType": "bool",
          "name": "hasSkippedCheckpoints",
          "type": "bool"
        },
        {
          "internalType": "bool",
          "name": "hasFees",
          "type": "bool"
        }
      ],
      "payable": false,
      "stateMutability": "view",
      "type": "function"
    },
    {
      "constant": true,
      "inputs": [],
      "name": "getWhitelistedConverterList",
      "outputs": [
        {
          "internalType": "address[]",
          "name": "converterList",
          "type": "address[]"
        }
      ],
      "payable": false,
      "stateMutability": "view",
      "type": "function"
    },
    {
      "constant": true,
      "inputs": [],
      "name": "isOwner",
      "outputs": [
        {
          "internalType": "bool",
          "name": "",
          "type": "bool"
        }
      ],
      "payable": false,
      "stateMutability": "view",
      "type": "function"
    },
    {
      "constant": true,
      "inputs": [
        {
          "internalType": "address",
          "name": "",
          "type": "address"
        }
      ],
      "name": "lastFeeWithdrawalTime",
      "outputs": [
        {
          "internalType": "uint256",
          "name": "",
          "type": "uint256"
        }
      ],
      "payable": false,
      "stateMutability": "view",
      "type": "function"
    },
    {
      "constant": true,
      "inputs": [
        {
          "internalType": "address",
          "name": "_token",
          "type": "address"
        }
      ],
      "name": "numTokenCheckpoints",
      "outputs": [
        {
          "internalType": "uint256",
          "name": "",
          "type": "uint256"
        }
      ],
      "payable": false,
      "stateMutability": "view",
      "type": "function"
    },
    {
      "constant": true,
      "inputs": [],
      "name": "owner",
      "outputs": [
        {
          "internalType": "address",
          "name": "",
          "type": "address"
        }
      ],
      "payable": false,
      "stateMutability": "view",
      "type": "function"
    },
    {
      "constant": true,
      "inputs": [
        {
          "internalType": "address",
          "name": "",
          "type": "address"
        },
        {
          "internalType": "address",
          "name": "",
          "type": "address"
        }
      ],
      "name": "processedCheckpoints",
      "outputs": [
        {
          "internalType": "uint256",
          "name": "",
          "type": "uint256"
        }
      ],
      "payable": false,
      "stateMutability": "view",
      "type": "function"
    },
    {
      "constant": true,
      "inputs": [],
      "name": "protocol",
      "outputs": [
        {
          "internalType": "contract IProtocol",
          "name": "",
          "type": "address"
        }
      ],
      "payable": false,
      "stateMutability": "view",
      "type": "function"
    },
    {
      "constant": false,
      "inputs": [
        {
          "internalType": "address",
          "name": "converterAddress",
          "type": "address"
        }
      ],
      "name": "removeWhitelistedConverterAddress",
      "outputs": [],
      "payable": false,
      "stateMutability": "nonpayable",
      "type": "function"
    },
    {
      "constant": true,
      "inputs": [],
      "name": "staking",
      "outputs": [
        {
          "internalType": "contract IStaking",
          "name": "",
          "type": "address"
        }
      ],
      "payable": false,
      "stateMutability": "view",
      "type": "function"
    },
    {
      "constant": true,
      "inputs": [
        {
          "internalType": "address",
          "name": "",
          "type": "address"
        },
        {
          "internalType": "uint256",
          "name": "",
          "type": "uint256"
        }
      ],
      "name": "tokenCheckpoints",
      "outputs": [
        {
          "internalType": "uint32",
          "name": "blockNumber",
          "type": "uint32"
        },
        {
          "internalType": "uint32",
          "name": "timestamp",
          "type": "uint32"
        },
        {
          "internalType": "uint96",
          "name": "totalWeightedStake",
          "type": "uint96"
        },
        {
          "internalType": "uint96",
          "name": "numTokens",
          "type": "uint96"
        }
      ],
      "payable": false,
      "stateMutability": "view",
      "type": "function"
    },
    {
      "constant": true,
      "inputs": [
        {
          "internalType": "address",
          "name": "",
          "type": "address"
        }
      ],
      "name": "totalTokenCheckpoints",
      "outputs": [
        {
          "internalType": "uint256",
          "name": "",
          "type": "uint256"
        }
      ],
      "payable": false,
      "stateMutability": "view",
      "type": "function"
    },
    {
      "constant": false,
      "inputs": [
        {
          "internalType": "address",
          "name": "newOwner",
          "type": "address"
        }
      ],
      "name": "transferOwnership",
      "outputs": [],
      "payable": false,
      "stateMutability": "nonpayable",
      "type": "function"
    },
    {
      "constant": false,
      "inputs": [],
      "name": "transferRBTC",
      "outputs": [],
      "payable": true,
      "stateMutability": "payable",
      "type": "function"
    },
    {
      "constant": false,
      "inputs": [
        {
          "internalType": "address",
          "name": "_token",
          "type": "address"
        },
        {
          "internalType": "uint96",
          "name": "_amount",
          "type": "uint96"
        }
      ],
      "name": "transferTokens",
      "outputs": [],
      "payable": false,
      "stateMutability": "nonpayable",
      "type": "function"
    },
    {
      "constant": true,
      "inputs": [
        {
          "internalType": "address",
          "name": "",
          "type": "address"
        }
      ],
      "name": "unprocessedAmount",
      "outputs": [
        {
          "internalType": "uint96",
          "name": "",
          "type": "uint96"
        }
      ],
      "payable": false,
      "stateMutability": "view",
      "type": "function"
    },
    {
      "constant": false,
      "inputs": [
        {
          "internalType": "address",
          "name": "_token",
          "type": "address"
        },
        {
          "internalType": "uint32",
          "name": "_maxCheckpoints",
          "type": "uint32"
        },
        {
          "internalType": "address",
          "name": "_receiver",
          "type": "address"
        }
      ],
      "name": "withdraw",
      "outputs": [],
      "payable": false,
      "stateMutability": "nonpayable",
      "type": "function"
    },
    {
      "constant": false,
      "inputs": [
        {
          "internalType": "address[]",
          "name": "_tokens",
          "type": "address[]"
        }
      ],
      "name": "withdrawFees",
      "outputs": [],
      "payable": false,
      "stateMutability": "nonpayable",
      "type": "function"
    },
    {
      "constant": false,
      "inputs": [
        {
          "internalType": "address[]",
          "name": "_converters",
          "type": "address[]"
        }
      ],
      "name": "withdrawFeesAMM",
      "outputs": [],
      "payable": false,
      "stateMutability": "nonpayable",
      "type": "function"
    },
    {
      "constant": false,
      "inputs": [
        {
          "internalType": "uint32",
          "name": "_maxCheckpoints",
          "type": "uint32"
        },
        {
          "internalType": "address",
          "name": "_receiver",
          "type": "address"
        }
      ],
      "name": "withdrawRBTC",
      "outputs": [],
      "payable": false,
      "stateMutability": "nonpayable",
      "type": "function"
    },
    {
      "constant": false,
      "inputs": [
        {
          "internalType": "uint256",
          "name": "_fromCheckpoint",
          "type": "uint256"
        },
        {
          "internalType": "uint32",
          "name": "_maxCheckpoints",
          "type": "uint32"
        },
        {
          "internalType": "address",
          "name": "_receiver",
          "type": "address"
        }
      ],
      "name": "withdrawRBTCStartingFromCheckpoint",
      "outputs": [],
      "payable": false,
      "stateMutability": "nonpayable",
      "type": "function"
    },
    {
      "constant": false,
      "inputs": [
        {
          "internalType": "address",
          "name": "_token",
          "type": "address"
        },
        {
          "internalType": "uint256",
          "name": "_fromCheckpoint",
          "type": "uint256"
        },
        {
          "internalType": "uint32",
          "name": "_maxCheckpoints",
          "type": "uint32"
        },
        {
          "internalType": "address",
          "name": "_receiver",
          "type": "address"
        }
      ],
      "name": "withdrawStartingFromCheckpoint",
      "outputs": [],
      "payable": false,
      "stateMutability": "nonpayable",
      "type": "function"
    },
    {
      "constant": false,
      "inputs": [
        {
          "internalType": "address",
          "name": "receiver",
          "type": "address"
        },
        {
          "internalType": "uint256",
          "name": "wrbtcAmount",
          "type": "uint256"
        }
      ],
      "name": "withdrawWRBTC",
      "outputs": [],
      "payable": false,
      "stateMutability": "nonpayable",
      "type": "function"
    }
  ],
  "transactionHash": "0x54cda4eebdf150aad117d1938700d18ce73e4906e1a0a05e29d17db283ef6d1f",
  "args": [],
  "numDeployments": 1,
  "solcInputHash": "793d2f668bb9639bb96e66a7476bf440",
  "bytecode": "0x60806040526001600855600061001c6001600160e01b0361006b16565b600080546001600160a01b0319166001600160a01b0383169081178255604051929350917f8be0079c531659141344cd1fd0a4f28419497f9722a3daafe3b4186f6b6457e0908290a35061006f565b3390565b6144d3806200007f6000396000f3fe60806040526004361061019c5760003560e01c80638ce74426116100ec578063a965b3a91161008a578063c304044711610064578063c30404471461079e578063f2962cda146107d1578063f2fde38b14610804578063f3bdba8f146108375761019c565b8063a965b3a9146106ae578063abe979e1146106f7578063adcf21a7146107395761019c565b8063988ba593116100c6578063988ba59314610574578063a4955f2a146105b3578063a697b8c7146105e6578063a9336519146106615761019c565b80638ce74426146105215780638da5cb5b146105365780638f32d59b1461054b5761019c565b806370530017116101595780637913b451116101335780637913b451146103d45780637c8678ec1461040f5780637d0ce2b2146104bd5780638b6fdcba146104d25761019c565b806370530017146102eb5780637061acf31461035c5780637104c4ff1461038f5761019c565b8063200202081461019e57806322a6fd95146101e35780633d67df6f146101eb5780633e83da07146102265780634cf088d9146102815780635c4d9b12146102b2575b005b3480156101aa57600080fd5b506101d1600480360360208110156101c157600080fd5b50356001600160a01b031661086a565b60408051918252519081900360200190f35b61019c610885565b3480156101f757600080fd5b506101d16004803603604081101561020e57600080fd5b506001600160a01b0381358116916020013516610932565b34801561023257600080fd5b506102616004803603604081101561024957600080fd5b506001600160a01b038135811691602001351661094c565b604080519384529115156020840152151582820152519081900360600190f35b34801561028d57600080fd5b50610296610ba1565b604080516001600160a01b039092168252519081900360200190f35b3480156102be57600080fd5b5061019c600480360360408110156102d557600080fd5b506001600160a01b038135169060200135610bb0565b3480156102f757600080fd5b506103246004803603604081101561030e57600080fd5b506001600160a01b038135169060200135610d4f565b6040805163ffffffff95861681529390941660208401526001600160601b039182168385015216606082015290519081900360800190f35b34801561036857600080fd5b5061019c6004803603602081101561037f57600080fd5b50356001600160a01b0316610d9a565b34801561039b57600080fd5b5061019c600480360360608110156103b257600080fd5b50803590602081013563ffffffff1690604001356001600160a01b0316610e90565b3480156103e057600080fd5b506101d1600480360360408110156103f757600080fd5b506001600160a01b0381358116916020013516611329565b34801561041b57600080fd5b5061019c6004803603602081101561043257600080fd5b810190602081018135600160201b81111561044c57600080fd5b82018360208201111561045e57600080fd5b803590602001918460208302840111600160201b8311171561047f57600080fd5b919080806020026020016040519081016040528093929190818152602001838360200280828437600092019190915250929550611346945050505050565b3480156104c957600080fd5b506102966115ba565b3480156104de57600080fd5b50610505600480360360208110156104f557600080fd5b50356001600160a01b03166115d6565b604080516001600160601b039092168252519081900360200190f35b34801561052d57600080fd5b506102966115f1565b34801561054257600080fd5b50610296611600565b34801561055757600080fd5b5061056061160f565b604080519115158252519081900360200190f35b34801561058057600080fd5b5061019c6004803603604081101561059757600080fd5b50803563ffffffff1690602001356001600160a01b0316611633565b3480156105bf57600080fd5b5061019c600480360360208110156105d657600080fd5b50356001600160a01b0316611691565b3480156105f257600080fd5b5061019c6004803603602081101561060957600080fd5b810190602081018135600160201b81111561062357600080fd5b82018360208201111561063557600080fd5b803590602001918460208302840111600160201b8311171561065657600080fd5b50909250905061172d565b34801561066d57600080fd5b5061019c6004803603608081101561068457600080fd5b506001600160a01b03813581169160208101359163ffffffff6040830135169160600135166119b5565b3480156106ba57600080fd5b5061019c600480360360608110156106d157600080fd5b506001600160a01b03813581169163ffffffff6020820135169160409091013516611e1f565b34801561070357600080fd5b5061019c6004803603604081101561071a57600080fd5b5080356001600160a01b031690602001356001600160601b0316611e7f565b34801561074557600080fd5b5061074e612139565b60408051602080825283518183015283519192839290830191858101910280838360005b8381101561078a578181015183820152602001610772565b505050509050019250505060405180910390f35b3480156107aa57600080fd5b506101d1600480360360208110156107c157600080fd5b50356001600160a01b031661214a565b3480156107dd57600080fd5b506101d1600480360360208110156107f457600080fd5b50356001600160a01b0316612191565b34801561081057600080fd5b5061019c6004803603602081101561082757600080fd5b50356001600160a01b03166121a3565b34801561084357600080fd5b506101d16004803603602081101561085a57600080fd5b50356001600160a01b03166121f7565b6001600160a01b031660009081526004602052604090205490565b346001600160601b0381166108cb5760405162461bcd60e51b815260040180806020018281038252603081526020018061408b6030913960400191505060405180910390fd5b6108ee60405180806142a860219139604051908190036021019020905082612209565b604080516001600160601b0383168152905160009133917f1b89874203ff7f0bba87c969ada3f32fda22ed38a6706d35199d21280c7811b19181900360200190a350565b6000806109418484600061234d565b509150505b92915050565b6002546040805163ca6860df60e01b81526001600160a01b03858116600483015291516000938493849391169163ca6860df91602480820192602092909190829003018186803b15801561099f57600080fd5b505afa1580156109b3573d6000803e3d6000fd5b505050506040513d60208110156109c957600080fd5b5051156109de57506000915081905080610b9a565b6001600160a01b0380861660009081526005602090815260408083209388168352928152828220546004909152919020548082101580610a1c575080155b15610a3157935060009250829150610b9a9050565b6000825b82811015610b8c576000600360008a6001600160a01b03166001600160a01b03168152602001908152602001600020600083815260200190815260200160002090506000600260009054906101000a90046001600160a01b03166001600160a01b03166337e6b1c18c60018560000160009054906101000a900463ffffffff16038560000160049054906101000a900463ffffffff166040518463ffffffff1660e01b815260040180846001600160a01b03166001600160a01b031681526020018363ffffffff1681526020018263ffffffff168152602001935050505060206040518083038186803b158015610b2b57600080fd5b505afa158015610b3f573d6000803e3d6000fd5b505050506040513d6020811015610b5557600080fd5b505190506001600160601b03811615610b8257826001018684116001985098509850505050505050610b9a565b5050600101610a35565b509094505083119150600090505b9250925092565b6002546001600160a01b031681565b610bb861160f565b610bf8576040805162461bcd60e51b815260206004820152600c60248201526b1d5b985d5d1a1bdc9a5e995960a21b604482015290519081900360640190fd5b6001546040805163afe8400960e01b815290516000926001600160a01b03169163afe84009916004808301926020929190829003018186803b158015610c3d57600080fd5b505afa158015610c51573d6000803e3d6000fd5b505050506040513d6020811015610c6757600080fd5b5051604080516370a0823160e01b815230600482015290519192506000916001600160a01b038416916370a08231916024808301926020929190829003018186803b158015610cb557600080fd5b505afa158015610cc9573d6000803e3d6000fd5b505050506040513d6020811015610cdf57600080fd5b5051905080831115610d2f576040805162461bcd60e51b8152602060048201526014602482015273496e73756666696369656e742062616c616e636560601b604482015290519081900360640190fd5b610d496001600160a01b038316858563ffffffff61236916565b50505050565b600360209081526000928352604080842090915290825290205463ffffffff80821691600160201b8104909116906001600160601b03600160401b8204811691600160a01b90041684565b610da261160f565b610de2576040805162461bcd60e51b815260206004820152600c60248201526b1d5b985d5d1a1bdc9a5e995960a21b604482015290519081900360640190fd5b610deb816123bb565b610e3c576040805162461bcd60e51b815260206004820152601a60248201527f4e6f6e20636f6e7472616374206164647265737320676976656e000000000000604482015290519081900360640190fd5b610e4d60098263ffffffff6123f716565b50604080516001600160a01b0383168152905133917fe7902ff5b883e069d72db554511b4f7122428c996decf30682b312a66879668a919081900360200190a250565b823360405180806142a860219139604051908190036021019020905060018311610eeb5760405162461bcd60e51b81526004018080602001828103825260218152602001806142136021913960400191505060405180910390fd5b6001600160a01b038083166000908152600560209081526040808320938516835292905220546000198401908411610f545760405162461bcd60e51b81526004018080602001828103825260388152602001806143986038913960400191505060405180910390fd5b6001600160a01b038216600090815260046020526040902054841115610fab5760405162461bcd60e51b8152600401808060200182810382526032815260200180613f156032913960400191505060405180910390fd5b610fb3613e25565b506001600160a01b0380831660009081526003602090815260408083206000198601845282528083208151608081018352905463ffffffff808216808452600160201b83049091168386018190526001600160601b03600160401b8404811685870152600160a01b909304909216606084015260025484516337e6b1c160e01b81528b89166004820152602481019290925260448201929092529251919516926337e6b1c19260648082019391829003018186803b15801561107457600080fd5b505afa158015611088573d6000803e3d6000fd5b505050506040513d602081101561109e57600080fd5b505190506001600160601b038116156110e85760405162461bcd60e51b81526004018080602001828103825260398152602001806140bb6039913960400191505060405180910390fd5b6110f0613e25565b506001600160a01b0380851660009081526003602090815260408083208784528252918290208251608081018452905463ffffffff808216808452600160201b83049091168385018190526001600160601b03600160401b8404811685880152600160a01b909304909216606084015260025485516337e6b1c160e01b81528c88166004820152602481019290925260448201929092529351919416926337e6b1c1926064808301939192829003018186803b1580156111af57600080fd5b505afa1580156111c3573d6000803e3d6000fd5b505050506040513d60208110156111d957600080fd5b505191506001600160601b0382166112225760405162461bcd60e51b81526004018080602001828103825260358152602001806140566035913960400191505060405180910390fd5b600160085414611268576040805162461bcd60e51b815260206004820152600c60248201526b1b9bdb9499595b9d1c985b9d60a21b604482015290519081900360640190fd5b60026008553360009081526005602052604080822090519091908060216142a8823960408051918290036021019091206001600160a01b0316835260208301939093525001600020548a111561130e576112c98a600163ffffffff61245716565b3360009081526005602052604080822090519091908060216142a8823960408051918290036021019091206001600160a01b0316835260208301939093525001600020555b61131889896124a0565b505060016008555050505050505050565b600560209081526000928352604080842090915290825290205481565b6001546040805163afe8400960e01b815290516000926001600160a01b03169163afe84009916004808301926020929190829003018186803b15801561138b57600080fd5b505afa15801561139f573d6000803e3d6000fd5b505050506040513d60208110156113b557600080fd5b505190506113c282612825565b6000805b83518110156115825760008482815181106113dd57fe5b60200260200101516001600160a01b031663164e68de306040518263ffffffff1660e01b815260040180826001600160a01b03166001600160a01b03168152602001915050602060405180830381600087803b15801561143c57600080fd5b505af1158015611450573d6000803e3d6000fd5b505050506040513d602081101561146657600080fd5b50519050801561157957836001600160a01b0316632e1a7d4d826040518263ffffffff1660e01b815260040180828152602001915050600060405180830381600087803b1580156114b657600080fd5b505af11580156114ca573d6000803e3d6000fd5b5050505060006114f28260405180608001604052806048815260200161400e604891396128a5565b905061151784826040518060800160405280604e8152602001613fc0604e913961293f565b935085838151811061152557fe5b60200260200101516001600160a01b0316336001600160a01b03167fd915b7f9d8d5ce11af1f5961b830d7d7c01a750927706eb0bcbf80a8827d76cc846040518082815260200191505060405180910390a3505b506001016113c6565b506001600160601b038116156115b5576115b560405180806142a860219139604051908190036021019020905082612209565b505050565b6040518060216142a88239604051908190036021019020905081565b6007602052600090815260409020546001600160601b031681565b6001546001600160a01b031681565b6000546001600160a01b031690565b600080546001600160a01b03166116246129a9565b6001600160a01b031614905090565b600160085414611679576040805162461bcd60e51b815260206004820152600c60248201526b1b9bdb9499595b9d1c985b9d60a21b604482015290519081900360640190fd5b600260085561168882826124a0565b50506001600855565b61169961160f565b6116d9576040805162461bcd60e51b815260206004820152600c60248201526b1d5b985d5d1a1bdc9a5e995960a21b604482015290519081900360640190fd5b6116ea60098263ffffffff6129ad16565b50604080516001600160a01b0383168152905133917f7b8bddb144d9ebd8a4fa3f47acac7c75b34ade822d5e528a442825fa9100ffdb919081900360200190a250565b60005b8181101561179f5761175c83838381811061174757fe5b905060200201356001600160a01b03166123bb565b6117975760405162461bcd60e51b815260040180806020018281038252603a81526020018061442a603a913960400191505060405180910390fd5b600101611730565b5060015460408051630f7e7aab60e41b8152306024820181905260048201928352604482018590526000936001600160a01b03169263f7e7aab0928792879290918190606401856020860280828437600081840152601f19601f820116905080830192505050945050505050602060405180830381600087803b15801561182557600080fd5b505af1158015611839573d6000803e3d6000fd5b505050506040513d602081101561184f57600080fd5b50516001546040805163afe8400960e01b815290519293506000926001600160a01b039092169163afe8400991600480820192602092909190829003018186803b15801561189c57600080fd5b505afa1580156118b0573d6000803e3d6000fd5b505050506040513d60208110156118c657600080fd5b50519050811561197957806001600160a01b0316632e1a7d4d836040518263ffffffff1660e01b815260040180828152602001915050600060405180830381600087803b15801561191657600080fd5b505af115801561192a573d6000803e3d6000fd5b50505050600061195283604051806080016040528060458152602001613f7b604591396128a5565b905061197760405180806142a860219139604051908190036021019020905082612209565b505b60408051838152905133917fea588ee3c471f3c47a77b5d118007e77b1d74e5b310a8805df274aa067d2e8a6919081900360200190a250505050565b823385600183116119f75760405162461bcd60e51b81526004018080602001828103825260218152602001806142136021913960400191505060405180910390fd5b6001600160a01b038083166000908152600560209081526040808320938516835292905220546000198401908411611a605760405162461bcd60e51b81526004018080602001828103825260388152602001806143986038913960400191505060405180910390fd5b6001600160a01b038216600090815260046020526040902054841115611ab75760405162461bcd60e51b8152600401808060200182810382526032815260200180613f156032913960400191505060405180910390fd5b611abf613e25565b506001600160a01b0380831660009081526003602090815260408083206000198601845282528083208151608081018352905463ffffffff808216808452600160201b83049091168386018190526001600160601b03600160401b8404811685870152600160a01b909304909216606084015260025484516337e6b1c160e01b81528b89166004820152602481019290925260448201929092529251919516926337e6b1c19260648082019391829003018186803b158015611b8057600080fd5b505afa158015611b94573d6000803e3d6000fd5b505050506040513d6020811015611baa57600080fd5b505190506001600160601b03811615611bf45760405162461bcd60e51b81526004018080602001828103825260398152602001806140bb6039913960400191505060405180910390fd5b611bfc613e25565b506001600160a01b0380851660009081526003602090815260408083208784528252918290208251608081018452905463ffffffff808216808452600160201b83049091168385018190526001600160601b03600160401b8404811685880152600160a01b909304909216606084015260025485516337e6b1c160e01b81528c88166004820152602481019290925260448201929092529351919416926337e6b1c1926064808301939192829003018186803b158015611cbb57600080fd5b505afa158015611ccf573d6000803e3d6000fd5b505050506040513d6020811015611ce557600080fd5b505191506001600160601b038216611d2e5760405162461bcd60e51b81526004018080602001828103825260358152602001806140566035913960400191505060405180910390fd5b600160085414611d74576040805162461bcd60e51b815260206004820152600c60248201526b1b9bdb9499595b9d1c985b9d60a21b604482015290519081900360640190fd5b60026008553360009081526005602090815260408083206001600160a01b038f1684529091529020548a1115611e0257611db58a600163ffffffff61245716565b60056000336001600160a01b03166001600160a01b0316815260200190815260200160002060008d6001600160a01b03166001600160a01b03168152602001908152602001600020819055505b611e0d8b8a8a612ab8565b50506001600855505050505050505050565b600160085414611e65576040805162461bcd60e51b815260206004820152600c60248201526b1b9bdb9499595b9d1c985b9d60a21b604482015290519081900360640190fd5b6002600855611e75838383612ab8565b5050600160085550565b6001600160a01b038216611ec45760405162461bcd60e51b8152600401808060200182810382526034815260200180613e806034913960400191505060405180910390fd5b6000816001600160601b031611611f0c5760405162461bcd60e51b8152600401808060200182810382526033815260200180613e4d6033913960400191505060405180910390fd5b604080516323b872dd60e01b81523360048201523060248201526001600160601b038316604482015290516000916001600160a01b038516916323b872dd9160648082019260209290919082900301818787803b158015611f6c57600080fd5b505af1158015611f80573d6000803e3d6000fd5b505050506040513d6020811015611f9657600080fd5b5051905080611fd65760405162461bcd60e51b815260040180806020018281038252602e81526020018061427a602e913960400191505060405180910390fd5b6001546040805163afe8400960e01b815290516000926001600160a01b03169163afe84009916004808301926020929190829003018186803b15801561201b57600080fd5b505afa15801561202f573d6000803e3d6000fd5b505050506040513d602081101561204557600080fd5b505190506001600160a01b0384811690821614156120e057806001600160a01b0316632e1a7d4d846040518263ffffffff1660e01b815260040180826001600160601b03168152602001915050600060405180830381600087803b1580156120ac57600080fd5b505af11580156120c0573d6000803e3d6000fd5b5050505060405180806142a8602191396040519081900360210190209450505b6120ea8484612209565b604080516001600160601b038516815290516001600160a01b0386169133917f1b89874203ff7f0bba87c969ada3f32fda22ed38a6706d35199d21280c7811b19181900360200190a350505050565b60606121456009612e8d565b905090565b60008060008061215b856000612f33565b509396509194509250612188915082905061217c858563ffffffff6130ae16565b9063ffffffff6130ae16565b95945050505050565b60046020526000908152604090205481565b6121ab61160f565b6121eb576040805162461bcd60e51b815260206004820152600c60248201526b1d5b985d5d1a1bdc9a5e995960a21b604482015290519081900360640190fd5b6121f481613108565b50565b60066020526000908152604090205481565b6001600160a01b038216600090815260066020526040902054620151804291909103106122c2576001600160a01b03821660009081526006602090815260408083204290556007825280832054815160608101909252603b808352612285936001600160601b039092169286929091906141769083013961293f565b6001600160a01b038416600090815260076020526040902080546bffffffffffffffffffffffff1916905590506122bc83826131a8565b50612349565b6001600160a01b03821660009081526007602090815260409182902054825160808101909352604680845261230d936001600160601b0390921692859291906142c99083013961293f565b6001600160a01b038316600090815260076020526040902080546bffffffffffffffffffffffff19166001600160601b03929092169190911790555b5050565b60008061235d600086868661344b565b91509150935093915050565b604080516001600160a01b038416602482015260448082018490528251808303909101815260649091019091526020810180516001600160e01b031663a9059cbb60e01b1790526115b5908490613782565b6000813f7fc5d2460186f7233c927e7db2dcc703c0e500b653ca82273b7bfad8045d85a4708181148015906123ef57508115155b949350505050565b6000612403838361393a565b61244f5750600182810180548083018083556000928352602080842090920180546001600160a01b0319166001600160a01b038716908117909155835290859052604090912055610946565b506000610946565b600061249983836040518060400160405280601e81526020017f536166654d6174683a207375627472616374696f6e206f766572666c6f770000815250613958565b9392505050565b6000806000806000806000803390506000600160009054906101000a90046001600160a01b03166001600160a01b031663afe840096040518163ffffffff1660e01b815260040160206040518083038186803b1580156124ff57600080fd5b505afa158015612513573d6000803e3d6000fd5b505050506040513d602081101561252957600080fd5b505190506000612538826139b2565b90506001600160a01b038b1661254c57339a505b612556838d612f33565b939e50939c50909a509850909650945088156125ba576001600160a01b03831660009081526005602052604080822090518992908060216142a8823960408051918290036021019091206001600160a01b0316835260208301939093525001600020555b891561263e576001600160a01b038084166000908152600560209081526040808320938616808452939091528082208990558051632e1a7d4d60e01b8152600481018e90529051632e1a7d4d9260248084019391929182900301818387803b15801561262557600080fd5b505af1158015612639573d6000803e3d6000fd5b505050505b87156126e3576001600160a01b0380841660009081526005602090815260408083209385168084529382528083208990558051630141abc160e21b8152306004820152602481018d9052604481018490529051630506af0493606480840194938390030190829087803b1580156126b457600080fd5b505af11580156126c8573d6000803e3d6000fd5b505050506040513d60208110156126de57600080fd5b505193505b60006126f98561217c8c8e63ffffffff6130ae16565b90506000811161273a5760405162461bcd60e51b815260040180806020018281038252603b815260200180614464603b913960400191505060405180910390fd5b6040516000906001600160a01b038e169083908381818185875af1925050503d8060008114612785576040519150601f19603f3d011682016040523d82523d6000602084013e61278a565b606091505b50509050806127ca5760405162461bcd60e51b8152600401808060200182810382526034815260200180613f476034913960400191505060405180910390fd5b8c6001600160a01b0316856001600160a01b03167fba7771603337d6821ea291d76396cf6aa3ea405141b033d8415280139c980c1d846040518082815260200191505060405180910390a35050505050505050505050505050565b60005b81518110156123495761285882828151811061284057fe5b6020026020010151600961393a90919063ffffffff16565b61289d576040805162461bcd60e51b815260206004820152601160248201527024b73b30b634b21021b7b73b32b93a32b960791b604482015290519081900360640190fd5b600101612828565b600081600160601b84106129375760405162461bcd60e51b81526004018080602001828103825283818151815260200191508051906020019080838360005b838110156128fc5781810151838201526020016128e4565b50505050905090810190601f1680156129295780820380516001836020036101000a031916815260200191505b509250505060405180910390fd5b509192915050565b6000838301826001600160601b0380871690831610156129a05760405162461bcd60e51b81526020600482018181528351602484015283519092839260449091019190850190808383600083156128fc5781810151838201526020016128e4565b50949350505050565b3390565b60006129b9838361393a565b1561244f576001600160a01b03821660009081526020849052604090205460018401546000199182019101808214612a645760008560010182815481106129fc57fe5b6000918252602090912001546001870180546001600160a01b039092169250829185908110612a2757fe5b600091825260208083209190910180546001600160a01b0319166001600160a01b0394851617905592909116815290869052604090206001830190555b6001600160a01b03841660009081526020869052604081205560018501805480612a8a57fe5b600082815260209020810160001990810180546001600160a01b031916905501905550600191506109469050565b60008263ffffffff1611612afd5760405162461bcd60e51b81526004018080602001828103825260418152602001806141d26041913960600191505060405180910390fd5b6001546040805163afe8400960e01b815290516000926001600160a01b03169163afe84009916004808301926020929190829003018186803b158015612b4257600080fd5b505afa158015612b56573d6000803e3d6000fd5b505050506040513d6020811015612b6c57600080fd5b505190506000612b7b826139b2565b9050336001600160a01b038416612b90573393505b600080612b9e83898961234d565b915091508160001415612ca5576001600160a01b038084166000908152600560209081526040808320938c1683529290522054811115612c6e576001600160a01b038381166000908152600560209081526040808320938c1680845293825291829020548251908152908101849052815133927fd3d8b561a0f93295b4ea7e2b930d36bd7f1a38774547bf98fb66540f588217b2928290030190a36001600160a01b039283166000908152600560209081526040808320958b1683529490529290922091909155506115b5915050565b60405162461bcd60e51b815260040180806020018281038252603b815260200180613eb4603b913960400191505060405180910390fd5b6001600160a01b0380841660009081526005602090815260408083208c851680855292529091208390559085161415612d675760408051630141abc160e21b81526001600160a01b038881166004830152602482018590526000604483018190529251908b1692630506af0492606480820193602093909283900390910190829087803b158015612d3557600080fd5b505af1158015612d49573d6000803e3d6000fd5b505050506040513d6020811015612d5f57600080fd5b50612e2e9050565b876001600160a01b031663a9059cbb87846040518363ffffffff1660e01b815260040180836001600160a01b03166001600160a01b0316815260200182815260200192505050602060405180830381600087803b158015612dc757600080fd5b505af1158015612ddb573d6000803e3d6000fd5b505050506040513d6020811015612df157600080fd5b5051612e2e5760405162461bcd60e51b81526004018080602001828103825260308152602001806143d06030913960400191505060405180910390fd5b876001600160a01b0316866001600160a01b0316336001600160a01b03167fe635adc5d0c2d7b47215ce5ed57a79c3db183a1ef414ccfc43f24f19178a630f856040518082815260200191505060405180910390a45050505050505050565b6060808260010180549050604051908082528060200260200182016040528015612ec1578160200160208202803883390190505b50905060005b6001840154811015612f2c57836001018181548110612ee257fe5b9060005260206000200160009054906101000a90046001600160a01b0316828281518110612f0c57fe5b6001600160a01b0390921660209283029190910190910152600101612ec7565b5092915050565b6000806000806000806000600160009054906101000a90046001600160a01b03166001600160a01b031663afe840096040518163ffffffff1660e01b815260040160206040518083038186803b158015612f8c57600080fd5b505afa158015612fa0573d6000803e3d6000fd5b505050506040513d6020811015612fb657600080fd5b505190506000612fc5826139b2565b9050612feb8a60405180806142a86021913960405190819003602101902090508b61234d565b9098509450612ffb8a838b61234d565b909750935061300b8a828b61234d565b80945081975050506130a0670de0b6b3a7640000613094836001600160a01b0316637ff9b5966040518163ffffffff1660e01b815260040160206040518083038186803b15801561305b57600080fd5b505afa15801561306f573d6000803e3d6000fd5b505050506040513d602081101561308557600080fd5b5051899063ffffffff613a7416565b9063ffffffff613acd16565b955050509295509295509295565b600082820183811015612499576040805162461bcd60e51b815260206004820152601b60248201527f536166654d6174683a206164646974696f6e206f766572666c6f770000000000604482015290519081900360640190fd5b6001600160a01b03811661314d5760405162461bcd60e51b8152600401808060200182810382526026815260200180613eef6026913960400191505060405180910390fd5b600080546040516001600160a01b03808516939216917f8be0079c531659141344cd1fd0a4f28419497f9722a3daafe3b4186f6b6457e091a3600080546001600160a01b0319166001600160a01b0392909216919091179055565b60006131cc436040518060800160405280604381526020016140f460439139613b0f565b905060006131f24260405180608001604052806046815260200161423460469139613b0f565b6001600160a01b03851660009081526004602052604081205491925061321c600019850142613b64565b90506000816001600160601b03161161327c576040805162461bcd60e51b815260206004820152601a60248201527f496e76616c696420746f74616c57656967687465645374616b65000000000000604482015290519081900360640190fd5b6000821180156132bb57506001600160a01b03861660009081526003602090815260408083206000198601845290915290205463ffffffff8581169116145b1561332a576001600160a01b03868116600090815260036020908152604080832060001987018452909152902080546001600160601b03888116600160a01b02908516600160401b026bffffffffffffffffffffffff60401b19909216919091179092169190911790556133fa565b6040805160808101825263ffffffff868116825285811660208084019182526001600160601b038681168587019081528b8216606087019081526001600160a01b038e81166000818152600387528a81208d825287528a812099518a5498519551945163ffffffff19909916908a161767ffffffff000000001916600160201b9590991694909402979097176bffffffffffffffffffffffff60401b1916600160401b928516929092029190911716600160a01b9490921693909302179093559081526004909152206001830190555b604080516001600160601b038716815290516001600160a01b0388169133917ff61a5f2f4d0b2d871d5bf18717d08a6b0f543afa7e08dad5df1fea150f7296329181900360200190a3505050505050565b6002546040805163ca6860df60e01b81526001600160a01b03868116600483015291516000938493169163ca6860df916024808301926020929190829003018186803b15801561349a57600080fd5b505afa1580156134ae573d6000803e3d6000fd5b505050506040513d60208110156134c457600080fd5b5051156134d657506000905080613779565b6001600160a01b03808616600090815260056020908152604080832093881683529290522054808711156135075750855b6000808563ffffffff1611613534576001600160a01b03861660009081526004602052604090205461353f565b61353f828787613c9c565b6001600160a01b038716600090815260046020526040902054909150821061356e576000935091506137799050565b60008080845b8481101561376e576001600160a01b038a811660009081526003602090815260408083208584528252808320600254815483516372ec979560e01b8152600160201b90910463ffffffff1660048201529251919516926372ec97959260248082019391829003018186803b1580156135eb57600080fd5b505afa1580156135ff573d6000803e3d6000fd5b505050506040513d602081101561361557600080fd5b5051905060008582141561362a575083613713565b600260009054906101000a90046001600160a01b03166001600160a01b03166337e6b1c18f60018660000160009054906101000a900463ffffffff16038660000160049054906101000a900463ffffffff166040518463ffffffff1660e01b815260040180846001600160a01b03166001600160a01b031681526020018363ffffffff1681526020018263ffffffff168152602001935050505060206040518083038186803b1580156136dc57600080fd5b505afa1580156136f0573d6000803e3d6000fd5b505050506040513d602081101561370657600080fd5b5051919550909350849050835b825460009061374a906001600160601b03600160401b820481169161309491600160a01b909104811690861663ffffffff613a7416565b905061375c888263ffffffff6130ae16565b97505060019093019250613574915050565b509195509193505050505b94509492505050565b613794826001600160a01b03166123bb565b6137e5576040805162461bcd60e51b815260206004820152601f60248201527f5361666545524332303a2063616c6c20746f206e6f6e2d636f6e747261637400604482015290519081900360640190fd5b60006060836001600160a01b0316836040518082805190602001908083835b602083106138235780518252601f199092019160209182019101613804565b6001836020036101000a0380198251168184511680821785525050505050509050019150506000604051808303816000865af19150503d8060008114613885576040519150601f19603f3d011682016040523d82523d6000602084013e61388a565b606091505b5091509150816138e1576040805162461bcd60e51b815260206004820181905260248201527f5361666545524332303a206c6f772d6c6576656c2063616c6c206661696c6564604482015290519081900360640190fd5b805115610d49578080602001905160208110156138fd57600080fd5b5051610d495760405162461bcd60e51b815260040180806020018281038252602a815260200180614400602a913960400191505060405180910390fd5b6001600160a01b031660009081526020919091526040902054151590565b600081848411156139aa5760405162461bcd60e51b81526020600482018181528351602484015283519092839260449091019190850190808383600083156128fc5781810151838201526020016128e4565b505050900390565b600154604080516310c59ce360e11b81526001600160a01b03848116600483015291516000938493169163218b39c6916024808301926020929190829003018186803b158015613a0157600080fd5b505afa158015613a15573d6000803e3d6000fd5b505050506040513d6020811015613a2b57600080fd5b505190506001600160a01b0381166109465760405162461bcd60e51b81526004018080602001828103825260338152602001806143656033913960400191505060405180910390fd5b600082613a8357506000610946565b82820282848281613a9057fe5b04146124995760405162461bcd60e51b81526004018080602001828103825260218152602001806141b16021913960400191505060405180910390fd5b600061249983836040518060400160405280601a81526020017f536166654d6174683a206469766973696f6e206279207a65726f000000000000815250613d5b565b600081600160201b84106129375760405162461bcd60e51b81526020600482018181528351602484015283519092839260449091019190850190808383600083156128fc5781810151838201526020016128e4565b6002546040805163cdbe715560e01b815263ffffffff8516600482015260248101849052905160009283926001600160a01b039091169163cdbe715591604480820192602092909190829003018186803b158015613bc157600080fd5b505afa158015613bd5573d6000803e3d6000fd5b505050506040513d6020811015613beb57600080fd5b5051600254604080516312916bdd60e11b815263ffffffff881660048201526024810187905290519293506001600160a01b0390911691632522d7ba91604480820192602092909190829003018186803b158015613c4857600080fd5b505afa158015613c5c573d6000803e3d6000fd5b505050506040513d6020811015613c7257600080fd5b5051604080516080810190915260568082529193506123ef918491849161430f6020830139613dc0565b6001600160a01b03821660009081526004602052604081205480613cc4576000915050612499565b6000198101600063ffffffff8516613cdd575081613d1a565b613d078563ffffffff1688016040518060600160405280603f8152602001614137603f9139613b0f565b63ffffffff16905082811115613d1a5750815b6001600160a01b038616600090815260036020908152604080832085845290915290205463ffffffff1643811415613d50578291505b509695505050505050565b60008183613daa5760405162461bcd60e51b81526020600482018181528351602484015283519092839260449091019190850190808383600083156128fc5781810151838201526020016128e4565b506000838581613db657fe5b0495945050505050565b6000836001600160601b0316836001600160601b0316111582906139aa5760405162461bcd60e51b81526020600482018181528351602484015283519092839260449091019190850190808383600083156128fc5781810151838201526020016128e4565b6040805160808101825260008082526020820181905291810182905260608101919091529056fe46656553686172696e67436f6c6c6563746f723a3a7472616e73666572546f6b656e733a20696e76616c696420616d6f756e7446656553686172696e67436f6c6c6563746f723a3a7472616e73666572546f6b656e733a20696e76616c6964206164647265737346656553686172696e67436f6c6c6563746f723a3a7769746864726177466565733a206e6f20746f6b656e7320666f72207769746864726177616c4f776e61626c653a206e6577206f776e657220697320746865207a65726f20616464726573735f66726f6d436865636b706f696e742073686f756c64206265203c3d20746f74616c546f6b656e436865636b706f696e747346656553686172696e67436f6c6c6563746f723a3a7769746864726177524254433a205769746864726177616c206661696c656446656553686172696e67436f6c6c6563746f723a3a7769746864726177466565733a20777262746320746f6b656e20616d6f756e742065786365656473203936206269747346656553686172696e67436f6c6c6563746f723a3a776974686472617746656573414d4d3a20746f74616c20777262746320746f6b656e20616d6f756e742065786365656473203936206269747346656553686172696e67436f6c6c6563746f723a3a776974686472617746656573414d4d3a20777262746320746f6b656e20616d6f756e742065786365656473203936206269747355736572207765696768746564207374616b652073686f756c64206265203e203020617420205f66726f6d436865636b706f696e7446656553686172696e67436f6c6c6563746f723a3a7472616e73666572524254433a20696e76616c69642076616c756555736572207765696768746564207374616b652073686f756c64206265207a65726f2061742070726576696f757320636865636b706f696e7446656553686172696e67436f6c6c6563746f723a3a5f7772697465436865636b706f696e743a20626c6f636b206e756d6265722065786365656473203332206269747346656553686172696e67436f6c6c6563746f723a3a77697468647261773a20636865636b706f696e7420696e6465782065786365656473203332206269747346656553686172696e67436f6c6c6563746f723a3a5f616464436865636b706f696e743a20616d6f756e7420657863656564732039362062697473536166654d6174683a206d756c7469706c69636174696f6e206f766572666c6f7746656553686172696e67436f6c6c6563746f723a3a77697468647261773a205f6d6178436865636b706f696e74732073686f756c6420626520706f7369746976655f66726f6d436865636b706f696e7420706172616d206d757374206265203e203146656553686172696e67436f6c6c6563746f723a3a5f7772697465436865636b706f696e743a20626c6f636b2074696d657374616d70206578636565647320333220626974735374616b696e673a3a7472616e73666572546f6b656e733a20746f6b656e207472616e73666572206661696c6564524254435f44554d4d595f414444524553535f464f525f434845434b504f494e5446656553686172696e67436f6c6c6563746f723a3a5f616464436865636b706f696e743a20756e70726f636573736564416d6f756e742065786365656473203936206269747346656553686172696e67436f6c6c6563746f723a3a5f676574546f74616c566f6c756e7461727957656967687465645374616b653a20766573746564207374616b65206578636565647320746f74616c207374616b6546656553686172696e67436f6c6c6563746f723a3a77697468647261773a206c6f616e207752425443206e6f7420666f756e645f66726f6d436865636b706f696e7420706172616d206d757374206265203e207573657250726f636573736564436865636b706f696e747346656553686172696e67436f6c6c6563746f723a3a77697468647261773a207769746864726177616c206661696c65645361666545524332303a204552433230206f7065726174696f6e20646964206e6f74207375636365656446656553686172696e67436f6c6c6563746f723a3a7769746864726177466565733a20746f6b656e206973206e6f74206120636f6e747261637446656553686172696e67436f6c6c6563746f723a3a7769746864726177466565733a206e6f207262746320666f722061207769746864726177616ca265627a7a72315820c7f6527722b13471ccd15a034a20eccca41089b0e3c0c12835a6b0758000a60464736f6c63430005110032",
  "devdoc": {
    "methods": {
      "addWhitelistedConverterAddress(address)": {
        "details": "Whitelisting converter address.",
        "params": {
          "converterAddress": "converter address to be whitelisted."
        }
      },
      "getAccumulatedFees(address,address)": {
        "params": {
          "_token": "RBTC dummy to fit into existing data structure or SOV. Former address of the pool token.",
          "_user": "The address of the user or contract."
        },
        "return": "The accumulated fee for the message sender."
      },
      "getAccumulatedRBTCFeeBalances(address)": {
        "details": "view function that calculate the total RBTC that includes: - RBTC - WRBTC - iWRBTC * iWRBTC.tokenPrice()",
        "params": {
          "_user": "address of the user."
        },
        "return": "rbtc balance of the given user's address."
      },
      "getNextPositiveUserCheckpoint(address,address)": {
        "details": "Returns first user's checkpoint with weighted stake > 0",
        "params": {
          "_token": "RBTC dummy to fit into existing data structure or SOV. Former address of the pool token.",
          "_user": "The address of the user or contract."
        },
        "return": "Checkpoint number where user's weighted stake > 0"
      },
      "getWhitelistedConverterList()": {
        "return": "All of the whitelisted converter list."
      },
      "isOwner()": {
        "details": "Returns true if the caller is the current owner."
      },
      "numTokenCheckpoints(address)": {
        "details": "This getter function `numTokenCheckpoints` is added for backwards compatibility     broken when renamed `numTokenCheckpoints` storage variable to `totalTokenCheckpoints`.",
        "params": {
          "_token": "token address to get checkpoints for"
        },
        "return": "Total token checkpoints"
      },
      "owner()": {
        "details": "Returns the address of the current owner."
      },
      "removeWhitelistedConverterAddress(address)": {
        "details": "Removing converter address from whitelist.",
        "params": {
          "converterAddress": "converter address to be removed from whitelist."
        }
      },
      "transferOwnership(address)": {
        "details": "Transfers ownership of the contract to a new account (`newOwner`). Can only be called by the current owner."
      },
      "transferRBTC()": {
        "details": "We just write checkpoint here (based on the rbtc value that is sent) in a separate methods in order to prevent adding checkpoints too often."
      },
      "transferTokens(address,uint96)": {
        "details": "We just update amount of tokens here and write checkpoint in a separate methods in order to prevent adding checkpoints too often.",
        "params": {
          "_amount": "Amount to be transferred.",
          "_token": "Address of the token."
        }
      },
      "withdraw(address,uint32,address)": {
        "params": {
          "_maxCheckpoints": "Maximum number of checkpoints to be processed. Must be positive value.",
          "_receiver": "The receiver of tokens or msg.sender",
          "_token": "RBTC dummy to fit into existing data structure or SOV. Former address of the pool token."
        }
      },
      "withdrawFees(address[])": {
        "params": {
          "_tokens": "array address of the token"
        }
      },
      "withdrawFeesAMM(address[])": {
        "params": {
          "_converters": "array addresses of the converters"
        }
      },
      "withdrawRBTC(uint32,address)": {
        "details": "withdraw all of the RBTC balance based on particular checkpoints     * RBTC balance consists of: - rbtc balance - wrbtc balance which will be unwrapped to rbtc - iwrbtc balance which will be unwrapped to rbtc",
        "params": {
          "_maxCheckpoints": "Maximum number of checkpoints to be processed to workaround block gas limit",
          "_receiver": "An optional tokens receiver (msg.sender used if 0)"
        }
      },
      "withdrawRBTCStartingFromCheckpoint(uint256,uint32,address)": {
        "details": "Withdraw all of the RBTC balance based starting from a specific checkpoint The function was designed to skip checkpoints with no fees for users     * RBTC balance consists of: - rbtc balance - wrbtc balance which will be unwrapped to rbtc - iwrbtc balance which will be unwrapped to rbtcWARNING! This function skips all the checkpoints before '_fromCheckpoint' irreversibly, use with care",
        "params": {
          "_fromCheckpoint": "Skips all the checkpoints before '_fromCheckpoint'       should be calculated offchain with getNextPositiveUserCheckpoint function",
          "_maxCheckpoints": "Maximum number of checkpoints to be processed to workaround block gas limit",
          "_receiver": "An optional tokens receiver (msg.sender used if 0)"
        }
      },
      "withdrawStartingFromCheckpoint(address,uint256,uint32,address)": {
        "details": "WARNING! This function skips all the checkpoints before '_fromCheckpoint' irreversibly, use with care",
        "params": {
          "_fromCheckpoint": "Skips all the checkpoints before '_fromCheckpoint'       should be calculated offchain with getNextPositiveUserCheckpoint function",
          "_maxCheckpoints": "Maximum number of checkpoints to be processed.",
          "_receiver": "The receiver of tokens or msg.sender",
          "_token": "RBTC dummy to fit into existing data structure or SOV. Former address of the pool token."
        }
      }
    },
    "title": "The FeeSharingCollector contract."
  },
  "userdoc": {
    "methods": {
      "getAccumulatedFees(address,address)": {
        "notice": "Get the accumulated loan pool fee of the message sender."
      },
      "getWhitelistedConverterList()": {
        "notice": "Getter to query all of the whitelisted converter."
      },
      "transferRBTC()": {
        "notice": "Transfer RBTC / native tokens to this contract."
      },
      "transferTokens(address,uint96)": {
        "notice": "Transfer tokens to this contract."
      },
      "withdraw(address,uint32,address)": {
        "notice": "Withdraw accumulated fee to the message sender.     * The Sovryn protocol collects fees on every trade/swap and loan. These fees will be distributed to SOV stakers based on their voting power as a percentage of total voting power. Therefore, staking more SOV and/or staking for longer will increase your share of the fees generated, meaning you will earn more from staking.     * This function will directly burnToBTC and use the msg.sender (user) as the receiver"
      },
      "withdrawFees(address[])": {
        "notice": "Withdraw fees for the given token: lendingFee + tradingFee + borrowingFee the fees (except SOV) will be converted in wRBTC form, and then will be transferred to wRBTC loan pool. For SOV, it will be directly deposited into the feeSharingCollector from the protocol."
      },
      "withdrawFeesAMM(address[])": {
        "notice": "Withdraw amm fees for the given converter addresses: protocolFee from the conversion the fees will be converted in wRBTC form, and then will be transferred to wRBTC loan pool"
      },
      "withdrawStartingFromCheckpoint(address,uint256,uint32,address)": {
        "notice": "Withdraw accumulated fee to the message sender/receiver.     * The Sovryn protocol collects fees on every trade/swap and loan. These fees will be distributed to SOV stakers based on their voting power as a percentage of total voting power.     * This function will directly burnToBTC and use the msg.sender (user) as the receiver"
      }
    },
    "notice": "This contract withdraws fees to be paid to SOV Stakers from the protocol. Stakers call withdraw() to get their share of the fees.Staking is not only granting voting rights, but also access to fee sharing according to the own voting power in relation to the total. Whenever somebody decides to collect the fees from the protocol, they get transferred to a proxy contract which invests the funds in the lending pool and keeps the pool tokens. * The fee sharing proxy will be set as feesController of the protocol contract. This allows the fee sharing proxy to withdraw the fees. The fee sharing proxy holds the pool tokens and keeps track of which user owns how many tokens. In order to know how many tokens a user owns, the fee sharing proxy needs to know the users weighted stake in relation to the total weighted stake (aka total voting power). * Because both values are subject to change, they may be different on each fee withdrawal. To be able to calculate a users share of tokens when he wants to withdraw, we need checkpoints. * This contract is intended to be set as the protocol fee collector. Anybody can invoke the withdrawFees function which uses protocol.withdrawFees to obtain available fees from operations on a certain token. These fees are deposited in the corresponding loanPool. Also, the staking contract sends slashed tokens to this contract. When a user calls the withdraw function, the contract transfers the fee sharing rewards in proportion to the users weighted stake since the last withdrawal. * The protocol initially collects fees in all tokens. Then the FeeSharingCollector wihtdraws fees from the protocol. When the fees are withdrawn all the tokens except SOV will be converted to wRBTC and then transferred to wRBTC loan pool. For SOV, it will be directly deposited into the feeSharingCollector from the protocol."
  },
  "storageLayout": {
    "storage": [
      {
        "astId": 53255,
        "contract": "contracts/governance/FeeSharingCollector/FeeSharingCollector.sol:FeeSharingCollector",
        "label": "_owner",
        "offset": 0,
        "slot": "0",
        "type": "t_address"
      },
      {
        "astId": 14388,
        "contract": "contracts/governance/FeeSharingCollector/FeeSharingCollector.sol:FeeSharingCollector",
        "label": "protocol",
        "offset": 0,
        "slot": "1",
        "type": "t_contract(IProtocol)14482"
      },
      {
        "astId": 14390,
        "contract": "contracts/governance/FeeSharingCollector/FeeSharingCollector.sol:FeeSharingCollector",
        "label": "staking",
        "offset": 0,
        "slot": "2",
        "type": "t_contract(IStaking)16821"
      },
      {
        "astId": 14396,
        "contract": "contracts/governance/FeeSharingCollector/FeeSharingCollector.sol:FeeSharingCollector",
        "label": "tokenCheckpoints",
        "offset": 0,
        "slot": "3",
        "type": "t_mapping(t_address,t_mapping(t_uint256,t_struct(Checkpoint)14423_storage))"
      },
      {
        "astId": 14400,
        "contract": "contracts/governance/FeeSharingCollector/FeeSharingCollector.sol:FeeSharingCollector",
        "label": "totalTokenCheckpoints",
        "offset": 0,
        "slot": "4",
        "type": "t_mapping(t_address,t_uint256)"
      },
      {
        "astId": 14406,
        "contract": "contracts/governance/FeeSharingCollector/FeeSharingCollector.sol:FeeSharingCollector",
        "label": "processedCheckpoints",
        "offset": 0,
        "slot": "5",
        "type": "t_mapping(t_address,t_mapping(t_address,t_uint256))"
      },
      {
        "astId": 14410,
        "contract": "contracts/governance/FeeSharingCollector/FeeSharingCollector.sol:FeeSharingCollector",
        "label": "lastFeeWithdrawalTime",
        "offset": 0,
        "slot": "6",
        "type": "t_mapping(t_address,t_uint256)"
      },
      {
        "astId": 14414,
        "contract": "contracts/governance/FeeSharingCollector/FeeSharingCollector.sol:FeeSharingCollector",
        "label": "unprocessedAmount",
        "offset": 0,
        "slot": "7",
        "type": "t_mapping(t_address,t_uint96)"
      },
      {
        "astId": 14432,
        "contract": "contracts/governance/FeeSharingCollector/FeeSharingCollector.sol:FeeSharingCollector",
        "label": "reentrancyLock",
        "offset": 0,
        "slot": "8",
        "type": "t_uint256"
      },
      {
        "astId": 14434,
        "contract": "contracts/governance/FeeSharingCollector/FeeSharingCollector.sol:FeeSharingCollector",
        "label": "whitelistedConverterList",
        "offset": 0,
        "slot": "9",
        "type": "t_struct(AddressSet)34855_storage"
      }
    ],
    "types": {
      "t_address": {
        "encoding": "inplace",
        "label": "address",
        "numberOfBytes": "20"
      },
      "t_array(t_address)dyn_storage": {
        "base": "t_address",
        "encoding": "dynamic_array",
        "label": "address[]",
        "numberOfBytes": "32"
      },
      "t_contract(IProtocol)14482": {
        "encoding": "inplace",
        "label": "contract IProtocol",
        "numberOfBytes": "20"
      },
      "t_contract(IStaking)16821": {
        "encoding": "inplace",
        "label": "contract IStaking",
        "numberOfBytes": "20"
      },
      "t_mapping(t_address,t_mapping(t_address,t_uint256))": {
        "encoding": "mapping",
        "key": "t_address",
        "label": "mapping(address => mapping(address => uint256))",
        "numberOfBytes": "32",
        "value": "t_mapping(t_address,t_uint256)"
      },
      "t_mapping(t_address,t_mapping(t_uint256,t_struct(Checkpoint)14423_storage))": {
        "encoding": "mapping",
        "key": "t_address",
        "label": "mapping(address => mapping(uint256 => struct FeeSharingCollectorStorage.Checkpoint))",
        "numberOfBytes": "32",
        "value": "t_mapping(t_uint256,t_struct(Checkpoint)14423_storage)"
      },
      "t_mapping(t_address,t_uint256)": {
        "encoding": "mapping",
        "key": "t_address",
        "label": "mapping(address => uint256)",
        "numberOfBytes": "32",
        "value": "t_uint256"
      },
      "t_mapping(t_address,t_uint96)": {
        "encoding": "mapping",
        "key": "t_address",
        "label": "mapping(address => uint96)",
        "numberOfBytes": "32",
        "value": "t_uint96"
      },
      "t_mapping(t_uint256,t_struct(Checkpoint)14423_storage)": {
        "encoding": "mapping",
        "key": "t_uint256",
        "label": "mapping(uint256 => struct FeeSharingCollectorStorage.Checkpoint)",
        "numberOfBytes": "32",
        "value": "t_struct(Checkpoint)14423_storage"
      },
      "t_struct(AddressSet)34855_storage": {
        "encoding": "inplace",
        "label": "struct EnumerableAddressSet.AddressSet",
        "members": [
          {
            "astId": 34851,
            "contract": "contracts/governance/FeeSharingCollector/FeeSharingCollector.sol:FeeSharingCollector",
            "label": "index",
            "offset": 0,
            "slot": "0",
            "type": "t_mapping(t_address,t_uint256)"
          },
          {
            "astId": 34854,
            "contract": "contracts/governance/FeeSharingCollector/FeeSharingCollector.sol:FeeSharingCollector",
            "label": "values",
            "offset": 0,
            "slot": "1",
            "type": "t_array(t_address)dyn_storage"
          }
        ],
        "numberOfBytes": "64"
      },
      "t_struct(Checkpoint)14423_storage": {
        "encoding": "inplace",
        "label": "struct FeeSharingCollectorStorage.Checkpoint",
        "members": [
          {
            "astId": 14416,
            "contract": "contracts/governance/FeeSharingCollector/FeeSharingCollector.sol:FeeSharingCollector",
            "label": "blockNumber",
            "offset": 0,
            "slot": "0",
            "type": "t_uint32"
          },
          {
            "astId": 14418,
            "contract": "contracts/governance/FeeSharingCollector/FeeSharingCollector.sol:FeeSharingCollector",
            "label": "timestamp",
            "offset": 4,
            "slot": "0",
            "type": "t_uint32"
          },
          {
            "astId": 14420,
            "contract": "contracts/governance/FeeSharingCollector/FeeSharingCollector.sol:FeeSharingCollector",
            "label": "totalWeightedStake",
            "offset": 8,
            "slot": "0",
            "type": "t_uint96"
          },
          {
            "astId": 14422,
            "contract": "contracts/governance/FeeSharingCollector/FeeSharingCollector.sol:FeeSharingCollector",
            "label": "numTokens",
            "offset": 20,
            "slot": "0",
            "type": "t_uint96"
          }
        ],
        "numberOfBytes": "32"
      },
      "t_uint256": {
        "encoding": "inplace",
        "label": "uint256",
        "numberOfBytes": "32"
      },
      "t_uint32": {
        "encoding": "inplace",
        "label": "uint32",
        "numberOfBytes": "4"
      },
      "t_uint96": {
        "encoding": "inplace",
        "label": "uint96",
        "numberOfBytes": "12"
      }
    }
  }
}