{
  "address": "0xA93036D7b4EEc830c9e44feaC8eE04b84B66de78",
  "abi": [
    {
      "anonymous": false,
      "inputs": [
        {
          "indexed": true,
          "internalType": "address",
          "name": "sender",
          "type": "address"
        },
        {
          "indexed": true,
          "internalType": "address",
          "name": "token",
          "type": "address"
        },
        {
          "indexed": false,
          "internalType": "uint256",
          "name": "amount",
          "type": "uint256"
        }
      ],
      "name": "CheckpointAdded",
      "type": "event"
    },
    {
      "anonymous": false,
      "inputs": [
        {
          "indexed": true,
          "internalType": "address",
          "name": "sender",
          "type": "address"
        },
        {
          "indexed": true,
          "internalType": "address",
          "name": "converter",
          "type": "address"
        },
        {
          "indexed": false,
          "internalType": "uint256",
          "name": "amount",
          "type": "uint256"
        }
      ],
      "name": "FeeAMMWithdrawn",
      "type": "event"
    },
    {
      "anonymous": false,
      "inputs": [
        {
          "indexed": true,
          "internalType": "address",
          "name": "sender",
          "type": "address"
        },
        {
          "indexed": false,
          "internalType": "uint256",
          "name": "amount",
          "type": "uint256"
        }
      ],
      "name": "FeeWithdrawnInRBTC",
      "type": "event"
    },
    {
      "anonymous": false,
      "inputs": [
        {
          "indexed": true,
          "internalType": "address",
          "name": "previousOwner",
          "type": "address"
        },
        {
          "indexed": true,
          "internalType": "address",
          "name": "newOwner",
          "type": "address"
        }
      ],
      "name": "OwnershipTransferred",
      "type": "event"
    },
    {
      "anonymous": false,
      "inputs": [
        {
          "indexed": true,
          "internalType": "address",
          "name": "sender",
          "type": "address"
        },
        {
          "indexed": true,
          "internalType": "address",
          "name": "receiver",
          "type": "address"
        },
        {
          "indexed": false,
          "internalType": "uint256",
          "name": "amount",
          "type": "uint256"
        }
      ],
      "name": "RBTCWithdrawn",
      "type": "event"
    },
    {
      "anonymous": false,
      "inputs": [
        {
          "indexed": true,
          "internalType": "address",
          "name": "sender",
          "type": "address"
        },
        {
          "indexed": true,
          "internalType": "address",
          "name": "token",
          "type": "address"
        },
        {
          "indexed": false,
          "internalType": "uint256",
          "name": "amount",
          "type": "uint256"
        }
      ],
      "name": "TokensTransferred",
      "type": "event"
    },
    {
      "anonymous": false,
      "inputs": [
        {
          "indexed": true,
          "internalType": "address",
          "name": "sender",
          "type": "address"
        },
        {
          "indexed": false,
          "internalType": "address",
          "name": "converter",
          "type": "address"
        }
      ],
      "name": "UnwhitelistedConverter",
      "type": "event"
    },
    {
      "anonymous": false,
      "inputs": [
        {
          "indexed": true,
          "internalType": "address",
          "name": "sender",
          "type": "address"
        },
        {
          "indexed": true,
          "internalType": "address",
          "name": "token",
          "type": "address"
        },
        {
          "indexed": false,
          "internalType": "uint256",
          "name": "prevProcessedCheckpoints",
          "type": "uint256"
        },
        {
          "indexed": false,
          "internalType": "uint256",
          "name": "newProcessedCheckpoints",
          "type": "uint256"
        }
      ],
      "name": "UserFeeProcessedNoWithdraw",
      "type": "event"
    },
    {
      "anonymous": false,
      "inputs": [
        {
          "indexed": true,
          "internalType": "address",
          "name": "sender",
          "type": "address"
        },
        {
          "indexed": true,
          "internalType": "address",
          "name": "receiver",
          "type": "address"
        },
        {
          "indexed": true,
          "internalType": "address",
          "name": "token",
          "type": "address"
        },
        {
          "indexed": false,
          "internalType": "uint256",
          "name": "amount",
          "type": "uint256"
        }
      ],
      "name": "UserFeeWithdrawn",
      "type": "event"
    },
    {
      "anonymous": false,
      "inputs": [
        {
          "indexed": true,
          "internalType": "address",
          "name": "sender",
          "type": "address"
        },
        {
          "indexed": false,
          "internalType": "address",
          "name": "converter",
          "type": "address"
        }
      ],
      "name": "WhitelistedConverter",
      "type": "event"
    },
    {
      "payable": true,
      "stateMutability": "payable",
      "type": "fallback"
    },
    {
      "constant": true,
      "inputs": [],
      "name": "RBTC_DUMMY_ADDRESS_FOR_CHECKPOINT",
      "outputs": [
        {
          "internalType": "address",
          "name": "",
          "type": "address"
        }
      ],
      "payable": false,
      "stateMutability": "view",
      "type": "function"
    },
    {
      "constant": false,
      "inputs": [
        {
          "internalType": "address",
          "name": "converterAddress",
          "type": "address"
        }
      ],
      "name": "addWhitelistedConverterAddress",
      "outputs": [],
      "payable": false,
      "stateMutability": "nonpayable",
      "type": "function"
    },
    {
      "constant": true,
      "inputs": [
        {
          "internalType": "address",
          "name": "_user",
          "type": "address"
        },
        {
          "internalType": "address",
          "name": "_token",
          "type": "address"
        }
      ],
      "name": "getAccumulatedFees",
      "outputs": [
        {
          "internalType": "uint256",
          "name": "",
          "type": "uint256"
        }
      ],
      "payable": false,
      "stateMutability": "view",
      "type": "function"
    },
    {
      "constant": true,
      "inputs": [
        {
          "internalType": "address",
          "name": "_user",
          "type": "address"
        },
        {
          "internalType": "address",
          "name": "_token",
          "type": "address"
        },
        {
          "internalType": "uint256",
          "name": "_startFrom",
          "type": "uint256"
        },
        {
          "internalType": "uint32",
          "name": "_maxCheckpoints",
          "type": "uint32"
        }
      ],
      "name": "getAccumulatedFeesForCheckpointsRange",
      "outputs": [
        {
          "internalType": "uint256",
          "name": "",
          "type": "uint256"
        }
      ],
      "payable": false,
      "stateMutability": "view",
      "type": "function"
    },
    {
      "constant": true,
      "inputs": [
        {
          "internalType": "address",
          "name": "_user",
          "type": "address"
        }
      ],
      "name": "getAccumulatedRBTCFeeBalances",
      "outputs": [
        {
          "internalType": "uint256",
          "name": "",
          "type": "uint256"
        }
      ],
      "payable": false,
      "stateMutability": "view",
      "type": "function"
    },
    {
      "constant": true,
      "inputs": [
        {
          "internalType": "address",
          "name": "_user",
          "type": "address"
        },
        {
          "internalType": "address",
          "name": "_token",
          "type": "address"
        },
        {
          "internalType": "uint256",
          "name": "_startFrom",
          "type": "uint256"
        },
        {
          "internalType": "uint256",
          "name": "_maxCheckpoints",
          "type": "uint256"
        }
      ],
      "name": "getNextPositiveUserCheckpoint",
      "outputs": [
        {
          "internalType": "uint256",
          "name": "checkpointNum",
          "type": "uint256"
        },
        {
          "internalType": "bool",
          "name": "hasSkippedCheckpoints",
          "type": "bool"
        },
        {
          "internalType": "bool",
          "name": "hasFees",
          "type": "bool"
        }
      ],
      "payable": false,
      "stateMutability": "view",
      "type": "function"
    },
    {
      "constant": true,
      "inputs": [],
      "name": "getWhitelistedConverterList",
      "outputs": [
        {
          "internalType": "address[]",
          "name": "converterList",
          "type": "address[]"
        }
      ],
      "payable": false,
      "stateMutability": "view",
      "type": "function"
    },
    {
      "constant": true,
      "inputs": [],
      "name": "isOwner",
      "outputs": [
        {
          "internalType": "bool",
          "name": "",
          "type": "bool"
        }
      ],
      "payable": false,
      "stateMutability": "view",
      "type": "function"
    },
    {
      "constant": true,
      "inputs": [
        {
          "internalType": "address",
          "name": "",
          "type": "address"
        }
      ],
      "name": "lastFeeWithdrawalTime",
      "outputs": [
        {
          "internalType": "uint256",
          "name": "",
          "type": "uint256"
        }
      ],
      "payable": false,
      "stateMutability": "view",
      "type": "function"
    },
    {
      "constant": true,
      "inputs": [
        {
          "internalType": "address",
          "name": "_token",
          "type": "address"
        }
      ],
      "name": "numTokenCheckpoints",
      "outputs": [
        {
          "internalType": "uint256",
          "name": "",
          "type": "uint256"
        }
      ],
      "payable": false,
      "stateMutability": "view",
      "type": "function"
    },
    {
      "constant": true,
      "inputs": [],
      "name": "owner",
      "outputs": [
        {
          "internalType": "address",
          "name": "",
          "type": "address"
        }
      ],
      "payable": false,
      "stateMutability": "view",
      "type": "function"
    },
    {
      "constant": true,
      "inputs": [
        {
          "internalType": "address",
          "name": "",
          "type": "address"
        },
        {
          "internalType": "address",
          "name": "",
          "type": "address"
        }
      ],
      "name": "processedCheckpoints",
      "outputs": [
        {
          "internalType": "uint256",
          "name": "",
          "type": "uint256"
        }
      ],
      "payable": false,
      "stateMutability": "view",
      "type": "function"
    },
    {
      "constant": true,
      "inputs": [],
      "name": "protocol",
      "outputs": [
        {
          "internalType": "contract IProtocol",
          "name": "",
          "type": "address"
        }
      ],
      "payable": false,
      "stateMutability": "view",
      "type": "function"
    },
    {
      "constant": false,
      "inputs": [
        {
          "internalType": "address",
          "name": "converterAddress",
          "type": "address"
        }
      ],
      "name": "removeWhitelistedConverterAddress",
      "outputs": [],
      "payable": false,
      "stateMutability": "nonpayable",
      "type": "function"
    },
    {
      "constant": true,
      "inputs": [],
      "name": "staking",
      "outputs": [
        {
          "internalType": "contract IStaking",
          "name": "",
          "type": "address"
        }
      ],
      "payable": false,
      "stateMutability": "view",
      "type": "function"
    },
    {
      "constant": true,
      "inputs": [
        {
          "internalType": "address",
          "name": "",
          "type": "address"
        },
        {
          "internalType": "uint256",
          "name": "",
          "type": "uint256"
        }
      ],
      "name": "tokenCheckpoints",
      "outputs": [
        {
          "internalType": "uint32",
          "name": "blockNumber",
          "type": "uint32"
        },
        {
          "internalType": "uint32",
          "name": "timestamp",
          "type": "uint32"
        },
        {
          "internalType": "uint96",
          "name": "totalWeightedStake",
          "type": "uint96"
        },
        {
          "internalType": "uint96",
          "name": "numTokens",
          "type": "uint96"
        }
      ],
      "payable": false,
      "stateMutability": "view",
      "type": "function"
    },
    {
      "constant": true,
      "inputs": [
        {
          "internalType": "address",
          "name": "",
          "type": "address"
        }
      ],
      "name": "totalTokenCheckpoints",
      "outputs": [
        {
          "internalType": "uint256",
          "name": "",
          "type": "uint256"
        }
      ],
      "payable": false,
      "stateMutability": "view",
      "type": "function"
    },
    {
      "constant": false,
      "inputs": [
        {
          "internalType": "address",
          "name": "newOwner",
          "type": "address"
        }
      ],
      "name": "transferOwnership",
      "outputs": [],
      "payable": false,
      "stateMutability": "nonpayable",
      "type": "function"
    },
    {
      "constant": false,
      "inputs": [],
      "name": "transferRBTC",
      "outputs": [],
      "payable": true,
      "stateMutability": "payable",
      "type": "function"
    },
    {
      "constant": false,
      "inputs": [
        {
          "internalType": "address",
          "name": "_token",
          "type": "address"
        },
        {
          "internalType": "uint96",
          "name": "_amount",
          "type": "uint96"
        }
      ],
      "name": "transferTokens",
      "outputs": [],
      "payable": false,
      "stateMutability": "nonpayable",
      "type": "function"
    },
    {
      "constant": true,
      "inputs": [
        {
          "internalType": "address",
          "name": "",
          "type": "address"
        }
      ],
      "name": "unprocessedAmount",
      "outputs": [
        {
          "internalType": "uint96",
          "name": "",
          "type": "uint96"
        }
      ],
      "payable": false,
      "stateMutability": "view",
      "type": "function"
    },
    {
      "constant": false,
      "inputs": [
        {
          "internalType": "address",
          "name": "_token",
          "type": "address"
        },
        {
          "internalType": "uint32",
          "name": "_maxCheckpoints",
          "type": "uint32"
        },
        {
          "internalType": "address",
          "name": "_receiver",
          "type": "address"
        }
      ],
      "name": "withdraw",
      "outputs": [],
      "payable": false,
      "stateMutability": "nonpayable",
      "type": "function"
    },
    {
      "constant": false,
      "inputs": [
        {
          "internalType": "address[]",
          "name": "_tokens",
          "type": "address[]"
        }
      ],
      "name": "withdrawFees",
      "outputs": [],
      "payable": false,
      "stateMutability": "nonpayable",
      "type": "function"
    },
    {
      "constant": false,
      "inputs": [
        {
          "internalType": "address[]",
          "name": "_converters",
          "type": "address[]"
        }
      ],
      "name": "withdrawFeesAMM",
      "outputs": [],
      "payable": false,
      "stateMutability": "nonpayable",
      "type": "function"
    },
    {
      "constant": false,
      "inputs": [
        {
          "internalType": "uint32",
          "name": "_maxCheckpoints",
          "type": "uint32"
        },
        {
          "internalType": "address",
          "name": "_receiver",
          "type": "address"
        }
      ],
      "name": "withdrawRBTC",
      "outputs": [],
      "payable": false,
      "stateMutability": "nonpayable",
      "type": "function"
    },
    {
      "constant": false,
      "inputs": [
        {
          "internalType": "uint256",
          "name": "_fromCheckpoint",
          "type": "uint256"
        },
        {
          "internalType": "uint32",
          "name": "_maxCheckpoints",
          "type": "uint32"
        },
        {
          "internalType": "address",
          "name": "_receiver",
          "type": "address"
        }
      ],
      "name": "withdrawRBTCStartingFromCheckpoint",
      "outputs": [],
      "payable": false,
      "stateMutability": "nonpayable",
      "type": "function"
    },
    {
      "constant": false,
      "inputs": [
        {
          "internalType": "address",
          "name": "_token",
          "type": "address"
        },
        {
          "internalType": "uint256",
          "name": "_fromCheckpoint",
          "type": "uint256"
        },
        {
          "internalType": "uint32",
          "name": "_maxCheckpoints",
          "type": "uint32"
        },
        {
          "internalType": "address",
          "name": "_receiver",
          "type": "address"
        }
      ],
      "name": "withdrawStartingFromCheckpoint",
      "outputs": [],
      "payable": false,
      "stateMutability": "nonpayable",
      "type": "function"
    },
    {
      "constant": false,
      "inputs": [
        {
          "internalType": "address",
          "name": "receiver",
          "type": "address"
        },
        {
          "internalType": "uint256",
          "name": "wrbtcAmount",
          "type": "uint256"
        }
      ],
      "name": "withdrawWRBTC",
      "outputs": [],
      "payable": false,
      "stateMutability": "nonpayable",
      "type": "function"
    }
  ],
  "transactionHash": "0x14017d681d11a14a929989a726fa5cae855b7dacd81fd064a6a82c05c364a1e7",
  "args": [],
  "numDeployments": 5,
  "solcInputHash": "d3b94d50c1b5d76d380e90d1b0d539ec",
  "bytecode": "0x6080604052600160085560006200001e6001600160e01b036200006e16565b600080546001600160a01b0319166001600160a01b0383169081178255604051929350917f8be0079c531659141344cd1fd0a4f28419497f9722a3daafe3b4186f6b6457e0908290a35062000072565b3390565b614be480620000826000396000f3fe6080604052600436106101b75760003560e01c80638da5cb5b116100ec578063abe979e11161008a578063c3f0eaee11610064578063c3f0eaee146104d5578063f2962cda146104f5578063f2fde38b14610515578063f3bdba8f14610535576101b7565b8063abe979e114610473578063adcf21a714610493578063c3040447146104b5576101b7565b8063a4955f2a116100c6578063a4955f2a146103f3578063a697b8c714610413578063a933651914610433578063a965b3a914610453576101b7565b80638da5cb5b1461039c5780638f32d59b146103b1578063988ba593146103d3576101b7565b80637061acf3116101595780637c8678ec116101335780637c8678ec146103185780637d0ce2b2146103385780638b6fdcba1461035a5780638ce7442614610387576101b7565b80637061acf3146102b85780637104c4ff146102d85780637913b451146102f8576101b7565b80633d67df6f116101955780633d67df6f146102265780634cf088d9146102465780635c4d9b12146102685780637053001714610288576101b7565b80631345946c146101b957806320020208146101f157806322a6fd951461021e575b005b3480156101c557600080fd5b506101d96101d4366004613713565b610555565b6040516101e893929190614734565b60405180910390f35b3480156101fd57600080fd5b5061021161020c36600461369d565b6107ed565b6040516101e89190614726565b6101b7610808565b34801561023257600080fd5b506102116102413660046136d9565b61088d565b34801561025257600080fd5b5061025b6108a8565b6040516101e89190614537565b34801561027457600080fd5b506101b76102833660046137c9565b6108b7565b34801561029457600080fd5b506102a86102a33660046137c9565b610a1a565b6040516101e89493929190614787565b3480156102c457600080fd5b506101b76102d336600461369d565b610a65565b3480156102e457600080fd5b506101b76102f336600461399c565b610b04565b34801561030457600080fd5b506102116103133660046136d9565b610eee565b34801561032457600080fd5b506101b761033336600461390d565b610f0b565b34801561034457600080fd5b5061034d611171565b6040516101e8919061443a565b34801561036657600080fd5b5061037a61037536600461369d565b611189565b6040516101e891906147d3565b34801561039357600080fd5b5061025b6111a4565b3480156103a857600080fd5b5061034d6111b3565b3480156103bd57600080fd5b506103c66111c2565b6040516101e89190614529565b3480156103df57600080fd5b506101b76103ee3660046139bd565b6111e6565b3480156103ff57600080fd5b506101b761040e36600461369d565b611220565b34801561041f57600080fd5b506101b761042e3660046138cb565b61128f565b34801561043f57600080fd5b506101b761044e3660046137f9565b6114dd565b34801561045f57600080fd5b506101b761046e36600461384e565b6118c1565b34801561047f57600080fd5b506101b761048e36600461389b565b6118fd565b34801561049f57600080fd5b506104a8611b5a565b6040516101e89190614518565b3480156104c157600080fd5b506102116104d036600461369d565b611b6b565b3480156104e157600080fd5b506102116104f0366004613774565b611ce5565b34801561050157600080fd5b5061021161051036600461369d565b611d01565b34801561052157600080fd5b506101b761053036600461369d565b611d13565b34801561054157600080fd5b5061021161055036600461369d565b611d43565b60025460405163ca6860df60e01b8152600091829182916001600160a01b03169063ca6860df9061058a908a9060040161443a565b60206040518083038186803b1580156105a257600080fd5b505afa1580156105b6573d6000803e3d6000fd5b505050506040513d601f19601f820116820180604052506105da9190810190613942565b156105ed575060009150819050806107e3565b600084116106165760405162461bcd60e51b815260040161060d906146f6565b60405180910390fd5b6001600160a01b03808716600081815260046020908152604080832054948c1683526005825280832093835292905220548181101580610654575081155b1561066857509250600091508190506107e3565b60008188116106775781610679565b875b9050600061068d828963ffffffff611d5516565b90508381106106995750825b815b818110156107d5576000600360008d6001600160a01b03166001600160a01b03168152602001908152602001600020600083815260200190815260200160002090506000600260009054906101000a90046001600160a01b03166001600160a01b03166337e6b1c18f60018560000160009054906101000a900463ffffffff16038560000160049054906101000a900463ffffffff166040518463ffffffff1660e01b815260040161074f939291906144cf565b60206040518083038186803b15801561076757600080fd5b505afa15801561077b573d6000803e3d6000fd5b505050506040513d601f19601f8201168201806040525061079f91908101906139dc565b90506001600160601b038116156107cb57826001018684116001995099509950505050505050506107e3565b505060010161069b565b509550508411925060009150505b9450945094915050565b6001600160a01b031660009081526004602052604090205490565b346001600160601b03811661082f5760405162461bcd60e51b815260040161060d90614606565b61084d60405161083e90614424565b60405190819003902082611d81565b60405160009033907f1b89874203ff7f0bba87c969ada3f32fda22ed38a6706d35199d21280c7811b1906108829085906147c5565b60405180910390a350565b60008061089d8484600080611ec5565b509150505b92915050565b6002546001600160a01b031681565b6108bf6111c2565b6108db5760405162461bcd60e51b815260040161060d90614636565b6001546040805163afe8400960e01b815290516000926001600160a01b03169163afe84009916004808301926020929190829003018186803b15801561092057600080fd5b505afa158015610934573d6000803e3d6000fd5b505050506040513d601f19601f820116820180604052506109589190810190613960565b90506000816001600160a01b03166370a08231306040518263ffffffff1660e01b81526004016109889190614448565b60206040518083038186803b1580156109a057600080fd5b505afa1580156109b4573d6000803e3d6000fd5b505050506040513d601f19601f820116820180604052506109d8919081019061397e565b9050808311156109fa5760405162461bcd60e51b815260040161060d906145e6565b610a146001600160a01b038316858563ffffffff61221c16565b50505050565b600360209081526000928352604080842090915290825290205463ffffffff80821691600160201b8104909116906001600160601b03600160401b8204811691600160a01b90041684565b610a6d6111c2565b610a895760405162461bcd60e51b815260040161060d90614636565b610a9281612275565b610aae5760405162461bcd60e51b815260040161060d90614666565b610abf60098263ffffffff6122ae16565b50336001600160a01b03167fe7902ff5b883e069d72db554511b4f7122428c996decf30682b312a66879668a82604051610af9919061443a565b60405180910390a250565b8233604051610b1290614424565b60405190819003902060018311610b3b5760405162461bcd60e51b815260040161060d90614656565b6001600160a01b038083166000908152600560209081526040808320938516835292905220546000198401908411610b855760405162461bcd60e51b815260040161060d906146a6565b6001600160a01b038216600090815260046020526040902054841115610bbd5760405162461bcd60e51b815260040161060d90614596565b610bc561354b565b506001600160a01b03808316600090815260036020908152604080832060001980870185529083528184208251608081018452905463ffffffff808216808452600160201b83049091169583018690526001600160601b03600160401b8304811684870152600160a01b909204909116606083015260025493516337e6b1c160e01b8152919693909316936337e6b1c193610c68938b93910191906004016144cf565b60206040518083038186803b158015610c8057600080fd5b505afa158015610c94573d6000803e3d6000fd5b505050506040513d601f19601f82011682018060405250610cb891908101906139dc565b90506001600160601b03811615610ce15760405162461bcd60e51b815260040161060d90614616565b610ce961354b565b506001600160a01b0380851660009081526003602090815260408083208784528252918290208251608081018452905463ffffffff808216808452600160201b83049091169383018490526001600160601b03600160401b8304811684870152600160a01b909204909116606083015260025493516337e6b1c160e01b8152919493909316926337e6b1c192610d89928b926000190191906004016144cf565b60206040518083038186803b158015610da157600080fd5b505afa158015610db5573d6000803e3d6000fd5b505050506040513d601f19601f82011682018060405250610dd991908101906139dc565b91506000826001600160601b031611610e045760405162461bcd60e51b815260040161060d906145d6565b600160085414610e265760405162461bcd60e51b815260040161060d90614686565b60026008556000610e3e8b600163ffffffff61230e16565b33600090815260056020526040808220905192935091610e5d90614424565b604051809103902060001c6001600160a01b03166001600160a01b0316815260200190815260200160002054811115610ed257336000908152600560205260408082209051839290610eae90614424565b60408051918290039091206001600160a01b03168252602082019290925201600020555b610edc8a8a612350565b50506001600855505050505050505050565b600560209081526000928352604080842090915290825290205481565b6001546040805163afe8400960e01b815290516000926001600160a01b03169163afe84009916004808301926020929190829003018186803b158015610f5057600080fd5b505afa158015610f64573d6000803e3d6000fd5b505050506040513d601f19601f82011682018060405250610f889190810190613960565b9050610f93826126af565b6000805b835181101561114d576000848281518110610fae57fe5b60200260200101516001600160a01b031663164e68de306040518263ffffffff1660e01b8152600401610fe19190614448565b602060405180830381600087803b158015610ffb57600080fd5b505af115801561100f573d6000803e3d6000fd5b505050506040513d601f19601f82011682018060405250611033919081019061397e565b9050801561114457604051632e1a7d4d60e01b81526001600160a01b03851690632e1a7d4d90611067908490600401614726565b600060405180830381600087803b15801561108157600080fd5b505af1158015611095573d6000803e3d6000fd5b5050505060006110bd826040518060800160405280604881526020016149bb60489139612706565b90506110e284826040518060800160405280604e815260200161496d604e9139612735565b93508583815181106110f057fe5b60200260200101516001600160a01b0316336001600160a01b03167fd915b7f9d8d5ce11af1f5961b830d7d7c01a750927706eb0bcbf80a8827d76cc8460405161113a9190614726565b60405180910390a3505b50600101610f97565b506001600160601b0381161561116c5761116c60405161083e90614424565b505050565b60405161117d90614424565b60405190819003902081565b6007602052600090815260409020546001600160601b031681565b6001546001600160a01b031681565b6000546001600160a01b031690565b600080546001600160a01b03166111d7612771565b6001600160a01b031614905090565b6001600854146112085760405162461bcd60e51b815260040161060d90614686565b60026008556112178282612350565b50506001600855565b6112286111c2565b6112445760405162461bcd60e51b815260040161060d90614636565b61125560098263ffffffff61277516565b50336001600160a01b03167f7b8bddb144d9ebd8a4fa3f47acac7c75b34ade822d5e528a442825fa9100ffdb82604051610af9919061443a565b60005b818110156112e7576112c38383838181106112a957fe5b90506020020160206112be919081019061369d565b612275565b6112df5760405162461bcd60e51b815260040161060d906146d6565b600101611292565b50600154604051630f7e7aab60e41b81526000916001600160a01b03169063f7e7aab09061131d908690869030906004016144f7565b602060405180830381600087803b15801561133757600080fd5b505af115801561134b573d6000803e3d6000fd5b505050506040513d601f19601f8201168201806040525061136f919081019061397e565b90506000600160009054906101000a90046001600160a01b03166001600160a01b031663afe840096040518163ffffffff1660e01b815260040160206040518083038186803b1580156113c157600080fd5b505afa1580156113d5573d6000803e3d6000fd5b505050506040513d601f19601f820116820180604052506113f99190810190613960565b9050811561149657604051632e1a7d4d60e01b81526001600160a01b03821690632e1a7d4d9061142d908590600401614726565b600060405180830381600087803b15801561144757600080fd5b505af115801561145b573d6000803e3d6000fd5b5050505060006114838360405180608001604052806045815260200161492860459139612706565b905061149460405161083e90614424565b505b336001600160a01b03167fea588ee3c471f3c47a77b5d118007e77b1d74e5b310a8805df274aa067d2e8a6836040516114cf9190614726565b60405180910390a250505050565b823385600183116115005760405162461bcd60e51b815260040161060d90614656565b6001600160a01b03808316600090815260056020908152604080832093851683529290522054600019840190841161154a5760405162461bcd60e51b815260040161060d906146a6565b6001600160a01b0382166000908152600460205260409020548411156115825760405162461bcd60e51b815260040161060d90614596565b61158a61354b565b506001600160a01b03808316600090815260036020908152604080832060001980870185529083528184208251608081018452905463ffffffff808216808452600160201b83049091169583018690526001600160601b03600160401b8304811684870152600160a01b909204909116606083015260025493516337e6b1c160e01b8152919693909316936337e6b1c19361162d938b93910191906004016144cf565b60206040518083038186803b15801561164557600080fd5b505afa158015611659573d6000803e3d6000fd5b505050506040513d601f19601f8201168201806040525061167d91908101906139dc565b90506001600160601b038116156116a65760405162461bcd60e51b815260040161060d90614616565b6116ae61354b565b506001600160a01b0380851660009081526003602090815260408083208784528252918290208251608081018452905463ffffffff808216808452600160201b83049091169383018490526001600160601b03600160401b8304811684870152600160a01b909204909116606083015260025493516337e6b1c160e01b8152919493909316926337e6b1c19261174e928b926000190191906004016144cf565b60206040518083038186803b15801561176657600080fd5b505afa15801561177a573d6000803e3d6000fd5b505050506040513d601f19601f8201168201806040525061179e91908101906139dc565b91506000826001600160601b0316116117c95760405162461bcd60e51b815260040161060d906145d6565b6001600854146117eb5760405162461bcd60e51b815260040161060d90614686565b600260085560006118038b600163ffffffff61230e16565b905060056000336001600160a01b03166001600160a01b0316815260200190815260200160002060008d6001600160a01b03166001600160a01b03168152602001908152602001600020548111156118a3578060056000336001600160a01b03166001600160a01b0316815260200190815260200160002060008e6001600160a01b03166001600160a01b03168152602001908152602001600020819055505b6118ae8c8b8b612880565b5050600160085550505050505050505050565b6001600854146118e35760405162461bcd60e51b815260040161060d90614686565b60026008556118f3838383612880565b5050600160085550565b6001600160a01b0382166119235760405162461bcd60e51b815260040161060d90614566565b6000816001600160601b03161161194c5760405162461bcd60e51b815260040161060d90614556565b6040516323b872dd60e01b81526000906001600160a01b038416906323b872dd9061197f90339030908790600401614456565b602060405180830381600087803b15801561199957600080fd5b505af11580156119ad573d6000803e3d6000fd5b505050506040513d601f19601f820116820180604052506119d19190810190613942565b9050806119f05760405162461bcd60e51b815260040161060d90614676565b6001546040805163afe8400960e01b815290516000926001600160a01b03169163afe84009916004808301926020929190829003018186803b158015611a3557600080fd5b505afa158015611a49573d6000803e3d6000fd5b505050506040513d601f19601f82011682018060405250611a6d9190810190613960565b9050806001600160a01b0316846001600160a01b03161415611aff57604051632e1a7d4d60e01b81526001600160a01b03821690632e1a7d4d90611ab59086906004016147c5565b600060405180830381600087803b158015611acf57600080fd5b505af1158015611ae3573d6000803e3d6000fd5b50505050604051611af390614424565b60405190819003902093505b611b098484611d81565b836001600160a01b0316336001600160a01b03167f1b89874203ff7f0bba87c969ada3f32fda22ed38a6706d35199d21280c7811b185604051611b4c91906147c5565b60405180910390a350505050565b6060611b666009612be3565b905090565b600080600080611b7c856000612c89565b5050509250925092506000600160009054906101000a90046001600160a01b03166001600160a01b031663afe840096040518163ffffffff1660e01b815260040160206040518083038186803b158015611bd557600080fd5b505afa158015611be9573d6000803e3d6000fd5b505050506040513d601f19601f82011682018060405250611c0d9190810190613960565b90506000611c1a82612d82565b90506000611cb7670de0b6b3a7640000611cab846001600160a01b0316637ff9b5966040518163ffffffff1660e01b815260040160206040518083038186803b158015611c6657600080fd5b505afa158015611c7a573d6000803e3d6000fd5b505050506040513d601f19601f82011682018060405250611c9e919081019061397e565b879063ffffffff612e2f16565b9063ffffffff612e6916565b9050611cd981611ccd888863ffffffff611d5516565b9063ffffffff611d5516565b98975050505050505050565b600080611cf486868686611ec5565b509150505b949350505050565b60046020526000908152604090205481565b611d1b6111c2565b611d375760405162461bcd60e51b815260040161060d90614636565b611d4081612eab565b50565b60066020526000908152604090205481565b600082820183811015611d7a5760405162461bcd60e51b815260040161060d906145b6565b9392505050565b6001600160a01b03821660009081526006602052604090205462015180429190910310611e3a576001600160a01b03821660009081526006602090815260408083204290556007825280832054815160608101909252603b808352611dfd936001600160601b03909216928692909190614a8590830139612735565b6001600160a01b038416600090815260076020526040902080546bffffffffffffffffffffffff191690559050611e348382612f2c565b50611ec1565b6001600160a01b038216600090815260076020908152604091829020548251608081019093526046808452611e85936001600160601b039092169285929190614b0690830139612735565b6001600160a01b038316600090815260076020526040902080546bffffffffffffffffffffffff19166001600160601b03929092169190911790555b5050565b60025460405163ca6860df60e01b815260009182916001600160a01b039091169063ca6860df90611efa90899060040161443a565b60206040518083038186803b158015611f1257600080fd5b505afa158015611f26573d6000803e3d6000fd5b505050506040513d601f19601f82011682018060405250611f4a9190810190613942565b15611f5a57506000905080612213565b6001600160a01b03808716600090815260056020908152604080832093891683529290529081205490818611611f905781611f92565b855b905060008563ffffffff1611611fc0576001600160a01b038716600090815260046020526040902054611fcb565b611fcb81888761319c565b6001600160a01b0388166000908152600460205260409020549093508110611ff95750600092506122139050565b600080825b8581101561220d5761200e61354b565b506001600160a01b03808b16600090815260036020908152604080832085845282528083208151608081018352905463ffffffff8082168352600160201b8204169382018490526001600160601b03600160401b8204811683850152600160a01b90910416606082015260025491516372ec979560e01b8152909491909116916372ec9795916120a1919060040161475d565b60206040518083038186803b1580156120b957600080fd5b505afa1580156120cd573d6000803e3d6000fd5b505050506040513d601f19601f820116820180604052506120f1919081019061397e565b90506000858214156121045750836121ad565b600260009054906101000a90046001600160a01b03166001600160a01b03166337e6b1c18f600186600001510386602001516040518463ffffffff1660e01b8152600401612154939291906144cf565b60206040518083038186803b15801561216c57600080fd5b505afa158015612180573d6000803e3d6000fd5b505050506040513d601f19601f820116820180604052506121a491908101906139dc565b90508094508195505b60006121e984604001516001600160601b0316611cab846001600160601b031687606001516001600160601b0316612e2f90919063ffffffff16565b90506121fb8b8263ffffffff611d5516565b9a505060019093019250611ffe915050565b50505050505b94509492505050565b60405161116c90849063a9059cbb60e01b9061223e90869086906024016144a6565b60408051601f198184030181529190526020810180516001600160e01b03166001600160e01b03199093169290921790915261325d565b6000813f7fc5d2460186f7233c927e7db2dcc703c0e500b653ca82273b7bfad8045d85a470818114801590611cf9575050151592915050565b60006122ba8383613342565b6123065750600182810180548083018083556000928352602080842090920180546001600160a01b0319166001600160a01b0387169081179091558352908590526040909120556108a2565b5060006108a2565b6000611d7a83836040518060400160405280601e81526020017f536166654d6174683a207375627472616374696f6e206f766572666c6f770000815250613360565b6000806000806000806000803390506000600160009054906101000a90046001600160a01b03166001600160a01b031663afe840096040518163ffffffff1660e01b815260040160206040518083038186803b1580156123af57600080fd5b505afa1580156123c3573d6000803e3d6000fd5b505050506040513d601f19601f820116820180604052506123e79190810190613960565b905060006123f482612d82565b90506001600160a01b038b1661240857339a505b612412838d612c89565b939e50939c50909a50985090965094508815612473576001600160a01b038316600090815260056020526040808220905189929061244f90614424565b60408051918290039091206001600160a01b03168252602082019290925201600020555b89156124f8576001600160a01b038084166000908152600560209081526040808320938616808452939091529081902088905551632e1a7d4d60e01b8152632e1a7d4d906124c5908d90600401614726565b600060405180830381600087803b1580156124df57600080fd5b505af11580156124f3573d6000803e3d6000fd5b505050505b87156125a0576001600160a01b0380841660009081526005602090815260408083209385168084529390915280822088905551630141abc160e21b8152630506af049161254b9130918d9160040161447e565b602060405180830381600087803b15801561256557600080fd5b505af1158015612579573d6000803e3d6000fd5b505050506040513d601f19601f8201168201806040525061259d919081019061397e565b93505b60006125b685611ccd8c8e63ffffffff611d5516565b9050600081116125d85760405162461bcd60e51b815260040161060d90614706565b60008c6001600160a01b0316826040516125f19061442f565b60006040518083038185875af1925050503d806000811461262e576040519150601f19603f3d011682016040523d82523d6000602084013e612633565b606091505b50509050806126545760405162461bcd60e51b815260040161060d906145a6565b8c6001600160a01b0316856001600160a01b03167fba7771603337d6821ea291d76396cf6aa3ea405141b033d8415280139c980c1d846040516126979190614726565b60405180910390a35050505050505050505050505050565b60005b8151811015611ec1576126e28282815181106126ca57fe5b6020026020010151600961334290919063ffffffff16565b6126fe5760405162461bcd60e51b815260040161060d906145c6565b6001016126b2565b600081600160601b841061272d5760405162461bcd60e51b815260040161060d9190614545565b509192915050565b6000838301826001600160601b0380871690831610156127685760405162461bcd60e51b815260040161060d9190614545565b50949350505050565b3390565b60006127818383613342565b15612306576001600160a01b0382166000908152602084905260409020546001840154600019918201910180821461282c5760008560010182815481106127c457fe5b6000918252602090912001546001870180546001600160a01b0390921692508291859081106127ef57fe5b600091825260208083209190910180546001600160a01b0319166001600160a01b0394851617905592909116815290869052604090206001830190555b6001600160a01b0384166000908152602086905260408120556001850180548061285257fe5b600082815260209020810160001990810180546001600160a01b031916905501905550600191506108a29050565b60008263ffffffff16116128a65760405162461bcd60e51b815260040161060d90614646565b6001546040805163afe8400960e01b815290516000926001600160a01b03169163afe84009916004808301926020929190829003018186803b1580156128eb57600080fd5b505afa1580156128ff573d6000803e3d6000fd5b505050506040513d601f19601f820116820180604052506129239190810190613960565b9050600061293082612d82565b9050336001600160a01b038416612945573393505b6001600160a01b038082166000908152600560209081526040808320938a16835292905290812054908061297b848a858b611ec5565b915091508160001415612a2b5782811115612a1357886001600160a01b0316336001600160a01b03167fd3d8b561a0f93295b4ea7e2b930d36bd7f1a38774547bf98fb66540f588217b285846040516129d592919061474f565b60405180910390a36001600160a01b039384166000908152600560209081526040808320968c16835295905293909320929092555061116c92505050565b60405162461bcd60e51b815260040161060d90614576565b6001600160a01b0380851660009081526005602090815260408083208d851680855292529091208390559086161415612ae757604051630141abc160e21b81526001600160a01b038a1690630506af0490612a8f908a9086906000906004016144c1565b602060405180830381600087803b158015612aa957600080fd5b505af1158015612abd573d6000803e3d6000fd5b505050506040513d601f19601f82011682018060405250612ae1919081019061397e565b50612b83565b60405163a9059cbb60e01b81526001600160a01b038a169063a9059cbb90612b15908a9086906004016144a6565b602060405180830381600087803b158015612b2f57600080fd5b505af1158015612b43573d6000803e3d6000fd5b505050506040513d601f19601f82011682018060405250612b679190810190613942565b612b835760405162461bcd60e51b815260040161060d906146b6565b886001600160a01b0316876001600160a01b0316336001600160a01b03167fe635adc5d0c2d7b47215ce5ed57a79c3db183a1ef414ccfc43f24f19178a630f85604051612bd09190614726565b60405180910390a4505050505050505050565b6060808260010180549050604051908082528060200260200182016040528015612c17578160200160208202803883390190505b50905060005b6001840154811015612c8257836001018181548110612c3857fe5b9060005260206000200160009054906101000a90046001600160a01b0316828281518110612c6257fe5b6001600160a01b0390921660209283029190910190910152600101612c1d565b5092915050565b6000806000806000806000600160009054906101000a90046001600160a01b03166001600160a01b031663afe840096040518163ffffffff1660e01b815260040160206040518083038186803b158015612ce257600080fd5b505afa158015612cf6573d6000803e3d6000fd5b505050506040513d601f19601f82011682018060405250612d1a9190810190613960565b90506000612d2782612d82565b9050612d4a8a604051612d3990614424565b60405190819003902060008c611ec5565b9098509450612d5c8a8360008c611ec5565b9097509350612d6e8a8260008c611ec5565b809450819750505050509295509295509295565b6001546040516310c59ce360e11b815260009182916001600160a01b039091169063218b39c690612db790869060040161443a565b60206040518083038186803b158015612dcf57600080fd5b505afa158015612de3573d6000803e3d6000fd5b505050506040513d601f19601f82011682018060405250612e0791908101906136bb565b90506001600160a01b0381166108a25760405162461bcd60e51b815260040161060d90614696565b600082612e3e575060006108a2565b82820282848281612e4b57fe5b0414611d7a5760405162461bcd60e51b815260040161060d90614626565b6000611d7a83836040518060400160405280601a81526020017f536166654d6174683a206469766973696f6e206279207a65726f00000000000081525061338c565b6001600160a01b038116612ed15760405162461bcd60e51b815260040161060d90614586565b600080546040516001600160a01b03808516939216917f8be0079c531659141344cd1fd0a4f28419497f9722a3daafe3b4186f6b6457e091a3600080546001600160a01b0319166001600160a01b0392909216919091179055565b6000612f5043604051806080016040528060438152602001614a03604391396133c3565b90506000612f7642604051806080016040528060468152602001614ac0604691396133c3565b6001600160a01b038516600090815260046020526040812054919250612fa06000198501426133ea565b90506000816001600160601b031611612fcb5760405162461bcd60e51b815260040161060d906146e6565b60008211801561300a57506001600160a01b03861660009081526003602090815260408083206000198601845290915290205463ffffffff8581169116145b15613079576001600160a01b03868116600090815260036020908152604080832060001987018452909152902080546001600160601b03888116600160a01b02908516600160401b026bffffffffffffffffffffffff60401b1990921691909117909216919091179055613149565b6040805160808101825263ffffffff868116825285811660208084019182526001600160601b038681168587019081528b8216606087019081526001600160a01b038e81166000818152600387528a81208d825287528a812099518a5498519551945163ffffffff19909916908a161767ffffffff000000001916600160201b9590991694909402979097176bffffffffffffffffffffffff60401b1916600160401b928516929092029190911716600160a01b9490921693909302179093559081526004909152206001830190555b856001600160a01b0316336001600160a01b03167ff61a5f2f4d0b2d871d5bf18717d08a6b0f543afa7e08dad5df1fea150f7296328760405161318c91906147c5565b60405180910390a3505050505050565b6001600160a01b038216600090815260046020526040812054806131c4576000915050611d7a565b600063ffffffff84166131d8575080613215565b6132028463ffffffff1687016040518060600160405280603f8152602001614a46603f91396133c3565b63ffffffff169050818111156132155750805b6001600160a01b03851660009081526003602090815260408083206000198501845290915290205463ffffffff164381141561325357600019909101905b5095945050505050565b61326f826001600160a01b0316612275565b61328b5760405162461bcd60e51b815260040161060d90614716565b60006060836001600160a01b0316836040516132a79190614418565b6000604051808303816000865af19150503d80600081146132e4576040519150601f19603f3d011682016040523d82523d6000602084013e6132e9565b606091505b50915091508161330b5760405162461bcd60e51b815260040161060d906145f6565b805115610a1457808060200190516133269190810190613942565b610a145760405162461bcd60e51b815260040161060d906146c6565b6001600160a01b031660009081526020919091526040902054151590565b600081848411156133845760405162461bcd60e51b815260040161060d9190614545565b505050900390565b600081836133ad5760405162461bcd60e51b815260040161060d9190614545565b5060008385816133b957fe5b0495945050505050565b600081600160201b841061272d5760405162461bcd60e51b815260040161060d9190614545565b60025460405163cdbe715560e01b815260009182916001600160a01b039091169063cdbe715590613421908790879060040161476b565b60206040518083038186803b15801561343957600080fd5b505afa15801561344d573d6000803e3d6000fd5b505050506040513d601f19601f8201168201806040525061347191908101906139dc565b6002546040516312916bdd60e11b81529192506001600160a01b031690632522d7ba906134a49087908790600401614779565b60206040518083038186803b1580156134bc57600080fd5b505afa1580156134d0573d6000803e3d6000fd5b505050506040513d601f19601f820116820180604052506134f491908101906139dc565b9150611cf98282604051806080016040528060568152602001614b4c605691396000836001600160601b0316836001600160601b0316111582906133845760405162461bcd60e51b815260040161060d9190614545565b60408051608081018252600080825260208201819052918101829052606081019190915290565b80356108a2816148e6565b80516108a2816148e6565b60008083601f84011261359a57600080fd5b50813567ffffffffffffffff8111156135b257600080fd5b6020830191508360208202830111156135ca57600080fd5b9250929050565b600082601f8301126135e257600080fd5b81356135f56135f082614808565b6147e1565b9150818183526020840193506020810190508385602084028201111561361a57600080fd5b60005b8381101561364657816136308882613572565b845250602092830192919091019060010161361d565b5050505092915050565b80516108a2816148fa565b80516108a281614903565b80356108a28161490c565b80516108a28161490c565b80356108a281614915565b80356108a28161491e565b80516108a28161491e565b6000602082840312156136af57600080fd5b6000611cf98484613572565b6000602082840312156136cd57600080fd5b6000611cf9848461357d565b600080604083850312156136ec57600080fd5b60006136f88585613572565b925050602061370985828601613572565b9150509250929050565b6000806000806080858703121561372957600080fd5b60006137358787613572565b945050602061374687828801613572565b935050604061375787828801613666565b925050606061376887828801613666565b91505092959194509250565b6000806000806080858703121561378a57600080fd5b60006137968787613572565b94505060206137a787828801613572565b93505060406137b887828801613666565b92505060606137688782880161367c565b600080604083850312156137dc57600080fd5b60006137e88585613572565b925050602061370985828601613666565b6000806000806080858703121561380f57600080fd5b600061381b8787613572565b945050602061382c87828801613666565b935050604061383d8782880161367c565b925050606061376887828801613572565b60008060006060848603121561386357600080fd5b600061386f8686613572565b93505060206138808682870161367c565b925050604061389186828701613572565b9150509250925092565b600080604083850312156138ae57600080fd5b60006138ba8585613572565b925050602061370985828601613687565b600080602083850312156138de57600080fd5b823567ffffffffffffffff8111156138f557600080fd5b61390185828601613588565b92509250509250929050565b60006020828403121561391f57600080fd5b813567ffffffffffffffff81111561393657600080fd5b611cf9848285016135d1565b60006020828403121561395457600080fd5b6000611cf98484613650565b60006020828403121561397257600080fd5b6000611cf9848461365b565b60006020828403121561399057600080fd5b6000611cf98484613671565b6000806000606084860312156139b157600080fd5b600061386f8686613666565b600080604083850312156139d057600080fd5b60006136f8858561367c565b6000602082840312156139ee57600080fd5b6000611cf98484613692565b6000613a068383613a1d565b505060200190565b613a178161488f565b82525050565b613a1781614853565b6000613a328385614836565b9350613a3d82614829565b8060005b85811015613a7357613a538284614844565b613a5d88826139fa565b9750613a688361482c565b925050600101613a41565b509495945050505050565b6000613a8982614832565b613a938185614836565b9350613a9e8361482c565b8060005b83811015613a73578151613ab688826139fa565b9750613ac18361482c565b925050600101613aa2565b613a178161485e565b6000613ae082614832565b613aea818561483f565b9350613afa8185602086016148b0565b9290920192915050565b613a1781614863565b6000613b1882614832565b613b228185614836565b9350613b328185602086016148b0565b613b3b816148dc565b9093019392505050565b6000613b52603383614836565b7f46656553686172696e67436f6c6c6563746f723a3a7472616e73666572546f6b815272195b9cce881a5b9d985b1a5908185b5bdd5b9d606a1b602082015260400192915050565b6000613ba7603483614836565b7f46656553686172696e67436f6c6c6563746f723a3a7472616e73666572546f6b815273656e733a20696e76616c6964206164647265737360601b602082015260400192915050565b6000613bfd603b83614836565b7f46656553686172696e67436f6c6c6563746f723a3a776974686472617746656581527f733a206e6f20746f6b656e7320666f72207769746864726177616c0000000000602082015260400192915050565b6000613c5c602683614836565b7f4f776e61626c653a206e6577206f776e657220697320746865207a65726f206181526564647265737360d01b602082015260400192915050565b6000613ca4603283614836565b7f5f66726f6d436865636b706f696e742073686f756c64206265203c3d20746f74815271616c546f6b656e436865636b706f696e747360701b602082015260400192915050565b6000613cf8603483614836565b7f46656553686172696e67436f6c6c6563746f723a3a776974686472617752425481527310ce8815da5d1a191c985dd85b0819985a5b195960621b602082015260400192915050565b6000613d4e601b83614836565b7f536166654d6174683a206164646974696f6e206f766572666c6f770000000000815260200192915050565b6000613d87601183614836565b7024b73b30b634b21021b7b73b32b93a32b960791b815260200192915050565b6000613db4603583614836565b7f55736572207765696768746564207374616b652073686f756c64206265203e208152740c08185d080817d99c9bdb50da1958dadc1bda5b9d605a1b602082015260400192915050565b6000613e0b601483614836565b73496e73756666696369656e742062616c616e636560601b815260200192915050565b6000613e3b602083614836565b7f5361666545524332303a206c6f772d6c6576656c2063616c6c206661696c6564815260200192915050565b6000613e74603083614836565b7f46656553686172696e67436f6c6c6563746f723a3a7472616e7366657252425481526f433a20696e76616c69642076616c756560801b602082015260400192915050565b6000613ec6603983614836565b7f55736572207765696768746564207374616b652073686f756c64206265207a6581527f726f2061742070726576696f757320636865636b706f696e7400000000000000602082015260400192915050565b6000613f25602183614836565b7f536166654d6174683a206d756c7469706c69636174696f6e206f766572666c6f8152607760f81b602082015260400192915050565b6000613f68600c83614836565b6b1d5b985d5d1a1bdc9a5e995960a21b815260200192915050565b6000613f90604183614836565b7f46656553686172696e67436f6c6c6563746f723a3a77697468647261773a205f81527f6d6178436865636b706f696e74732073686f756c6420626520706f73697469766020820152606560f81b604082015260600192915050565b6000613ff9602183614836565b7f5f66726f6d436865636b706f696e7420706172616d206d757374206265203e208152603160f81b602082015260400192915050565b600061403c601a83614836565b7f4e6f6e20636f6e7472616374206164647265737320676976656e000000000000815260200192915050565b6000614075602e83614836565b7f5374616b696e673a3a7472616e73666572546f6b656e733a20746f6b656e207481526d1c985b9cd9995c8819985a5b195960921b602082015260400192915050565b60006140c560218361483f565b7f524254435f44554d4d595f414444524553535f464f525f434845434b504f494e8152601560fa1b602082015260210192915050565b60006108a260008361483f565b6000614115600c83614836565b6b1b9bdb9499595b9d1c985b9d60a21b815260200192915050565b600061413d603383614836565b7f46656553686172696e67436f6c6c6563746f723a3a77697468647261773a206c8152721bd85b881dd4909510c81b9bdd08199bdd5b99606a1b602082015260400192915050565b6000614192603883614836565b7f5f66726f6d436865636b706f696e7420706172616d206d757374206265203e2081527f7573657250726f636573736564436865636b706f696e74730000000000000000602082015260400192915050565b60006141f1603083614836565b7f46656553686172696e67436f6c6c6563746f723a3a77697468647261773a207781526f1a5d1a191c985dd85b0819985a5b195960821b602082015260400192915050565b6000614243602a83614836565b7f5361666545524332303a204552433230206f7065726174696f6e20646964206e8152691bdd081cdd58d8d9595960b21b602082015260400192915050565b600061428f603a83614836565b7f46656553686172696e67436f6c6c6563746f723a3a776974686472617746656581527f733a20746f6b656e206973206e6f74206120636f6e7472616374000000000000602082015260400192915050565b60006142ee601a83614836565b7f496e76616c696420746f74616c57656967687465645374616b65000000000000815260200192915050565b6000614327601b83614836565b7f5f6d6178436865636b706f696e7473206d757374206265203e20300000000000815260200192915050565b6000614360603b83614836565b7f46656553686172696e67436f6c6c6563746f723a3a776974686472617746656581527f733a206e6f207262746320666f722061207769746864726177616c0000000000602082015260400192915050565b60006143bf601f83614836565b7f5361666545524332303a2063616c6c20746f206e6f6e2d636f6e747261637400815260200192915050565b613a1781614829565b613a178161489a565b613a178161487a565b613a17816148a5565b613a1781614883565b6000611d7a8284613ad5565b60006108a2826140b8565b60006108a2826140fb565b602081016108a28284613a1d565b602081016108a28284613a0e565b606081016144648286613a0e565b6144716020830185613a0e565b611cf96040830184614406565b6060810161448c8286613a0e565b61449960208301856143eb565b611cf96040830184613acc565b604081016144b48285613a1d565b611d7a60208301846143eb565b6060810161448c8286613a1d565b606081016144dd8286613a1d565b6144ea60208301856143f4565b611cf960408301846143f4565b60408082528101614509818587613a26565b9050611cf96020830184613a0e565b60208082528101611d7a8184613a7e565b602081016108a28284613acc565b602081016108a28284613b04565b60208082528101611d7a8184613b0d565b602080825281016108a281613b45565b602080825281016108a281613b9a565b602080825281016108a281613bf0565b602080825281016108a281613c4f565b602080825281016108a281613c97565b602080825281016108a281613ceb565b602080825281016108a281613d41565b602080825281016108a281613d7a565b602080825281016108a281613da7565b602080825281016108a281613dfe565b602080825281016108a281613e2e565b602080825281016108a281613e67565b602080825281016108a281613eb9565b602080825281016108a281613f18565b602080825281016108a281613f5b565b602080825281016108a281613f83565b602080825281016108a281613fec565b602080825281016108a28161402f565b602080825281016108a281614068565b602080825281016108a281614108565b602080825281016108a281614130565b602080825281016108a281614185565b602080825281016108a2816141e4565b602080825281016108a281614236565b602080825281016108a281614282565b602080825281016108a2816142e1565b602080825281016108a28161431a565b602080825281016108a281614353565b602080825281016108a2816143b2565b602081016108a282846143eb565b6060810161474282866143eb565b6144996020830185613acc565b604081016144b482856143eb565b602081016108a282846143f4565b604081016144b482856143f4565b604081016144b482856143fd565b6080810161479582876143fd565b6147a260208301866143fd565b6147af604083018561440f565b6147bc606083018461440f565b95945050505050565b602081016108a28284614406565b602081016108a2828461440f565b60405181810167ffffffffffffffff8111828210171561480057600080fd5b604052919050565b600067ffffffffffffffff82111561481f57600080fd5b5060209081020190565b90565b60200190565b5190565b90815260200190565b919050565b6000611d7a6020840184613572565b60006108a28261486e565b151590565b60006108a282614853565b6001600160a01b031690565b63ffffffff1690565b6001600160601b031690565b60006108a282614863565b60006108a28261487a565b60006108a282614883565b60005b838110156148cb5781810151838201526020016148b3565b83811115610a145750506000910152565b601f01601f191690565b6148ef81614853565b8114611d4057600080fd5b6148ef8161485e565b6148ef81614863565b6148ef81614829565b6148ef8161487a565b6148ef8161488356fe46656553686172696e67436f6c6c6563746f723a3a7769746864726177466565733a20777262746320746f6b656e20616d6f756e742065786365656473203936206269747346656553686172696e67436f6c6c6563746f723a3a776974686472617746656573414d4d3a20746f74616c20777262746320746f6b656e20616d6f756e742065786365656473203936206269747346656553686172696e67436f6c6c6563746f723a3a776974686472617746656573414d4d3a20777262746320746f6b656e20616d6f756e742065786365656473203936206269747346656553686172696e67436f6c6c6563746f723a3a5f7772697465436865636b706f696e743a20626c6f636b206e756d6265722065786365656473203332206269747346656553686172696e67436f6c6c6563746f723a3a77697468647261773a20636865636b706f696e7420696e6465782065786365656473203332206269747346656553686172696e67436f6c6c6563746f723a3a5f616464436865636b706f696e743a20616d6f756e742065786365656473203936206269747346656553686172696e67436f6c6c6563746f723a3a5f7772697465436865636b706f696e743a20626c6f636b2074696d657374616d702065786365656473203332206269747346656553686172696e67436f6c6c6563746f723a3a5f616464436865636b706f696e743a20756e70726f636573736564416d6f756e742065786365656473203936206269747346656553686172696e67436f6c6c6563746f723a3a5f676574546f74616c566f6c756e7461727957656967687465645374616b653a20766573746564207374616b65206578636565647320746f74616c207374616b65a365627a7a723158204cfb89fa3ef8df106982f7441d5728dda188c52ccdb25c06924e1bb1959058766c6578706572696d656e74616cf564736f6c63430005110040",
  "devdoc": {
    "methods": {
      "addWhitelistedConverterAddress(address)": {
        "details": "Whitelisting converter address.",
        "params": {
          "converterAddress": "converter address to be whitelisted."
        }
      },
      "getAccumulatedFees(address,address)": {
        "params": {
          "_token": "RBTC dummy to fit into existing data structure or SOV. Former address of the pool token.",
          "_user": "The address of the user or contract."
        },
        "return": "The accumulated fee for the message sender."
      },
      "getAccumulatedFeesForCheckpointsRange(address,address,uint256,uint32)": {
        "details": "This function is required to keep consistent with caching of weighted voting power when claiming fees",
        "params": {
          "_maxCheckpoints": "maxCheckpoints to get accumulated fees for the _user",
          "_startFrom": "Checkpoint to start calculating fees from.",
          "_token": "RBTC dummy to fit into existing data structure or SOV. Former address of the pool token.",
          "_user": "The address of a user (staker) or contract."
        },
        "return": "The accumulated fees rewards for the _user in the given checkpoints interval: [_startFrom, _startFrom + maxCheckpoints]."
      },
      "getAccumulatedRBTCFeeBalances(address)": {
        "details": "view function that calculate the total RBTC that includes: - RBTC - WRBTC - iWRBTC * iWRBTC.tokenPrice()",
        "params": {
          "_user": "address of the user."
        },
        "return": "rbtc balance of the given user's address."
      },
      "getNextPositiveUserCheckpoint(address,address,uint256,uint256)": {
        "details": "Returns first user's checkpoint with weighted stake > 0",
        "params": {
          "_maxCheckpoints": "Max checkpoints to process in a row to avoid timeout error",
          "_startFrom": "Checkpoint number to start from. If _startFrom < processedUserCheckpoints then starts from processedUserCheckpoints.",
          "_token": "RBTC dummy to fit into existing data structure or SOV. Former address of the pool token.",
          "_user": "The address of the user or contract."
        },
        "return": "[checkpointNum: checkpoint number where user's weighted stake > 0, hasSkippedCheckpoints, hasFees]"
      },
      "getWhitelistedConverterList()": {
        "return": "All of the whitelisted converter list."
      },
      "isOwner()": {
        "details": "Returns true if the caller is the current owner."
      },
      "numTokenCheckpoints(address)": {
        "details": "This getter function `numTokenCheckpoints` is added for backwards compatibility     broken when renamed `numTokenCheckpoints` storage variable to `totalTokenCheckpoints`.",
        "params": {
          "_token": "token address to get checkpoints for"
        },
        "return": "Total token checkpoints"
      },
      "owner()": {
        "details": "Returns the address of the current owner."
      },
      "removeWhitelistedConverterAddress(address)": {
        "details": "Removing converter address from whitelist.",
        "params": {
          "converterAddress": "converter address to be removed from whitelist."
        }
      },
      "transferOwnership(address)": {
        "details": "Transfers ownership of the contract to a new account (`newOwner`). Can only be called by the current owner."
      },
      "transferRBTC()": {
        "details": "We just write checkpoint here (based on the rbtc value that is sent) in a separate methods in order to prevent adding checkpoints too often."
      },
      "transferTokens(address,uint96)": {
        "details": "We just update amount of tokens here and write checkpoint in a separate methods in order to prevent adding checkpoints too often.",
        "params": {
          "_amount": "Amount to be transferred.",
          "_token": "Address of the token."
        }
      },
      "withdraw(address,uint32,address)": {
        "params": {
          "_maxCheckpoints": "Maximum number of checkpoints to be processed. Must be positive value.",
          "_receiver": "The receiver of tokens or msg.sender",
          "_token": "RBTC dummy to fit into existing data structure or SOV. Former address of the pool token."
        }
      },
      "withdrawFees(address[])": {
        "params": {
          "_tokens": "array address of the token"
        }
      },
      "withdrawFeesAMM(address[])": {
        "params": {
          "_converters": "array addresses of the converters"
        }
      },
      "withdrawRBTC(uint32,address)": {
        "details": "withdraw all of the RBTC balance based on particular checkpoints     * RBTC balance consists of: - rbtc balance - wrbtc balance which will be unwrapped to rbtc - iwrbtc balance which will be unwrapped to rbtc",
        "params": {
          "_maxCheckpoints": "Maximum number of checkpoints to be processed to workaround block gas limit",
          "_receiver": "An optional tokens receiver (msg.sender used if 0)"
        }
      },
      "withdrawRBTCStartingFromCheckpoint(uint256,uint32,address)": {
        "details": "Withdraw all of the RBTC balance based starting from a specific checkpoint The function was designed to skip checkpoints with no fees for users     * RBTC balance consists of: - rbtc balance - wrbtc balance which will be unwrapped to rbtc - iwrbtc balance which will be unwrapped to rbtcWARNING! This function skips all the checkpoints before '_fromCheckpoint' irreversibly, use with care",
        "params": {
          "_fromCheckpoint": "Skips all the checkpoints before '_fromCheckpoint'       should be calculated offchain with getNextPositiveUserCheckpoint function",
          "_maxCheckpoints": "Maximum number of checkpoints to be processed to workaround block gas limit",
          "_receiver": "An optional tokens receiver (msg.sender used if 0)"
        }
      },
      "withdrawStartingFromCheckpoint(address,uint256,uint32,address)": {
        "details": "WARNING! This function skips all the checkpoints before '_fromCheckpoint' irreversibly, use with care",
        "params": {
          "_fromCheckpoint": "Skips all the checkpoints before '_fromCheckpoint'       should be calculated offchain with getNextPositiveUserCheckpoint function",
          "_maxCheckpoints": "Maximum number of checkpoints to be processed.",
          "_receiver": "The receiver of tokens or msg.sender",
          "_token": "RBTC dummy to fit into existing data structure or SOV. Former address of the pool token."
        }
      }
    },
    "title": "The FeeSharingCollector contract."
  },
  "userdoc": {
    "methods": {
      "getAccumulatedFees(address,address)": {
        "notice": "Get the accumulated loan pool fee of the message sender."
      },
      "getAccumulatedFeesForCheckpointsRange(address,address,uint256,uint32)": {
        "notice": "Get the accumulated fee rewards for the message sender for a checkpoints range"
      },
      "getWhitelistedConverterList()": {
        "notice": "Getter to query all of the whitelisted converter."
      },
      "transferRBTC()": {
        "notice": "Transfer RBTC / native tokens to this contract."
      },
      "transferTokens(address,uint96)": {
        "notice": "Transfer tokens to this contract."
      },
      "withdraw(address,uint32,address)": {
        "notice": "Withdraw accumulated fee to the message sender.     * The Sovryn protocol collects fees on every trade/swap and loan. These fees will be distributed to SOV stakers based on their voting power as a percentage of total voting power. Therefore, staking more SOV and/or staking for longer will increase your share of the fees generated, meaning you will earn more from staking.     * This function will directly burnToBTC and use the msg.sender (user) as the receiver"
      },
      "withdrawFees(address[])": {
        "notice": "Withdraw fees for the given token: lendingFee + tradingFee + borrowingFee the fees (except SOV) will be converted in wRBTC form, and then will be transferred to wRBTC loan pool. For SOV, it will be directly deposited into the feeSharingCollector from the protocol."
      },
      "withdrawFeesAMM(address[])": {
        "notice": "Withdraw amm fees for the given converter addresses: protocolFee from the conversion the fees will be converted in wRBTC form, and then will be transferred to wRBTC loan pool"
      },
      "withdrawStartingFromCheckpoint(address,uint256,uint32,address)": {
        "notice": "Withdraw accumulated fee to the message sender/receiver.     * The Sovryn protocol collects fees on every trade/swap and loan. These fees will be distributed to SOV stakers based on their voting power as a percentage of total voting power.     * This function will directly burnToBTC and use the msg.sender (user) as the receiver"
      }
    },
    "notice": "This contract withdraws fees to be paid to SOV Stakers from the protocol. Stakers call withdraw() to get their share of the fees.Staking is not only granting voting rights, but also access to fee sharing according to the own voting power in relation to the total. Whenever somebody decides to collect the fees from the protocol, they get transferred to a proxy contract which invests the funds in the lending pool and keeps the pool tokens. * The fee sharing proxy will be set as feesController of the protocol contract. This allows the fee sharing proxy to withdraw the fees. The fee sharing proxy holds the pool tokens and keeps track of which user owns how many tokens. In order to know how many tokens a user owns, the fee sharing proxy needs to know the users weighted stake in relation to the total weighted stake (aka total voting power). * Because both values are subject to change, they may be different on each fee withdrawal. To be able to calculate a users share of tokens when he wants to withdraw, we need checkpoints. * This contract is intended to be set as the protocol fee collector. Anybody can invoke the withdrawFees function which uses protocol.withdrawFees to obtain available fees from operations on a certain token. These fees are deposited in the corresponding loanPool. Also, the staking contract sends slashed tokens to this contract. When a user calls the withdraw function, the contract transfers the fee sharing rewards in proportion to the users weighted stake since the last withdrawal. * The protocol initially collects fees in all tokens. Then the FeeSharingCollector wihtdraws fees from the protocol. When the fees are withdrawn all the tokens except SOV will be converted to wRBTC and then transferred to wRBTC loan pool. For SOV, it will be directly deposited into the feeSharingCollector from the protocol."
  },
  "storageLayout": {
    "storage": [
      {
        "astId": 53292,
        "contract": "contracts/governance/FeeSharingCollector/FeeSharingCollector.sol:FeeSharingCollector",
        "label": "_owner",
        "offset": 0,
        "slot": "0",
        "type": "t_address"
      },
      {
        "astId": 14443,
        "contract": "contracts/governance/FeeSharingCollector/FeeSharingCollector.sol:FeeSharingCollector",
        "label": "protocol",
        "offset": 0,
        "slot": "1",
        "type": "t_contract(IProtocol)14537"
      },
      {
        "astId": 14445,
        "contract": "contracts/governance/FeeSharingCollector/FeeSharingCollector.sol:FeeSharingCollector",
        "label": "staking",
        "offset": 0,
        "slot": "2",
        "type": "t_contract(IStaking)16876"
      },
      {
        "astId": 14451,
        "contract": "contracts/governance/FeeSharingCollector/FeeSharingCollector.sol:FeeSharingCollector",
        "label": "tokenCheckpoints",
        "offset": 0,
        "slot": "3",
        "type": "t_mapping(t_address,t_mapping(t_uint256,t_struct(Checkpoint)14478_storage))"
      },
      {
        "astId": 14455,
        "contract": "contracts/governance/FeeSharingCollector/FeeSharingCollector.sol:FeeSharingCollector",
        "label": "totalTokenCheckpoints",
        "offset": 0,
        "slot": "4",
        "type": "t_mapping(t_address,t_uint256)"
      },
      {
        "astId": 14461,
        "contract": "contracts/governance/FeeSharingCollector/FeeSharingCollector.sol:FeeSharingCollector",
        "label": "processedCheckpoints",
        "offset": 0,
        "slot": "5",
        "type": "t_mapping(t_address,t_mapping(t_address,t_uint256))"
      },
      {
        "astId": 14465,
        "contract": "contracts/governance/FeeSharingCollector/FeeSharingCollector.sol:FeeSharingCollector",
        "label": "lastFeeWithdrawalTime",
        "offset": 0,
        "slot": "6",
        "type": "t_mapping(t_address,t_uint256)"
      },
      {
        "astId": 14469,
        "contract": "contracts/governance/FeeSharingCollector/FeeSharingCollector.sol:FeeSharingCollector",
        "label": "unprocessedAmount",
        "offset": 0,
        "slot": "7",
        "type": "t_mapping(t_address,t_uint96)"
      },
      {
        "astId": 14487,
        "contract": "contracts/governance/FeeSharingCollector/FeeSharingCollector.sol:FeeSharingCollector",
        "label": "reentrancyLock",
        "offset": 0,
        "slot": "8",
        "type": "t_uint256"
      },
      {
        "astId": 14489,
        "contract": "contracts/governance/FeeSharingCollector/FeeSharingCollector.sol:FeeSharingCollector",
        "label": "whitelistedConverterList",
        "offset": 0,
        "slot": "9",
        "type": "t_struct(AddressSet)34891_storage"
      }
    ],
    "types": {
      "t_address": {
        "encoding": "inplace",
        "label": "address",
        "numberOfBytes": "20"
      },
      "t_array(t_address)dyn_storage": {
        "base": "t_address",
        "encoding": "dynamic_array",
        "label": "address[]",
        "numberOfBytes": "32"
      },
      "t_contract(IProtocol)14537": {
        "encoding": "inplace",
        "label": "contract IProtocol",
        "numberOfBytes": "20"
      },
      "t_contract(IStaking)16876": {
        "encoding": "inplace",
        "label": "contract IStaking",
        "numberOfBytes": "20"
      },
      "t_mapping(t_address,t_mapping(t_address,t_uint256))": {
        "encoding": "mapping",
        "key": "t_address",
        "label": "mapping(address => mapping(address => uint256))",
        "numberOfBytes": "32",
        "value": "t_mapping(t_address,t_uint256)"
      },
      "t_mapping(t_address,t_mapping(t_uint256,t_struct(Checkpoint)14478_storage))": {
        "encoding": "mapping",
        "key": "t_address",
        "label": "mapping(address => mapping(uint256 => struct FeeSharingCollectorStorage.Checkpoint))",
        "numberOfBytes": "32",
        "value": "t_mapping(t_uint256,t_struct(Checkpoint)14478_storage)"
      },
      "t_mapping(t_address,t_uint256)": {
        "encoding": "mapping",
        "key": "t_address",
        "label": "mapping(address => uint256)",
        "numberOfBytes": "32",
        "value": "t_uint256"
      },
      "t_mapping(t_address,t_uint96)": {
        "encoding": "mapping",
        "key": "t_address",
        "label": "mapping(address => uint96)",
        "numberOfBytes": "32",
        "value": "t_uint96"
      },
      "t_mapping(t_uint256,t_struct(Checkpoint)14478_storage)": {
        "encoding": "mapping",
        "key": "t_uint256",
        "label": "mapping(uint256 => struct FeeSharingCollectorStorage.Checkpoint)",
        "numberOfBytes": "32",
        "value": "t_struct(Checkpoint)14478_storage"
      },
      "t_struct(AddressSet)34891_storage": {
        "encoding": "inplace",
        "label": "struct EnumerableAddressSet.AddressSet",
        "members": [
          {
            "astId": 34887,
            "contract": "contracts/governance/FeeSharingCollector/FeeSharingCollector.sol:FeeSharingCollector",
            "label": "index",
            "offset": 0,
            "slot": "0",
            "type": "t_mapping(t_address,t_uint256)"
          },
          {
            "astId": 34890,
            "contract": "contracts/governance/FeeSharingCollector/FeeSharingCollector.sol:FeeSharingCollector",
            "label": "values",
            "offset": 0,
            "slot": "1",
            "type": "t_array(t_address)dyn_storage"
          }
        ],
        "numberOfBytes": "64"
      },
      "t_struct(Checkpoint)14478_storage": {
        "encoding": "inplace",
        "label": "struct FeeSharingCollectorStorage.Checkpoint",
        "members": [
          {
            "astId": 14471,
            "contract": "contracts/governance/FeeSharingCollector/FeeSharingCollector.sol:FeeSharingCollector",
            "label": "blockNumber",
            "offset": 0,
            "slot": "0",
            "type": "t_uint32"
          },
          {
            "astId": 14473,
            "contract": "contracts/governance/FeeSharingCollector/FeeSharingCollector.sol:FeeSharingCollector",
            "label": "timestamp",
            "offset": 4,
            "slot": "0",
            "type": "t_uint32"
          },
          {
            "astId": 14475,
            "contract": "contracts/governance/FeeSharingCollector/FeeSharingCollector.sol:FeeSharingCollector",
            "label": "totalWeightedStake",
            "offset": 8,
            "slot": "0",
            "type": "t_uint96"
          },
          {
            "astId": 14477,
            "contract": "contracts/governance/FeeSharingCollector/FeeSharingCollector.sol:FeeSharingCollector",
            "label": "numTokens",
            "offset": 20,
            "slot": "0",
            "type": "t_uint96"
          }
        ],
        "numberOfBytes": "32"
      },
      "t_uint256": {
        "encoding": "inplace",
        "label": "uint256",
        "numberOfBytes": "32"
      },
      "t_uint32": {
        "encoding": "inplace",
        "label": "uint32",
        "numberOfBytes": "4"
      },
      "t_uint96": {
        "encoding": "inplace",
        "label": "uint96",
        "numberOfBytes": "12"
      }
    }
  }
}