{
    "_format": "hh-sol-artifact-1",
    "contractName": "FeeSharingCollectorProxy",
    "sourceName": "contracts/governance/FeeSharingCollector/FeeSharingCollectorProxy.sol",
    "address": "0x115cAF168c51eD15ec535727F64684D33B7b08D1",
    "abi": [
        {
            "inputs": [
                {
                    "internalType": "contract IProtocol",
                    "name": "_protocol",
                    "type": "address"
                },
                {
                    "internalType": "contract IStaking",
                    "name": "_staking",
                    "type": "address"
                }
            ],
            "payable": false,
            "stateMutability": "nonpayable",
            "type": "constructor"
        },
        {
            "anonymous": false,
            "inputs": [
                {
                    "indexed": true,
                    "internalType": "address",
                    "name": "_oldImplementation",
                    "type": "address"
                },
                {
                    "indexed": true,
                    "internalType": "address",
                    "name": "_newImplementation",
                    "type": "address"
                }
            ],
            "name": "ImplementationChanged",
            "type": "event"
        },
        {
            "anonymous": false,
            "inputs": [
                {
                    "indexed": true,
                    "internalType": "address",
                    "name": "_oldOwner",
                    "type": "address"
                },
                {
                    "indexed": true,
                    "internalType": "address",
                    "name": "_newOwner",
                    "type": "address"
                }
            ],
            "name": "OwnershipTransferred",
            "type": "event"
        },
        {
            "payable": true,
            "stateMutability": "payable",
            "type": "fallback"
        },
        {
            "constant": true,
            "inputs": [],
            "name": "getImplementation",
            "outputs": [
                {
                    "internalType": "address",
                    "name": "_implementation",
                    "type": "address"
                }
            ],
            "payable": false,
            "stateMutability": "view",
            "type": "function"
        },
        {
            "constant": true,
            "inputs": [],
            "name": "getProxyOwner",
            "outputs": [
                {
                    "internalType": "address",
                    "name": "_owner",
                    "type": "address"
                }
            ],
            "payable": false,
            "stateMutability": "view",
            "type": "function"
        },
        {
            "constant": true,
            "inputs": [],
            "name": "isOwner",
            "outputs": [
                {
                    "internalType": "bool",
                    "name": "",
                    "type": "bool"
                }
            ],
            "payable": false,
            "stateMutability": "view",
            "type": "function"
        },
        {
            "constant": true,
            "inputs": [
                {
                    "internalType": "address",
                    "name": "",
                    "type": "address"
                }
            ],
            "name": "lastFeeWithdrawalTime",
            "outputs": [
                {
                    "internalType": "uint256",
                    "name": "",
                    "type": "uint256"
                }
            ],
            "payable": false,
            "stateMutability": "view",
            "type": "function"
        },
        {
            "constant": true,
            "inputs": [
                {
                    "internalType": "address",
                    "name": "",
                    "type": "address"
                }
            ],
            "name": "numTokenCheckpoints",
            "outputs": [
                {
                    "internalType": "uint256",
                    "name": "",
                    "type": "uint256"
                }
            ],
            "payable": false,
            "stateMutability": "view",
            "type": "function"
        },
        {
            "constant": true,
            "inputs": [],
            "name": "owner",
            "outputs": [
                {
                    "internalType": "address",
                    "name": "",
                    "type": "address"
                }
            ],
            "payable": false,
            "stateMutability": "view",
            "type": "function"
        },
        {
            "constant": true,
            "inputs": [
                {
                    "internalType": "address",
                    "name": "",
                    "type": "address"
                },
                {
                    "internalType": "address",
                    "name": "",
                    "type": "address"
                }
            ],
            "name": "processedCheckpoints",
            "outputs": [
                {
                    "internalType": "uint256",
                    "name": "",
                    "type": "uint256"
                }
            ],
            "payable": false,
            "stateMutability": "view",
            "type": "function"
        },
        {
            "constant": true,
            "inputs": [],
            "name": "protocol",
            "outputs": [
                {
                    "internalType": "contract IProtocol",
                    "name": "",
                    "type": "address"
                }
            ],
            "payable": false,
            "stateMutability": "view",
            "type": "function"
        },
        {
            "constant": false,
            "inputs": [
                {
                    "internalType": "address",
                    "name": "_implementation",
                    "type": "address"
                }
            ],
            "name": "setImplementation",
            "outputs": [],
            "payable": false,
            "stateMutability": "nonpayable",
            "type": "function"
        },
        {
            "constant": false,
            "inputs": [
                {
                    "internalType": "address",
                    "name": "_owner",
                    "type": "address"
                }
            ],
            "name": "setProxyOwner",
            "outputs": [],
            "payable": false,
            "stateMutability": "nonpayable",
            "type": "function"
        },
        {
            "constant": true,
            "inputs": [],
            "name": "staking",
            "outputs": [
                {
                    "internalType": "contract IStaking",
                    "name": "",
                    "type": "address"
                }
            ],
            "payable": false,
            "stateMutability": "view",
            "type": "function"
        },
        {
            "constant": true,
            "inputs": [
                {
                    "internalType": "address",
                    "name": "",
                    "type": "address"
                },
                {
                    "internalType": "uint256",
                    "name": "",
                    "type": "uint256"
                }
            ],
            "name": "tokenCheckpoints",
            "outputs": [
                {
                    "internalType": "uint32",
                    "name": "blockNumber",
                    "type": "uint32"
                },
                {
                    "internalType": "uint32",
                    "name": "timestamp",
                    "type": "uint32"
                },
                {
                    "internalType": "uint96",
                    "name": "totalWeightedStake",
                    "type": "uint96"
                },
                {
                    "internalType": "uint96",
                    "name": "numTokens",
                    "type": "uint96"
                }
            ],
            "payable": false,
            "stateMutability": "view",
            "type": "function"
        },
        {
            "constant": false,
            "inputs": [
                {
                    "internalType": "address",
                    "name": "newOwner",
                    "type": "address"
                }
            ],
            "name": "transferOwnership",
            "outputs": [],
            "payable": false,
            "stateMutability": "nonpayable",
            "type": "function"
        },
        {
            "constant": true,
            "inputs": [
                {
                    "internalType": "address",
                    "name": "",
                    "type": "address"
                }
            ],
            "name": "unprocessedAmount",
            "outputs": [
                {
                    "internalType": "uint96",
                    "name": "",
                    "type": "uint96"
                }
            ],
            "payable": false,
            "stateMutability": "view",
            "type": "function"
        }
    ],
    "bytecode": "0x6080604052600160085534801561001557600080fd5b50604051610b62380380610b628339818101604052604081101561003857600080fd5b50805160209091015160006100546001600160e01b036100cf16565b600080546001600160a01b0319166001600160a01b038316908117825560405192935091600080516020610b1d833981519152908290a35061009e336001600160e01b036100d316565b600180546001600160a01b039384166001600160a01b031991821617909155600280549290931691161790556101a5565b3390565b6001600160a01b0381166101185760405162461bcd60e51b8152600401808060200182810382526025815260200180610b3d6025913960400191505060405180910390fd5b6001600160a01b0381166101336001600160e01b0361017d16565b6001600160a01b0316600080516020610b1d83398151915260405160405180910390a3604080516e35b2bc97383937bc3c9737bbb732b960891b8152905190819003600f01902055565b604080516e35b2bc97383937bc3c9737bbb732b960891b8152905190819003600f0190205490565b610969806101b46000396000f3fe6080604052600436106100dd5760003560e01c80638da5cb5b1161007f578063caaee91c11610059578063caaee91c14610341578063d784d42614610376578063f2fde38b146103a9578063f3bdba8f146103dc576100dd565b80638da5cb5b146102ee5780638f32d59b14610303578063aaf10f421461032c576100dd565b806370530017116100bb57806370530017146101de5780637913b4511461024f5780638b6fdcba1461028a5780638ce74426146102d9576100dd565b80631ab7710d1461015357806320020208146101845780634cf088d9146101c9575b60006100e761040f565b90506001600160a01b03811661012e5760405162461bcd60e51b81526004018080602001828103825260238152602001806108ed6023913960400191505060405180910390fd5b60405136600082376000803683855af43d806000843e81801561014f578184f35b8184fd5b34801561015f57600080fd5b5061016861043a565b604080516001600160a01b039092168252519081900360200190f35b34801561019057600080fd5b506101b7600480360360208110156101a757600080fd5b50356001600160a01b0316610462565b60408051918252519081900360200190f35b3480156101d557600080fd5b50610168610474565b3480156101ea57600080fd5b506102176004803603604081101561020157600080fd5b506001600160a01b038135169060200135610483565b6040805163ffffffff95861681529390941660208401526001600160601b039182168385015216606082015290519081900360800190f35b34801561025b57600080fd5b506101b76004803603604081101561027257600080fd5b506001600160a01b03813581169160200135166104d4565b34801561029657600080fd5b506102bd600480360360208110156102ad57600080fd5b50356001600160a01b03166104f1565b604080516001600160601b039092168252519081900360200190f35b3480156102e557600080fd5b5061016861050c565b3480156102fa57600080fd5b5061016861051b565b34801561030f57600080fd5b5061031861052a565b604080519115158252519081900360200190f35b34801561033857600080fd5b5061016861040f565b34801561034d57600080fd5b506103746004803603602081101561036457600080fd5b50356001600160a01b031661054e565b005b34801561038257600080fd5b506103746004803603602081101561039957600080fd5b50356001600160a01b03166105bf565b3480156103b557600080fd5b50610374600480360360208110156103cc57600080fd5b50356001600160a01b031661062d565b3480156103e857600080fd5b506101b7600480360360208110156103ff57600080fd5b50356001600160a01b031661067e565b604080517135b2bc9734b6b83632b6b2b73a30ba34b7b760711b815290519081900360120190205490565b604080516e35b2bc97383937bc3c9737bbb732b960891b8152905190819003600f0190205490565b60046020526000908152604090205481565b6002546001600160a01b031681565b600360209081526000928352604080842090915290825290205463ffffffff808216916401000000008104909116906001600160601b03680100000000000000008204811691600160a01b90041684565b600560209081526000928352604080842090915290825290205481565b6007602052600090815260409020546001600160601b031681565b6001546001600160a01b031681565b6000546001600160a01b031690565b600080546001600160a01b031661053f610690565b6001600160a01b031614905090565b61055661043a565b6001600160a01b0316336001600160a01b0316146105b3576040805162461bcd60e51b8152602060048201526015602482015274141c9bde1e4e8e881858d8d95cdcc819195b9a5959605a1b604482015290519081900360640190fd5b6105bc81610694565b50565b6105c761043a565b6001600160a01b0316336001600160a01b031614610624576040805162461bcd60e51b8152602060048201526015602482015274141c9bde1e4e8e881858d8d95cdcc819195b9a5959605a1b604482015290519081900360640190fd5b6105bc81610747565b61063561052a565b610675576040805162461bcd60e51b815260206004820152600c60248201526b1d5b985d5d1a1bdc9a5e995960a21b604482015290519081900360640190fd5b6105bc816107fd565b60066020526000908152604090205481565b3390565b6001600160a01b0381166106d95760405162461bcd60e51b81526004018080602001828103825260258152602001806109106025913960400191505060405180910390fd5b806001600160a01b03166106eb61043a565b6001600160a01b03167f8be0079c531659141344cd1fd0a4f28419497f9722a3daafe3b4186f6b6457e060405160405180910390a3604080516e35b2bc97383937bc3c9737bbb732b960891b8152905190819003600f01902055565b6001600160a01b03811661078c5760405162461bcd60e51b81526004018080602001828103825260298152602001806108c46029913960400191505060405180910390fd5b806001600160a01b031661079e61040f565b6001600160a01b03167fcfbf4028add9318bbf716f08c348595afb063b0e9feed1f86d33681a4b3ed4d360405160405180910390a3604080517135b2bc9734b6b83632b6b2b73a30ba34b7b760711b8152905190819003601201902055565b6001600160a01b0381166108425760405162461bcd60e51b815260040180806020018281038252602681526020018061089e6026913960400191505060405180910390fd5b600080546040516001600160a01b03808516939216917f8be0079c531659141344cd1fd0a4f28419497f9722a3daafe3b4186f6b6457e091a3600080546001600160a01b0319166001600160a01b039290921691909117905556fe4f776e61626c653a206e6577206f776e657220697320746865207a65726f206164647265737350726f78793a3a736574496d706c656d656e746174696f6e3a20696e76616c6964206164647265737350726f78793a3a28293a20696d706c656d656e746174696f6e206e6f7420666f756e6450726f78793a3a73657450726f78794f776e65723a20696e76616c69642061646472657373a265627a7a72315820a130f8b448c268de9c9f8a61fc185ef38884964c1e017cd97279f054d70a3fc064736f6c634300051100328be0079c531659141344cd1fd0a4f28419497f9722a3daafe3b4186f6b6457e050726f78793a3a73657450726f78794f776e65723a20696e76616c69642061646472657373",
    "linkReferences": {},
    "deployedLinkReferences": {}
}