{
  "address": "0xf730af26e87D9F55E46A6C447ED2235C385E55e0",
  "abi": [
    {
      "anonymous": false,
      "inputs": [
        {
          "indexed": false,
          "internalType": "address",
          "name": "admin",
          "type": "address"
        }
      ],
      "name": "AdminAdded",
      "type": "event"
    },
    {
      "anonymous": false,
      "inputs": [
        {
          "indexed": false,
          "internalType": "address",
          "name": "admin",
          "type": "address"
        }
      ],
      "name": "AdminRemoved",
      "type": "event"
    },
    {
      "anonymous": false,
      "inputs": [
        {
          "indexed": true,
          "internalType": "address",
          "name": "user",
          "type": "address"
        },
        {
          "indexed": true,
          "internalType": "address",
          "name": "poolToken",
          "type": "address"
        },
        {
          "indexed": false,
          "internalType": "uint256",
          "name": "amount",
          "type": "uint256"
        }
      ],
      "name": "Deposit",
      "type": "event"
    },
    {
      "anonymous": false,
      "inputs": [
        {
          "indexed": true,
          "internalType": "address",
          "name": "user",
          "type": "address"
        },
        {
          "indexed": true,
          "internalType": "address",
          "name": "poolToken",
          "type": "address"
        },
        {
          "indexed": false,
          "internalType": "uint256",
          "name": "amount",
          "type": "uint256"
        },
        {
          "indexed": false,
          "internalType": "uint256",
          "name": "accumulatedReward",
          "type": "uint256"
        }
      ],
      "name": "EmergencyWithdraw",
      "type": "event"
    },
    {
      "anonymous": false,
      "inputs": [
        {
          "indexed": true,
          "internalType": "address",
          "name": "previousOwner",
          "type": "address"
        },
        {
          "indexed": true,
          "internalType": "address",
          "name": "newOwner",
          "type": "address"
        }
      ],
      "name": "OwnershipTransferred",
      "type": "event"
    },
    {
      "anonymous": false,
      "inputs": [
        {
          "indexed": true,
          "internalType": "address",
          "name": "user",
          "type": "address"
        },
        {
          "indexed": true,
          "internalType": "address",
          "name": "poolToken",
          "type": "address"
        },
        {
          "indexed": false,
          "internalType": "uint256",
          "name": "allocationPoint",
          "type": "uint256"
        }
      ],
      "name": "PoolTokenAdded",
      "type": "event"
    },
    {
      "anonymous": false,
      "inputs": [
        {
          "indexed": true,
          "internalType": "address",
          "name": "user",
          "type": "address"
        },
        {
          "indexed": true,
          "internalType": "address",
          "name": "poolToken",
          "type": "address"
        },
        {
          "indexed": false,
          "internalType": "uint256",
          "name": "newAllocationPoint",
          "type": "uint256"
        },
        {
          "indexed": false,
          "internalType": "uint256",
          "name": "oldAllocationPoint",
          "type": "uint256"
        }
      ],
      "name": "PoolTokenUpdated",
      "type": "event"
    },
    {
      "anonymous": false,
      "inputs": [
        {
          "indexed": true,
          "internalType": "address",
          "name": "user",
          "type": "address"
        },
        {
          "indexed": true,
          "internalType": "address",
          "name": "poolToken",
          "type": "address"
        },
        {
          "indexed": false,
          "internalType": "uint256",
          "name": "amount",
          "type": "uint256"
        }
      ],
      "name": "RewardClaimed",
      "type": "event"
    },
    {
      "anonymous": false,
      "inputs": [
        {
          "indexed": true,
          "internalType": "address",
          "name": "receiver",
          "type": "address"
        },
        {
          "indexed": false,
          "internalType": "uint256",
          "name": "amount",
          "type": "uint256"
        }
      ],
      "name": "SOVTransferred",
      "type": "event"
    },
    {
      "anonymous": false,
      "inputs": [
        {
          "indexed": true,
          "internalType": "address",
          "name": "user",
          "type": "address"
        },
        {
          "indexed": true,
          "internalType": "address",
          "name": "poolToken",
          "type": "address"
        },
        {
          "indexed": false,
          "internalType": "uint256",
          "name": "amount",
          "type": "uint256"
        }
      ],
      "name": "Withdraw",
      "type": "event"
    },
    {
      "constant": true,
      "inputs": [],
      "name": "BONUS_BLOCK_MULTIPLIER",
      "outputs": [
        {
          "internalType": "uint256",
          "name": "",
          "type": "uint256"
        }
      ],
      "payable": false,
      "stateMutability": "view",
      "type": "function"
    },
    {
      "constant": true,
      "inputs": [],
      "name": "PRECISION",
      "outputs": [
        {
          "internalType": "uint256",
          "name": "",
          "type": "uint256"
        }
      ],
      "payable": false,
      "stateMutability": "view",
      "type": "function"
    },
    {
      "constant": true,
      "inputs": [],
      "name": "SECONDS_PER_BLOCK",
      "outputs": [
        {
          "internalType": "uint256",
          "name": "",
          "type": "uint256"
        }
      ],
      "payable": false,
      "stateMutability": "view",
      "type": "function"
    },
    {
      "constant": true,
      "inputs": [],
      "name": "SOV",
      "outputs": [
        {
          "internalType": "contract IERC20",
          "name": "",
          "type": "address"
        }
      ],
      "payable": false,
      "stateMutability": "view",
      "type": "function"
    },
    {
      "constant": false,
      "inputs": [
        {
          "internalType": "address",
          "name": "_poolToken",
          "type": "address"
        },
        {
          "internalType": "uint96",
          "name": "_allocationPoint",
          "type": "uint96"
        },
        {
          "internalType": "bool",
          "name": "_withUpdate",
          "type": "bool"
        }
      ],
      "name": "add",
      "outputs": [],
      "payable": false,
      "stateMutability": "nonpayable",
      "type": "function"
    },
    {
      "constant": false,
      "inputs": [
        {
          "internalType": "address",
          "name": "_admin",
          "type": "address"
        }
      ],
      "name": "addAdmin",
      "outputs": [],
      "payable": false,
      "stateMutability": "nonpayable",
      "type": "function"
    },
    {
      "constant": true,
      "inputs": [
        {
          "internalType": "address",
          "name": "",
          "type": "address"
        }
      ],
      "name": "admins",
      "outputs": [
        {
          "internalType": "bool",
          "name": "",
          "type": "bool"
        }
      ],
      "payable": false,
      "stateMutability": "view",
      "type": "function"
    },
    {
      "constant": true,
      "inputs": [],
      "name": "bonusEndBlock",
      "outputs": [
        {
          "internalType": "uint256",
          "name": "",
          "type": "uint256"
        }
      ],
      "payable": false,
      "stateMutability": "view",
      "type": "function"
    },
    {
      "constant": true,
      "inputs": [
        {
          "internalType": "address",
          "name": "_poolToken",
          "type": "address"
        }
      ],
      "name": "calcUnlockedImmediatelyPercent",
      "outputs": [
        {
          "internalType": "uint256",
          "name": "",
          "type": "uint256"
        }
      ],
      "payable": false,
      "stateMutability": "view",
      "type": "function"
    },
    {
      "constant": false,
      "inputs": [
        {
          "internalType": "address",
          "name": "_poolToken",
          "type": "address"
        },
        {
          "internalType": "address",
          "name": "_user",
          "type": "address"
        }
      ],
      "name": "claimReward",
      "outputs": [],
      "payable": false,
      "stateMutability": "nonpayable",
      "type": "function"
    },
    {
      "constant": false,
      "inputs": [
        {
          "internalType": "address",
          "name": "_user",
          "type": "address"
        }
      ],
      "name": "claimRewardFromAllPools",
      "outputs": [],
      "payable": false,
      "stateMutability": "nonpayable",
      "type": "function"
    },
    {
      "constant": false,
      "inputs": [
        {
          "internalType": "address",
          "name": "_poolToken",
          "type": "address"
        },
        {
          "internalType": "uint256",
          "name": "_amount",
          "type": "uint256"
        },
        {
          "internalType": "address",
          "name": "_user",
          "type": "address"
        }
      ],
      "name": "deposit",
      "outputs": [],
      "payable": false,
      "stateMutability": "nonpayable",
      "type": "function"
    },
    {
      "constant": false,
      "inputs": [
        {
          "internalType": "address",
          "name": "_poolToken",
          "type": "address"
        }
      ],
      "name": "emergencyWithdraw",
      "outputs": [],
      "payable": false,
      "stateMutability": "nonpayable",
      "type": "function"
    },
    {
      "constant": true,
      "inputs": [],
      "name": "endBlock",
      "outputs": [
        {
          "internalType": "uint256",
          "name": "",
          "type": "uint256"
        }
      ],
      "payable": false,
      "stateMutability": "view",
      "type": "function"
    },
    {
      "constant": true,
      "inputs": [
        {
          "internalType": "address",
          "name": "_poolToken",
          "type": "address"
        },
        {
          "internalType": "uint256",
          "name": "_amount",
          "type": "uint256"
        },
        {
          "internalType": "uint256",
          "name": "_duration",
          "type": "uint256"
        }
      ],
      "name": "getEstimatedReward",
      "outputs": [
        {
          "internalType": "uint256",
          "name": "",
          "type": "uint256"
        }
      ],
      "payable": false,
      "stateMutability": "view",
      "type": "function"
    },
    {
      "constant": true,
      "inputs": [],
      "name": "getMissedBalance",
      "outputs": [
        {
          "internalType": "uint256",
          "name": "",
          "type": "uint256"
        }
      ],
      "payable": false,
      "stateMutability": "view",
      "type": "function"
    },
    {
      "constant": true,
      "inputs": [
        {
          "internalType": "address",
          "name": "_poolToken",
          "type": "address"
        }
      ],
      "name": "getPoolId",
      "outputs": [
        {
          "internalType": "uint256",
          "name": "",
          "type": "uint256"
        }
      ],
      "payable": false,
      "stateMutability": "view",
      "type": "function"
    },
    {
      "constant": true,
      "inputs": [
        {
          "internalType": "address",
          "name": "_poolToken",
          "type": "address"
        }
      ],
      "name": "getPoolInfo",
      "outputs": [
        {
          "components": [
            {
              "internalType": "contract IERC20",
              "name": "poolToken",
              "type": "address"
            },
            {
              "internalType": "uint96",
              "name": "allocationPoint",
              "type": "uint96"
            },
            {
              "internalType": "uint256",
              "name": "lastRewardBlock",
              "type": "uint256"
            },
            {
              "internalType": "uint256",
              "name": "accumulatedRewardPerShare",
              "type": "uint256"
            }
          ],
          "internalType": "struct LiquidityMiningStorage.PoolInfo",
          "name": "",
          "type": "tuple"
        }
      ],
      "payable": false,
      "stateMutability": "view",
      "type": "function"
    },
    {
      "constant": true,
      "inputs": [],
      "name": "getPoolInfoList",
      "outputs": [
        {
          "components": [
            {
              "internalType": "contract IERC20",
              "name": "poolToken",
              "type": "address"
            },
            {
              "internalType": "uint96",
              "name": "allocationPoint",
              "type": "uint96"
            },
            {
              "internalType": "uint256",
              "name": "lastRewardBlock",
              "type": "uint256"
            },
            {
              "internalType": "uint256",
              "name": "accumulatedRewardPerShare",
              "type": "uint256"
            }
          ],
          "internalType": "struct LiquidityMiningStorage.PoolInfo[]",
          "name": "",
          "type": "tuple[]"
        }
      ],
      "payable": false,
      "stateMutability": "view",
      "type": "function"
    },
    {
      "constant": true,
      "inputs": [],
      "name": "getPoolLength",
      "outputs": [
        {
          "internalType": "uint256",
          "name": "",
          "type": "uint256"
        }
      ],
      "payable": false,
      "stateMutability": "view",
      "type": "function"
    },
    {
      "constant": true,
      "inputs": [
        {
          "internalType": "address",
          "name": "_poolToken",
          "type": "address"
        },
        {
          "internalType": "address",
          "name": "_user",
          "type": "address"
        }
      ],
      "name": "getUserAccumulatedReward",
      "outputs": [
        {
          "internalType": "uint256",
          "name": "",
          "type": "uint256"
        }
      ],
      "payable": false,
      "stateMutability": "view",
      "type": "function"
    },
    {
      "constant": true,
      "inputs": [
        {
          "internalType": "address",
          "name": "_user",
          "type": "address"
        }
      ],
      "name": "getUserAccumulatedRewardList",
      "outputs": [
        {
          "internalType": "uint256[]",
          "name": "",
          "type": "uint256[]"
        }
      ],
      "payable": false,
      "stateMutability": "view",
      "type": "function"
    },
    {
      "constant": true,
      "inputs": [
        {
          "internalType": "address",
          "name": "_user",
          "type": "address"
        }
      ],
      "name": "getUserAccumulatedRewardToBePaidLiquid",
      "outputs": [
        {
          "internalType": "uint256",
          "name": "",
          "type": "uint256"
        }
      ],
      "payable": false,
      "stateMutability": "view",
      "type": "function"
    },
    {
      "constant": true,
      "inputs": [
        {
          "internalType": "address",
          "name": "_user",
          "type": "address"
        }
      ],
      "name": "getUserAccumulatedRewardToBeVested",
      "outputs": [
        {
          "internalType": "uint256",
          "name": "",
          "type": "uint256"
        }
      ],
      "payable": false,
      "stateMutability": "view",
      "type": "function"
    },
    {
      "constant": true,
      "inputs": [
        {
          "internalType": "address",
          "name": "_user",
          "type": "address"
        }
      ],
      "name": "getUserBalanceList",
      "outputs": [
        {
          "internalType": "uint256[2][]",
          "name": "",
          "type": "uint256[2][]"
        }
      ],
      "payable": false,
      "stateMutability": "view",
      "type": "function"
    },
    {
      "constant": true,
      "inputs": [
        {
          "internalType": "address",
          "name": "_poolToken",
          "type": "address"
        },
        {
          "internalType": "address",
          "name": "_user",
          "type": "address"
        }
      ],
      "name": "getUserInfo",
      "outputs": [
        {
          "components": [
            {
              "internalType": "uint256",
              "name": "amount",
              "type": "uint256"
            },
            {
              "internalType": "uint256",
              "name": "rewardDebt",
              "type": "uint256"
            },
            {
              "internalType": "uint256",
              "name": "accumulatedReward",
              "type": "uint256"
            }
          ],
          "internalType": "struct LiquidityMiningStorage.UserInfo",
          "name": "",
          "type": "tuple"
        }
      ],
      "payable": false,
      "stateMutability": "view",
      "type": "function"
    },
    {
      "constant": true,
      "inputs": [
        {
          "internalType": "address",
          "name": "_user",
          "type": "address"
        }
      ],
      "name": "getUserInfoList",
      "outputs": [
        {
          "components": [
            {
              "internalType": "uint256",
              "name": "amount",
              "type": "uint256"
            },
            {
              "internalType": "uint256",
              "name": "rewardDebt",
              "type": "uint256"
            },
            {
              "internalType": "uint256",
              "name": "accumulatedReward",
              "type": "uint256"
            }
          ],
          "internalType": "struct LiquidityMiningStorage.UserInfo[]",
          "name": "",
          "type": "tuple[]"
        }
      ],
      "payable": false,
      "stateMutability": "view",
      "type": "function"
    },
    {
      "constant": true,
      "inputs": [
        {
          "internalType": "address",
          "name": "_poolToken",
          "type": "address"
        },
        {
          "internalType": "address",
          "name": "_user",
          "type": "address"
        }
      ],
      "name": "getUserPoolTokenBalance",
      "outputs": [
        {
          "internalType": "uint256",
          "name": "",
          "type": "uint256"
        }
      ],
      "payable": false,
      "stateMutability": "view",
      "type": "function"
    },
    {
      "constant": false,
      "inputs": [
        {
          "internalType": "contract IERC20",
          "name": "_SOV",
          "type": "address"
        },
        {
          "internalType": "uint256",
          "name": "_rewardTokensPerBlock",
          "type": "uint256"
        },
        {
          "internalType": "uint256",
          "name": "_startDelayBlocks",
          "type": "uint256"
        },
        {
          "internalType": "uint256",
          "name": "_numberOfBonusBlocks",
          "type": "uint256"
        },
        {
          "internalType": "address",
          "name": "_wrapper",
          "type": "address"
        },
        {
          "internalType": "contract ILockedSOV",
          "name": "_lockedSOV",
          "type": "address"
        },
        {
          "internalType": "uint256",
          "name": "_unlockedImmediatelyPercent",
          "type": "uint256"
        }
      ],
      "name": "initialize",
      "outputs": [],
      "payable": false,
      "stateMutability": "nonpayable",
      "type": "function"
    },
    {
      "constant": true,
      "inputs": [],
      "name": "isOwner",
      "outputs": [
        {
          "internalType": "bool",
          "name": "",
          "type": "bool"
        }
      ],
      "payable": false,
      "stateMutability": "view",
      "type": "function"
    },
    {
      "constant": true,
      "inputs": [],
      "name": "lockedSOV",
      "outputs": [
        {
          "internalType": "contract ILockedSOV",
          "name": "",
          "type": "address"
        }
      ],
      "payable": false,
      "stateMutability": "view",
      "type": "function"
    },
    {
      "constant": false,
      "inputs": [
        {
          "internalType": "address",
          "name": "_user",
          "type": "address"
        },
        {
          "internalType": "uint256",
          "name": "_amount",
          "type": "uint256"
        }
      ],
      "name": "onTokensDeposited",
      "outputs": [],
      "payable": false,
      "stateMutability": "nonpayable",
      "type": "function"
    },
    {
      "constant": true,
      "inputs": [],
      "name": "owner",
      "outputs": [
        {
          "internalType": "address",
          "name": "",
          "type": "address"
        }
      ],
      "payable": false,
      "stateMutability": "view",
      "type": "function"
    },
    {
      "constant": true,
      "inputs": [
        {
          "internalType": "uint256",
          "name": "",
          "type": "uint256"
        }
      ],
      "name": "poolInfoList",
      "outputs": [
        {
          "internalType": "contract IERC20",
          "name": "poolToken",
          "type": "address"
        },
        {
          "internalType": "uint96",
          "name": "allocationPoint",
          "type": "uint96"
        },
        {
          "internalType": "uint256",
          "name": "lastRewardBlock",
          "type": "uint256"
        },
        {
          "internalType": "uint256",
          "name": "accumulatedRewardPerShare",
          "type": "uint256"
        }
      ],
      "payable": false,
      "stateMutability": "view",
      "type": "function"
    },
    {
      "constant": true,
      "inputs": [
        {
          "internalType": "address",
          "name": "",
          "type": "address"
        }
      ],
      "name": "poolTokensUnlockedImmediatelyPercent",
      "outputs": [
        {
          "internalType": "uint256",
          "name": "",
          "type": "uint256"
        }
      ],
      "payable": false,
      "stateMutability": "view",
      "type": "function"
    },
    {
      "constant": false,
      "inputs": [
        {
          "internalType": "address",
          "name": "_admin",
          "type": "address"
        }
      ],
      "name": "removeAdmin",
      "outputs": [],
      "payable": false,
      "stateMutability": "nonpayable",
      "type": "function"
    },
    {
      "constant": true,
      "inputs": [],
      "name": "rewardTokensPerBlock",
      "outputs": [
        {
          "internalType": "uint256",
          "name": "",
          "type": "uint256"
        }
      ],
      "payable": false,
      "stateMutability": "view",
      "type": "function"
    },
    {
      "constant": false,
      "inputs": [
        {
          "internalType": "contract ILockedSOV",
          "name": "_lockedSOV",
          "type": "address"
        }
      ],
      "name": "setLockedSOV",
      "outputs": [],
      "payable": false,
      "stateMutability": "nonpayable",
      "type": "function"
    },
    {
      "constant": false,
      "inputs": [
        {
          "internalType": "address",
          "name": "_poolToken",
          "type": "address"
        },
        {
          "internalType": "uint256",
          "name": "_poolTokenUnlockedImmediatelyPercent",
          "type": "uint256"
        }
      ],
      "name": "setPoolTokenUnlockedImmediatelyPercent",
      "outputs": [],
      "payable": false,
      "stateMutability": "nonpayable",
      "type": "function"
    },
    {
      "constant": false,
      "inputs": [
        {
          "internalType": "uint256",
          "name": "_unlockedImmediatelyPercent",
          "type": "uint256"
        }
      ],
      "name": "setUnlockedImmediatelyPercent",
      "outputs": [],
      "payable": false,
      "stateMutability": "nonpayable",
      "type": "function"
    },
    {
      "constant": false,
      "inputs": [
        {
          "internalType": "address",
          "name": "_wrapper",
          "type": "address"
        }
      ],
      "name": "setWrapper",
      "outputs": [],
      "payable": false,
      "stateMutability": "nonpayable",
      "type": "function"
    },
    {
      "constant": true,
      "inputs": [],
      "name": "startBlock",
      "outputs": [
        {
          "internalType": "uint256",
          "name": "",
          "type": "uint256"
        }
      ],
      "payable": false,
      "stateMutability": "view",
      "type": "function"
    },
    {
      "constant": false,
      "inputs": [],
      "name": "stopMining",
      "outputs": [],
      "payable": false,
      "stateMutability": "nonpayable",
      "type": "function"
    },
    {
      "constant": true,
      "inputs": [],
      "name": "totalAllocationPoint",
      "outputs": [
        {
          "internalType": "uint256",
          "name": "",
          "type": "uint256"
        }
      ],
      "payable": false,
      "stateMutability": "view",
      "type": "function"
    },
    {
      "constant": true,
      "inputs": [],
      "name": "totalUsersBalance",
      "outputs": [
        {
          "internalType": "uint256",
          "name": "",
          "type": "uint256"
        }
      ],
      "payable": false,
      "stateMutability": "view",
      "type": "function"
    },
    {
      "constant": false,
      "inputs": [
        {
          "internalType": "address",
          "name": "newOwner",
          "type": "address"
        }
      ],
      "name": "transferOwnership",
      "outputs": [],
      "payable": false,
      "stateMutability": "nonpayable",
      "type": "function"
    },
    {
      "constant": false,
      "inputs": [
        {
          "internalType": "address",
          "name": "_receiver",
          "type": "address"
        },
        {
          "internalType": "uint256",
          "name": "_amount",
          "type": "uint256"
        }
      ],
      "name": "transferSOV",
      "outputs": [],
      "payable": false,
      "stateMutability": "nonpayable",
      "type": "function"
    },
    {
      "constant": true,
      "inputs": [],
      "name": "unlockedImmediatelyPercent",
      "outputs": [
        {
          "internalType": "uint256",
          "name": "",
          "type": "uint256"
        }
      ],
      "payable": false,
      "stateMutability": "view",
      "type": "function"
    },
    {
      "constant": false,
      "inputs": [
        {
          "internalType": "address",
          "name": "_poolToken",
          "type": "address"
        },
        {
          "internalType": "uint96",
          "name": "_allocationPoint",
          "type": "uint96"
        },
        {
          "internalType": "bool",
          "name": "_updateAllFlag",
          "type": "bool"
        }
      ],
      "name": "update",
      "outputs": [],
      "payable": false,
      "stateMutability": "nonpayable",
      "type": "function"
    },
    {
      "constant": false,
      "inputs": [],
      "name": "updateAllPools",
      "outputs": [],
      "payable": false,
      "stateMutability": "nonpayable",
      "type": "function"
    },
    {
      "constant": false,
      "inputs": [
        {
          "internalType": "address",
          "name": "_poolToken",
          "type": "address"
        }
      ],
      "name": "updatePool",
      "outputs": [],
      "payable": false,
      "stateMutability": "nonpayable",
      "type": "function"
    },
    {
      "constant": false,
      "inputs": [
        {
          "internalType": "address[]",
          "name": "_poolTokens",
          "type": "address[]"
        },
        {
          "internalType": "uint96[]",
          "name": "_allocationPoints",
          "type": "uint96[]"
        },
        {
          "internalType": "bool",
          "name": "_updateAllFlag",
          "type": "bool"
        }
      ],
      "name": "updateTokens",
      "outputs": [],
      "payable": false,
      "stateMutability": "nonpayable",
      "type": "function"
    },
    {
      "constant": true,
      "inputs": [
        {
          "internalType": "uint256",
          "name": "",
          "type": "uint256"
        },
        {
          "internalType": "address",
          "name": "",
          "type": "address"
        }
      ],
      "name": "userInfoMap",
      "outputs": [
        {
          "internalType": "uint256",
          "name": "amount",
          "type": "uint256"
        },
        {
          "internalType": "uint256",
          "name": "rewardDebt",
          "type": "uint256"
        },
        {
          "internalType": "uint256",
          "name": "accumulatedReward",
          "type": "uint256"
        }
      ],
      "payable": false,
      "stateMutability": "view",
      "type": "function"
    },
    {
      "constant": false,
      "inputs": [
        {
          "internalType": "address",
          "name": "_poolToken",
          "type": "address"
        },
        {
          "internalType": "uint256",
          "name": "_amount",
          "type": "uint256"
        },
        {
          "internalType": "address",
          "name": "_user",
          "type": "address"
        }
      ],
      "name": "withdraw",
      "outputs": [],
      "payable": false,
      "stateMutability": "nonpayable",
      "type": "function"
    },
    {
      "constant": true,
      "inputs": [],
      "name": "wrapper",
      "outputs": [
        {
          "internalType": "address",
          "name": "",
          "type": "address"
        }
      ],
      "payable": false,
      "stateMutability": "view",
      "type": "function"
    }
  ],
  "numDeployments": 2,
  "bytecode": "0x608060405260006100176001600160e01b0361006616565b600080546001600160a01b0319166001600160a01b0383169081178255604051929350917f8be0079c531659141344cd1fd0a4f28419497f9722a3daafe3b4186f6b6457e0908290a35061006a565b3390565b613d22806200007a6000396000f3fe608060405234801561001057600080fd5b506004361061035d5760003560e01c80637b46c54f116101d3578063c35a934d11610104578063e3866c9a116100a2578063f2f46b3b1161007c578063f2f46b3b14610711578063f2fde38b14610719578063f45346dc1461072c578063f729a4041461073f5761035d565b8063e3866c9a146106c9578063e788d8d1146106dc578063f2801fe7146106f15761035d565b8063d0452aa6116100de578063d0452aa614610688578063d6a49f0e1461069b578063d8c173c4146106ae578063da408679146106c15761035d565b8063c35a934d1461064f578063c680c0b714610662578063caa9a08d146106755761035d565b8063ab32339f11610171578063b3944d521161014b578063b3944d5214610624578063b9ec7d741461062c578063c1d7425814610634578063c2167d931461063c5761035d565b8063ab32339f146105f6578063ac210cc714610609578063afdd91c6146106115761035d565b80638f32d59b116101ad5780638f32d59b146105d65780639a13ba29146105de578063a1a6690f146105e6578063aaf5eb68146105ee5761035d565b80637b46c54f1461059b57806386bc6758146105ae5780638da5cb5b146105c15761035d565b80633723de42116102ad5780635d50d0601161024b57806369328dec1161022557806369328dec1461053f5780636ff1c9bc146105525780637048027514610565578063787b4026146105785761035d565b80635d50d060146104dd5780635f02c145146104fd57806362748fbb1461051f5761035d565b806348c84d9e1161028757806348c84d9e1461048f57806348cd4cb1146104af5780634953c782146104b757806356085d4c146104ca5761035d565b80633723de4214610454578063414d57fb1461045c578063429b62e51461046f5761035d565b806316614c261161031a5780631d8f889c116102f45780631d8f889c146104135780631fc3f0041461042657806329d0fa3e146104395780632d0857a2146104415761035d565b806316614c26146103e55780631785f53c146103f85780631aed65531461040b5761035d565b806306bfa93814610362578063083c63231461038b57806308dcb360146103a05780630b1a2851146103b55780630c43a7cd146103c857806310a168f9146103dd575b600080fd5b610375610370366004612d3b565b610747565b6040516103829190613bb0565b60405180910390f35b6103936107c7565b6040516103829190613bcc565b6103a86107cd565b60405161038291906139c3565b6103936103c3366004612e10565b6107dc565b6103db6103d6366004612e53565b610875565b005b610393610abe565b6103db6103f3366004612d93565b610ac3565b6103db610406366004612d3b565b610b3f565b610393610bbe565b6103db610421366004612fd6565b610bc4565b610393610434366004612d3b565b610c4a565b610393610c5c565b6103db61044f366004612ff4565b610c62565b610393610cc7565b6103db61046a366004612e96565b610d79565b61048261047d366004612d3b565b610e74565b60405161038291906139b5565b6104a261049d366004612d3b565b610e89565b60405161038291906139a4565b610393610efa565b6103db6104c5366004612d59565b610f00565b6103936104d8366004612d59565b610f2c565b6104f06104eb366004612d3b565b610f4e565b6040516103829190613971565b61051061050b366004613030565b61101f565b60405161038293929190613be8565b61053261052d366004612d3b565b61104b565b6040516103829190613993565b6103db61054d366004612dc3565b611102565b6103db610560366004612d3b565b611295565b6103db610573366004612d3b565b61138e565b61058b610586366004612ff4565b611407565b60405161038294939291906139d1565b6103db6105a9366004612d3b565b611453565b6103936105bc366004612d3b565b61146d565b6105c96114f4565b6040516103829190613905565b610482611503565b610393611527565b61039361152d565b610393611533565b610393610604366004612d3b565b61153c565b6105c96115b1565b61039361061f366004612d3b565b6115c0565b6103936115e6565b6103db6115ec565b61039361160b565b6103db61064a366004612d3b565b611610565b6103db61065d366004612e53565b611670565b6103db610670366004612d93565b6116d9565b610393610683366004612d3b565b6118cf565b610393610696366004612d59565b6118da565b6103db6106a9366004612d3b565b6118f7565b6103db6106bc366004612d93565b611a98565b6103db611aa5565b6103db6106d7366004612f3a565b611b09565b6106e4611c30565b6040516103829190613982565b6107046106ff366004612d59565b611cc6565b6040516103829190613bbe565b6103a8611d28565b6103db610727366004612d3b565b611d37565b6103db61073a366004612dc3565b611d67565b610393611d74565b61074f612c2c565b600061075a83611d7a565b90506007818154811061076957fe5b60009182526020918290206040805160808101825260039390930290910180546001600160a01b0381168452600160a01b90046001600160601b03169383019390935260018301549082015260029091015460608201529392505050565b60055481565b600c546001600160a01b031681565b6000806107e885611d7a565b90506000600782815481106107f957fe5b6000918252602082206003909102019150439061082d61082087601e63ffffffff611dba16565b839063ffffffff611dfc16565b9050600061083d84898585611e21565b9150610866905064e8d4a5100061085a8a8463ffffffff611f4416565b9063ffffffff611dba16565b955050505050505b9392505050565b61087d611503565b8061089757503360009081526001602052604090205460ff165b6108bc5760405162461bcd60e51b81526004016108b390613b10565b60405180910390fd5b6000826001600160601b0316116108e55760405162461bcd60e51b81526004016108b390613a20565b6001600160a01b03831661090b5760405162461bcd60e51b81526004016108b390613b60565b6001600160a01b038316600090815260086020526040902054156109415760405162461bcd60e51b81526004016108b390613b30565b801561094f5761094f6115ec565b6000600354431161096257600354610964565b435b600954909150610983906001600160601b03851663ffffffff611dfc16565b600955604080516080810182526001600160a01b038087168083526001600160601b0380881660208086019182528587018881526000606088018181526007805460018101825581845299516003909a027fa66cc928b5edb82af9bd49922954155ab7b0942694bea4ce44661d9a8736c688810180549751909816600160a01b029a8a166001600160a01b03199097169690961790981698909817909455517fa66cc928b5edb82af9bd49922954155ab7b0942694bea4ce44661d9a8736c68983015594517fa66cc928b5edb82af9bd49922954155ab7b0942694bea4ce44661d9a8736c68a90910155915481835260089093529083902091909155905133907f38132ae9e6e6c4e777015bac3679dadd42206fad607b97846830be4b412908c390610ab0908790613bf6565b60405180910390a350505050565b600a81565b610acb611503565b80610ae557503360009081526001602052604090205460ff165b610b015760405162461bcd60e51b81526004016108b390613b10565b612710811115610b235760405162461bcd60e51b81526004016108b390613a50565b6001600160a01b039091166000908152600f6020526040902055565b610b47611503565b610b635760405162461bcd60e51b81526004016108b390613b10565b6001600160a01b03811660009081526001602052604090819020805460ff19169055517fa3b62bc36326052d97ea62d63c3d60308ed4c3ea8ac079dd8499f1e9c4f80c0f90610bb3908390613905565b60405180910390a150565b60045481565b610bcc611503565b80610be657503360009081526001602052604090205460ff165b610c025760405162461bcd60e51b81526004016108b390613b10565b6001600160a01b038116610c285760405162461bcd60e51b81526004016108b390613a40565b600d80546001600160a01b0319166001600160a01b0392909216919091179055565b600f6020526000908152604090205481565b60025481565b610c6a611503565b80610c8457503360009081526001602052604090205460ff165b610ca05760405162461bcd60e51b81526004016108b390613b10565b612710811115610cc25760405162461bcd60e51b81526004016108b390613a50565b600e55565b600c546040516370a0823160e01b815260009182916001600160a01b03909116906370a0823190610cfc903090600401613905565b60206040518083038186803b158015610d1457600080fd5b505afa158015610d28573d6000803e3d6000fd5b505050506040513d601f19601f82011682018060405250610d4c9190810190613012565b9050600b54811015610d7057600b54610d6b908263ffffffff611f7e16565b610d73565b60005b91505090565b610d81611503565b80610d9b57503360009081526001602052604090205460ff165b610db75760405162461bcd60e51b81526004016108b390613b10565b838214610dd65760405162461bcd60e51b81526004016108b390613b20565b8015610de457610de46115ec565b8360005b81811015610e6b5782610e1957610e19878783818110610e0457fe5b90506020020160206105a99190810190612d3b565b610e63878783818110610e2857fe5b9050602002016020610e3d9190810190612d3b565b868684818110610e4957fe5b9050602002016020610e5e919081019061304f565b611fc0565b600101610de8565b50505050505050565b60016020526000908152604090205460ff1681565b600754604080518281526020808402820101909152606091908290828015610ebb578160200160208202803883390190505b50905060005b82811015610ef257610ed381866120a5565b828281518110610edf57fe5b6020908102919091010152600101610ec1565b509392505050565b60035481565b6000610f0b826121f7565b90506000610f1884611d7a565b9050610f2681836001612253565b50505050565b600080610f3884611d7a565b9050610f4481846120a5565b9150505b92915050565b600754604080518281526020808402820101909152606091908290828015610f9057816020015b610f7d612c66565b815260200190600190039081610f755790505b50905060005b82811015610ef2576000818152600a602090815260408083206001600160a01b03891684529091529020548251839083908110610fcf57fe5b6020026020010151600060028110610fe357fe5b6020020152610ff281866120a5565b828281518110610ffe57fe5b602002602001015160016002811061101257fe5b6020020152600101610f96565b600a60209081526000928352604080842090915290825290208054600182015460029092015490919083565b60075460408051828152602080840282010190915260609190829082801561108d57816020015b61107a612c84565b8152602001906001900390816110725790505b50905060005b82811015610ef2576000818152600a602090815260408083206001600160a01b0389168452825291829020825160608101845281548152600182015492810192909252600201549181019190915282518390839081106110ef57fe5b6020908102919091010152600101611093565b6001600160a01b0383166000908152600860205260409020546111375760405162461bcd60e51b81526004016108b390613a70565b6000611142826121f7565b9050600061114f85611d7a565b905060006007828154811061116057fe5b60009182526020808320858452600a825260408085206001600160a01b038916865290925292208054600390920290920192508611156111b25760405162461bcd60e51b81526004016108b390613ac0565b6111bb836122d0565b6111c582826123e2565b6111d3878286600080612439565b80546111e5908763ffffffff611f7e16565b81556006546001600160a01b031633141561121b578154611216906001600160a01b0316338863ffffffff61277416565b611237565b8154611237906001600160a01b0316858863ffffffff61277416565b61124182826127cd565b866001600160a01b0316846001600160a01b03167f9b1bfa7fa9ee420a16e124f794c35ac9f90472acc99140eb2f6447c714cad8eb886040516112849190613bcc565b60405180910390a350505050505050565b60006112a082611d7a565b90506000600782815481106112b157fe5b60009182526020808320858452600a825260408085203386529092529220600390910290910191506112e2836122d0565b6112ec82826123e2565b6002810154600b546113039163ffffffff611f7e16565b600b5580546002820180546000808555600185018190559091558354611339906001600160a01b0316338463ffffffff61277416565b856001600160a01b0316336001600160a01b03167f1401b6ff3b281e84fd77353369caed48ba7e787dd3821db05cc0064373608201848460405161137e929190613bda565b60405180910390a3505050505050565b611396611503565b6113b25760405162461bcd60e51b81526004016108b390613b10565b6001600160a01b038116600090815260016020819052604091829020805460ff19169091179055517f44d6d25963f097ad14f29f06854a01f575648a1ef82f30e562ccd3889717e33990610bb3908390613905565b6007818154811061141457fe5b60009182526020909120600390910201805460018201546002909201546001600160a01b0382169350600160a01b9091046001600160601b0316919084565b600061145e82611d7a565b9050611469816122d0565b5050565b60075460009081805b82811015610ef25760006007828154811061148d57fe5b600091825260208220600390910201546001600160a01b031691506114b1826115c0565b90506114e86114db61271061085a6114c9878c6120a5565b6127108690039063ffffffff611f4416565b859063ffffffff611dfc16565b93505050600101611476565b6000546001600160a01b031690565b600080546001600160a01b03166115186127f7565b6001600160a01b031614905090565b600b5481565b60095481565b64e8d4a5100081565b60075460009081805b82811015610ef25760006007828154811061155c57fe5b600091825260208220600390910201546001600160a01b03169150611580826115c0565b90506115a56114db61271061085a611598878c6120a5565b859063ffffffff611f4416565b93505050600101611545565b6006546001600160a01b031681565b6001600160a01b0381166000908152600f602052604081205480610f4857600e5461086e565b60075490565b60075460005b8181101561146957611603816122d0565b6001016115f2565b601e81565b611618611503565b8061163257503360009081526001602052604090205460ff165b61164e5760405162461bcd60e51b81526004016108b390613b10565b600680546001600160a01b0319166001600160a01b0392909216919091179055565b611678611503565b8061169257503360009081526001602052604090205460ff165b6116ae5760405162461bcd60e51b81526004016108b390613b10565b80156116c1576116bc6115ec565b6116ca565b6116ca83611453565b6116d48383611fc0565b505050565b6116e1611503565b806116fb57503360009081526001602052604090205460ff165b6117175760405162461bcd60e51b81526004016108b390613b10565b6001600160a01b03821661173d5760405162461bcd60e51b81526004016108b390613af0565b8061175a5760405162461bcd60e51b81526004016108b390613b40565b600c546040516370a0823160e01b81526000916001600160a01b0316906370a082319061178b903090600401613905565b60206040518083038186803b1580156117a357600080fd5b505afa1580156117b7573d6000803e3d6000fd5b505050506040513d601f19601f820116820180604052506117db9190810190613012565b9050808211156117e9578091505b600c5460405163a9059cbb60e01b81526001600160a01b039091169063a9059cbb9061181b908690869060040161393b565b602060405180830381600087803b15801561183557600080fd5b505af1158015611849573d6000803e3d6000fd5b505050506040513d601f19601f8201168201806040525061186d9190810190612f1c565b6118895760405162461bcd60e51b81526004016108b390613a80565b826001600160a01b03167fe1b0ada289bf82fb641c8c1e1c78f820fae44e8f845760725cdeb09167a289ad836040516118c29190613bcc565b60405180910390a2505050565b6000610f4882611d7a565b60006118e4612c84565b6118ee8484611cc6565b51949350505050565b6000611902826121f7565b60075490915060005b81811015611929578061192081856000612253565b5060010161190b565b50600d5460405163c408689360e01b81526000916001600160a01b03169063c40868939061195b908690600401613905565b60206040518083038186803b15801561197357600080fd5b505afa158015611987573d6000803e3d6000fd5b505050506040513d601f19601f820116820180604052506119ab9190810190613012565b1180611a355750600d5460405163129de5bf60e01b81526000916001600160a01b03169063129de5bf906119e3908690600401613905565b60206040518083038186803b1580156119fb57600080fd5b505afa158015611a0f573d6000803e3d6000fd5b505050506040513d601f19601f82011682018060405250611a339190810190613012565b115b156116d457600d546040516315b6fc1560e11b81526001600160a01b0390911690632b6df82a90611a6a908590600401613905565b600060405180830381600087803b158015611a8457600080fd5b505af1158015610e6b573d6000803e3d6000fd5b61146933828460016127fb565b611aad611503565b80611ac757503360009081526001602052604090205460ff165b611ae35760405162461bcd60e51b81526004016108b390613b10565b60055415611b035760405162461bcd60e51b81526004016108b390613b90565b43600555565b611b11611503565b80611b2b57503360009081526001602052604090205460ff165b611b475760405162461bcd60e51b81526004016108b390613b10565b600c546001600160a01b031615611b705760405162461bcd60e51b81526004016108b390613b70565b6001600160a01b038716611b965760405162461bcd60e51b81526004016108b390613b60565b60008511611bb65760405162461bcd60e51b81526004016108b390613ad0565b6127108110611bd75760405162461bcd60e51b81526004016108b390613ab0565b600c80546001600160a01b03199081166001600160a01b03998a16179091556002969096554394909401600381905592909201600455600680548516918616919091179055600d80549093169316929092179055600e55565b60606007805480602002602001604051908101604052809291908181526020016000905b82821015611cbd576000848152602090819020604080516080810182526003860290920180546001600160a01b0381168452600160a01b90046001600160601b031683850152600180820154928401929092526002015460608301529083529092019101611c54565b50505050905090565b611cce612c84565b6000611cd984611d7a565b6000908152600a602090815260408083206001600160a01b0387168452825291829020825160608101845281548152600182015492810192909252600201549181019190915291505092915050565b600d546001600160a01b031681565b611d3f611503565b611d5b5760405162461bcd60e51b81526004016108b390613b10565b611d6481612946565b50565b6116d483838360006127fb565b600e5481565b6001600160a01b03811660009081526008602052604081205480611db05760405162461bcd60e51b81526004016108b390613a70565b6000190192915050565b600061086e83836040518060400160405280601a81526020017f536166654d6174683a206469766973696f6e206279207a65726f0000000000008152506129c7565b60008282018381101561086e5760405162461bcd60e51b81526004016108b390613a90565b6000806000611e3085856129fe565b90506000611e7f60095461085a8a60000160149054906101000a90046001600160601b03166001600160601b0316611e7360025487611f4490919063ffffffff16565b9063ffffffff611f4416565b88546040516370a0823160e01b81529192506000916001600160a01b03909116906370a0823190611eb4903090600401613905565b60206040518083038186803b158015611ecc57600080fd5b505afa158015611ee0573d6000803e3d6000fd5b505050506040513d601f19601f82011682018060405250611f049190810190613012565b9050611f16818963ffffffff611dfc16565b90506000611f338261085a8564e8d4a5100063ffffffff611f4416565b929a92995091975050505050505050565b600082611f5357506000610f48565b82820282848281611f6057fe5b041461086e5760405162461bcd60e51b81526004016108b390613b00565b600061086e83836040518060400160405280601e81526020017f536166654d6174683a207375627472616374696f6e206f766572666c6f770000815250612a9e565b6000611fcb83611d7a565b9050600060078281548110611fdc57fe5b60009182526020909120600390910201546009546001600160601b03600160a01b909204821692506120279185169061201b908463ffffffff611f7e16565b9063ffffffff611dfc16565b600981905550826007838154811061203b57fe5b6000918252602090912060039091020180546001600160601b0392909216600160a01b026001600160a01b039283161790556040519085169033907f7b327867ecd5d7f5165f3d8af5193f1255f215acb14e229b529a4f8a9991abbc90610ab09087908690613c04565b600080600784815481106120b557fe5b60009182526020808320878452600a825260408085206001600160a01b03808a16875293528085206002600390950290920193840154845491516370a0823160e01b815294965091949193919216906370a0823190612118903090600401613905565b60206040518083038186803b15801561213057600080fd5b505afa158015612144573d6000803e3d6000fd5b505050506040513d601f19601f820116820180604052506121689190810190613012565b905083600101544311801561217c57508015155b156121a457600061218c85612aca565b91506121a09050838263ffffffff611dfc16565b9250505b6121ec6121db84600101546121cf64e8d4a5100061085a878960000154611f4490919063ffffffff16565b9063ffffffff611f7e16565b60028501549063ffffffff611dfc16565b979650505050505050565b6000336001600160a01b03831615610f48576006546001600160a01b031633148061223057503360009081526008602052604090205415155b61224c5760405162461bcd60e51b81526004016108b390613b50565b5090919050565b60006007848154811061226257fe5b60009182526020808320878452600a825260408085206001600160a01b038916865290925292206003909102909101915061229c856122d0565b6122a682826123e2565b81546122bf906001600160a01b03168286866001612439565b6122c982826127cd565b5050505050565b6000600782815481106122df57fe5b90600052602060002090600302019050806001015443116123005750611d64565b80546040516370a0823160e01b81526000916001600160a01b0316906370a0823190612330903090600401613905565b60206040518083038186803b15801561234857600080fd5b505afa15801561235c573d6000803e3d6000fd5b505050506040513d601f19601f820116820180604052506123809190810190613012565b905080612394575043600190910155611d64565b6000806123a084612aca565b600286015491935091506123ba908263ffffffff611dfc16565b6002850155436001850155600b546123d8908363ffffffff611dfc16565b600b555050505050565b80541561146957600061241782600101546121cf64e8d4a5100061085a87600201548760000154611f4490919063ffffffff16565b600283015490915061242f908263ffffffff611dfc16565b6002830155505050565b60028401546000612449876115c0565b600c546040516370a0823160e01b81529192506000916001600160a01b03909116906370a082319061247f903090600401613905565b60206040518083038186803b15801561249757600080fd5b505afa1580156124ab573d6000803e3d6000fd5b505050506040513d601f19601f820116820180604052506124cf9190810190613012565b905082811061274c57600b546124eb908463ffffffff611f7e16565b600b556000600288015561271082141561258957600c5460405163a9059cbb60e01b81526001600160a01b039091169063a9059cbb90612531908990879060040161393b565b602060405180830381600087803b15801561254b57600080fd5b505af115801561255f573d6000803e3d6000fd5b505050506040513d601f19601f820116820180604052506125839190810190612f1c565b506126fc565b600c54600d5460405163095ea7b360e01b81526001600160a01b039283169263095ea7b3926125bf92911690879060040161393b565b602060405180830381600087803b1580156125d957600080fd5b505af11580156125ed573d6000803e3d6000fd5b505050506040513d601f19601f820116820180604052506126119190810190612f1c565b61262d5760405162461bcd60e51b81526004016108b390613ae0565b600d54604051630efe6a8b60e01b81526001600160a01b0390911690630efe6a8b9061266190899087908790600401613956565b600060405180830381600087803b15801561267b57600080fd5b505af115801561268f573d6000803e3d6000fd5b5050505084156126fc57600d546040516315b6fc1560e11b81526001600160a01b0390911690632b6df82a906126c9908990600401613905565b600060405180830381600087803b1580156126e357600080fd5b505af11580156126f7573d6000803e3d6000fd5b505050505b876001600160a01b0316866001600160a01b03167f0aa4d283470c904c551d18bb894d37e17674920f3261a7f854be501e25f421b78560405161273f9190613bcc565b60405180910390a361276a565b831561276a5760405162461bcd60e51b81526004016108b390613a30565b5050505050505050565b6040516116d490849063a9059cbb60e01b90612796908690869060240161393b565b60408051601f198184030181529190526020810180516001600160e01b03166001600160e01b031990931692909217909152612ae7565b600282015481546127ee9164e8d4a510009161085a9163ffffffff611f4416565b60019091015550565b3390565b6001600160a01b0384166000908152600860205260409020546128305760405162461bcd60e51b81526004016108b390613a70565b60006001600160a01b0383166128465733612848565b825b9050600061285586611d7a565b905060006007828154811061286657fe5b60009182526020808320858452600a825260408085206001600160a01b03891686529092529220600390910290910191506128a0836122d0565b6128aa82826123e2565b86156128e757846128d25781546128d2906001600160a01b031633308a63ffffffff612bcc16565b80546128e4908863ffffffff611dfc16565b81555b6128f182826127cd565b876001600160a01b0316846001600160a01b03167f5548c837ab068cf56a2c2479df0882a4922fd203edb7517321831d95078c5f62896040516129349190613bcc565b60405180910390a35050505050505050565b6001600160a01b03811661296c5760405162461bcd60e51b81526004016108b390613a60565b600080546040516001600160a01b03808516939216917f8be0079c531659141344cd1fd0a4f28419497f9722a3daafe3b4186f6b6457e091a3600080546001600160a01b0319166001600160a01b0392909216919091179055565b600081836129e85760405162461bcd60e51b81526004016108b39190613a0f565b5060008385816129f457fe5b0495945050505050565b6000600354831015612a105760035492505b6000600554118015612a23575060055482115b15612a2e5760055491505b6004548211612a5357612a4c600a611e73848663ffffffff611f7e16565b9050610f48565b6004548310612a6c57612a4c828463ffffffff611f7e16565b612a4c612a8460045484611f7e90919063ffffffff16565b61201b600a611e7387600454611f7e90919063ffffffff16565b60008184841115612ac25760405162461bcd60e51b81526004016108b39190613a0f565b505050900390565b600080612ade836000856001015443611e21565b91509150915091565b612af9826001600160a01b0316612bf0565b612b155760405162461bcd60e51b81526004016108b390613ba0565b60006060836001600160a01b031683604051612b3191906138f9565b6000604051808303816000865af19150503d8060008114612b6e576040519150601f19603f3d011682016040523d82523d6000602084013e612b73565b606091505b509150915081612b955760405162461bcd60e51b81526004016108b390613aa0565b805115610f265780806020019051612bb09190810190612f1c565b610f265760405162461bcd60e51b81526004016108b390613b80565b604051610f269085906323b872dd60e01b9061279690879087908790602401613913565b6000813f7fc5d2460186f7233c927e7db2dcc703c0e500b653ca82273b7bfad8045d85a470818114801590612c2457508115155b949350505050565b604051806080016040528060006001600160a01b0316815260200160006001600160601b0316815260200160008152602001600081525090565b60405180604001604052806002906020820280388339509192915050565b60405180606001604052806000815260200160008152602001600081525090565b8035610f4881613ca7565b60008083601f840112612cc257600080fd5b50813567ffffffffffffffff811115612cda57600080fd5b602083019150836020820283011115612cf257600080fd5b9250929050565b8035610f4881613cbb565b8051610f4881613cbb565b8035610f4881613cc4565b8035610f4881613ccd565b8051610f4881613ccd565b8035610f4881613cd6565b600060208284031215612d4d57600080fd5b6000610f448484612ca5565b60008060408385031215612d6c57600080fd5b6000612d788585612ca5565b9250506020612d8985828601612ca5565b9150509250929050565b60008060408385031215612da657600080fd5b6000612db28585612ca5565b9250506020612d8985828601612d1a565b600080600060608486031215612dd857600080fd5b6000612de48686612ca5565b9350506020612df586828701612d1a565b9250506040612e0686828701612ca5565b9150509250925092565b600080600060608486031215612e2557600080fd5b6000612e318686612ca5565b9350506020612e4286828701612d1a565b9250506040612e0686828701612d1a565b600080600060608486031215612e6857600080fd5b6000612e748686612ca5565b9350506020612e8586828701612d30565b9250506040612e0686828701612cf9565b600080600080600060608688031215612eae57600080fd5b853567ffffffffffffffff811115612ec557600080fd5b612ed188828901612cb0565b9550955050602086013567ffffffffffffffff811115612ef057600080fd5b612efc88828901612cb0565b93509350506040612f0f88828901612cf9565b9150509295509295909350565b600060208284031215612f2e57600080fd5b6000610f448484612d04565b600080600080600080600060e0888a031215612f5557600080fd5b6000612f618a8a612d0f565b9750506020612f728a828b01612d1a565b9650506040612f838a828b01612d1a565b9550506060612f948a828b01612d1a565b9450506080612fa58a828b01612ca5565b93505060a0612fb68a828b01612d0f565b92505060c0612fc78a828b01612d1a565b91505092959891949750929550565b600060208284031215612fe857600080fd5b6000610f448484612d0f565b60006020828403121561300657600080fd5b6000610f448484612d1a565b60006020828403121561302457600080fd5b6000610f448484612d25565b6000806040838503121561304357600080fd5b6000612d788585612d1a565b60006020828403121561306157600080fd5b6000610f448484612d30565b600061307983836131c1565b505060400190565b600061308d8383613861565b505060800190565b60006130a183836138ab565b505060600190565b60006130b583836138de565b505060200190565b6130c681613c33565b82525050565b60006130d782613c1b565b6130e18185613c25565b93506130ec83613c12565b8060005b8381101561311a578151613104888261306d565b975061310f83613c12565b9250506001016130f0565b509495945050505050565b600061313082613c1b565b61313a8185613c25565b935061314583613c12565b8060005b8381101561311a57815161315d8882613081565b975061316883613c12565b925050600101613149565b600061317e82613c1b565b6131888185613c25565b935061319383613c12565b8060005b8381101561311a5781516131ab8882613095565b97506131b683613c12565b925050600101613197565b6131ca81613c1f565b6131d48184613c2e565b92506131df82613c18565b8060005b8381101561320d5781516131f787826130a9565b965061320283613c12565b9250506001016131e3565b505050505050565b600061322082613c1b565b61322a8185613c25565b935061323583613c12565b8060005b8381101561311a57815161324d88826130a9565b975061325883613c12565b925050600101613239565b6130c681613c3e565b600061327782613c1b565b6132818185613c2e565b9350613291818560208601613c71565b9290920192915050565b6130c681613c43565b60006132af82613c1b565b6132b98185613c25565b93506132c9818560208601613c71565b6132d281613c9d565b9093019392505050565b60006132e9601883613c25565b7f496e76616c696420616c6c6f636174696f6e20706f696e740000000000000000815260200192915050565b6000613322601683613c25565b7510db185a5b5a5b99c81c995dd85c990819985a5b195960521b815260200192915050565b6000613354601a83613c25565b7f496e76616c6964206c6f636b6564534f5620416464726573732e000000000000815260200192915050565b600061338d604083613c25565b7f556e6c6f636b656420696d6d6564696174656c792070657263656e742068617381527f20746f206265206c657373207468616e20657175616c20746f2031303030302e602082015260400192915050565b60006133ec602683613c25565b7f4f776e61626c653a206e6577206f776e657220697320746865207a65726f206181526564647265737360d01b602082015260400192915050565b6000613434601483613c25565b73141bdbdb081d1bdad95b881b9bdd08199bdd5b9960621b815260200192915050565b6000613464600f83613c25565b6e151c985b9cd9995c8819985a5b1959608a1b815260200192915050565b600061348f601b83613c25565b7f536166654d6174683a206164646974696f6e206f766572666c6f770000000000815260200192915050565b60006134c8602083613c25565b7f5361666545524332303a206c6f772d6c6576656c2063616c6c206661696c6564815260200192915050565b6000613501603783613c25565b7f556e6c6f636b656420696d6d6564696174656c792070657263656e742068617381527f20746f206265206c657373207468616e2031303030302e000000000000000000602082015260400192915050565b6000613560601283613c25565b714e6f7420656e6f7567682062616c616e636560701b815260200192915050565b600061358e601383613c25565b72496e76616c696420737461727420626c6f636b60681b815260200192915050565b60006135bd600e83613c25565b6d105c1c1c9bdd994819985a5b195960921b815260200192915050565b60006135e7601883613c25565b7f5265636569766572206164647265737320696e76616c69640000000000000000815260200192915050565b6000613620602183613c25565b7f536166654d6174683a206d756c7469706c69636174696f6e206f766572666c6f8152607760f81b602082015260400192915050565b6000613663600c83613c25565b6b1d5b985d5d1a1bdc9a5e995960a21b815260200192915050565b600061368b600f83613c25565b6e082e4e4c2f2e640dad2e6dac2e8c6d608b1b815260200192915050565b60006136b6601383613c25565b72151bdad95b88185b1c9958591e481859191959606a1b815260200192915050565b60006136e5600e83613c25565b6d105b5bdd5b9d081a5b9d985b1a5960921b815260200192915050565b600061370f602d83613c25565b7f6f6e6c792077726170706572206f7220706f6f6c73206d61792077697468647281526c30bb903337b91030903ab9b2b960991b602082015260400192915050565b600061375e601583613c25565b74496e76616c696420746f6b656e206164647265737360581b815260200192915050565b600061378f601383613c25565b72105b1c9958591e481a5b9a5d1a585b1a5e9959606a1b815260200192915050565b60006137be602a83613c25565b7f5361666545524332303a204552433230206f7065726174696f6e20646964206e8152691bdd081cdd58d8d9595960b21b602082015260400192915050565b600061380a600f83613c25565b6e105b1c9958591e481cdd1bdc1c1959608a1b815260200192915050565b6000613835601f83613c25565b7f5361666545524332303a2063616c6c20746f206e6f6e2d636f6e747261637400815260200192915050565b80516080830190613872848261329b565b50602082015161388560208501826138f0565b50604082015161389860408501826138de565b506060820151610f2660608501826138de565b805160608301906138bc84826138de565b5060208201516138cf60208501826138de565b506040820151610f2660408501825b6130c681613c18565b6130c681613c66565b6130c681613c5a565b600061086e828461326c565b60208101610f4882846130bd565b6060810161392182866130bd565b61392e60208301856130bd565b612c2460408301846138de565b6040810161394982856130bd565b61086e60208301846138de565b6060810161396482866130bd565b61392e60208301856138de565b6020808252810161086e81846130cc565b6020808252810161086e8184613125565b6020808252810161086e8184613173565b6020808252810161086e8184613215565b60208101610f488284613263565b60208101610f48828461329b565b608081016139df828761329b565b6139ec60208301866138f0565b6139f960408301856138de565b613a0660608301846138de565b95945050505050565b6020808252810161086e81846132a4565b60208082528101610f48816132dc565b60208082528101610f4881613315565b60208082528101610f4881613347565b60208082528101610f4881613380565b60208082528101610f48816133df565b60208082528101610f4881613427565b60208082528101610f4881613457565b60208082528101610f4881613482565b60208082528101610f48816134bb565b60208082528101610f48816134f4565b60208082528101610f4881613553565b60208082528101610f4881613581565b60208082528101610f48816135b0565b60208082528101610f48816135da565b60208082528101610f4881613613565b60208082528101610f4881613656565b60208082528101610f488161367e565b60208082528101610f48816136a9565b60208082528101610f48816136d8565b60208082528101610f4881613702565b60208082528101610f4881613751565b60208082528101610f4881613782565b60208082528101610f48816137b1565b60208082528101610f48816137fd565b60208082528101610f4881613828565b60808101610f488284613861565b60608101610f4882846138ab565b60208101610f4882846138de565b6040810161394982856138de565b6060810161396482866138de565b60208101610f4882846138e7565b6040810161394982856138e7565b60200190565b90565b5190565b50600290565b90815260200190565b919050565b6000610f4882613c4e565b151590565b6000610f4882613c33565b6001600160a01b031690565b6001600160601b031690565b6000610f4882613c5a565b60005b83811015613c8c578181015183820152602001613c74565b83811115610f265750506000910152565b601f01601f191690565b613cb081613c33565b8114611d6457600080fd5b613cb081613c3e565b613cb081613c43565b613cb081613c18565b613cb081613c5a56fea365627a7a72315820b9785d45d4cce76aa4f01fd3a439d5b40552a04e328a7e50e0728f620265bf746c6578706572696d656e74616cf564736f6c63430005110040",
  "implementation": "0xb0F4eEBb201652E419D1f7284e32bC9Ac66F3245",
  "devdoc": {
    "methods": {
      "add(address,uint96,bool)": {
        "params": {
          "_allocationPoint": "the allocation point (weight) for the given pool",
          "_poolToken": "the address of pool token",
          "_withUpdate": "the flag whether we need to update all pools"
        }
      },
      "addAdmin(address)": {
        "params": {
          "_admin": "The addresses of the account to grant permissions."
        }
      },
      "calcUnlockedImmediatelyPercent(address)": {
        "details": "calculate the unlocked immediate percentage of specific pool token use the poolTokensUnlockedImmediatelyPercent by default, if it is not set, then use the unlockedImmediatelyPercent"
      },
      "claimReward(address,address)": {
        "params": {
          "_poolToken": "the address of pool token",
          "_user": "the address of user to claim reward from (can be passed only by wrapper contract)"
        }
      },
      "claimRewardFromAllPools(address)": {
        "params": {
          "_user": "the address of user to claim reward from (can be passed only by wrapper contract)"
        }
      },
      "deposit(address,uint256,address)": {
        "params": {
          "_amount": "the amount of pool tokens",
          "_poolToken": "the address of pool token",
          "_user": "the address of user, tokens will be deposited to it or to msg.sender"
        }
      },
      "emergencyWithdraw(address)": {
        "details": "EMERGENCY ONLY",
        "params": {
          "_poolToken": "the address of pool token"
        }
      },
      "getEstimatedReward(address,uint256,uint256)": {
        "params": {
          "_amount": "the amount of tokens to be deposited",
          "_duration": "the duration of liquidity providing in seconds",
          "_poolToken": "the address of pool token"
        }
      },
      "getMissedBalance()": {
        "return": "The amount of SOV tokens according to totalUsersBalance  in excess of actual SOV balance of the LM contract."
      },
      "getPoolId(address)": {
        "params": {
          "_poolToken": "the address of pool token"
        }
      },
      "getPoolInfo(address)": {
        "params": {
          "_poolToken": "the address of pool token"
        }
      },
      "getUserAccumulatedReward(address,address)": {
        "params": {
          "_poolToken": "the address of pool token",
          "_user": "the user address"
        }
      },
      "getUserAccumulatedRewardList(address)": {
        "params": {
          "_user": "the address of the user"
        }
      },
      "getUserAccumulatedRewardToBePaidLiquid(address)": {
        "params": {
          "_user": "the address of the user"
        }
      },
      "getUserAccumulatedRewardToBeVested(address)": {
        "params": {
          "_user": "the address of the user"
        }
      },
      "getUserBalanceList(address)": {
        "params": {
          "_user": "the address of the user"
        }
      },
      "getUserInfo(address,address)": {
        "params": {
          "_poolToken": "the address of pool token",
          "_user": "the address of the user"
        }
      },
      "getUserInfoList(address)": {
        "params": {
          "_user": "the address of the user"
        }
      },
      "getUserPoolTokenBalance(address,address)": {
        "params": {
          "_poolToken": "the address of pool token",
          "_user": "the address of the user"
        }
      },
      "initialize(address,uint256,uint256,uint256,address,address,uint256)": {
        "params": {
          "_SOV": "The SOV token.",
          "_lockedSOV": "The contract instance address of the lockedSOV vault.  SOV rewards are not paid directly to liquidity providers. Instead they  are deposited into a lockedSOV vault contract.",
          "_numberOfBonusBlocks": "The number of blocks when each block will  be calculated as N blocks (BONUS_BLOCK_MULTIPLIER).",
          "_rewardTokensPerBlock": "The number of reward tokens per block.",
          "_startDelayBlocks": "The number of blocks should be passed to start  mining.",
          "_unlockedImmediatelyPercent": "The % which determines how much will be unlocked immediately."
        }
      },
      "isOwner()": {
        "details": "Returns true if the caller is the current owner."
      },
      "onTokensDeposited(address,uint256)": {
        "details": "only callable by the pool which issues the tokens",
        "params": {
          "_amount": "the minted amount",
          "_user": "the user address"
        }
      },
      "owner()": {
        "details": "Returns the address of the current owner."
      },
      "removeAdmin(address)": {
        "params": {
          "_admin": "The addresses of the account to revoke permissions."
        }
      },
      "setLockedSOV(address)": {
        "params": {
          "_lockedSOV": "The contract instance address of the lockedSOV vault."
        }
      },
      "setPoolTokenUnlockedImmediatelyPercent(address,uint256)": {
        "details": "10000 is 100%",
        "params": {
          "_poolToken": "the address of pool token",
          "_poolTokenUnlockedImmediatelyPercent": "The % which determines how much will be unlocked immediately."
        }
      },
      "setUnlockedImmediatelyPercent(uint256)": {
        "details": "10000 is 100%",
        "params": {
          "_unlockedImmediatelyPercent": "The % which determines how much will be unlocked immediately."
        }
      },
      "setWrapper(address)": {
        "details": "can be set to zero address to remove wrapper"
      },
      "transferOwnership(address)": {
        "details": "Transfers ownership of the contract to a new account (`newOwner`). Can only be called by the current owner."
      },
      "transferSOV(address,uint256)": {
        "params": {
          "_amount": "The amount to be transferred.",
          "_receiver": "The address of the SOV receiver."
        }
      },
      "update(address,uint96,bool)": {
        "params": {
          "_allocationPoint": "the allocation point (weight) for the given pool",
          "_poolToken": "the address of pool token",
          "_updateAllFlag": "the flag whether we need to update all pools"
        }
      },
      "updateAllPools()": {
        "details": "Be careful of gas spending!"
      },
      "updatePool(address)": {
        "params": {
          "_poolToken": "the address of pool token"
        }
      },
      "updateTokens(address[],uint96[],bool)": {
        "params": {
          "_allocationPoints": "array of allocation points (weight) for the given pools",
          "_poolTokens": "array of addresses of pool tokens",
          "_updateAllFlag": "the flag whether we need to update all pools"
        }
      },
      "withdraw(address,uint256,address)": {
        "params": {
          "_amount": "the amount of pool tokens",
          "_poolToken": "the address of pool token",
          "_user": "the user address will be used to process a withdrawal (can be passed only by wrapper contract)"
        }
      }
    }
  },
  "userdoc": {
    "methods": {
      "add(address,uint96,bool)": {
        "notice": "adds a new lp to the pool. Can only be called by the owner or an admin"
      },
      "addAdmin(address)": {
        "notice": "Add account to ACL."
      },
      "claimReward(address,address)": {
        "notice": "transfers reward tokens"
      },
      "claimRewardFromAllPools(address)": {
        "notice": "transfers reward tokens from all pools"
      },
      "deposit(address,uint256,address)": {
        "notice": "deposits pool tokens"
      },
      "emergencyWithdraw(address)": {
        "notice": "withdraws pool tokens without transferring reward tokens"
      },
      "getEstimatedReward(address,uint256,uint256)": {
        "notice": "returns estimated reward"
      },
      "getMissedBalance()": {
        "notice": "Get the missed SOV balance of LM contract."
      },
      "getPoolId(address)": {
        "notice": "returns pool id"
      },
      "getPoolInfo(address)": {
        "notice": "returns pool info for the given token"
      },
      "getPoolInfoList()": {
        "notice": "returns list of pool token's info"
      },
      "getPoolLength()": {
        "notice": "returns count of pool tokens"
      },
      "getUserAccumulatedReward(address,address)": {
        "notice": "returns accumulated reward"
      },
      "getUserAccumulatedRewardList(address)": {
        "notice": "returns accumulated reward for the given user for each pool token"
      },
      "getUserAccumulatedRewardToBePaidLiquid(address)": {
        "notice": "returns the accumulated liquid reward for the given user for each pool token"
      },
      "getUserAccumulatedRewardToBeVested(address)": {
        "notice": "returns the accumulated vested reward for the given user for each pool token"
      },
      "getUserBalanceList(address)": {
        "notice": "returns list of [amount, accumulatedReward] for the given user for each pool token"
      },
      "getUserInfo(address,address)": {
        "notice": "returns UserInfo for the given pool and user"
      },
      "getUserInfoList(address)": {
        "notice": "returns list of UserInfo for the given user for each pool token"
      },
      "getUserPoolTokenBalance(address,address)": {
        "notice": "returns the pool token balance a user has on the contract"
      },
      "initialize(address,uint256,uint256,uint256,address,address,uint256)": {
        "notice": "Initialize mining."
      },
      "onTokensDeposited(address,uint256)": {
        "notice": "if the lending pools directly mint/transfer tokens to this address, process it like a user deposit"
      },
      "removeAdmin(address)": {
        "notice": "Remove account from ACL."
      },
      "setLockedSOV(address)": {
        "notice": "Sets lockedSOV contract."
      },
      "setPoolTokenUnlockedImmediatelyPercent(address,uint256)": {
        "notice": "Sets unlocked immediately percent overwrite for specific pool token."
      },
      "setUnlockedImmediatelyPercent(uint256)": {
        "notice": "Sets unlocked immediately percent."
      },
      "setWrapper(address)": {
        "notice": "sets wrapper proxy contract"
      },
      "stopMining()": {
        "notice": "stops mining by setting end block"
      },
      "transferSOV(address,uint256)": {
        "notice": "Transfers SOV tokens to given address.  Owner use this function to withdraw SOV from LM contract  into another account."
      },
      "update(address,uint96,bool)": {
        "notice": "updates the given pool's reward tokens allocation point"
      },
      "updateAllPools()": {
        "notice": "Updates reward variables for all pools."
      },
      "updatePool(address)": {
        "notice": "Updates reward variables of the given pool to be up-to-date"
      },
      "updateTokens(address[],uint96[],bool)": {
        "notice": "updates the given pools' reward tokens allocation points"
      },
      "withdraw(address,uint256,address)": {
        "notice": "withdraws pool tokens and transfers reward tokens"
      }
    }
  },
  "storageLayout": {
    "storage": [
      {
        "astId": 53409,
        "contract": "contracts/farm/LiquidityMining.sol:LiquidityMining",
        "label": "_owner",
        "offset": 0,
        "slot": "0",
        "type": "t_address"
      },
      {
        "astId": 60486,
        "contract": "contracts/farm/LiquidityMining.sol:LiquidityMining",
        "label": "admins",
        "offset": 0,
        "slot": "1",
        "type": "t_mapping(t_address,t_bool)"
      },
      {
        "astId": 10099,
        "contract": "contracts/farm/LiquidityMining.sol:LiquidityMining",
        "label": "rewardTokensPerBlock",
        "offset": 0,
        "slot": "2",
        "type": "t_uint256"
      },
      {
        "astId": 10101,
        "contract": "contracts/farm/LiquidityMining.sol:LiquidityMining",
        "label": "startBlock",
        "offset": 0,
        "slot": "3",
        "type": "t_uint256"
      },
      {
        "astId": 10103,
        "contract": "contracts/farm/LiquidityMining.sol:LiquidityMining",
        "label": "bonusEndBlock",
        "offset": 0,
        "slot": "4",
        "type": "t_uint256"
      },
      {
        "astId": 10105,
        "contract": "contracts/farm/LiquidityMining.sol:LiquidityMining",
        "label": "endBlock",
        "offset": 0,
        "slot": "5",
        "type": "t_uint256"
      },
      {
        "astId": 10107,
        "contract": "contracts/farm/LiquidityMining.sol:LiquidityMining",
        "label": "wrapper",
        "offset": 0,
        "slot": "6",
        "type": "t_address"
      },
      {
        "astId": 10110,
        "contract": "contracts/farm/LiquidityMining.sol:LiquidityMining",
        "label": "poolInfoList",
        "offset": 0,
        "slot": "7",
        "type": "t_array(t_struct(PoolInfo)10097_storage)dyn_storage"
      },
      {
        "astId": 10114,
        "contract": "contracts/farm/LiquidityMining.sol:LiquidityMining",
        "label": "poolIdList",
        "offset": 0,
        "slot": "8",
        "type": "t_mapping(t_address,t_uint256)"
      },
      {
        "astId": 10116,
        "contract": "contracts/farm/LiquidityMining.sol:LiquidityMining",
        "label": "totalAllocationPoint",
        "offset": 0,
        "slot": "9",
        "type": "t_uint256"
      },
      {
        "astId": 10122,
        "contract": "contracts/farm/LiquidityMining.sol:LiquidityMining",
        "label": "userInfoMap",
        "offset": 0,
        "slot": "10",
        "type": "t_mapping(t_uint256,t_mapping(t_address,t_struct(UserInfo)10088_storage))"
      },
      {
        "astId": 10124,
        "contract": "contracts/farm/LiquidityMining.sol:LiquidityMining",
        "label": "totalUsersBalance",
        "offset": 0,
        "slot": "11",
        "type": "t_uint256"
      },
      {
        "astId": 10126,
        "contract": "contracts/farm/LiquidityMining.sol:LiquidityMining",
        "label": "SOV",
        "offset": 0,
        "slot": "12",
        "type": "t_contract(IERC20)32404"
      },
      {
        "astId": 10128,
        "contract": "contracts/farm/LiquidityMining.sol:LiquidityMining",
        "label": "lockedSOV",
        "offset": 0,
        "slot": "13",
        "type": "t_contract(ILockedSOV)34163"
      },
      {
        "astId": 10130,
        "contract": "contracts/farm/LiquidityMining.sol:LiquidityMining",
        "label": "unlockedImmediatelyPercent",
        "offset": 0,
        "slot": "14",
        "type": "t_uint256"
      },
      {
        "astId": 10134,
        "contract": "contracts/farm/LiquidityMining.sol:LiquidityMining",
        "label": "poolTokensUnlockedImmediatelyPercent",
        "offset": 0,
        "slot": "15",
        "type": "t_mapping(t_address,t_uint256)"
      }
    ],
    "types": {
      "t_address": {
        "encoding": "inplace",
        "label": "address",
        "numberOfBytes": "20"
      },
      "t_array(t_struct(PoolInfo)10097_storage)dyn_storage": {
        "base": "t_struct(PoolInfo)10097_storage",
        "encoding": "dynamic_array",
        "label": "struct LiquidityMiningStorage.PoolInfo[]",
        "numberOfBytes": "32"
      },
      "t_bool": {
        "encoding": "inplace",
        "label": "bool",
        "numberOfBytes": "1"
      },
      "t_contract(IERC20)32404": {
        "encoding": "inplace",
        "label": "contract IERC20",
        "numberOfBytes": "20"
      },
      "t_contract(ILockedSOV)34163": {
        "encoding": "inplace",
        "label": "contract ILockedSOV",
        "numberOfBytes": "20"
      },
      "t_mapping(t_address,t_bool)": {
        "encoding": "mapping",
        "key": "t_address",
        "label": "mapping(address => bool)",
        "numberOfBytes": "32",
        "value": "t_bool"
      },
      "t_mapping(t_address,t_struct(UserInfo)10088_storage)": {
        "encoding": "mapping",
        "key": "t_address",
        "label": "mapping(address => struct LiquidityMiningStorage.UserInfo)",
        "numberOfBytes": "32",
        "value": "t_struct(UserInfo)10088_storage"
      },
      "t_mapping(t_address,t_uint256)": {
        "encoding": "mapping",
        "key": "t_address",
        "label": "mapping(address => uint256)",
        "numberOfBytes": "32",
        "value": "t_uint256"
      },
      "t_mapping(t_uint256,t_mapping(t_address,t_struct(UserInfo)10088_storage))": {
        "encoding": "mapping",
        "key": "t_uint256",
        "label": "mapping(uint256 => mapping(address => struct LiquidityMiningStorage.UserInfo))",
        "numberOfBytes": "32",
        "value": "t_mapping(t_address,t_struct(UserInfo)10088_storage)"
      },
      "t_struct(PoolInfo)10097_storage": {
        "encoding": "inplace",
        "label": "struct LiquidityMiningStorage.PoolInfo",
        "members": [
          {
            "astId": 10090,
            "contract": "contracts/farm/LiquidityMining.sol:LiquidityMining",
            "label": "poolToken",
            "offset": 0,
            "slot": "0",
            "type": "t_contract(IERC20)32404"
          },
          {
            "astId": 10092,
            "contract": "contracts/farm/LiquidityMining.sol:LiquidityMining",
            "label": "allocationPoint",
            "offset": 20,
            "slot": "0",
            "type": "t_uint96"
          },
          {
            "astId": 10094,
            "contract": "contracts/farm/LiquidityMining.sol:LiquidityMining",
            "label": "lastRewardBlock",
            "offset": 0,
            "slot": "1",
            "type": "t_uint256"
          },
          {
            "astId": 10096,
            "contract": "contracts/farm/LiquidityMining.sol:LiquidityMining",
            "label": "accumulatedRewardPerShare",
            "offset": 0,
            "slot": "2",
            "type": "t_uint256"
          }
        ],
        "numberOfBytes": "96"
      },
      "t_struct(UserInfo)10088_storage": {
        "encoding": "inplace",
        "label": "struct LiquidityMiningStorage.UserInfo",
        "members": [
          {
            "astId": 10083,
            "contract": "contracts/farm/LiquidityMining.sol:LiquidityMining",
            "label": "amount",
            "offset": 0,
            "slot": "0",
            "type": "t_uint256"
          },
          {
            "astId": 10085,
            "contract": "contracts/farm/LiquidityMining.sol:LiquidityMining",
            "label": "rewardDebt",
            "offset": 0,
            "slot": "1",
            "type": "t_uint256"
          },
          {
            "astId": 10087,
            "contract": "contracts/farm/LiquidityMining.sol:LiquidityMining",
            "label": "accumulatedReward",
            "offset": 0,
            "slot": "2",
            "type": "t_uint256"
          }
        ],
        "numberOfBytes": "96"
      },
      "t_uint256": {
        "encoding": "inplace",
        "label": "uint256",
        "numberOfBytes": "32"
      },
      "t_uint96": {
        "encoding": "inplace",
        "label": "uint96",
        "numberOfBytes": "12"
      }
    }
  }
}