{
  "address": "0x4BC462e2c8D106511D8e7985b05A52fD8b726464",
  "abi": [
    {
      "inputs": [],
      "payable": false,
      "stateMutability": "nonpayable",
      "type": "constructor"
    },
    {
      "anonymous": false,
      "inputs": [
        {
          "indexed": true,
          "internalType": "address",
          "name": "user",
          "type": "address"
        },
        {
          "indexed": true,
          "internalType": "address",
          "name": "lender",
          "type": "address"
        },
        {
          "indexed": true,
          "internalType": "bytes32",
          "name": "loanId",
          "type": "bytes32"
        },
        {
          "indexed": false,
          "internalType": "address",
          "name": "loanToken",
          "type": "address"
        },
        {
          "indexed": false,
          "internalType": "address",
          "name": "collateralToken",
          "type": "address"
        },
        {
          "indexed": false,
          "internalType": "uint256",
          "name": "newPrincipal",
          "type": "uint256"
        },
        {
          "indexed": false,
          "internalType": "uint256",
          "name": "newCollateral",
          "type": "uint256"
        },
        {
          "indexed": false,
          "internalType": "uint256",
          "name": "interestRate",
          "type": "uint256"
        },
        {
          "indexed": false,
          "internalType": "uint256",
          "name": "interestDuration",
          "type": "uint256"
        },
        {
          "indexed": false,
          "internalType": "uint256",
          "name": "collateralToLoanRate",
          "type": "uint256"
        },
        {
          "indexed": false,
          "internalType": "uint256",
          "name": "currentMargin",
          "type": "uint256"
        }
      ],
      "name": "Borrow",
      "type": "event"
    },
    {
      "anonymous": false,
      "inputs": [
        {
          "indexed": true,
          "internalType": "bytes32",
          "name": "loanId",
          "type": "bytes32"
        },
        {
          "indexed": true,
          "internalType": "address",
          "name": "delegator",
          "type": "address"
        },
        {
          "indexed": true,
          "internalType": "address",
          "name": "delegated",
          "type": "address"
        },
        {
          "indexed": false,
          "internalType": "bool",
          "name": "isActive",
          "type": "bool"
        }
      ],
      "name": "DelegatedManagerSet",
      "type": "event"
    },
    {
      "anonymous": false,
      "inputs": [
        {
          "indexed": true,
          "internalType": "bytes32",
          "name": "loanId",
          "type": "bytes32"
        },
        {
          "indexed": false,
          "internalType": "uint256",
          "name": "depositAmount",
          "type": "uint256"
        },
        {
          "indexed": false,
          "internalType": "uint256",
          "name": "rate",
          "type": "uint256"
        }
      ],
      "name": "DepositCollateral",
      "type": "event"
    },
    {
      "anonymous": false,
      "inputs": [
        {
          "indexed": true,
          "internalType": "address",
          "name": "receiver",
          "type": "address"
        },
        {
          "indexed": true,
          "internalType": "address",
          "name": "token",
          "type": "address"
        },
        {
          "indexed": true,
          "internalType": "bytes32",
          "name": "loanId",
          "type": "bytes32"
        },
        {
          "indexed": false,
          "internalType": "uint256",
          "name": "feeRebatePercent",
          "type": "uint256"
        },
        {
          "indexed": false,
          "internalType": "uint256",
          "name": "amount",
          "type": "uint256"
        },
        {
          "indexed": false,
          "internalType": "uint256",
          "name": "basisPoint",
          "type": "uint256"
        }
      ],
      "name": "EarnReward",
      "type": "event"
    },
    {
      "anonymous": false,
      "inputs": [
        {
          "indexed": true,
          "internalType": "address",
          "name": "receiver",
          "type": "address"
        },
        {
          "indexed": true,
          "internalType": "address",
          "name": "token",
          "type": "address"
        },
        {
          "indexed": true,
          "internalType": "bytes32",
          "name": "loanId",
          "type": "bytes32"
        },
        {
          "indexed": false,
          "internalType": "uint256",
          "name": "feeRebatePercent",
          "type": "uint256"
        },
        {
          "indexed": false,
          "internalType": "uint256",
          "name": "amount",
          "type": "uint256"
        },
        {
          "indexed": false,
          "internalType": "uint256",
          "name": "basisPoint",
          "type": "uint256"
        }
      ],
      "name": "EarnRewardFail",
      "type": "event"
    },
    {
      "anonymous": false,
      "inputs": [
        {
          "indexed": true,
          "internalType": "address",
          "name": "user",
          "type": "address"
        },
        {
          "indexed": true,
          "internalType": "address",
          "name": "sourceToken",
          "type": "address"
        },
        {
          "indexed": true,
          "internalType": "address",
          "name": "destToken",
          "type": "address"
        },
        {
          "indexed": false,
          "internalType": "uint256",
          "name": "sourceAmount",
          "type": "uint256"
        },
        {
          "indexed": false,
          "internalType": "uint256",
          "name": "destAmount",
          "type": "uint256"
        }
      ],
      "name": "ExternalSwap",
      "type": "event"
    },
    {
      "anonymous": false,
      "inputs": [
        {
          "indexed": true,
          "internalType": "bytes32",
          "name": "loanId",
          "type": "bytes32"
        },
        {
          "indexed": true,
          "internalType": "address",
          "name": "sourceToken",
          "type": "address"
        },
        {
          "indexed": true,
          "internalType": "address",
          "name": "destToken",
          "type": "address"
        },
        {
          "indexed": false,
          "internalType": "address",
          "name": "borrower",
          "type": "address"
        },
        {
          "indexed": false,
          "internalType": "uint256",
          "name": "sourceAmount",
          "type": "uint256"
        },
        {
          "indexed": false,
          "internalType": "uint256",
          "name": "destAmount",
          "type": "uint256"
        }
      ],
      "name": "LoanSwap",
      "type": "event"
    },
    {
      "anonymous": false,
      "inputs": [
        {
          "indexed": true,
          "internalType": "address",
          "name": "previousOwner",
          "type": "address"
        },
        {
          "indexed": true,
          "internalType": "address",
          "name": "newOwner",
          "type": "address"
        }
      ],
      "name": "OwnershipTransferred",
      "type": "event"
    },
    {
      "anonymous": false,
      "inputs": [
        {
          "indexed": true,
          "internalType": "address",
          "name": "payer",
          "type": "address"
        },
        {
          "indexed": true,
          "internalType": "address",
          "name": "token",
          "type": "address"
        },
        {
          "indexed": true,
          "internalType": "bytes32",
          "name": "loanId",
          "type": "bytes32"
        },
        {
          "indexed": false,
          "internalType": "uint256",
          "name": "amount",
          "type": "uint256"
        }
      ],
      "name": "PayBorrowingFee",
      "type": "event"
    },
    {
      "anonymous": false,
      "inputs": [
        {
          "indexed": true,
          "internalType": "address",
          "name": "interestToken",
          "type": "address"
        },
        {
          "indexed": true,
          "internalType": "address",
          "name": "lender",
          "type": "address"
        },
        {
          "indexed": false,
          "internalType": "uint256",
          "name": "effectiveInterest",
          "type": "uint256"
        }
      ],
      "name": "PayInterestTransfer",
      "type": "event"
    },
    {
      "anonymous": false,
      "inputs": [
        {
          "indexed": true,
          "internalType": "address",
          "name": "payer",
          "type": "address"
        },
        {
          "indexed": true,
          "internalType": "address",
          "name": "token",
          "type": "address"
        },
        {
          "indexed": false,
          "internalType": "uint256",
          "name": "amount",
          "type": "uint256"
        }
      ],
      "name": "PayLendingFee",
      "type": "event"
    },
    {
      "anonymous": false,
      "inputs": [
        {
          "indexed": true,
          "internalType": "address",
          "name": "payer",
          "type": "address"
        },
        {
          "indexed": true,
          "internalType": "address",
          "name": "token",
          "type": "address"
        },
        {
          "indexed": true,
          "internalType": "bytes32",
          "name": "loanId",
          "type": "bytes32"
        },
        {
          "indexed": false,
          "internalType": "uint256",
          "name": "amount",
          "type": "uint256"
        }
      ],
      "name": "PayTradingFee",
      "type": "event"
    },
    {
      "anonymous": false,
      "inputs": [
        {
          "indexed": true,
          "internalType": "address",
          "name": "prevModuleContractAddress",
          "type": "address"
        },
        {
          "indexed": true,
          "internalType": "address",
          "name": "newModuleContractAddress",
          "type": "address"
        },
        {
          "indexed": true,
          "internalType": "bytes32",
          "name": "module",
          "type": "bytes32"
        }
      ],
      "name": "ProtocolModuleContractReplaced",
      "type": "event"
    },
    {
      "anonymous": false,
      "inputs": [
        {
          "indexed": true,
          "internalType": "address",
          "name": "user",
          "type": "address"
        },
        {
          "indexed": true,
          "internalType": "address",
          "name": "lender",
          "type": "address"
        },
        {
          "indexed": true,
          "internalType": "bytes32",
          "name": "loanId",
          "type": "bytes32"
        },
        {
          "indexed": false,
          "internalType": "address",
          "name": "collateralToken",
          "type": "address"
        },
        {
          "indexed": false,
          "internalType": "address",
          "name": "loanToken",
          "type": "address"
        },
        {
          "indexed": false,
          "internalType": "uint256",
          "name": "positionSize",
          "type": "uint256"
        },
        {
          "indexed": false,
          "internalType": "uint256",
          "name": "borrowedAmount",
          "type": "uint256"
        },
        {
          "indexed": false,
          "internalType": "uint256",
          "name": "interestRate",
          "type": "uint256"
        },
        {
          "indexed": false,
          "internalType": "uint256",
          "name": "settlementDate",
          "type": "uint256"
        },
        {
          "indexed": false,
          "internalType": "uint256",
          "name": "entryPrice",
          "type": "uint256"
        },
        {
          "indexed": false,
          "internalType": "uint256",
          "name": "entryLeverage",
          "type": "uint256"
        },
        {
          "indexed": false,
          "internalType": "uint256",
          "name": "currentLeverage",
          "type": "uint256"
        }
      ],
      "name": "Trade",
      "type": "event"
    },
    {
      "anonymous": false,
      "inputs": [
        {
          "indexed": true,
          "internalType": "address",
          "name": "asset",
          "type": "address"
        },
        {
          "indexed": true,
          "internalType": "address",
          "name": "from",
          "type": "address"
        },
        {
          "indexed": false,
          "internalType": "uint256",
          "name": "amount",
          "type": "uint256"
        }
      ],
      "name": "VaultDeposit",
      "type": "event"
    },
    {
      "anonymous": false,
      "inputs": [
        {
          "indexed": true,
          "internalType": "address",
          "name": "asset",
          "type": "address"
        },
        {
          "indexed": true,
          "internalType": "address",
          "name": "to",
          "type": "address"
        },
        {
          "indexed": false,
          "internalType": "uint256",
          "name": "amount",
          "type": "uint256"
        }
      ],
      "name": "VaultWithdraw",
      "type": "event"
    },
    {
      "payable": false,
      "stateMutability": "nonpayable",
      "type": "fallback"
    },
    {
      "constant": true,
      "inputs": [],
      "name": "admin",
      "outputs": [
        {
          "internalType": "address",
          "name": "",
          "type": "address"
        }
      ],
      "payable": false,
      "stateMutability": "view",
      "type": "function"
    },
    {
      "constant": true,
      "inputs": [],
      "name": "affiliateFeePercent",
      "outputs": [
        {
          "internalType": "uint256",
          "name": "",
          "type": "uint256"
        }
      ],
      "payable": false,
      "stateMutability": "view",
      "type": "function"
    },
    {
      "constant": true,
      "inputs": [
        {
          "internalType": "address",
          "name": "",
          "type": "address"
        }
      ],
      "name": "affiliateRewardsHeld",
      "outputs": [
        {
          "internalType": "uint256",
          "name": "",
          "type": "uint256"
        }
      ],
      "payable": false,
      "stateMutability": "view",
      "type": "function"
    },
    {
      "constant": true,
      "inputs": [],
      "name": "affiliateTradingTokenFeePercent",
      "outputs": [
        {
          "internalType": "uint256",
          "name": "",
          "type": "uint256"
        }
      ],
      "payable": false,
      "stateMutability": "view",
      "type": "function"
    },
    {
      "constant": true,
      "inputs": [
        {
          "internalType": "address",
          "name": "",
          "type": "address"
        },
        {
          "internalType": "address",
          "name": "",
          "type": "address"
        }
      ],
      "name": "affiliatesReferrerBalances",
      "outputs": [
        {
          "internalType": "uint256",
          "name": "",
          "type": "uint256"
        }
      ],
      "payable": false,
      "stateMutability": "view",
      "type": "function"
    },
    {
      "constant": true,
      "inputs": [
        {
          "internalType": "address",
          "name": "",
          "type": "address"
        }
      ],
      "name": "affiliatesUserReferrer",
      "outputs": [
        {
          "internalType": "address",
          "name": "",
          "type": "address"
        }
      ],
      "payable": false,
      "stateMutability": "view",
      "type": "function"
    },
    {
      "constant": true,
      "inputs": [
        {
          "internalType": "address",
          "name": "",
          "type": "address"
        }
      ],
      "name": "borrowerNonce",
      "outputs": [
        {
          "internalType": "uint256",
          "name": "",
          "type": "uint256"
        }
      ],
      "payable": false,
      "stateMutability": "view",
      "type": "function"
    },
    {
      "constant": true,
      "inputs": [
        {
          "internalType": "address",
          "name": "",
          "type": "address"
        },
        {
          "internalType": "bytes32",
          "name": "",
          "type": "bytes32"
        }
      ],
      "name": "borrowerOrders",
      "outputs": [
        {
          "internalType": "uint256",
          "name": "lockedAmount",
          "type": "uint256"
        },
        {
          "internalType": "uint256",
          "name": "interestRate",
          "type": "uint256"
        },
        {
          "internalType": "uint256",
          "name": "minLoanTerm",
          "type": "uint256"
        },
        {
          "internalType": "uint256",
          "name": "maxLoanTerm",
          "type": "uint256"
        },
        {
          "internalType": "uint256",
          "name": "createdTimestamp",
          "type": "uint256"
        },
        {
          "internalType": "uint256",
          "name": "expirationTimestamp",
          "type": "uint256"
        }
      ],
      "payable": false,
      "stateMutability": "view",
      "type": "function"
    },
    {
      "constant": true,
      "inputs": [],
      "name": "borrowingFeePercent",
      "outputs": [
        {
          "internalType": "uint256",
          "name": "",
          "type": "uint256"
        }
      ],
      "payable": false,
      "stateMutability": "view",
      "type": "function"
    },
    {
      "constant": true,
      "inputs": [
        {
          "internalType": "address",
          "name": "",
          "type": "address"
        }
      ],
      "name": "borrowingFeeTokensHeld",
      "outputs": [
        {
          "internalType": "uint256",
          "name": "",
          "type": "uint256"
        }
      ],
      "payable": false,
      "stateMutability": "view",
      "type": "function"
    },
    {
      "constant": true,
      "inputs": [
        {
          "internalType": "address",
          "name": "",
          "type": "address"
        }
      ],
      "name": "borrowingFeeTokensPaid",
      "outputs": [
        {
          "internalType": "uint256",
          "name": "",
          "type": "uint256"
        }
      ],
      "payable": false,
      "stateMutability": "view",
      "type": "function"
    },
    {
      "constant": true,
      "inputs": [
        {
          "internalType": "bytes32",
          "name": "",
          "type": "bytes32"
        },
        {
          "internalType": "address",
          "name": "",
          "type": "address"
        }
      ],
      "name": "delegatedManagers",
      "outputs": [
        {
          "internalType": "bool",
          "name": "",
          "type": "bool"
        }
      ],
      "payable": false,
      "stateMutability": "view",
      "type": "function"
    },
    {
      "constant": false,
      "inputs": [
        {
          "internalType": "bytes32",
          "name": "loanId",
          "type": "bytes32"
        },
        {
          "internalType": "uint256",
          "name": "depositAmount",
          "type": "uint256"
        }
      ],
      "name": "depositCollateral",
      "outputs": [],
      "payable": true,
      "stateMutability": "payable",
      "type": "function"
    },
    {
      "constant": false,
      "inputs": [
        {
          "internalType": "bytes32",
          "name": "loanId",
          "type": "bytes32"
        },
        {
          "internalType": "uint256",
          "name": "depositAmount",
          "type": "uint256"
        },
        {
          "internalType": "bool",
          "name": "useCollateral",
          "type": "bool"
        },
        {
          "internalType": "bytes",
          "name": "",
          "type": "bytes"
        }
      ],
      "name": "extendLoanDuration",
      "outputs": [
        {
          "internalType": "uint256",
          "name": "secondsExtended",
          "type": "uint256"
        }
      ],
      "payable": true,
      "stateMutability": "payable",
      "type": "function"
    },
    {
      "constant": true,
      "inputs": [],
      "name": "feeRebatePercent",
      "outputs": [
        {
          "internalType": "uint256",
          "name": "",
          "type": "uint256"
        }
      ],
      "payable": false,
      "stateMutability": "view",
      "type": "function"
    },
    {
      "constant": true,
      "inputs": [],
      "name": "feesController",
      "outputs": [
        {
          "internalType": "address",
          "name": "",
          "type": "address"
        }
      ],
      "payable": false,
      "stateMutability": "view",
      "type": "function"
    },
    {
      "constant": true,
      "inputs": [
        {
          "internalType": "uint256",
          "name": "start",
          "type": "uint256"
        },
        {
          "internalType": "uint256",
          "name": "count",
          "type": "uint256"
        },
        {
          "internalType": "bool",
          "name": "unsafeOnly",
          "type": "bool"
        }
      ],
      "name": "getActiveLoans",
      "outputs": [
        {
          "components": [
            {
              "internalType": "bytes32",
              "name": "loanId",
              "type": "bytes32"
            },
            {
              "internalType": "address",
              "name": "loanToken",
              "type": "address"
            },
            {
              "internalType": "address",
              "name": "collateralToken",
              "type": "address"
            },
            {
              "internalType": "uint256",
              "name": "principal",
              "type": "uint256"
            },
            {
              "internalType": "uint256",
              "name": "collateral",
              "type": "uint256"
            },
            {
              "internalType": "uint256",
              "name": "interestOwedPerDay",
              "type": "uint256"
            },
            {
              "internalType": "uint256",
              "name": "interestDepositRemaining",
              "type": "uint256"
            },
            {
              "internalType": "uint256",
              "name": "startRate",
              "type": "uint256"
            },
            {
              "internalType": "uint256",
              "name": "startMargin",
              "type": "uint256"
            },
            {
              "internalType": "uint256",
              "name": "maintenanceMargin",
              "type": "uint256"
            },
            {
              "internalType": "uint256",
              "name": "currentMargin",
              "type": "uint256"
            },
            {
              "internalType": "uint256",
              "name": "maxLoanTerm",
              "type": "uint256"
            },
            {
              "internalType": "uint256",
              "name": "endTimestamp",
              "type": "uint256"
            },
            {
              "internalType": "uint256",
              "name": "maxLiquidatable",
              "type": "uint256"
            },
            {
              "internalType": "uint256",
              "name": "maxSeizable",
              "type": "uint256"
            }
          ],
          "internalType": "struct LoanMaintenance.LoanReturnData[]",
          "name": "loansData",
          "type": "tuple[]"
        }
      ],
      "payable": false,
      "stateMutability": "view",
      "type": "function"
    },
    {
      "constant": true,
      "inputs": [
        {
          "internalType": "uint256",
          "name": "start",
          "type": "uint256"
        },
        {
          "internalType": "uint256",
          "name": "count",
          "type": "uint256"
        },
        {
          "internalType": "bool",
          "name": "unsafeOnly",
          "type": "bool"
        }
      ],
      "name": "getActiveLoansV2",
      "outputs": [
        {
          "components": [
            {
              "internalType": "bytes32",
              "name": "loanId",
              "type": "bytes32"
            },
            {
              "internalType": "address",
              "name": "loanToken",
              "type": "address"
            },
            {
              "internalType": "address",
              "name": "collateralToken",
              "type": "address"
            },
            {
              "internalType": "address",
              "name": "borrower",
              "type": "address"
            },
            {
              "internalType": "uint256",
              "name": "principal",
              "type": "uint256"
            },
            {
              "internalType": "uint256",
              "name": "collateral",
              "type": "uint256"
            },
            {
              "internalType": "uint256",
              "name": "interestOwedPerDay",
              "type": "uint256"
            },
            {
              "internalType": "uint256",
              "name": "interestDepositRemaining",
              "type": "uint256"
            },
            {
              "internalType": "uint256",
              "name": "startRate",
              "type": "uint256"
            },
            {
              "internalType": "uint256",
              "name": "startMargin",
              "type": "uint256"
            },
            {
              "internalType": "uint256",
              "name": "maintenanceMargin",
              "type": "uint256"
            },
            {
              "internalType": "uint256",
              "name": "currentMargin",
              "type": "uint256"
            },
            {
              "internalType": "uint256",
              "name": "maxLoanTerm",
              "type": "uint256"
            },
            {
              "internalType": "uint256",
              "name": "endTimestamp",
              "type": "uint256"
            },
            {
              "internalType": "uint256",
              "name": "maxLiquidatable",
              "type": "uint256"
            },
            {
              "internalType": "uint256",
              "name": "maxSeizable",
              "type": "uint256"
            },
            {
              "internalType": "uint256",
              "name": "creationTimestamp",
              "type": "uint256"
            }
          ],
          "internalType": "struct LoanMaintenance.LoanReturnDataV2[]",
          "name": "loansDataV2",
          "type": "tuple[]"
        }
      ],
      "payable": false,
      "stateMutability": "view",
      "type": "function"
    },
    {
      "constant": true,
      "inputs": [
        {
          "internalType": "address",
          "name": "lender",
          "type": "address"
        },
        {
          "internalType": "address",
          "name": "loanToken",
          "type": "address"
        }
      ],
      "name": "getLenderInterestData",
      "outputs": [
        {
          "internalType": "uint256",
          "name": "interestPaid",
          "type": "uint256"
        },
        {
          "internalType": "uint256",
          "name": "interestPaidDate",
          "type": "uint256"
        },
        {
          "internalType": "uint256",
          "name": "interestOwedPerDay",
          "type": "uint256"
        },
        {
          "internalType": "uint256",
          "name": "interestUnPaid",
          "type": "uint256"
        },
        {
          "internalType": "uint256",
          "name": "interestFeePercent",
          "type": "uint256"
        },
        {
          "internalType": "uint256",
          "name": "principalTotal",
          "type": "uint256"
        }
      ],
      "payable": false,
      "stateMutability": "view",
      "type": "function"
    },
    {
      "constant": true,
      "inputs": [
        {
          "internalType": "bytes32",
          "name": "loanId",
          "type": "bytes32"
        }
      ],
      "name": "getLoan",
      "outputs": [
        {
          "components": [
            {
              "internalType": "bytes32",
              "name": "loanId",
              "type": "bytes32"
            },
            {
              "internalType": "address",
              "name": "loanToken",
              "type": "address"
            },
            {
              "internalType": "address",
              "name": "collateralToken",
              "type": "address"
            },
            {
              "internalType": "uint256",
              "name": "principal",
              "type": "uint256"
            },
            {
              "internalType": "uint256",
              "name": "collateral",
              "type": "uint256"
            },
            {
              "internalType": "uint256",
              "name": "interestOwedPerDay",
              "type": "uint256"
            },
            {
              "internalType": "uint256",
              "name": "interestDepositRemaining",
              "type": "uint256"
            },
            {
              "internalType": "uint256",
              "name": "startRate",
              "type": "uint256"
            },
            {
              "internalType": "uint256",
              "name": "startMargin",
              "type": "uint256"
            },
            {
              "internalType": "uint256",
              "name": "maintenanceMargin",
              "type": "uint256"
            },
            {
              "internalType": "uint256",
              "name": "currentMargin",
              "type": "uint256"
            },
            {
              "internalType": "uint256",
              "name": "maxLoanTerm",
              "type": "uint256"
            },
            {
              "internalType": "uint256",
              "name": "endTimestamp",
              "type": "uint256"
            },
            {
              "internalType": "uint256",
              "name": "maxLiquidatable",
              "type": "uint256"
            },
            {
              "internalType": "uint256",
              "name": "maxSeizable",
              "type": "uint256"
            }
          ],
          "internalType": "struct LoanMaintenance.LoanReturnData",
          "name": "loanData",
          "type": "tuple"
        }
      ],
      "payable": false,
      "stateMutability": "view",
      "type": "function"
    },
    {
      "constant": true,
      "inputs": [
        {
          "internalType": "bytes32",
          "name": "loanId",
          "type": "bytes32"
        }
      ],
      "name": "getLoanInterestData",
      "outputs": [
        {
          "internalType": "address",
          "name": "loanToken",
          "type": "address"
        },
        {
          "internalType": "uint256",
          "name": "interestOwedPerDay",
          "type": "uint256"
        },
        {
          "internalType": "uint256",
          "name": "interestDepositTotal",
          "type": "uint256"
        },
        {
          "internalType": "uint256",
          "name": "interestDepositRemaining",
          "type": "uint256"
        }
      ],
      "payable": false,
      "stateMutability": "view",
      "type": "function"
    },
    {
      "constant": true,
      "inputs": [
        {
          "internalType": "bytes32",
          "name": "loanId",
          "type": "bytes32"
        }
      ],
      "name": "getLoanV2",
      "outputs": [
        {
          "components": [
            {
              "internalType": "bytes32",
              "name": "loanId",
              "type": "bytes32"
            },
            {
              "internalType": "address",
              "name": "loanToken",
              "type": "address"
            },
            {
              "internalType": "address",
              "name": "collateralToken",
              "type": "address"
            },
            {
              "internalType": "address",
              "name": "borrower",
              "type": "address"
            },
            {
              "internalType": "uint256",
              "name": "principal",
              "type": "uint256"
            },
            {
              "internalType": "uint256",
              "name": "collateral",
              "type": "uint256"
            },
            {
              "internalType": "uint256",
              "name": "interestOwedPerDay",
              "type": "uint256"
            },
            {
              "internalType": "uint256",
              "name": "interestDepositRemaining",
              "type": "uint256"
            },
            {
              "internalType": "uint256",
              "name": "startRate",
              "type": "uint256"
            },
            {
              "internalType": "uint256",
              "name": "startMargin",
              "type": "uint256"
            },
            {
              "internalType": "uint256",
              "name": "maintenanceMargin",
              "type": "uint256"
            },
            {
              "internalType": "uint256",
              "name": "currentMargin",
              "type": "uint256"
            },
            {
              "internalType": "uint256",
              "name": "maxLoanTerm",
              "type": "uint256"
            },
            {
              "internalType": "uint256",
              "name": "endTimestamp",
              "type": "uint256"
            },
            {
              "internalType": "uint256",
              "name": "maxLiquidatable",
              "type": "uint256"
            },
            {
              "internalType": "uint256",
              "name": "maxSeizable",
              "type": "uint256"
            },
            {
              "internalType": "uint256",
              "name": "creationTimestamp",
              "type": "uint256"
            }
          ],
          "internalType": "struct LoanMaintenance.LoanReturnDataV2",
          "name": "loanDataV2",
          "type": "tuple"
        }
      ],
      "payable": false,
      "stateMutability": "view",
      "type": "function"
    },
    {
      "constant": true,
      "inputs": [
        {
          "internalType": "address",
          "name": "user",
          "type": "address"
        },
        {
          "internalType": "uint256",
          "name": "start",
          "type": "uint256"
        },
        {
          "internalType": "uint256",
          "name": "count",
          "type": "uint256"
        },
        {
          "internalType": "uint256",
          "name": "loanType",
          "type": "uint256"
        },
        {
          "internalType": "bool",
          "name": "isLender",
          "type": "bool"
        },
        {
          "internalType": "bool",
          "name": "unsafeOnly",
          "type": "bool"
        }
      ],
      "name": "getUserLoans",
      "outputs": [
        {
          "components": [
            {
              "internalType": "bytes32",
              "name": "loanId",
              "type": "bytes32"
            },
            {
              "internalType": "address",
              "name": "loanToken",
              "type": "address"
            },
            {
              "internalType": "address",
              "name": "collateralToken",
              "type": "address"
            },
            {
              "internalType": "uint256",
              "name": "principal",
              "type": "uint256"
            },
            {
              "internalType": "uint256",
              "name": "collateral",
              "type": "uint256"
            },
            {
              "internalType": "uint256",
              "name": "interestOwedPerDay",
              "type": "uint256"
            },
            {
              "internalType": "uint256",
              "name": "interestDepositRemaining",
              "type": "uint256"
            },
            {
              "internalType": "uint256",
              "name": "startRate",
              "type": "uint256"
            },
            {
              "internalType": "uint256",
              "name": "startMargin",
              "type": "uint256"
            },
            {
              "internalType": "uint256",
              "name": "maintenanceMargin",
              "type": "uint256"
            },
            {
              "internalType": "uint256",
              "name": "currentMargin",
              "type": "uint256"
            },
            {
              "internalType": "uint256",
              "name": "maxLoanTerm",
              "type": "uint256"
            },
            {
              "internalType": "uint256",
              "name": "endTimestamp",
              "type": "uint256"
            },
            {
              "internalType": "uint256",
              "name": "maxLiquidatable",
              "type": "uint256"
            },
            {
              "internalType": "uint256",
              "name": "maxSeizable",
              "type": "uint256"
            }
          ],
          "internalType": "struct LoanMaintenance.LoanReturnData[]",
          "name": "loansData",
          "type": "tuple[]"
        }
      ],
      "payable": false,
      "stateMutability": "view",
      "type": "function"
    },
    {
      "constant": true,
      "inputs": [
        {
          "internalType": "address",
          "name": "user",
          "type": "address"
        },
        {
          "internalType": "uint256",
          "name": "start",
          "type": "uint256"
        },
        {
          "internalType": "uint256",
          "name": "count",
          "type": "uint256"
        },
        {
          "internalType": "uint256",
          "name": "loanType",
          "type": "uint256"
        },
        {
          "internalType": "bool",
          "name": "isLender",
          "type": "bool"
        },
        {
          "internalType": "bool",
          "name": "unsafeOnly",
          "type": "bool"
        }
      ],
      "name": "getUserLoansV2",
      "outputs": [
        {
          "components": [
            {
              "internalType": "bytes32",
              "name": "loanId",
              "type": "bytes32"
            },
            {
              "internalType": "address",
              "name": "loanToken",
              "type": "address"
            },
            {
              "internalType": "address",
              "name": "collateralToken",
              "type": "address"
            },
            {
              "internalType": "address",
              "name": "borrower",
              "type": "address"
            },
            {
              "internalType": "uint256",
              "name": "principal",
              "type": "uint256"
            },
            {
              "internalType": "uint256",
              "name": "collateral",
              "type": "uint256"
            },
            {
              "internalType": "uint256",
              "name": "interestOwedPerDay",
              "type": "uint256"
            },
            {
              "internalType": "uint256",
              "name": "interestDepositRemaining",
              "type": "uint256"
            },
            {
              "internalType": "uint256",
              "name": "startRate",
              "type": "uint256"
            },
            {
              "internalType": "uint256",
              "name": "startMargin",
              "type": "uint256"
            },
            {
              "internalType": "uint256",
              "name": "maintenanceMargin",
              "type": "uint256"
            },
            {
              "internalType": "uint256",
              "name": "currentMargin",
              "type": "uint256"
            },
            {
              "internalType": "uint256",
              "name": "maxLoanTerm",
              "type": "uint256"
            },
            {
              "internalType": "uint256",
              "name": "endTimestamp",
              "type": "uint256"
            },
            {
              "internalType": "uint256",
              "name": "maxLiquidatable",
              "type": "uint256"
            },
            {
              "internalType": "uint256",
              "name": "maxSeizable",
              "type": "uint256"
            },
            {
              "internalType": "uint256",
              "name": "creationTimestamp",
              "type": "uint256"
            }
          ],
          "internalType": "struct LoanMaintenance.LoanReturnDataV2[]",
          "name": "loansDataV2",
          "type": "tuple[]"
        }
      ],
      "payable": false,
      "stateMutability": "view",
      "type": "function"
    },
    {
      "constant": false,
      "inputs": [
        {
          "internalType": "address",
          "name": "target",
          "type": "address"
        }
      ],
      "name": "initialize",
      "outputs": [],
      "payable": false,
      "stateMutability": "nonpayable",
      "type": "function"
    },
    {
      "constant": true,
      "inputs": [],
      "name": "isOwner",
      "outputs": [
        {
          "internalType": "bool",
          "name": "",
          "type": "bool"
        }
      ],
      "payable": false,
      "stateMutability": "view",
      "type": "function"
    },
    {
      "constant": true,
      "inputs": [
        {
          "internalType": "address",
          "name": "",
          "type": "address"
        },
        {
          "internalType": "address",
          "name": "",
          "type": "address"
        }
      ],
      "name": "lenderInterest",
      "outputs": [
        {
          "internalType": "uint256",
          "name": "principalTotal",
          "type": "uint256"
        },
        {
          "internalType": "uint256",
          "name": "owedPerDay",
          "type": "uint256"
        },
        {
          "internalType": "uint256",
          "name": "owedTotal",
          "type": "uint256"
        },
        {
          "internalType": "uint256",
          "name": "paidTotal",
          "type": "uint256"
        },
        {
          "internalType": "uint256",
          "name": "updatedTimestamp",
          "type": "uint256"
        }
      ],
      "payable": false,
      "stateMutability": "view",
      "type": "function"
    },
    {
      "constant": true,
      "inputs": [
        {
          "internalType": "address",
          "name": "",
          "type": "address"
        },
        {
          "internalType": "bytes32",
          "name": "",
          "type": "bytes32"
        }
      ],
      "name": "lenderOrders",
      "outputs": [
        {
          "internalType": "uint256",
          "name": "lockedAmount",
          "type": "uint256"
        },
        {
          "internalType": "uint256",
          "name": "interestRate",
          "type": "uint256"
        },
        {
          "internalType": "uint256",
          "name": "minLoanTerm",
          "type": "uint256"
        },
        {
          "internalType": "uint256",
          "name": "maxLoanTerm",
          "type": "uint256"
        },
        {
          "internalType": "uint256",
          "name": "createdTimestamp",
          "type": "uint256"
        },
        {
          "internalType": "uint256",
          "name": "expirationTimestamp",
          "type": "uint256"
        }
      ],
      "payable": false,
      "stateMutability": "view",
      "type": "function"
    },
    {
      "constant": true,
      "inputs": [],
      "name": "lendingFeePercent",
      "outputs": [
        {
          "internalType": "uint256",
          "name": "",
          "type": "uint256"
        }
      ],
      "payable": false,
      "stateMutability": "view",
      "type": "function"
    },
    {
      "constant": true,
      "inputs": [
        {
          "internalType": "address",
          "name": "",
          "type": "address"
        }
      ],
      "name": "lendingFeeTokensHeld",
      "outputs": [
        {
          "internalType": "uint256",
          "name": "",
          "type": "uint256"
        }
      ],
      "payable": false,
      "stateMutability": "view",
      "type": "function"
    },
    {
      "constant": true,
      "inputs": [
        {
          "internalType": "address",
          "name": "",
          "type": "address"
        }
      ],
      "name": "lendingFeeTokensPaid",
      "outputs": [
        {
          "internalType": "uint256",
          "name": "",
          "type": "uint256"
        }
      ],
      "payable": false,
      "stateMutability": "view",
      "type": "function"
    },
    {
      "constant": true,
      "inputs": [],
      "name": "liquidationIncentivePercent",
      "outputs": [
        {
          "internalType": "uint256",
          "name": "",
          "type": "uint256"
        }
      ],
      "payable": false,
      "stateMutability": "view",
      "type": "function"
    },
    {
      "constant": true,
      "inputs": [
        {
          "internalType": "bytes32",
          "name": "",
          "type": "bytes32"
        }
      ],
      "name": "loanInterest",
      "outputs": [
        {
          "internalType": "uint256",
          "name": "owedPerDay",
          "type": "uint256"
        },
        {
          "internalType": "uint256",
          "name": "depositTotal",
          "type": "uint256"
        },
        {
          "internalType": "uint256",
          "name": "updatedTimestamp",
          "type": "uint256"
        }
      ],
      "payable": false,
      "stateMutability": "view",
      "type": "function"
    },
    {
      "constant": true,
      "inputs": [
        {
          "internalType": "bytes32",
          "name": "",
          "type": "bytes32"
        }
      ],
      "name": "loanParams",
      "outputs": [
        {
          "internalType": "bytes32",
          "name": "id",
          "type": "bytes32"
        },
        {
          "internalType": "bool",
          "name": "active",
          "type": "bool"
        },
        {
          "internalType": "address",
          "name": "owner",
          "type": "address"
        },
        {
          "internalType": "address",
          "name": "loanToken",
          "type": "address"
        },
        {
          "internalType": "address",
          "name": "collateralToken",
          "type": "address"
        },
        {
          "internalType": "uint256",
          "name": "minInitialMargin",
          "type": "uint256"
        },
        {
          "internalType": "uint256",
          "name": "maintenanceMargin",
          "type": "uint256"
        },
        {
          "internalType": "uint256",
          "name": "maxLoanTerm",
          "type": "uint256"
        }
      ],
      "payable": false,
      "stateMutability": "view",
      "type": "function"
    },
    {
      "constant": true,
      "inputs": [
        {
          "internalType": "address",
          "name": "",
          "type": "address"
        }
      ],
      "name": "loanPoolToUnderlying",
      "outputs": [
        {
          "internalType": "address",
          "name": "",
          "type": "address"
        }
      ],
      "payable": false,
      "stateMutability": "view",
      "type": "function"
    },
    {
      "constant": true,
      "inputs": [
        {
          "internalType": "bytes32",
          "name": "",
          "type": "bytes32"
        }
      ],
      "name": "loans",
      "outputs": [
        {
          "internalType": "bytes32",
          "name": "id",
          "type": "bytes32"
        },
        {
          "internalType": "bytes32",
          "name": "loanParamsId",
          "type": "bytes32"
        },
        {
          "internalType": "bytes32",
          "name": "pendingTradesId",
          "type": "bytes32"
        },
        {
          "internalType": "bool",
          "name": "active",
          "type": "bool"
        },
        {
          "internalType": "uint256",
          "name": "principal",
          "type": "uint256"
        },
        {
          "internalType": "uint256",
          "name": "collateral",
          "type": "uint256"
        },
        {
          "internalType": "uint256",
          "name": "startTimestamp",
          "type": "uint256"
        },
        {
          "internalType": "uint256",
          "name": "endTimestamp",
          "type": "uint256"
        },
        {
          "internalType": "uint256",
          "name": "startMargin",
          "type": "uint256"
        },
        {
          "internalType": "uint256",
          "name": "startRate",
          "type": "uint256"
        },
        {
          "internalType": "address",
          "name": "borrower",
          "type": "address"
        },
        {
          "internalType": "address",
          "name": "lender",
          "type": "address"
        }
      ],
      "payable": false,
      "stateMutability": "view",
      "type": "function"
    },
    {
      "constant": true,
      "inputs": [],
      "name": "lockedSOVAddress",
      "outputs": [
        {
          "internalType": "address",
          "name": "",
          "type": "address"
        }
      ],
      "payable": false,
      "stateMutability": "view",
      "type": "function"
    },
    {
      "constant": true,
      "inputs": [
        {
          "internalType": "bytes4",
          "name": "",
          "type": "bytes4"
        }
      ],
      "name": "logicTargets",
      "outputs": [
        {
          "internalType": "address",
          "name": "",
          "type": "address"
        }
      ],
      "payable": false,
      "stateMutability": "view",
      "type": "function"
    },
    {
      "constant": true,
      "inputs": [],
      "name": "maxDisagreement",
      "outputs": [
        {
          "internalType": "uint256",
          "name": "",
          "type": "uint256"
        }
      ],
      "payable": false,
      "stateMutability": "view",
      "type": "function"
    },
    {
      "constant": true,
      "inputs": [],
      "name": "maxSwapSize",
      "outputs": [
        {
          "internalType": "uint256",
          "name": "",
          "type": "uint256"
        }
      ],
      "payable": false,
      "stateMutability": "view",
      "type": "function"
    },
    {
      "constant": true,
      "inputs": [],
      "name": "minReferralsToPayout",
      "outputs": [
        {
          "internalType": "uint256",
          "name": "",
          "type": "uint256"
        }
      ],
      "payable": false,
      "stateMutability": "view",
      "type": "function"
    },
    {
      "constant": true,
      "inputs": [],
      "name": "owner",
      "outputs": [
        {
          "internalType": "address",
          "name": "",
          "type": "address"
        }
      ],
      "payable": false,
      "stateMutability": "view",
      "type": "function"
    },
    {
      "constant": true,
      "inputs": [],
      "name": "pause",
      "outputs": [
        {
          "internalType": "bool",
          "name": "",
          "type": "bool"
        }
      ],
      "payable": false,
      "stateMutability": "view",
      "type": "function"
    },
    {
      "constant": true,
      "inputs": [],
      "name": "priceFeeds",
      "outputs": [
        {
          "internalType": "address",
          "name": "",
          "type": "address"
        }
      ],
      "payable": false,
      "stateMutability": "view",
      "type": "function"
    },
    {
      "constant": true,
      "inputs": [],
      "name": "protocolAddress",
      "outputs": [
        {
          "internalType": "address",
          "name": "",
          "type": "address"
        }
      ],
      "payable": false,
      "stateMutability": "view",
      "type": "function"
    },
    {
      "constant": true,
      "inputs": [],
      "name": "protocolTokenAddress",
      "outputs": [
        {
          "internalType": "address",
          "name": "",
          "type": "address"
        }
      ],
      "payable": false,
      "stateMutability": "view",
      "type": "function"
    },
    {
      "constant": true,
      "inputs": [],
      "name": "protocolTokenHeld",
      "outputs": [
        {
          "internalType": "uint256",
          "name": "",
          "type": "uint256"
        }
      ],
      "payable": false,
      "stateMutability": "view",
      "type": "function"
    },
    {
      "constant": true,
      "inputs": [],
      "name": "protocolTokenPaid",
      "outputs": [
        {
          "internalType": "uint256",
          "name": "",
          "type": "uint256"
        }
      ],
      "payable": false,
      "stateMutability": "view",
      "type": "function"
    },
    {
      "constant": false,
      "inputs": [
        {
          "internalType": "bytes32",
          "name": "loanId",
          "type": "bytes32"
        },
        {
          "internalType": "address",
          "name": "receiver",
          "type": "address"
        },
        {
          "internalType": "uint256",
          "name": "withdrawAmount",
          "type": "uint256"
        }
      ],
      "name": "reduceLoanDuration",
      "outputs": [
        {
          "internalType": "uint256",
          "name": "secondsReduced",
          "type": "uint256"
        }
      ],
      "payable": false,
      "stateMutability": "nonpayable",
      "type": "function"
    },
    {
      "constant": true,
      "inputs": [],
      "name": "rolloverBaseReward",
      "outputs": [
        {
          "internalType": "uint256",
          "name": "",
          "type": "uint256"
        }
      ],
      "payable": false,
      "stateMutability": "view",
      "type": "function"
    },
    {
      "constant": true,
      "inputs": [],
      "name": "rolloverFlexFeePercent",
      "outputs": [
        {
          "internalType": "uint256",
          "name": "",
          "type": "uint256"
        }
      ],
      "payable": false,
      "stateMutability": "view",
      "type": "function"
    },
    {
      "constant": true,
      "inputs": [],
      "name": "sourceBuffer",
      "outputs": [
        {
          "internalType": "uint256",
          "name": "",
          "type": "uint256"
        }
      ],
      "payable": false,
      "stateMutability": "view",
      "type": "function"
    },
    {
      "constant": true,
      "inputs": [],
      "name": "sovTokenAddress",
      "outputs": [
        {
          "internalType": "address",
          "name": "",
          "type": "address"
        }
      ],
      "payable": false,
      "stateMutability": "view",
      "type": "function"
    },
    {
      "constant": true,
      "inputs": [],
      "name": "sovrynSwapContractRegistryAddress",
      "outputs": [
        {
          "internalType": "address",
          "name": "",
          "type": "address"
        }
      ],
      "payable": false,
      "stateMutability": "view",
      "type": "function"
    },
    {
      "constant": true,
      "inputs": [
        {
          "internalType": "address",
          "name": "",
          "type": "address"
        },
        {
          "internalType": "address",
          "name": "",
          "type": "address"
        }
      ],
      "name": "specialRebates",
      "outputs": [
        {
          "internalType": "uint256",
          "name": "",
          "type": "uint256"
        }
      ],
      "payable": false,
      "stateMutability": "view",
      "type": "function"
    },
    {
      "constant": true,
      "inputs": [
        {
          "internalType": "address",
          "name": "",
          "type": "address"
        }
      ],
      "name": "supportedTokens",
      "outputs": [
        {
          "internalType": "bool",
          "name": "",
          "type": "bool"
        }
      ],
      "payable": false,
      "stateMutability": "view",
      "type": "function"
    },
    {
      "constant": true,
      "inputs": [],
      "name": "swapsImpl",
      "outputs": [
        {
          "internalType": "address",
          "name": "",
          "type": "address"
        }
      ],
      "payable": false,
      "stateMutability": "view",
      "type": "function"
    },
    {
      "constant": true,
      "inputs": [],
      "name": "tradingFeePercent",
      "outputs": [
        {
          "internalType": "uint256",
          "name": "",
          "type": "uint256"
        }
      ],
      "payable": false,
      "stateMutability": "view",
      "type": "function"
    },
    {
      "constant": true,
      "inputs": [
        {
          "internalType": "address",
          "name": "",
          "type": "address"
        }
      ],
      "name": "tradingFeeTokensHeld",
      "outputs": [
        {
          "internalType": "uint256",
          "name": "",
          "type": "uint256"
        }
      ],
      "payable": false,
      "stateMutability": "view",
      "type": "function"
    },
    {
      "constant": true,
      "inputs": [
        {
          "internalType": "address",
          "name": "",
          "type": "address"
        }
      ],
      "name": "tradingFeeTokensPaid",
      "outputs": [
        {
          "internalType": "uint256",
          "name": "",
          "type": "uint256"
        }
      ],
      "payable": false,
      "stateMutability": "view",
      "type": "function"
    },
    {
      "constant": false,
      "inputs": [
        {
          "internalType": "address",
          "name": "newOwner",
          "type": "address"
        }
      ],
      "name": "transferOwnership",
      "outputs": [],
      "payable": false,
      "stateMutability": "nonpayable",
      "type": "function"
    },
    {
      "constant": true,
      "inputs": [
        {
          "internalType": "address",
          "name": "",
          "type": "address"
        }
      ],
      "name": "underlyingToLoanPool",
      "outputs": [
        {
          "internalType": "address",
          "name": "",
          "type": "address"
        }
      ],
      "payable": false,
      "stateMutability": "view",
      "type": "function"
    },
    {
      "constant": true,
      "inputs": [
        {
          "internalType": "address",
          "name": "",
          "type": "address"
        }
      ],
      "name": "userNotFirstTradeFlag",
      "outputs": [
        {
          "internalType": "bool",
          "name": "",
          "type": "bool"
        }
      ],
      "payable": false,
      "stateMutability": "view",
      "type": "function"
    },
    {
      "constant": false,
      "inputs": [
        {
          "internalType": "address",
          "name": "loanToken",
          "type": "address"
        }
      ],
      "name": "withdrawAccruedInterest",
      "outputs": [],
      "payable": false,
      "stateMutability": "nonpayable",
      "type": "function"
    },
    {
      "constant": false,
      "inputs": [
        {
          "internalType": "bytes32",
          "name": "loanId",
          "type": "bytes32"
        },
        {
          "internalType": "address",
          "name": "receiver",
          "type": "address"
        },
        {
          "internalType": "uint256",
          "name": "withdrawAmount",
          "type": "uint256"
        }
      ],
      "name": "withdrawCollateral",
      "outputs": [
        {
          "internalType": "uint256",
          "name": "actualWithdrawAmount",
          "type": "uint256"
        }
      ],
      "payable": false,
      "stateMutability": "nonpayable",
      "type": "function"
    },
    {
      "constant": true,
      "inputs": [],
      "name": "wrbtcToken",
      "outputs": [
        {
          "internalType": "contract IWrbtcERC20",
          "name": "",
          "type": "address"
        }
      ],
      "payable": false,
      "stateMutability": "view",
      "type": "function"
    }
  ],
  "transactionHash": "0x869036efa26fb27d44ea1dc0d2bca11ada1b87d584231accba98b8f86c5d26e6",
  "args": [],
  "numDeployments": 1,
  "solcInputHash": "9310031b42d2950fea7a6220c73f2cc4",
  "bytecode": "0x60806040526001600055678ac7230489e80000601555670214e8348c4f000060185567013fbe85edc90000601b55674563918244f40000602055674563918244f40000602155674563918244f400006027556127106028556802b5e3af16b1880000602955650f478e084000602b5567016345785d8a0000602c556802b5e3af16b1880000602f5560036035556801158e460913d00000603955348015620000a657600080fd5b506000620000bc6001600160e01b036200011016565b600180546001600160a01b0319166001600160a01b038316908117909155604051919250906000907f8be0079c531659141344cd1fd0a4f28419497f9722a3daafe3b4186f6b6457e0908290a35062000114565b3390565b615bf880620001246000396000f3fe6080604052600436106103d95760003560e01c80638f32d59b116101fd578063cfc85c0611610118578063e81fefa0116100ab578063f2fde38b1161007a578063f2fde38b14610b66578063f589a3e714610b86578063f6ddc8b314610b9b578063f706b1f214610bb0578063f851a44014610bc5576103d9565b8063e81fefa014610b07578063e8f6276414610b27578063edab119f14610b3c578063f0e085f514610b51576103d9565b8063d485045e116100e7578063d485045e14610a94578063db35400d14610ab4578063dea9b46414610ad4578063e69226c714610ae7576103d9565b8063cfc85c0614610a37578063d1979fb014610a4a578063d288208c14610a6a578063d473c2da14610a7f576103d9565b8063b7e1524111610190578063c4a908151161015f578063c4a9081514610989578063c4d66de8146109c1578063cb6eacd1146109e3578063cd5d808d14610a17576103d9565b8063b7e152411461091f578063b9cffa3e1461093f578063ba4861e914610954578063bdee453c14610969576103d9565b8063acc04348116101cc578063acc04348146108b3578063ae0a8530146108c8578063afe84009146108dd578063b30643d9146108ff576103d9565b80638f32d59b1461083957806392d894f81461084e578063959083d31461086e5780639b16cd8714610883576103d9565b80634955d938116102f85780637420ca3e1161028b5780637a8faeb81161025a5780637a8faeb8146107ad5780638456cb59146107c25780638932f5f7146107d75780638da5cb5b146108045780638dc48ba514610819576103d9565b80637420ca3e14610741578063742e67981461075657806376a2743c1461076b57806378d849ed14610798576103d9565b806360857c2c116102c757806360857c2c146106b057806362fff3f6146106d057806368c4ac26146107015780636e66373014610721576103d9565b80634955d9381461062a5780634f28cac214610657578063569fc1fb1461066c578063574442cc1461069b576103d9565b80632a324027116103705780633fca506e1161033f5780633fca506e146105b55780634115a2b6146105d55780634203e395146105f55780634699f84614610615576103d9565b80632a3240271461054b5780632f470764146105605780633432423c146105755780633452d2d414610595576103d9565b806317548b79116103ac57806317548b79146104be5780631b7bde74146104de578063218b39c6146104fe57806324cc57491461051e576103d9565b806302a3fe6414610407578063065d810f1461043d5780630676c1b71461046f578063122f0e3a14610491575b3480156103e557600080fd5b5060405162461bcd60e51b81526004016103fe90615996565b60405180910390fd5b34801561041357600080fd5b50610427610422366004614846565b610bda565b60405161043491906156ee565b60405180910390f35b34801561044957600080fd5b5061045d610458366004614816565b610d27565b60405161043496959493929190615aa7565b34801561047b57600080fd5b50610484610d67565b6040516104349190615593565b34801561049d57600080fd5b506104b16104ac366004614928565b610d76565b6040516104349190615a62565b3480156104ca57600080fd5b506104846104d9366004614a12565b611116565b3480156104ea57600080fd5b506104b16104f93660046147dc565b611131565b34801561050a57600080fd5b506104846105193660046147be565b61114e565b34801561052a57600080fd5b5061053e6105393660046147be565b611169565b60405161043491906156ff565b34801561055757600080fd5b506104b161117e565b34801561056c57600080fd5b506104b1611184565b34801561058157600080fd5b5061045d610590366004614816565b61118a565b3480156105a157600080fd5b506104b16105b03660046147be565b6111ca565b3480156105c157600080fd5b506104b16105d03660046147be565b6111dc565b3480156105e157600080fd5b5061053e6105f0366004614909565b6111ee565b34801561060157600080fd5b506104b16106103660046147be565b61120e565b34801561062157600080fd5b506104b1611220565b34801561063657600080fd5b5061064a6106453660046148eb565b611226565b6040516104349190615a36565b34801561066357600080fd5b506104b1611240565b34801561067857600080fd5b5061068c6106873660046148eb565b611246565b60405161043493929190615a7e565b3480156106a757600080fd5b506104b1611267565b3480156106bc57600080fd5b506104276106cb366004614a7e565b61126d565b3480156106dc57600080fd5b506106f06106eb3660046147dc565b61136c565b604051610434959493929190615a8c565b34801561070d57600080fd5b5061053e61071c3660046147be565b6113a6565b34801561072d57600080fd5b5061048461073c3660046147be565b6113bb565b34801561074d57600080fd5b506104846113d6565b34801561076257600080fd5b506104b16113e5565b34801561077757600080fd5b5061078b610786366004614a7e565b6113eb565b60405161043491906156dd565b3480156107a457600080fd5b506104846114c3565b3480156107b957600080fd5b506104b16114d2565b3480156107ce57600080fd5b5061053e6114d8565b3480156107e357600080fd5b506107f76107f23660046148eb565b6114e1565b6040516104349190615a45565b34801561081057600080fd5b506104846114f5565b34801561082557600080fd5b506104846108343660046147be565b611504565b34801561084557600080fd5b5061053e61151f565b34801561085a57600080fd5b506104b16108693660046147be565b611545565b34801561087a57600080fd5b506104b1611557565b34801561088f57600080fd5b506108a361089e3660046148eb565b61155d565b60405161043494939291906156c2565b3480156108bf57600080fd5b506104b16115ee565b3480156108d457600080fd5b506104b16115f4565b3480156108e957600080fd5b506108f26115fa565b6040516104349190615837565b34801561090b57600080fd5b506104b161091a3660046147be565b611609565b34801561092b57600080fd5b506104b161093a3660046147be565b61161b565b34801561094b57600080fd5b5061048461162d565b34801561096057600080fd5b5061048461163c565b34801561097557600080fd5b506104b16109843660046147be565b61164b565b34801561099557600080fd5b506109a96109a43660046148eb565b61165d565b6040516104349c9b9a99989796959493929190615784565b3480156109cd57600080fd5b506109e16109dc3660046147be565b6116cf565b005b3480156109ef57600080fd5b50610a036109fe3660046148eb565b61185d565b60405161043498979695949392919061570d565b348015610a2357600080fd5b506104b1610a323660046147dc565b6118af565b6104b1610a45366004614994565b6118cc565b348015610a5657600080fd5b5061045d610a653660046147dc565b611d4b565b348015610a7657600080fd5b50610484611e3a565b348015610a8b57600080fd5b506104b1611e49565b348015610aa057600080fd5b506104b1610aaf3660046147be565b611e4f565b348015610ac057600080fd5b506104b1610acf366004614928565b611e61565b6109e1610ae2366004614975565b612086565b348015610af357600080fd5b5061078b610b02366004614846565b6122ac565b348015610b1357600080fd5b506109e1610b223660046147be565b6123c2565b348015610b3357600080fd5b506104846123f2565b348015610b4857600080fd5b506104b1612401565b348015610b5d57600080fd5b506104b1612407565b348015610b7257600080fd5b506109e1610b813660046147be565b61240d565b348015610b9257600080fd5b506104b161243a565b348015610ba757600080fd5b506104b1612440565b348015610bbc57600080fd5b50610484612446565b348015610bd157600080fd5b50610484612455565b6060600083610c00576001600160a01b0388166000908152601260205260409020610c19565b6001600160a01b03881660009081526011602052604090205b90506000610c45610c2983612464565b610c398a8a63ffffffff61246b16565b9063ffffffff61249016565b9050808810610c565750610d1d9050565b86604051908082528060200260200182016040528015610c9057816020015b610c7d6144d2565b815260200190600190039081610c755790505b50925060008882035b8015610d0c5788821415610cac57610d0c565b610cb46144d2565b610cd4610ccd86600019858f010163ffffffff6124a616565b8a896124ca565b8051909150610ce35750610d03565b80868481518110610cf057fe5b6020908102919091010152506001909101905b60001901610c99565b5087811015610d19578084525b5050505b9695505050505050565b6009602090815260009283526040808420909152908252902080546001820154600283015460038401546004850154600590950154939492939192909186565b6031546001600160a01b031681565b6000600160005414610d9a5760405162461bcd60e51b81526004016103fe906159c6565b6002600055603d5460ff1615610dc25760405162461bcd60e51b81526004016103fe90615866565b81610ddf5760405162461bcd60e51b81526004016103fe90615856565b6000848152600660209081526040808320600181015484526007909252909120600382015460ff16610e235760405162461bcd60e51b81526004016103fe906159b6565b600a8201546001600160a01b0316331480610e59575081546000908152600a6020908152604080832033845290915290205460ff165b610e755760405162461bcd60e51b81526004016103fe90615966565b600681015415610e975760405162461bcd60e51b81526004016103fe90615896565b42826007015411610eba5760405162461bcd60e51b81526004016103fe906159f6565b600b8201546002820154610eda916001600160a01b039081169116612850565b81546000818152600c6020526040902060028301546003840154600a8601549293610f1a93859391926001600160a01b039283169290811691164261292e565b6000610f5a62015180610f4e8460000154610f4242896007015461298990919063ffffffff16565b9063ffffffff6129cb16565b9063ffffffff612a0516565b9050808610610f7b5760405162461bcd60e51b81526004016103fe90615936565b602d5460028401546001600160a01b0390811691161415610fa557610fa08787612a47565b610fbe565b6002830154610fbe906001600160a01b03168888612b1f565b8154610fd790610f4e886201518063ffffffff6129cb16565b945084846007015411610ffc5760405162461bcd60e51b81526004016103fe906158d6565b6007840154611011908663ffffffff61298916565b6007850181905542106110365760405162461bcd60e51b81526004016103fe906158d6565b600784015460009061104e904263ffffffff61298916565b9050610e1081116110715760405162461bcd60e51b81526004016103fe906158d6565b6001830154611086908863ffffffff61298916565b6001840155600b858101546001600160a01b039081166000908152602092835260408082206002808a015490941683529093529190912001546110cf908863ffffffff61298916565b600b958601546001600160a01b0390811660009081526020978852604080822060029889015490931682529190975286209094019390935550506001909155509392505050565b6005602052600090815260409020546001600160a01b031681565b603b60209081526000928352604080842090915290825290205481565b6023602052600090815260409020546001600160a01b031681565b60326020526000908152604090205460ff1681565b60185481565b601f5481565b6008602090815260009283526040808420909152908252902080546001820154600283015460038401546004850154600590950154939492939192909186565b601a6020526000908152604090205481565b602a6020526000908152604090205481565b600a60209081526000928352604080842090915290825290205460ff1681565b60166020526000908152604090205481565b60155481565b61122e61455d565b61123a82600080612b90565b92915050565b60295481565b600c6020526000908152604090208054600182015460029092015490919083565b602b5481565b6060600061128e61127e600f612464565b610c39878763ffffffff61246b16565b905080851061129d5750611365565b836040519080825280602002602001820160405280156112d757816020015b6112c46144d2565b8152602001906001900390816112bc5790505b50915060008582035b801561135557858214156112f357611355565b6112fb6144d2565b61131d611315600f600019858c010163ffffffff6124a616565b6000886124ca565b805190915061132c575061134c565b8085848151811061133957fe5b6020908102919091010152506001909101905b600019016112e0565b5084811015611362578083525b50505b9392505050565b600b602090815260009283526040808420909152908252902080546001820154600283015460038401546004909401549293919290919085565b60266020526000908152604090205460ff1681565b6033602052600090815260409020546001600160a01b031681565b6003546001600160a01b031681565b60355481565b606060006113fc61127e600f612464565b905080851061140b5750611365565b8360405190808252806020026020018201604052801561144557816020015b61143261455d565b81526020019060019003908161142a5790505b50915060008582035b8015611355578582141561146157611355565b61146961455d565b61148b611483600f600019858c010163ffffffff6124a616565b600088612b90565b805190915061149a57506114ba565b808584815181106114a757fe5b6020908102919091010152506001909101905b6000190161144e565b6002546001600160a01b031681565b601e5481565b603d5460ff1681565b6114e96144d2565b61123a826000806124ca565b6001546001600160a01b031690565b6022602052600090815260409020546001600160a01b031681565b6001546000906001600160a01b0316611536612f34565b6001600160a01b031614905090565b60176020526000908152604090205481565b602c5481565b60008181526006602081815260408084206001808201548652600780855283872060020154888852600c86529387208054920154959094529201546001600160a01b039091169391929190814282106115b657426115b8565b815b90508082116115c85760006115e3565b6115e362015180610f4e87610f42868663ffffffff61298916565b925050509193509193565b602f5481565b60205481565b602d546001600160a01b031681565b601d6020526000908152604090205481565b601c6020526000908152604090205481565b6037546001600160a01b031681565b6004546001600160a01b031681565b60366020526000908152604090205481565b600660208190526000918252604090912080546001820154600283015460038401546004850154600586015496860154600787015460088801546009890154600a8a0154600b909a0154989a9799969860ff909616979496949593949293919290916001600160a01b0391821691168c565b6116d761151f565b6116f35760405162461bcd60e51b81526004016103fe90615966565b6337aa6d1960e21b600081905260056020527fa56283bb23bc3f9d1e31fd0b79ab29917294036597bcddbdbeb3da57495b10ad546001600160a01b03169061173b9083612f38565b61174c63db35400d60e01b83612f38565b61175d630740ff7d60e51b83612f38565b61176e6367e42e0360e11b83612f38565b61177f630917871d60e11b83612f38565b611790630d1979fb60e41b83612f38565b6117a1639b16cd8760e01b83612f38565b6117b162a8ff9960e21b83612f38565b6117c263e69226c760e01b83612f38565b6117d3638932f5f760e01b83612f38565b6117e463092abb2760e31b83612f38565b6117f56318215f0b60e21b83612f38565b611806631da89d0f60e21b83612f38565b6e4c6f616e4d61696e74656e616e636560881b826001600160a01b0316826001600160a01b03167f1420e3a2094d671bc2eb897941fa3d94ffa37f0cb6d530651946250a2151cb7f60405160405180910390a45050565b6007602052600090815260409020805460018201546002830154600384015460048501546005860154600690960154949560ff8516956101009095046001600160a01b03908116959481169493169288565b603c60209081526000928352604080842090915290825290205481565b60006001600054146118f05760405162461bcd60e51b81526004016103fe906159c6565b6002600055603d5460ff16156119185760405162461bcd60e51b81526004016103fe90615866565b846119355760405162461bcd60e51b81526004016103fe90615976565b6000868152600660209081526040808320600181015484526007909252909120600382015460ff166119795760405162461bcd60e51b81526004016103fe906159b6565b8515806119925750600a8201546001600160a01b031633145b806119b8575081546000908152600a6020908152604080832033845290915290205460ff165b6119d45760405162461bcd60e51b81526004016103fe90615966565b6006810154156119f65760405162461bcd60e51b81526004016103fe90615896565b341580611a1e575085158015611a1e5750602d5460028201546001600160a01b039081169116145b611a3a5760405162461bcd60e51b81526004016103fe906158c6565b600b8201546002820154611a5a916001600160a01b039081169116612850565b81546000818152600c6020526040902060028301546003840154600a8601549293611a9a93859391926001600160a01b039283169290811691164261292e565b60008360070154421115611b0a576007840154611abe90429063ffffffff61298916565b8254909150611ad490829063ffffffff6129cb16565b9050611ae9816201518063ffffffff612a0516565b9050808911611b0a5760405162461bcd60e51b81526004016103fe906158a6565b8715611b8d5760408051610100808201835285548252600186015460ff811615156020840152046001600160a01b039081169282019290925260028501548216606082015260038501549091166080820152600484015460a0820152600584015460c0820152600684015460e0820152611b869085908b612fae565b9850611bd9565b34611bb0576002830154611bab906001600160a01b0316338b6130e2565b611bd9565b883414611bcf5760405162461bcd60e51b81526004016103fe90615a16565b611bd93334613146565b8015611c1357611bef898263ffffffff61298916565b600b8501546002850154919a50611c13916001600160a01b039182169116836131ec565b8154611c2c90610f4e8b6201518063ffffffff6129cb16565b6007850154909550611c44908663ffffffff61246b16565b600785018190554210611c695760405162461bcd60e51b81526004016103fe906158d6565b6007840154600090611c81904263ffffffff61298916565b9050610e108111611ca45760405162461bcd60e51b81526004016103fe906158d6565b6001830154611cb9908b63ffffffff61246b16565b6001840155600b858101546001600160a01b039081166000908152602092835260408082206002808a01549094168352909352919091200154611d02908b63ffffffff61246b16565b600b958601546001600160a01b03908116600090815260209788526040808220600298890154909316825291909752862090940193909355505060019091555095945050505050565b600080600080600080611d5c6145ff565b506001600160a01b038089166000908152600b60209081526040808320938b16835292815290829020825160a081018452815481526001820154928101839052600282015493810193909352600381015460608401526004015460808301819052611ddc916201518091610f4e9190610f4290429063ffffffff61298916565b93508060400151841115611df257806040015193505b606081015180611e03576000611e09565b81608001515b60208301516080840151611e1e576000611e20565b865b6015549451939d929c50909a509850919650945092505050565b6038546001600160a01b031681565b60275481565b60196020526000908152604090205481565b6000600160005414611e855760405162461bcd60e51b81526004016103fe906159c6565b6002600055603d5460ff1615611ead5760405162461bcd60e51b81526004016103fe90615866565b81611eca5760405162461bcd60e51b81526004016103fe90615856565b6000848152600660209081526040808320600181015484526007909252909120600382015460ff16611f0e5760405162461bcd60e51b81526004016103fe906159b6565b600a8201546001600160a01b0316331480611f44575081546000908152600a6020908152604080832033845290915290205460ff165b611f605760405162461bcd60e51b81526004016103fe90615966565b600280549082015460038301546004808601546005808801549087015460405163f80b25fb60e01b81526000976001600160a01b039081169763f80b25fb97611fb49791831696921694919391920161564a565b60206040518083038186803b158015611fcc57600080fd5b505afa158015611fe0573d6000803e3d6000fd5b505050506040513d601f19601f820116820180604052506120049190810190614a30565b9050808511156120165780935061201a565b8493505b600583015461202f908563ffffffff61298916565b6005840155602d5460038301546001600160a01b039081169116141561205e576120598685612a47565b612077565b6003820154612077906001600160a01b03168786612b1f565b50506001600055509392505050565b6001600054146120a85760405162461bcd60e51b81526004016103fe906159c6565b6002600055603d5460ff16156120d05760405162461bcd60e51b81526004016103fe90615866565b806120ed5760405162461bcd60e51b81526004016103fe90615976565b6000828152600660209081526040808320600181015484526007909252909120600382015460ff166121315760405162461bcd60e51b81526004016103fe906159b6565b3415806121505750602d5460038201546001600160a01b039081169116145b61216c5760405162461bcd60e51b81526004016103fe906158c6565b6005820154612181908463ffffffff61246b16565b6005830155346121a95760038101546121a4906001600160a01b031633856130e2565b6121d2565b8234146121c85760405162461bcd60e51b81526004016103fe90615a16565b6121d23334613146565b60028054600383015491830154604051630a7549df60e21b81526000936001600160a01b03938416936329d5277c9361221493928216929116906004016155a1565b604080518083038186803b15801561222b57600080fd5b505afa15801561223f573d6000803e3d6000fd5b505050506040513d601f19601f820116820180604052506122639190810190614a4e565b509050847fc3c4f75ea99730f240c3ea8d68f7a9b94584539caf936f566e8b9f8fe13036f48583604051612298929190615a70565b60405180910390a250506001600055505050565b60606000836122d2576001600160a01b03881660009081526012602052604090206122eb565b6001600160a01b03881660009081526011602052604090205b905060006122fb610c2983612464565b905080881061230c5750610d1d9050565b8660405190808252806020026020018201604052801561234657816020015b61233361455d565b81526020019060019003908161232b5790505b50925060008882035b8015610d0c578882141561236257610d0c565b61236a61455d565b61238a61238386600019858f010163ffffffff6124a616565b8a89612b90565b805190915061239957506123b9565b808684815181106123a657fe5b6020908102919091010152506001909101905b6000190161234f565b603d5460ff16156123e55760405162461bcd60e51b81526004016103fe90615866565b6123ef3382612850565b50565b6014546001600160a01b031681565b601b5481565b60285481565b61241561151f565b6124315760405162461bcd60e51b81526004016103fe90615966565b6123ef81613283565b60395481565b60215481565b602e546001600160a01b031681565b6030546001600160a01b031681565b6001015490565b6000828201838110156113655760405162461bcd60e51b81526004016103fe906158b6565b600081831061249f5781611365565b5090919050565b60008260010182815481106124b757fe5b9060005260206000200154905092915050565b6124d26144d2565b6124da61462e565b5060008481526006602081815260409283902083516101808101855281548152600182015492810192909252600281015493820193909352600383015460ff161515606082015260048301546080820152600583015460a08201529082015460c0820152600782015460e082015260088201546101008201526009820154610120820152600a8201546001600160a01b03908116610140830152600b9092015490911661016082015261258b614692565b506020808201516000908152600782526040908190208151610100808201845282548252600183015460ff81161515958301959095526001600160a01b03940484169281019290925260028101548316606083015260038101549092166080820152600482015460a0820152600582015460c082015260069091015460e0820152841561264957846001148015612625575060e081015115155b8061263d575084600214801561263d575060e0810151155b61264957506113659050565b6126516146d6565b506000868152600c6020908152604080832081516060808201845282548252600183015494820194909452600291820154818401529054928501516080808701519088015160a089015194516317f8680960e11b815293969586956001600160a01b0390911694632ff0d012946126d094909390929091600401615622565b604080518083038186803b1580156126e757600080fd5b505afa1580156126fb573d6000803e3d6000fd5b505050506040513d601f19601f8201168201806040525061271f9190810190614a4e565b915091506000808560c0015184116127555761274a87608001518860a00151868960c0015187613305565b509092509050612768565b8815612768575061136595505050505050565b604051806101e001604052808c815260200187606001516001600160a01b0316815260200187608001516001600160a01b03168152602001886080015181526020018860a00151815260200186600001518152602001428960e0015110156127d15760006127f7565b6127f762015180610f4e8960000151610f42428e60e0015161298990919063ffffffff16565b8152602001886101200151815260200188610100015181526020018760c0015181526020018581526020018760e0015181526020018860e001518152602001838152602001828152509750505050505050509392505050565b6001600160a01b038083166000908152600b6020908152604080832093851683529290529081206001810154909190158015906128905750600482015415155b15612921576128bb62015180610f4e8460010154610f4286600401544261298990919063ffffffff16565b42600484015560028301549091508111156128d7575060028101545b801561291c5760038201546128f2908263ffffffff61246b16565b6003830155600282015461290c908263ffffffff61298916565b600283015561291c8484836131ec565b612928565b4260048301555b50505050565b60006129646a07259756a8d61998000000610f4e601554610f428b60000154610f428d600201548961298990919063ffffffff16565b6002880183905590508015612980576129808387878785613439565b50505050505050565b600061136583836040518060400160405280601e81526020017f536166654d6174683a207375627472616374696f6e206f766572666c6f77000081525061389f565b6000826129da5750600061123a565b828202828482816129e757fe5b04146113655760405162461bcd60e51b81526004016103fe90615956565b600061136583836040518060400160405280601a81526020017f536166654d6174683a206469766973696f6e206279207a65726f0000000000008152506138cb565b8015612b1b57602d546001600160a01b03164780831115612ac357604051632e1a7d4d60e01b81526001600160a01b03831690632e1a7d4d90612a909084870390600401615a62565b600060405180830381600087803b158015612aaa57600080fd5b505af1158015612abe573d6000803e3d6000fd5b505050505b612acd8484613902565b836001600160a01b0316826001600160a01b03167fc44aeefa68e8b9c1ad5f7be4b0dd194580f81f5c362862e72196503a320eb7a185604051612b109190615a62565b60405180910390a350505b5050565b8015612b8b57612b3f6001600160a01b038416838363ffffffff61399e16565b816001600160a01b0316836001600160a01b03167fc44aeefa68e8b9c1ad5f7be4b0dd194580f81f5c362862e72196503a320eb7a183604051612b829190615a62565b60405180910390a35b505050565b612b9861455d565b612ba061462e565b5060008481526006602081815260409283902083516101808101855281548152600182015492810192909252600281015493820193909352600383015460ff161515606082015260048301546080820152600583015460a08201529082015460c0820152600782015460e082015260088201546101008201526009820154610120820152600a8201546001600160a01b03908116610140830152600b90920154909116610160820152612c51614692565b506020808201516000908152600782526040908190208151610100808201845282548252600183015460ff81161515958301959095526001600160a01b03940484169281019290925260028101548316606083015260038101549092166080820152600482015460a0820152600582015460c082015260069091015460e08201528415612d0f57846001148015612ceb575060e081015115155b80612d035750846002148015612d03575060e0810151155b612d0f57506113659050565b612d176146d6565b506000868152600c6020908152604080832081516060808201845282548252600183015494820194909452600291820154818401529054928501516080808701519088015160a089015194516317f8680960e11b815293969586956001600160a01b0390911694632ff0d01294612d9694909390929091600401615622565b604080518083038186803b158015612dad57600080fd5b505afa158015612dc1573d6000803e3d6000fd5b505050506040513d601f19601f82011682018060405250612de59190810190614a4e565b915091506000808560c001518411612e1b57612e1087608001518860a00151868960c0015187613305565b509092509050612e2e565b8815612e2e575061136595505050505050565b6040518061022001604052808c815260200187606001516001600160a01b0316815260200187608001516001600160a01b031681526020018861014001516001600160a01b03168152602001886080015181526020018860a00151815260200186600001518152602001428960e001511015612eab576000612ed1565b612ed162015180610f4e8960000151610f42428e60e0015161298990919063ffffffff16565b8152602001886101200151815260200188610100015181526020018760c0015181526020018581526020018760e0015181526020018860e0015181526020018381526020018281526020018860c001518152509750505050505050509392505050565b3390565b6001600160e01b03198216600090815260056020526040902080546001600160a01b0319166001600160a01b03831690811790915515612f9357612f8d600d6001600160e01b0319841663ffffffff6139f716565b50612b1b565b612b8b600d6001600160e01b0319841663ffffffff613a3f16565b6000806000612ffc86600001548660800151876060015189600a0160009054906101000a90046001600160a01b03168a6005015460008a600160405180602001604052806000815250613b00565b5060058801549193509150613017908263ffffffff61298916565b60058701819055600254606087015160808801516004808b01546040516317f8680960e11b81526000966001600160a01b0390961695632ff0d0129561306295909490939201615622565b604080518083038186803b15801561307957600080fd5b505afa15801561308d573d6000803e3d6000fd5b505050506040513d601f19601f820116820180604052506130b19190810190614a4e565b5090508560c0015181116130d75760405162461bcd60e51b81526004016103fe90615986565b509095945050505050565b8015612b8b576131036001600160a01b03841683308463ffffffff613c5e16565b816001600160a01b0316836001600160a01b03167f2790b90165fd3973ad7edde4eca71b4f8808dd4857a2a3a3e8ae5642a5cb196e83604051612b829190615a62565b602d5460408051630d0e30db60e41b815290516001600160a01b0390921691829163d0e30db091859160048082019260009290919082900301818588803b15801561319057600080fd5b505af11580156131a4573d6000803e3d6000fd5b5050505050826001600160a01b0316816001600160a01b03167f2790b90165fd3973ad7edde4eca71b4f8808dd4857a2a3a3e8ae5642a5cb196e84604051612b829190615a62565b600061321068056bc75e2d63100000610f4e601554856129cb90919063ffffffff16565b905061321d848483613c82565b6132378385613232858563ffffffff61298916565b612b1f565b6001600160a01b038085169084167f220e66e3e759e1382aa86cd8af5abca05ebf3ad564f223ae62d977678337272a613276858563ffffffff61298916565b604051612b109190615a62565b6001600160a01b0381166132a95760405162461bcd60e51b81526004016103fe90615886565b6001546040516001600160a01b038084169216907f8be0079c531659141344cd1fd0a4f28419497f9722a3daafe3b4186f6b6457e090600090a3600180546001600160a01b0319166001600160a01b0392909216919091179055565b602154600090819084861180613319575083155b156133235761342e565b80861161333757508691508590508461342e565b600061335186674563918244f4000063ffffffff61246b16565b905061337468056bc75e2d63100000610f4e8b610f42858463ffffffff61246b16565b93506133a2613395670de0b6b3a7640000610f4e8b8963ffffffff6129cb16565b859063ffffffff61298916565b93506133d06133b7828463ffffffff61298916565b610f4e8668056bc75e2d6310000063ffffffff6129cb16565b9350888411156133de578893505b6134076133fa8368056bc75e2d6310000063ffffffff61246b16565b859063ffffffff6129cb16565b925061341e6064610f4e858863ffffffff612a0516565b92508783111561342c578792505b505b955095509592505050565b602f546002546001600160a01b038581166000908152603c60209081526040808320888516845290915281205490939291909116901561349c576001600160a01b038087166000908152603c602090815260408083209389168352929052205491505b6037546000906060906001600160a01b038085169163d138f9a160e01b918b91166134da68056bc75e2d63100000610f4e8c8b63ffffffff6129cb16565b6040516024016134ec939291906155fa565b60408051601f198184030181529181526020820180516001600160e01b03166001600160e01b031990941693909317909252905161352a919061557c565b600060405180830381855afa9150503d8060008114613565576040519150601f19603f3d011682016040523d82523d6000602084013e61356a565b606091505b5091509150600182141561358057602081015194505b6000306001600160a01b031663c22552f76040518163ffffffff1660e01b815260040160206040518083038186803b1580156135bb57600080fd5b505afa1580156135cf573d6000803e3d6000fd5b505050506040513d601f19601f820116820180604052506135f39190810190614a30565b905085158015906136045750858110155b1561382c5760375460385460405163095ea7b360e01b81526001600160a01b039283169263095ea7b39261363f929116908a9060040161568c565b602060405180830381600087803b15801561365957600080fd5b505af115801561366d573d6000803e3d6000fd5b505050506040513d601f19601f8201168201806040525061369191908101906148cd565b50603854603f546040516000926001600160a01b0316916136b8918f918b916024016156a7565b60408051601f198184030181529181526020820180516001600160e01b0316630efe6a8b60e01b179052516136ed919061557c565b6000604051808303816000865af19150503d806000811461372a576040519150601f19603f3d011682016040523d82523d6000602084013e61372f565b606091505b5050905080156137be57601f5461374c908863ffffffff61246b16565b601f819055508a603760009054906101000a90046001600160a01b03166001600160a01b03168d6001600160a01b03167ff41c644671512f1cda76abfe6038e3d7d526c1377a5a8c692f81703901db2150898b603f546040516137b193929190615a7e565b60405180910390a4613826565b8a603760009054906101000a90046001600160a01b03166001600160a01b03168d6001600160a01b03167f483f67ea49f76ac15e15bbad68b52788ca47d50aef1e4acfe95e5e307e710812898b603f5460405161381d93929190615a7e565b60405180910390a45b50613892565b851580159061383a57508581105b1561389257603754603f546040518c926001600160a01b0390811692908f16917f483f67ea49f76ac15e15bbad68b52788ca47d50aef1e4acfe95e5e307e71081291613889918b918d91615a7e565b60405180910390a45b5050505050505050505050565b600081848411156138c35760405162461bcd60e51b81526004016103fe9190615845565b505050900390565b600081836138ec5760405162461bcd60e51b81526004016103fe9190615845565b5060008385816138f857fe5b0495945050505050565b804710156139225760405162461bcd60e51b81526004016103fe90615916565b6000826001600160a01b03168260405161393b90615588565b60006040518083038185875af1925050503d8060008114613978576040519150601f19603f3d011682016040523d82523d6000602084013e61397d565b606091505b5050905080612b8b5760405162461bcd60e51b81526004016103fe90615906565b604051612b8b90849063a9059cbb60e01b906139c0908690869060240161568c565b60408051601f198184030181529190526020810180516001600160e01b03166001600160e01b031990931692909217909152613d03565b6000613a038383613de8565b613a37575060018083018054808301808355600092835260208084209092018590558483529085905260409091205561123a565b50600061123a565b6000613a4b8383613de8565b15613a375760008281526020849052604090205460018401546000199182019101808214613ac3576000856001018281548110613a8457fe5b9060005260206000200154905080866001018481548110613aa157fe5b6000918252602080832090910192909255918252869052604090206001830190555b60008481526020869052604081205560018501805480613adf57fe5b6001900381819060005260206000200160009055905560019250505061123a565b6040805160a0810182526001600160a01b03808b16825289811660208084019190915230838501819052606080850191909152918a16608084015283519182018452888252810187905291820185905260009182918291613b6591908e888886613dfd565b9093509150613b748b83614022565b600254602754604051631e2c62d360e01b81526001600160a01b0390921691631e2c62d391613bad918f918f9188918a9160040161564a565b60206040518083038186803b158015613bc557600080fd5b505afa158015613bd9573d6000803e3d6000fd5b505050506040513d601f19601f82011682018060405250613bfd9190810190614a30565b9050896001600160a01b03168b6001600160a01b03168d7fb4eb3c9b62efcce7021cba5fd9cd0c44df91c2272806ccc5e57df7c912e8d7168c8688604051613c47939291906156a7565b60405180910390a499509950999650505050505050565b6040516129289085906323b872dd60e01b906139c0908790879087906024016155fa565b8015612b8b576001600160a01b038216600090815260166020526040902054613cb1908263ffffffff61246b16565b6001600160a01b0380841660008181526016602052604090819020939093559151908516907f40a75ae5f7a5336e75f7c7977e12c4b46a9ac0f30de01a2d5b6c1a4f4af6358790612b82908590615a62565b613d15826001600160a01b03166140f0565b613d315760405162461bcd60e51b81526004016103fe90615a26565b60006060836001600160a01b031683604051613d4d919061557c565b6000604051808303816000865af19150503d8060008114613d8a576040519150601f19603f3d011682016040523d82523d6000602084013e613d8f565b606091505b509150915081613db15760405162461bcd60e51b81526004016103fe906158e6565b8051156129285780806020019051613dcc91908101906148cd565b6129285760405162461bcd60e51b81526004016103fe906159e6565b60009081526020919091526040902054151590565b84516000908190151580613e145750602087015115155b613e305760405162461bcd60e51b81526004016103fe906159a6565b6020870151613e4157865160208801525b602087015187511115613e665760405162461bcd60e51b81526004016103fe90615926565b600080600087613f235760408a0151613ee2578515613e9757613e908a60005b602002015161412c565b9050613eab565b613ea88a60005b602002015161415c565b90505b8015613edd5760808b01518b51613ece91908b908e60015b602002015185614180565b8951613eda9082612989565b8a525b613f23565b8515613efa57613ef38a6002613e86565b9050613f08565b613f058a6002613e9e565b90505b8015613f235760408a0151613f1d908261246b565b60408b01525b865115613f425760405162461bcd60e51b81526004016103fe906159d6565b613f4c8b8b6142d0565b60408c01519194509250613f985789518214613f7a5760405162461bcd60e51b81526004016103fe90615a06565b8015613f9357613f90828263ffffffff61246b16565b91505b614012565b60208a0151821115613fbc5760405162461bcd60e51b81526004016103fe906158f6565b60408a0151831015613fe05760405162461bcd60e51b81526004016103fe90615876565b80156140125760808b015160208c0151613fff91908b908e6000613ec3565b61400f838263ffffffff61298916565b92505b5090999098509650505050505050565b6029548015612b8b57602d546000906001600160a01b038581169116141561404b5750816140d0565b600254604051635967aa7560e11b81526001600160a01b039091169063b2cf54ea9061407d908790879060040161568c565b60206040518083038186803b15801561409557600080fd5b505afa1580156140a9573d6000803e3d6000fd5b505050506040513d601f19601f820116820180604052506140cd9190810190614a30565b90505b818111156129285760405162461bcd60e51b81526004016103fe90615946565b6000813f7fc5d2460186f7233c927e7db2dcc703c0e500b653ca82273b7bfad8045d85a47081811480159061412457508115155b949350505050565b600061123a68056bc75e2d63100000614150603e54856129cb90919063ffffffff16565b9063ffffffff6143ba16565b600061123a68056bc75e2d63100000614150601854856129cb90919063ffffffff16565b8080156142c8576001600160a01b038681166000908152603360205260409020541615614236576001600160a01b038087166000908152603360205260409020546141ce91168786846143fc565b50506142336141f568056bc75e2d63100000610f4e603954856129cb90919063ffffffff16565b61422761421a68056bc75e2d63100000610f4e602054876129cb90919063ffffffff16565b849063ffffffff61298916565b9063ffffffff61298916565b90505b6001600160a01b03841660009081526019602052604090205461425f908263ffffffff61246b16565b6001600160a01b03808616600081815260196020526040908190209390935591518792918916907fb23479169712c443e6b00fb0cec3506a5f5926f541df4243d313e11c8c5c71ed906142b3908690615a62565b60405180910390a46142c88686868686613439565b505050505050565b6000806142db6146f7565b84516001600160a01b039081168252602080870151821683820152604080880151831681850152606080890151909316928401929092528551608084015285015160a08301528481015160c0830152516335aaa79d60e01b815273f0F97838B2c80be59118e37436eca8F8edc2d08c906335aaa79d9061435f908490600401615a54565b604080518083038186803b15801561437657600080fd5b505af415801561438a573d6000803e3d6000fd5b505050506040513d601f19601f820116820180604052506143ae9190810190614a4e565b90969095509350505050565b600061136583836040518060400160405280601a81526020017f536166654d6174683a206469766973696f6e206279207a65726f000000000000815250614488565b6040516306a688ff60e11b815260009081903090630d4d11fe9061442a9089908990899089906004016155bc565b6040805180830381600087803b15801561444357600080fd5b505af1158015614457573d6000803e3d6000fd5b505050506040513d601f19601f8201168201806040525061447b9190810190614a4e565b9097909650945050505050565b600081836144a95760405162461bcd60e51b81526004016103fe9190615845565b50836144b757506000611365565b60008360018603816144c557fe5b0460010195945050505050565b604051806101e001604052806000801916815260200160006001600160a01b0316815260200160006001600160a01b031681526020016000815260200160008152602001600081526020016000815260200160008152602001600081526020016000815260200160008152602001600081526020016000815260200160008152602001600081525090565b6040518061022001604052806000801916815260200160006001600160a01b0316815260200160006001600160a01b0316815260200160006001600160a01b03168152602001600081526020016000815260200160008152602001600081526020016000815260200160008152602001600081526020016000815260200160008152602001600081526020016000815260200160008152602001600081525090565b6040518060a0016040528060008152602001600081526020016000815260200160008152602001600081525090565b6040805161018081018252600080825260208201819052918101829052606081018290526080810182905260a0810182905260c0810182905260e0810182905261010081018290526101208101829052610140810182905261016081019190915290565b6040805161010081018252600080825260208201819052918101829052606081018290526080810182905260a0810182905260c0810182905260e081019190915290565b60405180606001604052806000815260200160008152602001600081525090565b6040805160e081018252600080825260208201819052918101829052606081018290526080810182905260a0810182905260c081019190915290565b803561123a81615b86565b803561123a81615b9a565b805161123a81615b9a565b803561123a81615ba3565b803561123a81615bac565b60008083601f84011261477c57600080fd5b50813567ffffffffffffffff81111561479457600080fd5b6020830191508360018202830111156147ac57600080fd5b9250929050565b805161123a81615ba3565b6000602082840312156147d057600080fd5b60006141248484614733565b600080604083850312156147ef57600080fd5b60006147fb8585614733565b925050602061480c85828601614733565b9150509250929050565b6000806040838503121561482957600080fd5b60006148358585614733565b925050602061480c85828601614754565b60008060008060008060c0878903121561485f57600080fd5b600061486b8989614733565b965050602061487c89828a01614754565b955050604061488d89828a01614754565b945050606061489e89828a01614754565b93505060806148af89828a0161473e565b92505060a06148c089828a0161473e565b9150509295509295509295565b6000602082840312156148df57600080fd5b60006141248484614749565b6000602082840312156148fd57600080fd5b60006141248484614754565b6000806040838503121561491c57600080fd5b60006147fb8585614754565b60008060006060848603121561493d57600080fd5b60006149498686614754565b935050602061495a86828701614733565b925050604061496b86828701614754565b9150509250925092565b6000806040838503121561498857600080fd5b60006148358585614754565b6000806000806000608086880312156149ac57600080fd5b60006149b88888614754565b95505060206149c988828901614754565b94505060406149da8882890161473e565b935050606086013567ffffffffffffffff8111156149f757600080fd5b614a038882890161476a565b92509250509295509295909350565b600060208284031215614a2457600080fd5b6000614124848461475f565b600060208284031215614a4257600080fd5b600061412484846147b3565b60008060408385031215614a6157600080fd5b6000614a6d85856147b3565b925050602061480c858286016147b3565b600080600060608486031215614a9357600080fd5b6000614a9f8686614754565b9350506020614ab086828701614754565b925050604061496b8682870161473e565b6000614acd838361527b565b50506102200190565b6000614ae283836153cf565b50506101e00190565b614af481615b19565b82525050565b6000614b0582615b07565b614b0f8185615b0b565b9350614b1a83615b01565b8060005b83811015614b48578151614b328882614ac1565b9750614b3d83615b01565b925050600101614b1e565b509495945050505050565b6000614b5e82615b07565b614b688185615b0b565b9350614b7383615b01565b8060005b83811015614b48578151614b8b8882614ad6565b9750614b9683615b01565b925050600101614b77565b614af481615b24565b614af481615b29565b6000614bbe82615b07565b614bc88185615b14565b9350614bd8818560208601615b50565b9290920192915050565b614af481615b45565b6000614bf682615b07565b614c008185615b0b565b9350614c10818560208601615b50565b614c1981615b7c565b9093019392505050565b6000614c30601383615b0b565b7207769746864726177416d6f756e74206973203606c1b815260200192915050565b6000614c5f600683615b0b565b6514185d5cd95960d21b815260200192915050565b6000614c81601b83615b0b565b7f696e73756666696369656e742073776170206c69717569646974790000000000815260200192915050565b6000614cba602683615b0b565b7f4f776e61626c653a206e6577206f776e657220697320746865207a65726f206181526564647265737360d01b602082015260400192915050565b6000614d02601483615b0b565b73696e646566696e6974652d7465726d206f6e6c7960601b815260200192915050565b6000614d32602283615b0b565b7f6465706f7369742063616e6e6f7420636f766572206261636b20696e746572658152611cdd60f21b602082015260400192915050565b6000614d76601b83615b0b565b7f536166654d6174683a206164646974696f6e206f766572666c6f770000000000815260200192915050565b6000614daf601083615b0b565b6f1ddc9bdb99c8185cdcd95d081cd95b9d60821b815260200192915050565b6000614ddb600e83615b0b565b6d1b1bd85b881d1bdbc81cda1bdc9d60921b815260200192915050565b6000614e05602083615b0b565b7f5361666545524332303a206c6f772d6c6576656c2063616c6c206661696c6564815260200192915050565b6000614e3e601383615b0b565b72737761702066696c6c20746f6f206c6172676560681b815260200192915050565b6000614e6d603a83615b0b565b7f416464726573733a20756e61626c6520746f2073656e642076616c75652c207281527f6563697069656e74206d61792068617665207265766572746564000000000000602082015260400192915050565b6000614ecc601d83615b0b565b7f416464726573733a20696e73756666696369656e742062616c616e6365000000815260200192915050565b6000614f05601c83615b0b565b7f736f75726365416d6f756e74206c6172676572207468616e206d617800000000815260200192915050565b6000614f3e601883615b0b565b7f776974686472617720616d6f756e7420746f6f20686967680000000000000000815260200192915050565b6000614f77600e83615b0b565b6d7377617020746f6f206c6172676560901b815260200192915050565b6000614fa1602183615b0b565b7f536166654d6174683a206d756c7469706c69636174696f6e206f766572666c6f8152607760f81b602082015260400192915050565b6000614fe4600c83615b0b565b6b1d5b985d5d1a1bdc9a5e995960a21b815260200192915050565b600061500c601283615b0b565b7106465706f736974416d6f756e7420697320360741b815260200192915050565b600061503a601283615b0b565b713ab73432b0b63a343c903837b9b4ba34b7b760711b815260200192915050565b6000615068601483615b0b565b7319985b1b189858dac81b9bdd08185b1b1bddd95960621b815260200192915050565b6000615098602e83615b0b565b7f6d696e206f72206d617820736f7572636520746f6b656e20616d6f756e74206e81526d1959591cc81d1bc81899481cd95d60921b602082015260400192915050565b600061123a600083615b14565b60006150f5600e83615b0b565b6d1b1bd85b881a5cc818db1bdcd95960921b815260200192915050565b600061511f600c83615b0b565b6b1b9bdb9499595b9d1c985b9d60a21b815260200192915050565b6000615147600d83615b0b565b6c696e76616c696420737461746560981b815260200192915050565b6000615170602a83615b0b565b7f5361666545524332303a204552433230206f7065726174696f6e20646964206e8152691bdd081cdd58d8d9595960b21b602082015260400192915050565b60006151bc601383615b0b565b721b1bd85b881d195c9b481a185cc8195b991959606a1b815260200192915050565b60006151eb601683615b0b565b751cddd85c081d1bdbc81b185c99d9481d1bc8199a5b1b60521b815260200192915050565b600061521d601683615b0b565b750cae8d0cae440c8cae0dee6d2e840dad2e6dac2e8c6d60531b815260200192915050565b600061524f601f83615b0b565b7f5361666545524332303a2063616c6c20746f206e6f6e2d636f6e747261637400815260200192915050565b805161022083019061528d8482614baa565b5060208201516152a06020850182614aeb565b5060408201516152b36040850182614aeb565b5060608201516152c66060850182614aeb565b5060808201516152d96080850182614baa565b5060a08201516152ec60a0850182614baa565b5060c08201516152ff60c0850182614baa565b5060e082015161531260e0850182614baa565b50610100820151615327610100850182614baa565b5061012082015161533c610120850182614baa565b50610140820151615351610140850182614baa565b50610160820151615366610160850182614baa565b5061018082015161537b610180850182614baa565b506101a08201516153906101a0850182614baa565b506101c08201516153a56101c0850182614baa565b506101e08201516153ba6101e0850182614baa565b50610200820151612928610200850182614baa565b80516101e08301906153e18482614baa565b5060208201516153f46020850182614aeb565b5060408201516154076040850182614aeb565b50606082015161541a6060850182614baa565b50608082015161542d6080850182614baa565b5060a082015161544060a0850182614baa565b5060c082015161545360c0850182614baa565b5060e082015161546660e0850182614baa565b5061010082015161547b610100850182614baa565b50610120820151615490610120850182614baa565b506101408201516154a5610140850182614baa565b506101608201516154ba610160850182614baa565b506101808201516154cf610180850182614baa565b506101a08201516154e46101a0850182614baa565b506101c08201516129286101c0850182614baa565b805160e083019061550a8482614aeb565b50602082015161551d6020850182614aeb565b5060408201516155306040850182614aeb565b5060608201516155436060850182614aeb565b5060808201516155566080850182614baa565b5060a082015161556960a0850182614baa565b5060c082015161292860c0850182614baa565b60006113658284614bb3565b600061123a826150db565b6020810161123a8284614aeb565b604081016155af8285614aeb565b6113656020830184614aeb565b608081016155ca8287614aeb565b6155d76020830186614aeb565b6155e46040830185614aeb565b6155f16060830184614baa565b95945050505050565b606081016156088286614aeb565b6156156020830185614aeb565b6141246040830184614baa565b608081016156308287614aeb565b61563d6020830186614aeb565b6155e46040830185614baa565b60a081016156588288614aeb565b6156656020830187614aeb565b6156726040830186614baa565b61567f6060830185614baa565b610d1d6080830184614baa565b6040810161569a8285614aeb565b6113656020830184614baa565b606081016156b58286614aeb565b6156156020830185614baa565b608081016156d08287614aeb565b61563d6020830186614baa565b602080825281016113658184614afa565b602080825281016113658184614b53565b6020810161123a8284614ba1565b610100810161571c828b614baa565b615729602083018a614ba1565b6157366040830189614aeb565b6157436060830188614aeb565b6157506080830187614aeb565b61575d60a0830186614baa565b61576a60c0830185614baa565b61577760e0830184614baa565b9998505050505050505050565b6101808101615793828f614baa565b6157a0602083018e614baa565b6157ad604083018d614baa565b6157ba606083018c614ba1565b6157c7608083018b614baa565b6157d460a083018a614baa565b6157e160c0830189614baa565b6157ee60e0830188614baa565b6157fc610100830187614baa565b61580a610120830186614baa565b615818610140830185614aeb565b615826610160830184614aeb565b9d9c50505050505050505050505050565b6020810161123a8284614be2565b602080825281016113658184614beb565b6020808252810161123a81614c23565b6020808252810161123a81614c52565b6020808252810161123a81614c74565b6020808252810161123a81614cad565b6020808252810161123a81614cf5565b6020808252810161123a81614d25565b6020808252810161123a81614d69565b6020808252810161123a81614da2565b6020808252810161123a81614dce565b6020808252810161123a81614df8565b6020808252810161123a81614e31565b6020808252810161123a81614e60565b6020808252810161123a81614ebf565b6020808252810161123a81614ef8565b6020808252810161123a81614f31565b6020808252810161123a81614f6a565b6020808252810161123a81614f94565b6020808252810161123a81614fd7565b6020808252810161123a81614fff565b6020808252810161123a8161502d565b6020808252810161123a8161505b565b6020808252810161123a8161508b565b6020808252810161123a816150e8565b6020808252810161123a81615112565b6020808252810161123a8161513a565b6020808252810161123a81615163565b6020808252810161123a816151af565b6020808252810161123a816151de565b6020808252810161123a81615210565b6020808252810161123a81615242565b610220810161123a828461527b565b6101e0810161123a82846153cf565b60e0810161123a82846154f9565b6020810161123a8284614baa565b6040810161569a8285614baa565b606081016156b58286614baa565b60a08101615a9a8288614baa565b6156656020830187614baa565b60c08101615ab58289614baa565b615ac26020830188614baa565b615acf6040830187614baa565b615adc6060830186614baa565b615ae96080830185614baa565b615af660a0830184614baa565b979650505050505050565b60200190565b5190565b90815260200190565b919050565b600061123a82615b39565b151590565b90565b6001600160e01b03191690565b6001600160a01b031690565b600061123a82615b19565b60005b83811015615b6b578181015183820152602001615b53565b838111156129285750506000910152565b601f01601f191690565b615b8f81615b19565b81146123ef57600080fd5b615b8f81615b24565b615b8f81615b29565b615b8f81615b2c56fea365627a7a72315820049ce2ea9d4d0a92dd5a75d153206f7390009a6e4d78125df2da20ba466816656c6578706572696d656e74616cf564736f6c63430005110040",
  "deployedBytecode": "0x6080604052600436106103d95760003560e01c80638f32d59b116101fd578063cfc85c0611610118578063e81fefa0116100ab578063f2fde38b1161007a578063f2fde38b14610b66578063f589a3e714610b86578063f6ddc8b314610b9b578063f706b1f214610bb0578063f851a44014610bc5576103d9565b8063e81fefa014610b07578063e8f6276414610b27578063edab119f14610b3c578063f0e085f514610b51576103d9565b8063d485045e116100e7578063d485045e14610a94578063db35400d14610ab4578063dea9b46414610ad4578063e69226c714610ae7576103d9565b8063cfc85c0614610a37578063d1979fb014610a4a578063d288208c14610a6a578063d473c2da14610a7f576103d9565b8063b7e1524111610190578063c4a908151161015f578063c4a9081514610989578063c4d66de8146109c1578063cb6eacd1146109e3578063cd5d808d14610a17576103d9565b8063b7e152411461091f578063b9cffa3e1461093f578063ba4861e914610954578063bdee453c14610969576103d9565b8063acc04348116101cc578063acc04348146108b3578063ae0a8530146108c8578063afe84009146108dd578063b30643d9146108ff576103d9565b80638f32d59b1461083957806392d894f81461084e578063959083d31461086e5780639b16cd8714610883576103d9565b80634955d938116102f85780637420ca3e1161028b5780637a8faeb81161025a5780637a8faeb8146107ad5780638456cb59146107c25780638932f5f7146107d75780638da5cb5b146108045780638dc48ba514610819576103d9565b80637420ca3e14610741578063742e67981461075657806376a2743c1461076b57806378d849ed14610798576103d9565b806360857c2c116102c757806360857c2c146106b057806362fff3f6146106d057806368c4ac26146107015780636e66373014610721576103d9565b80634955d9381461062a5780634f28cac214610657578063569fc1fb1461066c578063574442cc1461069b576103d9565b80632a324027116103705780633fca506e1161033f5780633fca506e146105b55780634115a2b6146105d55780634203e395146105f55780634699f84614610615576103d9565b80632a3240271461054b5780632f470764146105605780633432423c146105755780633452d2d414610595576103d9565b806317548b79116103ac57806317548b79146104be5780631b7bde74146104de578063218b39c6146104fe57806324cc57491461051e576103d9565b806302a3fe6414610407578063065d810f1461043d5780630676c1b71461046f578063122f0e3a14610491575b3480156103e557600080fd5b5060405162461bcd60e51b81526004016103fe90615996565b60405180910390fd5b34801561041357600080fd5b50610427610422366004614846565b610bda565b60405161043491906156ee565b60405180910390f35b34801561044957600080fd5b5061045d610458366004614816565b610d27565b60405161043496959493929190615aa7565b34801561047b57600080fd5b50610484610d67565b6040516104349190615593565b34801561049d57600080fd5b506104b16104ac366004614928565b610d76565b6040516104349190615a62565b3480156104ca57600080fd5b506104846104d9366004614a12565b611116565b3480156104ea57600080fd5b506104b16104f93660046147dc565b611131565b34801561050a57600080fd5b506104846105193660046147be565b61114e565b34801561052a57600080fd5b5061053e6105393660046147be565b611169565b60405161043491906156ff565b34801561055757600080fd5b506104b161117e565b34801561056c57600080fd5b506104b1611184565b34801561058157600080fd5b5061045d610590366004614816565b61118a565b3480156105a157600080fd5b506104b16105b03660046147be565b6111ca565b3480156105c157600080fd5b506104b16105d03660046147be565b6111dc565b3480156105e157600080fd5b5061053e6105f0366004614909565b6111ee565b34801561060157600080fd5b506104b16106103660046147be565b61120e565b34801561062157600080fd5b506104b1611220565b34801561063657600080fd5b5061064a6106453660046148eb565b611226565b6040516104349190615a36565b34801561066357600080fd5b506104b1611240565b34801561067857600080fd5b5061068c6106873660046148eb565b611246565b60405161043493929190615a7e565b3480156106a757600080fd5b506104b1611267565b3480156106bc57600080fd5b506104276106cb366004614a7e565b61126d565b3480156106dc57600080fd5b506106f06106eb3660046147dc565b61136c565b604051610434959493929190615a8c565b34801561070d57600080fd5b5061053e61071c3660046147be565b6113a6565b34801561072d57600080fd5b5061048461073c3660046147be565b6113bb565b34801561074d57600080fd5b506104846113d6565b34801561076257600080fd5b506104b16113e5565b34801561077757600080fd5b5061078b610786366004614a7e565b6113eb565b60405161043491906156dd565b3480156107a457600080fd5b506104846114c3565b3480156107b957600080fd5b506104b16114d2565b3480156107ce57600080fd5b5061053e6114d8565b3480156107e357600080fd5b506107f76107f23660046148eb565b6114e1565b6040516104349190615a45565b34801561081057600080fd5b506104846114f5565b34801561082557600080fd5b506104846108343660046147be565b611504565b34801561084557600080fd5b5061053e61151f565b34801561085a57600080fd5b506104b16108693660046147be565b611545565b34801561087a57600080fd5b506104b1611557565b34801561088f57600080fd5b506108a361089e3660046148eb565b61155d565b60405161043494939291906156c2565b3480156108bf57600080fd5b506104b16115ee565b3480156108d457600080fd5b506104b16115f4565b3480156108e957600080fd5b506108f26115fa565b6040516104349190615837565b34801561090b57600080fd5b506104b161091a3660046147be565b611609565b34801561092b57600080fd5b506104b161093a3660046147be565b61161b565b34801561094b57600080fd5b5061048461162d565b34801561096057600080fd5b5061048461163c565b34801561097557600080fd5b506104b16109843660046147be565b61164b565b34801561099557600080fd5b506109a96109a43660046148eb565b61165d565b6040516104349c9b9a99989796959493929190615784565b3480156109cd57600080fd5b506109e16109dc3660046147be565b6116cf565b005b3480156109ef57600080fd5b50610a036109fe3660046148eb565b61185d565b60405161043498979695949392919061570d565b348015610a2357600080fd5b506104b1610a323660046147dc565b6118af565b6104b1610a45366004614994565b6118cc565b348015610a5657600080fd5b5061045d610a653660046147dc565b611d4b565b348015610a7657600080fd5b50610484611e3a565b348015610a8b57600080fd5b506104b1611e49565b348015610aa057600080fd5b506104b1610aaf3660046147be565b611e4f565b348015610ac057600080fd5b506104b1610acf366004614928565b611e61565b6109e1610ae2366004614975565b612086565b348015610af357600080fd5b5061078b610b02366004614846565b6122ac565b348015610b1357600080fd5b506109e1610b223660046147be565b6123c2565b348015610b3357600080fd5b506104846123f2565b348015610b4857600080fd5b506104b1612401565b348015610b5d57600080fd5b506104b1612407565b348015610b7257600080fd5b506109e1610b813660046147be565b61240d565b348015610b9257600080fd5b506104b161243a565b348015610ba757600080fd5b506104b1612440565b348015610bbc57600080fd5b50610484612446565b348015610bd157600080fd5b50610484612455565b6060600083610c00576001600160a01b0388166000908152601260205260409020610c19565b6001600160a01b03881660009081526011602052604090205b90506000610c45610c2983612464565b610c398a8a63ffffffff61246b16565b9063ffffffff61249016565b9050808810610c565750610d1d9050565b86604051908082528060200260200182016040528015610c9057816020015b610c7d6144d2565b815260200190600190039081610c755790505b50925060008882035b8015610d0c5788821415610cac57610d0c565b610cb46144d2565b610cd4610ccd86600019858f010163ffffffff6124a616565b8a896124ca565b8051909150610ce35750610d03565b80868481518110610cf057fe5b6020908102919091010152506001909101905b60001901610c99565b5087811015610d19578084525b5050505b9695505050505050565b6009602090815260009283526040808420909152908252902080546001820154600283015460038401546004850154600590950154939492939192909186565b6031546001600160a01b031681565b6000600160005414610d9a5760405162461bcd60e51b81526004016103fe906159c6565b6002600055603d5460ff1615610dc25760405162461bcd60e51b81526004016103fe90615866565b81610ddf5760405162461bcd60e51b81526004016103fe90615856565b6000848152600660209081526040808320600181015484526007909252909120600382015460ff16610e235760405162461bcd60e51b81526004016103fe906159b6565b600a8201546001600160a01b0316331480610e59575081546000908152600a6020908152604080832033845290915290205460ff165b610e755760405162461bcd60e51b81526004016103fe90615966565b600681015415610e975760405162461bcd60e51b81526004016103fe90615896565b42826007015411610eba5760405162461bcd60e51b81526004016103fe906159f6565b600b8201546002820154610eda916001600160a01b039081169116612850565b81546000818152600c6020526040902060028301546003840154600a8601549293610f1a93859391926001600160a01b039283169290811691164261292e565b6000610f5a62015180610f4e8460000154610f4242896007015461298990919063ffffffff16565b9063ffffffff6129cb16565b9063ffffffff612a0516565b9050808610610f7b5760405162461bcd60e51b81526004016103fe90615936565b602d5460028401546001600160a01b0390811691161415610fa557610fa08787612a47565b610fbe565b6002830154610fbe906001600160a01b03168888612b1f565b8154610fd790610f4e886201518063ffffffff6129cb16565b945084846007015411610ffc5760405162461bcd60e51b81526004016103fe906158d6565b6007840154611011908663ffffffff61298916565b6007850181905542106110365760405162461bcd60e51b81526004016103fe906158d6565b600784015460009061104e904263ffffffff61298916565b9050610e1081116110715760405162461bcd60e51b81526004016103fe906158d6565b6001830154611086908863ffffffff61298916565b6001840155600b858101546001600160a01b039081166000908152602092835260408082206002808a015490941683529093529190912001546110cf908863ffffffff61298916565b600b958601546001600160a01b0390811660009081526020978852604080822060029889015490931682529190975286209094019390935550506001909155509392505050565b6005602052600090815260409020546001600160a01b031681565b603b60209081526000928352604080842090915290825290205481565b6023602052600090815260409020546001600160a01b031681565b60326020526000908152604090205460ff1681565b60185481565b601f5481565b6008602090815260009283526040808420909152908252902080546001820154600283015460038401546004850154600590950154939492939192909186565b601a6020526000908152604090205481565b602a6020526000908152604090205481565b600a60209081526000928352604080842090915290825290205460ff1681565b60166020526000908152604090205481565b60155481565b61122e61455d565b61123a82600080612b90565b92915050565b60295481565b600c6020526000908152604090208054600182015460029092015490919083565b602b5481565b6060600061128e61127e600f612464565b610c39878763ffffffff61246b16565b905080851061129d5750611365565b836040519080825280602002602001820160405280156112d757816020015b6112c46144d2565b8152602001906001900390816112bc5790505b50915060008582035b801561135557858214156112f357611355565b6112fb6144d2565b61131d611315600f600019858c010163ffffffff6124a616565b6000886124ca565b805190915061132c575061134c565b8085848151811061133957fe5b6020908102919091010152506001909101905b600019016112e0565b5084811015611362578083525b50505b9392505050565b600b602090815260009283526040808420909152908252902080546001820154600283015460038401546004909401549293919290919085565b60266020526000908152604090205460ff1681565b6033602052600090815260409020546001600160a01b031681565b6003546001600160a01b031681565b60355481565b606060006113fc61127e600f612464565b905080851061140b5750611365565b8360405190808252806020026020018201604052801561144557816020015b61143261455d565b81526020019060019003908161142a5790505b50915060008582035b8015611355578582141561146157611355565b61146961455d565b61148b611483600f600019858c010163ffffffff6124a616565b600088612b90565b805190915061149a57506114ba565b808584815181106114a757fe5b6020908102919091010152506001909101905b6000190161144e565b6002546001600160a01b031681565b601e5481565b603d5460ff1681565b6114e96144d2565b61123a826000806124ca565b6001546001600160a01b031690565b6022602052600090815260409020546001600160a01b031681565b6001546000906001600160a01b0316611536612f34565b6001600160a01b031614905090565b60176020526000908152604090205481565b602c5481565b60008181526006602081815260408084206001808201548652600780855283872060020154888852600c86529387208054920154959094529201546001600160a01b039091169391929190814282106115b657426115b8565b815b90508082116115c85760006115e3565b6115e362015180610f4e87610f42868663ffffffff61298916565b925050509193509193565b602f5481565b60205481565b602d546001600160a01b031681565b601d6020526000908152604090205481565b601c6020526000908152604090205481565b6037546001600160a01b031681565b6004546001600160a01b031681565b60366020526000908152604090205481565b600660208190526000918252604090912080546001820154600283015460038401546004850154600586015496860154600787015460088801546009890154600a8a0154600b909a0154989a9799969860ff909616979496949593949293919290916001600160a01b0391821691168c565b6116d761151f565b6116f35760405162461bcd60e51b81526004016103fe90615966565b6337aa6d1960e21b600081905260056020527fa56283bb23bc3f9d1e31fd0b79ab29917294036597bcddbdbeb3da57495b10ad546001600160a01b03169061173b9083612f38565b61174c63db35400d60e01b83612f38565b61175d630740ff7d60e51b83612f38565b61176e6367e42e0360e11b83612f38565b61177f630917871d60e11b83612f38565b611790630d1979fb60e41b83612f38565b6117a1639b16cd8760e01b83612f38565b6117b162a8ff9960e21b83612f38565b6117c263e69226c760e01b83612f38565b6117d3638932f5f760e01b83612f38565b6117e463092abb2760e31b83612f38565b6117f56318215f0b60e21b83612f38565b611806631da89d0f60e21b83612f38565b6e4c6f616e4d61696e74656e616e636560881b826001600160a01b0316826001600160a01b03167f1420e3a2094d671bc2eb897941fa3d94ffa37f0cb6d530651946250a2151cb7f60405160405180910390a45050565b6007602052600090815260409020805460018201546002830154600384015460048501546005860154600690960154949560ff8516956101009095046001600160a01b03908116959481169493169288565b603c60209081526000928352604080842090915290825290205481565b60006001600054146118f05760405162461bcd60e51b81526004016103fe906159c6565b6002600055603d5460ff16156119185760405162461bcd60e51b81526004016103fe90615866565b846119355760405162461bcd60e51b81526004016103fe90615976565b6000868152600660209081526040808320600181015484526007909252909120600382015460ff166119795760405162461bcd60e51b81526004016103fe906159b6565b8515806119925750600a8201546001600160a01b031633145b806119b8575081546000908152600a6020908152604080832033845290915290205460ff165b6119d45760405162461bcd60e51b81526004016103fe90615966565b6006810154156119f65760405162461bcd60e51b81526004016103fe90615896565b341580611a1e575085158015611a1e5750602d5460028201546001600160a01b039081169116145b611a3a5760405162461bcd60e51b81526004016103fe906158c6565b600b8201546002820154611a5a916001600160a01b039081169116612850565b81546000818152600c6020526040902060028301546003840154600a8601549293611a9a93859391926001600160a01b039283169290811691164261292e565b60008360070154421115611b0a576007840154611abe90429063ffffffff61298916565b8254909150611ad490829063ffffffff6129cb16565b9050611ae9816201518063ffffffff612a0516565b9050808911611b0a5760405162461bcd60e51b81526004016103fe906158a6565b8715611b8d5760408051610100808201835285548252600186015460ff811615156020840152046001600160a01b039081169282019290925260028501548216606082015260038501549091166080820152600484015460a0820152600584015460c0820152600684015460e0820152611b869085908b612fae565b9850611bd9565b34611bb0576002830154611bab906001600160a01b0316338b6130e2565b611bd9565b883414611bcf5760405162461bcd60e51b81526004016103fe90615a16565b611bd93334613146565b8015611c1357611bef898263ffffffff61298916565b600b8501546002850154919a50611c13916001600160a01b039182169116836131ec565b8154611c2c90610f4e8b6201518063ffffffff6129cb16565b6007850154909550611c44908663ffffffff61246b16565b600785018190554210611c695760405162461bcd60e51b81526004016103fe906158d6565b6007840154600090611c81904263ffffffff61298916565b9050610e108111611ca45760405162461bcd60e51b81526004016103fe906158d6565b6001830154611cb9908b63ffffffff61246b16565b6001840155600b858101546001600160a01b039081166000908152602092835260408082206002808a01549094168352909352919091200154611d02908b63ffffffff61246b16565b600b958601546001600160a01b03908116600090815260209788526040808220600298890154909316825291909752862090940193909355505060019091555095945050505050565b600080600080600080611d5c6145ff565b506001600160a01b038089166000908152600b60209081526040808320938b16835292815290829020825160a081018452815481526001820154928101839052600282015493810193909352600381015460608401526004015460808301819052611ddc916201518091610f4e9190610f4290429063ffffffff61298916565b93508060400151841115611df257806040015193505b606081015180611e03576000611e09565b81608001515b60208301516080840151611e1e576000611e20565b865b6015549451939d929c50909a509850919650945092505050565b6038546001600160a01b031681565b60275481565b60196020526000908152604090205481565b6000600160005414611e855760405162461bcd60e51b81526004016103fe906159c6565b6002600055603d5460ff1615611ead5760405162461bcd60e51b81526004016103fe90615866565b81611eca5760405162461bcd60e51b81526004016103fe90615856565b6000848152600660209081526040808320600181015484526007909252909120600382015460ff16611f0e5760405162461bcd60e51b81526004016103fe906159b6565b600a8201546001600160a01b0316331480611f44575081546000908152600a6020908152604080832033845290915290205460ff165b611f605760405162461bcd60e51b81526004016103fe90615966565b600280549082015460038301546004808601546005808801549087015460405163f80b25fb60e01b81526000976001600160a01b039081169763f80b25fb97611fb49791831696921694919391920161564a565b60206040518083038186803b158015611fcc57600080fd5b505afa158015611fe0573d6000803e3d6000fd5b505050506040513d601f19601f820116820180604052506120049190810190614a30565b9050808511156120165780935061201a565b8493505b600583015461202f908563ffffffff61298916565b6005840155602d5460038301546001600160a01b039081169116141561205e576120598685612a47565b612077565b6003820154612077906001600160a01b03168786612b1f565b50506001600055509392505050565b6001600054146120a85760405162461bcd60e51b81526004016103fe906159c6565b6002600055603d5460ff16156120d05760405162461bcd60e51b81526004016103fe90615866565b806120ed5760405162461bcd60e51b81526004016103fe90615976565b6000828152600660209081526040808320600181015484526007909252909120600382015460ff166121315760405162461bcd60e51b81526004016103fe906159b6565b3415806121505750602d5460038201546001600160a01b039081169116145b61216c5760405162461bcd60e51b81526004016103fe906158c6565b6005820154612181908463ffffffff61246b16565b6005830155346121a95760038101546121a4906001600160a01b031633856130e2565b6121d2565b8234146121c85760405162461bcd60e51b81526004016103fe90615a16565b6121d23334613146565b60028054600383015491830154604051630a7549df60e21b81526000936001600160a01b03938416936329d5277c9361221493928216929116906004016155a1565b604080518083038186803b15801561222b57600080fd5b505afa15801561223f573d6000803e3d6000fd5b505050506040513d601f19601f820116820180604052506122639190810190614a4e565b509050847fc3c4f75ea99730f240c3ea8d68f7a9b94584539caf936f566e8b9f8fe13036f48583604051612298929190615a70565b60405180910390a250506001600055505050565b60606000836122d2576001600160a01b03881660009081526012602052604090206122eb565b6001600160a01b03881660009081526011602052604090205b905060006122fb610c2983612464565b905080881061230c5750610d1d9050565b8660405190808252806020026020018201604052801561234657816020015b61233361455d565b81526020019060019003908161232b5790505b50925060008882035b8015610d0c578882141561236257610d0c565b61236a61455d565b61238a61238386600019858f010163ffffffff6124a616565b8a89612b90565b805190915061239957506123b9565b808684815181106123a657fe5b6020908102919091010152506001909101905b6000190161234f565b603d5460ff16156123e55760405162461bcd60e51b81526004016103fe90615866565b6123ef3382612850565b50565b6014546001600160a01b031681565b601b5481565b60285481565b61241561151f565b6124315760405162461bcd60e51b81526004016103fe90615966565b6123ef81613283565b60395481565b60215481565b602e546001600160a01b031681565b6030546001600160a01b031681565b6001015490565b6000828201838110156113655760405162461bcd60e51b81526004016103fe906158b6565b600081831061249f5781611365565b5090919050565b60008260010182815481106124b757fe5b9060005260206000200154905092915050565b6124d26144d2565b6124da61462e565b5060008481526006602081815260409283902083516101808101855281548152600182015492810192909252600281015493820193909352600383015460ff161515606082015260048301546080820152600583015460a08201529082015460c0820152600782015460e082015260088201546101008201526009820154610120820152600a8201546001600160a01b03908116610140830152600b9092015490911661016082015261258b614692565b506020808201516000908152600782526040908190208151610100808201845282548252600183015460ff81161515958301959095526001600160a01b03940484169281019290925260028101548316606083015260038101549092166080820152600482015460a0820152600582015460c082015260069091015460e0820152841561264957846001148015612625575060e081015115155b8061263d575084600214801561263d575060e0810151155b61264957506113659050565b6126516146d6565b506000868152600c6020908152604080832081516060808201845282548252600183015494820194909452600291820154818401529054928501516080808701519088015160a089015194516317f8680960e11b815293969586956001600160a01b0390911694632ff0d012946126d094909390929091600401615622565b604080518083038186803b1580156126e757600080fd5b505afa1580156126fb573d6000803e3d6000fd5b505050506040513d601f19601f8201168201806040525061271f9190810190614a4e565b915091506000808560c0015184116127555761274a87608001518860a00151868960c0015187613305565b509092509050612768565b8815612768575061136595505050505050565b604051806101e001604052808c815260200187606001516001600160a01b0316815260200187608001516001600160a01b03168152602001886080015181526020018860a00151815260200186600001518152602001428960e0015110156127d15760006127f7565b6127f762015180610f4e8960000151610f42428e60e0015161298990919063ffffffff16565b8152602001886101200151815260200188610100015181526020018760c0015181526020018581526020018760e0015181526020018860e001518152602001838152602001828152509750505050505050509392505050565b6001600160a01b038083166000908152600b6020908152604080832093851683529290529081206001810154909190158015906128905750600482015415155b15612921576128bb62015180610f4e8460010154610f4286600401544261298990919063ffffffff16565b42600484015560028301549091508111156128d7575060028101545b801561291c5760038201546128f2908263ffffffff61246b16565b6003830155600282015461290c908263ffffffff61298916565b600283015561291c8484836131ec565b612928565b4260048301555b50505050565b60006129646a07259756a8d61998000000610f4e601554610f428b60000154610f428d600201548961298990919063ffffffff16565b6002880183905590508015612980576129808387878785613439565b50505050505050565b600061136583836040518060400160405280601e81526020017f536166654d6174683a207375627472616374696f6e206f766572666c6f77000081525061389f565b6000826129da5750600061123a565b828202828482816129e757fe5b04146113655760405162461bcd60e51b81526004016103fe90615956565b600061136583836040518060400160405280601a81526020017f536166654d6174683a206469766973696f6e206279207a65726f0000000000008152506138cb565b8015612b1b57602d546001600160a01b03164780831115612ac357604051632e1a7d4d60e01b81526001600160a01b03831690632e1a7d4d90612a909084870390600401615a62565b600060405180830381600087803b158015612aaa57600080fd5b505af1158015612abe573d6000803e3d6000fd5b505050505b612acd8484613902565b836001600160a01b0316826001600160a01b03167fc44aeefa68e8b9c1ad5f7be4b0dd194580f81f5c362862e72196503a320eb7a185604051612b109190615a62565b60405180910390a350505b5050565b8015612b8b57612b3f6001600160a01b038416838363ffffffff61399e16565b816001600160a01b0316836001600160a01b03167fc44aeefa68e8b9c1ad5f7be4b0dd194580f81f5c362862e72196503a320eb7a183604051612b829190615a62565b60405180910390a35b505050565b612b9861455d565b612ba061462e565b5060008481526006602081815260409283902083516101808101855281548152600182015492810192909252600281015493820193909352600383015460ff161515606082015260048301546080820152600583015460a08201529082015460c0820152600782015460e082015260088201546101008201526009820154610120820152600a8201546001600160a01b03908116610140830152600b90920154909116610160820152612c51614692565b506020808201516000908152600782526040908190208151610100808201845282548252600183015460ff81161515958301959095526001600160a01b03940484169281019290925260028101548316606083015260038101549092166080820152600482015460a0820152600582015460c082015260069091015460e08201528415612d0f57846001148015612ceb575060e081015115155b80612d035750846002148015612d03575060e0810151155b612d0f57506113659050565b612d176146d6565b506000868152600c6020908152604080832081516060808201845282548252600183015494820194909452600291820154818401529054928501516080808701519088015160a089015194516317f8680960e11b815293969586956001600160a01b0390911694632ff0d01294612d9694909390929091600401615622565b604080518083038186803b158015612dad57600080fd5b505afa158015612dc1573d6000803e3d6000fd5b505050506040513d601f19601f82011682018060405250612de59190810190614a4e565b915091506000808560c001518411612e1b57612e1087608001518860a00151868960c0015187613305565b509092509050612e2e565b8815612e2e575061136595505050505050565b6040518061022001604052808c815260200187606001516001600160a01b0316815260200187608001516001600160a01b031681526020018861014001516001600160a01b03168152602001886080015181526020018860a00151815260200186600001518152602001428960e001511015612eab576000612ed1565b612ed162015180610f4e8960000151610f42428e60e0015161298990919063ffffffff16565b8152602001886101200151815260200188610100015181526020018760c0015181526020018581526020018760e0015181526020018860e0015181526020018381526020018281526020018860c001518152509750505050505050509392505050565b3390565b6001600160e01b03198216600090815260056020526040902080546001600160a01b0319166001600160a01b03831690811790915515612f9357612f8d600d6001600160e01b0319841663ffffffff6139f716565b50612b1b565b612b8b600d6001600160e01b0319841663ffffffff613a3f16565b6000806000612ffc86600001548660800151876060015189600a0160009054906101000a90046001600160a01b03168a6005015460008a600160405180602001604052806000815250613b00565b5060058801549193509150613017908263ffffffff61298916565b60058701819055600254606087015160808801516004808b01546040516317f8680960e11b81526000966001600160a01b0390961695632ff0d0129561306295909490939201615622565b604080518083038186803b15801561307957600080fd5b505afa15801561308d573d6000803e3d6000fd5b505050506040513d601f19601f820116820180604052506130b19190810190614a4e565b5090508560c0015181116130d75760405162461bcd60e51b81526004016103fe90615986565b509095945050505050565b8015612b8b576131036001600160a01b03841683308463ffffffff613c5e16565b816001600160a01b0316836001600160a01b03167f2790b90165fd3973ad7edde4eca71b4f8808dd4857a2a3a3e8ae5642a5cb196e83604051612b829190615a62565b602d5460408051630d0e30db60e41b815290516001600160a01b0390921691829163d0e30db091859160048082019260009290919082900301818588803b15801561319057600080fd5b505af11580156131a4573d6000803e3d6000fd5b5050505050826001600160a01b0316816001600160a01b03167f2790b90165fd3973ad7edde4eca71b4f8808dd4857a2a3a3e8ae5642a5cb196e84604051612b829190615a62565b600061321068056bc75e2d63100000610f4e601554856129cb90919063ffffffff16565b905061321d848483613c82565b6132378385613232858563ffffffff61298916565b612b1f565b6001600160a01b038085169084167f220e66e3e759e1382aa86cd8af5abca05ebf3ad564f223ae62d977678337272a613276858563ffffffff61298916565b604051612b109190615a62565b6001600160a01b0381166132a95760405162461bcd60e51b81526004016103fe90615886565b6001546040516001600160a01b038084169216907f8be0079c531659141344cd1fd0a4f28419497f9722a3daafe3b4186f6b6457e090600090a3600180546001600160a01b0319166001600160a01b0392909216919091179055565b602154600090819084861180613319575083155b156133235761342e565b80861161333757508691508590508461342e565b600061335186674563918244f4000063ffffffff61246b16565b905061337468056bc75e2d63100000610f4e8b610f42858463ffffffff61246b16565b93506133a2613395670de0b6b3a7640000610f4e8b8963ffffffff6129cb16565b859063ffffffff61298916565b93506133d06133b7828463ffffffff61298916565b610f4e8668056bc75e2d6310000063ffffffff6129cb16565b9350888411156133de578893505b6134076133fa8368056bc75e2d6310000063ffffffff61246b16565b859063ffffffff6129cb16565b925061341e6064610f4e858863ffffffff612a0516565b92508783111561342c578792505b505b955095509592505050565b602f546002546001600160a01b038581166000908152603c60209081526040808320888516845290915281205490939291909116901561349c576001600160a01b038087166000908152603c602090815260408083209389168352929052205491505b6037546000906060906001600160a01b038085169163d138f9a160e01b918b91166134da68056bc75e2d63100000610f4e8c8b63ffffffff6129cb16565b6040516024016134ec939291906155fa565b60408051601f198184030181529181526020820180516001600160e01b03166001600160e01b031990941693909317909252905161352a919061557c565b600060405180830381855afa9150503d8060008114613565576040519150601f19603f3d011682016040523d82523d6000602084013e61356a565b606091505b5091509150600182141561358057602081015194505b6000306001600160a01b031663c22552f76040518163ffffffff1660e01b815260040160206040518083038186803b1580156135bb57600080fd5b505afa1580156135cf573d6000803e3d6000fd5b505050506040513d601f19601f820116820180604052506135f39190810190614a30565b905085158015906136045750858110155b1561382c5760375460385460405163095ea7b360e01b81526001600160a01b039283169263095ea7b39261363f929116908a9060040161568c565b602060405180830381600087803b15801561365957600080fd5b505af115801561366d573d6000803e3d6000fd5b505050506040513d601f19601f8201168201806040525061369191908101906148cd565b50603854603f546040516000926001600160a01b0316916136b8918f918b916024016156a7565b60408051601f198184030181529181526020820180516001600160e01b0316630efe6a8b60e01b179052516136ed919061557c565b6000604051808303816000865af19150503d806000811461372a576040519150601f19603f3d011682016040523d82523d6000602084013e61372f565b606091505b5050905080156137be57601f5461374c908863ffffffff61246b16565b601f819055508a603760009054906101000a90046001600160a01b03166001600160a01b03168d6001600160a01b03167ff41c644671512f1cda76abfe6038e3d7d526c1377a5a8c692f81703901db2150898b603f546040516137b193929190615a7e565b60405180910390a4613826565b8a603760009054906101000a90046001600160a01b03166001600160a01b03168d6001600160a01b03167f483f67ea49f76ac15e15bbad68b52788ca47d50aef1e4acfe95e5e307e710812898b603f5460405161381d93929190615a7e565b60405180910390a45b50613892565b851580159061383a57508581105b1561389257603754603f546040518c926001600160a01b0390811692908f16917f483f67ea49f76ac15e15bbad68b52788ca47d50aef1e4acfe95e5e307e71081291613889918b918d91615a7e565b60405180910390a45b5050505050505050505050565b600081848411156138c35760405162461bcd60e51b81526004016103fe9190615845565b505050900390565b600081836138ec5760405162461bcd60e51b81526004016103fe9190615845565b5060008385816138f857fe5b0495945050505050565b804710156139225760405162461bcd60e51b81526004016103fe90615916565b6000826001600160a01b03168260405161393b90615588565b60006040518083038185875af1925050503d8060008114613978576040519150601f19603f3d011682016040523d82523d6000602084013e61397d565b606091505b5050905080612b8b5760405162461bcd60e51b81526004016103fe90615906565b604051612b8b90849063a9059cbb60e01b906139c0908690869060240161568c565b60408051601f198184030181529190526020810180516001600160e01b03166001600160e01b031990931692909217909152613d03565b6000613a038383613de8565b613a37575060018083018054808301808355600092835260208084209092018590558483529085905260409091205561123a565b50600061123a565b6000613a4b8383613de8565b15613a375760008281526020849052604090205460018401546000199182019101808214613ac3576000856001018281548110613a8457fe5b9060005260206000200154905080866001018481548110613aa157fe5b6000918252602080832090910192909255918252869052604090206001830190555b60008481526020869052604081205560018501805480613adf57fe5b6001900381819060005260206000200160009055905560019250505061123a565b6040805160a0810182526001600160a01b03808b16825289811660208084019190915230838501819052606080850191909152918a16608084015283519182018452888252810187905291820185905260009182918291613b6591908e888886613dfd565b9093509150613b748b83614022565b600254602754604051631e2c62d360e01b81526001600160a01b0390921691631e2c62d391613bad918f918f9188918a9160040161564a565b60206040518083038186803b158015613bc557600080fd5b505afa158015613bd9573d6000803e3d6000fd5b505050506040513d601f19601f82011682018060405250613bfd9190810190614a30565b9050896001600160a01b03168b6001600160a01b03168d7fb4eb3c9b62efcce7021cba5fd9cd0c44df91c2272806ccc5e57df7c912e8d7168c8688604051613c47939291906156a7565b60405180910390a499509950999650505050505050565b6040516129289085906323b872dd60e01b906139c0908790879087906024016155fa565b8015612b8b576001600160a01b038216600090815260166020526040902054613cb1908263ffffffff61246b16565b6001600160a01b0380841660008181526016602052604090819020939093559151908516907f40a75ae5f7a5336e75f7c7977e12c4b46a9ac0f30de01a2d5b6c1a4f4af6358790612b82908590615a62565b613d15826001600160a01b03166140f0565b613d315760405162461bcd60e51b81526004016103fe90615a26565b60006060836001600160a01b031683604051613d4d919061557c565b6000604051808303816000865af19150503d8060008114613d8a576040519150601f19603f3d011682016040523d82523d6000602084013e613d8f565b606091505b509150915081613db15760405162461bcd60e51b81526004016103fe906158e6565b8051156129285780806020019051613dcc91908101906148cd565b6129285760405162461bcd60e51b81526004016103fe906159e6565b60009081526020919091526040902054151590565b84516000908190151580613e145750602087015115155b613e305760405162461bcd60e51b81526004016103fe906159a6565b6020870151613e4157865160208801525b602087015187511115613e665760405162461bcd60e51b81526004016103fe90615926565b600080600087613f235760408a0151613ee2578515613e9757613e908a60005b602002015161412c565b9050613eab565b613ea88a60005b602002015161415c565b90505b8015613edd5760808b01518b51613ece91908b908e60015b602002015185614180565b8951613eda9082612989565b8a525b613f23565b8515613efa57613ef38a6002613e86565b9050613f08565b613f058a6002613e9e565b90505b8015613f235760408a0151613f1d908261246b565b60408b01525b865115613f425760405162461bcd60e51b81526004016103fe906159d6565b613f4c8b8b6142d0565b60408c01519194509250613f985789518214613f7a5760405162461bcd60e51b81526004016103fe90615a06565b8015613f9357613f90828263ffffffff61246b16565b91505b614012565b60208a0151821115613fbc5760405162461bcd60e51b81526004016103fe906158f6565b60408a0151831015613fe05760405162461bcd60e51b81526004016103fe90615876565b80156140125760808b015160208c0151613fff91908b908e6000613ec3565b61400f838263ffffffff61298916565b92505b5090999098509650505050505050565b6029548015612b8b57602d546000906001600160a01b038581169116141561404b5750816140d0565b600254604051635967aa7560e11b81526001600160a01b039091169063b2cf54ea9061407d908790879060040161568c565b60206040518083038186803b15801561409557600080fd5b505afa1580156140a9573d6000803e3d6000fd5b505050506040513d601f19601f820116820180604052506140cd9190810190614a30565b90505b818111156129285760405162461bcd60e51b81526004016103fe90615946565b6000813f7fc5d2460186f7233c927e7db2dcc703c0e500b653ca82273b7bfad8045d85a47081811480159061412457508115155b949350505050565b600061123a68056bc75e2d63100000614150603e54856129cb90919063ffffffff16565b9063ffffffff6143ba16565b600061123a68056bc75e2d63100000614150601854856129cb90919063ffffffff16565b8080156142c8576001600160a01b038681166000908152603360205260409020541615614236576001600160a01b038087166000908152603360205260409020546141ce91168786846143fc565b50506142336141f568056bc75e2d63100000610f4e603954856129cb90919063ffffffff16565b61422761421a68056bc75e2d63100000610f4e602054876129cb90919063ffffffff16565b849063ffffffff61298916565b9063ffffffff61298916565b90505b6001600160a01b03841660009081526019602052604090205461425f908263ffffffff61246b16565b6001600160a01b03808616600081815260196020526040908190209390935591518792918916907fb23479169712c443e6b00fb0cec3506a5f5926f541df4243d313e11c8c5c71ed906142b3908690615a62565b60405180910390a46142c88686868686613439565b505050505050565b6000806142db6146f7565b84516001600160a01b039081168252602080870151821683820152604080880151831681850152606080890151909316928401929092528551608084015285015160a08301528481015160c0830152516335aaa79d60e01b815273__$6b3065420287e4be5d93089ad806c078e3$__906335aaa79d9061435f908490600401615a54565b604080518083038186803b15801561437657600080fd5b505af415801561438a573d6000803e3d6000fd5b505050506040513d601f19601f820116820180604052506143ae9190810190614a4e565b90969095509350505050565b600061136583836040518060400160405280601a81526020017f536166654d6174683a206469766973696f6e206279207a65726f000000000000815250614488565b6040516306a688ff60e11b815260009081903090630d4d11fe9061442a9089908990899089906004016155bc565b6040805180830381600087803b15801561444357600080fd5b505af1158015614457573d6000803e3d6000fd5b505050506040513d601f19601f8201168201806040525061447b9190810190614a4e565b9097909650945050505050565b600081836144a95760405162461bcd60e51b81526004016103fe9190615845565b50836144b757506000611365565b60008360018603816144c557fe5b0460010195945050505050565b604051806101e001604052806000801916815260200160006001600160a01b0316815260200160006001600160a01b031681526020016000815260200160008152602001600081526020016000815260200160008152602001600081526020016000815260200160008152602001600081526020016000815260200160008152602001600081525090565b6040518061022001604052806000801916815260200160006001600160a01b0316815260200160006001600160a01b0316815260200160006001600160a01b03168152602001600081526020016000815260200160008152602001600081526020016000815260200160008152602001600081526020016000815260200160008152602001600081526020016000815260200160008152602001600081525090565b6040518060a0016040528060008152602001600081526020016000815260200160008152602001600081525090565b6040805161018081018252600080825260208201819052918101829052606081018290526080810182905260a0810182905260c0810182905260e0810182905261010081018290526101208101829052610140810182905261016081019190915290565b6040805161010081018252600080825260208201819052918101829052606081018290526080810182905260a0810182905260c0810182905260e081019190915290565b60405180606001604052806000815260200160008152602001600081525090565b6040805160e081018252600080825260208201819052918101829052606081018290526080810182905260a0810182905260c081019190915290565b803561123a81615b86565b803561123a81615b9a565b805161123a81615b9a565b803561123a81615ba3565b803561123a81615bac565b60008083601f84011261477c57600080fd5b50813567ffffffffffffffff81111561479457600080fd5b6020830191508360018202830111156147ac57600080fd5b9250929050565b805161123a81615ba3565b6000602082840312156147d057600080fd5b60006141248484614733565b600080604083850312156147ef57600080fd5b60006147fb8585614733565b925050602061480c85828601614733565b9150509250929050565b6000806040838503121561482957600080fd5b60006148358585614733565b925050602061480c85828601614754565b60008060008060008060c0878903121561485f57600080fd5b600061486b8989614733565b965050602061487c89828a01614754565b955050604061488d89828a01614754565b945050606061489e89828a01614754565b93505060806148af89828a0161473e565b92505060a06148c089828a0161473e565b9150509295509295509295565b6000602082840312156148df57600080fd5b60006141248484614749565b6000602082840312156148fd57600080fd5b60006141248484614754565b6000806040838503121561491c57600080fd5b60006147fb8585614754565b60008060006060848603121561493d57600080fd5b60006149498686614754565b935050602061495a86828701614733565b925050604061496b86828701614754565b9150509250925092565b6000806040838503121561498857600080fd5b60006148358585614754565b6000806000806000608086880312156149ac57600080fd5b60006149b88888614754565b95505060206149c988828901614754565b94505060406149da8882890161473e565b935050606086013567ffffffffffffffff8111156149f757600080fd5b614a038882890161476a565b92509250509295509295909350565b600060208284031215614a2457600080fd5b6000614124848461475f565b600060208284031215614a4257600080fd5b600061412484846147b3565b60008060408385031215614a6157600080fd5b6000614a6d85856147b3565b925050602061480c858286016147b3565b600080600060608486031215614a9357600080fd5b6000614a9f8686614754565b9350506020614ab086828701614754565b925050604061496b8682870161473e565b6000614acd838361527b565b50506102200190565b6000614ae283836153cf565b50506101e00190565b614af481615b19565b82525050565b6000614b0582615b07565b614b0f8185615b0b565b9350614b1a83615b01565b8060005b83811015614b48578151614b328882614ac1565b9750614b3d83615b01565b925050600101614b1e565b509495945050505050565b6000614b5e82615b07565b614b688185615b0b565b9350614b7383615b01565b8060005b83811015614b48578151614b8b8882614ad6565b9750614b9683615b01565b925050600101614b77565b614af481615b24565b614af481615b29565b6000614bbe82615b07565b614bc88185615b14565b9350614bd8818560208601615b50565b9290920192915050565b614af481615b45565b6000614bf682615b07565b614c008185615b0b565b9350614c10818560208601615b50565b614c1981615b7c565b9093019392505050565b6000614c30601383615b0b565b7207769746864726177416d6f756e74206973203606c1b815260200192915050565b6000614c5f600683615b0b565b6514185d5cd95960d21b815260200192915050565b6000614c81601b83615b0b565b7f696e73756666696369656e742073776170206c69717569646974790000000000815260200192915050565b6000614cba602683615b0b565b7f4f776e61626c653a206e6577206f776e657220697320746865207a65726f206181526564647265737360d01b602082015260400192915050565b6000614d02601483615b0b565b73696e646566696e6974652d7465726d206f6e6c7960601b815260200192915050565b6000614d32602283615b0b565b7f6465706f7369742063616e6e6f7420636f766572206261636b20696e746572658152611cdd60f21b602082015260400192915050565b6000614d76601b83615b0b565b7f536166654d6174683a206164646974696f6e206f766572666c6f770000000000815260200192915050565b6000614daf601083615b0b565b6f1ddc9bdb99c8185cdcd95d081cd95b9d60821b815260200192915050565b6000614ddb600e83615b0b565b6d1b1bd85b881d1bdbc81cda1bdc9d60921b815260200192915050565b6000614e05602083615b0b565b7f5361666545524332303a206c6f772d6c6576656c2063616c6c206661696c6564815260200192915050565b6000614e3e601383615b0b565b72737761702066696c6c20746f6f206c6172676560681b815260200192915050565b6000614e6d603a83615b0b565b7f416464726573733a20756e61626c6520746f2073656e642076616c75652c207281527f6563697069656e74206d61792068617665207265766572746564000000000000602082015260400192915050565b6000614ecc601d83615b0b565b7f416464726573733a20696e73756666696369656e742062616c616e6365000000815260200192915050565b6000614f05601c83615b0b565b7f736f75726365416d6f756e74206c6172676572207468616e206d617800000000815260200192915050565b6000614f3e601883615b0b565b7f776974686472617720616d6f756e7420746f6f20686967680000000000000000815260200192915050565b6000614f77600e83615b0b565b6d7377617020746f6f206c6172676560901b815260200192915050565b6000614fa1602183615b0b565b7f536166654d6174683a206d756c7469706c69636174696f6e206f766572666c6f8152607760f81b602082015260400192915050565b6000614fe4600c83615b0b565b6b1d5b985d5d1a1bdc9a5e995960a21b815260200192915050565b600061500c601283615b0b565b7106465706f736974416d6f756e7420697320360741b815260200192915050565b600061503a601283615b0b565b713ab73432b0b63a343c903837b9b4ba34b7b760711b815260200192915050565b6000615068601483615b0b565b7319985b1b189858dac81b9bdd08185b1b1bddd95960621b815260200192915050565b6000615098602e83615b0b565b7f6d696e206f72206d617820736f7572636520746f6b656e20616d6f756e74206e81526d1959591cc81d1bc81899481cd95d60921b602082015260400192915050565b600061123a600083615b14565b60006150f5600e83615b0b565b6d1b1bd85b881a5cc818db1bdcd95960921b815260200192915050565b600061511f600c83615b0b565b6b1b9bdb9499595b9d1c985b9d60a21b815260200192915050565b6000615147600d83615b0b565b6c696e76616c696420737461746560981b815260200192915050565b6000615170602a83615b0b565b7f5361666545524332303a204552433230206f7065726174696f6e20646964206e8152691bdd081cdd58d8d9595960b21b602082015260400192915050565b60006151bc601383615b0b565b721b1bd85b881d195c9b481a185cc8195b991959606a1b815260200192915050565b60006151eb601683615b0b565b751cddd85c081d1bdbc81b185c99d9481d1bc8199a5b1b60521b815260200192915050565b600061521d601683615b0b565b750cae8d0cae440c8cae0dee6d2e840dad2e6dac2e8c6d60531b815260200192915050565b600061524f601f83615b0b565b7f5361666545524332303a2063616c6c20746f206e6f6e2d636f6e747261637400815260200192915050565b805161022083019061528d8482614baa565b5060208201516152a06020850182614aeb565b5060408201516152b36040850182614aeb565b5060608201516152c66060850182614aeb565b5060808201516152d96080850182614baa565b5060a08201516152ec60a0850182614baa565b5060c08201516152ff60c0850182614baa565b5060e082015161531260e0850182614baa565b50610100820151615327610100850182614baa565b5061012082015161533c610120850182614baa565b50610140820151615351610140850182614baa565b50610160820151615366610160850182614baa565b5061018082015161537b610180850182614baa565b506101a08201516153906101a0850182614baa565b506101c08201516153a56101c0850182614baa565b506101e08201516153ba6101e0850182614baa565b50610200820151612928610200850182614baa565b80516101e08301906153e18482614baa565b5060208201516153f46020850182614aeb565b5060408201516154076040850182614aeb565b50606082015161541a6060850182614baa565b50608082015161542d6080850182614baa565b5060a082015161544060a0850182614baa565b5060c082015161545360c0850182614baa565b5060e082015161546660e0850182614baa565b5061010082015161547b610100850182614baa565b50610120820151615490610120850182614baa565b506101408201516154a5610140850182614baa565b506101608201516154ba610160850182614baa565b506101808201516154cf610180850182614baa565b506101a08201516154e46101a0850182614baa565b506101c08201516129286101c0850182614baa565b805160e083019061550a8482614aeb565b50602082015161551d6020850182614aeb565b5060408201516155306040850182614aeb565b5060608201516155436060850182614aeb565b5060808201516155566080850182614baa565b5060a082015161556960a0850182614baa565b5060c082015161292860c0850182614baa565b60006113658284614bb3565b600061123a826150db565b6020810161123a8284614aeb565b604081016155af8285614aeb565b6113656020830184614aeb565b608081016155ca8287614aeb565b6155d76020830186614aeb565b6155e46040830185614aeb565b6155f16060830184614baa565b95945050505050565b606081016156088286614aeb565b6156156020830185614aeb565b6141246040830184614baa565b608081016156308287614aeb565b61563d6020830186614aeb565b6155e46040830185614baa565b60a081016156588288614aeb565b6156656020830187614aeb565b6156726040830186614baa565b61567f6060830185614baa565b610d1d6080830184614baa565b6040810161569a8285614aeb565b6113656020830184614baa565b606081016156b58286614aeb565b6156156020830185614baa565b608081016156d08287614aeb565b61563d6020830186614baa565b602080825281016113658184614afa565b602080825281016113658184614b53565b6020810161123a8284614ba1565b610100810161571c828b614baa565b615729602083018a614ba1565b6157366040830189614aeb565b6157436060830188614aeb565b6157506080830187614aeb565b61575d60a0830186614baa565b61576a60c0830185614baa565b61577760e0830184614baa565b9998505050505050505050565b6101808101615793828f614baa565b6157a0602083018e614baa565b6157ad604083018d614baa565b6157ba606083018c614ba1565b6157c7608083018b614baa565b6157d460a083018a614baa565b6157e160c0830189614baa565b6157ee60e0830188614baa565b6157fc610100830187614baa565b61580a610120830186614baa565b615818610140830185614aeb565b615826610160830184614aeb565b9d9c50505050505050505050505050565b6020810161123a8284614be2565b602080825281016113658184614beb565b6020808252810161123a81614c23565b6020808252810161123a81614c52565b6020808252810161123a81614c74565b6020808252810161123a81614cad565b6020808252810161123a81614cf5565b6020808252810161123a81614d25565b6020808252810161123a81614d69565b6020808252810161123a81614da2565b6020808252810161123a81614dce565b6020808252810161123a81614df8565b6020808252810161123a81614e31565b6020808252810161123a81614e60565b6020808252810161123a81614ebf565b6020808252810161123a81614ef8565b6020808252810161123a81614f31565b6020808252810161123a81614f6a565b6020808252810161123a81614f94565b6020808252810161123a81614fd7565b6020808252810161123a81614fff565b6020808252810161123a8161502d565b6020808252810161123a8161505b565b6020808252810161123a8161508b565b6020808252810161123a816150e8565b6020808252810161123a81615112565b6020808252810161123a8161513a565b6020808252810161123a81615163565b6020808252810161123a816151af565b6020808252810161123a816151de565b6020808252810161123a81615210565b6020808252810161123a81615242565b610220810161123a828461527b565b6101e0810161123a82846153cf565b60e0810161123a82846154f9565b6020810161123a8284614baa565b6040810161569a8285614baa565b606081016156b58286614baa565b60a08101615a9a8288614baa565b6156656020830187614baa565b60c08101615ab58289614baa565b615ac26020830188614baa565b615acf6040830187614baa565b615adc6060830186614baa565b615ae96080830185614baa565b615af660a0830184614baa565b979650505050505050565b60200190565b5190565b90815260200190565b919050565b600061123a82615b39565b151590565b90565b6001600160e01b03191690565b6001600160a01b031690565b600061123a82615b19565b60005b83811015615b6b578181015183820152602001615b53565b838111156129285750506000910152565b601f01601f191690565b615b8f81615b19565b81146123ef57600080fd5b615b8f81615b24565b615b8f81615b29565b615b8f81615b2c56fea365627a7a72315820049ce2ea9d4d0a92dd5a75d153206f7390009a6e4d78125df2da20ba466816656c6578706572696d656e74616cf564736f6c63430005110040",
  "libraries": {
    "SwapsImplSovrynSwapLib": "0xf0F97838B2c80be59118e37436eca8F8edc2d08c"
  },
  "devdoc": {
    "methods": {
      "depositCollateral(bytes32,uint256)": {
        "params": {
          "depositAmount": "The amount to be deposited in collateral tokens.",
          "loanId": "A unique ID representing the loan."
        },
        "return": "actualWithdrawAmount The amount withdrawn taking into account drawdowns."
      },
      "extendLoanDuration(bytes32,uint256,bool,bytes)": {
        "params": {
          "depositAmount": "The amount to be deposited in loan tokens. Used to pay the interest for the new duration.",
          "loanId": "A unique ID representing the loan.",
          "useCollateral": "Whether pay interests w/ the collateral. If true, depositAmount of loan tokens\t\t\t\t\twill be purchased with the collateral. // param calldata The payload for the call. These loan DataBytes are additional loan data (not in use for token swaps)."
        },
        "return": "secondsExtended The amount of time in seconds the loan is extended."
      },
      "getActiveLoans(uint256,uint256,bool)": {
        "params": {
          "count": "The maximum number of results.",
          "start": "The lower loan ID to start with.",
          "unsafeOnly": "The safe filter (True/False)."
        },
        "return": "loansData The data structure w/ loan information."
      },
      "getActiveLoansV2(uint256,uint256,bool)": {
        "details": "New view function which will return the loan data.This function was created to support backward compatibilityAs in we the old getActiveLoans function is not expected to be changed by the wathcers.",
        "params": {
          "count": "The maximum number of results.",
          "start": "The lower loan ID to start with.",
          "unsafeOnly": "The safe filter (True/False)."
        },
        "return": "loanData The data structureextendedLoanData The data structure which contained (borrower & creation time)"
      },
      "getLenderInterestData(address,address)": {
        "params": {
          "lender": "The lender address.",
          "loanToken": "The loan token address."
        },
        "return": "interestPaid The total amount of interest that has been paid to a lender so far.interestPaidDate The date of the last interest pay out, or 0 if no interest has been withdrawn yet.interestOwedPerDay The amount of interest the lender is earning per day.interestUnPaid The total amount of interest the lender is owned and not yet withdrawn.interestFeePercent The fee retained by the protocol before interest is paid to the lender.principalTotal The total amount of outstanding principal the lender has loaned."
      },
      "getLoan(bytes32)": {
        "params": {
          "loanId": "A unique ID representing the loan."
        },
        "return": "loansData The data structure w/ loan information."
      },
      "getLoanInterestData(bytes32)": {
        "params": {
          "loanId": "A unique ID representing the loan."
        },
        "return": "loanToken The loan token that interest is paid in.interestOwedPerDay The amount of interest the borrower is paying per day.interestDepositTotal The total amount of interest the borrower has deposited.interestDepositRemaining The amount of deposited interest that is not yet owed to a lender."
      },
      "getLoanV2(bytes32)": {
        "params": {
          "loanId": "A unique ID representing the loan."
        },
        "return": "loansData The data structure w/ loan information."
      },
      "getUserLoans(address,uint256,uint256,uint256,bool,bool)": {
        "params": {
          "count": "The maximum number of results.",
          "isLender": "Whether the user is lender or borrower.",
          "loanType": "The type of loan.  loanType 0: all loans.  loanType 1: margin trade loans.  loanType 2: non-margin trade loans.",
          "start": "The lower loan ID to start with.",
          "unsafeOnly": "The safe filter (True/False).",
          "user": "The user address."
        },
        "return": "loansData The array of loans as query result."
      },
      "getUserLoansV2(address,uint256,uint256,uint256,bool,bool)": {
        "params": {
          "count": "The maximum number of results.",
          "isLender": "Whether the user is lender or borrower.",
          "loanType": "The type of loan.  loanType 0: all loans.  loanType 1: margin trade loans.  loanType 2: non-margin trade loans.",
          "start": "The lower loan ID to start with.",
          "unsafeOnly": "The safe filter (True/False).",
          "user": "The user address."
        },
        "return": "loansData The array of loans as query result."
      },
      "initialize(address)": {
        "params": {
          "target": "The address of the logic contract instance."
        }
      },
      "isOwner()": {
        "details": "Returns true if the caller is the current owner."
      },
      "owner()": {
        "details": "Returns the address of the current owner."
      },
      "reduceLoanDuration(bytes32,address,uint256)": {
        "params": {
          "loanId": "A unique ID representing the loan.",
          "receiver": "The account getting the withdrawal.",
          "withdrawAmount": "The amount to be withdrawn in loan tokens."
        },
        "return": "secondsReduced The amount of time in seconds the loan is reduced."
      },
      "transferOwnership(address)": {
        "details": "Transfers ownership of the contract to a new account (`newOwner`). Can only be called by the current owner."
      },
      "withdrawAccruedInterest(address)": {
        "details": "Wrapper for _payInterest internal function.",
        "params": {
          "loanToken": "The loan token address."
        }
      },
      "withdrawCollateral(bytes32,address,uint256)": {
        "params": {
          "loanId": "A unique ID representing the loan.",
          "receiver": "The account getting the withdrawal.",
          "withdrawAmount": "The amount to be withdrawn in collateral tokens."
        },
        "return": "actualWithdrawAmount The amount withdrawn taking into account drawdowns."
      }
    },
    "title": "Loan Maintenance contract."
  },
  "userdoc": {
    "methods": {
      "constructor": "Empty public constructor.",
      "depositCollateral(bytes32,uint256)": {
        "notice": "Increase the margin of a position by depositing additional collateral."
      },
      "extendLoanDuration(bytes32,uint256,bool,bytes)": {
        "notice": "Extend the loan duration by as much time as depositAmount can buy."
      },
      "getActiveLoans(uint256,uint256,bool)": {
        "notice": "Get all active loans."
      },
      "getLenderInterestData(address,address)": {
        "notice": "Get current lender interest data totals for all loans  with a specific oracle and interest token."
      },
      "getLoan(bytes32)": {
        "notice": "Get one loan data structure by matching ID.     * Wrapper to internal _getLoan call."
      },
      "getLoanInterestData(bytes32)": {
        "notice": "Get current interest data for a loan."
      },
      "getLoanV2(bytes32)": {
        "notice": "Get one loan data structure by matching ID.     * Wrapper to internal _getLoan call."
      },
      "getUserLoans(address,uint256,uint256,uint256,bool,bool)": {
        "notice": "Get all user loans.     * Only returns data for loans that are active."
      },
      "getUserLoansV2(address,uint256,uint256,uint256,bool,bool)": {
        "notice": "Get all user loans.     * Only returns data for loans that are active."
      },
      "initialize(address)": {
        "notice": "Set initial values of proxy targets."
      },
      "reduceLoanDuration(bytes32,address,uint256)": {
        "notice": "Reduce the loan duration by withdrawing from the deposited interest."
      },
      "withdrawAccruedInterest(address)": {
        "notice": "Withdraw accrued loan interest."
      },
      "withdrawCollateral(bytes32,address,uint256)": {
        "notice": "Withdraw from the collateral. This reduces the margin of a position."
      }
    },
    "notice": "This contract code comes from bZx. bZx is a protocol for tokenized margin trading and lending https://bzx.network similar to the dYdX protocol. * This contract contains functions to query loan data and to modify its status by withdrawing or depositing collateral."
  },
  "storageLayout": {
    "storage": [
      {
        "astId": 54790,
        "contract": "contracts/modules/LoanMaintenance.sol:LoanMaintenance",
        "label": "reentrancyLock",
        "offset": 0,
        "slot": "0",
        "type": "t_uint256"
      },
      {
        "astId": 54606,
        "contract": "contracts/modules/LoanMaintenance.sol:LoanMaintenance",
        "label": "_owner",
        "offset": 0,
        "slot": "1",
        "type": "t_address"
      },
      {
        "astId": 6188,
        "contract": "contracts/modules/LoanMaintenance.sol:LoanMaintenance",
        "label": "priceFeeds",
        "offset": 0,
        "slot": "2",
        "type": "t_address"
      },
      {
        "astId": 6190,
        "contract": "contracts/modules/LoanMaintenance.sol:LoanMaintenance",
        "label": "swapsImpl",
        "offset": 0,
        "slot": "3",
        "type": "t_address"
      },
      {
        "astId": 6192,
        "contract": "contracts/modules/LoanMaintenance.sol:LoanMaintenance",
        "label": "sovrynSwapContractRegistryAddress",
        "offset": 0,
        "slot": "4",
        "type": "t_address"
      },
      {
        "astId": 6196,
        "contract": "contracts/modules/LoanMaintenance.sol:LoanMaintenance",
        "label": "logicTargets",
        "offset": 0,
        "slot": "5",
        "type": "t_mapping(t_bytes4,t_address)"
      },
      {
        "astId": 6200,
        "contract": "contracts/modules/LoanMaintenance.sol:LoanMaintenance",
        "label": "loans",
        "offset": 0,
        "slot": "6",
        "type": "t_mapping(t_bytes32,t_struct(Loan)6566_storage)"
      },
      {
        "astId": 6204,
        "contract": "contracts/modules/LoanMaintenance.sol:LoanMaintenance",
        "label": "loanParams",
        "offset": 0,
        "slot": "7",
        "type": "t_mapping(t_bytes32,t_struct(LoanParams)6538_storage)"
      },
      {
        "astId": 6210,
        "contract": "contracts/modules/LoanMaintenance.sol:LoanMaintenance",
        "label": "lenderOrders",
        "offset": 0,
        "slot": "8",
        "type": "t_mapping(t_address,t_mapping(t_bytes32,t_struct(Order)6582_storage))"
      },
      {
        "astId": 6216,
        "contract": "contracts/modules/LoanMaintenance.sol:LoanMaintenance",
        "label": "borrowerOrders",
        "offset": 0,
        "slot": "9",
        "type": "t_mapping(t_address,t_mapping(t_bytes32,t_struct(Order)6582_storage))"
      },
      {
        "astId": 6222,
        "contract": "contracts/modules/LoanMaintenance.sol:LoanMaintenance",
        "label": "delegatedManagers",
        "offset": 0,
        "slot": "10",
        "type": "t_mapping(t_bytes32,t_mapping(t_address,t_bool))"
      },
      {
        "astId": 6228,
        "contract": "contracts/modules/LoanMaintenance.sol:LoanMaintenance",
        "label": "lenderInterest",
        "offset": 0,
        "slot": "11",
        "type": "t_mapping(t_address,t_mapping(t_address,t_struct(LenderInterest)6508_storage))"
      },
      {
        "astId": 6232,
        "contract": "contracts/modules/LoanMaintenance.sol:LoanMaintenance",
        "label": "loanInterest",
        "offset": 0,
        "slot": "12",
        "type": "t_mapping(t_bytes32,t_struct(LoanInterest)6518_storage)"
      },
      {
        "astId": 6234,
        "contract": "contracts/modules/LoanMaintenance.sol:LoanMaintenance",
        "label": "logicTargetsSet",
        "offset": 0,
        "slot": "13",
        "type": "t_struct(Bytes32Set)36272_storage"
      },
      {
        "astId": 6236,
        "contract": "contracts/modules/LoanMaintenance.sol:LoanMaintenance",
        "label": "activeLoansSet",
        "offset": 0,
        "slot": "15",
        "type": "t_struct(Bytes32Set)36272_storage"
      },
      {
        "astId": 6240,
        "contract": "contracts/modules/LoanMaintenance.sol:LoanMaintenance",
        "label": "lenderLoanSets",
        "offset": 0,
        "slot": "17",
        "type": "t_mapping(t_address,t_struct(Bytes32Set)36272_storage)"
      },
      {
        "astId": 6244,
        "contract": "contracts/modules/LoanMaintenance.sol:LoanMaintenance",
        "label": "borrowerLoanSets",
        "offset": 0,
        "slot": "18",
        "type": "t_mapping(t_address,t_struct(Bytes32Set)36272_storage)"
      },
      {
        "astId": 6248,
        "contract": "contracts/modules/LoanMaintenance.sol:LoanMaintenance",
        "label": "userLoanParamSets",
        "offset": 0,
        "slot": "19",
        "type": "t_mapping(t_address,t_struct(Bytes32Set)36272_storage)"
      },
      {
        "astId": 6250,
        "contract": "contracts/modules/LoanMaintenance.sol:LoanMaintenance",
        "label": "feesController",
        "offset": 0,
        "slot": "20",
        "type": "t_address"
      },
      {
        "astId": 6255,
        "contract": "contracts/modules/LoanMaintenance.sol:LoanMaintenance",
        "label": "lendingFeePercent",
        "offset": 0,
        "slot": "21",
        "type": "t_uint256"
      },
      {
        "astId": 6259,
        "contract": "contracts/modules/LoanMaintenance.sol:LoanMaintenance",
        "label": "lendingFeeTokensHeld",
        "offset": 0,
        "slot": "22",
        "type": "t_mapping(t_address,t_uint256)"
      },
      {
        "astId": 6263,
        "contract": "contracts/modules/LoanMaintenance.sol:LoanMaintenance",
        "label": "lendingFeeTokensPaid",
        "offset": 0,
        "slot": "23",
        "type": "t_mapping(t_address,t_uint256)"
      },
      {
        "astId": 6270,
        "contract": "contracts/modules/LoanMaintenance.sol:LoanMaintenance",
        "label": "tradingFeePercent",
        "offset": 0,
        "slot": "24",
        "type": "t_uint256"
      },
      {
        "astId": 6274,
        "contract": "contracts/modules/LoanMaintenance.sol:LoanMaintenance",
        "label": "tradingFeeTokensHeld",
        "offset": 0,
        "slot": "25",
        "type": "t_mapping(t_address,t_uint256)"
      },
      {
        "astId": 6278,
        "contract": "contracts/modules/LoanMaintenance.sol:LoanMaintenance",
        "label": "tradingFeeTokensPaid",
        "offset": 0,
        "slot": "26",
        "type": "t_mapping(t_address,t_uint256)"
      },
      {
        "astId": 6285,
        "contract": "contracts/modules/LoanMaintenance.sol:LoanMaintenance",
        "label": "borrowingFeePercent",
        "offset": 0,
        "slot": "27",
        "type": "t_uint256"
      },
      {
        "astId": 6289,
        "contract": "contracts/modules/LoanMaintenance.sol:LoanMaintenance",
        "label": "borrowingFeeTokensHeld",
        "offset": 0,
        "slot": "28",
        "type": "t_mapping(t_address,t_uint256)"
      },
      {
        "astId": 6293,
        "contract": "contracts/modules/LoanMaintenance.sol:LoanMaintenance",
        "label": "borrowingFeeTokensPaid",
        "offset": 0,
        "slot": "29",
        "type": "t_mapping(t_address,t_uint256)"
      },
      {
        "astId": 6295,
        "contract": "contracts/modules/LoanMaintenance.sol:LoanMaintenance",
        "label": "protocolTokenHeld",
        "offset": 0,
        "slot": "30",
        "type": "t_uint256"
      },
      {
        "astId": 6297,
        "contract": "contracts/modules/LoanMaintenance.sol:LoanMaintenance",
        "label": "protocolTokenPaid",
        "offset": 0,
        "slot": "31",
        "type": "t_uint256"
      },
      {
        "astId": 6304,
        "contract": "contracts/modules/LoanMaintenance.sol:LoanMaintenance",
        "label": "affiliateFeePercent",
        "offset": 0,
        "slot": "32",
        "type": "t_uint256"
      },
      {
        "astId": 6311,
        "contract": "contracts/modules/LoanMaintenance.sol:LoanMaintenance",
        "label": "liquidationIncentivePercent",
        "offset": 0,
        "slot": "33",
        "type": "t_uint256"
      },
      {
        "astId": 6315,
        "contract": "contracts/modules/LoanMaintenance.sol:LoanMaintenance",
        "label": "loanPoolToUnderlying",
        "offset": 0,
        "slot": "34",
        "type": "t_mapping(t_address,t_address)"
      },
      {
        "astId": 6319,
        "contract": "contracts/modules/LoanMaintenance.sol:LoanMaintenance",
        "label": "underlyingToLoanPool",
        "offset": 0,
        "slot": "35",
        "type": "t_mapping(t_address,t_address)"
      },
      {
        "astId": 6321,
        "contract": "contracts/modules/LoanMaintenance.sol:LoanMaintenance",
        "label": "loanPoolsSet",
        "offset": 0,
        "slot": "36",
        "type": "t_struct(Bytes32Set)36272_storage"
      },
      {
        "astId": 6325,
        "contract": "contracts/modules/LoanMaintenance.sol:LoanMaintenance",
        "label": "supportedTokens",
        "offset": 0,
        "slot": "38",
        "type": "t_mapping(t_address,t_bool)"
      },
      {
        "astId": 6332,
        "contract": "contracts/modules/LoanMaintenance.sol:LoanMaintenance",
        "label": "maxDisagreement",
        "offset": 0,
        "slot": "39",
        "type": "t_uint256"
      },
      {
        "astId": 6335,
        "contract": "contracts/modules/LoanMaintenance.sol:LoanMaintenance",
        "label": "sourceBuffer",
        "offset": 0,
        "slot": "40",
        "type": "t_uint256"
      },
      {
        "astId": 6338,
        "contract": "contracts/modules/LoanMaintenance.sol:LoanMaintenance",
        "label": "maxSwapSize",
        "offset": 0,
        "slot": "41",
        "type": "t_uint256"
      },
      {
        "astId": 6342,
        "contract": "contracts/modules/LoanMaintenance.sol:LoanMaintenance",
        "label": "borrowerNonce",
        "offset": 0,
        "slot": "42",
        "type": "t_mapping(t_address,t_uint256)"
      },
      {
        "astId": 6345,
        "contract": "contracts/modules/LoanMaintenance.sol:LoanMaintenance",
        "label": "rolloverBaseReward",
        "offset": 0,
        "slot": "43",
        "type": "t_uint256"
      },
      {
        "astId": 6348,
        "contract": "contracts/modules/LoanMaintenance.sol:LoanMaintenance",
        "label": "rolloverFlexFeePercent",
        "offset": 0,
        "slot": "44",
        "type": "t_uint256"
      },
      {
        "astId": 6350,
        "contract": "contracts/modules/LoanMaintenance.sol:LoanMaintenance",
        "label": "wrbtcToken",
        "offset": 0,
        "slot": "45",
        "type": "t_contract(IWrbtcERC20)35073"
      },
      {
        "astId": 6352,
        "contract": "contracts/modules/LoanMaintenance.sol:LoanMaintenance",
        "label": "protocolTokenAddress",
        "offset": 0,
        "slot": "46",
        "type": "t_address"
      },
      {
        "astId": 6359,
        "contract": "contracts/modules/LoanMaintenance.sol:LoanMaintenance",
        "label": "feeRebatePercent",
        "offset": 0,
        "slot": "47",
        "type": "t_uint256"
      },
      {
        "astId": 6361,
        "contract": "contracts/modules/LoanMaintenance.sol:LoanMaintenance",
        "label": "admin",
        "offset": 0,
        "slot": "48",
        "type": "t_address"
      },
      {
        "astId": 6363,
        "contract": "contracts/modules/LoanMaintenance.sol:LoanMaintenance",
        "label": "protocolAddress",
        "offset": 0,
        "slot": "49",
        "type": "t_address"
      },
      {
        "astId": 6367,
        "contract": "contracts/modules/LoanMaintenance.sol:LoanMaintenance",
        "label": "userNotFirstTradeFlag",
        "offset": 0,
        "slot": "50",
        "type": "t_mapping(t_address,t_bool)"
      },
      {
        "astId": 6371,
        "contract": "contracts/modules/LoanMaintenance.sol:LoanMaintenance",
        "label": "affiliatesUserReferrer",
        "offset": 0,
        "slot": "51",
        "type": "t_mapping(t_address,t_address)"
      },
      {
        "astId": 6375,
        "contract": "contracts/modules/LoanMaintenance.sol:LoanMaintenance",
        "label": "referralsList",
        "offset": 0,
        "slot": "52",
        "type": "t_mapping(t_address,t_struct(AddressSet)35966_storage)"
      },
      {
        "astId": 6378,
        "contract": "contracts/modules/LoanMaintenance.sol:LoanMaintenance",
        "label": "minReferralsToPayout",
        "offset": 0,
        "slot": "53",
        "type": "t_uint256"
      },
      {
        "astId": 6382,
        "contract": "contracts/modules/LoanMaintenance.sol:LoanMaintenance",
        "label": "affiliateRewardsHeld",
        "offset": 0,
        "slot": "54",
        "type": "t_mapping(t_address,t_uint256)"
      },
      {
        "astId": 6384,
        "contract": "contracts/modules/LoanMaintenance.sol:LoanMaintenance",
        "label": "sovTokenAddress",
        "offset": 0,
        "slot": "55",
        "type": "t_address"
      },
      {
        "astId": 6386,
        "contract": "contracts/modules/LoanMaintenance.sol:LoanMaintenance",
        "label": "lockedSOVAddress",
        "offset": 0,
        "slot": "56",
        "type": "t_address"
      },
      {
        "astId": 6393,
        "contract": "contracts/modules/LoanMaintenance.sol:LoanMaintenance",
        "label": "affiliateTradingTokenFeePercent",
        "offset": 0,
        "slot": "57",
        "type": "t_uint256"
      },
      {
        "astId": 6397,
        "contract": "contracts/modules/LoanMaintenance.sol:LoanMaintenance",
        "label": "affiliatesReferrerTokensList",
        "offset": 0,
        "slot": "58",
        "type": "t_mapping(t_address,t_struct(AddressSet)35966_storage)"
      },
      {
        "astId": 6403,
        "contract": "contracts/modules/LoanMaintenance.sol:LoanMaintenance",
        "label": "affiliatesReferrerBalances",
        "offset": 0,
        "slot": "59",
        "type": "t_mapping(t_address,t_mapping(t_address,t_uint256))"
      },
      {
        "astId": 6409,
        "contract": "contracts/modules/LoanMaintenance.sol:LoanMaintenance",
        "label": "specialRebates",
        "offset": 0,
        "slot": "60",
        "type": "t_mapping(t_address,t_mapping(t_address,t_uint256))"
      },
      {
        "astId": 6411,
        "contract": "contracts/modules/LoanMaintenance.sol:LoanMaintenance",
        "label": "pause",
        "offset": 0,
        "slot": "61",
        "type": "t_bool"
      },
      {
        "astId": 6413,
        "contract": "contracts/modules/LoanMaintenance.sol:LoanMaintenance",
        "label": "swapExtrernalFeePercent",
        "offset": 0,
        "slot": "62",
        "type": "t_uint256"
      },
      {
        "astId": 6415,
        "contract": "contracts/modules/LoanMaintenance.sol:LoanMaintenance",
        "label": "tradingRebateRewardsBasisPoint",
        "offset": 0,
        "slot": "63",
        "type": "t_uint256"
      },
      {
        "astId": 6422,
        "contract": "contracts/modules/LoanMaintenance.sol:LoanMaintenance",
        "label": "defaultPathConversion",
        "offset": 0,
        "slot": "64",
        "type": "t_mapping(t_address,t_mapping(t_address,t_array(t_contract(IERC20)33292)dyn_storage))"
      },
      {
        "astId": 6424,
        "contract": "contracts/modules/LoanMaintenance.sol:LoanMaintenance",
        "label": "pauser",
        "offset": 0,
        "slot": "65",
        "type": "t_address"
      }
    ],
    "types": {
      "t_address": {
        "encoding": "inplace",
        "label": "address",
        "numberOfBytes": "20"
      },
      "t_array(t_address)dyn_storage": {
        "base": "t_address",
        "encoding": "dynamic_array",
        "label": "address[]",
        "numberOfBytes": "32"
      },
      "t_array(t_bytes32)dyn_storage": {
        "base": "t_bytes32",
        "encoding": "dynamic_array",
        "label": "bytes32[]",
        "numberOfBytes": "32"
      },
      "t_array(t_contract(IERC20)33292)dyn_storage": {
        "base": "t_contract(IERC20)33292",
        "encoding": "dynamic_array",
        "label": "contract IERC20[]",
        "numberOfBytes": "32"
      },
      "t_bool": {
        "encoding": "inplace",
        "label": "bool",
        "numberOfBytes": "1"
      },
      "t_bytes32": {
        "encoding": "inplace",
        "label": "bytes32",
        "numberOfBytes": "32"
      },
      "t_bytes4": {
        "encoding": "inplace",
        "label": "bytes4",
        "numberOfBytes": "4"
      },
      "t_contract(IERC20)33292": {
        "encoding": "inplace",
        "label": "contract IERC20",
        "numberOfBytes": "20"
      },
      "t_contract(IWrbtcERC20)35073": {
        "encoding": "inplace",
        "label": "contract IWrbtcERC20",
        "numberOfBytes": "20"
      },
      "t_mapping(t_address,t_address)": {
        "encoding": "mapping",
        "key": "t_address",
        "label": "mapping(address => address)",
        "numberOfBytes": "32",
        "value": "t_address"
      },
      "t_mapping(t_address,t_array(t_contract(IERC20)33292)dyn_storage)": {
        "encoding": "mapping",
        "key": "t_address",
        "label": "mapping(address => contract IERC20[])",
        "numberOfBytes": "32",
        "value": "t_array(t_contract(IERC20)33292)dyn_storage"
      },
      "t_mapping(t_address,t_bool)": {
        "encoding": "mapping",
        "key": "t_address",
        "label": "mapping(address => bool)",
        "numberOfBytes": "32",
        "value": "t_bool"
      },
      "t_mapping(t_address,t_mapping(t_address,t_array(t_contract(IERC20)33292)dyn_storage))": {
        "encoding": "mapping",
        "key": "t_address",
        "label": "mapping(address => mapping(address => contract IERC20[]))",
        "numberOfBytes": "32",
        "value": "t_mapping(t_address,t_array(t_contract(IERC20)33292)dyn_storage)"
      },
      "t_mapping(t_address,t_mapping(t_address,t_struct(LenderInterest)6508_storage))": {
        "encoding": "mapping",
        "key": "t_address",
        "label": "mapping(address => mapping(address => struct LenderInterestStruct.LenderInterest))",
        "numberOfBytes": "32",
        "value": "t_mapping(t_address,t_struct(LenderInterest)6508_storage)"
      },
      "t_mapping(t_address,t_mapping(t_address,t_uint256))": {
        "encoding": "mapping",
        "key": "t_address",
        "label": "mapping(address => mapping(address => uint256))",
        "numberOfBytes": "32",
        "value": "t_mapping(t_address,t_uint256)"
      },
      "t_mapping(t_address,t_mapping(t_bytes32,t_struct(Order)6582_storage))": {
        "encoding": "mapping",
        "key": "t_address",
        "label": "mapping(address => mapping(bytes32 => struct OrderStruct.Order))",
        "numberOfBytes": "32",
        "value": "t_mapping(t_bytes32,t_struct(Order)6582_storage)"
      },
      "t_mapping(t_address,t_struct(AddressSet)35966_storage)": {
        "encoding": "mapping",
        "key": "t_address",
        "label": "mapping(address => struct EnumerableAddressSet.AddressSet)",
        "numberOfBytes": "32",
        "value": "t_struct(AddressSet)35966_storage"
      },
      "t_mapping(t_address,t_struct(Bytes32Set)36272_storage)": {
        "encoding": "mapping",
        "key": "t_address",
        "label": "mapping(address => struct EnumerableBytes32Set.Bytes32Set)",
        "numberOfBytes": "32",
        "value": "t_struct(Bytes32Set)36272_storage"
      },
      "t_mapping(t_address,t_struct(LenderInterest)6508_storage)": {
        "encoding": "mapping",
        "key": "t_address",
        "label": "mapping(address => struct LenderInterestStruct.LenderInterest)",
        "numberOfBytes": "32",
        "value": "t_struct(LenderInterest)6508_storage"
      },
      "t_mapping(t_address,t_uint256)": {
        "encoding": "mapping",
        "key": "t_address",
        "label": "mapping(address => uint256)",
        "numberOfBytes": "32",
        "value": "t_uint256"
      },
      "t_mapping(t_bytes32,t_mapping(t_address,t_bool))": {
        "encoding": "mapping",
        "key": "t_bytes32",
        "label": "mapping(bytes32 => mapping(address => bool))",
        "numberOfBytes": "32",
        "value": "t_mapping(t_address,t_bool)"
      },
      "t_mapping(t_bytes32,t_struct(Loan)6566_storage)": {
        "encoding": "mapping",
        "key": "t_bytes32",
        "label": "mapping(bytes32 => struct LoanStruct.Loan)",
        "numberOfBytes": "32",
        "value": "t_struct(Loan)6566_storage"
      },
      "t_mapping(t_bytes32,t_struct(LoanInterest)6518_storage)": {
        "encoding": "mapping",
        "key": "t_bytes32",
        "label": "mapping(bytes32 => struct LoanInterestStruct.LoanInterest)",
        "numberOfBytes": "32",
        "value": "t_struct(LoanInterest)6518_storage"
      },
      "t_mapping(t_bytes32,t_struct(LoanParams)6538_storage)": {
        "encoding": "mapping",
        "key": "t_bytes32",
        "label": "mapping(bytes32 => struct LoanParamsStruct.LoanParams)",
        "numberOfBytes": "32",
        "value": "t_struct(LoanParams)6538_storage"
      },
      "t_mapping(t_bytes32,t_struct(Order)6582_storage)": {
        "encoding": "mapping",
        "key": "t_bytes32",
        "label": "mapping(bytes32 => struct OrderStruct.Order)",
        "numberOfBytes": "32",
        "value": "t_struct(Order)6582_storage"
      },
      "t_mapping(t_bytes32,t_uint256)": {
        "encoding": "mapping",
        "key": "t_bytes32",
        "label": "mapping(bytes32 => uint256)",
        "numberOfBytes": "32",
        "value": "t_uint256"
      },
      "t_mapping(t_bytes4,t_address)": {
        "encoding": "mapping",
        "key": "t_bytes4",
        "label": "mapping(bytes4 => address)",
        "numberOfBytes": "32",
        "value": "t_address"
      },
      "t_struct(AddressSet)35966_storage": {
        "encoding": "inplace",
        "label": "struct EnumerableAddressSet.AddressSet",
        "members": [
          {
            "astId": 35962,
            "contract": "contracts/modules/LoanMaintenance.sol:LoanMaintenance",
            "label": "index",
            "offset": 0,
            "slot": "0",
            "type": "t_mapping(t_address,t_uint256)"
          },
          {
            "astId": 35965,
            "contract": "contracts/modules/LoanMaintenance.sol:LoanMaintenance",
            "label": "values",
            "offset": 0,
            "slot": "1",
            "type": "t_array(t_address)dyn_storage"
          }
        ],
        "numberOfBytes": "64"
      },
      "t_struct(Bytes32Set)36272_storage": {
        "encoding": "inplace",
        "label": "struct EnumerableBytes32Set.Bytes32Set",
        "members": [
          {
            "astId": 36268,
            "contract": "contracts/modules/LoanMaintenance.sol:LoanMaintenance",
            "label": "index",
            "offset": 0,
            "slot": "0",
            "type": "t_mapping(t_bytes32,t_uint256)"
          },
          {
            "astId": 36271,
            "contract": "contracts/modules/LoanMaintenance.sol:LoanMaintenance",
            "label": "values",
            "offset": 0,
            "slot": "1",
            "type": "t_array(t_bytes32)dyn_storage"
          }
        ],
        "numberOfBytes": "64"
      },
      "t_struct(LenderInterest)6508_storage": {
        "encoding": "inplace",
        "label": "struct LenderInterestStruct.LenderInterest",
        "members": [
          {
            "astId": 6499,
            "contract": "contracts/modules/LoanMaintenance.sol:LoanMaintenance",
            "label": "principalTotal",
            "offset": 0,
            "slot": "0",
            "type": "t_uint256"
          },
          {
            "astId": 6501,
            "contract": "contracts/modules/LoanMaintenance.sol:LoanMaintenance",
            "label": "owedPerDay",
            "offset": 0,
            "slot": "1",
            "type": "t_uint256"
          },
          {
            "astId": 6503,
            "contract": "contracts/modules/LoanMaintenance.sol:LoanMaintenance",
            "label": "owedTotal",
            "offset": 0,
            "slot": "2",
            "type": "t_uint256"
          },
          {
            "astId": 6505,
            "contract": "contracts/modules/LoanMaintenance.sol:LoanMaintenance",
            "label": "paidTotal",
            "offset": 0,
            "slot": "3",
            "type": "t_uint256"
          },
          {
            "astId": 6507,
            "contract": "contracts/modules/LoanMaintenance.sol:LoanMaintenance",
            "label": "updatedTimestamp",
            "offset": 0,
            "slot": "4",
            "type": "t_uint256"
          }
        ],
        "numberOfBytes": "160"
      },
      "t_struct(Loan)6566_storage": {
        "encoding": "inplace",
        "label": "struct LoanStruct.Loan",
        "members": [
          {
            "astId": 6543,
            "contract": "contracts/modules/LoanMaintenance.sol:LoanMaintenance",
            "label": "id",
            "offset": 0,
            "slot": "0",
            "type": "t_bytes32"
          },
          {
            "astId": 6545,
            "contract": "contracts/modules/LoanMaintenance.sol:LoanMaintenance",
            "label": "loanParamsId",
            "offset": 0,
            "slot": "1",
            "type": "t_bytes32"
          },
          {
            "astId": 6547,
            "contract": "contracts/modules/LoanMaintenance.sol:LoanMaintenance",
            "label": "pendingTradesId",
            "offset": 0,
            "slot": "2",
            "type": "t_bytes32"
          },
          {
            "astId": 6549,
            "contract": "contracts/modules/LoanMaintenance.sol:LoanMaintenance",
            "label": "active",
            "offset": 0,
            "slot": "3",
            "type": "t_bool"
          },
          {
            "astId": 6551,
            "contract": "contracts/modules/LoanMaintenance.sol:LoanMaintenance",
            "label": "principal",
            "offset": 0,
            "slot": "4",
            "type": "t_uint256"
          },
          {
            "astId": 6553,
            "contract": "contracts/modules/LoanMaintenance.sol:LoanMaintenance",
            "label": "collateral",
            "offset": 0,
            "slot": "5",
            "type": "t_uint256"
          },
          {
            "astId": 6555,
            "contract": "contracts/modules/LoanMaintenance.sol:LoanMaintenance",
            "label": "startTimestamp",
            "offset": 0,
            "slot": "6",
            "type": "t_uint256"
          },
          {
            "astId": 6557,
            "contract": "contracts/modules/LoanMaintenance.sol:LoanMaintenance",
            "label": "endTimestamp",
            "offset": 0,
            "slot": "7",
            "type": "t_uint256"
          },
          {
            "astId": 6559,
            "contract": "contracts/modules/LoanMaintenance.sol:LoanMaintenance",
            "label": "startMargin",
            "offset": 0,
            "slot": "8",
            "type": "t_uint256"
          },
          {
            "astId": 6561,
            "contract": "contracts/modules/LoanMaintenance.sol:LoanMaintenance",
            "label": "startRate",
            "offset": 0,
            "slot": "9",
            "type": "t_uint256"
          },
          {
            "astId": 6563,
            "contract": "contracts/modules/LoanMaintenance.sol:LoanMaintenance",
            "label": "borrower",
            "offset": 0,
            "slot": "10",
            "type": "t_address"
          },
          {
            "astId": 6565,
            "contract": "contracts/modules/LoanMaintenance.sol:LoanMaintenance",
            "label": "lender",
            "offset": 0,
            "slot": "11",
            "type": "t_address"
          }
        ],
        "numberOfBytes": "384"
      },
      "t_struct(LoanInterest)6518_storage": {
        "encoding": "inplace",
        "label": "struct LoanInterestStruct.LoanInterest",
        "members": [
          {
            "astId": 6513,
            "contract": "contracts/modules/LoanMaintenance.sol:LoanMaintenance",
            "label": "owedPerDay",
            "offset": 0,
            "slot": "0",
            "type": "t_uint256"
          },
          {
            "astId": 6515,
            "contract": "contracts/modules/LoanMaintenance.sol:LoanMaintenance",
            "label": "depositTotal",
            "offset": 0,
            "slot": "1",
            "type": "t_uint256"
          },
          {
            "astId": 6517,
            "contract": "contracts/modules/LoanMaintenance.sol:LoanMaintenance",
            "label": "updatedTimestamp",
            "offset": 0,
            "slot": "2",
            "type": "t_uint256"
          }
        ],
        "numberOfBytes": "96"
      },
      "t_struct(LoanParams)6538_storage": {
        "encoding": "inplace",
        "label": "struct LoanParamsStruct.LoanParams",
        "members": [
          {
            "astId": 6523,
            "contract": "contracts/modules/LoanMaintenance.sol:LoanMaintenance",
            "label": "id",
            "offset": 0,
            "slot": "0",
            "type": "t_bytes32"
          },
          {
            "astId": 6525,
            "contract": "contracts/modules/LoanMaintenance.sol:LoanMaintenance",
            "label": "active",
            "offset": 0,
            "slot": "1",
            "type": "t_bool"
          },
          {
            "astId": 6527,
            "contract": "contracts/modules/LoanMaintenance.sol:LoanMaintenance",
            "label": "owner",
            "offset": 1,
            "slot": "1",
            "type": "t_address"
          },
          {
            "astId": 6529,
            "contract": "contracts/modules/LoanMaintenance.sol:LoanMaintenance",
            "label": "loanToken",
            "offset": 0,
            "slot": "2",
            "type": "t_address"
          },
          {
            "astId": 6531,
            "contract": "contracts/modules/LoanMaintenance.sol:LoanMaintenance",
            "label": "collateralToken",
            "offset": 0,
            "slot": "3",
            "type": "t_address"
          },
          {
            "astId": 6533,
            "contract": "contracts/modules/LoanMaintenance.sol:LoanMaintenance",
            "label": "minInitialMargin",
            "offset": 0,
            "slot": "4",
            "type": "t_uint256"
          },
          {
            "astId": 6535,
            "contract": "contracts/modules/LoanMaintenance.sol:LoanMaintenance",
            "label": "maintenanceMargin",
            "offset": 0,
            "slot": "5",
            "type": "t_uint256"
          },
          {
            "astId": 6537,
            "contract": "contracts/modules/LoanMaintenance.sol:LoanMaintenance",
            "label": "maxLoanTerm",
            "offset": 0,
            "slot": "6",
            "type": "t_uint256"
          }
        ],
        "numberOfBytes": "224"
      },
      "t_struct(Order)6582_storage": {
        "encoding": "inplace",
        "label": "struct OrderStruct.Order",
        "members": [
          {
            "astId": 6571,
            "contract": "contracts/modules/LoanMaintenance.sol:LoanMaintenance",
            "label": "lockedAmount",
            "offset": 0,
            "slot": "0",
            "type": "t_uint256"
          },
          {
            "astId": 6573,
            "contract": "contracts/modules/LoanMaintenance.sol:LoanMaintenance",
            "label": "interestRate",
            "offset": 0,
            "slot": "1",
            "type": "t_uint256"
          },
          {
            "astId": 6575,
            "contract": "contracts/modules/LoanMaintenance.sol:LoanMaintenance",
            "label": "minLoanTerm",
            "offset": 0,
            "slot": "2",
            "type": "t_uint256"
          },
          {
            "astId": 6577,
            "contract": "contracts/modules/LoanMaintenance.sol:LoanMaintenance",
            "label": "maxLoanTerm",
            "offset": 0,
            "slot": "3",
            "type": "t_uint256"
          },
          {
            "astId": 6579,
            "contract": "contracts/modules/LoanMaintenance.sol:LoanMaintenance",
            "label": "createdTimestamp",
            "offset": 0,
            "slot": "4",
            "type": "t_uint256"
          },
          {
            "astId": 6581,
            "contract": "contracts/modules/LoanMaintenance.sol:LoanMaintenance",
            "label": "expirationTimestamp",
            "offset": 0,
            "slot": "5",
            "type": "t_uint256"
          }
        ],
        "numberOfBytes": "192"
      },
      "t_uint256": {
        "encoding": "inplace",
        "label": "uint256",
        "numberOfBytes": "32"
      }
    }
  }
}