{
  "address": "0x8Cf4737DA60c5F04A3b1e3D63a4ed84a7f8fF26e",
  "abi": [
    {
      "anonymous": false,
      "inputs": [
        {
          "indexed": true,
          "internalType": "address",
          "name": "owner",
          "type": "address"
        },
        {
          "indexed": true,
          "internalType": "address",
          "name": "spender",
          "type": "address"
        },
        {
          "indexed": false,
          "internalType": "uint256",
          "name": "valueBefore",
          "type": "uint256"
        },
        {
          "indexed": false,
          "internalType": "uint256",
          "name": "valueAfter",
          "type": "uint256"
        }
      ],
      "name": "AllowanceUpdate",
      "type": "event"
    },
    {
      "anonymous": false,
      "inputs": [
        {
          "indexed": true,
          "internalType": "address",
          "name": "owner",
          "type": "address"
        },
        {
          "indexed": true,
          "internalType": "address",
          "name": "spender",
          "type": "address"
        },
        {
          "indexed": false,
          "internalType": "uint256",
          "name": "value",
          "type": "uint256"
        }
      ],
      "name": "Approval",
      "type": "event"
    },
    {
      "anonymous": false,
      "inputs": [
        {
          "indexed": true,
          "internalType": "address",
          "name": "burner",
          "type": "address"
        },
        {
          "indexed": false,
          "internalType": "uint256",
          "name": "tokenAmount",
          "type": "uint256"
        },
        {
          "indexed": false,
          "internalType": "uint256",
          "name": "assetAmount",
          "type": "uint256"
        },
        {
          "indexed": false,
          "internalType": "uint256",
          "name": "price",
          "type": "uint256"
        }
      ],
      "name": "Burn",
      "type": "event"
    },
    {
      "anonymous": false,
      "inputs": [
        {
          "indexed": false,
          "internalType": "address",
          "name": "borrower",
          "type": "address"
        },
        {
          "indexed": false,
          "internalType": "address",
          "name": "target",
          "type": "address"
        },
        {
          "indexed": false,
          "internalType": "address",
          "name": "loanToken",
          "type": "address"
        },
        {
          "indexed": false,
          "internalType": "uint256",
          "name": "loanAmount",
          "type": "uint256"
        }
      ],
      "name": "FlashBorrow",
      "type": "event"
    },
    {
      "anonymous": false,
      "inputs": [
        {
          "indexed": true,
          "internalType": "address",
          "name": "minter",
          "type": "address"
        },
        {
          "indexed": false,
          "internalType": "uint256",
          "name": "tokenAmount",
          "type": "uint256"
        },
        {
          "indexed": false,
          "internalType": "uint256",
          "name": "assetAmount",
          "type": "uint256"
        },
        {
          "indexed": false,
          "internalType": "uint256",
          "name": "price",
          "type": "uint256"
        }
      ],
      "name": "Mint",
      "type": "event"
    },
    {
      "anonymous": false,
      "inputs": [
        {
          "indexed": true,
          "internalType": "address",
          "name": "previousOwner",
          "type": "address"
        },
        {
          "indexed": true,
          "internalType": "address",
          "name": "newOwner",
          "type": "address"
        }
      ],
      "name": "OwnershipTransferred",
      "type": "event"
    },
    {
      "anonymous": false,
      "inputs": [
        {
          "indexed": true,
          "internalType": "address",
          "name": "from",
          "type": "address"
        },
        {
          "indexed": true,
          "internalType": "address",
          "name": "to",
          "type": "address"
        },
        {
          "indexed": false,
          "internalType": "uint256",
          "name": "value",
          "type": "uint256"
        }
      ],
      "name": "Transfer",
      "type": "event"
    },
    {
      "payable": true,
      "stateMutability": "payable",
      "type": "fallback"
    },
    {
      "constant": true,
      "inputs": [],
      "name": "admin",
      "outputs": [
        {
          "internalType": "address",
          "name": "",
          "type": "address"
        }
      ],
      "payable": false,
      "stateMutability": "view",
      "type": "function"
    },
    {
      "constant": true,
      "inputs": [
        {
          "internalType": "address",
          "name": "_owner",
          "type": "address"
        },
        {
          "internalType": "address",
          "name": "_spender",
          "type": "address"
        }
      ],
      "name": "allowance",
      "outputs": [
        {
          "internalType": "uint256",
          "name": "",
          "type": "uint256"
        }
      ],
      "payable": false,
      "stateMutability": "view",
      "type": "function"
    },
    {
      "constant": true,
      "inputs": [
        {
          "internalType": "address",
          "name": "_owner",
          "type": "address"
        }
      ],
      "name": "balanceOf",
      "outputs": [
        {
          "internalType": "uint256",
          "name": "",
          "type": "uint256"
        }
      ],
      "payable": false,
      "stateMutability": "view",
      "type": "function"
    },
    {
      "constant": true,
      "inputs": [],
      "name": "baseRate",
      "outputs": [
        {
          "internalType": "uint256",
          "name": "",
          "type": "uint256"
        }
      ],
      "payable": false,
      "stateMutability": "view",
      "type": "function"
    },
    {
      "constant": true,
      "inputs": [],
      "name": "beaconAddress",
      "outputs": [
        {
          "internalType": "address",
          "name": "",
          "type": "address"
        }
      ],
      "payable": false,
      "stateMutability": "view",
      "type": "function"
    },
    {
      "constant": true,
      "inputs": [],
      "name": "checkpointSupply",
      "outputs": [
        {
          "internalType": "uint256",
          "name": "",
          "type": "uint256"
        }
      ],
      "payable": false,
      "stateMutability": "view",
      "type": "function"
    },
    {
      "constant": true,
      "inputs": [],
      "name": "decimals",
      "outputs": [
        {
          "internalType": "uint8",
          "name": "",
          "type": "uint8"
        }
      ],
      "payable": false,
      "stateMutability": "view",
      "type": "function"
    },
    {
      "constant": true,
      "inputs": [],
      "name": "getTarget",
      "outputs": [
        {
          "internalType": "address",
          "name": "",
          "type": "address"
        }
      ],
      "payable": false,
      "stateMutability": "view",
      "type": "function"
    },
    {
      "constant": true,
      "inputs": [],
      "name": "initialPrice",
      "outputs": [
        {
          "internalType": "uint256",
          "name": "",
          "type": "uint256"
        }
      ],
      "payable": false,
      "stateMutability": "view",
      "type": "function"
    },
    {
      "constant": true,
      "inputs": [],
      "name": "isOwner",
      "outputs": [
        {
          "internalType": "bool",
          "name": "",
          "type": "bool"
        }
      ],
      "payable": false,
      "stateMutability": "view",
      "type": "function"
    },
    {
      "constant": true,
      "inputs": [],
      "name": "kinkLevel",
      "outputs": [
        {
          "internalType": "uint256",
          "name": "",
          "type": "uint256"
        }
      ],
      "payable": false,
      "stateMutability": "view",
      "type": "function"
    },
    {
      "constant": true,
      "inputs": [
        {
          "internalType": "uint256",
          "name": "",
          "type": "uint256"
        }
      ],
      "name": "loanParamsIds",
      "outputs": [
        {
          "internalType": "bytes32",
          "name": "",
          "type": "bytes32"
        }
      ],
      "payable": false,
      "stateMutability": "view",
      "type": "function"
    },
    {
      "constant": true,
      "inputs": [],
      "name": "loanTokenAddress",
      "outputs": [
        {
          "internalType": "address",
          "name": "",
          "type": "address"
        }
      ],
      "payable": false,
      "stateMutability": "view",
      "type": "function"
    },
    {
      "constant": true,
      "inputs": [],
      "name": "lowUtilBaseRate",
      "outputs": [
        {
          "internalType": "uint256",
          "name": "",
          "type": "uint256"
        }
      ],
      "payable": false,
      "stateMutability": "view",
      "type": "function"
    },
    {
      "constant": true,
      "inputs": [],
      "name": "lowUtilRateMultiplier",
      "outputs": [
        {
          "internalType": "uint256",
          "name": "",
          "type": "uint256"
        }
      ],
      "payable": false,
      "stateMutability": "view",
      "type": "function"
    },
    {
      "constant": true,
      "inputs": [],
      "name": "maxScaleRate",
      "outputs": [
        {
          "internalType": "uint256",
          "name": "",
          "type": "uint256"
        }
      ],
      "payable": false,
      "stateMutability": "view",
      "type": "function"
    },
    {
      "constant": true,
      "inputs": [],
      "name": "name",
      "outputs": [
        {
          "internalType": "string",
          "name": "",
          "type": "string"
        }
      ],
      "payable": false,
      "stateMutability": "view",
      "type": "function"
    },
    {
      "constant": true,
      "inputs": [],
      "name": "owner",
      "outputs": [
        {
          "internalType": "address",
          "name": "",
          "type": "address"
        }
      ],
      "payable": false,
      "stateMutability": "view",
      "type": "function"
    },
    {
      "constant": true,
      "inputs": [],
      "name": "rateMultiplier",
      "outputs": [
        {
          "internalType": "uint256",
          "name": "",
          "type": "uint256"
        }
      ],
      "payable": false,
      "stateMutability": "view",
      "type": "function"
    },
    {
      "constant": false,
      "inputs": [
        {
          "internalType": "address",
          "name": "_newBeaconAddress",
          "type": "address"
        }
      ],
      "name": "setBeaconAddress",
      "outputs": [],
      "payable": false,
      "stateMutability": "nonpayable",
      "type": "function"
    },
    {
      "constant": true,
      "inputs": [],
      "name": "sovrynContractAddress",
      "outputs": [
        {
          "internalType": "address",
          "name": "",
          "type": "address"
        }
      ],
      "payable": false,
      "stateMutability": "view",
      "type": "function"
    },
    {
      "constant": true,
      "inputs": [],
      "name": "symbol",
      "outputs": [
        {
          "internalType": "string",
          "name": "",
          "type": "string"
        }
      ],
      "payable": false,
      "stateMutability": "view",
      "type": "function"
    },
    {
      "constant": true,
      "inputs": [],
      "name": "targetLevel",
      "outputs": [
        {
          "internalType": "uint256",
          "name": "",
          "type": "uint256"
        }
      ],
      "payable": false,
      "stateMutability": "view",
      "type": "function"
    },
    {
      "constant": true,
      "inputs": [],
      "name": "target_",
      "outputs": [
        {
          "internalType": "address",
          "name": "",
          "type": "address"
        }
      ],
      "payable": false,
      "stateMutability": "view",
      "type": "function"
    },
    {
      "constant": true,
      "inputs": [],
      "name": "totalSupply",
      "outputs": [
        {
          "internalType": "uint256",
          "name": "",
          "type": "uint256"
        }
      ],
      "payable": false,
      "stateMutability": "view",
      "type": "function"
    },
    {
      "constant": true,
      "inputs": [
        {
          "internalType": "address",
          "name": "",
          "type": "address"
        }
      ],
      "name": "transactionLimit",
      "outputs": [
        {
          "internalType": "uint256",
          "name": "",
          "type": "uint256"
        }
      ],
      "payable": false,
      "stateMutability": "view",
      "type": "function"
    },
    {
      "constant": false,
      "inputs": [
        {
          "internalType": "address",
          "name": "newOwner",
          "type": "address"
        }
      ],
      "name": "transferOwnership",
      "outputs": [],
      "payable": false,
      "stateMutability": "nonpayable",
      "type": "function"
    },
    {
      "constant": true,
      "inputs": [],
      "name": "wrbtcTokenAddress",
      "outputs": [
        {
          "internalType": "address",
          "name": "",
          "type": "address"
        }
      ],
      "payable": false,
      "stateMutability": "view",
      "type": "function"
    }
  ],
  "transactionHash": "0xae2d119f6b7a91aa5e604922ea8a16d344cb7c44b14d1f84b82e945b3869ab35",
  "args": [],
  "numDeployments": 1,
  "solcInputHash": "f874decdaa9f31bd9097925ea5db6212",
  "bytecode": "0x60806040526001600090815561001c6001600160e01b0361006f16565b600180546001600160a01b0319166001600160a01b038316908117909155604051919250906000907f8be0079c531659141344cd1fd0a4f28419497f9722a3daafe3b4186f6b6457e0908290a350610073565b3390565b610db0806100826000396000f3fe6080604052600436106101b75760003560e01c80637e37c08c116100ec578063d759dbeb1161008a578063ef2b0b3911610064578063ef2b0b3914610554578063f00e6a2a14610569578063f2fde38b1461057e578063f851a4401461059e576101b7565b8063d759dbeb146104ff578063dd62ed3e14610514578063e41b07e314610534576101b7565b806392130344116100c6578063921303441461049e57806395d89b41146104c05780639bda3a98146104d5578063ba0e43bf146104ea576101b7565b80637e37c08c146104525780638da5cb5b146104675780638f32d59b1461047c576101b7565b80633291c11a1161015957806370a082311161013357806370a08231146103f3578063797bf385146104135780637b7933b4146104285780637e2ec6d01461043d576101b7565b80633291c11a146103a9578063330691ac146103c957806356e07d70146103de576101b7565b80631d0806ae116101955780631d0806ae146103485780631f68f20a1461035d5780632f6b600d14610372578063313ce56714610387576101b7565b806306947a3a146102d957806306fdde031461030457806318160ddd14610326575b60006101c16105b3565b6001600160a01b031663374e40476000356001600160e01b0319166040518263ffffffff1660e01b81526004016101f89190610c4e565b60206040518083038186803b15801561021057600080fd5b505afa158015610224573d6000803e3d6000fd5b505050506040513d601f19601f8201168201806040525061024891908101906109ad565b90506001600160a01b0381166102795760405162461bcd60e51b815260040161027090610c74565b60405180910390fd5b60606000368080601f016020809104026020016040519081016040528093929190818152602001838380828437600092018290525084519495509384935091505060208401855af43d604051816000823e8280156102d5578282f35b8282fd5b3480156102e557600080fd5b506102ee6105d2565b6040516102fb9190610c24565b60405180910390f35b34801561031057600080fd5b506103196105e1565b6040516102fb9190610c5c565b34801561033257600080fd5b5061033b61066c565b6040516102fb9190610c40565b34801561035457600080fd5b5061033b610672565b34801561036957600080fd5b5061033b610678565b34801561037e57600080fd5b506102ee61067e565b34801561039357600080fd5b5061039c61068d565b6040516102fb9190610cc4565b3480156103b557600080fd5b5061033b6103c4366004610a05565b610696565b3480156103d557600080fd5b5061033b6106a8565b3480156103ea57600080fd5b5061033b6106ae565b3480156103ff57600080fd5b5061033b61040e36600461098f565b6106b4565b34801561041f57600080fd5b506102ee6106cf565b34801561043457600080fd5b5061033b6106e3565b34801561044957600080fd5b506102ee6106e9565b34801561045e57600080fd5b5061033b6106f8565b34801561047357600080fd5b506102ee6106fe565b34801561048857600080fd5b5061049161070d565b6040516102fb9190610c32565b3480156104aa57600080fd5b506104be6104b936600461098f565b610733565b005b3480156104cc57600080fd5b50610319610763565b3480156104e157600080fd5b506102ee6107be565b3480156104f657600080fd5b5061033b6107cd565b34801561050b57600080fd5b5061033b6107d3565b34801561052057600080fd5b5061033b61052f3660046109cb565b6107d9565b34801561054057600080fd5b5061033b61054f36600461098f565b610806565b34801561056057600080fd5b5061033b610818565b34801561057557600080fd5b506102ee61081e565b34801561058a57600080fd5b506104be61059936600461098f565b61082d565b3480156105aa57600080fd5b506102ee61085a565b6000806040516105c290610c19565b6040519081900390205492915050565b6016546001600160a01b031681565b6002805460408051602060018416156101000260001901909316849004601f810184900484028201840190925281815292918301828280156106645780601f1061063957610100808354040283529160200191610664565b820191906000526020600020905b81548152906001019060200180831161064757829003601f168201915b505050505081565b60155490565b600e5481565b60055481565b6017546001600160a01b031681565b60045460ff1681565b60106020526000908152604090205481565b60065481565b600a5481565b6001600160a01b031660009081526013602052604090205490565b60045461010090046001600160a01b031681565b600d5481565b60006106f36105b3565b905090565b60085481565b6001546001600160a01b031690565b6001546000906001600160a01b0316610724610869565b6001600160a01b031614905090565b61073b61070d565b6107575760405162461bcd60e51b815260040161027090610c94565b6107608161086d565b50565b6003805460408051602060026001851615610100026000190190941693909304601f810184900484028201840190925281815292918301828280156106645780601f1061063957610100808354040283529160200191610664565b6018546001600160a01b031681565b60095481565b60075481565b6001600160a01b038083166000908152601460209081526040808320938516835292905220545b92915050565b60126020526000908152604090205481565b600b5481565b6018546001600160a01b031690565b61083561070d565b6108515760405162461bcd60e51b815260040161027090610cb4565b610760816108b0565b6019546001600160a01b031681565b3390565b61087681610932565b6108925760405162461bcd60e51b815260040161027090610ca4565b60006040516108a090610c19565b6040519081900390209190915550565b6001600160a01b0381166108d65760405162461bcd60e51b815260040161027090610c84565b6001546040516001600160a01b038084169216907f8be0079c531659141344cd1fd0a4f28419497f9722a3daafe3b4186f6b6457e090600090a3600180546001600160a01b0319166001600160a01b0392909216919091179055565b6000813f7fc5d2460186f7233c927e7db2dcc703c0e500b653ca82273b7bfad8045d85a47081811480159061096657508115155b949350505050565b803561080081610d50565b805161080081610d50565b803561080081610d64565b6000602082840312156109a157600080fd5b6000610966848461096e565b6000602082840312156109bf57600080fd5b60006109668484610979565b600080604083850312156109de57600080fd5b60006109ea858561096e565b92505060206109fb8582860161096e565b9150509250929050565b600060208284031215610a1757600080fd5b60006109668484610984565b610a2c81610ce4565b82525050565b610a2c81610cef565b610a2c81610cf4565b610a2c81610cf7565b6000610a5882610cd2565b610a628185610cd6565b9350610a72818560208601610d16565b610a7b81610d46565b9093019392505050565b6000610a92602583610cd6565b7f4c6f616e546f6b656e4c6f67696350726f78793a746172676574206e6f742061815264637469766560d81b602082015260400192915050565b6000610ad9602683610cd6565b7f4f776e61626c653a206e6577206f776e657220697320746865207a65726f206181526564647265737360d01b602082015260400192915050565b6000610b21602083610cd6565b7f4c6f616e546f6b656e4c6f67696350726f78793a756e617574686f72697a6564815260200192915050565b6000610b5a603383610cd6565b7f43616e6e6f742073657420626561636f6e206164647265737320746f2061206e8152726f6e2d636f6e7472616374206164647265737360681b602082015260400192915050565b6000610baf600c83610cd6565b6b1d5b985d5d1a1bdc9a5e995960a21b815260200192915050565b6000610bd7602483610cdf565b7f4c4f414e5f544f4b454e5f4c4f4749435f424541434f4e5f414444524553535f81526314d313d560e21b602082015260240192915050565b610a2c81610d10565b600061080082610bca565b602081016108008284610a23565b602081016108008284610a32565b602081016108008284610a3b565b602081016108008284610a44565b60208082528101610c6d8184610a4d565b9392505050565b6020808252810161080081610a85565b6020808252810161080081610acc565b6020808252810161080081610b14565b6020808252810161080081610b4d565b6020808252810161080081610ba2565b602081016108008284610c10565b5190565b90815260200190565b919050565b600061080082610d04565b151590565b90565b6001600160e01b03191690565b6001600160a01b031690565b60ff1690565b60005b83811015610d31578181015183820152602001610d19565b83811115610d40576000848401525b50505050565b601f01601f191690565b610d5981610ce4565b811461076057600080fd5b610d5981610cf456fea365627a7a72315820f5293405144106e3163a96fbb462763c72c46be75cc21557a2f7c46395fd94836c6578706572696d656e74616cf564736f6c63430005110040",
  "devdoc": {
    "methods": {
      "allowance(address,address)": {
        "params": {
          "_owner": "The account owner of the iTokens.",
          "_spender": "The account allowed to send the iTokens."
        },
        "return": "The number of iTokens an account is allowing the spender  to send on its behalf."
      },
      "balanceOf(address)": {
        "params": {
          "_owner": "The account owner of the iTokens."
        },
        "return": "The number of iTokens an account owns."
      },
      "beaconAddress()": {
        "return": "The address of the current LoanTokenLogicBeacon."
      },
      "getTarget()": {
        "details": "External function to return the LoanTokenLogicProxy of loan token (target of LoanToken contract). Ideally this getter should be added in the LoanToken contract but since LoanToken contract can't be changed, adding the getter in this contract will do because it will use the context of LoanToken contract.",
        "return": "target address of LoanToken contract"
      },
      "isOwner()": {
        "details": "Returns true if the caller is the current owner."
      },
      "owner()": {
        "details": "Returns the address of the current owner."
      },
      "setBeaconAddress(address)": {
        "details": "External function to set the new LoanTokenLogicBeacon Address",
        "params": {
          "_newBeaconAddress": "Address of the new LoanTokenLogicBeacon"
        }
      },
      "totalSupply()": {
        "return": "The total number of iTokens in existence as of now."
      },
      "transferOwnership(address)": {
        "details": "Transfers ownership of the contract to a new account (`newOwner`). Can only be called by the current owner."
      }
    },
    "title": "Loan Token Logic Proxy contract."
  },
  "userdoc": {
    "methods": {
      "allowance(address,address)": {
        "notice": "Get the amount of iTokens allowed to be spent by a  given account on behalf of the owner."
      },
      "balanceOf(address)": {
        "notice": "Get the amount of iTokens owned by an account."
      },
      "totalSupply()": {
        "notice": "Get the total supply of iTokens."
      }
    },
    "notice": "This contract contains the proxy functionality and it will query the logic target from LoanTokenLogicBeacon This contract will also has the pause/unpause functionality. The purpose of this pausability is so that we can pause/unpause from the loan token level. "
  },
  "storageLayout": {
    "storage": [
      {
        "astId": 54611,
        "contract": "contracts/connectors/loantoken/LoanTokenLogicProxy.sol:LoanTokenLogicProxy",
        "label": "reentrancyLock",
        "offset": 0,
        "slot": "0",
        "type": "t_uint256"
      },
      {
        "astId": 54427,
        "contract": "contracts/connectors/loantoken/LoanTokenLogicProxy.sol:LoanTokenLogicProxy",
        "label": "_owner",
        "offset": 0,
        "slot": "1",
        "type": "t_address"
      },
      {
        "astId": 483,
        "contract": "contracts/connectors/loantoken/LoanTokenLogicProxy.sol:LoanTokenLogicProxy",
        "label": "name",
        "offset": 0,
        "slot": "2",
        "type": "t_string_storage"
      },
      {
        "astId": 485,
        "contract": "contracts/connectors/loantoken/LoanTokenLogicProxy.sol:LoanTokenLogicProxy",
        "label": "symbol",
        "offset": 0,
        "slot": "3",
        "type": "t_string_storage"
      },
      {
        "astId": 487,
        "contract": "contracts/connectors/loantoken/LoanTokenLogicProxy.sol:LoanTokenLogicProxy",
        "label": "decimals",
        "offset": 0,
        "slot": "4",
        "type": "t_uint8"
      },
      {
        "astId": 489,
        "contract": "contracts/connectors/loantoken/LoanTokenLogicProxy.sol:LoanTokenLogicProxy",
        "label": "loanTokenAddress",
        "offset": 1,
        "slot": "4",
        "type": "t_address"
      },
      {
        "astId": 491,
        "contract": "contracts/connectors/loantoken/LoanTokenLogicProxy.sol:LoanTokenLogicProxy",
        "label": "baseRate",
        "offset": 0,
        "slot": "5",
        "type": "t_uint256"
      },
      {
        "astId": 493,
        "contract": "contracts/connectors/loantoken/LoanTokenLogicProxy.sol:LoanTokenLogicProxy",
        "label": "rateMultiplier",
        "offset": 0,
        "slot": "6",
        "type": "t_uint256"
      },
      {
        "astId": 495,
        "contract": "contracts/connectors/loantoken/LoanTokenLogicProxy.sol:LoanTokenLogicProxy",
        "label": "lowUtilBaseRate",
        "offset": 0,
        "slot": "7",
        "type": "t_uint256"
      },
      {
        "astId": 497,
        "contract": "contracts/connectors/loantoken/LoanTokenLogicProxy.sol:LoanTokenLogicProxy",
        "label": "lowUtilRateMultiplier",
        "offset": 0,
        "slot": "8",
        "type": "t_uint256"
      },
      {
        "astId": 499,
        "contract": "contracts/connectors/loantoken/LoanTokenLogicProxy.sol:LoanTokenLogicProxy",
        "label": "targetLevel",
        "offset": 0,
        "slot": "9",
        "type": "t_uint256"
      },
      {
        "astId": 501,
        "contract": "contracts/connectors/loantoken/LoanTokenLogicProxy.sol:LoanTokenLogicProxy",
        "label": "kinkLevel",
        "offset": 0,
        "slot": "10",
        "type": "t_uint256"
      },
      {
        "astId": 503,
        "contract": "contracts/connectors/loantoken/LoanTokenLogicProxy.sol:LoanTokenLogicProxy",
        "label": "maxScaleRate",
        "offset": 0,
        "slot": "11",
        "type": "t_uint256"
      },
      {
        "astId": 505,
        "contract": "contracts/connectors/loantoken/LoanTokenLogicProxy.sol:LoanTokenLogicProxy",
        "label": "_flTotalAssetSupply",
        "offset": 0,
        "slot": "12",
        "type": "t_uint256"
      },
      {
        "astId": 507,
        "contract": "contracts/connectors/loantoken/LoanTokenLogicProxy.sol:LoanTokenLogicProxy",
        "label": "checkpointSupply",
        "offset": 0,
        "slot": "13",
        "type": "t_uint256"
      },
      {
        "astId": 509,
        "contract": "contracts/connectors/loantoken/LoanTokenLogicProxy.sol:LoanTokenLogicProxy",
        "label": "initialPrice",
        "offset": 0,
        "slot": "14",
        "type": "t_uint256"
      },
      {
        "astId": 511,
        "contract": "contracts/connectors/loantoken/LoanTokenLogicProxy.sol:LoanTokenLogicProxy",
        "label": "lastSettleTime_",
        "offset": 0,
        "slot": "15",
        "type": "t_uint88"
      },
      {
        "astId": 515,
        "contract": "contracts/connectors/loantoken/LoanTokenLogicProxy.sol:LoanTokenLogicProxy",
        "label": "loanParamsIds",
        "offset": 0,
        "slot": "16",
        "type": "t_mapping(t_uint256,t_bytes32)"
      },
      {
        "astId": 519,
        "contract": "contracts/connectors/loantoken/LoanTokenLogicProxy.sol:LoanTokenLogicProxy",
        "label": "checkpointPrices_",
        "offset": 0,
        "slot": "17",
        "type": "t_mapping(t_address,t_uint256)"
      },
      {
        "astId": 523,
        "contract": "contracts/connectors/loantoken/LoanTokenLogicProxy.sol:LoanTokenLogicProxy",
        "label": "transactionLimit",
        "offset": 0,
        "slot": "18",
        "type": "t_mapping(t_address,t_uint256)"
      },
      {
        "astId": 236,
        "contract": "contracts/connectors/loantoken/LoanTokenLogicProxy.sol:LoanTokenLogicProxy",
        "label": "balances",
        "offset": 0,
        "slot": "19",
        "type": "t_mapping(t_address,t_uint256)"
      },
      {
        "astId": 242,
        "contract": "contracts/connectors/loantoken/LoanTokenLogicProxy.sol:LoanTokenLogicProxy",
        "label": "allowed",
        "offset": 0,
        "slot": "20",
        "type": "t_mapping(t_address,t_mapping(t_address,t_uint256))"
      },
      {
        "astId": 244,
        "contract": "contracts/connectors/loantoken/LoanTokenLogicProxy.sol:LoanTokenLogicProxy",
        "label": "totalSupply_",
        "offset": 0,
        "slot": "21",
        "type": "t_uint256"
      },
      {
        "astId": 845,
        "contract": "contracts/connectors/loantoken/LoanTokenLogicProxy.sol:LoanTokenLogicProxy",
        "label": "sovrynContractAddress",
        "offset": 0,
        "slot": "22",
        "type": "t_address"
      },
      {
        "astId": 847,
        "contract": "contracts/connectors/loantoken/LoanTokenLogicProxy.sol:LoanTokenLogicProxy",
        "label": "wrbtcTokenAddress",
        "offset": 0,
        "slot": "23",
        "type": "t_address"
      },
      {
        "astId": 849,
        "contract": "contracts/connectors/loantoken/LoanTokenLogicProxy.sol:LoanTokenLogicProxy",
        "label": "target_",
        "offset": 0,
        "slot": "24",
        "type": "t_address"
      },
      {
        "astId": 851,
        "contract": "contracts/connectors/loantoken/LoanTokenLogicProxy.sol:LoanTokenLogicProxy",
        "label": "admin",
        "offset": 0,
        "slot": "25",
        "type": "t_address"
      }
    ],
    "types": {
      "t_address": {
        "encoding": "inplace",
        "label": "address",
        "numberOfBytes": "20"
      },
      "t_bytes32": {
        "encoding": "inplace",
        "label": "bytes32",
        "numberOfBytes": "32"
      },
      "t_mapping(t_address,t_mapping(t_address,t_uint256))": {
        "encoding": "mapping",
        "key": "t_address",
        "label": "mapping(address => mapping(address => uint256))",
        "numberOfBytes": "32",
        "value": "t_mapping(t_address,t_uint256)"
      },
      "t_mapping(t_address,t_uint256)": {
        "encoding": "mapping",
        "key": "t_address",
        "label": "mapping(address => uint256)",
        "numberOfBytes": "32",
        "value": "t_uint256"
      },
      "t_mapping(t_uint256,t_bytes32)": {
        "encoding": "mapping",
        "key": "t_uint256",
        "label": "mapping(uint256 => bytes32)",
        "numberOfBytes": "32",
        "value": "t_bytes32"
      },
      "t_string_storage": {
        "encoding": "bytes",
        "label": "string",
        "numberOfBytes": "32"
      },
      "t_uint256": {
        "encoding": "inplace",
        "label": "uint256",
        "numberOfBytes": "32"
      },
      "t_uint8": {
        "encoding": "inplace",
        "label": "uint8",
        "numberOfBytes": "1"
      },
      "t_uint88": {
        "encoding": "inplace",
        "label": "uint88",
        "numberOfBytes": "11"
      }
    }
  }
}