{
  "address": "0x000fec34466972987928d519948AA1b25EACD3E9",
  "abi": [
    {
      "inputs": [],
      "payable": false,
      "stateMutability": "nonpayable",
      "type": "constructor"
    },
    {
      "anonymous": false,
      "inputs": [
        {
          "indexed": true,
          "internalType": "address",
          "name": "user",
          "type": "address"
        },
        {
          "indexed": true,
          "internalType": "address",
          "name": "lender",
          "type": "address"
        },
        {
          "indexed": true,
          "internalType": "bytes32",
          "name": "loanId",
          "type": "bytes32"
        },
        {
          "indexed": false,
          "internalType": "address",
          "name": "loanToken",
          "type": "address"
        },
        {
          "indexed": false,
          "internalType": "address",
          "name": "collateralToken",
          "type": "address"
        },
        {
          "indexed": false,
          "internalType": "uint256",
          "name": "newPrincipal",
          "type": "uint256"
        },
        {
          "indexed": false,
          "internalType": "uint256",
          "name": "newCollateral",
          "type": "uint256"
        },
        {
          "indexed": false,
          "internalType": "uint256",
          "name": "interestRate",
          "type": "uint256"
        },
        {
          "indexed": false,
          "internalType": "uint256",
          "name": "interestDuration",
          "type": "uint256"
        },
        {
          "indexed": false,
          "internalType": "uint256",
          "name": "collateralToLoanRate",
          "type": "uint256"
        },
        {
          "indexed": false,
          "internalType": "uint256",
          "name": "currentMargin",
          "type": "uint256"
        }
      ],
      "name": "Borrow",
      "type": "event"
    },
    {
      "anonymous": false,
      "inputs": [
        {
          "indexed": true,
          "internalType": "bytes32",
          "name": "loanId",
          "type": "bytes32"
        },
        {
          "indexed": true,
          "internalType": "address",
          "name": "delegator",
          "type": "address"
        },
        {
          "indexed": true,
          "internalType": "address",
          "name": "delegated",
          "type": "address"
        },
        {
          "indexed": false,
          "internalType": "bool",
          "name": "isActive",
          "type": "bool"
        }
      ],
      "name": "DelegatedManagerSet",
      "type": "event"
    },
    {
      "anonymous": false,
      "inputs": [
        {
          "indexed": true,
          "internalType": "address",
          "name": "receiver",
          "type": "address"
        },
        {
          "indexed": true,
          "internalType": "address",
          "name": "token",
          "type": "address"
        },
        {
          "indexed": true,
          "internalType": "bytes32",
          "name": "loanId",
          "type": "bytes32"
        },
        {
          "indexed": false,
          "internalType": "uint256",
          "name": "feeRebatePercent",
          "type": "uint256"
        },
        {
          "indexed": false,
          "internalType": "uint256",
          "name": "amount",
          "type": "uint256"
        },
        {
          "indexed": false,
          "internalType": "uint256",
          "name": "basisPoint",
          "type": "uint256"
        }
      ],
      "name": "EarnReward",
      "type": "event"
    },
    {
      "anonymous": false,
      "inputs": [
        {
          "indexed": true,
          "internalType": "address",
          "name": "receiver",
          "type": "address"
        },
        {
          "indexed": true,
          "internalType": "address",
          "name": "token",
          "type": "address"
        },
        {
          "indexed": true,
          "internalType": "bytes32",
          "name": "loanId",
          "type": "bytes32"
        },
        {
          "indexed": false,
          "internalType": "uint256",
          "name": "feeRebatePercent",
          "type": "uint256"
        },
        {
          "indexed": false,
          "internalType": "uint256",
          "name": "amount",
          "type": "uint256"
        },
        {
          "indexed": false,
          "internalType": "uint256",
          "name": "basisPoint",
          "type": "uint256"
        }
      ],
      "name": "EarnRewardFail",
      "type": "event"
    },
    {
      "anonymous": false,
      "inputs": [
        {
          "indexed": true,
          "internalType": "address",
          "name": "user",
          "type": "address"
        },
        {
          "indexed": true,
          "internalType": "address",
          "name": "sourceToken",
          "type": "address"
        },
        {
          "indexed": true,
          "internalType": "address",
          "name": "destToken",
          "type": "address"
        },
        {
          "indexed": false,
          "internalType": "uint256",
          "name": "sourceAmount",
          "type": "uint256"
        },
        {
          "indexed": false,
          "internalType": "uint256",
          "name": "destAmount",
          "type": "uint256"
        }
      ],
      "name": "ExternalSwap",
      "type": "event"
    },
    {
      "anonymous": false,
      "inputs": [
        {
          "indexed": true,
          "internalType": "bytes32",
          "name": "loanId",
          "type": "bytes32"
        },
        {
          "indexed": true,
          "internalType": "address",
          "name": "sourceToken",
          "type": "address"
        },
        {
          "indexed": true,
          "internalType": "address",
          "name": "destToken",
          "type": "address"
        },
        {
          "indexed": false,
          "internalType": "address",
          "name": "borrower",
          "type": "address"
        },
        {
          "indexed": false,
          "internalType": "uint256",
          "name": "sourceAmount",
          "type": "uint256"
        },
        {
          "indexed": false,
          "internalType": "uint256",
          "name": "destAmount",
          "type": "uint256"
        }
      ],
      "name": "LoanSwap",
      "type": "event"
    },
    {
      "anonymous": false,
      "inputs": [
        {
          "indexed": true,
          "internalType": "address",
          "name": "previousOwner",
          "type": "address"
        },
        {
          "indexed": true,
          "internalType": "address",
          "name": "newOwner",
          "type": "address"
        }
      ],
      "name": "OwnershipTransferred",
      "type": "event"
    },
    {
      "anonymous": false,
      "inputs": [
        {
          "indexed": true,
          "internalType": "address",
          "name": "payer",
          "type": "address"
        },
        {
          "indexed": true,
          "internalType": "address",
          "name": "token",
          "type": "address"
        },
        {
          "indexed": true,
          "internalType": "bytes32",
          "name": "loanId",
          "type": "bytes32"
        },
        {
          "indexed": false,
          "internalType": "uint256",
          "name": "amount",
          "type": "uint256"
        }
      ],
      "name": "PayBorrowingFee",
      "type": "event"
    },
    {
      "anonymous": false,
      "inputs": [
        {
          "indexed": true,
          "internalType": "address",
          "name": "interestToken",
          "type": "address"
        },
        {
          "indexed": true,
          "internalType": "address",
          "name": "lender",
          "type": "address"
        },
        {
          "indexed": false,
          "internalType": "uint256",
          "name": "effectiveInterest",
          "type": "uint256"
        }
      ],
      "name": "PayInterestTransfer",
      "type": "event"
    },
    {
      "anonymous": false,
      "inputs": [
        {
          "indexed": true,
          "internalType": "address",
          "name": "payer",
          "type": "address"
        },
        {
          "indexed": true,
          "internalType": "address",
          "name": "token",
          "type": "address"
        },
        {
          "indexed": false,
          "internalType": "uint256",
          "name": "amount",
          "type": "uint256"
        }
      ],
      "name": "PayLendingFee",
      "type": "event"
    },
    {
      "anonymous": false,
      "inputs": [
        {
          "indexed": true,
          "internalType": "address",
          "name": "payer",
          "type": "address"
        },
        {
          "indexed": true,
          "internalType": "address",
          "name": "token",
          "type": "address"
        },
        {
          "indexed": true,
          "internalType": "bytes32",
          "name": "loanId",
          "type": "bytes32"
        },
        {
          "indexed": false,
          "internalType": "uint256",
          "name": "amount",
          "type": "uint256"
        }
      ],
      "name": "PayTradingFee",
      "type": "event"
    },
    {
      "anonymous": false,
      "inputs": [
        {
          "indexed": true,
          "internalType": "address",
          "name": "prevModuleContractAddress",
          "type": "address"
        },
        {
          "indexed": true,
          "internalType": "address",
          "name": "newModuleContractAddress",
          "type": "address"
        },
        {
          "indexed": true,
          "internalType": "bytes32",
          "name": "module",
          "type": "bytes32"
        }
      ],
      "name": "ProtocolModuleContractReplaced",
      "type": "event"
    },
    {
      "anonymous": false,
      "inputs": [
        {
          "indexed": true,
          "internalType": "address",
          "name": "user",
          "type": "address"
        },
        {
          "indexed": true,
          "internalType": "address",
          "name": "lender",
          "type": "address"
        },
        {
          "indexed": true,
          "internalType": "bytes32",
          "name": "loanId",
          "type": "bytes32"
        },
        {
          "indexed": false,
          "internalType": "address",
          "name": "collateralToken",
          "type": "address"
        },
        {
          "indexed": false,
          "internalType": "address",
          "name": "loanToken",
          "type": "address"
        },
        {
          "indexed": false,
          "internalType": "uint256",
          "name": "positionSize",
          "type": "uint256"
        },
        {
          "indexed": false,
          "internalType": "uint256",
          "name": "borrowedAmount",
          "type": "uint256"
        },
        {
          "indexed": false,
          "internalType": "uint256",
          "name": "interestRate",
          "type": "uint256"
        },
        {
          "indexed": false,
          "internalType": "uint256",
          "name": "settlementDate",
          "type": "uint256"
        },
        {
          "indexed": false,
          "internalType": "uint256",
          "name": "entryPrice",
          "type": "uint256"
        },
        {
          "indexed": false,
          "internalType": "uint256",
          "name": "entryLeverage",
          "type": "uint256"
        },
        {
          "indexed": false,
          "internalType": "uint256",
          "name": "currentLeverage",
          "type": "uint256"
        }
      ],
      "name": "Trade",
      "type": "event"
    },
    {
      "anonymous": false,
      "inputs": [
        {
          "indexed": true,
          "internalType": "address",
          "name": "asset",
          "type": "address"
        },
        {
          "indexed": true,
          "internalType": "address",
          "name": "from",
          "type": "address"
        },
        {
          "indexed": false,
          "internalType": "uint256",
          "name": "amount",
          "type": "uint256"
        }
      ],
      "name": "VaultDeposit",
      "type": "event"
    },
    {
      "anonymous": false,
      "inputs": [
        {
          "indexed": true,
          "internalType": "address",
          "name": "asset",
          "type": "address"
        },
        {
          "indexed": true,
          "internalType": "address",
          "name": "to",
          "type": "address"
        },
        {
          "indexed": false,
          "internalType": "uint256",
          "name": "amount",
          "type": "uint256"
        }
      ],
      "name": "VaultWithdraw",
      "type": "event"
    },
    {
      "payable": false,
      "stateMutability": "nonpayable",
      "type": "fallback"
    },
    {
      "constant": true,
      "inputs": [],
      "name": "admin",
      "outputs": [
        {
          "internalType": "address",
          "name": "",
          "type": "address"
        }
      ],
      "payable": false,
      "stateMutability": "view",
      "type": "function"
    },
    {
      "constant": true,
      "inputs": [],
      "name": "affiliateFeePercent",
      "outputs": [
        {
          "internalType": "uint256",
          "name": "",
          "type": "uint256"
        }
      ],
      "payable": false,
      "stateMutability": "view",
      "type": "function"
    },
    {
      "constant": true,
      "inputs": [
        {
          "internalType": "address",
          "name": "",
          "type": "address"
        }
      ],
      "name": "affiliateRewardsHeld",
      "outputs": [
        {
          "internalType": "uint256",
          "name": "",
          "type": "uint256"
        }
      ],
      "payable": false,
      "stateMutability": "view",
      "type": "function"
    },
    {
      "constant": true,
      "inputs": [],
      "name": "affiliateTradingTokenFeePercent",
      "outputs": [
        {
          "internalType": "uint256",
          "name": "",
          "type": "uint256"
        }
      ],
      "payable": false,
      "stateMutability": "view",
      "type": "function"
    },
    {
      "constant": true,
      "inputs": [
        {
          "internalType": "address",
          "name": "",
          "type": "address"
        },
        {
          "internalType": "address",
          "name": "",
          "type": "address"
        }
      ],
      "name": "affiliatesReferrerBalances",
      "outputs": [
        {
          "internalType": "uint256",
          "name": "",
          "type": "uint256"
        }
      ],
      "payable": false,
      "stateMutability": "view",
      "type": "function"
    },
    {
      "constant": true,
      "inputs": [
        {
          "internalType": "address",
          "name": "",
          "type": "address"
        }
      ],
      "name": "affiliatesUserReferrer",
      "outputs": [
        {
          "internalType": "address",
          "name": "",
          "type": "address"
        }
      ],
      "payable": false,
      "stateMutability": "view",
      "type": "function"
    },
    {
      "constant": false,
      "inputs": [
        {
          "internalType": "bytes32",
          "name": "loanParamsId",
          "type": "bytes32"
        },
        {
          "internalType": "bytes32",
          "name": "loanId",
          "type": "bytes32"
        },
        {
          "internalType": "bool",
          "name": "isTorqueLoan",
          "type": "bool"
        },
        {
          "internalType": "uint256",
          "name": "initialMargin",
          "type": "uint256"
        },
        {
          "components": [
            {
              "internalType": "address",
              "name": "lender",
              "type": "address"
            },
            {
              "internalType": "address",
              "name": "borrower",
              "type": "address"
            },
            {
              "internalType": "address",
              "name": "receiver",
              "type": "address"
            },
            {
              "internalType": "address",
              "name": "manager",
              "type": "address"
            }
          ],
          "internalType": "struct MarginTradeStructHelpers.SentAddresses",
          "name": "sentAddresses",
          "type": "tuple"
        },
        {
          "components": [
            {
              "internalType": "uint256",
              "name": "interestRate",
              "type": "uint256"
            },
            {
              "internalType": "uint256",
              "name": "newPrincipal",
              "type": "uint256"
            },
            {
              "internalType": "uint256",
              "name": "interestInitialAmount",
              "type": "uint256"
            },
            {
              "internalType": "uint256",
              "name": "loanTokenSent",
              "type": "uint256"
            },
            {
              "internalType": "uint256",
              "name": "collateralTokenSent",
              "type": "uint256"
            },
            {
              "internalType": "uint256",
              "name": "minEntryPrice",
              "type": "uint256"
            },
            {
              "internalType": "uint256",
              "name": "loanToCollateralSwapRate",
              "type": "uint256"
            },
            {
              "internalType": "uint256",
              "name": "interestDuration",
              "type": "uint256"
            },
            {
              "internalType": "uint256",
              "name": "entryLeverage",
              "type": "uint256"
            }
          ],
          "internalType": "struct MarginTradeStructHelpers.SentAmounts",
          "name": "sentValues",
          "type": "tuple"
        },
        {
          "internalType": "bytes",
          "name": "loanDataBytes",
          "type": "bytes"
        }
      ],
      "name": "borrowOrTradeFromPool",
      "outputs": [
        {
          "internalType": "uint256",
          "name": "newPrincipal",
          "type": "uint256"
        },
        {
          "internalType": "uint256",
          "name": "newCollateral",
          "type": "uint256"
        }
      ],
      "payable": true,
      "stateMutability": "payable",
      "type": "function"
    },
    {
      "constant": true,
      "inputs": [
        {
          "internalType": "address",
          "name": "",
          "type": "address"
        }
      ],
      "name": "borrowerNonce",
      "outputs": [
        {
          "internalType": "uint256",
          "name": "",
          "type": "uint256"
        }
      ],
      "payable": false,
      "stateMutability": "view",
      "type": "function"
    },
    {
      "constant": true,
      "inputs": [
        {
          "internalType": "address",
          "name": "",
          "type": "address"
        },
        {
          "internalType": "bytes32",
          "name": "",
          "type": "bytes32"
        }
      ],
      "name": "borrowerOrders",
      "outputs": [
        {
          "internalType": "uint256",
          "name": "lockedAmount",
          "type": "uint256"
        },
        {
          "internalType": "uint256",
          "name": "interestRate",
          "type": "uint256"
        },
        {
          "internalType": "uint256",
          "name": "minLoanTerm",
          "type": "uint256"
        },
        {
          "internalType": "uint256",
          "name": "maxLoanTerm",
          "type": "uint256"
        },
        {
          "internalType": "uint256",
          "name": "createdTimestamp",
          "type": "uint256"
        },
        {
          "internalType": "uint256",
          "name": "expirationTimestamp",
          "type": "uint256"
        }
      ],
      "payable": false,
      "stateMutability": "view",
      "type": "function"
    },
    {
      "constant": true,
      "inputs": [],
      "name": "borrowingFeePercent",
      "outputs": [
        {
          "internalType": "uint256",
          "name": "",
          "type": "uint256"
        }
      ],
      "payable": false,
      "stateMutability": "view",
      "type": "function"
    },
    {
      "constant": true,
      "inputs": [
        {
          "internalType": "address",
          "name": "",
          "type": "address"
        }
      ],
      "name": "borrowingFeeTokensHeld",
      "outputs": [
        {
          "internalType": "uint256",
          "name": "",
          "type": "uint256"
        }
      ],
      "payable": false,
      "stateMutability": "view",
      "type": "function"
    },
    {
      "constant": true,
      "inputs": [
        {
          "internalType": "address",
          "name": "",
          "type": "address"
        }
      ],
      "name": "borrowingFeeTokensPaid",
      "outputs": [
        {
          "internalType": "uint256",
          "name": "",
          "type": "uint256"
        }
      ],
      "payable": false,
      "stateMutability": "view",
      "type": "function"
    },
    {
      "constant": true,
      "inputs": [
        {
          "internalType": "bytes32",
          "name": "",
          "type": "bytes32"
        },
        {
          "internalType": "address",
          "name": "",
          "type": "address"
        }
      ],
      "name": "delegatedManagers",
      "outputs": [
        {
          "internalType": "bool",
          "name": "",
          "type": "bool"
        }
      ],
      "payable": false,
      "stateMutability": "view",
      "type": "function"
    },
    {
      "constant": true,
      "inputs": [],
      "name": "feeRebatePercent",
      "outputs": [
        {
          "internalType": "uint256",
          "name": "",
          "type": "uint256"
        }
      ],
      "payable": false,
      "stateMutability": "view",
      "type": "function"
    },
    {
      "constant": true,
      "inputs": [],
      "name": "feesController",
      "outputs": [
        {
          "internalType": "address",
          "name": "",
          "type": "address"
        }
      ],
      "payable": false,
      "stateMutability": "view",
      "type": "function"
    },
    {
      "constant": true,
      "inputs": [
        {
          "internalType": "address",
          "name": "loanToken",
          "type": "address"
        },
        {
          "internalType": "address",
          "name": "collateralToken",
          "type": "address"
        },
        {
          "internalType": "uint256",
          "name": "collateralTokenAmount",
          "type": "uint256"
        },
        {
          "internalType": "uint256",
          "name": "marginAmount",
          "type": "uint256"
        },
        {
          "internalType": "bool",
          "name": "isTorqueLoan",
          "type": "bool"
        }
      ],
      "name": "getBorrowAmount",
      "outputs": [
        {
          "internalType": "uint256",
          "name": "borrowAmount",
          "type": "uint256"
        }
      ],
      "payable": false,
      "stateMutability": "view",
      "type": "function"
    },
    {
      "constant": true,
      "inputs": [
        {
          "internalType": "address",
          "name": "loanToken",
          "type": "address"
        },
        {
          "internalType": "address",
          "name": "collateralToken",
          "type": "address"
        },
        {
          "internalType": "uint256",
          "name": "loanTokenSent",
          "type": "uint256"
        },
        {
          "internalType": "uint256",
          "name": "collateralTokenSent",
          "type": "uint256"
        },
        {
          "internalType": "uint256",
          "name": "interestRate",
          "type": "uint256"
        },
        {
          "internalType": "uint256",
          "name": "newPrincipal",
          "type": "uint256"
        }
      ],
      "name": "getEstimatedMarginExposure",
      "outputs": [
        {
          "internalType": "uint256",
          "name": "",
          "type": "uint256"
        }
      ],
      "payable": false,
      "stateMutability": "view",
      "type": "function"
    },
    {
      "constant": true,
      "inputs": [
        {
          "internalType": "address",
          "name": "loanToken",
          "type": "address"
        },
        {
          "internalType": "address",
          "name": "collateralToken",
          "type": "address"
        },
        {
          "internalType": "uint256",
          "name": "newPrincipal",
          "type": "uint256"
        },
        {
          "internalType": "uint256",
          "name": "marginAmount",
          "type": "uint256"
        },
        {
          "internalType": "bool",
          "name": "isTorqueLoan",
          "type": "bool"
        }
      ],
      "name": "getRequiredCollateral",
      "outputs": [
        {
          "internalType": "uint256",
          "name": "collateralAmountRequired",
          "type": "uint256"
        }
      ],
      "payable": false,
      "stateMutability": "view",
      "type": "function"
    },
    {
      "constant": false,
      "inputs": [
        {
          "internalType": "address",
          "name": "target",
          "type": "address"
        }
      ],
      "name": "initialize",
      "outputs": [],
      "payable": false,
      "stateMutability": "nonpayable",
      "type": "function"
    },
    {
      "constant": true,
      "inputs": [],
      "name": "isOwner",
      "outputs": [
        {
          "internalType": "bool",
          "name": "",
          "type": "bool"
        }
      ],
      "payable": false,
      "stateMutability": "view",
      "type": "function"
    },
    {
      "constant": true,
      "inputs": [
        {
          "internalType": "address",
          "name": "",
          "type": "address"
        },
        {
          "internalType": "address",
          "name": "",
          "type": "address"
        }
      ],
      "name": "lenderInterest",
      "outputs": [
        {
          "internalType": "uint256",
          "name": "principalTotal",
          "type": "uint256"
        },
        {
          "internalType": "uint256",
          "name": "owedPerDay",
          "type": "uint256"
        },
        {
          "internalType": "uint256",
          "name": "owedTotal",
          "type": "uint256"
        },
        {
          "internalType": "uint256",
          "name": "paidTotal",
          "type": "uint256"
        },
        {
          "internalType": "uint256",
          "name": "updatedTimestamp",
          "type": "uint256"
        }
      ],
      "payable": false,
      "stateMutability": "view",
      "type": "function"
    },
    {
      "constant": true,
      "inputs": [
        {
          "internalType": "address",
          "name": "",
          "type": "address"
        },
        {
          "internalType": "bytes32",
          "name": "",
          "type": "bytes32"
        }
      ],
      "name": "lenderOrders",
      "outputs": [
        {
          "internalType": "uint256",
          "name": "lockedAmount",
          "type": "uint256"
        },
        {
          "internalType": "uint256",
          "name": "interestRate",
          "type": "uint256"
        },
        {
          "internalType": "uint256",
          "name": "minLoanTerm",
          "type": "uint256"
        },
        {
          "internalType": "uint256",
          "name": "maxLoanTerm",
          "type": "uint256"
        },
        {
          "internalType": "uint256",
          "name": "createdTimestamp",
          "type": "uint256"
        },
        {
          "internalType": "uint256",
          "name": "expirationTimestamp",
          "type": "uint256"
        }
      ],
      "payable": false,
      "stateMutability": "view",
      "type": "function"
    },
    {
      "constant": true,
      "inputs": [],
      "name": "lendingFeePercent",
      "outputs": [
        {
          "internalType": "uint256",
          "name": "",
          "type": "uint256"
        }
      ],
      "payable": false,
      "stateMutability": "view",
      "type": "function"
    },
    {
      "constant": true,
      "inputs": [
        {
          "internalType": "address",
          "name": "",
          "type": "address"
        }
      ],
      "name": "lendingFeeTokensHeld",
      "outputs": [
        {
          "internalType": "uint256",
          "name": "",
          "type": "uint256"
        }
      ],
      "payable": false,
      "stateMutability": "view",
      "type": "function"
    },
    {
      "constant": true,
      "inputs": [
        {
          "internalType": "address",
          "name": "",
          "type": "address"
        }
      ],
      "name": "lendingFeeTokensPaid",
      "outputs": [
        {
          "internalType": "uint256",
          "name": "",
          "type": "uint256"
        }
      ],
      "payable": false,
      "stateMutability": "view",
      "type": "function"
    },
    {
      "constant": true,
      "inputs": [],
      "name": "liquidationIncentivePercent",
      "outputs": [
        {
          "internalType": "uint256",
          "name": "",
          "type": "uint256"
        }
      ],
      "payable": false,
      "stateMutability": "view",
      "type": "function"
    },
    {
      "constant": true,
      "inputs": [
        {
          "internalType": "bytes32",
          "name": "",
          "type": "bytes32"
        }
      ],
      "name": "loanInterest",
      "outputs": [
        {
          "internalType": "uint256",
          "name": "owedPerDay",
          "type": "uint256"
        },
        {
          "internalType": "uint256",
          "name": "depositTotal",
          "type": "uint256"
        },
        {
          "internalType": "uint256",
          "name": "updatedTimestamp",
          "type": "uint256"
        }
      ],
      "payable": false,
      "stateMutability": "view",
      "type": "function"
    },
    {
      "constant": true,
      "inputs": [
        {
          "internalType": "bytes32",
          "name": "",
          "type": "bytes32"
        }
      ],
      "name": "loanParams",
      "outputs": [
        {
          "internalType": "bytes32",
          "name": "id",
          "type": "bytes32"
        },
        {
          "internalType": "bool",
          "name": "active",
          "type": "bool"
        },
        {
          "internalType": "address",
          "name": "owner",
          "type": "address"
        },
        {
          "internalType": "address",
          "name": "loanToken",
          "type": "address"
        },
        {
          "internalType": "address",
          "name": "collateralToken",
          "type": "address"
        },
        {
          "internalType": "uint256",
          "name": "minInitialMargin",
          "type": "uint256"
        },
        {
          "internalType": "uint256",
          "name": "maintenanceMargin",
          "type": "uint256"
        },
        {
          "internalType": "uint256",
          "name": "maxLoanTerm",
          "type": "uint256"
        }
      ],
      "payable": false,
      "stateMutability": "view",
      "type": "function"
    },
    {
      "constant": true,
      "inputs": [
        {
          "internalType": "address",
          "name": "",
          "type": "address"
        }
      ],
      "name": "loanPoolToUnderlying",
      "outputs": [
        {
          "internalType": "address",
          "name": "",
          "type": "address"
        }
      ],
      "payable": false,
      "stateMutability": "view",
      "type": "function"
    },
    {
      "constant": true,
      "inputs": [
        {
          "internalType": "bytes32",
          "name": "",
          "type": "bytes32"
        }
      ],
      "name": "loans",
      "outputs": [
        {
          "internalType": "bytes32",
          "name": "id",
          "type": "bytes32"
        },
        {
          "internalType": "bytes32",
          "name": "loanParamsId",
          "type": "bytes32"
        },
        {
          "internalType": "bytes32",
          "name": "pendingTradesId",
          "type": "bytes32"
        },
        {
          "internalType": "bool",
          "name": "active",
          "type": "bool"
        },
        {
          "internalType": "uint256",
          "name": "principal",
          "type": "uint256"
        },
        {
          "internalType": "uint256",
          "name": "collateral",
          "type": "uint256"
        },
        {
          "internalType": "uint256",
          "name": "startTimestamp",
          "type": "uint256"
        },
        {
          "internalType": "uint256",
          "name": "endTimestamp",
          "type": "uint256"
        },
        {
          "internalType": "uint256",
          "name": "startMargin",
          "type": "uint256"
        },
        {
          "internalType": "uint256",
          "name": "startRate",
          "type": "uint256"
        },
        {
          "internalType": "address",
          "name": "borrower",
          "type": "address"
        },
        {
          "internalType": "address",
          "name": "lender",
          "type": "address"
        }
      ],
      "payable": false,
      "stateMutability": "view",
      "type": "function"
    },
    {
      "constant": true,
      "inputs": [],
      "name": "lockedSOVAddress",
      "outputs": [
        {
          "internalType": "address",
          "name": "",
          "type": "address"
        }
      ],
      "payable": false,
      "stateMutability": "view",
      "type": "function"
    },
    {
      "constant": true,
      "inputs": [
        {
          "internalType": "bytes4",
          "name": "",
          "type": "bytes4"
        }
      ],
      "name": "logicTargets",
      "outputs": [
        {
          "internalType": "address",
          "name": "",
          "type": "address"
        }
      ],
      "payable": false,
      "stateMutability": "view",
      "type": "function"
    },
    {
      "constant": true,
      "inputs": [],
      "name": "maxDisagreement",
      "outputs": [
        {
          "internalType": "uint256",
          "name": "",
          "type": "uint256"
        }
      ],
      "payable": false,
      "stateMutability": "view",
      "type": "function"
    },
    {
      "constant": true,
      "inputs": [],
      "name": "maxSwapSize",
      "outputs": [
        {
          "internalType": "uint256",
          "name": "",
          "type": "uint256"
        }
      ],
      "payable": false,
      "stateMutability": "view",
      "type": "function"
    },
    {
      "constant": true,
      "inputs": [],
      "name": "minReferralsToPayout",
      "outputs": [
        {
          "internalType": "uint256",
          "name": "",
          "type": "uint256"
        }
      ],
      "payable": false,
      "stateMutability": "view",
      "type": "function"
    },
    {
      "constant": true,
      "inputs": [],
      "name": "owner",
      "outputs": [
        {
          "internalType": "address",
          "name": "",
          "type": "address"
        }
      ],
      "payable": false,
      "stateMutability": "view",
      "type": "function"
    },
    {
      "constant": true,
      "inputs": [],
      "name": "pause",
      "outputs": [
        {
          "internalType": "bool",
          "name": "",
          "type": "bool"
        }
      ],
      "payable": false,
      "stateMutability": "view",
      "type": "function"
    },
    {
      "constant": true,
      "inputs": [],
      "name": "priceFeeds",
      "outputs": [
        {
          "internalType": "address",
          "name": "",
          "type": "address"
        }
      ],
      "payable": false,
      "stateMutability": "view",
      "type": "function"
    },
    {
      "constant": true,
      "inputs": [],
      "name": "protocolAddress",
      "outputs": [
        {
          "internalType": "address",
          "name": "",
          "type": "address"
        }
      ],
      "payable": false,
      "stateMutability": "view",
      "type": "function"
    },
    {
      "constant": true,
      "inputs": [],
      "name": "protocolTokenAddress",
      "outputs": [
        {
          "internalType": "address",
          "name": "",
          "type": "address"
        }
      ],
      "payable": false,
      "stateMutability": "view",
      "type": "function"
    },
    {
      "constant": true,
      "inputs": [],
      "name": "protocolTokenHeld",
      "outputs": [
        {
          "internalType": "uint256",
          "name": "",
          "type": "uint256"
        }
      ],
      "payable": false,
      "stateMutability": "view",
      "type": "function"
    },
    {
      "constant": true,
      "inputs": [],
      "name": "protocolTokenPaid",
      "outputs": [
        {
          "internalType": "uint256",
          "name": "",
          "type": "uint256"
        }
      ],
      "payable": false,
      "stateMutability": "view",
      "type": "function"
    },
    {
      "constant": true,
      "inputs": [],
      "name": "rolloverBaseReward",
      "outputs": [
        {
          "internalType": "uint256",
          "name": "",
          "type": "uint256"
        }
      ],
      "payable": false,
      "stateMutability": "view",
      "type": "function"
    },
    {
      "constant": true,
      "inputs": [],
      "name": "rolloverFlexFeePercent",
      "outputs": [
        {
          "internalType": "uint256",
          "name": "",
          "type": "uint256"
        }
      ],
      "payable": false,
      "stateMutability": "view",
      "type": "function"
    },
    {
      "constant": false,
      "inputs": [
        {
          "internalType": "bytes32",
          "name": "loanId",
          "type": "bytes32"
        },
        {
          "internalType": "address",
          "name": "delegated",
          "type": "address"
        },
        {
          "internalType": "bool",
          "name": "toggle",
          "type": "bool"
        }
      ],
      "name": "setDelegatedManager",
      "outputs": [],
      "payable": false,
      "stateMutability": "nonpayable",
      "type": "function"
    },
    {
      "constant": true,
      "inputs": [],
      "name": "sourceBuffer",
      "outputs": [
        {
          "internalType": "uint256",
          "name": "",
          "type": "uint256"
        }
      ],
      "payable": false,
      "stateMutability": "view",
      "type": "function"
    },
    {
      "constant": true,
      "inputs": [],
      "name": "sovTokenAddress",
      "outputs": [
        {
          "internalType": "address",
          "name": "",
          "type": "address"
        }
      ],
      "payable": false,
      "stateMutability": "view",
      "type": "function"
    },
    {
      "constant": true,
      "inputs": [],
      "name": "sovrynSwapContractRegistryAddress",
      "outputs": [
        {
          "internalType": "address",
          "name": "",
          "type": "address"
        }
      ],
      "payable": false,
      "stateMutability": "view",
      "type": "function"
    },
    {
      "constant": true,
      "inputs": [
        {
          "internalType": "address",
          "name": "",
          "type": "address"
        },
        {
          "internalType": "address",
          "name": "",
          "type": "address"
        }
      ],
      "name": "specialRebates",
      "outputs": [
        {
          "internalType": "uint256",
          "name": "",
          "type": "uint256"
        }
      ],
      "payable": false,
      "stateMutability": "view",
      "type": "function"
    },
    {
      "constant": true,
      "inputs": [
        {
          "internalType": "address",
          "name": "",
          "type": "address"
        }
      ],
      "name": "supportedTokens",
      "outputs": [
        {
          "internalType": "bool",
          "name": "",
          "type": "bool"
        }
      ],
      "payable": false,
      "stateMutability": "view",
      "type": "function"
    },
    {
      "constant": true,
      "inputs": [],
      "name": "swapsImpl",
      "outputs": [
        {
          "internalType": "address",
          "name": "",
          "type": "address"
        }
      ],
      "payable": false,
      "stateMutability": "view",
      "type": "function"
    },
    {
      "constant": true,
      "inputs": [],
      "name": "tradingFeePercent",
      "outputs": [
        {
          "internalType": "uint256",
          "name": "",
          "type": "uint256"
        }
      ],
      "payable": false,
      "stateMutability": "view",
      "type": "function"
    },
    {
      "constant": true,
      "inputs": [
        {
          "internalType": "address",
          "name": "",
          "type": "address"
        }
      ],
      "name": "tradingFeeTokensHeld",
      "outputs": [
        {
          "internalType": "uint256",
          "name": "",
          "type": "uint256"
        }
      ],
      "payable": false,
      "stateMutability": "view",
      "type": "function"
    },
    {
      "constant": true,
      "inputs": [
        {
          "internalType": "address",
          "name": "",
          "type": "address"
        }
      ],
      "name": "tradingFeeTokensPaid",
      "outputs": [
        {
          "internalType": "uint256",
          "name": "",
          "type": "uint256"
        }
      ],
      "payable": false,
      "stateMutability": "view",
      "type": "function"
    },
    {
      "constant": false,
      "inputs": [
        {
          "internalType": "address",
          "name": "newOwner",
          "type": "address"
        }
      ],
      "name": "transferOwnership",
      "outputs": [],
      "payable": false,
      "stateMutability": "nonpayable",
      "type": "function"
    },
    {
      "constant": true,
      "inputs": [
        {
          "internalType": "address",
          "name": "",
          "type": "address"
        }
      ],
      "name": "underlyingToLoanPool",
      "outputs": [
        {
          "internalType": "address",
          "name": "",
          "type": "address"
        }
      ],
      "payable": false,
      "stateMutability": "view",
      "type": "function"
    },
    {
      "constant": true,
      "inputs": [
        {
          "internalType": "address",
          "name": "",
          "type": "address"
        }
      ],
      "name": "userNotFirstTradeFlag",
      "outputs": [
        {
          "internalType": "bool",
          "name": "",
          "type": "bool"
        }
      ],
      "payable": false,
      "stateMutability": "view",
      "type": "function"
    },
    {
      "constant": true,
      "inputs": [],
      "name": "wrbtcToken",
      "outputs": [
        {
          "internalType": "contract IWrbtcERC20",
          "name": "",
          "type": "address"
        }
      ],
      "payable": false,
      "stateMutability": "view",
      "type": "function"
    }
  ],
  "transactionHash": "0x75d0b4246bdc132590f69284776bab0bd95543000c5f41725930631c9a3e4909",
  "args": [],
  "numDeployments": 2,
  "solcInputHash": "444414c40f489390e118f5b65a5947cc",
  "bytecode": "0x60806040526001600055678ac7230489e80000601555670214e8348c4f000060185567013fbe85edc90000601b55674563918244f40000602055674563918244f40000602155674563918244f400006027556127106028556802b5e3af16b1880000602955650f478e084000602b5567016345785d8a0000602c556802b5e3af16b1880000602f5560036035556801158e460913d00000603955348015620000a657600080fd5b506000620000bc6001600160e01b036200011016565b600180546001600160a01b0319166001600160a01b038316908117909155604051919250906000907f8be0079c531659141344cd1fd0a4f28419497f9722a3daafe3b4186f6b6457e0908290a35062000114565b3390565b61512680620001246000396000f3fe6080604052600436106103815760003560e01c80638f32d59b116101d1578063cd5d808d11610102578063e8f62764116100a0578063f589a3e71161006f578063f589a3e714610a05578063f6ddc8b314610a1a578063f706b1f214610a2f578063f851a44014610a4457610381565b8063e8f62764146109a6578063edab119f146109bb578063f0e085f5146109d0578063f2fde38b146109e557610381565b8063d485045e116100dc578063d485045e14610925578063d67f707714610945578063d84ca25414610965578063e762319f1461098657610381565b8063cd5d808d146108db578063d288208c146108fb578063d473c2da1461091057610381565b8063b7e152411161016f578063bdee453c11610149578063bdee453c1461082f578063c4a908151461084f578063c4d66de814610887578063cb6eacd1146108a757610381565b8063b7e15241146107e5578063b9cffa3e14610805578063ba4861e91461081a57610381565b8063acc04348116101ab578063acc0434814610779578063ae0a85301461078e578063afe84009146107a3578063b30643d9146107c557610381565b80638f32d59b1461072f57806392d894f814610744578063959083d31461076457610381565b80634203e395116102b65780636e663730116102545780637a8faeb8116102235780637a8faeb8146106d05780638456cb59146106e55780638da5cb5b146106fa5780638dc48ba51461070f57610381565b80636e663730146106715780637420ca3e14610691578063742e6798146106a657806378d849ed146106bb57610381565b8063569fc1fb11610290578063569fc1fb146105dc578063574442cc1461060b57806362fff3f61461062057806368c4ac261461065157610381565b80634203e395146105925780634699f846146105b25780634f28cac2146105c757610381565b80632a324027116103235780633432423c116102fd5780633432423c146105125780633452d2d4146105325780633fca506e146105525780634115a2b61461057257610381565b80632a324027146104c65780632f470764146104db57806333d8991f146104f057610381565b80631b7bde741161035f5780631b7bde741461042c578063218b39c61461045957806324cc57491461047957806325decac0146104a657610381565b8063065d810f146103af5780630676c1b7146103ea57806317548b791461040c575b34801561038d57600080fd5b5060405162461bcd60e51b81526004016103a690614eaa565b60405180910390fd5b3480156103bb57600080fd5b506103cf6103ca366004613f1e565b610a59565b6040516103e196959493929190614f9d565b60405180910390f35b3480156103f657600080fd5b506103ff610a99565b6040516103e191906149d4565b34801561041857600080fd5b506103ff6104273660046140b1565b610aa8565b34801561043857600080fd5b5061044c610447366004613de8565b610ac3565b6040516103e19190614f58565b34801561046557600080fd5b506103ff610474366004613dca565b610ae0565b34801561048557600080fd5b50610499610494366004613dca565b610afb565b6040516103e19190614bf7565b3480156104b257600080fd5b5061044c6104c1366004613e22565b610b10565b3480156104d257600080fd5b5061044c610b6b565b3480156104e757600080fd5b5061044c610b71565b3480156104fc57600080fd5b5061051061050b366004613fa9565b610b77565b005b34801561051e57600080fd5b506103cf61052d366004613f1e565b610be4565b34801561053e57600080fd5b5061044c61054d366004613dca565b610c24565b34801561055e57600080fd5b5061044c61056d366004613dca565b610c36565b34801561057e57600080fd5b5061049961058d366004613f8a565b610c48565b34801561059e57600080fd5b5061044c6105ad366004613dca565b610c68565b3480156105be57600080fd5b5061044c610c7a565b3480156105d357600080fd5b5061044c610c80565b3480156105e857600080fd5b506105fc6105f7366004613f6c565b610c86565b6040516103e193929190614f74565b34801561061757600080fd5b5061044c610ca7565b34801561062c57600080fd5b5061064061063b366004613de8565b610cad565b6040516103e1959493929190614f82565b34801561065d57600080fd5b5061049961066c366004613dca565b610ce7565b34801561067d57600080fd5b506103ff61068c366004613dca565b610cfc565b34801561069d57600080fd5b506103ff610d17565b3480156106b257600080fd5b5061044c610d26565b3480156106c757600080fd5b506103ff610d2c565b3480156106dc57600080fd5b5061044c610d3b565b3480156106f157600080fd5b50610499610d41565b34801561070657600080fd5b506103ff610d4a565b34801561071b57600080fd5b506103ff61072a366004613dca565b610d59565b34801561073b57600080fd5b50610499610d74565b34801561075057600080fd5b5061044c61075f366004613dca565b610d9a565b34801561077057600080fd5b5061044c610dac565b34801561078557600080fd5b5061044c610db2565b34801561079a57600080fd5b5061044c610db8565b3480156107af57600080fd5b506107b8610dbe565b6040516103e19190614cfb565b3480156107d157600080fd5b5061044c6107e0366004613dca565b610dcd565b3480156107f157600080fd5b5061044c610800366004613dca565b610ddf565b34801561081157600080fd5b506103ff610df1565b34801561082657600080fd5b506103ff610e00565b34801561083b57600080fd5b5061044c61084a366004613dca565b610e0f565b34801561085b57600080fd5b5061086f61086a366004613f6c565b610e21565b6040516103e19c9b9a99989796959493929190614c48565b34801561089357600080fd5b506105106108a2366004613dca565b610e93565b3480156108b357600080fd5b506108c76108c2366004613f6c565b610f96565b6040516103e1989796959493929190614c05565b3480156108e757600080fd5b5061044c6108f6366004613de8565b610fe8565b34801561090757600080fd5b506103ff611005565b34801561091c57600080fd5b5061044c611014565b34801561093157600080fd5b5061044c610940366004613dca565b61101a565b34801561095157600080fd5b5061044c610960366004613e97565b61102c565b610978610973366004613ff6565b6110fa565b6040516103e1929190614f66565b34801561099257600080fd5b5061044c6109a1366004613e22565b6112fa565b3480156109b257600080fd5b506103ff61146e565b3480156109c757600080fd5b5061044c61147d565b3480156109dc57600080fd5b5061044c611483565b3480156109f157600080fd5b50610510610a00366004613dca565b611489565b348015610a1157600080fd5b5061044c6114b9565b348015610a2657600080fd5b5061044c6114bf565b348015610a3b57600080fd5b506103ff6114c5565b348015610a5057600080fd5b506103ff6114d4565b6009602090815260009283526040808420909152908252902080546001820154600283015460038401546004850154600590950154939492939192909186565b6031546001600160a01b031681565b6005602052600090815260409020546001600160a01b031681565b603b60209081526000928352604080842090915290825290205481565b6023602052600090815260409020546001600160a01b031681565b60326020526000908152604090205460ff1681565b60008215610b6257610b2586868686866114e3565b9050600082610b3c57610b378261161c565b610b45565b610b4582611652565b90508015610b6057610b5d828263ffffffff61167616565b91505b505b95945050505050565b60185481565b601f5481565b603d5460ff1615610b9a5760405162461bcd60e51b81526004016103a690614d2a565b6000838152600660205260409020600a01546001600160a01b03163314610bd35760405162461bcd60e51b81526004016103a690614e6a565b610bdf833384846116a2565b505050565b6008602090815260009283526040808420909152908252902080546001820154600283015460038401546004850154600590950154939492939192909186565b601a6020526000908152604090205481565b602a6020526000908152604090205481565b600a60209081526000928352604080842090915290825290205460ff1681565b60166020526000908152604090205481565b60155481565b60295481565b600c6020526000908152604090208054600182015460029092015490919083565b602b5481565b600b602090815260009283526040808420909152908252902080546001820154600283015460038401546004909401549293919290919085565b60266020526000908152604090205460ff1681565b6033602052600090815260409020546001600160a01b031681565b6003546001600160a01b031681565b60355481565b6002546001600160a01b031681565b601e5481565b603d5460ff1681565b6001546001600160a01b031690565b6022602052600090815260409020546001600160a01b031681565b6001546000906001600160a01b0316610d8b611717565b6001600160a01b031614905090565b60176020526000908152604090205481565b602c5481565b602f5481565b60205481565b602d546001600160a01b031681565b601d6020526000908152604090205481565b601c6020526000908152604090205481565b6037546001600160a01b031681565b6004546001600160a01b031681565b60366020526000908152604090205481565b600660208190526000918252604090912080546001820154600283015460038401546004850154600586015496860154600787015460088801546009890154600a8a0154600b909a0154989a9799969860ff909616979496949593949293919290916001600160a01b0391821691168c565b610e9b610d74565b610eb75760405162461bcd60e51b81526004016103a690614e6a565b633613289560e21b600081905260056020527fd3a886345208a8e3a0f774019653c4e69589e943ba1e46c7fa0ef875651e6e39546001600160a01b031690610eff908361171b565b610f106333d8991f60e01b8361171b565b610f2163d67f707760e01b8361171b565b610f3162977b2b60e61b8361171b565b610f4263e762319f60e01b8361171b565b6b4c6f616e4f70656e696e677360a01b826001600160a01b0316826001600160a01b03167f1420e3a2094d671bc2eb897941fa3d94ffa37f0cb6d530651946250a2151cb7f60405160405180910390a45050565b6007602052600090815260409020805460018201546002830154600384015460048501546005860154600690960154949560ff8516956101009095046001600160a01b03908116959481169493169288565b603c60209081526000928352604080842090915290825290205481565b6038546001600160a01b031681565b60275481565b60196020526000908152604090205481565b60006224ea008161105d6907baab4146b63dd00000611051868863ffffffff61179516565b9063ffffffff6117cf16565b9050600061107862015180611051858563ffffffff61179516565b9050600061108c898363ffffffff61181116565b905060006110998261161c565b905080156110b4576110b1828263ffffffff61181116565b91505b60006110c18d8d85611853565b9050806110d757600096505050505050506110f0565b6110e78a8263ffffffff61167616565b96505050505050505b9695505050505050565b60008060016000541461111f5760405162461bcd60e51b81526004016103a690614eda565b6002600055603d5460ff16156111475760405162461bcd60e51b81526004016103a690614d2a565b34158061115357508215155b61116f5760405162461bcd60e51b81526004016103a690614f0a565b336000908152602260205260409020546001600160a01b03166111a45760405162461bcd60e51b81526004016103a690614e4a565b6111ac613a9e565b5060008a815260076020908152604091829020825161010080820185528254808352600184015460ff811615159584019590955293046001600160a01b039081169482019490945260028201548416606082015260038201549093166080840152600481015460a0840152600581015460c08401526006015460e08301526112465760405162461bcd60e51b81526004016103a690614e9a565b60006112618260600151836080015189602001358c8e6114e3565b9050806112805760405162461bcd60e51b81526004016103a690614e3a565b6112e2828c8c848d611297368f90038f018f6140cf565b6112a6368f90038f018f6140ed565b8d8d8080601f0160208091040260200160405190810160405280939291908181526020018383808284376000920191909152506118e992505050565b6001600055909d909c509a5050505050505050505050565b60008215610b62578115611324576113218368056bc75e2d6310000063ffffffff61167616565b92505b8360008361133a576113358261161c565b611343565b61134382611652565b9050801561135e5761135b828263ffffffff61181116565b91505b866001600160a01b0316886001600160a01b0316141561139c57611395856110518468056bc75e2d6310000063ffffffff61179516565b9250611463565b600254604051630a7549df60e21b815260009182916001600160a01b03909116906329d5277c906113d3908c908e906004016149e2565b604080518083038186803b1580156113ea57600080fd5b505afa1580156113fe573d6000803e3d6000fd5b505050506040513d601f19601f82011682018060405250611422919081019061412a565b91509150806000146114605761145d816110518981866114518a68056bc75e2d6310000063ffffffff61179516565b9063ffffffff61179516565b94505b50505b505095945050505050565b6014546001600160a01b031681565b601b5481565b60285481565b611491610d74565b6114ad5760405162461bcd60e51b81526004016103a690614e6a565b6114b681611be0565b50565b60395481565b60215481565b602e546001600160a01b031681565b6030546001600160a01b031681565b6000846001600160a01b0316866001600160a01b031614156115235761151c68056bc75e2d63100000611051868663ffffffff61179516565b90506115de565b600254604051630a7549df60e21b815260009182916001600160a01b03909116906329d5277c9061155a908a908c906004016149e2565b604080518083038186803b15801561157157600080fd5b505afa158015611585573d6000803e3d6000fd5b505050506040513d601f19601f820116820180604052506115a9919081019061412a565b91509150816000146115db576115d868056bc75e2d631000006110518761145186838c8863ffffffff61179516565b92505b50505b8180156115ea57508015155b15610b62576110f081611610856110518368056bc75e2d6310000063ffffffff61179516565b9063ffffffff61167616565b600061164c68056bc75e2d631000006116406018548561179590919063ffffffff16565b9063ffffffff611c6216565b92915050565b600061164c68056bc75e2d63100000611640601b548561179590919063ffffffff16565b60008282018381101561169b5760405162461bcd60e51b81526004016103a690614d8a565b9392505050565b6000848152600a602090815260408083206001600160a01b038681168086529190935292819020805460ff1916851515179055519085169086907f0eef4f90457a741c97d76fcf13fa231fefdcc7649bdb3cb49157c37111c9843390611709908690614bf7565b60405180910390a450505050565b3390565b6001600160e01b03198216600090815260056020526040902080546001600160a01b0319166001600160a01b0383169081179091551561177657611770600d6001600160e01b0319841663ffffffff611ca416565b50611791565b610bdf600d6001600160e01b0319841663ffffffff611cec16565b5050565b6000826117a45750600061164c565b828202828482816117b157fe5b041461169b5760405162461bcd60e51b81526004016103a690614e5a565b600061169b83836040518060400160405280601a81526020017f536166654d6174683a206469766973696f6e206279207a65726f000000000000815250611dad565b600061169b83836040518060400160405280601e81526020017f536166654d6174683a207375627472616374696f6e206f766572666c6f770000815250611de4565b604051636dcd64e560e01b81526000907398399051DC17bAFb621269A12a63d70b2D615C6990636dcd64e59061189190879087908790600401614a32565b60206040518083038186803b1580156118a957600080fd5b505af41580156118bd573d6000803e3d6000fd5b505050506040513d601f19601f820116820180604052506118e1919081019061410c565b949350505050565b60008089606001516001600160a01b03168a608001516001600160a01b031614156119265760405162461bcd60e51b81526004016103a690614daa565b8960a0015186101561194a5760405162461bcd60e51b81526004016103a690614f2a565b60e08a015115158061195f5750604084015115155b61197b5760405162461bcd60e51b81526004016103a690614d4a565b60008861198957600061198f565b84602001515b90506000600660006119a88e8e8c8c8c60200151611e10565b8152602001908152602001600020905060006119d38d8389600001518a602001518b60400151612202565b60608801519091506119eb908263ffffffff61181116565b60608801528a15611a7b57606087015115611a185760405162461bcd60e51b81526004016103a690614e0a565b6000611a278860800151611652565b905060008e60800151905060008f60600151905082600014611a7357611a588b60200151866000015484848761241e565b60808a0151611a6d908463ffffffff61181116565b60808b01525b505050611a8b565b611a888c8e8a8a8a6124bd565b96505b60408051610180810182528354815260018401546020820152600284015491810191909152600383015460ff16151560608201526004830154608080830191909152600584015460a0830152600684015460c0830152600784015460e083015260088401546101008301526009840154610120830152600a8401546001600160a01b03908116610140840152600b85015416610160830152880151611b35918f918c908e88612540565b611b515760405162461bcd60e51b81526004016103a690614e7a565b60808701516005830154611b6a9163ffffffff61167616565b60058301558a15611b94576007820154611b8a904263ffffffff61181116565b60e0880152611bb5565b611bae6f4b3b4ca85a86c47a098a2240000000008a6117cf565b6101008801525b611bc28d838a8a8f61265b565b86602001518760800151945094505050509850989650505050505050565b6001600160a01b038116611c065760405162461bcd60e51b81526004016103a690614d5a565b6001546040516001600160a01b038084169216907f8be0079c531659141344cd1fd0a4f28419497f9722a3daafe3b4186f6b6457e090600090a3600180546001600160a01b0319166001600160a01b0392909216919091179055565b600061169b83836040518060400160405280601a81526020017f536166654d6174683a206469766973696f6e206279207a65726f00000000000081525061292e565b6000611cb08383612978565b611ce4575060018083018054808301808355600092835260208084209092018590558483529085905260409091205561164c565b50600061164c565b6000611cf88383612978565b15611ce45760008281526020849052604090205460018401546000199182019101808214611d70576000856001018281548110611d3157fe5b9060005260206000200154905080866001018481548110611d4e57fe5b6000918252602080832090910192909255918252869052604090206001830190555b60008481526020869052604081205560018501805480611d8c57fe5b6001900381819060005260206000200160009055905560019250505061164c565b60008183611dce5760405162461bcd60e51b81526004016103a69190614d09565b506000838581611dda57fe5b0495945050505050565b60008184841115611e085760405162461bcd60e51b81526004016103a69190614d09565b505050900390565b60008560200151611e335760405162461bcd60e51b81526004016103a690614eca565b825160208401516060850151611e47613ae2565b88611f9e576001600160a01b0383166000908152602a60209081526040918290208054600101908190558c519251611e86939288928892909101614980565b60408051601f1981840301815291815281516020928301206000818152600690935291205490995015611ecb5760405162461bcd60e51b81526004016103a690614dfa565b5060408051610180810182528981528a5160208201526000918101829052600160608201526080810187905260a081018290524260c082015260e0810182905261010081018990526101208101919091526001600160a01b038084166101408301528416610160820152611f46600f8a63ffffffff611ca416565b506001600160a01b0384166000908152601160205260409020611f6f908a63ffffffff611ca416565b506001600160a01b0383166000908152601260205260409020611f98908a63ffffffff611ca416565b5061211f565b5060008881526006602081815260409283902083516101808101855281548152600182015492810192909252600281015493820193909352600383015460ff161580156060830181905260048501546080840152600585015460a08401529284015460c0830152600784015460e083015260088401546101008301526009840154610120830152600a8401546001600160a01b03908116610140840152600b909401549093166101608201529161205857508060e0015142105b6120745760405162461bcd60e51b81526004016103a690614e1a565b826001600160a01b03168161014001516001600160a01b0316146120aa5760405162461bcd60e51b81526004016103a690614d7a565b836001600160a01b03168161016001516001600160a01b0316146120e05760405162461bcd60e51b81526004016103a690614dda565b89516020820151146121045760405162461bcd60e51b81526004016103a690614d1a565b6080810151612119908763ffffffff61167616565b60808201525b6001600160a01b0382161561213b5761213b89848460016116a2565b60008981526006602081815260409283902084518155908401516001820155918301516002830155606083015160038301805460ff19169115159190911790556080830151600483015560a0830151600583015560c08301519082015560e0820151600782015561010082015160088201556101208201516009820155610140820151600a820180546001600160a01b03199081166001600160a01b039384161790915561016090930151600b909201805490931691161790555095979650505050505050565b600b8401546060860151600091612224916001600160a01b039091169061298d565b84546000818152600c60209081526040808320600b808b01546001600160a01b03908116865290845282852060608d0180518316875294529190932060e08b0151925160808c0151600a8c0154959692956122859488949392911642612a6b565b6000811580156122985750600789015415155b156122c6576122c3620151806110518660000154611451428e6007015461181190919063ffffffff16565b90505b60006122e66907baab4146b63dd000006110518a8c63ffffffff61179516565b85549091506122fb908263ffffffff61167616565b85556001840154612312908263ffffffff61167616565b60018501558261238157845461233f90429061161090611051620151806114518d8963ffffffff61167616565b60078b01819055612356904263ffffffff61181116565b9250610e1083116123795760405162461bcd60e51b81526004016103a690614d9a565b8695506123c5565b60078a01546123a05761239a428463ffffffff61167616565b60078b01555b6123c26201518061105183611451428f6007015461181190919063ffffffff16565b95505b60018501546123da908763ffffffff61167616565b600186015583546123f1908963ffffffff61167616565b84556002840154612408908763ffffffff61167616565b8460020181905550505050505095945050505050565b80156124b6576001600160a01b0383166000908152601c602052604090205461244d908263ffffffff61167616565b6001600160a01b038085166000818152601c6020526040908190209390935591518692918816907ffb6c38ae4fdd498b3a5003f02ca4ca5340dfedb36b1b100c679eb60633b2c0a7906124a1908690614f58565b60405180910390a46124b68585858585612ab9565b5050505050565b6124c5613b46565b60006124ea87876060015188608001518860200151886060015160008060008b612f1f565b60c0870152506080850151909150612508908263ffffffff61167616565b608085015260a084015160c085015110156125355760405162461bcd60e51b81526004016103a690614d6a565b509195945050505050565b600061256868056bc75e2d631000006110518568055005f0c61448000063ffffffff61179516565b92508284101561264e5760a0860151156126465760025460608801516080808a0151908901516000936001600160a01b03169263f80b25fb9290916125b3908863ffffffff61181116565b8b60a001518b6040518663ffffffff1660e01b81526004016125d9959493929190614a82565b60206040518083038186803b1580156125f157600080fd5b505afa158015612605573d6000803e3d6000fd5b505050506040513d601f19601f82011682018060405250612629919081019061410c565b90508361263c868363ffffffff61167616565b10159150506110f0565b5060006110f0565b5060019695505050505050565b6002546060860151608087015160048088015460058901546040516317f8680960e11b815260009687966001600160a01b0390911695632ff0d012956126a5959294919301614a5a565b604080518083038186803b1580156126bc57600080fd5b505afa1580156126d0573d6000803e3d6000fd5b505050506040513d601f19601f820116820180604052506126f4919081019061412a565b915091508660c00151821161271b5760405162461bcd60e51b81526004016103a690614e8a565b4286600601541415612881576002546060880151608089015160405163524efd4b60e01b81526000936001600160a01b03169263524efd4b92612760926004016149e2565b60206040518083038186803b15801561277857600080fd5b505afa15801561278c573d6000803e3d6000fd5b505050506040513d601f19601f820116820180604052506127b0919081019061410c565b60025460808a015160608b015160405163524efd4b60e01b81529394506000936001600160a01b039093169263524efd4b926127f09290916004016149e2565b60206040518083038186803b15801561280857600080fd5b505afa15801561281c573d6000803e3d6000fd5b505050506040513d601f19601f82011682018060405250612840919081019061410c565b90506000612854838363ffffffff61179516565b9050856128765760c087015161287190829063ffffffff6117cf16565b612878565b835b60098a01555050505b60408051610180810182528754815260018801546020820152600288015491810191909152600387015460ff161515606082015260048701546080820152600587015460a0820152600687015460c0820152600787015460e082015260088701546101008201526009870154610120820152600a8701546001600160a01b03908116610140830152600b88015416610160820152612925908890878785878961307d565b50505050505050565b6000818361294f5760405162461bcd60e51b81526004016103a69190614d09565b508361295d5750600061169b565b600083600186038161296b57fe5b0460010195945050505050565b60009081526020919091526040902054151590565b6001600160a01b038083166000908152600b6020908152604080832093851683529290529081206001810154909190158015906129cd5750600482015415155b15612a5e576129f862015180611051846001015461145186600401544261181190919063ffffffff16565b4260048401556002830154909150811115612a14575060028101545b8015612a59576003820154612a2f908263ffffffff61167616565b60038301556002820154612a49908263ffffffff61181116565b6002830155612a598484836131b4565b612a65565b4260048301555b50505050565b6000612aa16a07259756a8d619980000006110516015546114518b600001546114518d600201548961181190919063ffffffff16565b60028801839055905080156129255761292583878787855b602f546002546001600160a01b038581166000908152603c602090815260408083208885168452909152812054909392919091169015612b1c576001600160a01b038087166000908152603c602090815260408083209389168352929052205491505b6037546000906060906001600160a01b038085169163d138f9a160e01b918b9116612b5a68056bc75e2d631000006110518c8b63ffffffff61179516565b604051602401612b6c93929190614a32565b60408051601f198184030181529181526020820180516001600160e01b03166001600160e01b0319909416939093179092529051612baa91906149c8565b600060405180830381855afa9150503d8060008114612be5576040519150601f19603f3d011682016040523d82523d6000602084013e612bea565b606091505b50915091506001821415612c0057602081015194505b6000306001600160a01b031663c22552f76040518163ffffffff1660e01b815260040160206040518083038186803b158015612c3b57600080fd5b505afa158015612c4f573d6000803e3d6000fd5b505050506040513d601f19601f82011682018060405250612c73919081019061410c565b90508515801590612c845750858110155b15612eac5760375460385460405163095ea7b360e01b81526001600160a01b039283169263095ea7b392612cbf929116908a90600401614bc1565b602060405180830381600087803b158015612cd957600080fd5b505af1158015612ced573d6000803e3d6000fd5b505050506040513d601f19601f82011682018060405250612d119190810190613f4e565b50603854603f546040516000926001600160a01b031691612d38918f918b91602401614bdc565b60408051601f198184030181529181526020820180516001600160e01b0316630efe6a8b60e01b17905251612d6d91906149c8565b6000604051808303816000865af19150503d8060008114612daa576040519150601f19603f3d011682016040523d82523d6000602084013e612daf565b606091505b505090508015612e3e57601f54612dcc908863ffffffff61167616565b601f819055508a603760009054906101000a90046001600160a01b03166001600160a01b03168d6001600160a01b03167ff41c644671512f1cda76abfe6038e3d7d526c1377a5a8c692f81703901db2150898b603f54604051612e3193929190614f74565b60405180910390a4612ea6565b8a603760009054906101000a90046001600160a01b03166001600160a01b03168d6001600160a01b03167f483f67ea49f76ac15e15bbad68b52788ca47d50aef1e4acfe95e5e307e710812898b603f54604051612e9d93929190614f74565b60405180910390a45b50612f12565b8515801590612eba57508581105b15612f1257603754603f546040518c926001600160a01b0390811692908f16917f483f67ea49f76ac15e15bbad68b52788ca47d50aef1e4acfe95e5e307e71081291612f09918b918d91614f74565b60405180910390a45b5050505050505050505050565b6040805160a0810182526001600160a01b03808b16825289811660208084019190915230838501819052606080850191909152918a16608084015283519182018452888252810187905291820185905260009182918291612f8491908e888886613259565b9093509150612f938b8361347e565b600254602754604051631e2c62d360e01b81526001600160a01b0390921691631e2c62d391612fcc918f918f9188918a91600401614a82565b60206040518083038186803b158015612fe457600080fd5b505afa158015612ff8573d6000803e3d6000fd5b505050506040513d601f19601f8201168201806040525061301c919081019061410c565b9050896001600160a01b03168b6001600160a01b03168d7fb4eb3c9b62efcce7021cba5fd9cd0c44df91c2272806ccc5e57df7c912e8d7168c868860405161306693929190614bdc565b60405180910390a499509950999650505050505050565b801561310657856000015185600001516001600160a01b031686602001516001600160a01b03167f7bd8cbb7ba34b33004f3deda0fd36c92fc0360acbd97843360037b467a538f908a606001518b6080015189602001518a608001518b600001518c60e001518c8c6040516130f9989796959493929190614ac4565b60405180910390a4612925565b6131206f4b3b4ca85a86c47a098a224000000000836117cf565b9150856000015185600001516001600160a01b031686602001516001600160a01b03167ff640c1cfe1a912a0b0152b5a542e5c2403142eed75b06cde526cee54b1580e5c8a608001518b6060015189608001518a602001518b600001518e60e001518d60c001518e61010001518d6040516131a399989796959493929190614b3b565b60405180910390a450505050505050565b60006131d868056bc75e2d631000006110516015548561179590919063ffffffff16565b90506131e584848361354c565b6131ff83856131fa858563ffffffff61181116565b6135da565b6001600160a01b038085169084167f220e66e3e759e1382aa86cd8af5abca05ebf3ad564f223ae62d977678337272a61323e858563ffffffff61181116565b60405161324b9190614f58565b60405180910390a350505050565b845160009081901515806132705750602087015115155b61328c5760405162461bcd60e51b81526004016103a690614eba565b602087015161329d57865160208801525b6020870151875111156132c25760405162461bcd60e51b81526004016103a690614dea565b60008060008761337f5760408a015161333e5785156132f3576132ec8a60005b602002015161363d565b9050613307565b6133048a60005b602002015161161c565b90505b80156133395760808b01518b5161332a91908b908e60015b602002015185613661565b89516133369082611811565b8a525b61337f565b85156133565761334f8a60026132e2565b9050613364565b6133618a60026132fa565b90505b801561337f5760408a01516133799082611676565b60408b01525b86511561339e5760405162461bcd60e51b81526004016103a690614eea565b6133a88b8b6137b1565b60408c015191945092506133f457895182146133d65760405162461bcd60e51b81526004016103a690614f1a565b80156133ef576133ec828263ffffffff61167616565b91505b61346e565b60208a01518211156134185760405162461bcd60e51b81526004016103a690614dca565b60408a015183101561343c5760405162461bcd60e51b81526004016103a690614d3a565b801561346e5760808b015160208c015161345b91908b908e600061331f565b61346b838263ffffffff61181116565b92505b5090999098509650505050505050565b6029548015610bdf57602d546000906001600160a01b03858116911614156134a757508161352c565b600254604051635967aa7560e11b81526001600160a01b039091169063b2cf54ea906134d99087908790600401614bc1565b60206040518083038186803b1580156134f157600080fd5b505afa158015613505573d6000803e3d6000fd5b505050506040513d601f19601f82011682018060405250613529919081019061410c565b90505b81811115612a655760405162461bcd60e51b81526004016103a690614e2a565b8015610bdf576001600160a01b03821660009081526016602052604090205461357b908263ffffffff61167616565b6001600160a01b0380841660008181526016602052604090819020939093559151908516907f40a75ae5f7a5336e75f7c7977e12c4b46a9ac0f30de01a2d5b6c1a4f4af63587906135cd908590614f58565b60405180910390a3505050565b8015610bdf576135fa6001600160a01b038416838363ffffffff61389b16565b816001600160a01b0316836001600160a01b03167fc44aeefa68e8b9c1ad5f7be4b0dd194580f81f5c362862e72196503a320eb7a1836040516135cd9190614f58565b600061164c68056bc75e2d63100000611640603e548561179590919063ffffffff16565b8080156137a9576001600160a01b038681166000908152603360205260409020541615613717576001600160a01b038087166000908152603360205260409020546136af91168786846138f4565b50506137146136d668056bc75e2d631000006110516039548561179590919063ffffffff16565b6137086136fb68056bc75e2d631000006110516020548761179590919063ffffffff16565b849063ffffffff61181116565b9063ffffffff61181116565b90505b6001600160a01b038416600090815260196020526040902054613740908263ffffffff61167616565b6001600160a01b03808616600081815260196020526040908190209390935591518792918916907fb23479169712c443e6b00fb0cec3506a5f5926f541df4243d313e11c8c5c71ed90613794908690614f58565b60405180910390a46137a98686868686612ab9565b505050505050565b6000806137bc613b92565b84516001600160a01b039081168252602080870151821683820152604080880151831681850152606080890151909316928401929092528551608084015285015160a08301528481015160c0830152516335aaa79d60e01b81527398399051DC17bAFb621269A12a63d70b2D615C69906335aaa79d90613840908490600401614f4a565b604080518083038186803b15801561385757600080fd5b505af415801561386b573d6000803e3d6000fd5b505050506040513d601f19601f8201168201806040525061388f919081019061412a565b90969095509350505050565b604051610bdf90849063a9059cbb60e01b906138bd9086908690602401614bc1565b60408051601f198184030181529190526020810180516001600160e01b03166001600160e01b031990931692909217909152613980565b6040516306a688ff60e11b815260009081903090630d4d11fe906139229089908990899089906004016149fd565b6040805180830381600087803b15801561393b57600080fd5b505af115801561394f573d6000803e3d6000fd5b505050506040513d601f19601f82011682018060405250613973919081019061412a565b9097909650945050505050565b613992826001600160a01b0316613a65565b6139ae5760405162461bcd60e51b81526004016103a690614f3a565b60006060836001600160a01b0316836040516139ca91906149c8565b6000604051808303816000865af19150503d8060008114613a07576040519150601f19603f3d011682016040523d82523d6000602084013e613a0c565b606091505b509150915081613a2e5760405162461bcd60e51b81526004016103a690614dba565b805115612a655780806020019051613a499190810190613f4e565b612a655760405162461bcd60e51b81526004016103a690614efa565b6000813f7fc5d2460186f7233c927e7db2dcc703c0e500b653ca82273b7bfad8045d85a4708181148015906118e1575050151592915050565b6040805161010081018252600080825260208201819052918101829052606081018290526080810182905260a0810182905260c0810182905260e081019190915290565b6040805161018081018252600080825260208201819052918101829052606081018290526080810182905260a0810182905260c0810182905260e0810182905261010081018290526101208101829052610140810182905261016081019190915290565b6040518061012001604052806000815260200160008152602001600081526020016000815260200160008152602001600081526020016000815260200160008152602001600081525090565b6040805160e081018252600080825260208201819052918101829052606081018290526080810182905260a0810182905260c081019190915290565b803561164c816150b4565b803561164c816150c8565b805161164c816150c8565b803561164c816150d1565b803561164c816150da565b60008083601f840112613c1757600080fd5b50813567ffffffffffffffff811115613c2f57600080fd5b602083019150836001820283011115613c4757600080fd5b9250929050565b600060808284031215613c6057600080fd5b50919050565b600060808284031215613c7857600080fd5b613c826080614ff7565b90506000613c908484613bce565b8252506020613ca184848301613bce565b6020830152506040613cb584828501613bce565b6040830152506060613cc984828501613bce565b60608301525092915050565b60006101208284031215613c6057600080fd5b60006101208284031215613cfb57600080fd5b613d06610120614ff7565b90506000613d148484613bef565b8252506020613d2584848301613bef565b6020830152506040613d3984828501613bef565b6040830152506060613d4d84828501613bef565b6060830152506080613d6184828501613bef565b60808301525060a0613d7584828501613bef565b60a08301525060c0613d8984828501613bef565b60c08301525060e0613d9d84828501613bef565b60e083015250610100613db284828501613bef565b6101008301525092915050565b805161164c816150d1565b600060208284031215613ddc57600080fd5b60006118e18484613bce565b60008060408385031215613dfb57600080fd5b6000613e078585613bce565b9250506020613e1885828601613bce565b9150509250929050565b600080600080600060a08688031215613e3a57600080fd5b6000613e468888613bce565b9550506020613e5788828901613bce565b9450506040613e6888828901613bef565b9350506060613e7988828901613bef565b9250506080613e8a88828901613bd9565b9150509295509295909350565b60008060008060008060c08789031215613eb057600080fd5b6000613ebc8989613bce565b9650506020613ecd89828a01613bce565b9550506040613ede89828a01613bef565b9450506060613eef89828a01613bef565b9350506080613f0089828a01613bef565b92505060a0613f1189828a01613bef565b9150509295509295509295565b60008060408385031215613f3157600080fd5b6000613f3d8585613bce565b9250506020613e1885828601613bef565b600060208284031215613f6057600080fd5b60006118e18484613be4565b600060208284031215613f7e57600080fd5b60006118e18484613bef565b60008060408385031215613f9d57600080fd5b6000613e078585613bef565b600080600060608486031215613fbe57600080fd5b6000613fca8686613bef565b9350506020613fdb86828701613bce565b9250506040613fec86828701613bd9565b9150509250925092565b600080600080600080600080610240898b03121561401357600080fd5b600061401f8b8b613bef565b98505060206140308b828c01613bef565b97505060406140418b828c01613bd9565b96505060606140528b828c01613bef565b95505060806140638b828c01613c4e565b9450506101006140758b828c01613cd5565b93505061022089013567ffffffffffffffff81111561409357600080fd5b61409f8b828c01613c05565b92509250509295985092959890939650565b6000602082840312156140c357600080fd5b60006118e18484613bfa565b6000608082840312156140e157600080fd5b60006118e18484613c66565b6000610120828403121561410057600080fd5b60006118e18484613ce8565b60006020828403121561411e57600080fd5b60006118e18484613dbf565b6000806040838503121561413d57600080fd5b60006141498585613dbf565b9250506020613e1885828601613dbf565b61416381615030565b82525050565b61416361417582615030565b615093565b6141638161503b565b61416381615040565b61416361419882615040565b615040565b60006141a88261501e565b6141b28185615022565b93506141c2818560208601615067565b9290920192915050565b6141638161505c565b60006141e08261501e565b6141ea8185615027565b93506141fa818560208601615067565b614203816150a4565b9093019392505050565b600061421a601383615027565b720d8dec2dca0c2e4c2dae640dad2e6dac2e8c6d606b1b815260200192915050565b6000614249600683615027565b6514185d5cd95960d21b815260200192915050565b600061426b601b83615027565b7f696e73756666696369656e742073776170206c69717569646974790000000000815260200192915050565b60006142a4601083615027565b6f1a5b9d985b1a59081a5b9d195c995cdd60821b815260200192915050565b60006142d0602683615027565b7f4f776e61626c653a206e6577206f776e657220697320746865207a65726f206181526564647265737360d01b602082015260400192915050565b6000614318601d83615027565b7f656e7472792070726963652061626f766520746865206d696e696d756d000000815260200192915050565b6000614351601183615027565b700c4dee4e4deeecae440dad2e6dac2e8c6d607b1b815260200192915050565b600061437e601b83615027565b7f536166654d6174683a206164646974696f6e206f766572666c6f770000000000815260200192915050565b60006143b7600e83615027565b6d1b1bd85b881d1bdbc81cda1bdc9d60921b815260200192915050565b60006143e1601583615027565b740c6ded8d8c2e8cae4c2d85ed8dec2dc40dac2e8c6d605b1b815260200192915050565b6000614412602083615027565b7f5361666545524332303a206c6f772d6c6576656c2063616c6c206661696c6564815260200192915050565b600061444b601383615027565b72737761702066696c6c20746f6f206c6172676560681b815260200192915050565b600061447a600f83615027565b6e0d8cadcc8cae440dad2e6dac2e8c6d608b1b815260200192915050565b60006144a5601c83615027565b7f736f75726365416d6f756e74206c6172676572207468616e206d617800000000815260200192915050565b60006144de600b83615027565b6a6c6f616e2065786973747360a81b815260200192915050565b6000614505601283615027565b7139bab938363ab9903637b0b7103a37b5b2b760711b815260200192915050565b6000614533600e83615027565b6d1b1bd85b881a185cc8195b99195960921b815260200192915050565b600061455d600e83615027565b6d7377617020746f6f206c6172676560901b815260200192915050565b6000614587600f83615027565b6e0636f6c6c61746572616c206973203608c1b815260200192915050565b60006145b2600e83615027565b6d1b9bdd08185d5d1a1bdc9a5e995960921b815260200192915050565b60006145dc602183615027565b7f536166654d6174683a206d756c7469706c69636174696f6e206f766572666c6f8152607760f81b602082015260400192915050565b600061461f600c83615027565b6b1d5b985d5d1a1bdc9a5e995960a21b815260200192915050565b6000614647601783615027565b7f636f6c6c61746572616c20696e73756666696369656e74000000000000000000815260200192915050565b6000614680601283615027565b713ab73432b0b63a343c903837b9b4ba34b7b760711b815260200192915050565b60006146ae601583615027565b746c6f616e506172616d73206e6f742065786973747360581b815260200192915050565b60006146df601483615027565b7319985b1b189858dac81b9bdd08185b1b1bddd95960621b815260200192915050565b600061470f602e83615027565b7f6d696e206f72206d617820736f7572636520746f6b656e20616d6f756e74206e81526d1959591cc81d1bc81899481cd95d60921b602082015260400192915050565b600061475f601383615027565b721b1bd85b94185c985b5cc8191a5cd8589b1959606a1b815260200192915050565b600061478e600c83615027565b6b1b9bdb9499595b9d1c985b9d60a21b815260200192915050565b60006147b6600d83615027565b6c696e76616c696420737461746560981b815260200192915050565b60006147df602a83615027565b7f5361666545524332303a204552433230206f7065726174696f6e20646964206e8152691bdd081cdd58d8d9595960b21b602082015260400192915050565b600061482b602183615027565b7f6c6f616e446174614279746573207265717569726564207769746820657468658152603960f91b602082015260400192915050565b600061486e601683615027565b751cddd85c081d1bdbc81b185c99d9481d1bc8199a5b1b60521b815260200192915050565b60006148a0601583615027565b74696e697469616c4d617267696e20746f6f206c6f7760581b815260200192915050565b60006148d1601f83615027565b7f5361666545524332303a2063616c6c20746f206e6f6e2d636f6e747261637400815260200192915050565b805160e083019061490e848261415a565b506020820151614921602085018261415a565b506040820151614934604085018261415a565b506060820151614947606085018261415a565b50608082015161495a6080850182614183565b5060a082015161496d60a0850182614183565b5060c0820151612a6560c0850182614183565b600061498c828761418c565b60208201915061499c8286614169565b6014820191506149ac8285614169565b6014820191506149bc828461418c565b50602001949350505050565b600061169b828461419d565b6020810161164c828461415a565b604081016149f0828561415a565b61169b602083018461415a565b60808101614a0b828761415a565b614a18602083018661415a565b614a25604083018561415a565b610b626060830184614183565b60608101614a40828661415a565b614a4d602083018561415a565b6118e16040830184614183565b60808101614a68828761415a565b614a75602083018661415a565b614a256040830185614183565b60a08101614a90828861415a565b614a9d602083018761415a565b614aaa6040830186614183565b614ab76060830185614183565b6110f06080830184614183565b6101008101614ad3828b61415a565b614ae0602083018a61415a565b614aed6040830189614183565b614afa6060830188614183565b614b076080830187614183565b614b1460a0830186614183565b614b2160c0830185614183565b614b2e60e0830184614183565b9998505050505050505050565b6101208101614b4a828c61415a565b614b57602083018b61415a565b614b64604083018a614183565b614b716060830189614183565b614b7e6080830188614183565b614b8b60a0830187614183565b614b9860c0830186614183565b614ba560e0830185614183565b614bb3610100830184614183565b9a9950505050505050505050565b60408101614bcf828561415a565b61169b6020830184614183565b60608101614bea828661415a565b614a4d6020830185614183565b6020810161164c828461417a565b6101008101614c14828b614183565b614c21602083018a61417a565b614c2e604083018961415a565b614c3b606083018861415a565b614b07608083018761415a565b6101808101614c57828f614183565b614c64602083018e614183565b614c71604083018d614183565b614c7e606083018c61417a565b614c8b608083018b614183565b614c9860a083018a614183565b614ca560c0830189614183565b614cb260e0830188614183565b614cc0610100830187614183565b614cce610120830186614183565b614cdc61014083018561415a565b614cea61016083018461415a565b9d9c50505050505050505050505050565b6020810161164c82846141cc565b6020808252810161169b81846141d5565b6020808252810161164c8161420d565b6020808252810161164c8161423c565b6020808252810161164c8161425e565b6020808252810161164c81614297565b6020808252810161164c816142c3565b6020808252810161164c8161430b565b6020808252810161164c81614344565b6020808252810161164c81614371565b6020808252810161164c816143aa565b6020808252810161164c816143d4565b6020808252810161164c81614405565b6020808252810161164c8161443e565b6020808252810161164c8161446d565b6020808252810161164c81614498565b6020808252810161164c816144d1565b6020808252810161164c816144f8565b6020808252810161164c81614526565b6020808252810161164c81614550565b6020808252810161164c8161457a565b6020808252810161164c816145a5565b6020808252810161164c816145cf565b6020808252810161164c81614612565b6020808252810161164c8161463a565b6020808252810161164c81614673565b6020808252810161164c816146a1565b6020808252810161164c816146d2565b6020808252810161164c81614702565b6020808252810161164c81614752565b6020808252810161164c81614781565b6020808252810161164c816147a9565b6020808252810161164c816147d2565b6020808252810161164c8161481e565b6020808252810161164c81614861565b6020808252810161164c81614893565b6020808252810161164c816148c4565b60e0810161164c82846148fd565b6020810161164c8284614183565b60408101614bcf8285614183565b60608101614bea8286614183565b60a08101614f908288614183565b614a9d6020830187614183565b60c08101614fab8289614183565b614fb86020830188614183565b614fc56040830187614183565b614fd26060830186614183565b614fdf6080830185614183565b614fec60a0830184614183565b979650505050505050565b60405181810167ffffffffffffffff8111828210171561501657600080fd5b604052919050565b5190565b919050565b90815260200190565b600061164c82615050565b151590565b90565b6001600160e01b03191690565b6001600160a01b031690565b600061164c82615030565b60005b8381101561508257818101518382015260200161506a565b83811115612a655750506000910152565b600061164c82600061164c826150ae565b601f01601f191690565b60601b90565b6150bd81615030565b81146114b657600080fd5b6150bd8161503b565b6150bd81615040565b6150bd8161504356fea365627a7a7231582006262a07965035f357589c6bb924f7de44a817506b83c56eb712cec5934fdd626c6578706572696d656e74616cf564736f6c63430005110040",
  "deployedBytecode": "0x6080604052600436106103815760003560e01c80638f32d59b116101d1578063cd5d808d11610102578063e8f62764116100a0578063f589a3e71161006f578063f589a3e714610a05578063f6ddc8b314610a1a578063f706b1f214610a2f578063f851a44014610a4457610381565b8063e8f62764146109a6578063edab119f146109bb578063f0e085f5146109d0578063f2fde38b146109e557610381565b8063d485045e116100dc578063d485045e14610925578063d67f707714610945578063d84ca25414610965578063e762319f1461098657610381565b8063cd5d808d146108db578063d288208c146108fb578063d473c2da1461091057610381565b8063b7e152411161016f578063bdee453c11610149578063bdee453c1461082f578063c4a908151461084f578063c4d66de814610887578063cb6eacd1146108a757610381565b8063b7e15241146107e5578063b9cffa3e14610805578063ba4861e91461081a57610381565b8063acc04348116101ab578063acc0434814610779578063ae0a85301461078e578063afe84009146107a3578063b30643d9146107c557610381565b80638f32d59b1461072f57806392d894f814610744578063959083d31461076457610381565b80634203e395116102b65780636e663730116102545780637a8faeb8116102235780637a8faeb8146106d05780638456cb59146106e55780638da5cb5b146106fa5780638dc48ba51461070f57610381565b80636e663730146106715780637420ca3e14610691578063742e6798146106a657806378d849ed146106bb57610381565b8063569fc1fb11610290578063569fc1fb146105dc578063574442cc1461060b57806362fff3f61461062057806368c4ac261461065157610381565b80634203e395146105925780634699f846146105b25780634f28cac2146105c757610381565b80632a324027116103235780633432423c116102fd5780633432423c146105125780633452d2d4146105325780633fca506e146105525780634115a2b61461057257610381565b80632a324027146104c65780632f470764146104db57806333d8991f146104f057610381565b80631b7bde741161035f5780631b7bde741461042c578063218b39c61461045957806324cc57491461047957806325decac0146104a657610381565b8063065d810f146103af5780630676c1b7146103ea57806317548b791461040c575b34801561038d57600080fd5b5060405162461bcd60e51b81526004016103a690614eaa565b60405180910390fd5b3480156103bb57600080fd5b506103cf6103ca366004613f1e565b610a59565b6040516103e196959493929190614f9d565b60405180910390f35b3480156103f657600080fd5b506103ff610a99565b6040516103e191906149d4565b34801561041857600080fd5b506103ff6104273660046140b1565b610aa8565b34801561043857600080fd5b5061044c610447366004613de8565b610ac3565b6040516103e19190614f58565b34801561046557600080fd5b506103ff610474366004613dca565b610ae0565b34801561048557600080fd5b50610499610494366004613dca565b610afb565b6040516103e19190614bf7565b3480156104b257600080fd5b5061044c6104c1366004613e22565b610b10565b3480156104d257600080fd5b5061044c610b6b565b3480156104e757600080fd5b5061044c610b71565b3480156104fc57600080fd5b5061051061050b366004613fa9565b610b77565b005b34801561051e57600080fd5b506103cf61052d366004613f1e565b610be4565b34801561053e57600080fd5b5061044c61054d366004613dca565b610c24565b34801561055e57600080fd5b5061044c61056d366004613dca565b610c36565b34801561057e57600080fd5b5061049961058d366004613f8a565b610c48565b34801561059e57600080fd5b5061044c6105ad366004613dca565b610c68565b3480156105be57600080fd5b5061044c610c7a565b3480156105d357600080fd5b5061044c610c80565b3480156105e857600080fd5b506105fc6105f7366004613f6c565b610c86565b6040516103e193929190614f74565b34801561061757600080fd5b5061044c610ca7565b34801561062c57600080fd5b5061064061063b366004613de8565b610cad565b6040516103e1959493929190614f82565b34801561065d57600080fd5b5061049961066c366004613dca565b610ce7565b34801561067d57600080fd5b506103ff61068c366004613dca565b610cfc565b34801561069d57600080fd5b506103ff610d17565b3480156106b257600080fd5b5061044c610d26565b3480156106c757600080fd5b506103ff610d2c565b3480156106dc57600080fd5b5061044c610d3b565b3480156106f157600080fd5b50610499610d41565b34801561070657600080fd5b506103ff610d4a565b34801561071b57600080fd5b506103ff61072a366004613dca565b610d59565b34801561073b57600080fd5b50610499610d74565b34801561075057600080fd5b5061044c61075f366004613dca565b610d9a565b34801561077057600080fd5b5061044c610dac565b34801561078557600080fd5b5061044c610db2565b34801561079a57600080fd5b5061044c610db8565b3480156107af57600080fd5b506107b8610dbe565b6040516103e19190614cfb565b3480156107d157600080fd5b5061044c6107e0366004613dca565b610dcd565b3480156107f157600080fd5b5061044c610800366004613dca565b610ddf565b34801561081157600080fd5b506103ff610df1565b34801561082657600080fd5b506103ff610e00565b34801561083b57600080fd5b5061044c61084a366004613dca565b610e0f565b34801561085b57600080fd5b5061086f61086a366004613f6c565b610e21565b6040516103e19c9b9a99989796959493929190614c48565b34801561089357600080fd5b506105106108a2366004613dca565b610e93565b3480156108b357600080fd5b506108c76108c2366004613f6c565b610f96565b6040516103e1989796959493929190614c05565b3480156108e757600080fd5b5061044c6108f6366004613de8565b610fe8565b34801561090757600080fd5b506103ff611005565b34801561091c57600080fd5b5061044c611014565b34801561093157600080fd5b5061044c610940366004613dca565b61101a565b34801561095157600080fd5b5061044c610960366004613e97565b61102c565b610978610973366004613ff6565b6110fa565b6040516103e1929190614f66565b34801561099257600080fd5b5061044c6109a1366004613e22565b6112fa565b3480156109b257600080fd5b506103ff61146e565b3480156109c757600080fd5b5061044c61147d565b3480156109dc57600080fd5b5061044c611483565b3480156109f157600080fd5b50610510610a00366004613dca565b611489565b348015610a1157600080fd5b5061044c6114b9565b348015610a2657600080fd5b5061044c6114bf565b348015610a3b57600080fd5b506103ff6114c5565b348015610a5057600080fd5b506103ff6114d4565b6009602090815260009283526040808420909152908252902080546001820154600283015460038401546004850154600590950154939492939192909186565b6031546001600160a01b031681565b6005602052600090815260409020546001600160a01b031681565b603b60209081526000928352604080842090915290825290205481565b6023602052600090815260409020546001600160a01b031681565b60326020526000908152604090205460ff1681565b60008215610b6257610b2586868686866114e3565b9050600082610b3c57610b378261161c565b610b45565b610b4582611652565b90508015610b6057610b5d828263ffffffff61167616565b91505b505b95945050505050565b60185481565b601f5481565b603d5460ff1615610b9a5760405162461bcd60e51b81526004016103a690614d2a565b6000838152600660205260409020600a01546001600160a01b03163314610bd35760405162461bcd60e51b81526004016103a690614e6a565b610bdf833384846116a2565b505050565b6008602090815260009283526040808420909152908252902080546001820154600283015460038401546004850154600590950154939492939192909186565b601a6020526000908152604090205481565b602a6020526000908152604090205481565b600a60209081526000928352604080842090915290825290205460ff1681565b60166020526000908152604090205481565b60155481565b60295481565b600c6020526000908152604090208054600182015460029092015490919083565b602b5481565b600b602090815260009283526040808420909152908252902080546001820154600283015460038401546004909401549293919290919085565b60266020526000908152604090205460ff1681565b6033602052600090815260409020546001600160a01b031681565b6003546001600160a01b031681565b60355481565b6002546001600160a01b031681565b601e5481565b603d5460ff1681565b6001546001600160a01b031690565b6022602052600090815260409020546001600160a01b031681565b6001546000906001600160a01b0316610d8b611717565b6001600160a01b031614905090565b60176020526000908152604090205481565b602c5481565b602f5481565b60205481565b602d546001600160a01b031681565b601d6020526000908152604090205481565b601c6020526000908152604090205481565b6037546001600160a01b031681565b6004546001600160a01b031681565b60366020526000908152604090205481565b600660208190526000918252604090912080546001820154600283015460038401546004850154600586015496860154600787015460088801546009890154600a8a0154600b909a0154989a9799969860ff909616979496949593949293919290916001600160a01b0391821691168c565b610e9b610d74565b610eb75760405162461bcd60e51b81526004016103a690614e6a565b633613289560e21b600081905260056020527fd3a886345208a8e3a0f774019653c4e69589e943ba1e46c7fa0ef875651e6e39546001600160a01b031690610eff908361171b565b610f106333d8991f60e01b8361171b565b610f2163d67f707760e01b8361171b565b610f3162977b2b60e61b8361171b565b610f4263e762319f60e01b8361171b565b6b4c6f616e4f70656e696e677360a01b826001600160a01b0316826001600160a01b03167f1420e3a2094d671bc2eb897941fa3d94ffa37f0cb6d530651946250a2151cb7f60405160405180910390a45050565b6007602052600090815260409020805460018201546002830154600384015460048501546005860154600690960154949560ff8516956101009095046001600160a01b03908116959481169493169288565b603c60209081526000928352604080842090915290825290205481565b6038546001600160a01b031681565b60275481565b60196020526000908152604090205481565b60006224ea008161105d6907baab4146b63dd00000611051868863ffffffff61179516565b9063ffffffff6117cf16565b9050600061107862015180611051858563ffffffff61179516565b9050600061108c898363ffffffff61181116565b905060006110998261161c565b905080156110b4576110b1828263ffffffff61181116565b91505b60006110c18d8d85611853565b9050806110d757600096505050505050506110f0565b6110e78a8263ffffffff61167616565b96505050505050505b9695505050505050565b60008060016000541461111f5760405162461bcd60e51b81526004016103a690614eda565b6002600055603d5460ff16156111475760405162461bcd60e51b81526004016103a690614d2a565b34158061115357508215155b61116f5760405162461bcd60e51b81526004016103a690614f0a565b336000908152602260205260409020546001600160a01b03166111a45760405162461bcd60e51b81526004016103a690614e4a565b6111ac613a9e565b5060008a815260076020908152604091829020825161010080820185528254808352600184015460ff811615159584019590955293046001600160a01b039081169482019490945260028201548416606082015260038201549093166080840152600481015460a0840152600581015460c08401526006015460e08301526112465760405162461bcd60e51b81526004016103a690614e9a565b60006112618260600151836080015189602001358c8e6114e3565b9050806112805760405162461bcd60e51b81526004016103a690614e3a565b6112e2828c8c848d611297368f90038f018f6140cf565b6112a6368f90038f018f6140ed565b8d8d8080601f0160208091040260200160405190810160405280939291908181526020018383808284376000920191909152506118e992505050565b6001600055909d909c509a5050505050505050505050565b60008215610b62578115611324576113218368056bc75e2d6310000063ffffffff61167616565b92505b8360008361133a576113358261161c565b611343565b61134382611652565b9050801561135e5761135b828263ffffffff61181116565b91505b866001600160a01b0316886001600160a01b0316141561139c57611395856110518468056bc75e2d6310000063ffffffff61179516565b9250611463565b600254604051630a7549df60e21b815260009182916001600160a01b03909116906329d5277c906113d3908c908e906004016149e2565b604080518083038186803b1580156113ea57600080fd5b505afa1580156113fe573d6000803e3d6000fd5b505050506040513d601f19601f82011682018060405250611422919081019061412a565b91509150806000146114605761145d816110518981866114518a68056bc75e2d6310000063ffffffff61179516565b9063ffffffff61179516565b94505b50505b505095945050505050565b6014546001600160a01b031681565b601b5481565b60285481565b611491610d74565b6114ad5760405162461bcd60e51b81526004016103a690614e6a565b6114b681611be0565b50565b60395481565b60215481565b602e546001600160a01b031681565b6030546001600160a01b031681565b6000846001600160a01b0316866001600160a01b031614156115235761151c68056bc75e2d63100000611051868663ffffffff61179516565b90506115de565b600254604051630a7549df60e21b815260009182916001600160a01b03909116906329d5277c9061155a908a908c906004016149e2565b604080518083038186803b15801561157157600080fd5b505afa158015611585573d6000803e3d6000fd5b505050506040513d601f19601f820116820180604052506115a9919081019061412a565b91509150816000146115db576115d868056bc75e2d631000006110518761145186838c8863ffffffff61179516565b92505b50505b8180156115ea57508015155b15610b62576110f081611610856110518368056bc75e2d6310000063ffffffff61179516565b9063ffffffff61167616565b600061164c68056bc75e2d631000006116406018548561179590919063ffffffff16565b9063ffffffff611c6216565b92915050565b600061164c68056bc75e2d63100000611640601b548561179590919063ffffffff16565b60008282018381101561169b5760405162461bcd60e51b81526004016103a690614d8a565b9392505050565b6000848152600a602090815260408083206001600160a01b038681168086529190935292819020805460ff1916851515179055519085169086907f0eef4f90457a741c97d76fcf13fa231fefdcc7649bdb3cb49157c37111c9843390611709908690614bf7565b60405180910390a450505050565b3390565b6001600160e01b03198216600090815260056020526040902080546001600160a01b0319166001600160a01b0383169081179091551561177657611770600d6001600160e01b0319841663ffffffff611ca416565b50611791565b610bdf600d6001600160e01b0319841663ffffffff611cec16565b5050565b6000826117a45750600061164c565b828202828482816117b157fe5b041461169b5760405162461bcd60e51b81526004016103a690614e5a565b600061169b83836040518060400160405280601a81526020017f536166654d6174683a206469766973696f6e206279207a65726f000000000000815250611dad565b600061169b83836040518060400160405280601e81526020017f536166654d6174683a207375627472616374696f6e206f766572666c6f770000815250611de4565b604051636dcd64e560e01b815260009073__$6b3065420287e4be5d93089ad806c078e3$__90636dcd64e59061189190879087908790600401614a32565b60206040518083038186803b1580156118a957600080fd5b505af41580156118bd573d6000803e3d6000fd5b505050506040513d601f19601f820116820180604052506118e1919081019061410c565b949350505050565b60008089606001516001600160a01b03168a608001516001600160a01b031614156119265760405162461bcd60e51b81526004016103a690614daa565b8960a0015186101561194a5760405162461bcd60e51b81526004016103a690614f2a565b60e08a015115158061195f5750604084015115155b61197b5760405162461bcd60e51b81526004016103a690614d4a565b60008861198957600061198f565b84602001515b90506000600660006119a88e8e8c8c8c60200151611e10565b8152602001908152602001600020905060006119d38d8389600001518a602001518b60400151612202565b60608801519091506119eb908263ffffffff61181116565b60608801528a15611a7b57606087015115611a185760405162461bcd60e51b81526004016103a690614e0a565b6000611a278860800151611652565b905060008e60800151905060008f60600151905082600014611a7357611a588b60200151866000015484848761241e565b60808a0151611a6d908463ffffffff61181116565b60808b01525b505050611a8b565b611a888c8e8a8a8a6124bd565b96505b60408051610180810182528354815260018401546020820152600284015491810191909152600383015460ff16151560608201526004830154608080830191909152600584015460a0830152600684015460c0830152600784015460e083015260088401546101008301526009840154610120830152600a8401546001600160a01b03908116610140840152600b85015416610160830152880151611b35918f918c908e88612540565b611b515760405162461bcd60e51b81526004016103a690614e7a565b60808701516005830154611b6a9163ffffffff61167616565b60058301558a15611b94576007820154611b8a904263ffffffff61181116565b60e0880152611bb5565b611bae6f4b3b4ca85a86c47a098a2240000000008a6117cf565b6101008801525b611bc28d838a8a8f61265b565b86602001518760800151945094505050509850989650505050505050565b6001600160a01b038116611c065760405162461bcd60e51b81526004016103a690614d5a565b6001546040516001600160a01b038084169216907f8be0079c531659141344cd1fd0a4f28419497f9722a3daafe3b4186f6b6457e090600090a3600180546001600160a01b0319166001600160a01b0392909216919091179055565b600061169b83836040518060400160405280601a81526020017f536166654d6174683a206469766973696f6e206279207a65726f00000000000081525061292e565b6000611cb08383612978565b611ce4575060018083018054808301808355600092835260208084209092018590558483529085905260409091205561164c565b50600061164c565b6000611cf88383612978565b15611ce45760008281526020849052604090205460018401546000199182019101808214611d70576000856001018281548110611d3157fe5b9060005260206000200154905080866001018481548110611d4e57fe5b6000918252602080832090910192909255918252869052604090206001830190555b60008481526020869052604081205560018501805480611d8c57fe5b6001900381819060005260206000200160009055905560019250505061164c565b60008183611dce5760405162461bcd60e51b81526004016103a69190614d09565b506000838581611dda57fe5b0495945050505050565b60008184841115611e085760405162461bcd60e51b81526004016103a69190614d09565b505050900390565b60008560200151611e335760405162461bcd60e51b81526004016103a690614eca565b825160208401516060850151611e47613ae2565b88611f9e576001600160a01b0383166000908152602a60209081526040918290208054600101908190558c519251611e86939288928892909101614980565b60408051601f1981840301815291815281516020928301206000818152600690935291205490995015611ecb5760405162461bcd60e51b81526004016103a690614dfa565b5060408051610180810182528981528a5160208201526000918101829052600160608201526080810187905260a081018290524260c082015260e0810182905261010081018990526101208101919091526001600160a01b038084166101408301528416610160820152611f46600f8a63ffffffff611ca416565b506001600160a01b0384166000908152601160205260409020611f6f908a63ffffffff611ca416565b506001600160a01b0383166000908152601260205260409020611f98908a63ffffffff611ca416565b5061211f565b5060008881526006602081815260409283902083516101808101855281548152600182015492810192909252600281015493820193909352600383015460ff161580156060830181905260048501546080840152600585015460a08401529284015460c0830152600784015460e083015260088401546101008301526009840154610120830152600a8401546001600160a01b03908116610140840152600b909401549093166101608201529161205857508060e0015142105b6120745760405162461bcd60e51b81526004016103a690614e1a565b826001600160a01b03168161014001516001600160a01b0316146120aa5760405162461bcd60e51b81526004016103a690614d7a565b836001600160a01b03168161016001516001600160a01b0316146120e05760405162461bcd60e51b81526004016103a690614dda565b89516020820151146121045760405162461bcd60e51b81526004016103a690614d1a565b6080810151612119908763ffffffff61167616565b60808201525b6001600160a01b0382161561213b5761213b89848460016116a2565b60008981526006602081815260409283902084518155908401516001820155918301516002830155606083015160038301805460ff19169115159190911790556080830151600483015560a0830151600583015560c08301519082015560e0820151600782015561010082015160088201556101208201516009820155610140820151600a820180546001600160a01b03199081166001600160a01b039384161790915561016090930151600b909201805490931691161790555095979650505050505050565b600b8401546060860151600091612224916001600160a01b039091169061298d565b84546000818152600c60209081526040808320600b808b01546001600160a01b03908116865290845282852060608d0180518316875294529190932060e08b0151925160808c0151600a8c0154959692956122859488949392911642612a6b565b6000811580156122985750600789015415155b156122c6576122c3620151806110518660000154611451428e6007015461181190919063ffffffff16565b90505b60006122e66907baab4146b63dd000006110518a8c63ffffffff61179516565b85549091506122fb908263ffffffff61167616565b85556001840154612312908263ffffffff61167616565b60018501558261238157845461233f90429061161090611051620151806114518d8963ffffffff61167616565b60078b01819055612356904263ffffffff61181116565b9250610e1083116123795760405162461bcd60e51b81526004016103a690614d9a565b8695506123c5565b60078a01546123a05761239a428463ffffffff61167616565b60078b01555b6123c26201518061105183611451428f6007015461181190919063ffffffff16565b95505b60018501546123da908763ffffffff61167616565b600186015583546123f1908963ffffffff61167616565b84556002840154612408908763ffffffff61167616565b8460020181905550505050505095945050505050565b80156124b6576001600160a01b0383166000908152601c602052604090205461244d908263ffffffff61167616565b6001600160a01b038085166000818152601c6020526040908190209390935591518692918816907ffb6c38ae4fdd498b3a5003f02ca4ca5340dfedb36b1b100c679eb60633b2c0a7906124a1908690614f58565b60405180910390a46124b68585858585612ab9565b5050505050565b6124c5613b46565b60006124ea87876060015188608001518860200151886060015160008060008b612f1f565b60c0870152506080850151909150612508908263ffffffff61167616565b608085015260a084015160c085015110156125355760405162461bcd60e51b81526004016103a690614d6a565b509195945050505050565b600061256868056bc75e2d631000006110518568055005f0c61448000063ffffffff61179516565b92508284101561264e5760a0860151156126465760025460608801516080808a0151908901516000936001600160a01b03169263f80b25fb9290916125b3908863ffffffff61181116565b8b60a001518b6040518663ffffffff1660e01b81526004016125d9959493929190614a82565b60206040518083038186803b1580156125f157600080fd5b505afa158015612605573d6000803e3d6000fd5b505050506040513d601f19601f82011682018060405250612629919081019061410c565b90508361263c868363ffffffff61167616565b10159150506110f0565b5060006110f0565b5060019695505050505050565b6002546060860151608087015160048088015460058901546040516317f8680960e11b815260009687966001600160a01b0390911695632ff0d012956126a5959294919301614a5a565b604080518083038186803b1580156126bc57600080fd5b505afa1580156126d0573d6000803e3d6000fd5b505050506040513d601f19601f820116820180604052506126f4919081019061412a565b915091508660c00151821161271b5760405162461bcd60e51b81526004016103a690614e8a565b4286600601541415612881576002546060880151608089015160405163524efd4b60e01b81526000936001600160a01b03169263524efd4b92612760926004016149e2565b60206040518083038186803b15801561277857600080fd5b505afa15801561278c573d6000803e3d6000fd5b505050506040513d601f19601f820116820180604052506127b0919081019061410c565b60025460808a015160608b015160405163524efd4b60e01b81529394506000936001600160a01b039093169263524efd4b926127f09290916004016149e2565b60206040518083038186803b15801561280857600080fd5b505afa15801561281c573d6000803e3d6000fd5b505050506040513d601f19601f82011682018060405250612840919081019061410c565b90506000612854838363ffffffff61179516565b9050856128765760c087015161287190829063ffffffff6117cf16565b612878565b835b60098a01555050505b60408051610180810182528754815260018801546020820152600288015491810191909152600387015460ff161515606082015260048701546080820152600587015460a0820152600687015460c0820152600787015460e082015260088701546101008201526009870154610120820152600a8701546001600160a01b03908116610140830152600b88015416610160820152612925908890878785878961307d565b50505050505050565b6000818361294f5760405162461bcd60e51b81526004016103a69190614d09565b508361295d5750600061169b565b600083600186038161296b57fe5b0460010195945050505050565b60009081526020919091526040902054151590565b6001600160a01b038083166000908152600b6020908152604080832093851683529290529081206001810154909190158015906129cd5750600482015415155b15612a5e576129f862015180611051846001015461145186600401544261181190919063ffffffff16565b4260048401556002830154909150811115612a14575060028101545b8015612a59576003820154612a2f908263ffffffff61167616565b60038301556002820154612a49908263ffffffff61181116565b6002830155612a598484836131b4565b612a65565b4260048301555b50505050565b6000612aa16a07259756a8d619980000006110516015546114518b600001546114518d600201548961181190919063ffffffff16565b60028801839055905080156129255761292583878787855b602f546002546001600160a01b038581166000908152603c602090815260408083208885168452909152812054909392919091169015612b1c576001600160a01b038087166000908152603c602090815260408083209389168352929052205491505b6037546000906060906001600160a01b038085169163d138f9a160e01b918b9116612b5a68056bc75e2d631000006110518c8b63ffffffff61179516565b604051602401612b6c93929190614a32565b60408051601f198184030181529181526020820180516001600160e01b03166001600160e01b0319909416939093179092529051612baa91906149c8565b600060405180830381855afa9150503d8060008114612be5576040519150601f19603f3d011682016040523d82523d6000602084013e612bea565b606091505b50915091506001821415612c0057602081015194505b6000306001600160a01b031663c22552f76040518163ffffffff1660e01b815260040160206040518083038186803b158015612c3b57600080fd5b505afa158015612c4f573d6000803e3d6000fd5b505050506040513d601f19601f82011682018060405250612c73919081019061410c565b90508515801590612c845750858110155b15612eac5760375460385460405163095ea7b360e01b81526001600160a01b039283169263095ea7b392612cbf929116908a90600401614bc1565b602060405180830381600087803b158015612cd957600080fd5b505af1158015612ced573d6000803e3d6000fd5b505050506040513d601f19601f82011682018060405250612d119190810190613f4e565b50603854603f546040516000926001600160a01b031691612d38918f918b91602401614bdc565b60408051601f198184030181529181526020820180516001600160e01b0316630efe6a8b60e01b17905251612d6d91906149c8565b6000604051808303816000865af19150503d8060008114612daa576040519150601f19603f3d011682016040523d82523d6000602084013e612daf565b606091505b505090508015612e3e57601f54612dcc908863ffffffff61167616565b601f819055508a603760009054906101000a90046001600160a01b03166001600160a01b03168d6001600160a01b03167ff41c644671512f1cda76abfe6038e3d7d526c1377a5a8c692f81703901db2150898b603f54604051612e3193929190614f74565b60405180910390a4612ea6565b8a603760009054906101000a90046001600160a01b03166001600160a01b03168d6001600160a01b03167f483f67ea49f76ac15e15bbad68b52788ca47d50aef1e4acfe95e5e307e710812898b603f54604051612e9d93929190614f74565b60405180910390a45b50612f12565b8515801590612eba57508581105b15612f1257603754603f546040518c926001600160a01b0390811692908f16917f483f67ea49f76ac15e15bbad68b52788ca47d50aef1e4acfe95e5e307e71081291612f09918b918d91614f74565b60405180910390a45b5050505050505050505050565b6040805160a0810182526001600160a01b03808b16825289811660208084019190915230838501819052606080850191909152918a16608084015283519182018452888252810187905291820185905260009182918291612f8491908e888886613259565b9093509150612f938b8361347e565b600254602754604051631e2c62d360e01b81526001600160a01b0390921691631e2c62d391612fcc918f918f9188918a91600401614a82565b60206040518083038186803b158015612fe457600080fd5b505afa158015612ff8573d6000803e3d6000fd5b505050506040513d601f19601f8201168201806040525061301c919081019061410c565b9050896001600160a01b03168b6001600160a01b03168d7fb4eb3c9b62efcce7021cba5fd9cd0c44df91c2272806ccc5e57df7c912e8d7168c868860405161306693929190614bdc565b60405180910390a499509950999650505050505050565b801561310657856000015185600001516001600160a01b031686602001516001600160a01b03167f7bd8cbb7ba34b33004f3deda0fd36c92fc0360acbd97843360037b467a538f908a606001518b6080015189602001518a608001518b600001518c60e001518c8c6040516130f9989796959493929190614ac4565b60405180910390a4612925565b6131206f4b3b4ca85a86c47a098a224000000000836117cf565b9150856000015185600001516001600160a01b031686602001516001600160a01b03167ff640c1cfe1a912a0b0152b5a542e5c2403142eed75b06cde526cee54b1580e5c8a608001518b6060015189608001518a602001518b600001518e60e001518d60c001518e61010001518d6040516131a399989796959493929190614b3b565b60405180910390a450505050505050565b60006131d868056bc75e2d631000006110516015548561179590919063ffffffff16565b90506131e584848361354c565b6131ff83856131fa858563ffffffff61181116565b6135da565b6001600160a01b038085169084167f220e66e3e759e1382aa86cd8af5abca05ebf3ad564f223ae62d977678337272a61323e858563ffffffff61181116565b60405161324b9190614f58565b60405180910390a350505050565b845160009081901515806132705750602087015115155b61328c5760405162461bcd60e51b81526004016103a690614eba565b602087015161329d57865160208801525b6020870151875111156132c25760405162461bcd60e51b81526004016103a690614dea565b60008060008761337f5760408a015161333e5785156132f3576132ec8a60005b602002015161363d565b9050613307565b6133048a60005b602002015161161c565b90505b80156133395760808b01518b5161332a91908b908e60015b602002015185613661565b89516133369082611811565b8a525b61337f565b85156133565761334f8a60026132e2565b9050613364565b6133618a60026132fa565b90505b801561337f5760408a01516133799082611676565b60408b01525b86511561339e5760405162461bcd60e51b81526004016103a690614eea565b6133a88b8b6137b1565b60408c015191945092506133f457895182146133d65760405162461bcd60e51b81526004016103a690614f1a565b80156133ef576133ec828263ffffffff61167616565b91505b61346e565b60208a01518211156134185760405162461bcd60e51b81526004016103a690614dca565b60408a015183101561343c5760405162461bcd60e51b81526004016103a690614d3a565b801561346e5760808b015160208c015161345b91908b908e600061331f565b61346b838263ffffffff61181116565b92505b5090999098509650505050505050565b6029548015610bdf57602d546000906001600160a01b03858116911614156134a757508161352c565b600254604051635967aa7560e11b81526001600160a01b039091169063b2cf54ea906134d99087908790600401614bc1565b60206040518083038186803b1580156134f157600080fd5b505afa158015613505573d6000803e3d6000fd5b505050506040513d601f19601f82011682018060405250613529919081019061410c565b90505b81811115612a655760405162461bcd60e51b81526004016103a690614e2a565b8015610bdf576001600160a01b03821660009081526016602052604090205461357b908263ffffffff61167616565b6001600160a01b0380841660008181526016602052604090819020939093559151908516907f40a75ae5f7a5336e75f7c7977e12c4b46a9ac0f30de01a2d5b6c1a4f4af63587906135cd908590614f58565b60405180910390a3505050565b8015610bdf576135fa6001600160a01b038416838363ffffffff61389b16565b816001600160a01b0316836001600160a01b03167fc44aeefa68e8b9c1ad5f7be4b0dd194580f81f5c362862e72196503a320eb7a1836040516135cd9190614f58565b600061164c68056bc75e2d63100000611640603e548561179590919063ffffffff16565b8080156137a9576001600160a01b038681166000908152603360205260409020541615613717576001600160a01b038087166000908152603360205260409020546136af91168786846138f4565b50506137146136d668056bc75e2d631000006110516039548561179590919063ffffffff16565b6137086136fb68056bc75e2d631000006110516020548761179590919063ffffffff16565b849063ffffffff61181116565b9063ffffffff61181116565b90505b6001600160a01b038416600090815260196020526040902054613740908263ffffffff61167616565b6001600160a01b03808616600081815260196020526040908190209390935591518792918916907fb23479169712c443e6b00fb0cec3506a5f5926f541df4243d313e11c8c5c71ed90613794908690614f58565b60405180910390a46137a98686868686612ab9565b505050505050565b6000806137bc613b92565b84516001600160a01b039081168252602080870151821683820152604080880151831681850152606080890151909316928401929092528551608084015285015160a08301528481015160c0830152516335aaa79d60e01b815273__$6b3065420287e4be5d93089ad806c078e3$__906335aaa79d90613840908490600401614f4a565b604080518083038186803b15801561385757600080fd5b505af415801561386b573d6000803e3d6000fd5b505050506040513d601f19601f8201168201806040525061388f919081019061412a565b90969095509350505050565b604051610bdf90849063a9059cbb60e01b906138bd9086908690602401614bc1565b60408051601f198184030181529190526020810180516001600160e01b03166001600160e01b031990931692909217909152613980565b6040516306a688ff60e11b815260009081903090630d4d11fe906139229089908990899089906004016149fd565b6040805180830381600087803b15801561393b57600080fd5b505af115801561394f573d6000803e3d6000fd5b505050506040513d601f19601f82011682018060405250613973919081019061412a565b9097909650945050505050565b613992826001600160a01b0316613a65565b6139ae5760405162461bcd60e51b81526004016103a690614f3a565b60006060836001600160a01b0316836040516139ca91906149c8565b6000604051808303816000865af19150503d8060008114613a07576040519150601f19603f3d011682016040523d82523d6000602084013e613a0c565b606091505b509150915081613a2e5760405162461bcd60e51b81526004016103a690614dba565b805115612a655780806020019051613a499190810190613f4e565b612a655760405162461bcd60e51b81526004016103a690614efa565b6000813f7fc5d2460186f7233c927e7db2dcc703c0e500b653ca82273b7bfad8045d85a4708181148015906118e1575050151592915050565b6040805161010081018252600080825260208201819052918101829052606081018290526080810182905260a0810182905260c0810182905260e081019190915290565b6040805161018081018252600080825260208201819052918101829052606081018290526080810182905260a0810182905260c0810182905260e0810182905261010081018290526101208101829052610140810182905261016081019190915290565b6040518061012001604052806000815260200160008152602001600081526020016000815260200160008152602001600081526020016000815260200160008152602001600081525090565b6040805160e081018252600080825260208201819052918101829052606081018290526080810182905260a0810182905260c081019190915290565b803561164c816150b4565b803561164c816150c8565b805161164c816150c8565b803561164c816150d1565b803561164c816150da565b60008083601f840112613c1757600080fd5b50813567ffffffffffffffff811115613c2f57600080fd5b602083019150836001820283011115613c4757600080fd5b9250929050565b600060808284031215613c6057600080fd5b50919050565b600060808284031215613c7857600080fd5b613c826080614ff7565b90506000613c908484613bce565b8252506020613ca184848301613bce565b6020830152506040613cb584828501613bce565b6040830152506060613cc984828501613bce565b60608301525092915050565b60006101208284031215613c6057600080fd5b60006101208284031215613cfb57600080fd5b613d06610120614ff7565b90506000613d148484613bef565b8252506020613d2584848301613bef565b6020830152506040613d3984828501613bef565b6040830152506060613d4d84828501613bef565b6060830152506080613d6184828501613bef565b60808301525060a0613d7584828501613bef565b60a08301525060c0613d8984828501613bef565b60c08301525060e0613d9d84828501613bef565b60e083015250610100613db284828501613bef565b6101008301525092915050565b805161164c816150d1565b600060208284031215613ddc57600080fd5b60006118e18484613bce565b60008060408385031215613dfb57600080fd5b6000613e078585613bce565b9250506020613e1885828601613bce565b9150509250929050565b600080600080600060a08688031215613e3a57600080fd5b6000613e468888613bce565b9550506020613e5788828901613bce565b9450506040613e6888828901613bef565b9350506060613e7988828901613bef565b9250506080613e8a88828901613bd9565b9150509295509295909350565b60008060008060008060c08789031215613eb057600080fd5b6000613ebc8989613bce565b9650506020613ecd89828a01613bce565b9550506040613ede89828a01613bef565b9450506060613eef89828a01613bef565b9350506080613f0089828a01613bef565b92505060a0613f1189828a01613bef565b9150509295509295509295565b60008060408385031215613f3157600080fd5b6000613f3d8585613bce565b9250506020613e1885828601613bef565b600060208284031215613f6057600080fd5b60006118e18484613be4565b600060208284031215613f7e57600080fd5b60006118e18484613bef565b60008060408385031215613f9d57600080fd5b6000613e078585613bef565b600080600060608486031215613fbe57600080fd5b6000613fca8686613bef565b9350506020613fdb86828701613bce565b9250506040613fec86828701613bd9565b9150509250925092565b600080600080600080600080610240898b03121561401357600080fd5b600061401f8b8b613bef565b98505060206140308b828c01613bef565b97505060406140418b828c01613bd9565b96505060606140528b828c01613bef565b95505060806140638b828c01613c4e565b9450506101006140758b828c01613cd5565b93505061022089013567ffffffffffffffff81111561409357600080fd5b61409f8b828c01613c05565b92509250509295985092959890939650565b6000602082840312156140c357600080fd5b60006118e18484613bfa565b6000608082840312156140e157600080fd5b60006118e18484613c66565b6000610120828403121561410057600080fd5b60006118e18484613ce8565b60006020828403121561411e57600080fd5b60006118e18484613dbf565b6000806040838503121561413d57600080fd5b60006141498585613dbf565b9250506020613e1885828601613dbf565b61416381615030565b82525050565b61416361417582615030565b615093565b6141638161503b565b61416381615040565b61416361419882615040565b615040565b60006141a88261501e565b6141b28185615022565b93506141c2818560208601615067565b9290920192915050565b6141638161505c565b60006141e08261501e565b6141ea8185615027565b93506141fa818560208601615067565b614203816150a4565b9093019392505050565b600061421a601383615027565b720d8dec2dca0c2e4c2dae640dad2e6dac2e8c6d606b1b815260200192915050565b6000614249600683615027565b6514185d5cd95960d21b815260200192915050565b600061426b601b83615027565b7f696e73756666696369656e742073776170206c69717569646974790000000000815260200192915050565b60006142a4601083615027565b6f1a5b9d985b1a59081a5b9d195c995cdd60821b815260200192915050565b60006142d0602683615027565b7f4f776e61626c653a206e6577206f776e657220697320746865207a65726f206181526564647265737360d01b602082015260400192915050565b6000614318601d83615027565b7f656e7472792070726963652061626f766520746865206d696e696d756d000000815260200192915050565b6000614351601183615027565b700c4dee4e4deeecae440dad2e6dac2e8c6d607b1b815260200192915050565b600061437e601b83615027565b7f536166654d6174683a206164646974696f6e206f766572666c6f770000000000815260200192915050565b60006143b7600e83615027565b6d1b1bd85b881d1bdbc81cda1bdc9d60921b815260200192915050565b60006143e1601583615027565b740c6ded8d8c2e8cae4c2d85ed8dec2dc40dac2e8c6d605b1b815260200192915050565b6000614412602083615027565b7f5361666545524332303a206c6f772d6c6576656c2063616c6c206661696c6564815260200192915050565b600061444b601383615027565b72737761702066696c6c20746f6f206c6172676560681b815260200192915050565b600061447a600f83615027565b6e0d8cadcc8cae440dad2e6dac2e8c6d608b1b815260200192915050565b60006144a5601c83615027565b7f736f75726365416d6f756e74206c6172676572207468616e206d617800000000815260200192915050565b60006144de600b83615027565b6a6c6f616e2065786973747360a81b815260200192915050565b6000614505601283615027565b7139bab938363ab9903637b0b7103a37b5b2b760711b815260200192915050565b6000614533600e83615027565b6d1b1bd85b881a185cc8195b99195960921b815260200192915050565b600061455d600e83615027565b6d7377617020746f6f206c6172676560901b815260200192915050565b6000614587600f83615027565b6e0636f6c6c61746572616c206973203608c1b815260200192915050565b60006145b2600e83615027565b6d1b9bdd08185d5d1a1bdc9a5e995960921b815260200192915050565b60006145dc602183615027565b7f536166654d6174683a206d756c7469706c69636174696f6e206f766572666c6f8152607760f81b602082015260400192915050565b600061461f600c83615027565b6b1d5b985d5d1a1bdc9a5e995960a21b815260200192915050565b6000614647601783615027565b7f636f6c6c61746572616c20696e73756666696369656e74000000000000000000815260200192915050565b6000614680601283615027565b713ab73432b0b63a343c903837b9b4ba34b7b760711b815260200192915050565b60006146ae601583615027565b746c6f616e506172616d73206e6f742065786973747360581b815260200192915050565b60006146df601483615027565b7319985b1b189858dac81b9bdd08185b1b1bddd95960621b815260200192915050565b600061470f602e83615027565b7f6d696e206f72206d617820736f7572636520746f6b656e20616d6f756e74206e81526d1959591cc81d1bc81899481cd95d60921b602082015260400192915050565b600061475f601383615027565b721b1bd85b94185c985b5cc8191a5cd8589b1959606a1b815260200192915050565b600061478e600c83615027565b6b1b9bdb9499595b9d1c985b9d60a21b815260200192915050565b60006147b6600d83615027565b6c696e76616c696420737461746560981b815260200192915050565b60006147df602a83615027565b7f5361666545524332303a204552433230206f7065726174696f6e20646964206e8152691bdd081cdd58d8d9595960b21b602082015260400192915050565b600061482b602183615027565b7f6c6f616e446174614279746573207265717569726564207769746820657468658152603960f91b602082015260400192915050565b600061486e601683615027565b751cddd85c081d1bdbc81b185c99d9481d1bc8199a5b1b60521b815260200192915050565b60006148a0601583615027565b74696e697469616c4d617267696e20746f6f206c6f7760581b815260200192915050565b60006148d1601f83615027565b7f5361666545524332303a2063616c6c20746f206e6f6e2d636f6e747261637400815260200192915050565b805160e083019061490e848261415a565b506020820151614921602085018261415a565b506040820151614934604085018261415a565b506060820151614947606085018261415a565b50608082015161495a6080850182614183565b5060a082015161496d60a0850182614183565b5060c0820151612a6560c0850182614183565b600061498c828761418c565b60208201915061499c8286614169565b6014820191506149ac8285614169565b6014820191506149bc828461418c565b50602001949350505050565b600061169b828461419d565b6020810161164c828461415a565b604081016149f0828561415a565b61169b602083018461415a565b60808101614a0b828761415a565b614a18602083018661415a565b614a25604083018561415a565b610b626060830184614183565b60608101614a40828661415a565b614a4d602083018561415a565b6118e16040830184614183565b60808101614a68828761415a565b614a75602083018661415a565b614a256040830185614183565b60a08101614a90828861415a565b614a9d602083018761415a565b614aaa6040830186614183565b614ab76060830185614183565b6110f06080830184614183565b6101008101614ad3828b61415a565b614ae0602083018a61415a565b614aed6040830189614183565b614afa6060830188614183565b614b076080830187614183565b614b1460a0830186614183565b614b2160c0830185614183565b614b2e60e0830184614183565b9998505050505050505050565b6101208101614b4a828c61415a565b614b57602083018b61415a565b614b64604083018a614183565b614b716060830189614183565b614b7e6080830188614183565b614b8b60a0830187614183565b614b9860c0830186614183565b614ba560e0830185614183565b614bb3610100830184614183565b9a9950505050505050505050565b60408101614bcf828561415a565b61169b6020830184614183565b60608101614bea828661415a565b614a4d6020830185614183565b6020810161164c828461417a565b6101008101614c14828b614183565b614c21602083018a61417a565b614c2e604083018961415a565b614c3b606083018861415a565b614b07608083018761415a565b6101808101614c57828f614183565b614c64602083018e614183565b614c71604083018d614183565b614c7e606083018c61417a565b614c8b608083018b614183565b614c9860a083018a614183565b614ca560c0830189614183565b614cb260e0830188614183565b614cc0610100830187614183565b614cce610120830186614183565b614cdc61014083018561415a565b614cea61016083018461415a565b9d9c50505050505050505050505050565b6020810161164c82846141cc565b6020808252810161169b81846141d5565b6020808252810161164c8161420d565b6020808252810161164c8161423c565b6020808252810161164c8161425e565b6020808252810161164c81614297565b6020808252810161164c816142c3565b6020808252810161164c8161430b565b6020808252810161164c81614344565b6020808252810161164c81614371565b6020808252810161164c816143aa565b6020808252810161164c816143d4565b6020808252810161164c81614405565b6020808252810161164c8161443e565b6020808252810161164c8161446d565b6020808252810161164c81614498565b6020808252810161164c816144d1565b6020808252810161164c816144f8565b6020808252810161164c81614526565b6020808252810161164c81614550565b6020808252810161164c8161457a565b6020808252810161164c816145a5565b6020808252810161164c816145cf565b6020808252810161164c81614612565b6020808252810161164c8161463a565b6020808252810161164c81614673565b6020808252810161164c816146a1565b6020808252810161164c816146d2565b6020808252810161164c81614702565b6020808252810161164c81614752565b6020808252810161164c81614781565b6020808252810161164c816147a9565b6020808252810161164c816147d2565b6020808252810161164c8161481e565b6020808252810161164c81614861565b6020808252810161164c81614893565b6020808252810161164c816148c4565b60e0810161164c82846148fd565b6020810161164c8284614183565b60408101614bcf8285614183565b60608101614bea8286614183565b60a08101614f908288614183565b614a9d6020830187614183565b60c08101614fab8289614183565b614fb86020830188614183565b614fc56040830187614183565b614fd26060830186614183565b614fdf6080830185614183565b614fec60a0830184614183565b979650505050505050565b60405181810167ffffffffffffffff8111828210171561501657600080fd5b604052919050565b5190565b919050565b90815260200190565b600061164c82615050565b151590565b90565b6001600160e01b03191690565b6001600160a01b031690565b600061164c82615030565b60005b8381101561508257818101518382015260200161506a565b83811115612a655750506000910152565b600061164c82600061164c826150ae565b601f01601f191690565b60601b90565b6150bd81615030565b81146114b657600080fd5b6150bd8161503b565b6150bd81615040565b6150bd8161504356fea365627a7a7231582006262a07965035f357589c6bb924f7de44a817506b83c56eb712cec5934fdd626c6578706572696d656e74616cf564736f6c63430005110040",
  "libraries": {
    "SwapsImplSovrynSwapLib": "0x98399051DC17bAFb621269A12a63d70b2D615C69"
  },
  "devdoc": {
    "methods": {
      "borrowOrTradeFromPool(bytes32,bytes32,bool,uint256,(address,address,address,address),(uint256,uint256,uint256,uint256,uint256,uint256,uint256,uint256,uint256),bytes)": {
        "details": "Note: Only callable by loan pools (iTokens). Wrapper to _borrowOrTrade internal function.",
        "params": {
          "initialMargin": "The initial amount of margin.",
          "isTorqueLoan": "Whether the loan is a Torque loan.",
          "loanDataBytes": "The payload for the call. These loan DataBytes are  additional loan data (not in use for token swaps).",
          "loanId": "The ID of the loan. If 0, start a new loan.",
          "loanParamsId": "The ID of the loan parameters.",
          "sentAddresses": "The addresses to send tokens: lender, borrower,  receiver and manager:    lender: must match loan if loanId provided.    borrower: must match loan if loanId provided.    receiver: receiver of funds (address(0) assumes borrower address).    manager: delegated manager of loan unless address(0).",
          "sentValues": "The values to send:    interestRate: New loan interest rate.    newPrincipal: New loan size (borrowAmount + any borrowed interest).    interestInitialAmount: New amount of interest to escrow for Torque loan (determines initial loan length).    loanTokenReceived: Total loanToken deposit (amount not sent to borrower in the case of Torque loans).    collateralTokenSent: Total collateralToken deposit.    minEntryPrice: Minimum entry price for checking price divergence (Value of loan token in collateral)."
        },
        "return": "newPrincipal The new loan size.newCollateral The new collateral amount."
      },
      "getBorrowAmount(address,address,uint256,uint256,bool)": {
        "details": "Basically borrowAmount = collateral / marginAmount     * Collateral is something that helps secure a loan. When you borrow money, you agree that your lender can take something and sell it to get their money back if you fail to repay the loan. That's the collateral.",
        "params": {
          "collateralToken": "The collateral token instance address.",
          "collateralTokenAmount": "The amount of collateral.",
          "isTorqueLoan": "Whether the loan is a Torque loan.",
          "loanToken": "The loan token instance address.",
          "marginAmount": "The amount of margin of the trade."
        },
        "return": "borrowAmount The borrow amount."
      },
      "getEstimatedMarginExposure(address,address,uint256,uint256,uint256,uint256)": {
        "params": {
          "collateralToken": "The collateral token instance address.",
          "collateralTokenSent": "The amount of collateral tokens sent.",
          "interestRate": "The interest rate. Percentage w/ 18 decimals.",
          "loanToken": "The loan token instance address.",
          "loanTokenSent": "The amount of loan tokens sent.",
          "newPrincipal": "The updated amount of principal (current debt)."
        },
        "return": "The margin exposure."
      },
      "getRequiredCollateral(address,address,uint256,uint256,bool)": {
        "details": "Calls internal _getRequiredCollateral and add fees.",
        "params": {
          "collateralToken": "The collateral token instance address.",
          "isTorqueLoan": "Whether the loan is a Torque loan.",
          "loanToken": "The loan token instance address.",
          "marginAmount": "The amount of margin of the trade.",
          "newPrincipal": "The updated amount of principal (current debt)."
        },
        "return": "collateralAmountRequired The required collateral."
      },
      "initialize(address)": {
        "params": {
          "target": "The address of the target contract."
        }
      },
      "isOwner()": {
        "details": "Returns true if the caller is the current owner."
      },
      "owner()": {
        "details": "Returns the address of the current owner."
      },
      "setDelegatedManager(bytes32,address,bool)": {
        "details": "Wrapper for _setDelegatedManager internal function.",
        "params": {
          "delegated": "The address of the delegated manager.",
          "loanId": "The ID of the loan. If 0, start a new loan.",
          "toggle": "The flag true/false for the delegated manager."
        }
      },
      "transferOwnership(address)": {
        "details": "Transfers ownership of the contract to a new account (`newOwner`). Can only be called by the current owner."
      }
    },
    "title": "Loan Openings contract."
  },
  "userdoc": {
    "methods": {
      "borrowOrTradeFromPool(bytes32,bytes32,bool,uint256,(address,address,address,address),(uint256,uint256,uint256,uint256,uint256,uint256,uint256,uint256,uint256),bytes)": {
        "notice": "Borrow or trade from pool."
      },
      "getBorrowAmount(address,address,uint256,uint256,bool)": {
        "notice": "Get the borrow amount of a trade loan."
      },
      "getEstimatedMarginExposure(address,address,uint256,uint256,uint256,uint256)": {
        "notice": "Get the estimated margin exposure.     * Margin is the money borrowed from a broker to purchase an investment and is the difference between the total value of investment and the loan amount. Margin trading refers to the practice of using borrowed funds from a broker to trade a financial asset, which forms the collateral for the loan from the broker."
      },
      "getRequiredCollateral(address,address,uint256,uint256,bool)": {
        "notice": "Get the required collateral."
      },
      "initialize(address)": {
        "notice": "Set function selectors on target contract."
      },
      "setDelegatedManager(bytes32,address,bool)": {
        "notice": "Set the delegated manager."
      }
    },
    "notice": "This contract code comes from bZx. bZx is a protocol for tokenized margin trading and lending https://bzx.network similar to the dYdX protocol. * This contract contains functions to borrow and trade."
  },
  "storageLayout": {
    "storage": [
      {
        "astId": 54832,
        "contract": "contracts/modules/LoanOpenings.sol:LoanOpenings",
        "label": "reentrancyLock",
        "offset": 0,
        "slot": "0",
        "type": "t_uint256"
      },
      {
        "astId": 54648,
        "contract": "contracts/modules/LoanOpenings.sol:LoanOpenings",
        "label": "_owner",
        "offset": 0,
        "slot": "1",
        "type": "t_address"
      },
      {
        "astId": 6188,
        "contract": "contracts/modules/LoanOpenings.sol:LoanOpenings",
        "label": "priceFeeds",
        "offset": 0,
        "slot": "2",
        "type": "t_address"
      },
      {
        "astId": 6190,
        "contract": "contracts/modules/LoanOpenings.sol:LoanOpenings",
        "label": "swapsImpl",
        "offset": 0,
        "slot": "3",
        "type": "t_address"
      },
      {
        "astId": 6192,
        "contract": "contracts/modules/LoanOpenings.sol:LoanOpenings",
        "label": "sovrynSwapContractRegistryAddress",
        "offset": 0,
        "slot": "4",
        "type": "t_address"
      },
      {
        "astId": 6196,
        "contract": "contracts/modules/LoanOpenings.sol:LoanOpenings",
        "label": "logicTargets",
        "offset": 0,
        "slot": "5",
        "type": "t_mapping(t_bytes4,t_address)"
      },
      {
        "astId": 6200,
        "contract": "contracts/modules/LoanOpenings.sol:LoanOpenings",
        "label": "loans",
        "offset": 0,
        "slot": "6",
        "type": "t_mapping(t_bytes32,t_struct(Loan)6566_storage)"
      },
      {
        "astId": 6204,
        "contract": "contracts/modules/LoanOpenings.sol:LoanOpenings",
        "label": "loanParams",
        "offset": 0,
        "slot": "7",
        "type": "t_mapping(t_bytes32,t_struct(LoanParams)6538_storage)"
      },
      {
        "astId": 6210,
        "contract": "contracts/modules/LoanOpenings.sol:LoanOpenings",
        "label": "lenderOrders",
        "offset": 0,
        "slot": "8",
        "type": "t_mapping(t_address,t_mapping(t_bytes32,t_struct(Order)6582_storage))"
      },
      {
        "astId": 6216,
        "contract": "contracts/modules/LoanOpenings.sol:LoanOpenings",
        "label": "borrowerOrders",
        "offset": 0,
        "slot": "9",
        "type": "t_mapping(t_address,t_mapping(t_bytes32,t_struct(Order)6582_storage))"
      },
      {
        "astId": 6222,
        "contract": "contracts/modules/LoanOpenings.sol:LoanOpenings",
        "label": "delegatedManagers",
        "offset": 0,
        "slot": "10",
        "type": "t_mapping(t_bytes32,t_mapping(t_address,t_bool))"
      },
      {
        "astId": 6228,
        "contract": "contracts/modules/LoanOpenings.sol:LoanOpenings",
        "label": "lenderInterest",
        "offset": 0,
        "slot": "11",
        "type": "t_mapping(t_address,t_mapping(t_address,t_struct(LenderInterest)6508_storage))"
      },
      {
        "astId": 6232,
        "contract": "contracts/modules/LoanOpenings.sol:LoanOpenings",
        "label": "loanInterest",
        "offset": 0,
        "slot": "12",
        "type": "t_mapping(t_bytes32,t_struct(LoanInterest)6518_storage)"
      },
      {
        "astId": 6234,
        "contract": "contracts/modules/LoanOpenings.sol:LoanOpenings",
        "label": "logicTargetsSet",
        "offset": 0,
        "slot": "13",
        "type": "t_struct(Bytes32Set)36272_storage"
      },
      {
        "astId": 6236,
        "contract": "contracts/modules/LoanOpenings.sol:LoanOpenings",
        "label": "activeLoansSet",
        "offset": 0,
        "slot": "15",
        "type": "t_struct(Bytes32Set)36272_storage"
      },
      {
        "astId": 6240,
        "contract": "contracts/modules/LoanOpenings.sol:LoanOpenings",
        "label": "lenderLoanSets",
        "offset": 0,
        "slot": "17",
        "type": "t_mapping(t_address,t_struct(Bytes32Set)36272_storage)"
      },
      {
        "astId": 6244,
        "contract": "contracts/modules/LoanOpenings.sol:LoanOpenings",
        "label": "borrowerLoanSets",
        "offset": 0,
        "slot": "18",
        "type": "t_mapping(t_address,t_struct(Bytes32Set)36272_storage)"
      },
      {
        "astId": 6248,
        "contract": "contracts/modules/LoanOpenings.sol:LoanOpenings",
        "label": "userLoanParamSets",
        "offset": 0,
        "slot": "19",
        "type": "t_mapping(t_address,t_struct(Bytes32Set)36272_storage)"
      },
      {
        "astId": 6250,
        "contract": "contracts/modules/LoanOpenings.sol:LoanOpenings",
        "label": "feesController",
        "offset": 0,
        "slot": "20",
        "type": "t_address"
      },
      {
        "astId": 6255,
        "contract": "contracts/modules/LoanOpenings.sol:LoanOpenings",
        "label": "lendingFeePercent",
        "offset": 0,
        "slot": "21",
        "type": "t_uint256"
      },
      {
        "astId": 6259,
        "contract": "contracts/modules/LoanOpenings.sol:LoanOpenings",
        "label": "lendingFeeTokensHeld",
        "offset": 0,
        "slot": "22",
        "type": "t_mapping(t_address,t_uint256)"
      },
      {
        "astId": 6263,
        "contract": "contracts/modules/LoanOpenings.sol:LoanOpenings",
        "label": "lendingFeeTokensPaid",
        "offset": 0,
        "slot": "23",
        "type": "t_mapping(t_address,t_uint256)"
      },
      {
        "astId": 6270,
        "contract": "contracts/modules/LoanOpenings.sol:LoanOpenings",
        "label": "tradingFeePercent",
        "offset": 0,
        "slot": "24",
        "type": "t_uint256"
      },
      {
        "astId": 6274,
        "contract": "contracts/modules/LoanOpenings.sol:LoanOpenings",
        "label": "tradingFeeTokensHeld",
        "offset": 0,
        "slot": "25",
        "type": "t_mapping(t_address,t_uint256)"
      },
      {
        "astId": 6278,
        "contract": "contracts/modules/LoanOpenings.sol:LoanOpenings",
        "label": "tradingFeeTokensPaid",
        "offset": 0,
        "slot": "26",
        "type": "t_mapping(t_address,t_uint256)"
      },
      {
        "astId": 6285,
        "contract": "contracts/modules/LoanOpenings.sol:LoanOpenings",
        "label": "borrowingFeePercent",
        "offset": 0,
        "slot": "27",
        "type": "t_uint256"
      },
      {
        "astId": 6289,
        "contract": "contracts/modules/LoanOpenings.sol:LoanOpenings",
        "label": "borrowingFeeTokensHeld",
        "offset": 0,
        "slot": "28",
        "type": "t_mapping(t_address,t_uint256)"
      },
      {
        "astId": 6293,
        "contract": "contracts/modules/LoanOpenings.sol:LoanOpenings",
        "label": "borrowingFeeTokensPaid",
        "offset": 0,
        "slot": "29",
        "type": "t_mapping(t_address,t_uint256)"
      },
      {
        "astId": 6295,
        "contract": "contracts/modules/LoanOpenings.sol:LoanOpenings",
        "label": "protocolTokenHeld",
        "offset": 0,
        "slot": "30",
        "type": "t_uint256"
      },
      {
        "astId": 6297,
        "contract": "contracts/modules/LoanOpenings.sol:LoanOpenings",
        "label": "protocolTokenPaid",
        "offset": 0,
        "slot": "31",
        "type": "t_uint256"
      },
      {
        "astId": 6304,
        "contract": "contracts/modules/LoanOpenings.sol:LoanOpenings",
        "label": "affiliateFeePercent",
        "offset": 0,
        "slot": "32",
        "type": "t_uint256"
      },
      {
        "astId": 6311,
        "contract": "contracts/modules/LoanOpenings.sol:LoanOpenings",
        "label": "liquidationIncentivePercent",
        "offset": 0,
        "slot": "33",
        "type": "t_uint256"
      },
      {
        "astId": 6315,
        "contract": "contracts/modules/LoanOpenings.sol:LoanOpenings",
        "label": "loanPoolToUnderlying",
        "offset": 0,
        "slot": "34",
        "type": "t_mapping(t_address,t_address)"
      },
      {
        "astId": 6319,
        "contract": "contracts/modules/LoanOpenings.sol:LoanOpenings",
        "label": "underlyingToLoanPool",
        "offset": 0,
        "slot": "35",
        "type": "t_mapping(t_address,t_address)"
      },
      {
        "astId": 6321,
        "contract": "contracts/modules/LoanOpenings.sol:LoanOpenings",
        "label": "loanPoolsSet",
        "offset": 0,
        "slot": "36",
        "type": "t_struct(Bytes32Set)36272_storage"
      },
      {
        "astId": 6325,
        "contract": "contracts/modules/LoanOpenings.sol:LoanOpenings",
        "label": "supportedTokens",
        "offset": 0,
        "slot": "38",
        "type": "t_mapping(t_address,t_bool)"
      },
      {
        "astId": 6332,
        "contract": "contracts/modules/LoanOpenings.sol:LoanOpenings",
        "label": "maxDisagreement",
        "offset": 0,
        "slot": "39",
        "type": "t_uint256"
      },
      {
        "astId": 6335,
        "contract": "contracts/modules/LoanOpenings.sol:LoanOpenings",
        "label": "sourceBuffer",
        "offset": 0,
        "slot": "40",
        "type": "t_uint256"
      },
      {
        "astId": 6338,
        "contract": "contracts/modules/LoanOpenings.sol:LoanOpenings",
        "label": "maxSwapSize",
        "offset": 0,
        "slot": "41",
        "type": "t_uint256"
      },
      {
        "astId": 6342,
        "contract": "contracts/modules/LoanOpenings.sol:LoanOpenings",
        "label": "borrowerNonce",
        "offset": 0,
        "slot": "42",
        "type": "t_mapping(t_address,t_uint256)"
      },
      {
        "astId": 6345,
        "contract": "contracts/modules/LoanOpenings.sol:LoanOpenings",
        "label": "rolloverBaseReward",
        "offset": 0,
        "slot": "43",
        "type": "t_uint256"
      },
      {
        "astId": 6348,
        "contract": "contracts/modules/LoanOpenings.sol:LoanOpenings",
        "label": "rolloverFlexFeePercent",
        "offset": 0,
        "slot": "44",
        "type": "t_uint256"
      },
      {
        "astId": 6350,
        "contract": "contracts/modules/LoanOpenings.sol:LoanOpenings",
        "label": "wrbtcToken",
        "offset": 0,
        "slot": "45",
        "type": "t_contract(IWrbtcERC20)35073"
      },
      {
        "astId": 6352,
        "contract": "contracts/modules/LoanOpenings.sol:LoanOpenings",
        "label": "protocolTokenAddress",
        "offset": 0,
        "slot": "46",
        "type": "t_address"
      },
      {
        "astId": 6359,
        "contract": "contracts/modules/LoanOpenings.sol:LoanOpenings",
        "label": "feeRebatePercent",
        "offset": 0,
        "slot": "47",
        "type": "t_uint256"
      },
      {
        "astId": 6361,
        "contract": "contracts/modules/LoanOpenings.sol:LoanOpenings",
        "label": "admin",
        "offset": 0,
        "slot": "48",
        "type": "t_address"
      },
      {
        "astId": 6363,
        "contract": "contracts/modules/LoanOpenings.sol:LoanOpenings",
        "label": "protocolAddress",
        "offset": 0,
        "slot": "49",
        "type": "t_address"
      },
      {
        "astId": 6367,
        "contract": "contracts/modules/LoanOpenings.sol:LoanOpenings",
        "label": "userNotFirstTradeFlag",
        "offset": 0,
        "slot": "50",
        "type": "t_mapping(t_address,t_bool)"
      },
      {
        "astId": 6371,
        "contract": "contracts/modules/LoanOpenings.sol:LoanOpenings",
        "label": "affiliatesUserReferrer",
        "offset": 0,
        "slot": "51",
        "type": "t_mapping(t_address,t_address)"
      },
      {
        "astId": 6375,
        "contract": "contracts/modules/LoanOpenings.sol:LoanOpenings",
        "label": "referralsList",
        "offset": 0,
        "slot": "52",
        "type": "t_mapping(t_address,t_struct(AddressSet)35966_storage)"
      },
      {
        "astId": 6378,
        "contract": "contracts/modules/LoanOpenings.sol:LoanOpenings",
        "label": "minReferralsToPayout",
        "offset": 0,
        "slot": "53",
        "type": "t_uint256"
      },
      {
        "astId": 6382,
        "contract": "contracts/modules/LoanOpenings.sol:LoanOpenings",
        "label": "affiliateRewardsHeld",
        "offset": 0,
        "slot": "54",
        "type": "t_mapping(t_address,t_uint256)"
      },
      {
        "astId": 6384,
        "contract": "contracts/modules/LoanOpenings.sol:LoanOpenings",
        "label": "sovTokenAddress",
        "offset": 0,
        "slot": "55",
        "type": "t_address"
      },
      {
        "astId": 6386,
        "contract": "contracts/modules/LoanOpenings.sol:LoanOpenings",
        "label": "lockedSOVAddress",
        "offset": 0,
        "slot": "56",
        "type": "t_address"
      },
      {
        "astId": 6393,
        "contract": "contracts/modules/LoanOpenings.sol:LoanOpenings",
        "label": "affiliateTradingTokenFeePercent",
        "offset": 0,
        "slot": "57",
        "type": "t_uint256"
      },
      {
        "astId": 6397,
        "contract": "contracts/modules/LoanOpenings.sol:LoanOpenings",
        "label": "affiliatesReferrerTokensList",
        "offset": 0,
        "slot": "58",
        "type": "t_mapping(t_address,t_struct(AddressSet)35966_storage)"
      },
      {
        "astId": 6403,
        "contract": "contracts/modules/LoanOpenings.sol:LoanOpenings",
        "label": "affiliatesReferrerBalances",
        "offset": 0,
        "slot": "59",
        "type": "t_mapping(t_address,t_mapping(t_address,t_uint256))"
      },
      {
        "astId": 6409,
        "contract": "contracts/modules/LoanOpenings.sol:LoanOpenings",
        "label": "specialRebates",
        "offset": 0,
        "slot": "60",
        "type": "t_mapping(t_address,t_mapping(t_address,t_uint256))"
      },
      {
        "astId": 6411,
        "contract": "contracts/modules/LoanOpenings.sol:LoanOpenings",
        "label": "pause",
        "offset": 0,
        "slot": "61",
        "type": "t_bool"
      },
      {
        "astId": 6413,
        "contract": "contracts/modules/LoanOpenings.sol:LoanOpenings",
        "label": "swapExtrernalFeePercent",
        "offset": 0,
        "slot": "62",
        "type": "t_uint256"
      },
      {
        "astId": 6415,
        "contract": "contracts/modules/LoanOpenings.sol:LoanOpenings",
        "label": "tradingRebateRewardsBasisPoint",
        "offset": 0,
        "slot": "63",
        "type": "t_uint256"
      },
      {
        "astId": 6422,
        "contract": "contracts/modules/LoanOpenings.sol:LoanOpenings",
        "label": "defaultPathConversion",
        "offset": 0,
        "slot": "64",
        "type": "t_mapping(t_address,t_mapping(t_address,t_array(t_contract(IERC20)33292)dyn_storage))"
      },
      {
        "astId": 6424,
        "contract": "contracts/modules/LoanOpenings.sol:LoanOpenings",
        "label": "pauser",
        "offset": 0,
        "slot": "65",
        "type": "t_address"
      }
    ],
    "types": {
      "t_address": {
        "encoding": "inplace",
        "label": "address",
        "numberOfBytes": "20"
      },
      "t_array(t_address)dyn_storage": {
        "base": "t_address",
        "encoding": "dynamic_array",
        "label": "address[]",
        "numberOfBytes": "32"
      },
      "t_array(t_bytes32)dyn_storage": {
        "base": "t_bytes32",
        "encoding": "dynamic_array",
        "label": "bytes32[]",
        "numberOfBytes": "32"
      },
      "t_array(t_contract(IERC20)33292)dyn_storage": {
        "base": "t_contract(IERC20)33292",
        "encoding": "dynamic_array",
        "label": "contract IERC20[]",
        "numberOfBytes": "32"
      },
      "t_bool": {
        "encoding": "inplace",
        "label": "bool",
        "numberOfBytes": "1"
      },
      "t_bytes32": {
        "encoding": "inplace",
        "label": "bytes32",
        "numberOfBytes": "32"
      },
      "t_bytes4": {
        "encoding": "inplace",
        "label": "bytes4",
        "numberOfBytes": "4"
      },
      "t_contract(IERC20)33292": {
        "encoding": "inplace",
        "label": "contract IERC20",
        "numberOfBytes": "20"
      },
      "t_contract(IWrbtcERC20)35073": {
        "encoding": "inplace",
        "label": "contract IWrbtcERC20",
        "numberOfBytes": "20"
      },
      "t_mapping(t_address,t_address)": {
        "encoding": "mapping",
        "key": "t_address",
        "label": "mapping(address => address)",
        "numberOfBytes": "32",
        "value": "t_address"
      },
      "t_mapping(t_address,t_array(t_contract(IERC20)33292)dyn_storage)": {
        "encoding": "mapping",
        "key": "t_address",
        "label": "mapping(address => contract IERC20[])",
        "numberOfBytes": "32",
        "value": "t_array(t_contract(IERC20)33292)dyn_storage"
      },
      "t_mapping(t_address,t_bool)": {
        "encoding": "mapping",
        "key": "t_address",
        "label": "mapping(address => bool)",
        "numberOfBytes": "32",
        "value": "t_bool"
      },
      "t_mapping(t_address,t_mapping(t_address,t_array(t_contract(IERC20)33292)dyn_storage))": {
        "encoding": "mapping",
        "key": "t_address",
        "label": "mapping(address => mapping(address => contract IERC20[]))",
        "numberOfBytes": "32",
        "value": "t_mapping(t_address,t_array(t_contract(IERC20)33292)dyn_storage)"
      },
      "t_mapping(t_address,t_mapping(t_address,t_struct(LenderInterest)6508_storage))": {
        "encoding": "mapping",
        "key": "t_address",
        "label": "mapping(address => mapping(address => struct LenderInterestStruct.LenderInterest))",
        "numberOfBytes": "32",
        "value": "t_mapping(t_address,t_struct(LenderInterest)6508_storage)"
      },
      "t_mapping(t_address,t_mapping(t_address,t_uint256))": {
        "encoding": "mapping",
        "key": "t_address",
        "label": "mapping(address => mapping(address => uint256))",
        "numberOfBytes": "32",
        "value": "t_mapping(t_address,t_uint256)"
      },
      "t_mapping(t_address,t_mapping(t_bytes32,t_struct(Order)6582_storage))": {
        "encoding": "mapping",
        "key": "t_address",
        "label": "mapping(address => mapping(bytes32 => struct OrderStruct.Order))",
        "numberOfBytes": "32",
        "value": "t_mapping(t_bytes32,t_struct(Order)6582_storage)"
      },
      "t_mapping(t_address,t_struct(AddressSet)35966_storage)": {
        "encoding": "mapping",
        "key": "t_address",
        "label": "mapping(address => struct EnumerableAddressSet.AddressSet)",
        "numberOfBytes": "32",
        "value": "t_struct(AddressSet)35966_storage"
      },
      "t_mapping(t_address,t_struct(Bytes32Set)36272_storage)": {
        "encoding": "mapping",
        "key": "t_address",
        "label": "mapping(address => struct EnumerableBytes32Set.Bytes32Set)",
        "numberOfBytes": "32",
        "value": "t_struct(Bytes32Set)36272_storage"
      },
      "t_mapping(t_address,t_struct(LenderInterest)6508_storage)": {
        "encoding": "mapping",
        "key": "t_address",
        "label": "mapping(address => struct LenderInterestStruct.LenderInterest)",
        "numberOfBytes": "32",
        "value": "t_struct(LenderInterest)6508_storage"
      },
      "t_mapping(t_address,t_uint256)": {
        "encoding": "mapping",
        "key": "t_address",
        "label": "mapping(address => uint256)",
        "numberOfBytes": "32",
        "value": "t_uint256"
      },
      "t_mapping(t_bytes32,t_mapping(t_address,t_bool))": {
        "encoding": "mapping",
        "key": "t_bytes32",
        "label": "mapping(bytes32 => mapping(address => bool))",
        "numberOfBytes": "32",
        "value": "t_mapping(t_address,t_bool)"
      },
      "t_mapping(t_bytes32,t_struct(Loan)6566_storage)": {
        "encoding": "mapping",
        "key": "t_bytes32",
        "label": "mapping(bytes32 => struct LoanStruct.Loan)",
        "numberOfBytes": "32",
        "value": "t_struct(Loan)6566_storage"
      },
      "t_mapping(t_bytes32,t_struct(LoanInterest)6518_storage)": {
        "encoding": "mapping",
        "key": "t_bytes32",
        "label": "mapping(bytes32 => struct LoanInterestStruct.LoanInterest)",
        "numberOfBytes": "32",
        "value": "t_struct(LoanInterest)6518_storage"
      },
      "t_mapping(t_bytes32,t_struct(LoanParams)6538_storage)": {
        "encoding": "mapping",
        "key": "t_bytes32",
        "label": "mapping(bytes32 => struct LoanParamsStruct.LoanParams)",
        "numberOfBytes": "32",
        "value": "t_struct(LoanParams)6538_storage"
      },
      "t_mapping(t_bytes32,t_struct(Order)6582_storage)": {
        "encoding": "mapping",
        "key": "t_bytes32",
        "label": "mapping(bytes32 => struct OrderStruct.Order)",
        "numberOfBytes": "32",
        "value": "t_struct(Order)6582_storage"
      },
      "t_mapping(t_bytes32,t_uint256)": {
        "encoding": "mapping",
        "key": "t_bytes32",
        "label": "mapping(bytes32 => uint256)",
        "numberOfBytes": "32",
        "value": "t_uint256"
      },
      "t_mapping(t_bytes4,t_address)": {
        "encoding": "mapping",
        "key": "t_bytes4",
        "label": "mapping(bytes4 => address)",
        "numberOfBytes": "32",
        "value": "t_address"
      },
      "t_struct(AddressSet)35966_storage": {
        "encoding": "inplace",
        "label": "struct EnumerableAddressSet.AddressSet",
        "members": [
          {
            "astId": 35962,
            "contract": "contracts/modules/LoanOpenings.sol:LoanOpenings",
            "label": "index",
            "offset": 0,
            "slot": "0",
            "type": "t_mapping(t_address,t_uint256)"
          },
          {
            "astId": 35965,
            "contract": "contracts/modules/LoanOpenings.sol:LoanOpenings",
            "label": "values",
            "offset": 0,
            "slot": "1",
            "type": "t_array(t_address)dyn_storage"
          }
        ],
        "numberOfBytes": "64"
      },
      "t_struct(Bytes32Set)36272_storage": {
        "encoding": "inplace",
        "label": "struct EnumerableBytes32Set.Bytes32Set",
        "members": [
          {
            "astId": 36268,
            "contract": "contracts/modules/LoanOpenings.sol:LoanOpenings",
            "label": "index",
            "offset": 0,
            "slot": "0",
            "type": "t_mapping(t_bytes32,t_uint256)"
          },
          {
            "astId": 36271,
            "contract": "contracts/modules/LoanOpenings.sol:LoanOpenings",
            "label": "values",
            "offset": 0,
            "slot": "1",
            "type": "t_array(t_bytes32)dyn_storage"
          }
        ],
        "numberOfBytes": "64"
      },
      "t_struct(LenderInterest)6508_storage": {
        "encoding": "inplace",
        "label": "struct LenderInterestStruct.LenderInterest",
        "members": [
          {
            "astId": 6499,
            "contract": "contracts/modules/LoanOpenings.sol:LoanOpenings",
            "label": "principalTotal",
            "offset": 0,
            "slot": "0",
            "type": "t_uint256"
          },
          {
            "astId": 6501,
            "contract": "contracts/modules/LoanOpenings.sol:LoanOpenings",
            "label": "owedPerDay",
            "offset": 0,
            "slot": "1",
            "type": "t_uint256"
          },
          {
            "astId": 6503,
            "contract": "contracts/modules/LoanOpenings.sol:LoanOpenings",
            "label": "owedTotal",
            "offset": 0,
            "slot": "2",
            "type": "t_uint256"
          },
          {
            "astId": 6505,
            "contract": "contracts/modules/LoanOpenings.sol:LoanOpenings",
            "label": "paidTotal",
            "offset": 0,
            "slot": "3",
            "type": "t_uint256"
          },
          {
            "astId": 6507,
            "contract": "contracts/modules/LoanOpenings.sol:LoanOpenings",
            "label": "updatedTimestamp",
            "offset": 0,
            "slot": "4",
            "type": "t_uint256"
          }
        ],
        "numberOfBytes": "160"
      },
      "t_struct(Loan)6566_storage": {
        "encoding": "inplace",
        "label": "struct LoanStruct.Loan",
        "members": [
          {
            "astId": 6543,
            "contract": "contracts/modules/LoanOpenings.sol:LoanOpenings",
            "label": "id",
            "offset": 0,
            "slot": "0",
            "type": "t_bytes32"
          },
          {
            "astId": 6545,
            "contract": "contracts/modules/LoanOpenings.sol:LoanOpenings",
            "label": "loanParamsId",
            "offset": 0,
            "slot": "1",
            "type": "t_bytes32"
          },
          {
            "astId": 6547,
            "contract": "contracts/modules/LoanOpenings.sol:LoanOpenings",
            "label": "pendingTradesId",
            "offset": 0,
            "slot": "2",
            "type": "t_bytes32"
          },
          {
            "astId": 6549,
            "contract": "contracts/modules/LoanOpenings.sol:LoanOpenings",
            "label": "active",
            "offset": 0,
            "slot": "3",
            "type": "t_bool"
          },
          {
            "astId": 6551,
            "contract": "contracts/modules/LoanOpenings.sol:LoanOpenings",
            "label": "principal",
            "offset": 0,
            "slot": "4",
            "type": "t_uint256"
          },
          {
            "astId": 6553,
            "contract": "contracts/modules/LoanOpenings.sol:LoanOpenings",
            "label": "collateral",
            "offset": 0,
            "slot": "5",
            "type": "t_uint256"
          },
          {
            "astId": 6555,
            "contract": "contracts/modules/LoanOpenings.sol:LoanOpenings",
            "label": "startTimestamp",
            "offset": 0,
            "slot": "6",
            "type": "t_uint256"
          },
          {
            "astId": 6557,
            "contract": "contracts/modules/LoanOpenings.sol:LoanOpenings",
            "label": "endTimestamp",
            "offset": 0,
            "slot": "7",
            "type": "t_uint256"
          },
          {
            "astId": 6559,
            "contract": "contracts/modules/LoanOpenings.sol:LoanOpenings",
            "label": "startMargin",
            "offset": 0,
            "slot": "8",
            "type": "t_uint256"
          },
          {
            "astId": 6561,
            "contract": "contracts/modules/LoanOpenings.sol:LoanOpenings",
            "label": "startRate",
            "offset": 0,
            "slot": "9",
            "type": "t_uint256"
          },
          {
            "astId": 6563,
            "contract": "contracts/modules/LoanOpenings.sol:LoanOpenings",
            "label": "borrower",
            "offset": 0,
            "slot": "10",
            "type": "t_address"
          },
          {
            "astId": 6565,
            "contract": "contracts/modules/LoanOpenings.sol:LoanOpenings",
            "label": "lender",
            "offset": 0,
            "slot": "11",
            "type": "t_address"
          }
        ],
        "numberOfBytes": "384"
      },
      "t_struct(LoanInterest)6518_storage": {
        "encoding": "inplace",
        "label": "struct LoanInterestStruct.LoanInterest",
        "members": [
          {
            "astId": 6513,
            "contract": "contracts/modules/LoanOpenings.sol:LoanOpenings",
            "label": "owedPerDay",
            "offset": 0,
            "slot": "0",
            "type": "t_uint256"
          },
          {
            "astId": 6515,
            "contract": "contracts/modules/LoanOpenings.sol:LoanOpenings",
            "label": "depositTotal",
            "offset": 0,
            "slot": "1",
            "type": "t_uint256"
          },
          {
            "astId": 6517,
            "contract": "contracts/modules/LoanOpenings.sol:LoanOpenings",
            "label": "updatedTimestamp",
            "offset": 0,
            "slot": "2",
            "type": "t_uint256"
          }
        ],
        "numberOfBytes": "96"
      },
      "t_struct(LoanParams)6538_storage": {
        "encoding": "inplace",
        "label": "struct LoanParamsStruct.LoanParams",
        "members": [
          {
            "astId": 6523,
            "contract": "contracts/modules/LoanOpenings.sol:LoanOpenings",
            "label": "id",
            "offset": 0,
            "slot": "0",
            "type": "t_bytes32"
          },
          {
            "astId": 6525,
            "contract": "contracts/modules/LoanOpenings.sol:LoanOpenings",
            "label": "active",
            "offset": 0,
            "slot": "1",
            "type": "t_bool"
          },
          {
            "astId": 6527,
            "contract": "contracts/modules/LoanOpenings.sol:LoanOpenings",
            "label": "owner",
            "offset": 1,
            "slot": "1",
            "type": "t_address"
          },
          {
            "astId": 6529,
            "contract": "contracts/modules/LoanOpenings.sol:LoanOpenings",
            "label": "loanToken",
            "offset": 0,
            "slot": "2",
            "type": "t_address"
          },
          {
            "astId": 6531,
            "contract": "contracts/modules/LoanOpenings.sol:LoanOpenings",
            "label": "collateralToken",
            "offset": 0,
            "slot": "3",
            "type": "t_address"
          },
          {
            "astId": 6533,
            "contract": "contracts/modules/LoanOpenings.sol:LoanOpenings",
            "label": "minInitialMargin",
            "offset": 0,
            "slot": "4",
            "type": "t_uint256"
          },
          {
            "astId": 6535,
            "contract": "contracts/modules/LoanOpenings.sol:LoanOpenings",
            "label": "maintenanceMargin",
            "offset": 0,
            "slot": "5",
            "type": "t_uint256"
          },
          {
            "astId": 6537,
            "contract": "contracts/modules/LoanOpenings.sol:LoanOpenings",
            "label": "maxLoanTerm",
            "offset": 0,
            "slot": "6",
            "type": "t_uint256"
          }
        ],
        "numberOfBytes": "224"
      },
      "t_struct(Order)6582_storage": {
        "encoding": "inplace",
        "label": "struct OrderStruct.Order",
        "members": [
          {
            "astId": 6571,
            "contract": "contracts/modules/LoanOpenings.sol:LoanOpenings",
            "label": "lockedAmount",
            "offset": 0,
            "slot": "0",
            "type": "t_uint256"
          },
          {
            "astId": 6573,
            "contract": "contracts/modules/LoanOpenings.sol:LoanOpenings",
            "label": "interestRate",
            "offset": 0,
            "slot": "1",
            "type": "t_uint256"
          },
          {
            "astId": 6575,
            "contract": "contracts/modules/LoanOpenings.sol:LoanOpenings",
            "label": "minLoanTerm",
            "offset": 0,
            "slot": "2",
            "type": "t_uint256"
          },
          {
            "astId": 6577,
            "contract": "contracts/modules/LoanOpenings.sol:LoanOpenings",
            "label": "maxLoanTerm",
            "offset": 0,
            "slot": "3",
            "type": "t_uint256"
          },
          {
            "astId": 6579,
            "contract": "contracts/modules/LoanOpenings.sol:LoanOpenings",
            "label": "createdTimestamp",
            "offset": 0,
            "slot": "4",
            "type": "t_uint256"
          },
          {
            "astId": 6581,
            "contract": "contracts/modules/LoanOpenings.sol:LoanOpenings",
            "label": "expirationTimestamp",
            "offset": 0,
            "slot": "5",
            "type": "t_uint256"
          }
        ],
        "numberOfBytes": "192"
      },
      "t_uint256": {
        "encoding": "inplace",
        "label": "uint256",
        "numberOfBytes": "32"
      }
    }
  }
}