{
  "address": "0x24B3687966C4f05e48ED5A3B9c14F56d9ad5BF6B",
  "abi": [
    {
      "anonymous": false,
      "inputs": [
        {
          "indexed": true,
          "internalType": "address",
          "name": "owner",
          "type": "address"
        },
        {
          "indexed": true,
          "internalType": "address",
          "name": "spender",
          "type": "address"
        },
        {
          "indexed": false,
          "internalType": "uint256",
          "name": "valueBefore",
          "type": "uint256"
        },
        {
          "indexed": false,
          "internalType": "uint256",
          "name": "valueAfter",
          "type": "uint256"
        }
      ],
      "name": "AllowanceUpdate",
      "type": "event"
    },
    {
      "anonymous": false,
      "inputs": [
        {
          "indexed": true,
          "internalType": "address",
          "name": "owner",
          "type": "address"
        },
        {
          "indexed": true,
          "internalType": "address",
          "name": "spender",
          "type": "address"
        },
        {
          "indexed": false,
          "internalType": "uint256",
          "name": "value",
          "type": "uint256"
        }
      ],
      "name": "Approval",
      "type": "event"
    },
    {
      "anonymous": false,
      "inputs": [
        {
          "indexed": true,
          "internalType": "address",
          "name": "burner",
          "type": "address"
        },
        {
          "indexed": false,
          "internalType": "uint256",
          "name": "tokenAmount",
          "type": "uint256"
        },
        {
          "indexed": false,
          "internalType": "uint256",
          "name": "assetAmount",
          "type": "uint256"
        },
        {
          "indexed": false,
          "internalType": "uint256",
          "name": "price",
          "type": "uint256"
        }
      ],
      "name": "Burn",
      "type": "event"
    },
    {
      "anonymous": false,
      "inputs": [
        {
          "indexed": false,
          "internalType": "address",
          "name": "borrower",
          "type": "address"
        },
        {
          "indexed": false,
          "internalType": "address",
          "name": "target",
          "type": "address"
        },
        {
          "indexed": false,
          "internalType": "address",
          "name": "loanToken",
          "type": "address"
        },
        {
          "indexed": false,
          "internalType": "uint256",
          "name": "loanAmount",
          "type": "uint256"
        }
      ],
      "name": "FlashBorrow",
      "type": "event"
    },
    {
      "anonymous": false,
      "inputs": [
        {
          "indexed": true,
          "internalType": "address",
          "name": "minter",
          "type": "address"
        },
        {
          "indexed": false,
          "internalType": "uint256",
          "name": "tokenAmount",
          "type": "uint256"
        },
        {
          "indexed": false,
          "internalType": "uint256",
          "name": "assetAmount",
          "type": "uint256"
        },
        {
          "indexed": false,
          "internalType": "uint256",
          "name": "price",
          "type": "uint256"
        }
      ],
      "name": "Mint",
      "type": "event"
    },
    {
      "anonymous": false,
      "inputs": [
        {
          "indexed": true,
          "internalType": "address",
          "name": "previousOwner",
          "type": "address"
        },
        {
          "indexed": true,
          "internalType": "address",
          "name": "newOwner",
          "type": "address"
        }
      ],
      "name": "OwnershipTransferred",
      "type": "event"
    },
    {
      "anonymous": false,
      "inputs": [
        {
          "indexed": true,
          "internalType": "address",
          "name": "from",
          "type": "address"
        },
        {
          "indexed": true,
          "internalType": "address",
          "name": "to",
          "type": "address"
        },
        {
          "indexed": false,
          "internalType": "uint256",
          "name": "value",
          "type": "uint256"
        }
      ],
      "name": "Transfer",
      "type": "event"
    },
    {
      "constant": true,
      "inputs": [],
      "name": "TINY_AMOUNT",
      "outputs": [
        {
          "internalType": "uint256",
          "name": "",
          "type": "uint256"
        }
      ],
      "payable": false,
      "stateMutability": "view",
      "type": "function"
    },
    {
      "constant": true,
      "inputs": [],
      "name": "VERSION",
      "outputs": [
        {
          "internalType": "uint256",
          "name": "",
          "type": "uint256"
        }
      ],
      "payable": false,
      "stateMutability": "view",
      "type": "function"
    },
    {
      "constant": true,
      "inputs": [],
      "name": "admin",
      "outputs": [
        {
          "internalType": "address",
          "name": "",
          "type": "address"
        }
      ],
      "payable": false,
      "stateMutability": "view",
      "type": "function"
    },
    {
      "constant": true,
      "inputs": [
        {
          "internalType": "address",
          "name": "_owner",
          "type": "address"
        },
        {
          "internalType": "address",
          "name": "_spender",
          "type": "address"
        }
      ],
      "name": "allowance",
      "outputs": [
        {
          "internalType": "uint256",
          "name": "",
          "type": "uint256"
        }
      ],
      "payable": false,
      "stateMutability": "view",
      "type": "function"
    },
    {
      "constant": false,
      "inputs": [
        {
          "internalType": "address",
          "name": "_spender",
          "type": "address"
        },
        {
          "internalType": "uint256",
          "name": "_value",
          "type": "uint256"
        }
      ],
      "name": "approve",
      "outputs": [
        {
          "internalType": "bool",
          "name": "",
          "type": "bool"
        }
      ],
      "payable": false,
      "stateMutability": "nonpayable",
      "type": "function"
    },
    {
      "constant": true,
      "inputs": [
        {
          "internalType": "address",
          "name": "_owner",
          "type": "address"
        }
      ],
      "name": "balanceOf",
      "outputs": [
        {
          "internalType": "uint256",
          "name": "",
          "type": "uint256"
        }
      ],
      "payable": false,
      "stateMutability": "view",
      "type": "function"
    },
    {
      "constant": true,
      "inputs": [],
      "name": "baseRate",
      "outputs": [
        {
          "internalType": "uint256",
          "name": "",
          "type": "uint256"
        }
      ],
      "payable": false,
      "stateMutability": "view",
      "type": "function"
    },
    {
      "constant": false,
      "inputs": [
        {
          "internalType": "address",
          "name": "receiver",
          "type": "address"
        },
        {
          "internalType": "uint256",
          "name": "burnAmount",
          "type": "uint256"
        }
      ],
      "name": "burn",
      "outputs": [
        {
          "internalType": "uint256",
          "name": "loanAmountPaid",
          "type": "uint256"
        }
      ],
      "payable": false,
      "stateMutability": "nonpayable",
      "type": "function"
    },
    {
      "constant": false,
      "inputs": [
        {
          "internalType": "address",
          "name": "receiver",
          "type": "address"
        },
        {
          "internalType": "uint256",
          "name": "burnAmount",
          "type": "uint256"
        },
        {
          "internalType": "bool",
          "name": "useLM",
          "type": "bool"
        }
      ],
      "name": "burnToBTC",
      "outputs": [
        {
          "internalType": "uint256",
          "name": "loanAmountPaid",
          "type": "uint256"
        }
      ],
      "payable": false,
      "stateMutability": "nonpayable",
      "type": "function"
    },
    {
      "constant": true,
      "inputs": [],
      "name": "checkpointSupply",
      "outputs": [
        {
          "internalType": "uint256",
          "name": "",
          "type": "uint256"
        }
      ],
      "payable": false,
      "stateMutability": "view",
      "type": "function"
    },
    {
      "constant": true,
      "inputs": [],
      "name": "decimals",
      "outputs": [
        {
          "internalType": "uint8",
          "name": "",
          "type": "uint8"
        }
      ],
      "payable": false,
      "stateMutability": "view",
      "type": "function"
    },
    {
      "constant": true,
      "inputs": [],
      "name": "earlyAccessToken",
      "outputs": [
        {
          "internalType": "address",
          "name": "",
          "type": "address"
        }
      ],
      "payable": false,
      "stateMutability": "view",
      "type": "function"
    },
    {
      "constant": true,
      "inputs": [],
      "name": "getListFunctionSignatures",
      "outputs": [
        {
          "internalType": "bytes4[]",
          "name": "functionSignatures",
          "type": "bytes4[]"
        },
        {
          "internalType": "bytes32",
          "name": "moduleName",
          "type": "bytes32"
        }
      ],
      "payable": false,
      "stateMutability": "pure",
      "type": "function"
    },
    {
      "constant": true,
      "inputs": [],
      "name": "initialPrice",
      "outputs": [
        {
          "internalType": "uint256",
          "name": "",
          "type": "uint256"
        }
      ],
      "payable": false,
      "stateMutability": "view",
      "type": "function"
    },
    {
      "constant": true,
      "inputs": [],
      "name": "isOwner",
      "outputs": [
        {
          "internalType": "bool",
          "name": "",
          "type": "bool"
        }
      ],
      "payable": false,
      "stateMutability": "view",
      "type": "function"
    },
    {
      "constant": true,
      "inputs": [],
      "name": "kinkLevel",
      "outputs": [
        {
          "internalType": "uint256",
          "name": "",
          "type": "uint256"
        }
      ],
      "payable": false,
      "stateMutability": "view",
      "type": "function"
    },
    {
      "constant": true,
      "inputs": [],
      "name": "liquidityMiningAddress",
      "outputs": [
        {
          "internalType": "address",
          "name": "",
          "type": "address"
        }
      ],
      "payable": false,
      "stateMutability": "view",
      "type": "function"
    },
    {
      "constant": true,
      "inputs": [
        {
          "internalType": "uint256",
          "name": "",
          "type": "uint256"
        }
      ],
      "name": "loanParamsIds",
      "outputs": [
        {
          "internalType": "bytes32",
          "name": "",
          "type": "bytes32"
        }
      ],
      "payable": false,
      "stateMutability": "view",
      "type": "function"
    },
    {
      "constant": true,
      "inputs": [],
      "name": "loanTokenAddress",
      "outputs": [
        {
          "internalType": "address",
          "name": "",
          "type": "address"
        }
      ],
      "payable": false,
      "stateMutability": "view",
      "type": "function"
    },
    {
      "constant": true,
      "inputs": [],
      "name": "lowUtilBaseRate",
      "outputs": [
        {
          "internalType": "uint256",
          "name": "",
          "type": "uint256"
        }
      ],
      "payable": false,
      "stateMutability": "view",
      "type": "function"
    },
    {
      "constant": true,
      "inputs": [],
      "name": "lowUtilRateMultiplier",
      "outputs": [
        {
          "internalType": "uint256",
          "name": "",
          "type": "uint256"
        }
      ],
      "payable": false,
      "stateMutability": "view",
      "type": "function"
    },
    {
      "constant": true,
      "inputs": [],
      "name": "maxScaleRate",
      "outputs": [
        {
          "internalType": "uint256",
          "name": "",
          "type": "uint256"
        }
      ],
      "payable": false,
      "stateMutability": "view",
      "type": "function"
    },
    {
      "constant": false,
      "inputs": [
        {
          "internalType": "address",
          "name": "receiver",
          "type": "address"
        },
        {
          "internalType": "uint256",
          "name": "depositAmount",
          "type": "uint256"
        }
      ],
      "name": "mint",
      "outputs": [
        {
          "internalType": "uint256",
          "name": "mintAmount",
          "type": "uint256"
        }
      ],
      "payable": false,
      "stateMutability": "nonpayable",
      "type": "function"
    },
    {
      "constant": false,
      "inputs": [
        {
          "internalType": "address",
          "name": "receiver",
          "type": "address"
        },
        {
          "internalType": "bool",
          "name": "useLM",
          "type": "bool"
        }
      ],
      "name": "mintWithBTC",
      "outputs": [
        {
          "internalType": "uint256",
          "name": "mintAmount",
          "type": "uint256"
        }
      ],
      "payable": true,
      "stateMutability": "payable",
      "type": "function"
    },
    {
      "constant": true,
      "inputs": [],
      "name": "name",
      "outputs": [
        {
          "internalType": "string",
          "name": "",
          "type": "string"
        }
      ],
      "payable": false,
      "stateMutability": "view",
      "type": "function"
    },
    {
      "constant": true,
      "inputs": [],
      "name": "owner",
      "outputs": [
        {
          "internalType": "address",
          "name": "",
          "type": "address"
        }
      ],
      "payable": false,
      "stateMutability": "view",
      "type": "function"
    },
    {
      "constant": true,
      "inputs": [],
      "name": "pauser",
      "outputs": [
        {
          "internalType": "address",
          "name": "",
          "type": "address"
        }
      ],
      "payable": false,
      "stateMutability": "view",
      "type": "function"
    },
    {
      "constant": true,
      "inputs": [],
      "name": "rateMultiplier",
      "outputs": [
        {
          "internalType": "uint256",
          "name": "",
          "type": "uint256"
        }
      ],
      "payable": false,
      "stateMutability": "view",
      "type": "function"
    },
    {
      "constant": true,
      "inputs": [],
      "name": "sovrynContractAddress",
      "outputs": [
        {
          "internalType": "address",
          "name": "",
          "type": "address"
        }
      ],
      "payable": false,
      "stateMutability": "view",
      "type": "function"
    },
    {
      "constant": true,
      "inputs": [],
      "name": "stakingContractAddress",
      "outputs": [
        {
          "internalType": "address",
          "name": "",
          "type": "address"
        }
      ],
      "payable": false,
      "stateMutability": "view",
      "type": "function"
    },
    {
      "constant": true,
      "inputs": [
        {
          "internalType": "string",
          "name": "source",
          "type": "string"
        }
      ],
      "name": "stringToBytes32",
      "outputs": [
        {
          "internalType": "bytes32",
          "name": "result",
          "type": "bytes32"
        }
      ],
      "payable": false,
      "stateMutability": "pure",
      "type": "function"
    },
    {
      "constant": true,
      "inputs": [],
      "name": "symbol",
      "outputs": [
        {
          "internalType": "string",
          "name": "",
          "type": "string"
        }
      ],
      "payable": false,
      "stateMutability": "view",
      "type": "function"
    },
    {
      "constant": true,
      "inputs": [],
      "name": "targetLevel",
      "outputs": [
        {
          "internalType": "uint256",
          "name": "",
          "type": "uint256"
        }
      ],
      "payable": false,
      "stateMutability": "view",
      "type": "function"
    },
    {
      "constant": true,
      "inputs": [],
      "name": "target_",
      "outputs": [
        {
          "internalType": "address",
          "name": "",
          "type": "address"
        }
      ],
      "payable": false,
      "stateMutability": "view",
      "type": "function"
    },
    {
      "constant": true,
      "inputs": [],
      "name": "tokenPrice",
      "outputs": [
        {
          "internalType": "uint256",
          "name": "price",
          "type": "uint256"
        }
      ],
      "payable": false,
      "stateMutability": "view",
      "type": "function"
    },
    {
      "constant": true,
      "inputs": [],
      "name": "totalAssetBorrow",
      "outputs": [
        {
          "internalType": "uint256",
          "name": "",
          "type": "uint256"
        }
      ],
      "payable": false,
      "stateMutability": "view",
      "type": "function"
    },
    {
      "constant": true,
      "inputs": [],
      "name": "totalSupply",
      "outputs": [
        {
          "internalType": "uint256",
          "name": "",
          "type": "uint256"
        }
      ],
      "payable": false,
      "stateMutability": "view",
      "type": "function"
    },
    {
      "constant": true,
      "inputs": [
        {
          "internalType": "address",
          "name": "",
          "type": "address"
        }
      ],
      "name": "transactionLimit",
      "outputs": [
        {
          "internalType": "uint256",
          "name": "",
          "type": "uint256"
        }
      ],
      "payable": false,
      "stateMutability": "view",
      "type": "function"
    },
    {
      "constant": false,
      "inputs": [
        {
          "internalType": "address",
          "name": "newOwner",
          "type": "address"
        }
      ],
      "name": "transferOwnership",
      "outputs": [],
      "payable": false,
      "stateMutability": "nonpayable",
      "type": "function"
    },
    {
      "constant": true,
      "inputs": [],
      "name": "wrbtcTokenAddress",
      "outputs": [
        {
          "internalType": "address",
          "name": "",
          "type": "address"
        }
      ],
      "payable": false,
      "stateMutability": "view",
      "type": "function"
    }
  ],
  "transactionHash": "0x5fb60abafeb8115812b48a8d31ede5c586c5231030ea79d7be8b8d6839cf30e9",
  "args": [],
  "numDeployments": 1,
  "solcInputHash": "95f62a041e12061a65b869c91b08367b",
  "bytecode": "0x60806040526001600090815561001c6001600160e01b0361006f16565b600180546001600160a01b0319166001600160a01b038316908117909155604051919250906000907f8be0079c531659141344cd1fd0a4f28419497f9722a3daafe3b4186f6b6457e0908290a350610073565b3390565b61300a806100826000396000f3fe60806040526004361061023b5760003560e01c80638da5cb5b1161012e578063cfb51928116100ab578063f2fde38b1161006f578063f2fde38b146105da578063f851a440146105fc578063f8dd4f0e14610611578063fb5f83df14610626578063ffa1ad74146106395761023b565b8063cfb5192814610550578063d759dbeb14610570578063dd62ed3e14610585578063e41b07e3146105a5578063ef2b0b39146105c55761023b565b80639bda3a98116100f25780639bda3a98146104dc5780639dc29fac146104f15780639fd0506d14610511578063ba0e43bf14610526578063ca37e6661461053b5761023b565b80638da5cb5b146104655780638ee6c4e61461047a5780638f32d59b1461048f57806390967de5146104a457806395d89b41146104c75761023b565b80633291c11a116101bc57806370a082311161018057806370a08231146103f1578063797bf385146104115780637b7933b4146104265780637e37c08c1461043b5780637ff9b596146104505761023b565b80633291c11a14610372578063330691ac146103925780633535f48b146103a757806340c10f19146103bc57806356e07d70146103dc5761023b565b80631d0806ae116102035780631d0806ae146102fc5780631f68f20a1461031157806320f6d07c146103265780632f6b600d1461033b578063313ce567146103505761023b565b80630506af041461024057806306947a3a1461027657806306fdde0314610298578063095ea7b3146102ba57806318160ddd146102e7575b600080fd5b34801561024c57600080fd5b5061026061025b36600461252a565b61064e565b60405161026d9190612d0d565b60405180910390f35b34801561028257600080fd5b5061028b61084e565b60405161026d9190612c30565b3480156102a457600080fd5b506102ad61085d565b60405161026d9190612d1b565b3480156102c657600080fd5b506102da6102d53660046124fa565b6108e8565b60405161026d9190612cff565b3480156102f357600080fd5b50610260610953565b34801561030857600080fd5b50610260610959565b34801561031d57600080fd5b5061026061095f565b34801561033257600080fd5b50610260610965565b34801561034757600080fd5b5061028b6109f9565b34801561035c57600080fd5b50610365610a08565b60405161026d9190612e95565b34801561037e57600080fd5b5061026061038d3660046125ca565b610a11565b34801561039e57600080fd5b50610260610a23565b3480156103b357600080fd5b5061028b610a29565b3480156103c857600080fd5b506102606103d73660046124fa565b610a38565b3480156103e857600080fd5b50610260610bab565b3480156103fd57600080fd5b5061026061040c366004612472565b610bb1565b34801561041d57600080fd5b5061028b610bd0565b34801561043257600080fd5b50610260610be4565b34801561044757600080fd5b50610260610bea565b34801561045c57600080fd5b50610260610bf0565b34801561047157600080fd5b5061028b610c32565b34801561048657600080fd5b5061028b610c41565b34801561049b57600080fd5b506102da610c50565b3480156104b057600080fd5b506104b9610c76565b60405161026d929190612cdf565b3480156104d357600080fd5b506102ad610da8565b3480156104e857600080fd5b5061028b610e03565b3480156104fd57600080fd5b5061026061050c3660046124fa565b610e12565b34801561051d57600080fd5b5061028b610f14565b34801561053257600080fd5b50610260610f23565b34801561054757600080fd5b5061028b610f29565b34801561055c57600080fd5b5061026061056b366004612595565b610f38565b34801561057c57600080fd5b50610260610f56565b34801561059157600080fd5b506102606105a0366004612490565b610f5c565b3480156105b157600080fd5b506102606105c0366004612472565b610f87565b3480156105d157600080fd5b50610260610f99565b3480156105e657600080fd5b506105fa6105f5366004612472565b610f9f565b005b34801561060857600080fd5b5061028b610fcf565b34801561061d57600080fd5b50610260610fde565b6102606106343660046124ca565b610fe8565b34801561064557600080fd5b506102606110c0565b600060016000541461067b5760405162461bcd60e51b815260040161067290612e3c565b60405180910390fd5b6002600081905550600073ba10edd6abc7696eae685839217bdcc42139612b6001600160a01b031663ed04e1c36040518163ffffffff1660e01b8152600401602060405180830381600087803b1580156106d457600080fd5b505af11580156106e8573d6000803e3d6000fd5b505050506040513d601f19601f8201168201806040525061070c91908101906125e8565b9050826107215761071c846110c5565b61072a565b61072a84611288565b9150811561079e57601754604051632e1a7d4d60e01b81526001600160a01b0390911690632e1a7d4d90610762908590600401612d0d565b600060405180830381600087803b15801561077c57600080fd5b505af1158015610790573d6000803e3d6000fd5b5050505061079e8583611439565b73ba10edd6abc7696eae685839217bdcc42139612b6001600160a01b0316633fa4f2456040518163ffffffff1660e01b815260040160206040518083038186803b1580156107eb57600080fd5b505afa1580156107ff573d6000803e3d6000fd5b505050506040513d601f19601f8201168201806040525061082391908101906125e8565b81146108415760405162461bcd60e51b815260040161067290612d2c565b5060016000559392505050565b6016546001600160a01b031681565b6002805460408051602060018416156101000260001901909316849004601f810184900484028201840190925281815292918301828280156108e05780601f106108b5576101008083540402835291602001916108e0565b820191906000526020600020905b8154815290600101906020018083116108c357829003601f168201915b505050505081565b3360008181526014602090815260408083206001600160a01b038716808552925280832085905551919290917f8c5be1e5ebec7d5bd14f71427d1e84f3dd0314c0f7b2291e5b200ac8c7c3b92590610941908690612d0d565b60405180910390a35060015b92915050565b60155490565b600e5481565b60055481565b6016546004805460405163250f447f60e11b81526000936001600160a01b0390811693634a1e88fe936109a49330936101009092049091169101612c3e565b60206040518083038186803b1580156109bc57600080fd5b505afa1580156109d0573d6000803e3d6000fd5b505050506040513d601f19601f820116820180604052506109f491908101906125e8565b905090565b6017546001600160a01b031681565b60045460ff1681565b60106020526000908152604090205481565b60065481565b601d546001600160a01b031681565b6000600160005414610a5c5760405162461bcd60e51b815260040161067290612e3c565b6002600081905550600073ba10edd6abc7696eae685839217bdcc42139612b6001600160a01b031663ed04e1c36040518163ffffffff1660e01b8152600401602060405180830381600087803b158015610ab557600080fd5b505af1158015610ac9573d6000803e3d6000fd5b505050506040513d601f19601f82011682018060405250610aed91908101906125e8565b9050610af984846114da565b91505b73ba10edd6abc7696eae685839217bdcc42139612b6001600160a01b0316633fa4f2456040518163ffffffff1660e01b815260040160206040518083038186803b158015610b4957600080fd5b505afa158015610b5d573d6000803e3d6000fd5b505050506040513d601f19601f82011682018060405250610b8191908101906125e8565b8114610b9f5760405162461bcd60e51b815260040161067290612d2c565b50600160005592915050565b600a5481565b6001600160a01b0381166000908152601360205260409020545b919050565b60045461010090046001600160a01b031681565b600d5481565b60085481565b600f546000908190426affffffffffffffffffffff908116911614610c1b57610c176115e6565b9150505b610c2c610c27826116b2565b611700565b91505090565b6001546001600160a01b031690565b601c546001600160a01b031681565b6001546000906001600160a01b0316610c6761172f565b6001600160a01b031614905090565b60408051600480825260a082019092526060916000918391602082016080803883390190505090506340c10f1960e01b81600081518110610cb357fe5b6001600160e01b0319909216602092830291909101909101528051632770a7eb60e21b9082906001908110610ce457fe5b6001600160e01b031990921660209283029190910190910152805163fb5f83df60e01b9082906002908110610d1557fe5b6001600160e01b0319909216602092830291909101909101528051630141abc160e21b9082906003908110610d4657fe5b60200260200101906001600160e01b03191690816001600160e01b0319168152505080610d9f604051806040016040528060158152602001744c6f616e546f6b656e4c6f67696357726274634c4d60581b815250610f38565b92509250509091565b6003805460408051602060026001851615610100026000190190941693909304601f810184900484028201840190925281815292918301828280156108e05780601f106108b5576101008083540402835291602001916108e0565b6018546001600160a01b031681565b6000600160005414610e365760405162461bcd60e51b815260040161067290612e3c565b6002600081905550600073ba10edd6abc7696eae685839217bdcc42139612b6001600160a01b031663ed04e1c36040518163ffffffff1660e01b8152600401602060405180830381600087803b158015610e8f57600080fd5b505af1158015610ea3573d6000803e3d6000fd5b505050506040513d601f19601f82011682018060405250610ec791908101906125e8565b9050610ed2836110c5565b91508115610afc57610afc600460019054906101000a90046001600160a01b03168584604051806040016040528060018152602001603560f81b815250611733565b601b546001600160a01b031681565b60095481565b601a546001600160a01b031681565b80516000908290610f4d575060009050610bcb565b50506020015190565b60075481565b6001600160a01b03918216600090815260146020908152604080832093909416825291909152205490565b60126020526000908152604090205481565b600b5481565b610fa7610c50565b610fc35760405162461bcd60e51b815260040161067290612e0c565b610fcc81611793565b50565b6019546001600160a01b031681565b65e35fa931a00081565b600060016000541461100c5760405162461bcd60e51b815260040161067290612e3c565b6002600081905550600073ba10edd6abc7696eae685839217bdcc42139612b6001600160a01b031663ed04e1c36040518163ffffffff1660e01b8152600401602060405180830381600087803b15801561106557600080fd5b505af1158015611079573d6000803e3d6000fd5b505050506040513d601f19601f8201168201806040525061109d91908101906125e8565b905082156110b6576110af8434611815565b9150610afc565b6110af84346114da565b600681565b6000816110e45760405162461bcd60e51b815260040161067290612e1c565b6110ed33610bb1565b8211156111215760001982146111155760405162461bcd60e51b815260040161067290612ddc565b61111e33610bb1565b91505b61112961189e565b6000611138610c2760006116b2565b90506000611164670de0b6b3a7640000611158868563ffffffff61194c16565b9063ffffffff61198616565b905060006111706119c8565b9050819350808411156111955760405162461bcd60e51b815260040161067290612dbc565b601c546000906001600160a01b03161561122e57601c54604051636822955360e11b81526001600160a01b039091169063d0452aa6906111db9030903390600401612c59565b60206040518083038186803b1580156111f357600080fd5b505afa158015611207573d6000803e3d6000fd5b505050506040513d601f19601f8201168201806040525061122b91908101906125e8565b90505b3360009081526013602052604081205461124e908363ffffffff6119fe16565b90506000611262828963ffffffff611a2316565b905061127033898989611a65565b5061127d33838389611b9d565b505050505050919050565b601c54604051636822955360e11b815260009182916001600160a01b039091169063d0452aa6906112bf9030903390600401612c59565b60206040518083038186803b1580156112d757600080fd5b505afa1580156112eb573d6000803e3d6000fd5b505050506040513d601f19601f8201168201806040525061130f91908101906125e8565b90508261132b61131e33610bb1565b839063ffffffff6119fe16565b10156113495760405162461bcd60e51b815260040161067290612dac565b801561142957828110156113c257601c54604051631a4ca37b60e21b81526001600160a01b03909116906369328dec9061138b90309085903390600401612cb7565b600060405180830381600087803b1580156113a557600080fd5b505af11580156113b9573d6000803e3d6000fd5b50505050611429565b601c54604051631a4ca37b60e21b81526001600160a01b03909116906369328dec906113f690309087903390600401612cb7565b600060405180830381600087803b15801561141057600080fd5b505af1158015611424573d6000803e3d6000fd5b505050505b611432836110c5565b9392505050565b804710156114595760405162461bcd60e51b815260040161067290612d9c565b6000826001600160a01b03168260405161147290612c25565b60006040518083038185875af1925050503d80600081146114af576040519150601f19603f3d011682016040523d82523d6000602084013e6114b4565b606091505b50509050806114d55760405162461bcd60e51b815260040161067290612d8c565b505050565b6000806114e683611c53565b601c5491935091506000906001600160a01b03161561158457601c54604051636822955360e11b81526001600160a01b039091169063d0452aa6906115319030908990600401612c3e565b60206040518083038186803b15801561154957600080fd5b505afa15801561155d573d6000803e3d6000fd5b505050506040513d601f19601f8201168201806040525061158191908101906125e8565b90505b6001600160a01b0385166000908152601360205260408120546115ad908363ffffffff6119fe16565b905060006115c1828663ffffffff6119fe16565b90506115cf87868887611d5d565b506115dc87838387611b9d565b5050505092915050565b60165460048054604051630d1979fb60e41b8152600093849384936001600160a01b039283169363d1979fb09361162893309361010090049091169101612c3e565b60c06040518083038186803b15801561164057600080fd5b505afa158015611654573d6000803e3d6000fd5b505050506040513d601f19601f820116820180604052506116789190810190612606565b50919650945092506116ab915068056bc75e2d63100000905061115861169e8285611a23565b859063ffffffff61194c16565b9150509091565b6000601554600014610bcb57600c54806116e8576116e56116d1610965565b6116d96119c8565b9063ffffffff6119fe16565b90505b6116f8818463ffffffff6119fe16565b915050610bcb565b6015546000908061171357600e54611432565b6114328161115885670de0b6b3a764000063ffffffff61194c16565b3390565b60405161178d90859063a9059cbb60e01b906117559087908790602401612c9c565b60408051601f198184030181529190526020810180516001600160e01b03166001600160e01b03199093169290921790915283611e6d565b50505050565b6001600160a01b0381166117b95760405162461bcd60e51b815260040161067290612d5c565b6001546040516001600160a01b038084169216907f8be0079c531659141344cd1fd0a4f28419497f9722a3daafe3b4186f6b6457e090600090a3600180546001600160a01b0319166001600160a01b0392909216919091179055565b600061182183836114da565b601c5490915061183d9084906001600160a01b03168380611f59565b50601c546040516336305cf160e21b81526001600160a01b039091169063d8c173c4906118709086908590600401612c9c565b600060405180830381600087803b15801561188a57600080fd5b505af11580156115dc573d6000803e3d6000fd5b600f5442906affffffffffffffffffffff808316911614610fcc5760165460048054604051630740ff7d60e51b81526001600160a01b039384169363e81fefa0936118f29361010090049091169101612c30565b600060405180830381600087803b15801561190c57600080fd5b505af1158015611920573d6000803e3d6000fd5b5050600f80546affffffffffffffffffffff85166affffffffffffffffffffff19909116179055505050565b60008261195b5750600061094d565b8282028284828161196857fe5b04146114325760405162461bcd60e51b815260040161067290612dfc565b600061143283836040518060400160405280601a81526020017f536166654d6174683a206469766973696f6e206279207a65726f000000000000815250612169565b600480546040516370a0823160e01b81526000926101009092046001600160a01b0316916370a08231916109a491309101612c30565b6000828201838110156114325760405162461bcd60e51b815260040161067290612d6c565b600061143283836040518060400160405280601e81526020017f536166654d6174683a207375627472616374696f6e206f766572666c6f7700008152506121a0565b6040805180820182526002815261189b60f11b6020808301919091526001600160a01b03871660009081526013909152918220548291611aad9190879063ffffffff6121a016565b9050600a8111611ace57611ac7858263ffffffff6119fe16565b9450600090505b6001600160a01b0386166000908152601360205260409020819055601554611afc908663ffffffff611a2316565b6015556040516001600160a01b038716907f743033787f4738ff4d6a7225ce2bd0977ee5f86b91a902a58f5e4d0b297b464490611b3e90889088908890612e7a565b60405180910390a260006001600160a01b0316866001600160a01b03167fddf252ad1be2c89b69c2b068fc378daa952ba7f163c4a11628f55a4df523b3ef87604051611b8a9190612d0d565b60405180910390a390505b949350505050565b604051600090611bd39086907f37aa2b7d583612f016e4a4de4292cb015139b3d7762663d06a53964912ea2fb690602001612bf3565b60405160208183030381529060405280519060200120905060008360001415611bff5760009250611c30565b8415611c30576001600160a01b038616600090815260116020526040902054611c2d908390879086906121cc565b90505b90556001600160a01b039093166000908152601160205260409020929092555050565b60008082611c735760405162461bcd60e51b815260040161067290612dec565b611c7b61189e565b611c88610c2760006116b2565b9050611ca68161115885670de0b6b3a764000063ffffffff61194c16565b915034611cee57611ce9600460019054906101000a90046001600160a01b031633308660405180604001604052806002815260200161062760f31b81525061222f565b611d58565b601760009054906101000a90046001600160a01b03166001600160a01b031663d0e30db0846040518263ffffffff1660e01b81526004016000604051808303818588803b158015611d3e57600080fd5b505af1158015611d52573d6000803e3d6000fd5b50505050505b915091565b60006001600160a01b038516611d855760405162461bcd60e51b815260040161067290612d3c565b6001600160a01b038516600090815260136020526040812054611dae908663ffffffff6119fe16565b6001600160a01b0387166000908152601360205260409020819055601554909150611ddf908663ffffffff6119fe16565b6015556040516001600160a01b038716907fb4c03061fb5b7fed76389d5af8f2e0ddb09f8c70d1333abbb62582835e10accb90611e2190889088908890612e7a565b60405180910390a2856001600160a01b031660006001600160a01b03167fddf252ad1be2c89b69c2b068fc378daa952ba7f163c4a11628f55a4df523b3ef87604051611b8a9190612d0d565b611e7683612253565b611e925760405162461bcd60e51b815260040161067290612d4c565b60006060846001600160a01b031684604051611eae9190612c19565b6000604051808303816000865af19150503d8060008114611eeb576040519150601f19603f3d011682016040523d82523d6000602084013e611ef0565b606091505b5091509150818390611f155760405162461bcd60e51b81526004016106729190612d1b565b50805115611f525780806020019051611f319190810190612577565b8390611f505760405162461bcd60e51b81526004016106729190612d1b565b505b5050505050565b60006000198214611ff2576040805180820190915260028152610c4d60f21b6020820152611f90908390859063ffffffff6121a016565b6001600160a01b038616600081815260146020908152604080832033808552925291829020849055905190927f628e75c63c1873bcd3885f7aee9f58ee36f60dc789b2a6b3a978c4189bc548ba91611fe9918791612e6c565b60405180910390a35b6001600160a01b0384166120185760405162461bcd60e51b815260040161067290612d3c565b6001600160a01b03851660009081526013602090815260408083205481518083019092526002825261189b60f11b92820192909252909190612063908390879063ffffffff6121a016565b6001600160a01b0380891660009081526013602052604080822084905591891681529081205491925061209c828863ffffffff6119fe16565b6001600160a01b03891660009081526013602052604081208290559091506120c2610bf0565b601c549091506001600160a01b038b81169116148015906120f15750601c546001600160a01b038a8116911614155b1561210e576121028a868684611b9d565b61210e89848484611b9d565b886001600160a01b03168a6001600160a01b03167fddf252ad1be2c89b69c2b068fc378daa952ba7f163c4a11628f55a4df523b3ef8a6040516121519190612d0d565b60405180910390a35060019998505050505050505050565b6000818361218a5760405162461bcd60e51b81526004016106729190612d1b565b50600083858161219657fe5b0495945050505050565b600081848411156121c45760405162461bcd60e51b81526004016106729190612d1b565b505050900390565b6000816121db57506000611b95565b5083546122268161221a670de0b6b3a764000061220e88612202898963ffffffff61228c16565b9063ffffffff6122d216565b9063ffffffff61233d16565b9063ffffffff6123a116565b95945050505050565b604051611f529086906323b872dd60e01b9061175590889088908890602401612c74565b6000813f7fc5d2460186f7233c927e7db2dcc703c0e500b653ca82273b7bfad8045d85a470818114801590611b95575050151592915050565b60008183038183128015906122a15750838113155b806122b657506000831280156122b657508381135b6114325760405162461bcd60e51b815260040161067290612e4c565b6000826122e15750600061094d565b826000191480156122f55750600160ff1b82145b156123125760405162461bcd60e51b815260040161067290612e2c565b8282028284828161231f57fe5b05146114325760405162461bcd60e51b815260040161067290612e2c565b60008161235c5760405162461bcd60e51b815260040161067290612e5c565b816000191480156123705750600160ff1b83145b1561238d5760405162461bcd60e51b815260040161067290612dcc565b600082848161239857fe5b05949350505050565b60008282018183128015906123b65750838112155b806123cb57506000831280156123cb57508381125b6114325760405162461bcd60e51b815260040161067290612d7c565b803561094d81612fa1565b803561094d81612fb5565b805161094d81612fb5565b600082601f83011261241957600080fd5b813561242c61242782612eca565b612ea3565b9150808252602083016020830185838301111561244857600080fd5b612453838284612f48565b50505092915050565b803561094d81612fbe565b805161094d81612fbe565b60006020828403121561248457600080fd5b6000611b9584846123e7565b600080604083850312156124a357600080fd5b60006124af85856123e7565b92505060206124c0858286016123e7565b9150509250929050565b600080604083850312156124dd57600080fd5b60006124e985856123e7565b92505060206124c0858286016123f2565b6000806040838503121561250d57600080fd5b600061251985856123e7565b92505060206124c08582860161245c565b60008060006060848603121561253f57600080fd5b600061254b86866123e7565b935050602061255c8682870161245c565b925050604061256d868287016123f2565b9150509250925092565b60006020828403121561258957600080fd5b6000611b9584846123fd565b6000602082840312156125a757600080fd5b813567ffffffffffffffff8111156125be57600080fd5b611b9584828501612408565b6000602082840312156125dc57600080fd5b6000611b95848461245c565b6000602082840312156125fa57600080fd5b6000611b958484612467565b60008060008060008060c0878903121561261f57600080fd5b600061262b8989612467565b965050602061263c89828a01612467565b955050604061264d89828a01612467565b945050606061265e89828a01612467565b935050608061266f89828a01612467565b92505060a061268089828a01612467565b9150509295509295509295565b60006126998383612746565b505060200190565b6126aa81612f37565b82525050565b6126aa81612f05565b6126aa6126c582612f05565b612f80565b60006126d582612ef8565b6126df8185612efc565b93506126ea83612ef2565b8060005b83811015612718578151612702888261268d565b975061270d83612ef2565b9250506001016126ee565b509495945050505050565b6126aa81612f10565b6126aa81612f15565b6126aa61274182612f15565b612f15565b6126aa81612f18565b600061275a82612ef8565b6127648185610bcb565b9350612774818560208601612f54565b9290920192915050565b600061278982612ef8565b6127938185612efc565b93506127a3818560208601612f54565b6127ac81612f91565b9093019392505050565b60006127c3601483612efc565b733932b2b73a3930b731bc903b34b7b630ba34b7b760611b815260200192915050565b60006127f3600283612efc565b61313560f01b815260200192915050565b6000612811601e83612efc565b7f63616c6c20746f2061206e6f6e2d636f6e747261637420616464726573730000815260200192915050565b600061284a602683612efc565b7f4f776e61626c653a206e6577206f776e657220697320746865207a65726f206181526564647265737360d01b602082015260400192915050565b6000612892601b83612efc565b7f536166654d6174683a206164646974696f6e206f766572666c6f770000000000815260200192915050565b60006128cb602183612efc565b7f5369676e6564536166654d6174683a206164646974696f6e206f766572666c6f8152607760f81b602082015260400192915050565b600061290e603a83612efc565b7f416464726573733a20756e61626c6520746f2073656e642076616c75652c207281527f6563697069656e74206d61792068617665207265766572746564000000000000602082015260400192915050565b600061296d601d83612efc565b7f416464726573733a20696e73756666696369656e742062616c616e6365000000815260200192915050565b60006129a6601283612efc565b716e6f7420656e6f7567682062616c616e636560701b815260200192915050565b60006129d4600283612efc565b61333760f01b815260200192915050565b60006129f2602183612efc565b7f5369676e6564536166654d6174683a206469766973696f6e206f766572666c6f8152607760f81b602082015260400192915050565b6000612a35600283612efc565b61199960f11b815260200192915050565b6000612a53600283612efc565b61313760f01b815260200192915050565b6000612a71602183612efc565b7f536166654d6174683a206d756c7469706c69636174696f6e206f766572666c6f8152607760f81b602082015260400192915050565b6000612ab4600c83612efc565b6b1d5b985d5d1a1bdc9a5e995960a21b815260200192915050565b6000612adc600283612efc565b61313960f01b815260200192915050565b6000612afa602783612efc565b7f5369676e6564536166654d6174683a206d756c7469706c69636174696f6e206f815266766572666c6f7760c81b602082015260400192915050565b600061094d600083610bcb565b6000612b50600c83612efc565b6b1b9bdb9499595b9d1c985b9d60a21b815260200192915050565b6000612b78602483612efc565b7f5369676e6564536166654d6174683a207375627472616374696f6e206f766572815263666c6f7760e01b602082015260400192915050565b6000612bbe602083612efc565b7f5369676e6564536166654d6174683a206469766973696f6e206279207a65726f815260200192915050565b6126aa81612f31565b6000612bff82856126b9565b601482019150612c0f8284612735565b5060200192915050565b6000611432828461274f565b600061094d82612b36565b6020810161094d82846126b0565b60408101612c4c82856126b0565b61143260208301846126b0565b60408101612c6782856126b0565b61143260208301846126a1565b60608101612c8282866126b0565b612c8f60208301856126b0565b611b95604083018461272c565b60408101612caa82856126b0565b611432602083018461272c565b60608101612cc582866126b0565b612cd2602083018561272c565b611b9560408301846126a1565b60408082528101612cf081856126ca565b9050611432602083018461272c565b6020810161094d8284612723565b6020810161094d828461272c565b60208082528101611432818461277e565b6020808252810161094d816127b6565b6020808252810161094d816127e6565b6020808252810161094d81612804565b6020808252810161094d8161283d565b6020808252810161094d81612885565b6020808252810161094d816128be565b6020808252810161094d81612901565b6020808252810161094d81612960565b6020808252810161094d81612999565b6020808252810161094d816129c7565b6020808252810161094d816129e5565b6020808252810161094d81612a28565b6020808252810161094d81612a46565b6020808252810161094d81612a64565b6020808252810161094d81612aa7565b6020808252810161094d81612acf565b6020808252810161094d81612aed565b6020808252810161094d81612b43565b6020808252810161094d81612b6b565b6020808252810161094d81612bb1565b60408101612caa828561272c565b60608101612e88828661272c565b612c8f602083018561272c565b6020810161094d8284612bea565b60405181810167ffffffffffffffff81118282101715612ec257600080fd5b604052919050565b600067ffffffffffffffff821115612ee157600080fd5b506020601f91909101601f19160190565b60200190565b5190565b90815260200190565b600061094d82612f25565b151590565b90565b6001600160e01b03191690565b6001600160a01b031690565b60ff1690565b600061094d82600061094d82612f05565b82818337506000910152565b60005b83811015612f6f578181015183820152602001612f57565b8381111561178d5750506000910152565b600061094d82600061094d82612f9b565b601f01601f191690565b60601b90565b612faa81612f05565b8114610fcc57600080fd5b612faa81612f10565b612faa81612f1556fea365627a7a723158205dd56bca311d7384ed20d98eeeea144154ddf5a9a85a67310f0d3a45711122906c6578706572696d656e74616cf564736f6c63430005110040",
  "devdoc": {
    "methods": {
      "allowance(address,address)": {
        "params": {
          "_owner": "The account owner of the iTokens.",
          "_spender": "The account allowed to send the iTokens."
        },
        "return": "The number of iTokens an account is allowing the spender  to send on its behalf."
      },
      "approve(address,uint256)": {
        "params": {
          "_spender": "The account address that will be able to spend the tokens.",
          "_value": "The amount of tokens allowed to spend."
        }
      },
      "balanceOf(address)": {
        "params": {
          "_owner": "The account owner of the iTokens."
        },
        "return": "The number of iTokens an account owns."
      },
      "burn(address,uint256)": {
        "params": {
          "burnAmount": "The amount of loan tokens to redeem.",
          "receiver": "The account getting the minted tokens."
        },
        "return": "The amount of underlying tokens payed to lender."
      },
      "getListFunctionSignatures()": {
        "details": "This function will return the list of function signature in this contract that are available for public call Then this function will be called by LoanTokenLogicBeacon, and the function signatures will be registred in LoanTokenLogicBeacon.To save the gas we can just directly return the list of function signature from this pure function. The other workaround (fancy way) is we can create a storage for the list of the function signature, and then we can store each function signature to that storage from the constructor. Then, in this function we just need to return that storage variable.",
        "return": "The list of function signatures (bytes4[])"
      },
      "isOwner()": {
        "details": "Returns true if the caller is the current owner."
      },
      "mint(address,uint256)": {
        "params": {
          "depositAmount": "The amount of underlying tokens provided on the  loan. (Not the number of loan tokens to mint).",
          "receiver": "The account getting the minted tokens."
        },
        "return": "The amount of loan tokens minted."
      },
      "owner()": {
        "details": "Returns the address of the current owner."
      },
      "tokenPrice()": {
        "return": "The loan token price."
      },
      "totalAssetBorrow()": {
        "return": "The total amount of loan tokens on debt."
      },
      "totalSupply()": {
        "return": "The total number of iTokens in existence as of now."
      },
      "transferOwnership(address)": {
        "details": "Transfers ownership of the contract to a new account (`newOwner`). Can only be called by the current owner."
      }
    }
  },
  "userdoc": {
    "methods": {
      "allowance(address,address)": {
        "notice": "Get the amount of iTokens allowed to be spent by a  given account on behalf of the owner."
      },
      "approve(address,uint256)": {
        "notice": "Set an amount as the allowance of `spender` over the caller's tokens.     * Returns a boolean value indicating whether the operation succeeded.     * IMPORTANT: Beware that changing an allowance with this method brings the risk that someone may use both the old and the new allowance by unfortunate transaction ordering. One possible solution to mitigate this race condition is to first reduce the spender's allowance to 0 and set the desired value afterwards: https://github.com/ethereum/EIPs/issues/20#issuecomment-263524729     * Emits an {Approval} event."
      },
      "balanceOf(address)": {
        "notice": "Get the amount of iTokens owned by an account."
      },
      "burn(address,uint256)": {
        "notice": "Burn loan token wrapper. Adds a pay-out transfer after calling low level _burnToken function. In order to withdraw funds to the pool, call burn on the respective loan token contract. This will burn your loan tokens and send you the underlying token in exchange."
      },
      "getListFunctionSignatures()": {
        "notice": "This function is MANDATORY, which will be called by LoanTokenLogicBeacon and be registered. Every new public function, the signature needs to be included in this function."
      },
      "mint(address,uint256)": {
        "notice": "Mint loan token wrapper. Adds a check before calling low level _mintToken function. The function retrieves the tokens from the message sender, so make sure to first approve the loan token contract to access your funds. This is done by calling approve(address spender, uint amount) on the ERC20 token contract, where spender is the loan token contract address and amount is the amount to be deposited."
      },
      "tokenPrice()": {
        "notice": "Loan token price calculation considering unpaid interests."
      },
      "totalAssetBorrow()": {
        "notice": "Get the total amount of loan tokens on debt. Calls protocol getTotalPrincipal function. In the context of borrowing, principal is the initial size of a loan. It can also be the amount still owed on a loan. If you take out a $50,000 mortgage, for example, the principal is $50,000. If you pay off $30,000, the principal balance now consists of the remaining $20,000."
      },
      "totalSupply()": {
        "notice": "Get the total supply of iTokens."
      }
    }
  },
  "storageLayout": {
    "storage": [
      {
        "astId": 54603,
        "contract": "contracts/connectors/loantoken/modules/beaconLogicWRBTC/LoanTokenLogicWrbtcLM.sol:LoanTokenLogicWrbtcLM",
        "label": "reentrancyLock",
        "offset": 0,
        "slot": "0",
        "type": "t_uint256"
      },
      {
        "astId": 54419,
        "contract": "contracts/connectors/loantoken/modules/beaconLogicWRBTC/LoanTokenLogicWrbtcLM.sol:LoanTokenLogicWrbtcLM",
        "label": "_owner",
        "offset": 0,
        "slot": "1",
        "type": "t_address"
      },
      {
        "astId": 483,
        "contract": "contracts/connectors/loantoken/modules/beaconLogicWRBTC/LoanTokenLogicWrbtcLM.sol:LoanTokenLogicWrbtcLM",
        "label": "name",
        "offset": 0,
        "slot": "2",
        "type": "t_string_storage"
      },
      {
        "astId": 485,
        "contract": "contracts/connectors/loantoken/modules/beaconLogicWRBTC/LoanTokenLogicWrbtcLM.sol:LoanTokenLogicWrbtcLM",
        "label": "symbol",
        "offset": 0,
        "slot": "3",
        "type": "t_string_storage"
      },
      {
        "astId": 487,
        "contract": "contracts/connectors/loantoken/modules/beaconLogicWRBTC/LoanTokenLogicWrbtcLM.sol:LoanTokenLogicWrbtcLM",
        "label": "decimals",
        "offset": 0,
        "slot": "4",
        "type": "t_uint8"
      },
      {
        "astId": 489,
        "contract": "contracts/connectors/loantoken/modules/beaconLogicWRBTC/LoanTokenLogicWrbtcLM.sol:LoanTokenLogicWrbtcLM",
        "label": "loanTokenAddress",
        "offset": 1,
        "slot": "4",
        "type": "t_address"
      },
      {
        "astId": 491,
        "contract": "contracts/connectors/loantoken/modules/beaconLogicWRBTC/LoanTokenLogicWrbtcLM.sol:LoanTokenLogicWrbtcLM",
        "label": "baseRate",
        "offset": 0,
        "slot": "5",
        "type": "t_uint256"
      },
      {
        "astId": 493,
        "contract": "contracts/connectors/loantoken/modules/beaconLogicWRBTC/LoanTokenLogicWrbtcLM.sol:LoanTokenLogicWrbtcLM",
        "label": "rateMultiplier",
        "offset": 0,
        "slot": "6",
        "type": "t_uint256"
      },
      {
        "astId": 495,
        "contract": "contracts/connectors/loantoken/modules/beaconLogicWRBTC/LoanTokenLogicWrbtcLM.sol:LoanTokenLogicWrbtcLM",
        "label": "lowUtilBaseRate",
        "offset": 0,
        "slot": "7",
        "type": "t_uint256"
      },
      {
        "astId": 497,
        "contract": "contracts/connectors/loantoken/modules/beaconLogicWRBTC/LoanTokenLogicWrbtcLM.sol:LoanTokenLogicWrbtcLM",
        "label": "lowUtilRateMultiplier",
        "offset": 0,
        "slot": "8",
        "type": "t_uint256"
      },
      {
        "astId": 499,
        "contract": "contracts/connectors/loantoken/modules/beaconLogicWRBTC/LoanTokenLogicWrbtcLM.sol:LoanTokenLogicWrbtcLM",
        "label": "targetLevel",
        "offset": 0,
        "slot": "9",
        "type": "t_uint256"
      },
      {
        "astId": 501,
        "contract": "contracts/connectors/loantoken/modules/beaconLogicWRBTC/LoanTokenLogicWrbtcLM.sol:LoanTokenLogicWrbtcLM",
        "label": "kinkLevel",
        "offset": 0,
        "slot": "10",
        "type": "t_uint256"
      },
      {
        "astId": 503,
        "contract": "contracts/connectors/loantoken/modules/beaconLogicWRBTC/LoanTokenLogicWrbtcLM.sol:LoanTokenLogicWrbtcLM",
        "label": "maxScaleRate",
        "offset": 0,
        "slot": "11",
        "type": "t_uint256"
      },
      {
        "astId": 505,
        "contract": "contracts/connectors/loantoken/modules/beaconLogicWRBTC/LoanTokenLogicWrbtcLM.sol:LoanTokenLogicWrbtcLM",
        "label": "_flTotalAssetSupply",
        "offset": 0,
        "slot": "12",
        "type": "t_uint256"
      },
      {
        "astId": 507,
        "contract": "contracts/connectors/loantoken/modules/beaconLogicWRBTC/LoanTokenLogicWrbtcLM.sol:LoanTokenLogicWrbtcLM",
        "label": "checkpointSupply",
        "offset": 0,
        "slot": "13",
        "type": "t_uint256"
      },
      {
        "astId": 509,
        "contract": "contracts/connectors/loantoken/modules/beaconLogicWRBTC/LoanTokenLogicWrbtcLM.sol:LoanTokenLogicWrbtcLM",
        "label": "initialPrice",
        "offset": 0,
        "slot": "14",
        "type": "t_uint256"
      },
      {
        "astId": 511,
        "contract": "contracts/connectors/loantoken/modules/beaconLogicWRBTC/LoanTokenLogicWrbtcLM.sol:LoanTokenLogicWrbtcLM",
        "label": "lastSettleTime_",
        "offset": 0,
        "slot": "15",
        "type": "t_uint88"
      },
      {
        "astId": 515,
        "contract": "contracts/connectors/loantoken/modules/beaconLogicWRBTC/LoanTokenLogicWrbtcLM.sol:LoanTokenLogicWrbtcLM",
        "label": "loanParamsIds",
        "offset": 0,
        "slot": "16",
        "type": "t_mapping(t_uint256,t_bytes32)"
      },
      {
        "astId": 519,
        "contract": "contracts/connectors/loantoken/modules/beaconLogicWRBTC/LoanTokenLogicWrbtcLM.sol:LoanTokenLogicWrbtcLM",
        "label": "checkpointPrices_",
        "offset": 0,
        "slot": "17",
        "type": "t_mapping(t_address,t_uint256)"
      },
      {
        "astId": 523,
        "contract": "contracts/connectors/loantoken/modules/beaconLogicWRBTC/LoanTokenLogicWrbtcLM.sol:LoanTokenLogicWrbtcLM",
        "label": "transactionLimit",
        "offset": 0,
        "slot": "18",
        "type": "t_mapping(t_address,t_uint256)"
      },
      {
        "astId": 236,
        "contract": "contracts/connectors/loantoken/modules/beaconLogicWRBTC/LoanTokenLogicWrbtcLM.sol:LoanTokenLogicWrbtcLM",
        "label": "balances",
        "offset": 0,
        "slot": "19",
        "type": "t_mapping(t_address,t_uint256)"
      },
      {
        "astId": 242,
        "contract": "contracts/connectors/loantoken/modules/beaconLogicWRBTC/LoanTokenLogicWrbtcLM.sol:LoanTokenLogicWrbtcLM",
        "label": "allowed",
        "offset": 0,
        "slot": "20",
        "type": "t_mapping(t_address,t_mapping(t_address,t_uint256))"
      },
      {
        "astId": 244,
        "contract": "contracts/connectors/loantoken/modules/beaconLogicWRBTC/LoanTokenLogicWrbtcLM.sol:LoanTokenLogicWrbtcLM",
        "label": "totalSupply_",
        "offset": 0,
        "slot": "21",
        "type": "t_uint256"
      },
      {
        "astId": 3991,
        "contract": "contracts/connectors/loantoken/modules/beaconLogicWRBTC/LoanTokenLogicWrbtcLM.sol:LoanTokenLogicWrbtcLM",
        "label": "sovrynContractAddress",
        "offset": 0,
        "slot": "22",
        "type": "t_address"
      },
      {
        "astId": 3993,
        "contract": "contracts/connectors/loantoken/modules/beaconLogicWRBTC/LoanTokenLogicWrbtcLM.sol:LoanTokenLogicWrbtcLM",
        "label": "wrbtcTokenAddress",
        "offset": 0,
        "slot": "23",
        "type": "t_address"
      },
      {
        "astId": 3995,
        "contract": "contracts/connectors/loantoken/modules/beaconLogicWRBTC/LoanTokenLogicWrbtcLM.sol:LoanTokenLogicWrbtcLM",
        "label": "target_",
        "offset": 0,
        "slot": "24",
        "type": "t_address"
      },
      {
        "astId": 3997,
        "contract": "contracts/connectors/loantoken/modules/beaconLogicWRBTC/LoanTokenLogicWrbtcLM.sol:LoanTokenLogicWrbtcLM",
        "label": "admin",
        "offset": 0,
        "slot": "25",
        "type": "t_address"
      },
      {
        "astId": 3999,
        "contract": "contracts/connectors/loantoken/modules/beaconLogicWRBTC/LoanTokenLogicWrbtcLM.sol:LoanTokenLogicWrbtcLM",
        "label": "earlyAccessToken",
        "offset": 0,
        "slot": "26",
        "type": "t_address"
      },
      {
        "astId": 4001,
        "contract": "contracts/connectors/loantoken/modules/beaconLogicWRBTC/LoanTokenLogicWrbtcLM.sol:LoanTokenLogicWrbtcLM",
        "label": "pauser",
        "offset": 0,
        "slot": "27",
        "type": "t_address"
      },
      {
        "astId": 4003,
        "contract": "contracts/connectors/loantoken/modules/beaconLogicWRBTC/LoanTokenLogicWrbtcLM.sol:LoanTokenLogicWrbtcLM",
        "label": "liquidityMiningAddress",
        "offset": 0,
        "slot": "28",
        "type": "t_address"
      },
      {
        "astId": 4005,
        "contract": "contracts/connectors/loantoken/modules/beaconLogicWRBTC/LoanTokenLogicWrbtcLM.sol:LoanTokenLogicWrbtcLM",
        "label": "stakingContractAddress",
        "offset": 0,
        "slot": "29",
        "type": "t_address"
      }
    ],
    "types": {
      "t_address": {
        "encoding": "inplace",
        "label": "address",
        "numberOfBytes": "20"
      },
      "t_bytes32": {
        "encoding": "inplace",
        "label": "bytes32",
        "numberOfBytes": "32"
      },
      "t_mapping(t_address,t_mapping(t_address,t_uint256))": {
        "encoding": "mapping",
        "key": "t_address",
        "label": "mapping(address => mapping(address => uint256))",
        "numberOfBytes": "32",
        "value": "t_mapping(t_address,t_uint256)"
      },
      "t_mapping(t_address,t_uint256)": {
        "encoding": "mapping",
        "key": "t_address",
        "label": "mapping(address => uint256)",
        "numberOfBytes": "32",
        "value": "t_uint256"
      },
      "t_mapping(t_uint256,t_bytes32)": {
        "encoding": "mapping",
        "key": "t_uint256",
        "label": "mapping(uint256 => bytes32)",
        "numberOfBytes": "32",
        "value": "t_bytes32"
      },
      "t_string_storage": {
        "encoding": "bytes",
        "label": "string",
        "numberOfBytes": "32"
      },
      "t_uint256": {
        "encoding": "inplace",
        "label": "uint256",
        "numberOfBytes": "32"
      },
      "t_uint8": {
        "encoding": "inplace",
        "label": "uint8",
        "numberOfBytes": "1"
      },
      "t_uint88": {
        "encoding": "inplace",
        "label": "uint88",
        "numberOfBytes": "11"
      }
    }
  }
}