{
  "address": "0xfaffde7161C58743B86a22EF268245560aC705dD",
  "abi": [
    {
      "anonymous": false,
      "inputs": [
        {
          "indexed": true,
          "internalType": "address",
          "name": "owner",
          "type": "address"
        },
        {
          "indexed": true,
          "internalType": "address",
          "name": "spender",
          "type": "address"
        },
        {
          "indexed": false,
          "internalType": "uint256",
          "name": "valueBefore",
          "type": "uint256"
        },
        {
          "indexed": false,
          "internalType": "uint256",
          "name": "valueAfter",
          "type": "uint256"
        }
      ],
      "name": "AllowanceUpdate",
      "type": "event"
    },
    {
      "anonymous": false,
      "inputs": [
        {
          "indexed": true,
          "internalType": "address",
          "name": "owner",
          "type": "address"
        },
        {
          "indexed": true,
          "internalType": "address",
          "name": "spender",
          "type": "address"
        },
        {
          "indexed": false,
          "internalType": "uint256",
          "name": "value",
          "type": "uint256"
        }
      ],
      "name": "Approval",
      "type": "event"
    },
    {
      "anonymous": false,
      "inputs": [
        {
          "indexed": true,
          "internalType": "address",
          "name": "burner",
          "type": "address"
        },
        {
          "indexed": false,
          "internalType": "uint256",
          "name": "tokenAmount",
          "type": "uint256"
        },
        {
          "indexed": false,
          "internalType": "uint256",
          "name": "assetAmount",
          "type": "uint256"
        },
        {
          "indexed": false,
          "internalType": "uint256",
          "name": "price",
          "type": "uint256"
        }
      ],
      "name": "Burn",
      "type": "event"
    },
    {
      "anonymous": false,
      "inputs": [
        {
          "indexed": false,
          "internalType": "address",
          "name": "borrower",
          "type": "address"
        },
        {
          "indexed": false,
          "internalType": "address",
          "name": "target",
          "type": "address"
        },
        {
          "indexed": false,
          "internalType": "address",
          "name": "loanToken",
          "type": "address"
        },
        {
          "indexed": false,
          "internalType": "uint256",
          "name": "loanAmount",
          "type": "uint256"
        }
      ],
      "name": "FlashBorrow",
      "type": "event"
    },
    {
      "anonymous": false,
      "inputs": [
        {
          "indexed": true,
          "internalType": "address",
          "name": "minter",
          "type": "address"
        },
        {
          "indexed": false,
          "internalType": "uint256",
          "name": "tokenAmount",
          "type": "uint256"
        },
        {
          "indexed": false,
          "internalType": "uint256",
          "name": "assetAmount",
          "type": "uint256"
        },
        {
          "indexed": false,
          "internalType": "uint256",
          "name": "price",
          "type": "uint256"
        }
      ],
      "name": "Mint",
      "type": "event"
    },
    {
      "anonymous": false,
      "inputs": [
        {
          "indexed": true,
          "internalType": "address",
          "name": "previousOwner",
          "type": "address"
        },
        {
          "indexed": true,
          "internalType": "address",
          "name": "newOwner",
          "type": "address"
        }
      ],
      "name": "OwnershipTransferred",
      "type": "event"
    },
    {
      "anonymous": false,
      "inputs": [
        {
          "indexed": true,
          "internalType": "address",
          "name": "from",
          "type": "address"
        },
        {
          "indexed": true,
          "internalType": "address",
          "name": "to",
          "type": "address"
        },
        {
          "indexed": false,
          "internalType": "uint256",
          "name": "value",
          "type": "uint256"
        }
      ],
      "name": "Transfer",
      "type": "event"
    },
    {
      "constant": true,
      "inputs": [],
      "name": "TINY_AMOUNT",
      "outputs": [
        {
          "internalType": "uint256",
          "name": "",
          "type": "uint256"
        }
      ],
      "payable": false,
      "stateMutability": "view",
      "type": "function"
    },
    {
      "constant": true,
      "inputs": [],
      "name": "VERSION",
      "outputs": [
        {
          "internalType": "uint256",
          "name": "",
          "type": "uint256"
        }
      ],
      "payable": false,
      "stateMutability": "view",
      "type": "function"
    },
    {
      "constant": true,
      "inputs": [],
      "name": "admin",
      "outputs": [
        {
          "internalType": "address",
          "name": "",
          "type": "address"
        }
      ],
      "payable": false,
      "stateMutability": "view",
      "type": "function"
    },
    {
      "constant": true,
      "inputs": [
        {
          "internalType": "address",
          "name": "_owner",
          "type": "address"
        },
        {
          "internalType": "address",
          "name": "_spender",
          "type": "address"
        }
      ],
      "name": "allowance",
      "outputs": [
        {
          "internalType": "uint256",
          "name": "",
          "type": "uint256"
        }
      ],
      "payable": false,
      "stateMutability": "view",
      "type": "function"
    },
    {
      "constant": false,
      "inputs": [
        {
          "internalType": "address",
          "name": "_spender",
          "type": "address"
        },
        {
          "internalType": "uint256",
          "name": "_value",
          "type": "uint256"
        }
      ],
      "name": "approve",
      "outputs": [
        {
          "internalType": "bool",
          "name": "",
          "type": "bool"
        }
      ],
      "payable": false,
      "stateMutability": "nonpayable",
      "type": "function"
    },
    {
      "constant": true,
      "inputs": [
        {
          "internalType": "address",
          "name": "_owner",
          "type": "address"
        }
      ],
      "name": "balanceOf",
      "outputs": [
        {
          "internalType": "uint256",
          "name": "",
          "type": "uint256"
        }
      ],
      "payable": false,
      "stateMutability": "view",
      "type": "function"
    },
    {
      "constant": true,
      "inputs": [],
      "name": "baseRate",
      "outputs": [
        {
          "internalType": "uint256",
          "name": "",
          "type": "uint256"
        }
      ],
      "payable": false,
      "stateMutability": "view",
      "type": "function"
    },
    {
      "constant": false,
      "inputs": [
        {
          "internalType": "address",
          "name": "receiver",
          "type": "address"
        },
        {
          "internalType": "uint256",
          "name": "burnAmount",
          "type": "uint256"
        },
        {
          "internalType": "bool",
          "name": "useLM",
          "type": "bool"
        }
      ],
      "name": "burn",
      "outputs": [
        {
          "internalType": "uint256",
          "name": "redeemed",
          "type": "uint256"
        }
      ],
      "payable": false,
      "stateMutability": "nonpayable",
      "type": "function"
    },
    {
      "constant": false,
      "inputs": [
        {
          "internalType": "address",
          "name": "receiver",
          "type": "address"
        },
        {
          "internalType": "uint256",
          "name": "burnAmount",
          "type": "uint256"
        }
      ],
      "name": "burn",
      "outputs": [
        {
          "internalType": "uint256",
          "name": "loanAmountPaid",
          "type": "uint256"
        }
      ],
      "payable": false,
      "stateMutability": "nonpayable",
      "type": "function"
    },
    {
      "constant": true,
      "inputs": [],
      "name": "checkpointSupply",
      "outputs": [
        {
          "internalType": "uint256",
          "name": "",
          "type": "uint256"
        }
      ],
      "payable": false,
      "stateMutability": "view",
      "type": "function"
    },
    {
      "constant": true,
      "inputs": [],
      "name": "decimals",
      "outputs": [
        {
          "internalType": "uint8",
          "name": "",
          "type": "uint8"
        }
      ],
      "payable": false,
      "stateMutability": "view",
      "type": "function"
    },
    {
      "constant": true,
      "inputs": [],
      "name": "earlyAccessToken",
      "outputs": [
        {
          "internalType": "address",
          "name": "",
          "type": "address"
        }
      ],
      "payable": false,
      "stateMutability": "view",
      "type": "function"
    },
    {
      "constant": true,
      "inputs": [],
      "name": "getListFunctionSignatures",
      "outputs": [
        {
          "internalType": "bytes4[]",
          "name": "functionSignatures",
          "type": "bytes4[]"
        },
        {
          "internalType": "bytes32",
          "name": "moduleName",
          "type": "bytes32"
        }
      ],
      "payable": false,
      "stateMutability": "pure",
      "type": "function"
    },
    {
      "constant": true,
      "inputs": [],
      "name": "initialPrice",
      "outputs": [
        {
          "internalType": "uint256",
          "name": "",
          "type": "uint256"
        }
      ],
      "payable": false,
      "stateMutability": "view",
      "type": "function"
    },
    {
      "constant": true,
      "inputs": [],
      "name": "isOwner",
      "outputs": [
        {
          "internalType": "bool",
          "name": "",
          "type": "bool"
        }
      ],
      "payable": false,
      "stateMutability": "view",
      "type": "function"
    },
    {
      "constant": true,
      "inputs": [],
      "name": "kinkLevel",
      "outputs": [
        {
          "internalType": "uint256",
          "name": "",
          "type": "uint256"
        }
      ],
      "payable": false,
      "stateMutability": "view",
      "type": "function"
    },
    {
      "constant": true,
      "inputs": [],
      "name": "liquidityMiningAddress",
      "outputs": [
        {
          "internalType": "address",
          "name": "",
          "type": "address"
        }
      ],
      "payable": false,
      "stateMutability": "view",
      "type": "function"
    },
    {
      "constant": true,
      "inputs": [
        {
          "internalType": "uint256",
          "name": "",
          "type": "uint256"
        }
      ],
      "name": "loanParamsIds",
      "outputs": [
        {
          "internalType": "bytes32",
          "name": "",
          "type": "bytes32"
        }
      ],
      "payable": false,
      "stateMutability": "view",
      "type": "function"
    },
    {
      "constant": true,
      "inputs": [],
      "name": "loanTokenAddress",
      "outputs": [
        {
          "internalType": "address",
          "name": "",
          "type": "address"
        }
      ],
      "payable": false,
      "stateMutability": "view",
      "type": "function"
    },
    {
      "constant": true,
      "inputs": [],
      "name": "lowUtilBaseRate",
      "outputs": [
        {
          "internalType": "uint256",
          "name": "",
          "type": "uint256"
        }
      ],
      "payable": false,
      "stateMutability": "view",
      "type": "function"
    },
    {
      "constant": true,
      "inputs": [],
      "name": "lowUtilRateMultiplier",
      "outputs": [
        {
          "internalType": "uint256",
          "name": "",
          "type": "uint256"
        }
      ],
      "payable": false,
      "stateMutability": "view",
      "type": "function"
    },
    {
      "constant": true,
      "inputs": [],
      "name": "maxScaleRate",
      "outputs": [
        {
          "internalType": "uint256",
          "name": "",
          "type": "uint256"
        }
      ],
      "payable": false,
      "stateMutability": "view",
      "type": "function"
    },
    {
      "constant": false,
      "inputs": [
        {
          "internalType": "address",
          "name": "receiver",
          "type": "address"
        },
        {
          "internalType": "uint256",
          "name": "depositAmount",
          "type": "uint256"
        }
      ],
      "name": "mint",
      "outputs": [
        {
          "internalType": "uint256",
          "name": "mintAmount",
          "type": "uint256"
        }
      ],
      "payable": false,
      "stateMutability": "nonpayable",
      "type": "function"
    },
    {
      "constant": false,
      "inputs": [
        {
          "internalType": "address",
          "name": "receiver",
          "type": "address"
        },
        {
          "internalType": "uint256",
          "name": "depositAmount",
          "type": "uint256"
        },
        {
          "internalType": "bool",
          "name": "useLM",
          "type": "bool"
        }
      ],
      "name": "mint",
      "outputs": [
        {
          "internalType": "uint256",
          "name": "minted",
          "type": "uint256"
        }
      ],
      "payable": false,
      "stateMutability": "nonpayable",
      "type": "function"
    },
    {
      "constant": true,
      "inputs": [],
      "name": "name",
      "outputs": [
        {
          "internalType": "string",
          "name": "",
          "type": "string"
        }
      ],
      "payable": false,
      "stateMutability": "view",
      "type": "function"
    },
    {
      "constant": true,
      "inputs": [],
      "name": "owner",
      "outputs": [
        {
          "internalType": "address",
          "name": "",
          "type": "address"
        }
      ],
      "payable": false,
      "stateMutability": "view",
      "type": "function"
    },
    {
      "constant": true,
      "inputs": [],
      "name": "pauser",
      "outputs": [
        {
          "internalType": "address",
          "name": "",
          "type": "address"
        }
      ],
      "payable": false,
      "stateMutability": "view",
      "type": "function"
    },
    {
      "constant": true,
      "inputs": [],
      "name": "rateMultiplier",
      "outputs": [
        {
          "internalType": "uint256",
          "name": "",
          "type": "uint256"
        }
      ],
      "payable": false,
      "stateMutability": "view",
      "type": "function"
    },
    {
      "constant": true,
      "inputs": [],
      "name": "sovrynContractAddress",
      "outputs": [
        {
          "internalType": "address",
          "name": "",
          "type": "address"
        }
      ],
      "payable": false,
      "stateMutability": "view",
      "type": "function"
    },
    {
      "constant": true,
      "inputs": [],
      "name": "stakingContractAddress",
      "outputs": [
        {
          "internalType": "address",
          "name": "",
          "type": "address"
        }
      ],
      "payable": false,
      "stateMutability": "view",
      "type": "function"
    },
    {
      "constant": true,
      "inputs": [
        {
          "internalType": "string",
          "name": "source",
          "type": "string"
        }
      ],
      "name": "stringToBytes32",
      "outputs": [
        {
          "internalType": "bytes32",
          "name": "result",
          "type": "bytes32"
        }
      ],
      "payable": false,
      "stateMutability": "pure",
      "type": "function"
    },
    {
      "constant": true,
      "inputs": [],
      "name": "symbol",
      "outputs": [
        {
          "internalType": "string",
          "name": "",
          "type": "string"
        }
      ],
      "payable": false,
      "stateMutability": "view",
      "type": "function"
    },
    {
      "constant": true,
      "inputs": [],
      "name": "targetLevel",
      "outputs": [
        {
          "internalType": "uint256",
          "name": "",
          "type": "uint256"
        }
      ],
      "payable": false,
      "stateMutability": "view",
      "type": "function"
    },
    {
      "constant": true,
      "inputs": [],
      "name": "target_",
      "outputs": [
        {
          "internalType": "address",
          "name": "",
          "type": "address"
        }
      ],
      "payable": false,
      "stateMutability": "view",
      "type": "function"
    },
    {
      "constant": true,
      "inputs": [],
      "name": "tokenPrice",
      "outputs": [
        {
          "internalType": "uint256",
          "name": "price",
          "type": "uint256"
        }
      ],
      "payable": false,
      "stateMutability": "view",
      "type": "function"
    },
    {
      "constant": true,
      "inputs": [],
      "name": "totalAssetBorrow",
      "outputs": [
        {
          "internalType": "uint256",
          "name": "",
          "type": "uint256"
        }
      ],
      "payable": false,
      "stateMutability": "view",
      "type": "function"
    },
    {
      "constant": true,
      "inputs": [],
      "name": "totalSupply",
      "outputs": [
        {
          "internalType": "uint256",
          "name": "",
          "type": "uint256"
        }
      ],
      "payable": false,
      "stateMutability": "view",
      "type": "function"
    },
    {
      "constant": true,
      "inputs": [
        {
          "internalType": "address",
          "name": "",
          "type": "address"
        }
      ],
      "name": "transactionLimit",
      "outputs": [
        {
          "internalType": "uint256",
          "name": "",
          "type": "uint256"
        }
      ],
      "payable": false,
      "stateMutability": "view",
      "type": "function"
    },
    {
      "constant": false,
      "inputs": [
        {
          "internalType": "address",
          "name": "newOwner",
          "type": "address"
        }
      ],
      "name": "transferOwnership",
      "outputs": [],
      "payable": false,
      "stateMutability": "nonpayable",
      "type": "function"
    },
    {
      "constant": true,
      "inputs": [],
      "name": "wrbtcTokenAddress",
      "outputs": [
        {
          "internalType": "address",
          "name": "",
          "type": "address"
        }
      ],
      "payable": false,
      "stateMutability": "view",
      "type": "function"
    }
  ],
  "transactionHash": "0xac575f7ecdd523aab54385a399162b91786c3c6e5e4497737909b766296feafa",
  "args": [],
  "numDeployments": 1,
  "solcInputHash": "95f62a041e12061a65b869c91b08367b",
  "bytecode": "0x60806040526001600090815561001c6001600160e01b0361006f16565b600180546001600160a01b0319166001600160a01b038316908117909155604051919250906000907f8be0079c531659141344cd1fd0a4f28419497f9722a3daafe3b4186f6b6457e0908290a350610073565b3390565b612d83806100826000396000f3fe608060405234801561001057600080fd5b50600436106102485760003560e01c80638da5cb5b1161013b578063cfb51928116100b8578063ef2b0b391161007c578063ef2b0b391461042b578063f2fde38b14610433578063f851a44014610448578063f8dd4f0e14610450578063ffa1ad741461045857610248565b8063cfb51928146103d7578063d1a1beb4146103ea578063d759dbeb146103fd578063dd62ed3e14610405578063e41b07e31461041857610248565b80639bda3a98116100ff5780639bda3a98146103a45780639dc29fac146103ac5780639fd0506d146103bf578063ba0e43bf146103c7578063ca37e666146103cf57610248565b80638da5cb5b1461036e5780638ee6c4e6146103765780638f32d59b1461037e57806390967de51461038657806395d89b411461039c57610248565b8063330691ac116101c957806376fd4fdf1161018d57806376fd4fdf1461033b578063797bf3851461034e5780637b7933b4146103565780637e37c08c1461035e5780637ff9b5961461036657610248565b8063330691ac146102fd5780633535f48b1461030557806340c10f191461030d57806356e07d701461032057806370a082311461032857610248565b80631f68f20a116102105780631f68f20a146102bd57806320f6d07c146102c55780632f6b600d146102cd578063313ce567146102d55780633291c11a146102ea57610248565b806306947a3a1461024d57806306fdde031461026b578063095ea7b31461028057806318160ddd146102a05780631d0806ae146102b5575b600080fd5b610255610460565b60405161026291906129c9565b60405180910390f35b61027361046f565b6040516102629190612ab4565b61029361028e366004612243565b6104fa565b6040516102629190612a98565b6102a8610565565b6040516102629190612aa6565b6102a861056b565b6102a8610571565b6102a8610577565b61025561060b565b6102dd61061a565b6040516102629190612c0e565b6102a86102f8366004612313565b610623565b6102a8610635565b61025561063b565b6102a861031b366004612243565b61064a565b6102a86107c6565b6102a86103363660046121eb565b6107cc565b6102a8610349366004612273565b6107eb565b6102556109c8565b6102a86109dc565b6102a86109e2565b6102a86109e8565b610255610a2a565b610255610a39565b610293610a48565b61038e610a6e565b604051610262929190612a78565b610273610bc2565b610255610c1d565b6102a86103ba366004612243565b610c2c565b610255610d2e565b6102a8610d3d565b610255610d43565b6102a86103e53660046122de565b610d52565b6102a86103f8366004612273565b610d70565b6102a8610e48565b6102a8610413366004612209565b610e4e565b6102a86104263660046121eb565b610e79565b6102a8610e8b565b6104466104413660046121eb565b610e91565b005b610255610ec1565b6102a8610ed0565b6102a8610eda565b6016546001600160a01b031681565b6002805460408051602060018416156101000260001901909316849004601f810184900484028201840190925281815292918301828280156104f25780601f106104c7576101008083540402835291602001916104f2565b820191906000526020600020905b8154815290600101906020018083116104d557829003601f168201915b505050505081565b3360008181526014602090815260408083206001600160a01b038716808552925280832085905551919290917f8c5be1e5ebec7d5bd14f71427d1e84f3dd0314c0f7b2291e5b200ac8c7c3b92590610553908690612aa6565b60405180910390a35060015b92915050565b60155490565b600e5481565b60055481565b6016546004805460405163250f447f60e11b81526000936001600160a01b0390811693634a1e88fe936105b693309361010090920490911691016129d7565b60206040518083038186803b1580156105ce57600080fd5b505afa1580156105e2573d6000803e3d6000fd5b505050506040513d601f19601f820116820180604052506106069190810190612331565b905090565b6017546001600160a01b031681565b60045460ff1681565b60106020526000908152604090205481565b60065481565b601d546001600160a01b031681565b60006001600054146106775760405162461bcd60e51b815260040161066e90612bb5565b60405180910390fd5b6002600081905550600073ba10edd6abc7696eae685839217bdcc42139612b6001600160a01b031663ed04e1c36040518163ffffffff1660e01b8152600401602060405180830381600087803b1580156106d057600080fd5b505af11580156106e4573d6000803e3d6000fd5b505050506040513d601f19601f820116820180604052506107089190810190612331565b90506107148484610edf565b91505b73ba10edd6abc7696eae685839217bdcc42139612b6001600160a01b0316633fa4f2456040518163ffffffff1660e01b815260040160206040518083038186803b15801561076457600080fd5b505afa158015610778573d6000803e3d6000fd5b505050506040513d601f19601f8201168201806040525061079c9190810190612331565b81146107ba5760405162461bcd60e51b815260040161066e90612ac5565b50600160005592915050565b600a5481565b6001600160a01b0381166000908152601360205260409020545b919050565b600060016000541461080f5760405162461bcd60e51b815260040161066e90612bb5565b6002600081905550600073ba10edd6abc7696eae685839217bdcc42139612b6001600160a01b031663ed04e1c36040518163ffffffff1660e01b8152600401602060405180830381600087803b15801561086857600080fd5b505af115801561087c573d6000803e3d6000fd5b505050506040513d601f19601f820116820180604052506108a09190810190612331565b905082156108b8576108b184610feb565b91506108c4565b6108c18461119c565b91505b811561091857610918600460019054906101000a90046001600160a01b0316868460405180604001604052806015815260200174185cdcd95d081d1c985b9cd9995c8819985a5b1959605a1b81525061135f565b73ba10edd6abc7696eae685839217bdcc42139612b6001600160a01b0316633fa4f2456040518163ffffffff1660e01b815260040160206040518083038186803b15801561096557600080fd5b505afa158015610979573d6000803e3d6000fd5b505050506040513d601f19601f8201168201806040525061099d9190810190612331565b81146109bb5760405162461bcd60e51b815260040161066e90612ac5565b5060016000559392505050565b60045461010090046001600160a01b031681565b600d5481565b60085481565b600f546000908190426affffffffffffffffffffff908116911614610a1357610a0f6113bf565b9150505b610a24610a1f8261148b565b6114d9565b91505090565b6001546001600160a01b031690565b601c546001600160a01b031681565b6001546000906001600160a01b0316610a5f611508565b6001600160a01b031614905090565b60408051600480825260a08201909252606091600091839160208201608080388339019050509050604051610aa29061299d565b604051809103902081600081518110610ab757fe5b6001600160e01b031990921660209283029190910190910152604051610adc906129be565b604051809103902081600181518110610af157fe5b6001600160e01b031990921660209283029190910190910152604051610b16906129b3565b604051809103902081600281518110610b2b57fe5b6001600160e01b031990921660209283029190910190910152604051610b50906129a8565b604051809103902081600381518110610b6557fe5b60200260200101906001600160e01b03191690816001600160e01b0319168152505080610bb96040518060400160405280601081526020016f4c6f616e546f6b656e4c6f6769634c4d60801b815250610d52565b92509250509091565b6003805460408051602060026001851615610100026000190190941693909304601f810184900484028201840190925281815292918301828280156104f25780601f106104c7576101008083540402835291602001916104f2565b6018546001600160a01b031681565b6000600160005414610c505760405162461bcd60e51b815260040161066e90612bb5565b6002600081905550600073ba10edd6abc7696eae685839217bdcc42139612b6001600160a01b031663ed04e1c36040518163ffffffff1660e01b8152600401602060405180830381600087803b158015610ca957600080fd5b505af1158015610cbd573d6000803e3d6000fd5b505050506040513d601f19601f82011682018060405250610ce19190810190612331565b9050610cec8361119c565b9150811561071757610717600460019054906101000a90046001600160a01b03168584604051806040016040528060018152602001603560f81b81525061135f565b601b546001600160a01b031681565b60095481565b601a546001600160a01b031681565b80516000908290610d675750600090506107e6565b50506020015190565b6000600160005414610d945760405162461bcd60e51b815260040161066e90612bb5565b6002600081905550600073ba10edd6abc7696eae685839217bdcc42139612b6001600160a01b031663ed04e1c36040518163ffffffff1660e01b8152600401602060405180830381600087803b158015610ded57600080fd5b505af1158015610e01573d6000803e3d6000fd5b505050506040513d601f19601f82011682018060405250610e259190810190612331565b90508215610e3e57610e37858561150c565b9150610918565b610e378585610edf565b60075481565b6001600160a01b03918216600090815260146020908152604080832093909416825291909152205490565b60126020526000908152604090205481565b600b5481565b610e99610a48565b610eb55760405162461bcd60e51b815260040161066e90612b85565b610ebe81611595565b50565b6019546001600160a01b031681565b65e35fa931a00081565b600681565b600080610eeb83611617565b601c5491935091506000906001600160a01b031615610f8957601c54604051636822955360e11b81526001600160a01b039091169063d0452aa690610f3690309089906004016129d7565b60206040518083038186803b158015610f4e57600080fd5b505afa158015610f62573d6000803e3d6000fd5b505050506040513d601f19601f82011682018060405250610f869190810190612331565b90505b6001600160a01b038516600090815260136020526040812054610fb2908363ffffffff61172116565b90506000610fc6828663ffffffff61172116565b9050610fd487868887611746565b50610fe187838387611869565b5050505092915050565b601c54604051636822955360e11b815260009182916001600160a01b039091169063d0452aa69061102290309033906004016129f2565b60206040518083038186803b15801561103a57600080fd5b505afa15801561104e573d6000803e3d6000fd5b505050506040513d601f19601f820116820180604052506110729190810190612331565b90508261108e611081336107cc565b839063ffffffff61172116565b10156110ac5760405162461bcd60e51b815260040161066e90612b25565b801561118c578281101561112557601c54604051631a4ca37b60e21b81526001600160a01b03909116906369328dec906110ee90309085903390600401612a50565b600060405180830381600087803b15801561110857600080fd5b505af115801561111c573d6000803e3d6000fd5b5050505061118c565b601c54604051631a4ca37b60e21b81526001600160a01b03909116906369328dec9061115990309087903390600401612a50565b600060405180830381600087803b15801561117357600080fd5b505af1158015611187573d6000803e3d6000fd5b505050505b6111958361119c565b9392505050565b6000816111bb5760405162461bcd60e51b815260040161066e90612b95565b6111c4336107cc565b8211156111f85760001982146111ec5760405162461bcd60e51b815260040161066e90612b55565b6111f5336107cc565b91505b61120061191f565b600061120f610a1f600061148b565b9050600061123b670de0b6b3a764000061122f868563ffffffff6119cd16565b9063ffffffff611a0716565b90506000611247611a49565b90508193508084111561126c5760405162461bcd60e51b815260040161066e90612b35565b601c546000906001600160a01b03161561130557601c54604051636822955360e11b81526001600160a01b039091169063d0452aa6906112b290309033906004016129f2565b60206040518083038186803b1580156112ca57600080fd5b505afa1580156112de573d6000803e3d6000fd5b505050506040513d601f19601f820116820180604052506113029190810190612331565b90505b33600090815260136020526040812054611325908363ffffffff61172116565b90506000611339828963ffffffff611a7f16565b905061134733898989611ac1565b5061135433838389611869565b505050505050919050565b6040516113b990859063a9059cbb60e01b906113819087908790602401612a35565b60408051601f198184030181529190526020810180516001600160e01b03166001600160e01b03199093169290921790915283611be6565b50505050565b60165460048054604051630d1979fb60e41b8152600093849384936001600160a01b039283169363d1979fb093611401933093610100900490911691016129d7565b60c06040518083038186803b15801561141957600080fd5b505afa15801561142d573d6000803e3d6000fd5b505050506040513d601f19601f82011682018060405250611451919081019061234f565b5091965094509250611484915068056bc75e2d63100000905061122f6114778285611a7f565b859063ffffffff6119cd16565b9150509091565b60006015546000146107e657600c54806114c1576114be6114aa610577565b6114b2611a49565b9063ffffffff61172116565b90505b6114d1818463ffffffff61172116565b9150506107e6565b601554600090806114ec57600e54611195565b6111958161122f85670de0b6b3a764000063ffffffff6119cd16565b3390565b60006115188383610edf565b601c549091506115349084906001600160a01b03168380611cd2565b50601c546040516336305cf160e21b81526001600160a01b039091169063d8c173c4906115679086908590600401612a35565b600060405180830381600087803b15801561158157600080fd5b505af1158015610fe1573d6000803e3d6000fd5b6001600160a01b0381166115bb5760405162461bcd60e51b815260040161066e90612af5565b6001546040516001600160a01b038084169216907f8be0079c531659141344cd1fd0a4f28419497f9722a3daafe3b4186f6b6457e090600090a3600180546001600160a01b0319166001600160a01b0392909216919091179055565b600080826116375760405162461bcd60e51b815260040161066e90612b65565b61163f61191f565b61164c610a1f600061148b565b905061166a8161122f85670de0b6b3a764000063ffffffff6119cd16565b9150346116b2576116ad600460019054906101000a90046001600160a01b031633308660405180604001604052806002815260200161062760f31b815250611ee2565b61171c565b601760009054906101000a90046001600160a01b03166001600160a01b031663d0e30db0846040518263ffffffff1660e01b81526004016000604051808303818588803b15801561170257600080fd5b505af1158015611716573d6000803e3d6000fd5b50505050505b915091565b6000828201838110156111955760405162461bcd60e51b815260040161066e90612b05565b60006001600160a01b03851661176e5760405162461bcd60e51b815260040161066e90612ad5565b6001600160a01b038516600090815260136020526040812054611797908663ffffffff61172116565b6001600160a01b03871660009081526013602052604090208190556015549091506117c8908663ffffffff61172116565b6015556040516001600160a01b038716907fb4c03061fb5b7fed76389d5af8f2e0ddb09f8c70d1333abbb62582835e10accb9061180a90889088908890612bf3565b60405180910390a2856001600160a01b031660006001600160a01b03167fddf252ad1be2c89b69c2b068fc378daa952ba7f163c4a11628f55a4df523b3ef876040516118569190612aa6565b60405180910390a390505b949350505050565b60405160009061189f9086907f37aa2b7d583612f016e4a4de4292cb015139b3d7762663d06a53964912ea2fb69060200161296b565b604051602081830303815290604052805190602001209050600083600014156118cb57600092506118fc565b84156118fc576001600160a01b0386166000908152601160205260409020546118f990839087908690611f06565b90505b90556001600160a01b039093166000908152601160205260409020929092555050565b600f5442906affffffffffffffffffffff808316911614610ebe5760165460048054604051630740ff7d60e51b81526001600160a01b039384169363e81fefa09361197393610100900490911691016129c9565b600060405180830381600087803b15801561198d57600080fd5b505af11580156119a1573d6000803e3d6000fd5b5050600f80546affffffffffffffffffffff85166affffffffffffffffffffff19909116179055505050565b6000826119dc5750600061055f565b828202828482816119e957fe5b04146111955760405162461bcd60e51b815260040161066e90612b75565b600061119583836040518060400160405280601a81526020017f536166654d6174683a206469766973696f6e206279207a65726f000000000000815250611f69565b600480546040516370a0823160e01b81526000926101009092046001600160a01b0316916370a08231916105b6913091016129c9565b600061119583836040518060400160405280601e81526020017f536166654d6174683a207375627472616374696f6e206f766572666c6f770000815250611fa0565b6040805180820182526002815261189b60f11b6020808301919091526001600160a01b03871660009081526013909152918220548291611b099190879063ffffffff611fa016565b9050600a8111611b2a57611b23858263ffffffff61172116565b9450600090505b6001600160a01b0386166000908152601360205260409020819055601554611b58908663ffffffff611a7f16565b6015556040516001600160a01b038716907f743033787f4738ff4d6a7225ce2bd0977ee5f86b91a902a58f5e4d0b297b464490611b9a90889088908890612bf3565b60405180910390a260006001600160a01b0316866001600160a01b03167fddf252ad1be2c89b69c2b068fc378daa952ba7f163c4a11628f55a4df523b3ef876040516118569190612aa6565b611bef83611fcc565b611c0b5760405162461bcd60e51b815260040161066e90612ae5565b60006060846001600160a01b031684604051611c279190612991565b6000604051808303816000865af19150503d8060008114611c64576040519150601f19603f3d011682016040523d82523d6000602084013e611c69565b606091505b5091509150818390611c8e5760405162461bcd60e51b815260040161066e9190612ab4565b50805115611ccb5780806020019051611caa91908101906122c0565b8390611cc95760405162461bcd60e51b815260040161066e9190612ab4565b505b5050505050565b60006000198214611d6b576040805180820190915260028152610c4d60f21b6020820152611d09908390859063ffffffff611fa016565b6001600160a01b038616600081815260146020908152604080832033808552925291829020849055905190927f628e75c63c1873bcd3885f7aee9f58ee36f60dc789b2a6b3a978c4189bc548ba91611d62918791612be5565b60405180910390a35b6001600160a01b038416611d915760405162461bcd60e51b815260040161066e90612ad5565b6001600160a01b03851660009081526013602090815260408083205481518083019092526002825261189b60f11b92820192909252909190611ddc908390879063ffffffff611fa016565b6001600160a01b03808916600090815260136020526040808220849055918916815290812054919250611e15828863ffffffff61172116565b6001600160a01b0389166000908152601360205260408120829055909150611e3b6109e8565b601c549091506001600160a01b038b8116911614801590611e6a5750601c546001600160a01b038a8116911614155b15611e8757611e7b8a868684611869565b611e8789848484611869565b886001600160a01b03168a6001600160a01b03167fddf252ad1be2c89b69c2b068fc378daa952ba7f163c4a11628f55a4df523b3ef8a604051611eca9190612aa6565b60405180910390a35060019998505050505050505050565b604051611ccb9086906323b872dd60e01b9061138190889088908890602401612a0d565b600081611f1557506000611861565b508354611f6081611f54670de0b6b3a7640000611f4888611f3c898963ffffffff61200516565b9063ffffffff61204b16565b9063ffffffff6120b616565b9063ffffffff61211a16565b95945050505050565b60008183611f8a5760405162461bcd60e51b815260040161066e9190612ab4565b506000838581611f9657fe5b0495945050505050565b60008184841115611fc45760405162461bcd60e51b815260040161066e9190612ab4565b505050900390565b6000813f7fc5d2460186f7233c927e7db2dcc703c0e500b653ca82273b7bfad8045d85a470818114801590611861575050151592915050565b600081830381831280159061201a5750838113155b8061202f575060008312801561202f57508381135b6111955760405162461bcd60e51b815260040161066e90612bc5565b60008261205a5750600061055f565b8260001914801561206e5750600160ff1b82145b1561208b5760405162461bcd60e51b815260040161066e90612ba5565b8282028284828161209857fe5b05146111955760405162461bcd60e51b815260040161066e90612ba5565b6000816120d55760405162461bcd60e51b815260040161066e90612bd5565b816000191480156120e95750600160ff1b83145b156121065760405162461bcd60e51b815260040161066e90612b45565b600082848161211157fe5b05949350505050565b600082820181831280159061212f5750838112155b80612144575060008312801561214457508381125b6111955760405162461bcd60e51b815260040161066e90612b15565b803561055f81612d1a565b803561055f81612d2e565b805161055f81612d2e565b600082601f83011261219257600080fd5b81356121a56121a082612c43565b612c1c565b915080825260208301602083018583830111156121c157600080fd5b6121cc838284612cc1565b50505092915050565b803561055f81612d37565b805161055f81612d37565b6000602082840312156121fd57600080fd5b60006118618484612160565b6000806040838503121561221c57600080fd5b60006122288585612160565b925050602061223985828601612160565b9150509250929050565b6000806040838503121561225657600080fd5b60006122628585612160565b9250506020612239858286016121d5565b60008060006060848603121561228857600080fd5b60006122948686612160565b93505060206122a5868287016121d5565b92505060406122b68682870161216b565b9150509250925092565b6000602082840312156122d257600080fd5b60006118618484612176565b6000602082840312156122f057600080fd5b813567ffffffffffffffff81111561230757600080fd5b61186184828501612181565b60006020828403121561232557600080fd5b600061186184846121d5565b60006020828403121561234357600080fd5b600061186184846121e0565b60008060008060008060c0878903121561236857600080fd5b600061237489896121e0565b965050602061238589828a016121e0565b955050604061239689828a016121e0565b94505060606123a789828a016121e0565b93505060806123b889828a016121e0565b92505060a06123c989828a016121e0565b9150509295509295509295565b60006123e2838361248f565b505060200190565b6123f381612cb0565b82525050565b6123f381612c7e565b6123f361240e82612c7e565b612cf9565b600061241e82612c71565b6124288185612c75565b935061243383612c6b565b8060005b8381101561246157815161244b88826123d6565b975061245683612c6b565b925050600101612437565b509495945050505050565b6123f381612c89565b6123f381612c8e565b6123f361248a82612c8e565b612c8e565b6123f381612c91565b60006124a382612c71565b6124ad81856107e6565b93506124bd818560208601612ccd565b9290920192915050565b60006124d282612c71565b6124dc8185612c75565b93506124ec818560208601612ccd565b6124f581612d0a565b9093019392505050565b600061250c601483612c75565b733932b2b73a3930b731bc903b34b7b630ba34b7b760611b815260200192915050565b600061253c600283612c75565b61313560f01b815260200192915050565b600061255a601e83612c75565b7f63616c6c20746f2061206e6f6e2d636f6e747261637420616464726573730000815260200192915050565b6000612593602683612c75565b7f4f776e61626c653a206e6577206f776e657220697320746865207a65726f206181526564647265737360d01b602082015260400192915050565b60006125db601b83612c75565b7f536166654d6174683a206164646974696f6e206f766572666c6f770000000000815260200192915050565b60006126146015836107e6565b746d696e7428616464726573732c75696e743235362960581b815260150192915050565b6000612645602183612c75565b7f5369676e6564536166654d6174683a206164646974696f6e206f766572666c6f8152607760f81b602082015260400192915050565b6000612688601283612c75565b716e6f7420656e6f7567682062616c616e636560701b815260200192915050565b60006126b6600283612c75565b61333760f01b815260200192915050565b60006126d4601a836107e6565b7f6275726e28616464726573732c75696e743235362c626f6f6c290000000000008152601a0192915050565b600061270d602183612c75565b7f5369676e6564536166654d6174683a206469766973696f6e206f766572666c6f8152607760f81b602082015260400192915050565b6000612750600283612c75565b61199960f11b815260200192915050565b600061276e600283612c75565b61313760f01b815260200192915050565b600061278c602183612c75565b7f536166654d6174683a206d756c7469706c69636174696f6e206f766572666c6f8152607760f81b602082015260400192915050565b60006127cf600c83612c75565b6b1d5b985d5d1a1bdc9a5e995960a21b815260200192915050565b60006127f7600283612c75565b61313960f01b815260200192915050565b60006128156015836107e6565b746275726e28616464726573732c75696e743235362960581b815260150192915050565b6000612846602783612c75565b7f5369676e6564536166654d6174683a206d756c7469706c69636174696f6e206f815266766572666c6f7760c81b602082015260400192915050565b600061288f601a836107e6565b7f6d696e7428616464726573732c75696e743235362c626f6f6c290000000000008152601a0192915050565b60006128c8600c83612c75565b6b1b9bdb9499595b9d1c985b9d60a21b815260200192915050565b60006128f0602483612c75565b7f5369676e6564536166654d6174683a207375627472616374696f6e206f766572815263666c6f7760e01b602082015260400192915050565b6000612936602083612c75565b7f5369676e6564536166654d6174683a206469766973696f6e206279207a65726f815260200192915050565b6123f381612caa565b60006129778285612402565b601482019150612987828461247e565b5060200192915050565b60006111958284612498565b600061055f82612607565b600061055f826126c7565b600061055f82612808565b600061055f82612882565b6020810161055f82846123f9565b604081016129e582856123f9565b61119560208301846123f9565b60408101612a0082856123f9565b61119560208301846123ea565b60608101612a1b82866123f9565b612a2860208301856123f9565b6118616040830184612475565b60408101612a4382856123f9565b6111956020830184612475565b60608101612a5e82866123f9565b612a6b6020830185612475565b61186160408301846123ea565b60408082528101612a898185612413565b90506111956020830184612475565b6020810161055f828461246c565b6020810161055f8284612475565b6020808252810161119581846124c7565b6020808252810161055f816124ff565b6020808252810161055f8161252f565b6020808252810161055f8161254d565b6020808252810161055f81612586565b6020808252810161055f816125ce565b6020808252810161055f81612638565b6020808252810161055f8161267b565b6020808252810161055f816126a9565b6020808252810161055f81612700565b6020808252810161055f81612743565b6020808252810161055f81612761565b6020808252810161055f8161277f565b6020808252810161055f816127c2565b6020808252810161055f816127ea565b6020808252810161055f81612839565b6020808252810161055f816128bb565b6020808252810161055f816128e3565b6020808252810161055f81612929565b60408101612a438285612475565b60608101612c018286612475565b612a286020830185612475565b6020810161055f8284612962565b60405181810167ffffffffffffffff81118282101715612c3b57600080fd5b604052919050565b600067ffffffffffffffff821115612c5a57600080fd5b506020601f91909101601f19160190565b60200190565b5190565b90815260200190565b600061055f82612c9e565b151590565b90565b6001600160e01b03191690565b6001600160a01b031690565b60ff1690565b600061055f82600061055f82612c7e565b82818337506000910152565b60005b83811015612ce8578181015183820152602001612cd0565b838111156113b95750506000910152565b600061055f82600061055f82612d14565b601f01601f191690565b60601b90565b612d2381612c7e565b8114610ebe57600080fd5b612d2381612c89565b612d2381612c8e56fea365627a7a7231582076f9b737ba2920bb7933e22b24e8e45fae185e7bc9367da7c81e1377014522516c6578706572696d656e74616cf564736f6c63430005110040",
  "devdoc": {
    "methods": {
      "allowance(address,address)": {
        "params": {
          "_owner": "The account owner of the iTokens.",
          "_spender": "The account allowed to send the iTokens."
        },
        "return": "The number of iTokens an account is allowing the spender  to send on its behalf."
      },
      "approve(address,uint256)": {
        "params": {
          "_spender": "The account address that will be able to spend the tokens.",
          "_value": "The amount of tokens allowed to spend."
        }
      },
      "balanceOf(address)": {
        "params": {
          "_owner": "The account owner of the iTokens."
        },
        "return": "The number of iTokens an account owns."
      },
      "burn(address,uint256)": {
        "params": {
          "burnAmount": "The amount of loan tokens to redeem.",
          "receiver": "The account getting the minted tokens."
        },
        "return": "The amount of underlying tokens payed to lender."
      },
      "burn(address,uint256,bool)": {
        "params": {
          "burnAmount": "The amount of pool tokens to redeem.",
          "receiver": "the receiver of the underlying tokens. note: potetial LM rewards are always sent to the msg.sender",
          "useLM": "if true -> deposit the pool tokens into the Liquidity Mining contract"
        }
      },
      "getListFunctionSignatures()": {
        "details": "This function will return the list of function signature in this contract that are available for public call Then this function will be called by LoanTokenLogicBeacon, and the function signatures will be registred in LoanTokenLogicBeacon.To save the gas we can just directly return the list of function signature from this pure function. The other workaround (fancy way) is we can create a storage for the list of the function signature, and then we can store each function signature to that storage from the constructor. Then, in this function we just need to return that storage variable.",
        "return": "The list of function signatures (bytes4[])"
      },
      "isOwner()": {
        "details": "Returns true if the caller is the current owner."
      },
      "mint(address,uint256)": {
        "params": {
          "depositAmount": "The amount of underlying tokens provided on the  loan. (Not the number of loan tokens to mint).",
          "receiver": "The account getting the minted tokens."
        },
        "return": "The amount of loan tokens minted."
      },
      "mint(address,uint256,bool)": {
        "params": {
          "depositAmount": "The amount of underlying tokens provided on the loan.\t\t\t\t\t(Not the number of loan tokens to mint).",
          "receiver": "the receiver of the tokens",
          "useLM": "if true -> deposit the pool tokens into the Liquidity Mining contract"
        }
      },
      "owner()": {
        "details": "Returns the address of the current owner."
      },
      "tokenPrice()": {
        "return": "The loan token price."
      },
      "totalAssetBorrow()": {
        "return": "The total amount of loan tokens on debt."
      },
      "totalSupply()": {
        "return": "The total number of iTokens in existence as of now."
      },
      "transferOwnership(address)": {
        "details": "Transfers ownership of the contract to a new account (`newOwner`). Can only be called by the current owner."
      }
    }
  },
  "userdoc": {
    "methods": {
      "allowance(address,address)": {
        "notice": "Get the amount of iTokens allowed to be spent by a  given account on behalf of the owner."
      },
      "approve(address,uint256)": {
        "notice": "Set an amount as the allowance of `spender` over the caller's tokens.     * Returns a boolean value indicating whether the operation succeeded.     * IMPORTANT: Beware that changing an allowance with this method brings the risk that someone may use both the old and the new allowance by unfortunate transaction ordering. One possible solution to mitigate this race condition is to first reduce the spender's allowance to 0 and set the desired value afterwards: https://github.com/ethereum/EIPs/issues/20#issuecomment-263524729     * Emits an {Approval} event."
      },
      "balanceOf(address)": {
        "notice": "Get the amount of iTokens owned by an account."
      },
      "burn(address,uint256)": {
        "notice": "Burn loan token wrapper. Adds a pay-out transfer after calling low level _burnToken function. In order to withdraw funds to the pool, call burn on the respective loan token contract. This will burn your loan tokens and send you the underlying token in exchange."
      },
      "burn(address,uint256,bool)": {
        "notice": "withdraws from the lending pool and optionally retrieves the pool tokens from the        Liquidity Mining Contract"
      },
      "getListFunctionSignatures()": {
        "notice": "This function is MANDATORY, which will be called by LoanTokenLogicBeacon and be registered. Every new public function, the signature needs to be included in this function."
      },
      "mint(address,uint256)": {
        "notice": "Mint loan token wrapper. Adds a check before calling low level _mintToken function. The function retrieves the tokens from the message sender, so make sure to first approve the loan token contract to access your funds. This is done by calling approve(address spender, uint amount) on the ERC20 token contract, where spender is the loan token contract address and amount is the amount to be deposited."
      },
      "mint(address,uint256,bool)": {
        "notice": "deposit into the lending pool and optionally participate at the Liquidity Mining Program"
      },
      "tokenPrice()": {
        "notice": "Loan token price calculation considering unpaid interests."
      },
      "totalAssetBorrow()": {
        "notice": "Get the total amount of loan tokens on debt. Calls protocol getTotalPrincipal function. In the context of borrowing, principal is the initial size of a loan. It can also be the amount still owed on a loan. If you take out a $50,000 mortgage, for example, the principal is $50,000. If you pay off $30,000, the principal balance now consists of the remaining $20,000."
      },
      "totalSupply()": {
        "notice": "Get the total supply of iTokens."
      }
    }
  },
  "storageLayout": {
    "storage": [
      {
        "astId": 54603,
        "contract": "contracts/connectors/loantoken/modules/beaconLogicLM/LoanTokenLogicLM.sol:LoanTokenLogicLM",
        "label": "reentrancyLock",
        "offset": 0,
        "slot": "0",
        "type": "t_uint256"
      },
      {
        "astId": 54419,
        "contract": "contracts/connectors/loantoken/modules/beaconLogicLM/LoanTokenLogicLM.sol:LoanTokenLogicLM",
        "label": "_owner",
        "offset": 0,
        "slot": "1",
        "type": "t_address"
      },
      {
        "astId": 483,
        "contract": "contracts/connectors/loantoken/modules/beaconLogicLM/LoanTokenLogicLM.sol:LoanTokenLogicLM",
        "label": "name",
        "offset": 0,
        "slot": "2",
        "type": "t_string_storage"
      },
      {
        "astId": 485,
        "contract": "contracts/connectors/loantoken/modules/beaconLogicLM/LoanTokenLogicLM.sol:LoanTokenLogicLM",
        "label": "symbol",
        "offset": 0,
        "slot": "3",
        "type": "t_string_storage"
      },
      {
        "astId": 487,
        "contract": "contracts/connectors/loantoken/modules/beaconLogicLM/LoanTokenLogicLM.sol:LoanTokenLogicLM",
        "label": "decimals",
        "offset": 0,
        "slot": "4",
        "type": "t_uint8"
      },
      {
        "astId": 489,
        "contract": "contracts/connectors/loantoken/modules/beaconLogicLM/LoanTokenLogicLM.sol:LoanTokenLogicLM",
        "label": "loanTokenAddress",
        "offset": 1,
        "slot": "4",
        "type": "t_address"
      },
      {
        "astId": 491,
        "contract": "contracts/connectors/loantoken/modules/beaconLogicLM/LoanTokenLogicLM.sol:LoanTokenLogicLM",
        "label": "baseRate",
        "offset": 0,
        "slot": "5",
        "type": "t_uint256"
      },
      {
        "astId": 493,
        "contract": "contracts/connectors/loantoken/modules/beaconLogicLM/LoanTokenLogicLM.sol:LoanTokenLogicLM",
        "label": "rateMultiplier",
        "offset": 0,
        "slot": "6",
        "type": "t_uint256"
      },
      {
        "astId": 495,
        "contract": "contracts/connectors/loantoken/modules/beaconLogicLM/LoanTokenLogicLM.sol:LoanTokenLogicLM",
        "label": "lowUtilBaseRate",
        "offset": 0,
        "slot": "7",
        "type": "t_uint256"
      },
      {
        "astId": 497,
        "contract": "contracts/connectors/loantoken/modules/beaconLogicLM/LoanTokenLogicLM.sol:LoanTokenLogicLM",
        "label": "lowUtilRateMultiplier",
        "offset": 0,
        "slot": "8",
        "type": "t_uint256"
      },
      {
        "astId": 499,
        "contract": "contracts/connectors/loantoken/modules/beaconLogicLM/LoanTokenLogicLM.sol:LoanTokenLogicLM",
        "label": "targetLevel",
        "offset": 0,
        "slot": "9",
        "type": "t_uint256"
      },
      {
        "astId": 501,
        "contract": "contracts/connectors/loantoken/modules/beaconLogicLM/LoanTokenLogicLM.sol:LoanTokenLogicLM",
        "label": "kinkLevel",
        "offset": 0,
        "slot": "10",
        "type": "t_uint256"
      },
      {
        "astId": 503,
        "contract": "contracts/connectors/loantoken/modules/beaconLogicLM/LoanTokenLogicLM.sol:LoanTokenLogicLM",
        "label": "maxScaleRate",
        "offset": 0,
        "slot": "11",
        "type": "t_uint256"
      },
      {
        "astId": 505,
        "contract": "contracts/connectors/loantoken/modules/beaconLogicLM/LoanTokenLogicLM.sol:LoanTokenLogicLM",
        "label": "_flTotalAssetSupply",
        "offset": 0,
        "slot": "12",
        "type": "t_uint256"
      },
      {
        "astId": 507,
        "contract": "contracts/connectors/loantoken/modules/beaconLogicLM/LoanTokenLogicLM.sol:LoanTokenLogicLM",
        "label": "checkpointSupply",
        "offset": 0,
        "slot": "13",
        "type": "t_uint256"
      },
      {
        "astId": 509,
        "contract": "contracts/connectors/loantoken/modules/beaconLogicLM/LoanTokenLogicLM.sol:LoanTokenLogicLM",
        "label": "initialPrice",
        "offset": 0,
        "slot": "14",
        "type": "t_uint256"
      },
      {
        "astId": 511,
        "contract": "contracts/connectors/loantoken/modules/beaconLogicLM/LoanTokenLogicLM.sol:LoanTokenLogicLM",
        "label": "lastSettleTime_",
        "offset": 0,
        "slot": "15",
        "type": "t_uint88"
      },
      {
        "astId": 515,
        "contract": "contracts/connectors/loantoken/modules/beaconLogicLM/LoanTokenLogicLM.sol:LoanTokenLogicLM",
        "label": "loanParamsIds",
        "offset": 0,
        "slot": "16",
        "type": "t_mapping(t_uint256,t_bytes32)"
      },
      {
        "astId": 519,
        "contract": "contracts/connectors/loantoken/modules/beaconLogicLM/LoanTokenLogicLM.sol:LoanTokenLogicLM",
        "label": "checkpointPrices_",
        "offset": 0,
        "slot": "17",
        "type": "t_mapping(t_address,t_uint256)"
      },
      {
        "astId": 523,
        "contract": "contracts/connectors/loantoken/modules/beaconLogicLM/LoanTokenLogicLM.sol:LoanTokenLogicLM",
        "label": "transactionLimit",
        "offset": 0,
        "slot": "18",
        "type": "t_mapping(t_address,t_uint256)"
      },
      {
        "astId": 236,
        "contract": "contracts/connectors/loantoken/modules/beaconLogicLM/LoanTokenLogicLM.sol:LoanTokenLogicLM",
        "label": "balances",
        "offset": 0,
        "slot": "19",
        "type": "t_mapping(t_address,t_uint256)"
      },
      {
        "astId": 242,
        "contract": "contracts/connectors/loantoken/modules/beaconLogicLM/LoanTokenLogicLM.sol:LoanTokenLogicLM",
        "label": "allowed",
        "offset": 0,
        "slot": "20",
        "type": "t_mapping(t_address,t_mapping(t_address,t_uint256))"
      },
      {
        "astId": 244,
        "contract": "contracts/connectors/loantoken/modules/beaconLogicLM/LoanTokenLogicLM.sol:LoanTokenLogicLM",
        "label": "totalSupply_",
        "offset": 0,
        "slot": "21",
        "type": "t_uint256"
      },
      {
        "astId": 3991,
        "contract": "contracts/connectors/loantoken/modules/beaconLogicLM/LoanTokenLogicLM.sol:LoanTokenLogicLM",
        "label": "sovrynContractAddress",
        "offset": 0,
        "slot": "22",
        "type": "t_address"
      },
      {
        "astId": 3993,
        "contract": "contracts/connectors/loantoken/modules/beaconLogicLM/LoanTokenLogicLM.sol:LoanTokenLogicLM",
        "label": "wrbtcTokenAddress",
        "offset": 0,
        "slot": "23",
        "type": "t_address"
      },
      {
        "astId": 3995,
        "contract": "contracts/connectors/loantoken/modules/beaconLogicLM/LoanTokenLogicLM.sol:LoanTokenLogicLM",
        "label": "target_",
        "offset": 0,
        "slot": "24",
        "type": "t_address"
      },
      {
        "astId": 3997,
        "contract": "contracts/connectors/loantoken/modules/beaconLogicLM/LoanTokenLogicLM.sol:LoanTokenLogicLM",
        "label": "admin",
        "offset": 0,
        "slot": "25",
        "type": "t_address"
      },
      {
        "astId": 3999,
        "contract": "contracts/connectors/loantoken/modules/beaconLogicLM/LoanTokenLogicLM.sol:LoanTokenLogicLM",
        "label": "earlyAccessToken",
        "offset": 0,
        "slot": "26",
        "type": "t_address"
      },
      {
        "astId": 4001,
        "contract": "contracts/connectors/loantoken/modules/beaconLogicLM/LoanTokenLogicLM.sol:LoanTokenLogicLM",
        "label": "pauser",
        "offset": 0,
        "slot": "27",
        "type": "t_address"
      },
      {
        "astId": 4003,
        "contract": "contracts/connectors/loantoken/modules/beaconLogicLM/LoanTokenLogicLM.sol:LoanTokenLogicLM",
        "label": "liquidityMiningAddress",
        "offset": 0,
        "slot": "28",
        "type": "t_address"
      },
      {
        "astId": 4005,
        "contract": "contracts/connectors/loantoken/modules/beaconLogicLM/LoanTokenLogicLM.sol:LoanTokenLogicLM",
        "label": "stakingContractAddress",
        "offset": 0,
        "slot": "29",
        "type": "t_address"
      }
    ],
    "types": {
      "t_address": {
        "encoding": "inplace",
        "label": "address",
        "numberOfBytes": "20"
      },
      "t_bytes32": {
        "encoding": "inplace",
        "label": "bytes32",
        "numberOfBytes": "32"
      },
      "t_mapping(t_address,t_mapping(t_address,t_uint256))": {
        "encoding": "mapping",
        "key": "t_address",
        "label": "mapping(address => mapping(address => uint256))",
        "numberOfBytes": "32",
        "value": "t_mapping(t_address,t_uint256)"
      },
      "t_mapping(t_address,t_uint256)": {
        "encoding": "mapping",
        "key": "t_address",
        "label": "mapping(address => uint256)",
        "numberOfBytes": "32",
        "value": "t_uint256"
      },
      "t_mapping(t_uint256,t_bytes32)": {
        "encoding": "mapping",
        "key": "t_uint256",
        "label": "mapping(uint256 => bytes32)",
        "numberOfBytes": "32",
        "value": "t_bytes32"
      },
      "t_string_storage": {
        "encoding": "bytes",
        "label": "string",
        "numberOfBytes": "32"
      },
      "t_uint256": {
        "encoding": "inplace",
        "label": "uint256",
        "numberOfBytes": "32"
      },
      "t_uint8": {
        "encoding": "inplace",
        "label": "uint8",
        "numberOfBytes": "1"
      },
      "t_uint88": {
        "encoding": "inplace",
        "label": "uint88",
        "numberOfBytes": "11"
      }
    }
  }
}