{
  "_format": "hh-sol-artifact-1",
  "contractName": "ProtocolSettings",
  "sourceName": "contracts/modules/ProtocolSettings.sol",
  "address": "0x5A0D867e0D70Fcc6Ade25C3F1B89d618b5B4Eaa7",
  "implementation": "0xc7f237bc38356d7a5bad5c16502537658b9610db",
  "abi": [
    {
      "inputs": [],
      "payable": false,
      "stateMutability": "nonpayable",
      "type": "constructor"
    },
    {
      "anonymous": false,
      "inputs": [
        {
          "indexed": true,
          "internalType": "address",
          "name": "previousOwner",
          "type": "address"
        },
        {
          "indexed": true,
          "internalType": "address",
          "name": "newOwner",
          "type": "address"
        }
      ],
      "name": "OwnershipTransferred",
      "type": "event"
    },
    {
      "anonymous": false,
      "inputs": [
        {
          "indexed": true,
          "internalType": "address",
          "name": "prevModuleContractAddress",
          "type": "address"
        },
        {
          "indexed": true,
          "internalType": "address",
          "name": "newModuleContractAddress",
          "type": "address"
        },
        {
          "indexed": true,
          "internalType": "bytes32",
          "name": "module",
          "type": "bytes32"
        }
      ],
      "name": "ProtocolModuleContractReplaced",
      "type": "event"
    },
    {
      "anonymous": false,
      "inputs": [
        {
          "indexed": true,
          "internalType": "address",
          "name": "sender",
          "type": "address"
        },
        {
          "indexed": true,
          "internalType": "address",
          "name": "sourceTokenAddress",
          "type": "address"
        },
        {
          "indexed": true,
          "internalType": "address",
          "name": "destTokenAddress",
          "type": "address"
        },
        {
          "indexed": false,
          "internalType": "contract IERC20[]",
          "name": "defaultPath",
          "type": "address[]"
        }
      ],
      "name": "RemoveDefaultPathConversion",
      "type": "event"
    },
    {
      "anonymous": false,
      "inputs": [
        {
          "indexed": true,
          "internalType": "address",
          "name": "sender",
          "type": "address"
        },
        {
          "indexed": true,
          "internalType": "address",
          "name": "oldAdmin",
          "type": "address"
        },
        {
          "indexed": true,
          "internalType": "address",
          "name": "newAdmin",
          "type": "address"
        }
      ],
      "name": "SetAdmin",
      "type": "event"
    },
    {
      "anonymous": false,
      "inputs": [
        {
          "indexed": true,
          "internalType": "address",
          "name": "sender",
          "type": "address"
        },
        {
          "indexed": false,
          "internalType": "uint256",
          "name": "oldValue",
          "type": "uint256"
        },
        {
          "indexed": false,
          "internalType": "uint256",
          "name": "newValue",
          "type": "uint256"
        }
      ],
      "name": "SetAffiliateFeePercent",
      "type": "event"
    },
    {
      "anonymous": false,
      "inputs": [
        {
          "indexed": true,
          "internalType": "address",
          "name": "sender",
          "type": "address"
        },
        {
          "indexed": false,
          "internalType": "uint256",
          "name": "oldValue",
          "type": "uint256"
        },
        {
          "indexed": false,
          "internalType": "uint256",
          "name": "newValue",
          "type": "uint256"
        }
      ],
      "name": "SetAffiliateTradingTokenFeePercent",
      "type": "event"
    },
    {
      "anonymous": false,
      "inputs": [
        {
          "indexed": true,
          "internalType": "address",
          "name": "sender",
          "type": "address"
        },
        {
          "indexed": false,
          "internalType": "uint256",
          "name": "oldValue",
          "type": "uint256"
        },
        {
          "indexed": false,
          "internalType": "uint256",
          "name": "newValue",
          "type": "uint256"
        }
      ],
      "name": "SetBorrowingFeePercent",
      "type": "event"
    },
    {
      "anonymous": false,
      "inputs": [
        {
          "indexed": true,
          "internalType": "address",
          "name": "sender",
          "type": "address"
        },
        {
          "indexed": true,
          "internalType": "address",
          "name": "sourceTokenAddress",
          "type": "address"
        },
        {
          "indexed": true,
          "internalType": "address",
          "name": "destTokenAddress",
          "type": "address"
        },
        {
          "indexed": false,
          "internalType": "contract IERC20[]",
          "name": "defaultPath",
          "type": "address[]"
        }
      ],
      "name": "SetDefaultPathConversion",
      "type": "event"
    },
    {
      "anonymous": false,
      "inputs": [
        {
          "indexed": true,
          "internalType": "address",
          "name": "sender",
          "type": "address"
        },
        {
          "indexed": true,
          "internalType": "address",
          "name": "oldController",
          "type": "address"
        },
        {
          "indexed": true,
          "internalType": "address",
          "name": "newController",
          "type": "address"
        }
      ],
      "name": "SetFeesController",
      "type": "event"
    },
    {
      "anonymous": false,
      "inputs": [
        {
          "indexed": true,
          "internalType": "address",
          "name": "sender",
          "type": "address"
        },
        {
          "indexed": false,
          "internalType": "uint256",
          "name": "oldValue",
          "type": "uint256"
        },
        {
          "indexed": false,
          "internalType": "uint256",
          "name": "newValue",
          "type": "uint256"
        }
      ],
      "name": "SetLendingFeePercent",
      "type": "event"
    },
    {
      "anonymous": false,
      "inputs": [
        {
          "indexed": true,
          "internalType": "address",
          "name": "sender",
          "type": "address"
        },
        {
          "indexed": false,
          "internalType": "uint256",
          "name": "oldValue",
          "type": "uint256"
        },
        {
          "indexed": false,
          "internalType": "uint256",
          "name": "newValue",
          "type": "uint256"
        }
      ],
      "name": "SetLiquidationIncentivePercent",
      "type": "event"
    },
    {
      "anonymous": false,
      "inputs": [
        {
          "indexed": true,
          "internalType": "address",
          "name": "sender",
          "type": "address"
        },
        {
          "indexed": true,
          "internalType": "address",
          "name": "loanPool",
          "type": "address"
        },
        {
          "indexed": true,
          "internalType": "address",
          "name": "underlying",
          "type": "address"
        }
      ],
      "name": "SetLoanPool",
      "type": "event"
    },
    {
      "anonymous": false,
      "inputs": [
        {
          "indexed": true,
          "internalType": "address",
          "name": "sender",
          "type": "address"
        },
        {
          "indexed": true,
          "internalType": "address",
          "name": "oldAddress",
          "type": "address"
        },
        {
          "indexed": true,
          "internalType": "address",
          "name": "newAddress",
          "type": "address"
        }
      ],
      "name": "SetLockedSOVAddress",
      "type": "event"
    },
    {
      "anonymous": false,
      "inputs": [
        {
          "indexed": true,
          "internalType": "address",
          "name": "sender",
          "type": "address"
        },
        {
          "indexed": false,
          "internalType": "uint256",
          "name": "oldValue",
          "type": "uint256"
        },
        {
          "indexed": false,
          "internalType": "uint256",
          "name": "newValue",
          "type": "uint256"
        }
      ],
      "name": "SetMaxSwapSize",
      "type": "event"
    },
    {
      "anonymous": false,
      "inputs": [
        {
          "indexed": true,
          "internalType": "address",
          "name": "sender",
          "type": "address"
        },
        {
          "indexed": false,
          "internalType": "uint256",
          "name": "oldMinReferrals",
          "type": "uint256"
        },
        {
          "indexed": false,
          "internalType": "uint256",
          "name": "newMinReferrals",
          "type": "uint256"
        }
      ],
      "name": "SetMinReferralsToPayoutAffiliates",
      "type": "event"
    },
    {
      "anonymous": false,
      "inputs": [
        {
          "indexed": true,
          "internalType": "address",
          "name": "sender",
          "type": "address"
        },
        {
          "indexed": true,
          "internalType": "address",
          "name": "oldPauser",
          "type": "address"
        },
        {
          "indexed": true,
          "internalType": "address",
          "name": "newPauser",
          "type": "address"
        }
      ],
      "name": "SetPauser",
      "type": "event"
    },
    {
      "anonymous": false,
      "inputs": [
        {
          "indexed": true,
          "internalType": "address",
          "name": "sender",
          "type": "address"
        },
        {
          "indexed": false,
          "internalType": "address",
          "name": "oldValue",
          "type": "address"
        },
        {
          "indexed": false,
          "internalType": "address",
          "name": "newValue",
          "type": "address"
        }
      ],
      "name": "SetPriceFeedContract",
      "type": "event"
    },
    {
      "anonymous": false,
      "inputs": [
        {
          "indexed": true,
          "internalType": "address",
          "name": "sender",
          "type": "address"
        },
        {
          "indexed": true,
          "internalType": "address",
          "name": "oldProtocol",
          "type": "address"
        },
        {
          "indexed": true,
          "internalType": "address",
          "name": "newProtocol",
          "type": "address"
        }
      ],
      "name": "SetProtocolAddress",
      "type": "event"
    },
    {
      "anonymous": false,
      "inputs": [
        {
          "indexed": true,
          "internalType": "address",
          "name": "sender",
          "type": "address"
        },
        {
          "indexed": true,
          "internalType": "address",
          "name": "oldProtocolToken",
          "type": "address"
        },
        {
          "indexed": true,
          "internalType": "address",
          "name": "newProtocolToken",
          "type": "address"
        }
      ],
      "name": "SetProtocolTokenAddress",
      "type": "event"
    },
    {
      "anonymous": false,
      "inputs": [
        {
          "indexed": true,
          "internalType": "address",
          "name": "sender",
          "type": "address"
        },
        {
          "indexed": false,
          "internalType": "uint256",
          "name": "oldRebatePercent",
          "type": "uint256"
        },
        {
          "indexed": false,
          "internalType": "uint256",
          "name": "newRebatePercent",
          "type": "uint256"
        }
      ],
      "name": "SetRebatePercent",
      "type": "event"
    },
    {
      "anonymous": false,
      "inputs": [
        {
          "indexed": true,
          "internalType": "address",
          "name": "sender",
          "type": "address"
        },
        {
          "indexed": false,
          "internalType": "uint256",
          "name": "oldValue",
          "type": "uint256"
        },
        {
          "indexed": false,
          "internalType": "uint256",
          "name": "newValue",
          "type": "uint256"
        }
      ],
      "name": "SetRolloverBaseReward",
      "type": "event"
    },
    {
      "anonymous": false,
      "inputs": [
        {
          "indexed": true,
          "internalType": "address",
          "name": "sender",
          "type": "address"
        },
        {
          "indexed": false,
          "internalType": "uint256",
          "name": "oldRolloverFlexFeePercent",
          "type": "uint256"
        },
        {
          "indexed": false,
          "internalType": "uint256",
          "name": "newRolloverFlexFeePercent",
          "type": "uint256"
        }
      ],
      "name": "SetRolloverFlexFeePercent",
      "type": "event"
    },
    {
      "anonymous": false,
      "inputs": [
        {
          "indexed": true,
          "internalType": "address",
          "name": "sender",
          "type": "address"
        },
        {
          "indexed": true,
          "internalType": "address",
          "name": "oldTokenAddress",
          "type": "address"
        },
        {
          "indexed": true,
          "internalType": "address",
          "name": "newTokenAddress",
          "type": "address"
        }
      ],
      "name": "SetSOVTokenAddress",
      "type": "event"
    },
    {
      "anonymous": false,
      "inputs": [
        {
          "indexed": true,
          "internalType": "address",
          "name": "sender",
          "type": "address"
        },
        {
          "indexed": true,
          "internalType": "address",
          "name": "oldSovrynSwapContractRegistryAddress",
          "type": "address"
        },
        {
          "indexed": true,
          "internalType": "address",
          "name": "newSovrynSwapContractRegistryAddress",
          "type": "address"
        }
      ],
      "name": "SetSovrynSwapContractRegistryAddress",
      "type": "event"
    },
    {
      "anonymous": false,
      "inputs": [
        {
          "indexed": true,
          "internalType": "address",
          "name": "sender",
          "type": "address"
        },
        {
          "indexed": true,
          "internalType": "address",
          "name": "sourceToken",
          "type": "address"
        },
        {
          "indexed": true,
          "internalType": "address",
          "name": "destToken",
          "type": "address"
        },
        {
          "indexed": false,
          "internalType": "uint256",
          "name": "oldSpecialRebatesPercent",
          "type": "uint256"
        },
        {
          "indexed": false,
          "internalType": "uint256",
          "name": "newSpecialRebatesPercent",
          "type": "uint256"
        }
      ],
      "name": "SetSpecialRebates",
      "type": "event"
    },
    {
      "anonymous": false,
      "inputs": [
        {
          "indexed": true,
          "internalType": "address",
          "name": "sender",
          "type": "address"
        },
        {
          "indexed": true,
          "internalType": "address",
          "name": "token",
          "type": "address"
        },
        {
          "indexed": false,
          "internalType": "bool",
          "name": "isActive",
          "type": "bool"
        }
      ],
      "name": "SetSupportedTokens",
      "type": "event"
    },
    {
      "anonymous": false,
      "inputs": [
        {
          "indexed": true,
          "internalType": "address",
          "name": "sender",
          "type": "address"
        },
        {
          "indexed": false,
          "internalType": "uint256",
          "name": "oldValue",
          "type": "uint256"
        },
        {
          "indexed": false,
          "internalType": "uint256",
          "name": "newValue",
          "type": "uint256"
        }
      ],
      "name": "SetSwapExternalFeePercent",
      "type": "event"
    },
    {
      "anonymous": false,
      "inputs": [
        {
          "indexed": true,
          "internalType": "address",
          "name": "sender",
          "type": "address"
        },
        {
          "indexed": false,
          "internalType": "address",
          "name": "oldValue",
          "type": "address"
        },
        {
          "indexed": false,
          "internalType": "address",
          "name": "newValue",
          "type": "address"
        }
      ],
      "name": "SetSwapsImplContract",
      "type": "event"
    },
    {
      "anonymous": false,
      "inputs": [
        {
          "indexed": true,
          "internalType": "address",
          "name": "sender",
          "type": "address"
        },
        {
          "indexed": false,
          "internalType": "uint256",
          "name": "oldValue",
          "type": "uint256"
        },
        {
          "indexed": false,
          "internalType": "uint256",
          "name": "newValue",
          "type": "uint256"
        }
      ],
      "name": "SetTradingFeePercent",
      "type": "event"
    },
    {
      "anonymous": false,
      "inputs": [
        {
          "indexed": true,
          "internalType": "address",
          "name": "sender",
          "type": "address"
        },
        {
          "indexed": false,
          "internalType": "uint256",
          "name": "oldBasisPoint",
          "type": "uint256"
        },
        {
          "indexed": false,
          "internalType": "uint256",
          "name": "newBasisPoint",
          "type": "uint256"
        }
      ],
      "name": "SetTradingRebateRewardsBasisPoint",
      "type": "event"
    },
    {
      "anonymous": false,
      "inputs": [
        {
          "indexed": true,
          "internalType": "address",
          "name": "sender",
          "type": "address"
        },
        {
          "indexed": true,
          "internalType": "address",
          "name": "oldWethToken",
          "type": "address"
        },
        {
          "indexed": true,
          "internalType": "address",
          "name": "newWethToken",
          "type": "address"
        }
      ],
      "name": "SetWrbtcToken",
      "type": "event"
    },
    {
      "anonymous": false,
      "inputs": [
        {
          "indexed": true,
          "internalType": "address",
          "name": "sender",
          "type": "address"
        },
        {
          "indexed": true,
          "internalType": "bool",
          "name": "oldFlag",
          "type": "bool"
        },
        {
          "indexed": true,
          "internalType": "bool",
          "name": "newFlag",
          "type": "bool"
        }
      ],
      "name": "TogglePaused",
      "type": "event"
    },
    {
      "anonymous": false,
      "inputs": [
        {
          "indexed": true,
          "internalType": "address",
          "name": "sender",
          "type": "address"
        },
        {
          "indexed": true,
          "internalType": "address",
          "name": "token",
          "type": "address"
        },
        {
          "indexed": true,
          "internalType": "address",
          "name": "receiver",
          "type": "address"
        },
        {
          "indexed": false,
          "internalType": "uint256",
          "name": "amount",
          "type": "uint256"
        }
      ],
      "name": "WithdrawBorrowingFees",
      "type": "event"
    },
    {
      "anonymous": false,
      "inputs": [
        {
          "indexed": true,
          "internalType": "address",
          "name": "sender",
          "type": "address"
        },
        {
          "indexed": true,
          "internalType": "address",
          "name": "token",
          "type": "address"
        },
        {
          "indexed": true,
          "internalType": "address",
          "name": "receiver",
          "type": "address"
        },
        {
          "indexed": false,
          "internalType": "uint256",
          "name": "lendingAmount",
          "type": "uint256"
        },
        {
          "indexed": false,
          "internalType": "uint256",
          "name": "tradingAmount",
          "type": "uint256"
        },
        {
          "indexed": false,
          "internalType": "uint256",
          "name": "borrowingAmount",
          "type": "uint256"
        },
        {
          "indexed": false,
          "internalType": "uint256",
          "name": "wRBTCConverted",
          "type": "uint256"
        }
      ],
      "name": "WithdrawFees",
      "type": "event"
    },
    {
      "anonymous": false,
      "inputs": [
        {
          "indexed": true,
          "internalType": "address",
          "name": "sender",
          "type": "address"
        },
        {
          "indexed": true,
          "internalType": "address",
          "name": "token",
          "type": "address"
        },
        {
          "indexed": true,
          "internalType": "address",
          "name": "receiver",
          "type": "address"
        },
        {
          "indexed": false,
          "internalType": "uint256",
          "name": "amount",
          "type": "uint256"
        }
      ],
      "name": "WithdrawLendingFees",
      "type": "event"
    },
    {
      "anonymous": false,
      "inputs": [
        {
          "indexed": true,
          "internalType": "address",
          "name": "sender",
          "type": "address"
        },
        {
          "indexed": true,
          "internalType": "address",
          "name": "token",
          "type": "address"
        },
        {
          "indexed": true,
          "internalType": "address",
          "name": "receiver",
          "type": "address"
        },
        {
          "indexed": false,
          "internalType": "uint256",
          "name": "amount",
          "type": "uint256"
        }
      ],
      "name": "WithdrawTradingFees",
      "type": "event"
    },
    {
      "payable": false,
      "stateMutability": "nonpayable",
      "type": "fallback"
    },
    {
      "constant": true,
      "inputs": [],
      "name": "admin",
      "outputs": [
        {
          "internalType": "address",
          "name": "",
          "type": "address"
        }
      ],
      "payable": false,
      "stateMutability": "view",
      "type": "function"
    },
    {
      "constant": true,
      "inputs": [],
      "name": "affiliateFeePercent",
      "outputs": [
        {
          "internalType": "uint256",
          "name": "",
          "type": "uint256"
        }
      ],
      "payable": false,
      "stateMutability": "view",
      "type": "function"
    },
    {
      "constant": true,
      "inputs": [
        {
          "internalType": "address",
          "name": "",
          "type": "address"
        }
      ],
      "name": "affiliateRewardsHeld",
      "outputs": [
        {
          "internalType": "uint256",
          "name": "",
          "type": "uint256"
        }
      ],
      "payable": false,
      "stateMutability": "view",
      "type": "function"
    },
    {
      "constant": true,
      "inputs": [],
      "name": "affiliateTradingTokenFeePercent",
      "outputs": [
        {
          "internalType": "uint256",
          "name": "",
          "type": "uint256"
        }
      ],
      "payable": false,
      "stateMutability": "view",
      "type": "function"
    },
    {
      "constant": true,
      "inputs": [
        {
          "internalType": "address",
          "name": "",
          "type": "address"
        },
        {
          "internalType": "address",
          "name": "",
          "type": "address"
        }
      ],
      "name": "affiliatesReferrerBalances",
      "outputs": [
        {
          "internalType": "uint256",
          "name": "",
          "type": "uint256"
        }
      ],
      "payable": false,
      "stateMutability": "view",
      "type": "function"
    },
    {
      "constant": true,
      "inputs": [
        {
          "internalType": "address",
          "name": "",
          "type": "address"
        }
      ],
      "name": "affiliatesUserReferrer",
      "outputs": [
        {
          "internalType": "address",
          "name": "",
          "type": "address"
        }
      ],
      "payable": false,
      "stateMutability": "view",
      "type": "function"
    },
    {
      "constant": true,
      "inputs": [
        {
          "internalType": "address",
          "name": "",
          "type": "address"
        }
      ],
      "name": "borrowerNonce",
      "outputs": [
        {
          "internalType": "uint256",
          "name": "",
          "type": "uint256"
        }
      ],
      "payable": false,
      "stateMutability": "view",
      "type": "function"
    },
    {
      "constant": true,
      "inputs": [
        {
          "internalType": "address",
          "name": "",
          "type": "address"
        },
        {
          "internalType": "bytes32",
          "name": "",
          "type": "bytes32"
        }
      ],
      "name": "borrowerOrders",
      "outputs": [
        {
          "internalType": "uint256",
          "name": "lockedAmount",
          "type": "uint256"
        },
        {
          "internalType": "uint256",
          "name": "interestRate",
          "type": "uint256"
        },
        {
          "internalType": "uint256",
          "name": "minLoanTerm",
          "type": "uint256"
        },
        {
          "internalType": "uint256",
          "name": "maxLoanTerm",
          "type": "uint256"
        },
        {
          "internalType": "uint256",
          "name": "createdTimestamp",
          "type": "uint256"
        },
        {
          "internalType": "uint256",
          "name": "expirationTimestamp",
          "type": "uint256"
        }
      ],
      "payable": false,
      "stateMutability": "view",
      "type": "function"
    },
    {
      "constant": true,
      "inputs": [],
      "name": "borrowingFeePercent",
      "outputs": [
        {
          "internalType": "uint256",
          "name": "",
          "type": "uint256"
        }
      ],
      "payable": false,
      "stateMutability": "view",
      "type": "function"
    },
    {
      "constant": true,
      "inputs": [
        {
          "internalType": "address",
          "name": "",
          "type": "address"
        }
      ],
      "name": "borrowingFeeTokensHeld",
      "outputs": [
        {
          "internalType": "uint256",
          "name": "",
          "type": "uint256"
        }
      ],
      "payable": false,
      "stateMutability": "view",
      "type": "function"
    },
    {
      "constant": true,
      "inputs": [
        {
          "internalType": "address",
          "name": "",
          "type": "address"
        }
      ],
      "name": "borrowingFeeTokensPaid",
      "outputs": [
        {
          "internalType": "uint256",
          "name": "",
          "type": "uint256"
        }
      ],
      "payable": false,
      "stateMutability": "view",
      "type": "function"
    },
    {
      "constant": true,
      "inputs": [
        {
          "internalType": "bytes32",
          "name": "",
          "type": "bytes32"
        },
        {
          "internalType": "address",
          "name": "",
          "type": "address"
        }
      ],
      "name": "delegatedManagers",
      "outputs": [
        {
          "internalType": "bool",
          "name": "",
          "type": "bool"
        }
      ],
      "payable": false,
      "stateMutability": "view",
      "type": "function"
    },
    {
      "constant": false,
      "inputs": [
        {
          "internalType": "uint256",
          "name": "amount",
          "type": "uint256"
        }
      ],
      "name": "depositProtocolToken",
      "outputs": [],
      "payable": false,
      "stateMutability": "nonpayable",
      "type": "function"
    },
    {
      "constant": true,
      "inputs": [],
      "name": "feeRebatePercent",
      "outputs": [
        {
          "internalType": "uint256",
          "name": "",
          "type": "uint256"
        }
      ],
      "payable": false,
      "stateMutability": "view",
      "type": "function"
    },
    {
      "constant": true,
      "inputs": [],
      "name": "feesController",
      "outputs": [
        {
          "internalType": "address",
          "name": "",
          "type": "address"
        }
      ],
      "payable": false,
      "stateMutability": "view",
      "type": "function"
    },
    {
      "constant": true,
      "inputs": [],
      "name": "getAdmin",
      "outputs": [
        {
          "internalType": "address",
          "name": "",
          "type": "address"
        }
      ],
      "payable": false,
      "stateMutability": "view",
      "type": "function"
    },
    {
      "constant": true,
      "inputs": [],
      "name": "getDedicatedSOVRebate",
      "outputs": [
        {
          "internalType": "uint256",
          "name": "",
          "type": "uint256"
        }
      ],
      "payable": false,
      "stateMutability": "view",
      "type": "function"
    },
    {
      "constant": true,
      "inputs": [
        {
          "internalType": "address",
          "name": "sourceTokenAddress",
          "type": "address"
        },
        {
          "internalType": "address",
          "name": "destTokenAddress",
          "type": "address"
        }
      ],
      "name": "getDefaultPathConversion",
      "outputs": [
        {
          "internalType": "contract IERC20[]",
          "name": "",
          "type": "address[]"
        }
      ],
      "payable": false,
      "stateMutability": "view",
      "type": "function"
    },
    {
      "constant": true,
      "inputs": [],
      "name": "getFeeRebatePercent",
      "outputs": [
        {
          "internalType": "uint256",
          "name": "",
          "type": "uint256"
        }
      ],
      "payable": false,
      "stateMutability": "view",
      "type": "function"
    },
    {
      "constant": true,
      "inputs": [
        {
          "internalType": "uint256",
          "name": "start",
          "type": "uint256"
        },
        {
          "internalType": "uint256",
          "name": "count",
          "type": "uint256"
        }
      ],
      "name": "getLoanPoolsList",
      "outputs": [
        {
          "internalType": "bytes32[]",
          "name": "",
          "type": "bytes32[]"
        }
      ],
      "payable": false,
      "stateMutability": "view",
      "type": "function"
    },
    {
      "constant": true,
      "inputs": [],
      "name": "getLockedSOVAddress",
      "outputs": [
        {
          "internalType": "address",
          "name": "",
          "type": "address"
        }
      ],
      "payable": false,
      "stateMutability": "view",
      "type": "function"
    },
    {
      "constant": true,
      "inputs": [],
      "name": "getPauser",
      "outputs": [
        {
          "internalType": "address",
          "name": "",
          "type": "address"
        }
      ],
      "payable": false,
      "stateMutability": "view",
      "type": "function"
    },
    {
      "constant": true,
      "inputs": [],
      "name": "getProtocolAddress",
      "outputs": [
        {
          "internalType": "address",
          "name": "",
          "type": "address"
        }
      ],
      "payable": false,
      "stateMutability": "view",
      "type": "function"
    },
    {
      "constant": true,
      "inputs": [],
      "name": "getSovTokenAddress",
      "outputs": [
        {
          "internalType": "address",
          "name": "",
          "type": "address"
        }
      ],
      "payable": false,
      "stateMutability": "view",
      "type": "function"
    },
    {
      "constant": true,
      "inputs": [
        {
          "internalType": "address",
          "name": "sourceTokenAddress",
          "type": "address"
        },
        {
          "internalType": "address",
          "name": "destTokenAddress",
          "type": "address"
        }
      ],
      "name": "getSpecialRebates",
      "outputs": [
        {
          "internalType": "uint256",
          "name": "specialRebatesPercent",
          "type": "uint256"
        }
      ],
      "payable": false,
      "stateMutability": "view",
      "type": "function"
    },
    {
      "constant": true,
      "inputs": [],
      "name": "getSwapExternalFeePercent",
      "outputs": [
        {
          "internalType": "uint256",
          "name": "",
          "type": "uint256"
        }
      ],
      "payable": false,
      "stateMutability": "view",
      "type": "function"
    },
    {
      "constant": true,
      "inputs": [],
      "name": "getTradingRebateRewardsBasisPoint",
      "outputs": [
        {
          "internalType": "uint256",
          "name": "",
          "type": "uint256"
        }
      ],
      "payable": false,
      "stateMutability": "view",
      "type": "function"
    },
    {
      "constant": false,
      "inputs": [
        {
          "internalType": "address",
          "name": "target",
          "type": "address"
        }
      ],
      "name": "initialize",
      "outputs": [],
      "payable": false,
      "stateMutability": "nonpayable",
      "type": "function"
    },
    {
      "constant": true,
      "inputs": [
        {
          "internalType": "address",
          "name": "loanPool",
          "type": "address"
        }
      ],
      "name": "isLoanPool",
      "outputs": [
        {
          "internalType": "bool",
          "name": "",
          "type": "bool"
        }
      ],
      "payable": false,
      "stateMutability": "view",
      "type": "function"
    },
    {
      "constant": true,
      "inputs": [],
      "name": "isOwner",
      "outputs": [
        {
          "internalType": "bool",
          "name": "",
          "type": "bool"
        }
      ],
      "payable": false,
      "stateMutability": "view",
      "type": "function"
    },
    {
      "constant": true,
      "inputs": [],
      "name": "isProtocolPaused",
      "outputs": [
        {
          "internalType": "bool",
          "name": "",
          "type": "bool"
        }
      ],
      "payable": false,
      "stateMutability": "view",
      "type": "function"
    },
    {
      "constant": true,
      "inputs": [
        {
          "internalType": "address",
          "name": "",
          "type": "address"
        },
        {
          "internalType": "address",
          "name": "",
          "type": "address"
        }
      ],
      "name": "lenderInterest",
      "outputs": [
        {
          "internalType": "uint256",
          "name": "principalTotal",
          "type": "uint256"
        },
        {
          "internalType": "uint256",
          "name": "owedPerDay",
          "type": "uint256"
        },
        {
          "internalType": "uint256",
          "name": "owedTotal",
          "type": "uint256"
        },
        {
          "internalType": "uint256",
          "name": "paidTotal",
          "type": "uint256"
        },
        {
          "internalType": "uint256",
          "name": "updatedTimestamp",
          "type": "uint256"
        }
      ],
      "payable": false,
      "stateMutability": "view",
      "type": "function"
    },
    {
      "constant": true,
      "inputs": [
        {
          "internalType": "address",
          "name": "",
          "type": "address"
        },
        {
          "internalType": "bytes32",
          "name": "",
          "type": "bytes32"
        }
      ],
      "name": "lenderOrders",
      "outputs": [
        {
          "internalType": "uint256",
          "name": "lockedAmount",
          "type": "uint256"
        },
        {
          "internalType": "uint256",
          "name": "interestRate",
          "type": "uint256"
        },
        {
          "internalType": "uint256",
          "name": "minLoanTerm",
          "type": "uint256"
        },
        {
          "internalType": "uint256",
          "name": "maxLoanTerm",
          "type": "uint256"
        },
        {
          "internalType": "uint256",
          "name": "createdTimestamp",
          "type": "uint256"
        },
        {
          "internalType": "uint256",
          "name": "expirationTimestamp",
          "type": "uint256"
        }
      ],
      "payable": false,
      "stateMutability": "view",
      "type": "function"
    },
    {
      "constant": true,
      "inputs": [],
      "name": "lendingFeePercent",
      "outputs": [
        {
          "internalType": "uint256",
          "name": "",
          "type": "uint256"
        }
      ],
      "payable": false,
      "stateMutability": "view",
      "type": "function"
    },
    {
      "constant": true,
      "inputs": [
        {
          "internalType": "address",
          "name": "",
          "type": "address"
        }
      ],
      "name": "lendingFeeTokensHeld",
      "outputs": [
        {
          "internalType": "uint256",
          "name": "",
          "type": "uint256"
        }
      ],
      "payable": false,
      "stateMutability": "view",
      "type": "function"
    },
    {
      "constant": true,
      "inputs": [
        {
          "internalType": "address",
          "name": "",
          "type": "address"
        }
      ],
      "name": "lendingFeeTokensPaid",
      "outputs": [
        {
          "internalType": "uint256",
          "name": "",
          "type": "uint256"
        }
      ],
      "payable": false,
      "stateMutability": "view",
      "type": "function"
    },
    {
      "constant": true,
      "inputs": [],
      "name": "liquidationIncentivePercent",
      "outputs": [
        {
          "internalType": "uint256",
          "name": "",
          "type": "uint256"
        }
      ],
      "payable": false,
      "stateMutability": "view",
      "type": "function"
    },
    {
      "constant": true,
      "inputs": [
        {
          "internalType": "bytes32",
          "name": "",
          "type": "bytes32"
        }
      ],
      "name": "loanInterest",
      "outputs": [
        {
          "internalType": "uint256",
          "name": "owedPerDay",
          "type": "uint256"
        },
        {
          "internalType": "uint256",
          "name": "depositTotal",
          "type": "uint256"
        },
        {
          "internalType": "uint256",
          "name": "updatedTimestamp",
          "type": "uint256"
        }
      ],
      "payable": false,
      "stateMutability": "view",
      "type": "function"
    },
    {
      "constant": true,
      "inputs": [
        {
          "internalType": "bytes32",
          "name": "",
          "type": "bytes32"
        }
      ],
      "name": "loanParams",
      "outputs": [
        {
          "internalType": "bytes32",
          "name": "id",
          "type": "bytes32"
        },
        {
          "internalType": "bool",
          "name": "active",
          "type": "bool"
        },
        {
          "internalType": "address",
          "name": "owner",
          "type": "address"
        },
        {
          "internalType": "address",
          "name": "loanToken",
          "type": "address"
        },
        {
          "internalType": "address",
          "name": "collateralToken",
          "type": "address"
        },
        {
          "internalType": "uint256",
          "name": "minInitialMargin",
          "type": "uint256"
        },
        {
          "internalType": "uint256",
          "name": "maintenanceMargin",
          "type": "uint256"
        },
        {
          "internalType": "uint256",
          "name": "maxLoanTerm",
          "type": "uint256"
        }
      ],
      "payable": false,
      "stateMutability": "view",
      "type": "function"
    },
    {
      "constant": true,
      "inputs": [
        {
          "internalType": "address",
          "name": "",
          "type": "address"
        }
      ],
      "name": "loanPoolToUnderlying",
      "outputs": [
        {
          "internalType": "address",
          "name": "",
          "type": "address"
        }
      ],
      "payable": false,
      "stateMutability": "view",
      "type": "function"
    },
    {
      "constant": true,
      "inputs": [
        {
          "internalType": "bytes32",
          "name": "",
          "type": "bytes32"
        }
      ],
      "name": "loans",
      "outputs": [
        {
          "internalType": "bytes32",
          "name": "id",
          "type": "bytes32"
        },
        {
          "internalType": "bytes32",
          "name": "loanParamsId",
          "type": "bytes32"
        },
        {
          "internalType": "bytes32",
          "name": "pendingTradesId",
          "type": "bytes32"
        },
        {
          "internalType": "bool",
          "name": "active",
          "type": "bool"
        },
        {
          "internalType": "uint256",
          "name": "principal",
          "type": "uint256"
        },
        {
          "internalType": "uint256",
          "name": "collateral",
          "type": "uint256"
        },
        {
          "internalType": "uint256",
          "name": "startTimestamp",
          "type": "uint256"
        },
        {
          "internalType": "uint256",
          "name": "endTimestamp",
          "type": "uint256"
        },
        {
          "internalType": "uint256",
          "name": "startMargin",
          "type": "uint256"
        },
        {
          "internalType": "uint256",
          "name": "startRate",
          "type": "uint256"
        },
        {
          "internalType": "address",
          "name": "borrower",
          "type": "address"
        },
        {
          "internalType": "address",
          "name": "lender",
          "type": "address"
        }
      ],
      "payable": false,
      "stateMutability": "view",
      "type": "function"
    },
    {
      "constant": true,
      "inputs": [],
      "name": "lockedSOVAddress",
      "outputs": [
        {
          "internalType": "address",
          "name": "",
          "type": "address"
        }
      ],
      "payable": false,
      "stateMutability": "view",
      "type": "function"
    },
    {
      "constant": true,
      "inputs": [
        {
          "internalType": "bytes4",
          "name": "",
          "type": "bytes4"
        }
      ],
      "name": "logicTargets",
      "outputs": [
        {
          "internalType": "address",
          "name": "",
          "type": "address"
        }
      ],
      "payable": false,
      "stateMutability": "view",
      "type": "function"
    },
    {
      "constant": true,
      "inputs": [],
      "name": "maxDisagreement",
      "outputs": [
        {
          "internalType": "uint256",
          "name": "",
          "type": "uint256"
        }
      ],
      "payable": false,
      "stateMutability": "view",
      "type": "function"
    },
    {
      "constant": true,
      "inputs": [],
      "name": "maxSwapSize",
      "outputs": [
        {
          "internalType": "uint256",
          "name": "",
          "type": "uint256"
        }
      ],
      "payable": false,
      "stateMutability": "view",
      "type": "function"
    },
    {
      "constant": true,
      "inputs": [],
      "name": "minReferralsToPayout",
      "outputs": [
        {
          "internalType": "uint256",
          "name": "",
          "type": "uint256"
        }
      ],
      "payable": false,
      "stateMutability": "view",
      "type": "function"
    },
    {
      "constant": true,
      "inputs": [],
      "name": "owner",
      "outputs": [
        {
          "internalType": "address",
          "name": "",
          "type": "address"
        }
      ],
      "payable": false,
      "stateMutability": "view",
      "type": "function"
    },
    {
      "constant": true,
      "inputs": [],
      "name": "pause",
      "outputs": [
        {
          "internalType": "bool",
          "name": "",
          "type": "bool"
        }
      ],
      "payable": false,
      "stateMutability": "view",
      "type": "function"
    },
    {
      "constant": true,
      "inputs": [],
      "name": "priceFeeds",
      "outputs": [
        {
          "internalType": "address",
          "name": "",
          "type": "address"
        }
      ],
      "payable": false,
      "stateMutability": "view",
      "type": "function"
    },
    {
      "constant": true,
      "inputs": [],
      "name": "protocolAddress",
      "outputs": [
        {
          "internalType": "address",
          "name": "",
          "type": "address"
        }
      ],
      "payable": false,
      "stateMutability": "view",
      "type": "function"
    },
    {
      "constant": true,
      "inputs": [],
      "name": "protocolTokenAddress",
      "outputs": [
        {
          "internalType": "address",
          "name": "",
          "type": "address"
        }
      ],
      "payable": false,
      "stateMutability": "view",
      "type": "function"
    },
    {
      "constant": true,
      "inputs": [],
      "name": "protocolTokenHeld",
      "outputs": [
        {
          "internalType": "uint256",
          "name": "",
          "type": "uint256"
        }
      ],
      "payable": false,
      "stateMutability": "view",
      "type": "function"
    },
    {
      "constant": true,
      "inputs": [],
      "name": "protocolTokenPaid",
      "outputs": [
        {
          "internalType": "uint256",
          "name": "",
          "type": "uint256"
        }
      ],
      "payable": false,
      "stateMutability": "view",
      "type": "function"
    },
    {
      "constant": false,
      "inputs": [
        {
          "internalType": "address",
          "name": "sourceTokenAddress",
          "type": "address"
        },
        {
          "internalType": "address",
          "name": "destTokenAddress",
          "type": "address"
        }
      ],
      "name": "removeDefaultPathConversion",
      "outputs": [],
      "payable": false,
      "stateMutability": "nonpayable",
      "type": "function"
    },
    {
      "constant": true,
      "inputs": [],
      "name": "rolloverBaseReward",
      "outputs": [
        {
          "internalType": "uint256",
          "name": "",
          "type": "uint256"
        }
      ],
      "payable": false,
      "stateMutability": "view",
      "type": "function"
    },
    {
      "constant": true,
      "inputs": [],
      "name": "rolloverFlexFeePercent",
      "outputs": [
        {
          "internalType": "uint256",
          "name": "",
          "type": "uint256"
        }
      ],
      "payable": false,
      "stateMutability": "view",
      "type": "function"
    },
    {
      "constant": false,
      "inputs": [
        {
          "internalType": "address",
          "name": "newAdmin",
          "type": "address"
        }
      ],
      "name": "setAdmin",
      "outputs": [],
      "payable": false,
      "stateMutability": "nonpayable",
      "type": "function"
    },
    {
      "constant": false,
      "inputs": [
        {
          "internalType": "uint256",
          "name": "newValue",
          "type": "uint256"
        }
      ],
      "name": "setAffiliateFeePercent",
      "outputs": [],
      "payable": false,
      "stateMutability": "nonpayable",
      "type": "function"
    },
    {
      "constant": false,
      "inputs": [
        {
          "internalType": "uint256",
          "name": "newValue",
          "type": "uint256"
        }
      ],
      "name": "setAffiliateTradingTokenFeePercent",
      "outputs": [],
      "payable": false,
      "stateMutability": "nonpayable",
      "type": "function"
    },
    {
      "constant": false,
      "inputs": [
        {
          "internalType": "uint256",
          "name": "newValue",
          "type": "uint256"
        }
      ],
      "name": "setBorrowingFeePercent",
      "outputs": [],
      "payable": false,
      "stateMutability": "nonpayable",
      "type": "function"
    },
    {
      "constant": false,
      "inputs": [
        {
          "internalType": "contract IERC20[]",
          "name": "defaultPath",
          "type": "address[]"
        }
      ],
      "name": "setDefaultPathConversion",
      "outputs": [],
      "payable": false,
      "stateMutability": "nonpayable",
      "type": "function"
    },
    {
      "constant": false,
      "inputs": [
        {
          "internalType": "address",
          "name": "newController",
          "type": "address"
        }
      ],
      "name": "setFeesController",
      "outputs": [],
      "payable": false,
      "stateMutability": "nonpayable",
      "type": "function"
    },
    {
      "constant": false,
      "inputs": [
        {
          "internalType": "uint256",
          "name": "newValue",
          "type": "uint256"
        }
      ],
      "name": "setLendingFeePercent",
      "outputs": [],
      "payable": false,
      "stateMutability": "nonpayable",
      "type": "function"
    },
    {
      "constant": false,
      "inputs": [
        {
          "internalType": "uint256",
          "name": "newValue",
          "type": "uint256"
        }
      ],
      "name": "setLiquidationIncentivePercent",
      "outputs": [],
      "payable": false,
      "stateMutability": "nonpayable",
      "type": "function"
    },
    {
      "constant": false,
      "inputs": [
        {
          "internalType": "address[]",
          "name": "pools",
          "type": "address[]"
        },
        {
          "internalType": "address[]",
          "name": "assets",
          "type": "address[]"
        }
      ],
      "name": "setLoanPool",
      "outputs": [],
      "payable": false,
      "stateMutability": "nonpayable",
      "type": "function"
    },
    {
      "constant": false,
      "inputs": [
        {
          "internalType": "address",
          "name": "newLockedSOVAddress",
          "type": "address"
        }
      ],
      "name": "setLockedSOVAddress",
      "outputs": [],
      "payable": false,
      "stateMutability": "nonpayable",
      "type": "function"
    },
    {
      "constant": false,
      "inputs": [
        {
          "internalType": "uint256",
          "name": "newValue",
          "type": "uint256"
        }
      ],
      "name": "setMaxDisagreement",
      "outputs": [],
      "payable": false,
      "stateMutability": "nonpayable",
      "type": "function"
    },
    {
      "constant": false,
      "inputs": [
        {
          "internalType": "uint256",
          "name": "newValue",
          "type": "uint256"
        }
      ],
      "name": "setMaxSwapSize",
      "outputs": [],
      "payable": false,
      "stateMutability": "nonpayable",
      "type": "function"
    },
    {
      "constant": false,
      "inputs": [
        {
          "internalType": "uint256",
          "name": "newMinReferrals",
          "type": "uint256"
        }
      ],
      "name": "setMinReferralsToPayoutAffiliates",
      "outputs": [],
      "payable": false,
      "stateMutability": "nonpayable",
      "type": "function"
    },
    {
      "constant": false,
      "inputs": [
        {
          "internalType": "address",
          "name": "newPauser",
          "type": "address"
        }
      ],
      "name": "setPauser",
      "outputs": [],
      "payable": false,
      "stateMutability": "nonpayable",
      "type": "function"
    },
    {
      "constant": false,
      "inputs": [
        {
          "internalType": "address",
          "name": "newContract",
          "type": "address"
        }
      ],
      "name": "setPriceFeedContract",
      "outputs": [],
      "payable": false,
      "stateMutability": "nonpayable",
      "type": "function"
    },
    {
      "constant": false,
      "inputs": [
        {
          "internalType": "address",
          "name": "_protocolTokenAddress",
          "type": "address"
        }
      ],
      "name": "setProtocolTokenAddress",
      "outputs": [],
      "payable": false,
      "stateMutability": "nonpayable",
      "type": "function"
    },
    {
      "constant": false,
      "inputs": [
        {
          "internalType": "uint256",
          "name": "rebatePercent",
          "type": "uint256"
        }
      ],
      "name": "setRebatePercent",
      "outputs": [],
      "payable": false,
      "stateMutability": "nonpayable",
      "type": "function"
    },
    {
      "constant": false,
      "inputs": [
        {
          "internalType": "uint256",
          "name": "baseRewardValue",
          "type": "uint256"
        }
      ],
      "name": "setRolloverBaseReward",
      "outputs": [],
      "payable": false,
      "stateMutability": "nonpayable",
      "type": "function"
    },
    {
      "constant": false,
      "inputs": [
        {
          "internalType": "uint256",
          "name": "newRolloverFlexFeePercent",
          "type": "uint256"
        }
      ],
      "name": "setRolloverFlexFeePercent",
      "outputs": [],
      "payable": false,
      "stateMutability": "nonpayable",
      "type": "function"
    },
    {
      "constant": false,
      "inputs": [
        {
          "internalType": "address",
          "name": "newSovTokenAddress",
          "type": "address"
        }
      ],
      "name": "setSOVTokenAddress",
      "outputs": [],
      "payable": false,
      "stateMutability": "nonpayable",
      "type": "function"
    },
    {
      "constant": false,
      "inputs": [
        {
          "internalType": "uint256",
          "name": "newValue",
          "type": "uint256"
        }
      ],
      "name": "setSourceBuffer",
      "outputs": [],
      "payable": false,
      "stateMutability": "nonpayable",
      "type": "function"
    },
    {
      "constant": false,
      "inputs": [
        {
          "internalType": "address",
          "name": "newProtocolAddress",
          "type": "address"
        }
      ],
      "name": "setSovrynProtocolAddress",
      "outputs": [],
      "payable": false,
      "stateMutability": "nonpayable",
      "type": "function"
    },
    {
      "constant": false,
      "inputs": [
        {
          "internalType": "address",
          "name": "registryAddress",
          "type": "address"
        }
      ],
      "name": "setSovrynSwapContractRegistryAddress",
      "outputs": [],
      "payable": false,
      "stateMutability": "nonpayable",
      "type": "function"
    },
    {
      "constant": false,
      "inputs": [
        {
          "internalType": "address",
          "name": "sourceToken",
          "type": "address"
        },
        {
          "internalType": "address",
          "name": "destToken",
          "type": "address"
        },
        {
          "internalType": "uint256",
          "name": "specialRebatesPercent",
          "type": "uint256"
        }
      ],
      "name": "setSpecialRebates",
      "outputs": [],
      "payable": false,
      "stateMutability": "nonpayable",
      "type": "function"
    },
    {
      "constant": false,
      "inputs": [
        {
          "internalType": "address[]",
          "name": "addrs",
          "type": "address[]"
        },
        {
          "internalType": "bool[]",
          "name": "toggles",
          "type": "bool[]"
        }
      ],
      "name": "setSupportedTokens",
      "outputs": [],
      "payable": false,
      "stateMutability": "nonpayable",
      "type": "function"
    },
    {
      "constant": false,
      "inputs": [
        {
          "internalType": "uint256",
          "name": "newValue",
          "type": "uint256"
        }
      ],
      "name": "setSwapExternalFeePercent",
      "outputs": [],
      "payable": false,
      "stateMutability": "nonpayable",
      "type": "function"
    },
    {
      "constant": false,
      "inputs": [
        {
          "internalType": "address",
          "name": "newContract",
          "type": "address"
        }
      ],
      "name": "setSwapsImplContract",
      "outputs": [],
      "payable": false,
      "stateMutability": "nonpayable",
      "type": "function"
    },
    {
      "constant": false,
      "inputs": [
        {
          "internalType": "uint256",
          "name": "newValue",
          "type": "uint256"
        }
      ],
      "name": "setTradingFeePercent",
      "outputs": [],
      "payable": false,
      "stateMutability": "nonpayable",
      "type": "function"
    },
    {
      "constant": false,
      "inputs": [
        {
          "internalType": "uint256",
          "name": "newBasisPoint",
          "type": "uint256"
        }
      ],
      "name": "setTradingRebateRewardsBasisPoint",
      "outputs": [],
      "payable": false,
      "stateMutability": "nonpayable",
      "type": "function"
    },
    {
      "constant": false,
      "inputs": [
        {
          "internalType": "address",
          "name": "wrbtcTokenAddress",
          "type": "address"
        }
      ],
      "name": "setWrbtcToken",
      "outputs": [],
      "payable": false,
      "stateMutability": "nonpayable",
      "type": "function"
    },
    {
      "constant": true,
      "inputs": [],
      "name": "sourceBuffer",
      "outputs": [
        {
          "internalType": "uint256",
          "name": "",
          "type": "uint256"
        }
      ],
      "payable": false,
      "stateMutability": "view",
      "type": "function"
    },
    {
      "constant": true,
      "inputs": [],
      "name": "sovTokenAddress",
      "outputs": [
        {
          "internalType": "address",
          "name": "",
          "type": "address"
        }
      ],
      "payable": false,
      "stateMutability": "view",
      "type": "function"
    },
    {
      "constant": true,
      "inputs": [],
      "name": "sovrynSwapContractRegistryAddress",
      "outputs": [
        {
          "internalType": "address",
          "name": "",
          "type": "address"
        }
      ],
      "payable": false,
      "stateMutability": "view",
      "type": "function"
    },
    {
      "constant": true,
      "inputs": [
        {
          "internalType": "address",
          "name": "",
          "type": "address"
        },
        {
          "internalType": "address",
          "name": "",
          "type": "address"
        }
      ],
      "name": "specialRebates",
      "outputs": [
        {
          "internalType": "uint256",
          "name": "",
          "type": "uint256"
        }
      ],
      "payable": false,
      "stateMutability": "view",
      "type": "function"
    },
    {
      "constant": true,
      "inputs": [
        {
          "internalType": "address",
          "name": "",
          "type": "address"
        }
      ],
      "name": "supportedTokens",
      "outputs": [
        {
          "internalType": "bool",
          "name": "",
          "type": "bool"
        }
      ],
      "payable": false,
      "stateMutability": "view",
      "type": "function"
    },
    {
      "constant": true,
      "inputs": [],
      "name": "swapsImpl",
      "outputs": [
        {
          "internalType": "address",
          "name": "",
          "type": "address"
        }
      ],
      "payable": false,
      "stateMutability": "view",
      "type": "function"
    },
    {
      "constant": false,
      "inputs": [
        {
          "internalType": "bool",
          "name": "paused",
          "type": "bool"
        }
      ],
      "name": "togglePaused",
      "outputs": [],
      "payable": false,
      "stateMutability": "nonpayable",
      "type": "function"
    },
    {
      "constant": true,
      "inputs": [],
      "name": "tradingFeePercent",
      "outputs": [
        {
          "internalType": "uint256",
          "name": "",
          "type": "uint256"
        }
      ],
      "payable": false,
      "stateMutability": "view",
      "type": "function"
    },
    {
      "constant": true,
      "inputs": [
        {
          "internalType": "address",
          "name": "",
          "type": "address"
        }
      ],
      "name": "tradingFeeTokensHeld",
      "outputs": [
        {
          "internalType": "uint256",
          "name": "",
          "type": "uint256"
        }
      ],
      "payable": false,
      "stateMutability": "view",
      "type": "function"
    },
    {
      "constant": true,
      "inputs": [
        {
          "internalType": "address",
          "name": "",
          "type": "address"
        }
      ],
      "name": "tradingFeeTokensPaid",
      "outputs": [
        {
          "internalType": "uint256",
          "name": "",
          "type": "uint256"
        }
      ],
      "payable": false,
      "stateMutability": "view",
      "type": "function"
    },
    {
      "constant": false,
      "inputs": [
        {
          "internalType": "address",
          "name": "newOwner",
          "type": "address"
        }
      ],
      "name": "transferOwnership",
      "outputs": [],
      "payable": false,
      "stateMutability": "nonpayable",
      "type": "function"
    },
    {
      "constant": true,
      "inputs": [
        {
          "internalType": "address",
          "name": "",
          "type": "address"
        }
      ],
      "name": "underlyingToLoanPool",
      "outputs": [
        {
          "internalType": "address",
          "name": "",
          "type": "address"
        }
      ],
      "payable": false,
      "stateMutability": "view",
      "type": "function"
    },
    {
      "constant": true,
      "inputs": [
        {
          "internalType": "address",
          "name": "",
          "type": "address"
        }
      ],
      "name": "userNotFirstTradeFlag",
      "outputs": [
        {
          "internalType": "bool",
          "name": "",
          "type": "bool"
        }
      ],
      "payable": false,
      "stateMutability": "view",
      "type": "function"
    },
    {
      "constant": false,
      "inputs": [
        {
          "internalType": "address",
          "name": "token",
          "type": "address"
        },
        {
          "internalType": "address",
          "name": "receiver",
          "type": "address"
        },
        {
          "internalType": "uint256",
          "name": "amount",
          "type": "uint256"
        }
      ],
      "name": "withdrawBorrowingFees",
      "outputs": [
        {
          "internalType": "bool",
          "name": "",
          "type": "bool"
        }
      ],
      "payable": false,
      "stateMutability": "nonpayable",
      "type": "function"
    },
    {
      "constant": false,
      "inputs": [
        {
          "internalType": "address[]",
          "name": "tokens",
          "type": "address[]"
        },
        {
          "internalType": "address",
          "name": "receiver",
          "type": "address"
        }
      ],
      "name": "withdrawFees",
      "outputs": [
        {
          "internalType": "uint256",
          "name": "totalWRBTCWithdrawn",
          "type": "uint256"
        }
      ],
      "payable": false,
      "stateMutability": "nonpayable",
      "type": "function"
    },
    {
      "constant": false,
      "inputs": [
        {
          "internalType": "address",
          "name": "token",
          "type": "address"
        },
        {
          "internalType": "address",
          "name": "receiver",
          "type": "address"
        },
        {
          "internalType": "uint256",
          "name": "amount",
          "type": "uint256"
        }
      ],
      "name": "withdrawLendingFees",
      "outputs": [
        {
          "internalType": "bool",
          "name": "",
          "type": "bool"
        }
      ],
      "payable": false,
      "stateMutability": "nonpayable",
      "type": "function"
    },
    {
      "constant": false,
      "inputs": [
        {
          "internalType": "address",
          "name": "receiver",
          "type": "address"
        },
        {
          "internalType": "uint256",
          "name": "amount",
          "type": "uint256"
        }
      ],
      "name": "withdrawProtocolToken",
      "outputs": [
        {
          "internalType": "address",
          "name": "",
          "type": "address"
        },
        {
          "internalType": "bool",
          "name": "",
          "type": "bool"
        }
      ],
      "payable": false,
      "stateMutability": "nonpayable",
      "type": "function"
    },
    {
      "constant": false,
      "inputs": [
        {
          "internalType": "address",
          "name": "token",
          "type": "address"
        },
        {
          "internalType": "address",
          "name": "receiver",
          "type": "address"
        },
        {
          "internalType": "uint256",
          "name": "amount",
          "type": "uint256"
        }
      ],
      "name": "withdrawTradingFees",
      "outputs": [
        {
          "internalType": "bool",
          "name": "",
          "type": "bool"
        }
      ],
      "payable": false,
      "stateMutability": "nonpayable",
      "type": "function"
    },
    {
      "constant": true,
      "inputs": [],
      "name": "wrbtcToken",
      "outputs": [
        {
          "internalType": "contract IWrbtcERC20",
          "name": "",
          "type": "address"
        }
      ],
      "payable": false,
      "stateMutability": "view",
      "type": "function"
    }
  ],
  "bytecode": "0x60806040526001600055678ac7230489e80000601555670214e8348c4f000060185567013fbe85edc90000601b55674563918244f40000602055674563918244f40000602155674563918244f400006027556127106028556802b5e3af16b1880000602955650f478e084000602b5567016345785d8a0000602c556802b5e3af16b1880000602f5560036035556801158e460913d00000603955348015620000a657600080fd5b506000620000bc6001600160e01b036200011016565b600180546001600160a01b0319166001600160a01b038316908117909155604051919250906000907f8be0079c531659141344cd1fd0a4f28419497f9722a3daafe3b4186f6b6457e0908290a35062000114565b3390565b615a2680620001246000396000f3fe608060405234801561001057600080fd5b50600436106106235760003560e01c80638da5cb5b11610336578063cb6eacd1116101c3578063e41964801161010f578063f44942ec116100ad578063f6ddc8b311610087578063f6ddc8b314610d07578063f706b1f214610d0f578063f7e7aab014610d17578063f851a44014610d2a57610623565b8063f44942ec14610ce4578063f589a3e714610cec578063f695379a14610cf457610623565b8063ea0e3930116100e9578063ea0e393014610cae578063edab119f14610cc1578063f0e085f514610cc9578063f2fde38b14610cd157610623565b8063e419648014610c8b578063e8997dbd14610c93578063e8f6276414610ca657610623565b8063d485045e1161017c578063da541e0911610156578063da541e0914610c4a578063dac8856114610c5d578063dfdddc9914610c65578063e3ff937014610c7857610623565b8063d485045e14610c11578063d7480e2114610c24578063d9eaaa6414610c3757610623565b8063cb6eacd114610ba1578063cd5d808d14610bc8578063d21f8e2414610bdb578063d238db2214610bee578063d288208c14610c01578063d473c2da14610c0957610623565b8063ae0a853011610282578063b9cffa3e1161023b578063c22552f711610215578063c22552f714610b48578063c4a9081514610b50578063c4d66de814610b7b578063c7c333f014610b8e57610623565b8063b9cffa3e14610b25578063ba4861e914610b2d578063bdee453c14610b3557610623565b8063ae0a853014610abc578063afe8400914610ac4578063b1558b7214610ad9578063b1ac89ca14610aec578063b30643d914610aff578063b7e1524114610b1257610623565b806396881857116102ef578063a2ab1ba1116102c9578063a2ab1ba114610a7b578063a32bb68314610a8e578063a6e7cc2814610aa1578063acc0434814610ab457610623565b80639688185714610a345780639c53874f14610a55578063a1eb568314610a6857610623565b80638da5cb5b146109e35780638dc48ba5146109eb5780638f32d59b146109fe5780639254e6bf14610a0657806392d894f814610a19578063959083d314610a2c57610623565b8063462096f3116104b45780636fbae33b1161040057806374626404116103b95780637fb202e5116103935780637fb202e5146109955780638456cb59146109a857806384eaa9e0146109b057806386540429146109c357610623565b8063746264041461097257806378d849ed146109855780637a8faeb81461098d57610623565b80636fbae33b146109215780637008b54814610934578063704b6c021461093c5780637420ca3e1461094f578063742e67981461095757806374326e8f1461095f57610623565b8063574442cc1161046d57806362fff3f61161044757806362fff3f6146108cf57806368c4ac26146108f35780636e663730146109065780636e9960c31461091957610623565b8063574442cc146108a157806359d0d9ec146108a957806359e49e0f146108bc57610623565b8063462096f31461084c5780634699f846146108545780634bcfe7261461085c5780634dd053a5146108645780634f28cac214610877578063569fc1fb1461087f57610623565b80632d77d0d011610573578063355a395f1161052c5780633fca506e116105065780633fca506e146107f3578063402946b9146108065780634115a2b6146108265780634203e3951461083957610623565b8063355a395f146107c55780633c56ae1b146107d85780633f1ae8b9146107eb57610623565b80632d77d0d01461075e5780632d88af4a146107715780632f4707641461078457806332e4706f1461078c5780633432423c1461079f5780633452d2d4146107b257610623565b806317f8b788116105e0578063218b39c6116105ba578063218b39c61461071d57806324cc57491461073057806329f9986d146107435780632a3240271461075657610623565b806317f8b788146106d75780631a81c191146106ea5780631b7bde74146106fd57610623565b8063065d810f146106445780630676c1b71461067257806307024c25146106875780630c615ee91461068f578063115dd4b1146106a457806317548b79146106c4575b60405162461bcd60e51b815260040161063b90615794565b60405180910390fd5b610657610652366004614a33565b610d32565b604051610669969594939291906158a4565b60405180910390f35b61067a610d72565b604051610669919061538d565b61067a610d81565b6106a261069d366004614b9c565b610d91565b005b6106b76106b236600461498e565b610e5e565b604051610669919061552a565b61067a6106d2366004614bd9565b610e7e565b6106a26106e5366004614b9c565b610e99565b6106a26106f836600461498e565b610f5a565b61071061070b3660046149ac565b61100b565b6040516106699190615814565b61067a61072b36600461498e565b611028565b6106b761073e36600461498e565b611043565b6106a2610751366004614b9c565b611058565b610710611119565b6106a261076c36600461498e565b61111f565b6106a261077f36600461498e565b6111f6565b61071061126e565b6106b761079a3660046149e6565b611274565b6106576107ad366004614a33565b6113d0565b6107106107c036600461498e565b611410565b6106a26107d3366004614b9c565b611422565b6106a26107e6366004614b9c565b6114ba565b61071061154d565b61071061080136600461498e565b611553565b610819610814366004614c33565b611565565b60405161066991906154f6565b6106b7610834366004614bba565b611582565b61071061084736600461498e565b6115a2565b6107106115b4565b6107106115ba565b61067a6115c0565b6106a261087236600461498e565b6115cf565b6107106116a4565b61089261088d366004614b9c565b6116aa565b60405161066993929190615830565b6107106116cb565b6107106108b73660046149ac565b6116d1565b6106a26108ca366004614aae565b6116fc565b6108e26108dd3660046149ac565b611bc1565b604051610669959493929190615889565b6106b761090136600461498e565b611bfb565b61067a61091436600461498e565b611c10565b61067a611c2b565b6106a261092f36600461498e565b611c3a565b61067a611d0f565b6106a261094a36600461498e565b611d1e565b61067a611da0565b610710611daf565b6106b761096d3660046149e6565b611db5565b6106a261098036600461498e565b611efb565b61067a611fac565b610710611fbb565b6106a26109a3366004614b9c565b611fc1565b6106b7612022565b6106a26109be366004614aae565b61202b565b6109d66109d13660046149ac565b6121a9565b6040516106699190615519565b61067a612229565b61067a6109f936600461498e565b612238565b6106b7612253565b6106a2610a1436600461498e565b612279565b610710610a2736600461498e565b612329565b61071061233b565b610a47610a42366004614a33565b612341565b6040516106699291906154a5565b6106a2610a63366004614b9c565b6123b6565b6106a2610a76366004614b9c565b612477565b6106a2610a89366004614b9c565b612531565b6106a2610a9c366004614b9c565b6125f2565b6106a2610aaf366004614b9c565b6126b3565b610710612714565b61071061271a565b610acc612720565b6040516106699190615655565b6106a2610ae7366004614b9c565b61272f565b6106b7610afa3660046149e6565b6127e7565b610710610b0d36600461498e565b61292d565b610710610b2036600461498e565b61293f565b61067a612951565b61067a612960565b610710610b4336600461498e565b61296f565b610710612981565b610b63610b5e366004614b9c565b612a83565b6040516106699c9b9a999897969594939291906155a2565b6106a2610b8936600461498e565b612af5565b6106a2610b9c366004614b9c565b612f31565b610bb4610baf366004614b9c565b612fc9565b604051610669989796959493929190615538565b610710610bd63660046149ac565b61301b565b6106a2610be9366004614b9c565b613038565b6106a2610bfc366004614b9c565b6130f9565b61067a6131ba565b6107106131c9565b610710610c1f36600461498e565b6131cf565b6106a2610c32366004614b1e565b6131e1565b6106a2610c4536600461498e565b613395565b6106a2610c58366004614b60565b613469565b6106b761350e565b6106a2610c733660046149ac565b613517565b6106a2610c8636600461498e565b6136b9565b61071061378e565b6106a2610ca136600461498e565b613794565b61067a613844565b6106a2610cbc3660046149e6565b613853565b61071061394d565b610710613953565b6106a2610cdf36600461498e565b613959565b61067a613986565b610710613995565b6106a2610d02366004614b9c565b61399b565b610710613a5b565b61067a613a61565b610710610d25366004614a63565b613a70565b61067a61426a565b6009602090815260009283526040808420909152908252902080546001820154600283015460038401546004850154600590950154939492939192909186565b6031546001600160a01b031681565b6031546001600160a01b03165b90565b610d99612253565b80610dae57506030546001600160a01b031633145b610dca5760405162461bcd60e51b815260040161063b90615784565b603d5460ff1615610ded5760405162461bcd60e51b815260040161063b90615684565b68056bc75e2d63100000811115610e165760405162461bcd60e51b815260040161063b90615744565b601880549082905560405133907f0628070e9ccbc70e8be34a2fa969f8d314ec049f17bfcb4c2020df4bccd2bf5290610e529084908690615822565b60405180910390a25050565b6001600160a01b0390811660009081526022602052604090205416151590565b6005602052600090815260409020546001600160a01b031681565b610ea1612253565b80610eb657506030546001600160a01b031633145b610ed25760405162461bcd60e51b815260040161063b90615784565b603d5460ff1615610ef55760405162461bcd60e51b815260040161063b90615684565b68056bc75e2d63100000811115610f1e5760405162461bcd60e51b815260040161063b90615744565b601b80549082905560405133907f5c61c9c51cb2781bc120817a851f7f27c134d5d191bc5a2b0ea971ba638425e490610e529084908690615822565b610f62612253565b80610f7757506030546001600160a01b031633145b610f935760405162461bcd60e51b815260040161063b90615784565b603d5460ff1615610fb65760405162461bcd60e51b815260040161063b90615684565b600380546001600160a01b038381166001600160a01b031983161790925560405191169033907f480cc6e59585343a9e9d6fe591dad0f80ce93bb2399ca672910f380671b46ba890610e52908490869061539b565b603b60209081526000928352604080842090915290825290205481565b6023602052600090815260409020546001600160a01b031681565b60326020526000908152604090205460ff1681565b611060612253565b8061107557506030546001600160a01b031633145b6110915760405162461bcd60e51b815260040161063b90615784565b603d5460ff16156110b45760405162461bcd60e51b815260040161063b90615684565b68056bc75e2d631000008111156110dd5760405162461bcd60e51b815260040161063b90615744565b603e80549082905560405133907f02bd69d9975fcf3b39b6ab502d77983a0cfce893e47073f502d094c6a94da33b90610e529084908690615822565b60185481565b611127612253565b8061113c57506030546001600160a01b031633145b6111585760405162461bcd60e51b815260040161063b90615784565b603d5460ff161561117b5760405162461bcd60e51b815260040161063b90615684565b61118481614279565b6111a05760405162461bcd60e51b815260040161063b90615754565b600480546001600160a01b038381166001600160a01b031983161792839055604051918116921690829033907f54c538f1d732806e1bfc25ec56236dac39e6070dd856c0e7efb2bc274709467d90600090a45050565b6111fe612253565b61121a5760405162461bcd60e51b815260040161063b90615784565b604180546001600160a01b038381166001600160a01b03198316811790935560405191169190829033907f5c2719f5971dd7f2a96ca230f606a73203fc01c5db7731bde30a4e5c0387817290600090a45050565b601f5481565b603d5460009060ff161561129a5760405162461bcd60e51b815260040161063b90615684565b6014546001600160a01b031633146112c45760405162461bcd60e51b815260040161063b90615784565b6001600160a01b0384166000908152601c60205260409020548290808211156112eb578091505b816112fb576000925050506113c9565b61130b818363ffffffff6142b516565b6001600160a01b0387166000908152601c6020908152604080832093909355601d90522054611340908363ffffffff6142f716565b6001600160a01b0387166000818152601d602052604090209190915561136d90868463ffffffff61431c16565b846001600160a01b0316866001600160a01b0316336001600160a01b03167f2bfaa669aeee298bc85fe2b7dddc312fc28b78622f086063b9a410d7ba9939cf856040516113ba9190615814565b60405180910390a46001925050505b9392505050565b6008602090815260009283526040808420909152908252902080546001820154600283015460038401546004850154600590950154939492939192909186565b601a6020526000908152604090205481565b61142a612253565b8061143f57506030546001600160a01b031633145b61145b5760405162461bcd60e51b815260040161063b90615784565b603d5460ff161561147e5760405162461bcd60e51b815260040161063b90615684565b602980549082905560405133907fa645d7b227c34f1f218d53bc3b3ccb9a43eaf2231b33925194f1de755aa3acc390610e529084908690615822565b6114c2612253565b806114d757506030546001600160a01b031633145b6114f35760405162461bcd60e51b815260040161063b90615784565b603d5460ff16156115165760405162461bcd60e51b815260040161063b90615684565b601e54611529908263ffffffff6142f716565b601e55602e5461154a906001600160a01b031633308463ffffffff61437a16565b50565b602f5490565b602a6020526000908152604090205481565b60606115796024848463ffffffff6143a416565b90505b92915050565b600a60209081526000928352604080842090915290825290205460ff1681565b60166020526000908152604090205481565b603e5490565b60155481565b6037546001600160a01b031690565b6115d7612253565b806115ec57506030546001600160a01b031633145b6116085760405162461bcd60e51b815260040161063b90615784565b603d5460ff161561162b5760405162461bcd60e51b815260040161063b90615684565b61163481614279565b6116505760405162461bcd60e51b815260040161063b906156a4565b603880546001600160a01b038381166001600160a01b03198316811790935560405191169190829033907fea3cad8b6739a7a73616cb585fe48a8e8f61d1fd7f9822ccd7580a805357aa7090600090a45050565b60295481565b600c6020526000908152604090208054600182015460029092015490919083565b602b5481565b6001600160a01b039182166000908152603c6020908152604080832093909416825291909152205490565b611704612253565b8061171957506030546001600160a01b031633145b6117355760405162461bcd60e51b815260040161063b90615784565b603d5460ff16156117585760405162461bcd60e51b815260040161063b90615684565b8281146117775760405162461bcd60e51b815260040161063b90615714565b60005b83811015611bba5782828281811061178e57fe5b90506020020160206117a3919081019061498e565b6001600160a01b03168585838181106117b857fe5b90506020020160206117cd919081019061498e565b6001600160a01b031614156117f45760405162461bcd60e51b815260040161063b906157b4565b600085858381811061180257fe5b9050602002016020611817919081019061498e565b6001600160a01b0316141561183e5760405162461bcd60e51b815260040161063b90615804565b600083838381811061184c57fe5b9050602002016020611861919081019061498e565b6001600160a01b03161415806118b85750600060228187878581811061188357fe5b9050602002016020611898919081019061498e565b6001600160a01b0390811682526020820192909252604001600020541614155b6118d45760405162461bcd60e51b815260040161063b90615764565b60008383838181106118e257fe5b90506020020160206118f7919081019061498e565b6001600160a01b03161415611a06576000602360006022600089898781811061191c57fe5b9050602002016020611931919081019061498e565b6001600160a01b0390811682526020808301939093526040918201600090812054821685529284019490945291909101812080546001600160a01b0319169390921692909217905560228187878581811061198857fe5b905060200201602061199d919081019061498e565b6001600160a01b039081168252602082019290925260400160002080546001600160a01b03191692909116919091179055611a008585838181106119dd57fe5b90506020020160206119f2919081019061498e565b60249063ffffffff61447a16565b50611b28565b828282818110611a1257fe5b9050602002016020611a27919081019061498e565b60226000878785818110611a3757fe5b9050602002016020611a4c919081019061498e565b6001600160a01b039081168252602082019290925260400160002080546001600160a01b03191692909116919091179055848482818110611a8957fe5b9050602002016020611a9e919081019061498e565b60236000858585818110611aae57fe5b9050602002016020611ac3919081019061498e565b6001600160a01b039081168252602082019290925260400160002080546001600160a01b03191692909116919091179055611b26858583818110611b0357fe5b9050602002016020611b18919081019061498e565b60249063ffffffff61448716565b505b828282818110611b3457fe5b9050602002016020611b49919081019061498e565b6001600160a01b0316858583818110611b5e57fe5b9050602002016020611b73919081019061498e565b6001600160a01b0316336001600160a01b03167f919223d371e0ad76f1f32dcbe0750166810bff9a9e4b2735bfcd01c5686c8d8960405160405180910390a460010161177a565b5050505050565b600b602090815260009283526040808420909152908252902080546001820154600283015460038401546004909401549293919290919085565b60266020526000908152604090205460ff1681565b6033602052600090815260409020546001600160a01b031681565b6030546001600160a01b031690565b611c42612253565b80611c5757506030546001600160a01b031633145b611c735760405162461bcd60e51b815260040161063b90615784565b603d5460ff1615611c965760405162461bcd60e51b815260040161063b90615684565b611c9f81614279565b611cbb5760405162461bcd60e51b815260040161063b90615704565b603780546001600160a01b038381166001600160a01b03198316811790935560405191169190829033907f6105cbfb5494a79f89745763767914b7b60b00defac5e94c7eb28cc5e44c479f90600090a45050565b6041546001600160a01b031690565b611d26612253565b611d425760405162461bcd60e51b815260040161063b90615784565b6030546040516001600160a01b0380841692169033907fc51248b3e510a1244e01043dffdc0132d10194bd4506382cbcf83d05f6ec57ef90600090a4603080546001600160a01b0319166001600160a01b0392909216919091179055565b6003546001600160a01b031681565b60355481565b603d5460009060ff1615611ddb5760405162461bcd60e51b815260040161063b90615684565b6014546001600160a01b03163314611e055760405162461bcd60e51b815260040161063b90615784565b6001600160a01b038416600090815260196020526040902054829080821115611e2c578091505b81611e3c576000925050506113c9565b611e4c818363ffffffff6142b516565b6001600160a01b038716600090815260196020908152604080832093909355601a90522054611e81908363ffffffff6142f716565b6001600160a01b0387166000818152601a6020526040902091909155611eae90868463ffffffff61431c16565b846001600160a01b0316866001600160a01b0316336001600160a01b03167f951f1856a4d1d8c0081f50a1aee9fdc008f729d0f22849618016e353179b8dda856040516113ba9190615814565b611f03612253565b80611f1857506030546001600160a01b031633145b611f345760405162461bcd60e51b815260040161063b90615784565b603d5460ff1615611f575760405162461bcd60e51b815260040161063b90615684565b600280546001600160a01b038381166001600160a01b031983161790925560405191169033907f05621ab0b721f217895f5337ac1283251172d175ef3dc8c9a0287155f6024ce890610e52908490869061539b565b6002546001600160a01b031681565b601e5481565b611fc9612253565b80611fde57506030546001600160a01b031633145b611ffa5760405162461bcd60e51b815260040161063b90615784565b603d5460ff161561201d5760405162461bcd60e51b815260040161063b90615684565b602755565b603d5460ff1681565b612033612253565b8061204857506030546001600160a01b031633145b6120645760405162461bcd60e51b815260040161063b90615784565b603d5460ff16156120875760405162461bcd60e51b815260040161063b90615684565b8281146120a65760405162461bcd60e51b815260040161063b90615714565b60005b83811015611bba578282828181106120bd57fe5b90506020020160206120d29190810190614b60565b602660008787858181106120e257fe5b90506020020160206120f7919081019061498e565b6001600160a01b031681526020810191909152604001600020805460ff191691151591909117905584848281811061212b57fe5b9050602002016020612140919081019061498e565b6001600160a01b0316337f24cecc90c7d4bc8c6765b75eedcc61d4e1cc4e4d49cd0756c6dfb5f6cc259b5085858581811061217757fe5b905060200201602061218c9190810190614b60565b604051612199919061552a565b60405180910390a36001016120a9565b6001600160a01b03808316600090815260406020818152818320938516835292835290819020805482518185028101850190935280835260609383018282801561221c57602002820191906000526020600020905b81546001600160a01b031681526001909101906020018083116121fe575b5050505050905092915050565b6001546001600160a01b031690565b6022602052600090815260409020546001600160a01b031681565b6001546000906001600160a01b031661226a614494565b6001600160a01b031614905090565b612281612253565b8061229657506030546001600160a01b031633145b6122b25760405162461bcd60e51b815260040161063b90615784565b603d5460ff16156122d55760405162461bcd60e51b815260040161063b90615684565b603180546001600160a01b038381166001600160a01b03198316811790935560405191169190829033907fe48b1893efaee62da0749dd98dbf0ea62ee472b37f7205114aca36cc9de1122890600090a45050565b60176020526000908152604090205481565b602c5481565b60008061234c612253565b8061236157506030546001600160a01b031633145b61237d5760405162461bcd60e51b815260040161063b90615784565b603d5460ff16156123a05760405162461bcd60e51b815260040161063b90615684565b6123aa8484614498565b915091505b9250929050565b6123be612253565b806123d357506030546001600160a01b031633145b6123ef5760405162461bcd60e51b815260040161063b90615784565b603d5460ff16156124125760405162461bcd60e51b815260040161063b90615684565b68056bc75e2d6310000081111561243b5760405162461bcd60e51b815260040161063b906156d4565b602f80549082905560405133907fb12d68e20e5279e25ff10edfc0f82deaa858ea2ac9874cf58518f4e5f942201390610e529084908690615822565b61247f612253565b8061249457506030546001600160a01b031633145b6124b05760405162461bcd60e51b815260040161063b90615784565b603d5460ff16156124d35760405162461bcd60e51b815260040161063b90615684565b61270f8111156124f55760405162461bcd60e51b815260040161063b90615744565b603f80549082905560405133907fc6d322dc6668f20ff04ac11b217aae8e8704e6388bd1dececeab1059db806bf690610e529084908690615822565b612539612253565b8061254e57506030546001600160a01b031633145b61256a5760405162461bcd60e51b815260040161063b90615784565b603d5460ff161561258d5760405162461bcd60e51b815260040161063b90615684565b68056bc75e2d631000008111156125b65760405162461bcd60e51b815260040161063b90615744565b602180549082905560405133907fa06d9b7b1c979150dcbf5b050626cc7d06c764a12ebf76ec8d16b8d3d7c9ee5390610e529084908690615822565b6125fa612253565b8061260f57506030546001600160a01b031633145b61262b5760405162461bcd60e51b815260040161063b90615784565b603d5460ff161561264e5760405162461bcd60e51b815260040161063b90615684565b68056bc75e2d631000008111156126775760405162461bcd60e51b815260040161063b90615744565b603980549082905560405133907f61d3e840cf1074298f10fa77edb788b4e5e554d7d135c93ac5f38f2ce0f6b52d90610e529084908690615822565b6126bb612253565b806126d057506030546001600160a01b031633145b6126ec5760405162461bcd60e51b815260040161063b90615784565b603d5460ff161561270f5760405162461bcd60e51b815260040161063b90615684565b602855565b602f5481565b60205481565b602d546001600160a01b031681565b612737612253565b8061274c57506030546001600160a01b031633145b6127685760405162461bcd60e51b815260040161063b90615784565b603d5460ff161561278b5760405162461bcd60e51b815260040161063b90615684565b600081116127ab5760405162461bcd60e51b815260040161063b90615694565b602b80549082905560405133907f13cb748cec5c5021a23ec7994522a0911f24f10fdabc909281fbe95914b782f090610e529084908690615822565b603d5460009060ff161561280d5760405162461bcd60e51b815260040161063b90615684565b6014546001600160a01b031633146128375760405162461bcd60e51b815260040161063b90615784565b6001600160a01b03841660009081526016602052604090205482908082111561285e578091505b8161286e576000925050506113c9565b61287e818363ffffffff6142b516565b6001600160a01b0387166000908152601660209081526040808320939093556017905220546128b3908363ffffffff6142f716565b6001600160a01b0387166000818152601760205260409020919091556128e090868463ffffffff61431c16565b846001600160a01b0316866001600160a01b0316336001600160a01b03167fabc20bdd02de91df32a6e4a11684e26e0a34dc5a895a314ae51a919bc9f62c60856040516113ba9190615814565b601d6020526000908152604090205481565b601c6020526000908152604090205481565b6037546001600160a01b031681565b6004546001600160a01b031681565b60366020526000908152604090205481565b6037546040516370a0823160e01b815260009182916001600160a01b03909116906370a08231906129b690309060040161538d565b60206040518083038186803b1580156129ce57600080fd5b505afa1580156129e2573d6000803e3d6000fd5b505050506040513d601f19601f82011682018060405250612a069190810190614c15565b6037546001600160a01b03166000908152601c602090815260408083205460198352818420546016909352908320549394509192612a5b9291612a4f919063ffffffff6142f716565b9063ffffffff6142f716565b905080821015612a6c576000612a7c565b612a7c828263ffffffff6142b516565b9250505090565b600660208190526000918252604090912080546001820154600283015460038401546004850154600586015496860154600787015460088801546009890154600a8a0154600b909a0154989a9799969860ff909616979496949593949293919290916001600160a01b0391821691168c565b612afd612253565b80612b1257506030546001600160a01b031633145b612b2e5760405162461bcd60e51b815260040161063b90615784565b631d18990160e21b600081905260056020527fe1ae43de9a4a3eb1abb1a58087a8aff0717a77c07be9f83ced74911b33b030e3546001600160a01b031690612b769083614515565b612b87631a81c19160e01b83614515565b612b986359e49e0f60e01b83614515565b612ba9630427554f60e51b83614515565b612bba63691c6d9160e11b83614515565b612bcb630c615ee960e01b83614515565b612bdc6302ff16f160e31b83614515565b612bed6329f9986d60e01b83614515565b612bfe633487e38960e21b83614515565b612c0f63a32bb68360e01b83614515565b612c2063a2ab1ba160e01b83614515565b612c31637fb202e560e01b83614515565b612c426314dcf98560e31b83614515565b612c5363355a395f60e01b83614515565b612c6463e8997dbd60e01b83614515565b612c75630f7e7aab60e41b83614515565b612c866358d644e560e11b83614515565b612c976374326e8f60e01b83614515565b612ca86332e4706f60e01b83614515565b612cb9639688185760e01b83614515565b612cca633c56ae1b60e01b83614515565b612cdb63402946b960e01b83614515565b612cec63115dd4b160e01b83614515565b612cfd6302d77d0d60e41b83614515565b612d0e63367aaa9960e21b83614515565b612d1f630e3ff93760e41b83614515565b612d306358aac5b960e11b83614515565b612d41639c53874f60e01b83614515565b612d52630ea0e39360e41b83614515565b612d63639254e6bf60e01b83614515565b612d74636fbae33b60e01b83614515565b612d85634dd053a560e01b83614515565b612d96630c7c333f60e41b83614515565b612da7631674367b60e21b83614515565b612db86307024c2560e01b83614515565b612dc96325e7f39360e11b83614515565b612dda633d1250bb60e21b83614515565b612deb633f1ae8b960e01b83614515565b612dfc63da541e0960e01b83614515565b612e0d63dac8856160e01b83614515565b612e1e63462096f360e01b83614515565b612e2f63a1eb568360e01b83614515565b612e406301c832c960e71b83614515565b612e5163c22552f760e01b83614515565b612e62637b4a9bcd60e11b83614515565b612e73638654042960e01b83614515565b612e8463d7480e2160e01b83614515565b612e9563dfdddc9960e01b83614515565b612ea6633825b60160e11b83614515565b612eb7636e9960c360e01b83614515565b612ec86316c457a560e11b83614515565b612ed9630e0116a960e31b83614515565b6f50726f746f636f6c53657474696e677360801b826001600160a01b0316826001600160a01b03167f1420e3a2094d671bc2eb897941fa3d94ffa37f0cb6d530651946250a2151cb7f60405160405180910390a45050565b612f39612253565b80612f4e57506030546001600160a01b031633145b612f6a5760405162461bcd60e51b815260040161063b90615784565b603d5460ff1615612f8d5760405162461bcd60e51b815260040161063b90615684565b603580549082905560405133907f5b3b73dcee2d869937089aa5282989415bc607389ab2d4164ae83e7a9e1da08490610e529084908690615822565b6007602052600090815260409020805460018201546002830154600384015460048501546005860154600690960154949560ff8516956101009095046001600160a01b03908116959481169493169288565b603c60209081526000928352604080842090915290825290205481565b613040612253565b8061305557506030546001600160a01b031633145b6130715760405162461bcd60e51b815260040161063b90615784565b603d5460ff16156130945760405162461bcd60e51b815260040161063b90615684565b68056bc75e2d631000008111156130bd5760405162461bcd60e51b815260040161063b90615744565b602080549082905560405133907f7f47cc725826cba6f43b2c0a013328b47d5f16aa9d27d6f0196a37a35c8e53f590610e529084908690615822565b613101612253565b8061311657506030546001600160a01b031633145b6131325760405162461bcd60e51b815260040161063b90615784565b603d5460ff16156131555760405162461bcd60e51b815260040161063b90615684565b68056bc75e2d6310000081111561317e5760405162461bcd60e51b815260040161063b90615744565b601580549082905560405133907fa6c5bd6650afa784494efd877ecd8b7505efbbbaed74b7dd29f1472d6cd0c49290610e529084908690615822565b6038546001600160a01b031681565b60275481565b60196020526000908152604090205481565b6131e9612253565b806131fe57506030546001600160a01b031633145b61321a5760405162461bcd60e51b815260040161063b90615784565b603d5460ff161561323d5760405162461bcd60e51b815260040161063b90615684565b60008282600081811061324c57fe5b90506020020160206132619190810190614bf7565b905060008383600019810181811061327557fe5b905060200201602061328a9190810190614bf7565b90508260038110156132ae5760405162461bcd60e51b815260040161063b90615724565b60005b81811015613306576132e28686838181106132c857fe5b90506020020160206132dd9190810190614bf7565b614279565b6132fe5760405162461bcd60e51b815260040161063b90615674565b6001016132b1565b506001600160a01b0380841660009081526040602081815281832093861683529290925220613336908686614840565b50816001600160a01b0316836001600160a01b0316336001600160a01b03167f129b9c235ee9080c61000669529ef5e13890b4d0baa3f9fd78a24755e6977e848888604051613386929190615507565b60405180910390a45050505050565b61339d612253565b806133b257506030546001600160a01b031633145b6133ce5760405162461bcd60e51b815260040161063b90615784565b603d5460ff16156133f15760405162461bcd60e51b815260040161063b90615684565b6133fa81614279565b6134165760405162461bcd60e51b815260040161063b90615734565b602d80546001600160a01b038381166001600160a01b03198316811790935560405191169190829033907ec53b30140bc38db3a9070249d614e03304ada9e458b2d2f01d23feed00985a90600090a45050565b613471612253565b8061348657506041546001600160a01b031633145b6134a25760405162461bcd60e51b815260040161063b90615784565b603d5460ff16151581151514156134cb5760405162461bcd60e51b815260040161063b906157e4565b603d805460ff19168215801591821790925560405190919033907f575725fa4843b62a71608b620f6d2a15792407ae40e019230a0500109782f66090600090a450565b603d5460ff1690565b61351f612253565b8061353457506030546001600160a01b031633145b6135505760405162461bcd60e51b815260040161063b90615784565b603d5460ff16156135735760405162461bcd60e51b815260040161063b90615684565b6001600160a01b0380831660009081526040602081815281832093851683529290925220546135b45760405162461bcd60e51b815260040161063b906156f4565b6001600160a01b03808316600090815260406020818152818320938516835292835290819020805482518185028101850190935280835260609383018282801561362757602002820191906000526020600020905b81546001600160a01b03168152600190910190602001808311613609575b505050506001600160a01b0385811660009081526040602081815281832093881683529290925290812092935061365f9291506148a3565b816001600160a01b0316836001600160a01b0316336001600160a01b03167f1a4d14c8795096885326639e56c528b0fbb308e1b94146c8515c41042681121d846040516136ac9190615519565b60405180910390a4505050565b6136c1612253565b806136d657506030546001600160a01b031633145b6136f25760405162461bcd60e51b815260040161063b90615784565b603d5460ff16156137155760405162461bcd60e51b815260040161063b90615684565b61371e81614279565b61373a5760405162461bcd60e51b815260040161063b906157d4565b602e80546001600160a01b038381166001600160a01b03198316811790935560405191169190829033907fffdeb9a96d6e1f867bcbb8a64815e576b65141995ab197cf02f7bb34fc186b7590600090a45050565b603f5490565b61379c612253565b806137b157506030546001600160a01b031633145b6137cd5760405162461bcd60e51b815260040161063b90615784565b603d5460ff16156137f05760405162461bcd60e51b815260040161063b90615684565b601480546001600160a01b038381166001600160a01b03198316811790935560405191169190829033907f83e92cb95ec836f94e25e0a7b31c39f750833a8ce24eaa227a7050aafea08a8490600090a45050565b6014546001600160a01b031681565b61385b612253565b8061387057506030546001600160a01b031633145b61388c5760405162461bcd60e51b815260040161063b90615784565b603d5460ff16156138af5760405162461bcd60e51b815260040161063b90615684565b683635c9adc5dea000008111156138d85760405162461bcd60e51b815260040161063b906157a4565b6001600160a01b038381166000818152603c60209081526040808320948716808452949091529081902080549085905590519092919033907fd2d3c121d3439420f50efd36f0a01ebdac87111ec00360641c32aea3c6fc32139061393f9086908890615822565b60405180910390a450505050565b601b5481565b60285481565b613961612253565b61397d5760405162461bcd60e51b815260040161063b90615784565b61154a8161458f565b6038546001600160a01b031690565b60395481565b6139a3612253565b806139b857506030546001600160a01b031633145b6139d45760405162461bcd60e51b815260040161063b90615784565b603d5460ff16156139f75760405162461bcd60e51b815260040161063b90615684565b670de0b6b3a7640000811115613a1f5760405162461bcd60e51b815260040161063b90615744565b602c80549082905560405133907f864303b3e76c8edf19227d9acce896145b83212c6e38243e827b652d226bc9d690610e529084908690615822565b60215481565b602e546001600160a01b031681565b603d5460009060ff1615613a965760405162461bcd60e51b815260040161063b90615684565b6014546001600160a01b03163314613ac05760405162461bcd60e51b815260040161063b90615784565b60005b8381101561426257600060166000878785818110613add57fe5b9050602002016020613af2919081019061498e565b6001600160a01b0316815260208101919091526040016000205490508015613bee57600060166000888886818110613b2657fe5b9050602002016020613b3b919081019061498e565b6001600160a01b03166001600160a01b0316815260200190815260200160002081905550613bae8160176000898987818110613b7357fe5b9050602002016020613b88919081019061498e565b6001600160a01b031681526020810191909152604001600020549063ffffffff6142f716565b60176000888886818110613bbe57fe5b9050602002016020613bd3919081019061498e565b6001600160a01b031681526020810191909152604001600020555b600060196000888886818110613c0057fe5b9050602002016020613c15919081019061498e565b6001600160a01b0316815260208101919091526040016000205490508015613cd657600060196000898987818110613c4957fe5b9050602002016020613c5e919081019061498e565b6001600160a01b03166001600160a01b0316815260200190815260200160002081905550613c9681601a60008a8a88818110613b7357fe5b601a6000898987818110613ca657fe5b9050602002016020613cbb919081019061498e565b6001600160a01b031681526020810191909152604001600020555b6000601c6000898987818110613ce857fe5b9050602002016020613cfd919081019061498e565b6001600160a01b0316815260208101919091526040016000205490508015613dbe576000601c60008a8a88818110613d3157fe5b9050602002016020613d46919081019061498e565b6001600160a01b03166001600160a01b0316815260200190815260200160002081905550613d7e81601d60008b8b89818110613b7357fe5b601d60008a8a88818110613d8e57fe5b9050602002016020613da3919081019061498e565b6001600160a01b031681526020810191909152604001600020555b6000613dd482612a4f868663ffffffff6142f716565b905080613de4575050505061425a565b6037546000906001600160a01b03168a8a88818110613dff57fe5b9050602002016020613e14919081019061498e565b6001600160a01b03161415613f3b57898987818110613e2f57fe5b9050602002016020613e44919081019061498e565b60145460405163095ea7b360e01b81526001600160a01b039283169263095ea7b392613e779291169086906004016154c0565b602060405180830381600087803b158015613e9157600080fd5b505af1158015613ea5573d6000803e3d6000fd5b505050506040513d601f19601f82011682018060405250613ec99190810190614b7e565b5060145460375460405163abe979e160e01b81526001600160a01b039283169263abe979e192613f009291169086906004016154db565b600060405180830381600087803b158015613f1a57600080fd5b505af1158015613f2e573d6000803e3d6000fd5b50505050600090506141d9565b602d546001600160a01b03168a8a88818110613f5357fe5b9050602002016020613f68919081019061498e565b6001600160a01b03161415613f9c5750602d548190613f97906001600160a01b0316898363ffffffff61431c16565b6141c6565b898987818110613fa857fe5b9050602002016020613fbd919081019061498e565b60315460405163095ea7b360e01b81526001600160a01b039283169263095ea7b392613ff09291169086906004016154c0565b602060405180830381600087803b15801561400a57600080fd5b505af115801561401e573d6000803e3d6000fd5b505050506040513d601f19601f820116820180604052506140429190810190614b7e565b506031546001600160a01b031663e321b5408b8b8981811061406057fe5b9050602002016020614075919081019061498e565b602d546014546031546040516001600160e01b031960e087901b1681526140b794936001600160a01b03908116938116921690899060009081906004016153b6565b6040805180830381600087803b1580156140d057600080fd5b505af11580156140e4573d6000803e3d6000fd5b505050506040513d601f19601f820116820180604052506141089190810190614c52565b506002549091506001600160a01b0316631e2c62d38b8b8981811061412957fe5b905060200201602061413e919081019061498e565b602d546027546040516001600160e01b031960e086901b16815261417493926001600160a01b0316918891889190600401615459565b60206040518083038186803b15801561418c57600080fd5b505afa1580156141a0573d6000803e3d6000fd5b505050506040513d601f19601f820116820180604052506141c49190810190614c15565b505b6141d6878263ffffffff6142f716565b96505b876001600160a01b03168a8a888181106141ef57fe5b9050602002016020614204919081019061498e565b6001600160a01b0316336001600160a01b03167ffc669a9c6050d8c313b540e2a2bd63f5f8965e4d267a0683ba6fb55114e868cc8888888760405161424c949392919061584b565b60405180910390a450505050505b600101613ac3565b509392505050565b6030546001600160a01b031681565b6000813f7fc5d2460186f7233c927e7db2dcc703c0e500b653ca82273b7bfad8045d85a4708181148015906142ad57508115155b949350505050565b600061157983836040518060400160405280601e81526020017f536166654d6174683a207375627472616374696f6e206f766572666c6f770000815250614611565b6000828201838110156115795760405162461bcd60e51b815260040161063b906156c4565b60405161437590849063a9059cbb60e01b9061433e90869086906024016154c0565b60408051601f198184030181529190526020810180516001600160e01b03166001600160e01b03199093169290921790915261463d565b505050565b60405161439e9085906323b872dd60e01b9061433e90879087908790602401615431565b50505050565b6060828201838110156143c95760405162461bcd60e51b815260040161063b90615774565b600185015481116143da57806143e0565b60018501545b90508015806143ef5750808410155b156143fa57506113c9565b838103604051908082528060200260200182016040528015614426578160200160208202803883390190505b50915060005b84820381101561447157856001018582018154811061444757fe5b906000526020600020015483828151811061445e57fe5b602090810291909101015260010161442c565b50509392505050565b6000816142ad8482614722565b6000816142ad84826147eb565b3390565b601e5460009081908390808211156144ae578091505b816144cc575050602e546001600160a01b03169150600090506123af565b6144dc818363ffffffff6142b516565b601e55602e546144fc906001600160a01b0316878463ffffffff61431c16565b5050602e546001600160a01b0316946001945092505050565b6001600160e01b03198216600090815260056020526040902080546001600160a01b0319166001600160a01b038316908117909155156145705761456a600d6001600160e01b0319841663ffffffff6147eb16565b5061458b565b614375600d6001600160e01b0319841663ffffffff61472216565b5050565b6001600160a01b0381166145b55760405162461bcd60e51b815260040161063b906156b4565b6001546040516001600160a01b038084169216907f8be0079c531659141344cd1fd0a4f28419497f9722a3daafe3b4186f6b6457e090600090a3600180546001600160a01b0319166001600160a01b0392909216919091179055565b600081848411156146355760405162461bcd60e51b815260040161063b9190615663565b505050900390565b61464f826001600160a01b0316614279565b61466b5760405162461bcd60e51b815260040161063b906157f4565b60006060836001600160a01b0316836040516146879190615381565b6000604051808303816000865af19150503d80600081146146c4576040519150601f19603f3d011682016040523d82523d6000602084013e6146c9565b606091505b5091509150816146eb5760405162461bcd60e51b815260040161063b906156e4565b80511561439e57808060200190516147069190810190614b7e565b61439e5760405162461bcd60e51b815260040161063b906157c4565b600061472e838361482b565b156147e357600082815260208490526040902054600184015460001991820191018082146147a657600085600101828154811061476757fe5b906000526020600020015490508086600101848154811061478457fe5b6000918252602080832090910192909255918252869052604090206001830190555b600084815260208690526040812055600185018054806147c257fe5b6001900381819060005260206000200160009055905560019250505061157c565b50600061157c565b60006147f7838361482b565b6147e3575060018083018054808301808355600092835260208084209092018590558483529085905260409091205561157c565b60009081526020919091526040902054151590565b828054828255906000526020600020908101928215614893579160200282015b828111156148935781546001600160a01b0319166001600160a01b03843516178255602090920191600190910190614860565b5061489f9291506148c1565b5090565b508054600082559060005260206000209081019061154a91906148e5565b610d8e91905b8082111561489f5780546001600160a01b03191681556001016148c7565b610d8e91905b8082111561489f57600081556001016148eb565b803561157c816159ab565b60008083601f84011261491c57600080fd5b50813567ffffffffffffffff81111561493457600080fd5b6020830191508360208202830111156123af57600080fd5b803561157c816159bf565b805161157c816159bf565b803561157c816159c8565b803561157c816159d1565b803561157c816159da565b805161157c816159c8565b6000602082840312156149a057600080fd5b60006142ad84846148ff565b600080604083850312156149bf57600080fd5b60006149cb85856148ff565b92505060206149dc858286016148ff565b9150509250929050565b6000806000606084860312156149fb57600080fd5b6000614a0786866148ff565b9350506020614a18868287016148ff565b9250506040614a2986828701614962565b9150509250925092565b60008060408385031215614a4657600080fd5b6000614a5285856148ff565b92505060206149dc85828601614962565b600080600060408486031215614a7857600080fd5b833567ffffffffffffffff811115614a8f57600080fd5b614a9b8682870161490a565b93509350506020614a29868287016148ff565b60008060008060408587031215614ac457600080fd5b843567ffffffffffffffff811115614adb57600080fd5b614ae78782880161490a565b9450945050602085013567ffffffffffffffff811115614b0657600080fd5b614b128782880161490a565b95989497509550505050565b60008060208385031215614b3157600080fd5b823567ffffffffffffffff811115614b4857600080fd5b614b548582860161490a565b92509250509250929050565b600060208284031215614b7257600080fd5b60006142ad848461494c565b600060208284031215614b9057600080fd5b60006142ad8484614957565b600060208284031215614bae57600080fd5b60006142ad8484614962565b60008060408385031215614bcd57600080fd5b60006149cb8585614962565b600060208284031215614beb57600080fd5b60006142ad848461496d565b600060208284031215614c0957600080fd5b60006142ad8484614978565b600060208284031215614c2757600080fd5b60006142ad8484614983565b60008060408385031215614c4657600080fd5b6000614a528585614962565b60008060408385031215614c6557600080fd5b6000614c718585614983565b92505060206149dc85828601614983565b6000614c8e8383614dae565b505060200190565b6000614c8e8383614de6565b614cab81615925565b82525050565b6000614cbc82615904565b614cc68185615908565b9350614cd1836158fe565b8060005b83811015614cff578151614ce98882614c82565b9750614cf4836158fe565b925050600101614cd5565b509495945050505050565b6000614d168385615908565b9350614d2182610d8e565b8060005b85811015614cff57614d378284615916565b614d418882614c96565b9750614d4c836158fe565b925050600101614d25565b6000614d6282615904565b614d6c8185615908565b9350614d77836158fe565b8060005b83811015614cff578151614d8f8882614c96565b9750614d9a836158fe565b925050600101614d7b565b614cab81615930565b614cab81610d8e565b6000614dc282615904565b614dcc8185615911565b9350614ddc818560208601615975565b9290920192915050565b614cab81615942565b614cab8161596a565b6000614e0382615904565b614e0d8185615908565b9350614e1d818560208601615975565b614e26816159a1565b9093019392505050565b6000614e3d601a83615908565b7f4552525f504154485f4e4f4e5f434f4e54524143545f41444452000000000000815260200192915050565b6000614e76600683615908565b6514185d5cd95960d21b815260200192915050565b6000614e98601383615908565b724261736520726577617264206973207a65726f60681b815260200192915050565b6000614ec7602083615908565b7f6e65774c6f636b534f5641646472657373206e6f74206120636f6e7472616374815260200192915050565b6000614f00602683615908565b7f4f776e61626c653a206e6577206f776e657220697320746865207a65726f206181526564647265737360d01b602082015260400192915050565b6000614f48601b83615908565b7f536166654d6174683a206164646974696f6e206f766572666c6f770000000000815260200192915050565b6000614f81601683615908565b7508ccaca40e4cac4c2e8ca40d2e640e8dede40d0d2ced60531b815260200192915050565b6000614fb3602083615908565b7f5361666545524332303a206c6f772d6c6576656c2063616c6c206661696c6564815260200192915050565b6000614fec601283615908565b7144454641554c545f504154485f454d50545960701b815260200192915050565b600061501a602183615908565b7f6e6577536f76546f6b656e41646472657373206e6f74206120636f6e747261638152601d60fa1b602082015260400192915050565b600061505d600e83615908565b6d0c6deeadce840dad2e6dac2e8c6d60931b815260200192915050565b6000615087600f83615908565b6e08aa4a4bea082a890be988a9c8ea89608b1b815260200192915050565b60006150b2602083615908565b7f7772627463546f6b656e41646472657373206e6f74206120636f6e7472616374815260200192915050565b60006150eb600e83615908565b6d0ecc2d8eaca40e8dede40d0d2ced60931b815260200192915050565b6000615115601e83615908565b7f726567697374727941646472657373206e6f74206120636f6e74726163740000815260200192915050565b600061514e600f83615908565b6e706f6f6c206e6f742065786973747360881b815260200192915050565b6000615179601183615908565b706164646974696f6e206f766572666c6f7760781b815260200192915050565b60006151a6600c83615908565b6b1d5b985d5d1a1bdc9a5e995960a21b815260200192915050565b60006151ce601483615908565b7319985b1b189858dac81b9bdd08185b1b1bddd95960621b815260200192915050565b600061157c600083615908565b600061520b601e83615908565b7f5370656369616c206665652072656261746520697320746f6f20686967680000815260200192915050565b6000615244600d83615908565b6c1c1bdbdb080f4f48185cdcd95d609a1b815260200192915050565b600061526d602a83615908565b7f5361666545524332303a204552433230206f7065726174696f6e20646964206e8152691bdd081cdd58d8d9595960b21b602082015260400192915050565b60006152b9602483615908565b7f5f70726f746f636f6c546f6b656e41646472657373206e6f74206120636f6e748152631c9858dd60e21b602082015260400192915050565b60006152ff600c83615908565b6b43616e277420746f67676c6560a01b815260200192915050565b6000615327601f83615908565b7f5361666545524332303a2063616c6c20746f206e6f6e2d636f6e747261637400815260200192915050565b6000615360600983615908565b680706f6f6c203d3d20360bc1b815260200192915050565b614cab81615959565b60006113c98284614db7565b6020810161157c8284614ca2565b604081016153a98285614ca2565b6113c96020830184614ca2565b61010081016153c5828a614ca2565b6153d26020830189614ca2565b6153df6040830188614ca2565b6153ec6060830187614ca2565b6153f96080830186614dae565b61540660a0830185614def565b61541360c0830184614def565b81810360e0830152615424816151f1565b9998505050505050505050565b6060810161543f8286614ca2565b61544c6020830185614ca2565b6142ad6040830184614dae565b60a081016154678288614ca2565b6154746020830187614ca2565b6154816040830186614dae565b61548e6060830185614dae565b61549b6080830184614dae565b9695505050505050565b604081016154b38285614ca2565b6113c96020830184614da5565b604081016154ce8285614ca2565b6113c96020830184614dae565b604081016154e98285614ca2565b6113c96020830184615378565b602080825281016115798184614cb1565b602080825281016142ad818486614d0a565b602080825281016115798184614d57565b6020810161157c8284614da5565b6101008101615547828b614dae565b615554602083018a614da5565b6155616040830189614ca2565b61556e6060830188614ca2565b61557b6080830187614ca2565b61558860a0830186614dae565b61559560c0830185614dae565b61542460e0830184614dae565b61018081016155b1828f614dae565b6155be602083018e614dae565b6155cb604083018d614dae565b6155d8606083018c614da5565b6155e5608083018b614dae565b6155f260a083018a614dae565b6155ff60c0830189614dae565b61560c60e0830188614dae565b61561a610100830187614dae565b615628610120830186614dae565b615636610140830185614ca2565b615644610160830184614ca2565b9d9c50505050505050505050505050565b6020810161157c8284614de6565b602080825281016115798184614df8565b6020808252810161157c81614e30565b6020808252810161157c81614e69565b6020808252810161157c81614e8b565b6020808252810161157c81614eba565b6020808252810161157c81614ef3565b6020808252810161157c81614f3b565b6020808252810161157c81614f74565b6020808252810161157c81614fa6565b6020808252810161157c81614fdf565b6020808252810161157c8161500d565b6020808252810161157c81615050565b6020808252810161157c8161507a565b6020808252810161157c816150a5565b6020808252810161157c816150de565b6020808252810161157c81615108565b6020808252810161157c81615141565b6020808252810161157c8161516c565b6020808252810161157c81615199565b6020808252810161157c816151c1565b6020808252810161157c816151fe565b6020808252810161157c81615237565b6020808252810161157c81615260565b6020808252810161157c816152ac565b6020808252810161157c816152f2565b6020808252810161157c8161531a565b6020808252810161157c81615353565b6020810161157c8284614dae565b604081016154ce8285614dae565b6060810161583e8286614dae565b61544c6020830185614dae565b608081016158598287614dae565b6158666020830186614dae565b6158736040830185614dae565b6158806060830184614dae565b95945050505050565b60a081016158978288614dae565b6154746020830187614dae565b60c081016158b28289614dae565b6158bf6020830188614dae565b6158cc6040830187614dae565b6158d96060830186614dae565b6158e66080830185614dae565b6158f360a0830184614dae565b979650505050505050565b60200190565b5190565b90815260200190565b919050565b60006115796020840184614978565b600061157c8261594d565b151590565b6001600160e01b03191690565b600061157c82615925565b6001600160a01b031690565b6bffffffffffffffffffffffff1690565b600061157c82610d8e565b60005b83811015615990578181015183820152602001615978565b8381111561439e5750506000910152565b601f01601f191690565b6159b481615925565b811461154a57600080fd5b6159b481615930565b6159b481610d8e565b6159b481615935565b6159b48161594256fea365627a7a723158209d16a7fafaa77d73feca2c49e259213d76ca4a867410f28623a743c452dfb5216c6578706572696d656e74616cf564736f6c63430005110040",
  "linkReferences": {},
  "deployedLinkReferences": {}
}