{
    "address": "0x7591844Ce1B7cB5A6eC207455fC7c68EAf93b7AA",
    "abi": [
        {
            "anonymous": false,
            "inputs": [
                {
                    "indexed": true,
                    "internalType": "address",
                    "name": "caller",
                    "type": "address"
                },
                {
                    "indexed": false,
                    "internalType": "address",
                    "name": "loanPoolToken",
                    "type": "address"
                },
                {
                    "indexed": false,
                    "internalType": "address",
                    "name": "receiver",
                    "type": "address"
                },
                {
                    "indexed": false,
                    "internalType": "uint32",
                    "name": "maxCheckpoints",
                    "type": "uint32"
                }
            ],
            "name": "DividendsCollected",
            "type": "event"
        },
        {
            "anonymous": false,
            "inputs": [
                {
                    "indexed": true,
                    "internalType": "address",
                    "name": "caller",
                    "type": "address"
                },
                {
                    "indexed": false,
                    "internalType": "address",
                    "name": "newStakingContract",
                    "type": "address"
                }
            ],
            "name": "MigratedToNewStakingContract",
            "type": "event"
        },
        {
            "anonymous": false,
            "inputs": [
                {
                    "indexed": true,
                    "internalType": "address",
                    "name": "previousOwner",
                    "type": "address"
                },
                {
                    "indexed": true,
                    "internalType": "address",
                    "name": "newOwner",
                    "type": "address"
                }
            ],
            "name": "OwnershipTransferred",
            "type": "event"
        },
        {
            "anonymous": false,
            "inputs": [
                {
                    "indexed": true,
                    "internalType": "address",
                    "name": "caller",
                    "type": "address"
                },
                {
                    "indexed": false,
                    "internalType": "uint256",
                    "name": "amount",
                    "type": "uint256"
                }
            ],
            "name": "TokensStaked",
            "type": "event"
        },
        {
            "anonymous": false,
            "inputs": [
                {
                    "indexed": true,
                    "internalType": "address",
                    "name": "caller",
                    "type": "address"
                },
                {
                    "indexed": false,
                    "internalType": "address",
                    "name": "receiver",
                    "type": "address"
                },
                {
                    "indexed": false,
                    "internalType": "uint256",
                    "name": "startFrom",
                    "type": "uint256"
                },
                {
                    "indexed": false,
                    "internalType": "uint256",
                    "name": "end",
                    "type": "uint256"
                }
            ],
            "name": "TokensWithdrawn",
            "type": "event"
        },
        {
            "anonymous": false,
            "inputs": [
                {
                    "indexed": true,
                    "internalType": "address",
                    "name": "caller",
                    "type": "address"
                },
                {
                    "indexed": false,
                    "internalType": "address",
                    "name": "delegatee",
                    "type": "address"
                }
            ],
            "name": "VotesDelegated",
            "type": "event"
        },
        {
            "constant": true,
            "inputs": [],
            "name": "SOV",
            "outputs": [
                {
                    "internalType": "contract IERC20",
                    "name": "",
                    "type": "address"
                }
            ],
            "payable": false,
            "stateMutability": "view",
            "type": "function"
        },
        {
            "constant": true,
            "inputs": [],
            "name": "cliff",
            "outputs": [
                {
                    "internalType": "uint256",
                    "name": "",
                    "type": "uint256"
                }
            ],
            "payable": false,
            "stateMutability": "view",
            "type": "function"
        },
        {
            "constant": false,
            "inputs": [
                {
                    "internalType": "address",
                    "name": "_loanPoolToken",
                    "type": "address"
                },
                {
                    "internalType": "uint32",
                    "name": "_maxCheckpoints",
                    "type": "uint32"
                },
                {
                    "internalType": "address",
                    "name": "_receiver",
                    "type": "address"
                }
            ],
            "name": "collectDividends",
            "outputs": [],
            "payable": false,
            "stateMutability": "nonpayable",
            "type": "function"
        },
        {
            "constant": false,
            "inputs": [
                {
                    "internalType": "address",
                    "name": "_delegatee",
                    "type": "address"
                }
            ],
            "name": "delegate",
            "outputs": [],
            "payable": false,
            "stateMutability": "nonpayable",
            "type": "function"
        },
        {
            "constant": true,
            "inputs": [],
            "name": "duration",
            "outputs": [
                {
                    "internalType": "uint256",
                    "name": "",
                    "type": "uint256"
                }
            ],
            "payable": false,
            "stateMutability": "view",
            "type": "function"
        },
        {
            "constant": true,
            "inputs": [],
            "name": "endDate",
            "outputs": [
                {
                    "internalType": "uint256",
                    "name": "",
                    "type": "uint256"
                }
            ],
            "payable": false,
            "stateMutability": "view",
            "type": "function"
        },
        {
            "constant": true,
            "inputs": [],
            "name": "feeSharingCollector",
            "outputs": [
                {
                    "internalType": "contract IFeeSharingCollector",
                    "name": "",
                    "type": "address"
                }
            ],
            "payable": false,
            "stateMutability": "view",
            "type": "function"
        },
        {
            "constant": true,
            "inputs": [],
            "name": "isOwner",
            "outputs": [
                {
                    "internalType": "bool",
                    "name": "",
                    "type": "bool"
                }
            ],
            "payable": false,
            "stateMutability": "view",
            "type": "function"
        },
        {
            "constant": false,
            "inputs": [],
            "name": "migrateToNewStakingContract",
            "outputs": [],
            "payable": false,
            "stateMutability": "nonpayable",
            "type": "function"
        },
        {
            "constant": true,
            "inputs": [],
            "name": "owner",
            "outputs": [
                {
                    "internalType": "address",
                    "name": "",
                    "type": "address"
                }
            ],
            "payable": false,
            "stateMutability": "view",
            "type": "function"
        },
        {
            "constant": false,
            "inputs": [
                {
                    "internalType": "address",
                    "name": "_sender",
                    "type": "address"
                },
                {
                    "internalType": "uint256",
                    "name": "_amount",
                    "type": "uint256"
                },
                {
                    "internalType": "address",
                    "name": "_token",
                    "type": "address"
                },
                {
                    "internalType": "bytes",
                    "name": "_data",
                    "type": "bytes"
                }
            ],
            "name": "receiveApproval",
            "outputs": [],
            "payable": false,
            "stateMutability": "nonpayable",
            "type": "function"
        },
        {
            "constant": false,
            "inputs": [
                {
                    "internalType": "uint256",
                    "name": "_amount",
                    "type": "uint256"
                }
            ],
            "name": "stakeTokens",
            "outputs": [],
            "payable": false,
            "stateMutability": "nonpayable",
            "type": "function"
        },
        {
            "constant": false,
            "inputs": [
                {
                    "internalType": "address",
                    "name": "_sender",
                    "type": "address"
                },
                {
                    "internalType": "uint256",
                    "name": "_amount",
                    "type": "uint256"
                }
            ],
            "name": "stakeTokensWithApproval",
            "outputs": [],
            "payable": false,
            "stateMutability": "nonpayable",
            "type": "function"
        },
        {
            "constant": true,
            "inputs": [],
            "name": "staking",
            "outputs": [
                {
                    "internalType": "contract IStaking",
                    "name": "",
                    "type": "address"
                }
            ],
            "payable": false,
            "stateMutability": "view",
            "type": "function"
        },
        {
            "constant": true,
            "inputs": [],
            "name": "startDate",
            "outputs": [
                {
                    "internalType": "uint256",
                    "name": "",
                    "type": "uint256"
                }
            ],
            "payable": false,
            "stateMutability": "view",
            "type": "function"
        },
        {
            "constant": true,
            "inputs": [],
            "name": "tokenOwner",
            "outputs": [
                {
                    "internalType": "address",
                    "name": "",
                    "type": "address"
                }
            ],
            "payable": false,
            "stateMutability": "view",
            "type": "function"
        },
        {
            "constant": false,
            "inputs": [
                {
                    "internalType": "address",
                    "name": "newOwner",
                    "type": "address"
                }
            ],
            "name": "transferOwnership",
            "outputs": [],
            "payable": false,
            "stateMutability": "nonpayable",
            "type": "function"
        },
        {
            "constant": false,
            "inputs": [
                {
                    "internalType": "address",
                    "name": "receiver",
                    "type": "address"
                }
            ],
            "name": "withdrawTokens",
            "outputs": [],
            "payable": false,
            "stateMutability": "nonpayable",
            "type": "function"
        },
        {
            "constant": false,
            "inputs": [
                {
                    "internalType": "address",
                    "name": "receiver",
                    "type": "address"
                },
                {
                    "internalType": "uint256",
                    "name": "startFrom",
                    "type": "uint256"
                },
                {
                    "internalType": "uint256",
                    "name": "maxWithdrawIterations",
                    "type": "uint256"
                }
            ],
            "name": "withdrawTokensStartingFrom",
            "outputs": [],
            "payable": false,
            "stateMutability": "nonpayable",
            "type": "function"
        }
    ],
    "transactionHash": "0x883e20e13af56b53a72fb37f026aeabb9052a26985d63a4682b70ecbb05995eb",
    "args": [],
    "numDeployments": 1,
    "solcInputHash": "aca886878e9e0827277d5a4711a5589b",
    "bytecode": "0x608060405260006100176001600160e01b0361006616565b600080546001600160a01b0319166001600160a01b0383169081178255604051929350917f8be0079c531659141344cd1fd0a4f28419497f9722a3daafe3b4186f6b6457e0908290a35061006a565b3390565b611b7f806100796000396000f3fe608060405234801561001057600080fd5b50600436106101215760003560e01c806362dc2f35116100ad5780638f32d59b116100715780638f32d59b1461020a5780638f4ffcb11461021f578063a3e6761014610232578063c24a0f8b1461023a578063f2fde38b1461024257610121565b806362dc2f35146101b45780636b7dbb2d146101c75780637547c7a3146101cf57806381e45268146101e25780638da5cb5b146101f557610121565b80634552a7ae116100f45780634552a7ae1461016957806349df728c1461017e5780634cf088d9146101915780635419675f146101995780635c19a95c146101a157610121565b806308dcb360146101265780630b97bc86146101445780630fb5a6b41461015957806313d033c014610161575b600080fd5b61012e610255565b60405161013b919061192c565b60405180910390f35b61014c610264565b60405161013b91906119db565b61014c61026a565b61014c610270565b61017c61017736600461141e565b610276565b005b61017c61018c366004611322565b610320565b61012e61036e565b61017c61037d565b61017c6101af366004611322565b6104fe565b61017c6101c236600461146b565b610615565b61012e610722565b61017c6101dd36600461150f565b610731565b61017c6101f0366004611366565b61073e565b6101fd610767565b60405161013b9190611862565b610212610776565b60405161013b919061191e565b61017c61022d3660046113a0565b61079a565b6101fd61098e565b61014c61099d565b61017c610250366004611322565b6109a3565b6001546001600160a01b031681565b60075481565b60065481565b60055481565b6003546001600160a01b03163314806102925750610292610776565b6102b75760405162461bcd60e51b81526004016102ae9061199b565b60405180910390fd5b600554600754016102c7836109d0565b92508083106102d657826102d8565b805b925060006102ed83600163ffffffff610a1416565b6224ea00028401905060008160085410610307578161030b565b6008545b9050610318868683610a5f565b505050505050565b6003546001600160a01b031633148061033c575061033c610776565b6103585760405162461bcd60e51b81526004016102ae9061199b565b6005546007540161036a828242610a5f565b5050565b6002546001600160a01b031681565b6003546001600160a01b03163314806103995750610399610776565b6103b55760405162461bcd60e51b81526004016102ae9061199b565b600260009054906101000a90046001600160a01b03166001600160a01b0316635419675f6040518163ffffffff1660e01b8152600401600060405180830381600087803b15801561040557600080fd5b505af1158015610419573d6000803e3d6000fd5b50505050600260009054906101000a90046001600160a01b03166001600160a01b031663ae81dfe46040518163ffffffff1660e01b815260040160206040518083038186803b15801561046b57600080fd5b505afa15801561047f573d6000803e3d6000fd5b505050506040513d601f19601f820116820180604052506104a39190810190611348565b600280546001600160a01b0319166001600160a01b03928316179081905560405133927f9613f431247983a83a2b3667aa63a5174194ac89328dfadc69be44409521b3c1926104f492911690611862565b60405180910390a2565b6003546001600160a01b031633146105285760405162461bcd60e51b81526004016102ae9061199b565b6001600160a01b03811661054e5760405162461bcd60e51b81526004016102ae906119ab565b600554600754015b60085481116105d05760025460405163026e402b60e01b81526001600160a01b039091169063026e402b9061059190859085906004016118c0565b600060405180830381600087803b1580156105ab57600080fd5b505af11580156105bf573d6000803e3d6000fd5b505050506224ea0081019050610556565b50336001600160a01b03167f734a802cc194e2139bfcc08e10336f24dfa14fd2c5ab70268d8706c0558670668260405161060a9190611862565b60405180910390a250565b6003546001600160a01b03163314806106315750610631610776565b61064d5760405162461bcd60e51b81526004016102ae9061199b565b6001600160a01b0381166106735760405162461bcd60e51b81526004016102ae906119bb565b6004805460405163a965b3a960e01b81526001600160a01b039091169163a965b3a9916106a691879187918791016118f6565b600060405180830381600087803b1580156106c057600080fd5b505af11580156106d4573d6000803e3d6000fd5b50505050336001600160a01b03167f5fa0b381cb4bdbc7063d1e5c78b90a634a6d6a12d6cb6fabe450fd4b8d1eab0184838560405161071593929190611898565b60405180910390a2505050565b6004546001600160a01b031681565b61073b3382610cb2565b50565b33301461075d5760405162461bcd60e51b81526004016102ae9061199b565b61036a8282610cb2565b6000546001600160a01b031690565b600080546001600160a01b031661078b610f94565b6001600160a01b031614905090565b6107a2610f98565b6001600160a01b0316336001600160a01b0316146107d25760405162461bcd60e51b81526004016102ae9061199b565b336001600160a01b038416146107fa5760405162461bcd60e51b81526004016102ae9061199b565b60006060610806610fa7565b9050600061084985858080601f016020809104026020016040519081016040528093929190818152602001838380828437600092019190915250610fff92505050565b905060005b82518110156108975782818151811061086357fe5b60200260200101516001600160e01b031916826001600160e01b031916141561088f5760019350610897565b60010161084e565b50826108b55760405162461bcd60e51b81526004016102ae9061197b565b600080600060201b87876040516020016108d193929190611830565b6040516020818303038152906040528060200190516108f391908101906114cc565b9093509150506001600160a01b03808316908b16146109245760405162461bcd60e51b81526004016102ae9061198b565b8881146109435760405162461bcd60e51b81526004016102ae906119cb565b61098287878080601f01602080910402602001604051908101604052809392919081815260200183838082843760009201919091525061100692505050565b50505050505050505050565b6003546001600160a01b031681565b60085481565b6109ab610776565b6109c75760405162461bcd60e51b81526004016102ae9061199b565b61073b816110e0565b60055460075460009101808310156109fa5760405162461bcd60e51b81526004016102ae9061194b565b60006224ea00828503046224ea0002919091019392505050565b6000610a5683836040518060400160405280601e81526020017f536166654d6174683a207375627472616374696f6e206f766572666c6f770000815250611161565b90505b92915050565b6001600160a01b038316610a855760405162461bcd60e51b81526004016102ae906119bb565b600080600260009054906101000a90046001600160a01b03166001600160a01b0316639929e8866040518163ffffffff1660e01b815260040160206040518083038186803b158015610ad657600080fd5b505afa158015610aea573d6000803e3d6000fd5b505050506040513d601f19601f82011682018060405250610b0e91908101906114ae565b15610b2d576008548310610b2457600854610b26565b825b9050610b4d565b428310610b3a5742610b3c565b825b9050600854811115610b4d57506008545b835b818111610c65576002546040516367bdb42560e11b81526001600160a01b039091169063cf7b684a90610b8e90309085906000194301906004016118db565b60206040518083038186803b158015610ba657600080fd5b505afa158015610bba573d6000803e3d6000fd5b505050506040513d601f19601f82011682018060405250610bde919081019061154b565b92506bffffffffffffffffffffffff831615610c5b576002546040516336adb29160e21b81526001600160a01b039091169063dab6ca4490610c2890869085908b90600401611a43565b600060405180830381600087803b158015610c4257600080fd5b505af1158015610c56573d6000803e3d6000fd5b505050505b6224ea0001610b4f565b50336001600160a01b03167f6b83b455c317523498e4e86849438d4356ad79ba6b355a5e6d5bc05eca6c780f868684604051610ca3939291906118db565b60405180910390a25050505050565b600754610d3d576002546040516372ec979560e01b81526001600160a01b03909116906372ec979590610ce99042906004016119db565b60206040518083038186803b158015610d0157600080fd5b505afa158015610d15573d6000803e3d6000fd5b505050506040513d601f19601f82011682018060405250610d39919081019061152d565b6007555b6002546006546040516372ec979560e01b81526001600160a01b03909216916372ec979591610d739142909101906004016119db565b60206040518083038186803b158015610d8b57600080fd5b505afa158015610d9f573d6000803e3d6000fd5b505050506040513d601f19601f82011682018060405250610dc3919081019061152d565b6008556001546040516323b872dd60e01b81526000916001600160a01b0316906323b872dd90610dfb90869030908790600401611870565b602060405180830381600087803b158015610e1557600080fd5b505af1158015610e29573d6000803e3d6000fd5b505050506040513d601f19601f82011682018060405250610e4d91908101906114ae565b905080610e5957600080fd5b60015460025460405163095ea7b360e01b81526001600160a01b039283169263095ea7b392610e8f9291169086906004016118c0565b602060405180830381600087803b158015610ea957600080fd5b505af1158015610ebd573d6000803e3d6000fd5b505050506040513d601f19601f82011682018060405250610ee191908101906114ae565b5060025460055460065460035460405163c1b79b0560e01b81526001600160a01b039485169463c1b79b0594610f29948994919390926224ea009230929116906004016119e9565b600060405180830381600087803b158015610f4357600080fd5b505af1158015610f57573d6000803e3d6000fd5b50505050826001600160a01b03167fb539ca1e5c8d398ddf1c41c30166f33404941683be4683319b57669a93dad4ef8360405161071591906119db565b3390565b6001546001600160a01b031690565b604080516001808252818301909252606091829190602080830190803883390190505090506381e4526860e01b81600081518110610fe157fe5b6001600160e01b031990921660209283029190910190910152905090565b6020015190565b60006060306001600160a01b0316836040516110229190611856565b6000604051808303816000865af19150503d806000811461105f576040519150601f19603f3d011682016040523d82523d6000602084013e611064565b606091505b5091509150816110db57604481511161108f5760405162461bcd60e51b81526004016102ae9061195b565b6110c26040518060400160405280601181526020017003932b1b2b4bb32a0b8383937bb30b61d1607d1b81525082611192565b60405162461bcd60e51b81526004016102ae919061193a565b505050565b6001600160a01b0381166111065760405162461bcd60e51b81526004016102ae9061196b565b600080546040516001600160a01b03808516939216917f8be0079c531659141344cd1fd0a4f28419497f9722a3daafe3b4186f6b6457e091a3600080546001600160a01b0319166001600160a01b0392909216919091179055565b600081848411156111855760405162461bcd60e51b81526004016102ae919061193a565b50508183035b9392505050565b6060808390506060839050606060448251845101036040519080825280601f01601f1916602001820160405280156111d1576020820181803883390190505b509050806000805b855181101561122a578581815181106111ee57fe5b602001015160f81c60f81b83838060010194508151811061120b57fe5b60200101906001600160f81b031916908160001a9053506001016111d9565b5060445b845181101561127f5784818151811061124357fe5b602001015160f81c60f81b83838060010194508151811061126057fe5b60200101906001600160f81b031916908160001a90535060010161122e565b5090979650505050505050565b8035610a5981611b04565b8051610a5981611b04565b8051610a5981611b18565b8051610a5981611b21565b60008083601f8401126112ca57600080fd5b50813567ffffffffffffffff8111156112e257600080fd5b6020830191508360018202830111156112fa57600080fd5b9250929050565b8035610a5981611b21565b8035610a5981611b2a565b8051610a5981611b33565b60006020828403121561133457600080fd5b6000611340848461128c565b949350505050565b60006020828403121561135a57600080fd5b60006113408484611297565b6000806040838503121561137957600080fd5b6000611385858561128c565b925050602061139685828601611301565b9150509250929050565b6000806000806000608086880312156113b857600080fd5b60006113c4888861128c565b95505060206113d588828901611301565b94505060406113e68882890161128c565b935050606086013567ffffffffffffffff81111561140357600080fd5b61140f888289016112b8565b92509250509295509295909350565b60008060006060848603121561143357600080fd5b600061143f868661128c565b935050602061145086828701611301565b925050604061146186828701611301565b9150509250925092565b60008060006060848603121561148057600080fd5b600061148c868661128c565b935050602061149d8682870161130c565b92505060406114618682870161128c565b6000602082840312156114c057600080fd5b600061134084846112a2565b6000806000606084860312156114e157600080fd5b60006114ed86866112ad565b93505060206114fe86828701611297565b9250506040611461868287016112ad565b60006020828403121561152157600080fd5b60006113408484611301565b60006020828403121561153f57600080fd5b600061134084846112ad565b60006020828403121561155d57600080fd5b60006113408484611317565b61157281611a70565b82525050565b61157281611a7b565b61157261158d82611a80565b611a8a565b600061159e8385611a62565b93506115ab838584611abe565b50500190565b60006115bc82611a5e565b6115c68185611a62565b93506115d6818560208601611aca565b9290920192915050565b61157281611ab3565b60006115f482611a5e565b6115fe8185611a67565b935061160e818560208601611aca565b61161781611afa565b9093019392505050565b600061162e601d83611a67565b7f74696d657374616d70203c20636f6e7472616374206372656174696f6e000000815260200192915050565b6000611667603083611a67565b7f72656365697665417070726f76616c3a205472616e73616374696f6e2065786581526f31baba34b7b7103932bb32b93a32b21760811b602082015260400192915050565b60006116b9602683611a67565b7f4f776e61626c653a206e6577206f776e657220697320746865207a65726f206181526564647265737360d01b602082015260400192915050565b6000611701601583611a67565b741b595d1a1bd9081a5cc81b9bdd08185b1b1bddd959605a1b815260200192915050565b6000611732600f83611a67565b6e0e6cadcc8cae440dad2e6dac2e8c6d608b1b815260200192915050565b600061175d600c83611a67565b6b1d5b985d5d1a1bdc9a5e995960a21b815260200192915050565b6000611785601983611a67565b7f64656c656761746565206164647265737320696e76616c696400000000000000815260200192915050565b60006117be601883611a67565b7f7265636569766572206164647265737320696e76616c69640000000000000000815260200192915050565b60006117f7600f83611a67565b6e0c2dadeeadce840dad2e6dac2e8c6d608b1b815260200192915050565b61157281611a8a565b61157281611a99565b61157281611aa2565b600061183c8286611581565b601c8201915061184d828486611592565b95945050505050565b600061118b82846115b1565b60208101610a598284611569565b6060810161187e8286611569565b61188b6020830185611569565b6113406040830184611815565b606081016118a68286611569565b6118b36020830185611569565b611340604083018461181e565b604081016118ce8285611569565b61118b6020830184611815565b606081016118e98286611569565b61188b6020830185611815565b606081016119048286611569565b611911602083018561181e565b6113406040830184611569565b60208101610a598284611578565b60208101610a5982846115e0565b60208082528101610a5681846115e9565b60208082528101610a5981611621565b60208082528101610a598161165a565b60208082528101610a59816116ac565b60208082528101610a59816116f4565b60208082528101610a5981611725565b60208082528101610a5981611750565b60208082528101610a5981611778565b60208082528101610a59816117b1565b60208082528101610a59816117ea565b60208101610a598284611815565b60c081016119f78289611815565b611a046020830188611815565b611a116040830187611815565b611a1e6060830186611815565b611a2b6080830185611569565b611a3860a0830184611569565b979650505050505050565b60608101611a518286611827565b6119116020830185611815565b5190565b919050565b90815260200190565b6000610a5982611a8d565b151590565b63ffffffff191690565b90565b6001600160a01b031690565b63ffffffff1690565b6bffffffffffffffffffffffff1690565b6000610a5982611a70565b82818337506000910152565b60005b83811015611ae5578181015183820152602001611acd565b83811115611af4576000848401525b50505050565b601f01601f191690565b611b0d81611a70565b811461073b57600080fd5b611b0d81611a7b565b611b0d81611a8a565b611b0d81611a99565b611b0d81611aa256fea365627a7a72315820a89ede248f65f6f968df90376cf30f13581a3027604ed8923bf505e54a09ee6b6c6578706572696d656e74616cf564736f6c63430005110040",
    "devdoc": {
        "details": "Deployed by a VestingFactory contract.",
        "methods": {
            "collectDividends(address,uint32,address)": {
                "params": {
                    "_loanPoolToken": "The loan pool token address.",
                    "_maxCheckpoints": "Maximum number of checkpoints to be processed.",
                    "_receiver": "The receiver of tokens or msg.sender"
                }
            },
            "delegate(address)": {
                "params": {
                    "_delegatee": "The address to delegate votes to."
                }
            },
            "isOwner()": {
                "details": "Returns true if the caller is the current owner."
            },
            "owner()": {
                "details": "Returns the address of the current owner."
            },
            "receiveApproval(address,uint256,address,bytes)": {
                "params": {
                    "_data": "The data will be used for low level call."
                }
            },
            "stakeTokens(uint256)": {
                "params": {
                    "_amount": "The amount of tokens to stake."
                }
            },
            "stakeTokensWithApproval(address,uint256)": {
                "details": "This function will be invoked from receiveApproval.SOV.approveAndCall -> this.receiveApproval -> this.stakeTokensWithApproval",
                "params": {
                    "_amount": "The amount of tokens to stake.",
                    "_sender": "The sender of SOV.approveAndCall"
                }
            },
            "transferOwnership(address)": {
                "details": "Transfers ownership of the contract to a new account (`newOwner`). Can only be called by the current owner."
            },
            "withdrawTokens(address)": {
                "params": {
                    "receiver": "The receiving address."
                }
            },
            "withdrawTokensStartingFrom(address,uint256,uint256)": {
                "params": {
                    "maxWithdrawIterations": "max withdrawal iteration to work around block gas limit issue.",
                    "receiver": "The receiving address.",
                    "startFrom": "The start value for the iterations."
                }
            }
        },
        "title": "Vesting Logic contract."
    },
    "userdoc": {
        "methods": {
            "collectDividends(address,uint32,address)": {
                "notice": "Collect dividends from fee sharing proxy."
            },
            "delegate(address)": {
                "notice": "Delegate votes from `msg.sender` which are locked until lockDate to `delegatee`."
            },
            "migrateToNewStakingContract()": {
                "notice": "Allows the owners to migrate the positions to a new staking contract."
            },
            "receiveApproval(address,uint256,address,bytes)": {
                "notice": "Receives approval from SOV token."
            },
            "stakeTokens(uint256)": {
                "notice": "Stakes tokens according to the vesting schedule."
            },
            "stakeTokensWithApproval(address,uint256)": {
                "notice": "Stakes tokens according to the vesting schedule."
            },
            "withdrawTokens(address)": {
                "notice": "Withdraws unlocked tokens from the staking contract and forwards them to an address specified by the token owner."
            },
            "withdrawTokensStartingFrom(address,uint256,uint256)": {
                "notice": "Withdraws unlocked tokens partially (based on the max withdraw iteration that has been set) from the staking contract and forwards them to an address specified by the token owner."
            }
        },
        "notice": "Staking, delegating and withdrawal functionality."
    },
    "storageLayout": {
        "storage": [
            {
                "astId": 54767,
                "contract": "contracts/governance/Vesting/VestingLogic.sol:VestingLogic",
                "label": "_owner",
                "offset": 0,
                "slot": "0",
                "type": "t_address"
            },
            {
                "astId": 32151,
                "contract": "contracts/governance/Vesting/VestingLogic.sol:VestingLogic",
                "label": "SOV",
                "offset": 0,
                "slot": "1",
                "type": "t_contract(IERC20)33453"
            },
            {
                "astId": 32153,
                "contract": "contracts/governance/Vesting/VestingLogic.sol:VestingLogic",
                "label": "staking",
                "offset": 0,
                "slot": "2",
                "type": "t_contract(IStaking)17840"
            },
            {
                "astId": 32155,
                "contract": "contracts/governance/Vesting/VestingLogic.sol:VestingLogic",
                "label": "tokenOwner",
                "offset": 0,
                "slot": "3",
                "type": "t_address"
            },
            {
                "astId": 32157,
                "contract": "contracts/governance/Vesting/VestingLogic.sol:VestingLogic",
                "label": "feeSharingCollector",
                "offset": 0,
                "slot": "4",
                "type": "t_contract(IFeeSharingCollector)17012"
            },
            {
                "astId": 32159,
                "contract": "contracts/governance/Vesting/VestingLogic.sol:VestingLogic",
                "label": "cliff",
                "offset": 0,
                "slot": "5",
                "type": "t_uint256"
            },
            {
                "astId": 32161,
                "contract": "contracts/governance/Vesting/VestingLogic.sol:VestingLogic",
                "label": "duration",
                "offset": 0,
                "slot": "6",
                "type": "t_uint256"
            },
            {
                "astId": 32163,
                "contract": "contracts/governance/Vesting/VestingLogic.sol:VestingLogic",
                "label": "startDate",
                "offset": 0,
                "slot": "7",
                "type": "t_uint256"
            },
            {
                "astId": 32165,
                "contract": "contracts/governance/Vesting/VestingLogic.sol:VestingLogic",
                "label": "endDate",
                "offset": 0,
                "slot": "8",
                "type": "t_uint256"
            }
        ],
        "types": {
            "t_address": {
                "encoding": "inplace",
                "label": "address",
                "numberOfBytes": "20"
            },
            "t_contract(IERC20)33453": {
                "encoding": "inplace",
                "label": "contract IERC20",
                "numberOfBytes": "20"
            },
            "t_contract(IFeeSharingCollector)17012": {
                "encoding": "inplace",
                "label": "contract IFeeSharingCollector",
                "numberOfBytes": "20"
            },
            "t_contract(IStaking)17840": {
                "encoding": "inplace",
                "label": "contract IStaking",
                "numberOfBytes": "20"
            },
            "t_uint256": {
                "encoding": "inplace",
                "label": "uint256",
                "numberOfBytes": "32"
            }
        }
    }
}