{
  "address": "0xC9A5f703eBc58c2e50868C9198945AA1dbc1a3d8",
  "abi": [
    {
      "anonymous": false,
      "inputs": [
        {
          "indexed": false,
          "internalType": "address",
          "name": "admin",
          "type": "address"
        }
      ],
      "name": "AdminAdded",
      "type": "event"
    },
    {
      "anonymous": false,
      "inputs": [
        {
          "indexed": false,
          "internalType": "address",
          "name": "admin",
          "type": "address"
        }
      ],
      "name": "AdminRemoved",
      "type": "event"
    },
    {
      "anonymous": false,
      "inputs": [
        {
          "indexed": true,
          "internalType": "address",
          "name": "previousOwner",
          "type": "address"
        },
        {
          "indexed": true,
          "internalType": "address",
          "name": "newOwner",
          "type": "address"
        }
      ],
      "name": "OwnershipTransferred",
      "type": "event"
    },
    {
      "anonymous": false,
      "inputs": [
        {
          "indexed": true,
          "internalType": "address",
          "name": "receiver",
          "type": "address"
        },
        {
          "indexed": false,
          "internalType": "uint256",
          "name": "amount",
          "type": "uint256"
        }
      ],
      "name": "SOVTransferred",
      "type": "event"
    },
    {
      "anonymous": false,
      "inputs": [
        {
          "indexed": true,
          "internalType": "address",
          "name": "tokenOwner",
          "type": "address"
        },
        {
          "indexed": false,
          "internalType": "address",
          "name": "vesting",
          "type": "address"
        },
        {
          "indexed": false,
          "internalType": "uint256",
          "name": "cliff",
          "type": "uint256"
        },
        {
          "indexed": false,
          "internalType": "uint256",
          "name": "duration",
          "type": "uint256"
        },
        {
          "indexed": false,
          "internalType": "uint256",
          "name": "amount",
          "type": "uint256"
        },
        {
          "indexed": false,
          "internalType": "uint256",
          "name": "vestingCreationType",
          "type": "uint256"
        }
      ],
      "name": "TeamVestingCreated",
      "type": "event"
    },
    {
      "anonymous": false,
      "inputs": [
        {
          "indexed": true,
          "internalType": "address",
          "name": "vesting",
          "type": "address"
        },
        {
          "indexed": false,
          "internalType": "uint256",
          "name": "amount",
          "type": "uint256"
        }
      ],
      "name": "TokensStaked",
      "type": "event"
    },
    {
      "anonymous": false,
      "inputs": [
        {
          "indexed": true,
          "internalType": "address",
          "name": "tokenOwner",
          "type": "address"
        },
        {
          "indexed": false,
          "internalType": "address",
          "name": "vesting",
          "type": "address"
        },
        {
          "indexed": false,
          "internalType": "uint256",
          "name": "cliff",
          "type": "uint256"
        },
        {
          "indexed": false,
          "internalType": "uint256",
          "name": "duration",
          "type": "uint256"
        },
        {
          "indexed": false,
          "internalType": "uint256",
          "name": "amount",
          "type": "uint256"
        },
        {
          "indexed": false,
          "internalType": "uint256",
          "name": "vestingCreationType",
          "type": "uint256"
        }
      ],
      "name": "VestingCreated",
      "type": "event"
    },
    {
      "anonymous": false,
      "inputs": [
        {
          "indexed": true,
          "internalType": "address",
          "name": "vesting",
          "type": "address"
        },
        {
          "components": [
            {
              "internalType": "bool",
              "name": "isSet",
              "type": "bool"
            },
            {
              "internalType": "uint32",
              "name": "vestingType",
              "type": "uint32"
            },
            {
              "internalType": "uint128",
              "name": "vestingCreationType",
              "type": "uint128"
            }
          ],
          "indexed": false,
          "internalType": "struct VestingRegistryStorage.VestingCreationAndTypeDetails",
          "name": "vestingCreationAndType",
          "type": "tuple"
        }
      ],
      "name": "VestingCreationAndTypesSet",
      "type": "event"
    },
    {
      "constant": true,
      "inputs": [],
      "name": "SOV",
      "outputs": [
        {
          "internalType": "address",
          "name": "",
          "type": "address"
        }
      ],
      "payable": false,
      "stateMutability": "view",
      "type": "function"
    },
    {
      "constant": false,
      "inputs": [
        {
          "internalType": "address",
          "name": "_admin",
          "type": "address"
        }
      ],
      "name": "addAdmin",
      "outputs": [],
      "payable": false,
      "stateMutability": "nonpayable",
      "type": "function"
    },
    {
      "constant": false,
      "inputs": [
        {
          "internalType": "address[]",
          "name": "_tokenOwners",
          "type": "address[]"
        },
        {
          "internalType": "uint256[]",
          "name": "_vestingCreationTypes",
          "type": "uint256[]"
        }
      ],
      "name": "addDeployedVestings",
      "outputs": [],
      "payable": false,
      "stateMutability": "nonpayable",
      "type": "function"
    },
    {
      "constant": false,
      "inputs": [
        {
          "internalType": "address[]",
          "name": "_tokenOwners",
          "type": "address[]"
        },
        {
          "internalType": "address[]",
          "name": "_vestingAddresses",
          "type": "address[]"
        }
      ],
      "name": "addFourYearVestings",
      "outputs": [],
      "payable": false,
      "stateMutability": "nonpayable",
      "type": "function"
    },
    {
      "constant": true,
      "inputs": [
        {
          "internalType": "address",
          "name": "",
          "type": "address"
        }
      ],
      "name": "admins",
      "outputs": [
        {
          "internalType": "bool",
          "name": "",
          "type": "bool"
        }
      ],
      "payable": false,
      "stateMutability": "view",
      "type": "function"
    },
    {
      "constant": false,
      "inputs": [
        {
          "internalType": "address",
          "name": "_tokenOwner",
          "type": "address"
        },
        {
          "internalType": "uint256",
          "name": "_amount",
          "type": "uint256"
        },
        {
          "internalType": "uint256",
          "name": "_cliff",
          "type": "uint256"
        },
        {
          "internalType": "uint256",
          "name": "_duration",
          "type": "uint256"
        },
        {
          "internalType": "uint256",
          "name": "_vestingCreationType",
          "type": "uint256"
        }
      ],
      "name": "createTeamVesting",
      "outputs": [],
      "payable": false,
      "stateMutability": "nonpayable",
      "type": "function"
    },
    {
      "constant": false,
      "inputs": [
        {
          "internalType": "address",
          "name": "_tokenOwner",
          "type": "address"
        },
        {
          "internalType": "uint256",
          "name": "_amount",
          "type": "uint256"
        },
        {
          "internalType": "uint256",
          "name": "_cliff",
          "type": "uint256"
        },
        {
          "internalType": "uint256",
          "name": "_duration",
          "type": "uint256"
        }
      ],
      "name": "createVesting",
      "outputs": [],
      "payable": false,
      "stateMutability": "nonpayable",
      "type": "function"
    },
    {
      "constant": false,
      "inputs": [
        {
          "internalType": "address",
          "name": "_tokenOwner",
          "type": "address"
        },
        {
          "internalType": "uint256",
          "name": "_amount",
          "type": "uint256"
        },
        {
          "internalType": "uint256",
          "name": "_cliff",
          "type": "uint256"
        },
        {
          "internalType": "uint256",
          "name": "_duration",
          "type": "uint256"
        },
        {
          "internalType": "uint256",
          "name": "_vestingCreationType",
          "type": "uint256"
        }
      ],
      "name": "createVestingAddr",
      "outputs": [],
      "payable": false,
      "stateMutability": "nonpayable",
      "type": "function"
    },
    {
      "constant": true,
      "inputs": [],
      "name": "feeSharingCollector",
      "outputs": [
        {
          "internalType": "address",
          "name": "",
          "type": "address"
        }
      ],
      "payable": false,
      "stateMutability": "view",
      "type": "function"
    },
    {
      "constant": true,
      "inputs": [
        {
          "internalType": "address",
          "name": "_tokenOwner",
          "type": "address"
        },
        {
          "internalType": "uint256",
          "name": "_cliff",
          "type": "uint256"
        },
        {
          "internalType": "uint256",
          "name": "_duration",
          "type": "uint256"
        },
        {
          "internalType": "uint256",
          "name": "_vestingCreationType",
          "type": "uint256"
        }
      ],
      "name": "getTeamVesting",
      "outputs": [
        {
          "internalType": "address",
          "name": "",
          "type": "address"
        }
      ],
      "payable": false,
      "stateMutability": "view",
      "type": "function"
    },
    {
      "constant": true,
      "inputs": [
        {
          "internalType": "address",
          "name": "_tokenOwner",
          "type": "address"
        }
      ],
      "name": "getVesting",
      "outputs": [
        {
          "internalType": "address",
          "name": "",
          "type": "address"
        }
      ],
      "payable": false,
      "stateMutability": "view",
      "type": "function"
    },
    {
      "constant": true,
      "inputs": [
        {
          "internalType": "address",
          "name": "_tokenOwner",
          "type": "address"
        },
        {
          "internalType": "uint256",
          "name": "_cliff",
          "type": "uint256"
        },
        {
          "internalType": "uint256",
          "name": "_duration",
          "type": "uint256"
        },
        {
          "internalType": "uint256",
          "name": "_vestingCreationType",
          "type": "uint256"
        }
      ],
      "name": "getVestingAddr",
      "outputs": [
        {
          "internalType": "address",
          "name": "",
          "type": "address"
        }
      ],
      "payable": false,
      "stateMutability": "view",
      "type": "function"
    },
    {
      "constant": true,
      "inputs": [
        {
          "internalType": "address",
          "name": "_vestingAddress",
          "type": "address"
        }
      ],
      "name": "getVestingDetails",
      "outputs": [
        {
          "internalType": "uint256",
          "name": "cliff",
          "type": "uint256"
        },
        {
          "internalType": "uint256",
          "name": "duration",
          "type": "uint256"
        }
      ],
      "payable": false,
      "stateMutability": "view",
      "type": "function"
    },
    {
      "constant": true,
      "inputs": [
        {
          "internalType": "address",
          "name": "_tokenOwner",
          "type": "address"
        }
      ],
      "name": "getVestingsOf",
      "outputs": [
        {
          "components": [
            {
              "internalType": "uint256",
              "name": "vestingType",
              "type": "uint256"
            },
            {
              "internalType": "uint256",
              "name": "vestingCreationType",
              "type": "uint256"
            },
            {
              "internalType": "address",
              "name": "vestingAddress",
              "type": "address"
            }
          ],
          "internalType": "struct VestingRegistryStorage.Vesting[]",
          "name": "",
          "type": "tuple[]"
        }
      ],
      "payable": false,
      "stateMutability": "view",
      "type": "function"
    },
    {
      "constant": false,
      "inputs": [
        {
          "internalType": "address",
          "name": "_vestingFactory",
          "type": "address"
        },
        {
          "internalType": "address",
          "name": "_SOV",
          "type": "address"
        },
        {
          "internalType": "address",
          "name": "_staking",
          "type": "address"
        },
        {
          "internalType": "address",
          "name": "_feeSharingCollector",
          "type": "address"
        },
        {
          "internalType": "address",
          "name": "_vestingOwner",
          "type": "address"
        },
        {
          "internalType": "address",
          "name": "_lockedSOV",
          "type": "address"
        },
        {
          "internalType": "address[]",
          "name": "_vestingRegistries",
          "type": "address[]"
        }
      ],
      "name": "initialize",
      "outputs": [],
      "payable": false,
      "stateMutability": "nonpayable",
      "type": "function"
    },
    {
      "constant": true,
      "inputs": [],
      "name": "isOwner",
      "outputs": [
        {
          "internalType": "bool",
          "name": "",
          "type": "bool"
        }
      ],
      "payable": false,
      "stateMutability": "view",
      "type": "function"
    },
    {
      "constant": true,
      "inputs": [
        {
          "internalType": "address",
          "name": "_vestingAddress",
          "type": "address"
        }
      ],
      "name": "isTeamVesting",
      "outputs": [
        {
          "internalType": "bool",
          "name": "",
          "type": "bool"
        }
      ],
      "payable": false,
      "stateMutability": "view",
      "type": "function"
    },
    {
      "constant": true,
      "inputs": [
        {
          "internalType": "address",
          "name": "",
          "type": "address"
        }
      ],
      "name": "isVesting",
      "outputs": [
        {
          "internalType": "bool",
          "name": "",
          "type": "bool"
        }
      ],
      "payable": false,
      "stateMutability": "view",
      "type": "function"
    },
    {
      "constant": true,
      "inputs": [
        {
          "internalType": "address",
          "name": "_vestingAddress",
          "type": "address"
        }
      ],
      "name": "isVestingAddress",
      "outputs": [
        {
          "internalType": "bool",
          "name": "isVestingAddr",
          "type": "bool"
        }
      ],
      "payable": false,
      "stateMutability": "view",
      "type": "function"
    },
    {
      "constant": true,
      "inputs": [
        {
          "internalType": "address",
          "name": "_vestingAddress",
          "type": "address"
        }
      ],
      "name": "isVestingAdress",
      "outputs": [
        {
          "internalType": "bool",
          "name": "isVestingAddr",
          "type": "bool"
        }
      ],
      "payable": false,
      "stateMutability": "view",
      "type": "function"
    },
    {
      "constant": true,
      "inputs": [],
      "name": "lockedSOV",
      "outputs": [
        {
          "internalType": "contract ILockedSOV",
          "name": "",
          "type": "address"
        }
      ],
      "payable": false,
      "stateMutability": "view",
      "type": "function"
    },
    {
      "constant": true,
      "inputs": [],
      "name": "owner",
      "outputs": [
        {
          "internalType": "address",
          "name": "",
          "type": "address"
        }
      ],
      "payable": false,
      "stateMutability": "view",
      "type": "function"
    },
    {
      "constant": false,
      "inputs": [
        {
          "internalType": "address[]",
          "name": "_vestingAddresses",
          "type": "address[]"
        },
        {
          "components": [
            {
              "internalType": "bool",
              "name": "isSet",
              "type": "bool"
            },
            {
              "internalType": "uint32",
              "name": "vestingType",
              "type": "uint32"
            },
            {
              "internalType": "uint128",
              "name": "vestingCreationType",
              "type": "uint128"
            }
          ],
          "internalType": "struct VestingRegistryStorage.VestingCreationAndTypeDetails[]",
          "name": "_vestingCreationAndTypes",
          "type": "tuple[]"
        }
      ],
      "name": "registerVestingToVestingCreationAndTypes",
      "outputs": [],
      "payable": false,
      "stateMutability": "nonpayable",
      "type": "function"
    },
    {
      "constant": false,
      "inputs": [
        {
          "internalType": "address",
          "name": "_admin",
          "type": "address"
        }
      ],
      "name": "removeAdmin",
      "outputs": [],
      "payable": false,
      "stateMutability": "nonpayable",
      "type": "function"
    },
    {
      "constant": false,
      "inputs": [
        {
          "internalType": "address",
          "name": "_vestingFactory",
          "type": "address"
        }
      ],
      "name": "setVestingFactory",
      "outputs": [],
      "payable": false,
      "stateMutability": "nonpayable",
      "type": "function"
    },
    {
      "constant": false,
      "inputs": [
        {
          "internalType": "address",
          "name": "_vesting",
          "type": "address"
        },
        {
          "internalType": "uint256",
          "name": "_amount",
          "type": "uint256"
        }
      ],
      "name": "stakeTokens",
      "outputs": [],
      "payable": false,
      "stateMutability": "nonpayable",
      "type": "function"
    },
    {
      "constant": true,
      "inputs": [],
      "name": "staking",
      "outputs": [
        {
          "internalType": "address",
          "name": "",
          "type": "address"
        }
      ],
      "payable": false,
      "stateMutability": "view",
      "type": "function"
    },
    {
      "constant": false,
      "inputs": [
        {
          "internalType": "address",
          "name": "newOwner",
          "type": "address"
        }
      ],
      "name": "transferOwnership",
      "outputs": [],
      "payable": false,
      "stateMutability": "nonpayable",
      "type": "function"
    },
    {
      "constant": false,
      "inputs": [
        {
          "internalType": "address",
          "name": "_receiver",
          "type": "address"
        },
        {
          "internalType": "uint256",
          "name": "_amount",
          "type": "uint256"
        }
      ],
      "name": "transferSOV",
      "outputs": [],
      "payable": false,
      "stateMutability": "nonpayable",
      "type": "function"
    },
    {
      "constant": true,
      "inputs": [
        {
          "internalType": "address",
          "name": "",
          "type": "address"
        }
      ],
      "name": "vestingCreationAndTypes",
      "outputs": [
        {
          "internalType": "bool",
          "name": "isSet",
          "type": "bool"
        },
        {
          "internalType": "uint32",
          "name": "vestingType",
          "type": "uint32"
        },
        {
          "internalType": "uint128",
          "name": "vestingCreationType",
          "type": "uint128"
        }
      ],
      "payable": false,
      "stateMutability": "view",
      "type": "function"
    },
    {
      "constant": true,
      "inputs": [],
      "name": "vestingFactory",
      "outputs": [
        {
          "internalType": "contract IVestingFactory",
          "name": "",
          "type": "address"
        }
      ],
      "payable": false,
      "stateMutability": "view",
      "type": "function"
    },
    {
      "constant": true,
      "inputs": [],
      "name": "vestingOwner",
      "outputs": [
        {
          "internalType": "address",
          "name": "",
          "type": "address"
        }
      ],
      "payable": false,
      "stateMutability": "view",
      "type": "function"
    },
    {
      "constant": true,
      "inputs": [
        {
          "internalType": "uint256",
          "name": "",
          "type": "uint256"
        }
      ],
      "name": "vestingRegistries",
      "outputs": [
        {
          "internalType": "contract IVestingRegistry",
          "name": "",
          "type": "address"
        }
      ],
      "payable": false,
      "stateMutability": "view",
      "type": "function"
    },
    {
      "constant": true,
      "inputs": [
        {
          "internalType": "uint256",
          "name": "",
          "type": "uint256"
        }
      ],
      "name": "vestings",
      "outputs": [
        {
          "internalType": "uint256",
          "name": "vestingType",
          "type": "uint256"
        },
        {
          "internalType": "uint256",
          "name": "vestingCreationType",
          "type": "uint256"
        },
        {
          "internalType": "address",
          "name": "vestingAddress",
          "type": "address"
        }
      ],
      "payable": false,
      "stateMutability": "view",
      "type": "function"
    },
    {
      "constant": true,
      "inputs": [
        {
          "internalType": "address",
          "name": "",
          "type": "address"
        },
        {
          "internalType": "uint256",
          "name": "",
          "type": "uint256"
        }
      ],
      "name": "vestingsOf",
      "outputs": [
        {
          "internalType": "uint256",
          "name": "",
          "type": "uint256"
        }
      ],
      "payable": false,
      "stateMutability": "view",
      "type": "function"
    }
  ],
  "transactionHash": "0x99fa244b63820ff2e0f2b0e129ed3e07b85a5595fa24419886389c450a787076",
  "args": [],
  "numDeployments": 2,
  "solcInputHash": "34e9e4d6fe817048075efc6a6d51d2ff",
  "bytecode": "0x608060405260006100176001600160e01b0361007016565b6000805462010000600160b01b031916620100006001600160a01b038416908102919091178255604051929350917f8be0079c531659141344cd1fd0a4f28419497f9722a3daafe3b4186f6b6457e0908290a350610074565b3390565b613082806100836000396000f3fe608060405234801561001057600080fd5b50600436106102115760003560e01c80638da5cb5b11610125578063ca210d8c116100ad578063efb957331161007c578063efb9573314610466578063f2f46b3b14610486578063f2fde38b1461048e578063f421ed7e146104a1578063f60826ee146104b457610211565b8063ca210d8c14610420578063cc49ede714610433578063dbb049d114610420578063dfb9366d1461044657610211565b8063bc84f9ca116100f4578063bc84f9ca146103cc578063bd7b5908146103df578063c0e09852146103e7578063c36519d1146103fa578063c680c0b71461040d57610211565b80638da5cb5b146103885780638dedf009146103905780638f32d59b146103b1578063b810c648146103b957610211565b80634cf088d9116101a857806379a83f5a1161017757806379a83f5a146102fe57806380fcb99214610311578063821bee7314610333578063842a49d514610355578063862e229d1461037557610211565b80634cf088d9146102c85780636b7dbb2d146102d057806370480275146102d8578063786931da146102eb57610211565b80631f509326116101e45780631f5093261461026f578063377220fd14610282578063429b62e51461029557806342a82b4f146102b557610211565b806302df0476146102165780630665a06f1461023f57806308dcb360146102545780631785f53c1461025c575b600080fd5b61022961022436600461244a565b6104bc565b6040516102369190612c45565b60405180910390f35b61025261024d36600461244a565b61051d565b005b610229610578565b61025261026a36600461231c565b610587565b61025261027d3660046124ab565b610606565b61025261029036600461231c565b6106a8565b6102a86102a336600461231c565b6106d8565b6040516102369190612d3a565b6102526102c3366004612358565b6106ed565b61022961095c565b61022961096b565b6102526102e636600461231c565b61097a565b6102526102f9366004612520565b6109f3565b61025261030c366004612410565b610ce2565b61032461031f36600461231c565b610e8e565b60405161023693929190612d48565b61034661034136600461260d565b610ec3565b60405161023693929190612ee8565b61036861036336600461260d565b610eed565b6040516102369190612d70565b6102526103833660046124ab565b610f14565b610229610fa3565b6103a361039e36600461231c565b610fb8565b604051610236929190612eda565b6102a86110ac565b6102526103c7366004612520565b6110d6565b6102526103da366004612590565b6111e6565b610229611346565b6102a86103f536600461231c565b611355565b61022961040836600461244a565b61136a565b61025261041b366004612410565b611373565b6102a861042e36600461231c565b6114b3565b61022961044136600461231c565b6114d1565b610459610454366004612410565b6115f0565b6040516102369190612ecc565b61047961047436600461231c565b61161e565b6040516102369190612d29565b610368611768565b61025261049c36600461231c565b611777565b6102a86104af36600461231c565b6117a4565b6103686117ef565b60008060015b9050600086828787876040516020016104df959493929190612bec565b60408051601f198184030181529181528151602092830120600090815260099092529020600201546001600160a01b0316925050505b949350505050565b6105256110ac565b8061053f57503360009081526001602052604090205460ff165b6105645760405162461bcd60e51b815260040161055b90612e2e565b60405180910390fd5b610572848484846003610606565b50505050565b6005546001600160a01b031681565b61058f6110ac565b6105ab5760405162461bcd60e51b815260040161055b90612e2e565b6001600160a01b03811660009081526001602052604090819020805460ff19169055517fa3b62bc36326052d97ea62d63c3d60308ed4c3ea8ac079dd8499f1e9c4f80c0f906105fb908390612c45565b60405180910390a150565b61060e6110ac565b8061062857503360009081526001602052604090205460ff165b6106445760405162461bcd60e51b815260040161055b90612e2e565b600061065586858560015b866117fe565b9050856001600160a01b03167fd6fcfd83804f6b6b63260c7b99eb10060bc1319dbc9177fb6defc7bd614017bf8286868987604051610698959493929190612cdd565b60405180910390a2505050505050565b6106b06110ac565b6106cc5760405162461bcd60e51b815260040161055b90612e2e565b6106d581611b66565b50565b60016020526000908152604090205460ff1681565b6106f56110ac565b6107115760405162461bcd60e51b815260040161055b90612e2e565b600054610100900460ff168061072a575060005460ff16155b6107465760405162461bcd60e51b815260040161055b90612e1e565b600054610100900460ff16158015610771576000805460ff1961ff0019909116610100171660011790555b6001600160a01b0388166107975760405162461bcd60e51b815260040161055b90612eae565b6001600160a01b0387166107bd5760405162461bcd60e51b815260040161055b90612e8e565b6001600160a01b0386166107e35760405162461bcd60e51b815260040161055b90612e3e565b6001600160a01b0385166108095760405162461bcd60e51b815260040161055b90612e0e565b6001600160a01b03841661082f5760405162461bcd60e51b815260040161055b90612e7e565b61083889611b66565b600580546001600160a01b03199081166001600160a01b038b8116919091179092556006805482168a84161790556007805482168984161790556008805482168884161790556003805490911691861691909117905560005b8281101561093e5760008484838181106108a757fe5b90506020020160206108bc919081019061231c565b6001600160a01b031614156108e35760405162461bcd60e51b815260040161055b90612d7e565b60048484838181106108f157fe5b9050602002016020610906919081019061231c565b815460018082018455600093845260209093200180546001600160a01b0319166001600160a01b039290921691909117905501610891565b508015610951576000805461ff00191690555b505050505050505050565b6006546001600160a01b031681565b6007546001600160a01b031681565b6109826110ac565b61099e5760405162461bcd60e51b815260040161055b90612e2e565b6001600160a01b038116600090815260016020819052604091829020805460ff19169091179055517f44d6d25963f097ad14f29f06854a01f575648a1ef82f30e562ccd3889717e339906105fb908390612c45565b6109fb6110ac565b80610a1557503360009081526001602052604090205460ff165b610a315760405162461bcd60e51b815260040161055b90612e2e565b828114610a505760405162461bcd60e51b815260040161055b90612d8e565b60046224ea0063059fa60060005b86811015610cd857600b6000878784818110610a7657fe5b9050602002016020610a8b919081019061231c565b6001600160a01b0316815260208101919091526040016000205460ff1615610ac55760405162461bcd60e51b815260040161055b90612dfe565b6000888883818110610ad357fe5b9050602002016020610ae8919081019061231c565b6001600160a01b03161415610b0f5760405162461bcd60e51b815260040161055b90612d9e565b6000868683818110610b1d57fe5b9050602002016020610b32919081019061231c565b6001600160a01b03161415610b595760405162461bcd60e51b815260040161055b90612dae565b6000888883818110610b6757fe5b9050602002016020610b7c919081019061231c565b6001858588604051602001610b95959493929190612bec565b60408051808303601f1901815282825280516020918201206060840183526001845290830188905292508101888885818110610bcd57fe5b9050602002016020610be2919081019061231c565b6001600160a01b039081169091526000838152600960209081526040808320855181559185015160018301559390930151600290930180546001600160a01b03191693909216929092179055600a908a8a85818110610c3d57fe5b9050602002016020610c52919081019061231c565b6001600160a01b031681526020808201929092526040016000908120805460018181018355918352928220909201839055600b90898986818110610c9257fe5b9050602002016020610ca7919081019061231c565b6001600160a01b031681526020810191909152604001600020805460ff191691151591909117905550600101610a5e565b5050505050505050565b610cea6110ac565b80610d0457503360009081526001602052604090205460ff165b610d205760405162461bcd60e51b815260040161055b90612e2e565b6001600160a01b038216610d465760405162461bcd60e51b815260040161055b90612dee565b60008111610d665760405162461bcd60e51b815260040161055b90612dde565b60055460405163095ea7b360e01b81526001600160a01b039091169063095ea7b390610d989085908590600401612cbb565b602060405180830381600087803b158015610db257600080fd5b505af1158015610dc6573d6000803e3d6000fd5b505050506040513d601f19601f82011682018060405250610dea91908101906125ef565b50604051637547c7a360e01b81526001600160a01b03831690637547c7a390610e17908490600401612ecc565b600060405180830381600087803b158015610e3157600080fd5b505af1158015610e45573d6000803e3d6000fd5b50505050816001600160a01b03167fb539ca1e5c8d398ddf1c41c30166f33404941683be4683319b57669a93dad4ef82604051610e829190612ecc565b60405180910390a25050565b600c6020526000908152604090205460ff811690610100810463ffffffff16906501000000000090046001600160801b031683565b6009602052600090815260409020805460018201546002909201549091906001600160a01b031683565b60048181548110610efa57fe5b6000918252602090912001546001600160a01b0316905081565b610f1c6110ac565b80610f3657503360009081526001602052604090205460ff165b610f525760405162461bcd60e51b815260040161055b90612e2e565b6000610f608685858461064f565b9050856001600160a01b03167f3791c6c90c276d011b4b885c0bfba0554342acf50a539baca1b06f070af25ff48286868987604051610698959493929190612cdd565b6000546201000090046001600160a01b031690565b6000806000839050806001600160a01b03166313d033c06040518163ffffffff1660e01b815260040160206040518083038186803b158015610ff957600080fd5b505afa15801561100d573d6000803e3d6000fd5b505050506040513d601f19601f82011682018060405250611031919081019061262b565b816001600160a01b0316630fb5a6b46040518163ffffffff1660e01b815260040160206040518083038186803b15801561106a57600080fd5b505afa15801561107e573d6000803e3d6000fd5b505050506040513d601f19601f820116820180604052506110a2919081019061262b565b9250925050915091565b600080546201000090046001600160a01b03166110c7611bae565b6001600160a01b031614905090565b6110de6110ac565b806110f857503360009081526001602052604090205460ff165b6111145760405162461bcd60e51b815260040161055b90612e2e565b60005b838110156111df57600085858381811061112d57fe5b9050602002016020611142919081019061231c565b6001600160a01b031614156111695760405162461bcd60e51b815260040161055b90612d9e565b600083838381811061117757fe5b905060200201351161119b5760405162461bcd60e51b815260040161055b90612e4e565b6111d78585838181106111aa57fe5b90506020020160206111bf919081019061231c565b8484848181106111cb57fe5b90506020020135611bb2565b600101611117565b5050505050565b6111ee6110ac565b8061120857503360009081526001602052604090205460ff165b6112245760405162461bcd60e51b815260040161055b90612e2e565b80518251146112455760405162461bcd60e51b815260040161055b90612e6e565b60005b8151811015611341576112596120e5565b82828151811061126557fe5b60200260200101519050600084838151811061127d57fe5b6020908102919091018101516001600160a01b0381166000818152600c845260409081902086518154958801518884015160ff199097169115159190911764ffffffff00191661010063ffffffff909216919091021765010000000000600160a81b031916650100000000006001600160801b039096169590950294909417845551919350917f4deb6fa84b5232023ce753128000047116f9a6795b40a3b701edf5d8e265ca349161132f9190612ebe565b60405180910390a25050600101611248565b505050565b6008546001600160a01b031681565b600b6020526000908152604090205460ff1681565b600080806104c2565b61137b6110ac565b6113975760405162461bcd60e51b815260040161055b90612e2e565b6001600160a01b0382166113bd5760405162461bcd60e51b815260040161055b90612e5e565b806113da5760405162461bcd60e51b815260040161055b90612dde565b60055460405163a9059cbb60e01b81526001600160a01b039091169063a9059cbb9061140c9085908590600401612cbb565b602060405180830381600087803b15801561142657600080fd5b505af115801561143a573d6000803e3d6000fd5b505050506040513d601f19601f8201168201806040525061145e91908101906125ef565b61147a5760405162461bcd60e51b815260040161055b90612e9e565b816001600160a01b03167fe1b0ada289bf82fb641c8c1e1c78f820fae44e8f845760725cdeb09167a289ad82604051610e829190612ecc565b6001600160a01b03166000908152600b602052604090205460ff1690565b60006115ea82600360009054906101000a90046001600160a01b03166001600160a01b03166313d033c06040518163ffffffff1660e01b815260040160206040518083038186803b15801561152557600080fd5b505afa158015611539573d6000803e3d6000fd5b505050506040513d601f19601f8201168201806040525061155d919081019061262b565b600360009054906101000a90046001600160a01b03166001600160a01b0316630fb5a6b46040518163ffffffff1660e01b815260040160206040518083038186803b1580156115ab57600080fd5b505afa1580156115bf573d6000803e3d6000fd5b505050506040513d601f19601f820116820180604052506115e3919081019061262b565b60036104bc565b92915050565b600a602052816000526040600020818154811061160957fe5b90600052602060002001600091509150505481565b606080600a6000846001600160a01b03166001600160a01b0316815260200190815260200160002080548060200260200160405190810160405280929190818152602001828054801561169057602002820191906000526020600020905b81548152602001906001019080831161167c575b50505050509050600081519050606082516040519080825280602002602001820160405280156116da57816020015b6116c7612105565b8152602001906001900390816116bf5790505b50905060005b8281101561175f57600960008583815181106116f857fe5b6020908102919091018101518252818101929092526040908101600020815160608101835281548152600182015493810193909352600201546001600160a01b031690820152825183908390811061174c57fe5b60209081029190910101526001016116e0565b50949350505050565b6003546001600160a01b031681565b61177f6110ac565b61179b5760405162461bcd60e51b815260040161055b90612e2e565b6106d581612056565b6001600160a01b0381166000908152600c602052604081205460ff1680156115ea5750506001600160a01b03166000908152600c6020526040902054610100900463ffffffff161590565b6002546001600160a01b031681565b6000806000878588888760405160200161181c959493929190612bec565b60408051601f198184030181529181528151602092830120600081815260099093529120600201549091506001600160a01b0316611b4057846001141561190057600254600554600654600754604051637d2fbb8f60e11b81526001600160a01b039485169463fa5f771e946118a79490821693908216928f928f928f929116908490600401612c53565b602060405180830381600087803b1580156118c157600080fd5b505af11580156118d5573d6000803e3d6000fd5b505050506040513d601f19601f820116820180604052506118f9919081019061233a565b91506119f6565b600260009054906101000a90046001600160a01b03166001600160a01b031663546344f0600560009054906101000a90046001600160a01b0316600660009054906101000a90046001600160a01b03168b8b8b600760009054906101000a90046001600160a01b0316600860009054906101000a90046001600160a01b03166040518863ffffffff1660e01b81526004016119a19796959493929190612c53565b602060405180830381600087803b1580156119bb57600080fd5b505af11580156119cf573d6000803e3d6000fd5b505050506040513d601f19601f820116820180604052506119f3919081019061233a565b91505b604080516060808201835287825260208083018881526001600160a01b038088168587018181526000898152600986528881209751885593516001808901919091559051600290970180549784166001600160a01b031990981697909717909655908e168252600a83528582208054808701825590835283832001879055808252600b8352858220805460ff1990811687179091558651948501875294845263ffffffff808c168585019081526001600160801b03808d16878a01908152848652600c909652938890209551865491519551909416650100000000000265010000000000600160a81b0319959092166101000264ffffffff00199415159190971617929092169490941791909116178155915190917f4deb6fa84b5232023ce753128000047116f9a6795b40a3b701edf5d8e265ca3491611b379190612ebe565b60405180910390a25b6000908152600960205260409020600201546001600160a01b0316979650505050505050565b6001600160a01b038116611b8c5760405162461bcd60e51b815260040161055b90612dce565b600280546001600160a01b0319166001600160a01b0392909216919091179055565b3390565b600080600183039050600060048281548110611bca57fe5b60009182526020909120015460405163cc49ede760e01b81526001600160a01b039091169063cc49ede790611c03908890600401612c45565b60206040518083038186803b158015611c1b57600080fd5b505afa158015611c2f573d6000803e3d6000fd5b505050506040513d601f19601f82011682018060405250611c53919081019061233a565b90506001600160a01b03811615611e035780856001826001600160a01b03166313d033c06040518163ffffffff1660e01b815260040160206040518083038186803b158015611ca157600080fd5b505afa158015611cb5573d6000803e3d6000fd5b505050506040513d601f19601f82011682018060405250611cd9919081019061262b565b836001600160a01b0316630fb5a6b46040518163ffffffff1660e01b815260040160206040518083038186803b158015611d1257600080fd5b505afa158015611d26573d6000803e3d6000fd5b505050506040513d601f19601f82011682018060405250611d4a919081019061262b565b88604051602001611d5f959493929190612bec565b60408051601f19818403018152828252805160209182012060608401835260018085528285018a81526001600160a01b0388811687870181815260008681526009885288812099518a5593518986015551600290980180546001600160a01b031916988316989098179097558c168152600a84528481208054808401825590825284822001839055948552600b90925291909220805460ff19169092179091559350505b600060048381548110611e1257fe5b60009182526020909120015460405163c810a3e360e01b81526001600160a01b039091169063c810a3e390611e4b908990600401612c45565b60206040518083038186803b158015611e6357600080fd5b505afa158015611e77573d6000803e3d6000fd5b505050506040513d601f19601f82011682018060405250611e9b919081019061233a565b90506001600160a01b0381161561204e5780866000826001600160a01b03166313d033c06040518163ffffffff1660e01b815260040160206040518083038186803b158015611ee957600080fd5b505afa158015611efd573d6000803e3d6000fd5b505050506040513d601f19601f82011682018060405250611f21919081019061262b565b836001600160a01b0316630fb5a6b46040518163ffffffff1660e01b815260040160206040518083038186803b158015611f5a57600080fd5b505afa158015611f6e573d6000803e3d6000fd5b505050506040513d601f19601f82011682018060405250611f92919081019061262b565b89604051602001611fa7959493929190612bec565b60408051601f19818403018152828252805160209182012060608401835260008085528285018b81526001600160a01b03888116878701818152858552600987528785209851895592516001808a01919091559251600290980180546001600160a01b031916988316989098179097558d168252600a84528482208054808301825590835284832001839055948152600b909252919020805460ff19169092179091559450505b505050505050565b6001600160a01b03811661207c5760405162461bcd60e51b815260040161055b90612dbe565b600080546040516001600160a01b03808516936201000090930416917f8be0079c531659141344cd1fd0a4f28419497f9722a3daafe3b4186f6b6457e091a3600080546001600160a01b03909216620100000262010000600160b01b0319909216919091179055565b604080516060810182526000808252602082018190529181019190915290565b6040518060600160405280600081526020016000815260200160006001600160a01b031681525090565b80356115ea81613007565b80516115ea81613007565b60008083601f84011261215757600080fd5b50813567ffffffffffffffff81111561216f57600080fd5b60208301915083602082028301111561218757600080fd5b9250929050565b600082601f83011261219f57600080fd5b81356121b26121ad82612f37565b612f10565b915081818352602084019350602081019050838560208402820111156121d757600080fd5b60005b8381101561220357816121ed888261212f565b84525060209283019291909101906001016121da565b5050505092915050565b600082601f83011261221e57600080fd5b813561222c6121ad82612f37565b9150818183526020840193506020810190508385606084028201111561225157600080fd5b60005b8381101561220357816122678882612295565b84525060209092019160609190910190600101612254565b80356115ea8161301b565b80516115ea8161301b565b6000606082840312156122a757600080fd5b6122b16060612f10565b905060006122bf848461227f565b82525060206122d084848301612311565b60208301525060406122e4848285016122f0565b60408301525092915050565b80356115ea81613024565b80356115ea8161302d565b80516115ea8161302d565b80356115ea81613036565b60006020828403121561232e57600080fd5b6000610515848461212f565b60006020828403121561234c57600080fd5b6000610515848461213a565b60008060008060008060008060e0898b03121561237457600080fd5b60006123808b8b61212f565b98505060206123918b828c0161212f565b97505060406123a28b828c0161212f565b96505060606123b38b828c0161212f565b95505060806123c48b828c0161212f565b94505060a06123d58b828c0161212f565b93505060c089013567ffffffffffffffff8111156123f257600080fd5b6123fe8b828c01612145565b92509250509295985092959890939650565b6000806040838503121561242357600080fd5b600061242f858561212f565b9250506020612440858286016122fb565b9150509250929050565b6000806000806080858703121561246057600080fd5b600061246c878761212f565b945050602061247d878288016122fb565b935050604061248e878288016122fb565b925050606061249f878288016122fb565b91505092959194509250565b600080600080600060a086880312156124c357600080fd5b60006124cf888861212f565b95505060206124e0888289016122fb565b94505060406124f1888289016122fb565b9350506060612502888289016122fb565b9250506080612513888289016122fb565b9150509295509295909350565b6000806000806040858703121561253657600080fd5b843567ffffffffffffffff81111561254d57600080fd5b61255987828801612145565b9450945050602085013567ffffffffffffffff81111561257857600080fd5b61258487828801612145565b95989497509550505050565b600080604083850312156125a357600080fd5b823567ffffffffffffffff8111156125ba57600080fd5b6125c68582860161218e565b925050602083013567ffffffffffffffff8111156125e357600080fd5b6124408582860161220d565b60006020828403121561260157600080fd5b6000610515848461228a565b60006020828403121561261f57600080fd5b600061051584846122fb565b60006020828403121561263d57600080fd5b60006105158484612306565b60006126558383612b89565b505060600190565b61266681612f86565b82525050565b61266661267882612f86565b612fe9565b600061268882612f5e565b6126928185612f62565b935061269d83612f58565b8060005b838110156126cb5781516126b58882612649565b97506126c083612f58565b9250506001016126a1565b509495945050505050565b61266681612f91565b61266681612fa5565b60006126f5602083612f62565b7f56657374696e67207265676973747279206164647265737320696e76616c6964815260200192915050565b600061272e600f83612f62565b6e0c2e4e4c2f2e640dad2e6dac2e8c6d608b1b815260200192915050565b6000612759601f83612f62565b7f746f6b656e206f776e65722063616e6e6f742062652030206164647265737300815260200192915050565b6000612792601b83612f62565b7f76657374696e672063616e6e6f74206265203020616464726573730000000000815260200192915050565b60006127cb602683612f62565b7f4f776e61626c653a206e6577206f776e657220697320746865207a65726f206181526564647265737360d01b602082015260400192915050565b6000612813601e83612f62565b7f76657374696e67466163746f7279206164647265737320696e76616c69640000815260200192915050565b600061284c600e83612f62565b6d185b5bdd5b9d081a5b9d985b1a5960921b815260200192915050565b6000612876601783612f62565b7f76657374696e67206164647265737320696e76616c6964000000000000000000815260200192915050565b60006128af600e83612f62565b6d76657374696e672065786973747360901b815260200192915050565b60006128d9601c83612f62565b7f76657374696e674f776e6572206164647265737320696e76616c696400000000815260200192915050565b6000612912602e83612f62565b7f496e697469616c697a61626c653a20636f6e747261637420697320616c72656181526d191e481a5b9a5d1a585b1a5e995960921b602082015260400192915050565b6000612962600c83612f62565b6b1d5b985d5d1a1bdc9a5e995960a21b815260200192915050565b600061298a602383612f62565b7f66656553686172696e67436f6c6c6563746f72206164647265737320696e76618152621b1a5960ea1b602082015260400192915050565b60006129cf602c83612f62565b7f76657374696e67206372656174696f6e2074797065206d75737420626520677281526b06561746572207468616e20360a41b602082015260400192915050565b6000612a1d601883612f62565b7f7265636569766572206164647265737320696e76616c69640000000000000000815260200192915050565b6000612a56601083612f62565b6f0aadcdac2e8c6d0cac840d8cadccee8d60831b815260200192915050565b6000612a82601983612f62565b7f4c6f636b6564534f56206164647265737320696e76616c696400000000000000815260200192915050565b6000612abb601783612f62565b7f7374616b696e67206164647265737320696e76616c6964000000000000000000815260200192915050565b6000612af4600f83612f62565b6e1d1c985b9cd9995c8819985a5b1959608a1b815260200192915050565b6000612b1f601383612f62565b7214d3d5881859191c995cdcc81a5b9d985b1a59606a1b815260200192915050565b80546060830190612b5181612fb0565b612b5b85826126d6565b50612b6581612fc3565b612b726020860182612be3565b50612b7c81612fd6565b6111df6040860182612bc0565b80516060830190612b9a8482612bc9565b506020820151612bad6020850182612bc9565b506040820151610572604085018261265d565b61266681612f71565b61266681612fa2565b612666612bde82612fa2565b612fa2565b61266681612f7d565b6000612bf8828861266c565b601482019150612c088287612bd2565b602082019150612c188286612bd2565b602082019150612c288285612bd2565b602082019150612c388284612bd2565b5060200195945050505050565b602081016115ea828461265d565b60e08101612c61828a61265d565b612c6e602083018961265d565b612c7b604083018861265d565b612c886060830187612bc9565b612c956080830186612bc9565b612ca260a083018561265d565b612caf60c083018461265d565b98975050505050505050565b60408101612cc9828561265d565b612cd66020830184612bc9565b9392505050565b60a08101612ceb828861265d565b612cf86020830187612bc9565b612d056040830186612bc9565b612d126060830185612bc9565b612d1f6080830184612bc9565b9695505050505050565b60208082528101612cd6818461267d565b602081016115ea82846126d6565b60608101612d5682866126d6565b612d636020830185612be3565b6105156040830184612bc0565b602081016115ea82846126df565b602080825281016115ea816126e8565b602080825281016115ea81612721565b602080825281016115ea8161274c565b602080825281016115ea81612785565b602080825281016115ea816127be565b602080825281016115ea81612806565b602080825281016115ea8161283f565b602080825281016115ea81612869565b602080825281016115ea816128a2565b602080825281016115ea816128cc565b602080825281016115ea81612905565b602080825281016115ea81612955565b602080825281016115ea8161297d565b602080825281016115ea816129c2565b602080825281016115ea81612a10565b602080825281016115ea81612a49565b602080825281016115ea81612a75565b602080825281016115ea81612aae565b602080825281016115ea81612ae7565b602080825281016115ea81612b12565b606081016115ea8284612b41565b602081016115ea8284612bc9565b60408101612cc98285612bc9565b60608101612ef68286612bc9565b612f036020830185612bc9565b610515604083018461265d565b60405181810167ffffffffffffffff81118282101715612f2f57600080fd5b604052919050565b600067ffffffffffffffff821115612f4e57600080fd5b5060209081020190565b60200190565b5190565b90815260200190565b60ff1690565b6001600160801b031690565b63ffffffff1690565b60006115ea82612f96565b151590565b6001600160a01b031690565b90565b60006115ea82612f86565b60006115ea612fbe83612fa2565b612f6b565b60006115ea612fd183613001565b612f7d565b60006115ea612fe483612ffb565b612f71565b60006115ea8260006115ea8260601b90565b60281c90565b60081c90565b61301081612f86565b81146106d557600080fd5b61301081612f91565b61301081612f71565b61301081612fa2565b61301081612f7d56fea365627a7a723158201c5e3be79a774a0ee1b12beb2e97c0e9aa8d504fc5571ff1825a9d95d0ccc0056c6578706572696d656e74616cf564736f6c63430005110040",
  "devdoc": {
    "methods": {
      "addAdmin(address)": {
        "params": {
          "_admin": "The addresses of the account to grant permissions."
        }
      },
      "addDeployedVestings(address[],uint256[])": {
        "details": "migration of data from previous vesting registy contracts"
      },
      "addFourYearVestings(address[],address[])": {
        "params": {
          "_tokenOwners": "array of token owners",
          "_vestingAddresses": "array of vesting addresses"
        }
      },
      "createTeamVesting(address,uint256,uint256,uint256,uint256)": {
        "params": {
          "_amount": "the amount to be staked",
          "_cliff": "the cliff in seconds",
          "_duration": "the total duration in seconds",
          "_tokenOwner": "the owner of the tokens",
          "_vestingCreationType": "the type of vesting created(e.g. Origin, Bug Bounty etc.)"
        }
      },
      "createVesting(address,uint256,uint256,uint256)": {
        "details": "Calls a public createVestingAddr function with vestingCreationType. This is to accomodate the existing logic for LockedSOVvestingCreationType 0 = LockedSOV",
        "params": {
          "_amount": "the amount to be staked",
          "_cliff": "the cliff in seconds",
          "_duration": "the total duration in seconds",
          "_tokenOwner": "the owner of the tokens"
        }
      },
      "createVestingAddr(address,uint256,uint256,uint256,uint256)": {
        "params": {
          "_amount": "the amount to be staked",
          "_cliff": "the cliff in seconds",
          "_duration": "the total duration in seconds",
          "_tokenOwner": "the owner of the tokens",
          "_vestingCreationType": "the type of vesting created(e.g. Origin, Bug Bounty etc.)"
        }
      },
      "getVesting(address)": {
        "details": "Calls a public getVestingAddr function with cliff and duration. This is to accomodate the existing logic for LockedSOVWe need to use LockedSOV.changeRegistryCliffAndDuration function very judiciouslyvestingCreationType 0 - LockedSOV",
        "params": {
          "_tokenOwner": "the owner of the tokens"
        }
      },
      "getVestingAddr(address,uint256,uint256,uint256)": {
        "details": "Important: Please use this instead of getVesting function"
      },
      "isOwner()": {
        "details": "Returns true if the caller is the current owner."
      },
      "isTeamVesting(address)": {
        "details": "check if the specific vesting address is team vesting or notread the vestingType from vestingCreationAndTypes storage",
        "params": {
          "_vestingAddress": "address of vesting contract"
        },
        "return": "true for teamVesting, false for normal vesting"
      },
      "isVestingAdress(address)": {
        "details": "will be deprecated due to wrong spelling. use isVestingAddress(address _vestingAddress)."
      },
      "owner()": {
        "details": "Returns the address of the current owner."
      },
      "registerVestingToVestingCreationAndTypes(address[],(bool,uint32,uint128)[])": {
        "details": "setter function to register existing vesting contract to vestingCreationAndTypes storageneed to set the function visilibty to public to support VestingCreationAndTypeDetails struct as parameter",
        "params": {
          "_vestingAddresses": "array of vesting address",
          "_vestingCreationAndTypes": "array for VestingCreationAndTypeDetails struct"
        }
      },
      "removeAdmin(address)": {
        "params": {
          "_admin": "The addresses of the account to revoke permissions."
        }
      },
      "setVestingFactory(address)": {
        "params": {
          "_vestingFactory": "the address of vesting factory contract"
        }
      },
      "stakeTokens(address,uint256)": {
        "params": {
          "_amount": "the amount of tokens to stake",
          "_vesting": "the address of Vesting contract"
        }
      },
      "transferOwnership(address)": {
        "details": "Transfers ownership of the contract to a new account (`newOwner`). Can only be called by the current owner."
      },
      "transferSOV(address,uint256)": {
        "params": {
          "_amount": "the amount to be transferred",
          "_receiver": "the address of the SOV receiver"
        }
      }
    }
  },
  "userdoc": {
    "methods": {
      "addAdmin(address)": {
        "notice": "Add account to ACL."
      },
      "addDeployedVestings(address[],uint256[])": {
        "notice": "adds vestings that were deployed in previous vesting registries"
      },
      "addFourYearVestings(address[],address[])": {
        "notice": "adds four year vestings to vesting registry logic"
      },
      "createTeamVesting(address,uint256,uint256,uint256,uint256)": {
        "notice": "creates Team Vesting contract"
      },
      "createVesting(address,uint256,uint256,uint256)": {
        "notice": "creates Vesting contract"
      },
      "createVestingAddr(address,uint256,uint256,uint256,uint256)": {
        "notice": "creates Vesting contract"
      },
      "getTeamVesting(address,uint256,uint256,uint256)": {
        "notice": "returns team vesting contract address for the given token owner, cliff, duration"
      },
      "getVesting(address)": {
        "notice": "returns vesting contract address for the given token owner"
      },
      "getVestingAddr(address,uint256,uint256,uint256)": {
        "notice": "public function that returns vesting contract address for the given token owner, cliff, duration"
      },
      "getVestingDetails(address)": {
        "notice": "returns cliff and duration for Vesting & TeamVesting contracts"
      },
      "getVestingsOf(address)": {
        "notice": "returns all vesting details for the given token owner"
      },
      "initialize(address,address,address,address,address,address,address[])": {
        "notice": "Replace constructor with initialize function for Upgradable Contracts This function will be called only once by the owner"
      },
      "isVestingAddress(address)": {
        "notice": "returns if the address is a vesting address"
      },
      "isVestingAdress(address)": {
        "notice": "returns if the address is a vesting address"
      },
      "removeAdmin(address)": {
        "notice": "Remove account from ACL."
      },
      "setVestingFactory(address)": {
        "notice": "sets vesting factory address"
      },
      "stakeTokens(address,uint256)": {
        "notice": "stakes tokens according to the vesting schedule"
      },
      "transferSOV(address,uint256)": {
        "notice": "transfers SOV tokens to given address"
      }
    }
  },
  "storageLayout": {
    "storage": [
      {
        "astId": 52545,
        "contract": "contracts/governance/Vesting/VestingRegistryLogic.sol:VestingRegistryLogic",
        "label": "_initialized",
        "offset": 0,
        "slot": "0",
        "type": "t_bool"
      },
      {
        "astId": 52547,
        "contract": "contracts/governance/Vesting/VestingRegistryLogic.sol:VestingRegistryLogic",
        "label": "_initializing",
        "offset": 1,
        "slot": "0",
        "type": "t_bool"
      },
      {
        "astId": 52590,
        "contract": "contracts/governance/Vesting/VestingRegistryLogic.sol:VestingRegistryLogic",
        "label": "_owner",
        "offset": 2,
        "slot": "0",
        "type": "t_address"
      },
      {
        "astId": 59667,
        "contract": "contracts/governance/Vesting/VestingRegistryLogic.sol:VestingRegistryLogic",
        "label": "admins",
        "offset": 0,
        "slot": "1",
        "type": "t_mapping(t_address,t_bool)"
      },
      {
        "astId": 30296,
        "contract": "contracts/governance/Vesting/VestingRegistryLogic.sol:VestingRegistryLogic",
        "label": "vestingFactory",
        "offset": 0,
        "slot": "2",
        "type": "t_contract(IVestingFactory)24445"
      },
      {
        "astId": 30298,
        "contract": "contracts/governance/Vesting/VestingRegistryLogic.sol:VestingRegistryLogic",
        "label": "lockedSOV",
        "offset": 0,
        "slot": "3",
        "type": "t_contract(ILockedSOV)33401"
      },
      {
        "astId": 30301,
        "contract": "contracts/governance/Vesting/VestingRegistryLogic.sol:VestingRegistryLogic",
        "label": "vestingRegistries",
        "offset": 0,
        "slot": "4",
        "type": "t_array(t_contract(IVestingRegistry)24488)dyn_storage"
      },
      {
        "astId": 30303,
        "contract": "contracts/governance/Vesting/VestingRegistryLogic.sol:VestingRegistryLogic",
        "label": "SOV",
        "offset": 0,
        "slot": "5",
        "type": "t_address"
      },
      {
        "astId": 30305,
        "contract": "contracts/governance/Vesting/VestingRegistryLogic.sol:VestingRegistryLogic",
        "label": "staking",
        "offset": 0,
        "slot": "6",
        "type": "t_address"
      },
      {
        "astId": 30307,
        "contract": "contracts/governance/Vesting/VestingRegistryLogic.sol:VestingRegistryLogic",
        "label": "feeSharingCollector",
        "offset": 0,
        "slot": "7",
        "type": "t_address"
      },
      {
        "astId": 30309,
        "contract": "contracts/governance/Vesting/VestingRegistryLogic.sol:VestingRegistryLogic",
        "label": "vestingOwner",
        "offset": 0,
        "slot": "8",
        "type": "t_address"
      },
      {
        "astId": 30323,
        "contract": "contracts/governance/Vesting/VestingRegistryLogic.sol:VestingRegistryLogic",
        "label": "vestings",
        "offset": 0,
        "slot": "9",
        "type": "t_mapping(t_uint256,t_struct(Vesting)30319_storage)"
      },
      {
        "astId": 30328,
        "contract": "contracts/governance/Vesting/VestingRegistryLogic.sol:VestingRegistryLogic",
        "label": "vestingsOf",
        "offset": 0,
        "slot": "10",
        "type": "t_mapping(t_address,t_array(t_uint256)dyn_storage)"
      },
      {
        "astId": 30332,
        "contract": "contracts/governance/Vesting/VestingRegistryLogic.sol:VestingRegistryLogic",
        "label": "isVesting",
        "offset": 0,
        "slot": "11",
        "type": "t_mapping(t_address,t_bool)"
      },
      {
        "astId": 30343,
        "contract": "contracts/governance/Vesting/VestingRegistryLogic.sol:VestingRegistryLogic",
        "label": "vestingCreationAndTypes",
        "offset": 0,
        "slot": "12",
        "type": "t_mapping(t_address,t_struct(VestingCreationAndTypeDetails)30339_storage)"
      }
    ],
    "types": {
      "t_address": {
        "encoding": "inplace",
        "label": "address",
        "numberOfBytes": "20"
      },
      "t_array(t_contract(IVestingRegistry)24488)dyn_storage": {
        "base": "t_contract(IVestingRegistry)24488",
        "encoding": "dynamic_array",
        "label": "contract IVestingRegistry[]",
        "numberOfBytes": "32"
      },
      "t_array(t_uint256)dyn_storage": {
        "base": "t_uint256",
        "encoding": "dynamic_array",
        "label": "uint256[]",
        "numberOfBytes": "32"
      },
      "t_bool": {
        "encoding": "inplace",
        "label": "bool",
        "numberOfBytes": "1"
      },
      "t_contract(ILockedSOV)33401": {
        "encoding": "inplace",
        "label": "contract ILockedSOV",
        "numberOfBytes": "20"
      },
      "t_contract(IVestingFactory)24445": {
        "encoding": "inplace",
        "label": "contract IVestingFactory",
        "numberOfBytes": "20"
      },
      "t_contract(IVestingRegistry)24488": {
        "encoding": "inplace",
        "label": "contract IVestingRegistry",
        "numberOfBytes": "20"
      },
      "t_mapping(t_address,t_array(t_uint256)dyn_storage)": {
        "encoding": "mapping",
        "key": "t_address",
        "label": "mapping(address => uint256[])",
        "numberOfBytes": "32",
        "value": "t_array(t_uint256)dyn_storage"
      },
      "t_mapping(t_address,t_bool)": {
        "encoding": "mapping",
        "key": "t_address",
        "label": "mapping(address => bool)",
        "numberOfBytes": "32",
        "value": "t_bool"
      },
      "t_mapping(t_address,t_struct(VestingCreationAndTypeDetails)30339_storage)": {
        "encoding": "mapping",
        "key": "t_address",
        "label": "mapping(address => struct VestingRegistryStorage.VestingCreationAndTypeDetails)",
        "numberOfBytes": "32",
        "value": "t_struct(VestingCreationAndTypeDetails)30339_storage"
      },
      "t_mapping(t_uint256,t_struct(Vesting)30319_storage)": {
        "encoding": "mapping",
        "key": "t_uint256",
        "label": "mapping(uint256 => struct VestingRegistryStorage.Vesting)",
        "numberOfBytes": "32",
        "value": "t_struct(Vesting)30319_storage"
      },
      "t_struct(Vesting)30319_storage": {
        "encoding": "inplace",
        "label": "struct VestingRegistryStorage.Vesting",
        "members": [
          {
            "astId": 30314,
            "contract": "contracts/governance/Vesting/VestingRegistryLogic.sol:VestingRegistryLogic",
            "label": "vestingType",
            "offset": 0,
            "slot": "0",
            "type": "t_uint256"
          },
          {
            "astId": 30316,
            "contract": "contracts/governance/Vesting/VestingRegistryLogic.sol:VestingRegistryLogic",
            "label": "vestingCreationType",
            "offset": 0,
            "slot": "1",
            "type": "t_uint256"
          },
          {
            "astId": 30318,
            "contract": "contracts/governance/Vesting/VestingRegistryLogic.sol:VestingRegistryLogic",
            "label": "vestingAddress",
            "offset": 0,
            "slot": "2",
            "type": "t_address"
          }
        ],
        "numberOfBytes": "96"
      },
      "t_struct(VestingCreationAndTypeDetails)30339_storage": {
        "encoding": "inplace",
        "label": "struct VestingRegistryStorage.VestingCreationAndTypeDetails",
        "members": [
          {
            "astId": 30334,
            "contract": "contracts/governance/Vesting/VestingRegistryLogic.sol:VestingRegistryLogic",
            "label": "isSet",
            "offset": 0,
            "slot": "0",
            "type": "t_bool"
          },
          {
            "astId": 30336,
            "contract": "contracts/governance/Vesting/VestingRegistryLogic.sol:VestingRegistryLogic",
            "label": "vestingType",
            "offset": 1,
            "slot": "0",
            "type": "t_uint32"
          },
          {
            "astId": 30338,
            "contract": "contracts/governance/Vesting/VestingRegistryLogic.sol:VestingRegistryLogic",
            "label": "vestingCreationType",
            "offset": 5,
            "slot": "0",
            "type": "t_uint128"
          }
        ],
        "numberOfBytes": "32"
      },
      "t_uint128": {
        "encoding": "inplace",
        "label": "uint128",
        "numberOfBytes": "16"
      },
      "t_uint256": {
        "encoding": "inplace",
        "label": "uint256",
        "numberOfBytes": "32"
      },
      "t_uint32": {
        "encoding": "inplace",
        "label": "uint32",
        "numberOfBytes": "4"
      }
    }
  }
}