{
  "abi": [
    {
      "inputs": [],
      "payable": false,
      "stateMutability": "nonpayable",
      "type": "constructor"
    },
    {
      "anonymous": false,
      "inputs": [
        {
          "indexed": true,
          "internalType": "address",
          "name": "receiver",
          "type": "address"
        },
        {
          "indexed": true,
          "internalType": "address",
          "name": "token",
          "type": "address"
        },
        {
          "indexed": true,
          "internalType": "bytes32",
          "name": "loanId",
          "type": "bytes32"
        },
        {
          "indexed": false,
          "internalType": "uint256",
          "name": "feeRebatePercent",
          "type": "uint256"
        },
        {
          "indexed": false,
          "internalType": "uint256",
          "name": "amount",
          "type": "uint256"
        },
        {
          "indexed": false,
          "internalType": "uint256",
          "name": "basisPoint",
          "type": "uint256"
        }
      ],
      "name": "EarnReward",
      "type": "event"
    },
    {
      "anonymous": false,
      "inputs": [
        {
          "indexed": true,
          "internalType": "address",
          "name": "receiver",
          "type": "address"
        },
        {
          "indexed": true,
          "internalType": "address",
          "name": "token",
          "type": "address"
        },
        {
          "indexed": true,
          "internalType": "bytes32",
          "name": "loanId",
          "type": "bytes32"
        },
        {
          "indexed": false,
          "internalType": "uint256",
          "name": "feeRebatePercent",
          "type": "uint256"
        },
        {
          "indexed": false,
          "internalType": "uint256",
          "name": "amount",
          "type": "uint256"
        },
        {
          "indexed": false,
          "internalType": "uint256",
          "name": "basisPoint",
          "type": "uint256"
        }
      ],
      "name": "EarnRewardFail",
      "type": "event"
    },
    {
      "anonymous": false,
      "inputs": [
        {
          "indexed": true,
          "internalType": "address",
          "name": "user",
          "type": "address"
        },
        {
          "indexed": true,
          "internalType": "address",
          "name": "sourceToken",
          "type": "address"
        },
        {
          "indexed": true,
          "internalType": "address",
          "name": "destToken",
          "type": "address"
        },
        {
          "indexed": false,
          "internalType": "uint256",
          "name": "sourceAmount",
          "type": "uint256"
        },
        {
          "indexed": false,
          "internalType": "uint256",
          "name": "destAmount",
          "type": "uint256"
        }
      ],
      "name": "ExternalSwap",
      "type": "event"
    },
    {
      "anonymous": false,
      "inputs": [
        {
          "indexed": true,
          "internalType": "bytes32",
          "name": "loanId",
          "type": "bytes32"
        },
        {
          "indexed": true,
          "internalType": "address",
          "name": "sourceToken",
          "type": "address"
        },
        {
          "indexed": true,
          "internalType": "address",
          "name": "destToken",
          "type": "address"
        },
        {
          "indexed": false,
          "internalType": "address",
          "name": "borrower",
          "type": "address"
        },
        {
          "indexed": false,
          "internalType": "uint256",
          "name": "sourceAmount",
          "type": "uint256"
        },
        {
          "indexed": false,
          "internalType": "uint256",
          "name": "destAmount",
          "type": "uint256"
        }
      ],
      "name": "LoanSwap",
      "type": "event"
    },
    {
      "anonymous": false,
      "inputs": [
        {
          "indexed": true,
          "internalType": "address",
          "name": "previousOwner",
          "type": "address"
        },
        {
          "indexed": true,
          "internalType": "address",
          "name": "newOwner",
          "type": "address"
        }
      ],
      "name": "OwnershipTransferred",
      "type": "event"
    },
    {
      "anonymous": false,
      "inputs": [
        {
          "indexed": true,
          "internalType": "address",
          "name": "payer",
          "type": "address"
        },
        {
          "indexed": true,
          "internalType": "address",
          "name": "token",
          "type": "address"
        },
        {
          "indexed": true,
          "internalType": "bytes32",
          "name": "loanId",
          "type": "bytes32"
        },
        {
          "indexed": false,
          "internalType": "uint256",
          "name": "amount",
          "type": "uint256"
        }
      ],
      "name": "PayBorrowingFee",
      "type": "event"
    },
    {
      "anonymous": false,
      "inputs": [
        {
          "indexed": true,
          "internalType": "address",
          "name": "payer",
          "type": "address"
        },
        {
          "indexed": true,
          "internalType": "address",
          "name": "token",
          "type": "address"
        },
        {
          "indexed": false,
          "internalType": "uint256",
          "name": "amount",
          "type": "uint256"
        }
      ],
      "name": "PayLendingFee",
      "type": "event"
    },
    {
      "anonymous": false,
      "inputs": [
        {
          "indexed": true,
          "internalType": "address",
          "name": "payer",
          "type": "address"
        },
        {
          "indexed": true,
          "internalType": "address",
          "name": "token",
          "type": "address"
        },
        {
          "indexed": true,
          "internalType": "bytes32",
          "name": "loanId",
          "type": "bytes32"
        },
        {
          "indexed": false,
          "internalType": "uint256",
          "name": "amount",
          "type": "uint256"
        }
      ],
      "name": "PayTradingFee",
      "type": "event"
    },
    {
      "anonymous": false,
      "inputs": [
        {
          "indexed": true,
          "internalType": "address",
          "name": "prevModuleContractAddress",
          "type": "address"
        },
        {
          "indexed": true,
          "internalType": "address",
          "name": "newModuleContractAddress",
          "type": "address"
        },
        {
          "indexed": true,
          "internalType": "bytes32",
          "name": "module",
          "type": "bytes32"
        }
      ],
      "name": "ProtocolModuleContractReplaced",
      "type": "event"
    },
    {
      "anonymous": false,
      "inputs": [
        {
          "indexed": true,
          "internalType": "address",
          "name": "asset",
          "type": "address"
        },
        {
          "indexed": true,
          "internalType": "address",
          "name": "from",
          "type": "address"
        },
        {
          "indexed": false,
          "internalType": "uint256",
          "name": "amount",
          "type": "uint256"
        }
      ],
      "name": "VaultDeposit",
      "type": "event"
    },
    {
      "anonymous": false,
      "inputs": [
        {
          "indexed": true,
          "internalType": "address",
          "name": "asset",
          "type": "address"
        },
        {
          "indexed": true,
          "internalType": "address",
          "name": "to",
          "type": "address"
        },
        {
          "indexed": false,
          "internalType": "uint256",
          "name": "amount",
          "type": "uint256"
        }
      ],
      "name": "VaultWithdraw",
      "type": "event"
    },
    {
      "payable": false,
      "stateMutability": "nonpayable",
      "type": "fallback"
    },
    {
      "constant": true,
      "inputs": [],
      "name": "admin",
      "outputs": [
        {
          "internalType": "address",
          "name": "",
          "type": "address"
        }
      ],
      "payable": false,
      "stateMutability": "view",
      "type": "function"
    },
    {
      "constant": true,
      "inputs": [],
      "name": "affiliateFeePercent",
      "outputs": [
        {
          "internalType": "uint256",
          "name": "",
          "type": "uint256"
        }
      ],
      "payable": false,
      "stateMutability": "view",
      "type": "function"
    },
    {
      "constant": true,
      "inputs": [
        {
          "internalType": "address",
          "name": "",
          "type": "address"
        }
      ],
      "name": "affiliateRewardsHeld",
      "outputs": [
        {
          "internalType": "uint256",
          "name": "",
          "type": "uint256"
        }
      ],
      "payable": false,
      "stateMutability": "view",
      "type": "function"
    },
    {
      "constant": true,
      "inputs": [],
      "name": "affiliateTradingTokenFeePercent",
      "outputs": [
        {
          "internalType": "uint256",
          "name": "",
          "type": "uint256"
        }
      ],
      "payable": false,
      "stateMutability": "view",
      "type": "function"
    },
    {
      "constant": true,
      "inputs": [
        {
          "internalType": "address",
          "name": "",
          "type": "address"
        },
        {
          "internalType": "address",
          "name": "",
          "type": "address"
        }
      ],
      "name": "affiliatesReferrerBalances",
      "outputs": [
        {
          "internalType": "uint256",
          "name": "",
          "type": "uint256"
        }
      ],
      "payable": false,
      "stateMutability": "view",
      "type": "function"
    },
    {
      "constant": true,
      "inputs": [
        {
          "internalType": "address",
          "name": "",
          "type": "address"
        }
      ],
      "name": "affiliatesUserReferrer",
      "outputs": [
        {
          "internalType": "address",
          "name": "",
          "type": "address"
        }
      ],
      "payable": false,
      "stateMutability": "view",
      "type": "function"
    },
    {
      "constant": true,
      "inputs": [
        {
          "internalType": "address",
          "name": "",
          "type": "address"
        }
      ],
      "name": "borrowerNonce",
      "outputs": [
        {
          "internalType": "uint256",
          "name": "",
          "type": "uint256"
        }
      ],
      "payable": false,
      "stateMutability": "view",
      "type": "function"
    },
    {
      "constant": true,
      "inputs": [
        {
          "internalType": "address",
          "name": "",
          "type": "address"
        },
        {
          "internalType": "bytes32",
          "name": "",
          "type": "bytes32"
        }
      ],
      "name": "borrowerOrders",
      "outputs": [
        {
          "internalType": "uint256",
          "name": "lockedAmount",
          "type": "uint256"
        },
        {
          "internalType": "uint256",
          "name": "interestRate",
          "type": "uint256"
        },
        {
          "internalType": "uint256",
          "name": "minLoanTerm",
          "type": "uint256"
        },
        {
          "internalType": "uint256",
          "name": "maxLoanTerm",
          "type": "uint256"
        },
        {
          "internalType": "uint256",
          "name": "createdTimestamp",
          "type": "uint256"
        },
        {
          "internalType": "uint256",
          "name": "expirationTimestamp",
          "type": "uint256"
        }
      ],
      "payable": false,
      "stateMutability": "view",
      "type": "function"
    },
    {
      "constant": true,
      "inputs": [],
      "name": "borrowingFeePercent",
      "outputs": [
        {
          "internalType": "uint256",
          "name": "",
          "type": "uint256"
        }
      ],
      "payable": false,
      "stateMutability": "view",
      "type": "function"
    },
    {
      "constant": true,
      "inputs": [
        {
          "internalType": "address",
          "name": "",
          "type": "address"
        }
      ],
      "name": "borrowingFeeTokensHeld",
      "outputs": [
        {
          "internalType": "uint256",
          "name": "",
          "type": "uint256"
        }
      ],
      "payable": false,
      "stateMutability": "view",
      "type": "function"
    },
    {
      "constant": true,
      "inputs": [
        {
          "internalType": "address",
          "name": "",
          "type": "address"
        }
      ],
      "name": "borrowingFeeTokensPaid",
      "outputs": [
        {
          "internalType": "uint256",
          "name": "",
          "type": "uint256"
        }
      ],
      "payable": false,
      "stateMutability": "view",
      "type": "function"
    },
    {
      "constant": true,
      "inputs": [
        {
          "internalType": "address",
          "name": "sourceToken",
          "type": "address"
        },
        {
          "internalType": "address",
          "name": "destToken",
          "type": "address"
        },
        {
          "internalType": "uint256",
          "name": "sourceTokenAmount",
          "type": "uint256"
        },
        {
          "internalType": "uint256",
          "name": "minReturn",
          "type": "uint256"
        }
      ],
      "name": "checkPriceDivergence",
      "outputs": [],
      "payable": false,
      "stateMutability": "view",
      "type": "function"
    },
    {
      "constant": true,
      "inputs": [
        {
          "internalType": "bytes32",
          "name": "",
          "type": "bytes32"
        },
        {
          "internalType": "address",
          "name": "",
          "type": "address"
        }
      ],
      "name": "delegatedManagers",
      "outputs": [
        {
          "internalType": "bool",
          "name": "",
          "type": "bool"
        }
      ],
      "payable": false,
      "stateMutability": "view",
      "type": "function"
    },
    {
      "constant": true,
      "inputs": [],
      "name": "feeRebatePercent",
      "outputs": [
        {
          "internalType": "uint256",
          "name": "",
          "type": "uint256"
        }
      ],
      "payable": false,
      "stateMutability": "view",
      "type": "function"
    },
    {
      "constant": true,
      "inputs": [],
      "name": "feesController",
      "outputs": [
        {
          "internalType": "address",
          "name": "",
          "type": "address"
        }
      ],
      "payable": false,
      "stateMutability": "view",
      "type": "function"
    },
    {
      "constant": true,
      "inputs": [
        {
          "internalType": "address",
          "name": "sourceToken",
          "type": "address"
        },
        {
          "internalType": "address",
          "name": "destToken",
          "type": "address"
        },
        {
          "internalType": "uint256",
          "name": "sourceTokenAmount",
          "type": "uint256"
        }
      ],
      "name": "getSwapExpectedReturn",
      "outputs": [
        {
          "internalType": "uint256",
          "name": "",
          "type": "uint256"
        }
      ],
      "payable": false,
      "stateMutability": "view",
      "type": "function"
    },
    {
      "constant": false,
      "inputs": [
        {
          "internalType": "address",
          "name": "target",
          "type": "address"
        }
      ],
      "name": "initialize",
      "outputs": [],
      "payable": false,
      "stateMutability": "nonpayable",
      "type": "function"
    },
    {
      "constant": true,
      "inputs": [],
      "name": "isOwner",
      "outputs": [
        {
          "internalType": "bool",
          "name": "",
          "type": "bool"
        }
      ],
      "payable": false,
      "stateMutability": "view",
      "type": "function"
    },
    {
      "constant": true,
      "inputs": [
        {
          "internalType": "address",
          "name": "",
          "type": "address"
        },
        {
          "internalType": "address",
          "name": "",
          "type": "address"
        }
      ],
      "name": "lenderInterest",
      "outputs": [
        {
          "internalType": "uint256",
          "name": "principalTotal",
          "type": "uint256"
        },
        {
          "internalType": "uint256",
          "name": "owedPerDay",
          "type": "uint256"
        },
        {
          "internalType": "uint256",
          "name": "owedTotal",
          "type": "uint256"
        },
        {
          "internalType": "uint256",
          "name": "paidTotal",
          "type": "uint256"
        },
        {
          "internalType": "uint256",
          "name": "updatedTimestamp",
          "type": "uint256"
        }
      ],
      "payable": false,
      "stateMutability": "view",
      "type": "function"
    },
    {
      "constant": true,
      "inputs": [
        {
          "internalType": "address",
          "name": "",
          "type": "address"
        },
        {
          "internalType": "bytes32",
          "name": "",
          "type": "bytes32"
        }
      ],
      "name": "lenderOrders",
      "outputs": [
        {
          "internalType": "uint256",
          "name": "lockedAmount",
          "type": "uint256"
        },
        {
          "internalType": "uint256",
          "name": "interestRate",
          "type": "uint256"
        },
        {
          "internalType": "uint256",
          "name": "minLoanTerm",
          "type": "uint256"
        },
        {
          "internalType": "uint256",
          "name": "maxLoanTerm",
          "type": "uint256"
        },
        {
          "internalType": "uint256",
          "name": "createdTimestamp",
          "type": "uint256"
        },
        {
          "internalType": "uint256",
          "name": "expirationTimestamp",
          "type": "uint256"
        }
      ],
      "payable": false,
      "stateMutability": "view",
      "type": "function"
    },
    {
      "constant": true,
      "inputs": [],
      "name": "lendingFeePercent",
      "outputs": [
        {
          "internalType": "uint256",
          "name": "",
          "type": "uint256"
        }
      ],
      "payable": false,
      "stateMutability": "view",
      "type": "function"
    },
    {
      "constant": true,
      "inputs": [
        {
          "internalType": "address",
          "name": "",
          "type": "address"
        }
      ],
      "name": "lendingFeeTokensHeld",
      "outputs": [
        {
          "internalType": "uint256",
          "name": "",
          "type": "uint256"
        }
      ],
      "payable": false,
      "stateMutability": "view",
      "type": "function"
    },
    {
      "constant": true,
      "inputs": [
        {
          "internalType": "address",
          "name": "",
          "type": "address"
        }
      ],
      "name": "lendingFeeTokensPaid",
      "outputs": [
        {
          "internalType": "uint256",
          "name": "",
          "type": "uint256"
        }
      ],
      "payable": false,
      "stateMutability": "view",
      "type": "function"
    },
    {
      "constant": true,
      "inputs": [],
      "name": "liquidationIncentivePercent",
      "outputs": [
        {
          "internalType": "uint256",
          "name": "",
          "type": "uint256"
        }
      ],
      "payable": false,
      "stateMutability": "view",
      "type": "function"
    },
    {
      "constant": true,
      "inputs": [
        {
          "internalType": "bytes32",
          "name": "",
          "type": "bytes32"
        }
      ],
      "name": "loanInterest",
      "outputs": [
        {
          "internalType": "uint256",
          "name": "owedPerDay",
          "type": "uint256"
        },
        {
          "internalType": "uint256",
          "name": "depositTotal",
          "type": "uint256"
        },
        {
          "internalType": "uint256",
          "name": "updatedTimestamp",
          "type": "uint256"
        }
      ],
      "payable": false,
      "stateMutability": "view",
      "type": "function"
    },
    {
      "constant": true,
      "inputs": [
        {
          "internalType": "bytes32",
          "name": "",
          "type": "bytes32"
        }
      ],
      "name": "loanParams",
      "outputs": [
        {
          "internalType": "bytes32",
          "name": "id",
          "type": "bytes32"
        },
        {
          "internalType": "bool",
          "name": "active",
          "type": "bool"
        },
        {
          "internalType": "address",
          "name": "owner",
          "type": "address"
        },
        {
          "internalType": "address",
          "name": "loanToken",
          "type": "address"
        },
        {
          "internalType": "address",
          "name": "collateralToken",
          "type": "address"
        },
        {
          "internalType": "uint256",
          "name": "minInitialMargin",
          "type": "uint256"
        },
        {
          "internalType": "uint256",
          "name": "maintenanceMargin",
          "type": "uint256"
        },
        {
          "internalType": "uint256",
          "name": "maxLoanTerm",
          "type": "uint256"
        }
      ],
      "payable": false,
      "stateMutability": "view",
      "type": "function"
    },
    {
      "constant": true,
      "inputs": [
        {
          "internalType": "address",
          "name": "",
          "type": "address"
        }
      ],
      "name": "loanPoolToUnderlying",
      "outputs": [
        {
          "internalType": "address",
          "name": "",
          "type": "address"
        }
      ],
      "payable": false,
      "stateMutability": "view",
      "type": "function"
    },
    {
      "constant": true,
      "inputs": [
        {
          "internalType": "bytes32",
          "name": "",
          "type": "bytes32"
        }
      ],
      "name": "loans",
      "outputs": [
        {
          "internalType": "bytes32",
          "name": "id",
          "type": "bytes32"
        },
        {
          "internalType": "bytes32",
          "name": "loanParamsId",
          "type": "bytes32"
        },
        {
          "internalType": "bytes32",
          "name": "pendingTradesId",
          "type": "bytes32"
        },
        {
          "internalType": "bool",
          "name": "active",
          "type": "bool"
        },
        {
          "internalType": "uint256",
          "name": "principal",
          "type": "uint256"
        },
        {
          "internalType": "uint256",
          "name": "collateral",
          "type": "uint256"
        },
        {
          "internalType": "uint256",
          "name": "startTimestamp",
          "type": "uint256"
        },
        {
          "internalType": "uint256",
          "name": "endTimestamp",
          "type": "uint256"
        },
        {
          "internalType": "uint256",
          "name": "startMargin",
          "type": "uint256"
        },
        {
          "internalType": "uint256",
          "name": "startRate",
          "type": "uint256"
        },
        {
          "internalType": "address",
          "name": "borrower",
          "type": "address"
        },
        {
          "internalType": "address",
          "name": "lender",
          "type": "address"
        }
      ],
      "payable": false,
      "stateMutability": "view",
      "type": "function"
    },
    {
      "constant": true,
      "inputs": [],
      "name": "lockedSOVAddress",
      "outputs": [
        {
          "internalType": "address",
          "name": "",
          "type": "address"
        }
      ],
      "payable": false,
      "stateMutability": "view",
      "type": "function"
    },
    {
      "constant": true,
      "inputs": [
        {
          "internalType": "bytes4",
          "name": "",
          "type": "bytes4"
        }
      ],
      "name": "logicTargets",
      "outputs": [
        {
          "internalType": "address",
          "name": "",
          "type": "address"
        }
      ],
      "payable": false,
      "stateMutability": "view",
      "type": "function"
    },
    {
      "constant": true,
      "inputs": [],
      "name": "maxDisagreement",
      "outputs": [
        {
          "internalType": "uint256",
          "name": "",
          "type": "uint256"
        }
      ],
      "payable": false,
      "stateMutability": "view",
      "type": "function"
    },
    {
      "constant": true,
      "inputs": [],
      "name": "maxSwapSize",
      "outputs": [
        {
          "internalType": "uint256",
          "name": "",
          "type": "uint256"
        }
      ],
      "payable": false,
      "stateMutability": "view",
      "type": "function"
    },
    {
      "constant": true,
      "inputs": [],
      "name": "minReferralsToPayout",
      "outputs": [
        {
          "internalType": "uint256",
          "name": "",
          "type": "uint256"
        }
      ],
      "payable": false,
      "stateMutability": "view",
      "type": "function"
    },
    {
      "constant": true,
      "inputs": [],
      "name": "owner",
      "outputs": [
        {
          "internalType": "address",
          "name": "",
          "type": "address"
        }
      ],
      "payable": false,
      "stateMutability": "view",
      "type": "function"
    },
    {
      "constant": true,
      "inputs": [],
      "name": "pause",
      "outputs": [
        {
          "internalType": "bool",
          "name": "",
          "type": "bool"
        }
      ],
      "payable": false,
      "stateMutability": "view",
      "type": "function"
    },
    {
      "constant": true,
      "inputs": [],
      "name": "priceFeeds",
      "outputs": [
        {
          "internalType": "address",
          "name": "",
          "type": "address"
        }
      ],
      "payable": false,
      "stateMutability": "view",
      "type": "function"
    },
    {
      "constant": true,
      "inputs": [],
      "name": "protocolAddress",
      "outputs": [
        {
          "internalType": "address",
          "name": "",
          "type": "address"
        }
      ],
      "payable": false,
      "stateMutability": "view",
      "type": "function"
    },
    {
      "constant": true,
      "inputs": [],
      "name": "protocolTokenAddress",
      "outputs": [
        {
          "internalType": "address",
          "name": "",
          "type": "address"
        }
      ],
      "payable": false,
      "stateMutability": "view",
      "type": "function"
    },
    {
      "constant": true,
      "inputs": [],
      "name": "protocolTokenHeld",
      "outputs": [
        {
          "internalType": "uint256",
          "name": "",
          "type": "uint256"
        }
      ],
      "payable": false,
      "stateMutability": "view",
      "type": "function"
    },
    {
      "constant": true,
      "inputs": [],
      "name": "protocolTokenPaid",
      "outputs": [
        {
          "internalType": "uint256",
          "name": "",
          "type": "uint256"
        }
      ],
      "payable": false,
      "stateMutability": "view",
      "type": "function"
    },
    {
      "constant": true,
      "inputs": [],
      "name": "rolloverBaseReward",
      "outputs": [
        {
          "internalType": "uint256",
          "name": "",
          "type": "uint256"
        }
      ],
      "payable": false,
      "stateMutability": "view",
      "type": "function"
    },
    {
      "constant": true,
      "inputs": [],
      "name": "rolloverFlexFeePercent",
      "outputs": [
        {
          "internalType": "uint256",
          "name": "",
          "type": "uint256"
        }
      ],
      "payable": false,
      "stateMutability": "view",
      "type": "function"
    },
    {
      "constant": true,
      "inputs": [],
      "name": "sourceBuffer",
      "outputs": [
        {
          "internalType": "uint256",
          "name": "",
          "type": "uint256"
        }
      ],
      "payable": false,
      "stateMutability": "view",
      "type": "function"
    },
    {
      "constant": true,
      "inputs": [],
      "name": "sovTokenAddress",
      "outputs": [
        {
          "internalType": "address",
          "name": "",
          "type": "address"
        }
      ],
      "payable": false,
      "stateMutability": "view",
      "type": "function"
    },
    {
      "constant": true,
      "inputs": [],
      "name": "sovrynSwapContractRegistryAddress",
      "outputs": [
        {
          "internalType": "address",
          "name": "",
          "type": "address"
        }
      ],
      "payable": false,
      "stateMutability": "view",
      "type": "function"
    },
    {
      "constant": true,
      "inputs": [
        {
          "internalType": "address",
          "name": "",
          "type": "address"
        },
        {
          "internalType": "address",
          "name": "",
          "type": "address"
        }
      ],
      "name": "specialRebates",
      "outputs": [
        {
          "internalType": "uint256",
          "name": "",
          "type": "uint256"
        }
      ],
      "payable": false,
      "stateMutability": "view",
      "type": "function"
    },
    {
      "constant": true,
      "inputs": [
        {
          "internalType": "address",
          "name": "",
          "type": "address"
        }
      ],
      "name": "supportedTokens",
      "outputs": [
        {
          "internalType": "bool",
          "name": "",
          "type": "bool"
        }
      ],
      "payable": false,
      "stateMutability": "view",
      "type": "function"
    },
    {
      "constant": false,
      "inputs": [
        {
          "internalType": "address",
          "name": "sourceToken",
          "type": "address"
        },
        {
          "internalType": "address",
          "name": "destToken",
          "type": "address"
        },
        {
          "internalType": "address",
          "name": "receiver",
          "type": "address"
        },
        {
          "internalType": "address",
          "name": "returnToSender",
          "type": "address"
        },
        {
          "internalType": "uint256",
          "name": "sourceTokenAmount",
          "type": "uint256"
        },
        {
          "internalType": "uint256",
          "name": "requiredDestTokenAmount",
          "type": "uint256"
        },
        {
          "internalType": "uint256",
          "name": "minReturn",
          "type": "uint256"
        },
        {
          "internalType": "bytes",
          "name": "swapData",
          "type": "bytes"
        }
      ],
      "name": "swapExternal",
      "outputs": [
        {
          "internalType": "uint256",
          "name": "destTokenAmountReceived",
          "type": "uint256"
        },
        {
          "internalType": "uint256",
          "name": "sourceTokenAmountUsed",
          "type": "uint256"
        }
      ],
      "payable": true,
      "stateMutability": "payable",
      "type": "function"
    },
    {
      "constant": true,
      "inputs": [],
      "name": "swapsImpl",
      "outputs": [
        {
          "internalType": "address",
          "name": "",
          "type": "address"
        }
      ],
      "payable": false,
      "stateMutability": "view",
      "type": "function"
    },
    {
      "constant": true,
      "inputs": [],
      "name": "tradingFeePercent",
      "outputs": [
        {
          "internalType": "uint256",
          "name": "",
          "type": "uint256"
        }
      ],
      "payable": false,
      "stateMutability": "view",
      "type": "function"
    },
    {
      "constant": true,
      "inputs": [
        {
          "internalType": "address",
          "name": "",
          "type": "address"
        }
      ],
      "name": "tradingFeeTokensHeld",
      "outputs": [
        {
          "internalType": "uint256",
          "name": "",
          "type": "uint256"
        }
      ],
      "payable": false,
      "stateMutability": "view",
      "type": "function"
    },
    {
      "constant": true,
      "inputs": [
        {
          "internalType": "address",
          "name": "",
          "type": "address"
        }
      ],
      "name": "tradingFeeTokensPaid",
      "outputs": [
        {
          "internalType": "uint256",
          "name": "",
          "type": "uint256"
        }
      ],
      "payable": false,
      "stateMutability": "view",
      "type": "function"
    },
    {
      "constant": false,
      "inputs": [
        {
          "internalType": "address",
          "name": "newOwner",
          "type": "address"
        }
      ],
      "name": "transferOwnership",
      "outputs": [],
      "payable": false,
      "stateMutability": "nonpayable",
      "type": "function"
    },
    {
      "constant": true,
      "inputs": [
        {
          "internalType": "address",
          "name": "",
          "type": "address"
        }
      ],
      "name": "underlyingToLoanPool",
      "outputs": [
        {
          "internalType": "address",
          "name": "",
          "type": "address"
        }
      ],
      "payable": false,
      "stateMutability": "view",
      "type": "function"
    },
    {
      "constant": true,
      "inputs": [
        {
          "internalType": "address",
          "name": "",
          "type": "address"
        }
      ],
      "name": "userNotFirstTradeFlag",
      "outputs": [
        {
          "internalType": "bool",
          "name": "",
          "type": "bool"
        }
      ],
      "payable": false,
      "stateMutability": "view",
      "type": "function"
    },
    {
      "constant": true,
      "inputs": [],
      "name": "wrbtcToken",
      "outputs": [
        {
          "internalType": "contract IWrbtcERC20",
          "name": "",
          "type": "address"
        }
      ],
      "payable": false,
      "stateMutability": "view",
      "type": "function"
    }
  ],
  "bytecode": {
    "object": "0x60806040526001600055678ac7230489e80000601555670214e8348c4f000060185567013fbe85edc90000601b55674563918244f40000602055674563918244f40000602155674563918244f400006027556127106028556802b5e3af16b1880000602955650f478e084000602b5567016345785d8a0000602c556802b5e3af16b1880000602f5560036035556801158e460913d000006039553480156100a557600080fd5b5060006100b96001600160e01b0361010c16565b600180546001600160a01b0319166001600160a01b038316908117909155604051919250906000907f8be0079c531659141344cd1fd0a4f28419497f9722a3daafe3b4186f6b6457e0908290a350610110565b3390565b61310c80620001206000396000f3fe60806040526004361061036b5760003560e01c80638f32d59b116101c6578063cb6eacd1116100f7578063edab119f11610095578063f589a3e71161006f578063f589a3e7146109af578063f6ddc8b3146109c4578063f706b1f2146109d9578063f851a440146109ee5761036b565b8063edab119f14610965578063f0e085f51461097a578063f2fde38b1461098f5761036b565b8063d473c2da116100d1578063d473c2da146108fa578063d485045e1461090f578063e321b5401461092f578063e8f62764146109505761036b565b8063cb6eacd114610891578063cd5d808d146108c5578063d288208c146108e55761036b565b8063b30643d911610164578063ba4861e91161013e578063ba4861e914610804578063bdee453c14610819578063c4a9081514610839578063c4d66de8146108715761036b565b8063b30643d9146107af578063b7e15241146107cf578063b9cffa3e146107ef5761036b565b8063acc04348116101a0578063acc0434814610741578063ae0a853014610756578063afe840091461076b578063b17da56e1461078d5761036b565b80638f32d59b146106f757806392d894f81461070c578063959083d31461072c5761036b565b80634f28cac2116102a05780637420ca3e1161023e5780637a8faeb8116102185780637a8faeb8146106985780638456cb59146106ad5780638da5cb5b146106c25780638dc48ba5146106d75761036b565b80637420ca3e14610659578063742e67981461066e57806378d849ed146106835761036b565b806362fff3f61161027a57806362fff3f6146105c857806368c4ac26146105f957806369455ddc146106195780636e663730146106395761036b565b80634f28cac21461056f578063569fc1fb14610584578063574442cc146105b35761036b565b80632f4707641161030d5780633fca506e116102e75780633fca506e146104fa5780634115a2b61461051a5780634203e3951461053a5780634699f8461461055a5761036b565b80632f470764146104a55780633432423c146104ba5780633452d2d4146104da5761036b565b80631b7bde74116103495780631b7bde7414610416578063218b39c61461044357806324cc5749146104635780632a324027146104905761036b565b8063065d810f146103995780630676c1b7146103d457806317548b79146103f6575b34801561037757600080fd5b5060405162461bcd60e51b815260040161039090612e46565b60405180910390fd5b3480156103a557600080fd5b506103b96103b4366004612448565b610a03565b6040516103cb96959493929190612f3c565b60405180910390f35b3480156103e057600080fd5b506103e9610a43565b6040516103cb9190612abb565b34801561040257600080fd5b506103e96104113660046124d3565b610a52565b34801561042257600080fd5b50610436610431366004612298565b610a6d565b6040516103cb9190612ec6565b34801561044f57600080fd5b506103e961045e36600461227a565b610a8a565b34801561046f57600080fd5b5061048361047e36600461227a565b610aa5565b6040516103cb9190612c1f565b34801561049c57600080fd5b50610436610aba565b3480156104b157600080fd5b50610436610ac0565b3480156104c657600080fd5b506103b96104d5366004612448565b610ac6565b3480156104e657600080fd5b506104366104f536600461227a565b610b06565b34801561050657600080fd5b5061043661051536600461227a565b610b18565b34801561052657600080fd5b506104836105353660046124b4565b610b2a565b34801561054657600080fd5b5061043661055536600461227a565b610b4a565b34801561056657600080fd5b50610436610b5c565b34801561057b57600080fd5b50610436610b62565b34801561059057600080fd5b506105a461059f366004612496565b610b68565b6040516103cb93929190612ee2565b3480156105bf57600080fd5b50610436610b89565b3480156105d457600080fd5b506105e86105e3366004612298565b610b8f565b6040516103cb959493929190612ef0565b34801561060557600080fd5b5061048361061436600461227a565b610bc9565b34801561062557600080fd5b5061043661063436600461239a565b610bde565b34801561064557600080fd5b506103e961065436600461227a565b610bf5565b34801561066557600080fd5b506103e9610c10565b34801561067a57600080fd5b50610436610c1f565b34801561068f57600080fd5b506103e9610c25565b3480156106a457600080fd5b50610436610c34565b3480156106b957600080fd5b50610483610c3a565b3480156106ce57600080fd5b506103e9610c43565b3480156106e357600080fd5b506103e96106f236600461227a565b610c52565b34801561070357600080fd5b50610483610c6d565b34801561071857600080fd5b5061043661072736600461227a565b610c93565b34801561073857600080fd5b50610436610ca5565b34801561074d57600080fd5b50610436610cab565b34801561076257600080fd5b50610436610cb1565b34801561077757600080fd5b50610780610cb7565b6040516103cb9190612d57565b34801561079957600080fd5b506107ad6107a83660046123e7565b610cc6565b005b3480156107bb57600080fd5b506104366107ca36600461227a565b610cfc565b3480156107db57600080fd5b506104366107ea36600461227a565b610d0e565b3480156107fb57600080fd5b506103e9610d20565b34801561081057600080fd5b506103e9610d2f565b34801561082557600080fd5b5061043661083436600461227a565b610d3e565b34801561084557600080fd5b50610859610854366004612496565b610d50565b6040516103cb9c9b9a99989796959493929190612ca4565b34801561087d57600080fd5b506107ad61088c36600461227a565b610dc2565b34801561089d57600080fd5b506108b16108ac366004612496565b610ea5565b6040516103cb989796959493929190612c2d565b3480156108d157600080fd5b506104366108e0366004612298565b610ef7565b3480156108f157600080fd5b506103e9610f14565b34801561090657600080fd5b50610436610f23565b34801561091b57600080fd5b5061043661092a36600461227a565b610f29565b61094261093d3660046122d2565b610f3b565b6040516103cb929190612ed4565b34801561095c57600080fd5b506103e9611184565b34801561097157600080fd5b50610436611193565b34801561098657600080fd5b50610436611199565b34801561099b57600080fd5b506107ad6109aa36600461227a565b61119f565b3480156109bb57600080fd5b506104366111cf565b3480156109d057600080fd5b506104366111d5565b3480156109e557600080fd5b506103e96111db565b3480156109fa57600080fd5b506103e96111ea565b6009602090815260009283526040808420909152908252902080546001820154600283015460038401546004850154600590950154939492939192909186565b6031546001600160a01b031681565b6005602052600090815260409020546001600160a01b031681565b603b60209081526000928352604080842090915290825290205481565b6023602052600090815260409020546001600160a01b031681565b60326020526000908152604090205460ff1681565b60185481565b601f5481565b6008602090815260009283526040808420909152908252902080546001820154600283015460038401546004850154600590950154939492939192909186565b601a6020526000908152604090205481565b602a6020526000908152604090205481565b600a60209081526000928352604080842090915290825290205460ff1681565b60166020526000908152604090205481565b60155481565b60295481565b600c6020526000908152604090208054600182015460029092015490919083565b602b5481565b600b602090815260009283526040808420909152908252902080546001820154600283015460038401546004909401549293919290919085565b60266020526000908152604090205460ff1681565b6000610beb8484846111f9565b90505b9392505050565b6033602052600090815260409020546001600160a01b031681565b6003546001600160a01b031681565b60355481565b6002546001600160a01b031681565b601e5481565b603d5460ff1681565b6001546001600160a01b031690565b6022602052600090815260409020546001600160a01b031681565b6001546000906001600160a01b0316610c846112a0565b6001600160a01b031614905090565b60176020526000908152604090205481565b602c5481565b602f5481565b60205481565b602d546001600160a01b031681565b6000610cd38585856111f9565b905081811015610cf55760405162461bcd60e51b815260040161039090612df6565b5050505050565b601d6020526000908152604090205481565b601c6020526000908152604090205481565b6037546001600160a01b031681565b6004546001600160a01b031681565b60366020526000908152604090205481565b600660208190526000918252604090912080546001820154600283015460038401546004850154600586015496860154600787015460088801546009890154600a8a0154600b909a0154989a9799969860ff909616979496949593949293919290916001600160a01b0391821691168c565b610dca610c6d565b610de65760405162461bcd60e51b815260040161039090612e26565b63038c86d560e61b600081905260056020527fe705b9be7ab1128120df187531812b4c979d3ce42ed227d7df3b23e95341849e546001600160a01b031690610e2e90836112a4565b610e3f631a51577760e21b836112a4565b610e506358bed2b760e11b836112a4565b6c14ddd85c1cd15e1d195c9b985b609a1b826001600160a01b0316826001600160a01b03167f1420e3a2094d671bc2eb897941fa3d94ffa37f0cb6d530651946250a2151cb7f60405160405180910390a45050565b6007602052600090815260409020805460018201546002830154600384015460048501546005860154600690960154949560ff8516956101009095046001600160a01b03908116959481169493169288565b603c60209081526000928352604080842090915290825290205481565b6038546001600160a01b031681565b60275481565b60196020526000908152604090205481565b600080600160005414610f605760405162461bcd60e51b815260040161039090612e66565b6002600055603d5460ff1615610f885760405162461bcd60e51b815260040161039090612d76565b85610fa55760405162461bcd60e51b815260040161039090612d86565b610fb18a8a8887610cc6565b341561108e576001600160a01b038a16610fd457602d546001600160a01b031699505b602d546001600160a01b038b81169116146110015760405162461bcd60e51b815260040161039090612e06565b8534146110205760405162461bcd60e51b815260040161039090612e36565b602d60009054906101000a90046001600160a01b03166001600160a01b031663d0e30db0876040518263ffffffff1660e01b81526004016000604051808303818588803b15801561107057600080fd5b505af1158015611084573d6000803e3d6000fd5b50505050506110b0565b3033146110b0576110b06001600160a01b038b1633308963ffffffff61132016565b6040805160a0810182526001600160a01b03808d1682528b81166020808401919091528b821683850152908a166060808401919091523360808401528351908101845289815290810189905291820187905261111191600080876001611381565b8092508193505050886001600160a01b03168a6001600160a01b0316336001600160a01b03167f03d3f38d1a433bb469c160c1704d282fe2b74819ba8ec9c223e685dd2a0b05478486604051611168929190612ed4565b60405180910390a4600160005590999098509650505050505050565b6014546001600160a01b031681565b601b5481565b60285481565b6111a7610c6d565b6111c35760405162461bcd60e51b815260040161039090612e26565b6111cc816115a6565b50565b60395481565b60215481565b602e546001600160a01b031681565b6030546001600160a01b031681565b600354600480546001600160a01b0386811660009081526040602081815281832089851684529052808220905163132b65e360e21b81529195831694634cad978c94611250948b948b948b94939092169201612b97565b60206040518083038186803b15801561126857600080fd5b505afa15801561127c573d6000803e3d6000fd5b505050506040513d601f19601f82011682018060405250610beb91908101906124f1565b3390565b6001600160e01b03198216600090815260056020526040902080546001600160a01b0319166001600160a01b038316908117909155156112ff576112f9600d6001600160e01b0319841663ffffffff61162816565b5061131c565b61131a600d6001600160e01b0319841663ffffffff61167216565b505b5050565b60405161137b9085906323b872dd60e01b9061134490879087908790602401612b6f565b60408051601f198184030181529190526020810180516001600160e01b03166001600160e01b031990931692909217909152611733565b50505050565b845160009081901515806113985750602087015115155b6113b45760405162461bcd60e51b815260040161039090612e56565b60208701516113c557865160208801525b6020870151875111156113ea5760405162461bcd60e51b815260040161039090612de6565b6000806000876114a75760408a015161146657851561141b576114148a60005b6020020151611818565b905061142f565b61142c8a60005b6020020151611848565b90505b80156114615760808b01518b5161145291908b908e60015b60200201518561186c565b895161145e90826119c8565b8a525b6114a7565b851561147e576114778a600261140a565b905061148c565b6114898a6002611422565b90505b80156114a75760408a01516114a19082611a0a565b60408b01525b8651156114c65760405162461bcd60e51b815260040161039090612e76565b6114d08b8b611a2f565b60408c0151919450925061151c57895182146114fe5760405162461bcd60e51b815260040161039090612ea6565b801561151757611514828263ffffffff611a0a16565b91505b611596565b60208a01518211156115405760405162461bcd60e51b815260040161039090612dd6565b60408a01518310156115645760405162461bcd60e51b815260040161039090612d96565b80156115965760808b015160208c015161158391908b908e6000611447565b611593838263ffffffff6119c816565b92505b5090999098509650505050505050565b6001600160a01b0381166115cc5760405162461bcd60e51b815260040161039090612da6565b6001546040516001600160a01b038084169216907f8be0079c531659141344cd1fd0a4f28419497f9722a3daafe3b4186f6b6457e090600090a3600180546001600160a01b0319166001600160a01b0392909216919091179055565b60006116348383611b41565b611668575060018083018054808301808355600092835260208084209092018590558483529085905260409091205561166c565b5060005b92915050565b600061167e8383611b41565b1561166857600082815260208490526040902054600184015460001991820191018082146116f65760008560010182815481106116b757fe5b90600052602060002001549050808660010184815481106116d457fe5b6000918252602080832090910192909255918252869052604090206001830190555b6000848152602086905260408120556001850180548061171257fe5b6001900381819060005260206000200160009055905560019250505061166c565b611745826001600160a01b0316611b56565b6117615760405162461bcd60e51b815260040161039090612eb6565b60006060836001600160a01b03168360405161177d9190612aaf565b6000604051808303816000865af19150503d80600081146117ba576040519150601f19603f3d011682016040523d82523d6000602084013e6117bf565b606091505b5091509150816117e15760405162461bcd60e51b815260040161039090612dc6565b80511561137b57808060200190516117fc9190810190612478565b61137b5760405162461bcd60e51b815260040161039090612e86565b600061166c68056bc75e2d6310000061183c603e5485611b9290919063ffffffff16565b9063ffffffff611bcc16565b600061166c68056bc75e2d6310000061183c60185485611b9290919063ffffffff16565b8080156119c0576001600160a01b03868116600090815260336020526040902054161561192e576001600160a01b038087166000908152603360205260409020546118ba9116878684611c0e565b505061192b6118ed68056bc75e2d631000006118e160395485611b9290919063ffffffff16565b9063ffffffff611c9a16565b61191f61191268056bc75e2d631000006118e160205487611b9290919063ffffffff16565b849063ffffffff6119c816565b9063ffffffff6119c816565b90505b6001600160a01b038416600090815260196020526040902054611957908263ffffffff611a0a16565b6001600160a01b03808616600081815260196020526040908190209390935591518792918916907fb23479169712c443e6b00fb0cec3506a5f5926f541df4243d313e11c8c5c71ed906119ab908690612ec6565b60405180910390a46119c08686868686611cdc565b505050505050565b6000610bee83836040518060400160405280601e81526020017f536166654d6174683a207375627472616374696f6e206f766572666c6f770000815250612142565b600082820183811015610bee5760405162461bcd60e51b815260040161039090612db6565b815160208084015160408086015160608781015187519588015188850151945160009889989497630957ba1160e21b97611a76979296919592949293919291602401612ac9565b60408051601f198184030181529181526020820180516001600160e01b03166001600160e01b03199094169390931790925260035491519092506000916001600160a01b031690611ac8908490612aaf565b600060405180830381855af49150503d8060008114611b03576040519150601f19603f3d011682016040523d82523d6000602084013e611b08565b606091505b509250905080611b2a5760405162461bcd60e51b815260040161039090612e96565b602082015193506040820151925050509250929050565b60009081526020919091526040902054151590565b6000813f7fc5d2460186f7233c927e7db2dcc703c0e500b653ca82273b7bfad8045d85a470818114801590611b8a57508115155b949350505050565b600082611ba15750600061166c565b82820282848281611bae57fe5b0414610bee5760405162461bcd60e51b815260040161039090612e16565b6000610bee83836040518060400160405280601a81526020017f536166654d6174683a206469766973696f6e206279207a65726f00000000000081525061216e565b6040516306a688ff60e11b815260009081903090630d4d11fe90611c3c908990899089908990600401612b31565b6040805180830381600087803b158015611c5557600080fd5b505af1158015611c69573d6000803e3d6000fd5b505050506040513d601f19601f82011682018060405250611c8d919081019061250f565b9097909650945050505050565b6000610bee83836040518060400160405280601a81526020017f536166654d6174683a206469766973696f6e206279207a65726f0000000000008152506121b8565b602f546002546001600160a01b038581166000908152603c602090815260408083208885168452909152812054909392919091169015611d3f576001600160a01b038087166000908152603c602090815260408083209389168352929052205491505b6037546000906060906001600160a01b038085169163d138f9a160e01b918b9116611d7d68056bc75e2d631000006118e18c8b63ffffffff611b9216565b604051602401611d8f93929190612b6f565b60408051601f198184030181529181526020820180516001600160e01b03166001600160e01b0319909416939093179092529051611dcd9190612aaf565b600060405180830381855afa9150503d8060008114611e08576040519150601f19603f3d011682016040523d82523d6000602084013e611e0d565b606091505b50915091506001821415611e2357602081015194505b6000306001600160a01b031663c22552f76040518163ffffffff1660e01b815260040160206040518083038186803b158015611e5e57600080fd5b505afa158015611e72573d6000803e3d6000fd5b505050506040513d601f19601f82011682018060405250611e9691908101906124f1565b90508515801590611ea75750858110155b156120cf5760375460385460405163095ea7b360e01b81526001600160a01b039283169263095ea7b392611ee2929116908a90600401612be9565b602060405180830381600087803b158015611efc57600080fd5b505af1158015611f10573d6000803e3d6000fd5b505050506040513d601f19601f82011682018060405250611f349190810190612478565b50603854603f546040516000926001600160a01b031691611f5b918f918b91602401612c04565b60408051601f198184030181529181526020820180516001600160e01b0316630efe6a8b60e01b17905251611f909190612aaf565b6000604051808303816000865af19150503d8060008114611fcd576040519150601f19603f3d011682016040523d82523d6000602084013e611fd2565b606091505b50509050801561206157601f54611fef908863ffffffff611a0a16565b601f819055508a603760009054906101000a90046001600160a01b03166001600160a01b03168d6001600160a01b03167ff41c644671512f1cda76abfe6038e3d7d526c1377a5a8c692f81703901db2150898b603f5460405161205493929190612ee2565b60405180910390a46120c9565b8a603760009054906101000a90046001600160a01b03166001600160a01b03168d6001600160a01b03167f483f67ea49f76ac15e15bbad68b52788ca47d50aef1e4acfe95e5e307e710812898b603f546040516120c093929190612ee2565b60405180910390a45b50612135565b85158015906120dd57508581105b1561213557603754603f546040518c926001600160a01b0390811692908f16917f483f67ea49f76ac15e15bbad68b52788ca47d50aef1e4acfe95e5e307e7108129161212c918b918d91612ee2565b60405180910390a45b5050505050505050505050565b600081848411156121665760405162461bcd60e51b81526004016103909190612d65565b505050900390565b6000818361218f5760405162461bcd60e51b81526004016103909190612d65565b508361219d57506000610bee565b60008360018603816121ab57fe5b0460010195945050505050565b600081836121d95760405162461bcd60e51b81526004016103909190612d65565b5060008385816121e557fe5b0495945050505050565b803561166c8161309a565b805161166c816130ae565b803561166c816130b7565b803561166c816130c0565b600082601f83011261222c57600080fd5b813561223f61223a82612fb2565b612f8b565b9150808252602083016020830185838301111561225b57600080fd5b612266838284613039565b50505092915050565b805161166c816130b7565b60006020828403121561228c57600080fd5b6000611b8a84846121ef565b600080604083850312156122ab57600080fd5b60006122b785856121ef565b92505060206122c8858286016121ef565b9150509250929050565b600080600080600080600080610100898b0312156122ef57600080fd5b60006122fb8b8b6121ef565b985050602061230c8b828c016121ef565b975050604061231d8b828c016121ef565b965050606061232e8b828c016121ef565b955050608061233f8b828c01612205565b94505060a06123508b828c01612205565b93505060c06123618b828c01612205565b92505060e089013567ffffffffffffffff81111561237e57600080fd5b61238a8b828c0161221b565b9150509295985092959890939650565b6000806000606084860312156123af57600080fd5b60006123bb86866121ef565b93505060206123cc868287016121ef565b92505060406123dd86828701612205565b9150509250925092565b600080600080608085870312156123fd57600080fd5b600061240987876121ef565b945050602061241a878288016121ef565b935050604061242b87828801612205565b925050606061243c87828801612205565b91505092959194509250565b6000806040838503121561245b57600080fd5b600061246785856121ef565b92505060206122c885828601612205565b60006020828403121561248a57600080fd5b6000611b8a84846121fa565b6000602082840312156124a857600080fd5b6000611b8a8484612205565b600080604083850312156124c757600080fd5b60006122b78585612205565b6000602082840312156124e557600080fd5b6000611b8a8484612210565b60006020828403121561250357600080fd5b6000611b8a848461226f565b6000806040838503121561252257600080fd5b600061252e858561226f565b92505060206122c88582860161226f565b600061254b8383612603565b505060200190565b61255c8161300e565b82525050565b600061256d82612fe6565b6125778185612ff4565b935061258283612fda565b8060005b838110156125b75761259782613084565b6125a1888261253f565b97506125ac83612fee565b925050600101612586565b509495945050505050565b61255c81613019565b61255c8161301e565b60006125df82612fea565b6125e98185612ffd565b93506125f9818560208601613045565b9290920192915050565b61255c8161302e565b600061261782612fea565b6126218185612ff4565b9350612631818560208601613045565b61263a81613090565b9093019392505050565b6000612651600683612ff4565b6514185d5cd95960d21b815260200192915050565b6000612673601683612ff4565b750736f75726365546f6b656e416d6f756e74203d3d20360541b815260200192915050565b60006126a5601b83612ff4565b7f696e73756666696369656e742073776170206c69717569646974790000000000815260200192915050565b60006126de602683612ff4565b7f4f776e61626c653a206e6577206f776e657220697320746865207a65726f206181526564647265737360d01b602082015260400192915050565b6000612726601b83612ff4565b7f536166654d6174683a206164646974696f6e206f766572666c6f770000000000815260200192915050565b600061275f602083612ff4565b7f5361666545524332303a206c6f772d6c6576656c2063616c6c206661696c6564815260200192915050565b6000612798601383612ff4565b72737761702066696c6c20746f6f206c6172676560681b815260200192915050565b60006127c7601c83612ff4565b7f736f75726365416d6f756e74206c6172676572207468616e206d617800000000815260200192915050565b6000612800601f83612ff4565b7f64657374546f6b656e416d6f756e74526563656976656420746f6f206c6f7700815260200192915050565b6000612839601483612ff4565b730e6deeae4c6caa8ded6cadc40dad2e6dac2e8c6d60631b815260200192915050565b6000612869602183612ff4565b7f536166654d6174683a206d756c7469706c69636174696f6e206f766572666c6f8152607760f81b602082015260400192915050565b60006128ac600c83612ff4565b6b1d5b985d5d1a1bdc9a5e995960a21b815260200192915050565b60006128d4601a83612ff4565b7f736f75726365546f6b656e416d6f756e74206d69736d61746368000000000000815260200192915050565b600061290d601483612ff4565b7319985b1b189858dac81b9bdd08185b1b1bddd95960621b815260200192915050565b600061293d602e83612ff4565b7f6d696e206f72206d617820736f7572636520746f6b656e20616d6f756e74206e81526d1959591cc81d1bc81899481cd95d60921b602082015260400192915050565b600061298d600c83612ff4565b6b1b9bdb9499595b9d1c985b9d60a21b815260200192915050565b60006129b5600d83612ff4565b6c696e76616c696420737461746560981b815260200192915050565b60006129de602a83612ff4565b7f5361666545524332303a204552433230206f7065726174696f6e20646964206e8152691bdd081cdd58d8d9595960b21b602082015260400192915050565b6000612a2a600b83612ff4565b6a1cddd85c0819985a5b195960aa1b815260200192915050565b6000612a51601683612ff4565b751cddd85c081d1bdbc81b185c99d9481d1bc8199a5b1b60521b815260200192915050565b6000612a83601f83612ff4565b7f5361666545524332303a2063616c6c20746f206e6f6e2d636f6e747261637400815260200192915050565b6000610bee82846125d4565b6020810161166c8284612553565b60e08101612ad7828a612553565b612ae46020830189612553565b612af16040830188612553565b612afe6060830187612553565b612b0b60808301866125cb565b612b1860a08301856125cb565b612b2560c08301846125cb565b98975050505050505050565b60808101612b3f8287612553565b612b4c6020830186612553565b612b596040830185612553565b612b6660608301846125cb565b95945050505050565b60608101612b7d8286612553565b612b8a6020830185612553565b611b8a60408301846125cb565b60a08101612ba58288612553565b612bb26020830187612553565b612bbf60408301866125cb565b612bcc6060830185612553565b8181036080830152612bde8184612562565b979650505050505050565b60408101612bf78285612553565b610bee60208301846125cb565b60608101612c128286612553565b612b8a60208301856125cb565b6020810161166c82846125c2565b6101008101612c3c828b6125cb565b612c49602083018a6125c2565b612c566040830189612553565b612c636060830188612553565b612c706080830187612553565b612c7d60a08301866125cb565b612c8a60c08301856125cb565b612c9760e08301846125cb565b9998505050505050505050565b6101808101612cb3828f6125cb565b612cc0602083018e6125cb565b612ccd604083018d6125cb565b612cda606083018c6125c2565b612ce7608083018b6125cb565b612cf460a083018a6125cb565b612d0160c08301896125cb565b612d0e60e08301886125cb565b612d1c6101008301876125cb565b612d2a6101208301866125cb565b612d38610140830185612553565b612d46610160830184612553565b9d9c50505050505050505050505050565b6020810161166c8284612603565b60208082528101610bee818461260c565b6020808252810161166c81612644565b6020808252810161166c81612666565b6020808252810161166c81612698565b6020808252810161166c816126d1565b6020808252810161166c81612719565b6020808252810161166c81612752565b6020808252810161166c8161278b565b6020808252810161166c816127ba565b6020808252810161166c816127f3565b6020808252810161166c8161282c565b6020808252810161166c8161285c565b6020808252810161166c8161289f565b6020808252810161166c816128c7565b6020808252810161166c81612900565b6020808252810161166c81612930565b6020808252810161166c81612980565b6020808252810161166c816129a8565b6020808252810161166c816129d1565b6020808252810161166c81612a1d565b6020808252810161166c81612a44565b6020808252810161166c81612a76565b6020810161166c82846125cb565b60408101612bf782856125cb565b60608101612c1282866125cb565b60a08101612efe82886125cb565b612f0b60208301876125cb565b612f1860408301866125cb565b612f2560608301856125cb565b612f3260808301846125cb565b9695505050505050565b60c08101612f4a82896125cb565b612f5760208301886125cb565b612f6460408301876125cb565b612f7160608301866125cb565b612f7e60808301856125cb565b612bde60a08301846125cb565b60405181810167ffffffffffffffff81118282101715612faa57600080fd5b604052919050565b600067ffffffffffffffff821115612fc957600080fd5b506020601f91909101601f19160190565b60009081526020902090565b5490565b5190565b60010190565b90815260200190565b919050565b6001600160a01b031690565b600061166c82613002565b151590565b90565b6001600160e01b03191690565b600061166c8261300e565b82818337506000910152565b60005b83811015613060578181015183820152602001613048565b8381111561137b5750506000910152565b600061166c61307f8361301e565b613002565b600061166c8254613071565b601f01601f191690565b6130a38161300e565b81146111cc57600080fd5b6130a381613019565b6130a38161301e565b6130a38161302156fea365627a7a72315820d9c66d0f1fe62804c6346a25e28581c1946d38a13508e74e22e4f06fc510255b6c6578706572696d656e74616cf564736f6c63430005110040",
    "linkReferences": {}
  },
  "methodIdentifiers": {
    "admin()": "f851a440",
    "affiliateFeePercent()": "ae0a8530",
    "affiliateRewardsHeld(address)": "bdee453c",
    "affiliateTradingTokenFeePercent()": "f589a3e7",
    "affiliatesReferrerBalances(address,address)": "1b7bde74",
    "affiliatesUserReferrer(address)": "6e663730",
    "borrowerNonce(address)": "3fca506e",
    "borrowerOrders(address,bytes32)": "065d810f",
    "borrowingFeePercent()": "edab119f",
    "borrowingFeeTokensHeld(address)": "b7e15241",
    "borrowingFeeTokensPaid(address)": "b30643d9",
    "checkPriceDivergence(address,address,uint256,uint256)": "b17da56e",
    "delegatedManagers(bytes32,address)": "4115a2b6",
    "feeRebatePercent()": "acc04348",
    "feesController()": "e8f62764",
    "getSwapExpectedReturn(address,address,uint256)": "69455ddc",
    "initialize(address)": "c4d66de8",
    "isOwner()": "8f32d59b",
    "lenderInterest(address,address)": "62fff3f6",
    "lenderOrders(address,bytes32)": "3432423c",
    "lendingFeePercent()": "4699f846",
    "lendingFeeTokensHeld(address)": "4203e395",
    "lendingFeeTokensPaid(address)": "92d894f8",
    "liquidationIncentivePercent()": "f6ddc8b3",
    "loanInterest(bytes32)": "569fc1fb",
    "loanParams(bytes32)": "cb6eacd1",
    "loanPoolToUnderlying(address)": "8dc48ba5",
    "loans(bytes32)": "c4a90815",
    "lockedSOVAddress()": "d288208c",
    "logicTargets(bytes4)": "17548b79",
    "maxDisagreement()": "d473c2da",
    "maxSwapSize()": "4f28cac2",
    "minReferralsToPayout()": "742e6798",
    "owner()": "8da5cb5b",
    "pause()": "8456cb59",
    "priceFeeds()": "78d849ed",
    "protocolAddress()": "0676c1b7",
    "protocolTokenAddress()": "f706b1f2",
    "protocolTokenHeld()": "7a8faeb8",
    "protocolTokenPaid()": "2f470764",
    "rolloverBaseReward()": "574442cc",
    "rolloverFlexFeePercent()": "959083d3",
    "sourceBuffer()": "f0e085f5",
    "sovTokenAddress()": "b9cffa3e",
    "sovrynSwapContractRegistryAddress()": "ba4861e9",
    "specialRebates(address,address)": "cd5d808d",
    "supportedTokens(address)": "68c4ac26",
    "swapExternal(address,address,address,address,uint256,uint256,uint256,bytes)": "e321b540",
    "swapsImpl()": "7420ca3e",
    "tradingFeePercent()": "2a324027",
    "tradingFeeTokensHeld(address)": "d485045e",
    "tradingFeeTokensPaid(address)": "3452d2d4",
    "transferOwnership(address)": "f2fde38b",
    "underlyingToLoanPool(address)": "218b39c6",
    "userNotFirstTradeFlag(address)": "24cc5749",
    "wrbtcToken()": "afe84009"
  },
  "id": 173
}