{
  "abi": [
    {
      "inputs": [
        {
          "internalType": "address",
          "name": "_loanToken",
          "type": "address"
        },
        {
          "internalType": "address",
          "name": "_WRBTC",
          "type": "address"
        },
        {
          "internalType": "address",
          "name": "_SUSD",
          "type": "address"
        },
        {
          "internalType": "address",
          "name": "_sovrynProtocol",
          "type": "address"
        }
      ],
      "payable": false,
      "stateMutability": "nonpayable",
      "type": "constructor"
    },
    {
      "payable": true,
      "stateMutability": "payable",
      "type": "fallback"
    },
    {
      "constant": true,
      "inputs": [],
      "name": "SUSD",
      "outputs": [
        {
          "internalType": "address",
          "name": "",
          "type": "address"
        }
      ],
      "payable": false,
      "stateMutability": "view",
      "type": "function"
    },
    {
      "constant": true,
      "inputs": [],
      "name": "WRBTC",
      "outputs": [
        {
          "internalType": "address",
          "name": "",
          "type": "address"
        }
      ],
      "payable": false,
      "stateMutability": "view",
      "type": "function"
    },
    {
      "constant": true,
      "inputs": [],
      "name": "loanToken",
      "outputs": [
        {
          "internalType": "address",
          "name": "",
          "type": "address"
        }
      ],
      "payable": false,
      "stateMutability": "view",
      "type": "function"
    },
    {
      "constant": true,
      "inputs": [],
      "name": "sovrynProtocol",
      "outputs": [
        {
          "internalType": "contract ProtocolLike",
          "name": "",
          "type": "address"
        }
      ],
      "payable": false,
      "stateMutability": "view",
      "type": "function"
    },
    {
      "constant": false,
      "inputs": [
        {
          "internalType": "uint256",
          "name": "withdrawAmount",
          "type": "uint256"
        },
        {
          "internalType": "uint256",
          "name": "collateralTokenSent",
          "type": "uint256"
        }
      ],
      "name": "testCrossReentrancy",
      "outputs": [],
      "payable": false,
      "stateMutability": "nonpayable",
      "type": "function"
    },
    {
      "constant": false,
      "inputs": [
        {
          "internalType": "address",
          "name": "operator",
          "type": "address"
        },
        {
          "internalType": "address",
          "name": "from",
          "type": "address"
        },
        {
          "internalType": "address",
          "name": "to",
          "type": "address"
        },
        {
          "internalType": "uint256",
          "name": "",
          "type": "uint256"
        },
        {
          "internalType": "bytes",
          "name": "",
          "type": "bytes"
        },
        {
          "internalType": "bytes",
          "name": "",
          "type": "bytes"
        }
      ],
      "name": "tokensToSend",
      "outputs": [],
      "payable": false,
      "stateMutability": "nonpayable",
      "type": "function"
    }
  ],
  "bytecode": {
    "object": "0x608060405234801561001057600080fd5b50604051610eb3380380610eb38339818101604052608081101561003357600080fd5b5080516020820151604080840151606090940151600080546001600160a01b038087166001600160a01b03199283161783556001805482881690841617905560028054828a16908416179055600380549185169190921617905582517122a9219b9b9baa37b5b2b739a9b2b73232b960711b815283519081900360120181206329965a1d60e01b82523060048301819052602483019190915260448201529251949593949192731820a4b7618bde71dce8cdc73aab6c95905fad24926329965a1d9260648084019391929182900301818387803b15801561011357600080fd5b505af1158015610127573d6000803e3d6000fd5b5050604080516922a92199182a37b5b2b760b11b8152815190819003600a0181206329965a1d60e01b82523060048301819052602483019190915260448201529051731820a4b7618bde71dce8cdc73aab6c95905fad2493506329965a1d9250606480830192600092919082900301818387803b1580156101a757600080fd5b505af11580156101bb573d6000803e3d6000fd5b5050505050505050610ce1806101d26000396000f3fe6080604052600436106100555760003560e01c806306d378171461005757806315d8eeba1461008857806365e62e361461009d57806375ab9782146100b257806385e94661146101a9578063e52db75f146101d9575b005b34801561006357600080fd5b5061006c6101ee565b604080516001600160a01b039092168252519081900360200190f35b34801561009457600080fd5b5061006c6101fd565b3480156100a957600080fd5b5061006c61020c565b3480156100be57600080fd5b50610055600480360360c08110156100d557600080fd5b6001600160a01b03823581169260208101358216926040820135909216916060820135919081019060a08101608082013564010000000081111561011857600080fd5b82018360208201111561012a57600080fd5b8035906020019184600183028401116401000000008311171561014c57600080fd5b91939092909160208101903564010000000081111561016a57600080fd5b82018360208201111561017c57600080fd5b8035906020019184600183028401116401000000008311171561019e57600080fd5b50909250905061021b565b3480156101b557600080fd5b50610055600480360360408110156101cc57600080fd5b50803590602001356103f3565b3480156101e557600080fd5b5061006c610b13565b6000546001600160a01b031681565b6002546001600160a01b031681565b6003546001600160a01b031681565b6003546001600160a01b03898116911614801561024557506000546001600160a01b038781169116145b801561025957506001600160a01b03871630145b156103e957600254604080516370a0823160e01b815230600482015290516000926001600160a01b0316916370a08231916024808301926020929190829003018186803b1580156102a957600080fd5b505afa1580156102bd573d6000803e3d6000fd5b505050506040513d60208110156102d357600080fd5b5051600254600080546040805163095ea7b360e01b81526001600160a01b03928316600482015260248101869052905194955092169263095ea7b3926044808201936020939283900390910190829087803b15801561033157600080fd5b505af1158015610345573d6000803e3d6000fd5b505050506040513d602081101561035b57600080fd5b505060008054604080516340c10f1960e01b815230600482015269d3c21bcecceda1000000602482015290516001600160a01b03909216926340c10f19926044808401936020939083900390910190829087803b1580156103bb57600080fd5b505af11580156103cf573d6000803e3d6000fd5b505050506040513d60208110156103e557600080fd5b5050505b5050505050505050565b30806103fd610c63565b6040805160808101825247815260015482516370a0823160e01b8152306004820152925191926020808501936001600160a01b03909316926370a08231926024808201939291829003018186803b15801561045757600080fd5b505afa15801561046b573d6000803e3d6000fd5b505050506040513d602081101561048157600080fd5b50518152600254604080516370a0823160e01b815230600482015290516020938401936001600160a01b03909316926370a082319260248082019391829003018186803b1580156104d157600080fd5b505afa1580156104e5573d6000803e3d6000fd5b505050506040513d60208110156104fb57600080fd5b50518152600054604080516370a0823160e01b81526001600160a01b038781166004830152915160209485019492909316926370a0823192602480840193919291829003018186803b15801561055057600080fd5b505afa158015610564573d6000803e3d6000fd5b505050506040513d602081101561057a57600080fd5b5051905260015460008054604080850151815163095ea7b360e01b81526001600160a01b0393841660048201526024810191909152905194955092169263095ea7b3926044808201936020939283900390910190829087803b1580156105df57600080fd5b505af11580156105f3573d6000803e3d6000fd5b505050506040513d602081101561060957600080fd5b505060008054600154604080516317514afd60e11b815260048101859052602481018a90526127106044820152606481018990526001600160a01b03928316608482015286831660a482015287831660c482015261010060e4820152610104810185905281519290931693632ea295fa936101448082019492918390030190829087803b15801561069957600080fd5b505af11580156106ad573d6000803e3d6000fd5b505050506040513d60408110156106c357600080fd5b505060035460408051631fe5283760e11b81526001600160a01b03858116600483015291516000939290921691633fca506e91602480820192602092909190829003018186803b15801561071657600080fd5b505afa15801561072a573d6000803e3d6000fd5b505050506040513d602081101561074057600080fd5b5051600080546001546040805160609290921b6bffffffffffffffffffffffff1916602080840191909152600160f81b60348401528151808403601501815260358401808452815191830191909120631948e08d60e11b9091526039840152905194955092936001600160a01b0390921692633291c11a92605980840193829003018186803b1580156107d257600080fd5b505afa1580156107e6573d6000803e3d6000fd5b505050506040513d60208110156107fc57600080fd5b5051600080546040805160208181018690526bffffffffffffffffffffffff19606094851b811683850152938a901b9093166054820152606880820188905282518083039091018152608882018084528151918501919091206002546370a0823160e01b90925230608c840152925195965091946001600160a01b0392909216926370a082319260ac80840193829003018186803b15801561089d57600080fd5b505afa1580156108b1573d6000803e3d6000fd5b505050506040513d60208110156108c757600080fd5b50516002546003546040805163095ea7b360e01b81526001600160a01b03928316600482015260248101859052905193945091169163095ea7b3916044808201926020929091908290030181600087803b15801561092457600080fd5b505af1158015610938573d6000803e3d6000fd5b505050506040513d602081101561094e57600080fd5b50506003546001600160a01b031663366f513b833061098560646109798e601463ffffffff610b2216565b9063ffffffff610b8416565b6040518463ffffffff1660e01b815260040180848152602001836001600160a01b03166001600160a01b031681526020018281526020019350505050606060405180830381600087803b1580156109db57600080fd5b505af11580156109ef573d6000803e3d6000fd5b505050506040513d6060811015610a0557600080fd5b505060008054604080516370a0823160e01b81526001600160a01b038a81166004830152915191909216916370a08231916024808301926020929190829003018186803b158015610a5557600080fd5b505afa158015610a69573d6000803e3d6000fd5b505050506040513d6020811015610a7f57600080fd5b50516000805460408051632770a7eb60e21b81526001600160a01b038d81166004830152602482018690529151949550911692639dc29fac92604480840193602093929083900390910190829087803b158015610adb57600080fd5b505af1158015610aef573d6000803e3d6000fd5b505050506040513d6020811015610b0557600080fd5b505050505050505050505050565b6001546001600160a01b031681565b600082610b3157506000610b7e565b82820282848281610b3e57fe5b0414610b7b5760405162461bcd60e51b8152600401808060200182810382526021815260200180610c8c6021913960400191505060405180910390fd5b90505b92915050565b6000610b7b83836040518060400160405280601a81526020017f536166654d6174683a206469766973696f6e206279207a65726f00000000000081525060008183610c4d5760405162461bcd60e51b81526004018080602001828103825283818151815260200191508051906020019080838360005b83811015610c12578181015183820152602001610bfa565b50505050905090810190601f168015610c3f5780820380516001836020036101000a031916815260200191505b509250505060405180910390fd5b506000838581610c5957fe5b0495945050505050565b604051806080016040528060008152602001600081526020016000815260200160008152509056fe536166654d6174683a206d756c7469706c69636174696f6e206f766572666c6f77a265627a7a72315820e9bb257a692b6c24ca00d226986890b2d290c717a5cbe2521771758ad831568364736f6c63430005110032",
    "linkReferences": {}
  },
  "methodIdentifiers": {
    "SUSD()": "15d8eeba",
    "WRBTC()": "e52db75f",
    "loanToken()": "06d37817",
    "sovrynProtocol()": "65e62e36",
    "testCrossReentrancy(uint256,uint256)": "85e94661",
    "tokensToSend(address,address,address,uint256,bytes,bytes)": "75ab9782"
  },
  "id": 209
}