{
  "abi": [
    {
      "anonymous": false,
      "inputs": [
        {
          "indexed": true,
          "internalType": "address",
          "name": "owner",
          "type": "address"
        },
        {
          "indexed": true,
          "internalType": "address",
          "name": "spender",
          "type": "address"
        },
        {
          "indexed": false,
          "internalType": "uint256",
          "name": "valueBefore",
          "type": "uint256"
        },
        {
          "indexed": false,
          "internalType": "uint256",
          "name": "valueAfter",
          "type": "uint256"
        }
      ],
      "name": "AllowanceUpdate",
      "type": "event"
    },
    {
      "anonymous": false,
      "inputs": [
        {
          "indexed": true,
          "internalType": "address",
          "name": "owner",
          "type": "address"
        },
        {
          "indexed": true,
          "internalType": "address",
          "name": "spender",
          "type": "address"
        },
        {
          "indexed": false,
          "internalType": "uint256",
          "name": "value",
          "type": "uint256"
        }
      ],
      "name": "Approval",
      "type": "event"
    },
    {
      "anonymous": false,
      "inputs": [
        {
          "indexed": true,
          "internalType": "address",
          "name": "burner",
          "type": "address"
        },
        {
          "indexed": false,
          "internalType": "uint256",
          "name": "tokenAmount",
          "type": "uint256"
        },
        {
          "indexed": false,
          "internalType": "uint256",
          "name": "assetAmount",
          "type": "uint256"
        },
        {
          "indexed": false,
          "internalType": "uint256",
          "name": "price",
          "type": "uint256"
        }
      ],
      "name": "Burn",
      "type": "event"
    },
    {
      "anonymous": false,
      "inputs": [
        {
          "indexed": false,
          "internalType": "address",
          "name": "borrower",
          "type": "address"
        },
        {
          "indexed": false,
          "internalType": "address",
          "name": "target",
          "type": "address"
        },
        {
          "indexed": false,
          "internalType": "address",
          "name": "loanToken",
          "type": "address"
        },
        {
          "indexed": false,
          "internalType": "uint256",
          "name": "loanAmount",
          "type": "uint256"
        }
      ],
      "name": "FlashBorrow",
      "type": "event"
    },
    {
      "anonymous": false,
      "inputs": [
        {
          "indexed": true,
          "internalType": "address",
          "name": "minter",
          "type": "address"
        },
        {
          "indexed": false,
          "internalType": "uint256",
          "name": "tokenAmount",
          "type": "uint256"
        },
        {
          "indexed": false,
          "internalType": "uint256",
          "name": "assetAmount",
          "type": "uint256"
        },
        {
          "indexed": false,
          "internalType": "uint256",
          "name": "price",
          "type": "uint256"
        }
      ],
      "name": "Mint",
      "type": "event"
    },
    {
      "anonymous": false,
      "inputs": [
        {
          "indexed": true,
          "internalType": "address",
          "name": "previousOwner",
          "type": "address"
        },
        {
          "indexed": true,
          "internalType": "address",
          "name": "newOwner",
          "type": "address"
        }
      ],
      "name": "OwnershipTransferred",
      "type": "event"
    },
    {
      "anonymous": false,
      "inputs": [
        {
          "indexed": true,
          "internalType": "address",
          "name": "from",
          "type": "address"
        },
        {
          "indexed": true,
          "internalType": "address",
          "name": "to",
          "type": "address"
        },
        {
          "indexed": false,
          "internalType": "uint256",
          "name": "value",
          "type": "uint256"
        }
      ],
      "name": "Transfer",
      "type": "event"
    },
    {
      "payable": true,
      "stateMutability": "payable",
      "type": "fallback"
    },
    {
      "constant": true,
      "inputs": [],
      "name": "admin",
      "outputs": [
        {
          "internalType": "address",
          "name": "",
          "type": "address"
        }
      ],
      "payable": false,
      "stateMutability": "view",
      "type": "function"
    },
    {
      "constant": true,
      "inputs": [
        {
          "internalType": "address",
          "name": "_owner",
          "type": "address"
        },
        {
          "internalType": "address",
          "name": "_spender",
          "type": "address"
        }
      ],
      "name": "allowance",
      "outputs": [
        {
          "internalType": "uint256",
          "name": "",
          "type": "uint256"
        }
      ],
      "payable": false,
      "stateMutability": "view",
      "type": "function"
    },
    {
      "constant": true,
      "inputs": [
        {
          "internalType": "address",
          "name": "_owner",
          "type": "address"
        }
      ],
      "name": "balanceOf",
      "outputs": [
        {
          "internalType": "uint256",
          "name": "",
          "type": "uint256"
        }
      ],
      "payable": false,
      "stateMutability": "view",
      "type": "function"
    },
    {
      "constant": true,
      "inputs": [],
      "name": "baseRate",
      "outputs": [
        {
          "internalType": "uint256",
          "name": "",
          "type": "uint256"
        }
      ],
      "payable": false,
      "stateMutability": "view",
      "type": "function"
    },
    {
      "constant": true,
      "inputs": [],
      "name": "beaconAddress",
      "outputs": [
        {
          "internalType": "address",
          "name": "",
          "type": "address"
        }
      ],
      "payable": false,
      "stateMutability": "view",
      "type": "function"
    },
    {
      "constant": true,
      "inputs": [],
      "name": "checkpointSupply",
      "outputs": [
        {
          "internalType": "uint256",
          "name": "",
          "type": "uint256"
        }
      ],
      "payable": false,
      "stateMutability": "view",
      "type": "function"
    },
    {
      "constant": true,
      "inputs": [],
      "name": "decimals",
      "outputs": [
        {
          "internalType": "uint8",
          "name": "",
          "type": "uint8"
        }
      ],
      "payable": false,
      "stateMutability": "view",
      "type": "function"
    },
    {
      "constant": true,
      "inputs": [],
      "name": "initialPrice",
      "outputs": [
        {
          "internalType": "uint256",
          "name": "",
          "type": "uint256"
        }
      ],
      "payable": false,
      "stateMutability": "view",
      "type": "function"
    },
    {
      "constant": true,
      "inputs": [],
      "name": "isOwner",
      "outputs": [
        {
          "internalType": "bool",
          "name": "",
          "type": "bool"
        }
      ],
      "payable": false,
      "stateMutability": "view",
      "type": "function"
    },
    {
      "constant": true,
      "inputs": [],
      "name": "kinkLevel",
      "outputs": [
        {
          "internalType": "uint256",
          "name": "",
          "type": "uint256"
        }
      ],
      "payable": false,
      "stateMutability": "view",
      "type": "function"
    },
    {
      "constant": true,
      "inputs": [
        {
          "internalType": "uint256",
          "name": "",
          "type": "uint256"
        }
      ],
      "name": "loanParamsIds",
      "outputs": [
        {
          "internalType": "bytes32",
          "name": "",
          "type": "bytes32"
        }
      ],
      "payable": false,
      "stateMutability": "view",
      "type": "function"
    },
    {
      "constant": true,
      "inputs": [],
      "name": "loanTokenAddress",
      "outputs": [
        {
          "internalType": "address",
          "name": "",
          "type": "address"
        }
      ],
      "payable": false,
      "stateMutability": "view",
      "type": "function"
    },
    {
      "constant": true,
      "inputs": [],
      "name": "lowUtilBaseRate",
      "outputs": [
        {
          "internalType": "uint256",
          "name": "",
          "type": "uint256"
        }
      ],
      "payable": false,
      "stateMutability": "view",
      "type": "function"
    },
    {
      "constant": true,
      "inputs": [],
      "name": "lowUtilRateMultiplier",
      "outputs": [
        {
          "internalType": "uint256",
          "name": "",
          "type": "uint256"
        }
      ],
      "payable": false,
      "stateMutability": "view",
      "type": "function"
    },
    {
      "constant": true,
      "inputs": [],
      "name": "maxScaleRate",
      "outputs": [
        {
          "internalType": "uint256",
          "name": "",
          "type": "uint256"
        }
      ],
      "payable": false,
      "stateMutability": "view",
      "type": "function"
    },
    {
      "constant": true,
      "inputs": [],
      "name": "name",
      "outputs": [
        {
          "internalType": "string",
          "name": "",
          "type": "string"
        }
      ],
      "payable": false,
      "stateMutability": "view",
      "type": "function"
    },
    {
      "constant": true,
      "inputs": [],
      "name": "owner",
      "outputs": [
        {
          "internalType": "address",
          "name": "",
          "type": "address"
        }
      ],
      "payable": false,
      "stateMutability": "view",
      "type": "function"
    },
    {
      "constant": true,
      "inputs": [],
      "name": "rateMultiplier",
      "outputs": [
        {
          "internalType": "uint256",
          "name": "",
          "type": "uint256"
        }
      ],
      "payable": false,
      "stateMutability": "view",
      "type": "function"
    },
    {
      "constant": false,
      "inputs": [
        {
          "internalType": "address",
          "name": "_newBeaconAddress",
          "type": "address"
        }
      ],
      "name": "setBeaconAddress",
      "outputs": [],
      "payable": false,
      "stateMutability": "nonpayable",
      "type": "function"
    },
    {
      "constant": true,
      "inputs": [],
      "name": "sovrynContractAddress",
      "outputs": [
        {
          "internalType": "address",
          "name": "",
          "type": "address"
        }
      ],
      "payable": false,
      "stateMutability": "view",
      "type": "function"
    },
    {
      "constant": true,
      "inputs": [],
      "name": "symbol",
      "outputs": [
        {
          "internalType": "string",
          "name": "",
          "type": "string"
        }
      ],
      "payable": false,
      "stateMutability": "view",
      "type": "function"
    },
    {
      "constant": true,
      "inputs": [],
      "name": "targetLevel",
      "outputs": [
        {
          "internalType": "uint256",
          "name": "",
          "type": "uint256"
        }
      ],
      "payable": false,
      "stateMutability": "view",
      "type": "function"
    },
    {
      "constant": true,
      "inputs": [],
      "name": "target_",
      "outputs": [
        {
          "internalType": "address",
          "name": "",
          "type": "address"
        }
      ],
      "payable": false,
      "stateMutability": "view",
      "type": "function"
    },
    {
      "constant": true,
      "inputs": [],
      "name": "totalSupply",
      "outputs": [
        {
          "internalType": "uint256",
          "name": "",
          "type": "uint256"
        }
      ],
      "payable": false,
      "stateMutability": "view",
      "type": "function"
    },
    {
      "constant": true,
      "inputs": [
        {
          "internalType": "address",
          "name": "",
          "type": "address"
        }
      ],
      "name": "transactionLimit",
      "outputs": [
        {
          "internalType": "uint256",
          "name": "",
          "type": "uint256"
        }
      ],
      "payable": false,
      "stateMutability": "view",
      "type": "function"
    },
    {
      "constant": false,
      "inputs": [
        {
          "internalType": "address",
          "name": "newOwner",
          "type": "address"
        }
      ],
      "name": "transferOwnership",
      "outputs": [],
      "payable": false,
      "stateMutability": "nonpayable",
      "type": "function"
    },
    {
      "constant": true,
      "inputs": [],
      "name": "wrbtcTokenAddress",
      "outputs": [
        {
          "internalType": "address",
          "name": "",
          "type": "address"
        }
      ],
      "payable": false,
      "stateMutability": "view",
      "type": "function"
    }
  ],
  "bytecode": {
    "object": "0x60806040526001600090815561001c6001600160e01b0361006f16565b600180546001600160a01b0319166001600160a01b038316908117909155604051919250906000907f8be0079c531659141344cd1fd0a4f28419497f9722a3daafe3b4186f6b6457e0908290a350610073565b3390565b610d71806100826000396000f3fe60806040526004361061019c5760003560e01c80637e2ec6d0116100ec578063ba0e43bf1161008a578063e41b07e311610064578063e41b07e314610519578063ef2b0b3914610539578063f2fde38b1461054e578063f851a4401461056e5761019c565b8063ba0e43bf146104cf578063d759dbeb146104e4578063dd62ed3e146104f95761019c565b80638f32d59b116100c65780638f32d59b14610461578063921303441461048357806395d89b41146104a55780639bda3a98146104ba5761019c565b80637e2ec6d0146104225780637e37c08c146104375780638da5cb5b1461044c5761019c565b8063313ce5671161015957806356e07d701161013357806356e07d70146103c357806370a08231146103d8578063797bf385146103f85780637b7933b41461040d5761019c565b8063313ce5671461036c5780633291c11a1461038e578063330691ac146103ae5761019c565b806306947a3a146102be57806306fdde03146102e957806318160ddd1461030b5780631d0806ae1461032d5780631f68f20a146103425780632f6b600d14610357575b60006101a6610583565b6001600160a01b031663374e40476000356001600160e01b0319166040518263ffffffff1660e01b81526004016101dd9190610c0f565b60206040518083038186803b1580156101f557600080fd5b505afa158015610209573d6000803e3d6000fd5b505050506040513d601f19601f8201168201806040525061022d919081019061096e565b90506001600160a01b03811661025e5760405162461bcd60e51b815260040161025590610c35565b60405180910390fd5b60606000368080601f016020809104026020016040519081016040528093929190818152602001838380828437600092018290525084519495509384935091505060208401855af43d604051816000823e8280156102ba578282f35b8282fd5b3480156102ca57600080fd5b506102d36105a2565b6040516102e09190610be5565b60405180910390f35b3480156102f557600080fd5b506102fe6105b1565b6040516102e09190610c1d565b34801561031757600080fd5b5061032061063c565b6040516102e09190610c01565b34801561033957600080fd5b50610320610642565b34801561034e57600080fd5b50610320610648565b34801561036357600080fd5b506102d361064e565b34801561037857600080fd5b5061038161065d565b6040516102e09190610c85565b34801561039a57600080fd5b506103206103a93660046109c6565b610666565b3480156103ba57600080fd5b50610320610678565b3480156103cf57600080fd5b5061032061067e565b3480156103e457600080fd5b506103206103f3366004610950565b610684565b34801561040457600080fd5b506102d361069f565b34801561041957600080fd5b506103206106b3565b34801561042e57600080fd5b506102d36106b9565b34801561044357600080fd5b506103206106c8565b34801561045857600080fd5b506102d36106ce565b34801561046d57600080fd5b506104766106dd565b6040516102e09190610bf3565b34801561048f57600080fd5b506104a361049e366004610950565b610703565b005b3480156104b157600080fd5b506102fe610733565b3480156104c657600080fd5b506102d361078e565b3480156104db57600080fd5b5061032061079d565b3480156104f057600080fd5b506103206107a3565b34801561050557600080fd5b5061032061051436600461098c565b6107a9565b34801561052557600080fd5b50610320610534366004610950565b6107d6565b34801561054557600080fd5b506103206107e8565b34801561055a57600080fd5b506104a3610569366004610950565b6107ee565b34801561057a57600080fd5b506102d361081b565b60008060405161059290610bda565b6040519081900390205492915050565b6016546001600160a01b031681565b6002805460408051602060018416156101000260001901909316849004601f810184900484028201840190925281815292918301828280156106345780601f1061060957610100808354040283529160200191610634565b820191906000526020600020905b81548152906001019060200180831161061757829003601f168201915b505050505081565b60155490565b600e5481565b60055481565b6017546001600160a01b031681565b60045460ff1681565b60106020526000908152604090205481565b60065481565b600a5481565b6001600160a01b031660009081526013602052604090205490565b60045461010090046001600160a01b031681565b600d5481565b60006106c3610583565b905090565b60085481565b6001546001600160a01b031690565b6001546000906001600160a01b03166106f461082a565b6001600160a01b031614905090565b61070b6106dd565b6107275760405162461bcd60e51b815260040161025590610c55565b6107308161082e565b50565b6003805460408051602060026001851615610100026000190190941693909304601f810184900484028201840190925281815292918301828280156106345780601f1061060957610100808354040283529160200191610634565b6018546001600160a01b031681565b60095481565b60075481565b6001600160a01b038083166000908152601460209081526040808320938516835292905220545b92915050565b60126020526000908152604090205481565b600b5481565b6107f66106dd565b6108125760405162461bcd60e51b815260040161025590610c75565b61073081610871565b6019546001600160a01b031681565b3390565b610837816108f3565b6108535760405162461bcd60e51b815260040161025590610c65565b600060405161086190610bda565b6040519081900390209190915550565b6001600160a01b0381166108975760405162461bcd60e51b815260040161025590610c45565b6001546040516001600160a01b038084169216907f8be0079c531659141344cd1fd0a4f28419497f9722a3daafe3b4186f6b6457e090600090a3600180546001600160a01b0319166001600160a01b0392909216919091179055565b6000813f7fc5d2460186f7233c927e7db2dcc703c0e500b653ca82273b7bfad8045d85a47081811480159061092757508115155b949350505050565b80356107d081610d11565b80516107d081610d11565b80356107d081610d25565b60006020828403121561096257600080fd5b6000610927848461092f565b60006020828403121561098057600080fd5b6000610927848461093a565b6000806040838503121561099f57600080fd5b60006109ab858561092f565b92505060206109bc8582860161092f565b9150509250929050565b6000602082840312156109d857600080fd5b60006109278484610945565b6109ed81610ca5565b82525050565b6109ed81610cb0565b6109ed81610cb5565b6109ed81610cb8565b6000610a1982610c93565b610a238185610c97565b9350610a33818560208601610cd7565b610a3c81610d07565b9093019392505050565b6000610a53602583610c97565b7f4c6f616e546f6b656e4c6f67696350726f78793a746172676574206e6f742061815264637469766560d81b602082015260400192915050565b6000610a9a602683610c97565b7f4f776e61626c653a206e6577206f776e657220697320746865207a65726f206181526564647265737360d01b602082015260400192915050565b6000610ae2602083610c97565b7f4c6f616e546f6b656e4c6f67696350726f78793a756e617574686f72697a6564815260200192915050565b6000610b1b603383610c97565b7f43616e6e6f742073657420626561636f6e206164647265737320746f2061206e8152726f6e2d636f6e7472616374206164647265737360681b602082015260400192915050565b6000610b70600c83610c97565b6b1d5b985d5d1a1bdc9a5e995960a21b815260200192915050565b6000610b98602483610ca0565b7f4c4f414e5f544f4b454e5f4c4f4749435f424541434f4e5f414444524553535f81526314d313d560e21b602082015260240192915050565b6109ed81610cd1565b60006107d082610b8b565b602081016107d082846109e4565b602081016107d082846109f3565b602081016107d082846109fc565b602081016107d08284610a05565b60208082528101610c2e8184610a0e565b9392505050565b602080825281016107d081610a46565b602080825281016107d081610a8d565b602080825281016107d081610ad5565b602080825281016107d081610b0e565b602080825281016107d081610b63565b602081016107d08284610bd1565b5190565b90815260200190565b919050565b60006107d082610cc5565b151590565b90565b6001600160e01b03191690565b6001600160a01b031690565b60ff1690565b60005b83811015610cf2578181015183820152602001610cda565b83811115610d01576000848401525b50505050565b601f01601f191690565b610d1a81610ca5565b811461073057600080fd5b610d1a81610cb556fea365627a7a723158202a3066aa59930f1156e3ea252ffe9b06c9e8eaca68881a7f5b83767ce1f6583c6c6578706572696d656e74616cf564736f6c63430005110040",
    "linkReferences": {}
  },
  "methodIdentifiers": {
    "admin()": "f851a440",
    "allowance(address,address)": "dd62ed3e",
    "balanceOf(address)": "70a08231",
    "baseRate()": "1f68f20a",
    "beaconAddress()": "7e2ec6d0",
    "checkpointSupply()": "7b7933b4",
    "decimals()": "313ce567",
    "initialPrice()": "1d0806ae",
    "isOwner()": "8f32d59b",
    "kinkLevel()": "56e07d70",
    "loanParamsIds(uint256)": "3291c11a",
    "loanTokenAddress()": "797bf385",
    "lowUtilBaseRate()": "d759dbeb",
    "lowUtilRateMultiplier()": "7e37c08c",
    "maxScaleRate()": "ef2b0b39",
    "name()": "06fdde03",
    "owner()": "8da5cb5b",
    "rateMultiplier()": "330691ac",
    "setBeaconAddress(address)": "92130344",
    "sovrynContractAddress()": "06947a3a",
    "symbol()": "95d89b41",
    "targetLevel()": "ba0e43bf",
    "target_()": "9bda3a98",
    "totalSupply()": "18160ddd",
    "transactionLimit(address)": "e41b07e3",
    "transferOwnership(address)": "f2fde38b",
    "wrbtcTokenAddress()": "2f6b600d"
  },
  "id": 5
}