{
  "abi": [
    {
      "inputs": [],
      "payable": false,
      "stateMutability": "nonpayable",
      "type": "constructor"
    },
    {
      "anonymous": false,
      "inputs": [
        {
          "indexed": true,
          "internalType": "bytes32",
          "name": "id",
          "type": "bytes32"
        },
        {
          "indexed": false,
          "internalType": "address",
          "name": "owner",
          "type": "address"
        },
        {
          "indexed": true,
          "internalType": "address",
          "name": "loanToken",
          "type": "address"
        },
        {
          "indexed": true,
          "internalType": "address",
          "name": "collateralToken",
          "type": "address"
        },
        {
          "indexed": false,
          "internalType": "uint256",
          "name": "minInitialMargin",
          "type": "uint256"
        },
        {
          "indexed": false,
          "internalType": "uint256",
          "name": "maintenanceMargin",
          "type": "uint256"
        },
        {
          "indexed": false,
          "internalType": "uint256",
          "name": "maxLoanTerm",
          "type": "uint256"
        }
      ],
      "name": "LoanParamsDisabled",
      "type": "event"
    },
    {
      "anonymous": false,
      "inputs": [
        {
          "indexed": true,
          "internalType": "bytes32",
          "name": "id",
          "type": "bytes32"
        },
        {
          "indexed": true,
          "internalType": "address",
          "name": "owner",
          "type": "address"
        }
      ],
      "name": "LoanParamsIdDisabled",
      "type": "event"
    },
    {
      "anonymous": false,
      "inputs": [
        {
          "indexed": true,
          "internalType": "bytes32",
          "name": "id",
          "type": "bytes32"
        },
        {
          "indexed": true,
          "internalType": "address",
          "name": "owner",
          "type": "address"
        }
      ],
      "name": "LoanParamsIdSetup",
      "type": "event"
    },
    {
      "anonymous": false,
      "inputs": [
        {
          "indexed": true,
          "internalType": "bytes32",
          "name": "id",
          "type": "bytes32"
        },
        {
          "indexed": false,
          "internalType": "address",
          "name": "owner",
          "type": "address"
        },
        {
          "indexed": true,
          "internalType": "address",
          "name": "loanToken",
          "type": "address"
        },
        {
          "indexed": true,
          "internalType": "address",
          "name": "collateralToken",
          "type": "address"
        },
        {
          "indexed": false,
          "internalType": "uint256",
          "name": "minInitialMargin",
          "type": "uint256"
        },
        {
          "indexed": false,
          "internalType": "uint256",
          "name": "maintenanceMargin",
          "type": "uint256"
        },
        {
          "indexed": false,
          "internalType": "uint256",
          "name": "maxLoanTerm",
          "type": "uint256"
        }
      ],
      "name": "LoanParamsSetup",
      "type": "event"
    },
    {
      "anonymous": false,
      "inputs": [
        {
          "indexed": true,
          "internalType": "address",
          "name": "previousOwner",
          "type": "address"
        },
        {
          "indexed": true,
          "internalType": "address",
          "name": "newOwner",
          "type": "address"
        }
      ],
      "name": "OwnershipTransferred",
      "type": "event"
    },
    {
      "anonymous": false,
      "inputs": [
        {
          "indexed": true,
          "internalType": "address",
          "name": "prevModuleContractAddress",
          "type": "address"
        },
        {
          "indexed": true,
          "internalType": "address",
          "name": "newModuleContractAddress",
          "type": "address"
        },
        {
          "indexed": true,
          "internalType": "bytes32",
          "name": "module",
          "type": "bytes32"
        }
      ],
      "name": "ProtocolModuleContractReplaced",
      "type": "event"
    },
    {
      "payable": false,
      "stateMutability": "nonpayable",
      "type": "fallback"
    },
    {
      "constant": true,
      "inputs": [],
      "name": "admin",
      "outputs": [
        {
          "internalType": "address",
          "name": "",
          "type": "address"
        }
      ],
      "payable": false,
      "stateMutability": "view",
      "type": "function"
    },
    {
      "constant": true,
      "inputs": [],
      "name": "affiliateFeePercent",
      "outputs": [
        {
          "internalType": "uint256",
          "name": "",
          "type": "uint256"
        }
      ],
      "payable": false,
      "stateMutability": "view",
      "type": "function"
    },
    {
      "constant": true,
      "inputs": [
        {
          "internalType": "address",
          "name": "",
          "type": "address"
        }
      ],
      "name": "affiliateRewardsHeld",
      "outputs": [
        {
          "internalType": "uint256",
          "name": "",
          "type": "uint256"
        }
      ],
      "payable": false,
      "stateMutability": "view",
      "type": "function"
    },
    {
      "constant": true,
      "inputs": [],
      "name": "affiliateTradingTokenFeePercent",
      "outputs": [
        {
          "internalType": "uint256",
          "name": "",
          "type": "uint256"
        }
      ],
      "payable": false,
      "stateMutability": "view",
      "type": "function"
    },
    {
      "constant": true,
      "inputs": [
        {
          "internalType": "address",
          "name": "",
          "type": "address"
        },
        {
          "internalType": "address",
          "name": "",
          "type": "address"
        }
      ],
      "name": "affiliatesReferrerBalances",
      "outputs": [
        {
          "internalType": "uint256",
          "name": "",
          "type": "uint256"
        }
      ],
      "payable": false,
      "stateMutability": "view",
      "type": "function"
    },
    {
      "constant": true,
      "inputs": [
        {
          "internalType": "address",
          "name": "",
          "type": "address"
        }
      ],
      "name": "affiliatesUserReferrer",
      "outputs": [
        {
          "internalType": "address",
          "name": "",
          "type": "address"
        }
      ],
      "payable": false,
      "stateMutability": "view",
      "type": "function"
    },
    {
      "constant": true,
      "inputs": [
        {
          "internalType": "address",
          "name": "",
          "type": "address"
        }
      ],
      "name": "borrowerNonce",
      "outputs": [
        {
          "internalType": "uint256",
          "name": "",
          "type": "uint256"
        }
      ],
      "payable": false,
      "stateMutability": "view",
      "type": "function"
    },
    {
      "constant": true,
      "inputs": [
        {
          "internalType": "address",
          "name": "",
          "type": "address"
        },
        {
          "internalType": "bytes32",
          "name": "",
          "type": "bytes32"
        }
      ],
      "name": "borrowerOrders",
      "outputs": [
        {
          "internalType": "uint256",
          "name": "lockedAmount",
          "type": "uint256"
        },
        {
          "internalType": "uint256",
          "name": "interestRate",
          "type": "uint256"
        },
        {
          "internalType": "uint256",
          "name": "minLoanTerm",
          "type": "uint256"
        },
        {
          "internalType": "uint256",
          "name": "maxLoanTerm",
          "type": "uint256"
        },
        {
          "internalType": "uint256",
          "name": "createdTimestamp",
          "type": "uint256"
        },
        {
          "internalType": "uint256",
          "name": "expirationTimestamp",
          "type": "uint256"
        }
      ],
      "payable": false,
      "stateMutability": "view",
      "type": "function"
    },
    {
      "constant": true,
      "inputs": [],
      "name": "borrowingFeePercent",
      "outputs": [
        {
          "internalType": "uint256",
          "name": "",
          "type": "uint256"
        }
      ],
      "payable": false,
      "stateMutability": "view",
      "type": "function"
    },
    {
      "constant": true,
      "inputs": [
        {
          "internalType": "address",
          "name": "",
          "type": "address"
        }
      ],
      "name": "borrowingFeeTokensHeld",
      "outputs": [
        {
          "internalType": "uint256",
          "name": "",
          "type": "uint256"
        }
      ],
      "payable": false,
      "stateMutability": "view",
      "type": "function"
    },
    {
      "constant": true,
      "inputs": [
        {
          "internalType": "address",
          "name": "",
          "type": "address"
        }
      ],
      "name": "borrowingFeeTokensPaid",
      "outputs": [
        {
          "internalType": "uint256",
          "name": "",
          "type": "uint256"
        }
      ],
      "payable": false,
      "stateMutability": "view",
      "type": "function"
    },
    {
      "constant": true,
      "inputs": [
        {
          "internalType": "bytes32",
          "name": "",
          "type": "bytes32"
        },
        {
          "internalType": "address",
          "name": "",
          "type": "address"
        }
      ],
      "name": "delegatedManagers",
      "outputs": [
        {
          "internalType": "bool",
          "name": "",
          "type": "bool"
        }
      ],
      "payable": false,
      "stateMutability": "view",
      "type": "function"
    },
    {
      "constant": false,
      "inputs": [
        {
          "internalType": "bytes32[]",
          "name": "loanParamsIdList",
          "type": "bytes32[]"
        }
      ],
      "name": "disableLoanParams",
      "outputs": [],
      "payable": false,
      "stateMutability": "nonpayable",
      "type": "function"
    },
    {
      "constant": true,
      "inputs": [],
      "name": "feeRebatePercent",
      "outputs": [
        {
          "internalType": "uint256",
          "name": "",
          "type": "uint256"
        }
      ],
      "payable": false,
      "stateMutability": "view",
      "type": "function"
    },
    {
      "constant": true,
      "inputs": [],
      "name": "feesController",
      "outputs": [
        {
          "internalType": "address",
          "name": "",
          "type": "address"
        }
      ],
      "payable": false,
      "stateMutability": "view",
      "type": "function"
    },
    {
      "constant": true,
      "inputs": [
        {
          "internalType": "bytes32[]",
          "name": "loanParamsIdList",
          "type": "bytes32[]"
        }
      ],
      "name": "getLoanParams",
      "outputs": [
        {
          "components": [
            {
              "internalType": "bytes32",
              "name": "id",
              "type": "bytes32"
            },
            {
              "internalType": "bool",
              "name": "active",
              "type": "bool"
            },
            {
              "internalType": "address",
              "name": "owner",
              "type": "address"
            },
            {
              "internalType": "address",
              "name": "loanToken",
              "type": "address"
            },
            {
              "internalType": "address",
              "name": "collateralToken",
              "type": "address"
            },
            {
              "internalType": "uint256",
              "name": "minInitialMargin",
              "type": "uint256"
            },
            {
              "internalType": "uint256",
              "name": "maintenanceMargin",
              "type": "uint256"
            },
            {
              "internalType": "uint256",
              "name": "maxLoanTerm",
              "type": "uint256"
            }
          ],
          "internalType": "struct LoanParamsStruct.LoanParams[]",
          "name": "loanParamsList",
          "type": "tuple[]"
        }
      ],
      "payable": false,
      "stateMutability": "view",
      "type": "function"
    },
    {
      "constant": true,
      "inputs": [
        {
          "internalType": "address",
          "name": "owner",
          "type": "address"
        },
        {
          "internalType": "uint256",
          "name": "start",
          "type": "uint256"
        },
        {
          "internalType": "uint256",
          "name": "count",
          "type": "uint256"
        }
      ],
      "name": "getLoanParamsList",
      "outputs": [
        {
          "internalType": "bytes32[]",
          "name": "loanParamsList",
          "type": "bytes32[]"
        }
      ],
      "payable": false,
      "stateMutability": "view",
      "type": "function"
    },
    {
      "constant": true,
      "inputs": [
        {
          "internalType": "address",
          "name": "lender",
          "type": "address"
        },
        {
          "internalType": "address",
          "name": "loanToken",
          "type": "address"
        }
      ],
      "name": "getTotalPrincipal",
      "outputs": [
        {
          "internalType": "uint256",
          "name": "",
          "type": "uint256"
        }
      ],
      "payable": false,
      "stateMutability": "view",
      "type": "function"
    },
    {
      "constant": false,
      "inputs": [
        {
          "internalType": "address",
          "name": "target",
          "type": "address"
        }
      ],
      "name": "initialize",
      "outputs": [],
      "payable": false,
      "stateMutability": "nonpayable",
      "type": "function"
    },
    {
      "constant": true,
      "inputs": [],
      "name": "isOwner",
      "outputs": [
        {
          "internalType": "bool",
          "name": "",
          "type": "bool"
        }
      ],
      "payable": false,
      "stateMutability": "view",
      "type": "function"
    },
    {
      "constant": true,
      "inputs": [
        {
          "internalType": "address",
          "name": "",
          "type": "address"
        },
        {
          "internalType": "address",
          "name": "",
          "type": "address"
        }
      ],
      "name": "lenderInterest",
      "outputs": [
        {
          "internalType": "uint256",
          "name": "principalTotal",
          "type": "uint256"
        },
        {
          "internalType": "uint256",
          "name": "owedPerDay",
          "type": "uint256"
        },
        {
          "internalType": "uint256",
          "name": "owedTotal",
          "type": "uint256"
        },
        {
          "internalType": "uint256",
          "name": "paidTotal",
          "type": "uint256"
        },
        {
          "internalType": "uint256",
          "name": "updatedTimestamp",
          "type": "uint256"
        }
      ],
      "payable": false,
      "stateMutability": "view",
      "type": "function"
    },
    {
      "constant": true,
      "inputs": [
        {
          "internalType": "address",
          "name": "",
          "type": "address"
        },
        {
          "internalType": "bytes32",
          "name": "",
          "type": "bytes32"
        }
      ],
      "name": "lenderOrders",
      "outputs": [
        {
          "internalType": "uint256",
          "name": "lockedAmount",
          "type": "uint256"
        },
        {
          "internalType": "uint256",
          "name": "interestRate",
          "type": "uint256"
        },
        {
          "internalType": "uint256",
          "name": "minLoanTerm",
          "type": "uint256"
        },
        {
          "internalType": "uint256",
          "name": "maxLoanTerm",
          "type": "uint256"
        },
        {
          "internalType": "uint256",
          "name": "createdTimestamp",
          "type": "uint256"
        },
        {
          "internalType": "uint256",
          "name": "expirationTimestamp",
          "type": "uint256"
        }
      ],
      "payable": false,
      "stateMutability": "view",
      "type": "function"
    },
    {
      "constant": true,
      "inputs": [],
      "name": "lendingFeePercent",
      "outputs": [
        {
          "internalType": "uint256",
          "name": "",
          "type": "uint256"
        }
      ],
      "payable": false,
      "stateMutability": "view",
      "type": "function"
    },
    {
      "constant": true,
      "inputs": [
        {
          "internalType": "address",
          "name": "",
          "type": "address"
        }
      ],
      "name": "lendingFeeTokensHeld",
      "outputs": [
        {
          "internalType": "uint256",
          "name": "",
          "type": "uint256"
        }
      ],
      "payable": false,
      "stateMutability": "view",
      "type": "function"
    },
    {
      "constant": true,
      "inputs": [
        {
          "internalType": "address",
          "name": "",
          "type": "address"
        }
      ],
      "name": "lendingFeeTokensPaid",
      "outputs": [
        {
          "internalType": "uint256",
          "name": "",
          "type": "uint256"
        }
      ],
      "payable": false,
      "stateMutability": "view",
      "type": "function"
    },
    {
      "constant": true,
      "inputs": [],
      "name": "liquidationIncentivePercent",
      "outputs": [
        {
          "internalType": "uint256",
          "name": "",
          "type": "uint256"
        }
      ],
      "payable": false,
      "stateMutability": "view",
      "type": "function"
    },
    {
      "constant": true,
      "inputs": [
        {
          "internalType": "bytes32",
          "name": "",
          "type": "bytes32"
        }
      ],
      "name": "loanInterest",
      "outputs": [
        {
          "internalType": "uint256",
          "name": "owedPerDay",
          "type": "uint256"
        },
        {
          "internalType": "uint256",
          "name": "depositTotal",
          "type": "uint256"
        },
        {
          "internalType": "uint256",
          "name": "updatedTimestamp",
          "type": "uint256"
        }
      ],
      "payable": false,
      "stateMutability": "view",
      "type": "function"
    },
    {
      "constant": true,
      "inputs": [
        {
          "internalType": "bytes32",
          "name": "",
          "type": "bytes32"
        }
      ],
      "name": "loanParams",
      "outputs": [
        {
          "internalType": "bytes32",
          "name": "id",
          "type": "bytes32"
        },
        {
          "internalType": "bool",
          "name": "active",
          "type": "bool"
        },
        {
          "internalType": "address",
          "name": "owner",
          "type": "address"
        },
        {
          "internalType": "address",
          "name": "loanToken",
          "type": "address"
        },
        {
          "internalType": "address",
          "name": "collateralToken",
          "type": "address"
        },
        {
          "internalType": "uint256",
          "name": "minInitialMargin",
          "type": "uint256"
        },
        {
          "internalType": "uint256",
          "name": "maintenanceMargin",
          "type": "uint256"
        },
        {
          "internalType": "uint256",
          "name": "maxLoanTerm",
          "type": "uint256"
        }
      ],
      "payable": false,
      "stateMutability": "view",
      "type": "function"
    },
    {
      "constant": true,
      "inputs": [
        {
          "internalType": "address",
          "name": "",
          "type": "address"
        }
      ],
      "name": "loanPoolToUnderlying",
      "outputs": [
        {
          "internalType": "address",
          "name": "",
          "type": "address"
        }
      ],
      "payable": false,
      "stateMutability": "view",
      "type": "function"
    },
    {
      "constant": true,
      "inputs": [
        {
          "internalType": "bytes32",
          "name": "",
          "type": "bytes32"
        }
      ],
      "name": "loans",
      "outputs": [
        {
          "internalType": "bytes32",
          "name": "id",
          "type": "bytes32"
        },
        {
          "internalType": "bytes32",
          "name": "loanParamsId",
          "type": "bytes32"
        },
        {
          "internalType": "bytes32",
          "name": "pendingTradesId",
          "type": "bytes32"
        },
        {
          "internalType": "bool",
          "name": "active",
          "type": "bool"
        },
        {
          "internalType": "uint256",
          "name": "principal",
          "type": "uint256"
        },
        {
          "internalType": "uint256",
          "name": "collateral",
          "type": "uint256"
        },
        {
          "internalType": "uint256",
          "name": "startTimestamp",
          "type": "uint256"
        },
        {
          "internalType": "uint256",
          "name": "endTimestamp",
          "type": "uint256"
        },
        {
          "internalType": "uint256",
          "name": "startMargin",
          "type": "uint256"
        },
        {
          "internalType": "uint256",
          "name": "startRate",
          "type": "uint256"
        },
        {
          "internalType": "address",
          "name": "borrower",
          "type": "address"
        },
        {
          "internalType": "address",
          "name": "lender",
          "type": "address"
        }
      ],
      "payable": false,
      "stateMutability": "view",
      "type": "function"
    },
    {
      "constant": true,
      "inputs": [],
      "name": "lockedSOVAddress",
      "outputs": [
        {
          "internalType": "address",
          "name": "",
          "type": "address"
        }
      ],
      "payable": false,
      "stateMutability": "view",
      "type": "function"
    },
    {
      "constant": true,
      "inputs": [
        {
          "internalType": "bytes4",
          "name": "",
          "type": "bytes4"
        }
      ],
      "name": "logicTargets",
      "outputs": [
        {
          "internalType": "address",
          "name": "",
          "type": "address"
        }
      ],
      "payable": false,
      "stateMutability": "view",
      "type": "function"
    },
    {
      "constant": true,
      "inputs": [],
      "name": "maxDisagreement",
      "outputs": [
        {
          "internalType": "uint256",
          "name": "",
          "type": "uint256"
        }
      ],
      "payable": false,
      "stateMutability": "view",
      "type": "function"
    },
    {
      "constant": true,
      "inputs": [],
      "name": "maxSwapSize",
      "outputs": [
        {
          "internalType": "uint256",
          "name": "",
          "type": "uint256"
        }
      ],
      "payable": false,
      "stateMutability": "view",
      "type": "function"
    },
    {
      "constant": true,
      "inputs": [
        {
          "internalType": "bytes32",
          "name": "loanParamsId",
          "type": "bytes32"
        }
      ],
      "name": "minInitialMargin",
      "outputs": [
        {
          "internalType": "uint256",
          "name": "",
          "type": "uint256"
        }
      ],
      "payable": false,
      "stateMutability": "view",
      "type": "function"
    },
    {
      "constant": true,
      "inputs": [],
      "name": "minReferralsToPayout",
      "outputs": [
        {
          "internalType": "uint256",
          "name": "",
          "type": "uint256"
        }
      ],
      "payable": false,
      "stateMutability": "view",
      "type": "function"
    },
    {
      "constant": true,
      "inputs": [],
      "name": "owner",
      "outputs": [
        {
          "internalType": "address",
          "name": "",
          "type": "address"
        }
      ],
      "payable": false,
      "stateMutability": "view",
      "type": "function"
    },
    {
      "constant": true,
      "inputs": [],
      "name": "pause",
      "outputs": [
        {
          "internalType": "bool",
          "name": "",
          "type": "bool"
        }
      ],
      "payable": false,
      "stateMutability": "view",
      "type": "function"
    },
    {
      "constant": true,
      "inputs": [],
      "name": "priceFeeds",
      "outputs": [
        {
          "internalType": "address",
          "name": "",
          "type": "address"
        }
      ],
      "payable": false,
      "stateMutability": "view",
      "type": "function"
    },
    {
      "constant": true,
      "inputs": [],
      "name": "protocolAddress",
      "outputs": [
        {
          "internalType": "address",
          "name": "",
          "type": "address"
        }
      ],
      "payable": false,
      "stateMutability": "view",
      "type": "function"
    },
    {
      "constant": true,
      "inputs": [],
      "name": "protocolTokenAddress",
      "outputs": [
        {
          "internalType": "address",
          "name": "",
          "type": "address"
        }
      ],
      "payable": false,
      "stateMutability": "view",
      "type": "function"
    },
    {
      "constant": true,
      "inputs": [],
      "name": "protocolTokenHeld",
      "outputs": [
        {
          "internalType": "uint256",
          "name": "",
          "type": "uint256"
        }
      ],
      "payable": false,
      "stateMutability": "view",
      "type": "function"
    },
    {
      "constant": true,
      "inputs": [],
      "name": "protocolTokenPaid",
      "outputs": [
        {
          "internalType": "uint256",
          "name": "",
          "type": "uint256"
        }
      ],
      "payable": false,
      "stateMutability": "view",
      "type": "function"
    },
    {
      "constant": true,
      "inputs": [],
      "name": "rolloverBaseReward",
      "outputs": [
        {
          "internalType": "uint256",
          "name": "",
          "type": "uint256"
        }
      ],
      "payable": false,
      "stateMutability": "view",
      "type": "function"
    },
    {
      "constant": true,
      "inputs": [],
      "name": "rolloverFlexFeePercent",
      "outputs": [
        {
          "internalType": "uint256",
          "name": "",
          "type": "uint256"
        }
      ],
      "payable": false,
      "stateMutability": "view",
      "type": "function"
    },
    {
      "constant": false,
      "inputs": [
        {
          "components": [
            {
              "internalType": "bytes32",
              "name": "id",
              "type": "bytes32"
            },
            {
              "internalType": "bool",
              "name": "active",
              "type": "bool"
            },
            {
              "internalType": "address",
              "name": "owner",
              "type": "address"
            },
            {
              "internalType": "address",
              "name": "loanToken",
              "type": "address"
            },
            {
              "internalType": "address",
              "name": "collateralToken",
              "type": "address"
            },
            {
              "internalType": "uint256",
              "name": "minInitialMargin",
              "type": "uint256"
            },
            {
              "internalType": "uint256",
              "name": "maintenanceMargin",
              "type": "uint256"
            },
            {
              "internalType": "uint256",
              "name": "maxLoanTerm",
              "type": "uint256"
            }
          ],
          "internalType": "struct LoanParamsStruct.LoanParams[]",
          "name": "loanParamsList",
          "type": "tuple[]"
        }
      ],
      "name": "setupLoanParams",
      "outputs": [
        {
          "internalType": "bytes32[]",
          "name": "loanParamsIdList",
          "type": "bytes32[]"
        }
      ],
      "payable": false,
      "stateMutability": "nonpayable",
      "type": "function"
    },
    {
      "constant": true,
      "inputs": [],
      "name": "sourceBuffer",
      "outputs": [
        {
          "internalType": "uint256",
          "name": "",
          "type": "uint256"
        }
      ],
      "payable": false,
      "stateMutability": "view",
      "type": "function"
    },
    {
      "constant": true,
      "inputs": [],
      "name": "sovTokenAddress",
      "outputs": [
        {
          "internalType": "address",
          "name": "",
          "type": "address"
        }
      ],
      "payable": false,
      "stateMutability": "view",
      "type": "function"
    },
    {
      "constant": true,
      "inputs": [],
      "name": "sovrynSwapContractRegistryAddress",
      "outputs": [
        {
          "internalType": "address",
          "name": "",
          "type": "address"
        }
      ],
      "payable": false,
      "stateMutability": "view",
      "type": "function"
    },
    {
      "constant": true,
      "inputs": [
        {
          "internalType": "address",
          "name": "",
          "type": "address"
        },
        {
          "internalType": "address",
          "name": "",
          "type": "address"
        }
      ],
      "name": "specialRebates",
      "outputs": [
        {
          "internalType": "uint256",
          "name": "",
          "type": "uint256"
        }
      ],
      "payable": false,
      "stateMutability": "view",
      "type": "function"
    },
    {
      "constant": true,
      "inputs": [
        {
          "internalType": "address",
          "name": "",
          "type": "address"
        }
      ],
      "name": "supportedTokens",
      "outputs": [
        {
          "internalType": "bool",
          "name": "",
          "type": "bool"
        }
      ],
      "payable": false,
      "stateMutability": "view",
      "type": "function"
    },
    {
      "constant": true,
      "inputs": [],
      "name": "swapsImpl",
      "outputs": [
        {
          "internalType": "address",
          "name": "",
          "type": "address"
        }
      ],
      "payable": false,
      "stateMutability": "view",
      "type": "function"
    },
    {
      "constant": true,
      "inputs": [],
      "name": "tradingFeePercent",
      "outputs": [
        {
          "internalType": "uint256",
          "name": "",
          "type": "uint256"
        }
      ],
      "payable": false,
      "stateMutability": "view",
      "type": "function"
    },
    {
      "constant": true,
      "inputs": [
        {
          "internalType": "address",
          "name": "",
          "type": "address"
        }
      ],
      "name": "tradingFeeTokensHeld",
      "outputs": [
        {
          "internalType": "uint256",
          "name": "",
          "type": "uint256"
        }
      ],
      "payable": false,
      "stateMutability": "view",
      "type": "function"
    },
    {
      "constant": true,
      "inputs": [
        {
          "internalType": "address",
          "name": "",
          "type": "address"
        }
      ],
      "name": "tradingFeeTokensPaid",
      "outputs": [
        {
          "internalType": "uint256",
          "name": "",
          "type": "uint256"
        }
      ],
      "payable": false,
      "stateMutability": "view",
      "type": "function"
    },
    {
      "constant": false,
      "inputs": [
        {
          "internalType": "address",
          "name": "newOwner",
          "type": "address"
        }
      ],
      "name": "transferOwnership",
      "outputs": [],
      "payable": false,
      "stateMutability": "nonpayable",
      "type": "function"
    },
    {
      "constant": true,
      "inputs": [
        {
          "internalType": "address",
          "name": "",
          "type": "address"
        }
      ],
      "name": "underlyingToLoanPool",
      "outputs": [
        {
          "internalType": "address",
          "name": "",
          "type": "address"
        }
      ],
      "payable": false,
      "stateMutability": "view",
      "type": "function"
    },
    {
      "constant": true,
      "inputs": [
        {
          "internalType": "address",
          "name": "",
          "type": "address"
        }
      ],
      "name": "userNotFirstTradeFlag",
      "outputs": [
        {
          "internalType": "bool",
          "name": "",
          "type": "bool"
        }
      ],
      "payable": false,
      "stateMutability": "view",
      "type": "function"
    },
    {
      "constant": true,
      "inputs": [],
      "name": "wrbtcToken",
      "outputs": [
        {
          "internalType": "contract IWrbtcERC20",
          "name": "",
          "type": "address"
        }
      ],
      "payable": false,
      "stateMutability": "view",
      "type": "function"
    }
  ],
  "bytecode": {
    "object": "0x60806040526001600055678ac7230489e80000601555670214e8348c4f000060185567013fbe85edc90000601b55674563918244f40000602055674563918244f40000602155674563918244f400006027556127106028556802b5e3af16b1880000602955650f478e084000602b5567016345785d8a0000602c556802b5e3af16b1880000602f5560036035556801158e460913d000006039553480156100a557600080fd5b5060006100b96001600160e01b0361010c16565b600180546001600160a01b0319166001600160a01b038316908117909155604051919250906000907f8be0079c531659141344cd1fd0a4f28419497f9722a3daafe3b4186f6b6457e0908290a350610110565b3390565b6123528061011f6000396000f3fe608060405234801561001057600080fd5b50600436106103995760003560e01c80638f32d59b116101e9578063cb6eacd11161010f578063edab119f116100ad578063f6ddc8b31161007c578063f6ddc8b314610773578063f706b1f21461077b578063f851a44014610783578063fe30fa6a1461078b57610399565b8063edab119f14610748578063f0e085f514610750578063f2fde38b14610758578063f589a3e71461076b57610399565b8063d288208c116100e9578063d288208c1461071d578063d473c2da14610725578063d485045e1461072d578063e8f627641461074057610399565b8063cb6eacd1146106d0578063cd5d808d146106f7578063cf59e67b1461070a57610399565b8063b30643d911610187578063bdee453c11610156578063bdee453c1461066a578063c4a908151461067d578063c4d66de8146106a8578063ca74a5d9146106bd57610399565b8063b30643d914610634578063b7e1524114610647578063b9cffa3e1461065a578063ba4861e91461066257610399565b8063a1ae275e116101c3578063a1ae275e146105ef578063acc043481461060f578063ae0a853014610617578063afe840091461061f57610399565b80638f32d59b146105cc57806392d894f8146105d4578063959083d3146105e757610399565b80634699f846116102ce5780636e6637301161026c5780637a8faeb81161023b5780637a8faeb8146105a15780638456cb59146105a95780638da5cb5b146105b15780638dc48ba5146105b957610399565b80636e663730146105765780637420ca3e14610589578063742e67981461059157806378d849ed1461059957610399565b8063569fc1fb116102a8578063569fc1fb14610515578063574442cc1461053757806362fff3f61461053f57806368c4ac261461056357610399565b80634699f846146104f25780634a1e88fe146104fa5780634f28cac21461050d57610399565b80632d9cd0761161033b5780633452d2d4116103155780633452d2d4146104a65780633fca506e146104b95780634115a2b6146104cc5780634203e395146104df57610399565b80632d9cd0761461046b5780632f4707641461048b5780633432423c1461049357610399565b80631b7bde74116103775780631b7bde7414610410578063218b39c61461043057806324cc5749146104435780632a3240271461046357610399565b8063065d810f146103ba5780630676c1b7146103e857806317548b79146103fd575b60405162461bcd60e51b81526004016103b190612140565b60405180910390fd5b6103cd6103c83660046119d0565b61079e565b6040516103df969594939291906121e2565b60405180910390f35b6103f06107de565b6040516103df9190611f2c565b6103f061040b366004611b37565b6107ed565b61042361041e366004611996565b610808565b6040516103df9190612160565b6103f061043e366004611970565b610825565b610456610451366004611970565b610840565b6040516103df9190611f9a565b610423610855565b61047e610479366004611a8f565b61085b565b6040516103df9190611f89565b610423610990565b6103cd6104a13660046119d0565b610996565b6104236104b4366004611970565b6109d6565b6104236104c7366004611970565b6109e8565b6104566104da366004611b18565b6109fa565b6104236104ed366004611970565b610a1a565b610423610a2c565b610423610508366004611996565b610a32565b610423610a5f565b610528610523366004611afa565b610a65565b6040516103df9392919061216e565b610423610a86565b61055261054d366004611996565b610a8c565b6040516103df959493929190612196565b610456610571366004611970565b610ac6565b6103f0610584366004611970565b610adb565b6103f0610af6565b610423610b05565b6103f0610b0b565b610423610b1a565b610456610b20565b6103f0610b29565b6103f06105c7366004611970565b610b38565b610456610b53565b6104236105e2366004611970565b610b79565b610423610b8b565b6106026105fd366004611ac4565b610b91565b6040516103df9190611f78565b610423610c3f565b610423610c45565b610627610c4b565b6040516103df91906120d2565b610423610642366004611970565b610c5a565b610423610655366004611970565b610c6c565b6103f0610c7e565b6103f0610c8d565b610423610678366004611970565b610c9c565b61069061068b366004611afa565b610cae565b6040516103df9c9b9a9998979695949392919061201f565b6106bb6106b6366004611970565b610d20565b005b6104236106cb366004611afa565b610e35565b6106e36106de366004611afa565b610e4a565b6040516103df989796959493929190611fa8565b610423610705366004611996565b610e9c565b610602610718366004611a00565b610eb9565b6103f0610fa7565b610423610fb6565b61042361073b366004611970565b610fbc565b6103f0610fce565b610423610fdd565b610423610fe3565b6106bb610766366004611970565b610fe9565b610423611019565b61042361101f565b6103f0611025565b6103f0611034565b6106bb610799366004611a4d565b611043565b6009602090815260009283526040808420909152908252902080546001820154600283015460038401546004850154600590950154939492939192909186565b6031546001600160a01b031681565b6005602052600090815260409020546001600160a01b031681565b603b60209081526000928352604080842090915290825290205481565b6023602052600090815260409020546001600160a01b031681565b60326020526000908152604090205460ff1681565b60185481565b6060815160405190808252806020026020018201604052801561089857816020015b610885611734565b81526020019060019003908161087d5790505b5090506000805b835181101561097c576108b0611734565b600760008684815181106108c057fe5b6020908102919091018101518252818101929092526040908101600020815161010080820184528254808352600184015460ff811615159684019690965294046001600160a01b039081169382019390935260028201548316606082015260038201549092166080830152600481015460a0830152600581015460c08301526006015460e082015291506109545750610974565b8084848151811061096157fe5b6020908102919091010152506001909101905b60010161089f565b50815181101561098a578082525b50919050565b601f5481565b6008602090815260009283526040808420909152908252902080546001820154600283015460038401546004850154600590950154939492939192909186565b601a6020526000908152604090205481565b602a6020526000908152604090205481565b600a60209081526000928352604080842090915290825290205460ff1681565b60166020526000908152604090205481565b60155481565b6001600160a01b038083166000908152600b60209081526040808320938516835292905220545b92915050565b60295481565b600c6020526000908152604090208054600182015460029092015490919083565b602b5481565b600b602090815260009283526040808420909152908252902080546001820154600283015460038401546004909401549293919290919085565b60266020526000908152604090205460ff1681565b6033602052600090815260409020546001600160a01b031681565b6003546001600160a01b031681565b60355481565b6002546001600160a01b031681565b601e5481565b603d5460ff1681565b6001546001600160a01b031690565b6022602052600090815260409020546001600160a01b031681565b6001546000906001600160a01b0316610b6a611254565b6001600160a01b031614905090565b60176020526000908152604090205481565b602c5481565b603d5460609060ff1615610bb75760405162461bcd60e51b81526004016103b1906120e0565b604080518381526020808502820101909152828015610be0578160200160208202803883390190505b50905060005b82811015610c3857610c19848483818110610bfd57fe5b90506101000201803603610c149190810190611b55565b611258565b828281518110610c2557fe5b6020908102919091010152600101610be6565b5092915050565b602f5481565b60205481565b602d546001600160a01b031681565b601d6020526000908152604090205481565b601c6020526000908152604090205481565b6037546001600160a01b031681565b6004546001600160a01b031681565b60366020526000908152604090205481565b600660208190526000918252604090912080546001820154600283015460038401546004850154600586015496860154600787015460088801546009890154600a8a0154600b909a0154989a9799969860ff909616979496949593949293919290916001600160a01b0391821691168c565b610d28610b53565b610d445760405162461bcd60e51b81526004016103b190612110565b6350d713af60e11b600081905260056020527fd30397261808d9f908fb53c9c06f1db90c071662dd2733a285622dd2a05d930b546001600160a01b031690610d8c90836114b4565b610d9d637f187d3560e11b836114b4565b610dae6316ce683b60e11b836114b4565b610dbf63cf59e67b60e01b836114b4565b610dd063250f447f60e11b836114b4565b610de163ca74a5d960e01b836114b4565b6b4c6f616e53657474696e677360a01b826001600160a01b0316826001600160a01b03167f1420e3a2094d671bc2eb897941fa3d94ffa37f0cb6d530651946250a2151cb7f60405160405180910390a45050565b60009081526007602052604090206004015490565b6007602052600090815260409020805460018201546002830154600384015460048501546005860154600690960154949560ff8516956101009095046001600160a01b03908116959481169493169288565b603c60209081526000928352604080842090915290825290205481565b6001600160a01b0383166000908152601360205260408120606091610efc610ee08361152e565b610ef0878763ffffffff61153516565b9063ffffffff61155a16565b9050808510610f0d5750610fa09050565b83604051908082528060200260200182016040528015610f37578160200160208202803883390190505b50925060008582035b8015610f8f5785821415610f5357610f8f565b610f6984600019838a010163ffffffff61157016565b858381518110610f7557fe5b602090810291909101015260019091019060001901610f40565b5084811015610f9c578084525b5050505b9392505050565b6038546001600160a01b031681565b60275481565b60196020526000908152604090205481565b6014546001600160a01b031681565b601b5481565b60285481565b610ff1610b53565b61100d5760405162461bcd60e51b81526004016103b190612110565b61101681611594565b50565b60395481565b60215481565b602e546001600160a01b031681565b6030546001600160a01b031681565b603d5460ff16156110665760405162461bcd60e51b81526004016103b1906120e0565b60005b8181101561124f576007600084848481811061108157fe5b90506020020135815260200190815260200160002060010160019054906101000a90046001600160a01b03166001600160a01b0316336001600160a01b0316146110dd5760405162461bcd60e51b81526004016103b190612150565b6000600760008585858181106110ef57fe5b90506020020135815260200190815260200160002060010160006101000a81548160ff021916908315150217905550611126611734565b6007600085858581811061113657fe5b60209081029290920135835250818101929092526040908101600020815161010080820184528254808352600184015460ff811615159684019690965294046001600160a01b039081168285018190526002840154821660608401819052600385015490921660808401819052600485015460a08501819052600586015460c0860181905260069096015460e0860181905296519498509096929592947f33ba3970cc4ef3751cb2cf450d111607ca946ffdf885fd12fa1b527e7322d4d7946111ff9490611f3a565b60405180910390a480604001516001600160a01b031681600001517f79acc6f251e660ec98b41cefbc34894afd4f95c94f1ebf330c17bf965744581360405160405180910390a350600101611069565b505050565b3390565b600080826060015183608001518460a001518560c001518660e001514260405160200161128a96959493929190611ec2565b60408051601f19818403018152918152815160209283012060008181526007909352912054909150156112cf5760405162461bcd60e51b81526004016103b190612130565b60608301516001600160a01b0316158015906112f7575060808301516001600160a01b031615155b801561130a57508260c001518360a00151115b8015611327575060e083015115806113275750610e108360e00151115b6113435760405162461bcd60e51b81526004016103b190612120565b808352600160208085018281523360408088018281526000878152600786528281208a51815594519685018054925160ff1990931697151597909717610100600160a81b0319166101006001600160a01b03938416021790965560608901516002850180546001600160a01b031990811692841692909217905560808a0151600386018054909216921691909117905560a0880151600484015560c0880151600584015560e08801516006909301929092558352601390915290206114089082611616565b5082608001516001600160a01b031683606001516001600160a01b0316827f65f58dd38f9c97af071dcbb7fb2d3b9e16e6d89858396c9c9243a6ec16b7ec6b86604001518760a001518860c001518960e0015160405161146b9493929190611f3a565b60405180910390a482604001516001600160a01b0316817f6e233dbc3e1e4737da0f210a5bab972f5367ddaef0c4ba4027194f9cd03893ce60405160405180910390a392915050565b6001600160e01b03198216600090815260056020526040902080546001600160a01b0319166001600160a01b0383169081179091551561150f57611509600d6001600160e01b0319841663ffffffff61161616565b5061152a565b61124f600d6001600160e01b0319841663ffffffff61165e16565b5050565b6001015490565b600082820183811015610fa05760405162461bcd60e51b81526004016103b190612100565b60008183106115695781610fa0565b5090919050565b600082600101828154811061158157fe5b9060005260206000200154905092915050565b6001600160a01b0381166115ba5760405162461bcd60e51b81526004016103b1906120f0565b6001546040516001600160a01b038084169216907f8be0079c531659141344cd1fd0a4f28419497f9722a3daafe3b4186f6b6457e090600090a3600180546001600160a01b0319166001600160a01b0392909216919091179055565b6000611622838361171f565b6116565750600180830180548083018083556000928352602080842090920185905584835290859052604090912055610a59565b506000610a59565b600061166a838361171f565b1561165657600082815260208490526040902054600184015460001991820191018082146116e25760008560010182815481106116a357fe5b90600052602060002001549050808660010184815481106116c057fe5b6000918252602080832090910192909255918252869052604090206001830190555b600084815260208690526040812055600185018054806116fe57fe5b60019003818190600052602060002001600090559055600192505050610a59565b60009081526020919091526040902054151590565b6040805161010081018252600080825260208201819052918101829052606081018290526080810182905260a0810182905260c0810182905260e081019190915290565b8035610a59816122e0565b60008083601f84011261179557600080fd5b50813567ffffffffffffffff8111156117ad57600080fd5b6020830191508360208202830111156117c557600080fd5b9250929050565b600082601f8301126117dd57600080fd5b81356117f06117eb82612263565b61223c565b9150818183526020840193506020810190508385602084028201111561181557600080fd5b60005b83811015611841578161182b8882611899565b8452506020928301929190910190600101611818565b5050505092915050565b60008083601f84011261185d57600080fd5b50813567ffffffffffffffff81111561187557600080fd5b602083019150836101008202830111156117c557600080fd5b8035610a59816122f4565b8035610a59816122fd565b8035610a5981612306565b600061010082840312156118c257600080fd5b6118cd61010061223c565b905060006118db8484611899565b82525060206118ec8484830161188e565b602083015250604061190084828501611778565b604083015250606061191484828501611778565b606083015250608061192884828501611778565b60808301525060a061193c84828501611899565b60a08301525060c061195084828501611899565b60c08301525060e061196484828501611899565b60e08301525092915050565b60006020828403121561198257600080fd5b600061198e8484611778565b949350505050565b600080604083850312156119a957600080fd5b60006119b58585611778565b92505060206119c685828601611778565b9150509250929050565b600080604083850312156119e357600080fd5b60006119ef8585611778565b92505060206119c685828601611899565b600080600060608486031215611a1557600080fd5b6000611a218686611778565b9350506020611a3286828701611899565b9250506040611a4386828701611899565b9150509250925092565b60008060208385031215611a6057600080fd5b823567ffffffffffffffff811115611a7757600080fd5b611a8385828601611783565b92509250509250929050565b600060208284031215611aa157600080fd5b813567ffffffffffffffff811115611ab857600080fd5b61198e848285016117cc565b60008060208385031215611ad757600080fd5b823567ffffffffffffffff811115611aee57600080fd5b611a838582860161184b565b600060208284031215611b0c57600080fd5b600061198e8484611899565b60008060408385031215611b2b57600080fd5b60006119b58585611899565b600060208284031215611b4957600080fd5b600061198e84846118a4565b60006101008284031215611b6857600080fd5b600061198e84846118af565b6000611b808383611c6d565b505060200190565b6000611b948383611e14565b50506101000190565b611ba681612297565b82525050565b611ba6611bb882612297565b6122ce565b6000611bc88261228a565b611bd2818561228e565b9350611bdd83612284565b8060005b83811015611c0b578151611bf58882611b74565b9750611c0083612284565b925050600101611be1565b509495945050505050565b6000611c218261228a565b611c2b818561228e565b9350611c3683612284565b8060005b83811015611c0b578151611c4e8882611b88565b9750611c5983612284565b925050600101611c3a565b611ba6816122a2565b611ba6816122a7565b611ba6816122c3565b6000611c8c60068361228e565b6514185d5cd95960d21b815260200192915050565b6000611cae60268361228e565b7f4f776e61626c653a206e6577206f776e657220697320746865207a65726f206181526564647265737360d01b602082015260400192915050565b6000611cf6601b8361228e565b7f536166654d6174683a206164646974696f6e206f766572666c6f770000000000815260200192915050565b6000611d2f600c8361228e565b6b1d5b985d5d1a1bdc9a5e995960a21b815260200192915050565b6000611d57600e8361228e565b6d696e76616c696420706172616d7360901b815260200192915050565b6000611d8160118361228e565b706c6f616e506172616d732065786973747360781b815260200192915050565b6000611dae60238361228e565b7f4c6f616e53657474696e6773202d2066616c6c6261636b206e6f7420616c6c6f8152621dd95960ea1b602082015260400192915050565b6000611df360128361228e565b713ab730baba3437b934bd32b21037bbb732b960711b815260200192915050565b8051610100830190611e268482611c6d565b506020820151611e396020850182611c64565b506040820151611e4c6040850182611b9d565b506060820151611e5f6060850182611b9d565b506080820151611e726080850182611b9d565b5060a0820151611e8560a0850182611c6d565b5060c0820151611e9860c0850182611c6d565b5060e0820151611eab60e0850182611c6d565b50505050565b611ba6611ebd826122a7565b6122a7565b6000611ece8289611bac565b601482019150611ede8288611bac565b601482019150611eee8287611eb1565b602082019150611efe8286611eb1565b602082019150611f0e8285611eb1565b602082019150611f1e8284611eb1565b506020019695505050505050565b60208101610a598284611b9d565b60808101611f488287611b9d565b611f556020830186611c6d565b611f626040830185611c6d565b611f6f6060830184611c6d565b95945050505050565b60208082528101610fa08184611bbd565b60208082528101610fa08184611c16565b60208101610a598284611c64565b6101008101611fb7828b611c6d565b611fc4602083018a611c64565b611fd16040830189611b9d565b611fde6060830188611b9d565b611feb6080830187611b9d565b611ff860a0830186611c6d565b61200560c0830185611c6d565b61201260e0830184611c6d565b9998505050505050505050565b610180810161202e828f611c6d565b61203b602083018e611c6d565b612048604083018d611c6d565b612055606083018c611c64565b612062608083018b611c6d565b61206f60a083018a611c6d565b61207c60c0830189611c6d565b61208960e0830188611c6d565b612097610100830187611c6d565b6120a5610120830186611c6d565b6120b3610140830185611b9d565b6120c1610160830184611b9d565b9d9c50505050505050505050505050565b60208101610a598284611c76565b60208082528101610a5981611c7f565b60208082528101610a5981611ca1565b60208082528101610a5981611ce9565b60208082528101610a5981611d22565b60208082528101610a5981611d4a565b60208082528101610a5981611d74565b60208082528101610a5981611da1565b60208082528101610a5981611de6565b60208101610a598284611c6d565b6060810161217c8286611c6d565b6121896020830185611c6d565b61198e6040830184611c6d565b60a081016121a48288611c6d565b6121b16020830187611c6d565b6121be6040830186611c6d565b6121cb6060830185611c6d565b6121d86080830184611c6d565b9695505050505050565b60c081016121f08289611c6d565b6121fd6020830188611c6d565b61220a6040830187611c6d565b6122176060830186611c6d565b6122246080830185611c6d565b61223160a0830184611c6d565b979650505050505050565b60405181810167ffffffffffffffff8111828210171561225b57600080fd5b604052919050565b600067ffffffffffffffff82111561227a57600080fd5b5060209081020190565b60200190565b5190565b90815260200190565b6000610a59826122b7565b151590565b90565b6001600160e01b03191690565b6001600160a01b031690565b6000610a5982612297565b6000610a59826000610a598260601b90565b6122e981612297565b811461101657600080fd5b6122e9816122a2565b6122e9816122a7565b6122e9816122aa56fea365627a7a72315820b6f763d442c5ab68fb2652724436c5e0c3c918f45ab58eef29ce1cd2321cfe216c6578706572696d656e74616cf564736f6c63430005110040",
    "linkReferences": {}
  },
  "methodIdentifiers": {
    "admin()": "f851a440",
    "affiliateFeePercent()": "ae0a8530",
    "affiliateRewardsHeld(address)": "bdee453c",
    "affiliateTradingTokenFeePercent()": "f589a3e7",
    "affiliatesReferrerBalances(address,address)": "1b7bde74",
    "affiliatesUserReferrer(address)": "6e663730",
    "borrowerNonce(address)": "3fca506e",
    "borrowerOrders(address,bytes32)": "065d810f",
    "borrowingFeePercent()": "edab119f",
    "borrowingFeeTokensHeld(address)": "b7e15241",
    "borrowingFeeTokensPaid(address)": "b30643d9",
    "delegatedManagers(bytes32,address)": "4115a2b6",
    "disableLoanParams(bytes32[])": "fe30fa6a",
    "feeRebatePercent()": "acc04348",
    "feesController()": "e8f62764",
    "getLoanParams(bytes32[])": "2d9cd076",
    "getLoanParamsList(address,uint256,uint256)": "cf59e67b",
    "getTotalPrincipal(address,address)": "4a1e88fe",
    "initialize(address)": "c4d66de8",
    "isOwner()": "8f32d59b",
    "lenderInterest(address,address)": "62fff3f6",
    "lenderOrders(address,bytes32)": "3432423c",
    "lendingFeePercent()": "4699f846",
    "lendingFeeTokensHeld(address)": "4203e395",
    "lendingFeeTokensPaid(address)": "92d894f8",
    "liquidationIncentivePercent()": "f6ddc8b3",
    "loanInterest(bytes32)": "569fc1fb",
    "loanParams(bytes32)": "cb6eacd1",
    "loanPoolToUnderlying(address)": "8dc48ba5",
    "loans(bytes32)": "c4a90815",
    "lockedSOVAddress()": "d288208c",
    "logicTargets(bytes4)": "17548b79",
    "maxDisagreement()": "d473c2da",
    "maxSwapSize()": "4f28cac2",
    "minInitialMargin(bytes32)": "ca74a5d9",
    "minReferralsToPayout()": "742e6798",
    "owner()": "8da5cb5b",
    "pause()": "8456cb59",
    "priceFeeds()": "78d849ed",
    "protocolAddress()": "0676c1b7",
    "protocolTokenAddress()": "f706b1f2",
    "protocolTokenHeld()": "7a8faeb8",
    "protocolTokenPaid()": "2f470764",
    "rolloverBaseReward()": "574442cc",
    "rolloverFlexFeePercent()": "959083d3",
    "setupLoanParams((bytes32,bool,address,address,address,uint256,uint256,uint256)[])": "a1ae275e",
    "sourceBuffer()": "f0e085f5",
    "sovTokenAddress()": "b9cffa3e",
    "sovrynSwapContractRegistryAddress()": "ba4861e9",
    "specialRebates(address,address)": "cd5d808d",
    "supportedTokens(address)": "68c4ac26",
    "swapsImpl()": "7420ca3e",
    "tradingFeePercent()": "2a324027",
    "tradingFeeTokensHeld(address)": "d485045e",
    "tradingFeeTokensPaid(address)": "3452d2d4",
    "transferOwnership(address)": "f2fde38b",
    "underlyingToLoanPool(address)": "218b39c6",
    "userNotFirstTradeFlag(address)": "24cc5749",
    "wrbtcToken()": "afe84009"
  },
  "id": 171
}