{
  "abi": [
    {
      "anonymous": false,
      "inputs": [
        {
          "indexed": true,
          "internalType": "address",
          "name": "owner",
          "type": "address"
        },
        {
          "indexed": true,
          "internalType": "address",
          "name": "spender",
          "type": "address"
        },
        {
          "indexed": false,
          "internalType": "uint256",
          "name": "valueBefore",
          "type": "uint256"
        },
        {
          "indexed": false,
          "internalType": "uint256",
          "name": "valueAfter",
          "type": "uint256"
        }
      ],
      "name": "AllowanceUpdate",
      "type": "event"
    },
    {
      "anonymous": false,
      "inputs": [
        {
          "indexed": true,
          "internalType": "address",
          "name": "owner",
          "type": "address"
        },
        {
          "indexed": true,
          "internalType": "address",
          "name": "spender",
          "type": "address"
        },
        {
          "indexed": false,
          "internalType": "uint256",
          "name": "value",
          "type": "uint256"
        }
      ],
      "name": "Approval",
      "type": "event"
    },
    {
      "anonymous": false,
      "inputs": [
        {
          "indexed": true,
          "internalType": "address",
          "name": "burner",
          "type": "address"
        },
        {
          "indexed": false,
          "internalType": "uint256",
          "name": "tokenAmount",
          "type": "uint256"
        },
        {
          "indexed": false,
          "internalType": "uint256",
          "name": "assetAmount",
          "type": "uint256"
        },
        {
          "indexed": false,
          "internalType": "uint256",
          "name": "price",
          "type": "uint256"
        }
      ],
      "name": "Burn",
      "type": "event"
    },
    {
      "anonymous": false,
      "inputs": [
        {
          "indexed": false,
          "internalType": "address",
          "name": "borrower",
          "type": "address"
        },
        {
          "indexed": false,
          "internalType": "address",
          "name": "target",
          "type": "address"
        },
        {
          "indexed": false,
          "internalType": "address",
          "name": "loanToken",
          "type": "address"
        },
        {
          "indexed": false,
          "internalType": "uint256",
          "name": "loanAmount",
          "type": "uint256"
        }
      ],
      "name": "FlashBorrow",
      "type": "event"
    },
    {
      "anonymous": false,
      "inputs": [
        {
          "indexed": true,
          "internalType": "address",
          "name": "minter",
          "type": "address"
        },
        {
          "indexed": false,
          "internalType": "uint256",
          "name": "tokenAmount",
          "type": "uint256"
        },
        {
          "indexed": false,
          "internalType": "uint256",
          "name": "assetAmount",
          "type": "uint256"
        },
        {
          "indexed": false,
          "internalType": "uint256",
          "name": "price",
          "type": "uint256"
        }
      ],
      "name": "Mint",
      "type": "event"
    },
    {
      "anonymous": false,
      "inputs": [
        {
          "indexed": true,
          "internalType": "address",
          "name": "previousOwner",
          "type": "address"
        },
        {
          "indexed": true,
          "internalType": "address",
          "name": "newOwner",
          "type": "address"
        }
      ],
      "name": "OwnershipTransferred",
      "type": "event"
    },
    {
      "anonymous": false,
      "inputs": [
        {
          "indexed": true,
          "internalType": "address",
          "name": "from",
          "type": "address"
        },
        {
          "indexed": true,
          "internalType": "address",
          "name": "to",
          "type": "address"
        },
        {
          "indexed": false,
          "internalType": "uint256",
          "name": "value",
          "type": "uint256"
        }
      ],
      "name": "Transfer",
      "type": "event"
    },
    {
      "constant": true,
      "inputs": [],
      "name": "TINY_AMOUNT",
      "outputs": [
        {
          "internalType": "uint256",
          "name": "",
          "type": "uint256"
        }
      ],
      "payable": false,
      "stateMutability": "view",
      "type": "function"
    },
    {
      "constant": true,
      "inputs": [],
      "name": "VERSION",
      "outputs": [
        {
          "internalType": "uint256",
          "name": "",
          "type": "uint256"
        }
      ],
      "payable": false,
      "stateMutability": "view",
      "type": "function"
    },
    {
      "constant": true,
      "inputs": [],
      "name": "admin",
      "outputs": [
        {
          "internalType": "address",
          "name": "",
          "type": "address"
        }
      ],
      "payable": false,
      "stateMutability": "view",
      "type": "function"
    },
    {
      "constant": true,
      "inputs": [
        {
          "internalType": "address",
          "name": "_owner",
          "type": "address"
        },
        {
          "internalType": "address",
          "name": "_spender",
          "type": "address"
        }
      ],
      "name": "allowance",
      "outputs": [
        {
          "internalType": "uint256",
          "name": "",
          "type": "uint256"
        }
      ],
      "payable": false,
      "stateMutability": "view",
      "type": "function"
    },
    {
      "constant": false,
      "inputs": [
        {
          "internalType": "address",
          "name": "_spender",
          "type": "address"
        },
        {
          "internalType": "uint256",
          "name": "_value",
          "type": "uint256"
        }
      ],
      "name": "approve",
      "outputs": [
        {
          "internalType": "bool",
          "name": "",
          "type": "bool"
        }
      ],
      "payable": false,
      "stateMutability": "nonpayable",
      "type": "function"
    },
    {
      "constant": true,
      "inputs": [
        {
          "internalType": "address",
          "name": "_owner",
          "type": "address"
        }
      ],
      "name": "assetBalanceOf",
      "outputs": [
        {
          "internalType": "uint256",
          "name": "",
          "type": "uint256"
        }
      ],
      "payable": false,
      "stateMutability": "view",
      "type": "function"
    },
    {
      "constant": true,
      "inputs": [],
      "name": "avgBorrowInterestRate",
      "outputs": [
        {
          "internalType": "uint256",
          "name": "",
          "type": "uint256"
        }
      ],
      "payable": false,
      "stateMutability": "view",
      "type": "function"
    },
    {
      "constant": true,
      "inputs": [
        {
          "internalType": "address",
          "name": "_owner",
          "type": "address"
        }
      ],
      "name": "balanceOf",
      "outputs": [
        {
          "internalType": "uint256",
          "name": "",
          "type": "uint256"
        }
      ],
      "payable": false,
      "stateMutability": "view",
      "type": "function"
    },
    {
      "constant": true,
      "inputs": [],
      "name": "baseRate",
      "outputs": [
        {
          "internalType": "uint256",
          "name": "",
          "type": "uint256"
        }
      ],
      "payable": false,
      "stateMutability": "view",
      "type": "function"
    },
    {
      "constant": false,
      "inputs": [
        {
          "internalType": "bytes32",
          "name": "loanId",
          "type": "bytes32"
        },
        {
          "internalType": "uint256",
          "name": "withdrawAmount",
          "type": "uint256"
        },
        {
          "internalType": "uint256",
          "name": "initialLoanDuration",
          "type": "uint256"
        },
        {
          "internalType": "uint256",
          "name": "collateralTokenSent",
          "type": "uint256"
        },
        {
          "internalType": "address",
          "name": "collateralTokenAddress",
          "type": "address"
        },
        {
          "internalType": "address",
          "name": "borrower",
          "type": "address"
        },
        {
          "internalType": "address",
          "name": "receiver",
          "type": "address"
        },
        {
          "internalType": "bytes",
          "name": "",
          "type": "bytes"
        }
      ],
      "name": "borrow",
      "outputs": [
        {
          "internalType": "uint256",
          "name": "",
          "type": "uint256"
        },
        {
          "internalType": "uint256",
          "name": "",
          "type": "uint256"
        }
      ],
      "payable": true,
      "stateMutability": "payable",
      "type": "function"
    },
    {
      "constant": true,
      "inputs": [],
      "name": "borrowInterestRate",
      "outputs": [
        {
          "internalType": "uint256",
          "name": "",
          "type": "uint256"
        }
      ],
      "payable": false,
      "stateMutability": "view",
      "type": "function"
    },
    {
      "constant": false,
      "inputs": [
        {
          "internalType": "address",
          "name": "receiver",
          "type": "address"
        },
        {
          "internalType": "uint256",
          "name": "burnAmount",
          "type": "uint256"
        }
      ],
      "name": "burn",
      "outputs": [
        {
          "internalType": "uint256",
          "name": "loanAmountPaid",
          "type": "uint256"
        }
      ],
      "payable": false,
      "stateMutability": "nonpayable",
      "type": "function"
    },
    {
      "constant": false,
      "inputs": [
        {
          "internalType": "address",
          "name": "receiver",
          "type": "address"
        },
        {
          "internalType": "uint256",
          "name": "burnAmount",
          "type": "uint256"
        },
        {
          "internalType": "bool",
          "name": "useLM",
          "type": "bool"
        }
      ],
      "name": "burnToBTC",
      "outputs": [
        {
          "internalType": "uint256",
          "name": "loanAmountPaid",
          "type": "uint256"
        }
      ],
      "payable": false,
      "stateMutability": "nonpayable",
      "type": "function"
    },
    {
      "constant": true,
      "inputs": [
        {
          "internalType": "uint256",
          "name": "assetBorrow",
          "type": "uint256"
        },
        {
          "internalType": "uint256",
          "name": "assetSupply",
          "type": "uint256"
        }
      ],
      "name": "calculateSupplyInterestRate",
      "outputs": [
        {
          "internalType": "uint256",
          "name": "",
          "type": "uint256"
        }
      ],
      "payable": false,
      "stateMutability": "view",
      "type": "function"
    },
    {
      "constant": true,
      "inputs": [
        {
          "internalType": "uint256",
          "name": "loanTokenSent",
          "type": "uint256"
        },
        {
          "internalType": "address",
          "name": "collateralTokenAddress",
          "type": "address"
        },
        {
          "internalType": "uint256",
          "name": "minEntryPrice",
          "type": "uint256"
        }
      ],
      "name": "checkPriceDivergence",
      "outputs": [],
      "payable": false,
      "stateMutability": "view",
      "type": "function"
    },
    {
      "constant": true,
      "inputs": [
        {
          "internalType": "address",
          "name": "_user",
          "type": "address"
        }
      ],
      "name": "checkpointPrice",
      "outputs": [
        {
          "internalType": "uint256",
          "name": "price",
          "type": "uint256"
        }
      ],
      "payable": false,
      "stateMutability": "view",
      "type": "function"
    },
    {
      "constant": true,
      "inputs": [],
      "name": "checkpointSupply",
      "outputs": [
        {
          "internalType": "uint256",
          "name": "",
          "type": "uint256"
        }
      ],
      "payable": false,
      "stateMutability": "view",
      "type": "function"
    },
    {
      "constant": true,
      "inputs": [],
      "name": "decimals",
      "outputs": [
        {
          "internalType": "uint8",
          "name": "",
          "type": "uint8"
        }
      ],
      "payable": false,
      "stateMutability": "view",
      "type": "function"
    },
    {
      "constant": true,
      "inputs": [],
      "name": "earlyAccessToken",
      "outputs": [
        {
          "internalType": "address",
          "name": "",
          "type": "address"
        }
      ],
      "payable": false,
      "stateMutability": "view",
      "type": "function"
    },
    {
      "constant": true,
      "inputs": [
        {
          "internalType": "uint256",
          "name": "depositAmount",
          "type": "uint256"
        },
        {
          "internalType": "uint256",
          "name": "initialLoanDuration",
          "type": "uint256"
        },
        {
          "internalType": "address",
          "name": "collateralTokenAddress",
          "type": "address"
        }
      ],
      "name": "getBorrowAmountForDeposit",
      "outputs": [
        {
          "internalType": "uint256",
          "name": "borrowAmount",
          "type": "uint256"
        }
      ],
      "payable": false,
      "stateMutability": "view",
      "type": "function"
    },
    {
      "constant": true,
      "inputs": [
        {
          "internalType": "uint256",
          "name": "borrowAmount",
          "type": "uint256"
        },
        {
          "internalType": "uint256",
          "name": "initialLoanDuration",
          "type": "uint256"
        },
        {
          "internalType": "address",
          "name": "collateralTokenAddress",
          "type": "address"
        }
      ],
      "name": "getDepositAmountForBorrow",
      "outputs": [
        {
          "internalType": "uint256",
          "name": "depositAmount",
          "type": "uint256"
        }
      ],
      "payable": false,
      "stateMutability": "view",
      "type": "function"
    },
    {
      "constant": true,
      "inputs": [
        {
          "internalType": "uint256",
          "name": "leverageAmount",
          "type": "uint256"
        },
        {
          "internalType": "uint256",
          "name": "loanTokenSent",
          "type": "uint256"
        },
        {
          "internalType": "uint256",
          "name": "collateralTokenSent",
          "type": "uint256"
        },
        {
          "internalType": "address",
          "name": "collateralTokenAddress",
          "type": "address"
        }
      ],
      "name": "getEstimatedMarginDetails",
      "outputs": [
        {
          "internalType": "uint256",
          "name": "principal",
          "type": "uint256"
        },
        {
          "internalType": "uint256",
          "name": "collateral",
          "type": "uint256"
        },
        {
          "internalType": "uint256",
          "name": "interestRate",
          "type": "uint256"
        }
      ],
      "payable": false,
      "stateMutability": "view",
      "type": "function"
    },
    {
      "constant": true,
      "inputs": [],
      "name": "getListFunctionSignatures",
      "outputs": [
        {
          "internalType": "bytes4[]",
          "name": "functionSignatures",
          "type": "bytes4[]"
        },
        {
          "internalType": "bytes32",
          "name": "moduleName",
          "type": "bytes32"
        }
      ],
      "payable": false,
      "stateMutability": "pure",
      "type": "function"
    },
    {
      "constant": true,
      "inputs": [
        {
          "internalType": "uint256",
          "name": "leverageAmount",
          "type": "uint256"
        }
      ],
      "name": "getMaxEscrowAmount",
      "outputs": [
        {
          "internalType": "uint256",
          "name": "maxEscrowAmount",
          "type": "uint256"
        }
      ],
      "payable": false,
      "stateMutability": "view",
      "type": "function"
    },
    {
      "constant": true,
      "inputs": [],
      "name": "initialPrice",
      "outputs": [
        {
          "internalType": "uint256",
          "name": "",
          "type": "uint256"
        }
      ],
      "payable": false,
      "stateMutability": "view",
      "type": "function"
    },
    {
      "constant": true,
      "inputs": [],
      "name": "isOwner",
      "outputs": [
        {
          "internalType": "bool",
          "name": "",
          "type": "bool"
        }
      ],
      "payable": false,
      "stateMutability": "view",
      "type": "function"
    },
    {
      "constant": true,
      "inputs": [],
      "name": "kinkLevel",
      "outputs": [
        {
          "internalType": "uint256",
          "name": "",
          "type": "uint256"
        }
      ],
      "payable": false,
      "stateMutability": "view",
      "type": "function"
    },
    {
      "constant": true,
      "inputs": [],
      "name": "liquidityMiningAddress",
      "outputs": [
        {
          "internalType": "address",
          "name": "",
          "type": "address"
        }
      ],
      "payable": false,
      "stateMutability": "view",
      "type": "function"
    },
    {
      "constant": true,
      "inputs": [
        {
          "internalType": "uint256",
          "name": "",
          "type": "uint256"
        }
      ],
      "name": "loanParamsIds",
      "outputs": [
        {
          "internalType": "bytes32",
          "name": "",
          "type": "bytes32"
        }
      ],
      "payable": false,
      "stateMutability": "view",
      "type": "function"
    },
    {
      "constant": true,
      "inputs": [],
      "name": "loanTokenAddress",
      "outputs": [
        {
          "internalType": "address",
          "name": "",
          "type": "address"
        }
      ],
      "payable": false,
      "stateMutability": "view",
      "type": "function"
    },
    {
      "constant": true,
      "inputs": [],
      "name": "lowUtilBaseRate",
      "outputs": [
        {
          "internalType": "uint256",
          "name": "",
          "type": "uint256"
        }
      ],
      "payable": false,
      "stateMutability": "view",
      "type": "function"
    },
    {
      "constant": true,
      "inputs": [],
      "name": "lowUtilRateMultiplier",
      "outputs": [
        {
          "internalType": "uint256",
          "name": "",
          "type": "uint256"
        }
      ],
      "payable": false,
      "stateMutability": "view",
      "type": "function"
    },
    {
      "constant": false,
      "inputs": [
        {
          "internalType": "bytes32",
          "name": "loanId",
          "type": "bytes32"
        },
        {
          "internalType": "uint256",
          "name": "leverageAmount",
          "type": "uint256"
        },
        {
          "internalType": "uint256",
          "name": "loanTokenSent",
          "type": "uint256"
        },
        {
          "internalType": "uint256",
          "name": "collateralTokenSent",
          "type": "uint256"
        },
        {
          "internalType": "address",
          "name": "collateralTokenAddress",
          "type": "address"
        },
        {
          "internalType": "address",
          "name": "trader",
          "type": "address"
        },
        {
          "internalType": "uint256",
          "name": "minEntryPrice",
          "type": "uint256"
        },
        {
          "internalType": "bytes",
          "name": "loanDataBytes",
          "type": "bytes"
        }
      ],
      "name": "marginTrade",
      "outputs": [
        {
          "internalType": "uint256",
          "name": "",
          "type": "uint256"
        },
        {
          "internalType": "uint256",
          "name": "",
          "type": "uint256"
        }
      ],
      "payable": true,
      "stateMutability": "payable",
      "type": "function"
    },
    {
      "constant": false,
      "inputs": [
        {
          "internalType": "bytes32",
          "name": "loanId",
          "type": "bytes32"
        },
        {
          "internalType": "uint256",
          "name": "leverageAmount",
          "type": "uint256"
        },
        {
          "internalType": "uint256",
          "name": "loanTokenSent",
          "type": "uint256"
        },
        {
          "internalType": "uint256",
          "name": "collateralTokenSent",
          "type": "uint256"
        },
        {
          "internalType": "address",
          "name": "collateralTokenAddress",
          "type": "address"
        },
        {
          "internalType": "address",
          "name": "trader",
          "type": "address"
        },
        {
          "internalType": "uint256",
          "name": "minEntryPrice",
          "type": "uint256"
        },
        {
          "internalType": "address",
          "name": "affiliateReferrer",
          "type": "address"
        },
        {
          "internalType": "bytes",
          "name": "loanDataBytes",
          "type": "bytes"
        }
      ],
      "name": "marginTradeAffiliate",
      "outputs": [
        {
          "internalType": "uint256",
          "name": "",
          "type": "uint256"
        },
        {
          "internalType": "uint256",
          "name": "",
          "type": "uint256"
        }
      ],
      "payable": true,
      "stateMutability": "payable",
      "type": "function"
    },
    {
      "constant": true,
      "inputs": [],
      "name": "marketLiquidity",
      "outputs": [
        {
          "internalType": "uint256",
          "name": "",
          "type": "uint256"
        }
      ],
      "payable": false,
      "stateMutability": "view",
      "type": "function"
    },
    {
      "constant": true,
      "inputs": [],
      "name": "maxScaleRate",
      "outputs": [
        {
          "internalType": "uint256",
          "name": "",
          "type": "uint256"
        }
      ],
      "payable": false,
      "stateMutability": "view",
      "type": "function"
    },
    {
      "constant": false,
      "inputs": [
        {
          "internalType": "address",
          "name": "receiver",
          "type": "address"
        },
        {
          "internalType": "uint256",
          "name": "depositAmount",
          "type": "uint256"
        }
      ],
      "name": "mint",
      "outputs": [
        {
          "internalType": "uint256",
          "name": "mintAmount",
          "type": "uint256"
        }
      ],
      "payable": false,
      "stateMutability": "nonpayable",
      "type": "function"
    },
    {
      "constant": false,
      "inputs": [
        {
          "internalType": "address",
          "name": "receiver",
          "type": "address"
        },
        {
          "internalType": "bool",
          "name": "useLM",
          "type": "bool"
        }
      ],
      "name": "mintWithBTC",
      "outputs": [
        {
          "internalType": "uint256",
          "name": "mintAmount",
          "type": "uint256"
        }
      ],
      "payable": true,
      "stateMutability": "payable",
      "type": "function"
    },
    {
      "constant": true,
      "inputs": [],
      "name": "name",
      "outputs": [
        {
          "internalType": "string",
          "name": "",
          "type": "string"
        }
      ],
      "payable": false,
      "stateMutability": "view",
      "type": "function"
    },
    {
      "constant": true,
      "inputs": [
        {
          "internalType": "uint256",
          "name": "borrowAmount",
          "type": "uint256"
        }
      ],
      "name": "nextBorrowInterestRate",
      "outputs": [
        {
          "internalType": "uint256",
          "name": "",
          "type": "uint256"
        }
      ],
      "payable": false,
      "stateMutability": "view",
      "type": "function"
    },
    {
      "constant": true,
      "inputs": [
        {
          "internalType": "uint256",
          "name": "supplyAmount",
          "type": "uint256"
        }
      ],
      "name": "nextSupplyInterestRate",
      "outputs": [
        {
          "internalType": "uint256",
          "name": "",
          "type": "uint256"
        }
      ],
      "payable": false,
      "stateMutability": "view",
      "type": "function"
    },
    {
      "constant": true,
      "inputs": [],
      "name": "owner",
      "outputs": [
        {
          "internalType": "address",
          "name": "",
          "type": "address"
        }
      ],
      "payable": false,
      "stateMutability": "view",
      "type": "function"
    },
    {
      "constant": true,
      "inputs": [],
      "name": "pauser",
      "outputs": [
        {
          "internalType": "address",
          "name": "",
          "type": "address"
        }
      ],
      "payable": false,
      "stateMutability": "view",
      "type": "function"
    },
    {
      "constant": true,
      "inputs": [
        {
          "internalType": "address",
          "name": "user",
          "type": "address"
        }
      ],
      "name": "profitOf",
      "outputs": [
        {
          "internalType": "int256",
          "name": "",
          "type": "int256"
        }
      ],
      "payable": false,
      "stateMutability": "view",
      "type": "function"
    },
    {
      "constant": true,
      "inputs": [],
      "name": "rateMultiplier",
      "outputs": [
        {
          "internalType": "uint256",
          "name": "",
          "type": "uint256"
        }
      ],
      "payable": false,
      "stateMutability": "view",
      "type": "function"
    },
    {
      "constant": true,
      "inputs": [],
      "name": "sovrynContractAddress",
      "outputs": [
        {
          "internalType": "address",
          "name": "",
          "type": "address"
        }
      ],
      "payable": false,
      "stateMutability": "view",
      "type": "function"
    },
    {
      "constant": true,
      "inputs": [
        {
          "internalType": "string",
          "name": "source",
          "type": "string"
        }
      ],
      "name": "stringToBytes32",
      "outputs": [
        {
          "internalType": "bytes32",
          "name": "result",
          "type": "bytes32"
        }
      ],
      "payable": false,
      "stateMutability": "pure",
      "type": "function"
    },
    {
      "constant": true,
      "inputs": [],
      "name": "supplyInterestRate",
      "outputs": [
        {
          "internalType": "uint256",
          "name": "",
          "type": "uint256"
        }
      ],
      "payable": false,
      "stateMutability": "view",
      "type": "function"
    },
    {
      "constant": true,
      "inputs": [],
      "name": "symbol",
      "outputs": [
        {
          "internalType": "string",
          "name": "",
          "type": "string"
        }
      ],
      "payable": false,
      "stateMutability": "view",
      "type": "function"
    },
    {
      "constant": true,
      "inputs": [],
      "name": "targetLevel",
      "outputs": [
        {
          "internalType": "uint256",
          "name": "",
          "type": "uint256"
        }
      ],
      "payable": false,
      "stateMutability": "view",
      "type": "function"
    },
    {
      "constant": true,
      "inputs": [],
      "name": "target_",
      "outputs": [
        {
          "internalType": "address",
          "name": "",
          "type": "address"
        }
      ],
      "payable": false,
      "stateMutability": "view",
      "type": "function"
    },
    {
      "constant": true,
      "inputs": [],
      "name": "tokenPrice",
      "outputs": [
        {
          "internalType": "uint256",
          "name": "price",
          "type": "uint256"
        }
      ],
      "payable": false,
      "stateMutability": "view",
      "type": "function"
    },
    {
      "constant": true,
      "inputs": [],
      "name": "totalAssetBorrow",
      "outputs": [
        {
          "internalType": "uint256",
          "name": "",
          "type": "uint256"
        }
      ],
      "payable": false,
      "stateMutability": "view",
      "type": "function"
    },
    {
      "constant": true,
      "inputs": [],
      "name": "totalAssetSupply",
      "outputs": [
        {
          "internalType": "uint256",
          "name": "",
          "type": "uint256"
        }
      ],
      "payable": false,
      "stateMutability": "view",
      "type": "function"
    },
    {
      "constant": true,
      "inputs": [],
      "name": "totalSupply",
      "outputs": [
        {
          "internalType": "uint256",
          "name": "",
          "type": "uint256"
        }
      ],
      "payable": false,
      "stateMutability": "view",
      "type": "function"
    },
    {
      "constant": true,
      "inputs": [
        {
          "internalType": "uint256",
          "name": "assetSupply",
          "type": "uint256"
        }
      ],
      "name": "totalSupplyInterestRate",
      "outputs": [
        {
          "internalType": "uint256",
          "name": "",
          "type": "uint256"
        }
      ],
      "payable": false,
      "stateMutability": "view",
      "type": "function"
    },
    {
      "constant": true,
      "inputs": [
        {
          "internalType": "address",
          "name": "",
          "type": "address"
        }
      ],
      "name": "transactionLimit",
      "outputs": [
        {
          "internalType": "uint256",
          "name": "",
          "type": "uint256"
        }
      ],
      "payable": false,
      "stateMutability": "view",
      "type": "function"
    },
    {
      "constant": false,
      "inputs": [
        {
          "internalType": "address",
          "name": "_to",
          "type": "address"
        },
        {
          "internalType": "uint256",
          "name": "_value",
          "type": "uint256"
        }
      ],
      "name": "transfer",
      "outputs": [
        {
          "internalType": "bool",
          "name": "",
          "type": "bool"
        }
      ],
      "payable": false,
      "stateMutability": "nonpayable",
      "type": "function"
    },
    {
      "constant": false,
      "inputs": [
        {
          "internalType": "address",
          "name": "_from",
          "type": "address"
        },
        {
          "internalType": "address",
          "name": "_to",
          "type": "address"
        },
        {
          "internalType": "uint256",
          "name": "_value",
          "type": "uint256"
        }
      ],
      "name": "transferFrom",
      "outputs": [
        {
          "internalType": "bool",
          "name": "",
          "type": "bool"
        }
      ],
      "payable": false,
      "stateMutability": "nonpayable",
      "type": "function"
    },
    {
      "constant": false,
      "inputs": [
        {
          "internalType": "address",
          "name": "newOwner",
          "type": "address"
        }
      ],
      "name": "transferOwnership",
      "outputs": [],
      "payable": false,
      "stateMutability": "nonpayable",
      "type": "function"
    },
    {
      "constant": true,
      "inputs": [],
      "name": "wrbtcTokenAddress",
      "outputs": [
        {
          "internalType": "address",
          "name": "",
          "type": "address"
        }
      ],
      "payable": false,
      "stateMutability": "view",
      "type": "function"
    }
  ],
  "bytecode": {
    "object": "0x6080604052600160009081556200001e6001600160e01b036200007216565b600180546001600160a01b0319166001600160a01b038316908117909155604051919250906000907f8be0079c531659141344cd1fd0a4f28419497f9722a3daafe3b4186f6b6457e0908290a35062000076565b3390565b615fd080620000866000396000f3fe6080604052600436106103a25760003560e01c80637b7933b4116101e7578063b9fe1a8f1161010d578063eebc5081116100a0578063f851a4401161006f578063f851a440146109cd578063f8dd4f0e146109e2578063fb5f83df146109f7578063ffa1ad7414610a0a576103a2565b8063eebc508114610965578063ef2b0b3914610985578063f2fde38b1461099a578063f6b69f99146109ba576103a2565b8063d65a5021116100dc578063d65a5021146108f0578063d759dbeb14610910578063dd62ed3e14610925578063e41b07e314610945576103a2565b8063b9fe1a8f14610886578063ba0e43bf146108a6578063ca37e666146108bb578063cfb51928146108d0576103a2565b80638f32d59b116101855780639bda3a98116101545780639bda3a981461081c5780639dc29fac146108315780639fd0506d14610851578063a9059cbb14610866576103a2565b80638f32d59b146107ba5780638fb807c5146107cf57806390967de5146107e457806395d89b4114610807576103a2565b8063829b38f4116101c1578063829b38f41461075b5780638325a1c01461077b5780638da5cb5b146107905780638ee6c4e6146107a5576103a2565b80637b7933b41461071c5780637e37c08c146107315780637ff9b59614610746576103a2565b80632ea295fa116102cc57806354198ce91161026a5780636b40cd40116102395780636b40cd40146106985780636d23d1ac146106c757806370a08231146106e7578063797bf38514610707576103a2565b806354198ce91461062e57806356e07d701461064e578063612ef80b14610663578063631a3ef814610678576103a2565b80633291c11a116102a65780633291c11a146105c4578063330691ac146105e457806340c10f19146105f957806344a4a00314610619576103a2565b80632ea295fa1461057a5780632f6b600d1461058d578063313ce567146105a2576103a2565b806310e57644116103445780631f68f20a116103135780631f68f20a1461050f57806320f6d07c1461052457806323b872dd1461053957806328a02f1914610559576103a2565b806310e57644146104a357806312416898146104c557806318160ddd146104e55780631d0806ae146104fa576103a2565b806306b3efd61161038057806306b3efd61461041f57806306fdde031461043f578063095ea7b31461046157806309ec6b6b1461048e576103a2565b806304797930146103a75780630506af04146103dd57806306947a3a146103fd575b600080fd5b3480156103b357600080fd5b506103c76103c2366004615012565b610a1f565b6040516103d49190615b84565b60405180910390f35b3480156103e957600080fd5b506103c76103f8366004614c98565b610bc8565b34801561040957600080fd5b50610412610dcc565b6040516103d491906159fd565b34801561042b57600080fd5b506103c761043a366004614b75565b610ddb565b34801561044b57600080fd5b50610454610ec7565b6040516103d49190615c03565b34801561046d57600080fd5b5061048161047c366004614c68565b610f52565b6040516103d49190615b76565b34801561049a57600080fd5b506103c7610fbd565b3480156104af57600080fd5b506104c36104be366004614fa2565b610fd2565b005b3480156104d157600080fd5b506103c76104e0366004614f66565b6110ac565b3480156104f157600080fd5b506103c76110d7565b34801561050657600080fd5b506103c76110dd565b34801561051b57600080fd5b506103c76110e3565b34801561053057600080fd5b506103c76110e9565b34801561054557600080fd5b50610481610554366004614beb565b611178565b61056c610567366004614ea2565b611241565b6040516103d4929190615e14565b61056c610588366004614cf9565b6115d3565b34801561059957600080fd5b5061041261195a565b3480156105ae57600080fd5b506105b7611969565b6040516103d49190615e3d565b3480156105d057600080fd5b506103c76105df366004614f66565b611972565b3480156105f057600080fd5b506103c7611984565b34801561060557600080fd5b506103c7610614366004614c68565b61198a565b34801561062557600080fd5b506103c7611afd565b34801561063a57600080fd5b506103c7610649366004614b75565b611b0f565b34801561065a57600080fd5b506103c7611bb0565b34801561066f57600080fd5b506103c7611bb6565b34801561068457600080fd5b506103c7610693366004615012565b611be7565b3480156106a457600080fd5b506106b86106b3366004615055565b611d87565b6040516103d493929190615e22565b3480156106d357600080fd5b506103c76106e2366004614fc3565b611e98565b3480156106f357600080fd5b506103c7610702366004614b75565b611f7b565b34801561071357600080fd5b50610412611f96565b34801561072857600080fd5b506103c7611faa565b34801561073d57600080fd5b506103c7611fb0565b34801561075257600080fd5b506103c7611fb6565b34801561076757600080fd5b506103c7610776366004614f66565b611ff4565b34801561078757600080fd5b506103c7612074565b34801561079c57600080fd5b50610412612080565b3480156107b157600080fd5b5061041261208f565b3480156107c657600080fd5b5061048161209e565b3480156107db57600080fd5b506103c76120c4565b3480156107f057600080fd5b506107f96120f4565b6040516103d4929190615b56565b34801561081357600080fd5b50610454612780565b34801561082857600080fd5b506104126127db565b34801561083d57600080fd5b506103c761084c366004614c68565b6127ea565b34801561085d57600080fd5b506104126128ec565b34801561087257600080fd5b50610481610881366004614c68565b6128fb565b34801561089257600080fd5b506103c76108a1366004614f66565b61290b565b3480156108b257600080fd5b506103c7612916565b3480156108c757600080fd5b5061041261291c565b3480156108dc57600080fd5b506103c76108eb366004614f31565b61292b565b3480156108fc57600080fd5b506103c761090b366004614f66565b612949565b34801561091c57600080fd5b506103c761295c565b34801561093157600080fd5b506103c7610940366004614bb1565b612962565b34801561095157600080fd5b506103c7610960366004614b75565b61298d565b34801561097157600080fd5b506103c7610980366004614b75565b61299f565b34801561099157600080fd5b506103c76129ba565b3480156109a657600080fd5b506104c36109b5366004614b75565b6129c0565b61056c6109c8366004614dc1565b6129f0565b3480156109d957600080fd5b50610412612ac0565b3480156109ee57600080fd5b506103c7612acf565b6103c7610a05366004614c38565b612ad9565b348015610a1657600080fd5b506103c7612bb1565b60008315610bc1576001600160a01b038216610a44576017546001600160a01b031691505b600060106000846001604051602001610a5e92919061597e565b60408051601f19818403018152918152815160209283012083529082019290925281016000205460165460048054935163ca74a5d960e01b81529294506001600160a01b039182169363e762319f936101009091049092169187918a91869163ca74a5d991610acf918a9101615b84565b60206040518083038186803b158015610ae757600080fd5b505afa158015610afb573d6000803e3d6000fd5b505050506040513d601f19601f82011682018060405250610b1f9190810190614f84565b60016040518663ffffffff1660e01b8152600401610b41959493929190615a77565b60206040518083038186803b158015610b5957600080fd5b505afa158015610b6d573d6000803e3d6000fd5b505050506040513d601f19601f82011682018060405250610b919190810190614f84565b9150610ba582610b9f6120c4565b86612bb6565b9350610bb39150612c2f9050565b821115610bbf57600091505b505b9392505050565b6000600160005414610bf55760405162461bcd60e51b8152600401610bec90615dc4565b60405180910390fd5b6002600081905550600073ba10edd6abc7696eae685839217bdcc42139612b6001600160a01b031663ed04e1c36040518163ffffffff1660e01b8152600401602060405180830381600087803b158015610c4e57600080fd5b505af1158015610c62573d6000803e3d6000fd5b505050506040513d601f19601f82011682018060405250610c869190810190614f84565b90508215610c9e57610c9784612c65565b9150610caa565b610ca784612e0b565b91505b8115610d1c57601754604051632e1a7d4d60e01b81526001600160a01b0390911690632e1a7d4d90610ce0908590600401615b84565b600060405180830381600087803b158015610cfa57600080fd5b505af1158015610d0e573d6000803e3d6000fd5b50505050610d1c8583612fc2565b73ba10edd6abc7696eae685839217bdcc42139612b6001600160a01b0316633fa4f2456040518163ffffffff1660e01b815260040160206040518083038186803b158015610d6957600080fd5b505afa158015610d7d573d6000803e3d6000fd5b505050506040513d601f19601f82011682018060405250610da19190810190614f84565b8114610dbf5760405162461bcd60e51b8152600401610bec90615c14565b5060016000559392505050565b6016546001600160a01b031681565b601c5460009081906001600160a01b031615610e7657601c54604051636822955360e11b81526001600160a01b039091169063d0452aa690610e239030908790600401615a19565b60206040518083038186803b158015610e3b57600080fd5b505afa158015610e4f573d6000803e3d6000fd5b505050506040513d601f19601f82011682018060405250610e739190810190614f84565b90505b610ebe670de0b6b3a7640000610eb2610e8d611fb6565b610ea685610e9a89611f7b565b9063ffffffff61306316565b9063ffffffff61308816565b9063ffffffff6130c216565b9150505b919050565b6002805460408051602060018416156101000260001901909316849004601f81018490048402820184019092528181529291830182828015610f4a5780601f10610f1f57610100808354040283529160200191610f4a565b820191906000526020600020905b815481529060010190602001808311610f2d57829003601f168201915b505050505081565b3360008181526014602090815260408083206001600160a01b038716808552925280832085905551919290917f8c5be1e5ebec7d5bd14f71427d1e84f3dd0314c0f7b2291e5b200ac8c7c3b92590610fab908690615b84565b60405180910390a35060015b92915050565b6000610fcc6104e06000613104565b90505b90565b60165460048054604051631a51577760e21b81526000936001600160a01b03908116936369455ddc93611013936101009091049092169188918a9101615a4f565b60206040518083038186803b15801561102b57600080fd5b505afa15801561103f573d6000803e3d6000fd5b505050506040513d601f19601f820116820180604052506110639190810190614f84565b9050600061108385610eb284670de0b6b3a764000063ffffffff61308816565b9050828110156110a55760405162461bcd60e51b8152600401610bec90615c64565b5050505050565b6000806110b76110e9565b905080156110d1576110c98184611e98565b915050610ec2565b50919050565b60155490565b600e5481565b60055481565b6016546004805460405163250f447f60e11b81526000936001600160a01b0390811693634a1e88fe936111289330936101009092049091169101615a19565b60206040518083038186803b15801561114057600080fd5b505afa158015611154573d6000803e3d6000fd5b505050506040513d601f19601f82011682018060405250610fcc9190810190614f84565b60165460405163115dd4b160e01b8152600091611239918691869186916001600160a01b03169063115dd4b1906111b3903390600401615a0b565b60206040518083038186803b1580156111cb57600080fd5b505afa1580156111df573d6000803e3d6000fd5b505050506040513d601f19601f820116820180604052506112039190810190614cdb565b611230576001600160a01b0388166000908152601460209081526040808320338452909152902054611234565b6000195b61313e565b949350505050565b6000806001600054146112665760405162461bcd60e51b8152600401610bec90615dc4565b6002600081905550600073ba10edd6abc7696eae685839217bdcc42139612b6001600160a01b031663ed04e1c36040518163ffffffff1660e01b8152600401602060405180830381600087803b1580156112bf57600080fd5b505af11580156112d3573d6000803e3d6000fd5b505050506040513d601f19601f820116820180604052506112f79190810190614f84565b905061130161334e565b6001600160a01b03871661131e576017546001600160a01b031696505b6004546001600160a01b038881166101009092041614156113515760405162461bcd60e51b8152600401610bec90615cf4565b8a15806113665750336001600160a01b038716145b6113825760405162461bcd60e51b8152600401610bec90615de4565b6001600160a01b038716600090815260126020526040902054156113c5576001600160a01b0387166000908152601260205260409020548811156113c557600080fd5b60045461010090046001600160a01b0316600090815260126020526040902054156114165760045461010090046001600160a01b031660009081526012602052604090205489111561141657600080fd5b6000611423888a8c6133ce565b9050806114425760405162461bcd60e51b8152600401610bec90615d14565b61144a614a23565b611452614a4a565b3082526001600160a01b038916602080840182905260408401919091528101839052606081018c9052608081018b905261148a6135fb565b6114988d82602001516136a1565b82526020820181905260045465e35fa931a000916114c49161010090046001600160a01b0316906136f0565b116114e15760405162461bcd60e51b8152600401610bec90615da4565b6114fb6f4b3b4ca85a86c47a098a2240000000008e6130c2565b60a082018990529c506115148e60008f8d86868d613817565b9550955050505073ba10edd6abc7696eae685839217bdcc42139612b6001600160a01b0316633fa4f2456040518163ffffffff1660e01b815260040160206040518083038186803b15801561156857600080fd5b505afa15801561157c573d6000803e3d6000fd5b505050506040513d601f19601f820116820180604052506115a09190810190614f84565b81146115be5760405162461bcd60e51b8152600401610bec90615c14565b50600160005590999098509650505050505050565b6000806001600054146115f85760405162461bcd60e51b8152600401610bec90615dc4565b6002600081905550600073ba10edd6abc7696eae685839217bdcc42139612b6001600160a01b031663ed04e1c36040518163ffffffff1660e01b8152600401602060405180830381600087803b15801561165157600080fd5b505af1158015611665573d6000803e3d6000fd5b505050506040513d601f19601f820116820180604052506116899190810190614f84565b9050896116a85760405162461bcd60e51b8152600401610bec90615df4565b6116b061334e565b6001600160a01b038716600090815260126020526040902054156116f3576001600160a01b0387166000908152601260205260409020548811156116f357600080fd5b3415806116ff57508734145b801561171357508715158061171357508a15155b801561173a57506001600160a01b03871615158061173057503415155b8061173a57508a15155b801561175657508a15806117565750336001600160a01b038716145b6117725760405162461bcd60e51b8152600401610bec90615ca4565b6004546001600160a01b038881166101009092041614156117a55760405162461bcd60e51b8152600401610bec90615c24565b6117ad6135fb565b6117b5614a23565b6117bd614a4a565b3082526001600160a01b03888116602080850191909152908816604084015281018c90526117f58c6117ef6000613104565b8d612bb6565b836000018460400185602001838152508381525083815250505050898160800181815250506119078d8d601660009054906101000a90046001600160a01b03166001600160a01b031663ca74a5d9601060008f600160405160200161185b92919061597e565b6040516020818303038152906040528051906020012060001c8152602001908152602001600020546040518263ffffffff1660e01b815260040161189f9190615b84565b60206040518083038186803b1580156118b757600080fd5b505afa1580156118cb573d6000803e3d6000fd5b505050506040513d601f19601f820116820180604052506118ef9190810190614f84565b8c868660405180602001604052806000815250613817565b94509450505073ba10edd6abc7696eae685839217bdcc42139612b6001600160a01b0316633fa4f2456040518163ffffffff1660e01b815260040160206040518083038186803b15801561156857600080fd5b6017546001600160a01b031681565b60045460ff1681565b60106020526000908152604090205481565b60065481565b60006001600054146119ae5760405162461bcd60e51b8152600401610bec90615dc4565b6002600081905550600073ba10edd6abc7696eae685839217bdcc42139612b6001600160a01b031663ed04e1c36040518163ffffffff1660e01b8152600401602060405180830381600087803b158015611a0757600080fd5b505af1158015611a1b573d6000803e3d6000fd5b505050506040513d601f19601f82011682018060405250611a3f9190810190614f84565b9050611a4b8484613a74565b91505b73ba10edd6abc7696eae685839217bdcc42139612b6001600160a01b0316633fa4f2456040518163ffffffff1660e01b815260040160206040518083038186803b158015611a9b57600080fd5b505afa158015611aaf573d6000803e3d6000fd5b505050506040513d601f19601f82011682018060405250611ad39190810190614f84565b8114611af15760405162461bcd60e51b8152600401610bec90615c14565b50600160005592915050565b6000610fcc611b0a6110e9565b613b80565b600080827f37aa2b7d583612f016e4a4de4292cb015139b3d7762663d06a53964912ea2fb660001b604051602001611b489291906159a4565b604051602081830303815290604052805190602001209050610ebe8160136000866001600160a01b03166001600160a01b0316815260200190815260200160002054611b92611fb6565b6001600160a01b038716600090815260116020526040902054613bb8565b600a5481565b600080611bc36000613104565b90506000611bcf6110e9565b905080821115611be25790039050610fcf565b505090565b60008315610bc1576000611bfd85610b9f6120c4565b92505050611c09612c2f565b8111610bbf576001600160a01b038316611c2c576017546001600160a01b031692505b600060106000856001604051602001611c4692919061597e565b60408051601f19818403018152918152815160209283012083529082019290925281016000205460165460048054935163ca74a5d960e01b8152929450611d7e93600a936001600160a01b03938416936325decac09361010090930416918a918991869163ca74a5d991611cbc918c9101615b84565b60206040518083038186803b158015611cd457600080fd5b505afa158015611ce8573d6000803e3d6000fd5b505050506040513d601f19601f82011682018060405250611d0c9190810190614f84565b60016040518663ffffffff1660e01b8152600401611d2e959493929190615a77565b60206040518083038186803b158015611d4657600080fd5b505afa158015611d5a573d6000803e3d6000fd5b505050506040513d601f19601f82011682018060405250610e9a9190810190614f84565b92505050610bc1565b600080806001600160a01b038416611da8576017546001600160a01b031693505b6000611db58587896133ce565b9050611dc188826136a1565b9094509150611dce612c2f565b841115611de5575060009250829150819050611e8e565b611df5878563ffffffff61306316565b6016546004805460405163d67f707760e01b8152939a506001600160a01b039283169363d67f707793611e3a9361010090930416918a918d918d918a918d9101615ab9565b60206040518083038186803b158015611e5257600080fd5b505afa158015611e66573d6000803e3d6000fd5b505050506040513d601f19601f82011682018060405250611e8a9190810190614f84565b9250505b9450945094915050565b60008215801590611ea95750828210155b15610fb757611f74701d6329f1c35ca4bfabb9f5610000000000610eb2611f5e68056bc75e2d63100000601660009054906101000a90046001600160a01b03166001600160a01b0316634699f8466040518163ffffffff1660e01b815260040160206040518083038186803b158015611f2157600080fd5b505afa158015611f35573d6000803e3d6000fd5b505050506040513d601f19601f82011682018060405250611f599190810190614f84565b613c12565b610ea6611f6b8888613c54565b610ea689613b80565b9050610fb7565b6001600160a01b031660009081526013602052604090205490565b60045461010090046001600160a01b031681565b600d5481565b60085481565b600f546000908190426001600160581b03908116911614611fdd57611fd9613c86565b9150505b611fee611fe982613104565b613d52565b91505090565b60008061201361016d610eb2601c600b5461308890919063ffffffff16565b9050600061203068056bc75e2d631000008363ffffffff613c1216565b9050600061204d68056bc75e2d63100000610eb284610ea6611bb6565b905061206b85610eb283670de0b6b3a764000063ffffffff61308816565b95945050505050565b6000610fcc6000613d81565b6001546001600160a01b031690565b601c546001600160a01b031681565b6001546000906001600160a01b03166120b5613dd7565b6001600160a01b031614905090565b600f546000908190426001600160581b039081169116146120eb576120e7613c86565b9150505b611fee81613104565b60408051602080825261042082019092526060916000918391808201610400803883390190505090506340c10f1960e01b8160008151811061213257fe5b6001600160e01b0319909216602092830291909101909101528051632770a7eb60e21b908290600190811061216357fe5b6001600160e01b03199092166020928302919091019091015280516317514afd60e11b908290600290811061219457fe5b6001600160e01b03199092166020928302919091019091015280516328a02f1960e01b90829060039081106121c557fe5b6001600160e01b031990921660209283029190910190910152805163f6b69f9960e01b90829060049081106121f657fe5b6001600160e01b031990921660209283029190910190910152805163a9059cbb60e01b908290600590811061222757fe5b6001600160e01b03199092166020928302919091019091015280516323b872dd60e01b908290600690811061225857fe5b6001600160e01b03199092166020928302919091019091015280516354198ce960e01b908290600790811061228957fe5b6001600160e01b0319909216602092830291909101909101528051633ffcdacb60e11b90829060089081106122ba57fe5b6001600160e01b031990921660209283029190910190910152805163eebc508160e01b90829060099081106122eb57fe5b6001600160e01b031990921660209283029190910190910152805163612ef80b60e01b908290600a90811061231c57fe5b6001600160e01b03199092166020928302919091019091015280516344a4a00360e01b908290600b90811061234d57fe5b6001600160e01b031990921660209283029190910190910152805163020c968760e61b908290600c90811061237e57fe5b6001600160e01b031990921660209283029190910190910152805163b9fe1a8f60e01b908290600d9081106123af57fe5b6001600160e01b03199092166020928302919091019091015280516309ec6b6b60e01b908290600e9081106123e057fe5b6001600160e01b031990921660209283029190910190910152805163d65a502160e01b908290600f90811061241157fe5b6001600160e01b03199092166020928302919091019091015280516302482d1360e31b908290601090811061244257fe5b6001600160e01b031990921660209283029190910190910152805163083db41f60e21b908290601190811061247357fe5b6001600160e01b0319909216602092830291909101909101528051638fb807c560e01b90829060129081106124a457fe5b6001600160e01b03199092166020928302919091019091015280516320a6ce3d60e21b90829060139081106124d557fe5b6001600160e01b0319909216602092830291909101909101528051630359f7eb60e11b908290601490811061250657fe5b6001600160e01b03199092166020928302919091019091015280516301ad033560e61b908290601590811061253757fe5b6001600160e01b0319909216602092830291909101909101528051630c6347df60e31b908290601690811061256857fe5b6001600160e01b03199092166020928302919091019091015280516247979360e41b908290601790811061259857fe5b6001600160e01b03199092166020928302919091019091015280516304395d9160e21b90829060189081106125c957fe5b6001600160e01b0319909216602092830291909101909101528051631b48f46b60e21b90829060199081106125fa57fe5b6001600160e01b031990921660209283029190910190910152805163fb5f83df60e01b908290601a90811061262b57fe5b6001600160e01b0319909216602092830291909101909101528051630141abc160e21b908290601b90811061265c57fe5b6001600160e01b031990921660209283029190910190910152805163095ea7b360e01b908290601c90811061268d57fe5b6001600160e01b03199092166020928302919091019091015280516318160ddd60e01b908290601d9081106126be57fe5b6001600160e01b03199092166020928302919091019091015280516370a0823160e01b908290601e9081106126ef57fe5b6001600160e01b0319909216602092830291909101909101528051636eb1769f60e11b908290601f90811061272057fe5b60200260200101906001600160e01b03191690816001600160e01b0319168152505080612777604051806040016040528060138152602001724c6f616e546f6b656e4c6f676963577262746360681b81525061292b565b92509250509091565b6003805460408051602060026001851615610100026000190190941693909304601f81018490048402820184019092528181529291830182828015610f4a5780601f10610f1f57610100808354040283529160200191610f4a565b6018546001600160a01b031681565b600060016000541461280e5760405162461bcd60e51b8152600401610bec90615dc4565b6002600081905550600073ba10edd6abc7696eae685839217bdcc42139612b6001600160a01b031663ed04e1c36040518163ffffffff1660e01b8152600401602060405180830381600087803b15801561286757600080fd5b505af115801561287b573d6000803e3d6000fd5b505050506040513d601f19601f8201168201806040525061289f9190810190614f84565b90506128aa83612e0b565b91508115611a4e57611a4e600460019054906101000a90046001600160a01b03168584604051806040016040528060018152602001603560f81b815250613ddb565b601b546001600160a01b031681565b6000610bc133848460001961313e565b6000610fb782613d81565b60095481565b601a546001600160a01b031681565b80516000908290612940575060009050610ec2565b50506020015190565b6000610fb76104e083610e9a6000613104565b60075481565b6001600160a01b03918216600090815260146020908152604080832093909416825291909152205490565b60126020526000908152604090205481565b6001600160a01b031660009081526011602052604090205490565b600b5481565b6129c861209e565b6129e45760405162461bcd60e51b8152600401610bec90615d64565b6129ed81613e3b565b50565b6000806001600160a01b03851615612a675760165460405163193bbe8960e31b81526001600160a01b039091169063c9ddf44890612a34908a908990600401615a19565b600060405180830381600087803b158015612a4e57600080fd5b505af1158015612a62573d6000803e3d6000fd5b505050505b612aad8c8c8c8c8c8c8c8b8b8080601f01602080910402602001604051908101604052809392919081815260200183838082843760009201919091525061124192505050565b915091509a509a98505050505050505050565b6019546001600160a01b031681565b65e35fa931a00081565b6000600160005414612afd5760405162461bcd60e51b8152600401610bec90615dc4565b6002600081905550600073ba10edd6abc7696eae685839217bdcc42139612b6001600160a01b031663ed04e1c36040518163ffffffff1660e01b8152600401602060405180830381600087803b158015612b5657600080fd5b505af1158015612b6a573d6000803e3d6000fd5b505050506040513d601f19601f82011682018060405250612b8e9190810190614f84565b90508215612ba757612ba08434613ebd565b9150611a4e565b612ba08434613a74565b600681565b6000806000612bc58686613f46565b9250612c12612bfa670de0b6b3a7640000611f596b0a3098c68eb9427db8000000610eb283610ea68a8c63ffffffff61308816565b610eb288670de0b6b3a764000063ffffffff61308816565b9050612c24818763ffffffff613c1216565b915093509350939050565b600480546040516370a0823160e01b81526000926101009092046001600160a01b0316916370a0823191611128913091016159fd565b601c54604051636822955360e11b815260009182916001600160a01b039091169063d0452aa690612c9c9030903390600401615a34565b60206040518083038186803b158015612cb457600080fd5b505afa158015612cc8573d6000803e3d6000fd5b505050506040513d601f19601f82011682018060405250612cec9190810190614f84565b905082612d08612cfb33611f7b565b839063ffffffff61306316565b1015612d265760405162461bcd60e51b8152600401610bec90615cc4565b8015612e065782811015612d9f57601c54604051631a4ca37b60e21b81526001600160a01b03909116906369328dec90612d6890309085903390600401615b2e565b600060405180830381600087803b158015612d8257600080fd5b505af1158015612d96573d6000803e3d6000fd5b50505050612e06565b601c54604051631a4ca37b60e21b81526001600160a01b03909116906369328dec90612dd390309087903390600401615b2e565b600060405180830381600087803b158015612ded57600080fd5b505af1158015612e01573d6000803e3d6000fd5b505050505b610ebe835b600081612e2a5760405162461bcd60e51b8152600401610bec90615d74565b612e3333611f7b565b821115612e67576000198214612e5b5760405162461bcd60e51b8152600401610bec90615d34565b612e6433611f7b565b91505b612e6f6135fb565b6000612e7e611fe96000613104565b90506000612e9e670de0b6b3a7640000610eb2868563ffffffff61308816565b90506000612eaa612c2f565b905081935080841115612ecf5760405162461bcd60e51b8152600401610bec90615cd4565b601c546000906001600160a01b031615612f6857601c54604051636822955360e11b81526001600160a01b039091169063d0452aa690612f159030903390600401615a34565b60206040518083038186803b158015612f2d57600080fd5b505afa158015612f41573d6000803e3d6000fd5b505050506040513d601f19601f82011682018060405250612f659190810190614f84565b90505b33600090815260136020526040812054612f88908363ffffffff61306316565b90506000612f9c828963ffffffff613c1216565b9050612faa3389898961405c565b50612fb733838389614192565b505050505050919050565b80471015612fe25760405162461bcd60e51b8152600401610bec90615cb4565b6000826001600160a01b031682604051612ffb906159f2565b60006040518083038185875af1925050503d8060008114613038576040519150601f19603f3d011682016040523d82523d6000602084013e61303d565b606091505b505090508061305e5760405162461bcd60e51b8152600401610bec90615c94565b505050565b600082820183811015610bc15760405162461bcd60e51b8152600401610bec90615c74565b60008261309757506000610fb7565b828202828482816130a457fe5b0414610bc15760405162461bcd60e51b8152600401610bec90615d54565b6000610bc183836040518060400160405280601a81526020017f536166654d6174683a206469766973696f6e206279207a65726f000000000000815250614248565b6000601554600014610ec257600c548061312e5761312b6131236110e9565b610e9a612c2f565b90505b6110c9818463ffffffff61306316565b600060001982146131d7576040805180820190915260028152610c4d60f21b6020820152613175908390859063ffffffff61427f16565b6001600160a01b038616600081815260146020908152604080832033808552925291829020849055905190927f628e75c63c1873bcd3885f7aee9f58ee36f60dc789b2a6b3a978c4189bc548ba916131ce918791615e14565b60405180910390a35b6001600160a01b0384166131fd5760405162461bcd60e51b8152600401610bec90615c34565b6001600160a01b03851660009081526013602090815260408083205481518083019092526002825261189b60f11b92820192909252909190613248908390879063ffffffff61427f16565b6001600160a01b03808916600090815260136020526040808220849055918916815290812054919250613281828863ffffffff61306316565b6001600160a01b03891660009081526013602052604081208290559091506132a7611fb6565b601c549091506001600160a01b038b81169116148015906132d65750601c546001600160a01b038a8116911614155b156132f3576132e78a868684614192565b6132f389848484614192565b886001600160a01b03168a6001600160a01b03167fddf252ad1be2c89b69c2b068fc378daa952ba7f163c4a11628f55a4df523b3ef8a6040516133369190615b84565b60405180910390a35060019998505050505050505050565b600080356001600160e01b0319167fd46a704bc285dbd6ff5ad3863506260b1df02812f4f857c8cc852317a6ac64f260405160200161338e9291906159ca565b60405160208183030381529060405280519060200120905060008154905080156133ca5760405162461bcd60e51b8152600401610bec90615d64565b5050565b808215610bc157600080601660009054906101000a90046001600160a01b03166001600160a01b03166378d849ed6040518163ffffffff1660e01b815260040160206040518083038186803b15801561342657600080fd5b505afa15801561343a573d6000803e3d6000fd5b505050506040513d601f19601f8201168201806040525061345e9190810190614b93565b60048054604051630a7549df60e21b81526001600160a01b03938416936329d5277c93613497938c936101009091049092169101615a19565b604080518083038186803b1580156134ae57600080fd5b505afa1580156134c2573d6000803e3d6000fd5b505050506040513d601f19601f820116820180604052506134e69190810190614fe2565b91509150816000141580156134fa57508015155b6135165760405162461bcd60e51b8152600401610bec90615db4565b600061352c82610eb2888663ffffffff61308816565b60165460048054604051631a51577760e21b81529394506000936001600160a01b03938416936369455ddc9361356f936101009004909116918d91889101615a4f565b60206040518083038186803b15801561358757600080fd5b505afa15801561359b573d6000803e3d6000fd5b505050506040513d601f19601f820116820180604052506135bf9190810190614f84565b90508681146135df576135dc87610eb2848463ffffffff61308816565b91505b6135ef828663ffffffff61306316565b98975050505050505050565b600f5442906001600160581b038083169116146129ed5760165460048054604051630740ff7d60e51b81526001600160a01b039384169363e81fefa09361364b93610100900490911691016159fd565b600060405180830381600087803b15801561366557600080fd5b505af1158015613679573d6000803e3d6000fd5b5050600f80546001600160581b0385166affffffffffffffffffffff19909116179055505050565b600080806136c1670de0b6b3a7640000610eb2868863ffffffff61308816565b90506136d6816136d16000613104565b613f46565b91506136e6826224ea00836142ab565b9250509250929050565b6000806000601660009054906101000a90046001600160a01b03166001600160a01b03166378d849ed6040518163ffffffff1660e01b815260040160206040518083038186803b15801561374357600080fd5b505afa158015613757573d6000803e3d6000fd5b505050506040513d601f19601f8201168201806040525061377b9190810190614b93565b601754604051630a7549df60e21b81526001600160a01b03928316926329d5277c926137af928a9290911690600401615a19565b604080518083038186803b1580156137c657600080fd5b505afa1580156137da573d6000803e3d6000fd5b505050506040513d601f19601f820116820180604052506137fe9190810190614fe2565b909250905061206b81610eb2868563ffffffff61308816565b60008061382261334e565b61382a612c2f565b846020015111158015613849575060208501516001600160a01b031615155b6138655760405162461bcd60e51b8152600401610bec90615ce4565b60408501516001600160a01b031661388b5760208501516001600160a01b031660408601525b60006138998787878c61430c565b90506138b68560200151866060015161306390919063ffffffff16565b606086015288156138dc5760608501516138d6908a63ffffffff613c1216565b60608601525b600089156138e8575060015b6000601060008a8460405160200161390192919061597e565b6040516020818303038152906040528051906020012060001c8152602001908152602001600020549050601660009054906101000a90046001600160a01b03166001600160a01b031663d84ca25484838f868f8e8e8e6040518963ffffffff1660e01b81526004016139799796959493929190615b92565b60408051808303818588803b15801561399157600080fd5b505af11580156139a5573d6000803e3d6000fd5b50505050506040513d601f19601f820116820180604052506139ca9190810190614fe2565b6080890152602088018190526139f25760405162461bcd60e51b8152600401610bec90615d24565b601654602089015160405163f06a9c6b60e01b81526001600160a01b039092169163f06a9c6b91613a25916004016159fd565b600060405180830381600087803b158015613a3f57600080fd5b505af1158015613a53573d6000803e3d6000fd5b50505050866020015187608001519450945050505097509795505050505050565b600080613a8083614566565b601c5491935091506000906001600160a01b031615613b1e57601c54604051636822955360e11b81526001600160a01b039091169063d0452aa690613acb9030908990600401615a19565b60206040518083038186803b158015613ae357600080fd5b505afa158015613af7573d6000803e3d6000fd5b505050506040513d601f19601f82011682018060405250613b1b9190810190614f84565b90505b6001600160a01b038516600090815260136020526040812054613b47908363ffffffff61306316565b90506000613b5b828663ffffffff61306316565b9050613b6987868887614670565b50613b7687838387614192565b5050505092915050565b60008115610ec2576000613b92613c86565b5090506110c983610eb261016d610ea68568056bc75e2d6310000063ffffffff61308816565b600081613bc757506000611239565b50835461206b81613c06670de0b6b3a7640000613bfa88613bee898963ffffffff61478016565b9063ffffffff6147c616565b9063ffffffff61483116565b9063ffffffff61489516565b6000610bc183836040518060400160405280601e81526020017f536166654d6174683a207375627472616374696f6e206f766572666c6f77000081525061427f565b60008215801590613c6457508115155b15610fb757611f7482610eb28568056bc75e2d6310000063ffffffff61308816565b60165460048054604051630d1979fb60e41b8152600093849384936001600160a01b039283169363d1979fb093613cc893309361010090049091169101615a19565b60c06040518083038186803b158015613ce057600080fd5b505afa158015613cf4573d6000803e3d6000fd5b505050506040513d601f19601f82011682018060405250613d1891908101906150b6565b5091965094509250613d4b915068056bc75e2d631000009050610eb2613d3e8285613c12565b859063ffffffff61308816565b9150509091565b60155460009080613d6557600e54610ebe565b610ebe81610eb285670de0b6b3a764000063ffffffff61308816565b6000808215613dca57600f54426001600160581b03908116911614613dac57613da8613c86565b9150505b6000613dba82610e9a612c2f565b905080841115613dc8578093505b505b610ebe836136d183613104565b3390565b604051613e3590859063a9059cbb60e01b90613dfd9087908790602401615b13565b60408051601f198184030181529190526020810180516001600160e01b03166001600160e01b031990931692909217909152836148db565b50505050565b6001600160a01b038116613e615760405162461bcd60e51b8152600401610bec90615c54565b6001546040516001600160a01b038084169216907f8be0079c531659141344cd1fd0a4f28419497f9722a3daafe3b4186f6b6457e090600090a3600180546001600160a01b0319166001600160a01b0392909216919091179055565b6000613ec98383613a74565b601c54909150613ee59084906001600160a01b0316838061313e565b50601c546040516336305cf160e21b81526001600160a01b039091169063d8c173c490613f189086908590600401615b13565b600060405180830381600087803b158015613f3257600080fd5b505af1158015613b76573d6000803e3d6000fd5b600080613f5e613f5885610e9a6110e9565b84613c54565b600554600654600954600a54600b5494955060009485949392919082881015613f85578297505b81881115613ff857968190039668056bc75e2d6310000082900380891115613fab578098505b613fcc86610e9a68056bc75e2d63100000610eb2878a63ffffffff61308816565b9650613ff087610e9a83610eb2613fe3878d613c12565b8e9063ffffffff61308816565b99505061404e565b61401985610e9a68056bc75e2d63100000610eb28c8963ffffffff61308816565b98509395508593614030848663ffffffff61306316565b9550868910156140425786985061404e565b8589111561404e578598505b505050505050505092915050565b6040805180820182526002815261189b60f11b6020808301919091526001600160a01b038716600090815260139091529182205482916140a49190879063ffffffff61427f16565b9050600a81116140c5576140be858263ffffffff61306316565b9450600090505b6001600160a01b03861660009081526013602052604090208190556015546140f3908663ffffffff613c1216565b6015556040516001600160a01b038716907f743033787f4738ff4d6a7225ce2bd0977ee5f86b91a902a58f5e4d0b297b46449061413590889088908890615e22565b60405180910390a260006001600160a01b0316866001600160a01b03167fddf252ad1be2c89b69c2b068fc378daa952ba7f163c4a11628f55a4df523b3ef876040516141819190615b84565b60405180910390a395945050505050565b6040516000906141c89086907f37aa2b7d583612f016e4a4de4292cb015139b3d7762663d06a53964912ea2fb6906020016159a4565b604051602081830303815290604052805190602001209050600083600014156141f45760009250614225565b8415614225576001600160a01b03861660009081526011602052604090205461422290839087908690613bb8565b90505b90556001600160a01b039093166000908152601160205260409020929092555050565b600081836142695760405162461bcd60e51b8152600401610bec9190615c03565b50600083858161427557fe5b0495945050505050565b600081848411156142a35760405162461bcd60e51b8152600401610bec9190615c03565b505050900390565b6000806142c66301e13380610eb2878763ffffffff61308816565b905060006142e368056bc75e2d631000008363ffffffff613c1216565b905061430281610eb28668056bc75e2d6310000063ffffffff61308816565b9695505050505050565b60175460408401516020840151606085015160808601516000946001600160a01b039081169485949093909290918b1685141561435b5760405162461bcd60e51b8152600401610bec90615d84565b349650871561440657604051632e1a7d4d60e01b81526001600160a01b03871690632e1a7d4d90614390908b90600401615b84565b600060405180830381600087803b1580156143aa57600080fd5b505af11580156143be573d6000803e3d6000fd5b505050506143cc8489612fc2565b87831115614401576016546040805160208101909152600081526144019187916001600160a01b03909116908b870390613ddb565b61443b565b601654604080518082019091526002815261323760f01b602082015261443b9187916001600160a01b03909116908690613ddb565b801561447657601654604080518082019091526002815261064760f31b6020820152614476918d9133916001600160a01b03169085906149c6565b811561455857861580159061448b5750818710155b1561452357856001600160a01b031663d0e30db0836040518263ffffffff1660e01b81526004016000604051808303818588803b1580156144cb57600080fd5b505af11580156144df573d6000803e3d6000fd5b5050601654604080518082019091526002815261323960f01b602082015261451994508993506001600160a01b0390911691508590613ddb565b8187039650614558565b601654604080518082019091526002815261323960f01b602082015261455891879133916001600160a01b03169086906149c6565b505050505050949350505050565b600080826145865760405162461bcd60e51b8152600401610bec90615d44565b61458e6135fb565b61459b611fe96000613104565b90506145b981610eb285670de0b6b3a764000063ffffffff61308816565b915034614601576145fc600460019054906101000a90046001600160a01b031633308660405180604001604052806002815260200161062760f31b8152506149c6565b61466b565b601760009054906101000a90046001600160a01b03166001600160a01b031663d0e30db0846040518263ffffffff1660e01b81526004016000604051808303818588803b15801561465157600080fd5b505af1158015614665573d6000803e3d6000fd5b50505050505b915091565b60006001600160a01b0385166146985760405162461bcd60e51b8152600401610bec90615c34565b6001600160a01b0385166000908152601360205260408120546146c1908663ffffffff61306316565b6001600160a01b03871660009081526013602052604090208190556015549091506146f2908663ffffffff61306316565b6015556040516001600160a01b038716907fb4c03061fb5b7fed76389d5af8f2e0ddb09f8c70d1333abbb62582835e10accb9061473490889088908890615e22565b60405180910390a2856001600160a01b031660006001600160a01b03167fddf252ad1be2c89b69c2b068fc378daa952ba7f163c4a11628f55a4df523b3ef876040516141819190615b84565b60008183038183128015906147955750838113155b806147aa57506000831280156147aa57508381135b610bc15760405162461bcd60e51b8152600401610bec90615dd4565b6000826147d557506000610fb7565b826000191480156147e95750600160ff1b82145b156148065760405162461bcd60e51b8152600401610bec90615d94565b8282028284828161481357fe5b0514610bc15760405162461bcd60e51b8152600401610bec90615d94565b6000816148505760405162461bcd60e51b8152600401610bec90615e04565b816000191480156148645750600160ff1b83145b156148815760405162461bcd60e51b8152600401610bec90615d04565b600082848161488c57fe5b05949350505050565b60008282018183128015906148aa5750838112155b806148bf57506000831280156148bf57508381125b610bc15760405162461bcd60e51b8152600401610bec90615c84565b6148e4836149ea565b6149005760405162461bcd60e51b8152600401610bec90615c44565b60006060846001600160a01b03168460405161491c91906159e6565b6000604051808303816000865af19150503d8060008114614959576040519150601f19603f3d011682016040523d82523d6000602084013e61495e565b606091505b50915091508183906149835760405162461bcd60e51b8152600401610bec9190615c03565b508051156110a5578080602001905161499f9190810190614cdb565b83906149be5760405162461bcd60e51b8152600401610bec9190615c03565b505050505050565b6040516110a59086906323b872dd60e01b90613dfd90889088908890602401615a4f565b6000813f7fc5d2460186f7233c927e7db2dcc703c0e500b653ca82273b7bfad8045d85a470818114801590611239575050151592915050565b60408051608081018252600080825260208201819052918101829052606081019190915290565b6040518061012001604052806000815260200160008152602001600081526020016000815260200160008152602001600081526020016000815260200160008152602001600081525090565b8035610fb781615f67565b8051610fb781615f67565b8035610fb781615f7b565b8051610fb781615f7b565b8035610fb781615f84565b60008083601f840112614adf57600080fd5b50813567ffffffffffffffff811115614af757600080fd5b602083019150836001820283011115614b0f57600080fd5b9250929050565b600082601f830112614b2757600080fd5b8135614b3a614b3582615e72565b615e4b565b91508082526020830160208301858383011115614b5657600080fd5b614b61838284615eed565b50505092915050565b8051610fb781615f84565b600060208284031215614b8757600080fd5b60006112398484614a96565b600060208284031215614ba557600080fd5b60006112398484614aa1565b60008060408385031215614bc457600080fd5b6000614bd08585614a96565b9250506020614be185828601614a96565b9150509250929050565b600080600060608486031215614c0057600080fd5b6000614c0c8686614a96565b9350506020614c1d86828701614a96565b9250506040614c2e86828701614ac2565b9150509250925092565b60008060408385031215614c4b57600080fd5b6000614c578585614a96565b9250506020614be185828601614aac565b60008060408385031215614c7b57600080fd5b6000614c878585614a96565b9250506020614be185828601614ac2565b600080600060608486031215614cad57600080fd5b6000614cb98686614a96565b9350506020614cca86828701614ac2565b9250506040614c2e86828701614aac565b600060208284031215614ced57600080fd5b60006112398484614ab7565b600080600080600080600080610100898b031215614d1657600080fd5b6000614d228b8b614ac2565b9850506020614d338b828c01614ac2565b9750506040614d448b828c01614ac2565b9650506060614d558b828c01614ac2565b9550506080614d668b828c01614a96565b94505060a0614d778b828c01614a96565b93505060c0614d888b828c01614a96565b92505060e089013567ffffffffffffffff811115614da557600080fd5b614db18b828c01614b16565b9150509295985092959890939650565b6000806000806000806000806000806101208b8d031215614de157600080fd5b6000614ded8d8d614ac2565b9a50506020614dfe8d828e01614ac2565b9950506040614e0f8d828e01614ac2565b9850506060614e208d828e01614ac2565b9750506080614e318d828e01614a96565b96505060a0614e428d828e01614a96565b95505060c0614e538d828e01614ac2565b94505060e0614e648d828e01614a96565b9350506101008b013567ffffffffffffffff811115614e8257600080fd5b614e8e8d828e01614acd565b92509250509295989b9194979a5092959850565b600080600080600080600080610100898b031215614ebf57600080fd5b6000614ecb8b8b614ac2565b9850506020614edc8b828c01614ac2565b9750506040614eed8b828c01614ac2565b9650506060614efe8b828c01614ac2565b9550506080614f0f8b828c01614a96565b94505060a0614f208b828c01614a96565b93505060c0614d888b828c01614ac2565b600060208284031215614f4357600080fd5b813567ffffffffffffffff811115614f5a57600080fd5b61123984828501614b16565b600060208284031215614f7857600080fd5b60006112398484614ac2565b600060208284031215614f9657600080fd5b60006112398484614b6a565b600080600060608486031215614fb757600080fd5b6000614c0c8686614ac2565b60008060408385031215614fd657600080fd5b6000614c878585614ac2565b60008060408385031215614ff557600080fd5b60006150018585614b6a565b9250506020614be185828601614b6a565b60008060006060848603121561502757600080fd5b60006150338686614ac2565b935050602061504486828701614ac2565b9250506040614c2e86828701614a96565b6000806000806080858703121561506b57600080fd5b60006150778787614ac2565b945050602061508887828801614ac2565b935050604061509987828801614ac2565b92505060606150aa87828801614a96565b91505092959194509250565b60008060008060008060c087890312156150cf57600080fd5b60006150db8989614b6a565b96505060206150ec89828a01614b6a565b95505060406150fd89828a01614b6a565b945050606061510e89828a01614b6a565b935050608061511f89828a01614b6a565b92505060a061513089828a01614b6a565b9150509295509295509295565b60006151498383615207565b505060200190565b61515a81615edc565b82525050565b61515a81615ead565b61515a61517582615ead565b615f25565b600061518582615ea0565b61518f8185615ea4565b935061519a83615e9a565b8060005b838110156151c85781516151b2888261513d565b97506151bd83615e9a565b92505060010161519e565b509495945050505050565b61515a81615eb8565b61515a6151e882615eb8565b615f30565b61515a81610fcf565b61515a61520282610fcf565b610fcf565b61515a81615ebd565b61515a61520282615ebd565b600061522782615ea0565b6152318185615ea4565b9350615241818560208601615ef9565b61524a81615f51565b9093019392505050565b600061525f82615ea0565b6152698185610ec2565b9350615279818560208601615ef9565b9290920192915050565b6000615290601483615ea4565b733932b2b73a3930b731bc903b34b7b630ba34b7b760611b815260200192915050565b60006152c0600283615ea4565b61031360f41b815260200192915050565b60006152de600283615ea4565b61313560f01b815260200192915050565b60006152fc601e83615ea4565b7f63616c6c20746f2061206e6f6e2d636f6e747261637420616464726573730000815260200192915050565b6000615335602683615ea4565b7f4f776e61626c653a206e6577206f776e657220697320746865207a65726f206181526564647265737360d01b602082015260400192915050565b600061537d601d83615ea4565b7f656e7472792070726963652061626f766520746865206d696e696d756d000000815260200192915050565b60006153b6601b83615ea4565b7f536166654d6174683a206164646974696f6e206f766572666c6f770000000000815260200192915050565b60006153ef602183615ea4565b7f5369676e6564536166654d6174683a206164646974696f6e206f766572666c6f8152607760f81b602082015260400192915050565b6000615432603a83615ea4565b7f416464726573733a20756e61626c6520746f2073656e642076616c75652c207281527f6563697069656e74206d61792068617665207265766572746564000000000000602082015260400192915050565b6000615491600183615ea4565b603760f81b815260200192915050565b60006154ae601d83615ea4565b7f416464726573733a20696e73756666696369656e742062616c616e6365000000815260200192915050565b60006154e7601283615ea4565b716e6f7420656e6f7567682062616c616e636560701b815260200192915050565b6000615515600283615ea4565b61333760f01b815260200192915050565b6000615533600283615ea4565b610c8d60f21b815260200192915050565b6000615551600283615ea4565b61313160f01b815260200192915050565b600061556f602183615ea4565b7f5369676e6564536166654d6174683a206469766973696f6e206f766572666c6f8152607760f81b602082015260400192915050565b60006155b2600283615ea4565b61189960f11b815260200192915050565b60006155d0600283615ea4565b61323560f01b815260200192915050565b60006155ee600283615ea4565b61199960f11b815260200192915050565b600061560c600283615ea4565b61313760f01b815260200192915050565b600061562a602183615ea4565b7f536166654d6174683a206d756c7469706c69636174696f6e206f766572666c6f8152607760f81b602082015260400192915050565b600061566d600c83615ea4565b6b1d5b985d5d1a1bdc9a5e995960a21b815260200192915050565b6000615695600283615ea4565b61313960f01b815260200192915050565b60006156b3600283615ea4565b61191b60f11b815260200192915050565b60006156d1602783615ea4565b7f5369676e6564536166654d6174683a206d756c7469706c69636174696f6e206f815266766572666c6f7760c81b602082015260400192915050565b600061571a601383615ea4565b721c1c9a5b98da5c185b081d1bdbc81cdb585b1b606a1b815260200192915050565b6000615749601d83615ea4565b7f696e76616c6964207261746520636f6c6c61746572616c20746f6b656e000000815260200192915050565b6000610fb7600083610ec2565b600061578f600c83615ea4565b6b1b9bdb9499595b9d1c985b9d60a21b815260200192915050565b60006157b7602483615ea4565b7f5369676e6564536166654d6174683a207375627472616374696f6e206f766572815263666c6f7760e01b602082015260400192915050565b60006157fd601883615ea4565b7f34303120757365206f66206578697374696e67206c6f616e0000000000000000815260200192915050565b6000615836600183615ea4565b601b60f91b815260200192915050565b6000615853602083615ea4565b7f5369676e6564536166654d6174683a206469766973696f6e206279207a65726f815260200192915050565b805160808301906158908482615160565b5060208201516158a36020850182615160565b5060408201516158b66040850182615160565b506060820151613e356060850182615160565b80516101208301906158db84826151ed565b5060208201516158ee60208501826151ed565b50604082015161590160408501826151ed565b50606082015161591460608501826151ed565b50608082015161592760808501826151ed565b5060a082015161593a60a08501826151ed565b5060c082015161594d60c08501826151ed565b5060e082015161596060e08501826151ed565b50610100820151613e356101008501826151ed565b61515a81615ed6565b600061598a8285615169565b60148201915061599a82846151dc565b5060010192915050565b60006159b08285615169565b6014820191506159c082846151f6565b5060200192915050565b60006159d68285615210565b6004820191506159c082846151f6565b6000610bc18284615254565b6000610fb782615775565b60208101610fb78284615160565b60208101610fb78284615151565b60408101615a278285615160565b610bc16020830184615160565b60408101615a428285615160565b610bc16020830184615151565b60608101615a5d8286615160565b615a6a6020830185615160565b61123960408301846151ed565b60a08101615a858288615160565b615a926020830187615160565b615a9f60408301866151ed565b615aac60608301856151ed565b61430260808301846151d3565b60c08101615ac78289615160565b615ad46020830188615160565b615ae160408301876151ed565b615aee60608301866151ed565b615afb60808301856151ed565b615b0860a08301846151ed565b979650505050505050565b60408101615b218285615160565b610bc160208301846151ed565b60608101615b3c8286615160565b615b4960208301856151ed565b6112396040830184615151565b60408082528101615b67818561517a565b9050610bc160208301846151ed565b60208101610fb782846151d3565b60208101610fb782846151ed565b6102408101615ba1828a6151ed565b615bae60208301896151ed565b615bbb60408301886151d3565b615bc860608301876151ed565b615bd5608083018661587f565b615be36101008301856158c9565b818103610220830152615bf6818461521c565b9998505050505050505050565b60208082528101610bc1818461521c565b60208082528101610fb781615283565b60208082528101610fb7816152b3565b60208082528101610fb7816152d1565b60208082528101610fb7816152ef565b60208082528101610fb781615328565b60208082528101610fb781615370565b60208082528101610fb7816153a9565b60208082528101610fb7816153e2565b60208082528101610fb781615425565b60208082528101610fb781615484565b60208082528101610fb7816154a1565b60208082528101610fb7816154da565b60208082528101610fb781615508565b60208082528101610fb781615526565b60208082528101610fb781615544565b60208082528101610fb781615562565b60208082528101610fb7816155a5565b60208082528101610fb7816155c3565b60208082528101610fb7816155e1565b60208082528101610fb7816155ff565b60208082528101610fb78161561d565b60208082528101610fb781615660565b60208082528101610fb781615688565b60208082528101610fb7816156a6565b60208082528101610fb7816156c4565b60208082528101610fb78161570d565b60208082528101610fb78161573c565b60208082528101610fb781615782565b60208082528101610fb7816157aa565b60208082528101610fb7816157f0565b60208082528101610fb781615829565b60208082528101610fb781615846565b60408101615b2182856151ed565b60608101615e3082866151ed565b615a6a60208301856151ed565b60208101610fb78284615975565b60405181810167ffffffffffffffff81118282101715615e6a57600080fd5b604052919050565b600067ffffffffffffffff821115615e8957600080fd5b506020601f91909101601f19160190565b60200190565b5190565b90815260200190565b6000610fb782615eca565b151590565b6001600160e01b03191690565b6001600160a01b031690565b60ff1690565b6000610fb7826000610fb782615ead565b82818337506000910152565b60005b83811015615f14578181015183820152602001615efc565b83811115613e355750506000910152565b6000610fb782615f3b565b6000610fb782615f46565b6000610fb782615f61565b6000610fb782615f5b565b601f01601f191690565b60f81b90565b60601b90565b615f7081615ead565b81146129ed57600080fd5b615f7081615eb8565b615f7081610fcf56fea365627a7a72315820ad1ce2c5cbcc9019b936dcf927d7b5c433196ce6766b93dca5c522bddd46a65f6c6578706572696d656e74616cf564736f6c63430005110040",
    "linkReferences": {}
  },
  "methodIdentifiers": {
    "TINY_AMOUNT()": "f8dd4f0e",
    "VERSION()": "ffa1ad74",
    "admin()": "f851a440",
    "allowance(address,address)": "dd62ed3e",
    "approve(address,uint256)": "095ea7b3",
    "assetBalanceOf(address)": "06b3efd6",
    "avgBorrowInterestRate()": "44a4a003",
    "balanceOf(address)": "70a08231",
    "baseRate()": "1f68f20a",
    "borrow(bytes32,uint256,uint256,uint256,address,address,address,bytes)": "2ea295fa",
    "borrowInterestRate()": "8325a1c0",
    "burn(address,uint256)": "9dc29fac",
    "burnToBTC(address,uint256,bool)": "0506af04",
    "calculateSupplyInterestRate(uint256,uint256)": "6d23d1ac",
    "checkPriceDivergence(uint256,address,uint256)": "10e57644",
    "checkpointPrice(address)": "eebc5081",
    "checkpointSupply()": "7b7933b4",
    "decimals()": "313ce567",
    "earlyAccessToken()": "ca37e666",
    "getBorrowAmountForDeposit(uint256,uint256,address)": "04797930",
    "getDepositAmountForBorrow(uint256,uint256,address)": "631a3ef8",
    "getEstimatedMarginDetails(uint256,uint256,uint256,address)": "6b40cd40",
    "getListFunctionSignatures()": "90967de5",
    "getMaxEscrowAmount(uint256)": "829b38f4",
    "initialPrice()": "1d0806ae",
    "isOwner()": "8f32d59b",
    "kinkLevel()": "56e07d70",
    "liquidityMiningAddress()": "8ee6c4e6",
    "loanParamsIds(uint256)": "3291c11a",
    "loanTokenAddress()": "797bf385",
    "lowUtilBaseRate()": "d759dbeb",
    "lowUtilRateMultiplier()": "7e37c08c",
    "marginTrade(bytes32,uint256,uint256,uint256,address,address,uint256,bytes)": "28a02f19",
    "marginTradeAffiliate(bytes32,uint256,uint256,uint256,address,address,uint256,address,bytes)": "f6b69f99",
    "marketLiquidity()": "612ef80b",
    "maxScaleRate()": "ef2b0b39",
    "mint(address,uint256)": "40c10f19",
    "mintWithBTC(address,bool)": "fb5f83df",
    "name()": "06fdde03",
    "nextBorrowInterestRate(uint256)": "b9fe1a8f",
    "nextSupplyInterestRate(uint256)": "d65a5021",
    "owner()": "8da5cb5b",
    "pauser()": "9fd0506d",
    "profitOf(address)": "54198ce9",
    "rateMultiplier()": "330691ac",
    "sovrynContractAddress()": "06947a3a",
    "stringToBytes32(string)": "cfb51928",
    "supplyInterestRate()": "09ec6b6b",
    "symbol()": "95d89b41",
    "targetLevel()": "ba0e43bf",
    "target_()": "9bda3a98",
    "tokenPrice()": "7ff9b596",
    "totalAssetBorrow()": "20f6d07c",
    "totalAssetSupply()": "8fb807c5",
    "totalSupply()": "18160ddd",
    "totalSupplyInterestRate(uint256)": "12416898",
    "transactionLimit(address)": "e41b07e3",
    "transfer(address,uint256)": "a9059cbb",
    "transferFrom(address,address,uint256)": "23b872dd",
    "transferOwnership(address)": "f2fde38b",
    "wrbtcTokenAddress()": "2f6b600d"
  },
  "id": 14
}