{
  "abi": [
    {
      "inputs": [
        {
          "internalType": "address",
          "name": "_vestingFactory",
          "type": "address"
        },
        {
          "internalType": "address",
          "name": "_SOV",
          "type": "address"
        },
        {
          "internalType": "address",
          "name": "_staking",
          "type": "address"
        },
        {
          "internalType": "address",
          "name": "_feeSharingCollector",
          "type": "address"
        },
        {
          "internalType": "address",
          "name": "_vestingOwner",
          "type": "address"
        }
      ],
      "payable": false,
      "stateMutability": "nonpayable",
      "type": "constructor"
    },
    {
      "anonymous": false,
      "inputs": [
        {
          "indexed": false,
          "internalType": "address",
          "name": "admin",
          "type": "address"
        }
      ],
      "name": "AdminAdded",
      "type": "event"
    },
    {
      "anonymous": false,
      "inputs": [
        {
          "indexed": false,
          "internalType": "address",
          "name": "admin",
          "type": "address"
        }
      ],
      "name": "AdminRemoved",
      "type": "event"
    },
    {
      "anonymous": false,
      "inputs": [
        {
          "indexed": true,
          "internalType": "address",
          "name": "previousOwner",
          "type": "address"
        },
        {
          "indexed": true,
          "internalType": "address",
          "name": "newOwner",
          "type": "address"
        }
      ],
      "name": "OwnershipTransferred",
      "type": "event"
    },
    {
      "anonymous": false,
      "inputs": [
        {
          "indexed": true,
          "internalType": "address",
          "name": "receiver",
          "type": "address"
        },
        {
          "indexed": false,
          "internalType": "uint256",
          "name": "amount",
          "type": "uint256"
        }
      ],
      "name": "SOVTransferred",
      "type": "event"
    },
    {
      "anonymous": false,
      "inputs": [
        {
          "indexed": true,
          "internalType": "address",
          "name": "tokenOwner",
          "type": "address"
        },
        {
          "indexed": false,
          "internalType": "address",
          "name": "vesting",
          "type": "address"
        },
        {
          "indexed": false,
          "internalType": "uint256",
          "name": "cliff",
          "type": "uint256"
        },
        {
          "indexed": false,
          "internalType": "uint256",
          "name": "duration",
          "type": "uint256"
        },
        {
          "indexed": false,
          "internalType": "uint256",
          "name": "amount",
          "type": "uint256"
        }
      ],
      "name": "TeamVestingCreated",
      "type": "event"
    },
    {
      "anonymous": false,
      "inputs": [
        {
          "indexed": true,
          "internalType": "address",
          "name": "vesting",
          "type": "address"
        },
        {
          "indexed": false,
          "internalType": "uint256",
          "name": "amount",
          "type": "uint256"
        }
      ],
      "name": "TokensStaked",
      "type": "event"
    },
    {
      "anonymous": false,
      "inputs": [
        {
          "indexed": true,
          "internalType": "address",
          "name": "tokenOwner",
          "type": "address"
        },
        {
          "indexed": false,
          "internalType": "address",
          "name": "vesting",
          "type": "address"
        },
        {
          "indexed": false,
          "internalType": "uint256",
          "name": "cliff",
          "type": "uint256"
        },
        {
          "indexed": false,
          "internalType": "uint256",
          "name": "duration",
          "type": "uint256"
        },
        {
          "indexed": false,
          "internalType": "uint256",
          "name": "amount",
          "type": "uint256"
        }
      ],
      "name": "VestingCreated",
      "type": "event"
    },
    {
      "constant": true,
      "inputs": [],
      "name": "SOV",
      "outputs": [
        {
          "internalType": "address",
          "name": "",
          "type": "address"
        }
      ],
      "payable": false,
      "stateMutability": "view",
      "type": "function"
    },
    {
      "constant": false,
      "inputs": [
        {
          "internalType": "address",
          "name": "_admin",
          "type": "address"
        }
      ],
      "name": "addAdmin",
      "outputs": [],
      "payable": false,
      "stateMutability": "nonpayable",
      "type": "function"
    },
    {
      "constant": true,
      "inputs": [
        {
          "internalType": "address",
          "name": "",
          "type": "address"
        }
      ],
      "name": "admins",
      "outputs": [
        {
          "internalType": "bool",
          "name": "",
          "type": "bool"
        }
      ],
      "payable": false,
      "stateMutability": "view",
      "type": "function"
    },
    {
      "constant": false,
      "inputs": [
        {
          "internalType": "address",
          "name": "_tokenOwner",
          "type": "address"
        },
        {
          "internalType": "uint256",
          "name": "_amount",
          "type": "uint256"
        },
        {
          "internalType": "uint256",
          "name": "_cliff",
          "type": "uint256"
        },
        {
          "internalType": "uint256",
          "name": "_duration",
          "type": "uint256"
        }
      ],
      "name": "createTeamVesting",
      "outputs": [],
      "payable": false,
      "stateMutability": "nonpayable",
      "type": "function"
    },
    {
      "constant": false,
      "inputs": [
        {
          "internalType": "address",
          "name": "_tokenOwner",
          "type": "address"
        },
        {
          "internalType": "uint256",
          "name": "_amount",
          "type": "uint256"
        },
        {
          "internalType": "uint256",
          "name": "_cliff",
          "type": "uint256"
        },
        {
          "internalType": "uint256",
          "name": "_duration",
          "type": "uint256"
        }
      ],
      "name": "createVesting",
      "outputs": [],
      "payable": false,
      "stateMutability": "nonpayable",
      "type": "function"
    },
    {
      "constant": true,
      "inputs": [],
      "name": "feeSharingCollector",
      "outputs": [
        {
          "internalType": "address",
          "name": "",
          "type": "address"
        }
      ],
      "payable": false,
      "stateMutability": "view",
      "type": "function"
    },
    {
      "constant": true,
      "inputs": [
        {
          "internalType": "address",
          "name": "_tokenOwner",
          "type": "address"
        }
      ],
      "name": "getTeamVesting",
      "outputs": [
        {
          "internalType": "address",
          "name": "",
          "type": "address"
        }
      ],
      "payable": false,
      "stateMutability": "view",
      "type": "function"
    },
    {
      "constant": true,
      "inputs": [
        {
          "internalType": "address",
          "name": "_tokenOwner",
          "type": "address"
        }
      ],
      "name": "getVesting",
      "outputs": [
        {
          "internalType": "address",
          "name": "",
          "type": "address"
        }
      ],
      "payable": false,
      "stateMutability": "view",
      "type": "function"
    },
    {
      "constant": true,
      "inputs": [],
      "name": "isOwner",
      "outputs": [
        {
          "internalType": "bool",
          "name": "",
          "type": "bool"
        }
      ],
      "payable": false,
      "stateMutability": "view",
      "type": "function"
    },
    {
      "constant": true,
      "inputs": [],
      "name": "owner",
      "outputs": [
        {
          "internalType": "address",
          "name": "",
          "type": "address"
        }
      ],
      "payable": false,
      "stateMutability": "view",
      "type": "function"
    },
    {
      "constant": false,
      "inputs": [
        {
          "internalType": "address",
          "name": "_admin",
          "type": "address"
        }
      ],
      "name": "removeAdmin",
      "outputs": [],
      "payable": false,
      "stateMutability": "nonpayable",
      "type": "function"
    },
    {
      "constant": false,
      "inputs": [
        {
          "internalType": "address",
          "name": "_vestingFactory",
          "type": "address"
        }
      ],
      "name": "setVestingFactory",
      "outputs": [],
      "payable": false,
      "stateMutability": "nonpayable",
      "type": "function"
    },
    {
      "constant": false,
      "inputs": [
        {
          "internalType": "address",
          "name": "_vesting",
          "type": "address"
        },
        {
          "internalType": "uint256",
          "name": "_amount",
          "type": "uint256"
        }
      ],
      "name": "stakeTokens",
      "outputs": [],
      "payable": false,
      "stateMutability": "nonpayable",
      "type": "function"
    },
    {
      "constant": true,
      "inputs": [],
      "name": "staking",
      "outputs": [
        {
          "internalType": "address",
          "name": "",
          "type": "address"
        }
      ],
      "payable": false,
      "stateMutability": "view",
      "type": "function"
    },
    {
      "constant": false,
      "inputs": [
        {
          "internalType": "address",
          "name": "newOwner",
          "type": "address"
        }
      ],
      "name": "transferOwnership",
      "outputs": [],
      "payable": false,
      "stateMutability": "nonpayable",
      "type": "function"
    },
    {
      "constant": false,
      "inputs": [
        {
          "internalType": "address",
          "name": "_receiver",
          "type": "address"
        },
        {
          "internalType": "uint256",
          "name": "_amount",
          "type": "uint256"
        }
      ],
      "name": "transferSOV",
      "outputs": [],
      "payable": false,
      "stateMutability": "nonpayable",
      "type": "function"
    },
    {
      "constant": true,
      "inputs": [
        {
          "internalType": "address",
          "name": "",
          "type": "address"
        },
        {
          "internalType": "uint256",
          "name": "",
          "type": "uint256"
        }
      ],
      "name": "vestingContracts",
      "outputs": [
        {
          "internalType": "address",
          "name": "",
          "type": "address"
        }
      ],
      "payable": false,
      "stateMutability": "view",
      "type": "function"
    },
    {
      "constant": true,
      "inputs": [],
      "name": "vestingFactory",
      "outputs": [
        {
          "internalType": "contract IVestingFactory",
          "name": "",
          "type": "address"
        }
      ],
      "payable": false,
      "stateMutability": "view",
      "type": "function"
    },
    {
      "constant": true,
      "inputs": [],
      "name": "vestingOwner",
      "outputs": [
        {
          "internalType": "address",
          "name": "",
          "type": "address"
        }
      ],
      "payable": false,
      "stateMutability": "view",
      "type": "function"
    }
  ],
  "bytecode": {
    "object": "0x608060405234801561001057600080fd5b5060405161129c38038061129c833981810160405260a081101561003357600080fd5b5080516020820151604083015160608401516080909401519293919290919060006100656001600160e01b0361026b16565b600080546001600160a01b0319166001600160a01b0383169081178255604051929350917f8be0079c531659141344cd1fd0a4f28419497f9722a3daafe3b4186f6b6457e0908290a3506001600160a01b03841661010a576040805162461bcd60e51b815260206004820152601360248201527f534f56206164647265737320696e76616c696400000000000000000000000000604482015290519081900360640190fd5b6001600160a01b038316610165576040805162461bcd60e51b815260206004820152601760248201527f7374616b696e67206164647265737320696e76616c6964000000000000000000604482015290519081900360640190fd5b6001600160a01b0382166101aa5760405162461bcd60e51b81526004018080602001828103825260238152602001806112796023913960400191505060405180910390fd5b6001600160a01b038116610205576040805162461bcd60e51b815260206004820152601c60248201527f76657374696e674f776e6572206164647265737320696e76616c696400000000604482015290519081900360640190fd5b610217856001600160e01b0361026f16565b600280546001600160a01b039586166001600160a01b0319918216179091556003805494861694821694909417909355600480549285169284169290921790915560058054919093169116179055506102ec565b3390565b6001600160a01b0381166102ca576040805162461bcd60e51b815260206004820152601e60248201527f76657374696e67466163746f7279206164647265737320696e76616c69640000604482015290519081900360640190fd5b600180546001600160a01b0319166001600160a01b0392909216919091179055565b610f7e806102fb6000396000f3fe608060405234801561001057600080fd5b50600436106101215760003560e01c80638da5cb5b116100ad578063c810a3e311610071578063c810a3e3146102e8578063cc49ede71461030e578063f2becf1714610334578063f2fde38b14610360578063f60826ee1461038657610121565b80638da5cb5b1461026c5780638f32d59b14610274578063bd7b59081461027c578063bd8f732b14610284578063c680c0b7146102bc57610121565b8063429b62e5116100f4578063429b62e5146101d05780634cf088d91461020a5780636b7dbb2d14610212578063704802751461021a57806379a83f5a1461024057610121565b80630665a06f1461012657806308dcb360146101605780631785f53c14610184578063377220fd146101aa575b600080fd5b61015e6004803603608081101561013c57600080fd5b506001600160a01b03813516906020810135906040810135906060013561038e565b005b61016861045c565b604080516001600160a01b039092168252519081900360200190f35b61015e6004803603602081101561019a57600080fd5b50356001600160a01b031661046b565b61015e600480360360208110156101c057600080fd5b50356001600160a01b031661050b565b6101f6600480360360208110156101e657600080fd5b50356001600160a01b031661055f565b604080519115158252519081900360200190f35b610168610574565b610168610583565b61015e6004803603602081101561023057600080fd5b50356001600160a01b0316610592565b61015e6004803603604081101561025657600080fd5b506001600160a01b038135169060200135610635565b61016861085d565b6101f661086c565b610168610890565b61015e6004803603608081101561029a57600080fd5b506001600160a01b03813516906020810135906040810135906060013561089f565b61015e600480360360408110156102d257600080fd5b506001600160a01b03813516906020013561096d565b610168600480360360208110156102fe57600080fd5b50356001600160a01b0316610b18565b6101686004803603602081101561032457600080fd5b50356001600160a01b0316610b53565b6101686004803603604081101561034a57600080fd5b506001600160a01b038135169060200135610b73565b61015e6004803603602081101561037657600080fd5b50356001600160a01b0316610b99565b610168610bea565b61039661086c565b806103b057503360009081526007602052604090205460ff165b6103f0576040805162461bcd60e51b815260206004820152600c60248201526b1d5b985d5d1a1bdc9a5e995960a21b604482015290519081900360640190fd5b60006103fd858484610bf9565b604080516001600160a01b03808416825260208201879052818301869052606082018890529151929350908716917f66a644acab4366c0125120794335c517775a2b44b4315b5d90f0d163dae07fea9181900360800190a25050505050565b6002546001600160a01b031681565b61047361086c565b6104b3576040805162461bcd60e51b815260206004820152600c60248201526b1d5b985d5d1a1bdc9a5e995960a21b604482015290519081900360640190fd5b6001600160a01b038116600081815260076020908152604091829020805460ff19169055815192835290517fa3b62bc36326052d97ea62d63c3d60308ed4c3ea8ac079dd8499f1e9c4f80c0f9281900390910190a150565b61051361086c565b610553576040805162461bcd60e51b815260206004820152600c60248201526b1d5b985d5d1a1bdc9a5e995960a21b604482015290519081900360640190fd5b61055c81610d46565b50565b60076020526000908152604090205460ff1681565b6003546001600160a01b031681565b6004546001600160a01b031681565b61059a61086c565b6105da576040805162461bcd60e51b815260206004820152600c60248201526b1d5b985d5d1a1bdc9a5e995960a21b604482015290519081900360640190fd5b6001600160a01b038116600081815260076020908152604091829020805460ff19166001179055815192835290517f44d6d25963f097ad14f29f06854a01f575648a1ef82f30e562ccd3889717e3399281900390910190a150565b61063d61086c565b8061065757503360009081526007602052604090205460ff165b610697576040805162461bcd60e51b815260206004820152600c60248201526b1d5b985d5d1a1bdc9a5e995960a21b604482015290519081900360640190fd5b6001600160a01b0382166106f2576040805162461bcd60e51b815260206004820152601760248201527f76657374696e67206164647265737320696e76616c6964000000000000000000604482015290519081900360640190fd5b60008111610738576040805162461bcd60e51b815260206004820152600e60248201526d185b5bdd5b9d081a5b9d985b1a5960921b604482015290519081900360640190fd5b6002546040805163095ea7b360e01b81526001600160a01b038581166004830152602482018590529151919092169163095ea7b39160448083019260209291908290030181600087803b15801561078e57600080fd5b505af11580156107a2573d6000803e3d6000fd5b505050506040513d60208110156107b857600080fd5b505060408051637547c7a360e01b81526004810183905290516001600160a01b03841691637547c7a391602480830192600092919082900301818387803b15801561080257600080fd5b505af1158015610816573d6000803e3d6000fd5b50506040805184815290516001600160a01b03861693507fb539ca1e5c8d398ddf1c41c30166f33404941683be4683319b57669a93dad4ef92509081900360200190a25050565b6000546001600160a01b031690565b600080546001600160a01b0316610881610dc3565b6001600160a01b031614905090565b6005546001600160a01b031681565b6108a761086c565b806108c157503360009081526007602052604090205460ff165b610901576040805162461bcd60e51b815260206004820152600c60248201526b1d5b985d5d1a1bdc9a5e995960a21b604482015290519081900360640190fd5b600061090e858484610dc7565b604080516001600160a01b03808416825260208201879052818301869052606082018890529151929350908716917f6f0b5adf3d5b3548ea2b06e9be6e7f72e125253fd8c948f6ef4024be653c1c179181900360800190a25050505050565b61097561086c565b6109b5576040805162461bcd60e51b815260206004820152600c60248201526b1d5b985d5d1a1bdc9a5e995960a21b604482015290519081900360640190fd5b6001600160a01b038216610a10576040805162461bcd60e51b815260206004820152601860248201527f7265636569766572206164647265737320696e76616c69640000000000000000604482015290519081900360640190fd5b80610a53576040805162461bcd60e51b815260206004820152600e60248201526d185b5bdd5b9d081a5b9d985b1a5960921b604482015290519081900360640190fd5b6002546040805163a9059cbb60e01b81526001600160a01b038581166004830152602482018590529151919092169163a9059cbb9160448083019260209291908290030181600087803b158015610aa957600080fd5b505af1158015610abd573d6000803e3d6000fd5b505050506040513d6020811015610ad357600080fd5b50506040805182815290516001600160a01b038416917fe1b0ada289bf82fb641c8c1e1c78f820fae44e8f845760725cdeb09167a289ad919081900360200190a25050565b6001600160a01b038116600090815260066020526040812081805b81526020810191909152604001600020546001600160a01b031692915050565b6001600160a01b0381166000908152600660205260408120816001610b33565b60066020908152600092835260408084209091529082529020546001600160a01b031681565b610ba161086c565b610be1576040805162461bcd60e51b815260206004820152600c60248201526b1d5b985d5d1a1bdc9a5e995960a21b604482015290519081900360640190fd5b61055c81610e83565b6001546001600160a01b031681565b6001600160a01b038381166000908152600660209081526040808320600180855292528220549192909116610d18576001546002546003546004805460408051637d2fbb8f60e11b81526001600160a01b0395861693810193909352928416602483015289841660448301819052606483018a90526084830189905290841660a483015260c48201529051600093929092169163fa5f771e9160e48082019260209290919082900301818787803b158015610cb357600080fd5b505af1158015610cc7573d6000803e3d6000fd5b505050506040513d6020811015610cdd57600080fd5b50516001600160a01b038781166000908152600660209081526040808320878452909152902080546001600160a01b03191691909216179055505b6001600160a01b03948516600090815260066020908152604080832093835292905220549093169392505050565b6001600160a01b038116610da1576040805162461bcd60e51b815260206004820152601e60248201527f76657374696e67466163746f7279206164647265737320696e76616c69640000604482015290519081900360640190fd5b600180546001600160a01b0319166001600160a01b0392909216919091179055565b3390565b6001600160a01b0383811660009081526006602090815260408083208380529091528120549091829116610d18576001546002546003546004805460055460408051630546344f60e41b81526001600160a01b039687169481019490945293851660248401528a85166044840152606483018a90526084830189905290841660a4830152831660c48201529051600093929092169163546344f09160e48082019260209290919082900301818787803b158015610cb357600080fd5b6001600160a01b038116610ec85760405162461bcd60e51b8152600401808060200182810382526026815260200180610f246026913960400191505060405180910390fd5b600080546040516001600160a01b03808516939216917f8be0079c531659141344cd1fd0a4f28419497f9722a3daafe3b4186f6b6457e091a3600080546001600160a01b0319166001600160a01b039290921691909117905556fe4f776e61626c653a206e6577206f776e657220697320746865207a65726f2061646472657373a265627a7a72315820589865e97ff62059340374de6c89853128f1da1642fefc4b58a3ea0bbbd9a9e264736f6c6343000511003266656553686172696e67436f6c6c6563746f72206164647265737320696e76616c6964",
    "linkReferences": {}
  },
  "methodIdentifiers": {
    "SOV()": "08dcb360",
    "addAdmin(address)": "70480275",
    "admins(address)": "429b62e5",
    "createTeamVesting(address,uint256,uint256,uint256)": "bd8f732b",
    "createVesting(address,uint256,uint256,uint256)": "0665a06f",
    "feeSharingCollector()": "6b7dbb2d",
    "getTeamVesting(address)": "c810a3e3",
    "getVesting(address)": "cc49ede7",
    "isOwner()": "8f32d59b",
    "owner()": "8da5cb5b",
    "removeAdmin(address)": "1785f53c",
    "setVestingFactory(address)": "377220fd",
    "stakeTokens(address,uint256)": "79a83f5a",
    "staking()": "4cf088d9",
    "transferOwnership(address)": "f2fde38b",
    "transferSOV(address,uint256)": "c680c0b7",
    "vestingContracts(address,uint256)": "f2becf17",
    "vestingFactory()": "f60826ee",
    "vestingOwner()": "bd7b5908"
  },
  "id": 93
}