{
  "abi": [
    {
      "anonymous": false,
      "inputs": [
        {
          "indexed": true,
          "internalType": "address",
          "name": "user",
          "type": "address"
        },
        {
          "indexed": true,
          "internalType": "address",
          "name": "lender",
          "type": "address"
        },
        {
          "indexed": true,
          "internalType": "bytes32",
          "name": "loanId",
          "type": "bytes32"
        },
        {
          "indexed": false,
          "internalType": "address",
          "name": "closer",
          "type": "address"
        },
        {
          "indexed": false,
          "internalType": "address",
          "name": "loanToken",
          "type": "address"
        },
        {
          "indexed": false,
          "internalType": "address",
          "name": "collateralToken",
          "type": "address"
        },
        {
          "indexed": false,
          "internalType": "uint256",
          "name": "repayAmount",
          "type": "uint256"
        },
        {
          "indexed": false,
          "internalType": "uint256",
          "name": "collateralWithdrawAmount",
          "type": "uint256"
        },
        {
          "indexed": false,
          "internalType": "uint256",
          "name": "collateralToLoanRate",
          "type": "uint256"
        },
        {
          "indexed": false,
          "internalType": "uint256",
          "name": "currentMargin",
          "type": "uint256"
        }
      ],
      "name": "CloseWithDeposit",
      "type": "event"
    },
    {
      "anonymous": false,
      "inputs": [
        {
          "indexed": true,
          "internalType": "address",
          "name": "user",
          "type": "address"
        },
        {
          "indexed": true,
          "internalType": "address",
          "name": "lender",
          "type": "address"
        },
        {
          "indexed": true,
          "internalType": "bytes32",
          "name": "loanId",
          "type": "bytes32"
        },
        {
          "indexed": false,
          "internalType": "address",
          "name": "collateralToken",
          "type": "address"
        },
        {
          "indexed": false,
          "internalType": "address",
          "name": "loanToken",
          "type": "address"
        },
        {
          "indexed": false,
          "internalType": "address",
          "name": "closer",
          "type": "address"
        },
        {
          "indexed": false,
          "internalType": "uint256",
          "name": "positionCloseSize",
          "type": "uint256"
        },
        {
          "indexed": false,
          "internalType": "uint256",
          "name": "loanCloseAmount",
          "type": "uint256"
        },
        {
          "indexed": false,
          "internalType": "uint256",
          "name": "exitPrice",
          "type": "uint256"
        },
        {
          "indexed": false,
          "internalType": "uint256",
          "name": "currentLeverage",
          "type": "uint256"
        }
      ],
      "name": "CloseWithSwap",
      "type": "event"
    },
    {
      "anonymous": false,
      "inputs": [
        {
          "indexed": true,
          "internalType": "address",
          "name": "receiver",
          "type": "address"
        },
        {
          "indexed": true,
          "internalType": "address",
          "name": "token",
          "type": "address"
        },
        {
          "indexed": true,
          "internalType": "bytes32",
          "name": "loanId",
          "type": "bytes32"
        },
        {
          "indexed": false,
          "internalType": "uint256",
          "name": "feeRebatePercent",
          "type": "uint256"
        },
        {
          "indexed": false,
          "internalType": "uint256",
          "name": "amount",
          "type": "uint256"
        },
        {
          "indexed": false,
          "internalType": "uint256",
          "name": "basisPoint",
          "type": "uint256"
        }
      ],
      "name": "EarnReward",
      "type": "event"
    },
    {
      "anonymous": false,
      "inputs": [
        {
          "indexed": true,
          "internalType": "address",
          "name": "receiver",
          "type": "address"
        },
        {
          "indexed": true,
          "internalType": "address",
          "name": "token",
          "type": "address"
        },
        {
          "indexed": true,
          "internalType": "bytes32",
          "name": "loanId",
          "type": "bytes32"
        },
        {
          "indexed": false,
          "internalType": "uint256",
          "name": "feeRebatePercent",
          "type": "uint256"
        },
        {
          "indexed": false,
          "internalType": "uint256",
          "name": "amount",
          "type": "uint256"
        },
        {
          "indexed": false,
          "internalType": "uint256",
          "name": "basisPoint",
          "type": "uint256"
        }
      ],
      "name": "EarnRewardFail",
      "type": "event"
    },
    {
      "anonymous": false,
      "inputs": [
        {
          "indexed": true,
          "internalType": "address",
          "name": "user",
          "type": "address"
        },
        {
          "indexed": true,
          "internalType": "address",
          "name": "sourceToken",
          "type": "address"
        },
        {
          "indexed": true,
          "internalType": "address",
          "name": "destToken",
          "type": "address"
        },
        {
          "indexed": false,
          "internalType": "uint256",
          "name": "sourceAmount",
          "type": "uint256"
        },
        {
          "indexed": false,
          "internalType": "uint256",
          "name": "destAmount",
          "type": "uint256"
        }
      ],
      "name": "ExternalSwap",
      "type": "event"
    },
    {
      "anonymous": false,
      "inputs": [
        {
          "indexed": true,
          "internalType": "address",
          "name": "user",
          "type": "address"
        },
        {
          "indexed": true,
          "internalType": "address",
          "name": "liquidator",
          "type": "address"
        },
        {
          "indexed": true,
          "internalType": "bytes32",
          "name": "loanId",
          "type": "bytes32"
        },
        {
          "indexed": false,
          "internalType": "address",
          "name": "lender",
          "type": "address"
        },
        {
          "indexed": false,
          "internalType": "address",
          "name": "loanToken",
          "type": "address"
        },
        {
          "indexed": false,
          "internalType": "address",
          "name": "collateralToken",
          "type": "address"
        },
        {
          "indexed": false,
          "internalType": "uint256",
          "name": "repayAmount",
          "type": "uint256"
        },
        {
          "indexed": false,
          "internalType": "uint256",
          "name": "collateralWithdrawAmount",
          "type": "uint256"
        },
        {
          "indexed": false,
          "internalType": "uint256",
          "name": "collateralToLoanRate",
          "type": "uint256"
        },
        {
          "indexed": false,
          "internalType": "uint256",
          "name": "currentMargin",
          "type": "uint256"
        }
      ],
      "name": "Liquidate",
      "type": "event"
    },
    {
      "anonymous": false,
      "inputs": [
        {
          "indexed": true,
          "internalType": "bytes32",
          "name": "loanId",
          "type": "bytes32"
        },
        {
          "indexed": true,
          "internalType": "address",
          "name": "sourceToken",
          "type": "address"
        },
        {
          "indexed": true,
          "internalType": "address",
          "name": "destToken",
          "type": "address"
        },
        {
          "indexed": false,
          "internalType": "address",
          "name": "borrower",
          "type": "address"
        },
        {
          "indexed": false,
          "internalType": "uint256",
          "name": "sourceAmount",
          "type": "uint256"
        },
        {
          "indexed": false,
          "internalType": "uint256",
          "name": "destAmount",
          "type": "uint256"
        }
      ],
      "name": "LoanSwap",
      "type": "event"
    },
    {
      "anonymous": false,
      "inputs": [
        {
          "indexed": true,
          "internalType": "address",
          "name": "previousOwner",
          "type": "address"
        },
        {
          "indexed": true,
          "internalType": "address",
          "name": "newOwner",
          "type": "address"
        }
      ],
      "name": "OwnershipTransferred",
      "type": "event"
    },
    {
      "anonymous": false,
      "inputs": [
        {
          "indexed": true,
          "internalType": "address",
          "name": "payer",
          "type": "address"
        },
        {
          "indexed": true,
          "internalType": "address",
          "name": "token",
          "type": "address"
        },
        {
          "indexed": true,
          "internalType": "bytes32",
          "name": "loanId",
          "type": "bytes32"
        },
        {
          "indexed": false,
          "internalType": "uint256",
          "name": "amount",
          "type": "uint256"
        }
      ],
      "name": "PayBorrowingFee",
      "type": "event"
    },
    {
      "anonymous": false,
      "inputs": [
        {
          "indexed": true,
          "internalType": "address",
          "name": "interestToken",
          "type": "address"
        },
        {
          "indexed": true,
          "internalType": "address",
          "name": "lender",
          "type": "address"
        },
        {
          "indexed": false,
          "internalType": "uint256",
          "name": "effectiveInterest",
          "type": "uint256"
        }
      ],
      "name": "PayInterestTransfer",
      "type": "event"
    },
    {
      "anonymous": false,
      "inputs": [
        {
          "indexed": true,
          "internalType": "address",
          "name": "payer",
          "type": "address"
        },
        {
          "indexed": true,
          "internalType": "address",
          "name": "token",
          "type": "address"
        },
        {
          "indexed": false,
          "internalType": "uint256",
          "name": "amount",
          "type": "uint256"
        }
      ],
      "name": "PayLendingFee",
      "type": "event"
    },
    {
      "anonymous": false,
      "inputs": [
        {
          "indexed": true,
          "internalType": "address",
          "name": "payer",
          "type": "address"
        },
        {
          "indexed": true,
          "internalType": "address",
          "name": "token",
          "type": "address"
        },
        {
          "indexed": true,
          "internalType": "bytes32",
          "name": "loanId",
          "type": "bytes32"
        },
        {
          "indexed": false,
          "internalType": "uint256",
          "name": "amount",
          "type": "uint256"
        }
      ],
      "name": "PayTradingFee",
      "type": "event"
    },
    {
      "anonymous": false,
      "inputs": [
        {
          "indexed": true,
          "internalType": "address",
          "name": "prevModuleContractAddress",
          "type": "address"
        },
        {
          "indexed": true,
          "internalType": "address",
          "name": "newModuleContractAddress",
          "type": "address"
        },
        {
          "indexed": true,
          "internalType": "bytes32",
          "name": "module",
          "type": "bytes32"
        }
      ],
      "name": "ProtocolModuleContractReplaced",
      "type": "event"
    },
    {
      "anonymous": false,
      "inputs": [
        {
          "indexed": true,
          "internalType": "address",
          "name": "user",
          "type": "address"
        },
        {
          "indexed": true,
          "internalType": "address",
          "name": "lender",
          "type": "address"
        },
        {
          "indexed": true,
          "internalType": "bytes32",
          "name": "loanId",
          "type": "bytes32"
        },
        {
          "indexed": false,
          "internalType": "uint256",
          "name": "principal",
          "type": "uint256"
        },
        {
          "indexed": false,
          "internalType": "uint256",
          "name": "collateral",
          "type": "uint256"
        },
        {
          "indexed": false,
          "internalType": "uint256",
          "name": "endTimestamp",
          "type": "uint256"
        },
        {
          "indexed": false,
          "internalType": "address",
          "name": "rewardReceiver",
          "type": "address"
        },
        {
          "indexed": false,
          "internalType": "uint256",
          "name": "reward",
          "type": "uint256"
        }
      ],
      "name": "Rollover",
      "type": "event"
    },
    {
      "anonymous": false,
      "inputs": [
        {
          "indexed": true,
          "internalType": "address",
          "name": "asset",
          "type": "address"
        },
        {
          "indexed": true,
          "internalType": "address",
          "name": "from",
          "type": "address"
        },
        {
          "indexed": false,
          "internalType": "uint256",
          "name": "amount",
          "type": "uint256"
        }
      ],
      "name": "VaultDeposit",
      "type": "event"
    },
    {
      "anonymous": false,
      "inputs": [
        {
          "indexed": true,
          "internalType": "address",
          "name": "asset",
          "type": "address"
        },
        {
          "indexed": true,
          "internalType": "address",
          "name": "to",
          "type": "address"
        },
        {
          "indexed": false,
          "internalType": "uint256",
          "name": "amount",
          "type": "uint256"
        }
      ],
      "name": "VaultWithdraw",
      "type": "event"
    },
    {
      "anonymous": false,
      "inputs": [
        {
          "indexed": false,
          "internalType": "bool",
          "name": "shouldRefund",
          "type": "bool"
        },
        {
          "indexed": false,
          "internalType": "uint256",
          "name": "amount",
          "type": "uint256"
        },
        {
          "indexed": false,
          "internalType": "uint256",
          "name": "amountInRbtc",
          "type": "uint256"
        },
        {
          "indexed": false,
          "internalType": "uint256",
          "name": "threshold",
          "type": "uint256"
        }
      ],
      "name": "swapExcess",
      "type": "event"
    },
    {
      "constant": true,
      "inputs": [],
      "name": "TINY_AMOUNT",
      "outputs": [
        {
          "internalType": "uint256",
          "name": "",
          "type": "uint256"
        }
      ],
      "payable": false,
      "stateMutability": "view",
      "type": "function"
    },
    {
      "constant": true,
      "inputs": [],
      "name": "admin",
      "outputs": [
        {
          "internalType": "address",
          "name": "",
          "type": "address"
        }
      ],
      "payable": false,
      "stateMutability": "view",
      "type": "function"
    },
    {
      "constant": true,
      "inputs": [],
      "name": "affiliateFeePercent",
      "outputs": [
        {
          "internalType": "uint256",
          "name": "",
          "type": "uint256"
        }
      ],
      "payable": false,
      "stateMutability": "view",
      "type": "function"
    },
    {
      "constant": true,
      "inputs": [
        {
          "internalType": "address",
          "name": "",
          "type": "address"
        }
      ],
      "name": "affiliateRewardsHeld",
      "outputs": [
        {
          "internalType": "uint256",
          "name": "",
          "type": "uint256"
        }
      ],
      "payable": false,
      "stateMutability": "view",
      "type": "function"
    },
    {
      "constant": true,
      "inputs": [],
      "name": "affiliateTradingTokenFeePercent",
      "outputs": [
        {
          "internalType": "uint256",
          "name": "",
          "type": "uint256"
        }
      ],
      "payable": false,
      "stateMutability": "view",
      "type": "function"
    },
    {
      "constant": true,
      "inputs": [
        {
          "internalType": "address",
          "name": "",
          "type": "address"
        },
        {
          "internalType": "address",
          "name": "",
          "type": "address"
        }
      ],
      "name": "affiliatesReferrerBalances",
      "outputs": [
        {
          "internalType": "uint256",
          "name": "",
          "type": "uint256"
        }
      ],
      "payable": false,
      "stateMutability": "view",
      "type": "function"
    },
    {
      "constant": true,
      "inputs": [
        {
          "internalType": "address",
          "name": "",
          "type": "address"
        }
      ],
      "name": "affiliatesUserReferrer",
      "outputs": [
        {
          "internalType": "address",
          "name": "",
          "type": "address"
        }
      ],
      "payable": false,
      "stateMutability": "view",
      "type": "function"
    },
    {
      "constant": true,
      "inputs": [
        {
          "internalType": "address",
          "name": "",
          "type": "address"
        }
      ],
      "name": "borrowerNonce",
      "outputs": [
        {
          "internalType": "uint256",
          "name": "",
          "type": "uint256"
        }
      ],
      "payable": false,
      "stateMutability": "view",
      "type": "function"
    },
    {
      "constant": true,
      "inputs": [
        {
          "internalType": "address",
          "name": "",
          "type": "address"
        },
        {
          "internalType": "bytes32",
          "name": "",
          "type": "bytes32"
        }
      ],
      "name": "borrowerOrders",
      "outputs": [
        {
          "internalType": "uint256",
          "name": "lockedAmount",
          "type": "uint256"
        },
        {
          "internalType": "uint256",
          "name": "interestRate",
          "type": "uint256"
        },
        {
          "internalType": "uint256",
          "name": "minLoanTerm",
          "type": "uint256"
        },
        {
          "internalType": "uint256",
          "name": "maxLoanTerm",
          "type": "uint256"
        },
        {
          "internalType": "uint256",
          "name": "createdTimestamp",
          "type": "uint256"
        },
        {
          "internalType": "uint256",
          "name": "expirationTimestamp",
          "type": "uint256"
        }
      ],
      "payable": false,
      "stateMutability": "view",
      "type": "function"
    },
    {
      "constant": true,
      "inputs": [],
      "name": "borrowingFeePercent",
      "outputs": [
        {
          "internalType": "uint256",
          "name": "",
          "type": "uint256"
        }
      ],
      "payable": false,
      "stateMutability": "view",
      "type": "function"
    },
    {
      "constant": true,
      "inputs": [
        {
          "internalType": "address",
          "name": "",
          "type": "address"
        }
      ],
      "name": "borrowingFeeTokensHeld",
      "outputs": [
        {
          "internalType": "uint256",
          "name": "",
          "type": "uint256"
        }
      ],
      "payable": false,
      "stateMutability": "view",
      "type": "function"
    },
    {
      "constant": true,
      "inputs": [
        {
          "internalType": "address",
          "name": "",
          "type": "address"
        }
      ],
      "name": "borrowingFeeTokensPaid",
      "outputs": [
        {
          "internalType": "uint256",
          "name": "",
          "type": "uint256"
        }
      ],
      "payable": false,
      "stateMutability": "view",
      "type": "function"
    },
    {
      "constant": true,
      "inputs": [
        {
          "internalType": "bytes32",
          "name": "",
          "type": "bytes32"
        },
        {
          "internalType": "address",
          "name": "",
          "type": "address"
        }
      ],
      "name": "delegatedManagers",
      "outputs": [
        {
          "internalType": "bool",
          "name": "",
          "type": "bool"
        }
      ],
      "payable": false,
      "stateMutability": "view",
      "type": "function"
    },
    {
      "constant": true,
      "inputs": [],
      "name": "feeRebatePercent",
      "outputs": [
        {
          "internalType": "uint256",
          "name": "",
          "type": "uint256"
        }
      ],
      "payable": false,
      "stateMutability": "view",
      "type": "function"
    },
    {
      "constant": true,
      "inputs": [],
      "name": "feesController",
      "outputs": [
        {
          "internalType": "address",
          "name": "",
          "type": "address"
        }
      ],
      "payable": false,
      "stateMutability": "view",
      "type": "function"
    },
    {
      "constant": true,
      "inputs": [],
      "name": "isOwner",
      "outputs": [
        {
          "internalType": "bool",
          "name": "",
          "type": "bool"
        }
      ],
      "payable": false,
      "stateMutability": "view",
      "type": "function"
    },
    {
      "constant": true,
      "inputs": [
        {
          "internalType": "address",
          "name": "",
          "type": "address"
        },
        {
          "internalType": "address",
          "name": "",
          "type": "address"
        }
      ],
      "name": "lenderInterest",
      "outputs": [
        {
          "internalType": "uint256",
          "name": "principalTotal",
          "type": "uint256"
        },
        {
          "internalType": "uint256",
          "name": "owedPerDay",
          "type": "uint256"
        },
        {
          "internalType": "uint256",
          "name": "owedTotal",
          "type": "uint256"
        },
        {
          "internalType": "uint256",
          "name": "paidTotal",
          "type": "uint256"
        },
        {
          "internalType": "uint256",
          "name": "updatedTimestamp",
          "type": "uint256"
        }
      ],
      "payable": false,
      "stateMutability": "view",
      "type": "function"
    },
    {
      "constant": true,
      "inputs": [
        {
          "internalType": "address",
          "name": "",
          "type": "address"
        },
        {
          "internalType": "bytes32",
          "name": "",
          "type": "bytes32"
        }
      ],
      "name": "lenderOrders",
      "outputs": [
        {
          "internalType": "uint256",
          "name": "lockedAmount",
          "type": "uint256"
        },
        {
          "internalType": "uint256",
          "name": "interestRate",
          "type": "uint256"
        },
        {
          "internalType": "uint256",
          "name": "minLoanTerm",
          "type": "uint256"
        },
        {
          "internalType": "uint256",
          "name": "maxLoanTerm",
          "type": "uint256"
        },
        {
          "internalType": "uint256",
          "name": "createdTimestamp",
          "type": "uint256"
        },
        {
          "internalType": "uint256",
          "name": "expirationTimestamp",
          "type": "uint256"
        }
      ],
      "payable": false,
      "stateMutability": "view",
      "type": "function"
    },
    {
      "constant": true,
      "inputs": [],
      "name": "lendingFeePercent",
      "outputs": [
        {
          "internalType": "uint256",
          "name": "",
          "type": "uint256"
        }
      ],
      "payable": false,
      "stateMutability": "view",
      "type": "function"
    },
    {
      "constant": true,
      "inputs": [
        {
          "internalType": "address",
          "name": "",
          "type": "address"
        }
      ],
      "name": "lendingFeeTokensHeld",
      "outputs": [
        {
          "internalType": "uint256",
          "name": "",
          "type": "uint256"
        }
      ],
      "payable": false,
      "stateMutability": "view",
      "type": "function"
    },
    {
      "constant": true,
      "inputs": [
        {
          "internalType": "address",
          "name": "",
          "type": "address"
        }
      ],
      "name": "lendingFeeTokensPaid",
      "outputs": [
        {
          "internalType": "uint256",
          "name": "",
          "type": "uint256"
        }
      ],
      "payable": false,
      "stateMutability": "view",
      "type": "function"
    },
    {
      "constant": true,
      "inputs": [],
      "name": "liquidationIncentivePercent",
      "outputs": [
        {
          "internalType": "uint256",
          "name": "",
          "type": "uint256"
        }
      ],
      "payable": false,
      "stateMutability": "view",
      "type": "function"
    },
    {
      "constant": true,
      "inputs": [
        {
          "internalType": "bytes32",
          "name": "",
          "type": "bytes32"
        }
      ],
      "name": "loanInterest",
      "outputs": [
        {
          "internalType": "uint256",
          "name": "owedPerDay",
          "type": "uint256"
        },
        {
          "internalType": "uint256",
          "name": "depositTotal",
          "type": "uint256"
        },
        {
          "internalType": "uint256",
          "name": "updatedTimestamp",
          "type": "uint256"
        }
      ],
      "payable": false,
      "stateMutability": "view",
      "type": "function"
    },
    {
      "constant": true,
      "inputs": [
        {
          "internalType": "bytes32",
          "name": "",
          "type": "bytes32"
        }
      ],
      "name": "loanParams",
      "outputs": [
        {
          "internalType": "bytes32",
          "name": "id",
          "type": "bytes32"
        },
        {
          "internalType": "bool",
          "name": "active",
          "type": "bool"
        },
        {
          "internalType": "address",
          "name": "owner",
          "type": "address"
        },
        {
          "internalType": "address",
          "name": "loanToken",
          "type": "address"
        },
        {
          "internalType": "address",
          "name": "collateralToken",
          "type": "address"
        },
        {
          "internalType": "uint256",
          "name": "minInitialMargin",
          "type": "uint256"
        },
        {
          "internalType": "uint256",
          "name": "maintenanceMargin",
          "type": "uint256"
        },
        {
          "internalType": "uint256",
          "name": "maxLoanTerm",
          "type": "uint256"
        }
      ],
      "payable": false,
      "stateMutability": "view",
      "type": "function"
    },
    {
      "constant": true,
      "inputs": [
        {
          "internalType": "address",
          "name": "",
          "type": "address"
        }
      ],
      "name": "loanPoolToUnderlying",
      "outputs": [
        {
          "internalType": "address",
          "name": "",
          "type": "address"
        }
      ],
      "payable": false,
      "stateMutability": "view",
      "type": "function"
    },
    {
      "constant": true,
      "inputs": [
        {
          "internalType": "bytes32",
          "name": "",
          "type": "bytes32"
        }
      ],
      "name": "loans",
      "outputs": [
        {
          "internalType": "bytes32",
          "name": "id",
          "type": "bytes32"
        },
        {
          "internalType": "bytes32",
          "name": "loanParamsId",
          "type": "bytes32"
        },
        {
          "internalType": "bytes32",
          "name": "pendingTradesId",
          "type": "bytes32"
        },
        {
          "internalType": "bool",
          "name": "active",
          "type": "bool"
        },
        {
          "internalType": "uint256",
          "name": "principal",
          "type": "uint256"
        },
        {
          "internalType": "uint256",
          "name": "collateral",
          "type": "uint256"
        },
        {
          "internalType": "uint256",
          "name": "startTimestamp",
          "type": "uint256"
        },
        {
          "internalType": "uint256",
          "name": "endTimestamp",
          "type": "uint256"
        },
        {
          "internalType": "uint256",
          "name": "startMargin",
          "type": "uint256"
        },
        {
          "internalType": "uint256",
          "name": "startRate",
          "type": "uint256"
        },
        {
          "internalType": "address",
          "name": "borrower",
          "type": "address"
        },
        {
          "internalType": "address",
          "name": "lender",
          "type": "address"
        }
      ],
      "payable": false,
      "stateMutability": "view",
      "type": "function"
    },
    {
      "constant": true,
      "inputs": [],
      "name": "lockedSOVAddress",
      "outputs": [
        {
          "internalType": "address",
          "name": "",
          "type": "address"
        }
      ],
      "payable": false,
      "stateMutability": "view",
      "type": "function"
    },
    {
      "constant": true,
      "inputs": [
        {
          "internalType": "bytes4",
          "name": "",
          "type": "bytes4"
        }
      ],
      "name": "logicTargets",
      "outputs": [
        {
          "internalType": "address",
          "name": "",
          "type": "address"
        }
      ],
      "payable": false,
      "stateMutability": "view",
      "type": "function"
    },
    {
      "constant": true,
      "inputs": [],
      "name": "maxDisagreement",
      "outputs": [
        {
          "internalType": "uint256",
          "name": "",
          "type": "uint256"
        }
      ],
      "payable": false,
      "stateMutability": "view",
      "type": "function"
    },
    {
      "constant": true,
      "inputs": [],
      "name": "maxSwapSize",
      "outputs": [
        {
          "internalType": "uint256",
          "name": "",
          "type": "uint256"
        }
      ],
      "payable": false,
      "stateMutability": "view",
      "type": "function"
    },
    {
      "constant": true,
      "inputs": [],
      "name": "minReferralsToPayout",
      "outputs": [
        {
          "internalType": "uint256",
          "name": "",
          "type": "uint256"
        }
      ],
      "payable": false,
      "stateMutability": "view",
      "type": "function"
    },
    {
      "constant": true,
      "inputs": [],
      "name": "owner",
      "outputs": [
        {
          "internalType": "address",
          "name": "",
          "type": "address"
        }
      ],
      "payable": false,
      "stateMutability": "view",
      "type": "function"
    },
    {
      "constant": true,
      "inputs": [],
      "name": "pause",
      "outputs": [
        {
          "internalType": "bool",
          "name": "",
          "type": "bool"
        }
      ],
      "payable": false,
      "stateMutability": "view",
      "type": "function"
    },
    {
      "constant": true,
      "inputs": [],
      "name": "paySwapExcessToBorrowerThreshold",
      "outputs": [
        {
          "internalType": "uint256",
          "name": "",
          "type": "uint256"
        }
      ],
      "payable": false,
      "stateMutability": "view",
      "type": "function"
    },
    {
      "constant": true,
      "inputs": [],
      "name": "priceFeeds",
      "outputs": [
        {
          "internalType": "address",
          "name": "",
          "type": "address"
        }
      ],
      "payable": false,
      "stateMutability": "view",
      "type": "function"
    },
    {
      "constant": true,
      "inputs": [],
      "name": "protocolAddress",
      "outputs": [
        {
          "internalType": "address",
          "name": "",
          "type": "address"
        }
      ],
      "payable": false,
      "stateMutability": "view",
      "type": "function"
    },
    {
      "constant": true,
      "inputs": [],
      "name": "protocolTokenAddress",
      "outputs": [
        {
          "internalType": "address",
          "name": "",
          "type": "address"
        }
      ],
      "payable": false,
      "stateMutability": "view",
      "type": "function"
    },
    {
      "constant": true,
      "inputs": [],
      "name": "protocolTokenHeld",
      "outputs": [
        {
          "internalType": "uint256",
          "name": "",
          "type": "uint256"
        }
      ],
      "payable": false,
      "stateMutability": "view",
      "type": "function"
    },
    {
      "constant": true,
      "inputs": [],
      "name": "protocolTokenPaid",
      "outputs": [
        {
          "internalType": "uint256",
          "name": "",
          "type": "uint256"
        }
      ],
      "payable": false,
      "stateMutability": "view",
      "type": "function"
    },
    {
      "constant": true,
      "inputs": [],
      "name": "rolloverBaseReward",
      "outputs": [
        {
          "internalType": "uint256",
          "name": "",
          "type": "uint256"
        }
      ],
      "payable": false,
      "stateMutability": "view",
      "type": "function"
    },
    {
      "constant": true,
      "inputs": [],
      "name": "rolloverFlexFeePercent",
      "outputs": [
        {
          "internalType": "uint256",
          "name": "",
          "type": "uint256"
        }
      ],
      "payable": false,
      "stateMutability": "view",
      "type": "function"
    },
    {
      "constant": true,
      "inputs": [],
      "name": "sourceBuffer",
      "outputs": [
        {
          "internalType": "uint256",
          "name": "",
          "type": "uint256"
        }
      ],
      "payable": false,
      "stateMutability": "view",
      "type": "function"
    },
    {
      "constant": true,
      "inputs": [],
      "name": "sovTokenAddress",
      "outputs": [
        {
          "internalType": "address",
          "name": "",
          "type": "address"
        }
      ],
      "payable": false,
      "stateMutability": "view",
      "type": "function"
    },
    {
      "constant": true,
      "inputs": [],
      "name": "sovrynSwapContractRegistryAddress",
      "outputs": [
        {
          "internalType": "address",
          "name": "",
          "type": "address"
        }
      ],
      "payable": false,
      "stateMutability": "view",
      "type": "function"
    },
    {
      "constant": true,
      "inputs": [
        {
          "internalType": "address",
          "name": "",
          "type": "address"
        },
        {
          "internalType": "address",
          "name": "",
          "type": "address"
        }
      ],
      "name": "specialRebates",
      "outputs": [
        {
          "internalType": "uint256",
          "name": "",
          "type": "uint256"
        }
      ],
      "payable": false,
      "stateMutability": "view",
      "type": "function"
    },
    {
      "constant": true,
      "inputs": [
        {
          "internalType": "address",
          "name": "",
          "type": "address"
        }
      ],
      "name": "supportedTokens",
      "outputs": [
        {
          "internalType": "bool",
          "name": "",
          "type": "bool"
        }
      ],
      "payable": false,
      "stateMutability": "view",
      "type": "function"
    },
    {
      "constant": true,
      "inputs": [],
      "name": "swapsImpl",
      "outputs": [
        {
          "internalType": "address",
          "name": "",
          "type": "address"
        }
      ],
      "payable": false,
      "stateMutability": "view",
      "type": "function"
    },
    {
      "constant": true,
      "inputs": [],
      "name": "tradingFeePercent",
      "outputs": [
        {
          "internalType": "uint256",
          "name": "",
          "type": "uint256"
        }
      ],
      "payable": false,
      "stateMutability": "view",
      "type": "function"
    },
    {
      "constant": true,
      "inputs": [
        {
          "internalType": "address",
          "name": "",
          "type": "address"
        }
      ],
      "name": "tradingFeeTokensHeld",
      "outputs": [
        {
          "internalType": "uint256",
          "name": "",
          "type": "uint256"
        }
      ],
      "payable": false,
      "stateMutability": "view",
      "type": "function"
    },
    {
      "constant": true,
      "inputs": [
        {
          "internalType": "address",
          "name": "",
          "type": "address"
        }
      ],
      "name": "tradingFeeTokensPaid",
      "outputs": [
        {
          "internalType": "uint256",
          "name": "",
          "type": "uint256"
        }
      ],
      "payable": false,
      "stateMutability": "view",
      "type": "function"
    },
    {
      "constant": false,
      "inputs": [
        {
          "internalType": "address",
          "name": "newOwner",
          "type": "address"
        }
      ],
      "name": "transferOwnership",
      "outputs": [],
      "payable": false,
      "stateMutability": "nonpayable",
      "type": "function"
    },
    {
      "constant": true,
      "inputs": [
        {
          "internalType": "address",
          "name": "",
          "type": "address"
        }
      ],
      "name": "underlyingToLoanPool",
      "outputs": [
        {
          "internalType": "address",
          "name": "",
          "type": "address"
        }
      ],
      "payable": false,
      "stateMutability": "view",
      "type": "function"
    },
    {
      "constant": true,
      "inputs": [
        {
          "internalType": "address",
          "name": "",
          "type": "address"
        }
      ],
      "name": "userNotFirstTradeFlag",
      "outputs": [
        {
          "internalType": "bool",
          "name": "",
          "type": "bool"
        }
      ],
      "payable": false,
      "stateMutability": "view",
      "type": "function"
    },
    {
      "constant": true,
      "inputs": [],
      "name": "wrbtcToken",
      "outputs": [
        {
          "internalType": "contract IWrbtcERC20",
          "name": "",
          "type": "address"
        }
      ],
      "payable": false,
      "stateMutability": "view",
      "type": "function"
    }
  ],
  "bytecode": {
    "object": "0x60806040526001600055678ac7230489e80000601555670214e8348c4f000060185567013fbe85edc90000601b55674563918244f40000602055674563918244f40000602155674563918244f400006027556127106028556802b5e3af16b1880000602955650f478e084000602b5567016345785d8a0000602c556802b5e3af16b1880000602f5560036035556801158e460913d0000060395560006100a96100fc60201b60201c565b600180546001600160a01b0319166001600160a01b038316908117909155604051919250906000907f8be0079c531659141344cd1fd0a4f28419497f9722a3daafe3b4186f6b6457e0908290a350610100565b3390565b6110618061010f6000396000f3fe608060405234801561001057600080fd5b50600436106103425760003560e01c80638f32d59b116101b8578063cd5d808d11610104578063f0e085f5116100a2578063f6ddc8b31161007c578063f6ddc8b31461067c578063f706b1f214610684578063f851a4401461068c578063f8dd4f0e1461069457610342565b8063f0e085f514610657578063f2fde38b1461065f578063f589a3e71461067457610342565b8063d485045e116100de578063d485045e1461062c578063e8f627641461063f578063edab119f14610647578063ee54a4ec1461064f57610342565b8063cd5d808d14610609578063d288208c1461061c578063d473c2da1461062457610342565b8063b30643d911610171578063ba4861e91161014b578063ba4861e91461059c578063bdee453c146105a4578063c4a90815146105b7578063cb6eacd1146105e257610342565b8063b30643d91461056e578063b7e1524114610581578063b9cffa3e1461059457610342565b80638f32d59b1461052657806392d894f81461052e578063959083d314610541578063acc0434814610549578063ae0a853014610551578063afe840091461055957610342565b80634699f846116102925780637420ca3e116102305780637a8faeb81161020a5780637a8faeb8146104fb5780638456cb59146105035780638da5cb5b1461050b5780638dc48ba51461051357610342565b80637420ca3e146104e3578063742e6798146104eb57806378d849ed146104f357610342565b8063574442cc1161026c578063574442cc1461049157806362fff3f61461049957806368c4ac26146104bd5780636e663730146104d057610342565b80634699f8461461045f5780634f28cac214610467578063569fc1fb1461046f57610342565b80632a324027116102ff5780633452d2d4116102d95780633452d2d4146104135780633fca506e146104265780634115a2b6146104395780634203e3951461044c57610342565b80632a324027146103f05780632f470764146103f85780633432423c1461040057610342565b8063065d810f146103475780630676c1b71461037557806317548b791461038a5780631b7bde741461039d578063218b39c6146103bd57806324cc5749146103d0575b600080fd5b61035a610355366004610c43565b61069c565b60405161036c96959493929190610f5e565b60405180910390f35b61037d6106dc565b60405161036c9190610d68565b61037d610398366004610cb0565b6106eb565b6103b06103ab366004610c09565b610706565b60405161036c9190610edc565b61037d6103cb366004610be3565b610723565b6103e36103de366004610be3565b61073e565b60405161036c9190610d76565b6103b0610753565b6103b0610759565b61035a61040e366004610c43565b61075f565b6103b0610421366004610be3565b61079f565b6103b0610434366004610be3565b6107b1565b6103e3610447366004610c91565b6107c3565b6103b061045a366004610be3565b6107e3565b6103b06107f5565b6103b06107fb565b61048261047d366004610c73565b610801565b60405161036c93929190610eea565b6103b0610822565b6104ac6104a7366004610c09565b610828565b60405161036c959493929190610f12565b6103e36104cb366004610be3565b610862565b61037d6104de366004610be3565b610877565b61037d610892565b6103b06108a1565b61037d6108a7565b6103b06108b6565b6103e36108bc565b61037d6108c5565b61037d610521366004610be3565b6108d4565b6103e36108ef565b6103b061053c366004610be3565b610915565b6103b0610927565b6103b061092d565b6103b0610933565b610561610939565b60405161036c9190610eae565b6103b061057c366004610be3565b610948565b6103b061058f366004610be3565b61095a565b61037d61096c565b61037d61097b565b6103b06105b2366004610be3565b61098a565b6105ca6105c5366004610c73565b61099c565b60405161036c9c9b9a99989796959493929190610dfb565b6105f56105f0366004610c73565b610a0e565b60405161036c989796959493929190610d84565b6103b0610617366004610c09565b610a60565b61037d610a7d565b6103b0610a8c565b6103b061063a366004610be3565b610a92565b61037d610aa4565b6103b0610ab3565b6103b0610ab9565b6103b0610ac3565b61067261066d366004610be3565b610ac9565b005b6103b0610b02565b6103b0610b08565b61037d610b0e565b61037d610b1d565b6103b0610b2c565b6009602090815260009283526040808420909152908252902080546001820154600283015460038401546004850154600590950154939492939192909186565b6031546001600160a01b031681565b6005602052600090815260409020546001600160a01b031681565b603b60209081526000928352604080842090915290825290205481565b6023602052600090815260409020546001600160a01b031681565b60326020526000908152604090205460ff1681565b60185481565b601f5481565b6008602090815260009283526040808420909152908252902080546001820154600283015460038401546004850154600590950154939492939192909186565b601a6020526000908152604090205481565b602a6020526000908152604090205481565b600a60209081526000928352604080842090915290825290205460ff1681565b60166020526000908152604090205481565b60155481565b60295481565b600c6020526000908152604090208054600182015460029092015490919083565b602b5481565b600b602090815260009283526040808420909152908252902080546001820154600283015460038401546004909401549293919290919085565b60266020526000908152604090205460ff1681565b6033602052600090815260409020546001600160a01b031681565b6003546001600160a01b031681565b60355481565b6002546001600160a01b031681565b601e5481565b603d5460ff1681565b6001546001600160a01b031690565b6022602052600090815260409020546001600160a01b031681565b6001546000906001600160a01b0316610906610b36565b6001600160a01b031614905090565b60176020526000908152604090205481565b602c5481565b602f5481565b60205481565b602d546001600160a01b031681565b601d6020526000908152604090205481565b601c6020526000908152604090205481565b6037546001600160a01b031681565b6004546001600160a01b031681565b60366020526000908152604090205481565b600660208190526000918252604090912080546001820154600283015460038401546004850154600586015496860154600787015460088801546009890154600a8a0154600b909a0154989a9799969860ff909616979496949593949293919290916001600160a01b0391821691168c565b6007602052600090815260409020805460018201546002830154600384015460048501546005860154600690960154949560ff8516956101009095046001600160a01b03908116959481169493169288565b603c60209081526000928352604080842090915290825290205481565b6038546001600160a01b031681565b60275481565b60196020526000908152604090205481565b6014546001600160a01b031681565b601b5481565b6509184e72a00081565b60285481565b610ad16108ef565b610af65760405162461bcd60e51b8152600401610aed90610ecc565b60405180910390fd5b610aff81610b3a565b50565b60395481565b60215481565b602e546001600160a01b031681565b6030546001600160a01b031681565b65e35fa931a00081565b3390565b6001600160a01b038116610b605760405162461bcd60e51b8152600401610aed90610ebc565b6001546040516001600160a01b038084169216907f8be0079c531659141344cd1fd0a4f28419497f9722a3daafe3b4186f6b6457e090600090a3600180546001600160a01b0319166001600160a01b0392909216919091179055565b8035610bc781610ff8565b92915050565b8035610bc78161100c565b8035610bc781611015565b600060208284031215610bf557600080fd5b6000610c018484610bbc565b949350505050565b60008060408385031215610c1c57600080fd5b6000610c288585610bbc565b9250506020610c3985828601610bbc565b9150509250929050565b60008060408385031215610c5657600080fd5b6000610c628585610bbc565b9250506020610c3985828601610bcd565b600060208284031215610c8557600080fd5b6000610c018484610bcd565b60008060408385031215610ca457600080fd5b6000610c288585610bcd565b600060208284031215610cc257600080fd5b6000610c018484610bd8565b610cd781610fc1565b82525050565b610cd781610fcc565b610cd781610fd1565b610cd781610fed565b6000610d05602683610fb8565b7f4f776e61626c653a206e6577206f776e657220697320746865207a65726f206181526564647265737360d01b602082015260400192915050565b6000610d4d600c83610fb8565b6b1d5b985d5d1a1bdc9a5e995960a21b815260200192915050565b60208101610bc78284610cce565b60208101610bc78284610cdd565b6101008101610d93828b610ce6565b610da0602083018a610cdd565b610dad6040830189610cce565b610dba6060830188610cce565b610dc76080830187610cce565b610dd460a0830186610ce6565b610de160c0830185610ce6565b610dee60e0830184610ce6565b9998505050505050505050565b6101808101610e0a828f610ce6565b610e17602083018e610ce6565b610e24604083018d610ce6565b610e31606083018c610cdd565b610e3e608083018b610ce6565b610e4b60a083018a610ce6565b610e5860c0830189610ce6565b610e6560e0830188610ce6565b610e73610100830187610ce6565b610e81610120830186610ce6565b610e8f610140830185610cce565b610e9d610160830184610cce565b9d9c50505050505050505050505050565b60208101610bc78284610cef565b60208082528101610bc781610cf8565b60208082528101610bc781610d40565b60208101610bc78284610ce6565b60608101610ef88286610ce6565b610f056020830185610ce6565b610c016040830184610ce6565b60a08101610f208288610ce6565b610f2d6020830187610ce6565b610f3a6040830186610ce6565b610f476060830185610ce6565b610f546080830184610ce6565b9695505050505050565b60c08101610f6c8289610ce6565b610f796020830188610ce6565b610f866040830187610ce6565b610f936060830186610ce6565b610fa06080830185610ce6565b610fad60a0830184610ce6565b979650505050505050565b90815260200190565b6000610bc782610fe1565b151590565b90565b6001600160e01b03191690565b6001600160a01b031690565b6000610bc782610fc1565b61100181610fc1565b8114610aff57600080fd5b61100181610fd1565b61100181610fd456fea365627a7a72315820d0b06efb9166d4e03fa41ad7c2b4004a2f4ff5d534a3f09bf09d9014d804ac286c6578706572696d656e74616cf564736f6c63430005110040",
    "linkReferences": {}
  },
  "methodIdentifiers": {
    "TINY_AMOUNT()": "f8dd4f0e",
    "admin()": "f851a440",
    "affiliateFeePercent()": "ae0a8530",
    "affiliateRewardsHeld(address)": "bdee453c",
    "affiliateTradingTokenFeePercent()": "f589a3e7",
    "affiliatesReferrerBalances(address,address)": "1b7bde74",
    "affiliatesUserReferrer(address)": "6e663730",
    "borrowerNonce(address)": "3fca506e",
    "borrowerOrders(address,bytes32)": "065d810f",
    "borrowingFeePercent()": "edab119f",
    "borrowingFeeTokensHeld(address)": "b7e15241",
    "borrowingFeeTokensPaid(address)": "b30643d9",
    "delegatedManagers(bytes32,address)": "4115a2b6",
    "feeRebatePercent()": "acc04348",
    "feesController()": "e8f62764",
    "isOwner()": "8f32d59b",
    "lenderInterest(address,address)": "62fff3f6",
    "lenderOrders(address,bytes32)": "3432423c",
    "lendingFeePercent()": "4699f846",
    "lendingFeeTokensHeld(address)": "4203e395",
    "lendingFeeTokensPaid(address)": "92d894f8",
    "liquidationIncentivePercent()": "f6ddc8b3",
    "loanInterest(bytes32)": "569fc1fb",
    "loanParams(bytes32)": "cb6eacd1",
    "loanPoolToUnderlying(address)": "8dc48ba5",
    "loans(bytes32)": "c4a90815",
    "lockedSOVAddress()": "d288208c",
    "logicTargets(bytes4)": "17548b79",
    "maxDisagreement()": "d473c2da",
    "maxSwapSize()": "4f28cac2",
    "minReferralsToPayout()": "742e6798",
    "owner()": "8da5cb5b",
    "pause()": "8456cb59",
    "paySwapExcessToBorrowerThreshold()": "ee54a4ec",
    "priceFeeds()": "78d849ed",
    "protocolAddress()": "0676c1b7",
    "protocolTokenAddress()": "f706b1f2",
    "protocolTokenHeld()": "7a8faeb8",
    "protocolTokenPaid()": "2f470764",
    "rolloverBaseReward()": "574442cc",
    "rolloverFlexFeePercent()": "959083d3",
    "sourceBuffer()": "f0e085f5",
    "sovTokenAddress()": "b9cffa3e",
    "sovrynSwapContractRegistryAddress()": "ba4861e9",
    "specialRebates(address,address)": "cd5d808d",
    "supportedTokens(address)": "68c4ac26",
    "swapsImpl()": "7420ca3e",
    "tradingFeePercent()": "2a324027",
    "tradingFeeTokensHeld(address)": "d485045e",
    "tradingFeeTokensPaid(address)": "3452d2d4",
    "transferOwnership(address)": "f2fde38b",
    "underlyingToLoanPool(address)": "218b39c6",
    "userNotFirstTradeFlag(address)": "24cc5749",
    "wrbtcToken()": "afe84009"
  },
  "id": 167
}