{
  "abi": [
    {
      "inputs": [],
      "payable": false,
      "stateMutability": "nonpayable",
      "type": "constructor"
    },
    {
      "anonymous": false,
      "inputs": [
        {
          "indexed": true,
          "internalType": "address",
          "name": "previousOwner",
          "type": "address"
        },
        {
          "indexed": true,
          "internalType": "address",
          "name": "newOwner",
          "type": "address"
        }
      ],
      "name": "OwnershipTransferred",
      "type": "event"
    },
    {
      "anonymous": false,
      "inputs": [
        {
          "indexed": true,
          "internalType": "address",
          "name": "referrer",
          "type": "address"
        },
        {
          "indexed": false,
          "internalType": "address",
          "name": "trader",
          "type": "address"
        },
        {
          "indexed": true,
          "internalType": "address",
          "name": "token",
          "type": "address"
        },
        {
          "indexed": true,
          "internalType": "bool",
          "name": "isHeld",
          "type": "bool"
        },
        {
          "indexed": false,
          "internalType": "uint256",
          "name": "tradingFeeTokenAmount",
          "type": "uint256"
        },
        {
          "indexed": false,
          "internalType": "uint256",
          "name": "tokenBonusAmount",
          "type": "uint256"
        },
        {
          "indexed": false,
          "internalType": "uint256",
          "name": "sovBonusAmount",
          "type": "uint256"
        },
        {
          "indexed": false,
          "internalType": "uint256",
          "name": "sovBonusAmountPaid",
          "type": "uint256"
        }
      ],
      "name": "PayTradingFeeToAffiliate",
      "type": "event"
    },
    {
      "anonymous": false,
      "inputs": [
        {
          "indexed": true,
          "internalType": "address",
          "name": "referrer",
          "type": "address"
        },
        {
          "indexed": false,
          "internalType": "address",
          "name": "trader",
          "type": "address"
        },
        {
          "indexed": true,
          "internalType": "address",
          "name": "token",
          "type": "address"
        },
        {
          "indexed": false,
          "internalType": "uint256",
          "name": "tradingFeeTokenAmount",
          "type": "uint256"
        },
        {
          "indexed": false,
          "internalType": "uint256",
          "name": "tokenBonusAmount",
          "type": "uint256"
        },
        {
          "indexed": false,
          "internalType": "uint256",
          "name": "sovBonusAmount",
          "type": "uint256"
        },
        {
          "indexed": false,
          "internalType": "uint256",
          "name": "sovBonusAmountTryingToPaid",
          "type": "uint256"
        }
      ],
      "name": "PayTradingFeeToAffiliateFail",
      "type": "event"
    },
    {
      "anonymous": false,
      "inputs": [
        {
          "indexed": true,
          "internalType": "address",
          "name": "prevModuleContractAddress",
          "type": "address"
        },
        {
          "indexed": true,
          "internalType": "address",
          "name": "newModuleContractAddress",
          "type": "address"
        },
        {
          "indexed": true,
          "internalType": "bytes32",
          "name": "module",
          "type": "bytes32"
        }
      ],
      "name": "ProtocolModuleContractReplaced",
      "type": "event"
    },
    {
      "anonymous": false,
      "inputs": [
        {
          "indexed": true,
          "internalType": "address",
          "name": "user",
          "type": "address"
        },
        {
          "indexed": true,
          "internalType": "address",
          "name": "referrer",
          "type": "address"
        }
      ],
      "name": "SetAffiliatesReferrer",
      "type": "event"
    },
    {
      "anonymous": false,
      "inputs": [
        {
          "indexed": true,
          "internalType": "address",
          "name": "user",
          "type": "address"
        },
        {
          "indexed": true,
          "internalType": "address",
          "name": "referrer",
          "type": "address"
        },
        {
          "indexed": false,
          "internalType": "bool",
          "name": "alreadySet",
          "type": "bool"
        },
        {
          "indexed": false,
          "internalType": "bool",
          "name": "userNotFirstTrade",
          "type": "bool"
        }
      ],
      "name": "SetAffiliatesReferrerFail",
      "type": "event"
    },
    {
      "anonymous": false,
      "inputs": [
        {
          "indexed": true,
          "internalType": "address",
          "name": "user",
          "type": "address"
        }
      ],
      "name": "SetUserNotFirstTradeFlag",
      "type": "event"
    },
    {
      "anonymous": false,
      "inputs": [
        {
          "indexed": true,
          "internalType": "address",
          "name": "referrer",
          "type": "address"
        },
        {
          "indexed": true,
          "internalType": "address",
          "name": "receiver",
          "type": "address"
        },
        {
          "indexed": true,
          "internalType": "address",
          "name": "tokenAddress",
          "type": "address"
        },
        {
          "indexed": false,
          "internalType": "uint256",
          "name": "amount",
          "type": "uint256"
        }
      ],
      "name": "WithdrawAffiliatesReferrerTokenFees",
      "type": "event"
    },
    {
      "payable": false,
      "stateMutability": "nonpayable",
      "type": "fallback"
    },
    {
      "constant": true,
      "inputs": [],
      "name": "admin",
      "outputs": [
        {
          "internalType": "address",
          "name": "",
          "type": "address"
        }
      ],
      "payable": false,
      "stateMutability": "view",
      "type": "function"
    },
    {
      "constant": true,
      "inputs": [],
      "name": "affiliateFeePercent",
      "outputs": [
        {
          "internalType": "uint256",
          "name": "",
          "type": "uint256"
        }
      ],
      "payable": false,
      "stateMutability": "view",
      "type": "function"
    },
    {
      "constant": true,
      "inputs": [
        {
          "internalType": "address",
          "name": "",
          "type": "address"
        }
      ],
      "name": "affiliateRewardsHeld",
      "outputs": [
        {
          "internalType": "uint256",
          "name": "",
          "type": "uint256"
        }
      ],
      "payable": false,
      "stateMutability": "view",
      "type": "function"
    },
    {
      "constant": true,
      "inputs": [],
      "name": "affiliateTradingTokenFeePercent",
      "outputs": [
        {
          "internalType": "uint256",
          "name": "",
          "type": "uint256"
        }
      ],
      "payable": false,
      "stateMutability": "view",
      "type": "function"
    },
    {
      "constant": true,
      "inputs": [
        {
          "internalType": "address",
          "name": "",
          "type": "address"
        },
        {
          "internalType": "address",
          "name": "",
          "type": "address"
        }
      ],
      "name": "affiliatesReferrerBalances",
      "outputs": [
        {
          "internalType": "uint256",
          "name": "",
          "type": "uint256"
        }
      ],
      "payable": false,
      "stateMutability": "view",
      "type": "function"
    },
    {
      "constant": true,
      "inputs": [
        {
          "internalType": "address",
          "name": "",
          "type": "address"
        }
      ],
      "name": "affiliatesUserReferrer",
      "outputs": [
        {
          "internalType": "address",
          "name": "",
          "type": "address"
        }
      ],
      "payable": false,
      "stateMutability": "view",
      "type": "function"
    },
    {
      "constant": true,
      "inputs": [
        {
          "internalType": "address",
          "name": "",
          "type": "address"
        }
      ],
      "name": "borrowerNonce",
      "outputs": [
        {
          "internalType": "uint256",
          "name": "",
          "type": "uint256"
        }
      ],
      "payable": false,
      "stateMutability": "view",
      "type": "function"
    },
    {
      "constant": true,
      "inputs": [
        {
          "internalType": "address",
          "name": "",
          "type": "address"
        },
        {
          "internalType": "bytes32",
          "name": "",
          "type": "bytes32"
        }
      ],
      "name": "borrowerOrders",
      "outputs": [
        {
          "internalType": "uint256",
          "name": "lockedAmount",
          "type": "uint256"
        },
        {
          "internalType": "uint256",
          "name": "interestRate",
          "type": "uint256"
        },
        {
          "internalType": "uint256",
          "name": "minLoanTerm",
          "type": "uint256"
        },
        {
          "internalType": "uint256",
          "name": "maxLoanTerm",
          "type": "uint256"
        },
        {
          "internalType": "uint256",
          "name": "createdTimestamp",
          "type": "uint256"
        },
        {
          "internalType": "uint256",
          "name": "expirationTimestamp",
          "type": "uint256"
        }
      ],
      "payable": false,
      "stateMutability": "view",
      "type": "function"
    },
    {
      "constant": true,
      "inputs": [],
      "name": "borrowingFeePercent",
      "outputs": [
        {
          "internalType": "uint256",
          "name": "",
          "type": "uint256"
        }
      ],
      "payable": false,
      "stateMutability": "view",
      "type": "function"
    },
    {
      "constant": true,
      "inputs": [
        {
          "internalType": "address",
          "name": "",
          "type": "address"
        }
      ],
      "name": "borrowingFeeTokensHeld",
      "outputs": [
        {
          "internalType": "uint256",
          "name": "",
          "type": "uint256"
        }
      ],
      "payable": false,
      "stateMutability": "view",
      "type": "function"
    },
    {
      "constant": true,
      "inputs": [
        {
          "internalType": "address",
          "name": "",
          "type": "address"
        }
      ],
      "name": "borrowingFeeTokensPaid",
      "outputs": [
        {
          "internalType": "uint256",
          "name": "",
          "type": "uint256"
        }
      ],
      "payable": false,
      "stateMutability": "view",
      "type": "function"
    },
    {
      "constant": true,
      "inputs": [
        {
          "internalType": "bytes32",
          "name": "",
          "type": "bytes32"
        },
        {
          "internalType": "address",
          "name": "",
          "type": "address"
        }
      ],
      "name": "delegatedManagers",
      "outputs": [
        {
          "internalType": "bool",
          "name": "",
          "type": "bool"
        }
      ],
      "payable": false,
      "stateMutability": "view",
      "type": "function"
    },
    {
      "constant": true,
      "inputs": [],
      "name": "feeRebatePercent",
      "outputs": [
        {
          "internalType": "uint256",
          "name": "",
          "type": "uint256"
        }
      ],
      "payable": false,
      "stateMutability": "view",
      "type": "function"
    },
    {
      "constant": true,
      "inputs": [],
      "name": "feesController",
      "outputs": [
        {
          "internalType": "address",
          "name": "",
          "type": "address"
        }
      ],
      "payable": false,
      "stateMutability": "view",
      "type": "function"
    },
    {
      "constant": true,
      "inputs": [
        {
          "internalType": "address",
          "name": "referrer",
          "type": "address"
        }
      ],
      "name": "getAffiliateRewardsHeld",
      "outputs": [
        {
          "internalType": "uint256",
          "name": "",
          "type": "uint256"
        }
      ],
      "payable": false,
      "stateMutability": "view",
      "type": "function"
    },
    {
      "constant": true,
      "inputs": [],
      "name": "getAffiliateTradingTokenFeePercent",
      "outputs": [
        {
          "internalType": "uint256",
          "name": "",
          "type": "uint256"
        }
      ],
      "payable": false,
      "stateMutability": "view",
      "type": "function"
    },
    {
      "constant": true,
      "inputs": [
        {
          "internalType": "address",
          "name": "referrer",
          "type": "address"
        }
      ],
      "name": "getAffiliatesReferrerBalances",
      "outputs": [
        {
          "internalType": "address[]",
          "name": "referrerTokensList",
          "type": "address[]"
        },
        {
          "internalType": "uint256[]",
          "name": "referrerTokensBalances",
          "type": "uint256[]"
        }
      ],
      "payable": false,
      "stateMutability": "view",
      "type": "function"
    },
    {
      "constant": true,
      "inputs": [
        {
          "internalType": "address",
          "name": "referrer",
          "type": "address"
        },
        {
          "internalType": "address",
          "name": "token",
          "type": "address"
        }
      ],
      "name": "getAffiliatesReferrerTokenBalance",
      "outputs": [
        {
          "internalType": "uint256",
          "name": "",
          "type": "uint256"
        }
      ],
      "payable": false,
      "stateMutability": "view",
      "type": "function"
    },
    {
      "constant": true,
      "inputs": [
        {
          "internalType": "address",
          "name": "referrer",
          "type": "address"
        }
      ],
      "name": "getAffiliatesReferrerTokensList",
      "outputs": [
        {
          "internalType": "address[]",
          "name": "tokensList",
          "type": "address[]"
        }
      ],
      "payable": false,
      "stateMutability": "view",
      "type": "function"
    },
    {
      "constant": true,
      "inputs": [
        {
          "internalType": "address",
          "name": "referrer",
          "type": "address"
        }
      ],
      "name": "getAffiliatesTokenRewardsValueInRbtc",
      "outputs": [
        {
          "internalType": "uint256",
          "name": "rbtcTotalAmount",
          "type": "uint256"
        }
      ],
      "payable": false,
      "stateMutability": "view",
      "type": "function"
    },
    {
      "constant": true,
      "inputs": [
        {
          "internalType": "address",
          "name": "user",
          "type": "address"
        }
      ],
      "name": "getAffiliatesUserReferrer",
      "outputs": [
        {
          "internalType": "address",
          "name": "",
          "type": "address"
        }
      ],
      "payable": false,
      "stateMutability": "view",
      "type": "function"
    },
    {
      "constant": true,
      "inputs": [],
      "name": "getMinReferralsToPayout",
      "outputs": [
        {
          "internalType": "uint256",
          "name": "",
          "type": "uint256"
        }
      ],
      "payable": false,
      "stateMutability": "view",
      "type": "function"
    },
    {
      "constant": true,
      "inputs": [
        {
          "internalType": "address",
          "name": "referrer",
          "type": "address"
        }
      ],
      "name": "getReferralsList",
      "outputs": [
        {
          "internalType": "address[]",
          "name": "refList",
          "type": "address[]"
        }
      ],
      "payable": false,
      "stateMutability": "view",
      "type": "function"
    },
    {
      "constant": true,
      "inputs": [
        {
          "internalType": "address",
          "name": "user",
          "type": "address"
        }
      ],
      "name": "getUserNotFirstTradeFlag",
      "outputs": [
        {
          "internalType": "bool",
          "name": "",
          "type": "bool"
        }
      ],
      "payable": false,
      "stateMutability": "view",
      "type": "function"
    },
    {
      "constant": false,
      "inputs": [
        {
          "internalType": "address",
          "name": "target",
          "type": "address"
        }
      ],
      "name": "initialize",
      "outputs": [],
      "payable": false,
      "stateMutability": "nonpayable",
      "type": "function"
    },
    {
      "constant": true,
      "inputs": [],
      "name": "isOwner",
      "outputs": [
        {
          "internalType": "bool",
          "name": "",
          "type": "bool"
        }
      ],
      "payable": false,
      "stateMutability": "view",
      "type": "function"
    },
    {
      "constant": true,
      "inputs": [
        {
          "internalType": "address",
          "name": "",
          "type": "address"
        },
        {
          "internalType": "address",
          "name": "",
          "type": "address"
        }
      ],
      "name": "lenderInterest",
      "outputs": [
        {
          "internalType": "uint256",
          "name": "principalTotal",
          "type": "uint256"
        },
        {
          "internalType": "uint256",
          "name": "owedPerDay",
          "type": "uint256"
        },
        {
          "internalType": "uint256",
          "name": "owedTotal",
          "type": "uint256"
        },
        {
          "internalType": "uint256",
          "name": "paidTotal",
          "type": "uint256"
        },
        {
          "internalType": "uint256",
          "name": "updatedTimestamp",
          "type": "uint256"
        }
      ],
      "payable": false,
      "stateMutability": "view",
      "type": "function"
    },
    {
      "constant": true,
      "inputs": [
        {
          "internalType": "address",
          "name": "",
          "type": "address"
        },
        {
          "internalType": "bytes32",
          "name": "",
          "type": "bytes32"
        }
      ],
      "name": "lenderOrders",
      "outputs": [
        {
          "internalType": "uint256",
          "name": "lockedAmount",
          "type": "uint256"
        },
        {
          "internalType": "uint256",
          "name": "interestRate",
          "type": "uint256"
        },
        {
          "internalType": "uint256",
          "name": "minLoanTerm",
          "type": "uint256"
        },
        {
          "internalType": "uint256",
          "name": "maxLoanTerm",
          "type": "uint256"
        },
        {
          "internalType": "uint256",
          "name": "createdTimestamp",
          "type": "uint256"
        },
        {
          "internalType": "uint256",
          "name": "expirationTimestamp",
          "type": "uint256"
        }
      ],
      "payable": false,
      "stateMutability": "view",
      "type": "function"
    },
    {
      "constant": true,
      "inputs": [],
      "name": "lendingFeePercent",
      "outputs": [
        {
          "internalType": "uint256",
          "name": "",
          "type": "uint256"
        }
      ],
      "payable": false,
      "stateMutability": "view",
      "type": "function"
    },
    {
      "constant": true,
      "inputs": [
        {
          "internalType": "address",
          "name": "",
          "type": "address"
        }
      ],
      "name": "lendingFeeTokensHeld",
      "outputs": [
        {
          "internalType": "uint256",
          "name": "",
          "type": "uint256"
        }
      ],
      "payable": false,
      "stateMutability": "view",
      "type": "function"
    },
    {
      "constant": true,
      "inputs": [
        {
          "internalType": "address",
          "name": "",
          "type": "address"
        }
      ],
      "name": "lendingFeeTokensPaid",
      "outputs": [
        {
          "internalType": "uint256",
          "name": "",
          "type": "uint256"
        }
      ],
      "payable": false,
      "stateMutability": "view",
      "type": "function"
    },
    {
      "constant": true,
      "inputs": [],
      "name": "liquidationIncentivePercent",
      "outputs": [
        {
          "internalType": "uint256",
          "name": "",
          "type": "uint256"
        }
      ],
      "payable": false,
      "stateMutability": "view",
      "type": "function"
    },
    {
      "constant": true,
      "inputs": [
        {
          "internalType": "bytes32",
          "name": "",
          "type": "bytes32"
        }
      ],
      "name": "loanInterest",
      "outputs": [
        {
          "internalType": "uint256",
          "name": "owedPerDay",
          "type": "uint256"
        },
        {
          "internalType": "uint256",
          "name": "depositTotal",
          "type": "uint256"
        },
        {
          "internalType": "uint256",
          "name": "updatedTimestamp",
          "type": "uint256"
        }
      ],
      "payable": false,
      "stateMutability": "view",
      "type": "function"
    },
    {
      "constant": true,
      "inputs": [
        {
          "internalType": "bytes32",
          "name": "",
          "type": "bytes32"
        }
      ],
      "name": "loanParams",
      "outputs": [
        {
          "internalType": "bytes32",
          "name": "id",
          "type": "bytes32"
        },
        {
          "internalType": "bool",
          "name": "active",
          "type": "bool"
        },
        {
          "internalType": "address",
          "name": "owner",
          "type": "address"
        },
        {
          "internalType": "address",
          "name": "loanToken",
          "type": "address"
        },
        {
          "internalType": "address",
          "name": "collateralToken",
          "type": "address"
        },
        {
          "internalType": "uint256",
          "name": "minInitialMargin",
          "type": "uint256"
        },
        {
          "internalType": "uint256",
          "name": "maintenanceMargin",
          "type": "uint256"
        },
        {
          "internalType": "uint256",
          "name": "maxLoanTerm",
          "type": "uint256"
        }
      ],
      "payable": false,
      "stateMutability": "view",
      "type": "function"
    },
    {
      "constant": true,
      "inputs": [
        {
          "internalType": "address",
          "name": "",
          "type": "address"
        }
      ],
      "name": "loanPoolToUnderlying",
      "outputs": [
        {
          "internalType": "address",
          "name": "",
          "type": "address"
        }
      ],
      "payable": false,
      "stateMutability": "view",
      "type": "function"
    },
    {
      "constant": true,
      "inputs": [
        {
          "internalType": "bytes32",
          "name": "",
          "type": "bytes32"
        }
      ],
      "name": "loans",
      "outputs": [
        {
          "internalType": "bytes32",
          "name": "id",
          "type": "bytes32"
        },
        {
          "internalType": "bytes32",
          "name": "loanParamsId",
          "type": "bytes32"
        },
        {
          "internalType": "bytes32",
          "name": "pendingTradesId",
          "type": "bytes32"
        },
        {
          "internalType": "bool",
          "name": "active",
          "type": "bool"
        },
        {
          "internalType": "uint256",
          "name": "principal",
          "type": "uint256"
        },
        {
          "internalType": "uint256",
          "name": "collateral",
          "type": "uint256"
        },
        {
          "internalType": "uint256",
          "name": "startTimestamp",
          "type": "uint256"
        },
        {
          "internalType": "uint256",
          "name": "endTimestamp",
          "type": "uint256"
        },
        {
          "internalType": "uint256",
          "name": "startMargin",
          "type": "uint256"
        },
        {
          "internalType": "uint256",
          "name": "startRate",
          "type": "uint256"
        },
        {
          "internalType": "address",
          "name": "borrower",
          "type": "address"
        },
        {
          "internalType": "address",
          "name": "lender",
          "type": "address"
        }
      ],
      "payable": false,
      "stateMutability": "view",
      "type": "function"
    },
    {
      "constant": true,
      "inputs": [],
      "name": "lockedSOVAddress",
      "outputs": [
        {
          "internalType": "address",
          "name": "",
          "type": "address"
        }
      ],
      "payable": false,
      "stateMutability": "view",
      "type": "function"
    },
    {
      "constant": true,
      "inputs": [
        {
          "internalType": "bytes4",
          "name": "",
          "type": "bytes4"
        }
      ],
      "name": "logicTargets",
      "outputs": [
        {
          "internalType": "address",
          "name": "",
          "type": "address"
        }
      ],
      "payable": false,
      "stateMutability": "view",
      "type": "function"
    },
    {
      "constant": true,
      "inputs": [],
      "name": "maxDisagreement",
      "outputs": [
        {
          "internalType": "uint256",
          "name": "",
          "type": "uint256"
        }
      ],
      "payable": false,
      "stateMutability": "view",
      "type": "function"
    },
    {
      "constant": true,
      "inputs": [],
      "name": "maxSwapSize",
      "outputs": [
        {
          "internalType": "uint256",
          "name": "",
          "type": "uint256"
        }
      ],
      "payable": false,
      "stateMutability": "view",
      "type": "function"
    },
    {
      "constant": true,
      "inputs": [],
      "name": "minReferralsToPayout",
      "outputs": [
        {
          "internalType": "uint256",
          "name": "",
          "type": "uint256"
        }
      ],
      "payable": false,
      "stateMutability": "view",
      "type": "function"
    },
    {
      "constant": true,
      "inputs": [],
      "name": "owner",
      "outputs": [
        {
          "internalType": "address",
          "name": "",
          "type": "address"
        }
      ],
      "payable": false,
      "stateMutability": "view",
      "type": "function"
    },
    {
      "constant": true,
      "inputs": [],
      "name": "pause",
      "outputs": [
        {
          "internalType": "bool",
          "name": "",
          "type": "bool"
        }
      ],
      "payable": false,
      "stateMutability": "view",
      "type": "function"
    },
    {
      "constant": false,
      "inputs": [
        {
          "internalType": "address",
          "name": "referrer",
          "type": "address"
        },
        {
          "internalType": "address",
          "name": "trader",
          "type": "address"
        },
        {
          "internalType": "address",
          "name": "token",
          "type": "address"
        },
        {
          "internalType": "uint256",
          "name": "tradingFeeTokenBaseAmount",
          "type": "uint256"
        }
      ],
      "name": "payTradingFeeToAffiliatesReferrer",
      "outputs": [
        {
          "internalType": "uint256",
          "name": "referrerBonusSovAmount",
          "type": "uint256"
        },
        {
          "internalType": "uint256",
          "name": "referrerBonusTokenAmount",
          "type": "uint256"
        }
      ],
      "payable": false,
      "stateMutability": "nonpayable",
      "type": "function"
    },
    {
      "constant": true,
      "inputs": [],
      "name": "priceFeeds",
      "outputs": [
        {
          "internalType": "address",
          "name": "",
          "type": "address"
        }
      ],
      "payable": false,
      "stateMutability": "view",
      "type": "function"
    },
    {
      "constant": true,
      "inputs": [],
      "name": "protocolAddress",
      "outputs": [
        {
          "internalType": "address",
          "name": "",
          "type": "address"
        }
      ],
      "payable": false,
      "stateMutability": "view",
      "type": "function"
    },
    {
      "constant": true,
      "inputs": [],
      "name": "protocolTokenAddress",
      "outputs": [
        {
          "internalType": "address",
          "name": "",
          "type": "address"
        }
      ],
      "payable": false,
      "stateMutability": "view",
      "type": "function"
    },
    {
      "constant": true,
      "inputs": [],
      "name": "protocolTokenHeld",
      "outputs": [
        {
          "internalType": "uint256",
          "name": "",
          "type": "uint256"
        }
      ],
      "payable": false,
      "stateMutability": "view",
      "type": "function"
    },
    {
      "constant": true,
      "inputs": [],
      "name": "protocolTokenPaid",
      "outputs": [
        {
          "internalType": "uint256",
          "name": "",
          "type": "uint256"
        }
      ],
      "payable": false,
      "stateMutability": "view",
      "type": "function"
    },
    {
      "constant": true,
      "inputs": [],
      "name": "rolloverBaseReward",
      "outputs": [
        {
          "internalType": "uint256",
          "name": "",
          "type": "uint256"
        }
      ],
      "payable": false,
      "stateMutability": "view",
      "type": "function"
    },
    {
      "constant": true,
      "inputs": [],
      "name": "rolloverFlexFeePercent",
      "outputs": [
        {
          "internalType": "uint256",
          "name": "",
          "type": "uint256"
        }
      ],
      "payable": false,
      "stateMutability": "view",
      "type": "function"
    },
    {
      "constant": false,
      "inputs": [
        {
          "internalType": "address",
          "name": "user",
          "type": "address"
        },
        {
          "internalType": "address",
          "name": "referrer",
          "type": "address"
        }
      ],
      "name": "setAffiliatesReferrer",
      "outputs": [],
      "payable": false,
      "stateMutability": "nonpayable",
      "type": "function"
    },
    {
      "constant": false,
      "inputs": [
        {
          "internalType": "address",
          "name": "user",
          "type": "address"
        }
      ],
      "name": "setUserNotFirstTradeFlag",
      "outputs": [],
      "payable": false,
      "stateMutability": "nonpayable",
      "type": "function"
    },
    {
      "constant": true,
      "inputs": [],
      "name": "sourceBuffer",
      "outputs": [
        {
          "internalType": "uint256",
          "name": "",
          "type": "uint256"
        }
      ],
      "payable": false,
      "stateMutability": "view",
      "type": "function"
    },
    {
      "constant": true,
      "inputs": [],
      "name": "sovTokenAddress",
      "outputs": [
        {
          "internalType": "address",
          "name": "",
          "type": "address"
        }
      ],
      "payable": false,
      "stateMutability": "view",
      "type": "function"
    },
    {
      "constant": true,
      "inputs": [],
      "name": "sovrynSwapContractRegistryAddress",
      "outputs": [
        {
          "internalType": "address",
          "name": "",
          "type": "address"
        }
      ],
      "payable": false,
      "stateMutability": "view",
      "type": "function"
    },
    {
      "constant": true,
      "inputs": [
        {
          "internalType": "address",
          "name": "",
          "type": "address"
        },
        {
          "internalType": "address",
          "name": "",
          "type": "address"
        }
      ],
      "name": "specialRebates",
      "outputs": [
        {
          "internalType": "uint256",
          "name": "",
          "type": "uint256"
        }
      ],
      "payable": false,
      "stateMutability": "view",
      "type": "function"
    },
    {
      "constant": true,
      "inputs": [
        {
          "internalType": "address",
          "name": "",
          "type": "address"
        }
      ],
      "name": "supportedTokens",
      "outputs": [
        {
          "internalType": "bool",
          "name": "",
          "type": "bool"
        }
      ],
      "payable": false,
      "stateMutability": "view",
      "type": "function"
    },
    {
      "constant": true,
      "inputs": [],
      "name": "swapsImpl",
      "outputs": [
        {
          "internalType": "address",
          "name": "",
          "type": "address"
        }
      ],
      "payable": false,
      "stateMutability": "view",
      "type": "function"
    },
    {
      "constant": true,
      "inputs": [],
      "name": "tradingFeePercent",
      "outputs": [
        {
          "internalType": "uint256",
          "name": "",
          "type": "uint256"
        }
      ],
      "payable": false,
      "stateMutability": "view",
      "type": "function"
    },
    {
      "constant": true,
      "inputs": [
        {
          "internalType": "address",
          "name": "",
          "type": "address"
        }
      ],
      "name": "tradingFeeTokensHeld",
      "outputs": [
        {
          "internalType": "uint256",
          "name": "",
          "type": "uint256"
        }
      ],
      "payable": false,
      "stateMutability": "view",
      "type": "function"
    },
    {
      "constant": true,
      "inputs": [
        {
          "internalType": "address",
          "name": "",
          "type": "address"
        }
      ],
      "name": "tradingFeeTokensPaid",
      "outputs": [
        {
          "internalType": "uint256",
          "name": "",
          "type": "uint256"
        }
      ],
      "payable": false,
      "stateMutability": "view",
      "type": "function"
    },
    {
      "constant": false,
      "inputs": [
        {
          "internalType": "address",
          "name": "newOwner",
          "type": "address"
        }
      ],
      "name": "transferOwnership",
      "outputs": [],
      "payable": false,
      "stateMutability": "nonpayable",
      "type": "function"
    },
    {
      "constant": true,
      "inputs": [
        {
          "internalType": "address",
          "name": "",
          "type": "address"
        }
      ],
      "name": "underlyingToLoanPool",
      "outputs": [
        {
          "internalType": "address",
          "name": "",
          "type": "address"
        }
      ],
      "payable": false,
      "stateMutability": "view",
      "type": "function"
    },
    {
      "constant": true,
      "inputs": [
        {
          "internalType": "address",
          "name": "",
          "type": "address"
        }
      ],
      "name": "userNotFirstTradeFlag",
      "outputs": [
        {
          "internalType": "bool",
          "name": "",
          "type": "bool"
        }
      ],
      "payable": false,
      "stateMutability": "view",
      "type": "function"
    },
    {
      "constant": false,
      "inputs": [
        {
          "internalType": "address",
          "name": "token",
          "type": "address"
        },
        {
          "internalType": "address",
          "name": "receiver",
          "type": "address"
        },
        {
          "internalType": "uint256",
          "name": "amount",
          "type": "uint256"
        }
      ],
      "name": "withdrawAffiliatesReferrerTokenFees",
      "outputs": [],
      "payable": false,
      "stateMutability": "nonpayable",
      "type": "function"
    },
    {
      "constant": false,
      "inputs": [
        {
          "internalType": "address",
          "name": "receiver",
          "type": "address"
        }
      ],
      "name": "withdrawAllAffiliatesReferrerTokenFees",
      "outputs": [],
      "payable": false,
      "stateMutability": "nonpayable",
      "type": "function"
    },
    {
      "constant": true,
      "inputs": [],
      "name": "wrbtcToken",
      "outputs": [
        {
          "internalType": "contract IWrbtcERC20",
          "name": "",
          "type": "address"
        }
      ],
      "payable": false,
      "stateMutability": "view",
      "type": "function"
    }
  ],
  "bytecode": {
    "object": "0x60806040526001600055678ac7230489e80000601555670214e8348c4f000060185567013fbe85edc90000601b55674563918244f40000602055674563918244f40000602155674563918244f400006027556127106028556802b5e3af16b1880000602955650f478e084000602b5567016345785d8a0000602c556802b5e3af16b1880000602f5560036035556801158e460913d000006039553480156100a557600080fd5b5060006100b96001600160e01b0361010c16565b600180546001600160a01b0319166001600160a01b038316908117909155604051919250906000907f8be0079c531659141344cd1fd0a4f28419497f9722a3daafe3b4186f6b6457e0908290a350610110565b3390565b612e6c80620001206000396000f3fe608060405234801561001057600080fd5b50600436106103fc5760003560e01c806392d894f811610215578063c9ddf44811610125578063edab119f116100b8578063f2fde38b11610087578063f2fde38b14610872578063f589a3e714610885578063f6ddc8b31461088d578063f706b1f214610895578063f851a4401461089d576103fc565b8063edab119f1461082e578063f06a9c6b14610836578063f0e085f514610849578063f19ece6f14610851576103fc565b8063d473c2da116100f4578063d473c2da146107f8578063d485045e14610800578063d80100ea14610813578063e8f6276414610826576103fc565b8063c9ddf448146107a3578063cb6eacd1146107b6578063cd5d808d146107dd578063d288208c146107f0576103fc565b8063b05f6570116101a8578063b9cffa3e11610177578063b9cffa3e14610742578063ba4861e91461074a578063bdee453c14610752578063c4a9081514610765578063c4d66de814610790576103fc565b8063b05f657014610701578063b30643d914610714578063b41263b614610727578063b7e152411461072f576103fc565b8063acc04348116101e4578063acc04348146106c9578063adfcbc98146106d1578063ae0a8530146106e4578063afe84009146106ec576103fc565b806392d894f814610686578063959083d314610699578063a22473a2146106a1578063ac92fd8e146106b4576103fc565b80634699f84611610310578063742e6798116102a35780638417a2ae116102725780638417a2ae146106485780638456cb591461065b5780638da5cb5b146106635780638dc48ba51461066b5780638f32d59b1461067e576103fc565b8063742e67981461062857806378d849ed146106305780637a8faeb814610638578063824fcdc914610640576103fc565b806362fff3f6116102df57806362fff3f6146105d657806368c4ac26146105fa5780636e6637301461060d5780637420ca3e14610620576103fc565b80634699f8461461059c5780634f28cac2146105a4578063569fc1fb146105ac578063574442cc146105ce576103fc565b8063249556fb116103935780633432423c116103625780633432423c1461053d5780633452d2d4146105505780633fca506e146105635780634115a2b6146105765780634203e39514610589576103fc565b8063249556fb146104fa57806324cc57491461050d5780632a3240271461052d5780632f47076414610535576103fc565b806317548b79116103cf57806317548b79146104945780631b7bde74146104a75780631c9f66c2146104c7578063218b39c6146104e7576103fc565b8063065d810f1461041d5780630676c1b71461044b5780630d4d11fe14610460578063115cc0ce14610481575b60405162461bcd60e51b815260040161041490612c56565b60405180910390fd5b61043061042b366004612482565b6108a5565b60405161044296959493929190612d1b565b60405180910390f35b6104536108e5565b60405161044291906129c1565b61047361046e3660046123d4565b6108f4565b604051610442929190612ce4565b61045361048f36600461237c565b610ccf565b6104536104a236600461250d565b610ced565b6104ba6104b536600461239a565b610d08565b6040516104429190612cd6565b6104da6104d536600461237c565b610d25565b6040516104429190612a5e565b6104536104f536600461237c565b610d4f565b6104da61050836600461237c565b610d6a565b61052061051b36600461237c565b610d8e565b6040516104429190612a94565b6104ba610da3565b6104ba610da9565b61043061054b366004612482565b610daf565b6104ba61055e36600461237c565b610def565b6104ba61057136600461237c565b610e01565b6105206105843660046124ee565b610e13565b6104ba61059736600461237c565b610e33565b6104ba610e45565b6104ba610e4b565b6105bf6105ba3660046124d0565b610e51565b60405161044293929190612cf2565b6104ba610e72565b6105e96105e436600461239a565b610e78565b604051610442959493929190612d0d565b61052061060836600461237c565b610eb2565b61045361061b36600461237c565b610ec7565b610453610ee2565b6104ba610ef1565b610453610ef7565b6104ba610f06565b6104ba610f0c565b6104ba61065636600461237c565b610f12565b610520610f2d565b610453610f36565b61045361067936600461237c565b610f45565b610520610f60565b6104ba61069436600461237c565b610f86565b6104ba610f98565b6104ba6106af36600461239a565b610f9e565b6106c76106c2366004612435565b610fc9565b005b6104ba611178565b6106c76106df36600461237c565b61117e565b6104ba61126b565b6106f4611271565b6040516104429190612be7565b61052061070f36600461237c565b611280565b6104ba61072236600461237c565b61129e565b6104ba6112b0565b6104ba61073d36600461237c565b6112b6565b6104536112c8565b6104536112d7565b6104ba61076036600461237c565b6112e6565b6107786107733660046124d0565b6112f8565b6040516104429c9b9a99989796959493929190612b34565b6106c761079e36600461237c565b61136a565b6106c76107b136600461239a565b611516565b6107c96107c43660046124d0565b6116c0565b604051610442989796959493929190612abd565b6104ba6107eb36600461239a565b611712565b61045361172f565b6104ba61173e565b6104ba61080e36600461237c565b611744565b6104ba61082136600461237c565b611756565b6104536118da565b6104ba6118e9565b6106c761084436600461237c565b6118ef565b6104ba6119b4565b61086461085f36600461237c565b6119ba565b604051610442929190612a6f565b6106c761088036600461237c565b611a44565b6104ba611a71565b6104ba611a77565b610453611a7d565b610453611a8c565b6009602090815260009283526040808420909152908252902080546001820154600283015460038401546004850154600590950154939492939192909186565b6031546001600160a01b031681565b60315460009081906001600160a01b031633146109235760405162461bcd60e51b815260040161041490612c76565b603d5460ff16156109465760405162461bcd60e51b815260040161041490612c16565b60006109506112b0565b6001600160a01b038816600090815260346020526040902061097190611a9b565b1090506001600061098186611aa2565b6001600160a01b038a166000908152603a602052604090209094506109ac908863ffffffff611ad516565b6109da576001600160a01b0389166000908152603a602052604090206109d8908863ffffffff611af316565b505b6001600160a01b03808a166000908152603b60209081526040808320938b1683529290522054610a10908563ffffffff611b5316565b6001600160a01b03808b166000908152603b60209081526040808320938c1683529290522055610a408787611b7f565b6001600160a01b038a166000908152603660205260409020549095508315610a9057610a72818763ffffffff611b5316565b6001600160a01b038b16600090815260366020526040902055610c0d565b6001600160a01b038a1660009081526036602052604090205415610ac8576001600160a01b038a166000908152603660205260408120555b610ad8868263ffffffff611b5316565b60375460385460405163095ea7b360e01b81529294506001600160a01b039182169263095ea7b392610b1092169086906004016129f7565b602060405180830381600087803b158015610b2a57600080fd5b505af1158015610b3e573d6000803e3d6000fd5b505050506040513d601f19601f82011682018060405250610b6291908101906124b2565b506038546040516000916001600160a01b031690610b86908d9086906024016129f7565b60408051601f198184030181529181526020820180516001600160e01b031663f33bf9a160e01b17905251610bbb91906129b5565b6000604051808303816000865af19150503d8060008114610bf8576040519150601f19603f3d011682016040523d82523d6000602084013e610bfd565b606091505b5050905080610c0b57600093505b505b8215610c6e57831515886001600160a01b03168b6001600160a01b03167f956d8d442c76f1bedc4178cda59c4ad17c135bd6ec5a603a39fbfe5a320dbbc08c8b8a8c89604051610c61959493929190612a12565b60405180910390a4610cc2565b876001600160a01b03168a6001600160a01b03167f0909aef8097f3ad1e03459f173d44656bde668485239e8d83d9dcbc8af63d1408b8a898b88604051610cb9959493929190612a12565b60405180910390a35b5050505094509492505050565b6001600160a01b039081166000908152603360205260409020541690565b6005602052600090815260409020546001600160a01b031681565b603b60209081526000928352604080842090915290825290205481565b6001600160a01b0381166000908152603a60205260409020606090610d4990611c7f565b92915050565b6023602052600090815260409020546001600160a01b031681565b6001600160a01b0381166000908152603460205260409020606090610d4990611c7f565b60326020526000908152604090205460ff1681565b60185481565b601f5481565b6008602090815260009283526040808420909152908252902080546001820154600283015460038401546004850154600590950154939492939192909186565b601a6020526000908152604090205481565b602a6020526000908152604090205481565b600a60209081526000928352604080842090915290825290205460ff1681565b60166020526000908152604090205481565b60155481565b60295481565b600c6020526000908152604090208054600182015460029092015490919083565b602b5481565b600b602090815260009283526040808420909152908252902080546001820154600283015460038401546004909401549293919290919085565b60266020526000908152604090205460ff1681565b6033602052600090815260409020546001600160a01b031681565b6003546001600160a01b031681565b60355481565b6002546001600160a01b031681565b601e5481565b60395490565b6001600160a01b031660009081526036602052604090205490565b603d5460ff1681565b6001546001600160a01b031690565b6022602052600090815260409020546001600160a01b031681565b6001546000906001600160a01b0316610f77611d25565b6001600160a01b031614905090565b60176020526000908152604090205481565b602c5481565b6001600160a01b039182166000908152603b6020908152604080832093909416825291909152205490565b603d5460ff1615610fec5760405162461bcd60e51b815260040161041490612c16565b6001600160a01b0382166110125760405162461bcd60e51b815260040161041490612ca6565b336000818152603b602090815260408083206001600160a01b0388168452909152812054908382116110445781611046565b835b9050600081116110685760405162461bcd60e51b815260040161041490612c36565b6110706112b0565b6001600160a01b038416600090815260346020526040902061109190611a9b565b10156110af5760405162461bcd60e51b815260040161041490612c06565b60006110c1838363ffffffff611d2916565b9050806110d7576110d28488611d6b565b611100565b6001600160a01b038085166000908152603b60209081526040808320938b168352929052208190555b61111a6001600160a01b038816878463ffffffff611dae16565b866001600160a01b0316866001600160a01b0316856001600160a01b03167f7e121a301046a79dbdc6bb475ff36f651f88a7cb91fefd7cb8aa4b9f4a33b20b856040516111679190612cd6565b60405180910390a450505050505050565b602f5481565b603d5460ff16156111a15760405162461bcd60e51b815260040161041490612c16565b6001600160a01b0381166111c75760405162461bcd60e51b815260040161041490612ca6565b336111d06112b0565b6001600160a01b03821660009081526034602052604090206111f190611a9b565b101561120f5760405162461bcd60e51b815260040161041490612c06565b60608061121b836119ba565b9150915060005b82518110156112645761125c83828151811061123a57fe5b60200260200101518684848151811061124f57fe5b6020026020010151610fc9565b600101611222565b5050505050565b60205481565b602d546001600160a01b031681565b6001600160a01b031660009081526032602052604090205460ff1690565b601d6020526000908152604090205481565b60355490565b601c6020526000908152604090205481565b6037546001600160a01b031681565b6004546001600160a01b031681565b60366020526000908152604090205481565b600660208190526000918252604090912080546001820154600283015460038401546004850154600586015496860154600787015460088801546009890154600a8a0154600b909a0154989a9799969860ff909616979496949593949293919290916001600160a01b0391821691168c565b611372610f60565b61138e5760405162461bcd60e51b815260040161041490612c96565b63193bbe8960e31b600081905260056020527fa32428c5f7f1f49cbf6b6f0ae7823841efc255f4d2b6125ce4b307c53dc525c7546001600160a01b0316906113d69083611e07565b6113e7630b05f65760e41b83611e07565b6113f863249556fb60e01b83611e07565b61140963f06a9c6b60e01b83611e07565b61141a6306a688ff60e11b83611e07565b61142b63f19ece6f60e01b83611e07565b61143c63511239d160e11b83611e07565b61144d630e4fb36160e11b83611e07565b61145e6356497ec760e11b83611e07565b61146f6315bf979360e31b83611e07565b611480635a0931db60e11b83611e07565b6114916308ae606760e11b83611e07565b6114a263420bd15760e11b83611e07565b6114b363824fcdc960e01b83611e07565b6114c4636c00807560e11b83611e07565b69416666696c696174657360b01b826001600160a01b0316826001600160a01b03167f1420e3a2094d671bc2eb897941fa3d94ffa37f0cb6d530651946250a2151cb7f60405160405180910390a45050565b336000908152602260205260409020546001600160a01b031661154b5760405162461bcd60e51b815260040161041490612c76565b603d5460ff161561156e5760405162461bcd60e51b815260040161041490612c16565b611576612330565b61157f83611280565b151560408083019182526001600160a01b03858116600090815260336020908152929020541615159083015251806115b8575080602001515b806115d45750816001600160a01b0316836001600160a01b0316145b1580825215611665576001600160a01b03838116600090815260336020908152604080832080546001600160a01b0319169487169485179055928252603490522061161f9084611af3565b50816001600160a01b0316836001600160a01b03167f01085a2bdafb7e1bf8c2744a99befcb7d35fd44ce0fec8273e65687bf69b40d260405160405180910390a36116bb565b816001600160a01b0316836001600160a01b03167f5fcda235bf45571cdfcce3194fdec51249320ea208d33ddf19457f971fbce052836020015184604001516040516116b2929190612aa2565b60405180910390a35b505050565b6007602052600090815260409020805460018201546002830154600384015460048501546005860154600690960154949560ff8516956101009095046001600160a01b03908116959481169493169288565b603c60209081526000928352604080842090915290825290205481565b6038546001600160a01b031681565b60275481565b60196020526000908152604090205481565b6000606061176383610d25565b6002549091506001600160a01b031660005b82518110156118d25782516000906060906001600160a01b0385169063d138f9a160e01b908790869081106117a657fe5b6020026020010151602d60009054906101000a90046001600160a01b0316603b60008c6001600160a01b03166001600160a01b0316815260200190815260200160002060008a89815181106117f757fe5b60200260200101516001600160a01b03166001600160a01b0316815260200190815260200160002054604051602401611832939291906129cf565b60408051601f198184030181529181526020820180516001600160e01b03166001600160e01b031990941693909317909252905161187091906129b5565b600060405180830381855afa9150503d80600081146118ab576040519150601f19603f3d011682016040523d82523d6000602084013e6118b0565b606091505b509150915060018214156118c8576020810151860195505b5050600101611775565b505050919050565b6014546001600160a01b031681565b601b5481565b336000908152602260205260409020546001600160a01b03166119245760405162461bcd60e51b815260040161041490612c76565b603d5460ff16156119475760405162461bcd60e51b815260040161041490612c16565b6001600160a01b03811660009081526032602052604090205460ff166119b1576001600160a01b038116600081815260326020526040808220805460ff19166001179055517fa4c47359ccbdf26dba0d446255196fdc8d493dea957ded328aaa20f86afa694d9190a25b50565b60285481565b6060806119c683610d25565b915081516040519080825280602002602001820160405280156119f3578160200160208202803883390190505b50905060005b8251811015611a3e57611a1f84848381518110611a1257fe5b6020026020010151610f9e565b828281518110611a2b57fe5b60209081029190910101526001016119f9565b50915091565b611a4c610f60565b611a685760405162461bcd60e51b815260040161041490612c96565b6119b181611e81565b60395481565b60215481565b602e546001600160a01b031681565b6030546001600160a01b031681565b6001015490565b6000610d4968056bc75e2d63100000611ac9611abc610f0c565b859063ffffffff611f0316565b9063ffffffff611f3d16565b6001600160a01b031660009081526020919091526040902054151590565b6000611aff8383611ad5565b611b4b5750600182810180548083018083556000928352602080842090920180546001600160a01b0319166001600160a01b038716908117909155835290859052604090912055610d49565b506000610d49565b600082820183811015611b785760405162461bcd60e51b815260040161041490612c46565b9392505050565b60025460375460009182916001600160a01b03918216918391606091849163d138f9a160e01b918a9116611bce68056bc75e2d63100000611ac9611bc1611f7f565b8d9063ffffffff611f0316565b604051602401611be0939291906129cf565b60408051601f198184030181529181526020820180516001600160e01b03166001600160e01b0319909416939093179092529051611c1e91906129b5565b600060405180830381855afa9150503d8060008114611c59576040519150601f19603f3d011682016040523d82523d6000602084013e611c5e565b606091505b50915091506001821415611c7457602081015193505b509195945050505050565b6060808260010180549050604051908082528060200260200182016040528015611cb3578160200160208202803883390190505b50905060005b6001840154811015611d1e57836001018181548110611cd457fe5b9060005260206000200160009054906101000a90046001600160a01b0316828281518110611cfe57fe5b6001600160a01b0390921660209283029190910190910152600101611cb9565b5092915050565b3390565b6000611b7883836040518060400160405280601e81526020017f536166654d6174683a207375627472616374696f6e206f766572666c6f770000815250611f85565b6001600160a01b038083166000818152603b602090815260408083209486168352938152838220829055918152603a909152206116bb908263ffffffff611fb116565b6040516116bb90849063a9059cbb60e01b90611dd090869086906024016129f7565b60408051601f198184030181529190526020810180516001600160e01b03166001600160e01b0319909316929092179091526120bc565b6001600160e01b03198216600090815260056020526040902080546001600160a01b0319166001600160a01b03831690811790915515611e6257611e5c600d6001600160e01b0319841663ffffffff6121a716565b50611e7d565b6116bb600d6001600160e01b0319841663ffffffff6121e716565b5050565b6001600160a01b038116611ea75760405162461bcd60e51b815260040161041490612c26565b6001546040516001600160a01b038084169216907f8be0079c531659141344cd1fd0a4f28419497f9722a3daafe3b4186f6b6457e090600090a3600180546001600160a01b0319166001600160a01b0392909216919091179055565b600082611f1257506000610d49565b82820282848281611f1f57fe5b0414611b785760405162461bcd60e51b815260040161041490612c86565b6000611b7883836040518060400160405280601a81526020017f536166654d6174683a206469766973696f6e206279207a65726f0000000000008152506122a8565b60205490565b60008184841115611fa95760405162461bcd60e51b81526004016104149190612bf5565b505050900390565b6000611fbd8383611ad5565b15611b4b576001600160a01b0382166000908152602084905260409020546001840154600019918201910180821461206857600085600101828154811061200057fe5b6000918252602090912001546001870180546001600160a01b03909216925082918590811061202b57fe5b600091825260208083209190910180546001600160a01b0319166001600160a01b0394851617905592909116815290869052604090206001830190555b6001600160a01b0384166000908152602086905260408120556001850180548061208e57fe5b600082815260209020810160001990810180546001600160a01b03191690550190555060019150610d499050565b6120ce826001600160a01b03166122df565b6120ea5760405162461bcd60e51b815260040161041490612cc6565b60006060836001600160a01b03168360405161210691906129b5565b6000604051808303816000865af19150503d8060008114612143576040519150601f19603f3d011682016040523d82523d6000602084013e612148565b606091505b50915091508161216a5760405162461bcd60e51b815260040161041490612c66565b8051156121a1578080602001905161218591908101906124b2565b6121a15760405162461bcd60e51b815260040161041490612cb6565b50505050565b60006121b3838361231b565b611b4b5750600180830180548083018083556000928352602080842090920185905584835290859052604090912055610d49565b60006121f3838361231b565b15611b4b576000828152602084905260409020546001840154600019918201910180821461226b57600085600101828154811061222c57fe5b906000526020600020015490508086600101848154811061224957fe5b6000918252602080832090910192909255918252869052604090206001830190555b6000848152602086905260408120556001850180548061228757fe5b60019003818190600052602060002001600090559055600192505050610d49565b600081836122c95760405162461bcd60e51b81526004016104149190612bf5565b5060008385816122d557fe5b0495945050505050565b6000813f7fc5d2460186f7233c927e7db2dcc703c0e500b653ca82273b7bfad8045d85a47081811480159061231357508115155b949350505050565b60009081526020919091526040902054151590565b604080516060810182526000808252602082018190529181019190915290565b8035610d4981612dfa565b8051610d4981612e0e565b8035610d4981612e17565b8035610d4981612e20565b60006020828403121561238e57600080fd5b60006123138484612350565b600080604083850312156123ad57600080fd5b60006123b98585612350565b92505060206123ca85828601612350565b9150509250929050565b600080600080608085870312156123ea57600080fd5b60006123f68787612350565b945050602061240787828801612350565b935050604061241887828801612350565b925050606061242987828801612366565b91505092959194509250565b60008060006060848603121561244a57600080fd5b60006124568686612350565b935050602061246786828701612350565b925050604061247886828701612366565b9150509250925092565b6000806040838503121561249557600080fd5b60006124a18585612350565b92505060206123ca85828601612366565b6000602082840312156124c457600080fd5b6000612313848461235b565b6000602082840312156124e257600080fd5b60006123138484612366565b6000806040838503121561250157600080fd5b60006123b98585612366565b60006020828403121561251f57600080fd5b60006123138484612371565b6000612537838361254b565b505060200190565b6000612537838361260a565b61255481612d8d565b82525050565b600061256582612d7b565b61256f8185612d7f565b935061257a83612d75565b8060005b838110156125a8578151612592888261252b565b975061259d83612d75565b92505060010161257e565b509495945050505050565b60006125be82612d7b565b6125c88185612d7f565b93506125d383612d75565b8060005b838110156125a85781516125eb888261253f565b97506125f683612d75565b9250506001016125d7565b61255481612d98565b61255481612d9d565b600061261e82612d7b565b6126288185612d88565b9350612638818560208601612dc4565b9290920192915050565b61255481612db9565b600061265682612d7b565b6126608185612d7f565b9350612670818560208601612dc4565b61267981612df0565b9093019392505050565b6000612690603283612d7f565b7f596f757220726566657272616c7320686173206e6f74207265616368656420748152711a19481b5a5b9a5b5d5b481c995c5d595cdd60721b602082015260400192915050565b60006126e4600683612d7f565b6514185d5cd95960d21b815260200192915050565b6000612706602683612d7f565b7f4f776e61626c653a206e6577206f776e657220697320746865207a65726f206181526564647265737360d01b602082015260400192915050565b600061274e602783612d7f565b7f416666696c69617465733a2063616e6e6f74207769746864726177207a65726f81526608185b5bdd5b9d60ca1b602082015260400192915050565b6000612797601b83612d7f565b7f536166654d6174683a206164646974696f6e206f766572666c6f770000000000815260200192915050565b60006127d0602183612d7f565b7f416666696c6961746573202d2066616c6c6261636b206e6f7420616c6c6f77658152601960fa1b602082015260400192915050565b6000612813602083612d7f565b7f5361666545524332303a206c6f772d6c6576656c2063616c6c206661696c6564815260200192915050565b600061284c601a83612d7f565b7f416666696c69617465733a206e6f7420617574686f72697a6564000000000000815260200192915050565b6000612885602183612d7f565b7f536166654d6174683a206d756c7469706c69636174696f6e206f766572666c6f8152607760f81b602082015260400192915050565b60006128c8600c83612d7f565b6b1d5b985d5d1a1bdc9a5e995960a21b815260200192915050565b60006128f0602b83612d7f565b7f416666696c69617465733a2063616e6e6f7420776974686472617720746f207a81526a65726f206164647265737360a81b602082015260400192915050565b600061293d602a83612d7f565b7f5361666545524332303a204552433230206f7065726174696f6e20646964206e8152691bdd081cdd58d8d9595960b21b602082015260400192915050565b6000612989601f83612d7f565b7f5361666545524332303a2063616c6c20746f206e6f6e2d636f6e747261637400815260200192915050565b6000611b788284612613565b60208101610d49828461254b565b606081016129dd828661254b565b6129ea602083018561254b565b612313604083018461260a565b60408101612a05828561254b565b611b78602083018461260a565b60a08101612a20828861254b565b612a2d602083018761260a565b612a3a604083018661260a565b612a47606083018561260a565b612a54608083018461260a565b9695505050505050565b60208082528101611b78818461255a565b60408082528101612a80818561255a565b9050818103602083015261231381846125b3565b60208101610d498284612601565b60408101612ab08285612601565b611b786020830184612601565b6101008101612acc828b61260a565b612ad9602083018a612601565b612ae6604083018961254b565b612af3606083018861254b565b612b00608083018761254b565b612b0d60a083018661260a565b612b1a60c083018561260a565b612b2760e083018461260a565b9998505050505050505050565b6101808101612b43828f61260a565b612b50602083018e61260a565b612b5d604083018d61260a565b612b6a606083018c612601565b612b77608083018b61260a565b612b8460a083018a61260a565b612b9160c083018961260a565b612b9e60e083018861260a565b612bac61010083018761260a565b612bba61012083018661260a565b612bc861014083018561254b565b612bd661016083018461254b565b9d9c50505050505050505050505050565b60208101610d498284612642565b60208082528101611b78818461264b565b60208082528101610d4981612683565b60208082528101610d49816126d7565b60208082528101610d49816126f9565b60208082528101610d4981612741565b60208082528101610d498161278a565b60208082528101610d49816127c3565b60208082528101610d4981612806565b60208082528101610d498161283f565b60208082528101610d4981612878565b60208082528101610d49816128bb565b60208082528101610d49816128e3565b60208082528101610d4981612930565b60208082528101610d498161297c565b60208101610d49828461260a565b60408101612a05828561260a565b60608101612d00828661260a565b6129ea602083018561260a565b60a08101612a20828861260a565b60c08101612d29828961260a565b612d36602083018861260a565b612d43604083018761260a565b612d50606083018661260a565b612d5d608083018561260a565b612d6a60a083018461260a565b979650505050505050565b60200190565b5190565b90815260200190565b919050565b6000610d4982612dad565b151590565b90565b6001600160e01b03191690565b6001600160a01b031690565b6000610d4982612d8d565b60005b83811015612ddf578181015183820152602001612dc7565b838111156121a15750506000910152565b601f01601f191690565b612e0381612d8d565b81146119b157600080fd5b612e0381612d98565b612e0381612d9d565b612e0381612da056fea365627a7a723158200e7e5f415b95b0530a713178fb08d129a25f4b5a4ac848d302cc630ee9549eed6c6578706572696d656e74616cf564736f6c63430005110040",
    "linkReferences": {}
  },
  "methodIdentifiers": {
    "admin()": "f851a440",
    "affiliateFeePercent()": "ae0a8530",
    "affiliateRewardsHeld(address)": "bdee453c",
    "affiliateTradingTokenFeePercent()": "f589a3e7",
    "affiliatesReferrerBalances(address,address)": "1b7bde74",
    "affiliatesUserReferrer(address)": "6e663730",
    "borrowerNonce(address)": "3fca506e",
    "borrowerOrders(address,bytes32)": "065d810f",
    "borrowingFeePercent()": "edab119f",
    "borrowingFeeTokensHeld(address)": "b7e15241",
    "borrowingFeeTokensPaid(address)": "b30643d9",
    "delegatedManagers(bytes32,address)": "4115a2b6",
    "feeRebatePercent()": "acc04348",
    "feesController()": "e8f62764",
    "getAffiliateRewardsHeld(address)": "8417a2ae",
    "getAffiliateTradingTokenFeePercent()": "824fcdc9",
    "getAffiliatesReferrerBalances(address)": "f19ece6f",
    "getAffiliatesReferrerTokenBalance(address,address)": "a22473a2",
    "getAffiliatesReferrerTokensList(address)": "1c9f66c2",
    "getAffiliatesTokenRewardsValueInRbtc(address)": "d80100ea",
    "getAffiliatesUserReferrer(address)": "115cc0ce",
    "getMinReferralsToPayout()": "b41263b6",
    "getReferralsList(address)": "249556fb",
    "getUserNotFirstTradeFlag(address)": "b05f6570",
    "initialize(address)": "c4d66de8",
    "isOwner()": "8f32d59b",
    "lenderInterest(address,address)": "62fff3f6",
    "lenderOrders(address,bytes32)": "3432423c",
    "lendingFeePercent()": "4699f846",
    "lendingFeeTokensHeld(address)": "4203e395",
    "lendingFeeTokensPaid(address)": "92d894f8",
    "liquidationIncentivePercent()": "f6ddc8b3",
    "loanInterest(bytes32)": "569fc1fb",
    "loanParams(bytes32)": "cb6eacd1",
    "loanPoolToUnderlying(address)": "8dc48ba5",
    "loans(bytes32)": "c4a90815",
    "lockedSOVAddress()": "d288208c",
    "logicTargets(bytes4)": "17548b79",
    "maxDisagreement()": "d473c2da",
    "maxSwapSize()": "4f28cac2",
    "minReferralsToPayout()": "742e6798",
    "owner()": "8da5cb5b",
    "pause()": "8456cb59",
    "payTradingFeeToAffiliatesReferrer(address,address,address,uint256)": "0d4d11fe",
    "priceFeeds()": "78d849ed",
    "protocolAddress()": "0676c1b7",
    "protocolTokenAddress()": "f706b1f2",
    "protocolTokenHeld()": "7a8faeb8",
    "protocolTokenPaid()": "2f470764",
    "rolloverBaseReward()": "574442cc",
    "rolloverFlexFeePercent()": "959083d3",
    "setAffiliatesReferrer(address,address)": "c9ddf448",
    "setUserNotFirstTradeFlag(address)": "f06a9c6b",
    "sourceBuffer()": "f0e085f5",
    "sovTokenAddress()": "b9cffa3e",
    "sovrynSwapContractRegistryAddress()": "ba4861e9",
    "specialRebates(address,address)": "cd5d808d",
    "supportedTokens(address)": "68c4ac26",
    "swapsImpl()": "7420ca3e",
    "tradingFeePercent()": "2a324027",
    "tradingFeeTokensHeld(address)": "d485045e",
    "tradingFeeTokensPaid(address)": "3452d2d4",
    "transferOwnership(address)": "f2fde38b",
    "underlyingToLoanPool(address)": "218b39c6",
    "userNotFirstTradeFlag(address)": "24cc5749",
    "withdrawAffiliatesReferrerTokenFees(address,address,uint256)": "ac92fd8e",
    "withdrawAllAffiliatesReferrerTokenFees(address)": "adfcbc98",
    "wrbtcToken()": "afe84009"
  },
  "id": 164
}