{
  "abi": [
    {
      "anonymous": false,
      "inputs": [
        {
          "indexed": false,
          "internalType": "address",
          "name": "admin",
          "type": "address"
        }
      ],
      "name": "AdminAdded",
      "type": "event"
    },
    {
      "anonymous": false,
      "inputs": [
        {
          "indexed": false,
          "internalType": "address",
          "name": "admin",
          "type": "address"
        }
      ],
      "name": "AdminRemoved",
      "type": "event"
    },
    {
      "anonymous": false,
      "inputs": [
        {
          "indexed": false,
          "internalType": "bytes32",
          "name": "hash",
          "type": "bytes32"
        }
      ],
      "name": "ContractCodeHashAdded",
      "type": "event"
    },
    {
      "anonymous": false,
      "inputs": [
        {
          "indexed": false,
          "internalType": "bytes32",
          "name": "hash",
          "type": "bytes32"
        }
      ],
      "name": "ContractCodeHashRemoved",
      "type": "event"
    },
    {
      "anonymous": false,
      "inputs": [
        {
          "indexed": true,
          "internalType": "address",
          "name": "delegator",
          "type": "address"
        },
        {
          "indexed": false,
          "internalType": "uint256",
          "name": "lockedUntil",
          "type": "uint256"
        },
        {
          "indexed": true,
          "internalType": "address",
          "name": "fromDelegate",
          "type": "address"
        },
        {
          "indexed": true,
          "internalType": "address",
          "name": "toDelegate",
          "type": "address"
        }
      ],
      "name": "DelegateChanged",
      "type": "event"
    },
    {
      "anonymous": false,
      "inputs": [
        {
          "indexed": true,
          "internalType": "address",
          "name": "delegate",
          "type": "address"
        },
        {
          "indexed": false,
          "internalType": "uint256",
          "name": "lockedUntil",
          "type": "uint256"
        },
        {
          "indexed": false,
          "internalType": "uint256",
          "name": "previousBalance",
          "type": "uint256"
        },
        {
          "indexed": false,
          "internalType": "uint256",
          "name": "newBalance",
          "type": "uint256"
        }
      ],
      "name": "DelegateStakeChanged",
      "type": "event"
    },
    {
      "anonymous": false,
      "inputs": [
        {
          "indexed": true,
          "internalType": "address",
          "name": "staker",
          "type": "address"
        },
        {
          "indexed": false,
          "internalType": "uint256",
          "name": "previousDate",
          "type": "uint256"
        },
        {
          "indexed": false,
          "internalType": "uint256",
          "name": "newDate",
          "type": "uint256"
        },
        {
          "indexed": false,
          "internalType": "uint256",
          "name": "amountStaked",
          "type": "uint256"
        }
      ],
      "name": "ExtendedStakingDuration",
      "type": "event"
    },
    {
      "anonymous": false,
      "inputs": [
        {
          "indexed": true,
          "internalType": "address",
          "name": "previousOwner",
          "type": "address"
        },
        {
          "indexed": true,
          "internalType": "address",
          "name": "newOwner",
          "type": "address"
        }
      ],
      "name": "OwnershipTransferred",
      "type": "event"
    },
    {
      "anonymous": false,
      "inputs": [
        {
          "indexed": true,
          "internalType": "address",
          "name": "pauser",
          "type": "address"
        },
        {
          "indexed": true,
          "internalType": "bool",
          "name": "added",
          "type": "bool"
        }
      ],
      "name": "PauserAddedOrRemoved",
      "type": "event"
    },
    {
      "anonymous": false,
      "inputs": [
        {
          "indexed": true,
          "internalType": "bool",
          "name": "setFrozen",
          "type": "bool"
        }
      ],
      "name": "StakingFrozen",
      "type": "event"
    },
    {
      "anonymous": false,
      "inputs": [
        {
          "indexed": true,
          "internalType": "bool",
          "name": "setPaused",
          "type": "bool"
        }
      ],
      "name": "StakingPaused",
      "type": "event"
    },
    {
      "anonymous": false,
      "inputs": [
        {
          "indexed": true,
          "internalType": "address",
          "name": "staker",
          "type": "address"
        },
        {
          "indexed": false,
          "internalType": "uint256",
          "name": "amount",
          "type": "uint256"
        },
        {
          "indexed": false,
          "internalType": "uint256",
          "name": "until",
          "type": "uint256"
        },
        {
          "indexed": true,
          "internalType": "address",
          "name": "receiver",
          "type": "address"
        },
        {
          "indexed": false,
          "internalType": "bool",
          "name": "isGovernance",
          "type": "bool"
        }
      ],
      "name": "StakingWithdrawn",
      "type": "event"
    },
    {
      "anonymous": false,
      "inputs": [
        {
          "indexed": true,
          "internalType": "address",
          "name": "caller",
          "type": "address"
        },
        {
          "indexed": false,
          "internalType": "address",
          "name": "receiver",
          "type": "address"
        }
      ],
      "name": "TeamVestingCancelled",
      "type": "event"
    },
    {
      "anonymous": false,
      "inputs": [
        {
          "indexed": true,
          "internalType": "address",
          "name": "caller",
          "type": "address"
        },
        {
          "indexed": false,
          "internalType": "address",
          "name": "receiver",
          "type": "address"
        },
        {
          "indexed": false,
          "internalType": "uint256",
          "name": "lastProcessedDate",
          "type": "uint256"
        }
      ],
      "name": "TeamVestingPartiallyCancelled",
      "type": "event"
    },
    {
      "anonymous": false,
      "inputs": [
        {
          "indexed": true,
          "internalType": "address",
          "name": "staker",
          "type": "address"
        },
        {
          "indexed": false,
          "internalType": "uint256",
          "name": "amount",
          "type": "uint256"
        },
        {
          "indexed": false,
          "internalType": "uint256",
          "name": "lockedUntil",
          "type": "uint256"
        },
        {
          "indexed": false,
          "internalType": "uint256",
          "name": "totalStaked",
          "type": "uint256"
        }
      ],
      "name": "TokensStaked",
      "type": "event"
    },
    {
      "anonymous": false,
      "inputs": [
        {
          "indexed": false,
          "internalType": "uint256",
          "name": "amount",
          "type": "uint256"
        }
      ],
      "name": "TokensUnlocked",
      "type": "event"
    },
    {
      "anonymous": false,
      "inputs": [
        {
          "indexed": false,
          "internalType": "uint256",
          "name": "lockedTS",
          "type": "uint256"
        },
        {
          "indexed": false,
          "internalType": "uint96",
          "name": "value",
          "type": "uint96"
        }
      ],
      "name": "VestingStakeSet",
      "type": "event"
    },
    {
      "anonymous": false,
      "inputs": [
        {
          "indexed": false,
          "internalType": "address",
          "name": "vesting",
          "type": "address"
        },
        {
          "indexed": false,
          "internalType": "address",
          "name": "receiver",
          "type": "address"
        }
      ],
      "name": "VestingTokensWithdrawn",
      "type": "event"
    },
    {
      "constant": true,
      "inputs": [],
      "name": "DELEGATION_TYPEHASH",
      "outputs": [
        {
          "internalType": "bytes32",
          "name": "",
          "type": "bytes32"
        }
      ],
      "payable": false,
      "stateMutability": "view",
      "type": "function"
    },
    {
      "constant": true,
      "inputs": [],
      "name": "DOMAIN_TYPEHASH",
      "outputs": [
        {
          "internalType": "bytes32",
          "name": "",
          "type": "bytes32"
        }
      ],
      "payable": false,
      "stateMutability": "view",
      "type": "function"
    },
    {
      "constant": true,
      "inputs": [],
      "name": "MAX_DURATION",
      "outputs": [
        {
          "internalType": "uint256",
          "name": "",
          "type": "uint256"
        }
      ],
      "payable": false,
      "stateMutability": "view",
      "type": "function"
    },
    {
      "constant": true,
      "inputs": [],
      "name": "MAX_VOTING_WEIGHT",
      "outputs": [
        {
          "internalType": "uint96",
          "name": "",
          "type": "uint96"
        }
      ],
      "payable": false,
      "stateMutability": "view",
      "type": "function"
    },
    {
      "constant": false,
      "inputs": [
        {
          "internalType": "uint96",
          "name": "_priorWeightedStake",
          "type": "uint96"
        }
      ],
      "name": "MOCK_priorWeightedStake",
      "outputs": [],
      "payable": false,
      "stateMutability": "nonpayable",
      "type": "function"
    },
    {
      "constant": false,
      "inputs": [
        {
          "internalType": "uint96",
          "name": "_priorWeightedStake",
          "type": "uint96"
        },
        {
          "internalType": "uint256",
          "name": "_block",
          "type": "uint256"
        }
      ],
      "name": "MOCK_priorWeightedStakeAtBlock",
      "outputs": [],
      "payable": false,
      "stateMutability": "nonpayable",
      "type": "function"
    },
    {
      "constant": true,
      "inputs": [],
      "name": "SOVToken",
      "outputs": [
        {
          "internalType": "contract IERC20",
          "name": "",
          "type": "address"
        }
      ],
      "payable": false,
      "stateMutability": "view",
      "type": "function"
    },
    {
      "constant": true,
      "inputs": [],
      "name": "WEIGHT_FACTOR",
      "outputs": [
        {
          "internalType": "uint96",
          "name": "",
          "type": "uint96"
        }
      ],
      "payable": false,
      "stateMutability": "view",
      "type": "function"
    },
    {
      "constant": true,
      "inputs": [
        {
          "internalType": "address",
          "name": "",
          "type": "address"
        }
      ],
      "name": "admins",
      "outputs": [
        {
          "internalType": "bool",
          "name": "",
          "type": "bool"
        }
      ],
      "payable": false,
      "stateMutability": "view",
      "type": "function"
    },
    {
      "constant": true,
      "inputs": [],
      "name": "allUnlocked",
      "outputs": [
        {
          "internalType": "bool",
          "name": "",
          "type": "bool"
        }
      ],
      "payable": false,
      "stateMutability": "view",
      "type": "function"
    },
    {
      "constant": false,
      "inputs": [
        {
          "internalType": "address",
          "name": "account",
          "type": "address"
        },
        {
          "internalType": "uint256",
          "name": "blockNumber",
          "type": "uint256"
        },
        {
          "internalType": "uint256",
          "name": "date",
          "type": "uint256"
        }
      ],
      "name": "calculatePriorWeightedStake",
      "outputs": [],
      "payable": false,
      "stateMutability": "nonpayable",
      "type": "function"
    },
    {
      "constant": true,
      "inputs": [
        {
          "internalType": "uint256",
          "name": "date",
          "type": "uint256"
        },
        {
          "internalType": "uint256",
          "name": "startDate",
          "type": "uint256"
        }
      ],
      "name": "computeWeightByDate",
      "outputs": [
        {
          "internalType": "uint96",
          "name": "weight",
          "type": "uint96"
        }
      ],
      "payable": false,
      "stateMutability": "pure",
      "type": "function"
    },
    {
      "constant": true,
      "inputs": [
        {
          "internalType": "address",
          "name": "",
          "type": "address"
        },
        {
          "internalType": "uint256",
          "name": "",
          "type": "uint256"
        },
        {
          "internalType": "uint32",
          "name": "",
          "type": "uint32"
        }
      ],
      "name": "delegateStakingCheckpoints",
      "outputs": [
        {
          "internalType": "uint32",
          "name": "fromBlock",
          "type": "uint32"
        },
        {
          "internalType": "uint96",
          "name": "stake",
          "type": "uint96"
        }
      ],
      "payable": false,
      "stateMutability": "view",
      "type": "function"
    },
    {
      "constant": true,
      "inputs": [
        {
          "internalType": "address",
          "name": "",
          "type": "address"
        },
        {
          "internalType": "uint256",
          "name": "",
          "type": "uint256"
        }
      ],
      "name": "delegates",
      "outputs": [
        {
          "internalType": "address",
          "name": "",
          "type": "address"
        }
      ],
      "payable": false,
      "stateMutability": "view",
      "type": "function"
    },
    {
      "constant": true,
      "inputs": [],
      "name": "feeSharing",
      "outputs": [
        {
          "internalType": "contract IFeeSharingCollector",
          "name": "",
          "type": "address"
        }
      ],
      "payable": false,
      "stateMutability": "view",
      "type": "function"
    },
    {
      "constant": true,
      "inputs": [],
      "name": "frozen",
      "outputs": [
        {
          "internalType": "bool",
          "name": "",
          "type": "bool"
        }
      ],
      "payable": false,
      "stateMutability": "view",
      "type": "function"
    },
    {
      "constant": true,
      "inputs": [],
      "name": "getFunctionsList",
      "outputs": [
        {
          "internalType": "bytes4[]",
          "name": "",
          "type": "bytes4[]"
        }
      ],
      "payable": false,
      "stateMutability": "pure",
      "type": "function"
    },
    {
      "constant": true,
      "inputs": [
        {
          "internalType": "address",
          "name": "account",
          "type": "address"
        },
        {
          "internalType": "uint256",
          "name": "blockNumber",
          "type": "uint256"
        },
        {
          "internalType": "uint256",
          "name": "date",
          "type": "uint256"
        }
      ],
      "name": "getPriorWeightedStake",
      "outputs": [
        {
          "internalType": "uint96",
          "name": "",
          "type": "uint96"
        }
      ],
      "payable": false,
      "stateMutability": "view",
      "type": "function"
    },
    {
      "constant": true,
      "inputs": [],
      "name": "isOwner",
      "outputs": [
        {
          "internalType": "bool",
          "name": "",
          "type": "bool"
        }
      ],
      "payable": false,
      "stateMutability": "view",
      "type": "function"
    },
    {
      "constant": true,
      "inputs": [],
      "name": "kickoffTS",
      "outputs": [
        {
          "internalType": "uint256",
          "name": "",
          "type": "uint256"
        }
      ],
      "payable": false,
      "stateMutability": "view",
      "type": "function"
    },
    {
      "constant": true,
      "inputs": [],
      "name": "newStakingContract",
      "outputs": [
        {
          "internalType": "address",
          "name": "",
          "type": "address"
        }
      ],
      "payable": false,
      "stateMutability": "view",
      "type": "function"
    },
    {
      "constant": true,
      "inputs": [
        {
          "internalType": "address",
          "name": "",
          "type": "address"
        }
      ],
      "name": "nonces",
      "outputs": [
        {
          "internalType": "uint256",
          "name": "",
          "type": "uint256"
        }
      ],
      "payable": false,
      "stateMutability": "view",
      "type": "function"
    },
    {
      "constant": true,
      "inputs": [
        {
          "internalType": "address",
          "name": "",
          "type": "address"
        },
        {
          "internalType": "uint256",
          "name": "",
          "type": "uint256"
        }
      ],
      "name": "numDelegateStakingCheckpoints",
      "outputs": [
        {
          "internalType": "uint32",
          "name": "",
          "type": "uint32"
        }
      ],
      "payable": false,
      "stateMutability": "view",
      "type": "function"
    },
    {
      "constant": true,
      "inputs": [
        {
          "internalType": "uint256",
          "name": "",
          "type": "uint256"
        }
      ],
      "name": "numTotalStakingCheckpoints",
      "outputs": [
        {
          "internalType": "uint32",
          "name": "",
          "type": "uint32"
        }
      ],
      "payable": false,
      "stateMutability": "view",
      "type": "function"
    },
    {
      "constant": true,
      "inputs": [
        {
          "internalType": "address",
          "name": "",
          "type": "address"
        },
        {
          "internalType": "uint256",
          "name": "",
          "type": "uint256"
        }
      ],
      "name": "numUserStakingCheckpoints",
      "outputs": [
        {
          "internalType": "uint32",
          "name": "",
          "type": "uint32"
        }
      ],
      "payable": false,
      "stateMutability": "view",
      "type": "function"
    },
    {
      "constant": true,
      "inputs": [
        {
          "internalType": "uint256",
          "name": "",
          "type": "uint256"
        }
      ],
      "name": "numVestingCheckpoints",
      "outputs": [
        {
          "internalType": "uint32",
          "name": "",
          "type": "uint32"
        }
      ],
      "payable": false,
      "stateMutability": "view",
      "type": "function"
    },
    {
      "constant": true,
      "inputs": [],
      "name": "owner",
      "outputs": [
        {
          "internalType": "address",
          "name": "",
          "type": "address"
        }
      ],
      "payable": false,
      "stateMutability": "view",
      "type": "function"
    },
    {
      "constant": true,
      "inputs": [],
      "name": "paused",
      "outputs": [
        {
          "internalType": "bool",
          "name": "",
          "type": "bool"
        }
      ],
      "payable": false,
      "stateMutability": "view",
      "type": "function"
    },
    {
      "constant": true,
      "inputs": [
        {
          "internalType": "address",
          "name": "",
          "type": "address"
        }
      ],
      "name": "pausers",
      "outputs": [
        {
          "internalType": "bool",
          "name": "",
          "type": "bool"
        }
      ],
      "payable": false,
      "stateMutability": "view",
      "type": "function"
    },
    {
      "constant": false,
      "inputs": [
        {
          "internalType": "address",
          "name": "delegatee",
          "type": "address"
        },
        {
          "internalType": "uint256",
          "name": "lockedTS",
          "type": "uint256"
        },
        {
          "internalType": "uint96",
          "name": "value",
          "type": "uint96"
        }
      ],
      "name": "setDelegateStake",
      "outputs": [],
      "payable": false,
      "stateMutability": "nonpayable",
      "type": "function"
    },
    {
      "constant": true,
      "inputs": [
        {
          "internalType": "uint256",
          "name": "",
          "type": "uint256"
        },
        {
          "internalType": "uint32",
          "name": "",
          "type": "uint32"
        }
      ],
      "name": "totalStakingCheckpoints",
      "outputs": [
        {
          "internalType": "uint32",
          "name": "fromBlock",
          "type": "uint32"
        },
        {
          "internalType": "uint96",
          "name": "stake",
          "type": "uint96"
        }
      ],
      "payable": false,
      "stateMutability": "view",
      "type": "function"
    },
    {
      "constant": false,
      "inputs": [
        {
          "internalType": "address",
          "name": "newOwner",
          "type": "address"
        }
      ],
      "name": "transferOwnership",
      "outputs": [],
      "payable": false,
      "stateMutability": "nonpayable",
      "type": "function"
    },
    {
      "constant": true,
      "inputs": [
        {
          "internalType": "address",
          "name": "",
          "type": "address"
        },
        {
          "internalType": "uint256",
          "name": "",
          "type": "uint256"
        },
        {
          "internalType": "uint32",
          "name": "",
          "type": "uint32"
        }
      ],
      "name": "userStakingCheckpoints",
      "outputs": [
        {
          "internalType": "uint32",
          "name": "fromBlock",
          "type": "uint32"
        },
        {
          "internalType": "uint96",
          "name": "stake",
          "type": "uint96"
        }
      ],
      "payable": false,
      "stateMutability": "view",
      "type": "function"
    },
    {
      "constant": true,
      "inputs": [
        {
          "internalType": "uint256",
          "name": "",
          "type": "uint256"
        },
        {
          "internalType": "uint32",
          "name": "",
          "type": "uint32"
        }
      ],
      "name": "vestingCheckpoints",
      "outputs": [
        {
          "internalType": "uint32",
          "name": "fromBlock",
          "type": "uint32"
        },
        {
          "internalType": "uint96",
          "name": "stake",
          "type": "uint96"
        }
      ],
      "payable": false,
      "stateMutability": "view",
      "type": "function"
    },
    {
      "constant": true,
      "inputs": [
        {
          "internalType": "bytes32",
          "name": "",
          "type": "bytes32"
        }
      ],
      "name": "vestingCodeHashes",
      "outputs": [
        {
          "internalType": "bool",
          "name": "",
          "type": "bool"
        }
      ],
      "payable": false,
      "stateMutability": "view",
      "type": "function"
    },
    {
      "constant": true,
      "inputs": [],
      "name": "vestingRegistryLogic",
      "outputs": [
        {
          "internalType": "contract IVestingRegistry",
          "name": "",
          "type": "address"
        }
      ],
      "payable": false,
      "stateMutability": "view",
      "type": "function"
    },
    {
      "constant": true,
      "inputs": [
        {
          "internalType": "address",
          "name": "",
          "type": "address"
        }
      ],
      "name": "vestingWhitelist",
      "outputs": [
        {
          "internalType": "bool",
          "name": "",
          "type": "bool"
        }
      ],
      "payable": false,
      "stateMutability": "view",
      "type": "function"
    },
    {
      "constant": true,
      "inputs": [],
      "name": "weightScaling",
      "outputs": [
        {
          "internalType": "uint96",
          "name": "",
          "type": "uint96"
        }
      ],
      "payable": false,
      "stateMutability": "view",
      "type": "function"
    },
    {
      "constant": true,
      "inputs": [
        {
          "internalType": "address",
          "name": "account",
          "type": "address"
        },
        {
          "internalType": "uint256",
          "name": "date",
          "type": "uint256"
        },
        {
          "internalType": "uint256",
          "name": "startDate",
          "type": "uint256"
        },
        {
          "internalType": "uint256",
          "name": "blockNumber",
          "type": "uint256"
        }
      ],
      "name": "weightedStakeByDate",
      "outputs": [
        {
          "internalType": "uint96",
          "name": "power",
          "type": "uint96"
        }
      ],
      "payable": false,
      "stateMutability": "view",
      "type": "function"
    }
  ],
  "bytecode": {
    "object": "0x60c0604052600a608081905269534f565374616b696e6760b01b60a09081526200002d9160029190620000ae565b506005805460ff19169055600d80546001600160a01b0316600360a01b179055600062000059620000a9565b600080546001600160a01b0319166001600160a01b0383169081178255604051929350917f8be0079c531659141344cd1fd0a4f28419497f9722a3daafe3b4186f6b6457e0908290a35062000150565b335b90565b828054600181600116156101000203166002900490600052602060002090601f016020900481019282601f10620000f157805160ff191683800117855562000121565b8280016001018555821562000121579182015b828111156200012157825182559160200191906001019062000104565b506200012f92915062000133565b5090565b620000ab91905b808211156200012f57600081556001016200013a565b61192e80620001606000396000f3fe608060405234801561001057600080fd5b506004361061023c5760003560e01c80638da5cb5b1161013b578063bb533cf2116100b8578063dfb267c21161007c578063dfb267c2146106a6578063e7a324dc146106cf578063f2fde38b146106d7578063f3f19731146106fd578063fbbb8ec6146107265761023c565b8063bb533cf2146105f5578063bf626ec114610612578063d27569e71461061a578063d8ad326d14610622578063db27ec181461067a5761023c565b80639929e886116100ff5780639929e886146105af578063a58848c5146105b7578063adae9002146105bf578063ae81dfe4146105e5578063b1724b46146105ed5761023c565b80638da5cb5b146105055780638dae1b161461050d5780638f32d59b146105455780639436e7d41461054d57806394c2ce58146105835761023c565b806337e6b1c1116101c957806362cf8a081161018d57806362cf8a08146103fe57806368cefccc146104215780636b6fde0e146104815780637ecebe00146104b957806380f51c12146104df5761023c565b806337e6b1c114610340578063429b62e514610372578063472f88f7146103985780634a15290e146103ca5780635c975abb146103f65761023c565b806307392cc01161021057806307392cc0146102c3578063104932cf146102e057806317748adc146102e857806320606b701461030c57806327dd1b00146103145761023c565b8062073f99146102415780630130f0bf1461025b57806303a18fa314610283578063054f7d9c146102a7575b600080fd5b610249610761565b60408051918252519081900360200190f35b6102816004803603602081101561027157600080fd5b50356001600160601b0316610767565b005b61028b61078e565b604080516001600160a01b039092168252519081900360200190f35b6102af61079d565b604080519115158252519081900360200190f35b6102af600480360360208110156102d957600080fd5b50356107ab565b61028b6107c0565b6102f06107cf565b604080516001600160601b039092168252519081900360200190f35b6102496107d4565b61028b6004803603604081101561032a57600080fd5b506001600160a01b0381351690602001356107ef565b6102f06004803603606081101561035657600080fd5b506001600160a01b038135169060208101359060400135610815565b6102af6004803603602081101561038857600080fd5b50356001600160a01b031661088c565b610281600480360360608110156103ae57600080fd5b506001600160a01b0381351690602081013590604001356108a1565b610281600480360360408110156103e057600080fd5b506001600160601b0381351690602001356108b2565b6102af6108e5565b6102f06004803603604081101561041457600080fd5b50803590602001356108ee565b6104596004803603606081101561043757600080fd5b5080356001600160a01b0316906020810135906040013563ffffffff166108fa565b6040805163ffffffff90931683526001600160601b0390911660208301528051918290030190f35b6104596004803603606081101561049757600080fd5b5080356001600160a01b0316906020810135906040013563ffffffff16610935565b610249600480360360208110156104cf57600080fd5b50356001600160a01b0316610970565b6102af600480360360208110156104f557600080fd5b50356001600160a01b0316610982565b61028b610997565b6102f06004803603608081101561052357600080fd5b506001600160a01b0381351690602081013590604081013590606001356109a6565b6102af6109d3565b61056a6004803603602081101561056357600080fd5b50356109f7565b6040805163ffffffff9092168252519081900360200190f35b61056a6004803603604081101561059957600080fd5b506001600160a01b038135169060200135610a0f565b6102af610a32565b61028b610a3b565b6102af600480360360208110156105d557600080fd5b50356001600160a01b0316610a4a565b61028b610a5f565b610249610a73565b61056a6004803603602081101561060b57600080fd5b5035610a7b565b6102f0610a93565b6102f0610aa9565b61062a610aae565b60408051602080825283518183015283519192839290830191858101910280838360005b8381101561066657818101518382015260200161064e565b505050509050019250505060405180910390f35b61056a6004803603604081101561069057600080fd5b506001600160a01b038135169060200135610c2e565b610459600480360360408110156106bc57600080fd5b508035906020013563ffffffff16610c51565b610249610c86565b610281600480360360208110156106ed57600080fd5b50356001600160a01b0316610ca1565b6104596004803603604081101561071357600080fd5b508035906020013563ffffffff16610cf5565b6102816004803603606081101561073c57600080fd5b5080356001600160a01b031690602081013590604001356001600160601b0316610d2a565b60015481565b601780546bffffffffffffffffffffffff19166001600160601b0392909216919091179055565b600d546001600160a01b031681565b601554610100900460ff1681565b60106020526000908152604090205460ff1681565b6013546001600160a01b031681565b600981565b60405180604361186c82396043019050604051809103902081565b60046020908152600092835260408084209091529082529020546001600160a01b031681565b60008281526018602052604081205481906001600160601b03161561085257506000838152601860205260409020546001600160601b0316610882565b6017546001600160601b03166108725761086d858585610d9f565b61087f565b6017546001600160601b03165b90505b90505b9392505050565b600f6020526000908152604090205460ff1681565b6108ac838383610815565b50505050565b600090815260186020526040902080546bffffffffffffffffffffffff19166001600160601b0392909216919091179055565b60155460ff1681565b60006108858383610e34565b600a60209081526000938452604080852082529284528284209052825290205463ffffffff811690600160201b90046001600160601b031682565b600860209081526000938452604080852082529284528284209052825290205463ffffffff811690600160201b90046001600160601b031682565b600c6020526000908152604090205481565b60146020526000908152604090205460ff1681565b6000546001600160a01b031690565b60006109b184610fbe565b93506109bc83610fbe565b92506109ca85858585611033565b95945050505050565b600080546001600160a01b03166109e86110c1565b6001600160a01b031614905090565b60076020526000908152604090205463ffffffff1681565b600960209081526000928352604080842090915290825290205463ffffffff1681565b60055460ff1681565b6003546001600160a01b031681565b600e6020526000908152604090205460ff1681565b60055461010090046001600160a01b031681565b63059fa60081565b60126020526000908152604090205463ffffffff1681565b600d54600160a01b90046001600160601b031681565b600a81565b60408051600780825261010082019092526060918291906020820160e0803883390190505090506337e6b1c160e01b81600081518110610aea57fe5b6001600160e01b03199092166020928302919091019091015280516346d70d8b60e11b9082906001908110610b1b57fe5b6001600160e01b0319909216602092830291909101909101528051630c59f14160e31b9082906002908110610b4c57fe5b6001600160e01b0319909216602092830291909101909101528051630130f0bf60e01b9082906003908110610b7d57fe5b6001600160e01b031990921660209283029190910190910152805163250a948760e11b9082906004908110610bae57fe5b6001600160e01b031990921660209283029190910190910152805163472f88f760e01b9082906005908110610bdf57fe5b6001600160e01b0319909216602092830291909101909101528051637dddc76360e11b9082906006908110610c1057fe5b6001600160e01b031990921660209283029190910190910152905090565b600b60209081526000928352604080842090915290825290205463ffffffff1681565b600660209081526000928352604080842090915290825290205463ffffffff811690600160201b90046001600160601b031682565b60405180604b6118af8239604b019050604051809103902081565b610ca96109d3565b610ce9576040805162461bcd60e51b815260206004820152600c60248201526b1d5b985d5d1a1bdc9a5e995960a21b604482015290519081900360640190fd5b610cf2816110c5565b50565b601160209081526000928352604080842090915290825290205463ffffffff811690600160201b90046001600160601b031682565b6001600160a01b038316600081815260096020908152604080832086845282528083205493835260088252808320868452825280832063ffffffff94851660001981019095168452909152812054600160201b90046001600160601b031690610d9890869086908590611165565b5050505050565b600080610dab83610fbe565b905063059fa6008101815b818111610e2a576000610dcb8883868a611033565b90506001600160601b03811615610e1f57610e1c85826040518060400160405280601d81526020017f6f766572666c6f77206f6e20746f74616c207765696768742063616c63000000815250611396565b94505b506212750001610db6565b5050509392505050565b600081831015610e7e576040805162461bcd60e51b815260206004820152601060248201526f64617465203c2073746172744461746560801b604482015290519081900360640190fd5b81830363059fa600811115610eda576040805162461bcd60e51b815260206004820152601d60248201527f72656d61696e696e672074696d65203e206d6178206475726174696f6e000000604482015290519081900360640190fd5b6000620151808263059fa600036001600160601b031681610ef757fe5b0490506109ca600a621232106001600160601b0316610f7d600a600902610f4c621232108788026040518060400160405280601081526020016f77656967687420756e646572666c6f7760801b815250611434565b60405180604001604052806013815260200172776569676874206d756c206f766572666c6f7760681b8152506114a1565b6001600160601b031681610f8d57fe5b04604051806040016040528060128152602001711bdd995c999b1bddc81bdb881dd95a59da1d60721b815250611396565b60015460009080831015611019576040805162461bcd60e51b815260206004820152601d60248201527f74696d657374616d70203c20636f6e7472616374206372656174696f6e000000604482015290519081900360640190fd5b600062127500828503046212750002919091019392505050565b60008061104186868561152d565b90506001600160601b038116156110b357600061105e8686610e34565b9050600a6001600160601b031661109a83836040518060400160405280600c81526020016b6d756c206f766572666c6f7760a01b8152506114a1565b6001600160601b0316816110aa57fe5b049250506110b8565b600091505b50949350505050565b3390565b6001600160a01b03811661110a5760405162461bcd60e51b81526004018080602001828103825260268152602001806118466026913960400191505060405180910390fd5b600080546040516001600160a01b03808516939216917f8be0079c531659141344cd1fd0a4f28419497f9722a3daafe3b4186f6b6457e091a3600080546001600160a01b0319166001600160a01b0392909216919091179055565b600061118d43604051806040016040528060048152602001634350303960e01b8152506117a8565b6001600160a01b03861660009081526008602090815260408083208884528252808320600019880163ffffffff9081168552925290912054919250600160201b9091046001600160601b03169084161580159061122357506001600160a01b0386166000908152600860209081526040808320888452825280832063ffffffff6000198901811685529252909120548382169116145b1561128a576001600160a01b03861660009081526008602090815260408083208884528252808320600019880163ffffffff168452909152902080546fffffffffffffffffffffffff000000001916600160201b6001600160601b03861602179055611339565b60408051808201825263ffffffff80851682526001600160601b0380871660208085019182526001600160a01b038c166000818152600883528781208d825283528781208c871682528352878120965187549451909516600160201b026fffffffffffffffffffffffff000000001995871663ffffffff19958616179590951694909417909555938252600984528482208a835290935292909220805460018801909316929091169190911790555b604080518681526001600160601b03808416602083015285168183015290516001600160a01b038816917fc7b38fb25352e6f351f57e2c922f84db5c97e09a6246bbe1d2eedfcdb01c4c62919081900360600190a2505050505050565b6000838301826001600160601b0380871690831610156110b85760405162461bcd60e51b81526004018080602001828103825283818151815260200191508051906020019080838360005b838110156113f95781810151838201526020016113e1565b50505050905090810190601f1680156114265780820380516001836020036101000a031916815260200191505b509250505060405180910390fd5b6000836001600160601b0316836001600160601b0316111582906114995760405162461bcd60e51b81526020600482018181528351602484015283519092839260449091019190850190808383600083156113f95781810151838201526020016113e1565b505050900390565b60006001600160601b0384166114b957506000610885565b8383026001600160601b0380851690808716908316816114d557fe5b046001600160601b03161483906110b85760405162461bcd60e51b81526020600482018181528351602484015283519092839260449091019190850190808383600083156113f95781810151838201526020016113e1565b6000611537611805565b821061157b576040805162461bcd60e51b815260206004820152600e60248201526d1b9bdd0819195d195c9b5a5b995960921b604482015290519081900360640190fd5b61158483611809565b6001600160a01b0385166000908152600b6020908152604080832084845290915290205490935063ffffffff16806115c0576000915050610885565b6001600160a01b0385166000908152600a60209081526040808320878452825280832063ffffffff60001986018116855292529091205416831061164c576001600160a01b0385166000908152600a6020908152604080832087845282528083206000199490940163ffffffff1683529290522054600160201b90046001600160601b03169050610885565b6001600160a01b0385166000908152600a60209081526040808320878452825280832083805290915290205463ffffffff1683101561168f576000915050610885565b600060001982015b8163ffffffff168163ffffffff16111561175a57600282820363ffffffff160481036116c161182e565b506001600160a01b0388166000908152600a602090815260408083208a8452825280832063ffffffff858116855290835292819020815180830190925254928316808252600160201b9093046001600160601b03169181019190915290871415611735576020015194506108859350505050565b805163ffffffff1687111561174c57819350611753565b6001820392505b5050611697565b506001600160a01b0386166000908152600a60209081526040808320888452825280832063ffffffff909416835292905220546001600160601b03600160201b909104169150509392505050565b600081600160201b84106117fd5760405162461bcd60e51b81526020600482018181528351602484015283519092839260449091019190850190808383600083156113f95781810151838201526020016113e1565b509192915050565b4390565b60008061181583610fbe565b90508281146118275762127500810192505b5090919050565b60408051808201909152600080825260208201529056fe4f776e61626c653a206e6577206f776e657220697320746865207a65726f2061646472657373454950373132446f6d61696e28737472696e67206e616d652c75696e7432353620636861696e49642c6164647265737320766572696679696e67436f6e74726163742944656c65676174696f6e28616464726573732064656c6567617465652c75696e74323536206c6f636b446174652c75696e74323536206e6f6e63652c75696e743235362065787069727929a265627a7a723158208570ace696bdbc883692351000d730651b19b4438bb2da1b4e9ec421a7e5165d64736f6c63430005110032",
    "linkReferences": {}
  },
  "methodIdentifiers": {
    "DELEGATION_TYPEHASH()": "e7a324dc",
    "DOMAIN_TYPEHASH()": "20606b70",
    "MAX_DURATION()": "b1724b46",
    "MAX_VOTING_WEIGHT()": "17748adc",
    "MOCK_priorWeightedStake(uint96)": "0130f0bf",
    "MOCK_priorWeightedStakeAtBlock(uint96,uint256)": "4a15290e",
    "SOVToken()": "a58848c5",
    "WEIGHT_FACTOR()": "d27569e7",
    "admins(address)": "429b62e5",
    "allUnlocked()": "9929e886",
    "calculatePriorWeightedStake(address,uint256,uint256)": "472f88f7",
    "computeWeightByDate(uint256,uint256)": "62cf8a08",
    "delegateStakingCheckpoints(address,uint256,uint32)": "6b6fde0e",
    "delegates(address,uint256)": "27dd1b00",
    "feeSharing()": "03a18fa3",
    "frozen()": "054f7d9c",
    "getFunctionsList()": "d8ad326d",
    "getPriorWeightedStake(address,uint256,uint256)": "37e6b1c1",
    "isOwner()": "8f32d59b",
    "kickoffTS()": "00073f99",
    "newStakingContract()": "ae81dfe4",
    "nonces(address)": "7ecebe00",
    "numDelegateStakingCheckpoints(address,uint256)": "94c2ce58",
    "numTotalStakingCheckpoints(uint256)": "9436e7d4",
    "numUserStakingCheckpoints(address,uint256)": "db27ec18",
    "numVestingCheckpoints(uint256)": "bb533cf2",
    "owner()": "8da5cb5b",
    "paused()": "5c975abb",
    "pausers(address)": "80f51c12",
    "setDelegateStake(address,uint256,uint96)": "fbbb8ec6",
    "totalStakingCheckpoints(uint256,uint32)": "dfb267c2",
    "transferOwnership(address)": "f2fde38b",
    "userStakingCheckpoints(address,uint256,uint32)": "68cefccc",
    "vestingCheckpoints(uint256,uint32)": "f3f19731",
    "vestingCodeHashes(bytes32)": "07392cc0",
    "vestingRegistryLogic()": "104932cf",
    "vestingWhitelist(address)": "adae9002",
    "weightScaling()": "bf626ec1",
    "weightedStakeByDate(address,uint256,uint256,uint256)": "8dae1b16"
  },
  "id": 157
}