{
  "abi": [
    {
      "anonymous": false,
      "inputs": [
        {
          "indexed": false,
          "internalType": "address",
          "name": "admin",
          "type": "address"
        }
      ],
      "name": "AdminAdded",
      "type": "event"
    },
    {
      "anonymous": false,
      "inputs": [
        {
          "indexed": false,
          "internalType": "address",
          "name": "admin",
          "type": "address"
        }
      ],
      "name": "AdminRemoved",
      "type": "event"
    },
    {
      "anonymous": false,
      "inputs": [
        {
          "indexed": true,
          "internalType": "address",
          "name": "previousOwner",
          "type": "address"
        },
        {
          "indexed": true,
          "internalType": "address",
          "name": "newOwner",
          "type": "address"
        }
      ],
      "name": "OwnershipTransferred",
      "type": "event"
    },
    {
      "anonymous": false,
      "inputs": [
        {
          "indexed": true,
          "internalType": "address",
          "name": "receiver",
          "type": "address"
        },
        {
          "indexed": false,
          "internalType": "uint256",
          "name": "amount",
          "type": "uint256"
        }
      ],
      "name": "SOVTransferred",
      "type": "event"
    },
    {
      "anonymous": false,
      "inputs": [
        {
          "indexed": true,
          "internalType": "address",
          "name": "tokenOwner",
          "type": "address"
        },
        {
          "indexed": false,
          "internalType": "address",
          "name": "vesting",
          "type": "address"
        },
        {
          "indexed": false,
          "internalType": "uint256",
          "name": "cliff",
          "type": "uint256"
        },
        {
          "indexed": false,
          "internalType": "uint256",
          "name": "duration",
          "type": "uint256"
        },
        {
          "indexed": false,
          "internalType": "uint256",
          "name": "amount",
          "type": "uint256"
        },
        {
          "indexed": false,
          "internalType": "uint256",
          "name": "vestingCreationType",
          "type": "uint256"
        }
      ],
      "name": "TeamVestingCreated",
      "type": "event"
    },
    {
      "anonymous": false,
      "inputs": [
        {
          "indexed": true,
          "internalType": "address",
          "name": "vesting",
          "type": "address"
        },
        {
          "indexed": false,
          "internalType": "uint256",
          "name": "amount",
          "type": "uint256"
        }
      ],
      "name": "TokensStaked",
      "type": "event"
    },
    {
      "anonymous": false,
      "inputs": [
        {
          "indexed": true,
          "internalType": "address",
          "name": "tokenOwner",
          "type": "address"
        },
        {
          "indexed": false,
          "internalType": "address",
          "name": "vesting",
          "type": "address"
        },
        {
          "indexed": false,
          "internalType": "uint256",
          "name": "cliff",
          "type": "uint256"
        },
        {
          "indexed": false,
          "internalType": "uint256",
          "name": "duration",
          "type": "uint256"
        },
        {
          "indexed": false,
          "internalType": "uint256",
          "name": "amount",
          "type": "uint256"
        },
        {
          "indexed": false,
          "internalType": "uint256",
          "name": "vestingCreationType",
          "type": "uint256"
        }
      ],
      "name": "VestingCreated",
      "type": "event"
    },
    {
      "anonymous": false,
      "inputs": [
        {
          "indexed": true,
          "internalType": "address",
          "name": "vesting",
          "type": "address"
        },
        {
          "components": [
            {
              "internalType": "bool",
              "name": "isSet",
              "type": "bool"
            },
            {
              "internalType": "uint32",
              "name": "vestingType",
              "type": "uint32"
            },
            {
              "internalType": "uint128",
              "name": "vestingCreationType",
              "type": "uint128"
            }
          ],
          "indexed": false,
          "internalType": "struct VestingRegistryStorage.VestingCreationAndTypeDetails",
          "name": "vestingCreationAndType",
          "type": "tuple"
        }
      ],
      "name": "VestingCreationAndTypesSet",
      "type": "event"
    },
    {
      "constant": true,
      "inputs": [],
      "name": "SOV",
      "outputs": [
        {
          "internalType": "address",
          "name": "",
          "type": "address"
        }
      ],
      "payable": false,
      "stateMutability": "view",
      "type": "function"
    },
    {
      "constant": false,
      "inputs": [
        {
          "internalType": "address",
          "name": "_admin",
          "type": "address"
        }
      ],
      "name": "addAdmin",
      "outputs": [],
      "payable": false,
      "stateMutability": "nonpayable",
      "type": "function"
    },
    {
      "constant": false,
      "inputs": [
        {
          "internalType": "address[]",
          "name": "_tokenOwners",
          "type": "address[]"
        },
        {
          "internalType": "uint256[]",
          "name": "_vestingCreationTypes",
          "type": "uint256[]"
        }
      ],
      "name": "addDeployedVestings",
      "outputs": [],
      "payable": false,
      "stateMutability": "nonpayable",
      "type": "function"
    },
    {
      "constant": false,
      "inputs": [
        {
          "internalType": "address[]",
          "name": "_tokenOwners",
          "type": "address[]"
        },
        {
          "internalType": "address[]",
          "name": "_vestingAddresses",
          "type": "address[]"
        }
      ],
      "name": "addFourYearVestings",
      "outputs": [],
      "payable": false,
      "stateMutability": "nonpayable",
      "type": "function"
    },
    {
      "constant": true,
      "inputs": [
        {
          "internalType": "address",
          "name": "",
          "type": "address"
        }
      ],
      "name": "admins",
      "outputs": [
        {
          "internalType": "bool",
          "name": "",
          "type": "bool"
        }
      ],
      "payable": false,
      "stateMutability": "view",
      "type": "function"
    },
    {
      "constant": false,
      "inputs": [
        {
          "internalType": "address",
          "name": "_tokenOwner",
          "type": "address"
        },
        {
          "internalType": "uint256",
          "name": "_amount",
          "type": "uint256"
        },
        {
          "internalType": "uint256",
          "name": "_cliff",
          "type": "uint256"
        },
        {
          "internalType": "uint256",
          "name": "_duration",
          "type": "uint256"
        },
        {
          "internalType": "uint256",
          "name": "_vestingCreationType",
          "type": "uint256"
        }
      ],
      "name": "createTeamVesting",
      "outputs": [],
      "payable": false,
      "stateMutability": "nonpayable",
      "type": "function"
    },
    {
      "constant": false,
      "inputs": [
        {
          "internalType": "address",
          "name": "_tokenOwner",
          "type": "address"
        },
        {
          "internalType": "uint256",
          "name": "_amount",
          "type": "uint256"
        },
        {
          "internalType": "uint256",
          "name": "_cliff",
          "type": "uint256"
        },
        {
          "internalType": "uint256",
          "name": "_duration",
          "type": "uint256"
        }
      ],
      "name": "createVesting",
      "outputs": [],
      "payable": false,
      "stateMutability": "nonpayable",
      "type": "function"
    },
    {
      "constant": false,
      "inputs": [
        {
          "internalType": "address",
          "name": "_tokenOwner",
          "type": "address"
        },
        {
          "internalType": "uint256",
          "name": "_amount",
          "type": "uint256"
        },
        {
          "internalType": "uint256",
          "name": "_cliff",
          "type": "uint256"
        },
        {
          "internalType": "uint256",
          "name": "_duration",
          "type": "uint256"
        },
        {
          "internalType": "uint256",
          "name": "_vestingCreationType",
          "type": "uint256"
        }
      ],
      "name": "createVestingAddr",
      "outputs": [],
      "payable": false,
      "stateMutability": "nonpayable",
      "type": "function"
    },
    {
      "constant": true,
      "inputs": [],
      "name": "feeSharingCollector",
      "outputs": [
        {
          "internalType": "address",
          "name": "",
          "type": "address"
        }
      ],
      "payable": false,
      "stateMutability": "view",
      "type": "function"
    },
    {
      "constant": true,
      "inputs": [
        {
          "internalType": "address",
          "name": "_tokenOwner",
          "type": "address"
        },
        {
          "internalType": "uint256",
          "name": "_cliff",
          "type": "uint256"
        },
        {
          "internalType": "uint256",
          "name": "_duration",
          "type": "uint256"
        },
        {
          "internalType": "uint256",
          "name": "_vestingCreationType",
          "type": "uint256"
        }
      ],
      "name": "getTeamVesting",
      "outputs": [
        {
          "internalType": "address",
          "name": "",
          "type": "address"
        }
      ],
      "payable": false,
      "stateMutability": "view",
      "type": "function"
    },
    {
      "constant": true,
      "inputs": [
        {
          "internalType": "address",
          "name": "_tokenOwner",
          "type": "address"
        }
      ],
      "name": "getVesting",
      "outputs": [
        {
          "internalType": "address",
          "name": "",
          "type": "address"
        }
      ],
      "payable": false,
      "stateMutability": "view",
      "type": "function"
    },
    {
      "constant": true,
      "inputs": [
        {
          "internalType": "address",
          "name": "_tokenOwner",
          "type": "address"
        },
        {
          "internalType": "uint256",
          "name": "_cliff",
          "type": "uint256"
        },
        {
          "internalType": "uint256",
          "name": "_duration",
          "type": "uint256"
        },
        {
          "internalType": "uint256",
          "name": "_vestingCreationType",
          "type": "uint256"
        }
      ],
      "name": "getVestingAddr",
      "outputs": [
        {
          "internalType": "address",
          "name": "",
          "type": "address"
        }
      ],
      "payable": false,
      "stateMutability": "view",
      "type": "function"
    },
    {
      "constant": true,
      "inputs": [
        {
          "internalType": "address",
          "name": "_vestingAddress",
          "type": "address"
        }
      ],
      "name": "getVestingDetails",
      "outputs": [
        {
          "internalType": "uint256",
          "name": "cliff",
          "type": "uint256"
        },
        {
          "internalType": "uint256",
          "name": "duration",
          "type": "uint256"
        }
      ],
      "payable": false,
      "stateMutability": "view",
      "type": "function"
    },
    {
      "constant": true,
      "inputs": [
        {
          "internalType": "address",
          "name": "_tokenOwner",
          "type": "address"
        }
      ],
      "name": "getVestingsOf",
      "outputs": [
        {
          "components": [
            {
              "internalType": "uint256",
              "name": "vestingType",
              "type": "uint256"
            },
            {
              "internalType": "uint256",
              "name": "vestingCreationType",
              "type": "uint256"
            },
            {
              "internalType": "address",
              "name": "vestingAddress",
              "type": "address"
            }
          ],
          "internalType": "struct VestingRegistryStorage.Vesting[]",
          "name": "",
          "type": "tuple[]"
        }
      ],
      "payable": false,
      "stateMutability": "view",
      "type": "function"
    },
    {
      "constant": false,
      "inputs": [
        {
          "internalType": "address",
          "name": "_vestingFactory",
          "type": "address"
        },
        {
          "internalType": "address",
          "name": "_SOV",
          "type": "address"
        },
        {
          "internalType": "address",
          "name": "_staking",
          "type": "address"
        },
        {
          "internalType": "address",
          "name": "_feeSharingCollector",
          "type": "address"
        },
        {
          "internalType": "address",
          "name": "_vestingOwner",
          "type": "address"
        },
        {
          "internalType": "address",
          "name": "_lockedSOV",
          "type": "address"
        },
        {
          "internalType": "address[]",
          "name": "_vestingRegistries",
          "type": "address[]"
        }
      ],
      "name": "initialize",
      "outputs": [],
      "payable": false,
      "stateMutability": "nonpayable",
      "type": "function"
    },
    {
      "constant": true,
      "inputs": [],
      "name": "isOwner",
      "outputs": [
        {
          "internalType": "bool",
          "name": "",
          "type": "bool"
        }
      ],
      "payable": false,
      "stateMutability": "view",
      "type": "function"
    },
    {
      "constant": true,
      "inputs": [
        {
          "internalType": "address",
          "name": "_vestingAddress",
          "type": "address"
        }
      ],
      "name": "isTeamVesting",
      "outputs": [
        {
          "internalType": "bool",
          "name": "",
          "type": "bool"
        }
      ],
      "payable": false,
      "stateMutability": "view",
      "type": "function"
    },
    {
      "constant": true,
      "inputs": [
        {
          "internalType": "address",
          "name": "",
          "type": "address"
        }
      ],
      "name": "isVesting",
      "outputs": [
        {
          "internalType": "bool",
          "name": "",
          "type": "bool"
        }
      ],
      "payable": false,
      "stateMutability": "view",
      "type": "function"
    },
    {
      "constant": true,
      "inputs": [
        {
          "internalType": "address",
          "name": "_vestingAddress",
          "type": "address"
        }
      ],
      "name": "isVestingAddress",
      "outputs": [
        {
          "internalType": "bool",
          "name": "isVestingAddr",
          "type": "bool"
        }
      ],
      "payable": false,
      "stateMutability": "view",
      "type": "function"
    },
    {
      "constant": true,
      "inputs": [],
      "name": "lockedSOV",
      "outputs": [
        {
          "internalType": "contract ILockedSOV",
          "name": "",
          "type": "address"
        }
      ],
      "payable": false,
      "stateMutability": "view",
      "type": "function"
    },
    {
      "constant": true,
      "inputs": [],
      "name": "owner",
      "outputs": [
        {
          "internalType": "address",
          "name": "",
          "type": "address"
        }
      ],
      "payable": false,
      "stateMutability": "view",
      "type": "function"
    },
    {
      "constant": false,
      "inputs": [
        {
          "internalType": "address[]",
          "name": "_vestingAddresses",
          "type": "address[]"
        },
        {
          "components": [
            {
              "internalType": "bool",
              "name": "isSet",
              "type": "bool"
            },
            {
              "internalType": "uint32",
              "name": "vestingType",
              "type": "uint32"
            },
            {
              "internalType": "uint128",
              "name": "vestingCreationType",
              "type": "uint128"
            }
          ],
          "internalType": "struct VestingRegistryStorage.VestingCreationAndTypeDetails[]",
          "name": "_vestingCreationAndTypes",
          "type": "tuple[]"
        }
      ],
      "name": "registerVestingToVestingCreationAndTypes",
      "outputs": [],
      "payable": false,
      "stateMutability": "nonpayable",
      "type": "function"
    },
    {
      "constant": false,
      "inputs": [
        {
          "internalType": "address",
          "name": "_admin",
          "type": "address"
        }
      ],
      "name": "removeAdmin",
      "outputs": [],
      "payable": false,
      "stateMutability": "nonpayable",
      "type": "function"
    },
    {
      "constant": false,
      "inputs": [
        {
          "internalType": "address",
          "name": "_vesting",
          "type": "address"
        },
        {
          "internalType": "uint256",
          "name": "_vestingCreationType",
          "type": "uint256"
        }
      ],
      "name": "setTeamVesting",
      "outputs": [],
      "payable": false,
      "stateMutability": "nonpayable",
      "type": "function"
    },
    {
      "constant": false,
      "inputs": [
        {
          "internalType": "address",
          "name": "_vestingFactory",
          "type": "address"
        }
      ],
      "name": "setVestingFactory",
      "outputs": [],
      "payable": false,
      "stateMutability": "nonpayable",
      "type": "function"
    },
    {
      "constant": false,
      "inputs": [
        {
          "internalType": "address",
          "name": "_vesting",
          "type": "address"
        },
        {
          "internalType": "uint256",
          "name": "_amount",
          "type": "uint256"
        }
      ],
      "name": "stakeTokens",
      "outputs": [],
      "payable": false,
      "stateMutability": "nonpayable",
      "type": "function"
    },
    {
      "constant": true,
      "inputs": [],
      "name": "staking",
      "outputs": [
        {
          "internalType": "address",
          "name": "",
          "type": "address"
        }
      ],
      "payable": false,
      "stateMutability": "view",
      "type": "function"
    },
    {
      "constant": false,
      "inputs": [
        {
          "internalType": "address",
          "name": "newOwner",
          "type": "address"
        }
      ],
      "name": "transferOwnership",
      "outputs": [],
      "payable": false,
      "stateMutability": "nonpayable",
      "type": "function"
    },
    {
      "constant": false,
      "inputs": [
        {
          "internalType": "address",
          "name": "_receiver",
          "type": "address"
        },
        {
          "internalType": "uint256",
          "name": "_amount",
          "type": "uint256"
        }
      ],
      "name": "transferSOV",
      "outputs": [],
      "payable": false,
      "stateMutability": "nonpayable",
      "type": "function"
    },
    {
      "constant": true,
      "inputs": [
        {
          "internalType": "address",
          "name": "",
          "type": "address"
        }
      ],
      "name": "vestingCreationAndTypes",
      "outputs": [
        {
          "internalType": "bool",
          "name": "isSet",
          "type": "bool"
        },
        {
          "internalType": "uint32",
          "name": "vestingType",
          "type": "uint32"
        },
        {
          "internalType": "uint128",
          "name": "vestingCreationType",
          "type": "uint128"
        }
      ],
      "payable": false,
      "stateMutability": "view",
      "type": "function"
    },
    {
      "constant": true,
      "inputs": [],
      "name": "vestingFactory",
      "outputs": [
        {
          "internalType": "contract IVestingFactory",
          "name": "",
          "type": "address"
        }
      ],
      "payable": false,
      "stateMutability": "view",
      "type": "function"
    },
    {
      "constant": true,
      "inputs": [],
      "name": "vestingOwner",
      "outputs": [
        {
          "internalType": "address",
          "name": "",
          "type": "address"
        }
      ],
      "payable": false,
      "stateMutability": "view",
      "type": "function"
    },
    {
      "constant": true,
      "inputs": [
        {
          "internalType": "uint256",
          "name": "",
          "type": "uint256"
        }
      ],
      "name": "vestingRegistries",
      "outputs": [
        {
          "internalType": "contract IVestingRegistry",
          "name": "",
          "type": "address"
        }
      ],
      "payable": false,
      "stateMutability": "view",
      "type": "function"
    },
    {
      "constant": true,
      "inputs": [
        {
          "internalType": "uint256",
          "name": "",
          "type": "uint256"
        }
      ],
      "name": "vestings",
      "outputs": [
        {
          "internalType": "uint256",
          "name": "vestingType",
          "type": "uint256"
        },
        {
          "internalType": "uint256",
          "name": "vestingCreationType",
          "type": "uint256"
        },
        {
          "internalType": "address",
          "name": "vestingAddress",
          "type": "address"
        }
      ],
      "payable": false,
      "stateMutability": "view",
      "type": "function"
    },
    {
      "constant": true,
      "inputs": [
        {
          "internalType": "address",
          "name": "",
          "type": "address"
        },
        {
          "internalType": "uint256",
          "name": "",
          "type": "uint256"
        }
      ],
      "name": "vestingsOf",
      "outputs": [
        {
          "internalType": "uint256",
          "name": "",
          "type": "uint256"
        }
      ],
      "payable": false,
      "stateMutability": "view",
      "type": "function"
    }
  ],
  "bytecode": {
    "object": "0x608060405260006100176001600160e01b0361007016565b6000805462010000600160b01b031916620100006001600160a01b038416908102919091178255604051929350917f8be0079c531659141344cd1fd0a4f28419497f9722a3daafe3b4186f6b6457e0908290a350610074565b3390565b613102806100836000396000f3fe608060405234801561001057600080fd5b50600436106102115760003560e01c80638da5cb5b11610125578063ca210d8c116100ad578063efb957331161007c578063efb9573314610479578063f2f46b3b14610499578063f2fde38b146104a1578063f421ed7e146104b4578063f60826ee146104c757610211565b8063ca210d8c14610420578063ca272ab714610433578063cc49ede714610446578063dfb9366d1461045957610211565b8063bc84f9ca116100f4578063bc84f9ca146103cc578063bd7b5908146103df578063c0e09852146103e7578063c36519d1146103fa578063c680c0b71461040d57610211565b80638da5cb5b146103885780638dedf009146103905780638f32d59b146103b1578063b810c648146103b957610211565b80634cf088d9116101a857806379a83f5a1161017757806379a83f5a146102fe57806380fcb99214610311578063821bee7314610333578063842a49d514610355578063862e229d1461037557610211565b80634cf088d9146102c85780636b7dbb2d146102d057806370480275146102d8578063786931da146102eb57610211565b80631f509326116101e45780631f5093261461026f578063377220fd14610282578063429b62e51461029557806342a82b4f146102b557610211565b806302df0476146102165780630665a06f1461023f57806308dcb360146102545780631785f53c1461025c575b600080fd5b6102296102243660046124ca565b6104cf565b6040516102369190612cc5565b60405180910390f35b61025261024d3660046124ca565b610530565b005b61022961058b565b61025261026a36600461239c565b61059a565b61025261027d36600461252b565b610619565b61025261029036600461239c565b6106bb565b6102a86102a336600461239c565b6106eb565b6040516102369190612dba565b6102526102c33660046123d8565b610700565b61022961096f565b61022961097e565b6102526102e636600461239c565b61098d565b6102526102f93660046125a0565b610a06565b61025261030c366004612490565b610cf5565b61032461031f36600461239c565b610ea1565b60405161023693929190612dc8565b61034661034136600461268d565b610ed4565b60405161023693929190612f68565b61036861036336600461268d565b610efe565b6040516102369190612df0565b61025261038336600461252b565b610f25565b610229610fb4565b6103a361039e36600461239c565b610fc9565b604051610236929190612f5a565b6102a86110bd565b6102526103c73660046125a0565b6110e7565b6102526103da366004612610565b6111f7565b610229611355565b6102a86103f536600461239c565b611364565b6102296104083660046124ca565b611379565b61025261041b366004612490565b611382565b6102a861042e36600461239c565b6114c2565b610252610441366004612490565b6114c8565b61022961045436600461239c565b611553565b61046c610467366004612490565b611672565b6040516102369190612f4c565b61048c61048736600461239c565b6116a0565b6040516102369190612da9565b6103686117ea565b6102526104af36600461239c565b6117f9565b6102a86104c236600461239c565b611826565b610368611871565b60008060015b9050600086828787876040516020016104f2959493929190612c6c565b60408051601f198184030181529181528151602092830120600090815260099092529020600201546001600160a01b0316925050505b949350505050565b6105386110bd565b8061055257503360009081526001602052604090205460ff165b6105775760405162461bcd60e51b815260040161056e90612eae565b60405180910390fd5b610585848484846003610619565b50505050565b6005546001600160a01b031681565b6105a26110bd565b6105be5760405162461bcd60e51b815260040161056e90612eae565b6001600160a01b03811660009081526001602052604090819020805460ff19169055517fa3b62bc36326052d97ea62d63c3d60308ed4c3ea8ac079dd8499f1e9c4f80c0f9061060e908390612cc5565b60405180910390a150565b6106216110bd565b8061063b57503360009081526001602052604090205460ff165b6106575760405162461bcd60e51b815260040161056e90612eae565b600061066886858560015b86611880565b9050856001600160a01b03167fd6fcfd83804f6b6b63260c7b99eb10060bc1319dbc9177fb6defc7bd614017bf82868689876040516106ab959493929190612d5d565b60405180910390a2505050505050565b6106c36110bd565b6106df5760405162461bcd60e51b815260040161056e90612eae565b6106e881611be6565b50565b60016020526000908152604090205460ff1681565b6107086110bd565b6107245760405162461bcd60e51b815260040161056e90612eae565b600054610100900460ff168061073d575060005460ff16155b6107595760405162461bcd60e51b815260040161056e90612e9e565b600054610100900460ff16158015610784576000805460ff1961ff0019909116610100171660011790555b6001600160a01b0388166107aa5760405162461bcd60e51b815260040161056e90612f2e565b6001600160a01b0387166107d05760405162461bcd60e51b815260040161056e90612f0e565b6001600160a01b0386166107f65760405162461bcd60e51b815260040161056e90612ebe565b6001600160a01b03851661081c5760405162461bcd60e51b815260040161056e90612e8e565b6001600160a01b0384166108425760405162461bcd60e51b815260040161056e90612efe565b61084b89611be6565b600580546001600160a01b03199081166001600160a01b038b8116919091179092556006805482168a84161790556007805482168984161790556008805482168884161790556003805490911691861691909117905560005b828110156109515760008484838181106108ba57fe5b90506020020160206108cf919081019061239c565b6001600160a01b031614156108f65760405162461bcd60e51b815260040161056e90612dfe565b600484848381811061090457fe5b9050602002016020610919919081019061239c565b815460018082018455600093845260209093200180546001600160a01b0319166001600160a01b0392909216919091179055016108a4565b508015610964576000805461ff00191690555b505050505050505050565b6006546001600160a01b031681565b6007546001600160a01b031681565b6109956110bd565b6109b15760405162461bcd60e51b815260040161056e90612eae565b6001600160a01b038116600090815260016020819052604091829020805460ff19169091179055517f44d6d25963f097ad14f29f06854a01f575648a1ef82f30e562ccd3889717e3399061060e908390612cc5565b610a0e6110bd565b80610a2857503360009081526001602052604090205460ff165b610a445760405162461bcd60e51b815260040161056e90612eae565b828114610a635760405162461bcd60e51b815260040161056e90612e0e565b60046224ea0063059fa60060005b86811015610ceb57600b6000878784818110610a8957fe5b9050602002016020610a9e919081019061239c565b6001600160a01b0316815260208101919091526040016000205460ff1615610ad85760405162461bcd60e51b815260040161056e90612e7e565b6000888883818110610ae657fe5b9050602002016020610afb919081019061239c565b6001600160a01b03161415610b225760405162461bcd60e51b815260040161056e90612e1e565b6000868683818110610b3057fe5b9050602002016020610b45919081019061239c565b6001600160a01b03161415610b6c5760405162461bcd60e51b815260040161056e90612e2e565b6000888883818110610b7a57fe5b9050602002016020610b8f919081019061239c565b6001858588604051602001610ba8959493929190612c6c565b60408051808303601f1901815282825280516020918201206060840183526001845290830188905292508101888885818110610be057fe5b9050602002016020610bf5919081019061239c565b6001600160a01b039081169091526000838152600960209081526040808320855181559185015160018301559390930151600290930180546001600160a01b03191693909216929092179055600a908a8a85818110610c5057fe5b9050602002016020610c65919081019061239c565b6001600160a01b031681526020808201929092526040016000908120805460018181018355918352928220909201839055600b90898986818110610ca557fe5b9050602002016020610cba919081019061239c565b6001600160a01b031681526020810191909152604001600020805460ff191691151591909117905550600101610a71565b5050505050505050565b610cfd6110bd565b80610d1757503360009081526001602052604090205460ff165b610d335760405162461bcd60e51b815260040161056e90612eae565b6001600160a01b038216610d595760405162461bcd60e51b815260040161056e90612e6e565b60008111610d795760405162461bcd60e51b815260040161056e90612e5e565b60055460405163095ea7b360e01b81526001600160a01b039091169063095ea7b390610dab9085908590600401612d3b565b602060405180830381600087803b158015610dc557600080fd5b505af1158015610dd9573d6000803e3d6000fd5b505050506040513d601f19601f82011682018060405250610dfd919081019061266f565b50604051637547c7a360e01b81526001600160a01b03831690637547c7a390610e2a908490600401612f4c565b600060405180830381600087803b158015610e4457600080fd5b505af1158015610e58573d6000803e3d6000fd5b50505050816001600160a01b03167fb539ca1e5c8d398ddf1c41c30166f33404941683be4683319b57669a93dad4ef82604051610e959190612f4c565b60405180910390a25050565b600c6020526000908152604090205460ff811690610100810463ffffffff1690600160281b90046001600160801b031683565b6009602052600090815260409020805460018201546002909201549091906001600160a01b031683565b60048181548110610f0b57fe5b6000918252602090912001546001600160a01b0316905081565b610f2d6110bd565b80610f4757503360009081526001602052604090205460ff165b610f635760405162461bcd60e51b815260040161056e90612eae565b6000610f7186858584610662565b9050856001600160a01b03167f3791c6c90c276d011b4b885c0bfba0554342acf50a539baca1b06f070af25ff482868689876040516106ab959493929190612d5d565b6000546201000090046001600160a01b031690565b6000806000839050806001600160a01b03166313d033c06040518163ffffffff1660e01b815260040160206040518083038186803b15801561100a57600080fd5b505afa15801561101e573d6000803e3d6000fd5b505050506040513d601f19601f8201168201806040525061104291908101906126ab565b816001600160a01b0316630fb5a6b46040518163ffffffff1660e01b815260040160206040518083038186803b15801561107b57600080fd5b505afa15801561108f573d6000803e3d6000fd5b505050506040513d601f19601f820116820180604052506110b391908101906126ab565b9250925050915091565b600080546201000090046001600160a01b03166110d8611c2e565b6001600160a01b031614905090565b6110ef6110bd565b8061110957503360009081526001602052604090205460ff165b6111255760405162461bcd60e51b815260040161056e90612eae565b60005b838110156111f057600085858381811061113e57fe5b9050602002016020611153919081019061239c565b6001600160a01b0316141561117a5760405162461bcd60e51b815260040161056e90612e1e565b600083838381811061118857fe5b90506020020135116111ac5760405162461bcd60e51b815260040161056e90612ece565b6111e88585838181106111bb57fe5b90506020020160206111d0919081019061239c565b8484848181106111dc57fe5b90506020020135611c32565b600101611128565b5050505050565b6111ff6110bd565b8061121957503360009081526001602052604090205460ff165b6112355760405162461bcd60e51b815260040161056e90612eae565b80518251146112565760405162461bcd60e51b815260040161056e90612eee565b60005b81518110156113505761126a612165565b82828151811061127657fe5b60200260200101519050600084838151811061128e57fe5b6020908102919091018101516001600160a01b0381166000818152600c845260409081902086518154958801518884015160ff199097169115159190911764ffffffff00191661010063ffffffff909216919091021765010000000000600160a81b031916600160281b6001600160801b039096169590950294909417845551919350917f4deb6fa84b5232023ce753128000047116f9a6795b40a3b701edf5d8e265ca349161133e9190612f3e565b60405180910390a25050600101611259565b505050565b6008546001600160a01b031681565b600b6020526000908152604090205460ff1681565b600080806104d5565b61138a6110bd565b6113a65760405162461bcd60e51b815260040161056e90612eae565b6001600160a01b0382166113cc5760405162461bcd60e51b815260040161056e90612ede565b806113e95760405162461bcd60e51b815260040161056e90612e5e565b60055460405163a9059cbb60e01b81526001600160a01b039091169063a9059cbb9061141b9085908590600401612d3b565b602060405180830381600087803b15801561143557600080fd5b505af1158015611449573d6000803e3d6000fd5b505050506040513d601f19601f8201168201806040525061146d919081019061266f565b6114895760405162461bcd60e51b815260040161056e90612f1e565b816001600160a01b03167fe1b0ada289bf82fb641c8c1e1c78f820fae44e8f845760725cdeb09167a289ad82604051610e959190612f4c565b50600190565b6040805160608101825260018152600060208083018281526001600160801b039586168486019081526001600160a01b03979097168352600c909152929020905181549251945160ff199093169015151764ffffffff00191661010063ffffffff95909516949094029390931765010000000000600160a81b031916600160281b9190921602179055565b600061166c82600360009054906101000a90046001600160a01b03166001600160a01b03166313d033c06040518163ffffffff1660e01b815260040160206040518083038186803b1580156115a757600080fd5b505afa1580156115bb573d6000803e3d6000fd5b505050506040513d601f19601f820116820180604052506115df91908101906126ab565b600360009054906101000a90046001600160a01b03166001600160a01b0316630fb5a6b46040518163ffffffff1660e01b815260040160206040518083038186803b15801561162d57600080fd5b505afa158015611641573d6000803e3d6000fd5b505050506040513d601f19601f8201168201806040525061166591908101906126ab565b60036104cf565b92915050565b600a602052816000526040600020818154811061168b57fe5b90600052602060002001600091509150505481565b606080600a6000846001600160a01b03166001600160a01b0316815260200190815260200160002080548060200260200160405190810160405280929190818152602001828054801561171257602002820191906000526020600020905b8154815260200190600101908083116116fe575b505050505090506000815190506060825160405190808252806020026020018201604052801561175c57816020015b611749612185565b8152602001906001900390816117415790505b50905060005b828110156117e1576009600085838151811061177a57fe5b6020908102919091018101518252818101929092526040908101600020815160608101835281548152600182015493810193909352600201546001600160a01b03169082015282518390839081106117ce57fe5b6020908102919091010152600101611762565b50949350505050565b6003546001600160a01b031681565b6118016110bd565b61181d5760405162461bcd60e51b815260040161056e90612eae565b6106e8816120d6565b6001600160a01b0381166000908152600c602052604081205460ff16801561166c5750506001600160a01b03166000908152600c6020526040902054610100900463ffffffff161590565b6002546001600160a01b031681565b6000806000878588888760405160200161189e959493929190612c6c565b60408051601f198184030181529181528151602092830120600081815260099093529120600201549091506001600160a01b0316611bc057846001141561198257600254600554600654600754604051637d2fbb8f60e11b81526001600160a01b039485169463fa5f771e946119299490821693908216928f928f928f929116908490600401612cd3565b602060405180830381600087803b15801561194357600080fd5b505af1158015611957573d6000803e3d6000fd5b505050506040513d601f19601f8201168201806040525061197b91908101906123ba565b9150611a78565b600260009054906101000a90046001600160a01b03166001600160a01b031663546344f0600560009054906101000a90046001600160a01b0316600660009054906101000a90046001600160a01b03168b8b8b600760009054906101000a90046001600160a01b0316600860009054906101000a90046001600160a01b03166040518863ffffffff1660e01b8152600401611a239796959493929190612cd3565b602060405180830381600087803b158015611a3d57600080fd5b505af1158015611a51573d6000803e3d6000fd5b505050506040513d601f19601f82011682018060405250611a7591908101906123ba565b91505b604080516060808201835287825260208083018881526001600160a01b038088168587018181526000898152600986528881209751885593516001808901919091559051600290970180549784166001600160a01b031990981697909717909655908e168252600a83528582208054808701825590835283832001879055808252600b8352858220805460ff1990811687179091558651948501875294845263ffffffff808c168585019081526001600160801b03808d16878a01908152848652600c909652938890209551865491519551909416600160281b0265010000000000600160a81b0319959092166101000264ffffffff00199415159190971617929092169490941791909116178155915190917f4deb6fa84b5232023ce753128000047116f9a6795b40a3b701edf5d8e265ca3491611bb79190612f3e565b60405180910390a25b6000908152600960205260409020600201546001600160a01b0316979650505050505050565b6001600160a01b038116611c0c5760405162461bcd60e51b815260040161056e90612e4e565b600280546001600160a01b0319166001600160a01b0392909216919091179055565b3390565b600080600183039050600060048281548110611c4a57fe5b60009182526020909120015460405163cc49ede760e01b81526001600160a01b039091169063cc49ede790611c83908890600401612cc5565b60206040518083038186803b158015611c9b57600080fd5b505afa158015611caf573d6000803e3d6000fd5b505050506040513d601f19601f82011682018060405250611cd391908101906123ba565b90506001600160a01b03811615611e835780856001826001600160a01b03166313d033c06040518163ffffffff1660e01b815260040160206040518083038186803b158015611d2157600080fd5b505afa158015611d35573d6000803e3d6000fd5b505050506040513d601f19601f82011682018060405250611d5991908101906126ab565b836001600160a01b0316630fb5a6b46040518163ffffffff1660e01b815260040160206040518083038186803b158015611d9257600080fd5b505afa158015611da6573d6000803e3d6000fd5b505050506040513d601f19601f82011682018060405250611dca91908101906126ab565b88604051602001611ddf959493929190612c6c565b60408051601f19818403018152828252805160209182012060608401835260018085528285018a81526001600160a01b0388811687870181815260008681526009885288812099518a5593518986015551600290980180546001600160a01b031916988316989098179097558c168152600a84528481208054808401825590825284822001839055948552600b90925291909220805460ff19169092179091559350505b600060048381548110611e9257fe5b60009182526020909120015460405163c810a3e360e01b81526001600160a01b039091169063c810a3e390611ecb908990600401612cc5565b60206040518083038186803b158015611ee357600080fd5b505afa158015611ef7573d6000803e3d6000fd5b505050506040513d601f19601f82011682018060405250611f1b91908101906123ba565b90506001600160a01b038116156120ce5780866000826001600160a01b03166313d033c06040518163ffffffff1660e01b815260040160206040518083038186803b158015611f6957600080fd5b505afa158015611f7d573d6000803e3d6000fd5b505050506040513d601f19601f82011682018060405250611fa191908101906126ab565b836001600160a01b0316630fb5a6b46040518163ffffffff1660e01b815260040160206040518083038186803b158015611fda57600080fd5b505afa158015611fee573d6000803e3d6000fd5b505050506040513d601f19601f8201168201806040525061201291908101906126ab565b89604051602001612027959493929190612c6c565b60408051601f19818403018152828252805160209182012060608401835260008085528285018b81526001600160a01b03888116878701818152858552600987528785209851895592516001808a01919091559251600290980180546001600160a01b031916988316989098179097558d168252600a84528482208054808301825590835284832001839055948152600b909252919020805460ff19169092179091559450505b505050505050565b6001600160a01b0381166120fc5760405162461bcd60e51b815260040161056e90612e3e565b600080546040516001600160a01b03808516936201000090930416917f8be0079c531659141344cd1fd0a4f28419497f9722a3daafe3b4186f6b6457e091a3600080546001600160a01b03909216620100000262010000600160b01b0319909216919091179055565b604080516060810182526000808252602082018190529181019190915290565b6040518060600160405280600081526020016000815260200160006001600160a01b031681525090565b803561166c81613087565b805161166c81613087565b60008083601f8401126121d757600080fd5b50813567ffffffffffffffff8111156121ef57600080fd5b60208301915083602082028301111561220757600080fd5b9250929050565b600082601f83011261221f57600080fd5b813561223261222d82612fb7565b612f90565b9150818183526020840193506020810190508385602084028201111561225757600080fd5b60005b83811015612283578161226d88826121af565b845250602092830192919091019060010161225a565b5050505092915050565b600082601f83011261229e57600080fd5b81356122ac61222d82612fb7565b915081818352602084019350602081019050838560608402820111156122d157600080fd5b60005b8381101561228357816122e78882612315565b845250602090920191606091909101906001016122d4565b803561166c8161309b565b805161166c8161309b565b60006060828403121561232757600080fd5b6123316060612f90565b9050600061233f84846122ff565b825250602061235084848301612391565b602083015250604061236484828501612370565b60408301525092915050565b803561166c816130a4565b803561166c816130ad565b805161166c816130ad565b803561166c816130b6565b6000602082840312156123ae57600080fd5b600061052884846121af565b6000602082840312156123cc57600080fd5b600061052884846121ba565b60008060008060008060008060e0898b0312156123f457600080fd5b60006124008b8b6121af565b98505060206124118b828c016121af565b97505060406124228b828c016121af565b96505060606124338b828c016121af565b95505060806124448b828c016121af565b94505060a06124558b828c016121af565b93505060c089013567ffffffffffffffff81111561247257600080fd5b61247e8b828c016121c5565b92509250509295985092959890939650565b600080604083850312156124a357600080fd5b60006124af85856121af565b92505060206124c08582860161237b565b9150509250929050565b600080600080608085870312156124e057600080fd5b60006124ec87876121af565b94505060206124fd8782880161237b565b935050604061250e8782880161237b565b925050606061251f8782880161237b565b91505092959194509250565b600080600080600060a0868803121561254357600080fd5b600061254f88886121af565b95505060206125608882890161237b565b94505060406125718882890161237b565b93505060606125828882890161237b565b92505060806125938882890161237b565b9150509295509295909350565b600080600080604085870312156125b657600080fd5b843567ffffffffffffffff8111156125cd57600080fd5b6125d9878288016121c5565b9450945050602085013567ffffffffffffffff8111156125f857600080fd5b612604878288016121c5565b95989497509550505050565b6000806040838503121561262357600080fd5b823567ffffffffffffffff81111561263a57600080fd5b6126468582860161220e565b925050602083013567ffffffffffffffff81111561266357600080fd5b6124c08582860161228d565b60006020828403121561268157600080fd5b6000610528848461230a565b60006020828403121561269f57600080fd5b6000610528848461237b565b6000602082840312156126bd57600080fd5b60006105288484612386565b60006126d58383612c09565b505060600190565b6126e681613006565b82525050565b6126e66126f882613006565b613069565b600061270882612fde565b6127128185612fe2565b935061271d83612fd8565b8060005b8381101561274b57815161273588826126c9565b975061274083612fd8565b925050600101612721565b509495945050505050565b6126e681613011565b6126e681613025565b6000612775602083612fe2565b7f56657374696e67207265676973747279206164647265737320696e76616c6964815260200192915050565b60006127ae600f83612fe2565b6e0c2e4e4c2f2e640dad2e6dac2e8c6d608b1b815260200192915050565b60006127d9601f83612fe2565b7f746f6b656e206f776e65722063616e6e6f742062652030206164647265737300815260200192915050565b6000612812601b83612fe2565b7f76657374696e672063616e6e6f74206265203020616464726573730000000000815260200192915050565b600061284b602683612fe2565b7f4f776e61626c653a206e6577206f776e657220697320746865207a65726f206181526564647265737360d01b602082015260400192915050565b6000612893601e83612fe2565b7f76657374696e67466163746f7279206164647265737320696e76616c69640000815260200192915050565b60006128cc600e83612fe2565b6d185b5bdd5b9d081a5b9d985b1a5960921b815260200192915050565b60006128f6601783612fe2565b7f76657374696e67206164647265737320696e76616c6964000000000000000000815260200192915050565b600061292f600e83612fe2565b6d76657374696e672065786973747360901b815260200192915050565b6000612959601c83612fe2565b7f76657374696e674f776e6572206164647265737320696e76616c696400000000815260200192915050565b6000612992602e83612fe2565b7f496e697469616c697a61626c653a20636f6e747261637420697320616c72656181526d191e481a5b9a5d1a585b1a5e995960921b602082015260400192915050565b60006129e2600c83612fe2565b6b1d5b985d5d1a1bdc9a5e995960a21b815260200192915050565b6000612a0a602383612fe2565b7f66656553686172696e67436f6c6c6563746f72206164647265737320696e76618152621b1a5960ea1b602082015260400192915050565b6000612a4f602c83612fe2565b7f76657374696e67206372656174696f6e2074797065206d75737420626520677281526b06561746572207468616e20360a41b602082015260400192915050565b6000612a9d601883612fe2565b7f7265636569766572206164647265737320696e76616c69640000000000000000815260200192915050565b6000612ad6601083612fe2565b6f0aadcdac2e8c6d0cac840d8cadccee8d60831b815260200192915050565b6000612b02601983612fe2565b7f4c6f636b6564534f56206164647265737320696e76616c696400000000000000815260200192915050565b6000612b3b601783612fe2565b7f7374616b696e67206164647265737320696e76616c6964000000000000000000815260200192915050565b6000612b74600f83612fe2565b6e1d1c985b9cd9995c8819985a5b1959608a1b815260200192915050565b6000612b9f601383612fe2565b7214d3d5881859191c995cdcc81a5b9d985b1a59606a1b815260200192915050565b80546060830190612bd181613030565b612bdb8582612756565b50612be581613043565b612bf26020860182612c63565b50612bfc81613056565b6111f06040860182612c40565b80516060830190612c1a8482612c49565b506020820151612c2d6020850182612c49565b50604082015161058560408501826126dd565b6126e681612ff1565b6126e681613022565b6126e6612c5e82613022565b613022565b6126e681612ffd565b6000612c7882886126ec565b601482019150612c888287612c52565b602082019150612c988286612c52565b602082019150612ca88285612c52565b602082019150612cb88284612c52565b5060200195945050505050565b6020810161166c82846126dd565b60e08101612ce1828a6126dd565b612cee60208301896126dd565b612cfb60408301886126dd565b612d086060830187612c49565b612d156080830186612c49565b612d2260a08301856126dd565b612d2f60c08301846126dd565b98975050505050505050565b60408101612d4982856126dd565b612d566020830184612c49565b9392505050565b60a08101612d6b82886126dd565b612d786020830187612c49565b612d856040830186612c49565b612d926060830185612c49565b612d9f6080830184612c49565b9695505050505050565b60208082528101612d5681846126fd565b6020810161166c8284612756565b60608101612dd68286612756565b612de36020830185612c63565b6105286040830184612c40565b6020810161166c828461275f565b6020808252810161166c81612768565b6020808252810161166c816127a1565b6020808252810161166c816127cc565b6020808252810161166c81612805565b6020808252810161166c8161283e565b6020808252810161166c81612886565b6020808252810161166c816128bf565b6020808252810161166c816128e9565b6020808252810161166c81612922565b6020808252810161166c8161294c565b6020808252810161166c81612985565b6020808252810161166c816129d5565b6020808252810161166c816129fd565b6020808252810161166c81612a42565b6020808252810161166c81612a90565b6020808252810161166c81612ac9565b6020808252810161166c81612af5565b6020808252810161166c81612b2e565b6020808252810161166c81612b67565b6020808252810161166c81612b92565b6060810161166c8284612bc1565b6020810161166c8284612c49565b60408101612d498285612c49565b60608101612f768286612c49565b612f836020830185612c49565b61052860408301846126dd565b60405181810167ffffffffffffffff81118282101715612faf57600080fd5b604052919050565b600067ffffffffffffffff821115612fce57600080fd5b5060209081020190565b60200190565b5190565b90815260200190565b60ff1690565b6001600160801b031690565b63ffffffff1690565b600061166c82613016565b151590565b6001600160a01b031690565b90565b600061166c82613006565b600061166c61303e83613022565b612feb565b600061166c61305183613081565b612ffd565b600061166c6130648361307b565b612ff1565b600061166c82600061166c8260601b90565b60281c90565b60081c90565b61309081613006565b81146106e857600080fd5b61309081613011565b61309081612ff1565b61309081613022565b61309081612ffd56fea365627a7a7231582026b9a9160b723016b2d4399ac5ef096bd257c47ba16da7c1a4efc4ebe9eaa8a06c6578706572696d656e74616cf564736f6c63430005110040",
    "linkReferences": {}
  },
  "methodIdentifiers": {
    "SOV()": "08dcb360",
    "addAdmin(address)": "70480275",
    "addDeployedVestings(address[],uint256[])": "b810c648",
    "addFourYearVestings(address[],address[])": "786931da",
    "admins(address)": "429b62e5",
    "createTeamVesting(address,uint256,uint256,uint256,uint256)": "862e229d",
    "createVesting(address,uint256,uint256,uint256)": "0665a06f",
    "createVestingAddr(address,uint256,uint256,uint256,uint256)": "1f509326",
    "feeSharingCollector()": "6b7dbb2d",
    "getTeamVesting(address,uint256,uint256,uint256)": "c36519d1",
    "getVesting(address)": "cc49ede7",
    "getVestingAddr(address,uint256,uint256,uint256)": "02df0476",
    "getVestingDetails(address)": "8dedf009",
    "getVestingsOf(address)": "efb95733",
    "initialize(address,address,address,address,address,address,address[])": "42a82b4f",
    "isOwner()": "8f32d59b",
    "isTeamVesting(address)": "f421ed7e",
    "isVesting(address)": "c0e09852",
    "isVestingAddress(address)": "ca210d8c",
    "lockedSOV()": "f2f46b3b",
    "owner()": "8da5cb5b",
    "registerVestingToVestingCreationAndTypes(address[],(bool,uint32,uint128)[])": "bc84f9ca",
    "removeAdmin(address)": "1785f53c",
    "setTeamVesting(address,uint256)": "ca272ab7",
    "setVestingFactory(address)": "377220fd",
    "stakeTokens(address,uint256)": "79a83f5a",
    "staking()": "4cf088d9",
    "transferOwnership(address)": "f2fde38b",
    "transferSOV(address,uint256)": "c680c0b7",
    "vestingCreationAndTypes(address)": "80fcb992",
    "vestingFactory()": "f60826ee",
    "vestingOwner()": "bd7b5908",
    "vestingRegistries(uint256)": "842a49d5",
    "vestings(uint256)": "821bee73",
    "vestingsOf(address,uint256)": "dfb9366d"
  },
  "id": 150
}