{
  "abi": [
    {
      "inputs": [
        {
          "internalType": "contract IProtocol",
          "name": "_protocol",
          "type": "address"
        },
        {
          "internalType": "contract IStaking",
          "name": "_staking",
          "type": "address"
        }
      ],
      "payable": false,
      "stateMutability": "nonpayable",
      "type": "constructor"
    },
    {
      "anonymous": false,
      "inputs": [
        {
          "indexed": true,
          "internalType": "address",
          "name": "sender",
          "type": "address"
        },
        {
          "indexed": true,
          "internalType": "address",
          "name": "token",
          "type": "address"
        },
        {
          "indexed": false,
          "internalType": "uint256",
          "name": "amount",
          "type": "uint256"
        }
      ],
      "name": "CheckpointAdded",
      "type": "event"
    },
    {
      "anonymous": false,
      "inputs": [
        {
          "indexed": true,
          "internalType": "address",
          "name": "sender",
          "type": "address"
        },
        {
          "indexed": true,
          "internalType": "address",
          "name": "converter",
          "type": "address"
        },
        {
          "indexed": false,
          "internalType": "uint256",
          "name": "amount",
          "type": "uint256"
        }
      ],
      "name": "FeeAMMWithdrawn",
      "type": "event"
    },
    {
      "anonymous": false,
      "inputs": [
        {
          "indexed": true,
          "internalType": "address",
          "name": "sender",
          "type": "address"
        },
        {
          "indexed": false,
          "internalType": "uint256",
          "name": "amount",
          "type": "uint256"
        }
      ],
      "name": "FeeWithdrawnInRBTC",
      "type": "event"
    },
    {
      "anonymous": false,
      "inputs": [
        {
          "indexed": true,
          "internalType": "address",
          "name": "previousOwner",
          "type": "address"
        },
        {
          "indexed": true,
          "internalType": "address",
          "name": "newOwner",
          "type": "address"
        }
      ],
      "name": "OwnershipTransferred",
      "type": "event"
    },
    {
      "anonymous": false,
      "inputs": [
        {
          "indexed": true,
          "internalType": "address",
          "name": "sender",
          "type": "address"
        },
        {
          "indexed": true,
          "internalType": "address",
          "name": "receiver",
          "type": "address"
        },
        {
          "indexed": false,
          "internalType": "uint256",
          "name": "amount",
          "type": "uint256"
        }
      ],
      "name": "RBTCWithdrawn",
      "type": "event"
    },
    {
      "anonymous": false,
      "inputs": [
        {
          "indexed": true,
          "internalType": "address",
          "name": "sender",
          "type": "address"
        },
        {
          "indexed": true,
          "internalType": "address",
          "name": "token",
          "type": "address"
        },
        {
          "indexed": false,
          "internalType": "uint256",
          "name": "amount",
          "type": "uint256"
        }
      ],
      "name": "TokensTransferred",
      "type": "event"
    },
    {
      "anonymous": false,
      "inputs": [
        {
          "indexed": true,
          "internalType": "address",
          "name": "sender",
          "type": "address"
        },
        {
          "indexed": false,
          "internalType": "address",
          "name": "converter",
          "type": "address"
        }
      ],
      "name": "UnwhitelistedConverter",
      "type": "event"
    },
    {
      "anonymous": false,
      "inputs": [
        {
          "indexed": true,
          "internalType": "address",
          "name": "sender",
          "type": "address"
        },
        {
          "indexed": true,
          "internalType": "address",
          "name": "token",
          "type": "address"
        },
        {
          "indexed": false,
          "internalType": "uint256",
          "name": "prevProcessedCheckpoints",
          "type": "uint256"
        },
        {
          "indexed": false,
          "internalType": "uint256",
          "name": "newProcessedCheckpoints",
          "type": "uint256"
        }
      ],
      "name": "UserFeeProcessedNoWithdraw",
      "type": "event"
    },
    {
      "anonymous": false,
      "inputs": [
        {
          "indexed": true,
          "internalType": "address",
          "name": "sender",
          "type": "address"
        },
        {
          "indexed": true,
          "internalType": "address",
          "name": "receiver",
          "type": "address"
        },
        {
          "indexed": true,
          "internalType": "address",
          "name": "token",
          "type": "address"
        },
        {
          "indexed": false,
          "internalType": "uint256",
          "name": "amount",
          "type": "uint256"
        }
      ],
      "name": "UserFeeWithdrawn",
      "type": "event"
    },
    {
      "anonymous": false,
      "inputs": [
        {
          "indexed": true,
          "internalType": "address",
          "name": "sender",
          "type": "address"
        },
        {
          "indexed": false,
          "internalType": "address",
          "name": "converter",
          "type": "address"
        }
      ],
      "name": "WhitelistedConverter",
      "type": "event"
    },
    {
      "payable": true,
      "stateMutability": "payable",
      "type": "fallback"
    },
    {
      "constant": true,
      "inputs": [],
      "name": "RBTC_DUMMY_ADDRESS_FOR_CHECKPOINT",
      "outputs": [
        {
          "internalType": "address",
          "name": "",
          "type": "address"
        }
      ],
      "payable": false,
      "stateMutability": "view",
      "type": "function"
    },
    {
      "constant": false,
      "inputs": [
        {
          "internalType": "address",
          "name": "loanPoolToken",
          "type": "address"
        },
        {
          "internalType": "uint256",
          "name": "poolTokenAmount",
          "type": "uint256"
        }
      ],
      "name": "addCheckPoint",
      "outputs": [],
      "payable": false,
      "stateMutability": "nonpayable",
      "type": "function"
    },
    {
      "constant": false,
      "inputs": [
        {
          "internalType": "address",
          "name": "converterAddress",
          "type": "address"
        }
      ],
      "name": "addWhitelistedConverterAddress",
      "outputs": [],
      "payable": false,
      "stateMutability": "nonpayable",
      "type": "function"
    },
    {
      "constant": true,
      "inputs": [
        {
          "internalType": "address",
          "name": "_user",
          "type": "address"
        },
        {
          "internalType": "address",
          "name": "_token",
          "type": "address"
        }
      ],
      "name": "getAccumulatedFees",
      "outputs": [
        {
          "internalType": "uint256",
          "name": "",
          "type": "uint256"
        }
      ],
      "payable": false,
      "stateMutability": "view",
      "type": "function"
    },
    {
      "constant": true,
      "inputs": [
        {
          "internalType": "address",
          "name": "_user",
          "type": "address"
        },
        {
          "internalType": "address",
          "name": "_token",
          "type": "address"
        },
        {
          "internalType": "uint256",
          "name": "_startFrom",
          "type": "uint256"
        },
        {
          "internalType": "uint32",
          "name": "_maxCheckpoints",
          "type": "uint32"
        }
      ],
      "name": "getAccumulatedFeesForCheckpointsRange",
      "outputs": [
        {
          "internalType": "uint256",
          "name": "",
          "type": "uint256"
        }
      ],
      "payable": false,
      "stateMutability": "view",
      "type": "function"
    },
    {
      "constant": true,
      "inputs": [
        {
          "internalType": "address",
          "name": "_user",
          "type": "address"
        }
      ],
      "name": "getAccumulatedRBTCFeeBalances",
      "outputs": [
        {
          "internalType": "uint256",
          "name": "",
          "type": "uint256"
        }
      ],
      "payable": false,
      "stateMutability": "view",
      "type": "function"
    },
    {
      "constant": true,
      "inputs": [
        {
          "internalType": "address",
          "name": "_user",
          "type": "address"
        },
        {
          "internalType": "address",
          "name": "_token",
          "type": "address"
        },
        {
          "internalType": "uint32",
          "name": "_maxCheckpoints",
          "type": "uint32"
        }
      ],
      "name": "getFullAccumulatedFees",
      "outputs": [
        {
          "internalType": "uint256",
          "name": "amount",
          "type": "uint256"
        },
        {
          "internalType": "uint256",
          "name": "end",
          "type": "uint256"
        }
      ],
      "payable": false,
      "stateMutability": "view",
      "type": "function"
    },
    {
      "constant": true,
      "inputs": [
        {
          "internalType": "address",
          "name": "_user",
          "type": "address"
        },
        {
          "internalType": "address",
          "name": "_token",
          "type": "address"
        },
        {
          "internalType": "uint256",
          "name": "_startFrom",
          "type": "uint256"
        },
        {
          "internalType": "uint256",
          "name": "_maxCheckpoints",
          "type": "uint256"
        }
      ],
      "name": "getNextPositiveUserCheckpoint",
      "outputs": [
        {
          "internalType": "uint256",
          "name": "checkpointNum",
          "type": "uint256"
        },
        {
          "internalType": "bool",
          "name": "hasSkippedCheckpoints",
          "type": "bool"
        },
        {
          "internalType": "bool",
          "name": "hasFees",
          "type": "bool"
        }
      ],
      "payable": false,
      "stateMutability": "view",
      "type": "function"
    },
    {
      "constant": true,
      "inputs": [],
      "name": "getWhitelistedConverterList",
      "outputs": [
        {
          "internalType": "address[]",
          "name": "converterList",
          "type": "address[]"
        }
      ],
      "payable": false,
      "stateMutability": "view",
      "type": "function"
    },
    {
      "constant": true,
      "inputs": [],
      "name": "isOwner",
      "outputs": [
        {
          "internalType": "bool",
          "name": "",
          "type": "bool"
        }
      ],
      "payable": false,
      "stateMutability": "view",
      "type": "function"
    },
    {
      "constant": true,
      "inputs": [
        {
          "internalType": "address",
          "name": "",
          "type": "address"
        }
      ],
      "name": "lastFeeWithdrawalTime",
      "outputs": [
        {
          "internalType": "uint256",
          "name": "",
          "type": "uint256"
        }
      ],
      "payable": false,
      "stateMutability": "view",
      "type": "function"
    },
    {
      "constant": true,
      "inputs": [
        {
          "internalType": "address",
          "name": "_token",
          "type": "address"
        }
      ],
      "name": "numTokenCheckpoints",
      "outputs": [
        {
          "internalType": "uint256",
          "name": "",
          "type": "uint256"
        }
      ],
      "payable": false,
      "stateMutability": "view",
      "type": "function"
    },
    {
      "constant": true,
      "inputs": [],
      "name": "owner",
      "outputs": [
        {
          "internalType": "address",
          "name": "",
          "type": "address"
        }
      ],
      "payable": false,
      "stateMutability": "view",
      "type": "function"
    },
    {
      "constant": true,
      "inputs": [
        {
          "internalType": "address",
          "name": "",
          "type": "address"
        },
        {
          "internalType": "address",
          "name": "",
          "type": "address"
        }
      ],
      "name": "processedCheckpoints",
      "outputs": [
        {
          "internalType": "uint256",
          "name": "",
          "type": "uint256"
        }
      ],
      "payable": false,
      "stateMutability": "view",
      "type": "function"
    },
    {
      "constant": true,
      "inputs": [],
      "name": "protocol",
      "outputs": [
        {
          "internalType": "contract IProtocol",
          "name": "",
          "type": "address"
        }
      ],
      "payable": false,
      "stateMutability": "view",
      "type": "function"
    },
    {
      "constant": false,
      "inputs": [
        {
          "internalType": "address",
          "name": "converterAddress",
          "type": "address"
        }
      ],
      "name": "removeWhitelistedConverterAddress",
      "outputs": [],
      "payable": false,
      "stateMutability": "nonpayable",
      "type": "function"
    },
    {
      "constant": false,
      "inputs": [
        {
          "internalType": "address",
          "name": "_token",
          "type": "address"
        },
        {
          "internalType": "uint256",
          "name": "qty",
          "type": "uint256"
        }
      ],
      "name": "setTotalTokenCheckpoints",
      "outputs": [],
      "payable": false,
      "stateMutability": "nonpayable",
      "type": "function"
    },
    {
      "constant": false,
      "inputs": [
        {
          "internalType": "address",
          "name": "_user",
          "type": "address"
        },
        {
          "internalType": "address",
          "name": "_token",
          "type": "address"
        },
        {
          "internalType": "uint256",
          "name": "num",
          "type": "uint256"
        }
      ],
      "name": "setUserProcessedCheckpoints",
      "outputs": [],
      "payable": false,
      "stateMutability": "nonpayable",
      "type": "function"
    },
    {
      "constant": true,
      "inputs": [],
      "name": "staking",
      "outputs": [
        {
          "internalType": "contract IStaking",
          "name": "",
          "type": "address"
        }
      ],
      "payable": false,
      "stateMutability": "view",
      "type": "function"
    },
    {
      "constant": true,
      "inputs": [],
      "name": "testData",
      "outputs": [
        {
          "internalType": "address",
          "name": "loanPoolToken",
          "type": "address"
        },
        {
          "internalType": "uint32",
          "name": "maxCheckpoints",
          "type": "uint32"
        },
        {
          "internalType": "address",
          "name": "receiver",
          "type": "address"
        }
      ],
      "payable": false,
      "stateMutability": "view",
      "type": "function"
    },
    {
      "constant": true,
      "inputs": [
        {
          "internalType": "address",
          "name": "",
          "type": "address"
        },
        {
          "internalType": "uint256",
          "name": "",
          "type": "uint256"
        }
      ],
      "name": "tokenCheckpoints",
      "outputs": [
        {
          "internalType": "uint32",
          "name": "blockNumber",
          "type": "uint32"
        },
        {
          "internalType": "uint32",
          "name": "timestamp",
          "type": "uint32"
        },
        {
          "internalType": "uint96",
          "name": "totalWeightedStake",
          "type": "uint96"
        },
        {
          "internalType": "uint96",
          "name": "numTokens",
          "type": "uint96"
        }
      ],
      "payable": false,
      "stateMutability": "view",
      "type": "function"
    },
    {
      "constant": true,
      "inputs": [
        {
          "internalType": "address",
          "name": "",
          "type": "address"
        }
      ],
      "name": "totalTokenCheckpoints",
      "outputs": [
        {
          "internalType": "uint256",
          "name": "",
          "type": "uint256"
        }
      ],
      "payable": false,
      "stateMutability": "view",
      "type": "function"
    },
    {
      "constant": false,
      "inputs": [
        {
          "internalType": "address",
          "name": "newOwner",
          "type": "address"
        }
      ],
      "name": "transferOwnership",
      "outputs": [],
      "payable": false,
      "stateMutability": "nonpayable",
      "type": "function"
    },
    {
      "constant": false,
      "inputs": [],
      "name": "transferRBTC",
      "outputs": [],
      "payable": true,
      "stateMutability": "payable",
      "type": "function"
    },
    {
      "constant": false,
      "inputs": [
        {
          "internalType": "address",
          "name": "_token",
          "type": "address"
        },
        {
          "internalType": "uint96",
          "name": "_amount",
          "type": "uint96"
        }
      ],
      "name": "transferTokens",
      "outputs": [],
      "payable": false,
      "stateMutability": "nonpayable",
      "type": "function"
    },
    {
      "constant": false,
      "inputs": [
        {
          "internalType": "address",
          "name": "_token",
          "type": "address"
        },
        {
          "internalType": "uint32",
          "name": "_maxCheckpoints",
          "type": "uint32"
        },
        {
          "internalType": "address",
          "name": "_receiver",
          "type": "address"
        }
      ],
      "name": "trueWithdraw",
      "outputs": [],
      "payable": false,
      "stateMutability": "nonpayable",
      "type": "function"
    },
    {
      "constant": true,
      "inputs": [
        {
          "internalType": "address",
          "name": "",
          "type": "address"
        }
      ],
      "name": "unprocessedAmount",
      "outputs": [
        {
          "internalType": "uint96",
          "name": "",
          "type": "uint96"
        }
      ],
      "payable": false,
      "stateMutability": "view",
      "type": "function"
    },
    {
      "constant": false,
      "inputs": [
        {
          "internalType": "address",
          "name": "_token",
          "type": "address"
        },
        {
          "internalType": "uint32",
          "name": "_maxCheckpoints",
          "type": "uint32"
        },
        {
          "internalType": "address",
          "name": "_receiver",
          "type": "address"
        }
      ],
      "name": "withdraw",
      "outputs": [],
      "payable": false,
      "stateMutability": "nonpayable",
      "type": "function"
    },
    {
      "constant": false,
      "inputs": [
        {
          "internalType": "address[]",
          "name": "_tokens",
          "type": "address[]"
        }
      ],
      "name": "withdrawFees",
      "outputs": [],
      "payable": false,
      "stateMutability": "nonpayable",
      "type": "function"
    },
    {
      "constant": false,
      "inputs": [
        {
          "internalType": "address[]",
          "name": "_converters",
          "type": "address[]"
        }
      ],
      "name": "withdrawFeesAMM",
      "outputs": [],
      "payable": false,
      "stateMutability": "nonpayable",
      "type": "function"
    },
    {
      "constant": false,
      "inputs": [
        {
          "internalType": "uint32",
          "name": "_maxCheckpoints",
          "type": "uint32"
        },
        {
          "internalType": "address",
          "name": "_receiver",
          "type": "address"
        }
      ],
      "name": "withdrawRBTC",
      "outputs": [],
      "payable": false,
      "stateMutability": "nonpayable",
      "type": "function"
    },
    {
      "constant": false,
      "inputs": [
        {
          "internalType": "uint256",
          "name": "_fromCheckpoint",
          "type": "uint256"
        },
        {
          "internalType": "uint32",
          "name": "_maxCheckpoints",
          "type": "uint32"
        },
        {
          "internalType": "address",
          "name": "_receiver",
          "type": "address"
        }
      ],
      "name": "withdrawRBTCStartingFromCheckpoint",
      "outputs": [],
      "payable": false,
      "stateMutability": "nonpayable",
      "type": "function"
    },
    {
      "constant": false,
      "inputs": [
        {
          "internalType": "address",
          "name": "_token",
          "type": "address"
        },
        {
          "internalType": "uint256",
          "name": "_fromCheckpoint",
          "type": "uint256"
        },
        {
          "internalType": "uint32",
          "name": "_maxCheckpoints",
          "type": "uint32"
        },
        {
          "internalType": "address",
          "name": "_receiver",
          "type": "address"
        }
      ],
      "name": "withdrawStartingFromCheckpoint",
      "outputs": [],
      "payable": false,
      "stateMutability": "nonpayable",
      "type": "function"
    },
    {
      "constant": false,
      "inputs": [
        {
          "internalType": "address",
          "name": "receiver",
          "type": "address"
        },
        {
          "internalType": "uint256",
          "name": "wrbtcAmount",
          "type": "uint256"
        }
      ],
      "name": "withdrawWRBTC",
      "outputs": [],
      "payable": false,
      "stateMutability": "nonpayable",
      "type": "function"
    }
  ],
  "bytecode": {
    "object": "0x608060405260016008553480156200001657600080fd5b5060405162004b1038038062004b10833981810160405260408110156200003c57600080fd5b50805160209091015160006200005a6001600160e01b03620000d616565b600080546001600160a01b0319166001600160a01b0383169081178255604051929350917f8be0079c531659141344cd1fd0a4f28419497f9722a3daafe3b4186f6b6457e0908290a350600180546001600160a01b039384166001600160a01b03199182161790915560028054929093169116179055620000da565b3390565b614a2680620000ea6000396000f3fe6080604052600436106101f95760003560e01c80638ce744261161010d578063abe979e1116100a0578063ccd7660d1161006f578063ccd7660d1461098c578063d35bd723146109ef578063f2962cda14610a32578063f2fde38b14610a65578063f3bdba8f14610a98576101f9565b8063abe979e114610862578063adcf21a7146108a4578063c304044714610909578063c3f0eaee1461093c576101f9565b8063a4955f2a116100dc578063a4955f2a1461071e578063a697b8c714610751578063a9336519146107cc578063a965b3a914610819576101f9565b80638ce744261461068c5780638da5cb5b146106a15780638f32d59b146106b6578063988ba593146106df576101f9565b80635c4d9b12116101905780637913b4511161015f5780637913b451146105065780637c8678ec146105415780637d0ce2b2146105ef578063882d507c146106045780638b6fdcba1461063d576101f9565b80635c4d9b12146103e4578063705300171461041d5780637061acf31461048e5780637104c4ff146104c1576101f9565b8063368ddadc116101cc578063368ddadc146102f65780633d67df6f1461032f5780633f4afbca1461036a5780634cf088d9146103b3576101f9565b8063016cbd51146101fb5780631345946c1461024057806320020208146102a957806322a6fd95146102ee575b005b34801561020757600080fd5b50610210610acb565b604080516001600160a01b03948516815263ffffffff909316602084015292168183015290519081900360600190f35b34801561024c57600080fd5b506102896004803603608081101561026357600080fd5b506001600160a01b03813581169160208101359091169060408101359060600135610aef565b604080519384529115156020840152151582820152519081900360600190f35b3480156102b557600080fd5b506102dc600480360360208110156102cc57600080fd5b50356001600160a01b0316610dcb565b60408051918252519081900360200190f35b6101f9610de6565b34801561030257600080fd5b506101f96004803603604081101561031957600080fd5b506001600160a01b038135169060200135610e93565b34801561033b57600080fd5b506102dc6004803603604081101561035257600080fd5b506001600160a01b0381358116916020013516610ec8565b34801561037657600080fd5b506101f96004803603606081101561038d57600080fd5b506001600160a01b03813581169163ffffffff6020820135169160409091013516610ee3565b3480156103bf57600080fd5b506103c8610eee565b604080516001600160a01b039092168252519081900360200190f35b3480156103f057600080fd5b506101f96004803603604081101561040757600080fd5b506001600160a01b038135169060200135610efd565b34801561042957600080fd5b506104566004803603604081101561044057600080fd5b506001600160a01b03813516906020013561109c565b6040805163ffffffff95861681529390941660208401526001600160601b039182168385015216606082015290519081900360800190f35b34801561049a57600080fd5b506101f9600480360360208110156104b157600080fd5b50356001600160a01b03166110e7565b3480156104cd57600080fd5b506101f9600480360360608110156104e457600080fd5b50803590602081013563ffffffff1690604001356001600160a01b03166111dd565b34801561051257600080fd5b506102dc6004803603604081101561052957600080fd5b506001600160a01b038135811691602001351661168a565b34801561054d57600080fd5b506101f96004803603602081101561056457600080fd5b810190602081018135600160201b81111561057e57600080fd5b82018360208201111561059057600080fd5b803590602001918460208302840111600160201b831117156105b157600080fd5b9190808060200260200160405190810160405280939291908181526020018383602002808284376000920191909152509295506116a7945050505050565b3480156105fb57600080fd5b506103c8611916565b34801561061057600080fd5b506101f96004803603604081101561062757600080fd5b506001600160a01b038135169060200135611932565b34801561064957600080fd5b506106706004803603602081101561066057600080fd5b50356001600160a01b031661194e565b604080516001600160601b039092168252519081900360200190f35b34801561069857600080fd5b506103c8611969565b3480156106ad57600080fd5b506103c8611978565b3480156106c257600080fd5b506106cb611987565b604080519115158252519081900360200190f35b3480156106eb57600080fd5b506101f96004803603604081101561070257600080fd5b50803563ffffffff1690602001356001600160a01b03166119ab565b34801561072a57600080fd5b506101f96004803603602081101561074157600080fd5b50356001600160a01b0316611a09565b34801561075d57600080fd5b506101f96004803603602081101561077457600080fd5b810190602081018135600160201b81111561078e57600080fd5b8201836020820111156107a057600080fd5b803590602001918460208302840111600160201b831117156107c157600080fd5b509092509050611aa5565b3480156107d857600080fd5b506101f9600480360360808110156107ef57600080fd5b506001600160a01b03813581169160208101359163ffffffff604083013516916060013516611d2d565b34801561082557600080fd5b506101f96004803603606081101561083c57600080fd5b506001600160a01b03813581169163ffffffff60208201351691604090910135166121d2565b34801561086e57600080fd5b506101f96004803603604081101561088557600080fd5b5080356001600160a01b031690602001356001600160601b031661223c565b3480156108b057600080fd5b506108b96124f6565b60408051602080825283518183015283519192839290830191858101910280838360005b838110156108f55781810151838201526020016108dd565b505050509050019250505060405180910390f35b34801561091557600080fd5b506102dc6004803603602081101561092c57600080fd5b50356001600160a01b0316612507565b34801561094857600080fd5b506102dc6004803603608081101561095f57600080fd5b5080356001600160a01b03908116916020810135909116906040810135906060013563ffffffff16612669565b34801561099857600080fd5b506109d6600480360360608110156109af57600080fd5b5080356001600160a01b03908116916020810135909116906040013563ffffffff16612683565b6040805192835260208301919091528051918290030190f35b3480156109fb57600080fd5b506101f960048036036060811015610a1257600080fd5b506001600160a01b0381358116916020810135909116906040013561269f565b348015610a3e57600080fd5b506102dc60048036036020811015610a5557600080fd5b50356001600160a01b03166126cb565b348015610a7157600080fd5b506101f960048036036020811015610a8857600080fd5b50356001600160a01b03166126dd565b348015610aa457600080fd5b506102dc60048036036020811015610abb57600080fd5b50356001600160a01b0316612731565b600b54600c546001600160a01b0380831692600160a01b900463ffffffff16911683565b6002546040805163ca6860df60e01b81526001600160a01b03878116600483015291516000938493849391169163ca6860df91602480820192602092909190829003018186803b158015610b4257600080fd5b505afa158015610b56573d6000803e3d6000fd5b505050506040513d6020811015610b6c57600080fd5b505115610b8157506000915081905080610dc1565b60008411610bd6576040805162461bcd60e51b815260206004820152601b60248201527f5f6d6178436865636b706f696e7473206d757374206265203e20300000000000604482015290519081900360640190fd5b6001600160a01b03808716600081815260046020908152604080832054948c1683526005825280832093835292905220548181101580610c14575081155b15610c285750925060009150819050610dc1565b6000818811610c375781610c39565b875b90506000610c4d828963ffffffff61274316565b9050838110610c595750825b815b81811015610db3576000600360008d6001600160a01b03166001600160a01b03168152602001908152602001600020600083815260200190815260200160002090506000600260009054906101000a90046001600160a01b03166001600160a01b03166337e6b1c18f60018560000160009054906101000a900463ffffffff16038560000160049054906101000a900463ffffffff166040518463ffffffff1660e01b815260040180846001600160a01b03166001600160a01b031681526020018363ffffffff1681526020018263ffffffff168152602001935050505060206040518083038186803b158015610d5157600080fd5b505afa158015610d65573d6000803e3d6000fd5b505050506040513d6020811015610d7b57600080fd5b505190506001600160601b03811615610da95782600101868411600199509950995050505050505050610dc1565b5050600101610c5b565b509550508411925060009150505b9450945094915050565b6001600160a01b031660009081526004602052604090205490565b346001600160601b038116610e2c5760405162461bcd60e51b81526004018080602001828103825260308152602001806145956030913960400191505060405180910390fd5b610e4f60405180806147fb602191396040519081900360210190209050826127a4565b604080516001600160601b0383168152905160009133917f1b89874203ff7f0bba87c969ada3f32fda22ed38a6706d35199d21280c7811b19181900360200190a350565b6000610eb7826040518060800160405280604981526020016147b2604991396128e8565b9050610ec383826127a4565b505050565b600080610ed88484600080612982565b509150505b92915050565b610ec3838383612ce5565b6002546001600160a01b031681565b610f05611987565b610f45576040805162461bcd60e51b815260206004820152600c60248201526b1d5b985d5d1a1bdc9a5e995960a21b604482015290519081900360640190fd5b6001546040805163afe8400960e01b815290516000926001600160a01b03169163afe84009916004808301926020929190829003018186803b158015610f8a57600080fd5b505afa158015610f9e573d6000803e3d6000fd5b505050506040513d6020811015610fb457600080fd5b5051604080516370a0823160e01b815230600482015290519192506000916001600160a01b038416916370a08231916024808301926020929190829003018186803b15801561100257600080fd5b505afa158015611016573d6000803e3d6000fd5b505050506040513d602081101561102c57600080fd5b505190508083111561107c576040805162461bcd60e51b8152602060048201526014602482015273496e73756666696369656e742062616c616e636560601b604482015290519081900360640190fd5b6110966001600160a01b038316858563ffffffff612d4516565b50505050565b600360209081526000928352604080842090915290825290205463ffffffff80821691600160201b8104909116906001600160601b03600160401b8204811691600160a01b90041684565b6110ef611987565b61112f576040805162461bcd60e51b815260206004820152600c60248201526b1d5b985d5d1a1bdc9a5e995960a21b604482015290519081900360640190fd5b61113881612d97565b611189576040805162461bcd60e51b815260206004820152601a60248201527f4e6f6e20636f6e7472616374206164647265737320676976656e000000000000604482015290519081900360640190fd5b61119a60098263ffffffff612dd316565b50604080516001600160a01b0383168152905133917fe7902ff5b883e069d72db554511b4f7122428c996decf30682b312a66879668a919081900360200190a250565b823360405180806147fb602191396040519081900360210190209050600183116112385760405162461bcd60e51b815260040180806020018281038252602181526020018061471d6021913960400191505060405180910390fd5b6001600160a01b0380831660009081526005602090815260408083209385168352929052205460001984019084116112a15760405162461bcd60e51b81526004018080602001828103825260388152602001806148eb6038913960400191505060405180910390fd5b6001600160a01b0382166000908152600460205260409020548411156112f85760405162461bcd60e51b815260040180806020018281038252603281526020018061441f6032913960400191505060405180910390fd5b61130061432f565b506001600160a01b03808316600090815260036020908152604080832060001980870185529083528184208251608081018452905463ffffffff808216808452600160201b830482168488018190526001600160601b03600160401b8504811686890152600160a01b909404909316606085015260025486516337e6b1c160e01b81528d8b16600482015291909501909116602482015260448101919091529251909591909116926337e6b1c19260648082019391829003018186803b1580156113c957600080fd5b505afa1580156113dd573d6000803e3d6000fd5b505050506040513d60208110156113f357600080fd5b505190506001600160601b0381161561143d5760405162461bcd60e51b81526004018080602001828103825260398152602001806145c56039913960400191505060405180910390fd5b61144561432f565b506001600160a01b0380851660009081526003602090815260408083208784528252918290208251608081018452905463ffffffff808216808452600160201b830482168486018190526001600160601b03600160401b8504811686890152600160a01b909404909316606085015260025486516337e6b1c160e01b81528d89166004820152600019909201909216602482015260448101929092529351919493909316926337e6b1c1926064808301939192829003018186803b15801561150c57600080fd5b505afa158015611520573d6000803e3d6000fd5b505050506040513d602081101561153657600080fd5b505191506001600160601b03821661157f5760405162461bcd60e51b81526004018080602001828103825260358152602001806145606035913960400191505060405180910390fd5b6001600854146115c5576040805162461bcd60e51b815260206004820152600c60248201526b1b9bdb9499595b9d1c985b9d60a21b604482015290519081900360640190fd5b600260085560006115dd8b600163ffffffff612e3316565b336000908152600560205260408082209051929350918060216147fb823960408051918290036021019091206001600160a01b03168352602083019390935250016000205481111561166e573360009081526005602052604080822090518392908060216147fb823960408051918290036021019091206001600160a01b0316835260208301939093525001600020555b6116788a8a612e75565b50506001600855505050505050505050565b600560209081526000928352604080842090915290825290205481565b6001546040805163afe8400960e01b815290516000926001600160a01b03169163afe84009916004808301926020929190829003018186803b1580156116ec57600080fd5b505afa158015611700573d6000803e3d6000fd5b505050506040513d602081101561171657600080fd5b50519050611723826131fa565b6000805b83518110156118e357600084828151811061173e57fe5b60200260200101516001600160a01b031663164e68de306040518263ffffffff1660e01b815260040180826001600160a01b03166001600160a01b03168152602001915050602060405180830381600087803b15801561179d57600080fd5b505af11580156117b1573d6000803e3d6000fd5b505050506040513d60208110156117c757600080fd5b5051905080156118da57836001600160a01b0316632e1a7d4d826040518263ffffffff1660e01b815260040180828152602001915050600060405180830381600087803b15801561181757600080fd5b505af115801561182b573d6000803e3d6000fd5b50505050600061185382604051806080016040528060488152602001614518604891396128e8565b905061187884826040518060800160405280604e81526020016144ca604e913961327a565b935085838151811061188657fe5b60200260200101516001600160a01b0316336001600160a01b03167fd915b7f9d8d5ce11af1f5961b830d7d7c01a750927706eb0bcbf80a8827d76cc846040518082815260200191505060405180910390a3505b50600101611727565b506001600160601b03811615610ec357610ec360405180806147fb602191396040519081900360210190209050826127a4565b6040518060216147fb8239604051908190036021019020905081565b6001600160a01b03909116600090815260046020526040902055565b6007602052600090815260409020546001600160601b031681565b6001546001600160a01b031681565b6000546001600160a01b031690565b600080546001600160a01b031661199c6132e4565b6001600160a01b031614905090565b6001600854146119f1576040805162461bcd60e51b815260206004820152600c60248201526b1b9bdb9499595b9d1c985b9d60a21b604482015290519081900360640190fd5b6002600855611a008282612e75565b50506001600855565b611a11611987565b611a51576040805162461bcd60e51b815260206004820152600c60248201526b1d5b985d5d1a1bdc9a5e995960a21b604482015290519081900360640190fd5b611a6260098263ffffffff6132e816565b50604080516001600160a01b0383168152905133917f7b8bddb144d9ebd8a4fa3f47acac7c75b34ade822d5e528a442825fa9100ffdb919081900360200190a250565b60005b81811015611b1757611ad4838383818110611abf57fe5b905060200201356001600160a01b0316612d97565b611b0f5760405162461bcd60e51b815260040180806020018281038252603a81526020018061497d603a913960400191505060405180910390fd5b600101611aa8565b5060015460408051630f7e7aab60e41b8152306024820181905260048201928352604482018590526000936001600160a01b03169263f7e7aab0928792879290918190606401856020860280828437600081840152601f19601f820116905080830192505050945050505050602060405180830381600087803b158015611b9d57600080fd5b505af1158015611bb1573d6000803e3d6000fd5b505050506040513d6020811015611bc757600080fd5b50516001546040805163afe8400960e01b815290519293506000926001600160a01b039092169163afe8400991600480820192602092909190829003018186803b158015611c1457600080fd5b505afa158015611c28573d6000803e3d6000fd5b505050506040513d6020811015611c3e57600080fd5b505190508115611cf157806001600160a01b0316632e1a7d4d836040518263ffffffff1660e01b815260040180828152602001915050600060405180830381600087803b158015611c8e57600080fd5b505af1158015611ca2573d6000803e3d6000fd5b505050506000611cca83604051806080016040528060458152602001614485604591396128e8565b9050611cef60405180806147fb602191396040519081900360210190209050826127a4565b505b60408051838152905133917fea588ee3c471f3c47a77b5d118007e77b1d74e5b310a8805df274aa067d2e8a6919081900360200190a250505050565b82338560018311611d6f5760405162461bcd60e51b815260040180806020018281038252602181526020018061471d6021913960400191505060405180910390fd5b6001600160a01b038083166000908152600560209081526040808320938516835292905220546000198401908411611dd85760405162461bcd60e51b81526004018080602001828103825260388152602001806148eb6038913960400191505060405180910390fd5b6001600160a01b038216600090815260046020526040902054841115611e2f5760405162461bcd60e51b815260040180806020018281038252603281526020018061441f6032913960400191505060405180910390fd5b611e3761432f565b506001600160a01b03808316600090815260036020908152604080832060001980870185529083528184208251608081018452905463ffffffff808216808452600160201b830482168488018190526001600160601b03600160401b8504811686890152600160a01b909404909316606085015260025486516337e6b1c160e01b81528d8b16600482015291909501909116602482015260448101919091529251909591909116926337e6b1c19260648082019391829003018186803b158015611f0057600080fd5b505afa158015611f14573d6000803e3d6000fd5b505050506040513d6020811015611f2a57600080fd5b505190506001600160601b03811615611f745760405162461bcd60e51b81526004018080602001828103825260398152602001806145c56039913960400191505060405180910390fd5b611f7c61432f565b506001600160a01b0380851660009081526003602090815260408083208784528252918290208251608081018452905463ffffffff808216808452600160201b830482168486018190526001600160601b03600160401b8504811686890152600160a01b909404909316606085015260025486516337e6b1c160e01b81528d89166004820152600019909201909216602482015260448101929092529351919493909316926337e6b1c1926064808301939192829003018186803b15801561204357600080fd5b505afa158015612057573d6000803e3d6000fd5b505050506040513d602081101561206d57600080fd5b505191506001600160601b0382166120b65760405162461bcd60e51b81526004018080602001828103825260358152602001806145606035913960400191505060405180910390fd5b6001600854146120fc576040805162461bcd60e51b815260206004820152600c60248201526b1b9bdb9499595b9d1c985b9d60a21b604482015290519081900360640190fd5b600260085560006121148b600163ffffffff612e3316565b905060056000336001600160a01b03166001600160a01b0316815260200190815260200160002060008d6001600160a01b03166001600160a01b03168152602001908152602001600020548111156121b4578060056000336001600160a01b03166001600160a01b0316815260200190815260200160002060008e6001600160a01b03166001600160a01b03168152602001908152602001600020819055505b6121bf8c8b8b6133f3565b5050600160085550505050505050505050565b604080516060810182526001600160a01b0394851680825263ffffffff9490941660208201819052929094169301839052600b80546001600160a01b031990811690931763ffffffff60a01b1916600160a01b909202919091179055600c80549091169091179055565b6001600160a01b0382166122815760405162461bcd60e51b815260040180806020018281038252603481526020018061438a6034913960400191505060405180910390fd5b6000816001600160601b0316116122c95760405162461bcd60e51b81526004018080602001828103825260338152602001806143576033913960400191505060405180910390fd5b604080516323b872dd60e01b81523360048201523060248201526001600160601b038316604482015290516000916001600160a01b038516916323b872dd9160648082019260209290919082900301818787803b15801561232957600080fd5b505af115801561233d573d6000803e3d6000fd5b505050506040513d602081101561235357600080fd5b50519050806123935760405162461bcd60e51b815260040180806020018281038252602e815260200180614784602e913960400191505060405180910390fd5b6001546040805163afe8400960e01b815290516000926001600160a01b03169163afe84009916004808301926020929190829003018186803b1580156123d857600080fd5b505afa1580156123ec573d6000803e3d6000fd5b505050506040513d602081101561240257600080fd5b505190506001600160a01b03848116908216141561249d57806001600160a01b0316632e1a7d4d846040518263ffffffff1660e01b815260040180826001600160601b03168152602001915050600060405180830381600087803b15801561246957600080fd5b505af115801561247d573d6000803e3d6000fd5b5050505060405180806147fb602191396040519081900360210190209450505b6124a784846127a4565b604080516001600160601b038516815290516001600160a01b0386169133917f1b89874203ff7f0bba87c969ada3f32fda22ed38a6706d35199d21280c7811b19181900360200190a350505050565b606061250260096137b4565b905090565b60008060008061251885600061385a565b5050509250925092506000600160009054906101000a90046001600160a01b03166001600160a01b031663afe840096040518163ffffffff1660e01b815260040160206040518083038186803b15801561257157600080fd5b505afa158015612585573d6000803e3d6000fd5b505050506040513d602081101561259b57600080fd5b5051905060006125aa8261394c565b9050600061263b670de0b6b3a764000061262f846001600160a01b0316637ff9b5966040518163ffffffff1660e01b815260040160206040518083038186803b1580156125f657600080fd5b505afa15801561260a573d6000803e3d6000fd5b505050506040513d602081101561262057600080fd5b5051879063ffffffff613a0e16565b9063ffffffff613a6716565b905061265d81612651888863ffffffff61274316565b9063ffffffff61274316565b98975050505050505050565b60008061267886868686612982565b509695505050505050565b6000806126938585600086612982565b90969095509350505050565b6001600160a01b0392831660009081526005602090815260408083209490951682529290925291902055565b60046020526000908152604090205481565b6126e5611987565b612725576040805162461bcd60e51b815260206004820152600c60248201526b1d5b985d5d1a1bdc9a5e995960a21b604482015290519081900360640190fd5b61272e81613aa9565b50565b60066020526000908152604090205481565b60008282018381101561279d576040805162461bcd60e51b815260206004820152601b60248201527f536166654d6174683a206164646974696f6e206f766572666c6f770000000000604482015290519081900360640190fd5b9392505050565b6001600160a01b0382166000908152600660205260409020546201518042919091031061285d576001600160a01b03821660009081526006602090815260408083204290556007825280832054815160608101909252603b808352612820936001600160601b039092169286929091906146809083013961327a565b6001600160a01b038416600090815260076020526040902080546bffffffffffffffffffffffff1916905590506128578382613b49565b506128e4565b6001600160a01b0382166000908152600760209081526040918290205482516080810190935260468084526128a8936001600160601b03909216928592919061481c9083013961327a565b6001600160a01b038316600090815260076020526040902080546bffffffffffffffffffffffff19166001600160601b03929092169190911790555b5050565b600081600160601b841061297a5760405162461bcd60e51b81526004018080602001828103825283818151815260200191508051906020019080838360005b8381101561293f578181015183820152602001612927565b50505050905090810190601f16801561296c5780820380516001836020036101000a031916815260200191505b509250505060405180910390fd5b509192915050565b6002546040805163ca6860df60e01b81526001600160a01b03878116600483015291516000938493169163ca6860df916024808301926020929190829003018186803b1580156129d157600080fd5b505afa1580156129e5573d6000803e3d6000fd5b505050506040513d60208110156129fb57600080fd5b505115612a0d57506000905080612cdc565b6001600160a01b03808716600090815260056020908152604080832093891683529290529081205490818611612a435781612a45565b855b905060008563ffffffff1611612a73576001600160a01b038716600090815260046020526040902054612a7e565b612a7e818887613dec565b6001600160a01b0388166000908152600460205260409020549093508110612aac575060009250612cdc9050565b600080825b85811015612cd657612ac161432f565b506001600160a01b03808b16600090815260036020908152604080832085845282528083208151608081018352905463ffffffff8082168352600160201b8204168285018190526001600160601b03600160401b8304811684860152600160a01b909204909116606083015260025483516372ec979560e01b815260048101929092529251919592909216926372ec97959260248082019391829003018186803b158015612b6e57600080fd5b505afa158015612b82573d6000803e3d6000fd5b505050506040513d6020811015612b9857600080fd5b50519050600085821415612bad575083612c76565b600260009054906101000a90046001600160a01b03166001600160a01b03166337e6b1c18f600186600001510386602001516040518463ffffffff1660e01b815260040180846001600160a01b03166001600160a01b031681526020018363ffffffff1681526020018263ffffffff168152602001935050505060206040518083038186803b158015612c3f57600080fd5b505afa158015612c53573d6000803e3d6000fd5b505050506040513d6020811015612c6957600080fd5b5051919550909350849050835b6000612cb284604001516001600160601b031661262f846001600160601b031687606001516001600160601b0316613a0e90919063ffffffff16565b9050612cc48b8263ffffffff61274316565b9a505060019093019250612ab1915050565b50505050505b94509492505050565b600160085414612d2b576040805162461bcd60e51b815260206004820152600c60248201526b1b9bdb9499595b9d1c985b9d60a21b604482015290519081900360640190fd5b6002600855612d3b8383836133f3565b5050600160085550565b604080516001600160a01b038416602482015260448082018490528251808303909101815260649091019091526020810180516001600160e01b031663a9059cbb60e01b179052610ec3908490613ead565b6000813f7fc5d2460186f7233c927e7db2dcc703c0e500b653ca82273b7bfad8045d85a470818114801590612dcb57508115155b949350505050565b6000612ddf8383614065565b612e2b5750600182810180548083018083556000928352602080842090920180546001600160a01b0319166001600160a01b038716908117909155835290859052604090912055610edd565b506000610edd565b600061279d83836040518060400160405280601e81526020017f536166654d6174683a207375627472616374696f6e206f766572666c6f770000815250614083565b6000806000806000806000803390506000600160009054906101000a90046001600160a01b03166001600160a01b031663afe840096040518163ffffffff1660e01b815260040160206040518083038186803b158015612ed457600080fd5b505afa158015612ee8573d6000803e3d6000fd5b505050506040513d6020811015612efe57600080fd5b505190506000612f0d8261394c565b90506001600160a01b038b16612f2157339a505b612f2b838d61385a565b939e50939c50909a50985090965094508815612f8f576001600160a01b03831660009081526005602052604080822090518992908060216147fb823960408051918290036021019091206001600160a01b0316835260208301939093525001600020555b8915613013576001600160a01b038084166000908152600560209081526040808320938616808452939091528082208990558051632e1a7d4d60e01b8152600481018e90529051632e1a7d4d9260248084019391929182900301818387803b158015612ffa57600080fd5b505af115801561300e573d6000803e3d6000fd5b505050505b87156130b8576001600160a01b0380841660009081526005602090815260408083209385168084529382528083208990558051630141abc160e21b8152306004820152602481018d9052604481018490529051630506af0493606480840194938390030190829087803b15801561308957600080fd5b505af115801561309d573d6000803e3d6000fd5b505050506040513d60208110156130b357600080fd5b505193505b60006130ce856126518c8e63ffffffff61274316565b90506000811161310f5760405162461bcd60e51b815260040180806020018281038252603b8152602001806149b7603b913960400191505060405180910390fd5b6040516000906001600160a01b038e169083908381818185875af1925050503d806000811461315a576040519150601f19603f3d011682016040523d82523d6000602084013e61315f565b606091505b505090508061319f5760405162461bcd60e51b81526004018080602001828103825260348152602001806144516034913960400191505060405180910390fd5b8c6001600160a01b0316856001600160a01b03167fba7771603337d6821ea291d76396cf6aa3ea405141b033d8415280139c980c1d846040518082815260200191505060405180910390a35050505050505050505050505050565b60005b81518110156128e45761322d82828151811061321557fe5b6020026020010151600961406590919063ffffffff16565b613272576040805162461bcd60e51b815260206004820152601160248201527024b73b30b634b21021b7b73b32b93a32b960791b604482015290519081900360640190fd5b6001016131fd565b6000838301826001600160601b0380871690831610156132db5760405162461bcd60e51b815260206004820181815283516024840152835190928392604490910191908501908083836000831561293f578181015183820152602001612927565b50949350505050565b3390565b60006132f48383614065565b15612e2b576001600160a01b0382166000908152602084905260409020546001840154600019918201910180821461339f57600085600101828154811061333757fe5b6000918252602090912001546001870180546001600160a01b03909216925082918590811061336257fe5b600091825260208083209190910180546001600160a01b0319166001600160a01b0394851617905592909116815290869052604090206001830190555b6001600160a01b038416600090815260208690526040812055600185018054806133c557fe5b600082815260209020810160001990810180546001600160a01b03191690550190555060019150610edd9050565b60008263ffffffff16116134385760405162461bcd60e51b81526004018080602001828103825260418152602001806146dc6041913960600191505060405180910390fd5b6001546040805163afe8400960e01b815290516000926001600160a01b03169163afe84009916004808301926020929190829003018186803b15801561347d57600080fd5b505afa158015613491573d6000803e3d6000fd5b505050506040513d60208110156134a757600080fd5b5051905060006134b68261394c565b9050336001600160a01b0384166134cb573393505b6001600160a01b038082166000908152600560209081526040808320938a168352929052908120549080613501848a858b612982565b9150915081600014156135cb578281111561359457604080518481526020810183905281516001600160a01b038c169233927fd3d8b561a0f93295b4ea7e2b930d36bd7f1a38774547bf98fb66540f588217b2929081900390910190a36001600160a01b039384166000908152600560209081526040808320968c168352959052939093209290925550610ec392505050565b60405162461bcd60e51b815260040180806020018281038252603b8152602001806143be603b913960400191505060405180910390fd5b6001600160a01b0380851660009081526005602090815260408083208d85168085529252909120839055908616141561368d5760408051630141abc160e21b81526001600160a01b038981166004830152602482018590526000604483018190529251908c1692630506af0492606480820193602093909283900390910190829087803b15801561365b57600080fd5b505af115801561366f573d6000803e3d6000fd5b505050506040513d602081101561368557600080fd5b506137549050565b886001600160a01b031663a9059cbb88846040518363ffffffff1660e01b815260040180836001600160a01b03166001600160a01b0316815260200182815260200192505050602060405180830381600087803b1580156136ed57600080fd5b505af1158015613701573d6000803e3d6000fd5b505050506040513d602081101561371757600080fd5b50516137545760405162461bcd60e51b81526004018080602001828103825260308152602001806149236030913960400191505060405180910390fd5b886001600160a01b0316876001600160a01b0316336001600160a01b03167fe635adc5d0c2d7b47215ce5ed57a79c3db183a1ef414ccfc43f24f19178a630f856040518082815260200191505060405180910390a4505050505050505050565b60608082600101805490506040519080825280602002602001820160405280156137e8578160200160208202803883390190505b50905060005b60018401548110156138535783600101818154811061380957fe5b9060005260206000200160009054906101000a90046001600160a01b031682828151811061383357fe5b6001600160a01b03909216602092830291909101909101526001016137ee565b5092915050565b6000806000806000806000600160009054906101000a90046001600160a01b03166001600160a01b031663afe840096040518163ffffffff1660e01b815260040160206040518083038186803b1580156138b357600080fd5b505afa1580156138c7573d6000803e3d6000fd5b505050506040513d60208110156138dd57600080fd5b5051905060006138ec8261394c565b90506139148a60405180806147fb60219139604051908190036021019020905060008c612982565b90985094506139268a8360008c612982565b90975093506139388a8260008c612982565b809450819750505050509295509295509295565b600154604080516310c59ce360e11b81526001600160a01b03848116600483015291516000938493169163218b39c6916024808301926020929190829003018186803b15801561399b57600080fd5b505afa1580156139af573d6000803e3d6000fd5b505050506040513d60208110156139c557600080fd5b505190506001600160a01b038116610edd5760405162461bcd60e51b81526004018080602001828103825260338152602001806148b86033913960400191505060405180910390fd5b600082613a1d57506000610edd565b82820282848281613a2a57fe5b041461279d5760405162461bcd60e51b81526004018080602001828103825260218152602001806146bb6021913960400191505060405180910390fd5b600061279d83836040518060400160405280601a81526020017f536166654d6174683a206469766973696f6e206279207a65726f0000000000008152506140dd565b6001600160a01b038116613aee5760405162461bcd60e51b81526004018080602001828103825260268152602001806143f96026913960400191505060405180910390fd5b600080546040516001600160a01b03808516939216917f8be0079c531659141344cd1fd0a4f28419497f9722a3daafe3b4186f6b6457e091a3600080546001600160a01b0319166001600160a01b0392909216919091179055565b6000613b6d436040518060800160405280604381526020016145fe60439139614142565b90506000613b934260405180608001604052806046815260200161473e60469139614142565b6001600160a01b038516600090815260046020526040812054919250613bbd600019850142614197565b90506000816001600160601b031611613c1d576040805162461bcd60e51b815260206004820152601a60248201527f496e76616c696420746f74616c57656967687465645374616b65000000000000604482015290519081900360640190fd5b600082118015613c5c57506001600160a01b03861660009081526003602090815260408083206000198601845290915290205463ffffffff8581169116145b15613ccb576001600160a01b03868116600090815260036020908152604080832060001987018452909152902080546001600160601b03888116600160a01b02908516600160401b026bffffffffffffffffffffffff60401b1990921691909117909216919091179055613d9b565b6040805160808101825263ffffffff868116825285811660208084019182526001600160601b038681168587019081528b8216606087019081526001600160a01b038e81166000818152600387528a81208d825287528a812099518a5498519551945163ffffffff19909916908a161767ffffffff000000001916600160201b9590991694909402979097176bffffffffffffffffffffffff60401b1916600160401b928516929092029190911716600160a01b9490921693909302179093559081526004909152206001830190555b604080516001600160601b038716815290516001600160a01b0388169133917ff61a5f2f4d0b2d871d5bf18717d08a6b0f543afa7e08dad5df1fea150f7296329181900360200190a3505050505050565b6001600160a01b03821660009081526004602052604081205480613e1457600091505061279d565b600063ffffffff8416613e28575080613e65565b613e528463ffffffff1687016040518060600160405280603f8152602001614641603f9139614142565b63ffffffff16905081811115613e655750805b6001600160a01b03851660009081526003602090815260408083206000198501845290915290205463ffffffff1643811415613ea357600019909101905b5095945050505050565b613ebf826001600160a01b0316612d97565b613f10576040805162461bcd60e51b815260206004820152601f60248201527f5361666545524332303a2063616c6c20746f206e6f6e2d636f6e747261637400604482015290519081900360640190fd5b60006060836001600160a01b0316836040518082805190602001908083835b60208310613f4e5780518252601f199092019160209182019101613f2f565b6001836020036101000a0380198251168184511680821785525050505050509050019150506000604051808303816000865af19150503d8060008114613fb0576040519150601f19603f3d011682016040523d82523d6000602084013e613fb5565b606091505b50915091508161400c576040805162461bcd60e51b815260206004820181905260248201527f5361666545524332303a206c6f772d6c6576656c2063616c6c206661696c6564604482015290519081900360640190fd5b8051156110965780806020019051602081101561402857600080fd5b50516110965760405162461bcd60e51b815260040180806020018281038252602a815260200180614953602a913960400191505060405180910390fd5b6001600160a01b031660009081526020919091526040902054151590565b600081848411156140d55760405162461bcd60e51b815260206004820181815283516024840152835190928392604490910191908501908083836000831561293f578181015183820152602001612927565b505050900390565b6000818361412c5760405162461bcd60e51b815260206004820181815283516024840152835190928392604490910191908501908083836000831561293f578181015183820152602001612927565b50600083858161413857fe5b0495945050505050565b600081600160201b841061297a5760405162461bcd60e51b815260206004820181815283516024840152835190928392604490910191908501908083836000831561293f578181015183820152602001612927565b6002546040805163cdbe715560e01b815263ffffffff8516600482015260248101849052905160009283926001600160a01b039091169163cdbe715591604480820192602092909190829003018186803b1580156141f457600080fd5b505afa158015614208573d6000803e3d6000fd5b505050506040513d602081101561421e57600080fd5b5051600254604080516312916bdd60e11b815263ffffffff881660048201526024810187905290519293506001600160a01b0390911691632522d7ba91604480820192602092909190829003018186803b15801561427b57600080fd5b505afa15801561428f573d6000803e3d6000fd5b505050506040513d60208110156142a557600080fd5b505160408051608081019091526056808252919350612dcb918491849161486260208301396000836001600160601b0316836001600160601b0316111582906140d55760405162461bcd60e51b815260206004820181815283516024840152835190928392604490910191908501908083836000831561293f578181015183820152602001612927565b6040805160808101825260008082526020820181905291810182905260608101919091529056fe46656553686172696e67436f6c6c6563746f723a3a7472616e73666572546f6b656e733a20696e76616c696420616d6f756e7446656553686172696e67436f6c6c6563746f723a3a7472616e73666572546f6b656e733a20696e76616c6964206164647265737346656553686172696e67436f6c6c6563746f723a3a7769746864726177466565733a206e6f20746f6b656e7320666f72207769746864726177616c4f776e61626c653a206e6577206f776e657220697320746865207a65726f20616464726573735f66726f6d436865636b706f696e742073686f756c64206265203c3d20746f74616c546f6b656e436865636b706f696e747346656553686172696e67436f6c6c6563746f723a3a7769746864726177524254433a205769746864726177616c206661696c656446656553686172696e67436f6c6c6563746f723a3a7769746864726177466565733a20777262746320746f6b656e20616d6f756e742065786365656473203936206269747346656553686172696e67436f6c6c6563746f723a3a776974686472617746656573414d4d3a20746f74616c20777262746320746f6b656e20616d6f756e742065786365656473203936206269747346656553686172696e67436f6c6c6563746f723a3a776974686472617746656573414d4d3a20777262746320746f6b656e20616d6f756e742065786365656473203936206269747355736572207765696768746564207374616b652073686f756c64206265203e203020617420205f66726f6d436865636b706f696e7446656553686172696e67436f6c6c6563746f723a3a7472616e73666572524254433a20696e76616c69642076616c756555736572207765696768746564207374616b652073686f756c64206265207a65726f2061742070726576696f757320636865636b706f696e7446656553686172696e67436f6c6c6563746f723a3a5f7772697465436865636b706f696e743a20626c6f636b206e756d6265722065786365656473203332206269747346656553686172696e67436f6c6c6563746f723a3a77697468647261773a20636865636b706f696e7420696e6465782065786365656473203332206269747346656553686172696e67436f6c6c6563746f723a3a5f616464436865636b706f696e743a20616d6f756e7420657863656564732039362062697473536166654d6174683a206d756c7469706c69636174696f6e206f766572666c6f7746656553686172696e67436f6c6c6563746f723a3a77697468647261773a205f6d6178436865636b706f696e74732073686f756c6420626520706f7369746976655f66726f6d436865636b706f696e7420706172616d206d757374206265203e203146656553686172696e67436f6c6c6563746f723a3a5f7772697465436865636b706f696e743a20626c6f636b2074696d657374616d70206578636565647320333220626974735374616b696e673a3a7472616e73666572546f6b656e733a20746f6b656e207472616e73666572206661696c656446656553686172696e67436f6c6c6563746f7250726f78793a3a7769746864726177466565733a20706f6f6c20746f6b656e20616d6f756e7420657863656564732039362062697473524254435f44554d4d595f414444524553535f464f525f434845434b504f494e5446656553686172696e67436f6c6c6563746f723a3a5f616464436865636b706f696e743a20756e70726f636573736564416d6f756e742065786365656473203936206269747346656553686172696e67436f6c6c6563746f723a3a5f676574546f74616c566f6c756e7461727957656967687465645374616b653a20766573746564207374616b65206578636565647320746f74616c207374616b6546656553686172696e67436f6c6c6563746f723a3a77697468647261773a206c6f616e207752425443206e6f7420666f756e645f66726f6d436865636b706f696e7420706172616d206d757374206265203e207573657250726f636573736564436865636b706f696e747346656553686172696e67436f6c6c6563746f723a3a77697468647261773a207769746864726177616c206661696c65645361666545524332303a204552433230206f7065726174696f6e20646964206e6f74207375636365656446656553686172696e67436f6c6c6563746f723a3a7769746864726177466565733a20746f6b656e206973206e6f74206120636f6e747261637446656553686172696e67436f6c6c6563746f723a3a7769746864726177466565733a206e6f207262746320666f722061207769746864726177616ca265627a7a72315820bf6d7f9a255ff5388630cae55b201c22f3b5972c77aa9c70b9ca36da63bf72f264736f6c63430005110032",
    "linkReferences": {}
  },
  "methodIdentifiers": {
    "RBTC_DUMMY_ADDRESS_FOR_CHECKPOINT()": "7d0ce2b2",
    "addCheckPoint(address,uint256)": "368ddadc",
    "addWhitelistedConverterAddress(address)": "7061acf3",
    "getAccumulatedFees(address,address)": "3d67df6f",
    "getAccumulatedFeesForCheckpointsRange(address,address,uint256,uint32)": "c3f0eaee",
    "getAccumulatedRBTCFeeBalances(address)": "c3040447",
    "getFullAccumulatedFees(address,address,uint32)": "ccd7660d",
    "getNextPositiveUserCheckpoint(address,address,uint256,uint256)": "1345946c",
    "getWhitelistedConverterList()": "adcf21a7",
    "isOwner()": "8f32d59b",
    "lastFeeWithdrawalTime(address)": "f3bdba8f",
    "numTokenCheckpoints(address)": "20020208",
    "owner()": "8da5cb5b",
    "processedCheckpoints(address,address)": "7913b451",
    "protocol()": "8ce74426",
    "removeWhitelistedConverterAddress(address)": "a4955f2a",
    "setTotalTokenCheckpoints(address,uint256)": "882d507c",
    "setUserProcessedCheckpoints(address,address,uint256)": "d35bd723",
    "staking()": "4cf088d9",
    "testData()": "016cbd51",
    "tokenCheckpoints(address,uint256)": "70530017",
    "totalTokenCheckpoints(address)": "f2962cda",
    "transferOwnership(address)": "f2fde38b",
    "transferRBTC()": "22a6fd95",
    "transferTokens(address,uint96)": "abe979e1",
    "trueWithdraw(address,uint32,address)": "3f4afbca",
    "unprocessedAmount(address)": "8b6fdcba",
    "withdraw(address,uint32,address)": "a965b3a9",
    "withdrawFees(address[])": "a697b8c7",
    "withdrawFeesAMM(address[])": "7c8678ec",
    "withdrawRBTC(uint32,address)": "988ba593",
    "withdrawRBTCStartingFromCheckpoint(uint256,uint32,address)": "7104c4ff",
    "withdrawStartingFromCheckpoint(address,uint256,uint32,address)": "a9336519",
    "withdrawWRBTC(address,uint256)": "5c4d9b12"
  },
  "id": 131
}