{
  "abi": [
    {
      "inputs": [
        {
          "internalType": "contract IProtocol",
          "name": "_protocol",
          "type": "address"
        },
        {
          "internalType": "contract IStaking",
          "name": "_staking",
          "type": "address"
        }
      ],
      "payable": false,
      "stateMutability": "nonpayable",
      "type": "constructor"
    },
    {
      "anonymous": false,
      "inputs": [
        {
          "indexed": true,
          "internalType": "address",
          "name": "sender",
          "type": "address"
        },
        {
          "indexed": true,
          "internalType": "address",
          "name": "token",
          "type": "address"
        },
        {
          "indexed": false,
          "internalType": "uint256",
          "name": "amount",
          "type": "uint256"
        }
      ],
      "name": "CheckpointAdded",
      "type": "event"
    },
    {
      "anonymous": false,
      "inputs": [
        {
          "indexed": true,
          "internalType": "address",
          "name": "sender",
          "type": "address"
        },
        {
          "indexed": true,
          "internalType": "address",
          "name": "converter",
          "type": "address"
        },
        {
          "indexed": false,
          "internalType": "uint256",
          "name": "amount",
          "type": "uint256"
        }
      ],
      "name": "FeeAMMWithdrawn",
      "type": "event"
    },
    {
      "anonymous": false,
      "inputs": [
        {
          "indexed": true,
          "internalType": "address",
          "name": "sender",
          "type": "address"
        },
        {
          "indexed": false,
          "internalType": "uint256",
          "name": "amount",
          "type": "uint256"
        }
      ],
      "name": "FeeWithdrawnInRBTC",
      "type": "event"
    },
    {
      "anonymous": false,
      "inputs": [
        {
          "indexed": true,
          "internalType": "address",
          "name": "previousOwner",
          "type": "address"
        },
        {
          "indexed": true,
          "internalType": "address",
          "name": "newOwner",
          "type": "address"
        }
      ],
      "name": "OwnershipTransferred",
      "type": "event"
    },
    {
      "anonymous": false,
      "inputs": [
        {
          "indexed": true,
          "internalType": "address",
          "name": "sender",
          "type": "address"
        },
        {
          "indexed": true,
          "internalType": "address",
          "name": "receiver",
          "type": "address"
        },
        {
          "indexed": false,
          "internalType": "uint256",
          "name": "amount",
          "type": "uint256"
        }
      ],
      "name": "RBTCWithdrawn",
      "type": "event"
    },
    {
      "anonymous": false,
      "inputs": [
        {
          "indexed": true,
          "internalType": "address",
          "name": "sender",
          "type": "address"
        },
        {
          "indexed": true,
          "internalType": "address",
          "name": "token",
          "type": "address"
        },
        {
          "indexed": false,
          "internalType": "uint256",
          "name": "amount",
          "type": "uint256"
        }
      ],
      "name": "TokensTransferred",
      "type": "event"
    },
    {
      "anonymous": false,
      "inputs": [
        {
          "indexed": true,
          "internalType": "address",
          "name": "sender",
          "type": "address"
        },
        {
          "indexed": false,
          "internalType": "address",
          "name": "converter",
          "type": "address"
        }
      ],
      "name": "UnwhitelistedConverter",
      "type": "event"
    },
    {
      "anonymous": false,
      "inputs": [
        {
          "indexed": true,
          "internalType": "address",
          "name": "sender",
          "type": "address"
        },
        {
          "indexed": true,
          "internalType": "address",
          "name": "token",
          "type": "address"
        },
        {
          "indexed": false,
          "internalType": "uint256",
          "name": "prevProcessedCheckpoints",
          "type": "uint256"
        },
        {
          "indexed": false,
          "internalType": "uint256",
          "name": "newProcessedCheckpoints",
          "type": "uint256"
        }
      ],
      "name": "UserFeeProcessedNoWithdraw",
      "type": "event"
    },
    {
      "anonymous": false,
      "inputs": [
        {
          "indexed": true,
          "internalType": "address",
          "name": "sender",
          "type": "address"
        },
        {
          "indexed": true,
          "internalType": "address",
          "name": "receiver",
          "type": "address"
        },
        {
          "indexed": true,
          "internalType": "address",
          "name": "token",
          "type": "address"
        },
        {
          "indexed": false,
          "internalType": "uint256",
          "name": "amount",
          "type": "uint256"
        }
      ],
      "name": "UserFeeWithdrawn",
      "type": "event"
    },
    {
      "anonymous": false,
      "inputs": [
        {
          "indexed": true,
          "internalType": "address",
          "name": "sender",
          "type": "address"
        },
        {
          "indexed": false,
          "internalType": "address",
          "name": "converter",
          "type": "address"
        }
      ],
      "name": "WhitelistedConverter",
      "type": "event"
    },
    {
      "payable": true,
      "stateMutability": "payable",
      "type": "fallback"
    },
    {
      "constant": true,
      "inputs": [],
      "name": "RBTC_DUMMY_ADDRESS_FOR_CHECKPOINT",
      "outputs": [
        {
          "internalType": "address",
          "name": "",
          "type": "address"
        }
      ],
      "payable": false,
      "stateMutability": "view",
      "type": "function"
    },
    {
      "constant": false,
      "inputs": [
        {
          "internalType": "address",
          "name": "loanPoolToken",
          "type": "address"
        },
        {
          "internalType": "uint256",
          "name": "poolTokenAmount",
          "type": "uint256"
        }
      ],
      "name": "addCheckPoint",
      "outputs": [],
      "payable": false,
      "stateMutability": "nonpayable",
      "type": "function"
    },
    {
      "constant": false,
      "inputs": [
        {
          "internalType": "address",
          "name": "converterAddress",
          "type": "address"
        }
      ],
      "name": "addWhitelistedConverterAddress",
      "outputs": [],
      "payable": false,
      "stateMutability": "nonpayable",
      "type": "function"
    },
    {
      "constant": true,
      "inputs": [
        {
          "internalType": "address",
          "name": "_user",
          "type": "address"
        },
        {
          "internalType": "address",
          "name": "_token",
          "type": "address"
        }
      ],
      "name": "getAccumulatedFees",
      "outputs": [
        {
          "internalType": "uint256",
          "name": "",
          "type": "uint256"
        }
      ],
      "payable": false,
      "stateMutability": "view",
      "type": "function"
    },
    {
      "constant": true,
      "inputs": [
        {
          "internalType": "address",
          "name": "_user",
          "type": "address"
        },
        {
          "internalType": "address",
          "name": "_token",
          "type": "address"
        },
        {
          "internalType": "uint256",
          "name": "_startFrom",
          "type": "uint256"
        },
        {
          "internalType": "uint32",
          "name": "_maxCheckpoints",
          "type": "uint32"
        }
      ],
      "name": "getAccumulatedFeesForCheckpointsRange",
      "outputs": [
        {
          "internalType": "uint256",
          "name": "",
          "type": "uint256"
        }
      ],
      "payable": false,
      "stateMutability": "view",
      "type": "function"
    },
    {
      "constant": true,
      "inputs": [
        {
          "internalType": "address",
          "name": "_user",
          "type": "address"
        }
      ],
      "name": "getAccumulatedRBTCFeeBalances",
      "outputs": [
        {
          "internalType": "uint256",
          "name": "",
          "type": "uint256"
        }
      ],
      "payable": false,
      "stateMutability": "view",
      "type": "function"
    },
    {
      "constant": true,
      "inputs": [
        {
          "internalType": "address",
          "name": "_user",
          "type": "address"
        },
        {
          "internalType": "address",
          "name": "_token",
          "type": "address"
        },
        {
          "internalType": "uint32",
          "name": "_maxCheckpoints",
          "type": "uint32"
        }
      ],
      "name": "getFullAccumulatedFees",
      "outputs": [
        {
          "internalType": "uint256",
          "name": "amount",
          "type": "uint256"
        },
        {
          "internalType": "uint256",
          "name": "end",
          "type": "uint256"
        }
      ],
      "payable": false,
      "stateMutability": "view",
      "type": "function"
    },
    {
      "constant": true,
      "inputs": [
        {
          "internalType": "address",
          "name": "_user",
          "type": "address"
        },
        {
          "internalType": "address",
          "name": "_token",
          "type": "address"
        },
        {
          "internalType": "uint256",
          "name": "_startFrom",
          "type": "uint256"
        },
        {
          "internalType": "uint256",
          "name": "_maxCheckpoints",
          "type": "uint256"
        }
      ],
      "name": "getNextPositiveUserCheckpoint",
      "outputs": [
        {
          "internalType": "uint256",
          "name": "checkpointNum",
          "type": "uint256"
        },
        {
          "internalType": "bool",
          "name": "hasSkippedCheckpoints",
          "type": "bool"
        },
        {
          "internalType": "bool",
          "name": "hasFees",
          "type": "bool"
        }
      ],
      "payable": false,
      "stateMutability": "view",
      "type": "function"
    },
    {
      "constant": true,
      "inputs": [],
      "name": "getWhitelistedConverterList",
      "outputs": [
        {
          "internalType": "address[]",
          "name": "converterList",
          "type": "address[]"
        }
      ],
      "payable": false,
      "stateMutability": "view",
      "type": "function"
    },
    {
      "constant": true,
      "inputs": [
        {
          "internalType": "bytes4",
          "name": "",
          "type": "bytes4"
        }
      ],
      "name": "isFunctionExecuted",
      "outputs": [
        {
          "internalType": "bool",
          "name": "",
          "type": "bool"
        }
      ],
      "payable": false,
      "stateMutability": "view",
      "type": "function"
    },
    {
      "constant": true,
      "inputs": [],
      "name": "isOwner",
      "outputs": [
        {
          "internalType": "bool",
          "name": "",
          "type": "bool"
        }
      ],
      "payable": false,
      "stateMutability": "view",
      "type": "function"
    },
    {
      "constant": true,
      "inputs": [
        {
          "internalType": "address",
          "name": "",
          "type": "address"
        }
      ],
      "name": "lastFeeWithdrawalTime",
      "outputs": [
        {
          "internalType": "uint256",
          "name": "",
          "type": "uint256"
        }
      ],
      "payable": false,
      "stateMutability": "view",
      "type": "function"
    },
    {
      "constant": true,
      "inputs": [
        {
          "internalType": "address",
          "name": "_token",
          "type": "address"
        }
      ],
      "name": "numTokenCheckpoints",
      "outputs": [
        {
          "internalType": "uint256",
          "name": "",
          "type": "uint256"
        }
      ],
      "payable": false,
      "stateMutability": "view",
      "type": "function"
    },
    {
      "constant": true,
      "inputs": [],
      "name": "owner",
      "outputs": [
        {
          "internalType": "address",
          "name": "",
          "type": "address"
        }
      ],
      "payable": false,
      "stateMutability": "view",
      "type": "function"
    },
    {
      "constant": true,
      "inputs": [
        {
          "internalType": "address",
          "name": "",
          "type": "address"
        },
        {
          "internalType": "address",
          "name": "",
          "type": "address"
        }
      ],
      "name": "processedCheckpoints",
      "outputs": [
        {
          "internalType": "uint256",
          "name": "",
          "type": "uint256"
        }
      ],
      "payable": false,
      "stateMutability": "view",
      "type": "function"
    },
    {
      "constant": true,
      "inputs": [],
      "name": "protocol",
      "outputs": [
        {
          "internalType": "contract IProtocol",
          "name": "",
          "type": "address"
        }
      ],
      "payable": false,
      "stateMutability": "view",
      "type": "function"
    },
    {
      "constant": false,
      "inputs": [],
      "name": "recoverIncorrectAllocatedFees",
      "outputs": [],
      "payable": false,
      "stateMutability": "nonpayable",
      "type": "function"
    },
    {
      "constant": false,
      "inputs": [
        {
          "internalType": "address",
          "name": "converterAddress",
          "type": "address"
        }
      ],
      "name": "removeWhitelistedConverterAddress",
      "outputs": [],
      "payable": false,
      "stateMutability": "nonpayable",
      "type": "function"
    },
    {
      "constant": false,
      "inputs": [
        {
          "internalType": "address",
          "name": "_token",
          "type": "address"
        },
        {
          "internalType": "uint256",
          "name": "qty",
          "type": "uint256"
        }
      ],
      "name": "setTotalTokenCheckpoints",
      "outputs": [],
      "payable": false,
      "stateMutability": "nonpayable",
      "type": "function"
    },
    {
      "constant": false,
      "inputs": [
        {
          "internalType": "address",
          "name": "_user",
          "type": "address"
        },
        {
          "internalType": "address",
          "name": "_token",
          "type": "address"
        },
        {
          "internalType": "uint256",
          "name": "num",
          "type": "uint256"
        }
      ],
      "name": "setUserProcessedCheckpoints",
      "outputs": [],
      "payable": false,
      "stateMutability": "nonpayable",
      "type": "function"
    },
    {
      "constant": true,
      "inputs": [],
      "name": "staking",
      "outputs": [
        {
          "internalType": "contract IStaking",
          "name": "",
          "type": "address"
        }
      ],
      "payable": false,
      "stateMutability": "view",
      "type": "function"
    },
    {
      "constant": true,
      "inputs": [],
      "name": "testData",
      "outputs": [
        {
          "internalType": "address",
          "name": "loanPoolToken",
          "type": "address"
        },
        {
          "internalType": "uint32",
          "name": "maxCheckpoints",
          "type": "uint32"
        },
        {
          "internalType": "address",
          "name": "receiver",
          "type": "address"
        }
      ],
      "payable": false,
      "stateMutability": "view",
      "type": "function"
    },
    {
      "constant": true,
      "inputs": [
        {
          "internalType": "address",
          "name": "",
          "type": "address"
        },
        {
          "internalType": "uint256",
          "name": "",
          "type": "uint256"
        }
      ],
      "name": "tokenCheckpoints",
      "outputs": [
        {
          "internalType": "uint32",
          "name": "blockNumber",
          "type": "uint32"
        },
        {
          "internalType": "uint32",
          "name": "timestamp",
          "type": "uint32"
        },
        {
          "internalType": "uint96",
          "name": "totalWeightedStake",
          "type": "uint96"
        },
        {
          "internalType": "uint96",
          "name": "numTokens",
          "type": "uint96"
        }
      ],
      "payable": false,
      "stateMutability": "view",
      "type": "function"
    },
    {
      "constant": true,
      "inputs": [
        {
          "internalType": "address",
          "name": "",
          "type": "address"
        }
      ],
      "name": "totalTokenCheckpoints",
      "outputs": [
        {
          "internalType": "uint256",
          "name": "",
          "type": "uint256"
        }
      ],
      "payable": false,
      "stateMutability": "view",
      "type": "function"
    },
    {
      "constant": false,
      "inputs": [
        {
          "internalType": "address",
          "name": "newOwner",
          "type": "address"
        }
      ],
      "name": "transferOwnership",
      "outputs": [],
      "payable": false,
      "stateMutability": "nonpayable",
      "type": "function"
    },
    {
      "constant": false,
      "inputs": [],
      "name": "transferRBTC",
      "outputs": [],
      "payable": true,
      "stateMutability": "payable",
      "type": "function"
    },
    {
      "constant": false,
      "inputs": [
        {
          "internalType": "address",
          "name": "_token",
          "type": "address"
        },
        {
          "internalType": "uint96",
          "name": "_amount",
          "type": "uint96"
        }
      ],
      "name": "transferTokens",
      "outputs": [],
      "payable": false,
      "stateMutability": "nonpayable",
      "type": "function"
    },
    {
      "constant": false,
      "inputs": [
        {
          "internalType": "address",
          "name": "_token",
          "type": "address"
        },
        {
          "internalType": "uint32",
          "name": "_maxCheckpoints",
          "type": "uint32"
        },
        {
          "internalType": "address",
          "name": "_receiver",
          "type": "address"
        }
      ],
      "name": "trueWithdraw",
      "outputs": [],
      "payable": false,
      "stateMutability": "nonpayable",
      "type": "function"
    },
    {
      "constant": true,
      "inputs": [
        {
          "internalType": "address",
          "name": "",
          "type": "address"
        }
      ],
      "name": "unprocessedAmount",
      "outputs": [
        {
          "internalType": "uint96",
          "name": "",
          "type": "uint96"
        }
      ],
      "payable": false,
      "stateMutability": "view",
      "type": "function"
    },
    {
      "constant": false,
      "inputs": [
        {
          "internalType": "address",
          "name": "_token",
          "type": "address"
        },
        {
          "internalType": "uint32",
          "name": "_maxCheckpoints",
          "type": "uint32"
        },
        {
          "internalType": "address",
          "name": "_receiver",
          "type": "address"
        }
      ],
      "name": "withdraw",
      "outputs": [],
      "payable": false,
      "stateMutability": "nonpayable",
      "type": "function"
    },
    {
      "constant": false,
      "inputs": [
        {
          "internalType": "address[]",
          "name": "_tokens",
          "type": "address[]"
        }
      ],
      "name": "withdrawFees",
      "outputs": [],
      "payable": false,
      "stateMutability": "nonpayable",
      "type": "function"
    },
    {
      "constant": false,
      "inputs": [
        {
          "internalType": "address[]",
          "name": "_converters",
          "type": "address[]"
        }
      ],
      "name": "withdrawFeesAMM",
      "outputs": [],
      "payable": false,
      "stateMutability": "nonpayable",
      "type": "function"
    },
    {
      "constant": false,
      "inputs": [
        {
          "internalType": "uint32",
          "name": "_maxCheckpoints",
          "type": "uint32"
        },
        {
          "internalType": "address",
          "name": "_receiver",
          "type": "address"
        }
      ],
      "name": "withdrawRBTC",
      "outputs": [],
      "payable": false,
      "stateMutability": "nonpayable",
      "type": "function"
    },
    {
      "constant": false,
      "inputs": [
        {
          "internalType": "uint256",
          "name": "_fromCheckpoint",
          "type": "uint256"
        },
        {
          "internalType": "uint32",
          "name": "_maxCheckpoints",
          "type": "uint32"
        },
        {
          "internalType": "address",
          "name": "_receiver",
          "type": "address"
        }
      ],
      "name": "withdrawRBTCStartingFromCheckpoint",
      "outputs": [],
      "payable": false,
      "stateMutability": "nonpayable",
      "type": "function"
    },
    {
      "constant": false,
      "inputs": [
        {
          "internalType": "address",
          "name": "_token",
          "type": "address"
        },
        {
          "internalType": "uint256",
          "name": "_fromCheckpoint",
          "type": "uint256"
        },
        {
          "internalType": "uint32",
          "name": "_maxCheckpoints",
          "type": "uint32"
        },
        {
          "internalType": "address",
          "name": "_receiver",
          "type": "address"
        }
      ],
      "name": "withdrawStartingFromCheckpoint",
      "outputs": [],
      "payable": false,
      "stateMutability": "nonpayable",
      "type": "function"
    },
    {
      "constant": false,
      "inputs": [
        {
          "internalType": "address",
          "name": "receiver",
          "type": "address"
        },
        {
          "internalType": "uint256",
          "name": "wrbtcAmount",
          "type": "uint256"
        }
      ],
      "name": "withdrawWRBTC",
      "outputs": [],
      "payable": false,
      "stateMutability": "nonpayable",
      "type": "function"
    }
  ],
  "bytecode": {
    "object": "0x608060405260016008553480156200001657600080fd5b5060405162004e1238038062004e12833981810160405260408110156200003c57600080fd5b50805160209091015160006200005a6001600160e01b03620000d616565b600080546001600160a01b0319166001600160a01b0383169081178255604051929350917f8be0079c531659141344cd1fd0a4f28419497f9722a3daafe3b4186f6b6457e0908290a350600180546001600160a01b039384166001600160a01b03199182161790915560028054929093169116179055620000da565b3390565b614d2880620000ea6000396000f3fe60806040526004361061020f5760003560e01c80638da5cb5b11610118578063adcf21a7116100a0578063d35bd7231161006f578063d35bd72314610a1a578063d93b69ab14610a5d578063f2962cda14610a91578063f2fde38b14610ac4578063f3bdba8f14610af75761020f565b8063adcf21a7146108cf578063c304044714610934578063c3f0eaee14610967578063ccd7660d146109b75761020f565b8063a697b8c7116100e7578063a697b8c714610767578063a9336519146107e2578063a965b3a91461082f578063aa5036e914610878578063abe979e11461088d5761020f565b80638da5cb5b146106b75780638f32d59b146106cc578063988ba593146106f5578063a4955f2a146107345761020f565b8063705300171161019b5780637c8678ec1161016a5780637c8678ec146105575780637d0ce2b214610605578063882d507c1461061a5780638b6fdcba146106535780638ce74426146106a25761020f565b806370530017146104335780637061acf3146104a45780637104c4ff146104d75780637913b4511461051c5761020f565b8063368ddadc116101e2578063368ddadc1461030c5780633d67df6f146103455780633f4afbca146103805780634cf088d9146103c95780635c4d9b12146103fa5761020f565b8063016cbd51146102115780631345946c1461025657806320020208146102bf57806322a6fd9514610304575b005b34801561021d57600080fd5b50610226610b2a565b604080516001600160a01b03948516815263ffffffff909316602084015292168183015290519081900360600190f35b34801561026257600080fd5b5061029f6004803603608081101561027957600080fd5b506001600160a01b03813581169160208101359091169060408101359060600135610b4e565b604080519384529115156020840152151582820152519081900360600190f35b3480156102cb57600080fd5b506102f2600480360360208110156102e257600080fd5b50356001600160a01b0316610e2a565b60408051918252519081900360200190f35b61020f610e45565b34801561031857600080fd5b5061020f6004803603604081101561032f57600080fd5b506001600160a01b038135169060200135610ef2565b34801561035157600080fd5b506102f26004803603604081101561036857600080fd5b506001600160a01b0381358116916020013516610f27565b34801561038c57600080fd5b5061020f600480360360608110156103a357600080fd5b506001600160a01b03813581169163ffffffff6020820135169160409091013516610f42565b3480156103d557600080fd5b506103de610f4d565b604080516001600160a01b039092168252519081900360200190f35b34801561040657600080fd5b5061020f6004803603604081101561041d57600080fd5b506001600160a01b038135169060200135610f5c565b34801561043f57600080fd5b5061046c6004803603604081101561045657600080fd5b506001600160a01b0381351690602001356110fb565b6040805163ffffffff95861681529390941660208401526001600160601b039182168385015216606082015290519081900360800190f35b3480156104b057600080fd5b5061020f600480360360208110156104c757600080fd5b50356001600160a01b0316611146565b3480156104e357600080fd5b5061020f600480360360608110156104fa57600080fd5b50803590602081013563ffffffff1690604001356001600160a01b031661123c565b34801561052857600080fd5b506102f26004803603604081101561053f57600080fd5b506001600160a01b03813581169160200135166116e9565b34801561056357600080fd5b5061020f6004803603602081101561057a57600080fd5b810190602081018135600160201b81111561059457600080fd5b8201836020820111156105a657600080fd5b803590602001918460208302840111600160201b831117156105c757600080fd5b919080806020026020016040519081016040528093929190818152602001838360200280828437600092019190915250929550611706945050505050565b34801561061157600080fd5b506103de611975565b34801561062657600080fd5b5061020f6004803603604081101561063d57600080fd5b506001600160a01b038135169060200135611991565b34801561065f57600080fd5b506106866004803603602081101561067657600080fd5b50356001600160a01b03166119ad565b604080516001600160601b039092168252519081900360200190f35b3480156106ae57600080fd5b506103de6119c8565b3480156106c357600080fd5b506103de6119d7565b3480156106d857600080fd5b506106e16119e6565b604080519115158252519081900360200190f35b34801561070157600080fd5b5061020f6004803603604081101561071857600080fd5b50803563ffffffff1690602001356001600160a01b0316611a0a565b34801561074057600080fd5b5061020f6004803603602081101561075757600080fd5b50356001600160a01b0316611a68565b34801561077357600080fd5b5061020f6004803603602081101561078a57600080fd5b810190602081018135600160201b8111156107a457600080fd5b8201836020820111156107b657600080fd5b803590602001918460208302840111600160201b831117156107d757600080fd5b509092509050611b04565b3480156107ee57600080fd5b5061020f6004803603608081101561080557600080fd5b506001600160a01b03813581169160208101359163ffffffff604083013516916060013516611d8c565b34801561083b57600080fd5b5061020f6004803603606081101561085257600080fd5b506001600160a01b03813581169163ffffffff6020820135169160409091013516612231565b34801561088457600080fd5b5061020f61229b565b34801561089957600080fd5b5061020f600480360360408110156108b057600080fd5b5080356001600160a01b031690602001356001600160601b03166124aa565b3480156108db57600080fd5b506108e4612764565b60408051602080825283518183015283519192839290830191858101910280838360005b83811015610920578181015183820152602001610908565b505050509050019250505060405180910390f35b34801561094057600080fd5b506102f26004803603602081101561095757600080fd5b50356001600160a01b0316612775565b34801561097357600080fd5b506102f26004803603608081101561098a57600080fd5b5080356001600160a01b03908116916020810135909116906040810135906060013563ffffffff166128d7565b3480156109c357600080fd5b50610a01600480360360608110156109da57600080fd5b5080356001600160a01b03908116916020810135909116906040013563ffffffff166128f1565b6040805192835260208301919091528051918290030190f35b348015610a2657600080fd5b5061020f60048036036060811015610a3d57600080fd5b506001600160a01b0381358116916020810135909116906040013561290d565b348015610a6957600080fd5b506106e160048036036020811015610a8057600080fd5b50356001600160e01b031916612939565b348015610a9d57600080fd5b506102f260048036036020811015610ab457600080fd5b50356001600160a01b031661294e565b348015610ad057600080fd5b5061020f60048036036020811015610ae757600080fd5b50356001600160a01b0316612960565b348015610b0357600080fd5b506102f260048036036020811015610b1a57600080fd5b50356001600160a01b03166129b4565b600c54600d546001600160a01b0380831692600160a01b900463ffffffff16911683565b6002546040805163ca6860df60e01b81526001600160a01b03878116600483015291516000938493849391169163ca6860df91602480820192602092909190829003018186803b158015610ba157600080fd5b505afa158015610bb5573d6000803e3d6000fd5b505050506040513d6020811015610bcb57600080fd5b505115610be057506000915081905080610e20565b60008411610c35576040805162461bcd60e51b815260206004820152601b60248201527f5f6d6178436865636b706f696e7473206d757374206265203e20300000000000604482015290519081900360640190fd5b6001600160a01b03808716600081815260046020908152604080832054948c1683526005825280832093835292905220548181101580610c73575081155b15610c875750925060009150819050610e20565b6000818811610c965781610c98565b875b90506000610cac828963ffffffff6129c616565b9050838110610cb85750825b815b81811015610e12576000600360008d6001600160a01b03166001600160a01b03168152602001908152602001600020600083815260200190815260200160002090506000600260009054906101000a90046001600160a01b03166001600160a01b03166337e6b1c18f60018560000160009054906101000a900463ffffffff16038560000160049054906101000a900463ffffffff166040518463ffffffff1660e01b815260040180846001600160a01b03166001600160a01b031681526020018363ffffffff1681526020018263ffffffff168152602001935050505060206040518083038186803b158015610db057600080fd5b505afa158015610dc4573d6000803e3d6000fd5b505050506040513d6020811015610dda57600080fd5b505190506001600160601b03811615610e085782600101868411600199509950995050505050505050610e20565b5050600101610cba565b509550508411925060009150505b9450945094915050565b6001600160a01b031660009081526004602052604090205490565b346001600160601b038116610e8b5760405162461bcd60e51b815260040180806020018281038252603081526020018061484d6030913960400191505060405180910390fd5b610eae6040518080614ab360219139604051908190036021019020905082612a27565b604080516001600160601b0383168152905160009133917f1b89874203ff7f0bba87c969ada3f32fda22ed38a6706d35199d21280c7811b19181900360200190a350565b6000610f1682604051806080016040528060498152602001614a6a60499139612b6b565b9050610f228382612a27565b505050565b600080610f378484600080612c05565b509150505b92915050565b610f22838383612f68565b6002546001600160a01b031681565b610f646119e6565b610fa4576040805162461bcd60e51b815260206004820152600c60248201526b1d5b985d5d1a1bdc9a5e995960a21b604482015290519081900360640190fd5b6001546040805163afe8400960e01b815290516000926001600160a01b03169163afe84009916004808301926020929190829003018186803b158015610fe957600080fd5b505afa158015610ffd573d6000803e3d6000fd5b505050506040513d602081101561101357600080fd5b5051604080516370a0823160e01b815230600482015290519192506000916001600160a01b038416916370a08231916024808301926020929190829003018186803b15801561106157600080fd5b505afa158015611075573d6000803e3d6000fd5b505050506040513d602081101561108b57600080fd5b50519050808311156110db576040805162461bcd60e51b8152602060048201526014602482015273496e73756666696369656e742062616c616e636560601b604482015290519081900360640190fd5b6110f56001600160a01b038316858563ffffffff612fc816565b50505050565b600360209081526000928352604080842090915290825290205463ffffffff80821691600160201b8104909116906001600160601b03600160401b8204811691600160a01b90041684565b61114e6119e6565b61118e576040805162461bcd60e51b815260206004820152600c60248201526b1d5b985d5d1a1bdc9a5e995960a21b604482015290519081900360640190fd5b6111978161301a565b6111e8576040805162461bcd60e51b815260206004820152601a60248201527f4e6f6e20636f6e7472616374206164647265737320676976656e000000000000604482015290519081900360640190fd5b6111f960098263ffffffff61305616565b50604080516001600160a01b0383168152905133917fe7902ff5b883e069d72db554511b4f7122428c996decf30682b312a66879668a919081900360200190a250565b82336040518080614ab3602191396040519081900360210190209050600183116112975760405162461bcd60e51b81526004018080602001828103825260218152602001806149d56021913960400191505060405180910390fd5b6001600160a01b0380831660009081526005602090815260408083209385168352929052205460001984019084116113005760405162461bcd60e51b8152600401808060200182810382526038815260200180614bed6038913960400191505060405180910390fd5b6001600160a01b0382166000908152600460205260409020548411156113575760405162461bcd60e51b81526004018080602001828103825260328152602001806146a26032913960400191505060405180910390fd5b61135f6145b2565b506001600160a01b03808316600090815260036020908152604080832060001980870185529083528184208251608081018452905463ffffffff808216808452600160201b830482168488018190526001600160601b03600160401b8504811686890152600160a01b909404909316606085015260025486516337e6b1c160e01b81528d8b16600482015291909501909116602482015260448101919091529251909591909116926337e6b1c19260648082019391829003018186803b15801561142857600080fd5b505afa15801561143c573d6000803e3d6000fd5b505050506040513d602081101561145257600080fd5b505190506001600160601b0381161561149c5760405162461bcd60e51b815260040180806020018281038252603981526020018061487d6039913960400191505060405180910390fd5b6114a46145b2565b506001600160a01b0380851660009081526003602090815260408083208784528252918290208251608081018452905463ffffffff808216808452600160201b830482168486018190526001600160601b03600160401b8504811686890152600160a01b909404909316606085015260025486516337e6b1c160e01b81528d89166004820152600019909201909216602482015260448101929092529351919493909316926337e6b1c1926064808301939192829003018186803b15801561156b57600080fd5b505afa15801561157f573d6000803e3d6000fd5b505050506040513d602081101561159557600080fd5b505191506001600160601b0382166115de5760405162461bcd60e51b81526004018080602001828103825260358152602001806148186035913960400191505060405180910390fd5b600160085414611624576040805162461bcd60e51b815260206004820152600c60248201526b1b9bdb9499595b9d1c985b9d60a21b604482015290519081900360640190fd5b6002600855600061163c8b600163ffffffff6130b616565b33600090815260056020526040808220905192935091806021614ab3823960408051918290036021019091206001600160a01b0316835260208301939093525001600020548111156116cd57336000908152600560205260408082209051839290806021614ab3823960408051918290036021019091206001600160a01b0316835260208301939093525001600020555b6116d78a8a6130f8565b50506001600855505050505050505050565b600560209081526000928352604080842090915290825290205481565b6001546040805163afe8400960e01b815290516000926001600160a01b03169163afe84009916004808301926020929190829003018186803b15801561174b57600080fd5b505afa15801561175f573d6000803e3d6000fd5b505050506040513d602081101561177557600080fd5b505190506117828261347d565b6000805b835181101561194257600084828151811061179d57fe5b60200260200101516001600160a01b031663164e68de306040518263ffffffff1660e01b815260040180826001600160a01b03166001600160a01b03168152602001915050602060405180830381600087803b1580156117fc57600080fd5b505af1158015611810573d6000803e3d6000fd5b505050506040513d602081101561182657600080fd5b50519050801561193957836001600160a01b0316632e1a7d4d826040518263ffffffff1660e01b815260040180828152602001915050600060405180830381600087803b15801561187657600080fd5b505af115801561188a573d6000803e3d6000fd5b5050505060006118b28260405180608001604052806048815260200161479b60489139612b6b565b90506118d784826040518060800160405280604e815260200161474d604e91396134fd565b93508583815181106118e557fe5b60200260200101516001600160a01b0316336001600160a01b03167fd915b7f9d8d5ce11af1f5961b830d7d7c01a750927706eb0bcbf80a8827d76cc846040518082815260200191505060405180910390a3505b50600101611786565b506001600160601b03811615610f2257610f226040518080614ab360219139604051908190036021019020905082612a27565b604051806021614ab38239604051908190036021019020905081565b6001600160a01b03909116600090815260046020526040902055565b6007602052600090815260409020546001600160601b031681565b6001546001600160a01b031681565b6000546001600160a01b031690565b600080546001600160a01b03166119fb613567565b6001600160a01b031614905090565b600160085414611a50576040805162461bcd60e51b815260206004820152600c60248201526b1b9bdb9499595b9d1c985b9d60a21b604482015290519081900360640190fd5b6002600855611a5f82826130f8565b50506001600855565b611a706119e6565b611ab0576040805162461bcd60e51b815260206004820152600c60248201526b1d5b985d5d1a1bdc9a5e995960a21b604482015290519081900360640190fd5b611ac160098263ffffffff61356b16565b50604080516001600160a01b0383168152905133917f7b8bddb144d9ebd8a4fa3f47acac7c75b34ade822d5e528a442825fa9100ffdb919081900360200190a250565b60005b81811015611b7657611b33838383818110611b1e57fe5b905060200201356001600160a01b031661301a565b611b6e5760405162461bcd60e51b815260040180806020018281038252603a815260200180614c7f603a913960400191505060405180910390fd5b600101611b07565b5060015460408051630f7e7aab60e41b8152306024820181905260048201928352604482018590526000936001600160a01b03169263f7e7aab0928792879290918190606401856020860280828437600081840152601f19601f820116905080830192505050945050505050602060405180830381600087803b158015611bfc57600080fd5b505af1158015611c10573d6000803e3d6000fd5b505050506040513d6020811015611c2657600080fd5b50516001546040805163afe8400960e01b815290519293506000926001600160a01b039092169163afe8400991600480820192602092909190829003018186803b158015611c7357600080fd5b505afa158015611c87573d6000803e3d6000fd5b505050506040513d6020811015611c9d57600080fd5b505190508115611d5057806001600160a01b0316632e1a7d4d836040518263ffffffff1660e01b815260040180828152602001915050600060405180830381600087803b158015611ced57600080fd5b505af1158015611d01573d6000803e3d6000fd5b505050506000611d298360405180608001604052806045815260200161470860459139612b6b565b9050611d4e6040518080614ab360219139604051908190036021019020905082612a27565b505b60408051838152905133917fea588ee3c471f3c47a77b5d118007e77b1d74e5b310a8805df274aa067d2e8a6919081900360200190a250505050565b82338560018311611dce5760405162461bcd60e51b81526004018080602001828103825260218152602001806149d56021913960400191505060405180910390fd5b6001600160a01b038083166000908152600560209081526040808320938516835292905220546000198401908411611e375760405162461bcd60e51b8152600401808060200182810382526038815260200180614bed6038913960400191505060405180910390fd5b6001600160a01b038216600090815260046020526040902054841115611e8e5760405162461bcd60e51b81526004018080602001828103825260328152602001806146a26032913960400191505060405180910390fd5b611e966145b2565b506001600160a01b03808316600090815260036020908152604080832060001980870185529083528184208251608081018452905463ffffffff808216808452600160201b830482168488018190526001600160601b03600160401b8504811686890152600160a01b909404909316606085015260025486516337e6b1c160e01b81528d8b16600482015291909501909116602482015260448101919091529251909591909116926337e6b1c19260648082019391829003018186803b158015611f5f57600080fd5b505afa158015611f73573d6000803e3d6000fd5b505050506040513d6020811015611f8957600080fd5b505190506001600160601b03811615611fd35760405162461bcd60e51b815260040180806020018281038252603981526020018061487d6039913960400191505060405180910390fd5b611fdb6145b2565b506001600160a01b0380851660009081526003602090815260408083208784528252918290208251608081018452905463ffffffff808216808452600160201b830482168486018190526001600160601b03600160401b8504811686890152600160a01b909404909316606085015260025486516337e6b1c160e01b81528d89166004820152600019909201909216602482015260448101929092529351919493909316926337e6b1c1926064808301939192829003018186803b1580156120a257600080fd5b505afa1580156120b6573d6000803e3d6000fd5b505050506040513d60208110156120cc57600080fd5b505191506001600160601b0382166121155760405162461bcd60e51b81526004018080602001828103825260358152602001806148186035913960400191505060405180910390fd5b60016008541461215b576040805162461bcd60e51b815260206004820152600c60248201526b1b9bdb9499595b9d1c985b9d60a21b604482015290519081900360640190fd5b600260085560006121738b600163ffffffff6130b616565b905060056000336001600160a01b03166001600160a01b0316815260200190815260200160002060008d6001600160a01b03166001600160a01b0316815260200190815260200160002054811115612213578060056000336001600160a01b03166001600160a01b0316815260200190815260200160002060008e6001600160a01b03166001600160a01b03168152602001908152602001600020819055505b61221e8c8b8b613676565b5050600160085550505050505050505050565b604080516060810182526001600160a01b0394851680825263ffffffff9490941660208201819052929094169301839052600c80546001600160a01b031990811690931763ffffffff60a01b1916600160a01b909202919091179055600d80549091169091179055565b63aa5036e960e01b6000819052600b6020527fa02e544f58192f4f5f2c12a2ad94a37e02b3cc3232372e81b417611b94ccf0e85460ff161561230e5760405162461bcd60e51b81526004018080602001828103825260358152602001806147e36035913960400191505060405180910390fd5b6123166119e6565b612356576040805162461bcd60e51b815260206004820152600c60248201526b1d5b985d5d1a1bdc9a5e995960a21b604482015290519081900360640190fd5b670c320cbdb1f8e260690387108582e4ba67e98069015437959820bab0d48073db107fa69e33f05180a4c2ce9c2e7cb481645c2d73efc78fc7d48b64958315949279ba181c2114abbd60006123a96119d7565b6040516001600160a01b0391909116908790600081818185875af1925050503d80600081146123f4576040519150601f19603f3d011682016040523d82523d6000602084013e6123f9565b606091505b50509050806124395760405162461bcd60e51b815260040180806020018281038252604a815260200180614b70604a913960600191505060405180910390fd5b61245b6124446119d7565b6001600160a01b038516908763ffffffff612fc816565b61247d6124666119d7565b6001600160a01b038416908663ffffffff612fc816565b5050506001600160e01b03199093166000908152600b60205260409020805460ff19166001179055505050565b6001600160a01b0382166124ef5760405162461bcd60e51b815260040180806020018281038252603481526020018061460d6034913960400191505060405180910390fd5b6000816001600160601b0316116125375760405162461bcd60e51b81526004018080602001828103825260338152602001806145da6033913960400191505060405180910390fd5b604080516323b872dd60e01b81523360048201523060248201526001600160601b038316604482015290516000916001600160a01b038516916323b872dd9160648082019260209290919082900301818787803b15801561259757600080fd5b505af11580156125ab573d6000803e3d6000fd5b505050506040513d60208110156125c157600080fd5b50519050806126015760405162461bcd60e51b815260040180806020018281038252602e815260200180614a3c602e913960400191505060405180910390fd5b6001546040805163afe8400960e01b815290516000926001600160a01b03169163afe84009916004808301926020929190829003018186803b15801561264657600080fd5b505afa15801561265a573d6000803e3d6000fd5b505050506040513d602081101561267057600080fd5b505190506001600160a01b03848116908216141561270b57806001600160a01b0316632e1a7d4d846040518263ffffffff1660e01b815260040180826001600160601b03168152602001915050600060405180830381600087803b1580156126d757600080fd5b505af11580156126eb573d6000803e3d6000fd5b505050506040518080614ab3602191396040519081900360210190209450505b6127158484612a27565b604080516001600160601b038516815290516001600160a01b0386169133917f1b89874203ff7f0bba87c969ada3f32fda22ed38a6706d35199d21280c7811b19181900360200190a350505050565b60606127706009613a37565b905090565b600080600080612786856000613add565b5050509250925092506000600160009054906101000a90046001600160a01b03166001600160a01b031663afe840096040518163ffffffff1660e01b815260040160206040518083038186803b1580156127df57600080fd5b505afa1580156127f3573d6000803e3d6000fd5b505050506040513d602081101561280957600080fd5b50519050600061281882613bcf565b905060006128a9670de0b6b3a764000061289d846001600160a01b0316637ff9b5966040518163ffffffff1660e01b815260040160206040518083038186803b15801561286457600080fd5b505afa158015612878573d6000803e3d6000fd5b505050506040513d602081101561288e57600080fd5b5051879063ffffffff613c9116565b9063ffffffff613cea16565b90506128cb816128bf888863ffffffff6129c616565b9063ffffffff6129c616565b98975050505050505050565b6000806128e686868686612c05565b509695505050505050565b6000806129018585600086612c05565b90969095509350505050565b6001600160a01b0392831660009081526005602090815260408083209490951682529290925291902055565b600b6020526000908152604090205460ff1681565b60046020526000908152604090205481565b6129686119e6565b6129a8576040805162461bcd60e51b815260206004820152600c60248201526b1d5b985d5d1a1bdc9a5e995960a21b604482015290519081900360640190fd5b6129b181613d2c565b50565b60066020526000908152604090205481565b600082820183811015612a20576040805162461bcd60e51b815260206004820152601b60248201527f536166654d6174683a206164646974696f6e206f766572666c6f770000000000604482015290519081900360640190fd5b9392505050565b6001600160a01b0382166000908152600660205260409020546202a300429190910310612ae0576001600160a01b03821660009081526006602090815260408083204290556007825280832054815160608101909252603b808352612aa3936001600160601b03909216928692909190614938908301396134fd565b6001600160a01b038416600090815260076020526040902080546bffffffffffffffffffffffff191690559050612ada8382613dcc565b50612b67565b6001600160a01b038216600090815260076020908152604091829020548251608081019093526046808452612b2b936001600160601b039092169285929190614ad4908301396134fd565b6001600160a01b038316600090815260076020526040902080546bffffffffffffffffffffffff19166001600160601b03929092169190911790555b5050565b600081600160601b8410612bfd5760405162461bcd60e51b81526004018080602001828103825283818151815260200191508051906020019080838360005b83811015612bc2578181015183820152602001612baa565b50505050905090810190601f168015612bef5780820380516001836020036101000a031916815260200191505b509250505060405180910390fd5b509192915050565b6002546040805163ca6860df60e01b81526001600160a01b03878116600483015291516000938493169163ca6860df916024808301926020929190829003018186803b158015612c5457600080fd5b505afa158015612c68573d6000803e3d6000fd5b505050506040513d6020811015612c7e57600080fd5b505115612c9057506000905080612f5f565b6001600160a01b03808716600090815260056020908152604080832093891683529290529081205490818611612cc65781612cc8565b855b905060008563ffffffff1611612cf6576001600160a01b038716600090815260046020526040902054612d01565b612d0181888761406f565b6001600160a01b0388166000908152600460205260409020549093508110612d2f575060009250612f5f9050565b600080825b85811015612f5957612d446145b2565b506001600160a01b03808b16600090815260036020908152604080832085845282528083208151608081018352905463ffffffff8082168352600160201b8204168285018190526001600160601b03600160401b8304811684860152600160a01b909204909116606083015260025483516372ec979560e01b815260048101929092529251919592909216926372ec97959260248082019391829003018186803b158015612df157600080fd5b505afa158015612e05573d6000803e3d6000fd5b505050506040513d6020811015612e1b57600080fd5b50519050600085821415612e30575083612ef9565b600260009054906101000a90046001600160a01b03166001600160a01b03166337e6b1c18f600186600001510386602001516040518463ffffffff1660e01b815260040180846001600160a01b03166001600160a01b031681526020018363ffffffff1681526020018263ffffffff168152602001935050505060206040518083038186803b158015612ec257600080fd5b505afa158015612ed6573d6000803e3d6000fd5b505050506040513d6020811015612eec57600080fd5b5051919550909350849050835b6000612f3584604001516001600160601b031661289d846001600160601b031687606001516001600160601b0316613c9190919063ffffffff16565b9050612f478b8263ffffffff6129c616565b9a505060019093019250612d34915050565b50505050505b94509492505050565b600160085414612fae576040805162461bcd60e51b815260206004820152600c60248201526b1b9bdb9499595b9d1c985b9d60a21b604482015290519081900360640190fd5b6002600855612fbe838383613676565b5050600160085550565b604080516001600160a01b038416602482015260448082018490528251808303909101815260649091019091526020810180516001600160e01b031663a9059cbb60e01b179052610f22908490614130565b6000813f7fc5d2460186f7233c927e7db2dcc703c0e500b653ca82273b7bfad8045d85a47081811480159061304e57508115155b949350505050565b600061306283836142e8565b6130ae5750600182810180548083018083556000928352602080842090920180546001600160a01b0319166001600160a01b038716908117909155835290859052604090912055610f3c565b506000610f3c565b6000612a2083836040518060400160405280601e81526020017f536166654d6174683a207375627472616374696f6e206f766572666c6f770000815250614306565b6000806000806000806000803390506000600160009054906101000a90046001600160a01b03166001600160a01b031663afe840096040518163ffffffff1660e01b815260040160206040518083038186803b15801561315757600080fd5b505afa15801561316b573d6000803e3d6000fd5b505050506040513d602081101561318157600080fd5b50519050600061319082613bcf565b90506001600160a01b038b166131a457339a505b6131ae838d613add565b939e50939c50909a50985090965094508815613212576001600160a01b0383166000908152600560205260408082209051899290806021614ab3823960408051918290036021019091206001600160a01b0316835260208301939093525001600020555b8915613296576001600160a01b038084166000908152600560209081526040808320938616808452939091528082208990558051632e1a7d4d60e01b8152600481018e90529051632e1a7d4d9260248084019391929182900301818387803b15801561327d57600080fd5b505af1158015613291573d6000803e3d6000fd5b505050505b871561333b576001600160a01b0380841660009081526005602090815260408083209385168084529382528083208990558051630141abc160e21b8152306004820152602481018d9052604481018490529051630506af0493606480840194938390030190829087803b15801561330c57600080fd5b505af1158015613320573d6000803e3d6000fd5b505050506040513d602081101561333657600080fd5b505193505b6000613351856128bf8c8e63ffffffff6129c616565b9050600081116133925760405162461bcd60e51b815260040180806020018281038252603b815260200180614cb9603b913960400191505060405180910390fd5b6040516000906001600160a01b038e169083908381818185875af1925050503d80600081146133dd576040519150601f19603f3d011682016040523d82523d6000602084013e6133e2565b606091505b50509050806134225760405162461bcd60e51b81526004018080602001828103825260348152602001806146d46034913960400191505060405180910390fd5b8c6001600160a01b0316856001600160a01b03167fba7771603337d6821ea291d76396cf6aa3ea405141b033d8415280139c980c1d846040518082815260200191505060405180910390a35050505050505050505050505050565b60005b8151811015612b67576134b082828151811061349857fe5b602002602001015160096142e890919063ffffffff16565b6134f5576040805162461bcd60e51b815260206004820152601160248201527024b73b30b634b21021b7b73b32b93a32b960791b604482015290519081900360640190fd5b600101613480565b6000838301826001600160601b03808716908316101561355e5760405162461bcd60e51b8152602060048201818152835160248401528351909283926044909101919085019080838360008315612bc2578181015183820152602001612baa565b50949350505050565b3390565b600061357783836142e8565b156130ae576001600160a01b038216600090815260208490526040902054600184015460001991820191018082146136225760008560010182815481106135ba57fe5b6000918252602090912001546001870180546001600160a01b0390921692508291859081106135e557fe5b600091825260208083209190910180546001600160a01b0319166001600160a01b0394851617905592909116815290869052604090206001830190555b6001600160a01b0384166000908152602086905260408120556001850180548061364857fe5b600082815260209020810160001990810180546001600160a01b03191690550190555060019150610f3c9050565b60008263ffffffff16116136bb5760405162461bcd60e51b81526004018080602001828103825260418152602001806149946041913960600191505060405180910390fd5b6001546040805163afe8400960e01b815290516000926001600160a01b03169163afe84009916004808301926020929190829003018186803b15801561370057600080fd5b505afa158015613714573d6000803e3d6000fd5b505050506040513d602081101561372a57600080fd5b50519050600061373982613bcf565b9050336001600160a01b03841661374e573393505b6001600160a01b038082166000908152600560209081526040808320938a168352929052908120549080613784848a858b612c05565b91509150816000141561384e578281111561381757604080518481526020810183905281516001600160a01b038c169233927fd3d8b561a0f93295b4ea7e2b930d36bd7f1a38774547bf98fb66540f588217b2929081900390910190a36001600160a01b039384166000908152600560209081526040808320968c168352959052939093209290925550610f2292505050565b60405162461bcd60e51b815260040180806020018281038252603b815260200180614641603b913960400191505060405180910390fd5b6001600160a01b0380851660009081526005602090815260408083208d8516808552925290912083905590861614156139105760408051630141abc160e21b81526001600160a01b038981166004830152602482018590526000604483018190529251908c1692630506af0492606480820193602093909283900390910190829087803b1580156138de57600080fd5b505af11580156138f2573d6000803e3d6000fd5b505050506040513d602081101561390857600080fd5b506139d79050565b886001600160a01b031663a9059cbb88846040518363ffffffff1660e01b815260040180836001600160a01b03166001600160a01b0316815260200182815260200192505050602060405180830381600087803b15801561397057600080fd5b505af1158015613984573d6000803e3d6000fd5b505050506040513d602081101561399a57600080fd5b50516139d75760405162461bcd60e51b8152600401808060200182810382526030815260200180614c256030913960400191505060405180910390fd5b886001600160a01b0316876001600160a01b0316336001600160a01b03167fe635adc5d0c2d7b47215ce5ed57a79c3db183a1ef414ccfc43f24f19178a630f856040518082815260200191505060405180910390a4505050505050505050565b6060808260010180549050604051908082528060200260200182016040528015613a6b578160200160208202803883390190505b50905060005b6001840154811015613ad657836001018181548110613a8c57fe5b9060005260206000200160009054906101000a90046001600160a01b0316828281518110613ab657fe5b6001600160a01b0390921660209283029190910190910152600101613a71565b5092915050565b6000806000806000806000600160009054906101000a90046001600160a01b03166001600160a01b031663afe840096040518163ffffffff1660e01b815260040160206040518083038186803b158015613b3657600080fd5b505afa158015613b4a573d6000803e3d6000fd5b505050506040513d6020811015613b6057600080fd5b505190506000613b6f82613bcf565b9050613b978a6040518080614ab360219139604051908190036021019020905060008c612c05565b9098509450613ba98a8360008c612c05565b9097509350613bbb8a8260008c612c05565b809450819750505050509295509295509295565b600154604080516310c59ce360e11b81526001600160a01b03848116600483015291516000938493169163218b39c6916024808301926020929190829003018186803b158015613c1e57600080fd5b505afa158015613c32573d6000803e3d6000fd5b505050506040513d6020811015613c4857600080fd5b505190506001600160a01b038116610f3c5760405162461bcd60e51b8152600401808060200182810382526033815260200180614bba6033913960400191505060405180910390fd5b600082613ca057506000610f3c565b82820282848281613cad57fe5b0414612a205760405162461bcd60e51b81526004018080602001828103825260218152602001806149736021913960400191505060405180910390fd5b6000612a2083836040518060400160405280601a81526020017f536166654d6174683a206469766973696f6e206279207a65726f000000000000815250614360565b6001600160a01b038116613d715760405162461bcd60e51b815260040180806020018281038252602681526020018061467c6026913960400191505060405180910390fd5b600080546040516001600160a01b03808516939216917f8be0079c531659141344cd1fd0a4f28419497f9722a3daafe3b4186f6b6457e091a3600080546001600160a01b0319166001600160a01b0392909216919091179055565b6000613df0436040518060800160405280604381526020016148b6604391396143c5565b90506000613e16426040518060800160405280604681526020016149f6604691396143c5565b6001600160a01b038516600090815260046020526040812054919250613e4060001985014261441a565b90506000816001600160601b031611613ea0576040805162461bcd60e51b815260206004820152601a60248201527f496e76616c696420746f74616c57656967687465645374616b65000000000000604482015290519081900360640190fd5b600082118015613edf57506001600160a01b03861660009081526003602090815260408083206000198601845290915290205463ffffffff8581169116145b15613f4e576001600160a01b03868116600090815260036020908152604080832060001987018452909152902080546001600160601b03888116600160a01b02908516600160401b026bffffffffffffffffffffffff60401b199092169190911790921691909117905561401e565b6040805160808101825263ffffffff868116825285811660208084019182526001600160601b038681168587019081528b8216606087019081526001600160a01b038e81166000818152600387528a81208d825287528a812099518a5498519551945163ffffffff19909916908a161767ffffffff000000001916600160201b9590991694909402979097176bffffffffffffffffffffffff60401b1916600160401b928516929092029190911716600160a01b9490921693909302179093559081526004909152206001830190555b604080516001600160601b038716815290516001600160a01b0388169133917ff61a5f2f4d0b2d871d5bf18717d08a6b0f543afa7e08dad5df1fea150f7296329181900360200190a3505050505050565b6001600160a01b03821660009081526004602052604081205480614097576000915050612a20565b600063ffffffff84166140ab5750806140e8565b6140d58463ffffffff1687016040518060600160405280603f81526020016148f9603f91396143c5565b63ffffffff169050818111156140e85750805b6001600160a01b03851660009081526003602090815260408083206000198501845290915290205463ffffffff164381141561412657600019909101905b5095945050505050565b614142826001600160a01b031661301a565b614193576040805162461bcd60e51b815260206004820152601f60248201527f5361666545524332303a2063616c6c20746f206e6f6e2d636f6e747261637400604482015290519081900360640190fd5b60006060836001600160a01b0316836040518082805190602001908083835b602083106141d15780518252601f1990920191602091820191016141b2565b6001836020036101000a0380198251168184511680821785525050505050509050019150506000604051808303816000865af19150503d8060008114614233576040519150601f19603f3d011682016040523d82523d6000602084013e614238565b606091505b50915091508161428f576040805162461bcd60e51b815260206004820181905260248201527f5361666545524332303a206c6f772d6c6576656c2063616c6c206661696c6564604482015290519081900360640190fd5b8051156110f5578080602001905160208110156142ab57600080fd5b50516110f55760405162461bcd60e51b815260040180806020018281038252602a815260200180614c55602a913960400191505060405180910390fd5b6001600160a01b031660009081526020919091526040902054151590565b600081848411156143585760405162461bcd60e51b8152602060048201818152835160248401528351909283926044909101919085019080838360008315612bc2578181015183820152602001612baa565b505050900390565b600081836143af5760405162461bcd60e51b8152602060048201818152835160248401528351909283926044909101919085019080838360008315612bc2578181015183820152602001612baa565b5060008385816143bb57fe5b0495945050505050565b600081600160201b8410612bfd5760405162461bcd60e51b8152602060048201818152835160248401528351909283926044909101919085019080838360008315612bc2578181015183820152602001612baa565b6002546040805163cdbe715560e01b815263ffffffff8516600482015260248101849052905160009283926001600160a01b039091169163cdbe715591604480820192602092909190829003018186803b15801561447757600080fd5b505afa15801561448b573d6000803e3d6000fd5b505050506040513d60208110156144a157600080fd5b5051600254604080516312916bdd60e11b815263ffffffff881660048201526024810187905290519293506001600160a01b0390911691632522d7ba91604480820192602092909190829003018186803b1580156144fe57600080fd5b505afa158015614512573d6000803e3d6000fd5b505050506040513d602081101561452857600080fd5b50516040805160808101909152605680825291935061304e9184918491614b1a60208301396000836001600160601b0316836001600160601b0316111582906143585760405162461bcd60e51b8152602060048201818152835160248401528351909283926044909101919085019080838360008315612bc2578181015183820152602001612baa565b6040805160808101825260008082526020820181905291810182905260608101919091529056fe46656553686172696e67436f6c6c6563746f723a3a7472616e73666572546f6b656e733a20696e76616c696420616d6f756e7446656553686172696e67436f6c6c6563746f723a3a7472616e73666572546f6b656e733a20696e76616c6964206164647265737346656553686172696e67436f6c6c6563746f723a3a7769746864726177466565733a206e6f20746f6b656e7320666f72207769746864726177616c4f776e61626c653a206e6577206f776e657220697320746865207a65726f20616464726573735f66726f6d436865636b706f696e742073686f756c64206265203c3d20746f74616c546f6b656e436865636b706f696e747346656553686172696e67436f6c6c6563746f723a3a7769746864726177524254433a205769746864726177616c206661696c656446656553686172696e67436f6c6c6563746f723a3a7769746864726177466565733a20777262746320746f6b656e20616d6f756e742065786365656473203936206269747346656553686172696e67436f6c6c6563746f723a3a776974686472617746656573414d4d3a20746f74616c20777262746320746f6b656e20616d6f756e742065786365656473203936206269747346656553686172696e67436f6c6c6563746f723a3a776974686472617746656573414d4d3a20777262746320746f6b656e20616d6f756e742065786365656473203936206269747346656553686172696e67436f6c6c6563746f723a2066756e6374696f6e2063616e206f6e6c792062652063616c6c6564206f6e636555736572207765696768746564207374616b652073686f756c64206265203e203020617420205f66726f6d436865636b706f696e7446656553686172696e67436f6c6c6563746f723a3a7472616e73666572524254433a20696e76616c69642076616c756555736572207765696768746564207374616b652073686f756c64206265207a65726f2061742070726576696f757320636865636b706f696e7446656553686172696e67436f6c6c6563746f723a3a5f7772697465436865636b706f696e743a20626c6f636b206e756d6265722065786365656473203332206269747346656553686172696e67436f6c6c6563746f723a3a77697468647261773a20636865636b706f696e7420696e6465782065786365656473203332206269747346656553686172696e67436f6c6c6563746f723a3a5f616464436865636b706f696e743a20616d6f756e7420657863656564732039362062697473536166654d6174683a206d756c7469706c69636174696f6e206f766572666c6f7746656553686172696e67436f6c6c6563746f723a3a77697468647261773a205f6d6178436865636b706f696e74732073686f756c6420626520706f7369746976655f66726f6d436865636b706f696e7420706172616d206d757374206265203e203146656553686172696e67436f6c6c6563746f723a3a5f7772697465436865636b706f696e743a20626c6f636b2074696d657374616d70206578636565647320333220626974735374616b696e673a3a7472616e73666572546f6b656e733a20746f6b656e207472616e73666572206661696c656446656553686172696e67436f6c6c6563746f7250726f78793a3a7769746864726177466565733a20706f6f6c20746f6b656e20616d6f756e7420657863656564732039362062697473524254435f44554d4d595f414444524553535f464f525f434845434b504f494e5446656553686172696e67436f6c6c6563746f723a3a5f616464436865636b706f696e743a20756e70726f636573736564416d6f756e742065786365656473203936206269747346656553686172696e67436f6c6c6563746f723a3a5f676574546f74616c566f6c756e7461727957656967687465645374616b653a20766573746564207374616b65206578636565647320746f74616c207374616b6546656553686172696e67436f6c6c6563746f723a3a7265636f766572496e636f7272656374416c6c6f6361746564466565733a205769746864726177616c2072627463206661696c656446656553686172696e67436f6c6c6563746f723a3a77697468647261773a206c6f616e207752425443206e6f7420666f756e645f66726f6d436865636b706f696e7420706172616d206d757374206265203e207573657250726f636573736564436865636b706f696e747346656553686172696e67436f6c6c6563746f723a3a77697468647261773a207769746864726177616c206661696c65645361666545524332303a204552433230206f7065726174696f6e20646964206e6f74207375636365656446656553686172696e67436f6c6c6563746f723a3a7769746864726177466565733a20746f6b656e206973206e6f74206120636f6e747261637446656553686172696e67436f6c6c6563746f723a3a7769746864726177466565733a206e6f207262746320666f722061207769746864726177616ca265627a7a723158206601919f94d8a41e94a439730485aaf36d54fac26f4054ffa6ea1cf720b9383b64736f6c63430005110032",
    "linkReferences": {}
  },
  "methodIdentifiers": {
    "RBTC_DUMMY_ADDRESS_FOR_CHECKPOINT()": "7d0ce2b2",
    "addCheckPoint(address,uint256)": "368ddadc",
    "addWhitelistedConverterAddress(address)": "7061acf3",
    "getAccumulatedFees(address,address)": "3d67df6f",
    "getAccumulatedFeesForCheckpointsRange(address,address,uint256,uint32)": "c3f0eaee",
    "getAccumulatedRBTCFeeBalances(address)": "c3040447",
    "getFullAccumulatedFees(address,address,uint32)": "ccd7660d",
    "getNextPositiveUserCheckpoint(address,address,uint256,uint256)": "1345946c",
    "getWhitelistedConverterList()": "adcf21a7",
    "isFunctionExecuted(bytes4)": "d93b69ab",
    "isOwner()": "8f32d59b",
    "lastFeeWithdrawalTime(address)": "f3bdba8f",
    "numTokenCheckpoints(address)": "20020208",
    "owner()": "8da5cb5b",
    "processedCheckpoints(address,address)": "7913b451",
    "protocol()": "8ce74426",
    "recoverIncorrectAllocatedFees()": "aa5036e9",
    "removeWhitelistedConverterAddress(address)": "a4955f2a",
    "setTotalTokenCheckpoints(address,uint256)": "882d507c",
    "setUserProcessedCheckpoints(address,address,uint256)": "d35bd723",
    "staking()": "4cf088d9",
    "testData()": "016cbd51",
    "tokenCheckpoints(address,uint256)": "70530017",
    "totalTokenCheckpoints(address)": "f2962cda",
    "transferOwnership(address)": "f2fde38b",
    "transferRBTC()": "22a6fd95",
    "transferTokens(address,uint96)": "abe979e1",
    "trueWithdraw(address,uint32,address)": "3f4afbca",
    "unprocessedAmount(address)": "8b6fdcba",
    "withdraw(address,uint32,address)": "a965b3a9",
    "withdrawFees(address[])": "a697b8c7",
    "withdrawFeesAMM(address[])": "7c8678ec",
    "withdrawRBTC(uint32,address)": "988ba593",
    "withdrawRBTCStartingFromCheckpoint(uint256,uint32,address)": "7104c4ff",
    "withdrawStartingFromCheckpoint(address,uint256,uint32,address)": "a9336519",
    "withdrawWRBTC(address,uint256)": "5c4d9b12"
  },
  "id": 131
}