{
  "abi": [
    {
      "inputs": [
        {
          "internalType": "string",
          "name": "_name",
          "type": "string"
        },
        {
          "internalType": "string",
          "name": "_symbol",
          "type": "string"
        },
        {
          "internalType": "uint256",
          "name": "_initialSupply",
          "type": "uint256"
        },
        {
          "internalType": "uint8",
          "name": "_decimals",
          "type": "uint8"
        },
        {
          "internalType": "address[]",
          "name": "defaultOperators",
          "type": "address[]"
        }
      ],
      "payable": false,
      "stateMutability": "nonpayable",
      "type": "constructor"
    },
    {
      "anonymous": false,
      "inputs": [
        {
          "indexed": true,
          "internalType": "address",
          "name": "owner",
          "type": "address"
        },
        {
          "indexed": true,
          "internalType": "address",
          "name": "spender",
          "type": "address"
        },
        {
          "indexed": false,
          "internalType": "uint256",
          "name": "value",
          "type": "uint256"
        }
      ],
      "name": "Approval",
      "type": "event"
    },
    {
      "anonymous": false,
      "inputs": [
        {
          "indexed": true,
          "internalType": "address",
          "name": "operator",
          "type": "address"
        },
        {
          "indexed": true,
          "internalType": "address",
          "name": "tokenHolder",
          "type": "address"
        }
      ],
      "name": "AuthorizedOperator",
      "type": "event"
    },
    {
      "anonymous": false,
      "inputs": [
        {
          "indexed": true,
          "internalType": "address",
          "name": "operator",
          "type": "address"
        },
        {
          "indexed": true,
          "internalType": "address",
          "name": "from",
          "type": "address"
        },
        {
          "indexed": false,
          "internalType": "uint256",
          "name": "amount",
          "type": "uint256"
        },
        {
          "indexed": false,
          "internalType": "bytes",
          "name": "data",
          "type": "bytes"
        },
        {
          "indexed": false,
          "internalType": "bytes",
          "name": "operatorData",
          "type": "bytes"
        }
      ],
      "name": "Burned",
      "type": "event"
    },
    {
      "anonymous": false,
      "inputs": [
        {
          "indexed": true,
          "internalType": "address",
          "name": "operator",
          "type": "address"
        },
        {
          "indexed": true,
          "internalType": "address",
          "name": "to",
          "type": "address"
        },
        {
          "indexed": false,
          "internalType": "uint256",
          "name": "amount",
          "type": "uint256"
        },
        {
          "indexed": false,
          "internalType": "bytes",
          "name": "data",
          "type": "bytes"
        },
        {
          "indexed": false,
          "internalType": "bytes",
          "name": "operatorData",
          "type": "bytes"
        }
      ],
      "name": "Minted",
      "type": "event"
    },
    {
      "anonymous": false,
      "inputs": [
        {
          "indexed": true,
          "internalType": "address",
          "name": "operator",
          "type": "address"
        },
        {
          "indexed": true,
          "internalType": "address",
          "name": "tokenHolder",
          "type": "address"
        }
      ],
      "name": "RevokedOperator",
      "type": "event"
    },
    {
      "anonymous": false,
      "inputs": [
        {
          "indexed": true,
          "internalType": "address",
          "name": "operator",
          "type": "address"
        },
        {
          "indexed": true,
          "internalType": "address",
          "name": "from",
          "type": "address"
        },
        {
          "indexed": true,
          "internalType": "address",
          "name": "to",
          "type": "address"
        },
        {
          "indexed": false,
          "internalType": "uint256",
          "name": "amount",
          "type": "uint256"
        },
        {
          "indexed": false,
          "internalType": "bytes",
          "name": "data",
          "type": "bytes"
        },
        {
          "indexed": false,
          "internalType": "bytes",
          "name": "operatorData",
          "type": "bytes"
        }
      ],
      "name": "Sent",
      "type": "event"
    },
    {
      "anonymous": false,
      "inputs": [
        {
          "indexed": true,
          "internalType": "address",
          "name": "from",
          "type": "address"
        },
        {
          "indexed": true,
          "internalType": "address",
          "name": "to",
          "type": "address"
        },
        {
          "indexed": false,
          "internalType": "uint256",
          "name": "value",
          "type": "uint256"
        }
      ],
      "name": "Transfer",
      "type": "event"
    },
    {
      "constant": true,
      "inputs": [
        {
          "internalType": "address",
          "name": "holder",
          "type": "address"
        },
        {
          "internalType": "address",
          "name": "spender",
          "type": "address"
        }
      ],
      "name": "allowance",
      "outputs": [
        {
          "internalType": "uint256",
          "name": "",
          "type": "uint256"
        }
      ],
      "payable": false,
      "stateMutability": "view",
      "type": "function"
    },
    {
      "constant": false,
      "inputs": [
        {
          "internalType": "address",
          "name": "spender",
          "type": "address"
        },
        {
          "internalType": "uint256",
          "name": "value",
          "type": "uint256"
        }
      ],
      "name": "approve",
      "outputs": [
        {
          "internalType": "bool",
          "name": "",
          "type": "bool"
        }
      ],
      "payable": false,
      "stateMutability": "nonpayable",
      "type": "function"
    },
    {
      "constant": false,
      "inputs": [
        {
          "internalType": "address",
          "name": "operator",
          "type": "address"
        }
      ],
      "name": "authorizeOperator",
      "outputs": [],
      "payable": false,
      "stateMutability": "nonpayable",
      "type": "function"
    },
    {
      "constant": true,
      "inputs": [
        {
          "internalType": "address",
          "name": "tokenHolder",
          "type": "address"
        }
      ],
      "name": "balanceOf",
      "outputs": [
        {
          "internalType": "uint256",
          "name": "",
          "type": "uint256"
        }
      ],
      "payable": false,
      "stateMutability": "view",
      "type": "function"
    },
    {
      "constant": false,
      "inputs": [
        {
          "internalType": "address",
          "name": "_who",
          "type": "address"
        },
        {
          "internalType": "uint256",
          "name": "_value",
          "type": "uint256"
        }
      ],
      "name": "burn",
      "outputs": [],
      "payable": false,
      "stateMutability": "nonpayable",
      "type": "function"
    },
    {
      "constant": false,
      "inputs": [
        {
          "internalType": "uint256",
          "name": "amount",
          "type": "uint256"
        },
        {
          "internalType": "bytes",
          "name": "data",
          "type": "bytes"
        }
      ],
      "name": "burn",
      "outputs": [],
      "payable": false,
      "stateMutability": "nonpayable",
      "type": "function"
    },
    {
      "constant": true,
      "inputs": [],
      "name": "decimals",
      "outputs": [
        {
          "internalType": "uint8",
          "name": "",
          "type": "uint8"
        }
      ],
      "payable": false,
      "stateMutability": "view",
      "type": "function"
    },
    {
      "constant": true,
      "inputs": [],
      "name": "defaultOperators",
      "outputs": [
        {
          "internalType": "address[]",
          "name": "",
          "type": "address[]"
        }
      ],
      "payable": false,
      "stateMutability": "view",
      "type": "function"
    },
    {
      "constant": true,
      "inputs": [],
      "name": "granularity",
      "outputs": [
        {
          "internalType": "uint256",
          "name": "",
          "type": "uint256"
        }
      ],
      "payable": false,
      "stateMutability": "view",
      "type": "function"
    },
    {
      "constant": true,
      "inputs": [
        {
          "internalType": "address",
          "name": "operator",
          "type": "address"
        },
        {
          "internalType": "address",
          "name": "tokenHolder",
          "type": "address"
        }
      ],
      "name": "isOperatorFor",
      "outputs": [
        {
          "internalType": "bool",
          "name": "",
          "type": "bool"
        }
      ],
      "payable": false,
      "stateMutability": "view",
      "type": "function"
    },
    {
      "constant": false,
      "inputs": [
        {
          "internalType": "address",
          "name": "_to",
          "type": "address"
        },
        {
          "internalType": "uint256",
          "name": "_value",
          "type": "uint256"
        }
      ],
      "name": "mint",
      "outputs": [],
      "payable": false,
      "stateMutability": "nonpayable",
      "type": "function"
    },
    {
      "constant": true,
      "inputs": [],
      "name": "name",
      "outputs": [
        {
          "internalType": "string",
          "name": "",
          "type": "string"
        }
      ],
      "payable": false,
      "stateMutability": "view",
      "type": "function"
    },
    {
      "constant": false,
      "inputs": [
        {
          "internalType": "address",
          "name": "account",
          "type": "address"
        },
        {
          "internalType": "uint256",
          "name": "amount",
          "type": "uint256"
        },
        {
          "internalType": "bytes",
          "name": "data",
          "type": "bytes"
        },
        {
          "internalType": "bytes",
          "name": "operatorData",
          "type": "bytes"
        }
      ],
      "name": "operatorBurn",
      "outputs": [],
      "payable": false,
      "stateMutability": "nonpayable",
      "type": "function"
    },
    {
      "constant": false,
      "inputs": [
        {
          "internalType": "address",
          "name": "sender",
          "type": "address"
        },
        {
          "internalType": "address",
          "name": "recipient",
          "type": "address"
        },
        {
          "internalType": "uint256",
          "name": "amount",
          "type": "uint256"
        },
        {
          "internalType": "bytes",
          "name": "data",
          "type": "bytes"
        },
        {
          "internalType": "bytes",
          "name": "operatorData",
          "type": "bytes"
        }
      ],
      "name": "operatorSend",
      "outputs": [],
      "payable": false,
      "stateMutability": "nonpayable",
      "type": "function"
    },
    {
      "constant": false,
      "inputs": [
        {
          "internalType": "address",
          "name": "operator",
          "type": "address"
        }
      ],
      "name": "revokeOperator",
      "outputs": [],
      "payable": false,
      "stateMutability": "nonpayable",
      "type": "function"
    },
    {
      "constant": false,
      "inputs": [
        {
          "internalType": "address",
          "name": "recipient",
          "type": "address"
        },
        {
          "internalType": "uint256",
          "name": "amount",
          "type": "uint256"
        },
        {
          "internalType": "bytes",
          "name": "data",
          "type": "bytes"
        }
      ],
      "name": "send",
      "outputs": [],
      "payable": false,
      "stateMutability": "nonpayable",
      "type": "function"
    },
    {
      "constant": true,
      "inputs": [],
      "name": "symbol",
      "outputs": [
        {
          "internalType": "string",
          "name": "",
          "type": "string"
        }
      ],
      "payable": false,
      "stateMutability": "view",
      "type": "function"
    },
    {
      "constant": true,
      "inputs": [],
      "name": "totalSupply",
      "outputs": [
        {
          "internalType": "uint256",
          "name": "",
          "type": "uint256"
        }
      ],
      "payable": false,
      "stateMutability": "view",
      "type": "function"
    },
    {
      "constant": false,
      "inputs": [
        {
          "internalType": "address",
          "name": "recipient",
          "type": "address"
        },
        {
          "internalType": "uint256",
          "name": "amount",
          "type": "uint256"
        }
      ],
      "name": "transfer",
      "outputs": [
        {
          "internalType": "bool",
          "name": "",
          "type": "bool"
        }
      ],
      "payable": false,
      "stateMutability": "nonpayable",
      "type": "function"
    },
    {
      "constant": false,
      "inputs": [
        {
          "internalType": "address",
          "name": "holder",
          "type": "address"
        },
        {
          "internalType": "address",
          "name": "recipient",
          "type": "address"
        },
        {
          "internalType": "uint256",
          "name": "amount",
          "type": "uint256"
        }
      ],
      "name": "transferFrom",
      "outputs": [
        {
          "internalType": "bool",
          "name": "",
          "type": "bool"
        }
      ],
      "payable": false,
      "stateMutability": "nonpayable",
      "type": "function"
    }
  ],
  "bytecode": {
    "object": "0x60806040523480156200001157600080fd5b5060405162002b7738038062002b77833981810160405260a08110156200003757600080fd5b81019080805160405193929190846401000000008211156200005857600080fd5b9083019060208201858111156200006e57600080fd5b82516401000000008111828201881017156200008957600080fd5b82525081516020918201929091019080838360005b83811015620000b85781810151838201526020016200009e565b50505050905090810190601f168015620000e65780820380516001836020036101000a031916815260200191505b50604052602001805160405193929190846401000000008211156200010a57600080fd5b9083019060208201858111156200012057600080fd5b82516401000000008111828201881017156200013b57600080fd5b82525081516020918201929091019080838360005b838110156200016a57818101518382015260200162000150565b50505050905090810190601f168015620001985780820380516001836020036101000a031916815260200191505b50604081815260208301519083015160609093018051919593949293929184640100000000821115620001ca57600080fd5b908301906020820185811115620001e057600080fd5b8251866020820283011164010000000082111715620001fe57600080fd5b82525081516020918201928201910280838360005b838110156200022d57818101518382015260200162000213565b50505050919091016040525050865162000251925060009150602088019062000a03565b5083516200026790600290602087019062000a03565b506001805460ff191660ff841617905580516200028c90600590602084019062000a88565b5060005b600554811015620002ec5760016006600060058481548110620002af57fe5b6000918252602080832091909101546001600160a01b031683528201929092526040019020805460ff191691151591909117905560010162000290565b506200032033338560405180602001604052806000815250604051806020016040528060008152506200045860201b60201c565b604080516a22a9219b9b9baa37b5b2b760a91b8152815190819003600b0181206329965a1d60e01b82523060048301819052602483019190915260448201529051731820a4b7618bde71dce8cdc73aab6c95905fad24916329965a1d91606480830192600092919082900301818387803b1580156200039e57600080fd5b505af1158015620003b3573d6000803e3d6000fd5b5050604080516922a92199182a37b5b2b760b11b8152815190819003600a0181206329965a1d60e01b82523060048301819052602483019190915260448201529051731820a4b7618bde71dce8cdc73aab6c95905fad2493506329965a1d9250606480830192600092919082900301818387803b1580156200043457600080fd5b505af115801562000449573d6000803e3d6000fd5b50505050505050505062000b35565b6001600160a01b038416620004b4576040805162461bcd60e51b815260206004820181905260248201527f4552433737373a206d696e7420746f20746865207a65726f2061646472657373604482015290519081900360640190fd5b620004d083600454620006a760201b620019fe1790919060201c565b6004556001600160a01b03841660009081526003602090815260409091205462000505918590620019fe620006a7821b17901c565b6001600160a01b0385166000908152600360205260408120919091556200053d9086908686868660016001600160e01b036200070916565b836001600160a01b0316856001600160a01b03167f2fe5be0146f74c5bce36c0b80911af6c7d86ff27e89d5cfa61fc681327954e5d858585604051808481526020018060200180602001838103835285818151815260200191508051906020019080838360005b83811015620005be578181015183820152602001620005a4565b50505050905090810190601f168015620005ec5780820380516001836020036101000a031916815260200191505b50838103825284518152845160209182019186019080838360005b838110156200062157818101518382015260200162000607565b50505050905090810190601f1680156200064f5780820380516001836020036101000a031916815260200191505b509550505050505060405180910390a36040805184815290516001600160a01b038616916000917fddf252ad1be2c89b69c2b068fc378daa952ba7f163c4a11628f55a4df523b3ef9181900360200190a35050505050565b60008282018381101562000702576040805162461bcd60e51b815260206004820152601b60248201527f536166654d6174683a206164646974696f6e206f766572666c6f770000000000604482015290519081900360640190fd5b9392505050565b6040805163555ddc6560e11b81526001600160a01b03871660048201527fb281fc8c12954d22544db45de3159a39272895b169a852b314f9cc762e44c53b60248201529051600091731820a4b7618bde71dce8cdc73aab6c95905fad249163aabbb8ca91604480820192602092909190829003018186803b1580156200078e57600080fd5b505afa158015620007a3573d6000803e3d6000fd5b505050506040513d6020811015620007ba57600080fd5b505190506001600160a01b038116156200095857806001600160a01b03166223de298989898989896040518763ffffffff1660e01b815260040180876001600160a01b03166001600160a01b03168152602001866001600160a01b03166001600160a01b03168152602001856001600160a01b03166001600160a01b031681526020018481526020018060200180602001838103835285818151815260200191508051906020019080838360005b838110156200088257818101518382015260200162000868565b50505050905090810190601f168015620008b05780820380516001836020036101000a031916815260200191505b50838103825284518152845160209182019186019080838360005b83811015620008e5578181015183820152602001620008cb565b50505050905090810190601f168015620009135780820380516001836020036101000a031916815260200191505b5098505050505050505050600060405180830381600087803b1580156200093957600080fd5b505af11580156200094e573d6000803e3d6000fd5b50505050620009bc565b8115620009bc576200097e866001600160a01b0316620009c660201b62001d501760201c565b15620009bc5760405162461bcd60e51b815260040180806020018281038252604d81526020018062002b2a604d913960600191505060405180910390fd5b5050505050505050565b6000813f7fc5d2460186f7233c927e7db2dcc703c0e500b653ca82273b7bfad8045d85a470818114801590620009fb57508115155b949350505050565b828054600181600116156101000203166002900490600052602060002090601f016020900481019282601f1062000a4657805160ff191683800117855562000a76565b8280016001018555821562000a76579182015b8281111562000a7657825182559160200191906001019062000a59565b5062000a8492915062000aee565b5090565b82805482825590600052602060002090810192821562000ae0579160200282015b8281111562000ae057825182546001600160a01b0319166001600160a01b0390911617825560209092019160019091019062000aa9565b5062000a8492915062000b0e565b62000b0b91905b8082111562000a84576000815560010162000af5565b90565b62000b0b91905b8082111562000a845780546001600160a01b031916815560010162000b15565b611fe58062000b456000396000f3fe608060405234801561001057600080fd5b506004361061012c5760003560e01c8063959b8c3f116100ad578063d95b637111610071578063d95b637114610598578063dd62ed3e146105c6578063fad8b32a146105f4578063fc673c4f1461061a578063fe9d9303146107585761012c565b8063959b8c3f1461045957806395d89b411461047f5780639bd9bbc6146104875780639dc29fac14610540578063a9059cbb1461056c5761012c565b8063313ce567116100f4578063313ce5671461029657806340c10f19146102b4578063556f0dc7146102e257806362ad1b83146102ea57806370a08231146104335761012c565b806306e485381461013157806306fdde0314610189578063095ea7b31461020657806318160ddd1461024657806323b872dd14610260575b600080fd5b610139610803565b60408051602080825283518183015283519192839290830191858101910280838360005b8381101561017557818101518382015260200161015d565b505050509050019250505060405180910390f35b610191610865565b6040805160208082528351818301528351919283929083019185019080838360005b838110156101cb5781810151838201526020016101b3565b50505050905090810190601f1680156101f85780820380516001836020036101000a031916815260200191505b509250505060405180910390f35b6102326004803603604081101561021c57600080fd5b506001600160a01b0381351690602001356108f3565b604080519115158252519081900360200190f35b61024e610915565b60408051918252519081900360200190f35b6102326004803603606081101561027657600080fd5b506001600160a01b0381358116916020810135909116906040013561091b565b61029e610a9e565b6040805160ff9092168252519081900360200190f35b6102e0600480360360408110156102ca57600080fd5b506001600160a01b038135169060200135610aa7565b005b61024e610b5a565b6102e0600480360360a081101561030057600080fd5b6001600160a01b03823581169260208101359091169160408201359190810190608081016060820135600160201b81111561033a57600080fd5b82018360208201111561034c57600080fd5b803590602001918460018302840111600160201b8311171561036d57600080fd5b91908080601f0160208091040260200160405190810160405280939291908181526020018383808284376000920191909152509295949360208101935035915050600160201b8111156103bf57600080fd5b8201836020820111156103d157600080fd5b803590602001918460018302840111600160201b831117156103f257600080fd5b91908080601f016020809104026020016040519081016040528093929190818152602001838380828437600092019190915250929550610b5f945050505050565b61024e6004803603602081101561044957600080fd5b50356001600160a01b0316610bc9565b6102e06004803603602081101561046f57600080fd5b50356001600160a01b0316610be4565b610191610d30565b6102e06004803603606081101561049d57600080fd5b6001600160a01b0382351691602081013591810190606081016040820135600160201b8111156104cc57600080fd5b8201836020820111156104de57600080fd5b803590602001918460018302840111600160201b831117156104ff57600080fd5b91908080601f016020809104026020016040519081016040528093929190818152602001838380828437600092019190915250929550610d88945050505050565b6102e06004803603604081101561055657600080fd5b506001600160a01b038135169060200135610dba565b6102326004803603604081101561058257600080fd5b506001600160a01b038135169060200135610e38565b610232600480360360408110156105ae57600080fd5b506001600160a01b0381358116916020013516610f11565b61024e600480360360408110156105dc57600080fd5b506001600160a01b0381358116916020013516610fb3565b6102e06004803603602081101561060a57600080fd5b50356001600160a01b0316610fde565b6102e06004803603608081101561063057600080fd5b6001600160a01b0382351691602081013591810190606081016040820135600160201b81111561065f57600080fd5b82018360208201111561067157600080fd5b803590602001918460018302840111600160201b8311171561069257600080fd5b91908080601f0160208091040260200160405190810160405280939291908181526020018383808284376000920191909152509295949360208101935035915050600160201b8111156106e457600080fd5b8201836020820111156106f657600080fd5b803590602001918460018302840111600160201b8311171561071757600080fd5b91908080601f01602080910402602001604051908101604052809392919081815260200183838082843760009201919091525092955061112a945050505050565b6102e06004803603604081101561076e57600080fd5b81359190810190604081016020820135600160201b81111561078f57600080fd5b8201836020820111156107a157600080fd5b803590602001918460018302840111600160201b831117156107c257600080fd5b91908080601f016020809104026020016040519081016040528093929190818152602001838380828437600092019190915250929550611190945050505050565b6060600580548060200260200160405190810160405280929190818152602001828054801561085b57602002820191906000526020600020905b81546001600160a01b0316815260019091019060200180831161083d575b5050505050905090565b6000805460408051602060026001851615610100026000190190941693909304601f810184900484028201840190925281815292918301828280156108eb5780601f106108c0576101008083540402835291602001916108eb565b820191906000526020600020905b8154815290600101906020018083116108ce57829003601f168201915b505050505081565b6000806108fe6111ba565b905061090b8185856111be565b5060019392505050565b60045490565b60006001600160a01b0383166109625760405162461bcd60e51b8152600401808060200182810382526024815260200180611ecc6024913960400191505060405180910390fd5b6001600160a01b0384166109a75760405162461bcd60e51b8152600401808060200182810382526026815260200180611f456026913960400191505060405180910390fd5b60006109b16111ba565b90506109df818686866040518060200160405280600081525060405180602001604052806000815250611265565b610a0b8186868660405180602001604052806000815250604051806020016040528060008152506114ad565b610a658582610a6086604051806060016040528060298152602001611f1c602991396001600160a01b03808c166000908152600960209081526040808320938b1683529290522054919063ffffffff6116c716565b6111be565b610a93818686866040518060200160405280600081525060405180602001604052806000815250600061175e565b506001949350505050565b60015460ff1681565b600454610aba908263ffffffff6119fe16565b6004556001600160a01b038216600090815260036020526040902054610ae6908263ffffffff6119fe16565b6001600160a01b0383166000818152600360209081526040808320949094558351858152606091810182905290810182905260a08185018190528101919091529151909133917f2fe5be0146f74c5bce36c0b80911af6c7d86ff27e89d5cfa61fc681327954e5d9181900360e00190a35050565b600190565b610b70610b6a6111ba565b86610f11565b610bab5760405162461bcd60e51b815260040180806020018281038252602c815260200180611ef0602c913960400191505060405180910390fd5b610bc2610bb66111ba565b86868686866001611a58565b5050505050565b6001600160a01b031660009081526003602052604090205490565b806001600160a01b0316610bf66111ba565b6001600160a01b03161415610c3c5760405162461bcd60e51b8152600401808060200182810382526024815260200180611e3a6024913960400191505060405180910390fd5b6001600160a01b03811660009081526006602052604090205460ff1615610c9f5760086000610c696111ba565b6001600160a01b03908116825260208083019390935260409182016000908120918516815292529020805460ff19169055610ce6565b600160076000610cad6111ba565b6001600160a01b03908116825260208083019390935260409182016000908120918616815292529020805460ff19169115159190911790555b610cee6111ba565b6001600160a01b0316816001600160a01b03167ff4caeb2d6ca8932a215a353d0703c326ec2d81fc68170f320eb2ab49e9df61f960405160405180910390a350565b6002805460408051602060018416156101000260001901909316849004601f810184900484028201840190925281815292918301828280156108eb5780601f106108c0576101008083540402835291602001916108eb565b610db5610d936111ba565b610d9b6111ba565b858585604051806020016040528060008152506001611a58565b505050565b610dc382610bc9565b811115610e09576040805162461bcd60e51b815260206004820152600f60248201526e62616c616e636520746f6f206c6f7760881b604482015290519081900360640190fd5b610e343383836040518060200160405280600081525060405180602001604052806000815250611b23565b5050565b60006001600160a01b038316610e7f5760405162461bcd60e51b8152600401808060200182810382526024815260200180611ecc6024913960400191505060405180910390fd5b6000610e896111ba565b9050610eb7818286866040518060200160405280600081525060405180602001604052806000815250611265565b610ee38182868660405180602001604052806000815250604051806020016040528060008152506114ad565b61090b818286866040518060200160405280600081525060405180602001604052806000815250600061175e565b6000816001600160a01b0316836001600160a01b03161480610f7c57506001600160a01b03831660009081526006602052604090205460ff168015610f7c57506001600160a01b0380831660009081526008602090815260408083209387168352929052205460ff16155b80610fac57506001600160a01b0380831660009081526007602090815260408083209387168352929052205460ff165b9392505050565b6001600160a01b03918216600090815260096020908152604080832093909416825291909152205490565b610fe66111ba565b6001600160a01b0316816001600160a01b031614156110365760405162461bcd60e51b8152600401808060200182810382526021815260200180611e5e6021913960400191505060405180910390fd5b6001600160a01b03811660009081526006602052604090205460ff16156110a2576001600860006110656111ba565b6001600160a01b03908116825260208083019390935260409182016000908120918616815292529020805460ff19169115159190911790556110e0565b600760006110ae6111ba565b6001600160a01b03908116825260208083019390935260409182016000908120918516815292529020805460ff191690555b6110e86111ba565b6001600160a01b0316816001600160a01b03167f50546e66e5f44d728365dc3908c63bc5cfeeab470722c1677e3073a6ac294aa160405160405180910390a350565b61113b6111356111ba565b85610f11565b6111765760405162461bcd60e51b815260040180806020018281038252602c815260200180611ef0602c913960400191505060405180910390fd5b61118a6111816111ba565b85858585611b23565b50505050565b610e3461119b6111ba565b6111a36111ba565b848460405180602001604052806000815250611b23565b3390565b6001600160a01b0382166112035760405162461bcd60e51b8152600401808060200182810382526023815260200180611f8e6023913960400191505060405180910390fd5b6001600160a01b03808416600081815260096020908152604080832094871680845294825291829020859055815185815291517f8c5be1e5ebec7d5bd14f71427d1e84f3dd0314c0f7b2291e5b200ac8c7c3b9259281900390910190a3505050565b6040805163555ddc6560e11b81526001600160a01b03871660048201527f29ddb589b1fb5fc7cf394961c1adf5f8c6454761adf795e67fe149f658abe89560248201529051600091731820a4b7618bde71dce8cdc73aab6c95905fad249163aabbb8ca91604480820192602092909190829003018186803b1580156112e957600080fd5b505afa1580156112fd573d6000803e3d6000fd5b505050506040513d602081101561131357600080fd5b505190506001600160a01b038116156114a457806001600160a01b03166375ab97828888888888886040518763ffffffff1660e01b815260040180876001600160a01b03166001600160a01b03168152602001866001600160a01b03166001600160a01b03168152602001856001600160a01b03166001600160a01b031681526020018481526020018060200180602001838103835285818151815260200191508051906020019080838360005b838110156113d95781810151838201526020016113c1565b50505050905090810190601f1680156114065780820380516001836020036101000a031916815260200191505b50838103825284518152845160209182019186019080838360005b83811015611439578181015183820152602001611421565b50505050905090810190601f1680156114665780820380516001836020036101000a031916815260200191505b5098505050505050505050600060405180830381600087803b15801561148b57600080fd5b505af115801561149f573d6000803e3d6000fd5b505050505b50505050505050565b6114f083604051806060016040528060278152602001611df1602791396001600160a01b038816600090815260036020526040902054919063ffffffff6116c716565b6001600160a01b038087166000908152600360205260408082209390935590861681522054611525908463ffffffff6119fe16565b60036000866001600160a01b03166001600160a01b0316815260200190815260200160002081905550836001600160a01b0316856001600160a01b0316876001600160a01b03167f06b541ddaa720db2b10a4d0cdac39b8d360425fc073085fac19bc82614677987868686604051808481526020018060200180602001838103835285818151815260200191508051906020019080838360005b838110156115d75781810151838201526020016115bf565b50505050905090810190601f1680156116045780820380516001836020036101000a031916815260200191505b50838103825284518152845160209182019186019080838360005b8381101561163757818101518382015260200161161f565b50505050905090810190601f1680156116645780820380516001836020036101000a031916815260200191505b509550505050505060405180910390a4836001600160a01b0316856001600160a01b03167fddf252ad1be2c89b69c2b068fc378daa952ba7f163c4a11628f55a4df523b3ef856040518082815260200191505060405180910390a3505050505050565b600081848411156117565760405162461bcd60e51b81526004018080602001828103825283818151815260200191508051906020019080838360005b8381101561171b578181015183820152602001611703565b50505050905090810190601f1680156117485780820380516001836020036101000a031916815260200191505b509250505060405180910390fd5b505050900390565b6040805163555ddc6560e11b81526001600160a01b03871660048201527fb281fc8c12954d22544db45de3159a39272895b169a852b314f9cc762e44c53b60248201529051600091731820a4b7618bde71dce8cdc73aab6c95905fad249163aabbb8ca91604480820192602092909190829003018186803b1580156117e257600080fd5b505afa1580156117f6573d6000803e3d6000fd5b505050506040513d602081101561180c57600080fd5b505190506001600160a01b038116156119a057806001600160a01b03166223de298989898989896040518763ffffffff1660e01b815260040180876001600160a01b03166001600160a01b03168152602001866001600160a01b03166001600160a01b03168152602001856001600160a01b03166001600160a01b031681526020018481526020018060200180602001838103835285818151815260200191508051906020019080838360005b838110156118d15781810151838201526020016118b9565b50505050905090810190601f1680156118fe5780820380516001836020036101000a031916815260200191505b50838103825284518152845160209182019186019080838360005b83811015611931578181015183820152602001611919565b50505050905090810190601f16801561195e5780820380516001836020036101000a031916815260200191505b5098505050505050505050600060405180830381600087803b15801561198357600080fd5b505af1158015611997573d6000803e3d6000fd5b505050506119f4565b81156119f4576119b8866001600160a01b0316611d50565b156119f45760405162461bcd60e51b815260040180806020018281038252604d815260200180611e7f604d913960600191505060405180910390fd5b5050505050505050565b600082820183811015610fac576040805162461bcd60e51b815260206004820152601b60248201527f536166654d6174683a206164646974696f6e206f766572666c6f770000000000604482015290519081900360640190fd5b6001600160a01b038616611a9d5760405162461bcd60e51b8152600401808060200182810382526022815260200180611dcf6022913960400191505060405180910390fd5b6001600160a01b038516611af8576040805162461bcd60e51b815260206004820181905260248201527f4552433737373a2073656e6420746f20746865207a65726f2061646472657373604482015290519081900360640190fd5b611b06878787878787611265565b611b148787878787876114ad565b6114a48787878787878761175e565b6001600160a01b038416611b685760405162461bcd60e51b8152600401808060200182810382526022815260200180611e186022913960400191505060405180910390fd5b611b7785856000868686611265565b611bba83604051806060016040528060238152602001611f6b602391396001600160a01b038716600090815260036020526040902054919063ffffffff6116c716565b6001600160a01b038516600090815260036020526040902055600454611be6908463ffffffff611d8c16565b600481905550836001600160a01b0316856001600160a01b03167fa78a9be3a7b862d26933ad85fb11d80ef66b8f972d7cbba06621d583943a4098858585604051808481526020018060200180602001838103835285818151815260200191508051906020019080838360005b83811015611c6b578181015183820152602001611c53565b50505050905090810190601f168015611c985780820380516001836020036101000a031916815260200191505b50838103825284518152845160209182019186019080838360005b83811015611ccb578181015183820152602001611cb3565b50505050905090810190601f168015611cf85780820380516001836020036101000a031916815260200191505b509550505050505060405180910390a36040805184815290516000916001600160a01b038716917fddf252ad1be2c89b69c2b068fc378daa952ba7f163c4a11628f55a4df523b3ef9181900360200190a35050505050565b6000813f7fc5d2460186f7233c927e7db2dcc703c0e500b653ca82273b7bfad8045d85a470818114801590611d8457508115155b949350505050565b6000610fac83836040518060400160405280601e81526020017f536166654d6174683a207375627472616374696f6e206f766572666c6f7700008152506116c756fe4552433737373a2073656e642066726f6d20746865207a65726f20616464726573734552433737373a207472616e7366657220616d6f756e7420657863656564732062616c616e63654552433737373a206275726e2066726f6d20746865207a65726f20616464726573734552433737373a20617574686f72697a696e672073656c66206173206f70657261746f724552433737373a207265766f6b696e672073656c66206173206f70657261746f724552433737373a20746f6b656e20726563697069656e7420636f6e747261637420686173206e6f20696d706c656d656e74657220666f7220455243373737546f6b656e73526563697069656e744552433737373a207472616e7366657220746f20746865207a65726f20616464726573734552433737373a2063616c6c6572206973206e6f7420616e206f70657261746f7220666f7220686f6c6465724552433737373a207472616e7366657220616d6f756e74206578636565647320616c6c6f77616e63654552433737373a207472616e736665722066726f6d20746865207a65726f20616464726573734552433737373a206275726e20616d6f756e7420657863656564732062616c616e63654552433737373a20617070726f766520746f20746865207a65726f2061646472657373a265627a7a72315820752c80f2e1ed9930ffaf65301ca720a7fa72ddc7a52dad5a4eea5b854064f5f364736f6c634300051100324552433737373a20746f6b656e20726563697069656e7420636f6e747261637420686173206e6f20696d706c656d656e74657220666f7220455243373737546f6b656e73526563697069656e74",
    "linkReferences": {}
  },
  "methodIdentifiers": {
    "allowance(address,address)": "dd62ed3e",
    "approve(address,uint256)": "095ea7b3",
    "authorizeOperator(address)": "959b8c3f",
    "balanceOf(address)": "70a08231",
    "burn(address,uint256)": "9dc29fac",
    "burn(uint256,bytes)": "fe9d9303",
    "decimals()": "313ce567",
    "defaultOperators()": "06e48538",
    "granularity()": "556f0dc7",
    "isOperatorFor(address,address)": "d95b6371",
    "mint(address,uint256)": "40c10f19",
    "name()": "06fdde03",
    "operatorBurn(address,uint256,bytes,bytes)": "fc673c4f",
    "operatorSend(address,address,uint256,bytes,bytes)": "62ad1b83",
    "revokeOperator(address)": "fad8b32a",
    "send(address,uint256,bytes)": "9bd9bbc6",
    "symbol()": "95d89b41",
    "totalSupply()": "18160ddd",
    "transfer(address,uint256)": "a9059cbb",
    "transferFrom(address,address,uint256)": "23b872dd"
  },
  "id": 214
}