{
  "abi": [
    {
      "anonymous": false,
      "inputs": [
        {
          "indexed": true,
          "internalType": "address",
          "name": "user",
          "type": "address"
        },
        {
          "indexed": true,
          "internalType": "address",
          "name": "lender",
          "type": "address"
        },
        {
          "indexed": true,
          "internalType": "bytes32",
          "name": "loanId",
          "type": "bytes32"
        },
        {
          "indexed": false,
          "internalType": "address",
          "name": "closer",
          "type": "address"
        },
        {
          "indexed": false,
          "internalType": "address",
          "name": "loanToken",
          "type": "address"
        },
        {
          "indexed": false,
          "internalType": "address",
          "name": "collateralToken",
          "type": "address"
        },
        {
          "indexed": false,
          "internalType": "uint256",
          "name": "repayAmount",
          "type": "uint256"
        },
        {
          "indexed": false,
          "internalType": "uint256",
          "name": "collateralWithdrawAmount",
          "type": "uint256"
        },
        {
          "indexed": false,
          "internalType": "uint256",
          "name": "collateralToLoanRate",
          "type": "uint256"
        },
        {
          "indexed": false,
          "internalType": "uint256",
          "name": "currentMargin",
          "type": "uint256"
        }
      ],
      "name": "CloseWithDeposit",
      "type": "event"
    },
    {
      "anonymous": false,
      "inputs": [
        {
          "indexed": true,
          "internalType": "address",
          "name": "user",
          "type": "address"
        },
        {
          "indexed": true,
          "internalType": "address",
          "name": "lender",
          "type": "address"
        },
        {
          "indexed": true,
          "internalType": "bytes32",
          "name": "loanId",
          "type": "bytes32"
        },
        {
          "indexed": false,
          "internalType": "address",
          "name": "collateralToken",
          "type": "address"
        },
        {
          "indexed": false,
          "internalType": "address",
          "name": "loanToken",
          "type": "address"
        },
        {
          "indexed": false,
          "internalType": "address",
          "name": "closer",
          "type": "address"
        },
        {
          "indexed": false,
          "internalType": "uint256",
          "name": "positionCloseSize",
          "type": "uint256"
        },
        {
          "indexed": false,
          "internalType": "uint256",
          "name": "loanCloseAmount",
          "type": "uint256"
        },
        {
          "indexed": false,
          "internalType": "uint256",
          "name": "exitPrice",
          "type": "uint256"
        },
        {
          "indexed": false,
          "internalType": "uint256",
          "name": "currentLeverage",
          "type": "uint256"
        }
      ],
      "name": "CloseWithSwap",
      "type": "event"
    },
    {
      "anonymous": false,
      "inputs": [
        {
          "indexed": true,
          "internalType": "address",
          "name": "receiver",
          "type": "address"
        },
        {
          "indexed": true,
          "internalType": "address",
          "name": "token",
          "type": "address"
        },
        {
          "indexed": true,
          "internalType": "bytes32",
          "name": "loanId",
          "type": "bytes32"
        },
        {
          "indexed": false,
          "internalType": "uint256",
          "name": "feeRebatePercent",
          "type": "uint256"
        },
        {
          "indexed": false,
          "internalType": "uint256",
          "name": "amount",
          "type": "uint256"
        },
        {
          "indexed": false,
          "internalType": "uint256",
          "name": "basisPoint",
          "type": "uint256"
        }
      ],
      "name": "EarnReward",
      "type": "event"
    },
    {
      "anonymous": false,
      "inputs": [
        {
          "indexed": true,
          "internalType": "address",
          "name": "receiver",
          "type": "address"
        },
        {
          "indexed": true,
          "internalType": "address",
          "name": "token",
          "type": "address"
        },
        {
          "indexed": true,
          "internalType": "bytes32",
          "name": "loanId",
          "type": "bytes32"
        },
        {
          "indexed": false,
          "internalType": "uint256",
          "name": "feeRebatePercent",
          "type": "uint256"
        },
        {
          "indexed": false,
          "internalType": "uint256",
          "name": "amount",
          "type": "uint256"
        },
        {
          "indexed": false,
          "internalType": "uint256",
          "name": "basisPoint",
          "type": "uint256"
        }
      ],
      "name": "EarnRewardFail",
      "type": "event"
    },
    {
      "anonymous": false,
      "inputs": [
        {
          "indexed": true,
          "internalType": "address",
          "name": "user",
          "type": "address"
        },
        {
          "indexed": true,
          "internalType": "address",
          "name": "sourceToken",
          "type": "address"
        },
        {
          "indexed": true,
          "internalType": "address",
          "name": "destToken",
          "type": "address"
        },
        {
          "indexed": false,
          "internalType": "uint256",
          "name": "sourceAmount",
          "type": "uint256"
        },
        {
          "indexed": false,
          "internalType": "uint256",
          "name": "destAmount",
          "type": "uint256"
        }
      ],
      "name": "ExternalSwap",
      "type": "event"
    },
    {
      "anonymous": false,
      "inputs": [
        {
          "indexed": true,
          "internalType": "address",
          "name": "user",
          "type": "address"
        },
        {
          "indexed": true,
          "internalType": "address",
          "name": "liquidator",
          "type": "address"
        },
        {
          "indexed": true,
          "internalType": "bytes32",
          "name": "loanId",
          "type": "bytes32"
        },
        {
          "indexed": false,
          "internalType": "address",
          "name": "lender",
          "type": "address"
        },
        {
          "indexed": false,
          "internalType": "address",
          "name": "loanToken",
          "type": "address"
        },
        {
          "indexed": false,
          "internalType": "address",
          "name": "collateralToken",
          "type": "address"
        },
        {
          "indexed": false,
          "internalType": "uint256",
          "name": "repayAmount",
          "type": "uint256"
        },
        {
          "indexed": false,
          "internalType": "uint256",
          "name": "collateralWithdrawAmount",
          "type": "uint256"
        },
        {
          "indexed": false,
          "internalType": "uint256",
          "name": "collateralToLoanRate",
          "type": "uint256"
        },
        {
          "indexed": false,
          "internalType": "uint256",
          "name": "currentMargin",
          "type": "uint256"
        }
      ],
      "name": "Liquidate",
      "type": "event"
    },
    {
      "anonymous": false,
      "inputs": [
        {
          "indexed": true,
          "internalType": "bytes32",
          "name": "loanId",
          "type": "bytes32"
        },
        {
          "indexed": true,
          "internalType": "address",
          "name": "sourceToken",
          "type": "address"
        },
        {
          "indexed": true,
          "internalType": "address",
          "name": "destToken",
          "type": "address"
        },
        {
          "indexed": false,
          "internalType": "address",
          "name": "borrower",
          "type": "address"
        },
        {
          "indexed": false,
          "internalType": "uint256",
          "name": "sourceAmount",
          "type": "uint256"
        },
        {
          "indexed": false,
          "internalType": "uint256",
          "name": "destAmount",
          "type": "uint256"
        }
      ],
      "name": "LoanSwap",
      "type": "event"
    },
    {
      "anonymous": false,
      "inputs": [
        {
          "indexed": true,
          "internalType": "address",
          "name": "previousOwner",
          "type": "address"
        },
        {
          "indexed": true,
          "internalType": "address",
          "name": "newOwner",
          "type": "address"
        }
      ],
      "name": "OwnershipTransferred",
      "type": "event"
    },
    {
      "anonymous": false,
      "inputs": [
        {
          "indexed": true,
          "internalType": "address",
          "name": "payer",
          "type": "address"
        },
        {
          "indexed": true,
          "internalType": "address",
          "name": "token",
          "type": "address"
        },
        {
          "indexed": true,
          "internalType": "bytes32",
          "name": "loanId",
          "type": "bytes32"
        },
        {
          "indexed": false,
          "internalType": "uint256",
          "name": "amount",
          "type": "uint256"
        }
      ],
      "name": "PayBorrowingFee",
      "type": "event"
    },
    {
      "anonymous": false,
      "inputs": [
        {
          "indexed": true,
          "internalType": "address",
          "name": "interestToken",
          "type": "address"
        },
        {
          "indexed": true,
          "internalType": "address",
          "name": "lender",
          "type": "address"
        },
        {
          "indexed": false,
          "internalType": "uint256",
          "name": "effectiveInterest",
          "type": "uint256"
        }
      ],
      "name": "PayInterestTransfer",
      "type": "event"
    },
    {
      "anonymous": false,
      "inputs": [
        {
          "indexed": true,
          "internalType": "address",
          "name": "payer",
          "type": "address"
        },
        {
          "indexed": true,
          "internalType": "address",
          "name": "token",
          "type": "address"
        },
        {
          "indexed": false,
          "internalType": "uint256",
          "name": "amount",
          "type": "uint256"
        }
      ],
      "name": "PayLendingFee",
      "type": "event"
    },
    {
      "anonymous": false,
      "inputs": [
        {
          "indexed": true,
          "internalType": "address",
          "name": "payer",
          "type": "address"
        },
        {
          "indexed": true,
          "internalType": "address",
          "name": "token",
          "type": "address"
        },
        {
          "indexed": true,
          "internalType": "bytes32",
          "name": "loanId",
          "type": "bytes32"
        },
        {
          "indexed": false,
          "internalType": "uint256",
          "name": "amount",
          "type": "uint256"
        }
      ],
      "name": "PayTradingFee",
      "type": "event"
    },
    {
      "anonymous": false,
      "inputs": [
        {
          "indexed": true,
          "internalType": "address",
          "name": "prevModuleContractAddress",
          "type": "address"
        },
        {
          "indexed": true,
          "internalType": "address",
          "name": "newModuleContractAddress",
          "type": "address"
        },
        {
          "indexed": true,
          "internalType": "bytes32",
          "name": "module",
          "type": "bytes32"
        }
      ],
      "name": "ProtocolModuleContractReplaced",
      "type": "event"
    },
    {
      "anonymous": false,
      "inputs": [
        {
          "indexed": true,
          "internalType": "address",
          "name": "user",
          "type": "address"
        },
        {
          "indexed": true,
          "internalType": "address",
          "name": "lender",
          "type": "address"
        },
        {
          "indexed": true,
          "internalType": "bytes32",
          "name": "loanId",
          "type": "bytes32"
        },
        {
          "indexed": false,
          "internalType": "uint256",
          "name": "principal",
          "type": "uint256"
        },
        {
          "indexed": false,
          "internalType": "uint256",
          "name": "collateral",
          "type": "uint256"
        },
        {
          "indexed": false,
          "internalType": "uint256",
          "name": "endTimestamp",
          "type": "uint256"
        },
        {
          "indexed": false,
          "internalType": "address",
          "name": "rewardReceiver",
          "type": "address"
        },
        {
          "indexed": false,
          "internalType": "uint256",
          "name": "reward",
          "type": "uint256"
        }
      ],
      "name": "Rollover",
      "type": "event"
    },
    {
      "anonymous": false,
      "inputs": [
        {
          "indexed": true,
          "internalType": "address",
          "name": "asset",
          "type": "address"
        },
        {
          "indexed": true,
          "internalType": "address",
          "name": "from",
          "type": "address"
        },
        {
          "indexed": false,
          "internalType": "uint256",
          "name": "amount",
          "type": "uint256"
        }
      ],
      "name": "VaultDeposit",
      "type": "event"
    },
    {
      "anonymous": false,
      "inputs": [
        {
          "indexed": true,
          "internalType": "address",
          "name": "asset",
          "type": "address"
        },
        {
          "indexed": true,
          "internalType": "address",
          "name": "to",
          "type": "address"
        },
        {
          "indexed": false,
          "internalType": "uint256",
          "name": "amount",
          "type": "uint256"
        }
      ],
      "name": "VaultWithdraw",
      "type": "event"
    },
    {
      "anonymous": false,
      "inputs": [
        {
          "indexed": false,
          "internalType": "bool",
          "name": "shouldRefund",
          "type": "bool"
        },
        {
          "indexed": false,
          "internalType": "uint256",
          "name": "amount",
          "type": "uint256"
        },
        {
          "indexed": false,
          "internalType": "uint256",
          "name": "amountInRbtc",
          "type": "uint256"
        },
        {
          "indexed": false,
          "internalType": "uint256",
          "name": "threshold",
          "type": "uint256"
        }
      ],
      "name": "swapExcess",
      "type": "event"
    },
    {
      "payable": false,
      "stateMutability": "nonpayable",
      "type": "fallback"
    },
    {
      "constant": true,
      "inputs": [],
      "name": "TINY_AMOUNT",
      "outputs": [
        {
          "internalType": "uint256",
          "name": "",
          "type": "uint256"
        }
      ],
      "payable": false,
      "stateMutability": "view",
      "type": "function"
    },
    {
      "constant": true,
      "inputs": [],
      "name": "admin",
      "outputs": [
        {
          "internalType": "address",
          "name": "",
          "type": "address"
        }
      ],
      "payable": false,
      "stateMutability": "view",
      "type": "function"
    },
    {
      "constant": true,
      "inputs": [],
      "name": "affiliateFeePercent",
      "outputs": [
        {
          "internalType": "uint256",
          "name": "",
          "type": "uint256"
        }
      ],
      "payable": false,
      "stateMutability": "view",
      "type": "function"
    },
    {
      "constant": true,
      "inputs": [
        {
          "internalType": "address",
          "name": "",
          "type": "address"
        }
      ],
      "name": "affiliateRewardsHeld",
      "outputs": [
        {
          "internalType": "uint256",
          "name": "",
          "type": "uint256"
        }
      ],
      "payable": false,
      "stateMutability": "view",
      "type": "function"
    },
    {
      "constant": true,
      "inputs": [],
      "name": "affiliateTradingTokenFeePercent",
      "outputs": [
        {
          "internalType": "uint256",
          "name": "",
          "type": "uint256"
        }
      ],
      "payable": false,
      "stateMutability": "view",
      "type": "function"
    },
    {
      "constant": true,
      "inputs": [
        {
          "internalType": "address",
          "name": "",
          "type": "address"
        },
        {
          "internalType": "address",
          "name": "",
          "type": "address"
        }
      ],
      "name": "affiliatesReferrerBalances",
      "outputs": [
        {
          "internalType": "uint256",
          "name": "",
          "type": "uint256"
        }
      ],
      "payable": false,
      "stateMutability": "view",
      "type": "function"
    },
    {
      "constant": true,
      "inputs": [
        {
          "internalType": "address",
          "name": "",
          "type": "address"
        }
      ],
      "name": "affiliatesUserReferrer",
      "outputs": [
        {
          "internalType": "address",
          "name": "",
          "type": "address"
        }
      ],
      "payable": false,
      "stateMutability": "view",
      "type": "function"
    },
    {
      "constant": true,
      "inputs": [
        {
          "internalType": "address",
          "name": "",
          "type": "address"
        }
      ],
      "name": "borrowerNonce",
      "outputs": [
        {
          "internalType": "uint256",
          "name": "",
          "type": "uint256"
        }
      ],
      "payable": false,
      "stateMutability": "view",
      "type": "function"
    },
    {
      "constant": true,
      "inputs": [
        {
          "internalType": "address",
          "name": "",
          "type": "address"
        },
        {
          "internalType": "bytes32",
          "name": "",
          "type": "bytes32"
        }
      ],
      "name": "borrowerOrders",
      "outputs": [
        {
          "internalType": "uint256",
          "name": "lockedAmount",
          "type": "uint256"
        },
        {
          "internalType": "uint256",
          "name": "interestRate",
          "type": "uint256"
        },
        {
          "internalType": "uint256",
          "name": "minLoanTerm",
          "type": "uint256"
        },
        {
          "internalType": "uint256",
          "name": "maxLoanTerm",
          "type": "uint256"
        },
        {
          "internalType": "uint256",
          "name": "createdTimestamp",
          "type": "uint256"
        },
        {
          "internalType": "uint256",
          "name": "expirationTimestamp",
          "type": "uint256"
        }
      ],
      "payable": false,
      "stateMutability": "view",
      "type": "function"
    },
    {
      "constant": true,
      "inputs": [],
      "name": "borrowingFeePercent",
      "outputs": [
        {
          "internalType": "uint256",
          "name": "",
          "type": "uint256"
        }
      ],
      "payable": false,
      "stateMutability": "view",
      "type": "function"
    },
    {
      "constant": true,
      "inputs": [
        {
          "internalType": "address",
          "name": "",
          "type": "address"
        }
      ],
      "name": "borrowingFeeTokensHeld",
      "outputs": [
        {
          "internalType": "uint256",
          "name": "",
          "type": "uint256"
        }
      ],
      "payable": false,
      "stateMutability": "view",
      "type": "function"
    },
    {
      "constant": true,
      "inputs": [
        {
          "internalType": "address",
          "name": "",
          "type": "address"
        }
      ],
      "name": "borrowingFeeTokensPaid",
      "outputs": [
        {
          "internalType": "uint256",
          "name": "",
          "type": "uint256"
        }
      ],
      "payable": false,
      "stateMutability": "view",
      "type": "function"
    },
    {
      "constant": true,
      "inputs": [
        {
          "internalType": "bytes32",
          "name": "loanId",
          "type": "bytes32"
        },
        {
          "internalType": "uint256",
          "name": "depositAmount",
          "type": "uint256"
        }
      ],
      "name": "checkCloseWithDepositIsTinyPosition",
      "outputs": [
        {
          "internalType": "bool",
          "name": "isTinyPosition",
          "type": "bool"
        },
        {
          "internalType": "uint256",
          "name": "tinyPositionAmount",
          "type": "uint256"
        }
      ],
      "payable": false,
      "stateMutability": "view",
      "type": "function"
    },
    {
      "constant": false,
      "inputs": [
        {
          "internalType": "bytes32",
          "name": "loanId",
          "type": "bytes32"
        },
        {
          "internalType": "address",
          "name": "receiver",
          "type": "address"
        },
        {
          "internalType": "uint256",
          "name": "depositAmount",
          "type": "uint256"
        }
      ],
      "name": "closeWithDeposit",
      "outputs": [
        {
          "internalType": "uint256",
          "name": "loanCloseAmount",
          "type": "uint256"
        },
        {
          "internalType": "uint256",
          "name": "withdrawAmount",
          "type": "uint256"
        },
        {
          "internalType": "address",
          "name": "withdrawToken",
          "type": "address"
        }
      ],
      "payable": true,
      "stateMutability": "payable",
      "type": "function"
    },
    {
      "constant": false,
      "inputs": [
        {
          "internalType": "bytes32",
          "name": "loanId",
          "type": "bytes32"
        },
        {
          "internalType": "address",
          "name": "receiver",
          "type": "address"
        },
        {
          "internalType": "uint256",
          "name": "swapAmount",
          "type": "uint256"
        },
        {
          "internalType": "bool",
          "name": "returnTokenIsCollateral",
          "type": "bool"
        },
        {
          "internalType": "bytes",
          "name": "",
          "type": "bytes"
        }
      ],
      "name": "closeWithSwap",
      "outputs": [
        {
          "internalType": "uint256",
          "name": "loanCloseAmount",
          "type": "uint256"
        },
        {
          "internalType": "uint256",
          "name": "withdrawAmount",
          "type": "uint256"
        },
        {
          "internalType": "address",
          "name": "withdrawToken",
          "type": "address"
        }
      ],
      "payable": false,
      "stateMutability": "nonpayable",
      "type": "function"
    },
    {
      "constant": true,
      "inputs": [
        {
          "internalType": "bytes32",
          "name": "",
          "type": "bytes32"
        },
        {
          "internalType": "address",
          "name": "",
          "type": "address"
        }
      ],
      "name": "delegatedManagers",
      "outputs": [
        {
          "internalType": "bool",
          "name": "",
          "type": "bool"
        }
      ],
      "payable": false,
      "stateMutability": "view",
      "type": "function"
    },
    {
      "constant": true,
      "inputs": [],
      "name": "feeRebatePercent",
      "outputs": [
        {
          "internalType": "uint256",
          "name": "",
          "type": "uint256"
        }
      ],
      "payable": false,
      "stateMutability": "view",
      "type": "function"
    },
    {
      "constant": true,
      "inputs": [],
      "name": "feesController",
      "outputs": [
        {
          "internalType": "address",
          "name": "",
          "type": "address"
        }
      ],
      "payable": false,
      "stateMutability": "view",
      "type": "function"
    },
    {
      "constant": false,
      "inputs": [
        {
          "internalType": "address",
          "name": "target",
          "type": "address"
        }
      ],
      "name": "initialize",
      "outputs": [],
      "payable": false,
      "stateMutability": "nonpayable",
      "type": "function"
    },
    {
      "constant": true,
      "inputs": [],
      "name": "isOwner",
      "outputs": [
        {
          "internalType": "bool",
          "name": "",
          "type": "bool"
        }
      ],
      "payable": false,
      "stateMutability": "view",
      "type": "function"
    },
    {
      "constant": true,
      "inputs": [
        {
          "internalType": "address",
          "name": "",
          "type": "address"
        },
        {
          "internalType": "address",
          "name": "",
          "type": "address"
        }
      ],
      "name": "lenderInterest",
      "outputs": [
        {
          "internalType": "uint256",
          "name": "principalTotal",
          "type": "uint256"
        },
        {
          "internalType": "uint256",
          "name": "owedPerDay",
          "type": "uint256"
        },
        {
          "internalType": "uint256",
          "name": "owedTotal",
          "type": "uint256"
        },
        {
          "internalType": "uint256",
          "name": "paidTotal",
          "type": "uint256"
        },
        {
          "internalType": "uint256",
          "name": "updatedTimestamp",
          "type": "uint256"
        }
      ],
      "payable": false,
      "stateMutability": "view",
      "type": "function"
    },
    {
      "constant": true,
      "inputs": [
        {
          "internalType": "address",
          "name": "",
          "type": "address"
        },
        {
          "internalType": "bytes32",
          "name": "",
          "type": "bytes32"
        }
      ],
      "name": "lenderOrders",
      "outputs": [
        {
          "internalType": "uint256",
          "name": "lockedAmount",
          "type": "uint256"
        },
        {
          "internalType": "uint256",
          "name": "interestRate",
          "type": "uint256"
        },
        {
          "internalType": "uint256",
          "name": "minLoanTerm",
          "type": "uint256"
        },
        {
          "internalType": "uint256",
          "name": "maxLoanTerm",
          "type": "uint256"
        },
        {
          "internalType": "uint256",
          "name": "createdTimestamp",
          "type": "uint256"
        },
        {
          "internalType": "uint256",
          "name": "expirationTimestamp",
          "type": "uint256"
        }
      ],
      "payable": false,
      "stateMutability": "view",
      "type": "function"
    },
    {
      "constant": true,
      "inputs": [],
      "name": "lendingFeePercent",
      "outputs": [
        {
          "internalType": "uint256",
          "name": "",
          "type": "uint256"
        }
      ],
      "payable": false,
      "stateMutability": "view",
      "type": "function"
    },
    {
      "constant": true,
      "inputs": [
        {
          "internalType": "address",
          "name": "",
          "type": "address"
        }
      ],
      "name": "lendingFeeTokensHeld",
      "outputs": [
        {
          "internalType": "uint256",
          "name": "",
          "type": "uint256"
        }
      ],
      "payable": false,
      "stateMutability": "view",
      "type": "function"
    },
    {
      "constant": true,
      "inputs": [
        {
          "internalType": "address",
          "name": "",
          "type": "address"
        }
      ],
      "name": "lendingFeeTokensPaid",
      "outputs": [
        {
          "internalType": "uint256",
          "name": "",
          "type": "uint256"
        }
      ],
      "payable": false,
      "stateMutability": "view",
      "type": "function"
    },
    {
      "constant": true,
      "inputs": [],
      "name": "liquidationIncentivePercent",
      "outputs": [
        {
          "internalType": "uint256",
          "name": "",
          "type": "uint256"
        }
      ],
      "payable": false,
      "stateMutability": "view",
      "type": "function"
    },
    {
      "constant": true,
      "inputs": [
        {
          "internalType": "bytes32",
          "name": "",
          "type": "bytes32"
        }
      ],
      "name": "loanInterest",
      "outputs": [
        {
          "internalType": "uint256",
          "name": "owedPerDay",
          "type": "uint256"
        },
        {
          "internalType": "uint256",
          "name": "depositTotal",
          "type": "uint256"
        },
        {
          "internalType": "uint256",
          "name": "updatedTimestamp",
          "type": "uint256"
        }
      ],
      "payable": false,
      "stateMutability": "view",
      "type": "function"
    },
    {
      "constant": true,
      "inputs": [
        {
          "internalType": "bytes32",
          "name": "",
          "type": "bytes32"
        }
      ],
      "name": "loanParams",
      "outputs": [
        {
          "internalType": "bytes32",
          "name": "id",
          "type": "bytes32"
        },
        {
          "internalType": "bool",
          "name": "active",
          "type": "bool"
        },
        {
          "internalType": "address",
          "name": "owner",
          "type": "address"
        },
        {
          "internalType": "address",
          "name": "loanToken",
          "type": "address"
        },
        {
          "internalType": "address",
          "name": "collateralToken",
          "type": "address"
        },
        {
          "internalType": "uint256",
          "name": "minInitialMargin",
          "type": "uint256"
        },
        {
          "internalType": "uint256",
          "name": "maintenanceMargin",
          "type": "uint256"
        },
        {
          "internalType": "uint256",
          "name": "maxLoanTerm",
          "type": "uint256"
        }
      ],
      "payable": false,
      "stateMutability": "view",
      "type": "function"
    },
    {
      "constant": true,
      "inputs": [
        {
          "internalType": "address",
          "name": "",
          "type": "address"
        }
      ],
      "name": "loanPoolToUnderlying",
      "outputs": [
        {
          "internalType": "address",
          "name": "",
          "type": "address"
        }
      ],
      "payable": false,
      "stateMutability": "view",
      "type": "function"
    },
    {
      "constant": true,
      "inputs": [
        {
          "internalType": "bytes32",
          "name": "",
          "type": "bytes32"
        }
      ],
      "name": "loans",
      "outputs": [
        {
          "internalType": "bytes32",
          "name": "id",
          "type": "bytes32"
        },
        {
          "internalType": "bytes32",
          "name": "loanParamsId",
          "type": "bytes32"
        },
        {
          "internalType": "bytes32",
          "name": "pendingTradesId",
          "type": "bytes32"
        },
        {
          "internalType": "bool",
          "name": "active",
          "type": "bool"
        },
        {
          "internalType": "uint256",
          "name": "principal",
          "type": "uint256"
        },
        {
          "internalType": "uint256",
          "name": "collateral",
          "type": "uint256"
        },
        {
          "internalType": "uint256",
          "name": "startTimestamp",
          "type": "uint256"
        },
        {
          "internalType": "uint256",
          "name": "endTimestamp",
          "type": "uint256"
        },
        {
          "internalType": "uint256",
          "name": "startMargin",
          "type": "uint256"
        },
        {
          "internalType": "uint256",
          "name": "startRate",
          "type": "uint256"
        },
        {
          "internalType": "address",
          "name": "borrower",
          "type": "address"
        },
        {
          "internalType": "address",
          "name": "lender",
          "type": "address"
        }
      ],
      "payable": false,
      "stateMutability": "view",
      "type": "function"
    },
    {
      "constant": true,
      "inputs": [],
      "name": "lockedSOVAddress",
      "outputs": [
        {
          "internalType": "address",
          "name": "",
          "type": "address"
        }
      ],
      "payable": false,
      "stateMutability": "view",
      "type": "function"
    },
    {
      "constant": true,
      "inputs": [
        {
          "internalType": "bytes4",
          "name": "",
          "type": "bytes4"
        }
      ],
      "name": "logicTargets",
      "outputs": [
        {
          "internalType": "address",
          "name": "",
          "type": "address"
        }
      ],
      "payable": false,
      "stateMutability": "view",
      "type": "function"
    },
    {
      "constant": true,
      "inputs": [],
      "name": "maxDisagreement",
      "outputs": [
        {
          "internalType": "uint256",
          "name": "",
          "type": "uint256"
        }
      ],
      "payable": false,
      "stateMutability": "view",
      "type": "function"
    },
    {
      "constant": true,
      "inputs": [],
      "name": "maxSwapSize",
      "outputs": [
        {
          "internalType": "uint256",
          "name": "",
          "type": "uint256"
        }
      ],
      "payable": false,
      "stateMutability": "view",
      "type": "function"
    },
    {
      "constant": true,
      "inputs": [],
      "name": "minReferralsToPayout",
      "outputs": [
        {
          "internalType": "uint256",
          "name": "",
          "type": "uint256"
        }
      ],
      "payable": false,
      "stateMutability": "view",
      "type": "function"
    },
    {
      "constant": true,
      "inputs": [],
      "name": "owner",
      "outputs": [
        {
          "internalType": "address",
          "name": "",
          "type": "address"
        }
      ],
      "payable": false,
      "stateMutability": "view",
      "type": "function"
    },
    {
      "constant": true,
      "inputs": [],
      "name": "pause",
      "outputs": [
        {
          "internalType": "bool",
          "name": "",
          "type": "bool"
        }
      ],
      "payable": false,
      "stateMutability": "view",
      "type": "function"
    },
    {
      "constant": true,
      "inputs": [],
      "name": "paySwapExcessToBorrowerThreshold",
      "outputs": [
        {
          "internalType": "uint256",
          "name": "",
          "type": "uint256"
        }
      ],
      "payable": false,
      "stateMutability": "view",
      "type": "function"
    },
    {
      "constant": true,
      "inputs": [],
      "name": "priceFeeds",
      "outputs": [
        {
          "internalType": "address",
          "name": "",
          "type": "address"
        }
      ],
      "payable": false,
      "stateMutability": "view",
      "type": "function"
    },
    {
      "constant": true,
      "inputs": [],
      "name": "protocolAddress",
      "outputs": [
        {
          "internalType": "address",
          "name": "",
          "type": "address"
        }
      ],
      "payable": false,
      "stateMutability": "view",
      "type": "function"
    },
    {
      "constant": true,
      "inputs": [],
      "name": "protocolTokenAddress",
      "outputs": [
        {
          "internalType": "address",
          "name": "",
          "type": "address"
        }
      ],
      "payable": false,
      "stateMutability": "view",
      "type": "function"
    },
    {
      "constant": true,
      "inputs": [],
      "name": "protocolTokenHeld",
      "outputs": [
        {
          "internalType": "uint256",
          "name": "",
          "type": "uint256"
        }
      ],
      "payable": false,
      "stateMutability": "view",
      "type": "function"
    },
    {
      "constant": true,
      "inputs": [],
      "name": "protocolTokenPaid",
      "outputs": [
        {
          "internalType": "uint256",
          "name": "",
          "type": "uint256"
        }
      ],
      "payable": false,
      "stateMutability": "view",
      "type": "function"
    },
    {
      "constant": true,
      "inputs": [],
      "name": "rolloverBaseReward",
      "outputs": [
        {
          "internalType": "uint256",
          "name": "",
          "type": "uint256"
        }
      ],
      "payable": false,
      "stateMutability": "view",
      "type": "function"
    },
    {
      "constant": true,
      "inputs": [],
      "name": "rolloverFlexFeePercent",
      "outputs": [
        {
          "internalType": "uint256",
          "name": "",
          "type": "uint256"
        }
      ],
      "payable": false,
      "stateMutability": "view",
      "type": "function"
    },
    {
      "constant": true,
      "inputs": [],
      "name": "sourceBuffer",
      "outputs": [
        {
          "internalType": "uint256",
          "name": "",
          "type": "uint256"
        }
      ],
      "payable": false,
      "stateMutability": "view",
      "type": "function"
    },
    {
      "constant": true,
      "inputs": [],
      "name": "sovTokenAddress",
      "outputs": [
        {
          "internalType": "address",
          "name": "",
          "type": "address"
        }
      ],
      "payable": false,
      "stateMutability": "view",
      "type": "function"
    },
    {
      "constant": true,
      "inputs": [],
      "name": "sovrynSwapContractRegistryAddress",
      "outputs": [
        {
          "internalType": "address",
          "name": "",
          "type": "address"
        }
      ],
      "payable": false,
      "stateMutability": "view",
      "type": "function"
    },
    {
      "constant": true,
      "inputs": [
        {
          "internalType": "address",
          "name": "",
          "type": "address"
        },
        {
          "internalType": "address",
          "name": "",
          "type": "address"
        }
      ],
      "name": "specialRebates",
      "outputs": [
        {
          "internalType": "uint256",
          "name": "",
          "type": "uint256"
        }
      ],
      "payable": false,
      "stateMutability": "view",
      "type": "function"
    },
    {
      "constant": true,
      "inputs": [
        {
          "internalType": "address",
          "name": "",
          "type": "address"
        }
      ],
      "name": "supportedTokens",
      "outputs": [
        {
          "internalType": "bool",
          "name": "",
          "type": "bool"
        }
      ],
      "payable": false,
      "stateMutability": "view",
      "type": "function"
    },
    {
      "constant": true,
      "inputs": [],
      "name": "swapsImpl",
      "outputs": [
        {
          "internalType": "address",
          "name": "",
          "type": "address"
        }
      ],
      "payable": false,
      "stateMutability": "view",
      "type": "function"
    },
    {
      "constant": true,
      "inputs": [],
      "name": "tradingFeePercent",
      "outputs": [
        {
          "internalType": "uint256",
          "name": "",
          "type": "uint256"
        }
      ],
      "payable": false,
      "stateMutability": "view",
      "type": "function"
    },
    {
      "constant": true,
      "inputs": [
        {
          "internalType": "address",
          "name": "",
          "type": "address"
        }
      ],
      "name": "tradingFeeTokensHeld",
      "outputs": [
        {
          "internalType": "uint256",
          "name": "",
          "type": "uint256"
        }
      ],
      "payable": false,
      "stateMutability": "view",
      "type": "function"
    },
    {
      "constant": true,
      "inputs": [
        {
          "internalType": "address",
          "name": "",
          "type": "address"
        }
      ],
      "name": "tradingFeeTokensPaid",
      "outputs": [
        {
          "internalType": "uint256",
          "name": "",
          "type": "uint256"
        }
      ],
      "payable": false,
      "stateMutability": "view",
      "type": "function"
    },
    {
      "constant": false,
      "inputs": [
        {
          "internalType": "address",
          "name": "newOwner",
          "type": "address"
        }
      ],
      "name": "transferOwnership",
      "outputs": [],
      "payable": false,
      "stateMutability": "nonpayable",
      "type": "function"
    },
    {
      "constant": true,
      "inputs": [
        {
          "internalType": "address",
          "name": "",
          "type": "address"
        }
      ],
      "name": "underlyingToLoanPool",
      "outputs": [
        {
          "internalType": "address",
          "name": "",
          "type": "address"
        }
      ],
      "payable": false,
      "stateMutability": "view",
      "type": "function"
    },
    {
      "constant": true,
      "inputs": [
        {
          "internalType": "address",
          "name": "",
          "type": "address"
        }
      ],
      "name": "userNotFirstTradeFlag",
      "outputs": [
        {
          "internalType": "bool",
          "name": "",
          "type": "bool"
        }
      ],
      "payable": false,
      "stateMutability": "view",
      "type": "function"
    },
    {
      "constant": true,
      "inputs": [],
      "name": "wrbtcToken",
      "outputs": [
        {
          "internalType": "contract IWrbtcERC20",
          "name": "",
          "type": "address"
        }
      ],
      "payable": false,
      "stateMutability": "view",
      "type": "function"
    }
  ],
  "bytecode": {
    "object": "0x60806040526001600055678ac7230489e80000601555670214e8348c4f000060185567013fbe85edc90000601b55674563918244f40000602055674563918244f40000602155674563918244f400006027556127106028556802b5e3af16b1880000602955650f478e084000602b5567016345785d8a0000602c556802b5e3af16b1880000602f5560036035556801158e460913d000006039556000620000ab620000ff60201b60201c565b600180546001600160a01b0319166001600160a01b038316908117909155604051919250906000907f8be0079c531659141344cd1fd0a4f28419497f9722a3daafe3b4186f6b6457e0908290a35062000103565b3390565b6155ae80620001136000396000f3fe6080604052600436106103815760003560e01c80638f32d59b116101d1578063cd5d808d11610102578063f0e085f5116100a0578063f706b1f21161006f578063f706b1f2146109f3578063f851a44014610a08578063f8dd4f0e14610a1d578063f8de21d214610a3257610381565b8063f0e085f514610994578063f2fde38b146109a9578063f589a3e7146109c9578063f6ddc8b3146109de57610381565b8063d485045e116100dc578063d485045e14610935578063e8f6276414610955578063edab119f1461096a578063ee54a4ec1461097f57610381565b8063cd5d808d146108eb578063d288208c1461090b578063d473c2da1461092057610381565b8063b7e152411161016f578063bdee453c11610149578063bdee453c1461083d578063c4a908151461085d578063c4d66de814610895578063cb6eacd1146108b757610381565b8063b7e15241146107f3578063b9cffa3e14610813578063ba4861e91461082857610381565b8063acc04348116101ab578063acc0434814610787578063ae0a85301461079c578063afe84009146107b1578063b30643d9146107d357610381565b80638f32d59b1461073d57806392d894f814610752578063959083d31461077257610381565b80634699f846116102b65780637420ca3e116102545780637a8faeb8116102235780637a8faeb8146106de5780638456cb59146106f35780638da5cb5b146107085780638dc48ba51461071d57610381565b80637420ca3e14610671578063742e6798146106865780637523e6d91461069b57806378d849ed146106c957610381565b8063574442cc11610290578063574442cc146105eb57806362fff3f61461060057806368c4ac26146106315780636e6637301461065157610381565b80634699f846146105925780634f28cac2146105a7578063569fc1fb146105bc57610381565b80632f47076411610323578063366f513b116102fd578063366f513b146105105780633fca506e146105325780634115a2b6146105525780634203e3951461057257610381565b80632f470764146104bb5780633432423c146104d05780633452d2d4146104f057610381565b80631b7bde741161035f5780631b7bde741461042c578063218b39c61461045957806324cc5749146104795780632a324027146104a657610381565b8063065d810f146103af5780630676c1b7146103ea57806317548b791461040c575b34801561038d57600080fd5b5060405162461bcd60e51b81526004016103a6906152c2565b60405180910390fd5b3480156103bb57600080fd5b506103cf6103ca36600461441c565b610a52565b6040516103e196959493929190615401565b60405180910390f35b3480156103f657600080fd5b506103ff610a92565b6040516103e19190614e01565b34801561041857600080fd5b506103ff6104273660046145a0565b610aa1565b34801561043857600080fd5b5061044c6104473660046143e2565b610abc565b6040516103e191906153a2565b34801561046557600080fd5b506103ff6104743660046143c4565b610ad9565b34801561048557600080fd5b506104996104943660046143c4565b610af4565b6040516103e1919061500d565b3480156104b257600080fd5b5061044c610b09565b3480156104c757600080fd5b5061044c610b0f565b3480156104dc57600080fd5b506103cf6104eb36600461441c565b610b15565b3480156104fc57600080fd5b5061044c61050b3660046143c4565b610b55565b61052361051e3660046144a7565b610b67565b6040516103e1939291906153b0565b34801561053e57600080fd5b5061044c61054d3660046143c4565b610d17565b34801561055e57600080fd5b5061049961056d366004614488565b610d29565b34801561057e57600080fd5b5061044c61058d3660046143c4565b610d49565b34801561059e57600080fd5b5061044c610d5b565b3480156105b357600080fd5b5061044c610d61565b3480156105c857600080fd5b506105dc6105d736600461446a565b610d67565b6040516103e1939291906153d8565b3480156105f757600080fd5b5061044c610d88565b34801561060c57600080fd5b5061062061061b3660046143e2565b610d8e565b6040516103e19594939291906153e6565b34801561063d57600080fd5b5061049961064c3660046143c4565b610dc8565b34801561065d57600080fd5b506103ff61066c3660046143c4565b610ddd565b34801561067d57600080fd5b506103ff610df8565b34801561069257600080fd5b5061044c610e07565b3480156106a757600080fd5b506106bb6106b6366004614581565b610e0d565b6040516103e192919061501b565b3480156106d557600080fd5b506103ff611033565b3480156106ea57600080fd5b5061044c611042565b3480156106ff57600080fd5b50610499611048565b34801561071457600080fd5b506103ff611051565b34801561072957600080fd5b506103ff6107383660046143c4565b611060565b34801561074957600080fd5b5061049961107b565b34801561075e57600080fd5b5061044c61076d3660046143c4565b6110a1565b34801561077e57600080fd5b5061044c6110b3565b34801561079357600080fd5b5061044c6110b9565b3480156107a857600080fd5b5061044c6110bf565b3480156107bd57600080fd5b506107c66110c5565b6040516103e19190615153565b3480156107df57600080fd5b5061044c6107ee3660046143c4565b6110d4565b3480156107ff57600080fd5b5061044c61080e3660046143c4565b6110e6565b34801561081f57600080fd5b506103ff6110f8565b34801561083457600080fd5b506103ff611107565b34801561084957600080fd5b5061044c6108583660046143c4565b611116565b34801561086957600080fd5b5061087d61087836600461446a565b611128565b6040516103e19c9b9a999897969594939291906150a0565b3480156108a157600080fd5b506108b56108b03660046143c4565b61119a565b005b3480156108c357600080fd5b506108d76108d236600461446a565b611280565b6040516103e1989796959493929190615029565b3480156108f757600080fd5b5061044c6109063660046143e2565b6112d2565b34801561091757600080fd5b506103ff6112ef565b34801561092c57600080fd5b5061044c6112fe565b34801561094157600080fd5b5061044c6109503660046143c4565b611304565b34801561096157600080fd5b506103ff611316565b34801561097657600080fd5b5061044c611325565b34801561098b57600080fd5b5061044c61132b565b3480156109a057600080fd5b5061044c611335565b3480156109b557600080fd5b506108b56109c43660046143c4565b61133b565b3480156109d557600080fd5b5061044c61136b565b3480156109ea57600080fd5b5061044c611371565b3480156109ff57600080fd5b506103ff611377565b348015610a1457600080fd5b506103ff611386565b348015610a2957600080fd5b5061044c611395565b348015610a3e57600080fd5b50610523610a4d3660046144f4565b61139f565b6009602090815260009283526040808420909152908252902080546001820154600283015460038401546004850154600590950154939492939192909186565b6031546001600160a01b031681565b6005602052600090815260409020546001600160a01b031681565b603b60209081526000928352604080842090915290825290205481565b6023602052600090815260409020546001600160a01b031681565b60326020526000908152604090205460ff1681565b60185481565b601f5481565b6008602090815260009283526040808420909152908252902080546001820154600283015460038401546004850154600590950154939492939192909186565b601a6020526000908152604090205481565b6000806000600160005414610b8e5760405162461bcd60e51b81526004016103a690615322565b6002600081905550600073ba10edd6abc7696eae685839217bdcc42139612b6001600160a01b031663ed04e1c36040518163ffffffff1660e01b8152600401602060405180830381600087803b158015610be757600080fd5b505af1158015610bfb573d6000803e3d6000fd5b505050506040513d601f19601f82011682018060405250610c1f91908101906145be565b603d54909150879060ff1615610c475760405162461bcd60e51b81526004016103a690615182565b610c5088611562565b610c5b8888886115c6565b9450945094505073ba10edd6abc7696eae685839217bdcc42139612b6001600160a01b0316633fa4f2456040518163ffffffff1660e01b815260040160206040518083038186803b158015610caf57600080fd5b505afa158015610cc3573d6000803e3d6000fd5b505050506040513d601f19601f82011682018060405250610ce791908101906145be565b8114610d055760405162461bcd60e51b81526004016103a690615172565b50600160008190555093509350939050565b602a6020526000908152604090205481565b600a60209081526000928352604080842090915290825290205460ff1681565b60166020526000908152604090205481565b60155481565b60295481565b600c6020526000908152604090208054600182015460029092015490919083565b602b5481565b600b602090815260009283526040808420909152908252902080546001820154600283015460038401546004909401549293919290919085565b60266020526000908152604090205460ff1681565b6033602052600090815260409020546001600160a01b031681565b6003546001600160a01b031681565b60355481565b600080610e18614286565b610e206142ea565b610e29866118eb565b60405180610100016040529081600082015481526020016001820160009054906101000a900460ff161515151581526020016001820160019054906101000a90046001600160a01b03166001600160a01b03166001600160a01b031681526020016002820160009054906101000a90046001600160a01b03166001600160a01b03166001600160a01b031681526020016003820160009054906101000a90046001600160a01b03166001600160a01b03166001600160a01b0316815260200160048201548152602001600582015481526020016006820154815250509150604051806101800160405290816000820154815260200160018201548152602001600282015481526020016003820160009054906101000a900460ff16151515158152602001600482015481526020016005820154815260200160068201548152602001600782015481526020016008820154815260200160098201548152602001600a820160009054906101000a90046001600160a01b03166001600160a01b03166001600160a01b03168152602001600b820160009054906101000a90046001600160a01b03166001600160a01b03166001600160a01b0316815250509150816080015185101561102a576000858360800151039050600061100f83606001518361195a565b905065e35fa931a00081101561102757600195508094505b50505b50509250929050565b6002546001600160a01b031681565b601e5481565b603d5460ff1681565b6001546001600160a01b031690565b6022602052600090815260409020546001600160a01b031681565b6001546000906001600160a01b0316611092611a0b565b6001600160a01b031614905090565b60176020526000908152604090205481565b602c5481565b602f5481565b60205481565b602d546001600160a01b031681565b601d6020526000908152604090205481565b601c6020526000908152604090205481565b6037546001600160a01b031681565b6004546001600160a01b031681565b60366020526000908152604090205481565b600660208190526000918252604090912080546001820154600283015460038401546004850154600586015496860154600787015460088801546009890154600a8a0154600b909a0154989a9799969860ff909616979496949593949293919290916001600160a01b0391821691168c565b6111a261107b565b6111be5760405162461bcd60e51b81526004016103a690615262565b63366f513b60e01b600081905260056020527ff4ddf72383625730676ae80f4e72796030e502d9e3dce442215377f640213bd6546001600160a01b0316906112069083611a0f565b611217637c6f10e960e11b83611a0f565b611228637523e6d960e01b83611a0f565b6f098dec2dc86d8dee6d2dccee6aed2e8d60831b826001600160a01b0316826001600160a01b03167f1420e3a2094d671bc2eb897941fa3d94ffa37f0cb6d530651946250a2151cb7f60405160405180910390a45050565b6007602052600090815260409020805460018201546002830154600384015460048501546005860154600690960154949560ff8516956101009095046001600160a01b03908116959481169493169288565b603c60209081526000928352604080842090915290825290205481565b6038546001600160a01b031681565b60275481565b60196020526000908152604090205481565b6014546001600160a01b031681565b601b5481565b6509184e72a00081565b60285481565b61134361107b565b61135f5760405162461bcd60e51b81526004016103a690615262565b61136881611a8a565b50565b60395481565b60215481565b602e546001600160a01b031681565b6030546001600160a01b031681565b65e35fa931a00081565b60008060006001600054146113c65760405162461bcd60e51b81526004016103a690615322565b6002600081905550600073ba10edd6abc7696eae685839217bdcc42139612b6001600160a01b031663ed04e1c36040518163ffffffff1660e01b8152600401602060405180830381600087803b15801561141f57600080fd5b505af1158015611433573d6000803e3d6000fd5b505050506040513d601f19601f8201168201806040525061145791908101906145be565b603d54909150899060ff161561147f5760405162461bcd60e51b81526004016103a690615182565b6114888a611562565b6114a48a8a8a8a60405180602001604052806000815250611b0c565b9450945094505073ba10edd6abc7696eae685839217bdcc42139612b6001600160a01b0316633fa4f2456040518163ffffffff1660e01b815260040160206040518083038186803b1580156114f857600080fd5b505afa15801561150c573d6000803e3d6000fd5b505050506040513d601f19601f8201168201806040525061153091908101906145be565b811461154e5760405162461bcd60e51b81526004016103a690615172565b506001600081905550955095509592505050565b6000818152600660205260409020600a8101546001600160a01b03163314806115a6575080546000908152600a6020908152604080832033845290915290205460ff165b6115c25760405162461bcd60e51b81526004016103a690615262565b5050565b60008080836115e75760405162461bcd60e51b81526004016103a6906152b2565b6000806115f3886118eb565b9150915081600401548611611608578561160e565b81600401545b6004830154909550859003801561165c57600282015465e35fa931a0009061163f906001600160a01b03168361195a565b1161165c5760405162461bcd60e51b81526004016103a690615272565b600061182584604051806101800160405290816000820154815260200160018201548152602001600282015481526020016003820160009054906101000a900460ff16151515158152602001600482015481526020016005820154815260200160068201548152602001600782015481526020016008820154815260200160098201548152602001600a820160009054906101000a90046001600160a01b03166001600160a01b03166001600160a01b03168152602001600b820160009054906101000a90046001600160a01b03166001600160a01b03166001600160a01b0316815250508460405180610100016040529081600082015481526020016001820160009054906101000a900460ff161515151581526020016001820160019054906101000a90046001600160a01b03166001600160a01b03166001600160a01b031681526020016002820160009054906101000a90046001600160a01b03166001600160a01b03166001600160a01b031681526020016003820160009054906101000a90046001600160a01b03166001600160a01b03166001600160a01b031681526020016004820154815260200160058201548152602001600682015481525050898c6122a5565b9050801561184e576002830154600b85015461184e916001600160a01b03908116911683612313565b83600401548714156118665783600501549550611894565b611891846004015461188589876005015461243990919063ffffffff16565b9063ffffffff61247a16565b95505b60038301546001600160a01b0316945085156118cf5760058401546118bf908763ffffffff6124bc16565b60058501556118cf858a886124fe565b6118de8484898960008061252f565b5050505093509350939050565b6000818152600660209081526040808320600181015484526007909252822060038201548392919060ff166119325760405162461bcd60e51b81526004016103a690615312565b80546119505760405162461bcd60e51b81526004016103a6906152a2565b9092509050915091565b600254602d54604051630a7549df60e21b8152600092839283926001600160a01b03928316926329d5277c92611998928a9290911690600401614e77565b604080518083038186803b1580156119af57600080fd5b505afa1580156119c3573d6000803e3d6000fd5b505050506040513d601f19601f820116820180604052506119e791908101906145dc565b9092509050611a0081611885868563ffffffff61243916565b925050505b92915050565b3390565b6001600160e01b03198216600090815260056020526040902080546001600160a01b0319166001600160a01b03831690811790915515611a6a57611a64600d6001600160e01b0319841663ffffffff61284016565b506115c2565b611a85600d6001600160e01b0319841663ffffffff61288816565b505050565b6001600160a01b038116611ab05760405162461bcd60e51b81526004016103a6906151a2565b6001546040516001600160a01b038084169216907f8be0079c531659141344cd1fd0a4f28419497f9722a3daafe3b4186f6b6457e090600090a3600180546001600160a01b0319166001600160a01b0392909216919091179055565b6000808085611b2d5760405162461bcd60e51b81526004016103a690615302565b600080611b398a6118eb565b9150915081600501548811611b4e5787611b54565b81600501545b97506000888360050154031115611b9c576003810154600583015465e35fa931a00091611b8f916001600160a01b03909116908b900361195a565b11611b9c57816005015497505b60008260050154891480611bad5750875b15611dd45782600501548914611be157611bdc83600501546118858b866004015461243990919063ffffffff16565b611be7565b82600401545b955085611c065760405162461bcd60e51b81526004016103a6906152e2565b611dcd83604051806101800160405290816000820154815260200160018201548152602001600282015481526020016003820160009054906101000a900460ff16151515158152602001600482015481526020016005820154815260200160068201548152602001600782015481526020016008820154815260200160098201548152602001600a820160009054906101000a90046001600160a01b03166001600160a01b03166001600160a01b03168152602001600b820160009054906101000a90046001600160a01b03166001600160a01b03166001600160a01b0316815250508360405180610100016040529081600082015481526020016001820160009054906101000a900460ff161515151581526020016001820160019054906101000a90046001600160a01b03166001600160a01b03166001600160a01b031681526020016002820160009054906101000a90046001600160a01b03166001600160a01b03166001600160a01b031681526020016003820160009054906101000a90046001600160a01b03166001600160a01b03166001600160a01b031681526020016004820154815260200160058201548152602001600682015481525050888d6122a5565b9050611dd8565b5060005b600080611fa485604051806101800160405290816000820154815260200160018201548152602001600282015481526020016003820160009054906101000a900460ff16151515158152602001600482015481526020016005820154815260200160068201548152602001600782015481526020016008820154815260200160098201548152602001600a820160009054906101000a90046001600160a01b03166001600160a01b03166001600160a01b03168152602001600b820160009054906101000a90046001600160a01b03166001600160a01b03166001600160a01b0316815250508560405180610100016040529081600082015481526020016001820160009054906101000a900460ff161515151581526020016001820160019054906101000a90046001600160a01b03166001600160a01b03166001600160a01b031681526020016002820160009054906101000a90046001600160a01b03166001600160a01b03166001600160a01b031681526020016003820160009054906101000a90046001600160a01b03166001600160a01b03166001600160a01b0316815260200160048201548152602001600582015481526020016006820154815250508d868e8e612949565b9d5098509092509050826121e95781975084600401548214611fdc576005850154611fd9906118858a8463ffffffff61243916565b97505b87611ff95760405162461bcd60e51b81526004016103a6906152e2565b6121c085604051806101800160405290816000820154815260200160018201548152602001600282015481526020016003820160009054906101000a900460ff16151515158152602001600482015481526020016005820154815260200160068201548152602001600782015481526020016008820154815260200160098201548152602001600a820160009054906101000a90046001600160a01b03166001600160a01b03166001600160a01b03168152602001600b820160009054906101000a90046001600160a01b03166001600160a01b03166001600160a01b0316815250508560405180610100016040529081600082015481526020016001820160009054906101000a900460ff161515151581526020016001820160019054906101000a90046001600160a01b03166001600160a01b03166001600160a01b031681526020016002820160009054906101000a90046001600160a01b03166001600160a01b03166001600160a01b031681526020016003820160009054906101000a90046001600160a01b03166001600160a01b03166001600160a01b0316815260200160048201548152602001600582015481526020016006820154815250508a8f6122a5565b92506121e2836121d6898563ffffffff612a6516565b9063ffffffff6124bc16565b96506121ed565b8192505b8261220a5760405162461bcd60e51b81526004016103a690615332565b801561222b576005850154612225908263ffffffff6124bc16565b60058601555b6002840154600b86015461224c916001600160a01b03908116911685612a8a565b896122645760028401546001600160a01b0316612273565b60038401546001600160a01b03165b9550861561228657612286868d896124fe565b61229585858a848f600161252f565b5050505050955095509592505050565b600082816122b4868884612afa565b905060008183106122cd575090819003906000906122eb565b50600091908190039081156122eb576122eb876060015186846124fe565b801561230557612305876060015189610160015183612a8a565b50909150505b949350505050565b801561241b573461232f5761232a83338484612c98565b612416565b602d546001600160a01b0384811691161461235c5760405162461bcd60e51b81526004016103a6906151c2565b8034101561237c5760405162461bcd60e51b81526004016103a690615392565b602d60009054906101000a90046001600160a01b03166001600160a01b031663d0e30db0826040518263ffffffff1660e01b81526004016000604051808303818588803b1580156123cc57600080fd5b505af11580156123e0573d6000803e3d6000fd5b505050506001600160a01b038316301490506124025761240283308484612c98565b803411156124165761241633823403612cef565b611a85565b3415611a855760405162461bcd60e51b81526004016103a6906151c2565b60008261244857506000611a05565b8282028284828161245557fe5b04146124735760405162461bcd60e51b81526004016103a690615252565b9392505050565b600061247383836040518060400160405280601a81526020017f536166654d6174683a206469766973696f6e206279207a65726f000000000000815250612d8b565b600061247383836040518060400160405280601e81526020017f536166654d6174683a207375627472616374696f6e206f766572666c6f770000815250612dc2565b8015611a8557602d546001600160a01b0384811691161415612524576124168282612dee565b611a85838383612a8a565b6125398685612ec5565b60028054908601546003870154600489015460058a01546040516001600160a01b0395861695600095869586956060958a956317f8680960e11b956125879581169416929190602401614f63565b60408051601f198184030181529181526020820180516001600160e01b03166001600160e01b03199094169390931790925290516125c59190614dea565b600060405180830381855afa9150503d8060008114612600576040519150601f19603f3d011682016040523d82523d6000602084013e612605565b606091505b509150915060018214156126225760208101519350604081015192505b600086600281111561263057fe5b148061263e575060048b0154155b8061264c5750896005015484115b6126685760405162461bcd60e51b81526004016103a690615282565b6128338a60405180610100016040529081600082015481526020016001820160009054906101000a900460ff161515151581526020016001820160019054906101000a90046001600160a01b03166001600160a01b03166001600160a01b031681526020016002820160009054906101000a90046001600160a01b03166001600160a01b03166001600160a01b031681526020016003820160009054906101000a90046001600160a01b03166001600160a01b03166001600160a01b0316815260200160048201548152602001600582015481526020016006820154815250508c604051806101800160405290816000820154815260200160018201548152602001600282015481526020016003820160009054906101000a900460ff16151515158152602001600482015481526020016005820154815260200160068201548152602001600782015481526020016008820154815260200160098201548152602001600a820160009054906101000a90046001600160a01b03166001600160a01b03166001600160a01b03168152602001600b820160009054906101000a90046001600160a01b03166001600160a01b03166001600160a01b0316815250508b8b878c8a8d612f9c565b5050505050505050505050565b600061284c838361316f565b6128805750600180830180548083018083556000928352602080842090920185905584835290859052604090912055611a05565b506000611a05565b6000612894838361316f565b15612880576000828152602084905260409020546001840154600019918201910180821461290c5760008560010182815481106128cd57fe5b90600052602060002001549050808660010184815481106128ea57fe5b6000918252602080832090910192909255918252869052604090206001830190555b6000848152602086905260408120556001850180548061292857fe5b60019003818190600052602060002001600090559055600192505050611a05565b6000806000806000806129608c8c8c8c8c8c613184565b9450909250905087156129c557889550858211156129ac576129888b60600151878403613214565b156129a8576129a38b606001518d61014001518885036124fe565b6129ac565b8195505b808a116129ba5760006129be565b808a035b9350612a45565b8981146129e45760405162461bcd60e51b81526004016103a690615292565b8b60a001518a14156129fd578895508882039350612a45565b8b608001518210612a3d578b6080015195508b6080015182039350612a328b608001518d6101400151838f60a00151036124fe565b5060a08b0151612a45565b819550600093505b898111612a525789612a54565b805b945050509650965096509692505050565b6000828201838110156124735760405162461bcd60e51b81526004016103a6906151b2565b8015611a8557612aaa6001600160a01b038416838363ffffffff61321c16565b816001600160a01b0316836001600160a01b03167fc44aeefa68e8b9c1ad5f7be4b0dd194580f81f5c362862e72196503a320eb7a183604051612aed91906153a2565b60405180910390a3505050565b6000612b0f8361016001518560600151613275565b82516000908152600c602090815260408083206101608701516001600160a01b039081168552600b845282852060608a0151909116855290925290912060e08501514290811115612b61575060e08501515b612b8083876000015189606001518a608001518a610140015186613359565b60008660800151861015612bb15760808701518454612baa9190611885908963ffffffff61243916565b9050612bb5565b5082545b8354612bc7908263ffffffff6124bc16565b84556001830154612bde908263ffffffff6124bc16565b600184015560e0870151600090612bfb908463ffffffff6124bc16565b9050612c0d818363ffffffff61243916565b9050612c22816201518063ffffffff61247a16565b90508760800151871015612c4f576001850154612c45908263ffffffff6124bc16565b6001860155612c57565b600060018601555b8354612c69908863ffffffff6124bc16565b84556002840154818111612c7e576000612c82565b8181035b6002909501949094559450505050509392505050565b8015612ce9576001600160a01b038316301415612cce57612cc96001600160a01b038516838363ffffffff61321c16565b612ce9565b612ce96001600160a01b03851684848463ffffffff6133b416565b50505050565b80471015612d0f5760405162461bcd60e51b81526004016103a690615212565b6000826001600160a01b031682604051612d2890614df6565b60006040518083038185875af1925050503d8060008114612d65576040519150601f19603f3d011682016040523d82523d6000602084013e612d6a565b606091505b5050905080611a855760405162461bcd60e51b81526004016103a690615202565b60008183612dac5760405162461bcd60e51b81526004016103a69190615161565b506000838581612db857fe5b0495945050505050565b60008184841115612de65760405162461bcd60e51b81526004016103a69190615161565b505050900390565b80156115c257602d546001600160a01b03164780831115612e6a57604051632e1a7d4d60e01b81526001600160a01b03831690632e1a7d4d90612e3790848703906004016153a2565b600060405180830381600087803b158015612e5157600080fd5b505af1158015612e65573d6000803e3d6000fd5b505050505b612e748484612cef565b836001600160a01b0316826001600160a01b03167fc44aeefa68e8b9c1ad5f7be4b0dd194580f81f5c362862e72196503a320eb7a185604051612eb791906153a2565b60405180910390a350505050565b80612ee25760405162461bcd60e51b81526004016103a6906152d2565b8160040154811415612f7e5760006004830181905560038301805460ff1916905542600784015560028301558154612f2290600f9063ffffffff61288816565b508154600b8301546001600160a01b03166000908152601160205260409020612f509163ffffffff61288816565b508154600a8301546001600160a01b03166000908152601260205260409020611a649163ffffffff61288816565b6004820154612f93908263ffffffff6124bc16565b60048301555050565b6000816002811115612faa57fe5b14156130235786600001518761016001516001600160a01b03168861014001516001600160a01b03167f6349c1a02ec126f7f4fc6e6837e1859006e90e9901635c442d29271e77b96fb6338c606001518d608001518c8c8c8b6040516130169796959493929190614e0f565b60405180910390a4613165565b600181600281111561303157fe5b14156130e2578215613059576130566ec097ce7bc90715b34b9f10000000008461247a565b92505b811561307c576130796f4b3b4ca85a86c47a098a2240000000008361247a565b91505b86600001518761016001516001600160a01b03168861014001516001600160a01b03167f2ed7b29b4ca95cf3bb9a44f703872a66e6aa5e8f07b675fa9a5c124a1e5d73528b608001518c60600151338b8d8b8b6040516130169796959493929190614e92565b60028160028111156130f057fe5b1415613165578660000151336001600160a01b03168861014001516001600160a01b03167f46fa03303782eb2f686515f6c0100f9a62dabe587b0d3f5a4fc0c822d6e532d38a61016001518c606001518d608001518c8c8c8b60405161315c9796959493929190614f2d565b60405180910390a45b5050505050505050565b60009081526020919091526040902054151590565b60008060006131bd896000015189608001518a606001518c61014001518b8e60a001518b6131b35760006131b5565b8c5b60008c6133d8565b91945092509050858310156131e45760405162461bcd60e51b81526004016103a690615242565b8860a001518211156132085760405162461bcd60e51b81526004016103a6906151f2565b96509650969350505050565b600192915050565b604051611a8590849063a9059cbb60e01b9061323e9086908690602401614fd7565b60408051601f198184030181529190526020810180516001600160e01b03166001600160e01b031990931692909217909152613536565b6001600160a01b038083166000908152600b6020908152604080832093851683529290529081206001810154909190158015906132b55750600482015415155b1561334d576132ec6201518061188584600101546132e08660040154426124bc90919063ffffffff16565b9063ffffffff61243916565b4260048401556002830154909150811115613308575060028101545b8015612cc9576003820154613323908263ffffffff612a6516565b6003830155600282015461333d908263ffffffff6124bc16565b6002830155612cc984848361361b565b42600483015550505050565b600061338f6a07259756a8d619980000006118856015546132e08b600001546132e08d60020154896124bc90919063ffffffff16565b60028801839055905080156133ab576133ab83878787856136b2565b50505050505050565b604051612ce99085906323b872dd60e01b9061323e90879087908790602401614f3b565b6040805160a0810182526001600160a01b03808b16825289811660208084019190915230838501819052606080850191909152918a1660808401528351918201845288825281018790529182018590526000918291829161343d91908e888886613b17565b909350915061344c8b83613d3c565b600254602754604051631e2c62d360e01b81526001600160a01b0390921691631e2c62d391613485918f918f9188918a91600401614f8b565b60206040518083038186803b15801561349d57600080fd5b505afa1580156134b1573d6000803e3d6000fd5b505050506040513d601f19601f820116820180604052506134d591908101906145be565b9050896001600160a01b03168b6001600160a01b03168d7fb4eb3c9b62efcce7021cba5fd9cd0c44df91c2272806ccc5e57df7c912e8d7168c868860405161351f93929190614ff2565b60405180910390a499509950999650505050505050565b613548826001600160a01b0316613e0a565b6135645760405162461bcd60e51b81526004016103a690615382565b60006060836001600160a01b0316836040516135809190614dea565b6000604051808303816000865af19150503d80600081146135bd576040519150601f19603f3d011682016040523d82523d6000602084013e6135c2565b606091505b5091509150816135e45760405162461bcd60e51b81526004016103a6906151d2565b805115612ce957808060200190516135ff919081019061444c565b612ce95760405162461bcd60e51b81526004016103a690615352565b600061363f68056bc75e2d631000006118856015548561243990919063ffffffff16565b905061364c848483613e43565b6136668385613661858563ffffffff6124bc16565b612a8a565b6001600160a01b038085169084167f220e66e3e759e1382aa86cd8af5abca05ebf3ad564f223ae62d977678337272a6136a5858563ffffffff6124bc16565b604051612eb791906153a2565b602f546002546001600160a01b038581166000908152603c602090815260408083208885168452909152812054909392919091169015613715576001600160a01b038087166000908152603c602090815260408083209389168352929052205491505b6037546000906060906001600160a01b038085169163d138f9a160e01b918b911661375368056bc75e2d631000006118858c8b63ffffffff61243916565b60405160240161376593929190614f3b565b60408051601f198184030181529181526020820180516001600160e01b03166001600160e01b03199094169390931790925290516137a39190614dea565b600060405180830381855afa9150503d80600081146137de576040519150601f19603f3d011682016040523d82523d6000602084013e6137e3565b606091505b509150915060018214156137f957602081015194505b6000306001600160a01b031663c22552f76040518163ffffffff1660e01b815260040160206040518083038186803b15801561383457600080fd5b505afa158015613848573d6000803e3d6000fd5b505050506040513d601f19601f8201168201806040525061386c91908101906145be565b9050851580159061387d5750858110155b15613aa55760375460385460405163095ea7b360e01b81526001600160a01b039283169263095ea7b3926138b8929116908a90600401614fd7565b602060405180830381600087803b1580156138d257600080fd5b505af11580156138e6573d6000803e3d6000fd5b505050506040513d601f19601f8201168201806040525061390a919081019061444c565b50603854603f546040516000926001600160a01b031691613931918f918b91602401614ff2565b60408051601f198184030181529181526020820180516001600160e01b0316630efe6a8b60e01b179052516139669190614dea565b6000604051808303816000865af19150503d80600081146139a3576040519150601f19603f3d011682016040523d82523d6000602084013e6139a8565b606091505b505090508015613a3757601f546139c5908863ffffffff612a6516565b601f819055508a603760009054906101000a90046001600160a01b03166001600160a01b03168d6001600160a01b03167ff41c644671512f1cda76abfe6038e3d7d526c1377a5a8c692f81703901db2150898b603f54604051613a2a939291906153d8565b60405180910390a4613a9f565b8a603760009054906101000a90046001600160a01b03166001600160a01b03168d6001600160a01b03167f483f67ea49f76ac15e15bbad68b52788ca47d50aef1e4acfe95e5e307e710812898b603f54604051613a96939291906153d8565b60405180910390a45b50612833565b8515801590613ab357508581105b1561283357603754603f546040518c926001600160a01b0390811692908f16917f483f67ea49f76ac15e15bbad68b52788ca47d50aef1e4acfe95e5e307e71081291613b02918b918d916153d8565b60405180910390a45050505050505050505050565b84516000908190151580613b2e5750602087015115155b613b4a5760405162461bcd60e51b81526004016103a6906152f2565b6020870151613b5b57865160208801525b602087015187511115613b805760405162461bcd60e51b81526004016103a690615222565b600080600087613c3d5760408a0151613bfc578515613bb157613baa8a60005b6020020151613ec4565b9050613bc5565b613bc28a60005b6020020151613ef4565b90505b8015613bf75760808b01518b51613be891908b908e60015b602002015185613f18565b8951613bf490826124bc565b8a525b613c3d565b8515613c1457613c0d8a6002613ba0565b9050613c22565b613c1f8a6002613bb8565b90505b8015613c3d5760408a0151613c379082612a65565b60408b01525b865115613c5c5760405162461bcd60e51b81526004016103a690615342565b613c668b8b61405c565b60408c01519194509250613cb25789518214613c945760405162461bcd60e51b81526004016103a690615372565b8015613cad57613caa828263ffffffff612a6516565b91505b613d2c565b60208a0151821115613cd65760405162461bcd60e51b81526004016103a6906151e2565b60408a0151831015613cfa5760405162461bcd60e51b81526004016103a690615192565b8015613d2c5760808b015160208c0151613d1991908b908e6000613bdd565b613d29838263ffffffff6124bc16565b92505b5090999098509650505050505050565b6029548015611a8557602d546000906001600160a01b0385811691161415613d65575081613dea565b600254604051635967aa7560e11b81526001600160a01b039091169063b2cf54ea90613d979087908790600401614fd7565b60206040518083038186803b158015613daf57600080fd5b505afa158015613dc3573d6000803e3d6000fd5b505050506040513d601f19601f82011682018060405250613de791908101906145be565b90505b81811115612ce95760405162461bcd60e51b81526004016103a690615232565b6000813f7fc5d2460186f7233c927e7db2dcc703c0e500b653ca82273b7bfad8045d85a47081811480159061230b575050151592915050565b8015611a85576001600160a01b038216600090815260166020526040902054613e72908263ffffffff612a6516565b6001600160a01b0380841660008181526016602052604090819020939093559151908516907f40a75ae5f7a5336e75f7c7977e12c4b46a9ac0f30de01a2d5b6c1a4f4af6358790612aed9085906153a2565b6000611a0568056bc75e2d63100000613ee8603e548561243990919063ffffffff16565b9063ffffffff61416e16565b6000611a0568056bc75e2d63100000613ee86018548561243990919063ffffffff16565b808015614054576001600160a01b038681166000908152603360205260409020541615613fc2576001600160a01b03808716600090815260336020526040902054613f6691168786846141b0565b5050613fbf613f8d68056bc75e2d631000006118856039548561243990919063ffffffff16565b6121d6613fb268056bc75e2d631000006118856020548761243990919063ffffffff16565b849063ffffffff6124bc16565b90505b6001600160a01b038416600090815260196020526040902054613feb908263ffffffff612a6516565b6001600160a01b03808616600081815260196020526040908190209390935591518792918916907fb23479169712c443e6b00fb0cec3506a5f5926f541df4243d313e11c8c5c71ed9061403f9086906153a2565b60405180910390a461405486868686866136b2565b505050505050565b815160208084015160408086015160608781015187519588015188850151945160009889989497630957ba1160e21b976140a3979296919592949293919291602401614eba565b60408051601f198184030181529181526020820180516001600160e01b03166001600160e01b03199094169390931790925260035491519092506000916001600160a01b0316906140f5908490614dea565b600060405180830381855af49150503d8060008114614130576040519150601f19603f3d011682016040523d82523d6000602084013e614135565b606091505b5092509050806141575760405162461bcd60e51b81526004016103a690615362565b602082015193506040820151925050509250929050565b600061247383836040518060400160405280601a81526020017f536166654d6174683a206469766973696f6e206279207a65726f00000000000081525061423c565b6040516306a688ff60e11b815260009081903090630d4d11fe906141de908990899089908990600401614eef565b6040805180830381600087803b1580156141f757600080fd5b505af115801561420b573d6000803e3d6000fd5b505050506040513d601f19601f8201168201806040525061422f91908101906145dc565b9097909650945050505050565b6000818361425d5760405162461bcd60e51b81526004016103a69190615161565b508361426b57506000612473565b600083600186038161427957fe5b0460010195945050505050565b6040805161018081018252600080825260208201819052918101829052606081018290526080810182905260a0810182905260c0810182905260e0810182905261010081018290526101208101829052610140810182905261016081019190915290565b6040805161010081018252600080825260208201819052918101829052606081018290526080810182905260a0810182905260c0810182905260e081019190915290565b8035611a058161553c565b8035611a0581615550565b8051611a0581615550565b8035611a0581615559565b8035611a0581615562565b600082601f83011261437657600080fd5b813561438961438482615482565b61545b565b915080825260208301602083018583830111156143a557600080fd5b6143b08382846154fa565b50505092915050565b8051611a0581615559565b6000602082840312156143d657600080fd5b600061230b848461432e565b600080604083850312156143f557600080fd5b6000614401858561432e565b92505060206144128582860161432e565b9150509250929050565b6000806040838503121561442f57600080fd5b600061443b858561432e565b92505060206144128582860161434f565b60006020828403121561445e57600080fd5b600061230b8484614344565b60006020828403121561447c57600080fd5b600061230b848461434f565b6000806040838503121561449b57600080fd5b6000614401858561434f565b6000806000606084860312156144bc57600080fd5b60006144c8868661434f565b93505060206144d98682870161432e565b92505060406144ea8682870161434f565b9150509250925092565b600080600080600060a0868803121561450c57600080fd5b6000614518888861434f565b95505060206145298882890161432e565b945050604061453a8882890161434f565b935050606061454b88828901614339565b925050608086013567ffffffffffffffff81111561456857600080fd5b61457488828901614365565b9150509295509295909350565b6000806040838503121561459457600080fd5b600061443b858561434f565b6000602082840312156145b257600080fd5b600061230b848461435a565b6000602082840312156145d057600080fd5b600061230b84846143b9565b600080604083850312156145ef57600080fd5b60006145fb85856143b9565b9250506020614412858286016143b9565b614615816154e8565b82525050565b614615816154bc565b614615816154c7565b614615816154cc565b6000614641826154aa565b61464b81856154ae565b935061465b818560208601615506565b9290920192915050565b614615816154ef565b6000614679826154aa565b61468381856154b3565b9350614693818560208601615506565b61469c81615532565b9093019392505050565b60006146b36014836154b3565b733932b2b73a3930b731bc903b34b7b630ba34b7b760611b815260200192915050565b60006146e36006836154b3565b6514185d5cd95960d21b815260200192915050565b6000614705601b836154b3565b7f696e73756666696369656e742073776170206c69717569646974790000000000815260200192915050565b600061473e6026836154b3565b7f4f776e61626c653a206e6577206f776e657220697320746865207a65726f206181526564647265737360d01b602082015260400192915050565b6000614786601b836154b3565b7f536166654d6174683a206164646974696f6e206f766572666c6f770000000000815260200192915050565b60006147bf6010836154b3565b6f1ddc9bdb99c8185cdcd95d081cd95b9d60821b815260200192915050565b60006147eb6020836154b3565b7f5361666545524332303a206c6f772d6c6576656c2063616c6c206661696c6564815260200192915050565b60006148246013836154b3565b72737761702066696c6c20746f6f206c6172676560681b815260200192915050565b60006148536017836154b3565b7f65786365737369766520736f7572636520616d6f756e74000000000000000000815260200192915050565b600061488c603a836154b3565b7f416464726573733a20756e61626c6520746f2073656e642076616c75652c207281527f6563697069656e74206d61792068617665207265766572746564000000000000602082015260400192915050565b60006148eb601d836154b3565b7f416464726573733a20696e73756666696369656e742062616c616e6365000000815260200192915050565b6000614924601c836154b3565b7f736f75726365416d6f756e74206c6172676572207468616e206d617800000000815260200192915050565b600061495d600e836154b3565b6d7377617020746f6f206c6172676560901b815260200192915050565b60006149876018836154b3565b7f696e73756666696369656e74206465737420616d6f756e740000000000000000815260200192915050565b60006149c06021836154b3565b7f536166654d6174683a206d756c7469706c69636174696f6e206f766572666c6f8152607760f81b602082015260400192915050565b6000614a03600c836154b3565b6b1d5b985d5d1a1bdc9a5e995960a21b815260200192915050565b6000614a2b6025836154b3565b7f54696e7920616d6f756e74207768656e20636c6f73696e6720776974682064658152641c1bdcda5d60da1b602082015260400192915050565b6000614a726012836154b3565b713ab73432b0b63a343c903837b9b4ba34b7b760711b815260200192915050565b6000614aa0600a836154b3565b6939bbb0b81032b93937b960b11b815260200192915050565b6000614ac66015836154b3565b746c6f616e506172616d73206e6f742065786973747360581b815260200192915050565b6000614af76012836154b3565b7106465706f736974416d6f756e74203d3d20360741b815260200192915050565b6000614b256014836154b3565b7319985b1b189858dac81b9bdd08185b1b1bddd95960621b815260200192915050565b6000614b556010836154b3565b6f6e6f7468696e6720746f20636c6f736560801b815260200192915050565b6000614b816014836154b3565b7306c6f616e436c6f7365416d6f756e74203d3d20360641b815260200192915050565b6000614bb1602e836154b3565b7f6d696e206f72206d617820736f7572636520746f6b656e20616d6f756e74206e81526d1959591cc81d1bc81899481cd95d60921b602082015260400192915050565b6000611a056000836154ae565b6000614c0e600f836154b3565b6e073776170416d6f756e74203d3d203608c1b815260200192915050565b6000614c39600e836154b3565b6d1b1bd85b881a5cc818db1bdcd95960921b815260200192915050565b6000614c63600c836154b3565b6b1b9bdb9499595b9d1c985b9d60a21b815260200192915050565b6000614c8b601b836154b3565b7f636c6f7365416d6f756e74206973203020616674657220737761700000000000815260200192915050565b6000614cc4600d836154b3565b6c696e76616c696420737461746560981b815260200192915050565b6000614ced602a836154b3565b7f5361666545524332303a204552433230206f7065726174696f6e20646964206e8152691bdd081cdd58d8d9595960b21b602082015260400192915050565b6000614d39600b836154b3565b6a1cddd85c0819985a5b195960aa1b815260200192915050565b6000614d606016836154b3565b751cddd85c081d1bdbc81b185c99d9481d1bc8199a5b1b60521b815260200192915050565b6000614d92601f836154b3565b7f5361666545524332303a2063616c6c20746f206e6f6e2d636f6e747261637400815260200192915050565b6000614dcb6010836154b3565b6f3737ba1032b737bab3b41032ba3432b960811b815260200192915050565b60006124738284614636565b6000611a0582614bf4565b60208101611a05828461461b565b60e08101614e1d828a61460c565b614e2a602083018961461b565b614e37604083018861461b565b614e44606083018761462d565b614e51608083018661462d565b614e5e60a083018561462d565b614e6b60c083018461462d565b98975050505050505050565b60408101614e85828561461b565b612473602083018461461b565b60e08101614ea0828a61461b565b614ead602083018961461b565b614e37604083018861460c565b60e08101614ec8828a61461b565b614ed5602083018961461b565b614ee2604083018861461b565b614e44606083018761461b565b60808101614efd828761461b565b614f0a602083018661461b565b614f17604083018561461b565b614f24606083018461462d565b95945050505050565b60e08101614e1d828a61461b565b60608101614f49828661461b565b614f56602083018561461b565b61230b604083018461462d565b60808101614f71828761461b565b614f7e602083018661461b565b614f17604083018561462d565b60a08101614f99828861461b565b614fa6602083018761461b565b614fb3604083018661462d565b614fc0606083018561462d565b614fcd608083018461462d565b9695505050505050565b60408101614fe5828561461b565b612473602083018461462d565b60608101615000828661461b565b614f56602083018561462d565b60208101611a058284614624565b60408101614fe58285614624565b6101008101615038828b61462d565b615045602083018a614624565b615052604083018961461b565b61505f606083018861461b565b61506c608083018761461b565b61507960a083018661462d565b61508660c083018561462d565b61509360e083018461462d565b9998505050505050505050565b61018081016150af828f61462d565b6150bc602083018e61462d565b6150c9604083018d61462d565b6150d6606083018c614624565b6150e3608083018b61462d565b6150f060a083018a61462d565b6150fd60c083018961462d565b61510a60e083018861462d565b61511861010083018761462d565b61512661012083018661462d565b61513461014083018561461b565b61514261016083018461461b565b9d9c50505050505050505050505050565b60208101611a058284614665565b60208082528101612473818461466e565b60208082528101611a05816146a6565b60208082528101611a05816146d6565b60208082528101611a05816146f8565b60208082528101611a0581614731565b60208082528101611a0581614779565b60208082528101611a05816147b2565b60208082528101611a05816147de565b60208082528101611a0581614817565b60208082528101611a0581614846565b60208082528101611a058161487f565b60208082528101611a05816148de565b60208082528101611a0581614917565b60208082528101611a0581614950565b60208082528101611a058161497a565b60208082528101611a05816149b3565b60208082528101611a05816149f6565b60208082528101611a0581614a1e565b60208082528101611a0581614a65565b60208082528101611a0581614a93565b60208082528101611a0581614ab9565b60208082528101611a0581614aea565b60208082528101611a0581614b18565b60208082528101611a0581614b48565b60208082528101611a0581614b74565b60208082528101611a0581614ba4565b60208082528101611a0581614c01565b60208082528101611a0581614c2c565b60208082528101611a0581614c56565b60208082528101611a0581614c7e565b60208082528101611a0581614cb7565b60208082528101611a0581614ce0565b60208082528101611a0581614d2c565b60208082528101611a0581614d53565b60208082528101611a0581614d85565b60208082528101611a0581614dbe565b60208101611a05828461462d565b606081016153be828661462d565b6153cb602083018561462d565b61230b604083018461461b565b60608101615000828661462d565b60a081016153f4828861462d565b614fa6602083018761462d565b60c0810161540f828961462d565b61541c602083018861462d565b615429604083018761462d565b615436606083018661462d565b615443608083018561462d565b61545060a083018461462d565b979650505050505050565b60405181810167ffffffffffffffff8111828210171561547a57600080fd5b604052919050565b600067ffffffffffffffff82111561549957600080fd5b506020601f91909101601f19160190565b5190565b919050565b90815260200190565b6000611a05826154dc565b151590565b90565b6001600160e01b03191690565b6001600160a01b031690565b6000611a05825b6000611a05826154bc565b82818337506000910152565b60005b83811015615521578181015183820152602001615509565b83811115612ce95750506000910152565b601f01601f191690565b615545816154bc565b811461136857600080fd5b615545816154c7565b615545816154cc565b615545816154cf56fea365627a7a72315820d2e3f8fce9c9a56b97a024cdbf124a4ba8b513b664b4a1b13bd0478336e90d366c6578706572696d656e74616cf564736f6c63430005110040",
    "linkReferences": {}
  },
  "methodIdentifiers": {
    "TINY_AMOUNT()": "f8dd4f0e",
    "admin()": "f851a440",
    "affiliateFeePercent()": "ae0a8530",
    "affiliateRewardsHeld(address)": "bdee453c",
    "affiliateTradingTokenFeePercent()": "f589a3e7",
    "affiliatesReferrerBalances(address,address)": "1b7bde74",
    "affiliatesUserReferrer(address)": "6e663730",
    "borrowerNonce(address)": "3fca506e",
    "borrowerOrders(address,bytes32)": "065d810f",
    "borrowingFeePercent()": "edab119f",
    "borrowingFeeTokensHeld(address)": "b7e15241",
    "borrowingFeeTokensPaid(address)": "b30643d9",
    "checkCloseWithDepositIsTinyPosition(bytes32,uint256)": "7523e6d9",
    "closeWithDeposit(bytes32,address,uint256)": "366f513b",
    "closeWithSwap(bytes32,address,uint256,bool,bytes)": "f8de21d2",
    "delegatedManagers(bytes32,address)": "4115a2b6",
    "feeRebatePercent()": "acc04348",
    "feesController()": "e8f62764",
    "initialize(address)": "c4d66de8",
    "isOwner()": "8f32d59b",
    "lenderInterest(address,address)": "62fff3f6",
    "lenderOrders(address,bytes32)": "3432423c",
    "lendingFeePercent()": "4699f846",
    "lendingFeeTokensHeld(address)": "4203e395",
    "lendingFeeTokensPaid(address)": "92d894f8",
    "liquidationIncentivePercent()": "f6ddc8b3",
    "loanInterest(bytes32)": "569fc1fb",
    "loanParams(bytes32)": "cb6eacd1",
    "loanPoolToUnderlying(address)": "8dc48ba5",
    "loans(bytes32)": "c4a90815",
    "lockedSOVAddress()": "d288208c",
    "logicTargets(bytes4)": "17548b79",
    "maxDisagreement()": "d473c2da",
    "maxSwapSize()": "4f28cac2",
    "minReferralsToPayout()": "742e6798",
    "owner()": "8da5cb5b",
    "pause()": "8456cb59",
    "paySwapExcessToBorrowerThreshold()": "ee54a4ec",
    "priceFeeds()": "78d849ed",
    "protocolAddress()": "0676c1b7",
    "protocolTokenAddress()": "f706b1f2",
    "protocolTokenHeld()": "7a8faeb8",
    "protocolTokenPaid()": "2f470764",
    "rolloverBaseReward()": "574442cc",
    "rolloverFlexFeePercent()": "959083d3",
    "sourceBuffer()": "f0e085f5",
    "sovTokenAddress()": "b9cffa3e",
    "sovrynSwapContractRegistryAddress()": "ba4861e9",
    "specialRebates(address,address)": "cd5d808d",
    "supportedTokens(address)": "68c4ac26",
    "swapsImpl()": "7420ca3e",
    "tradingFeePercent()": "2a324027",
    "tradingFeeTokensHeld(address)": "d485045e",
    "tradingFeeTokensPaid(address)": "3452d2d4",
    "transferOwnership(address)": "f2fde38b",
    "underlyingToLoanPool(address)": "218b39c6",
    "userNotFirstTradeFlag(address)": "24cc5749",
    "wrbtcToken()": "afe84009"
  },
  "id": 136
}